{
    "balance_change": {
        "balanceChanges": []
    },
    "profile": {
        "basic_info": {
            "baseFee": "20.888159505",
            "blockNumber": 18650767,
            "callData": "0x775526410000000000000000000000000000000000000000000000000000000000000060e9a2dc7df84f2a26719a9ff711b59564d51f04916d138eda5ac26d7d5ea1ed0100000000000000000000000000000000000000000000000000000000000006a9000000000000000000000000000000000000000000000000000000000000001c02e0cc8c8d90edb14e2e16bace7c5f7f21ac5b760c2aa855d7b585ec1cc309a8004eb7d047dceb6b575e1d8717cd0226dc669b38f89f51b0255af6a9e38a024b0000000000000000000000000000000000000000000000000000000000068e9503236247fc834254d1191797b05dd680ed13b9239da6a6207b5fd061f0c14d0d017c0bc29d31e9a7d14671610a7626264ce9ce8e3ed066a4775adf9b123de9dd0000000000000000000000000000000000000000000000000000000000000015073314940630fd6dcda0d772d4c972c4e0a9946bef9dabf4ef84eda8ef542b82000000000000000000000000ae0ee0a63a2ce6baeeffe56e7714fb4efe48d41900000000000000000000000000000000000000000000000000000000000000040000000000000000000000000000000000000000000000000000000000000000000000000000000000000000dbd503287bf5b1cdbf0bec77b463bf92c193f070000000000000000000000000000000000000000000000000000009184e72a0000000000000000000000000000000000000000000000000000000000000000000074761a8d48ce002963002becc6d9c3dd8a2a05b1075d55e5967f42296f16bd0000000000000000000000000bb3400f107804dfb482565ff1ec8d8ae66747605000000000000000000000000000000000000000000000000000000000000000400000000000000000000000000000000000000000000000000000000000000000000000000000000000000004add85ad0919504f5a32d7a2c235f73e1d526b1b000000000000000000000000000000000000000000000000000000000bebc2000000000000000000000000000000000000000000000000000000000000000000073314940630fd6dcda0d772d4c972c4e0a9946bef9dabf4ef84eda8ef542b82000000000000000000000000ae0ee0a63a2ce6baeeffe56e7714fb4efe48d419000000000000000000000000000000000000000000000000000000000000000400000000000000000000000000000000000000000000000000000000000000000000000000000000000000006653a7ed134a9ac0751e8204f223880c98a955f7000000000000000000000000000000000000000000000000006e2255f409800000000000000000000000000000000000000000000000000000000000000000000000000000000000000000000000000000000000000000000000000000000000",
            "debugEnable": true,
            "errorInfo": "",
            "eventCount": 5,
            "feeRecipient": "0x388c818ca8b9251b393131c08a736a67ccb19297",
            "formatValue": "0",
            "gasLimit": 5500000,
            "gasPrice": "21.888159505",
            "gasUsed": 166286,
            "intTxnCount": 4,
            "internalRevert": false,
            "internalRevertMessage": "",
            "isContractCreation": false,
            "isFlashloan": false,
            "maxFee": "150",
            "nonce": 429717,
            "overwritedBlockNumber": -1,
            "priorityFee": "1",
            "receiver": "0xc662c410c0ecf747543f5ba90660f6abebd9c8c4",
            "revertMessage": "",
            "sender": "0x2c169dfe5fbba12957bdd0ba47d9cedbfe260ca7",
            "simulationEnable": true,
            "sourceTxnHash": "0xecd18d16834a72859a600f045040417afdbcadc3574b49d502d23e2fadace275",
            "status": true,
            "timestamp": "2023-11-25T19:23:23Z",
            "transactionFee": "0.00363969449144843",
            "txnHash": "0xecd18d16834a72859a600f045040417afdbcadc3574b49d502d23e2fadace275",
            "txnIndex": 43,
            "type": 2,
            "value": "0"
        },
        "fund_flow": [],
        "token_infos": [
            {
                "address": "0xeeeeeeeeeeeeeeeeeeeeeeeeeeeeeeeeeeeeeeee",
                "decimals": 18
            },
            {
                "address": "0xc02aaa39b223fe8d0a0e5c4f27ead9083c756cc2",
                "decimals": 18
            }
        ]
    },
    "address_label": {
        "labels": [
            {
                "address": "0x0000000000000000000000000000000000000002",
                "label": "Precompiled"
            },
            {
                "address": "0x0000000000000000000000000000000000000004",
                "label": "Precompiled"
            },
            {
                "address": "0xeeeeeeeeeeeeeeeeeeeeeeeeeeeeeeeeeeeeeeee",
                "label": "Ether"
            },
            {
                "address": "0xc662c410c0ecf747543f5ba90660f6abebd9c8c4",
                "label": "Starknet: Core Contract"
            },
            {
                "address": "0xd4c4044aca68ebbcb81b13cc2699e1bca2d3f458",
                "label": "CallProxy"
            },
            {
                "address": "0x16938e4b59297060484fa56a12594d8d6f4177e8",
                "label": "Starknet"
            },
            {
                "address": "0x6cb3ee90c50a38a0e4662bb7e7e6e40b91361bf6",
                "label": "GpsStatementVerifier"
            },
            {
                "address": "0x2c169dfe5fbba12957bdd0ba47d9cedbfe260ca7",
                "label": "StarkNet: Operator"
            },
            {
                "address": "0x47312450b3ac8b5b8e247a6bb6d523e7605bdb60",
                "label": "Starkware: SHARP Verifier"
            },
            {
                "address": "0x388c818ca8b9251b393131c08a736a67ccb19297",
                "label": "LidoExecutionLayerRewardsVault"
            },
            {
                "address": "0x0000000000000000000000000000000000000001",
                "label": "Precompiled"
            },
            {
                "address": "0x0000000000000000000000000000000000000003",
                "label": "Precompiled"
            }
        ]
    },
    "trace": {
        "accountLabels": null,
        "dataMap": {
            "-1": {
                "invocation": {
                    "address": "0x2c169dfe5fbba12957bdd0ba47d9cedbfe260ca7",
                    "callData": "",
                    "decodedMethod": null,
                    "errorInfo": "",
                    "fromAddress": "",
                    "gasUsed": 0,
                    "id": -1,
                    "methodDecoded": false,
                    "operation": "",
                    "output": "",
                    "revert": false,
                    "revertMessage": "",
                    "selector": "",
                    "status": false,
                    "value": ""
                },
                "nodeType": 0
            },
            "0": {
                "invocation": {
                    "address": "0xc662c410c0ecf747543f5ba90660f6abebd9c8c4",
                    "callData": "0x0000000000000000000000000000000000000000000000000000000000000060e9a2dc7df84f2a26719a9ff711b59564d51f04916d138eda5ac26d7d5ea1ed0100000000000000000000000000000000000000000000000000000000000006a9000000000000000000000000000000000000000000000000000000000000001c02e0cc8c8d90edb14e2e16bace7c5f7f21ac5b760c2aa855d7b585ec1cc309a8004eb7d047dceb6b575e1d8717cd0226dc669b38f89f51b0255af6a9e38a024b0000000000000000000000000000000000000000000000000000000000068e9503236247fc834254d1191797b05dd680ed13b9239da6a6207b5fd061f0c14d0d017c0bc29d31e9a7d14671610a7626264ce9ce8e3ed066a4775adf9b123de9dd0000000000000000000000000000000000000000000000000000000000000015073314940630fd6dcda0d772d4c972c4e0a9946bef9dabf4ef84eda8ef542b82000000000000000000000000ae0ee0a63a2ce6baeeffe56e7714fb4efe48d41900000000000000000000000000000000000000000000000000000000000000040000000000000000000000000000000000000000000000000000000000000000000000000000000000000000dbd503287bf5b1cdbf0bec77b463bf92c193f070000000000000000000000000000000000000000000000000000009184e72a0000000000000000000000000000000000000000000000000000000000000000000074761a8d48ce002963002becc6d9c3dd8a2a05b1075d55e5967f42296f16bd0000000000000000000000000bb3400f107804dfb482565ff1ec8d8ae66747605000000000000000000000000000000000000000000000000000000000000000400000000000000000000000000000000000000000000000000000000000000000000000000000000000000004add85ad0919504f5a32d7a2c235f73e1d526b1b000000000000000000000000000000000000000000000000000000000bebc2000000000000000000000000000000000000000000000000000000000000000000073314940630fd6dcda0d772d4c972c4e0a9946bef9dabf4ef84eda8ef542b82000000000000000000000000ae0ee0a63a2ce6baeeffe56e7714fb4efe48d419000000000000000000000000000000000000000000000000000000000000000400000000000000000000000000000000000000000000000000000000000000000000000000000000000000006653a7ed134a9ac0751e8204f223880c98a955f7000000000000000000000000000000000000000000000000006e2255f409800000000000000000000000000000000000000000000000000000000000000000000000000000000000000000000000000000000000000000000000000000000000",
                    "decodedMethod": {
                        "callParams": [
                            {
                                "name": "programOutput",
                                "type": "uint256[]",
                                "value": [
                                    "1,301,811,185,232,822,789,286,107,054,062,594,588,524,118,578,010,064,636,072,994,453,043,223,398,824",
                                    "139,082,705,871,137,181,566,436,444,894,839,402,193,690,709,460,130,422,008,914,872,821,072,134,731",
                                    "429,717",
                                    "1,419,456,504,907,935,824,645,197,772,077,824,209,698,837,164,255,395,866,941,346,237,805,186,075,917",
                                    "671,483,050,609,816,861,429,812,414,688,707,376,174,032,882,875,357,307,847,551,691,140,236,175,837",
                                    "21",
                                    "3,256,441,166,037,631,918,262,930,812,410,838,598,500,200,462,657,642,943,867,372,734,773,841,898,370",
                                    "993,696,174,272,377,493,693,496,825,928,908,586,134,624,850,969",
                                    "4",
                                    "0",
                                    "1,255,019,312,650,631,113,153,768,994,289,070,745,337,520,713,840",
                                    "10,000,000,000,000",
                                    "0",
                                    "3,292,310,102,732,967,235,607,621,007,132,320,245,226,792,589,059,970,898,975,575,550,212,288,113,616",
                                    "1,068,740,994,912,402,803,003,650,731,105,045,756,656,512,955,909",
                                    "4",
                                    "0",
                                    "427,405,426,544,812,282,205,926,080,631,173,390,244,817,038,107",
                                    "200,000,000",
                                    "0",
                                    "3,256,441,166,037,631,918,262,930,812,410,838,598,500,200,462,657,642,943,867,372,734,773,841,898,370",
                                    "993,696,174,272,377,493,693,496,825,928,908,586,134,624,850,969",
                                    "4",
                                    "0",
                                    "584,182,648,899,823,938,042,711,739,011,267,910,877,426,832,887",
                                    "31,000,000,000,000,000",
                                    "0",
                                    "0"
                                ]
                            },
                            {
                                "name": "onchainDataHash",
                                "type": "uint256",
                                "value": "105,676,644,724,734,808,851,762,796,499,323,230,415,774,896,949,376,847,173,599,077,595,273,924,570,369"
                            },
                            {
                                "name": "onchainDataSize",
                                "type": "uint256",
                                "value": "1,705"
                            }
                        ],
                        "constructorArguments": "",
                        "name": "updateState",
                        "returnParams": [],
                        "signature": "updateState(uint256[],uint256,uint256)"
                    },
                    "errorInfo": "",
                    "fromAddress": "0x2c169dfe5fbba12957bdd0ba47d9cedbfe260ca7",
                    "gasUsed": 166286,
                    "id": 0,
                    "methodDecoded": true,
                    "operation": "CALL",
                    "output": "",
                    "revert": false,
                    "revertMessage": "",
                    "selector": "0x77552641",
                    "status": true,
                    "value": "0"
                },
                "nodeType": 0
            },
            "1": {
                "invocation": {
                    "address": "0x16938e4b59297060484fa56a12594d8d6f4177e8",
                    "callData": "0x0000000000000000000000000000000000000000000000000000000000000060e9a2dc7df84f2a26719a9ff711b59564d51f04916d138eda5ac26d7d5ea1ed0100000000000000000000000000000000000000000000000000000000000006a9000000000000000000000000000000000000000000000000000000000000001c02e0cc8c8d90edb14e2e16bace7c5f7f21ac5b760c2aa855d7b585ec1cc309a8004eb7d047dceb6b575e1d8717cd0226dc669b38f89f51b0255af6a9e38a024b0000000000000000000000000000000000000000000000000000000000068e9503236247fc834254d1191797b05dd680ed13b9239da6a6207b5fd061f0c14d0d017c0bc29d31e9a7d14671610a7626264ce9ce8e3ed066a4775adf9b123de9dd0000000000000000000000000000000000000000000000000000000000000015073314940630fd6dcda0d772d4c972c4e0a9946bef9dabf4ef84eda8ef542b82000000000000000000000000ae0ee0a63a2ce6baeeffe56e7714fb4efe48d41900000000000000000000000000000000000000000000000000000000000000040000000000000000000000000000000000000000000000000000000000000000000000000000000000000000dbd503287bf5b1cdbf0bec77b463bf92c193f070000000000000000000000000000000000000000000000000000009184e72a0000000000000000000000000000000000000000000000000000000000000000000074761a8d48ce002963002becc6d9c3dd8a2a05b1075d55e5967f42296f16bd0000000000000000000000000bb3400f107804dfb482565ff1ec8d8ae66747605000000000000000000000000000000000000000000000000000000000000000400000000000000000000000000000000000000000000000000000000000000000000000000000000000000004add85ad0919504f5a32d7a2c235f73e1d526b1b000000000000000000000000000000000000000000000000000000000bebc2000000000000000000000000000000000000000000000000000000000000000000073314940630fd6dcda0d772d4c972c4e0a9946bef9dabf4ef84eda8ef542b82000000000000000000000000ae0ee0a63a2ce6baeeffe56e7714fb4efe48d419000000000000000000000000000000000000000000000000000000000000000400000000000000000000000000000000000000000000000000000000000000000000000000000000000000006653a7ed134a9ac0751e8204f223880c98a955f7000000000000000000000000000000000000000000000000006e2255f409800000000000000000000000000000000000000000000000000000000000000000000000000000000000000000000000000000000000000000000000000000000000",
                    "decodedMethod": {
                        "callParams": [
                            {
                                "name": "programOutput",
                                "type": "uint256[]",
                                "value": [
                                    "1,301,811,185,232,822,789,286,107,054,062,594,588,524,118,578,010,064,636,072,994,453,043,223,398,824",
                                    "139,082,705,871,137,181,566,436,444,894,839,402,193,690,709,460,130,422,008,914,872,821,072,134,731",
                                    "429,717",
                                    "1,419,456,504,907,935,824,645,197,772,077,824,209,698,837,164,255,395,866,941,346,237,805,186,075,917",
                                    "671,483,050,609,816,861,429,812,414,688,707,376,174,032,882,875,357,307,847,551,691,140,236,175,837",
                                    "21",
                                    "3,256,441,166,037,631,918,262,930,812,410,838,598,500,200,462,657,642,943,867,372,734,773,841,898,370",
                                    "993,696,174,272,377,493,693,496,825,928,908,586,134,624,850,969",
                                    "4",
                                    "0",
                                    "1,255,019,312,650,631,113,153,768,994,289,070,745,337,520,713,840",
                                    "10,000,000,000,000",
                                    "0",
                                    "3,292,310,102,732,967,235,607,621,007,132,320,245,226,792,589,059,970,898,975,575,550,212,288,113,616",
                                    "1,068,740,994,912,402,803,003,650,731,105,045,756,656,512,955,909",
                                    "4",
                                    "0",
                                    "427,405,426,544,812,282,205,926,080,631,173,390,244,817,038,107",
                                    "200,000,000",
                                    "0",
                                    "3,256,441,166,037,631,918,262,930,812,410,838,598,500,200,462,657,642,943,867,372,734,773,841,898,370",
                                    "993,696,174,272,377,493,693,496,825,928,908,586,134,624,850,969",
                                    "4",
                                    "0",
                                    "584,182,648,899,823,938,042,711,739,011,267,910,877,426,832,887",
                                    "31,000,000,000,000,000",
                                    "0",
                                    "0"
                                ]
                            },
                            {
                                "name": "onchainDataHash",
                                "type": "uint256",
                                "value": "105,676,644,724,734,808,851,762,796,499,323,230,415,774,896,949,376,847,173,599,077,595,273,924,570,369"
                            },
                            {
                                "name": "onchainDataSize",
                                "type": "uint256",
                                "value": "1,705"
                            }
                        ],
                        "constructorArguments": "",
                        "name": "updateState",
                        "returnParams": [],
                        "signature": "updateState(uint256[],uint256,uint256)"
                    },
                    "errorInfo": "",
                    "fromAddress": "0xc662c410c0ecf747543f5ba90660f6abebd9c8c4",
                    "gasUsed": 131113,
                    "id": 1,
                    "methodDecoded": true,
                    "operation": "DELEGATECALL",
                    "output": "",
                    "revert": false,
                    "revertMessage": "",
                    "selector": "0x77552641",
                    "status": true,
                    "value": "0"
                },
                "nodeType": 0
            },
            "2": {
                "invocation": {
                    "address": "0x47312450b3ac8b5b8e247a6bb6d523e7605bdb60",
                    "callData": "0xbdf5ecbb9a4160f1fc6782d243cd68854059649b4426614a72fcc0432ad48368",
                    "decodedMethod": {
                        "callParams": [
                            {
                                "name": "fact",
                                "type": "bytes32",
                                "value": "0xbdf5ecbb9a4160f1fc6782d243cd68854059649b4426614a72fcc0432ad48368"
                            }
                        ],
                        "constructorArguments": "",
                        "name": "isValid",
                        "returnParams": [
                            {
                                "name": "",
                                "type": "bool",
                                "value": true
                            }
                        ],
                        "signature": "isValid(bytes32)"
                    },
                    "errorInfo": "",
                    "fromAddress": "0xc662c410c0ecf747543f5ba90660f6abebd9c8c4",
                    "gasUsed": 12994,
                    "id": 2,
                    "methodDecoded": true,
                    "operation": "STATICCALL",
                    "output": "0x0000000000000000000000000000000000000000000000000000000000000001",
                    "revert": false,
                    "revertMessage": "",
                    "selector": "0x6a938567",
                    "status": true,
                    "value": "0"
                },
                "nodeType": 0
            },
            "3": {
                "invocation": {
                    "address": "0xd4c4044aca68ebbcb81b13cc2699e1bca2d3f458",
                    "callData": "0xbdf5ecbb9a4160f1fc6782d243cd68854059649b4426614a72fcc0432ad48368",
                    "decodedMethod": {
                        "callParams": [
                            {
                                "name": "fact",
                                "type": "bytes32",
                                "value": "0xbdf5ecbb9a4160f1fc6782d243cd68854059649b4426614a72fcc0432ad48368"
                            }
                        ],
                        "constructorArguments": "",
                        "name": "isValid",
                        "returnParams": [
                            {
                                "name": "",
                                "type": "bool",
                                "value": true
                            }
                        ],
                        "signature": "isValid(bytes32)"
                    },
                    "errorInfo": "",
                    "fromAddress": "0x47312450b3ac8b5b8e247a6bb6d523e7605bdb60",
                    "gasUsed": 7886,
                    "id": 3,
                    "methodDecoded": true,
                    "operation": "DELEGATECALL",
                    "output": "0x0000000000000000000000000000000000000000000000000000000000000001",
                    "revert": false,
                    "revertMessage": "",
                    "selector": "0x6a938567",
                    "status": true,
                    "value": "0"
                },
                "nodeType": 0
            },
            "4": {
                "invocation": {
                    "address": "0x6cb3ee90c50a38a0e4662bb7e7e6e40b91361bf6",
                    "callData": "0xbdf5ecbb9a4160f1fc6782d243cd68854059649b4426614a72fcc0432ad48368",
                    "decodedMethod": {
                        "callParams": [
                            {
                                "name": "fact",
                                "type": "bytes32",
                                "value": "0xbdf5ecbb9a4160f1fc6782d243cd68854059649b4426614a72fcc0432ad48368"
                            }
                        ],
                        "constructorArguments": "",
                        "name": "isValid",
                        "returnParams": [
                            {
                                "name": "",
                                "type": "bool",
                                "value": true
                            }
                        ],
                        "signature": "isValid(bytes32)"
                    },
                    "errorInfo": "",
                    "fromAddress": "0x47312450b3ac8b5b8e247a6bb6d523e7605bdb60",
                    "gasUsed": 2528,
                    "id": 4,
                    "methodDecoded": true,
                    "operation": "STATICCALL",
                    "output": "0x0000000000000000000000000000000000000000000000000000000000000001",
                    "revert": false,
                    "revertMessage": "",
                    "selector": "0x6a938567",
                    "status": true,
                    "value": "0"
                },
                "nodeType": 0
            },
            "5": {
                "event": {
                    "contract": "0xc662c410c0ecf747543f5ba90660f6abebd9c8c4",
                    "decodedLog": {
                        "name": "LogStateTransitionFact",
                        "params": [
                            {
                                "name": "stateTransitionFact",
                                "type": "bytes32",
                                "value": "0x93a526ebf1d5cb6de2558077c18a8116d767c633e43687dd47db550ad20e550c"
                            }
                        ],
                        "signature": "LogStateTransitionFact(bytes32)"
                    },
                    "id": 5,
                    "logData": "0x93a526ebf1d5cb6de2558077c18a8116d767c633e43687dd47db550ad20e550c",
                    "logDecoded": true,
                    "operation": "EVENT",
                    "revert": false,
                    "status": true,
                    "topics": [
                        "0x9866f8ddfe70bb512b2f2b28b49d4017c43f7ba775f1a20c61c13eea8cdac111"
                    ]
                },
                "nodeType": 1
            },
            "6": {
                "event": {
                    "contract": "0xc662c410c0ecf747543f5ba90660f6abebd9c8c4",
                    "decodedLog": {
                        "name": "LogMessageToL1",
                        "params": [
                            {
                                "name": "fromAddress",
                                "type": "uint256",
                                "value": "3,256,441,166,037,631,918,262,930,812,410,838,598,500,200,462,657,642,943,867,372,734,773,841,898,370"
                            },
                            {
                                "name": "toAddress",
                                "type": "address",
                                "value": "0xae0ee0a63a2ce6baeeffe56e7714fb4efe48d419"
                            },
                            {
                                "name": "payload",
                                "type": "uint256[]",
                                "value": [
                                    "0",
                                    "1,255,019,312,650,631,113,153,768,994,289,070,745,337,520,713,840",
                                    "10,000,000,000,000",
                                    "0"
                                ]
                            }
                        ],
                        "signature": "LogMessageToL1(uint256,address,uint256[])"
                    },
                    "id": 6,
                    "logData": "0x000000000000000000000000000000000000000000000000000000000000002000000000000000000000000000000000000000000000000000000000000000040000000000000000000000000000000000000000000000000000000000000000000000000000000000000000dbd503287bf5b1cdbf0bec77b463bf92c193f070000000000000000000000000000000000000000000000000000009184e72a0000000000000000000000000000000000000000000000000000000000000000000",
                    "logDecoded": true,
                    "operation": "EVENT",
                    "revert": false,
                    "status": true,
                    "topics": [
                        "0x4264ac208b5fde633ccdd42e0f12c3d6d443a4f3779bbf886925b94665b63a22",
                        "0x073314940630fd6dcda0d772d4c972c4e0a9946bef9dabf4ef84eda8ef542b82",
                        "0x000000000000000000000000ae0ee0a63a2ce6baeeffe56e7714fb4efe48d419"
                    ]
                },
                "nodeType": 1
            },
            "7": {
                "event": {
                    "contract": "0xc662c410c0ecf747543f5ba90660f6abebd9c8c4",
                    "decodedLog": {
                        "name": "LogMessageToL1",
                        "params": [
                            {
                                "name": "fromAddress",
                                "type": "uint256",
                                "value": "3,292,310,102,732,967,235,607,621,007,132,320,245,226,792,589,059,970,898,975,575,550,212,288,113,616"
                            },
                            {
                                "name": "toAddress",
                                "type": "address",
                                "value": "0xbb3400f107804dfb482565ff1ec8d8ae66747605"
                            },
                            {
                                "name": "payload",
                                "type": "uint256[]",
                                "value": [
                                    "0",
                                    "427,405,426,544,812,282,205,926,080,631,173,390,244,817,038,107",
                                    "200,000,000",
                                    "0"
                                ]
                            }
                        ],
                        "signature": "LogMessageToL1(uint256,address,uint256[])"
                    },
                    "id": 7,
                    "logData": "0x0000000000000000000000000000000000000000000000000000000000000020000000000000000000000000000000000000000000000000000000000000000400000000000000000000000000000000000000000000000000000000000000000000000000000000000000004add85ad0919504f5a32d7a2c235f73e1d526b1b000000000000000000000000000000000000000000000000000000000bebc2000000000000000000000000000000000000000000000000000000000000000000",
                    "logDecoded": true,
                    "operation": "EVENT",
                    "revert": false,
                    "status": true,
                    "topics": [
                        "0x4264ac208b5fde633ccdd42e0f12c3d6d443a4f3779bbf886925b94665b63a22",
                        "0x074761a8d48ce002963002becc6d9c3dd8a2a05b1075d55e5967f42296f16bd0",
                        "0x000000000000000000000000bb3400f107804dfb482565ff1ec8d8ae66747605"
                    ]
                },
                "nodeType": 1
            },
            "8": {
                "event": {
                    "contract": "0xc662c410c0ecf747543f5ba90660f6abebd9c8c4",
                    "decodedLog": {
                        "name": "LogMessageToL1",
                        "params": [
                            {
                                "name": "fromAddress",
                                "type": "uint256",
                                "value": "3,256,441,166,037,631,918,262,930,812,410,838,598,500,200,462,657,642,943,867,372,734,773,841,898,370"
                            },
                            {
                                "name": "toAddress",
                                "type": "address",
                                "value": "0xae0ee0a63a2ce6baeeffe56e7714fb4efe48d419"
                            },
                            {
                                "name": "payload",
                                "type": "uint256[]",
                                "value": [
                                    "0",
                                    "584,182,648,899,823,938,042,711,739,011,267,910,877,426,832,887",
                                    "31,000,000,000,000,000",
                                    "0"
                                ]
                            }
                        ],
                        "signature": "LogMessageToL1(uint256,address,uint256[])"
                    },
                    "id": 8,
                    "logData": "0x0000000000000000000000000000000000000000000000000000000000000020000000000000000000000000000000000000000000000000000000000000000400000000000000000000000000000000000000000000000000000000000000000000000000000000000000006653a7ed134a9ac0751e8204f223880c98a955f7000000000000000000000000000000000000000000000000006e2255f40980000000000000000000000000000000000000000000000000000000000000000000",
                    "logDecoded": true,
                    "operation": "EVENT",
                    "revert": false,
                    "status": true,
                    "topics": [
                        "0x4264ac208b5fde633ccdd42e0f12c3d6d443a4f3779bbf886925b94665b63a22",
                        "0x073314940630fd6dcda0d772d4c972c4e0a9946bef9dabf4ef84eda8ef542b82",
                        "0x000000000000000000000000ae0ee0a63a2ce6baeeffe56e7714fb4efe48d419"
                    ]
                },
                "nodeType": 1
            },
            "9": {
                "event": {
                    "contract": "0xc662c410c0ecf747543f5ba90660f6abebd9c8c4",
                    "decodedLog": {
                        "name": "LogStateUpdate",
                        "params": [
                            {
                                "name": "globalRoot",
                                "type": "uint256",
                                "value": "139,082,705,871,137,181,566,436,444,894,839,402,193,690,709,460,130,422,008,914,872,821,072,134,731"
                            },
                            {
                                "name": "blockNumber",
                                "type": "int256",
                                "value": "429,717"
                            },
                            {
                                "name": "blockHash",
                                "type": "uint256",
                                "value": "1,419,456,504,907,935,824,645,197,772,077,824,209,698,837,164,255,395,866,941,346,237,805,186,075,917"
                            }
                        ],
                        "signature": "LogStateUpdate(uint256,int256,uint256)"
                    },
                    "id": 9,
                    "logData": "0x004eb7d047dceb6b575e1d8717cd0226dc669b38f89f51b0255af6a9e38a024b0000000000000000000000000000000000000000000000000000000000068e9503236247fc834254d1191797b05dd680ed13b9239da6a6207b5fd061f0c14d0d",
                    "logDecoded": true,
                    "operation": "EVENT",
                    "revert": false,
                    "status": true,
                    "topics": [
                        "0xd342ddf7a308dec111745b00315c14b7efb2bdae570a6856e088ed0c65a3576c"
                    ]
                },
                "nodeType": 1
            }
        },
        "gasFlame": [
            {
                "children": [
                    {
                        "children": [
                            {
                                "children": [],
                                "depth": 0,
                                "name": "Initial Gas",
                                "value": 29948
                            },
                            {
                                "children": [
                                    {
                                        "children": [
                                            {
                                                "children": [
                                                    {
                                                        "children": [
                                                            {
                                                                "children": [],
                                                                "depth": 4,
                                                                "name": "isValid",
                                                                "value": 2528
                                                            }
                                                        ],
                                                        "depth": 3,
                                                        "name": "isValid",
                                                        "value": 7886
                                                    }
                                                ],
                                                "depth": 2,
                                                "name": "isValid",
                                                "value": 12994
                                            }
                                        ],
                                        "depth": 1,
                                        "name": "updateState",
                                        "value": 131113
                                    }
                                ],
                                "depth": 0,
                                "name": "Executed Gas",
                                "value": 136338
                            }
                        ],
                        "depth": -1,
                        "name": "Actual Gas Used",
                        "value": 166286
                    },
                    {
                        "children": [],
                        "depth": -1,
                        "name": "Refunded Gas",
                        "value": 0
                    }
                ],
                "depth": -2,
                "name": "Total Gas",
                "value": 166286
            }
        ],
        "isConfirmed": true,
        "mainTrace": [
            {
                "children": [
                    {
                        "children": [
                            {
                                "children": [
                                    {
                                        "children": [
                                            {
                                                "children": [
                                                    {
                                                        "children": [],
                                                        "depth": 4,
                                                        "id": 4,
                                                        "order": 4
                                                    }
                                                ],
                                                "depth": 3,
                                                "id": 3,
                                                "order": 3
                                            }
                                        ],
                                        "depth": 2,
                                        "id": 2,
                                        "order": 2
                                    },
                                    {
                                        "children": [],
                                        "depth": 2,
                                        "id": 5,
                                        "order": 5
                                    },
                                    {
                                        "children": [],
                                        "depth": 2,
                                        "id": 6,
                                        "order": 6
                                    },
                                    {
                                        "children": [],
                                        "depth": 2,
                                        "id": 7,
                                        "order": 7
                                    },
                                    {
                                        "children": [],
                                        "depth": 2,
                                        "id": 8,
                                        "order": 8
                                    },
                                    {
                                        "children": [],
                                        "depth": 2,
                                        "id": 9,
                                        "order": 9
                                    }
                                ],
                                "depth": 1,
                                "id": 1,
                                "order": 1
                            }
                        ],
                        "depth": 0,
                        "id": 0,
                        "order": 0
                    }
                ],
                "depth": -1,
                "id": -1,
                "order": -1
            }
        ],
        "mainTraceNodeCount": 10,
        "parentIdMap": {
            "0": -1,
            "1": 0,
            "2": 1,
            "3": 2,
            "4": 3,
            "5": 1,
            "6": 1,
            "7": 1,
            "8": 1,
            "9": 1
        },
        "tidyTrace": [
            {
                "children": [
                    {
                        "children": [
                            {
                                "children": [
                                    {
                                        "children": [],
                                        "depth": 2,
                                        "id": 5,
                                        "order": 5
                                    },
                                    {
                                        "children": [],
                                        "depth": 2,
                                        "id": 6,
                                        "order": 6
                                    },
                                    {
                                        "children": [],
                                        "depth": 2,
                                        "id": 7,
                                        "order": 7
                                    },
                                    {
                                        "children": [],
                                        "depth": 2,
                                        "id": 8,
                                        "order": 8
                                    },
                                    {
                                        "children": [],
                                        "depth": 2,
                                        "id": 9,
                                        "order": 9
                                    }
                                ],
                                "depth": 1,
                                "id": 1,
                                "order": 1
                            }
                        ],
                        "depth": 0,
                        "id": 0,
                        "order": 0
                    }
                ],
                "depth": -1,
                "id": -1,
                "order": -1
            }
        ],
        "tidyTraceNodeCount": 7
    },
    "state_change": {
        "stateChanges": [
            {
                "address": "0xc662c410c0ecf747543f5ba90660f6abebd9c8c4",
                "erc": "",
                "slots": [
                    {
                        "current": "0x0000000000000000000000000000000000000000000000000000000000000001",
                        "key": "0x5cac86a56e3d984c4943ef7a95c7ae09868ed8c035efb9bc4e680da1b1175ae9",
                        "prev": "0x0000000000000000000000000000000000000000000000000000000000000000"
                    },
                    {
                        "current": "0x0000000000000000000000000000000000000000000000000000000000068e95",
                        "key": "0x71a8ef1b1265359d77973c3524afac225c0a0d829a0d4da5cac3b34532019fed",
                        "prev": "0x0000000000000000000000000000000000000000000000000000000000068e94"
                    },
                    {
                        "current": "0x03236247fc834254d1191797b05dd680ed13b9239da6a6207b5fd061f0c14d0d",
                        "key": "0x71a8ef1b1265359d77973c3524afac225c0a0d829a0d4da5cac3b34532019fee",
                        "prev": "0x06feff608e7c30866d8e263f88795ead16b8ee33cce716a7943a2b69982fcffc"
                    },
                    {
                        "current": "0x004eb7d047dceb6b575e1d8717cd0226dc669b38f89f51b0255af6a9e38a024b",
                        "key": "0x71a8ef1b1265359d77973c3524afac225c0a0d829a0d4da5cac3b34532019fec",
                        "prev": "0x02e0cc8c8d90edb14e2e16bace7c5f7f21ac5b760c2aa855d7b585ec1cc309a8"
                    },
                    {
                        "current": "0x0000000000000000000000000000000000000000000000000000000000000001",
                        "key": "0xe508b6d0bc771c8d82547d5555012ba19298fbc353c1e433546195d35158a262",
                        "prev": "0x0000000000000000000000000000000000000000000000000000000000000000"
                    },
                    {
                        "current": "0x0000000000000000000000000000000000000000000000000000000000000001",
                        "key": "0xa21e07b00b167ff1bb28f0853b96527473a307c45b1b5842456c8c79a9282ef1",
                        "prev": "0x0000000000000000000000000000000000000000000000000000000000000000"
                    }
                ],
                "storageVariables": []
            }
        ]
    }
}