{
    "balance_change": {
        "balanceChanges": [
            {
                "account": "0x28a6e1fce9d5c7f8f55e75ab226b9e47b06f5b9b",
                "assets": [
                    {
                        "address": "0xdac17f958d2ee523a2206206994597c13d831ec7",
                        "amount": "510",
                        "iconUrl": "https://assets.blocksec.com/icon/fcea71f3193ce895be44bfdf941f7e4c9381dd587f273c2d1a27f1263d84e4ea.png",
                        "isERC1155": false,
                        "isERC721": false,
                        "sign": false,
                        "value": "510.1366443"
                    }
                ]
            },
            {
                "account": "0xa6f219c2d5a0ca845e0ab773ca0d14488f5dc06b",
                "assets": [
                    {
                        "address": "0xdac17f958d2ee523a2206206994597c13d831ec7",
                        "amount": "510",
                        "iconUrl": "https://assets.blocksec.com/icon/fcea71f3193ce895be44bfdf941f7e4c9381dd587f273c2d1a27f1263d84e4ea.png",
                        "isERC1155": false,
                        "isERC721": false,
                        "sign": true,
                        "value": "510.1366443"
                    }
                ]
            }
        ]
    },
    "profile": {
        "basic_info": {
            "baseFee": "139.781418878",
            "blockNumber": 13628316,
            "callData": "0xa9059cbb000000000000000000000000a6f219c2d5a0ca845e0ab773ca0d14488f5dc06b000000000000000000000000000000000000000000000000000000001e65fb80",
            "debugEnable": true,
            "errorInfo": "",
            "eventCount": 1,
            "feeRecipient": "0x829bd824b016326a401d083b33d092293333a830",
            "formatValue": "0",
            "gasLimit": 200000,
            "gasPrice": "156",
            "gasUsed": 46109,
            "intTxnCount": 0,
            "internalRevert": false,
            "internalRevertMessage": "",
            "isContractCreation": false,
            "isFlashloan": false,
            "maxFee": "",
            "nonce": 9184,
            "overwritedBlockNumber": -1,
            "priorityFee": "",
            "receiver": "0xdac17f958d2ee523a2206206994597c13d831ec7",
            "revertMessage": "",
            "sender": "0x28a6e1fce9d5c7f8f55e75ab226b9e47b06f5b9b",
            "simulationEnable": true,
            "sourceTxnHash": "0xec0e80d748c10e6036ed43d951ae0798ce236c28103bc82d480a4b40dfab3aaf",
            "status": true,
            "timestamp": "2021-11-16T19:02:20Z",
            "transactionFee": "0.007193004",
            "txnHash": "0xec0e80d748c10e6036ed43d951ae0798ce236c28103bc82d480a4b40dfab3aaf",
            "txnIndex": 214,
            "type": 0,
            "value": "0"
        },
        "fund_flow": [
            {
                "amount": "510",
                "from": "0x28a6e1fce9d5c7f8f55e75ab226b9e47b06f5b9b",
                "id": 1,
                "isERC1155": false,
                "isERC721": false,
                "isReverted": false,
                "order": 1,
                "to": "0xa6f219c2d5a0ca845e0ab773ca0d14488f5dc06b",
                "token": "0xdac17f958d2ee523a2206206994597c13d831ec7"
            }
        ],
        "token_infos": [
            {
                "address": "0xc02aaa39b223fe8d0a0e5c4f27ead9083c756cc2",
                "decimals": 18
            },
            {
                "address": "0xdac17f958d2ee523a2206206994597c13d831ec7",
                "decimals": 6
            },
            {
                "address": "0xeeeeeeeeeeeeeeeeeeeeeeeeeeeeeeeeeeeeeeee",
                "decimals": 18
            }
        ]
    },
    "address_label": {
        "labels": [
            {
                "address": "0xa6f219c2d5a0ca845e0ab773ca0d14488f5dc06b",
                "label": "HOTBIT"
            },
            {
                "address": "0x0000000000000000000000000000000000000001",
                "label": "Precompiled"
            },
            {
                "address": "0x0000000000000000000000000000000000000002",
                "label": "Precompiled"
            },
            {
                "address": "0x0000000000000000000000000000000000000003",
                "label": "Precompiled"
            },
            {
                "address": "0x0000000000000000000000000000000000000004",
                "label": "Precompiled"
            },
            {
                "address": "0xeeeeeeeeeeeeeeeeeeeeeeeeeeeeeeeeeeeeeeee",
                "label": "Ether"
            },
            {
                "address": "0xdac17f958d2ee523a2206206994597c13d831ec7",
                "label": "Tether: USDT Stablecoin"
            }
        ]
    },
    "trace": {
        "accountLabels": null,
        "dataMap": {
            "-1": {
                "invocation": {
                    "address": "0x28a6e1fce9d5c7f8f55e75ab226b9e47b06f5b9b",
                    "callData": "",
                    "decodedMethod": null,
                    "errorInfo": "",
                    "fromAddress": "",
                    "gasUsed": 0,
                    "id": -1,
                    "methodDecoded": false,
                    "operation": "",
                    "output": "",
                    "revert": false,
                    "revertMessage": "",
                    "selector": "",
                    "status": false,
                    "value": ""
                },
                "nodeType": 0
            },
            "0": {
                "invocation": {
                    "address": "0xdac17f958d2ee523a2206206994597c13d831ec7",
                    "callData": "0x000000000000000000000000a6f219c2d5a0ca845e0ab773ca0d14488f5dc06b000000000000000000000000000000000000000000000000000000001e65fb80",
                    "decodedMethod": {
                        "callParams": [
                            {
                                "name": "_to",
                                "type": "address",
                                "value": "0xa6f219c2d5a0ca845e0ab773ca0d14488f5dc06b"
                            },
                            {
                                "decimalAvailable": true,
                                "name": "_value",
                                "type": "uint256",
                                "value": "510,000,000"
                            }
                        ],
                        "constructorArguments": "",
                        "name": "transfer",
                        "returnParams": [],
                        "signature": "transfer(address,uint256)"
                    },
                    "errorInfo": "",
                    "fromAddress": "0x28a6e1fce9d5c7f8f55e75ab226b9e47b06f5b9b",
                    "gasUsed": 46109,
                    "id": 0,
                    "methodDecoded": true,
                    "operation": "CALL",
                    "output": "",
                    "revert": false,
                    "revertMessage": "",
                    "selector": "0xa9059cbb",
                    "status": true,
                    "value": "0"
                },
                "nodeType": 0
            },
            "1": {
                "event": {
                    "contract": "0xdac17f958d2ee523a2206206994597c13d831ec7",
                    "decodedLog": {
                        "name": "Transfer",
                        "params": [
                            {
                                "name": "from",
                                "type": "address",
                                "value": "0x28a6e1fce9d5c7f8f55e75ab226b9e47b06f5b9b"
                            },
                            {
                                "name": "to",
                                "type": "address",
                                "value": "0xa6f219c2d5a0ca845e0ab773ca0d14488f5dc06b"
                            },
                            {
                                "decimalAvailable": true,
                                "name": "value",
                                "type": "uint256",
                                "value": "510,000,000"
                            }
                        ],
                        "signature": "Transfer(address,address,uint256)"
                    },
                    "id": 1,
                    "logData": "0x000000000000000000000000000000000000000000000000000000001e65fb80",
                    "logDecoded": true,
                    "operation": "EVENT",
                    "revert": false,
                    "status": true,
                    "topics": [
                        "0xddf252ad1be2c89b69c2b068fc378daa952ba7f163c4a11628f55a4df523b3ef",
                        "0x00000000000000000000000028a6e1fce9d5c7f8f55e75ab226b9e47b06f5b9b",
                        "0x000000000000000000000000a6f219c2d5a0ca845e0ab773ca0d14488f5dc06b"
                    ]
                },
                "nodeType": 1
            }
        },
        "gasFlame": [
            {
                "children": [
                    {
                        "children": [
                            {
                                "children": [],
                                "depth": 0,
                                "name": "Initial Gas",
                                "value": 21608
                            },
                            {
                                "children": [],
                                "depth": 0,
                                "name": "Executed Gas",
                                "value": 24501
                            }
                        ],
                        "depth": -1,
                        "name": "Actual Gas Used",
                        "value": 46109
                    },
                    {
                        "children": [],
                        "depth": -1,
                        "name": "Refunded Gas",
                        "value": 0
                    }
                ],
                "depth": -2,
                "name": "Total Gas",
                "value": 46109
            }
        ],
        "isConfirmed": true,
        "mainTrace": [
            {
                "children": [
                    {
                        "children": [
                            {
                                "children": [],
                                "depth": 1,
                                "id": 1,
                                "order": 1
                            }
                        ],
                        "depth": 0,
                        "id": 0,
                        "order": 0
                    }
                ],
                "depth": -1,
                "id": -1,
                "order": -1
            }
        ],
        "mainTraceNodeCount": 2,
        "parentIdMap": {
            "0": -1,
            "1": 0
        },
        "tidyTrace": [
            {
                "children": [
                    {
                        "children": [
                            {
                                "children": [],
                                "depth": 1,
                                "id": 1,
                                "order": 1
                            }
                        ],
                        "depth": 0,
                        "id": 0,
                        "order": 0
                    }
                ],
                "depth": -1,
                "id": -1,
                "order": -1
            }
        ],
        "tidyTraceNodeCount": 2
    },
    "state_change": {
        "stateChanges": [
            {
                "address": "0xdac17f958d2ee523a2206206994597c13d831ec7",
                "erc": "ERC-20",
                "slots": [
                    {
                        "current": "0x000000000000000000000000000000000000000000000000000000298c2052bc",
                        "key": "0x6c44a92474e26e2027840aba519f45c6c602cd499ced26d0c38bb044ec99e118",
                        "prev": "0x00000000000000000000000000000000000000000000000000000029aa864e3c"
                    },
                    {
                        "current": "0x0000000000000000000000000000000000000000000000000000000078ff5780",
                        "key": "0xbb61997ef087675ac2e1d2f60071c9962203908b545272fbd240adc4b34bf27a",
                        "prev": "0x000000000000000000000000000000000000000000000000000000005a995c00"
                    }
                ],
                "storageVariables": [
                    {
                        "name": "balances",
                        "type": "mapping(address => uint256)",
                        "value": {
                            "pairs": [
                                {
                                    "key": "0x28a6e1fce9d5c7f8f55e75ab226b9e47b06f5b9b",
                                    "value": {
                                        "current": "178444587708",
                                        "prev": "178954587708",
                                        "typeTag": 1
                                    }
                                },
                                {
                                    "key": "0xa6f219c2d5a0ca845e0ab773ca0d14488f5dc06b",
                                    "value": {
                                        "current": "2030000000",
                                        "prev": "1520000000",
                                        "typeTag": 1
                                    }
                                }
                            ],
                            "typeTag": 4
                        }
                    }
                ]
            }
        ]
    }
}