{
    "balance_change": {
        "balanceChanges": [
            {
                "account": "0x38d3d33b5b6dc7e0a55920673a7282f816fa953f",
                "assets": [
                    {
                        "address": "0x03066da434e5264ef0b32f787923f974a5726fdc",
                        "amount": "0.279256267968674624",
                        "iconUrl": "",
                        "isERC1155": false,
                        "isERC721": false,
                        "sign": true,
                        "value": "91.86714915"
                    },
                    {
                        "address": "0xae17f4f5ca32f77ea8e3786db7c0b2fe877ac176",
                        "amount": "1.395703831307512116",
                        "iconUrl": "",
                        "isERC1155": false,
                        "isERC721": false,
                        "sign": false,
                        "value": "92.42806049"
                    }
                ]
            },
            {
                "account": "0x0e236240c4e9a26e4e8d6d516fc2c028f6fdc3bb",
                "assets": [
                    {
                        "address": "0xae17f4f5ca32f77ea8e3786db7c0b2fe877ac176",
                        "amount": "1.395703831307512116",
                        "iconUrl": "",
                        "isERC1155": false,
                        "isERC721": false,
                        "sign": true,
                        "value": "92.42806049"
                    },
                    {
                        "address": "0x6b175474e89094c44da98b954eedeac495271d0f",
                        "amount": "91.968219415890899648",
                        "iconUrl": "https://assets.blocksec.com/icon/39aead569b9c011cb6f69734d9abbc9ab6a80049fe93bbd12bb473a3e0e859a3.png",
                        "isERC1155": false,
                        "isERC721": false,
                        "sign": false,
                        "value": "92.42806051"
                    }
                ]
            },
            {
                "account": "0xb3e325b62c0c3222c1adc16f530d5dba7a01f7ba",
                "assets": [
                    {
                        "address": "0x6b175474e89094c44da98b954eedeac495271d0f",
                        "amount": "91.968219415890899648",
                        "iconUrl": "https://assets.blocksec.com/icon/39aead569b9c011cb6f69734d9abbc9ab6a80049fe93bbd12bb473a3e0e859a3.png",
                        "isERC1155": false,
                        "isERC721": false,
                        "sign": true,
                        "value": "92.42806051"
                    },
                    {
                        "address": "0x03066da434e5264ef0b32f787923f974a5726fdc",
                        "amount": "0.279256267968674624",
                        "iconUrl": "",
                        "isERC1155": false,
                        "isERC721": false,
                        "sign": false,
                        "value": "91.86714915"
                    }
                ]
            }
        ]
    },
    "profile": {
        "basic_info": {
            "baseFee": "",
            "blockNumber": 11572794,
            "callData": "0x38ed1739000000000000000000000000000000000000000000000000135e893d64bc693400000000000000000000000000000000000000000000000003d64b6c03ef4ef000000000000000000000000000000000000000000000000000000000000000a000000000000000000000000038d3d33b5b6dc7e0a55920673a7282f816fa953f000000000000000000000000000000000000000000000000000000005feff96e0000000000000000000000000000000000000000000000000000000000000003000000000000000000000000ae17f4f5ca32f77ea8e3786db7c0b2fe877ac1760000000000000000000000006b175474e89094c44da98b954eedeac495271d0f00000000000000000000000003066da434e5264ef0b32f787923f974a5726fdc",
            "debugEnable": true,
            "errorInfo": "",
            "eventCount": 8,
            "feeRecipient": "0x04668ec2f57cc15c381b461b9fedab5d451c8f7f",
            "formatValue": "0",
            "gasLimit": 400946,
            "gasPrice": "46.2",
            "gasUsed": 156984,
            "intTxnCount": 11,
            "internalRevert": false,
            "internalRevertMessage": "",
            "isContractCreation": false,
            "isFlashloan": false,
            "maxFee": "",
            "nonce": 598,
            "overwritedBlockNumber": -1,
            "priorityFee": "",
            "receiver": "0x7a250d5630b4cf539739df2c5dacb4c659f2488d",
            "revertMessage": "",
            "sender": "0x38d3d33b5b6dc7e0a55920673a7282f816fa953f",
            "simulationEnable": true,
            "sourceTxnHash": "0xec1515e33e67a8d5f32de614b146a3a8fcac89a88ebe7dd4fbb936eac7e5b44f",
            "status": true,
            "timestamp": "2021-01-02T04:21:28Z",
            "transactionFee": "0.0072526608",
            "txnHash": "0xec1515e33e67a8d5f32de614b146a3a8fcac89a88ebe7dd4fbb936eac7e5b44f",
            "txnIndex": 171,
            "type": 0,
            "value": "0"
        },
        "fund_flow": [
            {
                "amount": "1.395703831307512116",
                "from": "0x38d3d33b5b6dc7e0a55920673a7282f816fa953f",
                "id": 1,
                "isERC1155": false,
                "isERC721": false,
                "isReverted": false,
                "order": 1,
                "to": "0x0e236240c4e9a26e4e8d6d516fc2c028f6fdc3bb",
                "token": "0xae17f4f5ca32f77ea8e3786db7c0b2fe877ac176"
            },
            {
                "amount": "91.968219415890899648",
                "from": "0x0e236240c4e9a26e4e8d6d516fc2c028f6fdc3bb",
                "id": 2,
                "isERC1155": false,
                "isERC721": false,
                "isReverted": false,
                "order": 2,
                "to": "0xb3e325b62c0c3222c1adc16f530d5dba7a01f7ba",
                "token": "0x6b175474e89094c44da98b954eedeac495271d0f"
            },
            {
                "amount": "0.279256267968674624",
                "from": "0xb3e325b62c0c3222c1adc16f530d5dba7a01f7ba",
                "id": 3,
                "isERC1155": false,
                "isERC721": false,
                "isReverted": false,
                "order": 3,
                "to": "0x38d3d33b5b6dc7e0a55920673a7282f816fa953f",
                "token": "0x03066da434e5264ef0b32f787923f974a5726fdc"
            }
        ],
        "token_infos": [
            {
                "address": "0x03066da434e5264ef0b32f787923f974a5726fdc",
                "decimals": 18
            },
            {
                "address": "0x6b175474e89094c44da98b954eedeac495271d0f",
                "decimals": 18
            },
            {
                "address": "0xae17f4f5ca32f77ea8e3786db7c0b2fe877ac176",
                "decimals": 18
            },
            {
                "address": "0xc02aaa39b223fe8d0a0e5c4f27ead9083c756cc2",
                "decimals": 18
            },
            {
                "address": "0xeeeeeeeeeeeeeeeeeeeeeeeeeeeeeeeeeeeeeeee",
                "decimals": 18
            }
        ]
    },
    "address_label": {
        "labels": [
            {
                "address": "0x0000000000000000000000000000000000000002",
                "label": "Precompiled"
            },
            {
                "address": "0x0000000000000000000000000000000000000003",
                "label": "Precompiled"
            },
            {
                "address": "0xeeeeeeeeeeeeeeeeeeeeeeeeeeeeeeeeeeeeeeee",
                "label": "Ether"
            },
            {
                "address": "0xae17f4f5ca32f77ea8e3786db7c0b2fe877ac176",
                "label": "Basis Coin: BCC Token"
            },
            {
                "address": "0xb3e325b62c0c3222c1adc16f530d5dba7a01f7ba",
                "label": "Uniswap V2: BCS-DAI"
            },
            {
                "address": "0x7a250d5630b4cf539739df2c5dacb4c659f2488d",
                "label": "Uniswap V2: Router 2"
            },
            {
                "address": "0x03066da434e5264ef0b32f787923f974a5726fdc",
                "label": "Basis Coin: BCS Token"
            },
            {
                "address": "0x0e236240c4e9a26e4e8d6d516fc2c028f6fdc3bb",
                "label": "Uniswap V2: DAI-BCC"
            },
            {
                "address": "0x6b175474e89094c44da98b954eedeac495271d0f",
                "label": "Sky: Dai Stablecoin"
            },
            {
                "address": "0x0000000000000000000000000000000000000001",
                "label": "Precompiled"
            },
            {
                "address": "0x0000000000000000000000000000000000000004",
                "label": "Precompiled"
            }
        ]
    },
    "trace": {
        "accountLabels": null,
        "dataMap": {
            "-1": {
                "invocation": {
                    "address": "0x38d3d33b5b6dc7e0a55920673a7282f816fa953f",
                    "callData": "",
                    "decodedMethod": null,
                    "errorInfo": "",
                    "fromAddress": "",
                    "gasUsed": 0,
                    "id": -1,
                    "methodDecoded": false,
                    "operation": "",
                    "output": "",
                    "revert": false,
                    "revertMessage": "",
                    "selector": "",
                    "status": false,
                    "value": ""
                },
                "nodeType": 0
            },
            "0": {
                "invocation": {
                    "address": "0x7a250d5630b4cf539739df2c5dacb4c659f2488d",
                    "callData": "0x000000000000000000000000000000000000000000000000135e893d64bc693400000000000000000000000000000000000000000000000003d64b6c03ef4ef000000000000000000000000000000000000000000000000000000000000000a000000000000000000000000038d3d33b5b6dc7e0a55920673a7282f816fa953f000000000000000000000000000000000000000000000000000000005feff96e0000000000000000000000000000000000000000000000000000000000000003000000000000000000000000ae17f4f5ca32f77ea8e3786db7c0b2fe877ac1760000000000000000000000006b175474e89094c44da98b954eedeac495271d0f00000000000000000000000003066da434e5264ef0b32f787923f974a5726fdc",
                    "decodedMethod": {
                        "callParams": [
                            {
                                "name": "amountIn",
                                "type": "uint256",
                                "value": "1,395,703,831,307,512,116"
                            },
                            {
                                "name": "amountOutMin",
                                "type": "uint256",
                                "value": "276,491,354,424,430,320"
                            },
                            {
                                "name": "path",
                                "type": "address[]",
                                "value": [
                                    "0xae17f4f5ca32f77ea8e3786db7c0b2fe877ac176",
                                    "0x6b175474e89094c44da98b954eedeac495271d0f",
                                    "0x03066da434e5264ef0b32f787923f974a5726fdc"
                                ]
                            },
                            {
                                "name": "to",
                                "type": "address",
                                "value": "0x38d3d33b5b6dc7e0a55920673a7282f816fa953f"
                            },
                            {
                                "name": "deadline",
                                "type": "uint256",
                                "value": "1,609,562,478"
                            }
                        ],
                        "constructorArguments": "",
                        "name": "swapExactTokensForTokens",
                        "returnParams": [
                            {
                                "name": "amounts",
                                "type": "uint256[]",
                                "value": [
                                    "1,395,703,831,307,512,116",
                                    "91,968,219,415,890,899,648",
                                    "279,256,267,968,674,624"
                                ]
                            }
                        ],
                        "signature": "swapExactTokensForTokens(uint256,uint256,address[],address,uint256)"
                    },
                    "errorInfo": "",
                    "fromAddress": "0x38d3d33b5b6dc7e0a55920673a7282f816fa953f",
                    "gasUsed": 156984,
                    "id": 0,
                    "methodDecoded": true,
                    "operation": "CALL",
                    "output": "0x00000000000000000000000000000000000000000000000000000000000000200000000000000000000000000000000000000000000000000000000000000003000000000000000000000000000000000000000000000000135e893d64bc6934000000000000000000000000000000000000000000000004fc50c04a4d5c32c000000000000000000000000000000000000000000000000003e01e189d92fb40",
                    "revert": false,
                    "revertMessage": "",
                    "selector": "0x38ed1739",
                    "status": true,
                    "value": "0"
                },
                "nodeType": 0
            },
            "1": {
                "invocation": {
                    "address": "0x0e236240c4e9a26e4e8d6d516fc2c028f6fdc3bb",
                    "callData": "0x",
                    "decodedMethod": {
                        "callParams": [],
                        "constructorArguments": "",
                        "name": "getReserves",
                        "returnParams": [
                            {
                                "name": "_reserve0",
                                "type": "uint112",
                                "value": "2,380,335,621,100,640,770,998,158"
                            },
                            {
                                "name": "_reserve1",
                                "type": "uint112",
                                "value": "36,014,058,565,562,514,133,860"
                            },
                            {
                                "name": "_blockTimestampLast",
                                "type": "uint32",
                                "value": "1,609,561,273"
                            }
                        ],
                        "signature": "getReserves()"
                    },
                    "errorInfo": "",
                    "fromAddress": "0x7a250d5630b4cf539739df2c5dacb4c659f2488d",
                    "gasUsed": 1204,
                    "id": 1,
                    "methodDecoded": true,
                    "operation": "STATICCALL",
                    "output": "0x00000000000000000000000000000000000000000001f80e40a93867ba483f8e0000000000000000000000000000000000000000000007a053767eb813b1d364000000000000000000000000000000000000000000000000000000005feff4b9",
                    "revert": false,
                    "revertMessage": "",
                    "selector": "0x0902f1ac",
                    "status": true,
                    "value": "0"
                },
                "nodeType": 0
            },
            "10": {
                "invocation": {
                    "address": "0xae17f4f5ca32f77ea8e3786db7c0b2fe877ac176",
                    "callData": "0x0000000000000000000000000e236240c4e9a26e4e8d6d516fc2c028f6fdc3bb",
                    "decodedMethod": {
                        "callParams": [
                            {
                                "name": "account",
                                "type": "address",
                                "value": "0x0e236240c4e9a26e4e8d6d516fc2c028f6fdc3bb"
                            }
                        ],
                        "constructorArguments": "",
                        "name": "balanceOf",
                        "returnParams": [
                            {
                                "decimalAvailable": true,
                                "name": "",
                                "type": "uint256",
                                "value": "36,015,454,269,393,821,645,976"
                            }
                        ],
                        "signature": "balanceOf(address)"
                    },
                    "errorInfo": "",
                    "fromAddress": "0x0e236240c4e9a26e4e8d6d516fc2c028f6fdc3bb",
                    "gasUsed": 1241,
                    "id": 10,
                    "methodDecoded": true,
                    "operation": "STATICCALL",
                    "output": "0x0000000000000000000000000000000000000000000007a066d507f5786e3c98",
                    "revert": false,
                    "revertMessage": "",
                    "selector": "0x70a08231",
                    "status": true,
                    "value": "0"
                },
                "nodeType": 0
            },
            "11": {
                "event": {
                    "contract": "0x0e236240c4e9a26e4e8d6d516fc2c028f6fdc3bb",
                    "decodedLog": {
                        "name": "Sync",
                        "params": [
                            {
                                "name": "reserve0",
                                "type": "uint112",
                                "value": "2,380,243,652,881,224,880,098,510"
                            },
                            {
                                "name": "reserve1",
                                "type": "uint112",
                                "value": "36,015,454,269,393,821,645,976"
                            }
                        ],
                        "signature": "Sync(uint112,uint112)"
                    },
                    "id": 11,
                    "logData": "0x00000000000000000000000000000000000000000001f8094458781d6cec0cce0000000000000000000000000000000000000000000007a066d507f5786e3c98",
                    "logDecoded": true,
                    "operation": "EVENT",
                    "revert": false,
                    "status": true,
                    "topics": [
                        "0x1c411e9a96e071241c2f21f7726b17ae89e3cab4c78be50e062b03a9fffbbad1"
                    ]
                },
                "nodeType": 1
            },
            "12": {
                "event": {
                    "contract": "0x0e236240c4e9a26e4e8d6d516fc2c028f6fdc3bb",
                    "decodedLog": {
                        "name": "Swap",
                        "params": [
                            {
                                "name": "sender",
                                "type": "address",
                                "value": "0x7a250d5630b4cf539739df2c5dacb4c659f2488d"
                            },
                            {
                                "name": "to",
                                "type": "address",
                                "value": "0xb3e325b62c0c3222c1adc16f530d5dba7a01f7ba"
                            },
                            {
                                "name": "amount0In",
                                "type": "uint256",
                                "value": "0"
                            },
                            {
                                "name": "amount1In",
                                "type": "uint256",
                                "value": "1,395,703,831,307,512,116"
                            },
                            {
                                "name": "amount0Out",
                                "type": "uint256",
                                "value": "91,968,219,415,890,899,648"
                            },
                            {
                                "name": "amount1Out",
                                "type": "uint256",
                                "value": "0"
                            }
                        ],
                        "signature": "Swap(address,uint256,uint256,uint256,uint256,address)"
                    },
                    "id": 12,
                    "logData": "0x0000000000000000000000000000000000000000000000000000000000000000000000000000000000000000000000000000000000000000135e893d64bc6934000000000000000000000000000000000000000000000004fc50c04a4d5c32c00000000000000000000000000000000000000000000000000000000000000000",
                    "logDecoded": true,
                    "operation": "EVENT",
                    "revert": false,
                    "status": true,
                    "topics": [
                        "0xd78ad95fa46c994b6551d0da85fc275fe613ce37657fb8d5e3d130840159d822",
                        "0x0000000000000000000000007a250d5630b4cf539739df2c5dacb4c659f2488d",
                        "0x000000000000000000000000b3e325b62c0c3222c1adc16f530d5dba7a01f7ba"
                    ]
                },
                "nodeType": 1
            },
            "13": {
                "invocation": {
                    "address": "0xb3e325b62c0c3222c1adc16f530d5dba7a01f7ba",
                    "callData": "0x00000000000000000000000000000000000000000000000003e01e189d92fb40000000000000000000000000000000000000000000000000000000000000000000000000000000000000000038d3d33b5b6dc7e0a55920673a7282f816fa953f00000000000000000000000000000000000000000000000000000000000000800000000000000000000000000000000000000000000000000000000000000000",
                    "decodedMethod": {
                        "callParams": [
                            {
                                "name": "amount0Out",
                                "type": "uint256",
                                "value": "279,256,267,968,674,624"
                            },
                            {
                                "name": "amount1Out",
                                "type": "uint256",
                                "value": "0"
                            },
                            {
                                "name": "to",
                                "type": "address",
                                "value": "0x38d3d33b5b6dc7e0a55920673a7282f816fa953f"
                            },
                            {
                                "name": "data",
                                "type": "bytes",
                                "value": "0x"
                            }
                        ],
                        "constructorArguments": "",
                        "name": "swap",
                        "returnParams": [],
                        "signature": "swap(uint256,uint256,address,bytes)"
                    },
                    "errorInfo": "",
                    "fromAddress": "0x7a250d5630b4cf539739df2c5dacb4c659f2488d",
                    "gasUsed": 56273,
                    "id": 13,
                    "methodDecoded": true,
                    "operation": "CALL",
                    "output": "",
                    "revert": false,
                    "revertMessage": "",
                    "selector": "0x022c0d9f",
                    "status": true,
                    "value": "0"
                },
                "nodeType": 0
            },
            "14": {
                "invocation": {
                    "address": "0x03066da434e5264ef0b32f787923f974a5726fdc",
                    "callData": "0x00000000000000000000000038d3d33b5b6dc7e0a55920673a7282f816fa953f00000000000000000000000000000000000000000000000003e01e189d92fb40",
                    "decodedMethod": {
                        "callParams": [
                            {
                                "name": "recipient",
                                "type": "address",
                                "value": "0x38d3d33b5b6dc7e0a55920673a7282f816fa953f"
                            },
                            {
                                "decimalAvailable": true,
                                "name": "amount",
                                "type": "uint256",
                                "value": "279,256,267,968,674,624"
                            }
                        ],
                        "constructorArguments": "",
                        "name": "transfer",
                        "returnParams": [
                            {
                                "name": "",
                                "type": "bool",
                                "value": true
                            }
                        ],
                        "signature": "transfer(address,uint256)"
                    },
                    "errorInfo": "",
                    "fromAddress": "0xb3e325b62c0c3222c1adc16f530d5dba7a01f7ba",
                    "gasUsed": 14707,
                    "id": 14,
                    "methodDecoded": true,
                    "operation": "CALL",
                    "output": "0x0000000000000000000000000000000000000000000000000000000000000001",
                    "revert": false,
                    "revertMessage": "",
                    "selector": "0xa9059cbb",
                    "status": true,
                    "value": "0"
                },
                "nodeType": 0
            },
            "15": {
                "event": {
                    "contract": "0x03066da434e5264ef0b32f787923f974a5726fdc",
                    "decodedLog": {
                        "name": "Transfer",
                        "params": [
                            {
                                "name": "from",
                                "type": "address",
                                "value": "0xb3e325b62c0c3222c1adc16f530d5dba7a01f7ba"
                            },
                            {
                                "name": "to",
                                "type": "address",
                                "value": "0x38d3d33b5b6dc7e0a55920673a7282f816fa953f"
                            },
                            {
                                "decimalAvailable": true,
                                "name": "value",
                                "type": "uint256",
                                "value": "279,256,267,968,674,624"
                            }
                        ],
                        "signature": "Transfer(address,address,uint256)"
                    },
                    "id": 15,
                    "logData": "0x00000000000000000000000000000000000000000000000003e01e189d92fb40",
                    "logDecoded": true,
                    "operation": "EVENT",
                    "revert": false,
                    "status": true,
                    "topics": [
                        "0xddf252ad1be2c89b69c2b068fc378daa952ba7f163c4a11628f55a4df523b3ef",
                        "0x000000000000000000000000b3e325b62c0c3222c1adc16f530d5dba7a01f7ba",
                        "0x00000000000000000000000038d3d33b5b6dc7e0a55920673a7282f816fa953f"
                    ]
                },
                "nodeType": 1
            },
            "16": {
                "invocation": {
                    "address": "0x03066da434e5264ef0b32f787923f974a5726fdc",
                    "callData": "0x000000000000000000000000b3e325b62c0c3222c1adc16f530d5dba7a01f7ba",
                    "decodedMethod": {
                        "callParams": [
                            {
                                "name": "account",
                                "type": "address",
                                "value": "0xb3e325b62c0c3222c1adc16f530d5dba7a01f7ba"
                            }
                        ],
                        "constructorArguments": "",
                        "name": "balanceOf",
                        "returnParams": [
                            {
                                "decimalAvailable": true,
                                "name": "",
                                "type": "uint256",
                                "value": "7,140,490,538,456,953,422,781"
                            }
                        ],
                        "signature": "balanceOf(address)"
                    },
                    "errorInfo": "",
                    "fromAddress": "0xb3e325b62c0c3222c1adc16f530d5dba7a01f7ba",
                    "gasUsed": 1241,
                    "id": 16,
                    "methodDecoded": true,
                    "operation": "STATICCALL",
                    "output": "0x000000000000000000000000000000000000000000000183163668c94c7083bd",
                    "revert": false,
                    "revertMessage": "",
                    "selector": "0x70a08231",
                    "status": true,
                    "value": "0"
                },
                "nodeType": 0
            },
            "17": {
                "invocation": {
                    "address": "0x6b175474e89094c44da98b954eedeac495271d0f",
                    "callData": "0x000000000000000000000000b3e325b62c0c3222c1adc16f530d5dba7a01f7ba",
                    "decodedMethod": {
                        "callParams": [
                            {
                                "name": "",
                                "type": "address",
                                "value": "0xb3e325b62c0c3222c1adc16f530d5dba7a01f7ba"
                            }
                        ],
                        "constructorArguments": "",
                        "name": "balanceOf",
                        "returnParams": [
                            {
                                "decimalAvailable": true,
                                "name": "",
                                "type": "uint256",
                                "value": "2,344,634,172,191,045,304,859,848"
                            }
                        ],
                        "signature": "balanceOf(address)"
                    },
                    "errorInfo": "",
                    "fromAddress": "0xb3e325b62c0c3222c1adc16f530d5dba7a01f7ba",
                    "gasUsed": 1302,
                    "id": 17,
                    "methodDecoded": true,
                    "operation": "STATICCALL",
                    "output": "0x00000000000000000000000000000000000000000001f07edf875382df8e3cc8",
                    "revert": false,
                    "revertMessage": "",
                    "selector": "0x70a08231",
                    "status": true,
                    "value": "0"
                },
                "nodeType": 0
            },
            "18": {
                "event": {
                    "contract": "0xb3e325b62c0c3222c1adc16f530d5dba7a01f7ba",
                    "decodedLog": {
                        "name": "Sync",
                        "params": [
                            {
                                "name": "reserve0",
                                "type": "uint112",
                                "value": "7,140,490,538,456,953,422,781"
                            },
                            {
                                "name": "reserve1",
                                "type": "uint112",
                                "value": "2,344,634,172,191,045,304,859,848"
                            }
                        ],
                        "signature": "Sync(uint112,uint112)"
                    },
                    "id": 18,
                    "logData": "0x000000000000000000000000000000000000000000000183163668c94c7083bd00000000000000000000000000000000000000000001f07edf875382df8e3cc8",
                    "logDecoded": true,
                    "operation": "EVENT",
                    "revert": false,
                    "status": true,
                    "topics": [
                        "0x1c411e9a96e071241c2f21f7726b17ae89e3cab4c78be50e062b03a9fffbbad1"
                    ]
                },
                "nodeType": 1
            },
            "19": {
                "event": {
                    "contract": "0xb3e325b62c0c3222c1adc16f530d5dba7a01f7ba",
                    "decodedLog": {
                        "name": "Swap",
                        "params": [
                            {
                                "name": "sender",
                                "type": "address",
                                "value": "0x7a250d5630b4cf539739df2c5dacb4c659f2488d"
                            },
                            {
                                "name": "to",
                                "type": "address",
                                "value": "0x38d3d33b5b6dc7e0a55920673a7282f816fa953f"
                            },
                            {
                                "name": "amount0In",
                                "type": "uint256",
                                "value": "0"
                            },
                            {
                                "name": "amount1In",
                                "type": "uint256",
                                "value": "91,968,219,415,890,899,648"
                            },
                            {
                                "name": "amount0Out",
                                "type": "uint256",
                                "value": "279,256,267,968,674,624"
                            },
                            {
                                "name": "amount1Out",
                                "type": "uint256",
                                "value": "0"
                            }
                        ],
                        "signature": "Swap(address,uint256,uint256,uint256,uint256,address)"
                    },
                    "id": 19,
                    "logData": "0x0000000000000000000000000000000000000000000000000000000000000000000000000000000000000000000000000000000000000004fc50c04a4d5c32c000000000000000000000000000000000000000000000000003e01e189d92fb400000000000000000000000000000000000000000000000000000000000000000",
                    "logDecoded": true,
                    "operation": "EVENT",
                    "revert": false,
                    "status": true,
                    "topics": [
                        "0xd78ad95fa46c994b6551d0da85fc275fe613ce37657fb8d5e3d130840159d822",
                        "0x0000000000000000000000007a250d5630b4cf539739df2c5dacb4c659f2488d",
                        "0x00000000000000000000000038d3d33b5b6dc7e0a55920673a7282f816fa953f"
                    ]
                },
                "nodeType": 1
            },
            "2": {
                "invocation": {
                    "address": "0xb3e325b62c0c3222c1adc16f530d5dba7a01f7ba",
                    "callData": "0x",
                    "decodedMethod": {
                        "callParams": [],
                        "constructorArguments": "",
                        "name": "getReserves",
                        "returnParams": [
                            {
                                "name": "_reserve0",
                                "type": "uint112",
                                "value": "7,140,769,794,724,922,097,405"
                            },
                            {
                                "name": "_reserve1",
                                "type": "uint112",
                                "value": "2,344,542,203,971,629,413,960,200"
                            },
                            {
                                "name": "_blockTimestampLast",
                                "type": "uint32",
                                "value": "1,609,561,278"
                            }
                        ],
                        "signature": "getReserves()"
                    },
                    "errorInfo": "",
                    "fromAddress": "0x7a250d5630b4cf539739df2c5dacb4c659f2488d",
                    "gasUsed": 1204,
                    "id": 2,
                    "methodDecoded": true,
                    "operation": "STATICCALL",
                    "output": "0x0000000000000000000000000000000000000000000001831a1686e1ea037efd00000000000000000000000000000000000000000001f079e336933892320a08000000000000000000000000000000000000000000000000000000005feff4be",
                    "revert": false,
                    "revertMessage": "",
                    "selector": "0x0902f1ac",
                    "status": true,
                    "value": "0"
                },
                "nodeType": 0
            },
            "3": {
                "invocation": {
                    "address": "0xae17f4f5ca32f77ea8e3786db7c0b2fe877ac176",
                    "callData": "0x00000000000000000000000038d3d33b5b6dc7e0a55920673a7282f816fa953f0000000000000000000000000e236240c4e9a26e4e8d6d516fc2c028f6fdc3bb000000000000000000000000000000000000000000000000135e893d64bc6934",
                    "decodedMethod": {
                        "callParams": [
                            {
                                "name": "sender",
                                "type": "address",
                                "value": "0x38d3d33b5b6dc7e0a55920673a7282f816fa953f"
                            },
                            {
                                "name": "recipient",
                                "type": "address",
                                "value": "0x0e236240c4e9a26e4e8d6d516fc2c028f6fdc3bb"
                            },
                            {
                                "decimalAvailable": true,
                                "name": "amount",
                                "type": "uint256",
                                "value": "1,395,703,831,307,512,116"
                            }
                        ],
                        "constructorArguments": "",
                        "name": "transferFrom",
                        "returnParams": [
                            {
                                "name": "",
                                "type": "bool",
                                "value": true
                            }
                        ],
                        "signature": "transferFrom(address,address,uint256)"
                    },
                    "errorInfo": "",
                    "fromAddress": "0x7a250d5630b4cf539739df2c5dacb4c659f2488d",
                    "gasUsed": 23105,
                    "id": 3,
                    "methodDecoded": true,
                    "operation": "CALL",
                    "output": "0x0000000000000000000000000000000000000000000000000000000000000001",
                    "revert": false,
                    "revertMessage": "",
                    "selector": "0x23b872dd",
                    "status": true,
                    "value": "0"
                },
                "nodeType": 0
            },
            "4": {
                "event": {
                    "contract": "0xae17f4f5ca32f77ea8e3786db7c0b2fe877ac176",
                    "decodedLog": {
                        "name": "Transfer",
                        "params": [
                            {
                                "name": "from",
                                "type": "address",
                                "value": "0x38d3d33b5b6dc7e0a55920673a7282f816fa953f"
                            },
                            {
                                "name": "to",
                                "type": "address",
                                "value": "0x0e236240c4e9a26e4e8d6d516fc2c028f6fdc3bb"
                            },
                            {
                                "decimalAvailable": true,
                                "name": "value",
                                "type": "uint256",
                                "value": "1,395,703,831,307,512,116"
                            }
                        ],
                        "signature": "Transfer(address,address,uint256)"
                    },
                    "id": 4,
                    "logData": "0x000000000000000000000000000000000000000000000000135e893d64bc6934",
                    "logDecoded": true,
                    "operation": "EVENT",
                    "revert": false,
                    "status": true,
                    "topics": [
                        "0xddf252ad1be2c89b69c2b068fc378daa952ba7f163c4a11628f55a4df523b3ef",
                        "0x00000000000000000000000038d3d33b5b6dc7e0a55920673a7282f816fa953f",
                        "0x0000000000000000000000000e236240c4e9a26e4e8d6d516fc2c028f6fdc3bb"
                    ]
                },
                "nodeType": 1
            },
            "5": {
                "event": {
                    "contract": "0xae17f4f5ca32f77ea8e3786db7c0b2fe877ac176",
                    "decodedLog": {
                        "name": "Approval",
                        "params": [
                            {
                                "name": "owner",
                                "type": "address",
                                "value": "0x38d3d33b5b6dc7e0a55920673a7282f816fa953f"
                            },
                            {
                                "name": "spender",
                                "type": "address",
                                "value": "0x7a250d5630b4cf539739df2c5dacb4c659f2488d"
                            },
                            {
                                "decimalAvailable": true,
                                "name": "value",
                                "type": "uint256",
                                "value": "115,792,089,237,316,195,423,570,985,008,687,907,853,269,984,665,640,564,039,454,981,902,097,145,724,550"
                            }
                        ],
                        "signature": "Approval(address,address,uint256)"
                    },
                    "id": 5,
                    "logData": "0xffffffffffffffffffffffffffffffffffffffffffffffffdbe3768c024cfe86",
                    "logDecoded": true,
                    "operation": "EVENT",
                    "revert": false,
                    "status": true,
                    "topics": [
                        "0x8c5be1e5ebec7d5bd14f71427d1e84f3dd0314c0f7b2291e5b200ac8c7c3b925",
                        "0x00000000000000000000000038d3d33b5b6dc7e0a55920673a7282f816fa953f",
                        "0x0000000000000000000000007a250d5630b4cf539739df2c5dacb4c659f2488d"
                    ]
                },
                "nodeType": 1
            },
            "6": {
                "invocation": {
                    "address": "0x0e236240c4e9a26e4e8d6d516fc2c028f6fdc3bb",
                    "callData": "0x000000000000000000000000000000000000000000000004fc50c04a4d5c32c00000000000000000000000000000000000000000000000000000000000000000000000000000000000000000b3e325b62c0c3222c1adc16f530d5dba7a01f7ba00000000000000000000000000000000000000000000000000000000000000800000000000000000000000000000000000000000000000000000000000000000",
                    "decodedMethod": {
                        "callParams": [
                            {
                                "name": "amount0Out",
                                "type": "uint256",
                                "value": "91,968,219,415,890,899,648"
                            },
                            {
                                "name": "amount1Out",
                                "type": "uint256",
                                "value": "0"
                            },
                            {
                                "name": "to",
                                "type": "address",
                                "value": "0xb3e325b62c0c3222c1adc16f530d5dba7a01f7ba"
                            },
                            {
                                "name": "data",
                                "type": "bytes",
                                "value": "0x"
                            }
                        ],
                        "constructorArguments": "",
                        "name": "swap",
                        "returnParams": [],
                        "signature": "swap(uint256,uint256,address,bytes)"
                    },
                    "errorInfo": "",
                    "fromAddress": "0x7a250d5630b4cf539739df2c5dacb4c659f2488d",
                    "gasUsed": 56940,
                    "id": 6,
                    "methodDecoded": true,
                    "operation": "CALL",
                    "output": "",
                    "revert": false,
                    "revertMessage": "",
                    "selector": "0x022c0d9f",
                    "status": true,
                    "value": "0"
                },
                "nodeType": 0
            },
            "7": {
                "invocation": {
                    "address": "0x6b175474e89094c44da98b954eedeac495271d0f",
                    "callData": "0x000000000000000000000000b3e325b62c0c3222c1adc16f530d5dba7a01f7ba000000000000000000000000000000000000000000000004fc50c04a4d5c32c0",
                    "decodedMethod": {
                        "callParams": [
                            {
                                "name": "dst",
                                "type": "address",
                                "value": "0xb3e325b62c0c3222c1adc16f530d5dba7a01f7ba"
                            },
                            {
                                "decimalAvailable": true,
                                "name": "wad",
                                "type": "uint256",
                                "value": "91,968,219,415,890,899,648"
                            }
                        ],
                        "constructorArguments": "",
                        "name": "transfer",
                        "returnParams": [
                            {
                                "name": "",
                                "type": "bool",
                                "value": true
                            }
                        ],
                        "signature": "transfer(address,uint256)"
                    },
                    "errorInfo": "",
                    "fromAddress": "0x0e236240c4e9a26e4e8d6d516fc2c028f6fdc3bb",
                    "gasUsed": 15374,
                    "id": 7,
                    "methodDecoded": true,
                    "operation": "CALL",
                    "output": "0x0000000000000000000000000000000000000000000000000000000000000001",
                    "revert": false,
                    "revertMessage": "",
                    "selector": "0xa9059cbb",
                    "status": true,
                    "value": "0"
                },
                "nodeType": 0
            },
            "8": {
                "event": {
                    "contract": "0x6b175474e89094c44da98b954eedeac495271d0f",
                    "decodedLog": {
                        "name": "Transfer",
                        "params": [
                            {
                                "name": "src",
                                "type": "address",
                                "value": "0x0e236240c4e9a26e4e8d6d516fc2c028f6fdc3bb"
                            },
                            {
                                "name": "dst",
                                "type": "address",
                                "value": "0xb3e325b62c0c3222c1adc16f530d5dba7a01f7ba"
                            },
                            {
                                "decimalAvailable": true,
                                "name": "wad",
                                "type": "uint256",
                                "value": "91,968,219,415,890,899,648"
                            }
                        ],
                        "signature": "Transfer(address,address,uint256)"
                    },
                    "id": 8,
                    "logData": "0x000000000000000000000000000000000000000000000004fc50c04a4d5c32c0",
                    "logDecoded": true,
                    "operation": "EVENT",
                    "revert": false,
                    "status": true,
                    "topics": [
                        "0xddf252ad1be2c89b69c2b068fc378daa952ba7f163c4a11628f55a4df523b3ef",
                        "0x0000000000000000000000000e236240c4e9a26e4e8d6d516fc2c028f6fdc3bb",
                        "0x000000000000000000000000b3e325b62c0c3222c1adc16f530d5dba7a01f7ba"
                    ]
                },
                "nodeType": 1
            },
            "9": {
                "invocation": {
                    "address": "0x6b175474e89094c44da98b954eedeac495271d0f",
                    "callData": "0x0000000000000000000000000e236240c4e9a26e4e8d6d516fc2c028f6fdc3bb",
                    "decodedMethod": {
                        "callParams": [
                            {
                                "name": "",
                                "type": "address",
                                "value": "0x0e236240c4e9a26e4e8d6d516fc2c028f6fdc3bb"
                            }
                        ],
                        "constructorArguments": "",
                        "name": "balanceOf",
                        "returnParams": [
                            {
                                "decimalAvailable": true,
                                "name": "",
                                "type": "uint256",
                                "value": "2,380,243,652,881,224,880,098,510"
                            }
                        ],
                        "signature": "balanceOf(address)"
                    },
                    "errorInfo": "",
                    "fromAddress": "0x0e236240c4e9a26e4e8d6d516fc2c028f6fdc3bb",
                    "gasUsed": 1302,
                    "id": 9,
                    "methodDecoded": true,
                    "operation": "STATICCALL",
                    "output": "0x00000000000000000000000000000000000000000001f8094458781d6cec0cce",
                    "revert": false,
                    "revertMessage": "",
                    "selector": "0x70a08231",
                    "status": true,
                    "value": "0"
                },
                "nodeType": 0
            }
        },
        "gasFlame": [
            {
                "children": [
                    {
                        "children": [
                            {
                                "children": [],
                                "depth": 0,
                                "name": "Initial Gas",
                                "value": 23440
                            },
                            {
                                "children": [
                                    {
                                        "children": [],
                                        "depth": 1,
                                        "name": "getReserves",
                                        "value": 1204
                                    },
                                    {
                                        "children": [],
                                        "depth": 1,
                                        "name": "getReserves",
                                        "value": 1204
                                    },
                                    {
                                        "children": [],
                                        "depth": 1,
                                        "name": "transferFrom",
                                        "value": 23105
                                    },
                                    {
                                        "children": [
                                            {
                                                "children": [],
                                                "depth": 2,
                                                "name": "transfer",
                                                "value": 15374
                                            },
                                            {
                                                "children": [],
                                                "depth": 2,
                                                "name": "balanceOf",
                                                "value": 1302
                                            },
                                            {
                                                "children": [],
                                                "depth": 2,
                                                "name": "balanceOf",
                                                "value": 1241
                                            }
                                        ],
                                        "depth": 1,
                                        "name": "swap",
                                        "value": 56940
                                    },
                                    {
                                        "children": [
                                            {
                                                "children": [],
                                                "depth": 2,
                                                "name": "transfer",
                                                "value": 14707
                                            },
                                            {
                                                "children": [],
                                                "depth": 2,
                                                "name": "balanceOf",
                                                "value": 1241
                                            },
                                            {
                                                "children": [],
                                                "depth": 2,
                                                "name": "balanceOf",
                                                "value": 1302
                                            }
                                        ],
                                        "depth": 1,
                                        "name": "swap",
                                        "value": 56273
                                    }
                                ],
                                "depth": 0,
                                "name": "Executed Gas",
                                "value": 156944
                            }
                        ],
                        "depth": -1,
                        "name": "Actual Gas Used",
                        "value": 156984
                    },
                    {
                        "children": [],
                        "depth": -1,
                        "name": "Refunded Gas",
                        "value": 23400
                    }
                ],
                "depth": -2,
                "name": "Total Gas",
                "value": 180384
            }
        ],
        "isConfirmed": true,
        "mainTrace": [
            {
                "children": [
                    {
                        "children": [
                            {
                                "children": [],
                                "depth": 1,
                                "id": 1,
                                "order": 1
                            },
                            {
                                "children": [],
                                "depth": 1,
                                "id": 2,
                                "order": 2
                            },
                            {
                                "children": [
                                    {
                                        "children": [],
                                        "depth": 2,
                                        "id": 4,
                                        "order": 4
                                    },
                                    {
                                        "children": [],
                                        "depth": 2,
                                        "id": 5,
                                        "order": 5
                                    }
                                ],
                                "depth": 1,
                                "id": 3,
                                "order": 3
                            },
                            {
                                "children": [
                                    {
                                        "children": [
                                            {
                                                "children": [],
                                                "depth": 3,
                                                "id": 8,
                                                "order": 8
                                            }
                                        ],
                                        "depth": 2,
                                        "id": 7,
                                        "order": 7
                                    },
                                    {
                                        "children": [],
                                        "depth": 2,
                                        "id": 9,
                                        "order": 9
                                    },
                                    {
                                        "children": [],
                                        "depth": 2,
                                        "id": 10,
                                        "order": 10
                                    },
                                    {
                                        "children": [],
                                        "depth": 2,
                                        "id": 11,
                                        "order": 11
                                    },
                                    {
                                        "children": [],
                                        "depth": 2,
                                        "id": 12,
                                        "order": 12
                                    }
                                ],
                                "depth": 1,
                                "id": 6,
                                "order": 6
                            },
                            {
                                "children": [
                                    {
                                        "children": [
                                            {
                                                "children": [],
                                                "depth": 3,
                                                "id": 15,
                                                "order": 15
                                            }
                                        ],
                                        "depth": 2,
                                        "id": 14,
                                        "order": 14
                                    },
                                    {
                                        "children": [],
                                        "depth": 2,
                                        "id": 16,
                                        "order": 16
                                    },
                                    {
                                        "children": [],
                                        "depth": 2,
                                        "id": 17,
                                        "order": 17
                                    },
                                    {
                                        "children": [],
                                        "depth": 2,
                                        "id": 18,
                                        "order": 18
                                    },
                                    {
                                        "children": [],
                                        "depth": 2,
                                        "id": 19,
                                        "order": 19
                                    }
                                ],
                                "depth": 1,
                                "id": 13,
                                "order": 13
                            }
                        ],
                        "depth": 0,
                        "id": 0,
                        "order": 0
                    }
                ],
                "depth": -1,
                "id": -1,
                "order": -1
            }
        ],
        "mainTraceNodeCount": 20,
        "parentIdMap": {
            "0": -1,
            "1": 0,
            "10": 6,
            "11": 6,
            "12": 6,
            "13": 0,
            "14": 13,
            "15": 14,
            "16": 13,
            "17": 13,
            "18": 13,
            "19": 13,
            "2": 0,
            "3": 0,
            "4": 3,
            "5": 3,
            "6": 0,
            "7": 6,
            "8": 7,
            "9": 6
        },
        "tidyTrace": [
            {
                "children": [
                    {
                        "children": [
                            {
                                "children": [
                                    {
                                        "children": [],
                                        "depth": 2,
                                        "id": 4,
                                        "order": 4
                                    },
                                    {
                                        "children": [],
                                        "depth": 2,
                                        "id": 5,
                                        "order": 5
                                    }
                                ],
                                "depth": 1,
                                "id": 3,
                                "order": 3
                            },
                            {
                                "children": [
                                    {
                                        "children": [
                                            {
                                                "children": [],
                                                "depth": 3,
                                                "id": 8,
                                                "order": 8
                                            }
                                        ],
                                        "depth": 2,
                                        "id": 7,
                                        "order": 7
                                    },
                                    {
                                        "children": [],
                                        "depth": 2,
                                        "id": 11,
                                        "order": 11
                                    },
                                    {
                                        "children": [],
                                        "depth": 2,
                                        "id": 12,
                                        "order": 12
                                    }
                                ],
                                "depth": 1,
                                "id": 6,
                                "order": 6
                            },
                            {
                                "children": [
                                    {
                                        "children": [
                                            {
                                                "children": [],
                                                "depth": 3,
                                                "id": 15,
                                                "order": 15
                                            }
                                        ],
                                        "depth": 2,
                                        "id": 14,
                                        "order": 14
                                    },
                                    {
                                        "children": [],
                                        "depth": 2,
                                        "id": 18,
                                        "order": 18
                                    },
                                    {
                                        "children": [],
                                        "depth": 2,
                                        "id": 19,
                                        "order": 19
                                    }
                                ],
                                "depth": 1,
                                "id": 13,
                                "order": 13
                            }
                        ],
                        "depth": 0,
                        "id": 0,
                        "order": 0
                    }
                ],
                "depth": -1,
                "id": -1,
                "order": -1
            }
        ],
        "tidyTraceNodeCount": 14
    },
    "state_change": {
        "stateChanges": [
            {
                "address": "0x03066da434e5264ef0b32f787923f974a5726fdc",
                "erc": "ERC-20",
                "slots": [
                    {
                        "current": "0x00000000000000000000000000000000000000000000000009a479ba087cf375",
                        "key": "0x651f108eae903a7a039d567929cf2a7bf9818dedbba3e33b9312763ef056d8d9",
                        "prev": "0x00000000000000000000000000000000000000000000000005c45ba16ae9f835"
                    },
                    {
                        "current": "0x000000000000000000000000000000000000000000000183163668c94c7083bd",
                        "key": "0x17a4ca50b9e3dff684ec7c2da91a7830e68afb2ad22a64f75738f41d72e28f96",
                        "prev": "0x0000000000000000000000000000000000000000000001831a1686e1ea037efd"
                    }
                ],
                "storageVariables": [
                    {
                        "name": "_balances",
                        "type": "mapping(address => uint256)",
                        "value": {
                            "pairs": [
                                {
                                    "key": "0x38d3d33b5b6dc7e0a55920673a7282f816fa953f",
                                    "value": {
                                        "current": "694814082435183477",
                                        "prev": "415557814466508853",
                                        "typeTag": 1
                                    }
                                },
                                {
                                    "key": "0xb3e325b62c0c3222c1adc16f530d5dba7a01f7ba",
                                    "value": {
                                        "current": "7140490538456953422781",
                                        "prev": "7140769794724922097405",
                                        "typeTag": 1
                                    }
                                }
                            ],
                            "typeTag": 4
                        }
                    }
                ]
            },
            {
                "address": "0x0e236240c4e9a26e4e8d6d516fc2c028f6fdc3bb",
                "erc": "ERC-20",
                "slots": [
                    {
                        "current": "0x000000000000000000000000000000000e6e08f5aebd6d7324885f286ea97b09",
                        "key": "0x0000000000000000000000000000000000000000000000000000000000000009",
                        "prev": "0x000000000000000000000000000000000e6dcedc75e84b2dd99c1d6daf04938e"
                    },
                    {
                        "current": "0x00000000000000000000000000001ac09442e9421c5b3f5e02877c449a02ca1c",
                        "key": "0x000000000000000000000000000000000000000000000000000000000000000a",
                        "prev": "0x00000000000000000000000000001ac090637de7fc1d0930ef04ae955c983ba3"
                    },
                    {
                        "current": "0x5feff4c80000000007a066d507f5786e3c9800000001f8094458781d6cec0cce",
                        "key": "0x0000000000000000000000000000000000000000000000000000000000000008",
                        "prev": "0x5feff4b90000000007a053767eb813b1d36400000001f80e40a93867ba483f8e"
                    }
                ],
                "storageVariables": [
                    {
                        "name": "price1CumulativeLast",
                        "type": "uint256",
                        "value": {
                            "current": "2330450721840594700913551060419150935673372",
                            "prev": "2330445574097049551952804262331841812904867",
                            "typeTag": 1
                        }
                    },
                    {
                        "name": "reserve0",
                        "type": "uint112",
                        "value": {
                            "current": "2380243652881224880098510",
                            "prev": "2380335621100640770998158",
                            "typeTag": 1
                        }
                    },
                    {
                        "name": "reserve1",
                        "type": "uint112",
                        "value": {
                            "current": "36015454269393821645976",
                            "prev": "36014058565562514133860",
                            "typeTag": 1
                        }
                    },
                    {
                        "name": "blockTimestampLast",
                        "type": "uint32",
                        "value": {
                            "current": "1609561288",
                            "prev": "1609561273",
                            "typeTag": 1
                        }
                    },
                    {
                        "name": "price0CumulativeLast",
                        "type": "uint256",
                        "value": {
                            "current": "19180526319683694018693622185933241097",
                            "prev": "19179347941633795776942832566418051982",
                            "typeTag": 1
                        }
                    }
                ]
            },
            {
                "address": "0x6b175474e89094c44da98b954eedeac495271d0f",
                "erc": "ERC-20",
                "slots": [
                    {
                        "current": "0x00000000000000000000000000000000000000000001f8094458781d6cec0cce",
                        "key": "0x3a663245931ad4be31c7ae76a20396c27fc442622d48fb8a7a745cf0ddd36df1",
                        "prev": "0x00000000000000000000000000000000000000000001f80e40a93867ba483f8e"
                    },
                    {
                        "current": "0x00000000000000000000000000000000000000000001f07edf875382df8e3cc8",
                        "key": "0x51b27882434058dd3a999b29e273fe7957408f263fc311ceb5183582be92baca",
                        "prev": "0x00000000000000000000000000000000000000000001f079e336933892320a08"
                    }
                ],
                "storageVariables": [
                    {
                        "name": "balanceOf",
                        "type": "mapping(address => uint256)",
                        "value": {
                            "pairs": [
                                {
                                    "key": "0x0e236240c4e9a26e4e8d6d516fc2c028f6fdc3bb",
                                    "value": {
                                        "current": "2380243652881224880098510",
                                        "prev": "2380335621100640770998158",
                                        "typeTag": 1
                                    }
                                },
                                {
                                    "key": "0xb3e325b62c0c3222c1adc16f530d5dba7a01f7ba",
                                    "value": {
                                        "current": "2344634172191045304859848",
                                        "prev": "2344542203971629413960200",
                                        "typeTag": 1
                                    }
                                }
                            ],
                            "typeTag": 4
                        }
                    }
                ]
            },
            {
                "address": "0xae17f4f5ca32f77ea8e3786db7c0b2fe877ac176",
                "erc": "ERC-20",
                "slots": [
                    {
                        "current": "0xffffffffffffffffffffffffffffffffffffffffffffffffdbe3768c024cfe86",
                        "key": "0x85aba7faea6f952d2f94188c4ca5b681d0c351fc26766c5ffb60e945584d6412",
                        "prev": "0xffffffffffffffffffffffffffffffffffffffffffffffffef41ffc9670967ba"
                    },
                    {
                        "current": "0x0000000000000000000000000000000000000000000000000000000000000000",
                        "key": "0x651f108eae903a7a039d567929cf2a7bf9818dedbba3e33b9312763ef056d8d9",
                        "prev": "0x000000000000000000000000000000000000000000000000135e893d64bc6934"
                    },
                    {
                        "current": "0x0000000000000000000000000000000000000000000007a066d507f5786e3c98",
                        "key": "0xfb9a5449a17d0ca88782d620d411a24515f2d573955290161675a46cc07aeb00",
                        "prev": "0x0000000000000000000000000000000000000000000007a053767eb813b1d364"
                    }
                ],
                "storageVariables": [
                    {
                        "name": "_allowances",
                        "type": "mapping(address => mapping(address => uint256))",
                        "value": {
                            "pairs": [
                                {
                                    "key": "0x38d3d33b5b6dc7e0a55920673a7282f816fa953f",
                                    "value": {
                                        "pairs": [
                                            {
                                                "key": "0x7a250d5630b4cf539739df2c5dacb4c659f2488d",
                                                "value": {
                                                    "current": "115792089237316195423570985008687907853269984665640564039454981902097145724550",
                                                    "prev": "115792089237316195423570985008687907853269984665640564039456377605928453236666",
                                                    "typeTag": 1
                                                }
                                            }
                                        ],
                                        "typeTag": 4
                                    }
                                }
                            ],
                            "typeTag": 4
                        }
                    },
                    {
                        "name": "_balances",
                        "type": "mapping(address => uint256)",
                        "value": {
                            "pairs": [
                                {
                                    "key": "0x0e236240c4e9a26e4e8d6d516fc2c028f6fdc3bb",
                                    "value": {
                                        "current": "36015454269393821645976",
                                        "prev": "36014058565562514133860",
                                        "typeTag": 1
                                    }
                                },
                                {
                                    "key": "0x38d3d33b5b6dc7e0a55920673a7282f816fa953f",
                                    "value": {
                                        "current": "0",
                                        "prev": "1395703831307512116",
                                        "typeTag": 1
                                    }
                                }
                            ],
                            "typeTag": 4
                        }
                    }
                ]
            },
            {
                "address": "0xb3e325b62c0c3222c1adc16f530d5dba7a01f7ba",
                "erc": "ERC-20",
                "slots": [
                    {
                        "current": "0x00000000000000000000000000001745f41cc0b6968a0727b7d213c0c3a376d7",
                        "key": "0x0000000000000000000000000000000000000000000000000000000000000009",
                        "prev": "0x00000000000000000000000000001745e7496f29129c36b19f4ee53505efc58b"
                    },
                    {
                        "current": "0x000000000000000000000000000000002c9198592f4436ffd890f6f5b7bafbe2",
                        "key": "0x000000000000000000000000000000000000000000000000000000000000000a",
                        "prev": "0x000000000000000000000000000000002c91908d27c52bd8befa10c4b330b4f8"
                    },
                    {
                        "current": "0x5feff4c800000001f07edf875382df8e3cc8000000000183163668c94c7083bd",
                        "key": "0x0000000000000000000000000000000000000000000000000000000000000008",
                        "prev": "0x5feff4be00000001f079e336933892320a080000000001831a1686e1ea037efd"
                    }
                ],
                "storageVariables": [
                    {
                        "name": "price0CumulativeLast",
                        "type": "uint256",
                        "value": {
                            "current": "2027386540672002744395227037736815806346967",
                            "prev": "2027369492707328995709689440761592065017227",
                            "typeTag": 1
                        }
                    },
                    {
                        "name": "price1CumulativeLast",
                        "type": "uint256",
                        "value": {
                            "current": "59242004851218329381986989442449734626",
                            "prev": "59241846709485969595230434706035094776",
                            "typeTag": 1
                        }
                    },
                    {
                        "name": "reserve0",
                        "type": "uint112",
                        "value": {
                            "current": "7140490538456953422781",
                            "prev": "7140769794724922097405",
                            "typeTag": 1
                        }
                    },
                    {
                        "name": "reserve1",
                        "type": "uint112",
                        "value": {
                            "current": "2344634172191045304859848",
                            "prev": "2344542203971629413960200",
                            "typeTag": 1
                        }
                    },
                    {
                        "name": "blockTimestampLast",
                        "type": "uint32",
                        "value": {
                            "current": "1609561288",
                            "prev": "1609561278",
                            "typeTag": 1
                        }
                    }
                ]
            }
        ]
    }
}