{
    "balance_change": {
        "balanceChanges": [
            {
                "account": "0x951b1d3b9f90d62a3826b90a150005a4304a3081",
                "assets": [
                    {
                        "address": "0xeeeeeeeeeeeeeeeeeeeeeeeeeeeeeeeeeeeeeeee",
                        "amount": "0.128199314365565607",
                        "iconUrl": "https://assets.blocksec.com/image/1663669189317-3.png",
                        "isERC1155": false,
                        "isERC721": false,
                        "sign": false,
                        "value": "520.58779032703463335"
                    },
                    {
                        "address": "0xdac17f958d2ee523a2206206994597c13d831ec7",
                        "amount": "501",
                        "iconUrl": "https://assets.blocksec.com/icon/fcea71f3193ce895be44bfdf941f7e4c9381dd587f273c2d1a27f1263d84e4ea.png",
                        "isERC1155": false,
                        "isERC721": false,
                        "sign": true,
                        "value": "501.1722588"
                    }
                ]
            },
            {
                "account": "0xa344eaf353b7a32fc60c947583ccb5e5481a65ae",
                "assets": [
                    {
                        "address": "0xeeeeeeeeeeeeeeeeeeeeeeeeeeeeeeeeeeeeeeee",
                        "amount": "0.128199314365565607",
                        "iconUrl": "https://assets.blocksec.com/image/1663669189317-3.png",
                        "isERC1155": false,
                        "isERC721": false,
                        "sign": true,
                        "value": "520.58779032703463335"
                    },
                    {
                        "address": "0xdac17f958d2ee523a2206206994597c13d831ec7",
                        "amount": "501",
                        "iconUrl": "https://assets.blocksec.com/icon/fcea71f3193ce895be44bfdf941f7e4c9381dd587f273c2d1a27f1263d84e4ea.png",
                        "isERC1155": false,
                        "isERC721": false,
                        "sign": false,
                        "value": "501.1722588"
                    }
                ]
            }
        ]
    },
    "profile": {
        "basic_info": {
            "baseFee": "103.312127295",
            "blockNumber": 13894413,
            "callData": "0xf0910b2b0000000000000000000000000000000000000000000000000000000000000020000000000000000000000000a344eaf353b7a32fc60c947583ccb5e5481a65ae0000000000000000000000000000000000000000000000000000000000000000000000000000000000000000951b1d3b9f90d62a3826b90a150005a4304a3081000000000000000000000000951b1d3b9f90d62a3826b90a150005a4304a30810000000000000000000000000000000000000000000000000000000000000000000000000000000000000000dac17f958d2ee523a2206206994597c13d831ec700000000000000000000000000000000000000000000000001c77498e1354aa700000000000000000000000000000000000000000000000001c77498e1354aa7000000000000000000000000000000000000000000000000000000001ddca74000000000000000000000000000000000000000000000000000000000000000000000000000000000000000000000000000000000000000000000000061cb270a0000000000000000000000000000000000000000000000000000000000000031000000000000000000000000000000000000000000000000000000000000000000000000000000000000000000000000000000000000000000000000000000010067616e64616c6674686562726f776e67786d786e69000ea3269f5b0fee000000000000000000000000000000000000000000000000000000000000000002000000000000000000000000000000000000000000000000000000000000000041577e332b406494ea3641a4a47d4c72c2e83d6f89bf53d22c245e820310a5ad512fef983eede067c5a05d4a440ec281bf11ddd9eb27e299f7b101408855faa6801b00000000000000000000000000000000000000000000000000000000000000",
            "debugEnable": true,
            "errorInfo": "",
            "eventCount": 2,
            "feeRecipient": "0xb7e390864a90b7b923c9f9310c6f98aafe43f707",
            "formatValue": "0.128199314365565607",
            "gasLimit": 109077,
            "gasPrice": "105.312127295",
            "gasUsed": 107086,
            "intTxnCount": 4,
            "internalRevert": false,
            "internalRevertMessage": "",
            "isContractCreation": false,
            "isFlashloan": false,
            "maxFee": "220.52",
            "nonce": 1,
            "overwritedBlockNumber": -1,
            "priorityFee": "2",
            "receiver": "0x6ad3dac99c9a4a480748c566ce7b3503506e3d71",
            "revertMessage": "",
            "sender": "0x951b1d3b9f90d62a3826b90a150005a4304a3081",
            "simulationEnable": true,
            "sourceTxnHash": "0xecfac1c34b12bd472345845cd25aba35fd9a0a07baff4b62ee43c34cb978018b",
            "status": true,
            "timestamp": "2021-12-28T14:59:39Z",
            "transactionFee": "0.01127745446351237",
            "txnHash": "0xecfac1c34b12bd472345845cd25aba35fd9a0a07baff4b62ee43c34cb978018b",
            "txnIndex": 43,
            "type": 2,
            "value": "128199314365565607"
        },
        "fund_flow": [
            {
                "amount": "0.128199314365565607",
                "from": "0x951b1d3b9f90d62a3826b90a150005a4304a3081",
                "id": 1,
                "isERC1155": false,
                "isERC721": false,
                "isReverted": false,
                "order": 1,
                "to": "0x6ad3dac99c9a4a480748c566ce7b3503506e3d71",
                "token": "0xeeeeeeeeeeeeeeeeeeeeeeeeeeeeeeeeeeeeeeee"
            },
            {
                "amount": "0.128199314365565607",
                "from": "0x6ad3dac99c9a4a480748c566ce7b3503506e3d71",
                "id": 2,
                "isERC1155": false,
                "isERC721": false,
                "isReverted": false,
                "order": 2,
                "to": "0xa344eaf353b7a32fc60c947583ccb5e5481a65ae",
                "token": "0xeeeeeeeeeeeeeeeeeeeeeeeeeeeeeeeeeeeeeeee"
            },
            {
                "amount": "501",
                "from": "0xa344eaf353b7a32fc60c947583ccb5e5481a65ae",
                "id": 3,
                "isERC1155": false,
                "isERC721": false,
                "isReverted": false,
                "order": 3,
                "to": "0x951b1d3b9f90d62a3826b90a150005a4304a3081",
                "token": "0xdac17f958d2ee523a2206206994597c13d831ec7"
            }
        ],
        "token_infos": [
            {
                "address": "0xc02aaa39b223fe8d0a0e5c4f27ead9083c756cc2",
                "decimals": 18
            },
            {
                "address": "0xdac17f958d2ee523a2206206994597c13d831ec7",
                "decimals": 6
            },
            {
                "address": "0xeeeeeeeeeeeeeeeeeeeeeeeeeeeeeeeeeeeeeeee",
                "decimals": 18
            }
        ]
    },
    "address_label": {
        "labels": [
            {
                "address": "0x0000000000000000000000000000000000000003",
                "label": "Precompiled"
            },
            {
                "address": "0x0000000000000000000000000000000000000004",
                "label": "Precompiled"
            },
            {
                "address": "0xeeeeeeeeeeeeeeeeeeeeeeeeeeeeeeeeeeeeeeee",
                "label": "Ether"
            },
            {
                "address": "0x6ad3dac99c9a4a480748c566ce7b3503506e3d71",
                "label": "Hashflow"
            },
            {
                "address": "0xdac17f958d2ee523a2206206994597c13d831ec7",
                "label": "Tether: USDT Stablecoin"
            },
            {
                "address": "0x0000000000000000000000000000000000000001",
                "label": "Precompiled"
            },
            {
                "address": "0x0000000000000000000000000000000000000002",
                "label": "Precompiled"
            }
        ]
    },
    "trace": {
        "accountLabels": null,
        "dataMap": {
            "-1": {
                "invocation": {
                    "address": "0x951b1d3b9f90d62a3826b90a150005a4304a3081",
                    "callData": "",
                    "decodedMethod": null,
                    "errorInfo": "",
                    "fromAddress": "",
                    "gasUsed": 0,
                    "id": -1,
                    "methodDecoded": false,
                    "operation": "",
                    "output": "",
                    "revert": false,
                    "revertMessage": "",
                    "selector": "",
                    "status": false,
                    "value": ""
                },
                "nodeType": 0
            },
            "0": {
                "invocation": {
                    "address": "0x6ad3dac99c9a4a480748c566ce7b3503506e3d71",
                    "callData": "0x0000000000000000000000000000000000000000000000000000000000000020000000000000000000000000a344eaf353b7a32fc60c947583ccb5e5481a65ae0000000000000000000000000000000000000000000000000000000000000000000000000000000000000000951b1d3b9f90d62a3826b90a150005a4304a3081000000000000000000000000951b1d3b9f90d62a3826b90a150005a4304a30810000000000000000000000000000000000000000000000000000000000000000000000000000000000000000dac17f958d2ee523a2206206994597c13d831ec700000000000000000000000000000000000000000000000001c77498e1354aa700000000000000000000000000000000000000000000000001c77498e1354aa7000000000000000000000000000000000000000000000000000000001ddca74000000000000000000000000000000000000000000000000000000000000000000000000000000000000000000000000000000000000000000000000061cb270a0000000000000000000000000000000000000000000000000000000000000031000000000000000000000000000000000000000000000000000000000000000000000000000000000000000000000000000000000000000000000000000000010067616e64616c6674686562726f776e67786d786e69000ea3269f5b0fee000000000000000000000000000000000000000000000000000000000000000002000000000000000000000000000000000000000000000000000000000000000041577e332b406494ea3641a4a47d4c72c2e83d6f89bf53d22c245e820310a5ad512fef983eede067c5a05d4a440ec281bf11ddd9eb27e299f7b101408855faa6801b00000000000000000000000000000000000000000000000000000000000000",
                    "decodedMethod": null,
                    "errorInfo": "",
                    "fromAddress": "0x951b1d3b9f90d62a3826b90a150005a4304a3081",
                    "gasUsed": 107086,
                    "id": 0,
                    "methodDecoded": false,
                    "operation": "CALL",
                    "output": "",
                    "revert": false,
                    "revertMessage": "",
                    "selector": "0xf0910b2b",
                    "status": true,
                    "value": "0.128199314365565607"
                },
                "nodeType": 0
            },
            "1": {
                "invocation": {
                    "address": "0xa344eaf353b7a32fc60c947583ccb5e5481a65ae",
                    "callData": "0x0000000000000000000000000000000000000000000000000000000000000020000000000000000000000000a344eaf353b7a32fc60c947583ccb5e5481a65ae0000000000000000000000000000000000000000000000000000000000000000000000000000000000000000951b1d3b9f90d62a3826b90a150005a4304a3081000000000000000000000000951b1d3b9f90d62a3826b90a150005a4304a30810000000000000000000000000000000000000000000000000000000000000000000000000000000000000000dac17f958d2ee523a2206206994597c13d831ec700000000000000000000000000000000000000000000000001c77498e1354aa700000000000000000000000000000000000000000000000001c77498e1354aa7000000000000000000000000000000000000000000000000000000001ddca74000000000000000000000000000000000000000000000000000000000000000000000000000000000000000000000000000000000000000000000000061cb270a0000000000000000000000000000000000000000000000000000000000000031000000000000000000000000000000000000000000000000000000000000000000000000000000000000000000000000000000000000000000000000000000010067616e64616c6674686562726f776e67786d786e69000ea3269f5b0fee000000000000000000000000000000000000000000000000000000000000000002000000000000000000000000000000000000000000000000000000000000000041577e332b406494ea3641a4a47d4c72c2e83d6f89bf53d22c245e820310a5ad512fef983eede067c5a05d4a440ec281bf11ddd9eb27e299f7b101408855faa6801b00000000000000000000000000000000000000000000000000000000000000",
                    "decodedMethod": null,
                    "errorInfo": "",
                    "fromAddress": "0x6ad3dac99c9a4a480748c566ce7b3503506e3d71",
                    "gasUsed": 67700,
                    "id": 1,
                    "methodDecoded": false,
                    "operation": "CALL",
                    "output": "",
                    "revert": false,
                    "revertMessage": "",
                    "selector": "0x58ca9a58",
                    "status": true,
                    "value": "0.128199314365565607"
                },
                "nodeType": 0
            },
            "2": {
                "invocation": {
                    "address": "0x86cd871dee303c177cdc993522861b23d00c442d",
                    "callData": "0x0000000000000000000000000000000000000000000000000000000000000020000000000000000000000000a344eaf353b7a32fc60c947583ccb5e5481a65ae0000000000000000000000000000000000000000000000000000000000000000000000000000000000000000951b1d3b9f90d62a3826b90a150005a4304a3081000000000000000000000000951b1d3b9f90d62a3826b90a150005a4304a30810000000000000000000000000000000000000000000000000000000000000000000000000000000000000000dac17f958d2ee523a2206206994597c13d831ec700000000000000000000000000000000000000000000000001c77498e1354aa700000000000000000000000000000000000000000000000001c77498e1354aa7000000000000000000000000000000000000000000000000000000001ddca74000000000000000000000000000000000000000000000000000000000000000000000000000000000000000000000000000000000000000000000000061cb270a0000000000000000000000000000000000000000000000000000000000000031000000000000000000000000000000000000000000000000000000000000000000000000000000000000000000000000000000000000000000000000000000010067616e64616c6674686562726f776e67786d786e69000ea3269f5b0fee000000000000000000000000000000000000000000000000000000000000000002000000000000000000000000000000000000000000000000000000000000000041577e332b406494ea3641a4a47d4c72c2e83d6f89bf53d22c245e820310a5ad512fef983eede067c5a05d4a440ec281bf11ddd9eb27e299f7b101408855faa6801b00000000000000000000000000000000000000000000000000000000000000",
                    "decodedMethod": null,
                    "errorInfo": "",
                    "fromAddress": "0xa344eaf353b7a32fc60c947583ccb5e5481a65ae",
                    "gasUsed": 64911,
                    "id": 2,
                    "methodDecoded": false,
                    "operation": "DELEGATECALL",
                    "output": "",
                    "revert": false,
                    "revertMessage": "",
                    "selector": "0x58ca9a58",
                    "status": true,
                    "value": "0.128199314365565607"
                },
                "nodeType": 0
            },
            "3": {
                "invocation": {
                    "address": "0x0000000000000000000000000000000000000001",
                    "callData": "0xf3e1912a6fd4d2669c20fbd419af46c8d9de7e634735811dbf938924000000000000000000000000000000000000000000000000000000000000001b577e332b406494ea3641a4a47d4c72c2e83d6f89bf53d22c245e820310a5ad512fef983eede067c5a05d4a440ec281bf11ddd9eb27e299f7b101408855faa680",
                    "decodedMethod": {
                        "callParams": [
                            {
                                "name": "hash",
                                "type": "bytes32",
                                "value": "0x66bb2d6df3e1912a6fd4d2669c20fbd419af46c8d9de7e634735811dbf938924"
                            },
                            {
                                "name": "v",
                                "type": "uint256",
                                "value": "27"
                            },
                            {
                                "name": "r",
                                "type": "bytes32",
                                "value": "0x577e332b406494ea3641a4a47d4c72c2e83d6f89bf53d22c245e820310a5ad51"
                            },
                            {
                                "name": "s",
                                "type": "bytes32",
                                "value": "0x2fef983eede067c5a05d4a440ec281bf11ddd9eb27e299f7b101408855faa680"
                            }
                        ],
                        "constructorArguments": "",
                        "name": "ecrecover",
                        "returnParams": [
                            {
                                "name": "",
                                "type": "address",
                                "value": "0x244abe1c84a8bf759a27e2a51fd3ee084eba69f7"
                            }
                        ],
                        "signature": "ecrecover(bytes32,uint256,bytes32,bytes32)"
                    },
                    "errorInfo": "",
                    "fromAddress": "0xa344eaf353b7a32fc60c947583ccb5e5481a65ae",
                    "gasUsed": 3000,
                    "id": 3,
                    "methodDecoded": true,
                    "operation": "STATICCALL",
                    "output": "0x000000000000000000000000244abe1c84a8bf759a27e2a51fd3ee084eba69f7",
                    "revert": false,
                    "revertMessage": "",
                    "selector": "0x66bb2d6d",
                    "status": true,
                    "value": "0"
                },
                "nodeType": 0
            },
            "4": {
                "invocation": {
                    "address": "0xdac17f958d2ee523a2206206994597c13d831ec7",
                    "callData": "0x000000000000000000000000951b1d3b9f90d62a3826b90a150005a4304a3081000000000000000000000000000000000000000000000000000000001ddca740",
                    "decodedMethod": {
                        "callParams": [
                            {
                                "name": "_to",
                                "type": "address",
                                "value": "0x951b1d3b9f90d62a3826b90a150005a4304a3081"
                            },
                            {
                                "decimalAvailable": true,
                                "name": "_value",
                                "type": "uint256",
                                "value": "501,000,000"
                            }
                        ],
                        "constructorArguments": "",
                        "name": "transfer",
                        "returnParams": [],
                        "signature": "transfer(address,uint256)"
                    },
                    "errorInfo": "",
                    "fromAddress": "0xa344eaf353b7a32fc60c947583ccb5e5481a65ae",
                    "gasUsed": 41601,
                    "id": 4,
                    "methodDecoded": true,
                    "operation": "CALL",
                    "output": "",
                    "revert": false,
                    "revertMessage": "",
                    "selector": "0xa9059cbb",
                    "status": true,
                    "value": "0"
                },
                "nodeType": 0
            },
            "5": {
                "event": {
                    "contract": "0xdac17f958d2ee523a2206206994597c13d831ec7",
                    "decodedLog": {
                        "name": "Transfer",
                        "params": [
                            {
                                "name": "from",
                                "type": "address",
                                "value": "0xa344eaf353b7a32fc60c947583ccb5e5481a65ae"
                            },
                            {
                                "name": "to",
                                "type": "address",
                                "value": "0x951b1d3b9f90d62a3826b90a150005a4304a3081"
                            },
                            {
                                "decimalAvailable": true,
                                "name": "value",
                                "type": "uint256",
                                "value": "501,000,000"
                            }
                        ],
                        "signature": "Transfer(address,address,uint256)"
                    },
                    "id": 5,
                    "logData": "0x000000000000000000000000000000000000000000000000000000001ddca740",
                    "logDecoded": true,
                    "operation": "EVENT",
                    "revert": false,
                    "status": true,
                    "topics": [
                        "0xddf252ad1be2c89b69c2b068fc378daa952ba7f163c4a11628f55a4df523b3ef",
                        "0x000000000000000000000000a344eaf353b7a32fc60c947583ccb5e5481a65ae",
                        "0x000000000000000000000000951b1d3b9f90d62a3826b90a150005a4304a3081"
                    ]
                },
                "nodeType": 1
            },
            "6": {
                "event": {
                    "contract": "0xa344eaf353b7a32fc60c947583ccb5e5481a65ae",
                    "decodedLog": null,
                    "id": 6,
                    "logData": "0x000000000000000000000000951b1d3b9f90d62a3826b90a150005a4304a30810067616e64616c6674686562726f776e67786d786e69000ea3269f5b0fee00000000000000000000000000000000000000000000000000000000000000000000000000000000000000000000dac17f958d2ee523a2206206994597c13d831ec700000000000000000000000000000000000000000000000001c77498e1354aa7000000000000000000000000000000000000000000000000000000001ddca740",
                    "logDecoded": false,
                    "operation": "EVENT",
                    "revert": false,
                    "status": true,
                    "topics": [
                        "0x8cf3dec1929508e5677d7db003124e74802bfba7250a572205a9986d86ca9f1e"
                    ]
                },
                "nodeType": 1
            }
        },
        "gasFlame": [
            {
                "children": [
                    {
                        "children": [
                            {
                                "children": [],
                                "depth": 0,
                                "name": "Initial Gas",
                                "value": 26152
                            },
                            {
                                "children": [
                                    {
                                        "children": [
                                            {
                                                "children": [
                                                    {
                                                        "children": [],
                                                        "depth": 3,
                                                        "name": "ecrecover",
                                                        "value": 3000
                                                    },
                                                    {
                                                        "children": [],
                                                        "depth": 3,
                                                        "name": "transfer",
                                                        "value": 41601
                                                    }
                                                ],
                                                "depth": 2,
                                                "name": "0x58ca9a58",
                                                "value": 64911
                                            }
                                        ],
                                        "depth": 1,
                                        "name": "0x58ca9a58",
                                        "value": 67700
                                    }
                                ],
                                "depth": 0,
                                "name": "Executed Gas",
                                "value": 80934
                            }
                        ],
                        "depth": -1,
                        "name": "Actual Gas Used",
                        "value": 107086
                    },
                    {
                        "children": [],
                        "depth": -1,
                        "name": "Refunded Gas",
                        "value": 0
                    }
                ],
                "depth": -2,
                "name": "Total Gas",
                "value": 107086
            }
        ],
        "isConfirmed": true,
        "mainTrace": [
            {
                "children": [
                    {
                        "children": [
                            {
                                "children": [
                                    {
                                        "children": [
                                            {
                                                "children": [],
                                                "depth": 3,
                                                "id": 3,
                                                "order": 3
                                            },
                                            {
                                                "children": [
                                                    {
                                                        "children": [],
                                                        "depth": 4,
                                                        "id": 5,
                                                        "order": 5
                                                    }
                                                ],
                                                "depth": 3,
                                                "id": 4,
                                                "order": 4
                                            },
                                            {
                                                "children": [],
                                                "depth": 3,
                                                "id": 6,
                                                "order": 6
                                            }
                                        ],
                                        "depth": 2,
                                        "id": 2,
                                        "order": 2
                                    }
                                ],
                                "depth": 1,
                                "id": 1,
                                "order": 1
                            }
                        ],
                        "depth": 0,
                        "id": 0,
                        "order": 0
                    }
                ],
                "depth": -1,
                "id": -1,
                "order": -1
            }
        ],
        "mainTraceNodeCount": 7,
        "parentIdMap": {
            "0": -1,
            "1": 0,
            "2": 1,
            "3": 2,
            "4": 2,
            "5": 4,
            "6": 2
        },
        "tidyTrace": [
            {
                "children": [
                    {
                        "children": [
                            {
                                "children": [
                                    {
                                        "children": [
                                            {
                                                "children": [
                                                    {
                                                        "children": [],
                                                        "depth": 4,
                                                        "id": 5,
                                                        "order": 5
                                                    }
                                                ],
                                                "depth": 3,
                                                "id": 4,
                                                "order": 4
                                            },
                                            {
                                                "children": [],
                                                "depth": 3,
                                                "id": 6,
                                                "order": 6
                                            }
                                        ],
                                        "depth": 2,
                                        "id": 2,
                                        "order": 2
                                    }
                                ],
                                "depth": 1,
                                "id": 1,
                                "order": 1
                            }
                        ],
                        "depth": 0,
                        "id": 0,
                        "order": 0
                    }
                ],
                "depth": -1,
                "id": -1,
                "order": -1
            }
        ],
        "tidyTraceNodeCount": 6
    },
    "state_change": {
        "stateChanges": [
            {
                "address": "0xa344eaf353b7a32fc60c947583ccb5e5481a65ae",
                "erc": "",
                "slots": [
                    {
                        "current": "0x2ba26cfbf4d7acef85dc6b11244abe1c84a8bf759a27e2a51fd3ee084eba69f7",
                        "key": "0x33d13c149959174817b07214f6faff3d4c1d39ff89c6e7f82e2df5f04c00a0ec",
                        "prev": "0x2ba26cfbf4d5acef85dc6b11244abe1c84a8bf759a27e2a51fd3ee084eba69f7"
                    }
                ],
                "storageVariables": []
            },
            {
                "address": "0xdac17f958d2ee523a2206206994597c13d831ec7",
                "erc": "ERC-20",
                "slots": [
                    {
                        "current": "0x000000000000000000000000000000000000000000000000000000001ddca740",
                        "key": "0x17bbb92c94e31b849082622cf19d6116c494fc8c7021f1812d6c8d6f7a1d3f57",
                        "prev": "0x0000000000000000000000000000000000000000000000000000000000000000"
                    },
                    {
                        "current": "0x00000000000000000000000000000000000000000000000000000035d5104b58",
                        "key": "0xc68c89e5896565f725c9c27793c358ea8947d46118c6e09a056096dd5002936b",
                        "prev": "0x00000000000000000000000000000000000000000000000000000035f2ecf298"
                    }
                ],
                "storageVariables": [
                    {
                        "name": "balances",
                        "type": "mapping(address => uint256)",
                        "value": {
                            "pairs": [
                                {
                                    "key": "0x951b1d3b9f90d62a3826b90a150005a4304a3081",
                                    "value": {
                                        "current": "501000000",
                                        "prev": "0",
                                        "typeTag": 1
                                    }
                                },
                                {
                                    "key": "0xa344eaf353b7a32fc60c947583ccb5e5481a65ae",
                                    "value": {
                                        "current": "231207881560",
                                        "prev": "231708881560",
                                        "typeTag": 1
                                    }
                                }
                            ],
                            "typeTag": 4
                        }
                    }
                ]
            }
        ]
    }
}