{
    "balance_change": {
        "balanceChanges": [
            {
                "account": "0xc963c2cd3376b6b22cacc9684bd38cbc2a14f4ac",
                "assets": [
                    {
                        "address": "0xc22d5443be3811ae6a9b3cdd2fa960230e6c63af",
                        "amount": "175,343,892,060,000,000,000",
                        "iconUrl": "",
                        "isERC1155": false,
                        "isERC721": false,
                        "sign": false,
                        "value": ""
                    }
                ]
            },
            {
                "account": "0xa0d0c06533336595a8d05025cfe94248680541ac",
                "assets": [
                    {
                        "address": "0xc22d5443be3811ae6a9b3cdd2fa960230e6c63af",
                        "amount": "175,343,892,060,000,000,000",
                        "iconUrl": "",
                        "isERC1155": false,
                        "isERC721": false,
                        "sign": true,
                        "value": ""
                    }
                ]
            }
        ]
    },
    "profile": {
        "basic_info": {
            "baseFee": "",
            "blockNumber": 9640759,
            "callData": "0x3ef13367000000000000000000000000c22d5443be3811ae6a9b3cdd2fa960230e6c63af",
            "debugEnable": true,
            "errorInfo": "",
            "eventCount": 2,
            "feeRecipient": "0xea674fdde714fd979de3edf0f56aa9716b898ec8",
            "formatValue": "0",
            "gasLimit": 200000,
            "gasPrice": "6",
            "gasUsed": 30985,
            "intTxnCount": 3,
            "internalRevert": false,
            "internalRevertMessage": "",
            "isContractCreation": false,
            "isFlashloan": false,
            "maxFee": "",
            "nonce": 6889,
            "overwritedBlockNumber": -1,
            "priorityFee": "",
            "receiver": "0xc963c2cd3376b6b22cacc9684bd38cbc2a14f4ac",
            "revertMessage": "",
            "sender": "0x3adc791ea350cb79fdfd80553bbfb05d909f0b05",
            "simulationEnable": true,
            "sourceTxnHash": "0xec280c56d67d60d568831560102352fd8ef85ce99b0dc1acc726859b1738848d",
            "status": true,
            "timestamp": "2020-03-10T01:28:47Z",
            "transactionFee": "0.00018591",
            "txnHash": "0xec280c56d67d60d568831560102352fd8ef85ce99b0dc1acc726859b1738848d",
            "txnIndex": 42,
            "type": 0,
            "value": "0"
        },
        "fund_flow": [
            {
                "amount": "175,343,892,060,000,000,000",
                "from": "0xc963c2cd3376b6b22cacc9684bd38cbc2a14f4ac",
                "id": 1,
                "isERC1155": false,
                "isERC721": false,
                "isReverted": false,
                "order": 1,
                "to": "0xa0d0c06533336595a8d05025cfe94248680541ac",
                "token": "0xc22d5443be3811ae6a9b3cdd2fa960230e6c63af"
            }
        ],
        "token_infos": [
            {
                "address": "0xc02aaa39b223fe8d0a0e5c4f27ead9083c756cc2",
                "decimals": 18
            },
            {
                "address": "0xeeeeeeeeeeeeeeeeeeeeeeeeeeeeeeeeeeeeeeee",
                "decimals": 18
            }
        ]
    },
    "address_label": {
        "labels": [
            {
                "address": "0x0000000000000000000000000000000000000003",
                "label": "Precompiled"
            },
            {
                "address": "0x0000000000000000000000000000000000000004",
                "label": "Precompiled"
            },
            {
                "address": "0xeeeeeeeeeeeeeeeeeeeeeeeeeeeeeeeeeeeeeeee",
                "label": "Ether"
            },
            {
                "address": "0xc22d5443be3811ae6a9b3cdd2fa960230e6c63af",
                "label": "PANGAEA_Token"
            },
            {
                "address": "0x0000000000000000000000000000000000000001",
                "label": "Precompiled"
            },
            {
                "address": "0x0000000000000000000000000000000000000002",
                "label": "Precompiled"
            }
        ]
    },
    "trace": {
        "accountLabels": null,
        "dataMap": {
            "-1": {
                "invocation": {
                    "address": "0x3adc791ea350cb79fdfd80553bbfb05d909f0b05",
                    "callData": "",
                    "decodedMethod": null,
                    "errorInfo": "",
                    "fromAddress": "",
                    "gasUsed": 0,
                    "id": -1,
                    "methodDecoded": false,
                    "operation": "",
                    "output": "",
                    "revert": false,
                    "revertMessage": "",
                    "selector": "",
                    "status": false,
                    "value": ""
                },
                "nodeType": 0
            },
            "0": {
                "invocation": {
                    "address": "0xc963c2cd3376b6b22cacc9684bd38cbc2a14f4ac",
                    "callData": "0x000000000000000000000000c22d5443be3811ae6a9b3cdd2fa960230e6c63af",
                    "decodedMethod": {
                        "callParams": [
                            {
                                "name": "tokenContractAddress",
                                "type": "address",
                                "value": "0xc22d5443be3811ae6a9b3cdd2fa960230e6c63af"
                            }
                        ],
                        "constructorArguments": "",
                        "name": "flushTokens",
                        "returnParams": [],
                        "signature": "flushTokens(address)"
                    },
                    "errorInfo": "",
                    "fromAddress": "0x3adc791ea350cb79fdfd80553bbfb05d909f0b05",
                    "gasUsed": 30985,
                    "id": 0,
                    "methodDecoded": true,
                    "operation": "CALL",
                    "output": "",
                    "revert": false,
                    "revertMessage": "",
                    "selector": "0x3ef13367",
                    "status": true,
                    "value": "0"
                },
                "nodeType": 0
            },
            "1": {
                "invocation": {
                    "address": "0x7afb99f7f15a9fb7551d8ff50e66544a05a8a3c1",
                    "callData": "0x000000000000000000000000c22d5443be3811ae6a9b3cdd2fa960230e6c63af",
                    "decodedMethod": {
                        "callParams": [
                            {
                                "name": "tokenContractAddress",
                                "type": "address",
                                "value": "0xc22d5443be3811ae6a9b3cdd2fa960230e6c63af"
                            }
                        ],
                        "constructorArguments": "",
                        "name": "flushTokens",
                        "returnParams": [],
                        "signature": "flushTokens(address)"
                    },
                    "errorInfo": "",
                    "fromAddress": "0xc963c2cd3376b6b22cacc9684bd38cbc2a14f4ac",
                    "gasUsed": 23730,
                    "id": 1,
                    "methodDecoded": true,
                    "operation": "DELEGATECALL",
                    "output": "",
                    "revert": false,
                    "revertMessage": "",
                    "selector": "0x3ef13367",
                    "status": true,
                    "value": "0"
                },
                "nodeType": 0
            },
            "2": {
                "invocation": {
                    "address": "0xc22d5443be3811ae6a9b3cdd2fa960230e6c63af",
                    "callData": "0x000000000000000000000000c963c2cd3376b6b22cacc9684bd38cbc2a14f4ac",
                    "decodedMethod": {
                        "callParams": [
                            {
                                "name": "owner",
                                "type": "address",
                                "value": "0xc963c2cd3376b6b22cacc9684bd38cbc2a14f4ac"
                            }
                        ],
                        "constructorArguments": "",
                        "name": "balanceOf",
                        "returnParams": [
                            {
                                "decimalAvailable": true,
                                "name": "",
                                "type": "uint256",
                                "value": "175,343,892,060,000,000,000"
                            }
                        ],
                        "signature": "balanceOf(address)"
                    },
                    "errorInfo": "",
                    "fromAddress": "0xc963c2cd3376b6b22cacc9684bd38cbc2a14f4ac",
                    "gasUsed": 1357,
                    "id": 2,
                    "methodDecoded": true,
                    "operation": "STATICCALL",
                    "output": "0x0000000000000000000000000000000000000000000000098162a4d11abc9800",
                    "revert": false,
                    "revertMessage": "",
                    "selector": "0x70a08231",
                    "status": true,
                    "value": "0"
                },
                "nodeType": 0
            },
            "3": {
                "invocation": {
                    "address": "0xc22d5443be3811ae6a9b3cdd2fa960230e6c63af",
                    "callData": "0x000000000000000000000000a0d0c06533336595a8d05025cfe94248680541ac0000000000000000000000000000000000000000000000098162a4d11abc9800",
                    "decodedMethod": {
                        "callParams": [
                            {
                                "name": "to",
                                "type": "address",
                                "value": "0xa0d0c06533336595a8d05025cfe94248680541ac"
                            },
                            {
                                "decimalAvailable": true,
                                "name": "value",
                                "type": "uint256",
                                "value": "175,343,892,060,000,000,000"
                            }
                        ],
                        "constructorArguments": "",
                        "name": "transfer",
                        "returnParams": [
                            {
                                "name": "",
                                "type": "bool",
                                "value": true
                            }
                        ],
                        "signature": "transfer(address,uint256)"
                    },
                    "errorInfo": "",
                    "fromAddress": "0xc963c2cd3376b6b22cacc9684bd38cbc2a14f4ac",
                    "gasUsed": 15689,
                    "id": 3,
                    "methodDecoded": true,
                    "operation": "CALL",
                    "output": "0x0000000000000000000000000000000000000000000000000000000000000001",
                    "revert": false,
                    "revertMessage": "",
                    "selector": "0xa9059cbb",
                    "status": true,
                    "value": "0"
                },
                "nodeType": 0
            },
            "4": {
                "event": {
                    "contract": "0xc22d5443be3811ae6a9b3cdd2fa960230e6c63af",
                    "decodedLog": {
                        "name": "Transfer",
                        "params": [
                            {
                                "name": "from",
                                "type": "address",
                                "value": "0xc963c2cd3376b6b22cacc9684bd38cbc2a14f4ac"
                            },
                            {
                                "name": "to",
                                "type": "address",
                                "value": "0xa0d0c06533336595a8d05025cfe94248680541ac"
                            },
                            {
                                "decimalAvailable": true,
                                "name": "value",
                                "type": "uint256",
                                "value": "175,343,892,060,000,000,000"
                            }
                        ],
                        "signature": "Transfer(address,address,uint256)"
                    },
                    "id": 4,
                    "logData": "0x0000000000000000000000000000000000000000000000098162a4d11abc9800",
                    "logDecoded": true,
                    "operation": "EVENT",
                    "revert": false,
                    "status": true,
                    "topics": [
                        "0xddf252ad1be2c89b69c2b068fc378daa952ba7f163c4a11628f55a4df523b3ef",
                        "0x000000000000000000000000c963c2cd3376b6b22cacc9684bd38cbc2a14f4ac",
                        "0x000000000000000000000000a0d0c06533336595a8d05025cfe94248680541ac"
                    ]
                },
                "nodeType": 1
            },
            "5": {
                "event": {
                    "contract": "0xc963c2cd3376b6b22cacc9684bd38cbc2a14f4ac",
                    "decodedLog": null,
                    "id": 5,
                    "logData": "0x000000000000000000000000a0d0c06533336595a8d05025cfe94248680541ac0000000000000000000000000000000000000000000000098162a4d11abc9800",
                    "logDecoded": false,
                    "operation": "EVENT",
                    "revert": false,
                    "status": true,
                    "topics": [
                        "0x19edbdde7715c4ce8a0a9e85fa9fcfa9867c1f5330ebf18b31ba53cb1815d5bd"
                    ]
                },
                "nodeType": 1
            }
        },
        "gasFlame": [
            {
                "children": [
                    {
                        "children": [
                            {
                                "children": [],
                                "depth": 0,
                                "name": "Initial Gas",
                                "value": 21432
                            },
                            {
                                "children": [
                                    {
                                        "children": [
                                            {
                                                "children": [],
                                                "depth": 2,
                                                "name": "balanceOf",
                                                "value": 1357
                                            },
                                            {
                                                "children": [],
                                                "depth": 2,
                                                "name": "transfer",
                                                "value": 15689
                                            }
                                        ],
                                        "depth": 1,
                                        "name": "flushTokens",
                                        "value": 23730
                                    }
                                ],
                                "depth": 0,
                                "name": "Executed Gas",
                                "value": 24553
                            }
                        ],
                        "depth": -1,
                        "name": "Actual Gas Used",
                        "value": 30985
                    },
                    {
                        "children": [],
                        "depth": -1,
                        "name": "Refunded Gas",
                        "value": 15000
                    }
                ],
                "depth": -2,
                "name": "Total Gas",
                "value": 45985
            }
        ],
        "isConfirmed": true,
        "mainTrace": [
            {
                "children": [
                    {
                        "children": [
                            {
                                "children": [
                                    {
                                        "children": [],
                                        "depth": 2,
                                        "id": 2,
                                        "order": 2
                                    },
                                    {
                                        "children": [
                                            {
                                                "children": [],
                                                "depth": 3,
                                                "id": 4,
                                                "order": 4
                                            }
                                        ],
                                        "depth": 2,
                                        "id": 3,
                                        "order": 3
                                    },
                                    {
                                        "children": [],
                                        "depth": 2,
                                        "id": 5,
                                        "order": 5
                                    }
                                ],
                                "depth": 1,
                                "id": 1,
                                "order": 1
                            }
                        ],
                        "depth": 0,
                        "id": 0,
                        "order": 0
                    }
                ],
                "depth": -1,
                "id": -1,
                "order": -1
            }
        ],
        "mainTraceNodeCount": 6,
        "parentIdMap": {
            "0": -1,
            "1": 0,
            "2": 1,
            "3": 1,
            "4": 3,
            "5": 1
        },
        "tidyTrace": [
            {
                "children": [
                    {
                        "children": [
                            {
                                "children": [
                                    {
                                        "children": [
                                            {
                                                "children": [],
                                                "depth": 3,
                                                "id": 4,
                                                "order": 4
                                            }
                                        ],
                                        "depth": 2,
                                        "id": 3,
                                        "order": 3
                                    },
                                    {
                                        "children": [],
                                        "depth": 2,
                                        "id": 5,
                                        "order": 5
                                    }
                                ],
                                "depth": 1,
                                "id": 1,
                                "order": 1
                            }
                        ],
                        "depth": 0,
                        "id": 0,
                        "order": 0
                    }
                ],
                "depth": -1,
                "id": -1,
                "order": -1
            }
        ],
        "tidyTraceNodeCount": 5
    },
    "state_change": {
        "stateChanges": [
            {
                "address": "0xc22d5443be3811ae6a9b3cdd2fa960230e6c63af",
                "erc": "ERC-20",
                "slots": [
                    {
                        "current": "0x000000000000000000000000000000000000000000006f636e021ebf8a6fe400",
                        "key": "0xe0dfbcb9daf0cf3113e60cb7fb6a4cfe64c0d14eb2723f336cc86086619a6517",
                        "prev": "0x000000000000000000000000000000000000000000006f59ec9f79ee6fb34c00"
                    },
                    {
                        "current": "0x0000000000000000000000000000000000000000000000000000000000000000",
                        "key": "0xe01929f71f763d3dc254e7459dac836c03e1075ba14b0c96753b88e5eb6c6aec",
                        "prev": "0x0000000000000000000000000000000000000000000000098162a4d11abc9800"
                    }
                ],
                "storageVariables": [
                    {
                        "name": "_balances",
                        "type": "mapping(address => uint256)",
                        "value": {
                            "pairs": [
                                {
                                    "key": "0xa0d0c06533336595a8d05025cfe94248680541ac",
                                    "value": {
                                        "current": "526016834193930000000000",
                                        "prev": "525841490301870000000000",
                                        "typeTag": 1
                                    }
                                },
                                {
                                    "key": "0xc963c2cd3376b6b22cacc9684bd38cbc2a14f4ac",
                                    "value": {
                                        "current": "0",
                                        "prev": "175343892060000000000",
                                        "typeTag": 1
                                    }
                                }
                            ],
                            "typeTag": 4
                        }
                    }
                ]
            }
        ]
    }
}