{
    "balance_change": {
        "balanceChanges": []
    },
    "profile": {
        "basic_info": {
            "baseFee": "",
            "blockNumber": 5745407,
            "callData": "0xef343588000000000000000000000000000000000000000000000045702bca32b2050ec000000000000000000000000000000000000000000000000015bbae20d4a3c468000000000000000000000000000000000000000000000000000000000000271000000000000000000000000000000000000000000000000000000163d73b53d2000000000000000000000000000000000000000000000045702bca32b2050ec000000000000000000000000000000000000000000000000000000000000004fa00000000000000000000000000000000000000000000000000038d7ea4c68000000000000000000000000000000000000000000000000000000c1e793861b362000000000000000000000000e25bcec5d3801ce3a794079bf94adf1b8ccd802d00000000000000000000000000000000000000000000000000000000000000000000000000000000000000000bea69cdd1828142f0b9927b67635befc143c5ba000000000000000000000000e67930d1a25f4c957e03899d5387288fd29216d2000000000000000000000000000000000000000000000000000000000000001b000000000000000000000000000000000000000000000000000000000000001be32a427cfd5b4045a350e80156581689086f65203f91b1a2f4f4fa2f57b97b40346ff5afc94e5aae1f2bfa9364523c6781bb1d2d1b4a581b3aa92962e837ce741e7c523d648631f1a7b93647231b4b351b78f7020167d324909629c8d8b7136a6c3b51ffd59846542c6b8f4b6a2e0f38c10a2f4468cc273d1c09012b47aab25a",
            "debugEnable": true,
            "errorInfo": "",
            "eventCount": 0,
            "feeRecipient": "0x829bd824b016326a401d083b33d092293333a830",
            "formatValue": "0",
            "gasLimit": 210000,
            "gasPrice": "10",
            "gasUsed": 143156,
            "intTxnCount": 2,
            "internalRevert": false,
            "internalRevertMessage": "",
            "isContractCreation": false,
            "isFlashloan": false,
            "maxFee": "",
            "nonce": 217448,
            "overwritedBlockNumber": -1,
            "priorityFee": "",
            "receiver": "0x2a0c0dbecc7e4d658f48e01e3fa353f44050c208",
            "revertMessage": "",
            "sender": "0xa7a7899d944fe658c4b0a1803bab2f490bd3849e",
            "simulationEnable": true,
            "sourceTxnHash": "0xec108fb8546ddd4c8838fa8c3448b3b42a99e1a02fa7880bbfd8812dcb175769",
            "status": true,
            "timestamp": "2018-06-07T02:44:33Z",
            "transactionFee": "0.00143156",
            "txnHash": "0xec108fb8546ddd4c8838fa8c3448b3b42a99e1a02fa7880bbfd8812dcb175769",
            "txnIndex": 32,
            "type": 0,
            "value": "0"
        },
        "fund_flow": [],
        "token_infos": [
            {
                "address": "0xc02aaa39b223fe8d0a0e5c4f27ead9083c756cc2",
                "decimals": 18
            },
            {
                "address": "0xeeeeeeeeeeeeeeeeeeeeeeeeeeeeeeeeeeeeeeee",
                "decimals": 18
            }
        ]
    },
    "address_label": {
        "labels": [
            {
                "address": "0x0000000000000000000000000000000000000003",
                "label": "Precompiled"
            },
            {
                "address": "0x2a0c0dbecc7e4d658f48e01e3fa353f44050c208",
                "label": "IDEX"
            },
            {
                "address": "0x0000000000000000000000000000000000000001",
                "label": "Precompiled"
            },
            {
                "address": "0x0000000000000000000000000000000000000002",
                "label": "Precompiled"
            },
            {
                "address": "0x0000000000000000000000000000000000000000",
                "label": "Null Address"
            },
            {
                "address": "0x0000000000000000000000000000000000000004",
                "label": "Precompiled"
            },
            {
                "address": "0xeeeeeeeeeeeeeeeeeeeeeeeeeeeeeeeeeeeeeeee",
                "label": "Ether"
            },
            {
                "address": "0xa7a7899d944fe658c4b0a1803bab2f490bd3849e",
                "label": "IDEX 2"
            },
            {
                "address": "0xe25bcec5d3801ce3a794079bf94adf1b8ccd802d",
                "label": "MATRIX AI Network: Old Token"
            }
        ]
    },
    "trace": {
        "accountLabels": null,
        "dataMap": {
            "-1": {
                "invocation": {
                    "address": "0xa7a7899d944fe658c4b0a1803bab2f490bd3849e",
                    "callData": "",
                    "decodedMethod": null,
                    "errorInfo": "",
                    "fromAddress": "",
                    "gasUsed": 0,
                    "id": -1,
                    "methodDecoded": false,
                    "operation": "",
                    "output": "",
                    "revert": false,
                    "revertMessage": "",
                    "selector": "",
                    "status": false,
                    "value": ""
                },
                "nodeType": 0
            },
            "0": {
                "invocation": {
                    "address": "0x2a0c0dbecc7e4d658f48e01e3fa353f44050c208",
                    "callData": "0x000000000000000000000000000000000000000000000045702bca32b2050ec000000000000000000000000000000000000000000000000015bbae20d4a3c468000000000000000000000000000000000000000000000000000000000000271000000000000000000000000000000000000000000000000000000163d73b53d2000000000000000000000000000000000000000000000045702bca32b2050ec000000000000000000000000000000000000000000000000000000000000004fa00000000000000000000000000000000000000000000000000038d7ea4c68000000000000000000000000000000000000000000000000000000c1e793861b362000000000000000000000000e25bcec5d3801ce3a794079bf94adf1b8ccd802d00000000000000000000000000000000000000000000000000000000000000000000000000000000000000000bea69cdd1828142f0b9927b67635befc143c5ba000000000000000000000000e67930d1a25f4c957e03899d5387288fd29216d2000000000000000000000000000000000000000000000000000000000000001b000000000000000000000000000000000000000000000000000000000000001be32a427cfd5b4045a350e80156581689086f65203f91b1a2f4f4fa2f57b97b40346ff5afc94e5aae1f2bfa9364523c6781bb1d2d1b4a581b3aa92962e837ce741e7c523d648631f1a7b93647231b4b351b78f7020167d324909629c8d8b7136a6c3b51ffd59846542c6b8f4b6a2e0f38c10a2f4468cc273d1c09012b47aab25a",
                    "decodedMethod": {
                        "callParams": [
                            {
                                "name": "tradeValues",
                                "type": "uint256[8]",
                                "value": [
                                    "1,280,908,117,361,289,400,000",
                                    "1,566,036,751,471,068,264",
                                    "10,000",
                                    "1,528,324,379,602",
                                    "1,280,908,117,361,289,400,000",
                                    "1,274",
                                    "1,000,000,000,000,000",
                                    "3,411,205,706,330,978"
                                ]
                            },
                            {
                                "name": "tradeAddresses",
                                "type": "address[4]",
                                "value": [
                                    "0xe25bcec5d3801ce3a794079bf94adf1b8ccd802d",
                                    "0x0000000000000000000000000000000000000000",
                                    "0x0bea69cdd1828142f0b9927b67635befc143c5ba",
                                    "0xe67930d1a25f4c957e03899d5387288fd29216d2"
                                ]
                            },
                            {
                                "name": "v",
                                "type": "uint8[2]",
                                "value": [
                                    "27",
                                    "27"
                                ]
                            },
                            {
                                "name": "rs",
                                "type": "bytes32[4]",
                                "value": [
                                    "0xe32a427cfd5b4045a350e80156581689086f65203f91b1a2f4f4fa2f57b97b40",
                                    "0x346ff5afc94e5aae1f2bfa9364523c6781bb1d2d1b4a581b3aa92962e837ce74",
                                    "0x1e7c523d648631f1a7b93647231b4b351b78f7020167d324909629c8d8b7136a",
                                    "0x6c3b51ffd59846542c6b8f4b6a2e0f38c10a2f4468cc273d1c09012b47aab25a"
                                ]
                            }
                        ],
                        "constructorArguments": "",
                        "name": "trade",
                        "returnParams": [
                            {
                                "name": "success",
                                "type": "bool",
                                "value": false
                            }
                        ],
                        "signature": "trade(uint256[8],address[4],uint8[2],bytes32[4])"
                    },
                    "errorInfo": "",
                    "fromAddress": "0xa7a7899d944fe658c4b0a1803bab2f490bd3849e",
                    "gasUsed": 143156,
                    "id": 0,
                    "methodDecoded": true,
                    "operation": "CALL",
                    "output": "0x0000000000000000000000000000000000000000000000000000000000000000",
                    "revert": false,
                    "revertMessage": "",
                    "selector": "0xef343588",
                    "status": true,
                    "value": "0"
                },
                "nodeType": 0
            },
            "1": {
                "invocation": {
                    "address": "0x0000000000000000000000000000000000000001",
                    "callData": "0x4e40e5d3e31a618f984d38d50df89d0ea7bf7d78386ec41299eca8ce000000000000000000000000000000000000000000000000000000000000001be32a427cfd5b4045a350e80156581689086f65203f91b1a2f4f4fa2f57b97b40346ff5afc94e5aae1f2bfa9364523c6781bb1d2d1b4a581b3aa92962e837ce74",
                    "decodedMethod": {
                        "callParams": [
                            {
                                "name": "hash",
                                "type": "bytes32",
                                "value": "0xfd8d9a4d4e40e5d3e31a618f984d38d50df89d0ea7bf7d78386ec41299eca8ce"
                            },
                            {
                                "name": "v",
                                "type": "uint256",
                                "value": "27"
                            },
                            {
                                "name": "r",
                                "type": "bytes32",
                                "value": "0xe32a427cfd5b4045a350e80156581689086f65203f91b1a2f4f4fa2f57b97b40"
                            },
                            {
                                "name": "s",
                                "type": "bytes32",
                                "value": "0x346ff5afc94e5aae1f2bfa9364523c6781bb1d2d1b4a581b3aa92962e837ce74"
                            }
                        ],
                        "constructorArguments": "",
                        "name": "ecrecover",
                        "returnParams": [
                            {
                                "name": "",
                                "type": "address",
                                "value": "0x0bea69cdd1828142f0b9927b67635befc143c5ba"
                            }
                        ],
                        "signature": "ecrecover(bytes32,uint256,bytes32,bytes32)"
                    },
                    "errorInfo": "",
                    "fromAddress": "0x2a0c0dbecc7e4d658f48e01e3fa353f44050c208",
                    "gasUsed": 3000,
                    "id": 1,
                    "methodDecoded": true,
                    "operation": "CALL",
                    "output": "0x0000000000000000000000000bea69cdd1828142f0b9927b67635befc143c5ba",
                    "revert": false,
                    "revertMessage": "",
                    "selector": "0xfd8d9a4d",
                    "status": true,
                    "value": "0"
                },
                "nodeType": 0
            },
            "2": {
                "invocation": {
                    "address": "0x0000000000000000000000000000000000000001",
                    "callData": "0x8493efebe498eab67baaf89a24635e94a21ade8b323754307080d47e000000000000000000000000000000000000000000000000000000000000001b1e7c523d648631f1a7b93647231b4b351b78f7020167d324909629c8d8b7136a6c3b51ffd59846542c6b8f4b6a2e0f38c10a2f4468cc273d1c09012b47aab25a",
                    "decodedMethod": {
                        "callParams": [
                            {
                                "name": "hash",
                                "type": "bytes32",
                                "value": "0xf309ef938493efebe498eab67baaf89a24635e94a21ade8b323754307080d47e"
                            },
                            {
                                "name": "v",
                                "type": "uint256",
                                "value": "27"
                            },
                            {
                                "name": "r",
                                "type": "bytes32",
                                "value": "0x1e7c523d648631f1a7b93647231b4b351b78f7020167d324909629c8d8b7136a"
                            },
                            {
                                "name": "s",
                                "type": "bytes32",
                                "value": "0x6c3b51ffd59846542c6b8f4b6a2e0f38c10a2f4468cc273d1c09012b47aab25a"
                            }
                        ],
                        "constructorArguments": "",
                        "name": "ecrecover",
                        "returnParams": [
                            {
                                "name": "",
                                "type": "address",
                                "value": "0xe67930d1a25f4c957e03899d5387288fd29216d2"
                            }
                        ],
                        "signature": "ecrecover(bytes32,uint256,bytes32,bytes32)"
                    },
                    "errorInfo": "",
                    "fromAddress": "0x2a0c0dbecc7e4d658f48e01e3fa353f44050c208",
                    "gasUsed": 3000,
                    "id": 2,
                    "methodDecoded": true,
                    "operation": "CALL",
                    "output": "0x000000000000000000000000e67930d1a25f4c957e03899d5387288fd29216d2",
                    "revert": false,
                    "revertMessage": "",
                    "selector": "0xf309ef93",
                    "status": true,
                    "value": "0"
                },
                "nodeType": 0
            }
        },
        "gasFlame": [
            {
                "children": [
                    {
                        "children": [
                            {
                                "children": [],
                                "depth": 0,
                                "name": "Initial Gas",
                                "value": 38872
                            },
                            {
                                "children": [
                                    {
                                        "children": [],
                                        "depth": 1,
                                        "name": "ecrecover",
                                        "value": 3000
                                    },
                                    {
                                        "children": [],
                                        "depth": 1,
                                        "name": "ecrecover",
                                        "value": 3000
                                    }
                                ],
                                "depth": 0,
                                "name": "Executed Gas",
                                "value": 104284
                            }
                        ],
                        "depth": -1,
                        "name": "Actual Gas Used",
                        "value": 143156
                    },
                    {
                        "children": [],
                        "depth": -1,
                        "name": "Refunded Gas",
                        "value": 0
                    }
                ],
                "depth": -2,
                "name": "Total Gas",
                "value": 143156
            }
        ],
        "isConfirmed": true,
        "mainTrace": [
            {
                "children": [
                    {
                        "children": [
                            {
                                "children": [],
                                "depth": 1,
                                "id": 1,
                                "order": 1
                            },
                            {
                                "children": [],
                                "depth": 1,
                                "id": 2,
                                "order": 2
                            }
                        ],
                        "depth": 0,
                        "id": 0,
                        "order": 0
                    }
                ],
                "depth": -1,
                "id": -1,
                "order": -1
            }
        ],
        "mainTraceNodeCount": 3,
        "parentIdMap": {
            "0": -1,
            "1": 0,
            "2": 0
        },
        "tidyTrace": [
            {
                "children": [
                    {
                        "children": [
                            {
                                "children": [],
                                "depth": 1,
                                "id": 1,
                                "order": 1
                            },
                            {
                                "children": [],
                                "depth": 1,
                                "id": 2,
                                "order": 2
                            }
                        ],
                        "depth": 0,
                        "id": 0,
                        "order": 0
                    }
                ],
                "depth": -1,
                "id": -1,
                "order": -1
            }
        ],
        "tidyTraceNodeCount": 3
    },
    "state_change": {
        "stateChanges": [
            {
                "address": "0x2a0c0dbecc7e4d658f48e01e3fa353f44050c208",
                "erc": "",
                "slots": [
                    {
                        "current": "0x00000000000000000000000000000000000000000000006d4fb228901598ba6f",
                        "key": "0x3ccb72d91c5c66cba135a4135963ed23443b8a63817f501517468fcd5097e277",
                        "prev": "0x00000000000000000000000000000000000000000000006d4f9f2df9ac16f6b8"
                    },
                    {
                        "current": "0x000000000000000000000000000000000000000000000000000000000057aaff",
                        "key": "0xafc090420b3ae1d8b452977e882fb447375ff9704f49d85ceda5800387772757",
                        "prev": "0x000000000000000000000000000000000000000000000000000000000057a799"
                    },
                    {
                        "current": "0x00000000000000000000000000000000000000000000000015a8b38a6b2200b1",
                        "key": "0x70c6070890a36a272ab7564ac88d7a481d934cfbd2501e461e8dbbcf6af02e23",
                        "prev": "0x0000000000000000000000000000000000000000000000000000000000000001"
                    },
                    {
                        "current": "0x0000000000000000000000000000000000000000000000000000000000000001",
                        "key": "0xd59e03ba3c10fbd63812606af5cbb671d1df6665d2f1038e03fa242e0fd285fc",
                        "prev": "0x0000000000000000000000000000000000000000000000000000000000000000"
                    },
                    {
                        "current": "0x000000000000000000000000000000000000000000000001969313ee2d198be7",
                        "key": "0xedbe696664944fb4afcb4ac316640e26d4472bae3d4c10c574be7a9263a164f3",
                        "prev": "0x000000000000000000000000000000000000000000000001ac4ec20f01bd504f"
                    },
                    {
                        "current": "0x000000000000000000000000000000000000000000000045702bca32b2050ec0",
                        "key": "0x927c28df45b24b4d376e3e19df6a03df770fb71320465f6fe2b6938dce11f8ce",
                        "prev": "0x0000000000000000000000000000000000000000000000000000000000000000"
                    },
                    {
                        "current": "0x000000000000000000000000000000000000000000000000000000000057aaff",
                        "key": "0xd0d8e8a86a21d388100e5651f125acd149771dd18663a63fee239e2dd363daa3",
                        "prev": "0x0000000000000000000000000000000000000000000000000000000000579bc5"
                    },
                    {
                        "current": "0x00000000000000000000000000000000000000000000023b31996100ac9739c6",
                        "key": "0x608b783641b237ec64b4e6b0b8fad6b5e648238914b90cb76f23ed177558f407",
                        "prev": "0x000000000000000000000000000000000000000000000280a1c52b335e9c4886"
                    },
                    {
                        "current": "0x00000000000000000000000000000000000000000000007fc3394a53573e6d2a",
                        "key": "0xe707d1cd61346fa4206d0ce1f516adce135c9590396a2a096b8bb47c65a74d43",
                        "prev": "0x00000000000000000000000000000000000000000000003a64d4334612754722"
                    },
                    {
                        "current": "0x0000000000000000000000000000000000000000000000699e85cd711815304e",
                        "key": "0x7b5a1564889376522b983daf4bbdc54e8096ebab6bf1e2eec4528dc7939dd8b4",
                        "prev": "0x0000000000000000000000000000000000000000000000698cbf1a4baad94796"
                    }
                ],
                "storageVariables": [
                    {
                        "name": "traded",
                        "type": "mapping(bytes32 => bool)",
                        "value": {
                            "pairs": [
                                {
                                    "key": "0xe46b8f26f8bb826473a3eb05efdf96f7c5ab2c80d22585452d3ba8f1d8e345f0",
                                    "value": {
                                        "current": "true",
                                        "prev": "false",
                                        "typeTag": 1
                                    }
                                }
                            ],
                            "typeTag": 4
                        }
                    },
                    {
                        "name": "orderFills",
                        "type": "mapping(bytes32 => uint256)",
                        "value": {
                            "pairs": [
                                {
                                    "key": "0x30c8856e366c858ed96b5d5d6dff91398bae7b0da92b7d4e93630de3d4a1fb91",
                                    "value": {
                                        "current": "1280908117361289400000",
                                        "prev": "0",
                                        "typeTag": 1
                                    }
                                }
                            ],
                            "typeTag": 4
                        }
                    },
                    {
                        "name": "tokens",
                        "type": "mapping(address => mapping(address => uint256))",
                        "value": {
                            "pairs": [
                                {
                                    "key": "0x0000000000000000000000000000000000000000",
                                    "value": {
                                        "pairs": [
                                            {
                                                "key": "0x034767f3c519f361c5ecf46ebfc08981c629d381",
                                                "value": {
                                                    "current": "2016437801108494662255",
                                                    "prev": "2016432459034991720120",
                                                    "typeTag": 1
                                                }
                                            },
                                            {
                                                "key": "0x0bea69cdd1828142f0b9927b67635befc143c5ba",
                                                "value": {
                                                    "current": "29296781914655001575",
                                                    "prev": "30862818666126069839",
                                                    "typeTag": 1
                                                }
                                            },
                                            {
                                                "key": "0xe67930d1a25f4c957e03899d5387288fd29216d2",
                                                "value": {
                                                    "current": "1560694677968126129",
                                                    "prev": "1",
                                                    "typeTag": 1
                                                }
                                            }
                                        ],
                                        "typeTag": 4
                                    }
                                },
                                {
                                    "key": "0xe25bcec5d3801ce3a794079bf94adf1b8ccd802d",
                                    "value": {
                                        "pairs": [
                                            {
                                                "key": "0x034767f3c519f361c5ecf46ebfc08981c629d381",
                                                "value": {
                                                    "current": "1948330889655017091150",
                                                    "prev": "1947049981537655801750",
                                                    "typeTag": 1
                                                }
                                            },
                                            {
                                                "key": "0x0bea69cdd1828142f0b9927b67635befc143c5ba",
                                                "value": {
                                                    "current": "2356803853993987960106",
                                                    "prev": "1077176644750059849506",
                                                    "typeTag": 1
                                                }
                                            },
                                            {
                                                "key": "0xe67930d1a25f4c957e03899d5387288fd29216d2",
                                                "value": {
                                                    "current": "10536664860522972658118",
                                                    "prev": "11817572977884262058118",
                                                    "typeTag": 1
                                                }
                                            }
                                        ],
                                        "typeTag": 4
                                    }
                                }
                            ],
                            "typeTag": 4
                        }
                    },
                    {
                        "name": "lastActiveTransaction",
                        "type": "mapping(address => uint256)",
                        "value": {
                            "pairs": [
                                {
                                    "key": "0x0bea69cdd1828142f0b9927b67635befc143c5ba",
                                    "value": {
                                        "current": "5745407",
                                        "prev": "5744537",
                                        "typeTag": 1
                                    }
                                },
                                {
                                    "key": "0xe67930d1a25f4c957e03899d5387288fd29216d2",
                                    "value": {
                                        "current": "5745407",
                                        "prev": "5741509",
                                        "typeTag": 1
                                    }
                                }
                            ],
                            "typeTag": 4
                        }
                    }
                ]
            }
        ]
    }
}