{
    "balance_change": {
        "balanceChanges": []
    },
    "profile": {
        "basic_info": {
            "baseFee": "",
            "blockNumber": 8511929,
            "callData": "0xef34358800000000000000000000000000000000000000000000000003ace69bbc4de47700000000000000000000000000000000000000000000131754622129c6e3c8c700000000000000000000000000000000000000000000000000000000000027100000000000000000000000000000000000000000000000000000000001f1f17c00000000000000000000000000000000000000000000000003ace69bbc4de47700000000000000000000000000000000000000000000000000000000145bd84800000000000000000000000000000000000000000000000000013e52b9abe000000000000000000000000000000000000000000000000000001278cb7e591ed0000000000000000000000000000000000000000000000000000000000000000000000000000000000000000092b914f1ddcbb1d117a718e83c9ed7eb32fc44d100000000000000000000000037aeb674b613116fa4055aff4bafe5a9410ea63a0000000000000000000000007d07250e395e8e9368a9d4138f4b46ad53919d12000000000000000000000000000000000000000000000000000000000000001b000000000000000000000000000000000000000000000000000000000000001cb31df6a28a269e45feffd263a7861cd2fb32f7d2460357700dae67c6670a00d971a3d984f9a4c9cd0f63c8b281bee3b18c270f2dd9201d2607ef1a08fe58db83e76fc198b2552e9b48f4748464ed6af1c63d9754abb57d77142f014868aa3b5b72bc3c9fef00c2ca452e6b445f43e6cbd7ba8e2864904041e7bf5dcd3e9185e6",
            "debugEnable": true,
            "errorInfo": "",
            "eventCount": 0,
            "feeRecipient": "0x5a0b54d5dc17e0aadc383d2db43b0a0d3e029c4c",
            "formatValue": "0",
            "gasLimit": 400000,
            "gasPrice": "9",
            "gasUsed": 143028,
            "intTxnCount": 2,
            "internalRevert": false,
            "internalRevertMessage": "",
            "isContractCreation": false,
            "isFlashloan": false,
            "maxFee": "",
            "nonce": 4123064,
            "overwritedBlockNumber": -1,
            "priorityFee": "",
            "receiver": "0x2a0c0dbecc7e4d658f48e01e3fa353f44050c208",
            "revertMessage": "",
            "sender": "0xa7a7899d944fe658c4b0a1803bab2f490bd3849e",
            "simulationEnable": true,
            "sourceTxnHash": "0xeca9576e54339edbbe69c96405a1d6e749e935f2acd3d7c361aa874c933b940f",
            "status": true,
            "timestamp": "2019-09-08T22:26:34Z",
            "transactionFee": "0.001287252",
            "txnHash": "0xeca9576e54339edbbe69c96405a1d6e749e935f2acd3d7c361aa874c933b940f",
            "txnIndex": 8,
            "type": 0,
            "value": "0"
        },
        "fund_flow": [],
        "token_infos": [
            {
                "address": "0xc02aaa39b223fe8d0a0e5c4f27ead9083c756cc2",
                "decimals": 18
            },
            {
                "address": "0xeeeeeeeeeeeeeeeeeeeeeeeeeeeeeeeeeeeeeeee",
                "decimals": 18
            }
        ]
    },
    "address_label": {
        "labels": [
            {
                "address": "0x92b914f1ddcbb1d117a718e83c9ed7eb32fc44d1",
                "label": "Enkronos: ENK Token"
            },
            {
                "address": "0x0000000000000000000000000000000000000001",
                "label": "Precompiled"
            },
            {
                "address": "0x0000000000000000000000000000000000000003",
                "label": "Precompiled"
            },
            {
                "address": "0x0000000000000000000000000000000000000000",
                "label": "Null Address"
            },
            {
                "address": "0xa7a7899d944fe658c4b0a1803bab2f490bd3849e",
                "label": "IDEX 2"
            },
            {
                "address": "0x2a0c0dbecc7e4d658f48e01e3fa353f44050c208",
                "label": "IDEX"
            },
            {
                "address": "0x0000000000000000000000000000000000000002",
                "label": "Precompiled"
            },
            {
                "address": "0x0000000000000000000000000000000000000004",
                "label": "Precompiled"
            },
            {
                "address": "0xeeeeeeeeeeeeeeeeeeeeeeeeeeeeeeeeeeeeeeee",
                "label": "Ether"
            }
        ]
    },
    "trace": {
        "accountLabels": null,
        "dataMap": {
            "-1": {
                "invocation": {
                    "address": "0xa7a7899d944fe658c4b0a1803bab2f490bd3849e",
                    "callData": "",
                    "decodedMethod": null,
                    "errorInfo": "",
                    "fromAddress": "",
                    "gasUsed": 0,
                    "id": -1,
                    "methodDecoded": false,
                    "operation": "",
                    "output": "",
                    "revert": false,
                    "revertMessage": "",
                    "selector": "",
                    "status": false,
                    "value": ""
                },
                "nodeType": 0
            },
            "0": {
                "invocation": {
                    "address": "0x2a0c0dbecc7e4d658f48e01e3fa353f44050c208",
                    "callData": "0x00000000000000000000000000000000000000000000000003ace69bbc4de47700000000000000000000000000000000000000000000131754622129c6e3c8c700000000000000000000000000000000000000000000000000000000000027100000000000000000000000000000000000000000000000000000000001f1f17c00000000000000000000000000000000000000000000000003ace69bbc4de47700000000000000000000000000000000000000000000000000000000145bd84800000000000000000000000000000000000000000000000000013e52b9abe000000000000000000000000000000000000000000000000000001278cb7e591ed0000000000000000000000000000000000000000000000000000000000000000000000000000000000000000092b914f1ddcbb1d117a718e83c9ed7eb32fc44d100000000000000000000000037aeb674b613116fa4055aff4bafe5a9410ea63a0000000000000000000000007d07250e395e8e9368a9d4138f4b46ad53919d12000000000000000000000000000000000000000000000000000000000000001b000000000000000000000000000000000000000000000000000000000000001cb31df6a28a269e45feffd263a7861cd2fb32f7d2460357700dae67c6670a00d971a3d984f9a4c9cd0f63c8b281bee3b18c270f2dd9201d2607ef1a08fe58db83e76fc198b2552e9b48f4748464ed6af1c63d9754abb57d77142f014868aa3b5b72bc3c9fef00c2ca452e6b445f43e6cbd7ba8e2864904041e7bf5dcd3e9185e6",
                    "decodedMethod": {
                        "callParams": [
                            {
                                "name": "tradeValues",
                                "type": "uint256[8]",
                                "value": [
                                    "264,840,034,661,557,367",
                                    "90,155,318,747,128,796,530,887",
                                    "10,000",
                                    "32,633,212",
                                    "264,840,034,661,557,367",
                                    "341,563,464",
                                    "350,000,000,000,000",
                                    "5,199,364,974,255,824"
                                ]
                            },
                            {
                                "name": "tradeAddresses",
                                "type": "address[4]",
                                "value": [
                                    "0x0000000000000000000000000000000000000000",
                                    "0x92b914f1ddcbb1d117a718e83c9ed7eb32fc44d1",
                                    "0x37aeb674b613116fa4055aff4bafe5a9410ea63a",
                                    "0x7d07250e395e8e9368a9d4138f4b46ad53919d12"
                                ]
                            },
                            {
                                "name": "v",
                                "type": "uint8[2]",
                                "value": [
                                    "27",
                                    "28"
                                ]
                            },
                            {
                                "name": "rs",
                                "type": "bytes32[4]",
                                "value": [
                                    "0xb31df6a28a269e45feffd263a7861cd2fb32f7d2460357700dae67c6670a00d9",
                                    "0x71a3d984f9a4c9cd0f63c8b281bee3b18c270f2dd9201d2607ef1a08fe58db83",
                                    "0xe76fc198b2552e9b48f4748464ed6af1c63d9754abb57d77142f014868aa3b5b",
                                    "0x72bc3c9fef00c2ca452e6b445f43e6cbd7ba8e2864904041e7bf5dcd3e9185e6"
                                ]
                            }
                        ],
                        "constructorArguments": "",
                        "name": "trade",
                        "returnParams": [
                            {
                                "name": "success",
                                "type": "bool",
                                "value": false
                            }
                        ],
                        "signature": "trade(uint256[8],address[4],uint8[2],bytes32[4])"
                    },
                    "errorInfo": "",
                    "fromAddress": "0xa7a7899d944fe658c4b0a1803bab2f490bd3849e",
                    "gasUsed": 143028,
                    "id": 0,
                    "methodDecoded": true,
                    "operation": "CALL",
                    "output": "0x0000000000000000000000000000000000000000000000000000000000000000",
                    "revert": false,
                    "revertMessage": "",
                    "selector": "0xef343588",
                    "status": true,
                    "value": "0"
                },
                "nodeType": 0
            },
            "1": {
                "invocation": {
                    "address": "0x0000000000000000000000000000000000000001",
                    "callData": "0x9d705614d3296d1cf28447a8a9a1f82de8461edf9c701ae5f6185bb0000000000000000000000000000000000000000000000000000000000000001bb31df6a28a269e45feffd263a7861cd2fb32f7d2460357700dae67c6670a00d971a3d984f9a4c9cd0f63c8b281bee3b18c270f2dd9201d2607ef1a08fe58db83",
                    "decodedMethod": {
                        "callParams": [
                            {
                                "name": "hash",
                                "type": "bytes32",
                                "value": "0x2cc7fa879d705614d3296d1cf28447a8a9a1f82de8461edf9c701ae5f6185bb0"
                            },
                            {
                                "name": "v",
                                "type": "uint256",
                                "value": "27"
                            },
                            {
                                "name": "r",
                                "type": "bytes32",
                                "value": "0xb31df6a28a269e45feffd263a7861cd2fb32f7d2460357700dae67c6670a00d9"
                            },
                            {
                                "name": "s",
                                "type": "bytes32",
                                "value": "0x71a3d984f9a4c9cd0f63c8b281bee3b18c270f2dd9201d2607ef1a08fe58db83"
                            }
                        ],
                        "constructorArguments": "",
                        "name": "ecrecover",
                        "returnParams": [
                            {
                                "name": "",
                                "type": "address",
                                "value": "0x37aeb674b613116fa4055aff4bafe5a9410ea63a"
                            }
                        ],
                        "signature": "ecrecover(bytes32,uint256,bytes32,bytes32)"
                    },
                    "errorInfo": "",
                    "fromAddress": "0x2a0c0dbecc7e4d658f48e01e3fa353f44050c208",
                    "gasUsed": 3000,
                    "id": 1,
                    "methodDecoded": true,
                    "operation": "CALL",
                    "output": "0x00000000000000000000000037aeb674b613116fa4055aff4bafe5a9410ea63a",
                    "revert": false,
                    "revertMessage": "",
                    "selector": "0x2cc7fa87",
                    "status": true,
                    "value": "0"
                },
                "nodeType": 0
            },
            "2": {
                "invocation": {
                    "address": "0x0000000000000000000000000000000000000001",
                    "callData": "0x643c320d9539c9e8591e593589a08862ca557168ec25c5d8ba84e65e000000000000000000000000000000000000000000000000000000000000001ce76fc198b2552e9b48f4748464ed6af1c63d9754abb57d77142f014868aa3b5b72bc3c9fef00c2ca452e6b445f43e6cbd7ba8e2864904041e7bf5dcd3e9185e6",
                    "decodedMethod": {
                        "callParams": [
                            {
                                "name": "hash",
                                "type": "bytes32",
                                "value": "0x1c601465643c320d9539c9e8591e593589a08862ca557168ec25c5d8ba84e65e"
                            },
                            {
                                "name": "v",
                                "type": "uint256",
                                "value": "28"
                            },
                            {
                                "name": "r",
                                "type": "bytes32",
                                "value": "0xe76fc198b2552e9b48f4748464ed6af1c63d9754abb57d77142f014868aa3b5b"
                            },
                            {
                                "name": "s",
                                "type": "bytes32",
                                "value": "0x72bc3c9fef00c2ca452e6b445f43e6cbd7ba8e2864904041e7bf5dcd3e9185e6"
                            }
                        ],
                        "constructorArguments": "",
                        "name": "ecrecover",
                        "returnParams": [
                            {
                                "name": "",
                                "type": "address",
                                "value": "0x7d07250e395e8e9368a9d4138f4b46ad53919d12"
                            }
                        ],
                        "signature": "ecrecover(bytes32,uint256,bytes32,bytes32)"
                    },
                    "errorInfo": "",
                    "fromAddress": "0x2a0c0dbecc7e4d658f48e01e3fa353f44050c208",
                    "gasUsed": 3000,
                    "id": 2,
                    "methodDecoded": true,
                    "operation": "CALL",
                    "output": "0x0000000000000000000000007d07250e395e8e9368a9d4138f4b46ad53919d12",
                    "revert": false,
                    "revertMessage": "",
                    "selector": "0x1c601465",
                    "status": true,
                    "value": "0"
                },
                "nodeType": 0
            }
        },
        "gasFlame": [
            {
                "children": [
                    {
                        "children": [
                            {
                                "children": [],
                                "depth": 0,
                                "name": "Initial Gas",
                                "value": 38744
                            },
                            {
                                "children": [
                                    {
                                        "children": [],
                                        "depth": 1,
                                        "name": "ecrecover",
                                        "value": 3000
                                    },
                                    {
                                        "children": [],
                                        "depth": 1,
                                        "name": "ecrecover",
                                        "value": 3000
                                    }
                                ],
                                "depth": 0,
                                "name": "Executed Gas",
                                "value": 104284
                            }
                        ],
                        "depth": -1,
                        "name": "Actual Gas Used",
                        "value": 143028
                    },
                    {
                        "children": [],
                        "depth": -1,
                        "name": "Refunded Gas",
                        "value": 0
                    }
                ],
                "depth": -2,
                "name": "Total Gas",
                "value": 143028
            }
        ],
        "isConfirmed": true,
        "mainTrace": [
            {
                "children": [
                    {
                        "children": [
                            {
                                "children": [],
                                "depth": 1,
                                "id": 1,
                                "order": 1
                            },
                            {
                                "children": [],
                                "depth": 1,
                                "id": 2,
                                "order": 2
                            }
                        ],
                        "depth": 0,
                        "id": 0,
                        "order": 0
                    }
                ],
                "depth": -1,
                "id": -1,
                "order": -1
            }
        ],
        "mainTraceNodeCount": 3,
        "parentIdMap": {
            "0": -1,
            "1": 0,
            "2": 0
        },
        "tidyTrace": [
            {
                "children": [
                    {
                        "children": [
                            {
                                "children": [],
                                "depth": 1,
                                "id": 1,
                                "order": 1
                            },
                            {
                                "children": [],
                                "depth": 1,
                                "id": 2,
                                "order": 2
                            }
                        ],
                        "depth": 0,
                        "id": 0,
                        "order": 0
                    }
                ],
                "depth": -1,
                "id": -1,
                "order": -1
            }
        ],
        "tidyTraceNodeCount": 3
    },
    "state_change": {
        "stateChanges": [
            {
                "address": "0x2a0c0dbecc7e4d658f48e01e3fa353f44050c208",
                "erc": "",
                "slots": [
                    {
                        "current": "0x00000000000000000000000000000000000000000000000003ace69bbc4de477",
                        "key": "0x45a3c9640a9a7d9f02d0fc44fee437d07b5b15bf600cc0d00fe83b20b012ce24",
                        "prev": "0x0000000000000000000000000000000000000000000000000000000000000000"
                    },
                    {
                        "current": "0x000000000000000000000000000000000000000000000000193742cf14bda3fc",
                        "key": "0xf536a302018dbd4dbc6a7957ea4709fc5e09afe0bbd5fe059e8877c28306a36f",
                        "prev": "0x0000000000000000000000000000000000000000000000001ce4296ad10b8873"
                    },
                    {
                        "current": "0x000000000000000000000000000000000000000000002ba81739481d40713923",
                        "key": "0x3b13e68e028339bd91fb6ab4d5da8ad352e19e6dd6453fb630ebefc77875442e",
                        "prev": "0x0000000000000000000000000000000000000000000018aa2c0f22266cf56279"
                    },
                    {
                        "current": "0x0000000000000000000000000000000000000000000000001e212ff81434792c",
                        "key": "0x2ebaa2d8b2e42497069ee42e184ce880326d5c44d49ddf7be14fc36e3e9cc5b0",
                        "prev": "0x0000000000000000000000000000000000000000000000001a749daa59910d8f"
                    },
                    {
                        "current": "0x000000000000000000000000000000000000000000000000000000000081e1b9",
                        "key": "0x8d7d7b25d25f09155bb950dd98446c9384ed5a6b3673445eb901bc475a85d75e",
                        "prev": "0x000000000000000000000000000000000000000000000000000000000081e1ad"
                    },
                    {
                        "current": "0x0000000000000000000000000000000000000000000000000000000000000001",
                        "key": "0x75cda69491d15b91a5e302fa8ec14b4ea413c93838852f9eedcb46386e2130f8",
                        "prev": "0x0000000000000000000000000000000000000000000000000000000000000000"
                    },
                    {
                        "current": "0x000000000000000000000000000000000000000000000004b1b7615a60675cf1",
                        "key": "0x3ccb72d91c5c66cba135a4135963ed23443b8a63817f501517468fcd5097e277",
                        "prev": "0x000000000000000000000000000000000000000000000004b1b70d0c5ebce418"
                    },
                    {
                        "current": "0x0000000000000000000000000000000000000000000003abd405a90e495f3d04",
                        "key": "0x301921be39e237ec0f721d3e04b9358d8dea2f95b738580bb62e6e0fdae9ffa8",
                        "prev": "0x0000000000000000000000000000000000000000000016c32867ca38104305cb"
                    },
                    {
                        "current": "0x000000000000000000000000000000000000000000007d91f9e1b5bb818e3ccf",
                        "key": "0xe22f8090189d53478704dd07dbc08574c127dd58496810f91c7407d06bf60102",
                        "prev": "0x000000000000000000000000000000000000000000007d7890a9ba888e264ab3"
                    }
                ],
                "storageVariables": [
                    {
                        "name": "orderFills",
                        "type": "mapping(bytes32 => uint256)",
                        "value": {
                            "pairs": [
                                {
                                    "key": "0xed01f9899b15c38b91fe39d7dca77bf30d8486b5e3950c19400de9f30f69f2f7",
                                    "value": {
                                        "current": "264840034661557367",
                                        "prev": "0",
                                        "typeTag": 1
                                    }
                                }
                            ],
                            "typeTag": 4
                        }
                    },
                    {
                        "name": "tokens",
                        "type": "mapping(address => mapping(address => uint256))",
                        "value": {
                            "pairs": [
                                {
                                    "key": "0x0000000000000000000000000000000000000000",
                                    "value": {
                                        "pairs": [
                                            {
                                                "key": "0x034767f3c519f361c5ecf46ebfc08981c629d381",
                                                "value": {
                                                    "current": "86592787401081838833",
                                                    "prev": "86592694707069707288",
                                                    "typeTag": 1
                                                }
                                            },
                                            {
                                                "key": "0x37aeb674b613116fa4055aff4bafe5a9410ea63a",
                                                "value": {
                                                    "current": "2171069237906667820",
                                                    "prev": "1906321897257241999",
                                                    "typeTag": 1
                                                }
                                            },
                                            {
                                                "key": "0x7d07250e395e8e9368a9d4138f4b46ad53919d12",
                                                "value": {
                                                    "current": "1816994431840920572",
                                                    "prev": "2081834466502477939",
                                                    "typeTag": 1
                                                }
                                            }
                                        ],
                                        "typeTag": 4
                                    }
                                },
                                {
                                    "key": "0x92b914f1ddcbb1d117a718e83c9ed7eb32fc44d1",
                                    "value": {
                                        "pairs": [
                                            {
                                                "key": "0x034767f3c519f361c5ecf46ebfc08981c629d381",
                                                "value": {
                                                    "current": "592988594121995677744335",
                                                    "prev": "592519843715458986822323",
                                                    "typeTag": 1
                                                }
                                            },
                                            {
                                                "key": "0x37aeb674b613116fa4055aff4bafe5a9410ea63a",
                                                "value": {
                                                    "current": "17336770488403018857732",
                                                    "prev": "107492089235531815388619",
                                                    "typeTag": 1
                                                }
                                            },
                                            {
                                                "key": "0x7d07250e395e8e9368a9d4138f4b46ad53919d12",
                                                "value": {
                                                    "current": "206162485215804966123811",
                                                    "prev": "116475916875212860514937",
                                                    "typeTag": 1
                                                }
                                            }
                                        ],
                                        "typeTag": 4
                                    }
                                }
                            ],
                            "typeTag": 4
                        }
                    },
                    {
                        "name": "lastActiveTransaction",
                        "type": "mapping(address => uint256)",
                        "value": {
                            "pairs": [
                                {
                                    "key": "0x7d07250e395e8e9368a9d4138f4b46ad53919d12",
                                    "value": {
                                        "current": "8511929",
                                        "prev": "8511917",
                                        "typeTag": 1
                                    }
                                }
                            ],
                            "typeTag": 4
                        }
                    },
                    {
                        "name": "traded",
                        "type": "mapping(bytes32 => bool)",
                        "value": {
                            "pairs": [
                                {
                                    "key": "0xce568581f16225f60838e67695cde47e9c9490eac261b766d95f726ecfa5b15a",
                                    "value": {
                                        "current": "true",
                                        "prev": "false",
                                        "typeTag": 1
                                    }
                                }
                            ],
                            "typeTag": 4
                        }
                    }
                ]
            }
        ]
    }
}