{
    "balance_change": {
        "balanceChanges": [
            {
                "account": "0xec785e36b3c68ba4b4a29e820546b8df4b85a49d",
                "assets": [
                    {
                        "address": "0xeeeeeeeeeeeeeeeeeeeeeeeeeeeeeeeeeeeeeeee",
                        "amount": "0.1",
                        "iconUrl": "https://assets.blocksec.com/image/1663669189317-3.png",
                        "isERC1155": false,
                        "isERC721": false,
                        "sign": false,
                        "value": "23.013296600000001036"
                    }
                ]
            },
            {
                "account": "0x6a2c1751678ff0e2ace795813712912b86af6675",
                "assets": [
                    {
                        "address": "0xeeeeeeeeeeeeeeeeeeeeeeeeeeeeeeeeeeeeeeee",
                        "amount": "0.1",
                        "iconUrl": "https://assets.blocksec.com/image/1663669189317-3.png",
                        "isERC1155": false,
                        "isERC721": false,
                        "sign": true,
                        "value": "23.013296600000001036"
                    }
                ]
            }
        ]
    },
    "profile": {
        "basic_info": {
            "baseFee": "",
            "blockNumber": 9665469,
            "callData": "0xf6838a720000000000000000000000000000000000000000000000000000000000000003",
            "debugEnable": true,
            "errorInfo": "",
            "eventCount": 2,
            "feeRecipient": "0x5a0b54d5dc17e0aadc383d2db43b0a0d3e029c4c",
            "formatValue": "0.1",
            "gasLimit": 100402,
            "gasPrice": "7",
            "gasUsed": 66935,
            "intTxnCount": 1,
            "internalRevert": false,
            "internalRevertMessage": "",
            "isContractCreation": false,
            "isFlashloan": false,
            "maxFee": "",
            "nonce": 2,
            "overwritedBlockNumber": -1,
            "priorityFee": "",
            "receiver": "0xbcf935d206ca32929e1b887a07ed240f0d8ccd22",
            "revertMessage": "",
            "sender": "0xec785e36b3c68ba4b4a29e820546b8df4b85a49d",
            "simulationEnable": true,
            "sourceTxnHash": "0xec15ee7a4af0bcc3e8fe27f541709e9e78140fa2e26cd0d0afc50b6f9356af00",
            "status": true,
            "timestamp": "2020-03-13T21:15:08Z",
            "transactionFee": "0.000468545",
            "txnHash": "0xec15ee7a4af0bcc3e8fe27f541709e9e78140fa2e26cd0d0afc50b6f9356af00",
            "txnIndex": 76,
            "type": 0,
            "value": "100000000000000000"
        },
        "fund_flow": [
            {
                "amount": "0.1",
                "from": "0xec785e36b3c68ba4b4a29e820546b8df4b85a49d",
                "id": 1,
                "isERC1155": false,
                "isERC721": false,
                "isReverted": false,
                "order": 1,
                "to": "0xbcf935d206ca32929e1b887a07ed240f0d8ccd22",
                "token": "0xeeeeeeeeeeeeeeeeeeeeeeeeeeeeeeeeeeeeeeee"
            },
            {
                "amount": "0.1",
                "from": "0xbcf935d206ca32929e1b887a07ed240f0d8ccd22",
                "id": 2,
                "isERC1155": false,
                "isERC721": false,
                "isReverted": false,
                "order": 2,
                "to": "0x6a2c1751678ff0e2ace795813712912b86af6675",
                "token": "0xeeeeeeeeeeeeeeeeeeeeeeeeeeeeeeeeeeeeeeee"
            }
        ],
        "token_infos": [
            {
                "address": "0xc02aaa39b223fe8d0a0e5c4f27ead9083c756cc2",
                "decimals": 18
            },
            {
                "address": "0xeeeeeeeeeeeeeeeeeeeeeeeeeeeeeeeeeeeeeeee",
                "decimals": 18
            }
        ]
    },
    "address_label": {
        "labels": [
            {
                "address": "0xeeeeeeeeeeeeeeeeeeeeeeeeeeeeeeeeeeeeeeee",
                "label": "Ether"
            },
            {
                "address": "0xbcf935d206ca32929e1b887a07ed240f0d8ccd22",
                "label": "Million.Money"
            },
            {
                "address": "0x0000000000000000000000000000000000000001",
                "label": "Precompiled"
            },
            {
                "address": "0x0000000000000000000000000000000000000002",
                "label": "Precompiled"
            },
            {
                "address": "0x0000000000000000000000000000000000000003",
                "label": "Precompiled"
            },
            {
                "address": "0x0000000000000000000000000000000000000004",
                "label": "Precompiled"
            }
        ]
    },
    "trace": {
        "accountLabels": null,
        "dataMap": {
            "-1": {
                "invocation": {
                    "address": "0xec785e36b3c68ba4b4a29e820546b8df4b85a49d",
                    "callData": "",
                    "decodedMethod": null,
                    "errorInfo": "",
                    "fromAddress": "",
                    "gasUsed": 0,
                    "id": -1,
                    "methodDecoded": false,
                    "operation": "",
                    "output": "",
                    "revert": false,
                    "revertMessage": "",
                    "selector": "",
                    "status": false,
                    "value": ""
                },
                "nodeType": 0
            },
            "0": {
                "invocation": {
                    "address": "0xbcf935d206ca32929e1b887a07ed240f0d8ccd22",
                    "callData": "0x0000000000000000000000000000000000000000000000000000000000000003",
                    "decodedMethod": {
                        "callParams": [
                            {
                                "name": "_level",
                                "type": "uint256",
                                "value": "3"
                            }
                        ],
                        "constructorArguments": "",
                        "name": "buyLevel",
                        "returnParams": [],
                        "signature": "buyLevel(uint256)"
                    },
                    "errorInfo": "",
                    "fromAddress": "0xec785e36b3c68ba4b4a29e820546b8df4b85a49d",
                    "gasUsed": 66935,
                    "id": 0,
                    "methodDecoded": true,
                    "operation": "CALL",
                    "output": "",
                    "revert": false,
                    "revertMessage": "",
                    "selector": "0xf6838a72",
                    "status": true,
                    "value": "0.1"
                },
                "nodeType": 0
            },
            "1": {
                "invocation": {
                    "address": "0x6a2c1751678ff0e2ace795813712912b86af6675",
                    "callData": "0x",
                    "decodedMethod": null,
                    "errorInfo": "",
                    "fromAddress": "0xbcf935d206ca32929e1b887a07ed240f0d8ccd22",
                    "gasUsed": 0,
                    "id": 1,
                    "methodDecoded": false,
                    "operation": "CALL",
                    "output": "",
                    "revert": false,
                    "revertMessage": "",
                    "selector": "fallback",
                    "status": true,
                    "value": "0.1"
                },
                "nodeType": 0
            },
            "2": {
                "event": {
                    "contract": "0xbcf935d206ca32929e1b887a07ed240f0d8ccd22",
                    "decodedLog": {
                        "name": "getMoneyForLevelEvent",
                        "params": [
                            {
                                "name": "_user",
                                "type": "address",
                                "value": "0x6a2c1751678ff0e2ace795813712912b86af6675"
                            },
                            {
                                "name": "_referral",
                                "type": "address",
                                "value": "0xec785e36b3c68ba4b4a29e820546b8df4b85a49d"
                            },
                            {
                                "name": "_level",
                                "type": "uint256",
                                "value": "3"
                            },
                            {
                                "name": "_time",
                                "type": "uint256",
                                "value": "1,584,134,108"
                            }
                        ],
                        "signature": "getMoneyForLevelEvent(address,address,uint256,uint256)"
                    },
                    "id": 2,
                    "logData": "0x0000000000000000000000000000000000000000000000000000000000000003000000000000000000000000000000000000000000000000000000005e6bf7dc",
                    "logDecoded": true,
                    "operation": "EVENT",
                    "revert": false,
                    "status": true,
                    "topics": [
                        "0xce7dc747411ac40191c5335943fcc79d8c2d8c01ca5ae83d9fed160409fa6120",
                        "0x0000000000000000000000006a2c1751678ff0e2ace795813712912b86af6675",
                        "0x000000000000000000000000ec785e36b3c68ba4b4a29e820546b8df4b85a49d"
                    ]
                },
                "nodeType": 1
            },
            "3": {
                "event": {
                    "contract": "0xbcf935d206ca32929e1b887a07ed240f0d8ccd22",
                    "decodedLog": {
                        "name": "buyLevelEvent",
                        "params": [
                            {
                                "name": "_user",
                                "type": "address",
                                "value": "0xec785e36b3c68ba4b4a29e820546b8df4b85a49d"
                            },
                            {
                                "name": "_level",
                                "type": "uint256",
                                "value": "3"
                            },
                            {
                                "name": "_time",
                                "type": "uint256",
                                "value": "1,584,134,108"
                            }
                        ],
                        "signature": "buyLevelEvent(address,uint256,uint256)"
                    },
                    "id": 3,
                    "logData": "0x0000000000000000000000000000000000000000000000000000000000000003000000000000000000000000000000000000000000000000000000005e6bf7dc",
                    "logDecoded": true,
                    "operation": "EVENT",
                    "revert": false,
                    "status": true,
                    "topics": [
                        "0x9ea70f0eb33d898c3336ecf2c0e3cf1c0195c13ad3fbcb34447777dbfd5ff2d0",
                        "0x000000000000000000000000ec785e36b3c68ba4b4a29e820546b8df4b85a49d"
                    ]
                },
                "nodeType": 1
            }
        },
        "gasFlame": [
            {
                "children": [
                    {
                        "children": [
                            {
                                "children": [],
                                "depth": 0,
                                "name": "Initial Gas",
                                "value": 21204
                            },
                            {
                                "children": [
                                    {
                                        "children": [],
                                        "depth": 1,
                                        "name": "fallback",
                                        "value": 0
                                    }
                                ],
                                "depth": 0,
                                "name": "Executed Gas",
                                "value": 45731
                            }
                        ],
                        "depth": -1,
                        "name": "Actual Gas Used",
                        "value": 66935
                    },
                    {
                        "children": [],
                        "depth": -1,
                        "name": "Refunded Gas",
                        "value": 0
                    }
                ],
                "depth": -2,
                "name": "Total Gas",
                "value": 66935
            }
        ],
        "isConfirmed": true,
        "mainTrace": [
            {
                "children": [
                    {
                        "children": [
                            {
                                "children": [],
                                "depth": 1,
                                "id": 1,
                                "order": 1
                            },
                            {
                                "children": [],
                                "depth": 1,
                                "id": 2,
                                "order": 2
                            },
                            {
                                "children": [],
                                "depth": 1,
                                "id": 3,
                                "order": 3
                            }
                        ],
                        "depth": 0,
                        "id": 0,
                        "order": 0
                    }
                ],
                "depth": -1,
                "id": -1,
                "order": -1
            }
        ],
        "mainTraceNodeCount": 4,
        "parentIdMap": {
            "0": -1,
            "1": 0,
            "2": 0,
            "3": 0
        },
        "tidyTrace": [
            {
                "children": [
                    {
                        "children": [
                            {
                                "children": [],
                                "depth": 1,
                                "id": 1,
                                "order": 1
                            },
                            {
                                "children": [],
                                "depth": 1,
                                "id": 2,
                                "order": 2
                            },
                            {
                                "children": [],
                                "depth": 1,
                                "id": 3,
                                "order": 3
                            }
                        ],
                        "depth": 0,
                        "id": 0,
                        "order": 0
                    }
                ],
                "depth": -1,
                "id": -1,
                "order": -1
            }
        ],
        "tidyTraceNodeCount": 4
    },
    "state_change": {
        "stateChanges": [
            {
                "address": "0xbcf935d206ca32929e1b887a07ed240f0d8ccd22",
                "erc": "",
                "slots": [
                    {
                        "current": "0x000000000000000000000000000000000000000000000000000000005eefcddc",
                        "key": "0x95ad353375fa67c0ca830c6bbe3de879a430e0196aace9e91196eb474bbfc6f3",
                        "prev": "0x0000000000000000000000000000000000000000000000000000000000000000"
                    }
                ],
                "storageVariables": [
                    {
                        "name": "users",
                        "type": "mapping(address => struct MillionMoney.UserStruct)",
                        "value": {
                            "pairs": [
                                {
                                    "key": "0xec785e36b3c68ba4b4a29e820546b8df4b85a49d",
                                    "value": {
                                        "fields": [
                                            {
                                                "name": "levelExpired",
                                                "type": "mapping(uint256 => uint256)",
                                                "value": {
                                                    "pairs": [
                                                        {
                                                            "key": "3",
                                                            "value": {
                                                                "current": "1592774108",
                                                                "prev": "0",
                                                                "typeTag": 1
                                                            }
                                                        }
                                                    ],
                                                    "typeTag": 4
                                                }
                                            }
                                        ],
                                        "typeTag": 3
                                    }
                                }
                            ],
                            "typeTag": 4
                        }
                    }
                ]
            }
        ]
    }
}