{
    "balance_change": {
        "balanceChanges": [
            {
                "account": "0x2a14f4944cedb29d4d247c8f030024a148961a50",
                "assets": [
                    {
                        "address": "0xc00e94cb662c3520282e6f5717214004a7f26888",
                        "amount": "5.137306048635406008",
                        "iconUrl": "https://assets.blocksec.com/icon/479cb2e15b0a933cedbcf12e2f7327d232e092ac568091b0e1ad6c219f06de17.png",
                        "isERC1155": false,
                        "isERC721": false,
                        "sign": false,
                        "value": "849.2082113"
                    }
                ]
            },
            {
                "account": "0xd429feedda163592292ce619bd1b332099efb276",
                "assets": [
                    {
                        "address": "0xc00e94cb662c3520282e6f5717214004a7f26888",
                        "amount": "5.137306048635406008",
                        "iconUrl": "https://assets.blocksec.com/icon/479cb2e15b0a933cedbcf12e2f7327d232e092ac568091b0e1ad6c219f06de17.png",
                        "isERC1155": false,
                        "isERC721": false,
                        "sign": true,
                        "value": "849.2082113"
                    }
                ]
            }
        ]
    },
    "profile": {
        "basic_info": {
            "baseFee": "",
            "blockNumber": 10884056,
            "callData": "0xa9059cbb000000000000000000000000d429feedda163592292ce619bd1b332099efb276000000000000000000000000000000000000000000000000474b60a1f36106b8",
            "debugEnable": true,
            "errorInfo": "",
            "eventCount": 1,
            "feeRecipient": "0x4c549990a7ef3fea8784406c1eecc98bf4211fa5",
            "formatValue": "0",
            "gasLimit": 83619,
            "gasPrice": "300",
            "gasUsed": 40746,
            "intTxnCount": 0,
            "internalRevert": false,
            "internalRevertMessage": "",
            "isContractCreation": false,
            "isFlashloan": false,
            "maxFee": "",
            "nonce": 3,
            "overwritedBlockNumber": -1,
            "priorityFee": "",
            "receiver": "0xc00e94cb662c3520282e6f5717214004a7f26888",
            "revertMessage": "",
            "sender": "0x2a14f4944cedb29d4d247c8f030024a148961a50",
            "simulationEnable": true,
            "sourceTxnHash": "0xec47eb08aa44825f66898da6514b8fa8ca486eb7013f50df96fc1a1dbf754c19",
            "status": true,
            "timestamp": "2020-09-18T04:38:23Z",
            "transactionFee": "0.0122238",
            "txnHash": "0xec47eb08aa44825f66898da6514b8fa8ca486eb7013f50df96fc1a1dbf754c19",
            "txnIndex": 177,
            "type": 0,
            "value": "0"
        },
        "fund_flow": [
            {
                "amount": "5.137306048635406008",
                "from": "0x2a14f4944cedb29d4d247c8f030024a148961a50",
                "id": 1,
                "isERC1155": false,
                "isERC721": false,
                "isReverted": false,
                "order": 1,
                "to": "0xd429feedda163592292ce619bd1b332099efb276",
                "token": "0xc00e94cb662c3520282e6f5717214004a7f26888"
            }
        ],
        "token_infos": [
            {
                "address": "0xc00e94cb662c3520282e6f5717214004a7f26888",
                "decimals": 18
            },
            {
                "address": "0xc02aaa39b223fe8d0a0e5c4f27ead9083c756cc2",
                "decimals": 18
            },
            {
                "address": "0xeeeeeeeeeeeeeeeeeeeeeeeeeeeeeeeeeeeeeeee",
                "decimals": 18
            }
        ]
    },
    "address_label": {
        "labels": [
            {
                "address": "0x0000000000000000000000000000000000000003",
                "label": "Precompiled"
            },
            {
                "address": "0x0000000000000000000000000000000000000004",
                "label": "Precompiled"
            },
            {
                "address": "0xeeeeeeeeeeeeeeeeeeeeeeeeeeeeeeeeeeeeeeee",
                "label": "Ether"
            },
            {
                "address": "0xc00e94cb662c3520282e6f5717214004a7f26888",
                "label": "Compound: COMP Token"
            },
            {
                "address": "0x0000000000000000000000000000000000000001",
                "label": "Precompiled"
            },
            {
                "address": "0x0000000000000000000000000000000000000002",
                "label": "Precompiled"
            }
        ]
    },
    "trace": {
        "accountLabels": null,
        "dataMap": {
            "-1": {
                "invocation": {
                    "address": "0x2a14f4944cedb29d4d247c8f030024a148961a50",
                    "callData": "",
                    "decodedMethod": null,
                    "errorInfo": "",
                    "fromAddress": "",
                    "gasUsed": 0,
                    "id": -1,
                    "methodDecoded": false,
                    "operation": "",
                    "output": "",
                    "revert": false,
                    "revertMessage": "",
                    "selector": "",
                    "status": false,
                    "value": ""
                },
                "nodeType": 0
            },
            "0": {
                "invocation": {
                    "address": "0xc00e94cb662c3520282e6f5717214004a7f26888",
                    "callData": "0x000000000000000000000000d429feedda163592292ce619bd1b332099efb276000000000000000000000000000000000000000000000000474b60a1f36106b8",
                    "decodedMethod": {
                        "callParams": [
                            {
                                "name": "dst",
                                "type": "address",
                                "value": "0xd429feedda163592292ce619bd1b332099efb276"
                            },
                            {
                                "decimalAvailable": true,
                                "name": "rawAmount",
                                "type": "uint256",
                                "value": "5,137,306,048,635,406,008"
                            }
                        ],
                        "constructorArguments": "",
                        "name": "transfer",
                        "returnParams": [
                            {
                                "name": "",
                                "type": "bool",
                                "value": true
                            }
                        ],
                        "signature": "transfer(address,uint256)"
                    },
                    "errorInfo": "",
                    "fromAddress": "0x2a14f4944cedb29d4d247c8f030024a148961a50",
                    "gasUsed": 40746,
                    "id": 0,
                    "methodDecoded": true,
                    "operation": "CALL",
                    "output": "0x0000000000000000000000000000000000000000000000000000000000000001",
                    "revert": false,
                    "revertMessage": "",
                    "selector": "0xa9059cbb",
                    "status": true,
                    "value": "0"
                },
                "nodeType": 0
            },
            "1": {
                "event": {
                    "contract": "0xc00e94cb662c3520282e6f5717214004a7f26888",
                    "decodedLog": {
                        "name": "Transfer",
                        "params": [
                            {
                                "name": "from",
                                "type": "address",
                                "value": "0x2a14f4944cedb29d4d247c8f030024a148961a50"
                            },
                            {
                                "name": "to",
                                "type": "address",
                                "value": "0xd429feedda163592292ce619bd1b332099efb276"
                            },
                            {
                                "decimalAvailable": true,
                                "name": "amount",
                                "type": "uint256",
                                "value": "5,137,306,048,635,406,008"
                            }
                        ],
                        "signature": "Transfer(address,address,uint256)"
                    },
                    "id": 1,
                    "logData": "0x000000000000000000000000000000000000000000000000474b60a1f36106b8",
                    "logDecoded": true,
                    "operation": "EVENT",
                    "revert": false,
                    "status": true,
                    "topics": [
                        "0xddf252ad1be2c89b69c2b068fc378daa952ba7f163c4a11628f55a4df523b3ef",
                        "0x0000000000000000000000002a14f4944cedb29d4d247c8f030024a148961a50",
                        "0x000000000000000000000000d429feedda163592292ce619bd1b332099efb276"
                    ]
                },
                "nodeType": 1
            }
        },
        "gasFlame": [
            {
                "children": [
                    {
                        "children": [
                            {
                                "children": [],
                                "depth": 0,
                                "name": "Initial Gas",
                                "value": 21656
                            },
                            {
                                "children": [],
                                "depth": 0,
                                "name": "Executed Gas",
                                "value": 34090
                            }
                        ],
                        "depth": -1,
                        "name": "Actual Gas Used",
                        "value": 40746
                    },
                    {
                        "children": [],
                        "depth": -1,
                        "name": "Refunded Gas",
                        "value": 15000
                    }
                ],
                "depth": -2,
                "name": "Total Gas",
                "value": 55746
            }
        ],
        "isConfirmed": true,
        "mainTrace": [
            {
                "children": [
                    {
                        "children": [
                            {
                                "children": [],
                                "depth": 1,
                                "id": 1,
                                "order": 1
                            }
                        ],
                        "depth": 0,
                        "id": 0,
                        "order": 0
                    }
                ],
                "depth": -1,
                "id": -1,
                "order": -1
            }
        ],
        "mainTraceNodeCount": 2,
        "parentIdMap": {
            "0": -1,
            "1": 0
        },
        "tidyTrace": [
            {
                "children": [
                    {
                        "children": [
                            {
                                "children": [],
                                "depth": 1,
                                "id": 1,
                                "order": 1
                            }
                        ],
                        "depth": 0,
                        "id": 0,
                        "order": 0
                    }
                ],
                "depth": -1,
                "id": -1,
                "order": -1
            }
        ],
        "tidyTraceNodeCount": 2
    },
    "state_change": {
        "stateChanges": [
            {
                "address": "0xc00e94cb662c3520282e6f5717214004a7f26888",
                "erc": "ERC-20",
                "slots": [
                    {
                        "current": "0x0000000000000000000000000000000000000000000000000000000000000000",
                        "key": "0x268c0d3c3a35a804c73d60496c952c81aeb6dbb2e253da958d8401d675c51572",
                        "prev": "0x000000000000000000000000000000000000000000000000474b60a1f36106b8"
                    },
                    {
                        "current": "0x000000000000000000000000000000000000000000000000474b60a1f36106b8",
                        "key": "0xc80158d4881796cbeee7e285d7e41c5bc476c3dca9dcc4e2010885e59a2f5de3",
                        "prev": "0x0000000000000000000000000000000000000000000000000000000000000000"
                    }
                ],
                "storageVariables": [
                    {
                        "name": "balances",
                        "type": "mapping(address => uint96)",
                        "value": {
                            "pairs": [
                                {
                                    "key": "0x2a14f4944cedb29d4d247c8f030024a148961a50",
                                    "value": {
                                        "current": "0",
                                        "prev": "5137306048635406008",
                                        "typeTag": 1
                                    }
                                },
                                {
                                    "key": "0xd429feedda163592292ce619bd1b332099efb276",
                                    "value": {
                                        "current": "5137306048635406008",
                                        "prev": "0",
                                        "typeTag": 1
                                    }
                                }
                            ],
                            "typeTag": 4
                        }
                    }
                ]
            }
        ]
    }
}