{
    "balance_change": {
        "balanceChanges": [
            {
                "account": "0x8527638f213d19f93a73d0131b67dc73bf9d4442",
                "assets": [
                    {
                        "address": "0x51bb4c8bb4901d6aa061282cd7ed916eec715a29",
                        "amount": "1",
                        "iconUrl": "",
                        "isERC1155": false,
                        "isERC721": true,
                        "sign": false,
                        "tokenID": "1422",
                        "value": ""
                    },
                    {
                        "address": "0x0000000000a39bb272e79075ade125fd351887ac",
                        "amount": "0.41",
                        "iconUrl": "",
                        "isERC1155": false,
                        "isERC721": false,
                        "sign": true,
                        "value": ""
                    }
                ]
            },
            {
                "account": "0xba8716dbdbbf336c560d2c1f36e0875246440716",
                "assets": [
                    {
                        "address": "0x51bb4c8bb4901d6aa061282cd7ed916eec715a29",
                        "amount": "1",
                        "iconUrl": "",
                        "isERC1155": false,
                        "isERC721": true,
                        "sign": true,
                        "tokenID": "1422",
                        "value": ""
                    },
                    {
                        "address": "0x0000000000a39bb272e79075ade125fd351887ac",
                        "amount": "0.41",
                        "iconUrl": "",
                        "isERC1155": false,
                        "isERC721": false,
                        "sign": false,
                        "value": ""
                    }
                ]
            }
        ]
    },
    "profile": {
        "basic_info": {
            "baseFee": "2.080144593",
            "blockNumber": 20669666,
            "callData": "0xda815cb500000000000000000000000000000000000000000000000000000000000000400000000000000000000000000000000000000000000000000000000000000380000000000000000000000000ba8716dbdbbf336c560d2c1f36e087524644071600000000000000000000000051bb4c8bb4901d6aa061282cd7ed916eec715a2941f0977e7c0b9e1d2b1ae7ad0e2d3f044ce18b12ea6878f6f77dd02f493d6b6000000000000000000000000000000000000000000000000000000000000000010000000000000000000000000000000000000000000000000000000068b820c400000000000000000000000000000000000000000000000000000000000000000000000000000000000000000000000000000000000000000000000000000000000000000000000000000000000000000000000000000000000000000000000000000000000000000000000000000000925dc9da9e2e8d001e3f959d90dfb46600000000000000000000000000000000000000000000000000000000000001a00000000000000000000000000000000000000000000000000000000000000000000000000000000000000000000000000000000000000000000000000000000000000000000000000000000000000000000000000000000000000000000002c00000000000000000000000000000000000000000000000000000000000000000000000000000000000000000000000000000000000000000000000000000010000000000000000000000000000000000000000000000000000000000000000000000000000000000000000000000000000000000000000000000000000000000000000000000000000000000000000000000000000000000000000000000000100000000000000000000000000000000000000000000000005b09cd3e5e90000000000000000000000000000000000000000000000000000000000000000058e000000000000000000000000000000000000000000000000000000000000000100000000000000000000000000000000000000000000000000000000000000000000000000000000000000000000000000000000000000000000000000000041f1e4f9f9ff6c962f6f401296fab41d00598e5b4e8ea313b9091cda511871da837229fbd4cdfe606e3c8fa9903e0c648d00a730de7a862f4bda3aa22603a6b2d01c000000000000000000000000000000000000000000000000000000000000000000000000000000000000000000000000000000000000000000000000000059690acfd6a67d05487d7f07a0a9e99ec4df8213c5bf900c9f1448c580f9f5f72e1a85d38b6ec002bf90554a81d8423997b8570216658fcd6b297ce6bfd70d14681b013b64e06af68e5d010513ff70a3aaed9afeb8661116e6ce00000000000000",
            "debugEnable": true,
            "errorInfo": "",
            "eventCount": 3,
            "feeRecipient": "0x95222290dd7278aa3ddd389cc1e1d165cc4bafe5",
            "formatValue": "0",
            "gasLimit": 164904,
            "gasPrice": "2.695089929",
            "gasUsed": 152872,
            "intTxnCount": 7,
            "internalRevert": false,
            "internalRevertMessage": "",
            "isContractCreation": false,
            "isFlashloan": false,
            "maxFee": "3.320274277",
            "nonce": 3030,
            "overwritedBlockNumber": -1,
            "priorityFee": "0.614945336",
            "receiver": "0xb2ecfe4e4d61f8790bbb9de2d1259b9e2410cea5",
            "revertMessage": "",
            "sender": "0x8527638f213d19f93a73d0131b67dc73bf9d4442",
            "simulationEnable": true,
            "sourceTxnHash": "0xecc860e4232d5144640fd3aa1bc9933a45cab6528e324b4597d58f6006820c67",
            "status": true,
            "timestamp": "2024-09-03T11:11:11Z",
            "transactionFee": "0.000412003787626088",
            "txnHash": "0xecc860e4232d5144640fd3aa1bc9933a45cab6528e324b4597d58f6006820c67",
            "txnIndex": 94,
            "type": 2,
            "value": "0"
        },
        "fund_flow": [
            {
                "amount": "1",
                "from": "0x8527638f213d19f93a73d0131b67dc73bf9d4442",
                "id": 1,
                "isERC1155": false,
                "isERC721": true,
                "isReverted": false,
                "order": 1,
                "to": "0xba8716dbdbbf336c560d2c1f36e0875246440716",
                "token": "0x51bb4c8bb4901d6aa061282cd7ed916eec715a29",
                "tokenID": "1422"
            },
            {
                "amount": "0.41",
                "from": "0xba8716dbdbbf336c560d2c1f36e0875246440716",
                "id": 2,
                "isERC1155": false,
                "isERC721": false,
                "isReverted": false,
                "order": 2,
                "to": "0x8527638f213d19f93a73d0131b67dc73bf9d4442",
                "token": "0x0000000000a39bb272e79075ade125fd351887ac"
            }
        ],
        "token_infos": [
            {
                "address": "0x0000000000a39bb272e79075ade125fd351887ac",
                "decimals": 18
            },
            {
                "address": "0xc02aaa39b223fe8d0a0e5c4f27ead9083c756cc2",
                "decimals": 18
            },
            {
                "address": "0xeeeeeeeeeeeeeeeeeeeeeeeeeeeeeeeeeeeeeeee",
                "decimals": 18
            }
        ]
    },
    "address_label": {
        "labels": [
            {
                "address": "0x51bb4c8bb4901d6aa061282cd7ed916eec715a29",
                "label": "ERC721SeaDrop"
            },
            {
                "address": "0x0000000000000000000000000000000000000002",
                "label": "Precompiled"
            },
            {
                "address": "0x0000000000000000000000000000000000000004",
                "label": "Precompiled"
            },
            {
                "address": "0xeeeeeeeeeeeeeeeeeeeeeeeeeeeeeeeeeeeeeeee",
                "label": "Ether"
            },
            {
                "address": "0x5fa60726e62c50af45ff2f6280c468da438a7837",
                "label": "BlurExchangeV2"
            },
            {
                "address": "0x0000000000a39bb272e79075ade125fd351887ac",
                "label": "Blur: Bidding"
            },
            {
                "address": "0x01a656024de4b89e2d0198bf4d468e8fd2358b17",
                "label": "Blur Pool"
            },
            {
                "address": "0x0000000000000000000000000000000000000001",
                "label": "Precompiled"
            },
            {
                "address": "0x0000000000000000000000000000000000000003",
                "label": "Precompiled"
            },
            {
                "address": "0xb2ecfe4e4d61f8790bbb9de2d1259b9e2410cea5",
                "label": "Blur.io: Marketplace 3"
            },
            {
                "address": "0x0000000000000000000000000000000000000000",
                "label": "Null Address"
            },
            {
                "address": "0x2f18f339620a63e43f0839eeb18d7de1e1be4dfb",
                "label": "Delegate"
            }
        ]
    },
    "trace": {
        "accountLabels": null,
        "dataMap": {
            "-1": {
                "invocation": {
                    "address": "0x8527638f213d19f93a73d0131b67dc73bf9d4442",
                    "callData": "",
                    "decodedMethod": null,
                    "errorInfo": "",
                    "fromAddress": "",
                    "gasUsed": 0,
                    "id": -1,
                    "methodDecoded": false,
                    "operation": "",
                    "output": "",
                    "revert": false,
                    "revertMessage": "",
                    "selector": "",
                    "status": false,
                    "value": ""
                },
                "nodeType": 0
            },
            "0": {
                "invocation": {
                    "address": "0xb2ecfe4e4d61f8790bbb9de2d1259b9e2410cea5",
                    "callData": "0x00000000000000000000000000000000000000000000000000000000000000400000000000000000000000000000000000000000000000000000000000000380000000000000000000000000ba8716dbdbbf336c560d2c1f36e087524644071600000000000000000000000051bb4c8bb4901d6aa061282cd7ed916eec715a2941f0977e7c0b9e1d2b1ae7ad0e2d3f044ce18b12ea6878f6f77dd02f493d6b6000000000000000000000000000000000000000000000000000000000000000010000000000000000000000000000000000000000000000000000000068b820c400000000000000000000000000000000000000000000000000000000000000000000000000000000000000000000000000000000000000000000000000000000000000000000000000000000000000000000000000000000000000000000000000000000000000000000000000000000925dc9da9e2e8d001e3f959d90dfb46600000000000000000000000000000000000000000000000000000000000001a00000000000000000000000000000000000000000000000000000000000000000000000000000000000000000000000000000000000000000000000000000000000000000000000000000000000000000000000000000000000000000000002c00000000000000000000000000000000000000000000000000000000000000000000000000000000000000000000000000000000000000000000000000000010000000000000000000000000000000000000000000000000000000000000000000000000000000000000000000000000000000000000000000000000000000000000000000000000000000000000000000000000000000000000000000000000100000000000000000000000000000000000000000000000005b09cd3e5e90000000000000000000000000000000000000000000000000000000000000000058e000000000000000000000000000000000000000000000000000000000000000100000000000000000000000000000000000000000000000000000000000000000000000000000000000000000000000000000000000000000000000000000041f1e4f9f9ff6c962f6f401296fab41d00598e5b4e8ea313b9091cda511871da837229fbd4cdfe606e3c8fa9903e0c648d00a730de7a862f4bda3aa22603a6b2d01c000000000000000000000000000000000000000000000000000000000000000000000000000000000000000000000000000000000000000000000000000059690acfd6a67d05487d7f07a0a9e99ec4df8213c5bf900c9f1448c580f9f5f72e1a85d38b6ec002bf90554a81d8423997b8570216658fcd6b297ce6bfd70d14681b013b64e06af68e5d010513ff70a3aaed9afeb8661116e6ce00000000000000",
                    "decodedMethod": {
                        "callParams": [
                            {
                                "name": "inputs",
                                "type": "((address,address,bytes32,uint256,uint256,uint8,(address,uint16),uint256),(uint256,bytes32[],(uint256,uint256,uint256,uint256),(uint256,uint256)),(address,uint16),bytes)",
                                "value": [
                                    {
                                        "name": "order",
                                        "type": "(address,address,bytes32,uint256,uint256,uint8,(address,uint16),uint256)",
                                        "value": [
                                            {
                                                "name": "trader",
                                                "type": "address",
                                                "value": "0xba8716dbdbbf336c560d2c1f36e0875246440716"
                                            },
                                            {
                                                "name": "collection",
                                                "type": "address",
                                                "value": "0x51bb4c8bb4901d6aa061282cd7ed916eec715a29"
                                            },
                                            {
                                                "name": "listingsRoot",
                                                "type": "bytes32",
                                                "value": "0x41f0977e7c0b9e1d2b1ae7ad0e2d3f044ce18b12ea6878f6f77dd02f493d6b60"
                                            },
                                            {
                                                "name": "numberOfListings",
                                                "type": "uint256",
                                                "value": "1"
                                            },
                                            {
                                                "name": "expirationTime",
                                                "type": "uint256",
                                                "value": "1,756,897,476"
                                            },
                                            {
                                                "name": "assetType",
                                                "type": "uint8",
                                                "value": "0"
                                            },
                                            {
                                                "name": "makerFee",
                                                "type": "(address,uint16)",
                                                "value": [
                                                    {
                                                        "name": "recipient",
                                                        "type": "address",
                                                        "value": "0x0000000000000000000000000000000000000000"
                                                    },
                                                    {
                                                        "name": "rate",
                                                        "type": "uint16",
                                                        "value": "0"
                                                    }
                                                ]
                                            },
                                            {
                                                "name": "salt",
                                                "type": "uint256",
                                                "value": "194,554,265,077,466,126,504,118,479,418,808,054,886"
                                            }
                                        ]
                                    },
                                    {
                                        "name": "exchange",
                                        "type": "(uint256,bytes32[],(uint256,uint256,uint256,uint256),(uint256,uint256))",
                                        "value": [
                                            {
                                                "name": "index",
                                                "type": "uint256",
                                                "value": "0"
                                            },
                                            {
                                                "name": "proof",
                                                "type": "bytes32[]",
                                                "value": []
                                            },
                                            {
                                                "name": "listing",
                                                "type": "(uint256,uint256,uint256,uint256)",
                                                "value": [
                                                    {
                                                        "name": "index",
                                                        "type": "uint256",
                                                        "value": "0"
                                                    },
                                                    {
                                                        "name": "tokenId",
                                                        "type": "uint256",
                                                        "value": "0"
                                                    },
                                                    {
                                                        "name": "amount",
                                                        "type": "uint256",
                                                        "value": "1"
                                                    },
                                                    {
                                                        "name": "price",
                                                        "type": "uint256",
                                                        "value": "410,000,000,000,000,000"
                                                    }
                                                ]
                                            },
                                            {
                                                "name": "taker",
                                                "type": "(uint256,uint256)",
                                                "value": [
                                                    {
                                                        "name": "tokenId",
                                                        "type": "uint256",
                                                        "value": "1,422"
                                                    },
                                                    {
                                                        "name": "amount",
                                                        "type": "uint256",
                                                        "value": "1"
                                                    }
                                                ]
                                            }
                                        ]
                                    },
                                    {
                                        "name": "takerFee",
                                        "type": "(address,uint16)",
                                        "value": [
                                            {
                                                "name": "recipient",
                                                "type": "address",
                                                "value": "0x0000000000000000000000000000000000000000"
                                            },
                                            {
                                                "name": "rate",
                                                "type": "uint16",
                                                "value": "0"
                                            }
                                        ]
                                    },
                                    {
                                        "name": "signature",
                                        "type": "bytes",
                                        "value": "0xf1e4f9f9ff6c962f6f401296fab41d00598e5b4e8ea313b9091cda511871da837229fbd4cdfe606e3c8fa9903e0c648d00a730de7a862f4bda3aa22603a6b2d01c"
                                    }
                                ]
                            },
                            {
                                "name": "oracleSignature",
                                "type": "bytes",
                                "value": "0x690acfd6a67d05487d7f07a0a9e99ec4df8213c5bf900c9f1448c580f9f5f72e1a85d38b6ec002bf90554a81d8423997b8570216658fcd6b297ce6bfd70d14681b013b64e06af68e5d010513ff70a3aaed9afeb8661116e6ce"
                            }
                        ],
                        "constructorArguments": "",
                        "name": "takeBidSingle",
                        "returnParams": [],
                        "signature": "takeBidSingle(((address,address,bytes32,uint256,uint256,uint8,(address,uint16),uint256),(uint256,bytes32[],(uint256,uint256,uint256,uint256),(uint256,uint256)),(address,uint16),bytes),bytes)"
                    },
                    "errorInfo": "",
                    "fromAddress": "0x8527638f213d19f93a73d0131b67dc73bf9d4442",
                    "gasUsed": 152872,
                    "id": 0,
                    "methodDecoded": true,
                    "operation": "CALL",
                    "output": "",
                    "revert": false,
                    "revertMessage": "",
                    "selector": "0xda815cb5",
                    "status": true,
                    "value": "0"
                },
                "nodeType": 0
            },
            "1": {
                "invocation": {
                    "address": "0x5fa60726e62c50af45ff2f6280c468da438a7837",
                    "callData": "0x00000000000000000000000000000000000000000000000000000000000000400000000000000000000000000000000000000000000000000000000000000380000000000000000000000000ba8716dbdbbf336c560d2c1f36e087524644071600000000000000000000000051bb4c8bb4901d6aa061282cd7ed916eec715a2941f0977e7c0b9e1d2b1ae7ad0e2d3f044ce18b12ea6878f6f77dd02f493d6b6000000000000000000000000000000000000000000000000000000000000000010000000000000000000000000000000000000000000000000000000068b820c400000000000000000000000000000000000000000000000000000000000000000000000000000000000000000000000000000000000000000000000000000000000000000000000000000000000000000000000000000000000000000000000000000000000000000000000000000000925dc9da9e2e8d001e3f959d90dfb46600000000000000000000000000000000000000000000000000000000000001a00000000000000000000000000000000000000000000000000000000000000000000000000000000000000000000000000000000000000000000000000000000000000000000000000000000000000000000000000000000000000000000002c00000000000000000000000000000000000000000000000000000000000000000000000000000000000000000000000000000000000000000000000000000010000000000000000000000000000000000000000000000000000000000000000000000000000000000000000000000000000000000000000000000000000000000000000000000000000000000000000000000000000000000000000000000000100000000000000000000000000000000000000000000000005b09cd3e5e90000000000000000000000000000000000000000000000000000000000000000058e000000000000000000000000000000000000000000000000000000000000000100000000000000000000000000000000000000000000000000000000000000000000000000000000000000000000000000000000000000000000000000000041f1e4f9f9ff6c962f6f401296fab41d00598e5b4e8ea313b9091cda511871da837229fbd4cdfe606e3c8fa9903e0c648d00a730de7a862f4bda3aa22603a6b2d01c000000000000000000000000000000000000000000000000000000000000000000000000000000000000000000000000000000000000000000000000000059690acfd6a67d05487d7f07a0a9e99ec4df8213c5bf900c9f1448c580f9f5f72e1a85d38b6ec002bf90554a81d8423997b8570216658fcd6b297ce6bfd70d14681b013b64e06af68e5d010513ff70a3aaed9afeb8661116e6ce00000000000000",
                    "decodedMethod": {
                        "callParams": [
                            {
                                "name": "inputs",
                                "type": "((address,address,bytes32,uint256,uint256,uint8,(address,uint16),uint256),(uint256,bytes32[],(uint256,uint256,uint256,uint256),(uint256,uint256)),(address,uint16),bytes)",
                                "value": [
                                    {
                                        "name": "order",
                                        "type": "(address,address,bytes32,uint256,uint256,uint8,(address,uint16),uint256)",
                                        "value": [
                                            {
                                                "name": "trader",
                                                "type": "address",
                                                "value": "0xba8716dbdbbf336c560d2c1f36e0875246440716"
                                            },
                                            {
                                                "name": "collection",
                                                "type": "address",
                                                "value": "0x51bb4c8bb4901d6aa061282cd7ed916eec715a29"
                                            },
                                            {
                                                "name": "listingsRoot",
                                                "type": "bytes32",
                                                "value": "0x41f0977e7c0b9e1d2b1ae7ad0e2d3f044ce18b12ea6878f6f77dd02f493d6b60"
                                            },
                                            {
                                                "name": "numberOfListings",
                                                "type": "uint256",
                                                "value": "1"
                                            },
                                            {
                                                "name": "expirationTime",
                                                "type": "uint256",
                                                "value": "1,756,897,476"
                                            },
                                            {
                                                "name": "assetType",
                                                "type": "uint8",
                                                "value": "0"
                                            },
                                            {
                                                "name": "makerFee",
                                                "type": "(address,uint16)",
                                                "value": [
                                                    {
                                                        "name": "recipient",
                                                        "type": "address",
                                                        "value": "0x0000000000000000000000000000000000000000"
                                                    },
                                                    {
                                                        "name": "rate",
                                                        "type": "uint16",
                                                        "value": "0"
                                                    }
                                                ]
                                            },
                                            {
                                                "name": "salt",
                                                "type": "uint256",
                                                "value": "194,554,265,077,466,126,504,118,479,418,808,054,886"
                                            }
                                        ]
                                    },
                                    {
                                        "name": "exchange",
                                        "type": "(uint256,bytes32[],(uint256,uint256,uint256,uint256),(uint256,uint256))",
                                        "value": [
                                            {
                                                "name": "index",
                                                "type": "uint256",
                                                "value": "0"
                                            },
                                            {
                                                "name": "proof",
                                                "type": "bytes32[]",
                                                "value": []
                                            },
                                            {
                                                "name": "listing",
                                                "type": "(uint256,uint256,uint256,uint256)",
                                                "value": [
                                                    {
                                                        "name": "index",
                                                        "type": "uint256",
                                                        "value": "0"
                                                    },
                                                    {
                                                        "name": "tokenId",
                                                        "type": "uint256",
                                                        "value": "0"
                                                    },
                                                    {
                                                        "name": "amount",
                                                        "type": "uint256",
                                                        "value": "1"
                                                    },
                                                    {
                                                        "name": "price",
                                                        "type": "uint256",
                                                        "value": "410,000,000,000,000,000"
                                                    }
                                                ]
                                            },
                                            {
                                                "name": "taker",
                                                "type": "(uint256,uint256)",
                                                "value": [
                                                    {
                                                        "name": "tokenId",
                                                        "type": "uint256",
                                                        "value": "1,422"
                                                    },
                                                    {
                                                        "name": "amount",
                                                        "type": "uint256",
                                                        "value": "1"
                                                    }
                                                ]
                                            }
                                        ]
                                    },
                                    {
                                        "name": "takerFee",
                                        "type": "(address,uint16)",
                                        "value": [
                                            {
                                                "name": "recipient",
                                                "type": "address",
                                                "value": "0x0000000000000000000000000000000000000000"
                                            },
                                            {
                                                "name": "rate",
                                                "type": "uint16",
                                                "value": "0"
                                            }
                                        ]
                                    },
                                    {
                                        "name": "signature",
                                        "type": "bytes",
                                        "value": "0xf1e4f9f9ff6c962f6f401296fab41d00598e5b4e8ea313b9091cda511871da837229fbd4cdfe606e3c8fa9903e0c648d00a730de7a862f4bda3aa22603a6b2d01c"
                                    }
                                ]
                            },
                            {
                                "name": "oracleSignature",
                                "type": "bytes",
                                "value": "0x690acfd6a67d05487d7f07a0a9e99ec4df8213c5bf900c9f1448c580f9f5f72e1a85d38b6ec002bf90554a81d8423997b8570216658fcd6b297ce6bfd70d14681b013b64e06af68e5d010513ff70a3aaed9afeb8661116e6ce"
                            }
                        ],
                        "constructorArguments": "",
                        "name": "takeBidSingle",
                        "returnParams": [],
                        "signature": "takeBidSingle(((address,address,bytes32,uint256,uint256,uint8,(address,uint16),uint256),(uint256,bytes32[],(uint256,uint256,uint256,uint256),(uint256,uint256)),(address,uint16),bytes),bytes)"
                    },
                    "errorInfo": "",
                    "fromAddress": "0xb2ecfe4e4d61f8790bbb9de2d1259b9e2410cea5",
                    "gasUsed": 124276,
                    "id": 1,
                    "methodDecoded": true,
                    "operation": "DELEGATECALL",
                    "output": "",
                    "revert": false,
                    "revertMessage": "",
                    "selector": "0xda815cb5",
                    "status": true,
                    "value": "0"
                },
                "nodeType": 0
            },
            "10": {
                "event": {
                    "contract": "0xb2ecfe4e4d61f8790bbb9de2d1259b9e2410cea5",
                    "decodedLog": {
                        "name": "Execution721Packed",
                        "params": [
                            {
                                "name": "orderHash",
                                "type": "bytes32",
                                "value": "0xef77590e76cd183e24513876c532e043cfc71202cda3c4d62089497af2086571"
                            },
                            {
                                "name": "tokenIdListingIndexTrader",
                                "type": "uint256",
                                "value": "532,034,428,925,718,510,377,866,602,484,882,641,213,822,295,454,517,014"
                            },
                            {
                                "name": "collectionPriceSide",
                                "type": "uint256",
                                "value": "452,312,849,182,482,059,678,994,357,120,303,081,327,357,286,065,246,855,952,794,358,774,632,634,921"
                            }
                        ],
                        "signature": "Execution721Packed(bytes32,uint256,uint256)"
                    },
                    "id": 10,
                    "logData": "0xef77590e76cd183e24513876c532e043cfc71202cda3c4d62089497af2086571000000000000000000058e00ba8716dbdbbf336c560d2c1f36e08752464407160100000005b09cd3e5e9000051bb4c8bb4901d6aa061282cd7ed916eec715a29",
                    "logDecoded": true,
                    "operation": "EVENT",
                    "revert": false,
                    "status": true,
                    "topics": [
                        "0x1d5e12b51dee5e4d34434576c3fb99714a85f57b0fd546ada4b0bddd736d12b2"
                    ]
                },
                "nodeType": 1
            },
            "2": {
                "invocation": {
                    "address": "0x0000000000000000000000000000000000000001",
                    "callData": "0xe334a873c193abdcf9a5115b973d8c68271ac2cfd548c61b495d9afd000000000000000000000000000000000000000000000000000000000000001b690acfd6a67d05487d7f07a0a9e99ec4df8213c5bf900c9f1448c580f9f5f72e1a85d38b6ec002bf90554a81d8423997b8570216658fcd6b297ce6bfd70d1468",
                    "decodedMethod": {
                        "callParams": [
                            {
                                "name": "hash",
                                "type": "bytes32",
                                "value": "0xbc21a77de334a873c193abdcf9a5115b973d8c68271ac2cfd548c61b495d9afd"
                            },
                            {
                                "name": "v",
                                "type": "uint256",
                                "value": "27"
                            },
                            {
                                "name": "r",
                                "type": "bytes32",
                                "value": "0x690acfd6a67d05487d7f07a0a9e99ec4df8213c5bf900c9f1448c580f9f5f72e"
                            },
                            {
                                "name": "s",
                                "type": "bytes32",
                                "value": "0x1a85d38b6ec002bf90554a81d8423997b8570216658fcd6b297ce6bfd70d1468"
                            }
                        ],
                        "constructorArguments": "",
                        "name": "ecrecover",
                        "returnParams": [
                            {
                                "name": "",
                                "type": "address",
                                "value": "0x6af68e5d010513ff70a3aaed9afeb8661116e6ce"
                            }
                        ],
                        "signature": "ecrecover(bytes32,uint256,bytes32,bytes32)"
                    },
                    "errorInfo": "",
                    "fromAddress": "0xb2ecfe4e4d61f8790bbb9de2d1259b9e2410cea5",
                    "gasUsed": 3000,
                    "id": 2,
                    "methodDecoded": true,
                    "operation": "STATICCALL",
                    "output": "0x0000000000000000000000006af68e5d010513ff70a3aaed9afeb8661116e6ce",
                    "revert": false,
                    "revertMessage": "",
                    "selector": "0xbc21a77d",
                    "status": true,
                    "value": "0"
                },
                "nodeType": 0
            },
            "3": {
                "invocation": {
                    "address": "0x0000000000000000000000000000000000000001",
                    "callData": "0x8b50cee89521a7350069de5ae5ebe9262c2a002a8ea9f2060fd488aa000000000000000000000000000000000000000000000000000000000000001cf1e4f9f9ff6c962f6f401296fab41d00598e5b4e8ea313b9091cda511871da837229fbd4cdfe606e3c8fa9903e0c648d00a730de7a862f4bda3aa22603a6b2d0",
                    "decodedMethod": {
                        "callParams": [
                            {
                                "name": "hash",
                                "type": "bytes32",
                                "value": "0x673ce0a98b50cee89521a7350069de5ae5ebe9262c2a002a8ea9f2060fd488aa"
                            },
                            {
                                "name": "v",
                                "type": "uint256",
                                "value": "28"
                            },
                            {
                                "name": "r",
                                "type": "bytes32",
                                "value": "0xf1e4f9f9ff6c962f6f401296fab41d00598e5b4e8ea313b9091cda511871da83"
                            },
                            {
                                "name": "s",
                                "type": "bytes32",
                                "value": "0x7229fbd4cdfe606e3c8fa9903e0c648d00a730de7a862f4bda3aa22603a6b2d0"
                            }
                        ],
                        "constructorArguments": "",
                        "name": "ecrecover",
                        "returnParams": [
                            {
                                "name": "",
                                "type": "address",
                                "value": "0xba8716dbdbbf336c560d2c1f36e0875246440716"
                            }
                        ],
                        "signature": "ecrecover(bytes32,uint256,bytes32,bytes32)"
                    },
                    "errorInfo": "",
                    "fromAddress": "0xb2ecfe4e4d61f8790bbb9de2d1259b9e2410cea5",
                    "gasUsed": 3000,
                    "id": 3,
                    "methodDecoded": true,
                    "operation": "STATICCALL",
                    "output": "0x000000000000000000000000ba8716dbdbbf336c560d2c1f36e0875246440716",
                    "revert": false,
                    "revertMessage": "",
                    "selector": "0x673ce0a9",
                    "status": true,
                    "value": "0"
                },
                "nodeType": 0
            },
            "4": {
                "invocation": {
                    "address": "0x2f18f339620a63e43f0839eeb18d7de1e1be4dfb",
                    "callData": "0x0000000000000000000000008527638f213d19f93a73d0131b67dc73bf9d44420000000000000000000000000000000000000000000000000000000000000001000000000000000000000000000000000000000000000000000000000000008000000000000000000000000000000000000000000000000000000000000000010000000000000000000000000000000000000000000000000000000000000001000000000000000000000000ba8716dbdbbf336c560d2c1f36e0875246440716000000000000000000000000000000000000000000000000000000000000058e000000000000000000000000000000000000000000000000000000000000000000000000000000000000000051bb4c8bb4901d6aa061282cd7ed916eec715a290000000000000000000000000000000000000000000000000000000000000000",
                    "decodedMethod": {
                        "callParams": [
                            {
                                "name": "taker",
                                "type": "address",
                                "value": "0x8527638f213d19f93a73d0131b67dc73bf9d4442"
                            },
                            {
                                "name": "orderType",
                                "type": "uint8",
                                "value": "1"
                            },
                            {
                                "name": "transfers",
                                "type": "(address,uint256,uint256,address,uint8)[]",
                                "value": [
                                    [
                                        {
                                            "name": "trader",
                                            "type": "address",
                                            "value": "0xba8716dbdbbf336c560d2c1f36e0875246440716"
                                        },
                                        {
                                            "name": "id",
                                            "type": "uint256",
                                            "value": "1,422"
                                        },
                                        {
                                            "name": "amount",
                                            "type": "uint256",
                                            "value": "0"
                                        },
                                        {
                                            "name": "collection",
                                            "type": "address",
                                            "value": "0x51bb4c8bb4901d6aa061282cd7ed916eec715a29"
                                        },
                                        {
                                            "name": "assetType",
                                            "type": "uint8",
                                            "value": "0"
                                        }
                                    ]
                                ]
                            },
                            {
                                "name": "length",
                                "type": "uint256",
                                "value": "1"
                            }
                        ],
                        "constructorArguments": "",
                        "name": "transfer",
                        "returnParams": [
                            {
                                "name": "successful",
                                "type": "bool[]",
                                "value": [
                                    true
                                ]
                            }
                        ],
                        "signature": "transfer(address,uint8,(address,uint256,uint256,address,uint8)[],uint256)"
                    },
                    "errorInfo": "",
                    "fromAddress": "0xb2ecfe4e4d61f8790bbb9de2d1259b9e2410cea5",
                    "gasUsed": 50758,
                    "id": 4,
                    "methodDecoded": true,
                    "operation": "CALL",
                    "output": "0x000000000000000000000000000000000000000000000000000000000000002000000000000000000000000000000000000000000000000000000000000000010000000000000000000000000000000000000000000000000000000000000001",
                    "revert": false,
                    "revertMessage": "",
                    "selector": "0xa1ccb98e",
                    "status": true,
                    "value": "0"
                },
                "nodeType": 0
            },
            "5": {
                "invocation": {
                    "address": "0x51bb4c8bb4901d6aa061282cd7ed916eec715a29",
                    "callData": "0x0000000000000000000000008527638f213d19f93a73d0131b67dc73bf9d4442000000000000000000000000ba8716dbdbbf336c560d2c1f36e0875246440716000000000000000000000000000000000000000000000000000000000000058e",
                    "decodedMethod": {
                        "callParams": [
                            {
                                "name": "from",
                                "type": "address",
                                "value": "0x8527638f213d19f93a73d0131b67dc73bf9d4442"
                            },
                            {
                                "name": "to",
                                "type": "address",
                                "value": "0xba8716dbdbbf336c560d2c1f36e0875246440716"
                            },
                            {
                                "name": "tokenId",
                                "type": "uint256",
                                "value": "1,422"
                            }
                        ],
                        "constructorArguments": "",
                        "name": "safeTransferFrom",
                        "returnParams": [],
                        "signature": "safeTransferFrom(address,address,uint256)"
                    },
                    "errorInfo": "",
                    "fromAddress": "0x2f18f339620a63e43f0839eeb18d7de1e1be4dfb",
                    "gasUsed": 46834,
                    "id": 5,
                    "methodDecoded": true,
                    "operation": "CALL",
                    "output": "",
                    "revert": false,
                    "revertMessage": "",
                    "selector": "0x42842e0e",
                    "status": true,
                    "value": "0"
                },
                "nodeType": 0
            },
            "6": {
                "event": {
                    "contract": "0x51bb4c8bb4901d6aa061282cd7ed916eec715a29",
                    "decodedLog": {
                        "name": "Transfer",
                        "params": [
                            {
                                "name": "from",
                                "type": "address",
                                "value": "0x8527638f213d19f93a73d0131b67dc73bf9d4442"
                            },
                            {
                                "name": "to",
                                "type": "address",
                                "value": "0xba8716dbdbbf336c560d2c1f36e0875246440716"
                            },
                            {
                                "decimalAvailable": true,
                                "name": "tokenId",
                                "type": "uint256",
                                "value": "1,422"
                            }
                        ],
                        "signature": "Transfer(address,address,uint256)"
                    },
                    "id": 6,
                    "logData": "0x",
                    "logDecoded": true,
                    "operation": "EVENT",
                    "revert": false,
                    "status": true,
                    "topics": [
                        "0xddf252ad1be2c89b69c2b068fc378daa952ba7f163c4a11628f55a4df523b3ef",
                        "0x0000000000000000000000008527638f213d19f93a73d0131b67dc73bf9d4442",
                        "0x000000000000000000000000ba8716dbdbbf336c560d2c1f36e0875246440716",
                        "0x000000000000000000000000000000000000000000000000000000000000058e"
                    ]
                },
                "nodeType": 1
            },
            "7": {
                "invocation": {
                    "address": "0x0000000000a39bb272e79075ade125fd351887ac",
                    "callData": "0x000000000000000000000000ba8716dbdbbf336c560d2c1f36e08752464407160000000000000000000000008527638f213d19f93a73d0131b67dc73bf9d444200000000000000000000000000000000000000000000000005b09cd3e5e90000",
                    "decodedMethod": {
                        "callParams": [
                            {
                                "name": "from",
                                "type": "address",
                                "value": "0xba8716dbdbbf336c560d2c1f36e0875246440716"
                            },
                            {
                                "name": "to",
                                "type": "address",
                                "value": "0x8527638f213d19f93a73d0131b67dc73bf9d4442"
                            },
                            {
                                "decimalAvailable": true,
                                "name": "amount",
                                "type": "uint256",
                                "value": "410,000,000,000,000,000"
                            }
                        ],
                        "constructorArguments": "",
                        "name": "transferFrom",
                        "returnParams": [
                            {
                                "name": "",
                                "type": "bool",
                                "value": true
                            }
                        ],
                        "signature": "transferFrom(address,address,uint256)"
                    },
                    "errorInfo": "",
                    "fromAddress": "0xb2ecfe4e4d61f8790bbb9de2d1259b9e2410cea5",
                    "gasUsed": 17826,
                    "id": 7,
                    "methodDecoded": true,
                    "operation": "CALL",
                    "output": "0x0000000000000000000000000000000000000000000000000000000000000001",
                    "revert": false,
                    "revertMessage": "",
                    "selector": "0x23b872dd",
                    "status": true,
                    "value": "0"
                },
                "nodeType": 0
            },
            "8": {
                "invocation": {
                    "address": "0x01a656024de4b89e2d0198bf4d468e8fd2358b17",
                    "callData": "0x000000000000000000000000ba8716dbdbbf336c560d2c1f36e08752464407160000000000000000000000008527638f213d19f93a73d0131b67dc73bf9d444200000000000000000000000000000000000000000000000005b09cd3e5e90000",
                    "decodedMethod": {
                        "callParams": [
                            {
                                "name": "from",
                                "type": "address",
                                "value": "0xba8716dbdbbf336c560d2c1f36e0875246440716"
                            },
                            {
                                "name": "to",
                                "type": "address",
                                "value": "0x8527638f213d19f93a73d0131b67dc73bf9d4442"
                            },
                            {
                                "decimalAvailable": true,
                                "name": "amount",
                                "type": "uint256",
                                "value": "410,000,000,000,000,000"
                            }
                        ],
                        "constructorArguments": "",
                        "name": "transferFrom",
                        "returnParams": [
                            {
                                "name": "",
                                "type": "bool",
                                "value": true
                            }
                        ],
                        "signature": "transferFrom(address,address,uint256)"
                    },
                    "errorInfo": "",
                    "fromAddress": "0x0000000000a39bb272e79075ade125fd351887ac",
                    "gasUsed": 12931,
                    "id": 8,
                    "methodDecoded": true,
                    "operation": "DELEGATECALL",
                    "output": "0x0000000000000000000000000000000000000000000000000000000000000001",
                    "revert": false,
                    "revertMessage": "",
                    "selector": "0x23b872dd",
                    "status": true,
                    "value": "0"
                },
                "nodeType": 0
            },
            "9": {
                "event": {
                    "contract": "0x0000000000a39bb272e79075ade125fd351887ac",
                    "decodedLog": {
                        "name": "Transfer",
                        "params": [
                            {
                                "name": "from",
                                "type": "address",
                                "value": "0xba8716dbdbbf336c560d2c1f36e0875246440716"
                            },
                            {
                                "name": "to",
                                "type": "address",
                                "value": "0x8527638f213d19f93a73d0131b67dc73bf9d4442"
                            },
                            {
                                "decimalAvailable": true,
                                "name": "value",
                                "type": "uint256",
                                "value": "410,000,000,000,000,000"
                            }
                        ],
                        "signature": "Transfer(address,address,uint256)"
                    },
                    "id": 9,
                    "logData": "0x00000000000000000000000000000000000000000000000005b09cd3e5e90000",
                    "logDecoded": true,
                    "operation": "EVENT",
                    "revert": false,
                    "status": true,
                    "topics": [
                        "0xddf252ad1be2c89b69c2b068fc378daa952ba7f163c4a11628f55a4df523b3ef",
                        "0x000000000000000000000000ba8716dbdbbf336c560d2c1f36e0875246440716",
                        "0x0000000000000000000000008527638f213d19f93a73d0131b67dc73bf9d4442"
                    ]
                },
                "nodeType": 1
            }
        },
        "gasFlame": [
            {
                "children": [
                    {
                        "children": [
                            {
                                "children": [],
                                "depth": 0,
                                "name": "Initial Gas",
                                "value": 28328
                            },
                            {
                                "children": [
                                    {
                                        "children": [
                                            {
                                                "children": [],
                                                "depth": 2,
                                                "name": "ecrecover",
                                                "value": 3000
                                            },
                                            {
                                                "children": [],
                                                "depth": 2,
                                                "name": "ecrecover",
                                                "value": 3000
                                            },
                                            {
                                                "children": [
                                                    {
                                                        "children": [],
                                                        "depth": 3,
                                                        "name": "safeTransferFrom",
                                                        "value": 46834
                                                    }
                                                ],
                                                "depth": 2,
                                                "name": "transfer",
                                                "value": 50758
                                            },
                                            {
                                                "children": [
                                                    {
                                                        "children": [],
                                                        "depth": 3,
                                                        "name": "transferFrom",
                                                        "value": 12931
                                                    }
                                                ],
                                                "depth": 2,
                                                "name": "transferFrom",
                                                "value": 17826
                                            }
                                        ],
                                        "depth": 1,
                                        "name": "takeBidSingle",
                                        "value": 124276
                                    }
                                ],
                                "depth": 0,
                                "name": "Executed Gas",
                                "value": 129344
                            }
                        ],
                        "depth": -1,
                        "name": "Actual Gas Used",
                        "value": 152872
                    },
                    {
                        "children": [],
                        "depth": -1,
                        "name": "Refunded Gas",
                        "value": 4800
                    }
                ],
                "depth": -2,
                "name": "Total Gas",
                "value": 157672
            }
        ],
        "isConfirmed": true,
        "mainTrace": [
            {
                "children": [
                    {
                        "children": [
                            {
                                "children": [
                                    {
                                        "children": [],
                                        "depth": 2,
                                        "id": 2,
                                        "order": 2
                                    },
                                    {
                                        "children": [],
                                        "depth": 2,
                                        "id": 3,
                                        "order": 3
                                    },
                                    {
                                        "children": [
                                            {
                                                "children": [
                                                    {
                                                        "children": [],
                                                        "depth": 4,
                                                        "id": 6,
                                                        "order": 6
                                                    }
                                                ],
                                                "depth": 3,
                                                "id": 5,
                                                "order": 5
                                            }
                                        ],
                                        "depth": 2,
                                        "id": 4,
                                        "order": 4
                                    },
                                    {
                                        "children": [
                                            {
                                                "children": [
                                                    {
                                                        "children": [],
                                                        "depth": 4,
                                                        "id": 9,
                                                        "order": 9
                                                    }
                                                ],
                                                "depth": 3,
                                                "id": 8,
                                                "order": 8
                                            }
                                        ],
                                        "depth": 2,
                                        "id": 7,
                                        "order": 7
                                    },
                                    {
                                        "children": [],
                                        "depth": 2,
                                        "id": 10,
                                        "order": 10
                                    }
                                ],
                                "depth": 1,
                                "id": 1,
                                "order": 1
                            }
                        ],
                        "depth": 0,
                        "id": 0,
                        "order": 0
                    }
                ],
                "depth": -1,
                "id": -1,
                "order": -1
            }
        ],
        "mainTraceNodeCount": 11,
        "parentIdMap": {
            "0": -1,
            "1": 0,
            "10": 1,
            "2": 1,
            "3": 1,
            "4": 1,
            "5": 4,
            "6": 5,
            "7": 1,
            "8": 7,
            "9": 8
        },
        "tidyTrace": [
            {
                "children": [
                    {
                        "children": [
                            {
                                "children": [
                                    {
                                        "children": [
                                            {
                                                "children": [
                                                    {
                                                        "children": [],
                                                        "depth": 4,
                                                        "id": 6,
                                                        "order": 6
                                                    }
                                                ],
                                                "depth": 3,
                                                "id": 5,
                                                "order": 5
                                            }
                                        ],
                                        "depth": 2,
                                        "id": 4,
                                        "order": 4
                                    },
                                    {
                                        "children": [
                                            {
                                                "children": [
                                                    {
                                                        "children": [],
                                                        "depth": 4,
                                                        "id": 9,
                                                        "order": 9
                                                    }
                                                ],
                                                "depth": 3,
                                                "id": 8,
                                                "order": 8
                                            }
                                        ],
                                        "depth": 2,
                                        "id": 7,
                                        "order": 7
                                    },
                                    {
                                        "children": [],
                                        "depth": 2,
                                        "id": 10,
                                        "order": 10
                                    }
                                ],
                                "depth": 1,
                                "id": 1,
                                "order": 1
                            }
                        ],
                        "depth": 0,
                        "id": 0,
                        "order": 0
                    }
                ],
                "depth": -1,
                "id": -1,
                "order": -1
            }
        ],
        "tidyTraceNodeCount": 9
    },
    "state_change": {
        "stateChanges": [
            {
                "address": "0x0000000000a39bb272e79075ade125fd351887ac",
                "erc": "",
                "slots": [
                    {
                        "current": "0x00000000000000000000000000000000000000000000000000d8014722580000",
                        "key": "0x334044807e0b292390ed79da65e77ff41ca90573040b716bc53e1055590cab3b",
                        "prev": "0x00000000000000000000000000000000000000000000000006889e1b08410000"
                    },
                    {
                        "current": "0x00000000000000000000000000000000000000000000000008792eb9446d391f",
                        "key": "0x0abb87cb657e39e8d4eb0a625b8004e77c468e152db29ca6e81413a73684a9f6",
                        "prev": "0x00000000000000000000000000000000000000000000000002c891e55e84391f"
                    }
                ],
                "storageVariables": [
                    {
                        "name": "_balances",
                        "type": "mapping(address => uint256)",
                        "value": {
                            "pairs": [
                                {
                                    "key": "0x8527638f213d19f93a73d0131b67dc73bf9d4442",
                                    "value": {
                                        "current": "610570597737249055",
                                        "prev": "200570597737249055",
                                        "typeTag": 1
                                    }
                                },
                                {
                                    "key": "0xba8716dbdbbf336c560d2c1f36e0875246440716",
                                    "value": {
                                        "current": "60800000000000000",
                                        "prev": "470800000000000000",
                                        "typeTag": 1
                                    }
                                }
                            ],
                            "typeTag": 4
                        }
                    }
                ]
            },
            {
                "address": "0x51bb4c8bb4901d6aa061282cd7ed916eec715a29",
                "erc": "ERC-721",
                "slots": [
                    {
                        "current": "0x0000000000000000000000000000000000000000000000000000000000000000",
                        "key": "0x47ef95bfb479690530af85020107b63e107e83f11181ba4d4ca4a2ac93e3d014",
                        "prev": "0x0000000000000000000000000000000000000000000000000000000000000001"
                    },
                    {
                        "current": "0x0000000000000000000000000000000000000000000000000000000000000001",
                        "key": "0x7c060c820539d5851c97e02118951e3638f4f515d8829248714a2185dacaeeaa",
                        "prev": "0x0000000000000000000000000000000000000000000000000000000000000000"
                    },
                    {
                        "current": "0x000000020000000066d6eecfba8716dbdbbf336c560d2c1f36e0875246440716",
                        "key": "0xa46c9309b9fc395fde400c8d114e132f3bba98a647cfd11bd17ae0daad90e529",
                        "prev": "0x000000020000000066d6e41f8527638f213d19f93a73d0131b67dc73bf9d4442"
                    }
                ],
                "storageVariables": [
                    {
                        "name": "_packedAddressData",
                        "type": "mapping(address => uint256)",
                        "value": {
                            "pairs": [
                                {
                                    "key": "0x8527638f213d19f93a73d0131b67dc73bf9d4442",
                                    "value": {
                                        "current": "0",
                                        "prev": "1",
                                        "typeTag": 1
                                    }
                                },
                                {
                                    "key": "0xba8716dbdbbf336c560d2c1f36e0875246440716",
                                    "value": {
                                        "current": "1",
                                        "prev": "0",
                                        "typeTag": 1
                                    }
                                }
                            ],
                            "typeTag": 4
                        }
                    },
                    {
                        "name": "_packedOwnerships",
                        "type": "mapping(uint256 => uint256)",
                        "value": {
                            "pairs": [
                                {
                                    "key": "1422",
                                    "value": {
                                        "current": "53919893336822898789853725154369789312149438436741236944666049644310",
                                        "prev": "53919893336822894790880534716163327609821836481356608757023595381826",
                                        "typeTag": 1
                                    }
                                }
                            ],
                            "typeTag": 4
                        }
                    }
                ]
            },
            {
                "address": "0xb2ecfe4e4d61f8790bbb9de2d1259b9e2410cea5",
                "erc": "",
                "slots": [
                    {
                        "current": "0x0000000000000000000000000000000000000000000000000000000000000001",
                        "key": "0x373cb983a0cd87f433e125e5b01f1c9c7cfc8c397d46b5ccee1411fa3877cf56",
                        "prev": "0x0000000000000000000000000000000000000000000000000000000000000000"
                    }
                ],
                "storageVariables": [
                    {
                        "name": "amountTaken",
                        "type": "mapping(address => mapping(bytes32 => mapping(uint256 => uint256)))",
                        "value": {
                            "pairs": [
                                {
                                    "key": "0xba8716dbdbbf336c560d2c1f36e0875246440716",
                                    "value": {
                                        "pairs": [
                                            {
                                                "key": "0xef77590e76cd183e24513876c532e043cfc71202cda3c4d62089497af2086571",
                                                "value": {
                                                    "pairs": [
                                                        {
                                                            "key": "0",
                                                            "value": {
                                                                "current": "1",
                                                                "prev": "0",
                                                                "typeTag": 1
                                                            }
                                                        }
                                                    ],
                                                    "typeTag": 4
                                                }
                                            }
                                        ],
                                        "typeTag": 4
                                    }
                                }
                            ],
                            "typeTag": 4
                        }
                    }
                ]
            }
        ]
    }
}