{
    "balance_change": {
        "balanceChanges": []
    },
    "profile": {
        "basic_info": {
            "baseFee": "",
            "blockNumber": 4037569,
            "callData": "0x0a19b14a0000000000000000000000000000000000000000000000000000000000000000000000000000000000000000000000000000000000000007dc477bc1cfa40000000000000000000000000000d4fa1460f537bb9085d22c7bccb5dd450ef28e3a000000000000000000000000000000000000000000000000000000e8d4a5100000000000000000000000000000000000000000000000000000000000003dbd3e00000000000000000000000000000000000000000000000000000000c7fef567000000000000000000000000ee1fc05effda63eea03270b6b40b878d9fb5f5bf000000000000000000000000000000000000000000000000000000000000001c74b4fb3ca415fa54bb9703270dc9fd0bd7b91a7eed853a22f4de2f174d15881c0e8509538d14e37e60a338cd8b48de220559e7ff50279aa99fbd50565ce8bbb000000000000000000000000000000000000000000000000091b77f47323f1000",
            "debugEnable": true,
            "errorInfo": "",
            "eventCount": 1,
            "feeRecipient": "0x4bb96091ee9d802ed039c4d1a5f6216f90f81b01",
            "formatValue": "0",
            "gasLimit": 250000,
            "gasPrice": "4",
            "gasUsed": 77986,
            "intTxnCount": 2,
            "internalRevert": false,
            "internalRevertMessage": "",
            "isContractCreation": false,
            "isFlashloan": false,
            "maxFee": "",
            "nonce": 5,
            "overwritedBlockNumber": -1,
            "priorityFee": "",
            "receiver": "0x8d12a197cb00d4747a1fe03395095ce2a5cc6819",
            "revertMessage": "",
            "sender": "0xb7b53362b4942308c313fd3808efab7c85643cb1",
            "simulationEnable": true,
            "sourceTxnHash": "0xedd5d84f43926b4af3bc1b425241c51802f23bed649f9821a72069f828b1fa9d",
            "status": true,
            "timestamp": "2017-07-18T03:31:01Z",
            "transactionFee": "0.000311944",
            "txnHash": "0xedd5d84f43926b4af3bc1b425241c51802f23bed649f9821a72069f828b1fa9d",
            "txnIndex": 43,
            "type": 0,
            "value": "0"
        },
        "fund_flow": [],
        "token_infos": [
            {
                "address": "0xc02aaa39b223fe8d0a0e5c4f27ead9083c756cc2",
                "decimals": 18
            },
            {
                "address": "0xeeeeeeeeeeeeeeeeeeeeeeeeeeeeeeeeeeeeeeee",
                "decimals": 18
            }
        ]
    },
    "address_label": {
        "labels": [
            {
                "address": "0x0000000000000000000000000000000000000004",
                "label": "Precompiled"
            },
            {
                "address": "0xeeeeeeeeeeeeeeeeeeeeeeeeeeeeeeeeeeeeeeee",
                "label": "Ether"
            },
            {
                "address": "0x8d12a197cb00d4747a1fe03395095ce2a5cc6819",
                "label": "EtherDelta"
            },
            {
                "address": "0x0000000000000000000000000000000000000002",
                "label": "Precompiled"
            },
            {
                "address": "0x0000000000000000000000000000000000000000",
                "label": "Null Address"
            },
            {
                "address": "0xd4fa1460f537bb9085d22c7bccb5dd450ef28e3a",
                "label": "Populous Token"
            },
            {
                "address": "0x0000000000000000000000000000000000000001",
                "label": "Precompiled"
            },
            {
                "address": "0x0000000000000000000000000000000000000003",
                "label": "Precompiled"
            }
        ]
    },
    "trace": {
        "accountLabels": null,
        "dataMap": {
            "-1": {
                "invocation": {
                    "address": "0xb7b53362b4942308c313fd3808efab7c85643cb1",
                    "callData": "",
                    "decodedMethod": null,
                    "errorInfo": "",
                    "fromAddress": "",
                    "gasUsed": 0,
                    "id": -1,
                    "methodDecoded": false,
                    "operation": "",
                    "output": "",
                    "revert": false,
                    "revertMessage": "",
                    "selector": "",
                    "status": false,
                    "value": ""
                },
                "nodeType": 0
            },
            "0": {
                "invocation": {
                    "address": "0x8d12a197cb00d4747a1fe03395095ce2a5cc6819",
                    "callData": "0x0000000000000000000000000000000000000000000000000000000000000000000000000000000000000000000000000000000000000007dc477bc1cfa40000000000000000000000000000d4fa1460f537bb9085d22c7bccb5dd450ef28e3a000000000000000000000000000000000000000000000000000000e8d4a5100000000000000000000000000000000000000000000000000000000000003dbd3e00000000000000000000000000000000000000000000000000000000c7fef567000000000000000000000000ee1fc05effda63eea03270b6b40b878d9fb5f5bf000000000000000000000000000000000000000000000000000000000000001c74b4fb3ca415fa54bb9703270dc9fd0bd7b91a7eed853a22f4de2f174d15881c0e8509538d14e37e60a338cd8b48de220559e7ff50279aa99fbd50565ce8bbb000000000000000000000000000000000000000000000000091b77f47323f1000",
                    "decodedMethod": {
                        "callParams": [
                            {
                                "name": "tokenGet",
                                "type": "address",
                                "value": "0x0000000000000000000000000000000000000000"
                            },
                            {
                                "name": "amountGet",
                                "type": "uint256",
                                "value": "145,000,000,000,000,000,000"
                            },
                            {
                                "name": "tokenGive",
                                "type": "address",
                                "value": "0xd4fa1460f537bb9085d22c7bccb5dd450ef28e3a"
                            },
                            {
                                "name": "amountGive",
                                "type": "uint256",
                                "value": "1,000,000,000,000"
                            },
                            {
                                "name": "expires",
                                "type": "uint256",
                                "value": "4,046,142"
                            },
                            {
                                "name": "nonce",
                                "type": "uint256",
                                "value": "3,355,374,951"
                            },
                            {
                                "name": "user",
                                "type": "address",
                                "value": "0xee1fc05effda63eea03270b6b40b878d9fb5f5bf"
                            },
                            {
                                "name": "v",
                                "type": "uint8",
                                "value": "28"
                            },
                            {
                                "name": "r",
                                "type": "bytes32",
                                "value": "0x74b4fb3ca415fa54bb9703270dc9fd0bd7b91a7eed853a22f4de2f174d15881c"
                            },
                            {
                                "name": "s",
                                "type": "bytes32",
                                "value": "0x0e8509538d14e37e60a338cd8b48de220559e7ff50279aa99fbd50565ce8bbb0"
                            },
                            {
                                "name": "amount",
                                "type": "uint256",
                                "value": "10,500,001,000,000,000,000"
                            }
                        ],
                        "constructorArguments": "",
                        "name": "trade",
                        "returnParams": [],
                        "signature": "trade(address,uint256,address,uint256,uint256,uint256,address,uint8,bytes32,bytes32,uint256)"
                    },
                    "errorInfo": "",
                    "fromAddress": "0xb7b53362b4942308c313fd3808efab7c85643cb1",
                    "gasUsed": 77986,
                    "id": 0,
                    "methodDecoded": true,
                    "operation": "CALL",
                    "output": "",
                    "revert": false,
                    "revertMessage": "",
                    "selector": "0x0a19b14a",
                    "status": true,
                    "value": "0"
                },
                "nodeType": 0
            },
            "1": {
                "invocation": {
                    "address": "0x0000000000000000000000000000000000000002",
                    "callData": "0xcb00d4747a1fe03395095ce2a5cc68190000000000000000000000000000000000000000000000000000000000000000000000000000000000000007dc477bc1cfa40000d4fa1460f537bb9085d22c7bccb5dd450ef28e3a000000000000000000000000000000000000000000000000000000e8d4a5100000000000000000000000000000000000000000000000000000000000003dbd3e00000000000000000000000000000000000000000000000000000000c7fef567",
                    "decodedMethod": {
                        "callParams": [
                            {
                                "name": "data",
                                "type": "bytes",
                                "value": "0x8d12a197cb00d4747a1fe03395095ce2a5cc68190000000000000000000000000000000000000000000000000000000000000000000000000000000000000007dc477bc1cfa40000d4fa1460f537bb9085d22c7bccb5dd450ef28e3a000000000000000000000000000000000000000000000000000000e8d4a5100000000000000000000000000000000000000000000000000000000000003dbd3e00000000000000000000000000000000000000000000000000000000c7fef567"
                            }
                        ],
                        "constructorArguments": "",
                        "name": "sha256hash",
                        "returnParams": [
                            {
                                "name": "hash",
                                "type": "bytes32",
                                "value": "0x6123547442ec5c9d1328ee4055a1fa0ad5bc992eb0819374efbc9519b9b03814"
                            }
                        ],
                        "signature": "sha256hash(bytes)"
                    },
                    "errorInfo": "",
                    "fromAddress": "0x8d12a197cb00d4747a1fe03395095ce2a5cc6819",
                    "gasUsed": 132,
                    "id": 1,
                    "methodDecoded": true,
                    "operation": "CALL",
                    "output": "0x6123547442ec5c9d1328ee4055a1fa0ad5bc992eb0819374efbc9519b9b03814",
                    "revert": false,
                    "revertMessage": "",
                    "selector": "0x8d12a197",
                    "status": true,
                    "value": "0"
                },
                "nodeType": 0
            },
            "2": {
                "invocation": {
                    "address": "0x0000000000000000000000000000000000000001",
                    "callData": "0x589008adc6f383f3925c8aa631b48343ecfe96684a3fed0a53574aab000000000000000000000000000000000000000000000000000000000000001c74b4fb3ca415fa54bb9703270dc9fd0bd7b91a7eed853a22f4de2f174d15881c0e8509538d14e37e60a338cd8b48de220559e7ff50279aa99fbd50565ce8bbb0",
                    "decodedMethod": {
                        "callParams": [
                            {
                                "name": "hash",
                                "type": "bytes32",
                                "value": "0x03ee2741589008adc6f383f3925c8aa631b48343ecfe96684a3fed0a53574aab"
                            },
                            {
                                "name": "v",
                                "type": "uint256",
                                "value": "28"
                            },
                            {
                                "name": "r",
                                "type": "bytes32",
                                "value": "0x74b4fb3ca415fa54bb9703270dc9fd0bd7b91a7eed853a22f4de2f174d15881c"
                            },
                            {
                                "name": "s",
                                "type": "bytes32",
                                "value": "0x0e8509538d14e37e60a338cd8b48de220559e7ff50279aa99fbd50565ce8bbb0"
                            }
                        ],
                        "constructorArguments": "",
                        "name": "ecrecover",
                        "returnParams": [
                            {
                                "name": "",
                                "type": "address",
                                "value": "0xee1fc05effda63eea03270b6b40b878d9fb5f5bf"
                            }
                        ],
                        "signature": "ecrecover(bytes32,uint256,bytes32,bytes32)"
                    },
                    "errorInfo": "",
                    "fromAddress": "0x8d12a197cb00d4747a1fe03395095ce2a5cc6819",
                    "gasUsed": 3000,
                    "id": 2,
                    "methodDecoded": true,
                    "operation": "CALL",
                    "output": "0x000000000000000000000000ee1fc05effda63eea03270b6b40b878d9fb5f5bf",
                    "revert": false,
                    "revertMessage": "",
                    "selector": "0x03ee2741",
                    "status": true,
                    "value": "0"
                },
                "nodeType": 0
            },
            "3": {
                "event": {
                    "contract": "0x8d12a197cb00d4747a1fe03395095ce2a5cc6819",
                    "decodedLog": {
                        "name": "Trade",
                        "params": [
                            {
                                "name": "tokenGet",
                                "type": "address",
                                "value": "0x0000000000000000000000000000000000000000"
                            },
                            {
                                "name": "amountGet",
                                "type": "uint256",
                                "value": "10,500,001,000,000,000,000"
                            },
                            {
                                "name": "tokenGive",
                                "type": "address",
                                "value": "0xd4fa1460f537bb9085d22c7bccb5dd450ef28e3a"
                            },
                            {
                                "name": "amountGive",
                                "type": "uint256",
                                "value": "72,413,800,000"
                            },
                            {
                                "name": "get",
                                "type": "address",
                                "value": "0xee1fc05effda63eea03270b6b40b878d9fb5f5bf"
                            },
                            {
                                "name": "give",
                                "type": "address",
                                "value": "0xb7b53362b4942308c313fd3808efab7c85643cb1"
                            }
                        ],
                        "signature": "Trade(address,uint256,address,uint256,address,address)"
                    },
                    "id": 3,
                    "logData": "0x000000000000000000000000000000000000000000000000000000000000000000000000000000000000000000000000000000000000000091b77f47323f1000000000000000000000000000d4fa1460f537bb9085d22c7bccb5dd450ef28e3a00000000000000000000000000000000000000000000000000000010dc32e640000000000000000000000000ee1fc05effda63eea03270b6b40b878d9fb5f5bf000000000000000000000000b7b53362b4942308c313fd3808efab7c85643cb1",
                    "logDecoded": true,
                    "operation": "EVENT",
                    "revert": false,
                    "status": true,
                    "topics": [
                        "0x6effdda786735d5033bfad5f53e5131abcced9e52be6c507b62d639685fbed6d"
                    ]
                },
                "nodeType": 1
            }
        },
        "gasFlame": [
            {
                "children": [
                    {
                        "children": [
                            {
                                "children": [],
                                "depth": 0,
                                "name": "Initial Gas",
                                "value": 31000
                            },
                            {
                                "children": [
                                    {
                                        "children": [],
                                        "depth": 1,
                                        "name": "sha256hash",
                                        "value": 132
                                    },
                                    {
                                        "children": [],
                                        "depth": 1,
                                        "name": "ecrecover",
                                        "value": 3000
                                    }
                                ],
                                "depth": 0,
                                "name": "Executed Gas",
                                "value": 46986
                            }
                        ],
                        "depth": -1,
                        "name": "Actual Gas Used",
                        "value": 77986
                    },
                    {
                        "children": [],
                        "depth": -1,
                        "name": "Refunded Gas",
                        "value": 0
                    }
                ],
                "depth": -2,
                "name": "Total Gas",
                "value": 77986
            }
        ],
        "isConfirmed": true,
        "mainTrace": [
            {
                "children": [
                    {
                        "children": [
                            {
                                "children": [],
                                "depth": 1,
                                "id": 1,
                                "order": 1
                            },
                            {
                                "children": [],
                                "depth": 1,
                                "id": 2,
                                "order": 2
                            },
                            {
                                "children": [],
                                "depth": 1,
                                "id": 3,
                                "order": 3
                            }
                        ],
                        "depth": 0,
                        "id": 0,
                        "order": 0
                    }
                ],
                "depth": -1,
                "id": -1,
                "order": -1
            }
        ],
        "mainTraceNodeCount": 4,
        "parentIdMap": {
            "0": -1,
            "1": 0,
            "2": 0,
            "3": 0
        },
        "tidyTrace": [
            {
                "children": [
                    {
                        "children": [
                            {
                                "children": [],
                                "depth": 1,
                                "id": 1,
                                "order": 1
                            },
                            {
                                "children": [],
                                "depth": 1,
                                "id": 2,
                                "order": 2
                            },
                            {
                                "children": [],
                                "depth": 1,
                                "id": 3,
                                "order": 3
                            }
                        ],
                        "depth": 0,
                        "id": 0,
                        "order": 0
                    }
                ],
                "depth": -1,
                "id": -1,
                "order": -1
            }
        ],
        "tidyTraceNodeCount": 4
    },
    "state_change": {
        "stateChanges": [
            {
                "address": "0x8d12a197cb00d4747a1fe03395095ce2a5cc6819",
                "erc": "",
                "slots": [
                    {
                        "current": "0x0000000000000000000000000000000000000000000000222c299038af925796",
                        "key": "0x9db71ea29ae27159ae6b0bc7608a91ca5e83d8e7e559f64559591e0344fb950e",
                        "prev": "0x0000000000000000000000000000000000000000000000222bb9a722b6553996"
                    },
                    {
                        "current": "0x00000000000000000000000000000000000000000000000000000757733beab6",
                        "key": "0xb31d51e6a17e66883a61ed90584c9e52320209e94a5ecb6870e7d677556ec754",
                        "prev": "0x000000000000000000000000000000000000000000000000000007684f6ed0f6"
                    },
                    {
                        "current": "0x000000000000000000000000000000000000000000000000000000725293f520",
                        "key": "0x065fa734c37e52e48514398438cbd37677f7b6c54486c8d5a4f0247bf2ba3e5c",
                        "prev": "0x0000000000000000000000000000000000000000000000000000006176610ee0"
                    },
                    {
                        "current": "0x000000000000000000000000000000000000000000000003479b302f8d113000",
                        "key": "0x396a4e75683269216e8dcdc5bdc6f3fccf65238ff733f9a164ce368b42c62694",
                        "prev": "0x000000000000000000000000000000000000000000000002b5e3b0e85ad22000"
                    },
                    {
                        "current": "0x0000000000000000000000000000000000000000000000018d87d2db1a0c1780",
                        "key": "0x8cc8445c0a9dabb32d9d00bb628837508e361576f8c23ebd2e0fbc3d277d948b",
                        "prev": "0x0000000000000000000000000000000000000000000000021faf3b3845884580"
                    },
                    {
                        "current": "0x00000000000000000000000000000000000000000000000edbfb996282edde33",
                        "key": "0x9781526cb9ab621f1b48e6c1162c82269afefa382abbf5de3fb1a4e68c489475",
                        "prev": "0x00000000000000000000000000000000000000000000000e4a441a1b50aece33"
                    }
                ],
                "storageVariables": []
            }
        ]
    }
}