{
    "balance_change": {
        "balanceChanges": [
            {
                "account": "0xaae0bfd86199f21bf7f55b3941d772849b9a1f54",
                "assets": [
                    {
                        "address": "0xeeeeeeeeeeeeeeeeeeeeeeeeeeeeeeeeeeeeeeee",
                        "amount": "0.009871522515618481",
                        "iconUrl": "https://assets.blocksec.com/image/1663669189317-3.png",
                        "isERC1155": false,
                        "isERC721": false,
                        "sign": false,
                        "value": "28.30580476"
                    }
                ]
            },
            {
                "account": "0x6774bcbd5cecef1336b5300fb5186a12ddd8b367",
                "assets": [
                    {
                        "address": "0xeeeeeeeeeeeeeeeeeeeeeeeeeeeeeeeeeeeeeeee",
                        "amount": "0.009794242515618481",
                        "iconUrl": "https://assets.blocksec.com/image/1663669189317-3.png",
                        "isERC1155": false,
                        "isERC721": false,
                        "sign": true,
                        "value": "28.08421051"
                    }
                ]
            },
            {
                "account": "0x8fa3b4570b4c96f8036c13b64971ba65867eeb48",
                "assets": [
                    {
                        "address": "0xeeeeeeeeeeeeeeeeeeeeeeeeeeeeeeeeeeeeeeee",
                        "amount": "0.00007728",
                        "iconUrl": "https://assets.blocksec.com/image/1663669189317-3.png",
                        "isERC1155": false,
                        "isERC721": false,
                        "sign": true,
                        "value": "0.22159424"
                    }
                ]
            }
        ]
    },
    "profile": {
        "basic_info": {
            "baseFee": "18.709232751",
            "blockNumber": 19258022,
            "callData": "0x9f8420b30000000000000000000000000000000000000000000000000022cbcfc9fccab10000000000000000000000000000000000000000000000000000000000029040",
            "debugEnable": true,
            "errorInfo": "",
            "eventCount": 4,
            "feeRecipient": "0x721d3be5d26c271226c97b05b7802a4a18ec484f",
            "formatValue": "0.009886978515618481",
            "gasLimit": 332631,
            "gasPrice": "18.713522314",
            "gasUsed": 304874,
            "intTxnCount": 18,
            "internalRevert": false,
            "internalRevertMessage": "",
            "isContractCreation": false,
            "isFlashloan": false,
            "maxFee": "19.764735613",
            "nonce": 2,
            "overwritedBlockNumber": -1,
            "priorityFee": "0.004289563",
            "receiver": "0xf8b1378579659d8f7ee5f3c929c2f3e332e41fd6",
            "revertMessage": "",
            "sender": "0xaae0bfd86199f21bf7f55b3941d772849b9a1f54",
            "simulationEnable": true,
            "sourceTxnHash": "0xed1598be8b505a26acc42f1ec292df440f3cd171913f50d7bd3b44be4bd67308",
            "status": true,
            "timestamp": "2024-02-18T23:45:35Z",
            "transactionFee": "0.005705266401958436",
            "txnHash": "0xed1598be8b505a26acc42f1ec292df440f3cd171913f50d7bd3b44be4bd67308",
            "txnIndex": 103,
            "type": 2,
            "value": "9886978515618481"
        },
        "fund_flow": [
            {
                "amount": "0.009886978515618481",
                "from": "0xaae0bfd86199f21bf7f55b3941d772849b9a1f54",
                "id": 1,
                "isERC1155": false,
                "isERC721": false,
                "isReverted": false,
                "order": 1,
                "to": "0xf8b1378579659d8f7ee5f3c929c2f3e332e41fd6",
                "token": "0xeeeeeeeeeeeeeeeeeeeeeeeeeeeeeeeeeeeeeeee"
            },
            {
                "amount": "0.009886978515618481",
                "from": "0xf8b1378579659d8f7ee5f3c929c2f3e332e41fd6",
                "id": 2,
                "isERC1155": false,
                "isERC721": false,
                "isReverted": false,
                "order": 2,
                "to": "0x7f2b8c31f88b6006c382775eea88297ec1e3e905",
                "token": "0xeeeeeeeeeeeeeeeeeeeeeeeeeeeeeeeeeeeeeeee"
            },
            {
                "amount": "0.009886978515618481",
                "from": "0x7f2b8c31f88b6006c382775eea88297ec1e3e905",
                "id": 3,
                "isERC1155": false,
                "isERC721": false,
                "isReverted": false,
                "order": 3,
                "to": "0x6774bcbd5cecef1336b5300fb5186a12ddd8b367",
                "token": "0xeeeeeeeeeeeeeeeeeeeeeeeeeeeeeeeeeeeeeeee"
            },
            {
                "amount": "0.00007728",
                "from": "0x6774bcbd5cecef1336b5300fb5186a12ddd8b367",
                "id": 4,
                "isERC1155": false,
                "isERC721": false,
                "isReverted": false,
                "order": 4,
                "to": "0x8fa3b4570b4c96f8036c13b64971ba65867eeb48",
                "token": "0xeeeeeeeeeeeeeeeeeeeeeeeeeeeeeeeeeeeeeeee"
            },
            {
                "amount": "0.000015456",
                "from": "0x6774bcbd5cecef1336b5300fb5186a12ddd8b367",
                "id": 5,
                "isERC1155": false,
                "isERC721": false,
                "isReverted": false,
                "order": 5,
                "to": "0xaae0bfd86199f21bf7f55b3941d772849b9a1f54",
                "token": "0xeeeeeeeeeeeeeeeeeeeeeeeeeeeeeeeeeeeeeeee"
            }
        ],
        "token_infos": [
            {
                "address": "0xc02aaa39b223fe8d0a0e5c4f27ead9083c756cc2",
                "decimals": 18
            },
            {
                "address": "0xeeeeeeeeeeeeeeeeeeeeeeeeeeeeeeeeeeeeeeee",
                "decimals": 18
            }
        ]
    },
    "address_label": {
        "labels": [
            {
                "address": "0x987e300fdfb06093859358522a79098848c33852",
                "label": "Scroll: Old L2 Gas Price Oracle Proxy"
            },
            {
                "address": "0x6774bcbd5cecef1336b5300fb5186a12ddd8b367",
                "label": "Scroll: L1 Scroll Messenger Proxy"
            },
            {
                "address": "0x8fa3b4570b4c96f8036c13b64971ba65867eeb48",
                "label": "GnosisSafeProxy_8fa3_eb48"
            },
            {
                "address": "0x0000000000000000000000000000000000000003",
                "label": "Precompiled"
            },
            {
                "address": "0xd9db270c1b5e3bd161e8c8503c55ceabee709552",
                "label": "Safe: Singleton 1.3.0"
            },
            {
                "address": "0x0d7e906bd9cafa154b048cfa766cc1e54e39af9b",
                "label": "Scroll: L1 Message Queue Proxy"
            },
            {
                "address": "0x1fcbe079c4bbab37406dab7dfd35acae37d5c55d",
                "label": "Scroll: L1 ETH Gateway Implementation"
            },
            {
                "address": "0xb93ac04010bd61f45bf492022a5b49a902f798f3",
                "label": "Scroll: L1 Gateway Router Implementation"
            },
            {
                "address": "0xf8b1378579659d8f7ee5f3c929c2f3e332e41fd6",
                "label": "Scroll: L1 Gateway Router Proxy"
            },
            {
                "address": "0x0000000000000000000000000000000000000004",
                "label": "Precompiled"
            },
            {
                "address": "0xeeeeeeeeeeeeeeeeeeeeeeeeeeeeeeeeeeeeeeee",
                "label": "Ether"
            },
            {
                "address": "0xaf2f898a8680cb52766abe0588ebe6b9bfe37845",
                "label": "Scroll: L1 Scroll Messenger Implementation"
            },
            {
                "address": "0x7f2b8c31f88b6006c382775eea88297ec1e3e905",
                "label": "Scroll: L1 ETH Gateway Proxy"
            },
            {
                "address": "0xbc9d741501a20f962756c95bf906b4abffadcf8f",
                "label": "Scroll: L1 Message Queue Implementation"
            },
            {
                "address": "0xfdf1ee0098168eaa61bf87db68c39c85151a4e9e",
                "label": "Scroll: L2 Gas Price Oracle Implementation"
            },
            {
                "address": "0x6ea73e05adc79974b931123675ea8f78ffdacdf0",
                "label": "Fallback"
            },
            {
                "address": "0x0000000000000000000000000000000000000001",
                "label": "Precompiled"
            },
            {
                "address": "0x0000000000000000000000000000000000000002",
                "label": "Precompiled"
            }
        ]
    },
    "trace": {
        "accountLabels": null,
        "dataMap": {
            "-1": {
                "invocation": {
                    "address": "0xaae0bfd86199f21bf7f55b3941d772849b9a1f54",
                    "callData": "",
                    "decodedMethod": null,
                    "errorInfo": "",
                    "fromAddress": "",
                    "gasUsed": 0,
                    "id": -1,
                    "methodDecoded": false,
                    "operation": "",
                    "output": "",
                    "revert": false,
                    "revertMessage": "",
                    "selector": "",
                    "status": false,
                    "value": ""
                },
                "nodeType": 0
            },
            "0": {
                "invocation": {
                    "address": "0xf8b1378579659d8f7ee5f3c929c2f3e332e41fd6",
                    "callData": "0x0000000000000000000000000000000000000000000000000022cbcfc9fccab10000000000000000000000000000000000000000000000000000000000029040",
                    "decodedMethod": {
                        "callParams": [
                            {
                                "name": "_amount",
                                "type": "uint256",
                                "value": "9,794,242,515,618,481"
                            },
                            {
                                "name": "_gasLimit",
                                "type": "uint256",
                                "value": "168,000"
                            }
                        ],
                        "constructorArguments": "",
                        "name": "depositETH",
                        "returnParams": [],
                        "signature": "depositETH(uint256,uint256)"
                    },
                    "errorInfo": "",
                    "fromAddress": "0xaae0bfd86199f21bf7f55b3941d772849b9a1f54",
                    "gasUsed": 304874,
                    "id": 0,
                    "methodDecoded": true,
                    "operation": "CALL",
                    "output": "",
                    "revert": false,
                    "revertMessage": "",
                    "selector": "0x9f8420b3",
                    "status": true,
                    "value": "0.009886978515618481"
                },
                "nodeType": 0
            },
            "1": {
                "invocation": {
                    "address": "0xb93ac04010bd61f45bf492022a5b49a902f798f3",
                    "callData": "0x0000000000000000000000000000000000000000000000000022cbcfc9fccab10000000000000000000000000000000000000000000000000000000000029040",
                    "decodedMethod": {
                        "callParams": [
                            {
                                "name": "_amount",
                                "type": "uint256",
                                "value": "9,794,242,515,618,481"
                            },
                            {
                                "name": "_gasLimit",
                                "type": "uint256",
                                "value": "168,000"
                            }
                        ],
                        "constructorArguments": "",
                        "name": "depositETH",
                        "returnParams": [],
                        "signature": "depositETH(uint256,uint256)"
                    },
                    "errorInfo": "",
                    "fromAddress": "0xf8b1378579659d8f7ee5f3c929c2f3e332e41fd6",
                    "gasUsed": 281895,
                    "id": 1,
                    "methodDecoded": true,
                    "operation": "DELEGATECALL",
                    "output": "",
                    "revert": false,
                    "revertMessage": "",
                    "selector": "0x9f8420b3",
                    "status": true,
                    "value": "0.009886978515618481"
                },
                "nodeType": 0
            },
            "10": {
                "invocation": {
                    "address": "0x987e300fdfb06093859358522a79098848c33852",
                    "callData": "0x0000000000000000000000000000000000000000000000000000000000029040",
                    "decodedMethod": {
                        "callParams": [
                            {
                                "name": "_gasLimit",
                                "type": "uint256",
                                "value": "168,000"
                            }
                        ],
                        "constructorArguments": "",
                        "name": "estimateCrossDomainMessageFee",
                        "returnParams": [
                            {
                                "name": "",
                                "type": "uint256",
                                "value": "77,280,000,000,000"
                            }
                        ],
                        "signature": "estimateCrossDomainMessageFee(uint256)"
                    },
                    "errorInfo": "",
                    "fromAddress": "0x0d7e906bd9cafa154b048cfa766cc1e54e39af9b",
                    "gasUsed": 9650,
                    "id": 10,
                    "methodDecoded": true,
                    "operation": "STATICCALL",
                    "output": "0x0000000000000000000000000000000000000000000000000000464926f2c000",
                    "revert": false,
                    "revertMessage": "",
                    "selector": "0xd7704bae",
                    "status": true,
                    "value": "0"
                },
                "nodeType": 0
            },
            "11": {
                "invocation": {
                    "address": "0xfdf1ee0098168eaa61bf87db68c39c85151a4e9e",
                    "callData": "0x0000000000000000000000000000000000000000000000000000000000029040",
                    "decodedMethod": {
                        "callParams": [
                            {
                                "name": "_gasLimit",
                                "type": "uint256",
                                "value": "168,000"
                            }
                        ],
                        "constructorArguments": "",
                        "name": "estimateCrossDomainMessageFee",
                        "returnParams": [
                            {
                                "name": "",
                                "type": "uint256",
                                "value": "77,280,000,000,000"
                            }
                        ],
                        "signature": "estimateCrossDomainMessageFee(uint256)"
                    },
                    "errorInfo": "",
                    "fromAddress": "0x987e300fdfb06093859358522a79098848c33852",
                    "gasUsed": 2511,
                    "id": 11,
                    "methodDecoded": true,
                    "operation": "DELEGATECALL",
                    "output": "0x0000000000000000000000000000000000000000000000000000464926f2c000",
                    "revert": false,
                    "revertMessage": "",
                    "selector": "0xd7704bae",
                    "status": true,
                    "value": "0"
                },
                "nodeType": 0
            },
            "12": {
                "invocation": {
                    "address": "0x8fa3b4570b4c96f8036c13b64971ba65867eeb48",
                    "callData": "0x",
                    "decodedMethod": null,
                    "errorInfo": "",
                    "fromAddress": "0x6774bcbd5cecef1336b5300fb5186a12ddd8b367",
                    "gasUsed": 6329,
                    "id": 12,
                    "methodDecoded": false,
                    "operation": "CALL",
                    "output": "",
                    "revert": false,
                    "revertMessage": "",
                    "selector": "fallback",
                    "status": true,
                    "value": "0.00007728"
                },
                "nodeType": 0
            },
            "13": {
                "invocation": {
                    "address": "0xd9db270c1b5e3bd161e8c8503c55ceabee709552",
                    "callData": "0x",
                    "decodedMethod": null,
                    "errorInfo": "",
                    "fromAddress": "0x8fa3b4570b4c96f8036c13b64971ba65867eeb48",
                    "gasUsed": 1504,
                    "id": 13,
                    "methodDecoded": false,
                    "operation": "DELEGATECALL",
                    "output": "",
                    "revert": false,
                    "revertMessage": "",
                    "selector": "fallback",
                    "status": true,
                    "value": "0.00007728"
                },
                "nodeType": 0
            },
            "14": {
                "event": {
                    "contract": "0x8fa3b4570b4c96f8036c13b64971ba65867eeb48",
                    "decodedLog": {
                        "name": "SafeReceived",
                        "params": [
                            {
                                "name": "sender",
                                "type": "address",
                                "value": "0x6774bcbd5cecef1336b5300fb5186a12ddd8b367"
                            },
                            {
                                "name": "value",
                                "type": "uint256",
                                "value": "77,280,000,000,000"
                            }
                        ],
                        "signature": "SafeReceived(address,uint256)"
                    },
                    "id": 14,
                    "logData": "0x0000000000000000000000000000000000000000000000000000464926f2c000",
                    "logDecoded": true,
                    "operation": "EVENT",
                    "revert": false,
                    "status": true,
                    "topics": [
                        "0x3d0ce9bfc3ed7d6862dbb28b2dea94561fe714a1b4d019aa8af39730d1ad7c3d",
                        "0x0000000000000000000000006774bcbd5cecef1336b5300fb5186a12ddd8b367"
                    ]
                },
                "nodeType": 1
            },
            "15": {
                "invocation": {
                    "address": "0x0d7e906bd9cafa154b048cfa766cc1e54e39af9b",
                    "callData": "0x000000000000000000000000781e90f1c8fc4611c9b7497c3b47f99ef6969cbc0000000000000000000000000000000000000000000000000000000000029040000000000000000000000000000000000000000000000000000000000000006000000000000000000000000000000000000000000000000000000000000001848ef1332e0000000000000000000000007f2b8c31f88b6006c382775eea88297ec1e3e9050000000000000000000000006ea73e05adc79974b931123675ea8f78ffdacdf00000000000000000000000000000000000000000000000000022cbcfc9fccab10000000000000000000000000000000000000000000000000000000000025e7800000000000000000000000000000000000000000000000000000000000000a000000000000000000000000000000000000000000000000000000000000000a4232e8748000000000000000000000000aae0bfd86199f21bf7f55b3941d772849b9a1f54000000000000000000000000aae0bfd86199f21bf7f55b3941d772849b9a1f540000000000000000000000000000000000000000000000000022cbcfc9fccab1000000000000000000000000000000000000000000000000000000000000008000000000000000000000000000000000000000000000000000000000000000000000000000000000000000000000000000000000000000000000000000000000000000000000000000000000000000000000000000000000",
                    "decodedMethod": {
                        "callParams": [
                            {
                                "name": "_target",
                                "type": "address",
                                "value": "0x781e90f1c8fc4611c9b7497c3b47f99ef6969cbc"
                            },
                            {
                                "name": "_gasLimit",
                                "type": "uint256",
                                "value": "168,000"
                            },
                            {
                                "name": "_data",
                                "type": "bytes",
                                "value": "0x8ef1332e0000000000000000000000007f2b8c31f88b6006c382775eea88297ec1e3e9050000000000000000000000006ea73e05adc79974b931123675ea8f78ffdacdf00000000000000000000000000000000000000000000000000022cbcfc9fccab10000000000000000000000000000000000000000000000000000000000025e7800000000000000000000000000000000000000000000000000000000000000a000000000000000000000000000000000000000000000000000000000000000a4232e8748000000000000000000000000aae0bfd86199f21bf7f55b3941d772849b9a1f54000000000000000000000000aae0bfd86199f21bf7f55b3941d772849b9a1f540000000000000000000000000000000000000000000000000022cbcfc9fccab10000000000000000000000000000000000000000000000000000000000000080000000000000000000000000000000000000000000000000000000000000000000000000000000000000000000000000000000000000000000000000"
                            }
                        ],
                        "constructorArguments": "",
                        "name": "appendCrossDomainMessage",
                        "returnParams": [],
                        "signature": "appendCrossDomainMessage(address,uint256,bytes)"
                    },
                    "errorInfo": "",
                    "fromAddress": "0x6774bcbd5cecef1336b5300fb5186a12ddd8b367",
                    "gasUsed": 129899,
                    "id": 15,
                    "methodDecoded": true,
                    "operation": "CALL",
                    "output": "",
                    "revert": false,
                    "revertMessage": "",
                    "selector": "0x9b159782",
                    "status": true,
                    "value": "0"
                },
                "nodeType": 0
            },
            "16": {
                "invocation": {
                    "address": "0xbc9d741501a20f962756c95bf906b4abffadcf8f",
                    "callData": "0x000000000000000000000000781e90f1c8fc4611c9b7497c3b47f99ef6969cbc0000000000000000000000000000000000000000000000000000000000029040000000000000000000000000000000000000000000000000000000000000006000000000000000000000000000000000000000000000000000000000000001848ef1332e0000000000000000000000007f2b8c31f88b6006c382775eea88297ec1e3e9050000000000000000000000006ea73e05adc79974b931123675ea8f78ffdacdf00000000000000000000000000000000000000000000000000022cbcfc9fccab10000000000000000000000000000000000000000000000000000000000025e7800000000000000000000000000000000000000000000000000000000000000a000000000000000000000000000000000000000000000000000000000000000a4232e8748000000000000000000000000aae0bfd86199f21bf7f55b3941d772849b9a1f54000000000000000000000000aae0bfd86199f21bf7f55b3941d772849b9a1f540000000000000000000000000000000000000000000000000022cbcfc9fccab1000000000000000000000000000000000000000000000000000000000000008000000000000000000000000000000000000000000000000000000000000000000000000000000000000000000000000000000000000000000000000000000000000000000000000000000000000000000000000000000000",
                    "decodedMethod": {
                        "callParams": [
                            {
                                "name": "_target",
                                "type": "address",
                                "value": "0x781e90f1c8fc4611c9b7497c3b47f99ef6969cbc"
                            },
                            {
                                "name": "_gasLimit",
                                "type": "uint256",
                                "value": "168,000"
                            },
                            {
                                "name": "_data",
                                "type": "bytes",
                                "value": "0x8ef1332e0000000000000000000000007f2b8c31f88b6006c382775eea88297ec1e3e9050000000000000000000000006ea73e05adc79974b931123675ea8f78ffdacdf00000000000000000000000000000000000000000000000000022cbcfc9fccab10000000000000000000000000000000000000000000000000000000000025e7800000000000000000000000000000000000000000000000000000000000000a000000000000000000000000000000000000000000000000000000000000000a4232e8748000000000000000000000000aae0bfd86199f21bf7f55b3941d772849b9a1f54000000000000000000000000aae0bfd86199f21bf7f55b3941d772849b9a1f540000000000000000000000000000000000000000000000000022cbcfc9fccab10000000000000000000000000000000000000000000000000000000000000080000000000000000000000000000000000000000000000000000000000000000000000000000000000000000000000000000000000000000000000000"
                            }
                        ],
                        "constructorArguments": "",
                        "name": "appendCrossDomainMessage",
                        "returnParams": [],
                        "signature": "appendCrossDomainMessage(address,uint256,bytes)"
                    },
                    "errorInfo": "",
                    "fromAddress": "0x0d7e906bd9cafa154b048cfa766cc1e54e39af9b",
                    "gasUsed": 129170,
                    "id": 16,
                    "methodDecoded": true,
                    "operation": "DELEGATECALL",
                    "output": "",
                    "revert": false,
                    "revertMessage": "",
                    "selector": "0x9b159782",
                    "status": true,
                    "value": "0"
                },
                "nodeType": 0
            },
            "17": {
                "invocation": {
                    "address": "0x987e300fdfb06093859358522a79098848c33852",
                    "callData": "0x000000000000000000000000000000000000000000000000000000000000002000000000000000000000000000000000000000000000000000000000000001848ef1332e0000000000000000000000007f2b8c31f88b6006c382775eea88297ec1e3e9050000000000000000000000006ea73e05adc79974b931123675ea8f78ffdacdf00000000000000000000000000000000000000000000000000022cbcfc9fccab10000000000000000000000000000000000000000000000000000000000025e7800000000000000000000000000000000000000000000000000000000000000a000000000000000000000000000000000000000000000000000000000000000a4232e8748000000000000000000000000aae0bfd86199f21bf7f55b3941d772849b9a1f54000000000000000000000000aae0bfd86199f21bf7f55b3941d772849b9a1f540000000000000000000000000000000000000000000000000022cbcfc9fccab1000000000000000000000000000000000000000000000000000000000000008000000000000000000000000000000000000000000000000000000000000000000000000000000000000000000000000000000000000000000000000000000000000000000000000000000000000000000000000000000000",
                    "decodedMethod": {
                        "callParams": [
                            {
                                "name": "_calldata",
                                "type": "bytes",
                                "value": "0x8ef1332e0000000000000000000000007f2b8c31f88b6006c382775eea88297ec1e3e9050000000000000000000000006ea73e05adc79974b931123675ea8f78ffdacdf00000000000000000000000000000000000000000000000000022cbcfc9fccab10000000000000000000000000000000000000000000000000000000000025e7800000000000000000000000000000000000000000000000000000000000000a000000000000000000000000000000000000000000000000000000000000000a4232e8748000000000000000000000000aae0bfd86199f21bf7f55b3941d772849b9a1f54000000000000000000000000aae0bfd86199f21bf7f55b3941d772849b9a1f540000000000000000000000000000000000000000000000000022cbcfc9fccab10000000000000000000000000000000000000000000000000000000000000080000000000000000000000000000000000000000000000000000000000000000000000000000000000000000000000000000000000000000000000000"
                            }
                        ],
                        "constructorArguments": "",
                        "name": "calculateIntrinsicGasFee",
                        "returnParams": [
                            {
                                "name": "",
                                "type": "uint256",
                                "value": "23,848"
                            }
                        ],
                        "signature": "calculateIntrinsicGasFee(bytes)"
                    },
                    "errorInfo": "",
                    "fromAddress": "0x0d7e906bd9cafa154b048cfa766cc1e54e39af9b",
                    "gasUsed": 88186,
                    "id": 17,
                    "methodDecoded": true,
                    "operation": "STATICCALL",
                    "output": "0x0000000000000000000000000000000000000000000000000000000000005d28",
                    "revert": false,
                    "revertMessage": "",
                    "selector": "0xe172d3a1",
                    "status": true,
                    "value": "0"
                },
                "nodeType": 0
            },
            "18": {
                "invocation": {
                    "address": "0xfdf1ee0098168eaa61bf87db68c39c85151a4e9e",
                    "callData": "0x000000000000000000000000000000000000000000000000000000000000002000000000000000000000000000000000000000000000000000000000000001848ef1332e0000000000000000000000007f2b8c31f88b6006c382775eea88297ec1e3e9050000000000000000000000006ea73e05adc79974b931123675ea8f78ffdacdf00000000000000000000000000000000000000000000000000022cbcfc9fccab10000000000000000000000000000000000000000000000000000000000025e7800000000000000000000000000000000000000000000000000000000000000a000000000000000000000000000000000000000000000000000000000000000a4232e8748000000000000000000000000aae0bfd86199f21bf7f55b3941d772849b9a1f54000000000000000000000000aae0bfd86199f21bf7f55b3941d772849b9a1f540000000000000000000000000000000000000000000000000022cbcfc9fccab1000000000000000000000000000000000000000000000000000000000000008000000000000000000000000000000000000000000000000000000000000000000000000000000000000000000000000000000000000000000000000000000000000000000000000000000000000000000000000000000000",
                    "decodedMethod": {
                        "callParams": [
                            {
                                "name": "_message",
                                "type": "bytes",
                                "value": "0x8ef1332e0000000000000000000000007f2b8c31f88b6006c382775eea88297ec1e3e9050000000000000000000000006ea73e05adc79974b931123675ea8f78ffdacdf00000000000000000000000000000000000000000000000000022cbcfc9fccab10000000000000000000000000000000000000000000000000000000000025e7800000000000000000000000000000000000000000000000000000000000000a000000000000000000000000000000000000000000000000000000000000000a4232e8748000000000000000000000000aae0bfd86199f21bf7f55b3941d772849b9a1f54000000000000000000000000aae0bfd86199f21bf7f55b3941d772849b9a1f540000000000000000000000000000000000000000000000000022cbcfc9fccab10000000000000000000000000000000000000000000000000000000000000080000000000000000000000000000000000000000000000000000000000000000000000000000000000000000000000000000000000000000000000000"
                            }
                        ],
                        "constructorArguments": "",
                        "name": "calculateIntrinsicGasFee",
                        "returnParams": [
                            {
                                "name": "",
                                "type": "uint256",
                                "value": "23,848"
                            }
                        ],
                        "signature": "calculateIntrinsicGasFee(bytes)"
                    },
                    "errorInfo": "",
                    "fromAddress": "0x987e300fdfb06093859358522a79098848c33852",
                    "gasUsed": 87466,
                    "id": 18,
                    "methodDecoded": true,
                    "operation": "DELEGATECALL",
                    "output": "0x0000000000000000000000000000000000000000000000000000000000005d28",
                    "revert": false,
                    "revertMessage": "",
                    "selector": "0xe172d3a1",
                    "status": true,
                    "value": "0"
                },
                "nodeType": 0
            },
            "19": {
                "event": {
                    "contract": "0x0d7e906bd9cafa154b048cfa766cc1e54e39af9b",
                    "decodedLog": {
                        "name": "QueueTransaction",
                        "params": [
                            {
                                "name": "sender",
                                "type": "address",
                                "value": "0x7885bcbd5cecef1336b5300fb5186a12ddd8c478"
                            },
                            {
                                "name": "target",
                                "type": "address",
                                "value": "0x781e90f1c8fc4611c9b7497c3b47f99ef6969cbc"
                            },
                            {
                                "name": "value",
                                "type": "uint256",
                                "value": "0"
                            },
                            {
                                "name": "queueIndex",
                                "type": "uint64",
                                "value": "155,256"
                            },
                            {
                                "name": "gasLimit",
                                "type": "uint256",
                                "value": "168,000"
                            },
                            {
                                "name": "data",
                                "type": "bytes",
                                "value": "0x8ef1332e0000000000000000000000007f2b8c31f88b6006c382775eea88297ec1e3e9050000000000000000000000006ea73e05adc79974b931123675ea8f78ffdacdf00000000000000000000000000000000000000000000000000022cbcfc9fccab10000000000000000000000000000000000000000000000000000000000025e7800000000000000000000000000000000000000000000000000000000000000a000000000000000000000000000000000000000000000000000000000000000a4232e8748000000000000000000000000aae0bfd86199f21bf7f55b3941d772849b9a1f54000000000000000000000000aae0bfd86199f21bf7f55b3941d772849b9a1f540000000000000000000000000000000000000000000000000022cbcfc9fccab10000000000000000000000000000000000000000000000000000000000000080000000000000000000000000000000000000000000000000000000000000000000000000000000000000000000000000000000000000000000000000"
                            }
                        ],
                        "signature": "QueueTransaction(address,address,uint256,uint64,uint256,bytes)"
                    },
                    "id": 19,
                    "logData": "0x00000000000000000000000000000000000000000000000000000000000000000000000000000000000000000000000000000000000000000000000000025e780000000000000000000000000000000000000000000000000000000000029040000000000000000000000000000000000000000000000000000000000000008000000000000000000000000000000000000000000000000000000000000001848ef1332e0000000000000000000000007f2b8c31f88b6006c382775eea88297ec1e3e9050000000000000000000000006ea73e05adc79974b931123675ea8f78ffdacdf00000000000000000000000000000000000000000000000000022cbcfc9fccab10000000000000000000000000000000000000000000000000000000000025e7800000000000000000000000000000000000000000000000000000000000000a000000000000000000000000000000000000000000000000000000000000000a4232e8748000000000000000000000000aae0bfd86199f21bf7f55b3941d772849b9a1f54000000000000000000000000aae0bfd86199f21bf7f55b3941d772849b9a1f540000000000000000000000000000000000000000000000000022cbcfc9fccab1000000000000000000000000000000000000000000000000000000000000008000000000000000000000000000000000000000000000000000000000000000000000000000000000000000000000000000000000000000000000000000000000000000000000000000000000000000000000000000000000",
                    "logDecoded": true,
                    "operation": "EVENT",
                    "revert": false,
                    "status": true,
                    "topics": [
                        "0x69cfcb8e6d4192b8aba9902243912587f37e550d75c1fa801491fce26717f37e",
                        "0x0000000000000000000000007885bcbd5cecef1336b5300fb5186a12ddd8c478",
                        "0x000000000000000000000000781e90f1c8fc4611c9b7497c3b47f99ef6969cbc"
                    ]
                },
                "nodeType": 1
            },
            "2": {
                "invocation": {
                    "address": "0x7f2b8c31f88b6006c382775eea88297ec1e3e905",
                    "callData": "0x000000000000000000000000aae0bfd86199f21bf7f55b3941d772849b9a1f540000000000000000000000000000000000000000000000000022cbcfc9fccab1000000000000000000000000000000000000000000000000000000000000008000000000000000000000000000000000000000000000000000000000000290400000000000000000000000000000000000000000000000000000000000000060000000000000000000000000aae0bfd86199f21bf7f55b3941d772849b9a1f5400000000000000000000000000000000000000000000000000000000000000400000000000000000000000000000000000000000000000000000000000000000",
                    "decodedMethod": {
                        "callParams": [
                            {
                                "name": "_to",
                                "type": "address",
                                "value": "0xaae0bfd86199f21bf7f55b3941d772849b9a1f54"
                            },
                            {
                                "name": "_amount",
                                "type": "uint256",
                                "value": "9,794,242,515,618,481"
                            },
                            {
                                "name": "_data",
                                "type": "bytes",
                                "value": "0x000000000000000000000000aae0bfd86199f21bf7f55b3941d772849b9a1f5400000000000000000000000000000000000000000000000000000000000000400000000000000000000000000000000000000000000000000000000000000000"
                            },
                            {
                                "name": "_gasLimit",
                                "type": "uint256",
                                "value": "168,000"
                            }
                        ],
                        "constructorArguments": "",
                        "name": "depositETHAndCall",
                        "returnParams": [],
                        "signature": "depositETHAndCall(address,uint256,bytes,uint256)"
                    },
                    "errorInfo": "",
                    "fromAddress": "0xf8b1378579659d8f7ee5f3c929c2f3e332e41fd6",
                    "gasUsed": 266693,
                    "id": 2,
                    "methodDecoded": true,
                    "operation": "CALL",
                    "output": "",
                    "revert": false,
                    "revertMessage": "",
                    "selector": "0xaac476f8",
                    "status": true,
                    "value": "0.009886978515618481"
                },
                "nodeType": 0
            },
            "20": {
                "event": {
                    "contract": "0x6774bcbd5cecef1336b5300fb5186a12ddd8b367",
                    "decodedLog": {
                        "name": "SentMessage",
                        "params": [
                            {
                                "name": "sender",
                                "type": "address",
                                "value": "0x7f2b8c31f88b6006c382775eea88297ec1e3e905"
                            },
                            {
                                "name": "target",
                                "type": "address",
                                "value": "0x6ea73e05adc79974b931123675ea8f78ffdacdf0"
                            },
                            {
                                "name": "value",
                                "type": "uint256",
                                "value": "9,794,242,515,618,481"
                            },
                            {
                                "name": "messageNonce",
                                "type": "uint256",
                                "value": "155,256"
                            },
                            {
                                "name": "gasLimit",
                                "type": "uint256",
                                "value": "168,000"
                            },
                            {
                                "name": "message",
                                "type": "bytes",
                                "value": "0x232e8748000000000000000000000000aae0bfd86199f21bf7f55b3941d772849b9a1f54000000000000000000000000aae0bfd86199f21bf7f55b3941d772849b9a1f540000000000000000000000000000000000000000000000000022cbcfc9fccab100000000000000000000000000000000000000000000000000000000000000800000000000000000000000000000000000000000000000000000000000000000"
                            }
                        ],
                        "signature": "SentMessage(address,address,uint256,uint256,uint256,bytes)"
                    },
                    "id": 20,
                    "logData": "0x0000000000000000000000000000000000000000000000000022cbcfc9fccab10000000000000000000000000000000000000000000000000000000000025e780000000000000000000000000000000000000000000000000000000000029040000000000000000000000000000000000000000000000000000000000000008000000000000000000000000000000000000000000000000000000000000000a4232e8748000000000000000000000000aae0bfd86199f21bf7f55b3941d772849b9a1f54000000000000000000000000aae0bfd86199f21bf7f55b3941d772849b9a1f540000000000000000000000000000000000000000000000000022cbcfc9fccab10000000000000000000000000000000000000000000000000000000000000080000000000000000000000000000000000000000000000000000000000000000000000000000000000000000000000000000000000000000000000000",
                    "logDecoded": true,
                    "operation": "EVENT",
                    "revert": false,
                    "status": true,
                    "topics": [
                        "0x104371f3b442861a2a7b82a070afbbaab748bb13757bf47769e170e37809ec1e",
                        "0x0000000000000000000000007f2b8c31f88b6006c382775eea88297ec1e3e905",
                        "0x0000000000000000000000006ea73e05adc79974b931123675ea8f78ffdacdf0"
                    ]
                },
                "nodeType": 1
            },
            "21": {
                "invocation": {
                    "address": "0xaae0bfd86199f21bf7f55b3941d772849b9a1f54",
                    "callData": "0x",
                    "decodedMethod": null,
                    "errorInfo": "",
                    "fromAddress": "0x6774bcbd5cecef1336b5300fb5186a12ddd8b367",
                    "gasUsed": 0,
                    "id": 21,
                    "methodDecoded": false,
                    "operation": "CALL",
                    "output": "",
                    "revert": false,
                    "revertMessage": "",
                    "selector": "fallback",
                    "status": true,
                    "value": "0.000015456"
                },
                "nodeType": 0
            },
            "22": {
                "event": {
                    "contract": "0x7f2b8c31f88b6006c382775eea88297ec1e3e905",
                    "decodedLog": {
                        "name": "DepositETH",
                        "params": [
                            {
                                "name": "from",
                                "type": "address",
                                "value": "0xaae0bfd86199f21bf7f55b3941d772849b9a1f54"
                            },
                            {
                                "name": "to",
                                "type": "address",
                                "value": "0xaae0bfd86199f21bf7f55b3941d772849b9a1f54"
                            },
                            {
                                "name": "amount",
                                "type": "uint256",
                                "value": "9,794,242,515,618,481"
                            },
                            {
                                "name": "data",
                                "type": "bytes",
                                "value": "0x"
                            }
                        ],
                        "signature": "DepositETH(address,address,uint256,bytes)"
                    },
                    "id": 22,
                    "logData": "0x0000000000000000000000000000000000000000000000000022cbcfc9fccab100000000000000000000000000000000000000000000000000000000000000400000000000000000000000000000000000000000000000000000000000000000",
                    "logDecoded": true,
                    "operation": "EVENT",
                    "revert": false,
                    "status": true,
                    "topics": [
                        "0x6670de856ec8bf5cb2b7e957c5dc24759716056f79d97ea5e7c939ca0ba5a675",
                        "0x000000000000000000000000aae0bfd86199f21bf7f55b3941d772849b9a1f54",
                        "0x000000000000000000000000aae0bfd86199f21bf7f55b3941d772849b9a1f54"
                    ]
                },
                "nodeType": 1
            },
            "3": {
                "invocation": {
                    "address": "0x1fcbe079c4bbab37406dab7dfd35acae37d5c55d",
                    "callData": "0x000000000000000000000000aae0bfd86199f21bf7f55b3941d772849b9a1f540000000000000000000000000000000000000000000000000022cbcfc9fccab1000000000000000000000000000000000000000000000000000000000000008000000000000000000000000000000000000000000000000000000000000290400000000000000000000000000000000000000000000000000000000000000060000000000000000000000000aae0bfd86199f21bf7f55b3941d772849b9a1f5400000000000000000000000000000000000000000000000000000000000000400000000000000000000000000000000000000000000000000000000000000000",
                    "decodedMethod": {
                        "callParams": [
                            {
                                "name": "_to",
                                "type": "address",
                                "value": "0xaae0bfd86199f21bf7f55b3941d772849b9a1f54"
                            },
                            {
                                "name": "_amount",
                                "type": "uint256",
                                "value": "9,794,242,515,618,481"
                            },
                            {
                                "name": "_data",
                                "type": "bytes",
                                "value": "0x000000000000000000000000aae0bfd86199f21bf7f55b3941d772849b9a1f5400000000000000000000000000000000000000000000000000000000000000400000000000000000000000000000000000000000000000000000000000000000"
                            },
                            {
                                "name": "_gasLimit",
                                "type": "uint256",
                                "value": "168,000"
                            }
                        ],
                        "constructorArguments": "",
                        "name": "depositETHAndCall",
                        "returnParams": [],
                        "signature": "depositETHAndCall(address,uint256,bytes,uint256)"
                    },
                    "errorInfo": "",
                    "fromAddress": "0x7f2b8c31f88b6006c382775eea88297ec1e3e905",
                    "gasUsed": 259518,
                    "id": 3,
                    "methodDecoded": true,
                    "operation": "DELEGATECALL",
                    "output": "",
                    "revert": false,
                    "revertMessage": "",
                    "selector": "0xaac476f8",
                    "status": true,
                    "value": "0.009886978515618481"
                },
                "nodeType": 0
            },
            "4": {
                "invocation": {
                    "address": "0x6774bcbd5cecef1336b5300fb5186a12ddd8b367",
                    "callData": "0x0000000000000000000000006ea73e05adc79974b931123675ea8f78ffdacdf00000000000000000000000000000000000000000000000000022cbcfc9fccab100000000000000000000000000000000000000000000000000000000000000a00000000000000000000000000000000000000000000000000000000000029040000000000000000000000000aae0bfd86199f21bf7f55b3941d772849b9a1f5400000000000000000000000000000000000000000000000000000000000000a4232e8748000000000000000000000000aae0bfd86199f21bf7f55b3941d772849b9a1f54000000000000000000000000aae0bfd86199f21bf7f55b3941d772849b9a1f540000000000000000000000000000000000000000000000000022cbcfc9fccab10000000000000000000000000000000000000000000000000000000000000080000000000000000000000000000000000000000000000000000000000000000000000000000000000000000000000000000000000000000000000000",
                    "decodedMethod": {
                        "callParams": [
                            {
                                "name": "_to",
                                "type": "address",
                                "value": "0x6ea73e05adc79974b931123675ea8f78ffdacdf0"
                            },
                            {
                                "name": "_value",
                                "type": "uint256",
                                "value": "9,794,242,515,618,481"
                            },
                            {
                                "name": "_message",
                                "type": "bytes",
                                "value": "0x232e8748000000000000000000000000aae0bfd86199f21bf7f55b3941d772849b9a1f54000000000000000000000000aae0bfd86199f21bf7f55b3941d772849b9a1f540000000000000000000000000000000000000000000000000022cbcfc9fccab100000000000000000000000000000000000000000000000000000000000000800000000000000000000000000000000000000000000000000000000000000000"
                            },
                            {
                                "name": "_gasLimit",
                                "type": "uint256",
                                "value": "168,000"
                            },
                            {
                                "name": "_refundAddress",
                                "type": "address",
                                "value": "0xaae0bfd86199f21bf7f55b3941d772849b9a1f54"
                            }
                        ],
                        "constructorArguments": "",
                        "name": "sendMessage",
                        "returnParams": [],
                        "signature": "sendMessage(address,uint256,bytes,uint256,address)"
                    },
                    "errorInfo": "",
                    "fromAddress": "0x7f2b8c31f88b6006c382775eea88297ec1e3e905",
                    "gasUsed": 233096,
                    "id": 4,
                    "methodDecoded": true,
                    "operation": "CALL",
                    "output": "",
                    "revert": false,
                    "revertMessage": "",
                    "selector": "0x5f7b1577",
                    "status": true,
                    "value": "0.009886978515618481"
                },
                "nodeType": 0
            },
            "5": {
                "invocation": {
                    "address": "0xaf2f898a8680cb52766abe0588ebe6b9bfe37845",
                    "callData": "0x0000000000000000000000006ea73e05adc79974b931123675ea8f78ffdacdf00000000000000000000000000000000000000000000000000022cbcfc9fccab100000000000000000000000000000000000000000000000000000000000000a00000000000000000000000000000000000000000000000000000000000029040000000000000000000000000aae0bfd86199f21bf7f55b3941d772849b9a1f5400000000000000000000000000000000000000000000000000000000000000a4232e8748000000000000000000000000aae0bfd86199f21bf7f55b3941d772849b9a1f54000000000000000000000000aae0bfd86199f21bf7f55b3941d772849b9a1f540000000000000000000000000000000000000000000000000022cbcfc9fccab10000000000000000000000000000000000000000000000000000000000000080000000000000000000000000000000000000000000000000000000000000000000000000000000000000000000000000000000000000000000000000",
                    "decodedMethod": {
                        "callParams": [
                            {
                                "name": "_to",
                                "type": "address",
                                "value": "0x6ea73e05adc79974b931123675ea8f78ffdacdf0"
                            },
                            {
                                "name": "_value",
                                "type": "uint256",
                                "value": "9,794,242,515,618,481"
                            },
                            {
                                "name": "_message",
                                "type": "bytes",
                                "value": "0x232e8748000000000000000000000000aae0bfd86199f21bf7f55b3941d772849b9a1f54000000000000000000000000aae0bfd86199f21bf7f55b3941d772849b9a1f540000000000000000000000000000000000000000000000000022cbcfc9fccab100000000000000000000000000000000000000000000000000000000000000800000000000000000000000000000000000000000000000000000000000000000"
                            },
                            {
                                "name": "_gasLimit",
                                "type": "uint256",
                                "value": "168,000"
                            },
                            {
                                "name": "_refundAddress",
                                "type": "address",
                                "value": "0xaae0bfd86199f21bf7f55b3941d772849b9a1f54"
                            }
                        ],
                        "constructorArguments": "",
                        "name": "sendMessage",
                        "returnParams": [],
                        "signature": "sendMessage(address,uint256,bytes,uint256,address)"
                    },
                    "errorInfo": "",
                    "fromAddress": "0x6774bcbd5cecef1336b5300fb5186a12ddd8b367",
                    "gasUsed": 225897,
                    "id": 5,
                    "methodDecoded": true,
                    "operation": "DELEGATECALL",
                    "output": "",
                    "revert": false,
                    "revertMessage": "",
                    "selector": "0x5f7b1577",
                    "status": true,
                    "value": "0.009886978515618481"
                },
                "nodeType": 0
            },
            "6": {
                "invocation": {
                    "address": "0x0d7e906bd9cafa154b048cfa766cc1e54e39af9b",
                    "callData": "0x",
                    "decodedMethod": {
                        "callParams": [],
                        "constructorArguments": "",
                        "name": "nextCrossDomainMessageIndex",
                        "returnParams": [
                            {
                                "name": "",
                                "type": "uint256",
                                "value": "155,256"
                            }
                        ],
                        "signature": "nextCrossDomainMessageIndex()"
                    },
                    "errorInfo": "",
                    "fromAddress": "0x6774bcbd5cecef1336b5300fb5186a12ddd8b367",
                    "gasUsed": 9527,
                    "id": 6,
                    "methodDecoded": true,
                    "operation": "STATICCALL",
                    "output": "0x0000000000000000000000000000000000000000000000000000000000025e78",
                    "revert": false,
                    "revertMessage": "",
                    "selector": "0xfd0ad31e",
                    "status": true,
                    "value": "0"
                },
                "nodeType": 0
            },
            "7": {
                "invocation": {
                    "address": "0xbc9d741501a20f962756c95bf906b4abffadcf8f",
                    "callData": "0x",
                    "decodedMethod": {
                        "callParams": [],
                        "constructorArguments": "",
                        "name": "nextCrossDomainMessageIndex",
                        "returnParams": [
                            {
                                "name": "",
                                "type": "uint256",
                                "value": "155,256"
                            }
                        ],
                        "signature": "nextCrossDomainMessageIndex()"
                    },
                    "errorInfo": "",
                    "fromAddress": "0x0d7e906bd9cafa154b048cfa766cc1e54e39af9b",
                    "gasUsed": 2391,
                    "id": 7,
                    "methodDecoded": true,
                    "operation": "DELEGATECALL",
                    "output": "0x0000000000000000000000000000000000000000000000000000000000025e78",
                    "revert": false,
                    "revertMessage": "",
                    "selector": "0xfd0ad31e",
                    "status": true,
                    "value": "0"
                },
                "nodeType": 0
            },
            "8": {
                "invocation": {
                    "address": "0x0d7e906bd9cafa154b048cfa766cc1e54e39af9b",
                    "callData": "0x0000000000000000000000000000000000000000000000000000000000029040",
                    "decodedMethod": {
                        "callParams": [
                            {
                                "name": "_gasLimit",
                                "type": "uint256",
                                "value": "168,000"
                            }
                        ],
                        "constructorArguments": "",
                        "name": "estimateCrossDomainMessageFee",
                        "returnParams": [
                            {
                                "name": "",
                                "type": "uint256",
                                "value": "77,280,000,000,000"
                            }
                        ],
                        "signature": "estimateCrossDomainMessageFee(uint256)"
                    },
                    "errorInfo": "",
                    "fromAddress": "0x6774bcbd5cecef1336b5300fb5186a12ddd8b367",
                    "gasUsed": 15667,
                    "id": 8,
                    "methodDecoded": true,
                    "operation": "STATICCALL",
                    "output": "0x0000000000000000000000000000000000000000000000000000464926f2c000",
                    "revert": false,
                    "revertMessage": "",
                    "selector": "0xd7704bae",
                    "status": true,
                    "value": "0"
                },
                "nodeType": 0
            },
            "9": {
                "invocation": {
                    "address": "0xbc9d741501a20f962756c95bf906b4abffadcf8f",
                    "callData": "0x0000000000000000000000000000000000000000000000000000000000029040",
                    "decodedMethod": {
                        "callParams": [
                            {
                                "name": "_gasLimit",
                                "type": "uint256",
                                "value": "168,000"
                            }
                        ],
                        "constructorArguments": "",
                        "name": "estimateCrossDomainMessageFee",
                        "returnParams": [
                            {
                                "name": "",
                                "type": "uint256",
                                "value": "77,280,000,000,000"
                            }
                        ],
                        "signature": "estimateCrossDomainMessageFee(uint256)"
                    },
                    "errorInfo": "",
                    "fromAddress": "0x0d7e906bd9cafa154b048cfa766cc1e54e39af9b",
                    "gasUsed": 15028,
                    "id": 9,
                    "methodDecoded": true,
                    "operation": "DELEGATECALL",
                    "output": "0x0000000000000000000000000000000000000000000000000000464926f2c000",
                    "revert": false,
                    "revertMessage": "",
                    "selector": "0xd7704bae",
                    "status": true,
                    "value": "0"
                },
                "nodeType": 0
            }
        },
        "gasFlame": [
            {
                "children": [
                    {
                        "children": [
                            {
                                "children": [],
                                "depth": 0,
                                "name": "Initial Gas",
                                "value": 21440
                            },
                            {
                                "children": [
                                    {
                                        "children": [
                                            {
                                                "children": [
                                                    {
                                                        "children": [
                                                            {
                                                                "children": [
                                                                    {
                                                                        "children": [
                                                                            {
                                                                                "children": [
                                                                                    {
                                                                                        "children": [],
                                                                                        "depth": 7,
                                                                                        "name": "nextCrossDomainMessageIndex",
                                                                                        "value": 2391
                                                                                    }
                                                                                ],
                                                                                "depth": 6,
                                                                                "name": "nextCrossDomainMessageIndex",
                                                                                "value": 9527
                                                                            },
                                                                            {
                                                                                "children": [
                                                                                    {
                                                                                        "children": [
                                                                                            {
                                                                                                "children": [
                                                                                                    {
                                                                                                        "children": [],
                                                                                                        "depth": 9,
                                                                                                        "name": "estimateCrossDomainMessageFee",
                                                                                                        "value": 2511
                                                                                                    }
                                                                                                ],
                                                                                                "depth": 8,
                                                                                                "name": "estimateCrossDomainMessageFee",
                                                                                                "value": 9650
                                                                                            }
                                                                                        ],
                                                                                        "depth": 7,
                                                                                        "name": "estimateCrossDomainMessageFee",
                                                                                        "value": 15028
                                                                                    }
                                                                                ],
                                                                                "depth": 6,
                                                                                "name": "estimateCrossDomainMessageFee",
                                                                                "value": 15667
                                                                            },
                                                                            {
                                                                                "children": [
                                                                                    {
                                                                                        "children": [],
                                                                                        "depth": 7,
                                                                                        "name": "fallback",
                                                                                        "value": 1504
                                                                                    }
                                                                                ],
                                                                                "depth": 6,
                                                                                "name": "fallback",
                                                                                "value": 6329
                                                                            },
                                                                            {
                                                                                "children": [
                                                                                    {
                                                                                        "children": [
                                                                                            {
                                                                                                "children": [
                                                                                                    {
                                                                                                        "children": [],
                                                                                                        "depth": 9,
                                                                                                        "name": "calculateIntrinsicGasFee",
                                                                                                        "value": 87466
                                                                                                    }
                                                                                                ],
                                                                                                "depth": 8,
                                                                                                "name": "calculateIntrinsicGasFee",
                                                                                                "value": 88186
                                                                                            }
                                                                                        ],
                                                                                        "depth": 7,
                                                                                        "name": "appendCrossDomainMessage",
                                                                                        "value": 129170
                                                                                    }
                                                                                ],
                                                                                "depth": 6,
                                                                                "name": "appendCrossDomainMessage",
                                                                                "value": 129899
                                                                            },
                                                                            {
                                                                                "children": [],
                                                                                "depth": 6,
                                                                                "name": "fallback",
                                                                                "value": 0
                                                                            }
                                                                        ],
                                                                        "depth": 5,
                                                                        "name": "sendMessage",
                                                                        "value": 225897
                                                                    }
                                                                ],
                                                                "depth": 4,
                                                                "name": "sendMessage",
                                                                "value": 233096
                                                            }
                                                        ],
                                                        "depth": 3,
                                                        "name": "depositETHAndCall",
                                                        "value": 259518
                                                    }
                                                ],
                                                "depth": 2,
                                                "name": "depositETHAndCall",
                                                "value": 266693
                                            }
                                        ],
                                        "depth": 1,
                                        "name": "depositETH",
                                        "value": 281895
                                    }
                                ],
                                "depth": 0,
                                "name": "Executed Gas",
                                "value": 289034
                            }
                        ],
                        "depth": -1,
                        "name": "Actual Gas Used",
                        "value": 304874
                    },
                    {
                        "children": [],
                        "depth": -1,
                        "name": "Refunded Gas",
                        "value": 5600
                    }
                ],
                "depth": -2,
                "name": "Total Gas",
                "value": 310474
            }
        ],
        "isConfirmed": true,
        "mainTrace": [
            {
                "children": [
                    {
                        "children": [
                            {
                                "children": [
                                    {
                                        "children": [
                                            {
                                                "children": [
                                                    {
                                                        "children": [
                                                            {
                                                                "children": [
                                                                    {
                                                                        "children": [
                                                                            {
                                                                                "children": [],
                                                                                "depth": 7,
                                                                                "id": 7,
                                                                                "order": 7
                                                                            }
                                                                        ],
                                                                        "depth": 6,
                                                                        "id": 6,
                                                                        "order": 6
                                                                    },
                                                                    {
                                                                        "children": [
                                                                            {
                                                                                "children": [
                                                                                    {
                                                                                        "children": [
                                                                                            {
                                                                                                "children": [],
                                                                                                "depth": 9,
                                                                                                "id": 11,
                                                                                                "order": 11
                                                                                            }
                                                                                        ],
                                                                                        "depth": 8,
                                                                                        "id": 10,
                                                                                        "order": 10
                                                                                    }
                                                                                ],
                                                                                "depth": 7,
                                                                                "id": 9,
                                                                                "order": 9
                                                                            }
                                                                        ],
                                                                        "depth": 6,
                                                                        "id": 8,
                                                                        "order": 8
                                                                    },
                                                                    {
                                                                        "children": [
                                                                            {
                                                                                "children": [
                                                                                    {
                                                                                        "children": [],
                                                                                        "depth": 8,
                                                                                        "id": 14,
                                                                                        "order": 14
                                                                                    }
                                                                                ],
                                                                                "depth": 7,
                                                                                "id": 13,
                                                                                "order": 13
                                                                            }
                                                                        ],
                                                                        "depth": 6,
                                                                        "id": 12,
                                                                        "order": 12
                                                                    },
                                                                    {
                                                                        "children": [
                                                                            {
                                                                                "children": [
                                                                                    {
                                                                                        "children": [
                                                                                            {
                                                                                                "children": [],
                                                                                                "depth": 9,
                                                                                                "id": 18,
                                                                                                "order": 18
                                                                                            }
                                                                                        ],
                                                                                        "depth": 8,
                                                                                        "id": 17,
                                                                                        "order": 17
                                                                                    },
                                                                                    {
                                                                                        "children": [],
                                                                                        "depth": 8,
                                                                                        "id": 19,
                                                                                        "order": 19
                                                                                    }
                                                                                ],
                                                                                "depth": 7,
                                                                                "id": 16,
                                                                                "order": 16
                                                                            }
                                                                        ],
                                                                        "depth": 6,
                                                                        "id": 15,
                                                                        "order": 15
                                                                    },
                                                                    {
                                                                        "children": [],
                                                                        "depth": 6,
                                                                        "id": 20,
                                                                        "order": 20
                                                                    },
                                                                    {
                                                                        "children": [],
                                                                        "depth": 6,
                                                                        "id": 21,
                                                                        "order": 21
                                                                    }
                                                                ],
                                                                "depth": 5,
                                                                "id": 5,
                                                                "order": 5
                                                            }
                                                        ],
                                                        "depth": 4,
                                                        "id": 4,
                                                        "order": 4
                                                    },
                                                    {
                                                        "children": [],
                                                        "depth": 4,
                                                        "id": 22,
                                                        "order": 22
                                                    }
                                                ],
                                                "depth": 3,
                                                "id": 3,
                                                "order": 3
                                            }
                                        ],
                                        "depth": 2,
                                        "id": 2,
                                        "order": 2
                                    }
                                ],
                                "depth": 1,
                                "id": 1,
                                "order": 1
                            }
                        ],
                        "depth": 0,
                        "id": 0,
                        "order": 0
                    }
                ],
                "depth": -1,
                "id": -1,
                "order": -1
            }
        ],
        "mainTraceNodeCount": 23,
        "parentIdMap": {
            "0": -1,
            "1": 0,
            "10": 9,
            "11": 10,
            "12": 5,
            "13": 12,
            "14": 13,
            "15": 5,
            "16": 15,
            "17": 16,
            "18": 17,
            "19": 16,
            "2": 1,
            "20": 5,
            "21": 5,
            "22": 3,
            "3": 2,
            "4": 3,
            "5": 4,
            "6": 5,
            "7": 6,
            "8": 5,
            "9": 8
        },
        "tidyTrace": [
            {
                "children": [
                    {
                        "children": [
                            {
                                "children": [
                                    {
                                        "children": [
                                            {
                                                "children": [
                                                    {
                                                        "children": [
                                                            {
                                                                "children": [
                                                                    {
                                                                        "children": [
                                                                            {
                                                                                "children": [
                                                                                    {
                                                                                        "children": [],
                                                                                        "depth": 8,
                                                                                        "id": 14,
                                                                                        "order": 14
                                                                                    }
                                                                                ],
                                                                                "depth": 7,
                                                                                "id": 13,
                                                                                "order": 13
                                                                            }
                                                                        ],
                                                                        "depth": 6,
                                                                        "id": 12,
                                                                        "order": 12
                                                                    },
                                                                    {
                                                                        "children": [
                                                                            {
                                                                                "children": [
                                                                                    {
                                                                                        "children": [],
                                                                                        "depth": 8,
                                                                                        "id": 19,
                                                                                        "order": 19
                                                                                    }
                                                                                ],
                                                                                "depth": 7,
                                                                                "id": 16,
                                                                                "order": 16
                                                                            }
                                                                        ],
                                                                        "depth": 6,
                                                                        "id": 15,
                                                                        "order": 15
                                                                    },
                                                                    {
                                                                        "children": [],
                                                                        "depth": 6,
                                                                        "id": 20,
                                                                        "order": 20
                                                                    },
                                                                    {
                                                                        "children": [],
                                                                        "depth": 6,
                                                                        "id": 21,
                                                                        "order": 21
                                                                    }
                                                                ],
                                                                "depth": 5,
                                                                "id": 5,
                                                                "order": 5
                                                            }
                                                        ],
                                                        "depth": 4,
                                                        "id": 4,
                                                        "order": 4
                                                    },
                                                    {
                                                        "children": [],
                                                        "depth": 4,
                                                        "id": 22,
                                                        "order": 22
                                                    }
                                                ],
                                                "depth": 3,
                                                "id": 3,
                                                "order": 3
                                            }
                                        ],
                                        "depth": 2,
                                        "id": 2,
                                        "order": 2
                                    }
                                ],
                                "depth": 1,
                                "id": 1,
                                "order": 1
                            }
                        ],
                        "depth": 0,
                        "id": 0,
                        "order": 0
                    }
                ],
                "depth": -1,
                "id": -1,
                "order": -1
            }
        ],
        "tidyTraceNodeCount": 15
    },
    "state_change": {
        "stateChanges": [
            {
                "address": "0x0d7e906bd9cafa154b048cfa766cc1e54e39af9b",
                "erc": "",
                "slots": [
                    {
                        "current": "0x0000000000000000000000000000000000000000000000000000000000025e79",
                        "key": "0x0000000000000000000000000000000000000000000000000000000000000069",
                        "prev": "0x0000000000000000000000000000000000000000000000000000000000025e78"
                    },
                    {
                        "current": "0x5d3baf5a967b600e0d8e2233a5a2dfbf547495e725c0081869b9562d92324637",
                        "key": "0x7fb4302e8e91f9110a6554c2c0a24601252c2a42c2220ca988efcfe39993a180",
                        "prev": "0x0000000000000000000000000000000000000000000000000000000000000000"
                    }
                ],
                "storageVariables": [
                    {
                        "name": "messageQueue",
                        "type": "bytes32[]",
                        "value": {
                            "elemType": "bytes32",
                            "elems": [
                                {
                                    "index": 155256,
                                    "value": {
                                        "current": "0x5d3baf5a967b600e0d8e2233a5a2dfbf547495e725c0081869b9562d92324637",
                                        "prev": "0x0000000000000000000000000000000000000000000000000000000000000000",
                                        "typeTag": 1
                                    }
                                }
                            ],
                            "typeTag": 2
                        }
                    }
                ]
            },
            {
                "address": "0x6774bcbd5cecef1336b5300fb5186a12ddd8b367",
                "erc": "",
                "slots": [
                    {
                        "current": "0x0000000000000000000000000000000000000000000000000000000065d2969f",
                        "key": "0x14ec744d14a99281b039756eee8a9dc3e92ca2918bc37b5c5dbce122d3638a22",
                        "prev": "0x0000000000000000000000000000000000000000000000000000000000000000"
                    }
                ],
                "storageVariables": [
                    {
                        "name": "messageSendTimestamp",
                        "type": "mapping(bytes32 => uint256)",
                        "value": {
                            "pairs": [
                                {
                                    "key": "0x73954f07d20dea94cd871c5e767d4d66a2f944d15c88c44008a8481d10669438",
                                    "value": {
                                        "current": "1708299935",
                                        "prev": "0",
                                        "typeTag": 1
                                    }
                                }
                            ],
                            "typeTag": 4
                        }
                    }
                ]
            }
        ]
    }
}