{
    "balance_change": {
        "balanceChanges": [
            {
                "account": "0x9d66e267c84402ea76bca64582600e2ba9514175",
                "assets": [
                    {
                        "address": "0xfe33b205088e5e07d5a71416dc4558cb86c3959d",
                        "amount": "4,531,447.9999",
                        "iconUrl": "",
                        "isERC1155": false,
                        "isERC721": false,
                        "sign": false,
                        "value": ""
                    }
                ]
            },
            {
                "account": "0x1698c57f9c0c223ac67de1d14af43a478595662a",
                "assets": [
                    {
                        "address": "0xfe33b205088e5e07d5a71416dc4558cb86c3959d",
                        "amount": "4,531,447.9999",
                        "iconUrl": "",
                        "isERC1155": false,
                        "isERC721": false,
                        "sign": true,
                        "value": ""
                    }
                ]
            }
        ]
    },
    "profile": {
        "basic_info": {
            "baseFee": "",
            "blockNumber": 8322410,
            "callData": "0xa9059cbb0000000000000000000000001698c57f9c0c223ac67de1d14af43a478595662a00000000000000000000000000000000000000000003bf9249ce04952865c000",
            "debugEnable": true,
            "errorInfo": "",
            "eventCount": 1,
            "feeRecipient": "0x52bc44d5378309ee2abf1539bf71de1b7d7be3b5",
            "formatValue": "0",
            "gasLimit": 60000,
            "gasPrice": "21.782089728",
            "gasUsed": 52321,
            "intTxnCount": 0,
            "internalRevert": false,
            "internalRevertMessage": "",
            "isContractCreation": false,
            "isFlashloan": false,
            "maxFee": "",
            "nonce": 17737,
            "overwritedBlockNumber": -1,
            "priorityFee": "",
            "receiver": "0xfe33b205088e5e07d5a71416dc4558cb86c3959d",
            "revertMessage": "",
            "sender": "0x9d66e267c84402ea76bca64582600e2ba9514175",
            "simulationEnable": true,
            "sourceTxnHash": "0xed9a4ccd80fb9b95773c368aac99a4e9c4d034c39fb9a6e4437395a3f72ae78d",
            "status": true,
            "timestamp": "2019-08-10T10:41:31Z",
            "transactionFee": "0.001139660716658688",
            "txnHash": "0xed9a4ccd80fb9b95773c368aac99a4e9c4d034c39fb9a6e4437395a3f72ae78d",
            "txnIndex": 27,
            "type": 0,
            "value": "0"
        },
        "fund_flow": [
            {
                "amount": "4,531,447.9999",
                "from": "0x9d66e267c84402ea76bca64582600e2ba9514175",
                "id": 1,
                "isERC1155": false,
                "isERC721": false,
                "isReverted": false,
                "order": 1,
                "to": "0x1698c57f9c0c223ac67de1d14af43a478595662a",
                "token": "0xfe33b205088e5e07d5a71416dc4558cb86c3959d"
            }
        ],
        "token_infos": [
            {
                "address": "0xc02aaa39b223fe8d0a0e5c4f27ead9083c756cc2",
                "decimals": 18
            },
            {
                "address": "0xfe33b205088e5e07d5a71416dc4558cb86c3959d",
                "decimals": 18
            },
            {
                "address": "0xeeeeeeeeeeeeeeeeeeeeeeeeeeeeeeeeeeeeeeee",
                "decimals": 18
            }
        ]
    },
    "address_label": {
        "labels": [
            {
                "address": "0xeeeeeeeeeeeeeeeeeeeeeeeeeeeeeeeeeeeeeeee",
                "label": "Ether"
            },
            {
                "address": "0xfe33b205088e5e07d5a71416dc4558cb86c3959d",
                "label": "UNCOIN (UNIC)"
            },
            {
                "address": "0x0000000000000000000000000000000000000001",
                "label": "Precompiled"
            },
            {
                "address": "0x0000000000000000000000000000000000000002",
                "label": "Precompiled"
            },
            {
                "address": "0x0000000000000000000000000000000000000003",
                "label": "Precompiled"
            },
            {
                "address": "0x0000000000000000000000000000000000000004",
                "label": "Precompiled"
            }
        ]
    },
    "trace": {
        "accountLabels": null,
        "dataMap": {
            "-1": {
                "invocation": {
                    "address": "0x9d66e267c84402ea76bca64582600e2ba9514175",
                    "callData": "",
                    "decodedMethod": null,
                    "errorInfo": "",
                    "fromAddress": "",
                    "gasUsed": 0,
                    "id": -1,
                    "methodDecoded": false,
                    "operation": "",
                    "output": "",
                    "revert": false,
                    "revertMessage": "",
                    "selector": "",
                    "status": false,
                    "value": ""
                },
                "nodeType": 0
            },
            "0": {
                "invocation": {
                    "address": "0xfe33b205088e5e07d5a71416dc4558cb86c3959d",
                    "callData": "0x0000000000000000000000001698c57f9c0c223ac67de1d14af43a478595662a00000000000000000000000000000000000000000003bf9249ce04952865c000",
                    "decodedMethod": {
                        "callParams": [
                            {
                                "name": "recipient",
                                "type": "address",
                                "value": "0x1698c57f9c0c223ac67de1d14af43a478595662a"
                            },
                            {
                                "decimalAvailable": true,
                                "name": "amount",
                                "type": "uint256",
                                "value": "4,531,447,999,900,000,000,000,000"
                            }
                        ],
                        "constructorArguments": "",
                        "name": "transfer",
                        "returnParams": [
                            {
                                "name": "",
                                "type": "bool",
                                "value": true
                            }
                        ],
                        "signature": "transfer(address,uint256)"
                    },
                    "errorInfo": "",
                    "fromAddress": "0x9d66e267c84402ea76bca64582600e2ba9514175",
                    "gasUsed": 52321,
                    "id": 0,
                    "methodDecoded": true,
                    "operation": "CALL",
                    "output": "0x0000000000000000000000000000000000000000000000000000000000000001",
                    "revert": false,
                    "revertMessage": "",
                    "selector": "0xa9059cbb",
                    "status": true,
                    "value": "0"
                },
                "nodeType": 0
            },
            "1": {
                "event": {
                    "contract": "0xfe33b205088e5e07d5a71416dc4558cb86c3959d",
                    "decodedLog": {
                        "name": "Transfer",
                        "params": [
                            {
                                "name": "from",
                                "type": "address",
                                "value": "0x9d66e267c84402ea76bca64582600e2ba9514175"
                            },
                            {
                                "name": "to",
                                "type": "address",
                                "value": "0x1698c57f9c0c223ac67de1d14af43a478595662a"
                            },
                            {
                                "decimalAvailable": true,
                                "name": "value",
                                "type": "uint256",
                                "value": "4,531,447,999,900,000,000,000,000"
                            }
                        ],
                        "signature": "Transfer(address,address,uint256)"
                    },
                    "id": 1,
                    "logData": "0x00000000000000000000000000000000000000000003bf9249ce04952865c000",
                    "logDecoded": true,
                    "operation": "EVENT",
                    "revert": false,
                    "status": true,
                    "topics": [
                        "0xddf252ad1be2c89b69c2b068fc378daa952ba7f163c4a11628f55a4df523b3ef",
                        "0x0000000000000000000000009d66e267c84402ea76bca64582600e2ba9514175",
                        "0x0000000000000000000000001698c57f9c0c223ac67de1d14af43a478595662a"
                    ]
                },
                "nodeType": 1
            }
        },
        "gasFlame": [
            {
                "children": [
                    {
                        "children": [
                            {
                                "children": [],
                                "depth": 0,
                                "name": "Initial Gas",
                                "value": 23448
                            },
                            {
                                "children": [],
                                "depth": 0,
                                "name": "Executed Gas",
                                "value": 28873
                            }
                        ],
                        "depth": -1,
                        "name": "Actual Gas Used",
                        "value": 52321
                    },
                    {
                        "children": [],
                        "depth": -1,
                        "name": "Refunded Gas",
                        "value": 0
                    }
                ],
                "depth": -2,
                "name": "Total Gas",
                "value": 52321
            }
        ],
        "isConfirmed": true,
        "mainTrace": [
            {
                "children": [
                    {
                        "children": [
                            {
                                "children": [],
                                "depth": 1,
                                "id": 1,
                                "order": 1
                            }
                        ],
                        "depth": 0,
                        "id": 0,
                        "order": 0
                    }
                ],
                "depth": -1,
                "id": -1,
                "order": -1
            }
        ],
        "mainTraceNodeCount": 2,
        "parentIdMap": {
            "0": -1,
            "1": 0
        },
        "tidyTrace": [
            {
                "children": [
                    {
                        "children": [
                            {
                                "children": [],
                                "depth": 1,
                                "id": 1,
                                "order": 1
                            }
                        ],
                        "depth": 0,
                        "id": 0,
                        "order": 0
                    }
                ],
                "depth": -1,
                "id": -1,
                "order": -1
            }
        ],
        "tidyTraceNodeCount": 2
    },
    "state_change": {
        "stateChanges": [
            {
                "address": "0xfe33b205088e5e07d5a71416dc4558cb86c3959d",
                "erc": "",
                "slots": [
                    {
                        "current": "0x00000000000000000000000000000000000000000000000000005af3106e4000",
                        "key": "0x6776a7cffd2757dbe8f5e10c95a81bb98a7f7c6f2e9755baf3907d14cae7f47a",
                        "prev": "0x00000000000000000000000000000000000000000003bf9249ce5f8838d40000"
                    },
                    {
                        "current": "0x00000000000000000000000000000000000000000003bf9249ce04952865c000",
                        "key": "0xc42dc84130e39c7570c2da934bd93348e07e7edb5b90d461b549fd346828063f",
                        "prev": "0x0000000000000000000000000000000000000000000000000000000000000000"
                    }
                ],
                "storageVariables": []
            }
        ]
    }
}