{
    "balance_change": {
        "balanceChanges": [
            {
                "account": "0x54bf7386d3780436326f6f5aad93cdc55ce7c459",
                "assets": [
                    {
                        "address": "0xa0b86991c6218b36c1d19d4a2e9eb0ce3606eb48",
                        "amount": "72,739.575266",
                        "iconUrl": "https://assets.blocksec.com/icon/0347a86cc07dbd03fdc5db01a4e5ac7e1217f90e0b6e4bb0f75cbcca09160989.png",
                        "isERC1155": false,
                        "isERC721": false,
                        "sign": false,
                        "value": "71219.31814685699784"
                    }
                ]
            },
            {
                "account": "0x0b5f9c23b0dbe37e595b48fad872c4d7bbfef88f",
                "assets": [
                    {
                        "address": "0xa0b86991c6218b36c1d19d4a2e9eb0ce3606eb48",
                        "amount": "72,739.575266",
                        "iconUrl": "https://assets.blocksec.com/icon/0347a86cc07dbd03fdc5db01a4e5ac7e1217f90e0b6e4bb0f75cbcca09160989.png",
                        "isERC1155": false,
                        "isERC721": false,
                        "sign": true,
                        "value": "71219.31814685699784"
                    }
                ]
            }
        ]
    },
    "profile": {
        "basic_info": {
            "baseFee": "58.123573686",
            "blockNumber": 16801410,
            "callData": "0xa9059cbb0000000000000000000000000b5f9c23b0dbe37e595b48fad872c4d7bbfef88f00000000000000000000000000000000000000000000000000000010ef9dd5e2",
            "debugEnable": true,
            "errorInfo": "",
            "eventCount": 1,
            "feeRecipient": "0xdafea492d9c6733ae3d56b7ed1adb60692c98bc5",
            "formatValue": "0",
            "gasLimit": 73206,
            "gasPrice": "58.223573686",
            "gasUsed": 43737,
            "intTxnCount": 1,
            "internalRevert": false,
            "internalRevertMessage": "",
            "isContractCreation": false,
            "isFlashloan": false,
            "maxFee": "71.954756654",
            "nonce": 4,
            "overwritedBlockNumber": -1,
            "priorityFee": "0.1",
            "receiver": "0xa0b86991c6218b36c1d19d4a2e9eb0ce3606eb48",
            "revertMessage": "",
            "sender": "0x54bf7386d3780436326f6f5aad93cdc55ce7c459",
            "simulationEnable": true,
            "sourceTxnHash": "0xede865eafb72fd22c890b85a0f249bbc750374a0dc2a022370c609da502e35bc",
            "status": true,
            "timestamp": "2023-03-11T00:53:47Z",
            "transactionFee": "0.002546524442304582",
            "txnHash": "0xede865eafb72fd22c890b85a0f249bbc750374a0dc2a022370c609da502e35bc",
            "txnIndex": 95,
            "type": 2,
            "value": "0"
        },
        "fund_flow": [
            {
                "amount": "72,739.575266",
                "from": "0x54bf7386d3780436326f6f5aad93cdc55ce7c459",
                "id": 1,
                "isERC1155": false,
                "isERC721": false,
                "isReverted": false,
                "order": 1,
                "to": "0x0b5f9c23b0dbe37e595b48fad872c4d7bbfef88f",
                "token": "0xa0b86991c6218b36c1d19d4a2e9eb0ce3606eb48"
            }
        ],
        "token_infos": [
            {
                "address": "0xa0b86991c6218b36c1d19d4a2e9eb0ce3606eb48",
                "decimals": 6
            },
            {
                "address": "0xc02aaa39b223fe8d0a0e5c4f27ead9083c756cc2",
                "decimals": 18
            },
            {
                "address": "0xeeeeeeeeeeeeeeeeeeeeeeeeeeeeeeeeeeeeeeee",
                "decimals": 18
            }
        ]
    },
    "address_label": {
        "labels": [
            {
                "address": "0xeeeeeeeeeeeeeeeeeeeeeeeeeeeeeeeeeeeeeeee",
                "label": "Ether"
            },
            {
                "address": "0xa2327a938febf5fec13bacfb16ae10ecbc4cbdcf",
                "label": "FiatTokenV2_1"
            },
            {
                "address": "0xa0b86991c6218b36c1d19d4a2e9eb0ce3606eb48",
                "label": "Circle: USDC Token"
            },
            {
                "address": "0x0000000000000000000000000000000000000001",
                "label": "Precompiled"
            },
            {
                "address": "0x0000000000000000000000000000000000000002",
                "label": "Precompiled"
            },
            {
                "address": "0x0000000000000000000000000000000000000003",
                "label": "Precompiled"
            },
            {
                "address": "0x0000000000000000000000000000000000000004",
                "label": "Precompiled"
            }
        ]
    },
    "trace": {
        "accountLabels": null,
        "dataMap": {
            "-1": {
                "invocation": {
                    "address": "0x54bf7386d3780436326f6f5aad93cdc55ce7c459",
                    "callData": "",
                    "decodedMethod": null,
                    "errorInfo": "",
                    "fromAddress": "",
                    "gasUsed": 0,
                    "id": -1,
                    "methodDecoded": false,
                    "operation": "",
                    "output": "",
                    "revert": false,
                    "revertMessage": "",
                    "selector": "",
                    "status": false,
                    "value": ""
                },
                "nodeType": 0
            },
            "0": {
                "invocation": {
                    "address": "0xa0b86991c6218b36c1d19d4a2e9eb0ce3606eb48",
                    "callData": "0x0000000000000000000000000b5f9c23b0dbe37e595b48fad872c4d7bbfef88f00000000000000000000000000000000000000000000000000000010ef9dd5e2",
                    "decodedMethod": {
                        "callParams": [
                            {
                                "name": "to",
                                "type": "address",
                                "value": "0x0b5f9c23b0dbe37e595b48fad872c4d7bbfef88f"
                            },
                            {
                                "decimalAvailable": true,
                                "name": "value",
                                "type": "uint256",
                                "value": "72,739,575,266"
                            }
                        ],
                        "constructorArguments": "",
                        "name": "transfer",
                        "returnParams": [
                            {
                                "name": "",
                                "type": "bool",
                                "value": true
                            }
                        ],
                        "signature": "transfer(address,uint256)"
                    },
                    "errorInfo": "",
                    "fromAddress": "0x54bf7386d3780436326f6f5aad93cdc55ce7c459",
                    "gasUsed": 43737,
                    "id": 0,
                    "methodDecoded": true,
                    "operation": "CALL",
                    "output": "0x0000000000000000000000000000000000000000000000000000000000000001",
                    "revert": false,
                    "revertMessage": "",
                    "selector": "0xa9059cbb",
                    "status": true,
                    "value": "0"
                },
                "nodeType": 0
            },
            "1": {
                "invocation": {
                    "address": "0xa2327a938febf5fec13bacfb16ae10ecbc4cbdcf",
                    "callData": "0x0000000000000000000000000b5f9c23b0dbe37e595b48fad872c4d7bbfef88f00000000000000000000000000000000000000000000000000000010ef9dd5e2",
                    "decodedMethod": {
                        "callParams": [
                            {
                                "name": "to",
                                "type": "address",
                                "value": "0x0b5f9c23b0dbe37e595b48fad872c4d7bbfef88f"
                            },
                            {
                                "decimalAvailable": true,
                                "name": "value",
                                "type": "uint256",
                                "value": "72,739,575,266"
                            }
                        ],
                        "constructorArguments": "",
                        "name": "transfer",
                        "returnParams": [
                            {
                                "name": "",
                                "type": "bool",
                                "value": true
                            }
                        ],
                        "signature": "transfer(address,uint256)"
                    },
                    "errorInfo": "",
                    "fromAddress": "0xa0b86991c6218b36c1d19d4a2e9eb0ce3606eb48",
                    "gasUsed": 19628,
                    "id": 1,
                    "methodDecoded": true,
                    "operation": "DELEGATECALL",
                    "output": "0x0000000000000000000000000000000000000000000000000000000000000001",
                    "revert": false,
                    "revertMessage": "",
                    "selector": "0xa9059cbb",
                    "status": true,
                    "value": "0"
                },
                "nodeType": 0
            },
            "2": {
                "event": {
                    "contract": "0xa0b86991c6218b36c1d19d4a2e9eb0ce3606eb48",
                    "decodedLog": {
                        "name": "Transfer",
                        "params": [
                            {
                                "name": "from",
                                "type": "address",
                                "value": "0x54bf7386d3780436326f6f5aad93cdc55ce7c459"
                            },
                            {
                                "name": "to",
                                "type": "address",
                                "value": "0x0b5f9c23b0dbe37e595b48fad872c4d7bbfef88f"
                            },
                            {
                                "decimalAvailable": true,
                                "name": "value",
                                "type": "uint256",
                                "value": "72,739,575,266"
                            }
                        ],
                        "signature": "Transfer(address,address,uint256)"
                    },
                    "id": 2,
                    "logData": "0x00000000000000000000000000000000000000000000000000000010ef9dd5e2",
                    "logDecoded": true,
                    "operation": "EVENT",
                    "revert": false,
                    "status": true,
                    "topics": [
                        "0xddf252ad1be2c89b69c2b068fc378daa952ba7f163c4a11628f55a4df523b3ef",
                        "0x00000000000000000000000054bf7386d3780436326f6f5aad93cdc55ce7c459",
                        "0x0000000000000000000000000b5f9c23b0dbe37e595b48fad872c4d7bbfef88f"
                    ]
                },
                "nodeType": 1
            }
        },
        "gasFlame": [
            {
                "children": [
                    {
                        "children": [
                            {
                                "children": [],
                                "depth": 0,
                                "name": "Initial Gas",
                                "value": 21620
                            },
                            {
                                "children": [
                                    {
                                        "children": [],
                                        "depth": 1,
                                        "name": "transfer",
                                        "value": 19628
                                    }
                                ],
                                "depth": 0,
                                "name": "Executed Gas",
                                "value": 26917
                            }
                        ],
                        "depth": -1,
                        "name": "Actual Gas Used",
                        "value": 43737
                    },
                    {
                        "children": [],
                        "depth": -1,
                        "name": "Refunded Gas",
                        "value": 4800
                    }
                ],
                "depth": -2,
                "name": "Total Gas",
                "value": 48537
            }
        ],
        "isConfirmed": true,
        "mainTrace": [
            {
                "children": [
                    {
                        "children": [
                            {
                                "children": [
                                    {
                                        "children": [],
                                        "depth": 2,
                                        "id": 2,
                                        "order": 2
                                    }
                                ],
                                "depth": 1,
                                "id": 1,
                                "order": 1
                            }
                        ],
                        "depth": 0,
                        "id": 0,
                        "order": 0
                    }
                ],
                "depth": -1,
                "id": -1,
                "order": -1
            }
        ],
        "mainTraceNodeCount": 3,
        "parentIdMap": {
            "0": -1,
            "1": 0,
            "2": 1
        },
        "tidyTrace": [
            {
                "children": [
                    {
                        "children": [
                            {
                                "children": [
                                    {
                                        "children": [],
                                        "depth": 2,
                                        "id": 2,
                                        "order": 2
                                    }
                                ],
                                "depth": 1,
                                "id": 1,
                                "order": 1
                            }
                        ],
                        "depth": 0,
                        "id": 0,
                        "order": 0
                    }
                ],
                "depth": -1,
                "id": -1,
                "order": -1
            }
        ],
        "tidyTraceNodeCount": 3
    },
    "state_change": {
        "stateChanges": [
            {
                "address": "0xa0b86991c6218b36c1d19d4a2e9eb0ce3606eb48",
                "erc": "ERC-20",
                "slots": [
                    {
                        "current": "0x000000000000000000000000000000000000000000000000000000238ffdbb26",
                        "key": "0x5b6c969a6b4462c89829dfdb79048a4dad65a154df759303376aa83e12cf4282",
                        "prev": "0x00000000000000000000000000000000000000000000000000000012a05fe544"
                    },
                    {
                        "current": "0x0000000000000000000000000000000000000000000000000000000000000000",
                        "key": "0x3eb6020a2c94532313cd0f4ec4faef97e95591d7ddc88c06da940fbf0c152821",
                        "prev": "0x00000000000000000000000000000000000000000000000000000010ef9dd5e2"
                    }
                ],
                "storageVariables": [
                    {
                        "name": "balances",
                        "type": "mapping(address => uint256)",
                        "value": {
                            "pairs": [
                                {
                                    "key": "0x0b5f9c23b0dbe37e595b48fad872c4d7bbfef88f",
                                    "value": {
                                        "current": "152739625766",
                                        "prev": "80000050500",
                                        "typeTag": 1
                                    }
                                },
                                {
                                    "key": "0x54bf7386d3780436326f6f5aad93cdc55ce7c459",
                                    "value": {
                                        "current": "0",
                                        "prev": "72739575266",
                                        "typeTag": 1
                                    }
                                }
                            ],
                            "typeTag": 4
                        }
                    }
                ]
            }
        ]
    }
}