{
    "balance_change": {
        "balanceChanges": [
            {
                "account": "0x0000000000000000000000000000000000000000",
                "assets": [
                    {
                        "address": "0x3dd98c8a089dbcff7e8fc8d4f532bd493501ab7f",
                        "amount": "56",
                        "iconUrl": "",
                        "isERC1155": false,
                        "isERC721": false,
                        "sign": false,
                        "value": "6.44200328"
                    }
                ]
            },
            {
                "account": "0x333f97cf67d9e6f1943a88bf71540219b6a6391c",
                "assets": [
                    {
                        "address": "0x3dd98c8a089dbcff7e8fc8d4f532bd493501ab7f",
                        "amount": "56",
                        "iconUrl": "",
                        "isERC1155": false,
                        "isERC721": false,
                        "sign": true,
                        "value": "6.44200328"
                    }
                ]
            }
        ]
    },
    "profile": {
        "basic_info": {
            "baseFee": "54.03358133",
            "blockNumber": 14531575,
            "callData": "0x7fd30df0000000000000000000000000000000000000000000000000000000000000004000000000000000000000000000000000000000000000000000000000000000800000000000000000000000000000000000000000000000000000000000000001000000000000000000000000333f97cf67d9e6f1943a88bf71540219b6a6391c0000000000000000000000000000000000000000000000000000000000000001000000000000000000000000000000000000000000000000000000014dc93800",
            "debugEnable": true,
            "errorInfo": "",
            "eventCount": 1,
            "feeRecipient": "0x829bd824b016326a401d083b33d092293333a830",
            "formatValue": "0",
            "gasLimit": 65000,
            "gasPrice": "56.53358133",
            "gasUsed": 62661,
            "intTxnCount": 0,
            "internalRevert": false,
            "internalRevertMessage": "",
            "isContractCreation": false,
            "isFlashloan": false,
            "maxFee": "115.758788128",
            "nonce": 32323,
            "overwritedBlockNumber": -1,
            "priorityFee": "2.5",
            "receiver": "0x3dd98c8a089dbcff7e8fc8d4f532bd493501ab7f",
            "revertMessage": "",
            "sender": "0xf8ea0c039c22b45d7d8505d07bd6a58e08e58f5b",
            "simulationEnable": true,
            "sourceTxnHash": "0xedc32911ae7a1af3698e8c7fb25f373c8610dba5bb8d48f46b63d3c6873f0343",
            "status": true,
            "timestamp": "2022-04-06T09:33:00Z",
            "transactionFee": "0.00354245073971913",
            "txnHash": "0xedc32911ae7a1af3698e8c7fb25f373c8610dba5bb8d48f46b63d3c6873f0343",
            "txnIndex": 251,
            "type": 2,
            "value": "0"
        },
        "fund_flow": [
            {
                "amount": "56",
                "from": "0x0000000000000000000000000000000000000000",
                "id": 1,
                "isERC1155": false,
                "isERC721": false,
                "isReverted": false,
                "order": 1,
                "to": "0x333f97cf67d9e6f1943a88bf71540219b6a6391c",
                "token": "0x3dd98c8a089dbcff7e8fc8d4f532bd493501ab7f"
            }
        ],
        "token_infos": [
            {
                "address": "0x3dd98c8a089dbcff7e8fc8d4f532bd493501ab7f",
                "decimals": 8
            },
            {
                "address": "0xc02aaa39b223fe8d0a0e5c4f27ead9083c756cc2",
                "decimals": 18
            },
            {
                "address": "0xeeeeeeeeeeeeeeeeeeeeeeeeeeeeeeeeeeeeeeee",
                "decimals": 18
            }
        ]
    },
    "address_label": {
        "labels": [
            {
                "address": "0x0000000000000000000000000000000000000003",
                "label": "Precompiled"
            },
            {
                "address": "0x0000000000000000000000000000000000000004",
                "label": "Precompiled"
            },
            {
                "address": "0xeeeeeeeeeeeeeeeeeeeeeeeeeeeeeeeeeeeeeeee",
                "label": "Ether"
            },
            {
                "address": "0x3dd98c8a089dbcff7e8fc8d4f532bd493501ab7f",
                "label": "Gala Games: TOWN Token"
            },
            {
                "address": "0x0000000000000000000000000000000000000001",
                "label": "Precompiled"
            },
            {
                "address": "0x0000000000000000000000000000000000000002",
                "label": "Precompiled"
            }
        ]
    },
    "trace": {
        "accountLabels": null,
        "dataMap": {
            "-1": {
                "invocation": {
                    "address": "0xf8ea0c039c22b45d7d8505d07bd6a58e08e58f5b",
                    "callData": "",
                    "decodedMethod": null,
                    "errorInfo": "",
                    "fromAddress": "",
                    "gasUsed": 0,
                    "id": -1,
                    "methodDecoded": false,
                    "operation": "",
                    "output": "",
                    "revert": false,
                    "revertMessage": "",
                    "selector": "",
                    "status": false,
                    "value": ""
                },
                "nodeType": 0
            },
            "0": {
                "invocation": {
                    "address": "0x3dd98c8a089dbcff7e8fc8d4f532bd493501ab7f",
                    "callData": "0x000000000000000000000000000000000000000000000000000000000000004000000000000000000000000000000000000000000000000000000000000000800000000000000000000000000000000000000000000000000000000000000001000000000000000000000000333f97cf67d9e6f1943a88bf71540219b6a6391c0000000000000000000000000000000000000000000000000000000000000001000000000000000000000000000000000000000000000000000000014dc93800",
                    "decodedMethod": {
                        "callParams": [
                            {
                                "name": "accounts",
                                "type": "address[]",
                                "value": [
                                    "0x333f97cf67d9e6f1943a88bf71540219b6a6391c"
                                ]
                            },
                            {
                                "name": "amounts",
                                "type": "uint256[]",
                                "value": [
                                    "5,600,000,000"
                                ]
                            }
                        ],
                        "constructorArguments": "",
                        "name": "mintBulk",
                        "returnParams": [
                            {
                                "name": "",
                                "type": "bool",
                                "value": true
                            }
                        ],
                        "signature": "mintBulk(address[],uint256[])"
                    },
                    "errorInfo": "",
                    "fromAddress": "0xf8ea0c039c22b45d7d8505d07bd6a58e08e58f5b",
                    "gasUsed": 62661,
                    "id": 0,
                    "methodDecoded": true,
                    "operation": "CALL",
                    "output": "0x0000000000000000000000000000000000000000000000000000000000000001",
                    "revert": false,
                    "revertMessage": "",
                    "selector": "0x7fd30df0",
                    "status": true,
                    "value": "0"
                },
                "nodeType": 0
            },
            "1": {
                "event": {
                    "contract": "0x3dd98c8a089dbcff7e8fc8d4f532bd493501ab7f",
                    "decodedLog": {
                        "name": "Transfer",
                        "params": [
                            {
                                "name": "from",
                                "type": "address",
                                "value": "0x0000000000000000000000000000000000000000"
                            },
                            {
                                "name": "to",
                                "type": "address",
                                "value": "0x333f97cf67d9e6f1943a88bf71540219b6a6391c"
                            },
                            {
                                "decimalAvailable": true,
                                "name": "value",
                                "type": "uint256",
                                "value": "5,600,000,000"
                            }
                        ],
                        "signature": "Transfer(address,address,uint256)"
                    },
                    "id": 1,
                    "logData": "0x000000000000000000000000000000000000000000000000000000014dc93800",
                    "logDecoded": true,
                    "operation": "EVENT",
                    "revert": false,
                    "status": true,
                    "topics": [
                        "0xddf252ad1be2c89b69c2b068fc378daa952ba7f163c4a11628f55a4df523b3ef",
                        "0x0000000000000000000000000000000000000000000000000000000000000000",
                        "0x000000000000000000000000333f97cf67d9e6f1943a88bf71540219b6a6391c"
                    ]
                },
                "nodeType": 1
            }
        },
        "gasFlame": [
            {
                "children": [
                    {
                        "children": [
                            {
                                "children": [],
                                "depth": 0,
                                "name": "Initial Gas",
                                "value": 22168
                            },
                            {
                                "children": [],
                                "depth": 0,
                                "name": "Executed Gas",
                                "value": 40493
                            }
                        ],
                        "depth": -1,
                        "name": "Actual Gas Used",
                        "value": 62661
                    },
                    {
                        "children": [],
                        "depth": -1,
                        "name": "Refunded Gas",
                        "value": 0
                    }
                ],
                "depth": -2,
                "name": "Total Gas",
                "value": 62661
            }
        ],
        "isConfirmed": true,
        "mainTrace": [
            {
                "children": [
                    {
                        "children": [
                            {
                                "children": [],
                                "depth": 1,
                                "id": 1,
                                "order": 1
                            }
                        ],
                        "depth": 0,
                        "id": 0,
                        "order": 0
                    }
                ],
                "depth": -1,
                "id": -1,
                "order": -1
            }
        ],
        "mainTraceNodeCount": 2,
        "parentIdMap": {
            "0": -1,
            "1": 0
        },
        "tidyTrace": [
            {
                "children": [
                    {
                        "children": [
                            {
                                "children": [],
                                "depth": 1,
                                "id": 1,
                                "order": 1
                            }
                        ],
                        "depth": 0,
                        "id": 0,
                        "order": 0
                    }
                ],
                "depth": -1,
                "id": -1,
                "order": -1
            }
        ],
        "tidyTraceNodeCount": 2
    },
    "state_change": {
        "stateChanges": [
            {
                "address": "0x3dd98c8a089dbcff7e8fc8d4f532bd493501ab7f",
                "erc": "ERC-20",
                "slots": [
                    {
                        "current": "0x00000000000000000000000000000000000000000000000000519c9e262743b6",
                        "key": "0x0000000000000000000000000000000000000000000000000000000000000002",
                        "prev": "0x00000000000000000000000000000000000000000000000000519c9cd85e0bb6"
                    },
                    {
                        "current": "0x000000000000000000000000000000000000000000000000000000014dc93800",
                        "key": "0xd35e569179882b9bd9a069b4949941cf71f03a2fea787fcfee91b344eb54df60",
                        "prev": "0x0000000000000000000000000000000000000000000000000000000000000000"
                    },
                    {
                        "current": "0x00000000000000000000000000000000000000000000000000519c9e262743b6",
                        "key": "0x0000000000000000000000000000000000000000000000000000000000000008",
                        "prev": "0x00000000000000000000000000000000000000000000000000519c9cd85e0bb6"
                    }
                ],
                "storageVariables": [
                    {
                        "name": "_totalSupply",
                        "type": "uint256",
                        "value": {
                            "current": "22971676172436406",
                            "prev": "22971670572436406",
                            "typeTag": 1
                        }
                    },
                    {
                        "name": "_balances",
                        "type": "mapping(address => uint256)",
                        "value": {
                            "pairs": [
                                {
                                    "key": "0x333f97cf67d9e6f1943a88bf71540219b6a6391c",
                                    "value": {
                                        "current": "5600000000",
                                        "prev": "0",
                                        "typeTag": 1
                                    }
                                }
                            ],
                            "typeTag": 4
                        }
                    },
                    {
                        "name": "_totalMinted",
                        "type": "uint256",
                        "value": {
                            "current": "22971676172436406",
                            "prev": "22971670572436406",
                            "typeTag": 1
                        }
                    }
                ]
            }
        ]
    }
}