{
    "balance_change": {
        "balanceChanges": []
    },
    "profile": {
        "basic_info": {
            "baseFee": "",
            "blockNumber": 7566444,
            "callData": "0xd4dd1594000000000000000000000000000000000000000000000000000000000000008cffffffffffffffffffffffffffffffffffffffffffffffffffffffffffffffce00000000000000000000000000000000000000000000000000000000000000600000000000000000000000000000000000000000000000000000000000000037302c22f09f92b0204d616b65206d6520612062696420f09f92b020626974636f696e6970696540676d61696c2e636f6d222c22222c2222000000000000000000",
            "debugEnable": true,
            "errorInfo": "",
            "eventCount": 1,
            "feeRecipient": "0xea674fdde714fd979de3edf0f56aa9716b898ec8",
            "formatValue": "0",
            "gasLimit": 137598,
            "gasPrice": "3",
            "gasUsed": 82486,
            "intTxnCount": 1,
            "internalRevert": false,
            "internalRevertMessage": "",
            "isContractCreation": false,
            "isFlashloan": false,
            "maxFee": "",
            "nonce": 2015,
            "overwritedBlockNumber": -1,
            "priorityFee": "",
            "receiver": "0xf87e31492faf9a91b02ee0deaad50d51d56d5d4d",
            "revertMessage": "",
            "sender": "0xccd5089557ae6a2ba063e8720e725a6bf743b3e8",
            "simulationEnable": true,
            "sourceTxnHash": "0xed30f15daffb882f296d0793389733f80f6bec9f1e9da1222a7f11556f765f79",
            "status": true,
            "timestamp": "2019-04-14T13:53:06Z",
            "transactionFee": "0.000247458",
            "txnHash": "0xed30f15daffb882f296d0793389733f80f6bec9f1e9da1222a7f11556f765f79",
            "txnIndex": 97,
            "type": 0,
            "value": "0"
        },
        "fund_flow": [],
        "token_infos": [
            {
                "address": "0xc02aaa39b223fe8d0a0e5c4f27ead9083c756cc2",
                "decimals": 18
            },
            {
                "address": "0xeeeeeeeeeeeeeeeeeeeeeeeeeeeeeeeeeeeeeeee",
                "decimals": 18
            }
        ]
    },
    "address_label": {
        "labels": [
            {
                "address": "0xf87e31492faf9a91b02ee0deaad50d51d56d5d4d",
                "label": "Decentraland: LAND"
            },
            {
                "address": "0xf58149764da53382bf8c96f91a17c54ad3947516",
                "label": "LANDRegistry"
            },
            {
                "address": "0x0000000000000000000000000000000000000001",
                "label": "Precompiled"
            },
            {
                "address": "0x0000000000000000000000000000000000000002",
                "label": "Precompiled"
            },
            {
                "address": "0x0000000000000000000000000000000000000003",
                "label": "Precompiled"
            },
            {
                "address": "0x0000000000000000000000000000000000000004",
                "label": "Precompiled"
            },
            {
                "address": "0xeeeeeeeeeeeeeeeeeeeeeeeeeeeeeeeeeeeeeeee",
                "label": "Ether"
            }
        ]
    },
    "trace": {
        "accountLabels": null,
        "dataMap": {
            "-1": {
                "invocation": {
                    "address": "0xccd5089557ae6a2ba063e8720e725a6bf743b3e8",
                    "callData": "",
                    "decodedMethod": null,
                    "errorInfo": "",
                    "fromAddress": "",
                    "gasUsed": 0,
                    "id": -1,
                    "methodDecoded": false,
                    "operation": "",
                    "output": "",
                    "revert": false,
                    "revertMessage": "",
                    "selector": "",
                    "status": false,
                    "value": ""
                },
                "nodeType": 0
            },
            "0": {
                "invocation": {
                    "address": "0xf87e31492faf9a91b02ee0deaad50d51d56d5d4d",
                    "callData": "0x000000000000000000000000000000000000000000000000000000000000008cffffffffffffffffffffffffffffffffffffffffffffffffffffffffffffffce00000000000000000000000000000000000000000000000000000000000000600000000000000000000000000000000000000000000000000000000000000037302c22f09f92b0204d616b65206d6520612062696420f09f92b020626974636f696e6970696540676d61696c2e636f6d222c22222c2222000000000000000000",
                    "decodedMethod": {
                        "callParams": [
                            {
                                "name": "x",
                                "type": "int256",
                                "value": "140"
                            },
                            {
                                "name": "y",
                                "type": "int256",
                                "value": "-50"
                            },
                            {
                                "name": "data",
                                "type": "string",
                                "value": "0,\"\ud83d\udcb0 Make me a bid \ud83d\udcb0 bitcoinipie@gmail.com\",\"\",\"\""
                            }
                        ],
                        "constructorArguments": "",
                        "name": "updateLandData",
                        "returnParams": [],
                        "signature": "updateLandData(int256,int256,string)"
                    },
                    "errorInfo": "",
                    "fromAddress": "0xccd5089557ae6a2ba063e8720e725a6bf743b3e8",
                    "gasUsed": 82486,
                    "id": 0,
                    "methodDecoded": true,
                    "operation": "CALL",
                    "output": "",
                    "revert": false,
                    "revertMessage": "",
                    "selector": "0xd4dd1594",
                    "status": true,
                    "value": "0"
                },
                "nodeType": 0
            },
            "1": {
                "invocation": {
                    "address": "0xf58149764da53382bf8c96f91a17c54ad3947516",
                    "callData": "0x000000000000000000000000000000000000000000000000000000000000008cffffffffffffffffffffffffffffffffffffffffffffffffffffffffffffffce00000000000000000000000000000000000000000000000000000000000000600000000000000000000000000000000000000000000000000000000000000037302c22f09f92b0204d616b65206d6520612062696420f09f92b020626974636f696e6970696540676d61696c2e636f6d222c22222c2222000000000000000000",
                    "decodedMethod": {
                        "callParams": [
                            {
                                "name": "x",
                                "type": "int256",
                                "value": "140"
                            },
                            {
                                "name": "y",
                                "type": "int256",
                                "value": "-50"
                            },
                            {
                                "name": "data",
                                "type": "string",
                                "value": "0,\"\ud83d\udcb0 Make me a bid \ud83d\udcb0 bitcoinipie@gmail.com\",\"\",\"\""
                            }
                        ],
                        "constructorArguments": "",
                        "name": "updateLandData",
                        "returnParams": [],
                        "signature": "updateLandData(int256,int256,string)"
                    },
                    "errorInfo": "",
                    "fromAddress": "0xf87e31492faf9a91b02ee0deaad50d51d56d5d4d",
                    "gasUsed": 52240,
                    "id": 1,
                    "methodDecoded": true,
                    "operation": "DELEGATECALL",
                    "output": "",
                    "revert": false,
                    "revertMessage": "",
                    "selector": "0xd4dd1594",
                    "status": true,
                    "value": "0"
                },
                "nodeType": 0
            },
            "2": {
                "event": {
                    "contract": "0xf87e31492faf9a91b02ee0deaad50d51d56d5d4d",
                    "decodedLog": {
                        "name": "Update",
                        "params": [
                            {
                                "name": "assetId",
                                "type": "uint256",
                                "value": "47,979,813,735,852,323,348,335,819,647,879,317,815,246"
                            },
                            {
                                "name": "holder",
                                "type": "address",
                                "value": "0xccd5089557ae6a2ba063e8720e725a6bf743b3e8"
                            },
                            {
                                "name": "operator",
                                "type": "address",
                                "value": "0xccd5089557ae6a2ba063e8720e725a6bf743b3e8"
                            },
                            {
                                "name": "data",
                                "type": "string",
                                "value": "0,\"\ud83d\udcb0 Make me a bid \ud83d\udcb0 bitcoinipie@gmail.com\",\"\",\"\""
                            }
                        ],
                        "signature": "Update(uint256,address,address,string)"
                    },
                    "id": 2,
                    "logData": "0x00000000000000000000000000000000000000000000000000000000000000200000000000000000000000000000000000000000000000000000000000000037302c22f09f92b0204d616b65206d6520612062696420f09f92b020626974636f696e6970696540676d61696c2e636f6d222c22222c2222000000000000000000",
                    "logDecoded": true,
                    "operation": "EVENT",
                    "revert": false,
                    "status": true,
                    "topics": [
                        "0x47c705b9219229ad762fca605f08fb024a3415d0ae78af5d319820c72e510414",
                        "0x0000000000000000000000000000008cffffffffffffffffffffffffffffffce",
                        "0x000000000000000000000000ccd5089557ae6a2ba063e8720e725a6bf743b3e8",
                        "0x000000000000000000000000ccd5089557ae6a2ba063e8720e725a6bf743b3e8"
                    ]
                },
                "nodeType": 1
            }
        },
        "gasFlame": [
            {
                "children": [
                    {
                        "children": [
                            {
                                "children": [],
                                "depth": 0,
                                "name": "Initial Gas",
                                "value": 27800
                            },
                            {
                                "children": [
                                    {
                                        "children": [],
                                        "depth": 1,
                                        "name": "updateLandData",
                                        "value": 52240
                                    }
                                ],
                                "depth": 0,
                                "name": "Executed Gas",
                                "value": 54686
                            }
                        ],
                        "depth": -1,
                        "name": "Actual Gas Used",
                        "value": 82486
                    },
                    {
                        "children": [],
                        "depth": -1,
                        "name": "Refunded Gas",
                        "value": 0
                    }
                ],
                "depth": -2,
                "name": "Total Gas",
                "value": 82486
            }
        ],
        "isConfirmed": true,
        "mainTrace": [
            {
                "children": [
                    {
                        "children": [
                            {
                                "children": [
                                    {
                                        "children": [],
                                        "depth": 2,
                                        "id": 2,
                                        "order": 2
                                    }
                                ],
                                "depth": 1,
                                "id": 1,
                                "order": 1
                            }
                        ],
                        "depth": 0,
                        "id": 0,
                        "order": 0
                    }
                ],
                "depth": -1,
                "id": -1,
                "order": -1
            }
        ],
        "mainTraceNodeCount": 3,
        "parentIdMap": {
            "0": -1,
            "1": 0,
            "2": 1
        },
        "tidyTrace": [
            {
                "children": [
                    {
                        "children": [
                            {
                                "children": [
                                    {
                                        "children": [],
                                        "depth": 2,
                                        "id": 2,
                                        "order": 2
                                    }
                                ],
                                "depth": 1,
                                "id": 1,
                                "order": 1
                            }
                        ],
                        "depth": 0,
                        "id": 0,
                        "order": 0
                    }
                ],
                "depth": -1,
                "id": -1,
                "order": -1
            }
        ],
        "tidyTraceNodeCount": 3
    },
    "state_change": {
        "stateChanges": [
            {
                "address": "0xf87e31492faf9a91b02ee0deaad50d51d56d5d4d",
                "erc": "ERC-721",
                "slots": [
                    {
                        "current": "0x302c22f09f92b0204d616b65206d6520612062696420f09f92b020626974636f",
                        "key": "0x369c56be39b45e52118ac962e8fc9daeef856fa486d7233b2553fc0dffd65101",
                        "prev": "0x0000000000000000000000000000000000000000000000000000000000000000"
                    },
                    {
                        "current": "0x696e6970696540676d61696c2e636f6d222c22222c2222000000000000000000",
                        "key": "0x369c56be39b45e52118ac962e8fc9daeef856fa486d7233b2553fc0dffd65102",
                        "prev": "0x0000000000000000000000000000000000000000000000000000000000000000"
                    },
                    {
                        "current": "0x000000000000000000000000000000000000000000000000000000000000006f",
                        "key": "0xfb4996965a5d2db6ee8e8e7176270dd2f02662f214830086c104825a811250a1",
                        "prev": "0x302c22626974636f696e6970696540676d61696c2e636f6d222c22222c22223e"
                    }
                ],
                "storageVariables": [
                    {
                        "name": "_assetData",
                        "type": "mapping(uint256 => string)",
                        "value": {
                            "pairs": [
                                {
                                    "key": "47979813735852323348335819647879317815246",
                                    "value": {
                                        "current": "0,\"\ud83d\udcb0 Make me a bid \ud83d\udcb0 bitcoinipie@gmail.com\",\"\",\"\"",
                                        "prev": "0,\"bitcoinipie@gmail.com\",\"\",\"\"",
                                        "typeTag": 1
                                    }
                                }
                            ],
                            "typeTag": 4
                        }
                    }
                ]
            }
        ]
    }
}