{
    "balance_change": {
        "balanceChanges": []
    },
    "profile": {
        "basic_info": {
            "baseFee": "",
            "blockNumber": 8151104,
            "callData": "0xef3435880000000000000000000000000000000000000000000000001b96b962e9237000000000000000000000000000000000000000000000000000000000174867a5c0000000000000000000000000000000000000000000000000000000000002e63000000000000000000000000000000000000000000000000000000000000000b900000000000000000000000000000000000000000000000010b80792ac9bd0c0000000000000000000000000000000000000000000000000000000000007b97800000000000000000000000000000000000000000000000000038d7ea4c6800000000000000000000000000000000000000000000000000000091c59990911a400000000000000000000000000000000000000000000000000000000000000000000000000000000000000005136c98a80811c3f46bdda8b5c4555cfd9f812f0000000000000000000000000e8de80213e3cce5303502a9df1f1465a61f237ef000000000000000000000000f027433bc8d0ec87f1d970b2b6fd5f8a9d237464000000000000000000000000000000000000000000000000000000000000001c000000000000000000000000000000000000000000000000000000000000001ccd8aef55a4af324cb5cbc6fc393733a7be1b3dd3c61739f80b1dca6f8afdd6b868d982fb687bfb77ee70eb8f824f1d7ca006f5af7960e661048a18eac3ac22d1361be7fd43f0103f1082ce25939b4a393170a7fa1e8aecf57886b2d8ea6a5f690c83b50a91a5a29c278b01bd585ac108c124951f1cf48da9999c15c7af65f14d",
            "debugEnable": true,
            "errorInfo": "",
            "eventCount": 0,
            "feeRecipient": "0xea674fdde714fd979de3edf0f56aa9716b898ec8",
            "formatValue": "0",
            "gasLimit": 400000,
            "gasPrice": "4",
            "gasUsed": 127580,
            "intTxnCount": 2,
            "internalRevert": false,
            "internalRevertMessage": "",
            "isContractCreation": false,
            "isFlashloan": false,
            "maxFee": "",
            "nonce": 3752922,
            "overwritedBlockNumber": -1,
            "priorityFee": "",
            "receiver": "0x2a0c0dbecc7e4d658f48e01e3fa353f44050c208",
            "revertMessage": "",
            "sender": "0xa7a7899d944fe658c4b0a1803bab2f490bd3849e",
            "simulationEnable": true,
            "sourceTxnHash": "0xed917837df5f93afa3661547d89606b18659c613c596c2fea1bb642201ee12af",
            "status": true,
            "timestamp": "2019-07-14T19:42:44Z",
            "transactionFee": "0.00051032",
            "txnHash": "0xed917837df5f93afa3661547d89606b18659c613c596c2fea1bb642201ee12af",
            "txnIndex": 75,
            "type": 0,
            "value": "0"
        },
        "fund_flow": [],
        "token_infos": [
            {
                "address": "0xc02aaa39b223fe8d0a0e5c4f27ead9083c756cc2",
                "decimals": 18
            },
            {
                "address": "0xeeeeeeeeeeeeeeeeeeeeeeeeeeeeeeeeeeeeeeee",
                "decimals": 18
            }
        ]
    },
    "address_label": {
        "labels": [
            {
                "address": "0x0000000000000000000000000000000000000003",
                "label": "Precompiled"
            },
            {
                "address": "0x0000000000000000000000000000000000000004",
                "label": "Precompiled"
            },
            {
                "address": "0xeeeeeeeeeeeeeeeeeeeeeeeeeeeeeeeeeeeeeeee",
                "label": "Ether"
            },
            {
                "address": "0x5136c98a80811c3f46bdda8b5c4555cfd9f812f0",
                "label": "IndaHashToken"
            },
            {
                "address": "0xa7a7899d944fe658c4b0a1803bab2f490bd3849e",
                "label": "IDEX 2"
            },
            {
                "address": "0x2a0c0dbecc7e4d658f48e01e3fa353f44050c208",
                "label": "IDEX"
            },
            {
                "address": "0x0000000000000000000000000000000000000000",
                "label": "Null Address"
            },
            {
                "address": "0x0000000000000000000000000000000000000001",
                "label": "Precompiled"
            },
            {
                "address": "0x0000000000000000000000000000000000000002",
                "label": "Precompiled"
            }
        ]
    },
    "trace": {
        "accountLabels": null,
        "dataMap": {
            "-1": {
                "invocation": {
                    "address": "0xa7a7899d944fe658c4b0a1803bab2f490bd3849e",
                    "callData": "",
                    "decodedMethod": null,
                    "errorInfo": "",
                    "fromAddress": "",
                    "gasUsed": 0,
                    "id": -1,
                    "methodDecoded": false,
                    "operation": "",
                    "output": "",
                    "revert": false,
                    "revertMessage": "",
                    "selector": "",
                    "status": false,
                    "value": ""
                },
                "nodeType": 0
            },
            "0": {
                "invocation": {
                    "address": "0x2a0c0dbecc7e4d658f48e01e3fa353f44050c208",
                    "callData": "0x0000000000000000000000000000000000000000000000001b96b962e9237000000000000000000000000000000000000000000000000000000000174867a5c0000000000000000000000000000000000000000000000000000000000002e63000000000000000000000000000000000000000000000000000000000000000b900000000000000000000000000000000000000000000000010b80792ac9bd0c0000000000000000000000000000000000000000000000000000000000007b97800000000000000000000000000000000000000000000000000038d7ea4c6800000000000000000000000000000000000000000000000000000091c59990911a400000000000000000000000000000000000000000000000000000000000000000000000000000000000000005136c98a80811c3f46bdda8b5c4555cfd9f812f0000000000000000000000000e8de80213e3cce5303502a9df1f1465a61f237ef000000000000000000000000f027433bc8d0ec87f1d970b2b6fd5f8a9d237464000000000000000000000000000000000000000000000000000000000000001c000000000000000000000000000000000000000000000000000000000000001ccd8aef55a4af324cb5cbc6fc393733a7be1b3dd3c61739f80b1dca6f8afdd6b868d982fb687bfb77ee70eb8f824f1d7ca006f5af7960e661048a18eac3ac22d1361be7fd43f0103f1082ce25939b4a393170a7fa1e8aecf57886b2d8ea6a5f690c83b50a91a5a29c278b01bd585ac108c124951f1cf48da9999c15c7af65f14d",
                    "decodedMethod": {
                        "callParams": [
                            {
                                "name": "tradeValues",
                                "type": "uint256[8]",
                                "value": [
                                    "1,987,980,120,000,000,000",
                                    "99,999,000,000",
                                    "190,000",
                                    "185",
                                    "1,204,721,226,864,120,000",
                                    "506,232",
                                    "1,000,000,000,000,000",
                                    "2,564,445,935,571,364"
                                ]
                            },
                            {
                                "name": "tradeAddresses",
                                "type": "address[4]",
                                "value": [
                                    "0x0000000000000000000000000000000000000000",
                                    "0x5136c98a80811c3f46bdda8b5c4555cfd9f812f0",
                                    "0xe8de80213e3cce5303502a9df1f1465a61f237ef",
                                    "0xf027433bc8d0ec87f1d970b2b6fd5f8a9d237464"
                                ]
                            },
                            {
                                "name": "v",
                                "type": "uint8[2]",
                                "value": [
                                    "28",
                                    "28"
                                ]
                            },
                            {
                                "name": "rs",
                                "type": "bytes32[4]",
                                "value": [
                                    "0xcd8aef55a4af324cb5cbc6fc393733a7be1b3dd3c61739f80b1dca6f8afdd6b8",
                                    "0x68d982fb687bfb77ee70eb8f824f1d7ca006f5af7960e661048a18eac3ac22d1",
                                    "0x361be7fd43f0103f1082ce25939b4a393170a7fa1e8aecf57886b2d8ea6a5f69",
                                    "0x0c83b50a91a5a29c278b01bd585ac108c124951f1cf48da9999c15c7af65f14d"
                                ]
                            }
                        ],
                        "constructorArguments": "",
                        "name": "trade",
                        "returnParams": [
                            {
                                "name": "success",
                                "type": "bool",
                                "value": false
                            }
                        ],
                        "signature": "trade(uint256[8],address[4],uint8[2],bytes32[4])"
                    },
                    "errorInfo": "",
                    "fromAddress": "0xa7a7899d944fe658c4b0a1803bab2f490bd3849e",
                    "gasUsed": 127580,
                    "id": 0,
                    "methodDecoded": true,
                    "operation": "CALL",
                    "output": "0x0000000000000000000000000000000000000000000000000000000000000000",
                    "revert": false,
                    "revertMessage": "",
                    "selector": "0xef343588",
                    "status": true,
                    "value": "0"
                },
                "nodeType": 0
            },
            "1": {
                "invocation": {
                    "address": "0x0000000000000000000000000000000000000001",
                    "callData": "0x289bb6408fd32f34facb3df8ee87fefaa20f75e58547fb2e00aa349f000000000000000000000000000000000000000000000000000000000000001ccd8aef55a4af324cb5cbc6fc393733a7be1b3dd3c61739f80b1dca6f8afdd6b868d982fb687bfb77ee70eb8f824f1d7ca006f5af7960e661048a18eac3ac22d1",
                    "decodedMethod": {
                        "callParams": [
                            {
                                "name": "hash",
                                "type": "bytes32",
                                "value": "0x31f9f5aa289bb6408fd32f34facb3df8ee87fefaa20f75e58547fb2e00aa349f"
                            },
                            {
                                "name": "v",
                                "type": "uint256",
                                "value": "28"
                            },
                            {
                                "name": "r",
                                "type": "bytes32",
                                "value": "0xcd8aef55a4af324cb5cbc6fc393733a7be1b3dd3c61739f80b1dca6f8afdd6b8"
                            },
                            {
                                "name": "s",
                                "type": "bytes32",
                                "value": "0x68d982fb687bfb77ee70eb8f824f1d7ca006f5af7960e661048a18eac3ac22d1"
                            }
                        ],
                        "constructorArguments": "",
                        "name": "ecrecover",
                        "returnParams": [
                            {
                                "name": "",
                                "type": "address",
                                "value": "0xe8de80213e3cce5303502a9df1f1465a61f237ef"
                            }
                        ],
                        "signature": "ecrecover(bytes32,uint256,bytes32,bytes32)"
                    },
                    "errorInfo": "",
                    "fromAddress": "0x2a0c0dbecc7e4d658f48e01e3fa353f44050c208",
                    "gasUsed": 3000,
                    "id": 1,
                    "methodDecoded": true,
                    "operation": "CALL",
                    "output": "0x000000000000000000000000e8de80213e3cce5303502a9df1f1465a61f237ef",
                    "revert": false,
                    "revertMessage": "",
                    "selector": "0x31f9f5aa",
                    "status": true,
                    "value": "0"
                },
                "nodeType": 0
            },
            "2": {
                "invocation": {
                    "address": "0x0000000000000000000000000000000000000001",
                    "callData": "0x6bb48aa30ac4dee4e722acae2364aabc32f1aa39faa81e3a470177ab000000000000000000000000000000000000000000000000000000000000001c361be7fd43f0103f1082ce25939b4a393170a7fa1e8aecf57886b2d8ea6a5f690c83b50a91a5a29c278b01bd585ac108c124951f1cf48da9999c15c7af65f14d",
                    "decodedMethod": {
                        "callParams": [
                            {
                                "name": "hash",
                                "type": "bytes32",
                                "value": "0x97fada4a6bb48aa30ac4dee4e722acae2364aabc32f1aa39faa81e3a470177ab"
                            },
                            {
                                "name": "v",
                                "type": "uint256",
                                "value": "28"
                            },
                            {
                                "name": "r",
                                "type": "bytes32",
                                "value": "0x361be7fd43f0103f1082ce25939b4a393170a7fa1e8aecf57886b2d8ea6a5f69"
                            },
                            {
                                "name": "s",
                                "type": "bytes32",
                                "value": "0x0c83b50a91a5a29c278b01bd585ac108c124951f1cf48da9999c15c7af65f14d"
                            }
                        ],
                        "constructorArguments": "",
                        "name": "ecrecover",
                        "returnParams": [
                            {
                                "name": "",
                                "type": "address",
                                "value": "0xf027433bc8d0ec87f1d970b2b6fd5f8a9d237464"
                            }
                        ],
                        "signature": "ecrecover(bytes32,uint256,bytes32,bytes32)"
                    },
                    "errorInfo": "",
                    "fromAddress": "0x2a0c0dbecc7e4d658f48e01e3fa353f44050c208",
                    "gasUsed": 3000,
                    "id": 2,
                    "methodDecoded": true,
                    "operation": "CALL",
                    "output": "0x000000000000000000000000f027433bc8d0ec87f1d970b2b6fd5f8a9d237464",
                    "revert": false,
                    "revertMessage": "",
                    "selector": "0x97fada4a",
                    "status": true,
                    "value": "0"
                },
                "nodeType": 0
            }
        },
        "gasFlame": [
            {
                "children": [
                    {
                        "children": [
                            {
                                "children": [],
                                "depth": 0,
                                "name": "Initial Gas",
                                "value": 38296
                            },
                            {
                                "children": [
                                    {
                                        "children": [],
                                        "depth": 1,
                                        "name": "ecrecover",
                                        "value": 3000
                                    },
                                    {
                                        "children": [],
                                        "depth": 1,
                                        "name": "ecrecover",
                                        "value": 3000
                                    }
                                ],
                                "depth": 0,
                                "name": "Executed Gas",
                                "value": 89284
                            }
                        ],
                        "depth": -1,
                        "name": "Actual Gas Used",
                        "value": 127580
                    },
                    {
                        "children": [],
                        "depth": -1,
                        "name": "Refunded Gas",
                        "value": 0
                    }
                ],
                "depth": -2,
                "name": "Total Gas",
                "value": 127580
            }
        ],
        "isConfirmed": true,
        "mainTrace": [
            {
                "children": [
                    {
                        "children": [
                            {
                                "children": [],
                                "depth": 1,
                                "id": 1,
                                "order": 1
                            },
                            {
                                "children": [],
                                "depth": 1,
                                "id": 2,
                                "order": 2
                            }
                        ],
                        "depth": 0,
                        "id": 0,
                        "order": 0
                    }
                ],
                "depth": -1,
                "id": -1,
                "order": -1
            }
        ],
        "mainTraceNodeCount": 3,
        "parentIdMap": {
            "0": -1,
            "1": 0,
            "2": 0
        },
        "tidyTrace": [
            {
                "children": [
                    {
                        "children": [
                            {
                                "children": [],
                                "depth": 1,
                                "id": 1,
                                "order": 1
                            },
                            {
                                "children": [],
                                "depth": 1,
                                "id": 2,
                                "order": 2
                            }
                        ],
                        "depth": 0,
                        "id": 0,
                        "order": 0
                    }
                ],
                "depth": -1,
                "id": -1,
                "order": -1
            }
        ],
        "tidyTraceNodeCount": 3
    },
    "state_change": {
        "stateChanges": [
            {
                "address": "0x2a0c0dbecc7e4d658f48e01e3fa353f44050c208",
                "erc": "",
                "slots": [
                    {
                        "current": "0x000000000000000000000000000000000000000000000003f4ff76513931921c",
                        "key": "0xa2461fbc15c12d712c6b0ce6bf0b8c571355775076c7ac7507772ae3281d0e1f",
                        "prev": "0x00000000000000000000000000000000000000000000000405b77de3e5cd62dc"
                    },
                    {
                        "current": "0x00000000000000000000000000000000000000000000000169cfcb4b9d777de0",
                        "key": "0x00a568b711b7b5aa7826183897e30b793eadc93076da57ddf5b0c2c82643cd1a",
                        "prev": "0x000000000000000000000000000000000000000000000001591c0b68f5a38318"
                    },
                    {
                        "current": "0x0000000000000000000000000000000000000000000000000000003fe10aa9bb",
                        "key": "0x1304b5a5bf710c4e2d6a8674d039ce535dd87aec78580aa55410cddff72de449",
                        "prev": "0x00000000000000000000000000000000000000000000000000000031ce48879e"
                    },
                    {
                        "current": "0x000000000000000000000000000000000000000000000004a925fe8bb704600a",
                        "key": "0x3ccb72d91c5c66cba135a4135963ed23443b8a63817f501517468fcd5097e277",
                        "prev": "0x000000000000000000000000000000000000000000000004a921b6dbb23c8a12"
                    },
                    {
                        "current": "0x0000000000000000000000000000000000000000000000000000002f6c944acf",
                        "key": "0x00d773fad22e99cefab19b02aee842f4b8d0b6132ca75761d250880f4cd3c1cd",
                        "prev": "0x0000000000000000000000000000000000000000000000000000003d8899b5f2"
                    },
                    {
                        "current": "0x00000000000000000000000000000000000000000000000000000000007c6040",
                        "key": "0x88dd0bf60792ef03e3504320462b7d4cab84319488a14354b765b5ef7f1b6813",
                        "prev": "0x00000000000000000000000000000000000000000000000000000000007c6031"
                    },
                    {
                        "current": "0x00000000000000000000000000000000000000000000000000000000007c6040",
                        "key": "0xf3cd73d45d55a0e3ff5e9c006afc15856c89ba115e83632bf9017769a7cfd287",
                        "prev": "0x00000000000000000000000000000000000000000000000000000000007c6031"
                    },
                    {
                        "current": "0x00000000000000000000000000000000000000000000000000000000bec16e07",
                        "key": "0xc2d34f4f603acd1533fee8d55f595f36ff726b1d719f8f809b7cef02e9e5d73a",
                        "prev": "0x00000000000000000000000000000000000000000000000000000000b57e2502"
                    },
                    {
                        "current": "0x0000000000000000000000000000000000000000000000001b96b962e9237000",
                        "key": "0xfa81d3bc4b93cc1cac8a57a62636bfee7db4c7d32e1ea1b2f484395759690501",
                        "prev": "0x0000000000000000000000000000000000000000000000000adeb1d03c879f40"
                    },
                    {
                        "current": "0x0000000000000000000000000000000000000000000000000000000000000001",
                        "key": "0xd65e2426cb60c65920a93f46c05214ed22c6474fef1142fc9bf6f443d4241834",
                        "prev": "0x0000000000000000000000000000000000000000000000000000000000000000"
                    }
                ],
                "storageVariables": [
                    {
                        "name": "traded",
                        "type": "mapping(bytes32 => bool)",
                        "value": {
                            "pairs": [
                                {
                                    "key": "0x3d359a54c71022d0e8852c33502947d7508ff6b33dda4ba9ee8ed5e3ce83bcca",
                                    "value": {
                                        "current": "true",
                                        "prev": "false",
                                        "typeTag": 1
                                    }
                                }
                            ],
                            "typeTag": 4
                        }
                    },
                    {
                        "name": "tokens",
                        "type": "mapping(address => mapping(address => uint256))",
                        "value": {
                            "pairs": [
                                {
                                    "key": "0x0000000000000000000000000000000000000000",
                                    "value": {
                                        "pairs": [
                                            {
                                                "key": "0x034767f3c519f361c5ecf46ebfc08981c629d381",
                                                "value": {
                                                    "current": "85975404137410748426",
                                                    "prev": "85974199416183884306",
                                                    "typeTag": 1
                                                }
                                            },
                                            {
                                                "key": "0xe8de80213e3cce5303502a9df1f1465a61f237ef",
                                                "value": {
                                                    "current": "26071280293495930336",
                                                    "prev": "24867763787858674456",
                                                    "typeTag": 1
                                                }
                                            },
                                            {
                                                "key": "0xf027433bc8d0ec87f1d970b2b6fd5f8a9d237464",
                                                "value": {
                                                    "current": "72994191376668267036",
                                                    "prev": "74198912603532387036",
                                                    "typeTag": 1
                                                }
                                            }
                                        ],
                                        "typeTag": 4
                                    }
                                },
                                {
                                    "key": "0x5136c98a80811c3f46bdda8b5c4555cfd9f812f0",
                                    "value": {
                                        "pairs": [
                                            {
                                                "key": "0x034767f3c519f361c5ecf46ebfc08981c629d381",
                                                "value": {
                                                    "current": "3200347655",
                                                    "prev": "3044943106",
                                                    "typeTag": 1
                                                }
                                            },
                                            {
                                                "key": "0xe8de80213e3cce5303502a9df1f1465a61f237ef",
                                                "value": {
                                                    "current": "203685120719",
                                                    "prev": "264284780018",
                                                    "typeTag": 1
                                                }
                                            },
                                            {
                                                "key": "0xf027433bc8d0ec87f1d970b2b6fd5f8a9d237464",
                                                "value": {
                                                    "current": "274358512059",
                                                    "prev": "213914257310",
                                                    "typeTag": 1
                                                }
                                            }
                                        ],
                                        "typeTag": 4
                                    }
                                }
                            ],
                            "typeTag": 4
                        }
                    },
                    {
                        "name": "lastActiveTransaction",
                        "type": "mapping(address => uint256)",
                        "value": {
                            "pairs": [
                                {
                                    "key": "0xe8de80213e3cce5303502a9df1f1465a61f237ef",
                                    "value": {
                                        "current": "8151104",
                                        "prev": "8151089",
                                        "typeTag": 1
                                    }
                                },
                                {
                                    "key": "0xf027433bc8d0ec87f1d970b2b6fd5f8a9d237464",
                                    "value": {
                                        "current": "8151104",
                                        "prev": "8151089",
                                        "typeTag": 1
                                    }
                                }
                            ],
                            "typeTag": 4
                        }
                    },
                    {
                        "name": "orderFills",
                        "type": "mapping(bytes32 => uint256)",
                        "value": {
                            "pairs": [
                                {
                                    "key": "0x85e60d933f222fd14bca3293cf3ca3c418263681ad69ab4adef4d72f5c6af816",
                                    "value": {
                                        "current": "1987980120000000000",
                                        "prev": "783258893135880000",
                                        "typeTag": 1
                                    }
                                }
                            ],
                            "typeTag": 4
                        }
                    }
                ]
            }
        ]
    }
}