{
    "balance_change": {
        "balanceChanges": [
            {
                "account": "0x28c37e5d235ace89fa63cd034d8f47e23add2a82",
                "assets": [
                    {
                        "address": "0xeeeeeeeeeeeeeeeeeeeeeeeeeeeeeeeeeeeeeeee",
                        "amount": "0.045771624368676332",
                        "iconUrl": "https://assets.blocksec.com/image/1663669189317-3.png",
                        "isERC1155": false,
                        "isERC721": false,
                        "sign": false,
                        "value": "119.422770821648280636"
                    },
                    {
                        "address": "0x6b175474e89094c44da98b954eedeac495271d0f",
                        "amount": "95.878555751838297026",
                        "iconUrl": "https://assets.blocksec.com/icon/39aead569b9c011cb6f69734d9abbc9ab6a80049fe93bbd12bb473a3e0e859a3.png",
                        "isERC1155": false,
                        "isERC721": false,
                        "sign": true,
                        "value": "95.98965598"
                    }
                ]
            },
            {
                "account": "0x11b815efb8f581194ae79006d24e0d814b7697f6",
                "assets": [
                    {
                        "address": "0xdac17f958d2ee523a2206206994597c13d831ec7",
                        "amount": "96.014621",
                        "iconUrl": "https://assets.blocksec.com/icon/fcea71f3193ce895be44bfdf941f7e4c9381dd587f273c2d1a27f1263d84e4ea.png",
                        "isERC1155": false,
                        "isERC721": false,
                        "sign": false,
                        "value": "96.11149975258900362"
                    },
                    {
                        "address": "0xc02aaa39b223fe8d0a0e5c4f27ead9083c756cc2",
                        "amount": "0.045771624368676332",
                        "iconUrl": "https://assets.blocksec.com/icon/f1cb2d02c471d545bbc7722daf3277fd852d98e63d118771af7047bd8256c516.png",
                        "isERC1155": false,
                        "isERC721": false,
                        "sign": true,
                        "value": "119.422770821648280636"
                    }
                ]
            },
            {
                "account": "0x6f48eca74b38d2936b02ab603ff4e36a6c0e3a77",
                "assets": [
                    {
                        "address": "0x6b175474e89094c44da98b954eedeac495271d0f",
                        "amount": "95.878555751838297026",
                        "iconUrl": "https://assets.blocksec.com/icon/39aead569b9c011cb6f69734d9abbc9ab6a80049fe93bbd12bb473a3e0e859a3.png",
                        "isERC1155": false,
                        "isERC721": false,
                        "sign": false,
                        "value": "95.98965598"
                    },
                    {
                        "address": "0xdac17f958d2ee523a2206206994597c13d831ec7",
                        "amount": "96.014621",
                        "iconUrl": "https://assets.blocksec.com/icon/fcea71f3193ce895be44bfdf941f7e4c9381dd587f273c2d1a27f1263d84e4ea.png",
                        "isERC1155": false,
                        "isERC721": false,
                        "sign": true,
                        "value": "96.11149975258900362"
                    }
                ]
            },
            {
                "account": "0xc02aaa39b223fe8d0a0e5c4f27ead9083c756cc2",
                "assets": [
                    {
                        "address": "0xeeeeeeeeeeeeeeeeeeeeeeeeeeeeeeeeeeeeeeee",
                        "amount": "0.045771624368676332",
                        "iconUrl": "https://assets.blocksec.com/image/1663669189317-3.png",
                        "isERC1155": false,
                        "isERC721": false,
                        "sign": true,
                        "value": "119.422770821648280636"
                    },
                    {
                        "address": "0xc02aaa39b223fe8d0a0e5c4f27ead9083c756cc2",
                        "amount": "0.045771624368676332",
                        "iconUrl": "https://assets.blocksec.com/icon/f1cb2d02c471d545bbc7722daf3277fd852d98e63d118771af7047bd8256c516.png",
                        "isERC1155": false,
                        "isERC721": false,
                        "sign": false,
                        "value": "119.422770821648280636"
                    }
                ]
            }
        ]
    },
    "profile": {
        "basic_info": {
            "baseFee": "",
            "blockNumber": 12670862,
            "callData": "0xc04b8d59000000000000000000000000000000000000000000000000000000000000002000000000000000000000000000000000000000000000000000000000000000a000000000000000000000000028c37e5d235ace89fa63cd034d8f47e23add2a820000000000000000000000000000000000000000000000000000000060cf232700000000000000000000000000000000000000000000000000a29d0cc3499dec0000000000000000000000000000000000000000000000052be81115e8a37b5a0000000000000000000000000000000000000000000000000000000000000042c02aaa39b223fe8d0a0e5c4f27ead9083c756cc20001f4dac17f958d2ee523a2206206994597c13d831ec70001f46b175474e89094c44da98b954eedeac495271d0f000000000000000000000000000000000000000000000000000000000000",
            "debugEnable": true,
            "errorInfo": "",
            "eventCount": 7,
            "feeRecipient": "0x829bd824b016326a401d083b33d092293333a830",
            "formatValue": "0.045771624368676332",
            "gasLimit": 274080,
            "gasPrice": "8",
            "gasUsed": 202722,
            "intTxnCount": 13,
            "internalRevert": false,
            "internalRevertMessage": "",
            "isContractCreation": false,
            "isFlashloan": false,
            "maxFee": "",
            "nonce": 134,
            "overwritedBlockNumber": -1,
            "priorityFee": "",
            "receiver": "0xe592427a0aece92de3edee1f18e0157c05861564",
            "revertMessage": "",
            "sender": "0x28c37e5d235ace89fa63cd034d8f47e23add2a82",
            "simulationEnable": true,
            "sourceTxnHash": "0xede8b52fd47369c7a18c94046197657c10345338759542c7effe537cd1e7dc12",
            "status": true,
            "timestamp": "2021-06-20T11:00:06Z",
            "transactionFee": "0.001621776",
            "txnHash": "0xede8b52fd47369c7a18c94046197657c10345338759542c7effe537cd1e7dc12",
            "txnIndex": 166,
            "type": 0,
            "value": "45771624368676332"
        },
        "fund_flow": [
            {
                "amount": "0.045771624368676332",
                "from": "0x28c37e5d235ace89fa63cd034d8f47e23add2a82",
                "id": 1,
                "isERC1155": false,
                "isERC721": false,
                "isReverted": false,
                "order": 1,
                "to": "0xe592427a0aece92de3edee1f18e0157c05861564",
                "token": "0xeeeeeeeeeeeeeeeeeeeeeeeeeeeeeeeeeeeeeeee"
            },
            {
                "amount": "96.014621",
                "from": "0x11b815efb8f581194ae79006d24e0d814b7697f6",
                "id": 2,
                "isERC1155": false,
                "isERC721": false,
                "isReverted": false,
                "order": 2,
                "to": "0xe592427a0aece92de3edee1f18e0157c05861564",
                "token": "0xdac17f958d2ee523a2206206994597c13d831ec7"
            },
            {
                "amount": "0.045771624368676332",
                "from": "0xe592427a0aece92de3edee1f18e0157c05861564",
                "id": 3,
                "isERC1155": false,
                "isERC721": false,
                "isReverted": false,
                "order": 3,
                "to": "0xc02aaa39b223fe8d0a0e5c4f27ead9083c756cc2",
                "token": "0xeeeeeeeeeeeeeeeeeeeeeeeeeeeeeeeeeeeeeeee"
            },
            {
                "amount": "0.045771624368676332",
                "from": "0xc02aaa39b223fe8d0a0e5c4f27ead9083c756cc2",
                "id": 4,
                "isERC1155": false,
                "isERC721": false,
                "isReverted": false,
                "order": 4,
                "to": "0xe592427a0aece92de3edee1f18e0157c05861564",
                "token": "0xc02aaa39b223fe8d0a0e5c4f27ead9083c756cc2"
            },
            {
                "amount": "0.045771624368676332",
                "from": "0xe592427a0aece92de3edee1f18e0157c05861564",
                "id": 5,
                "isERC1155": false,
                "isERC721": false,
                "isReverted": false,
                "order": 5,
                "to": "0x11b815efb8f581194ae79006d24e0d814b7697f6",
                "token": "0xc02aaa39b223fe8d0a0e5c4f27ead9083c756cc2"
            },
            {
                "amount": "95.878555751838297026",
                "from": "0x6f48eca74b38d2936b02ab603ff4e36a6c0e3a77",
                "id": 6,
                "isERC1155": false,
                "isERC721": false,
                "isReverted": false,
                "order": 6,
                "to": "0x28c37e5d235ace89fa63cd034d8f47e23add2a82",
                "token": "0x6b175474e89094c44da98b954eedeac495271d0f"
            },
            {
                "amount": "96.014621",
                "from": "0xe592427a0aece92de3edee1f18e0157c05861564",
                "id": 7,
                "isERC1155": false,
                "isERC721": false,
                "isReverted": false,
                "order": 7,
                "to": "0x6f48eca74b38d2936b02ab603ff4e36a6c0e3a77",
                "token": "0xdac17f958d2ee523a2206206994597c13d831ec7"
            }
        ],
        "token_infos": [
            {
                "address": "0xeeeeeeeeeeeeeeeeeeeeeeeeeeeeeeeeeeeeeeee",
                "decimals": 18
            },
            {
                "address": "0x6b175474e89094c44da98b954eedeac495271d0f",
                "decimals": 18
            },
            {
                "address": "0xc02aaa39b223fe8d0a0e5c4f27ead9083c756cc2",
                "decimals": 18
            },
            {
                "address": "0xdac17f958d2ee523a2206206994597c13d831ec7",
                "decimals": 6
            }
        ]
    },
    "address_label": {
        "labels": [
            {
                "address": "0x6f48eca74b38d2936b02ab603ff4e36a6c0e3a77",
                "label": "Uniswap V3: DAI-USDT"
            },
            {
                "address": "0x0000000000000000000000000000000000000002",
                "label": "Precompiled"
            },
            {
                "address": "0xe592427a0aece92de3edee1f18e0157c05861564",
                "label": "Uniswap V3: Router"
            },
            {
                "address": "0xdac17f958d2ee523a2206206994597c13d831ec7",
                "label": "Tether: USDT Stablecoin"
            },
            {
                "address": "0x6b175474e89094c44da98b954eedeac495271d0f",
                "label": "Sky: Dai Stablecoin"
            },
            {
                "address": "0xc02aaa39b223fe8d0a0e5c4f27ead9083c756cc2",
                "label": "Wrapped Ether (WETH)"
            },
            {
                "address": "0x0000000000000000000000000000000000000001",
                "label": "Precompiled"
            },
            {
                "address": "0x0000000000000000000000000000000000000003",
                "label": "Precompiled"
            },
            {
                "address": "0x0000000000000000000000000000000000000004",
                "label": "Precompiled"
            },
            {
                "address": "0xeeeeeeeeeeeeeeeeeeeeeeeeeeeeeeeeeeeeeeee",
                "label": "Ether"
            },
            {
                "address": "0x11b815efb8f581194ae79006d24e0d814b7697f6",
                "label": "Uniswap V3: USDT 3"
            }
        ]
    },
    "trace": {
        "accountLabels": null,
        "dataMap": {
            "-1": {
                "invocation": {
                    "address": "0x28c37e5d235ace89fa63cd034d8f47e23add2a82",
                    "callData": "",
                    "decodedMethod": null,
                    "errorInfo": "",
                    "fromAddress": "",
                    "gasUsed": 0,
                    "id": -1,
                    "methodDecoded": false,
                    "operation": "",
                    "output": "",
                    "revert": false,
                    "revertMessage": "",
                    "selector": "",
                    "status": false,
                    "value": ""
                },
                "nodeType": 0
            },
            "0": {
                "invocation": {
                    "address": "0xe592427a0aece92de3edee1f18e0157c05861564",
                    "callData": "0x000000000000000000000000000000000000000000000000000000000000002000000000000000000000000000000000000000000000000000000000000000a000000000000000000000000028c37e5d235ace89fa63cd034d8f47e23add2a820000000000000000000000000000000000000000000000000000000060cf232700000000000000000000000000000000000000000000000000a29d0cc3499dec0000000000000000000000000000000000000000000000052be81115e8a37b5a0000000000000000000000000000000000000000000000000000000000000042c02aaa39b223fe8d0a0e5c4f27ead9083c756cc20001f4dac17f958d2ee523a2206206994597c13d831ec70001f46b175474e89094c44da98b954eedeac495271d0f000000000000000000000000000000000000000000000000000000000000",
                    "decodedMethod": {
                        "callParams": [
                            {
                                "name": "params",
                                "type": "(bytes,address,uint256,uint256,uint256)",
                                "value": [
                                    {
                                        "name": "path",
                                        "type": "bytes",
                                        "value": "0xc02aaa39b223fe8d0a0e5c4f27ead9083c756cc20001f4dac17f958d2ee523a2206206994597c13d831ec70001f46b175474e89094c44da98b954eedeac495271d0f"
                                    },
                                    {
                                        "name": "recipient",
                                        "type": "address",
                                        "value": "0x28c37e5d235ace89fa63cd034d8f47e23add2a82"
                                    },
                                    {
                                        "name": "deadline",
                                        "type": "uint256",
                                        "value": "1,624,187,687"
                                    },
                                    {
                                        "name": "amountIn",
                                        "type": "uint256",
                                        "value": "45,771,624,368,676,332"
                                    },
                                    {
                                        "name": "amountOutMinimum",
                                        "type": "uint256",
                                        "value": "95,397,517,892,570,544,986"
                                    }
                                ]
                            }
                        ],
                        "constructorArguments": "",
                        "name": "exactInput",
                        "returnParams": [
                            {
                                "name": "amountOut",
                                "type": "uint256",
                                "value": "95,878,555,751,838,297,026"
                            }
                        ],
                        "signature": "exactInput((bytes,address,uint256,uint256,uint256))"
                    },
                    "errorInfo": "",
                    "fromAddress": "0x28c37e5d235ace89fa63cd034d8f47e23add2a82",
                    "gasUsed": 202722,
                    "id": 0,
                    "methodDecoded": true,
                    "operation": "CALL",
                    "output": "0x00000000000000000000000000000000000000000000000532950e784dceabc2",
                    "revert": false,
                    "revertMessage": "",
                    "selector": "0xc04b8d59",
                    "status": true,
                    "value": "0.045771624368676332"
                },
                "nodeType": 0
            },
            "1": {
                "invocation": {
                    "address": "0x11b815efb8f581194ae79006d24e0d814b7697f6",
                    "callData": "0x000000000000000000000000e592427a0aece92de3edee1f18e0157c05861564000000000000000000000000000000000000000000000000000000000000000100000000000000000000000000000000000000000000000000a29d0cc3499dec00000000000000000000000000000000000000000000000000000001000276a400000000000000000000000000000000000000000000000000000000000000a000000000000000000000000000000000000000000000000000000000000000c00000000000000000000000000000000000000000000000000000000000000020000000000000000000000000000000000000000000000000000000000000004000000000000000000000000028c37e5d235ace89fa63cd034d8f47e23add2a82000000000000000000000000000000000000000000000000000000000000002bc02aaa39b223fe8d0a0e5c4f27ead9083c756cc20001f4dac17f958d2ee523a2206206994597c13d831ec7000000000000000000000000000000000000000000",
                    "decodedMethod": {
                        "callParams": [
                            {
                                "name": "recipient",
                                "type": "address",
                                "value": "0xe592427a0aece92de3edee1f18e0157c05861564"
                            },
                            {
                                "name": "zeroForOne",
                                "type": "bool",
                                "value": true
                            },
                            {
                                "name": "amountSpecified",
                                "type": "int256",
                                "value": "45,771,624,368,676,332"
                            },
                            {
                                "name": "sqrtPriceLimitX96",
                                "type": "uint160",
                                "value": "4,295,128,740"
                            },
                            {
                                "name": "data",
                                "type": "bytes",
                                "value": "0x0000000000000000000000000000000000000000000000000000000000000020000000000000000000000000000000000000000000000000000000000000004000000000000000000000000028c37e5d235ace89fa63cd034d8f47e23add2a82000000000000000000000000000000000000000000000000000000000000002bc02aaa39b223fe8d0a0e5c4f27ead9083c756cc20001f4dac17f958d2ee523a2206206994597c13d831ec7000000000000000000000000000000000000000000"
                            }
                        ],
                        "constructorArguments": "",
                        "name": "swap",
                        "returnParams": [
                            {
                                "name": "amount0",
                                "type": "int256",
                                "value": "45,771,624,368,676,332"
                            },
                            {
                                "name": "amount1",
                                "type": "int256",
                                "value": "-96,014,621"
                            }
                        ],
                        "signature": "swap(address,bool,int256,uint160,bytes)"
                    },
                    "errorInfo": "",
                    "fromAddress": "0xe592427a0aece92de3edee1f18e0157c05861564",
                    "gasUsed": 105270,
                    "id": 1,
                    "methodDecoded": true,
                    "operation": "CALL",
                    "output": "0x00000000000000000000000000000000000000000000000000a29d0cc3499decfffffffffffffffffffffffffffffffffffffffffffffffffffffffffa46eee3",
                    "revert": false,
                    "revertMessage": "",
                    "selector": "0x128acb08",
                    "status": true,
                    "value": "0"
                },
                "nodeType": 0
            },
            "10": {
                "invocation": {
                    "address": "0xc02aaa39b223fe8d0a0e5c4f27ead9083c756cc2",
                    "callData": "0x00000000000000000000000011b815efb8f581194ae79006d24e0d814b7697f6",
                    "decodedMethod": {
                        "callParams": [
                            {
                                "name": "",
                                "type": "address",
                                "value": "0x11b815efb8f581194ae79006d24e0d814b7697f6"
                            }
                        ],
                        "constructorArguments": "",
                        "name": "balanceOf",
                        "returnParams": [
                            {
                                "decimalAvailable": true,
                                "name": "",
                                "type": "uint256",
                                "value": "2,534,144,304,781,539,274,045"
                            }
                        ],
                        "signature": "balanceOf(address)"
                    },
                    "errorInfo": "",
                    "fromAddress": "0x11b815efb8f581194ae79006d24e0d814b7697f6",
                    "gasUsed": 534,
                    "id": 10,
                    "methodDecoded": true,
                    "operation": "STATICCALL",
                    "output": "0x000000000000000000000000000000000000000000000089605122ba12e1ed3d",
                    "revert": false,
                    "revertMessage": "",
                    "selector": "0x70a08231",
                    "status": true,
                    "value": "0"
                },
                "nodeType": 0
            },
            "11": {
                "event": {
                    "contract": "0x11b815efb8f581194ae79006d24e0d814b7697f6",
                    "decodedLog": {
                        "name": "Swap",
                        "params": [
                            {
                                "name": "sender",
                                "type": "address",
                                "value": "0xe592427a0aece92de3edee1f18e0157c05861564"
                            },
                            {
                                "name": "recipient",
                                "type": "address",
                                "value": "0xe592427a0aece92de3edee1f18e0157c05861564"
                            },
                            {
                                "name": "amount0",
                                "type": "int256",
                                "value": "45,771,624,368,676,332"
                            },
                            {
                                "name": "amount1",
                                "type": "int256",
                                "value": "-96,014,621"
                            },
                            {
                                "name": "sqrtPriceX96",
                                "type": "uint160",
                                "value": "3,629,591,971,156,481,390,879,839"
                            },
                            {
                                "name": "liquidity",
                                "type": "uint128",
                                "value": "504,164,970,046,364,030"
                            },
                            {
                                "name": "tick",
                                "type": "int24",
                                "value": "-199,830"
                            }
                        ],
                        "signature": "Swap(address,address,int256,int256,uint160,uint128,int24)"
                    },
                    "id": 11,
                    "logData": "0x00000000000000000000000000000000000000000000000000a29d0cc3499decfffffffffffffffffffffffffffffffffffffffffffffffffffffffffa46eee300000000000000000000000000000000000000000003009893346460f89b245f00000000000000000000000000000000000000000000000006ff275e7bcf197efffffffffffffffffffffffffffffffffffffffffffffffffffffffffffcf36a",
                    "logDecoded": true,
                    "operation": "EVENT",
                    "revert": false,
                    "status": true,
                    "topics": [
                        "0xc42079f94a6350d7e6235f29174924f928cc2ac818eb64fed8004e115fbcca67",
                        "0x000000000000000000000000e592427a0aece92de3edee1f18e0157c05861564",
                        "0x000000000000000000000000e592427a0aece92de3edee1f18e0157c05861564"
                    ]
                },
                "nodeType": 1
            },
            "12": {
                "invocation": {
                    "address": "0x6f48eca74b38d2936b02ab603ff4e36a6c0e3a77",
                    "callData": "0x00000000000000000000000028c37e5d235ace89fa63cd034d8f47e23add2a8200000000000000000000000000000000000000000000000000000000000000000000000000000000000000000000000000000000000000000000000005b9111d000000000000000000000000fffd8963efd1fc6a506488495d951d5263988d2500000000000000000000000000000000000000000000000000000000000000a000000000000000000000000000000000000000000000000000000000000000c000000000000000000000000000000000000000000000000000000000000000200000000000000000000000000000000000000000000000000000000000000040000000000000000000000000e592427a0aece92de3edee1f18e0157c05861564000000000000000000000000000000000000000000000000000000000000002bdac17f958d2ee523a2206206994597c13d831ec70001f46b175474e89094c44da98b954eedeac495271d0f000000000000000000000000000000000000000000",
                    "decodedMethod": {
                        "callParams": [
                            {
                                "name": "recipient",
                                "type": "address",
                                "value": "0x28c37e5d235ace89fa63cd034d8f47e23add2a82"
                            },
                            {
                                "name": "zeroForOne",
                                "type": "bool",
                                "value": false
                            },
                            {
                                "name": "amountSpecified",
                                "type": "int256",
                                "value": "96,014,621"
                            },
                            {
                                "name": "sqrtPriceLimitX96",
                                "type": "uint160",
                                "value": "1,461,446,703,485,210,103,287,273,052,203,988,822,378,723,970,341"
                            },
                            {
                                "name": "data",
                                "type": "bytes",
                                "value": "0x00000000000000000000000000000000000000000000000000000000000000200000000000000000000000000000000000000000000000000000000000000040000000000000000000000000e592427a0aece92de3edee1f18e0157c05861564000000000000000000000000000000000000000000000000000000000000002bdac17f958d2ee523a2206206994597c13d831ec70001f46b175474e89094c44da98b954eedeac495271d0f000000000000000000000000000000000000000000"
                            }
                        ],
                        "constructorArguments": "",
                        "name": "swap",
                        "returnParams": [
                            {
                                "name": "amount0",
                                "type": "int256",
                                "value": "-95,878,555,751,838,297,026"
                            },
                            {
                                "name": "amount1",
                                "type": "int256",
                                "value": "96,014,621"
                            }
                        ],
                        "signature": "swap(address,bool,int256,uint160,bytes)"
                    },
                    "errorInfo": "",
                    "fromAddress": "0xe592427a0aece92de3edee1f18e0157c05861564",
                    "gasUsed": 81427,
                    "id": 12,
                    "methodDecoded": true,
                    "operation": "CALL",
                    "output": "0xfffffffffffffffffffffffffffffffffffffffffffffffacd6af187b231543e0000000000000000000000000000000000000000000000000000000005b9111d",
                    "revert": false,
                    "revertMessage": "",
                    "selector": "0x128acb08",
                    "status": true,
                    "value": "0"
                },
                "nodeType": 0
            },
            "13": {
                "invocation": {
                    "address": "0x6b175474e89094c44da98b954eedeac495271d0f",
                    "callData": "0x00000000000000000000000028c37e5d235ace89fa63cd034d8f47e23add2a8200000000000000000000000000000000000000000000000532950e784dceabc2",
                    "decodedMethod": {
                        "callParams": [
                            {
                                "name": "dst",
                                "type": "address",
                                "value": "0x28c37e5d235ace89fa63cd034d8f47e23add2a82"
                            },
                            {
                                "decimalAvailable": true,
                                "name": "wad",
                                "type": "uint256",
                                "value": "95,878,555,751,838,297,026"
                            }
                        ],
                        "constructorArguments": "",
                        "name": "transfer",
                        "returnParams": [
                            {
                                "name": "",
                                "type": "bool",
                                "value": true
                            }
                        ],
                        "signature": "transfer(address,uint256)"
                    },
                    "errorInfo": "",
                    "fromAddress": "0x6f48eca74b38d2936b02ab603ff4e36a6c0e3a77",
                    "gasUsed": 30174,
                    "id": 13,
                    "methodDecoded": true,
                    "operation": "CALL",
                    "output": "0x0000000000000000000000000000000000000000000000000000000000000001",
                    "revert": false,
                    "revertMessage": "",
                    "selector": "0xa9059cbb",
                    "status": true,
                    "value": "0"
                },
                "nodeType": 0
            },
            "14": {
                "event": {
                    "contract": "0x6b175474e89094c44da98b954eedeac495271d0f",
                    "decodedLog": {
                        "name": "Transfer",
                        "params": [
                            {
                                "name": "src",
                                "type": "address",
                                "value": "0x6f48eca74b38d2936b02ab603ff4e36a6c0e3a77"
                            },
                            {
                                "name": "dst",
                                "type": "address",
                                "value": "0x28c37e5d235ace89fa63cd034d8f47e23add2a82"
                            },
                            {
                                "decimalAvailable": true,
                                "name": "wad",
                                "type": "uint256",
                                "value": "95,878,555,751,838,297,026"
                            }
                        ],
                        "signature": "Transfer(address,address,uint256)"
                    },
                    "id": 14,
                    "logData": "0x00000000000000000000000000000000000000000000000532950e784dceabc2",
                    "logDecoded": true,
                    "operation": "EVENT",
                    "revert": false,
                    "status": true,
                    "topics": [
                        "0xddf252ad1be2c89b69c2b068fc378daa952ba7f163c4a11628f55a4df523b3ef",
                        "0x0000000000000000000000006f48eca74b38d2936b02ab603ff4e36a6c0e3a77",
                        "0x00000000000000000000000028c37e5d235ace89fa63cd034d8f47e23add2a82"
                    ]
                },
                "nodeType": 1
            },
            "15": {
                "invocation": {
                    "address": "0xdac17f958d2ee523a2206206994597c13d831ec7",
                    "callData": "0x0000000000000000000000006f48eca74b38d2936b02ab603ff4e36a6c0e3a77",
                    "decodedMethod": {
                        "callParams": [
                            {
                                "name": "who",
                                "type": "address",
                                "value": "0x6f48eca74b38d2936b02ab603ff4e36a6c0e3a77"
                            }
                        ],
                        "constructorArguments": "",
                        "name": "balanceOf",
                        "returnParams": [
                            {
                                "decimalAvailable": true,
                                "name": "",
                                "type": "uint256",
                                "value": "13,009,272,533,800"
                            }
                        ],
                        "signature": "balanceOf(address)"
                    },
                    "errorInfo": "",
                    "fromAddress": "0x6f48eca74b38d2936b02ab603ff4e36a6c0e3a77",
                    "gasUsed": 3031,
                    "id": 15,
                    "methodDecoded": true,
                    "operation": "STATICCALL",
                    "output": "0x00000000000000000000000000000000000000000000000000000bd4f5117328",
                    "revert": false,
                    "revertMessage": "",
                    "selector": "0x70a08231",
                    "status": true,
                    "value": "0"
                },
                "nodeType": 0
            },
            "16": {
                "invocation": {
                    "address": "0xe592427a0aece92de3edee1f18e0157c05861564",
                    "callData": "0xfffffffffffffffffffffffffffffffffffffffffffffffacd6af187b231543e0000000000000000000000000000000000000000000000000000000005b9111d000000000000000000000000000000000000000000000000000000000000006000000000000000000000000000000000000000000000000000000000000000c000000000000000000000000000000000000000000000000000000000000000200000000000000000000000000000000000000000000000000000000000000040000000000000000000000000e592427a0aece92de3edee1f18e0157c05861564000000000000000000000000000000000000000000000000000000000000002bdac17f958d2ee523a2206206994597c13d831ec70001f46b175474e89094c44da98b954eedeac495271d0f000000000000000000000000000000000000000000",
                    "decodedMethod": {
                        "callParams": [
                            {
                                "name": "amount0Delta",
                                "type": "int256",
                                "value": "-95,878,555,751,838,297,026"
                            },
                            {
                                "name": "amount1Delta",
                                "type": "int256",
                                "value": "96,014,621"
                            },
                            {
                                "name": "_data",
                                "type": "bytes",
                                "value": "0x00000000000000000000000000000000000000000000000000000000000000200000000000000000000000000000000000000000000000000000000000000040000000000000000000000000e592427a0aece92de3edee1f18e0157c05861564000000000000000000000000000000000000000000000000000000000000002bdac17f958d2ee523a2206206994597c13d831ec70001f46b175474e89094c44da98b954eedeac495271d0f000000000000000000000000000000000000000000"
                            }
                        ],
                        "constructorArguments": "",
                        "name": "uniswapV3SwapCallback",
                        "returnParams": [],
                        "signature": "uniswapV3SwapCallback(int256,int256,bytes)"
                    },
                    "errorInfo": "",
                    "fromAddress": "0x6f48eca74b38d2936b02ab603ff4e36a6c0e3a77",
                    "gasUsed": 13565,
                    "id": 16,
                    "methodDecoded": true,
                    "operation": "CALL",
                    "output": "",
                    "revert": false,
                    "revertMessage": "",
                    "selector": "0xfa461e33",
                    "status": true,
                    "value": "0"
                },
                "nodeType": 0
            },
            "17": {
                "invocation": {
                    "address": "0xdac17f958d2ee523a2206206994597c13d831ec7",
                    "callData": "0x0000000000000000000000006f48eca74b38d2936b02ab603ff4e36a6c0e3a770000000000000000000000000000000000000000000000000000000005b9111d",
                    "decodedMethod": {
                        "callParams": [
                            {
                                "name": "_to",
                                "type": "address",
                                "value": "0x6f48eca74b38d2936b02ab603ff4e36a6c0e3a77"
                            },
                            {
                                "decimalAvailable": true,
                                "name": "_value",
                                "type": "uint256",
                                "value": "96,014,621"
                            }
                        ],
                        "constructorArguments": "",
                        "name": "transfer",
                        "returnParams": [],
                        "signature": "transfer(address,uint256)"
                    },
                    "errorInfo": "",
                    "fromAddress": "0xe592427a0aece92de3edee1f18e0157c05861564",
                    "gasUsed": 9701,
                    "id": 17,
                    "methodDecoded": true,
                    "operation": "CALL",
                    "output": "",
                    "revert": false,
                    "revertMessage": "",
                    "selector": "0xa9059cbb",
                    "status": true,
                    "value": "0"
                },
                "nodeType": 0
            },
            "18": {
                "event": {
                    "contract": "0xdac17f958d2ee523a2206206994597c13d831ec7",
                    "decodedLog": {
                        "name": "Transfer",
                        "params": [
                            {
                                "name": "from",
                                "type": "address",
                                "value": "0xe592427a0aece92de3edee1f18e0157c05861564"
                            },
                            {
                                "name": "to",
                                "type": "address",
                                "value": "0x6f48eca74b38d2936b02ab603ff4e36a6c0e3a77"
                            },
                            {
                                "decimalAvailable": true,
                                "name": "value",
                                "type": "uint256",
                                "value": "96,014,621"
                            }
                        ],
                        "signature": "Transfer(address,address,uint256)"
                    },
                    "id": 18,
                    "logData": "0x0000000000000000000000000000000000000000000000000000000005b9111d",
                    "logDecoded": true,
                    "operation": "EVENT",
                    "revert": false,
                    "status": true,
                    "topics": [
                        "0xddf252ad1be2c89b69c2b068fc378daa952ba7f163c4a11628f55a4df523b3ef",
                        "0x000000000000000000000000e592427a0aece92de3edee1f18e0157c05861564",
                        "0x0000000000000000000000006f48eca74b38d2936b02ab603ff4e36a6c0e3a77"
                    ]
                },
                "nodeType": 1
            },
            "19": {
                "invocation": {
                    "address": "0xdac17f958d2ee523a2206206994597c13d831ec7",
                    "callData": "0x0000000000000000000000006f48eca74b38d2936b02ab603ff4e36a6c0e3a77",
                    "decodedMethod": {
                        "callParams": [
                            {
                                "name": "who",
                                "type": "address",
                                "value": "0x6f48eca74b38d2936b02ab603ff4e36a6c0e3a77"
                            }
                        ],
                        "constructorArguments": "",
                        "name": "balanceOf",
                        "returnParams": [
                            {
                                "decimalAvailable": true,
                                "name": "",
                                "type": "uint256",
                                "value": "13,009,368,548,421"
                            }
                        ],
                        "signature": "balanceOf(address)"
                    },
                    "errorInfo": "",
                    "fromAddress": "0x6f48eca74b38d2936b02ab603ff4e36a6c0e3a77",
                    "gasUsed": 1031,
                    "id": 19,
                    "methodDecoded": true,
                    "operation": "STATICCALL",
                    "output": "0x00000000000000000000000000000000000000000000000000000bd4faca8445",
                    "revert": false,
                    "revertMessage": "",
                    "selector": "0x70a08231",
                    "status": true,
                    "value": "0"
                },
                "nodeType": 0
            },
            "2": {
                "invocation": {
                    "address": "0xdac17f958d2ee523a2206206994597c13d831ec7",
                    "callData": "0x000000000000000000000000e592427a0aece92de3edee1f18e0157c058615640000000000000000000000000000000000000000000000000000000005b9111d",
                    "decodedMethod": {
                        "callParams": [
                            {
                                "name": "_to",
                                "type": "address",
                                "value": "0xe592427a0aece92de3edee1f18e0157c05861564"
                            },
                            {
                                "decimalAvailable": true,
                                "name": "_value",
                                "type": "uint256",
                                "value": "96,014,621"
                            }
                        ],
                        "constructorArguments": "",
                        "name": "transfer",
                        "returnParams": [],
                        "signature": "transfer(address,uint256)"
                    },
                    "errorInfo": "",
                    "fromAddress": "0x11b815efb8f581194ae79006d24e0d814b7697f6",
                    "gasUsed": 24501,
                    "id": 2,
                    "methodDecoded": true,
                    "operation": "CALL",
                    "output": "",
                    "revert": false,
                    "revertMessage": "",
                    "selector": "0xa9059cbb",
                    "status": true,
                    "value": "0"
                },
                "nodeType": 0
            },
            "20": {
                "event": {
                    "contract": "0x6f48eca74b38d2936b02ab603ff4e36a6c0e3a77",
                    "decodedLog": {
                        "name": "Swap",
                        "params": [
                            {
                                "name": "sender",
                                "type": "address",
                                "value": "0xe592427a0aece92de3edee1f18e0157c05861564"
                            },
                            {
                                "name": "recipient",
                                "type": "address",
                                "value": "0x28c37e5d235ace89fa63cd034d8f47e23add2a82"
                            },
                            {
                                "name": "amount0",
                                "type": "int256",
                                "value": "-95,878,555,751,838,297,026"
                            },
                            {
                                "name": "amount1",
                                "type": "int256",
                                "value": "96,014,621"
                            },
                            {
                                "name": "sqrtPriceX96",
                                "type": "uint160",
                                "value": "79,264,536,834,081,981,712,864"
                            },
                            {
                                "name": "liquidity",
                                "type": "uint128",
                                "value": "33,637,448,422,177,344,149,016"
                            },
                            {
                                "name": "tick",
                                "type": "int24",
                                "value": "-276,315"
                            }
                        ],
                        "signature": "Swap(address,address,int256,int256,uint160,uint128,int24)"
                    },
                    "id": 20,
                    "logData": "0xfffffffffffffffffffffffffffffffffffffffffffffffacd6af187b231543e0000000000000000000000000000000000000000000000000000000005b9111d0000000000000000000000000000000000000000000010c8f06c41152a57c9e000000000000000000000000000000000000000000000071f7d5f212164755618fffffffffffffffffffffffffffffffffffffffffffffffffffffffffffbc8a5",
                    "logDecoded": true,
                    "operation": "EVENT",
                    "revert": false,
                    "status": true,
                    "topics": [
                        "0xc42079f94a6350d7e6235f29174924f928cc2ac818eb64fed8004e115fbcca67",
                        "0x000000000000000000000000e592427a0aece92de3edee1f18e0157c05861564",
                        "0x00000000000000000000000028c37e5d235ace89fa63cd034d8f47e23add2a82"
                    ]
                },
                "nodeType": 1
            },
            "3": {
                "event": {
                    "contract": "0xdac17f958d2ee523a2206206994597c13d831ec7",
                    "decodedLog": {
                        "name": "Transfer",
                        "params": [
                            {
                                "name": "from",
                                "type": "address",
                                "value": "0x11b815efb8f581194ae79006d24e0d814b7697f6"
                            },
                            {
                                "name": "to",
                                "type": "address",
                                "value": "0xe592427a0aece92de3edee1f18e0157c05861564"
                            },
                            {
                                "decimalAvailable": true,
                                "name": "value",
                                "type": "uint256",
                                "value": "96,014,621"
                            }
                        ],
                        "signature": "Transfer(address,address,uint256)"
                    },
                    "id": 3,
                    "logData": "0x0000000000000000000000000000000000000000000000000000000005b9111d",
                    "logDecoded": true,
                    "operation": "EVENT",
                    "revert": false,
                    "status": true,
                    "topics": [
                        "0xddf252ad1be2c89b69c2b068fc378daa952ba7f163c4a11628f55a4df523b3ef",
                        "0x00000000000000000000000011b815efb8f581194ae79006d24e0d814b7697f6",
                        "0x000000000000000000000000e592427a0aece92de3edee1f18e0157c05861564"
                    ]
                },
                "nodeType": 1
            },
            "4": {
                "invocation": {
                    "address": "0xc02aaa39b223fe8d0a0e5c4f27ead9083c756cc2",
                    "callData": "0x00000000000000000000000011b815efb8f581194ae79006d24e0d814b7697f6",
                    "decodedMethod": {
                        "callParams": [
                            {
                                "name": "",
                                "type": "address",
                                "value": "0x11b815efb8f581194ae79006d24e0d814b7697f6"
                            }
                        ],
                        "constructorArguments": "",
                        "name": "balanceOf",
                        "returnParams": [
                            {
                                "decimalAvailable": true,
                                "name": "",
                                "type": "uint256",
                                "value": "2,534,098,533,157,170,597,713"
                            }
                        ],
                        "signature": "balanceOf(address)"
                    },
                    "errorInfo": "",
                    "fromAddress": "0x11b815efb8f581194ae79006d24e0d814b7697f6",
                    "gasUsed": 2534,
                    "id": 4,
                    "methodDecoded": true,
                    "operation": "STATICCALL",
                    "output": "0x0000000000000000000000000000000000000000000000895fae85ad4f984f51",
                    "revert": false,
                    "revertMessage": "",
                    "selector": "0x70a08231",
                    "status": true,
                    "value": "0"
                },
                "nodeType": 0
            },
            "5": {
                "invocation": {
                    "address": "0xe592427a0aece92de3edee1f18e0157c05861564",
                    "callData": "0x00000000000000000000000000000000000000000000000000a29d0cc3499decfffffffffffffffffffffffffffffffffffffffffffffffffffffffffa46eee3000000000000000000000000000000000000000000000000000000000000006000000000000000000000000000000000000000000000000000000000000000c00000000000000000000000000000000000000000000000000000000000000020000000000000000000000000000000000000000000000000000000000000004000000000000000000000000028c37e5d235ace89fa63cd034d8f47e23add2a82000000000000000000000000000000000000000000000000000000000000002bc02aaa39b223fe8d0a0e5c4f27ead9083c756cc20001f4dac17f958d2ee523a2206206994597c13d831ec7000000000000000000000000000000000000000000",
                    "decodedMethod": {
                        "callParams": [
                            {
                                "name": "amount0Delta",
                                "type": "int256",
                                "value": "45,771,624,368,676,332"
                            },
                            {
                                "name": "amount1Delta",
                                "type": "int256",
                                "value": "-96,014,621"
                            },
                            {
                                "name": "_data",
                                "type": "bytes",
                                "value": "0x0000000000000000000000000000000000000000000000000000000000000020000000000000000000000000000000000000000000000000000000000000004000000000000000000000000028c37e5d235ace89fa63cd034d8f47e23add2a82000000000000000000000000000000000000000000000000000000000000002bc02aaa39b223fe8d0a0e5c4f27ead9083c756cc20001f4dac17f958d2ee523a2206206994597c13d831ec7000000000000000000000000000000000000000000"
                            }
                        ],
                        "constructorArguments": "",
                        "name": "uniswapV3SwapCallback",
                        "returnParams": [],
                        "signature": "uniswapV3SwapCallback(int256,int256,bytes)"
                    },
                    "errorInfo": "",
                    "fromAddress": "0x11b815efb8f581194ae79006d24e0d814b7697f6",
                    "gasUsed": 40493,
                    "id": 5,
                    "methodDecoded": true,
                    "operation": "CALL",
                    "output": "",
                    "revert": false,
                    "revertMessage": "",
                    "selector": "0xfa461e33",
                    "status": true,
                    "value": "0"
                },
                "nodeType": 0
            },
            "6": {
                "invocation": {
                    "address": "0xc02aaa39b223fe8d0a0e5c4f27ead9083c756cc2",
                    "callData": "0x",
                    "decodedMethod": {
                        "callParams": [],
                        "constructorArguments": "",
                        "name": "deposit",
                        "returnParams": [],
                        "signature": "deposit()"
                    },
                    "errorInfo": "",
                    "fromAddress": "0xe592427a0aece92de3edee1f18e0157c05861564",
                    "gasUsed": 23974,
                    "id": 6,
                    "methodDecoded": true,
                    "operation": "CALL",
                    "output": "",
                    "revert": false,
                    "revertMessage": "",
                    "selector": "0xd0e30db0",
                    "status": true,
                    "value": "0.045771624368676332"
                },
                "nodeType": 0
            },
            "7": {
                "event": {
                    "contract": "0xc02aaa39b223fe8d0a0e5c4f27ead9083c756cc2",
                    "decodedLog": {
                        "name": "Deposit",
                        "params": [
                            {
                                "name": "dst",
                                "type": "address",
                                "value": "0xe592427a0aece92de3edee1f18e0157c05861564"
                            },
                            {
                                "name": "wad",
                                "type": "uint256",
                                "value": "45,771,624,368,676,332"
                            }
                        ],
                        "signature": "Deposit(address,uint256)"
                    },
                    "id": 7,
                    "logData": "0x00000000000000000000000000000000000000000000000000a29d0cc3499dec",
                    "logDecoded": true,
                    "operation": "EVENT",
                    "revert": false,
                    "status": true,
                    "topics": [
                        "0xe1fffcc4923d04b559f4d29a8bfc6cda04eb5b0d3c460751c2402c5c5cc9109c",
                        "0x000000000000000000000000e592427a0aece92de3edee1f18e0157c05861564"
                    ]
                },
                "nodeType": 1
            },
            "8": {
                "invocation": {
                    "address": "0xc02aaa39b223fe8d0a0e5c4f27ead9083c756cc2",
                    "callData": "0x00000000000000000000000011b815efb8f581194ae79006d24e0d814b7697f600000000000000000000000000000000000000000000000000a29d0cc3499dec",
                    "decodedMethod": {
                        "callParams": [
                            {
                                "name": "dst",
                                "type": "address",
                                "value": "0x11b815efb8f581194ae79006d24e0d814b7697f6"
                            },
                            {
                                "decimalAvailable": true,
                                "name": "wad",
                                "type": "uint256",
                                "value": "45,771,624,368,676,332"
                            }
                        ],
                        "constructorArguments": "",
                        "name": "transfer",
                        "returnParams": [
                            {
                                "name": "",
                                "type": "bool",
                                "value": true
                            }
                        ],
                        "signature": "transfer(address,uint256)"
                    },
                    "errorInfo": "",
                    "fromAddress": "0xe592427a0aece92de3edee1f18e0157c05861564",
                    "gasUsed": 6062,
                    "id": 8,
                    "methodDecoded": true,
                    "operation": "CALL",
                    "output": "0x0000000000000000000000000000000000000000000000000000000000000001",
                    "revert": false,
                    "revertMessage": "",
                    "selector": "0xa9059cbb",
                    "status": true,
                    "value": "0"
                },
                "nodeType": 0
            },
            "9": {
                "event": {
                    "contract": "0xc02aaa39b223fe8d0a0e5c4f27ead9083c756cc2",
                    "decodedLog": {
                        "name": "Transfer",
                        "params": [
                            {
                                "name": "src",
                                "type": "address",
                                "value": "0xe592427a0aece92de3edee1f18e0157c05861564"
                            },
                            {
                                "name": "dst",
                                "type": "address",
                                "value": "0x11b815efb8f581194ae79006d24e0d814b7697f6"
                            },
                            {
                                "decimalAvailable": true,
                                "name": "wad",
                                "type": "uint256",
                                "value": "45,771,624,368,676,332"
                            }
                        ],
                        "signature": "Transfer(address,address,uint256)"
                    },
                    "id": 9,
                    "logData": "0x00000000000000000000000000000000000000000000000000a29d0cc3499dec",
                    "logDecoded": true,
                    "operation": "EVENT",
                    "revert": false,
                    "status": true,
                    "topics": [
                        "0xddf252ad1be2c89b69c2b068fc378daa952ba7f163c4a11628f55a4df523b3ef",
                        "0x000000000000000000000000e592427a0aece92de3edee1f18e0157c05861564",
                        "0x00000000000000000000000011b815efb8f581194ae79006d24e0d814b7697f6"
                    ]
                },
                "nodeType": 1
            }
        },
        "gasFlame": [
            {
                "children": [
                    {
                        "children": [
                            {
                                "children": [],
                                "depth": 0,
                                "name": "Initial Gas",
                                "value": 23628
                            },
                            {
                                "children": [
                                    {
                                        "children": [
                                            {
                                                "children": [],
                                                "depth": 2,
                                                "name": "transfer",
                                                "value": 24501
                                            },
                                            {
                                                "children": [],
                                                "depth": 2,
                                                "name": "balanceOf",
                                                "value": 2534
                                            },
                                            {
                                                "children": [
                                                    {
                                                        "children": [],
                                                        "depth": 3,
                                                        "name": "deposit",
                                                        "value": 23974
                                                    },
                                                    {
                                                        "children": [],
                                                        "depth": 3,
                                                        "name": "transfer",
                                                        "value": 6062
                                                    }
                                                ],
                                                "depth": 2,
                                                "name": "uniswapV3SwapCallback",
                                                "value": 40493
                                            },
                                            {
                                                "children": [],
                                                "depth": 2,
                                                "name": "balanceOf",
                                                "value": 534
                                            }
                                        ],
                                        "depth": 1,
                                        "name": "swap",
                                        "value": 105270
                                    },
                                    {
                                        "children": [
                                            {
                                                "children": [],
                                                "depth": 2,
                                                "name": "transfer",
                                                "value": 30174
                                            },
                                            {
                                                "children": [],
                                                "depth": 2,
                                                "name": "balanceOf",
                                                "value": 3031
                                            },
                                            {
                                                "children": [
                                                    {
                                                        "children": [],
                                                        "depth": 3,
                                                        "name": "transfer",
                                                        "value": 9701
                                                    }
                                                ],
                                                "depth": 2,
                                                "name": "uniswapV3SwapCallback",
                                                "value": 13565
                                            },
                                            {
                                                "children": [],
                                                "depth": 2,
                                                "name": "balanceOf",
                                                "value": 1031
                                            }
                                        ],
                                        "depth": 1,
                                        "name": "swap",
                                        "value": 81427
                                    }
                                ],
                                "depth": 0,
                                "name": "Executed Gas",
                                "value": 201794
                            }
                        ],
                        "depth": -1,
                        "name": "Actual Gas Used",
                        "value": 202722
                    },
                    {
                        "children": [],
                        "depth": -1,
                        "name": "Refunded Gas",
                        "value": 22700
                    }
                ],
                "depth": -2,
                "name": "Total Gas",
                "value": 225422
            }
        ],
        "isConfirmed": true,
        "mainTrace": [
            {
                "children": [
                    {
                        "children": [
                            {
                                "children": [
                                    {
                                        "children": [
                                            {
                                                "children": [],
                                                "depth": 3,
                                                "id": 3,
                                                "order": 3
                                            }
                                        ],
                                        "depth": 2,
                                        "id": 2,
                                        "order": 2
                                    },
                                    {
                                        "children": [],
                                        "depth": 2,
                                        "id": 4,
                                        "order": 4
                                    },
                                    {
                                        "children": [
                                            {
                                                "children": [
                                                    {
                                                        "children": [],
                                                        "depth": 4,
                                                        "id": 7,
                                                        "order": 7
                                                    }
                                                ],
                                                "depth": 3,
                                                "id": 6,
                                                "order": 6
                                            },
                                            {
                                                "children": [
                                                    {
                                                        "children": [],
                                                        "depth": 4,
                                                        "id": 9,
                                                        "order": 9
                                                    }
                                                ],
                                                "depth": 3,
                                                "id": 8,
                                                "order": 8
                                            }
                                        ],
                                        "depth": 2,
                                        "id": 5,
                                        "order": 5
                                    },
                                    {
                                        "children": [],
                                        "depth": 2,
                                        "id": 10,
                                        "order": 10
                                    },
                                    {
                                        "children": [],
                                        "depth": 2,
                                        "id": 11,
                                        "order": 11
                                    }
                                ],
                                "depth": 1,
                                "id": 1,
                                "order": 1
                            },
                            {
                                "children": [
                                    {
                                        "children": [
                                            {
                                                "children": [],
                                                "depth": 3,
                                                "id": 14,
                                                "order": 14
                                            }
                                        ],
                                        "depth": 2,
                                        "id": 13,
                                        "order": 13
                                    },
                                    {
                                        "children": [],
                                        "depth": 2,
                                        "id": 15,
                                        "order": 15
                                    },
                                    {
                                        "children": [
                                            {
                                                "children": [
                                                    {
                                                        "children": [],
                                                        "depth": 4,
                                                        "id": 18,
                                                        "order": 18
                                                    }
                                                ],
                                                "depth": 3,
                                                "id": 17,
                                                "order": 17
                                            }
                                        ],
                                        "depth": 2,
                                        "id": 16,
                                        "order": 16
                                    },
                                    {
                                        "children": [],
                                        "depth": 2,
                                        "id": 19,
                                        "order": 19
                                    },
                                    {
                                        "children": [],
                                        "depth": 2,
                                        "id": 20,
                                        "order": 20
                                    }
                                ],
                                "depth": 1,
                                "id": 12,
                                "order": 12
                            }
                        ],
                        "depth": 0,
                        "id": 0,
                        "order": 0
                    }
                ],
                "depth": -1,
                "id": -1,
                "order": -1
            }
        ],
        "mainTraceNodeCount": 21,
        "parentIdMap": {
            "0": -1,
            "1": 0,
            "10": 1,
            "11": 1,
            "12": 0,
            "13": 12,
            "14": 13,
            "15": 12,
            "16": 12,
            "17": 16,
            "18": 17,
            "19": 12,
            "2": 1,
            "20": 12,
            "3": 2,
            "4": 1,
            "5": 1,
            "6": 5,
            "7": 6,
            "8": 5,
            "9": 8
        },
        "tidyTrace": [
            {
                "children": [
                    {
                        "children": [
                            {
                                "children": [
                                    {
                                        "children": [
                                            {
                                                "children": [],
                                                "depth": 3,
                                                "id": 3,
                                                "order": 3
                                            }
                                        ],
                                        "depth": 2,
                                        "id": 2,
                                        "order": 2
                                    },
                                    {
                                        "children": [
                                            {
                                                "children": [
                                                    {
                                                        "children": [],
                                                        "depth": 4,
                                                        "id": 7,
                                                        "order": 7
                                                    }
                                                ],
                                                "depth": 3,
                                                "id": 6,
                                                "order": 6
                                            },
                                            {
                                                "children": [
                                                    {
                                                        "children": [],
                                                        "depth": 4,
                                                        "id": 9,
                                                        "order": 9
                                                    }
                                                ],
                                                "depth": 3,
                                                "id": 8,
                                                "order": 8
                                            }
                                        ],
                                        "depth": 2,
                                        "id": 5,
                                        "order": 5
                                    },
                                    {
                                        "children": [],
                                        "depth": 2,
                                        "id": 11,
                                        "order": 11
                                    }
                                ],
                                "depth": 1,
                                "id": 1,
                                "order": 1
                            },
                            {
                                "children": [
                                    {
                                        "children": [
                                            {
                                                "children": [],
                                                "depth": 3,
                                                "id": 14,
                                                "order": 14
                                            }
                                        ],
                                        "depth": 2,
                                        "id": 13,
                                        "order": 13
                                    },
                                    {
                                        "children": [
                                            {
                                                "children": [
                                                    {
                                                        "children": [],
                                                        "depth": 4,
                                                        "id": 18,
                                                        "order": 18
                                                    }
                                                ],
                                                "depth": 3,
                                                "id": 17,
                                                "order": 17
                                            }
                                        ],
                                        "depth": 2,
                                        "id": 16,
                                        "order": 16
                                    },
                                    {
                                        "children": [],
                                        "depth": 2,
                                        "id": 20,
                                        "order": 20
                                    }
                                ],
                                "depth": 1,
                                "id": 12,
                                "order": 12
                            }
                        ],
                        "depth": 0,
                        "id": 0,
                        "order": 0
                    }
                ],
                "depth": -1,
                "id": -1,
                "order": -1
            }
        ],
        "tidyTraceNodeCount": 17
    },
    "state_change": {
        "stateChanges": [
            {
                "address": "0x11b815efb8f581194ae79006d24e0d814b7697f6",
                "erc": "",
                "slots": [
                    {
                        "current": "0x000100000100010000fcf36a00000000000000000003009893346460f89b245f",
                        "key": "0x0000000000000000000000000000000000000000000000000000000000000000",
                        "prev": "0x000100000100010000fcf36a00000000000000000003009964994b023a3f3f9c"
                    },
                    {
                        "current": "0x000000000000000000000000000000fbb0d675559b04ca5aa73c31ff1add7499",
                        "key": "0x0000000000000000000000000000000000000000000000000000000000000001",
                        "prev": "0x000000000000000000000000000000fbb0d37bc202c78fa45fa3433a4edacd18"
                    }
                ],
                "storageVariables": [
                    {
                        "name": "slot0",
                        "type": "struct UniswapV3Pool.Slot0",
                        "value": {
                            "fields": [
                                {
                                    "name": "sqrtPriceX96",
                                    "type": "uint160",
                                    "value": {
                                        "current": "3629591971156481390879839",
                                        "prev": "3629607059594713254281116",
                                        "typeTag": 1
                                    }
                                },
                                {
                                    "name": "tick",
                                    "type": "int24",
                                    "value": {
                                        "current": "-199830",
                                        "prev": "-199830",
                                        "typeTag": 1
                                    }
                                },
                                {
                                    "name": "observationIndex",
                                    "type": "uint16",
                                    "value": {
                                        "current": "0",
                                        "prev": "0",
                                        "typeTag": 1
                                    }
                                },
                                {
                                    "name": "observationCardinality",
                                    "type": "uint16",
                                    "value": {
                                        "current": "1",
                                        "prev": "1",
                                        "typeTag": 1
                                    }
                                },
                                {
                                    "name": "observationCardinalityNext",
                                    "type": "uint16",
                                    "value": {
                                        "current": "1",
                                        "prev": "1",
                                        "typeTag": 1
                                    }
                                },
                                {
                                    "name": "feeProtocol",
                                    "type": "uint8",
                                    "value": {
                                        "current": "0",
                                        "prev": "0",
                                        "typeTag": 1
                                    }
                                },
                                {
                                    "name": "unlocked",
                                    "type": "bool",
                                    "value": {
                                        "current": "true",
                                        "prev": "true",
                                        "typeTag": 1
                                    }
                                }
                            ],
                            "typeTag": 3
                        }
                    },
                    {
                        "name": "feeGrowthGlobal0X128",
                        "type": "uint256",
                        "value": {
                            "current": "85645931755765719384824384343623157511321",
                            "prev": "85645916309158355373078770586931426938136",
                            "typeTag": 1
                        }
                    }
                ]
            },
            {
                "address": "0x6b175474e89094c44da98b954eedeac495271d0f",
                "erc": "ERC-20",
                "slots": [
                    {
                        "current": "0x00000000000000000000000000000000000000000000000532950e784dceabc2",
                        "key": "0xcc79857ef7bca86b727c00caed220fc5b0227f70de1297660b4155a4cbde3bfa",
                        "prev": "0x0000000000000000000000000000000000000000000000000000000000000000"
                    },
                    {
                        "current": "0x000000000000000000000000000000000000000000111a996cd8a0d6c948236c",
                        "key": "0x7319dbd3df87dc649aecf2c43364f3729a895a26487ee485b7813b28cddd22fe",
                        "prev": "0x000000000000000000000000000000000000000000111a9e9f6daf4f1716cf2e"
                    }
                ],
                "storageVariables": [
                    {
                        "name": "balanceOf",
                        "type": "mapping(address => uint256)",
                        "value": {
                            "pairs": [
                                {
                                    "key": "0x28c37e5d235ace89fa63cd034d8f47e23add2a82",
                                    "value": {
                                        "current": "95878555751838297026",
                                        "prev": "0",
                                        "typeTag": 1
                                    }
                                },
                                {
                                    "key": "0x6f48eca74b38d2936b02ab603ff4e36a6c0e3a77",
                                    "value": {
                                        "current": "20677350657042179733070700",
                                        "prev": "20677446535597931571367726",
                                        "typeTag": 1
                                    }
                                }
                            ],
                            "typeTag": 4
                        }
                    }
                ]
            },
            {
                "address": "0x6f48eca74b38d2936b02ab603ff4e36a6c0e3a77",
                "erc": "",
                "slots": [
                    {
                        "current": "0x000100000100010000fbc8a50000000000000000000010c8f06c41152a57c9e0",
                        "key": "0x0000000000000000000000000000000000000000000000000000000000000000",
                        "prev": "0x000100000100010000fbc8a50000000000000000000010c8f06b73812aff3526"
                    },
                    {
                        "current": "0x0000000000000000000000000000000000000000422fbf6ab6a872a0895c79d2",
                        "key": "0x0000000000000000000000000000000000000000000000000000000000000002",
                        "prev": "0x0000000000000000000000000000000000000000422fbf5062cebefeba364ff0"
                    }
                ],
                "storageVariables": []
            },
            {
                "address": "0xc02aaa39b223fe8d0a0e5c4f27ead9083c756cc2",
                "erc": "ERC-20",
                "slots": [
                    {
                        "current": "0x000000000000000000000000000000000000000000000089605122ba12e1ed3d",
                        "key": "0x0cb865ff1951c90111975d77bc75fa8312f25b08bb19b908f6b9c43691ac0caf",
                        "prev": "0x0000000000000000000000000000000000000000000000895fae85ad4f984f51"
                    }
                ],
                "storageVariables": [
                    {
                        "name": "balanceOf",
                        "type": "mapping(address => uint256)",
                        "value": {
                            "pairs": [
                                {
                                    "key": "0x11b815efb8f581194ae79006d24e0d814b7697f6",
                                    "value": {
                                        "current": "2534144304781539274045",
                                        "prev": "2534098533157170597713",
                                        "typeTag": 1
                                    }
                                }
                            ],
                            "typeTag": 4
                        }
                    }
                ]
            },
            {
                "address": "0xdac17f958d2ee523a2206206994597c13d831ec7",
                "erc": "ERC-20",
                "slots": [
                    {
                        "current": "0x0000000000000000000000000000000000000000000000000000022c8312756c",
                        "key": "0x169228ca33ea854d54aa1e506e59ec687f618a41074f5f5de937a0e9c6343e5a",
                        "prev": "0x0000000000000000000000000000000000000000000000000000022c88cb8689"
                    },
                    {
                        "current": "0x00000000000000000000000000000000000000000000000000000bd4faca8445",
                        "key": "0x7319dbd3df87dc649aecf2c43364f3729a895a26487ee485b7813b28cddd22fe",
                        "prev": "0x00000000000000000000000000000000000000000000000000000bd4f5117328"
                    }
                ],
                "storageVariables": [
                    {
                        "name": "balances",
                        "type": "mapping(address => uint256)",
                        "value": {
                            "pairs": [
                                {
                                    "key": "0x11b815efb8f581194ae79006d24e0d814b7697f6",
                                    "value": {
                                        "current": "2390200841580",
                                        "prev": "2390296856201",
                                        "typeTag": 1
                                    }
                                },
                                {
                                    "key": "0x6f48eca74b38d2936b02ab603ff4e36a6c0e3a77",
                                    "value": {
                                        "current": "13009368548421",
                                        "prev": "13009272533800",
                                        "typeTag": 1
                                    }
                                }
                            ],
                            "typeTag": 4
                        }
                    }
                ]
            }
        ]
    }
}