{
    "balance_change": {
        "balanceChanges": [
            {
                "account": "0x8adb44701c4a603bdf5a46897ea4652fcd30049b",
                "assets": [
                    {
                        "address": "0xf2f22cd890785034b8531f27aa748091417ee015",
                        "amount": "863.000000000000202126",
                        "iconUrl": "",
                        "isERC1155": false,
                        "isERC721": false,
                        "sign": false,
                        "value": ""
                    }
                ]
            },
            {
                "account": "0x1800246b58dc9edf07013b66a5a6800a9596f419",
                "assets": [
                    {
                        "address": "0xf2f22cd890785034b8531f27aa748091417ee015",
                        "amount": "863.000000000000202126",
                        "iconUrl": "",
                        "isERC1155": false,
                        "isERC721": false,
                        "sign": true,
                        "value": ""
                    }
                ]
            }
        ]
    },
    "profile": {
        "basic_info": {
            "baseFee": "",
            "blockNumber": 8428221,
            "callData": "0xa9059cbb0000000000000000000000001800246b58dc9edf07013b66a5a6800a9596f41900000000000000000000000000000000000000000000002ec887e7a14a1f158e",
            "debugEnable": true,
            "errorInfo": "",
            "eventCount": 1,
            "feeRecipient": "0x09ab1303d3ccaf5f018cd511146b07a240c70294",
            "formatValue": "0",
            "gasLimit": 100000,
            "gasPrice": "10",
            "gasUsed": 36791,
            "intTxnCount": 0,
            "internalRevert": false,
            "internalRevertMessage": "",
            "isContractCreation": false,
            "isFlashloan": false,
            "maxFee": "",
            "nonce": 7,
            "overwritedBlockNumber": -1,
            "priorityFee": "",
            "receiver": "0xf2f22cd890785034b8531f27aa748091417ee015",
            "revertMessage": "",
            "sender": "0x8adb44701c4a603bdf5a46897ea4652fcd30049b",
            "simulationEnable": true,
            "sourceTxnHash": "0xeee818320d95c6b1be161721c4c17732569abe94e133b32004d3fd90259a8cf2",
            "status": true,
            "timestamp": "2019-08-26T21:21:19Z",
            "transactionFee": "0.00036791",
            "txnHash": "0xeee818320d95c6b1be161721c4c17732569abe94e133b32004d3fd90259a8cf2",
            "txnIndex": 3,
            "type": 0,
            "value": "0"
        },
        "fund_flow": [
            {
                "amount": "863.000000000000202126",
                "from": "0x8adb44701c4a603bdf5a46897ea4652fcd30049b",
                "id": 1,
                "isERC1155": false,
                "isERC721": false,
                "isReverted": false,
                "order": 1,
                "to": "0x1800246b58dc9edf07013b66a5a6800a9596f419",
                "token": "0xf2f22cd890785034b8531f27aa748091417ee015"
            }
        ],
        "token_infos": [
            {
                "address": "0xf2f22cd890785034b8531f27aa748091417ee015",
                "decimals": 18
            },
            {
                "address": "0xeeeeeeeeeeeeeeeeeeeeeeeeeeeeeeeeeeeeeeee",
                "decimals": 18
            },
            {
                "address": "0xc02aaa39b223fe8d0a0e5c4f27ead9083c756cc2",
                "decimals": 18
            }
        ]
    },
    "address_label": {
        "labels": [
            {
                "address": "0x0000000000000000000000000000000000000003",
                "label": "Precompiled"
            },
            {
                "address": "0x0000000000000000000000000000000000000004",
                "label": "Precompiled"
            },
            {
                "address": "0xeeeeeeeeeeeeeeeeeeeeeeeeeeeeeeeeeeeeeeee",
                "label": "Ether"
            },
            {
                "address": "0xf2f22cd890785034b8531f27aa748091417ee015",
                "label": "Micro Payment Shield Token"
            },
            {
                "address": "0x0000000000000000000000000000000000000001",
                "label": "Precompiled"
            },
            {
                "address": "0x0000000000000000000000000000000000000002",
                "label": "Precompiled"
            }
        ]
    },
    "trace": {
        "accountLabels": null,
        "dataMap": {
            "-1": {
                "invocation": {
                    "address": "0x8adb44701c4a603bdf5a46897ea4652fcd30049b",
                    "callData": "",
                    "decodedMethod": null,
                    "errorInfo": "",
                    "fromAddress": "",
                    "gasUsed": 0,
                    "id": -1,
                    "methodDecoded": false,
                    "operation": "",
                    "output": "",
                    "revert": false,
                    "revertMessage": "",
                    "selector": "",
                    "status": false,
                    "value": ""
                },
                "nodeType": 0
            },
            "0": {
                "invocation": {
                    "address": "0xf2f22cd890785034b8531f27aa748091417ee015",
                    "callData": "0x0000000000000000000000001800246b58dc9edf07013b66a5a6800a9596f41900000000000000000000000000000000000000000000002ec887e7a14a1f158e",
                    "decodedMethod": {
                        "callParams": [
                            {
                                "name": "_to",
                                "type": "address",
                                "value": "0x1800246b58dc9edf07013b66a5a6800a9596f419"
                            },
                            {
                                "decimalAvailable": true,
                                "name": "_value",
                                "type": "uint256",
                                "value": "863,000,000,000,000,202,126"
                            }
                        ],
                        "constructorArguments": "",
                        "name": "transfer",
                        "returnParams": [
                            {
                                "name": "",
                                "type": "bool",
                                "value": true
                            }
                        ],
                        "signature": "transfer(address,uint256)"
                    },
                    "errorInfo": "",
                    "fromAddress": "0x8adb44701c4a603bdf5a46897ea4652fcd30049b",
                    "gasUsed": 36791,
                    "id": 0,
                    "methodDecoded": true,
                    "operation": "CALL",
                    "output": "0x0000000000000000000000000000000000000000000000000000000000000001",
                    "revert": false,
                    "revertMessage": "",
                    "selector": "0xa9059cbb",
                    "status": true,
                    "value": "0"
                },
                "nodeType": 0
            },
            "1": {
                "event": {
                    "contract": "0xf2f22cd890785034b8531f27aa748091417ee015",
                    "decodedLog": {
                        "name": "Transfer",
                        "params": [
                            {
                                "name": "from",
                                "type": "address",
                                "value": "0x8adb44701c4a603bdf5a46897ea4652fcd30049b"
                            },
                            {
                                "name": "to",
                                "type": "address",
                                "value": "0x1800246b58dc9edf07013b66a5a6800a9596f419"
                            },
                            {
                                "decimalAvailable": true,
                                "name": "value",
                                "type": "uint256",
                                "value": "863,000,000,000,000,202,126"
                            }
                        ],
                        "signature": "Transfer(address,address,uint256)"
                    },
                    "id": 1,
                    "logData": "0x00000000000000000000000000000000000000000000002ec887e7a14a1f158e",
                    "logDecoded": true,
                    "operation": "EVENT",
                    "revert": false,
                    "status": true,
                    "topics": [
                        "0xddf252ad1be2c89b69c2b068fc378daa952ba7f163c4a11628f55a4df523b3ef",
                        "0x0000000000000000000000008adb44701c4a603bdf5a46897ea4652fcd30049b",
                        "0x0000000000000000000000001800246b58dc9edf07013b66a5a6800a9596f419"
                    ]
                },
                "nodeType": 1
            }
        },
        "gasFlame": [
            {
                "children": [
                    {
                        "children": [
                            {
                                "children": [],
                                "depth": 0,
                                "name": "Initial Gas",
                                "value": 23320
                            },
                            {
                                "children": [],
                                "depth": 0,
                                "name": "Executed Gas",
                                "value": 13471
                            }
                        ],
                        "depth": -1,
                        "name": "Actual Gas Used",
                        "value": 36791
                    },
                    {
                        "children": [],
                        "depth": -1,
                        "name": "Refunded Gas",
                        "value": 0
                    }
                ],
                "depth": -2,
                "name": "Total Gas",
                "value": 36791
            }
        ],
        "isConfirmed": true,
        "mainTrace": [
            {
                "children": [
                    {
                        "children": [
                            {
                                "children": [],
                                "depth": 1,
                                "id": 1,
                                "order": 1
                            }
                        ],
                        "depth": 0,
                        "id": 0,
                        "order": 0
                    }
                ],
                "depth": -1,
                "id": -1,
                "order": -1
            }
        ],
        "mainTraceNodeCount": 2,
        "parentIdMap": {
            "0": -1,
            "1": 0
        },
        "tidyTrace": [
            {
                "children": [
                    {
                        "children": [
                            {
                                "children": [],
                                "depth": 1,
                                "id": 1,
                                "order": 1
                            }
                        ],
                        "depth": 0,
                        "id": 0,
                        "order": 0
                    }
                ],
                "depth": -1,
                "id": -1,
                "order": -1
            }
        ],
        "tidyTraceNodeCount": 2
    },
    "state_change": {
        "stateChanges": [
            {
                "address": "0xf2f22cd890785034b8531f27aa748091417ee015",
                "erc": "ERC-20",
                "slots": [
                    {
                        "current": "0x000000000000000000000000000000000000000000009be8028ba911f454b822",
                        "key": "0x28db811516c2baad87da574beeab5e6b3f0678c3f08eb4d9a54e411d9c3296be",
                        "prev": "0x000000000000000000000000000000000000000000009bb93a03c170aa35a294"
                    },
                    {
                        "current": "0x000000000000000000000000000000000000000000000000000009184e701e1c",
                        "key": "0x7eba5e0ce0be4fb9f6ff5617935252345bd628d9958f03aab7248349211c96a2",
                        "prev": "0x00000000000000000000000000000000000000000000002ec887f0b9988f33aa"
                    }
                ],
                "storageVariables": [
                    {
                        "name": "_balances",
                        "type": "mapping(address => uint256)",
                        "value": {
                            "pairs": [
                                {
                                    "key": "0x1800246b58dc9edf07013b66a5a6800a9596f419",
                                    "value": {
                                        "current": "736246632896000041465890",
                                        "prev": "735383632896000041263764",
                                        "typeTag": 1
                                    }
                                },
                                {
                                    "key": "0x8adb44701c4a603bdf5a46897ea4652fcd30049b",
                                    "value": {
                                        "current": "9999999835676",
                                        "prev": "863000010000000037802",
                                        "typeTag": 1
                                    }
                                }
                            ],
                            "typeTag": 4
                        }
                    }
                ]
            }
        ]
    }
}