{
    "balance_change": {
        "balanceChanges": [
            {
                "account": "0xd344d4d335cd24ebb68596cbe55461efacf999cc",
                "assets": [
                    {
                        "address": "0xd1fce0e6272c1129194dd6eaf9b1451e5b49c9da",
                        "amount": "500",
                        "iconUrl": "",
                        "isERC1155": false,
                        "isERC721": false,
                        "sign": false,
                        "value": ""
                    }
                ]
            },
            {
                "account": "0x472a957a3e8da27e36fd02f799c58136eb177723",
                "assets": [
                    {
                        "address": "0xd1fce0e6272c1129194dd6eaf9b1451e5b49c9da",
                        "amount": "500",
                        "iconUrl": "",
                        "isERC1155": false,
                        "isERC721": false,
                        "sign": true,
                        "value": ""
                    }
                ]
            }
        ]
    },
    "profile": {
        "basic_info": {
            "baseFee": "",
            "blockNumber": 4474462,
            "callData": "0xa9059cbb000000000000000000000000472a957a3e8da27e36fd02f799c58136eb177723000000000000000000000000000000000000000000000000000000000000c350",
            "debugEnable": true,
            "errorInfo": "",
            "eventCount": 1,
            "feeRecipient": "0xcc4b9f070005334306386e04e5b04d001ed7e068",
            "formatValue": "0",
            "gasLimit": 77455,
            "gasPrice": "0.5",
            "gasUsed": 51637,
            "intTxnCount": 0,
            "internalRevert": false,
            "internalRevertMessage": "",
            "isContractCreation": false,
            "isFlashloan": false,
            "maxFee": "",
            "nonce": 1474,
            "overwritedBlockNumber": -1,
            "priorityFee": "",
            "receiver": "0xd1fce0e6272c1129194dd6eaf9b1451e5b49c9da",
            "revertMessage": "",
            "sender": "0xd344d4d335cd24ebb68596cbe55461efacf999cc",
            "simulationEnable": true,
            "sourceTxnHash": "0xee6b5eca8b55c6c6feab1efd904aed6ef391df1eea5f2e543f74aa79330ce551",
            "status": true,
            "timestamp": "2017-11-02T05:13:16Z",
            "transactionFee": "0.0000258185",
            "txnHash": "0xee6b5eca8b55c6c6feab1efd904aed6ef391df1eea5f2e543f74aa79330ce551",
            "txnIndex": 19,
            "type": 0,
            "value": "0"
        },
        "fund_flow": [
            {
                "amount": "500",
                "from": "0xd344d4d335cd24ebb68596cbe55461efacf999cc",
                "id": 1,
                "isERC1155": false,
                "isERC721": false,
                "isReverted": false,
                "order": 1,
                "to": "0x472a957a3e8da27e36fd02f799c58136eb177723",
                "token": "0xd1fce0e6272c1129194dd6eaf9b1451e5b49c9da"
            }
        ],
        "token_infos": [
            {
                "address": "0xd1fce0e6272c1129194dd6eaf9b1451e5b49c9da",
                "decimals": 2
            },
            {
                "address": "0xeeeeeeeeeeeeeeeeeeeeeeeeeeeeeeeeeeeeeeee",
                "decimals": 18
            },
            {
                "address": "0xc02aaa39b223fe8d0a0e5c4f27ead9083c756cc2",
                "decimals": 18
            }
        ]
    },
    "address_label": {
        "labels": [
            {
                "address": "0x0000000000000000000000000000000000000001",
                "label": "Precompiled"
            },
            {
                "address": "0x0000000000000000000000000000000000000002",
                "label": "Precompiled"
            },
            {
                "address": "0x0000000000000000000000000000000000000003",
                "label": "Precompiled"
            },
            {
                "address": "0x0000000000000000000000000000000000000004",
                "label": "Precompiled"
            },
            {
                "address": "0xeeeeeeeeeeeeeeeeeeeeeeeeeeeeeeeeeeeeeeee",
                "label": "Ether"
            },
            {
                "address": "0xd1fce0e6272c1129194dd6eaf9b1451e5b49c9da",
                "label": "EPAL"
            }
        ]
    },
    "trace": {
        "accountLabels": null,
        "dataMap": {
            "-1": {
                "invocation": {
                    "address": "0xd344d4d335cd24ebb68596cbe55461efacf999cc",
                    "callData": "",
                    "decodedMethod": null,
                    "errorInfo": "",
                    "fromAddress": "",
                    "gasUsed": 0,
                    "id": -1,
                    "methodDecoded": false,
                    "operation": "",
                    "output": "",
                    "revert": false,
                    "revertMessage": "",
                    "selector": "",
                    "status": false,
                    "value": ""
                },
                "nodeType": 0
            },
            "0": {
                "invocation": {
                    "address": "0xd1fce0e6272c1129194dd6eaf9b1451e5b49c9da",
                    "callData": "0x000000000000000000000000472a957a3e8da27e36fd02f799c58136eb177723000000000000000000000000000000000000000000000000000000000000c350",
                    "decodedMethod": {
                        "callParams": [
                            {
                                "name": "_to",
                                "type": "address",
                                "value": "0x472a957a3e8da27e36fd02f799c58136eb177723"
                            },
                            {
                                "decimalAvailable": true,
                                "name": "_amount",
                                "type": "uint256",
                                "value": "50,000"
                            }
                        ],
                        "constructorArguments": "",
                        "name": "transfer",
                        "returnParams": [
                            {
                                "name": "success",
                                "type": "bool",
                                "value": true
                            }
                        ],
                        "signature": "transfer(address,uint256)"
                    },
                    "errorInfo": "",
                    "fromAddress": "0xd344d4d335cd24ebb68596cbe55461efacf999cc",
                    "gasUsed": 51637,
                    "id": 0,
                    "methodDecoded": true,
                    "operation": "CALL",
                    "output": "0x0000000000000000000000000000000000000000000000000000000000000001",
                    "revert": false,
                    "revertMessage": "",
                    "selector": "0xa9059cbb",
                    "status": true,
                    "value": "0"
                },
                "nodeType": 0
            },
            "1": {
                "event": {
                    "contract": "0xd1fce0e6272c1129194dd6eaf9b1451e5b49c9da",
                    "decodedLog": {
                        "name": "Transfer",
                        "params": [
                            {
                                "name": "_from",
                                "type": "address",
                                "value": "0xd344d4d335cd24ebb68596cbe55461efacf999cc"
                            },
                            {
                                "name": "_to",
                                "type": "address",
                                "value": "0x472a957a3e8da27e36fd02f799c58136eb177723"
                            },
                            {
                                "decimalAvailable": true,
                                "name": "_value",
                                "type": "uint256",
                                "value": "50,000"
                            }
                        ],
                        "signature": "Transfer(address,address,uint256)"
                    },
                    "id": 1,
                    "logData": "0x000000000000000000000000000000000000000000000000000000000000c350",
                    "logDecoded": true,
                    "operation": "EVENT",
                    "revert": false,
                    "status": true,
                    "topics": [
                        "0xddf252ad1be2c89b69c2b068fc378daa952ba7f163c4a11628f55a4df523b3ef",
                        "0x000000000000000000000000d344d4d335cd24ebb68596cbe55461efacf999cc",
                        "0x000000000000000000000000472a957a3e8da27e36fd02f799c58136eb177723"
                    ]
                },
                "nodeType": 1
            }
        },
        "gasFlame": [
            {
                "children": [
                    {
                        "children": [
                            {
                                "children": [],
                                "depth": 0,
                                "name": "Initial Gas",
                                "value": 22936
                            },
                            {
                                "children": [],
                                "depth": 0,
                                "name": "Executed Gas",
                                "value": 28701
                            }
                        ],
                        "depth": -1,
                        "name": "Actual Gas Used",
                        "value": 51637
                    },
                    {
                        "children": [],
                        "depth": -1,
                        "name": "Refunded Gas",
                        "value": 0
                    }
                ],
                "depth": -2,
                "name": "Total Gas",
                "value": 51637
            }
        ],
        "isConfirmed": true,
        "mainTrace": [
            {
                "children": [
                    {
                        "children": [
                            {
                                "children": [],
                                "depth": 1,
                                "id": 1,
                                "order": 1
                            }
                        ],
                        "depth": 0,
                        "id": 0,
                        "order": 0
                    }
                ],
                "depth": -1,
                "id": -1,
                "order": -1
            }
        ],
        "mainTraceNodeCount": 2,
        "parentIdMap": {
            "0": -1,
            "1": 0
        },
        "tidyTrace": [
            {
                "children": [
                    {
                        "children": [
                            {
                                "children": [],
                                "depth": 1,
                                "id": 1,
                                "order": 1
                            }
                        ],
                        "depth": 0,
                        "id": 0,
                        "order": 0
                    }
                ],
                "depth": -1,
                "id": -1,
                "order": -1
            }
        ],
        "tidyTraceNodeCount": 2
    },
    "state_change": {
        "stateChanges": [
            {
                "address": "0xd1fce0e6272c1129194dd6eaf9b1451e5b49c9da",
                "erc": "ERC-20",
                "slots": [
                    {
                        "current": "0x0000000000000000000000000000000000000000000000000000000016c10af0",
                        "key": "0xd3c4ce286781d4d5d3a6ac720f26eb4f144264a7c0842e9e18314f1bbf178e69",
                        "prev": "0x0000000000000000000000000000000000000000000000000000000016c1ce40"
                    },
                    {
                        "current": "0x000000000000000000000000000000000000000000000000000000000000c350",
                        "key": "0x78f8b086583114ed34f44521e2cd6ee826b1d87ae308b847b69f4cf3f2c8d59d",
                        "prev": "0x0000000000000000000000000000000000000000000000000000000000000000"
                    }
                ],
                "storageVariables": [
                    {
                        "name": "balances",
                        "type": "mapping(address => uint256)",
                        "value": {
                            "pairs": [
                                {
                                    "key": "0x472a957a3e8da27e36fd02f799c58136eb177723",
                                    "value": {
                                        "current": "50000",
                                        "prev": "0",
                                        "typeTag": 1
                                    }
                                },
                                {
                                    "key": "0xd344d4d335cd24ebb68596cbe55461efacf999cc",
                                    "value": {
                                        "current": "381750000",
                                        "prev": "381800000",
                                        "typeTag": 1
                                    }
                                }
                            ],
                            "typeTag": 4
                        }
                    }
                ]
            }
        ]
    }
}