{
    "balance_change": {
        "balanceChanges": [
            {
                "account": "0x16623e313156eaa50134236553a9969b073ddc4e",
                "assets": [
                    {
                        "address": "0xb8c77482e45f1f44de1745f52c74426c631bdd52",
                        "amount": "42",
                        "iconUrl": "https://assets.blocksec.com/icon/83472e8a72b0d18c5a7dce7cfd6061e36458364fe4dbdde86ffdbe6a7302a8cd.png",
                        "isERC1155": false,
                        "isERC721": false,
                        "sign": false,
                        "value": ""
                    }
                ]
            },
            {
                "account": "0x7e6d824a8af6e43da3c8ae48430274d717bfc316",
                "assets": [
                    {
                        "address": "0xb8c77482e45f1f44de1745f52c74426c631bdd52",
                        "amount": "42",
                        "iconUrl": "https://assets.blocksec.com/icon/83472e8a72b0d18c5a7dce7cfd6061e36458364fe4dbdde86ffdbe6a7302a8cd.png",
                        "isERC1155": false,
                        "isERC721": false,
                        "sign": true,
                        "value": ""
                    }
                ]
            }
        ]
    },
    "profile": {
        "basic_info": {
            "baseFee": "",
            "blockNumber": 5874335,
            "callData": "0xa9059cbb0000000000000000000000007e6d824a8af6e43da3c8ae48430274d717bfc31600000000000000000000000000000000000000000000000246ddf97976680000",
            "debugEnable": true,
            "errorInfo": "",
            "eventCount": 1,
            "feeRecipient": "0x52bc44d5378309ee2abf1539bf71de1b7d7be3b5",
            "formatValue": "0",
            "gasLimit": 63093,
            "gasPrice": "9",
            "gasUsed": 37578,
            "intTxnCount": 0,
            "internalRevert": false,
            "internalRevertMessage": "",
            "isContractCreation": false,
            "isFlashloan": false,
            "maxFee": "",
            "nonce": 14,
            "overwritedBlockNumber": -1,
            "priorityFee": "",
            "receiver": "0xb8c77482e45f1f44de1745f52c74426c631bdd52",
            "revertMessage": "",
            "sender": "0x16623e313156eaa50134236553a9969b073ddc4e",
            "simulationEnable": true,
            "sourceTxnHash": "0xee0712074b4004581ce209d26d1350e930e35ec8ea1acf5dfb4a9b076e452452",
            "status": true,
            "timestamp": "2018-06-29T10:28:03Z",
            "transactionFee": "0.000338202",
            "txnHash": "0xee0712074b4004581ce209d26d1350e930e35ec8ea1acf5dfb4a9b076e452452",
            "txnIndex": 73,
            "type": 0,
            "value": "0"
        },
        "fund_flow": [
            {
                "amount": "42",
                "from": "0x16623e313156eaa50134236553a9969b073ddc4e",
                "id": 1,
                "isERC1155": false,
                "isERC721": false,
                "isReverted": false,
                "order": 1,
                "to": "0x7e6d824a8af6e43da3c8ae48430274d717bfc316",
                "token": "0xb8c77482e45f1f44de1745f52c74426c631bdd52"
            }
        ],
        "token_infos": [
            {
                "address": "0xb8c77482e45f1f44de1745f52c74426c631bdd52",
                "decimals": 18
            },
            {
                "address": "0xc02aaa39b223fe8d0a0e5c4f27ead9083c756cc2",
                "decimals": 18
            },
            {
                "address": "0xeeeeeeeeeeeeeeeeeeeeeeeeeeeeeeeeeeeeeeee",
                "decimals": 18
            }
        ]
    },
    "address_label": {
        "labels": [
            {
                "address": "0xeeeeeeeeeeeeeeeeeeeeeeeeeeeeeeeeeeeeeeee",
                "label": "Ether"
            },
            {
                "address": "0xb8c77482e45f1f44de1745f52c74426c631bdd52",
                "label": "Binance: BNB Token"
            },
            {
                "address": "0x7e6d824a8af6e43da3c8ae48430274d717bfc316",
                "label": "BINANCE"
            },
            {
                "address": "0x0000000000000000000000000000000000000001",
                "label": "Precompiled"
            },
            {
                "address": "0x0000000000000000000000000000000000000002",
                "label": "Precompiled"
            },
            {
                "address": "0x0000000000000000000000000000000000000003",
                "label": "Precompiled"
            },
            {
                "address": "0x0000000000000000000000000000000000000004",
                "label": "Precompiled"
            }
        ]
    },
    "trace": {
        "accountLabels": null,
        "dataMap": {
            "-1": {
                "invocation": {
                    "address": "0x16623e313156eaa50134236553a9969b073ddc4e",
                    "callData": "",
                    "decodedMethod": null,
                    "errorInfo": "",
                    "fromAddress": "",
                    "gasUsed": 0,
                    "id": -1,
                    "methodDecoded": false,
                    "operation": "",
                    "output": "",
                    "revert": false,
                    "revertMessage": "",
                    "selector": "",
                    "status": false,
                    "value": ""
                },
                "nodeType": 0
            },
            "0": {
                "invocation": {
                    "address": "0xb8c77482e45f1f44de1745f52c74426c631bdd52",
                    "callData": "0x0000000000000000000000007e6d824a8af6e43da3c8ae48430274d717bfc31600000000000000000000000000000000000000000000000246ddf97976680000",
                    "decodedMethod": {
                        "callParams": [
                            {
                                "name": "_to",
                                "type": "address",
                                "value": "0x7e6d824a8af6e43da3c8ae48430274d717bfc316"
                            },
                            {
                                "decimalAvailable": true,
                                "name": "_value",
                                "type": "uint256",
                                "value": "42,000,000,000,000,000,000"
                            }
                        ],
                        "constructorArguments": "",
                        "name": "transfer",
                        "returnParams": [],
                        "signature": "transfer(address,uint256)"
                    },
                    "errorInfo": "",
                    "fromAddress": "0x16623e313156eaa50134236553a9969b073ddc4e",
                    "gasUsed": 37578,
                    "id": 0,
                    "methodDecoded": true,
                    "operation": "CALL",
                    "output": "",
                    "revert": false,
                    "revertMessage": "",
                    "selector": "0xa9059cbb",
                    "status": true,
                    "value": "0"
                },
                "nodeType": 0
            },
            "1": {
                "event": {
                    "contract": "0xb8c77482e45f1f44de1745f52c74426c631bdd52",
                    "decodedLog": {
                        "name": "Transfer",
                        "params": [
                            {
                                "name": "from",
                                "type": "address",
                                "value": "0x16623e313156eaa50134236553a9969b073ddc4e"
                            },
                            {
                                "name": "to",
                                "type": "address",
                                "value": "0x7e6d824a8af6e43da3c8ae48430274d717bfc316"
                            },
                            {
                                "decimalAvailable": true,
                                "name": "value",
                                "type": "uint256",
                                "value": "42,000,000,000,000,000,000"
                            }
                        ],
                        "signature": "Transfer(address,address,uint256)"
                    },
                    "id": 1,
                    "logData": "0x00000000000000000000000000000000000000000000000246ddf97976680000",
                    "logDecoded": true,
                    "operation": "EVENT",
                    "revert": false,
                    "status": true,
                    "topics": [
                        "0xddf252ad1be2c89b69c2b068fc378daa952ba7f163c4a11628f55a4df523b3ef",
                        "0x00000000000000000000000016623e313156eaa50134236553a9969b073ddc4e",
                        "0x0000000000000000000000007e6d824a8af6e43da3c8ae48430274d717bfc316"
                    ]
                },
                "nodeType": 1
            }
        },
        "gasFlame": [
            {
                "children": [
                    {
                        "children": [
                            {
                                "children": [],
                                "depth": 0,
                                "name": "Initial Gas",
                                "value": 23256
                            },
                            {
                                "children": [],
                                "depth": 0,
                                "name": "Executed Gas",
                                "value": 29322
                            }
                        ],
                        "depth": -1,
                        "name": "Actual Gas Used",
                        "value": 37578
                    },
                    {
                        "children": [],
                        "depth": -1,
                        "name": "Refunded Gas",
                        "value": 15000
                    }
                ],
                "depth": -2,
                "name": "Total Gas",
                "value": 52578
            }
        ],
        "isConfirmed": true,
        "mainTrace": [
            {
                "children": [
                    {
                        "children": [
                            {
                                "children": [],
                                "depth": 1,
                                "id": 1,
                                "order": 1
                            }
                        ],
                        "depth": 0,
                        "id": 0,
                        "order": 0
                    }
                ],
                "depth": -1,
                "id": -1,
                "order": -1
            }
        ],
        "mainTraceNodeCount": 2,
        "parentIdMap": {
            "0": -1,
            "1": 0
        },
        "tidyTrace": [
            {
                "children": [
                    {
                        "children": [
                            {
                                "children": [],
                                "depth": 1,
                                "id": 1,
                                "order": 1
                            }
                        ],
                        "depth": 0,
                        "id": 0,
                        "order": 0
                    }
                ],
                "depth": -1,
                "id": -1,
                "order": -1
            }
        ],
        "tidyTraceNodeCount": 2
    },
    "state_change": {
        "stateChanges": [
            {
                "address": "0xb8c77482e45f1f44de1745f52c74426c631bdd52",
                "erc": "",
                "slots": [
                    {
                        "current": "0x0000000000000000000000000000000000000000000000000000000000000000",
                        "key": "0x652a114ab0b3189c2f64046d58fb09c11249ba18cd22b8a1ec20ee9fd5297228",
                        "prev": "0x00000000000000000000000000000000000000000000000246ddf97976680000"
                    },
                    {
                        "current": "0x00000000000000000000000000000000000000000000000246ddf97976680000",
                        "key": "0xbede8938cda2bff88eda61623137ae4bc8ed7918258387961da2c9966a69173a",
                        "prev": "0x0000000000000000000000000000000000000000000000000000000000000000"
                    }
                ],
                "storageVariables": [
                    {
                        "name": "balanceOf",
                        "type": "mapping(address => uint256)",
                        "value": {
                            "pairs": [
                                {
                                    "key": "0x16623e313156eaa50134236553a9969b073ddc4e",
                                    "value": {
                                        "current": "0",
                                        "prev": "42000000000000000000",
                                        "typeTag": 1
                                    }
                                },
                                {
                                    "key": "0x7e6d824a8af6e43da3c8ae48430274d717bfc316",
                                    "value": {
                                        "current": "42000000000000000000",
                                        "prev": "0",
                                        "typeTag": 1
                                    }
                                }
                            ],
                            "typeTag": 4
                        }
                    }
                ]
            }
        ]
    }
}