{
    "balance_change": {
        "balanceChanges": []
    },
    "profile": {
        "basic_info": {
            "baseFee": "29.615451385",
            "blockNumber": 18649871,
            "callData": "0xfd9f1e100000000000000000000000000000000000000000000000000000000000000020000000000000000000000000000000000000000000000000000000000000000100000000000000000000000000000000000000000000000000000000000000200000000000000000000000004f60c938e99dbaed50abd071d8d9b304a52cc0370000000000000000000000002de95b9afd737b0814e5e6013593a9437c5532d500000000000000000000000000000000000000000000000000000000000001600000000000000000000000000000000000000000000000000000000000000220000000000000000000000000000000000000000000000000000000000000000200000000000000000000000000000000000000000000000000000000656078b7000000000000000000000000000000000000000000000000000000006569b2ff00000000000000000000000000000000000000000000000000000000000000000000000000000000000000000000000000000000000000008c0b6ccc1e50df380000007b02230091a7ed01230072f7006a004d60a8d4e71d599b8104250f0000000000000000000000000000000000000000000000000000000000000000000000000000000000000000000000000000000000000000000000000000000000010000000000000000000000000000000000000000000000000000000000000002000000000000000000000000ebb8cb5d88cc02f781fc23e40a558f177109226c00000000000000000000000000000000000000000000000000000000000001ba0000000000000000000000000000000000000000000000000000000000000001000000000000000000000000000000000000000000000000000000000000000100000000000000000000000000000000000000000000000000000000000000010000000000000000000000000000000000000000000000000000000000000000000000000000000000000000000000000000000000000000000000000000000000000000000000000000000000000000000000000000000000000000000000000000000000000000000000000000000000000000000000000585fae42c9b00000000000000000000000000000000000000000000000000000585fae42c9b00000000000000000000000000004f60c938e99dbaed50abd071d8d9b304a52cc037",
            "debugEnable": true,
            "errorInfo": "",
            "eventCount": 1,
            "feeRecipient": "0x88c6c46ebf353a52bdbab708c23d0c81daa8134a",
            "formatValue": "0",
            "gasLimit": 66443,
            "gasPrice": "30.115451385",
            "gasUsed": 55369,
            "intTxnCount": 0,
            "internalRevert": false,
            "internalRevertMessage": "",
            "isContractCreation": false,
            "isFlashloan": false,
            "maxFee": "33.264",
            "nonce": 14,
            "overwritedBlockNumber": -1,
            "priorityFee": "0.5",
            "receiver": "0x00000000000000adc04c56bf30ac9d3c0aaf14dc",
            "revertMessage": "",
            "sender": "0x4f60c938e99dbaed50abd071d8d9b304a52cc037",
            "simulationEnable": true,
            "sourceTxnHash": "0xeef3b610f46c47fed56448e8784940861face527ff29a42ad3cf7dc82bb0ecae",
            "status": true,
            "timestamp": "2023-11-25T16:22:35Z",
            "transactionFee": "0.001667462427736065",
            "txnHash": "0xeef3b610f46c47fed56448e8784940861face527ff29a42ad3cf7dc82bb0ecae",
            "txnIndex": 37,
            "type": 2,
            "value": "0"
        },
        "fund_flow": [],
        "token_infos": [
            {
                "address": "0xc02aaa39b223fe8d0a0e5c4f27ead9083c756cc2",
                "decimals": 18
            },
            {
                "address": "0xeeeeeeeeeeeeeeeeeeeeeeeeeeeeeeeeeeeeeeee",
                "decimals": 18
            }
        ]
    },
    "address_label": {
        "labels": [
            {
                "address": "0x0000000000000000000000000000000000000001",
                "label": "Precompiled"
            },
            {
                "address": "0x0000000000000000000000000000000000000002",
                "label": "Precompiled"
            },
            {
                "address": "0x0000000000000000000000000000000000000003",
                "label": "Precompiled"
            },
            {
                "address": "0x0000000000000000000000000000000000000004",
                "label": "Precompiled"
            },
            {
                "address": "0xeeeeeeeeeeeeeeeeeeeeeeeeeeeeeeeeeeeeeeee",
                "label": "Ether"
            },
            {
                "address": "0xebb8cb5d88cc02f781fc23e40a558f177109226c",
                "label": "Metacene Apostle NFT: MAN Token"
            },
            {
                "address": "0x00000000000000adc04c56bf30ac9d3c0aaf14dc",
                "label": "Seaport 1.5"
            },
            {
                "address": "0x0000000000000000000000000000000000000000",
                "label": "Null Address"
            }
        ]
    },
    "trace": {
        "accountLabels": null,
        "dataMap": {
            "-1": {
                "invocation": {
                    "address": "0x4f60c938e99dbaed50abd071d8d9b304a52cc037",
                    "callData": "",
                    "decodedMethod": null,
                    "errorInfo": "",
                    "fromAddress": "",
                    "gasUsed": 0,
                    "id": -1,
                    "methodDecoded": false,
                    "operation": "",
                    "output": "",
                    "revert": false,
                    "revertMessage": "",
                    "selector": "",
                    "status": false,
                    "value": ""
                },
                "nodeType": 0
            },
            "0": {
                "invocation": {
                    "address": "0x00000000000000adc04c56bf30ac9d3c0aaf14dc",
                    "callData": "0x0000000000000000000000000000000000000000000000000000000000000020000000000000000000000000000000000000000000000000000000000000000100000000000000000000000000000000000000000000000000000000000000200000000000000000000000004f60c938e99dbaed50abd071d8d9b304a52cc0370000000000000000000000002de95b9afd737b0814e5e6013593a9437c5532d500000000000000000000000000000000000000000000000000000000000001600000000000000000000000000000000000000000000000000000000000000220000000000000000000000000000000000000000000000000000000000000000200000000000000000000000000000000000000000000000000000000656078b7000000000000000000000000000000000000000000000000000000006569b2ff00000000000000000000000000000000000000000000000000000000000000000000000000000000000000000000000000000000000000008c0b6ccc1e50df380000007b02230091a7ed01230072f7006a004d60a8d4e71d599b8104250f0000000000000000000000000000000000000000000000000000000000000000000000000000000000000000000000000000000000000000000000000000000000010000000000000000000000000000000000000000000000000000000000000002000000000000000000000000ebb8cb5d88cc02f781fc23e40a558f177109226c00000000000000000000000000000000000000000000000000000000000001ba0000000000000000000000000000000000000000000000000000000000000001000000000000000000000000000000000000000000000000000000000000000100000000000000000000000000000000000000000000000000000000000000010000000000000000000000000000000000000000000000000000000000000000000000000000000000000000000000000000000000000000000000000000000000000000000000000000000000000000000000000000000000000000000000000000000000000000000000000000000000000000000000000585fae42c9b00000000000000000000000000000000000000000000000000000585fae42c9b00000000000000000000000000004f60c938e99dbaed50abd071d8d9b304a52cc037",
                    "decodedMethod": {
                        "callParams": [
                            {
                                "name": "orders",
                                "type": "(address,address,(uint8,address,uint256,uint256,uint256)[],(uint8,address,uint256,uint256,uint256,address)[],uint8,uint256,uint256,bytes32,uint256,bytes32,uint256)[]",
                                "value": [
                                    [
                                        {
                                            "name": "offerer",
                                            "type": "address",
                                            "value": "0x4f60c938e99dbaed50abd071d8d9b304a52cc037"
                                        },
                                        {
                                            "name": "zone",
                                            "type": "address",
                                            "value": "0x2de95b9afd737b0814e5e6013593a9437c5532d5"
                                        },
                                        {
                                            "name": "offer",
                                            "type": "(uint8,address,uint256,uint256,uint256)[]",
                                            "value": [
                                                [
                                                    {
                                                        "name": "itemType",
                                                        "type": "uint8",
                                                        "value": "2"
                                                    },
                                                    {
                                                        "name": "token",
                                                        "type": "address",
                                                        "value": "0xebb8cb5d88cc02f781fc23e40a558f177109226c"
                                                    },
                                                    {
                                                        "name": "identifierOrCriteria",
                                                        "type": "uint256",
                                                        "value": "442"
                                                    },
                                                    {
                                                        "name": "startAmount",
                                                        "type": "uint256",
                                                        "value": "1"
                                                    },
                                                    {
                                                        "name": "endAmount",
                                                        "type": "uint256",
                                                        "value": "1"
                                                    }
                                                ]
                                            ]
                                        },
                                        {
                                            "name": "consideration",
                                            "type": "(uint8,address,uint256,uint256,uint256,address)[]",
                                            "value": [
                                                [
                                                    {
                                                        "name": "itemType",
                                                        "type": "uint8",
                                                        "value": "0"
                                                    },
                                                    {
                                                        "name": "token",
                                                        "type": "address",
                                                        "value": "0x0000000000000000000000000000000000000000"
                                                    },
                                                    {
                                                        "name": "identifierOrCriteria",
                                                        "type": "uint256",
                                                        "value": "0"
                                                    },
                                                    {
                                                        "name": "startAmount",
                                                        "type": "uint256",
                                                        "value": "398,000,000,000,000,000"
                                                    },
                                                    {
                                                        "name": "endAmount",
                                                        "type": "uint256",
                                                        "value": "398,000,000,000,000,000"
                                                    },
                                                    {
                                                        "name": "recipient",
                                                        "type": "address",
                                                        "value": "0x4f60c938e99dbaed50abd071d8d9b304a52cc037"
                                                    }
                                                ]
                                            ]
                                        },
                                        {
                                            "name": "orderType",
                                            "type": "uint8",
                                            "value": "2"
                                        },
                                        {
                                            "name": "startTime",
                                            "type": "uint256",
                                            "value": "1,700,821,175"
                                        },
                                        {
                                            "name": "endTime",
                                            "type": "uint256",
                                            "value": "1,701,425,919"
                                        },
                                        {
                                            "name": "zoneHash",
                                            "type": "bytes32",
                                            "value": "0x0000000000000000000000000000000000000000000000000000000000000000"
                                        },
                                        {
                                            "name": "salt",
                                            "type": "uint256",
                                            "value": "10,091,279,013,991,472,952"
                                        },
                                        {
                                            "name": "conduitKey",
                                            "type": "bytes32",
                                            "value": "0x0000007b02230091a7ed01230072f7006a004d60a8d4e71d599b8104250f0000"
                                        },
                                        {
                                            "name": "counter",
                                            "type": "uint256",
                                            "value": "0"
                                        }
                                    ]
                                ]
                            }
                        ],
                        "constructorArguments": "",
                        "name": "cancel",
                        "returnParams": [
                            {
                                "name": "cancelled",
                                "type": "bool",
                                "value": true
                            }
                        ],
                        "signature": "cancel((address,address,(uint8,address,uint256,uint256,uint256)[],(uint8,address,uint256,uint256,uint256,address)[],uint8,uint256,uint256,bytes32,uint256,bytes32,uint256)[])"
                    },
                    "errorInfo": "",
                    "fromAddress": "0x4f60c938e99dbaed50abd071d8d9b304a52cc037",
                    "gasUsed": 55369,
                    "id": 0,
                    "methodDecoded": true,
                    "operation": "CALL",
                    "output": "0x0000000000000000000000000000000000000000000000000000000000000001",
                    "revert": false,
                    "revertMessage": "",
                    "selector": "0xfd9f1e10",
                    "status": true,
                    "value": "0"
                },
                "nodeType": 0
            },
            "1": {
                "event": {
                    "contract": "0x00000000000000adc04c56bf30ac9d3c0aaf14dc",
                    "decodedLog": {
                        "name": "OrderCancelled",
                        "params": [
                            {
                                "name": "offerer",
                                "type": "address",
                                "value": "0x4f60c938e99dbaed50abd071d8d9b304a52cc037"
                            },
                            {
                                "name": "zone",
                                "type": "address",
                                "value": "0x2de95b9afd737b0814e5e6013593a9437c5532d5"
                            },
                            {
                                "name": "orderHash",
                                "type": "bytes32",
                                "value": "0x8535185a970974ca6c7b00073eb01f9e385221066ba7e082450bc0fd3b151462"
                            }
                        ],
                        "signature": "OrderCancelled(bytes32,address,address)"
                    },
                    "id": 1,
                    "logData": "0x8535185a970974ca6c7b00073eb01f9e385221066ba7e082450bc0fd3b151462",
                    "logDecoded": true,
                    "operation": "EVENT",
                    "revert": false,
                    "status": true,
                    "topics": [
                        "0x6bacc01dbe442496068f7d234edd811f1a5f833243e0aec824f86ab861f3c90d",
                        "0x0000000000000000000000004f60c938e99dbaed50abd071d8d9b304a52cc037",
                        "0x0000000000000000000000002de95b9afd737b0814e5e6013593a9437c5532d5"
                    ]
                },
                "nodeType": 1
            }
        },
        "gasFlame": [
            {
                "children": [
                    {
                        "children": [
                            {
                                "children": [],
                                "depth": 0,
                                "name": "Initial Gas",
                                "value": 26272
                            },
                            {
                                "children": [],
                                "depth": 0,
                                "name": "Executed Gas",
                                "value": 29097
                            }
                        ],
                        "depth": -1,
                        "name": "Actual Gas Used",
                        "value": 55369
                    },
                    {
                        "children": [],
                        "depth": -1,
                        "name": "Refunded Gas",
                        "value": 0
                    }
                ],
                "depth": -2,
                "name": "Total Gas",
                "value": 55369
            }
        ],
        "isConfirmed": true,
        "mainTrace": [
            {
                "children": [
                    {
                        "children": [
                            {
                                "children": [],
                                "depth": 1,
                                "id": 1,
                                "order": 1
                            }
                        ],
                        "depth": 0,
                        "id": 0,
                        "order": 0
                    }
                ],
                "depth": -1,
                "id": -1,
                "order": -1
            }
        ],
        "mainTraceNodeCount": 2,
        "parentIdMap": {
            "0": -1,
            "1": 0
        },
        "tidyTrace": [
            {
                "children": [
                    {
                        "children": [
                            {
                                "children": [],
                                "depth": 1,
                                "id": 1,
                                "order": 1
                            }
                        ],
                        "depth": 0,
                        "id": 0,
                        "order": 0
                    }
                ],
                "depth": -1,
                "id": -1,
                "order": -1
            }
        ],
        "tidyTraceNodeCount": 2
    },
    "state_change": {
        "stateChanges": [
            {
                "address": "0x00000000000000adc04c56bf30ac9d3c0aaf14dc",
                "erc": "",
                "slots": [
                    {
                        "current": "0x0000000000000000000000000000000000000000000000000000000000000100",
                        "key": "0x205b8c8a4a6c9f850fdaf9c3d047ae742432e13053cafae9faeccff7215eea02",
                        "prev": "0x0000000000000000000000000000000000000000000000000000000000000000"
                    }
                ],
                "storageVariables": [
                    {
                        "name": "_orderStatus",
                        "type": "mapping(bytes32 => struct OrderStatus)",
                        "value": {
                            "pairs": [
                                {
                                    "key": "0x8535185a970974ca6c7b00073eb01f9e385221066ba7e082450bc0fd3b151462",
                                    "value": {
                                        "fields": [
                                            {
                                                "name": "isValidated",
                                                "type": "bool",
                                                "value": {
                                                    "current": "false",
                                                    "prev": "false",
                                                    "typeTag": 1
                                                }
                                            },
                                            {
                                                "name": "isCancelled",
                                                "type": "bool",
                                                "value": {
                                                    "current": "true",
                                                    "prev": "false",
                                                    "typeTag": 1
                                                }
                                            },
                                            {
                                                "name": "numerator",
                                                "type": "uint120",
                                                "value": {
                                                    "current": "0",
                                                    "prev": "0",
                                                    "typeTag": 1
                                                }
                                            },
                                            {
                                                "name": "denominator",
                                                "type": "uint120",
                                                "value": {
                                                    "current": "0",
                                                    "prev": "0",
                                                    "typeTag": 1
                                                }
                                            }
                                        ],
                                        "typeTag": 3
                                    }
                                }
                            ],
                            "typeTag": 4
                        }
                    }
                ]
            }
        ]
    }
}