{
    "balance_change": {
        "balanceChanges": [
            {
                "account": "0x250e76987d838a75310c34bf422ea9f1ac4cc906",
                "assets": [
                    {
                        "address": "0xdac17f958d2ee523a2206206994597c13d831ec7",
                        "amount": "2,979.481248",
                        "iconUrl": "https://assets.blocksec.com/icon/fcea71f3193ce895be44bfdf941f7e4c9381dd587f273c2d1a27f1263d84e4ea.png",
                        "isERC1155": false,
                        "isERC721": false,
                        "sign": false,
                        "value": "2987.010397113695839"
                    }
                ]
            },
            {
                "account": "0xe142f2ec7bd92c4b42558ef7c80e185c086a8010",
                "assets": [
                    {
                        "address": "0xdac17f958d2ee523a2206206994597c13d831ec7",
                        "amount": "2,979.481248",
                        "iconUrl": "https://assets.blocksec.com/icon/fcea71f3193ce895be44bfdf941f7e4c9381dd587f273c2d1a27f1263d84e4ea.png",
                        "isERC1155": false,
                        "isERC721": false,
                        "sign": true,
                        "value": "2987.010397113695839"
                    }
                ]
            }
        ]
    },
    "profile": {
        "basic_info": {
            "baseFee": "",
            "blockNumber": 12874921,
            "callData": "0xd450e04c00000000000000000000000000000000000000000000000000000000000000a000000000000000000000000000000000000000000000000000000000000002000000000000000000000000000000000000000000000000000000000000000400000000000000000000000000000000000000000000000000000000000000042000000000000000000000000000000000000000000000000000000000000004400000000000000000000000000000000000000000000000000000000000000132ef206ee4e025ae1faa3ee92a596976e175ce92c236ec9b33a306b88fa4deffa8eb8d0a0000000000000020000000000000000000000000000000000000000000000000000000000001a5782080c19cf99020bc01689422886f2915b2108a3485815de8819347c4e209a4a3041434d4a23a1fc0c694f0d74ddaf9d8d564cfe2d430020000000000000014250e76987d838a75310c34bf422ea9f1ac4cc90606756e6c6f636b4a14dac17f958d2ee523a2206206994597c13d831ec714e142f2ec7bd92c4b42558ef7c80e185c086a8010a04697b10000000000000000000000000000000000000000000000000000000001ccd53ca74422242a0ae867e08938259fdf1c3c410c8aceea3cc7e66f05fdca08018e8b389c8371c94008c4f9261166864b85822f6c4d9b8a4cf931f660bd695286000000000000000000000000000000000000000000000000000000000000000000000000000000000000000001c60000000000000000000000003a992d31e87f269b56db9d858e845eb2296cb5ce147ad851f4acc58fff935ed5000000000000000000000000000000000000000000000000000000000000000067c183f859d09a8269d080ede652dbd7af1079b46656886a369a33d56c184d582bd216682b12322a68b4853a1f7dba3180c820a8fca275e8e7e6be77542936aaac22f96057ed9d00c66f673dc43ce9bcfd13017b226c6561646572223a312c227672665f76616c7565223a224242486b6b32352b305075356941363138586668444579776d6748783356492b6e6e4c354a31594e716f554641506f6e345765445057556f635164646a527437414f6b664e304f747a6454494a5a3951476f56623279453d222c227672665f70726f6f66223a2264547172496a715744616c2b50524e744c4b4468376e30703254766e38417a6d6e7a373571774b3171383544574478677139474271747236724c666f7255655043705a336749526961336e354361525166414a5648413d3d222c226c6173745f636f6e6669675f626c6f636b5f6e756d223a31303332303030302c226e65775f636861696e5f636f6e666967223a6e756c6c7d000000000000000000000000000000000000000000000000000000000000000000000000000000000000000000000000000000000000000000000000000000000000000000000000000000000000000000000000000000000000000000000000000000000000000000000000000000000000000000000000000000000000000000000000000000000000000000c32015e7ff900be36aa224c0cef7ab4f03c696a3f9df370d24eea9f7c2c76d73f73e99766390f8bb4b9da066076d99c10926f123b2d24dbd4a91cda4c2a08bf3a50044014929ae9e38ed09e17ed963d401280e11095b33c7b8b7bf29857ad14b1a8b7c6677b935ce86bd5f4e68fe124d27f1f663c06edf8b93f2a2bd295e00e2fca7019468879d32df186a2cb259e8c60030203ad3b2a1010a6a22c21762c404b0b71208dd3e8b16465745c2966850fb35126e2a940153b8bc72272e8ba7e4d4773f6e010000000000000000000000000000000000000000000000000000000000",
            "debugEnable": true,
            "errorInfo": "",
            "eventCount": 3,
            "feeRecipient": "0x04668ec2f57cc15c381b461b9fedab5d451c8f7f",
            "formatValue": "0",
            "gasLimit": 190397,
            "gasPrice": "17.000001459",
            "gasUsed": 190397,
            "intTxnCount": 18,
            "internalRevert": false,
            "internalRevertMessage": "",
            "isContractCreation": false,
            "isFlashloan": false,
            "maxFee": "",
            "nonce": 4295,
            "overwritedBlockNumber": -1,
            "priorityFee": "",
            "receiver": "0x838bf9e95cb12dd76a54c9f9d2e3082eaf928270",
            "revertMessage": "",
            "sender": "0x8c5e8eb7eb33d61d1e3c6e21fbc2fca6bd2f2d86",
            "simulationEnable": true,
            "sourceTxnHash": "0xee5cee577f4900b2ce238b67fe6b251e67e855b2d9d1c394d35b2ac4c3506a1e",
            "status": true,
            "timestamp": "2021-07-22T07:48:04Z",
            "transactionFee": "0.003236749277789223",
            "txnHash": "0xee5cee577f4900b2ce238b67fe6b251e67e855b2d9d1c394d35b2ac4c3506a1e",
            "txnIndex": 150,
            "type": 0,
            "value": "0"
        },
        "fund_flow": [
            {
                "amount": "2,979.481248",
                "from": "0x250e76987d838a75310c34bf422ea9f1ac4cc906",
                "id": 1,
                "isERC1155": false,
                "isERC721": false,
                "isReverted": false,
                "order": 1,
                "to": "0xe142f2ec7bd92c4b42558ef7c80e185c086a8010",
                "token": "0xdac17f958d2ee523a2206206994597c13d831ec7"
            }
        ],
        "token_infos": [
            {
                "address": "0xeeeeeeeeeeeeeeeeeeeeeeeeeeeeeeeeeeeeeeee",
                "decimals": 18
            },
            {
                "address": "0xc02aaa39b223fe8d0a0e5c4f27ead9083c756cc2",
                "decimals": 18
            },
            {
                "address": "0xdac17f958d2ee523a2206206994597c13d831ec7",
                "decimals": 6
            }
        ]
    },
    "address_label": {
        "labels": [
            {
                "address": "0xeeeeeeeeeeeeeeeeeeeeeeeeeeeeeeeeeeeeeeee",
                "label": "Ether"
            },
            {
                "address": "0x250e76987d838a75310c34bf422ea9f1ac4cc906",
                "label": "polynetWork: LockProxy"
            },
            {
                "address": "0x0000000000000000000000000000000000000003",
                "label": "Precompiled"
            },
            {
                "address": "0x0000000000000000000000000000000000000004",
                "label": "Precompiled"
            },
            {
                "address": "0xcf2afe102057ba5c16f899271045a0a37fcb10f2",
                "label": "EthCrossChainData"
            },
            {
                "address": "0x5a51e2ebf8d136926b9ca7b59b60464e7c44d2eb",
                "label": "EthCrossChainManagerProxy"
            },
            {
                "address": "0x0000000000000000000000000000000000000002",
                "label": "Precompiled"
            },
            {
                "address": "0xdac17f958d2ee523a2206206994597c13d831ec7",
                "label": "Tether: USDT Stablecoin"
            },
            {
                "address": "0x0000000000000000000000000000000000000001",
                "label": "Precompiled"
            }
        ]
    },
    "trace": {
        "accountLabels": null,
        "dataMap": {
            "-1": {
                "invocation": {
                    "address": "0x8c5e8eb7eb33d61d1e3c6e21fbc2fca6bd2f2d86",
                    "callData": "",
                    "decodedMethod": null,
                    "errorInfo": "",
                    "fromAddress": "",
                    "gasUsed": 0,
                    "id": -1,
                    "methodDecoded": false,
                    "operation": "",
                    "output": "",
                    "revert": false,
                    "revertMessage": "",
                    "selector": "",
                    "status": false,
                    "value": ""
                },
                "nodeType": 0
            },
            "0": {
                "invocation": {
                    "address": "0x838bf9e95cb12dd76a54c9f9d2e3082eaf928270",
                    "callData": "0x00000000000000000000000000000000000000000000000000000000000000a000000000000000000000000000000000000000000000000000000000000002000000000000000000000000000000000000000000000000000000000000000400000000000000000000000000000000000000000000000000000000000000042000000000000000000000000000000000000000000000000000000000000004400000000000000000000000000000000000000000000000000000000000000132ef206ee4e025ae1faa3ee92a596976e175ce92c236ec9b33a306b88fa4deffa8eb8d0a0000000000000020000000000000000000000000000000000000000000000000000000000001a5782080c19cf99020bc01689422886f2915b2108a3485815de8819347c4e209a4a3041434d4a23a1fc0c694f0d74ddaf9d8d564cfe2d430020000000000000014250e76987d838a75310c34bf422ea9f1ac4cc90606756e6c6f636b4a14dac17f958d2ee523a2206206994597c13d831ec714e142f2ec7bd92c4b42558ef7c80e185c086a8010a04697b10000000000000000000000000000000000000000000000000000000001ccd53ca74422242a0ae867e08938259fdf1c3c410c8aceea3cc7e66f05fdca08018e8b389c8371c94008c4f9261166864b85822f6c4d9b8a4cf931f660bd695286000000000000000000000000000000000000000000000000000000000000000000000000000000000000000001c60000000000000000000000003a992d31e87f269b56db9d858e845eb2296cb5ce147ad851f4acc58fff935ed5000000000000000000000000000000000000000000000000000000000000000067c183f859d09a8269d080ede652dbd7af1079b46656886a369a33d56c184d582bd216682b12322a68b4853a1f7dba3180c820a8fca275e8e7e6be77542936aaac22f96057ed9d00c66f673dc43ce9bcfd13017b226c6561646572223a312c227672665f76616c7565223a224242486b6b32352b305075356941363138586668444579776d6748783356492b6e6e4c354a31594e716f554641506f6e345765445057556f635164646a527437414f6b664e304f747a6454494a5a3951476f56623279453d222c227672665f70726f6f66223a2264547172496a715744616c2b50524e744c4b4468376e30703254766e38417a6d6e7a373571774b3171383544574478677139474271747236724c666f7255655043705a336749526961336e354361525166414a5648413d3d222c226c6173745f636f6e6669675f626c6f636b5f6e756d223a31303332303030302c226e65775f636861696e5f636f6e666967223a6e756c6c7d000000000000000000000000000000000000000000000000000000000000000000000000000000000000000000000000000000000000000000000000000000000000000000000000000000000000000000000000000000000000000000000000000000000000000000000000000000000000000000000000000000000000000000000000000000000000000000c32015e7ff900be36aa224c0cef7ab4f03c696a3f9df370d24eea9f7c2c76d73f73e99766390f8bb4b9da066076d99c10926f123b2d24dbd4a91cda4c2a08bf3a50044014929ae9e38ed09e17ed963d401280e11095b33c7b8b7bf29857ad14b1a8b7c6677b935ce86bd5f4e68fe124d27f1f663c06edf8b93f2a2bd295e00e2fca7019468879d32df186a2cb259e8c60030203ad3b2a1010a6a22c21762c404b0b71208dd3e8b16465745c2966850fb35126e2a940153b8bc72272e8ba7e4d4773f6e010000000000000000000000000000000000000000000000000000000000",
                    "decodedMethod": {
                        "callParams": [
                            {
                                "name": "proof",
                                "type": "bytes",
                                "value": "0xef206ee4e025ae1faa3ee92a596976e175ce92c236ec9b33a306b88fa4deffa8eb8d0a0000000000000020000000000000000000000000000000000000000000000000000000000001a5782080c19cf99020bc01689422886f2915b2108a3485815de8819347c4e209a4a3041434d4a23a1fc0c694f0d74ddaf9d8d564cfe2d430020000000000000014250e76987d838a75310c34bf422ea9f1ac4cc90606756e6c6f636b4a14dac17f958d2ee523a2206206994597c13d831ec714e142f2ec7bd92c4b42558ef7c80e185c086a8010a04697b10000000000000000000000000000000000000000000000000000000001ccd53ca74422242a0ae867e08938259fdf1c3c410c8aceea3cc7e66f05fdca08018e8b389c8371c94008c4f9261166864b85822f6c4d9b8a4cf931f660bd695286"
                            },
                            {
                                "name": "rawHeader",
                                "type": "bytes",
                                "value": "0x0000000000000000000000003a992d31e87f269b56db9d858e845eb2296cb5ce147ad851f4acc58fff935ed5000000000000000000000000000000000000000000000000000000000000000067c183f859d09a8269d080ede652dbd7af1079b46656886a369a33d56c184d582bd216682b12322a68b4853a1f7dba3180c820a8fca275e8e7e6be77542936aaac22f96057ed9d00c66f673dc43ce9bcfd13017b226c6561646572223a312c227672665f76616c7565223a224242486b6b32352b305075356941363138586668444579776d6748783356492b6e6e4c354a31594e716f554641506f6e345765445057556f635164646a527437414f6b664e304f747a6454494a5a3951476f56623279453d222c227672665f70726f6f66223a2264547172496a715744616c2b50524e744c4b4468376e30703254766e38417a6d6e7a373571774b3171383544574478677139474271747236724c666f7255655043705a336749526961336e354361525166414a5648413d3d222c226c6173745f636f6e6669675f626c6f636b5f6e756d223a31303332303030302c226e65775f636861696e5f636f6e666967223a6e756c6c7d0000000000000000000000000000000000000000"
                            },
                            {
                                "name": "headerProof",
                                "type": "bytes",
                                "value": "0x"
                            },
                            {
                                "name": "curRawHeader",
                                "type": "bytes",
                                "value": "0x"
                            },
                            {
                                "name": "headerSig",
                                "type": "bytes",
                                "value": "0x2015e7ff900be36aa224c0cef7ab4f03c696a3f9df370d24eea9f7c2c76d73f73e99766390f8bb4b9da066076d99c10926f123b2d24dbd4a91cda4c2a08bf3a50044014929ae9e38ed09e17ed963d401280e11095b33c7b8b7bf29857ad14b1a8b7c6677b935ce86bd5f4e68fe124d27f1f663c06edf8b93f2a2bd295e00e2fca7019468879d32df186a2cb259e8c60030203ad3b2a1010a6a22c21762c404b0b71208dd3e8b16465745c2966850fb35126e2a940153b8bc72272e8ba7e4d4773f6e01"
                            }
                        ],
                        "constructorArguments": "",
                        "name": "verifyHeaderAndExecuteTx",
                        "returnParams": [
                            {
                                "name": "",
                                "type": "bool",
                                "value": true
                            }
                        ],
                        "signature": "verifyHeaderAndExecuteTx(bytes,bytes,bytes,bytes,bytes)"
                    },
                    "errorInfo": "",
                    "fromAddress": "0x8c5e8eb7eb33d61d1e3c6e21fbc2fca6bd2f2d86",
                    "gasUsed": 190397,
                    "id": 0,
                    "methodDecoded": true,
                    "operation": "CALL",
                    "output": "0x0000000000000000000000000000000000000000000000000000000000000001",
                    "revert": false,
                    "revertMessage": "",
                    "selector": "0xd450e04c",
                    "status": true,
                    "value": "0"
                },
                "nodeType": 0
            },
            "1": {
                "invocation": {
                    "address": "0xcf2afe102057ba5c16f899271045a0a37fcb10f2",
                    "callData": "0x",
                    "decodedMethod": {
                        "callParams": [],
                        "constructorArguments": "",
                        "name": "getCurEpochConPubKeyBytes",
                        "returnParams": [
                            {
                                "name": "",
                                "type": "bytes",
                                "value": "0x0400000000000000143dfccb7b8a6972cde3b695d3c0c032514b0f3825144c46e1f946362547546677bfa719598385ce56f214f81f676832f6dfec4a5d0671bd27156425fcef981451b7529137d34002c4ebd81a2244f0ee7e95b2c0"
                            }
                        ],
                        "signature": "getCurEpochConPubKeyBytes()"
                    },
                    "errorInfo": "",
                    "fromAddress": "0x838bf9e95cb12dd76a54c9f9d2e3082eaf928270",
                    "gasUsed": 9617,
                    "id": 1,
                    "methodDecoded": true,
                    "operation": "STATICCALL",
                    "output": "0x0000000000000000000000000000000000000000000000000000000000000020000000000000000000000000000000000000000000000000000000000000005c0400000000000000143dfccb7b8a6972cde3b695d3c0c032514b0f3825144c46e1f946362547546677bfa719598385ce56f214f81f676832f6dfec4a5d0671bd27156425fcef981451b7529137d34002c4ebd81a2244f0ee7e95b2c000000000",
                    "revert": false,
                    "revertMessage": "",
                    "selector": "0x69d48074",
                    "status": true,
                    "value": "0"
                },
                "nodeType": 0
            },
            "10": {
                "invocation": {
                    "address": "0x0000000000000000000000000000000000000001",
                    "callData": "0x18f6e5d7cb66afa574d3895f922ee69bb43f5070c2fe74d406ae665b000000000000000000000000000000000000000000000000000000000000001c9468879d32df186a2cb259e8c60030203ad3b2a1010a6a22c21762c404b0b71208dd3e8b16465745c2966850fb35126e2a940153b8bc72272e8ba7e4d4773f6e",
                    "decodedMethod": {
                        "callParams": [
                            {
                                "name": "hash",
                                "type": "bytes32",
                                "value": "0xa9229c5a18f6e5d7cb66afa574d3895f922ee69bb43f5070c2fe74d406ae665b"
                            },
                            {
                                "name": "v",
                                "type": "uint256",
                                "value": "28"
                            },
                            {
                                "name": "r",
                                "type": "bytes32",
                                "value": "0x9468879d32df186a2cb259e8c60030203ad3b2a1010a6a22c21762c404b0b712"
                            },
                            {
                                "name": "s",
                                "type": "bytes32",
                                "value": "0x08dd3e8b16465745c2966850fb35126e2a940153b8bc72272e8ba7e4d4773f6e"
                            }
                        ],
                        "constructorArguments": "",
                        "name": "ecrecover",
                        "returnParams": [
                            {
                                "name": "",
                                "type": "address",
                                "value": "0x51b7529137d34002c4ebd81a2244f0ee7e95b2c0"
                            }
                        ],
                        "signature": "ecrecover(bytes32,uint256,bytes32,bytes32)"
                    },
                    "errorInfo": "",
                    "fromAddress": "0x838bf9e95cb12dd76a54c9f9d2e3082eaf928270",
                    "gasUsed": 3000,
                    "id": 10,
                    "methodDecoded": true,
                    "operation": "STATICCALL",
                    "output": "0x00000000000000000000000051b7529137d34002c4ebd81a2244f0ee7e95b2c0",
                    "revert": false,
                    "revertMessage": "",
                    "selector": "0xa9229c5a",
                    "status": true,
                    "value": "0"
                },
                "nodeType": 0
            },
            "11": {
                "invocation": {
                    "address": "0x0000000000000000000000000000000000000002",
                    "callData": "0xe025ae1faa3ee92a596976e175ce92c236ec9b33a306b88fa4deffa8eb8d0a0000000000000020000000000000000000000000000000000000000000000000000000000001a5782080c19cf99020bc01689422886f2915b2108a3485815de8819347c4e209a4a3041434d4a23a1fc0c694f0d74ddaf9d8d564cfe2d430020000000000000014250e76987d838a75310c34bf422ea9f1ac4cc90606756e6c6f636b4a14dac17f958d2ee523a2206206994597c13d831ec714e142f2ec7bd92c4b42558ef7c80e185c086a8010a04697b100000000000000000000000000000000000000000000000000000000",
                    "decodedMethod": {
                        "callParams": [
                            {
                                "name": "data",
                                "type": "bytes",
                                "value": "0x00206ee4e025ae1faa3ee92a596976e175ce92c236ec9b33a306b88fa4deffa8eb8d0a0000000000000020000000000000000000000000000000000000000000000000000000000001a5782080c19cf99020bc01689422886f2915b2108a3485815de8819347c4e209a4a3041434d4a23a1fc0c694f0d74ddaf9d8d564cfe2d430020000000000000014250e76987d838a75310c34bf422ea9f1ac4cc90606756e6c6f636b4a14dac17f958d2ee523a2206206994597c13d831ec714e142f2ec7bd92c4b42558ef7c80e185c086a8010a04697b100000000000000000000000000000000000000000000000000000000"
                            }
                        ],
                        "constructorArguments": "",
                        "name": "sha256hash",
                        "returnParams": [
                            {
                                "name": "hash",
                                "type": "bytes32",
                                "value": "0x4df75743cebe8b18c56f3b5a5022337ae598ea3d5252dc22034ff733a0fc1466"
                            }
                        ],
                        "signature": "sha256hash(bytes)"
                    },
                    "errorInfo": "",
                    "fromAddress": "0x838bf9e95cb12dd76a54c9f9d2e3082eaf928270",
                    "gasUsed": 156,
                    "id": 11,
                    "methodDecoded": true,
                    "operation": "STATICCALL",
                    "output": "0x4df75743cebe8b18c56f3b5a5022337ae598ea3d5252dc22034ff733a0fc1466",
                    "revert": false,
                    "revertMessage": "",
                    "selector": "0x00206ee4",
                    "status": true,
                    "value": "0"
                },
                "nodeType": 0
            },
            "12": {
                "invocation": {
                    "address": "0x0000000000000000000000000000000000000002",
                    "callData": "0x43cebe8b18c56f3b5a5022337ae598ea3d5252dc22034ff733a0fc1466ccd53ca74422242a0ae867e08938259fdf1c3c410c8aceea3cc7e66f05fdca08",
                    "decodedMethod": {
                        "callParams": [
                            {
                                "name": "data",
                                "type": "bytes",
                                "value": "0x014df75743cebe8b18c56f3b5a5022337ae598ea3d5252dc22034ff733a0fc1466ccd53ca74422242a0ae867e08938259fdf1c3c410c8aceea3cc7e66f05fdca08"
                            }
                        ],
                        "constructorArguments": "",
                        "name": "sha256hash",
                        "returnParams": [
                            {
                                "name": "hash",
                                "type": "bytes32",
                                "value": "0x5d2f87c27f47c0241ae9f13264d23ebf7cca0bd4b7a8a95b690d8390ecf53158"
                            }
                        ],
                        "signature": "sha256hash(bytes)"
                    },
                    "errorInfo": "",
                    "fromAddress": "0x838bf9e95cb12dd76a54c9f9d2e3082eaf928270",
                    "gasUsed": 96,
                    "id": 12,
                    "methodDecoded": true,
                    "operation": "STATICCALL",
                    "output": "0x5d2f87c27f47c0241ae9f13264d23ebf7cca0bd4b7a8a95b690d8390ecf53158",
                    "revert": false,
                    "revertMessage": "",
                    "selector": "0x014df757",
                    "status": true,
                    "value": "0"
                },
                "nodeType": 0
            },
            "13": {
                "invocation": {
                    "address": "0x0000000000000000000000000000000000000002",
                    "callData": "0xc27f47c0241ae9f13264d23ebf7cca0bd4b7a8a95b690d8390ecf531588e8b389c8371c94008c4f9261166864b85822f6c4d9b8a4cf931f660bd695286",
                    "decodedMethod": {
                        "callParams": [
                            {
                                "name": "data",
                                "type": "bytes",
                                "value": "0x015d2f87c27f47c0241ae9f13264d23ebf7cca0bd4b7a8a95b690d8390ecf531588e8b389c8371c94008c4f9261166864b85822f6c4d9b8a4cf931f660bd695286"
                            }
                        ],
                        "constructorArguments": "",
                        "name": "sha256hash",
                        "returnParams": [
                            {
                                "name": "hash",
                                "type": "bytes32",
                                "value": "0x67c183f859d09a8269d080ede652dbd7af1079b46656886a369a33d56c184d58"
                            }
                        ],
                        "signature": "sha256hash(bytes)"
                    },
                    "errorInfo": "",
                    "fromAddress": "0x838bf9e95cb12dd76a54c9f9d2e3082eaf928270",
                    "gasUsed": 96,
                    "id": 13,
                    "methodDecoded": true,
                    "operation": "STATICCALL",
                    "output": "0x67c183f859d09a8269d080ede652dbd7af1079b46656886a369a33d56c184d58",
                    "revert": false,
                    "revertMessage": "",
                    "selector": "0x015d2f87",
                    "status": true,
                    "value": "0"
                },
                "nodeType": 0
            },
            "14": {
                "invocation": {
                    "address": "0xcf2afe102057ba5c16f899271045a0a37fcb10f2",
                    "callData": "0x000000000000000000000000000000000000000000000000000000000000000a6ee4e025ae1faa3ee92a596976e175ce92c236ec9b33a306b88fa4deffa8eb8d",
                    "decodedMethod": {
                        "callParams": [
                            {
                                "name": "fromChainId",
                                "type": "uint64",
                                "value": "10"
                            },
                            {
                                "name": "fromChainTx",
                                "type": "bytes32",
                                "value": "0x6ee4e025ae1faa3ee92a596976e175ce92c236ec9b33a306b88fa4deffa8eb8d"
                            }
                        ],
                        "constructorArguments": "",
                        "name": "checkIfFromChainTxExist",
                        "returnParams": [
                            {
                                "name": "",
                                "type": "bool",
                                "value": false
                            }
                        ],
                        "signature": "checkIfFromChainTxExist(uint64,bytes32)"
                    },
                    "errorInfo": "",
                    "fromAddress": "0x838bf9e95cb12dd76a54c9f9d2e3082eaf928270",
                    "gasUsed": 2569,
                    "id": 14,
                    "methodDecoded": true,
                    "operation": "STATICCALL",
                    "output": "0x0000000000000000000000000000000000000000000000000000000000000000",
                    "revert": false,
                    "revertMessage": "",
                    "selector": "0x0586763c",
                    "status": true,
                    "value": "0"
                },
                "nodeType": 0
            },
            "15": {
                "invocation": {
                    "address": "0xcf2afe102057ba5c16f899271045a0a37fcb10f2",
                    "callData": "0x000000000000000000000000000000000000000000000000000000000000000a6ee4e025ae1faa3ee92a596976e175ce92c236ec9b33a306b88fa4deffa8eb8d",
                    "decodedMethod": {
                        "callParams": [
                            {
                                "name": "fromChainId",
                                "type": "uint64",
                                "value": "10"
                            },
                            {
                                "name": "fromChainTx",
                                "type": "bytes32",
                                "value": "0x6ee4e025ae1faa3ee92a596976e175ce92c236ec9b33a306b88fa4deffa8eb8d"
                            }
                        ],
                        "constructorArguments": "",
                        "name": "markFromChainTxExist",
                        "returnParams": [
                            {
                                "name": "",
                                "type": "bool",
                                "value": true
                            }
                        ],
                        "signature": "markFromChainTxExist(uint64,bytes32)"
                    },
                    "errorInfo": "",
                    "fromAddress": "0x838bf9e95cb12dd76a54c9f9d2e3082eaf928270",
                    "gasUsed": 22981,
                    "id": 15,
                    "methodDecoded": true,
                    "operation": "CALL",
                    "output": "0x0000000000000000000000000000000000000000000000000000000000000001",
                    "revert": false,
                    "revertMessage": "",
                    "selector": "0xe90bfdcf",
                    "status": true,
                    "value": "0"
                },
                "nodeType": 0
            },
            "16": {
                "invocation": {
                    "address": "0x250e76987d838a75310c34bf422ea9f1ac4cc906",
                    "callData": "0x000000000000000000000000000000000000000000000000000000000000006000000000000000000000000000000000000000000000000000000000000000e0000000000000000000000000000000000000000000000000000000000000000a000000000000000000000000000000000000000000000000000000000000004a14dac17f958d2ee523a2206206994597c13d831ec714e142f2ec7bd92c4b42558ef7c80e185c086a8010a04697b10000000000000000000000000000000000000000000000000000000000000000000000000000000000000000000000000000000000000000000000000000000000000000000000000000000000000000001434d4a23a1fc0c694f0d74ddaf9d8d564cfe2d430000000000000000000000000",
                    "decodedMethod": {
                        "callParams": [
                            {
                                "name": "argsBs",
                                "type": "bytes",
                                "value": "0x14dac17f958d2ee523a2206206994597c13d831ec714e142f2ec7bd92c4b42558ef7c80e185c086a8010a04697b100000000000000000000000000000000000000000000000000000000"
                            },
                            {
                                "name": "fromContractAddr",
                                "type": "bytes",
                                "value": "0x34d4a23a1fc0c694f0d74ddaf9d8d564cfe2d430"
                            },
                            {
                                "name": "fromChainId",
                                "type": "uint64",
                                "value": "10"
                            }
                        ],
                        "constructorArguments": "",
                        "name": "unlock",
                        "returnParams": [
                            {
                                "name": "",
                                "type": "bool",
                                "value": true
                            }
                        ],
                        "signature": "unlock(bytes,bytes,uint64)"
                    },
                    "errorInfo": "",
                    "fromAddress": "0x838bf9e95cb12dd76a54c9f9d2e3082eaf928270",
                    "gasUsed": 48365,
                    "id": 16,
                    "methodDecoded": true,
                    "operation": "CALL",
                    "output": "0x0000000000000000000000000000000000000000000000000000000000000001",
                    "revert": false,
                    "revertMessage": "",
                    "selector": "0x06af4b9f",
                    "status": true,
                    "value": "0"
                },
                "nodeType": 0
            },
            "17": {
                "invocation": {
                    "address": "0x5a51e2ebf8d136926b9ca7b59b60464e7c44d2eb",
                    "callData": "0x",
                    "decodedMethod": {
                        "callParams": [],
                        "constructorArguments": "",
                        "name": "getEthCrossChainManager",
                        "returnParams": [
                            {
                                "name": "",
                                "type": "address",
                                "value": "0x838bf9e95cb12dd76a54c9f9d2e3082eaf928270"
                            }
                        ],
                        "signature": "getEthCrossChainManager()"
                    },
                    "errorInfo": "",
                    "fromAddress": "0x250e76987d838a75310c34bf422ea9f1ac4cc906",
                    "gasUsed": 4507,
                    "id": 17,
                    "methodDecoded": true,
                    "operation": "STATICCALL",
                    "output": "0x000000000000000000000000838bf9e95cb12dd76a54c9f9d2e3082eaf928270",
                    "revert": false,
                    "revertMessage": "",
                    "selector": "0x87939a7f",
                    "status": true,
                    "value": "0"
                },
                "nodeType": 0
            },
            "18": {
                "invocation": {
                    "address": "0xdac17f958d2ee523a2206206994597c13d831ec7",
                    "callData": "0x000000000000000000000000e142f2ec7bd92c4b42558ef7c80e185c086a801000000000000000000000000000000000000000000000000000000000b19746a0",
                    "decodedMethod": {
                        "callParams": [
                            {
                                "name": "_to",
                                "type": "address",
                                "value": "0xe142f2ec7bd92c4b42558ef7c80e185c086a8010"
                            },
                            {
                                "decimalAvailable": true,
                                "name": "_value",
                                "type": "uint256",
                                "value": "2,979,481,248"
                            }
                        ],
                        "constructorArguments": "",
                        "name": "transfer",
                        "returnParams": [],
                        "signature": "transfer(address,uint256)"
                    },
                    "errorInfo": "",
                    "fromAddress": "0x250e76987d838a75310c34bf422ea9f1ac4cc906",
                    "gasUsed": 24501,
                    "id": 18,
                    "methodDecoded": true,
                    "operation": "CALL",
                    "output": "",
                    "revert": false,
                    "revertMessage": "",
                    "selector": "0xa9059cbb",
                    "status": true,
                    "value": "0"
                },
                "nodeType": 0
            },
            "19": {
                "event": {
                    "contract": "0xdac17f958d2ee523a2206206994597c13d831ec7",
                    "decodedLog": {
                        "name": "Transfer",
                        "params": [
                            {
                                "name": "from",
                                "type": "address",
                                "value": "0x250e76987d838a75310c34bf422ea9f1ac4cc906"
                            },
                            {
                                "name": "to",
                                "type": "address",
                                "value": "0xe142f2ec7bd92c4b42558ef7c80e185c086a8010"
                            },
                            {
                                "decimalAvailable": true,
                                "name": "value",
                                "type": "uint256",
                                "value": "2,979,481,248"
                            }
                        ],
                        "signature": "Transfer(address,address,uint256)"
                    },
                    "id": 19,
                    "logData": "0x00000000000000000000000000000000000000000000000000000000b19746a0",
                    "logDecoded": true,
                    "operation": "EVENT",
                    "revert": false,
                    "status": true,
                    "topics": [
                        "0xddf252ad1be2c89b69c2b068fc378daa952ba7f163c4a11628f55a4df523b3ef",
                        "0x000000000000000000000000250e76987d838a75310c34bf422ea9f1ac4cc906",
                        "0x000000000000000000000000e142f2ec7bd92c4b42558ef7c80e185c086a8010"
                    ]
                },
                "nodeType": 1
            },
            "2": {
                "invocation": {
                    "address": "0xcf2afe102057ba5c16f899271045a0a37fcb10f2",
                    "callData": "0x",
                    "decodedMethod": {
                        "callParams": [],
                        "constructorArguments": "",
                        "name": "getCurEpochStartHeight",
                        "returnParams": [
                            {
                                "name": "",
                                "type": "uint32",
                                "value": "1,740,000"
                            }
                        ],
                        "signature": "getCurEpochStartHeight()"
                    },
                    "errorInfo": "",
                    "fromAddress": "0x838bf9e95cb12dd76a54c9f9d2e3082eaf928270",
                    "gasUsed": 2446,
                    "id": 2,
                    "methodDecoded": true,
                    "operation": "STATICCALL",
                    "output": "0x00000000000000000000000000000000000000000000000000000000001a8ce0",
                    "revert": false,
                    "revertMessage": "",
                    "selector": "0x5ac40790",
                    "status": true,
                    "value": "0"
                },
                "nodeType": 0
            },
            "20": {
                "event": {
                    "contract": "0x250e76987d838a75310c34bf422ea9f1ac4cc906",
                    "decodedLog": {
                        "name": "UnlockEvent",
                        "params": [
                            {
                                "name": "toAssetHash",
                                "type": "address",
                                "value": "0xdac17f958d2ee523a2206206994597c13d831ec7"
                            },
                            {
                                "name": "toAddress",
                                "type": "address",
                                "value": "0xe142f2ec7bd92c4b42558ef7c80e185c086a8010"
                            },
                            {
                                "name": "amount",
                                "type": "uint256",
                                "value": "2,979,481,248"
                            }
                        ],
                        "signature": "UnlockEvent(address,address,uint256)"
                    },
                    "id": 20,
                    "logData": "0x000000000000000000000000dac17f958d2ee523a2206206994597c13d831ec7000000000000000000000000e142f2ec7bd92c4b42558ef7c80e185c086a801000000000000000000000000000000000000000000000000000000000b19746a0",
                    "logDecoded": true,
                    "operation": "EVENT",
                    "revert": false,
                    "status": true,
                    "topics": [
                        "0xd90288730b87c2b8e0c45bd82260fd22478aba30ae1c4d578b8daba9261604df"
                    ]
                },
                "nodeType": 1
            },
            "21": {
                "event": {
                    "contract": "0x838bf9e95cb12dd76a54c9f9d2e3082eaf928270",
                    "decodedLog": {
                        "name": "VerifyHeaderAndExecuteTxEvent",
                        "params": [
                            {
                                "name": "fromChainID",
                                "type": "uint64",
                                "value": "10"
                            },
                            {
                                "name": "toContract",
                                "type": "bytes",
                                "value": "0x250e76987d838a75310c34bf422ea9f1ac4cc906"
                            },
                            {
                                "name": "crossChainTxHash",
                                "type": "bytes",
                                "value": "0x6ee4e025ae1faa3ee92a596976e175ce92c236ec9b33a306b88fa4deffa8eb8d"
                            },
                            {
                                "name": "fromChainTxHash",
                                "type": "bytes",
                                "value": "0x000000000000000000000000000000000000000000000000000000000001a578"
                            }
                        ],
                        "signature": "VerifyHeaderAndExecuteTxEvent(uint64,bytes,bytes,bytes)"
                    },
                    "id": 21,
                    "logData": "0x000000000000000000000000000000000000000000000000000000000000000a000000000000000000000000000000000000000000000000000000000000008000000000000000000000000000000000000000000000000000000000000000c000000000000000000000000000000000000000000000000000000000000001000000000000000000000000000000000000000000000000000000000000000014250e76987d838a75310c34bf422ea9f1ac4cc90600000000000000000000000000000000000000000000000000000000000000000000000000000000000000206ee4e025ae1faa3ee92a596976e175ce92c236ec9b33a306b88fa4deffa8eb8d0000000000000000000000000000000000000000000000000000000000000020000000000000000000000000000000000000000000000000000000000001a578",
                    "logDecoded": true,
                    "operation": "EVENT",
                    "revert": false,
                    "status": true,
                    "topics": [
                        "0x8a4a2663ce60ce4955c595da2894de0415240f1ace024cfbff85f513b656bdae"
                    ]
                },
                "nodeType": 1
            },
            "3": {
                "invocation": {
                    "address": "0x0000000000000000000000000000000000000002",
                    "callData": "0x00000000000000003a992d31e87f269b56db9d858e845eb2296cb5ce147ad851f4acc58fff935ed5000000000000000000000000000000000000000000000000000000000000000067c183f859d09a8269d080ede652dbd7af1079b46656886a369a33d56c184d582bd216682b12322a68b4853a1f7dba3180c820a8fca275e8e7e6be77542936aaac22f96057ed9d00c66f673dc43ce9bcfd13017b226c6561646572223a312c227672665f76616c7565223a224242486b6b32352b305075356941363138586668444579776d6748783356492b6e6e4c354a31594e716f554641506f6e345765445057556f635164646a527437414f6b664e304f747a6454494a5a3951476f56623279453d222c227672665f70726f6f66223a2264547172496a715744616c2b50524e744c4b4468376e30703254766e38417a6d6e7a373571774b3171383544574478677139474271747236724c666f7255655043705a336749526961336e354361525166414a5648413d3d222c226c6173745f636f6e6669675f626c6f636b5f6e756d223a31303332303030302c226e65775f636861696e5f636f6e666967223a6e756c6c7d0000000000000000000000000000000000000000",
                    "decodedMethod": {
                        "callParams": [
                            {
                                "name": "data",
                                "type": "bytes",
                                "value": "0x0000000000000000000000003a992d31e87f269b56db9d858e845eb2296cb5ce147ad851f4acc58fff935ed5000000000000000000000000000000000000000000000000000000000000000067c183f859d09a8269d080ede652dbd7af1079b46656886a369a33d56c184d582bd216682b12322a68b4853a1f7dba3180c820a8fca275e8e7e6be77542936aaac22f96057ed9d00c66f673dc43ce9bcfd13017b226c6561646572223a312c227672665f76616c7565223a224242486b6b32352b305075356941363138586668444579776d6748783356492b6e6e4c354a31594e716f554641506f6e345765445057556f635164646a527437414f6b664e304f747a6454494a5a3951476f56623279453d222c227672665f70726f6f66223a2264547172496a715744616c2b50524e744c4b4468376e30703254766e38417a6d6e7a373571774b3171383544574478677139474271747236724c666f7255655043705a336749526961336e354361525166414a5648413d3d222c226c6173745f636f6e6669675f626c6f636b5f6e756d223a31303332303030302c226e65775f636861696e5f636f6e666967223a6e756c6c7d0000000000000000000000000000000000000000"
                            }
                        ],
                        "constructorArguments": "",
                        "name": "sha256hash",
                        "returnParams": [
                            {
                                "name": "hash",
                                "type": "bytes32",
                                "value": "0x5f65412a313c84a5b489186f56b43d4fa779a289be70d77c1dd0f18164745975"
                            }
                        ],
                        "signature": "sha256hash(bytes)"
                    },
                    "errorInfo": "",
                    "fromAddress": "0x838bf9e95cb12dd76a54c9f9d2e3082eaf928270",
                    "gasUsed": 240,
                    "id": 3,
                    "methodDecoded": true,
                    "operation": "STATICCALL",
                    "output": "0x5f65412a313c84a5b489186f56b43d4fa779a289be70d77c1dd0f18164745975",
                    "revert": false,
                    "revertMessage": "",
                    "selector": "0x00000000",
                    "status": true,
                    "value": "0"
                },
                "nodeType": 0
            },
            "4": {
                "invocation": {
                    "address": "0x0000000000000000000000000000000000000002",
                    "callData": "0x313c84a5b489186f56b43d4fa779a289be70d77c1dd0f18164745975",
                    "decodedMethod": {
                        "callParams": [
                            {
                                "name": "data",
                                "type": "bytes",
                                "value": "0x5f65412a313c84a5b489186f56b43d4fa779a289be70d77c1dd0f18164745975"
                            }
                        ],
                        "constructorArguments": "",
                        "name": "sha256hash",
                        "returnParams": [
                            {
                                "name": "hash",
                                "type": "bytes32",
                                "value": "0x7e3c0c54c83c5b8622fc9b9a230ed9275a5066ca84d9d93d44576eb02a659695"
                            }
                        ],
                        "signature": "sha256hash(bytes)"
                    },
                    "errorInfo": "",
                    "fromAddress": "0x838bf9e95cb12dd76a54c9f9d2e3082eaf928270",
                    "gasUsed": 72,
                    "id": 4,
                    "methodDecoded": true,
                    "operation": "STATICCALL",
                    "output": "0x7e3c0c54c83c5b8622fc9b9a230ed9275a5066ca84d9d93d44576eb02a659695",
                    "revert": false,
                    "revertMessage": "",
                    "selector": "0x5f65412a",
                    "status": true,
                    "value": "0"
                },
                "nodeType": 0
            },
            "5": {
                "invocation": {
                    "address": "0x0000000000000000000000000000000000000002",
                    "callData": "0xc83c5b8622fc9b9a230ed9275a5066ca84d9d93d44576eb02a659695",
                    "decodedMethod": {
                        "callParams": [
                            {
                                "name": "data",
                                "type": "bytes",
                                "value": "0x7e3c0c54c83c5b8622fc9b9a230ed9275a5066ca84d9d93d44576eb02a659695"
                            }
                        ],
                        "constructorArguments": "",
                        "name": "sha256hash",
                        "returnParams": [
                            {
                                "name": "hash",
                                "type": "bytes32",
                                "value": "0xa9229c5a18f6e5d7cb66afa574d3895f922ee69bb43f5070c2fe74d406ae665b"
                            }
                        ],
                        "signature": "sha256hash(bytes)"
                    },
                    "errorInfo": "",
                    "fromAddress": "0x838bf9e95cb12dd76a54c9f9d2e3082eaf928270",
                    "gasUsed": 72,
                    "id": 5,
                    "methodDecoded": true,
                    "operation": "STATICCALL",
                    "output": "0xa9229c5a18f6e5d7cb66afa574d3895f922ee69bb43f5070c2fe74d406ae665b",
                    "revert": false,
                    "revertMessage": "",
                    "selector": "0x7e3c0c54",
                    "status": true,
                    "value": "0"
                },
                "nodeType": 0
            },
            "6": {
                "invocation": {
                    "address": "0x0000000000000000000000000000000000000001",
                    "callData": "0x18f6e5d7cb66afa574d3895f922ee69bb43f5070c2fe74d406ae665b000000000000000000000000000000000000000000000000000000000000001b2015e7ff900be36aa224c0cef7ab4f03c696a3f9df370d24eea9f7c2c76d73f73e99766390f8bb4b9da066076d99c10926f123b2d24dbd4a91cda4c2a08bf3a5",
                    "decodedMethod": {
                        "callParams": [
                            {
                                "name": "hash",
                                "type": "bytes32",
                                "value": "0xa9229c5a18f6e5d7cb66afa574d3895f922ee69bb43f5070c2fe74d406ae665b"
                            },
                            {
                                "name": "v",
                                "type": "uint256",
                                "value": "27"
                            },
                            {
                                "name": "r",
                                "type": "bytes32",
                                "value": "0x2015e7ff900be36aa224c0cef7ab4f03c696a3f9df370d24eea9f7c2c76d73f7"
                            },
                            {
                                "name": "s",
                                "type": "bytes32",
                                "value": "0x3e99766390f8bb4b9da066076d99c10926f123b2d24dbd4a91cda4c2a08bf3a5"
                            }
                        ],
                        "constructorArguments": "",
                        "name": "ecrecover",
                        "returnParams": [
                            {
                                "name": "",
                                "type": "address",
                                "value": "0x3dfccb7b8a6972cde3b695d3c0c032514b0f3825"
                            }
                        ],
                        "signature": "ecrecover(bytes32,uint256,bytes32,bytes32)"
                    },
                    "errorInfo": "",
                    "fromAddress": "0x838bf9e95cb12dd76a54c9f9d2e3082eaf928270",
                    "gasUsed": 3000,
                    "id": 6,
                    "methodDecoded": true,
                    "operation": "STATICCALL",
                    "output": "0x0000000000000000000000003dfccb7b8a6972cde3b695d3c0c032514b0f3825",
                    "revert": false,
                    "revertMessage": "",
                    "selector": "0xa9229c5a",
                    "status": true,
                    "value": "0"
                },
                "nodeType": 0
            },
            "7": {
                "invocation": {
                    "address": "0x0000000000000000000000000000000000000002",
                    "callData": "0xc83c5b8622fc9b9a230ed9275a5066ca84d9d93d44576eb02a659695",
                    "decodedMethod": {
                        "callParams": [
                            {
                                "name": "data",
                                "type": "bytes",
                                "value": "0x7e3c0c54c83c5b8622fc9b9a230ed9275a5066ca84d9d93d44576eb02a659695"
                            }
                        ],
                        "constructorArguments": "",
                        "name": "sha256hash",
                        "returnParams": [
                            {
                                "name": "hash",
                                "type": "bytes32",
                                "value": "0xa9229c5a18f6e5d7cb66afa574d3895f922ee69bb43f5070c2fe74d406ae665b"
                            }
                        ],
                        "signature": "sha256hash(bytes)"
                    },
                    "errorInfo": "",
                    "fromAddress": "0x838bf9e95cb12dd76a54c9f9d2e3082eaf928270",
                    "gasUsed": 72,
                    "id": 7,
                    "methodDecoded": true,
                    "operation": "STATICCALL",
                    "output": "0xa9229c5a18f6e5d7cb66afa574d3895f922ee69bb43f5070c2fe74d406ae665b",
                    "revert": false,
                    "revertMessage": "",
                    "selector": "0x7e3c0c54",
                    "status": true,
                    "value": "0"
                },
                "nodeType": 0
            },
            "8": {
                "invocation": {
                    "address": "0x0000000000000000000000000000000000000001",
                    "callData": "0x18f6e5d7cb66afa574d3895f922ee69bb43f5070c2fe74d406ae665b000000000000000000000000000000000000000000000000000000000000001c44014929ae9e38ed09e17ed963d401280e11095b33c7b8b7bf29857ad14b1a8b7c6677b935ce86bd5f4e68fe124d27f1f663c06edf8b93f2a2bd295e00e2fca7",
                    "decodedMethod": {
                        "callParams": [
                            {
                                "name": "hash",
                                "type": "bytes32",
                                "value": "0xa9229c5a18f6e5d7cb66afa574d3895f922ee69bb43f5070c2fe74d406ae665b"
                            },
                            {
                                "name": "v",
                                "type": "uint256",
                                "value": "28"
                            },
                            {
                                "name": "r",
                                "type": "bytes32",
                                "value": "0x44014929ae9e38ed09e17ed963d401280e11095b33c7b8b7bf29857ad14b1a8b"
                            },
                            {
                                "name": "s",
                                "type": "bytes32",
                                "value": "0x7c6677b935ce86bd5f4e68fe124d27f1f663c06edf8b93f2a2bd295e00e2fca7"
                            }
                        ],
                        "constructorArguments": "",
                        "name": "ecrecover",
                        "returnParams": [
                            {
                                "name": "",
                                "type": "address",
                                "value": "0xf81f676832f6dfec4a5d0671bd27156425fcef98"
                            }
                        ],
                        "signature": "ecrecover(bytes32,uint256,bytes32,bytes32)"
                    },
                    "errorInfo": "",
                    "fromAddress": "0x838bf9e95cb12dd76a54c9f9d2e3082eaf928270",
                    "gasUsed": 3000,
                    "id": 8,
                    "methodDecoded": true,
                    "operation": "STATICCALL",
                    "output": "0x000000000000000000000000f81f676832f6dfec4a5d0671bd27156425fcef98",
                    "revert": false,
                    "revertMessage": "",
                    "selector": "0xa9229c5a",
                    "status": true,
                    "value": "0"
                },
                "nodeType": 0
            },
            "9": {
                "invocation": {
                    "address": "0x0000000000000000000000000000000000000002",
                    "callData": "0xc83c5b8622fc9b9a230ed9275a5066ca84d9d93d44576eb02a659695",
                    "decodedMethod": {
                        "callParams": [
                            {
                                "name": "data",
                                "type": "bytes",
                                "value": "0x7e3c0c54c83c5b8622fc9b9a230ed9275a5066ca84d9d93d44576eb02a659695"
                            }
                        ],
                        "constructorArguments": "",
                        "name": "sha256hash",
                        "returnParams": [
                            {
                                "name": "hash",
                                "type": "bytes32",
                                "value": "0xa9229c5a18f6e5d7cb66afa574d3895f922ee69bb43f5070c2fe74d406ae665b"
                            }
                        ],
                        "signature": "sha256hash(bytes)"
                    },
                    "errorInfo": "",
                    "fromAddress": "0x838bf9e95cb12dd76a54c9f9d2e3082eaf928270",
                    "gasUsed": 72,
                    "id": 9,
                    "methodDecoded": true,
                    "operation": "STATICCALL",
                    "output": "0xa9229c5a18f6e5d7cb66afa574d3895f922ee69bb43f5070c2fe74d406ae665b",
                    "revert": false,
                    "revertMessage": "",
                    "selector": "0x7e3c0c54",
                    "status": true,
                    "value": "0"
                },
                "nodeType": 0
            }
        },
        "gasFlame": [
            {
                "children": [
                    {
                        "children": [
                            {
                                "children": [],
                                "depth": 0,
                                "name": "Initial Gas",
                                "value": 36376
                            },
                            {
                                "children": [
                                    {
                                        "children": [],
                                        "depth": 1,
                                        "name": "getCurEpochConPubKeyBytes",
                                        "value": 9617
                                    },
                                    {
                                        "children": [],
                                        "depth": 1,
                                        "name": "getCurEpochStartHeight",
                                        "value": 2446
                                    },
                                    {
                                        "children": [],
                                        "depth": 1,
                                        "name": "sha256hash",
                                        "value": 240
                                    },
                                    {
                                        "children": [],
                                        "depth": 1,
                                        "name": "sha256hash",
                                        "value": 72
                                    },
                                    {
                                        "children": [],
                                        "depth": 1,
                                        "name": "sha256hash",
                                        "value": 72
                                    },
                                    {
                                        "children": [],
                                        "depth": 1,
                                        "name": "ecrecover",
                                        "value": 3000
                                    },
                                    {
                                        "children": [],
                                        "depth": 1,
                                        "name": "sha256hash",
                                        "value": 72
                                    },
                                    {
                                        "children": [],
                                        "depth": 1,
                                        "name": "ecrecover",
                                        "value": 3000
                                    },
                                    {
                                        "children": [],
                                        "depth": 1,
                                        "name": "sha256hash",
                                        "value": 72
                                    },
                                    {
                                        "children": [],
                                        "depth": 1,
                                        "name": "ecrecover",
                                        "value": 3000
                                    },
                                    {
                                        "children": [],
                                        "depth": 1,
                                        "name": "sha256hash",
                                        "value": 156
                                    },
                                    {
                                        "children": [],
                                        "depth": 1,
                                        "name": "sha256hash",
                                        "value": 96
                                    },
                                    {
                                        "children": [],
                                        "depth": 1,
                                        "name": "sha256hash",
                                        "value": 96
                                    },
                                    {
                                        "children": [],
                                        "depth": 1,
                                        "name": "checkIfFromChainTxExist",
                                        "value": 2569
                                    },
                                    {
                                        "children": [],
                                        "depth": 1,
                                        "name": "markFromChainTxExist",
                                        "value": 22981
                                    },
                                    {
                                        "children": [
                                            {
                                                "children": [],
                                                "depth": 2,
                                                "name": "getEthCrossChainManager",
                                                "value": 4507
                                            },
                                            {
                                                "children": [],
                                                "depth": 2,
                                                "name": "transfer",
                                                "value": 24501
                                            }
                                        ],
                                        "depth": 1,
                                        "name": "unlock",
                                        "value": 48365
                                    }
                                ],
                                "depth": 0,
                                "name": "Executed Gas",
                                "value": 154021
                            }
                        ],
                        "depth": -1,
                        "name": "Actual Gas Used",
                        "value": 190397
                    },
                    {
                        "children": [],
                        "depth": -1,
                        "name": "Refunded Gas",
                        "value": 0
                    }
                ],
                "depth": -2,
                "name": "Total Gas",
                "value": 190397
            }
        ],
        "isConfirmed": true,
        "mainTrace": [
            {
                "children": [
                    {
                        "children": [
                            {
                                "children": [],
                                "depth": 1,
                                "id": 1,
                                "order": 1
                            },
                            {
                                "children": [],
                                "depth": 1,
                                "id": 2,
                                "order": 2
                            },
                            {
                                "children": [],
                                "depth": 1,
                                "id": 3,
                                "order": 3
                            },
                            {
                                "children": [],
                                "depth": 1,
                                "id": 4,
                                "order": 4
                            },
                            {
                                "children": [],
                                "depth": 1,
                                "id": 5,
                                "order": 5
                            },
                            {
                                "children": [],
                                "depth": 1,
                                "id": 6,
                                "order": 6
                            },
                            {
                                "children": [],
                                "depth": 1,
                                "id": 7,
                                "order": 7
                            },
                            {
                                "children": [],
                                "depth": 1,
                                "id": 8,
                                "order": 8
                            },
                            {
                                "children": [],
                                "depth": 1,
                                "id": 9,
                                "order": 9
                            },
                            {
                                "children": [],
                                "depth": 1,
                                "id": 10,
                                "order": 10
                            },
                            {
                                "children": [],
                                "depth": 1,
                                "id": 11,
                                "order": 11
                            },
                            {
                                "children": [],
                                "depth": 1,
                                "id": 12,
                                "order": 12
                            },
                            {
                                "children": [],
                                "depth": 1,
                                "id": 13,
                                "order": 13
                            },
                            {
                                "children": [],
                                "depth": 1,
                                "id": 14,
                                "order": 14
                            },
                            {
                                "children": [],
                                "depth": 1,
                                "id": 15,
                                "order": 15
                            },
                            {
                                "children": [
                                    {
                                        "children": [],
                                        "depth": 2,
                                        "id": 17,
                                        "order": 17
                                    },
                                    {
                                        "children": [
                                            {
                                                "children": [],
                                                "depth": 3,
                                                "id": 19,
                                                "order": 19
                                            }
                                        ],
                                        "depth": 2,
                                        "id": 18,
                                        "order": 18
                                    },
                                    {
                                        "children": [],
                                        "depth": 2,
                                        "id": 20,
                                        "order": 20
                                    }
                                ],
                                "depth": 1,
                                "id": 16,
                                "order": 16
                            },
                            {
                                "children": [],
                                "depth": 1,
                                "id": 21,
                                "order": 21
                            }
                        ],
                        "depth": 0,
                        "id": 0,
                        "order": 0
                    }
                ],
                "depth": -1,
                "id": -1,
                "order": -1
            }
        ],
        "mainTraceNodeCount": 22,
        "parentIdMap": {
            "0": -1,
            "1": 0,
            "10": 0,
            "11": 0,
            "12": 0,
            "13": 0,
            "14": 0,
            "15": 0,
            "16": 0,
            "17": 16,
            "18": 16,
            "19": 18,
            "2": 0,
            "20": 16,
            "21": 0,
            "3": 0,
            "4": 0,
            "5": 0,
            "6": 0,
            "7": 0,
            "8": 0,
            "9": 0
        },
        "tidyTrace": [
            {
                "children": [
                    {
                        "children": [
                            {
                                "children": [],
                                "depth": 1,
                                "id": 15,
                                "order": 15
                            },
                            {
                                "children": [
                                    {
                                        "children": [
                                            {
                                                "children": [],
                                                "depth": 3,
                                                "id": 19,
                                                "order": 19
                                            }
                                        ],
                                        "depth": 2,
                                        "id": 18,
                                        "order": 18
                                    },
                                    {
                                        "children": [],
                                        "depth": 2,
                                        "id": 20,
                                        "order": 20
                                    }
                                ],
                                "depth": 1,
                                "id": 16,
                                "order": 16
                            },
                            {
                                "children": [],
                                "depth": 1,
                                "id": 21,
                                "order": 21
                            }
                        ],
                        "depth": 0,
                        "id": 0,
                        "order": 0
                    }
                ],
                "depth": -1,
                "id": -1,
                "order": -1
            }
        ],
        "tidyTraceNodeCount": 7
    },
    "state_change": {
        "stateChanges": [
            {
                "address": "0xcf2afe102057ba5c16f899271045a0a37fcb10f2",
                "erc": "",
                "slots": [
                    {
                        "current": "0x0000000000000000000000000000000000000000000000000000000000000001",
                        "key": "0x01fca50ac1927bed54b1856b0874a69276113de2fbaf7f270edbfab6dde0ecbc",
                        "prev": "0x0000000000000000000000000000000000000000000000000000000000000000"
                    }
                ],
                "storageVariables": [
                    {
                        "name": "FromChainTxExist",
                        "type": "mapping(uint64 => mapping(bytes32 => bool))",
                        "value": {
                            "pairs": [
                                {
                                    "key": "10",
                                    "value": {
                                        "pairs": [
                                            {
                                                "key": "0x6ee4e025ae1faa3ee92a596976e175ce92c236ec9b33a306b88fa4deffa8eb8d",
                                                "value": {
                                                    "current": "true",
                                                    "prev": "false",
                                                    "typeTag": 1
                                                }
                                            }
                                        ],
                                        "typeTag": 4
                                    }
                                }
                            ],
                            "typeTag": 4
                        }
                    }
                ]
            },
            {
                "address": "0xdac17f958d2ee523a2206206994597c13d831ec7",
                "erc": "ERC-20",
                "slots": [
                    {
                        "current": "0x00000000000000000000000000000000000000000000000000002dbc4e1e62b3",
                        "key": "0xa581ca3a77b62419b25c012d97fe6043b1d5822fd7928a8385d01ccee23d77c5",
                        "prev": "0x00000000000000000000000000000000000000000000000000002dbcffb5a953"
                    },
                    {
                        "current": "0x00000000000000000000000000000000000000000000000000000000b19b0f86",
                        "key": "0x8dcf904828ee72c24cd1e2385d2dc473d9ebe2ea0f54222a6fe3946d31f58cd9",
                        "prev": "0x000000000000000000000000000000000000000000000000000000000003c8e6"
                    }
                ],
                "storageVariables": [
                    {
                        "name": "balances",
                        "type": "mapping(address => uint256)",
                        "value": {
                            "pairs": [
                                {
                                    "key": "0x250e76987d838a75310c34bf422ea9f1ac4cc906",
                                    "value": {
                                        "current": "50286787715763",
                                        "prev": "50289767197011",
                                        "typeTag": 1
                                    }
                                },
                                {
                                    "key": "0xe142f2ec7bd92c4b42558ef7c80e185c086a8010",
                                    "value": {
                                        "current": "2979729286",
                                        "prev": "248038",
                                        "typeTag": 1
                                    }
                                }
                            ],
                            "typeTag": 4
                        }
                    }
                ]
            }
        ]
    }
}