{
    "balance_change": {
        "balanceChanges": [
            {
                "account": "0x9d1baba71c15fb32c5c6ebcb8a13aa77e6997bff",
                "assets": [
                    {
                        "address": "0xe11609b9a51caf7d32a55896386ac52ed90e66f1",
                        "amount": "1,195,908",
                        "iconUrl": "",
                        "isERC1155": false,
                        "isERC721": false,
                        "sign": false,
                        "value": ""
                    }
                ]
            },
            {
                "account": "0x4b01721f0244e7c5b5f63c20942850e447f5a5ee",
                "assets": [
                    {
                        "address": "0xe11609b9a51caf7d32a55896386ac52ed90e66f1",
                        "amount": "1,195,908",
                        "iconUrl": "",
                        "isERC1155": false,
                        "isERC721": false,
                        "sign": true,
                        "value": ""
                    }
                ]
            }
        ]
    },
    "profile": {
        "basic_info": {
            "baseFee": "",
            "blockNumber": 6261693,
            "callData": "0xa9059cbb0000000000000000000000004b01721f0244e7c5b5f63c20942850e447f5a5ee00000000000000000000000000000000000000000000000000006cc467270400",
            "debugEnable": true,
            "errorInfo": "",
            "eventCount": 2,
            "feeRecipient": "0x99c85bb64564d9ef9a99621301f22c9993cb89e3",
            "formatValue": "0",
            "gasLimit": 80000,
            "gasPrice": "17.200001",
            "gasUsed": 26805,
            "intTxnCount": 0,
            "internalRevert": false,
            "internalRevertMessage": "",
            "isContractCreation": false,
            "isFlashloan": false,
            "maxFee": "",
            "nonce": 0,
            "overwritedBlockNumber": -1,
            "priorityFee": "",
            "receiver": "0xe11609b9a51caf7d32a55896386ac52ed90e66f1",
            "revertMessage": "",
            "sender": "0x9d1baba71c15fb32c5c6ebcb8a13aa77e6997bff",
            "simulationEnable": true,
            "sourceTxnHash": "0xee608b7d3cdf3d7fdbbc1ecfc3557b674656e893902e8ee3e465c2a142f5f7fc",
            "status": true,
            "timestamp": "2018-09-03T01:37:32Z",
            "transactionFee": "0.000461046026805",
            "txnHash": "0xee608b7d3cdf3d7fdbbc1ecfc3557b674656e893902e8ee3e465c2a142f5f7fc",
            "txnIndex": 12,
            "type": 0,
            "value": "0"
        },
        "fund_flow": [
            {
                "amount": "1,195,908",
                "from": "0x9d1baba71c15fb32c5c6ebcb8a13aa77e6997bff",
                "id": 1,
                "isERC1155": false,
                "isERC721": false,
                "isReverted": false,
                "order": 1,
                "to": "0x4b01721f0244e7c5b5f63c20942850e447f5a5ee",
                "token": "0xe11609b9a51caf7d32a55896386ac52ed90e66f1"
            }
        ],
        "token_infos": [
            {
                "address": "0xc02aaa39b223fe8d0a0e5c4f27ead9083c756cc2",
                "decimals": 18
            },
            {
                "address": "0xe11609b9a51caf7d32a55896386ac52ed90e66f1",
                "decimals": 8
            },
            {
                "address": "0xeeeeeeeeeeeeeeeeeeeeeeeeeeeeeeeeeeeeeeee",
                "decimals": 18
            }
        ]
    },
    "address_label": {
        "labels": [
            {
                "address": "0x4b01721f0244e7c5b5f63c20942850e447f5a5ee",
                "label": "CoinExchange.io"
            },
            {
                "address": "0xe11609b9a51caf7d32a55896386ac52ed90e66f1",
                "label": "CmitCoin: CMIT Token"
            },
            {
                "address": "0x0000000000000000000000000000000000000001",
                "label": "Precompiled"
            },
            {
                "address": "0x0000000000000000000000000000000000000002",
                "label": "Precompiled"
            },
            {
                "address": "0x0000000000000000000000000000000000000003",
                "label": "Precompiled"
            },
            {
                "address": "0x0000000000000000000000000000000000000004",
                "label": "Precompiled"
            },
            {
                "address": "0xeeeeeeeeeeeeeeeeeeeeeeeeeeeeeeeeeeeeeeee",
                "label": "Ether"
            }
        ]
    },
    "trace": {
        "accountLabels": null,
        "dataMap": {
            "-1": {
                "invocation": {
                    "address": "0x9d1baba71c15fb32c5c6ebcb8a13aa77e6997bff",
                    "callData": "",
                    "decodedMethod": null,
                    "errorInfo": "",
                    "fromAddress": "",
                    "gasUsed": 0,
                    "id": -1,
                    "methodDecoded": false,
                    "operation": "",
                    "output": "",
                    "revert": false,
                    "revertMessage": "",
                    "selector": "",
                    "status": false,
                    "value": ""
                },
                "nodeType": 0
            },
            "0": {
                "invocation": {
                    "address": "0xe11609b9a51caf7d32a55896386ac52ed90e66f1",
                    "callData": "0x0000000000000000000000004b01721f0244e7c5b5f63c20942850e447f5a5ee00000000000000000000000000000000000000000000000000006cc467270400",
                    "decodedMethod": {
                        "callParams": [
                            {
                                "name": "_to",
                                "type": "address",
                                "value": "0x4b01721f0244e7c5b5f63c20942850e447f5a5ee"
                            },
                            {
                                "decimalAvailable": true,
                                "name": "_value",
                                "type": "uint256",
                                "value": "119,590,800,000,000"
                            }
                        ],
                        "constructorArguments": "",
                        "name": "transfer",
                        "returnParams": [
                            {
                                "name": "success",
                                "type": "bool",
                                "value": true
                            }
                        ],
                        "signature": "transfer(address,uint256)"
                    },
                    "errorInfo": "",
                    "fromAddress": "0x9d1baba71c15fb32c5c6ebcb8a13aa77e6997bff",
                    "gasUsed": 26805,
                    "id": 0,
                    "methodDecoded": true,
                    "operation": "CALL",
                    "output": "0x0000000000000000000000000000000000000000000000000000000000000001",
                    "revert": false,
                    "revertMessage": "",
                    "selector": "0xa9059cbb",
                    "status": true,
                    "value": "0"
                },
                "nodeType": 0
            },
            "1": {
                "event": {
                    "contract": "0xe11609b9a51caf7d32a55896386ac52ed90e66f1",
                    "decodedLog": {
                        "name": "Transfer",
                        "params": [
                            {
                                "name": "from",
                                "type": "address",
                                "value": "0x9d1baba71c15fb32c5c6ebcb8a13aa77e6997bff"
                            },
                            {
                                "name": "to",
                                "type": "address",
                                "value": "0x4b01721f0244e7c5b5f63c20942850e447f5a5ee"
                            },
                            {
                                "name": "data",
                                "type": "bytes",
                                "value": "0xc5d2460186f7233c927e7db2dcc703c0e500b653ca82273b7bfad8045d85a470"
                            },
                            {
                                "name": "value",
                                "type": "uint256",
                                "value": "119,590,800,000,000"
                            }
                        ],
                        "signature": "Transfer(address,address,uint256,bytes)"
                    },
                    "id": 1,
                    "logData": "0x00000000000000000000000000000000000000000000000000006cc467270400",
                    "logDecoded": true,
                    "operation": "EVENT",
                    "revert": false,
                    "status": true,
                    "topics": [
                        "0xe19260aff97b920c7df27010903aeb9c8d2be5d310a2c67824cf3f15396e4c16",
                        "0x0000000000000000000000009d1baba71c15fb32c5c6ebcb8a13aa77e6997bff",
                        "0x0000000000000000000000004b01721f0244e7c5b5f63c20942850e447f5a5ee",
                        "0xc5d2460186f7233c927e7db2dcc703c0e500b653ca82273b7bfad8045d85a470"
                    ]
                },
                "nodeType": 1
            },
            "2": {
                "event": {
                    "contract": "0xe11609b9a51caf7d32a55896386ac52ed90e66f1",
                    "decodedLog": {
                        "name": "Transfer",
                        "params": [
                            {
                                "name": "_from",
                                "type": "address",
                                "value": "0x9d1baba71c15fb32c5c6ebcb8a13aa77e6997bff"
                            },
                            {
                                "name": "_to",
                                "type": "address",
                                "value": "0x4b01721f0244e7c5b5f63c20942850e447f5a5ee"
                            },
                            {
                                "decimalAvailable": true,
                                "name": "_value",
                                "type": "uint256",
                                "value": "119,590,800,000,000"
                            }
                        ],
                        "signature": "Transfer(address,address,uint256)"
                    },
                    "id": 2,
                    "logData": "0x00000000000000000000000000000000000000000000000000006cc467270400",
                    "logDecoded": true,
                    "operation": "EVENT",
                    "revert": false,
                    "status": true,
                    "topics": [
                        "0xddf252ad1be2c89b69c2b068fc378daa952ba7f163c4a11628f55a4df523b3ef",
                        "0x0000000000000000000000009d1baba71c15fb32c5c6ebcb8a13aa77e6997bff",
                        "0x0000000000000000000000004b01721f0244e7c5b5f63c20942850e447f5a5ee"
                    ]
                },
                "nodeType": 1
            }
        },
        "gasFlame": [
            {
                "children": [
                    {
                        "children": [
                            {
                                "children": [],
                                "depth": 0,
                                "name": "Initial Gas",
                                "value": 23128
                            },
                            {
                                "children": [],
                                "depth": 0,
                                "name": "Executed Gas",
                                "value": 18677
                            }
                        ],
                        "depth": -1,
                        "name": "Actual Gas Used",
                        "value": 26805
                    },
                    {
                        "children": [],
                        "depth": -1,
                        "name": "Refunded Gas",
                        "value": 15000
                    }
                ],
                "depth": -2,
                "name": "Total Gas",
                "value": 41805
            }
        ],
        "isConfirmed": true,
        "mainTrace": [
            {
                "children": [
                    {
                        "children": [
                            {
                                "children": [],
                                "depth": 1,
                                "id": 1,
                                "order": 1
                            },
                            {
                                "children": [],
                                "depth": 1,
                                "id": 2,
                                "order": 2
                            }
                        ],
                        "depth": 0,
                        "id": 0,
                        "order": 0
                    }
                ],
                "depth": -1,
                "id": -1,
                "order": -1
            }
        ],
        "mainTraceNodeCount": 3,
        "parentIdMap": {
            "0": -1,
            "1": 0,
            "2": 0
        },
        "tidyTrace": [
            {
                "children": [
                    {
                        "children": [
                            {
                                "children": [],
                                "depth": 1,
                                "id": 1,
                                "order": 1
                            },
                            {
                                "children": [],
                                "depth": 1,
                                "id": 2,
                                "order": 2
                            }
                        ],
                        "depth": 0,
                        "id": 0,
                        "order": 0
                    }
                ],
                "depth": -1,
                "id": -1,
                "order": -1
            }
        ],
        "tidyTraceNodeCount": 3
    },
    "state_change": {
        "stateChanges": [
            {
                "address": "0xe11609b9a51caf7d32a55896386ac52ed90e66f1",
                "erc": "ERC-20",
                "slots": [
                    {
                        "current": "0x00000000000000000000000000000000000000000000000004981505788cb5b2",
                        "key": "0xbf6e2650ab7eb462c84d3dd85050aa9d3dbe053ffc0d1e5573c1d03cf64e94e0",
                        "prev": "0x0000000000000000000000000000000000000000000000000497a8411165b1b2"
                    },
                    {
                        "current": "0x0000000000000000000000000000000000000000000000000000000000000000",
                        "key": "0x7c3468b56af0881c170d102e02a511f659ad1bf04362e1e68c055fd8812fdebd",
                        "prev": "0x00000000000000000000000000000000000000000000000000006cc467270400"
                    }
                ],
                "storageVariables": [
                    {
                        "name": "balanceOf",
                        "type": "mapping(address => uint256)",
                        "value": {
                            "pairs": [
                                {
                                    "key": "0x4b01721f0244e7c5b5f63c20942850e447f5a5ee",
                                    "value": {
                                        "current": "331037685853238706",
                                        "prev": "330918095053238706",
                                        "typeTag": 1
                                    }
                                },
                                {
                                    "key": "0x9d1baba71c15fb32c5c6ebcb8a13aa77e6997bff",
                                    "value": {
                                        "current": "0",
                                        "prev": "119590800000000",
                                        "typeTag": 1
                                    }
                                }
                            ],
                            "typeTag": 4
                        }
                    }
                ]
            }
        ]
    }
}