{
    "balance_change": {
        "balanceChanges": []
    },
    "profile": {
        "basic_info": {
            "baseFee": "5.814508692",
            "blockNumber": 18303015,
            "callData": "0x095ea7b3000000000000000000000000881d40237659c251811cec9c364ef91dc08d300cffffffffffffffffffffffffffffffffffffffffffffffffffffffffffffffff",
            "debugEnable": true,
            "errorInfo": "",
            "eventCount": 1,
            "feeRecipient": "0x95222290dd7278aa3ddd389cc1e1d165cc4bafe5",
            "formatValue": "0",
            "gasLimit": 54286,
            "gasPrice": "6.114508692",
            "gasUsed": 53935,
            "intTxnCount": 1,
            "internalRevert": false,
            "internalRevertMessage": "",
            "isContractCreation": false,
            "isFlashloan": false,
            "maxFee": "10.063360641",
            "nonce": 55,
            "overwritedBlockNumber": -1,
            "priorityFee": "0.3",
            "receiver": "0x7fc66500c84a76ad7e9c93437bfc5ac33e2ddae9",
            "revertMessage": "",
            "sender": "0x4903e6c7dd33a519087b5f96b142296af73c1ded",
            "simulationEnable": true,
            "sourceTxnHash": "0xeffebc3006972d22d0e4386aa873564b78a9f595d87e0016a90a4b125c2224cd",
            "status": true,
            "timestamp": "2023-10-08T03:14:35Z",
            "transactionFee": "0.00032978602630302",
            "txnHash": "0xeffebc3006972d22d0e4386aa873564b78a9f595d87e0016a90a4b125c2224cd",
            "txnIndex": 49,
            "type": 2,
            "value": "0"
        },
        "fund_flow": [],
        "token_infos": [
            {
                "address": "0xc02aaa39b223fe8d0a0e5c4f27ead9083c756cc2",
                "decimals": 18
            },
            {
                "address": "0xeeeeeeeeeeeeeeeeeeeeeeeeeeeeeeeeeeeeeeee",
                "decimals": 18
            }
        ]
    },
    "address_label": {
        "labels": [
            {
                "address": "0x0000000000000000000000000000000000000004",
                "label": "Precompiled"
            },
            {
                "address": "0xeeeeeeeeeeeeeeeeeeeeeeeeeeeeeeeeeeeeeeee",
                "label": "Ether"
            },
            {
                "address": "0x881d40237659c251811cec9c364ef91dc08d300c",
                "label": "Metamask: Swap Router"
            },
            {
                "address": "0x7fc66500c84a76ad7e9c93437bfc5ac33e2ddae9",
                "label": "Aave: AAVE Token"
            },
            {
                "address": "0x96f68837877fd0414b55050c9e794aecdbcfca59",
                "label": "Aave Token (AAVE)"
            },
            {
                "address": "0x0000000000000000000000000000000000000001",
                "label": "Precompiled"
            },
            {
                "address": "0x0000000000000000000000000000000000000002",
                "label": "Precompiled"
            },
            {
                "address": "0x0000000000000000000000000000000000000003",
                "label": "Precompiled"
            }
        ]
    },
    "trace": {
        "accountLabels": null,
        "dataMap": {
            "-1": {
                "invocation": {
                    "address": "0x4903e6c7dd33a519087b5f96b142296af73c1ded",
                    "callData": "",
                    "decodedMethod": null,
                    "errorInfo": "",
                    "fromAddress": "",
                    "gasUsed": 0,
                    "id": -1,
                    "methodDecoded": false,
                    "operation": "",
                    "output": "",
                    "revert": false,
                    "revertMessage": "",
                    "selector": "",
                    "status": false,
                    "value": ""
                },
                "nodeType": 0
            },
            "0": {
                "invocation": {
                    "address": "0x7fc66500c84a76ad7e9c93437bfc5ac33e2ddae9",
                    "callData": "0x000000000000000000000000881d40237659c251811cec9c364ef91dc08d300cffffffffffffffffffffffffffffffffffffffffffffffffffffffffffffffff",
                    "decodedMethod": {
                        "callParams": [
                            {
                                "name": "spender",
                                "type": "address",
                                "value": "0x881d40237659c251811cec9c364ef91dc08d300c"
                            },
                            {
                                "decimalAvailable": true,
                                "name": "amount",
                                "type": "uint256",
                                "value": "115,792,089,237,316,195,423,570,985,008,687,907,853,269,984,665,640,564,039,457,584,007,913,129,639,935"
                            }
                        ],
                        "constructorArguments": "",
                        "name": "approve",
                        "returnParams": [
                            {
                                "name": "",
                                "type": "bool",
                                "value": true
                            }
                        ],
                        "signature": "approve(address,uint256)"
                    },
                    "errorInfo": "",
                    "fromAddress": "0x4903e6c7dd33a519087b5f96b142296af73c1ded",
                    "gasUsed": 53935,
                    "id": 0,
                    "methodDecoded": true,
                    "operation": "CALL",
                    "output": "0x0000000000000000000000000000000000000000000000000000000000000001",
                    "revert": false,
                    "revertMessage": "",
                    "selector": "0x095ea7b3",
                    "status": true,
                    "value": "0"
                },
                "nodeType": 0
            },
            "1": {
                "invocation": {
                    "address": "0x96f68837877fd0414b55050c9e794aecdbcfca59",
                    "callData": "0x000000000000000000000000881d40237659c251811cec9c364ef91dc08d300cffffffffffffffffffffffffffffffffffffffffffffffffffffffffffffffff",
                    "decodedMethod": {
                        "callParams": [
                            {
                                "name": "spender",
                                "type": "address",
                                "value": "0x881d40237659c251811cec9c364ef91dc08d300c"
                            },
                            {
                                "decimalAvailable": true,
                                "name": "amount",
                                "type": "uint256",
                                "value": "115,792,089,237,316,195,423,570,985,008,687,907,853,269,984,665,640,564,039,457,584,007,913,129,639,935"
                            }
                        ],
                        "constructorArguments": "",
                        "name": "approve",
                        "returnParams": [
                            {
                                "name": "",
                                "type": "bool",
                                "value": true
                            }
                        ],
                        "signature": "approve(address,uint256)"
                    },
                    "errorInfo": "",
                    "fromAddress": "0x7fc66500c84a76ad7e9c93437bfc5ac33e2ddae9",
                    "gasUsed": 24753,
                    "id": 1,
                    "methodDecoded": true,
                    "operation": "DELEGATECALL",
                    "output": "0x0000000000000000000000000000000000000000000000000000000000000001",
                    "revert": false,
                    "revertMessage": "",
                    "selector": "0x095ea7b3",
                    "status": true,
                    "value": "0"
                },
                "nodeType": 0
            },
            "2": {
                "event": {
                    "contract": "0x7fc66500c84a76ad7e9c93437bfc5ac33e2ddae9",
                    "decodedLog": {
                        "name": "Approval",
                        "params": [
                            {
                                "name": "owner",
                                "type": "address",
                                "value": "0x4903e6c7dd33a519087b5f96b142296af73c1ded"
                            },
                            {
                                "name": "spender",
                                "type": "address",
                                "value": "0x881d40237659c251811cec9c364ef91dc08d300c"
                            },
                            {
                                "decimalAvailable": true,
                                "name": "value",
                                "type": "uint256",
                                "value": "115,792,089,237,316,195,423,570,985,008,687,907,853,269,984,665,640,564,039,457,584,007,913,129,639,935"
                            }
                        ],
                        "signature": "Approval(address,address,uint256)"
                    },
                    "id": 2,
                    "logData": "0xffffffffffffffffffffffffffffffffffffffffffffffffffffffffffffffff",
                    "logDecoded": true,
                    "operation": "EVENT",
                    "revert": false,
                    "status": true,
                    "topics": [
                        "0x8c5be1e5ebec7d5bd14f71427d1e84f3dd0314c0f7b2291e5b200ac8c7c3b925",
                        "0x0000000000000000000000004903e6c7dd33a519087b5f96b142296af73c1ded",
                        "0x000000000000000000000000881d40237659c251811cec9c364ef91dc08d300c"
                    ]
                },
                "nodeType": 1
            }
        },
        "gasFlame": [
            {
                "children": [
                    {
                        "children": [
                            {
                                "children": [],
                                "depth": 0,
                                "name": "Initial Gas",
                                "value": 21944
                            },
                            {
                                "children": [
                                    {
                                        "children": [],
                                        "depth": 1,
                                        "name": "approve",
                                        "value": 24753
                                    }
                                ],
                                "depth": 0,
                                "name": "Executed Gas",
                                "value": 31991
                            }
                        ],
                        "depth": -1,
                        "name": "Actual Gas Used",
                        "value": 53935
                    },
                    {
                        "children": [],
                        "depth": -1,
                        "name": "Refunded Gas",
                        "value": 0
                    }
                ],
                "depth": -2,
                "name": "Total Gas",
                "value": 53935
            }
        ],
        "isConfirmed": true,
        "mainTrace": [
            {
                "children": [
                    {
                        "children": [
                            {
                                "children": [
                                    {
                                        "children": [],
                                        "depth": 2,
                                        "id": 2,
                                        "order": 2
                                    }
                                ],
                                "depth": 1,
                                "id": 1,
                                "order": 1
                            }
                        ],
                        "depth": 0,
                        "id": 0,
                        "order": 0
                    }
                ],
                "depth": -1,
                "id": -1,
                "order": -1
            }
        ],
        "mainTraceNodeCount": 3,
        "parentIdMap": {
            "0": -1,
            "1": 0,
            "2": 1
        },
        "tidyTrace": [
            {
                "children": [
                    {
                        "children": [
                            {
                                "children": [
                                    {
                                        "children": [],
                                        "depth": 2,
                                        "id": 2,
                                        "order": 2
                                    }
                                ],
                                "depth": 1,
                                "id": 1,
                                "order": 1
                            }
                        ],
                        "depth": 0,
                        "id": 0,
                        "order": 0
                    }
                ],
                "depth": -1,
                "id": -1,
                "order": -1
            }
        ],
        "tidyTraceNodeCount": 3
    },
    "state_change": {
        "stateChanges": [
            {
                "address": "0x7fc66500c84a76ad7e9c93437bfc5ac33e2ddae9",
                "erc": "ERC-20",
                "slots": [
                    {
                        "current": "0xffffffffffffffffffffffffffffffffffffffffffffffffffffffffffffffff",
                        "key": "0x62c9776deec34e9da56c000b86d2da58c5eaabee7d0f95d99958d1aac7d051ba",
                        "prev": "0x0000000000000000000000000000000000000000000000000000000000000000"
                    }
                ],
                "storageVariables": [
                    {
                        "name": "_allowances",
                        "type": "mapping(address => mapping(address => uint256))",
                        "value": {
                            "pairs": [
                                {
                                    "key": "0x4903e6c7dd33a519087b5f96b142296af73c1ded",
                                    "value": {
                                        "pairs": [
                                            {
                                                "key": "0x881d40237659c251811cec9c364ef91dc08d300c",
                                                "value": {
                                                    "current": "115792089237316195423570985008687907853269984665640564039457584007913129639935",
                                                    "prev": "0",
                                                    "typeTag": 1
                                                }
                                            }
                                        ],
                                        "typeTag": 4
                                    }
                                }
                            ],
                            "typeTag": 4
                        }
                    }
                ]
            }
        ]
    }
}