{
    "balance_change": {
        "balanceChanges": [
            {
                "account": "0xdfb44123134a294be58d55e4ea821aca4f7e3545",
                "assets": [
                    {
                        "address": "0x5da8d37485b4374fc338fc1f1ea31d07eb7bedd3",
                        "amount": "23",
                        "iconUrl": "",
                        "isERC1155": false,
                        "isERC721": false,
                        "sign": false,
                        "value": ""
                    }
                ]
            },
            {
                "account": "0x0000000000000000000000000000000000000000",
                "assets": [
                    {
                        "address": "0x5da8d37485b4374fc338fc1f1ea31d07eb7bedd3",
                        "amount": "14.766",
                        "iconUrl": "",
                        "isERC1155": false,
                        "isERC721": false,
                        "sign": true,
                        "value": ""
                    }
                ]
            },
            {
                "account": "0x2dc5a03407e21828af96fcdb7cc372b2e09c71f1",
                "assets": [
                    {
                        "address": "0x5da8d37485b4374fc338fc1f1ea31d07eb7bedd3",
                        "amount": "8.234",
                        "iconUrl": "",
                        "isERC1155": false,
                        "isERC721": false,
                        "sign": true,
                        "value": ""
                    }
                ]
            }
        ]
    },
    "profile": {
        "basic_info": {
            "baseFee": "",
            "blockNumber": 6726525,
            "callData": "0xd2a3899c00000000000000000000000000000000000000000000000000044364ca5f8c4b000000000000000000000000000000000000000000000000000000008917370000000000000000000000000000000000000000000000000000000000580320c0",
            "debugEnable": true,
            "errorInfo": "",
            "eventCount": 4,
            "feeRecipient": "0xb2930b35844a230f00e51431acae96fe543a0347",
            "formatValue": "0",
            "gasLimit": 100000,
            "gasPrice": "10",
            "gasUsed": 54835,
            "intTxnCount": 0,
            "internalRevert": false,
            "internalRevertMessage": "",
            "isContractCreation": false,
            "isFlashloan": false,
            "maxFee": "",
            "nonce": 9,
            "overwritedBlockNumber": -1,
            "priorityFee": "",
            "receiver": "0x5da8d37485b4374fc338fc1f1ea31d07eb7bedd3",
            "revertMessage": "",
            "sender": "0xdfb44123134a294be58d55e4ea821aca4f7e3545",
            "simulationEnable": true,
            "sourceTxnHash": "0xf00b841f6d1fcb9ff4c6ba7ba98f833e294c70d12bef324836a1a5125c037830",
            "status": true,
            "timestamp": "2018-11-18T09:04:13Z",
            "transactionFee": "0.00054835",
            "txnHash": "0xf00b841f6d1fcb9ff4c6ba7ba98f833e294c70d12bef324836a1a5125c037830",
            "txnIndex": 23,
            "type": 0,
            "value": "0"
        },
        "fund_flow": [
            {
                "amount": "8.234",
                "from": "0xdfb44123134a294be58d55e4ea821aca4f7e3545",
                "id": 1,
                "isERC1155": false,
                "isERC721": false,
                "isReverted": false,
                "order": 1,
                "to": "0x2dc5a03407e21828af96fcdb7cc372b2e09c71f1",
                "token": "0x5da8d37485b4374fc338fc1f1ea31d07eb7bedd3"
            },
            {
                "amount": "14.766",
                "from": "0xdfb44123134a294be58d55e4ea821aca4f7e3545",
                "id": 2,
                "isERC1155": false,
                "isERC721": false,
                "isReverted": false,
                "order": 2,
                "to": "0x0000000000000000000000000000000000000000",
                "token": "0x5da8d37485b4374fc338fc1f1ea31d07eb7bedd3"
            }
        ],
        "token_infos": [
            {
                "address": "0x5da8d37485b4374fc338fc1f1ea31d07eb7bedd3",
                "decimals": 8
            },
            {
                "address": "0xc02aaa39b223fe8d0a0e5c4f27ead9083c756cc2",
                "decimals": 18
            },
            {
                "address": "0xeeeeeeeeeeeeeeeeeeeeeeeeeeeeeeeeeeeeeeee",
                "decimals": 18
            }
        ]
    },
    "address_label": {
        "labels": [
            {
                "address": "0xeeeeeeeeeeeeeeeeeeeeeeeeeeeeeeeeeeeeeeee",
                "label": "Ether"
            },
            {
                "address": "0x5da8d37485b4374fc338fc1f1ea31d07eb7bedd3",
                "label": "Tuzy Coin (TUC)"
            },
            {
                "address": "0x0000000000000000000000000000000000000001",
                "label": "Precompiled"
            },
            {
                "address": "0x0000000000000000000000000000000000000002",
                "label": "Precompiled"
            },
            {
                "address": "0x0000000000000000000000000000000000000003",
                "label": "Precompiled"
            },
            {
                "address": "0x0000000000000000000000000000000000000004",
                "label": "Precompiled"
            }
        ]
    },
    "trace": {
        "accountLabels": null,
        "dataMap": {
            "-1": {
                "invocation": {
                    "address": "0xdfb44123134a294be58d55e4ea821aca4f7e3545",
                    "callData": "",
                    "decodedMethod": null,
                    "errorInfo": "",
                    "fromAddress": "",
                    "gasUsed": 0,
                    "id": -1,
                    "methodDecoded": false,
                    "operation": "",
                    "output": "",
                    "revert": false,
                    "revertMessage": "",
                    "selector": "",
                    "status": false,
                    "value": ""
                },
                "nodeType": 0
            },
            "0": {
                "invocation": {
                    "address": "0x5da8d37485b4374fc338fc1f1ea31d07eb7bedd3",
                    "callData": "0x00000000000000000000000000000000000000000000000000044364ca5f8c4b000000000000000000000000000000000000000000000000000000008917370000000000000000000000000000000000000000000000000000000000580320c0",
                    "decodedMethod": {
                        "callParams": [
                            {
                                "name": "_orderId",
                                "type": "uint256",
                                "value": "1,200,000,077,892,683"
                            },
                            {
                                "name": "_amount",
                                "type": "uint256",
                                "value": "2,300,000,000"
                            },
                            {
                                "name": "_burnAmount",
                                "type": "uint256",
                                "value": "1,476,600,000"
                            }
                        ],
                        "constructorArguments": "",
                        "name": "payOrder",
                        "returnParams": [],
                        "signature": "payOrder(uint256,uint256,uint256)"
                    },
                    "errorInfo": "",
                    "fromAddress": "0xdfb44123134a294be58d55e4ea821aca4f7e3545",
                    "gasUsed": 54835,
                    "id": 0,
                    "methodDecoded": true,
                    "operation": "CALL",
                    "output": "",
                    "revert": false,
                    "revertMessage": "",
                    "selector": "0xd2a3899c",
                    "status": true,
                    "value": "0"
                },
                "nodeType": 0
            },
            "1": {
                "event": {
                    "contract": "0x5da8d37485b4374fc338fc1f1ea31d07eb7bedd3",
                    "decodedLog": {
                        "name": "Transfer",
                        "params": [
                            {
                                "name": "from",
                                "type": "address",
                                "value": "0xdfb44123134a294be58d55e4ea821aca4f7e3545"
                            },
                            {
                                "name": "to",
                                "type": "address",
                                "value": "0x2dc5a03407e21828af96fcdb7cc372b2e09c71f1"
                            },
                            {
                                "decimalAvailable": true,
                                "name": "value",
                                "type": "uint256",
                                "value": "823,400,000"
                            }
                        ],
                        "signature": "Transfer(address,address,uint256)"
                    },
                    "id": 1,
                    "logData": "0x0000000000000000000000000000000000000000000000000000000031141640",
                    "logDecoded": true,
                    "operation": "EVENT",
                    "revert": false,
                    "status": true,
                    "topics": [
                        "0xddf252ad1be2c89b69c2b068fc378daa952ba7f163c4a11628f55a4df523b3ef",
                        "0x000000000000000000000000dfb44123134a294be58d55e4ea821aca4f7e3545",
                        "0x0000000000000000000000002dc5a03407e21828af96fcdb7cc372b2e09c71f1"
                    ]
                },
                "nodeType": 1
            },
            "2": {
                "event": {
                    "contract": "0x5da8d37485b4374fc338fc1f1ea31d07eb7bedd3",
                    "decodedLog": {
                        "name": "Burn",
                        "params": [
                            {
                                "name": "burner",
                                "type": "address",
                                "value": "0xdfb44123134a294be58d55e4ea821aca4f7e3545"
                            },
                            {
                                "name": "value",
                                "type": "uint256",
                                "value": "1,476,600,000"
                            }
                        ],
                        "signature": "Burn(address,uint256)"
                    },
                    "id": 2,
                    "logData": "0x00000000000000000000000000000000000000000000000000000000580320c0",
                    "logDecoded": true,
                    "operation": "EVENT",
                    "revert": false,
                    "status": true,
                    "topics": [
                        "0xcc16f5dbb4873280815c1ee09dbd06736cffcc184412cf7a71a0fdb75d397ca5",
                        "0x000000000000000000000000dfb44123134a294be58d55e4ea821aca4f7e3545"
                    ]
                },
                "nodeType": 1
            },
            "3": {
                "event": {
                    "contract": "0x5da8d37485b4374fc338fc1f1ea31d07eb7bedd3",
                    "decodedLog": {
                        "name": "Transfer",
                        "params": [
                            {
                                "name": "from",
                                "type": "address",
                                "value": "0xdfb44123134a294be58d55e4ea821aca4f7e3545"
                            },
                            {
                                "name": "to",
                                "type": "address",
                                "value": "0x0000000000000000000000000000000000000000"
                            },
                            {
                                "decimalAvailable": true,
                                "name": "value",
                                "type": "uint256",
                                "value": "1,476,600,000"
                            }
                        ],
                        "signature": "Transfer(address,address,uint256)"
                    },
                    "id": 3,
                    "logData": "0x00000000000000000000000000000000000000000000000000000000580320c0",
                    "logDecoded": true,
                    "operation": "EVENT",
                    "revert": false,
                    "status": true,
                    "topics": [
                        "0xddf252ad1be2c89b69c2b068fc378daa952ba7f163c4a11628f55a4df523b3ef",
                        "0x000000000000000000000000dfb44123134a294be58d55e4ea821aca4f7e3545",
                        "0x0000000000000000000000000000000000000000000000000000000000000000"
                    ]
                },
                "nodeType": 1
            },
            "4": {
                "event": {
                    "contract": "0x5da8d37485b4374fc338fc1f1ea31d07eb7bedd3",
                    "decodedLog": {
                        "name": "Pay",
                        "params": [
                            {
                                "name": "owner",
                                "type": "address",
                                "value": "0xdfb44123134a294be58d55e4ea821aca4f7e3545"
                            },
                            {
                                "name": "orderId",
                                "type": "uint256",
                                "value": "1,200,000,077,892,683"
                            },
                            {
                                "name": "amount",
                                "type": "uint256",
                                "value": "2,300,000,000"
                            },
                            {
                                "name": "burnAmount",
                                "type": "uint256",
                                "value": "1,476,600,000"
                            }
                        ],
                        "signature": "Pay(address,uint256,uint256,uint256)"
                    },
                    "id": 4,
                    "logData": "0x00000000000000000000000000000000000000000000000000044364ca5f8c4b000000000000000000000000000000000000000000000000000000008917370000000000000000000000000000000000000000000000000000000000580320c0",
                    "logDecoded": true,
                    "operation": "EVENT",
                    "revert": false,
                    "status": true,
                    "topics": [
                        "0xd133b80671e5a3f860649b812b907a135bacbba732b668f4f223f4ea55c34b1e",
                        "0x000000000000000000000000dfb44123134a294be58d55e4ea821aca4f7e3545"
                    ]
                },
                "nodeType": 1
            }
        },
        "gasFlame": [
            {
                "children": [
                    {
                        "children": [
                            {
                                "children": [],
                                "depth": 0,
                                "name": "Initial Gas",
                                "value": 22552
                            },
                            {
                                "children": [],
                                "depth": 0,
                                "name": "Executed Gas",
                                "value": 32283
                            }
                        ],
                        "depth": -1,
                        "name": "Actual Gas Used",
                        "value": 54835
                    },
                    {
                        "children": [],
                        "depth": -1,
                        "name": "Refunded Gas",
                        "value": 0
                    }
                ],
                "depth": -2,
                "name": "Total Gas",
                "value": 54835
            }
        ],
        "isConfirmed": true,
        "mainTrace": [
            {
                "children": [
                    {
                        "children": [
                            {
                                "children": [],
                                "depth": 1,
                                "id": 1,
                                "order": 1
                            },
                            {
                                "children": [],
                                "depth": 1,
                                "id": 2,
                                "order": 2
                            },
                            {
                                "children": [],
                                "depth": 1,
                                "id": 3,
                                "order": 3
                            },
                            {
                                "children": [],
                                "depth": 1,
                                "id": 4,
                                "order": 4
                            }
                        ],
                        "depth": 0,
                        "id": 0,
                        "order": 0
                    }
                ],
                "depth": -1,
                "id": -1,
                "order": -1
            }
        ],
        "mainTraceNodeCount": 5,
        "parentIdMap": {
            "0": -1,
            "1": 0,
            "2": 0,
            "3": 0,
            "4": 0
        },
        "tidyTrace": [
            {
                "children": [
                    {
                        "children": [
                            {
                                "children": [],
                                "depth": 1,
                                "id": 1,
                                "order": 1
                            },
                            {
                                "children": [],
                                "depth": 1,
                                "id": 2,
                                "order": 2
                            },
                            {
                                "children": [],
                                "depth": 1,
                                "id": 3,
                                "order": 3
                            },
                            {
                                "children": [],
                                "depth": 1,
                                "id": 4,
                                "order": 4
                            }
                        ],
                        "depth": 0,
                        "id": 0,
                        "order": 0
                    }
                ],
                "depth": -1,
                "id": -1,
                "order": -1
            }
        ],
        "tidyTraceNodeCount": 5
    },
    "state_change": {
        "stateChanges": [
            {
                "address": "0x5da8d37485b4374fc338fc1f1ea31d07eb7bedd3",
                "erc": "ERC-20",
                "slots": [
                    {
                        "current": "0x000000000000000000000000000000000000000000000000022e52457e61b2dd",
                        "key": "0x0000000000000000000000000000000000000000000000000000000000000001",
                        "prev": "0x000000000000000000000000000000000000000000000000022e5245d664d39d"
                    },
                    {
                        "current": "0x0000000000000000000000000000000000000000000000000000000649534e00",
                        "key": "0x5c49fef72f0a5506fcc902f533cce45abde77cd2931ae1bf8d63f06643f8dc60",
                        "prev": "0x00000000000000000000000000000000000000000000000000000006d26a8500"
                    },
                    {
                        "current": "0x0000000000000000000000000000000000000000000000000004ae148b9329dd",
                        "key": "0x3a00729d3a81af077063d782b30df5e4b2e0c3450341047543a57a9af4a6050b",
                        "prev": "0x0000000000000000000000000000000000000000000000000004ae145a7f139d"
                    }
                ],
                "storageVariables": [
                    {
                        "name": "totalSupply_",
                        "type": "uint256",
                        "value": {
                            "current": "157153495431099101",
                            "prev": "157153496907699101",
                            "typeTag": 1
                        }
                    },
                    {
                        "name": "balances",
                        "type": "mapping(address => uint256)",
                        "value": {
                            "pairs": [
                                {
                                    "key": "0x2dc5a03407e21828af96fcdb7cc372b2e09c71f1",
                                    "value": {
                                        "current": "1317303171099101",
                                        "prev": "1317302347699101",
                                        "typeTag": 1
                                    }
                                },
                                {
                                    "key": "0xdfb44123134a294be58d55e4ea821aca4f7e3545",
                                    "value": {
                                        "current": "27000000000",
                                        "prev": "29300000000",
                                        "typeTag": 1
                                    }
                                }
                            ],
                            "typeTag": 4
                        }
                    }
                ]
            }
        ]
    }
}