{
    "balance_change": {
        "balanceChanges": [
            {
                "account": "0x366afd37b3374d98299cadfa42aa2ab2ccb971d2",
                "assets": [
                    {
                        "address": "0x8fdcc30eda7e94f1c12ce0280df6cd531e8365c5",
                        "amount": "584.24066773",
                        "iconUrl": "",
                        "isERC1155": false,
                        "isERC721": false,
                        "sign": false,
                        "value": ""
                    }
                ]
            },
            {
                "account": "0x9074f62042584a94f34841084c5c5f10d0b79f6c",
                "assets": [
                    {
                        "address": "0x8fdcc30eda7e94f1c12ce0280df6cd531e8365c5",
                        "amount": "584.24066773",
                        "iconUrl": "",
                        "isERC1155": false,
                        "isERC721": false,
                        "sign": true,
                        "value": ""
                    }
                ]
            }
        ]
    },
    "profile": {
        "basic_info": {
            "baseFee": "",
            "blockNumber": 6774279,
            "callData": "0xa9059cbb0000000000000000000000009074f62042584a94f34841084c5c5f10d0b79f6c00000000000000000000000000000000000000000000001fabf7cfdc57acb400",
            "debugEnable": true,
            "errorInfo": "",
            "eventCount": 1,
            "feeRecipient": "0x5a0b54d5dc17e0aadc383d2db43b0a0d3e029c4c",
            "formatValue": "0",
            "gasLimit": 121000,
            "gasPrice": "6",
            "gasUsed": 22244,
            "intTxnCount": 0,
            "internalRevert": false,
            "internalRevertMessage": "",
            "isContractCreation": false,
            "isFlashloan": false,
            "maxFee": "",
            "nonce": 4,
            "overwritedBlockNumber": -1,
            "priorityFee": "",
            "receiver": "0x8fdcc30eda7e94f1c12ce0280df6cd531e8365c5",
            "revertMessage": "",
            "sender": "0x366afd37b3374d98299cadfa42aa2ab2ccb971d2",
            "simulationEnable": true,
            "sourceTxnHash": "0xf05e4802fba534c193c3e43beabd031346e7f0958959aa3ac383454f98fe0ac6",
            "status": true,
            "timestamp": "2018-11-26T05:07:06Z",
            "transactionFee": "0.000133464",
            "txnHash": "0xf05e4802fba534c193c3e43beabd031346e7f0958959aa3ac383454f98fe0ac6",
            "txnIndex": 60,
            "type": 0,
            "value": "0"
        },
        "fund_flow": [
            {
                "amount": "584.24066773",
                "from": "0x366afd37b3374d98299cadfa42aa2ab2ccb971d2",
                "id": 1,
                "isERC1155": false,
                "isERC721": false,
                "isReverted": false,
                "order": 1,
                "to": "0x9074f62042584a94f34841084c5c5f10d0b79f6c",
                "token": "0x8fdcc30eda7e94f1c12ce0280df6cd531e8365c5"
            }
        ],
        "token_infos": [
            {
                "address": "0x8fdcc30eda7e94f1c12ce0280df6cd531e8365c5",
                "decimals": 18
            },
            {
                "address": "0xc02aaa39b223fe8d0a0e5c4f27ead9083c756cc2",
                "decimals": 18
            },
            {
                "address": "0xeeeeeeeeeeeeeeeeeeeeeeeeeeeeeeeeeeeeeeee",
                "decimals": 18
            }
        ]
    },
    "address_label": {
        "labels": [
            {
                "address": "0x0000000000000000000000000000000000000002",
                "label": "Precompiled"
            },
            {
                "address": "0x0000000000000000000000000000000000000003",
                "label": "Precompiled"
            },
            {
                "address": "0x0000000000000000000000000000000000000004",
                "label": "Precompiled"
            },
            {
                "address": "0xeeeeeeeeeeeeeeeeeeeeeeeeeeeeeeeeeeeeeeee",
                "label": "Ether"
            },
            {
                "address": "0x8fdcc30eda7e94f1c12ce0280df6cd531e8365c5",
                "label": "CpcToken (CPCT)"
            },
            {
                "address": "0x0000000000000000000000000000000000000001",
                "label": "Precompiled"
            }
        ]
    },
    "trace": {
        "accountLabels": null,
        "dataMap": {
            "-1": {
                "invocation": {
                    "address": "0x366afd37b3374d98299cadfa42aa2ab2ccb971d2",
                    "callData": "",
                    "decodedMethod": null,
                    "errorInfo": "",
                    "fromAddress": "",
                    "gasUsed": 0,
                    "id": -1,
                    "methodDecoded": false,
                    "operation": "",
                    "output": "",
                    "revert": false,
                    "revertMessage": "",
                    "selector": "",
                    "status": false,
                    "value": ""
                },
                "nodeType": 0
            },
            "0": {
                "invocation": {
                    "address": "0x8fdcc30eda7e94f1c12ce0280df6cd531e8365c5",
                    "callData": "0x0000000000000000000000009074f62042584a94f34841084c5c5f10d0b79f6c00000000000000000000000000000000000000000000001fabf7cfdc57acb400",
                    "decodedMethod": {
                        "callParams": [
                            {
                                "name": "_to",
                                "type": "address",
                                "value": "0x9074f62042584a94f34841084c5c5f10d0b79f6c"
                            },
                            {
                                "decimalAvailable": true,
                                "name": "_value",
                                "type": "uint256",
                                "value": "584,240,667,730,000,000,000"
                            }
                        ],
                        "constructorArguments": "",
                        "name": "transfer",
                        "returnParams": [
                            {
                                "name": "success",
                                "type": "bool",
                                "value": true
                            }
                        ],
                        "signature": "transfer(address,uint256)"
                    },
                    "errorInfo": "",
                    "fromAddress": "0x366afd37b3374d98299cadfa42aa2ab2ccb971d2",
                    "gasUsed": 22244,
                    "id": 0,
                    "methodDecoded": true,
                    "operation": "CALL",
                    "output": "0x0000000000000000000000000000000000000000000000000000000000000001",
                    "revert": false,
                    "revertMessage": "",
                    "selector": "0xa9059cbb",
                    "status": true,
                    "value": "0"
                },
                "nodeType": 0
            },
            "1": {
                "event": {
                    "contract": "0x8fdcc30eda7e94f1c12ce0280df6cd531e8365c5",
                    "decodedLog": {
                        "name": "Transfer",
                        "params": [
                            {
                                "name": "_from",
                                "type": "address",
                                "value": "0x366afd37b3374d98299cadfa42aa2ab2ccb971d2"
                            },
                            {
                                "name": "_to",
                                "type": "address",
                                "value": "0x9074f62042584a94f34841084c5c5f10d0b79f6c"
                            },
                            {
                                "decimalAvailable": true,
                                "name": "_value",
                                "type": "uint256",
                                "value": "584,240,667,730,000,000,000"
                            }
                        ],
                        "signature": "Transfer(address,address,uint256)"
                    },
                    "id": 1,
                    "logData": "0x00000000000000000000000000000000000000000000001fabf7cfdc57acb400",
                    "logDecoded": true,
                    "operation": "EVENT",
                    "revert": false,
                    "status": true,
                    "topics": [
                        "0xddf252ad1be2c89b69c2b068fc378daa952ba7f163c4a11628f55a4df523b3ef",
                        "0x000000000000000000000000366afd37b3374d98299cadfa42aa2ab2ccb971d2",
                        "0x0000000000000000000000009074f62042584a94f34841084c5c5f10d0b79f6c"
                    ]
                },
                "nodeType": 1
            }
        },
        "gasFlame": [
            {
                "children": [
                    {
                        "children": [
                            {
                                "children": [],
                                "depth": 0,
                                "name": "Initial Gas",
                                "value": 23320
                            },
                            {
                                "children": [],
                                "depth": 0,
                                "name": "Executed Gas",
                                "value": 13924
                            }
                        ],
                        "depth": -1,
                        "name": "Actual Gas Used",
                        "value": 22244
                    },
                    {
                        "children": [],
                        "depth": -1,
                        "name": "Refunded Gas",
                        "value": 15000
                    }
                ],
                "depth": -2,
                "name": "Total Gas",
                "value": 37244
            }
        ],
        "isConfirmed": true,
        "mainTrace": [
            {
                "children": [
                    {
                        "children": [
                            {
                                "children": [],
                                "depth": 1,
                                "id": 1,
                                "order": 1
                            }
                        ],
                        "depth": 0,
                        "id": 0,
                        "order": 0
                    }
                ],
                "depth": -1,
                "id": -1,
                "order": -1
            }
        ],
        "mainTraceNodeCount": 2,
        "parentIdMap": {
            "0": -1,
            "1": 0
        },
        "tidyTrace": [
            {
                "children": [
                    {
                        "children": [
                            {
                                "children": [],
                                "depth": 1,
                                "id": 1,
                                "order": 1
                            }
                        ],
                        "depth": 0,
                        "id": 0,
                        "order": 0
                    }
                ],
                "depth": -1,
                "id": -1,
                "order": -1
            }
        ],
        "tidyTraceNodeCount": 2
    },
    "state_change": {
        "stateChanges": [
            {
                "address": "0x8fdcc30eda7e94f1c12ce0280df6cd531e8365c5",
                "erc": "ERC-20",
                "slots": [
                    {
                        "current": "0x0000000000000000000000000000000000000000000000000000000000000000",
                        "key": "0x735beac18906c81b83140bb3842f3e97071a39795343f3dbcbc56260670dd739",
                        "prev": "0x00000000000000000000000000000000000000000000001fabf7cfdc57acb400"
                    },
                    {
                        "current": "0x00000000000000000000000000000000000000000000005f03e76fc391ff5d7f",
                        "key": "0x281d4ac47278416e00b7c0f8a4b974ddfdbb1df038d83216649b2cd7697fff3b",
                        "prev": "0x00000000000000000000000000000000000000000000003f57ef9fe73a52a97f"
                    }
                ],
                "storageVariables": [
                    {
                        "name": "balances",
                        "type": "mapping(address => uint256)",
                        "value": {
                            "pairs": [
                                {
                                    "key": "0x366afd37b3374d98299cadfa42aa2ab2ccb971d2",
                                    "value": {
                                        "current": "0",
                                        "prev": "584240667730000000000",
                                        "typeTag": 1
                                    }
                                },
                                {
                                    "key": "0x9074f62042584a94f34841084c5c5f10d0b79f6c",
                                    "value": {
                                        "current": "1752722003389900086655",
                                        "prev": "1168481335659900086655",
                                        "typeTag": 1
                                    }
                                }
                            ],
                            "typeTag": 4
                        }
                    }
                ]
            }
        ]
    }
}