{
    "balance_change": {
        "balanceChanges": [
            {
                "account": "0x9d47dfb60adc1cbd15034a14c5454df373cd0e81",
                "assets": [
                    {
                        "address": "0x89d24a6b4ccb1b6faa2625fe562bdd9a23260359",
                        "amount": "1",
                        "iconUrl": "https://assets.blocksec.com/icon/ef749d775affba651ec0a3b1d637f71b140c748229531fb8d00c215d958a89f4.png",
                        "isERC1155": false,
                        "isERC721": false,
                        "sign": false,
                        "value": ""
                    },
                    {
                        "address": "0xf5dce57282a584d2746faf1593d3121fcac444dc",
                        "amount": "48.38129367",
                        "iconUrl": "",
                        "isERC1155": false,
                        "isERC721": false,
                        "sign": true,
                        "value": ""
                    }
                ]
            },
            {
                "account": "0xf5dce57282a584d2746faf1593d3121fcac444dc",
                "assets": [
                    {
                        "address": "0x89d24a6b4ccb1b6faa2625fe562bdd9a23260359",
                        "amount": "1",
                        "iconUrl": "https://assets.blocksec.com/icon/ef749d775affba651ec0a3b1d637f71b140c748229531fb8d00c215d958a89f4.png",
                        "isERC1155": false,
                        "isERC721": false,
                        "sign": true,
                        "value": ""
                    },
                    {
                        "address": "0xf5dce57282a584d2746faf1593d3121fcac444dc",
                        "amount": "48.38129367",
                        "iconUrl": "",
                        "isERC1155": false,
                        "isERC721": false,
                        "sign": false,
                        "value": ""
                    }
                ]
            }
        ]
    },
    "profile": {
        "basic_info": {
            "baseFee": "",
            "blockNumber": 8440201,
            "callData": "0xd4f5dc9400000000000000000000000000000000000000000000000000000000000000200000000000000000000000000000000000000000000000000000000000000002000000000000000000000000000000000000000000000000000000000000004000000000000000000000000000000000000000000000000000000000000001c000000000000000000000000089d24a6b4ccb1b6faa2625fe562bdd9a2326035900000000000000000000000000000000000000000000000000000000000001000000000000000000000000000000000000000000000000000000000000000000000000000000000000000000000000000000000000000000000000000000001cc741744d9d747fbe08859402b70182aa1344a0ce183db2978a1262198253669a056f655de97ef91b136addca4e0bc0b7a4fed4c3a65e3163e2049f7bc49455da0000000000000000000000002176a6acd0f20c8c5742c273d072fcc2311a92ac000000000000000000000000000000000000000000000000000000005d66c7230000000000000000000000000000000000000000000000000000000000000044095ea7b3000000000000000000000000f5dce57282a584d2746faf1593d3121fcac444dcffffffffffffffffffffffffffffffffffffffffffffffffffffffffffffffff00000000000000000000000000000000000000000000000000000000000000000000000000000000f5dce57282a584d2746faf1593d3121fcac444dc00000000000000000000000000000000000000000000000000000000000001000000000000000000000000000000000000000000000000000000000000000000000000000000000000000000000000000000000000000000000000000000001c486982a84cf2b7b79ffd10bb377cec90f7956a3b3c0721a7f7c6bfc39353608c27a1dd7a7e03f88f4f9de4739858a9f99debfa69f4262fb860e42006b7ac2b5b0000000000000000000000002176a6acd0f20c8c5742c273d072fcc2311a92ac000000000000000000000000000000000000000000000000000000005d66c7230000000000000000000000000000000000000000000000000000000000000024a0712d680000000000000000000000000000000000000000000000000de0b6b3a764000000000000000000000000000000000000000000000000000000000000",
            "debugEnable": true,
            "errorInfo": "",
            "eventCount": 9,
            "feeRecipient": "0xeea5b82b61424df8020f5fedd81767f2d0d25bfb",
            "formatValue": "0",
            "gasLimit": 423378,
            "gasPrice": "20",
            "gasUsed": 196569,
            "intTxnCount": 14,
            "internalRevert": false,
            "internalRevertMessage": "",
            "isContractCreation": false,
            "isFlashloan": false,
            "maxFee": "",
            "nonce": 24,
            "overwritedBlockNumber": -1,
            "priorityFee": "",
            "receiver": "0x9d47dfb60adc1cbd15034a14c5454df373cd0e81",
            "revertMessage": "",
            "sender": "0xe2b255dd452cb15e69b18b883e0c123298236f48",
            "simulationEnable": true,
            "sourceTxnHash": "0xf015aece5a4fb6168ff7eff69baeae1290fbf70e43b433314e3532194218b8d2",
            "status": true,
            "timestamp": "2019-08-28T18:25:36Z",
            "transactionFee": "0.00393138",
            "txnHash": "0xf015aece5a4fb6168ff7eff69baeae1290fbf70e43b433314e3532194218b8d2",
            "txnIndex": 45,
            "type": 0,
            "value": "0"
        },
        "fund_flow": [
            {
                "amount": "1",
                "from": "0x9d47dfb60adc1cbd15034a14c5454df373cd0e81",
                "id": 1,
                "isERC1155": false,
                "isERC721": false,
                "isReverted": false,
                "order": 1,
                "to": "0xf5dce57282a584d2746faf1593d3121fcac444dc",
                "token": "0x89d24a6b4ccb1b6faa2625fe562bdd9a23260359"
            },
            {
                "amount": "48.38129367",
                "from": "0xf5dce57282a584d2746faf1593d3121fcac444dc",
                "id": 2,
                "isERC1155": false,
                "isERC721": false,
                "isReverted": false,
                "order": 2,
                "to": "0x9d47dfb60adc1cbd15034a14c5454df373cd0e81",
                "token": "0xf5dce57282a584d2746faf1593d3121fcac444dc"
            }
        ],
        "token_infos": [
            {
                "address": "0xf5dce57282a584d2746faf1593d3121fcac444dc",
                "decimals": 8
            },
            {
                "address": "0xeeeeeeeeeeeeeeeeeeeeeeeeeeeeeeeeeeeeeeee",
                "decimals": 18
            },
            {
                "address": "0x89d24a6b4ccb1b6faa2625fe562bdd9a23260359",
                "decimals": 18
            },
            {
                "address": "0xc02aaa39b223fe8d0a0e5c4f27ead9083c756cc2",
                "decimals": 18
            }
        ]
    },
    "address_label": {
        "labels": [
            {
                "address": "0xf5dce57282a584d2746faf1593d3121fcac444dc",
                "label": "Compound Sai (cSAI)"
            },
            {
                "address": "0x3d9819210a31b4961b30ef54be2aed79b9c9cd3b",
                "label": "Compound: Comptroller"
            },
            {
                "address": "0x89d24a6b4ccb1b6faa2625fe562bdd9a23260359",
                "label": "Sai Stablecoin"
            },
            {
                "address": "0xd928c8ead620bb316d2cefe3caf81dc2dec6ff63",
                "label": "Compound: Rate Model 5"
            },
            {
                "address": "0x178053c06006e67e09879c09ff012ff9d263df29",
                "label": "Comptroller"
            },
            {
                "address": "0x0000000000000000000000000000000000000002",
                "label": "Precompiled"
            },
            {
                "address": "0xeeeeeeeeeeeeeeeeeeeeeeeeeeeeeeeeeeeeeeee",
                "label": "Ether"
            },
            {
                "address": "0x0000000000000000000000000000000000000003",
                "label": "Precompiled"
            },
            {
                "address": "0x0000000000000000000000000000000000000004",
                "label": "Precompiled"
            },
            {
                "address": "0x0000000000000000000000000000000000000001",
                "label": "Precompiled"
            }
        ]
    },
    "trace": {
        "accountLabels": null,
        "dataMap": {
            "-1": {
                "invocation": {
                    "address": "0xe2b255dd452cb15e69b18b883e0c123298236f48",
                    "callData": "",
                    "decodedMethod": null,
                    "errorInfo": "",
                    "fromAddress": "",
                    "gasUsed": 0,
                    "id": -1,
                    "methodDecoded": false,
                    "operation": "",
                    "output": "",
                    "revert": false,
                    "revertMessage": "",
                    "selector": "",
                    "status": false,
                    "value": ""
                },
                "nodeType": 0
            },
            "0": {
                "invocation": {
                    "address": "0x9d47dfb60adc1cbd15034a14c5454df373cd0e81",
                    "callData": "0x00000000000000000000000000000000000000000000000000000000000000200000000000000000000000000000000000000000000000000000000000000002000000000000000000000000000000000000000000000000000000000000004000000000000000000000000000000000000000000000000000000000000001c000000000000000000000000089d24a6b4ccb1b6faa2625fe562bdd9a2326035900000000000000000000000000000000000000000000000000000000000001000000000000000000000000000000000000000000000000000000000000000000000000000000000000000000000000000000000000000000000000000000001cc741744d9d747fbe08859402b70182aa1344a0ce183db2978a1262198253669a056f655de97ef91b136addca4e0bc0b7a4fed4c3a65e3163e2049f7bc49455da0000000000000000000000002176a6acd0f20c8c5742c273d072fcc2311a92ac000000000000000000000000000000000000000000000000000000005d66c7230000000000000000000000000000000000000000000000000000000000000044095ea7b3000000000000000000000000f5dce57282a584d2746faf1593d3121fcac444dcffffffffffffffffffffffffffffffffffffffffffffffffffffffffffffffff00000000000000000000000000000000000000000000000000000000000000000000000000000000f5dce57282a584d2746faf1593d3121fcac444dc00000000000000000000000000000000000000000000000000000000000001000000000000000000000000000000000000000000000000000000000000000000000000000000000000000000000000000000000000000000000000000000001c486982a84cf2b7b79ffd10bb377cec90f7956a3b3c0721a7f7c6bfc39353608c27a1dd7a7e03f88f4f9de4739858a9f99debfa69f4262fb860e42006b7ac2b5b0000000000000000000000002176a6acd0f20c8c5742c273d072fcc2311a92ac000000000000000000000000000000000000000000000000000000005d66c7230000000000000000000000000000000000000000000000000000000000000024a0712d680000000000000000000000000000000000000000000000000de0b6b3a764000000000000000000000000000000000000000000000000000000000000",
                    "decodedMethod": null,
                    "errorInfo": "",
                    "fromAddress": "0xe2b255dd452cb15e69b18b883e0c123298236f48",
                    "gasUsed": 196569,
                    "id": 0,
                    "methodDecoded": false,
                    "operation": "CALL",
                    "output": "",
                    "revert": false,
                    "revertMessage": "",
                    "selector": "0xd4f5dc94",
                    "status": true,
                    "value": "0"
                },
                "nodeType": 0
            },
            "1": {
                "event": {
                    "contract": "0x9d47dfb60adc1cbd15034a14c5454df373cd0e81",
                    "decodedLog": null,
                    "id": 1,
                    "logData": "0x00000000000000000000000089d24a6b4ccb1b6faa2625fe562bdd9a232603590000000000000000000000002176a6acd0f20c8c5742c273d072fcc2311a92ac",
                    "logDecoded": false,
                    "operation": "EVENT",
                    "revert": false,
                    "status": true,
                    "topics": [
                        "0x74d34c6fe876d2d910521ea7c31bdea6530879732d5e8fa3781ce25171fa1760"
                    ]
                },
                "nodeType": 1
            },
            "10": {
                "invocation": {
                    "address": "0xd928c8ead620bb316d2cefe3caf81dc2dec6ff63",
                    "callData": "0x00000000000000000000000000000000000000000007157f74a9c5ffcbaa5b230000000000000000000000000000000000000000001672790a8bfebbbfc92179000000000000000000000000000000000000000000000fecd69574aeb834e513",
                    "decodedMethod": {
                        "callParams": [
                            {
                                "name": "cash",
                                "type": "uint256",
                                "value": "8,564,001,576,407,909,773,499,171"
                            },
                            {
                                "name": "borrows",
                                "type": "uint256",
                                "value": "27,136,950,626,582,944,725,672,313"
                            },
                            {
                                "name": "_reserves",
                                "type": "uint256",
                                "value": "75,204,391,237,629,542,458,643"
                            }
                        ],
                        "constructorArguments": "",
                        "name": "getBorrowRate",
                        "returnParams": [
                            {
                                "name": "",
                                "type": "uint256",
                                "value": "0"
                            },
                            {
                                "name": "",
                                "type": "uint256",
                                "value": "78,014,535,687"
                            }
                        ],
                        "signature": "getBorrowRate(uint256,uint256,uint256)"
                    },
                    "errorInfo": "",
                    "fromAddress": "0xf5dce57282a584d2746faf1593d3121fcac444dc",
                    "gasUsed": 4203,
                    "id": 10,
                    "methodDecoded": true,
                    "operation": "STATICCALL",
                    "output": "0x0000000000000000000000000000000000000000000000000000000000000000000000000000000000000000000000000000000000000000000000122a075807",
                    "revert": false,
                    "revertMessage": "",
                    "selector": "0x15f24053",
                    "status": true,
                    "value": "0"
                },
                "nodeType": 0
            },
            "11": {
                "event": {
                    "contract": "0xf5dce57282a584d2746faf1593d3121fcac444dc",
                    "decodedLog": {
                        "name": "AccrueInterest",
                        "params": [
                            {
                                "name": "interestAccumulated",
                                "type": "uint256",
                                "value": "0"
                            },
                            {
                                "name": "borrowIndex",
                                "type": "uint256",
                                "value": "1,050,747,666,293,373,977"
                            },
                            {
                                "name": "totalBorrows",
                                "type": "uint256",
                                "value": "27,136,950,626,582,944,725,672,313"
                            }
                        ],
                        "signature": "AccrueInterest(uint256,uint256,uint256)"
                    },
                    "id": 11,
                    "logData": "0x00000000000000000000000000000000000000000000000000000000000000000000000000000000000000000000000000000000000000000e95016f75fcbc190000000000000000000000000000000000000000001672790a8bfebbbfc92179",
                    "logDecoded": true,
                    "operation": "EVENT",
                    "revert": false,
                    "status": true,
                    "topics": [
                        "0x875352fb3fadeb8c0be7cbbe8ff761b308fa7033470cd0287f02f3436fd76cb9"
                    ]
                },
                "nodeType": 1
            },
            "12": {
                "invocation": {
                    "address": "0x3d9819210a31b4961b30ef54be2aed79b9c9cd3b",
                    "callData": "0x000000000000000000000000f5dce57282a584d2746faf1593d3121fcac444dc0000000000000000000000009d47dfb60adc1cbd15034a14c5454df373cd0e810000000000000000000000000000000000000000000000000de0b6b3a7640000",
                    "decodedMethod": {
                        "callParams": [
                            {
                                "name": "cToken",
                                "type": "address",
                                "value": "0xf5dce57282a584d2746faf1593d3121fcac444dc"
                            },
                            {
                                "name": "minter",
                                "type": "address",
                                "value": "0x9d47dfb60adc1cbd15034a14c5454df373cd0e81"
                            },
                            {
                                "name": "mintAmount",
                                "type": "uint256",
                                "value": "1,000,000,000,000,000,000"
                            }
                        ],
                        "constructorArguments": "",
                        "name": "mintAllowed",
                        "returnParams": [
                            {
                                "name": "",
                                "type": "uint256",
                                "value": "0"
                            }
                        ],
                        "signature": "mintAllowed(address,address,uint256)"
                    },
                    "errorInfo": "",
                    "fromAddress": "0xf5dce57282a584d2746faf1593d3121fcac444dc",
                    "gasUsed": 2052,
                    "id": 12,
                    "methodDecoded": true,
                    "operation": "CALL",
                    "output": "0x0000000000000000000000000000000000000000000000000000000000000000",
                    "revert": false,
                    "revertMessage": "",
                    "selector": "0x4ef4c3e1",
                    "status": true,
                    "value": "0"
                },
                "nodeType": 0
            },
            "13": {
                "invocation": {
                    "address": "0x178053c06006e67e09879c09ff012ff9d263df29",
                    "callData": "0x000000000000000000000000f5dce57282a584d2746faf1593d3121fcac444dc0000000000000000000000009d47dfb60adc1cbd15034a14c5454df373cd0e810000000000000000000000000000000000000000000000000de0b6b3a7640000",
                    "decodedMethod": {
                        "callParams": [
                            {
                                "name": "cToken",
                                "type": "address",
                                "value": "0xf5dce57282a584d2746faf1593d3121fcac444dc"
                            },
                            {
                                "name": "minter",
                                "type": "address",
                                "value": "0x9d47dfb60adc1cbd15034a14c5454df373cd0e81"
                            },
                            {
                                "name": "mintAmount",
                                "type": "uint256",
                                "value": "1,000,000,000,000,000,000"
                            }
                        ],
                        "constructorArguments": "",
                        "name": "mintAllowed",
                        "returnParams": [
                            {
                                "name": "",
                                "type": "uint256",
                                "value": "0"
                            }
                        ],
                        "signature": "mintAllowed(address,address,uint256)"
                    },
                    "errorInfo": "",
                    "fromAddress": "0x3d9819210a31b4961b30ef54be2aed79b9c9cd3b",
                    "gasUsed": 672,
                    "id": 13,
                    "methodDecoded": true,
                    "operation": "DELEGATECALL",
                    "output": "0x0000000000000000000000000000000000000000000000000000000000000000",
                    "revert": false,
                    "revertMessage": "",
                    "selector": "0x4ef4c3e1",
                    "status": true,
                    "value": "0"
                },
                "nodeType": 0
            },
            "14": {
                "invocation": {
                    "address": "0x89d24a6b4ccb1b6faa2625fe562bdd9a23260359",
                    "callData": "0x0000000000000000000000009d47dfb60adc1cbd15034a14c5454df373cd0e81000000000000000000000000f5dce57282a584d2746faf1593d3121fcac444dc",
                    "decodedMethod": {
                        "callParams": [
                            {
                                "name": "src",
                                "type": "address",
                                "value": "0x9d47dfb60adc1cbd15034a14c5454df373cd0e81"
                            },
                            {
                                "name": "guy",
                                "type": "address",
                                "value": "0xf5dce57282a584d2746faf1593d3121fcac444dc"
                            }
                        ],
                        "constructorArguments": "",
                        "name": "allowance",
                        "returnParams": [
                            {
                                "decimalAvailable": true,
                                "name": "",
                                "type": "uint256",
                                "value": "115,792,089,237,316,195,423,570,985,008,687,907,853,269,984,665,640,564,039,457,584,007,913,129,639,935"
                            }
                        ],
                        "signature": "allowance(address,address)"
                    },
                    "errorInfo": "",
                    "fromAddress": "0xf5dce57282a584d2746faf1593d3121fcac444dc",
                    "gasUsed": 1203,
                    "id": 14,
                    "methodDecoded": true,
                    "operation": "STATICCALL",
                    "output": "0xffffffffffffffffffffffffffffffffffffffffffffffffffffffffffffffff",
                    "revert": false,
                    "revertMessage": "",
                    "selector": "0xdd62ed3e",
                    "status": true,
                    "value": "0"
                },
                "nodeType": 0
            },
            "15": {
                "invocation": {
                    "address": "0x89d24a6b4ccb1b6faa2625fe562bdd9a23260359",
                    "callData": "0x0000000000000000000000009d47dfb60adc1cbd15034a14c5454df373cd0e81",
                    "decodedMethod": {
                        "callParams": [
                            {
                                "name": "src",
                                "type": "address",
                                "value": "0x9d47dfb60adc1cbd15034a14c5454df373cd0e81"
                            }
                        ],
                        "constructorArguments": "",
                        "name": "balanceOf",
                        "returnParams": [
                            {
                                "decimalAvailable": true,
                                "name": "",
                                "type": "uint256",
                                "value": "1,000,000,000,000,000,000"
                            }
                        ],
                        "signature": "balanceOf(address)"
                    },
                    "errorInfo": "",
                    "fromAddress": "0xf5dce57282a584d2746faf1593d3121fcac444dc",
                    "gasUsed": 815,
                    "id": 15,
                    "methodDecoded": true,
                    "operation": "STATICCALL",
                    "output": "0x0000000000000000000000000000000000000000000000000de0b6b3a7640000",
                    "revert": false,
                    "revertMessage": "",
                    "selector": "0x70a08231",
                    "status": true,
                    "value": "0"
                },
                "nodeType": 0
            },
            "16": {
                "invocation": {
                    "address": "0x89d24a6b4ccb1b6faa2625fe562bdd9a23260359",
                    "callData": "0x000000000000000000000000f5dce57282a584d2746faf1593d3121fcac444dc",
                    "decodedMethod": {
                        "callParams": [
                            {
                                "name": "src",
                                "type": "address",
                                "value": "0xf5dce57282a584d2746faf1593d3121fcac444dc"
                            }
                        ],
                        "constructorArguments": "",
                        "name": "balanceOf",
                        "returnParams": [
                            {
                                "decimalAvailable": true,
                                "name": "",
                                "type": "uint256",
                                "value": "8,564,001,576,407,909,773,499,171"
                            }
                        ],
                        "signature": "balanceOf(address)"
                    },
                    "errorInfo": "",
                    "fromAddress": "0xf5dce57282a584d2746faf1593d3121fcac444dc",
                    "gasUsed": 815,
                    "id": 16,
                    "methodDecoded": true,
                    "operation": "STATICCALL",
                    "output": "0x00000000000000000000000000000000000000000007157f74a9c5ffcbaa5b23",
                    "revert": false,
                    "revertMessage": "",
                    "selector": "0x70a08231",
                    "status": true,
                    "value": "0"
                },
                "nodeType": 0
            },
            "17": {
                "invocation": {
                    "address": "0x89d24a6b4ccb1b6faa2625fe562bdd9a23260359",
                    "callData": "0x0000000000000000000000009d47dfb60adc1cbd15034a14c5454df373cd0e81000000000000000000000000f5dce57282a584d2746faf1593d3121fcac444dc0000000000000000000000000000000000000000000000000de0b6b3a7640000",
                    "decodedMethod": {
                        "callParams": [
                            {
                                "name": "src",
                                "type": "address",
                                "value": "0x9d47dfb60adc1cbd15034a14c5454df373cd0e81"
                            },
                            {
                                "name": "dst",
                                "type": "address",
                                "value": "0xf5dce57282a584d2746faf1593d3121fcac444dc"
                            },
                            {
                                "decimalAvailable": true,
                                "name": "wad",
                                "type": "uint256",
                                "value": "1,000,000,000,000,000,000"
                            }
                        ],
                        "constructorArguments": "",
                        "name": "transferFrom",
                        "returnParams": [
                            {
                                "name": "",
                                "type": "bool",
                                "value": true
                            }
                        ],
                        "signature": "transferFrom(address,address,uint256)"
                    },
                    "errorInfo": "",
                    "fromAddress": "0xf5dce57282a584d2746faf1593d3121fcac444dc",
                    "gasUsed": 14247,
                    "id": 17,
                    "methodDecoded": true,
                    "operation": "CALL",
                    "output": "0x0000000000000000000000000000000000000000000000000000000000000001",
                    "revert": false,
                    "revertMessage": "",
                    "selector": "0x23b872dd",
                    "status": true,
                    "value": "0"
                },
                "nodeType": 0
            },
            "18": {
                "event": {
                    "contract": "0x89d24a6b4ccb1b6faa2625fe562bdd9a23260359",
                    "decodedLog": {
                        "name": "Transfer",
                        "params": [
                            {
                                "name": "src",
                                "type": "address",
                                "value": "0x9d47dfb60adc1cbd15034a14c5454df373cd0e81"
                            },
                            {
                                "name": "dst",
                                "type": "address",
                                "value": "0xf5dce57282a584d2746faf1593d3121fcac444dc"
                            },
                            {
                                "decimalAvailable": true,
                                "name": "wad",
                                "type": "uint256",
                                "value": "1,000,000,000,000,000,000"
                            }
                        ],
                        "signature": "Transfer(address,address,uint256)"
                    },
                    "id": 18,
                    "logData": "0x0000000000000000000000000000000000000000000000000de0b6b3a7640000",
                    "logDecoded": true,
                    "operation": "EVENT",
                    "revert": false,
                    "status": true,
                    "topics": [
                        "0xddf252ad1be2c89b69c2b068fc378daa952ba7f163c4a11628f55a4df523b3ef",
                        "0x0000000000000000000000009d47dfb60adc1cbd15034a14c5454df373cd0e81",
                        "0x000000000000000000000000f5dce57282a584d2746faf1593d3121fcac444dc"
                    ]
                },
                "nodeType": 1
            },
            "19": {
                "event": {
                    "contract": "0xf5dce57282a584d2746faf1593d3121fcac444dc",
                    "decodedLog": {
                        "name": "Mint",
                        "params": [
                            {
                                "name": "minter",
                                "type": "address",
                                "value": "0x9d47dfb60adc1cbd15034a14c5454df373cd0e81"
                            },
                            {
                                "name": "mintAmount",
                                "type": "uint256",
                                "value": "1,000,000,000,000,000,000"
                            },
                            {
                                "name": "mintTokens",
                                "type": "uint256",
                                "value": "4,838,129,367"
                            }
                        ],
                        "signature": "Mint(address,uint256,uint256)"
                    },
                    "id": 19,
                    "logData": "0x0000000000000000000000009d47dfb60adc1cbd15034a14c5454df373cd0e810000000000000000000000000000000000000000000000000de0b6b3a764000000000000000000000000000000000000000000000000000000000001205ffed7",
                    "logDecoded": true,
                    "operation": "EVENT",
                    "revert": false,
                    "status": true,
                    "topics": [
                        "0x4c209b5fc8ad50758f13e2e1088ba56a560dff690a1c6fef26394f4c03821c4f"
                    ]
                },
                "nodeType": 1
            },
            "2": {
                "invocation": {
                    "address": "0x0000000000000000000000000000000000000001",
                    "callData": "0x2b06b570c51f710f898f884dffe41b1336a3d4ab2722f90aa5220f97000000000000000000000000000000000000000000000000000000000000001cc741744d9d747fbe08859402b70182aa1344a0ce183db2978a1262198253669a056f655de97ef91b136addca4e0bc0b7a4fed4c3a65e3163e2049f7bc49455da",
                    "decodedMethod": {
                        "callParams": [
                            {
                                "name": "hash",
                                "type": "bytes32",
                                "value": "0xbb26dd7b2b06b570c51f710f898f884dffe41b1336a3d4ab2722f90aa5220f97"
                            },
                            {
                                "name": "v",
                                "type": "uint256",
                                "value": "28"
                            },
                            {
                                "name": "r",
                                "type": "bytes32",
                                "value": "0xc741744d9d747fbe08859402b70182aa1344a0ce183db2978a1262198253669a"
                            },
                            {
                                "name": "s",
                                "type": "bytes32",
                                "value": "0x056f655de97ef91b136addca4e0bc0b7a4fed4c3a65e3163e2049f7bc49455da"
                            }
                        ],
                        "constructorArguments": "",
                        "name": "ecrecover",
                        "returnParams": [
                            {
                                "name": "",
                                "type": "address",
                                "value": "0x2176a6acd0f20c8c5742c273d072fcc2311a92ac"
                            }
                        ],
                        "signature": "ecrecover(bytes32,uint256,bytes32,bytes32)"
                    },
                    "errorInfo": "",
                    "fromAddress": "0x9d47dfb60adc1cbd15034a14c5454df373cd0e81",
                    "gasUsed": 3000,
                    "id": 2,
                    "methodDecoded": true,
                    "operation": "CALL",
                    "output": "0x0000000000000000000000002176a6acd0f20c8c5742c273d072fcc2311a92ac",
                    "revert": false,
                    "revertMessage": "",
                    "selector": "0xbb26dd7b",
                    "status": true,
                    "value": "0"
                },
                "nodeType": 0
            },
            "20": {
                "event": {
                    "contract": "0xf5dce57282a584d2746faf1593d3121fcac444dc",
                    "decodedLog": {
                        "name": "Transfer",
                        "params": [
                            {
                                "name": "from",
                                "type": "address",
                                "value": "0xf5dce57282a584d2746faf1593d3121fcac444dc"
                            },
                            {
                                "name": "to",
                                "type": "address",
                                "value": "0x9d47dfb60adc1cbd15034a14c5454df373cd0e81"
                            },
                            {
                                "decimalAvailable": true,
                                "name": "amount",
                                "type": "uint256",
                                "value": "4,838,129,367"
                            }
                        ],
                        "signature": "Transfer(address,address,uint256)"
                    },
                    "id": 20,
                    "logData": "0x00000000000000000000000000000000000000000000000000000001205ffed7",
                    "logDecoded": true,
                    "operation": "EVENT",
                    "revert": false,
                    "status": true,
                    "topics": [
                        "0xddf252ad1be2c89b69c2b068fc378daa952ba7f163c4a11628f55a4df523b3ef",
                        "0x000000000000000000000000f5dce57282a584d2746faf1593d3121fcac444dc",
                        "0x0000000000000000000000009d47dfb60adc1cbd15034a14c5454df373cd0e81"
                    ]
                },
                "nodeType": 1
            },
            "21": {
                "invocation": {
                    "address": "0x3d9819210a31b4961b30ef54be2aed79b9c9cd3b",
                    "callData": "0x000000000000000000000000f5dce57282a584d2746faf1593d3121fcac444dc0000000000000000000000009d47dfb60adc1cbd15034a14c5454df373cd0e810000000000000000000000000000000000000000000000000de0b6b3a764000000000000000000000000000000000000000000000000000000000001205ffed7",
                    "decodedMethod": {
                        "callParams": [
                            {
                                "name": "cToken",
                                "type": "address",
                                "value": "0xf5dce57282a584d2746faf1593d3121fcac444dc"
                            },
                            {
                                "name": "minter",
                                "type": "address",
                                "value": "0x9d47dfb60adc1cbd15034a14c5454df373cd0e81"
                            },
                            {
                                "name": "mintAmount",
                                "type": "uint256",
                                "value": "1,000,000,000,000,000,000"
                            },
                            {
                                "name": "mintTokens",
                                "type": "uint256",
                                "value": "4,838,129,367"
                            }
                        ],
                        "constructorArguments": "",
                        "name": "mintVerify",
                        "returnParams": [],
                        "signature": "mintVerify(address,address,uint256,uint256)"
                    },
                    "errorInfo": "",
                    "fromAddress": "0xf5dce57282a584d2746faf1593d3121fcac444dc",
                    "gasUsed": 1672,
                    "id": 21,
                    "methodDecoded": true,
                    "operation": "CALL",
                    "output": "",
                    "revert": false,
                    "revertMessage": "",
                    "selector": "0x41c728b9",
                    "status": true,
                    "value": "0"
                },
                "nodeType": 0
            },
            "22": {
                "invocation": {
                    "address": "0x178053c06006e67e09879c09ff012ff9d263df29",
                    "callData": "0x000000000000000000000000f5dce57282a584d2746faf1593d3121fcac444dc0000000000000000000000009d47dfb60adc1cbd15034a14c5454df373cd0e810000000000000000000000000000000000000000000000000de0b6b3a764000000000000000000000000000000000000000000000000000000000001205ffed7",
                    "decodedMethod": {
                        "callParams": [
                            {
                                "name": "cToken",
                                "type": "address",
                                "value": "0xf5dce57282a584d2746faf1593d3121fcac444dc"
                            },
                            {
                                "name": "minter",
                                "type": "address",
                                "value": "0x9d47dfb60adc1cbd15034a14c5454df373cd0e81"
                            },
                            {
                                "name": "mintAmount",
                                "type": "uint256",
                                "value": "1,000,000,000,000,000,000"
                            },
                            {
                                "name": "mintTokens",
                                "type": "uint256",
                                "value": "4,838,129,367"
                            }
                        ],
                        "constructorArguments": "",
                        "name": "mintVerify",
                        "returnParams": [],
                        "signature": "mintVerify(address,address,uint256,uint256)"
                    },
                    "errorInfo": "",
                    "fromAddress": "0x3d9819210a31b4961b30ef54be2aed79b9c9cd3b",
                    "gasUsed": 359,
                    "id": 22,
                    "methodDecoded": true,
                    "operation": "DELEGATECALL",
                    "output": "",
                    "revert": false,
                    "revertMessage": "",
                    "selector": "0x41c728b9",
                    "status": true,
                    "value": "0"
                },
                "nodeType": 0
            },
            "23": {
                "event": {
                    "contract": "0x9d47dfb60adc1cbd15034a14c5454df373cd0e81",
                    "decodedLog": null,
                    "id": 23,
                    "logData": "0x000000000000000000000000f5dce57282a584d2746faf1593d3121fcac444dc0000000000000000000000002176a6acd0f20c8c5742c273d072fcc2311a92ac",
                    "logDecoded": false,
                    "operation": "EVENT",
                    "revert": false,
                    "status": true,
                    "topics": [
                        "0x9ae6eab77ab97680a0708bbb21af686ae24276636c6aa70f8a02f4cccd49499b"
                    ]
                },
                "nodeType": 1
            },
            "3": {
                "invocation": {
                    "address": "0x89d24a6b4ccb1b6faa2625fe562bdd9a23260359",
                    "callData": "0x000000000000000000000000f5dce57282a584d2746faf1593d3121fcac444dcffffffffffffffffffffffffffffffffffffffffffffffffffffffffffffffff00000000000000000000000000000000000000000000000000000000",
                    "decodedMethod": {
                        "callParams": [
                            {
                                "name": "guy",
                                "type": "address",
                                "value": "0xf5dce57282a584d2746faf1593d3121fcac444dc"
                            },
                            {
                                "decimalAvailable": true,
                                "name": "wad",
                                "type": "uint256",
                                "value": "115,792,089,237,316,195,423,570,985,008,687,907,853,269,984,665,640,564,039,457,584,007,913,129,639,935"
                            }
                        ],
                        "constructorArguments": "",
                        "name": "approve",
                        "returnParams": [
                            {
                                "name": "",
                                "type": "bool",
                                "value": true
                            }
                        ],
                        "signature": "approve(address,uint256)"
                    },
                    "errorInfo": "",
                    "fromAddress": "0x9d47dfb60adc1cbd15034a14c5454df373cd0e81",
                    "gasUsed": 7729,
                    "id": 3,
                    "methodDecoded": true,
                    "operation": "CALL",
                    "output": "0x0000000000000000000000000000000000000000000000000000000000000001",
                    "revert": false,
                    "revertMessage": "",
                    "selector": "0x095ea7b3",
                    "status": true,
                    "value": "0"
                },
                "nodeType": 0
            },
            "4": {
                "event": {
                    "contract": "0x89d24a6b4ccb1b6faa2625fe562bdd9a23260359",
                    "decodedLog": {
                        "name": "Approval",
                        "params": [
                            {
                                "name": "src",
                                "type": "address",
                                "value": "0x9d47dfb60adc1cbd15034a14c5454df373cd0e81"
                            },
                            {
                                "name": "guy",
                                "type": "address",
                                "value": "0xf5dce57282a584d2746faf1593d3121fcac444dc"
                            },
                            {
                                "decimalAvailable": true,
                                "name": "wad",
                                "type": "uint256",
                                "value": "115,792,089,237,316,195,423,570,985,008,687,907,853,269,984,665,640,564,039,457,584,007,913,129,639,935"
                            }
                        ],
                        "signature": "Approval(address,address,uint256)"
                    },
                    "id": 4,
                    "logData": "0xffffffffffffffffffffffffffffffffffffffffffffffffffffffffffffffff",
                    "logDecoded": true,
                    "operation": "EVENT",
                    "revert": false,
                    "status": true,
                    "topics": [
                        "0x8c5be1e5ebec7d5bd14f71427d1e84f3dd0314c0f7b2291e5b200ac8c7c3b925",
                        "0x0000000000000000000000009d47dfb60adc1cbd15034a14c5454df373cd0e81",
                        "0x000000000000000000000000f5dce57282a584d2746faf1593d3121fcac444dc"
                    ]
                },
                "nodeType": 1
            },
            "5": {
                "event": {
                    "contract": "0x9d47dfb60adc1cbd15034a14c5454df373cd0e81",
                    "decodedLog": null,
                    "id": 5,
                    "logData": "0x00000000000000000000000089d24a6b4ccb1b6faa2625fe562bdd9a232603590000000000000000000000002176a6acd0f20c8c5742c273d072fcc2311a92ac",
                    "logDecoded": false,
                    "operation": "EVENT",
                    "revert": false,
                    "status": true,
                    "topics": [
                        "0x9ae6eab77ab97680a0708bbb21af686ae24276636c6aa70f8a02f4cccd49499b"
                    ]
                },
                "nodeType": 1
            },
            "6": {
                "event": {
                    "contract": "0x9d47dfb60adc1cbd15034a14c5454df373cd0e81",
                    "decodedLog": null,
                    "id": 6,
                    "logData": "0x000000000000000000000000f5dce57282a584d2746faf1593d3121fcac444dc0000000000000000000000002176a6acd0f20c8c5742c273d072fcc2311a92ac",
                    "logDecoded": false,
                    "operation": "EVENT",
                    "revert": false,
                    "status": true,
                    "topics": [
                        "0x74d34c6fe876d2d910521ea7c31bdea6530879732d5e8fa3781ce25171fa1760"
                    ]
                },
                "nodeType": 1
            },
            "7": {
                "invocation": {
                    "address": "0x0000000000000000000000000000000000000001",
                    "callData": "0xd412231d91df4c575ebb25d09280a593927ac7e7e278371f4d834191000000000000000000000000000000000000000000000000000000000000001c486982a84cf2b7b79ffd10bb377cec90f7956a3b3c0721a7f7c6bfc39353608c27a1dd7a7e03f88f4f9de4739858a9f99debfa69f4262fb860e42006b7ac2b5b",
                    "decodedMethod": {
                        "callParams": [
                            {
                                "name": "hash",
                                "type": "bytes32",
                                "value": "0x164e43a4d412231d91df4c575ebb25d09280a593927ac7e7e278371f4d834191"
                            },
                            {
                                "name": "v",
                                "type": "uint256",
                                "value": "28"
                            },
                            {
                                "name": "r",
                                "type": "bytes32",
                                "value": "0x486982a84cf2b7b79ffd10bb377cec90f7956a3b3c0721a7f7c6bfc39353608c"
                            },
                            {
                                "name": "s",
                                "type": "bytes32",
                                "value": "0x27a1dd7a7e03f88f4f9de4739858a9f99debfa69f4262fb860e42006b7ac2b5b"
                            }
                        ],
                        "constructorArguments": "",
                        "name": "ecrecover",
                        "returnParams": [
                            {
                                "name": "",
                                "type": "address",
                                "value": "0x2176a6acd0f20c8c5742c273d072fcc2311a92ac"
                            }
                        ],
                        "signature": "ecrecover(bytes32,uint256,bytes32,bytes32)"
                    },
                    "errorInfo": "",
                    "fromAddress": "0x9d47dfb60adc1cbd15034a14c5454df373cd0e81",
                    "gasUsed": 3000,
                    "id": 7,
                    "methodDecoded": true,
                    "operation": "CALL",
                    "output": "0x0000000000000000000000002176a6acd0f20c8c5742c273d072fcc2311a92ac",
                    "revert": false,
                    "revertMessage": "",
                    "selector": "0x164e43a4",
                    "status": true,
                    "value": "0"
                },
                "nodeType": 0
            },
            "8": {
                "invocation": {
                    "address": "0xf5dce57282a584d2746faf1593d3121fcac444dc",
                    "callData": "0x0000000000000000000000000000000000000000000000000de0b6b3a764000000000000000000000000000000000000000000000000000000000000",
                    "decodedMethod": {
                        "callParams": [
                            {
                                "name": "mintAmount",
                                "type": "uint256",
                                "value": "1,000,000,000,000,000,000"
                            }
                        ],
                        "constructorArguments": "",
                        "name": "mint",
                        "returnParams": [
                            {
                                "name": "",
                                "type": "uint256",
                                "value": "0"
                            }
                        ],
                        "signature": "mint(uint256)"
                    },
                    "errorInfo": "",
                    "fromAddress": "0x9d47dfb60adc1cbd15034a14c5454df373cd0e81",
                    "gasUsed": 93133,
                    "id": 8,
                    "methodDecoded": true,
                    "operation": "CALL",
                    "output": "0x0000000000000000000000000000000000000000000000000000000000000000",
                    "revert": false,
                    "revertMessage": "",
                    "selector": "0xa0712d68",
                    "status": true,
                    "value": "0"
                },
                "nodeType": 0
            },
            "9": {
                "invocation": {
                    "address": "0x89d24a6b4ccb1b6faa2625fe562bdd9a23260359",
                    "callData": "0x000000000000000000000000f5dce57282a584d2746faf1593d3121fcac444dc",
                    "decodedMethod": {
                        "callParams": [
                            {
                                "name": "src",
                                "type": "address",
                                "value": "0xf5dce57282a584d2746faf1593d3121fcac444dc"
                            }
                        ],
                        "constructorArguments": "",
                        "name": "balanceOf",
                        "returnParams": [
                            {
                                "decimalAvailable": true,
                                "name": "",
                                "type": "uint256",
                                "value": "8,564,001,576,407,909,773,499,171"
                            }
                        ],
                        "signature": "balanceOf(address)"
                    },
                    "errorInfo": "",
                    "fromAddress": "0xf5dce57282a584d2746faf1593d3121fcac444dc",
                    "gasUsed": 815,
                    "id": 9,
                    "methodDecoded": true,
                    "operation": "STATICCALL",
                    "output": "0x00000000000000000000000000000000000000000007157f74a9c5ffcbaa5b23",
                    "revert": false,
                    "revertMessage": "",
                    "selector": "0x70a08231",
                    "status": true,
                    "value": "0"
                },
                "nodeType": 0
            }
        },
        "gasFlame": [
            {
                "children": [
                    {
                        "children": [
                            {
                                "children": [],
                                "depth": 0,
                                "name": "Initial Gas",
                                "value": 43480
                            },
                            {
                                "children": [
                                    {
                                        "children": [],
                                        "depth": 1,
                                        "name": "ecrecover",
                                        "value": 3000
                                    },
                                    {
                                        "children": [],
                                        "depth": 1,
                                        "name": "approve",
                                        "value": 7729
                                    },
                                    {
                                        "children": [],
                                        "depth": 1,
                                        "name": "ecrecover",
                                        "value": 3000
                                    },
                                    {
                                        "children": [
                                            {
                                                "children": [],
                                                "depth": 2,
                                                "name": "balanceOf",
                                                "value": 815
                                            },
                                            {
                                                "children": [],
                                                "depth": 2,
                                                "name": "getBorrowRate",
                                                "value": 4203
                                            },
                                            {
                                                "children": [
                                                    {
                                                        "children": [],
                                                        "depth": 3,
                                                        "name": "mintAllowed",
                                                        "value": 672
                                                    }
                                                ],
                                                "depth": 2,
                                                "name": "mintAllowed",
                                                "value": 2052
                                            },
                                            {
                                                "children": [],
                                                "depth": 2,
                                                "name": "allowance",
                                                "value": 1203
                                            },
                                            {
                                                "children": [],
                                                "depth": 2,
                                                "name": "balanceOf",
                                                "value": 815
                                            },
                                            {
                                                "children": [],
                                                "depth": 2,
                                                "name": "balanceOf",
                                                "value": 815
                                            },
                                            {
                                                "children": [],
                                                "depth": 2,
                                                "name": "transferFrom",
                                                "value": 14247
                                            },
                                            {
                                                "children": [
                                                    {
                                                        "children": [],
                                                        "depth": 3,
                                                        "name": "mintVerify",
                                                        "value": 359
                                                    }
                                                ],
                                                "depth": 2,
                                                "name": "mintVerify",
                                                "value": 1672
                                            }
                                        ],
                                        "depth": 1,
                                        "name": "mint",
                                        "value": 93133
                                    }
                                ],
                                "depth": 0,
                                "name": "Executed Gas",
                                "value": 168089
                            }
                        ],
                        "depth": -1,
                        "name": "Actual Gas Used",
                        "value": 196569
                    },
                    {
                        "children": [],
                        "depth": -1,
                        "name": "Refunded Gas",
                        "value": 15000
                    }
                ],
                "depth": -2,
                "name": "Total Gas",
                "value": 211569
            }
        ],
        "isConfirmed": true,
        "mainTrace": [
            {
                "children": [
                    {
                        "children": [
                            {
                                "children": [],
                                "depth": 1,
                                "id": 1,
                                "order": 1
                            },
                            {
                                "children": [],
                                "depth": 1,
                                "id": 2,
                                "order": 2
                            },
                            {
                                "children": [
                                    {
                                        "children": [],
                                        "depth": 2,
                                        "id": 4,
                                        "order": 4
                                    }
                                ],
                                "depth": 1,
                                "id": 3,
                                "order": 3
                            },
                            {
                                "children": [],
                                "depth": 1,
                                "id": 5,
                                "order": 5
                            },
                            {
                                "children": [],
                                "depth": 1,
                                "id": 6,
                                "order": 6
                            },
                            {
                                "children": [],
                                "depth": 1,
                                "id": 7,
                                "order": 7
                            },
                            {
                                "children": [
                                    {
                                        "children": [],
                                        "depth": 2,
                                        "id": 9,
                                        "order": 9
                                    },
                                    {
                                        "children": [],
                                        "depth": 2,
                                        "id": 10,
                                        "order": 10
                                    },
                                    {
                                        "children": [],
                                        "depth": 2,
                                        "id": 11,
                                        "order": 11
                                    },
                                    {
                                        "children": [
                                            {
                                                "children": [],
                                                "depth": 3,
                                                "id": 13,
                                                "order": 13
                                            }
                                        ],
                                        "depth": 2,
                                        "id": 12,
                                        "order": 12
                                    },
                                    {
                                        "children": [],
                                        "depth": 2,
                                        "id": 14,
                                        "order": 14
                                    },
                                    {
                                        "children": [],
                                        "depth": 2,
                                        "id": 15,
                                        "order": 15
                                    },
                                    {
                                        "children": [],
                                        "depth": 2,
                                        "id": 16,
                                        "order": 16
                                    },
                                    {
                                        "children": [
                                            {
                                                "children": [],
                                                "depth": 3,
                                                "id": 18,
                                                "order": 18
                                            }
                                        ],
                                        "depth": 2,
                                        "id": 17,
                                        "order": 17
                                    },
                                    {
                                        "children": [],
                                        "depth": 2,
                                        "id": 19,
                                        "order": 19
                                    },
                                    {
                                        "children": [],
                                        "depth": 2,
                                        "id": 20,
                                        "order": 20
                                    },
                                    {
                                        "children": [
                                            {
                                                "children": [],
                                                "depth": 3,
                                                "id": 22,
                                                "order": 22
                                            }
                                        ],
                                        "depth": 2,
                                        "id": 21,
                                        "order": 21
                                    }
                                ],
                                "depth": 1,
                                "id": 8,
                                "order": 8
                            },
                            {
                                "children": [],
                                "depth": 1,
                                "id": 23,
                                "order": 23
                            }
                        ],
                        "depth": 0,
                        "id": 0,
                        "order": 0
                    }
                ],
                "depth": -1,
                "id": -1,
                "order": -1
            }
        ],
        "mainTraceNodeCount": 24,
        "parentIdMap": {
            "0": -1,
            "1": 0,
            "10": 8,
            "11": 8,
            "12": 8,
            "13": 12,
            "14": 8,
            "15": 8,
            "16": 8,
            "17": 8,
            "18": 17,
            "19": 8,
            "2": 0,
            "20": 8,
            "21": 8,
            "22": 21,
            "23": 0,
            "3": 0,
            "4": 3,
            "5": 0,
            "6": 0,
            "7": 0,
            "8": 0,
            "9": 8
        },
        "tidyTrace": [
            {
                "children": [
                    {
                        "children": [
                            {
                                "children": [],
                                "depth": 1,
                                "id": 1,
                                "order": 1
                            },
                            {
                                "children": [],
                                "depth": 1,
                                "id": 2,
                                "order": 2
                            },
                            {
                                "children": [
                                    {
                                        "children": [],
                                        "depth": 2,
                                        "id": 4,
                                        "order": 4
                                    }
                                ],
                                "depth": 1,
                                "id": 3,
                                "order": 3
                            },
                            {
                                "children": [],
                                "depth": 1,
                                "id": 5,
                                "order": 5
                            },
                            {
                                "children": [],
                                "depth": 1,
                                "id": 6,
                                "order": 6
                            },
                            {
                                "children": [],
                                "depth": 1,
                                "id": 7,
                                "order": 7
                            },
                            {
                                "children": [
                                    {
                                        "children": [],
                                        "depth": 2,
                                        "id": 11,
                                        "order": 11
                                    },
                                    {
                                        "children": [
                                            {
                                                "children": [],
                                                "depth": 3,
                                                "id": 13,
                                                "order": 13
                                            }
                                        ],
                                        "depth": 2,
                                        "id": 12,
                                        "order": 12
                                    },
                                    {
                                        "children": [
                                            {
                                                "children": [],
                                                "depth": 3,
                                                "id": 18,
                                                "order": 18
                                            }
                                        ],
                                        "depth": 2,
                                        "id": 17,
                                        "order": 17
                                    },
                                    {
                                        "children": [],
                                        "depth": 2,
                                        "id": 19,
                                        "order": 19
                                    },
                                    {
                                        "children": [],
                                        "depth": 2,
                                        "id": 20,
                                        "order": 20
                                    },
                                    {
                                        "children": [
                                            {
                                                "children": [],
                                                "depth": 3,
                                                "id": 22,
                                                "order": 22
                                            }
                                        ],
                                        "depth": 2,
                                        "id": 21,
                                        "order": 21
                                    }
                                ],
                                "depth": 1,
                                "id": 8,
                                "order": 8
                            },
                            {
                                "children": [],
                                "depth": 1,
                                "id": 23,
                                "order": 23
                            }
                        ],
                        "depth": 0,
                        "id": 0,
                        "order": 0
                    }
                ],
                "depth": -1,
                "id": -1,
                "order": -1
            }
        ],
        "tidyTraceNodeCount": 19
    },
    "state_change": {
        "stateChanges": [
            {
                "address": "0x89d24a6b4ccb1b6faa2625fe562bdd9a23260359",
                "erc": "ERC-20",
                "slots": [
                    {
                        "current": "0x0000000000000000000000000000000000000000000000000000000000000000",
                        "key": "0x55e6c1167fd8065ec7c623fb827a92012877559de9959d02fb40325eb3e97599",
                        "prev": "0x0000000000000000000000000000000000000000000000000de0b6b3a7640000"
                    },
                    {
                        "current": "0x00000000000000000000000000000000000000000007157f828a7cb3730e5b23",
                        "key": "0x58dfd41f9cf2f2f13ea1a4b73f232fe8cf3188ddb2005316ad549408e7ce0645",
                        "prev": "0x00000000000000000000000000000000000000000007157f74a9c5ffcbaa5b23"
                    }
                ],
                "storageVariables": [
                    {
                        "name": "_balances",
                        "type": "mapping(address => uint256)",
                        "value": {
                            "pairs": [
                                {
                                    "key": "0x9d47dfb60adc1cbd15034a14c5454df373cd0e81",
                                    "value": {
                                        "current": "0",
                                        "prev": "1000000000000000000",
                                        "typeTag": 1
                                    }
                                },
                                {
                                    "key": "0xf5dce57282a584d2746faf1593d3121fcac444dc",
                                    "value": {
                                        "current": "8564002576407909773499171",
                                        "prev": "8564001576407909773499171",
                                        "typeTag": 1
                                    }
                                }
                            ],
                            "typeTag": 4
                        }
                    }
                ]
            },
            {
                "address": "0x9d47dfb60adc1cbd15034a14c5454df373cd0e81",
                "erc": "",
                "slots": [
                    {
                        "current": "0x0000000000000000000000000000000000000000000000000000000000000001",
                        "key": "0xd234d04bca73fe828b42b551ed053e73012d8ec4e8be42cd28a4f4f854fb3079",
                        "prev": "0x0000000000000000000000000000000000000000000000000000000000000000"
                    },
                    {
                        "current": "0x0000000000000000000000000000000000000000000000000000000000000001",
                        "key": "0x77b733175d26b66bad130567d651728a86d1f56d54057061d9d6f5fd1282513e",
                        "prev": "0x0000000000000000000000000000000000000000000000000000000000000000"
                    }
                ],
                "storageVariables": []
            },
            {
                "address": "0xf5dce57282a584d2746faf1593d3121fcac444dc",
                "erc": "ERC-20",
                "slots": [
                    {
                        "current": "0x000000000000000000000000000000000000000000000000000000000000c4ea",
                        "key": "0x0000000000000000000000000000000000000000000000000000000000000000",
                        "prev": "0x000000000000000000000000000000000000000000000000000000000000c4e9"
                    },
                    {
                        "current": "0x00000000000000000000000000000000000000000000000002645a4f1c02c01c",
                        "key": "0x000000000000000000000000000000000000000000000000000000000000000e",
                        "prev": "0x00000000000000000000000000000000000000000000000002645a4dfba2c145"
                    },
                    {
                        "current": "0x0000000000000000000000000000000000000000000000000000000120604da3",
                        "key": "0x147b17dcc115adb848889b150969c4f56c88028788636bb5fdd16be178a34c71",
                        "prev": "0x0000000000000000000000000000000000000000000000000000000000004ecc"
                    }
                ],
                "storageVariables": [
                    {
                        "name": "_guardCounter",
                        "type": "uint256",
                        "value": {
                            "current": "50410",
                            "prev": "50409",
                            "typeTag": 1
                        }
                    },
                    {
                        "name": "totalSupply",
                        "type": "uint256",
                        "value": {
                            "current": "172361981565779996",
                            "prev": "172361976727650629",
                            "typeTag": 1
                        }
                    },
                    {
                        "name": "accountTokens",
                        "type": "mapping(address => uint256)",
                        "value": {
                            "pairs": [
                                {
                                    "key": "0x9d47dfb60adc1cbd15034a14c5454df373cd0e81",
                                    "value": {
                                        "current": "4838149539",
                                        "prev": "20172",
                                        "typeTag": 1
                                    }
                                }
                            ],
                            "typeTag": 4
                        }
                    }
                ]
            }
        ]
    }
}