{
    "balance_change": {
        "balanceChanges": [
            {
                "account": "0xab0f3326f7f32988963d446543a0b3bbc21b8b92",
                "assets": [
                    {
                        "address": "0xeeeeeeeeeeeeeeeeeeeeeeeeeeeeeeeeeeeeeeee",
                        "amount": "0.00190621",
                        "iconUrl": "https://assets.blocksec.com/image/1663669189317-3.png",
                        "isERC1155": false,
                        "isERC721": false,
                        "sign": true,
                        "value": ""
                    }
                ]
            },
            {
                "account": "0x0000000000000000000000000000000000000000",
                "assets": [
                    {
                        "address": "0x1a94656a6245379bc0d9c64c402197528edb2bd1",
                        "amount": "1.883790139906728847",
                        "iconUrl": "",
                        "isERC1155": false,
                        "isERC721": false,
                        "sign": false,
                        "value": ""
                    }
                ]
            },
            {
                "account": "0x183febd8828a9ac6c70c0e27fbf441b93004fc05",
                "assets": [
                    {
                        "address": "0x1a94656a6245379bc0d9c64c402197528edb2bd1",
                        "amount": "1.883790139906728847",
                        "iconUrl": "",
                        "isERC1155": false,
                        "isERC721": false,
                        "sign": true,
                        "value": ""
                    }
                ]
            },
            {
                "account": "0xb55c5cac5014c662fdbf21a2c59cd45403c482fd",
                "assets": [
                    {
                        "address": "0xeeeeeeeeeeeeeeeeeeeeeeeeeeeeeeeeeeeeeeee",
                        "amount": "0.00190621",
                        "iconUrl": "https://assets.blocksec.com/image/1663669189317-3.png",
                        "isERC1155": false,
                        "isERC721": false,
                        "sign": false,
                        "value": ""
                    }
                ]
            }
        ]
    },
    "profile": {
        "basic_info": {
            "baseFee": "",
            "blockNumber": 8402677,
            "callData": "0xc1fe551a00000000000000000000000000000000556a596a566a5aaa5aaa566a596a556a",
            "debugEnable": true,
            "errorInfo": "",
            "eventCount": 4,
            "feeRecipient": "0x829bd824b016326a401d083b33d092293333a830",
            "formatValue": "0",
            "gasLimit": 176768,
            "gasPrice": "12",
            "gasUsed": 176056,
            "intTxnCount": 12,
            "internalRevert": false,
            "internalRevertMessage": "",
            "isContractCreation": false,
            "isFlashloan": false,
            "maxFee": "",
            "nonce": 8543,
            "overwritedBlockNumber": -1,
            "priorityFee": "",
            "receiver": "0x521d32f3d23f1fc82b1dbe306edc3ef668e5d973",
            "revertMessage": "",
            "sender": "0xab0f3326f7f32988963d446543a0b3bbc21b8b92",
            "simulationEnable": true,
            "sourceTxnHash": "0xf05df95107aaeb3a94b1f321a8a4876786a4791dfee73f4a37fe3ffb7a7b541f",
            "status": true,
            "timestamp": "2019-08-22T22:04:40Z",
            "transactionFee": "0.002112672",
            "txnHash": "0xf05df95107aaeb3a94b1f321a8a4876786a4791dfee73f4a37fe3ffb7a7b541f",
            "txnIndex": 3,
            "type": 0,
            "value": "0"
        },
        "fund_flow": [
            {
                "amount": "1.883790139906728847",
                "from": "0x0000000000000000000000000000000000000000",
                "id": 1,
                "isERC1155": false,
                "isERC721": false,
                "isReverted": false,
                "order": 1,
                "to": "0x183febd8828a9ac6c70c0e27fbf441b93004fc05",
                "token": "0x1a94656a6245379bc0d9c64c402197528edb2bd1"
            },
            {
                "amount": "0.00190621",
                "from": "0xb55c5cac5014c662fdbf21a2c59cd45403c482fd",
                "id": 2,
                "isERC1155": false,
                "isERC721": false,
                "isReverted": false,
                "order": 2,
                "to": "0xab0f3326f7f32988963d446543a0b3bbc21b8b92",
                "token": "0xeeeeeeeeeeeeeeeeeeeeeeeeeeeeeeeeeeeeeeee"
            }
        ],
        "token_infos": [
            {
                "address": "0xeeeeeeeeeeeeeeeeeeeeeeeeeeeeeeeeeeeeeeee",
                "decimals": 18
            },
            {
                "address": "0x1a94656a6245379bc0d9c64c402197528edb2bd1",
                "decimals": 18
            },
            {
                "address": "0xc02aaa39b223fe8d0a0e5c4f27ead9083c756cc2",
                "decimals": 18
            }
        ]
    },
    "address_label": {
        "labels": [
            {
                "address": "0x1a94656a6245379bc0d9c64c402197528edb2bd1",
                "label": "CloverCoin (CLC)"
            },
            {
                "address": "0x6ebd97252d34645263c1d074f202f1d7546ce06b",
                "label": "SimpleCloversMarket"
            },
            {
                "address": "0x521d32f3d23f1fc82b1dbe306edc3ef668e5d973",
                "label": "CloversController"
            },
            {
                "address": "0x0000000000000000000000000000000000000002",
                "label": "Precompiled"
            },
            {
                "address": "0x0000000000000000000000000000000000000003",
                "label": "Precompiled"
            },
            {
                "address": "0xeeeeeeeeeeeeeeeeeeeeeeeeeeeeeeeeeeeeeeee",
                "label": "Ether"
            },
            {
                "address": "0x0000000000000000000000000000000000000001",
                "label": "Precompiled"
            },
            {
                "address": "0x0000000000000000000000000000000000000004",
                "label": "Precompiled"
            },
            {
                "address": "0xb55c5cac5014c662fdbf21a2c59cd45403c482fd",
                "label": "Clovers Network: CLV Token"
            }
        ]
    },
    "trace": {
        "accountLabels": null,
        "dataMap": {
            "-1": {
                "invocation": {
                    "address": "0xab0f3326f7f32988963d446543a0b3bbc21b8b92",
                    "callData": "",
                    "decodedMethod": null,
                    "errorInfo": "",
                    "fromAddress": "",
                    "gasUsed": 0,
                    "id": -1,
                    "methodDecoded": false,
                    "operation": "",
                    "output": "",
                    "revert": false,
                    "revertMessage": "",
                    "selector": "",
                    "status": false,
                    "value": ""
                },
                "nodeType": 0
            },
            "0": {
                "invocation": {
                    "address": "0x521d32f3d23f1fc82b1dbe306edc3ef668e5d973",
                    "callData": "0x00000000000000000000000000000000556a596a566a5aaa5aaa566a596a556a",
                    "decodedMethod": {
                        "callParams": [
                            {
                                "name": "_tokenId",
                                "type": "uint256",
                                "value": "113,536,576,668,106,777,573,113,255,581,513,831,786"
                            }
                        ],
                        "constructorArguments": "",
                        "name": "retrieveStake",
                        "returnParams": [
                            {
                                "name": "",
                                "type": "bool",
                                "value": true
                            }
                        ],
                        "signature": "retrieveStake(uint256)"
                    },
                    "errorInfo": "",
                    "fromAddress": "0xab0f3326f7f32988963d446543a0b3bbc21b8b92",
                    "gasUsed": 176056,
                    "id": 0,
                    "methodDecoded": true,
                    "operation": "CALL",
                    "output": "0x0000000000000000000000000000000000000000000000000000000000000001",
                    "revert": false,
                    "revertMessage": "",
                    "selector": "0xc1fe551a",
                    "status": true,
                    "value": "0"
                },
                "nodeType": 0
            },
            "1": {
                "invocation": {
                    "address": "0xb55c5cac5014c662fdbf21a2c59cd45403c482fd",
                    "callData": "0x00000000000000000000000000000000556a596a566a5aaa5aaa566a596a556a",
                    "decodedMethod": {
                        "callParams": [
                            {
                                "name": "_tokenId",
                                "type": "uint256",
                                "value": "113,536,576,668,106,777,573,113,255,581,513,831,786"
                            }
                        ],
                        "constructorArguments": "",
                        "name": "getCloverMoves",
                        "returnParams": [
                            {
                                "name": "",
                                "type": "bytes28[2]",
                                "value": [
                                    "0xb58b5f4db529e5d9ba64dcd2bb44e7eeed2d3abd5593c2375bdca77f",
                                    "0xb35b8c885e2bf9877fed8ef3e2ef8f470c1a1a25fccffa0600000000"
                                ]
                            }
                        ],
                        "signature": "getCloverMoves(uint256)"
                    },
                    "errorInfo": "",
                    "fromAddress": "0x521d32f3d23f1fc82b1dbe306edc3ef668e5d973",
                    "gasUsed": 1769,
                    "id": 1,
                    "methodDecoded": true,
                    "operation": "CALL",
                    "output": "0xb58b5f4db529e5d9ba64dcd2bb44e7eeed2d3abd5593c2375bdca77f00000000b35b8c885e2bf9877fed8ef3e2ef8f470c1a1a25fccffa060000000000000000",
                    "revert": false,
                    "revertMessage": "",
                    "selector": "0x62f9acf9",
                    "status": true,
                    "value": "0"
                },
                "nodeType": 0
            },
            "10": {
                "event": {
                    "contract": "0x6ebd97252d34645263c1d074f202f1d7546ce06b",
                    "decodedLog": {
                        "name": "updatePrice",
                        "params": [
                            {
                                "name": "_tokenId",
                                "type": "uint256",
                                "value": "113,536,576,668,106,777,573,113,255,581,513,831,786"
                            },
                            {
                                "name": "price",
                                "type": "uint256",
                                "value": "7,651,370,419,720,186,541"
                            }
                        ],
                        "signature": "updatePrice(uint256,uint256)"
                    },
                    "id": 10,
                    "logData": "0x00000000000000000000000000000000556a596a566a5aaa5aaa566a596a556a0000000000000000000000000000000000000000000000006a2f20dba85a6aad",
                    "logDecoded": true,
                    "operation": "EVENT",
                    "revert": false,
                    "status": true,
                    "topics": [
                        "0x82367b2d6e4540d07b2a6e64ecb6a2f8130985e6a17e157c3e556591c6b54f69"
                    ]
                },
                "nodeType": 1
            },
            "11": {
                "invocation": {
                    "address": "0x1a94656a6245379bc0d9c64c402197528edb2bd1",
                    "callData": "0x000000000000000000000000183febd8828a9ac6c70c0e27fbf441b93004fc050000000000000000000000000000000000000000000000001a249126c886238f",
                    "decodedMethod": {
                        "callParams": [
                            {
                                "name": "_to",
                                "type": "address",
                                "value": "0x183febd8828a9ac6c70c0e27fbf441b93004fc05"
                            },
                            {
                                "name": "_amount",
                                "type": "uint256",
                                "value": "1,883,790,139,906,728,847"
                            }
                        ],
                        "constructorArguments": "",
                        "name": "mint",
                        "returnParams": [
                            {
                                "name": "",
                                "type": "bool",
                                "value": true
                            }
                        ],
                        "signature": "mint(address,uint256)"
                    },
                    "errorInfo": "",
                    "fromAddress": "0x521d32f3d23f1fc82b1dbe306edc3ef668e5d973",
                    "gasUsed": 15141,
                    "id": 11,
                    "methodDecoded": true,
                    "operation": "CALL",
                    "output": "0x0000000000000000000000000000000000000000000000000000000000000001",
                    "revert": false,
                    "revertMessage": "",
                    "selector": "0x40c10f19",
                    "status": true,
                    "value": "0"
                },
                "nodeType": 0
            },
            "12": {
                "event": {
                    "contract": "0x1a94656a6245379bc0d9c64c402197528edb2bd1",
                    "decodedLog": {
                        "name": "Mint",
                        "params": [
                            {
                                "name": "to",
                                "type": "address",
                                "value": "0x183febd8828a9ac6c70c0e27fbf441b93004fc05"
                            },
                            {
                                "name": "amount",
                                "type": "uint256",
                                "value": "1,883,790,139,906,728,847"
                            }
                        ],
                        "signature": "Mint(address,uint256)"
                    },
                    "id": 12,
                    "logData": "0x0000000000000000000000000000000000000000000000001a249126c886238f",
                    "logDecoded": true,
                    "operation": "EVENT",
                    "revert": false,
                    "status": true,
                    "topics": [
                        "0x0f6798a560793a54c3bcfe86a93cde1e73087d944c0ea20544137d4121396885",
                        "0x000000000000000000000000183febd8828a9ac6c70c0e27fbf441b93004fc05"
                    ]
                },
                "nodeType": 1
            },
            "13": {
                "event": {
                    "contract": "0x1a94656a6245379bc0d9c64c402197528edb2bd1",
                    "decodedLog": {
                        "name": "Transfer",
                        "params": [
                            {
                                "name": "from",
                                "type": "address",
                                "value": "0x0000000000000000000000000000000000000000"
                            },
                            {
                                "name": "to",
                                "type": "address",
                                "value": "0x183febd8828a9ac6c70c0e27fbf441b93004fc05"
                            },
                            {
                                "decimalAvailable": true,
                                "name": "value",
                                "type": "uint256",
                                "value": "1,883,790,139,906,728,847"
                            }
                        ],
                        "signature": "Transfer(address,address,uint256)"
                    },
                    "id": 13,
                    "logData": "0x0000000000000000000000000000000000000000000000001a249126c886238f",
                    "logDecoded": true,
                    "operation": "EVENT",
                    "revert": false,
                    "status": true,
                    "topics": [
                        "0xddf252ad1be2c89b69c2b068fc378daa952ba7f163c4a11628f55a4df523b3ef",
                        "0x0000000000000000000000000000000000000000000000000000000000000000",
                        "0x000000000000000000000000183febd8828a9ac6c70c0e27fbf441b93004fc05"
                    ]
                },
                "nodeType": 1
            },
            "14": {
                "invocation": {
                    "address": "0xb55c5cac5014c662fdbf21a2c59cd45403c482fd",
                    "callData": "0x000000000000000000000000ab0f3326f7f32988963d446543a0b3bbc21b8b920000000000000000000000000000000000000000000000000006c5b019ead400",
                    "decodedMethod": {
                        "callParams": [
                            {
                                "name": "_to",
                                "type": "address",
                                "value": "0xab0f3326f7f32988963d446543a0b3bbc21b8b92"
                            },
                            {
                                "name": "_amount",
                                "type": "uint256",
                                "value": "1,906,210,000,000,000"
                            }
                        ],
                        "constructorArguments": "",
                        "name": "moveEth",
                        "returnParams": [],
                        "signature": "moveEth(address,uint256)"
                    },
                    "errorInfo": "",
                    "fromAddress": "0x521d32f3d23f1fc82b1dbe306edc3ef668e5d973",
                    "gasUsed": 8651,
                    "id": 14,
                    "methodDecoded": true,
                    "operation": "CALL",
                    "output": "",
                    "revert": false,
                    "revertMessage": "",
                    "selector": "0x1cc1472d",
                    "status": true,
                    "value": "0"
                },
                "nodeType": 0
            },
            "15": {
                "invocation": {
                    "address": "0xab0f3326f7f32988963d446543a0b3bbc21b8b92",
                    "callData": "0x",
                    "decodedMethod": null,
                    "errorInfo": "",
                    "fromAddress": "0xb55c5cac5014c662fdbf21a2c59cd45403c482fd",
                    "gasUsed": 0,
                    "id": 15,
                    "methodDecoded": false,
                    "operation": "CALL",
                    "output": "",
                    "revert": false,
                    "revertMessage": "",
                    "selector": "fallback",
                    "status": true,
                    "value": "0.00190621"
                },
                "nodeType": 0
            },
            "16": {
                "event": {
                    "contract": "0x521d32f3d23f1fc82b1dbe306edc3ef668e5d973",
                    "decodedLog": {
                        "name": "stakeRetrieved",
                        "params": [
                            {
                                "name": "tokenId",
                                "type": "uint256",
                                "value": "113,536,576,668,106,777,573,113,255,581,513,831,786"
                            },
                            {
                                "name": "owner",
                                "type": "address",
                                "value": "0xab0f3326f7f32988963d446543a0b3bbc21b8b92"
                            },
                            {
                                "name": "stake",
                                "type": "uint256",
                                "value": "1,906,210,000,000,000"
                            }
                        ],
                        "signature": "stakeRetrieved(uint256,address,uint256)"
                    },
                    "id": 16,
                    "logData": "0x00000000000000000000000000000000556a596a566a5aaa5aaa566a596a556a000000000000000000000000ab0f3326f7f32988963d446543a0b3bbc21b8b920000000000000000000000000000000000000000000000000006c5b019ead400",
                    "logDecoded": true,
                    "operation": "EVENT",
                    "revert": false,
                    "status": true,
                    "topics": [
                        "0xa8a1a24efbea93a5c7f29342ba7652cd030828e12cc15c1416480fecee73d589"
                    ]
                },
                "nodeType": 1
            },
            "2": {
                "invocation": {
                    "address": "0xb55c5cac5014c662fdbf21a2c59cd45403c482fd",
                    "callData": "0x00000000000000000000000000000000556a596a566a5aaa5aaa566a596a556a",
                    "decodedMethod": {
                        "callParams": [
                            {
                                "name": "_tokenId",
                                "type": "uint256",
                                "value": "113,536,576,668,106,777,573,113,255,581,513,831,786"
                            }
                        ],
                        "constructorArguments": "",
                        "name": "getBlockMinted",
                        "returnParams": [
                            {
                                "name": "",
                                "type": "uint256",
                                "value": "8,396,353"
                            }
                        ],
                        "signature": "getBlockMinted(uint256)"
                    },
                    "errorInfo": "",
                    "fromAddress": "0x521d32f3d23f1fc82b1dbe306edc3ef668e5d973",
                    "gasUsed": 484,
                    "id": 2,
                    "methodDecoded": true,
                    "operation": "CALL",
                    "output": "0x0000000000000000000000000000000000000000000000000000000000801e41",
                    "revert": false,
                    "revertMessage": "",
                    "selector": "0x03a53d6b",
                    "status": true,
                    "value": "0"
                },
                "nodeType": 0
            },
            "3": {
                "invocation": {
                    "address": "0xb55c5cac5014c662fdbf21a2c59cd45403c482fd",
                    "callData": "0x",
                    "decodedMethod": {
                        "callParams": [],
                        "constructorArguments": "",
                        "name": "getAllSymmetries",
                        "returnParams": [
                            {
                                "name": "",
                                "type": "uint256",
                                "value": "10,303"
                            },
                            {
                                "name": "",
                                "type": "uint256",
                                "value": "1,357"
                            },
                            {
                                "name": "",
                                "type": "uint256",
                                "value": "1,999"
                            },
                            {
                                "name": "",
                                "type": "uint256",
                                "value": "1,990"
                            },
                            {
                                "name": "",
                                "type": "uint256",
                                "value": "2,619"
                            },
                            {
                                "name": "",
                                "type": "uint256",
                                "value": "2,796"
                            }
                        ],
                        "signature": "getAllSymmetries()"
                    },
                    "errorInfo": "",
                    "fromAddress": "0x521d32f3d23f1fc82b1dbe306edc3ef668e5d973",
                    "gasUsed": 2366,
                    "id": 3,
                    "methodDecoded": true,
                    "operation": "CALL",
                    "output": "0x000000000000000000000000000000000000000000000000000000000000283f000000000000000000000000000000000000000000000000000000000000054d00000000000000000000000000000000000000000000000000000000000007cf00000000000000000000000000000000000000000000000000000000000007c60000000000000000000000000000000000000000000000000000000000000a3b0000000000000000000000000000000000000000000000000000000000000aec",
                    "revert": false,
                    "revertMessage": "",
                    "selector": "0x785d8d71",
                    "status": true,
                    "value": "0"
                },
                "nodeType": 0
            },
            "4": {
                "invocation": {
                    "address": "0xb55c5cac5014c662fdbf21a2c59cd45403c482fd",
                    "callData": "0x00000000000000000000000000000000556a596a566a5aaa5aaa566a596a556a",
                    "decodedMethod": {
                        "callParams": [
                            {
                                "name": "_tokenId",
                                "type": "uint256",
                                "value": "113,536,576,668,106,777,573,113,255,581,513,831,786"
                            }
                        ],
                        "constructorArguments": "",
                        "name": "getSymmetries",
                        "returnParams": [
                            {
                                "name": "",
                                "type": "uint256",
                                "value": "4"
                            }
                        ],
                        "signature": "getSymmetries(uint256)"
                    },
                    "errorInfo": "",
                    "fromAddress": "0x521d32f3d23f1fc82b1dbe306edc3ef668e5d973",
                    "gasUsed": 1496,
                    "id": 4,
                    "methodDecoded": true,
                    "operation": "CALL",
                    "output": "0x0000000000000000000000000000000000000000000000000000000000000004",
                    "revert": false,
                    "revertMessage": "",
                    "selector": "0xc53b4bf9",
                    "status": true,
                    "value": "0"
                },
                "nodeType": 0
            },
            "5": {
                "invocation": {
                    "address": "0xb55c5cac5014c662fdbf21a2c59cd45403c482fd",
                    "callData": "0x0000000000000000000000000000000000000000000000000000000000002840000000000000000000000000000000000000000000000000000000000000054d00000000000000000000000000000000000000000000000000000000000007cf00000000000000000000000000000000000000000000000000000000000007c70000000000000000000000000000000000000000000000000000000000000a3b0000000000000000000000000000000000000000000000000000000000000aec",
                    "decodedMethod": {
                        "callParams": [
                            {
                                "name": "_totalSymmetries",
                                "type": "uint256",
                                "value": "10,304"
                            },
                            {
                                "name": "RotSym",
                                "type": "uint256",
                                "value": "1,357"
                            },
                            {
                                "name": "Y0Sym",
                                "type": "uint256",
                                "value": "1,999"
                            },
                            {
                                "name": "X0Sym",
                                "type": "uint256",
                                "value": "1,991"
                            },
                            {
                                "name": "XYSym",
                                "type": "uint256",
                                "value": "2,619"
                            },
                            {
                                "name": "XnYSym",
                                "type": "uint256",
                                "value": "2,796"
                            }
                        ],
                        "constructorArguments": "",
                        "name": "setAllSymmetries",
                        "returnParams": [],
                        "signature": "setAllSymmetries(uint256,uint256,uint256,uint256,uint256,uint256)"
                    },
                    "errorInfo": "",
                    "fromAddress": "0x521d32f3d23f1fc82b1dbe306edc3ef668e5d973",
                    "gasUsed": 31337,
                    "id": 5,
                    "methodDecoded": true,
                    "operation": "CALL",
                    "output": "",
                    "revert": false,
                    "revertMessage": "",
                    "selector": "0x8b1b2ba8",
                    "status": true,
                    "value": "0"
                },
                "nodeType": 0
            },
            "6": {
                "invocation": {
                    "address": "0xb55c5cac5014c662fdbf21a2c59cd45403c482fd",
                    "callData": "0x00000000000000000000000000000000556a596a566a5aaa5aaa566a596a556a",
                    "decodedMethod": {
                        "callParams": [
                            {
                                "name": "_tokenId",
                                "type": "uint256",
                                "value": "113,536,576,668,106,777,573,113,255,581,513,831,786"
                            }
                        ],
                        "constructorArguments": "",
                        "name": "getReward",
                        "returnParams": [
                            {
                                "name": "",
                                "type": "uint256",
                                "value": "1,883,790,139,906,728,847"
                            }
                        ],
                        "signature": "getReward(uint256)"
                    },
                    "errorInfo": "",
                    "fromAddress": "0x521d32f3d23f1fc82b1dbe306edc3ef668e5d973",
                    "gasUsed": 748,
                    "id": 6,
                    "methodDecoded": true,
                    "operation": "CALL",
                    "output": "0x0000000000000000000000000000000000000000000000001a249126c886238f",
                    "revert": false,
                    "revertMessage": "",
                    "selector": "0x1c4b774b",
                    "status": true,
                    "value": "0"
                },
                "nodeType": 0
            },
            "7": {
                "invocation": {
                    "address": "0xb55c5cac5014c662fdbf21a2c59cd45403c482fd",
                    "callData": "0x00000000000000000000000000000000556a596a566a5aaa5aaa566a596a556a",
                    "decodedMethod": {
                        "callParams": [
                            {
                                "name": "_tokenId",
                                "type": "uint256",
                                "value": "113,536,576,668,106,777,573,113,255,581,513,831,786"
                            }
                        ],
                        "constructorArguments": "",
                        "name": "getKeep",
                        "returnParams": [
                            {
                                "name": "",
                                "type": "bool",
                                "value": false
                            }
                        ],
                        "signature": "getKeep(uint256)"
                    },
                    "errorInfo": "",
                    "fromAddress": "0x521d32f3d23f1fc82b1dbe306edc3ef668e5d973",
                    "gasUsed": 534,
                    "id": 7,
                    "methodDecoded": true,
                    "operation": "CALL",
                    "output": "0x0000000000000000000000000000000000000000000000000000000000000000",
                    "revert": false,
                    "revertMessage": "",
                    "selector": "0x04952631",
                    "status": true,
                    "value": "0"
                },
                "nodeType": 0
            },
            "8": {
                "invocation": {
                    "address": "0x6ebd97252d34645263c1d074f202f1d7546ce06b",
                    "callData": "0x00000000000000000000000000000000556a596a566a5aaa5aaa566a596a556a0000000000000000000000000000000000000000000000006a2f20dba85a6aad",
                    "decodedMethod": {
                        "callParams": [
                            {
                                "name": "_tokenId",
                                "type": "uint256",
                                "value": "113,536,576,668,106,777,573,113,255,581,513,831,786"
                            },
                            {
                                "name": "price",
                                "type": "uint256",
                                "value": "7,651,370,419,720,186,541"
                            }
                        ],
                        "constructorArguments": "",
                        "name": "sell",
                        "returnParams": [],
                        "signature": "sell(uint256,uint256)"
                    },
                    "errorInfo": "",
                    "fromAddress": "0x521d32f3d23f1fc82b1dbe306edc3ef668e5d973",
                    "gasUsed": 45732,
                    "id": 8,
                    "methodDecoded": true,
                    "operation": "CALL",
                    "output": "",
                    "revert": false,
                    "revertMessage": "",
                    "selector": "0xd79875eb",
                    "status": true,
                    "value": "0"
                },
                "nodeType": 0
            },
            "9": {
                "invocation": {
                    "address": "0xb55c5cac5014c662fdbf21a2c59cd45403c482fd",
                    "callData": "0x00000000000000000000000000000000556a596a566a5aaa5aaa566a596a556a",
                    "decodedMethod": {
                        "callParams": [
                            {
                                "name": "_tokenId",
                                "type": "uint256",
                                "value": "113,536,576,668,106,777,573,113,255,581,513,831,786"
                            }
                        ],
                        "constructorArguments": "",
                        "name": "ownerOf",
                        "returnParams": [
                            {
                                "name": "",
                                "type": "address",
                                "value": "0xb55c5cac5014c662fdbf21a2c59cd45403c482fd"
                            }
                        ],
                        "signature": "ownerOf(uint256)"
                    },
                    "errorInfo": "",
                    "fromAddress": "0x6ebd97252d34645263c1d074f202f1d7546ce06b",
                    "gasUsed": 1117,
                    "id": 9,
                    "methodDecoded": true,
                    "operation": "CALL",
                    "output": "0x000000000000000000000000b55c5cac5014c662fdbf21a2c59cd45403c482fd",
                    "revert": false,
                    "revertMessage": "",
                    "selector": "0x6352211e",
                    "status": true,
                    "value": "0"
                },
                "nodeType": 0
            }
        },
        "gasFlame": [
            {
                "children": [
                    {
                        "children": [
                            {
                                "children": [],
                                "depth": 0,
                                "name": "Initial Gas",
                                "value": 22424
                            },
                            {
                                "children": [
                                    {
                                        "children": [],
                                        "depth": 1,
                                        "name": "getCloverMoves",
                                        "value": 1769
                                    },
                                    {
                                        "children": [],
                                        "depth": 1,
                                        "name": "getBlockMinted",
                                        "value": 484
                                    },
                                    {
                                        "children": [],
                                        "depth": 1,
                                        "name": "getAllSymmetries",
                                        "value": 2366
                                    },
                                    {
                                        "children": [],
                                        "depth": 1,
                                        "name": "getSymmetries",
                                        "value": 1496
                                    },
                                    {
                                        "children": [],
                                        "depth": 1,
                                        "name": "setAllSymmetries",
                                        "value": 31337
                                    },
                                    {
                                        "children": [],
                                        "depth": 1,
                                        "name": "getReward",
                                        "value": 748
                                    },
                                    {
                                        "children": [],
                                        "depth": 1,
                                        "name": "getKeep",
                                        "value": 534
                                    },
                                    {
                                        "children": [
                                            {
                                                "children": [],
                                                "depth": 2,
                                                "name": "ownerOf",
                                                "value": 1117
                                            }
                                        ],
                                        "depth": 1,
                                        "name": "sell",
                                        "value": 45732
                                    },
                                    {
                                        "children": [],
                                        "depth": 1,
                                        "name": "mint",
                                        "value": 15141
                                    },
                                    {
                                        "children": [
                                            {
                                                "children": [],
                                                "depth": 2,
                                                "name": "fallback",
                                                "value": 0
                                            }
                                        ],
                                        "depth": 1,
                                        "name": "moveEth",
                                        "value": 8651
                                    }
                                ],
                                "depth": 0,
                                "name": "Executed Gas",
                                "value": 153632
                            }
                        ],
                        "depth": -1,
                        "name": "Actual Gas Used",
                        "value": 176056
                    },
                    {
                        "children": [],
                        "depth": -1,
                        "name": "Refunded Gas",
                        "value": 0
                    }
                ],
                "depth": -2,
                "name": "Total Gas",
                "value": 176056
            }
        ],
        "isConfirmed": true,
        "mainTrace": [
            {
                "children": [
                    {
                        "children": [
                            {
                                "children": [],
                                "depth": 1,
                                "id": 1,
                                "order": 1
                            },
                            {
                                "children": [],
                                "depth": 1,
                                "id": 2,
                                "order": 2
                            },
                            {
                                "children": [],
                                "depth": 1,
                                "id": 3,
                                "order": 3
                            },
                            {
                                "children": [],
                                "depth": 1,
                                "id": 4,
                                "order": 4
                            },
                            {
                                "children": [],
                                "depth": 1,
                                "id": 5,
                                "order": 5
                            },
                            {
                                "children": [],
                                "depth": 1,
                                "id": 6,
                                "order": 6
                            },
                            {
                                "children": [],
                                "depth": 1,
                                "id": 7,
                                "order": 7
                            },
                            {
                                "children": [
                                    {
                                        "children": [],
                                        "depth": 2,
                                        "id": 9,
                                        "order": 9
                                    },
                                    {
                                        "children": [],
                                        "depth": 2,
                                        "id": 10,
                                        "order": 10
                                    }
                                ],
                                "depth": 1,
                                "id": 8,
                                "order": 8
                            },
                            {
                                "children": [
                                    {
                                        "children": [],
                                        "depth": 2,
                                        "id": 12,
                                        "order": 12
                                    },
                                    {
                                        "children": [],
                                        "depth": 2,
                                        "id": 13,
                                        "order": 13
                                    }
                                ],
                                "depth": 1,
                                "id": 11,
                                "order": 11
                            },
                            {
                                "children": [
                                    {
                                        "children": [],
                                        "depth": 2,
                                        "id": 15,
                                        "order": 15
                                    }
                                ],
                                "depth": 1,
                                "id": 14,
                                "order": 14
                            },
                            {
                                "children": [],
                                "depth": 1,
                                "id": 16,
                                "order": 16
                            }
                        ],
                        "depth": 0,
                        "id": 0,
                        "order": 0
                    }
                ],
                "depth": -1,
                "id": -1,
                "order": -1
            }
        ],
        "mainTraceNodeCount": 17,
        "parentIdMap": {
            "0": -1,
            "1": 0,
            "10": 8,
            "11": 0,
            "12": 11,
            "13": 11,
            "14": 0,
            "15": 14,
            "16": 0,
            "2": 0,
            "3": 0,
            "4": 0,
            "5": 0,
            "6": 0,
            "7": 0,
            "8": 0,
            "9": 8
        },
        "tidyTrace": [
            {
                "children": [
                    {
                        "children": [
                            {
                                "children": [],
                                "depth": 1,
                                "id": 1,
                                "order": 1
                            },
                            {
                                "children": [],
                                "depth": 1,
                                "id": 2,
                                "order": 2
                            },
                            {
                                "children": [],
                                "depth": 1,
                                "id": 3,
                                "order": 3
                            },
                            {
                                "children": [],
                                "depth": 1,
                                "id": 4,
                                "order": 4
                            },
                            {
                                "children": [],
                                "depth": 1,
                                "id": 5,
                                "order": 5
                            },
                            {
                                "children": [],
                                "depth": 1,
                                "id": 6,
                                "order": 6
                            },
                            {
                                "children": [],
                                "depth": 1,
                                "id": 7,
                                "order": 7
                            },
                            {
                                "children": [
                                    {
                                        "children": [],
                                        "depth": 2,
                                        "id": 9,
                                        "order": 9
                                    },
                                    {
                                        "children": [],
                                        "depth": 2,
                                        "id": 10,
                                        "order": 10
                                    }
                                ],
                                "depth": 1,
                                "id": 8,
                                "order": 8
                            },
                            {
                                "children": [
                                    {
                                        "children": [],
                                        "depth": 2,
                                        "id": 12,
                                        "order": 12
                                    },
                                    {
                                        "children": [],
                                        "depth": 2,
                                        "id": 13,
                                        "order": 13
                                    }
                                ],
                                "depth": 1,
                                "id": 11,
                                "order": 11
                            },
                            {
                                "children": [
                                    {
                                        "children": [],
                                        "depth": 2,
                                        "id": 15,
                                        "order": 15
                                    }
                                ],
                                "depth": 1,
                                "id": 14,
                                "order": 14
                            },
                            {
                                "children": [],
                                "depth": 1,
                                "id": 16,
                                "order": 16
                            }
                        ],
                        "depth": 0,
                        "id": 0,
                        "order": 0
                    }
                ],
                "depth": -1,
                "id": -1,
                "order": -1
            }
        ],
        "tidyTraceNodeCount": 17
    },
    "state_change": {
        "stateChanges": [
            {
                "address": "0x1a94656a6245379bc0d9c64c402197528edb2bd1",
                "erc": "ERC-20",
                "slots": [
                    {
                        "current": "0x000000000000000000000000000000000000000000000935c22565feab73d488",
                        "key": "0x0000000000000000000000000000000000000000000000000000000000000001",
                        "prev": "0x000000000000000000000000000000000000000000000935a800d4d7e2edb0f9"
                    },
                    {
                        "current": "0x000000000000000000000000000000000000000000000003a784fac08bb6e765",
                        "key": "0xf1ad2a4c877499821bdaeaf3f96be8525de8e7325f69db7f89bb99ecbb2f2a07",
                        "prev": "0x0000000000000000000000000000000000000000000000038d606999c330c3d6"
                    }
                ],
                "storageVariables": [
                    {
                        "name": "totalSupply_",
                        "type": "uint256",
                        "value": {
                            "current": "43492965481695382066312",
                            "prev": "43491081691555475337465",
                            "typeTag": 1
                        }
                    },
                    {
                        "name": "balances",
                        "type": "mapping(address => uint256)",
                        "value": {
                            "pairs": [
                                {
                                    "key": "0x183febd8828a9ac6c70c0e27fbf441b93004fc05",
                                    "value": {
                                        "current": "67411280827273111397",
                                        "prev": "65527490687366382550",
                                        "typeTag": 1
                                    }
                                }
                            ],
                            "typeTag": 4
                        }
                    }
                ]
            },
            {
                "address": "0x521d32f3d23f1fc82b1dbe306edc3ef668e5d973",
                "erc": "",
                "slots": [
                    {
                        "current": "0x0000000000000000000000000000000000000000000000000000000000000001",
                        "key": "0xa14d8a75abaa78d298758c222e487abb763ecf6a7b177579e10adf2b7ab15c8d",
                        "prev": "0x0000000000000000000000000000000000000000000000000000000000000000"
                    }
                ],
                "storageVariables": [
                    {
                        "name": "commits",
                        "type": "mapping(bytes32 => struct CloversController.Commit)",
                        "value": {
                            "pairs": [
                                {
                                    "key": "0x5cf73b547dbe761146cecd753bd04177c6f4372bb7b7ec84858cb25f2aad17f4",
                                    "value": {
                                        "fields": [
                                            {
                                                "name": "collected",
                                                "type": "bool",
                                                "value": {
                                                    "current": "true",
                                                    "prev": "false",
                                                    "typeTag": 1
                                                }
                                            }
                                        ],
                                        "typeTag": 3
                                    }
                                }
                            ],
                            "typeTag": 4
                        }
                    }
                ]
            },
            {
                "address": "0x6ebd97252d34645263c1d074f202f1d7546ce06b",
                "erc": "",
                "slots": [
                    {
                        "current": "0x0000000000000000000000000000000000000000000000006a2f20dba85a6aad",
                        "key": "0x3cb7afb2c5009fbf0170e18bdf3b2677e08c1964246f32daf086ca38281b55eb",
                        "prev": "0x0000000000000000000000000000000000000000000000000000000000000000"
                    },
                    {
                        "current": "0x000000000000000000000000b55c5cac5014c662fdbf21a2c59cd45403c482fd",
                        "key": "0x3cb7afb2c5009fbf0170e18bdf3b2677e08c1964246f32daf086ca38281b55ea",
                        "prev": "0x0000000000000000000000000000000000000000000000000000000000000000"
                    }
                ],
                "storageVariables": [
                    {
                        "name": "sells",
                        "type": "mapping(uint256 => struct SimpleCloversMarket.Sell)",
                        "value": {
                            "pairs": [
                                {
                                    "key": "113536576668106777573113255581513831786",
                                    "value": {
                                        "fields": [
                                            {
                                                "name": "from",
                                                "type": "address",
                                                "value": {
                                                    "current": "0xb55c5cac5014c662fdbf21a2c59cd45403c482fd",
                                                    "prev": "0x0000000000000000000000000000000000000000",
                                                    "typeTag": 1
                                                }
                                            },
                                            {
                                                "name": "price",
                                                "type": "uint256",
                                                "value": {
                                                    "current": "7651370419720186541",
                                                    "prev": "0",
                                                    "typeTag": 1
                                                }
                                            }
                                        ],
                                        "typeTag": 3
                                    }
                                }
                            ],
                            "typeTag": 4
                        }
                    }
                ]
            },
            {
                "address": "0xb55c5cac5014c662fdbf21a2c59cd45403c482fd",
                "erc": "ERC-721",
                "slots": [
                    {
                        "current": "0x0000000000000000000000000000000000000000000000000000000000002840",
                        "key": "0x000000000000000000000000000000000000000000000000000000000000000f",
                        "prev": "0x000000000000000000000000000000000000000000000000000000000000283f"
                    },
                    {
                        "current": "0x00000000000000000000000000000000000000000000000000000000000007c7",
                        "key": "0x0000000000000000000000000000000000000000000000000000000000000012",
                        "prev": "0x00000000000000000000000000000000000000000000000000000000000007c6"
                    }
                ],
                "storageVariables": [
                    {
                        "name": "totalSymmetries",
                        "type": "uint256",
                        "value": {
                            "current": "10304",
                            "prev": "10303",
                            "typeTag": 1
                        }
                    }
                ]
            }
        ]
    }
}