{
    "balance_change": {
        "balanceChanges": [
            {
                "account": "0xfc8f6bd074913bd88392c9b7b59d6c1bcd34feb9",
                "assets": [
                    {
                        "address": "0x607f4c5bb672230e8672085532f7e901544a7375",
                        "amount": "1,846.425018",
                        "iconUrl": "https://assets.blocksec.com/icon/3d16cfb8c53a6da83ff11fbd3e3be21da29666cc3d152a6717c6eb60716a0576.png",
                        "isERC1155": false,
                        "isERC721": false,
                        "sign": false,
                        "value": ""
                    }
                ]
            },
            {
                "account": "0x1cd3a3d710d685fc16484b9209a203470b522dee",
                "assets": [
                    {
                        "address": "0x607f4c5bb672230e8672085532f7e901544a7375",
                        "amount": "1,846.425018",
                        "iconUrl": "https://assets.blocksec.com/icon/3d16cfb8c53a6da83ff11fbd3e3be21da29666cc3d152a6717c6eb60716a0576.png",
                        "isERC1155": false,
                        "isERC721": false,
                        "sign": true,
                        "value": ""
                    }
                ]
            }
        ]
    },
    "profile": {
        "basic_info": {
            "baseFee": "",
            "blockNumber": 9056521,
            "callData": "0xa9059cbb0000000000000000000000001cd3a3d710d685fc16484b9209a203470b522dee000000000000000000000000000000000000000000000000000001ade781de90",
            "debugEnable": true,
            "errorInfo": "",
            "eventCount": 1,
            "feeRecipient": "0xea674fdde714fd979de3edf0f56aa9716b898ec8",
            "formatValue": "0",
            "gasLimit": 94284,
            "gasPrice": "5.4",
            "gasUsed": 37380,
            "intTxnCount": 0,
            "internalRevert": false,
            "internalRevertMessage": "",
            "isContractCreation": false,
            "isFlashloan": false,
            "maxFee": "",
            "nonce": 43,
            "overwritedBlockNumber": -1,
            "priorityFee": "",
            "receiver": "0x607f4c5bb672230e8672085532f7e901544a7375",
            "revertMessage": "",
            "sender": "0xfc8f6bd074913bd88392c9b7b59d6c1bcd34feb9",
            "simulationEnable": true,
            "sourceTxnHash": "0xf0225118d8eba6ef3fada05a9f511cd8bfe6033fd3acc916d1d609ad9ae61f17",
            "status": true,
            "timestamp": "2019-12-05T19:21:06Z",
            "transactionFee": "0.000201852",
            "txnHash": "0xf0225118d8eba6ef3fada05a9f511cd8bfe6033fd3acc916d1d609ad9ae61f17",
            "txnIndex": 37,
            "type": 0,
            "value": "0"
        },
        "fund_flow": [
            {
                "amount": "1,846.425018",
                "from": "0xfc8f6bd074913bd88392c9b7b59d6c1bcd34feb9",
                "id": 1,
                "isERC1155": false,
                "isERC721": false,
                "isReverted": false,
                "order": 1,
                "to": "0x1cd3a3d710d685fc16484b9209a203470b522dee",
                "token": "0x607f4c5bb672230e8672085532f7e901544a7375"
            }
        ],
        "token_infos": [
            {
                "address": "0xc02aaa39b223fe8d0a0e5c4f27ead9083c756cc2",
                "decimals": 18
            },
            {
                "address": "0xeeeeeeeeeeeeeeeeeeeeeeeeeeeeeeeeeeeeeeee",
                "decimals": 18
            },
            {
                "address": "0x607f4c5bb672230e8672085532f7e901544a7375",
                "decimals": 9
            }
        ]
    },
    "address_label": {
        "labels": [
            {
                "address": "0x0000000000000000000000000000000000000004",
                "label": "Precompiled"
            },
            {
                "address": "0xeeeeeeeeeeeeeeeeeeeeeeeeeeeeeeeeeeeeeeee",
                "label": "Ether"
            },
            {
                "address": "0x607f4c5bb672230e8672085532f7e901544a7375",
                "label": "RLC Token"
            },
            {
                "address": "0x0000000000000000000000000000000000000001",
                "label": "Precompiled"
            },
            {
                "address": "0x0000000000000000000000000000000000000002",
                "label": "Precompiled"
            },
            {
                "address": "0x0000000000000000000000000000000000000003",
                "label": "Precompiled"
            }
        ]
    },
    "trace": {
        "accountLabels": null,
        "dataMap": {
            "-1": {
                "invocation": {
                    "address": "0xfc8f6bd074913bd88392c9b7b59d6c1bcd34feb9",
                    "callData": "",
                    "decodedMethod": null,
                    "errorInfo": "",
                    "fromAddress": "",
                    "gasUsed": 0,
                    "id": -1,
                    "methodDecoded": false,
                    "operation": "",
                    "output": "",
                    "revert": false,
                    "revertMessage": "",
                    "selector": "",
                    "status": false,
                    "value": ""
                },
                "nodeType": 0
            },
            "0": {
                "invocation": {
                    "address": "0x607f4c5bb672230e8672085532f7e901544a7375",
                    "callData": "0x0000000000000000000000001cd3a3d710d685fc16484b9209a203470b522dee000000000000000000000000000000000000000000000000000001ade781de90",
                    "decodedMethod": {
                        "callParams": [
                            {
                                "name": "_to",
                                "type": "address",
                                "value": "0x1cd3a3d710d685fc16484b9209a203470b522dee"
                            },
                            {
                                "decimalAvailable": true,
                                "name": "_value",
                                "type": "uint256",
                                "value": "1,846,425,018,000"
                            }
                        ],
                        "constructorArguments": "",
                        "name": "transfer",
                        "returnParams": [
                            {
                                "name": "",
                                "type": "bool",
                                "value": true
                            }
                        ],
                        "signature": "transfer(address,uint256)"
                    },
                    "errorInfo": "",
                    "fromAddress": "0xfc8f6bd074913bd88392c9b7b59d6c1bcd34feb9",
                    "gasUsed": 37380,
                    "id": 0,
                    "methodDecoded": true,
                    "operation": "CALL",
                    "output": "0x0000000000000000000000000000000000000000000000000000000000000001",
                    "revert": false,
                    "revertMessage": "",
                    "selector": "0xa9059cbb",
                    "status": true,
                    "value": "0"
                },
                "nodeType": 0
            },
            "1": {
                "event": {
                    "contract": "0x607f4c5bb672230e8672085532f7e901544a7375",
                    "decodedLog": {
                        "name": "Transfer",
                        "params": [
                            {
                                "name": "from",
                                "type": "address",
                                "value": "0xfc8f6bd074913bd88392c9b7b59d6c1bcd34feb9"
                            },
                            {
                                "name": "to",
                                "type": "address",
                                "value": "0x1cd3a3d710d685fc16484b9209a203470b522dee"
                            },
                            {
                                "decimalAvailable": true,
                                "name": "value",
                                "type": "uint256",
                                "value": "1,846,425,018,000"
                            }
                        ],
                        "signature": "Transfer(address,address,uint256)"
                    },
                    "id": 1,
                    "logData": "0x000000000000000000000000000000000000000000000000000001ade781de90",
                    "logDecoded": true,
                    "operation": "EVENT",
                    "revert": false,
                    "status": true,
                    "topics": [
                        "0xddf252ad1be2c89b69c2b068fc378daa952ba7f163c4a11628f55a4df523b3ef",
                        "0x000000000000000000000000fc8f6bd074913bd88392c9b7b59d6c1bcd34feb9",
                        "0x0000000000000000000000001cd3a3d710d685fc16484b9209a203470b522dee"
                    ]
                },
                "nodeType": 1
            }
        },
        "gasFlame": [
            {
                "children": [
                    {
                        "children": [
                            {
                                "children": [],
                                "depth": 0,
                                "name": "Initial Gas",
                                "value": 23192
                            },
                            {
                                "children": [],
                                "depth": 0,
                                "name": "Executed Gas",
                                "value": 29188
                            }
                        ],
                        "depth": -1,
                        "name": "Actual Gas Used",
                        "value": 37380
                    },
                    {
                        "children": [],
                        "depth": -1,
                        "name": "Refunded Gas",
                        "value": 15000
                    }
                ],
                "depth": -2,
                "name": "Total Gas",
                "value": 52380
            }
        ],
        "isConfirmed": true,
        "mainTrace": [
            {
                "children": [
                    {
                        "children": [
                            {
                                "children": [],
                                "depth": 1,
                                "id": 1,
                                "order": 1
                            }
                        ],
                        "depth": 0,
                        "id": 0,
                        "order": 0
                    }
                ],
                "depth": -1,
                "id": -1,
                "order": -1
            }
        ],
        "mainTraceNodeCount": 2,
        "parentIdMap": {
            "0": -1,
            "1": 0
        },
        "tidyTrace": [
            {
                "children": [
                    {
                        "children": [
                            {
                                "children": [],
                                "depth": 1,
                                "id": 1,
                                "order": 1
                            }
                        ],
                        "depth": 0,
                        "id": 0,
                        "order": 0
                    }
                ],
                "depth": -1,
                "id": -1,
                "order": -1
            }
        ],
        "tidyTraceNodeCount": 2
    },
    "state_change": {
        "stateChanges": [
            {
                "address": "0x607f4c5bb672230e8672085532f7e901544a7375",
                "erc": "ERC-20",
                "slots": [
                    {
                        "current": "0x0000000000000000000000000000000000000000000000000000000000000000",
                        "key": "0xe4e2504ea06923e8b7deb15978f7658a4e4f38194f9543e1cb252a46e66c0879",
                        "prev": "0x000000000000000000000000000000000000000000000000000001ade781de90"
                    },
                    {
                        "current": "0x000000000000000000000000000000000000000000000000000001ade781de90",
                        "key": "0xdbc6c8f95cfad4e44176d2a004c7ddab2a10ffb47cf003b7f39b16fb0a866955",
                        "prev": "0x0000000000000000000000000000000000000000000000000000000000000000"
                    }
                ],
                "storageVariables": []
            }
        ]
    }
}