{
    "balance_change": {
        "balanceChanges": [
            {
                "account": "0x047dd5f5e73a83e4dbd9d11673328c24ce22450f",
                "assets": [
                    {
                        "address": "0xf4d2888d29d722226fafa5d9b24f9164c092421e",
                        "amount": "3,240.60931106200548292",
                        "iconUrl": "",
                        "isERC1155": false,
                        "isERC721": false,
                        "sign": false,
                        "value": "221.65767687240000798"
                    }
                ]
            },
            {
                "account": "0xabd75cd4117fa7bfaa096f581abcec69b8d68f50",
                "assets": [
                    {
                        "address": "0xf4d2888d29d722226fafa5d9b24f9164c092421e",
                        "amount": "3,240.60931106200548292",
                        "iconUrl": "",
                        "isERC1155": false,
                        "isERC721": false,
                        "sign": true,
                        "value": "221.65767687240000798"
                    }
                ]
            }
        ]
    },
    "profile": {
        "basic_info": {
            "baseFee": "18.980388266",
            "blockNumber": 19069520,
            "callData": "0xcaa5c23f000000000000000000000000000000000000000000000000000000000000002000000000000000000000000000000000000000000000000000000000000000010000000000000000000000000000000000000000000000000000000000000020000000000000000000000000f4d2888d29d722226fafa5d9b24f9164c092421e0000000000000000000000000000000000000000000000000000000000000040000000000000000000000000000000000000000000000000000000000000006423b872dd000000000000000000000000047dd5f5e73a83e4dbd9d11673328c24ce22450f000000000000000000000000abd75cd4117fa7bfaa096f581abcec69b8d68f500000000000000000000000000000000000000000000000afac7d06ed4a2d85a800000000000000000000000000000000000000000000000000000000",
            "debugEnable": true,
            "errorInfo": "",
            "eventCount": 3,
            "feeRecipient": "0x229b8325bb9ac04602898b7e8989998710235d5f",
            "formatValue": "0",
            "gasLimit": 327060,
            "gasPrice": "29.402559818",
            "gasUsed": 76500,
            "intTxnCount": 3,
            "internalRevert": false,
            "internalRevertMessage": "",
            "isContractCreation": false,
            "isFlashloan": false,
            "maxFee": "",
            "nonce": 38896,
            "overwritedBlockNumber": -1,
            "priorityFee": "",
            "receiver": "0x0000c84206a971ba91b6ca790636cff1640d0000",
            "revertMessage": "",
            "sender": "0x0000db5c8b030ae20308ac975898e09741e70000",
            "simulationEnable": true,
            "sourceTxnHash": "0xf05e4a4caf2d150efaaeece283040f60ff0c98a55de4c999341fc55209a5d631",
            "status": true,
            "timestamp": "2024-01-23T12:58:23Z",
            "transactionFee": "0.002249295826077",
            "txnHash": "0xf05e4a4caf2d150efaaeece283040f60ff0c98a55de4c999341fc55209a5d631",
            "txnIndex": 6,
            "type": 0,
            "value": "0"
        },
        "fund_flow": [
            {
                "amount": "3,240.60931106200548292",
                "from": "0x047dd5f5e73a83e4dbd9d11673328c24ce22450f",
                "id": 1,
                "isERC1155": false,
                "isERC721": false,
                "isReverted": false,
                "order": 1,
                "to": "0xabd75cd4117fa7bfaa096f581abcec69b8d68f50",
                "token": "0xf4d2888d29d722226fafa5d9b24f9164c092421e"
            }
        ],
        "token_infos": [
            {
                "address": "0xf4d2888d29d722226fafa5d9b24f9164c092421e",
                "decimals": 18
            },
            {
                "address": "0xeeeeeeeeeeeeeeeeeeeeeeeeeeeeeeeeeeeeeeee",
                "decimals": 18
            },
            {
                "address": "0xc02aaa39b223fe8d0a0e5c4f27ead9083c756cc2",
                "decimals": 18
            }
        ]
    },
    "address_label": {
        "labels": [
            {
                "address": "0x0000000000000000000000000000000000000002",
                "label": "Precompiled"
            },
            {
                "address": "0x0000000000000000000000000000000000000004",
                "label": "Precompiled"
            },
            {
                "address": "0xeeeeeeeeeeeeeeeeeeeeeeeeeeeeeeeeeeeeeeee",
                "label": "Ether"
            },
            {
                "address": "0x0000e23abdc862a1911d77904e77fdb378d00000",
                "label": "StorageContract"
            },
            {
                "address": "0x0000000000000000000000000000000000000001",
                "label": "Precompiled"
            },
            {
                "address": "0x0000db5c8b030ae20308ac975898e09741e70000",
                "label": "Fake_Phishing187019"
            },
            {
                "address": "0x0000000000000000000000000000000000000003",
                "label": "Precompiled"
            },
            {
                "address": "0xabd75cd4117fa7bfaa096f581abcec69b8d68f50",
                "label": "Fake_Phishing291031"
            },
            {
                "address": "0xf4d2888d29d722226fafa5d9b24f9164c092421e",
                "label": "LooksRare: LOOKS Token"
            },
            {
                "address": "0x0000c84206a971ba91b6ca790636cff1640d0000",
                "label": "Fake_Phishing0000_0000"
            }
        ]
    },
    "trace": {
        "accountLabels": null,
        "dataMap": {
            "-1": {
                "invocation": {
                    "address": "0x0000db5c8b030ae20308ac975898e09741e70000",
                    "callData": "",
                    "decodedMethod": null,
                    "errorInfo": "",
                    "fromAddress": "",
                    "gasUsed": 0,
                    "id": -1,
                    "methodDecoded": false,
                    "operation": "",
                    "output": "",
                    "revert": false,
                    "revertMessage": "",
                    "selector": "",
                    "status": false,
                    "value": ""
                },
                "nodeType": 0
            },
            "0": {
                "invocation": {
                    "address": "0x0000c84206a971ba91b6ca790636cff1640d0000",
                    "callData": "0x000000000000000000000000000000000000000000000000000000000000002000000000000000000000000000000000000000000000000000000000000000010000000000000000000000000000000000000000000000000000000000000020000000000000000000000000f4d2888d29d722226fafa5d9b24f9164c092421e0000000000000000000000000000000000000000000000000000000000000040000000000000000000000000000000000000000000000000000000000000006423b872dd000000000000000000000000047dd5f5e73a83e4dbd9d11673328c24ce22450f000000000000000000000000abd75cd4117fa7bfaa096f581abcec69b8d68f500000000000000000000000000000000000000000000000afac7d06ed4a2d85a800000000000000000000000000000000000000000000000000000000",
                    "decodedMethod": {
                        "callParams": [
                            {
                                "name": "calls",
                                "type": "(address,bytes)[]",
                                "value": [
                                    [
                                        {
                                            "name": "target",
                                            "type": "address",
                                            "value": "0xf4d2888d29d722226fafa5d9b24f9164c092421e"
                                        },
                                        {
                                            "name": "callData",
                                            "type": "bytes",
                                            "value": "0x23b872dd000000000000000000000000047dd5f5e73a83e4dbd9d11673328c24ce22450f000000000000000000000000abd75cd4117fa7bfaa096f581abcec69b8d68f500000000000000000000000000000000000000000000000afac7d06ed4a2d85a8"
                                        }
                                    ]
                                ]
                            }
                        ],
                        "constructorArguments": "",
                        "name": "multicall",
                        "returnParams": [],
                        "signature": "multicall((address,bytes)[])"
                    },
                    "errorInfo": "",
                    "fromAddress": "0x0000db5c8b030ae20308ac975898e09741e70000",
                    "gasUsed": 76500,
                    "id": 0,
                    "methodDecoded": true,
                    "operation": "CALL",
                    "output": "",
                    "revert": false,
                    "revertMessage": "",
                    "selector": "0xcaa5c23f",
                    "status": true,
                    "value": "0"
                },
                "nodeType": 0
            },
            "1": {
                "invocation": {
                    "address": "0x0000e23abdc862a1911d77904e77fdb378d00000",
                    "callData": "0x",
                    "decodedMethod": {
                        "callParams": [],
                        "constructorArguments": "",
                        "name": "getOwners",
                        "returnParams": [
                            {
                                "name": "",
                                "type": "address[]",
                                "value": [
                                    "0x0000db5c8b030ae20308ac975898e09741e70000"
                                ]
                            }
                        ],
                        "signature": "getOwners()"
                    },
                    "errorInfo": "",
                    "fromAddress": "0x0000c84206a971ba91b6ca790636cff1640d0000",
                    "gasUsed": 5523,
                    "id": 1,
                    "methodDecoded": true,
                    "operation": "STATICCALL",
                    "output": "0x000000000000000000000000000000000000000000000000000000000000002000000000000000000000000000000000000000000000000000000000000000010000000000000000000000000000db5c8b030ae20308ac975898e09741e70000",
                    "revert": false,
                    "revertMessage": "",
                    "selector": "0xa0e67e2b",
                    "status": true,
                    "value": "0"
                },
                "nodeType": 0
            },
            "2": {
                "invocation": {
                    "address": "0x0000e23abdc862a1911d77904e77fdb378d00000",
                    "callData": "0x0000000000000000000000000000000000000000000000000000000000000000",
                    "decodedMethod": {
                        "callParams": [
                            {
                                "name": "",
                                "type": "uint256",
                                "value": "0"
                            }
                        ],
                        "constructorArguments": "",
                        "name": "owners",
                        "returnParams": [
                            {
                                "name": "",
                                "type": "address",
                                "value": "0x0000db5c8b030ae20308ac975898e09741e70000"
                            }
                        ],
                        "signature": "owners(uint256)"
                    },
                    "errorInfo": "",
                    "fromAddress": "0x0000c84206a971ba91b6ca790636cff1640d0000",
                    "gasUsed": 934,
                    "id": 2,
                    "methodDecoded": true,
                    "operation": "STATICCALL",
                    "output": "0x0000000000000000000000000000db5c8b030ae20308ac975898e09741e70000",
                    "revert": false,
                    "revertMessage": "",
                    "selector": "0x025e7c27",
                    "status": true,
                    "value": "0"
                },
                "nodeType": 0
            },
            "3": {
                "invocation": {
                    "address": "0xf4d2888d29d722226fafa5d9b24f9164c092421e",
                    "callData": "0x000000000000000000000000047dd5f5e73a83e4dbd9d11673328c24ce22450f000000000000000000000000abd75cd4117fa7bfaa096f581abcec69b8d68f500000000000000000000000000000000000000000000000afac7d06ed4a2d85a8",
                    "decodedMethod": {
                        "callParams": [
                            {
                                "name": "sender",
                                "type": "address",
                                "value": "0x047dd5f5e73a83e4dbd9d11673328c24ce22450f"
                            },
                            {
                                "name": "recipient",
                                "type": "address",
                                "value": "0xabd75cd4117fa7bfaa096f581abcec69b8d68f50"
                            },
                            {
                                "decimalAvailable": true,
                                "name": "amount",
                                "type": "uint256",
                                "value": "3,240,609,311,062,005,482,920"
                            }
                        ],
                        "constructorArguments": "",
                        "name": "transferFrom",
                        "returnParams": [
                            {
                                "name": "",
                                "type": "bool",
                                "value": true
                            }
                        ],
                        "signature": "transferFrom(address,address,uint256)"
                    },
                    "errorInfo": "",
                    "fromAddress": "0x0000c84206a971ba91b6ca790636cff1640d0000",
                    "gasUsed": 37135,
                    "id": 3,
                    "methodDecoded": true,
                    "operation": "CALL",
                    "output": "0x0000000000000000000000000000000000000000000000000000000000000001",
                    "revert": false,
                    "revertMessage": "",
                    "selector": "0x23b872dd",
                    "status": true,
                    "value": "0"
                },
                "nodeType": 0
            },
            "4": {
                "event": {
                    "contract": "0xf4d2888d29d722226fafa5d9b24f9164c092421e",
                    "decodedLog": {
                        "name": "Transfer",
                        "params": [
                            {
                                "name": "from",
                                "type": "address",
                                "value": "0x047dd5f5e73a83e4dbd9d11673328c24ce22450f"
                            },
                            {
                                "name": "to",
                                "type": "address",
                                "value": "0xabd75cd4117fa7bfaa096f581abcec69b8d68f50"
                            },
                            {
                                "decimalAvailable": true,
                                "name": "value",
                                "type": "uint256",
                                "value": "3,240,609,311,062,005,482,920"
                            }
                        ],
                        "signature": "Transfer(address,address,uint256)"
                    },
                    "id": 4,
                    "logData": "0x0000000000000000000000000000000000000000000000afac7d06ed4a2d85a8",
                    "logDecoded": true,
                    "operation": "EVENT",
                    "revert": false,
                    "status": true,
                    "topics": [
                        "0xddf252ad1be2c89b69c2b068fc378daa952ba7f163c4a11628f55a4df523b3ef",
                        "0x000000000000000000000000047dd5f5e73a83e4dbd9d11673328c24ce22450f",
                        "0x000000000000000000000000abd75cd4117fa7bfaa096f581abcec69b8d68f50"
                    ]
                },
                "nodeType": 1
            },
            "5": {
                "event": {
                    "contract": "0xf4d2888d29d722226fafa5d9b24f9164c092421e",
                    "decodedLog": {
                        "name": "Approval",
                        "params": [
                            {
                                "name": "owner",
                                "type": "address",
                                "value": "0x047dd5f5e73a83e4dbd9d11673328c24ce22450f"
                            },
                            {
                                "name": "spender",
                                "type": "address",
                                "value": "0x0000c84206a971ba91b6ca790636cff1640d0000"
                            },
                            {
                                "decimalAvailable": true,
                                "name": "value",
                                "type": "uint256",
                                "value": "115,792,089,237,316,195,423,570,985,008,687,907,853,269,984,665,640,564,036,216,974,696,851,124,157,015"
                            }
                        ],
                        "signature": "Approval(address,address,uint256)"
                    },
                    "id": 5,
                    "logData": "0xffffffffffffffffffffffffffffffffffffffffffffff505382f912b5d27a57",
                    "logDecoded": true,
                    "operation": "EVENT",
                    "revert": false,
                    "status": true,
                    "topics": [
                        "0x8c5be1e5ebec7d5bd14f71427d1e84f3dd0314c0f7b2291e5b200ac8c7c3b925",
                        "0x000000000000000000000000047dd5f5e73a83e4dbd9d11673328c24ce22450f",
                        "0x0000000000000000000000000000c84206a971ba91b6ca790636cff1640d0000"
                    ]
                },
                "nodeType": 1
            },
            "6": {
                "event": {
                    "contract": "0x0000c84206a971ba91b6ca790636cff1640d0000",
                    "decodedLog": {
                        "name": "CallStatus",
                        "params": [
                            {
                                "name": "target",
                                "type": "address",
                                "value": "0xf4d2888d29d722226fafa5d9b24f9164c092421e"
                            },
                            {
                                "name": "success",
                                "type": "bool",
                                "value": true
                            }
                        ],
                        "signature": "CallStatus(address,bool)"
                    },
                    "id": 6,
                    "logData": "0x0000000000000000000000000000000000000000000000000000000000000001",
                    "logDecoded": true,
                    "operation": "EVENT",
                    "revert": false,
                    "status": true,
                    "topics": [
                        "0xb5cb27a38d4490736679c8feb25b220de6e56af98bbc4d61378dffde8e46101c",
                        "0x000000000000000000000000f4d2888d29d722226fafa5d9b24f9164c092421e"
                    ]
                },
                "nodeType": 1
            }
        },
        "gasFlame": [
            {
                "children": [
                    {
                        "children": [
                            {
                                "children": [],
                                "depth": 0,
                                "name": "Initial Gas",
                                "value": 23280
                            },
                            {
                                "children": [
                                    {
                                        "children": [],
                                        "depth": 1,
                                        "name": "getOwners",
                                        "value": 5523
                                    },
                                    {
                                        "children": [],
                                        "depth": 1,
                                        "name": "owners",
                                        "value": 934
                                    },
                                    {
                                        "children": [],
                                        "depth": 1,
                                        "name": "transferFrom",
                                        "value": 37135
                                    }
                                ],
                                "depth": 0,
                                "name": "Executed Gas",
                                "value": 58020
                            }
                        ],
                        "depth": -1,
                        "name": "Actual Gas Used",
                        "value": 76500
                    },
                    {
                        "children": [],
                        "depth": -1,
                        "name": "Refunded Gas",
                        "value": 4800
                    }
                ],
                "depth": -2,
                "name": "Total Gas",
                "value": 81300
            }
        ],
        "isConfirmed": true,
        "mainTrace": [
            {
                "children": [
                    {
                        "children": [
                            {
                                "children": [],
                                "depth": 1,
                                "id": 1,
                                "order": 1
                            },
                            {
                                "children": [],
                                "depth": 1,
                                "id": 2,
                                "order": 2
                            },
                            {
                                "children": [
                                    {
                                        "children": [],
                                        "depth": 2,
                                        "id": 4,
                                        "order": 4
                                    },
                                    {
                                        "children": [],
                                        "depth": 2,
                                        "id": 5,
                                        "order": 5
                                    }
                                ],
                                "depth": 1,
                                "id": 3,
                                "order": 3
                            },
                            {
                                "children": [],
                                "depth": 1,
                                "id": 6,
                                "order": 6
                            }
                        ],
                        "depth": 0,
                        "id": 0,
                        "order": 0
                    }
                ],
                "depth": -1,
                "id": -1,
                "order": -1
            }
        ],
        "mainTraceNodeCount": 7,
        "parentIdMap": {
            "0": -1,
            "1": 0,
            "2": 0,
            "3": 0,
            "4": 3,
            "5": 3,
            "6": 0
        },
        "tidyTrace": [
            {
                "children": [
                    {
                        "children": [
                            {
                                "children": [
                                    {
                                        "children": [],
                                        "depth": 2,
                                        "id": 4,
                                        "order": 4
                                    },
                                    {
                                        "children": [],
                                        "depth": 2,
                                        "id": 5,
                                        "order": 5
                                    }
                                ],
                                "depth": 1,
                                "id": 3,
                                "order": 3
                            },
                            {
                                "children": [],
                                "depth": 1,
                                "id": 6,
                                "order": 6
                            }
                        ],
                        "depth": 0,
                        "id": 0,
                        "order": 0
                    }
                ],
                "depth": -1,
                "id": -1,
                "order": -1
            }
        ],
        "tidyTraceNodeCount": 5
    },
    "state_change": {
        "stateChanges": [
            {
                "address": "0xf4d2888d29d722226fafa5d9b24f9164c092421e",
                "erc": "ERC-20",
                "slots": [
                    {
                        "current": "0xffffffffffffffffffffffffffffffffffffffffffffff505382f912b5d27a57",
                        "key": "0xc2ec4ed3dcb1c76553efaec22409f2764e34a1efccca85d766224bd67f9f713a",
                        "prev": "0xffffffffffffffffffffffffffffffffffffffffffffffffffffffffffffffff"
                    },
                    {
                        "current": "0x0000000000000000000000000000000000000000000000000000000000000000",
                        "key": "0xcb3a498d8cc14ac7991640e3381c40a1eaaa2eb75f2155051092122045823391",
                        "prev": "0x0000000000000000000000000000000000000000000000afac7d06ed4a2d85a8"
                    },
                    {
                        "current": "0x0000000000000000000000000000000000000000000000afac7d06ed4a2d85a8",
                        "key": "0x5c339b8016bd570f276b2626d4ac8ba6feb039de7e11223140c4068d9ac117d4",
                        "prev": "0x0000000000000000000000000000000000000000000000000000000000000000"
                    }
                ],
                "storageVariables": [
                    {
                        "name": "_balances",
                        "type": "mapping(address => uint256)",
                        "value": {
                            "pairs": [
                                {
                                    "key": "0x047dd5f5e73a83e4dbd9d11673328c24ce22450f",
                                    "value": {
                                        "current": "0",
                                        "prev": "3240609311062005482920",
                                        "typeTag": 1
                                    }
                                },
                                {
                                    "key": "0xabd75cd4117fa7bfaa096f581abcec69b8d68f50",
                                    "value": {
                                        "current": "3240609311062005482920",
                                        "prev": "0",
                                        "typeTag": 1
                                    }
                                }
                            ],
                            "typeTag": 4
                        }
                    },
                    {
                        "name": "_allowances",
                        "type": "mapping(address => mapping(address => uint256))",
                        "value": {
                            "pairs": [
                                {
                                    "key": "0x047dd5f5e73a83e4dbd9d11673328c24ce22450f",
                                    "value": {
                                        "pairs": [
                                            {
                                                "key": "0x0000c84206a971ba91b6ca790636cff1640d0000",
                                                "value": {
                                                    "current": "115792089237316195423570985008687907853269984665640564036216974696851124157015",
                                                    "prev": "115792089237316195423570985008687907853269984665640564039457584007913129639935",
                                                    "typeTag": 1
                                                }
                                            }
                                        ],
                                        "typeTag": 4
                                    }
                                }
                            ],
                            "typeTag": 4
                        }
                    }
                ]
            }
        ]
    }
}