{
    "balance_change": {
        "balanceChanges": [
            {
                "account": "0x90b6220f63c6451e2c8ff6bf9a5f79f50b4fff98",
                "assets": [
                    {
                        "address": "0x662abcad0b7f345ab7ffb1b1fbb9df7894f18e66",
                        "amount": "4,750.24674898572",
                        "iconUrl": "",
                        "isERC1155": false,
                        "isERC721": false,
                        "sign": false,
                        "value": ""
                    }
                ]
            },
            {
                "account": "0x7a0fc3bf2a5e2c04a9e7f31cdb91a9ddad66a056",
                "assets": [
                    {
                        "address": "0x662abcad0b7f345ab7ffb1b1fbb9df7894f18e66",
                        "amount": "4,750.24674898572",
                        "iconUrl": "",
                        "isERC1155": false,
                        "isERC721": false,
                        "sign": true,
                        "value": ""
                    }
                ]
            }
        ]
    },
    "profile": {
        "basic_info": {
            "baseFee": "",
            "blockNumber": 4507265,
            "callData": "0xa9059cbb0000000000000000000000007a0fc3bf2a5e2c04a9e7f31cdb91a9ddad66a05600000000000000000000000000000000000000000000010182ea9a510bff4e00",
            "debugEnable": true,
            "errorInfo": "",
            "eventCount": 1,
            "feeRecipient": "0x5a0b54d5dc17e0aadc383d2db43b0a0d3e029c4c",
            "formatValue": "0",
            "gasLimit": 200000,
            "gasPrice": "1",
            "gasUsed": 98960,
            "intTxnCount": 0,
            "internalRevert": false,
            "internalRevertMessage": "",
            "isContractCreation": false,
            "isFlashloan": false,
            "maxFee": "",
            "nonce": 6591,
            "overwritedBlockNumber": -1,
            "priorityFee": "",
            "receiver": "0x662abcad0b7f345ab7ffb1b1fbb9df7894f18e66",
            "revertMessage": "",
            "sender": "0x90b6220f63c6451e2c8ff6bf9a5f79f50b4fff98",
            "simulationEnable": true,
            "sourceTxnHash": "0xf0f4b4f51f068cc9ddd5e5694853daf37130231861d66e6dd2c68326b8b2bf63",
            "status": true,
            "timestamp": "2017-11-07T11:58:59Z",
            "transactionFee": "0.00009896",
            "txnHash": "0xf0f4b4f51f068cc9ddd5e5694853daf37130231861d66e6dd2c68326b8b2bf63",
            "txnIndex": 78,
            "type": 0,
            "value": "0"
        },
        "fund_flow": [
            {
                "amount": "4,750.24674898572",
                "from": "0x90b6220f63c6451e2c8ff6bf9a5f79f50b4fff98",
                "id": 1,
                "isERC1155": false,
                "isERC721": false,
                "isReverted": false,
                "order": 1,
                "to": "0x7a0fc3bf2a5e2c04a9e7f31cdb91a9ddad66a056",
                "token": "0x662abcad0b7f345ab7ffb1b1fbb9df7894f18e66"
            }
        ],
        "token_infos": [
            {
                "address": "0x662abcad0b7f345ab7ffb1b1fbb9df7894f18e66",
                "decimals": 18
            },
            {
                "address": "0xc02aaa39b223fe8d0a0e5c4f27ead9083c756cc2",
                "decimals": 18
            },
            {
                "address": "0xeeeeeeeeeeeeeeeeeeeeeeeeeeeeeeeeeeeeeeee",
                "decimals": 18
            }
        ]
    },
    "address_label": {
        "labels": [
            {
                "address": "0xeeeeeeeeeeeeeeeeeeeeeeeeeeeeeeeeeeeeeeee",
                "label": "Ether"
            },
            {
                "address": "0x662abcad0b7f345ab7ffb1b1fbb9df7894f18e66",
                "label": "CarTaxiToken"
            },
            {
                "address": "0x0000000000000000000000000000000000000001",
                "label": "Precompiled"
            },
            {
                "address": "0x0000000000000000000000000000000000000002",
                "label": "Precompiled"
            },
            {
                "address": "0x0000000000000000000000000000000000000003",
                "label": "Precompiled"
            },
            {
                "address": "0x0000000000000000000000000000000000000004",
                "label": "Precompiled"
            }
        ]
    },
    "trace": {
        "accountLabels": null,
        "dataMap": {
            "-1": {
                "invocation": {
                    "address": "0x90b6220f63c6451e2c8ff6bf9a5f79f50b4fff98",
                    "callData": "",
                    "decodedMethod": null,
                    "errorInfo": "",
                    "fromAddress": "",
                    "gasUsed": 0,
                    "id": -1,
                    "methodDecoded": false,
                    "operation": "",
                    "output": "",
                    "revert": false,
                    "revertMessage": "",
                    "selector": "",
                    "status": false,
                    "value": ""
                },
                "nodeType": 0
            },
            "0": {
                "invocation": {
                    "address": "0x662abcad0b7f345ab7ffb1b1fbb9df7894f18e66",
                    "callData": "0x0000000000000000000000007a0fc3bf2a5e2c04a9e7f31cdb91a9ddad66a05600000000000000000000000000000000000000000000010182ea9a510bff4e00",
                    "decodedMethod": {
                        "callParams": [
                            {
                                "name": "_to",
                                "type": "address",
                                "value": "0x7a0fc3bf2a5e2c04a9e7f31cdb91a9ddad66a056"
                            },
                            {
                                "decimalAvailable": true,
                                "name": "_value",
                                "type": "uint256",
                                "value": "4,750,246,748,985,720,000,000"
                            }
                        ],
                        "constructorArguments": "",
                        "name": "transfer",
                        "returnParams": [
                            {
                                "name": "success",
                                "type": "bool",
                                "value": true
                            }
                        ],
                        "signature": "transfer(address,uint256)"
                    },
                    "errorInfo": "",
                    "fromAddress": "0x90b6220f63c6451e2c8ff6bf9a5f79f50b4fff98",
                    "gasUsed": 98960,
                    "id": 0,
                    "methodDecoded": true,
                    "operation": "CALL",
                    "output": "0x0000000000000000000000000000000000000000000000000000000000000001",
                    "revert": false,
                    "revertMessage": "",
                    "selector": "0xa9059cbb",
                    "status": true,
                    "value": "0"
                },
                "nodeType": 0
            },
            "1": {
                "event": {
                    "contract": "0x662abcad0b7f345ab7ffb1b1fbb9df7894f18e66",
                    "decodedLog": {
                        "name": "Transfer",
                        "params": [
                            {
                                "name": "from",
                                "type": "address",
                                "value": "0x90b6220f63c6451e2c8ff6bf9a5f79f50b4fff98"
                            },
                            {
                                "name": "to",
                                "type": "address",
                                "value": "0x7a0fc3bf2a5e2c04a9e7f31cdb91a9ddad66a056"
                            },
                            {
                                "decimalAvailable": true,
                                "name": "value",
                                "type": "uint256",
                                "value": "4,750,246,748,985,720,000,000"
                            }
                        ],
                        "signature": "Transfer(address,address,uint256)"
                    },
                    "id": 1,
                    "logData": "0x00000000000000000000000000000000000000000000010182ea9a510bff4e00",
                    "logDecoded": true,
                    "operation": "EVENT",
                    "revert": false,
                    "status": true,
                    "topics": [
                        "0xddf252ad1be2c89b69c2b068fc378daa952ba7f163c4a11628f55a4df523b3ef",
                        "0x00000000000000000000000090b6220f63c6451e2c8ff6bf9a5f79f50b4fff98",
                        "0x0000000000000000000000007a0fc3bf2a5e2c04a9e7f31cdb91a9ddad66a056"
                    ]
                },
                "nodeType": 1
            }
        },
        "gasFlame": [
            {
                "children": [
                    {
                        "children": [
                            {
                                "children": [],
                                "depth": 0,
                                "name": "Initial Gas",
                                "value": 23384
                            },
                            {
                                "children": [],
                                "depth": 0,
                                "name": "Executed Gas",
                                "value": 75576
                            }
                        ],
                        "depth": -1,
                        "name": "Actual Gas Used",
                        "value": 98960
                    },
                    {
                        "children": [],
                        "depth": -1,
                        "name": "Refunded Gas",
                        "value": 0
                    }
                ],
                "depth": -2,
                "name": "Total Gas",
                "value": 98960
            }
        ],
        "isConfirmed": true,
        "mainTrace": [
            {
                "children": [
                    {
                        "children": [
                            {
                                "children": [],
                                "depth": 1,
                                "id": 1,
                                "order": 1
                            }
                        ],
                        "depth": 0,
                        "id": 0,
                        "order": 0
                    }
                ],
                "depth": -1,
                "id": -1,
                "order": -1
            }
        ],
        "mainTraceNodeCount": 2,
        "parentIdMap": {
            "0": -1,
            "1": 0
        },
        "tidyTrace": [
            {
                "children": [
                    {
                        "children": [
                            {
                                "children": [],
                                "depth": 1,
                                "id": 1,
                                "order": 1
                            }
                        ],
                        "depth": 0,
                        "id": 0,
                        "order": 0
                    }
                ],
                "depth": -1,
                "id": -1,
                "order": -1
            }
        ],
        "tidyTraceNodeCount": 2
    },
    "state_change": {
        "stateChanges": [
            {
                "address": "0x662abcad0b7f345ab7ffb1b1fbb9df7894f18e66",
                "erc": "ERC-20",
                "slots": [
                    {
                        "current": "0x00000000000000000000000000000000000000000000000000000000000021d2",
                        "key": "0x0000000000000000000000000000000000000000000000000000000000000004",
                        "prev": "0x00000000000000000000000000000000000000000000000000000000000021d1"
                    },
                    {
                        "current": "0x0000000000000000000000007a0fc3bf2a5e2c04a9e7f31cdb91a9ddad66a056",
                        "key": "0x8a35acfbc15ff81a39ae7d344fd709f28e8600b4aa8c65c6b64bfe7fe36bf36c",
                        "prev": "0x0000000000000000000000000000000000000000000000000000000000000000"
                    },
                    {
                        "current": "0x000000000000000000000000000000000000000000114d64c736c5933d20430c",
                        "key": "0x1acbcc6bcd1e7c15d3d952595fbadd58769a7e0370057e07e0f88e50a0f84e87",
                        "prev": "0x000000000000000000000000000000000000000000114e664a215fe4491f910c"
                    },
                    {
                        "current": "0x00000000000000000000000000000000000000000000010182ea9a510bff4e00",
                        "key": "0x2aeddc01deed627404b764b4cb7ba16e15300c639a9a283f3568675d841b0cb4",
                        "prev": "0x0000000000000000000000000000000000000000000000000000000000000000"
                    },
                    {
                        "current": "0x0000000000000000000000000000000000000000000000000000000000000001",
                        "key": "0x70b9bb03b994cd68a854effaf2cf6b38f377a673d4a548e0e8410925acc36052",
                        "prev": "0x0000000000000000000000000000000000000000000000000000000000000000"
                    }
                ],
                "storageVariables": [
                    {
                        "name": "ownerAppended",
                        "type": "mapping(address => bool)",
                        "value": {
                            "pairs": [
                                {
                                    "key": "0x7a0fc3bf2a5e2c04a9e7f31cdb91a9ddad66a056",
                                    "value": {
                                        "current": "true",
                                        "prev": "false",
                                        "typeTag": 1
                                    }
                                }
                            ],
                            "typeTag": 4
                        }
                    },
                    {
                        "name": "owners",
                        "type": "address[]",
                        "value": {
                            "elemType": "address",
                            "elems": [
                                {
                                    "index": 8657,
                                    "value": {
                                        "current": "0x7a0fc3bf2a5e2c04a9e7f31cdb91a9ddad66a056",
                                        "prev": "0x0000000000000000000000000000000000000000",
                                        "typeTag": 1
                                    }
                                }
                            ],
                            "typeTag": 2
                        }
                    },
                    {
                        "name": "balances",
                        "type": "mapping(address => uint256)",
                        "value": {
                            "pairs": [
                                {
                                    "key": "0x7a0fc3bf2a5e2c04a9e7f31cdb91a9ddad66a056",
                                    "value": {
                                        "current": "4750246748985720000000",
                                        "prev": "0",
                                        "typeTag": 1
                                    }
                                },
                                {
                                    "key": "0x90b6220f63c6451e2c8ff6bf9a5f79f50b4fff98",
                                    "value": {
                                        "current": "20917220181915128073044748",
                                        "prev": "20921970428664113793044748",
                                        "typeTag": 1
                                    }
                                }
                            ],
                            "typeTag": 4
                        }
                    }
                ]
            }
        ]
    }
}