{
    "balance_change": {
        "balanceChanges": [
            {
                "account": "0x42457ad283bb439acad18d99820a691ee69d68c1",
                "assets": [
                    {
                        "address": "0x78b7fada55a64dd895d8c8c35779dd8b67fa8a05",
                        "amount": "2,020",
                        "iconUrl": "https://assets.blocksec.com/icon/3de62bb3e63a883f754c33d1a91cb7d53ea76fc265f1cbddfa24463b71d0b906.png",
                        "isERC1155": false,
                        "isERC721": false,
                        "sign": false,
                        "value": ""
                    }
                ]
            },
            {
                "account": "0xc37977590d2e575df9f3c5d4e779e7c3483e1c90",
                "assets": [
                    {
                        "address": "0x78b7fada55a64dd895d8c8c35779dd8b67fa8a05",
                        "amount": "2,020",
                        "iconUrl": "https://assets.blocksec.com/icon/3de62bb3e63a883f754c33d1a91cb7d53ea76fc265f1cbddfa24463b71d0b906.png",
                        "isERC1155": false,
                        "isERC721": false,
                        "sign": true,
                        "value": ""
                    }
                ]
            }
        ]
    },
    "profile": {
        "basic_info": {
            "baseFee": "",
            "blockNumber": 5212884,
            "callData": "0xa9059cbb000000000000000000000000c37977590d2e575df9f3c5d4e779e7c3483e1c9000000000000000000000000000000000000000000000006d8121a194d1100000",
            "debugEnable": true,
            "errorInfo": "",
            "eventCount": 1,
            "feeRecipient": "0xb2930b35844a230f00e51431acae96fe543a0347",
            "formatValue": "0",
            "gasLimit": 52063,
            "gasPrice": "41",
            "gasUsed": 37063,
            "intTxnCount": 0,
            "internalRevert": false,
            "internalRevertMessage": "",
            "isContractCreation": false,
            "isFlashloan": false,
            "maxFee": "",
            "nonce": 78,
            "overwritedBlockNumber": -1,
            "priorityFee": "",
            "receiver": "0x78b7fada55a64dd895d8c8c35779dd8b67fa8a05",
            "revertMessage": "",
            "sender": "0x42457ad283bb439acad18d99820a691ee69d68c1",
            "simulationEnable": true,
            "sourceTxnHash": "0xf0969b7ebd1e3920cdf7a1ae7aea6f9077aea88ad08015fa25304ce6686698f7",
            "status": true,
            "timestamp": "2018-03-07T13:45:52Z",
            "transactionFee": "0.001519583",
            "txnHash": "0xf0969b7ebd1e3920cdf7a1ae7aea6f9077aea88ad08015fa25304ce6686698f7",
            "txnIndex": 35,
            "type": 0,
            "value": "0"
        },
        "fund_flow": [
            {
                "amount": "2,020",
                "from": "0x42457ad283bb439acad18d99820a691ee69d68c1",
                "id": 1,
                "isERC1155": false,
                "isERC721": false,
                "isReverted": false,
                "order": 1,
                "to": "0xc37977590d2e575df9f3c5d4e779e7c3483e1c90",
                "token": "0x78b7fada55a64dd895d8c8c35779dd8b67fa8a05"
            }
        ],
        "token_infos": [
            {
                "address": "0x78b7fada55a64dd895d8c8c35779dd8b67fa8a05",
                "decimals": 18
            },
            {
                "address": "0xc02aaa39b223fe8d0a0e5c4f27ead9083c756cc2",
                "decimals": 18
            },
            {
                "address": "0xeeeeeeeeeeeeeeeeeeeeeeeeeeeeeeeeeeeeeeee",
                "decimals": 18
            }
        ]
    },
    "address_label": {
        "labels": [
            {
                "address": "0x78b7fada55a64dd895d8c8c35779dd8b67fa8a05",
                "label": "Atlant: ATL Token"
            },
            {
                "address": "0x0000000000000000000000000000000000000001",
                "label": "Precompiled"
            },
            {
                "address": "0x0000000000000000000000000000000000000002",
                "label": "Precompiled"
            },
            {
                "address": "0x0000000000000000000000000000000000000003",
                "label": "Precompiled"
            },
            {
                "address": "0x0000000000000000000000000000000000000004",
                "label": "Precompiled"
            },
            {
                "address": "0xeeeeeeeeeeeeeeeeeeeeeeeeeeeeeeeeeeeeeeee",
                "label": "Ether"
            },
            {
                "address": "0xc37977590d2e575df9f3c5d4e779e7c3483e1c90",
                "label": "HITBTC"
            }
        ]
    },
    "trace": {
        "accountLabels": null,
        "dataMap": {
            "-1": {
                "invocation": {
                    "address": "0x42457ad283bb439acad18d99820a691ee69d68c1",
                    "callData": "",
                    "decodedMethod": null,
                    "errorInfo": "",
                    "fromAddress": "",
                    "gasUsed": 0,
                    "id": -1,
                    "methodDecoded": false,
                    "operation": "",
                    "output": "",
                    "revert": false,
                    "revertMessage": "",
                    "selector": "",
                    "status": false,
                    "value": ""
                },
                "nodeType": 0
            },
            "0": {
                "invocation": {
                    "address": "0x78b7fada55a64dd895d8c8c35779dd8b67fa8a05",
                    "callData": "0x000000000000000000000000c37977590d2e575df9f3c5d4e779e7c3483e1c9000000000000000000000000000000000000000000000006d8121a194d1100000",
                    "decodedMethod": {
                        "callParams": [
                            {
                                "name": "_to",
                                "type": "address",
                                "value": "0xc37977590d2e575df9f3c5d4e779e7c3483e1c90"
                            },
                            {
                                "decimalAvailable": true,
                                "name": "_value",
                                "type": "uint256",
                                "value": "2,020,000,000,000,000,000,000"
                            }
                        ],
                        "constructorArguments": "",
                        "name": "transfer",
                        "returnParams": [],
                        "signature": "transfer(address,uint256)"
                    },
                    "errorInfo": "",
                    "fromAddress": "0x42457ad283bb439acad18d99820a691ee69d68c1",
                    "gasUsed": 37063,
                    "id": 0,
                    "methodDecoded": true,
                    "operation": "CALL",
                    "output": "",
                    "revert": false,
                    "revertMessage": "",
                    "selector": "0xa9059cbb",
                    "status": true,
                    "value": "0"
                },
                "nodeType": 0
            },
            "1": {
                "event": {
                    "contract": "0x78b7fada55a64dd895d8c8c35779dd8b67fa8a05",
                    "decodedLog": {
                        "name": "Transfer",
                        "params": [
                            {
                                "name": "from",
                                "type": "address",
                                "value": "0x42457ad283bb439acad18d99820a691ee69d68c1"
                            },
                            {
                                "name": "to",
                                "type": "address",
                                "value": "0xc37977590d2e575df9f3c5d4e779e7c3483e1c90"
                            },
                            {
                                "decimalAvailable": true,
                                "name": "value",
                                "type": "uint256",
                                "value": "2,020,000,000,000,000,000,000"
                            }
                        ],
                        "signature": "Transfer(address,address,uint256)"
                    },
                    "id": 1,
                    "logData": "0x00000000000000000000000000000000000000000000006d8121a194d1100000",
                    "logDecoded": true,
                    "operation": "EVENT",
                    "revert": false,
                    "status": true,
                    "topics": [
                        "0xddf252ad1be2c89b69c2b068fc378daa952ba7f163c4a11628f55a4df523b3ef",
                        "0x00000000000000000000000042457ad283bb439acad18d99820a691ee69d68c1",
                        "0x000000000000000000000000c37977590d2e575df9f3c5d4e779e7c3483e1c90"
                    ]
                },
                "nodeType": 1
            }
        },
        "gasFlame": [
            {
                "children": [
                    {
                        "children": [
                            {
                                "children": [],
                                "depth": 0,
                                "name": "Initial Gas",
                                "value": 23256
                            },
                            {
                                "children": [],
                                "depth": 0,
                                "name": "Executed Gas",
                                "value": 28807
                            }
                        ],
                        "depth": -1,
                        "name": "Actual Gas Used",
                        "value": 37063
                    },
                    {
                        "children": [],
                        "depth": -1,
                        "name": "Refunded Gas",
                        "value": 15000
                    }
                ],
                "depth": -2,
                "name": "Total Gas",
                "value": 52063
            }
        ],
        "isConfirmed": true,
        "mainTrace": [
            {
                "children": [
                    {
                        "children": [
                            {
                                "children": [],
                                "depth": 1,
                                "id": 1,
                                "order": 1
                            }
                        ],
                        "depth": 0,
                        "id": 0,
                        "order": 0
                    }
                ],
                "depth": -1,
                "id": -1,
                "order": -1
            }
        ],
        "mainTraceNodeCount": 2,
        "parentIdMap": {
            "0": -1,
            "1": 0
        },
        "tidyTrace": [
            {
                "children": [
                    {
                        "children": [
                            {
                                "children": [],
                                "depth": 1,
                                "id": 1,
                                "order": 1
                            }
                        ],
                        "depth": 0,
                        "id": 0,
                        "order": 0
                    }
                ],
                "depth": -1,
                "id": -1,
                "order": -1
            }
        ],
        "tidyTraceNodeCount": 2
    },
    "state_change": {
        "stateChanges": [
            {
                "address": "0x78b7fada55a64dd895d8c8c35779dd8b67fa8a05",
                "erc": "ERC-20",
                "slots": [
                    {
                        "current": "0x0000000000000000000000000000000000000000000000000000000000000000",
                        "key": "0x7a2e28d62fd8b485cc1b698ad96215f431d417e57cc39711ce3b770bf229b7f6",
                        "prev": "0x00000000000000000000000000000000000000000000006d8121a194d1100000"
                    },
                    {
                        "current": "0x00000000000000000000000000000000000000000000006d8121a194d1100000",
                        "key": "0x2485f0c10aa4cc6f7b66a03d6f4181419f15efb0925765076d471f9ab0618317",
                        "prev": "0x0000000000000000000000000000000000000000000000000000000000000000"
                    }
                ],
                "storageVariables": [
                    {
                        "name": "balances",
                        "type": "mapping(address => uint256)",
                        "value": {
                            "pairs": [
                                {
                                    "key": "0x42457ad283bb439acad18d99820a691ee69d68c1",
                                    "value": {
                                        "current": "0",
                                        "prev": "2020000000000000000000",
                                        "typeTag": 1
                                    }
                                },
                                {
                                    "key": "0xc37977590d2e575df9f3c5d4e779e7c3483e1c90",
                                    "value": {
                                        "current": "2020000000000000000000",
                                        "prev": "0",
                                        "typeTag": 1
                                    }
                                }
                            ],
                            "typeTag": 4
                        }
                    }
                ]
            }
        ]
    }
}