{
    "balance_change": {
        "balanceChanges": [
            {
                "account": "0xa1d8d972560c2f8144af871db508f0b0b10a3fbf",
                "assets": [
                    {
                        "address": "0x95ad61b0a150d79219dcf64e1e6cc01f0b64c4ce",
                        "amount": "7,306,940.851184",
                        "iconUrl": "https://assets.blocksec.com/icon/56235cdcac277d59ed89deae8cb8e206f4c4384e75186903e74565b748deabf5.png",
                        "isERC1155": false,
                        "isERC721": false,
                        "sign": false,
                        "value": "541.1599732"
                    }
                ]
            },
            {
                "account": "0x8ea74d258e69d3b64d4b7c355273394cd5c2af4f",
                "assets": [
                    {
                        "address": "0x95ad61b0a150d79219dcf64e1e6cc01f0b64c4ce",
                        "amount": "7,306,940.851184",
                        "iconUrl": "https://assets.blocksec.com/icon/56235cdcac277d59ed89deae8cb8e206f4c4384e75186903e74565b748deabf5.png",
                        "isERC1155": false,
                        "isERC721": false,
                        "sign": true,
                        "value": "541.1599732"
                    }
                ]
            }
        ]
    },
    "profile": {
        "basic_info": {
            "baseFee": "175.388321879",
            "blockNumber": 13507306,
            "callData": "0xa9059cbb0000000000000000000000008ea74d258e69d3b64d4b7c355273394cd5c2af4f000000000000000000000000000000000000000000060b4e0ea83004bbef0000",
            "debugEnable": true,
            "errorInfo": "",
            "eventCount": 1,
            "feeRecipient": "0x1ad91ee08f21be3de0ba2ba6918e714da6b45836",
            "formatValue": "0",
            "gasLimit": 127479,
            "gasPrice": "211.920206224",
            "gasUsed": 51895,
            "intTxnCount": 0,
            "internalRevert": false,
            "internalRevertMessage": "",
            "isContractCreation": false,
            "isFlashloan": false,
            "maxFee": "",
            "nonce": 1684047,
            "overwritedBlockNumber": -1,
            "priorityFee": "",
            "receiver": "0x95ad61b0a150d79219dcf64e1e6cc01f0b64c4ce",
            "revertMessage": "",
            "sender": "0xa1d8d972560c2f8144af871db508f0b0b10a3fbf",
            "simulationEnable": true,
            "sourceTxnHash": "0xf095f74895bdc2da12461a5881066c1d94e6b543b99f44b24f9c699942f0cb1d",
            "status": true,
            "timestamp": "2021-10-28T18:18:48Z",
            "transactionFee": "0.01099759910199448",
            "txnHash": "0xf095f74895bdc2da12461a5881066c1d94e6b543b99f44b24f9c699942f0cb1d",
            "txnIndex": 91,
            "type": 0,
            "value": "0"
        },
        "fund_flow": [
            {
                "amount": "7,306,940.851184",
                "from": "0xa1d8d972560c2f8144af871db508f0b0b10a3fbf",
                "id": 1,
                "isERC1155": false,
                "isERC721": false,
                "isReverted": false,
                "order": 1,
                "to": "0x8ea74d258e69d3b64d4b7c355273394cd5c2af4f",
                "token": "0x95ad61b0a150d79219dcf64e1e6cc01f0b64c4ce"
            }
        ],
        "token_infos": [
            {
                "address": "0x95ad61b0a150d79219dcf64e1e6cc01f0b64c4ce",
                "decimals": 18
            },
            {
                "address": "0xc02aaa39b223fe8d0a0e5c4f27ead9083c756cc2",
                "decimals": 18
            },
            {
                "address": "0xeeeeeeeeeeeeeeeeeeeeeeeeeeeeeeeeeeeeeeee",
                "decimals": 18
            }
        ]
    },
    "address_label": {
        "labels": [
            {
                "address": "0xeeeeeeeeeeeeeeeeeeeeeeeeeeeeeeeeeeeeeeee",
                "label": "Ether"
            },
            {
                "address": "0x95ad61b0a150d79219dcf64e1e6cc01f0b64c4ce",
                "label": "Shiba Inu: SHIB Token"
            },
            {
                "address": "0xa1d8d972560c2f8144af871db508f0b0b10a3fbf",
                "label": "KuCoin 3"
            },
            {
                "address": "0x0000000000000000000000000000000000000001",
                "label": "Precompiled"
            },
            {
                "address": "0x0000000000000000000000000000000000000002",
                "label": "Precompiled"
            },
            {
                "address": "0x0000000000000000000000000000000000000003",
                "label": "Precompiled"
            },
            {
                "address": "0x0000000000000000000000000000000000000004",
                "label": "Precompiled"
            }
        ]
    },
    "trace": {
        "accountLabels": null,
        "dataMap": {
            "-1": {
                "invocation": {
                    "address": "0xa1d8d972560c2f8144af871db508f0b0b10a3fbf",
                    "callData": "",
                    "decodedMethod": null,
                    "errorInfo": "",
                    "fromAddress": "",
                    "gasUsed": 0,
                    "id": -1,
                    "methodDecoded": false,
                    "operation": "",
                    "output": "",
                    "revert": false,
                    "revertMessage": "",
                    "selector": "",
                    "status": false,
                    "value": ""
                },
                "nodeType": 0
            },
            "0": {
                "invocation": {
                    "address": "0x95ad61b0a150d79219dcf64e1e6cc01f0b64c4ce",
                    "callData": "0x0000000000000000000000008ea74d258e69d3b64d4b7c355273394cd5c2af4f000000000000000000000000000000000000000000060b4e0ea83004bbef0000",
                    "decodedMethod": {
                        "callParams": [
                            {
                                "name": "recipient",
                                "type": "address",
                                "value": "0x8ea74d258e69d3b64d4b7c355273394cd5c2af4f"
                            },
                            {
                                "decimalAvailable": true,
                                "name": "amount",
                                "type": "uint256",
                                "value": "7,306,940,851,184,000,000,000,000"
                            }
                        ],
                        "constructorArguments": "",
                        "name": "transfer",
                        "returnParams": [
                            {
                                "name": "",
                                "type": "bool",
                                "value": true
                            }
                        ],
                        "signature": "transfer(address,uint256)"
                    },
                    "errorInfo": "",
                    "fromAddress": "0xa1d8d972560c2f8144af871db508f0b0b10a3fbf",
                    "gasUsed": 51895,
                    "id": 0,
                    "methodDecoded": true,
                    "operation": "CALL",
                    "output": "0x0000000000000000000000000000000000000000000000000000000000000001",
                    "revert": false,
                    "revertMessage": "",
                    "selector": "0xa9059cbb",
                    "status": true,
                    "value": "0"
                },
                "nodeType": 0
            },
            "1": {
                "event": {
                    "contract": "0x95ad61b0a150d79219dcf64e1e6cc01f0b64c4ce",
                    "decodedLog": {
                        "name": "Transfer",
                        "params": [
                            {
                                "name": "from",
                                "type": "address",
                                "value": "0xa1d8d972560c2f8144af871db508f0b0b10a3fbf"
                            },
                            {
                                "name": "to",
                                "type": "address",
                                "value": "0x8ea74d258e69d3b64d4b7c355273394cd5c2af4f"
                            },
                            {
                                "decimalAvailable": true,
                                "name": "value",
                                "type": "uint256",
                                "value": "7,306,940,851,184,000,000,000,000"
                            }
                        ],
                        "signature": "Transfer(address,address,uint256)"
                    },
                    "id": 1,
                    "logData": "0x000000000000000000000000000000000000000000060b4e0ea83004bbef0000",
                    "logDecoded": true,
                    "operation": "EVENT",
                    "revert": false,
                    "status": true,
                    "topics": [
                        "0xddf252ad1be2c89b69c2b068fc378daa952ba7f163c4a11628f55a4df523b3ef",
                        "0x000000000000000000000000a1d8d972560c2f8144af871db508f0b0b10a3fbf",
                        "0x0000000000000000000000008ea74d258e69d3b64d4b7c355273394cd5c2af4f"
                    ]
                },
                "nodeType": 1
            }
        },
        "gasFlame": [
            {
                "children": [
                    {
                        "children": [
                            {
                                "children": [],
                                "depth": 0,
                                "name": "Initial Gas",
                                "value": 21668
                            },
                            {
                                "children": [],
                                "depth": 0,
                                "name": "Executed Gas",
                                "value": 30227
                            }
                        ],
                        "depth": -1,
                        "name": "Actual Gas Used",
                        "value": 51895
                    },
                    {
                        "children": [],
                        "depth": -1,
                        "name": "Refunded Gas",
                        "value": 0
                    }
                ],
                "depth": -2,
                "name": "Total Gas",
                "value": 51895
            }
        ],
        "isConfirmed": true,
        "mainTrace": [
            {
                "children": [
                    {
                        "children": [
                            {
                                "children": [],
                                "depth": 1,
                                "id": 1,
                                "order": 1
                            }
                        ],
                        "depth": 0,
                        "id": 0,
                        "order": 0
                    }
                ],
                "depth": -1,
                "id": -1,
                "order": -1
            }
        ],
        "mainTraceNodeCount": 2,
        "parentIdMap": {
            "0": -1,
            "1": 0
        },
        "tidyTrace": [
            {
                "children": [
                    {
                        "children": [
                            {
                                "children": [],
                                "depth": 1,
                                "id": 1,
                                "order": 1
                            }
                        ],
                        "depth": 0,
                        "id": 0,
                        "order": 0
                    }
                ],
                "depth": -1,
                "id": -1,
                "order": -1
            }
        ],
        "tidyTraceNodeCount": 2
    },
    "state_change": {
        "stateChanges": [
            {
                "address": "0x95ad61b0a150d79219dcf64e1e6cc01f0b64c4ce",
                "erc": "ERC-20",
                "slots": [
                    {
                        "current": "0x00000000000000000000000000000000000000052bfa8ca97841d1bee16306dc",
                        "key": "0xafc5f481f14d1eb83fe7f19a09740d72f8952faf1081bc7638153606ddef18cd",
                        "prev": "0x00000000000000000000000000000000000000052c0097f786ea01c39d5206dc"
                    },
                    {
                        "current": "0x000000000000000000000000000000000000000000060b4e0ea83004bbef0000",
                        "key": "0xbbcba5507032ee02306cf377068469daf98a97ff03a961958eaf40403a857dd1",
                        "prev": "0x0000000000000000000000000000000000000000000000000000000000000000"
                    }
                ],
                "storageVariables": [
                    {
                        "name": "_balances",
                        "type": "mapping(address => uint256)",
                        "value": {
                            "pairs": [
                                {
                                    "key": "0x8ea74d258e69d3b64d4b7c355273394cd5c2af4f",
                                    "value": {
                                        "current": "7306940851184000000000000",
                                        "prev": "0",
                                        "typeTag": 1
                                    }
                                },
                                {
                                    "key": "0xa1d8d972560c2f8144af871db508f0b0b10a3fbf",
                                    "value": {
                                        "current": "409751563706015971199598921436",
                                        "prev": "409758870646867155199598921436",
                                        "typeTag": 1
                                    }
                                }
                            ],
                            "typeTag": 4
                        }
                    }
                ]
            }
        ]
    }
}