{
    "balance_change": {
        "balanceChanges": [
            {
                "account": "0xfc84f433501b56e4624e1528ec7f2a280fafbf03",
                "assets": [
                    {
                        "address": "0x74fd51a98a4a1ecbef8cc43be801cce630e260bd",
                        "amount": "4,643.265628713881655",
                        "iconUrl": "",
                        "isERC1155": false,
                        "isERC721": false,
                        "sign": false,
                        "value": ""
                    }
                ]
            },
            {
                "account": "0x416e4335fb034d62bac5bd5a0017fa6867a526a8",
                "assets": [
                    {
                        "address": "0x74fd51a98a4a1ecbef8cc43be801cce630e260bd",
                        "amount": "4,643.265628713881655",
                        "iconUrl": "",
                        "isERC1155": false,
                        "isERC721": false,
                        "sign": true,
                        "value": ""
                    }
                ]
            }
        ]
    },
    "profile": {
        "basic_info": {
            "baseFee": "",
            "blockNumber": 6350889,
            "callData": "0xa9059cbb000000000000000000000000416e4335fb034d62bac5bd5a0017fa6867a526a80000000000000000000000000000000000000000000000fbb641503d57bb56d8",
            "debugEnable": true,
            "errorInfo": "",
            "eventCount": 1,
            "feeRecipient": "0x5a0b54d5dc17e0aadc383d2db43b0a0d3e029c4c",
            "formatValue": "0",
            "gasLimit": 39001,
            "gasPrice": "4.11",
            "gasUsed": 22098,
            "intTxnCount": 0,
            "internalRevert": false,
            "internalRevertMessage": "",
            "isContractCreation": false,
            "isFlashloan": false,
            "maxFee": "",
            "nonce": 3,
            "overwritedBlockNumber": -1,
            "priorityFee": "",
            "receiver": "0x74fd51a98a4a1ecbef8cc43be801cce630e260bd",
            "revertMessage": "",
            "sender": "0xfc84f433501b56e4624e1528ec7f2a280fafbf03",
            "simulationEnable": true,
            "sourceTxnHash": "0xf172375c491382d997461b09df7765db44ac2e724aad293579009e43ab9de2e2",
            "status": true,
            "timestamp": "2018-09-17T22:31:47Z",
            "transactionFee": "0.00009082278",
            "txnHash": "0xf172375c491382d997461b09df7765db44ac2e724aad293579009e43ab9de2e2",
            "txnIndex": 85,
            "type": 0,
            "value": "0"
        },
        "fund_flow": [
            {
                "amount": "4,643.265628713881655",
                "from": "0xfc84f433501b56e4624e1528ec7f2a280fafbf03",
                "id": 1,
                "isERC1155": false,
                "isERC721": false,
                "isReverted": false,
                "order": 1,
                "to": "0x416e4335fb034d62bac5bd5a0017fa6867a526a8",
                "token": "0x74fd51a98a4a1ecbef8cc43be801cce630e260bd"
            }
        ],
        "token_infos": [
            {
                "address": "0x74fd51a98a4a1ecbef8cc43be801cce630e260bd",
                "decimals": 18
            },
            {
                "address": "0xc02aaa39b223fe8d0a0e5c4f27ead9083c756cc2",
                "decimals": 18
            },
            {
                "address": "0xeeeeeeeeeeeeeeeeeeeeeeeeeeeeeeeeeeeeeeee",
                "decimals": 18
            }
        ]
    },
    "address_label": {
        "labels": [
            {
                "address": "0x0000000000000000000000000000000000000001",
                "label": "Precompiled"
            },
            {
                "address": "0x0000000000000000000000000000000000000002",
                "label": "Precompiled"
            },
            {
                "address": "0x0000000000000000000000000000000000000003",
                "label": "Precompiled"
            },
            {
                "address": "0x0000000000000000000000000000000000000004",
                "label": "Precompiled"
            },
            {
                "address": "0xeeeeeeeeeeeeeeeeeeeeeeeeeeeeeeeeeeeeeeee",
                "label": "Ether"
            },
            {
                "address": "0x74fd51a98a4a1ecbef8cc43be801cce630e260bd",
                "label": "SiaCashCoin: Old SCC Token"
            }
        ]
    },
    "trace": {
        "accountLabels": null,
        "dataMap": {
            "-1": {
                "invocation": {
                    "address": "0xfc84f433501b56e4624e1528ec7f2a280fafbf03",
                    "callData": "",
                    "decodedMethod": null,
                    "errorInfo": "",
                    "fromAddress": "",
                    "gasUsed": 0,
                    "id": -1,
                    "methodDecoded": false,
                    "operation": "",
                    "output": "",
                    "revert": false,
                    "revertMessage": "",
                    "selector": "",
                    "status": false,
                    "value": ""
                },
                "nodeType": 0
            },
            "0": {
                "invocation": {
                    "address": "0x74fd51a98a4a1ecbef8cc43be801cce630e260bd",
                    "callData": "0x000000000000000000000000416e4335fb034d62bac5bd5a0017fa6867a526a80000000000000000000000000000000000000000000000fbb641503d57bb56d8",
                    "decodedMethod": {
                        "callParams": [
                            {
                                "name": "_to",
                                "type": "address",
                                "value": "0x416e4335fb034d62bac5bd5a0017fa6867a526a8"
                            },
                            {
                                "decimalAvailable": true,
                                "name": "_amount",
                                "type": "uint256",
                                "value": "4,643,265,628,713,881,655,000"
                            }
                        ],
                        "constructorArguments": "",
                        "name": "transfer",
                        "returnParams": [
                            {
                                "name": "success",
                                "type": "bool",
                                "value": true
                            }
                        ],
                        "signature": "transfer(address,uint256)"
                    },
                    "errorInfo": "",
                    "fromAddress": "0xfc84f433501b56e4624e1528ec7f2a280fafbf03",
                    "gasUsed": 22098,
                    "id": 0,
                    "methodDecoded": true,
                    "operation": "CALL",
                    "output": "0x0000000000000000000000000000000000000000000000000000000000000001",
                    "revert": false,
                    "revertMessage": "",
                    "selector": "0xa9059cbb",
                    "status": true,
                    "value": "0"
                },
                "nodeType": 0
            },
            "1": {
                "event": {
                    "contract": "0x74fd51a98a4a1ecbef8cc43be801cce630e260bd",
                    "decodedLog": {
                        "name": "Transfer",
                        "params": [
                            {
                                "name": "_from",
                                "type": "address",
                                "value": "0xfc84f433501b56e4624e1528ec7f2a280fafbf03"
                            },
                            {
                                "name": "_to",
                                "type": "address",
                                "value": "0x416e4335fb034d62bac5bd5a0017fa6867a526a8"
                            },
                            {
                                "decimalAvailable": true,
                                "name": "_value",
                                "type": "uint256",
                                "value": "4,643,265,628,713,881,655,000"
                            }
                        ],
                        "signature": "Transfer(address,address,uint256)"
                    },
                    "id": 1,
                    "logData": "0x0000000000000000000000000000000000000000000000fbb641503d57bb56d8",
                    "logDecoded": true,
                    "operation": "EVENT",
                    "revert": false,
                    "status": true,
                    "topics": [
                        "0xddf252ad1be2c89b69c2b068fc378daa952ba7f163c4a11628f55a4df523b3ef",
                        "0x000000000000000000000000fc84f433501b56e4624e1528ec7f2a280fafbf03",
                        "0x000000000000000000000000416e4335fb034d62bac5bd5a0017fa6867a526a8"
                    ]
                },
                "nodeType": 1
            }
        },
        "gasFlame": [
            {
                "children": [
                    {
                        "children": [
                            {
                                "children": [],
                                "depth": 0,
                                "name": "Initial Gas",
                                "value": 23320
                            },
                            {
                                "children": [],
                                "depth": 0,
                                "name": "Executed Gas",
                                "value": 13778
                            }
                        ],
                        "depth": -1,
                        "name": "Actual Gas Used",
                        "value": 22098
                    },
                    {
                        "children": [],
                        "depth": -1,
                        "name": "Refunded Gas",
                        "value": 15000
                    }
                ],
                "depth": -2,
                "name": "Total Gas",
                "value": 37098
            }
        ],
        "isConfirmed": true,
        "mainTrace": [
            {
                "children": [
                    {
                        "children": [
                            {
                                "children": [],
                                "depth": 1,
                                "id": 1,
                                "order": 1
                            }
                        ],
                        "depth": 0,
                        "id": 0,
                        "order": 0
                    }
                ],
                "depth": -1,
                "id": -1,
                "order": -1
            }
        ],
        "mainTraceNodeCount": 2,
        "parentIdMap": {
            "0": -1,
            "1": 0
        },
        "tidyTrace": [
            {
                "children": [
                    {
                        "children": [
                            {
                                "children": [],
                                "depth": 1,
                                "id": 1,
                                "order": 1
                            }
                        ],
                        "depth": 0,
                        "id": 0,
                        "order": 0
                    }
                ],
                "depth": -1,
                "id": -1,
                "order": -1
            }
        ],
        "tidyTraceNodeCount": 2
    },
    "state_change": {
        "stateChanges": [
            {
                "address": "0x74fd51a98a4a1ecbef8cc43be801cce630e260bd",
                "erc": "ERC-20",
                "slots": [
                    {
                        "current": "0x0000000000000000000000000000000000000000000000000000000000000000",
                        "key": "0x70cfe05de4a94de6754140df6cbbadfc51c14dcd4bafc0c922e3ec28bc8796ad",
                        "prev": "0x0000000000000000000000000000000000000000000000fbb641503d57bb56d8"
                    },
                    {
                        "current": "0x0000000000000000000000000000000000000000000f2856a592868668a3e941",
                        "key": "0xae772a46325aaee6eabb80f6ebdca3e95d296722b047a96b8be0b1294b11017b",
                        "prev": "0x0000000000000000000000000000000000000000000f275aef51364910e89269"
                    }
                ],
                "storageVariables": [
                    {
                        "name": "balances",
                        "type": "mapping(address => uint256)",
                        "value": {
                            "pairs": [
                                {
                                    "key": "0x416e4335fb034d62bac5bd5a0017fa6867a526a8",
                                    "value": {
                                        "current": "18324380304270837147756865",
                                        "prev": "18319737038642123266101865",
                                        "typeTag": 1
                                    }
                                },
                                {
                                    "key": "0xfc84f433501b56e4624e1528ec7f2a280fafbf03",
                                    "value": {
                                        "current": "0",
                                        "prev": "4643265628713881655000",
                                        "typeTag": 1
                                    }
                                }
                            ],
                            "typeTag": 4
                        }
                    }
                ]
            }
        ]
    }
}