{
    "balance_change": {
        "balanceChanges": [
            {
                "account": "0x5183c53653b34bd4e566fa5bdf662776e3570ef6",
                "assets": [
                    {
                        "address": "0xf26baf333c61757accadc85dafc3931532055f53",
                        "amount": "11",
                        "iconUrl": "",
                        "isERC1155": false,
                        "isERC721": false,
                        "sign": false,
                        "value": ""
                    }
                ]
            },
            {
                "account": "0x35f78af0f08bfd6f90fdc8fb14b27e58e19434e0",
                "assets": [
                    {
                        "address": "0xf26baf333c61757accadc85dafc3931532055f53",
                        "amount": "11",
                        "iconUrl": "",
                        "isERC1155": false,
                        "isERC721": false,
                        "sign": true,
                        "value": ""
                    }
                ]
            }
        ]
    },
    "profile": {
        "basic_info": {
            "baseFee": "",
            "blockNumber": 9537566,
            "callData": "0xa9059cbb00000000000000000000000035f78af0f08bfd6f90fdc8fb14b27e58e19434e00000000000000000000000000000000000000000000000000000000000a7d8c0",
            "debugEnable": true,
            "errorInfo": "",
            "eventCount": 1,
            "feeRecipient": "0x35f61dfb08ada13eba64bf156b80df3d5b3a738d",
            "formatValue": "0",
            "gasLimit": 90000,
            "gasPrice": "5",
            "gasUsed": 41197,
            "intTxnCount": 0,
            "internalRevert": false,
            "internalRevertMessage": "",
            "isContractCreation": false,
            "isFlashloan": false,
            "maxFee": "",
            "nonce": 851,
            "overwritedBlockNumber": -1,
            "priorityFee": "",
            "receiver": "0xf26baf333c61757accadc85dafc3931532055f53",
            "revertMessage": "",
            "sender": "0x5183c53653b34bd4e566fa5bdf662776e3570ef6",
            "simulationEnable": true,
            "sourceTxnHash": "0xf14619e72e4701c9006685e2074ed7b67a2150a9c56b5df96844fc1f3993b88c",
            "status": true,
            "timestamp": "2020-02-23T04:50:36Z",
            "transactionFee": "0.000205985",
            "txnHash": "0xf14619e72e4701c9006685e2074ed7b67a2150a9c56b5df96844fc1f3993b88c",
            "txnIndex": 28,
            "type": 0,
            "value": "0"
        },
        "fund_flow": [
            {
                "amount": "11",
                "from": "0x5183c53653b34bd4e566fa5bdf662776e3570ef6",
                "id": 1,
                "isERC1155": false,
                "isERC721": false,
                "isReverted": false,
                "order": 1,
                "to": "0x35f78af0f08bfd6f90fdc8fb14b27e58e19434e0",
                "token": "0xf26baf333c61757accadc85dafc3931532055f53"
            }
        ],
        "token_infos": [
            {
                "address": "0xc02aaa39b223fe8d0a0e5c4f27ead9083c756cc2",
                "decimals": 18
            },
            {
                "address": "0xf26baf333c61757accadc85dafc3931532055f53",
                "decimals": 6
            },
            {
                "address": "0xeeeeeeeeeeeeeeeeeeeeeeeeeeeeeeeeeeeeeeee",
                "decimals": 18
            }
        ]
    },
    "address_label": {
        "labels": [
            {
                "address": "0x0000000000000000000000000000000000000003",
                "label": "Precompiled"
            },
            {
                "address": "0x0000000000000000000000000000000000000004",
                "label": "Precompiled"
            },
            {
                "address": "0xeeeeeeeeeeeeeeeeeeeeeeeeeeeeeeeeeeeeeeee",
                "label": "Ether"
            },
            {
                "address": "0xf26baf333c61757accadc85dafc3931532055f53",
                "label": "GCEC"
            },
            {
                "address": "0x0000000000000000000000000000000000000001",
                "label": "Precompiled"
            },
            {
                "address": "0x0000000000000000000000000000000000000002",
                "label": "Precompiled"
            }
        ]
    },
    "trace": {
        "accountLabels": null,
        "dataMap": {
            "-1": {
                "invocation": {
                    "address": "0x5183c53653b34bd4e566fa5bdf662776e3570ef6",
                    "callData": "",
                    "decodedMethod": null,
                    "errorInfo": "",
                    "fromAddress": "",
                    "gasUsed": 0,
                    "id": -1,
                    "methodDecoded": false,
                    "operation": "",
                    "output": "",
                    "revert": false,
                    "revertMessage": "",
                    "selector": "",
                    "status": false,
                    "value": ""
                },
                "nodeType": 0
            },
            "0": {
                "invocation": {
                    "address": "0xf26baf333c61757accadc85dafc3931532055f53",
                    "callData": "0x00000000000000000000000035f78af0f08bfd6f90fdc8fb14b27e58e19434e00000000000000000000000000000000000000000000000000000000000a7d8c0",
                    "decodedMethod": {
                        "callParams": [
                            {
                                "name": "_to",
                                "type": "address",
                                "value": "0x35f78af0f08bfd6f90fdc8fb14b27e58e19434e0"
                            },
                            {
                                "decimalAvailable": true,
                                "name": "_value",
                                "type": "uint256",
                                "value": "11,000,000"
                            }
                        ],
                        "constructorArguments": "",
                        "name": "transfer",
                        "returnParams": [],
                        "signature": "transfer(address,uint256)"
                    },
                    "errorInfo": "",
                    "fromAddress": "0x5183c53653b34bd4e566fa5bdf662776e3570ef6",
                    "gasUsed": 41197,
                    "id": 0,
                    "methodDecoded": true,
                    "operation": "CALL",
                    "output": "",
                    "revert": false,
                    "revertMessage": "",
                    "selector": "0xa9059cbb",
                    "status": true,
                    "value": "0"
                },
                "nodeType": 0
            },
            "1": {
                "event": {
                    "contract": "0xf26baf333c61757accadc85dafc3931532055f53",
                    "decodedLog": {
                        "name": "Transfer",
                        "params": [
                            {
                                "name": "from",
                                "type": "address",
                                "value": "0x5183c53653b34bd4e566fa5bdf662776e3570ef6"
                            },
                            {
                                "name": "to",
                                "type": "address",
                                "value": "0x35f78af0f08bfd6f90fdc8fb14b27e58e19434e0"
                            },
                            {
                                "decimalAvailable": true,
                                "name": "value",
                                "type": "uint256",
                                "value": "11,000,000"
                            }
                        ],
                        "signature": "Transfer(address,address,uint256)"
                    },
                    "id": 1,
                    "logData": "0x0000000000000000000000000000000000000000000000000000000000a7d8c0",
                    "logDecoded": true,
                    "operation": "EVENT",
                    "revert": false,
                    "status": true,
                    "topics": [
                        "0xddf252ad1be2c89b69c2b068fc378daa952ba7f163c4a11628f55a4df523b3ef",
                        "0x0000000000000000000000005183c53653b34bd4e566fa5bdf662776e3570ef6",
                        "0x00000000000000000000000035f78af0f08bfd6f90fdc8fb14b27e58e19434e0"
                    ]
                },
                "nodeType": 1
            }
        },
        "gasFlame": [
            {
                "children": [
                    {
                        "children": [
                            {
                                "children": [],
                                "depth": 0,
                                "name": "Initial Gas",
                                "value": 21596
                            },
                            {
                                "children": [],
                                "depth": 0,
                                "name": "Executed Gas",
                                "value": 19601
                            }
                        ],
                        "depth": -1,
                        "name": "Actual Gas Used",
                        "value": 41197
                    },
                    {
                        "children": [],
                        "depth": -1,
                        "name": "Refunded Gas",
                        "value": 0
                    }
                ],
                "depth": -2,
                "name": "Total Gas",
                "value": 41197
            }
        ],
        "isConfirmed": true,
        "mainTrace": [
            {
                "children": [
                    {
                        "children": [
                            {
                                "children": [],
                                "depth": 1,
                                "id": 1,
                                "order": 1
                            }
                        ],
                        "depth": 0,
                        "id": 0,
                        "order": 0
                    }
                ],
                "depth": -1,
                "id": -1,
                "order": -1
            }
        ],
        "mainTraceNodeCount": 2,
        "parentIdMap": {
            "0": -1,
            "1": 0
        },
        "tidyTrace": [
            {
                "children": [
                    {
                        "children": [
                            {
                                "children": [],
                                "depth": 1,
                                "id": 1,
                                "order": 1
                            }
                        ],
                        "depth": 0,
                        "id": 0,
                        "order": 0
                    }
                ],
                "depth": -1,
                "id": -1,
                "order": -1
            }
        ],
        "tidyTraceNodeCount": 2
    },
    "state_change": {
        "stateChanges": [
            {
                "address": "0xf26baf333c61757accadc85dafc3931532055f53",
                "erc": "",
                "slots": [
                    {
                        "current": "0x000000000000000000000000000000000000000000000000000008f7a7e03b8c",
                        "key": "0x334450ba20a95b39d3bc958ce2f77d5823481308c00424777e6ec01177a37059",
                        "prev": "0x000000000000000000000000000000000000000000000000000008f7a888144c"
                    },
                    {
                        "current": "0x00000000000000000000000000000000000000000000000000000000055d4a80",
                        "key": "0x57133e49fb1a6c394b048b6f0564f02000dc7cf9cc615394308caf64eaaadc80",
                        "prev": "0x0000000000000000000000000000000000000000000000000000000004b571c0"
                    }
                ],
                "storageVariables": []
            }
        ]
    }
}