{
    "balance_change": {
        "balanceChanges": [
            {
                "account": "0x2eb3a8c7e4e000057401a26677ab5a4aa932759d",
                "assets": [
                    {
                        "address": "0xeeeeeeeeeeeeeeeeeeeeeeeeeeeeeeeeeeeeeeee",
                        "amount": "0.0256",
                        "iconUrl": "https://assets.blocksec.com/image/1663669189317-3.png",
                        "isERC1155": false,
                        "isERC721": false,
                        "sign": false,
                        "value": "47.35641658"
                    }
                ]
            },
            {
                "account": "0x1a2a1c938ce3ec39b6d47113c7955baa9dd454f2",
                "assets": [
                    {
                        "address": "0xc02aaa39b223fe8d0a0e5c4f27ead9083c756cc2",
                        "amount": "0.0256",
                        "iconUrl": "https://assets.blocksec.com/icon/f1cb2d02c471d545bbc7722daf3277fd852d98e63d118771af7047bd8256c516.png",
                        "isERC1155": false,
                        "isERC721": false,
                        "sign": true,
                        "value": "47.35641658"
                    }
                ]
            },
            {
                "account": "0xc02aaa39b223fe8d0a0e5c4f27ead9083c756cc2",
                "assets": [
                    {
                        "address": "0xeeeeeeeeeeeeeeeeeeeeeeeeeeeeeeeeeeeeeeee",
                        "amount": "0.0256",
                        "iconUrl": "https://assets.blocksec.com/image/1663669189317-3.png",
                        "isERC1155": false,
                        "isERC721": false,
                        "sign": true,
                        "value": "47.35641658"
                    },
                    {
                        "address": "0xc02aaa39b223fe8d0a0e5c4f27ead9083c756cc2",
                        "amount": "0.0256",
                        "iconUrl": "https://assets.blocksec.com/icon/f1cb2d02c471d545bbc7722daf3277fd852d98e63d118771af7047bd8256c516.png",
                        "isERC1155": false,
                        "isERC721": false,
                        "sign": false,
                        "value": "47.35641658"
                    }
                ]
            }
        ]
    },
    "profile": {
        "basic_info": {
            "baseFee": "",
            "blockNumber": 12716361,
            "callData": "0xeee3f07a000000000000000000000000710859f4ce0a28ea48d12df02b4fd2d9e4b7b32f",
            "debugEnable": true,
            "errorInfo": "",
            "eventCount": 2,
            "feeRecipient": "0xea674fdde714fd979de3edf0f56aa9716b898ec8",
            "formatValue": "0.0256",
            "gasLimit": 215887,
            "gasPrice": "10",
            "gasUsed": 163754,
            "intTxnCount": 6,
            "internalRevert": false,
            "internalRevertMessage": "",
            "isContractCreation": false,
            "isFlashloan": false,
            "maxFee": "",
            "nonce": 4,
            "overwritedBlockNumber": -1,
            "priorityFee": "",
            "receiver": "0x1a2a1c938ce3ec39b6d47113c7955baa9dd454f2",
            "revertMessage": "",
            "sender": "0x2eb3a8c7e4e000057401a26677ab5a4aa932759d",
            "simulationEnable": true,
            "sourceTxnHash": "0xf1afd7a83a3c2b41cd7dd14a1e8431c0ce040e2802fdc4abf0095372649e497f",
            "status": true,
            "timestamp": "2021-06-27T13:41:23Z",
            "transactionFee": "0.00163754",
            "txnHash": "0xf1afd7a83a3c2b41cd7dd14a1e8431c0ce040e2802fdc4abf0095372649e497f",
            "txnIndex": 165,
            "type": 0,
            "value": "25600000000000000"
        },
        "fund_flow": [
            {
                "amount": "0.0256",
                "from": "0x2eb3a8c7e4e000057401a26677ab5a4aa932759d",
                "id": 1,
                "isERC1155": false,
                "isERC721": false,
                "isReverted": false,
                "order": 1,
                "to": "0x1a2a1c938ce3ec39b6d47113c7955baa9dd454f2",
                "token": "0xeeeeeeeeeeeeeeeeeeeeeeeeeeeeeeeeeeeeeeee"
            },
            {
                "amount": "0.0256",
                "from": "0x1a2a1c938ce3ec39b6d47113c7955baa9dd454f2",
                "id": 2,
                "isERC1155": false,
                "isERC721": false,
                "isReverted": false,
                "order": 2,
                "to": "0xc02aaa39b223fe8d0a0e5c4f27ead9083c756cc2",
                "token": "0xeeeeeeeeeeeeeeeeeeeeeeeeeeeeeeeeeeeeeeee"
            },
            {
                "amount": "0.0256",
                "from": "0xc02aaa39b223fe8d0a0e5c4f27ead9083c756cc2",
                "id": 3,
                "isERC1155": false,
                "isERC721": false,
                "isReverted": false,
                "order": 3,
                "to": "0x1a2a1c938ce3ec39b6d47113c7955baa9dd454f2",
                "token": "0xc02aaa39b223fe8d0a0e5c4f27ead9083c756cc2"
            }
        ],
        "token_infos": [
            {
                "address": "0xc02aaa39b223fe8d0a0e5c4f27ead9083c756cc2",
                "decimals": 18
            },
            {
                "address": "0xeeeeeeeeeeeeeeeeeeeeeeeeeeeeeeeeeeeeeeee",
                "decimals": 18
            }
        ]
    },
    "address_label": {
        "labels": [
            {
                "address": "0xeeeeeeeeeeeeeeeeeeeeeeeeeeeeeeeeeeeeeeee",
                "label": "Ether"
            },
            {
                "address": "0x8407dc57739bcda7aa53ca6f12f82f9d51c2f21e",
                "label": "MainchainGatewayManager"
            },
            {
                "address": "0x33e71e649abdc09f650ad44139674828a2075ad2",
                "label": "Registry"
            },
            {
                "address": "0x0000000000000000000000000000000000000002",
                "label": "Precompiled"
            },
            {
                "address": "0x0000000000000000000000000000000000000004",
                "label": "Precompiled"
            },
            {
                "address": "0xc02aaa39b223fe8d0a0e5c4f27ead9083c756cc2",
                "label": "Wrapped Ether (WETH)"
            },
            {
                "address": "0x1a2a1c938ce3ec39b6d47113c7955baa9dd454f2",
                "label": "Axie Infinity: Ronin Bridge"
            },
            {
                "address": "0x0000000000000000000000000000000000000001",
                "label": "Precompiled"
            },
            {
                "address": "0x0000000000000000000000000000000000000003",
                "label": "Precompiled"
            }
        ]
    },
    "trace": {
        "accountLabels": null,
        "dataMap": {
            "-1": {
                "invocation": {
                    "address": "0x2eb3a8c7e4e000057401a26677ab5a4aa932759d",
                    "callData": "",
                    "decodedMethod": null,
                    "errorInfo": "",
                    "fromAddress": "",
                    "gasUsed": 0,
                    "id": -1,
                    "methodDecoded": false,
                    "operation": "",
                    "output": "",
                    "revert": false,
                    "revertMessage": "",
                    "selector": "",
                    "status": false,
                    "value": ""
                },
                "nodeType": 0
            },
            "0": {
                "invocation": {
                    "address": "0x1a2a1c938ce3ec39b6d47113c7955baa9dd454f2",
                    "callData": "0x000000000000000000000000710859f4ce0a28ea48d12df02b4fd2d9e4b7b32f",
                    "decodedMethod": {
                        "callParams": [
                            {
                                "name": "_owner",
                                "type": "address",
                                "value": "0x710859f4ce0a28ea48d12df02b4fd2d9e4b7b32f"
                            }
                        ],
                        "constructorArguments": "",
                        "name": "depositEthFor",
                        "returnParams": [
                            {
                                "name": "",
                                "type": "uint256",
                                "value": "153,483"
                            }
                        ],
                        "signature": "depositEthFor(address)"
                    },
                    "errorInfo": "",
                    "fromAddress": "0x2eb3a8c7e4e000057401a26677ab5a4aa932759d",
                    "gasUsed": 163754,
                    "id": 0,
                    "methodDecoded": true,
                    "operation": "CALL",
                    "output": "0x000000000000000000000000000000000000000000000000000000000002578b",
                    "revert": false,
                    "revertMessage": "",
                    "selector": "0xeee3f07a",
                    "status": true,
                    "value": "0.0256"
                },
                "nodeType": 0
            },
            "1": {
                "invocation": {
                    "address": "0x8407dc57739bcda7aa53ca6f12f82f9d51c2f21e",
                    "callData": "0x000000000000000000000000710859f4ce0a28ea48d12df02b4fd2d9e4b7b32f",
                    "decodedMethod": {
                        "callParams": [
                            {
                                "name": "_owner",
                                "type": "address",
                                "value": "0x710859f4ce0a28ea48d12df02b4fd2d9e4b7b32f"
                            }
                        ],
                        "constructorArguments": "",
                        "name": "depositEthFor",
                        "returnParams": [
                            {
                                "name": "",
                                "type": "uint256",
                                "value": "153,483"
                            }
                        ],
                        "signature": "depositEthFor(address)"
                    },
                    "errorInfo": "",
                    "fromAddress": "0x1a2a1c938ce3ec39b6d47113c7955baa9dd454f2",
                    "gasUsed": 137243,
                    "id": 1,
                    "methodDecoded": true,
                    "operation": "DELEGATECALL",
                    "output": "0x000000000000000000000000000000000000000000000000000000000002578b",
                    "revert": false,
                    "revertMessage": "",
                    "selector": "0xeee3f07a",
                    "status": true,
                    "value": "0.0256"
                },
                "nodeType": 0
            },
            "2": {
                "invocation": {
                    "address": "0x33e71e649abdc09f650ad44139674828a2075ad2",
                    "callData": "0x",
                    "decodedMethod": {
                        "callParams": [],
                        "constructorArguments": "",
                        "name": "WETH_TOKEN",
                        "returnParams": [
                            {
                                "name": "",
                                "type": "string",
                                "value": "WETH_TOKEN"
                            }
                        ],
                        "signature": "WETH_TOKEN()"
                    },
                    "errorInfo": "",
                    "fromAddress": "0x1a2a1c938ce3ec39b6d47113c7955baa9dd454f2",
                    "gasUsed": 668,
                    "id": 2,
                    "methodDecoded": true,
                    "operation": "STATICCALL",
                    "output": "0x0000000000000000000000000000000000000000000000000000000000000020000000000000000000000000000000000000000000000000000000000000000a574554485f544f4b454e00000000000000000000000000000000000000000000",
                    "revert": false,
                    "revertMessage": "",
                    "selector": "0x37d277d4",
                    "status": true,
                    "value": "0"
                },
                "nodeType": 0
            },
            "3": {
                "invocation": {
                    "address": "0x33e71e649abdc09f650ad44139674828a2075ad2",
                    "callData": "0x0000000000000000000000000000000000000000000000000000000000000020000000000000000000000000000000000000000000000000000000000000000a574554485f544f4b454e00000000000000000000000000000000000000000000",
                    "decodedMethod": {
                        "callParams": [
                            {
                                "name": "_name",
                                "type": "string",
                                "value": "WETH_TOKEN"
                            }
                        ],
                        "constructorArguments": "",
                        "name": "getContract",
                        "returnParams": [
                            {
                                "name": "_address",
                                "type": "address",
                                "value": "0xc02aaa39b223fe8d0a0e5c4f27ead9083c756cc2"
                            }
                        ],
                        "signature": "getContract(string)"
                    },
                    "errorInfo": "",
                    "fromAddress": "0x1a2a1c938ce3ec39b6d47113c7955baa9dd454f2",
                    "gasUsed": 3205,
                    "id": 3,
                    "methodDecoded": true,
                    "operation": "STATICCALL",
                    "output": "0x000000000000000000000000c02aaa39b223fe8d0a0e5c4f27ead9083c756cc2",
                    "revert": false,
                    "revertMessage": "",
                    "selector": "0x35817773",
                    "status": true,
                    "value": "0"
                },
                "nodeType": 0
            },
            "4": {
                "invocation": {
                    "address": "0xc02aaa39b223fe8d0a0e5c4f27ead9083c756cc2",
                    "callData": "0x",
                    "decodedMethod": {
                        "callParams": [],
                        "constructorArguments": "",
                        "name": "deposit",
                        "returnParams": [],
                        "signature": "deposit()"
                    },
                    "errorInfo": "",
                    "fromAddress": "0x1a2a1c938ce3ec39b6d47113c7955baa9dd454f2",
                    "gasUsed": 6874,
                    "id": 4,
                    "methodDecoded": true,
                    "operation": "CALL",
                    "output": "",
                    "revert": false,
                    "revertMessage": "",
                    "selector": "0xd0e30db0",
                    "status": true,
                    "value": "0.0256"
                },
                "nodeType": 0
            },
            "5": {
                "event": {
                    "contract": "0xc02aaa39b223fe8d0a0e5c4f27ead9083c756cc2",
                    "decodedLog": {
                        "name": "Deposit",
                        "params": [
                            {
                                "name": "dst",
                                "type": "address",
                                "value": "0x1a2a1c938ce3ec39b6d47113c7955baa9dd454f2"
                            },
                            {
                                "name": "wad",
                                "type": "uint256",
                                "value": "25,600,000,000,000,000"
                            }
                        ],
                        "signature": "Deposit(address,uint256)"
                    },
                    "id": 5,
                    "logData": "0x000000000000000000000000000000000000000000000000005af3107a400000",
                    "logDecoded": true,
                    "operation": "EVENT",
                    "revert": false,
                    "status": true,
                    "topics": [
                        "0xe1fffcc4923d04b559f4d29a8bfc6cda04eb5b0d3c460751c2402c5c5cc9109c",
                        "0x0000000000000000000000001a2a1c938ce3ec39b6d47113c7955baa9dd454f2"
                    ]
                },
                "nodeType": 1
            },
            "6": {
                "invocation": {
                    "address": "0x33e71e649abdc09f650ad44139674828a2075ad2",
                    "callData": "0x000000000000000000000000c02aaa39b223fe8d0a0e5c4f27ead9083c756cc200000000000000000000000000000000000000000000000000000000000000140000000000000000000000000000000000000000000000000000000000000001",
                    "decodedMethod": {
                        "callParams": [
                            {
                                "name": "_token",
                                "type": "address",
                                "value": "0xc02aaa39b223fe8d0a0e5c4f27ead9083c756cc2"
                            },
                            {
                                "name": "_standard",
                                "type": "uint32",
                                "value": "20"
                            },
                            {
                                "name": "_isMainchain",
                                "type": "bool",
                                "value": true
                            }
                        ],
                        "constructorArguments": "",
                        "name": "isTokenMapped",
                        "returnParams": [
                            {
                                "name": "",
                                "type": "bool",
                                "value": true
                            }
                        ],
                        "signature": "isTokenMapped(address,uint32,bool)"
                    },
                    "errorInfo": "",
                    "fromAddress": "0x1a2a1c938ce3ec39b6d47113c7955baa9dd454f2",
                    "gasUsed": 5215,
                    "id": 6,
                    "methodDecoded": true,
                    "operation": "STATICCALL",
                    "output": "0x0000000000000000000000000000000000000000000000000000000000000001",
                    "revert": false,
                    "revertMessage": "",
                    "selector": "0x3579e67a",
                    "status": true,
                    "value": "0"
                },
                "nodeType": 0
            },
            "7": {
                "invocation": {
                    "address": "0x33e71e649abdc09f650ad44139674828a2075ad2",
                    "callData": "0x000000000000000000000000c02aaa39b223fe8d0a0e5c4f27ead9083c756cc20000000000000000000000000000000000000000000000000000000000000001",
                    "decodedMethod": {
                        "callParams": [
                            {
                                "name": "_token",
                                "type": "address",
                                "value": "0xc02aaa39b223fe8d0a0e5c4f27ead9083c756cc2"
                            },
                            {
                                "name": "_isMainchain",
                                "type": "bool",
                                "value": true
                            }
                        ],
                        "constructorArguments": "",
                        "name": "getMappedToken",
                        "returnParams": [
                            {
                                "name": "_mainchainToken",
                                "type": "address",
                                "value": "0xc02aaa39b223fe8d0a0e5c4f27ead9083c756cc2"
                            },
                            {
                                "name": "_sidechainToken",
                                "type": "address",
                                "value": "0xc99a6a985ed2cac1ef41640596c5a5f9f4e19ef5"
                            },
                            {
                                "name": "_standard",
                                "type": "uint32",
                                "value": "20"
                            }
                        ],
                        "signature": "getMappedToken(address,bool)"
                    },
                    "errorInfo": "",
                    "fromAddress": "0x1a2a1c938ce3ec39b6d47113c7955baa9dd454f2",
                    "gasUsed": 1208,
                    "id": 7,
                    "methodDecoded": true,
                    "operation": "STATICCALL",
                    "output": "0x000000000000000000000000c02aaa39b223fe8d0a0e5c4f27ead9083c756cc2000000000000000000000000c99a6a985ed2cac1ef41640596c5a5f9f4e19ef50000000000000000000000000000000000000000000000000000000000000014",
                    "revert": false,
                    "revertMessage": "",
                    "selector": "0xeb96fbcd",
                    "status": true,
                    "value": "0"
                },
                "nodeType": 0
            },
            "8": {
                "event": {
                    "contract": "0x1a2a1c938ce3ec39b6d47113c7955baa9dd454f2",
                    "decodedLog": {
                        "name": "TokenDeposited",
                        "params": [
                            {
                                "name": "_depositId",
                                "type": "uint256",
                                "value": "153,483"
                            },
                            {
                                "name": "_owner",
                                "type": "address",
                                "value": "0x710859f4ce0a28ea48d12df02b4fd2d9e4b7b32f"
                            },
                            {
                                "name": "_tokenAddress",
                                "type": "address",
                                "value": "0xc02aaa39b223fe8d0a0e5c4f27ead9083c756cc2"
                            },
                            {
                                "name": "_sidechainAddress",
                                "type": "address",
                                "value": "0xc99a6a985ed2cac1ef41640596c5a5f9f4e19ef5"
                            },
                            {
                                "name": "_standard",
                                "type": "uint32",
                                "value": "20"
                            },
                            {
                                "name": "_tokenNumber",
                                "type": "uint256",
                                "value": "25,600,000,000,000,000"
                            }
                        ],
                        "signature": "TokenDeposited(uint256,address,address,address,uint32,uint256)"
                    },
                    "id": 8,
                    "logData": "0x000000000000000000000000c99a6a985ed2cac1ef41640596c5a5f9f4e19ef50000000000000000000000000000000000000000000000000000000000000014000000000000000000000000000000000000000000000000005af3107a400000",
                    "logDecoded": true,
                    "operation": "EVENT",
                    "revert": false,
                    "status": true,
                    "topics": [
                        "0x72848855a2461abf0dd243723dfcc9163eec2ea5215469d101c0d9c9ef58940d",
                        "0x000000000000000000000000000000000000000000000000000000000002578b",
                        "0x000000000000000000000000710859f4ce0a28ea48d12df02b4fd2d9e4b7b32f",
                        "0x000000000000000000000000c02aaa39b223fe8d0a0e5c4f27ead9083c756cc2"
                    ]
                },
                "nodeType": 1
            }
        },
        "gasFlame": [
            {
                "children": [
                    {
                        "children": [
                            {
                                "children": [],
                                "depth": 0,
                                "name": "Initial Gas",
                                "value": 21432
                            },
                            {
                                "children": [
                                    {
                                        "children": [
                                            {
                                                "children": [],
                                                "depth": 2,
                                                "name": "WETH_TOKEN",
                                                "value": 668
                                            },
                                            {
                                                "children": [],
                                                "depth": 2,
                                                "name": "getContract",
                                                "value": 3205
                                            },
                                            {
                                                "children": [],
                                                "depth": 2,
                                                "name": "deposit",
                                                "value": 6874
                                            },
                                            {
                                                "children": [],
                                                "depth": 2,
                                                "name": "isTokenMapped",
                                                "value": 5215
                                            },
                                            {
                                                "children": [],
                                                "depth": 2,
                                                "name": "getMappedToken",
                                                "value": 1208
                                            }
                                        ],
                                        "depth": 1,
                                        "name": "depositEthFor",
                                        "value": 137243
                                    }
                                ],
                                "depth": 0,
                                "name": "Executed Gas",
                                "value": 142322
                            }
                        ],
                        "depth": -1,
                        "name": "Actual Gas Used",
                        "value": 163754
                    },
                    {
                        "children": [],
                        "depth": -1,
                        "name": "Refunded Gas",
                        "value": 0
                    }
                ],
                "depth": -2,
                "name": "Total Gas",
                "value": 163754
            }
        ],
        "isConfirmed": true,
        "mainTrace": [
            {
                "children": [
                    {
                        "children": [
                            {
                                "children": [
                                    {
                                        "children": [],
                                        "depth": 2,
                                        "id": 2,
                                        "order": 2
                                    },
                                    {
                                        "children": [],
                                        "depth": 2,
                                        "id": 3,
                                        "order": 3
                                    },
                                    {
                                        "children": [
                                            {
                                                "children": [],
                                                "depth": 3,
                                                "id": 5,
                                                "order": 5
                                            }
                                        ],
                                        "depth": 2,
                                        "id": 4,
                                        "order": 4
                                    },
                                    {
                                        "children": [],
                                        "depth": 2,
                                        "id": 6,
                                        "order": 6
                                    },
                                    {
                                        "children": [],
                                        "depth": 2,
                                        "id": 7,
                                        "order": 7
                                    },
                                    {
                                        "children": [],
                                        "depth": 2,
                                        "id": 8,
                                        "order": 8
                                    }
                                ],
                                "depth": 1,
                                "id": 1,
                                "order": 1
                            }
                        ],
                        "depth": 0,
                        "id": 0,
                        "order": 0
                    }
                ],
                "depth": -1,
                "id": -1,
                "order": -1
            }
        ],
        "mainTraceNodeCount": 9,
        "parentIdMap": {
            "0": -1,
            "1": 0,
            "2": 1,
            "3": 1,
            "4": 1,
            "5": 4,
            "6": 1,
            "7": 1,
            "8": 1
        },
        "tidyTrace": [
            {
                "children": [
                    {
                        "children": [
                            {
                                "children": [
                                    {
                                        "children": [
                                            {
                                                "children": [],
                                                "depth": 3,
                                                "id": 5,
                                                "order": 5
                                            }
                                        ],
                                        "depth": 2,
                                        "id": 4,
                                        "order": 4
                                    },
                                    {
                                        "children": [],
                                        "depth": 2,
                                        "id": 8,
                                        "order": 8
                                    }
                                ],
                                "depth": 1,
                                "id": 1,
                                "order": 1
                            }
                        ],
                        "depth": 0,
                        "id": 0,
                        "order": 0
                    }
                ],
                "depth": -1,
                "id": -1,
                "order": -1
            }
        ],
        "tidyTraceNodeCount": 5
    },
    "state_change": {
        "stateChanges": [
            {
                "address": "0x1a2a1c938ce3ec39b6d47113c7955baa9dd454f2",
                "erc": "",
                "slots": [
                    {
                        "current": "0x000000000000000000000014c99a6a985ed2cac1ef41640596c5a5f9f4e19ef5",
                        "key": "0x8a35acfbc15ff81a39ae7d344fd709f28e8600b4aa8c65c6b64bfe7fe3752fc9",
                        "prev": "0x0000000000000000000000000000000000000000000000000000000000000000"
                    },
                    {
                        "current": "0x000000000000000000000000000000000000000000000000005af3107a400000",
                        "key": "0x8a35acfbc15ff81a39ae7d344fd709f28e8600b4aa8c65c6b64bfe7fe3752fca",
                        "prev": "0x0000000000000000000000000000000000000000000000000000000000000000"
                    },
                    {
                        "current": "0x000000000000000000000000000000000000000000000000000000000002578c",
                        "key": "0x0000000000000000000000000000000000000000000000000000000000000003",
                        "prev": "0x000000000000000000000000000000000000000000000000000000000002578b"
                    },
                    {
                        "current": "0x000000000000000000000000000000000000000000000000000000000002578c",
                        "key": "0x0000000000000000000000000000000000000000000000000000000000000004",
                        "prev": "0x000000000000000000000000000000000000000000000000000000000002578b"
                    },
                    {
                        "current": "0x000000000000000000000000710859f4ce0a28ea48d12df02b4fd2d9e4b7b32f",
                        "key": "0x8a35acfbc15ff81a39ae7d344fd709f28e8600b4aa8c65c6b64bfe7fe3752fc7",
                        "prev": "0x0000000000000000000000000000000000000000000000000000000000000000"
                    },
                    {
                        "current": "0x000000000000000000000000c02aaa39b223fe8d0a0e5c4f27ead9083c756cc2",
                        "key": "0x8a35acfbc15ff81a39ae7d344fd709f28e8600b4aa8c65c6b64bfe7fe3752fc8",
                        "prev": "0x0000000000000000000000000000000000000000000000000000000000000000"
                    }
                ],
                "storageVariables": [
                    {
                        "name": "deposits",
                        "type": "struct MainchainGatewayStorage.DepositEntry[]",
                        "value": {
                            "elemType": "struct MainchainGatewayStorage.DepositEntry",
                            "elems": [
                                {
                                    "index": 153483,
                                    "value": {
                                        "fields": [
                                            {
                                                "name": "owner",
                                                "type": "address",
                                                "value": {
                                                    "current": "0x710859f4ce0a28ea48d12df02b4fd2d9e4b7b32f",
                                                    "prev": "0x0000000000000000000000000000000000000000",
                                                    "typeTag": 1
                                                }
                                            },
                                            {
                                                "name": "tokenAddress",
                                                "type": "address",
                                                "value": {
                                                    "current": "0xc02aaa39b223fe8d0a0e5c4f27ead9083c756cc2",
                                                    "prev": "0x0000000000000000000000000000000000000000",
                                                    "typeTag": 1
                                                }
                                            },
                                            {
                                                "name": "sidechainAddress",
                                                "type": "address",
                                                "value": {
                                                    "current": "0xc99a6a985ed2cac1ef41640596c5a5f9f4e19ef5",
                                                    "prev": "0x0000000000000000000000000000000000000000",
                                                    "typeTag": 1
                                                }
                                            },
                                            {
                                                "name": "standard",
                                                "type": "uint32",
                                                "value": {
                                                    "current": "20",
                                                    "prev": "0",
                                                    "typeTag": 1
                                                }
                                            },
                                            {
                                                "name": "tokenNumber",
                                                "type": "uint256",
                                                "value": {
                                                    "current": "25600000000000000",
                                                    "prev": "0",
                                                    "typeTag": 1
                                                }
                                            }
                                        ],
                                        "typeTag": 3
                                    }
                                }
                            ],
                            "typeTag": 2
                        }
                    },
                    {
                        "name": "depositCount",
                        "type": "uint256",
                        "value": {
                            "current": "153484",
                            "prev": "153483",
                            "typeTag": 1
                        }
                    }
                ]
            },
            {
                "address": "0xc02aaa39b223fe8d0a0e5c4f27ead9083c756cc2",
                "erc": "ERC-20",
                "slots": [
                    {
                        "current": "0x00000000000000000000000000000000000000000000024da8d27d735ee26eb7",
                        "key": "0xfffe533f47dff0c7bddbf8eb07fd3eb369bfaaaa3aabb548e96fc6b3744837b6",
                        "prev": "0x00000000000000000000000000000000000000000000024da8778a62e4a26eb7"
                    }
                ],
                "storageVariables": [
                    {
                        "name": "balanceOf",
                        "type": "mapping(address => uint256)",
                        "value": {
                            "pairs": [
                                {
                                    "key": "0x1a2a1c938ce3ec39b6d47113c7955baa9dd454f2",
                                    "value": {
                                        "current": "10877297182892873641655",
                                        "prev": "10877271582892873641655",
                                        "typeTag": 1
                                    }
                                }
                            ],
                            "typeTag": 4
                        }
                    }
                ]
            }
        ]
    }
}