{
    "balance_change": {
        "balanceChanges": [
            {
                "account": "0x2a0c0dbecc7e4d658f48e01e3fa353f44050c208",
                "assets": [
                    {
                        "address": "0x3db6ba6ab6f95efed1a6e794cad492faaabf294d",
                        "amount": "6,842.4273592",
                        "iconUrl": "",
                        "isERC1155": false,
                        "isERC721": false,
                        "sign": false,
                        "value": ""
                    }
                ]
            },
            {
                "account": "0xdfdb890f675e56e9dc804f873b22856d58269164",
                "assets": [
                    {
                        "address": "0x3db6ba6ab6f95efed1a6e794cad492faaabf294d",
                        "amount": "6,842.4273592",
                        "iconUrl": "",
                        "isERC1155": false,
                        "isERC721": false,
                        "sign": true,
                        "value": ""
                    }
                ]
            }
        ]
    },
    "profile": {
        "basic_info": {
            "baseFee": "",
            "blockNumber": 8172859,
            "callData": "0x2295115b0000000000000000000000003db6ba6ab6f95efed1a6e794cad492faaabf294d0000000000000000000000000000000000000000000000000000009f596b3c00000000000000000000000000dfdb890f675e56e9dc804f873b22856d582691640000000000000000000000000000000000000000000000000000000000001928000000000000000000000000000000000000000000000000000000000000001b0f6700c354ff2da230f50bb5a4547cb942adb4f564b9f56d6acd3c5228eb376e02f8ea14ac291c6b0057033ae27d9c522c2775326243e6ae1a3da6982228cf7b0000000000000000000000000000000000000000000000000000d0fcb9d6fd2f",
            "debugEnable": true,
            "errorInfo": "",
            "eventCount": 2,
            "feeRecipient": "0x2a5994b501e6a560e727b6c2de5d856396aadd38",
            "formatValue": "0",
            "gasLimit": 400000,
            "gasPrice": "6",
            "gasUsed": 108604,
            "intTxnCount": 2,
            "internalRevert": false,
            "internalRevertMessage": "",
            "isContractCreation": false,
            "isFlashloan": false,
            "maxFee": "",
            "nonce": 3783204,
            "overwritedBlockNumber": -1,
            "priorityFee": "",
            "receiver": "0x2a0c0dbecc7e4d658f48e01e3fa353f44050c208",
            "revertMessage": "",
            "sender": "0xa7a7899d944fe658c4b0a1803bab2f490bd3849e",
            "simulationEnable": true,
            "sourceTxnHash": "0xf2baa824cfa690b8d4ca4b0d1e5495209e0717987ea62525c8fcb580fabe49fa",
            "status": true,
            "timestamp": "2019-07-18T05:46:26Z",
            "transactionFee": "0.000651624",
            "txnHash": "0xf2baa824cfa690b8d4ca4b0d1e5495209e0717987ea62525c8fcb580fabe49fa",
            "txnIndex": 48,
            "type": 0,
            "value": "0"
        },
        "fund_flow": [
            {
                "amount": "6,842.4273592",
                "from": "0x2a0c0dbecc7e4d658f48e01e3fa353f44050c208",
                "id": 1,
                "isERC1155": false,
                "isERC721": false,
                "isReverted": false,
                "order": 1,
                "to": "0xdfdb890f675e56e9dc804f873b22856d58269164",
                "token": "0x3db6ba6ab6f95efed1a6e794cad492faaabf294d"
            }
        ],
        "token_infos": [
            {
                "address": "0x3db6ba6ab6f95efed1a6e794cad492faaabf294d",
                "decimals": 8
            },
            {
                "address": "0xc02aaa39b223fe8d0a0e5c4f27ead9083c756cc2",
                "decimals": 18
            },
            {
                "address": "0xeeeeeeeeeeeeeeeeeeeeeeeeeeeeeeeeeeeeeeee",
                "decimals": 18
            }
        ]
    },
    "address_label": {
        "labels": [
            {
                "address": "0x0000000000000000000000000000000000000002",
                "label": "Precompiled"
            },
            {
                "address": "0x0000000000000000000000000000000000000003",
                "label": "Precompiled"
            },
            {
                "address": "0x0000000000000000000000000000000000000004",
                "label": "Precompiled"
            },
            {
                "address": "0xeeeeeeeeeeeeeeeeeeeeeeeeeeeeeeeeeeeeeeee",
                "label": "Ether"
            },
            {
                "address": "0xa7a7899d944fe658c4b0a1803bab2f490bd3849e",
                "label": "IDEX 2"
            },
            {
                "address": "0x3db6ba6ab6f95efed1a6e794cad492faaabf294d",
                "label": "LTO Network: Old LTO Token"
            },
            {
                "address": "0x2a0c0dbecc7e4d658f48e01e3fa353f44050c208",
                "label": "IDEX"
            },
            {
                "address": "0x0000000000000000000000000000000000000001",
                "label": "Precompiled"
            }
        ]
    },
    "trace": {
        "accountLabels": null,
        "dataMap": {
            "-1": {
                "invocation": {
                    "address": "0xa7a7899d944fe658c4b0a1803bab2f490bd3849e",
                    "callData": "",
                    "decodedMethod": null,
                    "errorInfo": "",
                    "fromAddress": "",
                    "gasUsed": 0,
                    "id": -1,
                    "methodDecoded": false,
                    "operation": "",
                    "output": "",
                    "revert": false,
                    "revertMessage": "",
                    "selector": "",
                    "status": false,
                    "value": ""
                },
                "nodeType": 0
            },
            "0": {
                "invocation": {
                    "address": "0x2a0c0dbecc7e4d658f48e01e3fa353f44050c208",
                    "callData": "0x0000000000000000000000003db6ba6ab6f95efed1a6e794cad492faaabf294d0000000000000000000000000000000000000000000000000000009f596b3c00000000000000000000000000dfdb890f675e56e9dc804f873b22856d582691640000000000000000000000000000000000000000000000000000000000001928000000000000000000000000000000000000000000000000000000000000001b0f6700c354ff2da230f50bb5a4547cb942adb4f564b9f56d6acd3c5228eb376e02f8ea14ac291c6b0057033ae27d9c522c2775326243e6ae1a3da6982228cf7b0000000000000000000000000000000000000000000000000000d0fcb9d6fd2f",
                    "decodedMethod": {
                        "callParams": [
                            {
                                "name": "token",
                                "type": "address",
                                "value": "0x3db6ba6ab6f95efed1a6e794cad492faaabf294d"
                            },
                            {
                                "name": "amount",
                                "type": "uint256",
                                "value": "684,400,000,000"
                            },
                            {
                                "name": "user",
                                "type": "address",
                                "value": "0xdfdb890f675e56e9dc804f873b22856d58269164"
                            },
                            {
                                "name": "nonce",
                                "type": "uint256",
                                "value": "6,440"
                            },
                            {
                                "name": "v",
                                "type": "uint8",
                                "value": "27"
                            },
                            {
                                "name": "r",
                                "type": "bytes32",
                                "value": "0x0f6700c354ff2da230f50bb5a4547cb942adb4f564b9f56d6acd3c5228eb376e"
                            },
                            {
                                "name": "s",
                                "type": "bytes32",
                                "value": "0x02f8ea14ac291c6b0057033ae27d9c522c2775326243e6ae1a3da6982228cf7b"
                            },
                            {
                                "name": "feeWithdrawal",
                                "type": "uint256",
                                "value": "229,783,868,210,479"
                            }
                        ],
                        "constructorArguments": "",
                        "name": "adminWithdraw",
                        "returnParams": [
                            {
                                "name": "success",
                                "type": "bool",
                                "value": false
                            }
                        ],
                        "signature": "adminWithdraw(address,uint256,address,uint256,uint8,bytes32,bytes32,uint256)"
                    },
                    "errorInfo": "",
                    "fromAddress": "0xa7a7899d944fe658c4b0a1803bab2f490bd3849e",
                    "gasUsed": 108604,
                    "id": 0,
                    "methodDecoded": true,
                    "operation": "CALL",
                    "output": "0x0000000000000000000000000000000000000000000000000000000000000000",
                    "revert": false,
                    "revertMessage": "",
                    "selector": "0x2295115b",
                    "status": true,
                    "value": "0"
                },
                "nodeType": 0
            },
            "1": {
                "invocation": {
                    "address": "0x0000000000000000000000000000000000000001",
                    "callData": "0x979d0b92c63c5238c91e1341797c809b04f556b6a4bf1a75a5a678d8000000000000000000000000000000000000000000000000000000000000001b0f6700c354ff2da230f50bb5a4547cb942adb4f564b9f56d6acd3c5228eb376e02f8ea14ac291c6b0057033ae27d9c522c2775326243e6ae1a3da6982228cf7b",
                    "decodedMethod": {
                        "callParams": [
                            {
                                "name": "hash",
                                "type": "bytes32",
                                "value": "0x74fe1e52979d0b92c63c5238c91e1341797c809b04f556b6a4bf1a75a5a678d8"
                            },
                            {
                                "name": "v",
                                "type": "uint256",
                                "value": "27"
                            },
                            {
                                "name": "r",
                                "type": "bytes32",
                                "value": "0x0f6700c354ff2da230f50bb5a4547cb942adb4f564b9f56d6acd3c5228eb376e"
                            },
                            {
                                "name": "s",
                                "type": "bytes32",
                                "value": "0x02f8ea14ac291c6b0057033ae27d9c522c2775326243e6ae1a3da6982228cf7b"
                            }
                        ],
                        "constructorArguments": "",
                        "name": "ecrecover",
                        "returnParams": [
                            {
                                "name": "",
                                "type": "address",
                                "value": "0xdfdb890f675e56e9dc804f873b22856d58269164"
                            }
                        ],
                        "signature": "ecrecover(bytes32,uint256,bytes32,bytes32)"
                    },
                    "errorInfo": "",
                    "fromAddress": "0x2a0c0dbecc7e4d658f48e01e3fa353f44050c208",
                    "gasUsed": 3000,
                    "id": 1,
                    "methodDecoded": true,
                    "operation": "CALL",
                    "output": "0x000000000000000000000000dfdb890f675e56e9dc804f873b22856d58269164",
                    "revert": false,
                    "revertMessage": "",
                    "selector": "0x74fe1e52",
                    "status": true,
                    "value": "0"
                },
                "nodeType": 0
            },
            "2": {
                "invocation": {
                    "address": "0x3db6ba6ab6f95efed1a6e794cad492faaabf294d",
                    "callData": "0x000000000000000000000000dfdb890f675e56e9dc804f873b22856d582691640000000000000000000000000000000000000000000000000000009f500b9330",
                    "decodedMethod": {
                        "callParams": [
                            {
                                "name": "to",
                                "type": "address",
                                "value": "0xdfdb890f675e56e9dc804f873b22856d58269164"
                            },
                            {
                                "decimalAvailable": true,
                                "name": "value",
                                "type": "uint256",
                                "value": "684,242,735,920"
                            }
                        ],
                        "constructorArguments": "",
                        "name": "transfer",
                        "returnParams": [
                            {
                                "name": "",
                                "type": "bool",
                                "value": true
                            }
                        ],
                        "signature": "transfer(address,uint256)"
                    },
                    "errorInfo": "",
                    "fromAddress": "0x2a0c0dbecc7e4d658f48e01e3fa353f44050c208",
                    "gasUsed": 30511,
                    "id": 2,
                    "methodDecoded": true,
                    "operation": "CALL",
                    "output": "0x0000000000000000000000000000000000000000000000000000000000000001",
                    "revert": false,
                    "revertMessage": "",
                    "selector": "0xa9059cbb",
                    "status": true,
                    "value": "0"
                },
                "nodeType": 0
            },
            "3": {
                "event": {
                    "contract": "0x3db6ba6ab6f95efed1a6e794cad492faaabf294d",
                    "decodedLog": {
                        "name": "Transfer",
                        "params": [
                            {
                                "name": "from",
                                "type": "address",
                                "value": "0x2a0c0dbecc7e4d658f48e01e3fa353f44050c208"
                            },
                            {
                                "name": "to",
                                "type": "address",
                                "value": "0xdfdb890f675e56e9dc804f873b22856d58269164"
                            },
                            {
                                "decimalAvailable": true,
                                "name": "value",
                                "type": "uint256",
                                "value": "684,242,735,920"
                            }
                        ],
                        "signature": "Transfer(address,address,uint256)"
                    },
                    "id": 3,
                    "logData": "0x0000000000000000000000000000000000000000000000000000009f500b9330",
                    "logDecoded": true,
                    "operation": "EVENT",
                    "revert": false,
                    "status": true,
                    "topics": [
                        "0xddf252ad1be2c89b69c2b068fc378daa952ba7f163c4a11628f55a4df523b3ef",
                        "0x0000000000000000000000002a0c0dbecc7e4d658f48e01e3fa353f44050c208",
                        "0x000000000000000000000000dfdb890f675e56e9dc804f873b22856d58269164"
                    ]
                },
                "nodeType": 1
            },
            "4": {
                "event": {
                    "contract": "0x2a0c0dbecc7e4d658f48e01e3fa353f44050c208",
                    "decodedLog": {
                        "name": "Withdraw",
                        "params": [
                            {
                                "name": "token",
                                "type": "address",
                                "value": "0x3db6ba6ab6f95efed1a6e794cad492faaabf294d"
                            },
                            {
                                "name": "user",
                                "type": "address",
                                "value": "0xdfdb890f675e56e9dc804f873b22856d58269164"
                            },
                            {
                                "name": "amount",
                                "type": "uint256",
                                "value": "684,242,735,920"
                            },
                            {
                                "name": "balance",
                                "type": "uint256",
                                "value": "59,013,165"
                            }
                        ],
                        "signature": "Withdraw(address,address,uint256,uint256)"
                    },
                    "id": 4,
                    "logData": "0x0000000000000000000000003db6ba6ab6f95efed1a6e794cad492faaabf294d000000000000000000000000dfdb890f675e56e9dc804f873b22856d582691640000000000000000000000000000000000000000000000000000009f500b9330000000000000000000000000000000000000000000000000000000000384782d",
                    "logDecoded": true,
                    "operation": "EVENT",
                    "revert": false,
                    "status": true,
                    "topics": [
                        "0xf341246adaac6f497bc2a656f546ab9e182111d630394f0c57c710a59a2cb567"
                    ]
                },
                "nodeType": 1
            }
        },
        "gasFlame": [
            {
                "children": [
                    {
                        "children": [
                            {
                                "children": [],
                                "depth": 0,
                                "name": "Initial Gas",
                                "value": 29656
                            },
                            {
                                "children": [
                                    {
                                        "children": [],
                                        "depth": 1,
                                        "name": "ecrecover",
                                        "value": 3000
                                    },
                                    {
                                        "children": [],
                                        "depth": 1,
                                        "name": "transfer",
                                        "value": 30511
                                    }
                                ],
                                "depth": 0,
                                "name": "Executed Gas",
                                "value": 78948
                            }
                        ],
                        "depth": -1,
                        "name": "Actual Gas Used",
                        "value": 108604
                    },
                    {
                        "children": [],
                        "depth": -1,
                        "name": "Refunded Gas",
                        "value": 0
                    }
                ],
                "depth": -2,
                "name": "Total Gas",
                "value": 108604
            }
        ],
        "isConfirmed": true,
        "mainTrace": [
            {
                "children": [
                    {
                        "children": [
                            {
                                "children": [],
                                "depth": 1,
                                "id": 1,
                                "order": 1
                            },
                            {
                                "children": [
                                    {
                                        "children": [],
                                        "depth": 2,
                                        "id": 3,
                                        "order": 3
                                    }
                                ],
                                "depth": 1,
                                "id": 2,
                                "order": 2
                            },
                            {
                                "children": [],
                                "depth": 1,
                                "id": 4,
                                "order": 4
                            }
                        ],
                        "depth": 0,
                        "id": 0,
                        "order": 0
                    }
                ],
                "depth": -1,
                "id": -1,
                "order": -1
            }
        ],
        "mainTraceNodeCount": 5,
        "parentIdMap": {
            "0": -1,
            "1": 0,
            "2": 0,
            "3": 2,
            "4": 0
        },
        "tidyTrace": [
            {
                "children": [
                    {
                        "children": [
                            {
                                "children": [],
                                "depth": 1,
                                "id": 1,
                                "order": 1
                            },
                            {
                                "children": [
                                    {
                                        "children": [],
                                        "depth": 2,
                                        "id": 3,
                                        "order": 3
                                    }
                                ],
                                "depth": 1,
                                "id": 2,
                                "order": 2
                            },
                            {
                                "children": [],
                                "depth": 1,
                                "id": 4,
                                "order": 4
                            }
                        ],
                        "depth": 0,
                        "id": 0,
                        "order": 0
                    }
                ],
                "depth": -1,
                "id": -1,
                "order": -1
            }
        ],
        "tidyTraceNodeCount": 5
    },
    "state_change": {
        "stateChanges": [
            {
                "address": "0x2a0c0dbecc7e4d658f48e01e3fa353f44050c208",
                "erc": "",
                "slots": [
                    {
                        "current": "0x0000000000000000000000000000000000000000000000000000000000000001",
                        "key": "0xa016ddd35fe8287b256e623240c2b13402bca312dd1824522b9752734705a77c",
                        "prev": "0x0000000000000000000000000000000000000000000000000000000000000000"
                    },
                    {
                        "current": "0x000000000000000000000000000000000000000000000000000000000384782d",
                        "key": "0x2e3f7406c1563e34d154a222321c46dd88002a919c55759bfd194d265a9eefa9",
                        "prev": "0x0000000000000000000000000000000000000000000000000000009f5cefb42d"
                    },
                    {
                        "current": "0x0000000000000000000000000000000000000000000000000000001771eaa492",
                        "key": "0xa3575247a88559b3c5130335c8c7f08ea61c3e32a70cea34d6384f39a7193b0c",
                        "prev": "0x00000000000000000000000000000000000000000000000000000017688afbc3"
                    }
                ],
                "storageVariables": [
                    {
                        "name": "withdrawn",
                        "type": "mapping(bytes32 => bool)",
                        "value": {
                            "pairs": [
                                {
                                    "key": "0x04dd1814f0c8c1ccde2e88fc8c39c9f07e159340804ef1afeb741989bb027b7e",
                                    "value": {
                                        "current": "true",
                                        "prev": "false",
                                        "typeTag": 1
                                    }
                                }
                            ],
                            "typeTag": 4
                        }
                    },
                    {
                        "name": "tokens",
                        "type": "mapping(address => mapping(address => uint256))",
                        "value": {
                            "pairs": [
                                {
                                    "key": "0x3db6ba6ab6f95efed1a6e794cad492faaabf294d",
                                    "value": {
                                        "pairs": [
                                            {
                                                "key": "0x034767f3c519f361c5ecf46ebfc08981c629d381",
                                                "value": {
                                                    "current": "100695450770",
                                                    "prev": "100538186691",
                                                    "typeTag": 1
                                                }
                                            },
                                            {
                                                "key": "0xdfdb890f675e56e9dc804f873b22856d58269164",
                                                "value": {
                                                    "current": "59013165",
                                                    "prev": "684459013165",
                                                    "typeTag": 1
                                                }
                                            }
                                        ],
                                        "typeTag": 4
                                    }
                                }
                            ],
                            "typeTag": 4
                        }
                    }
                ]
            },
            {
                "address": "0x3db6ba6ab6f95efed1a6e794cad492faaabf294d",
                "erc": "ERC-20",
                "slots": [
                    {
                        "current": "0x0000000000000000000000000000000000000000000000000000009f500b9330",
                        "key": "0x15ffd2e8df65b5e58ef4c241209a8b87ab8fad153d21721b5572bc893d7feb78",
                        "prev": "0x0000000000000000000000000000000000000000000000000000000000000000"
                    },
                    {
                        "current": "0x0000000000000000000000000000000000000000000000000001ca2871c6a259",
                        "key": "0xf1422a95130756a1ec090bcbf2c53d7e9ed83b89b668d3788cf61dc65d32590b",
                        "prev": "0x0000000000000000000000000000000000000000000000000001cac7c1d23589"
                    }
                ],
                "storageVariables": [
                    {
                        "name": "_balances",
                        "type": "mapping(address => uint256)",
                        "value": {
                            "pairs": [
                                {
                                    "key": "0x2a0c0dbecc7e4d658f48e01e3fa353f44050c208",
                                    "value": {
                                        "current": "503750033056345",
                                        "prev": "504434275792265",
                                        "typeTag": 1
                                    }
                                },
                                {
                                    "key": "0xdfdb890f675e56e9dc804f873b22856d58269164",
                                    "value": {
                                        "current": "684242735920",
                                        "prev": "0",
                                        "typeTag": 1
                                    }
                                }
                            ],
                            "typeTag": 4
                        }
                    }
                ]
            }
        ]
    }
}