{
    "balance_change": {
        "balanceChanges": []
    },
    "profile": {
        "basic_info": {
            "baseFee": "5.285307417",
            "blockNumber": 18302401,
            "callData": "0x646174613a2c7b2270223a226572632d3230222c226f70223a226d696e74222c227469636b223a226f726469222c226964223a223134343937222c22616d74223a2231303030227d",
            "debugEnable": true,
            "errorInfo": "",
            "eventCount": 0,
            "feeRecipient": "0x4838b106fce9647bdf1e7877bf73ce8b0bad5f97",
            "formatValue": "0",
            "gasLimit": 22152,
            "gasPrice": "6.285307417",
            "gasUsed": 22152,
            "intTxnCount": 0,
            "internalRevert": false,
            "internalRevertMessage": "",
            "isContractCreation": false,
            "isFlashloan": false,
            "maxFee": "10.396543086",
            "nonce": 9,
            "overwritedBlockNumber": -1,
            "priorityFee": "1",
            "receiver": "0x9f3fc48e127e01f0fa0c2490aaf7714cd679d63f",
            "revertMessage": "",
            "sender": "0x697fe85f4efff41860d931fc4d92bb4118d89d9d",
            "simulationEnable": true,
            "sourceTxnHash": "0xf2d6166f60e31aeb2f38811412fa5df30bfd3b3be9f1c671952429bd9fa62421",
            "status": true,
            "timestamp": "2023-10-08T01:10:47Z",
            "transactionFee": "0.000139232129901384",
            "txnHash": "0xf2d6166f60e31aeb2f38811412fa5df30bfd3b3be9f1c671952429bd9fa62421",
            "txnIndex": 40,
            "type": 2,
            "value": "0"
        },
        "fund_flow": [],
        "token_infos": [
            {
                "address": "0xc02aaa39b223fe8d0a0e5c4f27ead9083c756cc2",
                "decimals": 18
            },
            {
                "address": "0xeeeeeeeeeeeeeeeeeeeeeeeeeeeeeeeeeeeeeeee",
                "decimals": 18
            }
        ]
    },
    "address_label": {
        "labels": [
            {
                "address": "0xeeeeeeeeeeeeeeeeeeeeeeeeeeeeeeeeeeeeeeee",
                "label": "Ether"
            },
            {
                "address": "0x0000000000000000000000000000000000000001",
                "label": "Precompiled"
            },
            {
                "address": "0x0000000000000000000000000000000000000002",
                "label": "Precompiled"
            },
            {
                "address": "0x0000000000000000000000000000000000000003",
                "label": "Precompiled"
            },
            {
                "address": "0x0000000000000000000000000000000000000004",
                "label": "Precompiled"
            }
        ]
    },
    "trace": {
        "accountLabels": null,
        "dataMap": {
            "-1": {
                "invocation": {
                    "address": "0x697fe85f4efff41860d931fc4d92bb4118d89d9d",
                    "callData": "",
                    "decodedMethod": null,
                    "errorInfo": "",
                    "fromAddress": "",
                    "gasUsed": 0,
                    "id": -1,
                    "methodDecoded": false,
                    "operation": "",
                    "output": "",
                    "revert": false,
                    "revertMessage": "",
                    "selector": "",
                    "status": false,
                    "value": ""
                },
                "nodeType": 0
            },
            "0": {
                "invocation": {
                    "address": "0x9f3fc48e127e01f0fa0c2490aaf7714cd679d63f",
                    "callData": "0x3a2c7b2270223a226572632d3230222c226f70223a226d696e74222c227469636b223a226f726469222c226964223a223134343937222c22616d74223a2231303030227d",
                    "decodedMethod": {
                        "callParams": [],
                        "constructorArguments": "",
                        "name": "ethsGEGzXlymji3hvTyjQnpYo",
                        "returnParams": [],
                        "signature": "ethsGEGzXlymji3hvTyjQnpYo()"
                    },
                    "errorInfo": "",
                    "fromAddress": "0x697fe85f4efff41860d931fc4d92bb4118d89d9d",
                    "gasUsed": 22152,
                    "id": 0,
                    "methodDecoded": true,
                    "operation": "CALL",
                    "output": "",
                    "revert": false,
                    "revertMessage": "",
                    "selector": "0x64617461",
                    "status": true,
                    "value": "0"
                },
                "nodeType": 0
            }
        },
        "gasFlame": [
            {
                "children": [
                    {
                        "children": [
                            {
                                "children": [],
                                "depth": 0,
                                "name": "Initial Gas",
                                "value": 22152
                            },
                            {
                                "children": [],
                                "depth": 0,
                                "name": "Executed Gas",
                                "value": 0
                            }
                        ],
                        "depth": -1,
                        "name": "Actual Gas Used",
                        "value": 22152
                    },
                    {
                        "children": [],
                        "depth": -1,
                        "name": "Refunded Gas",
                        "value": 0
                    }
                ],
                "depth": -2,
                "name": "Total Gas",
                "value": 22152
            }
        ],
        "isConfirmed": true,
        "mainTrace": [
            {
                "children": [
                    {
                        "children": [],
                        "depth": 0,
                        "id": 0,
                        "order": 0
                    }
                ],
                "depth": -1,
                "id": -1,
                "order": -1
            }
        ],
        "mainTraceNodeCount": 1,
        "parentIdMap": {
            "0": -1
        },
        "tidyTrace": [
            {
                "children": [
                    {
                        "children": [],
                        "depth": 0,
                        "id": 0,
                        "order": 0
                    }
                ],
                "depth": -1,
                "id": -1,
                "order": -1
            }
        ],
        "tidyTraceNodeCount": 1
    },
    "state_change": {
        "stateChanges": []
    }
}