{
    "balance_change": {
        "balanceChanges": []
    },
    "profile": {
        "basic_info": {
            "baseFee": "",
            "blockNumber": 7378483,
            "callData": "0x5bc20b2400000000000000000000000000000000000000000000000000000000000103380000000000000000000000000000000000000000000000000000000000000001",
            "debugEnable": true,
            "errorInfo": "",
            "eventCount": 1,
            "feeRecipient": "0x52bc44d5378309ee2abf1539bf71de1b7d7be3b5",
            "formatValue": "0",
            "gasLimit": 1000000,
            "gasPrice": "0.7",
            "gasUsed": 263401,
            "intTxnCount": 26,
            "internalRevert": false,
            "internalRevertMessage": "",
            "isContractCreation": false,
            "isFlashloan": false,
            "maxFee": "",
            "nonce": 66,
            "overwritedBlockNumber": -1,
            "priorityFee": "",
            "receiver": "0x3401cab9bee49bcb76e13a8a09619e53d45c0af0",
            "revertMessage": "",
            "sender": "0xdac54ed759bc451ab5fb7bd7e1b00aa6a270fa8d",
            "simulationEnable": true,
            "sourceTxnHash": "0xf2a5436a77b080d16a2bb805f3f3f0fb1c73f1dc648e543bec7e2ddea5ecaf5c",
            "status": true,
            "timestamp": "2019-03-16T06:42:15Z",
            "transactionFee": "0.0001843807",
            "txnHash": "0xf2a5436a77b080d16a2bb805f3f3f0fb1c73f1dc648e543bec7e2ddea5ecaf5c",
            "txnIndex": 64,
            "type": 0,
            "value": "0"
        },
        "fund_flow": [],
        "token_infos": [
            {
                "address": "0xc02aaa39b223fe8d0a0e5c4f27ead9083c756cc2",
                "decimals": 18
            },
            {
                "address": "0xeeeeeeeeeeeeeeeeeeeeeeeeeeeeeeeeeeeeeeee",
                "decimals": 18
            }
        ]
    },
    "address_label": {
        "labels": [
            {
                "address": "0xeeeeeeeeeeeeeeeeeeeeeeeeeeeeeeeeeeeeeeee",
                "label": "Ether"
            },
            {
                "address": "0x06a6a7af298129e3a2ab396c9c06f91d3c54aba8",
                "label": "0xUniverse: PLANET Token"
            },
            {
                "address": "0xe658e6eb4b478da2cf36d9e3712ba0c1b33786a1",
                "label": "0xUniverse: Contract 3"
            },
            {
                "address": "0x0000000000000000000000000000000000000001",
                "label": "Precompiled"
            },
            {
                "address": "0x0000000000000000000000000000000000000002",
                "label": "Precompiled"
            },
            {
                "address": "0x0000000000000000000000000000000000000003",
                "label": "Precompiled"
            },
            {
                "address": "0x0000000000000000000000000000000000000004",
                "label": "Precompiled"
            }
        ]
    },
    "trace": {
        "accountLabels": null,
        "dataMap": {
            "-1": {
                "invocation": {
                    "address": "0xdac54ed759bc451ab5fb7bd7e1b00aa6a270fa8d",
                    "callData": "",
                    "decodedMethod": null,
                    "errorInfo": "",
                    "fromAddress": "",
                    "gasUsed": 0,
                    "id": -1,
                    "methodDecoded": false,
                    "operation": "",
                    "output": "",
                    "revert": false,
                    "revertMessage": "",
                    "selector": "",
                    "status": false,
                    "value": ""
                },
                "nodeType": 0
            },
            "0": {
                "invocation": {
                    "address": "0x3401cab9bee49bcb76e13a8a09619e53d45c0af0",
                    "callData": "0x00000000000000000000000000000000000000000000000000000000000103380000000000000000000000000000000000000000000000000000000000000001",
                    "decodedMethod": null,
                    "errorInfo": "",
                    "fromAddress": "0xdac54ed759bc451ab5fb7bd7e1b00aa6a270fa8d",
                    "gasUsed": 263401,
                    "id": 0,
                    "methodDecoded": false,
                    "operation": "CALL",
                    "output": "",
                    "revert": false,
                    "revertMessage": "",
                    "selector": "0x5bc20b24",
                    "status": true,
                    "value": "0"
                },
                "nodeType": 0
            },
            "1": {
                "invocation": {
                    "address": "0xe181b5b6ef9ddec80523656cd758a713d88ae1e4",
                    "callData": "0x00000000000000000000000000000000000000000000000000000000000103380000000000000000000000000000000000000000000000000000000000000001",
                    "decodedMethod": null,
                    "errorInfo": "",
                    "fromAddress": "0x3401cab9bee49bcb76e13a8a09619e53d45c0af0",
                    "gasUsed": 240038,
                    "id": 1,
                    "methodDecoded": false,
                    "operation": "DELEGATECALL",
                    "output": "",
                    "revert": false,
                    "revertMessage": "",
                    "selector": "0x5bc20b24",
                    "status": true,
                    "value": "0"
                },
                "nodeType": 0
            },
            "10": {
                "invocation": {
                    "address": "0xfc30a1a7a650d10b20500bc10b06ff8f4b650ad2",
                    "callData": "0x0000000000000000000000000000000000000000000000000000000000000011",
                    "decodedMethod": {
                        "callParams": [
                            {
                                "name": "_record",
                                "type": "uint256",
                                "value": "17"
                            }
                        ],
                        "constructorArguments": "",
                        "name": "getUIntValue",
                        "returnParams": [
                            {
                                "name": "",
                                "type": "uint256",
                                "value": "24"
                            }
                        ],
                        "signature": "getUIntValue(uint256)"
                    },
                    "errorInfo": "",
                    "fromAddress": "0x06a6a7af298129e3a2ab396c9c06f91d3c54aba8",
                    "gasUsed": 588,
                    "id": 10,
                    "methodDecoded": true,
                    "operation": "CALL",
                    "output": "0x0000000000000000000000000000000000000000000000000000000000000018",
                    "revert": false,
                    "revertMessage": "",
                    "selector": "0x64c66395",
                    "status": true,
                    "value": "0"
                },
                "nodeType": 0
            },
            "11": {
                "invocation": {
                    "address": "0xfc30a1a7a650d10b20500bc10b06ff8f4b650ad2",
                    "callData": "0x0000000000000000000000000000000000000000000000000000000000000012",
                    "decodedMethod": {
                        "callParams": [
                            {
                                "name": "_record",
                                "type": "uint256",
                                "value": "18"
                            }
                        ],
                        "constructorArguments": "",
                        "name": "getUIntValue",
                        "returnParams": [
                            {
                                "name": "",
                                "type": "uint256",
                                "value": "200"
                            }
                        ],
                        "signature": "getUIntValue(uint256)"
                    },
                    "errorInfo": "",
                    "fromAddress": "0x06a6a7af298129e3a2ab396c9c06f91d3c54aba8",
                    "gasUsed": 588,
                    "id": 11,
                    "methodDecoded": true,
                    "operation": "CALL",
                    "output": "0x00000000000000000000000000000000000000000000000000000000000000c8",
                    "revert": false,
                    "revertMessage": "",
                    "selector": "0x64c66395",
                    "status": true,
                    "value": "0"
                },
                "nodeType": 0
            },
            "12": {
                "invocation": {
                    "address": "0x06a6a7af298129e3a2ab396c9c06f91d3c54aba8",
                    "callData": "0x000000000000000000000000dac54ed759bc451ab5fb7bd7e1b00aa6a270fa8d00000000000000000000000000000000000000000000000000000000000000090000000000000000000000000000000000000000000000000000000000000000000000000000000000000000000000000000000000000000000000000000000000000000000000000000000000000000000000000000000000000000000000000000000000000000000000000000000000000000000000000000000000000000000000000000000000000000000000000000000000000000000000000000017f0000000000000000000000000000000000000000000000000000000000000000000000000000000000000000000000000000000000000000000000000000000000000000000000000000000000000000000000000000000000000000000000000000000000000000000000000000000000000000000000000000000000000000",
                    "decodedMethod": {
                        "callParams": [
                            {
                                "name": "_owner",
                                "type": "address",
                                "value": "0xdac54ed759bc451ab5fb7bd7e1b00aa6a270fa8d"
                            },
                            {
                                "name": "_resourcesId",
                                "type": "uint256[5]",
                                "value": [
                                    "9",
                                    "0",
                                    "0",
                                    "0",
                                    "0"
                                ]
                            },
                            {
                                "name": "_resourcesNeeded",
                                "type": "uint256[5]",
                                "value": [
                                    "383",
                                    "0",
                                    "0",
                                    "0",
                                    "0"
                                ]
                            }
                        ],
                        "constructorArguments": "",
                        "name": "spendResources",
                        "returnParams": [],
                        "signature": "spendResources(address,uint256[5],uint256[5])"
                    },
                    "errorInfo": "",
                    "fromAddress": "0x3401cab9bee49bcb76e13a8a09619e53d45c0af0",
                    "gasUsed": 101756,
                    "id": 12,
                    "methodDecoded": true,
                    "operation": "CALL",
                    "output": "",
                    "revert": false,
                    "revertMessage": "",
                    "selector": "0xcd216f0e",
                    "status": true,
                    "value": "0"
                },
                "nodeType": 0
            },
            "13": {
                "invocation": {
                    "address": "0xfc30a1a7a650d10b20500bc10b06ff8f4b650ad2",
                    "callData": "0x0000000000000000000000000000000000000000000000000000000000000022",
                    "decodedMethod": {
                        "callParams": [
                            {
                                "name": "_record",
                                "type": "uint256",
                                "value": "34"
                            }
                        ],
                        "constructorArguments": "",
                        "name": "getUIntValue",
                        "returnParams": [
                            {
                                "name": "",
                                "type": "uint256",
                                "value": "1"
                            }
                        ],
                        "signature": "getUIntValue(uint256)"
                    },
                    "errorInfo": "",
                    "fromAddress": "0x06a6a7af298129e3a2ab396c9c06f91d3c54aba8",
                    "gasUsed": 588,
                    "id": 13,
                    "methodDecoded": true,
                    "operation": "CALL",
                    "output": "0x0000000000000000000000000000000000000000000000000000000000000001",
                    "revert": false,
                    "revertMessage": "",
                    "selector": "0x64c66395",
                    "status": true,
                    "value": "0"
                },
                "nodeType": 0
            },
            "14": {
                "invocation": {
                    "address": "0xfc30a1a7a650d10b20500bc10b06ff8f4b650ad2",
                    "callData": "0x0000000000000000000000000000000000000000000000000000000000000011",
                    "decodedMethod": {
                        "callParams": [
                            {
                                "name": "_record",
                                "type": "uint256",
                                "value": "17"
                            }
                        ],
                        "constructorArguments": "",
                        "name": "getUIntValue",
                        "returnParams": [
                            {
                                "name": "",
                                "type": "uint256",
                                "value": "24"
                            }
                        ],
                        "signature": "getUIntValue(uint256)"
                    },
                    "errorInfo": "",
                    "fromAddress": "0x06a6a7af298129e3a2ab396c9c06f91d3c54aba8",
                    "gasUsed": 588,
                    "id": 14,
                    "methodDecoded": true,
                    "operation": "CALL",
                    "output": "0x0000000000000000000000000000000000000000000000000000000000000018",
                    "revert": false,
                    "revertMessage": "",
                    "selector": "0x64c66395",
                    "status": true,
                    "value": "0"
                },
                "nodeType": 0
            },
            "15": {
                "invocation": {
                    "address": "0xfc30a1a7a650d10b20500bc10b06ff8f4b650ad2",
                    "callData": "0x0000000000000000000000000000000000000000000000000000000000000012",
                    "decodedMethod": {
                        "callParams": [
                            {
                                "name": "_record",
                                "type": "uint256",
                                "value": "18"
                            }
                        ],
                        "constructorArguments": "",
                        "name": "getUIntValue",
                        "returnParams": [
                            {
                                "name": "",
                                "type": "uint256",
                                "value": "200"
                            }
                        ],
                        "signature": "getUIntValue(uint256)"
                    },
                    "errorInfo": "",
                    "fromAddress": "0x06a6a7af298129e3a2ab396c9c06f91d3c54aba8",
                    "gasUsed": 588,
                    "id": 15,
                    "methodDecoded": true,
                    "operation": "CALL",
                    "output": "0x00000000000000000000000000000000000000000000000000000000000000c8",
                    "revert": false,
                    "revertMessage": "",
                    "selector": "0x64c66395",
                    "status": true,
                    "value": "0"
                },
                "nodeType": 0
            },
            "16": {
                "invocation": {
                    "address": "0xfc30a1a7a650d10b20500bc10b06ff8f4b650ad2",
                    "callData": "0x0000000000000000000000000000000000000000000000000000000000000022",
                    "decodedMethod": {
                        "callParams": [
                            {
                                "name": "_record",
                                "type": "uint256",
                                "value": "34"
                            }
                        ],
                        "constructorArguments": "",
                        "name": "getUIntValue",
                        "returnParams": [
                            {
                                "name": "",
                                "type": "uint256",
                                "value": "1"
                            }
                        ],
                        "signature": "getUIntValue(uint256)"
                    },
                    "errorInfo": "",
                    "fromAddress": "0x06a6a7af298129e3a2ab396c9c06f91d3c54aba8",
                    "gasUsed": 588,
                    "id": 16,
                    "methodDecoded": true,
                    "operation": "CALL",
                    "output": "0x0000000000000000000000000000000000000000000000000000000000000001",
                    "revert": false,
                    "revertMessage": "",
                    "selector": "0x64c66395",
                    "status": true,
                    "value": "0"
                },
                "nodeType": 0
            },
            "17": {
                "invocation": {
                    "address": "0xfc30a1a7a650d10b20500bc10b06ff8f4b650ad2",
                    "callData": "0x0000000000000000000000000000000000000000000000000000000000000011",
                    "decodedMethod": {
                        "callParams": [
                            {
                                "name": "_record",
                                "type": "uint256",
                                "value": "17"
                            }
                        ],
                        "constructorArguments": "",
                        "name": "getUIntValue",
                        "returnParams": [
                            {
                                "name": "",
                                "type": "uint256",
                                "value": "24"
                            }
                        ],
                        "signature": "getUIntValue(uint256)"
                    },
                    "errorInfo": "",
                    "fromAddress": "0x06a6a7af298129e3a2ab396c9c06f91d3c54aba8",
                    "gasUsed": 588,
                    "id": 17,
                    "methodDecoded": true,
                    "operation": "CALL",
                    "output": "0x0000000000000000000000000000000000000000000000000000000000000018",
                    "revert": false,
                    "revertMessage": "",
                    "selector": "0x64c66395",
                    "status": true,
                    "value": "0"
                },
                "nodeType": 0
            },
            "18": {
                "invocation": {
                    "address": "0xfc30a1a7a650d10b20500bc10b06ff8f4b650ad2",
                    "callData": "0x0000000000000000000000000000000000000000000000000000000000000012",
                    "decodedMethod": {
                        "callParams": [
                            {
                                "name": "_record",
                                "type": "uint256",
                                "value": "18"
                            }
                        ],
                        "constructorArguments": "",
                        "name": "getUIntValue",
                        "returnParams": [
                            {
                                "name": "",
                                "type": "uint256",
                                "value": "200"
                            }
                        ],
                        "signature": "getUIntValue(uint256)"
                    },
                    "errorInfo": "",
                    "fromAddress": "0x06a6a7af298129e3a2ab396c9c06f91d3c54aba8",
                    "gasUsed": 588,
                    "id": 18,
                    "methodDecoded": true,
                    "operation": "CALL",
                    "output": "0x00000000000000000000000000000000000000000000000000000000000000c8",
                    "revert": false,
                    "revertMessage": "",
                    "selector": "0x64c66395",
                    "status": true,
                    "value": "0"
                },
                "nodeType": 0
            },
            "19": {
                "invocation": {
                    "address": "0xfc30a1a7a650d10b20500bc10b06ff8f4b650ad2",
                    "callData": "0x0000000000000000000000000000000000000000000000000000000000000022",
                    "decodedMethod": {
                        "callParams": [
                            {
                                "name": "_record",
                                "type": "uint256",
                                "value": "34"
                            }
                        ],
                        "constructorArguments": "",
                        "name": "getUIntValue",
                        "returnParams": [
                            {
                                "name": "",
                                "type": "uint256",
                                "value": "1"
                            }
                        ],
                        "signature": "getUIntValue(uint256)"
                    },
                    "errorInfo": "",
                    "fromAddress": "0x06a6a7af298129e3a2ab396c9c06f91d3c54aba8",
                    "gasUsed": 588,
                    "id": 19,
                    "methodDecoded": true,
                    "operation": "CALL",
                    "output": "0x0000000000000000000000000000000000000000000000000000000000000001",
                    "revert": false,
                    "revertMessage": "",
                    "selector": "0x64c66395",
                    "status": true,
                    "value": "0"
                },
                "nodeType": 0
            },
            "2": {
                "invocation": {
                    "address": "0xfc30a1a7a650d10b20500bc10b06ff8f4b650ad2",
                    "callData": "0x0000000000000000000000000000000000000000000000000000000000000027",
                    "decodedMethod": {
                        "callParams": [
                            {
                                "name": "_record",
                                "type": "uint256",
                                "value": "39"
                            }
                        ],
                        "constructorArguments": "",
                        "name": "getUIntValue",
                        "returnParams": [
                            {
                                "name": "",
                                "type": "uint256",
                                "value": "10"
                            }
                        ],
                        "signature": "getUIntValue(uint256)"
                    },
                    "errorInfo": "",
                    "fromAddress": "0x3401cab9bee49bcb76e13a8a09619e53d45c0af0",
                    "gasUsed": 588,
                    "id": 2,
                    "methodDecoded": true,
                    "operation": "CALL",
                    "output": "0x000000000000000000000000000000000000000000000000000000000000000a",
                    "revert": false,
                    "revertMessage": "",
                    "selector": "0x64c66395",
                    "status": true,
                    "value": "0"
                },
                "nodeType": 0
            },
            "20": {
                "invocation": {
                    "address": "0xfc30a1a7a650d10b20500bc10b06ff8f4b650ad2",
                    "callData": "0x0000000000000000000000000000000000000000000000000000000000000011",
                    "decodedMethod": {
                        "callParams": [
                            {
                                "name": "_record",
                                "type": "uint256",
                                "value": "17"
                            }
                        ],
                        "constructorArguments": "",
                        "name": "getUIntValue",
                        "returnParams": [
                            {
                                "name": "",
                                "type": "uint256",
                                "value": "24"
                            }
                        ],
                        "signature": "getUIntValue(uint256)"
                    },
                    "errorInfo": "",
                    "fromAddress": "0x06a6a7af298129e3a2ab396c9c06f91d3c54aba8",
                    "gasUsed": 588,
                    "id": 20,
                    "methodDecoded": true,
                    "operation": "CALL",
                    "output": "0x0000000000000000000000000000000000000000000000000000000000000018",
                    "revert": false,
                    "revertMessage": "",
                    "selector": "0x64c66395",
                    "status": true,
                    "value": "0"
                },
                "nodeType": 0
            },
            "21": {
                "invocation": {
                    "address": "0xfc30a1a7a650d10b20500bc10b06ff8f4b650ad2",
                    "callData": "0x0000000000000000000000000000000000000000000000000000000000000012",
                    "decodedMethod": {
                        "callParams": [
                            {
                                "name": "_record",
                                "type": "uint256",
                                "value": "18"
                            }
                        ],
                        "constructorArguments": "",
                        "name": "getUIntValue",
                        "returnParams": [
                            {
                                "name": "",
                                "type": "uint256",
                                "value": "200"
                            }
                        ],
                        "signature": "getUIntValue(uint256)"
                    },
                    "errorInfo": "",
                    "fromAddress": "0x06a6a7af298129e3a2ab396c9c06f91d3c54aba8",
                    "gasUsed": 588,
                    "id": 21,
                    "methodDecoded": true,
                    "operation": "CALL",
                    "output": "0x00000000000000000000000000000000000000000000000000000000000000c8",
                    "revert": false,
                    "revertMessage": "",
                    "selector": "0x64c66395",
                    "status": true,
                    "value": "0"
                },
                "nodeType": 0
            },
            "22": {
                "invocation": {
                    "address": "0xfc30a1a7a650d10b20500bc10b06ff8f4b650ad2",
                    "callData": "0x0000000000000000000000000000000000000000000000000000000000000023",
                    "decodedMethod": {
                        "callParams": [
                            {
                                "name": "_record",
                                "type": "uint256",
                                "value": "35"
                            }
                        ],
                        "constructorArguments": "",
                        "name": "getUIntValue",
                        "returnParams": [
                            {
                                "name": "",
                                "type": "uint256",
                                "value": "150"
                            }
                        ],
                        "signature": "getUIntValue(uint256)"
                    },
                    "errorInfo": "",
                    "fromAddress": "0x3401cab9bee49bcb76e13a8a09619e53d45c0af0",
                    "gasUsed": 588,
                    "id": 22,
                    "methodDecoded": true,
                    "operation": "CALL",
                    "output": "0x0000000000000000000000000000000000000000000000000000000000000096",
                    "revert": false,
                    "revertMessage": "",
                    "selector": "0x64c66395",
                    "status": true,
                    "value": "0"
                },
                "nodeType": 0
            },
            "23": {
                "invocation": {
                    "address": "0x2de440a27d6f4b525d19154dcd0c8d02955585df",
                    "callData": "0x000000000000000000000000dac54ed759bc451ab5fb7bd7e1b00aa6a270fa8d000000000000000000000000000000000000000000000000000000000000000100000000000000000000000000000000000000000000000000000000000000090000000000000000000000000000000000000000000000000000000000000000000000000000000000000000000000000000000000000000000000000000000000000000000000000000000000000000000000000000000000000000000000000000000000000000000000000000000000000000000000000000000000000000000000000000000000000000000000000000000000000000000000000000023f0000000000000000000000000000000000000000000000000000000000000000000000000000000000000000000000000000000000000000000000000000000000000000000000000000000000000000000000000000000000000000000000000000000000000000000000000000000000000000000000000000000000000000",
                    "decodedMethod": null,
                    "errorInfo": "",
                    "fromAddress": "0x3401cab9bee49bcb76e13a8a09619e53d45c0af0",
                    "gasUsed": 11947,
                    "id": 23,
                    "methodDecoded": false,
                    "operation": "CALL",
                    "output": "",
                    "revert": false,
                    "revertMessage": "",
                    "selector": "0xf1982b8f",
                    "status": true,
                    "value": "0"
                },
                "nodeType": 0
            },
            "24": {
                "event": {
                    "contract": "0x3401cab9bee49bcb76e13a8a09619e53d45c0af0",
                    "decodedLog": null,
                    "id": 24,
                    "logData": "0x00000000000000000000000000000000000000000000000000000000000000090000000000000000000000000000000000000000000000000000000000000000000000000000000000000000000000000000000000000000000000000000000000000000000000000000000000000000000000000000000000000000000000000000000000000000000000000000000000000000000000000000000000000000000000000000000000000000000000000000000000000000000000000000023f0000000000000000000000000000000000000000000000000000000000000000000000000000000000000000000000000000000000000000000000000000000000000000000000000000000000000000000000000000000000000000000000000000000000000000000000000000000000000000000000000000000000000000",
                    "logDecoded": false,
                    "operation": "EVENT",
                    "revert": false,
                    "status": true,
                    "topics": [
                        "0x2e51558d39b69d76740586d9696240e618222247ce2e77da8a19403029e1b476",
                        "0x000000000000000000000000dac54ed759bc451ab5fb7bd7e1b00aa6a270fa8d",
                        "0x0000000000000000000000000000000000000000000000000000000000000001",
                        "0x0000000000000000000000000000000000000000000000000000000000010338"
                    ]
                },
                "nodeType": 1
            },
            "25": {
                "invocation": {
                    "address": "0xfc30a1a7a650d10b20500bc10b06ff8f4b650ad2",
                    "callData": "0x000000000000000000000000000000000000000000000000000000000000002a",
                    "decodedMethod": {
                        "callParams": [
                            {
                                "name": "_record",
                                "type": "uint256",
                                "value": "42"
                            }
                        ],
                        "constructorArguments": "",
                        "name": "getUIntValue",
                        "returnParams": [
                            {
                                "name": "",
                                "type": "uint256",
                                "value": "30"
                            }
                        ],
                        "signature": "getUIntValue(uint256)"
                    },
                    "errorInfo": "",
                    "fromAddress": "0x3401cab9bee49bcb76e13a8a09619e53d45c0af0",
                    "gasUsed": 588,
                    "id": 25,
                    "methodDecoded": true,
                    "operation": "CALL",
                    "output": "0x000000000000000000000000000000000000000000000000000000000000001e",
                    "revert": false,
                    "revertMessage": "",
                    "selector": "0x64c66395",
                    "status": true,
                    "value": "0"
                },
                "nodeType": 0
            },
            "26": {
                "invocation": {
                    "address": "0xfc30a1a7a650d10b20500bc10b06ff8f4b650ad2",
                    "callData": "0x000000000000000000000000000000000000000000000000000000000000000c",
                    "decodedMethod": {
                        "callParams": [
                            {
                                "name": "_record",
                                "type": "uint256",
                                "value": "12"
                            }
                        ],
                        "constructorArguments": "",
                        "name": "getUIntValue",
                        "returnParams": [
                            {
                                "name": "",
                                "type": "uint256",
                                "value": "10"
                            }
                        ],
                        "signature": "getUIntValue(uint256)"
                    },
                    "errorInfo": "",
                    "fromAddress": "0x3401cab9bee49bcb76e13a8a09619e53d45c0af0",
                    "gasUsed": 588,
                    "id": 26,
                    "methodDecoded": true,
                    "operation": "CALL",
                    "output": "0x000000000000000000000000000000000000000000000000000000000000000a",
                    "revert": false,
                    "revertMessage": "",
                    "selector": "0x64c66395",
                    "status": true,
                    "value": "0"
                },
                "nodeType": 0
            },
            "27": {
                "invocation": {
                    "address": "0x06a6a7af298129e3a2ab396c9c06f91d3c54aba8",
                    "callData": "0x00000000000000000000000000000000000000000000000000000000000000160000000000000000000000000000000000000000000000000000000000000005",
                    "decodedMethod": {
                        "callParams": [
                            {
                                "name": "sectorX",
                                "type": "uint256",
                                "value": "22"
                            },
                            {
                                "name": "sectorY",
                                "type": "uint256",
                                "value": "5"
                            }
                        ],
                        "constructorArguments": "",
                        "name": "getDiscoveredPlanetsDensity",
                        "returnParams": [
                            {
                                "name": "",
                                "type": "uint256",
                                "value": "93"
                            }
                        ],
                        "signature": "getDiscoveredPlanetsDensity(uint256,uint256)"
                    },
                    "errorInfo": "",
                    "fromAddress": "0x3401cab9bee49bcb76e13a8a09619e53d45c0af0",
                    "gasUsed": 1276,
                    "id": 27,
                    "methodDecoded": true,
                    "operation": "CALL",
                    "output": "0x000000000000000000000000000000000000000000000000000000000000005d",
                    "revert": false,
                    "revertMessage": "",
                    "selector": "0x672815c2",
                    "status": true,
                    "value": "0"
                },
                "nodeType": 0
            },
            "3": {
                "invocation": {
                    "address": "0xfc30a1a7a650d10b20500bc10b06ff8f4b650ad2",
                    "callData": "0x",
                    "decodedMethod": null,
                    "errorInfo": "",
                    "fromAddress": "0x3401cab9bee49bcb76e13a8a09619e53d45c0af0",
                    "gasUsed": 495,
                    "id": 3,
                    "methodDecoded": false,
                    "operation": "CALL",
                    "output": "0x0000000000000000000000000000000000000000000000000000000000000001",
                    "revert": false,
                    "revertMessage": "",
                    "selector": "0x55909f87",
                    "status": true,
                    "value": "0"
                },
                "nodeType": 0
            },
            "4": {
                "invocation": {
                    "address": "0xe658e6eb4b478da2cf36d9e3712ba0c1b33786a1",
                    "callData": "0x000000000000000000000000dac54ed759bc451ab5fb7bd7e1b00aa6a270fa8d000000000000000000000000000000000000000000000000000000000000000a",
                    "decodedMethod": null,
                    "errorInfo": "",
                    "fromAddress": "0x3401cab9bee49bcb76e13a8a09619e53d45c0af0",
                    "gasUsed": 1646,
                    "id": 4,
                    "methodDecoded": false,
                    "operation": "CALL",
                    "output": "",
                    "revert": false,
                    "revertMessage": "",
                    "selector": "0x9adbf583",
                    "status": true,
                    "value": "0"
                },
                "nodeType": 0
            },
            "5": {
                "invocation": {
                    "address": "0x06a6a7af298129e3a2ab396c9c06f91d3c54aba8",
                    "callData": "0x0000000000000000000000000000000000000000000000000000000000010338",
                    "decodedMethod": {
                        "callParams": [
                            {
                                "name": "_id",
                                "type": "uint256",
                                "value": "66,360"
                            }
                        ],
                        "constructorArguments": "",
                        "name": "getPlanet",
                        "returnParams": [
                            {
                                "name": "rarity",
                                "type": "uint256",
                                "value": "0"
                            },
                            {
                                "name": "discovered",
                                "type": "uint256",
                                "value": "1,552,176,469"
                            },
                            {
                                "name": "sectorX",
                                "type": "uint256",
                                "value": "22"
                            },
                            {
                                "name": "sectorY",
                                "type": "uint256",
                                "value": "5"
                            },
                            {
                                "name": "resourcesId",
                                "type": "uint256[5]",
                                "value": [
                                    "0",
                                    "8",
                                    "6",
                                    "23",
                                    "0"
                                ]
                            },
                            {
                                "name": "resourcesVelocity",
                                "type": "uint256[5]",
                                "value": [
                                    "43",
                                    "36",
                                    "27",
                                    "34",
                                    "0"
                                ]
                            }
                        ],
                        "signature": "getPlanet(uint256)"
                    },
                    "errorInfo": "",
                    "fromAddress": "0x3401cab9bee49bcb76e13a8a09619e53d45c0af0",
                    "gasUsed": 7078,
                    "id": 5,
                    "methodDecoded": true,
                    "operation": "CALL",
                    "output": "0x0000000000000000000000000000000000000000000000000000000000000000000000000000000000000000000000000000000000000000000000005c8455550000000000000000000000000000000000000000000000000000000000000016000000000000000000000000000000000000000000000000000000000000000500000000000000000000000000000000000000000000000000000000000000000000000000000000000000000000000000000000000000000000000000000008000000000000000000000000000000000000000000000000000000000000000600000000000000000000000000000000000000000000000000000000000000170000000000000000000000000000000000000000000000000000000000000000000000000000000000000000000000000000000000000000000000000000002b0000000000000000000000000000000000000000000000000000000000000024000000000000000000000000000000000000000000000000000000000000001b00000000000000000000000000000000000000000000000000000000000000220000000000000000000000000000000000000000000000000000000000000000",
                    "revert": false,
                    "revertMessage": "",
                    "selector": "0x34efcb8e",
                    "status": true,
                    "value": "0"
                },
                "nodeType": 0
            },
            "6": {
                "invocation": {
                    "address": "0x06a6a7af298129e3a2ab396c9c06f91d3c54aba8",
                    "callData": "0x0000000000000000000000000000000000000000000000000000000000010338",
                    "decodedMethod": {
                        "callParams": [
                            {
                                "name": "_tokenId",
                                "type": "uint256",
                                "value": "66,360"
                            }
                        ],
                        "constructorArguments": "",
                        "name": "ownerOf",
                        "returnParams": [
                            {
                                "name": "",
                                "type": "address",
                                "value": "0xdac54ed759bc451ab5fb7bd7e1b00aa6a270fa8d"
                            }
                        ],
                        "signature": "ownerOf(uint256)"
                    },
                    "errorInfo": "",
                    "fromAddress": "0x3401cab9bee49bcb76e13a8a09619e53d45c0af0",
                    "gasUsed": 1277,
                    "id": 6,
                    "methodDecoded": true,
                    "operation": "CALL",
                    "output": "0x000000000000000000000000dac54ed759bc451ab5fb7bd7e1b00aa6a270fa8d",
                    "revert": false,
                    "revertMessage": "",
                    "selector": "0x6352211e",
                    "status": true,
                    "value": "0"
                },
                "nodeType": 0
            },
            "7": {
                "invocation": {
                    "address": "0x2de440a27d6f4b525d19154dcd0c8d02955585df",
                    "callData": "0x000000000000000000000000dac54ed759bc451ab5fb7bd7e1b00aa6a270fa8d0000000000000000000000000000000000000000000000000000000000000001",
                    "decodedMethod": null,
                    "errorInfo": "",
                    "fromAddress": "0x3401cab9bee49bcb76e13a8a09619e53d45c0af0",
                    "gasUsed": 4414,
                    "id": 7,
                    "methodDecoded": false,
                    "operation": "CALL",
                    "output": "0x000000000000000000000000000000000000000000000000000000000000000700000000000000000000000000000000000000000000000000000000000000010000000000000000000000000000000000000000000000000000000000000046000000000000000000000000000000000000000000000000000000000000000000000000000000000000000000000000000000000000000000000000000000090000000000000000000000000000000000000000000000000000000000000000000000000000000000000000000000000000000000000000000000000000000000000000000000000000000000000000000000000000000000000000000000000000000000000000000000000000000000000000000000000000000000000000000000000000000000000000000000000000000000000000000000000000017f0000000000000000000000000000000000000000000000000000000000000000000000000000000000000000000000000000000000000000000000000000000000000000000000000000000000000000000000000000000000000000000000000000000000000000000000000000000000000000000000000000000000000000",
                    "revert": false,
                    "revertMessage": "",
                    "selector": "0x655990ec",
                    "status": true,
                    "value": "0"
                },
                "nodeType": 0
            },
            "8": {
                "invocation": {
                    "address": "0x06a6a7af298129e3a2ab396c9c06f91d3c54aba8",
                    "callData": "0x000000000000000000000000dac54ed759bc451ab5fb7bd7e1b00aa6a270fa8d000000000000000000000000000000000000000000000000000000000001033800000000000000000000000000000000000000000000000000000000000000000000000000000000000000000000000000000000000000000000000000000046",
                    "decodedMethod": {
                        "callParams": [
                            {
                                "name": "_owner",
                                "type": "address",
                                "value": "0xdac54ed759bc451ab5fb7bd7e1b00aa6a270fa8d"
                            },
                            {
                                "name": "_planetId",
                                "type": "uint256",
                                "value": "66,360"
                            },
                            {
                                "name": "_resourceId",
                                "type": "uint256",
                                "value": "0"
                            },
                            {
                                "name": "_resourceValue",
                                "type": "uint256",
                                "value": "70"
                            }
                        ],
                        "constructorArguments": "",
                        "name": "spendResourceOnPlanet",
                        "returnParams": [],
                        "signature": "spendResourceOnPlanet(address,uint256,uint256,uint256)"
                    },
                    "errorInfo": "",
                    "fromAddress": "0x3401cab9bee49bcb76e13a8a09619e53d45c0af0",
                    "gasUsed": 30779,
                    "id": 8,
                    "methodDecoded": true,
                    "operation": "CALL",
                    "output": "",
                    "revert": false,
                    "revertMessage": "",
                    "selector": "0x189052f1",
                    "status": true,
                    "value": "0"
                },
                "nodeType": 0
            },
            "9": {
                "invocation": {
                    "address": "0xfc30a1a7a650d10b20500bc10b06ff8f4b650ad2",
                    "callData": "0x0000000000000000000000000000000000000000000000000000000000000022",
                    "decodedMethod": {
                        "callParams": [
                            {
                                "name": "_record",
                                "type": "uint256",
                                "value": "34"
                            }
                        ],
                        "constructorArguments": "",
                        "name": "getUIntValue",
                        "returnParams": [
                            {
                                "name": "",
                                "type": "uint256",
                                "value": "1"
                            }
                        ],
                        "signature": "getUIntValue(uint256)"
                    },
                    "errorInfo": "",
                    "fromAddress": "0x06a6a7af298129e3a2ab396c9c06f91d3c54aba8",
                    "gasUsed": 588,
                    "id": 9,
                    "methodDecoded": true,
                    "operation": "CALL",
                    "output": "0x0000000000000000000000000000000000000000000000000000000000000001",
                    "revert": false,
                    "revertMessage": "",
                    "selector": "0x64c66395",
                    "status": true,
                    "value": "0"
                },
                "nodeType": 0
            }
        },
        "gasFlame": [
            {
                "children": [
                    {
                        "children": [
                            {
                                "children": [],
                                "depth": 0,
                                "name": "Initial Gas",
                                "value": 21784
                            },
                            {
                                "children": [
                                    {
                                        "children": [
                                            {
                                                "children": [],
                                                "depth": 2,
                                                "name": "getUIntValue",
                                                "value": 588
                                            },
                                            {
                                                "children": [],
                                                "depth": 2,
                                                "name": "0x55909f87",
                                                "value": 495
                                            },
                                            {
                                                "children": [],
                                                "depth": 2,
                                                "name": "0x9adbf583",
                                                "value": 1646
                                            },
                                            {
                                                "children": [],
                                                "depth": 2,
                                                "name": "getPlanet",
                                                "value": 7078
                                            },
                                            {
                                                "children": [],
                                                "depth": 2,
                                                "name": "ownerOf",
                                                "value": 1277
                                            },
                                            {
                                                "children": [],
                                                "depth": 2,
                                                "name": "0x655990ec",
                                                "value": 4414
                                            },
                                            {
                                                "children": [
                                                    {
                                                        "children": [],
                                                        "depth": 3,
                                                        "name": "getUIntValue",
                                                        "value": 588
                                                    },
                                                    {
                                                        "children": [],
                                                        "depth": 3,
                                                        "name": "getUIntValue",
                                                        "value": 588
                                                    },
                                                    {
                                                        "children": [],
                                                        "depth": 3,
                                                        "name": "getUIntValue",
                                                        "value": 588
                                                    }
                                                ],
                                                "depth": 2,
                                                "name": "spendResourceOnPlanet",
                                                "value": 30779
                                            },
                                            {
                                                "children": [
                                                    {
                                                        "children": [],
                                                        "depth": 3,
                                                        "name": "getUIntValue",
                                                        "value": 588
                                                    },
                                                    {
                                                        "children": [],
                                                        "depth": 3,
                                                        "name": "getUIntValue",
                                                        "value": 588
                                                    },
                                                    {
                                                        "children": [],
                                                        "depth": 3,
                                                        "name": "getUIntValue",
                                                        "value": 588
                                                    },
                                                    {
                                                        "children": [],
                                                        "depth": 3,
                                                        "name": "getUIntValue",
                                                        "value": 588
                                                    },
                                                    {
                                                        "children": [],
                                                        "depth": 3,
                                                        "name": "getUIntValue",
                                                        "value": 588
                                                    },
                                                    {
                                                        "children": [],
                                                        "depth": 3,
                                                        "name": "getUIntValue",
                                                        "value": 588
                                                    },
                                                    {
                                                        "children": [],
                                                        "depth": 3,
                                                        "name": "getUIntValue",
                                                        "value": 588
                                                    },
                                                    {
                                                        "children": [],
                                                        "depth": 3,
                                                        "name": "getUIntValue",
                                                        "value": 588
                                                    },
                                                    {
                                                        "children": [],
                                                        "depth": 3,
                                                        "name": "getUIntValue",
                                                        "value": 588
                                                    }
                                                ],
                                                "depth": 2,
                                                "name": "spendResources",
                                                "value": 101756
                                            },
                                            {
                                                "children": [],
                                                "depth": 2,
                                                "name": "getUIntValue",
                                                "value": 588
                                            },
                                            {
                                                "children": [],
                                                "depth": 2,
                                                "name": "0xf1982b8f",
                                                "value": 11947
                                            },
                                            {
                                                "children": [],
                                                "depth": 2,
                                                "name": "getUIntValue",
                                                "value": 588
                                            },
                                            {
                                                "children": [],
                                                "depth": 2,
                                                "name": "getUIntValue",
                                                "value": 588
                                            },
                                            {
                                                "children": [],
                                                "depth": 2,
                                                "name": "getDiscoveredPlanetsDensity",
                                                "value": 1276
                                            }
                                        ],
                                        "depth": 1,
                                        "name": "0x5bc20b24",
                                        "value": 240038
                                    }
                                ],
                                "depth": 0,
                                "name": "Executed Gas",
                                "value": 241617
                            }
                        ],
                        "depth": -1,
                        "name": "Actual Gas Used",
                        "value": 263401
                    },
                    {
                        "children": [],
                        "depth": -1,
                        "name": "Refunded Gas",
                        "value": 0
                    }
                ],
                "depth": -2,
                "name": "Total Gas",
                "value": 263401
            }
        ],
        "isConfirmed": true,
        "mainTrace": [
            {
                "children": [
                    {
                        "children": [
                            {
                                "children": [
                                    {
                                        "children": [],
                                        "depth": 2,
                                        "id": 2,
                                        "order": 2
                                    },
                                    {
                                        "children": [],
                                        "depth": 2,
                                        "id": 3,
                                        "order": 3
                                    },
                                    {
                                        "children": [],
                                        "depth": 2,
                                        "id": 4,
                                        "order": 4
                                    },
                                    {
                                        "children": [],
                                        "depth": 2,
                                        "id": 5,
                                        "order": 5
                                    },
                                    {
                                        "children": [],
                                        "depth": 2,
                                        "id": 6,
                                        "order": 6
                                    },
                                    {
                                        "children": [],
                                        "depth": 2,
                                        "id": 7,
                                        "order": 7
                                    },
                                    {
                                        "children": [
                                            {
                                                "children": [],
                                                "depth": 3,
                                                "id": 9,
                                                "order": 9
                                            },
                                            {
                                                "children": [],
                                                "depth": 3,
                                                "id": 10,
                                                "order": 10
                                            },
                                            {
                                                "children": [],
                                                "depth": 3,
                                                "id": 11,
                                                "order": 11
                                            }
                                        ],
                                        "depth": 2,
                                        "id": 8,
                                        "order": 8
                                    },
                                    {
                                        "children": [
                                            {
                                                "children": [],
                                                "depth": 3,
                                                "id": 13,
                                                "order": 13
                                            },
                                            {
                                                "children": [],
                                                "depth": 3,
                                                "id": 14,
                                                "order": 14
                                            },
                                            {
                                                "children": [],
                                                "depth": 3,
                                                "id": 15,
                                                "order": 15
                                            },
                                            {
                                                "children": [],
                                                "depth": 3,
                                                "id": 16,
                                                "order": 16
                                            },
                                            {
                                                "children": [],
                                                "depth": 3,
                                                "id": 17,
                                                "order": 17
                                            },
                                            {
                                                "children": [],
                                                "depth": 3,
                                                "id": 18,
                                                "order": 18
                                            },
                                            {
                                                "children": [],
                                                "depth": 3,
                                                "id": 19,
                                                "order": 19
                                            },
                                            {
                                                "children": [],
                                                "depth": 3,
                                                "id": 20,
                                                "order": 20
                                            },
                                            {
                                                "children": [],
                                                "depth": 3,
                                                "id": 21,
                                                "order": 21
                                            }
                                        ],
                                        "depth": 2,
                                        "id": 12,
                                        "order": 12
                                    },
                                    {
                                        "children": [],
                                        "depth": 2,
                                        "id": 22,
                                        "order": 22
                                    },
                                    {
                                        "children": [],
                                        "depth": 2,
                                        "id": 23,
                                        "order": 23
                                    },
                                    {
                                        "children": [],
                                        "depth": 2,
                                        "id": 24,
                                        "order": 24
                                    },
                                    {
                                        "children": [],
                                        "depth": 2,
                                        "id": 25,
                                        "order": 25
                                    },
                                    {
                                        "children": [],
                                        "depth": 2,
                                        "id": 26,
                                        "order": 26
                                    },
                                    {
                                        "children": [],
                                        "depth": 2,
                                        "id": 27,
                                        "order": 27
                                    }
                                ],
                                "depth": 1,
                                "id": 1,
                                "order": 1
                            }
                        ],
                        "depth": 0,
                        "id": 0,
                        "order": 0
                    }
                ],
                "depth": -1,
                "id": -1,
                "order": -1
            }
        ],
        "mainTraceNodeCount": 28,
        "parentIdMap": {
            "0": -1,
            "1": 0,
            "10": 8,
            "11": 8,
            "12": 1,
            "13": 12,
            "14": 12,
            "15": 12,
            "16": 12,
            "17": 12,
            "18": 12,
            "19": 12,
            "2": 1,
            "20": 12,
            "21": 12,
            "22": 1,
            "23": 1,
            "24": 1,
            "25": 1,
            "26": 1,
            "27": 1,
            "3": 1,
            "4": 1,
            "5": 1,
            "6": 1,
            "7": 1,
            "8": 1,
            "9": 8
        },
        "tidyTrace": [
            {
                "children": [
                    {
                        "children": [
                            {
                                "children": [
                                    {
                                        "children": [],
                                        "depth": 2,
                                        "id": 2,
                                        "order": 2
                                    },
                                    {
                                        "children": [],
                                        "depth": 2,
                                        "id": 3,
                                        "order": 3
                                    },
                                    {
                                        "children": [],
                                        "depth": 2,
                                        "id": 4,
                                        "order": 4
                                    },
                                    {
                                        "children": [],
                                        "depth": 2,
                                        "id": 5,
                                        "order": 5
                                    },
                                    {
                                        "children": [],
                                        "depth": 2,
                                        "id": 6,
                                        "order": 6
                                    },
                                    {
                                        "children": [],
                                        "depth": 2,
                                        "id": 7,
                                        "order": 7
                                    },
                                    {
                                        "children": [
                                            {
                                                "children": [],
                                                "depth": 3,
                                                "id": 9,
                                                "order": 9
                                            },
                                            {
                                                "children": [],
                                                "depth": 3,
                                                "id": 10,
                                                "order": 10
                                            },
                                            {
                                                "children": [],
                                                "depth": 3,
                                                "id": 11,
                                                "order": 11
                                            }
                                        ],
                                        "depth": 2,
                                        "id": 8,
                                        "order": 8
                                    },
                                    {
                                        "children": [
                                            {
                                                "children": [],
                                                "depth": 3,
                                                "id": 13,
                                                "order": 13
                                            },
                                            {
                                                "children": [],
                                                "depth": 3,
                                                "id": 14,
                                                "order": 14
                                            },
                                            {
                                                "children": [],
                                                "depth": 3,
                                                "id": 15,
                                                "order": 15
                                            },
                                            {
                                                "children": [],
                                                "depth": 3,
                                                "id": 16,
                                                "order": 16
                                            },
                                            {
                                                "children": [],
                                                "depth": 3,
                                                "id": 17,
                                                "order": 17
                                            },
                                            {
                                                "children": [],
                                                "depth": 3,
                                                "id": 18,
                                                "order": 18
                                            },
                                            {
                                                "children": [],
                                                "depth": 3,
                                                "id": 19,
                                                "order": 19
                                            },
                                            {
                                                "children": [],
                                                "depth": 3,
                                                "id": 20,
                                                "order": 20
                                            },
                                            {
                                                "children": [],
                                                "depth": 3,
                                                "id": 21,
                                                "order": 21
                                            }
                                        ],
                                        "depth": 2,
                                        "id": 12,
                                        "order": 12
                                    },
                                    {
                                        "children": [],
                                        "depth": 2,
                                        "id": 22,
                                        "order": 22
                                    },
                                    {
                                        "children": [],
                                        "depth": 2,
                                        "id": 23,
                                        "order": 23
                                    },
                                    {
                                        "children": [],
                                        "depth": 2,
                                        "id": 24,
                                        "order": 24
                                    },
                                    {
                                        "children": [],
                                        "depth": 2,
                                        "id": 25,
                                        "order": 25
                                    },
                                    {
                                        "children": [],
                                        "depth": 2,
                                        "id": 26,
                                        "order": 26
                                    },
                                    {
                                        "children": [],
                                        "depth": 2,
                                        "id": 27,
                                        "order": 27
                                    }
                                ],
                                "depth": 1,
                                "id": 1,
                                "order": 1
                            }
                        ],
                        "depth": 0,
                        "id": 0,
                        "order": 0
                    }
                ],
                "depth": -1,
                "id": -1,
                "order": -1
            }
        ],
        "tidyTraceNodeCount": 28
    },
    "state_change": {
        "stateChanges": [
            {
                "address": "0x06a6a7af298129e3a2ab396c9c06f91d3c54aba8",
                "erc": "ERC-721",
                "slots": [
                    {
                        "current": "0x0000000000000000000000000000000000000000000000000000000000021ce2",
                        "key": "0x3d7b2f829c1efbaf3946de20cca7fef46174045189ebadbf25169f6de3938979",
                        "prev": "0x0000000000000000000000000000000000000000000000000000000000021069"
                    },
                    {
                        "current": "0x0000000000000000000000000000d400a900e30013001706080000005c8c9ac7",
                        "key": "0xa3281ccd1151c9cc59e2685c3274f0091a1cd7aceffff739b58dd01cfbf77b90",
                        "prev": "0x0000000000000000000000000000a2008100ae001a001706080000005c8aaa24"
                    },
                    {
                        "current": "0x0000000000000000000000000001d5000200000115001904090000005c8c9ac7",
                        "key": "0x8c2575f736f1ca5e8af83a342ca04fac75d4f0b465082a5e168e428b6c6628ee",
                        "prev": "0x0000000000000000000000000001d3000000120112001904090000005c8c830e"
                    },
                    {
                        "current": "0x000000000000000000000000000000000200cb00cd0009040a0000005c8c9ac7",
                        "key": "0xa29d7f876248c7161511ed6fd0a10a00cac54267a4c9c96718234e415adf134b",
                        "prev": "0x00000000000000000000000000000f000000c900cb0009040a0000005c8c830e"
                    },
                    {
                        "current": "0x000000000000000000000000000107060c0348002c000309060000005c8c9ac7",
                        "key": "0x1e4a68c66b6c7676ebb20df8b71f9237b1c9dc738037f06021f97ef65b5e4b18",
                        "prev": "0x0000000000000000000000000000f90757033d001d000309060000005c8c171c"
                    }
                ],
                "storageVariables": [
                    {
                        "name": "ownerToKnowledge",
                        "type": "mapping(address => uint256)",
                        "value": {
                            "pairs": [
                                {
                                    "key": "0xdac54ed759bc451ab5fb7bd7e1b00aa6a270fa8d",
                                    "value": {
                                        "current": "138466",
                                        "prev": "135273",
                                        "typeTag": 1
                                    }
                                }
                            ],
                            "typeTag": 4
                        }
                    },
                    {
                        "name": "planetStates",
                        "type": "mapping(uint256 => uint256)",
                        "value": {
                            "pairs": [
                                {
                                    "key": "29115",
                                    "value": {
                                        "current": "22912588862027657602255509510284957186824903",
                                        "prev": "21693456833226507808441390382547002075125532",
                                        "typeTag": 1
                                    }
                                },
                                {
                                    "key": "48230",
                                    "value": {
                                        "current": "40855664760451632974564208784452359727913671",
                                        "prev": "40681437530497203355849915781429018191758094",
                                        "typeTag": 1
                                    }
                                },
                                {
                                    "key": "64865",
                                    "value": {
                                        "current": "2662573384163842624085312564728994503",
                                        "prev": "1306684293053230855532913786698402148156174",
                                        "typeTag": 1
                                    }
                                },
                                {
                                    "key": "66360",
                                    "value": {
                                        "current": "18468029261668572800219628915753641516505799",
                                        "prev": "14112361794885763528655048005290873951267364",
                                        "typeTag": 1
                                    }
                                }
                            ],
                            "typeTag": 4
                        }
                    }
                ]
            },
            {
                "address": "0x2de440a27d6f4b525d19154dcd0c8d02955585df",
                "erc": "",
                "slots": [
                    {
                        "current": "0x000000000000000000000000000000000000023f000000000900004600010007",
                        "key": "0xb1aa09bbf2c38eeae9b359050129e78e1baed36063c207594ca5acb3368abdfc",
                        "prev": "0x000000000000000000000000000000000000017f000000000900004600010007"
                    }
                ],
                "storageVariables": []
            },
            {
                "address": "0x3401cab9bee49bcb76e13a8a09619e53d45c0af0",
                "erc": "",
                "slots": [
                    {
                        "current": "0x0000000000000000000000000000000000000000000000000000000005a3ccd0",
                        "key": "0x0000000000000000000000000000000000000000000000000000000000000000",
                        "prev": "0x0000000000000000000000000000000000000000000000000000000005a3cc53"
                    }
                ],
                "storageVariables": []
            }
        ]
    }
}