{
    "balance_change": {
        "balanceChanges": [
            {
                "account": "0x0d0707963952f2fba59dd06f2b425ace40b492fe",
                "assets": [
                    {
                        "address": "0xb879da8b24c9b8685de8526cf492e954f165d74b",
                        "amount": "700,000",
                        "iconUrl": "",
                        "isERC1155": false,
                        "isERC721": false,
                        "sign": false,
                        "value": ""
                    }
                ]
            },
            {
                "account": "0xd2b24e3bb0c089b6a0b283f705c9472d74efa5ed",
                "assets": [
                    {
                        "address": "0xb879da8b24c9b8685de8526cf492e954f165d74b",
                        "amount": "700,000",
                        "iconUrl": "",
                        "isERC1155": false,
                        "isERC721": false,
                        "sign": true,
                        "value": ""
                    }
                ]
            }
        ]
    },
    "profile": {
        "basic_info": {
            "baseFee": "",
            "blockNumber": 8953968,
            "callData": "0xa9059cbb000000000000000000000000d2b24e3bb0c089b6a0b283f705c9472d74efa5ed00000000000000000000000000000000000000000000943b1377290cbd800000",
            "debugEnable": true,
            "errorInfo": "",
            "eventCount": 1,
            "feeRecipient": "0x5a0b54d5dc17e0aadc383d2db43b0a0d3e029c4c",
            "formatValue": "0",
            "gasLimit": 200000,
            "gasPrice": "11",
            "gasUsed": 53120,
            "intTxnCount": 0,
            "internalRevert": false,
            "internalRevertMessage": "",
            "isContractCreation": false,
            "isFlashloan": false,
            "maxFee": "",
            "nonce": 1554135,
            "overwritedBlockNumber": -1,
            "priorityFee": "",
            "receiver": "0xb879da8b24c9b8685de8526cf492e954f165d74b",
            "revertMessage": "",
            "sender": "0x0d0707963952f2fba59dd06f2b425ace40b492fe",
            "simulationEnable": true,
            "sourceTxnHash": "0xf28b9bd7ac8f25dc35f532a69d3725f78423cf3b1aac91f27a7e38ad0f40f7d6",
            "status": true,
            "timestamp": "2019-11-18T02:28:30Z",
            "transactionFee": "0.00058432",
            "txnHash": "0xf28b9bd7ac8f25dc35f532a69d3725f78423cf3b1aac91f27a7e38ad0f40f7d6",
            "txnIndex": 120,
            "type": 0,
            "value": "0"
        },
        "fund_flow": [
            {
                "amount": "700,000",
                "from": "0x0d0707963952f2fba59dd06f2b425ace40b492fe",
                "id": 1,
                "isERC1155": false,
                "isERC721": false,
                "isReverted": false,
                "order": 1,
                "to": "0xd2b24e3bb0c089b6a0b283f705c9472d74efa5ed",
                "token": "0xb879da8b24c9b8685de8526cf492e954f165d74b"
            }
        ],
        "token_infos": [
            {
                "address": "0xeeeeeeeeeeeeeeeeeeeeeeeeeeeeeeeeeeeeeeee",
                "decimals": 18
            },
            {
                "address": "0xb879da8b24c9b8685de8526cf492e954f165d74b",
                "decimals": 18
            },
            {
                "address": "0xc02aaa39b223fe8d0a0e5c4f27ead9083c756cc2",
                "decimals": 18
            }
        ]
    },
    "address_label": {
        "labels": [
            {
                "address": "0xeeeeeeeeeeeeeeeeeeeeeeeeeeeeeeeeeeeeeeee",
                "label": "Ether"
            },
            {
                "address": "0x0d0707963952f2fba59dd06f2b425ace40b492fe",
                "label": "Gate.io"
            },
            {
                "address": "0xd2b24e3bb0c089b6a0b283f705c9472d74efa5ed",
                "label": "MEXC"
            },
            {
                "address": "0xb879da8b24c9b8685de8526cf492e954f165d74b",
                "label": "MovieBloc Token"
            },
            {
                "address": "0x0000000000000000000000000000000000000001",
                "label": "Precompiled"
            },
            {
                "address": "0x0000000000000000000000000000000000000002",
                "label": "Precompiled"
            },
            {
                "address": "0x0000000000000000000000000000000000000003",
                "label": "Precompiled"
            },
            {
                "address": "0x0000000000000000000000000000000000000004",
                "label": "Precompiled"
            }
        ]
    },
    "trace": {
        "accountLabels": null,
        "dataMap": {
            "-1": {
                "invocation": {
                    "address": "0x0d0707963952f2fba59dd06f2b425ace40b492fe",
                    "callData": "",
                    "decodedMethod": null,
                    "errorInfo": "",
                    "fromAddress": "",
                    "gasUsed": 0,
                    "id": -1,
                    "methodDecoded": false,
                    "operation": "",
                    "output": "",
                    "revert": false,
                    "revertMessage": "",
                    "selector": "",
                    "status": false,
                    "value": ""
                },
                "nodeType": 0
            },
            "0": {
                "invocation": {
                    "address": "0xb879da8b24c9b8685de8526cf492e954f165d74b",
                    "callData": "0x000000000000000000000000d2b24e3bb0c089b6a0b283f705c9472d74efa5ed00000000000000000000000000000000000000000000943b1377290cbd800000",
                    "decodedMethod": {
                        "callParams": [
                            {
                                "name": "to",
                                "type": "address",
                                "value": "0xd2b24e3bb0c089b6a0b283f705c9472d74efa5ed"
                            },
                            {
                                "decimalAvailable": true,
                                "name": "value",
                                "type": "uint256",
                                "value": "700,000,000,000,000,000,000,000"
                            }
                        ],
                        "constructorArguments": "",
                        "name": "transfer",
                        "returnParams": [
                            {
                                "name": "",
                                "type": "bool",
                                "value": true
                            }
                        ],
                        "signature": "transfer(address,uint256)"
                    },
                    "errorInfo": "",
                    "fromAddress": "0x0d0707963952f2fba59dd06f2b425ace40b492fe",
                    "gasUsed": 53120,
                    "id": 0,
                    "methodDecoded": true,
                    "operation": "CALL",
                    "output": "0x0000000000000000000000000000000000000000000000000000000000000001",
                    "revert": false,
                    "revertMessage": "",
                    "selector": "0xa9059cbb",
                    "status": true,
                    "value": "0"
                },
                "nodeType": 0
            },
            "1": {
                "event": {
                    "contract": "0xb879da8b24c9b8685de8526cf492e954f165d74b",
                    "decodedLog": {
                        "name": "Transfer",
                        "params": [
                            {
                                "name": "from",
                                "type": "address",
                                "value": "0x0d0707963952f2fba59dd06f2b425ace40b492fe"
                            },
                            {
                                "name": "to",
                                "type": "address",
                                "value": "0xd2b24e3bb0c089b6a0b283f705c9472d74efa5ed"
                            },
                            {
                                "decimalAvailable": true,
                                "name": "value",
                                "type": "uint256",
                                "value": "700,000,000,000,000,000,000,000"
                            }
                        ],
                        "signature": "Transfer(address,address,uint256)"
                    },
                    "id": 1,
                    "logData": "0x00000000000000000000000000000000000000000000943b1377290cbd800000",
                    "logDecoded": true,
                    "operation": "EVENT",
                    "revert": false,
                    "status": true,
                    "topics": [
                        "0xddf252ad1be2c89b69c2b068fc378daa952ba7f163c4a11628f55a4df523b3ef",
                        "0x0000000000000000000000000d0707963952f2fba59dd06f2b425ace40b492fe",
                        "0x000000000000000000000000d2b24e3bb0c089b6a0b283f705c9472d74efa5ed"
                    ]
                },
                "nodeType": 1
            }
        },
        "gasFlame": [
            {
                "children": [
                    {
                        "children": [
                            {
                                "children": [],
                                "depth": 0,
                                "name": "Initial Gas",
                                "value": 23320
                            },
                            {
                                "children": [],
                                "depth": 0,
                                "name": "Executed Gas",
                                "value": 29800
                            }
                        ],
                        "depth": -1,
                        "name": "Actual Gas Used",
                        "value": 53120
                    },
                    {
                        "children": [],
                        "depth": -1,
                        "name": "Refunded Gas",
                        "value": 0
                    }
                ],
                "depth": -2,
                "name": "Total Gas",
                "value": 53120
            }
        ],
        "isConfirmed": true,
        "mainTrace": [
            {
                "children": [
                    {
                        "children": [
                            {
                                "children": [],
                                "depth": 1,
                                "id": 1,
                                "order": 1
                            }
                        ],
                        "depth": 0,
                        "id": 0,
                        "order": 0
                    }
                ],
                "depth": -1,
                "id": -1,
                "order": -1
            }
        ],
        "mainTraceNodeCount": 2,
        "parentIdMap": {
            "0": -1,
            "1": 0
        },
        "tidyTrace": [
            {
                "children": [
                    {
                        "children": [
                            {
                                "children": [],
                                "depth": 1,
                                "id": 1,
                                "order": 1
                            }
                        ],
                        "depth": 0,
                        "id": 0,
                        "order": 0
                    }
                ],
                "depth": -1,
                "id": -1,
                "order": -1
            }
        ],
        "tidyTraceNodeCount": 2
    },
    "state_change": {
        "stateChanges": [
            {
                "address": "0xb879da8b24c9b8685de8526cf492e954f165d74b",
                "erc": "ERC-20",
                "slots": [
                    {
                        "current": "0x0000000000000000000000000000000000000000000faf455d833bca79efa0ae",
                        "key": "0xf29cdd059219383448e8b463b31f88f5e17e69c1c7262cd3b2b0c57147c048d6",
                        "prev": "0x00000000000000000000000000000000000000000010438070fa64d7376fa0ae"
                    },
                    {
                        "current": "0x00000000000000000000000000000000000000000000943b1377290cbd800000",
                        "key": "0x7f7bc9d5a92f9bdf06d4530a5b8e240b1d8b8d14418be6c927054be3e6415965",
                        "prev": "0x0000000000000000000000000000000000000000000000000000000000000000"
                    }
                ],
                "storageVariables": [
                    {
                        "name": "_balances",
                        "type": "mapping(address => uint256)",
                        "value": {
                            "pairs": [
                                {
                                    "key": "0x0d0707963952f2fba59dd06f2b425ace40b492fe",
                                    "value": {
                                        "current": "18961580992357919783624878",
                                        "prev": "19661580992357919783624878",
                                        "typeTag": 1
                                    }
                                },
                                {
                                    "key": "0xd2b24e3bb0c089b6a0b283f705c9472d74efa5ed",
                                    "value": {
                                        "current": "700000000000000000000000",
                                        "prev": "0",
                                        "typeTag": 1
                                    }
                                }
                            ],
                            "typeTag": 4
                        }
                    }
                ]
            }
        ]
    }
}