{
    "balance_change": {
        "balanceChanges": [
            {
                "account": "0xaa69479f8aa0065c8cf93e2b9c55ef7130d74936",
                "assets": [
                    {
                        "address": "0xc36cf0cfcb5d905b8b513860db0cfe63f6cf9f5c",
                        "amount": "1",
                        "iconUrl": "",
                        "isERC1155": true,
                        "isERC721": false,
                        "sign": true,
                        "tokenID": "240919915780024432132069222061691893710848",
                        "value": ""
                    },
                    {
                        "address": "0xeeeeeeeeeeeeeeeeeeeeeeeeeeeeeeeeeeeeeeee",
                        "amount": "0.499",
                        "iconUrl": "https://assets.blocksec.com/image/1663669189317-3.png",
                        "isERC1155": false,
                        "isERC721": false,
                        "sign": false,
                        "value": "1405.1341000000000454"
                    }
                ]
            },
            {
                "account": "0x55254576f5bde073035e33812ba44704b004c361",
                "assets": [
                    {
                        "address": "0xeeeeeeeeeeeeeeeeeeeeeeeeeeeeeeeeeeeeeeee",
                        "amount": "0.47405",
                        "iconUrl": "https://assets.blocksec.com/image/1663669189317-3.png",
                        "isERC1155": false,
                        "isERC721": false,
                        "sign": true,
                        "value": "1334.8773950000000431"
                    },
                    {
                        "address": "0xc36cf0cfcb5d905b8b513860db0cfe63f6cf9f5c",
                        "amount": "1",
                        "iconUrl": "",
                        "isERC1155": true,
                        "isERC721": false,
                        "sign": false,
                        "tokenID": "240919915780024432132069222061691893710848",
                        "value": ""
                    }
                ]
            },
            {
                "account": "0x5b3256965e7c3cf26e11fcaf296dfc8807c01073",
                "assets": [
                    {
                        "address": "0xeeeeeeeeeeeeeeeeeeeeeeeeeeeeeeeeeeeeeeee",
                        "amount": "0.02495",
                        "iconUrl": "https://assets.blocksec.com/image/1663669189317-3.png",
                        "isERC1155": false,
                        "isERC721": false,
                        "sign": true,
                        "value": "70.256705000000002265"
                    }
                ]
            }
        ]
    },
    "profile": {
        "basic_info": {
            "baseFee": "36.764696266",
            "blockNumber": 14681492,
            "callData": "0xab834bab0000000000000000000000007f268357a8c2552623316e2562d90e642bb538e5000000000000000000000000aa69479f8aa0065c8cf93e2b9c55ef7130d7493600000000000000000000000055254576f5bde073035e33812ba44704b004c3610000000000000000000000000000000000000000000000000000000000000000000000000000000000000000baf2127b49fc93cbca6269fade0f7f31df4c88a7000000000000000000000000000000000000000000000000000000000000000000000000000000000000000000000000000000000000000000000000000000000000000000000000000000007f268357a8c2552623316e2562d90e642bb538e500000000000000000000000055254576f5bde073035e33812ba44704b004c36100000000000000000000000000000000000000000000000000000000000000000000000000000000000000005b3256965e7c3cf26e11fcaf296dfc8807c01073000000000000000000000000baf2127b49fc93cbca6269fade0f7f31df4c88a70000000000000000000000000000000000000000000000000000000000000000000000000000000000000000000000000000000000000000000000000000000000000000000000000000000000000000000000000000000000000000000001f400000000000000000000000000000000000000000000000000000000000000000000000000000000000000000000000000000000000000000000000000000000000000000000000000000000000000000000000000000000000000000000000000000000000000000000000000000000000000000000000006eccddb2eeb8000000000000000000000000000000000000000000000000000000000000000000000000000000000000000000000000000000000000000000000000000626c4dad000000000000000000000000000000000000000000000000000000000000000017797a5e9f2a6c02b3b628f1da3dc832b84bdb6aac107cc62d51797bab30acc800000000000000000000000000000000000000000000000000000000000001f400000000000000000000000000000000000000000000000000000000000000000000000000000000000000000000000000000000000000000000000000000000000000000000000000000000000000000000000000000000000000000000000000000000000000000000000000000000000000000000000006eccddb2eeb8000000000000000000000000000000000000000000000000000000000000000000000000000000000000000000000000000000000000000000000000000626a991100000000000000000000000000000000000000000000000000000000626e8cc1868a19b5ddb09650c9f79512f912cc41a2ec37d256d6fcff747f27bd4e636c5c0000000000000000000000000000000000000000000000000000000000000001000000000000000000000000000000000000000000000000000000000000000000000000000000000000000000000000000000000000000000000000000000000000000000000000000000000000000000000000000000000000000000000001000000000000000000000000000000000000000000000000000000000000000100000000000000000000000000000000000000000000000000000000000000010000000000000000000000000000000000000000000000000000000000000000000000000000000000000000000000000000000000000000000000000000000100000000000000000000000000000000000000000000000000000000000006a000000000000000000000000000000000000000000000000000000000000007e000000000000000000000000000000000000000000000000000000000000009200000000000000000000000000000000000000000000000000000000000000a600000000000000000000000000000000000000000000000000000000000000ba00000000000000000000000000000000000000000000000000000000000000ba0000000000000000000000000000000000000000000000000000000000000001c000000000000000000000000000000000000000000000000000000000000001cfa5301822c9d98147842be111c4594312fd6c9a419af60492ed20729e1aea3a34e6b9cac1b39db0fc9f3fad8d4dcac99a9fbebd9376b8fad62ab3e1761d40cfefa5301822c9d98147842be111c4594312fd6c9a419af60492ed20729e1aea3a34e6b9cac1b39db0fc9f3fad8d4dcac99a9fbebd9376b8fad62ab3e1761d40cfe0000000000000000000000000000000000000000000000000000000000000000000000000000000000000000000000000000000000000000000000000000010496809f900000000000000000000000000000000000000000000000000000000000000000000000000000000000000000aa69479f8aa0065c8cf93e2b9c55ef7130d74936000000000000000000000000c36cf0cfcb5d905b8b513860db0cfe63f6cf9f5c000000000000000000000000000002c4000000000000000000000000000000000000000000000000000000000000000000000000000000000000000000000001000000000000000000000000000000000000000000000000000000000000000000000000000000000000000000000000000000000000000000000000000000e0000000000000000000000000000000000000000000000000000000000000000000000000000000000000000000000000000000000000000000000000000000000000000000000000000000000000000000000000000000000000010496809f9000000000000000000000000055254576f5bde073035e33812ba44704b004c3610000000000000000000000000000000000000000000000000000000000000000000000000000000000000000c36cf0cfcb5d905b8b513860db0cfe63f6cf9f5c000000000000000000000000000002c4000000000000000000000000000000000000000000000000000000000000000000000000000000000000000000000001000000000000000000000000000000000000000000000000000000000000000000000000000000000000000000000000000000000000000000000000000000e0000000000000000000000000000000000000000000000000000000000000000000000000000000000000000000000000000000000000000000000000000000000000000000000000000000000000000000000000000000000000010400000000ffffffffffffffffffffffffffffffffffffffffffffffffffffffffffffffff0000000000000000000000000000000000000000000000000000000000000000000000000000000000000000000000000000000000000000000000000000000000000000000000000000000000000000000000000000000000000000000000000000000000000000000000000000000000000000000000000000000000000000000000000000000000000000000000000000000000000000000000000000000000000000000000000000000000000000000000000000000000000000000000000000000000000000000000000000000000000000000000000000000000000000000000000000000000000000000000000000000000000000000000000000000000000000000000000000000000000000000000000000000000000104000000000000000000000000000000000000000000000000000000000000000000000000ffffffffffffffffffffffffffffffffffffffffffffffffffffffffffffffff000000000000000000000000000000000000000000000000000000000000000000000000000000000000000000000000000000000000000000000000000000000000000000000000000000000000000000000000000000000000000000000000000000000000000000000000000000000000000000000000000000000000000000000000000000000000000000000000000000000000000000000000000000000000000000000000000000000000000000000000000000000000000000000000000000000000000000000000000000000000000000000000000000000000000000000000000000000000000000000000000000000000000000000000",
            "debugEnable": true,
            "errorInfo": "",
            "eventCount": 2,
            "feeRecipient": "0x7f101fe45e6649a6fb8f3f8b43ed03d353f2b90c",
            "formatValue": "0.499",
            "gasLimit": 265263,
            "gasPrice": "37.764696266",
            "gasUsed": 194307,
            "intTxnCount": 11,
            "internalRevert": false,
            "internalRevertMessage": "",
            "isContractCreation": false,
            "isFlashloan": false,
            "maxFee": "46",
            "nonce": 2,
            "overwritedBlockNumber": -1,
            "priorityFee": "1",
            "receiver": "0x7f268357a8c2552623316e2562d90e642bb538e5",
            "revertMessage": "",
            "sender": "0xaa69479f8aa0065c8cf93e2b9c55ef7130d74936",
            "simulationEnable": true,
            "sourceTxnHash": "0xf35f9b9881bbea1d9a28404afc5620b685267b1668a63e4c2f87b77a63f7b805",
            "status": true,
            "timestamp": "2022-04-29T20:56:00Z",
            "transactionFee": "0.007337944837357662",
            "txnHash": "0xf35f9b9881bbea1d9a28404afc5620b685267b1668a63e4c2f87b77a63f7b805",
            "txnIndex": 157,
            "type": 2,
            "value": "499000000000000000"
        },
        "fund_flow": [
            {
                "amount": "0.499",
                "from": "0xaa69479f8aa0065c8cf93e2b9c55ef7130d74936",
                "id": 1,
                "isERC1155": false,
                "isERC721": false,
                "isReverted": false,
                "order": 1,
                "to": "0x7f268357a8c2552623316e2562d90e642bb538e5",
                "token": "0xeeeeeeeeeeeeeeeeeeeeeeeeeeeeeeeeeeeeeeee"
            },
            {
                "amount": "0.02495",
                "from": "0x7f268357a8c2552623316e2562d90e642bb538e5",
                "id": 2,
                "isERC1155": false,
                "isERC721": false,
                "isReverted": false,
                "order": 2,
                "to": "0x5b3256965e7c3cf26e11fcaf296dfc8807c01073",
                "token": "0xeeeeeeeeeeeeeeeeeeeeeeeeeeeeeeeeeeeeeeee"
            },
            {
                "amount": "0.47405",
                "from": "0x7f268357a8c2552623316e2562d90e642bb538e5",
                "id": 3,
                "isERC1155": false,
                "isERC721": false,
                "isReverted": false,
                "order": 3,
                "to": "0x55254576f5bde073035e33812ba44704b004c361",
                "token": "0xeeeeeeeeeeeeeeeeeeeeeeeeeeeeeeeeeeeeeeee"
            },
            {
                "amount": "1",
                "from": "0x55254576f5bde073035e33812ba44704b004c361",
                "id": 4,
                "isERC1155": true,
                "isERC721": false,
                "isReverted": false,
                "order": 4,
                "to": "0xaa69479f8aa0065c8cf93e2b9c55ef7130d74936",
                "token": "0xc36cf0cfcb5d905b8b513860db0cfe63f6cf9f5c",
                "tokenID": "240919915780024432132069222061691893710848"
            }
        ],
        "token_infos": [
            {
                "address": "0xeeeeeeeeeeeeeeeeeeeeeeeeeeeeeeeeeeeeeeee",
                "decimals": 18
            },
            {
                "address": "0xc02aaa39b223fe8d0a0e5c4f27ead9083c756cc2",
                "decimals": 18
            }
        ]
    },
    "address_label": {
        "labels": [
            {
                "address": "0x0000000000000000000000000000000000000002",
                "label": "Precompiled"
            },
            {
                "address": "0x0000000000000000000000000000000000000000",
                "label": "Null Address"
            },
            {
                "address": "0x0c76af49264e90ab9eab4a7a817e2dacf2ab8211",
                "label": "OwnableDelegateProxy"
            },
            {
                "address": "0x0000000000000000000000000000000000000004",
                "label": "Precompiled"
            },
            {
                "address": "0x7f268357a8c2552623316e2562d90e642bb538e5",
                "label": "OpenSea: Wyvern Exchange v2"
            },
            {
                "address": "0xf9e266af4bca5890e2781812cc6a6e89495a79f2",
                "label": "AuthenticatedProxy"
            },
            {
                "address": "0xc36cf0cfcb5d905b8b513860db0cfe63f6cf9f5c",
                "label": "Town Star: Token"
            },
            {
                "address": "0x0000000000000000000000000000000000000001",
                "label": "Precompiled"
            },
            {
                "address": "0x0000000000000000000000000000000000000003",
                "label": "Precompiled"
            },
            {
                "address": "0xeeeeeeeeeeeeeeeeeeeeeeeeeeeeeeeeeeeeeeee",
                "label": "Ether"
            },
            {
                "address": "0x5b3256965e7c3cf26e11fcaf296dfc8807c01073",
                "label": "OpenSea: Wallet"
            },
            {
                "address": "0xa5409ec958c83c3f309868babaca7c86dcb077c1",
                "label": "OpenSea: Registry"
            },
            {
                "address": "0xbaf2127b49fc93cbca6269fade0f7f31df4c88a7",
                "label": "MerkleValidator"
            }
        ]
    },
    "trace": {
        "accountLabels": null,
        "dataMap": {
            "-1": {
                "invocation": {
                    "address": "0xaa69479f8aa0065c8cf93e2b9c55ef7130d74936",
                    "callData": "",
                    "decodedMethod": null,
                    "errorInfo": "",
                    "fromAddress": "",
                    "gasUsed": 0,
                    "id": -1,
                    "methodDecoded": false,
                    "operation": "",
                    "output": "",
                    "revert": false,
                    "revertMessage": "",
                    "selector": "",
                    "status": false,
                    "value": ""
                },
                "nodeType": 0
            },
            "0": {
                "invocation": {
                    "address": "0x7f268357a8c2552623316e2562d90e642bb538e5",
                    "callData": "0x0000000000000000000000007f268357a8c2552623316e2562d90e642bb538e5000000000000000000000000aa69479f8aa0065c8cf93e2b9c55ef7130d7493600000000000000000000000055254576f5bde073035e33812ba44704b004c3610000000000000000000000000000000000000000000000000000000000000000000000000000000000000000baf2127b49fc93cbca6269fade0f7f31df4c88a7000000000000000000000000000000000000000000000000000000000000000000000000000000000000000000000000000000000000000000000000000000000000000000000000000000007f268357a8c2552623316e2562d90e642bb538e500000000000000000000000055254576f5bde073035e33812ba44704b004c36100000000000000000000000000000000000000000000000000000000000000000000000000000000000000005b3256965e7c3cf26e11fcaf296dfc8807c01073000000000000000000000000baf2127b49fc93cbca6269fade0f7f31df4c88a70000000000000000000000000000000000000000000000000000000000000000000000000000000000000000000000000000000000000000000000000000000000000000000000000000000000000000000000000000000000000000000001f400000000000000000000000000000000000000000000000000000000000000000000000000000000000000000000000000000000000000000000000000000000000000000000000000000000000000000000000000000000000000000000000000000000000000000000000000000000000000000000000006eccddb2eeb8000000000000000000000000000000000000000000000000000000000000000000000000000000000000000000000000000000000000000000000000000626c4dad000000000000000000000000000000000000000000000000000000000000000017797a5e9f2a6c02b3b628f1da3dc832b84bdb6aac107cc62d51797bab30acc800000000000000000000000000000000000000000000000000000000000001f400000000000000000000000000000000000000000000000000000000000000000000000000000000000000000000000000000000000000000000000000000000000000000000000000000000000000000000000000000000000000000000000000000000000000000000000000000000000000000000000006eccddb2eeb8000000000000000000000000000000000000000000000000000000000000000000000000000000000000000000000000000000000000000000000000000626a991100000000000000000000000000000000000000000000000000000000626e8cc1868a19b5ddb09650c9f79512f912cc41a2ec37d256d6fcff747f27bd4e636c5c0000000000000000000000000000000000000000000000000000000000000001000000000000000000000000000000000000000000000000000000000000000000000000000000000000000000000000000000000000000000000000000000000000000000000000000000000000000000000000000000000000000000000001000000000000000000000000000000000000000000000000000000000000000100000000000000000000000000000000000000000000000000000000000000010000000000000000000000000000000000000000000000000000000000000000000000000000000000000000000000000000000000000000000000000000000100000000000000000000000000000000000000000000000000000000000006a000000000000000000000000000000000000000000000000000000000000007e000000000000000000000000000000000000000000000000000000000000009200000000000000000000000000000000000000000000000000000000000000a600000000000000000000000000000000000000000000000000000000000000ba00000000000000000000000000000000000000000000000000000000000000ba0000000000000000000000000000000000000000000000000000000000000001c000000000000000000000000000000000000000000000000000000000000001cfa5301822c9d98147842be111c4594312fd6c9a419af60492ed20729e1aea3a34e6b9cac1b39db0fc9f3fad8d4dcac99a9fbebd9376b8fad62ab3e1761d40cfefa5301822c9d98147842be111c4594312fd6c9a419af60492ed20729e1aea3a34e6b9cac1b39db0fc9f3fad8d4dcac99a9fbebd9376b8fad62ab3e1761d40cfe0000000000000000000000000000000000000000000000000000000000000000000000000000000000000000000000000000000000000000000000000000010496809f900000000000000000000000000000000000000000000000000000000000000000000000000000000000000000aa69479f8aa0065c8cf93e2b9c55ef7130d74936000000000000000000000000c36cf0cfcb5d905b8b513860db0cfe63f6cf9f5c000000000000000000000000000002c4000000000000000000000000000000000000000000000000000000000000000000000000000000000000000000000001000000000000000000000000000000000000000000000000000000000000000000000000000000000000000000000000000000000000000000000000000000e0000000000000000000000000000000000000000000000000000000000000000000000000000000000000000000000000000000000000000000000000000000000000000000000000000000000000000000000000000000000000010496809f9000000000000000000000000055254576f5bde073035e33812ba44704b004c3610000000000000000000000000000000000000000000000000000000000000000000000000000000000000000c36cf0cfcb5d905b8b513860db0cfe63f6cf9f5c000000000000000000000000000002c4000000000000000000000000000000000000000000000000000000000000000000000000000000000000000000000001000000000000000000000000000000000000000000000000000000000000000000000000000000000000000000000000000000000000000000000000000000e0000000000000000000000000000000000000000000000000000000000000000000000000000000000000000000000000000000000000000000000000000000000000000000000000000000000000000000000000000000000000010400000000ffffffffffffffffffffffffffffffffffffffffffffffffffffffffffffffff0000000000000000000000000000000000000000000000000000000000000000000000000000000000000000000000000000000000000000000000000000000000000000000000000000000000000000000000000000000000000000000000000000000000000000000000000000000000000000000000000000000000000000000000000000000000000000000000000000000000000000000000000000000000000000000000000000000000000000000000000000000000000000000000000000000000000000000000000000000000000000000000000000000000000000000000000000000000000000000000000000000000000000000000000000000000000000000000000000000000000000000000000000000000000104000000000000000000000000000000000000000000000000000000000000000000000000ffffffffffffffffffffffffffffffffffffffffffffffffffffffffffffffff000000000000000000000000000000000000000000000000000000000000000000000000000000000000000000000000000000000000000000000000000000000000000000000000000000000000000000000000000000000000000000000000000000000000000000000000000000000000000000000000000000000000000000000000000000000000000000000000000000000000000000000000000000000000000000000000000000000000000000000000000000000000000000000000000000000000000000000000000000000000000000000000000000000000000000000000000000000000000000000000000000000000000000000000",
                    "decodedMethod": {
                        "callParams": [
                            {
                                "name": "addrs",
                                "type": "address[14]",
                                "value": [
                                    "0x7f268357a8c2552623316e2562d90e642bb538e5",
                                    "0xaa69479f8aa0065c8cf93e2b9c55ef7130d74936",
                                    "0x55254576f5bde073035e33812ba44704b004c361",
                                    "0x0000000000000000000000000000000000000000",
                                    "0xbaf2127b49fc93cbca6269fade0f7f31df4c88a7",
                                    "0x0000000000000000000000000000000000000000",
                                    "0x0000000000000000000000000000000000000000",
                                    "0x7f268357a8c2552623316e2562d90e642bb538e5",
                                    "0x55254576f5bde073035e33812ba44704b004c361",
                                    "0x0000000000000000000000000000000000000000",
                                    "0x5b3256965e7c3cf26e11fcaf296dfc8807c01073",
                                    "0xbaf2127b49fc93cbca6269fade0f7f31df4c88a7",
                                    "0x0000000000000000000000000000000000000000",
                                    "0x0000000000000000000000000000000000000000"
                                ]
                            },
                            {
                                "name": "uints",
                                "type": "uint256[18]",
                                "value": [
                                    "500",
                                    "0",
                                    "0",
                                    "0",
                                    "499,000,000,000,000,000",
                                    "0",
                                    "1,651,264,941",
                                    "0",
                                    "10,617,828,576,304,712,336,830,205,896,075,380,790,764,437,386,686,536,873,709,891,456,967,822,585,032",
                                    "500",
                                    "0",
                                    "0",
                                    "0",
                                    "499,000,000,000,000,000",
                                    "0",
                                    "1,651,153,169",
                                    "1,651,412,161",
                                    "60,853,924,051,852,789,804,968,689,564,368,639,819,858,828,059,778,879,366,893,456,495,995,661,806,684"
                                ]
                            },
                            {
                                "name": "feeMethodsSidesKindsHowToCalls",
                                "type": "uint8[8]",
                                "value": [
                                    "1",
                                    "0",
                                    "0",
                                    "1",
                                    "1",
                                    "1",
                                    "0",
                                    "1"
                                ]
                            },
                            {
                                "name": "calldataBuy",
                                "type": "bytes",
                                "value": "0x96809f900000000000000000000000000000000000000000000000000000000000000000000000000000000000000000aa69479f8aa0065c8cf93e2b9c55ef7130d74936000000000000000000000000c36cf0cfcb5d905b8b513860db0cfe63f6cf9f5c000000000000000000000000000002c4000000000000000000000000000000000000000000000000000000000000000000000000000000000000000000000001000000000000000000000000000000000000000000000000000000000000000000000000000000000000000000000000000000000000000000000000000000e00000000000000000000000000000000000000000000000000000000000000000"
                            },
                            {
                                "name": "calldataSell",
                                "type": "bytes",
                                "value": "0x96809f9000000000000000000000000055254576f5bde073035e33812ba44704b004c3610000000000000000000000000000000000000000000000000000000000000000000000000000000000000000c36cf0cfcb5d905b8b513860db0cfe63f6cf9f5c000000000000000000000000000002c4000000000000000000000000000000000000000000000000000000000000000000000000000000000000000000000001000000000000000000000000000000000000000000000000000000000000000000000000000000000000000000000000000000000000000000000000000000e00000000000000000000000000000000000000000000000000000000000000000"
                            },
                            {
                                "name": "replacementPatternBuy",
                                "type": "bytes",
                                "value": "0x00000000ffffffffffffffffffffffffffffffffffffffffffffffffffffffffffffffff0000000000000000000000000000000000000000000000000000000000000000000000000000000000000000000000000000000000000000000000000000000000000000000000000000000000000000000000000000000000000000000000000000000000000000000000000000000000000000000000000000000000000000000000000000000000000000000000000000000000000000000000000000000000000000000000000000000000000000000000000000000000000000000000000000000000000000000000000000000000000000000000000000000000000000"
                            },
                            {
                                "name": "replacementPatternSell",
                                "type": "bytes",
                                "value": "0x000000000000000000000000000000000000000000000000000000000000000000000000ffffffffffffffffffffffffffffffffffffffffffffffffffffffffffffffff000000000000000000000000000000000000000000000000000000000000000000000000000000000000000000000000000000000000000000000000000000000000000000000000000000000000000000000000000000000000000000000000000000000000000000000000000000000000000000000000000000000000000000000000000000000000000000000000000000000000000000000000000000000000000000000000000000000000000000000000000000000000000000000000"
                            },
                            {
                                "name": "staticExtradataBuy",
                                "type": "bytes",
                                "value": "0x"
                            },
                            {
                                "name": "staticExtradataSell",
                                "type": "bytes",
                                "value": "0x"
                            },
                            {
                                "name": "vs",
                                "type": "uint8[2]",
                                "value": [
                                    "28",
                                    "28"
                                ]
                            },
                            {
                                "name": "rssMetadata",
                                "type": "bytes32[5]",
                                "value": [
                                    "0xfa5301822c9d98147842be111c4594312fd6c9a419af60492ed20729e1aea3a3",
                                    "0x4e6b9cac1b39db0fc9f3fad8d4dcac99a9fbebd9376b8fad62ab3e1761d40cfe",
                                    "0xfa5301822c9d98147842be111c4594312fd6c9a419af60492ed20729e1aea3a3",
                                    "0x4e6b9cac1b39db0fc9f3fad8d4dcac99a9fbebd9376b8fad62ab3e1761d40cfe",
                                    "0x0000000000000000000000000000000000000000000000000000000000000000"
                                ]
                            }
                        ],
                        "constructorArguments": "",
                        "name": "atomicMatch_",
                        "returnParams": [],
                        "signature": "atomicMatch_(address[14],uint256[18],uint8[8],bytes,bytes,bytes,bytes,bytes,bytes,uint8[2],bytes32[5])"
                    },
                    "errorInfo": "",
                    "fromAddress": "0xaa69479f8aa0065c8cf93e2b9c55ef7130d74936",
                    "gasUsed": 194307,
                    "id": 0,
                    "methodDecoded": true,
                    "operation": "CALL",
                    "output": "",
                    "revert": false,
                    "revertMessage": "",
                    "selector": "0xab834bab",
                    "status": true,
                    "value": "0.499"
                },
                "nodeType": 0
            },
            "1": {
                "invocation": {
                    "address": "0x0000000000000000000000000000000000000001",
                    "callData": "0x4774b2cd4edd7975636b1fafeb7bcde5ab3ec1919b3788d19e180d95000000000000000000000000000000000000000000000000000000000000001cfa5301822c9d98147842be111c4594312fd6c9a419af60492ed20729e1aea3a34e6b9cac1b39db0fc9f3fad8d4dcac99a9fbebd9376b8fad62ab3e1761d40cfe",
                    "decodedMethod": {
                        "callParams": [
                            {
                                "name": "hash",
                                "type": "bytes32",
                                "value": "0x6e1e8f284774b2cd4edd7975636b1fafeb7bcde5ab3ec1919b3788d19e180d95"
                            },
                            {
                                "name": "v",
                                "type": "uint256",
                                "value": "28"
                            },
                            {
                                "name": "r",
                                "type": "bytes32",
                                "value": "0xfa5301822c9d98147842be111c4594312fd6c9a419af60492ed20729e1aea3a3"
                            },
                            {
                                "name": "s",
                                "type": "bytes32",
                                "value": "0x4e6b9cac1b39db0fc9f3fad8d4dcac99a9fbebd9376b8fad62ab3e1761d40cfe"
                            }
                        ],
                        "constructorArguments": "",
                        "name": "ecrecover",
                        "returnParams": [
                            {
                                "name": "",
                                "type": "address",
                                "value": "0x55254576f5bde073035e33812ba44704b004c361"
                            }
                        ],
                        "signature": "ecrecover(bytes32,uint256,bytes32,bytes32)"
                    },
                    "errorInfo": "",
                    "fromAddress": "0x7f268357a8c2552623316e2562d90e642bb538e5",
                    "gasUsed": 3000,
                    "id": 1,
                    "methodDecoded": true,
                    "operation": "CALL",
                    "output": "0x00000000000000000000000055254576f5bde073035e33812ba44704b004c361",
                    "revert": false,
                    "revertMessage": "",
                    "selector": "0x6e1e8f28",
                    "status": true,
                    "value": "0"
                },
                "nodeType": 0
            },
            "10": {
                "invocation": {
                    "address": "0xbaf2127b49fc93cbca6269fade0f7f31df4c88a7",
                    "callData": "0x00000000000000000000000055254576f5bde073035e33812ba44704b004c361000000000000000000000000aa69479f8aa0065c8cf93e2b9c55ef7130d74936000000000000000000000000c36cf0cfcb5d905b8b513860db0cfe63f6cf9f5c000000000000000000000000000002c4000000000000000000000000000000000000000000000000000000000000000000000000000000000000000000000001000000000000000000000000000000000000000000000000000000000000000000000000000000000000000000000000000000000000000000000000000000e0000000000000000000000000000000000000000000000000000000000000000000000000000000000000000000000000000000000000000000000000",
                    "decodedMethod": {
                        "callParams": [
                            {
                                "name": "from",
                                "type": "address",
                                "value": "0x55254576f5bde073035e33812ba44704b004c361"
                            },
                            {
                                "name": "to",
                                "type": "address",
                                "value": "0xaa69479f8aa0065c8cf93e2b9c55ef7130d74936"
                            },
                            {
                                "name": "token",
                                "type": "address",
                                "value": "0xc36cf0cfcb5d905b8b513860db0cfe63f6cf9f5c"
                            },
                            {
                                "name": "tokenId",
                                "type": "uint256",
                                "value": "240,919,915,780,024,432,132,069,222,061,691,893,710,848"
                            },
                            {
                                "name": "amount",
                                "type": "uint256",
                                "value": "1"
                            },
                            {
                                "name": "root",
                                "type": "bytes32",
                                "value": "0x0000000000000000000000000000000000000000000000000000000000000000"
                            },
                            {
                                "name": "proof",
                                "type": "bytes32[]",
                                "value": []
                            }
                        ],
                        "constructorArguments": "",
                        "name": "matchERC1155UsingCriteria",
                        "returnParams": [
                            {
                                "name": "",
                                "type": "bool",
                                "value": true
                            }
                        ],
                        "signature": "matchERC1155UsingCriteria(address,address,address,uint256,uint256,bytes32,bytes32[])"
                    },
                    "errorInfo": "",
                    "fromAddress": "0x0c76af49264e90ab9eab4a7a817e2dacf2ab8211",
                    "gasUsed": 37419,
                    "id": 10,
                    "methodDecoded": true,
                    "operation": "DELEGATECALL",
                    "output": "0x0000000000000000000000000000000000000000000000000000000000000001",
                    "revert": false,
                    "revertMessage": "",
                    "selector": "0x96809f90",
                    "status": true,
                    "value": "0"
                },
                "nodeType": 0
            },
            "11": {
                "invocation": {
                    "address": "0xc36cf0cfcb5d905b8b513860db0cfe63f6cf9f5c",
                    "callData": "0x00000000000000000000000055254576f5bde073035e33812ba44704b004c361000000000000000000000000aa69479f8aa0065c8cf93e2b9c55ef7130d74936000000000000000000000000000002c400000000000000000000000000000000000000000000000000000000000000000000000000000000000000000000000100000000000000000000000000000000000000000000000000000000000000a00000000000000000000000000000000000000000000000000000000000000000",
                    "decodedMethod": {
                        "callParams": [
                            {
                                "name": "_from",
                                "type": "address",
                                "value": "0x55254576f5bde073035e33812ba44704b004c361"
                            },
                            {
                                "name": "_to",
                                "type": "address",
                                "value": "0xaa69479f8aa0065c8cf93e2b9c55ef7130d74936"
                            },
                            {
                                "name": "_id",
                                "type": "uint256",
                                "value": "240,919,915,780,024,432,132,069,222,061,691,893,710,848"
                            },
                            {
                                "name": "_value",
                                "type": "uint256",
                                "value": "1"
                            },
                            {
                                "name": "_data",
                                "type": "bytes",
                                "value": "0x"
                            }
                        ],
                        "constructorArguments": "",
                        "name": "safeTransferFrom",
                        "returnParams": [],
                        "signature": "safeTransferFrom(address,address,uint256,uint256,bytes)"
                    },
                    "errorInfo": "",
                    "fromAddress": "0x0c76af49264e90ab9eab4a7a817e2dacf2ab8211",
                    "gasUsed": 33551,
                    "id": 11,
                    "methodDecoded": true,
                    "operation": "CALL",
                    "output": "",
                    "revert": false,
                    "revertMessage": "",
                    "selector": "0xf242432a",
                    "status": true,
                    "value": "0"
                },
                "nodeType": 0
            },
            "12": {
                "event": {
                    "contract": "0xc36cf0cfcb5d905b8b513860db0cfe63f6cf9f5c",
                    "decodedLog": {
                        "name": "TransferSingle",
                        "params": [
                            {
                                "name": "_operator",
                                "type": "address",
                                "value": "0x0c76af49264e90ab9eab4a7a817e2dacf2ab8211"
                            },
                            {
                                "name": "_from",
                                "type": "address",
                                "value": "0x55254576f5bde073035e33812ba44704b004c361"
                            },
                            {
                                "name": "_to",
                                "type": "address",
                                "value": "0xaa69479f8aa0065c8cf93e2b9c55ef7130d74936"
                            },
                            {
                                "name": "_id",
                                "type": "uint256",
                                "value": "240,919,915,780,024,432,132,069,222,061,691,893,710,848"
                            },
                            {
                                "name": "_value",
                                "type": "uint256",
                                "value": "1"
                            }
                        ],
                        "signature": "TransferSingle(address,address,address,uint256,uint256)"
                    },
                    "id": 12,
                    "logData": "0x000000000000000000000000000002c4000000000000000000000000000000000000000000000000000000000000000000000000000000000000000000000001",
                    "logDecoded": true,
                    "operation": "EVENT",
                    "revert": false,
                    "status": true,
                    "topics": [
                        "0xc3d58168c5ae7397731d063d5bbf3d657854427343f4c083240f7aacaa2d0f62",
                        "0x0000000000000000000000000c76af49264e90ab9eab4a7a817e2dacf2ab8211",
                        "0x00000000000000000000000055254576f5bde073035e33812ba44704b004c361",
                        "0x000000000000000000000000aa69479f8aa0065c8cf93e2b9c55ef7130d74936"
                    ]
                },
                "nodeType": 1
            },
            "13": {
                "event": {
                    "contract": "0x7f268357a8c2552623316e2562d90e642bb538e5",
                    "decodedLog": {
                        "name": "OrdersMatched",
                        "params": [
                            {
                                "name": "maker",
                                "type": "address",
                                "value": "0x55254576f5bde073035e33812ba44704b004c361"
                            },
                            {
                                "name": "taker",
                                "type": "address",
                                "value": "0xaa69479f8aa0065c8cf93e2b9c55ef7130d74936"
                            },
                            {
                                "name": "metadata",
                                "type": "bytes32",
                                "value": "0x0000000000000000000000000000000000000000000000000000000000000000"
                            },
                            {
                                "name": "buyHash",
                                "type": "bytes32",
                                "value": "0x0000000000000000000000000000000000000000000000000000000000000000"
                            },
                            {
                                "name": "sellHash",
                                "type": "bytes32",
                                "value": "0x6e1e8f284774b2cd4edd7975636b1fafeb7bcde5ab3ec1919b3788d19e180d95"
                            },
                            {
                                "name": "price",
                                "type": "uint256",
                                "value": "499,000,000,000,000,000"
                            }
                        ],
                        "signature": "OrdersMatched(bytes32,bytes32,address,address,uint256,bytes32)"
                    },
                    "id": 13,
                    "logData": "0x00000000000000000000000000000000000000000000000000000000000000006e1e8f284774b2cd4edd7975636b1fafeb7bcde5ab3ec1919b3788d19e180d9500000000000000000000000000000000000000000000000006eccddb2eeb8000",
                    "logDecoded": true,
                    "operation": "EVENT",
                    "revert": false,
                    "status": true,
                    "topics": [
                        "0xc4109843e0b7d514e4c093114b863f8e7d8d9a458c372cd51bfe526b588006c9",
                        "0x00000000000000000000000055254576f5bde073035e33812ba44704b004c361",
                        "0x000000000000000000000000aa69479f8aa0065c8cf93e2b9c55ef7130d74936",
                        "0x0000000000000000000000000000000000000000000000000000000000000000"
                    ]
                },
                "nodeType": 1
            },
            "2": {
                "invocation": {
                    "address": "0xa5409ec958c83c3f309868babaca7c86dcb077c1",
                    "callData": "0x00000000000000000000000055254576f5bde073035e33812ba44704b004c361",
                    "decodedMethod": {
                        "callParams": [
                            {
                                "name": "",
                                "type": "address",
                                "value": "0x55254576f5bde073035e33812ba44704b004c361"
                            }
                        ],
                        "constructorArguments": "",
                        "name": "proxies",
                        "returnParams": [
                            {
                                "name": "",
                                "type": "address",
                                "value": "0x0c76af49264e90ab9eab4a7a817e2dacf2ab8211"
                            }
                        ],
                        "signature": "proxies(address)"
                    },
                    "errorInfo": "",
                    "fromAddress": "0x7f268357a8c2552623316e2562d90e642bb538e5",
                    "gasUsed": 2782,
                    "id": 2,
                    "methodDecoded": true,
                    "operation": "CALL",
                    "output": "0x0000000000000000000000000c76af49264e90ab9eab4a7a817e2dacf2ab8211",
                    "revert": false,
                    "revertMessage": "",
                    "selector": "0xc4552791",
                    "status": true,
                    "value": "0"
                },
                "nodeType": 0
            },
            "3": {
                "invocation": {
                    "address": "0x5b3256965e7c3cf26e11fcaf296dfc8807c01073",
                    "callData": "0x",
                    "decodedMethod": null,
                    "errorInfo": "",
                    "fromAddress": "0x7f268357a8c2552623316e2562d90e642bb538e5",
                    "gasUsed": 0,
                    "id": 3,
                    "methodDecoded": false,
                    "operation": "CALL",
                    "output": "",
                    "revert": false,
                    "revertMessage": "",
                    "selector": "fallback",
                    "status": true,
                    "value": "0.02495"
                },
                "nodeType": 0
            },
            "4": {
                "invocation": {
                    "address": "0x55254576f5bde073035e33812ba44704b004c361",
                    "callData": "0x",
                    "decodedMethod": null,
                    "errorInfo": "",
                    "fromAddress": "0x7f268357a8c2552623316e2562d90e642bb538e5",
                    "gasUsed": 0,
                    "id": 4,
                    "methodDecoded": false,
                    "operation": "CALL",
                    "output": "",
                    "revert": false,
                    "revertMessage": "",
                    "selector": "fallback",
                    "status": true,
                    "value": "0.47405"
                },
                "nodeType": 0
            },
            "5": {
                "invocation": {
                    "address": "0xa5409ec958c83c3f309868babaca7c86dcb077c1",
                    "callData": "0x",
                    "decodedMethod": {
                        "callParams": [],
                        "constructorArguments": "",
                        "name": "delegateProxyImplementation",
                        "returnParams": [
                            {
                                "name": "",
                                "type": "address",
                                "value": "0xf9e266af4bca5890e2781812cc6a6e89495a79f2"
                            }
                        ],
                        "signature": "delegateProxyImplementation()"
                    },
                    "errorInfo": "",
                    "fromAddress": "0x7f268357a8c2552623316e2562d90e642bb538e5",
                    "gasUsed": 2613,
                    "id": 5,
                    "methodDecoded": true,
                    "operation": "CALL",
                    "output": "0x000000000000000000000000f9e266af4bca5890e2781812cc6a6e89495a79f2",
                    "revert": false,
                    "revertMessage": "",
                    "selector": "0x97204d8e",
                    "status": true,
                    "value": "0"
                },
                "nodeType": 0
            },
            "6": {
                "invocation": {
                    "address": "0x0c76af49264e90ab9eab4a7a817e2dacf2ab8211",
                    "callData": "0x",
                    "decodedMethod": {
                        "callParams": [],
                        "constructorArguments": "",
                        "name": "implementation",
                        "returnParams": [
                            {
                                "name": "",
                                "type": "address",
                                "value": "0xf9e266af4bca5890e2781812cc6a6e89495a79f2"
                            }
                        ],
                        "signature": "implementation()"
                    },
                    "errorInfo": "",
                    "fromAddress": "0x7f268357a8c2552623316e2562d90e642bb538e5",
                    "gasUsed": 2525,
                    "id": 6,
                    "methodDecoded": true,
                    "operation": "CALL",
                    "output": "0x000000000000000000000000f9e266af4bca5890e2781812cc6a6e89495a79f2",
                    "revert": false,
                    "revertMessage": "",
                    "selector": "0x5c60da1b",
                    "status": true,
                    "value": "0"
                },
                "nodeType": 0
            },
            "7": {
                "invocation": {
                    "address": "0x0c76af49264e90ab9eab4a7a817e2dacf2ab8211",
                    "callData": "0x000000000000000000000000baf2127b49fc93cbca6269fade0f7f31df4c88a700000000000000000000000000000000000000000000000000000000000000010000000000000000000000000000000000000000000000000000000000000060000000000000000000000000000000000000000000000000000000000000010496809f9000000000000000000000000055254576f5bde073035e33812ba44704b004c361000000000000000000000000aa69479f8aa0065c8cf93e2b9c55ef7130d74936000000000000000000000000c36cf0cfcb5d905b8b513860db0cfe63f6cf9f5c000000000000000000000000000002c4000000000000000000000000000000000000000000000000000000000000000000000000000000000000000000000001000000000000000000000000000000000000000000000000000000000000000000000000000000000000000000000000000000000000000000000000000000e0000000000000000000000000000000000000000000000000000000000000000000000000000000000000000000000000000000000000000000000000",
                    "decodedMethod": {
                        "callParams": [
                            {
                                "name": "dest",
                                "type": "address",
                                "value": "0xbaf2127b49fc93cbca6269fade0f7f31df4c88a7"
                            },
                            {
                                "name": "howToCall",
                                "type": "uint8",
                                "value": "1"
                            },
                            {
                                "name": "calldata",
                                "type": "bytes",
                                "value": "0x96809f9000000000000000000000000055254576f5bde073035e33812ba44704b004c361000000000000000000000000aa69479f8aa0065c8cf93e2b9c55ef7130d74936000000000000000000000000c36cf0cfcb5d905b8b513860db0cfe63f6cf9f5c000000000000000000000000000002c4000000000000000000000000000000000000000000000000000000000000000000000000000000000000000000000001000000000000000000000000000000000000000000000000000000000000000000000000000000000000000000000000000000000000000000000000000000e00000000000000000000000000000000000000000000000000000000000000000"
                            }
                        ],
                        "constructorArguments": "",
                        "name": "proxy",
                        "returnParams": [
                            {
                                "name": "result",
                                "type": "bool",
                                "value": true
                            }
                        ],
                        "signature": "proxy(address,uint8,bytes)"
                    },
                    "errorInfo": "",
                    "fromAddress": "0x7f268357a8c2552623316e2562d90e642bb538e5",
                    "gasUsed": 50022,
                    "id": 7,
                    "methodDecoded": true,
                    "operation": "CALL",
                    "output": "0x0000000000000000000000000000000000000000000000000000000000000001",
                    "revert": false,
                    "revertMessage": "",
                    "selector": "0x1b0f7ba9",
                    "status": true,
                    "value": "0"
                },
                "nodeType": 0
            },
            "8": {
                "invocation": {
                    "address": "0xf9e266af4bca5890e2781812cc6a6e89495a79f2",
                    "callData": "0x000000000000000000000000baf2127b49fc93cbca6269fade0f7f31df4c88a700000000000000000000000000000000000000000000000000000000000000010000000000000000000000000000000000000000000000000000000000000060000000000000000000000000000000000000000000000000000000000000010496809f9000000000000000000000000055254576f5bde073035e33812ba44704b004c361000000000000000000000000aa69479f8aa0065c8cf93e2b9c55ef7130d74936000000000000000000000000c36cf0cfcb5d905b8b513860db0cfe63f6cf9f5c000000000000000000000000000002c4000000000000000000000000000000000000000000000000000000000000000000000000000000000000000000000001000000000000000000000000000000000000000000000000000000000000000000000000000000000000000000000000000000000000000000000000000000e0000000000000000000000000000000000000000000000000000000000000000000000000000000000000000000000000000000000000000000000000",
                    "decodedMethod": {
                        "callParams": [
                            {
                                "name": "dest",
                                "type": "address",
                                "value": "0xbaf2127b49fc93cbca6269fade0f7f31df4c88a7"
                            },
                            {
                                "name": "howToCall",
                                "type": "uint8",
                                "value": "1"
                            },
                            {
                                "name": "calldata",
                                "type": "bytes",
                                "value": "0x96809f9000000000000000000000000055254576f5bde073035e33812ba44704b004c361000000000000000000000000aa69479f8aa0065c8cf93e2b9c55ef7130d74936000000000000000000000000c36cf0cfcb5d905b8b513860db0cfe63f6cf9f5c000000000000000000000000000002c4000000000000000000000000000000000000000000000000000000000000000000000000000000000000000000000001000000000000000000000000000000000000000000000000000000000000000000000000000000000000000000000000000000000000000000000000000000e00000000000000000000000000000000000000000000000000000000000000000"
                            }
                        ],
                        "constructorArguments": "",
                        "name": "proxy",
                        "returnParams": [
                            {
                                "name": "result",
                                "type": "bool",
                                "value": true
                            }
                        ],
                        "signature": "proxy(address,uint8,bytes)"
                    },
                    "errorInfo": "",
                    "fromAddress": "0x0c76af49264e90ab9eab4a7a817e2dacf2ab8211",
                    "gasUsed": 46732,
                    "id": 8,
                    "methodDecoded": true,
                    "operation": "DELEGATECALL",
                    "output": "0x0000000000000000000000000000000000000000000000000000000000000001",
                    "revert": false,
                    "revertMessage": "",
                    "selector": "0x1b0f7ba9",
                    "status": true,
                    "value": "0"
                },
                "nodeType": 0
            },
            "9": {
                "invocation": {
                    "address": "0xa5409ec958c83c3f309868babaca7c86dcb077c1",
                    "callData": "0x0000000000000000000000007f268357a8c2552623316e2562d90e642bb538e5",
                    "decodedMethod": {
                        "callParams": [
                            {
                                "name": "",
                                "type": "address",
                                "value": "0x7f268357a8c2552623316e2562d90e642bb538e5"
                            }
                        ],
                        "constructorArguments": "",
                        "name": "contracts",
                        "returnParams": [
                            {
                                "name": "",
                                "type": "bool",
                                "value": true
                            }
                        ],
                        "signature": "contracts(address)"
                    },
                    "errorInfo": "",
                    "fromAddress": "0x0c76af49264e90ab9eab4a7a817e2dacf2ab8211",
                    "gasUsed": 2553,
                    "id": 9,
                    "methodDecoded": true,
                    "operation": "CALL",
                    "output": "0x0000000000000000000000000000000000000000000000000000000000000001",
                    "revert": false,
                    "revertMessage": "",
                    "selector": "0x69dc9ff3",
                    "status": true,
                    "value": "0"
                },
                "nodeType": 0
            }
        },
        "gasFlame": [
            {
                "children": [
                    {
                        "children": [
                            {
                                "children": [],
                                "depth": 0,
                                "name": "Initial Gas",
                                "value": 39924
                            },
                            {
                                "children": [
                                    {
                                        "children": [],
                                        "depth": 1,
                                        "name": "ecrecover",
                                        "value": 3000
                                    },
                                    {
                                        "children": [],
                                        "depth": 1,
                                        "name": "proxies",
                                        "value": 2782
                                    },
                                    {
                                        "children": [],
                                        "depth": 1,
                                        "name": "fallback",
                                        "value": 0
                                    },
                                    {
                                        "children": [],
                                        "depth": 1,
                                        "name": "fallback",
                                        "value": 0
                                    },
                                    {
                                        "children": [],
                                        "depth": 1,
                                        "name": "delegateProxyImplementation",
                                        "value": 2613
                                    },
                                    {
                                        "children": [],
                                        "depth": 1,
                                        "name": "implementation",
                                        "value": 2525
                                    },
                                    {
                                        "children": [
                                            {
                                                "children": [
                                                    {
                                                        "children": [],
                                                        "depth": 3,
                                                        "name": "contracts",
                                                        "value": 2553
                                                    },
                                                    {
                                                        "children": [
                                                            {
                                                                "children": [],
                                                                "depth": 4,
                                                                "name": "safeTransferFrom",
                                                                "value": 33551
                                                            }
                                                        ],
                                                        "depth": 3,
                                                        "name": "matchERC1155UsingCriteria",
                                                        "value": 37419
                                                    }
                                                ],
                                                "depth": 2,
                                                "name": "proxy",
                                                "value": 46732
                                            }
                                        ],
                                        "depth": 1,
                                        "name": "proxy",
                                        "value": 50022
                                    }
                                ],
                                "depth": 0,
                                "name": "Executed Gas",
                                "value": 161983
                            }
                        ],
                        "depth": -1,
                        "name": "Actual Gas Used",
                        "value": 194307
                    },
                    {
                        "children": [],
                        "depth": -1,
                        "name": "Refunded Gas",
                        "value": 7600
                    }
                ],
                "depth": -2,
                "name": "Total Gas",
                "value": 201907
            }
        ],
        "isConfirmed": true,
        "mainTrace": [
            {
                "children": [
                    {
                        "children": [
                            {
                                "children": [],
                                "depth": 1,
                                "id": 1,
                                "order": 1
                            },
                            {
                                "children": [],
                                "depth": 1,
                                "id": 2,
                                "order": 2
                            },
                            {
                                "children": [],
                                "depth": 1,
                                "id": 3,
                                "order": 3
                            },
                            {
                                "children": [],
                                "depth": 1,
                                "id": 4,
                                "order": 4
                            },
                            {
                                "children": [],
                                "depth": 1,
                                "id": 5,
                                "order": 5
                            },
                            {
                                "children": [],
                                "depth": 1,
                                "id": 6,
                                "order": 6
                            },
                            {
                                "children": [
                                    {
                                        "children": [
                                            {
                                                "children": [],
                                                "depth": 3,
                                                "id": 9,
                                                "order": 9
                                            },
                                            {
                                                "children": [
                                                    {
                                                        "children": [
                                                            {
                                                                "children": [],
                                                                "depth": 5,
                                                                "id": 12,
                                                                "order": 12
                                                            }
                                                        ],
                                                        "depth": 4,
                                                        "id": 11,
                                                        "order": 11
                                                    }
                                                ],
                                                "depth": 3,
                                                "id": 10,
                                                "order": 10
                                            }
                                        ],
                                        "depth": 2,
                                        "id": 8,
                                        "order": 8
                                    }
                                ],
                                "depth": 1,
                                "id": 7,
                                "order": 7
                            },
                            {
                                "children": [],
                                "depth": 1,
                                "id": 13,
                                "order": 13
                            }
                        ],
                        "depth": 0,
                        "id": 0,
                        "order": 0
                    }
                ],
                "depth": -1,
                "id": -1,
                "order": -1
            }
        ],
        "mainTraceNodeCount": 14,
        "parentIdMap": {
            "0": -1,
            "1": 0,
            "10": 8,
            "11": 10,
            "12": 11,
            "13": 0,
            "2": 0,
            "3": 0,
            "4": 0,
            "5": 0,
            "6": 0,
            "7": 0,
            "8": 7,
            "9": 8
        },
        "tidyTrace": [
            {
                "children": [
                    {
                        "children": [
                            {
                                "children": [],
                                "depth": 1,
                                "id": 1,
                                "order": 1
                            },
                            {
                                "children": [],
                                "depth": 1,
                                "id": 2,
                                "order": 2
                            },
                            {
                                "children": [],
                                "depth": 1,
                                "id": 3,
                                "order": 3
                            },
                            {
                                "children": [],
                                "depth": 1,
                                "id": 4,
                                "order": 4
                            },
                            {
                                "children": [],
                                "depth": 1,
                                "id": 5,
                                "order": 5
                            },
                            {
                                "children": [],
                                "depth": 1,
                                "id": 6,
                                "order": 6
                            },
                            {
                                "children": [
                                    {
                                        "children": [
                                            {
                                                "children": [],
                                                "depth": 3,
                                                "id": 9,
                                                "order": 9
                                            },
                                            {
                                                "children": [
                                                    {
                                                        "children": [
                                                            {
                                                                "children": [],
                                                                "depth": 5,
                                                                "id": 12,
                                                                "order": 12
                                                            }
                                                        ],
                                                        "depth": 4,
                                                        "id": 11,
                                                        "order": 11
                                                    }
                                                ],
                                                "depth": 3,
                                                "id": 10,
                                                "order": 10
                                            }
                                        ],
                                        "depth": 2,
                                        "id": 8,
                                        "order": 8
                                    }
                                ],
                                "depth": 1,
                                "id": 7,
                                "order": 7
                            },
                            {
                                "children": [],
                                "depth": 1,
                                "id": 13,
                                "order": 13
                            }
                        ],
                        "depth": 0,
                        "id": 0,
                        "order": 0
                    }
                ],
                "depth": -1,
                "id": -1,
                "order": -1
            }
        ],
        "tidyTraceNodeCount": 14
    },
    "state_change": {
        "stateChanges": [
            {
                "address": "0x7f268357a8c2552623316e2562d90e642bb538e5",
                "erc": "",
                "slots": [
                    {
                        "current": "0x0000000000000000000000000000000000000000000000000000000000000001",
                        "key": "0xab115fd5d94072dccab3ee7c6c14a091fb34795a2ebcce04b2a82f2d6103a6cb",
                        "prev": "0x0000000000000000000000000000000000000000000000000000000000000000"
                    }
                ],
                "storageVariables": [
                    {
                        "name": "cancelledOrFinalized",
                        "type": "mapping(bytes32 => bool)",
                        "value": {
                            "pairs": [
                                {
                                    "key": "0x6e1e8f284774b2cd4edd7975636b1fafeb7bcde5ab3ec1919b3788d19e180d95",
                                    "value": {
                                        "current": "true",
                                        "prev": "false",
                                        "typeTag": 1
                                    }
                                }
                            ],
                            "typeTag": 4
                        }
                    }
                ]
            },
            {
                "address": "0xc36cf0cfcb5d905b8b513860db0cfe63f6cf9f5c",
                "erc": "ERC-1155",
                "slots": [
                    {
                        "current": "0x0000000000000000000000000000000000000000000000000000000000000001",
                        "key": "0xff35081e87d34e1dd321a9de316bd7f530d5020a839b316ee80d13527b3db2e1",
                        "prev": "0x0000000000000000000000000000000000000000000000000000000000000000"
                    },
                    {
                        "current": "0x0000000000000000000000000000000000000000000000000000000000000000",
                        "key": "0x3648bcc798a58a21298bef2815277605d984a7a7cb08b6e1e45a76a916ec1c3b",
                        "prev": "0x0000000000000000000000000000000000000000000000000000000000000001"
                    }
                ],
                "storageVariables": [
                    {
                        "name": "balances",
                        "type": "mapping(uint256 => mapping(address => uint256))",
                        "value": {
                            "pairs": [
                                {
                                    "key": "240919915780024432132069222061691893710848",
                                    "value": {
                                        "pairs": [
                                            {
                                                "key": "0x55254576f5bde073035e33812ba44704b004c361",
                                                "value": {
                                                    "current": "0",
                                                    "prev": "1",
                                                    "typeTag": 1
                                                }
                                            },
                                            {
                                                "key": "0xaa69479f8aa0065c8cf93e2b9c55ef7130d74936",
                                                "value": {
                                                    "current": "1",
                                                    "prev": "0",
                                                    "typeTag": 1
                                                }
                                            }
                                        ],
                                        "typeTag": 4
                                    }
                                }
                            ],
                            "typeTag": 4
                        }
                    }
                ]
            }
        ]
    }
}