{
    "balance_change": {
        "balanceChanges": [
            {
                "account": "0xa72729d22467c9d78ab1ca7740ba987f16d3d45b",
                "assets": [
                    {
                        "address": "0xd33526068d116ce69f19a9ee46f0bd304f21a51f",
                        "amount": "0.0001",
                        "iconUrl": "https://assets.blocksec.com/icon/ee8747c868d65183e438569370ddbe33611539e509a5118adab8193a583f40b2.png",
                        "isERC1155": false,
                        "isERC721": false,
                        "sign": false,
                        "value": "0.0041829999999999998296"
                    }
                ]
            },
            {
                "account": "0x929278346533520430b608fec070f9f874ca633d",
                "assets": [
                    {
                        "address": "0xd33526068d116ce69f19a9ee46f0bd304f21a51f",
                        "amount": "0.0001",
                        "iconUrl": "https://assets.blocksec.com/icon/ee8747c868d65183e438569370ddbe33611539e509a5118adab8193a583f40b2.png",
                        "isERC1155": false,
                        "isERC721": false,
                        "sign": true,
                        "value": "0.0041829999999999998296"
                    }
                ]
            }
        ]
    },
    "profile": {
        "basic_info": {
            "baseFee": "18.471784868",
            "blockNumber": 16745760,
            "callData": "0xa9059cbb000000000000000000000000929278346533520430b608fec070f9f874ca633d00000000000000000000000000000000000000000000000000005af3107a4000",
            "debugEnable": true,
            "errorInfo": "",
            "eventCount": 1,
            "feeRecipient": "0x5f927395213ee6b95de97bddcb1b2b1c0f16844f",
            "formatValue": "0",
            "gasLimit": 77388,
            "gasPrice": "18.971784868",
            "gasUsed": 51592,
            "intTxnCount": 0,
            "internalRevert": false,
            "internalRevertMessage": "",
            "isContractCreation": false,
            "isFlashloan": false,
            "maxFee": "26.818125379",
            "nonce": 78,
            "overwritedBlockNumber": -1,
            "priorityFee": "0.5",
            "receiver": "0xd33526068d116ce69f19a9ee46f0bd304f21a51f",
            "revertMessage": "",
            "sender": "0xa72729d22467c9d78ab1ca7740ba987f16d3d45b",
            "simulationEnable": true,
            "sourceTxnHash": "0xf321010ee51975a4884baf3bbf71558a4d354d3e26d6a02095f1316b9a596078",
            "status": true,
            "timestamp": "2023-03-03T04:59:23Z",
            "transactionFee": "0.000978792324909856",
            "txnHash": "0xf321010ee51975a4884baf3bbf71558a4d354d3e26d6a02095f1316b9a596078",
            "txnIndex": 108,
            "type": 2,
            "value": "0"
        },
        "fund_flow": [
            {
                "amount": "0.0001",
                "from": "0xa72729d22467c9d78ab1ca7740ba987f16d3d45b",
                "id": 1,
                "isERC1155": false,
                "isERC721": false,
                "isReverted": false,
                "order": 1,
                "to": "0x929278346533520430b608fec070f9f874ca633d",
                "token": "0xd33526068d116ce69f19a9ee46f0bd304f21a51f"
            }
        ],
        "token_infos": [
            {
                "address": "0xeeeeeeeeeeeeeeeeeeeeeeeeeeeeeeeeeeeeeeee",
                "decimals": 18
            },
            {
                "address": "0xc02aaa39b223fe8d0a0e5c4f27ead9083c756cc2",
                "decimals": 18
            },
            {
                "address": "0xd33526068d116ce69f19a9ee46f0bd304f21a51f",
                "decimals": 18
            }
        ]
    },
    "address_label": {
        "labels": [
            {
                "address": "0xd33526068d116ce69f19a9ee46f0bd304f21a51f",
                "label": "Rocket Pool: RPL Token"
            },
            {
                "address": "0x0000000000000000000000000000000000000001",
                "label": "Precompiled"
            },
            {
                "address": "0x0000000000000000000000000000000000000002",
                "label": "Precompiled"
            },
            {
                "address": "0x0000000000000000000000000000000000000003",
                "label": "Precompiled"
            },
            {
                "address": "0x0000000000000000000000000000000000000004",
                "label": "Precompiled"
            },
            {
                "address": "0xeeeeeeeeeeeeeeeeeeeeeeeeeeeeeeeeeeeeeeee",
                "label": "Ether"
            }
        ]
    },
    "trace": {
        "accountLabels": null,
        "dataMap": {
            "-1": {
                "invocation": {
                    "address": "0xa72729d22467c9d78ab1ca7740ba987f16d3d45b",
                    "callData": "",
                    "decodedMethod": null,
                    "errorInfo": "",
                    "fromAddress": "",
                    "gasUsed": 0,
                    "id": -1,
                    "methodDecoded": false,
                    "operation": "",
                    "output": "",
                    "revert": false,
                    "revertMessage": "",
                    "selector": "",
                    "status": false,
                    "value": ""
                },
                "nodeType": 0
            },
            "0": {
                "invocation": {
                    "address": "0xd33526068d116ce69f19a9ee46f0bd304f21a51f",
                    "callData": "0x000000000000000000000000929278346533520430b608fec070f9f874ca633d00000000000000000000000000000000000000000000000000005af3107a4000",
                    "decodedMethod": {
                        "callParams": [
                            {
                                "name": "recipient",
                                "type": "address",
                                "value": "0x929278346533520430b608fec070f9f874ca633d"
                            },
                            {
                                "decimalAvailable": true,
                                "name": "amount",
                                "type": "uint256",
                                "value": "100,000,000,000,000"
                            }
                        ],
                        "constructorArguments": "",
                        "name": "transfer",
                        "returnParams": [
                            {
                                "name": "",
                                "type": "bool",
                                "value": true
                            }
                        ],
                        "signature": "transfer(address,uint256)"
                    },
                    "errorInfo": "",
                    "fromAddress": "0xa72729d22467c9d78ab1ca7740ba987f16d3d45b",
                    "gasUsed": 51592,
                    "id": 0,
                    "methodDecoded": true,
                    "operation": "CALL",
                    "output": "0x0000000000000000000000000000000000000000000000000000000000000001",
                    "revert": false,
                    "revertMessage": "",
                    "selector": "0xa9059cbb",
                    "status": true,
                    "value": "0"
                },
                "nodeType": 0
            },
            "1": {
                "event": {
                    "contract": "0xd33526068d116ce69f19a9ee46f0bd304f21a51f",
                    "decodedLog": {
                        "name": "Transfer",
                        "params": [
                            {
                                "name": "from",
                                "type": "address",
                                "value": "0xa72729d22467c9d78ab1ca7740ba987f16d3d45b"
                            },
                            {
                                "name": "to",
                                "type": "address",
                                "value": "0x929278346533520430b608fec070f9f874ca633d"
                            },
                            {
                                "decimalAvailable": true,
                                "name": "value",
                                "type": "uint256",
                                "value": "100,000,000,000,000"
                            }
                        ],
                        "signature": "Transfer(address,address,uint256)"
                    },
                    "id": 1,
                    "logData": "0x00000000000000000000000000000000000000000000000000005af3107a4000",
                    "logDecoded": true,
                    "operation": "EVENT",
                    "revert": false,
                    "status": true,
                    "topics": [
                        "0xddf252ad1be2c89b69c2b068fc378daa952ba7f163c4a11628f55a4df523b3ef",
                        "0x000000000000000000000000a72729d22467c9d78ab1ca7740ba987f16d3d45b",
                        "0x000000000000000000000000929278346533520430b608fec070f9f874ca633d"
                    ]
                },
                "nodeType": 1
            }
        },
        "gasFlame": [
            {
                "children": [
                    {
                        "children": [
                            {
                                "children": [],
                                "depth": 0,
                                "name": "Initial Gas",
                                "value": 21620
                            },
                            {
                                "children": [],
                                "depth": 0,
                                "name": "Executed Gas",
                                "value": 29972
                            }
                        ],
                        "depth": -1,
                        "name": "Actual Gas Used",
                        "value": 51592
                    },
                    {
                        "children": [],
                        "depth": -1,
                        "name": "Refunded Gas",
                        "value": 0
                    }
                ],
                "depth": -2,
                "name": "Total Gas",
                "value": 51592
            }
        ],
        "isConfirmed": true,
        "mainTrace": [
            {
                "children": [
                    {
                        "children": [
                            {
                                "children": [],
                                "depth": 1,
                                "id": 1,
                                "order": 1
                            }
                        ],
                        "depth": 0,
                        "id": 0,
                        "order": 0
                    }
                ],
                "depth": -1,
                "id": -1,
                "order": -1
            }
        ],
        "mainTraceNodeCount": 2,
        "parentIdMap": {
            "0": -1,
            "1": 0
        },
        "tidyTrace": [
            {
                "children": [
                    {
                        "children": [
                            {
                                "children": [],
                                "depth": 1,
                                "id": 1,
                                "order": 1
                            }
                        ],
                        "depth": 0,
                        "id": 0,
                        "order": 0
                    }
                ],
                "depth": -1,
                "id": -1,
                "order": -1
            }
        ],
        "tidyTraceNodeCount": 2
    },
    "state_change": {
        "stateChanges": [
            {
                "address": "0xd33526068d116ce69f19a9ee46f0bd304f21a51f",
                "erc": "ERC-20",
                "slots": [
                    {
                        "current": "0x00000000000000000000000000000000000000000000000000005af3107a4000",
                        "key": "0x84768f3b42dd282d17c4ea37e1047a34bb630f71dca9a9d2ff54aa078cc6d88f",
                        "prev": "0x0000000000000000000000000000000000000000000000000000000000000000"
                    },
                    {
                        "current": "0x00000000000000000000000000000000000000000000000619979464c11e0291",
                        "key": "0xf77516bda83e556229e10cd3ad5fc6bd32f1eb64f47b72c3c6dc48111c58ee37",
                        "prev": "0x0000000000000000000000000000000000000000000000061997ef57d1984291"
                    }
                ],
                "storageVariables": [
                    {
                        "name": "_balances",
                        "type": "mapping(address => uint256)",
                        "value": {
                            "pairs": [
                                {
                                    "key": "0x929278346533520430b608fec070f9f874ca633d",
                                    "value": {
                                        "current": "100000000000000",
                                        "prev": "0",
                                        "typeTag": 1
                                    }
                                },
                                {
                                    "key": "0xa72729d22467c9d78ab1ca7740ba987f16d3d45b",
                                    "value": {
                                        "current": "112524570175146427025",
                                        "prev": "112524670175146427025",
                                        "typeTag": 1
                                    }
                                }
                            ],
                            "typeTag": 4
                        }
                    }
                ]
            }
        ]
    }
}