{
    "balance_change": {
        "balanceChanges": [
            {
                "account": "0x1cbdd8336800dc3fe27daf5fb5188f0502ac1fc7",
                "assets": [
                    {
                        "address": "0xcadb96858fe496bb6309622f9023ba2defb5d540",
                        "amount": "82.7555",
                        "iconUrl": "",
                        "isERC1155": false,
                        "isERC721": false,
                        "sign": false,
                        "value": ""
                    }
                ]
            },
            {
                "account": "0xb1a641c61bdb62b7251d7509a60e1e2f4964cb25",
                "assets": [
                    {
                        "address": "0xcadb96858fe496bb6309622f9023ba2defb5d540",
                        "amount": "82.7555",
                        "iconUrl": "",
                        "isERC1155": false,
                        "isERC721": false,
                        "sign": true,
                        "value": ""
                    }
                ]
            }
        ]
    },
    "profile": {
        "basic_info": {
            "baseFee": "",
            "blockNumber": 10866665,
            "callData": "0xa9059cbb000000000000000000000000b1a641c61bdb62b7251d7509a60e1e2f4964cb250000000000000000000000000000000000000000000000047c7698cae5d6c000",
            "debugEnable": true,
            "errorInfo": "",
            "eventCount": 1,
            "feeRecipient": "0x45ddbabcf2cce1aadbd04f5b8745579f3aa2949c",
            "formatValue": "0",
            "gasLimit": 38841,
            "gasPrice": "195",
            "gasUsed": 38841,
            "intTxnCount": 0,
            "internalRevert": false,
            "internalRevertMessage": "",
            "isContractCreation": false,
            "isFlashloan": false,
            "maxFee": "",
            "nonce": 298537,
            "overwritedBlockNumber": -1,
            "priorityFee": "",
            "receiver": "0xcadb96858fe496bb6309622f9023ba2defb5d540",
            "revertMessage": "",
            "sender": "0x1cbdd8336800dc3fe27daf5fb5188f0502ac1fc7",
            "simulationEnable": true,
            "sourceTxnHash": "0xf392974be3b785af10561d40ce5d600622b26452f65a2d1e5405d16008133122",
            "status": true,
            "timestamp": "2020-09-15T12:38:00Z",
            "transactionFee": "0.007573995",
            "txnHash": "0xf392974be3b785af10561d40ce5d600622b26452f65a2d1e5405d16008133122",
            "txnIndex": 36,
            "type": 0,
            "value": "0"
        },
        "fund_flow": [
            {
                "amount": "82.7555",
                "from": "0x1cbdd8336800dc3fe27daf5fb5188f0502ac1fc7",
                "id": 1,
                "isERC1155": false,
                "isERC721": false,
                "isReverted": false,
                "order": 1,
                "to": "0xb1a641c61bdb62b7251d7509a60e1e2f4964cb25",
                "token": "0xcadb96858fe496bb6309622f9023ba2defb5d540"
            }
        ],
        "token_infos": [
            {
                "address": "0xc02aaa39b223fe8d0a0e5c4f27ead9083c756cc2",
                "decimals": 18
            },
            {
                "address": "0xcadb96858fe496bb6309622f9023ba2defb5d540",
                "decimals": 18
            },
            {
                "address": "0xeeeeeeeeeeeeeeeeeeeeeeeeeeeeeeeeeeeeeeee",
                "decimals": 18
            }
        ]
    },
    "address_label": {
        "labels": [
            {
                "address": "0xeeeeeeeeeeeeeeeeeeeeeeeeeeeeeeeeeeeeeeee",
                "label": "Ether"
            },
            {
                "address": "0xcadb96858fe496bb6309622f9023ba2defb5d540",
                "label": "SBToken (SBC)"
            },
            {
                "address": "0x0000000000000000000000000000000000000001",
                "label": "Precompiled"
            },
            {
                "address": "0x0000000000000000000000000000000000000002",
                "label": "Precompiled"
            },
            {
                "address": "0x0000000000000000000000000000000000000003",
                "label": "Precompiled"
            },
            {
                "address": "0x0000000000000000000000000000000000000004",
                "label": "Precompiled"
            }
        ]
    },
    "trace": {
        "accountLabels": null,
        "dataMap": {
            "-1": {
                "invocation": {
                    "address": "0x1cbdd8336800dc3fe27daf5fb5188f0502ac1fc7",
                    "callData": "",
                    "decodedMethod": null,
                    "errorInfo": "",
                    "fromAddress": "",
                    "gasUsed": 0,
                    "id": -1,
                    "methodDecoded": false,
                    "operation": "",
                    "output": "",
                    "revert": false,
                    "revertMessage": "",
                    "selector": "",
                    "status": false,
                    "value": ""
                },
                "nodeType": 0
            },
            "0": {
                "invocation": {
                    "address": "0xcadb96858fe496bb6309622f9023ba2defb5d540",
                    "callData": "0x000000000000000000000000b1a641c61bdb62b7251d7509a60e1e2f4964cb250000000000000000000000000000000000000000000000047c7698cae5d6c000",
                    "decodedMethod": {
                        "callParams": [
                            {
                                "name": "_to",
                                "type": "address",
                                "value": "0xb1a641c61bdb62b7251d7509a60e1e2f4964cb25"
                            },
                            {
                                "decimalAvailable": true,
                                "name": "_value",
                                "type": "uint256",
                                "value": "82,755,500,000,000,000,000"
                            }
                        ],
                        "constructorArguments": "",
                        "name": "transfer",
                        "returnParams": [
                            {
                                "name": "success",
                                "type": "bool",
                                "value": true
                            }
                        ],
                        "signature": "transfer(address,uint256)"
                    },
                    "errorInfo": "",
                    "fromAddress": "0x1cbdd8336800dc3fe27daf5fb5188f0502ac1fc7",
                    "gasUsed": 38841,
                    "id": 0,
                    "methodDecoded": true,
                    "operation": "CALL",
                    "output": "0x0000000000000000000000000000000000000000000000000000000000000001",
                    "revert": false,
                    "revertMessage": "",
                    "selector": "0xa9059cbb",
                    "status": true,
                    "value": "0"
                },
                "nodeType": 0
            },
            "1": {
                "event": {
                    "contract": "0xcadb96858fe496bb6309622f9023ba2defb5d540",
                    "decodedLog": {
                        "name": "Transfer",
                        "params": [
                            {
                                "name": "_from",
                                "type": "address",
                                "value": "0x1cbdd8336800dc3fe27daf5fb5188f0502ac1fc7"
                            },
                            {
                                "name": "_to",
                                "type": "address",
                                "value": "0xb1a641c61bdb62b7251d7509a60e1e2f4964cb25"
                            },
                            {
                                "decimalAvailable": true,
                                "name": "_value",
                                "type": "uint256",
                                "value": "82,755,500,000,000,000,000"
                            }
                        ],
                        "signature": "Transfer(address,address,uint256)"
                    },
                    "id": 1,
                    "logData": "0x0000000000000000000000000000000000000000000000047c7698cae5d6c000",
                    "logDecoded": true,
                    "operation": "EVENT",
                    "revert": false,
                    "status": true,
                    "topics": [
                        "0xddf252ad1be2c89b69c2b068fc378daa952ba7f163c4a11628f55a4df523b3ef",
                        "0x0000000000000000000000001cbdd8336800dc3fe27daf5fb5188f0502ac1fc7",
                        "0x000000000000000000000000b1a641c61bdb62b7251d7509a60e1e2f4964cb25"
                    ]
                },
                "nodeType": 1
            }
        },
        "gasFlame": [
            {
                "children": [
                    {
                        "children": [
                            {
                                "children": [],
                                "depth": 0,
                                "name": "Initial Gas",
                                "value": 21656
                            },
                            {
                                "children": [],
                                "depth": 0,
                                "name": "Executed Gas",
                                "value": 17185
                            }
                        ],
                        "depth": -1,
                        "name": "Actual Gas Used",
                        "value": 38841
                    },
                    {
                        "children": [],
                        "depth": -1,
                        "name": "Refunded Gas",
                        "value": 0
                    }
                ],
                "depth": -2,
                "name": "Total Gas",
                "value": 38841
            }
        ],
        "isConfirmed": true,
        "mainTrace": [
            {
                "children": [
                    {
                        "children": [
                            {
                                "children": [],
                                "depth": 1,
                                "id": 1,
                                "order": 1
                            }
                        ],
                        "depth": 0,
                        "id": 0,
                        "order": 0
                    }
                ],
                "depth": -1,
                "id": -1,
                "order": -1
            }
        ],
        "mainTraceNodeCount": 2,
        "parentIdMap": {
            "0": -1,
            "1": 0
        },
        "tidyTrace": [
            {
                "children": [
                    {
                        "children": [
                            {
                                "children": [],
                                "depth": 1,
                                "id": 1,
                                "order": 1
                            }
                        ],
                        "depth": 0,
                        "id": 0,
                        "order": 0
                    }
                ],
                "depth": -1,
                "id": -1,
                "order": -1
            }
        ],
        "tidyTraceNodeCount": 2
    },
    "state_change": {
        "stateChanges": [
            {
                "address": "0xcadb96858fe496bb6309622f9023ba2defb5d540",
                "erc": "ERC-20",
                "slots": [
                    {
                        "current": "0x00000000000000000000000000000000000000000000025f9211309dc4414000",
                        "key": "0x17b4bea25a42fc19e853f936a3ccea433ae84e68256feaad04e843731fb1db9b",
                        "prev": "0x00000000000000000000000000000000000000000000025b159a97d2de6a8000"
                    },
                    {
                        "current": "0x0000000000000000000000000000000000000000000708d6e6a353c28076f000",
                        "key": "0x98320217a72018607c7c19741fed1008bdf674d5247713f41cefd511821d1427",
                        "prev": "0x0000000000000000000000000000000000000000000708db6319ec8d664db000"
                    }
                ],
                "storageVariables": [
                    {
                        "name": "balances",
                        "type": "mapping(address => uint256)",
                        "value": {
                            "pairs": [
                                {
                                    "key": "0x1cbdd8336800dc3fe27daf5fb5188f0502ac1fc7",
                                    "value": {
                                        "current": "8504223891616280000000000",
                                        "prev": "8504306647116280000000000",
                                        "typeTag": 1
                                    }
                                },
                                {
                                    "key": "0xb1a641c61bdb62b7251d7509a60e1e2f4964cb25",
                                    "value": {
                                        "current": "11207698900000000000000",
                                        "prev": "11124943400000000000000",
                                        "typeTag": 1
                                    }
                                }
                            ],
                            "typeTag": 4
                        }
                    }
                ]
            }
        ]
    }
}