{
    "balance_change": {
        "balanceChanges": [
            {
                "account": "0x47adbe55e1cdd3194c6efe8b2e0584f2dfe1c892",
                "assets": [
                    {
                        "address": "0x9064c91e51d7021a85ad96817e1432abf6624470",
                        "amount": "79,950",
                        "iconUrl": "",
                        "isERC1155": false,
                        "isERC721": false,
                        "sign": false,
                        "value": ""
                    }
                ]
            },
            {
                "account": "0x99fe5d6383289cdd56e54fc0baf7f67c957a8888",
                "assets": [
                    {
                        "address": "0x9064c91e51d7021a85ad96817e1432abf6624470",
                        "amount": "79,950",
                        "iconUrl": "",
                        "isERC1155": false,
                        "isERC721": false,
                        "sign": true,
                        "value": ""
                    }
                ]
            }
        ]
    },
    "profile": {
        "basic_info": {
            "baseFee": "",
            "blockNumber": 5256867,
            "callData": "0xa9059cbb00000000000000000000000099fe5d6383289cdd56e54fc0baf7f67c957a88880000000000000000000000000000000000000000000010ee19229ebee0780000",
            "debugEnable": true,
            "errorInfo": "",
            "eventCount": 1,
            "feeRecipient": "0x2b128ba01b39209b972faf23e956405b4189da2e",
            "formatValue": "0",
            "gasLimit": 66666,
            "gasPrice": "66",
            "gasUsed": 23419,
            "intTxnCount": 0,
            "internalRevert": false,
            "internalRevertMessage": "",
            "isContractCreation": false,
            "isFlashloan": false,
            "maxFee": "",
            "nonce": 52,
            "overwritedBlockNumber": -1,
            "priorityFee": "",
            "receiver": "0x9064c91e51d7021a85ad96817e1432abf6624470",
            "revertMessage": "",
            "sender": "0x47adbe55e1cdd3194c6efe8b2e0584f2dfe1c892",
            "simulationEnable": true,
            "sourceTxnHash": "0xf3f7b3d548315dca3bb65c3f7685be1aeaf3124f908df3af002b7ca4a47eeea8",
            "status": true,
            "timestamp": "2018-03-15T01:10:34Z",
            "transactionFee": "0.001545654",
            "txnHash": "0xf3f7b3d548315dca3bb65c3f7685be1aeaf3124f908df3af002b7ca4a47eeea8",
            "txnIndex": 1,
            "type": 0,
            "value": "0"
        },
        "fund_flow": [
            {
                "amount": "79,950",
                "from": "0x47adbe55e1cdd3194c6efe8b2e0584f2dfe1c892",
                "id": 1,
                "isERC1155": false,
                "isERC721": false,
                "isReverted": false,
                "order": 1,
                "to": "0x99fe5d6383289cdd56e54fc0baf7f67c957a8888",
                "token": "0x9064c91e51d7021a85ad96817e1432abf6624470"
            }
        ],
        "token_infos": [
            {
                "address": "0x9064c91e51d7021a85ad96817e1432abf6624470",
                "decimals": 18
            },
            {
                "address": "0xc02aaa39b223fe8d0a0e5c4f27ead9083c756cc2",
                "decimals": 18
            },
            {
                "address": "0xeeeeeeeeeeeeeeeeeeeeeeeeeeeeeeeeeeeeeeee",
                "decimals": 18
            }
        ]
    },
    "address_label": {
        "labels": [
            {
                "address": "0x99fe5d6383289cdd56e54fc0baf7f67c957a8888",
                "label": "HTX 42"
            },
            {
                "address": "0x9064c91e51d7021a85ad96817e1432abf6624470",
                "label": "ShineChain Token"
            },
            {
                "address": "0x0000000000000000000000000000000000000001",
                "label": "Precompiled"
            },
            {
                "address": "0x0000000000000000000000000000000000000002",
                "label": "Precompiled"
            },
            {
                "address": "0x0000000000000000000000000000000000000003",
                "label": "Precompiled"
            },
            {
                "address": "0x0000000000000000000000000000000000000004",
                "label": "Precompiled"
            },
            {
                "address": "0xeeeeeeeeeeeeeeeeeeeeeeeeeeeeeeeeeeeeeeee",
                "label": "Ether"
            }
        ]
    },
    "trace": {
        "accountLabels": null,
        "dataMap": {
            "-1": {
                "invocation": {
                    "address": "0x47adbe55e1cdd3194c6efe8b2e0584f2dfe1c892",
                    "callData": "",
                    "decodedMethod": null,
                    "errorInfo": "",
                    "fromAddress": "",
                    "gasUsed": 0,
                    "id": -1,
                    "methodDecoded": false,
                    "operation": "",
                    "output": "",
                    "revert": false,
                    "revertMessage": "",
                    "selector": "",
                    "status": false,
                    "value": ""
                },
                "nodeType": 0
            },
            "0": {
                "invocation": {
                    "address": "0x9064c91e51d7021a85ad96817e1432abf6624470",
                    "callData": "0x00000000000000000000000099fe5d6383289cdd56e54fc0baf7f67c957a88880000000000000000000000000000000000000000000010ee19229ebee0780000",
                    "decodedMethod": {
                        "callParams": [
                            {
                                "name": "_to",
                                "type": "address",
                                "value": "0x99fe5d6383289cdd56e54fc0baf7f67c957a8888"
                            },
                            {
                                "decimalAvailable": true,
                                "name": "_value",
                                "type": "uint256",
                                "value": "79,950,000,000,000,000,000,000"
                            }
                        ],
                        "constructorArguments": "",
                        "name": "transfer",
                        "returnParams": [],
                        "signature": "transfer(address,uint256)"
                    },
                    "errorInfo": "",
                    "fromAddress": "0x47adbe55e1cdd3194c6efe8b2e0584f2dfe1c892",
                    "gasUsed": 23419,
                    "id": 0,
                    "methodDecoded": true,
                    "operation": "CALL",
                    "output": "",
                    "revert": false,
                    "revertMessage": "",
                    "selector": "0xa9059cbb",
                    "status": true,
                    "value": "0"
                },
                "nodeType": 0
            },
            "1": {
                "event": {
                    "contract": "0x9064c91e51d7021a85ad96817e1432abf6624470",
                    "decodedLog": {
                        "name": "Transfer",
                        "params": [
                            {
                                "name": "from",
                                "type": "address",
                                "value": "0x47adbe55e1cdd3194c6efe8b2e0584f2dfe1c892"
                            },
                            {
                                "name": "to",
                                "type": "address",
                                "value": "0x99fe5d6383289cdd56e54fc0baf7f67c957a8888"
                            },
                            {
                                "decimalAvailable": true,
                                "name": "value",
                                "type": "uint256",
                                "value": "79,950,000,000,000,000,000,000"
                            }
                        ],
                        "signature": "Transfer(address,address,uint256)"
                    },
                    "id": 1,
                    "logData": "0x0000000000000000000000000000000000000000000010ee19229ebee0780000",
                    "logDecoded": true,
                    "operation": "EVENT",
                    "revert": false,
                    "status": true,
                    "topics": [
                        "0xddf252ad1be2c89b69c2b068fc378daa952ba7f163c4a11628f55a4df523b3ef",
                        "0x00000000000000000000000047adbe55e1cdd3194c6efe8b2e0584f2dfe1c892",
                        "0x00000000000000000000000099fe5d6383289cdd56e54fc0baf7f67c957a8888"
                    ]
                },
                "nodeType": 1
            }
        },
        "gasFlame": [
            {
                "children": [
                    {
                        "children": [
                            {
                                "children": [],
                                "depth": 0,
                                "name": "Initial Gas",
                                "value": 23320
                            },
                            {
                                "children": [],
                                "depth": 0,
                                "name": "Executed Gas",
                                "value": 15099
                            }
                        ],
                        "depth": -1,
                        "name": "Actual Gas Used",
                        "value": 23419
                    },
                    {
                        "children": [],
                        "depth": -1,
                        "name": "Refunded Gas",
                        "value": 15000
                    }
                ],
                "depth": -2,
                "name": "Total Gas",
                "value": 38419
            }
        ],
        "isConfirmed": true,
        "mainTrace": [
            {
                "children": [
                    {
                        "children": [
                            {
                                "children": [],
                                "depth": 1,
                                "id": 1,
                                "order": 1
                            }
                        ],
                        "depth": 0,
                        "id": 0,
                        "order": 0
                    }
                ],
                "depth": -1,
                "id": -1,
                "order": -1
            }
        ],
        "mainTraceNodeCount": 2,
        "parentIdMap": {
            "0": -1,
            "1": 0
        },
        "tidyTrace": [
            {
                "children": [
                    {
                        "children": [
                            {
                                "children": [],
                                "depth": 1,
                                "id": 1,
                                "order": 1
                            }
                        ],
                        "depth": 0,
                        "id": 0,
                        "order": 0
                    }
                ],
                "depth": -1,
                "id": -1,
                "order": -1
            }
        ],
        "tidyTraceNodeCount": 2
    },
    "state_change": {
        "stateChanges": [
            {
                "address": "0x9064c91e51d7021a85ad96817e1432abf6624470",
                "erc": "",
                "slots": [
                    {
                        "current": "0x0000000000000000000000000000000000000000000000000000000000000000",
                        "key": "0xab2de949397e8935e34bc32fefbdb2a9c4a94be7b36afb3334cb3465f31263bd",
                        "prev": "0x0000000000000000000000000000000000000000000010ee19229ebee0780000"
                    },
                    {
                        "current": "0x000000000000000000000000000000000000000000b148fd3e267ca1a158b800",
                        "key": "0x498fc0b1e36e06b8870e6138b8cc51f78aed5887ab820968be2035ff9aea4f53",
                        "prev": "0x000000000000000000000000000000000000000000b1380f2503dde2c0e0b800"
                    }
                ],
                "storageVariables": [
                    {
                        "name": "balanceOf",
                        "type": "mapping(address => uint256)",
                        "value": {
                            "pairs": [
                                {
                                    "key": "0x47adbe55e1cdd3194c6efe8b2e0584f2dfe1c892",
                                    "value": {
                                        "current": "0",
                                        "prev": "79950000000000000000000",
                                        "typeTag": 1
                                    }
                                },
                                {
                                    "key": "0x99fe5d6383289cdd56e54fc0baf7f67c957a8888",
                                    "value": {
                                        "current": "214324551963210540000000000",
                                        "prev": "214244601963210540000000000",
                                        "typeTag": 1
                                    }
                                }
                            ],
                            "typeTag": 4
                        }
                    }
                ]
            }
        ]
    }
}