{
    "balance_change": {
        "balanceChanges": []
    },
    "profile": {
        "basic_info": {
            "baseFee": "",
            "blockNumber": 8775542,
            "callData": "0x99fbf3a20000000000000000000000000000000000000000000000000000000000037dbb000000000000000000000000000000000000000000000000000009184e72a000",
            "debugEnable": true,
            "errorInfo": "",
            "eventCount": 1,
            "feeRecipient": "0xb2930b35844a230f00e51431acae96fe543a0347",
            "formatValue": "0",
            "gasLimit": 77302,
            "gasPrice": "1",
            "gasUsed": 51137,
            "intTxnCount": 3,
            "internalRevert": false,
            "internalRevertMessage": "",
            "isContractCreation": false,
            "isFlashloan": false,
            "maxFee": "",
            "nonce": 163,
            "overwritedBlockNumber": -1,
            "priorityFee": "",
            "receiver": "0x5937512b02555967a01d78b0994f53168a985ac4",
            "revertMessage": "",
            "sender": "0xb6f25804540cae2f61e84a42f286f4803f3c0745",
            "simulationEnable": true,
            "sourceTxnHash": "0xf3ec1567108bbd3ecc222f13c8e4ad2d427905bc76a5ac70e404bcb39c2e0f7f",
            "status": true,
            "timestamp": "2019-10-20T04:35:20Z",
            "transactionFee": "0.000051137",
            "txnHash": "0xf3ec1567108bbd3ecc222f13c8e4ad2d427905bc76a5ac70e404bcb39c2e0f7f",
            "txnIndex": 45,
            "type": 0,
            "value": "0"
        },
        "fund_flow": [],
        "token_infos": [
            {
                "address": "0xc02aaa39b223fe8d0a0e5c4f27ead9083c756cc2",
                "decimals": 18
            },
            {
                "address": "0xeeeeeeeeeeeeeeeeeeeeeeeeeeeeeeeeeeeeeeee",
                "decimals": 18
            }
        ]
    },
    "address_label": {
        "labels": [
            {
                "address": "0x0000000000000000000000000000000000000004",
                "label": "Precompiled"
            },
            {
                "address": "0xeeeeeeeeeeeeeeeeeeeeeeeeeeeeeeeeeeeeeeee",
                "label": "Ether"
            },
            {
                "address": "0x06a6a7af298129e3a2ab396c9c06f91d3c54aba8",
                "label": "0xUniverse: PLANET Token"
            },
            {
                "address": "0x0000000000000000000000000000000000000001",
                "label": "Precompiled"
            },
            {
                "address": "0x0000000000000000000000000000000000000002",
                "label": "Precompiled"
            },
            {
                "address": "0x0000000000000000000000000000000000000003",
                "label": "Precompiled"
            }
        ]
    },
    "trace": {
        "accountLabels": null,
        "dataMap": {
            "-1": {
                "invocation": {
                    "address": "0xb6f25804540cae2f61e84a42f286f4803f3c0745",
                    "callData": "",
                    "decodedMethod": null,
                    "errorInfo": "",
                    "fromAddress": "",
                    "gasUsed": 0,
                    "id": -1,
                    "methodDecoded": false,
                    "operation": "",
                    "output": "",
                    "revert": false,
                    "revertMessage": "",
                    "selector": "",
                    "status": false,
                    "value": ""
                },
                "nodeType": 0
            },
            "0": {
                "invocation": {
                    "address": "0x5937512b02555967a01d78b0994f53168a985ac4",
                    "callData": "0x0000000000000000000000000000000000000000000000000000000000037dbb000000000000000000000000000000000000000000000000000009184e72a000",
                    "decodedMethod": {
                        "callParams": [
                            {
                                "name": "boxIndex",
                                "type": "uint256",
                                "value": "228,795"
                            },
                            {
                                "name": "price",
                                "type": "uint256",
                                "value": "10,000,000,000,000"
                            }
                        ],
                        "constructorArguments": "",
                        "name": "setRentPrice",
                        "returnParams": [],
                        "signature": "setRentPrice(uint256,uint256)"
                    },
                    "errorInfo": "",
                    "fromAddress": "0xb6f25804540cae2f61e84a42f286f4803f3c0745",
                    "gasUsed": 51137,
                    "id": 0,
                    "methodDecoded": true,
                    "operation": "CALL",
                    "output": "",
                    "revert": false,
                    "revertMessage": "",
                    "selector": "0x99fbf3a2",
                    "status": true,
                    "value": "0"
                },
                "nodeType": 0
            },
            "1": {
                "invocation": {
                    "address": "0xb30fc104867b28d6781211ce1d8bd548e35cf9d6",
                    "callData": "0x0000000000000000000000000000000000000000000000000000000000037dbb000000000000000000000000000000000000000000000000000009184e72a000",
                    "decodedMethod": {
                        "callParams": [
                            {
                                "name": "boxIndex",
                                "type": "uint256",
                                "value": "228,795"
                            },
                            {
                                "name": "price",
                                "type": "uint256",
                                "value": "10,000,000,000,000"
                            }
                        ],
                        "constructorArguments": "",
                        "name": "setRentPrice",
                        "returnParams": [],
                        "signature": "setRentPrice(uint256,uint256)"
                    },
                    "errorInfo": "",
                    "fromAddress": "0x5937512b02555967a01d78b0994f53168a985ac4",
                    "gasUsed": 27518,
                    "id": 1,
                    "methodDecoded": true,
                    "operation": "DELEGATECALL",
                    "output": "",
                    "revert": false,
                    "revertMessage": "",
                    "selector": "0x99fbf3a2",
                    "status": true,
                    "value": "0"
                },
                "nodeType": 0
            },
            "2": {
                "invocation": {
                    "address": "0x369fb9d636399fe26ec14a44e4167cb694ed766d",
                    "callData": "0x",
                    "decodedMethod": null,
                    "errorInfo": "",
                    "fromAddress": "0x5937512b02555967a01d78b0994f53168a985ac4",
                    "gasUsed": 798,
                    "id": 2,
                    "methodDecoded": false,
                    "operation": "CALL",
                    "output": "0x00000000000000000000000006a6a7af298129e3a2ab396c9c06f91d3c54aba8",
                    "revert": false,
                    "revertMessage": "",
                    "selector": "0x6ad41d81",
                    "status": true,
                    "value": "0"
                },
                "nodeType": 0
            },
            "3": {
                "invocation": {
                    "address": "0x06a6a7af298129e3a2ab396c9c06f91d3c54aba8",
                    "callData": "0x0000000000000000000000000000000000000000000000000000000000037dbb",
                    "decodedMethod": {
                        "callParams": [
                            {
                                "name": "_tokenId",
                                "type": "uint256",
                                "value": "228,795"
                            }
                        ],
                        "constructorArguments": "",
                        "name": "ownerOf",
                        "returnParams": [
                            {
                                "name": "",
                                "type": "address",
                                "value": "0xb6f25804540cae2f61e84a42f286f4803f3c0745"
                            }
                        ],
                        "signature": "ownerOf(uint256)"
                    },
                    "errorInfo": "",
                    "fromAddress": "0x5937512b02555967a01d78b0994f53168a985ac4",
                    "gasUsed": 1277,
                    "id": 3,
                    "methodDecoded": true,
                    "operation": "CALL",
                    "output": "0x000000000000000000000000b6f25804540cae2f61e84a42f286f4803f3c0745",
                    "revert": false,
                    "revertMessage": "",
                    "selector": "0x6352211e",
                    "status": true,
                    "value": "0"
                },
                "nodeType": 0
            },
            "4": {
                "event": {
                    "contract": "0x5937512b02555967a01d78b0994f53168a985ac4",
                    "decodedLog": null,
                    "id": 4,
                    "logData": "0x000000000000000000000000000000000000000000000000000009184e72a000",
                    "logDecoded": false,
                    "operation": "EVENT",
                    "revert": false,
                    "status": true,
                    "topics": [
                        "0x82377ac1dd983c741f66c12c752c2de4bc397fe3ac4a4440fe89f0eb849377b6",
                        "0x0000000000000000000000000000000000000000000000000000000000037dbb"
                    ]
                },
                "nodeType": 1
            }
        },
        "gasFlame": [
            {
                "children": [
                    {
                        "children": [
                            {
                                "children": [],
                                "depth": 0,
                                "name": "Initial Gas",
                                "value": 22040
                            },
                            {
                                "children": [
                                    {
                                        "children": [
                                            {
                                                "children": [],
                                                "depth": 2,
                                                "name": "0x6ad41d81",
                                                "value": 798
                                            },
                                            {
                                                "children": [],
                                                "depth": 2,
                                                "name": "ownerOf",
                                                "value": 1277
                                            }
                                        ],
                                        "depth": 1,
                                        "name": "setRentPrice",
                                        "value": 27518
                                    }
                                ],
                                "depth": 0,
                                "name": "Executed Gas",
                                "value": 29097
                            }
                        ],
                        "depth": -1,
                        "name": "Actual Gas Used",
                        "value": 51137
                    },
                    {
                        "children": [],
                        "depth": -1,
                        "name": "Refunded Gas",
                        "value": 0
                    }
                ],
                "depth": -2,
                "name": "Total Gas",
                "value": 51137
            }
        ],
        "isConfirmed": true,
        "mainTrace": [
            {
                "children": [
                    {
                        "children": [
                            {
                                "children": [
                                    {
                                        "children": [],
                                        "depth": 2,
                                        "id": 2,
                                        "order": 2
                                    },
                                    {
                                        "children": [],
                                        "depth": 2,
                                        "id": 3,
                                        "order": 3
                                    },
                                    {
                                        "children": [],
                                        "depth": 2,
                                        "id": 4,
                                        "order": 4
                                    }
                                ],
                                "depth": 1,
                                "id": 1,
                                "order": 1
                            }
                        ],
                        "depth": 0,
                        "id": 0,
                        "order": 0
                    }
                ],
                "depth": -1,
                "id": -1,
                "order": -1
            }
        ],
        "mainTraceNodeCount": 5,
        "parentIdMap": {
            "0": -1,
            "1": 0,
            "2": 1,
            "3": 1,
            "4": 1
        },
        "tidyTrace": [
            {
                "children": [
                    {
                        "children": [
                            {
                                "children": [
                                    {
                                        "children": [],
                                        "depth": 2,
                                        "id": 2,
                                        "order": 2
                                    },
                                    {
                                        "children": [],
                                        "depth": 2,
                                        "id": 3,
                                        "order": 3
                                    },
                                    {
                                        "children": [],
                                        "depth": 2,
                                        "id": 4,
                                        "order": 4
                                    }
                                ],
                                "depth": 1,
                                "id": 1,
                                "order": 1
                            }
                        ],
                        "depth": 0,
                        "id": 0,
                        "order": 0
                    }
                ],
                "depth": -1,
                "id": -1,
                "order": -1
            }
        ],
        "tidyTraceNodeCount": 5
    },
    "state_change": {
        "stateChanges": [
            {
                "address": "0x5937512b02555967a01d78b0994f53168a985ac4",
                "erc": "",
                "slots": [
                    {
                        "current": "0x000000000000000000000000000000000000000000000000000009184e72a000",
                        "key": "0x72da7befc7d1628bbb582171ea0b9e2c9c1601213ca1beb72873229f39b97cc9",
                        "prev": "0x0000000000000000000000000000000000000000000000000000000000000000"
                    }
                ],
                "storageVariables": []
            }
        ]
    }
}