{
    "balance_change": {
        "balanceChanges": [
            {
                "account": "0x5213e1cf07b604b110ce8ce1e2e064efad71a67b",
                "assets": [
                    {
                        "address": "0xc7579bb99af590ec71c316e1ac4436c535039594",
                        "amount": "3,616.348233571533897114",
                        "iconUrl": "",
                        "isERC1155": false,
                        "isERC721": false,
                        "sign": false,
                        "value": ""
                    }
                ]
            },
            {
                "account": "0x2a0c0dbecc7e4d658f48e01e3fa353f44050c208",
                "assets": [
                    {
                        "address": "0xc7579bb99af590ec71c316e1ac4436c535039594",
                        "amount": "3,616.348233571533897114",
                        "iconUrl": "",
                        "isERC1155": false,
                        "isERC721": false,
                        "sign": true,
                        "value": ""
                    }
                ]
            }
        ]
    },
    "profile": {
        "basic_info": {
            "baseFee": "",
            "blockNumber": 5103436,
            "callData": "0x338b5dea000000000000000000000000c7579bb99af590ec71c316e1ac4436c5350395940000000000000000000000000000000000000000000000c40ae9d632fea4bd9a",
            "debugEnable": true,
            "errorInfo": "",
            "eventCount": 2,
            "feeRecipient": "0x52bc44d5378309ee2abf1539bf71de1b7d7be3b5",
            "formatValue": "0",
            "gasLimit": 250000,
            "gasPrice": "40",
            "gasUsed": 42822,
            "intTxnCount": 1,
            "internalRevert": false,
            "internalRevertMessage": "",
            "isContractCreation": false,
            "isFlashloan": false,
            "maxFee": "",
            "nonce": 6,
            "overwritedBlockNumber": -1,
            "priorityFee": "",
            "receiver": "0x2a0c0dbecc7e4d658f48e01e3fa353f44050c208",
            "revertMessage": "",
            "sender": "0x5213e1cf07b604b110ce8ce1e2e064efad71a67b",
            "simulationEnable": true,
            "sourceTxnHash": "0xf31fbfa0a4145682e7e9e50877b14d7aad1ab224c8968c6cd657f43cd52ab813",
            "status": true,
            "timestamp": "2018-02-16T23:51:28Z",
            "transactionFee": "0.00171288",
            "txnHash": "0xf31fbfa0a4145682e7e9e50877b14d7aad1ab224c8968c6cd657f43cd52ab813",
            "txnIndex": 170,
            "type": 0,
            "value": "0"
        },
        "fund_flow": [
            {
                "amount": "3,616.348233571533897114",
                "from": "0x5213e1cf07b604b110ce8ce1e2e064efad71a67b",
                "id": 1,
                "isERC1155": false,
                "isERC721": false,
                "isReverted": false,
                "order": 1,
                "to": "0x2a0c0dbecc7e4d658f48e01e3fa353f44050c208",
                "token": "0xc7579bb99af590ec71c316e1ac4436c535039594"
            }
        ],
        "token_infos": [
            {
                "address": "0xc7579bb99af590ec71c316e1ac4436c535039594",
                "decimals": 18
            },
            {
                "address": "0xeeeeeeeeeeeeeeeeeeeeeeeeeeeeeeeeeeeeeeee",
                "decimals": 18
            },
            {
                "address": "0xc02aaa39b223fe8d0a0e5c4f27ead9083c756cc2",
                "decimals": 18
            }
        ]
    },
    "address_label": {
        "labels": [
            {
                "address": "0xeeeeeeeeeeeeeeeeeeeeeeeeeeeeeeeeeeeeeeee",
                "label": "Ether"
            },
            {
                "address": "0xc7579bb99af590ec71c316e1ac4436c535039594",
                "label": "TitaniumBARToken"
            },
            {
                "address": "0x2a0c0dbecc7e4d658f48e01e3fa353f44050c208",
                "label": "IDEX"
            },
            {
                "address": "0x0000000000000000000000000000000000000001",
                "label": "Precompiled"
            },
            {
                "address": "0x0000000000000000000000000000000000000002",
                "label": "Precompiled"
            },
            {
                "address": "0x0000000000000000000000000000000000000003",
                "label": "Precompiled"
            },
            {
                "address": "0x0000000000000000000000000000000000000004",
                "label": "Precompiled"
            }
        ]
    },
    "trace": {
        "accountLabels": null,
        "dataMap": {
            "-1": {
                "invocation": {
                    "address": "0x5213e1cf07b604b110ce8ce1e2e064efad71a67b",
                    "callData": "",
                    "decodedMethod": null,
                    "errorInfo": "",
                    "fromAddress": "",
                    "gasUsed": 0,
                    "id": -1,
                    "methodDecoded": false,
                    "operation": "",
                    "output": "",
                    "revert": false,
                    "revertMessage": "",
                    "selector": "",
                    "status": false,
                    "value": ""
                },
                "nodeType": 0
            },
            "0": {
                "invocation": {
                    "address": "0x2a0c0dbecc7e4d658f48e01e3fa353f44050c208",
                    "callData": "0x000000000000000000000000c7579bb99af590ec71c316e1ac4436c5350395940000000000000000000000000000000000000000000000c40ae9d632fea4bd9a",
                    "decodedMethod": {
                        "callParams": [
                            {
                                "name": "token",
                                "type": "address",
                                "value": "0xc7579bb99af590ec71c316e1ac4436c535039594"
                            },
                            {
                                "name": "amount",
                                "type": "uint256",
                                "value": "3,616,348,233,571,533,897,114"
                            }
                        ],
                        "constructorArguments": "",
                        "name": "depositToken",
                        "returnParams": [],
                        "signature": "depositToken(address,uint256)"
                    },
                    "errorInfo": "",
                    "fromAddress": "0x5213e1cf07b604b110ce8ce1e2e064efad71a67b",
                    "gasUsed": 42822,
                    "id": 0,
                    "methodDecoded": true,
                    "operation": "CALL",
                    "output": "",
                    "revert": false,
                    "revertMessage": "",
                    "selector": "0x338b5dea",
                    "status": true,
                    "value": "0"
                },
                "nodeType": 0
            },
            "1": {
                "invocation": {
                    "address": "0xc7579bb99af590ec71c316e1ac4436c535039594",
                    "callData": "0x0000000000000000000000005213e1cf07b604b110ce8ce1e2e064efad71a67b0000000000000000000000002a0c0dbecc7e4d658f48e01e3fa353f44050c2080000000000000000000000000000000000000000000000c40ae9d632fea4bd9a",
                    "decodedMethod": {
                        "callParams": [
                            {
                                "name": "_from",
                                "type": "address",
                                "value": "0x5213e1cf07b604b110ce8ce1e2e064efad71a67b"
                            },
                            {
                                "name": "_to",
                                "type": "address",
                                "value": "0x2a0c0dbecc7e4d658f48e01e3fa353f44050c208"
                            },
                            {
                                "decimalAvailable": true,
                                "name": "_value",
                                "type": "uint256",
                                "value": "3,616,348,233,571,533,897,114"
                            }
                        ],
                        "constructorArguments": "",
                        "name": "transferFrom",
                        "returnParams": [
                            {
                                "name": "",
                                "type": "bool",
                                "value": true
                            }
                        ],
                        "signature": "transferFrom(address,address,uint256)"
                    },
                    "errorInfo": "",
                    "fromAddress": "0x2a0c0dbecc7e4d658f48e01e3fa353f44050c208",
                    "gasUsed": 18959,
                    "id": 1,
                    "methodDecoded": true,
                    "operation": "CALL",
                    "output": "0x0000000000000000000000000000000000000000000000000000000000000001",
                    "revert": false,
                    "revertMessage": "",
                    "selector": "0x23b872dd",
                    "status": true,
                    "value": "0"
                },
                "nodeType": 0
            },
            "2": {
                "event": {
                    "contract": "0xc7579bb99af590ec71c316e1ac4436c535039594",
                    "decodedLog": {
                        "name": "Transfer",
                        "params": [
                            {
                                "name": "from",
                                "type": "address",
                                "value": "0x5213e1cf07b604b110ce8ce1e2e064efad71a67b"
                            },
                            {
                                "name": "to",
                                "type": "address",
                                "value": "0x2a0c0dbecc7e4d658f48e01e3fa353f44050c208"
                            },
                            {
                                "decimalAvailable": true,
                                "name": "value",
                                "type": "uint256",
                                "value": "3,616,348,233,571,533,897,114"
                            }
                        ],
                        "signature": "Transfer(address,address,uint256)"
                    },
                    "id": 2,
                    "logData": "0x0000000000000000000000000000000000000000000000c40ae9d632fea4bd9a",
                    "logDecoded": true,
                    "operation": "EVENT",
                    "revert": false,
                    "status": true,
                    "topics": [
                        "0xddf252ad1be2c89b69c2b068fc378daa952ba7f163c4a11628f55a4df523b3ef",
                        "0x0000000000000000000000005213e1cf07b604b110ce8ce1e2e064efad71a67b",
                        "0x0000000000000000000000002a0c0dbecc7e4d658f48e01e3fa353f44050c208"
                    ]
                },
                "nodeType": 1
            },
            "3": {
                "event": {
                    "contract": "0x2a0c0dbecc7e4d658f48e01e3fa353f44050c208",
                    "decodedLog": {
                        "name": "Deposit",
                        "params": [
                            {
                                "name": "token",
                                "type": "address",
                                "value": "0xc7579bb99af590ec71c316e1ac4436c535039594"
                            },
                            {
                                "name": "user",
                                "type": "address",
                                "value": "0x5213e1cf07b604b110ce8ce1e2e064efad71a67b"
                            },
                            {
                                "name": "amount",
                                "type": "uint256",
                                "value": "3,616,348,233,571,533,897,114"
                            },
                            {
                                "name": "balance",
                                "type": "uint256",
                                "value": "3,616,348,233,571,533,897,114"
                            }
                        ],
                        "signature": "Deposit(address,address,uint256,uint256)"
                    },
                    "id": 3,
                    "logData": "0x000000000000000000000000c7579bb99af590ec71c316e1ac4436c5350395940000000000000000000000005213e1cf07b604b110ce8ce1e2e064efad71a67b0000000000000000000000000000000000000000000000c40ae9d632fea4bd9a0000000000000000000000000000000000000000000000c40ae9d632fea4bd9a",
                    "logDecoded": true,
                    "operation": "EVENT",
                    "revert": false,
                    "status": true,
                    "topics": [
                        "0xdcbc1c05240f31ff3ad067ef1ee35ce4997762752e3a095284754544f4c709d7"
                    ]
                },
                "nodeType": 1
            }
        },
        "gasFlame": [
            {
                "children": [
                    {
                        "children": [
                            {
                                "children": [],
                                "depth": 0,
                                "name": "Initial Gas",
                                "value": 23384
                            },
                            {
                                "children": [
                                    {
                                        "children": [],
                                        "depth": 1,
                                        "name": "transferFrom",
                                        "value": 18959
                                    }
                                ],
                                "depth": 0,
                                "name": "Executed Gas",
                                "value": 49438
                            }
                        ],
                        "depth": -1,
                        "name": "Actual Gas Used",
                        "value": 42822
                    },
                    {
                        "children": [],
                        "depth": -1,
                        "name": "Refunded Gas",
                        "value": 30000
                    }
                ],
                "depth": -2,
                "name": "Total Gas",
                "value": 72822
            }
        ],
        "isConfirmed": true,
        "mainTrace": [
            {
                "children": [
                    {
                        "children": [
                            {
                                "children": [
                                    {
                                        "children": [],
                                        "depth": 2,
                                        "id": 2,
                                        "order": 2
                                    }
                                ],
                                "depth": 1,
                                "id": 1,
                                "order": 1
                            },
                            {
                                "children": [],
                                "depth": 1,
                                "id": 3,
                                "order": 3
                            }
                        ],
                        "depth": 0,
                        "id": 0,
                        "order": 0
                    }
                ],
                "depth": -1,
                "id": -1,
                "order": -1
            }
        ],
        "mainTraceNodeCount": 4,
        "parentIdMap": {
            "0": -1,
            "1": 0,
            "2": 1,
            "3": 0
        },
        "tidyTrace": [
            {
                "children": [
                    {
                        "children": [
                            {
                                "children": [
                                    {
                                        "children": [],
                                        "depth": 2,
                                        "id": 2,
                                        "order": 2
                                    }
                                ],
                                "depth": 1,
                                "id": 1,
                                "order": 1
                            },
                            {
                                "children": [],
                                "depth": 1,
                                "id": 3,
                                "order": 3
                            }
                        ],
                        "depth": 0,
                        "id": 0,
                        "order": 0
                    }
                ],
                "depth": -1,
                "id": -1,
                "order": -1
            }
        ],
        "tidyTraceNodeCount": 4
    },
    "state_change": {
        "stateChanges": [
            {
                "address": "0x2a0c0dbecc7e4d658f48e01e3fa353f44050c208",
                "erc": "",
                "slots": [
                    {
                        "current": "0x0000000000000000000000000000000000000000000000c40ae9d632fea4bd9a",
                        "key": "0x0c1717d157bcf754351d9f4ab95eb9f114c165c309e96caf129db3c35ca621ac",
                        "prev": "0x0000000000000000000000000000000000000000000000000000000000000000"
                    },
                    {
                        "current": "0x00000000000000000000000000000000000000000000000000000000004ddf4c",
                        "key": "0x32dfbf1bd681ce2482e140d6a4bf06efa2ac9428aa6605bcb6786bd8c8498cbb",
                        "prev": "0x00000000000000000000000000000000000000000000000000000000004c9ced"
                    }
                ],
                "storageVariables": [
                    {
                        "name": "lastActiveTransaction",
                        "type": "mapping(address => uint256)",
                        "value": {
                            "pairs": [
                                {
                                    "key": "0x5213e1cf07b604b110ce8ce1e2e064efad71a67b",
                                    "value": {
                                        "current": "5103436",
                                        "prev": "5020909",
                                        "typeTag": 1
                                    }
                                }
                            ],
                            "typeTag": 4
                        }
                    },
                    {
                        "name": "tokens",
                        "type": "mapping(address => mapping(address => uint256))",
                        "value": {
                            "pairs": [
                                {
                                    "key": "0xc7579bb99af590ec71c316e1ac4436c535039594",
                                    "value": {
                                        "pairs": [
                                            {
                                                "key": "0x5213e1cf07b604b110ce8ce1e2e064efad71a67b",
                                                "value": {
                                                    "current": "3616348233571533897114",
                                                    "prev": "0",
                                                    "typeTag": 1
                                                }
                                            }
                                        ],
                                        "typeTag": 4
                                    }
                                }
                            ],
                            "typeTag": 4
                        }
                    }
                ]
            },
            {
                "address": "0xc7579bb99af590ec71c316e1ac4436c535039594",
                "erc": "ERC-20",
                "slots": [
                    {
                        "current": "0x0000000000000000000000000000000000000000000107eb14d97a7ba61027a2",
                        "key": "0xae5c77fc71ff9f10d2a02bd39370b8fa105d9645d506b0e66b3c7b9ff9f1eab1",
                        "prev": "0x00000000000000000000000000000000000000000001072709efa448a76b6a08"
                    },
                    {
                        "current": "0x0000000000000000000000000000000000000000000000000000000000000000",
                        "key": "0xc04e8413d5fba051a26879220868582478589d82ca8a0d2ca5ef2481002bdaa3",
                        "prev": "0x0000000000000000000000000000000000000000000000c40ae9d632fea4bd9a"
                    },
                    {
                        "current": "0x0000000000000000000000000000000000000000000000000000000000000000",
                        "key": "0xbf3f3ea061250d9aafc31c346fbd82bba3e606257c3922ddd382ce020b3f3cd9",
                        "prev": "0x0000000000000000000000000000000000000000000000c40ae9d632fea4bd9a"
                    }
                ],
                "storageVariables": [
                    {
                        "name": "allowed",
                        "type": "mapping(address => mapping(address => uint256))",
                        "value": {
                            "pairs": [
                                {
                                    "key": "0x5213e1cf07b604b110ce8ce1e2e064efad71a67b",
                                    "value": {
                                        "pairs": [
                                            {
                                                "key": "0x2a0c0dbecc7e4d658f48e01e3fa353f44050c208",
                                                "value": {
                                                    "current": "0",
                                                    "prev": "3616348233571533897114",
                                                    "typeTag": 1
                                                }
                                            }
                                        ],
                                        "typeTag": 4
                                    }
                                }
                            ],
                            "typeTag": 4
                        }
                    },
                    {
                        "name": "balances",
                        "type": "mapping(address => uint256)",
                        "value": {
                            "pairs": [
                                {
                                    "key": "0x2a0c0dbecc7e4d658f48e01e3fa353f44050c208",
                                    "value": {
                                        "current": "1246318872218660626245538",
                                        "prev": "1242702523985089092348424",
                                        "typeTag": 1
                                    }
                                },
                                {
                                    "key": "0x5213e1cf07b604b110ce8ce1e2e064efad71a67b",
                                    "value": {
                                        "current": "0",
                                        "prev": "3616348233571533897114",
                                        "typeTag": 1
                                    }
                                }
                            ],
                            "typeTag": 4
                        }
                    }
                ]
            }
        ]
    }
}