{
    "balance_change": {
        "balanceChanges": [
            {
                "account": "0xb501cc29234716f6735d0ea0b50ac139048cb33b",
                "assets": [
                    {
                        "address": "0x37f04d2c3ae075fad5483bb918491f656b12bdb6",
                        "amount": "3,878,438.4872541",
                        "iconUrl": "",
                        "isERC1155": false,
                        "isERC721": false,
                        "sign": false,
                        "value": ""
                    }
                ]
            },
            {
                "account": "0xd1654dfbc1f3fb8443323ec9137a818896334165",
                "assets": [
                    {
                        "address": "0x37f04d2c3ae075fad5483bb918491f656b12bdb6",
                        "amount": "3,878,438.4872541",
                        "iconUrl": "",
                        "isERC1155": false,
                        "isERC721": false,
                        "sign": true,
                        "value": ""
                    }
                ]
            }
        ]
    },
    "profile": {
        "basic_info": {
            "baseFee": "",
            "blockNumber": 7575302,
            "callData": "0xa9059cbb000000000000000000000000d1654dfbc1f3fb8443323ec9137a818896334165000000000000000000000000000000000000000000000000000160bdeed4e3a2",
            "debugEnable": true,
            "errorInfo": "",
            "eventCount": 1,
            "feeRecipient": "0x52bc44d5378309ee2abf1539bf71de1b7d7be3b5",
            "formatValue": "0",
            "gasLimit": 91000,
            "gasPrice": "7",
            "gasUsed": 52353,
            "intTxnCount": 0,
            "internalRevert": false,
            "internalRevertMessage": "",
            "isContractCreation": false,
            "isFlashloan": false,
            "maxFee": "",
            "nonce": 0,
            "overwritedBlockNumber": -1,
            "priorityFee": "",
            "receiver": "0x37f04d2c3ae075fad5483bb918491f656b12bdb6",
            "revertMessage": "",
            "sender": "0xb501cc29234716f6735d0ea0b50ac139048cb33b",
            "simulationEnable": true,
            "sourceTxnHash": "0xf3463f617099d8cf9be9c457527b7c771be0ebe0f60a47e7138dea5db5e5a5b9",
            "status": true,
            "timestamp": "2019-04-15T22:50:14Z",
            "transactionFee": "0.000366471",
            "txnHash": "0xf3463f617099d8cf9be9c457527b7c771be0ebe0f60a47e7138dea5db5e5a5b9",
            "txnIndex": 3,
            "type": 0,
            "value": "0"
        },
        "fund_flow": [
            {
                "amount": "3,878,438.4872541",
                "from": "0xb501cc29234716f6735d0ea0b50ac139048cb33b",
                "id": 1,
                "isERC1155": false,
                "isERC721": false,
                "isReverted": false,
                "order": 1,
                "to": "0xd1654dfbc1f3fb8443323ec9137a818896334165",
                "token": "0x37f04d2c3ae075fad5483bb918491f656b12bdb6"
            }
        ],
        "token_infos": [
            {
                "address": "0x37f04d2c3ae075fad5483bb918491f656b12bdb6",
                "decimals": 8
            },
            {
                "address": "0xc02aaa39b223fe8d0a0e5c4f27ead9083c756cc2",
                "decimals": 18
            },
            {
                "address": "0xeeeeeeeeeeeeeeeeeeeeeeeeeeeeeeeeeeeeeeee",
                "decimals": 18
            }
        ]
    },
    "address_label": {
        "labels": [
            {
                "address": "0xeeeeeeeeeeeeeeeeeeeeeeeeeeeeeeeeeeeeeeee",
                "label": "Ether"
            },
            {
                "address": "0x37f04d2c3ae075fad5483bb918491f656b12bdb6",
                "label": "VestChain: VEST Token"
            },
            {
                "address": "0x0000000000000000000000000000000000000001",
                "label": "Precompiled"
            },
            {
                "address": "0x0000000000000000000000000000000000000002",
                "label": "Precompiled"
            },
            {
                "address": "0x0000000000000000000000000000000000000003",
                "label": "Precompiled"
            },
            {
                "address": "0x0000000000000000000000000000000000000004",
                "label": "Precompiled"
            }
        ]
    },
    "trace": {
        "accountLabels": null,
        "dataMap": {
            "-1": {
                "invocation": {
                    "address": "0xb501cc29234716f6735d0ea0b50ac139048cb33b",
                    "callData": "",
                    "decodedMethod": null,
                    "errorInfo": "",
                    "fromAddress": "",
                    "gasUsed": 0,
                    "id": -1,
                    "methodDecoded": false,
                    "operation": "",
                    "output": "",
                    "revert": false,
                    "revertMessage": "",
                    "selector": "",
                    "status": false,
                    "value": ""
                },
                "nodeType": 0
            },
            "0": {
                "invocation": {
                    "address": "0x37f04d2c3ae075fad5483bb918491f656b12bdb6",
                    "callData": "0x000000000000000000000000d1654dfbc1f3fb8443323ec9137a818896334165000000000000000000000000000000000000000000000000000160bdeed4e3a2",
                    "decodedMethod": {
                        "callParams": [
                            {
                                "name": "_to",
                                "type": "address",
                                "value": "0xd1654dfbc1f3fb8443323ec9137a818896334165"
                            },
                            {
                                "decimalAvailable": true,
                                "name": "_val",
                                "type": "uint256",
                                "value": "387,843,848,725,410"
                            }
                        ],
                        "constructorArguments": "",
                        "name": "transfer",
                        "returnParams": [
                            {
                                "name": "",
                                "type": "bool",
                                "value": true
                            }
                        ],
                        "signature": "transfer(address,uint256)"
                    },
                    "errorInfo": "",
                    "fromAddress": "0xb501cc29234716f6735d0ea0b50ac139048cb33b",
                    "gasUsed": 52353,
                    "id": 0,
                    "methodDecoded": true,
                    "operation": "CALL",
                    "output": "0x0000000000000000000000000000000000000000000000000000000000000001",
                    "revert": false,
                    "revertMessage": "",
                    "selector": "0xa9059cbb",
                    "status": true,
                    "value": "0"
                },
                "nodeType": 0
            },
            "1": {
                "event": {
                    "contract": "0x37f04d2c3ae075fad5483bb918491f656b12bdb6",
                    "decodedLog": {
                        "name": "Transfer",
                        "params": [
                            {
                                "name": "_from",
                                "type": "address",
                                "value": "0xb501cc29234716f6735d0ea0b50ac139048cb33b"
                            },
                            {
                                "name": "_to",
                                "type": "address",
                                "value": "0xd1654dfbc1f3fb8443323ec9137a818896334165"
                            },
                            {
                                "decimalAvailable": true,
                                "name": "_val",
                                "type": "uint256",
                                "value": "387,843,848,725,410"
                            }
                        ],
                        "signature": "Transfer(address,address,uint256)"
                    },
                    "id": 1,
                    "logData": "0x000000000000000000000000000000000000000000000000000160bdeed4e3a2",
                    "logDecoded": true,
                    "operation": "EVENT",
                    "revert": false,
                    "status": true,
                    "topics": [
                        "0xddf252ad1be2c89b69c2b068fc378daa952ba7f163c4a11628f55a4df523b3ef",
                        "0x000000000000000000000000b501cc29234716f6735d0ea0b50ac139048cb33b",
                        "0x000000000000000000000000d1654dfbc1f3fb8443323ec9137a818896334165"
                    ]
                },
                "nodeType": 1
            }
        },
        "gasFlame": [
            {
                "children": [
                    {
                        "children": [
                            {
                                "children": [],
                                "depth": 0,
                                "name": "Initial Gas",
                                "value": 23256
                            },
                            {
                                "children": [],
                                "depth": 0,
                                "name": "Executed Gas",
                                "value": 29097
                            }
                        ],
                        "depth": -1,
                        "name": "Actual Gas Used",
                        "value": 52353
                    },
                    {
                        "children": [],
                        "depth": -1,
                        "name": "Refunded Gas",
                        "value": 0
                    }
                ],
                "depth": -2,
                "name": "Total Gas",
                "value": 52353
            }
        ],
        "isConfirmed": true,
        "mainTrace": [
            {
                "children": [
                    {
                        "children": [
                            {
                                "children": [],
                                "depth": 1,
                                "id": 1,
                                "order": 1
                            }
                        ],
                        "depth": 0,
                        "id": 0,
                        "order": 0
                    }
                ],
                "depth": -1,
                "id": -1,
                "order": -1
            }
        ],
        "mainTraceNodeCount": 2,
        "parentIdMap": {
            "0": -1,
            "1": 0
        },
        "tidyTrace": [
            {
                "children": [
                    {
                        "children": [
                            {
                                "children": [],
                                "depth": 1,
                                "id": 1,
                                "order": 1
                            }
                        ],
                        "depth": 0,
                        "id": 0,
                        "order": 0
                    }
                ],
                "depth": -1,
                "id": -1,
                "order": -1
            }
        ],
        "tidyTraceNodeCount": 2
    },
    "state_change": {
        "stateChanges": [
            {
                "address": "0x37f04d2c3ae075fad5483bb918491f656b12bdb6",
                "erc": "ERC-20",
                "slots": [
                    {
                        "current": "0x000000000000000000000000000000000000000000000000000160bdeed4e3a2",
                        "key": "0xdd2d29bbfc4606867bb1a157fd9024d919c49b893a056d2a3a333c0a97bcfd9c",
                        "prev": "0x0000000000000000000000000000000000000000000000000000000000000000"
                    },
                    {
                        "current": "0x0000000000000000000000000000000000000000000000000002cc2c49bfbea6",
                        "key": "0x764accf603b683f691f5b465a917ea13595d692af4ab7316439febadb42d7ef6",
                        "prev": "0x00000000000000000000000000000000000000000000000000042cea3894a248"
                    }
                ],
                "storageVariables": [
                    {
                        "name": "holders",
                        "type": "mapping(address => uint256)",
                        "value": {
                            "pairs": [
                                {
                                    "key": "0xb501cc29234716f6735d0ea0b50ac139048cb33b",
                                    "value": {
                                        "current": "787440541351590",
                                        "prev": "1175284390077000",
                                        "typeTag": 1
                                    }
                                },
                                {
                                    "key": "0xd1654dfbc1f3fb8443323ec9137a818896334165",
                                    "value": {
                                        "current": "387843848725410",
                                        "prev": "0",
                                        "typeTag": 1
                                    }
                                }
                            ],
                            "typeTag": 4
                        }
                    }
                ]
            }
        ]
    }
}