{
    "balance_change": {
        "balanceChanges": [
            {
                "account": "0x0c19a07242755b3f107cfb4c74d236a18548541f",
                "assets": [
                    {
                        "address": "0xeeeeeeeeeeeeeeeeeeeeeeeeeeeeeeeeeeeeeeee",
                        "amount": "32",
                        "iconUrl": "https://assets.blocksec.com/image/1663669189317-3.png",
                        "isERC1155": false,
                        "isERC721": false,
                        "sign": false,
                        "value": "19712.21922"
                    }
                ]
            },
            {
                "account": "0x00000000219ab540356cbb839cbe05303d7705fa",
                "assets": [
                    {
                        "address": "0xeeeeeeeeeeeeeeeeeeeeeeeeeeeeeeeeeeeeeeee",
                        "amount": "32",
                        "iconUrl": "https://assets.blocksec.com/image/1663669189317-3.png",
                        "isERC1155": false,
                        "isERC721": false,
                        "sign": true,
                        "value": "19712.21922"
                    }
                ]
            }
        ]
    },
    "profile": {
        "basic_info": {
            "baseFee": "",
            "blockNumber": 11318286,
            "callData": "0x22895118000000000000000000000000000000000000000000000000000000000000008000000000000000000000000000000000000000000000000000000000000000e000000000000000000000000000000000000000000000000000000000000001206708acfc9d56d8433fbe1fdf07d65dd2bc81e63b89c3d905d67274fd157da9e00000000000000000000000000000000000000000000000000000000000000030a08ea37da99fc00b405339cf27ea9d7f3cfb4bc7447e463c3253fdaf593cf7a69ba8fe69599772dd15e0af7337007e0900000000000000000000000000000000000000000000000000000000000000000000000000000000000000000000002000182f487e98ccdd80e4b8a868a128e1c487c4a0b0555b1cfc2a7548ca1aaf560000000000000000000000000000000000000000000000000000000000000060867495f7842e812cd14ad3d2cee102f6f998740c245f768b6f5ee72aaf8cea005f120d4abe6a309982cb6ae734a0f16f1920e47da0edf36199b2777ac11583e140d257baa611274a3d758aef49b4bc0d1bb7b7978dfdeeebf84e9d5fa6e96622",
            "debugEnable": true,
            "errorInfo": "",
            "eventCount": 1,
            "feeRecipient": "0x1ad91ee08f21be3de0ba2ba6918e714da6b45836",
            "formatValue": "32",
            "gasLimit": 85533,
            "gasPrice": "111",
            "gasUsed": 66127,
            "intTxnCount": 11,
            "internalRevert": false,
            "internalRevertMessage": "",
            "isContractCreation": false,
            "isFlashloan": false,
            "maxFee": "",
            "nonce": 71,
            "overwritedBlockNumber": -1,
            "priorityFee": "",
            "receiver": "0x00000000219ab540356cbb839cbe05303d7705fa",
            "revertMessage": "",
            "sender": "0x0c19a07242755b3f107cfb4c74d236a18548541f",
            "simulationEnable": true,
            "sourceTxnHash": "0xf379b5c563839203e08ae5534809d89d3400cbd0071e621c9d2041ed3f825574",
            "status": true,
            "timestamp": "2020-11-24T02:34:14Z",
            "transactionFee": "0.007340097",
            "txnHash": "0xf379b5c563839203e08ae5534809d89d3400cbd0071e621c9d2041ed3f825574",
            "txnIndex": 142,
            "type": 0,
            "value": "32000000000000000000"
        },
        "fund_flow": [
            {
                "amount": "32",
                "from": "0x0c19a07242755b3f107cfb4c74d236a18548541f",
                "id": 1,
                "isERC1155": false,
                "isERC721": false,
                "isReverted": false,
                "order": 1,
                "to": "0x00000000219ab540356cbb839cbe05303d7705fa",
                "token": "0xeeeeeeeeeeeeeeeeeeeeeeeeeeeeeeeeeeeeeeee"
            }
        ],
        "token_infos": [
            {
                "address": "0xc02aaa39b223fe8d0a0e5c4f27ead9083c756cc2",
                "decimals": 18
            },
            {
                "address": "0xeeeeeeeeeeeeeeeeeeeeeeeeeeeeeeeeeeeeeeee",
                "decimals": 18
            }
        ]
    },
    "address_label": {
        "labels": [
            {
                "address": "0x0c19a07242755b3f107cfb4c74d236a18548541f",
                "label": "Fee Recipient: 0x0C...41F"
            },
            {
                "address": "0x0000000000000000000000000000000000000002",
                "label": "Precompiled"
            },
            {
                "address": "0x00000000219ab540356cbb839cbe05303d7705fa",
                "label": "Beacon Deposit Contract"
            },
            {
                "address": "0x0000000000000000000000000000000000000001",
                "label": "Precompiled"
            },
            {
                "address": "0x0000000000000000000000000000000000000003",
                "label": "Precompiled"
            },
            {
                "address": "0x0000000000000000000000000000000000000004",
                "label": "Precompiled"
            },
            {
                "address": "0xeeeeeeeeeeeeeeeeeeeeeeeeeeeeeeeeeeeeeeee",
                "label": "Ether"
            }
        ]
    },
    "trace": {
        "accountLabels": null,
        "dataMap": {
            "-1": {
                "invocation": {
                    "address": "0x0c19a07242755b3f107cfb4c74d236a18548541f",
                    "callData": "",
                    "decodedMethod": null,
                    "errorInfo": "",
                    "fromAddress": "",
                    "gasUsed": 0,
                    "id": -1,
                    "methodDecoded": false,
                    "operation": "",
                    "output": "",
                    "revert": false,
                    "revertMessage": "",
                    "selector": "",
                    "status": false,
                    "value": ""
                },
                "nodeType": 0
            },
            "0": {
                "invocation": {
                    "address": "0x00000000219ab540356cbb839cbe05303d7705fa",
                    "callData": "0x000000000000000000000000000000000000000000000000000000000000008000000000000000000000000000000000000000000000000000000000000000e000000000000000000000000000000000000000000000000000000000000001206708acfc9d56d8433fbe1fdf07d65dd2bc81e63b89c3d905d67274fd157da9e00000000000000000000000000000000000000000000000000000000000000030a08ea37da99fc00b405339cf27ea9d7f3cfb4bc7447e463c3253fdaf593cf7a69ba8fe69599772dd15e0af7337007e0900000000000000000000000000000000000000000000000000000000000000000000000000000000000000000000002000182f487e98ccdd80e4b8a868a128e1c487c4a0b0555b1cfc2a7548ca1aaf560000000000000000000000000000000000000000000000000000000000000060867495f7842e812cd14ad3d2cee102f6f998740c245f768b6f5ee72aaf8cea005f120d4abe6a309982cb6ae734a0f16f1920e47da0edf36199b2777ac11583e140d257baa611274a3d758aef49b4bc0d1bb7b7978dfdeeebf84e9d5fa6e96622",
                    "decodedMethod": {
                        "callParams": [
                            {
                                "name": "pubkey",
                                "type": "bytes",
                                "value": "0xa08ea37da99fc00b405339cf27ea9d7f3cfb4bc7447e463c3253fdaf593cf7a69ba8fe69599772dd15e0af7337007e09"
                            },
                            {
                                "name": "withdrawal_credentials",
                                "type": "bytes",
                                "value": "0x00182f487e98ccdd80e4b8a868a128e1c487c4a0b0555b1cfc2a7548ca1aaf56"
                            },
                            {
                                "name": "signature",
                                "type": "bytes",
                                "value": "0x867495f7842e812cd14ad3d2cee102f6f998740c245f768b6f5ee72aaf8cea005f120d4abe6a309982cb6ae734a0f16f1920e47da0edf36199b2777ac11583e140d257baa611274a3d758aef49b4bc0d1bb7b7978dfdeeebf84e9d5fa6e96622"
                            },
                            {
                                "name": "deposit_data_root",
                                "type": "bytes32",
                                "value": "0x6708acfc9d56d8433fbe1fdf07d65dd2bc81e63b89c3d905d67274fd157da9e0"
                            }
                        ],
                        "constructorArguments": "",
                        "name": "deposit",
                        "returnParams": [],
                        "signature": "deposit(bytes,bytes,bytes,bytes32)"
                    },
                    "errorInfo": "",
                    "fromAddress": "0x0c19a07242755b3f107cfb4c74d236a18548541f",
                    "gasUsed": 66127,
                    "id": 0,
                    "methodDecoded": true,
                    "operation": "CALL",
                    "output": "",
                    "revert": false,
                    "revertMessage": "",
                    "selector": "0x22895118",
                    "status": true,
                    "value": "32"
                },
                "nodeType": 0
            },
            "1": {
                "event": {
                    "contract": "0x00000000219ab540356cbb839cbe05303d7705fa",
                    "decodedLog": {
                        "name": "DepositEvent",
                        "params": [
                            {
                                "name": "pubkey",
                                "type": "bytes",
                                "value": "0xa08ea37da99fc00b405339cf27ea9d7f3cfb4bc7447e463c3253fdaf593cf7a69ba8fe69599772dd15e0af7337007e09"
                            },
                            {
                                "name": "withdrawal_credentials",
                                "type": "bytes",
                                "value": "0x00182f487e98ccdd80e4b8a868a128e1c487c4a0b0555b1cfc2a7548ca1aaf56"
                            },
                            {
                                "name": "amount",
                                "type": "bytes",
                                "value": "0x0040597307000000"
                            },
                            {
                                "name": "signature",
                                "type": "bytes",
                                "value": "0x867495f7842e812cd14ad3d2cee102f6f998740c245f768b6f5ee72aaf8cea005f120d4abe6a309982cb6ae734a0f16f1920e47da0edf36199b2777ac11583e140d257baa611274a3d758aef49b4bc0d1bb7b7978dfdeeebf84e9d5fa6e96622"
                            },
                            {
                                "name": "index",
                                "type": "bytes",
                                "value": "0x8f40000000000000"
                            }
                        ],
                        "signature": "DepositEvent(bytes,bytes,bytes,bytes,bytes)"
                    },
                    "id": 1,
                    "logData": "0x00000000000000000000000000000000000000000000000000000000000000a000000000000000000000000000000000000000000000000000000000000001000000000000000000000000000000000000000000000000000000000000000140000000000000000000000000000000000000000000000000000000000000018000000000000000000000000000000000000000000000000000000000000002000000000000000000000000000000000000000000000000000000000000000030a08ea37da99fc00b405339cf27ea9d7f3cfb4bc7447e463c3253fdaf593cf7a69ba8fe69599772dd15e0af7337007e0900000000000000000000000000000000000000000000000000000000000000000000000000000000000000000000002000182f487e98ccdd80e4b8a868a128e1c487c4a0b0555b1cfc2a7548ca1aaf56000000000000000000000000000000000000000000000000000000000000000800405973070000000000000000000000000000000000000000000000000000000000000000000000000000000000000000000000000000000000000000000060867495f7842e812cd14ad3d2cee102f6f998740c245f768b6f5ee72aaf8cea005f120d4abe6a309982cb6ae734a0f16f1920e47da0edf36199b2777ac11583e140d257baa611274a3d758aef49b4bc0d1bb7b7978dfdeeebf84e9d5fa6e9662200000000000000000000000000000000000000000000000000000000000000088f40000000000000000000000000000000000000000000000000000000000000",
                    "logDecoded": true,
                    "operation": "EVENT",
                    "revert": false,
                    "status": true,
                    "topics": [
                        "0x649bbc62d0e31342afea4e5cd82d4049e7e1ee912fc0889aa790803be39038c5"
                    ]
                },
                "nodeType": 1
            },
            "10": {
                "invocation": {
                    "address": "0x0000000000000000000000000000000000000002",
                    "callData": "0xad15cfe03b98392ea7638b5c5649dd70dc884e26a0a817321efc97a26af7625f3407d6d4e6a256b0dfd56860aa167d5dc025e9b021701c4e3876cc15",
                    "decodedMethod": {
                        "callParams": [
                            {
                                "name": "data",
                                "type": "bytes",
                                "value": "0x40e395e1ad15cfe03b98392ea7638b5c5649dd70dc884e26a0a817321efc97a26af7625f3407d6d4e6a256b0dfd56860aa167d5dc025e9b021701c4e3876cc15"
                            }
                        ],
                        "constructorArguments": "",
                        "name": "sha256hash",
                        "returnParams": [
                            {
                                "name": "hash",
                                "type": "bytes32",
                                "value": "0x08d3d69702af1003fe7068134243dc30595693dbfcf569092bc7f17d907bdf40"
                            }
                        ],
                        "signature": "sha256hash(bytes)"
                    },
                    "errorInfo": "",
                    "fromAddress": "0x00000000219ab540356cbb839cbe05303d7705fa",
                    "gasUsed": 84,
                    "id": 10,
                    "methodDecoded": true,
                    "operation": "STATICCALL",
                    "output": "0x08d3d69702af1003fe7068134243dc30595693dbfcf569092bc7f17d907bdf40",
                    "revert": false,
                    "revertMessage": "",
                    "selector": "0x40e395e1",
                    "status": true,
                    "value": "0"
                },
                "nodeType": 0
            },
            "11": {
                "invocation": {
                    "address": "0x0000000000000000000000000000000000000002",
                    "callData": "0x958281065d30c8d0268893e8a4f36a9d99f90095d81731d71bbff55608d3d69702af1003fe7068134243dc30595693dbfcf569092bc7f17d907bdf40",
                    "decodedMethod": {
                        "callParams": [
                            {
                                "name": "data",
                                "type": "bytes",
                                "value": "0x5cf58ae6958281065d30c8d0268893e8a4f36a9d99f90095d81731d71bbff55608d3d69702af1003fe7068134243dc30595693dbfcf569092bc7f17d907bdf40"
                            }
                        ],
                        "constructorArguments": "",
                        "name": "sha256hash",
                        "returnParams": [
                            {
                                "name": "hash",
                                "type": "bytes32",
                                "value": "0xb84958d4dbf8e10fbf29ca5056cc4e36a9c1ddcbc6f2f550a7167d531a4b78a9"
                            }
                        ],
                        "signature": "sha256hash(bytes)"
                    },
                    "errorInfo": "",
                    "fromAddress": "0x00000000219ab540356cbb839cbe05303d7705fa",
                    "gasUsed": 84,
                    "id": 11,
                    "methodDecoded": true,
                    "operation": "STATICCALL",
                    "output": "0xb84958d4dbf8e10fbf29ca5056cc4e36a9c1ddcbc6f2f550a7167d531a4b78a9",
                    "revert": false,
                    "revertMessage": "",
                    "selector": "0x5cf58ae6",
                    "status": true,
                    "value": "0"
                },
                "nodeType": 0
            },
            "12": {
                "invocation": {
                    "address": "0x0000000000000000000000000000000000000002",
                    "callData": "0x6410d78b45f81336690654b150c90c092f2dd2ab7aa66ba5ed3e8e2eb84958d4dbf8e10fbf29ca5056cc4e36a9c1ddcbc6f2f550a7167d531a4b78a9",
                    "decodedMethod": {
                        "callParams": [
                            {
                                "name": "data",
                                "type": "bytes",
                                "value": "0xfe35eab56410d78b45f81336690654b150c90c092f2dd2ab7aa66ba5ed3e8e2eb84958d4dbf8e10fbf29ca5056cc4e36a9c1ddcbc6f2f550a7167d531a4b78a9"
                            }
                        ],
                        "constructorArguments": "",
                        "name": "sha256hash",
                        "returnParams": [
                            {
                                "name": "hash",
                                "type": "bytes32",
                                "value": "0x787e95a7c55fc93fef1589c3beb180292cc80ca1472428c6b5d097ecdf3a13ed"
                            }
                        ],
                        "signature": "sha256hash(bytes)"
                    },
                    "errorInfo": "",
                    "fromAddress": "0x00000000219ab540356cbb839cbe05303d7705fa",
                    "gasUsed": 84,
                    "id": 12,
                    "methodDecoded": true,
                    "operation": "STATICCALL",
                    "output": "0x787e95a7c55fc93fef1589c3beb180292cc80ca1472428c6b5d097ecdf3a13ed",
                    "revert": false,
                    "revertMessage": "",
                    "selector": "0xfe35eab5",
                    "status": true,
                    "value": "0"
                },
                "nodeType": 0
            },
            "2": {
                "invocation": {
                    "address": "0x0000000000000000000000000000000000000002",
                    "callData": "0xa99fc00b405339cf27ea9d7f3cfb4bc7447e463c3253fdaf593cf7a69ba8fe69599772dd15e0af7337007e0900000000000000000000000000000000",
                    "decodedMethod": {
                        "callParams": [
                            {
                                "name": "data",
                                "type": "bytes",
                                "value": "0xa08ea37da99fc00b405339cf27ea9d7f3cfb4bc7447e463c3253fdaf593cf7a69ba8fe69599772dd15e0af7337007e0900000000000000000000000000000000"
                            }
                        ],
                        "constructorArguments": "",
                        "name": "sha256hash",
                        "returnParams": [
                            {
                                "name": "hash",
                                "type": "bytes32",
                                "value": "0x0097560f481994c2b7e6364e5e62a96a5d57627c297af04f18d2b324bec47581"
                            }
                        ],
                        "signature": "sha256hash(bytes)"
                    },
                    "errorInfo": "",
                    "fromAddress": "0x00000000219ab540356cbb839cbe05303d7705fa",
                    "gasUsed": 84,
                    "id": 2,
                    "methodDecoded": true,
                    "operation": "STATICCALL",
                    "output": "0x0097560f481994c2b7e6364e5e62a96a5d57627c297af04f18d2b324bec47581",
                    "revert": false,
                    "revertMessage": "",
                    "selector": "0xa08ea37d",
                    "status": true,
                    "value": "0"
                },
                "nodeType": 0
            },
            "3": {
                "invocation": {
                    "address": "0x0000000000000000000000000000000000000002",
                    "callData": "0x842e812cd14ad3d2cee102f6f998740c245f768b6f5ee72aaf8cea005f120d4abe6a309982cb6ae734a0f16f1920e47da0edf36199b2777ac11583e1",
                    "decodedMethod": {
                        "callParams": [
                            {
                                "name": "data",
                                "type": "bytes",
                                "value": "0x867495f7842e812cd14ad3d2cee102f6f998740c245f768b6f5ee72aaf8cea005f120d4abe6a309982cb6ae734a0f16f1920e47da0edf36199b2777ac11583e1"
                            }
                        ],
                        "constructorArguments": "",
                        "name": "sha256hash",
                        "returnParams": [
                            {
                                "name": "hash",
                                "type": "bytes32",
                                "value": "0xe1b79e4402ba7d112ac0323967231defbc7026bd25ff517acddb80f8f283a665"
                            }
                        ],
                        "signature": "sha256hash(bytes)"
                    },
                    "errorInfo": "",
                    "fromAddress": "0x00000000219ab540356cbb839cbe05303d7705fa",
                    "gasUsed": 84,
                    "id": 3,
                    "methodDecoded": true,
                    "operation": "STATICCALL",
                    "output": "0xe1b79e4402ba7d112ac0323967231defbc7026bd25ff517acddb80f8f283a665",
                    "revert": false,
                    "revertMessage": "",
                    "selector": "0x867495f7",
                    "status": true,
                    "value": "0"
                },
                "nodeType": 0
            },
            "4": {
                "invocation": {
                    "address": "0x0000000000000000000000000000000000000002",
                    "callData": "0xa611274a3d758aef49b4bc0d1bb7b7978dfdeeebf84e9d5fa6e966220000000000000000000000000000000000000000000000000000000000000000",
                    "decodedMethod": {
                        "callParams": [
                            {
                                "name": "data",
                                "type": "bytes",
                                "value": "0x40d257baa611274a3d758aef49b4bc0d1bb7b7978dfdeeebf84e9d5fa6e966220000000000000000000000000000000000000000000000000000000000000000"
                            }
                        ],
                        "constructorArguments": "",
                        "name": "sha256hash",
                        "returnParams": [
                            {
                                "name": "hash",
                                "type": "bytes32",
                                "value": "0xd3b3cdb5b669b93e38e86b420132990ce251a3160f8b6c8ee8eacbc834206f4e"
                            }
                        ],
                        "signature": "sha256hash(bytes)"
                    },
                    "errorInfo": "",
                    "fromAddress": "0x00000000219ab540356cbb839cbe05303d7705fa",
                    "gasUsed": 84,
                    "id": 4,
                    "methodDecoded": true,
                    "operation": "STATICCALL",
                    "output": "0xd3b3cdb5b669b93e38e86b420132990ce251a3160f8b6c8ee8eacbc834206f4e",
                    "revert": false,
                    "revertMessage": "",
                    "selector": "0x40d257ba",
                    "status": true,
                    "value": "0"
                },
                "nodeType": 0
            },
            "5": {
                "invocation": {
                    "address": "0x0000000000000000000000000000000000000002",
                    "callData": "0x02ba7d112ac0323967231defbc7026bd25ff517acddb80f8f283a665d3b3cdb5b669b93e38e86b420132990ce251a3160f8b6c8ee8eacbc834206f4e",
                    "decodedMethod": {
                        "callParams": [
                            {
                                "name": "data",
                                "type": "bytes",
                                "value": "0xe1b79e4402ba7d112ac0323967231defbc7026bd25ff517acddb80f8f283a665d3b3cdb5b669b93e38e86b420132990ce251a3160f8b6c8ee8eacbc834206f4e"
                            }
                        ],
                        "constructorArguments": "",
                        "name": "sha256hash",
                        "returnParams": [
                            {
                                "name": "hash",
                                "type": "bytes32",
                                "value": "0xe4dfcc58f38b668e5c2630c60cd09f3291949abdf77877d581aca79c8fa15e4c"
                            }
                        ],
                        "signature": "sha256hash(bytes)"
                    },
                    "errorInfo": "",
                    "fromAddress": "0x00000000219ab540356cbb839cbe05303d7705fa",
                    "gasUsed": 84,
                    "id": 5,
                    "methodDecoded": true,
                    "operation": "STATICCALL",
                    "output": "0xe4dfcc58f38b668e5c2630c60cd09f3291949abdf77877d581aca79c8fa15e4c",
                    "revert": false,
                    "revertMessage": "",
                    "selector": "0xe1b79e44",
                    "status": true,
                    "value": "0"
                },
                "nodeType": 0
            },
            "6": {
                "invocation": {
                    "address": "0x0000000000000000000000000000000000000002",
                    "callData": "0x481994c2b7e6364e5e62a96a5d57627c297af04f18d2b324bec4758100182f487e98ccdd80e4b8a868a128e1c487c4a0b0555b1cfc2a7548ca1aaf56",
                    "decodedMethod": {
                        "callParams": [
                            {
                                "name": "data",
                                "type": "bytes",
                                "value": "0x0097560f481994c2b7e6364e5e62a96a5d57627c297af04f18d2b324bec4758100182f487e98ccdd80e4b8a868a128e1c487c4a0b0555b1cfc2a7548ca1aaf56"
                            }
                        ],
                        "constructorArguments": "",
                        "name": "sha256hash",
                        "returnParams": [
                            {
                                "name": "hash",
                                "type": "bytes32",
                                "value": "0xf1d668f752e9eeabb6c0098782731c3de9d46fb9b47a10b84271510e9c0ad7fa"
                            }
                        ],
                        "signature": "sha256hash(bytes)"
                    },
                    "errorInfo": "",
                    "fromAddress": "0x00000000219ab540356cbb839cbe05303d7705fa",
                    "gasUsed": 84,
                    "id": 6,
                    "methodDecoded": true,
                    "operation": "STATICCALL",
                    "output": "0xf1d668f752e9eeabb6c0098782731c3de9d46fb9b47a10b84271510e9c0ad7fa",
                    "revert": false,
                    "revertMessage": "",
                    "selector": "0x0097560f",
                    "status": true,
                    "value": "0"
                },
                "nodeType": 0
            },
            "7": {
                "invocation": {
                    "address": "0x0000000000000000000000000000000000000002",
                    "callData": "0x07000000000000000000000000000000000000000000000000000000e4dfcc58f38b668e5c2630c60cd09f3291949abdf77877d581aca79c8fa15e4c",
                    "decodedMethod": {
                        "callParams": [
                            {
                                "name": "data",
                                "type": "bytes",
                                "value": "0x0040597307000000000000000000000000000000000000000000000000000000e4dfcc58f38b668e5c2630c60cd09f3291949abdf77877d581aca79c8fa15e4c"
                            }
                        ],
                        "constructorArguments": "",
                        "name": "sha256hash",
                        "returnParams": [
                            {
                                "name": "hash",
                                "type": "bytes32",
                                "value": "0x59094762f5ad1225709941571636137733cf5aab40afcf06faa2a99a9833e539"
                            }
                        ],
                        "signature": "sha256hash(bytes)"
                    },
                    "errorInfo": "",
                    "fromAddress": "0x00000000219ab540356cbb839cbe05303d7705fa",
                    "gasUsed": 84,
                    "id": 7,
                    "methodDecoded": true,
                    "operation": "STATICCALL",
                    "output": "0x59094762f5ad1225709941571636137733cf5aab40afcf06faa2a99a9833e539",
                    "revert": false,
                    "revertMessage": "",
                    "selector": "0x00405973",
                    "status": true,
                    "value": "0"
                },
                "nodeType": 0
            },
            "8": {
                "invocation": {
                    "address": "0x0000000000000000000000000000000000000002",
                    "callData": "0x52e9eeabb6c0098782731c3de9d46fb9b47a10b84271510e9c0ad7fa59094762f5ad1225709941571636137733cf5aab40afcf06faa2a99a9833e539",
                    "decodedMethod": {
                        "callParams": [
                            {
                                "name": "data",
                                "type": "bytes",
                                "value": "0xf1d668f752e9eeabb6c0098782731c3de9d46fb9b47a10b84271510e9c0ad7fa59094762f5ad1225709941571636137733cf5aab40afcf06faa2a99a9833e539"
                            }
                        ],
                        "constructorArguments": "",
                        "name": "sha256hash",
                        "returnParams": [
                            {
                                "name": "hash",
                                "type": "bytes32",
                                "value": "0x6708acfc9d56d8433fbe1fdf07d65dd2bc81e63b89c3d905d67274fd157da9e0"
                            }
                        ],
                        "signature": "sha256hash(bytes)"
                    },
                    "errorInfo": "",
                    "fromAddress": "0x00000000219ab540356cbb839cbe05303d7705fa",
                    "gasUsed": 84,
                    "id": 8,
                    "methodDecoded": true,
                    "operation": "STATICCALL",
                    "output": "0x6708acfc9d56d8433fbe1fdf07d65dd2bc81e63b89c3d905d67274fd157da9e0",
                    "revert": false,
                    "revertMessage": "",
                    "selector": "0xf1d668f7",
                    "status": true,
                    "value": "0"
                },
                "nodeType": 0
            },
            "9": {
                "invocation": {
                    "address": "0x0000000000000000000000000000000000000002",
                    "callData": "0x8e4b6bbb0e0eeee96069d16466b815c0bc1e79604f81d84f28820c7d6708acfc9d56d8433fbe1fdf07d65dd2bc81e63b89c3d905d67274fd157da9e0",
                    "decodedMethod": {
                        "callParams": [
                            {
                                "name": "data",
                                "type": "bytes",
                                "value": "0x70b7b7288e4b6bbb0e0eeee96069d16466b815c0bc1e79604f81d84f28820c7d6708acfc9d56d8433fbe1fdf07d65dd2bc81e63b89c3d905d67274fd157da9e0"
                            }
                        ],
                        "constructorArguments": "",
                        "name": "sha256hash",
                        "returnParams": [
                            {
                                "name": "hash",
                                "type": "bytes32",
                                "value": "0x6af7625f3407d6d4e6a256b0dfd56860aa167d5dc025e9b021701c4e3876cc15"
                            }
                        ],
                        "signature": "sha256hash(bytes)"
                    },
                    "errorInfo": "",
                    "fromAddress": "0x00000000219ab540356cbb839cbe05303d7705fa",
                    "gasUsed": 84,
                    "id": 9,
                    "methodDecoded": true,
                    "operation": "STATICCALL",
                    "output": "0x6af7625f3407d6d4e6a256b0dfd56860aa167d5dc025e9b021701c4e3876cc15",
                    "revert": false,
                    "revertMessage": "",
                    "selector": "0x70b7b728",
                    "status": true,
                    "value": "0"
                },
                "nodeType": 0
            }
        },
        "gasFlame": [
            {
                "children": [
                    {
                        "children": [
                            {
                                "children": [],
                                "depth": 0,
                                "name": "Initial Gas",
                                "value": 25272
                            },
                            {
                                "children": [
                                    {
                                        "children": [],
                                        "depth": 1,
                                        "name": "sha256hash",
                                        "value": 84
                                    },
                                    {
                                        "children": [],
                                        "depth": 1,
                                        "name": "sha256hash",
                                        "value": 84
                                    },
                                    {
                                        "children": [],
                                        "depth": 1,
                                        "name": "sha256hash",
                                        "value": 84
                                    },
                                    {
                                        "children": [],
                                        "depth": 1,
                                        "name": "sha256hash",
                                        "value": 84
                                    },
                                    {
                                        "children": [],
                                        "depth": 1,
                                        "name": "sha256hash",
                                        "value": 84
                                    },
                                    {
                                        "children": [],
                                        "depth": 1,
                                        "name": "sha256hash",
                                        "value": 84
                                    },
                                    {
                                        "children": [],
                                        "depth": 1,
                                        "name": "sha256hash",
                                        "value": 84
                                    },
                                    {
                                        "children": [],
                                        "depth": 1,
                                        "name": "sha256hash",
                                        "value": 84
                                    },
                                    {
                                        "children": [],
                                        "depth": 1,
                                        "name": "sha256hash",
                                        "value": 84
                                    },
                                    {
                                        "children": [],
                                        "depth": 1,
                                        "name": "sha256hash",
                                        "value": 84
                                    },
                                    {
                                        "children": [],
                                        "depth": 1,
                                        "name": "sha256hash",
                                        "value": 84
                                    }
                                ],
                                "depth": 0,
                                "name": "Executed Gas",
                                "value": 40855
                            }
                        ],
                        "depth": -1,
                        "name": "Actual Gas Used",
                        "value": 66127
                    },
                    {
                        "children": [],
                        "depth": -1,
                        "name": "Refunded Gas",
                        "value": 0
                    }
                ],
                "depth": -2,
                "name": "Total Gas",
                "value": 66127
            }
        ],
        "isConfirmed": true,
        "mainTrace": [
            {
                "children": [
                    {
                        "children": [
                            {
                                "children": [],
                                "depth": 1,
                                "id": 1,
                                "order": 1
                            },
                            {
                                "children": [],
                                "depth": 1,
                                "id": 2,
                                "order": 2
                            },
                            {
                                "children": [],
                                "depth": 1,
                                "id": 3,
                                "order": 3
                            },
                            {
                                "children": [],
                                "depth": 1,
                                "id": 4,
                                "order": 4
                            },
                            {
                                "children": [],
                                "depth": 1,
                                "id": 5,
                                "order": 5
                            },
                            {
                                "children": [],
                                "depth": 1,
                                "id": 6,
                                "order": 6
                            },
                            {
                                "children": [],
                                "depth": 1,
                                "id": 7,
                                "order": 7
                            },
                            {
                                "children": [],
                                "depth": 1,
                                "id": 8,
                                "order": 8
                            },
                            {
                                "children": [],
                                "depth": 1,
                                "id": 9,
                                "order": 9
                            },
                            {
                                "children": [],
                                "depth": 1,
                                "id": 10,
                                "order": 10
                            },
                            {
                                "children": [],
                                "depth": 1,
                                "id": 11,
                                "order": 11
                            },
                            {
                                "children": [],
                                "depth": 1,
                                "id": 12,
                                "order": 12
                            }
                        ],
                        "depth": 0,
                        "id": 0,
                        "order": 0
                    }
                ],
                "depth": -1,
                "id": -1,
                "order": -1
            }
        ],
        "mainTraceNodeCount": 13,
        "parentIdMap": {
            "0": -1,
            "1": 0,
            "10": 0,
            "11": 0,
            "12": 0,
            "2": 0,
            "3": 0,
            "4": 0,
            "5": 0,
            "6": 0,
            "7": 0,
            "8": 0,
            "9": 0
        },
        "tidyTrace": [
            {
                "children": [
                    {
                        "children": [
                            {
                                "children": [],
                                "depth": 1,
                                "id": 1,
                                "order": 1
                            }
                        ],
                        "depth": 0,
                        "id": 0,
                        "order": 0
                    }
                ],
                "depth": -1,
                "id": -1,
                "order": -1
            }
        ],
        "tidyTraceNodeCount": 2
    },
    "state_change": {
        "stateChanges": [
            {
                "address": "0x00000000219ab540356cbb839cbe05303d7705fa",
                "erc": "",
                "slots": [
                    {
                        "current": "0x787e95a7c55fc93fef1589c3beb180292cc80ca1472428c6b5d097ecdf3a13ed",
                        "key": "0x0000000000000000000000000000000000000000000000000000000000000004",
                        "prev": "0xd41813f8c13f704fe74788914eae2b937d73098b7ce004e685492d857f584710"
                    },
                    {
                        "current": "0x0000000000000000000000000000000000000000000000000000000000004090",
                        "key": "0x0000000000000000000000000000000000000000000000000000000000000020",
                        "prev": "0x000000000000000000000000000000000000000000000000000000000000408f"
                    }
                ],
                "storageVariables": [
                    {
                        "name": "branch",
                        "type": "bytes32[32]",
                        "value": {
                            "elemType": "bytes32",
                            "elems": [
                                {
                                    "index": 4,
                                    "value": {
                                        "current": "0x787e95a7c55fc93fef1589c3beb180292cc80ca1472428c6b5d097ecdf3a13ed",
                                        "prev": "0xd41813f8c13f704fe74788914eae2b937d73098b7ce004e685492d857f584710",
                                        "typeTag": 1
                                    }
                                }
                            ],
                            "typeTag": 2
                        }
                    },
                    {
                        "name": "deposit_count",
                        "type": "uint256",
                        "value": {
                            "current": "16528",
                            "prev": "16527",
                            "typeTag": 1
                        }
                    }
                ]
            }
        ]
    }
}