{
    "balance_change": {
        "balanceChanges": [
            {
                "account": "0xa52e014b3f5cc48287c2d483a3e026c32cc76e6d",
                "assets": [
                    {
                        "address": "0xeeeeeeeeeeeeeeeeeeeeeeeeeeeeeeeeeeeeeeee",
                        "amount": "0.202040816326530611",
                        "iconUrl": "https://assets.blocksec.com/image/1663669189317-3.png",
                        "isERC1155": false,
                        "isERC721": false,
                        "sign": false,
                        "value": ""
                    }
                ]
            },
            {
                "account": "0x84ad2a2d67cba083962a6d5aac25e670cf664a18",
                "assets": [
                    {
                        "address": "0xeeeeeeeeeeeeeeeeeeeeeeeeeeeeeeeeeeeeeeee",
                        "amount": "0.202040816326530611",
                        "iconUrl": "https://assets.blocksec.com/image/1663669189317-3.png",
                        "isERC1155": false,
                        "isERC721": false,
                        "sign": true,
                        "value": ""
                    }
                ]
            }
        ]
    },
    "profile": {
        "basic_info": {
            "baseFee": "",
            "blockNumber": 6379083,
            "callData": "0x38bbfa50a4ed0514575056512132e40197aef5dfc6cd7dc9ab0a7f7558e0ee742e917ecb000000000000000000000000000000000000000000000000000000000000006000000000000000000000000000000000000000000000000000000000000000a0000000000000000000000000000000000000000000000000000000000000000d5b35313033352c205b34325d5d00000000000000000000000000000000000000000000000000000000000000000000000000000000000000000000000000002212201f876a841197802eca2c310c2f235b2642aa7ec9c55a085b3b86e4f617305d2a000000000000000000000000000000000000000000000000000000000000",
            "debugEnable": true,
            "errorInfo": "",
            "eventCount": 1,
            "feeRecipient": "0x00192fb10df37c9fb26829eb2cc623cd1bf599e8",
            "formatValue": "0",
            "gasLimit": 235000,
            "gasPrice": "12",
            "gasUsed": 154698,
            "intTxnCount": 3,
            "internalRevert": false,
            "internalRevertMessage": "",
            "isContractCreation": false,
            "isFlashloan": false,
            "maxFee": "",
            "nonce": 3597,
            "overwritedBlockNumber": -1,
            "priorityFee": "",
            "receiver": "0xa52e014b3f5cc48287c2d483a3e026c32cc76e6d",
            "revertMessage": "",
            "sender": "0x000042421b292f902acbbdaef7ddad826eb2e938",
            "simulationEnable": true,
            "sourceTxnHash": "0xf30a34c5a665d468e0b9d9c1d98bf47c166125d5b9fbd6710d3d7bcd07490490",
            "status": true,
            "timestamp": "2018-09-22T14:34:09Z",
            "transactionFee": "0.001856376",
            "txnHash": "0xf30a34c5a665d468e0b9d9c1d98bf47c166125d5b9fbd6710d3d7bcd07490490",
            "txnIndex": 36,
            "type": 0,
            "value": "0"
        },
        "fund_flow": [
            {
                "amount": "0.202040816326530611",
                "from": "0xa52e014b3f5cc48287c2d483a3e026c32cc76e6d",
                "id": 1,
                "isERC1155": false,
                "isERC721": false,
                "isReverted": false,
                "order": 1,
                "to": "0x84ad2a2d67cba083962a6d5aac25e670cf664a18",
                "token": "0xeeeeeeeeeeeeeeeeeeeeeeeeeeeeeeeeeeeeeeee"
            }
        ],
        "token_infos": [
            {
                "address": "0xc02aaa39b223fe8d0a0e5c4f27ead9083c756cc2",
                "decimals": 18
            },
            {
                "address": "0xeeeeeeeeeeeeeeeeeeeeeeeeeeeeeeeeeeeeeeee",
                "decimals": 18
            }
        ]
    },
    "address_label": {
        "labels": [
            {
                "address": "0x1d3b2638a7cc9f2cb3d298a3da7a90b67e5506ed",
                "label": "OraclizeAddrResolver"
            },
            {
                "address": "0x3dbdc81a6edc94c720b0b88fb65dbd7e395fdcf6",
                "label": "Oraclize"
            },
            {
                "address": "0x0000000000000000000000000000000000000001",
                "label": "Precompiled"
            },
            {
                "address": "0x0000000000000000000000000000000000000002",
                "label": "Precompiled"
            },
            {
                "address": "0x0000000000000000000000000000000000000003",
                "label": "Precompiled"
            },
            {
                "address": "0x0000000000000000000000000000000000000004",
                "label": "Precompiled"
            },
            {
                "address": "0xeeeeeeeeeeeeeeeeeeeeeeeeeeeeeeeeeeeeeeee",
                "label": "Ether"
            },
            {
                "address": "0xa52e014b3f5cc48287c2d483a3e026c32cc76e6d",
                "label": "Etheroll: Contract"
            }
        ]
    },
    "trace": {
        "accountLabels": null,
        "dataMap": {
            "-1": {
                "invocation": {
                    "address": "0x000042421b292f902acbbdaef7ddad826eb2e938",
                    "callData": "",
                    "decodedMethod": null,
                    "errorInfo": "",
                    "fromAddress": "",
                    "gasUsed": 0,
                    "id": -1,
                    "methodDecoded": false,
                    "operation": "",
                    "output": "",
                    "revert": false,
                    "revertMessage": "",
                    "selector": "",
                    "status": false,
                    "value": ""
                },
                "nodeType": 0
            },
            "0": {
                "invocation": {
                    "address": "0xa52e014b3f5cc48287c2d483a3e026c32cc76e6d",
                    "callData": "0xa4ed0514575056512132e40197aef5dfc6cd7dc9ab0a7f7558e0ee742e917ecb000000000000000000000000000000000000000000000000000000000000006000000000000000000000000000000000000000000000000000000000000000a0000000000000000000000000000000000000000000000000000000000000000d5b35313033352c205b34325d5d00000000000000000000000000000000000000000000000000000000000000000000000000000000000000000000000000002212201f876a841197802eca2c310c2f235b2642aa7ec9c55a085b3b86e4f617305d2a000000000000000000000000000000000000000000000000000000000000",
                    "decodedMethod": {
                        "callParams": [
                            {
                                "name": "myid",
                                "type": "bytes32",
                                "value": "0xa4ed0514575056512132e40197aef5dfc6cd7dc9ab0a7f7558e0ee742e917ecb"
                            },
                            {
                                "name": "result",
                                "type": "string",
                                "value": "[51035, [42]]"
                            },
                            {
                                "name": "proof",
                                "type": "bytes",
                                "value": "0x12201f876a841197802eca2c310c2f235b2642aa7ec9c55a085b3b86e4f617305d2a"
                            }
                        ],
                        "constructorArguments": "",
                        "name": "__callback",
                        "returnParams": [],
                        "signature": "__callback(bytes32,string,bytes)"
                    },
                    "errorInfo": "",
                    "fromAddress": "0x000042421b292f902acbbdaef7ddad826eb2e938",
                    "gasUsed": 154698,
                    "id": 0,
                    "methodDecoded": true,
                    "operation": "CALL",
                    "output": "",
                    "revert": false,
                    "revertMessage": "",
                    "selector": "0x38bbfa50",
                    "status": true,
                    "value": "0"
                },
                "nodeType": 0
            },
            "1": {
                "invocation": {
                    "address": "0x1d3b2638a7cc9f2cb3d298a3da7a90b67e5506ed",
                    "callData": "0x",
                    "decodedMethod": {
                        "callParams": [],
                        "constructorArguments": "",
                        "name": "getAddress",
                        "returnParams": [
                            {
                                "name": "oaddr",
                                "type": "address",
                                "value": "0x3dbdc81a6edc94c720b0b88fb65dbd7e395fdcf6"
                            }
                        ],
                        "signature": "getAddress()"
                    },
                    "errorInfo": "",
                    "fromAddress": "0xa52e014b3f5cc48287c2d483a3e026c32cc76e6d",
                    "gasUsed": 418,
                    "id": 1,
                    "methodDecoded": true,
                    "operation": "CALL",
                    "output": "0x0000000000000000000000003dbdc81a6edc94c720b0b88fb65dbd7e395fdcf6",
                    "revert": false,
                    "revertMessage": "",
                    "selector": "0x38cc4831",
                    "status": true,
                    "value": "0"
                },
                "nodeType": 0
            },
            "2": {
                "invocation": {
                    "address": "0x3dbdc81a6edc94c720b0b88fb65dbd7e395fdcf6",
                    "callData": "0x",
                    "decodedMethod": {
                        "callParams": [],
                        "constructorArguments": "",
                        "name": "cbAddress",
                        "returnParams": [
                            {
                                "name": "_cbAddress",
                                "type": "address",
                                "value": "0x000042421b292f902acbbdaef7ddad826eb2e938"
                            }
                        ],
                        "signature": "cbAddress()"
                    },
                    "errorInfo": "",
                    "fromAddress": "0xa52e014b3f5cc48287c2d483a3e026c32cc76e6d",
                    "gasUsed": 1444,
                    "id": 2,
                    "methodDecoded": true,
                    "operation": "CALL",
                    "output": "0x000000000000000000000000000042421b292f902acbbdaef7ddad826eb2e938",
                    "revert": false,
                    "revertMessage": "",
                    "selector": "0xc281d19e",
                    "status": true,
                    "value": "0"
                },
                "nodeType": 0
            },
            "3": {
                "event": {
                    "contract": "0xa52e014b3f5cc48287c2d483a3e026c32cc76e6d",
                    "decodedLog": {
                        "name": "LogResult",
                        "params": [
                            {
                                "name": "ResultSerialNumber",
                                "type": "uint256",
                                "value": "51,035"
                            },
                            {
                                "name": "BetID",
                                "type": "bytes32",
                                "value": "0xa4ed0514575056512132e40197aef5dfc6cd7dc9ab0a7f7558e0ee742e917ecb"
                            },
                            {
                                "name": "PlayerAddress",
                                "type": "address",
                                "value": "0x84ad2a2d67cba083962a6d5aac25e670cf664a18"
                            },
                            {
                                "name": "PlayerNumber",
                                "type": "uint256",
                                "value": "50"
                            },
                            {
                                "name": "DiceResult",
                                "type": "uint256",
                                "value": "42"
                            },
                            {
                                "name": "Value",
                                "type": "uint256",
                                "value": "202,040,816,326,530,611"
                            },
                            {
                                "name": "Status",
                                "type": "int256",
                                "value": "1"
                            },
                            {
                                "name": "Proof",
                                "type": "bytes",
                                "value": "0x12201f876a841197802eca2c310c2f235b2642aa7ec9c55a085b3b86e4f617305d2a"
                            }
                        ],
                        "signature": "LogResult(uint256,bytes32,address,uint256,uint256,uint256,int256,bytes)"
                    },
                    "id": 3,
                    "logData": "0x0000000000000000000000000000000000000000000000000000000000000032000000000000000000000000000000000000000000000000000000000000002a00000000000000000000000000000000000000000000000002cdcb0d4f45d633000000000000000000000000000000000000000000000000000000000000000100000000000000000000000000000000000000000000000000000000000000a0000000000000000000000000000000000000000000000000000000000000002212201f876a841197802eca2c310c2f235b2642aa7ec9c55a085b3b86e4f617305d2a000000000000000000000000000000000000000000000000000000000000",
                    "logDecoded": true,
                    "operation": "EVENT",
                    "revert": false,
                    "status": true,
                    "topics": [
                        "0x8dd0b145385d04711e29558ceab40b456976a2b9a7d648cc1bcd416161bf97b9",
                        "0x000000000000000000000000000000000000000000000000000000000000c75b",
                        "0xa4ed0514575056512132e40197aef5dfc6cd7dc9ab0a7f7558e0ee742e917ecb",
                        "0x00000000000000000000000084ad2a2d67cba083962a6d5aac25e670cf664a18"
                    ]
                },
                "nodeType": 1
            },
            "4": {
                "invocation": {
                    "address": "0x84ad2a2d67cba083962a6d5aac25e670cf664a18",
                    "callData": "0x",
                    "decodedMethod": null,
                    "errorInfo": "",
                    "fromAddress": "0xa52e014b3f5cc48287c2d483a3e026c32cc76e6d",
                    "gasUsed": 0,
                    "id": 4,
                    "methodDecoded": false,
                    "operation": "CALL",
                    "output": "",
                    "revert": false,
                    "revertMessage": "",
                    "selector": "fallback",
                    "status": true,
                    "value": "0.202040816326530611"
                },
                "nodeType": 0
            }
        },
        "gasFlame": [
            {
                "children": [
                    {
                        "children": [
                            {
                                "children": [],
                                "depth": 0,
                                "name": "Initial Gas",
                                "value": 27608
                            },
                            {
                                "children": [
                                    {
                                        "children": [],
                                        "depth": 1,
                                        "name": "getAddress",
                                        "value": 418
                                    },
                                    {
                                        "children": [],
                                        "depth": 1,
                                        "name": "cbAddress",
                                        "value": 1444
                                    },
                                    {
                                        "children": [],
                                        "depth": 1,
                                        "name": "fallback",
                                        "value": 0
                                    }
                                ],
                                "depth": 0,
                                "name": "Executed Gas",
                                "value": 172090
                            }
                        ],
                        "depth": -1,
                        "name": "Actual Gas Used",
                        "value": 154698
                    },
                    {
                        "children": [],
                        "depth": -1,
                        "name": "Refunded Gas",
                        "value": 45000
                    }
                ],
                "depth": -2,
                "name": "Total Gas",
                "value": 199698
            }
        ],
        "isConfirmed": true,
        "mainTrace": [
            {
                "children": [
                    {
                        "children": [
                            {
                                "children": [],
                                "depth": 1,
                                "id": 1,
                                "order": 1
                            },
                            {
                                "children": [],
                                "depth": 1,
                                "id": 2,
                                "order": 2
                            },
                            {
                                "children": [],
                                "depth": 1,
                                "id": 3,
                                "order": 3
                            },
                            {
                                "children": [],
                                "depth": 1,
                                "id": 4,
                                "order": 4
                            }
                        ],
                        "depth": 0,
                        "id": 0,
                        "order": 0
                    }
                ],
                "depth": -1,
                "id": -1,
                "order": -1
            }
        ],
        "mainTraceNodeCount": 5,
        "parentIdMap": {
            "0": -1,
            "1": 0,
            "2": 0,
            "3": 0,
            "4": 0
        },
        "tidyTrace": [
            {
                "children": [
                    {
                        "children": [
                            {
                                "children": [],
                                "depth": 1,
                                "id": 1,
                                "order": 1
                            },
                            {
                                "children": [],
                                "depth": 1,
                                "id": 2,
                                "order": 2
                            },
                            {
                                "children": [],
                                "depth": 1,
                                "id": 3,
                                "order": 3
                            },
                            {
                                "children": [],
                                "depth": 1,
                                "id": 4,
                                "order": 4
                            }
                        ],
                        "depth": 0,
                        "id": 0,
                        "order": 0
                    }
                ],
                "depth": -1,
                "id": -1,
                "order": -1
            }
        ],
        "tidyTraceNodeCount": 5
    },
    "state_change": {
        "stateChanges": [
            {
                "address": "0xa52e014b3f5cc48287c2d483a3e026c32cc76e6d",
                "erc": "",
                "slots": [
                    {
                        "current": "0x0000000000000000000000000000000000000000000000ef5415c4a0d852b30a",
                        "key": "0x0000000000000000000000000000000000000000000000000000000000000007",
                        "prev": "0x0000000000000000000000000000000000000000000000ef55804a35ca0e893d"
                    },
                    {
                        "current": "0x000000000000000000000000000000000000000000000000016345785d8a0000",
                        "key": "0xd4311e4ab4e7b60104392cd170df240e56be9b5faf1d6b8d4cfb5fac9e404737",
                        "prev": "0x0000000000000000000000000000000000000000000000000000000000000000"
                    },
                    {
                        "current": "0x00000000000000000000000000000000000000000000252235b27e0459773c77",
                        "key": "0x000000000000000000000000000000000000000000000000000000000000000e",
                        "prev": "0x0000000000000000000000000000000000000000000025223447f86f67bb6644"
                    },
                    {
                        "current": "0x00000000000000000000000000000000000000000000000000000000000650b0",
                        "key": "0x000000000000000000000000000000000000000000000000000000000000000c",
                        "prev": "0x00000000000000000000000000000000000000000000000000000000000650af"
                    },
                    {
                        "current": "0x00000000000000000000000000000000000000000000000002cdcb0d4f45d633",
                        "key": "0xc7fcfc62a67fb466dba10ec5a449803ecd36ffe8f043b01e8d41ce91f3d9aec5",
                        "prev": "0x0000000000000000000000000000000000000000000000000000000000000000"
                    },
                    {
                        "current": "0x00000000000000000000000000000000000000000000000264ae4c34cef69645",
                        "key": "0x0000000000000000000000000000000000000000000000000000000000000009",
                        "prev": "0x00000000000000000000000000000000000000000000000264b1ec43190f815f"
                    },
                    {
                        "current": "0x000000000000000000000000000000000000000000000000000000000000002a",
                        "key": "0xb14cd9ab6857780f7356054f7d5a3483af32996dd73ea4c5021a72fe485815b9",
                        "prev": "0x0000000000000000000000000000000000000000000000000000000000000000"
                    },
                    {
                        "current": "0x00000000000000000000000084ad2a2d67cba083962a6d5aac25e670cf664a18",
                        "key": "0xdd663a5258561ed0681ac5036af4a51bd483cb3d7d68d105b958ec6ded5a8926",
                        "prev": "0x0000000000000000000000000000000000000000000000000000000000000000"
                    },
                    {
                        "current": "0x0000000000000000000000000000000000000000000000030e45de94c67cdcd6",
                        "key": "0x000000000000000000000000000000000000000000000000000000000000000d",
                        "prev": "0x0000000000000000000000000000000000000000000000030fb06429b838b309"
                    },
                    {
                        "current": "0x00000000000000000000000000000000000000000000613213412459dd6eeca1",
                        "key": "0x000000000000000000000000000000000000000000000000000000000000000f",
                        "prev": "0x00000000000000000000000000000000000000000000613211dddee17fe4eca1"
                    },
                    {
                        "current": "0x0000000000000000000000000000000000000000000000000000000000000000",
                        "key": "0x61ed8002665075d97817d1eff3249f9c60fd1036af7879ac4b66a7c583df3f63",
                        "prev": "0x00000000000000000000000084ad2a2d67cba083962a6d5aac25e670cf664a18"
                    },
                    {
                        "current": "0x0000000000000000000000000000000000000000000000000000000000000000",
                        "key": "0x08f2cf79c43b83eaae6a0bec191e05eab4415124324624e8a5a21df687347150",
                        "prev": "0x000000000000000000000000000000000000000000000000016a8594f1bbd633"
                    },
                    {
                        "current": "0x0000000000000000000000000000000000000000000000000000000000000000",
                        "key": "0x1eb1032d07b8e7cb49e58b32b5521f3ae4ec479511865e34e768e7b7b0bc323f",
                        "prev": "0x000000000000000000000000000000000000000000000000016345785d8a0000"
                    }
                ],
                "storageVariables": [
                    {
                        "name": "playerTempReward",
                        "type": "mapping(bytes32 => uint256)",
                        "value": {
                            "pairs": [
                                {
                                    "key": "0xa4ed0514575056512132e40197aef5dfc6cd7dc9ab0a7f7558e0ee742e917ecb",
                                    "value": {
                                        "current": "202040816326530611",
                                        "prev": "0",
                                        "typeTag": 1
                                    }
                                }
                            ],
                            "typeTag": 4
                        }
                    },
                    {
                        "name": "maxProfit",
                        "type": "uint256",
                        "value": {
                            "current": "44148307986853828165",
                            "prev": "44149328395017093471",
                            "typeTag": 1
                        }
                    },
                    {
                        "name": "playerBetValue",
                        "type": "mapping(bytes32 => uint256)",
                        "value": {
                            "pairs": [
                                {
                                    "key": "0xa4ed0514575056512132e40197aef5dfc6cd7dc9ab0a7f7558e0ee742e917ecb",
                                    "value": {
                                        "current": "0",
                                        "prev": "100000000000000000",
                                        "typeTag": 1
                                    }
                                }
                            ],
                            "typeTag": 4
                        }
                    },
                    {
                        "name": "playerTempAddress",
                        "type": "mapping(bytes32 => address)",
                        "value": {
                            "pairs": [
                                {
                                    "key": "0xa4ed0514575056512132e40197aef5dfc6cd7dc9ab0a7f7558e0ee742e917ecb",
                                    "value": {
                                        "current": "0x84ad2a2d67cba083962a6d5aac25e670cf664a18",
                                        "prev": "0x0000000000000000000000000000000000000000",
                                        "typeTag": 1
                                    }
                                }
                            ],
                            "typeTag": 4
                        }
                    },
                    {
                        "name": "maxPendingPayouts",
                        "type": "uint256",
                        "value": {
                            "current": "56368705041619279062",
                            "prev": "56470745857945809673",
                            "typeTag": 1
                        }
                    },
                    {
                        "name": "contractBalance",
                        "type": "uint256",
                        "value": {
                            "current": "4414830798685382816522",
                            "prev": "4414932839501709347133",
                            "typeTag": 1
                        }
                    },
                    {
                        "name": "totalWeiWagered",
                        "type": "uint256",
                        "value": {
                            "current": "458993273472169655856289",
                            "prev": "458993173472169655856289",
                            "typeTag": 1
                        }
                    },
                    {
                        "name": "playerTempBetValue",
                        "type": "mapping(bytes32 => uint256)",
                        "value": {
                            "pairs": [
                                {
                                    "key": "0xa4ed0514575056512132e40197aef5dfc6cd7dc9ab0a7f7558e0ee742e917ecb",
                                    "value": {
                                        "current": "100000000000000000",
                                        "prev": "0",
                                        "typeTag": 1
                                    }
                                }
                            ],
                            "typeTag": 4
                        }
                    },
                    {
                        "name": "playerAddress",
                        "type": "mapping(bytes32 => address)",
                        "value": {
                            "pairs": [
                                {
                                    "key": "0xa4ed0514575056512132e40197aef5dfc6cd7dc9ab0a7f7558e0ee742e917ecb",
                                    "value": {
                                        "current": "0x0000000000000000000000000000000000000000",
                                        "prev": "0x84ad2a2d67cba083962a6d5aac25e670cf664a18",
                                        "typeTag": 1
                                    }
                                }
                            ],
                            "typeTag": 4
                        }
                    },
                    {
                        "name": "playerProfit",
                        "type": "mapping(bytes32 => uint256)",
                        "value": {
                            "pairs": [
                                {
                                    "key": "0xa4ed0514575056512132e40197aef5dfc6cd7dc9ab0a7f7558e0ee742e917ecb",
                                    "value": {
                                        "current": "0",
                                        "prev": "102040816326530611",
                                        "typeTag": 1
                                    }
                                }
                            ],
                            "typeTag": 4
                        }
                    },
                    {
                        "name": "totalBets",
                        "type": "uint256",
                        "value": {
                            "current": "413872",
                            "prev": "413871",
                            "typeTag": 1
                        }
                    },
                    {
                        "name": "playerDieResult",
                        "type": "mapping(bytes32 => uint256)",
                        "value": {
                            "pairs": [
                                {
                                    "key": "0xa4ed0514575056512132e40197aef5dfc6cd7dc9ab0a7f7558e0ee742e917ecb",
                                    "value": {
                                        "current": "42",
                                        "prev": "0",
                                        "typeTag": 1
                                    }
                                }
                            ],
                            "typeTag": 4
                        }
                    },
                    {
                        "name": "totalWeiWon",
                        "type": "uint256",
                        "value": {
                            "current": "175358618458270008294519",
                            "prev": "175358516417453681763908",
                            "typeTag": 1
                        }
                    }
                ]
            }
        ]
    }
}