{
    "balance_change": {
        "balanceChanges": [
            {
                "account": "0x0000000000000000000000000000000000000000",
                "assets": [
                    {
                        "address": "0xdceaf1652a131f32a821468dc03a92df0edd86ea",
                        "amount": "1",
                        "iconUrl": "",
                        "isERC1155": false,
                        "isERC721": true,
                        "sign": false,
                        "tokenID": "10270770",
                        "value": ""
                    }
                ]
            },
            {
                "account": "0xe7d1e36f9b199bc0109f0e97c304d4a7ce6505d0",
                "assets": [
                    {
                        "address": "0xdceaf1652a131f32a821468dc03a92df0edd86ea",
                        "amount": "1",
                        "iconUrl": "",
                        "isERC1155": false,
                        "isERC721": true,
                        "sign": true,
                        "tokenID": "10270770",
                        "value": ""
                    }
                ]
            }
        ]
    },
    "profile": {
        "basic_info": {
            "baseFee": "",
            "blockNumber": 8491847,
            "callData": "0x735498a9000000000000000000000000e7d1e36f9b199bc0109f0e97c304d4a7ce6505d000000000000000000000000000000000000000000000000000000000009cb832626c6f6b61626370376a76736f69363163737667000000000000000000000000",
            "debugEnable": true,
            "errorInfo": "",
            "eventCount": 2,
            "feeRecipient": "0x5a0b54d5dc17e0aadc383d2db43b0a0d3e029c4c",
            "formatValue": "0",
            "gasLimit": 210000,
            "gasPrice": "6",
            "gasUsed": 190153,
            "intTxnCount": 2,
            "internalRevert": false,
            "internalRevertMessage": "",
            "isContractCreation": false,
            "isFlashloan": false,
            "maxFee": "",
            "nonce": 32767,
            "overwritedBlockNumber": -1,
            "priorityFee": "",
            "receiver": "0xbe60333fe9d9d10d2801e11c2a0e5060c83c8b30",
            "revertMessage": "",
            "sender": "0xee54a771cc4671536088c01979174d8424a145a9",
            "simulationEnable": true,
            "sourceTxnHash": "0xf48c7a6501e759ffe8b9cb2fccf6d6f48ec5ee315e4d815c9cce6bfcfce445cf",
            "status": true,
            "timestamp": "2019-09-05T19:07:48Z",
            "transactionFee": "0.001140918",
            "txnHash": "0xf48c7a6501e759ffe8b9cb2fccf6d6f48ec5ee315e4d815c9cce6bfcfce445cf",
            "txnIndex": 77,
            "type": 0,
            "value": "0"
        },
        "fund_flow": [
            {
                "amount": "1",
                "from": "0x0000000000000000000000000000000000000000",
                "id": 1,
                "isERC1155": false,
                "isERC721": true,
                "isReverted": false,
                "order": 1,
                "to": "0xe7d1e36f9b199bc0109f0e97c304d4a7ce6505d0",
                "token": "0xdceaf1652a131f32a821468dc03a92df0edd86ea",
                "tokenID": "10270770"
            }
        ],
        "token_infos": [
            {
                "address": "0xc02aaa39b223fe8d0a0e5c4f27ead9083c756cc2",
                "decimals": 18
            },
            {
                "address": "0xeeeeeeeeeeeeeeeeeeeeeeeeeeeeeeeeeeeeeeee",
                "decimals": 18
            }
        ]
    },
    "address_label": {
        "labels": [
            {
                "address": "0xdceaf1652a131f32a821468dc03a92df0edd86ea",
                "label": "MCH: Extension"
            },
            {
                "address": "0x0000000000000000000000000000000000000001",
                "label": "Precompiled"
            },
            {
                "address": "0x0000000000000000000000000000000000000002",
                "label": "Precompiled"
            },
            {
                "address": "0x0000000000000000000000000000000000000003",
                "label": "Precompiled"
            },
            {
                "address": "0x0000000000000000000000000000000000000004",
                "label": "Precompiled"
            },
            {
                "address": "0xeeeeeeeeeeeeeeeeeeeeeeeeeeeeeeeeeeeeeeee",
                "label": "Ether"
            },
            {
                "address": "0xbe60333fe9d9d10d2801e11c2a0e5060c83c8b30",
                "label": "MCH: Extension Gateway 2"
            }
        ]
    },
    "trace": {
        "accountLabels": null,
        "dataMap": {
            "-1": {
                "invocation": {
                    "address": "0xee54a771cc4671536088c01979174d8424a145a9",
                    "callData": "",
                    "decodedMethod": null,
                    "errorInfo": "",
                    "fromAddress": "",
                    "gasUsed": 0,
                    "id": -1,
                    "methodDecoded": false,
                    "operation": "",
                    "output": "",
                    "revert": false,
                    "revertMessage": "",
                    "selector": "",
                    "status": false,
                    "value": ""
                },
                "nodeType": 0
            },
            "0": {
                "invocation": {
                    "address": "0xbe60333fe9d9d10d2801e11c2a0e5060c83c8b30",
                    "callData": "0x000000000000000000000000e7d1e36f9b199bc0109f0e97c304d4a7ce6505d000000000000000000000000000000000000000000000000000000000009cb832626c6f6b61626370376a76736f69363163737667000000000000000000000000",
                    "decodedMethod": {
                        "callParams": [
                            {
                                "name": "_assetOwner",
                                "type": "address",
                                "value": "0xe7d1e36f9b199bc0109f0e97c304d4a7ce6505d0"
                            },
                            {
                                "name": "_tokenId",
                                "type": "uint256",
                                "value": "10,270,770"
                            },
                            {
                                "name": "_eventHash",
                                "type": "bytes32",
                                "value": "0x626c6f6b61626370376a76736f69363163737667000000000000000000000000"
                            }
                        ],
                        "constructorArguments": "",
                        "name": "withdrawExtensionWithMint",
                        "returnParams": [],
                        "signature": "withdrawExtensionWithMint(address,uint256,bytes32)"
                    },
                    "errorInfo": "",
                    "fromAddress": "0xee54a771cc4671536088c01979174d8424a145a9",
                    "gasUsed": 190153,
                    "id": 0,
                    "methodDecoded": true,
                    "operation": "CALL",
                    "output": "",
                    "revert": false,
                    "revertMessage": "",
                    "selector": "0x735498a9",
                    "status": true,
                    "value": "0"
                },
                "nodeType": 0
            },
            "1": {
                "invocation": {
                    "address": "0xdceaf1652a131f32a821468dc03a92df0edd86ea",
                    "callData": "0x00000000000000000000000000000000000000000000000000000000009cb832",
                    "decodedMethod": {
                        "callParams": [
                            {
                                "name": "_tokenId",
                                "type": "uint256",
                                "value": "10,270,770"
                            }
                        ],
                        "constructorArguments": "",
                        "name": "isAlreadyMinted",
                        "returnParams": [
                            {
                                "name": "",
                                "type": "bool",
                                "value": false
                            }
                        ],
                        "signature": "isAlreadyMinted(uint256)"
                    },
                    "errorInfo": "",
                    "fromAddress": "0xbe60333fe9d9d10d2801e11c2a0e5060c83c8b30",
                    "gasUsed": 1260,
                    "id": 1,
                    "methodDecoded": true,
                    "operation": "STATICCALL",
                    "output": "0x0000000000000000000000000000000000000000000000000000000000000000",
                    "revert": false,
                    "revertMessage": "",
                    "selector": "0x9cc19bfb",
                    "status": true,
                    "value": "0"
                },
                "nodeType": 0
            },
            "2": {
                "invocation": {
                    "address": "0xdceaf1652a131f32a821468dc03a92df0edd86ea",
                    "callData": "0x000000000000000000000000e7d1e36f9b199bc0109f0e97c304d4a7ce6505d000000000000000000000000000000000000000000000000000000000009cb832",
                    "decodedMethod": {
                        "callParams": [
                            {
                                "name": "_owner",
                                "type": "address",
                                "value": "0xe7d1e36f9b199bc0109f0e97c304d4a7ce6505d0"
                            },
                            {
                                "name": "_tokenId",
                                "type": "uint256",
                                "value": "10,270,770"
                            }
                        ],
                        "constructorArguments": "",
                        "name": "mintExtensionAsset",
                        "returnParams": [],
                        "signature": "mintExtensionAsset(address,uint256)"
                    },
                    "errorInfo": "",
                    "fromAddress": "0xbe60333fe9d9d10d2801e11c2a0e5060c83c8b30",
                    "gasUsed": 136717,
                    "id": 2,
                    "methodDecoded": true,
                    "operation": "CALL",
                    "output": "",
                    "revert": false,
                    "revertMessage": "",
                    "selector": "0xd7455ec0",
                    "status": true,
                    "value": "0"
                },
                "nodeType": 0
            },
            "3": {
                "event": {
                    "contract": "0xdceaf1652a131f32a821468dc03a92df0edd86ea",
                    "decodedLog": {
                        "name": "Transfer",
                        "params": [
                            {
                                "name": "from",
                                "type": "address",
                                "value": "0x0000000000000000000000000000000000000000"
                            },
                            {
                                "name": "to",
                                "type": "address",
                                "value": "0xe7d1e36f9b199bc0109f0e97c304d4a7ce6505d0"
                            },
                            {
                                "decimalAvailable": true,
                                "name": "tokenId",
                                "type": "uint256",
                                "value": "10,270,770"
                            }
                        ],
                        "signature": "Transfer(address,address,uint256)"
                    },
                    "id": 3,
                    "logData": "0x",
                    "logDecoded": true,
                    "operation": "EVENT",
                    "revert": false,
                    "status": true,
                    "topics": [
                        "0xddf252ad1be2c89b69c2b068fc378daa952ba7f163c4a11628f55a4df523b3ef",
                        "0x0000000000000000000000000000000000000000000000000000000000000000",
                        "0x000000000000000000000000e7d1e36f9b199bc0109f0e97c304d4a7ce6505d0",
                        "0x00000000000000000000000000000000000000000000000000000000009cb832"
                    ]
                },
                "nodeType": 1
            },
            "4": {
                "event": {
                    "contract": "0xbe60333fe9d9d10d2801e11c2a0e5060c83c8b30",
                    "decodedLog": {
                        "name": "OutgoingEvent",
                        "params": [
                            {
                                "name": "assetOwner",
                                "type": "address",
                                "value": "0xe7d1e36f9b199bc0109f0e97c304d4a7ce6505d0"
                            },
                            {
                                "name": "eventHash",
                                "type": "bytes32",
                                "value": "0x626c6f6b61626370376a76736f69363163737667000000000000000000000000"
                            },
                            {
                                "name": "tokenId",
                                "type": "uint256",
                                "value": "10,270,770"
                            },
                            {
                                "name": "at",
                                "type": "uint256",
                                "value": "1,567,710,468"
                            },
                            {
                                "name": "eventType",
                                "type": "uint8",
                                "value": "0"
                            }
                        ],
                        "signature": "OutgoingEvent(address,uint256,uint256,bytes32,uint8)"
                    },
                    "id": 4,
                    "logData": "0x00000000000000000000000000000000000000000000000000000000009cb832000000000000000000000000000000000000000000000000000000005d715d040000000000000000000000000000000000000000000000000000000000000000",
                    "logDecoded": true,
                    "operation": "EVENT",
                    "revert": false,
                    "status": true,
                    "topics": [
                        "0xe853b0a966636e7fcd11f2fc285a1390d79434a369f038e850bf5dc0570847f4",
                        "0x000000000000000000000000e7d1e36f9b199bc0109f0e97c304d4a7ce6505d0",
                        "0x626c6f6b61626370376a76736f69363163737667000000000000000000000000"
                    ]
                },
                "nodeType": 1
            }
        },
        "gasFlame": [
            {
                "children": [
                    {
                        "children": [
                            {
                                "children": [],
                                "depth": 0,
                                "name": "Initial Gas",
                                "value": 24408
                            },
                            {
                                "children": [
                                    {
                                        "children": [],
                                        "depth": 1,
                                        "name": "isAlreadyMinted",
                                        "value": 1260
                                    },
                                    {
                                        "children": [],
                                        "depth": 1,
                                        "name": "mintExtensionAsset",
                                        "value": 136717
                                    }
                                ],
                                "depth": 0,
                                "name": "Executed Gas",
                                "value": 165745
                            }
                        ],
                        "depth": -1,
                        "name": "Actual Gas Used",
                        "value": 190153
                    },
                    {
                        "children": [],
                        "depth": -1,
                        "name": "Refunded Gas",
                        "value": 0
                    }
                ],
                "depth": -2,
                "name": "Total Gas",
                "value": 190153
            }
        ],
        "isConfirmed": true,
        "mainTrace": [
            {
                "children": [
                    {
                        "children": [
                            {
                                "children": [],
                                "depth": 1,
                                "id": 1,
                                "order": 1
                            },
                            {
                                "children": [
                                    {
                                        "children": [],
                                        "depth": 2,
                                        "id": 3,
                                        "order": 3
                                    }
                                ],
                                "depth": 1,
                                "id": 2,
                                "order": 2
                            },
                            {
                                "children": [],
                                "depth": 1,
                                "id": 4,
                                "order": 4
                            }
                        ],
                        "depth": 0,
                        "id": 0,
                        "order": 0
                    }
                ],
                "depth": -1,
                "id": -1,
                "order": -1
            }
        ],
        "mainTraceNodeCount": 5,
        "parentIdMap": {
            "0": -1,
            "1": 0,
            "2": 0,
            "3": 2,
            "4": 0
        },
        "tidyTrace": [
            {
                "children": [
                    {
                        "children": [
                            {
                                "children": [
                                    {
                                        "children": [],
                                        "depth": 2,
                                        "id": 3,
                                        "order": 3
                                    }
                                ],
                                "depth": 1,
                                "id": 2,
                                "order": 2
                            },
                            {
                                "children": [],
                                "depth": 1,
                                "id": 4,
                                "order": 4
                            }
                        ],
                        "depth": 0,
                        "id": 0,
                        "order": 0
                    }
                ],
                "depth": -1,
                "id": -1,
                "order": -1
            }
        ],
        "tidyTraceNodeCount": 4
    },
    "state_change": {
        "stateChanges": [
            {
                "address": "0xbe60333fe9d9d10d2801e11c2a0e5060c83c8b30",
                "erc": "",
                "slots": [
                    {
                        "current": "0x0000000000000000000000000000000000000000000000000000000000000001",
                        "key": "0x72bd284ae222f1de5df34a62b526f6b41a7fc03281a2ddbb2add0a939f869e8b",
                        "prev": "0x0000000000000000000000000000000000000000000000000000000000000000"
                    }
                ],
                "storageVariables": [
                    {
                        "name": "isPastEvent",
                        "type": "mapping(bytes32 => bool)",
                        "value": {
                            "pairs": [
                                {
                                    "key": "0x626c6f6b61626370376a76736f69363163737667000000000000000000000000",
                                    "value": {
                                        "current": "true",
                                        "prev": "false",
                                        "typeTag": 1
                                    }
                                }
                            ],
                            "typeTag": 4
                        }
                    }
                ]
            },
            {
                "address": "0xdceaf1652a131f32a821468dc03a92df0edd86ea",
                "erc": "ERC-721",
                "slots": [
                    {
                        "current": "0x0000000000000000000000000000000000000000000000000000000000000001",
                        "key": "0x1d258378d60e46311671d4eec8725a8fb4439322d450e9c5d97ca7b75c9c858c",
                        "prev": "0x0000000000000000000000000000000000000000000000000000000000000000"
                    },
                    {
                        "current": "0x00000000000000000000000000000000000000000000000000000000009cb832",
                        "key": "0x550a142d54fc500a2ef7dfd9303f1df178cf559ac6ffb17ff3b40b0f9a686dd7",
                        "prev": "0x0000000000000000000000000000000000000000000000000000000000000000"
                    },
                    {
                        "current": "0x000000000000000000000000000000000000000000000000000000000000505b",
                        "key": "0x057d2a815680d5720e693eeade5a3f25cbdb9606b1b38c7977375019edfdeae8",
                        "prev": "0x0000000000000000000000000000000000000000000000000000000000000000"
                    },
                    {
                        "current": "0x000000000000000000000000000000000000000000000000000000000000505c",
                        "key": "0x0000000000000000000000000000000000000000000000000000000000000007",
                        "prev": "0x000000000000000000000000000000000000000000000000000000000000505b"
                    },
                    {
                        "current": "0x00000000000000000000000000000000000000000000000000000000009cb832",
                        "key": "0xa66cc928b5edb82af9bd49922954155ab7b0942694bea4ce44661d9a873716e3",
                        "prev": "0x0000000000000000000000000000000000000000000000000000000000000000"
                    },
                    {
                        "current": "0x000000000000000000000000e7d1e36f9b199bc0109f0e97c304d4a7ce6505d0",
                        "key": "0x1c85a5945a53c1f72ee6b9fd2209ef5ab5e9e6c8833e8add89fd9eb2eef99558",
                        "prev": "0x0000000000000000000000000000000000000000000000000000000000000000"
                    },
                    {
                        "current": "0x0000000000000000000000000000000000000000000000000000000000000001",
                        "key": "0x5fcfae98e048742d6101865e8e728343ca052e07e6214d1e4ac8f551bc870d0f",
                        "prev": "0x0000000000000000000000000000000000000000000000000000000000000000"
                    }
                ],
                "storageVariables": [
                    {
                        "name": "_allTokens",
                        "type": "uint256[]",
                        "value": {
                            "elemType": "uint256",
                            "elems": [
                                {
                                    "index": 20571,
                                    "value": {
                                        "current": "10270770",
                                        "prev": "0",
                                        "typeTag": 1
                                    }
                                }
                            ],
                            "typeTag": 2
                        }
                    },
                    {
                        "name": "_tokenOwner",
                        "type": "mapping(uint256 => address)",
                        "value": {
                            "pairs": [
                                {
                                    "key": "10270770",
                                    "value": {
                                        "current": "0xe7d1e36f9b199bc0109f0e97c304d4a7ce6505d0",
                                        "prev": "0x0000000000000000000000000000000000000000",
                                        "typeTag": 1
                                    }
                                }
                            ],
                            "typeTag": 4
                        }
                    },
                    {
                        "name": "_ownedTokensCount",
                        "type": "mapping(address => uint256)",
                        "value": {
                            "pairs": [
                                {
                                    "key": "0xe7d1e36f9b199bc0109f0e97c304d4a7ce6505d0",
                                    "value": {
                                        "current": "1",
                                        "prev": "0",
                                        "typeTag": 1
                                    }
                                }
                            ],
                            "typeTag": 4
                        }
                    },
                    {
                        "name": "_ownedTokens",
                        "type": "mapping(address => uint256[])",
                        "value": {
                            "pairs": [
                                {
                                    "key": "0xe7d1e36f9b199bc0109f0e97c304d4a7ce6505d0",
                                    "value": {
                                        "elemType": "uint256",
                                        "elems": [
                                            {
                                                "index": 0,
                                                "value": {
                                                    "current": "10270770",
                                                    "prev": "0",
                                                    "typeTag": 1
                                                }
                                            }
                                        ],
                                        "typeTag": 2
                                    }
                                }
                            ],
                            "typeTag": 4
                        }
                    },
                    {
                        "name": "_allTokensIndex",
                        "type": "mapping(uint256 => uint256)",
                        "value": {
                            "pairs": [
                                {
                                    "key": "10270770",
                                    "value": {
                                        "current": "20571",
                                        "prev": "0",
                                        "typeTag": 1
                                    }
                                }
                            ],
                            "typeTag": 4
                        }
                    }
                ]
            }
        ]
    }
}