{
    "balance_change": {
        "balanceChanges": [
            {
                "account": "0xcc3eea3d6cd47ff9bea0a1761a7ee4d6facb3325",
                "assets": [
                    {
                        "address": "0xd559f20296ff4895da39b5bd9add54b442596a61",
                        "amount": "52,200",
                        "iconUrl": "https://assets.blocksec.com/icon/22a163774a6f62d32fea84670858640e94f61b1dfb3a28fec22be15825350791.png",
                        "isERC1155": false,
                        "isERC721": false,
                        "sign": false,
                        "value": ""
                    }
                ]
            },
            {
                "account": "0x17195a25379afc3d532bb79af0233d0063a3a798",
                "assets": [
                    {
                        "address": "0xd559f20296ff4895da39b5bd9add54b442596a61",
                        "amount": "52,200",
                        "iconUrl": "https://assets.blocksec.com/icon/22a163774a6f62d32fea84670858640e94f61b1dfb3a28fec22be15825350791.png",
                        "isERC1155": false,
                        "isERC721": false,
                        "sign": true,
                        "value": ""
                    }
                ]
            }
        ]
    },
    "profile": {
        "basic_info": {
            "baseFee": "",
            "blockNumber": 8848524,
            "callData": "0xa9059cbb00000000000000000000000017195a25379afc3d532bb79af0233d0063a3a798000000000000000000000000000000000000000000000b0dc486088bfea00000",
            "debugEnable": true,
            "errorInfo": "",
            "eventCount": 1,
            "feeRecipient": "0x52bc44d5378309ee2abf1539bf71de1b7d7be3b5",
            "formatValue": "0",
            "gasLimit": 53065,
            "gasPrice": "56",
            "gasUsed": 53065,
            "intTxnCount": 0,
            "internalRevert": false,
            "internalRevertMessage": "",
            "isContractCreation": false,
            "isFlashloan": false,
            "maxFee": "",
            "nonce": 8,
            "overwritedBlockNumber": -1,
            "priorityFee": "",
            "receiver": "0xd559f20296ff4895da39b5bd9add54b442596a61",
            "revertMessage": "",
            "sender": "0xcc3eea3d6cd47ff9bea0a1761a7ee4d6facb3325",
            "simulationEnable": true,
            "sourceTxnHash": "0xf4b183841834d4f957cee99fa49ec511a80f008bafcf7459e645ab1b1391c452",
            "status": true,
            "timestamp": "2019-10-31T20:26:06Z",
            "transactionFee": "0.00297164",
            "txnHash": "0xf4b183841834d4f957cee99fa49ec511a80f008bafcf7459e645ab1b1391c452",
            "txnIndex": 0,
            "type": 0,
            "value": "0"
        },
        "fund_flow": [
            {
                "amount": "52,200",
                "from": "0xcc3eea3d6cd47ff9bea0a1761a7ee4d6facb3325",
                "id": 1,
                "isERC1155": false,
                "isERC721": false,
                "isReverted": false,
                "order": 1,
                "to": "0x17195a25379afc3d532bb79af0233d0063a3a798",
                "token": "0xd559f20296ff4895da39b5bd9add54b442596a61"
            }
        ],
        "token_infos": [
            {
                "address": "0xc02aaa39b223fe8d0a0e5c4f27ead9083c756cc2",
                "decimals": 18
            },
            {
                "address": "0xd559f20296ff4895da39b5bd9add54b442596a61",
                "decimals": 18
            },
            {
                "address": "0xeeeeeeeeeeeeeeeeeeeeeeeeeeeeeeeeeeeeeeee",
                "decimals": 18
            }
        ]
    },
    "address_label": {
        "labels": [
            {
                "address": "0xeeeeeeeeeeeeeeeeeeeeeeeeeeeeeeeeeeeeeeee",
                "label": "Ether"
            },
            {
                "address": "0xd559f20296ff4895da39b5bd9add54b442596a61",
                "label": "FintruX Network (FTX)"
            },
            {
                "address": "0x0000000000000000000000000000000000000001",
                "label": "Precompiled"
            },
            {
                "address": "0x0000000000000000000000000000000000000002",
                "label": "Precompiled"
            },
            {
                "address": "0x0000000000000000000000000000000000000003",
                "label": "Precompiled"
            },
            {
                "address": "0x0000000000000000000000000000000000000004",
                "label": "Precompiled"
            }
        ]
    },
    "trace": {
        "accountLabels": null,
        "dataMap": {
            "-1": {
                "invocation": {
                    "address": "0xcc3eea3d6cd47ff9bea0a1761a7ee4d6facb3325",
                    "callData": "",
                    "decodedMethod": null,
                    "errorInfo": "",
                    "fromAddress": "",
                    "gasUsed": 0,
                    "id": -1,
                    "methodDecoded": false,
                    "operation": "",
                    "output": "",
                    "revert": false,
                    "revertMessage": "",
                    "selector": "",
                    "status": false,
                    "value": ""
                },
                "nodeType": 0
            },
            "0": {
                "invocation": {
                    "address": "0xd559f20296ff4895da39b5bd9add54b442596a61",
                    "callData": "0x00000000000000000000000017195a25379afc3d532bb79af0233d0063a3a798000000000000000000000000000000000000000000000b0dc486088bfea00000",
                    "decodedMethod": {
                        "callParams": [
                            {
                                "name": "_to",
                                "type": "address",
                                "value": "0x17195a25379afc3d532bb79af0233d0063a3a798"
                            },
                            {
                                "decimalAvailable": true,
                                "name": "_value",
                                "type": "uint256",
                                "value": "52,200,000,000,000,000,000,000"
                            }
                        ],
                        "constructorArguments": "",
                        "name": "transfer",
                        "returnParams": [
                            {
                                "name": "",
                                "type": "bool",
                                "value": true
                            }
                        ],
                        "signature": "transfer(address,uint256)"
                    },
                    "errorInfo": "",
                    "fromAddress": "0xcc3eea3d6cd47ff9bea0a1761a7ee4d6facb3325",
                    "gasUsed": 53065,
                    "id": 0,
                    "methodDecoded": true,
                    "operation": "CALL",
                    "output": "0x0000000000000000000000000000000000000000000000000000000000000001",
                    "revert": false,
                    "revertMessage": "",
                    "selector": "0xa9059cbb",
                    "status": true,
                    "value": "0"
                },
                "nodeType": 0
            },
            "1": {
                "event": {
                    "contract": "0xd559f20296ff4895da39b5bd9add54b442596a61",
                    "decodedLog": {
                        "name": "Transfer",
                        "params": [
                            {
                                "name": "from",
                                "type": "address",
                                "value": "0xcc3eea3d6cd47ff9bea0a1761a7ee4d6facb3325"
                            },
                            {
                                "name": "to",
                                "type": "address",
                                "value": "0x17195a25379afc3d532bb79af0233d0063a3a798"
                            },
                            {
                                "decimalAvailable": true,
                                "name": "value",
                                "type": "uint256",
                                "value": "52,200,000,000,000,000,000,000"
                            }
                        ],
                        "signature": "Transfer(address,address,uint256)"
                    },
                    "id": 1,
                    "logData": "0x000000000000000000000000000000000000000000000b0dc486088bfea00000",
                    "logDecoded": true,
                    "operation": "EVENT",
                    "revert": false,
                    "status": true,
                    "topics": [
                        "0xddf252ad1be2c89b69c2b068fc378daa952ba7f163c4a11628f55a4df523b3ef",
                        "0x000000000000000000000000cc3eea3d6cd47ff9bea0a1761a7ee4d6facb3325",
                        "0x00000000000000000000000017195a25379afc3d532bb79af0233d0063a3a798"
                    ]
                },
                "nodeType": 1
            }
        },
        "gasFlame": [
            {
                "children": [
                    {
                        "children": [
                            {
                                "children": [],
                                "depth": 0,
                                "name": "Initial Gas",
                                "value": 23256
                            },
                            {
                                "children": [],
                                "depth": 0,
                                "name": "Executed Gas",
                                "value": 29809
                            }
                        ],
                        "depth": -1,
                        "name": "Actual Gas Used",
                        "value": 53065
                    },
                    {
                        "children": [],
                        "depth": -1,
                        "name": "Refunded Gas",
                        "value": 0
                    }
                ],
                "depth": -2,
                "name": "Total Gas",
                "value": 53065
            }
        ],
        "isConfirmed": true,
        "mainTrace": [
            {
                "children": [
                    {
                        "children": [
                            {
                                "children": [],
                                "depth": 1,
                                "id": 1,
                                "order": 1
                            }
                        ],
                        "depth": 0,
                        "id": 0,
                        "order": 0
                    }
                ],
                "depth": -1,
                "id": -1,
                "order": -1
            }
        ],
        "mainTraceNodeCount": 2,
        "parentIdMap": {
            "0": -1,
            "1": 0
        },
        "tidyTrace": [
            {
                "children": [
                    {
                        "children": [
                            {
                                "children": [],
                                "depth": 1,
                                "id": 1,
                                "order": 1
                            }
                        ],
                        "depth": 0,
                        "id": 0,
                        "order": 0
                    }
                ],
                "depth": -1,
                "id": -1,
                "order": -1
            }
        ],
        "tidyTraceNodeCount": 2
    },
    "state_change": {
        "stateChanges": [
            {
                "address": "0xd559f20296ff4895da39b5bd9add54b442596a61",
                "erc": "ERC-20",
                "slots": [
                    {
                        "current": "0x00000000000000000000000000000000000000000000000007ca9e5c17715c8e",
                        "key": "0x128096c2cba44c1c9196a0de67823a82a838583cfd6d2934791675fd8c57f6e6",
                        "prev": "0x000000000000000000000000000000000000000000000b0dcc50a6e816115c8e"
                    },
                    {
                        "current": "0x000000000000000000000000000000000000000000000b0dc486088bfea00000",
                        "key": "0xf6f191d92e44efcfa908b8a0b48deac92397bb17b2bc9c7996be690868d80e24",
                        "prev": "0x0000000000000000000000000000000000000000000000000000000000000000"
                    }
                ],
                "storageVariables": [
                    {
                        "name": "balances",
                        "type": "mapping(address => uint256)",
                        "value": {
                            "pairs": [
                                {
                                    "key": "0x17195a25379afc3d532bb79af0233d0063a3a798",
                                    "value": {
                                        "current": "52200000000000000000000",
                                        "prev": "0",
                                        "typeTag": 1
                                    }
                                },
                                {
                                    "key": "0xcc3eea3d6cd47ff9bea0a1761a7ee4d6facb3325",
                                    "value": {
                                        "current": "561435221928533134",
                                        "prev": "52200561435221928533134",
                                        "typeTag": 1
                                    }
                                }
                            ],
                            "typeTag": 4
                        }
                    }
                ]
            }
        ]
    }
}