{
    "balance_change": {
        "balanceChanges": [
            {
                "account": "0x87c959641735c91176b04503ba562c73a33e552e",
                "assets": [
                    {
                        "address": "0xeeeeeeeeeeeeeeeeeeeeeeeeeeeeeeeeeeeeeeee",
                        "amount": "0.25",
                        "iconUrl": "https://assets.blocksec.com/image/1663669189317-3.png",
                        "isERC1155": false,
                        "isERC721": false,
                        "sign": false,
                        "value": "1094.1675000000000182"
                    },
                    {
                        "address": "0xdd69da9a83cedc730bc4d3c56e96d29acc05ecde",
                        "amount": "1",
                        "iconUrl": "",
                        "isERC1155": false,
                        "isERC721": true,
                        "sign": true,
                        "tokenID": "791",
                        "value": ""
                    }
                ]
            },
            {
                "account": "0x0fed4d863494704043c98faaf1e603e83b6f71a2",
                "assets": [
                    {
                        "address": "0xeeeeeeeeeeeeeeeeeeeeeeeeeeeeeeeeeeeeeeee",
                        "amount": "0.21875",
                        "iconUrl": "https://assets.blocksec.com/image/1663669189317-3.png",
                        "isERC1155": false,
                        "isERC721": false,
                        "sign": true,
                        "value": "957.3965625000000159"
                    },
                    {
                        "address": "0xdd69da9a83cedc730bc4d3c56e96d29acc05ecde",
                        "amount": "1",
                        "iconUrl": "",
                        "isERC1155": false,
                        "isERC721": true,
                        "sign": false,
                        "tokenID": "791",
                        "value": ""
                    }
                ]
            },
            {
                "account": "0x5b3256965e7c3cf26e11fcaf296dfc8807c01073",
                "assets": [
                    {
                        "address": "0xeeeeeeeeeeeeeeeeeeeeeeeeeeeeeeeeeeeeeeee",
                        "amount": "0.03125",
                        "iconUrl": "https://assets.blocksec.com/image/1663669189317-3.png",
                        "isERC1155": false,
                        "isERC721": false,
                        "sign": true,
                        "value": "136.77093750000000227"
                    }
                ]
            }
        ]
    },
    "profile": {
        "basic_info": {
            "baseFee": "91.768656112",
            "blockNumber": 13688328,
            "callData": "0xab834bab0000000000000000000000007be8076f4ea4a4ad08075c2508e481d6c946d12b00000000000000000000000087c959641735c91176b04503ba562c73a33e552e0000000000000000000000000fed4d863494704043c98faaf1e603e83b6f71a20000000000000000000000000000000000000000000000000000000000000000000000000000000000000000dd69da9a83cedc730bc4d3c56e96d29acc05ecde000000000000000000000000000000000000000000000000000000000000000000000000000000000000000000000000000000000000000000000000000000000000000000000000000000007be8076f4ea4a4ad08075c2508e481d6c946d12b0000000000000000000000000fed4d863494704043c98faaf1e603e83b6f71a200000000000000000000000000000000000000000000000000000000000000000000000000000000000000005b3256965e7c3cf26e11fcaf296dfc8807c01073000000000000000000000000dd69da9a83cedc730bc4d3c56e96d29acc05ecde0000000000000000000000000000000000000000000000000000000000000000000000000000000000000000000000000000000000000000000000000000000000000000000000000000000000000000000000000000000000000000000004e200000000000000000000000000000000000000000000000000000000000000000000000000000000000000000000000000000000000000000000000000000000000000000000000000000000000000000000000000000000000000000000000000000000000000000000000000000000000000000000000003782dace9d9000000000000000000000000000000000000000000000000000000000000000000000000000000000000000000000000000000000000000000000000000061a08668000000000000000000000000000000000000000000000000000000000000000067200a525539c2dfbbf9656e5a1cfc1e9d8aee46d91fa1b913c7d6b96001d59f00000000000000000000000000000000000000000000000000000000000004e200000000000000000000000000000000000000000000000000000000000000000000000000000000000000000000000000000000000000000000000000000000000000000000000000000000000000000000000000000000000000000000000000000000000000000000000000000000000000000000000003782dace9d900000000000000000000000000000000000000000000000000000000000000000000000000000000000000000000000000000000000000000000000000006194ed2d00000000000000000000000000000000000000000000000000000000000000006ee4508f9e4820e6f57e109ab8c556ae831b942138b368f6d912dbd3d726ba080000000000000000000000000000000000000000000000000000000000000001000000000000000000000000000000000000000000000000000000000000000000000000000000000000000000000000000000000000000000000000000000000000000000000000000000000000000000000000000000000000000000000000000000000000000000000000000000000000000000000000000000000000000100000000000000000000000000000000000000000000000000000000000000010000000000000000000000000000000000000000000000000000000000000000000000000000000000000000000000000000000000000000000000000000000000000000000000000000000000000000000000000000000000000000000006a0000000000000000000000000000000000000000000000000000000000000074000000000000000000000000000000000000000000000000000000000000007e0000000000000000000000000000000000000000000000000000000000000088000000000000000000000000000000000000000000000000000000000000009200000000000000000000000000000000000000000000000000000000000000940000000000000000000000000000000000000000000000000000000000000001b000000000000000000000000000000000000000000000000000000000000001bd3a5e1201304b1cbde6d7d49efb4e9eb263c8978eb2cec711290734f085b4e195fa1fb61bb709978fde3b5be661293865b0fe6c9d9d65495fe9ee3041fc387cad3a5e1201304b1cbde6d7d49efb4e9eb263c8978eb2cec711290734f085b4e195fa1fb61bb709978fde3b5be661293865b0fe6c9d9d65495fe9ee3041fc387ca0000000000000000000000000000000000000000000000000000000000000000000000000000000000000000000000000000000000000000000000000000006423b872dd000000000000000000000000000000000000000000000000000000000000000000000000000000000000000087c959641735c91176b04503ba562c73a33e552e000000000000000000000000000000000000000000000000000000000000031700000000000000000000000000000000000000000000000000000000000000000000000000000000000000000000000000000000000000000000006423b872dd0000000000000000000000000fed4d863494704043c98faaf1e603e83b6f71a20000000000000000000000000000000000000000000000000000000000000000000000000000000000000000000000000000000000000000000000000000031700000000000000000000000000000000000000000000000000000000000000000000000000000000000000000000000000000000000000000000006400000000ffffffffffffffffffffffffffffffffffffffffffffffffffffffffffffffff00000000000000000000000000000000000000000000000000000000000000000000000000000000000000000000000000000000000000000000000000000000000000000000000000000000000000000000000000000000000000000000000000000000000000000000000000000000000000000000000000000064000000000000000000000000000000000000000000000000000000000000000000000000ffffffffffffffffffffffffffffffffffffffffffffffffffffffffffffffff00000000000000000000000000000000000000000000000000000000000000000000000000000000000000000000000000000000000000000000000000000000000000000000000000000000000000000000000000000000000000000000000000000000000000000000000000000000000000000000000000000000",
            "debugEnable": true,
            "errorInfo": "",
            "eventCount": 3,
            "feeRecipient": "0xea674fdde714fd979de3edf0f56aa9716b898ec8",
            "formatValue": "0.25",
            "gasLimit": 257458,
            "gasPrice": "92.793572003",
            "gasUsed": 193103,
            "intTxnCount": 10,
            "internalRevert": false,
            "internalRevertMessage": "",
            "isContractCreation": false,
            "isFlashloan": false,
            "maxFee": "92.793572003",
            "nonce": 0,
            "overwritedBlockNumber": -1,
            "priorityFee": "1.5",
            "receiver": "0x7be8076f4ea4a4ad08075c2508e481d6c946d12b",
            "revertMessage": "",
            "sender": "0x87c959641735c91176b04503ba562c73a33e552e",
            "simulationEnable": true,
            "sourceTxnHash": "0xf49252fc69676c98a2a0df1fdc06098723962066c8e992c48dfbce157f68f1d4",
            "status": true,
            "timestamp": "2021-11-26T07:03:59Z",
            "transactionFee": "0.017918717134495309",
            "txnHash": "0xf49252fc69676c98a2a0df1fdc06098723962066c8e992c48dfbce157f68f1d4",
            "txnIndex": 105,
            "type": 2,
            "value": "250000000000000000"
        },
        "fund_flow": [
            {
                "amount": "0.25",
                "from": "0x87c959641735c91176b04503ba562c73a33e552e",
                "id": 1,
                "isERC1155": false,
                "isERC721": false,
                "isReverted": false,
                "order": 1,
                "to": "0x7be8076f4ea4a4ad08075c2508e481d6c946d12b",
                "token": "0xeeeeeeeeeeeeeeeeeeeeeeeeeeeeeeeeeeeeeeee"
            },
            {
                "amount": "0.03125",
                "from": "0x7be8076f4ea4a4ad08075c2508e481d6c946d12b",
                "id": 2,
                "isERC1155": false,
                "isERC721": false,
                "isReverted": false,
                "order": 2,
                "to": "0x5b3256965e7c3cf26e11fcaf296dfc8807c01073",
                "token": "0xeeeeeeeeeeeeeeeeeeeeeeeeeeeeeeeeeeeeeeee"
            },
            {
                "amount": "0.21875",
                "from": "0x7be8076f4ea4a4ad08075c2508e481d6c946d12b",
                "id": 3,
                "isERC1155": false,
                "isERC721": false,
                "isReverted": false,
                "order": 3,
                "to": "0x0fed4d863494704043c98faaf1e603e83b6f71a2",
                "token": "0xeeeeeeeeeeeeeeeeeeeeeeeeeeeeeeeeeeeeeeee"
            },
            {
                "amount": "1",
                "from": "0x0fed4d863494704043c98faaf1e603e83b6f71a2",
                "id": 4,
                "isERC1155": false,
                "isERC721": true,
                "isReverted": false,
                "order": 4,
                "to": "0x87c959641735c91176b04503ba562c73a33e552e",
                "token": "0xdd69da9a83cedc730bc4d3c56e96d29acc05ecde",
                "tokenID": "791"
            }
        ],
        "token_infos": [
            {
                "address": "0xc02aaa39b223fe8d0a0e5c4f27ead9083c756cc2",
                "decimals": 18
            },
            {
                "address": "0xeeeeeeeeeeeeeeeeeeeeeeeeeeeeeeeeeeeeeeee",
                "decimals": 18
            }
        ]
    },
    "address_label": {
        "labels": [
            {
                "address": "0x0000000000000000000000000000000000000004",
                "label": "Precompiled"
            },
            {
                "address": "0x5b3256965e7c3cf26e11fcaf296dfc8807c01073",
                "label": "OpenSea: Wallet"
            },
            {
                "address": "0xdd69da9a83cedc730bc4d3c56e96d29acc05ecde",
                "label": "TIMEPieces: BABF Token"
            },
            {
                "address": "0xf9e266af4bca5890e2781812cc6a6e89495a79f2",
                "label": "AuthenticatedProxy"
            },
            {
                "address": "0x0000000000000000000000000000000000000000",
                "label": "Null Address"
            },
            {
                "address": "0x0000000000000000000000000000000000000002",
                "label": "Precompiled"
            },
            {
                "address": "0x0000000000000000000000000000000000000003",
                "label": "Precompiled"
            },
            {
                "address": "0xeeeeeeeeeeeeeeeeeeeeeeeeeeeeeeeeeeeeeeee",
                "label": "Ether"
            },
            {
                "address": "0xa5409ec958c83c3f309868babaca7c86dcb077c1",
                "label": "OpenSea: Registry"
            },
            {
                "address": "0x7be8076f4ea4a4ad08075c2508e481d6c946d12b",
                "label": "OpenSea: Wyvern Exchange v1"
            },
            {
                "address": "0x932d18456aa8a13b8415ced981a554daa304b003",
                "label": "OwnableDelegateProxy"
            },
            {
                "address": "0x0000000000000000000000000000000000000001",
                "label": "Precompiled"
            }
        ]
    },
    "trace": {
        "accountLabels": null,
        "dataMap": {
            "-1": {
                "invocation": {
                    "address": "0x87c959641735c91176b04503ba562c73a33e552e",
                    "callData": "",
                    "decodedMethod": null,
                    "errorInfo": "",
                    "fromAddress": "",
                    "gasUsed": 0,
                    "id": -1,
                    "methodDecoded": false,
                    "operation": "",
                    "output": "",
                    "revert": false,
                    "revertMessage": "",
                    "selector": "",
                    "status": false,
                    "value": ""
                },
                "nodeType": 0
            },
            "0": {
                "invocation": {
                    "address": "0x7be8076f4ea4a4ad08075c2508e481d6c946d12b",
                    "callData": "0x0000000000000000000000007be8076f4ea4a4ad08075c2508e481d6c946d12b00000000000000000000000087c959641735c91176b04503ba562c73a33e552e0000000000000000000000000fed4d863494704043c98faaf1e603e83b6f71a20000000000000000000000000000000000000000000000000000000000000000000000000000000000000000dd69da9a83cedc730bc4d3c56e96d29acc05ecde000000000000000000000000000000000000000000000000000000000000000000000000000000000000000000000000000000000000000000000000000000000000000000000000000000007be8076f4ea4a4ad08075c2508e481d6c946d12b0000000000000000000000000fed4d863494704043c98faaf1e603e83b6f71a200000000000000000000000000000000000000000000000000000000000000000000000000000000000000005b3256965e7c3cf26e11fcaf296dfc8807c01073000000000000000000000000dd69da9a83cedc730bc4d3c56e96d29acc05ecde0000000000000000000000000000000000000000000000000000000000000000000000000000000000000000000000000000000000000000000000000000000000000000000000000000000000000000000000000000000000000000000004e200000000000000000000000000000000000000000000000000000000000000000000000000000000000000000000000000000000000000000000000000000000000000000000000000000000000000000000000000000000000000000000000000000000000000000000000000000000000000000000000003782dace9d9000000000000000000000000000000000000000000000000000000000000000000000000000000000000000000000000000000000000000000000000000061a08668000000000000000000000000000000000000000000000000000000000000000067200a525539c2dfbbf9656e5a1cfc1e9d8aee46d91fa1b913c7d6b96001d59f00000000000000000000000000000000000000000000000000000000000004e200000000000000000000000000000000000000000000000000000000000000000000000000000000000000000000000000000000000000000000000000000000000000000000000000000000000000000000000000000000000000000000000000000000000000000000000000000000000000000000000003782dace9d900000000000000000000000000000000000000000000000000000000000000000000000000000000000000000000000000000000000000000000000000006194ed2d00000000000000000000000000000000000000000000000000000000000000006ee4508f9e4820e6f57e109ab8c556ae831b942138b368f6d912dbd3d726ba080000000000000000000000000000000000000000000000000000000000000001000000000000000000000000000000000000000000000000000000000000000000000000000000000000000000000000000000000000000000000000000000000000000000000000000000000000000000000000000000000000000000000000000000000000000000000000000000000000000000000000000000000000000100000000000000000000000000000000000000000000000000000000000000010000000000000000000000000000000000000000000000000000000000000000000000000000000000000000000000000000000000000000000000000000000000000000000000000000000000000000000000000000000000000000000006a0000000000000000000000000000000000000000000000000000000000000074000000000000000000000000000000000000000000000000000000000000007e0000000000000000000000000000000000000000000000000000000000000088000000000000000000000000000000000000000000000000000000000000009200000000000000000000000000000000000000000000000000000000000000940000000000000000000000000000000000000000000000000000000000000001b000000000000000000000000000000000000000000000000000000000000001bd3a5e1201304b1cbde6d7d49efb4e9eb263c8978eb2cec711290734f085b4e195fa1fb61bb709978fde3b5be661293865b0fe6c9d9d65495fe9ee3041fc387cad3a5e1201304b1cbde6d7d49efb4e9eb263c8978eb2cec711290734f085b4e195fa1fb61bb709978fde3b5be661293865b0fe6c9d9d65495fe9ee3041fc387ca0000000000000000000000000000000000000000000000000000000000000000000000000000000000000000000000000000000000000000000000000000006423b872dd000000000000000000000000000000000000000000000000000000000000000000000000000000000000000087c959641735c91176b04503ba562c73a33e552e000000000000000000000000000000000000000000000000000000000000031700000000000000000000000000000000000000000000000000000000000000000000000000000000000000000000000000000000000000000000006423b872dd0000000000000000000000000fed4d863494704043c98faaf1e603e83b6f71a20000000000000000000000000000000000000000000000000000000000000000000000000000000000000000000000000000000000000000000000000000031700000000000000000000000000000000000000000000000000000000000000000000000000000000000000000000000000000000000000000000006400000000ffffffffffffffffffffffffffffffffffffffffffffffffffffffffffffffff00000000000000000000000000000000000000000000000000000000000000000000000000000000000000000000000000000000000000000000000000000000000000000000000000000000000000000000000000000000000000000000000000000000000000000000000000000000000000000000000000000064000000000000000000000000000000000000000000000000000000000000000000000000ffffffffffffffffffffffffffffffffffffffffffffffffffffffffffffffff00000000000000000000000000000000000000000000000000000000000000000000000000000000000000000000000000000000000000000000000000000000000000000000000000000000000000000000000000000000000000000000000000000000000000000000000000000000000000000000000000000000",
                    "decodedMethod": {
                        "callParams": [
                            {
                                "name": "addrs",
                                "type": "address[14]",
                                "value": [
                                    "0x7be8076f4ea4a4ad08075c2508e481d6c946d12b",
                                    "0x87c959641735c91176b04503ba562c73a33e552e",
                                    "0x0fed4d863494704043c98faaf1e603e83b6f71a2",
                                    "0x0000000000000000000000000000000000000000",
                                    "0xdd69da9a83cedc730bc4d3c56e96d29acc05ecde",
                                    "0x0000000000000000000000000000000000000000",
                                    "0x0000000000000000000000000000000000000000",
                                    "0x7be8076f4ea4a4ad08075c2508e481d6c946d12b",
                                    "0x0fed4d863494704043c98faaf1e603e83b6f71a2",
                                    "0x0000000000000000000000000000000000000000",
                                    "0x5b3256965e7c3cf26e11fcaf296dfc8807c01073",
                                    "0xdd69da9a83cedc730bc4d3c56e96d29acc05ecde",
                                    "0x0000000000000000000000000000000000000000",
                                    "0x0000000000000000000000000000000000000000"
                                ]
                            },
                            {
                                "name": "uints",
                                "type": "uint256[18]",
                                "value": [
                                    "1,250",
                                    "0",
                                    "0",
                                    "0",
                                    "250,000,000,000,000,000",
                                    "0",
                                    "1,637,910,120",
                                    "0",
                                    "46,644,833,747,303,747,295,141,966,890,625,350,210,445,389,728,203,228,048,141,913,589,249,850,070,431",
                                    "1,250",
                                    "0",
                                    "0",
                                    "0",
                                    "250,000,000,000,000,000",
                                    "0",
                                    "1,637,149,997",
                                    "0",
                                    "50,157,810,486,577,905,033,289,224,637,612,758,233,015,863,893,438,715,938,460,195,801,943,324,932,616"
                                ]
                            },
                            {
                                "name": "feeMethodsSidesKindsHowToCalls",
                                "type": "uint8[8]",
                                "value": [
                                    "1",
                                    "0",
                                    "0",
                                    "0",
                                    "1",
                                    "1",
                                    "0",
                                    "0"
                                ]
                            },
                            {
                                "name": "calldataBuy",
                                "type": "bytes",
                                "value": "0x23b872dd000000000000000000000000000000000000000000000000000000000000000000000000000000000000000087c959641735c91176b04503ba562c73a33e552e0000000000000000000000000000000000000000000000000000000000000317"
                            },
                            {
                                "name": "calldataSell",
                                "type": "bytes",
                                "value": "0x23b872dd0000000000000000000000000fed4d863494704043c98faaf1e603e83b6f71a200000000000000000000000000000000000000000000000000000000000000000000000000000000000000000000000000000000000000000000000000000317"
                            },
                            {
                                "name": "replacementPatternBuy",
                                "type": "bytes",
                                "value": "0x00000000ffffffffffffffffffffffffffffffffffffffffffffffffffffffffffffffff00000000000000000000000000000000000000000000000000000000000000000000000000000000000000000000000000000000000000000000000000000000"
                            },
                            {
                                "name": "replacementPatternSell",
                                "type": "bytes",
                                "value": "0x000000000000000000000000000000000000000000000000000000000000000000000000ffffffffffffffffffffffffffffffffffffffffffffffffffffffffffffffff0000000000000000000000000000000000000000000000000000000000000000"
                            },
                            {
                                "name": "staticExtradataBuy",
                                "type": "bytes",
                                "value": "0x"
                            },
                            {
                                "name": "staticExtradataSell",
                                "type": "bytes",
                                "value": "0x"
                            },
                            {
                                "name": "vs",
                                "type": "uint8[2]",
                                "value": [
                                    "27",
                                    "27"
                                ]
                            },
                            {
                                "name": "rssMetadata",
                                "type": "bytes32[5]",
                                "value": [
                                    "0xd3a5e1201304b1cbde6d7d49efb4e9eb263c8978eb2cec711290734f085b4e19",
                                    "0x5fa1fb61bb709978fde3b5be661293865b0fe6c9d9d65495fe9ee3041fc387ca",
                                    "0xd3a5e1201304b1cbde6d7d49efb4e9eb263c8978eb2cec711290734f085b4e19",
                                    "0x5fa1fb61bb709978fde3b5be661293865b0fe6c9d9d65495fe9ee3041fc387ca",
                                    "0x0000000000000000000000000000000000000000000000000000000000000000"
                                ]
                            }
                        ],
                        "constructorArguments": "",
                        "name": "atomicMatch_",
                        "returnParams": [],
                        "signature": "atomicMatch_(address[14],uint256[18],uint8[8],bytes,bytes,bytes,bytes,bytes,bytes,uint8[2],bytes32[5])"
                    },
                    "errorInfo": "",
                    "fromAddress": "0x87c959641735c91176b04503ba562c73a33e552e",
                    "gasUsed": 193103,
                    "id": 0,
                    "methodDecoded": true,
                    "operation": "CALL",
                    "output": "",
                    "revert": false,
                    "revertMessage": "",
                    "selector": "0xab834bab",
                    "status": true,
                    "value": "0.25"
                },
                "nodeType": 0
            },
            "1": {
                "invocation": {
                    "address": "0x0000000000000000000000000000000000000001",
                    "callData": "0xe8e042a37a0437ea8a35c94ace1cddfef963ba11421f6e9706ec2717000000000000000000000000000000000000000000000000000000000000001bd3a5e1201304b1cbde6d7d49efb4e9eb263c8978eb2cec711290734f085b4e195fa1fb61bb709978fde3b5be661293865b0fe6c9d9d65495fe9ee3041fc387ca",
                    "decodedMethod": {
                        "callParams": [
                            {
                                "name": "hash",
                                "type": "bytes32",
                                "value": "0x9dbffb1ee8e042a37a0437ea8a35c94ace1cddfef963ba11421f6e9706ec2717"
                            },
                            {
                                "name": "v",
                                "type": "uint256",
                                "value": "27"
                            },
                            {
                                "name": "r",
                                "type": "bytes32",
                                "value": "0xd3a5e1201304b1cbde6d7d49efb4e9eb263c8978eb2cec711290734f085b4e19"
                            },
                            {
                                "name": "s",
                                "type": "bytes32",
                                "value": "0x5fa1fb61bb709978fde3b5be661293865b0fe6c9d9d65495fe9ee3041fc387ca"
                            }
                        ],
                        "constructorArguments": "",
                        "name": "ecrecover",
                        "returnParams": [
                            {
                                "name": "",
                                "type": "address",
                                "value": "0x0fed4d863494704043c98faaf1e603e83b6f71a2"
                            }
                        ],
                        "signature": "ecrecover(bytes32,uint256,bytes32,bytes32)"
                    },
                    "errorInfo": "",
                    "fromAddress": "0x7be8076f4ea4a4ad08075c2508e481d6c946d12b",
                    "gasUsed": 3000,
                    "id": 1,
                    "methodDecoded": true,
                    "operation": "CALL",
                    "output": "0x0000000000000000000000000fed4d863494704043c98faaf1e603e83b6f71a2",
                    "revert": false,
                    "revertMessage": "",
                    "selector": "0x9dbffb1e",
                    "status": true,
                    "value": "0"
                },
                "nodeType": 0
            },
            "10": {
                "invocation": {
                    "address": "0xdd69da9a83cedc730bc4d3c56e96d29acc05ecde",
                    "callData": "0x0000000000000000000000000fed4d863494704043c98faaf1e603e83b6f71a200000000000000000000000087c959641735c91176b04503ba562c73a33e552e000000000000000000000000000000000000000000000000000000000000031700000000000000000000000000000000000000000000000000000000",
                    "decodedMethod": {
                        "callParams": [
                            {
                                "name": "from",
                                "type": "address",
                                "value": "0x0fed4d863494704043c98faaf1e603e83b6f71a2"
                            },
                            {
                                "name": "to",
                                "type": "address",
                                "value": "0x87c959641735c91176b04503ba562c73a33e552e"
                            },
                            {
                                "decimalAvailable": true,
                                "name": "tokenId",
                                "type": "uint256",
                                "value": "791"
                            }
                        ],
                        "constructorArguments": "",
                        "name": "transferFrom",
                        "returnParams": [],
                        "signature": "transferFrom(address,address,uint256)"
                    },
                    "errorInfo": "",
                    "fromAddress": "0x932d18456aa8a13b8415ced981a554daa304b003",
                    "gasUsed": 43208,
                    "id": 10,
                    "methodDecoded": true,
                    "operation": "CALL",
                    "output": "",
                    "revert": false,
                    "revertMessage": "",
                    "selector": "0x23b872dd",
                    "status": true,
                    "value": "0"
                },
                "nodeType": 0
            },
            "11": {
                "event": {
                    "contract": "0xdd69da9a83cedc730bc4d3c56e96d29acc05ecde",
                    "decodedLog": {
                        "name": "Approval",
                        "params": [
                            {
                                "name": "owner",
                                "type": "address",
                                "value": "0x0fed4d863494704043c98faaf1e603e83b6f71a2"
                            },
                            {
                                "name": "approved",
                                "type": "address",
                                "value": "0x0000000000000000000000000000000000000000"
                            },
                            {
                                "decimalAvailable": true,
                                "name": "tokenId",
                                "type": "uint256",
                                "value": "791"
                            }
                        ],
                        "signature": "Approval(address,address,uint256)"
                    },
                    "id": 11,
                    "logData": "0x",
                    "logDecoded": true,
                    "operation": "EVENT",
                    "revert": false,
                    "status": true,
                    "topics": [
                        "0x8c5be1e5ebec7d5bd14f71427d1e84f3dd0314c0f7b2291e5b200ac8c7c3b925",
                        "0x0000000000000000000000000fed4d863494704043c98faaf1e603e83b6f71a2",
                        "0x0000000000000000000000000000000000000000000000000000000000000000",
                        "0x0000000000000000000000000000000000000000000000000000000000000317"
                    ]
                },
                "nodeType": 1
            },
            "12": {
                "event": {
                    "contract": "0xdd69da9a83cedc730bc4d3c56e96d29acc05ecde",
                    "decodedLog": {
                        "name": "Transfer",
                        "params": [
                            {
                                "name": "from",
                                "type": "address",
                                "value": "0x0fed4d863494704043c98faaf1e603e83b6f71a2"
                            },
                            {
                                "name": "to",
                                "type": "address",
                                "value": "0x87c959641735c91176b04503ba562c73a33e552e"
                            },
                            {
                                "decimalAvailable": true,
                                "name": "tokenId",
                                "type": "uint256",
                                "value": "791"
                            }
                        ],
                        "signature": "Transfer(address,address,uint256)"
                    },
                    "id": 12,
                    "logData": "0x",
                    "logDecoded": true,
                    "operation": "EVENT",
                    "revert": false,
                    "status": true,
                    "topics": [
                        "0xddf252ad1be2c89b69c2b068fc378daa952ba7f163c4a11628f55a4df523b3ef",
                        "0x0000000000000000000000000fed4d863494704043c98faaf1e603e83b6f71a2",
                        "0x00000000000000000000000087c959641735c91176b04503ba562c73a33e552e",
                        "0x0000000000000000000000000000000000000000000000000000000000000317"
                    ]
                },
                "nodeType": 1
            },
            "13": {
                "event": {
                    "contract": "0x7be8076f4ea4a4ad08075c2508e481d6c946d12b",
                    "decodedLog": {
                        "name": "OrdersMatched",
                        "params": [
                            {
                                "name": "maker",
                                "type": "address",
                                "value": "0x0fed4d863494704043c98faaf1e603e83b6f71a2"
                            },
                            {
                                "name": "taker",
                                "type": "address",
                                "value": "0x87c959641735c91176b04503ba562c73a33e552e"
                            },
                            {
                                "name": "metadata",
                                "type": "bytes32",
                                "value": "0x0000000000000000000000000000000000000000000000000000000000000000"
                            },
                            {
                                "name": "buyHash",
                                "type": "bytes32",
                                "value": "0x0000000000000000000000000000000000000000000000000000000000000000"
                            },
                            {
                                "name": "sellHash",
                                "type": "bytes32",
                                "value": "0x9dbffb1ee8e042a37a0437ea8a35c94ace1cddfef963ba11421f6e9706ec2717"
                            },
                            {
                                "name": "price",
                                "type": "uint256",
                                "value": "250,000,000,000,000,000"
                            }
                        ],
                        "signature": "OrdersMatched(bytes32,bytes32,address,address,uint256,bytes32)"
                    },
                    "id": 13,
                    "logData": "0x00000000000000000000000000000000000000000000000000000000000000009dbffb1ee8e042a37a0437ea8a35c94ace1cddfef963ba11421f6e9706ec271700000000000000000000000000000000000000000000000003782dace9d90000",
                    "logDecoded": true,
                    "operation": "EVENT",
                    "revert": false,
                    "status": true,
                    "topics": [
                        "0xc4109843e0b7d514e4c093114b863f8e7d8d9a458c372cd51bfe526b588006c9",
                        "0x0000000000000000000000000fed4d863494704043c98faaf1e603e83b6f71a2",
                        "0x00000000000000000000000087c959641735c91176b04503ba562c73a33e552e",
                        "0x0000000000000000000000000000000000000000000000000000000000000000"
                    ]
                },
                "nodeType": 1
            },
            "2": {
                "invocation": {
                    "address": "0xa5409ec958c83c3f309868babaca7c86dcb077c1",
                    "callData": "0x0000000000000000000000000fed4d863494704043c98faaf1e603e83b6f71a2",
                    "decodedMethod": {
                        "callParams": [
                            {
                                "name": "",
                                "type": "address",
                                "value": "0x0fed4d863494704043c98faaf1e603e83b6f71a2"
                            }
                        ],
                        "constructorArguments": "",
                        "name": "proxies",
                        "returnParams": [
                            {
                                "name": "",
                                "type": "address",
                                "value": "0x932d18456aa8a13b8415ced981a554daa304b003"
                            }
                        ],
                        "signature": "proxies(address)"
                    },
                    "errorInfo": "",
                    "fromAddress": "0x7be8076f4ea4a4ad08075c2508e481d6c946d12b",
                    "gasUsed": 2782,
                    "id": 2,
                    "methodDecoded": true,
                    "operation": "CALL",
                    "output": "0x000000000000000000000000932d18456aa8a13b8415ced981a554daa304b003",
                    "revert": false,
                    "revertMessage": "",
                    "selector": "0xc4552791",
                    "status": true,
                    "value": "0"
                },
                "nodeType": 0
            },
            "3": {
                "invocation": {
                    "address": "0xa5409ec958c83c3f309868babaca7c86dcb077c1",
                    "callData": "0x",
                    "decodedMethod": {
                        "callParams": [],
                        "constructorArguments": "",
                        "name": "delegateProxyImplementation",
                        "returnParams": [
                            {
                                "name": "",
                                "type": "address",
                                "value": "0xf9e266af4bca5890e2781812cc6a6e89495a79f2"
                            }
                        ],
                        "signature": "delegateProxyImplementation()"
                    },
                    "errorInfo": "",
                    "fromAddress": "0x7be8076f4ea4a4ad08075c2508e481d6c946d12b",
                    "gasUsed": 2613,
                    "id": 3,
                    "methodDecoded": true,
                    "operation": "CALL",
                    "output": "0x000000000000000000000000f9e266af4bca5890e2781812cc6a6e89495a79f2",
                    "revert": false,
                    "revertMessage": "",
                    "selector": "0x97204d8e",
                    "status": true,
                    "value": "0"
                },
                "nodeType": 0
            },
            "4": {
                "invocation": {
                    "address": "0x932d18456aa8a13b8415ced981a554daa304b003",
                    "callData": "0x",
                    "decodedMethod": {
                        "callParams": [],
                        "constructorArguments": "",
                        "name": "implementation",
                        "returnParams": [
                            {
                                "name": "",
                                "type": "address",
                                "value": "0xf9e266af4bca5890e2781812cc6a6e89495a79f2"
                            }
                        ],
                        "signature": "implementation()"
                    },
                    "errorInfo": "",
                    "fromAddress": "0x7be8076f4ea4a4ad08075c2508e481d6c946d12b",
                    "gasUsed": 2525,
                    "id": 4,
                    "methodDecoded": true,
                    "operation": "CALL",
                    "output": "0x000000000000000000000000f9e266af4bca5890e2781812cc6a6e89495a79f2",
                    "revert": false,
                    "revertMessage": "",
                    "selector": "0x5c60da1b",
                    "status": true,
                    "value": "0"
                },
                "nodeType": 0
            },
            "5": {
                "invocation": {
                    "address": "0x5b3256965e7c3cf26e11fcaf296dfc8807c01073",
                    "callData": "0x",
                    "decodedMethod": null,
                    "errorInfo": "",
                    "fromAddress": "0x7be8076f4ea4a4ad08075c2508e481d6c946d12b",
                    "gasUsed": 0,
                    "id": 5,
                    "methodDecoded": false,
                    "operation": "CALL",
                    "output": "",
                    "revert": false,
                    "revertMessage": "",
                    "selector": "fallback",
                    "status": true,
                    "value": "0.03125"
                },
                "nodeType": 0
            },
            "6": {
                "invocation": {
                    "address": "0x0fed4d863494704043c98faaf1e603e83b6f71a2",
                    "callData": "0x",
                    "decodedMethod": null,
                    "errorInfo": "",
                    "fromAddress": "0x7be8076f4ea4a4ad08075c2508e481d6c946d12b",
                    "gasUsed": 0,
                    "id": 6,
                    "methodDecoded": false,
                    "operation": "CALL",
                    "output": "",
                    "revert": false,
                    "revertMessage": "",
                    "selector": "fallback",
                    "status": true,
                    "value": "0.21875"
                },
                "nodeType": 0
            },
            "7": {
                "invocation": {
                    "address": "0x932d18456aa8a13b8415ced981a554daa304b003",
                    "callData": "0x000000000000000000000000dd69da9a83cedc730bc4d3c56e96d29acc05ecde00000000000000000000000000000000000000000000000000000000000000000000000000000000000000000000000000000000000000000000000000000060000000000000000000000000000000000000000000000000000000000000006423b872dd0000000000000000000000000fed4d863494704043c98faaf1e603e83b6f71a200000000000000000000000087c959641735c91176b04503ba562c73a33e552e000000000000000000000000000000000000000000000000000000000000031700000000000000000000000000000000000000000000000000000000",
                    "decodedMethod": {
                        "callParams": [
                            {
                                "name": "dest",
                                "type": "address",
                                "value": "0xdd69da9a83cedc730bc4d3c56e96d29acc05ecde"
                            },
                            {
                                "name": "howToCall",
                                "type": "uint8",
                                "value": "0"
                            },
                            {
                                "name": "calldata",
                                "type": "bytes",
                                "value": "0x23b872dd0000000000000000000000000fed4d863494704043c98faaf1e603e83b6f71a200000000000000000000000087c959641735c91176b04503ba562c73a33e552e0000000000000000000000000000000000000000000000000000000000000317"
                            }
                        ],
                        "constructorArguments": "",
                        "name": "proxy",
                        "returnParams": [
                            {
                                "name": "result",
                                "type": "bool",
                                "value": true
                            }
                        ],
                        "signature": "proxy(address,uint8,bytes)"
                    },
                    "errorInfo": "",
                    "fromAddress": "0x7be8076f4ea4a4ad08075c2508e481d6c946d12b",
                    "gasUsed": 55365,
                    "id": 7,
                    "methodDecoded": true,
                    "operation": "CALL",
                    "output": "0x0000000000000000000000000000000000000000000000000000000000000001",
                    "revert": false,
                    "revertMessage": "",
                    "selector": "0x1b0f7ba9",
                    "status": true,
                    "value": "0"
                },
                "nodeType": 0
            },
            "8": {
                "invocation": {
                    "address": "0xf9e266af4bca5890e2781812cc6a6e89495a79f2",
                    "callData": "0x000000000000000000000000dd69da9a83cedc730bc4d3c56e96d29acc05ecde00000000000000000000000000000000000000000000000000000000000000000000000000000000000000000000000000000000000000000000000000000060000000000000000000000000000000000000000000000000000000000000006423b872dd0000000000000000000000000fed4d863494704043c98faaf1e603e83b6f71a200000000000000000000000087c959641735c91176b04503ba562c73a33e552e000000000000000000000000000000000000000000000000000000000000031700000000000000000000000000000000000000000000000000000000",
                    "decodedMethod": {
                        "callParams": [
                            {
                                "name": "dest",
                                "type": "address",
                                "value": "0xdd69da9a83cedc730bc4d3c56e96d29acc05ecde"
                            },
                            {
                                "name": "howToCall",
                                "type": "uint8",
                                "value": "0"
                            },
                            {
                                "name": "calldata",
                                "type": "bytes",
                                "value": "0x23b872dd0000000000000000000000000fed4d863494704043c98faaf1e603e83b6f71a200000000000000000000000087c959641735c91176b04503ba562c73a33e552e0000000000000000000000000000000000000000000000000000000000000317"
                            }
                        ],
                        "constructorArguments": "",
                        "name": "proxy",
                        "returnParams": [
                            {
                                "name": "result",
                                "type": "bool",
                                "value": true
                            }
                        ],
                        "signature": "proxy(address,uint8,bytes)"
                    },
                    "errorInfo": "",
                    "fromAddress": "0x932d18456aa8a13b8415ced981a554daa304b003",
                    "gasUsed": 52105,
                    "id": 8,
                    "methodDecoded": true,
                    "operation": "DELEGATECALL",
                    "output": "0x0000000000000000000000000000000000000000000000000000000000000001",
                    "revert": false,
                    "revertMessage": "",
                    "selector": "0x1b0f7ba9",
                    "status": true,
                    "value": "0"
                },
                "nodeType": 0
            },
            "9": {
                "invocation": {
                    "address": "0xa5409ec958c83c3f309868babaca7c86dcb077c1",
                    "callData": "0x0000000000000000000000007be8076f4ea4a4ad08075c2508e481d6c946d12b",
                    "decodedMethod": {
                        "callParams": [
                            {
                                "name": "",
                                "type": "address",
                                "value": "0x7be8076f4ea4a4ad08075c2508e481d6c946d12b"
                            }
                        ],
                        "constructorArguments": "",
                        "name": "contracts",
                        "returnParams": [
                            {
                                "name": "",
                                "type": "bool",
                                "value": true
                            }
                        ],
                        "signature": "contracts(address)"
                    },
                    "errorInfo": "",
                    "fromAddress": "0x932d18456aa8a13b8415ced981a554daa304b003",
                    "gasUsed": 2553,
                    "id": 9,
                    "methodDecoded": true,
                    "operation": "CALL",
                    "output": "0x0000000000000000000000000000000000000000000000000000000000000001",
                    "revert": false,
                    "revertMessage": "",
                    "selector": "0x69dc9ff3",
                    "status": true,
                    "value": "0"
                },
                "nodeType": 0
            }
        },
        "gasFlame": [
            {
                "children": [
                    {
                        "children": [
                            {
                                "children": [],
                                "depth": 0,
                                "name": "Initial Gas",
                                "value": 36820
                            },
                            {
                                "children": [
                                    {
                                        "children": [],
                                        "depth": 1,
                                        "name": "ecrecover",
                                        "value": 3000
                                    },
                                    {
                                        "children": [],
                                        "depth": 1,
                                        "name": "proxies",
                                        "value": 2782
                                    },
                                    {
                                        "children": [],
                                        "depth": 1,
                                        "name": "delegateProxyImplementation",
                                        "value": 2613
                                    },
                                    {
                                        "children": [],
                                        "depth": 1,
                                        "name": "implementation",
                                        "value": 2525
                                    },
                                    {
                                        "children": [],
                                        "depth": 1,
                                        "name": "fallback",
                                        "value": 0
                                    },
                                    {
                                        "children": [],
                                        "depth": 1,
                                        "name": "fallback",
                                        "value": 0
                                    },
                                    {
                                        "children": [
                                            {
                                                "children": [
                                                    {
                                                        "children": [],
                                                        "depth": 3,
                                                        "name": "contracts",
                                                        "value": 2553
                                                    },
                                                    {
                                                        "children": [],
                                                        "depth": 3,
                                                        "name": "transferFrom",
                                                        "value": 43208
                                                    }
                                                ],
                                                "depth": 2,
                                                "name": "proxy",
                                                "value": 52105
                                            }
                                        ],
                                        "depth": 1,
                                        "name": "proxy",
                                        "value": 55365
                                    }
                                ],
                                "depth": 0,
                                "name": "Executed Gas",
                                "value": 159083
                            }
                        ],
                        "depth": -1,
                        "name": "Actual Gas Used",
                        "value": 193103
                    },
                    {
                        "children": [],
                        "depth": -1,
                        "name": "Refunded Gas",
                        "value": 2800
                    }
                ],
                "depth": -2,
                "name": "Total Gas",
                "value": 195903
            }
        ],
        "isConfirmed": true,
        "mainTrace": [
            {
                "children": [
                    {
                        "children": [
                            {
                                "children": [],
                                "depth": 1,
                                "id": 1,
                                "order": 1
                            },
                            {
                                "children": [],
                                "depth": 1,
                                "id": 2,
                                "order": 2
                            },
                            {
                                "children": [],
                                "depth": 1,
                                "id": 3,
                                "order": 3
                            },
                            {
                                "children": [],
                                "depth": 1,
                                "id": 4,
                                "order": 4
                            },
                            {
                                "children": [],
                                "depth": 1,
                                "id": 5,
                                "order": 5
                            },
                            {
                                "children": [],
                                "depth": 1,
                                "id": 6,
                                "order": 6
                            },
                            {
                                "children": [
                                    {
                                        "children": [
                                            {
                                                "children": [],
                                                "depth": 3,
                                                "id": 9,
                                                "order": 9
                                            },
                                            {
                                                "children": [
                                                    {
                                                        "children": [],
                                                        "depth": 4,
                                                        "id": 11,
                                                        "order": 11
                                                    },
                                                    {
                                                        "children": [],
                                                        "depth": 4,
                                                        "id": 12,
                                                        "order": 12
                                                    }
                                                ],
                                                "depth": 3,
                                                "id": 10,
                                                "order": 10
                                            }
                                        ],
                                        "depth": 2,
                                        "id": 8,
                                        "order": 8
                                    }
                                ],
                                "depth": 1,
                                "id": 7,
                                "order": 7
                            },
                            {
                                "children": [],
                                "depth": 1,
                                "id": 13,
                                "order": 13
                            }
                        ],
                        "depth": 0,
                        "id": 0,
                        "order": 0
                    }
                ],
                "depth": -1,
                "id": -1,
                "order": -1
            }
        ],
        "mainTraceNodeCount": 14,
        "parentIdMap": {
            "0": -1,
            "1": 0,
            "10": 8,
            "11": 10,
            "12": 10,
            "13": 0,
            "2": 0,
            "3": 0,
            "4": 0,
            "5": 0,
            "6": 0,
            "7": 0,
            "8": 7,
            "9": 8
        },
        "tidyTrace": [
            {
                "children": [
                    {
                        "children": [
                            {
                                "children": [],
                                "depth": 1,
                                "id": 1,
                                "order": 1
                            },
                            {
                                "children": [],
                                "depth": 1,
                                "id": 2,
                                "order": 2
                            },
                            {
                                "children": [],
                                "depth": 1,
                                "id": 3,
                                "order": 3
                            },
                            {
                                "children": [],
                                "depth": 1,
                                "id": 4,
                                "order": 4
                            },
                            {
                                "children": [],
                                "depth": 1,
                                "id": 5,
                                "order": 5
                            },
                            {
                                "children": [],
                                "depth": 1,
                                "id": 6,
                                "order": 6
                            },
                            {
                                "children": [
                                    {
                                        "children": [
                                            {
                                                "children": [],
                                                "depth": 3,
                                                "id": 9,
                                                "order": 9
                                            },
                                            {
                                                "children": [
                                                    {
                                                        "children": [],
                                                        "depth": 4,
                                                        "id": 11,
                                                        "order": 11
                                                    },
                                                    {
                                                        "children": [],
                                                        "depth": 4,
                                                        "id": 12,
                                                        "order": 12
                                                    }
                                                ],
                                                "depth": 3,
                                                "id": 10,
                                                "order": 10
                                            }
                                        ],
                                        "depth": 2,
                                        "id": 8,
                                        "order": 8
                                    }
                                ],
                                "depth": 1,
                                "id": 7,
                                "order": 7
                            },
                            {
                                "children": [],
                                "depth": 1,
                                "id": 13,
                                "order": 13
                            }
                        ],
                        "depth": 0,
                        "id": 0,
                        "order": 0
                    }
                ],
                "depth": -1,
                "id": -1,
                "order": -1
            }
        ],
        "tidyTraceNodeCount": 14
    },
    "state_change": {
        "stateChanges": [
            {
                "address": "0x7be8076f4ea4a4ad08075c2508e481d6c946d12b",
                "erc": "",
                "slots": [
                    {
                        "current": "0x0000000000000000000000000000000000000000000000000000000000000001",
                        "key": "0x0bc61c04fee8334683694bbb59d341bfff7c203280898235771ebb477c0395e7",
                        "prev": "0x0000000000000000000000000000000000000000000000000000000000000000"
                    }
                ],
                "storageVariables": [
                    {
                        "name": "cancelledOrFinalized",
                        "type": "mapping(bytes32 => bool)",
                        "value": {
                            "pairs": [
                                {
                                    "key": "0x9dbffb1ee8e042a37a0437ea8a35c94ace1cddfef963ba11421f6e9706ec2717",
                                    "value": {
                                        "current": "true",
                                        "prev": "false",
                                        "typeTag": 1
                                    }
                                }
                            ],
                            "typeTag": 4
                        }
                    }
                ]
            },
            {
                "address": "0xdd69da9a83cedc730bc4d3c56e96d29acc05ecde",
                "erc": "ERC-721",
                "slots": [
                    {
                        "current": "0x0000000000000000000000000000000000000000000000000000000000000001",
                        "key": "0x658c932147731e9747cf601431288fc960ce18c89a7e0b8bfd5eeafe8a4ad3ef",
                        "prev": "0x0000000000000000000000000000000000000000000000000000000000000002"
                    },
                    {
                        "current": "0x0000000000000000000000000000000000000000000000000000000000000001",
                        "key": "0xcef70adc7462487f20f7962dba4a2be81e13ef0d18befca724dd2c5b8b0239bb",
                        "prev": "0x0000000000000000000000000000000000000000000000000000000000000000"
                    },
                    {
                        "current": "0x00000000000000000000000087c959641735c91176b04503ba562c73a33e552e",
                        "key": "0xb9642bc5a02f071fa6b8a7ab128c4b221c4416ca20cce0224c48e6ad381ca509",
                        "prev": "0x0000000000000000000000000fed4d863494704043c98faaf1e603e83b6f71a2"
                    }
                ],
                "storageVariables": [
                    {
                        "name": "_balances",
                        "type": "mapping(address => uint256)",
                        "value": {
                            "pairs": [
                                {
                                    "key": "0x0fed4d863494704043c98faaf1e603e83b6f71a2",
                                    "value": {
                                        "current": "1",
                                        "prev": "2",
                                        "typeTag": 1
                                    }
                                },
                                {
                                    "key": "0x87c959641735c91176b04503ba562c73a33e552e",
                                    "value": {
                                        "current": "1",
                                        "prev": "0",
                                        "typeTag": 1
                                    }
                                }
                            ],
                            "typeTag": 4
                        }
                    },
                    {
                        "name": "_owners",
                        "type": "mapping(uint256 => address)",
                        "value": {
                            "pairs": [
                                {
                                    "key": "791",
                                    "value": {
                                        "current": "0x87c959641735c91176b04503ba562c73a33e552e",
                                        "prev": "0x0fed4d863494704043c98faaf1e603e83b6f71a2",
                                        "typeTag": 1
                                    }
                                }
                            ],
                            "typeTag": 4
                        }
                    }
                ]
            }
        ]
    }
}