{
    "balance_change": {
        "balanceChanges": [
            {
                "account": "0x42112c5d537f236216acaaef9f4cfc4ac216a76c",
                "assets": [
                    {
                        "address": "0xeeeeeeeeeeeeeeeeeeeeeeeeeeeeeeeeeeeeeeee",
                        "amount": "0.075",
                        "iconUrl": "https://assets.blocksec.com/image/1663669189317-3.png",
                        "isERC1155": false,
                        "isERC721": false,
                        "sign": false,
                        "value": "347.38560165000001234"
                    },
                    {
                        "address": "0x26eeb71350d60466ab18c8cbac1ea2d58c39c140",
                        "amount": "1",
                        "iconUrl": "https://assets.blocksec.com/nft/icon/nft_8c939f0f-f362-4f42-bd68-bf4a80111fe1.png",
                        "isERC1155": false,
                        "isERC721": true,
                        "sign": true,
                        "tokenID": "65",
                        "value": ""
                    }
                ]
            },
            {
                "account": "0x26eeb71350d60466ab18c8cbac1ea2d58c39c140",
                "assets": [
                    {
                        "address": "0xeeeeeeeeeeeeeeeeeeeeeeeeeeeeeeeeeeeeeeee",
                        "amount": "0.075",
                        "iconUrl": "https://assets.blocksec.com/image/1663669189317-3.png",
                        "isERC1155": false,
                        "isERC721": false,
                        "sign": true,
                        "value": "347.38560165000001234"
                    }
                ]
            },
            {
                "account": "0x0000000000000000000000000000000000000000",
                "assets": [
                    {
                        "address": "0x26eeb71350d60466ab18c8cbac1ea2d58c39c140",
                        "amount": "1",
                        "iconUrl": "https://assets.blocksec.com/nft/icon/nft_8c939f0f-f362-4f42-bd68-bf4a80111fe1.png",
                        "isERC1155": false,
                        "isERC721": true,
                        "sign": false,
                        "tokenID": "65",
                        "value": ""
                    }
                ]
            }
        ]
    },
    "profile": {
        "basic_info": {
            "baseFee": "109.555480521",
            "blockNumber": 13595386,
            "callData": "0xa0712d680000000000000000000000000000000000000000000000000000000000000001",
            "debugEnable": true,
            "errorInfo": "",
            "eventCount": 2,
            "feeRecipient": "0x7f101fe45e6649a6fb8f3f8b43ed03d353f2b90c",
            "formatValue": "0.075",
            "gasLimit": 437665,
            "gasPrice": "110.555480521",
            "gasUsed": 291777,
            "intTxnCount": 1,
            "internalRevert": false,
            "internalRevertMessage": "",
            "isContractCreation": false,
            "isFlashloan": false,
            "maxFee": "318.045715144",
            "nonce": 6,
            "overwritedBlockNumber": -1,
            "priorityFee": "1",
            "receiver": "0x26eeb71350d60466ab18c8cbac1ea2d58c39c140",
            "revertMessage": "",
            "sender": "0x42112c5d537f236216acaaef9f4cfc4ac216a76c",
            "simulationEnable": true,
            "sourceTxnHash": "0xf412dab5b0c5efbd2e59b1c374ac764e7f7c798b9eca939d65bdb0eec7161eb1",
            "status": true,
            "timestamp": "2021-11-11T14:13:13Z",
            "transactionFee": "0.032257546439975817",
            "txnHash": "0xf412dab5b0c5efbd2e59b1c374ac764e7f7c798b9eca939d65bdb0eec7161eb1",
            "txnIndex": 35,
            "type": 2,
            "value": "75000000000000000"
        },
        "fund_flow": [
            {
                "amount": "0.075",
                "from": "0x42112c5d537f236216acaaef9f4cfc4ac216a76c",
                "id": 1,
                "isERC1155": false,
                "isERC721": false,
                "isReverted": false,
                "order": 1,
                "to": "0x26eeb71350d60466ab18c8cbac1ea2d58c39c140",
                "token": "0xeeeeeeeeeeeeeeeeeeeeeeeeeeeeeeeeeeeeeeee"
            },
            {
                "amount": "1",
                "from": "0x0000000000000000000000000000000000000000",
                "id": 2,
                "isERC1155": false,
                "isERC721": true,
                "isReverted": false,
                "order": 2,
                "to": "0x42112c5d537f236216acaaef9f4cfc4ac216a76c",
                "token": "0x26eeb71350d60466ab18c8cbac1ea2d58c39c140",
                "tokenID": "65"
            }
        ],
        "token_infos": [
            {
                "address": "0xc02aaa39b223fe8d0a0e5c4f27ead9083c756cc2",
                "decimals": 18
            },
            {
                "address": "0xeeeeeeeeeeeeeeeeeeeeeeeeeeeeeeeeeeeeeeee",
                "decimals": 18
            }
        ]
    },
    "address_label": {
        "labels": [
            {
                "address": "0xeeeeeeeeeeeeeeeeeeeeeeeeeeeeeeeeeeeeeeee",
                "label": "Ether"
            },
            {
                "address": "0x26eeb71350d60466ab18c8cbac1ea2d58c39c140",
                "label": "Alfa Card (ALFA)"
            },
            {
                "address": "0x0000000000000000000000000000000000000001",
                "label": "Precompiled"
            },
            {
                "address": "0x0000000000000000000000000000000000000002",
                "label": "Precompiled"
            },
            {
                "address": "0x0000000000000000000000000000000000000003",
                "label": "Precompiled"
            },
            {
                "address": "0x0000000000000000000000000000000000000004",
                "label": "Precompiled"
            }
        ]
    },
    "trace": {
        "accountLabels": null,
        "dataMap": {
            "-1": {
                "invocation": {
                    "address": "0x42112c5d537f236216acaaef9f4cfc4ac216a76c",
                    "callData": "",
                    "decodedMethod": null,
                    "errorInfo": "",
                    "fromAddress": "",
                    "gasUsed": 0,
                    "id": -1,
                    "methodDecoded": false,
                    "operation": "",
                    "output": "",
                    "revert": false,
                    "revertMessage": "",
                    "selector": "",
                    "status": false,
                    "value": ""
                },
                "nodeType": 0
            },
            "0": {
                "invocation": {
                    "address": "0x26eeb71350d60466ab18c8cbac1ea2d58c39c140",
                    "callData": "0x0000000000000000000000000000000000000000000000000000000000000001",
                    "decodedMethod": {
                        "callParams": [
                            {
                                "name": "_count",
                                "type": "uint256",
                                "value": "1"
                            }
                        ],
                        "constructorArguments": "",
                        "name": "mint",
                        "returnParams": [],
                        "signature": "mint(uint256)"
                    },
                    "errorInfo": "",
                    "fromAddress": "0x42112c5d537f236216acaaef9f4cfc4ac216a76c",
                    "gasUsed": 291777,
                    "id": 0,
                    "methodDecoded": true,
                    "operation": "CALL",
                    "output": "",
                    "revert": false,
                    "revertMessage": "",
                    "selector": "0xa0712d68",
                    "status": true,
                    "value": "0.075"
                },
                "nodeType": 0
            },
            "1": {
                "event": {
                    "contract": "0x26eeb71350d60466ab18c8cbac1ea2d58c39c140",
                    "decodedLog": {
                        "name": "Transfer",
                        "params": [
                            {
                                "name": "from",
                                "type": "address",
                                "value": "0x0000000000000000000000000000000000000000"
                            },
                            {
                                "name": "to",
                                "type": "address",
                                "value": "0x42112c5d537f236216acaaef9f4cfc4ac216a76c"
                            },
                            {
                                "decimalAvailable": true,
                                "name": "tokenId",
                                "type": "uint256",
                                "value": "65"
                            }
                        ],
                        "signature": "Transfer(address,address,uint256)"
                    },
                    "id": 1,
                    "logData": "0x",
                    "logDecoded": true,
                    "operation": "EVENT",
                    "revert": false,
                    "status": true,
                    "topics": [
                        "0xddf252ad1be2c89b69c2b068fc378daa952ba7f163c4a11628f55a4df523b3ef",
                        "0x0000000000000000000000000000000000000000000000000000000000000000",
                        "0x00000000000000000000000042112c5d537f236216acaaef9f4cfc4ac216a76c",
                        "0x0000000000000000000000000000000000000000000000000000000000000041"
                    ]
                },
                "nodeType": 1
            },
            "2": {
                "invocation": {
                    "address": "0x000000000000000000636f6e736f6c652e6c6f67",
                    "callData": "0x0000000000000000000000000000000000000000000000000000000000000040000000000000000000000000000000000000000000000000000000000000004100000000000000000000000000000000000000000000000000000000000000144d696e746564204361726420772f204964202573000000000000000000000000",
                    "decodedMethod": null,
                    "errorInfo": "",
                    "fromAddress": "0x26eeb71350d60466ab18c8cbac1ea2d58c39c140",
                    "gasUsed": 0,
                    "id": 2,
                    "methodDecoded": false,
                    "operation": "STATICCALL",
                    "output": "",
                    "revert": false,
                    "revertMessage": "",
                    "selector": "0x9710a9d0",
                    "status": true,
                    "value": "0"
                },
                "nodeType": 0
            },
            "3": {
                "event": {
                    "contract": "0x26eeb71350d60466ab18c8cbac1ea2d58c39c140",
                    "decodedLog": {
                        "name": "CardCreated",
                        "params": [
                            {
                                "name": "newItemId",
                                "type": "uint256",
                                "value": "65"
                            }
                        ],
                        "signature": "CardCreated(uint256)"
                    },
                    "id": 3,
                    "logData": "0x0000000000000000000000000000000000000000000000000000000000000041",
                    "logDecoded": true,
                    "operation": "EVENT",
                    "revert": false,
                    "status": true,
                    "topics": [
                        "0x39789d91fcbc800fc359c6476eb2ce4977615b30168172087e7581c85b5ff5f2"
                    ]
                },
                "nodeType": 1
            }
        },
        "gasFlame": [
            {
                "children": [
                    {
                        "children": [
                            {
                                "children": [],
                                "depth": 0,
                                "name": "Initial Gas",
                                "value": 21204
                            },
                            {
                                "children": [
                                    {
                                        "children": [],
                                        "depth": 1,
                                        "name": "0x9710a9d0",
                                        "value": 0
                                    }
                                ],
                                "depth": 0,
                                "name": "Executed Gas",
                                "value": 270573
                            }
                        ],
                        "depth": -1,
                        "name": "Actual Gas Used",
                        "value": 291777
                    },
                    {
                        "children": [],
                        "depth": -1,
                        "name": "Refunded Gas",
                        "value": 0
                    }
                ],
                "depth": -2,
                "name": "Total Gas",
                "value": 291777
            }
        ],
        "isConfirmed": true,
        "mainTrace": [
            {
                "children": [
                    {
                        "children": [
                            {
                                "children": [],
                                "depth": 1,
                                "id": 1,
                                "order": 1
                            },
                            {
                                "children": [],
                                "depth": 1,
                                "id": 2,
                                "order": 2
                            },
                            {
                                "children": [],
                                "depth": 1,
                                "id": 3,
                                "order": 3
                            }
                        ],
                        "depth": 0,
                        "id": 0,
                        "order": 0
                    }
                ],
                "depth": -1,
                "id": -1,
                "order": -1
            }
        ],
        "mainTraceNodeCount": 4,
        "parentIdMap": {
            "0": -1,
            "1": 0,
            "2": 0,
            "3": 0
        },
        "tidyTrace": [
            {
                "children": [
                    {
                        "children": [
                            {
                                "children": [],
                                "depth": 1,
                                "id": 1,
                                "order": 1
                            },
                            {
                                "children": [],
                                "depth": 1,
                                "id": 3,
                                "order": 3
                            }
                        ],
                        "depth": 0,
                        "id": 0,
                        "order": 0
                    }
                ],
                "depth": -1,
                "id": -1,
                "order": -1
            }
        ],
        "tidyTraceNodeCount": 3
    },
    "state_change": {
        "stateChanges": [
            {
                "address": "0x26eeb71350d60466ab18c8cbac1ea2d58c39c140",
                "erc": "ERC-721",
                "slots": [
                    {
                        "current": "0x6b5a34523162744876325443483554424538564e61534b57633974526873774d",
                        "key": "0x1fd1d0bc6d28a3624d3a0b5417af9c1757e9687bf2300a850d0f80e6b35b7f4e",
                        "prev": "0x0000000000000000000000000000000000000000000000000000000000000000"
                    },
                    {
                        "current": "0x0000000000000000000000000000000000000000000000000000000000000040",
                        "key": "0xcdc85a262427559d3ee7d3901046785a36f6aa18190ff3a30be414bafef56d3a",
                        "prev": "0x0000000000000000000000000000000000000000000000000000000000000000"
                    },
                    {
                        "current": "0x0000000000000000000000000000000000000000000000000000000000000041",
                        "key": "0x8730596a6ea3ca1d499482e13bea38b1f5bfceae6e29c347cbff6175ae92f674",
                        "prev": "0x0000000000000000000000000000000000000000000000000000000000000000"
                    },
                    {
                        "current": "0x0000000000000000000000000000000000000000000000000000000000000041",
                        "key": "0x0000000000000000000000000000000000000000000000000000000000000008",
                        "prev": "0x0000000000000000000000000000000000000000000000000000000000000040"
                    },
                    {
                        "current": "0x68747470733a2f2f676174657761792e697066732e696f2f697066732f516d52",
                        "key": "0x1fd1d0bc6d28a3624d3a0b5417af9c1757e9687bf2300a850d0f80e6b35b7f4d",
                        "prev": "0x0000000000000000000000000000000000000000000000000000000000000000"
                    },
                    {
                        "current": "0x416c666120436172640000000000000000000000000000000000000000000012",
                        "key": "0x84c85efd40b589d956c4fdd38a3a85bcce836f865c52fc9518bd545577e5c9a9",
                        "prev": "0x0000000000000000000000000000000000000000000000000000000000000000"
                    },
                    {
                        "current": "0x58754a7a454c7a43573674000000000000000000000000000000000000000000",
                        "key": "0x1fd1d0bc6d28a3624d3a0b5417af9c1757e9687bf2300a850d0f80e6b35b7f4f",
                        "prev": "0x0000000000000000000000000000000000000000000000000000000000000000"
                    },
                    {
                        "current": "0x0000000000000000000000000000000000000000000000000000000000000041",
                        "key": "0x0f57b899dd6bf27ff296ed585f898c1fdbefce818bcc602f9dd6f78598e68780",
                        "prev": "0x0000000000000000000000000000000000000000000000000000000000000000"
                    },
                    {
                        "current": "0x0000000000000000000000000000000000000000000000000000000000000097",
                        "key": "0x84c85efd40b589d956c4fdd38a3a85bcce836f865c52fc9518bd545577e5c9aa",
                        "prev": "0x0000000000000000000000000000000000000000000000000000000000000000"
                    },
                    {
                        "current": "0x0000000000000000000000000000000000000000000000000000000000000041",
                        "key": "0xf3f7a9fe364faab93b216da50a3214154f22a0a2b415b23a84c8169e8b636f23",
                        "prev": "0x0000000000000000000000000000000000000000000000000000000000000000"
                    },
                    {
                        "current": "0x0000000000000000000000000000000000000000000000000000000000000001",
                        "key": "0xa97994c956af17f9344ae39a630c38d5d50429ef74becf00fc7a48845298c03f",
                        "prev": "0x0000000000000000000000000000000000000000000000000000000000000000"
                    },
                    {
                        "current": "0x0000000000000000000000000000000000000000000000000000000000000042",
                        "key": "0x000000000000000000000000000000000000000000000000000000000000000b",
                        "prev": "0x0000000000000000000000000000000000000000000000000000000000000041"
                    },
                    {
                        "current": "0x00000000000000000000000042112c5d537f236216acaaef9f4cfc4ac216a76c",
                        "key": "0x85987b95e14cde5be3e42d9efb376de14ffdece0bb4541a56f9ab965e7927edf",
                        "prev": "0x0000000000000000000000000000000000000000000000000000000000000000"
                    }
                ],
                "storageVariables": [
                    {
                        "name": "_allTokensIndex",
                        "type": "mapping(uint256 => uint256)",
                        "value": {
                            "pairs": [
                                {
                                    "key": "65",
                                    "value": {
                                        "current": "64",
                                        "prev": "0",
                                        "typeTag": 1
                                    }
                                }
                            ],
                            "typeTag": 4
                        }
                    },
                    {
                        "name": "_ownedTokens",
                        "type": "mapping(address => mapping(uint256 => uint256))",
                        "value": {
                            "pairs": [
                                {
                                    "key": "0x42112c5d537f236216acaaef9f4cfc4ac216a76c",
                                    "value": {
                                        "pairs": [
                                            {
                                                "key": "0",
                                                "value": {
                                                    "current": "65",
                                                    "prev": "0",
                                                    "typeTag": 1
                                                }
                                            }
                                        ],
                                        "typeTag": 4
                                    }
                                }
                            ],
                            "typeTag": 4
                        }
                    },
                    {
                        "name": "_balances",
                        "type": "mapping(address => uint256)",
                        "value": {
                            "pairs": [
                                {
                                    "key": "0x42112c5d537f236216acaaef9f4cfc4ac216a76c",
                                    "value": {
                                        "current": "1",
                                        "prev": "0",
                                        "typeTag": 1
                                    }
                                }
                            ],
                            "typeTag": 4
                        }
                    },
                    {
                        "name": "_tokenIds",
                        "type": "struct Counters.Counter",
                        "value": {
                            "fields": [
                                {
                                    "name": "_value",
                                    "type": "uint256",
                                    "value": {
                                        "current": "66",
                                        "prev": "65",
                                        "typeTag": 1
                                    }
                                }
                            ],
                            "typeTag": 3
                        }
                    },
                    {
                        "name": "cardHolders",
                        "type": "mapping(address => uint256)",
                        "value": {
                            "pairs": [
                                {
                                    "key": "0x42112c5d537f236216acaaef9f4cfc4ac216a76c",
                                    "value": {
                                        "current": "65",
                                        "prev": "0",
                                        "typeTag": 1
                                    }
                                }
                            ],
                            "typeTag": 4
                        }
                    },
                    {
                        "name": "nftHolderAttributes",
                        "type": "mapping(uint256 => struct AlfaCard.CardAttributes)",
                        "value": {
                            "pairs": [
                                {
                                    "key": "65",
                                    "value": {
                                        "fields": [
                                            {
                                                "name": "name",
                                                "type": "string",
                                                "value": {
                                                    "current": "Alfa Card",
                                                    "prev": "",
                                                    "typeTag": 1
                                                }
                                            },
                                            {
                                                "name": "imageURI",
                                                "type": "string",
                                                "value": {
                                                    "current": "https://gateway.ipfs.io/ipfs/QmRkZ4R1btHv2TCH5TBE8VNaSKWc9tRhswMXuJzELzCW6t",
                                                    "prev": "",
                                                    "typeTag": 1
                                                }
                                            }
                                        ],
                                        "typeTag": 3
                                    }
                                }
                            ],
                            "typeTag": 4
                        }
                    },
                    {
                        "name": "_owners",
                        "type": "mapping(uint256 => address)",
                        "value": {
                            "pairs": [
                                {
                                    "key": "65",
                                    "value": {
                                        "current": "0x42112c5d537f236216acaaef9f4cfc4ac216a76c",
                                        "prev": "0x0000000000000000000000000000000000000000",
                                        "typeTag": 1
                                    }
                                }
                            ],
                            "typeTag": 4
                        }
                    },
                    {
                        "name": "_allTokens",
                        "type": "uint256[]",
                        "value": {
                            "elemType": "uint256",
                            "elems": [
                                {
                                    "index": 64,
                                    "value": {
                                        "current": "65",
                                        "prev": "0",
                                        "typeTag": 1
                                    }
                                }
                            ],
                            "typeTag": 2
                        }
                    }
                ]
            }
        ]
    }
}