{
    "balance_change": {
        "balanceChanges": [
            {
                "account": "0xd8b93107d820d294cd8082a15c65261ee9d30790",
                "assets": [
                    {
                        "address": "0xf226e38c3007b3d974fc79bcf5a77750035436ee",
                        "amount": "20",
                        "iconUrl": "",
                        "isERC1155": false,
                        "isERC721": false,
                        "sign": false,
                        "value": ""
                    }
                ]
            },
            {
                "account": "0x0000000000000000000000000000000000000000",
                "assets": [
                    {
                        "address": "0x8853b05833029e3cf8d3cbb592f9784fa43d2a79",
                        "amount": "1",
                        "iconUrl": "",
                        "isERC1155": false,
                        "isERC721": true,
                        "sign": false,
                        "tokenID": "41847",
                        "value": ""
                    }
                ]
            },
            {
                "account": "0xa8cd4c898d9131aff0bc94d31306946fd684b7b9",
                "assets": [
                    {
                        "address": "0x8853b05833029e3cf8d3cbb592f9784fa43d2a79",
                        "amount": "1",
                        "iconUrl": "",
                        "isERC1155": false,
                        "isERC721": true,
                        "sign": true,
                        "tokenID": "41847",
                        "value": ""
                    }
                ]
            },
            {
                "account": "0xbe25ee3619472545418acb609b0ce6ca6f69bdfb",
                "assets": [
                    {
                        "address": "0xf226e38c3007b3d974fc79bcf5a77750035436ee",
                        "amount": "20",
                        "iconUrl": "",
                        "isERC1155": false,
                        "isERC721": false,
                        "sign": true,
                        "value": ""
                    }
                ]
            }
        ]
    },
    "profile": {
        "basic_info": {
            "baseFee": "",
            "blockNumber": 8795036,
            "callData": "0xee5301d5000000000000000000000000a8cd4c898d9131aff0bc94d31306946fd684b7b96e08d63173aa766968165036d67801732dfc997f80797644cc8e5ab54aa2ba09fa10609559b26da6a604555e9a5471d2ddb55690bb4f0f4ad7c2eec3520ee29100000000000000000000000000000000000000000000000000000000000000a000000000000000000000000000000000000000000000000000000000000001200000000000000000000000000000000000000000000000000000000000000003192e3bf7aa910bd281340687d79c3800974fc114202f781e6f8614f15ed803248fa07594bd3807d9e554cbb53737314042d4eb900004fa08905e4bb6e9fe59eebd31189f547f4869c1e018c77d9cbc1a0584737f8d7c5e073fbd8d4258069b54000000000000000000000000000000000000000000000000000000000000001f636f6465783a3a35646166656538366365316639393132306233313237663000",
            "debugEnable": true,
            "errorInfo": "",
            "eventCount": 4,
            "feeRecipient": "0x5a0b54d5dc17e0aadc383d2db43b0a0d3e029c4c",
            "formatValue": "0",
            "gasLimit": 377671,
            "gasPrice": "3",
            "gasUsed": 290958,
            "intTxnCount": 8,
            "internalRevert": false,
            "internalRevertMessage": "",
            "isContractCreation": false,
            "isFlashloan": false,
            "maxFee": "",
            "nonce": 21810,
            "overwritedBlockNumber": -1,
            "priorityFee": "",
            "receiver": "0xd8b93107d820d294cd8082a15c65261ee9d30790",
            "revertMessage": "",
            "sender": "0x4e57529d3630b4ad415bdedda508e40e4c632baf",
            "simulationEnable": true,
            "sourceTxnHash": "0xf45d18a00d6407de069a5aa7a46b701a1a1ae8cd23df9128786c7d7759c93b1d",
            "status": true,
            "timestamp": "2019-10-23T06:12:40Z",
            "transactionFee": "0.000872874",
            "txnHash": "0xf45d18a00d6407de069a5aa7a46b701a1a1ae8cd23df9128786c7d7759c93b1d",
            "txnIndex": 51,
            "type": 0,
            "value": "0"
        },
        "fund_flow": [
            {
                "amount": "20",
                "from": "0xd8b93107d820d294cd8082a15c65261ee9d30790",
                "id": 1,
                "isERC1155": false,
                "isERC721": false,
                "isReverted": false,
                "order": 1,
                "to": "0xbe25ee3619472545418acb609b0ce6ca6f69bdfb",
                "token": "0xf226e38c3007b3d974fc79bcf5a77750035436ee"
            },
            {
                "amount": "1",
                "from": "0x0000000000000000000000000000000000000000",
                "id": 2,
                "isERC1155": false,
                "isERC721": true,
                "isReverted": false,
                "order": 2,
                "to": "0xa8cd4c898d9131aff0bc94d31306946fd684b7b9",
                "token": "0x8853b05833029e3cf8d3cbb592f9784fa43d2a79",
                "tokenID": "41847"
            }
        ],
        "token_infos": [
            {
                "address": "0xeeeeeeeeeeeeeeeeeeeeeeeeeeeeeeeeeeeeeeee",
                "decimals": 18
            },
            {
                "address": "0xc02aaa39b223fe8d0a0e5c4f27ead9083c756cc2",
                "decimals": 18
            },
            {
                "address": "0xf226e38c3007b3d974fc79bcf5a77750035436ee",
                "decimals": 18
            }
        ]
    },
    "address_label": {
        "labels": [
            {
                "address": "0x0000000000000000000000000000000000000002",
                "label": "Precompiled"
            },
            {
                "address": "0x0000000000000000000000000000000000000004",
                "label": "Precompiled"
            },
            {
                "address": "0xeeeeeeeeeeeeeeeeeeeeeeeeeeeeeeeeeeeeeeee",
                "label": "Ether"
            },
            {
                "address": "0xf226e38c3007b3d974fc79bcf5a77750035436ee",
                "label": "CodexCoin (CODX)"
            },
            {
                "address": "0x0000000000000000000000000000000000000000",
                "label": "Null Address"
            },
            {
                "address": "0x0000000000000000000000000000000000000001",
                "label": "Precompiled"
            },
            {
                "address": "0x8853b05833029e3cf8d3cbb592f9784fa43d2a79",
                "label": "Codex Record: CR Token"
            },
            {
                "address": "0x2c00a92a9c5c919a1a4b5a8ee6bc520f61dbe421",
                "label": "CodexRecord"
            },
            {
                "address": "0x0000000000000000000000000000000000000003",
                "label": "Precompiled"
            }
        ]
    },
    "trace": {
        "accountLabels": null,
        "dataMap": {
            "-1": {
                "invocation": {
                    "address": "0x4e57529d3630b4ad415bdedda508e40e4c632baf",
                    "callData": "",
                    "decodedMethod": null,
                    "errorInfo": "",
                    "fromAddress": "",
                    "gasUsed": 0,
                    "id": -1,
                    "methodDecoded": false,
                    "operation": "",
                    "output": "",
                    "revert": false,
                    "revertMessage": "",
                    "selector": "",
                    "status": false,
                    "value": ""
                },
                "nodeType": 0
            },
            "0": {
                "invocation": {
                    "address": "0xd8b93107d820d294cd8082a15c65261ee9d30790",
                    "callData": "0x000000000000000000000000a8cd4c898d9131aff0bc94d31306946fd684b7b96e08d63173aa766968165036d67801732dfc997f80797644cc8e5ab54aa2ba09fa10609559b26da6a604555e9a5471d2ddb55690bb4f0f4ad7c2eec3520ee29100000000000000000000000000000000000000000000000000000000000000a000000000000000000000000000000000000000000000000000000000000001200000000000000000000000000000000000000000000000000000000000000003192e3bf7aa910bd281340687d79c3800974fc114202f781e6f8614f15ed803248fa07594bd3807d9e554cbb53737314042d4eb900004fa08905e4bb6e9fe59eebd31189f547f4869c1e018c77d9cbc1a0584737f8d7c5e073fbd8d4258069b54000000000000000000000000000000000000000000000000000000000000001f636f6465783a3a35646166656538366365316639393132306233313237663000",
                    "decodedMethod": {
                        "callParams": [
                            {
                                "name": "_to",
                                "type": "address",
                                "value": "0xa8cd4c898d9131aff0bc94d31306946fd684b7b9"
                            },
                            {
                                "name": "_nameHash",
                                "type": "bytes32",
                                "value": "0x6e08d63173aa766968165036d67801732dfc997f80797644cc8e5ab54aa2ba09"
                            },
                            {
                                "name": "_descriptionHash",
                                "type": "bytes32",
                                "value": "0xfa10609559b26da6a604555e9a5471d2ddb55690bb4f0f4ad7c2eec3520ee291"
                            },
                            {
                                "name": "_fileHashes",
                                "type": "bytes32[]",
                                "value": [
                                    "0x192e3bf7aa910bd281340687d79c3800974fc114202f781e6f8614f15ed80324",
                                    "0x8fa07594bd3807d9e554cbb53737314042d4eb900004fa08905e4bb6e9fe59ee",
                                    "0xbd31189f547f4869c1e018c77d9cbc1a0584737f8d7c5e073fbd8d4258069b54"
                                ]
                            },
                            {
                                "name": "_data",
                                "type": "bytes",
                                "value": "0x636f6465783a3a356461666565383663653166393931323062333132376630"
                            }
                        ],
                        "constructorArguments": "",
                        "name": "mint",
                        "returnParams": [],
                        "signature": "mint(address,bytes32,bytes32,bytes32[],bytes)"
                    },
                    "errorInfo": "",
                    "fromAddress": "0x4e57529d3630b4ad415bdedda508e40e4c632baf",
                    "gasUsed": 290958,
                    "id": 0,
                    "methodDecoded": true,
                    "operation": "CALL",
                    "output": "",
                    "revert": false,
                    "revertMessage": "",
                    "selector": "0xee5301d5",
                    "status": true,
                    "value": "0"
                },
                "nodeType": 0
            },
            "1": {
                "invocation": {
                    "address": "0x029c8f8668c2f89379e23ba27c6af9847a1ceec7",
                    "callData": "0xee5301d500000000000000000000000000000000000000000000000000000000",
                    "decodedMethod": null,
                    "errorInfo": "",
                    "fromAddress": "0xd8b93107d820d294cd8082a15c65261ee9d30790",
                    "gasUsed": 4561,
                    "id": 1,
                    "methodDecoded": false,
                    "operation": "STATICCALL",
                    "output": "0x000000000000000000000000000000000000000000000001158e460913d00000",
                    "revert": false,
                    "revertMessage": "",
                    "selector": "0xc5ae44de",
                    "status": true,
                    "value": "0"
                },
                "nodeType": 0
            },
            "10": {
                "event": {
                    "contract": "0x8853b05833029e3cf8d3cbb592f9784fa43d2a79",
                    "decodedLog": {
                        "name": "Transfer",
                        "params": [
                            {
                                "name": "from",
                                "type": "address",
                                "value": "0x0000000000000000000000000000000000000000"
                            },
                            {
                                "name": "to",
                                "type": "address",
                                "value": "0xa8cd4c898d9131aff0bc94d31306946fd684b7b9"
                            },
                            {
                                "decimalAvailable": true,
                                "name": "tokenId",
                                "type": "uint256",
                                "value": "41,847"
                            }
                        ],
                        "signature": "Transfer(address,address,uint256)"
                    },
                    "id": 10,
                    "logData": "0x",
                    "logDecoded": true,
                    "operation": "EVENT",
                    "revert": false,
                    "status": true,
                    "topics": [
                        "0xddf252ad1be2c89b69c2b068fc378daa952ba7f163c4a11628f55a4df523b3ef",
                        "0x0000000000000000000000000000000000000000000000000000000000000000",
                        "0x000000000000000000000000a8cd4c898d9131aff0bc94d31306946fd684b7b9",
                        "0x000000000000000000000000000000000000000000000000000000000000a377"
                    ]
                },
                "nodeType": 1
            },
            "11": {
                "event": {
                    "contract": "0x8853b05833029e3cf8d3cbb592f9784fa43d2a79",
                    "decodedLog": {
                        "name": "Minted",
                        "params": [
                            {
                                "name": "_tokenId",
                                "type": "uint256",
                                "value": "41,847"
                            },
                            {
                                "name": "_data",
                                "type": "bytes",
                                "value": "0x636f6465783a3a356461666565383663653166393931323062333132376630"
                            }
                        ],
                        "signature": "Minted(uint256,bytes)"
                    },
                    "id": 11,
                    "logData": "0x000000000000000000000000000000000000000000000000000000000000a3770000000000000000000000000000000000000000000000000000000000000040000000000000000000000000000000000000000000000000000000000000001f636f6465783a3a35646166656538366365316639393132306233313237663000",
                    "logDecoded": true,
                    "operation": "EVENT",
                    "revert": false,
                    "status": true,
                    "topics": [
                        "0x9573133e4bf0477d257d5e746e10de577953ee706da897be78cf668a64c16a16"
                    ]
                },
                "nodeType": 1
            },
            "12": {
                "event": {
                    "contract": "0xd8b93107d820d294cd8082a15c65261ee9d30790",
                    "decodedLog": null,
                    "id": 12,
                    "logData": "0x",
                    "logDecoded": false,
                    "operation": "EVENT",
                    "revert": false,
                    "status": true,
                    "topics": []
                },
                "nodeType": 1
            },
            "2": {
                "invocation": {
                    "address": "0x8853b05833029e3cf8d3cbb592f9784fa43d2a79",
                    "callData": "0x",
                    "decodedMethod": {
                        "callParams": [],
                        "constructorArguments": "",
                        "name": "feeRecipient",
                        "returnParams": [
                            {
                                "name": "",
                                "type": "address",
                                "value": "0x0000000000000000000000000000000000000000"
                            }
                        ],
                        "signature": "feeRecipient()"
                    },
                    "errorInfo": "",
                    "fromAddress": "0x029c8f8668c2f89379e23ba27c6af9847a1ceec7",
                    "gasUsed": 2111,
                    "id": 2,
                    "methodDecoded": true,
                    "operation": "STATICCALL",
                    "output": "0x0000000000000000000000000000000000000000000000000000000000000000",
                    "revert": false,
                    "revertMessage": "",
                    "selector": "0x46904840",
                    "status": true,
                    "value": "0"
                },
                "nodeType": 0
            },
            "3": {
                "invocation": {
                    "address": "0x2c00a92a9c5c919a1a4b5a8ee6bc520f61dbe421",
                    "callData": "0x",
                    "decodedMethod": {
                        "callParams": [],
                        "constructorArguments": "",
                        "name": "feeRecipient",
                        "returnParams": [
                            {
                                "name": "",
                                "type": "address",
                                "value": "0x0000000000000000000000000000000000000000"
                            }
                        ],
                        "signature": "feeRecipient()"
                    },
                    "errorInfo": "",
                    "fromAddress": "0x8853b05833029e3cf8d3cbb592f9784fa43d2a79",
                    "gasUsed": 823,
                    "id": 3,
                    "methodDecoded": true,
                    "operation": "DELEGATECALL",
                    "output": "0x0000000000000000000000000000000000000000000000000000000000000000",
                    "revert": false,
                    "revertMessage": "",
                    "selector": "0x46904840",
                    "status": true,
                    "value": "0"
                },
                "nodeType": 0
            },
            "4": {
                "invocation": {
                    "address": "0x029c8f8668c2f89379e23ba27c6af9847a1ceec7",
                    "callData": "0x",
                    "decodedMethod": {
                        "callParams": [],
                        "constructorArguments": "",
                        "name": "feeRecipient",
                        "returnParams": [
                            {
                                "name": "",
                                "type": "address",
                                "value": "0xbe25ee3619472545418acb609b0ce6ca6f69bdfb"
                            }
                        ],
                        "signature": "feeRecipient()"
                    },
                    "errorInfo": "",
                    "fromAddress": "0xd8b93107d820d294cd8082a15c65261ee9d30790",
                    "gasUsed": 483,
                    "id": 4,
                    "methodDecoded": true,
                    "operation": "STATICCALL",
                    "output": "0x000000000000000000000000be25ee3619472545418acb609b0ce6ca6f69bdfb",
                    "revert": false,
                    "revertMessage": "",
                    "selector": "0x46904840",
                    "status": true,
                    "value": "0"
                },
                "nodeType": 0
            },
            "5": {
                "invocation": {
                    "address": "0xf226e38c3007b3d974fc79bcf5a77750035436ee",
                    "callData": "0x000000000000000000000000be25ee3619472545418acb609b0ce6ca6f69bdfb000000000000000000000000000000000000000000000001158e460913d00000",
                    "decodedMethod": {
                        "callParams": [
                            {
                                "name": "_to",
                                "type": "address",
                                "value": "0xbe25ee3619472545418acb609b0ce6ca6f69bdfb"
                            },
                            {
                                "decimalAvailable": true,
                                "name": "_value",
                                "type": "uint256",
                                "value": "20,000,000,000,000,000,000"
                            }
                        ],
                        "constructorArguments": "",
                        "name": "transfer",
                        "returnParams": [
                            {
                                "name": "",
                                "type": "bool",
                                "value": true
                            }
                        ],
                        "signature": "transfer(address,uint256)"
                    },
                    "errorInfo": "",
                    "fromAddress": "0xd8b93107d820d294cd8082a15c65261ee9d30790",
                    "gasUsed": 14145,
                    "id": 5,
                    "methodDecoded": true,
                    "operation": "CALL",
                    "output": "0x0000000000000000000000000000000000000000000000000000000000000001",
                    "revert": false,
                    "revertMessage": "",
                    "selector": "0xa9059cbb",
                    "status": true,
                    "value": "0"
                },
                "nodeType": 0
            },
            "6": {
                "event": {
                    "contract": "0xf226e38c3007b3d974fc79bcf5a77750035436ee",
                    "decodedLog": {
                        "name": "Transfer",
                        "params": [
                            {
                                "name": "from",
                                "type": "address",
                                "value": "0xd8b93107d820d294cd8082a15c65261ee9d30790"
                            },
                            {
                                "name": "to",
                                "type": "address",
                                "value": "0xbe25ee3619472545418acb609b0ce6ca6f69bdfb"
                            },
                            {
                                "decimalAvailable": true,
                                "name": "value",
                                "type": "uint256",
                                "value": "20,000,000,000,000,000,000"
                            }
                        ],
                        "signature": "Transfer(address,address,uint256)"
                    },
                    "id": 6,
                    "logData": "0x000000000000000000000000000000000000000000000001158e460913d00000",
                    "logDecoded": true,
                    "operation": "EVENT",
                    "revert": false,
                    "status": true,
                    "topics": [
                        "0xddf252ad1be2c89b69c2b068fc378daa952ba7f163c4a11628f55a4df523b3ef",
                        "0x000000000000000000000000d8b93107d820d294cd8082a15c65261ee9d30790",
                        "0x000000000000000000000000be25ee3619472545418acb609b0ce6ca6f69bdfb"
                    ]
                },
                "nodeType": 1
            },
            "7": {
                "invocation": {
                    "address": "0x029c8f8668c2f89379e23ba27c6af9847a1ceec7",
                    "callData": "0x0000000000000000000000004e57529d3630b4ad415bdedda508e40e4c632baf",
                    "decodedMethod": null,
                    "errorInfo": "",
                    "fromAddress": "0xd8b93107d820d294cd8082a15c65261ee9d30790",
                    "gasUsed": 664,
                    "id": 7,
                    "methodDecoded": false,
                    "operation": "STATICCALL",
                    "output": "0x0000000000000000000000000000000000000000000000000000000000000001",
                    "revert": false,
                    "revertMessage": "",
                    "selector": "0xb3c2f627",
                    "status": true,
                    "value": "0"
                },
                "nodeType": 0
            },
            "8": {
                "invocation": {
                    "address": "0x8853b05833029e3cf8d3cbb592f9784fa43d2a79",
                    "callData": "0x000000000000000000000000a8cd4c898d9131aff0bc94d31306946fd684b7b96e08d63173aa766968165036d67801732dfc997f80797644cc8e5ab54aa2ba09fa10609559b26da6a604555e9a5471d2ddb55690bb4f0f4ad7c2eec3520ee29100000000000000000000000000000000000000000000000000000000000000a000000000000000000000000000000000000000000000000000000000000001200000000000000000000000000000000000000000000000000000000000000003192e3bf7aa910bd281340687d79c3800974fc114202f781e6f8614f15ed803248fa07594bd3807d9e554cbb53737314042d4eb900004fa08905e4bb6e9fe59eebd31189f547f4869c1e018c77d9cbc1a0584737f8d7c5e073fbd8d4258069b54000000000000000000000000000000000000000000000000000000000000001f636f6465783a3a35646166656538366365316639393132306233313237663000",
                    "decodedMethod": {
                        "callParams": [
                            {
                                "name": "_to",
                                "type": "address",
                                "value": "0xa8cd4c898d9131aff0bc94d31306946fd684b7b9"
                            },
                            {
                                "name": "_nameHash",
                                "type": "bytes32",
                                "value": "0x6e08d63173aa766968165036d67801732dfc997f80797644cc8e5ab54aa2ba09"
                            },
                            {
                                "name": "_descriptionHash",
                                "type": "bytes32",
                                "value": "0xfa10609559b26da6a604555e9a5471d2ddb55690bb4f0f4ad7c2eec3520ee291"
                            },
                            {
                                "name": "_fileHashes",
                                "type": "bytes32[]",
                                "value": [
                                    "0x192e3bf7aa910bd281340687d79c3800974fc114202f781e6f8614f15ed80324",
                                    "0x8fa07594bd3807d9e554cbb53737314042d4eb900004fa08905e4bb6e9fe59ee",
                                    "0xbd31189f547f4869c1e018c77d9cbc1a0584737f8d7c5e073fbd8d4258069b54"
                                ]
                            },
                            {
                                "name": "_data",
                                "type": "bytes",
                                "value": "0x636f6465783a3a356461666565383663653166393931323062333132376630"
                            }
                        ],
                        "constructorArguments": "",
                        "name": "mint",
                        "returnParams": [],
                        "signature": "mint(address,bytes32,bytes32,bytes32[],bytes)"
                    },
                    "errorInfo": "",
                    "fromAddress": "0xd8b93107d820d294cd8082a15c65261ee9d30790",
                    "gasUsed": 225615,
                    "id": 8,
                    "methodDecoded": true,
                    "operation": "CALL",
                    "output": "",
                    "revert": false,
                    "revertMessage": "",
                    "selector": "0xee5301d5",
                    "status": true,
                    "value": "0"
                },
                "nodeType": 0
            },
            "9": {
                "invocation": {
                    "address": "0x2c00a92a9c5c919a1a4b5a8ee6bc520f61dbe421",
                    "callData": "0x000000000000000000000000a8cd4c898d9131aff0bc94d31306946fd684b7b96e08d63173aa766968165036d67801732dfc997f80797644cc8e5ab54aa2ba09fa10609559b26da6a604555e9a5471d2ddb55690bb4f0f4ad7c2eec3520ee29100000000000000000000000000000000000000000000000000000000000000a000000000000000000000000000000000000000000000000000000000000001200000000000000000000000000000000000000000000000000000000000000003192e3bf7aa910bd281340687d79c3800974fc114202f781e6f8614f15ed803248fa07594bd3807d9e554cbb53737314042d4eb900004fa08905e4bb6e9fe59eebd31189f547f4869c1e018c77d9cbc1a0584737f8d7c5e073fbd8d4258069b54000000000000000000000000000000000000000000000000000000000000001f636f6465783a3a35646166656538366365316639393132306233313237663000",
                    "decodedMethod": {
                        "callParams": [
                            {
                                "name": "_to",
                                "type": "address",
                                "value": "0xa8cd4c898d9131aff0bc94d31306946fd684b7b9"
                            },
                            {
                                "name": "_nameHash",
                                "type": "bytes32",
                                "value": "0x6e08d63173aa766968165036d67801732dfc997f80797644cc8e5ab54aa2ba09"
                            },
                            {
                                "name": "_descriptionHash",
                                "type": "bytes32",
                                "value": "0xfa10609559b26da6a604555e9a5471d2ddb55690bb4f0f4ad7c2eec3520ee291"
                            },
                            {
                                "name": "_fileHashes",
                                "type": "bytes32[]",
                                "value": [
                                    "0x192e3bf7aa910bd281340687d79c3800974fc114202f781e6f8614f15ed80324",
                                    "0x8fa07594bd3807d9e554cbb53737314042d4eb900004fa08905e4bb6e9fe59ee",
                                    "0xbd31189f547f4869c1e018c77d9cbc1a0584737f8d7c5e073fbd8d4258069b54"
                                ]
                            },
                            {
                                "name": "_data",
                                "type": "bytes",
                                "value": "0x636f6465783a3a356461666565383663653166393931323062333132376630"
                            }
                        ],
                        "constructorArguments": "",
                        "name": "mint",
                        "returnParams": [],
                        "signature": "mint(address,bytes32,bytes32,bytes32[],bytes)"
                    },
                    "errorInfo": "",
                    "fromAddress": "0x8853b05833029e3cf8d3cbb592f9784fa43d2a79",
                    "gasUsed": 224264,
                    "id": 9,
                    "methodDecoded": true,
                    "operation": "DELEGATECALL",
                    "output": "",
                    "revert": false,
                    "revertMessage": "",
                    "selector": "0xee5301d5",
                    "status": true,
                    "value": "0"
                },
                "nodeType": 0
            }
        },
        "gasFlame": [
            {
                "children": [
                    {
                        "children": [
                            {
                                "children": [],
                                "depth": 0,
                                "name": "Initial Gas",
                                "value": 36376
                            },
                            {
                                "children": [
                                    {
                                        "children": [
                                            {
                                                "children": [
                                                    {
                                                        "children": [],
                                                        "depth": 3,
                                                        "name": "feeRecipient",
                                                        "value": 823
                                                    }
                                                ],
                                                "depth": 2,
                                                "name": "feeRecipient",
                                                "value": 2111
                                            }
                                        ],
                                        "depth": 1,
                                        "name": "0xc5ae44de",
                                        "value": 4561
                                    },
                                    {
                                        "children": [],
                                        "depth": 1,
                                        "name": "feeRecipient",
                                        "value": 483
                                    },
                                    {
                                        "children": [],
                                        "depth": 1,
                                        "name": "transfer",
                                        "value": 14145
                                    },
                                    {
                                        "children": [],
                                        "depth": 1,
                                        "name": "0xb3c2f627",
                                        "value": 664
                                    },
                                    {
                                        "children": [
                                            {
                                                "children": [],
                                                "depth": 2,
                                                "name": "mint",
                                                "value": 224264
                                            }
                                        ],
                                        "depth": 1,
                                        "name": "mint",
                                        "value": 225615
                                    }
                                ],
                                "depth": 0,
                                "name": "Executed Gas",
                                "value": 254582
                            }
                        ],
                        "depth": -1,
                        "name": "Actual Gas Used",
                        "value": 290958
                    },
                    {
                        "children": [],
                        "depth": -1,
                        "name": "Refunded Gas",
                        "value": 0
                    }
                ],
                "depth": -2,
                "name": "Total Gas",
                "value": 290958
            }
        ],
        "isConfirmed": true,
        "mainTrace": [
            {
                "children": [
                    {
                        "children": [
                            {
                                "children": [
                                    {
                                        "children": [
                                            {
                                                "children": [],
                                                "depth": 3,
                                                "id": 3,
                                                "order": 3
                                            }
                                        ],
                                        "depth": 2,
                                        "id": 2,
                                        "order": 2
                                    }
                                ],
                                "depth": 1,
                                "id": 1,
                                "order": 1
                            },
                            {
                                "children": [],
                                "depth": 1,
                                "id": 4,
                                "order": 4
                            },
                            {
                                "children": [
                                    {
                                        "children": [],
                                        "depth": 2,
                                        "id": 6,
                                        "order": 6
                                    }
                                ],
                                "depth": 1,
                                "id": 5,
                                "order": 5
                            },
                            {
                                "children": [],
                                "depth": 1,
                                "id": 7,
                                "order": 7
                            },
                            {
                                "children": [
                                    {
                                        "children": [
                                            {
                                                "children": [],
                                                "depth": 3,
                                                "id": 10,
                                                "order": 10
                                            },
                                            {
                                                "children": [],
                                                "depth": 3,
                                                "id": 11,
                                                "order": 11
                                            }
                                        ],
                                        "depth": 2,
                                        "id": 9,
                                        "order": 9
                                    }
                                ],
                                "depth": 1,
                                "id": 8,
                                "order": 8
                            },
                            {
                                "children": [],
                                "depth": 1,
                                "id": 12,
                                "order": 12
                            }
                        ],
                        "depth": 0,
                        "id": 0,
                        "order": 0
                    }
                ],
                "depth": -1,
                "id": -1,
                "order": -1
            }
        ],
        "mainTraceNodeCount": 13,
        "parentIdMap": {
            "0": -1,
            "1": 0,
            "10": 9,
            "11": 9,
            "12": 0,
            "2": 1,
            "3": 2,
            "4": 0,
            "5": 0,
            "6": 5,
            "7": 0,
            "8": 0,
            "9": 8
        },
        "tidyTrace": [
            {
                "children": [
                    {
                        "children": [
                            {
                                "children": [
                                    {
                                        "children": [],
                                        "depth": 2,
                                        "id": 6,
                                        "order": 6
                                    }
                                ],
                                "depth": 1,
                                "id": 5,
                                "order": 5
                            },
                            {
                                "children": [
                                    {
                                        "children": [
                                            {
                                                "children": [],
                                                "depth": 3,
                                                "id": 10,
                                                "order": 10
                                            },
                                            {
                                                "children": [],
                                                "depth": 3,
                                                "id": 11,
                                                "order": 11
                                            }
                                        ],
                                        "depth": 2,
                                        "id": 9,
                                        "order": 9
                                    }
                                ],
                                "depth": 1,
                                "id": 8,
                                "order": 8
                            },
                            {
                                "children": [],
                                "depth": 1,
                                "id": 12,
                                "order": 12
                            }
                        ],
                        "depth": 0,
                        "id": 0,
                        "order": 0
                    }
                ],
                "depth": -1,
                "id": -1,
                "order": -1
            }
        ],
        "tidyTraceNodeCount": 8
    },
    "state_change": {
        "stateChanges": [
            {
                "address": "0x8853b05833029e3cf8d3cbb592f9784fa43d2a79",
                "erc": "ERC-721",
                "slots": [
                    {
                        "current": "0xfa10609559b26da6a604555e9a5471d2ddb55690bb4f0f4ad7c2eec3520ee291",
                        "key": "0x1c8614094beac22bb88d924f89bf335f3e26d7b9613ef89f2234dc6f4374be20",
                        "prev": "0x0000000000000000000000000000000000000000000000000000000000000000"
                    },
                    {
                        "current": "0x000000000000000000000000000000000000000000000000000000000000532b",
                        "key": "0xbeb97baa63182a978b53142d25a889c4a1da0103ec196bcc9b61d91bc375722b",
                        "prev": "0x0000000000000000000000000000000000000000000000000000000000000000"
                    },
                    {
                        "current": "0x192e3bf7aa910bd281340687d79c3800974fc114202f781e6f8614f15ed80324",
                        "key": "0xcec8f29c46c918f28e1c5149607f5df5d33c9ae5bf1010f0144ac13b61436c2f",
                        "prev": "0x0000000000000000000000000000000000000000000000000000000000000000"
                    },
                    {
                        "current": "0x000000000000000000000000000000000000000000000000000000000000a377",
                        "key": "0xf3f7a9fe364faab93b216da50a3214154f22a0a2b415b23a84c8169e8b64125a",
                        "prev": "0x0000000000000000000000000000000000000000000000000000000000000000"
                    },
                    {
                        "current": "0x000000000000000000000000a8cd4c898d9131aff0bc94d31306946fd684b7b9",
                        "key": "0x3d90d10341a02061c116a8397d1c54f1cc2e6f1e4dc0f77751114bd7cdf986ed",
                        "prev": "0x0000000000000000000000000000000000000000000000000000000000000000"
                    },
                    {
                        "current": "0x000000000000000000000000000000000000000000000000000000000000a378",
                        "key": "0x0000000000000000000000000000000000000000000000000000000000000008",
                        "prev": "0x000000000000000000000000000000000000000000000000000000000000a377"
                    },
                    {
                        "current": "0xbd31189f547f4869c1e018c77d9cbc1a0584737f8d7c5e073fbd8d4258069b54",
                        "key": "0xcec8f29c46c918f28e1c5149607f5df5d33c9ae5bf1010f0144ac13b61436c31",
                        "prev": "0x0000000000000000000000000000000000000000000000000000000000000000"
                    },
                    {
                        "current": "0x000000000000000000000000000000000000000000000000000000000000532c",
                        "key": "0xb57f0c62b890e06e1dff8617073d8378f2c6b0fd8b49f16dcc7f820f15bc8442",
                        "prev": "0x000000000000000000000000000000000000000000000000000000000000532b"
                    },
                    {
                        "current": "0x6e08d63173aa766968165036d67801732dfc997f80797644cc8e5ab54aa2ba09",
                        "key": "0x1c8614094beac22bb88d924f89bf335f3e26d7b9613ef89f2234dc6f4374be1f",
                        "prev": "0x0000000000000000000000000000000000000000000000000000000000000000"
                    },
                    {
                        "current": "0x0000000000000000000000000000000000000000000000000000000000000003",
                        "key": "0x1c8614094beac22bb88d924f89bf335f3e26d7b9613ef89f2234dc6f4374be21",
                        "prev": "0x0000000000000000000000000000000000000000000000000000000000000000"
                    },
                    {
                        "current": "0x8fa07594bd3807d9e554cbb53737314042d4eb900004fa08905e4bb6e9fe59ee",
                        "key": "0xcec8f29c46c918f28e1c5149607f5df5d33c9ae5bf1010f0144ac13b61436c30",
                        "prev": "0x0000000000000000000000000000000000000000000000000000000000000000"
                    },
                    {
                        "current": "0x000000000000000000000000000000000000000000000000000000000000532c",
                        "key": "0xef4519f9248b7b18f9e2516476360f8048f038373fd3712ced30e000b09d3926",
                        "prev": "0x000000000000000000000000000000000000000000000000000000000000532b"
                    },
                    {
                        "current": "0x000000000000000000000000000000000000000000000000000000000000a377",
                        "key": "0xb444b4b04af12d2c657688ea33e526f37207035f918739be2388ed3082fd15f9",
                        "prev": "0x0000000000000000000000000000000000000000000000000000000000000000"
                    }
                ],
                "storageVariables": [
                    {
                        "name": "allTokens",
                        "type": "uint256[]",
                        "value": {
                            "elemType": "uint256",
                            "elems": [
                                {
                                    "index": 41847,
                                    "value": {
                                        "current": "41847",
                                        "prev": "0",
                                        "typeTag": 1
                                    }
                                }
                            ],
                            "typeTag": 2
                        }
                    },
                    {
                        "name": "tokenOwner",
                        "type": "mapping(uint256 => address)",
                        "value": {
                            "pairs": [
                                {
                                    "key": "41847",
                                    "value": {
                                        "current": "0xa8cd4c898d9131aff0bc94d31306946fd684b7b9",
                                        "prev": "0x0000000000000000000000000000000000000000",
                                        "typeTag": 1
                                    }
                                }
                            ],
                            "typeTag": 4
                        }
                    },
                    {
                        "name": "ownedTokensCount",
                        "type": "mapping(address => uint256)",
                        "value": {
                            "pairs": [
                                {
                                    "key": "0xa8cd4c898d9131aff0bc94d31306946fd684b7b9",
                                    "value": {
                                        "current": "21292",
                                        "prev": "21291",
                                        "typeTag": 1
                                    }
                                }
                            ],
                            "typeTag": 4
                        }
                    },
                    {
                        "name": "ownedTokensIndex",
                        "type": "mapping(uint256 => uint256)",
                        "value": {
                            "pairs": [
                                {
                                    "key": "41847",
                                    "value": {
                                        "current": "21291",
                                        "prev": "0",
                                        "typeTag": 1
                                    }
                                }
                            ],
                            "typeTag": 4
                        }
                    },
                    {
                        "name": "tokenData",
                        "type": "mapping(uint256 => struct CodexRecordMetadata.CodexRecordData)",
                        "value": {
                            "pairs": [
                                {
                                    "key": "41847",
                                    "value": {
                                        "fields": [
                                            {
                                                "name": "nameHash",
                                                "type": "bytes32",
                                                "value": {
                                                    "current": "0x6e08d63173aa766968165036d67801732dfc997f80797644cc8e5ab54aa2ba09",
                                                    "prev": "0x0000000000000000000000000000000000000000000000000000000000000000",
                                                    "typeTag": 1
                                                }
                                            },
                                            {
                                                "name": "descriptionHash",
                                                "type": "bytes32",
                                                "value": {
                                                    "current": "0xfa10609559b26da6a604555e9a5471d2ddb55690bb4f0f4ad7c2eec3520ee291",
                                                    "prev": "0x0000000000000000000000000000000000000000000000000000000000000000",
                                                    "typeTag": 1
                                                }
                                            },
                                            {
                                                "name": "fileHashes",
                                                "type": "bytes32[]",
                                                "value": {
                                                    "elemType": "bytes32",
                                                    "elems": [
                                                        {
                                                            "index": 0,
                                                            "value": {
                                                                "current": "0x192e3bf7aa910bd281340687d79c3800974fc114202f781e6f8614f15ed80324",
                                                                "prev": "0x0000000000000000000000000000000000000000000000000000000000000000",
                                                                "typeTag": 1
                                                            }
                                                        },
                                                        {
                                                            "index": 1,
                                                            "value": {
                                                                "current": "0x8fa07594bd3807d9e554cbb53737314042d4eb900004fa08905e4bb6e9fe59ee",
                                                                "prev": "0x0000000000000000000000000000000000000000000000000000000000000000",
                                                                "typeTag": 1
                                                            }
                                                        },
                                                        {
                                                            "index": 2,
                                                            "value": {
                                                                "current": "0xbd31189f547f4869c1e018c77d9cbc1a0584737f8d7c5e073fbd8d4258069b54",
                                                                "prev": "0x0000000000000000000000000000000000000000000000000000000000000000",
                                                                "typeTag": 1
                                                            }
                                                        }
                                                    ],
                                                    "typeTag": 2
                                                }
                                            }
                                        ],
                                        "typeTag": 3
                                    }
                                }
                            ],
                            "typeTag": 4
                        }
                    },
                    {
                        "name": "ownedTokens",
                        "type": "mapping(address => uint256[])",
                        "value": {
                            "pairs": [
                                {
                                    "key": "0xa8cd4c898d9131aff0bc94d31306946fd684b7b9",
                                    "value": {
                                        "elemType": "uint256",
                                        "elems": [
                                            {
                                                "index": 21291,
                                                "value": {
                                                    "current": "41847",
                                                    "prev": "0",
                                                    "typeTag": 1
                                                }
                                            }
                                        ],
                                        "typeTag": 2
                                    }
                                }
                            ],
                            "typeTag": 4
                        }
                    }
                ]
            },
            {
                "address": "0xf226e38c3007b3d974fc79bcf5a77750035436ee",
                "erc": "ERC-20",
                "slots": [
                    {
                        "current": "0x00000000000000000000000000000000000000000007e93e39ed3a2de6100000",
                        "key": "0xdee88efcd342fe5b98250b31dc441bfa9bf019ea9b55d0e763c4847a9ccc264f",
                        "prev": "0x00000000000000000000000000000000000000000007e93f4f7b8036f9e00000"
                    },
                    {
                        "current": "0x00000000000000000000000000000000000000000000a808436743d616d80000",
                        "key": "0x4f637aa1ab61f546c750f24a046aa7ff3d4eaa1d8e66e8e119d2fa014d667b83",
                        "prev": "0x00000000000000000000000000000000000000000000a8072dd8fdcd03080000"
                    }
                ],
                "storageVariables": [
                    {
                        "name": "balances",
                        "type": "mapping(address => uint256)",
                        "value": {
                            "pairs": [
                                {
                                    "key": "0xbe25ee3619472545418acb609b0ce6ca6f69bdfb",
                                    "value": {
                                        "current": "793510000000000000000000",
                                        "prev": "793490000000000000000000",
                                        "typeTag": 1
                                    }
                                },
                                {
                                    "key": "0xd8b93107d820d294cd8082a15c65261ee9d30790",
                                    "value": {
                                        "current": "9563940000000000000000000",
                                        "prev": "9563960000000000000000000",
                                        "typeTag": 1
                                    }
                                }
                            ],
                            "typeTag": 4
                        }
                    }
                ]
            }
        ]
    }
}