{
    "balance_change": {
        "balanceChanges": []
    },
    "profile": {
        "basic_info": {
            "baseFee": "",
            "blockNumber": 4321042,
            "callData": "0x0a19b14a00000000000000000000000000000000000000000000000000000000000000000000000000000000000000000000000000000000000000037aa411a741f20000000000000000000000000000b7cb1c96db6b22b0d3d9536e0108d062bd488f740000000000000000000000000000000000000000000000cdff97fabcb460000000000000000000000000000000000000000000000000000000000000004215820000000000000000000000000000000000000000000000000000000029c1de83000000000000000000000000e3bc1be80e4b6d207670c2dffd970451a7ba1c23000000000000000000000000000000000000000000000000000000000000001c481d7b2010f8f5b140e4da6b10c19388796c0f62d01a1b5f0a6b7671036c7a4f5997bd16d33b971014fe46b6a0453a60672f1b9b93d423ee4f90e1985c99513500000000000000000000000000000000000000000000000008e80a6aa1f08000",
            "debugEnable": true,
            "errorInfo": "invalid jump destination",
            "eventCount": 0,
            "feeRecipient": "0x829bd824b016326a401d083b33d092293333a830",
            "formatValue": "0",
            "gasLimit": 250000,
            "gasPrice": "20",
            "gasUsed": 250000,
            "intTxnCount": 2,
            "internalRevert": true,
            "internalRevertMessage": "",
            "isContractCreation": false,
            "isFlashloan": false,
            "maxFee": "",
            "nonce": 4,
            "overwritedBlockNumber": -1,
            "priorityFee": "",
            "receiver": "0x8d12a197cb00d4747a1fe03395095ce2a5cc6819",
            "revertMessage": "",
            "sender": "0xa82cdb32590a4a7771b8c876db8b67672bed7b53",
            "simulationEnable": true,
            "sourceTxnHash": "0xf459758ed97fc18577410aebc3a812fb6768bb85d7fdb1e5925127eb6dc3979c",
            "status": false,
            "timestamp": "2017-09-29T05:37:37Z",
            "transactionFee": "0.005",
            "txnHash": "0xf459758ed97fc18577410aebc3a812fb6768bb85d7fdb1e5925127eb6dc3979c",
            "txnIndex": 47,
            "type": 0,
            "value": "0"
        },
        "fund_flow": [],
        "token_infos": [
            {
                "address": "0xeeeeeeeeeeeeeeeeeeeeeeeeeeeeeeeeeeeeeeee",
                "decimals": 18
            },
            {
                "address": "0xc02aaa39b223fe8d0a0e5c4f27ead9083c756cc2",
                "decimals": 18
            }
        ]
    },
    "address_label": {
        "labels": [
            {
                "address": "0x0000000000000000000000000000000000000003",
                "label": "Precompiled"
            },
            {
                "address": "0x0000000000000000000000000000000000000004",
                "label": "Precompiled"
            },
            {
                "address": "0xeeeeeeeeeeeeeeeeeeeeeeeeeeeeeeeeeeeeeeee",
                "label": "Ether"
            },
            {
                "address": "0x8d12a197cb00d4747a1fe03395095ce2a5cc6819",
                "label": "EtherDelta"
            },
            {
                "address": "0x0000000000000000000000000000000000000002",
                "label": "Precompiled"
            },
            {
                "address": "0xb7cb1c96db6b22b0d3d9536e0108d062bd488f74",
                "label": "Waltonchain Token"
            },
            {
                "address": "0x0000000000000000000000000000000000000000",
                "label": "Null Address"
            },
            {
                "address": "0x0000000000000000000000000000000000000001",
                "label": "Precompiled"
            }
        ]
    },
    "trace": {
        "accountLabels": null,
        "dataMap": {
            "-1": {
                "invocation": {
                    "address": "0xa82cdb32590a4a7771b8c876db8b67672bed7b53",
                    "callData": "",
                    "decodedMethod": null,
                    "errorInfo": "",
                    "fromAddress": "",
                    "gasUsed": 0,
                    "id": -1,
                    "methodDecoded": false,
                    "operation": "",
                    "output": "",
                    "revert": false,
                    "revertMessage": "",
                    "selector": "",
                    "status": false,
                    "value": ""
                },
                "nodeType": 0
            },
            "0": {
                "invocation": {
                    "address": "0x8d12a197cb00d4747a1fe03395095ce2a5cc6819",
                    "callData": "0x00000000000000000000000000000000000000000000000000000000000000000000000000000000000000000000000000000000000000037aa411a741f20000000000000000000000000000b7cb1c96db6b22b0d3d9536e0108d062bd488f740000000000000000000000000000000000000000000000cdff97fabcb460000000000000000000000000000000000000000000000000000000000000004215820000000000000000000000000000000000000000000000000000000029c1de83000000000000000000000000e3bc1be80e4b6d207670c2dffd970451a7ba1c23000000000000000000000000000000000000000000000000000000000000001c481d7b2010f8f5b140e4da6b10c19388796c0f62d01a1b5f0a6b7671036c7a4f5997bd16d33b971014fe46b6a0453a60672f1b9b93d423ee4f90e1985c99513500000000000000000000000000000000000000000000000008e80a6aa1f08000",
                    "decodedMethod": {
                        "callParams": [
                            {
                                "name": "tokenGet",
                                "type": "address",
                                "value": "0x0000000000000000000000000000000000000000"
                            },
                            {
                                "name": "amountGet",
                                "type": "uint256",
                                "value": "64,177,440,000,000,000,000"
                            },
                            {
                                "name": "tokenGive",
                                "type": "address",
                                "value": "0xb7cb1c96db6b22b0d3d9536e0108d062bd488f74"
                            },
                            {
                                "name": "amountGive",
                                "type": "uint256",
                                "value": "3,800,000,000,000,000,000,000"
                            },
                            {
                                "name": "expires",
                                "type": "uint256",
                                "value": "4,330,882"
                            },
                            {
                                "name": "nonce",
                                "type": "uint256",
                                "value": "700,571,267"
                            },
                            {
                                "name": "user",
                                "type": "address",
                                "value": "0xe3bc1be80e4b6d207670c2dffd970451a7ba1c23"
                            },
                            {
                                "name": "v",
                                "type": "uint8",
                                "value": "28"
                            },
                            {
                                "name": "r",
                                "type": "bytes32",
                                "value": "0x481d7b2010f8f5b140e4da6b10c19388796c0f62d01a1b5f0a6b7671036c7a4f"
                            },
                            {
                                "name": "s",
                                "type": "bytes32",
                                "value": "0x5997bd16d33b971014fe46b6a0453a60672f1b9b93d423ee4f90e1985c995135"
                            },
                            {
                                "name": "amount",
                                "type": "uint256",
                                "value": "641,774,400,000,000,000"
                            }
                        ],
                        "constructorArguments": "",
                        "name": "trade",
                        "returnParams": [],
                        "signature": "trade(address,uint256,address,uint256,uint256,uint256,address,uint8,bytes32,bytes32,uint256)"
                    },
                    "errorInfo": "invalid jump destination",
                    "fromAddress": "0xa82cdb32590a4a7771b8c876db8b67672bed7b53",
                    "gasUsed": 250000,
                    "id": 0,
                    "methodDecoded": true,
                    "operation": "CALL",
                    "output": "",
                    "revert": true,
                    "revertMessage": "",
                    "selector": "0x0a19b14a",
                    "status": false,
                    "value": "0"
                },
                "nodeType": 0
            },
            "1": {
                "invocation": {
                    "address": "0x0000000000000000000000000000000000000002",
                    "callData": "0xcb00d4747a1fe03395095ce2a5cc681900000000000000000000000000000000000000000000000000000000000000000000000000000000000000037aa411a741f20000b7cb1c96db6b22b0d3d9536e0108d062bd488f740000000000000000000000000000000000000000000000cdff97fabcb460000000000000000000000000000000000000000000000000000000000000004215820000000000000000000000000000000000000000000000000000000029c1de83",
                    "decodedMethod": {
                        "callParams": [
                            {
                                "name": "data",
                                "type": "bytes",
                                "value": "0x8d12a197cb00d4747a1fe03395095ce2a5cc681900000000000000000000000000000000000000000000000000000000000000000000000000000000000000037aa411a741f20000b7cb1c96db6b22b0d3d9536e0108d062bd488f740000000000000000000000000000000000000000000000cdff97fabcb460000000000000000000000000000000000000000000000000000000000000004215820000000000000000000000000000000000000000000000000000000029c1de83"
                            }
                        ],
                        "constructorArguments": "",
                        "name": "sha256hash",
                        "returnParams": [
                            {
                                "name": "hash",
                                "type": "bytes32",
                                "value": "0xc1fd8c7c896f26163107196623a0abd8cc2ae5dfb06f845eb49fe595d9369d82"
                            }
                        ],
                        "signature": "sha256hash(bytes)"
                    },
                    "errorInfo": "",
                    "fromAddress": "0x8d12a197cb00d4747a1fe03395095ce2a5cc6819",
                    "gasUsed": 132,
                    "id": 1,
                    "methodDecoded": true,
                    "operation": "CALL",
                    "output": "0xc1fd8c7c896f26163107196623a0abd8cc2ae5dfb06f845eb49fe595d9369d82",
                    "revert": true,
                    "revertMessage": "",
                    "selector": "0x8d12a197",
                    "status": true,
                    "value": "0"
                },
                "nodeType": 0
            },
            "2": {
                "invocation": {
                    "address": "0x0000000000000000000000000000000000000001",
                    "callData": "0xfa36ac56efdd6f81f7b0ca7331658e4e44337958170ae3231d00816f000000000000000000000000000000000000000000000000000000000000001c481d7b2010f8f5b140e4da6b10c19388796c0f62d01a1b5f0a6b7671036c7a4f5997bd16d33b971014fe46b6a0453a60672f1b9b93d423ee4f90e1985c995135",
                    "decodedMethod": {
                        "callParams": [
                            {
                                "name": "hash",
                                "type": "bytes32",
                                "value": "0x76248eb8fa36ac56efdd6f81f7b0ca7331658e4e44337958170ae3231d00816f"
                            },
                            {
                                "name": "v",
                                "type": "uint256",
                                "value": "28"
                            },
                            {
                                "name": "r",
                                "type": "bytes32",
                                "value": "0x481d7b2010f8f5b140e4da6b10c19388796c0f62d01a1b5f0a6b7671036c7a4f"
                            },
                            {
                                "name": "s",
                                "type": "bytes32",
                                "value": "0x5997bd16d33b971014fe46b6a0453a60672f1b9b93d423ee4f90e1985c995135"
                            }
                        ],
                        "constructorArguments": "",
                        "name": "ecrecover",
                        "returnParams": [
                            {
                                "name": "",
                                "type": "address",
                                "value": "0xe3bc1be80e4b6d207670c2dffd970451a7ba1c23"
                            }
                        ],
                        "signature": "ecrecover(bytes32,uint256,bytes32,bytes32)"
                    },
                    "errorInfo": "",
                    "fromAddress": "0x8d12a197cb00d4747a1fe03395095ce2a5cc6819",
                    "gasUsed": 3000,
                    "id": 2,
                    "methodDecoded": true,
                    "operation": "CALL",
                    "output": "0x000000000000000000000000e3bc1be80e4b6d207670c2dffd970451a7ba1c23",
                    "revert": true,
                    "revertMessage": "",
                    "selector": "0x76248eb8",
                    "status": true,
                    "value": "0"
                },
                "nodeType": 0
            }
        },
        "gasFlame": [
            {
                "children": [
                    {
                        "children": [
                            {
                                "children": [],
                                "depth": 0,
                                "name": "Initial Gas",
                                "value": 31192
                            },
                            {
                                "children": [
                                    {
                                        "children": [],
                                        "depth": 1,
                                        "name": "sha256hash",
                                        "value": 132
                                    },
                                    {
                                        "children": [],
                                        "depth": 1,
                                        "name": "ecrecover",
                                        "value": 3000
                                    }
                                ],
                                "depth": 0,
                                "name": "Executed Gas",
                                "value": 218808
                            }
                        ],
                        "depth": -1,
                        "name": "Actual Gas Used",
                        "value": 250000
                    },
                    {
                        "children": [],
                        "depth": -1,
                        "name": "Refunded Gas",
                        "value": 0
                    }
                ],
                "depth": -2,
                "name": "Total Gas",
                "value": 250000
            }
        ],
        "isConfirmed": true,
        "mainTrace": [
            {
                "children": [
                    {
                        "children": [
                            {
                                "children": [],
                                "depth": 1,
                                "id": 1,
                                "order": 1
                            },
                            {
                                "children": [],
                                "depth": 1,
                                "id": 2,
                                "order": 2
                            }
                        ],
                        "depth": 0,
                        "id": 0,
                        "order": 0
                    }
                ],
                "depth": -1,
                "id": -1,
                "order": -1
            }
        ],
        "mainTraceNodeCount": 3,
        "parentIdMap": {
            "0": -1,
            "1": 0,
            "2": 0
        },
        "tidyTrace": [
            {
                "children": [
                    {
                        "children": [
                            {
                                "children": [],
                                "depth": 1,
                                "id": 1,
                                "order": 1
                            },
                            {
                                "children": [],
                                "depth": 1,
                                "id": 2,
                                "order": 2
                            }
                        ],
                        "depth": 0,
                        "id": 0,
                        "order": 0
                    }
                ],
                "depth": -1,
                "id": -1,
                "order": -1
            }
        ],
        "tidyTraceNodeCount": 3
    },
    "state_change": {
        "stateChanges": []
    }
}