{
    "balance_change": {
        "balanceChanges": [
            {
                "account": "0xc16157e00b1bff1522c6f01246b4fb621da048d0",
                "assets": [
                    {
                        "address": "0xeeeeeeeeeeeeeeeeeeeeeeeeeeeeeeeeeeeeeeee",
                        "amount": "0.153313",
                        "iconUrl": "https://assets.blocksec.com/image/1663669189317-3.png",
                        "isERC1155": false,
                        "isERC721": false,
                        "sign": false,
                        "value": "500.6282702"
                    }
                ]
            },
            {
                "account": "0x72896938a32ccbd9e3bd68057e7f9b88217a5898",
                "assets": [
                    {
                        "address": "0xeeeeeeeeeeeeeeeeeeeeeeeeeeeeeeeeeeeeeeee",
                        "amount": "0.153313",
                        "iconUrl": "https://assets.blocksec.com/image/1663669189317-3.png",
                        "isERC1155": false,
                        "isERC721": false,
                        "sign": true,
                        "value": "500.6282702"
                    }
                ]
            }
        ]
    },
    "profile": {
        "basic_info": {
            "baseFee": "12.559421593",
            "blockNumber": 19659771,
            "callData": "0xcce7ec13000000000000000000000000d549762edee2b9d79624421b87721d5d005c1a680000000000000000000000000000000000000000000000000000000000007e02",
            "debugEnable": true,
            "errorInfo": "",
            "eventCount": 2,
            "feeRecipient": "0x4838b106fce9647bdf1e7877bf73ce8b0bad5f97",
            "formatValue": "0.153313",
            "gasLimit": 69763,
            "gasPrice": "13.143626697",
            "gasUsed": 62590,
            "intTxnCount": 2,
            "internalRevert": false,
            "internalRevertMessage": "",
            "isContractCreation": false,
            "isFlashloan": false,
            "maxFee": "15.027539936",
            "nonce": 125514,
            "overwritedBlockNumber": -1,
            "priorityFee": "0.584205104",
            "receiver": "0x36e0feb38deffab960bc721104edf6f7216786ba",
            "revertMessage": "",
            "sender": "0xc16157e00b1bff1522c6f01246b4fb621da048d0",
            "simulationEnable": true,
            "sourceTxnHash": "0xf460e9963e241ae575bdb43ce74cfb0cb641bf2f572598c670afc6d5332e204c",
            "status": true,
            "timestamp": "2024-04-15T08:37:59Z",
            "transactionFee": "0.00082265959496523",
            "txnHash": "0xf460e9963e241ae575bdb43ce74cfb0cb641bf2f572598c670afc6d5332e204c",
            "txnIndex": 32,
            "type": 2,
            "value": "153313000000000000"
        },
        "fund_flow": [
            {
                "amount": "0.153313",
                "from": "0xc16157e00b1bff1522c6f01246b4fb621da048d0",
                "id": 1,
                "isERC1155": false,
                "isERC721": false,
                "isReverted": false,
                "order": 1,
                "to": "0x36e0feb38deffab960bc721104edf6f7216786ba",
                "token": "0xeeeeeeeeeeeeeeeeeeeeeeeeeeeeeeeeeeeeeeee"
            },
            {
                "amount": "0.153313",
                "from": "0x36e0feb38deffab960bc721104edf6f7216786ba",
                "id": 2,
                "isERC1155": false,
                "isERC721": false,
                "isReverted": false,
                "order": 2,
                "to": "0x72896938a32ccbd9e3bd68057e7f9b88217a5898",
                "token": "0xeeeeeeeeeeeeeeeeeeeeeeeeeeeeeeeeeeeeeeee"
            }
        ],
        "token_infos": [
            {
                "address": "0xc02aaa39b223fe8d0a0e5c4f27ead9083c756cc2",
                "decimals": 18
            },
            {
                "address": "0xeeeeeeeeeeeeeeeeeeeeeeeeeeeeeeeeeeeeeeee",
                "decimals": 18
            }
        ]
    },
    "address_label": {
        "labels": [
            {
                "address": "0x0000000000000000000000000000000000000003",
                "label": "Precompiled"
            },
            {
                "address": "0x0000000000000000000000000000000000000004",
                "label": "Precompiled"
            },
            {
                "address": "0xeeeeeeeeeeeeeeeeeeeeeeeeeeeeeeeeeeeeeeee",
                "label": "Ether"
            },
            {
                "address": "0x72896938a32ccbd9e3bd68057e7f9b88217a5898",
                "label": "GnosisSafeProxy_7289_5898"
            },
            {
                "address": "0xd9db270c1b5e3bd161e8c8503c55ceabee709552",
                "label": "Safe: Singleton 1.3.0"
            },
            {
                "address": "0x36e0feb38deffab960bc721104edf6f7216786ba",
                "label": "BuyWithFiat"
            },
            {
                "address": "0x0000000000000000000000000000000000000001",
                "label": "Precompiled"
            },
            {
                "address": "0x0000000000000000000000000000000000000002",
                "label": "Precompiled"
            }
        ]
    },
    "trace": {
        "accountLabels": null,
        "dataMap": {
            "-1": {
                "invocation": {
                    "address": "0xc16157e00b1bff1522c6f01246b4fb621da048d0",
                    "callData": "",
                    "decodedMethod": null,
                    "errorInfo": "",
                    "fromAddress": "",
                    "gasUsed": 0,
                    "id": -1,
                    "methodDecoded": false,
                    "operation": "",
                    "output": "",
                    "revert": false,
                    "revertMessage": "",
                    "selector": "",
                    "status": false,
                    "value": ""
                },
                "nodeType": 0
            },
            "0": {
                "invocation": {
                    "address": "0x36e0feb38deffab960bc721104edf6f7216786ba",
                    "callData": "0x000000000000000000000000d549762edee2b9d79624421b87721d5d005c1a680000000000000000000000000000000000000000000000000000000000007e02",
                    "decodedMethod": {
                        "callParams": [
                            {
                                "name": "wallet",
                                "type": "address",
                                "value": "0xd549762edee2b9d79624421b87721d5d005c1a68"
                            },
                            {
                                "name": "memeAmount",
                                "type": "uint256",
                                "value": "32,258"
                            }
                        ],
                        "constructorArguments": "",
                        "name": "buy",
                        "returnParams": [],
                        "signature": "buy(address,uint256)"
                    },
                    "errorInfo": "",
                    "fromAddress": "0xc16157e00b1bff1522c6f01246b4fb621da048d0",
                    "gasUsed": 62590,
                    "id": 0,
                    "methodDecoded": true,
                    "operation": "CALL",
                    "output": "",
                    "revert": false,
                    "revertMessage": "",
                    "selector": "0xcce7ec13",
                    "status": true,
                    "value": "0.153313"
                },
                "nodeType": 0
            },
            "1": {
                "event": {
                    "contract": "0x36e0feb38deffab960bc721104edf6f7216786ba",
                    "decodedLog": {
                        "name": "Buy",
                        "params": [
                            {
                                "name": "wallet",
                                "type": "address",
                                "value": "0xd549762edee2b9d79624421b87721d5d005c1a68"
                            },
                            {
                                "name": "memeAmount",
                                "type": "uint256",
                                "value": "32,258"
                            },
                            {
                                "name": "ethAmount",
                                "type": "uint256",
                                "value": "153,313,000,000,000,000"
                            }
                        ],
                        "signature": "Buy(address,uint256,uint256)"
                    },
                    "id": 1,
                    "logData": "0x000000000000000000000000d549762edee2b9d79624421b87721d5d005c1a680000000000000000000000000000000000000000000000000000000000007e020000000000000000000000000000000000000000000000000220ad5c78731000",
                    "logDecoded": true,
                    "operation": "EVENT",
                    "revert": false,
                    "status": true,
                    "topics": [
                        "0x1cbc5ab135991bd2b6a4b034a04aa2aa086dac1371cb9b16b8b5e2ed6b036bed"
                    ]
                },
                "nodeType": 1
            },
            "2": {
                "invocation": {
                    "address": "0x72896938a32ccbd9e3bd68057e7f9b88217a5898",
                    "callData": "0x",
                    "decodedMethod": null,
                    "errorInfo": "",
                    "fromAddress": "0x36e0feb38deffab960bc721104edf6f7216786ba",
                    "gasUsed": 6329,
                    "id": 2,
                    "methodDecoded": false,
                    "operation": "CALL",
                    "output": "",
                    "revert": false,
                    "revertMessage": "",
                    "selector": "fallback",
                    "status": true,
                    "value": "0.153313"
                },
                "nodeType": 0
            },
            "3": {
                "invocation": {
                    "address": "0xd9db270c1b5e3bd161e8c8503c55ceabee709552",
                    "callData": "0x",
                    "decodedMethod": null,
                    "errorInfo": "",
                    "fromAddress": "0x72896938a32ccbd9e3bd68057e7f9b88217a5898",
                    "gasUsed": 1504,
                    "id": 3,
                    "methodDecoded": false,
                    "operation": "DELEGATECALL",
                    "output": "",
                    "revert": false,
                    "revertMessage": "",
                    "selector": "fallback",
                    "status": true,
                    "value": "0.153313"
                },
                "nodeType": 0
            },
            "4": {
                "event": {
                    "contract": "0x72896938a32ccbd9e3bd68057e7f9b88217a5898",
                    "decodedLog": {
                        "name": "SafeReceived",
                        "params": [
                            {
                                "name": "sender",
                                "type": "address",
                                "value": "0x36e0feb38deffab960bc721104edf6f7216786ba"
                            },
                            {
                                "name": "value",
                                "type": "uint256",
                                "value": "153,313,000,000,000,000"
                            }
                        ],
                        "signature": "SafeReceived(address,uint256)"
                    },
                    "id": 4,
                    "logData": "0x0000000000000000000000000000000000000000000000000220ad5c78731000",
                    "logDecoded": true,
                    "operation": "EVENT",
                    "revert": false,
                    "status": true,
                    "topics": [
                        "0x3d0ce9bfc3ed7d6862dbb28b2dea94561fe714a1b4d019aa8af39730d1ad7c3d",
                        "0x00000000000000000000000036e0feb38deffab960bc721104edf6f7216786ba"
                    ]
                },
                "nodeType": 1
            }
        },
        "gasFlame": [
            {
                "children": [
                    {
                        "children": [
                            {
                                "children": [],
                                "depth": 0,
                                "name": "Initial Gas",
                                "value": 21572
                            },
                            {
                                "children": [
                                    {
                                        "children": [
                                            {
                                                "children": [],
                                                "depth": 2,
                                                "name": "fallback",
                                                "value": 1504
                                            }
                                        ],
                                        "depth": 1,
                                        "name": "fallback",
                                        "value": 6329
                                    }
                                ],
                                "depth": 0,
                                "name": "Executed Gas",
                                "value": 41018
                            }
                        ],
                        "depth": -1,
                        "name": "Actual Gas Used",
                        "value": 62590
                    },
                    {
                        "children": [],
                        "depth": -1,
                        "name": "Refunded Gas",
                        "value": 0
                    }
                ],
                "depth": -2,
                "name": "Total Gas",
                "value": 62590
            }
        ],
        "isConfirmed": true,
        "mainTrace": [
            {
                "children": [
                    {
                        "children": [
                            {
                                "children": [],
                                "depth": 1,
                                "id": 1,
                                "order": 1
                            },
                            {
                                "children": [
                                    {
                                        "children": [
                                            {
                                                "children": [],
                                                "depth": 3,
                                                "id": 4,
                                                "order": 4
                                            }
                                        ],
                                        "depth": 2,
                                        "id": 3,
                                        "order": 3
                                    }
                                ],
                                "depth": 1,
                                "id": 2,
                                "order": 2
                            }
                        ],
                        "depth": 0,
                        "id": 0,
                        "order": 0
                    }
                ],
                "depth": -1,
                "id": -1,
                "order": -1
            }
        ],
        "mainTraceNodeCount": 5,
        "parentIdMap": {
            "0": -1,
            "1": 0,
            "2": 0,
            "3": 2,
            "4": 3
        },
        "tidyTrace": [
            {
                "children": [
                    {
                        "children": [
                            {
                                "children": [],
                                "depth": 1,
                                "id": 1,
                                "order": 1
                            },
                            {
                                "children": [
                                    {
                                        "children": [
                                            {
                                                "children": [],
                                                "depth": 3,
                                                "id": 4,
                                                "order": 4
                                            }
                                        ],
                                        "depth": 2,
                                        "id": 3,
                                        "order": 3
                                    }
                                ],
                                "depth": 1,
                                "id": 2,
                                "order": 2
                            }
                        ],
                        "depth": 0,
                        "id": 0,
                        "order": 0
                    }
                ],
                "depth": -1,
                "id": -1,
                "order": -1
            }
        ],
        "tidyTraceNodeCount": 5
    },
    "state_change": {
        "stateChanges": [
            {
                "address": "0x36e0feb38deffab960bc721104edf6f7216786ba",
                "erc": "",
                "slots": [
                    {
                        "current": "0x0000000000000000000000000000000000000000000000000000000000007e02",
                        "key": "0x94809eec8ec6e16e014568714a61e9d6bdb30aaf90db79a3b10b890497d5d169",
                        "prev": "0x0000000000000000000000000000000000000000000000000000000000000000"
                    }
                ],
                "storageVariables": [
                    {
                        "name": "purchaseRecord",
                        "type": "mapping(address => uint256)",
                        "value": {
                            "pairs": [
                                {
                                    "key": "0xd549762edee2b9d79624421b87721d5d005c1a68",
                                    "value": {
                                        "current": "32258",
                                        "prev": "0",
                                        "typeTag": 1
                                    }
                                }
                            ],
                            "typeTag": 4
                        }
                    }
                ]
            }
        ]
    }
}