{
    "balance_change": {
        "balanceChanges": [
            {
                "account": "0xce34e0abfa843dd03c5a394c845afc792a055d38",
                "assets": [
                    {
                        "address": "0xf3586684107ce0859c44aa2b2e0fb8cd8731a15a",
                        "amount": "8,576.1604939",
                        "iconUrl": "",
                        "isERC1155": false,
                        "isERC721": false,
                        "sign": false,
                        "value": ""
                    }
                ]
            },
            {
                "account": "0x77636f4ee1a1d03cf964e9b4839920d47dd26152",
                "assets": [
                    {
                        "address": "0xf3586684107ce0859c44aa2b2e0fb8cd8731a15a",
                        "amount": "8,576.1604939",
                        "iconUrl": "",
                        "isERC1155": false,
                        "isERC721": false,
                        "sign": true,
                        "value": ""
                    }
                ]
            }
        ]
    },
    "profile": {
        "basic_info": {
            "baseFee": "",
            "blockNumber": 8848224,
            "callData": "0xa9059cbb00000000000000000000000077636f4ee1a1d03cf964e9b4839920d47dd2615200000000000000000000000000000000000000000000000000000013f7ca3d4b",
            "debugEnable": true,
            "errorInfo": "",
            "eventCount": 1,
            "feeRecipient": "0xaa5c4244f05c92781c4f259913319d8ba1acf05e",
            "formatValue": "0",
            "gasLimit": 52049,
            "gasPrice": "25.875",
            "gasUsed": 37049,
            "intTxnCount": 0,
            "internalRevert": false,
            "internalRevertMessage": "",
            "isContractCreation": false,
            "isFlashloan": false,
            "maxFee": "",
            "nonce": 1,
            "overwritedBlockNumber": -1,
            "priorityFee": "",
            "receiver": "0xf3586684107ce0859c44aa2b2e0fb8cd8731a15a",
            "revertMessage": "",
            "sender": "0xce34e0abfa843dd03c5a394c845afc792a055d38",
            "simulationEnable": true,
            "sourceTxnHash": "0xf5189fae766f1b646fa5aecc0f3dc1e9ccbbfbe4dd8eb5eac6099c14c7b7b90d",
            "status": true,
            "timestamp": "2019-10-31T19:13:39Z",
            "transactionFee": "0.000958642875",
            "txnHash": "0xf5189fae766f1b646fa5aecc0f3dc1e9ccbbfbe4dd8eb5eac6099c14c7b7b90d",
            "txnIndex": 6,
            "type": 0,
            "value": "0"
        },
        "fund_flow": [
            {
                "amount": "8,576.1604939",
                "from": "0xce34e0abfa843dd03c5a394c845afc792a055d38",
                "id": 1,
                "isERC1155": false,
                "isERC721": false,
                "isReverted": false,
                "order": 1,
                "to": "0x77636f4ee1a1d03cf964e9b4839920d47dd26152",
                "token": "0xf3586684107ce0859c44aa2b2e0fb8cd8731a15a"
            }
        ],
        "token_infos": [
            {
                "address": "0xf3586684107ce0859c44aa2b2e0fb8cd8731a15a",
                "decimals": 7
            },
            {
                "address": "0xeeeeeeeeeeeeeeeeeeeeeeeeeeeeeeeeeeeeeeee",
                "decimals": 18
            },
            {
                "address": "0xc02aaa39b223fe8d0a0e5c4f27ead9083c756cc2",
                "decimals": 18
            }
        ]
    },
    "address_label": {
        "labels": [
            {
                "address": "0xf3586684107ce0859c44aa2b2e0fb8cd8731a15a",
                "label": "KaratBank: Old KBC Token"
            },
            {
                "address": "0x0000000000000000000000000000000000000001",
                "label": "Precompiled"
            },
            {
                "address": "0x0000000000000000000000000000000000000002",
                "label": "Precompiled"
            },
            {
                "address": "0x0000000000000000000000000000000000000003",
                "label": "Precompiled"
            },
            {
                "address": "0x0000000000000000000000000000000000000004",
                "label": "Precompiled"
            },
            {
                "address": "0xeeeeeeeeeeeeeeeeeeeeeeeeeeeeeeeeeeeeeeee",
                "label": "Ether"
            }
        ]
    },
    "trace": {
        "accountLabels": null,
        "dataMap": {
            "-1": {
                "invocation": {
                    "address": "0xce34e0abfa843dd03c5a394c845afc792a055d38",
                    "callData": "",
                    "decodedMethod": null,
                    "errorInfo": "",
                    "fromAddress": "",
                    "gasUsed": 0,
                    "id": -1,
                    "methodDecoded": false,
                    "operation": "",
                    "output": "",
                    "revert": false,
                    "revertMessage": "",
                    "selector": "",
                    "status": false,
                    "value": ""
                },
                "nodeType": 0
            },
            "0": {
                "invocation": {
                    "address": "0xf3586684107ce0859c44aa2b2e0fb8cd8731a15a",
                    "callData": "0x00000000000000000000000077636f4ee1a1d03cf964e9b4839920d47dd2615200000000000000000000000000000000000000000000000000000013f7ca3d4b",
                    "decodedMethod": {
                        "callParams": [
                            {
                                "name": "_to",
                                "type": "address",
                                "value": "0x77636f4ee1a1d03cf964e9b4839920d47dd26152"
                            },
                            {
                                "decimalAvailable": true,
                                "name": "_value",
                                "type": "uint256",
                                "value": "85,761,604,939"
                            }
                        ],
                        "constructorArguments": "",
                        "name": "transfer",
                        "returnParams": [
                            {
                                "name": "",
                                "type": "bool",
                                "value": true
                            }
                        ],
                        "signature": "transfer(address,uint256)"
                    },
                    "errorInfo": "",
                    "fromAddress": "0xce34e0abfa843dd03c5a394c845afc792a055d38",
                    "gasUsed": 37049,
                    "id": 0,
                    "methodDecoded": true,
                    "operation": "CALL",
                    "output": "0x0000000000000000000000000000000000000000000000000000000000000001",
                    "revert": false,
                    "revertMessage": "",
                    "selector": "0xa9059cbb",
                    "status": true,
                    "value": "0"
                },
                "nodeType": 0
            },
            "1": {
                "event": {
                    "contract": "0xf3586684107ce0859c44aa2b2e0fb8cd8731a15a",
                    "decodedLog": {
                        "name": "Transfer",
                        "params": [
                            {
                                "name": "from",
                                "type": "address",
                                "value": "0xce34e0abfa843dd03c5a394c845afc792a055d38"
                            },
                            {
                                "name": "to",
                                "type": "address",
                                "value": "0x77636f4ee1a1d03cf964e9b4839920d47dd26152"
                            },
                            {
                                "decimalAvailable": true,
                                "name": "value",
                                "type": "uint256",
                                "value": "85,761,604,939"
                            }
                        ],
                        "signature": "Transfer(address,address,uint256)"
                    },
                    "id": 1,
                    "logData": "0x00000000000000000000000000000000000000000000000000000013f7ca3d4b",
                    "logDecoded": true,
                    "operation": "EVENT",
                    "revert": false,
                    "status": true,
                    "topics": [
                        "0xddf252ad1be2c89b69c2b068fc378daa952ba7f163c4a11628f55a4df523b3ef",
                        "0x000000000000000000000000ce34e0abfa843dd03c5a394c845afc792a055d38",
                        "0x00000000000000000000000077636f4ee1a1d03cf964e9b4839920d47dd26152"
                    ]
                },
                "nodeType": 1
            }
        },
        "gasFlame": [
            {
                "children": [
                    {
                        "children": [
                            {
                                "children": [],
                                "depth": 0,
                                "name": "Initial Gas",
                                "value": 23128
                            },
                            {
                                "children": [],
                                "depth": 0,
                                "name": "Executed Gas",
                                "value": 28921
                            }
                        ],
                        "depth": -1,
                        "name": "Actual Gas Used",
                        "value": 37049
                    },
                    {
                        "children": [],
                        "depth": -1,
                        "name": "Refunded Gas",
                        "value": 15000
                    }
                ],
                "depth": -2,
                "name": "Total Gas",
                "value": 52049
            }
        ],
        "isConfirmed": true,
        "mainTrace": [
            {
                "children": [
                    {
                        "children": [
                            {
                                "children": [],
                                "depth": 1,
                                "id": 1,
                                "order": 1
                            }
                        ],
                        "depth": 0,
                        "id": 0,
                        "order": 0
                    }
                ],
                "depth": -1,
                "id": -1,
                "order": -1
            }
        ],
        "mainTraceNodeCount": 2,
        "parentIdMap": {
            "0": -1,
            "1": 0
        },
        "tidyTrace": [
            {
                "children": [
                    {
                        "children": [
                            {
                                "children": [],
                                "depth": 1,
                                "id": 1,
                                "order": 1
                            }
                        ],
                        "depth": 0,
                        "id": 0,
                        "order": 0
                    }
                ],
                "depth": -1,
                "id": -1,
                "order": -1
            }
        ],
        "tidyTraceNodeCount": 2
    },
    "state_change": {
        "stateChanges": [
            {
                "address": "0xf3586684107ce0859c44aa2b2e0fb8cd8731a15a",
                "erc": "ERC-20",
                "slots": [
                    {
                        "current": "0x00000000000000000000000000000000000000000000000000000013f7ca3d4b",
                        "key": "0x6266583bb6773cf60050f8e3898f415b61fccbf6ca5786e463a885b7a8528c64",
                        "prev": "0x0000000000000000000000000000000000000000000000000000000000000000"
                    },
                    {
                        "current": "0x0000000000000000000000000000000000000000000000000000000000000000",
                        "key": "0xc6b025cd0d94d842f5d48ec21b730b6bc360da1b01503a896f3a33f1b07b7224",
                        "prev": "0x00000000000000000000000000000000000000000000000000000013f7ca3d4b"
                    }
                ],
                "storageVariables": [
                    {
                        "name": "balances",
                        "type": "mapping(address => uint256)",
                        "value": {
                            "pairs": [
                                {
                                    "key": "0x77636f4ee1a1d03cf964e9b4839920d47dd26152",
                                    "value": {
                                        "current": "85761604939",
                                        "prev": "0",
                                        "typeTag": 1
                                    }
                                },
                                {
                                    "key": "0xce34e0abfa843dd03c5a394c845afc792a055d38",
                                    "value": {
                                        "current": "0",
                                        "prev": "85761604939",
                                        "typeTag": 1
                                    }
                                }
                            ],
                            "typeTag": 4
                        }
                    }
                ]
            }
        ]
    }
}