{
    "balance_change": {
        "balanceChanges": [
            {
                "account": "0xb4c0e862889a8f7448504ba6d5fe3c59abdcd944",
                "assets": [
                    {
                        "address": "0xd7425ffe949dcc6bf9fe95f7b7a81a0cd21c9447",
                        "amount": "1",
                        "iconUrl": "",
                        "isERC1155": false,
                        "isERC721": true,
                        "sign": false,
                        "tokenID": "188",
                        "value": ""
                    }
                ]
            },
            {
                "account": "0x4854ad7a9e9cf9e35f98343554967f9e9e27fb3f",
                "assets": [
                    {
                        "address": "0xd7425ffe949dcc6bf9fe95f7b7a81a0cd21c9447",
                        "amount": "1",
                        "iconUrl": "",
                        "isERC1155": false,
                        "isERC721": true,
                        "sign": true,
                        "tokenID": "188",
                        "value": ""
                    }
                ]
            }
        ]
    },
    "profile": {
        "basic_info": {
            "baseFee": "118.132043184",
            "blockNumber": 13692136,
            "callData": "0x23b872dd000000000000000000000000b4c0e862889a8f7448504ba6d5fe3c59abdcd9440000000000000000000000004854ad7a9e9cf9e35f98343554967f9e9e27fb3f00000000000000000000000000000000000000000000000000000000000000bc",
            "debugEnable": true,
            "errorInfo": "",
            "eventCount": 2,
            "feeRecipient": "0x1ad91ee08f21be3de0ba2ba6918e714da6b45836",
            "formatValue": "0",
            "gasLimit": 107859,
            "gasPrice": "120.132043184",
            "gasUsed": 98259,
            "intTxnCount": 0,
            "internalRevert": false,
            "internalRevertMessage": "",
            "isContractCreation": false,
            "isFlashloan": false,
            "maxFee": "146.574913234",
            "nonce": 27,
            "overwritedBlockNumber": -1,
            "priorityFee": "2",
            "receiver": "0xd7425ffe949dcc6bf9fe95f7b7a81a0cd21c9447",
            "revertMessage": "",
            "sender": "0xb4c0e862889a8f7448504ba6d5fe3c59abdcd944",
            "simulationEnable": true,
            "sourceTxnHash": "0xf599db04f3b6e1f80f3b81ef3fb4372a8824cc7e22f660b2bdcb1bbf40f3536f",
            "status": true,
            "timestamp": "2021-11-26T21:31:28Z",
            "transactionFee": "0.011804054431216656",
            "txnHash": "0xf599db04f3b6e1f80f3b81ef3fb4372a8824cc7e22f660b2bdcb1bbf40f3536f",
            "txnIndex": 148,
            "type": 2,
            "value": "0"
        },
        "fund_flow": [
            {
                "amount": "1",
                "from": "0xb4c0e862889a8f7448504ba6d5fe3c59abdcd944",
                "id": 1,
                "isERC1155": false,
                "isERC721": true,
                "isReverted": false,
                "order": 1,
                "to": "0x4854ad7a9e9cf9e35f98343554967f9e9e27fb3f",
                "token": "0xd7425ffe949dcc6bf9fe95f7b7a81a0cd21c9447",
                "tokenID": "188"
            }
        ],
        "token_infos": [
            {
                "address": "0xc02aaa39b223fe8d0a0e5c4f27ead9083c756cc2",
                "decimals": 18
            },
            {
                "address": "0xeeeeeeeeeeeeeeeeeeeeeeeeeeeeeeeeeeeeeeee",
                "decimals": 18
            }
        ]
    },
    "address_label": {
        "labels": [
            {
                "address": "0xeeeeeeeeeeeeeeeeeeeeeeeeeeeeeeeeeeeeeeee",
                "label": "Ether"
            },
            {
                "address": "0xd7425ffe949dcc6bf9fe95f7b7a81a0cd21c9447",
                "label": "NFT FC (NFTFC)"
            },
            {
                "address": "0x0000000000000000000000000000000000000001",
                "label": "Precompiled"
            },
            {
                "address": "0x0000000000000000000000000000000000000002",
                "label": "Precompiled"
            },
            {
                "address": "0x0000000000000000000000000000000000000003",
                "label": "Precompiled"
            },
            {
                "address": "0x0000000000000000000000000000000000000004",
                "label": "Precompiled"
            }
        ]
    },
    "trace": {
        "accountLabels": null,
        "dataMap": {
            "-1": {
                "invocation": {
                    "address": "0xb4c0e862889a8f7448504ba6d5fe3c59abdcd944",
                    "callData": "",
                    "decodedMethod": null,
                    "errorInfo": "",
                    "fromAddress": "",
                    "gasUsed": 0,
                    "id": -1,
                    "methodDecoded": false,
                    "operation": "",
                    "output": "",
                    "revert": false,
                    "revertMessage": "",
                    "selector": "",
                    "status": false,
                    "value": ""
                },
                "nodeType": 0
            },
            "0": {
                "invocation": {
                    "address": "0xd7425ffe949dcc6bf9fe95f7b7a81a0cd21c9447",
                    "callData": "0x000000000000000000000000b4c0e862889a8f7448504ba6d5fe3c59abdcd9440000000000000000000000004854ad7a9e9cf9e35f98343554967f9e9e27fb3f00000000000000000000000000000000000000000000000000000000000000bc",
                    "decodedMethod": {
                        "callParams": [
                            {
                                "name": "from",
                                "type": "address",
                                "value": "0xb4c0e862889a8f7448504ba6d5fe3c59abdcd944"
                            },
                            {
                                "name": "to",
                                "type": "address",
                                "value": "0x4854ad7a9e9cf9e35f98343554967f9e9e27fb3f"
                            },
                            {
                                "decimalAvailable": true,
                                "name": "tokenId",
                                "type": "uint256",
                                "value": "188"
                            }
                        ],
                        "constructorArguments": "",
                        "name": "transferFrom",
                        "returnParams": [],
                        "signature": "transferFrom(address,address,uint256)"
                    },
                    "errorInfo": "",
                    "fromAddress": "0xb4c0e862889a8f7448504ba6d5fe3c59abdcd944",
                    "gasUsed": 98259,
                    "id": 0,
                    "methodDecoded": true,
                    "operation": "CALL",
                    "output": "",
                    "revert": false,
                    "revertMessage": "",
                    "selector": "0x23b872dd",
                    "status": true,
                    "value": "0"
                },
                "nodeType": 0
            },
            "1": {
                "event": {
                    "contract": "0xd7425ffe949dcc6bf9fe95f7b7a81a0cd21c9447",
                    "decodedLog": {
                        "name": "Approval",
                        "params": [
                            {
                                "name": "owner",
                                "type": "address",
                                "value": "0xb4c0e862889a8f7448504ba6d5fe3c59abdcd944"
                            },
                            {
                                "name": "approved",
                                "type": "address",
                                "value": "0x0000000000000000000000000000000000000000"
                            },
                            {
                                "decimalAvailable": true,
                                "name": "tokenId",
                                "type": "uint256",
                                "value": "188"
                            }
                        ],
                        "signature": "Approval(address,address,uint256)"
                    },
                    "id": 1,
                    "logData": "0x",
                    "logDecoded": true,
                    "operation": "EVENT",
                    "revert": false,
                    "status": true,
                    "topics": [
                        "0x8c5be1e5ebec7d5bd14f71427d1e84f3dd0314c0f7b2291e5b200ac8c7c3b925",
                        "0x000000000000000000000000b4c0e862889a8f7448504ba6d5fe3c59abdcd944",
                        "0x0000000000000000000000000000000000000000000000000000000000000000",
                        "0x00000000000000000000000000000000000000000000000000000000000000bc"
                    ]
                },
                "nodeType": 1
            },
            "2": {
                "event": {
                    "contract": "0xd7425ffe949dcc6bf9fe95f7b7a81a0cd21c9447",
                    "decodedLog": {
                        "name": "Transfer",
                        "params": [
                            {
                                "name": "from",
                                "type": "address",
                                "value": "0xb4c0e862889a8f7448504ba6d5fe3c59abdcd944"
                            },
                            {
                                "name": "to",
                                "type": "address",
                                "value": "0x4854ad7a9e9cf9e35f98343554967f9e9e27fb3f"
                            },
                            {
                                "decimalAvailable": true,
                                "name": "tokenId",
                                "type": "uint256",
                                "value": "188"
                            }
                        ],
                        "signature": "Transfer(address,address,uint256)"
                    },
                    "id": 2,
                    "logData": "0x",
                    "logDecoded": true,
                    "operation": "EVENT",
                    "revert": false,
                    "status": true,
                    "topics": [
                        "0xddf252ad1be2c89b69c2b068fc378daa952ba7f163c4a11628f55a4df523b3ef",
                        "0x000000000000000000000000b4c0e862889a8f7448504ba6d5fe3c59abdcd944",
                        "0x0000000000000000000000004854ad7a9e9cf9e35f98343554967f9e9e27fb3f",
                        "0x00000000000000000000000000000000000000000000000000000000000000bc"
                    ]
                },
                "nodeType": 1
            }
        },
        "gasFlame": [
            {
                "children": [
                    {
                        "children": [
                            {
                                "children": [],
                                "depth": 0,
                                "name": "Initial Gas",
                                "value": 21940
                            },
                            {
                                "children": [],
                                "depth": 0,
                                "name": "Executed Gas",
                                "value": 85919
                            }
                        ],
                        "depth": -1,
                        "name": "Actual Gas Used",
                        "value": 98259
                    },
                    {
                        "children": [],
                        "depth": -1,
                        "name": "Refunded Gas",
                        "value": 9600
                    }
                ],
                "depth": -2,
                "name": "Total Gas",
                "value": 107859
            }
        ],
        "isConfirmed": true,
        "mainTrace": [
            {
                "children": [
                    {
                        "children": [
                            {
                                "children": [],
                                "depth": 1,
                                "id": 1,
                                "order": 1
                            },
                            {
                                "children": [],
                                "depth": 1,
                                "id": 2,
                                "order": 2
                            }
                        ],
                        "depth": 0,
                        "id": 0,
                        "order": 0
                    }
                ],
                "depth": -1,
                "id": -1,
                "order": -1
            }
        ],
        "mainTraceNodeCount": 3,
        "parentIdMap": {
            "0": -1,
            "1": 0,
            "2": 0
        },
        "tidyTrace": [
            {
                "children": [
                    {
                        "children": [
                            {
                                "children": [],
                                "depth": 1,
                                "id": 1,
                                "order": 1
                            },
                            {
                                "children": [],
                                "depth": 1,
                                "id": 2,
                                "order": 2
                            }
                        ],
                        "depth": 0,
                        "id": 0,
                        "order": 0
                    }
                ],
                "depth": -1,
                "id": -1,
                "order": -1
            }
        ],
        "tidyTraceNodeCount": 3
    },
    "state_change": {
        "stateChanges": [
            {
                "address": "0xd7425ffe949dcc6bf9fe95f7b7a81a0cd21c9447",
                "erc": "ERC-721",
                "slots": [
                    {
                        "current": "0x000000000000000000000000000000000000000000000000000000000000001c",
                        "key": "0xb036b6edff281f6d834f0c8c3ea428037b17cc50184b71ab9ddaa2f980201109",
                        "prev": "0x000000000000000000000000000000000000000000000000000000000000001d"
                    },
                    {
                        "current": "0x0000000000000000000000000000000000000000000000000000000000000001",
                        "key": "0x4c64d34df6e6a64dbd1b9e0ab2d9fe8f11a85a8b28c90194476d91239e5e0a3d",
                        "prev": "0x0000000000000000000000000000000000000000000000000000000000000000"
                    },
                    {
                        "current": "0x0000000000000000000000004854ad7a9e9cf9e35f98343554967f9e9e27fb3f",
                        "key": "0x81461d489e6d415f84af5888d16ce8ab34db1d7bc36fba9b84f06607406ae77d",
                        "prev": "0x000000000000000000000000b4c0e862889a8f7448504ba6d5fe3c59abdcd944"
                    },
                    {
                        "current": "0x00000000000000000000000000000000000000000000000000000000000000c9",
                        "key": "0xb30403480a3fb67e6005da9179f2459d325c5a992cb2b3d006bc174b869ba85f",
                        "prev": "0x00000000000000000000000000000000000000000000000000000000000000bc"
                    },
                    {
                        "current": "0x000000000000000000000000000000000000000000000000000000000000000f",
                        "key": "0x2557c275f15d03a8f56b9a46c1ef3e09f2ce2830a2cd1a8bfd8cbf237e935d2d",
                        "prev": "0x000000000000000000000000000000000000000000000000000000000000001c"
                    },
                    {
                        "current": "0x0000000000000000000000000000000000000000000000000000000000000000",
                        "key": "0xf7953073dfd630c0e7511783e1c9b440b89f571b7bb5ee73e18ca9199f33d3f0",
                        "prev": "0x000000000000000000000000000000000000000000000000000000000000000f"
                    },
                    {
                        "current": "0x0000000000000000000000000000000000000000000000000000000000000000",
                        "key": "0x3001fad4e49ed3ee184ea2798dc695e52bef52eddb2267bf6420053f16f95530",
                        "prev": "0x00000000000000000000000000000000000000000000000000000000000000c9"
                    },
                    {
                        "current": "0x00000000000000000000000000000000000000000000000000000000000000bc",
                        "key": "0x8c9534e242c1ec1511ec3af15e9128902e78906c59f691c280e4d5ed97c07057",
                        "prev": "0x0000000000000000000000000000000000000000000000000000000000000000"
                    }
                ],
                "storageVariables": [
                    {
                        "name": "_owners",
                        "type": "mapping(uint256 => address)",
                        "value": {
                            "pairs": [
                                {
                                    "key": "188",
                                    "value": {
                                        "current": "0x4854ad7a9e9cf9e35f98343554967f9e9e27fb3f",
                                        "prev": "0xb4c0e862889a8f7448504ba6d5fe3c59abdcd944",
                                        "typeTag": 1
                                    }
                                }
                            ],
                            "typeTag": 4
                        }
                    },
                    {
                        "name": "_ownedTokens",
                        "type": "mapping(address => mapping(uint256 => uint256))",
                        "value": {
                            "pairs": [
                                {
                                    "key": "0x4854ad7a9e9cf9e35f98343554967f9e9e27fb3f",
                                    "value": {
                                        "pairs": [
                                            {
                                                "key": "0",
                                                "value": {
                                                    "current": "188",
                                                    "prev": "0",
                                                    "typeTag": 1
                                                }
                                            }
                                        ],
                                        "typeTag": 4
                                    }
                                },
                                {
                                    "key": "0xb4c0e862889a8f7448504ba6d5fe3c59abdcd944",
                                    "value": {
                                        "pairs": [
                                            {
                                                "key": "15",
                                                "value": {
                                                    "current": "201",
                                                    "prev": "188",
                                                    "typeTag": 1
                                                }
                                            },
                                            {
                                                "key": "28",
                                                "value": {
                                                    "current": "0",
                                                    "prev": "201",
                                                    "typeTag": 1
                                                }
                                            }
                                        ],
                                        "typeTag": 4
                                    }
                                }
                            ],
                            "typeTag": 4
                        }
                    },
                    {
                        "name": "_ownedTokensIndex",
                        "type": "mapping(uint256 => uint256)",
                        "value": {
                            "pairs": [
                                {
                                    "key": "188",
                                    "value": {
                                        "current": "0",
                                        "prev": "15",
                                        "typeTag": 1
                                    }
                                },
                                {
                                    "key": "201",
                                    "value": {
                                        "current": "15",
                                        "prev": "28",
                                        "typeTag": 1
                                    }
                                }
                            ],
                            "typeTag": 4
                        }
                    },
                    {
                        "name": "_balances",
                        "type": "mapping(address => uint256)",
                        "value": {
                            "pairs": [
                                {
                                    "key": "0x4854ad7a9e9cf9e35f98343554967f9e9e27fb3f",
                                    "value": {
                                        "current": "1",
                                        "prev": "0",
                                        "typeTag": 1
                                    }
                                },
                                {
                                    "key": "0xb4c0e862889a8f7448504ba6d5fe3c59abdcd944",
                                    "value": {
                                        "current": "28",
                                        "prev": "29",
                                        "typeTag": 1
                                    }
                                }
                            ],
                            "typeTag": 4
                        }
                    }
                ]
            }
        ]
    }
}