{
    "balance_change": {
        "balanceChanges": [
            {
                "account": "0xb5e05f5c8c91d296f1ce68e041719462fba3bacf",
                "assets": [
                    {
                        "address": "0xeeeeeeeeeeeeeeeeeeeeeeeeeeeeeeeeeeeeeeee",
                        "amount": "0.02",
                        "iconUrl": "https://assets.blocksec.com/image/1663669189317-3.png",
                        "isERC1155": false,
                        "isERC721": false,
                        "sign": false,
                        "value": "86.59940000000000509"
                    },
                    {
                        "address": "0x7a58c0be72be218b41c608b7fe7c5bb630736c71",
                        "amount": "20,000",
                        "iconUrl": "",
                        "isERC1155": false,
                        "isERC721": false,
                        "sign": true,
                        "value": ""
                    }
                ]
            },
            {
                "account": "0xd569d3cce55b71a8a3f3c418c329a66e5f714431",
                "assets": [
                    {
                        "address": "0xeeeeeeeeeeeeeeeeeeeeeeeeeeeeeeeeeeeeeeee",
                        "amount": "0.02",
                        "iconUrl": "https://assets.blocksec.com/image/1663669189317-3.png",
                        "isERC1155": false,
                        "isERC721": false,
                        "sign": true,
                        "value": "86.59940000000000509"
                    }
                ]
            },
            {
                "account": "0x0000000000000000000000000000000000000000",
                "assets": [
                    {
                        "address": "0x7a58c0be72be218b41c608b7fe7c5bb630736c71",
                        "amount": "20,000",
                        "iconUrl": "",
                        "isERC1155": false,
                        "isERC721": false,
                        "sign": false,
                        "value": ""
                    }
                ]
            }
        ]
    },
    "profile": {
        "basic_info": {
            "baseFee": "117.650393018",
            "blockNumber": 13636722,
            "callData": "0x02c8986f0000000000000000000000000000000000000000000000000000000000000024000000000000000000000000b5e05f5c8c91d296f1ce68e041719462fba3bacf000000000000000000000000000000000000000000000000000000000000008000000000000000000000000000000000000000000000000000000000000000010000000000000000000000000000000000000000000000000000000000000000",
            "debugEnable": true,
            "errorInfo": "",
            "eventCount": 3,
            "feeRecipient": "0x2a20380dca5bc24d052acfbf79ba23e988ad0050",
            "formatValue": "0.02",
            "gasLimit": 102052,
            "gasPrice": "119.590393018",
            "gasUsed": 102052,
            "intTxnCount": 4,
            "internalRevert": false,
            "internalRevertMessage": "",
            "isContractCreation": false,
            "isFlashloan": false,
            "maxFee": "130.840080852",
            "nonce": 0,
            "overwritedBlockNumber": -1,
            "priorityFee": "1.94",
            "receiver": "0xd569d3cce55b71a8a3f3c418c329a66e5f714431",
            "revertMessage": "",
            "sender": "0xb5e05f5c8c91d296f1ce68e041719462fba3bacf",
            "simulationEnable": true,
            "sourceTxnHash": "0xf5f545d964c18696edd8fa6cf446b1f5bd7f2b3adf677a54e0da5abf11f76ada",
            "status": true,
            "timestamp": "2021-11-18T02:35:23Z",
            "transactionFee": "0.012204438788272936",
            "txnHash": "0xf5f545d964c18696edd8fa6cf446b1f5bd7f2b3adf677a54e0da5abf11f76ada",
            "txnIndex": 258,
            "type": 2,
            "value": "20000000000000000"
        },
        "fund_flow": [
            {
                "amount": "0.02",
                "from": "0xb5e05f5c8c91d296f1ce68e041719462fba3bacf",
                "id": 1,
                "isERC1155": false,
                "isERC721": false,
                "isReverted": false,
                "order": 1,
                "to": "0xd569d3cce55b71a8a3f3c418c329a66e5f714431",
                "token": "0xeeeeeeeeeeeeeeeeeeeeeeeeeeeeeeeeeeeeeeee"
            },
            {
                "amount": "20,000",
                "from": "0x0000000000000000000000000000000000000000",
                "id": 2,
                "isERC1155": false,
                "isERC721": false,
                "isReverted": false,
                "order": 2,
                "to": "0xb5e05f5c8c91d296f1ce68e041719462fba3bacf",
                "token": "0x7a58c0be72be218b41c608b7fe7c5bb630736c71"
            }
        ],
        "token_infos": [
            {
                "address": "0xeeeeeeeeeeeeeeeeeeeeeeeeeeeeeeeeeeeeeeee",
                "decimals": 18
            },
            {
                "address": "0x7a58c0be72be218b41c608b7fe7c5bb630736c71",
                "decimals": 18
            },
            {
                "address": "0xc02aaa39b223fe8d0a0e5c4f27ead9083c756cc2",
                "decimals": 18
            }
        ]
    },
    "address_label": {
        "labels": [
            {
                "address": "0x0000000000000000000000000000000000000003",
                "label": "Precompiled"
            },
            {
                "address": "0x0000000000000000000000000000000000000004",
                "label": "Precompiled"
            },
            {
                "address": "0xeeeeeeeeeeeeeeeeeeeeeeeeeeeeeeeeeeeeeeee",
                "label": "Ether"
            },
            {
                "address": "0x7a58c0be72be218b41c608b7fe7c5bb630736c71",
                "label": "ConstitutionDAO: PEOPLE Token"
            },
            {
                "address": "0xee2ebccb7cdb34a8a822b589f9e8427c24351bfc",
                "label": "Juicebox: Ticket Booth"
            },
            {
                "address": "0x0000000000000000000000000000000000000000",
                "label": "Null Address"
            },
            {
                "address": "0x0000000000000000000000000000000000000001",
                "label": "Precompiled"
            },
            {
                "address": "0x46c9999a2edcd5aa177ed7e8af90c68b7d75ba46",
                "label": "Juicebox: Terminal Directory"
            },
            {
                "address": "0xd569d3cce55b71a8a3f3c418c329a66e5f714431",
                "label": "Juicebox: Terminal V1"
            },
            {
                "address": "0xf507b2a1dd7439201eb07f11e1d62afb29216e2e",
                "label": "Juicebox: Funding Cycles"
            },
            {
                "address": "0x0000000000000000000000000000000000000002",
                "label": "Precompiled"
            }
        ]
    },
    "trace": {
        "accountLabels": null,
        "dataMap": {
            "-1": {
                "invocation": {
                    "address": "0xb5e05f5c8c91d296f1ce68e041719462fba3bacf",
                    "callData": "",
                    "decodedMethod": null,
                    "errorInfo": "",
                    "fromAddress": "",
                    "gasUsed": 0,
                    "id": -1,
                    "methodDecoded": false,
                    "operation": "",
                    "output": "",
                    "revert": false,
                    "revertMessage": "",
                    "selector": "",
                    "status": false,
                    "value": ""
                },
                "nodeType": 0
            },
            "0": {
                "invocation": {
                    "address": "0xd569d3cce55b71a8a3f3c418c329a66e5f714431",
                    "callData": "0x0000000000000000000000000000000000000000000000000000000000000024000000000000000000000000b5e05f5c8c91d296f1ce68e041719462fba3bacf000000000000000000000000000000000000000000000000000000000000008000000000000000000000000000000000000000000000000000000000000000010000000000000000000000000000000000000000000000000000000000000000",
                    "decodedMethod": {
                        "callParams": [
                            {
                                "name": "_projectId",
                                "type": "uint256",
                                "value": "36"
                            },
                            {
                                "name": "_beneficiary",
                                "type": "address",
                                "value": "0xb5e05f5c8c91d296f1ce68e041719462fba3bacf"
                            },
                            {
                                "name": "_memo",
                                "type": "string",
                                "value": ""
                            },
                            {
                                "name": "_preferUnstakedTickets",
                                "type": "bool",
                                "value": true
                            }
                        ],
                        "constructorArguments": "",
                        "name": "pay",
                        "returnParams": [
                            {
                                "name": "",
                                "type": "uint256",
                                "value": "106"
                            }
                        ],
                        "signature": "pay(uint256,address,string,bool)"
                    },
                    "errorInfo": "",
                    "fromAddress": "0xb5e05f5c8c91d296f1ce68e041719462fba3bacf",
                    "gasUsed": 102052,
                    "id": 0,
                    "methodDecoded": true,
                    "operation": "CALL",
                    "output": "0x000000000000000000000000000000000000000000000000000000000000006a",
                    "revert": false,
                    "revertMessage": "",
                    "selector": "0x02c8986f",
                    "status": true,
                    "value": "0.02"
                },
                "nodeType": 0
            },
            "1": {
                "invocation": {
                    "address": "0xf507b2a1dd7439201eb07f11e1d62afb29216e2e",
                    "callData": "0x0000000000000000000000000000000000000000000000000000000000000024",
                    "decodedMethod": {
                        "callParams": [
                            {
                                "name": "_projectId",
                                "type": "uint256",
                                "value": "36"
                            }
                        ],
                        "constructorArguments": "",
                        "name": "currentOf",
                        "returnParams": [
                            {
                                "name": "fundingCycle",
                                "type": "(uint256,uint256,uint256,uint256,uint256,uint256,uint256,address,uint256,uint256,uint256,uint256,uint256,uint256,uint256,uint256)",
                                "value": [
                                    {
                                        "name": "id",
                                        "type": "uint256",
                                        "value": "106"
                                    },
                                    {
                                        "name": "projectId",
                                        "type": "uint256",
                                        "value": "36"
                                    },
                                    {
                                        "name": "number",
                                        "type": "uint256",
                                        "value": "1"
                                    },
                                    {
                                        "name": "basedOn",
                                        "type": "uint256",
                                        "value": "0"
                                    },
                                    {
                                        "name": "configured",
                                        "type": "uint256",
                                        "value": "1,636,939,918"
                                    },
                                    {
                                        "name": "cycleLimit",
                                        "type": "uint256",
                                        "value": "0"
                                    },
                                    {
                                        "name": "weight",
                                        "type": "uint256",
                                        "value": "1,000,000,000,000,000,000,000,000"
                                    },
                                    {
                                        "name": "ballot",
                                        "type": "address",
                                        "value": "0x0000000000000000000000000000000000000000"
                                    },
                                    {
                                        "name": "start",
                                        "type": "uint256",
                                        "value": "1,636,939,918"
                                    },
                                    {
                                        "name": "duration",
                                        "type": "uint256",
                                        "value": "0"
                                    },
                                    {
                                        "name": "target",
                                        "type": "uint256",
                                        "value": "115,792,089,237,316,195,423,570,985,008,687,907,853,269,984,665,640,564,039,457,584,007,913,129,639,935"
                                    },
                                    {
                                        "name": "currency",
                                        "type": "uint256",
                                        "value": "0"
                                    },
                                    {
                                        "name": "fee",
                                        "type": "uint256",
                                        "value": "0"
                                    },
                                    {
                                        "name": "discountRate",
                                        "type": "uint256",
                                        "value": "0"
                                    },
                                    {
                                        "name": "tapped",
                                        "type": "uint256",
                                        "value": "7,672,839,398,153,999,368,565"
                                    },
                                    {
                                        "name": "metadata",
                                        "type": "uint256",
                                        "value": "3,368,550,400"
                                    }
                                ]
                            }
                        ],
                        "signature": "currentOf(uint256)"
                    },
                    "errorInfo": "",
                    "fromAddress": "0xd569d3cce55b71a8a3f3c418c329a66e5f714431",
                    "gasUsed": 17535,
                    "id": 1,
                    "methodDecoded": true,
                    "operation": "STATICCALL",
                    "output": "0x000000000000000000000000000000000000000000000000000000000000006a000000000000000000000000000000000000000000000000000000000000002400000000000000000000000000000000000000000000000000000000000000010000000000000000000000000000000000000000000000000000000000000000000000000000000000000000000000000000000000000000000000006191b88e000000000000000000000000000000000000000000000000000000000000000000000000000000000000000000000000000000000000d3c21bcecceda10000000000000000000000000000000000000000000000000000000000000000000000000000000000000000000000000000000000000000000000000000006191b88e0000000000000000000000000000000000000000000000000000000000000000ffffffffffffffffffffffffffffffffffffffffffffffffffffffffffffffff00000000000000000000000000000000000000000000000000000000000000000000000000000000000000000000000000000000000000000000000000000000000000000000000000000000000000000000000000000000000000000000000000000000000000000000000000000000000000000000019ff2097c2cf720417500000000000000000000000000000000000000000000000000000000c8c80000",
                    "revert": false,
                    "revertMessage": "",
                    "selector": "0x43a266c2",
                    "status": true,
                    "value": "0"
                },
                "nodeType": 0
            },
            "2": {
                "invocation": {
                    "address": "0xee2ebccb7cdb34a8a822b589f9e8427c24351bfc",
                    "callData": "0x000000000000000000000000b5e05f5c8c91d296f1ce68e041719462fba3bacf000000000000000000000000000000000000000000000000000000000000002400000000000000000000000000000000000000000000043c33c19375648000000000000000000000000000000000000000000000000000000000000000000001",
                    "decodedMethod": {
                        "callParams": [
                            {
                                "name": "_holder",
                                "type": "address",
                                "value": "0xb5e05f5c8c91d296f1ce68e041719462fba3bacf"
                            },
                            {
                                "name": "_projectId",
                                "type": "uint256",
                                "value": "36"
                            },
                            {
                                "name": "_amount",
                                "type": "uint256",
                                "value": "20,000,000,000,000,000,000,000"
                            },
                            {
                                "name": "_preferUnstakedTickets",
                                "type": "bool",
                                "value": true
                            }
                        ],
                        "constructorArguments": "",
                        "name": "print",
                        "returnParams": [],
                        "signature": "print(address,uint256,uint256,bool)"
                    },
                    "errorInfo": "",
                    "fromAddress": "0xd569d3cce55b71a8a3f3c418c329a66e5f714431",
                    "gasUsed": 45708,
                    "id": 2,
                    "methodDecoded": true,
                    "operation": "CALL",
                    "output": "",
                    "revert": false,
                    "revertMessage": "",
                    "selector": "0xe0826c89",
                    "status": true,
                    "value": "0"
                },
                "nodeType": 0
            },
            "3": {
                "invocation": {
                    "address": "0x46c9999a2edcd5aa177ed7e8af90c68b7d75ba46",
                    "callData": "0x0000000000000000000000000000000000000000000000000000000000000024",
                    "decodedMethod": {
                        "callParams": [
                            {
                                "name": "",
                                "type": "uint256",
                                "value": "36"
                            }
                        ],
                        "constructorArguments": "",
                        "name": "terminalOf",
                        "returnParams": [
                            {
                                "name": "",
                                "type": "address",
                                "value": "0xd569d3cce55b71a8a3f3c418c329a66e5f714431"
                            }
                        ],
                        "signature": "terminalOf(uint256)"
                    },
                    "errorInfo": "",
                    "fromAddress": "0xee2ebccb7cdb34a8a822b589f9e8427c24351bfc",
                    "gasUsed": 2476,
                    "id": 3,
                    "methodDecoded": true,
                    "operation": "STATICCALL",
                    "output": "0x000000000000000000000000d569d3cce55b71a8a3f3c418c329a66e5f714431",
                    "revert": false,
                    "revertMessage": "",
                    "selector": "0x4fe0eced",
                    "status": true,
                    "value": "0"
                },
                "nodeType": 0
            },
            "4": {
                "invocation": {
                    "address": "0x7a58c0be72be218b41c608b7fe7c5bb630736c71",
                    "callData": "0x000000000000000000000000b5e05f5c8c91d296f1ce68e041719462fba3bacf00000000000000000000000000000000000000000000043c33c1937564800000",
                    "decodedMethod": {
                        "callParams": [
                            {
                                "name": "_account",
                                "type": "address",
                                "value": "0xb5e05f5c8c91d296f1ce68e041719462fba3bacf"
                            },
                            {
                                "name": "_amount",
                                "type": "uint256",
                                "value": "20,000,000,000,000,000,000,000"
                            }
                        ],
                        "constructorArguments": "",
                        "name": "print",
                        "returnParams": [],
                        "signature": "print(address,uint256)"
                    },
                    "errorInfo": "",
                    "fromAddress": "0xee2ebccb7cdb34a8a822b589f9e8427c24351bfc",
                    "gasUsed": 31763,
                    "id": 4,
                    "methodDecoded": true,
                    "operation": "CALL",
                    "output": "",
                    "revert": false,
                    "revertMessage": "",
                    "selector": "0xac685539",
                    "status": true,
                    "value": "0"
                },
                "nodeType": 0
            },
            "5": {
                "event": {
                    "contract": "0x7a58c0be72be218b41c608b7fe7c5bb630736c71",
                    "decodedLog": {
                        "name": "Transfer",
                        "params": [
                            {
                                "name": "from",
                                "type": "address",
                                "value": "0x0000000000000000000000000000000000000000"
                            },
                            {
                                "name": "to",
                                "type": "address",
                                "value": "0xb5e05f5c8c91d296f1ce68e041719462fba3bacf"
                            },
                            {
                                "decimalAvailable": true,
                                "name": "value",
                                "type": "uint256",
                                "value": "20,000,000,000,000,000,000,000"
                            }
                        ],
                        "signature": "Transfer(address,address,uint256)"
                    },
                    "id": 5,
                    "logData": "0x00000000000000000000000000000000000000000000043c33c1937564800000",
                    "logDecoded": true,
                    "operation": "EVENT",
                    "revert": false,
                    "status": true,
                    "topics": [
                        "0xddf252ad1be2c89b69c2b068fc378daa952ba7f163c4a11628f55a4df523b3ef",
                        "0x0000000000000000000000000000000000000000000000000000000000000000",
                        "0x000000000000000000000000b5e05f5c8c91d296f1ce68e041719462fba3bacf"
                    ]
                },
                "nodeType": 1
            },
            "6": {
                "event": {
                    "contract": "0xee2ebccb7cdb34a8a822b589f9e8427c24351bfc",
                    "decodedLog": {
                        "name": "Print",
                        "params": [
                            {
                                "name": "holder",
                                "type": "address",
                                "value": "0xb5e05f5c8c91d296f1ce68e041719462fba3bacf"
                            },
                            {
                                "name": "projectId",
                                "type": "uint256",
                                "value": "36"
                            },
                            {
                                "name": "amount",
                                "type": "uint256",
                                "value": "20,000,000,000,000,000,000,000"
                            },
                            {
                                "name": "convertedTickets",
                                "type": "bool",
                                "value": true
                            },
                            {
                                "name": "preferUnstakedTickets",
                                "type": "bool",
                                "value": true
                            },
                            {
                                "name": "controller",
                                "type": "address",
                                "value": "0xd569d3cce55b71a8a3f3c418c329a66e5f714431"
                            }
                        ],
                        "signature": "Print(address,uint256,uint256,bool,bool,address)"
                    },
                    "id": 6,
                    "logData": "0x00000000000000000000000000000000000000000000043c33c193756480000000000000000000000000000000000000000000000000000000000000000000010000000000000000000000000000000000000000000000000000000000000001000000000000000000000000d569d3cce55b71a8a3f3c418c329a66e5f714431",
                    "logDecoded": true,
                    "operation": "EVENT",
                    "revert": false,
                    "status": true,
                    "topics": [
                        "0x1d52fee743b6ab8b9037ca51c77fba34120c1ccf69645da4defbb13472869878",
                        "0x000000000000000000000000b5e05f5c8c91d296f1ce68e041719462fba3bacf",
                        "0x0000000000000000000000000000000000000000000000000000000000000024"
                    ]
                },
                "nodeType": 1
            },
            "7": {
                "event": {
                    "contract": "0xd569d3cce55b71a8a3f3c418c329a66e5f714431",
                    "decodedLog": {
                        "name": "Pay",
                        "params": [
                            {
                                "name": "fundingCycleId",
                                "type": "uint256",
                                "value": "106"
                            },
                            {
                                "name": "projectId",
                                "type": "uint256",
                                "value": "36"
                            },
                            {
                                "name": "beneficiary",
                                "type": "address",
                                "value": "0xb5e05f5c8c91d296f1ce68e041719462fba3bacf"
                            },
                            {
                                "name": "amount",
                                "type": "uint256",
                                "value": "20,000,000,000,000,000"
                            },
                            {
                                "name": "note",
                                "type": "string",
                                "value": ""
                            },
                            {
                                "name": "caller",
                                "type": "address",
                                "value": "0xb5e05f5c8c91d296f1ce68e041719462fba3bacf"
                            }
                        ],
                        "signature": "Pay(uint256,uint256,address,uint256,string,address)"
                    },
                    "id": 7,
                    "logData": "0x00000000000000000000000000000000000000000000000000470de4df8200000000000000000000000000000000000000000000000000000000000000000060000000000000000000000000b5e05f5c8c91d296f1ce68e041719462fba3bacf0000000000000000000000000000000000000000000000000000000000000000",
                    "logDecoded": true,
                    "operation": "EVENT",
                    "revert": false,
                    "status": true,
                    "topics": [
                        "0x3deb3bb81c337489381f7685daa204d30e6a265dac443a718949c258e3e17317",
                        "0x000000000000000000000000000000000000000000000000000000000000006a",
                        "0x0000000000000000000000000000000000000000000000000000000000000024",
                        "0x000000000000000000000000b5e05f5c8c91d296f1ce68e041719462fba3bacf"
                    ]
                },
                "nodeType": 1
            }
        },
        "gasFlame": [
            {
                "children": [
                    {
                        "children": [
                            {
                                "children": [],
                                "depth": 0,
                                "name": "Initial Gas",
                                "value": 21980
                            },
                            {
                                "children": [
                                    {
                                        "children": [],
                                        "depth": 1,
                                        "name": "currentOf",
                                        "value": 17535
                                    },
                                    {
                                        "children": [
                                            {
                                                "children": [],
                                                "depth": 2,
                                                "name": "terminalOf",
                                                "value": 2476
                                            },
                                            {
                                                "children": [],
                                                "depth": 2,
                                                "name": "print",
                                                "value": 31763
                                            }
                                        ],
                                        "depth": 1,
                                        "name": "print",
                                        "value": 45708
                                    }
                                ],
                                "depth": 0,
                                "name": "Executed Gas",
                                "value": 80072
                            }
                        ],
                        "depth": -1,
                        "name": "Actual Gas Used",
                        "value": 102052
                    },
                    {
                        "children": [],
                        "depth": -1,
                        "name": "Refunded Gas",
                        "value": 0
                    }
                ],
                "depth": -2,
                "name": "Total Gas",
                "value": 102052
            }
        ],
        "isConfirmed": true,
        "mainTrace": [
            {
                "children": [
                    {
                        "children": [
                            {
                                "children": [],
                                "depth": 1,
                                "id": 1,
                                "order": 1
                            },
                            {
                                "children": [
                                    {
                                        "children": [],
                                        "depth": 2,
                                        "id": 3,
                                        "order": 3
                                    },
                                    {
                                        "children": [
                                            {
                                                "children": [],
                                                "depth": 3,
                                                "id": 5,
                                                "order": 5
                                            }
                                        ],
                                        "depth": 2,
                                        "id": 4,
                                        "order": 4
                                    },
                                    {
                                        "children": [],
                                        "depth": 2,
                                        "id": 6,
                                        "order": 6
                                    }
                                ],
                                "depth": 1,
                                "id": 2,
                                "order": 2
                            },
                            {
                                "children": [],
                                "depth": 1,
                                "id": 7,
                                "order": 7
                            }
                        ],
                        "depth": 0,
                        "id": 0,
                        "order": 0
                    }
                ],
                "depth": -1,
                "id": -1,
                "order": -1
            }
        ],
        "mainTraceNodeCount": 8,
        "parentIdMap": {
            "0": -1,
            "1": 0,
            "2": 0,
            "3": 2,
            "4": 2,
            "5": 4,
            "6": 2,
            "7": 0
        },
        "tidyTrace": [
            {
                "children": [
                    {
                        "children": [
                            {
                                "children": [
                                    {
                                        "children": [
                                            {
                                                "children": [],
                                                "depth": 3,
                                                "id": 5,
                                                "order": 5
                                            }
                                        ],
                                        "depth": 2,
                                        "id": 4,
                                        "order": 4
                                    },
                                    {
                                        "children": [],
                                        "depth": 2,
                                        "id": 6,
                                        "order": 6
                                    }
                                ],
                                "depth": 1,
                                "id": 2,
                                "order": 2
                            },
                            {
                                "children": [],
                                "depth": 1,
                                "id": 7,
                                "order": 7
                            }
                        ],
                        "depth": 0,
                        "id": 0,
                        "order": 0
                    }
                ],
                "depth": -1,
                "id": -1,
                "order": -1
            }
        ],
        "tidyTraceNodeCount": 6
    },
    "state_change": {
        "stateChanges": [
            {
                "address": "0x7a58c0be72be218b41c608b7fe7c5bb630736c71",
                "erc": "ERC-20",
                "slots": [
                    {
                        "current": "0x0000000000000000000000000000000000000000064f871f9ed34f086244e300",
                        "key": "0x0000000000000000000000000000000000000000000000000000000000000002",
                        "prev": "0x0000000000000000000000000000000000000000064f82e36b11bb92fdc4e300"
                    },
                    {
                        "current": "0x00000000000000000000000000000000000000000000043c33c1937564800000",
                        "key": "0x0a2789457252f18c52ace66f6b1d8d144ea57ff29cdbb9fc359951e3ee9e427e",
                        "prev": "0x0000000000000000000000000000000000000000000000000000000000000000"
                    }
                ],
                "storageVariables": [
                    {
                        "name": "_totalSupply",
                        "type": "uint256",
                        "value": {
                            "current": "1953053301446457779756000000",
                            "prev": "1953033301446457779756000000",
                            "typeTag": 1
                        }
                    },
                    {
                        "name": "_balances",
                        "type": "mapping(address => uint256)",
                        "value": {
                            "pairs": [
                                {
                                    "key": "0xb5e05f5c8c91d296f1ce68e041719462fba3bacf",
                                    "value": {
                                        "current": "20000000000000000000000",
                                        "prev": "0",
                                        "typeTag": 1
                                    }
                                }
                            ],
                            "typeTag": 4
                        }
                    }
                ]
            },
            {
                "address": "0xd569d3cce55b71a8a3f3c418c329a66e5f714431",
                "erc": "",
                "slots": [
                    {
                        "current": "0x0000000000000000000000000000000000000000000000024a946554e0ac6400",
                        "key": "0x10f5232ee9f6343d8bf0b7c9043a31ee616d8f028dcf3d2e9033ff8e0ce0ef0f",
                        "prev": "0x0000000000000000000000000000000000000000000000024a4d5770012a6400"
                    }
                ],
                "storageVariables": [
                    {
                        "name": "balanceOf",
                        "type": "mapping(uint256 => uint256)",
                        "value": {
                            "pairs": [
                                {
                                    "key": "36",
                                    "value": {
                                        "current": "42267519818000000000",
                                        "prev": "42247519818000000000",
                                        "typeTag": 1
                                    }
                                }
                            ],
                            "typeTag": 4
                        }
                    }
                ]
            }
        ]
    }
}