{
    "balance_change": {
        "balanceChanges": [
            {
                "account": "0x9695fca5f6f665397c10b028f9bb73e57029c5d3",
                "assets": [
                    {
                        "address": "0x4dd672e77c795844fe3a464ef8ef0faae617c8fb",
                        "amount": "18,700",
                        "iconUrl": "",
                        "isERC1155": false,
                        "isERC721": false,
                        "sign": false,
                        "value": ""
                    }
                ]
            },
            {
                "account": "0x7964f16aceac67e669ea00542653776512b5fe39",
                "assets": [
                    {
                        "address": "0x4dd672e77c795844fe3a464ef8ef0faae617c8fb",
                        "amount": "18,700",
                        "iconUrl": "",
                        "isERC1155": false,
                        "isERC721": false,
                        "sign": true,
                        "value": ""
                    }
                ]
            }
        ]
    },
    "profile": {
        "basic_info": {
            "baseFee": "",
            "blockNumber": 8131728,
            "callData": "0xa9059cbb0000000000000000000000007964f16aceac67e669ea00542653776512b5fe390000000000000000000000000000000000000000000003f5baa1cb275cb00000",
            "debugEnable": true,
            "errorInfo": "",
            "eventCount": 1,
            "feeRecipient": "0xb2930b35844a230f00e51431acae96fe543a0347",
            "formatValue": "0",
            "gasLimit": 81918,
            "gasPrice": "20",
            "gasUsed": 37966,
            "intTxnCount": 0,
            "internalRevert": false,
            "internalRevertMessage": "",
            "isContractCreation": false,
            "isFlashloan": false,
            "maxFee": "",
            "nonce": 41,
            "overwritedBlockNumber": -1,
            "priorityFee": "",
            "receiver": "0x4dd672e77c795844fe3a464ef8ef0faae617c8fb",
            "revertMessage": "",
            "sender": "0x9695fca5f6f665397c10b028f9bb73e57029c5d3",
            "simulationEnable": true,
            "sourceTxnHash": "0xf5a3d359f4ca54c4b6a108ef44dd084efacf3f90eccd7a03e269471de5f05b3a",
            "status": true,
            "timestamp": "2019-07-11T19:13:55Z",
            "transactionFee": "0.00075932",
            "txnHash": "0xf5a3d359f4ca54c4b6a108ef44dd084efacf3f90eccd7a03e269471de5f05b3a",
            "txnIndex": 17,
            "type": 0,
            "value": "0"
        },
        "fund_flow": [
            {
                "amount": "18,700",
                "from": "0x9695fca5f6f665397c10b028f9bb73e57029c5d3",
                "id": 1,
                "isERC1155": false,
                "isERC721": false,
                "isReverted": false,
                "order": 1,
                "to": "0x7964f16aceac67e669ea00542653776512b5fe39",
                "token": "0x4dd672e77c795844fe3a464ef8ef0faae617c8fb"
            }
        ],
        "token_infos": [
            {
                "address": "0x4dd672e77c795844fe3a464ef8ef0faae617c8fb",
                "decimals": 18
            },
            {
                "address": "0xc02aaa39b223fe8d0a0e5c4f27ead9083c756cc2",
                "decimals": 18
            },
            {
                "address": "0xeeeeeeeeeeeeeeeeeeeeeeeeeeeeeeeeeeeeeeee",
                "decimals": 18
            }
        ]
    },
    "address_label": {
        "labels": [
            {
                "address": "0x0000000000000000000000000000000000000001",
                "label": "Precompiled"
            },
            {
                "address": "0x0000000000000000000000000000000000000002",
                "label": "Precompiled"
            },
            {
                "address": "0x0000000000000000000000000000000000000003",
                "label": "Precompiled"
            },
            {
                "address": "0x0000000000000000000000000000000000000004",
                "label": "Precompiled"
            },
            {
                "address": "0xeeeeeeeeeeeeeeeeeeeeeeeeeeeeeeeeeeeeeeee",
                "label": "Ether"
            },
            {
                "address": "0x4dd672e77c795844fe3a464ef8ef0faae617c8fb",
                "label": "CONUN: CON Token"
            }
        ]
    },
    "trace": {
        "accountLabels": null,
        "dataMap": {
            "-1": {
                "invocation": {
                    "address": "0x9695fca5f6f665397c10b028f9bb73e57029c5d3",
                    "callData": "",
                    "decodedMethod": null,
                    "errorInfo": "",
                    "fromAddress": "",
                    "gasUsed": 0,
                    "id": -1,
                    "methodDecoded": false,
                    "operation": "",
                    "output": "",
                    "revert": false,
                    "revertMessage": "",
                    "selector": "",
                    "status": false,
                    "value": ""
                },
                "nodeType": 0
            },
            "0": {
                "invocation": {
                    "address": "0x4dd672e77c795844fe3a464ef8ef0faae617c8fb",
                    "callData": "0x0000000000000000000000007964f16aceac67e669ea00542653776512b5fe390000000000000000000000000000000000000000000003f5baa1cb275cb00000",
                    "decodedMethod": {
                        "callParams": [
                            {
                                "name": "_to",
                                "type": "address",
                                "value": "0x7964f16aceac67e669ea00542653776512b5fe39"
                            },
                            {
                                "decimalAvailable": true,
                                "name": "_value",
                                "type": "uint256",
                                "value": "18,700,000,000,000,000,000,000"
                            }
                        ],
                        "constructorArguments": "",
                        "name": "transfer",
                        "returnParams": [
                            {
                                "name": "success",
                                "type": "bool",
                                "value": true
                            }
                        ],
                        "signature": "transfer(address,uint256)"
                    },
                    "errorInfo": "",
                    "fromAddress": "0x9695fca5f6f665397c10b028f9bb73e57029c5d3",
                    "gasUsed": 37966,
                    "id": 0,
                    "methodDecoded": true,
                    "operation": "CALL",
                    "output": "0x0000000000000000000000000000000000000000000000000000000000000001",
                    "revert": false,
                    "revertMessage": "",
                    "selector": "0xa9059cbb",
                    "status": true,
                    "value": "0"
                },
                "nodeType": 0
            },
            "1": {
                "event": {
                    "contract": "0x4dd672e77c795844fe3a464ef8ef0faae617c8fb",
                    "decodedLog": {
                        "name": "Transfer",
                        "params": [
                            {
                                "name": "from",
                                "type": "address",
                                "value": "0x9695fca5f6f665397c10b028f9bb73e57029c5d3"
                            },
                            {
                                "name": "to",
                                "type": "address",
                                "value": "0x7964f16aceac67e669ea00542653776512b5fe39"
                            },
                            {
                                "decimalAvailable": true,
                                "name": "value",
                                "type": "uint256",
                                "value": "18,700,000,000,000,000,000,000"
                            }
                        ],
                        "signature": "Transfer(address,address,uint256)"
                    },
                    "id": 1,
                    "logData": "0x0000000000000000000000000000000000000000000003f5baa1cb275cb00000",
                    "logDecoded": true,
                    "operation": "EVENT",
                    "revert": false,
                    "status": true,
                    "topics": [
                        "0xddf252ad1be2c89b69c2b068fc378daa952ba7f163c4a11628f55a4df523b3ef",
                        "0x0000000000000000000000009695fca5f6f665397c10b028f9bb73e57029c5d3",
                        "0x0000000000000000000000007964f16aceac67e669ea00542653776512b5fe39"
                    ]
                },
                "nodeType": 1
            }
        },
        "gasFlame": [
            {
                "children": [
                    {
                        "children": [
                            {
                                "children": [],
                                "depth": 0,
                                "name": "Initial Gas",
                                "value": 23256
                            },
                            {
                                "children": [],
                                "depth": 0,
                                "name": "Executed Gas",
                                "value": 14710
                            }
                        ],
                        "depth": -1,
                        "name": "Actual Gas Used",
                        "value": 37966
                    },
                    {
                        "children": [],
                        "depth": -1,
                        "name": "Refunded Gas",
                        "value": 0
                    }
                ],
                "depth": -2,
                "name": "Total Gas",
                "value": 37966
            }
        ],
        "isConfirmed": true,
        "mainTrace": [
            {
                "children": [
                    {
                        "children": [
                            {
                                "children": [],
                                "depth": 1,
                                "id": 1,
                                "order": 1
                            }
                        ],
                        "depth": 0,
                        "id": 0,
                        "order": 0
                    }
                ],
                "depth": -1,
                "id": -1,
                "order": -1
            }
        ],
        "mainTraceNodeCount": 2,
        "parentIdMap": {
            "0": -1,
            "1": 0
        },
        "tidyTrace": [
            {
                "children": [
                    {
                        "children": [
                            {
                                "children": [],
                                "depth": 1,
                                "id": 1,
                                "order": 1
                            }
                        ],
                        "depth": 0,
                        "id": 0,
                        "order": 0
                    }
                ],
                "depth": -1,
                "id": -1,
                "order": -1
            }
        ],
        "tidyTraceNodeCount": 2
    },
    "state_change": {
        "stateChanges": [
            {
                "address": "0x4dd672e77c795844fe3a464ef8ef0faae617c8fb",
                "erc": "ERC-20",
                "slots": [
                    {
                        "current": "0x000000000000000000000000000000000000000000001223d2b973596ba8d000",
                        "key": "0x2c449f3d7bc6a40f5522adad6e20eff7bcb2eb54f588d68f59c7334ef481015a",
                        "prev": "0x0000000000000000000000000000000000000000000016198d5b3e80c858d000"
                    },
                    {
                        "current": "0x00000000000000000000000000000000000000000000671badb526551f48b400",
                        "key": "0xed79a8a73f3836eed81b83ff3a39626851da678e404d5db7b5463045272e5d5b",
                        "prev": "0x000000000000000000000000000000000000000000006325f3135b2dc298b400"
                    }
                ],
                "storageVariables": [
                    {
                        "name": "balanceOf",
                        "type": "mapping(address => uint256)",
                        "value": {
                            "pairs": [
                                {
                                    "key": "0x7964f16aceac67e669ea00542653776512b5fe39",
                                    "value": {
                                        "current": "486914326778450000000000",
                                        "prev": "468214326778450000000000",
                                        "typeTag": 1
                                    }
                                },
                                {
                                    "key": "0x9695fca5f6f665397c10b028f9bb73e57029c5d3",
                                    "value": {
                                        "current": "85663417028680000000000",
                                        "prev": "104363417028680000000000",
                                        "typeTag": 1
                                    }
                                }
                            ],
                            "typeTag": 4
                        }
                    }
                ]
            }
        ]
    }
}