{
    "balance_change": {
        "balanceChanges": [
            {
                "account": "0x4459a1e8d8491ecc1b28ca6494f040c6ed1499c1",
                "assets": [
                    {
                        "address": "0xf306463c119dcc6848f3206c2235189ec88b59b4",
                        "amount": "1",
                        "iconUrl": "",
                        "isERC1155": false,
                        "isERC721": true,
                        "sign": false,
                        "tokenID": "4392",
                        "value": ""
                    }
                ]
            },
            {
                "account": "0x803b3ec66bfa55c7ea42079bef18d1c5289a86d8",
                "assets": [
                    {
                        "address": "0xf306463c119dcc6848f3206c2235189ec88b59b4",
                        "amount": "1",
                        "iconUrl": "",
                        "isERC1155": false,
                        "isERC721": true,
                        "sign": true,
                        "tokenID": "4392",
                        "value": ""
                    }
                ]
            }
        ]
    },
    "profile": {
        "basic_info": {
            "baseFee": "14.264463623",
            "blockNumber": 16907687,
            "callData": "0x23b872dd0000000000000000000000004459a1e8d8491ecc1b28ca6494f040c6ed1499c1000000000000000000000000803b3ec66bfa55c7ea42079bef18d1c5289a86d80000000000000000000000000000000000000000000000000000000000001128",
            "debugEnable": true,
            "errorInfo": "",
            "eventCount": 1,
            "feeRecipient": "0x388c818ca8b9251b393131c08a736a67ccb19297",
            "formatValue": "0",
            "gasLimit": 66016,
            "gasPrice": "14.364463623",
            "gasUsed": 44011,
            "intTxnCount": 0,
            "internalRevert": false,
            "internalRevertMessage": "",
            "isContractCreation": false,
            "isFlashloan": false,
            "maxFee": "17.546765124",
            "nonce": 15,
            "overwritedBlockNumber": -1,
            "priorityFee": "0.1",
            "receiver": "0xf306463c119dcc6848f3206c2235189ec88b59b4",
            "revertMessage": "",
            "sender": "0x4459a1e8d8491ecc1b28ca6494f040c6ed1499c1",
            "simulationEnable": true,
            "sourceTxnHash": "0xf5ea9948ca31f126a93cef9869d9359f427f7bc19b518c4dcebc2bfd5e1b62a8",
            "status": true,
            "timestamp": "2023-03-25T23:16:47Z",
            "transactionFee": "0.000632194408511853",
            "txnHash": "0xf5ea9948ca31f126a93cef9869d9359f427f7bc19b518c4dcebc2bfd5e1b62a8",
            "txnIndex": 69,
            "type": 2,
            "value": "0"
        },
        "fund_flow": [
            {
                "amount": "1",
                "from": "0x4459a1e8d8491ecc1b28ca6494f040c6ed1499c1",
                "id": 1,
                "isERC1155": false,
                "isERC721": true,
                "isReverted": false,
                "order": 1,
                "to": "0x803b3ec66bfa55c7ea42079bef18d1c5289a86d8",
                "token": "0xf306463c119dcc6848f3206c2235189ec88b59b4",
                "tokenID": "4392"
            }
        ],
        "token_infos": [
            {
                "address": "0xeeeeeeeeeeeeeeeeeeeeeeeeeeeeeeeeeeeeeeee",
                "decimals": 18
            },
            {
                "address": "0xc02aaa39b223fe8d0a0e5c4f27ead9083c756cc2",
                "decimals": 18
            }
        ]
    },
    "address_label": {
        "labels": [
            {
                "address": "0xeeeeeeeeeeeeeeeeeeeeeeeeeeeeeeeeeeeeeeee",
                "label": "Ether"
            },
            {
                "address": "0xf306463c119dcc6848f3206c2235189ec88b59b4",
                "label": "Ballman (BMN)"
            },
            {
                "address": "0x388c818ca8b9251b393131c08a736a67ccb19297",
                "label": "LidoExecutionLayerRewardsVault"
            },
            {
                "address": "0x0000000000000000000000000000000000000001",
                "label": "Precompiled"
            },
            {
                "address": "0x0000000000000000000000000000000000000002",
                "label": "Precompiled"
            },
            {
                "address": "0x0000000000000000000000000000000000000003",
                "label": "Precompiled"
            },
            {
                "address": "0x0000000000000000000000000000000000000004",
                "label": "Precompiled"
            }
        ]
    },
    "trace": {
        "accountLabels": null,
        "dataMap": {
            "-1": {
                "invocation": {
                    "address": "0x4459a1e8d8491ecc1b28ca6494f040c6ed1499c1",
                    "callData": "",
                    "decodedMethod": null,
                    "errorInfo": "",
                    "fromAddress": "",
                    "gasUsed": 0,
                    "id": -1,
                    "methodDecoded": false,
                    "operation": "",
                    "output": "",
                    "revert": false,
                    "revertMessage": "",
                    "selector": "",
                    "status": false,
                    "value": ""
                },
                "nodeType": 0
            },
            "0": {
                "invocation": {
                    "address": "0xf306463c119dcc6848f3206c2235189ec88b59b4",
                    "callData": "0x0000000000000000000000004459a1e8d8491ecc1b28ca6494f040c6ed1499c1000000000000000000000000803b3ec66bfa55c7ea42079bef18d1c5289a86d80000000000000000000000000000000000000000000000000000000000001128",
                    "decodedMethod": {
                        "callParams": [
                            {
                                "name": "from",
                                "type": "address",
                                "value": "0x4459a1e8d8491ecc1b28ca6494f040c6ed1499c1"
                            },
                            {
                                "name": "to",
                                "type": "address",
                                "value": "0x803b3ec66bfa55c7ea42079bef18d1c5289a86d8"
                            },
                            {
                                "decimalAvailable": true,
                                "name": "tokenId",
                                "type": "uint256",
                                "value": "4,392"
                            }
                        ],
                        "constructorArguments": "",
                        "name": "transferFrom",
                        "returnParams": [],
                        "signature": "transferFrom(address,address,uint256)"
                    },
                    "errorInfo": "",
                    "fromAddress": "0x4459a1e8d8491ecc1b28ca6494f040c6ed1499c1",
                    "gasUsed": 44011,
                    "id": 0,
                    "methodDecoded": true,
                    "operation": "CALL",
                    "output": "",
                    "revert": false,
                    "revertMessage": "",
                    "selector": "0x23b872dd",
                    "status": true,
                    "value": "0"
                },
                "nodeType": 0
            },
            "1": {
                "event": {
                    "contract": "0xf306463c119dcc6848f3206c2235189ec88b59b4",
                    "decodedLog": {
                        "name": "Transfer",
                        "params": [
                            {
                                "name": "from",
                                "type": "address",
                                "value": "0x4459a1e8d8491ecc1b28ca6494f040c6ed1499c1"
                            },
                            {
                                "name": "to",
                                "type": "address",
                                "value": "0x803b3ec66bfa55c7ea42079bef18d1c5289a86d8"
                            },
                            {
                                "decimalAvailable": true,
                                "name": "tokenId",
                                "type": "uint256",
                                "value": "4,392"
                            }
                        ],
                        "signature": "Transfer(address,address,uint256)"
                    },
                    "id": 1,
                    "logData": "0x",
                    "logDecoded": true,
                    "operation": "EVENT",
                    "revert": false,
                    "status": true,
                    "topics": [
                        "0xddf252ad1be2c89b69c2b068fc378daa952ba7f163c4a11628f55a4df523b3ef",
                        "0x0000000000000000000000004459a1e8d8491ecc1b28ca6494f040c6ed1499c1",
                        "0x000000000000000000000000803b3ec66bfa55c7ea42079bef18d1c5289a86d8",
                        "0x0000000000000000000000000000000000000000000000000000000000001128"
                    ]
                },
                "nodeType": 1
            }
        },
        "gasFlame": [
            {
                "children": [
                    {
                        "children": [
                            {
                                "children": [],
                                "depth": 0,
                                "name": "Initial Gas",
                                "value": 21952
                            },
                            {
                                "children": [],
                                "depth": 0,
                                "name": "Executed Gas",
                                "value": 22059
                            }
                        ],
                        "depth": -1,
                        "name": "Actual Gas Used",
                        "value": 44011
                    },
                    {
                        "children": [],
                        "depth": -1,
                        "name": "Refunded Gas",
                        "value": 0
                    }
                ],
                "depth": -2,
                "name": "Total Gas",
                "value": 44011
            }
        ],
        "isConfirmed": true,
        "mainTrace": [
            {
                "children": [
                    {
                        "children": [
                            {
                                "children": [],
                                "depth": 1,
                                "id": 1,
                                "order": 1
                            }
                        ],
                        "depth": 0,
                        "id": 0,
                        "order": 0
                    }
                ],
                "depth": -1,
                "id": -1,
                "order": -1
            }
        ],
        "mainTraceNodeCount": 2,
        "parentIdMap": {
            "0": -1,
            "1": 0
        },
        "tidyTrace": [
            {
                "children": [
                    {
                        "children": [
                            {
                                "children": [],
                                "depth": 1,
                                "id": 1,
                                "order": 1
                            }
                        ],
                        "depth": 0,
                        "id": 0,
                        "order": 0
                    }
                ],
                "depth": -1,
                "id": -1,
                "order": -1
            }
        ],
        "tidyTraceNodeCount": 2
    },
    "state_change": {
        "stateChanges": [
            {
                "address": "0xf306463c119dcc6848f3206c2235189ec88b59b4",
                "erc": "",
                "slots": [
                    {
                        "current": "0x0000000000000000000000000000000000000000000000000000000000000001",
                        "key": "0xc2430bbe8f82f22cda5e85fea8d9c2ea9cf5f0f9529e9124c038d9eb259efb61",
                        "prev": "0x0000000000000000000000000000000000000000000000000000000000000002"
                    },
                    {
                        "current": "0x0000000000000000000000000000000000000000000000000000000000000003",
                        "key": "0x8eba16f8d8767f0e48a141941173ed5b1f5af34da9469cc8b5ea663372238e21",
                        "prev": "0x0000000000000000000000000000000000000000000000000000000000000002"
                    },
                    {
                        "current": "0x000000000000000000000000803b3ec66bfa55c7ea42079bef18d1c5289a86d8",
                        "key": "0xdd790b8c8fe937c3b08b6ed9c36614b75aeb0767048e05bcdb182e704dc573aa",
                        "prev": "0x0000000000000000000000004459a1e8d8491ecc1b28ca6494f040c6ed1499c1"
                    }
                ],
                "storageVariables": []
            }
        ]
    }
}