{
    "balance_change": {
        "balanceChanges": [
            {
                "account": "0x5abac24c92cf8a890e66a469e1a38b1d476c05f8",
                "assets": [
                    {
                        "address": "0xeeeeeeeeeeeeeeeeeeeeeeeeeeeeeeeeeeeeeeee",
                        "amount": "1.373557961143776541",
                        "iconUrl": "https://assets.blocksec.com/image/1663669189317-3.png",
                        "isERC1155": false,
                        "isERC721": false,
                        "sign": false,
                        "value": "2707.1591209145101125"
                    }
                ]
            },
            {
                "account": "0xeebc1b0e0f19bd03502ada32cb7a9e217568dceb",
                "assets": [
                    {
                        "address": "0xeeeeeeeeeeeeeeeeeeeeeeeeeeeeeeeeeeeeeeee",
                        "amount": "1.373557961143776541",
                        "iconUrl": "https://assets.blocksec.com/image/1663669189317-3.png",
                        "isERC1155": false,
                        "isERC721": false,
                        "sign": true,
                        "value": "2707.1591209145101125"
                    }
                ]
            }
        ]
    },
    "profile": {
        "basic_info": {
            "baseFee": "100.836038523",
            "blockNumber": 17199025,
            "callData": "0xddb74ed9000000000000000000000000eebc1b0e0f19bd03502ada32cb7a9e217568dceb000000000000000000000000000000000000000000000000000000000000000000000000000000000000000000000000000000000000000000000000000000a0000000000000000000000000000000000000000000000000000000000000010000000000000000000000000000000000000000000000000000000000000001600000000000000000000000000000000000000000000000000000000000000002000000000000000000000000000000000000000000000000000000000000000000000000000000000000000000000000000000000000000000000000000000010000000000000000000000000000000000000000000000000000000000000002046a2034449f08cc6cd7565375ee35f6fd62987529530ef0bb144f471618ff7775b66c7a15237faf0ec816135decfaf3cde45de01d4890f6fca2d5aa4d9c8c6f000000000000000000000000000000000000000000000000000000000000000247d83e5c5f5b9d751fe42ae839170d0abdb5dcbeace4fc19801550512ee7ab5e1794c0a5be8b3a845d4bbb691330edd59a219d5bc80042e02e13f6b0452b92ab",
            "debugEnable": true,
            "errorInfo": "",
            "eventCount": 4,
            "feeRecipient": "0x690b9a9e9aa1c9db991c7721a92d351db4fac990",
            "formatValue": "0",
            "gasLimit": 75496,
            "gasPrice": "100.930038523",
            "gasUsed": 75496,
            "intTxnCount": 4,
            "internalRevert": false,
            "internalRevertMessage": "",
            "isContractCreation": false,
            "isFlashloan": false,
            "maxFee": "204.302199942",
            "nonce": 76835,
            "overwritedBlockNumber": -1,
            "priorityFee": "0.094",
            "receiver": "0x5abac24c92cf8a890e66a469e1a38b1d476c05f8",
            "revertMessage": "",
            "sender": "0x154421b5abfd5fc12b16715e91d564aa47c8ddee",
            "simulationEnable": true,
            "sourceTxnHash": "0xf53d18ea0960b256b9301eb4845910b86d4f3e85974313ae8de36b31e1f409c2",
            "status": true,
            "timestamp": "2023-05-06T03:57:11Z",
            "transactionFee": "0.007619814188332408",
            "txnHash": "0xf53d18ea0960b256b9301eb4845910b86d4f3e85974313ae8de36b31e1f409c2",
            "txnIndex": 145,
            "type": 2,
            "value": "0"
        },
        "fund_flow": [
            {
                "amount": "0",
                "from": "0x0000000000000000000000000000000000000000",
                "id": 1,
                "isERC1155": false,
                "isERC721": false,
                "isReverted": false,
                "order": 1,
                "to": "0x5abac24c92cf8a890e66a469e1a38b1d476c05f8",
                "token": "0xeebc1b0e0f19bd03502ada32cb7a9e217568dceb"
            },
            {
                "amount": "1.373557961143776541",
                "from": "0x5abac24c92cf8a890e66a469e1a38b1d476c05f8",
                "id": 2,
                "isERC1155": false,
                "isERC721": false,
                "isReverted": false,
                "order": 2,
                "to": "0xeebc1b0e0f19bd03502ada32cb7a9e217568dceb",
                "token": "0xeeeeeeeeeeeeeeeeeeeeeeeeeeeeeeeeeeeeeeee"
            }
        ],
        "token_infos": [
            {
                "address": "0xc02aaa39b223fe8d0a0e5c4f27ead9083c756cc2",
                "decimals": 18
            },
            {
                "address": "0xeebc1b0e0f19bd03502ada32cb7a9e217568dceb",
                "decimals": 18
            },
            {
                "address": "0xeeeeeeeeeeeeeeeeeeeeeeeeeeeeeeeeeeeeeeee",
                "decimals": 18
            }
        ]
    },
    "address_label": {
        "labels": [
            {
                "address": "0x0000000000000000000000000000000000000004",
                "label": "Precompiled"
            },
            {
                "address": "0xeeeeeeeeeeeeeeeeeeeeeeeeeeeeeeeeeeeeeeee",
                "label": "Ether"
            },
            {
                "address": "0xeebc1b0e0f19bd03502ada32cb7a9e217568dceb",
                "label": "Fintoch DC (FTH-DC)"
            },
            {
                "address": "0x0000000000000000000000000000000000000001",
                "label": "Precompiled"
            },
            {
                "address": "0x0000000000000000000000000000000000000002",
                "label": "Precompiled"
            },
            {
                "address": "0x0000000000000000000000000000000000000003",
                "label": "Precompiled"
            }
        ]
    },
    "trace": {
        "accountLabels": null,
        "dataMap": {
            "-1": {
                "invocation": {
                    "address": "0x154421b5abfd5fc12b16715e91d564aa47c8ddee",
                    "callData": "",
                    "decodedMethod": null,
                    "errorInfo": "",
                    "fromAddress": "",
                    "gasUsed": 0,
                    "id": -1,
                    "methodDecoded": false,
                    "operation": "",
                    "output": "",
                    "revert": false,
                    "revertMessage": "",
                    "selector": "",
                    "status": false,
                    "value": ""
                },
                "nodeType": 0
            },
            "0": {
                "invocation": {
                    "address": "0x5abac24c92cf8a890e66a469e1a38b1d476c05f8",
                    "callData": "0x000000000000000000000000eebc1b0e0f19bd03502ada32cb7a9e217568dceb000000000000000000000000000000000000000000000000000000000000000000000000000000000000000000000000000000000000000000000000000000a0000000000000000000000000000000000000000000000000000000000000010000000000000000000000000000000000000000000000000000000000000001600000000000000000000000000000000000000000000000000000000000000002000000000000000000000000000000000000000000000000000000000000000000000000000000000000000000000000000000000000000000000000000000010000000000000000000000000000000000000000000000000000000000000002046a2034449f08cc6cd7565375ee35f6fd62987529530ef0bb144f471618ff7775b66c7a15237faf0ec816135decfaf3cde45de01d4890f6fca2d5aa4d9c8c6f000000000000000000000000000000000000000000000000000000000000000247d83e5c5f5b9d751fe42ae839170d0abdb5dcbeace4fc19801550512ee7ab5e1794c0a5be8b3a845d4bbb691330edd59a219d5bc80042e02e13f6b0452b92ab",
                    "decodedMethod": {
                        "callParams": [
                            {
                                "name": "fintochPool",
                                "type": "address",
                                "value": "0xeebc1b0e0f19bd03502ada32cb7a9e217568dceb"
                            },
                            {
                                "name": "assetAmount",
                                "type": "uint256",
                                "value": "0"
                            },
                            {
                                "name": "vs",
                                "type": "uint8[]",
                                "value": [
                                    "0",
                                    "1"
                                ]
                            },
                            {
                                "name": "rs",
                                "type": "bytes32[]",
                                "value": [
                                    "0x046a2034449f08cc6cd7565375ee35f6fd62987529530ef0bb144f471618ff77",
                                    "0x75b66c7a15237faf0ec816135decfaf3cde45de01d4890f6fca2d5aa4d9c8c6f"
                                ]
                            },
                            {
                                "name": "ss",
                                "type": "bytes32[]",
                                "value": [
                                    "0x47d83e5c5f5b9d751fe42ae839170d0abdb5dcbeace4fc19801550512ee7ab5e",
                                    "0x1794c0a5be8b3a845d4bbb691330edd59a219d5bc80042e02e13f6b0452b92ab"
                                ]
                            }
                        ],
                        "constructorArguments": "",
                        "name": "liquidatedAssets",
                        "returnParams": [],
                        "signature": "liquidatedAssets(address,uint256,uint8[],bytes32[],bytes32[])"
                    },
                    "errorInfo": "",
                    "fromAddress": "0x154421b5abfd5fc12b16715e91d564aa47c8ddee",
                    "gasUsed": 75496,
                    "id": 0,
                    "methodDecoded": true,
                    "operation": "CALL",
                    "output": "",
                    "revert": false,
                    "revertMessage": "",
                    "selector": "0xddb74ed9",
                    "status": true,
                    "value": "0"
                },
                "nodeType": 0
            },
            "1": {
                "invocation": {
                    "address": "0x0000000000000000000000000000000000000001",
                    "callData": "0xa53fb8e3feadd066df06bfcc407c417ff4118aa198fee980bccd7088000000000000000000000000000000000000000000000000000000000000001b046a2034449f08cc6cd7565375ee35f6fd62987529530ef0bb144f471618ff7747d83e5c5f5b9d751fe42ae839170d0abdb5dcbeace4fc19801550512ee7ab5e",
                    "decodedMethod": {
                        "callParams": [
                            {
                                "name": "hash",
                                "type": "bytes32",
                                "value": "0xf1644908a53fb8e3feadd066df06bfcc407c417ff4118aa198fee980bccd7088"
                            },
                            {
                                "name": "v",
                                "type": "uint256",
                                "value": "27"
                            },
                            {
                                "name": "r",
                                "type": "bytes32",
                                "value": "0x046a2034449f08cc6cd7565375ee35f6fd62987529530ef0bb144f471618ff77"
                            },
                            {
                                "name": "s",
                                "type": "bytes32",
                                "value": "0x47d83e5c5f5b9d751fe42ae839170d0abdb5dcbeace4fc19801550512ee7ab5e"
                            }
                        ],
                        "constructorArguments": "",
                        "name": "ecrecover",
                        "returnParams": [
                            {
                                "name": "",
                                "type": "address",
                                "value": "0x330ee4a26a84641dba3c49ca0657d8ddc32e585f"
                            }
                        ],
                        "signature": "ecrecover(bytes32,uint256,bytes32,bytes32)"
                    },
                    "errorInfo": "",
                    "fromAddress": "0x5abac24c92cf8a890e66a469e1a38b1d476c05f8",
                    "gasUsed": 3000,
                    "id": 1,
                    "methodDecoded": true,
                    "operation": "STATICCALL",
                    "output": "0x000000000000000000000000330ee4a26a84641dba3c49ca0657d8ddc32e585f",
                    "revert": false,
                    "revertMessage": "",
                    "selector": "0xf1644908",
                    "status": true,
                    "value": "0"
                },
                "nodeType": 0
            },
            "2": {
                "invocation": {
                    "address": "0x0000000000000000000000000000000000000001",
                    "callData": "0xa53fb8e3feadd066df06bfcc407c417ff4118aa198fee980bccd7088000000000000000000000000000000000000000000000000000000000000001c75b66c7a15237faf0ec816135decfaf3cde45de01d4890f6fca2d5aa4d9c8c6f1794c0a5be8b3a845d4bbb691330edd59a219d5bc80042e02e13f6b0452b92ab",
                    "decodedMethod": {
                        "callParams": [
                            {
                                "name": "hash",
                                "type": "bytes32",
                                "value": "0xf1644908a53fb8e3feadd066df06bfcc407c417ff4118aa198fee980bccd7088"
                            },
                            {
                                "name": "v",
                                "type": "uint256",
                                "value": "28"
                            },
                            {
                                "name": "r",
                                "type": "bytes32",
                                "value": "0x75b66c7a15237faf0ec816135decfaf3cde45de01d4890f6fca2d5aa4d9c8c6f"
                            },
                            {
                                "name": "s",
                                "type": "bytes32",
                                "value": "0x1794c0a5be8b3a845d4bbb691330edd59a219d5bc80042e02e13f6b0452b92ab"
                            }
                        ],
                        "constructorArguments": "",
                        "name": "ecrecover",
                        "returnParams": [
                            {
                                "name": "",
                                "type": "address",
                                "value": "0x2b3db0d66e993acea132dfb2a17f94457bb95799"
                            }
                        ],
                        "signature": "ecrecover(bytes32,uint256,bytes32,bytes32)"
                    },
                    "errorInfo": "",
                    "fromAddress": "0x5abac24c92cf8a890e66a469e1a38b1d476c05f8",
                    "gasUsed": 3000,
                    "id": 2,
                    "methodDecoded": true,
                    "operation": "STATICCALL",
                    "output": "0x0000000000000000000000002b3db0d66e993acea132dfb2a17f94457bb95799",
                    "revert": false,
                    "revertMessage": "",
                    "selector": "0xf1644908",
                    "status": true,
                    "value": "0"
                },
                "nodeType": 0
            },
            "3": {
                "invocation": {
                    "address": "0xeebc1b0e0f19bd03502ada32cb7a9e217568dceb",
                    "callData": "0x0000000000000000000000005abac24c92cf8a890e66a469e1a38b1d476c05f80000000000000000000000000000000000000000000000000000000000000000",
                    "decodedMethod": {
                        "callParams": [
                            {
                                "name": "destination",
                                "type": "address",
                                "value": "0x5abac24c92cf8a890e66a469e1a38b1d476c05f8"
                            },
                            {
                                "name": "value",
                                "type": "uint256",
                                "value": "0"
                            }
                        ],
                        "constructorArguments": "",
                        "name": "mint",
                        "returnParams": [],
                        "signature": "mint(address,uint256)"
                    },
                    "errorInfo": "",
                    "fromAddress": "0x5abac24c92cf8a890e66a469e1a38b1d476c05f8",
                    "gasUsed": 8710,
                    "id": 3,
                    "methodDecoded": true,
                    "operation": "CALL",
                    "output": "",
                    "revert": false,
                    "revertMessage": "",
                    "selector": "0x40c10f19",
                    "status": true,
                    "value": "0"
                },
                "nodeType": 0
            },
            "4": {
                "event": {
                    "contract": "0xeebc1b0e0f19bd03502ada32cb7a9e217568dceb",
                    "decodedLog": {
                        "name": "Transfer",
                        "params": [
                            {
                                "name": "from",
                                "type": "address",
                                "value": "0x0000000000000000000000000000000000000000"
                            },
                            {
                                "name": "to",
                                "type": "address",
                                "value": "0x5abac24c92cf8a890e66a469e1a38b1d476c05f8"
                            },
                            {
                                "decimalAvailable": true,
                                "name": "value",
                                "type": "uint256",
                                "value": "0"
                            }
                        ],
                        "signature": "Transfer(address,address,uint256)"
                    },
                    "id": 4,
                    "logData": "0x0000000000000000000000000000000000000000000000000000000000000000",
                    "logDecoded": true,
                    "operation": "EVENT",
                    "revert": false,
                    "status": true,
                    "topics": [
                        "0xddf252ad1be2c89b69c2b068fc378daa952ba7f163c4a11628f55a4df523b3ef",
                        "0x0000000000000000000000000000000000000000000000000000000000000000",
                        "0x0000000000000000000000005abac24c92cf8a890e66a469e1a38b1d476c05f8"
                    ]
                },
                "nodeType": 1
            },
            "5": {
                "event": {
                    "contract": "0xeebc1b0e0f19bd03502ada32cb7a9e217568dceb",
                    "decodedLog": {
                        "name": "Mint",
                        "params": [
                            {
                                "name": "from",
                                "type": "address",
                                "value": "0x5abac24c92cf8a890e66a469e1a38b1d476c05f8"
                            },
                            {
                                "name": "to",
                                "type": "address",
                                "value": "0x5abac24c92cf8a890e66a469e1a38b1d476c05f8"
                            },
                            {
                                "name": "value",
                                "type": "uint256",
                                "value": "0"
                            }
                        ],
                        "signature": "Mint(address,address,uint256)"
                    },
                    "id": 5,
                    "logData": "0x0000000000000000000000005abac24c92cf8a890e66a469e1a38b1d476c05f80000000000000000000000005abac24c92cf8a890e66a469e1a38b1d476c05f80000000000000000000000000000000000000000000000000000000000000000",
                    "logDecoded": true,
                    "operation": "EVENT",
                    "revert": false,
                    "status": true,
                    "topics": [
                        "0xab8530f87dc9b59234c4623bf917212bb2536d647574c8e7e5da92c2ede0c9f8"
                    ]
                },
                "nodeType": 1
            },
            "6": {
                "invocation": {
                    "address": "0xeebc1b0e0f19bd03502ada32cb7a9e217568dceb",
                    "callData": "0x",
                    "decodedMethod": null,
                    "errorInfo": "",
                    "fromAddress": "0x5abac24c92cf8a890e66a469e1a38b1d476c05f8",
                    "gasUsed": 1403,
                    "id": 6,
                    "methodDecoded": false,
                    "operation": "CALL",
                    "output": "",
                    "revert": false,
                    "revertMessage": "",
                    "selector": "fallback",
                    "status": true,
                    "value": "1.373557961143776541"
                },
                "nodeType": 0
            },
            "7": {
                "event": {
                    "contract": "0xeebc1b0e0f19bd03502ada32cb7a9e217568dceb",
                    "decodedLog": {
                        "name": "Funded",
                        "params": [
                            {
                                "name": "from",
                                "type": "address",
                                "value": "0x5abac24c92cf8a890e66a469e1a38b1d476c05f8"
                            },
                            {
                                "name": "value",
                                "type": "uint256",
                                "value": "1,373,557,961,143,776,541"
                            }
                        ],
                        "signature": "Funded(address,uint256)"
                    },
                    "id": 7,
                    "logData": "0x0000000000000000000000005abac24c92cf8a890e66a469e1a38b1d476c05f8000000000000000000000000000000000000000000000000130fdbb03062751d",
                    "logDecoded": true,
                    "operation": "EVENT",
                    "revert": false,
                    "status": true,
                    "topics": [
                        "0x5af8184bef8e4b45eb9f6ed7734d04da38ced226495548f46e0c8ff8d7d9a524"
                    ]
                },
                "nodeType": 1
            },
            "8": {
                "event": {
                    "contract": "0x5abac24c92cf8a890e66a469e1a38b1d476c05f8",
                    "decodedLog": {
                        "name": "Liquidated",
                        "params": [
                            {
                                "name": "orderId",
                                "type": "string",
                                "value": "DC5BFDF272572A"
                            },
                            {
                                "name": "erc20contract",
                                "type": "address",
                                "value": "0xeeeeeeeeeeeeeeeeeeeeeeeeeeeeeeeeeeeeeeee"
                            },
                            {
                                "name": "fintochPool",
                                "type": "address",
                                "value": "0xeebc1b0e0f19bd03502ada32cb7a9e217568dceb"
                            },
                            {
                                "name": "recoveryAmount",
                                "type": "uint256",
                                "value": "0"
                            },
                            {
                                "name": "reserveAmount",
                                "type": "uint256",
                                "value": "1,373,557,961,143,776,541"
                            }
                        ],
                        "signature": "Liquidated(string,address,address,uint256,uint256)"
                    },
                    "id": 8,
                    "logData": "0x00000000000000000000000000000000000000000000000000000000000000a0000000000000000000000000eeeeeeeeeeeeeeeeeeeeeeeeeeeeeeeeeeeeeeee000000000000000000000000eebc1b0e0f19bd03502ada32cb7a9e217568dceb0000000000000000000000000000000000000000000000000000000000000000000000000000000000000000000000000000000000000000130fdbb03062751d000000000000000000000000000000000000000000000000000000000000000e4443354246444632373235373241000000000000000000000000000000000000",
                    "logDecoded": true,
                    "operation": "EVENT",
                    "revert": false,
                    "status": true,
                    "topics": [
                        "0x820330dd8dd7ae26cbe41c68a4749b6d054b4cc5e62f96ddd4f777c29e121d3b"
                    ]
                },
                "nodeType": 1
            }
        },
        "gasFlame": [
            {
                "children": [
                    {
                        "children": [
                            {
                                "children": [],
                                "depth": 0,
                                "name": "Initial Gas",
                                "value": 24716
                            },
                            {
                                "children": [
                                    {
                                        "children": [],
                                        "depth": 1,
                                        "name": "ecrecover",
                                        "value": 3000
                                    },
                                    {
                                        "children": [],
                                        "depth": 1,
                                        "name": "ecrecover",
                                        "value": 3000
                                    },
                                    {
                                        "children": [],
                                        "depth": 1,
                                        "name": "mint",
                                        "value": 8710
                                    },
                                    {
                                        "children": [],
                                        "depth": 1,
                                        "name": "fallback",
                                        "value": 1403
                                    }
                                ],
                                "depth": 0,
                                "name": "Executed Gas",
                                "value": 50780
                            }
                        ],
                        "depth": -1,
                        "name": "Actual Gas Used",
                        "value": 75496
                    },
                    {
                        "children": [],
                        "depth": -1,
                        "name": "Refunded Gas",
                        "value": 0
                    }
                ],
                "depth": -2,
                "name": "Total Gas",
                "value": 75496
            }
        ],
        "isConfirmed": true,
        "mainTrace": [
            {
                "children": [
                    {
                        "children": [
                            {
                                "children": [],
                                "depth": 1,
                                "id": 1,
                                "order": 1
                            },
                            {
                                "children": [],
                                "depth": 1,
                                "id": 2,
                                "order": 2
                            },
                            {
                                "children": [
                                    {
                                        "children": [],
                                        "depth": 2,
                                        "id": 4,
                                        "order": 4
                                    },
                                    {
                                        "children": [],
                                        "depth": 2,
                                        "id": 5,
                                        "order": 5
                                    }
                                ],
                                "depth": 1,
                                "id": 3,
                                "order": 3
                            },
                            {
                                "children": [
                                    {
                                        "children": [],
                                        "depth": 2,
                                        "id": 7,
                                        "order": 7
                                    }
                                ],
                                "depth": 1,
                                "id": 6,
                                "order": 6
                            },
                            {
                                "children": [],
                                "depth": 1,
                                "id": 8,
                                "order": 8
                            }
                        ],
                        "depth": 0,
                        "id": 0,
                        "order": 0
                    }
                ],
                "depth": -1,
                "id": -1,
                "order": -1
            }
        ],
        "mainTraceNodeCount": 9,
        "parentIdMap": {
            "0": -1,
            "1": 0,
            "2": 0,
            "3": 0,
            "4": 3,
            "5": 3,
            "6": 0,
            "7": 6,
            "8": 0
        },
        "tidyTrace": [
            {
                "children": [
                    {
                        "children": [
                            {
                                "children": [
                                    {
                                        "children": [],
                                        "depth": 2,
                                        "id": 4,
                                        "order": 4
                                    },
                                    {
                                        "children": [],
                                        "depth": 2,
                                        "id": 5,
                                        "order": 5
                                    }
                                ],
                                "depth": 1,
                                "id": 3,
                                "order": 3
                            },
                            {
                                "children": [
                                    {
                                        "children": [],
                                        "depth": 2,
                                        "id": 7,
                                        "order": 7
                                    }
                                ],
                                "depth": 1,
                                "id": 6,
                                "order": 6
                            },
                            {
                                "children": [],
                                "depth": 1,
                                "id": 8,
                                "order": 8
                            }
                        ],
                        "depth": 0,
                        "id": 0,
                        "order": 0
                    }
                ],
                "depth": -1,
                "id": -1,
                "order": -1
            }
        ],
        "tidyTraceNodeCount": 7
    },
    "state_change": {
        "stateChanges": [
            {
                "address": "0x5abac24c92cf8a890e66a469e1a38b1d476c05f8",
                "erc": "",
                "slots": [
                    {
                        "current": "0x0000000000000000000000000000000000000000000000000000000000000034",
                        "key": "0x0000000000000000000000000000000000000000000000000000000000000005",
                        "prev": "0x0000000000000000000000000000000000000000000000000000000000000033"
                    }
                ],
                "storageVariables": []
            }
        ]
    }
}