{
    "balance_change": {
        "balanceChanges": [
            {
                "account": "0xed1d9d48e152103cd0c4bdfa9bed7971c5a8d25f",
                "assets": [
                    {
                        "address": "0xd3ebdaea9aeac98de723f640bce4aa07e2e44192",
                        "amount": "1.4185",
                        "iconUrl": "",
                        "isERC1155": false,
                        "isERC721": false,
                        "sign": false,
                        "value": ""
                    }
                ]
            },
            {
                "account": "0xe7e8d205e1d6d6e5c05bf435b4c6d3b64d551c2b",
                "assets": [
                    {
                        "address": "0xd3ebdaea9aeac98de723f640bce4aa07e2e44192",
                        "amount": "1.4185",
                        "iconUrl": "",
                        "isERC1155": false,
                        "isERC721": false,
                        "sign": true,
                        "value": ""
                    }
                ]
            }
        ]
    },
    "profile": {
        "basic_info": {
            "baseFee": "",
            "blockNumber": 7943743,
            "callData": "0xa9059cbb000000000000000000000000e7e8d205e1d6d6e5c05bf435b4c6d3b64d551c2b00000000000000000000000000000000000000000000000013af863c05e44000",
            "debugEnable": true,
            "errorInfo": "",
            "eventCount": 1,
            "feeRecipient": "0x5a0b54d5dc17e0aadc383d2db43b0a0d3e029c4c",
            "formatValue": "0",
            "gasLimit": 100000,
            "gasPrice": "20",
            "gasUsed": 51852,
            "intTxnCount": 0,
            "internalRevert": false,
            "internalRevertMessage": "",
            "isContractCreation": false,
            "isFlashloan": false,
            "maxFee": "",
            "nonce": 333837,
            "overwritedBlockNumber": -1,
            "priorityFee": "",
            "receiver": "0xd3ebdaea9aeac98de723f640bce4aa07e2e44192",
            "revertMessage": "",
            "sender": "0xed1d9d48e152103cd0c4bdfa9bed7971c5a8d25f",
            "simulationEnable": true,
            "sourceTxnHash": "0xf621ae1e7f8349ef4e5c58d984f2efe0d7b38032ff7839196972ea30eafbdaa6",
            "status": true,
            "timestamp": "2019-06-12T11:48:27Z",
            "transactionFee": "0.00103704",
            "txnHash": "0xf621ae1e7f8349ef4e5c58d984f2efe0d7b38032ff7839196972ea30eafbdaa6",
            "txnIndex": 109,
            "type": 0,
            "value": "0"
        },
        "fund_flow": [
            {
                "amount": "1.4185",
                "from": "0xed1d9d48e152103cd0c4bdfa9bed7971c5a8d25f",
                "id": 1,
                "isERC1155": false,
                "isERC721": false,
                "isReverted": false,
                "order": 1,
                "to": "0xe7e8d205e1d6d6e5c05bf435b4c6d3b64d551c2b",
                "token": "0xd3ebdaea9aeac98de723f640bce4aa07e2e44192"
            }
        ],
        "token_infos": [
            {
                "address": "0xc02aaa39b223fe8d0a0e5c4f27ead9083c756cc2",
                "decimals": 18
            },
            {
                "address": "0xd3ebdaea9aeac98de723f640bce4aa07e2e44192",
                "decimals": 18
            },
            {
                "address": "0xeeeeeeeeeeeeeeeeeeeeeeeeeeeeeeeeeeeeeeee",
                "decimals": 18
            }
        ]
    },
    "address_label": {
        "labels": [
            {
                "address": "0xeeeeeeeeeeeeeeeeeeeeeeeeeeeeeeeeeeeeeeee",
                "label": "Ether"
            },
            {
                "address": "0xd3ebdaea9aeac98de723f640bce4aa07e2e44192",
                "label": "SCF Token (SCF)"
            },
            {
                "address": "0x0000000000000000000000000000000000000001",
                "label": "Precompiled"
            },
            {
                "address": "0x0000000000000000000000000000000000000002",
                "label": "Precompiled"
            },
            {
                "address": "0x0000000000000000000000000000000000000003",
                "label": "Precompiled"
            },
            {
                "address": "0x0000000000000000000000000000000000000004",
                "label": "Precompiled"
            }
        ]
    },
    "trace": {
        "accountLabels": null,
        "dataMap": {
            "-1": {
                "invocation": {
                    "address": "0xed1d9d48e152103cd0c4bdfa9bed7971c5a8d25f",
                    "callData": "",
                    "decodedMethod": null,
                    "errorInfo": "",
                    "fromAddress": "",
                    "gasUsed": 0,
                    "id": -1,
                    "methodDecoded": false,
                    "operation": "",
                    "output": "",
                    "revert": false,
                    "revertMessage": "",
                    "selector": "",
                    "status": false,
                    "value": ""
                },
                "nodeType": 0
            },
            "0": {
                "invocation": {
                    "address": "0xd3ebdaea9aeac98de723f640bce4aa07e2e44192",
                    "callData": "0x000000000000000000000000e7e8d205e1d6d6e5c05bf435b4c6d3b64d551c2b00000000000000000000000000000000000000000000000013af863c05e44000",
                    "decodedMethod": {
                        "callParams": [
                            {
                                "name": "_to",
                                "type": "address",
                                "value": "0xe7e8d205e1d6d6e5c05bf435b4c6d3b64d551c2b"
                            },
                            {
                                "decimalAvailable": true,
                                "name": "_value",
                                "type": "uint256",
                                "value": "1,418,500,000,000,000,000"
                            }
                        ],
                        "constructorArguments": "",
                        "name": "transfer",
                        "returnParams": [
                            {
                                "name": "",
                                "type": "bool",
                                "value": true
                            }
                        ],
                        "signature": "transfer(address,uint256)"
                    },
                    "errorInfo": "",
                    "fromAddress": "0xed1d9d48e152103cd0c4bdfa9bed7971c5a8d25f",
                    "gasUsed": 51852,
                    "id": 0,
                    "methodDecoded": true,
                    "operation": "CALL",
                    "output": "0x0000000000000000000000000000000000000000000000000000000000000001",
                    "revert": false,
                    "revertMessage": "",
                    "selector": "0xa9059cbb",
                    "status": true,
                    "value": "0"
                },
                "nodeType": 0
            },
            "1": {
                "event": {
                    "contract": "0xd3ebdaea9aeac98de723f640bce4aa07e2e44192",
                    "decodedLog": {
                        "name": "Transfer",
                        "params": [
                            {
                                "name": "_from",
                                "type": "address",
                                "value": "0xed1d9d48e152103cd0c4bdfa9bed7971c5a8d25f"
                            },
                            {
                                "name": "_to",
                                "type": "address",
                                "value": "0xe7e8d205e1d6d6e5c05bf435b4c6d3b64d551c2b"
                            },
                            {
                                "decimalAvailable": true,
                                "name": "_value",
                                "type": "uint256",
                                "value": "1,418,500,000,000,000,000"
                            }
                        ],
                        "signature": "Transfer(address,address,uint256)"
                    },
                    "id": 1,
                    "logData": "0x00000000000000000000000000000000000000000000000013af863c05e44000",
                    "logDecoded": true,
                    "operation": "EVENT",
                    "revert": false,
                    "status": true,
                    "topics": [
                        "0xddf252ad1be2c89b69c2b068fc378daa952ba7f163c4a11628f55a4df523b3ef",
                        "0x000000000000000000000000ed1d9d48e152103cd0c4bdfa9bed7971c5a8d25f",
                        "0x000000000000000000000000e7e8d205e1d6d6e5c05bf435b4c6d3b64d551c2b"
                    ]
                },
                "nodeType": 1
            }
        },
        "gasFlame": [
            {
                "children": [
                    {
                        "children": [
                            {
                                "children": [],
                                "depth": 0,
                                "name": "Initial Gas",
                                "value": 23256
                            },
                            {
                                "children": [],
                                "depth": 0,
                                "name": "Executed Gas",
                                "value": 28596
                            }
                        ],
                        "depth": -1,
                        "name": "Actual Gas Used",
                        "value": 51852
                    },
                    {
                        "children": [],
                        "depth": -1,
                        "name": "Refunded Gas",
                        "value": 0
                    }
                ],
                "depth": -2,
                "name": "Total Gas",
                "value": 51852
            }
        ],
        "isConfirmed": true,
        "mainTrace": [
            {
                "children": [
                    {
                        "children": [
                            {
                                "children": [],
                                "depth": 1,
                                "id": 1,
                                "order": 1
                            }
                        ],
                        "depth": 0,
                        "id": 0,
                        "order": 0
                    }
                ],
                "depth": -1,
                "id": -1,
                "order": -1
            }
        ],
        "mainTraceNodeCount": 2,
        "parentIdMap": {
            "0": -1,
            "1": 0
        },
        "tidyTrace": [
            {
                "children": [
                    {
                        "children": [
                            {
                                "children": [],
                                "depth": 1,
                                "id": 1,
                                "order": 1
                            }
                        ],
                        "depth": 0,
                        "id": 0,
                        "order": 0
                    }
                ],
                "depth": -1,
                "id": -1,
                "order": -1
            }
        ],
        "tidyTraceNodeCount": 2
    },
    "state_change": {
        "stateChanges": [
            {
                "address": "0xd3ebdaea9aeac98de723f640bce4aa07e2e44192",
                "erc": "ERC-20",
                "slots": [
                    {
                        "current": "0x0000000000000000000000000000000000000000000024961a46d3c6e2eb1e06",
                        "key": "0x73199afb0da06e8bdf676503c256cbb16a3abe3142c3be9dd7ca550bc024ee03",
                        "prev": "0x0000000000000000000000000000000000000000000024962df65a02e8cf5e06"
                    },
                    {
                        "current": "0x00000000000000000000000000000000000000000000000013af863c05e44000",
                        "key": "0x81c22cd0d672b45eb8c59bec05cc42ba192e737c5b593d8948e7f97662fd008e",
                        "prev": "0x0000000000000000000000000000000000000000000000000000000000000000"
                    }
                ],
                "storageVariables": [
                    {
                        "name": "balances",
                        "type": "mapping(address => uint256)",
                        "value": {
                            "pairs": [
                                {
                                    "key": "0xe7e8d205e1d6d6e5c05bf435b4c6d3b64d551c2b",
                                    "value": {
                                        "current": "1418500000000000000",
                                        "prev": "0",
                                        "typeTag": 1
                                    }
                                },
                                {
                                    "key": "0xed1d9d48e152103cd0c4bdfa9bed7971c5a8d25f",
                                    "value": {
                                        "current": "172774098427908180352518",
                                        "prev": "172775516927908180352518",
                                        "typeTag": 1
                                    }
                                }
                            ],
                            "typeTag": 4
                        }
                    }
                ]
            }
        ]
    }
}