{
    "balance_change": {
        "balanceChanges": [
            {
                "account": "0xee4b3b62191e1b5b0b949d9c4dd3363baec26124",
                "assets": [
                    {
                        "address": "0x98b4ca8bd52e4ed1f28d3f30d9f567d1166c9483",
                        "amount": "1.03",
                        "iconUrl": "",
                        "isERC1155": false,
                        "isERC721": false,
                        "sign": false,
                        "value": ""
                    }
                ]
            },
            {
                "account": "0x1f7616c82ae5732e0ee92dc0a35a7ceab1f85903",
                "assets": [
                    {
                        "address": "0x98b4ca8bd52e4ed1f28d3f30d9f567d1166c9483",
                        "amount": "1.03",
                        "iconUrl": "",
                        "isERC1155": false,
                        "isERC721": false,
                        "sign": true,
                        "value": ""
                    }
                ]
            }
        ]
    },
    "profile": {
        "basic_info": {
            "baseFee": "",
            "blockNumber": 5961469,
            "callData": "0xa9059cbb0000000000000000000000001f7616c82ae5732e0ee92dc0a35a7ceab1f859030000000000000000000000000000000000000000000000000e4b4b8af6a70000",
            "debugEnable": true,
            "errorInfo": "",
            "eventCount": 1,
            "feeRecipient": "0x52e44f279f4203dcf680395379e5f9990a69f13c",
            "formatValue": "0",
            "gasLimit": 60000,
            "gasPrice": "60",
            "gasUsed": 52325,
            "intTxnCount": 0,
            "internalRevert": false,
            "internalRevertMessage": "",
            "isContractCreation": false,
            "isFlashloan": false,
            "maxFee": "",
            "nonce": 16,
            "overwritedBlockNumber": -1,
            "priorityFee": "",
            "receiver": "0x98b4ca8bd52e4ed1f28d3f30d9f567d1166c9483",
            "revertMessage": "",
            "sender": "0xee4b3b62191e1b5b0b949d9c4dd3363baec26124",
            "simulationEnable": true,
            "sourceTxnHash": "0xf7527b7133220f96d3e5512c47e2692b8f5507ede7372898597760d90c428896",
            "status": true,
            "timestamp": "2018-07-14T07:27:07Z",
            "transactionFee": "0.0031395",
            "txnHash": "0xf7527b7133220f96d3e5512c47e2692b8f5507ede7372898597760d90c428896",
            "txnIndex": 53,
            "type": 0,
            "value": "0"
        },
        "fund_flow": [
            {
                "amount": "1.03",
                "from": "0xee4b3b62191e1b5b0b949d9c4dd3363baec26124",
                "id": 1,
                "isERC1155": false,
                "isERC721": false,
                "isReverted": false,
                "order": 1,
                "to": "0x1f7616c82ae5732e0ee92dc0a35a7ceab1f85903",
                "token": "0x98b4ca8bd52e4ed1f28d3f30d9f567d1166c9483"
            }
        ],
        "token_infos": [
            {
                "address": "0x98b4ca8bd52e4ed1f28d3f30d9f567d1166c9483",
                "decimals": 18
            },
            {
                "address": "0xc02aaa39b223fe8d0a0e5c4f27ead9083c756cc2",
                "decimals": 18
            },
            {
                "address": "0xeeeeeeeeeeeeeeeeeeeeeeeeeeeeeeeeeeeeeeee",
                "decimals": 18
            }
        ]
    },
    "address_label": {
        "labels": [
            {
                "address": "0x0000000000000000000000000000000000000003",
                "label": "Precompiled"
            },
            {
                "address": "0x0000000000000000000000000000000000000004",
                "label": "Precompiled"
            },
            {
                "address": "0xeeeeeeeeeeeeeeeeeeeeeeeeeeeeeeeeeeeeeeee",
                "label": "Ether"
            },
            {
                "address": "0x98b4ca8bd52e4ed1f28d3f30d9f567d1166c9483",
                "label": "iFishYunYu (iFish)"
            },
            {
                "address": "0x0000000000000000000000000000000000000001",
                "label": "Precompiled"
            },
            {
                "address": "0x0000000000000000000000000000000000000002",
                "label": "Precompiled"
            }
        ]
    },
    "trace": {
        "accountLabels": null,
        "dataMap": {
            "-1": {
                "invocation": {
                    "address": "0xee4b3b62191e1b5b0b949d9c4dd3363baec26124",
                    "callData": "",
                    "decodedMethod": null,
                    "errorInfo": "",
                    "fromAddress": "",
                    "gasUsed": 0,
                    "id": -1,
                    "methodDecoded": false,
                    "operation": "",
                    "output": "",
                    "revert": false,
                    "revertMessage": "",
                    "selector": "",
                    "status": false,
                    "value": ""
                },
                "nodeType": 0
            },
            "0": {
                "invocation": {
                    "address": "0x98b4ca8bd52e4ed1f28d3f30d9f567d1166c9483",
                    "callData": "0x0000000000000000000000001f7616c82ae5732e0ee92dc0a35a7ceab1f859030000000000000000000000000000000000000000000000000e4b4b8af6a70000",
                    "decodedMethod": {
                        "callParams": [
                            {
                                "name": "_to",
                                "type": "address",
                                "value": "0x1f7616c82ae5732e0ee92dc0a35a7ceab1f85903"
                            },
                            {
                                "decimalAvailable": true,
                                "name": "_value",
                                "type": "uint256",
                                "value": "1,030,000,000,000,000,000"
                            }
                        ],
                        "constructorArguments": "",
                        "name": "transfer",
                        "returnParams": [
                            {
                                "name": "",
                                "type": "bool",
                                "value": true
                            }
                        ],
                        "signature": "transfer(address,uint256)"
                    },
                    "errorInfo": "",
                    "fromAddress": "0xee4b3b62191e1b5b0b949d9c4dd3363baec26124",
                    "gasUsed": 52325,
                    "id": 0,
                    "methodDecoded": true,
                    "operation": "CALL",
                    "output": "0x0000000000000000000000000000000000000000000000000000000000000001",
                    "revert": false,
                    "revertMessage": "",
                    "selector": "0xa9059cbb",
                    "status": true,
                    "value": "0"
                },
                "nodeType": 0
            },
            "1": {
                "event": {
                    "contract": "0x98b4ca8bd52e4ed1f28d3f30d9f567d1166c9483",
                    "decodedLog": {
                        "name": "Transfer",
                        "params": [
                            {
                                "name": "from",
                                "type": "address",
                                "value": "0xee4b3b62191e1b5b0b949d9c4dd3363baec26124"
                            },
                            {
                                "name": "to",
                                "type": "address",
                                "value": "0x1f7616c82ae5732e0ee92dc0a35a7ceab1f85903"
                            },
                            {
                                "decimalAvailable": true,
                                "name": "value",
                                "type": "uint256",
                                "value": "1,030,000,000,000,000,000"
                            }
                        ],
                        "signature": "Transfer(address,address,uint256)"
                    },
                    "id": 1,
                    "logData": "0x0000000000000000000000000000000000000000000000000e4b4b8af6a70000",
                    "logDecoded": true,
                    "operation": "EVENT",
                    "revert": false,
                    "status": true,
                    "topics": [
                        "0xddf252ad1be2c89b69c2b068fc378daa952ba7f163c4a11628f55a4df523b3ef",
                        "0x000000000000000000000000ee4b3b62191e1b5b0b949d9c4dd3363baec26124",
                        "0x0000000000000000000000001f7616c82ae5732e0ee92dc0a35a7ceab1f85903"
                    ]
                },
                "nodeType": 1
            }
        },
        "gasFlame": [
            {
                "children": [
                    {
                        "children": [
                            {
                                "children": [],
                                "depth": 0,
                                "name": "Initial Gas",
                                "value": 23192
                            },
                            {
                                "children": [],
                                "depth": 0,
                                "name": "Executed Gas",
                                "value": 29133
                            }
                        ],
                        "depth": -1,
                        "name": "Actual Gas Used",
                        "value": 52325
                    },
                    {
                        "children": [],
                        "depth": -1,
                        "name": "Refunded Gas",
                        "value": 0
                    }
                ],
                "depth": -2,
                "name": "Total Gas",
                "value": 52325
            }
        ],
        "isConfirmed": true,
        "mainTrace": [
            {
                "children": [
                    {
                        "children": [
                            {
                                "children": [],
                                "depth": 1,
                                "id": 1,
                                "order": 1
                            }
                        ],
                        "depth": 0,
                        "id": 0,
                        "order": 0
                    }
                ],
                "depth": -1,
                "id": -1,
                "order": -1
            }
        ],
        "mainTraceNodeCount": 2,
        "parentIdMap": {
            "0": -1,
            "1": 0
        },
        "tidyTrace": [
            {
                "children": [
                    {
                        "children": [
                            {
                                "children": [],
                                "depth": 1,
                                "id": 1,
                                "order": 1
                            }
                        ],
                        "depth": 0,
                        "id": 0,
                        "order": 0
                    }
                ],
                "depth": -1,
                "id": -1,
                "order": -1
            }
        ],
        "tidyTraceNodeCount": 2
    },
    "state_change": {
        "stateChanges": [
            {
                "address": "0x98b4ca8bd52e4ed1f28d3f30d9f567d1166c9483",
                "erc": "ERC-20",
                "slots": [
                    {
                        "current": "0x000000000000000000000000000000000000000000000000ad5564d33ca10000",
                        "key": "0xf25cde60d8518733a45d120af3c40b7fdf0e65e290d1ab3ca42a0dc11565a0c0",
                        "prev": "0x000000000000000000000000000000000000000000000000bba0b05e33480000"
                    },
                    {
                        "current": "0x0000000000000000000000000000000000000000000000000e4b4b8af6a70000",
                        "key": "0x91084f4b93a82c0fa7263ce187ed95643c6b5bad82054bc02c84f0499b8b5748",
                        "prev": "0x0000000000000000000000000000000000000000000000000000000000000000"
                    }
                ],
                "storageVariables": [
                    {
                        "name": "balances",
                        "type": "mapping(address => uint256)",
                        "value": {
                            "pairs": [
                                {
                                    "key": "0x1f7616c82ae5732e0ee92dc0a35a7ceab1f85903",
                                    "value": {
                                        "current": "1030000000000000000",
                                        "prev": "0",
                                        "typeTag": 1
                                    }
                                },
                                {
                                    "key": "0xee4b3b62191e1b5b0b949d9c4dd3363baec26124",
                                    "value": {
                                        "current": "12490000000000000000",
                                        "prev": "13520000000000000000",
                                        "typeTag": 1
                                    }
                                }
                            ],
                            "typeTag": 4
                        }
                    }
                ]
            }
        ]
    }
}