{
    "balance_change": {
        "balanceChanges": [
            {
                "account": "0x0f7acb1b1718b3e7ae667abd890990605cdaafb2",
                "assets": [
                    {
                        "address": "0xeeeeeeeeeeeeeeeeeeeeeeeeeeeeeeeeeeeeeeee",
                        "amount": "0.100849595477282587",
                        "iconUrl": "https://assets.blocksec.com/image/1663669189317-3.png",
                        "isERC1155": false,
                        "isERC721": false,
                        "sign": false,
                        "value": "187.97356105245000918"
                    }
                ]
            },
            {
                "account": "0x150f94b44927f078737562f0fcf3c95c01cc2376",
                "assets": [
                    {
                        "address": "0x72e2f4830b9e45d52f80ac08cb2bec0fef72ed9c",
                        "amount": "0.1",
                        "iconUrl": "",
                        "isERC1155": false,
                        "isERC721": false,
                        "sign": false,
                        "value": ""
                    }
                ]
            },
            {
                "account": "0x101816545f6bd2b1076434b54383a1e633390a2e",
                "assets": [
                    {
                        "address": "0x72e2f4830b9e45d52f80ac08cb2bec0fef72ed9c",
                        "amount": "0.1",
                        "iconUrl": "",
                        "isERC1155": false,
                        "isERC721": false,
                        "sign": true,
                        "value": ""
                    }
                ]
            },
            {
                "account": "0x4d73adb72bc3dd368966edd0f0b2148401a178e2",
                "assets": [
                    {
                        "address": "0xeeeeeeeeeeeeeeeeeeeeeeeeeeeeeeeeeeeeeeee",
                        "amount": "0.000849595477282587",
                        "iconUrl": "https://assets.blocksec.com/image/1663669189317-3.png",
                        "isERC1155": false,
                        "isERC721": false,
                        "sign": true,
                        "value": "1.5835610101394700772"
                    }
                ]
            },
            {
                "account": "0x72e2f4830b9e45d52f80ac08cb2bec0fef72ed9c",
                "assets": [
                    {
                        "address": "0xeeeeeeeeeeeeeeeeeeeeeeeeeeeeeeeeeeeeeeee",
                        "amount": "0.1",
                        "iconUrl": "https://assets.blocksec.com/image/1663669189317-3.png",
                        "isERC1155": false,
                        "isERC721": false,
                        "sign": true,
                        "value": "186.3900000000000091"
                    }
                ]
            }
        ]
    },
    "profile": {
        "basic_info": {
            "baseFee": "34.841537427",
            "blockNumber": 17384711,
            "callData": "0x1114cd2a000000000000000000000000000000000000000000000000000000000000006e0000000000000000000000000f7acb1b1718b3e7ae667abd890990605cdaafb200000000000000000000000000000000000000000000000000000000000000a0000000000000000000000000000000000000000000000000016345785d8a000000000000000000000000000000000000000000000000000001617eb90b26c00000000000000000000000000000000000000000000000000000000000000000140f7acb1b1718b3e7ae667abd890990605cdaafb2000000000000000000000000",
            "debugEnable": true,
            "errorInfo": "",
            "eventCount": 10,
            "feeRecipient": "0x388c818ca8b9251b393131c08a736a67ccb19297",
            "formatValue": "0.100849595477282587",
            "gasLimit": 547616,
            "gasPrice": "34.951537427",
            "gasUsed": 390742,
            "intTxnCount": 36,
            "internalRevert": false,
            "internalRevertMessage": "",
            "isContractCreation": false,
            "isFlashloan": false,
            "maxFee": "45.88",
            "nonce": 5,
            "overwritedBlockNumber": -1,
            "priorityFee": "0.11",
            "receiver": "0x150f94b44927f078737562f0fcf3c95c01cc2376",
            "revertMessage": "",
            "sender": "0x0f7acb1b1718b3e7ae667abd890990605cdaafb2",
            "simulationEnable": true,
            "sourceTxnHash": "0xf7f87fd7d2c8e1d2d364d4c6eb3adb73fb1b7816379be33ae283cffb8d6000a2",
            "status": true,
            "timestamp": "2023-06-01T08:15:11Z",
            "transactionFee": "0.013657033637300834",
            "txnHash": "0xf7f87fd7d2c8e1d2d364d4c6eb3adb73fb1b7816379be33ae283cffb8d6000a2",
            "txnIndex": 106,
            "type": 2,
            "value": "100849595477282587"
        },
        "fund_flow": [
            {
                "amount": "0.100849595477282587",
                "from": "0x0f7acb1b1718b3e7ae667abd890990605cdaafb2",
                "id": 1,
                "isERC1155": false,
                "isERC721": false,
                "isReverted": false,
                "order": 1,
                "to": "0x150f94b44927f078737562f0fcf3c95c01cc2376",
                "token": "0xeeeeeeeeeeeeeeeeeeeeeeeeeeeeeeeeeeeeeeee"
            },
            {
                "amount": "0.1",
                "from": "0x150f94b44927f078737562f0fcf3c95c01cc2376",
                "id": 2,
                "isERC1155": false,
                "isERC721": false,
                "isReverted": false,
                "order": 2,
                "to": "0x72e2f4830b9e45d52f80ac08cb2bec0fef72ed9c",
                "token": "0xeeeeeeeeeeeeeeeeeeeeeeeeeeeeeeeeeeeeeeee"
            },
            {
                "amount": "0.000849595477282587",
                "from": "0x150f94b44927f078737562f0fcf3c95c01cc2376",
                "id": 3,
                "isERC1155": false,
                "isERC721": false,
                "isReverted": false,
                "order": 3,
                "to": "0x8731d54e9d02c286767d56ac03e8037c07e01e98",
                "token": "0xeeeeeeeeeeeeeeeeeeeeeeeeeeeeeeeeeeeeeeee"
            },
            {
                "amount": "0.1",
                "from": "0x150f94b44927f078737562f0fcf3c95c01cc2376",
                "id": 4,
                "isERC1155": false,
                "isERC721": false,
                "isReverted": false,
                "order": 4,
                "to": "0x101816545f6bd2b1076434b54383a1e633390a2e",
                "token": "0x72e2f4830b9e45d52f80ac08cb2bec0fef72ed9c"
            },
            {
                "amount": "0.000849595477282587",
                "from": "0x8731d54e9d02c286767d56ac03e8037c07e01e98",
                "id": 5,
                "isERC1155": false,
                "isERC721": false,
                "isReverted": false,
                "order": 5,
                "to": "0x296f55f8fb28e498b858d0bcda06d955b2cb3f97",
                "token": "0xeeeeeeeeeeeeeeeeeeeeeeeeeeeeeeeeeeeeeeee"
            },
            {
                "amount": "0.000849595477282587",
                "from": "0x296f55f8fb28e498b858d0bcda06d955b2cb3f97",
                "id": 6,
                "isERC1155": false,
                "isERC721": false,
                "isReverted": false,
                "order": 6,
                "to": "0x66a71dcef29a0ffbdbe3c6a460a3b5bc225cd675",
                "token": "0xeeeeeeeeeeeeeeeeeeeeeeeeeeeeeeeeeeeeeeee"
            },
            {
                "amount": "0.000849595477282587",
                "from": "0x66a71dcef29a0ffbdbe3c6a460a3b5bc225cd675",
                "id": 7,
                "isERC1155": false,
                "isERC721": false,
                "isReverted": false,
                "order": 7,
                "to": "0x4d73adb72bc3dd368966edd0f0b2148401a178e2",
                "token": "0xeeeeeeeeeeeeeeeeeeeeeeeeeeeeeeeeeeeeeeee"
            }
        ],
        "token_infos": [
            {
                "address": "0x72e2f4830b9e45d52f80ac08cb2bec0fef72ed9c",
                "decimals": 18
            },
            {
                "address": "0xc02aaa39b223fe8d0a0e5c4f27ead9083c756cc2",
                "decimals": 18
            },
            {
                "address": "0xeeeeeeeeeeeeeeeeeeeeeeeeeeeeeeeeeeeeeeee",
                "decimals": 18
            }
        ]
    },
    "address_label": {
        "labels": [
            {
                "address": "0x72e2f4830b9e45d52f80ac08cb2bec0fef72ed9c",
                "label": "Stargate Finance: SGETH Token"
            },
            {
                "address": "0x296f55f8fb28e498b858d0bcda06d955b2cb3f97",
                "label": "Stargate Finance: Bridge"
            },
            {
                "address": "0xb0d502e938ed5f4df2e681fe6e419ff29631d62b",
                "label": "Stargate Finance: LP Staking"
            },
            {
                "address": "0x0000000000000000000000000000000000000002",
                "label": "Precompiled"
            },
            {
                "address": "0x06d538690af257da524f25d0cd52fd85b1c2173e",
                "label": "Stargate Finance : Factory"
            },
            {
                "address": "0x4d73adb72bc3dd368966edd0f0b2148401a178e2",
                "label": "Layer Zero: Ultra Light Node v2"
            },
            {
                "address": "0xfa6f20b258f91fbf8cd1d25ab77ce844fcb3e759",
                "label": "PriceFeed"
            },
            {
                "address": "0xeeeeeeeeeeeeeeeeeeeeeeeeeeeeeeeeeeeeeeee",
                "label": "Ether"
            },
            {
                "address": "0x101816545f6bd2b1076434b54383a1e633390a2e",
                "label": "STARGATE: S*SGETH Token"
            },
            {
                "address": "0xdf0770df86a8034b3efef0a1bb3c889b8332ff56",
                "label": "STARGATE: S*USDC Token"
            },
            {
                "address": "0x66a71dcef29a0ffbdbe3c6a460a3b5bc225cd675",
                "label": "LayerZero: Ethereum Endpoint"
            },
            {
                "address": "0x5b905fe05f81f3a8ad8b28c6e17779cfabf76068",
                "label": "LayerZero: Nonce"
            },
            {
                "address": "0x0000000000000000000000000000000000000003",
                "label": "Precompiled"
            },
            {
                "address": "0x5a54fe5234e811466d5366846283323c954310b2",
                "label": "StarGate: LayerZero Oracle"
            },
            {
                "address": "0x902f09715b6303d4173037652fa7377e5b98089e",
                "label": "Layer Zero: Relayer V2"
            },
            {
                "address": "0x150f94b44927f078737562f0fcf3c95c01cc2376",
                "label": "Stargate Finance: ETH Router"
            },
            {
                "address": "0x0000000000000000000000000000000000000001",
                "label": "Precompiled"
            },
            {
                "address": "0x0000000000000000000000000000000000000004",
                "label": "Precompiled"
            },
            {
                "address": "0x3773e1e9deb273fcdf9f80bc88bb387b1e6ce34d",
                "label": "TreasuryV2"
            },
            {
                "address": "0xc3ce5497f8dca2481e4fa8fd71c42bea9158c6b4",
                "label": "OptimizedTransparentUpgradeableProxy"
            },
            {
                "address": "0x6faf1ab85ffbe7b3a557f4864046ff861734afd0",
                "label": "StargateFeeLibraryV05"
            },
            {
                "address": "0x8731d54e9d02c286767d56ac03e8037c07e01e98",
                "label": "Stargate Finance: Router"
            },
            {
                "address": "0x388c818ca8b9251b393131c08a736a67ccb19297",
                "label": "LidoExecutionLayerRewardsVault"
            }
        ]
    },
    "trace": {
        "accountLabels": null,
        "dataMap": {
            "-1": {
                "invocation": {
                    "address": "0x0f7acb1b1718b3e7ae667abd890990605cdaafb2",
                    "callData": "",
                    "decodedMethod": null,
                    "errorInfo": "",
                    "fromAddress": "",
                    "gasUsed": 0,
                    "id": -1,
                    "methodDecoded": false,
                    "operation": "",
                    "output": "",
                    "revert": false,
                    "revertMessage": "",
                    "selector": "",
                    "status": false,
                    "value": ""
                },
                "nodeType": 0
            },
            "0": {
                "invocation": {
                    "address": "0x150f94b44927f078737562f0fcf3c95c01cc2376",
                    "callData": "0x000000000000000000000000000000000000000000000000000000000000006e0000000000000000000000000f7acb1b1718b3e7ae667abd890990605cdaafb200000000000000000000000000000000000000000000000000000000000000a0000000000000000000000000000000000000000000000000016345785d8a000000000000000000000000000000000000000000000000000001617eb90b26c00000000000000000000000000000000000000000000000000000000000000000140f7acb1b1718b3e7ae667abd890990605cdaafb2000000000000000000000000",
                    "decodedMethod": {
                        "callParams": [
                            {
                                "name": "_dstChainId",
                                "type": "uint16",
                                "value": "110"
                            },
                            {
                                "name": "_refundAddress",
                                "type": "address",
                                "value": "0x0f7acb1b1718b3e7ae667abd890990605cdaafb2"
                            },
                            {
                                "name": "_toAddress",
                                "type": "bytes",
                                "value": "0x0f7acb1b1718b3e7ae667abd890990605cdaafb2"
                            },
                            {
                                "name": "_amountLD",
                                "type": "uint256",
                                "value": "100,000,000,000,000,000"
                            },
                            {
                                "name": "_minAmountLD",
                                "type": "uint256",
                                "value": "99,500,000,000,000,000"
                            }
                        ],
                        "constructorArguments": "",
                        "name": "swapETH",
                        "returnParams": [],
                        "signature": "swapETH(uint16,address,bytes,uint256,uint256)"
                    },
                    "errorInfo": "",
                    "fromAddress": "0x0f7acb1b1718b3e7ae667abd890990605cdaafb2",
                    "gasUsed": 390742,
                    "id": 0,
                    "methodDecoded": true,
                    "operation": "CALL",
                    "output": "",
                    "revert": false,
                    "revertMessage": "",
                    "selector": "0x1114cd2a",
                    "status": true,
                    "value": "0.100849595477282587"
                },
                "nodeType": 0
            },
            "1": {
                "invocation": {
                    "address": "0x72e2f4830b9e45d52f80ac08cb2bec0fef72ed9c",
                    "callData": "0x",
                    "decodedMethod": {
                        "callParams": [],
                        "constructorArguments": "",
                        "name": "deposit",
                        "returnParams": [],
                        "signature": "deposit()"
                    },
                    "errorInfo": "",
                    "fromAddress": "0x150f94b44927f078737562f0fcf3c95c01cc2376",
                    "gasUsed": 28795,
                    "id": 1,
                    "methodDecoded": true,
                    "operation": "CALL",
                    "output": "",
                    "revert": false,
                    "revertMessage": "",
                    "selector": "0xd0e30db0",
                    "status": true,
                    "value": "0.1"
                },
                "nodeType": 0
            },
            "10": {
                "invocation": {
                    "address": "0x06d538690af257da524f25d0cd52fd85b1c2173e",
                    "callData": "0x000000000000000000000000000000000000000000000000000000000000000d",
                    "decodedMethod": {
                        "callParams": [
                            {
                                "name": "",
                                "type": "uint256",
                                "value": "13"
                            }
                        ],
                        "constructorArguments": "",
                        "name": "getPool",
                        "returnParams": [
                            {
                                "name": "",
                                "type": "address",
                                "value": "0x101816545f6bd2b1076434b54383a1e633390a2e"
                            }
                        ],
                        "signature": "getPool(uint256)"
                    },
                    "errorInfo": "",
                    "fromAddress": "0x6faf1ab85ffbe7b3a557f4864046ff861734afd0",
                    "gasUsed": 514,
                    "id": 10,
                    "methodDecoded": true,
                    "operation": "STATICCALL",
                    "output": "0x000000000000000000000000101816545f6bd2b1076434b54383a1e633390a2e",
                    "revert": false,
                    "revertMessage": "",
                    "selector": "0x068bcd8d",
                    "status": true,
                    "value": "0"
                },
                "nodeType": 0
            },
            "11": {
                "invocation": {
                    "address": "0x101816545f6bd2b1076434b54383a1e633390a2e",
                    "callData": "0x",
                    "decodedMethod": {
                        "callParams": [],
                        "constructorArguments": "",
                        "name": "convertRate",
                        "returnParams": [
                            {
                                "name": "",
                                "type": "uint256",
                                "value": "1"
                            }
                        ],
                        "signature": "convertRate()"
                    },
                    "errorInfo": "",
                    "fromAddress": "0x6faf1ab85ffbe7b3a557f4864046ff861734afd0",
                    "gasUsed": 360,
                    "id": 11,
                    "methodDecoded": true,
                    "operation": "STATICCALL",
                    "output": "0x0000000000000000000000000000000000000000000000000000000000000001",
                    "revert": false,
                    "revertMessage": "",
                    "selector": "0xfeb56b15",
                    "status": true,
                    "value": "0"
                },
                "nodeType": 0
            },
            "12": {
                "invocation": {
                    "address": "0x101816545f6bd2b1076434b54383a1e633390a2e",
                    "callData": "0x",
                    "decodedMethod": {
                        "callParams": [],
                        "constructorArguments": "",
                        "name": "token",
                        "returnParams": [
                            {
                                "name": "",
                                "type": "address",
                                "value": "0x72e2f4830b9e45d52f80ac08cb2bec0fef72ed9c"
                            }
                        ],
                        "signature": "token()"
                    },
                    "errorInfo": "",
                    "fromAddress": "0x6faf1ab85ffbe7b3a557f4864046ff861734afd0",
                    "gasUsed": 362,
                    "id": 12,
                    "methodDecoded": true,
                    "operation": "STATICCALL",
                    "output": "0x00000000000000000000000072e2f4830b9e45d52f80ac08cb2bec0fef72ed9c",
                    "revert": false,
                    "revertMessage": "",
                    "selector": "0xfc0c546a",
                    "status": true,
                    "value": "0"
                },
                "nodeType": 0
            },
            "13": {
                "invocation": {
                    "address": "0x72e2f4830b9e45d52f80ac08cb2bec0fef72ed9c",
                    "callData": "0x000000000000000000000000101816545f6bd2b1076434b54383a1e633390a2e",
                    "decodedMethod": {
                        "callParams": [
                            {
                                "name": "",
                                "type": "address",
                                "value": "0x101816545f6bd2b1076434b54383a1e633390a2e"
                            }
                        ],
                        "constructorArguments": "",
                        "name": "balanceOf",
                        "returnParams": [
                            {
                                "decimalAvailable": true,
                                "name": "",
                                "type": "uint256",
                                "value": "3,199,442,616,965,614,853,076"
                            }
                        ],
                        "signature": "balanceOf(address)"
                    },
                    "errorInfo": "",
                    "fromAddress": "0x6faf1ab85ffbe7b3a557f4864046ff861734afd0",
                    "gasUsed": 2513,
                    "id": 13,
                    "methodDecoded": true,
                    "operation": "STATICCALL",
                    "output": "0x0000000000000000000000000000000000000000000000ad712f8cc1b9a4dbd4",
                    "revert": false,
                    "revertMessage": "",
                    "selector": "0x70a08231",
                    "status": true,
                    "value": "0"
                },
                "nodeType": 0
            },
            "14": {
                "invocation": {
                    "address": "0x101816545f6bd2b1076434b54383a1e633390a2e",
                    "callData": "0x",
                    "decodedMethod": {
                        "callParams": [],
                        "constructorArguments": "",
                        "name": "totalLiquidity",
                        "returnParams": [
                            {
                                "name": "",
                                "type": "uint256",
                                "value": "3,812,723,508,421,491,272,825"
                            }
                        ],
                        "signature": "totalLiquidity()"
                    },
                    "errorInfo": "",
                    "fromAddress": "0x6faf1ab85ffbe7b3a557f4864046ff861734afd0",
                    "gasUsed": 2463,
                    "id": 14,
                    "methodDecoded": true,
                    "operation": "STATICCALL",
                    "output": "0x0000000000000000000000000000000000000000000000ceb02af63c040dac79",
                    "revert": false,
                    "revertMessage": "",
                    "selector": "0x15770f92",
                    "status": true,
                    "value": "0"
                },
                "nodeType": 0
            },
            "15": {
                "invocation": {
                    "address": "0x101816545f6bd2b1076434b54383a1e633390a2e",
                    "callData": "0x",
                    "decodedMethod": {
                        "callParams": [],
                        "constructorArguments": "",
                        "name": "eqFeePool",
                        "returnParams": [
                            {
                                "name": "",
                                "type": "uint256",
                                "value": "34,053,745,526,289,218"
                            }
                        ],
                        "signature": "eqFeePool()"
                    },
                    "errorInfo": "",
                    "fromAddress": "0x6faf1ab85ffbe7b3a557f4864046ff861734afd0",
                    "gasUsed": 2418,
                    "id": 15,
                    "methodDecoded": true,
                    "operation": "STATICCALL",
                    "output": "0x0000000000000000000000000000000000000000000000000078fbb37d5db342",
                    "revert": false,
                    "revertMessage": "",
                    "selector": "0x9bb81119",
                    "status": true,
                    "value": "0"
                },
                "nodeType": 0
            },
            "16": {
                "invocation": {
                    "address": "0x06d538690af257da524f25d0cd52fd85b1c2173e",
                    "callData": "0x000000000000000000000000000000000000000000000000000000000000000d",
                    "decodedMethod": {
                        "callParams": [
                            {
                                "name": "",
                                "type": "uint256",
                                "value": "13"
                            }
                        ],
                        "constructorArguments": "",
                        "name": "getPool",
                        "returnParams": [
                            {
                                "name": "",
                                "type": "address",
                                "value": "0x101816545f6bd2b1076434b54383a1e633390a2e"
                            }
                        ],
                        "signature": "getPool(uint256)"
                    },
                    "errorInfo": "",
                    "fromAddress": "0x6faf1ab85ffbe7b3a557f4864046ff861734afd0",
                    "gasUsed": 514,
                    "id": 16,
                    "methodDecoded": true,
                    "operation": "STATICCALL",
                    "output": "0x000000000000000000000000101816545f6bd2b1076434b54383a1e633390a2e",
                    "revert": false,
                    "revertMessage": "",
                    "selector": "0x068bcd8d",
                    "status": true,
                    "value": "0"
                },
                "nodeType": 0
            },
            "17": {
                "invocation": {
                    "address": "0x101816545f6bd2b1076434b54383a1e633390a2e",
                    "callData": "0x000000000000000000000000000000000000000000000000000000000000006e000000000000000000000000000000000000000000000000000000000000000d",
                    "decodedMethod": {
                        "callParams": [
                            {
                                "name": "_dstChainId",
                                "type": "uint16",
                                "value": "110"
                            },
                            {
                                "name": "_dstPoolId",
                                "type": "uint256",
                                "value": "13"
                            }
                        ],
                        "constructorArguments": "",
                        "name": "getChainPath",
                        "returnParams": [
                            {
                                "name": "",
                                "type": "(bool,uint16,uint256,uint256,uint256,uint256,uint256,uint256)",
                                "value": [
                                    {
                                        "name": "ready",
                                        "type": "bool",
                                        "value": true
                                    },
                                    {
                                        "name": "dstChainId",
                                        "type": "uint16",
                                        "value": "110"
                                    },
                                    {
                                        "name": "dstPoolId",
                                        "type": "uint256",
                                        "value": "13"
                                    },
                                    {
                                        "name": "weight",
                                        "type": "uint256",
                                        "value": "1"
                                    },
                                    {
                                        "name": "balance",
                                        "type": "uint256",
                                        "value": "2,243,085,513,205,459,181,233"
                                    },
                                    {
                                        "name": "lkb",
                                        "type": "uint256",
                                        "value": "1,423,023,929,168,318,656,439"
                                    },
                                    {
                                        "name": "credits",
                                        "type": "uint256",
                                        "value": "0"
                                    },
                                    {
                                        "name": "idealBalance",
                                        "type": "uint256",
                                        "value": "2,243,617,519,991,867,449,534"
                                    }
                                ]
                            }
                        ],
                        "signature": "getChainPath(uint16,uint256)"
                    },
                    "errorInfo": "",
                    "fromAddress": "0x6faf1ab85ffbe7b3a557f4864046ff861734afd0",
                    "gasUsed": 12377,
                    "id": 17,
                    "methodDecoded": true,
                    "operation": "STATICCALL",
                    "output": "0x0000000000000000000000000000000000000000000000000000000000000001000000000000000000000000000000000000000000000000000000000000006e000000000000000000000000000000000000000000000000000000000000000d0000000000000000000000000000000000000000000000000000000000000001000000000000000000000000000000000000000000000079991095e24c2bdeb100000000000000000000000000000000000000000000004d246c94131e436fb70000000000000000000000000000000000000000000000000000000000000000000000000000000000000000000000000000000000000079a072a73cce2220be",
                    "revert": false,
                    "revertMessage": "",
                    "selector": "0x159f6add",
                    "status": true,
                    "value": "0"
                },
                "nodeType": 0
            },
            "18": {
                "invocation": {
                    "address": "0xb0d502e938ed5f4df2e681fe6e419ff29631d62b",
                    "callData": "0x0000000000000000000000000000000000000000000000000000000000000000",
                    "decodedMethod": {
                        "callParams": [
                            {
                                "name": "",
                                "type": "uint256",
                                "value": "0"
                            }
                        ],
                        "constructorArguments": "",
                        "name": "poolInfo",
                        "returnParams": [
                            {
                                "name": "lpToken",
                                "type": "address",
                                "value": "0xdf0770df86a8034b3efef0a1bb3c889b8332ff56"
                            },
                            {
                                "name": "allocPoint",
                                "type": "uint256",
                                "value": "3,950"
                            },
                            {
                                "name": "lastRewardBlock",
                                "type": "uint256",
                                "value": "17,381,213"
                            },
                            {
                                "name": "accStargatePerShare",
                                "type": "uint256",
                                "value": "92,457,043,514,821,332,009,070"
                            }
                        ],
                        "signature": "poolInfo(uint256)"
                    },
                    "errorInfo": "",
                    "fromAddress": "0x6faf1ab85ffbe7b3a557f4864046ff861734afd0",
                    "gasUsed": 11060,
                    "id": 18,
                    "methodDecoded": true,
                    "operation": "STATICCALL",
                    "output": "0x000000000000000000000000df0770df86a8034b3efef0a1bb3c889b8332ff560000000000000000000000000000000000000000000000000000000000000f6e000000000000000000000000000000000000000000000000000000000109375d0000000000000000000000000000000000000000000013941b3b3251aef9806e",
                    "revert": false,
                    "revertMessage": "",
                    "selector": "0x1526fe27",
                    "status": true,
                    "value": "0"
                },
                "nodeType": 0
            },
            "19": {
                "event": {
                    "contract": "0x101816545f6bd2b1076434b54383a1e633390a2e",
                    "decodedLog": {
                        "name": "Swap",
                        "params": [
                            {
                                "name": "chainId",
                                "type": "uint16",
                                "value": "110"
                            },
                            {
                                "name": "dstPoolId",
                                "type": "uint256",
                                "value": "13"
                            },
                            {
                                "name": "from",
                                "type": "address",
                                "value": "0x150f94b44927f078737562f0fcf3c95c01cc2376"
                            },
                            {
                                "name": "amountSD",
                                "type": "uint256",
                                "value": "99,940,000,000,000,000"
                            },
                            {
                                "name": "eqReward",
                                "type": "uint256",
                                "value": "0"
                            },
                            {
                                "name": "eqFee",
                                "type": "uint256",
                                "value": "3,000,000,000,000"
                            },
                            {
                                "name": "protocolFee",
                                "type": "uint256",
                                "value": "57,000,000,000,000"
                            },
                            {
                                "name": "lpFee",
                                "type": "uint256",
                                "value": "0"
                            }
                        ],
                        "signature": "Swap(uint16,uint256,address,uint256,uint256,uint256,uint256,uint256)"
                    },
                    "id": 19,
                    "logData": "0x000000000000000000000000000000000000000000000000000000000000006e000000000000000000000000000000000000000000000000000000000000000d000000000000000000000000150f94b44927f078737562f0fcf3c95c01cc237600000000000000000000000000000000000000000000000001630ee686da40000000000000000000000000000000000000000000000000000000000000000000000000000000000000000000000000000000000000000000000002ba7def3000000000000000000000000000000000000000000000000000000033d758c090000000000000000000000000000000000000000000000000000000000000000000",
                    "logDecoded": true,
                    "operation": "EVENT",
                    "revert": false,
                    "status": true,
                    "topics": [
                        "0x34660fc8af304464529f48a778e03d03e4d34bcd5f9b6f0cfbf3cd238c642f7f"
                    ]
                },
                "nodeType": 1
            },
            "2": {
                "event": {
                    "contract": "0x72e2f4830b9e45d52f80ac08cb2bec0fef72ed9c",
                    "decodedLog": {
                        "name": "Deposit",
                        "params": [
                            {
                                "name": "dst",
                                "type": "address",
                                "value": "0x150f94b44927f078737562f0fcf3c95c01cc2376"
                            },
                            {
                                "name": "wad",
                                "type": "uint256",
                                "value": "100,000,000,000,000,000"
                            }
                        ],
                        "signature": "Deposit(address,uint256)"
                    },
                    "id": 2,
                    "logData": "0x000000000000000000000000000000000000000000000000016345785d8a0000",
                    "logDecoded": true,
                    "operation": "EVENT",
                    "revert": false,
                    "status": true,
                    "topics": [
                        "0xe1fffcc4923d04b559f4d29a8bfc6cda04eb5b0d3c460751c2402c5c5cc9109c",
                        "0x000000000000000000000000150f94b44927f078737562f0fcf3c95c01cc2376"
                    ]
                },
                "nodeType": 1
            },
            "20": {
                "invocation": {
                    "address": "0x101816545f6bd2b1076434b54383a1e633390a2e",
                    "callData": "0x",
                    "decodedMethod": {
                        "callParams": [],
                        "constructorArguments": "",
                        "name": "token",
                        "returnParams": [
                            {
                                "name": "",
                                "type": "address",
                                "value": "0x72e2f4830b9e45d52f80ac08cb2bec0fef72ed9c"
                            }
                        ],
                        "signature": "token()"
                    },
                    "errorInfo": "",
                    "fromAddress": "0x8731d54e9d02c286767d56ac03e8037c07e01e98",
                    "gasUsed": 362,
                    "id": 20,
                    "methodDecoded": true,
                    "operation": "STATICCALL",
                    "output": "0x00000000000000000000000072e2f4830b9e45d52f80ac08cb2bec0fef72ed9c",
                    "revert": false,
                    "revertMessage": "",
                    "selector": "0xfc0c546a",
                    "status": true,
                    "value": "0"
                },
                "nodeType": 0
            },
            "21": {
                "invocation": {
                    "address": "0x72e2f4830b9e45d52f80ac08cb2bec0fef72ed9c",
                    "callData": "0x000000000000000000000000150f94b44927f078737562f0fcf3c95c01cc2376000000000000000000000000101816545f6bd2b1076434b54383a1e633390a2e000000000000000000000000000000000000000000000000016345785d8a0000",
                    "decodedMethod": {
                        "callParams": [
                            {
                                "name": "src",
                                "type": "address",
                                "value": "0x150f94b44927f078737562f0fcf3c95c01cc2376"
                            },
                            {
                                "name": "dst",
                                "type": "address",
                                "value": "0x101816545f6bd2b1076434b54383a1e633390a2e"
                            },
                            {
                                "decimalAvailable": true,
                                "name": "wad",
                                "type": "uint256",
                                "value": "100,000,000,000,000,000"
                            }
                        ],
                        "constructorArguments": "",
                        "name": "transferFrom",
                        "returnParams": [
                            {
                                "name": "",
                                "type": "bool",
                                "value": true
                            }
                        ],
                        "signature": "transferFrom(address,address,uint256)"
                    },
                    "errorInfo": "",
                    "fromAddress": "0x8731d54e9d02c286767d56ac03e8037c07e01e98",
                    "gasUsed": 14215,
                    "id": 21,
                    "methodDecoded": true,
                    "operation": "CALL",
                    "output": "0x0000000000000000000000000000000000000000000000000000000000000001",
                    "revert": false,
                    "revertMessage": "",
                    "selector": "0x23b872dd",
                    "status": true,
                    "value": "0"
                },
                "nodeType": 0
            },
            "22": {
                "event": {
                    "contract": "0x72e2f4830b9e45d52f80ac08cb2bec0fef72ed9c",
                    "decodedLog": {
                        "name": "Transfer",
                        "params": [
                            {
                                "name": "src",
                                "type": "address",
                                "value": "0x150f94b44927f078737562f0fcf3c95c01cc2376"
                            },
                            {
                                "name": "dst",
                                "type": "address",
                                "value": "0x101816545f6bd2b1076434b54383a1e633390a2e"
                            },
                            {
                                "decimalAvailable": true,
                                "name": "wad",
                                "type": "uint256",
                                "value": "100,000,000,000,000,000"
                            }
                        ],
                        "signature": "Transfer(address,address,uint256)"
                    },
                    "id": 22,
                    "logData": "0x000000000000000000000000000000000000000000000000016345785d8a0000",
                    "logDecoded": true,
                    "operation": "EVENT",
                    "revert": false,
                    "status": true,
                    "topics": [
                        "0xddf252ad1be2c89b69c2b068fc378daa952ba7f163c4a11628f55a4df523b3ef",
                        "0x000000000000000000000000150f94b44927f078737562f0fcf3c95c01cc2376",
                        "0x000000000000000000000000101816545f6bd2b1076434b54383a1e633390a2e"
                    ]
                },
                "nodeType": 1
            },
            "23": {
                "invocation": {
                    "address": "0x101816545f6bd2b1076434b54383a1e633390a2e",
                    "callData": "0x000000000000000000000000000000000000000000000000000000000000006e000000000000000000000000000000000000000000000000000000000000000d",
                    "decodedMethod": {
                        "callParams": [
                            {
                                "name": "_dstChainId",
                                "type": "uint16",
                                "value": "110"
                            },
                            {
                                "name": "_dstPoolId",
                                "type": "uint256",
                                "value": "13"
                            }
                        ],
                        "constructorArguments": "",
                        "name": "sendCredits",
                        "returnParams": [
                            {
                                "name": "c",
                                "type": "(uint256,uint256)",
                                "value": [
                                    {
                                        "name": "credits",
                                        "type": "uint256",
                                        "value": "0"
                                    },
                                    {
                                        "name": "idealBalance",
                                        "type": "uint256",
                                        "value": "1,906,361,754,210,745,636,412"
                                    }
                                ]
                            }
                        ],
                        "signature": "sendCredits(uint16,uint256)"
                    },
                    "errorInfo": "",
                    "fromAddress": "0x8731d54e9d02c286767d56ac03e8037c07e01e98",
                    "gasUsed": 9995,
                    "id": 23,
                    "methodDecoded": true,
                    "operation": "CALL",
                    "output": "0x000000000000000000000000000000000000000000000000000000000000000000000000000000000000000000000000000000000000006758157b1e0206d63c",
                    "revert": false,
                    "revertMessage": "",
                    "selector": "0x08e9d8c2",
                    "status": true,
                    "value": "0"
                },
                "nodeType": 0
            },
            "24": {
                "event": {
                    "contract": "0x101816545f6bd2b1076434b54383a1e633390a2e",
                    "decodedLog": {
                        "name": "SendCredits",
                        "params": [
                            {
                                "name": "dstChainId",
                                "type": "uint16",
                                "value": "110"
                            },
                            {
                                "name": "dstPoolId",
                                "type": "uint256",
                                "value": "13"
                            },
                            {
                                "name": "credits",
                                "type": "uint256",
                                "value": "0"
                            },
                            {
                                "name": "idealBalance",
                                "type": "uint256",
                                "value": "1,906,361,754,210,745,636,412"
                            }
                        ],
                        "signature": "SendCredits(uint16,uint256,uint256,uint256)"
                    },
                    "id": 24,
                    "logData": "0x000000000000000000000000000000000000000000000000000000000000006e000000000000000000000000000000000000000000000000000000000000000d000000000000000000000000000000000000000000000000000000000000000000000000000000000000000000000000000000000000006758157b1e0206d63c",
                    "logDecoded": true,
                    "operation": "EVENT",
                    "revert": false,
                    "status": true,
                    "topics": [
                        "0x6939f93e3f21cf1362eb17155b740277de5687dae9a83a85909fd71da95944e7"
                    ]
                },
                "nodeType": 1
            },
            "25": {
                "invocation": {
                    "address": "0x296f55f8fb28e498b858d0bcda06d955b2cb3f97",
                    "callData": "0x000000000000000000000000000000000000000000000000000000000000006e000000000000000000000000000000000000000000000000000000000000000d000000000000000000000000000000000000000000000000000000000000000d0000000000000000000000000f7acb1b1718b3e7ae667abd890990605cdaafb2000000000000000000000000000000000000000000000000000000000000000000000000000000000000000000000000000000000000006758157b1e0206d63c00000000000000000000000000000000000000000000000001630ee686da4000000000000000000000000000000000000000000000000000000002ba7def300000000000000000000000000000000000000000000000000000000000000000000000000000000000000000000000000000000000000000000000000000000000000000000000000000000000000000000000000000000000000033d758c09000000000000000000000000000000000000000000000000000016345785d8a000000000000000000000000000000000000000000000000000000000000000001e0000000000000000000000000000000000000000000000000000000000000028000000000000000000000000000000000000000000000000000000000000002c00000000000000000000000000000000000000000000000000000000000000000000000000000000000000000000000000000000000000000000000000000000000000000000000000000000000000000000000000000000000000000000000600000000000000000000000000000000000000000000000000000000000000002307800000000000000000000000000000000000000000000000000000000000000000000000000000000000000000000000000000000000000000000000000140f7acb1b1718b3e7ae667abd890990605cdaafb20000000000000000000000000000000000000000000000000000000000000000000000000000000000000000",
                    "decodedMethod": {
                        "callParams": [
                            {
                                "name": "_chainId",
                                "type": "uint16",
                                "value": "110"
                            },
                            {
                                "name": "_srcPoolId",
                                "type": "uint256",
                                "value": "13"
                            },
                            {
                                "name": "_dstPoolId",
                                "type": "uint256",
                                "value": "13"
                            },
                            {
                                "name": "_refundAddress",
                                "type": "address",
                                "value": "0x0f7acb1b1718b3e7ae667abd890990605cdaafb2"
                            },
                            {
                                "name": "_c",
                                "type": "(uint256,uint256)",
                                "value": [
                                    {
                                        "name": "credits",
                                        "type": "uint256",
                                        "value": "0"
                                    },
                                    {
                                        "name": "idealBalance",
                                        "type": "uint256",
                                        "value": "1,906,361,754,210,745,636,412"
                                    }
                                ]
                            },
                            {
                                "name": "_s",
                                "type": "(uint256,uint256,uint256,uint256,uint256,uint256)",
                                "value": [
                                    {
                                        "name": "amount",
                                        "type": "uint256",
                                        "value": "99,940,000,000,000,000"
                                    },
                                    {
                                        "name": "eqFee",
                                        "type": "uint256",
                                        "value": "3,000,000,000,000"
                                    },
                                    {
                                        "name": "eqReward",
                                        "type": "uint256",
                                        "value": "0"
                                    },
                                    {
                                        "name": "lpFee",
                                        "type": "uint256",
                                        "value": "0"
                                    },
                                    {
                                        "name": "protocolFee",
                                        "type": "uint256",
                                        "value": "57,000,000,000,000"
                                    },
                                    {
                                        "name": "lkbRemove",
                                        "type": "uint256",
                                        "value": "100,000,000,000,000,000"
                                    }
                                ]
                            },
                            {
                                "name": "_lzTxParams",
                                "type": "(uint256,uint256,bytes)",
                                "value": [
                                    {
                                        "name": "dstGasForCall",
                                        "type": "uint256",
                                        "value": "0"
                                    },
                                    {
                                        "name": "dstNativeAmount",
                                        "type": "uint256",
                                        "value": "0"
                                    },
                                    {
                                        "name": "dstNativeAddr",
                                        "type": "bytes",
                                        "value": "0x3078"
                                    }
                                ]
                            },
                            {
                                "name": "_to",
                                "type": "bytes",
                                "value": "0x0f7acb1b1718b3e7ae667abd890990605cdaafb2"
                            },
                            {
                                "name": "_payload",
                                "type": "bytes",
                                "value": "0x"
                            }
                        ],
                        "constructorArguments": "",
                        "name": "swap",
                        "returnParams": [],
                        "signature": "swap(uint16,uint256,uint256,address,(uint256,uint256),(uint256,uint256,uint256,uint256,uint256,uint256),(uint256,uint256,bytes),bytes,bytes)"
                    },
                    "errorInfo": "",
                    "fromAddress": "0x8731d54e9d02c286767d56ac03e8037c07e01e98",
                    "gasUsed": 195983,
                    "id": 25,
                    "methodDecoded": true,
                    "operation": "CALL",
                    "output": "",
                    "revert": false,
                    "revertMessage": "",
                    "selector": "0x51156e73",
                    "status": true,
                    "value": "0.000849595477282587"
                },
                "nodeType": 0
            },
            "26": {
                "invocation": {
                    "address": "0x66a71dcef29a0ffbdbe3c6a460a3b5bc225cd675",
                    "callData": "0x000000000000000000000000000000000000000000000000000000000000006e000000000000000000000000296f55f8fb28e498b858d0bcda06d955b2cb3f97",
                    "decodedMethod": {
                        "callParams": [
                            {
                                "name": "_dstChainId",
                                "type": "uint16",
                                "value": "110"
                            },
                            {
                                "name": "_srcAddress",
                                "type": "address",
                                "value": "0x296f55f8fb28e498b858d0bcda06d955b2cb3f97"
                            }
                        ],
                        "constructorArguments": "",
                        "name": "getOutboundNonce",
                        "returnParams": [
                            {
                                "name": "",
                                "type": "uint64",
                                "value": "64,394"
                            }
                        ],
                        "signature": "getOutboundNonce(uint16,address)"
                    },
                    "errorInfo": "",
                    "fromAddress": "0x296f55f8fb28e498b858d0bcda06d955b2cb3f97",
                    "gasUsed": 2632,
                    "id": 26,
                    "methodDecoded": true,
                    "operation": "STATICCALL",
                    "output": "0x000000000000000000000000000000000000000000000000000000000000fb8a",
                    "revert": false,
                    "revertMessage": "",
                    "selector": "0x7a145748",
                    "status": true,
                    "value": "0"
                },
                "nodeType": 0
            },
            "27": {
                "invocation": {
                    "address": "0x66a71dcef29a0ffbdbe3c6a460a3b5bc225cd675",
                    "callData": "0x000000000000000000000000000000000000000000000000000000000000006e00000000000000000000000000000000000000000000000000000000000000c000000000000000000000000000000000000000000000000000000000000001200000000000000000000000000f7acb1b1718b3e7ae667abd890990605cdaafb2000000000000000000000000296f55f8fb28e498b858d0bcda06d955b2cb3f9700000000000000000000000000000000000000000000000000000000000003600000000000000000000000000000000000000000000000000000000000000028352d8275aae3e0c2404d9f68f6cee084b5beb3dd296f55f8fb28e498b858d0bcda06d955b2cb3f9700000000000000000000000000000000000000000000000000000000000000000000000000000000000000000000000000000000000002200000000000000000000000000000000000000000000000000000000000000001000000000000000000000000000000000000000000000000000000000000000d000000000000000000000000000000000000000000000000000000000000000d0000000000000000000000000000000000000000000000000000000000000000000000000000000000000000000000000000000000000000000000000000000000000000000000000000000000000000000000000000006758157b1e0206d63c00000000000000000000000000000000000000000000000001630ee686da4000000000000000000000000000000000000000000000000000000002ba7def300000000000000000000000000000000000000000000000000000000000000000000000000000000000000000000000000000000000000000000000000000000000000000000000000000000000000000000000000000000000000033d758c09000000000000000000000000000000000000000000000000000016345785d8a000000000000000000000000000000000000000000000000000000000000000001c0000000000000000000000000000000000000000000000000000000000000020000000000000000000000000000000000000000000000000000000000000000140f7acb1b1718b3e7ae667abd890990605cdaafb2000000000000000000000000000000000000000000000000000000000000000000000000000000000000000000000000000000000000000000000000000000000000000000000000000000220001000000000000000000000000000000000000000000000000000000000002ab98000000000000000000000000000000000000000000000000000000000000",
                    "decodedMethod": {
                        "callParams": [
                            {
                                "name": "_dstChainId",
                                "type": "uint16",
                                "value": "110"
                            },
                            {
                                "name": "_destination",
                                "type": "bytes",
                                "value": "0x352d8275aae3e0c2404d9f68f6cee084b5beb3dd296f55f8fb28e498b858d0bcda06d955b2cb3f97"
                            },
                            {
                                "name": "_payload",
                                "type": "bytes",
                                "value": "0x0000000000000000000000000000000000000000000000000000000000000001000000000000000000000000000000000000000000000000000000000000000d000000000000000000000000000000000000000000000000000000000000000d0000000000000000000000000000000000000000000000000000000000000000000000000000000000000000000000000000000000000000000000000000000000000000000000000000000000000000000000000000006758157b1e0206d63c00000000000000000000000000000000000000000000000001630ee686da4000000000000000000000000000000000000000000000000000000002ba7def300000000000000000000000000000000000000000000000000000000000000000000000000000000000000000000000000000000000000000000000000000000000000000000000000000000000000000000000000000000000000033d758c09000000000000000000000000000000000000000000000000000016345785d8a000000000000000000000000000000000000000000000000000000000000000001c0000000000000000000000000000000000000000000000000000000000000020000000000000000000000000000000000000000000000000000000000000000140f7acb1b1718b3e7ae667abd890990605cdaafb20000000000000000000000000000000000000000000000000000000000000000000000000000000000000000"
                            },
                            {
                                "name": "_refundAddress",
                                "type": "address",
                                "value": "0x0f7acb1b1718b3e7ae667abd890990605cdaafb2"
                            },
                            {
                                "name": "_zroPaymentAddress",
                                "type": "address",
                                "value": "0x296f55f8fb28e498b858d0bcda06d955b2cb3f97"
                            },
                            {
                                "name": "_adapterParams",
                                "type": "bytes",
                                "value": "0x0001000000000000000000000000000000000000000000000000000000000002ab98"
                            }
                        ],
                        "constructorArguments": "",
                        "name": "send",
                        "returnParams": [],
                        "signature": "send(uint16,bytes,bytes,address,address,bytes)"
                    },
                    "errorInfo": "",
                    "fromAddress": "0x296f55f8fb28e498b858d0bcda06d955b2cb3f97",
                    "gasUsed": 166867,
                    "id": 27,
                    "methodDecoded": true,
                    "operation": "CALL",
                    "output": "",
                    "revert": false,
                    "revertMessage": "",
                    "selector": "0xc5803100",
                    "status": true,
                    "value": "0.000849595477282587"
                },
                "nodeType": 0
            },
            "28": {
                "invocation": {
                    "address": "0x4d73adb72bc3dd368966edd0f0b2148401a178e2",
                    "callData": "0x000000000000000000000000296f55f8fb28e498b858d0bcda06d955b2cb3f97000000000000000000000000000000000000000000000000000000000000fb8b000000000000000000000000000000000000000000000000000000000000006e000000000000000000000000000000000000000000000000000000000000010000000000000000000000000000000000000000000000000000000000000001600000000000000000000000000f7acb1b1718b3e7ae667abd890990605cdaafb2000000000000000000000000296f55f8fb28e498b858d0bcda06d955b2cb3f9700000000000000000000000000000000000000000000000000000000000003a00000000000000000000000000000000000000000000000000000000000000028352d8275aae3e0c2404d9f68f6cee084b5beb3dd296f55f8fb28e498b858d0bcda06d955b2cb3f9700000000000000000000000000000000000000000000000000000000000000000000000000000000000000000000000000000000000002200000000000000000000000000000000000000000000000000000000000000001000000000000000000000000000000000000000000000000000000000000000d000000000000000000000000000000000000000000000000000000000000000d0000000000000000000000000000000000000000000000000000000000000000000000000000000000000000000000000000000000000000000000000000000000000000000000000000000000000000000000000000006758157b1e0206d63c00000000000000000000000000000000000000000000000001630ee686da4000000000000000000000000000000000000000000000000000000002ba7def300000000000000000000000000000000000000000000000000000000000000000000000000000000000000000000000000000000000000000000000000000000000000000000000000000000000000000000000000000000000000033d758c09000000000000000000000000000000000000000000000000000016345785d8a000000000000000000000000000000000000000000000000000000000000000001c0000000000000000000000000000000000000000000000000000000000000020000000000000000000000000000000000000000000000000000000000000000140f7acb1b1718b3e7ae667abd890990605cdaafb2000000000000000000000000000000000000000000000000000000000000000000000000000000000000000000000000000000000000000000000000000000000000000000000000000000220001000000000000000000000000000000000000000000000000000000000002ab98000000000000000000000000000000000000000000000000000000000000",
                    "decodedMethod": {
                        "callParams": [
                            {
                                "name": "_ua",
                                "type": "address",
                                "value": "0x296f55f8fb28e498b858d0bcda06d955b2cb3f97"
                            },
                            {
                                "name": "",
                                "type": "uint64",
                                "value": "64,395"
                            },
                            {
                                "name": "_dstChainId",
                                "type": "uint16",
                                "value": "110"
                            },
                            {
                                "name": "_path",
                                "type": "bytes",
                                "value": "0x352d8275aae3e0c2404d9f68f6cee084b5beb3dd296f55f8fb28e498b858d0bcda06d955b2cb3f97"
                            },
                            {
                                "name": "_payload",
                                "type": "bytes",
                                "value": "0x0000000000000000000000000000000000000000000000000000000000000001000000000000000000000000000000000000000000000000000000000000000d000000000000000000000000000000000000000000000000000000000000000d0000000000000000000000000000000000000000000000000000000000000000000000000000000000000000000000000000000000000000000000000000000000000000000000000000000000000000000000000000006758157b1e0206d63c00000000000000000000000000000000000000000000000001630ee686da4000000000000000000000000000000000000000000000000000000002ba7def300000000000000000000000000000000000000000000000000000000000000000000000000000000000000000000000000000000000000000000000000000000000000000000000000000000000000000000000000000000000000033d758c09000000000000000000000000000000000000000000000000000016345785d8a000000000000000000000000000000000000000000000000000000000000000001c0000000000000000000000000000000000000000000000000000000000000020000000000000000000000000000000000000000000000000000000000000000140f7acb1b1718b3e7ae667abd890990605cdaafb20000000000000000000000000000000000000000000000000000000000000000000000000000000000000000"
                            },
                            {
                                "name": "_refundAddress",
                                "type": "address",
                                "value": "0x0f7acb1b1718b3e7ae667abd890990605cdaafb2"
                            },
                            {
                                "name": "_zroPaymentAddress",
                                "type": "address",
                                "value": "0x296f55f8fb28e498b858d0bcda06d955b2cb3f97"
                            },
                            {
                                "name": "_adapterParams",
                                "type": "bytes",
                                "value": "0x0001000000000000000000000000000000000000000000000000000000000002ab98"
                            }
                        ],
                        "constructorArguments": "",
                        "name": "send",
                        "returnParams": [],
                        "signature": "send(address,uint64,uint16,bytes,bytes,address,address,bytes)"
                    },
                    "errorInfo": "",
                    "fromAddress": "0x66a71dcef29a0ffbdbe3c6a460a3b5bc225cd675",
                    "gasUsed": 142758,
                    "id": 28,
                    "methodDecoded": true,
                    "operation": "CALL",
                    "output": "",
                    "revert": false,
                    "revertMessage": "",
                    "selector": "0x4d3a0f7c",
                    "status": true,
                    "value": "0.000849595477282587"
                },
                "nodeType": 0
            },
            "29": {
                "invocation": {
                    "address": "0x5b905fe05f81f3a8ad8b28c6e17779cfabf76068",
                    "callData": "0x000000000000000000000000000000000000000000000000000000000000006e000000000000000000000000296f55f8fb28e498b858d0bcda06d955b2cb3f9700000000000000000000000000000000000000000000000000000000000000600000000000000000000000000000000000000000000000000000000000000028352d8275aae3e0c2404d9f68f6cee084b5beb3dd296f55f8fb28e498b858d0bcda06d955b2cb3f97000000000000000000000000000000000000000000000000",
                    "decodedMethod": {
                        "callParams": [
                            {
                                "name": "_chainId",
                                "type": "uint16",
                                "value": "110"
                            },
                            {
                                "name": "_ua",
                                "type": "address",
                                "value": "0x296f55f8fb28e498b858d0bcda06d955b2cb3f97"
                            },
                            {
                                "name": "_path",
                                "type": "bytes",
                                "value": "0x352d8275aae3e0c2404d9f68f6cee084b5beb3dd296f55f8fb28e498b858d0bcda06d955b2cb3f97"
                            }
                        ],
                        "constructorArguments": "",
                        "name": "increment",
                        "returnParams": [
                            {
                                "name": "",
                                "type": "uint64",
                                "value": "64,395"
                            }
                        ],
                        "signature": "increment(uint16,address,bytes)"
                    },
                    "errorInfo": "",
                    "fromAddress": "0x4d73adb72bc3dd368966edd0f0b2148401a178e2",
                    "gasUsed": 6869,
                    "id": 29,
                    "methodDecoded": true,
                    "operation": "CALL",
                    "output": "0x000000000000000000000000000000000000000000000000000000000000fb8b",
                    "revert": false,
                    "revertMessage": "",
                    "selector": "0x6fe7b673",
                    "status": true,
                    "value": "0"
                },
                "nodeType": 0
            },
            "3": {
                "invocation": {
                    "address": "0x72e2f4830b9e45d52f80ac08cb2bec0fef72ed9c",
                    "callData": "0x0000000000000000000000008731d54e9d02c286767d56ac03e8037c07e01e98000000000000000000000000000000000000000000000000016345785d8a0000",
                    "decodedMethod": {
                        "callParams": [
                            {
                                "name": "guy",
                                "type": "address",
                                "value": "0x8731d54e9d02c286767d56ac03e8037c07e01e98"
                            },
                            {
                                "decimalAvailable": true,
                                "name": "wad",
                                "type": "uint256",
                                "value": "100,000,000,000,000,000"
                            }
                        ],
                        "constructorArguments": "",
                        "name": "approve",
                        "returnParams": [
                            {
                                "name": "",
                                "type": "bool",
                                "value": true
                            }
                        ],
                        "signature": "approve(address,uint256)"
                    },
                    "errorInfo": "",
                    "fromAddress": "0x150f94b44927f078737562f0fcf3c95c01cc2376",
                    "gasUsed": 24423,
                    "id": 3,
                    "methodDecoded": true,
                    "operation": "CALL",
                    "output": "0x0000000000000000000000000000000000000000000000000000000000000001",
                    "revert": false,
                    "revertMessage": "",
                    "selector": "0x095ea7b3",
                    "status": true,
                    "value": "0"
                },
                "nodeType": 0
            },
            "30": {
                "invocation": {
                    "address": "0x66a71dcef29a0ffbdbe3c6a460a3b5bc225cd675",
                    "callData": "0x000000000000000000000000296f55f8fb28e498b858d0bcda06d955b2cb3f97",
                    "decodedMethod": {
                        "callParams": [
                            {
                                "name": "_userApplication",
                                "type": "address",
                                "value": "0x296f55f8fb28e498b858d0bcda06d955b2cb3f97"
                            }
                        ],
                        "constructorArguments": "",
                        "name": "getSendLibraryAddress",
                        "returnParams": [
                            {
                                "name": "sendLibraryAddress",
                                "type": "address",
                                "value": "0x4d73adb72bc3dd368966edd0f0b2148401a178e2"
                            }
                        ],
                        "signature": "getSendLibraryAddress(address)"
                    },
                    "errorInfo": "",
                    "fromAddress": "0x5b905fe05f81f3a8ad8b28c6e17779cfabf76068",
                    "gasUsed": 661,
                    "id": 30,
                    "methodDecoded": true,
                    "operation": "STATICCALL",
                    "output": "0x0000000000000000000000004d73adb72bc3dd368966edd0f0b2148401a178e2",
                    "revert": false,
                    "revertMessage": "",
                    "selector": "0x9c729da1",
                    "status": true,
                    "value": "0"
                },
                "nodeType": 0
            },
            "31": {
                "invocation": {
                    "address": "0x902f09715b6303d4173037652fa7377e5b98089e",
                    "callData": "0x000000000000000000000000000000000000000000000000000000000000006e0000000000000000000000000000000000000000000000000000000000000002000000000000000000000000296f55f8fb28e498b858d0bcda06d955b2cb3f97000000000000000000000000000000000000000000000000000000000000022000000000000000000000000000000000000000000000000000000000000000a000000000000000000000000000000000000000000000000000000000000000220001000000000000000000000000000000000000000000000000000000000002ab98000000000000000000000000000000000000000000000000000000000000",
                    "decodedMethod": {
                        "callParams": [
                            {
                                "name": "_dstChainId",
                                "type": "uint16",
                                "value": "110"
                            },
                            {
                                "name": "_outboundProofType",
                                "type": "uint16",
                                "value": "2"
                            },
                            {
                                "name": "_userApplication",
                                "type": "address",
                                "value": "0x296f55f8fb28e498b858d0bcda06d955b2cb3f97"
                            },
                            {
                                "name": "_payloadSize",
                                "type": "uint256",
                                "value": "544"
                            },
                            {
                                "name": "_adapterParams",
                                "type": "bytes",
                                "value": "0x0001000000000000000000000000000000000000000000000000000000000002ab98"
                            }
                        ],
                        "constructorArguments": "",
                        "name": "assignJob",
                        "returnParams": [
                            {
                                "name": "",
                                "type": "uint256",
                                "value": "680,623,357,265,690"
                            }
                        ],
                        "signature": "assignJob(uint16,uint16,address,uint256,bytes)"
                    },
                    "errorInfo": "",
                    "fromAddress": "0x4d73adb72bc3dd368966edd0f0b2148401a178e2",
                    "gasUsed": 42853,
                    "id": 31,
                    "methodDecoded": true,
                    "operation": "CALL",
                    "output": "0x00000000000000000000000000000000000000000000000000026b05f96f871a",
                    "revert": false,
                    "revertMessage": "",
                    "selector": "0x5886ea65",
                    "status": true,
                    "value": "0"
                },
                "nodeType": 0
            },
            "32": {
                "invocation": {
                    "address": "0x9512a85438606dede54297634ded7c7c0c231874",
                    "callData": "0x000000000000000000000000000000000000000000000000000000000000006e0000000000000000000000000000000000000000000000000000000000000002000000000000000000000000296f55f8fb28e498b858d0bcda06d955b2cb3f97000000000000000000000000000000000000000000000000000000000000022000000000000000000000000000000000000000000000000000000000000000a000000000000000000000000000000000000000000000000000000000000000220001000000000000000000000000000000000000000000000000000000000002ab98000000000000000000000000000000000000000000000000000000000000",
                    "decodedMethod": {
                        "callParams": [
                            {
                                "name": "_dstChainId",
                                "type": "uint16",
                                "value": "110"
                            },
                            {
                                "name": "_outboundProofType",
                                "type": "uint16",
                                "value": "2"
                            },
                            {
                                "name": "_userApplication",
                                "type": "address",
                                "value": "0x296f55f8fb28e498b858d0bcda06d955b2cb3f97"
                            },
                            {
                                "name": "_payloadSize",
                                "type": "uint256",
                                "value": "544"
                            },
                            {
                                "name": "_adapterParams",
                                "type": "bytes",
                                "value": "0x0001000000000000000000000000000000000000000000000000000000000002ab98"
                            }
                        ],
                        "constructorArguments": "",
                        "name": "assignJob",
                        "returnParams": [
                            {
                                "name": "",
                                "type": "uint256",
                                "value": "680,623,357,265,690"
                            }
                        ],
                        "signature": "assignJob(uint16,uint16,address,uint256,bytes)"
                    },
                    "errorInfo": "",
                    "fromAddress": "0x902f09715b6303d4173037652fa7377e5b98089e",
                    "gasUsed": 37717,
                    "id": 32,
                    "methodDecoded": true,
                    "operation": "DELEGATECALL",
                    "output": "0x00000000000000000000000000000000000000000000000000026b05f96f871a",
                    "revert": false,
                    "revertMessage": "",
                    "selector": "0x5886ea65",
                    "status": true,
                    "value": "0"
                },
                "nodeType": 0
            },
            "33": {
                "invocation": {
                    "address": "0xc3ce5497f8dca2481e4fa8fd71c42bea9158c6b4",
                    "callData": "0x000000000000000000000000000000000000000000000000000000000000006e0000000000000000000000000000000000000000000000000000000000000364000000000000000000000000000000000000000000000000000000000002ab99",
                    "decodedMethod": {
                        "callParams": [
                            {
                                "name": "_dstChainId",
                                "type": "uint16",
                                "value": "110"
                            },
                            {
                                "name": "_callDataSize",
                                "type": "uint256",
                                "value": "868"
                            },
                            {
                                "name": "_gas",
                                "type": "uint256",
                                "value": "175,001"
                            }
                        ],
                        "constructorArguments": "",
                        "name": "estimateFeeByChain",
                        "returnParams": [
                            {
                                "name": "fee",
                                "type": "uint256",
                                "value": "193,557,900,019,355"
                            },
                            {
                                "name": "priceRatio",
                                "type": "uint128",
                                "value": "10,000,000,001"
                            }
                        ],
                        "signature": "estimateFeeByChain(uint16,uint256,uint256)"
                    },
                    "errorInfo": "",
                    "fromAddress": "0x902f09715b6303d4173037652fa7377e5b98089e",
                    "gasUsed": 15970,
                    "id": 33,
                    "methodDecoded": true,
                    "operation": "STATICCALL",
                    "output": "0x0000000000000000000000000000000000000000000000000000b00a35dfc69b00000000000000000000000000000000000000000000000000000002540be401",
                    "revert": false,
                    "revertMessage": "",
                    "selector": "0x7bc3c9ab",
                    "status": true,
                    "value": "0"
                },
                "nodeType": 0
            },
            "34": {
                "invocation": {
                    "address": "0xfa6f20b258f91fbf8cd1d25ab77ce844fcb3e759",
                    "callData": "0x000000000000000000000000000000000000000000000000000000000000006e0000000000000000000000000000000000000000000000000000000000000364000000000000000000000000000000000000000000000000000000000002ab99",
                    "decodedMethod": {
                        "callParams": [
                            {
                                "name": "_dstChainId",
                                "type": "uint16",
                                "value": "110"
                            },
                            {
                                "name": "_callDataSize",
                                "type": "uint256",
                                "value": "868"
                            },
                            {
                                "name": "_gas",
                                "type": "uint256",
                                "value": "175,001"
                            }
                        ],
                        "constructorArguments": "",
                        "name": "estimateFeeByChain",
                        "returnParams": [
                            {
                                "name": "fee",
                                "type": "uint256",
                                "value": "193,557,900,019,355"
                            },
                            {
                                "name": "priceRatio",
                                "type": "uint128",
                                "value": "10,000,000,001"
                            }
                        ],
                        "signature": "estimateFeeByChain(uint16,uint256,uint256)"
                    },
                    "errorInfo": "",
                    "fromAddress": "0xc3ce5497f8dca2481e4fa8fd71c42bea9158c6b4",
                    "gasUsed": 10861,
                    "id": 34,
                    "methodDecoded": true,
                    "operation": "DELEGATECALL",
                    "output": "0x0000000000000000000000000000000000000000000000000000b00a35dfc69b00000000000000000000000000000000000000000000000000000002540be401",
                    "revert": false,
                    "revertMessage": "",
                    "selector": "0x7bc3c9ab",
                    "status": true,
                    "value": "0"
                },
                "nodeType": 0
            },
            "35": {
                "invocation": {
                    "address": "0xc3ce5497f8dca2481e4fa8fd71c42bea9158c6b4",
                    "callData": "0x",
                    "decodedMethod": {
                        "callParams": [],
                        "constructorArguments": "",
                        "name": "nativeTokenPriceUSD",
                        "returnParams": [
                            {
                                "name": "",
                                "type": "uint128",
                                "value": "18,478,009,200,000"
                            }
                        ],
                        "signature": "nativeTokenPriceUSD()"
                    },
                    "errorInfo": "",
                    "fromAddress": "0x902f09715b6303d4173037652fa7377e5b98089e",
                    "gasUsed": 1030,
                    "id": 35,
                    "methodDecoded": true,
                    "operation": "STATICCALL",
                    "output": "0x000000000000000000000000000000000000000000000000000010ce3f2cad80",
                    "revert": false,
                    "revertMessage": "",
                    "selector": "0x92807f58",
                    "status": true,
                    "value": "0"
                },
                "nodeType": 0
            },
            "36": {
                "invocation": {
                    "address": "0xfa6f20b258f91fbf8cd1d25ab77ce844fcb3e759",
                    "callData": "0x",
                    "decodedMethod": {
                        "callParams": [],
                        "constructorArguments": "",
                        "name": "nativeTokenPriceUSD",
                        "returnParams": [
                            {
                                "name": "",
                                "type": "uint128",
                                "value": "18,478,009,200,000"
                            }
                        ],
                        "signature": "nativeTokenPriceUSD()"
                    },
                    "errorInfo": "",
                    "fromAddress": "0xc3ce5497f8dca2481e4fa8fd71c42bea9158c6b4",
                    "gasUsed": 436,
                    "id": 36,
                    "methodDecoded": true,
                    "operation": "DELEGATECALL",
                    "output": "0x000000000000000000000000000000000000000000000000000010ce3f2cad80",
                    "revert": false,
                    "revertMessage": "",
                    "selector": "0x92807f58",
                    "status": true,
                    "value": "0"
                },
                "nodeType": 0
            },
            "37": {
                "event": {
                    "contract": "0x902f09715b6303d4173037652fa7377e5b98089e",
                    "decodedLog": {
                        "name": "AssignJob",
                        "params": [
                            {
                                "name": "totalFee",
                                "type": "uint256",
                                "value": "680,623,357,265,690"
                            }
                        ],
                        "signature": "AssignJob(uint256)"
                    },
                    "id": 37,
                    "logData": "0x00000000000000000000000000000000000000000000000000026b05f96f871a",
                    "logDecoded": true,
                    "operation": "EVENT",
                    "revert": false,
                    "status": true,
                    "topics": [
                        "0xdf21c415b78ed2552cc9971249e32a053abce6087a0ae0fbf3f78db5174a3493"
                    ]
                },
                "nodeType": 1
            },
            "38": {
                "event": {
                    "contract": "0x4d73adb72bc3dd368966edd0f0b2148401a178e2",
                    "decodedLog": {
                        "name": "RelayerParams",
                        "params": [
                            {
                                "name": "adapterParams",
                                "type": "bytes",
                                "value": "0x0001000000000000000000000000000000000000000000000000000000000002ab98"
                            },
                            {
                                "name": "outboundProofType",
                                "type": "uint16",
                                "value": "2"
                            }
                        ],
                        "signature": "RelayerParams(bytes,uint16)"
                    },
                    "id": 38,
                    "logData": "0x0000000000000000000000000000000000000000000000000000000000000040000000000000000000000000000000000000000000000000000000000000000200000000000000000000000000000000000000000000000000000000000000220001000000000000000000000000000000000000000000000000000000000002ab98000000000000000000000000000000000000000000000000000000000000",
                    "logDecoded": true,
                    "operation": "EVENT",
                    "revert": false,
                    "status": true,
                    "topics": [
                        "0xb0c632f55f1e1b3b2c3d82f41ee4716bb4c00f0f5d84cdafc141581bb8757a4f"
                    ]
                },
                "nodeType": 1
            },
            "39": {
                "invocation": {
                    "address": "0x5a54fe5234e811466d5366846283323c954310b2",
                    "callData": "0x000000000000000000000000000000000000000000000000000000000000006e0000000000000000000000000000000000000000000000000000000000000002000000000000000000000000000000000000000000000000000000000000000f000000000000000000000000296f55f8fb28e498b858d0bcda06d955b2cb3f97",
                    "decodedMethod": {
                        "callParams": [
                            {
                                "name": "_dstEid",
                                "type": "uint16",
                                "value": "110"
                            },
                            {
                                "name": "",
                                "type": "uint16",
                                "value": "2"
                            },
                            {
                                "name": "_confirmations",
                                "type": "uint64",
                                "value": "15"
                            },
                            {
                                "name": "_sender",
                                "type": "address",
                                "value": "0x296f55f8fb28e498b858d0bcda06d955b2cb3f97"
                            }
                        ],
                        "constructorArguments": "",
                        "name": "assignJob",
                        "returnParams": [
                            {
                                "name": "totalFee",
                                "type": "uint256",
                                "value": "168,972,120,016,897"
                            }
                        ],
                        "signature": "assignJob(uint16,uint16,uint64,address)"
                    },
                    "errorInfo": "",
                    "fromAddress": "0x4d73adb72bc3dd368966edd0f0b2148401a178e2",
                    "gasUsed": 33255,
                    "id": 39,
                    "methodDecoded": true,
                    "operation": "CALL",
                    "output": "0x000000000000000000000000000000000000000000000000000099ade330c801",
                    "revert": false,
                    "revertMessage": "",
                    "selector": "0xc5e193cd",
                    "status": true,
                    "value": "0"
                },
                "nodeType": 0
            },
            "4": {
                "event": {
                    "contract": "0x72e2f4830b9e45d52f80ac08cb2bec0fef72ed9c",
                    "decodedLog": {
                        "name": "Approval",
                        "params": [
                            {
                                "name": "src",
                                "type": "address",
                                "value": "0x150f94b44927f078737562f0fcf3c95c01cc2376"
                            },
                            {
                                "name": "guy",
                                "type": "address",
                                "value": "0x8731d54e9d02c286767d56ac03e8037c07e01e98"
                            },
                            {
                                "decimalAvailable": true,
                                "name": "wad",
                                "type": "uint256",
                                "value": "100,000,000,000,000,000"
                            }
                        ],
                        "signature": "Approval(address,address,uint256)"
                    },
                    "id": 4,
                    "logData": "0x000000000000000000000000000000000000000000000000016345785d8a0000",
                    "logDecoded": true,
                    "operation": "EVENT",
                    "revert": false,
                    "status": true,
                    "topics": [
                        "0x8c5be1e5ebec7d5bd14f71427d1e84f3dd0314c0f7b2291e5b200ac8c7c3b925",
                        "0x000000000000000000000000150f94b44927f078737562f0fcf3c95c01cc2376",
                        "0x0000000000000000000000008731d54e9d02c286767d56ac03e8037c07e01e98"
                    ]
                },
                "nodeType": 1
            },
            "40": {
                "invocation": {
                    "address": "0x3eea8d627ab6983fffc7027ee623fd7699343fc1",
                    "callData": "0x000000000000000000000000000000000000000000000000000000000000006e0000000000000000000000000000000000000000000000000000000000000002000000000000000000000000000000000000000000000000000000000000000f000000000000000000000000296f55f8fb28e498b858d0bcda06d955b2cb3f97",
                    "decodedMethod": {
                        "callParams": [
                            {
                                "name": "_dstEid",
                                "type": "uint16",
                                "value": "110"
                            },
                            {
                                "name": "",
                                "type": "uint16",
                                "value": "2"
                            },
                            {
                                "name": "_confirmations",
                                "type": "uint64",
                                "value": "15"
                            },
                            {
                                "name": "_sender",
                                "type": "address",
                                "value": "0x296f55f8fb28e498b858d0bcda06d955b2cb3f97"
                            }
                        ],
                        "constructorArguments": "",
                        "name": "assignJob",
                        "returnParams": [
                            {
                                "name": "totalFee",
                                "type": "uint256",
                                "value": "168,972,120,016,897"
                            }
                        ],
                        "signature": "assignJob(uint16,uint16,uint64,address)"
                    },
                    "errorInfo": "",
                    "fromAddress": "0x5a54fe5234e811466d5366846283323c954310b2",
                    "gasUsed": 28143,
                    "id": 40,
                    "methodDecoded": true,
                    "operation": "DELEGATECALL",
                    "output": "0x000000000000000000000000000000000000000000000000000099ade330c801",
                    "revert": false,
                    "revertMessage": "",
                    "selector": "0xc5e193cd",
                    "status": true,
                    "value": "0"
                },
                "nodeType": 0
            },
            "41": {
                "invocation": {
                    "address": "0xc3ce5497f8dca2481e4fa8fd71c42bea9158c6b4",
                    "callData": "0x000000000000000000000000000000000000000000000000000000000000006e0000000000000000000000000000000000000000000000000000000000000204000000000000000000000000000000000000000000000000000000000002bf20",
                    "decodedMethod": {
                        "callParams": [
                            {
                                "name": "_dstChainId",
                                "type": "uint16",
                                "value": "110"
                            },
                            {
                                "name": "_callDataSize",
                                "type": "uint256",
                                "value": "516"
                            },
                            {
                                "name": "_gas",
                                "type": "uint256",
                                "value": "180,000"
                            }
                        ],
                        "constructorArguments": "",
                        "name": "estimateFeeByChain",
                        "returnParams": [
                            {
                                "name": "fee",
                                "type": "uint256",
                                "value": "140,810,100,014,081"
                            },
                            {
                                "name": "priceRatio",
                                "type": "uint128",
                                "value": "10,000,000,001"
                            }
                        ],
                        "signature": "estimateFeeByChain(uint16,uint256,uint256)"
                    },
                    "errorInfo": "",
                    "fromAddress": "0x5a54fe5234e811466d5366846283323c954310b2",
                    "gasUsed": 3470,
                    "id": 41,
                    "methodDecoded": true,
                    "operation": "STATICCALL",
                    "output": "0x00000000000000000000000000000000000000000000000000008010e7fdfc0100000000000000000000000000000000000000000000000000000002540be401",
                    "revert": false,
                    "revertMessage": "",
                    "selector": "0x7bc3c9ab",
                    "status": true,
                    "value": "0"
                },
                "nodeType": 0
            },
            "42": {
                "invocation": {
                    "address": "0xfa6f20b258f91fbf8cd1d25ab77ce844fcb3e759",
                    "callData": "0x000000000000000000000000000000000000000000000000000000000000006e0000000000000000000000000000000000000000000000000000000000000204000000000000000000000000000000000000000000000000000000000002bf20",
                    "decodedMethod": {
                        "callParams": [
                            {
                                "name": "_dstChainId",
                                "type": "uint16",
                                "value": "110"
                            },
                            {
                                "name": "_callDataSize",
                                "type": "uint256",
                                "value": "516"
                            },
                            {
                                "name": "_gas",
                                "type": "uint256",
                                "value": "180,000"
                            }
                        ],
                        "constructorArguments": "",
                        "name": "estimateFeeByChain",
                        "returnParams": [
                            {
                                "name": "fee",
                                "type": "uint256",
                                "value": "140,810,100,014,081"
                            },
                            {
                                "name": "priceRatio",
                                "type": "uint128",
                                "value": "10,000,000,001"
                            }
                        ],
                        "signature": "estimateFeeByChain(uint16,uint256,uint256)"
                    },
                    "errorInfo": "",
                    "fromAddress": "0xc3ce5497f8dca2481e4fa8fd71c42bea9158c6b4",
                    "gasUsed": 2861,
                    "id": 42,
                    "methodDecoded": true,
                    "operation": "DELEGATECALL",
                    "output": "0x00000000000000000000000000000000000000000000000000008010e7fdfc0100000000000000000000000000000000000000000000000000000002540be401",
                    "revert": false,
                    "revertMessage": "",
                    "selector": "0x7bc3c9ab",
                    "status": true,
                    "value": "0"
                },
                "nodeType": 0
            },
            "43": {
                "event": {
                    "contract": "0x5a54fe5234e811466d5366846283323c954310b2",
                    "decodedLog": null,
                    "id": 43,
                    "logData": "0x000000000000000000000000000000000000000000000000000000000000006e0000000000000000000000000000000000000000000000000000000000000002000000000000000000000000000000000000000000000000000000000000000f000000000000000000000000296f55f8fb28e498b858d0bcda06d955b2cb3f97000000000000000000000000000000000000000000000000000099ade330c801",
                    "logDecoded": false,
                    "operation": "EVENT",
                    "revert": false,
                    "status": true,
                    "topics": [
                        "0x4e41ee13e03cd5e0446487b524fdc48af6acf26c074dacdbdfb6b574b42c8146"
                    ]
                },
                "nodeType": 1
            },
            "44": {
                "invocation": {
                    "address": "0x3773e1e9deb273fcdf9f80bc88bb387b1e6ce34d",
                    "callData": "0x000000000000000000000000000000000000000000000000000000000000000000000000000000000000000000000000000000000000000000026b05f96f871a000000000000000000000000000000000000000000000000000099ade330c801",
                    "decodedMethod": {
                        "callParams": [
                            {
                                "name": "payInZro",
                                "type": "bool",
                                "value": false
                            },
                            {
                                "name": "relayerFee",
                                "type": "uint256",
                                "value": "680,623,357,265,690"
                            },
                            {
                                "name": "oracleFee",
                                "type": "uint256",
                                "value": "168,972,120,016,897"
                            }
                        ],
                        "constructorArguments": "",
                        "name": "getFees",
                        "returnParams": [
                            {
                                "name": "",
                                "type": "uint256",
                                "value": "0"
                            }
                        ],
                        "signature": "getFees(bool,uint256,uint256)"
                    },
                    "errorInfo": "",
                    "fromAddress": "0x4d73adb72bc3dd368966edd0f0b2148401a178e2",
                    "gasUsed": 2488,
                    "id": 44,
                    "methodDecoded": true,
                    "operation": "STATICCALL",
                    "output": "0x0000000000000000000000000000000000000000000000000000000000000000",
                    "revert": false,
                    "revertMessage": "",
                    "selector": "0x5cbbbd75",
                    "status": true,
                    "value": "0"
                },
                "nodeType": 0
            },
            "45": {
                "event": {
                    "contract": "0x4d73adb72bc3dd368966edd0f0b2148401a178e2",
                    "decodedLog": {
                        "name": "Packet",
                        "params": [
                            {
                                "name": "payload",
                                "type": "bytes",
                                "value": "0x000000000000fb8b0065296f55f8fb28e498b858d0bcda06d955b2cb3f97006e352d8275aae3e0c2404d9f68f6cee084b5beb3dd0000000000000000000000000000000000000000000000000000000000000001000000000000000000000000000000000000000000000000000000000000000d000000000000000000000000000000000000000000000000000000000000000d0000000000000000000000000000000000000000000000000000000000000000000000000000000000000000000000000000000000000000000000000000000000000000000000000000000000000000000000000000006758157b1e0206d63c00000000000000000000000000000000000000000000000001630ee686da4000000000000000000000000000000000000000000000000000000002ba7def300000000000000000000000000000000000000000000000000000000000000000000000000000000000000000000000000000000000000000000000000000000000000000000000000000000000000000000000000000000000000033d758c09000000000000000000000000000000000000000000000000000016345785d8a000000000000000000000000000000000000000000000000000000000000000001c0000000000000000000000000000000000000000000000000000000000000020000000000000000000000000000000000000000000000000000000000000000140f7acb1b1718b3e7ae667abd890990605cdaafb20000000000000000000000000000000000000000000000000000000000000000000000000000000000000000"
                            }
                        ],
                        "signature": "Packet(bytes)"
                    },
                    "id": 45,
                    "logData": "0x00000000000000000000000000000000000000000000000000000000000000200000000000000000000000000000000000000000000000000000000000000254000000000000fb8b0065296f55f8fb28e498b858d0bcda06d955b2cb3f97006e352d8275aae3e0c2404d9f68f6cee084b5beb3dd0000000000000000000000000000000000000000000000000000000000000001000000000000000000000000000000000000000000000000000000000000000d000000000000000000000000000000000000000000000000000000000000000d0000000000000000000000000000000000000000000000000000000000000000000000000000000000000000000000000000000000000000000000000000000000000000000000000000000000000000000000000000006758157b1e0206d63c00000000000000000000000000000000000000000000000001630ee686da4000000000000000000000000000000000000000000000000000000002ba7def300000000000000000000000000000000000000000000000000000000000000000000000000000000000000000000000000000000000000000000000000000000000000000000000000000000000000000000000000000000000000033d758c09000000000000000000000000000000000000000000000000000016345785d8a000000000000000000000000000000000000000000000000000000000000000001c0000000000000000000000000000000000000000000000000000000000000020000000000000000000000000000000000000000000000000000000000000000140f7acb1b1718b3e7ae667abd890990605cdaafb20000000000000000000000000000000000000000000000000000000000000000000000000000000000000000000000000000000000000000",
                    "logDecoded": true,
                    "operation": "EVENT",
                    "revert": false,
                    "status": true,
                    "topics": [
                        "0xe9bded5f24a4168e4f3bf44e00298c993b22376aad8c58c7dda9718a54cbea82"
                    ]
                },
                "nodeType": 1
            },
            "46": {
                "event": {
                    "contract": "0x296f55f8fb28e498b858d0bcda06d955b2cb3f97",
                    "decodedLog": {
                        "name": "SendMsg",
                        "params": [
                            {
                                "name": "msgType",
                                "type": "uint8",
                                "value": "1"
                            },
                            {
                                "name": "nonce",
                                "type": "uint64",
                                "value": "64,395"
                            }
                        ],
                        "signature": "SendMsg(uint8,uint64)"
                    },
                    "id": 46,
                    "logData": "0x0000000000000000000000000000000000000000000000000000000000000001000000000000000000000000000000000000000000000000000000000000fb8b",
                    "logDecoded": true,
                    "operation": "EVENT",
                    "revert": false,
                    "status": true,
                    "topics": [
                        "0x8d3ee0df6a4b7e82a7f20a763f1c6826e6176323e655af64f32318827d2112d4"
                    ]
                },
                "nodeType": 1
            },
            "5": {
                "invocation": {
                    "address": "0x8731d54e9d02c286767d56ac03e8037c07e01e98",
                    "callData": "0x000000000000000000000000000000000000000000000000000000000000006e000000000000000000000000000000000000000000000000000000000000000d000000000000000000000000000000000000000000000000000000000000000d0000000000000000000000000f7acb1b1718b3e7ae667abd890990605cdaafb2000000000000000000000000000000000000000000000000016345785d8a000000000000000000000000000000000000000000000000000001617eb90b26c000000000000000000000000000000000000000000000000000000000000000012000000000000000000000000000000000000000000000000000000000000001c000000000000000000000000000000000000000000000000000000000000002000000000000000000000000000000000000000000000000000000000000000000000000000000000000000000000000000000000000000000000000000000000000000000000000000000000000000000000000000000000000000000000000600000000000000000000000000000000000000000000000000000000000000002307800000000000000000000000000000000000000000000000000000000000000000000000000000000000000000000000000000000000000000000000000140f7acb1b1718b3e7ae667abd890990605cdaafb20000000000000000000000000000000000000000000000000000000000000000000000000000000000000000",
                    "decodedMethod": {
                        "callParams": [
                            {
                                "name": "_dstChainId",
                                "type": "uint16",
                                "value": "110"
                            },
                            {
                                "name": "_srcPoolId",
                                "type": "uint256",
                                "value": "13"
                            },
                            {
                                "name": "_dstPoolId",
                                "type": "uint256",
                                "value": "13"
                            },
                            {
                                "name": "_refundAddress",
                                "type": "address",
                                "value": "0x0f7acb1b1718b3e7ae667abd890990605cdaafb2"
                            },
                            {
                                "name": "_amountLD",
                                "type": "uint256",
                                "value": "100,000,000,000,000,000"
                            },
                            {
                                "name": "_minAmountLD",
                                "type": "uint256",
                                "value": "99,500,000,000,000,000"
                            },
                            {
                                "name": "_lzTxParams",
                                "type": "(uint256,uint256,bytes)",
                                "value": [
                                    {
                                        "name": "dstGasForCall",
                                        "type": "uint256",
                                        "value": "0"
                                    },
                                    {
                                        "name": "dstNativeAmount",
                                        "type": "uint256",
                                        "value": "0"
                                    },
                                    {
                                        "name": "dstNativeAddr",
                                        "type": "bytes",
                                        "value": "0x3078"
                                    }
                                ]
                            },
                            {
                                "name": "_to",
                                "type": "bytes",
                                "value": "0x0f7acb1b1718b3e7ae667abd890990605cdaafb2"
                            },
                            {
                                "name": "_payload",
                                "type": "bytes",
                                "value": "0x"
                            }
                        ],
                        "constructorArguments": "",
                        "name": "swap",
                        "returnParams": [],
                        "signature": "swap(uint16,uint256,uint256,address,uint256,uint256,(uint256,uint256,bytes),bytes,bytes)"
                    },
                    "errorInfo": "",
                    "fromAddress": "0x150f94b44927f078737562f0fcf3c95c01cc2376",
                    "gasUsed": 347286,
                    "id": 5,
                    "methodDecoded": true,
                    "operation": "CALL",
                    "output": "",
                    "revert": false,
                    "revertMessage": "",
                    "selector": "0x9fbf10fc",
                    "status": true,
                    "value": "0.000849595477282587"
                },
                "nodeType": 0
            },
            "6": {
                "invocation": {
                    "address": "0x06d538690af257da524f25d0cd52fd85b1c2173e",
                    "callData": "0x000000000000000000000000000000000000000000000000000000000000000d",
                    "decodedMethod": {
                        "callParams": [
                            {
                                "name": "",
                                "type": "uint256",
                                "value": "13"
                            }
                        ],
                        "constructorArguments": "",
                        "name": "getPool",
                        "returnParams": [
                            {
                                "name": "",
                                "type": "address",
                                "value": "0x101816545f6bd2b1076434b54383a1e633390a2e"
                            }
                        ],
                        "signature": "getPool(uint256)"
                    },
                    "errorInfo": "",
                    "fromAddress": "0x8731d54e9d02c286767d56ac03e8037c07e01e98",
                    "gasUsed": 2514,
                    "id": 6,
                    "methodDecoded": true,
                    "operation": "STATICCALL",
                    "output": "0x000000000000000000000000101816545f6bd2b1076434b54383a1e633390a2e",
                    "revert": false,
                    "revertMessage": "",
                    "selector": "0x068bcd8d",
                    "status": true,
                    "value": "0"
                },
                "nodeType": 0
            },
            "7": {
                "invocation": {
                    "address": "0x101816545f6bd2b1076434b54383a1e633390a2e",
                    "callData": "0x",
                    "decodedMethod": {
                        "callParams": [],
                        "constructorArguments": "",
                        "name": "convertRate",
                        "returnParams": [
                            {
                                "name": "",
                                "type": "uint256",
                                "value": "1"
                            }
                        ],
                        "signature": "convertRate()"
                    },
                    "errorInfo": "",
                    "fromAddress": "0x8731d54e9d02c286767d56ac03e8037c07e01e98",
                    "gasUsed": 360,
                    "id": 7,
                    "methodDecoded": true,
                    "operation": "STATICCALL",
                    "output": "0x0000000000000000000000000000000000000000000000000000000000000001",
                    "revert": false,
                    "revertMessage": "",
                    "selector": "0xfeb56b15",
                    "status": true,
                    "value": "0"
                },
                "nodeType": 0
            },
            "8": {
                "invocation": {
                    "address": "0x101816545f6bd2b1076434b54383a1e633390a2e",
                    "callData": "0x000000000000000000000000000000000000000000000000000000000000006e000000000000000000000000000000000000000000000000000000000000000d000000000000000000000000150f94b44927f078737562f0fcf3c95c01cc2376000000000000000000000000000000000000000000000000016345785d8a000000000000000000000000000000000000000000000000000001617eb90b26c0000000000000000000000000000000000000000000000000000000000000000001",
                    "decodedMethod": {
                        "callParams": [
                            {
                                "name": "_dstChainId",
                                "type": "uint16",
                                "value": "110"
                            },
                            {
                                "name": "_dstPoolId",
                                "type": "uint256",
                                "value": "13"
                            },
                            {
                                "name": "_from",
                                "type": "address",
                                "value": "0x150f94b44927f078737562f0fcf3c95c01cc2376"
                            },
                            {
                                "name": "_amountLD",
                                "type": "uint256",
                                "value": "100,000,000,000,000,000"
                            },
                            {
                                "name": "_minAmountLD",
                                "type": "uint256",
                                "value": "99,500,000,000,000,000"
                            },
                            {
                                "name": "newLiquidity",
                                "type": "bool",
                                "value": true
                            }
                        ],
                        "constructorArguments": "",
                        "name": "swap",
                        "returnParams": [
                            {
                                "name": "",
                                "type": "(uint256,uint256,uint256,uint256,uint256,uint256)",
                                "value": [
                                    {
                                        "name": "amount",
                                        "type": "uint256",
                                        "value": "99,940,000,000,000,000"
                                    },
                                    {
                                        "name": "eqFee",
                                        "type": "uint256",
                                        "value": "3,000,000,000,000"
                                    },
                                    {
                                        "name": "eqReward",
                                        "type": "uint256",
                                        "value": "0"
                                    },
                                    {
                                        "name": "lpFee",
                                        "type": "uint256",
                                        "value": "0"
                                    },
                                    {
                                        "name": "protocolFee",
                                        "type": "uint256",
                                        "value": "57,000,000,000,000"
                                    },
                                    {
                                        "name": "lkbRemove",
                                        "type": "uint256",
                                        "value": "100,000,000,000,000,000"
                                    }
                                ]
                            }
                        ],
                        "signature": "swap(uint16,uint256,address,uint256,uint256,bool)"
                    },
                    "errorInfo": "",
                    "fromAddress": "0x8731d54e9d02c286767d56ac03e8037c07e01e98",
                    "gasUsed": 91604,
                    "id": 8,
                    "methodDecoded": true,
                    "operation": "CALL",
                    "output": "0x00000000000000000000000000000000000000000000000001630ee686da4000000000000000000000000000000000000000000000000000000002ba7def300000000000000000000000000000000000000000000000000000000000000000000000000000000000000000000000000000000000000000000000000000000000000000000000000000000000000000000000000000000000000033d758c09000000000000000000000000000000000000000000000000000016345785d8a0000",
                    "revert": false,
                    "revertMessage": "",
                    "selector": "0x1b7319b6",
                    "status": true,
                    "value": "0"
                },
                "nodeType": 0
            },
            "9": {
                "invocation": {
                    "address": "0x6faf1ab85ffbe7b3a557f4864046ff861734afd0",
                    "callData": "0x000000000000000000000000000000000000000000000000000000000000000d000000000000000000000000000000000000000000000000000000000000000d000000000000000000000000000000000000000000000000000000000000006e000000000000000000000000150f94b44927f078737562f0fcf3c95c01cc2376000000000000000000000000000000000000000000000000016345785d8a0000",
                    "decodedMethod": {
                        "callParams": [
                            {
                                "name": "_srcPoolId",
                                "type": "uint256",
                                "value": "13"
                            },
                            {
                                "name": "_dstPoolId",
                                "type": "uint256",
                                "value": "13"
                            },
                            {
                                "name": "_dstChainId",
                                "type": "uint16",
                                "value": "110"
                            },
                            {
                                "name": "_from",
                                "type": "address",
                                "value": "0x150f94b44927f078737562f0fcf3c95c01cc2376"
                            },
                            {
                                "name": "_amountSD",
                                "type": "uint256",
                                "value": "100,000,000,000,000,000"
                            }
                        ],
                        "constructorArguments": "",
                        "name": "getFees",
                        "returnParams": [
                            {
                                "name": "s",
                                "type": "(uint256,uint256,uint256,uint256,uint256,uint256)",
                                "value": [
                                    {
                                        "name": "amount",
                                        "type": "uint256",
                                        "value": "0"
                                    },
                                    {
                                        "name": "eqFee",
                                        "type": "uint256",
                                        "value": "3,000,000,000,000"
                                    },
                                    {
                                        "name": "eqReward",
                                        "type": "uint256",
                                        "value": "0"
                                    },
                                    {
                                        "name": "lpFee",
                                        "type": "uint256",
                                        "value": "0"
                                    },
                                    {
                                        "name": "protocolFee",
                                        "type": "uint256",
                                        "value": "57,000,000,000,000"
                                    },
                                    {
                                        "name": "lkbRemove",
                                        "type": "uint256",
                                        "value": "0"
                                    }
                                ]
                            }
                        ],
                        "signature": "getFees(uint256,uint256,uint16,address,uint256)"
                    },
                    "errorInfo": "",
                    "fromAddress": "0x101816545f6bd2b1076434b54383a1e633390a2e",
                    "gasUsed": 51194,
                    "id": 9,
                    "methodDecoded": true,
                    "operation": "CALL",
                    "output": "0x0000000000000000000000000000000000000000000000000000000000000000000000000000000000000000000000000000000000000000000002ba7def300000000000000000000000000000000000000000000000000000000000000000000000000000000000000000000000000000000000000000000000000000000000000000000000000000000000000000000000000000000000000033d758c090000000000000000000000000000000000000000000000000000000000000000000",
                    "revert": false,
                    "revertMessage": "",
                    "selector": "0x1ab62430",
                    "status": true,
                    "value": "0"
                },
                "nodeType": 0
            }
        },
        "gasFlame": [
            {
                "children": [
                    {
                        "children": [
                            {
                                "children": [],
                                "depth": 0,
                                "name": "Initial Gas",
                                "value": 22632
                            },
                            {
                                "children": [
                                    {
                                        "children": [],
                                        "depth": 1,
                                        "name": "deposit",
                                        "value": 28795
                                    },
                                    {
                                        "children": [],
                                        "depth": 1,
                                        "name": "approve",
                                        "value": 24423
                                    },
                                    {
                                        "children": [
                                            {
                                                "children": [],
                                                "depth": 2,
                                                "name": "getPool",
                                                "value": 2514
                                            },
                                            {
                                                "children": [],
                                                "depth": 2,
                                                "name": "convertRate",
                                                "value": 360
                                            },
                                            {
                                                "children": [
                                                    {
                                                        "children": [
                                                            {
                                                                "children": [],
                                                                "depth": 4,
                                                                "name": "getPool",
                                                                "value": 514
                                                            },
                                                            {
                                                                "children": [],
                                                                "depth": 4,
                                                                "name": "convertRate",
                                                                "value": 360
                                                            },
                                                            {
                                                                "children": [],
                                                                "depth": 4,
                                                                "name": "token",
                                                                "value": 362
                                                            },
                                                            {
                                                                "children": [],
                                                                "depth": 4,
                                                                "name": "balanceOf",
                                                                "value": 2513
                                                            },
                                                            {
                                                                "children": [],
                                                                "depth": 4,
                                                                "name": "totalLiquidity",
                                                                "value": 2463
                                                            },
                                                            {
                                                                "children": [],
                                                                "depth": 4,
                                                                "name": "eqFeePool",
                                                                "value": 2418
                                                            },
                                                            {
                                                                "children": [],
                                                                "depth": 4,
                                                                "name": "getPool",
                                                                "value": 514
                                                            },
                                                            {
                                                                "children": [],
                                                                "depth": 4,
                                                                "name": "getChainPath",
                                                                "value": 12377
                                                            },
                                                            {
                                                                "children": [],
                                                                "depth": 4,
                                                                "name": "poolInfo",
                                                                "value": 11060
                                                            }
                                                        ],
                                                        "depth": 3,
                                                        "name": "getFees",
                                                        "value": 51194
                                                    }
                                                ],
                                                "depth": 2,
                                                "name": "swap",
                                                "value": 91604
                                            },
                                            {
                                                "children": [],
                                                "depth": 2,
                                                "name": "token",
                                                "value": 362
                                            },
                                            {
                                                "children": [],
                                                "depth": 2,
                                                "name": "transferFrom",
                                                "value": 14215
                                            },
                                            {
                                                "children": [],
                                                "depth": 2,
                                                "name": "sendCredits",
                                                "value": 9995
                                            },
                                            {
                                                "children": [
                                                    {
                                                        "children": [],
                                                        "depth": 3,
                                                        "name": "getOutboundNonce",
                                                        "value": 2632
                                                    },
                                                    {
                                                        "children": [
                                                            {
                                                                "children": [
                                                                    {
                                                                        "children": [
                                                                            {
                                                                                "children": [],
                                                                                "depth": 6,
                                                                                "name": "getSendLibraryAddress",
                                                                                "value": 661
                                                                            }
                                                                        ],
                                                                        "depth": 5,
                                                                        "name": "increment",
                                                                        "value": 6869
                                                                    },
                                                                    {
                                                                        "children": [
                                                                            {
                                                                                "children": [
                                                                                    {
                                                                                        "children": [
                                                                                            {
                                                                                                "children": [],
                                                                                                "depth": 8,
                                                                                                "name": "estimateFeeByChain",
                                                                                                "value": 10861
                                                                                            }
                                                                                        ],
                                                                                        "depth": 7,
                                                                                        "name": "estimateFeeByChain",
                                                                                        "value": 15970
                                                                                    },
                                                                                    {
                                                                                        "children": [
                                                                                            {
                                                                                                "children": [],
                                                                                                "depth": 8,
                                                                                                "name": "nativeTokenPriceUSD",
                                                                                                "value": 436
                                                                                            }
                                                                                        ],
                                                                                        "depth": 7,
                                                                                        "name": "nativeTokenPriceUSD",
                                                                                        "value": 1030
                                                                                    }
                                                                                ],
                                                                                "depth": 6,
                                                                                "name": "assignJob",
                                                                                "value": 37717
                                                                            }
                                                                        ],
                                                                        "depth": 5,
                                                                        "name": "assignJob",
                                                                        "value": 42853
                                                                    },
                                                                    {
                                                                        "children": [
                                                                            {
                                                                                "children": [
                                                                                    {
                                                                                        "children": [
                                                                                            {
                                                                                                "children": [],
                                                                                                "depth": 8,
                                                                                                "name": "estimateFeeByChain",
                                                                                                "value": 2861
                                                                                            }
                                                                                        ],
                                                                                        "depth": 7,
                                                                                        "name": "estimateFeeByChain",
                                                                                        "value": 3470
                                                                                    }
                                                                                ],
                                                                                "depth": 6,
                                                                                "name": "assignJob",
                                                                                "value": 28143
                                                                            }
                                                                        ],
                                                                        "depth": 5,
                                                                        "name": "assignJob",
                                                                        "value": 33255
                                                                    },
                                                                    {
                                                                        "children": [],
                                                                        "depth": 5,
                                                                        "name": "getFees",
                                                                        "value": 2488
                                                                    }
                                                                ],
                                                                "depth": 4,
                                                                "name": "send",
                                                                "value": 142758
                                                            }
                                                        ],
                                                        "depth": 3,
                                                        "name": "send",
                                                        "value": 166867
                                                    }
                                                ],
                                                "depth": 2,
                                                "name": "swap",
                                                "value": 195983
                                            }
                                        ],
                                        "depth": 1,
                                        "name": "swap",
                                        "value": 347286
                                    }
                                ],
                                "depth": 0,
                                "name": "Executed Gas",
                                "value": 421910
                            }
                        ],
                        "depth": -1,
                        "name": "Actual Gas Used",
                        "value": 390742
                    },
                    {
                        "children": [],
                        "depth": -1,
                        "name": "Refunded Gas",
                        "value": 53800
                    }
                ],
                "depth": -2,
                "name": "Total Gas",
                "value": 444542
            }
        ],
        "isConfirmed": true,
        "mainTrace": [
            {
                "children": [
                    {
                        "children": [
                            {
                                "children": [
                                    {
                                        "children": [],
                                        "depth": 2,
                                        "id": 2,
                                        "order": 2
                                    }
                                ],
                                "depth": 1,
                                "id": 1,
                                "order": 1
                            },
                            {
                                "children": [
                                    {
                                        "children": [],
                                        "depth": 2,
                                        "id": 4,
                                        "order": 4
                                    }
                                ],
                                "depth": 1,
                                "id": 3,
                                "order": 3
                            },
                            {
                                "children": [
                                    {
                                        "children": [],
                                        "depth": 2,
                                        "id": 6,
                                        "order": 6
                                    },
                                    {
                                        "children": [],
                                        "depth": 2,
                                        "id": 7,
                                        "order": 7
                                    },
                                    {
                                        "children": [
                                            {
                                                "children": [
                                                    {
                                                        "children": [],
                                                        "depth": 4,
                                                        "id": 10,
                                                        "order": 10
                                                    },
                                                    {
                                                        "children": [],
                                                        "depth": 4,
                                                        "id": 11,
                                                        "order": 11
                                                    },
                                                    {
                                                        "children": [],
                                                        "depth": 4,
                                                        "id": 12,
                                                        "order": 12
                                                    },
                                                    {
                                                        "children": [],
                                                        "depth": 4,
                                                        "id": 13,
                                                        "order": 13
                                                    },
                                                    {
                                                        "children": [],
                                                        "depth": 4,
                                                        "id": 14,
                                                        "order": 14
                                                    },
                                                    {
                                                        "children": [],
                                                        "depth": 4,
                                                        "id": 15,
                                                        "order": 15
                                                    },
                                                    {
                                                        "children": [],
                                                        "depth": 4,
                                                        "id": 16,
                                                        "order": 16
                                                    },
                                                    {
                                                        "children": [],
                                                        "depth": 4,
                                                        "id": 17,
                                                        "order": 17
                                                    },
                                                    {
                                                        "children": [],
                                                        "depth": 4,
                                                        "id": 18,
                                                        "order": 18
                                                    }
                                                ],
                                                "depth": 3,
                                                "id": 9,
                                                "order": 9
                                            },
                                            {
                                                "children": [],
                                                "depth": 3,
                                                "id": 19,
                                                "order": 19
                                            }
                                        ],
                                        "depth": 2,
                                        "id": 8,
                                        "order": 8
                                    },
                                    {
                                        "children": [],
                                        "depth": 2,
                                        "id": 20,
                                        "order": 20
                                    },
                                    {
                                        "children": [
                                            {
                                                "children": [],
                                                "depth": 3,
                                                "id": 22,
                                                "order": 22
                                            }
                                        ],
                                        "depth": 2,
                                        "id": 21,
                                        "order": 21
                                    },
                                    {
                                        "children": [
                                            {
                                                "children": [],
                                                "depth": 3,
                                                "id": 24,
                                                "order": 24
                                            }
                                        ],
                                        "depth": 2,
                                        "id": 23,
                                        "order": 23
                                    },
                                    {
                                        "children": [
                                            {
                                                "children": [],
                                                "depth": 3,
                                                "id": 26,
                                                "order": 26
                                            },
                                            {
                                                "children": [
                                                    {
                                                        "children": [
                                                            {
                                                                "children": [
                                                                    {
                                                                        "children": [],
                                                                        "depth": 6,
                                                                        "id": 30,
                                                                        "order": 30
                                                                    }
                                                                ],
                                                                "depth": 5,
                                                                "id": 29,
                                                                "order": 29
                                                            },
                                                            {
                                                                "children": [
                                                                    {
                                                                        "children": [
                                                                            {
                                                                                "children": [
                                                                                    {
                                                                                        "children": [],
                                                                                        "depth": 8,
                                                                                        "id": 34,
                                                                                        "order": 34
                                                                                    }
                                                                                ],
                                                                                "depth": 7,
                                                                                "id": 33,
                                                                                "order": 33
                                                                            },
                                                                            {
                                                                                "children": [
                                                                                    {
                                                                                        "children": [],
                                                                                        "depth": 8,
                                                                                        "id": 36,
                                                                                        "order": 36
                                                                                    }
                                                                                ],
                                                                                "depth": 7,
                                                                                "id": 35,
                                                                                "order": 35
                                                                            },
                                                                            {
                                                                                "children": [],
                                                                                "depth": 7,
                                                                                "id": 37,
                                                                                "order": 37
                                                                            }
                                                                        ],
                                                                        "depth": 6,
                                                                        "id": 32,
                                                                        "order": 32
                                                                    }
                                                                ],
                                                                "depth": 5,
                                                                "id": 31,
                                                                "order": 31
                                                            },
                                                            {
                                                                "children": [],
                                                                "depth": 5,
                                                                "id": 38,
                                                                "order": 38
                                                            },
                                                            {
                                                                "children": [
                                                                    {
                                                                        "children": [
                                                                            {
                                                                                "children": [
                                                                                    {
                                                                                        "children": [],
                                                                                        "depth": 8,
                                                                                        "id": 42,
                                                                                        "order": 42
                                                                                    }
                                                                                ],
                                                                                "depth": 7,
                                                                                "id": 41,
                                                                                "order": 41
                                                                            },
                                                                            {
                                                                                "children": [],
                                                                                "depth": 7,
                                                                                "id": 43,
                                                                                "order": 43
                                                                            }
                                                                        ],
                                                                        "depth": 6,
                                                                        "id": 40,
                                                                        "order": 40
                                                                    }
                                                                ],
                                                                "depth": 5,
                                                                "id": 39,
                                                                "order": 39
                                                            },
                                                            {
                                                                "children": [],
                                                                "depth": 5,
                                                                "id": 44,
                                                                "order": 44
                                                            },
                                                            {
                                                                "children": [],
                                                                "depth": 5,
                                                                "id": 45,
                                                                "order": 45
                                                            }
                                                        ],
                                                        "depth": 4,
                                                        "id": 28,
                                                        "order": 28
                                                    }
                                                ],
                                                "depth": 3,
                                                "id": 27,
                                                "order": 27
                                            },
                                            {
                                                "children": [],
                                                "depth": 3,
                                                "id": 46,
                                                "order": 46
                                            }
                                        ],
                                        "depth": 2,
                                        "id": 25,
                                        "order": 25
                                    }
                                ],
                                "depth": 1,
                                "id": 5,
                                "order": 5
                            }
                        ],
                        "depth": 0,
                        "id": 0,
                        "order": 0
                    }
                ],
                "depth": -1,
                "id": -1,
                "order": -1
            }
        ],
        "mainTraceNodeCount": 47,
        "parentIdMap": {
            "0": -1,
            "1": 0,
            "10": 9,
            "11": 9,
            "12": 9,
            "13": 9,
            "14": 9,
            "15": 9,
            "16": 9,
            "17": 9,
            "18": 9,
            "19": 8,
            "2": 1,
            "20": 5,
            "21": 5,
            "22": 21,
            "23": 5,
            "24": 23,
            "25": 5,
            "26": 25,
            "27": 25,
            "28": 27,
            "29": 28,
            "3": 0,
            "30": 29,
            "31": 28,
            "32": 31,
            "33": 32,
            "34": 33,
            "35": 32,
            "36": 35,
            "37": 32,
            "38": 28,
            "39": 28,
            "4": 3,
            "40": 39,
            "41": 40,
            "42": 41,
            "43": 40,
            "44": 28,
            "45": 28,
            "46": 25,
            "5": 0,
            "6": 5,
            "7": 5,
            "8": 5,
            "9": 8
        },
        "tidyTrace": [
            {
                "children": [
                    {
                        "children": [
                            {
                                "children": [
                                    {
                                        "children": [],
                                        "depth": 2,
                                        "id": 2,
                                        "order": 2
                                    }
                                ],
                                "depth": 1,
                                "id": 1,
                                "order": 1
                            },
                            {
                                "children": [
                                    {
                                        "children": [],
                                        "depth": 2,
                                        "id": 4,
                                        "order": 4
                                    }
                                ],
                                "depth": 1,
                                "id": 3,
                                "order": 3
                            },
                            {
                                "children": [
                                    {
                                        "children": [
                                            {
                                                "children": [],
                                                "depth": 3,
                                                "id": 9,
                                                "order": 9
                                            },
                                            {
                                                "children": [],
                                                "depth": 3,
                                                "id": 19,
                                                "order": 19
                                            }
                                        ],
                                        "depth": 2,
                                        "id": 8,
                                        "order": 8
                                    },
                                    {
                                        "children": [
                                            {
                                                "children": [],
                                                "depth": 3,
                                                "id": 22,
                                                "order": 22
                                            }
                                        ],
                                        "depth": 2,
                                        "id": 21,
                                        "order": 21
                                    },
                                    {
                                        "children": [
                                            {
                                                "children": [],
                                                "depth": 3,
                                                "id": 24,
                                                "order": 24
                                            }
                                        ],
                                        "depth": 2,
                                        "id": 23,
                                        "order": 23
                                    },
                                    {
                                        "children": [
                                            {
                                                "children": [
                                                    {
                                                        "children": [
                                                            {
                                                                "children": [],
                                                                "depth": 5,
                                                                "id": 29,
                                                                "order": 29
                                                            },
                                                            {
                                                                "children": [
                                                                    {
                                                                        "children": [
                                                                            {
                                                                                "children": [],
                                                                                "depth": 7,
                                                                                "id": 37,
                                                                                "order": 37
                                                                            }
                                                                        ],
                                                                        "depth": 6,
                                                                        "id": 32,
                                                                        "order": 32
                                                                    }
                                                                ],
                                                                "depth": 5,
                                                                "id": 31,
                                                                "order": 31
                                                            },
                                                            {
                                                                "children": [],
                                                                "depth": 5,
                                                                "id": 38,
                                                                "order": 38
                                                            },
                                                            {
                                                                "children": [
                                                                    {
                                                                        "children": [
                                                                            {
                                                                                "children": [],
                                                                                "depth": 7,
                                                                                "id": 43,
                                                                                "order": 43
                                                                            }
                                                                        ],
                                                                        "depth": 6,
                                                                        "id": 40,
                                                                        "order": 40
                                                                    }
                                                                ],
                                                                "depth": 5,
                                                                "id": 39,
                                                                "order": 39
                                                            },
                                                            {
                                                                "children": [],
                                                                "depth": 5,
                                                                "id": 45,
                                                                "order": 45
                                                            }
                                                        ],
                                                        "depth": 4,
                                                        "id": 28,
                                                        "order": 28
                                                    }
                                                ],
                                                "depth": 3,
                                                "id": 27,
                                                "order": 27
                                            },
                                            {
                                                "children": [],
                                                "depth": 3,
                                                "id": 46,
                                                "order": 46
                                            }
                                        ],
                                        "depth": 2,
                                        "id": 25,
                                        "order": 25
                                    }
                                ],
                                "depth": 1,
                                "id": 5,
                                "order": 5
                            }
                        ],
                        "depth": 0,
                        "id": 0,
                        "order": 0
                    }
                ],
                "depth": -1,
                "id": -1,
                "order": -1
            }
        ],
        "tidyTraceNodeCount": 26
    },
    "state_change": {
        "stateChanges": [
            {
                "address": "0x101816545f6bd2b1076434b54383a1e633390a2e",
                "erc": "ERC-20",
                "slots": [
                    {
                        "current": "0x00000000000000000000000000000000000000000000007997ad5069eea1deb1",
                        "key": "0x6e1540171b6c0c960b71a7020d9f60077f6af931a8bbf590da0223dacf75c7c7",
                        "prev": "0x000000000000000000000000000000000000000000000079991095e24c2bdeb1"
                    },
                    {
                        "current": "0x00000000000000000000000000000000000000000000000659297af650183772",
                        "key": "0x0000000000000000000000000000000000000000000000000000000000000015",
                        "prev": "0x00000000000000000000000000000000000000000000000657c6357df28e3772"
                    }
                ],
                "storageVariables": [
                    {
                        "name": "chainPaths",
                        "type": "struct Pool.ChainPath[]",
                        "value": {
                            "elemType": "struct Pool.ChainPath",
                            "elems": [
                                {
                                    "index": 3,
                                    "value": {
                                        "fields": [
                                            {
                                                "name": "balance",
                                                "type": "uint256",
                                                "value": {
                                                    "current": "2242985513205459181233",
                                                    "prev": "2243085513205459181233",
                                                    "typeTag": 1
                                                }
                                            }
                                        ],
                                        "typeTag": 3
                                    }
                                }
                            ],
                            "typeTag": 2
                        }
                    },
                    {
                        "name": "deltaCredit",
                        "type": "uint256",
                        "value": {
                            "current": "117105265984002340722",
                            "prev": "117005265984002340722",
                            "typeTag": 1
                        }
                    }
                ]
            },
            {
                "address": "0x4d73adb72bc3dd368966edd0f0b2148401a178e2",
                "erc": "",
                "slots": [
                    {
                        "current": "0x00000000000000000000000000000000000000000000000015d8f2fa2172e307",
                        "key": "0xa9966cf297886811b8a32882dd324f23f672f5ccd6bf17ebe1e72a723e2f5ade",
                        "prev": "0x00000000000000000000000000000000000000000000000015d687f428035bed"
                    },
                    {
                        "current": "0x0000000000000000000000000000000000000000000000001063e132f6e911ef",
                        "key": "0x7926c965e2720f1dbcb65c9286a75ed8531ab85534254d790ede2d1d55cc8da8",
                        "prev": "0x0000000000000000000000000000000000000000000000001063478513b849ee"
                    }
                ],
                "storageVariables": [
                    {
                        "name": "nativeFees",
                        "type": "mapping(address => uint256)",
                        "value": {
                            "pairs": [
                                {
                                    "key": "0x5a54fe5234e811466d5366846283323c954310b2",
                                    "value": {
                                        "current": "1181035136308285935",
                                        "prev": "1180866164188269038",
                                        "typeTag": 1
                                    }
                                },
                                {
                                    "key": "0x902f09715b6303d4173037652fa7377e5b98089e",
                                    "value": {
                                        "current": "1574275225882911495",
                                        "prev": "1573594602525645805",
                                        "typeTag": 1
                                    }
                                }
                            ],
                            "typeTag": 4
                        }
                    }
                ]
            },
            {
                "address": "0x5b905fe05f81f3a8ad8b28c6e17779cfabf76068",
                "erc": "",
                "slots": [
                    {
                        "current": "0x000000000000000000000000000000000000000000000000000000000000fb8b",
                        "key": "0x13231af8fa1b0da63a1f4241773d4ff784ec4c06a7643aa6c968db2156e5a16c",
                        "prev": "0x000000000000000000000000000000000000000000000000000000000000fb8a"
                    }
                ],
                "storageVariables": [
                    {
                        "name": "outboundNonce",
                        "type": "mapping(uint16 => mapping(bytes => uint64))",
                        "value": {
                            "pairs": [
                                {
                                    "key": "110",
                                    "value": {
                                        "pairs": [
                                            {
                                                "key": "0x352d8275aae3e0c2404d9f68f6cee084b5beb3dd296f55f8fb28e498b858d0bcda06d955b2cb3f97",
                                                "value": {
                                                    "current": "64395",
                                                    "prev": "64394",
                                                    "typeTag": 1
                                                }
                                            }
                                        ],
                                        "typeTag": 4
                                    }
                                }
                            ],
                            "typeTag": 4
                        }
                    }
                ]
            },
            {
                "address": "0x66a71dcef29a0ffbdbe3c6a460a3b5bc225cd675",
                "erc": "",
                "slots": [
                    {
                        "current": "0x000000000000000000000000000000000000000000000000000000000000fb8b",
                        "key": "0x4a5b97869ed3c6579b7123b7e80a45c7d7e4efdfe43347948cbe3c0a7fe50bf7",
                        "prev": "0x000000000000000000000000000000000000000000000000000000000000fb8a"
                    }
                ],
                "storageVariables": [
                    {
                        "name": "outboundNonce",
                        "type": "mapping(uint16 => mapping(address => uint64))",
                        "value": {
                            "pairs": [
                                {
                                    "key": "110",
                                    "value": {
                                        "pairs": [
                                            {
                                                "key": "0x296f55f8fb28e498b858d0bcda06d955b2cb3f97",
                                                "value": {
                                                    "current": "64395",
                                                    "prev": "64394",
                                                    "typeTag": 1
                                                }
                                            }
                                        ],
                                        "typeTag": 4
                                    }
                                }
                            ],
                            "typeTag": 4
                        }
                    }
                ]
            },
            {
                "address": "0x72e2f4830b9e45d52f80ac08cb2bec0fef72ed9c",
                "erc": "ERC-20",
                "slots": [
                    {
                        "current": "0x0000000000000000000000000000000000000000000000ad7292d23a172edbd4",
                        "key": "0xf7f69682f9824f4882eeb5c155140ea75b5429ce47c66acc542cb334557ba4b3",
                        "prev": "0x0000000000000000000000000000000000000000000000ad712f8cc1b9a4dbd4"
                    },
                    {
                        "current": "0x0000000000000000000000000000000000000000000000ad7292d23a172edbd4",
                        "key": "0x0000000000000000000000000000000000000000000000000000000000000002",
                        "prev": "0x0000000000000000000000000000000000000000000000ad712f8cc1b9a4dbd4"
                    }
                ],
                "storageVariables": [
                    {
                        "name": "balanceOf",
                        "type": "mapping(address => uint256)",
                        "value": {
                            "pairs": [
                                {
                                    "key": "0x101816545f6bd2b1076434b54383a1e633390a2e",
                                    "value": {
                                        "current": "3199542616965614853076",
                                        "prev": "3199442616965614853076",
                                        "typeTag": 1
                                    }
                                }
                            ],
                            "typeTag": 4
                        }
                    },
                    {
                        "name": "totalSupply",
                        "type": "uint256",
                        "value": {
                            "current": "3199542616965614853076",
                            "prev": "3199442616965614853076",
                            "typeTag": 1
                        }
                    }
                ]
            }
        ]
    }
}