{
    "balance_change": {
        "balanceChanges": [
            {
                "account": "0xb0cdfdd151eb4066ef7f47a93f6739e44534f785",
                "assets": [
                    {
                        "address": "0x467719ad09025fcc6cf6f8311755809d45a5e5f3",
                        "amount": "70",
                        "iconUrl": "",
                        "isERC1155": false,
                        "isERC721": false,
                        "sign": false,
                        "value": "41.6865598"
                    }
                ]
            },
            {
                "account": "0xe96259f203cb94db159e531006ca139fbd612f49",
                "assets": [
                    {
                        "address": "0x467719ad09025fcc6cf6f8311755809d45a5e5f3",
                        "amount": "70",
                        "iconUrl": "",
                        "isERC1155": false,
                        "isERC721": false,
                        "sign": true,
                        "value": "41.6865598"
                    }
                ]
            }
        ]
    },
    "profile": {
        "basic_info": {
            "baseFee": "9.649278201",
            "blockNumber": 16058725,
            "callData": "0xa9059cbb000000000000000000000000e96259f203cb94db159e531006ca139fbd612f4900000000000000000000000000000000000000000000000000000000042c1d80",
            "debugEnable": true,
            "errorInfo": "",
            "eventCount": 1,
            "feeRecipient": "0xdafea492d9c6733ae3d56b7ed1adb60692c98bc5",
            "formatValue": "0",
            "gasLimit": 51688,
            "gasPrice": "14.004046196",
            "gasUsed": 34459,
            "intTxnCount": 0,
            "internalRevert": false,
            "internalRevertMessage": "",
            "isContractCreation": false,
            "isFlashloan": false,
            "maxFee": "",
            "nonce": 209,
            "overwritedBlockNumber": -1,
            "priorityFee": "",
            "receiver": "0x467719ad09025fcc6cf6f8311755809d45a5e5f3",
            "revertMessage": "",
            "sender": "0xb0cdfdd151eb4066ef7f47a93f6739e44534f785",
            "simulationEnable": true,
            "sourceTxnHash": "0xf75a9453b372668055de6081921f82f9b9c27a8ed9d6685e002b5f88ff1a3f51",
            "status": true,
            "timestamp": "2022-11-27T03:46:59Z",
            "transactionFee": "0.000482565427867964",
            "txnHash": "0xf75a9453b372668055de6081921f82f9b9c27a8ed9d6685e002b5f88ff1a3f51",
            "txnIndex": 7,
            "type": 0,
            "value": "0"
        },
        "fund_flow": [
            {
                "amount": "70",
                "from": "0xb0cdfdd151eb4066ef7f47a93f6739e44534f785",
                "id": 1,
                "isERC1155": false,
                "isERC721": false,
                "isReverted": false,
                "order": 1,
                "to": "0xe96259f203cb94db159e531006ca139fbd612f49",
                "token": "0x467719ad09025fcc6cf6f8311755809d45a5e5f3"
            }
        ],
        "token_infos": [
            {
                "address": "0xc02aaa39b223fe8d0a0e5c4f27ead9083c756cc2",
                "decimals": 18
            },
            {
                "address": "0xeeeeeeeeeeeeeeeeeeeeeeeeeeeeeeeeeeeeeeee",
                "decimals": 18
            },
            {
                "address": "0x467719ad09025fcc6cf6f8311755809d45a5e5f3",
                "decimals": 6
            }
        ]
    },
    "address_label": {
        "labels": [
            {
                "address": "0x467719ad09025fcc6cf6f8311755809d45a5e5f3",
                "label": "Axelar Network: AXL Token"
            },
            {
                "address": "0xe96259f203cb94db159e531006ca139fbd612f49",
                "label": "MEXC"
            },
            {
                "address": "0x0000000000000000000000000000000000000001",
                "label": "Precompiled"
            },
            {
                "address": "0x0000000000000000000000000000000000000002",
                "label": "Precompiled"
            },
            {
                "address": "0x0000000000000000000000000000000000000003",
                "label": "Precompiled"
            },
            {
                "address": "0x0000000000000000000000000000000000000004",
                "label": "Precompiled"
            },
            {
                "address": "0xeeeeeeeeeeeeeeeeeeeeeeeeeeeeeeeeeeeeeeee",
                "label": "Ether"
            }
        ]
    },
    "trace": {
        "accountLabels": null,
        "dataMap": {
            "-1": {
                "invocation": {
                    "address": "0xb0cdfdd151eb4066ef7f47a93f6739e44534f785",
                    "callData": "",
                    "decodedMethod": null,
                    "errorInfo": "",
                    "fromAddress": "",
                    "gasUsed": 0,
                    "id": -1,
                    "methodDecoded": false,
                    "operation": "",
                    "output": "",
                    "revert": false,
                    "revertMessage": "",
                    "selector": "",
                    "status": false,
                    "value": ""
                },
                "nodeType": 0
            },
            "0": {
                "invocation": {
                    "address": "0x467719ad09025fcc6cf6f8311755809d45a5e5f3",
                    "callData": "0x000000000000000000000000e96259f203cb94db159e531006ca139fbd612f4900000000000000000000000000000000000000000000000000000000042c1d80",
                    "decodedMethod": {
                        "callParams": [
                            {
                                "name": "recipient",
                                "type": "address",
                                "value": "0xe96259f203cb94db159e531006ca139fbd612f49"
                            },
                            {
                                "decimalAvailable": true,
                                "name": "amount",
                                "type": "uint256",
                                "value": "70,000,000"
                            }
                        ],
                        "constructorArguments": "",
                        "name": "transfer",
                        "returnParams": [
                            {
                                "name": "",
                                "type": "bool",
                                "value": true
                            }
                        ],
                        "signature": "transfer(address,uint256)"
                    },
                    "errorInfo": "",
                    "fromAddress": "0xb0cdfdd151eb4066ef7f47a93f6739e44534f785",
                    "gasUsed": 34459,
                    "id": 0,
                    "methodDecoded": true,
                    "operation": "CALL",
                    "output": "0x0000000000000000000000000000000000000000000000000000000000000001",
                    "revert": false,
                    "revertMessage": "",
                    "selector": "0xa9059cbb",
                    "status": true,
                    "value": "0"
                },
                "nodeType": 0
            },
            "1": {
                "event": {
                    "contract": "0x467719ad09025fcc6cf6f8311755809d45a5e5f3",
                    "decodedLog": {
                        "name": "Transfer",
                        "params": [
                            {
                                "name": "from",
                                "type": "address",
                                "value": "0xb0cdfdd151eb4066ef7f47a93f6739e44534f785"
                            },
                            {
                                "name": "to",
                                "type": "address",
                                "value": "0xe96259f203cb94db159e531006ca139fbd612f49"
                            },
                            {
                                "decimalAvailable": true,
                                "name": "value",
                                "type": "uint256",
                                "value": "70,000,000"
                            }
                        ],
                        "signature": "Transfer(address,address,uint256)"
                    },
                    "id": 1,
                    "logData": "0x00000000000000000000000000000000000000000000000000000000042c1d80",
                    "logDecoded": true,
                    "operation": "EVENT",
                    "revert": false,
                    "status": true,
                    "topics": [
                        "0xddf252ad1be2c89b69c2b068fc378daa952ba7f163c4a11628f55a4df523b3ef",
                        "0x000000000000000000000000b0cdfdd151eb4066ef7f47a93f6739e44534f785",
                        "0x000000000000000000000000e96259f203cb94db159e531006ca139fbd612f49"
                    ]
                },
                "nodeType": 1
            }
        },
        "gasFlame": [
            {
                "children": [
                    {
                        "children": [
                            {
                                "children": [],
                                "depth": 0,
                                "name": "Initial Gas",
                                "value": 21608
                            },
                            {
                                "children": [],
                                "depth": 0,
                                "name": "Executed Gas",
                                "value": 12851
                            }
                        ],
                        "depth": -1,
                        "name": "Actual Gas Used",
                        "value": 34459
                    },
                    {
                        "children": [],
                        "depth": -1,
                        "name": "Refunded Gas",
                        "value": 0
                    }
                ],
                "depth": -2,
                "name": "Total Gas",
                "value": 34459
            }
        ],
        "isConfirmed": true,
        "mainTrace": [
            {
                "children": [
                    {
                        "children": [
                            {
                                "children": [],
                                "depth": 1,
                                "id": 1,
                                "order": 1
                            }
                        ],
                        "depth": 0,
                        "id": 0,
                        "order": 0
                    }
                ],
                "depth": -1,
                "id": -1,
                "order": -1
            }
        ],
        "mainTraceNodeCount": 2,
        "parentIdMap": {
            "0": -1,
            "1": 0
        },
        "tidyTrace": [
            {
                "children": [
                    {
                        "children": [
                            {
                                "children": [],
                                "depth": 1,
                                "id": 1,
                                "order": 1
                            }
                        ],
                        "depth": 0,
                        "id": 0,
                        "order": 0
                    }
                ],
                "depth": -1,
                "id": -1,
                "order": -1
            }
        ],
        "tidyTraceNodeCount": 2
    },
    "state_change": {
        "stateChanges": [
            {
                "address": "0x467719ad09025fcc6cf6f8311755809d45a5e5f3",
                "erc": "ERC-20",
                "slots": [
                    {
                        "current": "0x000000000000000000000000000000000000000000000000000000e11d5bd72a",
                        "key": "0x79810b6665111bfbe670b532762cc216591f34e9979fe41b40e0ca080dc51f0a",
                        "prev": "0x000000000000000000000000000000000000000000000000000000e12187f4aa"
                    },
                    {
                        "current": "0x000000000000000000000000000000000000000000000000000000002d0062c0",
                        "key": "0x6195e2f042bf7149b91a83ab0bd517fdd91e8e40a2b17654b38b38cad34421eb",
                        "prev": "0x0000000000000000000000000000000000000000000000000000000028d44540"
                    }
                ],
                "storageVariables": [
                    {
                        "name": "balanceOf",
                        "type": "mapping(address => uint256)",
                        "value": {
                            "pairs": [
                                {
                                    "key": "0xb0cdfdd151eb4066ef7f47a93f6739e44534f785",
                                    "value": {
                                        "current": "966860199722",
                                        "prev": "966930199722",
                                        "typeTag": 1
                                    }
                                },
                                {
                                    "key": "0xe96259f203cb94db159e531006ca139fbd612f49",
                                    "value": {
                                        "current": "755000000",
                                        "prev": "685000000",
                                        "typeTag": 1
                                    }
                                }
                            ],
                            "typeTag": 4
                        }
                    }
                ]
            }
        ]
    }
}