{
    "balance_change": {
        "balanceChanges": [
            {
                "account": "0x2faf487a4414fe77e2327f0bf4ae2a264a776ad2",
                "assets": [
                    {
                        "address": "0x3c4b6e6e1ea3d4863700d7f76b36b7f3d3f13e3d",
                        "amount": "336,652",
                        "iconUrl": "",
                        "isERC1155": false,
                        "isERC721": false,
                        "sign": true,
                        "value": "19457.06248"
                    }
                ]
            },
            {
                "account": "0x8025504c05b146ae25a84c82a73f447a88b8ae9a",
                "assets": [
                    {
                        "address": "0x3c4b6e6e1ea3d4863700d7f76b36b7f3d3f13e3d",
                        "amount": "336,652",
                        "iconUrl": "",
                        "isERC1155": false,
                        "isERC721": false,
                        "sign": false,
                        "value": "19457.06248"
                    }
                ]
            }
        ]
    },
    "profile": {
        "basic_info": {
            "baseFee": "66.449296697",
            "blockNumber": 15134517,
            "callData": "0x23b872dd0000000000000000000000008025504c05b146ae25a84c82a73f447a88b8ae9a0000000000000000000000002faf487a4414fe77e2327f0bf4ae2a264a776ad200000000000000000000000000000000000000000000000000001e9e4a498c00",
            "debugEnable": true,
            "errorInfo": "",
            "eventCount": 2,
            "feeRecipient": "0x3ecef08d0e2dad803847e052249bb4f8bff2d5bb",
            "formatValue": "0",
            "gasLimit": 69231,
            "gasPrice": "72.569296697",
            "gasUsed": 37893,
            "intTxnCount": 0,
            "internalRevert": false,
            "internalRevertMessage": "",
            "isContractCreation": false,
            "isFlashloan": false,
            "maxFee": "1000",
            "nonce": 4262595,
            "overwritedBlockNumber": -1,
            "priorityFee": "6.12",
            "receiver": "0x3c4b6e6e1ea3d4863700d7f76b36b7f3d3f13e3d",
            "revertMessage": "",
            "sender": "0x2faf487a4414fe77e2327f0bf4ae2a264a776ad2",
            "simulationEnable": true,
            "sourceTxnHash": "0xf705adb90551de2013cec33a2d50c5eb99fc4af89f1fbc29df53ccbd7d066b5b",
            "status": true,
            "timestamp": "2022-07-13T13:27:46Z",
            "transactionFee": "0.002749868359739421",
            "txnHash": "0xf705adb90551de2013cec33a2d50c5eb99fc4af89f1fbc29df53ccbd7d066b5b",
            "txnIndex": 159,
            "type": 2,
            "value": "0"
        },
        "fund_flow": [
            {
                "amount": "336,652",
                "from": "0x8025504c05b146ae25a84c82a73f447a88b8ae9a",
                "id": 1,
                "isERC1155": false,
                "isERC721": false,
                "isReverted": false,
                "order": 1,
                "to": "0x2faf487a4414fe77e2327f0bf4ae2a264a776ad2",
                "token": "0x3c4b6e6e1ea3d4863700d7f76b36b7f3d3f13e3d"
            }
        ],
        "token_infos": [
            {
                "address": "0x3c4b6e6e1ea3d4863700d7f76b36b7f3d3f13e3d",
                "decimals": 8
            },
            {
                "address": "0xc02aaa39b223fe8d0a0e5c4f27ead9083c756cc2",
                "decimals": 18
            },
            {
                "address": "0xeeeeeeeeeeeeeeeeeeeeeeeeeeeeeeeeeeeeeeee",
                "decimals": 18
            }
        ]
    },
    "address_label": {
        "labels": [
            {
                "address": "0x0000000000000000000000000000000000000003",
                "label": "Precompiled"
            },
            {
                "address": "0x0000000000000000000000000000000000000004",
                "label": "Precompiled"
            },
            {
                "address": "0xeeeeeeeeeeeeeeeeeeeeeeeeeeeeeeeeeeeeeeee",
                "label": "Ether"
            },
            {
                "address": "0x3c4b6e6e1ea3d4863700d7f76b36b7f3d3f13e3d",
                "label": "Voyager: VGX Token"
            },
            {
                "address": "0x2faf487a4414fe77e2327f0bf4ae2a264a776ad2",
                "label": "FTX Exchange"
            },
            {
                "address": "0x0000000000000000000000000000000000000001",
                "label": "Precompiled"
            },
            {
                "address": "0x0000000000000000000000000000000000000002",
                "label": "Precompiled"
            }
        ]
    },
    "trace": {
        "accountLabels": null,
        "dataMap": {
            "-1": {
                "invocation": {
                    "address": "0x2faf487a4414fe77e2327f0bf4ae2a264a776ad2",
                    "callData": "",
                    "decodedMethod": null,
                    "errorInfo": "",
                    "fromAddress": "",
                    "gasUsed": 0,
                    "id": -1,
                    "methodDecoded": false,
                    "operation": "",
                    "output": "",
                    "revert": false,
                    "revertMessage": "",
                    "selector": "",
                    "status": false,
                    "value": ""
                },
                "nodeType": 0
            },
            "0": {
                "invocation": {
                    "address": "0x3c4b6e6e1ea3d4863700d7f76b36b7f3d3f13e3d",
                    "callData": "0x0000000000000000000000008025504c05b146ae25a84c82a73f447a88b8ae9a0000000000000000000000002faf487a4414fe77e2327f0bf4ae2a264a776ad200000000000000000000000000000000000000000000000000001e9e4a498c00",
                    "decodedMethod": {
                        "callParams": [
                            {
                                "name": "sender",
                                "type": "address",
                                "value": "0x8025504c05b146ae25a84c82a73f447a88b8ae9a"
                            },
                            {
                                "name": "recipient",
                                "type": "address",
                                "value": "0x2faf487a4414fe77e2327f0bf4ae2a264a776ad2"
                            },
                            {
                                "decimalAvailable": true,
                                "name": "amount",
                                "type": "uint256",
                                "value": "33,665,200,000,000"
                            }
                        ],
                        "constructorArguments": "",
                        "name": "transferFrom",
                        "returnParams": [
                            {
                                "name": "",
                                "type": "bool",
                                "value": true
                            }
                        ],
                        "signature": "transferFrom(address,address,uint256)"
                    },
                    "errorInfo": "",
                    "fromAddress": "0x2faf487a4414fe77e2327f0bf4ae2a264a776ad2",
                    "gasUsed": 37893,
                    "id": 0,
                    "methodDecoded": true,
                    "operation": "CALL",
                    "output": "0x0000000000000000000000000000000000000000000000000000000000000001",
                    "revert": false,
                    "revertMessage": "",
                    "selector": "0x23b872dd",
                    "status": true,
                    "value": "0"
                },
                "nodeType": 0
            },
            "1": {
                "event": {
                    "contract": "0x3c4b6e6e1ea3d4863700d7f76b36b7f3d3f13e3d",
                    "decodedLog": {
                        "name": "Transfer",
                        "params": [
                            {
                                "name": "from",
                                "type": "address",
                                "value": "0x8025504c05b146ae25a84c82a73f447a88b8ae9a"
                            },
                            {
                                "name": "to",
                                "type": "address",
                                "value": "0x2faf487a4414fe77e2327f0bf4ae2a264a776ad2"
                            },
                            {
                                "decimalAvailable": true,
                                "name": "value",
                                "type": "uint256",
                                "value": "33,665,200,000,000"
                            }
                        ],
                        "signature": "Transfer(address,address,uint256)"
                    },
                    "id": 1,
                    "logData": "0x00000000000000000000000000000000000000000000000000001e9e4a498c00",
                    "logDecoded": true,
                    "operation": "EVENT",
                    "revert": false,
                    "status": true,
                    "topics": [
                        "0xddf252ad1be2c89b69c2b068fc378daa952ba7f163c4a11628f55a4df523b3ef",
                        "0x0000000000000000000000008025504c05b146ae25a84c82a73f447a88b8ae9a",
                        "0x0000000000000000000000002faf487a4414fe77e2327f0bf4ae2a264a776ad2"
                    ]
                },
                "nodeType": 1
            },
            "2": {
                "event": {
                    "contract": "0x3c4b6e6e1ea3d4863700d7f76b36b7f3d3f13e3d",
                    "decodedLog": {
                        "name": "Approval",
                        "params": [
                            {
                                "name": "owner",
                                "type": "address",
                                "value": "0x8025504c05b146ae25a84c82a73f447a88b8ae9a"
                            },
                            {
                                "name": "spender",
                                "type": "address",
                                "value": "0x2faf487a4414fe77e2327f0bf4ae2a264a776ad2"
                            },
                            {
                                "decimalAvailable": true,
                                "name": "value",
                                "type": "uint256",
                                "value": "115,792,089,237,316,195,423,570,985,008,687,907,853,269,984,665,640,564,039,457,583,236,733,445,049,682"
                            }
                        ],
                        "signature": "Approval(address,address,uint256)"
                    },
                    "id": 2,
                    "logData": "0xfffffffffffffffffffffffffffffffffffffffffffffffffffd429dbcd78d52",
                    "logDecoded": true,
                    "operation": "EVENT",
                    "revert": false,
                    "status": true,
                    "topics": [
                        "0x8c5be1e5ebec7d5bd14f71427d1e84f3dd0314c0f7b2291e5b200ac8c7c3b925",
                        "0x0000000000000000000000008025504c05b146ae25a84c82a73f447a88b8ae9a",
                        "0x0000000000000000000000002faf487a4414fe77e2327f0bf4ae2a264a776ad2"
                    ]
                },
                "nodeType": 1
            }
        },
        "gasFlame": [
            {
                "children": [
                    {
                        "children": [
                            {
                                "children": [],
                                "depth": 0,
                                "name": "Initial Gas",
                                "value": 21988
                            },
                            {
                                "children": [],
                                "depth": 0,
                                "name": "Executed Gas",
                                "value": 20705
                            }
                        ],
                        "depth": -1,
                        "name": "Actual Gas Used",
                        "value": 37893
                    },
                    {
                        "children": [],
                        "depth": -1,
                        "name": "Refunded Gas",
                        "value": 4800
                    }
                ],
                "depth": -2,
                "name": "Total Gas",
                "value": 42693
            }
        ],
        "isConfirmed": true,
        "mainTrace": [
            {
                "children": [
                    {
                        "children": [
                            {
                                "children": [],
                                "depth": 1,
                                "id": 1,
                                "order": 1
                            },
                            {
                                "children": [],
                                "depth": 1,
                                "id": 2,
                                "order": 2
                            }
                        ],
                        "depth": 0,
                        "id": 0,
                        "order": 0
                    }
                ],
                "depth": -1,
                "id": -1,
                "order": -1
            }
        ],
        "mainTraceNodeCount": 3,
        "parentIdMap": {
            "0": -1,
            "1": 0,
            "2": 0
        },
        "tidyTrace": [
            {
                "children": [
                    {
                        "children": [
                            {
                                "children": [],
                                "depth": 1,
                                "id": 1,
                                "order": 1
                            },
                            {
                                "children": [],
                                "depth": 1,
                                "id": 2,
                                "order": 2
                            }
                        ],
                        "depth": 0,
                        "id": 0,
                        "order": 0
                    }
                ],
                "depth": -1,
                "id": -1,
                "order": -1
            }
        ],
        "tidyTraceNodeCount": 3
    },
    "state_change": {
        "stateChanges": [
            {
                "address": "0x3c4b6e6e1ea3d4863700d7f76b36b7f3d3f13e3d",
                "erc": "ERC-20",
                "slots": [
                    {
                        "current": "0xfffffffffffffffffffffffffffffffffffffffffffffffffffd429dbcd78d52",
                        "key": "0x3ec5ddde0314b606e9765270eceabd3c81af5be41d55341d6466228acf5af7b6",
                        "prev": "0xfffffffffffffffffffffffffffffffffffffffffffffffffffd613c07211952"
                    },
                    {
                        "current": "0x0000000000000000000000000000000000000000000000000000000000000000",
                        "key": "0x7bab3ba13203a3297c9613b5f67310b2505088aa3ca01687f959abab2ef94b74",
                        "prev": "0x00000000000000000000000000000000000000000000000000001e9e4a498c00"
                    },
                    {
                        "current": "0x00000000000000000000000000000000000000000000000000009a8a691e7e9e",
                        "key": "0x0895b50d920716c7d4f1076d56bc7f0dffc2b78a8edd3b6944dd6e826d85d149",
                        "prev": "0x00000000000000000000000000000000000000000000000000007bec1ed4f29e"
                    }
                ],
                "storageVariables": [
                    {
                        "name": "_balances",
                        "type": "mapping(address => uint256)",
                        "value": {
                            "pairs": [
                                {
                                    "key": "0x2faf487a4414fe77e2327f0bf4ae2a264a776ad2",
                                    "value": {
                                        "current": "169919259770526",
                                        "prev": "136254059770526",
                                        "typeTag": 1
                                    }
                                },
                                {
                                    "key": "0x8025504c05b146ae25a84c82a73f447a88b8ae9a",
                                    "value": {
                                        "current": "0",
                                        "prev": "33665200000000",
                                        "typeTag": 1
                                    }
                                }
                            ],
                            "typeTag": 4
                        }
                    },
                    {
                        "name": "_allowances",
                        "type": "mapping(address => mapping(address => uint256))",
                        "value": {
                            "pairs": [
                                {
                                    "key": "0x8025504c05b146ae25a84c82a73f447a88b8ae9a",
                                    "value": {
                                        "pairs": [
                                            {
                                                "key": "0x2faf487a4414fe77e2327f0bf4ae2a264a776ad2",
                                                "value": {
                                                    "current": "115792089237316195423570985008687907853269984665640564039457583236733445049682",
                                                    "prev": "115792089237316195423570985008687907853269984665640564039457583270398645049682",
                                                    "typeTag": 1
                                                }
                                            }
                                        ],
                                        "typeTag": 4
                                    }
                                }
                            ],
                            "typeTag": 4
                        }
                    }
                ]
            }
        ]
    }
}