{
    "balance_change": {
        "balanceChanges": [
            {
                "account": "0xaf2124c06ca7b7a5b39beb5d4af3e1bd95130660",
                "assets": [
                    {
                        "address": "0xeeeeeeeeeeeeeeeeeeeeeeeeeeeeeeeeeeeeeeee",
                        "amount": "0.15",
                        "iconUrl": "https://assets.blocksec.com/image/1663669189317-3.png",
                        "isERC1155": false,
                        "isERC721": false,
                        "sign": false,
                        "value": ""
                    },
                    {
                        "address": "0xa7d8d9ef8d8ce8992df33d8b8cf4aebabd5bd270",
                        "amount": "1",
                        "iconUrl": "https://assets.blocksec.com/nft/icon/nft_7292d575-da8c-4a42-a0ab-da1e2c2f7507.png",
                        "isERC1155": false,
                        "isERC721": true,
                        "sign": true,
                        "tokenID": "174000105",
                        "value": ""
                    }
                ]
            },
            {
                "account": "0x0000000000000000000000000000000000000000",
                "assets": [
                    {
                        "address": "0xa7d8d9ef8d8ce8992df33d8b8cf4aebabd5bd270",
                        "amount": "1",
                        "iconUrl": "https://assets.blocksec.com/nft/icon/nft_7292d575-da8c-4a42-a0ab-da1e2c2f7507.png",
                        "isERC1155": false,
                        "isERC721": true,
                        "sign": false,
                        "tokenID": "174000105",
                        "value": ""
                    }
                ]
            },
            {
                "account": "0x439f64293716d6778c0c7ffd10e1ebdd33d63672",
                "assets": [
                    {
                        "address": "0xeeeeeeeeeeeeeeeeeeeeeeeeeeeeeeeeeeeeeeee",
                        "amount": "0.10125",
                        "iconUrl": "https://assets.blocksec.com/image/1663669189317-3.png",
                        "isERC1155": false,
                        "isERC721": false,
                        "sign": true,
                        "value": ""
                    }
                ]
            },
            {
                "account": "0xc5fe41e7e7a9bc5d85ea12f0e32b2c9d142d9353",
                "assets": [
                    {
                        "address": "0xeeeeeeeeeeeeeeeeeeeeeeeeeeeeeeeeeeeeeeee",
                        "amount": "0.03375",
                        "iconUrl": "https://assets.blocksec.com/image/1663669189317-3.png",
                        "isERC1155": false,
                        "isERC721": false,
                        "sign": true,
                        "value": ""
                    }
                ]
            },
            {
                "account": "0xf7a55108a6e830a809e88e74cbf5f5de9d930153",
                "assets": [
                    {
                        "address": "0xeeeeeeeeeeeeeeeeeeeeeeeeeeeeeeeeeeeeeeee",
                        "amount": "0.015",
                        "iconUrl": "https://assets.blocksec.com/image/1663669189317-3.png",
                        "isERC1155": false,
                        "isERC721": false,
                        "sign": true,
                        "value": ""
                    }
                ]
            }
        ]
    },
    "profile": {
        "basic_info": {
            "baseFee": "88.703352981",
            "blockNumber": 13335538,
            "callData": "0xefef39a100000000000000000000000000000000000000000000000000000000000000ae",
            "debugEnable": true,
            "errorInfo": "",
            "eventCount": 2,
            "feeRecipient": "0xb7e390864a90b7b923c9f9310c6f98aafe43f707",
            "formatValue": "0.15",
            "gasLimit": 500000,
            "gasPrice": "90.473938601",
            "gasUsed": 363745,
            "intTxnCount": 19,
            "internalRevert": false,
            "internalRevertMessage": "",
            "isContractCreation": false,
            "isFlashloan": false,
            "maxFee": "118.562263055",
            "nonce": 1457,
            "overwritedBlockNumber": -1,
            "priorityFee": "1.77058562",
            "receiver": "0x47e312d99c09ce61a866c83cbbbbed5a4b9d33e7",
            "revertMessage": "",
            "sender": "0xaf2124c06ca7b7a5b39beb5d4af3e1bd95130660",
            "simulationEnable": true,
            "sourceTxnHash": "0xf7ed8f97a94af7a4c88f9b973973ccc56b4e0e6a2facb120e4059d5afebe7799",
            "status": true,
            "timestamp": "2021-10-01T20:10:57Z",
            "transactionFee": "0.032909442796420745",
            "txnHash": "0xf7ed8f97a94af7a4c88f9b973973ccc56b4e0e6a2facb120e4059d5afebe7799",
            "txnIndex": 27,
            "type": 2,
            "value": "150000000000000000"
        },
        "fund_flow": [
            {
                "amount": "0.15",
                "from": "0xaf2124c06ca7b7a5b39beb5d4af3e1bd95130660",
                "id": 1,
                "isERC1155": false,
                "isERC721": false,
                "isReverted": false,
                "order": 1,
                "to": "0x47e312d99c09ce61a866c83cbbbbed5a4b9d33e7",
                "token": "0xeeeeeeeeeeeeeeeeeeeeeeeeeeeeeeeeeeeeeeee"
            },
            {
                "amount": "0.015",
                "from": "0x47e312d99c09ce61a866c83cbbbbed5a4b9d33e7",
                "id": 2,
                "isERC1155": false,
                "isERC721": false,
                "isReverted": false,
                "order": 2,
                "to": "0xf7a55108a6e830a809e88e74cbf5f5de9d930153",
                "token": "0xeeeeeeeeeeeeeeeeeeeeeeeeeeeeeeeeeeeeeeee"
            },
            {
                "amount": "0.03375",
                "from": "0x47e312d99c09ce61a866c83cbbbbed5a4b9d33e7",
                "id": 3,
                "isERC1155": false,
                "isERC721": false,
                "isReverted": false,
                "order": 3,
                "to": "0xc5fe41e7e7a9bc5d85ea12f0e32b2c9d142d9353",
                "token": "0xeeeeeeeeeeeeeeeeeeeeeeeeeeeeeeeeeeeeeeee"
            },
            {
                "amount": "0.10125",
                "from": "0x47e312d99c09ce61a866c83cbbbbed5a4b9d33e7",
                "id": 4,
                "isERC1155": false,
                "isERC721": false,
                "isReverted": false,
                "order": 4,
                "to": "0x439f64293716d6778c0c7ffd10e1ebdd33d63672",
                "token": "0xeeeeeeeeeeeeeeeeeeeeeeeeeeeeeeeeeeeeeeee"
            },
            {
                "amount": "1",
                "from": "0x0000000000000000000000000000000000000000",
                "id": 5,
                "isERC1155": false,
                "isERC721": true,
                "isReverted": false,
                "order": 5,
                "to": "0xaf2124c06ca7b7a5b39beb5d4af3e1bd95130660",
                "token": "0xa7d8d9ef8d8ce8992df33d8b8cf4aebabd5bd270",
                "tokenID": "174000105"
            }
        ],
        "token_infos": [
            {
                "address": "0xc02aaa39b223fe8d0a0e5c4f27ead9083c756cc2",
                "decimals": 18
            },
            {
                "address": "0xeeeeeeeeeeeeeeeeeeeeeeeeeeeeeeeeeeeeeeee",
                "decimals": 18
            }
        ]
    },
    "address_label": {
        "labels": [
            {
                "address": "0xa7d8d9ef8d8ce8992df33d8b8cf4aebabd5bd270",
                "label": "Art Blocks: BLOCKS Token"
            },
            {
                "address": "0x0000000000000000000000000000000000000001",
                "label": "Precompiled"
            },
            {
                "address": "0x0000000000000000000000000000000000000002",
                "label": "Precompiled"
            },
            {
                "address": "0x0000000000000000000000000000000000000003",
                "label": "Precompiled"
            },
            {
                "address": "0x0000000000000000000000000000000000000004",
                "label": "Precompiled"
            },
            {
                "address": "0xeeeeeeeeeeeeeeeeeeeeeeeeeeeeeeeeeeeeeeee",
                "label": "Ether"
            },
            {
                "address": "0x47e312d99c09ce61a866c83cbbbbed5a4b9d33e7",
                "label": "Art Blocks"
            },
            {
                "address": "0xdac17f958d2ee523a2206206994597c13d831ec7",
                "label": "Tether: USDT Stablecoin"
            }
        ]
    },
    "trace": {
        "accountLabels": null,
        "dataMap": {
            "-1": {
                "invocation": {
                    "address": "0xaf2124c06ca7b7a5b39beb5d4af3e1bd95130660",
                    "callData": "",
                    "decodedMethod": null,
                    "errorInfo": "",
                    "fromAddress": "",
                    "gasUsed": 0,
                    "id": -1,
                    "methodDecoded": false,
                    "operation": "",
                    "output": "",
                    "revert": false,
                    "revertMessage": "",
                    "selector": "",
                    "status": false,
                    "value": ""
                },
                "nodeType": 0
            },
            "0": {
                "invocation": {
                    "address": "0x47e312d99c09ce61a866c83cbbbbed5a4b9d33e7",
                    "callData": "0x00000000000000000000000000000000000000000000000000000000000000ae",
                    "decodedMethod": {
                        "callParams": [
                            {
                                "name": "_tokenId",
                                "type": "uint256",
                                "value": "174"
                            }
                        ],
                        "constructorArguments": "",
                        "name": "purchase",
                        "returnParams": [],
                        "signature": "purchase(uint256)"
                    },
                    "errorInfo": "",
                    "fromAddress": "0xaf2124c06ca7b7a5b39beb5d4af3e1bd95130660",
                    "gasUsed": 363745,
                    "id": 0,
                    "methodDecoded": true,
                    "operation": "CALL",
                    "output": "0x000000000000000000000000000000000000000000000000000000000a5f07e9",
                    "revert": false,
                    "revertMessage": "",
                    "selector": "0xefef39a1",
                    "status": true,
                    "value": "0.15"
                },
                "nodeType": 0
            },
            "1": {
                "invocation": {
                    "address": "0xa7d8d9ef8d8ce8992df33d8b8cf4aebabd5bd270",
                    "callData": "0x00000000000000000000000000000000000000000000000000000000000000ae",
                    "decodedMethod": {
                        "callParams": [
                            {
                                "name": "",
                                "type": "uint256",
                                "value": "174"
                            }
                        ],
                        "constructorArguments": "",
                        "name": "projectIdToCurrencySymbol",
                        "returnParams": [
                            {
                                "name": "",
                                "type": "string",
                                "value": "ETH"
                            }
                        ],
                        "signature": "projectIdToCurrencySymbol(uint256)"
                    },
                    "errorInfo": "",
                    "fromAddress": "0x47e312d99c09ce61a866c83cbbbbed5a4b9d33e7",
                    "gasUsed": 3202,
                    "id": 1,
                    "methodDecoded": true,
                    "operation": "STATICCALL",
                    "output": "0x000000000000000000000000000000000000000000000000000000000000002000000000000000000000000000000000000000000000000000000000000000034554480000000000000000000000000000000000000000000000000000000000",
                    "revert": false,
                    "revertMessage": "",
                    "selector": "0x20927ec9",
                    "status": true,
                    "value": "0"
                },
                "nodeType": 0
            },
            "10": {
                "invocation": {
                    "address": "0xa7d8d9ef8d8ce8992df33d8b8cf4aebabd5bd270",
                    "callData": "0x00000000000000000000000000000000000000000000000000000000000000ae",
                    "decodedMethod": {
                        "callParams": [
                            {
                                "name": "",
                                "type": "uint256",
                                "value": "174"
                            }
                        ],
                        "constructorArguments": "",
                        "name": "projectIdToAdditionalPayee",
                        "returnParams": [
                            {
                                "name": "",
                                "type": "address",
                                "value": "0xc5fe41e7e7a9bc5d85ea12f0e32b2c9d142d9353"
                            }
                        ],
                        "signature": "projectIdToAdditionalPayee(uint256)"
                    },
                    "errorInfo": "",
                    "fromAddress": "0x47e312d99c09ce61a866c83cbbbbed5a4b9d33e7",
                    "gasUsed": 2578,
                    "id": 10,
                    "methodDecoded": true,
                    "operation": "STATICCALL",
                    "output": "0x000000000000000000000000c5fe41e7e7a9bc5d85ea12f0e32b2c9d142d9353",
                    "revert": false,
                    "revertMessage": "",
                    "selector": "0xd7b044b6",
                    "status": true,
                    "value": "0"
                },
                "nodeType": 0
            },
            "11": {
                "invocation": {
                    "address": "0xc5fe41e7e7a9bc5d85ea12f0e32b2c9d142d9353",
                    "callData": "0x",
                    "decodedMethod": null,
                    "errorInfo": "",
                    "fromAddress": "0x47e312d99c09ce61a866c83cbbbbed5a4b9d33e7",
                    "gasUsed": 0,
                    "id": 11,
                    "methodDecoded": false,
                    "operation": "CALL",
                    "output": "",
                    "revert": false,
                    "revertMessage": "",
                    "selector": "fallback",
                    "status": true,
                    "value": "0.03375"
                },
                "nodeType": 0
            },
            "12": {
                "invocation": {
                    "address": "0xa7d8d9ef8d8ce8992df33d8b8cf4aebabd5bd270",
                    "callData": "0x00000000000000000000000000000000000000000000000000000000000000ae",
                    "decodedMethod": {
                        "callParams": [
                            {
                                "name": "",
                                "type": "uint256",
                                "value": "174"
                            }
                        ],
                        "constructorArguments": "",
                        "name": "projectIdToArtistAddress",
                        "returnParams": [
                            {
                                "name": "",
                                "type": "address",
                                "value": "0x439f64293716d6778c0c7ffd10e1ebdd33d63672"
                            }
                        ],
                        "signature": "projectIdToArtistAddress(uint256)"
                    },
                    "errorInfo": "",
                    "fromAddress": "0x47e312d99c09ce61a866c83cbbbbed5a4b9d33e7",
                    "gasUsed": 2601,
                    "id": 12,
                    "methodDecoded": true,
                    "operation": "STATICCALL",
                    "output": "0x000000000000000000000000439f64293716d6778c0c7ffd10e1ebdd33d63672",
                    "revert": false,
                    "revertMessage": "",
                    "selector": "0xa47d29cb",
                    "status": true,
                    "value": "0"
                },
                "nodeType": 0
            },
            "13": {
                "invocation": {
                    "address": "0x439f64293716d6778c0c7ffd10e1ebdd33d63672",
                    "callData": "0x",
                    "decodedMethod": null,
                    "errorInfo": "",
                    "fromAddress": "0x47e312d99c09ce61a866c83cbbbbed5a4b9d33e7",
                    "gasUsed": 0,
                    "id": 13,
                    "methodDecoded": false,
                    "operation": "CALL",
                    "output": "",
                    "revert": false,
                    "revertMessage": "",
                    "selector": "fallback",
                    "status": true,
                    "value": "0.10125"
                },
                "nodeType": 0
            },
            "14": {
                "invocation": {
                    "address": "0xa7d8d9ef8d8ce8992df33d8b8cf4aebabd5bd270",
                    "callData": "0x000000000000000000000000af2124c06ca7b7a5b39beb5d4af3e1bd9513066000000000000000000000000000000000000000000000000000000000000000ae000000000000000000000000af2124c06ca7b7a5b39beb5d4af3e1bd95130660",
                    "decodedMethod": {
                        "callParams": [
                            {
                                "name": "_to",
                                "type": "address",
                                "value": "0xaf2124c06ca7b7a5b39beb5d4af3e1bd95130660"
                            },
                            {
                                "name": "_projectId",
                                "type": "uint256",
                                "value": "174"
                            },
                            {
                                "name": "_by",
                                "type": "address",
                                "value": "0xaf2124c06ca7b7a5b39beb5d4af3e1bd95130660"
                            }
                        ],
                        "constructorArguments": "",
                        "name": "mint",
                        "returnParams": [
                            {
                                "name": "_tokenId",
                                "type": "uint256",
                                "value": "174,000,105"
                            }
                        ],
                        "signature": "mint(address,uint256,address)"
                    },
                    "errorInfo": "",
                    "fromAddress": "0x47e312d99c09ce61a866c83cbbbbed5a4b9d33e7",
                    "gasUsed": 270883,
                    "id": 14,
                    "methodDecoded": true,
                    "operation": "CALL",
                    "output": "0x000000000000000000000000000000000000000000000000000000000a5f07e9",
                    "revert": false,
                    "revertMessage": "",
                    "selector": "0x0d4d1513",
                    "status": true,
                    "value": "0"
                },
                "nodeType": 0
            },
            "15": {
                "invocation": {
                    "address": "0x03d37ad26961d79e52c3daea840c0095fb4729a7",
                    "callData": "0x",
                    "decodedMethod": {
                        "callParams": [],
                        "constructorArguments": "",
                        "name": "returnValue",
                        "returnParams": [
                            {
                                "name": "",
                                "type": "uint256",
                                "value": "88,458,749,965,527,799,716,720,042,543,913,873,041,794,185,775,686,881,721,084,896,592,859,973,829,622"
                            }
                        ],
                        "signature": "returnValue()"
                    },
                    "errorInfo": "",
                    "fromAddress": "0xa7d8d9ef8d8ce8992df33d8b8cf4aebabd5bd270",
                    "gasUsed": 28636,
                    "id": 15,
                    "methodDecoded": true,
                    "operation": "STATICCALL",
                    "output": "0xc391e0d28ae57fff0a2c0818801bfb76c0824aea699112ea7189f52e1d5443f6",
                    "revert": false,
                    "revertMessage": "",
                    "selector": "0x990c8f79",
                    "status": true,
                    "value": "0"
                },
                "nodeType": 0
            },
            "16": {
                "invocation": {
                    "address": "0x55e6711385795999678c378ef9608d7b64bca3f6",
                    "callData": "0x",
                    "decodedMethod": {
                        "callParams": [],
                        "constructorArguments": "",
                        "name": "returnValue",
                        "returnParams": [
                            {
                                "name": "",
                                "type": "uint256",
                                "value": "72,854,864,872,113,292,806,070,886,622,257,891,307,796,503,673,980,912,229,781,510,601,628,723,754,671"
                            }
                        ],
                        "signature": "returnValue()"
                    },
                    "errorInfo": "",
                    "fromAddress": "0x03d37ad26961d79e52c3daea840c0095fb4729a7",
                    "gasUsed": 12208,
                    "id": 16,
                    "methodDecoded": true,
                    "operation": "STATICCALL",
                    "output": "0xa1126468e953db82fca449430210812b168acc116bf1638d2866a3fd9f04b6af",
                    "revert": false,
                    "revertMessage": "",
                    "selector": "0x990c8f79",
                    "status": true,
                    "value": "0"
                },
                "nodeType": 0
            },
            "17": {
                "invocation": {
                    "address": "0xdac17f958d2ee523a2206206994597c13d831ec7",
                    "callData": "0x",
                    "decodedMethod": {
                        "callParams": [],
                        "constructorArguments": "",
                        "name": "totalSupply",
                        "returnParams": [
                            {
                                "name": "",
                                "type": "uint256",
                                "value": "33,861,598,607,967,472"
                            }
                        ],
                        "signature": "totalSupply()"
                    },
                    "errorInfo": "",
                    "fromAddress": "0x55e6711385795999678c378ef9608d7b64bca3f6",
                    "gasUsed": 4611,
                    "id": 17,
                    "methodDecoded": true,
                    "operation": "STATICCALL",
                    "output": "0x00000000000000000000000000000000000000000000000000784cf1cc8e04f0",
                    "revert": false,
                    "revertMessage": "",
                    "selector": "0x18160ddd",
                    "status": true,
                    "value": "0"
                },
                "nodeType": 0
            },
            "18": {
                "invocation": {
                    "address": "0x55e6711385795999678c378ef9608d7b64bca3f6",
                    "callData": "0x",
                    "decodedMethod": {
                        "callParams": [],
                        "constructorArguments": "",
                        "name": "returnValue",
                        "returnParams": [
                            {
                                "name": "",
                                "type": "uint256",
                                "value": "72,854,864,872,113,292,806,070,886,622,257,891,307,796,503,673,980,912,229,781,510,601,628,723,754,671"
                            }
                        ],
                        "signature": "returnValue()"
                    },
                    "errorInfo": "",
                    "fromAddress": "0x03d37ad26961d79e52c3daea840c0095fb4729a7",
                    "gasUsed": 1708,
                    "id": 18,
                    "methodDecoded": true,
                    "operation": "STATICCALL",
                    "output": "0xa1126468e953db82fca449430210812b168acc116bf1638d2866a3fd9f04b6af",
                    "revert": false,
                    "revertMessage": "",
                    "selector": "0x990c8f79",
                    "status": true,
                    "value": "0"
                },
                "nodeType": 0
            },
            "19": {
                "invocation": {
                    "address": "0xdac17f958d2ee523a2206206994597c13d831ec7",
                    "callData": "0x",
                    "decodedMethod": {
                        "callParams": [],
                        "constructorArguments": "",
                        "name": "totalSupply",
                        "returnParams": [
                            {
                                "name": "",
                                "type": "uint256",
                                "value": "33,861,598,607,967,472"
                            }
                        ],
                        "signature": "totalSupply()"
                    },
                    "errorInfo": "",
                    "fromAddress": "0x55e6711385795999678c378ef9608d7b64bca3f6",
                    "gasUsed": 611,
                    "id": 19,
                    "methodDecoded": true,
                    "operation": "STATICCALL",
                    "output": "0x00000000000000000000000000000000000000000000000000784cf1cc8e04f0",
                    "revert": false,
                    "revertMessage": "",
                    "selector": "0x18160ddd",
                    "status": true,
                    "value": "0"
                },
                "nodeType": 0
            },
            "2": {
                "invocation": {
                    "address": "0xa7d8d9ef8d8ce8992df33d8b8cf4aebabd5bd270",
                    "callData": "0x00000000000000000000000000000000000000000000000000000000000000ae",
                    "decodedMethod": {
                        "callParams": [
                            {
                                "name": "",
                                "type": "uint256",
                                "value": "174"
                            }
                        ],
                        "constructorArguments": "",
                        "name": "projectIdToPricePerTokenInWei",
                        "returnParams": [
                            {
                                "name": "",
                                "type": "uint256",
                                "value": "150,000,000,000,000,000"
                            }
                        ],
                        "signature": "projectIdToPricePerTokenInWei(uint256)"
                    },
                    "errorInfo": "",
                    "fromAddress": "0x47e312d99c09ce61a866c83cbbbbed5a4b9d33e7",
                    "gasUsed": 2538,
                    "id": 2,
                    "methodDecoded": true,
                    "operation": "STATICCALL",
                    "output": "0x0000000000000000000000000000000000000000000000000214e8348c4f0000",
                    "revert": false,
                    "revertMessage": "",
                    "selector": "0xf70c0f04",
                    "status": true,
                    "value": "0"
                },
                "nodeType": 0
            },
            "20": {
                "event": {
                    "contract": "0xa7d8d9ef8d8ce8992df33d8b8cf4aebabd5bd270",
                    "decodedLog": {
                        "name": "Transfer",
                        "params": [
                            {
                                "name": "from",
                                "type": "address",
                                "value": "0x0000000000000000000000000000000000000000"
                            },
                            {
                                "name": "to",
                                "type": "address",
                                "value": "0xaf2124c06ca7b7a5b39beb5d4af3e1bd95130660"
                            },
                            {
                                "decimalAvailable": true,
                                "name": "tokenId",
                                "type": "uint256",
                                "value": "174,000,105"
                            }
                        ],
                        "signature": "Transfer(address,address,uint256)"
                    },
                    "id": 20,
                    "logData": "0x",
                    "logDecoded": true,
                    "operation": "EVENT",
                    "revert": false,
                    "status": true,
                    "topics": [
                        "0xddf252ad1be2c89b69c2b068fc378daa952ba7f163c4a11628f55a4df523b3ef",
                        "0x0000000000000000000000000000000000000000000000000000000000000000",
                        "0x000000000000000000000000af2124c06ca7b7a5b39beb5d4af3e1bd95130660",
                        "0x000000000000000000000000000000000000000000000000000000000a5f07e9"
                    ]
                },
                "nodeType": 1
            },
            "21": {
                "event": {
                    "contract": "0xa7d8d9ef8d8ce8992df33d8b8cf4aebabd5bd270",
                    "decodedLog": {
                        "name": "Mint",
                        "params": [
                            {
                                "name": "_to",
                                "type": "address",
                                "value": "0xaf2124c06ca7b7a5b39beb5d4af3e1bd95130660"
                            },
                            {
                                "name": "_tokenId",
                                "type": "uint256",
                                "value": "174,000,105"
                            },
                            {
                                "name": "_projectId",
                                "type": "uint256",
                                "value": "174"
                            }
                        ],
                        "signature": "Mint(address,uint256,uint256)"
                    },
                    "id": 21,
                    "logData": "0x",
                    "logDecoded": true,
                    "operation": "EVENT",
                    "revert": false,
                    "status": true,
                    "topics": [
                        "0x4c209b5fc8ad50758f13e2e1088ba56a560dff690a1c6fef26394f4c03821c4f",
                        "0x000000000000000000000000af2124c06ca7b7a5b39beb5d4af3e1bd95130660",
                        "0x000000000000000000000000000000000000000000000000000000000a5f07e9",
                        "0x00000000000000000000000000000000000000000000000000000000000000ae"
                    ]
                },
                "nodeType": 1
            },
            "3": {
                "invocation": {
                    "address": "0xa7d8d9ef8d8ce8992df33d8b8cf4aebabd5bd270",
                    "callData": "0x00000000000000000000000000000000000000000000000000000000000000ae",
                    "decodedMethod": {
                        "callParams": [
                            {
                                "name": "",
                                "type": "uint256",
                                "value": "174"
                            }
                        ],
                        "constructorArguments": "",
                        "name": "projectIdToPricePerTokenInWei",
                        "returnParams": [
                            {
                                "name": "",
                                "type": "uint256",
                                "value": "150,000,000,000,000,000"
                            }
                        ],
                        "signature": "projectIdToPricePerTokenInWei(uint256)"
                    },
                    "errorInfo": "",
                    "fromAddress": "0x47e312d99c09ce61a866c83cbbbbed5a4b9d33e7",
                    "gasUsed": 538,
                    "id": 3,
                    "methodDecoded": true,
                    "operation": "STATICCALL",
                    "output": "0x0000000000000000000000000000000000000000000000000214e8348c4f0000",
                    "revert": false,
                    "revertMessage": "",
                    "selector": "0xf70c0f04",
                    "status": true,
                    "value": "0"
                },
                "nodeType": 0
            },
            "4": {
                "invocation": {
                    "address": "0xa7d8d9ef8d8ce8992df33d8b8cf4aebabd5bd270",
                    "callData": "0x00000000000000000000000000000000000000000000000000000000000000ae",
                    "decodedMethod": {
                        "callParams": [
                            {
                                "name": "",
                                "type": "uint256",
                                "value": "174"
                            }
                        ],
                        "constructorArguments": "",
                        "name": "projectIdToPricePerTokenInWei",
                        "returnParams": [
                            {
                                "name": "",
                                "type": "uint256",
                                "value": "150,000,000,000,000,000"
                            }
                        ],
                        "signature": "projectIdToPricePerTokenInWei(uint256)"
                    },
                    "errorInfo": "",
                    "fromAddress": "0x47e312d99c09ce61a866c83cbbbbed5a4b9d33e7",
                    "gasUsed": 538,
                    "id": 4,
                    "methodDecoded": true,
                    "operation": "STATICCALL",
                    "output": "0x0000000000000000000000000000000000000000000000000214e8348c4f0000",
                    "revert": false,
                    "revertMessage": "",
                    "selector": "0xf70c0f04",
                    "status": true,
                    "value": "0"
                },
                "nodeType": 0
            },
            "5": {
                "invocation": {
                    "address": "0xa7d8d9ef8d8ce8992df33d8b8cf4aebabd5bd270",
                    "callData": "0x",
                    "decodedMethod": {
                        "callParams": [],
                        "constructorArguments": "",
                        "name": "artblocksPercentage",
                        "returnParams": [
                            {
                                "name": "",
                                "type": "uint256",
                                "value": "10"
                            }
                        ],
                        "signature": "artblocksPercentage()"
                    },
                    "errorInfo": "",
                    "fromAddress": "0x47e312d99c09ce61a866c83cbbbbed5a4b9d33e7",
                    "gasUsed": 2366,
                    "id": 5,
                    "methodDecoded": true,
                    "operation": "STATICCALL",
                    "output": "0x000000000000000000000000000000000000000000000000000000000000000a",
                    "revert": false,
                    "revertMessage": "",
                    "selector": "0x4f029c39",
                    "status": true,
                    "value": "0"
                },
                "nodeType": 0
            },
            "6": {
                "invocation": {
                    "address": "0xa7d8d9ef8d8ce8992df33d8b8cf4aebabd5bd270",
                    "callData": "0x",
                    "decodedMethod": {
                        "callParams": [],
                        "constructorArguments": "",
                        "name": "artblocksAddress",
                        "returnParams": [
                            {
                                "name": "",
                                "type": "address",
                                "value": "0xf7a55108a6e830a809e88e74cbf5f5de9d930153"
                            }
                        ],
                        "signature": "artblocksAddress()"
                    },
                    "errorInfo": "",
                    "fromAddress": "0x47e312d99c09ce61a866c83cbbbbed5a4b9d33e7",
                    "gasUsed": 2428,
                    "id": 6,
                    "methodDecoded": true,
                    "operation": "STATICCALL",
                    "output": "0x000000000000000000000000f7a55108a6e830a809e88e74cbf5f5de9d930153",
                    "revert": false,
                    "revertMessage": "",
                    "selector": "0x3949f906",
                    "status": true,
                    "value": "0"
                },
                "nodeType": 0
            },
            "7": {
                "invocation": {
                    "address": "0xf7a55108a6e830a809e88e74cbf5f5de9d930153",
                    "callData": "0x",
                    "decodedMethod": null,
                    "errorInfo": "",
                    "fromAddress": "0x47e312d99c09ce61a866c83cbbbbed5a4b9d33e7",
                    "gasUsed": 0,
                    "id": 7,
                    "methodDecoded": false,
                    "operation": "CALL",
                    "output": "",
                    "revert": false,
                    "revertMessage": "",
                    "selector": "fallback",
                    "status": true,
                    "value": "0.015"
                },
                "nodeType": 0
            },
            "8": {
                "invocation": {
                    "address": "0xa7d8d9ef8d8ce8992df33d8b8cf4aebabd5bd270",
                    "callData": "0x00000000000000000000000000000000000000000000000000000000000000ae",
                    "decodedMethod": {
                        "callParams": [
                            {
                                "name": "",
                                "type": "uint256",
                                "value": "174"
                            }
                        ],
                        "constructorArguments": "",
                        "name": "projectIdToAdditionalPayeePercentage",
                        "returnParams": [
                            {
                                "name": "",
                                "type": "uint256",
                                "value": "25"
                            }
                        ],
                        "signature": "projectIdToAdditionalPayeePercentage(uint256)"
                    },
                    "errorInfo": "",
                    "fromAddress": "0x47e312d99c09ce61a866c83cbbbbed5a4b9d33e7",
                    "gasUsed": 2473,
                    "id": 8,
                    "methodDecoded": true,
                    "operation": "STATICCALL",
                    "output": "0x0000000000000000000000000000000000000000000000000000000000000019",
                    "revert": false,
                    "revertMessage": "",
                    "selector": "0xcc74234b",
                    "status": true,
                    "value": "0"
                },
                "nodeType": 0
            },
            "9": {
                "invocation": {
                    "address": "0xa7d8d9ef8d8ce8992df33d8b8cf4aebabd5bd270",
                    "callData": "0x00000000000000000000000000000000000000000000000000000000000000ae",
                    "decodedMethod": {
                        "callParams": [
                            {
                                "name": "",
                                "type": "uint256",
                                "value": "174"
                            }
                        ],
                        "constructorArguments": "",
                        "name": "projectIdToAdditionalPayeePercentage",
                        "returnParams": [
                            {
                                "name": "",
                                "type": "uint256",
                                "value": "25"
                            }
                        ],
                        "signature": "projectIdToAdditionalPayeePercentage(uint256)"
                    },
                    "errorInfo": "",
                    "fromAddress": "0x47e312d99c09ce61a866c83cbbbbed5a4b9d33e7",
                    "gasUsed": 473,
                    "id": 9,
                    "methodDecoded": true,
                    "operation": "STATICCALL",
                    "output": "0x0000000000000000000000000000000000000000000000000000000000000019",
                    "revert": false,
                    "revertMessage": "",
                    "selector": "0xcc74234b",
                    "status": true,
                    "value": "0"
                },
                "nodeType": 0
            }
        },
        "gasFlame": [
            {
                "children": [
                    {
                        "children": [
                            {
                                "children": [],
                                "depth": 0,
                                "name": "Initial Gas",
                                "value": 21204
                            },
                            {
                                "children": [
                                    {
                                        "children": [],
                                        "depth": 1,
                                        "name": "projectIdToCurrencySymbol",
                                        "value": 3202
                                    },
                                    {
                                        "children": [],
                                        "depth": 1,
                                        "name": "projectIdToPricePerTokenInWei",
                                        "value": 2538
                                    },
                                    {
                                        "children": [],
                                        "depth": 1,
                                        "name": "projectIdToPricePerTokenInWei",
                                        "value": 538
                                    },
                                    {
                                        "children": [],
                                        "depth": 1,
                                        "name": "projectIdToPricePerTokenInWei",
                                        "value": 538
                                    },
                                    {
                                        "children": [],
                                        "depth": 1,
                                        "name": "artblocksPercentage",
                                        "value": 2366
                                    },
                                    {
                                        "children": [],
                                        "depth": 1,
                                        "name": "artblocksAddress",
                                        "value": 2428
                                    },
                                    {
                                        "children": [],
                                        "depth": 1,
                                        "name": "fallback",
                                        "value": 0
                                    },
                                    {
                                        "children": [],
                                        "depth": 1,
                                        "name": "projectIdToAdditionalPayeePercentage",
                                        "value": 2473
                                    },
                                    {
                                        "children": [],
                                        "depth": 1,
                                        "name": "projectIdToAdditionalPayeePercentage",
                                        "value": 473
                                    },
                                    {
                                        "children": [],
                                        "depth": 1,
                                        "name": "projectIdToAdditionalPayee",
                                        "value": 2578
                                    },
                                    {
                                        "children": [],
                                        "depth": 1,
                                        "name": "fallback",
                                        "value": 0
                                    },
                                    {
                                        "children": [],
                                        "depth": 1,
                                        "name": "projectIdToArtistAddress",
                                        "value": 2601
                                    },
                                    {
                                        "children": [],
                                        "depth": 1,
                                        "name": "fallback",
                                        "value": 0
                                    },
                                    {
                                        "children": [
                                            {
                                                "children": [
                                                    {
                                                        "children": [
                                                            {
                                                                "children": [],
                                                                "depth": 4,
                                                                "name": "totalSupply",
                                                                "value": 4611
                                                            }
                                                        ],
                                                        "depth": 3,
                                                        "name": "returnValue",
                                                        "value": 12208
                                                    },
                                                    {
                                                        "children": [
                                                            {
                                                                "children": [],
                                                                "depth": 4,
                                                                "name": "totalSupply",
                                                                "value": 611
                                                            }
                                                        ],
                                                        "depth": 3,
                                                        "name": "returnValue",
                                                        "value": 1708
                                                    }
                                                ],
                                                "depth": 2,
                                                "name": "returnValue",
                                                "value": 28636
                                            }
                                        ],
                                        "depth": 1,
                                        "name": "mint",
                                        "value": 270883
                                    }
                                ],
                                "depth": 0,
                                "name": "Executed Gas",
                                "value": 342541
                            }
                        ],
                        "depth": -1,
                        "name": "Actual Gas Used",
                        "value": 363745
                    },
                    {
                        "children": [],
                        "depth": -1,
                        "name": "Refunded Gas",
                        "value": 0
                    }
                ],
                "depth": -2,
                "name": "Total Gas",
                "value": 363745
            }
        ],
        "isConfirmed": true,
        "mainTrace": [
            {
                "children": [
                    {
                        "children": [
                            {
                                "children": [],
                                "depth": 1,
                                "id": 1,
                                "order": 1
                            },
                            {
                                "children": [],
                                "depth": 1,
                                "id": 2,
                                "order": 2
                            },
                            {
                                "children": [],
                                "depth": 1,
                                "id": 3,
                                "order": 3
                            },
                            {
                                "children": [],
                                "depth": 1,
                                "id": 4,
                                "order": 4
                            },
                            {
                                "children": [],
                                "depth": 1,
                                "id": 5,
                                "order": 5
                            },
                            {
                                "children": [],
                                "depth": 1,
                                "id": 6,
                                "order": 6
                            },
                            {
                                "children": [],
                                "depth": 1,
                                "id": 7,
                                "order": 7
                            },
                            {
                                "children": [],
                                "depth": 1,
                                "id": 8,
                                "order": 8
                            },
                            {
                                "children": [],
                                "depth": 1,
                                "id": 9,
                                "order": 9
                            },
                            {
                                "children": [],
                                "depth": 1,
                                "id": 10,
                                "order": 10
                            },
                            {
                                "children": [],
                                "depth": 1,
                                "id": 11,
                                "order": 11
                            },
                            {
                                "children": [],
                                "depth": 1,
                                "id": 12,
                                "order": 12
                            },
                            {
                                "children": [],
                                "depth": 1,
                                "id": 13,
                                "order": 13
                            },
                            {
                                "children": [
                                    {
                                        "children": [
                                            {
                                                "children": [
                                                    {
                                                        "children": [],
                                                        "depth": 4,
                                                        "id": 17,
                                                        "order": 17
                                                    }
                                                ],
                                                "depth": 3,
                                                "id": 16,
                                                "order": 16
                                            },
                                            {
                                                "children": [
                                                    {
                                                        "children": [],
                                                        "depth": 4,
                                                        "id": 19,
                                                        "order": 19
                                                    }
                                                ],
                                                "depth": 3,
                                                "id": 18,
                                                "order": 18
                                            }
                                        ],
                                        "depth": 2,
                                        "id": 15,
                                        "order": 15
                                    },
                                    {
                                        "children": [],
                                        "depth": 2,
                                        "id": 20,
                                        "order": 20
                                    },
                                    {
                                        "children": [],
                                        "depth": 2,
                                        "id": 21,
                                        "order": 21
                                    }
                                ],
                                "depth": 1,
                                "id": 14,
                                "order": 14
                            }
                        ],
                        "depth": 0,
                        "id": 0,
                        "order": 0
                    }
                ],
                "depth": -1,
                "id": -1,
                "order": -1
            }
        ],
        "mainTraceNodeCount": 22,
        "parentIdMap": {
            "0": -1,
            "1": 0,
            "10": 0,
            "11": 0,
            "12": 0,
            "13": 0,
            "14": 0,
            "15": 14,
            "16": 15,
            "17": 16,
            "18": 15,
            "19": 18,
            "2": 0,
            "20": 14,
            "21": 14,
            "3": 0,
            "4": 0,
            "5": 0,
            "6": 0,
            "7": 0,
            "8": 0,
            "9": 0
        },
        "tidyTrace": [
            {
                "children": [
                    {
                        "children": [
                            {
                                "children": [],
                                "depth": 1,
                                "id": 7,
                                "order": 7
                            },
                            {
                                "children": [],
                                "depth": 1,
                                "id": 11,
                                "order": 11
                            },
                            {
                                "children": [],
                                "depth": 1,
                                "id": 13,
                                "order": 13
                            },
                            {
                                "children": [
                                    {
                                        "children": [],
                                        "depth": 2,
                                        "id": 20,
                                        "order": 20
                                    },
                                    {
                                        "children": [],
                                        "depth": 2,
                                        "id": 21,
                                        "order": 21
                                    }
                                ],
                                "depth": 1,
                                "id": 14,
                                "order": 14
                            }
                        ],
                        "depth": 0,
                        "id": 0,
                        "order": 0
                    }
                ],
                "depth": -1,
                "id": -1,
                "order": -1
            }
        ],
        "tidyTraceNodeCount": 7
    },
    "state_change": {
        "stateChanges": [
            {
                "address": "0xa7d8d9ef8d8ce8992df33d8b8cf4aebabd5bd270",
                "erc": "ERC-721",
                "slots": [
                    {
                        "current": "0x000000000000000000000000000000000000000000000000000000000000006a",
                        "key": "0xbc33bbc2e02a3707a50f5c831767b3171c761eaeb39b9c2d219bf9670a9289ed",
                        "prev": "0x0000000000000000000000000000000000000000000000000000000000000069"
                    },
                    {
                        "current": "0x000000000000000000000000000000000000000000000000000000000000006a",
                        "key": "0x7bfac881a0e78477f0922db045b5b723fcbf368b8de6303cc90523ad505c9024",
                        "prev": "0x0000000000000000000000000000000000000000000000000000000000000069"
                    },
                    {
                        "current": "0x000000000000000000000000000000000000000000000000000000000001b544",
                        "key": "0x0000000000000000000000000000000000000000000000000000000000000007",
                        "prev": "0x000000000000000000000000000000000000000000000000000000000001b543"
                    },
                    {
                        "current": "0x000000000000000000000000000000000000000000000000000000000a5f07e9",
                        "key": "0xa66cc928b5edb82af9bd49922954155ab7b0942694bea4ce44661d9a87387bcb",
                        "prev": "0x0000000000000000000000000000000000000000000000000000000000000000"
                    },
                    {
                        "current": "0x0000000000000000000000000000000000000000000000000000000000000009",
                        "key": "0xc85b3a304a2d1f601a6d509a8256cc7c726e52bd263339c14b608dd800566479",
                        "prev": "0x0000000000000000000000000000000000000000000000000000000000000008"
                    },
                    {
                        "current": "0x000000000000000000000000000000000000000000000000000000000a5f07e9",
                        "key": "0x9b883e007cb956a3ea03d3834379bb85cc24e225489cc88fdbd935a229d25ee2",
                        "prev": "0x0000000000000000000000000000000000000000000000000000000000000000"
                    },
                    {
                        "current": "0x000000000000000000000000000000000000000000000000000000000a5f07e9",
                        "key": "0x3126ecdc26a58627a89692f8ede103c1198300f227a641cd7c64a3153e203f3e",
                        "prev": "0x0000000000000000000000000000000000000000000000000000000000000000"
                    },
                    {
                        "current": "0x00000000000000000000000000000000000000000000000000000000000000ae",
                        "key": "0x223e518f90c64b200386bd1f5e8c457c610de0d8d50790cd20cdb71eec41e15d",
                        "prev": "0x0000000000000000000000000000000000000000000000000000000000000000"
                    },
                    {
                        "current": "0x000000000000000000000000af2124c06ca7b7a5b39beb5d4af3e1bd95130660",
                        "key": "0xc9fd3d1bea5c621fea82eb3aa366c684e46ab4a8f6fcafee412e4847373d0176",
                        "prev": "0x0000000000000000000000000000000000000000000000000000000000000000"
                    },
                    {
                        "current": "0x000000000000000000000000000000000000000000000000000000000a5f07e9",
                        "key": "0xdbfc29a9bd97cfa3e20017cc06cc980b6d3bc3013c6eeb3986e9b75a0209b80e",
                        "prev": "0x0000000000000000000000000000000000000000000000000000000000000000"
                    },
                    {
                        "current": "0x0000000000000000000000000000000000000000000000000000000000000009",
                        "key": "0x3f530f7f89093571d11cc77f70791d459dd365a2f629b974aaa4c949c6bdd4f8",
                        "prev": "0x0000000000000000000000000000000000000000000000000000000000000008"
                    },
                    {
                        "current": "0x000000000000000000000000000000000000000000000000000000000001b543",
                        "key": "0x49a8d569deae240efcec9fdb525672f33682e6e185add9f48f8000a2f98ff8d7",
                        "prev": "0x0000000000000000000000000000000000000000000000000000000000000000"
                    },
                    {
                        "current": "0x7fac00ded73a9018230714ed96030a893516532b8dea731195ed54cceb1a0bea",
                        "key": "0xad814ad26c50a044129f1ee774d8e30d2ac7326cc7324bc6c4df589b940d5469",
                        "prev": "0x0000000000000000000000000000000000000000000000000000000000000000"
                    },
                    {
                        "current": "0x0000000000000000000000000000000000000000000000000000000000000008",
                        "key": "0x451fa3d232b1fd2dc5e86b24d0a2cdc9335dd418d0ff348c53f3ee6e744aa70e",
                        "prev": "0x0000000000000000000000000000000000000000000000000000000000000000"
                    }
                ],
                "storageVariables": [
                    {
                        "name": "projects",
                        "type": "mapping(uint256 => struct GenArt721Core.Project)",
                        "value": {
                            "pairs": [
                                {
                                    "key": "174",
                                    "value": {
                                        "fields": [
                                            {
                                                "name": "description",
                                                "type": "string",
                                                "value": {
                                                    "current": "Letters to My Future Self is a series looking at communication through time. There is so much I want to tell my future self that words can't express: from the fear and anger I've felt in lockdown isolation to the joy in finding new friends and community. Each piece in this series becomes a small part of a much bigger story -- letters sent into the future expressing our collective hopes, fears, sadness, and love. A moment in time captured in perpetuity on the blockchain for future generations to find and reflect on. 25% of proceeds will support future artists through art education grants via Donors Choose. Drop Mechanic: Dutch Auction with a start price of 6 eth decreasing in price every 5 minutes to a resting price of 0.15 eth. Pricing Tiers: 6 > 5 > 4 > 3.5 > 3 > 2.5 > 2 > 1.75 > 1.5 > 1.25 > 1 > 0.75 > 0.5 > 0.25 > 0.15 ETH",
                                                    "prev": "Letters to My Future Self is a series looking at communication through time. There is so much I want to tell my future self that words can't express: from the fear and anger I've felt in lockdown isolation to the joy in finding new friends and community. Each piece in this series becomes a small part of a much bigger story -- letters sent into the future expressing our collective hopes, fears, sadness, and love. A moment in time captured in perpetuity on the blockchain for future generations to find and reflect on. 25% of proceeds will support future artists through art education grants via Donors Choose. Drop Mechanic: Dutch Auction with a start price of 6 eth decreasing in price every 5 minutes to a resting price of 0.15 eth. Pricing Tiers: 6 > 5 > 4 > 3.5 > 3 > 2.5 > 2 > 1.75 > 1.5 > 1.25 > 1 > 0.75 > 0.5 > 0.25 > 0.15 ETH",
                                                    "typeTag": 1
                                                }
                                            },
                                            {
                                                "name": "website",
                                                "type": "string",
                                                "value": {
                                                    "current": "https://www.instagram.com/rwstruhl/",
                                                    "prev": "https://www.instagram.com/rwstruhl/",
                                                    "typeTag": 1
                                                }
                                            },
                                            {
                                                "name": "invocations",
                                                "type": "uint256",
                                                "value": {
                                                    "current": "106",
                                                    "prev": "105",
                                                    "typeTag": 1
                                                }
                                            },
                                            {
                                                "name": "scriptJSON",
                                                "type": "string",
                                                "value": {
                                                    "current": "{\"aspectRatio\":1,\"curationStatus\":\"factory\",\"type\":\"js\",\"license\":\"NFT License 2.0\"}",
                                                    "prev": "{\"aspectRatio\":1,\"curationStatus\":\"factory\",\"type\":\"js\",\"license\":\"NFT License 2.0\"}",
                                                    "typeTag": 1
                                                }
                                            }
                                        ],
                                        "typeTag": 3
                                    }
                                }
                            ],
                            "typeTag": 4
                        }
                    },
                    {
                        "name": "tokenIdToHash",
                        "type": "mapping(uint256 => bytes32)",
                        "value": {
                            "pairs": [
                                {
                                    "key": "174000105",
                                    "value": {
                                        "current": "0x7fac00ded73a9018230714ed96030a893516532b8dea731195ed54cceb1a0bea",
                                        "prev": "0x0000000000000000000000000000000000000000000000000000000000000000",
                                        "typeTag": 1
                                    }
                                }
                            ],
                            "typeTag": 4
                        }
                    },
                    {
                        "name": "tokenIdToProjectId",
                        "type": "mapping(uint256 => uint256)",
                        "value": {
                            "pairs": [
                                {
                                    "key": "174000105",
                                    "value": {
                                        "current": "174",
                                        "prev": "0",
                                        "typeTag": 1
                                    }
                                }
                            ],
                            "typeTag": 4
                        }
                    },
                    {
                        "name": "_allTokens",
                        "type": "uint256[]",
                        "value": {
                            "elemType": "uint256",
                            "elems": [
                                {
                                    "index": 111939,
                                    "value": {
                                        "current": "174000105",
                                        "prev": "0",
                                        "typeTag": 1
                                    }
                                }
                            ],
                            "typeTag": 2
                        }
                    },
                    {
                        "name": "_ownedTokensCount",
                        "type": "mapping(address => struct Counters.Counter)",
                        "value": {
                            "pairs": [
                                {
                                    "key": "0xaf2124c06ca7b7a5b39beb5d4af3e1bd95130660",
                                    "value": {
                                        "fields": [
                                            {
                                                "name": "_value",
                                                "type": "uint256",
                                                "value": {
                                                    "current": "9",
                                                    "prev": "8",
                                                    "typeTag": 1
                                                }
                                            }
                                        ],
                                        "typeTag": 3
                                    }
                                }
                            ],
                            "typeTag": 4
                        }
                    },
                    {
                        "name": "hashToTokenId",
                        "type": "mapping(bytes32 => uint256)",
                        "value": {
                            "pairs": [
                                {
                                    "key": "0x7fac00ded73a9018230714ed96030a893516532b8dea731195ed54cceb1a0bea",
                                    "value": {
                                        "current": "174000105",
                                        "prev": "0",
                                        "typeTag": 1
                                    }
                                }
                            ],
                            "typeTag": 4
                        }
                    },
                    {
                        "name": "_ownedTokensIndex",
                        "type": "mapping(uint256 => uint256)",
                        "value": {
                            "pairs": [
                                {
                                    "key": "174000105",
                                    "value": {
                                        "current": "8",
                                        "prev": "0",
                                        "typeTag": 1
                                    }
                                }
                            ],
                            "typeTag": 4
                        }
                    },
                    {
                        "name": "projectIdToTokenIds",
                        "type": "mapping(uint256 => uint256[])",
                        "value": {
                            "pairs": [
                                {
                                    "key": "174",
                                    "value": {
                                        "elemType": "uint256",
                                        "elems": [
                                            {
                                                "index": 105,
                                                "value": {
                                                    "current": "174000105",
                                                    "prev": "0",
                                                    "typeTag": 1
                                                }
                                            }
                                        ],
                                        "typeTag": 2
                                    }
                                }
                            ],
                            "typeTag": 4
                        }
                    },
                    {
                        "name": "_ownedTokens",
                        "type": "mapping(address => uint256[])",
                        "value": {
                            "pairs": [
                                {
                                    "key": "0xaf2124c06ca7b7a5b39beb5d4af3e1bd95130660",
                                    "value": {
                                        "elemType": "uint256",
                                        "elems": [
                                            {
                                                "index": 8,
                                                "value": {
                                                    "current": "174000105",
                                                    "prev": "0",
                                                    "typeTag": 1
                                                }
                                            }
                                        ],
                                        "typeTag": 2
                                    }
                                }
                            ],
                            "typeTag": 4
                        }
                    },
                    {
                        "name": "_allTokensIndex",
                        "type": "mapping(uint256 => uint256)",
                        "value": {
                            "pairs": [
                                {
                                    "key": "174000105",
                                    "value": {
                                        "current": "111939",
                                        "prev": "0",
                                        "typeTag": 1
                                    }
                                }
                            ],
                            "typeTag": 4
                        }
                    },
                    {
                        "name": "_tokenOwner",
                        "type": "mapping(uint256 => address)",
                        "value": {
                            "pairs": [
                                {
                                    "key": "174000105",
                                    "value": {
                                        "current": "0xaf2124c06ca7b7a5b39beb5d4af3e1bd95130660",
                                        "prev": "0x0000000000000000000000000000000000000000",
                                        "typeTag": 1
                                    }
                                }
                            ],
                            "typeTag": 4
                        }
                    }
                ]
            }
        ]
    }
}