{
    "balance_change": {
        "balanceChanges": []
    },
    "profile": {
        "basic_info": {
            "baseFee": "6.131677715",
            "blockNumber": 18403931,
            "callData": "0x5578ceae000000000000000000000000000000000000000000000000000000000040462400000000000000000000000000000000000000000000000000000000000000a003babf44a240abc917ef3a9fa30d694596640a2e7e8eb6d580b7c16a03f49c230258ed6bf54e900a1197436f2262e372f473ccc8ce57423f786d4cd53079d36908000000000000110000000000000000000000000000000000000000000000010000000000000000000000000000000000000000000000000000000000000007036f74985e15ed5e822f8c4767b9b909a599bb6c5c5ed2d781c5dcc04d2109de073ae2d28ad6f19a1c792022b5aab8867035bdc177ed8ae8511e464bbd3fb8660000000000000000000000000000000000000000000000000000000000053ab304ba99468dbe4f09e6c82dcdd8200c0f02c9260a919431b7724f0dda9a99f550017c0bc29d31e9a7d14671610a7626264ce9ce8e3ed066a4775adf9b123de9dd00000000000000000000000000000000000000000000000000000000000000000000000000000000000000000000000000000000000000000000000000000000",
            "debugEnable": true,
            "errorInfo": "",
            "eventCount": 1,
            "feeRecipient": "0x1f9090aae28b8a3dceadf281b0f12828e676c326",
            "formatValue": "0",
            "gasLimit": 11000000,
            "gasPrice": "7.131677715",
            "gasUsed": 53493,
            "intTxnCount": 0,
            "internalRevert": false,
            "internalRevertMessage": "",
            "isContractCreation": false,
            "isFlashloan": false,
            "maxFee": "150",
            "nonce": 729615,
            "overwritedBlockNumber": -1,
            "priorityFee": "1",
            "receiver": "0xfd14567eaf9ba941cb8c8a94eec14831ca7fd1b4",
            "revertMessage": "",
            "sender": "0x16d5783a96ab20c9157d7933ac236646b29589a4",
            "simulationEnable": true,
            "sourceTxnHash": "0xf76c511e3c477fc603747604a0a4fe6fd50649261dcd093cb30101bb2cfbdbd0",
            "status": true,
            "timestamp": "2023-10-22T06:03:35Z",
            "transactionFee": "0.000381494836008495",
            "txnHash": "0xf76c511e3c477fc603747604a0a4fe6fd50649261dcd093cb30101bb2cfbdbd0",
            "txnIndex": 35,
            "type": 2,
            "value": "0"
        },
        "fund_flow": [],
        "token_infos": [
            {
                "address": "0xc02aaa39b223fe8d0a0e5c4f27ead9083c756cc2",
                "decimals": 18
            },
            {
                "address": "0xeeeeeeeeeeeeeeeeeeeeeeeeeeeeeeeeeeeeeeee",
                "decimals": 18
            }
        ]
    },
    "address_label": {
        "labels": [
            {
                "address": "0xfd14567eaf9ba941cb8c8a94eec14831ca7fd1b4",
                "label": "StarkEx: SHARP"
            },
            {
                "address": "0x0000000000000000000000000000000000000001",
                "label": "Precompiled"
            },
            {
                "address": "0x0000000000000000000000000000000000000002",
                "label": "Precompiled"
            },
            {
                "address": "0x0000000000000000000000000000000000000003",
                "label": "Precompiled"
            },
            {
                "address": "0x0000000000000000000000000000000000000004",
                "label": "Precompiled"
            },
            {
                "address": "0xeeeeeeeeeeeeeeeeeeeeeeeeeeeeeeeeeeeeeeee",
                "label": "Ether"
            },
            {
                "address": "0x16d5783a96ab20c9157d7933ac236646b29589a4",
                "label": "SHARP Blockchain Writer"
            }
        ]
    },
    "trace": {
        "accountLabels": null,
        "dataMap": {
            "-1": {
                "invocation": {
                    "address": "0x16d5783a96ab20c9157d7933ac236646b29589a4",
                    "callData": "",
                    "decodedMethod": null,
                    "errorInfo": "",
                    "fromAddress": "",
                    "gasUsed": 0,
                    "id": -1,
                    "methodDecoded": false,
                    "operation": "",
                    "output": "",
                    "revert": false,
                    "revertMessage": "",
                    "selector": "",
                    "status": false,
                    "value": ""
                },
                "nodeType": 0
            },
            "0": {
                "invocation": {
                    "address": "0xfd14567eaf9ba941cb8c8a94eec14831ca7fd1b4",
                    "callData": "0x000000000000000000000000000000000000000000000000000000000040462400000000000000000000000000000000000000000000000000000000000000a003babf44a240abc917ef3a9fa30d694596640a2e7e8eb6d580b7c16a03f49c230258ed6bf54e900a1197436f2262e372f473ccc8ce57423f786d4cd53079d36908000000000000110000000000000000000000000000000000000000000000010000000000000000000000000000000000000000000000000000000000000007036f74985e15ed5e822f8c4767b9b909a599bb6c5c5ed2d781c5dcc04d2109de073ae2d28ad6f19a1c792022b5aab8867035bdc177ed8ae8511e464bbd3fb8660000000000000000000000000000000000000000000000000000000000053ab304ba99468dbe4f09e6c82dcdd8200c0f02c9260a919431b7724f0dda9a99f550017c0bc29d31e9a7d14671610a7626264ce9ce8e3ed066a4775adf9b123de9dd00000000000000000000000000000000000000000000000000000000000000000000000000000000000000000000000000000000000000000000000000000000",
                    "decodedMethod": {
                        "callParams": [
                            {
                                "name": "startAddr",
                                "type": "uint256",
                                "value": "4,212,260"
                            },
                            {
                                "name": "values",
                                "type": "uint256[]",
                                "value": [
                                    "1,553,863,280,336,696,691,326,819,027,818,054,543,675,870,661,747,022,433,014,407,640,188,824,127,966",
                                    "3,270,232,540,724,704,762,297,486,988,230,983,758,998,449,887,983,842,893,270,314,270,760,646,981,734",
                                    "342,707",
                                    "2,138,942,817,696,492,297,597,542,732,345,462,504,640,616,773,455,977,559,550,594,353,417,772,725,584",
                                    "671,483,050,609,816,861,429,812,414,688,707,376,174,032,882,875,357,307,847,551,691,140,236,175,837",
                                    "0",
                                    "0"
                                ]
                            },
                            {
                                "name": "z",
                                "type": "uint256",
                                "value": "1,686,892,183,714,384,386,262,664,478,098,883,606,841,685,179,936,056,329,809,933,492,633,518,513,187"
                            },
                            {
                                "name": "alpha",
                                "type": "uint256",
                                "value": "1,061,746,863,299,343,606,431,050,418,115,669,249,882,318,966,345,073,409,217,007,273,933,226,496,873"
                            },
                            {
                                "name": "prime",
                                "type": "uint256",
                                "value": "3,618,502,788,666,131,213,697,322,783,095,070,105,623,107,215,331,596,699,973,092,056,135,872,020,481"
                            }
                        ],
                        "constructorArguments": "",
                        "name": "registerContinuousMemoryPage",
                        "returnParams": [
                            {
                                "name": "factHash",
                                "type": "bytes32",
                                "value": "0x17e99728f6ee217f39786cce23758d6c7c4e9947df3cf1797901799fe841db65"
                            },
                            {
                                "name": "memoryHash",
                                "type": "uint256",
                                "value": "26,149,533,995,022,195,294,788,747,902,125,191,464,298,187,359,942,213,091,344,854,208,187,914,549,525"
                            },
                            {
                                "name": "prod",
                                "type": "uint256",
                                "value": "549,160,554,682,526,844,370,671,328,192,269,443,318,087,781,528,408,646,133,812,384,507,825,939,217"
                            }
                        ],
                        "signature": "registerContinuousMemoryPage(uint256,uint256[],uint256,uint256,uint256)"
                    },
                    "errorInfo": "",
                    "fromAddress": "0x16d5783a96ab20c9157d7933ac236646b29589a4",
                    "gasUsed": 53493,
                    "id": 0,
                    "methodDecoded": true,
                    "operation": "CALL",
                    "output": "0x17e99728f6ee217f39786cce23758d6c7c4e9947df3cf1797901799fe841db6539d01c9b51c839c30c291780b3f566820b8bc8745ff80eea392bbad3ab2079150136d059124976597912b374e2b49da8038a61acb601bc9f29194dcff0b2e311",
                    "revert": false,
                    "revertMessage": "",
                    "selector": "0x5578ceae",
                    "status": true,
                    "value": "0"
                },
                "nodeType": 0
            },
            "1": {
                "event": {
                    "contract": "0xfd14567eaf9ba941cb8c8a94eec14831ca7fd1b4",
                    "decodedLog": {
                        "name": "LogMemoryPageFactContinuous",
                        "params": [
                            {
                                "name": "factHash",
                                "type": "bytes32",
                                "value": "0x17e99728f6ee217f39786cce23758d6c7c4e9947df3cf1797901799fe841db65"
                            },
                            {
                                "name": "memoryHash",
                                "type": "uint256",
                                "value": "26,149,533,995,022,195,294,788,747,902,125,191,464,298,187,359,942,213,091,344,854,208,187,914,549,525"
                            },
                            {
                                "name": "prod",
                                "type": "uint256",
                                "value": "549,160,554,682,526,844,370,671,328,192,269,443,318,087,781,528,408,646,133,812,384,507,825,939,217"
                            }
                        ],
                        "signature": "LogMemoryPageFactContinuous(bytes32,uint256,uint256)"
                    },
                    "id": 1,
                    "logData": "0x17e99728f6ee217f39786cce23758d6c7c4e9947df3cf1797901799fe841db6539d01c9b51c839c30c291780b3f566820b8bc8745ff80eea392bbad3ab2079150136d059124976597912b374e2b49da8038a61acb601bc9f29194dcff0b2e311",
                    "logDecoded": true,
                    "operation": "EVENT",
                    "revert": false,
                    "status": true,
                    "topics": [
                        "0xb8b9c39aeba1cfd98c38dfeebe11c2f7e02b334cbe9f05f22b442a5d9c1ea0c5"
                    ]
                },
                "nodeType": 1
            }
        },
        "gasFlame": [
            {
                "children": [
                    {
                        "children": [
                            {
                                "children": [],
                                "depth": 0,
                                "name": "Initial Gas",
                                "value": 25164
                            },
                            {
                                "children": [],
                                "depth": 0,
                                "name": "Executed Gas",
                                "value": 28329
                            }
                        ],
                        "depth": -1,
                        "name": "Actual Gas Used",
                        "value": 53493
                    },
                    {
                        "children": [],
                        "depth": -1,
                        "name": "Refunded Gas",
                        "value": 0
                    }
                ],
                "depth": -2,
                "name": "Total Gas",
                "value": 53493
            }
        ],
        "isConfirmed": true,
        "mainTrace": [
            {
                "children": [
                    {
                        "children": [
                            {
                                "children": [],
                                "depth": 1,
                                "id": 1,
                                "order": 1
                            }
                        ],
                        "depth": 0,
                        "id": 0,
                        "order": 0
                    }
                ],
                "depth": -1,
                "id": -1,
                "order": -1
            }
        ],
        "mainTraceNodeCount": 2,
        "parentIdMap": {
            "0": -1,
            "1": 0
        },
        "tidyTrace": [
            {
                "children": [
                    {
                        "children": [
                            {
                                "children": [],
                                "depth": 1,
                                "id": 1,
                                "order": 1
                            }
                        ],
                        "depth": 0,
                        "id": 0,
                        "order": 0
                    }
                ],
                "depth": -1,
                "id": -1,
                "order": -1
            }
        ],
        "tidyTraceNodeCount": 2
    },
    "state_change": {
        "stateChanges": [
            {
                "address": "0xfd14567eaf9ba941cb8c8a94eec14831ca7fd1b4",
                "erc": "",
                "slots": [
                    {
                        "current": "0x0000000000000000000000000000000000000000000000000000000000000001",
                        "key": "0xede1683575f76440510483fa09cc51c1864872feda67e2c0c30c4b7d0b6445b1",
                        "prev": "0x0000000000000000000000000000000000000000000000000000000000000000"
                    }
                ],
                "storageVariables": [
                    {
                        "name": "verifiedFact",
                        "type": "mapping(bytes32 => bool)",
                        "value": {
                            "pairs": [
                                {
                                    "key": "0x17e99728f6ee217f39786cce23758d6c7c4e9947df3cf1797901799fe841db65",
                                    "value": {
                                        "current": "true",
                                        "prev": "false",
                                        "typeTag": 1
                                    }
                                }
                            ],
                            "typeTag": 4
                        }
                    }
                ]
            }
        ]
    }
}