{
    "balance_change": {
        "balanceChanges": []
    },
    "profile": {
        "basic_info": {
            "baseFee": "",
            "blockNumber": 8112441,
            "callData": "0x648873340000000000000000000000000000000000000000000000000000000000000080000000000000000000000000000000000000000000000000000000000000012000000000000000000000000000000000000000000000000000000000007bc93600000000000000000000000000000000000000000000000000000000000001c000000000000000000000000000000000000000000000000000000000000000040800fd1b363b2a071a53000000000000000000000000000000000000000000004a001f505d0000fb002825300800000000000000000000000000000000000000e15600df2af5d5671800280017ef000000000000000000000000000000000000b300f5f06732320000362a002d1c0000000000000000000000000000000000000000000000000000000000000000000000000000000000000000000000000004020007e5e2c5d5ffeabb00000000000000000000000000000000000000000000bf00ebdba800006100d8dbd1f40000000000000000000000000000000000000029b40022db0d28b0ec00d100ec0d0000000000000000000000000000000000005d000c179cd3d20000cdeb00d5f100000000000000000000000000000000000000000000000000000000000000000000000000000000000000000000000000040000000000000000000000000000000000000000000000000000000000000003000000000000000000000000000000000000000000000000000000000000000200000000000000000000000000000000000000000000000000000000000000000000000000000000000000000000000000000000000000000000000000000001",
            "debugEnable": true,
            "errorInfo": "",
            "eventCount": 0,
            "feeRecipient": "0x09ab1303d3ccaf5f018cd511146b07a240c70294",
            "formatValue": "0",
            "gasLimit": 104610,
            "gasPrice": "3.375",
            "gasUsed": 54610,
            "intTxnCount": 0,
            "internalRevert": false,
            "internalRevertMessage": "",
            "isContractCreation": false,
            "isFlashloan": false,
            "maxFee": "",
            "nonce": 471347,
            "overwritedBlockNumber": -1,
            "priorityFee": "",
            "receiver": "0x798abda6cc246d0edba912092a2a3dbd3d11191b",
            "revertMessage": "",
            "sender": "0x8bc3da587def887b5c822105729ee1d6af05a5ca",
            "simulationEnable": true,
            "sourceTxnHash": "0xf7fa6a780299c2028740321ed13144b8e6f4cc8ebec64ab975b79057dc5fc360",
            "status": true,
            "timestamp": "2019-07-08T19:17:12Z",
            "transactionFee": "0.00018430875",
            "txnHash": "0xf7fa6a780299c2028740321ed13144b8e6f4cc8ebec64ab975b79057dc5fc360",
            "txnIndex": 18,
            "type": 0,
            "value": "0"
        },
        "fund_flow": [],
        "token_infos": [
            {
                "address": "0xc02aaa39b223fe8d0a0e5c4f27ead9083c756cc2",
                "decimals": 18
            },
            {
                "address": "0xeeeeeeeeeeeeeeeeeeeeeeeeeeeeeeeeeeeeeeee",
                "decimals": 18
            }
        ]
    },
    "address_label": {
        "labels": [
            {
                "address": "0x0000000000000000000000000000000000000004",
                "label": "Precompiled"
            },
            {
                "address": "0xeeeeeeeeeeeeeeeeeeeeeeeeeeeeeeeeeeeeeeee",
                "label": "Ether"
            },
            {
                "address": "0x798abda6cc246d0edba912092a2a3dbd3d11191b",
                "label": "Kyber: Conversion Rates"
            },
            {
                "address": "0x0000000000000000000000000000000000000001",
                "label": "Precompiled"
            },
            {
                "address": "0x0000000000000000000000000000000000000002",
                "label": "Precompiled"
            },
            {
                "address": "0x0000000000000000000000000000000000000003",
                "label": "Precompiled"
            }
        ]
    },
    "trace": {
        "accountLabels": null,
        "dataMap": {
            "-1": {
                "invocation": {
                    "address": "0x8bc3da587def887b5c822105729ee1d6af05a5ca",
                    "callData": "",
                    "decodedMethod": null,
                    "errorInfo": "",
                    "fromAddress": "",
                    "gasUsed": 0,
                    "id": -1,
                    "methodDecoded": false,
                    "operation": "",
                    "output": "",
                    "revert": false,
                    "revertMessage": "",
                    "selector": "",
                    "status": false,
                    "value": ""
                },
                "nodeType": 0
            },
            "0": {
                "invocation": {
                    "address": "0x798abda6cc246d0edba912092a2a3dbd3d11191b",
                    "callData": "0x0000000000000000000000000000000000000000000000000000000000000080000000000000000000000000000000000000000000000000000000000000012000000000000000000000000000000000000000000000000000000000007bc93600000000000000000000000000000000000000000000000000000000000001c000000000000000000000000000000000000000000000000000000000000000040800fd1b363b2a071a53000000000000000000000000000000000000000000004a001f505d0000fb002825300800000000000000000000000000000000000000e15600df2af5d5671800280017ef000000000000000000000000000000000000b300f5f06732320000362a002d1c0000000000000000000000000000000000000000000000000000000000000000000000000000000000000000000000000004020007e5e2c5d5ffeabb00000000000000000000000000000000000000000000bf00ebdba800006100d8dbd1f40000000000000000000000000000000000000029b40022db0d28b0ec00d100ec0d0000000000000000000000000000000000005d000c179cd3d20000cdeb00d5f100000000000000000000000000000000000000000000000000000000000000000000000000000000000000000000000000040000000000000000000000000000000000000000000000000000000000000003000000000000000000000000000000000000000000000000000000000000000200000000000000000000000000000000000000000000000000000000000000000000000000000000000000000000000000000000000000000000000000000001",
                    "decodedMethod": {
                        "callParams": [
                            {
                                "name": "buy",
                                "type": "bytes14[]",
                                "value": [
                                    "0x0800fd1b363b2a071a5300000000",
                                    "0x4a001f505d0000fb002825300800",
                                    "0xe15600df2af5d5671800280017ef",
                                    "0xb300f5f06732320000362a002d1c"
                                ]
                            },
                            {
                                "name": "sell",
                                "type": "bytes14[]",
                                "value": [
                                    "0x020007e5e2c5d5ffeabb00000000",
                                    "0xbf00ebdba800006100d8dbd1f400",
                                    "0x29b40022db0d28b0ec00d100ec0d",
                                    "0x5d000c179cd3d20000cdeb00d5f1"
                                ]
                            },
                            {
                                "name": "blockNumber",
                                "type": "uint256",
                                "value": "8,112,438"
                            },
                            {
                                "name": "indices",
                                "type": "uint256[]",
                                "value": [
                                    "3",
                                    "2",
                                    "0",
                                    "1"
                                ]
                            }
                        ],
                        "constructorArguments": "",
                        "name": "setCompactData",
                        "returnParams": [],
                        "signature": "setCompactData(bytes14[],bytes14[],uint256,uint256[])"
                    },
                    "errorInfo": "",
                    "fromAddress": "0x8bc3da587def887b5c822105729ee1d6af05a5ca",
                    "gasUsed": 54610,
                    "id": 0,
                    "methodDecoded": true,
                    "operation": "CALL",
                    "output": "",
                    "revert": false,
                    "revertMessage": "",
                    "selector": "0x64887334",
                    "status": true,
                    "value": "0"
                },
                "nodeType": 0
            }
        },
        "gasFlame": [
            {
                "children": [
                    {
                        "children": [
                            {
                                "children": [],
                                "depth": 0,
                                "name": "Initial Gas",
                                "value": 29592
                            },
                            {
                                "children": [],
                                "depth": 0,
                                "name": "Executed Gas",
                                "value": 25018
                            }
                        ],
                        "depth": -1,
                        "name": "Actual Gas Used",
                        "value": 54610
                    },
                    {
                        "children": [],
                        "depth": -1,
                        "name": "Refunded Gas",
                        "value": 0
                    }
                ],
                "depth": -2,
                "name": "Total Gas",
                "value": 54610
            }
        ],
        "isConfirmed": true,
        "mainTrace": [
            {
                "children": [
                    {
                        "children": [],
                        "depth": 0,
                        "id": 0,
                        "order": 0
                    }
                ],
                "depth": -1,
                "id": -1,
                "order": -1
            }
        ],
        "mainTraceNodeCount": 1,
        "parentIdMap": {
            "0": -1
        },
        "tidyTrace": [
            {
                "children": [
                    {
                        "children": [],
                        "depth": 0,
                        "id": 0,
                        "order": 0
                    }
                ],
                "depth": -1,
                "id": -1,
                "order": -1
            }
        ],
        "tidyTraceNodeCount": 1
    },
    "state_change": {
        "stateChanges": [
            {
                "address": "0x798abda6cc246d0edba912092a2a3dbd3d11191b",
                "erc": "",
                "slots": [
                    {
                        "current": "0x007bc9365d000c179cd3d20000cdeb00d5f1b300f5f06732320000362a002d1c",
                        "key": "0xdf6966c971051c3d54ec59162606531493a51404a002842f56009d7e5cf4a8c8",
                        "prev": "0x007bc9345e000c189cd3d30000cded00d4f1b200f5ef67323100003727002c1c"
                    },
                    {
                        "current": "0x007bc936020007e5e2c5d5ffeabb000000000800fd1b363b2a071a5300000000",
                        "key": "0xdf6966c971051c3d54ec59162606531493a51404a002842f56009d7e5cf4a8ca",
                        "prev": "0x007bc934020006e5e3c3d4ffeabc000000000800fd1b363e2b071a5300000000"
                    },
                    {
                        "current": "0x007bc936bf00ebdba800006100d8dbd1f4004a001f505d0000fb002825300800",
                        "key": "0xdf6966c971051c3d54ec59162606531493a51404a002842f56009d7e5cf4a8c9",
                        "prev": "0x007bc934c000eadca800006100d8dcd1ed00490020505d0000fa002725311000"
                    },
                    {
                        "current": "0x007bc93629b40022db0d28b0ec00d100ec0de15600df2af5d5671800280017ef",
                        "key": "0xdf6966c971051c3d54ec59162606531493a51404a002842f56009d7e5cf4a8c7",
                        "prev": "0x007bc93429b40022db0c2ab0ed00d000ec0ce05600df2af6d3671700280017f0"
                    }
                ],
                "storageVariables": [
                    {
                        "name": "tokenRatesCompactData",
                        "type": "bytes32[]",
                        "value": {
                            "elemType": "bytes32",
                            "elems": [
                                {
                                    "index": 0,
                                    "value": {
                                        "current": "0x007bc93629b40022db0d28b0ec00d100ec0de15600df2af5d5671800280017ef",
                                        "prev": "0x007bc93429b40022db0c2ab0ed00d000ec0ce05600df2af6d3671700280017f0",
                                        "typeTag": 1
                                    }
                                },
                                {
                                    "index": 1,
                                    "value": {
                                        "current": "0x007bc9365d000c179cd3d20000cdeb00d5f1b300f5f06732320000362a002d1c",
                                        "prev": "0x007bc9345e000c189cd3d30000cded00d4f1b200f5ef67323100003727002c1c",
                                        "typeTag": 1
                                    }
                                },
                                {
                                    "index": 2,
                                    "value": {
                                        "current": "0x007bc936bf00ebdba800006100d8dbd1f4004a001f505d0000fb002825300800",
                                        "prev": "0x007bc934c000eadca800006100d8dcd1ed00490020505d0000fa002725311000",
                                        "typeTag": 1
                                    }
                                },
                                {
                                    "index": 3,
                                    "value": {
                                        "current": "0x007bc936020007e5e2c5d5ffeabb000000000800fd1b363b2a071a5300000000",
                                        "prev": "0x007bc934020006e5e3c3d4ffeabc000000000800fd1b363e2b071a5300000000",
                                        "typeTag": 1
                                    }
                                }
                            ],
                            "typeTag": 2
                        }
                    }
                ]
            }
        ]
    }
}