{
    "balance_change": {
        "balanceChanges": [
            {
                "account": "0x8f85b1c51f33cdf85ed296bddfd78f018ffa3dd4",
                "assets": [
                    {
                        "address": "0xeeeeeeeeeeeeeeeeeeeeeeeeeeeeeeeeeeeeeeee",
                        "amount": "0.006581474562706657",
                        "iconUrl": "https://assets.blocksec.com/image/1663669189317-3.png",
                        "isERC1155": false,
                        "isERC721": false,
                        "sign": false,
                        "value": "21.1430897"
                    },
                    {
                        "address": "0x152649ea73beab28c5b49b26eb48f7ead6d4c898",
                        "amount": "6.890883720822559017",
                        "iconUrl": "",
                        "isERC1155": false,
                        "isERC721": false,
                        "sign": false,
                        "value": "19.639018604850000612"
                    },
                    {
                        "address": "0x46a15b0b27311cedf172ab29e4f4766fbe7f4364",
                        "amount": "1",
                        "iconUrl": "",
                        "isERC1155": false,
                        "isERC721": true,
                        "sign": true,
                        "tokenID": "8927",
                        "value": ""
                    }
                ]
            },
            {
                "account": "0x0000000000000000000000000000000000000000",
                "assets": [
                    {
                        "address": "0x46a15b0b27311cedf172ab29e4f4766fbe7f4364",
                        "amount": "1",
                        "iconUrl": "",
                        "isERC1155": false,
                        "isERC721": true,
                        "sign": false,
                        "tokenID": "8927",
                        "value": ""
                    }
                ]
            },
            {
                "account": "0x517f451b0a9e1b87dc0ae98a05ee033c3310f046",
                "assets": [
                    {
                        "address": "0x152649ea73beab28c5b49b26eb48f7ead6d4c898",
                        "amount": "6.890883720822559017",
                        "iconUrl": "",
                        "isERC1155": false,
                        "isERC721": false,
                        "sign": true,
                        "value": "19.639018604850000612"
                    },
                    {
                        "address": "0xc02aaa39b223fe8d0a0e5c4f27ead9083c756cc2",
                        "amount": "0.006581474562706657",
                        "iconUrl": "https://assets.blocksec.com/icon/f1cb2d02c471d545bbc7722daf3277fd852d98e63d118771af7047bd8256c516.png",
                        "isERC1155": false,
                        "isERC721": false,
                        "sign": true,
                        "value": "21.1430897"
                    }
                ]
            },
            {
                "account": "0xc02aaa39b223fe8d0a0e5c4f27ead9083c756cc2",
                "assets": [
                    {
                        "address": "0xeeeeeeeeeeeeeeeeeeeeeeeeeeeeeeeeeeeeeeee",
                        "amount": "0.006581474562706657",
                        "iconUrl": "https://assets.blocksec.com/image/1663669189317-3.png",
                        "isERC1155": false,
                        "isERC721": false,
                        "sign": true,
                        "value": "21.1430897"
                    },
                    {
                        "address": "0xc02aaa39b223fe8d0a0e5c4f27ead9083c756cc2",
                        "amount": "0.006581474562706657",
                        "iconUrl": "https://assets.blocksec.com/icon/f1cb2d02c471d545bbc7722daf3277fd852d98e63d118771af7047bd8256c516.png",
                        "isERC1155": false,
                        "isERC721": false,
                        "sign": false,
                        "value": "21.1430897"
                    }
                ]
            }
        ]
    },
    "profile": {
        "basic_info": {
            "baseFee": "20.155050589",
            "blockNumber": 19648497,
            "callData": "0xac9650d800000000000000000000000000000000000000000000000000000000000000200000000000000000000000000000000000000000000000000000000000000002000000000000000000000000000000000000000000000000000000000000004000000000000000000000000000000000000000000000000000000000000001e0000000000000000000000000000000000000000000000000000000000000016488316456000000000000000000000000152649ea73beab28c5b49b26eb48f7ead6d4c898000000000000000000000000c02aaa39b223fe8d0a0e5c4f27ead9083c756cc200000000000000000000000000000000000000000000000000000000000009c4fffffffffffffffffffffffffffffffffffffffffffffffffffffffffffed52cffffffffffffffffffffffffffffffffffffffffffffffffffffffffffff0b780000000000000000000000000000000000000000000000005fa1563c10269129000000000000000000000000000000000000000000000000001761d0f5688ce10000000000000000000000000000000000000000000000005e034a76543bf04a0000000000000000000000000000000000000000000000000016fba24bb8f8b30000000000000000000000008f85b1c51f33cdf85ed296bddfd78f018ffa3dd400000000000000000000000000000000000000000000000000000000661ad65300000000000000000000000000000000000000000000000000000000000000000000000000000000000000000000000000000000000000000000000412210e8a00000000000000000000000000000000000000000000000000000000",
            "debugEnable": true,
            "errorInfo": "",
            "eventCount": 6,
            "feeRecipient": "0x95222290dd7278aa3ddd389cc1e1d165cc4bafe5",
            "formatValue": "0.006581474562706657",
            "gasLimit": 778224,
            "gasPrice": "20.239731589",
            "gasUsed": 489792,
            "intTxnCount": 13,
            "internalRevert": false,
            "internalRevertMessage": "",
            "isContractCreation": false,
            "isFlashloan": false,
            "maxFee": "24.721543788",
            "nonce": 2,
            "overwritedBlockNumber": -1,
            "priorityFee": "0.084681",
            "receiver": "0x46a15b0b27311cedf172ab29e4f4766fbe7f4364",
            "revertMessage": "",
            "sender": "0x8f85b1c51f33cdf85ed296bddfd78f018ffa3dd4",
            "simulationEnable": true,
            "sourceTxnHash": "0xf75bfbef663e13f7e8157a1023b8fc895bde2a4929c745fed1ac1a72100a66d5",
            "status": true,
            "timestamp": "2024-04-13T18:40:59Z",
            "transactionFee": "0.009913258614439488",
            "txnHash": "0xf75bfbef663e13f7e8157a1023b8fc895bde2a4929c745fed1ac1a72100a66d5",
            "txnIndex": 169,
            "type": 2,
            "value": "6581474562706657"
        },
        "fund_flow": [
            {
                "amount": "0.006581474562706657",
                "from": "0x8f85b1c51f33cdf85ed296bddfd78f018ffa3dd4",
                "id": 1,
                "isERC1155": false,
                "isERC721": false,
                "isReverted": false,
                "order": 1,
                "to": "0x46a15b0b27311cedf172ab29e4f4766fbe7f4364",
                "token": "0xeeeeeeeeeeeeeeeeeeeeeeeeeeeeeeeeeeeeeeee"
            },
            {
                "amount": "6.890883720822559017",
                "from": "0x8f85b1c51f33cdf85ed296bddfd78f018ffa3dd4",
                "id": 2,
                "isERC1155": false,
                "isERC721": false,
                "isReverted": false,
                "order": 2,
                "to": "0x517f451b0a9e1b87dc0ae98a05ee033c3310f046",
                "token": "0x152649ea73beab28c5b49b26eb48f7ead6d4c898"
            },
            {
                "amount": "0.006581474562706657",
                "from": "0x46a15b0b27311cedf172ab29e4f4766fbe7f4364",
                "id": 3,
                "isERC1155": false,
                "isERC721": false,
                "isReverted": false,
                "order": 3,
                "to": "0xc02aaa39b223fe8d0a0e5c4f27ead9083c756cc2",
                "token": "0xeeeeeeeeeeeeeeeeeeeeeeeeeeeeeeeeeeeeeeee"
            },
            {
                "amount": "0.006581474562706657",
                "from": "0xc02aaa39b223fe8d0a0e5c4f27ead9083c756cc2",
                "id": 4,
                "isERC1155": false,
                "isERC721": false,
                "isReverted": false,
                "order": 4,
                "to": "0x46a15b0b27311cedf172ab29e4f4766fbe7f4364",
                "token": "0xc02aaa39b223fe8d0a0e5c4f27ead9083c756cc2"
            },
            {
                "amount": "0.006581474562706657",
                "from": "0x46a15b0b27311cedf172ab29e4f4766fbe7f4364",
                "id": 5,
                "isERC1155": false,
                "isERC721": false,
                "isReverted": false,
                "order": 5,
                "to": "0x517f451b0a9e1b87dc0ae98a05ee033c3310f046",
                "token": "0xc02aaa39b223fe8d0a0e5c4f27ead9083c756cc2"
            },
            {
                "amount": "1",
                "from": "0x0000000000000000000000000000000000000000",
                "id": 6,
                "isERC1155": false,
                "isERC721": true,
                "isReverted": false,
                "order": 6,
                "to": "0x8f85b1c51f33cdf85ed296bddfd78f018ffa3dd4",
                "token": "0x46a15b0b27311cedf172ab29e4f4766fbe7f4364",
                "tokenID": "8927"
            }
        ],
        "token_infos": [
            {
                "address": "0x152649ea73beab28c5b49b26eb48f7ead6d4c898",
                "decimals": 18
            },
            {
                "address": "0xc02aaa39b223fe8d0a0e5c4f27ead9083c756cc2",
                "decimals": 18
            },
            {
                "address": "0xeeeeeeeeeeeeeeeeeeeeeeeeeeeeeeeeeeeeeeee",
                "decimals": 18
            }
        ]
    },
    "address_label": {
        "labels": [
            {
                "address": "0xeeeeeeeeeeeeeeeeeeeeeeeeeeeeeeeeeeeeeeee",
                "label": "Ether"
            },
            {
                "address": "0x517f451b0a9e1b87dc0ae98a05ee033c3310f046",
                "label": "PancakeV3Pool"
            },
            {
                "address": "0x46a15b0b27311cedf172ab29e4f4766fbe7f4364",
                "label": "PancakeSwap:Nonfungible Position Manager V3"
            },
            {
                "address": "0x152649ea73beab28c5b49b26eb48f7ead6d4c898",
                "label": "PancakeSwap: Cake Token"
            },
            {
                "address": "0x0000000000000000000000000000000000000001",
                "label": "Precompiled"
            },
            {
                "address": "0x0000000000000000000000000000000000000002",
                "label": "Precompiled"
            },
            {
                "address": "0x0000000000000000000000000000000000000004",
                "label": "Precompiled"
            },
            {
                "address": "0xc02aaa39b223fe8d0a0e5c4f27ead9083c756cc2",
                "label": "Wrapped Ether (WETH)"
            },
            {
                "address": "0x0000000000000000000000000000000000000003",
                "label": "Precompiled"
            }
        ]
    },
    "trace": {
        "accountLabels": null,
        "dataMap": {
            "-1": {
                "invocation": {
                    "address": "0x8f85b1c51f33cdf85ed296bddfd78f018ffa3dd4",
                    "callData": "",
                    "decodedMethod": null,
                    "errorInfo": "",
                    "fromAddress": "",
                    "gasUsed": 0,
                    "id": -1,
                    "methodDecoded": false,
                    "operation": "",
                    "output": "",
                    "revert": false,
                    "revertMessage": "",
                    "selector": "",
                    "status": false,
                    "value": ""
                },
                "nodeType": 0
            },
            "0": {
                "invocation": {
                    "address": "0x46a15b0b27311cedf172ab29e4f4766fbe7f4364",
                    "callData": "0x00000000000000000000000000000000000000000000000000000000000000200000000000000000000000000000000000000000000000000000000000000002000000000000000000000000000000000000000000000000000000000000004000000000000000000000000000000000000000000000000000000000000001e0000000000000000000000000000000000000000000000000000000000000016488316456000000000000000000000000152649ea73beab28c5b49b26eb48f7ead6d4c898000000000000000000000000c02aaa39b223fe8d0a0e5c4f27ead9083c756cc200000000000000000000000000000000000000000000000000000000000009c4fffffffffffffffffffffffffffffffffffffffffffffffffffffffffffed52cffffffffffffffffffffffffffffffffffffffffffffffffffffffffffff0b780000000000000000000000000000000000000000000000005fa1563c10269129000000000000000000000000000000000000000000000000001761d0f5688ce10000000000000000000000000000000000000000000000005e034a76543bf04a0000000000000000000000000000000000000000000000000016fba24bb8f8b30000000000000000000000008f85b1c51f33cdf85ed296bddfd78f018ffa3dd400000000000000000000000000000000000000000000000000000000661ad65300000000000000000000000000000000000000000000000000000000000000000000000000000000000000000000000000000000000000000000000412210e8a00000000000000000000000000000000000000000000000000000000",
                    "decodedMethod": {
                        "callParams": [
                            {
                                "name": "data",
                                "type": "bytes[]",
                                "value": [
                                    "0x88316456000000000000000000000000152649ea73beab28c5b49b26eb48f7ead6d4c898000000000000000000000000c02aaa39b223fe8d0a0e5c4f27ead9083c756cc200000000000000000000000000000000000000000000000000000000000009c4fffffffffffffffffffffffffffffffffffffffffffffffffffffffffffed52cffffffffffffffffffffffffffffffffffffffffffffffffffffffffffff0b780000000000000000000000000000000000000000000000005fa1563c10269129000000000000000000000000000000000000000000000000001761d0f5688ce10000000000000000000000000000000000000000000000005e034a76543bf04a0000000000000000000000000000000000000000000000000016fba24bb8f8b30000000000000000000000008f85b1c51f33cdf85ed296bddfd78f018ffa3dd400000000000000000000000000000000000000000000000000000000661ad653",
                                    "0x12210e8a"
                                ]
                            }
                        ],
                        "constructorArguments": "",
                        "name": "multicall",
                        "returnParams": [
                            {
                                "name": "results",
                                "type": "bytes[]",
                                "value": [
                                    "0x00000000000000000000000000000000000000000000000000000000000022df0000000000000000000000000000000000000000000000000a117f867cd514480000000000000000000000000000000000000000000000005fa1563c10269129000000000000000000000000000000000000000000000000001761d0f5688ce1",
                                    "0x"
                                ]
                            }
                        ],
                        "signature": "multicall(bytes[])"
                    },
                    "errorInfo": "",
                    "fromAddress": "0x8f85b1c51f33cdf85ed296bddfd78f018ffa3dd4",
                    "gasUsed": 489792,
                    "id": 0,
                    "methodDecoded": true,
                    "operation": "CALL",
                    "output": "0x00000000000000000000000000000000000000000000000000000000000000200000000000000000000000000000000000000000000000000000000000000002000000000000000000000000000000000000000000000000000000000000004000000000000000000000000000000000000000000000000000000000000000e0000000000000000000000000000000000000000000000000000000000000008000000000000000000000000000000000000000000000000000000000000022df0000000000000000000000000000000000000000000000000a117f867cd514480000000000000000000000000000000000000000000000005fa1563c10269129000000000000000000000000000000000000000000000000001761d0f5688ce10000000000000000000000000000000000000000000000000000000000000000",
                    "revert": false,
                    "revertMessage": "",
                    "selector": "0xac9650d8",
                    "status": true,
                    "value": "0.006581474562706657"
                },
                "nodeType": 0
            },
            "1": {
                "invocation": {
                    "address": "0x46a15b0b27311cedf172ab29e4f4766fbe7f4364",
                    "callData": "0x000000000000000000000000152649ea73beab28c5b49b26eb48f7ead6d4c898000000000000000000000000c02aaa39b223fe8d0a0e5c4f27ead9083c756cc200000000000000000000000000000000000000000000000000000000000009c4fffffffffffffffffffffffffffffffffffffffffffffffffffffffffffed52cffffffffffffffffffffffffffffffffffffffffffffffffffffffffffff0b780000000000000000000000000000000000000000000000005fa1563c10269129000000000000000000000000000000000000000000000000001761d0f5688ce10000000000000000000000000000000000000000000000005e034a76543bf04a0000000000000000000000000000000000000000000000000016fba24bb8f8b30000000000000000000000008f85b1c51f33cdf85ed296bddfd78f018ffa3dd400000000000000000000000000000000000000000000000000000000661ad653",
                    "decodedMethod": {
                        "callParams": [
                            {
                                "name": "params",
                                "type": "(address,address,uint24,int24,int24,uint256,uint256,uint256,uint256,address,uint256)",
                                "value": [
                                    {
                                        "name": "token0",
                                        "type": "address",
                                        "value": "0x152649ea73beab28c5b49b26eb48f7ead6d4c898"
                                    },
                                    {
                                        "name": "token1",
                                        "type": "address",
                                        "value": "0xc02aaa39b223fe8d0a0e5c4f27ead9083c756cc2"
                                    },
                                    {
                                        "name": "fee",
                                        "type": "uint24",
                                        "value": "2,500"
                                    },
                                    {
                                        "name": "tickLower",
                                        "type": "int24",
                                        "value": "-76,500"
                                    },
                                    {
                                        "name": "tickUpper",
                                        "type": "int24",
                                        "value": "-62,600"
                                    },
                                    {
                                        "name": "amount0Desired",
                                        "type": "uint256",
                                        "value": "6,890,883,720,822,559,017"
                                    },
                                    {
                                        "name": "amount1Desired",
                                        "type": "uint256",
                                        "value": "6,581,474,562,706,657"
                                    },
                                    {
                                        "name": "amount0Min",
                                        "type": "uint256",
                                        "value": "6,774,340,136,575,168,586"
                                    },
                                    {
                                        "name": "amount1Min",
                                        "type": "uint256",
                                        "value": "6,469,123,961,321,651"
                                    },
                                    {
                                        "name": "recipient",
                                        "type": "address",
                                        "value": "0x8f85b1c51f33cdf85ed296bddfd78f018ffa3dd4"
                                    },
                                    {
                                        "name": "deadline",
                                        "type": "uint256",
                                        "value": "1,713,034,835"
                                    }
                                ]
                            }
                        ],
                        "constructorArguments": "",
                        "name": "mint",
                        "returnParams": [
                            {
                                "name": "tokenId",
                                "type": "uint256",
                                "value": "8,927"
                            },
                            {
                                "name": "liquidity",
                                "type": "uint128",
                                "value": "725,501,230,580,044,872"
                            },
                            {
                                "name": "amount0",
                                "type": "uint256",
                                "value": "6,890,883,720,822,559,017"
                            },
                            {
                                "name": "amount1",
                                "type": "uint256",
                                "value": "6,581,474,562,706,657"
                            }
                        ],
                        "signature": "mint((address,address,uint24,int24,int24,uint256,uint256,uint256,uint256,address,uint256))"
                    },
                    "errorInfo": "",
                    "fromAddress": "0x46a15b0b27311cedf172ab29e4f4766fbe7f4364",
                    "gasUsed": 483444,
                    "id": 1,
                    "methodDecoded": true,
                    "operation": "DELEGATECALL",
                    "output": "0x00000000000000000000000000000000000000000000000000000000000022df0000000000000000000000000000000000000000000000000a117f867cd514480000000000000000000000000000000000000000000000005fa1563c10269129000000000000000000000000000000000000000000000000001761d0f5688ce1",
                    "revert": false,
                    "revertMessage": "",
                    "selector": "0x88316456",
                    "status": true,
                    "value": "0.006581474562706657"
                },
                "nodeType": 0
            },
            "10": {
                "event": {
                    "contract": "0xc02aaa39b223fe8d0a0e5c4f27ead9083c756cc2",
                    "decodedLog": {
                        "name": "Deposit",
                        "params": [
                            {
                                "name": "dst",
                                "type": "address",
                                "value": "0x46a15b0b27311cedf172ab29e4f4766fbe7f4364"
                            },
                            {
                                "name": "wad",
                                "type": "uint256",
                                "value": "6,581,474,562,706,657"
                            }
                        ],
                        "signature": "Deposit(address,uint256)"
                    },
                    "id": 10,
                    "logData": "0x000000000000000000000000000000000000000000000000001761d0f5688ce1",
                    "logDecoded": true,
                    "operation": "EVENT",
                    "revert": false,
                    "status": true,
                    "topics": [
                        "0xe1fffcc4923d04b559f4d29a8bfc6cda04eb5b0d3c460751c2402c5c5cc9109c",
                        "0x00000000000000000000000046a15b0b27311cedf172ab29e4f4766fbe7f4364"
                    ]
                },
                "nodeType": 1
            },
            "11": {
                "invocation": {
                    "address": "0xc02aaa39b223fe8d0a0e5c4f27ead9083c756cc2",
                    "callData": "0x000000000000000000000000517f451b0a9e1b87dc0ae98a05ee033c3310f046000000000000000000000000000000000000000000000000001761d0f5688ce1",
                    "decodedMethod": {
                        "callParams": [
                            {
                                "name": "dst",
                                "type": "address",
                                "value": "0x517f451b0a9e1b87dc0ae98a05ee033c3310f046"
                            },
                            {
                                "decimalAvailable": true,
                                "name": "wad",
                                "type": "uint256",
                                "value": "6,581,474,562,706,657"
                            }
                        ],
                        "constructorArguments": "",
                        "name": "transfer",
                        "returnParams": [
                            {
                                "name": "",
                                "type": "bool",
                                "value": true
                            }
                        ],
                        "signature": "transfer(address,uint256)"
                    },
                    "errorInfo": "",
                    "fromAddress": "0x46a15b0b27311cedf172ab29e4f4766fbe7f4364",
                    "gasUsed": 6062,
                    "id": 11,
                    "methodDecoded": true,
                    "operation": "CALL",
                    "output": "0x0000000000000000000000000000000000000000000000000000000000000001",
                    "revert": false,
                    "revertMessage": "",
                    "selector": "0xa9059cbb",
                    "status": true,
                    "value": "0"
                },
                "nodeType": 0
            },
            "12": {
                "event": {
                    "contract": "0xc02aaa39b223fe8d0a0e5c4f27ead9083c756cc2",
                    "decodedLog": {
                        "name": "Transfer",
                        "params": [
                            {
                                "name": "src",
                                "type": "address",
                                "value": "0x46a15b0b27311cedf172ab29e4f4766fbe7f4364"
                            },
                            {
                                "name": "dst",
                                "type": "address",
                                "value": "0x517f451b0a9e1b87dc0ae98a05ee033c3310f046"
                            },
                            {
                                "decimalAvailable": true,
                                "name": "wad",
                                "type": "uint256",
                                "value": "6,581,474,562,706,657"
                            }
                        ],
                        "signature": "Transfer(address,address,uint256)"
                    },
                    "id": 12,
                    "logData": "0x000000000000000000000000000000000000000000000000001761d0f5688ce1",
                    "logDecoded": true,
                    "operation": "EVENT",
                    "revert": false,
                    "status": true,
                    "topics": [
                        "0xddf252ad1be2c89b69c2b068fc378daa952ba7f163c4a11628f55a4df523b3ef",
                        "0x00000000000000000000000046a15b0b27311cedf172ab29e4f4766fbe7f4364",
                        "0x000000000000000000000000517f451b0a9e1b87dc0ae98a05ee033c3310f046"
                    ]
                },
                "nodeType": 1
            },
            "13": {
                "invocation": {
                    "address": "0x152649ea73beab28c5b49b26eb48f7ead6d4c898",
                    "callData": "0x000000000000000000000000517f451b0a9e1b87dc0ae98a05ee033c3310f046",
                    "decodedMethod": {
                        "callParams": [
                            {
                                "name": "account",
                                "type": "address",
                                "value": "0x517f451b0a9e1b87dc0ae98a05ee033c3310f046"
                            }
                        ],
                        "constructorArguments": "",
                        "name": "balanceOf",
                        "returnParams": [
                            {
                                "decimalAvailable": true,
                                "name": "",
                                "type": "uint256",
                                "value": "113,975,760,164,038,641,022,014"
                            }
                        ],
                        "signature": "balanceOf(address)"
                    },
                    "errorInfo": "",
                    "fromAddress": "0x517f451b0a9e1b87dc0ae98a05ee033c3310f046",
                    "gasUsed": 643,
                    "id": 13,
                    "methodDecoded": true,
                    "operation": "STATICCALL",
                    "output": "0x000000000000000000000000000000000000000000001822a36a2fbc30b5743e",
                    "revert": false,
                    "revertMessage": "",
                    "selector": "0x70a08231",
                    "status": true,
                    "value": "0"
                },
                "nodeType": 0
            },
            "14": {
                "invocation": {
                    "address": "0xc02aaa39b223fe8d0a0e5c4f27ead9083c756cc2",
                    "callData": "0x000000000000000000000000517f451b0a9e1b87dc0ae98a05ee033c3310f046",
                    "decodedMethod": {
                        "callParams": [
                            {
                                "name": "",
                                "type": "address",
                                "value": "0x517f451b0a9e1b87dc0ae98a05ee033c3310f046"
                            }
                        ],
                        "constructorArguments": "",
                        "name": "balanceOf",
                        "returnParams": [
                            {
                                "decimalAvailable": true,
                                "name": "",
                                "type": "uint256",
                                "value": "43,706,417,109,433,999,989"
                            }
                        ],
                        "signature": "balanceOf(address)"
                    },
                    "errorInfo": "",
                    "fromAddress": "0x517f451b0a9e1b87dc0ae98a05ee033c3310f046",
                    "gasUsed": 534,
                    "id": 14,
                    "methodDecoded": true,
                    "operation": "STATICCALL",
                    "output": "0x0000000000000000000000000000000000000000000000025e8c62cb64de6275",
                    "revert": false,
                    "revertMessage": "",
                    "selector": "0x70a08231",
                    "status": true,
                    "value": "0"
                },
                "nodeType": 0
            },
            "15": {
                "event": {
                    "contract": "0x517f451b0a9e1b87dc0ae98a05ee033c3310f046",
                    "decodedLog": {
                        "name": "Mint",
                        "params": [
                            {
                                "name": "owner",
                                "type": "address",
                                "value": "0x46a15b0b27311cedf172ab29e4f4766fbe7f4364"
                            },
                            {
                                "name": "tickLower",
                                "type": "int24",
                                "value": "-76,500"
                            },
                            {
                                "name": "tickUpper",
                                "type": "int24",
                                "value": "-62,600"
                            },
                            {
                                "name": "sender",
                                "type": "address",
                                "value": "0x46a15b0b27311cedf172ab29e4f4766fbe7f4364"
                            },
                            {
                                "name": "amount",
                                "type": "uint128",
                                "value": "725,501,230,580,044,872"
                            },
                            {
                                "name": "amount0",
                                "type": "uint256",
                                "value": "6,890,883,720,822,559,017"
                            },
                            {
                                "name": "amount1",
                                "type": "uint256",
                                "value": "6,581,474,562,706,657"
                            }
                        ],
                        "signature": "Mint(address,address,int24,int24,uint128,uint256,uint256)"
                    },
                    "id": 15,
                    "logData": "0x00000000000000000000000046a15b0b27311cedf172ab29e4f4766fbe7f43640000000000000000000000000000000000000000000000000a117f867cd514480000000000000000000000000000000000000000000000005fa1563c10269129000000000000000000000000000000000000000000000000001761d0f5688ce1",
                    "logDecoded": true,
                    "operation": "EVENT",
                    "revert": false,
                    "status": true,
                    "topics": [
                        "0x7a53080ba414158be7ec69b987b5fb7d07dee101fe85488f0853ae16239d0bde",
                        "0x00000000000000000000000046a15b0b27311cedf172ab29e4f4766fbe7f4364",
                        "0xfffffffffffffffffffffffffffffffffffffffffffffffffffffffffffed52c",
                        "0xffffffffffffffffffffffffffffffffffffffffffffffffffffffffffff0b78"
                    ]
                },
                "nodeType": 1
            },
            "16": {
                "event": {
                    "contract": "0x46a15b0b27311cedf172ab29e4f4766fbe7f4364",
                    "decodedLog": {
                        "name": "Transfer",
                        "params": [
                            {
                                "name": "from",
                                "type": "address",
                                "value": "0x0000000000000000000000000000000000000000"
                            },
                            {
                                "name": "to",
                                "type": "address",
                                "value": "0x8f85b1c51f33cdf85ed296bddfd78f018ffa3dd4"
                            },
                            {
                                "decimalAvailable": true,
                                "name": "tokenId",
                                "type": "uint256",
                                "value": "8,927"
                            }
                        ],
                        "signature": "Transfer(address,address,uint256)"
                    },
                    "id": 16,
                    "logData": "0x",
                    "logDecoded": true,
                    "operation": "EVENT",
                    "revert": false,
                    "status": true,
                    "topics": [
                        "0xddf252ad1be2c89b69c2b068fc378daa952ba7f163c4a11628f55a4df523b3ef",
                        "0x0000000000000000000000000000000000000000000000000000000000000000",
                        "0x0000000000000000000000008f85b1c51f33cdf85ed296bddfd78f018ffa3dd4",
                        "0x00000000000000000000000000000000000000000000000000000000000022df"
                    ]
                },
                "nodeType": 1
            },
            "17": {
                "invocation": {
                    "address": "0x517f451b0a9e1b87dc0ae98a05ee033c3310f046",
                    "callData": "0x91b15bdf1ed76a438031a2b527f09052f1777c69ff72d3a7f016f2a5063c5b59",
                    "decodedMethod": {
                        "callParams": [
                            {
                                "name": "",
                                "type": "bytes32",
                                "value": "0x91b15bdf1ed76a438031a2b527f09052f1777c69ff72d3a7f016f2a5063c5b59"
                            }
                        ],
                        "constructorArguments": "",
                        "name": "positions",
                        "returnParams": [
                            {
                                "name": "liquidity",
                                "type": "uint128",
                                "value": "725,501,230,580,044,872"
                            },
                            {
                                "name": "feeGrowthInside0LastX128",
                                "type": "uint256",
                                "value": "11,402,333,234,642,168,658,253,863,051,722,365,862"
                            },
                            {
                                "name": "feeGrowthInside1LastX128",
                                "type": "uint256",
                                "value": "10,051,589,413,892,975,864,767,698,820,607,168"
                            },
                            {
                                "name": "tokensOwed0",
                                "type": "uint128",
                                "value": "0"
                            },
                            {
                                "name": "tokensOwed1",
                                "type": "uint128",
                                "value": "0"
                            }
                        ],
                        "signature": "positions(bytes32)"
                    },
                    "errorInfo": "",
                    "fromAddress": "0x46a15b0b27311cedf172ab29e4f4766fbe7f4364",
                    "gasUsed": 991,
                    "id": 17,
                    "methodDecoded": true,
                    "operation": "STATICCALL",
                    "output": "0x0000000000000000000000000000000000000000000000000a117f867cd51448000000000000000000000000000000000894026eac7d0df446a2f36b258a1ba6000000000000000000000000000000000001ef94e51083f921c234df6dcb2cc000000000000000000000000000000000000000000000000000000000000000000000000000000000000000000000000000000000000000000000000000000000",
                    "revert": false,
                    "revertMessage": "",
                    "selector": "0x514ea4bf",
                    "status": true,
                    "value": "0"
                },
                "nodeType": 0
            },
            "18": {
                "event": {
                    "contract": "0x46a15b0b27311cedf172ab29e4f4766fbe7f4364",
                    "decodedLog": {
                        "name": "IncreaseLiquidity",
                        "params": [
                            {
                                "name": "tokenId",
                                "type": "uint256",
                                "value": "8,927"
                            },
                            {
                                "name": "liquidity",
                                "type": "uint128",
                                "value": "725,501,230,580,044,872"
                            },
                            {
                                "name": "amount0",
                                "type": "uint256",
                                "value": "6,890,883,720,822,559,017"
                            },
                            {
                                "name": "amount1",
                                "type": "uint256",
                                "value": "6,581,474,562,706,657"
                            }
                        ],
                        "signature": "IncreaseLiquidity(uint256,uint128,uint256,uint256)"
                    },
                    "id": 18,
                    "logData": "0x0000000000000000000000000000000000000000000000000a117f867cd514480000000000000000000000000000000000000000000000005fa1563c10269129000000000000000000000000000000000000000000000000001761d0f5688ce1",
                    "logDecoded": true,
                    "operation": "EVENT",
                    "revert": false,
                    "status": true,
                    "topics": [
                        "0x3067048beee31b25b2f1681f88dac838c8bba36af25bfb2b7cf7473a5847e35f",
                        "0x00000000000000000000000000000000000000000000000000000000000022df"
                    ]
                },
                "nodeType": 1
            },
            "19": {
                "invocation": {
                    "address": "0x46a15b0b27311cedf172ab29e4f4766fbe7f4364",
                    "callData": "0x",
                    "decodedMethod": {
                        "callParams": [],
                        "constructorArguments": "",
                        "name": "refundETH",
                        "returnParams": [],
                        "signature": "refundETH()"
                    },
                    "errorInfo": "",
                    "fromAddress": "0x46a15b0b27311cedf172ab29e4f4766fbe7f4364",
                    "gasUsed": 233,
                    "id": 19,
                    "methodDecoded": true,
                    "operation": "DELEGATECALL",
                    "output": "",
                    "revert": false,
                    "revertMessage": "",
                    "selector": "0x12210e8a",
                    "status": true,
                    "value": "0.006581474562706657"
                },
                "nodeType": 0
            },
            "2": {
                "invocation": {
                    "address": "0x517f451b0a9e1b87dc0ae98a05ee033c3310f046",
                    "callData": "0x",
                    "decodedMethod": {
                        "callParams": [],
                        "constructorArguments": "",
                        "name": "slot0",
                        "returnParams": [
                            {
                                "name": "sqrtPriceX96",
                                "type": "uint160",
                                "value": "2,447,693,287,991,918,747,042,850,926"
                            },
                            {
                                "name": "tick",
                                "type": "int24",
                                "value": "-69,548"
                            },
                            {
                                "name": "observationIndex",
                                "type": "uint16",
                                "value": "0"
                            },
                            {
                                "name": "observationCardinality",
                                "type": "uint16",
                                "value": "11"
                            },
                            {
                                "name": "observationCardinalityNext",
                                "type": "uint16",
                                "value": "11"
                            },
                            {
                                "name": "feeProtocol",
                                "type": "uint32",
                                "value": "209,718,400"
                            },
                            {
                                "name": "unlocked",
                                "type": "bool",
                                "value": true
                            }
                        ],
                        "signature": "slot0()"
                    },
                    "errorInfo": "",
                    "fromAddress": "0x46a15b0b27311cedf172ab29e4f4766fbe7f4364",
                    "gasUsed": 4863,
                    "id": 2,
                    "methodDecoded": true,
                    "operation": "STATICCALL",
                    "output": "0x000000000000000000000000000000000000000007e8af37055d104a92c6286efffffffffffffffffffffffffffffffffffffffffffffffffffffffffffef0540000000000000000000000000000000000000000000000000000000000000000000000000000000000000000000000000000000000000000000000000000000b000000000000000000000000000000000000000000000000000000000000000b000000000000000000000000000000000000000000000000000000000c800c800000000000000000000000000000000000000000000000000000000000000001",
                    "revert": false,
                    "revertMessage": "",
                    "selector": "0x3850c7bd",
                    "status": true,
                    "value": "0"
                },
                "nodeType": 0
            },
            "3": {
                "invocation": {
                    "address": "0x517f451b0a9e1b87dc0ae98a05ee033c3310f046",
                    "callData": "0x00000000000000000000000046a15b0b27311cedf172ab29e4f4766fbe7f4364fffffffffffffffffffffffffffffffffffffffffffffffffffffffffffed52cffffffffffffffffffffffffffffffffffffffffffffffffffffffffffff0b780000000000000000000000000000000000000000000000000a117f867cd5144800000000000000000000000000000000000000000000000000000000000000a00000000000000000000000000000000000000000000000000000000000000080000000000000000000000000152649ea73beab28c5b49b26eb48f7ead6d4c898000000000000000000000000c02aaa39b223fe8d0a0e5c4f27ead9083c756cc200000000000000000000000000000000000000000000000000000000000009c40000000000000000000000008f85b1c51f33cdf85ed296bddfd78f018ffa3dd4",
                    "decodedMethod": {
                        "callParams": [
                            {
                                "name": "recipient",
                                "type": "address",
                                "value": "0x46a15b0b27311cedf172ab29e4f4766fbe7f4364"
                            },
                            {
                                "name": "tickLower",
                                "type": "int24",
                                "value": "-76,500"
                            },
                            {
                                "name": "tickUpper",
                                "type": "int24",
                                "value": "-62,600"
                            },
                            {
                                "name": "amount",
                                "type": "uint128",
                                "value": "725,501,230,580,044,872"
                            },
                            {
                                "name": "data",
                                "type": "bytes",
                                "value": "0x000000000000000000000000152649ea73beab28c5b49b26eb48f7ead6d4c898000000000000000000000000c02aaa39b223fe8d0a0e5c4f27ead9083c756cc200000000000000000000000000000000000000000000000000000000000009c40000000000000000000000008f85b1c51f33cdf85ed296bddfd78f018ffa3dd4"
                            }
                        ],
                        "constructorArguments": "",
                        "name": "mint",
                        "returnParams": [
                            {
                                "name": "amount0",
                                "type": "uint256",
                                "value": "6,890,883,720,822,559,017"
                            },
                            {
                                "name": "amount1",
                                "type": "uint256",
                                "value": "6,581,474,562,706,657"
                            }
                        ],
                        "signature": "mint(address,int24,int24,uint128,bytes)"
                    },
                    "errorInfo": "",
                    "fromAddress": "0x46a15b0b27311cedf172ab29e4f4766fbe7f4364",
                    "gasUsed": 240465,
                    "id": 3,
                    "methodDecoded": true,
                    "operation": "CALL",
                    "output": "0x0000000000000000000000000000000000000000000000005fa1563c10269129000000000000000000000000000000000000000000000000001761d0f5688ce1",
                    "revert": false,
                    "revertMessage": "",
                    "selector": "0x3c8a7d8d",
                    "status": true,
                    "value": "0"
                },
                "nodeType": 0
            },
            "4": {
                "invocation": {
                    "address": "0x152649ea73beab28c5b49b26eb48f7ead6d4c898",
                    "callData": "0x000000000000000000000000517f451b0a9e1b87dc0ae98a05ee033c3310f046",
                    "decodedMethod": {
                        "callParams": [
                            {
                                "name": "account",
                                "type": "address",
                                "value": "0x517f451b0a9e1b87dc0ae98a05ee033c3310f046"
                            }
                        ],
                        "constructorArguments": "",
                        "name": "balanceOf",
                        "returnParams": [
                            {
                                "decimalAvailable": true,
                                "name": "",
                                "type": "uint256",
                                "value": "113,968,869,280,317,818,462,997"
                            }
                        ],
                        "signature": "balanceOf(address)"
                    },
                    "errorInfo": "",
                    "fromAddress": "0x517f451b0a9e1b87dc0ae98a05ee033c3310f046",
                    "gasUsed": 2643,
                    "id": 4,
                    "methodDecoded": true,
                    "operation": "STATICCALL",
                    "output": "0x00000000000000000000000000000000000000000000182243c8d980208ee315",
                    "revert": false,
                    "revertMessage": "",
                    "selector": "0x70a08231",
                    "status": true,
                    "value": "0"
                },
                "nodeType": 0
            },
            "5": {
                "invocation": {
                    "address": "0xc02aaa39b223fe8d0a0e5c4f27ead9083c756cc2",
                    "callData": "0x000000000000000000000000517f451b0a9e1b87dc0ae98a05ee033c3310f046",
                    "decodedMethod": {
                        "callParams": [
                            {
                                "name": "",
                                "type": "address",
                                "value": "0x517f451b0a9e1b87dc0ae98a05ee033c3310f046"
                            }
                        ],
                        "constructorArguments": "",
                        "name": "balanceOf",
                        "returnParams": [
                            {
                                "decimalAvailable": true,
                                "name": "",
                                "type": "uint256",
                                "value": "43,699,835,634,871,293,332"
                            }
                        ],
                        "signature": "balanceOf(address)"
                    },
                    "errorInfo": "",
                    "fromAddress": "0x517f451b0a9e1b87dc0ae98a05ee033c3310f046",
                    "gasUsed": 2534,
                    "id": 5,
                    "methodDecoded": true,
                    "operation": "STATICCALL",
                    "output": "0x0000000000000000000000000000000000000000000000025e7500fa6f75d594",
                    "revert": false,
                    "revertMessage": "",
                    "selector": "0x70a08231",
                    "status": true,
                    "value": "0"
                },
                "nodeType": 0
            },
            "6": {
                "invocation": {
                    "address": "0x46a15b0b27311cedf172ab29e4f4766fbe7f4364",
                    "callData": "0x0000000000000000000000000000000000000000000000005fa1563c10269129000000000000000000000000000000000000000000000000001761d0f5688ce100000000000000000000000000000000000000000000000000000000000000600000000000000000000000000000000000000000000000000000000000000080000000000000000000000000152649ea73beab28c5b49b26eb48f7ead6d4c898000000000000000000000000c02aaa39b223fe8d0a0e5c4f27ead9083c756cc200000000000000000000000000000000000000000000000000000000000009c40000000000000000000000008f85b1c51f33cdf85ed296bddfd78f018ffa3dd4",
                    "decodedMethod": {
                        "callParams": [
                            {
                                "name": "amount0Owed",
                                "type": "uint256",
                                "value": "6,890,883,720,822,559,017"
                            },
                            {
                                "name": "amount1Owed",
                                "type": "uint256",
                                "value": "6,581,474,562,706,657"
                            },
                            {
                                "name": "data",
                                "type": "bytes",
                                "value": "0x000000000000000000000000152649ea73beab28c5b49b26eb48f7ead6d4c898000000000000000000000000c02aaa39b223fe8d0a0e5c4f27ead9083c756cc200000000000000000000000000000000000000000000000000000000000009c40000000000000000000000008f85b1c51f33cdf85ed296bddfd78f018ffa3dd4"
                            }
                        ],
                        "constructorArguments": "",
                        "name": "pancakeV3MintCallback",
                        "returnParams": [],
                        "signature": "pancakeV3MintCallback(uint256,uint256,bytes)"
                    },
                    "errorInfo": "",
                    "fromAddress": "0x517f451b0a9e1b87dc0ae98a05ee033c3310f046",
                    "gasUsed": 54237,
                    "id": 6,
                    "methodDecoded": true,
                    "operation": "CALL",
                    "output": "",
                    "revert": false,
                    "revertMessage": "",
                    "selector": "0x99eee9d0",
                    "status": true,
                    "value": "0"
                },
                "nodeType": 0
            },
            "7": {
                "invocation": {
                    "address": "0x152649ea73beab28c5b49b26eb48f7ead6d4c898",
                    "callData": "0x0000000000000000000000008f85b1c51f33cdf85ed296bddfd78f018ffa3dd4000000000000000000000000517f451b0a9e1b87dc0ae98a05ee033c3310f0460000000000000000000000000000000000000000000000005fa1563c10269129",
                    "decodedMethod": {
                        "callParams": [
                            {
                                "name": "from",
                                "type": "address",
                                "value": "0x8f85b1c51f33cdf85ed296bddfd78f018ffa3dd4"
                            },
                            {
                                "name": "to",
                                "type": "address",
                                "value": "0x517f451b0a9e1b87dc0ae98a05ee033c3310f046"
                            },
                            {
                                "decimalAvailable": true,
                                "name": "amount",
                                "type": "uint256",
                                "value": "6,890,883,720,822,559,017"
                            }
                        ],
                        "constructorArguments": "",
                        "name": "transferFrom",
                        "returnParams": [
                            {
                                "name": "",
                                "type": "bool",
                                "value": true
                            }
                        ],
                        "signature": "transferFrom(address,address,uint256)"
                    },
                    "errorInfo": "",
                    "fromAddress": "0x46a15b0b27311cedf172ab29e4f4766fbe7f4364",
                    "gasUsed": 13315,
                    "id": 7,
                    "methodDecoded": true,
                    "operation": "CALL",
                    "output": "0x0000000000000000000000000000000000000000000000000000000000000001",
                    "revert": false,
                    "revertMessage": "",
                    "selector": "0x23b872dd",
                    "status": true,
                    "value": "0"
                },
                "nodeType": 0
            },
            "8": {
                "event": {
                    "contract": "0x152649ea73beab28c5b49b26eb48f7ead6d4c898",
                    "decodedLog": {
                        "name": "Transfer",
                        "params": [
                            {
                                "name": "from",
                                "type": "address",
                                "value": "0x8f85b1c51f33cdf85ed296bddfd78f018ffa3dd4"
                            },
                            {
                                "name": "to",
                                "type": "address",
                                "value": "0x517f451b0a9e1b87dc0ae98a05ee033c3310f046"
                            },
                            {
                                "decimalAvailable": true,
                                "name": "value",
                                "type": "uint256",
                                "value": "6,890,883,720,822,559,017"
                            }
                        ],
                        "signature": "Transfer(address,address,uint256)"
                    },
                    "id": 8,
                    "logData": "0x0000000000000000000000000000000000000000000000005fa1563c10269129",
                    "logDecoded": true,
                    "operation": "EVENT",
                    "revert": false,
                    "status": true,
                    "topics": [
                        "0xddf252ad1be2c89b69c2b068fc378daa952ba7f163c4a11628f55a4df523b3ef",
                        "0x0000000000000000000000008f85b1c51f33cdf85ed296bddfd78f018ffa3dd4",
                        "0x000000000000000000000000517f451b0a9e1b87dc0ae98a05ee033c3310f046"
                    ]
                },
                "nodeType": 1
            },
            "9": {
                "invocation": {
                    "address": "0xc02aaa39b223fe8d0a0e5c4f27ead9083c756cc2",
                    "callData": "0x",
                    "decodedMethod": {
                        "callParams": [],
                        "constructorArguments": "",
                        "name": "deposit",
                        "returnParams": [],
                        "signature": "deposit()"
                    },
                    "errorInfo": "",
                    "fromAddress": "0x46a15b0b27311cedf172ab29e4f4766fbe7f4364",
                    "gasUsed": 23974,
                    "id": 9,
                    "methodDecoded": true,
                    "operation": "CALL",
                    "output": "",
                    "revert": false,
                    "revertMessage": "",
                    "selector": "0xd0e30db0",
                    "status": true,
                    "value": "0.006581474562706657"
                },
                "nodeType": 0
            }
        },
        "gasFlame": [
            {
                "children": [
                    {
                        "children": [
                            {
                                "children": [],
                                "depth": 0,
                                "name": "Initial Gas",
                                "value": 25608
                            },
                            {
                                "children": [
                                    {
                                        "children": [
                                            {
                                                "children": [],
                                                "depth": 2,
                                                "name": "slot0",
                                                "value": 4863
                                            },
                                            {
                                                "children": [
                                                    {
                                                        "children": [],
                                                        "depth": 3,
                                                        "name": "balanceOf",
                                                        "value": 2643
                                                    },
                                                    {
                                                        "children": [],
                                                        "depth": 3,
                                                        "name": "balanceOf",
                                                        "value": 2534
                                                    },
                                                    {
                                                        "children": [
                                                            {
                                                                "children": [],
                                                                "depth": 4,
                                                                "name": "transferFrom",
                                                                "value": 13315
                                                            },
                                                            {
                                                                "children": [],
                                                                "depth": 4,
                                                                "name": "deposit",
                                                                "value": 23974
                                                            },
                                                            {
                                                                "children": [],
                                                                "depth": 4,
                                                                "name": "transfer",
                                                                "value": 6062
                                                            }
                                                        ],
                                                        "depth": 3,
                                                        "name": "pancakeV3MintCallback",
                                                        "value": 54237
                                                    },
                                                    {
                                                        "children": [],
                                                        "depth": 3,
                                                        "name": "balanceOf",
                                                        "value": 643
                                                    },
                                                    {
                                                        "children": [],
                                                        "depth": 3,
                                                        "name": "balanceOf",
                                                        "value": 534
                                                    }
                                                ],
                                                "depth": 2,
                                                "name": "mint",
                                                "value": 240465
                                            },
                                            {
                                                "children": [],
                                                "depth": 2,
                                                "name": "positions",
                                                "value": 991
                                            }
                                        ],
                                        "depth": 1,
                                        "name": "mint",
                                        "value": 483444
                                    },
                                    {
                                        "children": [],
                                        "depth": 1,
                                        "name": "refundETH",
                                        "value": 233
                                    }
                                ],
                                "depth": 0,
                                "name": "Executed Gas",
                                "value": 486884
                            }
                        ],
                        "depth": -1,
                        "name": "Actual Gas Used",
                        "value": 489792
                    },
                    {
                        "children": [],
                        "depth": -1,
                        "name": "Refunded Gas",
                        "value": 22700
                    }
                ],
                "depth": -2,
                "name": "Total Gas",
                "value": 512492
            }
        ],
        "isConfirmed": true,
        "mainTrace": [
            {
                "children": [
                    {
                        "children": [
                            {
                                "children": [
                                    {
                                        "children": [],
                                        "depth": 2,
                                        "id": 2,
                                        "order": 2
                                    },
                                    {
                                        "children": [
                                            {
                                                "children": [],
                                                "depth": 3,
                                                "id": 4,
                                                "order": 4
                                            },
                                            {
                                                "children": [],
                                                "depth": 3,
                                                "id": 5,
                                                "order": 5
                                            },
                                            {
                                                "children": [
                                                    {
                                                        "children": [
                                                            {
                                                                "children": [],
                                                                "depth": 5,
                                                                "id": 8,
                                                                "order": 8
                                                            }
                                                        ],
                                                        "depth": 4,
                                                        "id": 7,
                                                        "order": 7
                                                    },
                                                    {
                                                        "children": [
                                                            {
                                                                "children": [],
                                                                "depth": 5,
                                                                "id": 10,
                                                                "order": 10
                                                            }
                                                        ],
                                                        "depth": 4,
                                                        "id": 9,
                                                        "order": 9
                                                    },
                                                    {
                                                        "children": [
                                                            {
                                                                "children": [],
                                                                "depth": 5,
                                                                "id": 12,
                                                                "order": 12
                                                            }
                                                        ],
                                                        "depth": 4,
                                                        "id": 11,
                                                        "order": 11
                                                    }
                                                ],
                                                "depth": 3,
                                                "id": 6,
                                                "order": 6
                                            },
                                            {
                                                "children": [],
                                                "depth": 3,
                                                "id": 13,
                                                "order": 13
                                            },
                                            {
                                                "children": [],
                                                "depth": 3,
                                                "id": 14,
                                                "order": 14
                                            },
                                            {
                                                "children": [],
                                                "depth": 3,
                                                "id": 15,
                                                "order": 15
                                            }
                                        ],
                                        "depth": 2,
                                        "id": 3,
                                        "order": 3
                                    },
                                    {
                                        "children": [],
                                        "depth": 2,
                                        "id": 16,
                                        "order": 16
                                    },
                                    {
                                        "children": [],
                                        "depth": 2,
                                        "id": 17,
                                        "order": 17
                                    },
                                    {
                                        "children": [],
                                        "depth": 2,
                                        "id": 18,
                                        "order": 18
                                    }
                                ],
                                "depth": 1,
                                "id": 1,
                                "order": 1
                            },
                            {
                                "children": [],
                                "depth": 1,
                                "id": 19,
                                "order": 19
                            }
                        ],
                        "depth": 0,
                        "id": 0,
                        "order": 0
                    }
                ],
                "depth": -1,
                "id": -1,
                "order": -1
            }
        ],
        "mainTraceNodeCount": 20,
        "parentIdMap": {
            "0": -1,
            "1": 0,
            "10": 9,
            "11": 6,
            "12": 11,
            "13": 3,
            "14": 3,
            "15": 3,
            "16": 1,
            "17": 1,
            "18": 1,
            "19": 0,
            "2": 1,
            "3": 1,
            "4": 3,
            "5": 3,
            "6": 3,
            "7": 6,
            "8": 7,
            "9": 6
        },
        "tidyTrace": [
            {
                "children": [
                    {
                        "children": [
                            {
                                "children": [
                                    {
                                        "children": [
                                            {
                                                "children": [
                                                    {
                                                        "children": [
                                                            {
                                                                "children": [],
                                                                "depth": 5,
                                                                "id": 8,
                                                                "order": 8
                                                            }
                                                        ],
                                                        "depth": 4,
                                                        "id": 7,
                                                        "order": 7
                                                    },
                                                    {
                                                        "children": [
                                                            {
                                                                "children": [],
                                                                "depth": 5,
                                                                "id": 10,
                                                                "order": 10
                                                            }
                                                        ],
                                                        "depth": 4,
                                                        "id": 9,
                                                        "order": 9
                                                    },
                                                    {
                                                        "children": [
                                                            {
                                                                "children": [],
                                                                "depth": 5,
                                                                "id": 12,
                                                                "order": 12
                                                            }
                                                        ],
                                                        "depth": 4,
                                                        "id": 11,
                                                        "order": 11
                                                    }
                                                ],
                                                "depth": 3,
                                                "id": 6,
                                                "order": 6
                                            },
                                            {
                                                "children": [],
                                                "depth": 3,
                                                "id": 15,
                                                "order": 15
                                            }
                                        ],
                                        "depth": 2,
                                        "id": 3,
                                        "order": 3
                                    },
                                    {
                                        "children": [],
                                        "depth": 2,
                                        "id": 16,
                                        "order": 16
                                    },
                                    {
                                        "children": [],
                                        "depth": 2,
                                        "id": 18,
                                        "order": 18
                                    }
                                ],
                                "depth": 1,
                                "id": 1,
                                "order": 1
                            },
                            {
                                "children": [],
                                "depth": 1,
                                "id": 19,
                                "order": 19
                            }
                        ],
                        "depth": 0,
                        "id": 0,
                        "order": 0
                    }
                ],
                "depth": -1,
                "id": -1,
                "order": -1
            }
        ],
        "tidyTraceNodeCount": 14
    },
    "state_change": {
        "stateChanges": [
            {
                "address": "0x152649ea73beab28c5b49b26eb48f7ead6d4c898",
                "erc": "ERC-20",
                "slots": [
                    {
                        "current": "0x0000000000000000000000000000000000000000000000005f1354710baaaaa8",
                        "key": "0xb0d43b4b921c579a86e7924ee1a38562c9161213574062eaca5b5130ff710c8f",
                        "prev": "0x000000000000000000000000000000000000000000000000beb4aaad1bd13bd1"
                    },
                    {
                        "current": "0x000000000000000000000000000000000000000000001822a36a2fbc30b5743e",
                        "key": "0xc5f66f8008ab292786c02b2a7a19d94ff2c05ad9ee228f281c77b2bb7009a245",
                        "prev": "0x00000000000000000000000000000000000000000000182243c8d980208ee315"
                    }
                ],
                "storageVariables": [
                    {
                        "name": "_balances",
                        "type": "mapping(address => uint256)",
                        "value": {
                            "pairs": [
                                {
                                    "key": "0x517f451b0a9e1b87dc0ae98a05ee033c3310f046",
                                    "value": {
                                        "current": "113975760164038641022014",
                                        "prev": "113968869280317818462997",
                                        "typeTag": 1
                                    }
                                },
                                {
                                    "key": "0x8f85b1c51f33cdf85ed296bddfd78f018ffa3dd4",
                                    "value": {
                                        "current": "6850912302664428200",
                                        "prev": "13741796023486987217",
                                        "typeTag": 1
                                    }
                                }
                            ],
                            "typeTag": 4
                        }
                    }
                ]
            },
            {
                "address": "0x46a15b0b27311cedf172ab29e4f4766fbe7f4364",
                "erc": "ERC-721",
                "slots": [
                    {
                        "current": "0x0000000000000000000000000000000000000000000000000000000000000001",
                        "key": "0xd4e4ca6b3cbcb7ec697c297002fabb9545faa82c2fb7b70e953335025fcbdcac",
                        "prev": "0x0000000000000000000000000000000000000000000000000000000000000000"
                    },
                    {
                        "current": "0x000000000000000000000000000000000894026eac7d0df446a2f36b258a1ba6",
                        "key": "0xf7c9915a6e61a69e7d31103c17925181f3bdf7b35f368c8fcd4d1dedc976cce1",
                        "prev": "0x0000000000000000000000000000000000000000000000000000000000000000"
                    },
                    {
                        "current": "0x0000000000000000000000000000000000000000000000000000000000002287",
                        "key": "0x0000000000000000000000000000000000000000000000000000000000000002",
                        "prev": "0x0000000000000000000000000000000000000000000000000000000000002286"
                    },
                    {
                        "current": "0x0000000000000000000000000000000000000000000000000000000000000001",
                        "key": "0x6690bded5590eb29300c0f5e171c0e46cd4d9676a1526f21db35a3e6f448999c",
                        "prev": "0x0000000000000000000000000000000000000000000000000000000000000000"
                    },
                    {
                        "current": "0x0000000000000000000000000000000000000000000000000000000000002287",
                        "key": "0xa1c5d704612818f1591ed73a8fb5d2ecbb2b77bf74ea5dc7cfa49aac9c6e4ce5",
                        "prev": "0x0000000000000000000000000000000000000000000000000000000000000000"
                    },
                    {
                        "current": "0x000000000000000000e3000000000000000000000000000000000000000022e0",
                        "key": "0x000000000000000000000000000000000000000000000000000000000000000d",
                        "prev": "0x000000000000000000e3000000000000000000000000000000000000000022df"
                    },
                    {
                        "current": "0x00000000000000000000000000000000000000000000000000000000000022df",
                        "key": "0x433096dd1d9fc8ff5daeef25439ae4e482cd9aba38c223790e052b28ea23c254",
                        "prev": "0x0000000000000000000000000000000000000000000000000000000000000000"
                    },
                    {
                        "current": "0x00000000000000000a117f867cd51448ff0b78fed52c00000000000000000008",
                        "key": "0xf7c9915a6e61a69e7d31103c17925181f3bdf7b35f368c8fcd4d1dedc976cce0",
                        "prev": "0x0000000000000000000000000000000000000000000000000000000000000000"
                    },
                    {
                        "current": "0x000000000000000000000000000000000001ef94e51083f921c234df6dcb2cc0",
                        "key": "0xf7c9915a6e61a69e7d31103c17925181f3bdf7b35f368c8fcd4d1dedc976cce2",
                        "prev": "0x0000000000000000000000000000000000000000000000000000000000000000"
                    },
                    {
                        "current": "0x00000000000000000000000000000000000000000000000000000000000022df",
                        "key": "0x405787fa12a823e0f2b7631cc41b3ba8828b3321ca811111fa75cd3aa3bb9fda",
                        "prev": "0x0000000000000000000000000000000000000000000000000000000000000000"
                    },
                    {
                        "current": "0x0000000000000000000000008f85b1c51f33cdf85ed296bddfd78f018ffa3dd4",
                        "key": "0x405787fa12a823e0f2b7631cc41b3ba8828b3321ca811111fa75cd3aa3bb9fdb",
                        "prev": "0x0000000000000000000000000000000000000000000000000000000000000000"
                    }
                ],
                "storageVariables": [
                    {
                        "name": "_holderTokens",
                        "type": "mapping(address => struct EnumerableSet.UintSet)",
                        "value": {
                            "pairs": [
                                {
                                    "key": "0x8f85b1c51f33cdf85ed296bddfd78f018ffa3dd4",
                                    "value": {
                                        "fields": [
                                            {
                                                "name": "_inner",
                                                "type": "struct EnumerableSet.Set",
                                                "value": {
                                                    "fields": [
                                                        {
                                                            "name": "_values",
                                                            "type": "bytes32[]",
                                                            "value": {
                                                                "elemType": "bytes32",
                                                                "elems": [
                                                                    {
                                                                        "index": 0,
                                                                        "value": {
                                                                            "current": "0x00000000000000000000000000000000000000000000000000000000000022df",
                                                                            "prev": "0x0000000000000000000000000000000000000000000000000000000000000000",
                                                                            "typeTag": 1
                                                                        }
                                                                    }
                                                                ],
                                                                "typeTag": 2
                                                            }
                                                        },
                                                        {
                                                            "name": "_indexes",
                                                            "type": "mapping(bytes32 => uint256)",
                                                            "value": {
                                                                "pairs": [
                                                                    {
                                                                        "key": "0x00000000000000000000000000000000000000000000000000000000000022df",
                                                                        "value": {
                                                                            "current": "1",
                                                                            "prev": "0",
                                                                            "typeTag": 1
                                                                        }
                                                                    }
                                                                ],
                                                                "typeTag": 4
                                                            }
                                                        }
                                                    ],
                                                    "typeTag": 3
                                                }
                                            }
                                        ],
                                        "typeTag": 3
                                    }
                                }
                            ],
                            "typeTag": 4
                        }
                    },
                    {
                        "name": "_nextId",
                        "type": "uint176",
                        "value": {
                            "current": "8928",
                            "prev": "8927",
                            "typeTag": 1
                        }
                    },
                    {
                        "name": "_nextPoolId",
                        "type": "uint80",
                        "value": {
                            "current": "227",
                            "prev": "227",
                            "typeTag": 1
                        }
                    },
                    {
                        "name": "_positions",
                        "type": "mapping(uint256 => struct NonfungiblePositionManager.Position)",
                        "value": {
                            "pairs": [
                                {
                                    "key": "8927",
                                    "value": {
                                        "fields": [
                                            {
                                                "name": "poolId",
                                                "type": "uint80",
                                                "value": {
                                                    "current": "8",
                                                    "prev": "0",
                                                    "typeTag": 1
                                                }
                                            },
                                            {
                                                "name": "tickLower",
                                                "type": "int24",
                                                "value": {
                                                    "current": "-76500",
                                                    "prev": "0",
                                                    "typeTag": 1
                                                }
                                            },
                                            {
                                                "name": "tickUpper",
                                                "type": "int24",
                                                "value": {
                                                    "current": "-62600",
                                                    "prev": "0",
                                                    "typeTag": 1
                                                }
                                            },
                                            {
                                                "name": "liquidity",
                                                "type": "uint128",
                                                "value": {
                                                    "current": "725501230580044872",
                                                    "prev": "0",
                                                    "typeTag": 1
                                                }
                                            },
                                            {
                                                "name": "feeGrowthInside0LastX128",
                                                "type": "uint256",
                                                "value": {
                                                    "current": "11402333234642168658253863051722365862",
                                                    "prev": "0",
                                                    "typeTag": 1
                                                }
                                            },
                                            {
                                                "name": "feeGrowthInside1LastX128",
                                                "type": "uint256",
                                                "value": {
                                                    "current": "10051589413892975864767698820607168",
                                                    "prev": "0",
                                                    "typeTag": 1
                                                }
                                            }
                                        ],
                                        "typeTag": 3
                                    }
                                }
                            ],
                            "typeTag": 4
                        }
                    },
                    {
                        "name": "_tokenOwners",
                        "type": "struct EnumerableMap.UintToAddressMap",
                        "value": {
                            "fields": [
                                {
                                    "name": "_inner",
                                    "type": "struct EnumerableMap.Map",
                                    "value": {
                                        "fields": [
                                            {
                                                "name": "_entries",
                                                "type": "struct EnumerableMap.MapEntry[]",
                                                "value": {
                                                    "elemType": "struct EnumerableMap.MapEntry",
                                                    "elems": [
                                                        {
                                                            "index": 8838,
                                                            "value": {
                                                                "fields": [
                                                                    {
                                                                        "name": "_key",
                                                                        "type": "bytes32",
                                                                        "value": {
                                                                            "current": "0x00000000000000000000000000000000000000000000000000000000000022df",
                                                                            "prev": "0x0000000000000000000000000000000000000000000000000000000000000000",
                                                                            "typeTag": 1
                                                                        }
                                                                    },
                                                                    {
                                                                        "name": "_value",
                                                                        "type": "bytes32",
                                                                        "value": {
                                                                            "current": "0x0000000000000000000000008f85b1c51f33cdf85ed296bddfd78f018ffa3dd4",
                                                                            "prev": "0x0000000000000000000000000000000000000000000000000000000000000000",
                                                                            "typeTag": 1
                                                                        }
                                                                    }
                                                                ],
                                                                "typeTag": 3
                                                            }
                                                        }
                                                    ],
                                                    "typeTag": 2
                                                }
                                            },
                                            {
                                                "name": "_indexes",
                                                "type": "mapping(bytes32 => uint256)",
                                                "value": {
                                                    "pairs": [
                                                        {
                                                            "key": "0x00000000000000000000000000000000000000000000000000000000000022df",
                                                            "value": {
                                                                "current": "8839",
                                                                "prev": "0",
                                                                "typeTag": 1
                                                            }
                                                        }
                                                    ],
                                                    "typeTag": 4
                                                }
                                            }
                                        ],
                                        "typeTag": 3
                                    }
                                }
                            ],
                            "typeTag": 3
                        }
                    }
                ]
            },
            {
                "address": "0x517f451b0a9e1b87dc0ae98a05ee033c3310f046",
                "erc": "",
                "slots": [
                    {
                        "current": "0x0100000000000000000000000000000000000000000000000000000000000000",
                        "key": "0x5ce672be6ea27d1e363c465dea2bc2e7db3f63c6811768d03a0ffeb37f954f66",
                        "prev": "0x0000000000000000000000000000000000000000000000000000000000000000"
                    },
                    {
                        "current": "0xfffffffffffffffff5ee8079832aebb800000000000000000a117f867cd51448",
                        "key": "0x5ce672be6ea27d1e363c465dea2bc2e7db3f63c6811768d03a0ffeb37f954f63",
                        "prev": "0x0000000000000000000000000000000000000000000000000000000000000000"
                    },
                    {
                        "current": "0x0000000800000000008b1415001310024d00420138a0c18fe9682160554c1335",
                        "key": "0x9cc2f4f257d8c4689a914e0516f0db70400a25d28d14818cfa8aed33037708b9",
                        "prev": "0x0000000800000000008b1415001310024d00420138a0c18fe9682160454c1335"
                    },
                    {
                        "current": "0x0000000000000000000000000000000000000000000000000a117f867cd51448",
                        "key": "0x8589387d4a081860f8fee22cdaba53a90743c20b9033cea34cca7f42971cc910",
                        "prev": "0x0000000000000000000000000000000000000000000000000000000000000000"
                    },
                    {
                        "current": "0x000000000b000b0001fef054000000000000000007e8af37055d104a92c6286e",
                        "key": "0x0000000000000000000000000000000000000000000000000000000000000000",
                        "prev": "0x000000000b000b0000fef054000000000000000007e8af37055d104a92c6286e"
                    },
                    {
                        "current": "0x00000000000000000000000000000000000000000000037ffd242af73c96054b",
                        "key": "0x0000000000000000000000000000000000000000000000000000000000000005",
                        "prev": "0x00000000000000000000000000000000000000000000037ff312ab70bfc0f103"
                    },
                    {
                        "current": "0x000000000000000000000000000000000001ef94e51083f921c234df6dcb2cc0",
                        "key": "0x8589387d4a081860f8fee22cdaba53a90743c20b9033cea34cca7f42971cc912",
                        "prev": "0x0000000000000000000000000000000000000000000000000000000000000000"
                    },
                    {
                        "current": "0x0100000000000000000048e3f70dc2f23a878fe819fffdf18b129718661ad1bb",
                        "key": "0x000000000000000000000000000000000000000000000000000000000000000a",
                        "prev": "0x0100000000000000000048e3eef022b63b63ff0795fffdf1a92c11d8661ab553"
                    },
                    {
                        "current": "0x0000000000000001f8e01495563baee30000000000000001f8e01495563baee3",
                        "key": "0xb0aff93d8aebc3fb54cf7517c73c7d5409778b3b480ff89b8582dcab27522e22",
                        "prev": "0x0000000000000001eece950ed9669a9b0000000000000001eece950ed9669a9b"
                    },
                    {
                        "current": "0x000000000000000000000000000000000894026eac7d0df446a2f36b258a1ba6",
                        "key": "0x8589387d4a081860f8fee22cdaba53a90743c20b9033cea34cca7f42971cc911",
                        "prev": "0x0000000000000000000000000000000000000000000000000000000000000000"
                    }
                ],
                "storageVariables": []
            },
            {
                "address": "0xc02aaa39b223fe8d0a0e5c4f27ead9083c756cc2",
                "erc": "ERC-20",
                "slots": [
                    {
                        "current": "0x0000000000000000000000000000000000000000000000025e8c62cb64de6275",
                        "key": "0xc4cf9bd58ee6837bfb0a5639ce5033591c7d6ca8ffb424942713a142ee7d98ad",
                        "prev": "0x0000000000000000000000000000000000000000000000025e7500fa6f75d594"
                    }
                ],
                "storageVariables": [
                    {
                        "name": "balanceOf",
                        "type": "mapping(address => uint256)",
                        "value": {
                            "pairs": [
                                {
                                    "key": "0x517f451b0a9e1b87dc0ae98a05ee033c3310f046",
                                    "value": {
                                        "current": "43706417109433999989",
                                        "prev": "43699835634871293332",
                                        "typeTag": 1
                                    }
                                }
                            ],
                            "typeTag": 4
                        }
                    }
                ]
            }
        ]
    }
}