{
    "balance_change": {
        "balanceChanges": [
            {
                "account": "0x4c8d1ee7ad32151ff48affe7dbb243e80a2f8d98",
                "assets": [
                    {
                        "address": "0xefb47fcfcad4f96c83d4ca676842fb03ef20a477",
                        "amount": "9.216960853341157029",
                        "iconUrl": "",
                        "isERC1155": false,
                        "isERC721": false,
                        "sign": false,
                        "value": "1922.154798"
                    },
                    {
                        "address": "0x9813037ee2218799597d83d4a5b6f3b6778218d9",
                        "amount": "194.847614909834713931",
                        "iconUrl": "",
                        "isERC1155": false,
                        "isERC721": false,
                        "sign": true,
                        "value": "960.1269876"
                    },
                    {
                        "address": "0xeeeeeeeeeeeeeeeeeeeeeeeeeeeeeeeeeeeeeeee",
                        "amount": "0.454846448334085933",
                        "iconUrl": "https://assets.blocksec.com/image/1663669189317-3.png",
                        "isERC1155": false,
                        "isERC721": false,
                        "sign": true,
                        "value": "1052.7118286462118708"
                    }
                ]
            },
            {
                "account": "0x0000000000000000000000000000000000000000",
                "assets": [
                    {
                        "address": "0xefb47fcfcad4f96c83d4ca676842fb03ef20a477",
                        "amount": "9.120659782320109151",
                        "iconUrl": "",
                        "isERC1155": false,
                        "isERC721": false,
                        "sign": true,
                        "value": "1902.022667"
                    }
                ]
            },
            {
                "account": "0x00e82e98a2119aa175eab206706efe0df2c7d51d",
                "assets": [
                    {
                        "address": "0xefb47fcfcad4f96c83d4ca676842fb03ef20a477",
                        "amount": "0.096301071021047878",
                        "iconUrl": "",
                        "isERC1155": false,
                        "isERC721": false,
                        "sign": true,
                        "value": "20.21618768"
                    }
                ]
            },
            {
                "account": "0xc02aaa39b223fe8d0a0e5c4f27ead9083c756cc2",
                "assets": [
                    {
                        "address": "0xeeeeeeeeeeeeeeeeeeeeeeeeeeeeeeeeeeeeeeee",
                        "amount": "0.454846448334085933",
                        "iconUrl": "https://assets.blocksec.com/image/1663669189317-3.png",
                        "isERC1155": false,
                        "isERC721": false,
                        "sign": false,
                        "value": "1052.7118286462118708"
                    },
                    {
                        "address": "0xc02aaa39b223fe8d0a0e5c4f27ead9083c756cc2",
                        "amount": "0.454846448334085933",
                        "iconUrl": "https://assets.blocksec.com/icon/f1cb2d02c471d545bbc7722daf3277fd852d98e63d118771af7047bd8256c516.png",
                        "isERC1155": false,
                        "isERC721": false,
                        "sign": true,
                        "value": "1052.7118286462118708"
                    }
                ]
            },
            {
                "account": "0xefb47fcfcad4f96c83d4ca676842fb03ef20a477",
                "assets": [
                    {
                        "address": "0x9813037ee2218799597d83d4a5b6f3b6778218d9",
                        "amount": "194.847614909834713931",
                        "iconUrl": "",
                        "isERC1155": false,
                        "isERC721": false,
                        "sign": false,
                        "value": "960.1269876"
                    },
                    {
                        "address": "0xc02aaa39b223fe8d0a0e5c4f27ead9083c756cc2",
                        "amount": "0.454846448334085933",
                        "iconUrl": "https://assets.blocksec.com/icon/f1cb2d02c471d545bbc7722daf3277fd852d98e63d118771af7047bd8256c516.png",
                        "isERC1155": false,
                        "isERC721": false,
                        "sign": false,
                        "value": "1052.7118286462118708"
                    }
                ]
            }
        ]
    },
    "profile": {
        "basic_info": {
            "baseFee": "",
            "blockNumber": 12811958,
            "callData": "0xded9382a0000000000000000000000009813037ee2218799597d83d4a5b6f3b6778218d90000000000000000000000000000000000000000000000007fe939100414b6a500000000000000000000000000000000000000000000000a7f2c68d066d6ef3b0000000000000000000000000000000000000000000000000649dd85c1caa53a0000000000000000000000004c8d1ee7ad32151ff48affe7dbb243e80a2f8d980000000000000000000000000000000000000000000000000000000060ec1f750000000000000000000000000000000000000000000000000000000000000000000000000000000000000000000000000000000000000000000000000000001b99ddfbb3feb3cae0f22709fd9b429a88c4d19264d9af1cfb4c6930f330c7bb4f13d17f1e3be9c39ae64277811a58471e548622598ed65f28313f29c075a65a3d",
            "debugEnable": true,
            "errorInfo": "",
            "eventCount": 10,
            "feeRecipient": "0x01ca8a0ba4a80d12a8fb6e3655688f57b16608cf",
            "formatValue": "0",
            "gasLimit": 331796,
            "gasPrice": "28",
            "gasUsed": 191766,
            "intTxnCount": 15,
            "internalRevert": false,
            "internalRevertMessage": "",
            "isContractCreation": false,
            "isFlashloan": false,
            "maxFee": "",
            "nonce": 102,
            "overwritedBlockNumber": -1,
            "priorityFee": "",
            "receiver": "0x03f7724180aa6b939894b5ca4314783b0b36b329",
            "revertMessage": "",
            "sender": "0x4c8d1ee7ad32151ff48affe7dbb243e80a2f8d98",
            "simulationEnable": true,
            "sourceTxnHash": "0xf8cb725f1b95ca271904d02ca423fb96cf2e459155630e6c423a4f1f3d5d147d",
            "status": true,
            "timestamp": "2021-07-12T10:37:00Z",
            "transactionFee": "0.005369448",
            "txnHash": "0xf8cb725f1b95ca271904d02ca423fb96cf2e459155630e6c423a4f1f3d5d147d",
            "txnIndex": 89,
            "type": 0,
            "value": "0"
        },
        "fund_flow": [
            {
                "amount": "9.216960853341157029",
                "from": "0x4c8d1ee7ad32151ff48affe7dbb243e80a2f8d98",
                "id": 1,
                "isERC1155": false,
                "isERC721": false,
                "isReverted": false,
                "order": 1,
                "to": "0xefb47fcfcad4f96c83d4ca676842fb03ef20a477",
                "token": "0xefb47fcfcad4f96c83d4ca676842fb03ef20a477"
            },
            {
                "amount": "0.096301071021047878",
                "from": "0x0000000000000000000000000000000000000000",
                "id": 2,
                "isERC1155": false,
                "isERC721": false,
                "isReverted": false,
                "order": 2,
                "to": "0x00e82e98a2119aa175eab206706efe0df2c7d51d",
                "token": "0xefb47fcfcad4f96c83d4ca676842fb03ef20a477"
            },
            {
                "amount": "9.216960853341157029",
                "from": "0xefb47fcfcad4f96c83d4ca676842fb03ef20a477",
                "id": 3,
                "isERC1155": false,
                "isERC721": false,
                "isReverted": false,
                "order": 3,
                "to": "0x0000000000000000000000000000000000000000",
                "token": "0xefb47fcfcad4f96c83d4ca676842fb03ef20a477"
            },
            {
                "amount": "194.847614909834713931",
                "from": "0xefb47fcfcad4f96c83d4ca676842fb03ef20a477",
                "id": 4,
                "isERC1155": false,
                "isERC721": false,
                "isReverted": false,
                "order": 4,
                "to": "0x03f7724180aa6b939894b5ca4314783b0b36b329",
                "token": "0x9813037ee2218799597d83d4a5b6f3b6778218d9"
            },
            {
                "amount": "0.454846448334085933",
                "from": "0xefb47fcfcad4f96c83d4ca676842fb03ef20a477",
                "id": 5,
                "isERC1155": false,
                "isERC721": false,
                "isReverted": false,
                "order": 5,
                "to": "0x03f7724180aa6b939894b5ca4314783b0b36b329",
                "token": "0xc02aaa39b223fe8d0a0e5c4f27ead9083c756cc2"
            },
            {
                "amount": "194.847614909834713931",
                "from": "0x03f7724180aa6b939894b5ca4314783b0b36b329",
                "id": 6,
                "isERC1155": false,
                "isERC721": false,
                "isReverted": false,
                "order": 6,
                "to": "0x4c8d1ee7ad32151ff48affe7dbb243e80a2f8d98",
                "token": "0x9813037ee2218799597d83d4a5b6f3b6778218d9"
            },
            {
                "amount": "0.454846448334085933",
                "from": "0xc02aaa39b223fe8d0a0e5c4f27ead9083c756cc2",
                "id": 7,
                "isERC1155": false,
                "isERC721": false,
                "isReverted": false,
                "order": 7,
                "to": "0x03f7724180aa6b939894b5ca4314783b0b36b329",
                "token": "0xeeeeeeeeeeeeeeeeeeeeeeeeeeeeeeeeeeeeeeee"
            },
            {
                "amount": "0.454846448334085933",
                "from": "0x03f7724180aa6b939894b5ca4314783b0b36b329",
                "id": 8,
                "isERC1155": false,
                "isERC721": false,
                "isReverted": false,
                "order": 8,
                "to": "0xc02aaa39b223fe8d0a0e5c4f27ead9083c756cc2",
                "token": "0xc02aaa39b223fe8d0a0e5c4f27ead9083c756cc2"
            },
            {
                "amount": "0.454846448334085933",
                "from": "0x03f7724180aa6b939894b5ca4314783b0b36b329",
                "id": 9,
                "isERC1155": false,
                "isERC721": false,
                "isReverted": false,
                "order": 9,
                "to": "0x4c8d1ee7ad32151ff48affe7dbb243e80a2f8d98",
                "token": "0xeeeeeeeeeeeeeeeeeeeeeeeeeeeeeeeeeeeeeeee"
            }
        ],
        "token_infos": [
            {
                "address": "0x9813037ee2218799597d83d4a5b6f3b6778218d9",
                "decimals": 18
            },
            {
                "address": "0xc02aaa39b223fe8d0a0e5c4f27ead9083c756cc2",
                "decimals": 18
            },
            {
                "address": "0xefb47fcfcad4f96c83d4ca676842fb03ef20a477",
                "decimals": 18
            },
            {
                "address": "0xeeeeeeeeeeeeeeeeeeeeeeeeeeeeeeeeeeeeeeee",
                "decimals": 18
            }
        ]
    },
    "address_label": {
        "labels": [
            {
                "address": "0x0000000000000000000000000000000000000003",
                "label": "Precompiled"
            },
            {
                "address": "0x0000000000000000000000000000000000000004",
                "label": "Precompiled"
            },
            {
                "address": "0xeeeeeeeeeeeeeeeeeeeeeeeeeeeeeeeeeeeeeeee",
                "label": "Ether"
            },
            {
                "address": "0xc02aaa39b223fe8d0a0e5c4f27ead9083c756cc2",
                "label": "Wrapped Ether (WETH)"
            },
            {
                "address": "0xefb47fcfcad4f96c83d4ca676842fb03ef20a477",
                "label": "ShibaSwap LP Token (SSLP)"
            },
            {
                "address": "0x0000000000000000000000000000000000000001",
                "label": "Precompiled"
            },
            {
                "address": "0x0000000000000000000000000000000000000002",
                "label": "Precompiled"
            },
            {
                "address": "0x03f7724180aa6b939894b5ca4314783b0b36b329",
                "label": "Shiba Inu: ShibaSwap"
            },
            {
                "address": "0x9813037ee2218799597d83d4a5b6f3b6778218d9",
                "label": "ShibaSwap: BONE Token"
            },
            {
                "address": "0x115934131916c8b277dd010ee02de363c09d037c",
                "label": "UniswapV2Factory"
            }
        ]
    },
    "trace": {
        "accountLabels": null,
        "dataMap": {
            "-1": {
                "invocation": {
                    "address": "0x4c8d1ee7ad32151ff48affe7dbb243e80a2f8d98",
                    "callData": "",
                    "decodedMethod": null,
                    "errorInfo": "",
                    "fromAddress": "",
                    "gasUsed": 0,
                    "id": -1,
                    "methodDecoded": false,
                    "operation": "",
                    "output": "",
                    "revert": false,
                    "revertMessage": "",
                    "selector": "",
                    "status": false,
                    "value": ""
                },
                "nodeType": 0
            },
            "0": {
                "invocation": {
                    "address": "0x03f7724180aa6b939894b5ca4314783b0b36b329",
                    "callData": "0x0000000000000000000000009813037ee2218799597d83d4a5b6f3b6778218d90000000000000000000000000000000000000000000000007fe939100414b6a500000000000000000000000000000000000000000000000a7f2c68d066d6ef3b0000000000000000000000000000000000000000000000000649dd85c1caa53a0000000000000000000000004c8d1ee7ad32151ff48affe7dbb243e80a2f8d980000000000000000000000000000000000000000000000000000000060ec1f750000000000000000000000000000000000000000000000000000000000000000000000000000000000000000000000000000000000000000000000000000001b99ddfbb3feb3cae0f22709fd9b429a88c4d19264d9af1cfb4c6930f330c7bb4f13d17f1e3be9c39ae64277811a58471e548622598ed65f28313f29c075a65a3d",
                    "decodedMethod": {
                        "callParams": [
                            {
                                "name": "token",
                                "type": "address",
                                "value": "0x9813037ee2218799597d83d4a5b6f3b6778218d9"
                            },
                            {
                                "name": "liquidity",
                                "type": "uint256",
                                "value": "9,216,960,853,341,157,029"
                            },
                            {
                                "name": "amountTokenMin",
                                "type": "uint256",
                                "value": "193,631,255,323,175,481,147"
                            },
                            {
                                "name": "amountETHMin",
                                "type": "uint256",
                                "value": "453,136,804,079,117,626"
                            },
                            {
                                "name": "to",
                                "type": "address",
                                "value": "0x4c8d1ee7ad32151ff48affe7dbb243e80a2f8d98"
                            },
                            {
                                "name": "deadline",
                                "type": "uint256",
                                "value": "1,626,087,285"
                            },
                            {
                                "name": "approveMax",
                                "type": "bool",
                                "value": false
                            },
                            {
                                "name": "v",
                                "type": "uint8",
                                "value": "27"
                            },
                            {
                                "name": "r",
                                "type": "bytes32",
                                "value": "0x99ddfbb3feb3cae0f22709fd9b429a88c4d19264d9af1cfb4c6930f330c7bb4f"
                            },
                            {
                                "name": "s",
                                "type": "bytes32",
                                "value": "0x13d17f1e3be9c39ae64277811a58471e548622598ed65f28313f29c075a65a3d"
                            }
                        ],
                        "constructorArguments": "",
                        "name": "removeLiquidityETHWithPermit",
                        "returnParams": [
                            {
                                "name": "amountToken",
                                "type": "uint256",
                                "value": "194,847,614,909,834,713,931"
                            },
                            {
                                "name": "amountETH",
                                "type": "uint256",
                                "value": "454,846,448,334,085,933"
                            }
                        ],
                        "signature": "removeLiquidityETHWithPermit(address,uint256,uint256,uint256,address,uint256,bool,uint8,bytes32,bytes32)"
                    },
                    "errorInfo": "",
                    "fromAddress": "0x4c8d1ee7ad32151ff48affe7dbb243e80a2f8d98",
                    "gasUsed": 191766,
                    "id": 0,
                    "methodDecoded": true,
                    "operation": "CALL",
                    "output": "0x00000000000000000000000000000000000000000000000a900dc969e0cddb4b000000000000000000000000000000000000000000000000064ff06f544d1f2d",
                    "revert": false,
                    "revertMessage": "",
                    "selector": "0xded9382a",
                    "status": true,
                    "value": "0"
                },
                "nodeType": 0
            },
            "1": {
                "invocation": {
                    "address": "0xefb47fcfcad4f96c83d4ca676842fb03ef20a477",
                    "callData": "0x0000000000000000000000004c8d1ee7ad32151ff48affe7dbb243e80a2f8d9800000000000000000000000003f7724180aa6b939894b5ca4314783b0b36b3290000000000000000000000000000000000000000000000007fe939100414b6a50000000000000000000000000000000000000000000000000000000060ec1f75000000000000000000000000000000000000000000000000000000000000001b99ddfbb3feb3cae0f22709fd9b429a88c4d19264d9af1cfb4c6930f330c7bb4f13d17f1e3be9c39ae64277811a58471e548622598ed65f28313f29c075a65a3d",
                    "decodedMethod": {
                        "callParams": [
                            {
                                "name": "owner",
                                "type": "address",
                                "value": "0x4c8d1ee7ad32151ff48affe7dbb243e80a2f8d98"
                            },
                            {
                                "name": "spender",
                                "type": "address",
                                "value": "0x03f7724180aa6b939894b5ca4314783b0b36b329"
                            },
                            {
                                "name": "value",
                                "type": "uint256",
                                "value": "9,216,960,853,341,157,029"
                            },
                            {
                                "name": "deadline",
                                "type": "uint256",
                                "value": "1,626,087,285"
                            },
                            {
                                "name": "v",
                                "type": "uint8",
                                "value": "27"
                            },
                            {
                                "name": "r",
                                "type": "bytes32",
                                "value": "0x99ddfbb3feb3cae0f22709fd9b429a88c4d19264d9af1cfb4c6930f330c7bb4f"
                            },
                            {
                                "name": "s",
                                "type": "bytes32",
                                "value": "0x13d17f1e3be9c39ae64277811a58471e548622598ed65f28313f29c075a65a3d"
                            }
                        ],
                        "constructorArguments": "",
                        "name": "permit",
                        "returnParams": [],
                        "signature": "permit(address,address,uint256,uint256,uint8,bytes32,bytes32)"
                    },
                    "errorInfo": "",
                    "fromAddress": "0x03f7724180aa6b939894b5ca4314783b0b36b329",
                    "gasUsed": 52825,
                    "id": 1,
                    "methodDecoded": true,
                    "operation": "CALL",
                    "output": "",
                    "revert": false,
                    "revertMessage": "",
                    "selector": "0xd505accf",
                    "status": true,
                    "value": "0"
                },
                "nodeType": 0
            },
            "10": {
                "event": {
                    "contract": "0xefb47fcfcad4f96c83d4ca676842fb03ef20a477",
                    "decodedLog": {
                        "name": "Transfer",
                        "params": [
                            {
                                "name": "from",
                                "type": "address",
                                "value": "0x0000000000000000000000000000000000000000"
                            },
                            {
                                "name": "to",
                                "type": "address",
                                "value": "0x00e82e98a2119aa175eab206706efe0df2c7d51d"
                            },
                            {
                                "decimalAvailable": true,
                                "name": "value",
                                "type": "uint256",
                                "value": "96,301,071,021,047,878"
                            }
                        ],
                        "signature": "Transfer(address,address,uint256)"
                    },
                    "id": 10,
                    "logData": "0x0000000000000000000000000000000000000000000000000156215059b30046",
                    "logDecoded": true,
                    "operation": "EVENT",
                    "revert": false,
                    "status": true,
                    "topics": [
                        "0xddf252ad1be2c89b69c2b068fc378daa952ba7f163c4a11628f55a4df523b3ef",
                        "0x0000000000000000000000000000000000000000000000000000000000000000",
                        "0x00000000000000000000000000e82e98a2119aa175eab206706efe0df2c7d51d"
                    ]
                },
                "nodeType": 1
            },
            "11": {
                "event": {
                    "contract": "0xefb47fcfcad4f96c83d4ca676842fb03ef20a477",
                    "decodedLog": {
                        "name": "Transfer",
                        "params": [
                            {
                                "name": "from",
                                "type": "address",
                                "value": "0xefb47fcfcad4f96c83d4ca676842fb03ef20a477"
                            },
                            {
                                "name": "to",
                                "type": "address",
                                "value": "0x0000000000000000000000000000000000000000"
                            },
                            {
                                "decimalAvailable": true,
                                "name": "value",
                                "type": "uint256",
                                "value": "9,216,960,853,341,157,029"
                            }
                        ],
                        "signature": "Transfer(address,address,uint256)"
                    },
                    "id": 11,
                    "logData": "0x0000000000000000000000000000000000000000000000007fe939100414b6a5",
                    "logDecoded": true,
                    "operation": "EVENT",
                    "revert": false,
                    "status": true,
                    "topics": [
                        "0xddf252ad1be2c89b69c2b068fc378daa952ba7f163c4a11628f55a4df523b3ef",
                        "0x000000000000000000000000efb47fcfcad4f96c83d4ca676842fb03ef20a477",
                        "0x0000000000000000000000000000000000000000000000000000000000000000"
                    ]
                },
                "nodeType": 1
            },
            "12": {
                "invocation": {
                    "address": "0x9813037ee2218799597d83d4a5b6f3b6778218d9",
                    "callData": "0x00000000000000000000000003f7724180aa6b939894b5ca4314783b0b36b32900000000000000000000000000000000000000000000000a900dc969e0cddb4b",
                    "decodedMethod": {
                        "callParams": [
                            {
                                "name": "recipient",
                                "type": "address",
                                "value": "0x03f7724180aa6b939894b5ca4314783b0b36b329"
                            },
                            {
                                "decimalAvailable": true,
                                "name": "amount",
                                "type": "uint256",
                                "value": "194,847,614,909,834,713,931"
                            }
                        ],
                        "constructorArguments": "",
                        "name": "transfer",
                        "returnParams": [
                            {
                                "name": "",
                                "type": "bool",
                                "value": true
                            }
                        ],
                        "signature": "transfer(address,uint256)"
                    },
                    "errorInfo": "",
                    "fromAddress": "0xefb47fcfcad4f96c83d4ca676842fb03ef20a477",
                    "gasUsed": 32556,
                    "id": 12,
                    "methodDecoded": true,
                    "operation": "CALL",
                    "output": "0x0000000000000000000000000000000000000000000000000000000000000001",
                    "revert": false,
                    "revertMessage": "",
                    "selector": "0xa9059cbb",
                    "status": true,
                    "value": "0"
                },
                "nodeType": 0
            },
            "13": {
                "event": {
                    "contract": "0x9813037ee2218799597d83d4a5b6f3b6778218d9",
                    "decodedLog": {
                        "name": "Transfer",
                        "params": [
                            {
                                "name": "from",
                                "type": "address",
                                "value": "0xefb47fcfcad4f96c83d4ca676842fb03ef20a477"
                            },
                            {
                                "name": "to",
                                "type": "address",
                                "value": "0x03f7724180aa6b939894b5ca4314783b0b36b329"
                            },
                            {
                                "decimalAvailable": true,
                                "name": "value",
                                "type": "uint256",
                                "value": "194,847,614,909,834,713,931"
                            }
                        ],
                        "signature": "Transfer(address,address,uint256)"
                    },
                    "id": 13,
                    "logData": "0x00000000000000000000000000000000000000000000000a900dc969e0cddb4b",
                    "logDecoded": true,
                    "operation": "EVENT",
                    "revert": false,
                    "status": true,
                    "topics": [
                        "0xddf252ad1be2c89b69c2b068fc378daa952ba7f163c4a11628f55a4df523b3ef",
                        "0x000000000000000000000000efb47fcfcad4f96c83d4ca676842fb03ef20a477",
                        "0x00000000000000000000000003f7724180aa6b939894b5ca4314783b0b36b329"
                    ]
                },
                "nodeType": 1
            },
            "14": {
                "invocation": {
                    "address": "0xc02aaa39b223fe8d0a0e5c4f27ead9083c756cc2",
                    "callData": "0x00000000000000000000000003f7724180aa6b939894b5ca4314783b0b36b329000000000000000000000000000000000000000000000000064ff06f544d1f2d",
                    "decodedMethod": {
                        "callParams": [
                            {
                                "name": "dst",
                                "type": "address",
                                "value": "0x03f7724180aa6b939894b5ca4314783b0b36b329"
                            },
                            {
                                "decimalAvailable": true,
                                "name": "wad",
                                "type": "uint256",
                                "value": "454,846,448,334,085,933"
                            }
                        ],
                        "constructorArguments": "",
                        "name": "transfer",
                        "returnParams": [
                            {
                                "name": "",
                                "type": "bool",
                                "value": true
                            }
                        ],
                        "signature": "transfer(address,uint256)"
                    },
                    "errorInfo": "",
                    "fromAddress": "0xefb47fcfcad4f96c83d4ca676842fb03ef20a477",
                    "gasUsed": 27962,
                    "id": 14,
                    "methodDecoded": true,
                    "operation": "CALL",
                    "output": "0x0000000000000000000000000000000000000000000000000000000000000001",
                    "revert": false,
                    "revertMessage": "",
                    "selector": "0xa9059cbb",
                    "status": true,
                    "value": "0"
                },
                "nodeType": 0
            },
            "15": {
                "event": {
                    "contract": "0xc02aaa39b223fe8d0a0e5c4f27ead9083c756cc2",
                    "decodedLog": {
                        "name": "Transfer",
                        "params": [
                            {
                                "name": "src",
                                "type": "address",
                                "value": "0xefb47fcfcad4f96c83d4ca676842fb03ef20a477"
                            },
                            {
                                "name": "dst",
                                "type": "address",
                                "value": "0x03f7724180aa6b939894b5ca4314783b0b36b329"
                            },
                            {
                                "decimalAvailable": true,
                                "name": "wad",
                                "type": "uint256",
                                "value": "454,846,448,334,085,933"
                            }
                        ],
                        "signature": "Transfer(address,address,uint256)"
                    },
                    "id": 15,
                    "logData": "0x000000000000000000000000000000000000000000000000064ff06f544d1f2d",
                    "logDecoded": true,
                    "operation": "EVENT",
                    "revert": false,
                    "status": true,
                    "topics": [
                        "0xddf252ad1be2c89b69c2b068fc378daa952ba7f163c4a11628f55a4df523b3ef",
                        "0x000000000000000000000000efb47fcfcad4f96c83d4ca676842fb03ef20a477",
                        "0x00000000000000000000000003f7724180aa6b939894b5ca4314783b0b36b329"
                    ]
                },
                "nodeType": 1
            },
            "16": {
                "invocation": {
                    "address": "0x9813037ee2218799597d83d4a5b6f3b6778218d9",
                    "callData": "0x000000000000000000000000efb47fcfcad4f96c83d4ca676842fb03ef20a477",
                    "decodedMethod": {
                        "callParams": [
                            {
                                "name": "account",
                                "type": "address",
                                "value": "0xefb47fcfcad4f96c83d4ca676842fb03ef20a477"
                            }
                        ],
                        "constructorArguments": "",
                        "name": "balanceOf",
                        "returnParams": [
                            {
                                "decimalAvailable": true,
                                "name": "",
                                "type": "uint256",
                                "value": "7,503,746,031,056,335,166,132,228"
                            }
                        ],
                        "signature": "balanceOf(address)"
                    },
                    "errorInfo": "",
                    "fromAddress": "0xefb47fcfcad4f96c83d4ca676842fb03ef20a477",
                    "gasUsed": 534,
                    "id": 16,
                    "methodDecoded": true,
                    "operation": "STATICCALL",
                    "output": "0x0000000000000000000000000000000000000000000634fae32ec7601e625004",
                    "revert": false,
                    "revertMessage": "",
                    "selector": "0x70a08231",
                    "status": true,
                    "value": "0"
                },
                "nodeType": 0
            },
            "17": {
                "invocation": {
                    "address": "0xc02aaa39b223fe8d0a0e5c4f27ead9083c756cc2",
                    "callData": "0x000000000000000000000000efb47fcfcad4f96c83d4ca676842fb03ef20a477",
                    "decodedMethod": {
                        "callParams": [
                            {
                                "name": "",
                                "type": "address",
                                "value": "0xefb47fcfcad4f96c83d4ca676842fb03ef20a477"
                            }
                        ],
                        "constructorArguments": "",
                        "name": "balanceOf",
                        "returnParams": [
                            {
                                "decimalAvailable": true,
                                "name": "",
                                "type": "uint256",
                                "value": "17,516,520,451,155,380,149,601"
                            }
                        ],
                        "signature": "balanceOf(address)"
                    },
                    "errorInfo": "",
                    "fromAddress": "0xefb47fcfcad4f96c83d4ca676842fb03ef20a477",
                    "gasUsed": 534,
                    "id": 17,
                    "methodDecoded": true,
                    "operation": "STATICCALL",
                    "output": "0x0000000000000000000000000000000000000000000003b5928dcfd2ad901d61",
                    "revert": false,
                    "revertMessage": "",
                    "selector": "0x70a08231",
                    "status": true,
                    "value": "0"
                },
                "nodeType": 0
            },
            "18": {
                "event": {
                    "contract": "0xefb47fcfcad4f96c83d4ca676842fb03ef20a477",
                    "decodedLog": {
                        "name": "Sync",
                        "params": [
                            {
                                "name": "reserve0",
                                "type": "uint112",
                                "value": "7,503,746,031,056,335,166,132,228"
                            },
                            {
                                "name": "reserve1",
                                "type": "uint112",
                                "value": "17,516,520,451,155,380,149,601"
                            }
                        ],
                        "signature": "Sync(uint112,uint112)"
                    },
                    "id": 18,
                    "logData": "0x0000000000000000000000000000000000000000000634fae32ec7601e6250040000000000000000000000000000000000000000000003b5928dcfd2ad901d61",
                    "logDecoded": true,
                    "operation": "EVENT",
                    "revert": false,
                    "status": true,
                    "topics": [
                        "0x1c411e9a96e071241c2f21f7726b17ae89e3cab4c78be50e062b03a9fffbbad1"
                    ]
                },
                "nodeType": 1
            },
            "19": {
                "event": {
                    "contract": "0xefb47fcfcad4f96c83d4ca676842fb03ef20a477",
                    "decodedLog": {
                        "name": "Burn",
                        "params": [
                            {
                                "name": "sender",
                                "type": "address",
                                "value": "0x03f7724180aa6b939894b5ca4314783b0b36b329"
                            },
                            {
                                "name": "to",
                                "type": "address",
                                "value": "0x03f7724180aa6b939894b5ca4314783b0b36b329"
                            },
                            {
                                "name": "amount0",
                                "type": "uint256",
                                "value": "194,847,614,909,834,713,931"
                            },
                            {
                                "name": "amount1",
                                "type": "uint256",
                                "value": "454,846,448,334,085,933"
                            }
                        ],
                        "signature": "Burn(address,uint256,uint256,address)"
                    },
                    "id": 19,
                    "logData": "0x00000000000000000000000000000000000000000000000a900dc969e0cddb4b000000000000000000000000000000000000000000000000064ff06f544d1f2d",
                    "logDecoded": true,
                    "operation": "EVENT",
                    "revert": false,
                    "status": true,
                    "topics": [
                        "0xdccd412f0b1252819cb1fd330b93224ca42612892bb3f4f789976e6d81936496",
                        "0x00000000000000000000000003f7724180aa6b939894b5ca4314783b0b36b329",
                        "0x00000000000000000000000003f7724180aa6b939894b5ca4314783b0b36b329"
                    ]
                },
                "nodeType": 1
            },
            "2": {
                "invocation": {
                    "address": "0x0000000000000000000000000000000000000001",
                    "callData": "0xef981050725f636bf3a768532789869b92644920a837a4f63dc925cb000000000000000000000000000000000000000000000000000000000000001b99ddfbb3feb3cae0f22709fd9b429a88c4d19264d9af1cfb4c6930f330c7bb4f13d17f1e3be9c39ae64277811a58471e548622598ed65f28313f29c075a65a3d",
                    "decodedMethod": {
                        "callParams": [
                            {
                                "name": "hash",
                                "type": "bytes32",
                                "value": "0x96765dd3ef981050725f636bf3a768532789869b92644920a837a4f63dc925cb"
                            },
                            {
                                "name": "v",
                                "type": "uint256",
                                "value": "27"
                            },
                            {
                                "name": "r",
                                "type": "bytes32",
                                "value": "0x99ddfbb3feb3cae0f22709fd9b429a88c4d19264d9af1cfb4c6930f330c7bb4f"
                            },
                            {
                                "name": "s",
                                "type": "bytes32",
                                "value": "0x13d17f1e3be9c39ae64277811a58471e548622598ed65f28313f29c075a65a3d"
                            }
                        ],
                        "constructorArguments": "",
                        "name": "ecrecover",
                        "returnParams": [
                            {
                                "name": "",
                                "type": "address",
                                "value": "0x4c8d1ee7ad32151ff48affe7dbb243e80a2f8d98"
                            }
                        ],
                        "signature": "ecrecover(bytes32,uint256,bytes32,bytes32)"
                    },
                    "errorInfo": "",
                    "fromAddress": "0xefb47fcfcad4f96c83d4ca676842fb03ef20a477",
                    "gasUsed": 3000,
                    "id": 2,
                    "methodDecoded": true,
                    "operation": "STATICCALL",
                    "output": "0x0000000000000000000000004c8d1ee7ad32151ff48affe7dbb243e80a2f8d98",
                    "revert": false,
                    "revertMessage": "",
                    "selector": "0x96765dd3",
                    "status": true,
                    "value": "0"
                },
                "nodeType": 0
            },
            "20": {
                "invocation": {
                    "address": "0x9813037ee2218799597d83d4a5b6f3b6778218d9",
                    "callData": "0x0000000000000000000000004c8d1ee7ad32151ff48affe7dbb243e80a2f8d9800000000000000000000000000000000000000000000000a900dc969e0cddb4b",
                    "decodedMethod": {
                        "callParams": [
                            {
                                "name": "recipient",
                                "type": "address",
                                "value": "0x4c8d1ee7ad32151ff48affe7dbb243e80a2f8d98"
                            },
                            {
                                "decimalAvailable": true,
                                "name": "amount",
                                "type": "uint256",
                                "value": "194,847,614,909,834,713,931"
                            }
                        ],
                        "constructorArguments": "",
                        "name": "transfer",
                        "returnParams": [
                            {
                                "name": "",
                                "type": "bool",
                                "value": true
                            }
                        ],
                        "signature": "transfer(address,uint256)"
                    },
                    "errorInfo": "",
                    "fromAddress": "0x03f7724180aa6b939894b5ca4314783b0b36b329",
                    "gasUsed": 10656,
                    "id": 20,
                    "methodDecoded": true,
                    "operation": "CALL",
                    "output": "0x0000000000000000000000000000000000000000000000000000000000000001",
                    "revert": false,
                    "revertMessage": "",
                    "selector": "0xa9059cbb",
                    "status": true,
                    "value": "0"
                },
                "nodeType": 0
            },
            "21": {
                "event": {
                    "contract": "0x9813037ee2218799597d83d4a5b6f3b6778218d9",
                    "decodedLog": {
                        "name": "Transfer",
                        "params": [
                            {
                                "name": "from",
                                "type": "address",
                                "value": "0x03f7724180aa6b939894b5ca4314783b0b36b329"
                            },
                            {
                                "name": "to",
                                "type": "address",
                                "value": "0x4c8d1ee7ad32151ff48affe7dbb243e80a2f8d98"
                            },
                            {
                                "decimalAvailable": true,
                                "name": "value",
                                "type": "uint256",
                                "value": "194,847,614,909,834,713,931"
                            }
                        ],
                        "signature": "Transfer(address,address,uint256)"
                    },
                    "id": 21,
                    "logData": "0x00000000000000000000000000000000000000000000000a900dc969e0cddb4b",
                    "logDecoded": true,
                    "operation": "EVENT",
                    "revert": false,
                    "status": true,
                    "topics": [
                        "0xddf252ad1be2c89b69c2b068fc378daa952ba7f163c4a11628f55a4df523b3ef",
                        "0x00000000000000000000000003f7724180aa6b939894b5ca4314783b0b36b329",
                        "0x0000000000000000000000004c8d1ee7ad32151ff48affe7dbb243e80a2f8d98"
                    ]
                },
                "nodeType": 1
            },
            "22": {
                "invocation": {
                    "address": "0xc02aaa39b223fe8d0a0e5c4f27ead9083c756cc2",
                    "callData": "0x000000000000000000000000000000000000000000000000064ff06f544d1f2d",
                    "decodedMethod": {
                        "callParams": [
                            {
                                "name": "wad",
                                "type": "uint256",
                                "value": "454,846,448,334,085,933"
                            }
                        ],
                        "constructorArguments": "",
                        "name": "withdraw",
                        "returnParams": [],
                        "signature": "withdraw(uint256)"
                    },
                    "errorInfo": "",
                    "fromAddress": "0x03f7724180aa6b939894b5ca4314783b0b36b329",
                    "gasUsed": 9235,
                    "id": 22,
                    "methodDecoded": true,
                    "operation": "CALL",
                    "output": "",
                    "revert": false,
                    "revertMessage": "",
                    "selector": "0x2e1a7d4d",
                    "status": true,
                    "value": "0"
                },
                "nodeType": 0
            },
            "23": {
                "invocation": {
                    "address": "0x03f7724180aa6b939894b5ca4314783b0b36b329",
                    "callData": "0x",
                    "decodedMethod": null,
                    "errorInfo": "",
                    "fromAddress": "0xc02aaa39b223fe8d0a0e5c4f27ead9083c756cc2",
                    "gasUsed": 95,
                    "id": 23,
                    "methodDecoded": false,
                    "operation": "CALL",
                    "output": "",
                    "revert": false,
                    "revertMessage": "",
                    "selector": "fallback",
                    "status": true,
                    "value": "0.454846448334085933"
                },
                "nodeType": 0
            },
            "24": {
                "event": {
                    "contract": "0xc02aaa39b223fe8d0a0e5c4f27ead9083c756cc2",
                    "decodedLog": {
                        "name": "Withdrawal",
                        "params": [
                            {
                                "name": "src",
                                "type": "address",
                                "value": "0x03f7724180aa6b939894b5ca4314783b0b36b329"
                            },
                            {
                                "name": "wad",
                                "type": "uint256",
                                "value": "454,846,448,334,085,933"
                            }
                        ],
                        "signature": "Withdrawal(address,uint256)"
                    },
                    "id": 24,
                    "logData": "0x000000000000000000000000000000000000000000000000064ff06f544d1f2d",
                    "logDecoded": true,
                    "operation": "EVENT",
                    "revert": false,
                    "status": true,
                    "topics": [
                        "0x7fcf532c15f0a6db0bd6d0e038bea71d30d808c7d98cb3bf7268a95bf5081b65",
                        "0x00000000000000000000000003f7724180aa6b939894b5ca4314783b0b36b329"
                    ]
                },
                "nodeType": 1
            },
            "25": {
                "invocation": {
                    "address": "0x4c8d1ee7ad32151ff48affe7dbb243e80a2f8d98",
                    "callData": "0x",
                    "decodedMethod": null,
                    "errorInfo": "",
                    "fromAddress": "0x03f7724180aa6b939894b5ca4314783b0b36b329",
                    "gasUsed": 0,
                    "id": 25,
                    "methodDecoded": false,
                    "operation": "CALL",
                    "output": "",
                    "revert": false,
                    "revertMessage": "",
                    "selector": "fallback",
                    "status": true,
                    "value": "0.454846448334085933"
                },
                "nodeType": 0
            },
            "3": {
                "event": {
                    "contract": "0xefb47fcfcad4f96c83d4ca676842fb03ef20a477",
                    "decodedLog": {
                        "name": "Approval",
                        "params": [
                            {
                                "name": "owner",
                                "type": "address",
                                "value": "0x4c8d1ee7ad32151ff48affe7dbb243e80a2f8d98"
                            },
                            {
                                "name": "spender",
                                "type": "address",
                                "value": "0x03f7724180aa6b939894b5ca4314783b0b36b329"
                            },
                            {
                                "decimalAvailable": true,
                                "name": "value",
                                "type": "uint256",
                                "value": "9,216,960,853,341,157,029"
                            }
                        ],
                        "signature": "Approval(address,address,uint256)"
                    },
                    "id": 3,
                    "logData": "0x0000000000000000000000000000000000000000000000007fe939100414b6a5",
                    "logDecoded": true,
                    "operation": "EVENT",
                    "revert": false,
                    "status": true,
                    "topics": [
                        "0x8c5be1e5ebec7d5bd14f71427d1e84f3dd0314c0f7b2291e5b200ac8c7c3b925",
                        "0x0000000000000000000000004c8d1ee7ad32151ff48affe7dbb243e80a2f8d98",
                        "0x00000000000000000000000003f7724180aa6b939894b5ca4314783b0b36b329"
                    ]
                },
                "nodeType": 1
            },
            "4": {
                "invocation": {
                    "address": "0xefb47fcfcad4f96c83d4ca676842fb03ef20a477",
                    "callData": "0x0000000000000000000000004c8d1ee7ad32151ff48affe7dbb243e80a2f8d98000000000000000000000000efb47fcfcad4f96c83d4ca676842fb03ef20a4770000000000000000000000000000000000000000000000007fe939100414b6a5",
                    "decodedMethod": {
                        "callParams": [
                            {
                                "name": "from",
                                "type": "address",
                                "value": "0x4c8d1ee7ad32151ff48affe7dbb243e80a2f8d98"
                            },
                            {
                                "name": "to",
                                "type": "address",
                                "value": "0xefb47fcfcad4f96c83d4ca676842fb03ef20a477"
                            },
                            {
                                "decimalAvailable": true,
                                "name": "value",
                                "type": "uint256",
                                "value": "9,216,960,853,341,157,029"
                            }
                        ],
                        "constructorArguments": "",
                        "name": "transferFrom",
                        "returnParams": [
                            {
                                "name": "",
                                "type": "bool",
                                "value": true
                            }
                        ],
                        "signature": "transferFrom(address,address,uint256)"
                    },
                    "errorInfo": "",
                    "fromAddress": "0x03f7724180aa6b939894b5ca4314783b0b36b329",
                    "gasUsed": 30715,
                    "id": 4,
                    "methodDecoded": true,
                    "operation": "CALL",
                    "output": "0x0000000000000000000000000000000000000000000000000000000000000001",
                    "revert": false,
                    "revertMessage": "",
                    "selector": "0x23b872dd",
                    "status": true,
                    "value": "0"
                },
                "nodeType": 0
            },
            "5": {
                "event": {
                    "contract": "0xefb47fcfcad4f96c83d4ca676842fb03ef20a477",
                    "decodedLog": {
                        "name": "Transfer",
                        "params": [
                            {
                                "name": "from",
                                "type": "address",
                                "value": "0x4c8d1ee7ad32151ff48affe7dbb243e80a2f8d98"
                            },
                            {
                                "name": "to",
                                "type": "address",
                                "value": "0xefb47fcfcad4f96c83d4ca676842fb03ef20a477"
                            },
                            {
                                "decimalAvailable": true,
                                "name": "value",
                                "type": "uint256",
                                "value": "9,216,960,853,341,157,029"
                            }
                        ],
                        "signature": "Transfer(address,address,uint256)"
                    },
                    "id": 5,
                    "logData": "0x0000000000000000000000000000000000000000000000007fe939100414b6a5",
                    "logDecoded": true,
                    "operation": "EVENT",
                    "revert": false,
                    "status": true,
                    "topics": [
                        "0xddf252ad1be2c89b69c2b068fc378daa952ba7f163c4a11628f55a4df523b3ef",
                        "0x0000000000000000000000004c8d1ee7ad32151ff48affe7dbb243e80a2f8d98",
                        "0x000000000000000000000000efb47fcfcad4f96c83d4ca676842fb03ef20a477"
                    ]
                },
                "nodeType": 1
            },
            "6": {
                "invocation": {
                    "address": "0xefb47fcfcad4f96c83d4ca676842fb03ef20a477",
                    "callData": "0x00000000000000000000000003f7724180aa6b939894b5ca4314783b0b36b329",
                    "decodedMethod": {
                        "callParams": [
                            {
                                "name": "to",
                                "type": "address",
                                "value": "0x03f7724180aa6b939894b5ca4314783b0b36b329"
                            }
                        ],
                        "constructorArguments": "",
                        "name": "burn",
                        "returnParams": [
                            {
                                "name": "amount0",
                                "type": "uint256",
                                "value": "194,847,614,909,834,713,931"
                            },
                            {
                                "name": "amount1",
                                "type": "uint256",
                                "value": "454,846,448,334,085,933"
                            }
                        ],
                        "signature": "burn(address)"
                    },
                    "errorInfo": "",
                    "fromAddress": "0x03f7724180aa6b939894b5ca4314783b0b36b329",
                    "gasUsed": 146705,
                    "id": 6,
                    "methodDecoded": true,
                    "operation": "CALL",
                    "output": "0x00000000000000000000000000000000000000000000000a900dc969e0cddb4b000000000000000000000000000000000000000000000000064ff06f544d1f2d",
                    "revert": false,
                    "revertMessage": "",
                    "selector": "0x89afcb44",
                    "status": true,
                    "value": "0"
                },
                "nodeType": 0
            },
            "7": {
                "invocation": {
                    "address": "0x9813037ee2218799597d83d4a5b6f3b6778218d9",
                    "callData": "0x000000000000000000000000efb47fcfcad4f96c83d4ca676842fb03ef20a477",
                    "decodedMethod": {
                        "callParams": [
                            {
                                "name": "account",
                                "type": "address",
                                "value": "0xefb47fcfcad4f96c83d4ca676842fb03ef20a477"
                            }
                        ],
                        "constructorArguments": "",
                        "name": "balanceOf",
                        "returnParams": [
                            {
                                "decimalAvailable": true,
                                "name": "",
                                "type": "uint256",
                                "value": "7,503,940,878,671,245,000,846,159"
                            }
                        ],
                        "signature": "balanceOf(address)"
                    },
                    "errorInfo": "",
                    "fromAddress": "0xefb47fcfcad4f96c83d4ca676842fb03ef20a477",
                    "gasUsed": 2534,
                    "id": 7,
                    "methodDecoded": true,
                    "operation": "STATICCALL",
                    "output": "0x000000000000000000000000000000000000000000063505733c90c9ff302b4f",
                    "revert": false,
                    "revertMessage": "",
                    "selector": "0x70a08231",
                    "status": true,
                    "value": "0"
                },
                "nodeType": 0
            },
            "8": {
                "invocation": {
                    "address": "0xc02aaa39b223fe8d0a0e5c4f27ead9083c756cc2",
                    "callData": "0x000000000000000000000000efb47fcfcad4f96c83d4ca676842fb03ef20a477",
                    "decodedMethod": {
                        "callParams": [
                            {
                                "name": "",
                                "type": "address",
                                "value": "0xefb47fcfcad4f96c83d4ca676842fb03ef20a477"
                            }
                        ],
                        "constructorArguments": "",
                        "name": "balanceOf",
                        "returnParams": [
                            {
                                "decimalAvailable": true,
                                "name": "",
                                "type": "uint256",
                                "value": "17,516,975,297,603,714,235,534"
                            }
                        ],
                        "signature": "balanceOf(address)"
                    },
                    "errorInfo": "",
                    "fromAddress": "0xefb47fcfcad4f96c83d4ca676842fb03ef20a477",
                    "gasUsed": 2534,
                    "id": 8,
                    "methodDecoded": true,
                    "operation": "STATICCALL",
                    "output": "0x0000000000000000000000000000000000000000000003b598ddc04201dd3c8e",
                    "revert": false,
                    "revertMessage": "",
                    "selector": "0x70a08231",
                    "status": true,
                    "value": "0"
                },
                "nodeType": 0
            },
            "9": {
                "invocation": {
                    "address": "0x115934131916c8b277dd010ee02de363c09d037c",
                    "callData": "0x",
                    "decodedMethod": {
                        "callParams": [],
                        "constructorArguments": "",
                        "name": "feeTo",
                        "returnParams": [
                            {
                                "name": "",
                                "type": "address",
                                "value": "0x00e82e98a2119aa175eab206706efe0df2c7d51d"
                            }
                        ],
                        "signature": "feeTo()"
                    },
                    "errorInfo": "",
                    "fromAddress": "0xefb47fcfcad4f96c83d4ca676842fb03ef20a477",
                    "gasUsed": 2384,
                    "id": 9,
                    "methodDecoded": true,
                    "operation": "STATICCALL",
                    "output": "0x00000000000000000000000000e82e98a2119aa175eab206706efe0df2c7d51d",
                    "revert": false,
                    "revertMessage": "",
                    "selector": "0x017e7e58",
                    "status": true,
                    "value": "0"
                },
                "nodeType": 0
            }
        },
        "gasFlame": [
            {
                "children": [
                    {
                        "children": [
                            {
                                "children": [],
                                "depth": 0,
                                "name": "Initial Gas",
                                "value": 23952
                            },
                            {
                                "children": [
                                    {
                                        "children": [
                                            {
                                                "children": [],
                                                "depth": 2,
                                                "name": "ecrecover",
                                                "value": 3000
                                            }
                                        ],
                                        "depth": 1,
                                        "name": "permit",
                                        "value": 52825
                                    },
                                    {
                                        "children": [],
                                        "depth": 1,
                                        "name": "transferFrom",
                                        "value": 30715
                                    },
                                    {
                                        "children": [
                                            {
                                                "children": [],
                                                "depth": 2,
                                                "name": "balanceOf",
                                                "value": 2534
                                            },
                                            {
                                                "children": [],
                                                "depth": 2,
                                                "name": "balanceOf",
                                                "value": 2534
                                            },
                                            {
                                                "children": [],
                                                "depth": 2,
                                                "name": "feeTo",
                                                "value": 2384
                                            },
                                            {
                                                "children": [],
                                                "depth": 2,
                                                "name": "transfer",
                                                "value": 32556
                                            },
                                            {
                                                "children": [],
                                                "depth": 2,
                                                "name": "transfer",
                                                "value": 27962
                                            },
                                            {
                                                "children": [],
                                                "depth": 2,
                                                "name": "balanceOf",
                                                "value": 534
                                            },
                                            {
                                                "children": [],
                                                "depth": 2,
                                                "name": "balanceOf",
                                                "value": 534
                                            }
                                        ],
                                        "depth": 1,
                                        "name": "burn",
                                        "value": 146705
                                    },
                                    {
                                        "children": [],
                                        "depth": 1,
                                        "name": "transfer",
                                        "value": 10656
                                    },
                                    {
                                        "children": [
                                            {
                                                "children": [],
                                                "depth": 2,
                                                "name": "fallback",
                                                "value": 95
                                            }
                                        ],
                                        "depth": 1,
                                        "name": "withdraw",
                                        "value": 9235
                                    },
                                    {
                                        "children": [],
                                        "depth": 1,
                                        "name": "fallback",
                                        "value": 0
                                    }
                                ],
                                "depth": 0,
                                "name": "Executed Gas",
                                "value": 265214
                            }
                        ],
                        "depth": -1,
                        "name": "Actual Gas Used",
                        "value": 191766
                    },
                    {
                        "children": [],
                        "depth": -1,
                        "name": "Refunded Gas",
                        "value": 97400
                    }
                ],
                "depth": -2,
                "name": "Total Gas",
                "value": 289166
            }
        ],
        "isConfirmed": true,
        "mainTrace": [
            {
                "children": [
                    {
                        "children": [
                            {
                                "children": [
                                    {
                                        "children": [],
                                        "depth": 2,
                                        "id": 2,
                                        "order": 2
                                    },
                                    {
                                        "children": [],
                                        "depth": 2,
                                        "id": 3,
                                        "order": 3
                                    }
                                ],
                                "depth": 1,
                                "id": 1,
                                "order": 1
                            },
                            {
                                "children": [
                                    {
                                        "children": [],
                                        "depth": 2,
                                        "id": 5,
                                        "order": 5
                                    }
                                ],
                                "depth": 1,
                                "id": 4,
                                "order": 4
                            },
                            {
                                "children": [
                                    {
                                        "children": [],
                                        "depth": 2,
                                        "id": 7,
                                        "order": 7
                                    },
                                    {
                                        "children": [],
                                        "depth": 2,
                                        "id": 8,
                                        "order": 8
                                    },
                                    {
                                        "children": [],
                                        "depth": 2,
                                        "id": 9,
                                        "order": 9
                                    },
                                    {
                                        "children": [],
                                        "depth": 2,
                                        "id": 10,
                                        "order": 10
                                    },
                                    {
                                        "children": [],
                                        "depth": 2,
                                        "id": 11,
                                        "order": 11
                                    },
                                    {
                                        "children": [
                                            {
                                                "children": [],
                                                "depth": 3,
                                                "id": 13,
                                                "order": 13
                                            }
                                        ],
                                        "depth": 2,
                                        "id": 12,
                                        "order": 12
                                    },
                                    {
                                        "children": [
                                            {
                                                "children": [],
                                                "depth": 3,
                                                "id": 15,
                                                "order": 15
                                            }
                                        ],
                                        "depth": 2,
                                        "id": 14,
                                        "order": 14
                                    },
                                    {
                                        "children": [],
                                        "depth": 2,
                                        "id": 16,
                                        "order": 16
                                    },
                                    {
                                        "children": [],
                                        "depth": 2,
                                        "id": 17,
                                        "order": 17
                                    },
                                    {
                                        "children": [],
                                        "depth": 2,
                                        "id": 18,
                                        "order": 18
                                    },
                                    {
                                        "children": [],
                                        "depth": 2,
                                        "id": 19,
                                        "order": 19
                                    }
                                ],
                                "depth": 1,
                                "id": 6,
                                "order": 6
                            },
                            {
                                "children": [
                                    {
                                        "children": [],
                                        "depth": 2,
                                        "id": 21,
                                        "order": 21
                                    }
                                ],
                                "depth": 1,
                                "id": 20,
                                "order": 20
                            },
                            {
                                "children": [
                                    {
                                        "children": [],
                                        "depth": 2,
                                        "id": 23,
                                        "order": 23
                                    },
                                    {
                                        "children": [],
                                        "depth": 2,
                                        "id": 24,
                                        "order": 24
                                    }
                                ],
                                "depth": 1,
                                "id": 22,
                                "order": 22
                            },
                            {
                                "children": [],
                                "depth": 1,
                                "id": 25,
                                "order": 25
                            }
                        ],
                        "depth": 0,
                        "id": 0,
                        "order": 0
                    }
                ],
                "depth": -1,
                "id": -1,
                "order": -1
            }
        ],
        "mainTraceNodeCount": 26,
        "parentIdMap": {
            "0": -1,
            "1": 0,
            "10": 6,
            "11": 6,
            "12": 6,
            "13": 12,
            "14": 6,
            "15": 14,
            "16": 6,
            "17": 6,
            "18": 6,
            "19": 6,
            "2": 1,
            "20": 0,
            "21": 20,
            "22": 0,
            "23": 22,
            "24": 22,
            "25": 0,
            "3": 1,
            "4": 0,
            "5": 4,
            "6": 0,
            "7": 6,
            "8": 6,
            "9": 6
        },
        "tidyTrace": [
            {
                "children": [
                    {
                        "children": [
                            {
                                "children": [
                                    {
                                        "children": [],
                                        "depth": 2,
                                        "id": 3,
                                        "order": 3
                                    }
                                ],
                                "depth": 1,
                                "id": 1,
                                "order": 1
                            },
                            {
                                "children": [
                                    {
                                        "children": [],
                                        "depth": 2,
                                        "id": 5,
                                        "order": 5
                                    }
                                ],
                                "depth": 1,
                                "id": 4,
                                "order": 4
                            },
                            {
                                "children": [
                                    {
                                        "children": [],
                                        "depth": 2,
                                        "id": 10,
                                        "order": 10
                                    },
                                    {
                                        "children": [],
                                        "depth": 2,
                                        "id": 11,
                                        "order": 11
                                    },
                                    {
                                        "children": [
                                            {
                                                "children": [],
                                                "depth": 3,
                                                "id": 13,
                                                "order": 13
                                            }
                                        ],
                                        "depth": 2,
                                        "id": 12,
                                        "order": 12
                                    },
                                    {
                                        "children": [
                                            {
                                                "children": [],
                                                "depth": 3,
                                                "id": 15,
                                                "order": 15
                                            }
                                        ],
                                        "depth": 2,
                                        "id": 14,
                                        "order": 14
                                    },
                                    {
                                        "children": [],
                                        "depth": 2,
                                        "id": 18,
                                        "order": 18
                                    },
                                    {
                                        "children": [],
                                        "depth": 2,
                                        "id": 19,
                                        "order": 19
                                    }
                                ],
                                "depth": 1,
                                "id": 6,
                                "order": 6
                            },
                            {
                                "children": [
                                    {
                                        "children": [],
                                        "depth": 2,
                                        "id": 21,
                                        "order": 21
                                    }
                                ],
                                "depth": 1,
                                "id": 20,
                                "order": 20
                            },
                            {
                                "children": [
                                    {
                                        "children": [],
                                        "depth": 2,
                                        "id": 23,
                                        "order": 23
                                    },
                                    {
                                        "children": [],
                                        "depth": 2,
                                        "id": 24,
                                        "order": 24
                                    }
                                ],
                                "depth": 1,
                                "id": 22,
                                "order": 22
                            },
                            {
                                "children": [],
                                "depth": 1,
                                "id": 25,
                                "order": 25
                            }
                        ],
                        "depth": 0,
                        "id": 0,
                        "order": 0
                    }
                ],
                "depth": -1,
                "id": -1,
                "order": -1
            }
        ],
        "tidyTraceNodeCount": 20
    },
    "state_change": {
        "stateChanges": [
            {
                "address": "0x9813037ee2218799597d83d4a5b6f3b6778218d9",
                "erc": "ERC-20",
                "slots": [
                    {
                        "current": "0x0000000000000000000000000000000000000000000634fae32ec7601e625004",
                        "key": "0x92783bce1b8fbf5d5a004ae454c0294c9e3a8d45cb06a52fcd99539b22445478",
                        "prev": "0x000000000000000000000000000000000000000000063505733c90c9ff302b4f"
                    },
                    {
                        "current": "0x00000000000000000000000000000000000000000000000b3703ad4d77c0ca77",
                        "key": "0xbd3fe43a4d2aae72bde92a4f08b2ec507c3ea22423a5fa91d1ac1c3f640c08d5",
                        "prev": "0x000000000000000000000000000000000000000000000000a6f5e3e396f2ef2c"
                    }
                ],
                "storageVariables": [
                    {
                        "name": "_balances",
                        "type": "mapping(address => uint256)",
                        "value": {
                            "pairs": [
                                {
                                    "key": "0x4c8d1ee7ad32151ff48affe7dbb243e80a2f8d98",
                                    "value": {
                                        "current": "206878387456054446711",
                                        "prev": "12030772546219732780",
                                        "typeTag": 1
                                    }
                                },
                                {
                                    "key": "0xefb47fcfcad4f96c83d4ca676842fb03ef20a477",
                                    "value": {
                                        "current": "7503746031056335166132228",
                                        "prev": "7503940878671245000846159",
                                        "typeTag": 1
                                    }
                                }
                            ],
                            "typeTag": 4
                        }
                    }
                ]
            },
            {
                "address": "0xc02aaa39b223fe8d0a0e5c4f27ead9083c756cc2",
                "erc": "ERC-20",
                "slots": [
                    {
                        "current": "0x0000000000000000000000000000000000000000000003b5928dcfd2ad901d61",
                        "key": "0x635d66657ab7efa4978a0ada1229131bdb12bdff440df002b11a37709c596697",
                        "prev": "0x0000000000000000000000000000000000000000000003b598ddc04201dd3c8e"
                    }
                ],
                "storageVariables": [
                    {
                        "name": "balanceOf",
                        "type": "mapping(address => uint256)",
                        "value": {
                            "pairs": [
                                {
                                    "key": "0xefb47fcfcad4f96c83d4ca676842fb03ef20a477",
                                    "value": {
                                        "current": "17516520451155380149601",
                                        "prev": "17516975297603714235534",
                                        "typeTag": 1
                                    }
                                }
                            ],
                            "typeTag": 4
                        }
                    }
                ]
            },
            {
                "address": "0xefb47fcfcad4f96c83d4ca676842fb03ef20a477",
                "erc": "ERC-20",
                "slots": [
                    {
                        "current": "0x0000000000000000000000000000000000000000000000000000000000000001",
                        "key": "0xf20d0797c2e49d5e3c33bbed782f8dfd18ed808cf4c1c0bafea1b0e0514fc18b",
                        "prev": "0x0000000000000000000000000000000000000000000000000000000000000000"
                    },
                    {
                        "current": "0x0000000000000000000000000000000000000000000000000000000000000000",
                        "key": "0x2baa4fab74ef5006d21f04c2201f03e39e277f5f10c3df639ed33d1ee7288cff",
                        "prev": "0x0000000000000000000000000000000000000000000000007fe939100414b6a5"
                    },
                    {
                        "current": "0x60ec1b4c0000000003b5928dcfd2ad901d610000000634fae32ec7601e625004",
                        "key": "0x0000000000000000000000000000000000000000000000000000000000000008",
                        "prev": "0x60ec1b4c0000000003b598ddc04201dd3c8e000000063505733c90c9ff302b4f"
                    },
                    {
                        "current": "0x0000000000000000000000001705f3b37a1b6e96824e97df4175d5845c90c584",
                        "key": "0x000000000000000000000000000000000000000000000000000000000000000b",
                        "prev": "0x00000000000000000000000017063f9b0f71116b87c0d9f385cd910c51a570d0"
                    },
                    {
                        "current": "0x000000000000000000000000000000000000000000004b2a098f05afc3e71944",
                        "key": "0x0000000000000000000000000000000000000000000000000000000000000000",
                        "prev": "0x000000000000000000000000000000000000000000004b2a88221d6f6e48cfa3"
                    },
                    {
                        "current": "0x000000000000000000000000000000000000000000000009d5b35c81b243d711",
                        "key": "0x34a43e5409a3945f42a573aa3dedfb97e67ef565515dddf7cc8f75d6cebc515a",
                        "prev": "0x000000000000000000000000000000000000000000000009d45d3b315890d6cb"
                    }
                ],
                "storageVariables": [
                    {
                        "name": "nonces",
                        "type": "mapping(address => uint256)",
                        "value": {
                            "pairs": [
                                {
                                    "key": "0x4c8d1ee7ad32151ff48affe7dbb243e80a2f8d98",
                                    "value": {
                                        "current": "1",
                                        "prev": "0",
                                        "typeTag": 1
                                    }
                                }
                            ],
                            "typeTag": 4
                        }
                    },
                    {
                        "name": "balanceOf",
                        "type": "mapping(address => uint256)",
                        "value": {
                            "pairs": [
                                {
                                    "key": "0x00e82e98a2119aa175eab206706efe0df2c7d51d",
                                    "value": {
                                        "current": "181419449926407149329",
                                        "prev": "181323148855386101451",
                                        "typeTag": 1
                                    }
                                },
                                {
                                    "key": "0x4c8d1ee7ad32151ff48affe7dbb243e80a2f8d98",
                                    "value": {
                                        "current": "0",
                                        "prev": "9216960853341157029",
                                        "typeTag": 1
                                    }
                                }
                            ],
                            "typeTag": 4
                        }
                    },
                    {
                        "name": "reserve0",
                        "type": "uint112",
                        "value": {
                            "current": "7503746031056335166132228",
                            "prev": "7503940878671245000846159",
                            "typeTag": 1
                        }
                    },
                    {
                        "name": "reserve1",
                        "type": "uint112",
                        "value": {
                            "current": "17516520451155380149601",
                            "prev": "17516975297603714235534",
                            "typeTag": 1
                        }
                    },
                    {
                        "name": "blockTimestampLast",
                        "type": "uint32",
                        "value": {
                            "current": "1626086220",
                            "prev": "1626086220",
                            "typeTag": 1
                        }
                    },
                    {
                        "name": "kLast",
                        "type": "uint256",
                        "value": {
                            "current": "131439520813274309251539097682367250775187441028",
                            "prev": "131446133038445569239390541676959343363104272592",
                            "typeTag": 1
                        }
                    },
                    {
                        "name": "totalSupply",
                        "type": "uint256",
                        "value": {
                            "current": "354952938241839667288388",
                            "prev": "354962058901621987397539",
                            "typeTag": 1
                        }
                    }
                ]
            }
        ]
    }
}