{
    "balance_change": {
        "balanceChanges": []
    },
    "profile": {
        "basic_info": {
            "baseFee": "",
            "blockNumber": 5577537,
            "callData": "0x0a19b14a00000000000000000000000079186ba0fc6fa49fd9db2f0ba34f36f8c24489c7000000000000000000000000000000000000000000000878678326eac90000000000000000000000000000000000000000000000000000000000000000000000000000000000000000000000000000000000000000000000058d15e176280000000000000000000000000000000000000000000000000000000000000055341900000000000000000000000000000000000000000000000000000000383f05af00000000000000000000000099dc3eee0b81a212dcf1348321275e0cab79809a000000000000000000000000000000000000000000000000000000000000001bccca4294b4c6d3e8f442a5b06e2a9d40590dff304e3d7e036163c858ad54b43d19245c64dcd2a3f251f0b7891f5eb625e4a82b450d3c540ee80223306b2e4c16000000000000000000000000000000000000000000000035808cf59dbe8c18ce",
            "debugEnable": true,
            "errorInfo": "",
            "eventCount": 1,
            "feeRecipient": "0x2a65aca4d5fc5b5c859090a6c34d164135398226",
            "formatValue": "0",
            "gasLimit": 250000,
            "gasPrice": "17",
            "gasUsed": 108242,
            "intTxnCount": 2,
            "internalRevert": false,
            "internalRevertMessage": "",
            "isContractCreation": false,
            "isFlashloan": false,
            "maxFee": "",
            "nonce": 146,
            "overwritedBlockNumber": -1,
            "priorityFee": "",
            "receiver": "0x8d12a197cb00d4747a1fe03395095ce2a5cc6819",
            "revertMessage": "",
            "sender": "0x4e51df5b7b5cb0a0238bbf557f3d5ea51b846e39",
            "simulationEnable": true,
            "sourceTxnHash": "0xf8b08e033276a4fce51d44c89c5de946c1f1a8645930ca1ba0f8609b9e3405e6",
            "status": true,
            "timestamp": "2018-05-08T11:13:56Z",
            "transactionFee": "0.001840114",
            "txnHash": "0xf8b08e033276a4fce51d44c89c5de946c1f1a8645930ca1ba0f8609b9e3405e6",
            "txnIndex": 124,
            "type": 0,
            "value": "0"
        },
        "fund_flow": [],
        "token_infos": [
            {
                "address": "0xc02aaa39b223fe8d0a0e5c4f27ead9083c756cc2",
                "decimals": 18
            },
            {
                "address": "0xeeeeeeeeeeeeeeeeeeeeeeeeeeeeeeeeeeeeeeee",
                "decimals": 18
            }
        ]
    },
    "address_label": {
        "labels": [
            {
                "address": "0x0000000000000000000000000000000000000002",
                "label": "Precompiled"
            },
            {
                "address": "0x0000000000000000000000000000000000000000",
                "label": "Null Address"
            },
            {
                "address": "0x0000000000000000000000000000000000000001",
                "label": "Precompiled"
            },
            {
                "address": "0x0000000000000000000000000000000000000003",
                "label": "Precompiled"
            },
            {
                "address": "0x0000000000000000000000000000000000000004",
                "label": "Precompiled"
            },
            {
                "address": "0xeeeeeeeeeeeeeeeeeeeeeeeeeeeeeeeeeeeeeeee",
                "label": "Ether"
            },
            {
                "address": "0x79186ba0fc6fa49fd9db2f0ba34f36f8c24489c7",
                "label": "CrowdCoinage (CCOS)"
            },
            {
                "address": "0x8d12a197cb00d4747a1fe03395095ce2a5cc6819",
                "label": "EtherDelta"
            }
        ]
    },
    "trace": {
        "accountLabels": null,
        "dataMap": {
            "-1": {
                "invocation": {
                    "address": "0x4e51df5b7b5cb0a0238bbf557f3d5ea51b846e39",
                    "callData": "",
                    "decodedMethod": null,
                    "errorInfo": "",
                    "fromAddress": "",
                    "gasUsed": 0,
                    "id": -1,
                    "methodDecoded": false,
                    "operation": "",
                    "output": "",
                    "revert": false,
                    "revertMessage": "",
                    "selector": "",
                    "status": false,
                    "value": ""
                },
                "nodeType": 0
            },
            "0": {
                "invocation": {
                    "address": "0x8d12a197cb00d4747a1fe03395095ce2a5cc6819",
                    "callData": "0x00000000000000000000000079186ba0fc6fa49fd9db2f0ba34f36f8c24489c7000000000000000000000000000000000000000000000878678326eac90000000000000000000000000000000000000000000000000000000000000000000000000000000000000000000000000000000000000000000000058d15e176280000000000000000000000000000000000000000000000000000000000000055341900000000000000000000000000000000000000000000000000000000383f05af00000000000000000000000099dc3eee0b81a212dcf1348321275e0cab79809a000000000000000000000000000000000000000000000000000000000000001bccca4294b4c6d3e8f442a5b06e2a9d40590dff304e3d7e036163c858ad54b43d19245c64dcd2a3f251f0b7891f5eb625e4a82b450d3c540ee80223306b2e4c16000000000000000000000000000000000000000000000035808cf59dbe8c18ce",
                    "decodedMethod": {
                        "callParams": [
                            {
                                "name": "tokenGet",
                                "type": "address",
                                "value": "0x79186ba0fc6fa49fd9db2f0ba34f36f8c24489c7"
                            },
                            {
                                "name": "amountGet",
                                "type": "uint256",
                                "value": "40,000,000,000,000,000,000,000"
                            },
                            {
                                "name": "tokenGive",
                                "type": "address",
                                "value": "0x0000000000000000000000000000000000000000"
                            },
                            {
                                "name": "amountGive",
                                "type": "uint256",
                                "value": "400,000,000,000,000,000"
                            },
                            {
                                "name": "expires",
                                "type": "uint256",
                                "value": "5,583,897"
                            },
                            {
                                "name": "nonce",
                                "type": "uint256",
                                "value": "943,654,319"
                            },
                            {
                                "name": "user",
                                "type": "address",
                                "value": "0x99dc3eee0b81a212dcf1348321275e0cab79809a"
                            },
                            {
                                "name": "v",
                                "type": "uint8",
                                "value": "27"
                            },
                            {
                                "name": "r",
                                "type": "bytes32",
                                "value": "0xccca4294b4c6d3e8f442a5b06e2a9d40590dff304e3d7e036163c858ad54b43d"
                            },
                            {
                                "name": "s",
                                "type": "bytes32",
                                "value": "0x19245c64dcd2a3f251f0b7891f5eb625e4a82b450d3c540ee80223306b2e4c16"
                            },
                            {
                                "name": "amount",
                                "type": "uint256",
                                "value": "986,940,484,498,056,026,318"
                            }
                        ],
                        "constructorArguments": "",
                        "name": "trade",
                        "returnParams": [],
                        "signature": "trade(address,uint256,address,uint256,uint256,uint256,address,uint8,bytes32,bytes32,uint256)"
                    },
                    "errorInfo": "",
                    "fromAddress": "0x4e51df5b7b5cb0a0238bbf557f3d5ea51b846e39",
                    "gasUsed": 108242,
                    "id": 0,
                    "methodDecoded": true,
                    "operation": "CALL",
                    "output": "",
                    "revert": false,
                    "revertMessage": "",
                    "selector": "0x0a19b14a",
                    "status": true,
                    "value": "0"
                },
                "nodeType": 0
            },
            "1": {
                "invocation": {
                    "address": "0x0000000000000000000000000000000000000002",
                    "callData": "0xcb00d4747a1fe03395095ce2a5cc681979186ba0fc6fa49fd9db2f0ba34f36f8c24489c7000000000000000000000000000000000000000000000878678326eac90000000000000000000000000000000000000000000000000000000000000000000000000000000000000000000000058d15e176280000000000000000000000000000000000000000000000000000000000000055341900000000000000000000000000000000000000000000000000000000383f05af",
                    "decodedMethod": {
                        "callParams": [
                            {
                                "name": "data",
                                "type": "bytes",
                                "value": "0x8d12a197cb00d4747a1fe03395095ce2a5cc681979186ba0fc6fa49fd9db2f0ba34f36f8c24489c7000000000000000000000000000000000000000000000878678326eac90000000000000000000000000000000000000000000000000000000000000000000000000000000000000000000000058d15e176280000000000000000000000000000000000000000000000000000000000000055341900000000000000000000000000000000000000000000000000000000383f05af"
                            }
                        ],
                        "constructorArguments": "",
                        "name": "sha256hash",
                        "returnParams": [
                            {
                                "name": "hash",
                                "type": "bytes32",
                                "value": "0x282c7001c3ea767dce03ae2cc151c86dc8622e77e537f7ed0153ca123200e2bd"
                            }
                        ],
                        "signature": "sha256hash(bytes)"
                    },
                    "errorInfo": "",
                    "fromAddress": "0x8d12a197cb00d4747a1fe03395095ce2a5cc6819",
                    "gasUsed": 132,
                    "id": 1,
                    "methodDecoded": true,
                    "operation": "CALL",
                    "output": "0x282c7001c3ea767dce03ae2cc151c86dc8622e77e537f7ed0153ca123200e2bd",
                    "revert": false,
                    "revertMessage": "",
                    "selector": "0x8d12a197",
                    "status": true,
                    "value": "0"
                },
                "nodeType": 0
            },
            "2": {
                "invocation": {
                    "address": "0x0000000000000000000000000000000000000001",
                    "callData": "0xbe2779a694d9f8ab76bd9237e255f26e5da0cfb3ee5d8dce711ea6ec000000000000000000000000000000000000000000000000000000000000001bccca4294b4c6d3e8f442a5b06e2a9d40590dff304e3d7e036163c858ad54b43d19245c64dcd2a3f251f0b7891f5eb625e4a82b450d3c540ee80223306b2e4c16",
                    "decodedMethod": {
                        "callParams": [
                            {
                                "name": "hash",
                                "type": "bytes32",
                                "value": "0x49ed6f2dbe2779a694d9f8ab76bd9237e255f26e5da0cfb3ee5d8dce711ea6ec"
                            },
                            {
                                "name": "v",
                                "type": "uint256",
                                "value": "27"
                            },
                            {
                                "name": "r",
                                "type": "bytes32",
                                "value": "0xccca4294b4c6d3e8f442a5b06e2a9d40590dff304e3d7e036163c858ad54b43d"
                            },
                            {
                                "name": "s",
                                "type": "bytes32",
                                "value": "0x19245c64dcd2a3f251f0b7891f5eb625e4a82b450d3c540ee80223306b2e4c16"
                            }
                        ],
                        "constructorArguments": "",
                        "name": "ecrecover",
                        "returnParams": [
                            {
                                "name": "",
                                "type": "address",
                                "value": "0x99dc3eee0b81a212dcf1348321275e0cab79809a"
                            }
                        ],
                        "signature": "ecrecover(bytes32,uint256,bytes32,bytes32)"
                    },
                    "errorInfo": "",
                    "fromAddress": "0x8d12a197cb00d4747a1fe03395095ce2a5cc6819",
                    "gasUsed": 3000,
                    "id": 2,
                    "methodDecoded": true,
                    "operation": "CALL",
                    "output": "0x00000000000000000000000099dc3eee0b81a212dcf1348321275e0cab79809a",
                    "revert": false,
                    "revertMessage": "",
                    "selector": "0x49ed6f2d",
                    "status": true,
                    "value": "0"
                },
                "nodeType": 0
            },
            "3": {
                "event": {
                    "contract": "0x8d12a197cb00d4747a1fe03395095ce2a5cc6819",
                    "decodedLog": {
                        "name": "Trade",
                        "params": [
                            {
                                "name": "tokenGet",
                                "type": "address",
                                "value": "0x79186ba0fc6fa49fd9db2f0ba34f36f8c24489c7"
                            },
                            {
                                "name": "amountGet",
                                "type": "uint256",
                                "value": "986,940,484,498,056,026,318"
                            },
                            {
                                "name": "tokenGive",
                                "type": "address",
                                "value": "0x0000000000000000000000000000000000000000"
                            },
                            {
                                "name": "amountGive",
                                "type": "uint256",
                                "value": "9,869,404,844,980,560"
                            },
                            {
                                "name": "get",
                                "type": "address",
                                "value": "0x99dc3eee0b81a212dcf1348321275e0cab79809a"
                            },
                            {
                                "name": "give",
                                "type": "address",
                                "value": "0x4e51df5b7b5cb0a0238bbf557f3d5ea51b846e39"
                            }
                        ],
                        "signature": "Trade(address,uint256,address,uint256,address,address)"
                    },
                    "id": 3,
                    "logData": "0x00000000000000000000000079186ba0fc6fa49fd9db2f0ba34f36f8c24489c7000000000000000000000000000000000000000000000035808cf59dbe8c18ce00000000000000000000000000000000000000000000000000000000000000000000000000000000000000000000000000000000000000000023102be1edf95000000000000000000000000099dc3eee0b81a212dcf1348321275e0cab79809a0000000000000000000000004e51df5b7b5cb0a0238bbf557f3d5ea51b846e39",
                    "logDecoded": true,
                    "operation": "EVENT",
                    "revert": false,
                    "status": true,
                    "topics": [
                        "0x6effdda786735d5033bfad5f53e5131abcced9e52be6c507b62d639685fbed6d"
                    ]
                },
                "nodeType": 1
            }
        },
        "gasFlame": [
            {
                "children": [
                    {
                        "children": [
                            {
                                "children": [],
                                "depth": 0,
                                "name": "Initial Gas",
                                "value": 31256
                            },
                            {
                                "children": [
                                    {
                                        "children": [],
                                        "depth": 1,
                                        "name": "sha256hash",
                                        "value": 132
                                    },
                                    {
                                        "children": [],
                                        "depth": 1,
                                        "name": "ecrecover",
                                        "value": 3000
                                    }
                                ],
                                "depth": 0,
                                "name": "Executed Gas",
                                "value": 76986
                            }
                        ],
                        "depth": -1,
                        "name": "Actual Gas Used",
                        "value": 108242
                    },
                    {
                        "children": [],
                        "depth": -1,
                        "name": "Refunded Gas",
                        "value": 0
                    }
                ],
                "depth": -2,
                "name": "Total Gas",
                "value": 108242
            }
        ],
        "isConfirmed": true,
        "mainTrace": [
            {
                "children": [
                    {
                        "children": [
                            {
                                "children": [],
                                "depth": 1,
                                "id": 1,
                                "order": 1
                            },
                            {
                                "children": [],
                                "depth": 1,
                                "id": 2,
                                "order": 2
                            },
                            {
                                "children": [],
                                "depth": 1,
                                "id": 3,
                                "order": 3
                            }
                        ],
                        "depth": 0,
                        "id": 0,
                        "order": 0
                    }
                ],
                "depth": -1,
                "id": -1,
                "order": -1
            }
        ],
        "mainTraceNodeCount": 4,
        "parentIdMap": {
            "0": -1,
            "1": 0,
            "2": 0,
            "3": 0
        },
        "tidyTrace": [
            {
                "children": [
                    {
                        "children": [
                            {
                                "children": [],
                                "depth": 1,
                                "id": 1,
                                "order": 1
                            },
                            {
                                "children": [],
                                "depth": 1,
                                "id": 2,
                                "order": 2
                            },
                            {
                                "children": [],
                                "depth": 1,
                                "id": 3,
                                "order": 3
                            }
                        ],
                        "depth": 0,
                        "id": 0,
                        "order": 0
                    }
                ],
                "depth": -1,
                "id": -1,
                "order": -1
            }
        ],
        "tidyTraceNodeCount": 4
    },
    "state_change": {
        "stateChanges": [
            {
                "address": "0x8d12a197cb00d4747a1fe03395095ce2a5cc6819",
                "erc": "",
                "slots": [
                    {
                        "current": "0x000000000000000000000000000000000000000000000000056a2e6d5054d6b0",
                        "key": "0x2d2344f652111c205ef64137399e9e893ff094a824f876beac5b831e3be9f9d3",
                        "prev": "0x000000000000000000000000000000000000000000000000058d3e993242d000"
                    },
                    {
                        "current": "0x0000000000000000000000000000000000000000000000000023102be1edf950",
                        "key": "0xfa400ccb90411c8de19fb6211ec6aa02ee18bc7ef85427767b6fa843d8d3123d",
                        "prev": "0x0000000000000000000000000000000000000000000000000000000000000000"
                    },
                    {
                        "current": "0x000000000000000000000000000000000000000000000035808cf59dbe8c18ce",
                        "key": "0xc05f42f465326f4ac0f4be4c4f5399b405e430b19c4c84b30ce62f7555700935",
                        "prev": "0x0000000000000000000000000000000000000000000000000000000000000000"
                    },
                    {
                        "current": "0x000000000000000000000000000000000000000000000000015ea1b6d34bbd24",
                        "key": "0x80a823e6c2df9041ebe923d07efacd160b7a65a2341a0c05a12659176a37eee9",
                        "prev": "0x000000000000000000000000000000000000000000000035ab028ac154b80000"
                    },
                    {
                        "current": "0x0000000000000000000000000000000000000000000002834ee1c8e7d88c18ce",
                        "key": "0x91fdb6f7f4cde607a67d8601c07bcb27768c44c82c6e0dd78e2e453c6f8e8e91",
                        "prev": "0x00000000000000000000000000000000000000000000024dce54d34a1a000000"
                    },
                    {
                        "current": "0x0000000000000000000000000000000000000000000000072885f6bbb1cec5c3",
                        "key": "0x1fdbf74ef4695b54af1772a6958ee485d5e9a65512b1414a85419524a8891b8c",
                        "prev": "0x000000000000000000000000000000000000000000000006ff6f034eeeee9bb5"
                    }
                ],
                "storageVariables": []
            }
        ]
    }
}