{
    "balance_change": {
        "balanceChanges": [
            {
                "account": "0xecded8b1c603cf21299835f1dfbe37f10f2a29af",
                "assets": [
                    {
                        "address": "0xa0b86991c6218b36c1d19d4a2e9eb0ce3606eb48",
                        "amount": "40,000",
                        "iconUrl": "https://assets.blocksec.com/icon/0347a86cc07dbd03fdc5db01a4e5ac7e1217f90e0b6e4bb0f75cbcca09160989.png",
                        "isERC1155": false,
                        "isERC721": false,
                        "sign": false,
                        "value": "39992.00000000000088"
                    }
                ]
            },
            {
                "account": "0xc3d688b66703497daa19211eedff47f25384cdc3",
                "assets": [
                    {
                        "address": "0xa0b86991c6218b36c1d19d4a2e9eb0ce3606eb48",
                        "amount": "40,000",
                        "iconUrl": "https://assets.blocksec.com/icon/0347a86cc07dbd03fdc5db01a4e5ac7e1217f90e0b6e4bb0f75cbcca09160989.png",
                        "isERC1155": false,
                        "isERC721": false,
                        "sign": true,
                        "value": "39992.00000000000088"
                    }
                ]
            }
        ]
    },
    "profile": {
        "basic_info": {
            "baseFee": "46.463522129",
            "blockNumber": 17623914,
            "callData": "0xf2b9fdb8000000000000000000000000a0b86991c6218b36c1d19d4a2e9eb0ce3606eb4800000000000000000000000000000000000000000000000000000009502f9000",
            "debugEnable": true,
            "errorInfo": "",
            "eventCount": 2,
            "feeRecipient": "0xab6b4b11378a57933333e4acfdc45567dd78f14e",
            "formatValue": "0",
            "gasLimit": 115064,
            "gasPrice": "46.563522129",
            "gasUsed": 94578,
            "intTxnCount": 3,
            "internalRevert": false,
            "internalRevertMessage": "",
            "isContractCreation": false,
            "isFlashloan": false,
            "maxFee": "59.349017089",
            "nonce": 10476,
            "overwritedBlockNumber": -1,
            "priorityFee": "0.1",
            "receiver": "0xc3d688b66703497daa19211eedff47f25384cdc3",
            "revertMessage": "",
            "sender": "0xecded8b1c603cf21299835f1dfbe37f10f2a29af",
            "simulationEnable": true,
            "sourceTxnHash": "0xf8382601166cf65633f6d0da7e852ba8a24ba48eb4a10c6f4397a4530bde8355",
            "status": true,
            "timestamp": "2023-07-04T23:48:11Z",
            "transactionFee": "0.004403884795916562",
            "txnHash": "0xf8382601166cf65633f6d0da7e852ba8a24ba48eb4a10c6f4397a4530bde8355",
            "txnIndex": 99,
            "type": 2,
            "value": "0"
        },
        "fund_flow": [
            {
                "amount": "40,000",
                "from": "0xecded8b1c603cf21299835f1dfbe37f10f2a29af",
                "id": 1,
                "isERC1155": false,
                "isERC721": false,
                "isReverted": false,
                "order": 1,
                "to": "0xc3d688b66703497daa19211eedff47f25384cdc3",
                "token": "0xa0b86991c6218b36c1d19d4a2e9eb0ce3606eb48"
            }
        ],
        "token_infos": [
            {
                "address": "0xa0b86991c6218b36c1d19d4a2e9eb0ce3606eb48",
                "decimals": 6
            },
            {
                "address": "0xc02aaa39b223fe8d0a0e5c4f27ead9083c756cc2",
                "decimals": 18
            },
            {
                "address": "0xeeeeeeeeeeeeeeeeeeeeeeeeeeeeeeeeeeeeeeee",
                "decimals": 18
            }
        ]
    },
    "address_label": {
        "labels": [
            {
                "address": "0xeeeeeeeeeeeeeeeeeeeeeeeeeeeeeeeeeeeeeeee",
                "label": "Ether"
            },
            {
                "address": "0x0000000000000000000000000000000000000001",
                "label": "Precompiled"
            },
            {
                "address": "0x0000000000000000000000000000000000000003",
                "label": "Precompiled"
            },
            {
                "address": "0x0000000000000000000000000000000000000002",
                "label": "Precompiled"
            },
            {
                "address": "0x0000000000000000000000000000000000000004",
                "label": "Precompiled"
            },
            {
                "address": "0xc3d688b66703497daa19211eedff47f25384cdc3",
                "label": "Compound: USDCv3 Token"
            },
            {
                "address": "0xa2327a938febf5fec13bacfb16ae10ecbc4cbdcf",
                "label": "FiatTokenV2_1"
            },
            {
                "address": "0x3bee6ce5369596fa86ea044a00ad1cb4e54a6a01",
                "label": "Compound USDC (cUSDCv3)"
            },
            {
                "address": "0xa0b86991c6218b36c1d19d4a2e9eb0ce3606eb48",
                "label": "Circle: USDC Token"
            }
        ]
    },
    "trace": {
        "accountLabels": null,
        "dataMap": {
            "-1": {
                "invocation": {
                    "address": "0xecded8b1c603cf21299835f1dfbe37f10f2a29af",
                    "callData": "",
                    "decodedMethod": null,
                    "errorInfo": "",
                    "fromAddress": "",
                    "gasUsed": 0,
                    "id": -1,
                    "methodDecoded": false,
                    "operation": "",
                    "output": "",
                    "revert": false,
                    "revertMessage": "",
                    "selector": "",
                    "status": false,
                    "value": ""
                },
                "nodeType": 0
            },
            "0": {
                "invocation": {
                    "address": "0xc3d688b66703497daa19211eedff47f25384cdc3",
                    "callData": "0x000000000000000000000000a0b86991c6218b36c1d19d4a2e9eb0ce3606eb4800000000000000000000000000000000000000000000000000000009502f9000",
                    "decodedMethod": {
                        "callParams": [
                            {
                                "name": "asset",
                                "type": "address",
                                "value": "0xa0b86991c6218b36c1d19d4a2e9eb0ce3606eb48"
                            },
                            {
                                "name": "amount",
                                "type": "uint256",
                                "value": "40,000,000,000"
                            }
                        ],
                        "constructorArguments": "",
                        "name": "supply",
                        "returnParams": [],
                        "signature": "supply(address,uint256)"
                    },
                    "errorInfo": "",
                    "fromAddress": "0xecded8b1c603cf21299835f1dfbe37f10f2a29af",
                    "gasUsed": 94578,
                    "id": 0,
                    "methodDecoded": true,
                    "operation": "CALL",
                    "output": "",
                    "revert": false,
                    "revertMessage": "",
                    "selector": "0xf2b9fdb8",
                    "status": true,
                    "value": "0"
                },
                "nodeType": 0
            },
            "1": {
                "invocation": {
                    "address": "0x3bee6ce5369596fa86ea044a00ad1cb4e54a6a01",
                    "callData": "0x000000000000000000000000a0b86991c6218b36c1d19d4a2e9eb0ce3606eb4800000000000000000000000000000000000000000000000000000009502f9000",
                    "decodedMethod": {
                        "callParams": [
                            {
                                "name": "asset",
                                "type": "address",
                                "value": "0xa0b86991c6218b36c1d19d4a2e9eb0ce3606eb48"
                            },
                            {
                                "name": "amount",
                                "type": "uint256",
                                "value": "40,000,000,000"
                            }
                        ],
                        "constructorArguments": "",
                        "name": "supply",
                        "returnParams": [],
                        "signature": "supply(address,uint256)"
                    },
                    "errorInfo": "",
                    "fromAddress": "0xc3d688b66703497daa19211eedff47f25384cdc3",
                    "gasUsed": 65772,
                    "id": 1,
                    "methodDecoded": true,
                    "operation": "DELEGATECALL",
                    "output": "",
                    "revert": false,
                    "revertMessage": "",
                    "selector": "0xf2b9fdb8",
                    "status": true,
                    "value": "0"
                },
                "nodeType": 0
            },
            "2": {
                "invocation": {
                    "address": "0xa0b86991c6218b36c1d19d4a2e9eb0ce3606eb48",
                    "callData": "0x000000000000000000000000ecded8b1c603cf21299835f1dfbe37f10f2a29af000000000000000000000000c3d688b66703497daa19211eedff47f25384cdc300000000000000000000000000000000000000000000000000000009502f9000",
                    "decodedMethod": {
                        "callParams": [
                            {
                                "name": "from",
                                "type": "address",
                                "value": "0xecded8b1c603cf21299835f1dfbe37f10f2a29af"
                            },
                            {
                                "name": "to",
                                "type": "address",
                                "value": "0xc3d688b66703497daa19211eedff47f25384cdc3"
                            },
                            {
                                "decimalAvailable": true,
                                "name": "value",
                                "type": "uint256",
                                "value": "40,000,000,000"
                            }
                        ],
                        "constructorArguments": "",
                        "name": "transferFrom",
                        "returnParams": [
                            {
                                "name": "",
                                "type": "bool",
                                "value": true
                            }
                        ],
                        "signature": "transferFrom(address,address,uint256)"
                    },
                    "errorInfo": "",
                    "fromAddress": "0xc3d688b66703497daa19211eedff47f25384cdc3",
                    "gasUsed": 32892,
                    "id": 2,
                    "methodDecoded": true,
                    "operation": "CALL",
                    "output": "0x0000000000000000000000000000000000000000000000000000000000000001",
                    "revert": false,
                    "revertMessage": "",
                    "selector": "0x23b872dd",
                    "status": true,
                    "value": "0"
                },
                "nodeType": 0
            },
            "3": {
                "invocation": {
                    "address": "0xa2327a938febf5fec13bacfb16ae10ecbc4cbdcf",
                    "callData": "0x000000000000000000000000ecded8b1c603cf21299835f1dfbe37f10f2a29af000000000000000000000000c3d688b66703497daa19211eedff47f25384cdc300000000000000000000000000000000000000000000000000000009502f9000",
                    "decodedMethod": {
                        "callParams": [
                            {
                                "name": "from",
                                "type": "address",
                                "value": "0xecded8b1c603cf21299835f1dfbe37f10f2a29af"
                            },
                            {
                                "name": "to",
                                "type": "address",
                                "value": "0xc3d688b66703497daa19211eedff47f25384cdc3"
                            },
                            {
                                "decimalAvailable": true,
                                "name": "value",
                                "type": "uint256",
                                "value": "40,000,000,000"
                            }
                        ],
                        "constructorArguments": "",
                        "name": "transferFrom",
                        "returnParams": [
                            {
                                "name": "",
                                "type": "bool",
                                "value": true
                            }
                        ],
                        "signature": "transferFrom(address,address,uint256)"
                    },
                    "errorInfo": "",
                    "fromAddress": "0xa0b86991c6218b36c1d19d4a2e9eb0ce3606eb48",
                    "gasUsed": 25597,
                    "id": 3,
                    "methodDecoded": true,
                    "operation": "DELEGATECALL",
                    "output": "0x0000000000000000000000000000000000000000000000000000000000000001",
                    "revert": false,
                    "revertMessage": "",
                    "selector": "0x23b872dd",
                    "status": true,
                    "value": "0"
                },
                "nodeType": 0
            },
            "4": {
                "event": {
                    "contract": "0xa0b86991c6218b36c1d19d4a2e9eb0ce3606eb48",
                    "decodedLog": {
                        "name": "Transfer",
                        "params": [
                            {
                                "name": "from",
                                "type": "address",
                                "value": "0xecded8b1c603cf21299835f1dfbe37f10f2a29af"
                            },
                            {
                                "name": "to",
                                "type": "address",
                                "value": "0xc3d688b66703497daa19211eedff47f25384cdc3"
                            },
                            {
                                "decimalAvailable": true,
                                "name": "value",
                                "type": "uint256",
                                "value": "40,000,000,000"
                            }
                        ],
                        "signature": "Transfer(address,address,uint256)"
                    },
                    "id": 4,
                    "logData": "0x00000000000000000000000000000000000000000000000000000009502f9000",
                    "logDecoded": true,
                    "operation": "EVENT",
                    "revert": false,
                    "status": true,
                    "topics": [
                        "0xddf252ad1be2c89b69c2b068fc378daa952ba7f163c4a11628f55a4df523b3ef",
                        "0x000000000000000000000000ecded8b1c603cf21299835f1dfbe37f10f2a29af",
                        "0x000000000000000000000000c3d688b66703497daa19211eedff47f25384cdc3"
                    ]
                },
                "nodeType": 1
            },
            "5": {
                "event": {
                    "contract": "0xc3d688b66703497daa19211eedff47f25384cdc3",
                    "decodedLog": {
                        "name": "Supply",
                        "params": [
                            {
                                "name": "from",
                                "type": "address",
                                "value": "0xecded8b1c603cf21299835f1dfbe37f10f2a29af"
                            },
                            {
                                "name": "dst",
                                "type": "address",
                                "value": "0xecded8b1c603cf21299835f1dfbe37f10f2a29af"
                            },
                            {
                                "name": "amount",
                                "type": "uint256",
                                "value": "40,000,000,000"
                            }
                        ],
                        "signature": "Supply(address,address,uint256)"
                    },
                    "id": 5,
                    "logData": "0x00000000000000000000000000000000000000000000000000000009502f9000",
                    "logDecoded": true,
                    "operation": "EVENT",
                    "revert": false,
                    "status": true,
                    "topics": [
                        "0xd1cf3d156d5f8f0d50f6c122ed609cec09d35c9b9fb3fff6ea0959134dae424e",
                        "0x000000000000000000000000ecded8b1c603cf21299835f1dfbe37f10f2a29af",
                        "0x000000000000000000000000ecded8b1c603cf21299835f1dfbe37f10f2a29af"
                    ]
                },
                "nodeType": 1
            }
        },
        "gasFlame": [
            {
                "children": [
                    {
                        "children": [
                            {
                                "children": [],
                                "depth": 0,
                                "name": "Initial Gas",
                                "value": 21608
                            },
                            {
                                "children": [
                                    {
                                        "children": [
                                            {
                                                "children": [
                                                    {
                                                        "children": [],
                                                        "depth": 3,
                                                        "name": "transferFrom",
                                                        "value": 25597
                                                    }
                                                ],
                                                "depth": 2,
                                                "name": "transferFrom",
                                                "value": 32892
                                            }
                                        ],
                                        "depth": 1,
                                        "name": "supply",
                                        "value": 65772
                                    }
                                ],
                                "depth": 0,
                                "name": "Executed Gas",
                                "value": 72970
                            }
                        ],
                        "depth": -1,
                        "name": "Actual Gas Used",
                        "value": 94578
                    },
                    {
                        "children": [],
                        "depth": -1,
                        "name": "Refunded Gas",
                        "value": 0
                    }
                ],
                "depth": -2,
                "name": "Total Gas",
                "value": 94578
            }
        ],
        "isConfirmed": true,
        "mainTrace": [
            {
                "children": [
                    {
                        "children": [
                            {
                                "children": [
                                    {
                                        "children": [
                                            {
                                                "children": [
                                                    {
                                                        "children": [],
                                                        "depth": 4,
                                                        "id": 4,
                                                        "order": 4
                                                    }
                                                ],
                                                "depth": 3,
                                                "id": 3,
                                                "order": 3
                                            }
                                        ],
                                        "depth": 2,
                                        "id": 2,
                                        "order": 2
                                    },
                                    {
                                        "children": [],
                                        "depth": 2,
                                        "id": 5,
                                        "order": 5
                                    }
                                ],
                                "depth": 1,
                                "id": 1,
                                "order": 1
                            }
                        ],
                        "depth": 0,
                        "id": 0,
                        "order": 0
                    }
                ],
                "depth": -1,
                "id": -1,
                "order": -1
            }
        ],
        "mainTraceNodeCount": 6,
        "parentIdMap": {
            "0": -1,
            "1": 0,
            "2": 1,
            "3": 2,
            "4": 3,
            "5": 1
        },
        "tidyTrace": [
            {
                "children": [
                    {
                        "children": [
                            {
                                "children": [
                                    {
                                        "children": [
                                            {
                                                "children": [
                                                    {
                                                        "children": [],
                                                        "depth": 4,
                                                        "id": 4,
                                                        "order": 4
                                                    }
                                                ],
                                                "depth": 3,
                                                "id": 3,
                                                "order": 3
                                            }
                                        ],
                                        "depth": 2,
                                        "id": 2,
                                        "order": 2
                                    },
                                    {
                                        "children": [],
                                        "depth": 2,
                                        "id": 5,
                                        "order": 5
                                    }
                                ],
                                "depth": 1,
                                "id": 1,
                                "order": 1
                            }
                        ],
                        "depth": 0,
                        "id": 0,
                        "order": 0
                    }
                ],
                "depth": -1,
                "id": -1,
                "order": -1
            }
        ],
        "tidyTraceNodeCount": 6
    },
    "state_change": {
        "stateChanges": [
            {
                "address": "0xa0b86991c6218b36c1d19d4a2e9eb0ce3606eb48",
                "erc": "ERC-20",
                "slots": [
                    {
                        "current": "0x00000000000000000000000000000000000000000000000000000005dece483b",
                        "key": "0xe900f54a1f166e0c7837e9aad54e569a037006de41941d7aa99eab1876b22595",
                        "prev": "0x0000000000000000000000000000000000000000000000000000000f2efdd83b"
                    },
                    {
                        "current": "0x00000000000000000000000000000000000000000000000000000a1645378c30",
                        "key": "0x8559d6a10054dab95830adc3e1d0473c4b869885e888e0a8b14868e04843e9d6",
                        "prev": "0x00000000000000000000000000000000000000000000000000000a0cf507fc30"
                    },
                    {
                        "current": "0xffffffffffffffffffffffffffffffffffffffffffffffffffffffd6f5a15a02",
                        "key": "0x152640b9dc5aee38e33b4a0e0f97fbec721506b948dc2f8a6c52deb412873729",
                        "prev": "0xffffffffffffffffffffffffffffffffffffffffffffffffffffffe045d0ea02"
                    }
                ],
                "storageVariables": [
                    {
                        "name": "balances",
                        "type": "mapping(address => uint256)",
                        "value": {
                            "pairs": [
                                {
                                    "key": "0xc3d688b66703497daa19211eedff47f25384cdc3",
                                    "value": {
                                        "current": "11090766826544",
                                        "prev": "11050766826544",
                                        "typeTag": 1
                                    }
                                },
                                {
                                    "key": "0xecded8b1c603cf21299835f1dfbe37f10f2a29af",
                                    "value": {
                                        "current": "25212897339",
                                        "prev": "65212897339",
                                        "typeTag": 1
                                    }
                                }
                            ],
                            "typeTag": 4
                        }
                    },
                    {
                        "name": "allowed",
                        "type": "mapping(address => mapping(address => uint256))",
                        "value": {
                            "pairs": [
                                {
                                    "key": "0xecded8b1c603cf21299835f1dfbe37f10f2a29af",
                                    "value": {
                                        "pairs": [
                                            {
                                                "key": "0xc3d688b66703497daa19211eedff47f25384cdc3",
                                                "value": {
                                                    "current": "115792089237316195423570985008687907853269984665640564039457584007736862005762",
                                                    "prev": "115792089237316195423570985008687907853269984665640564039457584007776862005762",
                                                    "typeTag": 1
                                                }
                                            }
                                        ],
                                        "typeTag": 4
                                    }
                                }
                            ],
                            "typeTag": 4
                        }
                    }
                ]
            },
            {
                "address": "0xc3d688b66703497daa19211eedff47f25384cdc3",
                "erc": "",
                "slots": [
                    {
                        "current": "0x000000c9ec27199100000000000000000003ac40eaaf228300039fc2124ca574",
                        "key": "0x0000000000000000000000000000000000000000000000000000000000000000",
                        "prev": "0x000000c9e8b50c5800000000000000000003ac402e4e8f5200039fc153df7caa"
                    },
                    {
                        "current": "0x000064a4afbb00000000000000d369d7c96fb500000000000000dee7b3b56f48",
                        "key": "0x0000000000000000000000000000000000000000000000000000000000000001",
                        "prev": "0x000064a4a64f00000000000000d372d9fa54ff00000000000000dee7b3b56f48"
                    },
                    {
                        "current": "0x0000140000000002c548e3000000c9ec271991ffffffffffffffff26dc85f9f3",
                        "key": "0xe4b537512306d5339e21f63435928ec9a4fa448d27ce9b252fb9b5f69a4da759",
                        "prev": "0x00001400000000027f6a4f000000c8d328bdacffffffffffffffff1dda5514a9"
                    }
                ],
                "storageVariables": []
            }
        ]
    }
}