{
    "balance_change": {
        "balanceChanges": [
            {
                "account": "0xbe7d87e410a5c880f7a8ee83d4ae9d3db26b0d84",
                "assets": [
                    {
                        "address": "0xb3999f658c0391d94a37f7ff328f3fec942bcadc",
                        "amount": "21.753453567297812215",
                        "iconUrl": "https://assets.blocksec.com/icon/ef3c244191edd2c79c19b644d0e4ab9f6da4162742cbec7293336337f5e4034d.png",
                        "isERC1155": false,
                        "isERC721": false,
                        "sign": true,
                        "value": "10.620036032874000496"
                    }
                ]
            },
            {
                "account": "0x1a9a4d919943340b7e855e310489e16155f4ed29",
                "assets": [
                    {
                        "address": "0xb3999f658c0391d94a37f7ff328f3fec942bcadc",
                        "amount": "21.753453567297812215",
                        "iconUrl": "https://assets.blocksec.com/icon/ef3c244191edd2c79c19b644d0e4ab9f6da4162742cbec7293336337f5e4034d.png",
                        "isERC1155": false,
                        "isERC721": false,
                        "sign": false,
                        "value": "10.620036032874000496"
                    }
                ]
            }
        ]
    },
    "profile": {
        "basic_info": {
            "baseFee": "17.156046317",
            "blockNumber": 16473220,
            "callData": "0xeb4d61380000000000000000000000000000000000000000000000012de3cac3c4bd76f70000000000000000000000000000000000000000000000000000000063cf2c99000000000000000000000000000000000000000000000000000000000000001c972dc5404d920e8532c156325e6b325b4ec327dc0fd1131a9bd35e03b54815f10db124def0cc4d9df74cad2ea62ad334fdd0641ad6b2d694fd4360c56a5fe212",
            "debugEnable": true,
            "errorInfo": "",
            "eventCount": 2,
            "feeRecipient": "0xdafea492d9c6733ae3d56b7ed1adb60692c98bc5",
            "formatValue": "0",
            "gasLimit": 103196,
            "gasPrice": "18.416046317",
            "gasUsed": 103196,
            "intTxnCount": 2,
            "internalRevert": false,
            "internalRevertMessage": "",
            "isContractCreation": false,
            "isFlashloan": false,
            "maxFee": "22.11",
            "nonce": 25,
            "overwritedBlockNumber": -1,
            "priorityFee": "1.26",
            "receiver": "0x1a9a4d919943340b7e855e310489e16155f4ed29",
            "revertMessage": "",
            "sender": "0xbe7d87e410a5c880f7a8ee83d4ae9d3db26b0d84",
            "simulationEnable": true,
            "sourceTxnHash": "0xf9736c848391e252988454dfaeb042e4dc2095b89ced424c936fcd084a612325",
            "status": true,
            "timestamp": "2023-01-24T00:55:11Z",
            "transactionFee": "0.001900462315729132",
            "txnHash": "0xf9736c848391e252988454dfaeb042e4dc2095b89ced424c936fcd084a612325",
            "txnIndex": 125,
            "type": 2,
            "value": "0"
        },
        "fund_flow": [
            {
                "amount": "21.753453567297812215",
                "from": "0x1a9a4d919943340b7e855e310489e16155f4ed29",
                "id": 1,
                "isERC1155": false,
                "isERC721": false,
                "isReverted": false,
                "order": 1,
                "to": "0xbe7d87e410a5c880f7a8ee83d4ae9d3db26b0d84",
                "token": "0xb3999f658c0391d94a37f7ff328f3fec942bcadc"
            }
        ],
        "token_infos": [
            {
                "address": "0xeeeeeeeeeeeeeeeeeeeeeeeeeeeeeeeeeeeeeeee",
                "decimals": 18
            },
            {
                "address": "0xb3999f658c0391d94a37f7ff328f3fec942bcadc",
                "decimals": 18
            },
            {
                "address": "0xc02aaa39b223fe8d0a0e5c4f27ead9083c756cc2",
                "decimals": 18
            }
        ]
    },
    "address_label": {
        "labels": [
            {
                "address": "0x0000000000000000000000000000000000000004",
                "label": "Precompiled"
            },
            {
                "address": "0xeeeeeeeeeeeeeeeeeeeeeeeeeeeeeeeeeeeeeeee",
                "label": "Ether"
            },
            {
                "address": "0x1a9a4d919943340b7e855e310489e16155f4ed29",
                "label": "Claimer"
            },
            {
                "address": "0xb3999f658c0391d94a37f7ff328f3fec942bcadc",
                "label": "Hashflow: HFT Token"
            },
            {
                "address": "0x0000000000000000000000000000000000000001",
                "label": "Precompiled"
            },
            {
                "address": "0x0000000000000000000000000000000000000002",
                "label": "Precompiled"
            },
            {
                "address": "0x0000000000000000000000000000000000000003",
                "label": "Precompiled"
            }
        ]
    },
    "trace": {
        "accountLabels": null,
        "dataMap": {
            "-1": {
                "invocation": {
                    "address": "0xbe7d87e410a5c880f7a8ee83d4ae9d3db26b0d84",
                    "callData": "",
                    "decodedMethod": null,
                    "errorInfo": "",
                    "fromAddress": "",
                    "gasUsed": 0,
                    "id": -1,
                    "methodDecoded": false,
                    "operation": "",
                    "output": "",
                    "revert": false,
                    "revertMessage": "",
                    "selector": "",
                    "status": false,
                    "value": ""
                },
                "nodeType": 0
            },
            "0": {
                "invocation": {
                    "address": "0x1a9a4d919943340b7e855e310489e16155f4ed29",
                    "callData": "0x0000000000000000000000000000000000000000000000012de3cac3c4bd76f70000000000000000000000000000000000000000000000000000000063cf2c99000000000000000000000000000000000000000000000000000000000000001c972dc5404d920e8532c156325e6b325b4ec327dc0fd1131a9bd35e03b54815f10db124def0cc4d9df74cad2ea62ad334fdd0641ad6b2d694fd4360c56a5fe212",
                    "decodedMethod": {
                        "callParams": [
                            {
                                "name": "amount",
                                "type": "uint256",
                                "value": "21,753,453,567,297,812,215"
                            },
                            {
                                "name": "deadline",
                                "type": "uint256",
                                "value": "1,674,521,753"
                            },
                            {
                                "name": "v",
                                "type": "uint8",
                                "value": "28"
                            },
                            {
                                "name": "r",
                                "type": "bytes32",
                                "value": "0x972dc5404d920e8532c156325e6b325b4ec327dc0fd1131a9bd35e03b54815f1"
                            },
                            {
                                "name": "s",
                                "type": "bytes32",
                                "value": "0x0db124def0cc4d9df74cad2ea62ad334fdd0641ad6b2d694fd4360c56a5fe212"
                            }
                        ],
                        "constructorArguments": "",
                        "name": "claimHFT",
                        "returnParams": [],
                        "signature": "claimHFT(uint256,uint256,uint8,bytes32,bytes32)"
                    },
                    "errorInfo": "",
                    "fromAddress": "0xbe7d87e410a5c880f7a8ee83d4ae9d3db26b0d84",
                    "gasUsed": 103196,
                    "id": 0,
                    "methodDecoded": true,
                    "operation": "CALL",
                    "output": "",
                    "revert": false,
                    "revertMessage": "",
                    "selector": "0xeb4d6138",
                    "status": true,
                    "value": "0"
                },
                "nodeType": 0
            },
            "1": {
                "invocation": {
                    "address": "0x0000000000000000000000000000000000000001",
                    "callData": "0x0027d774e830728bb01ee0a91679c070b952dd45d1965652d9628fce000000000000000000000000000000000000000000000000000000000000001c972dc5404d920e8532c156325e6b325b4ec327dc0fd1131a9bd35e03b54815f10db124def0cc4d9df74cad2ea62ad334fdd0641ad6b2d694fd4360c56a5fe212",
                    "decodedMethod": {
                        "callParams": [
                            {
                                "name": "hash",
                                "type": "bytes32",
                                "value": "0x20fc81d00027d774e830728bb01ee0a91679c070b952dd45d1965652d9628fce"
                            },
                            {
                                "name": "v",
                                "type": "uint256",
                                "value": "28"
                            },
                            {
                                "name": "r",
                                "type": "bytes32",
                                "value": "0x972dc5404d920e8532c156325e6b325b4ec327dc0fd1131a9bd35e03b54815f1"
                            },
                            {
                                "name": "s",
                                "type": "bytes32",
                                "value": "0x0db124def0cc4d9df74cad2ea62ad334fdd0641ad6b2d694fd4360c56a5fe212"
                            }
                        ],
                        "constructorArguments": "",
                        "name": "ecrecover",
                        "returnParams": [
                            {
                                "name": "",
                                "type": "address",
                                "value": "0x24ce850926782f19935339ed9c8b227bb54021f1"
                            }
                        ],
                        "signature": "ecrecover(bytes32,uint256,bytes32,bytes32)"
                    },
                    "errorInfo": "",
                    "fromAddress": "0x1a9a4d919943340b7e855e310489e16155f4ed29",
                    "gasUsed": 3000,
                    "id": 1,
                    "methodDecoded": true,
                    "operation": "STATICCALL",
                    "output": "0x00000000000000000000000024ce850926782f19935339ed9c8b227bb54021f1",
                    "revert": false,
                    "revertMessage": "",
                    "selector": "0x20fc81d0",
                    "status": true,
                    "value": "0"
                },
                "nodeType": 0
            },
            "2": {
                "invocation": {
                    "address": "0xb3999f658c0391d94a37f7ff328f3fec942bcadc",
                    "callData": "0x000000000000000000000000be7d87e410a5c880f7a8ee83d4ae9d3db26b0d840000000000000000000000000000000000000000000000012de3cac3c4bd76f7",
                    "decodedMethod": {
                        "callParams": [
                            {
                                "name": "dst",
                                "type": "address",
                                "value": "0xbe7d87e410a5c880f7a8ee83d4ae9d3db26b0d84"
                            },
                            {
                                "decimalAvailable": true,
                                "name": "rawAmount",
                                "type": "uint256",
                                "value": "21,753,453,567,297,812,215"
                            }
                        ],
                        "constructorArguments": "",
                        "name": "transfer",
                        "returnParams": [
                            {
                                "name": "",
                                "type": "bool",
                                "value": true
                            }
                        ],
                        "signature": "transfer(address,uint256)"
                    },
                    "errorInfo": "",
                    "fromAddress": "0x1a9a4d919943340b7e855e310489e16155f4ed29",
                    "gasUsed": 18336,
                    "id": 2,
                    "methodDecoded": true,
                    "operation": "CALL",
                    "output": "0x0000000000000000000000000000000000000000000000000000000000000001",
                    "revert": false,
                    "revertMessage": "",
                    "selector": "0xa9059cbb",
                    "status": true,
                    "value": "0"
                },
                "nodeType": 0
            },
            "3": {
                "event": {
                    "contract": "0xb3999f658c0391d94a37f7ff328f3fec942bcadc",
                    "decodedLog": {
                        "name": "Transfer",
                        "params": [
                            {
                                "name": "from",
                                "type": "address",
                                "value": "0x1a9a4d919943340b7e855e310489e16155f4ed29"
                            },
                            {
                                "name": "to",
                                "type": "address",
                                "value": "0xbe7d87e410a5c880f7a8ee83d4ae9d3db26b0d84"
                            },
                            {
                                "decimalAvailable": true,
                                "name": "amount",
                                "type": "uint256",
                                "value": "21,753,453,567,297,812,215"
                            }
                        ],
                        "signature": "Transfer(address,address,uint256)"
                    },
                    "id": 3,
                    "logData": "0x0000000000000000000000000000000000000000000000012de3cac3c4bd76f7",
                    "logDecoded": true,
                    "operation": "EVENT",
                    "revert": false,
                    "status": true,
                    "topics": [
                        "0xddf252ad1be2c89b69c2b068fc378daa952ba7f163c4a11628f55a4df523b3ef",
                        "0x0000000000000000000000001a9a4d919943340b7e855e310489e16155f4ed29",
                        "0x000000000000000000000000be7d87e410a5c880f7a8ee83d4ae9d3db26b0d84"
                    ]
                },
                "nodeType": 1
            },
            "4": {
                "event": {
                    "contract": "0x1a9a4d919943340b7e855e310489e16155f4ed29",
                    "decodedLog": {
                        "name": "ClaimHFT",
                        "params": [
                            {
                                "name": "sender",
                                "type": "address",
                                "value": "0xbe7d87e410a5c880f7a8ee83d4ae9d3db26b0d84"
                            },
                            {
                                "name": "amount",
                                "type": "uint256",
                                "value": "21,753,453,567,297,812,215"
                            },
                            {
                                "name": "nonce",
                                "type": "uint256",
                                "value": "0"
                            }
                        ],
                        "signature": "ClaimHFT(address,uint256,uint256)"
                    },
                    "id": 4,
                    "logData": "0x",
                    "logDecoded": true,
                    "operation": "EVENT",
                    "revert": false,
                    "status": true,
                    "topics": [
                        "0x21437ac41ddc7c28f08ed51366c2fe9f338175cea3d66560d06afea5c47dee68",
                        "0x000000000000000000000000be7d87e410a5c880f7a8ee83d4ae9d3db26b0d84",
                        "0x0000000000000000000000000000000000000000000000012de3cac3c4bd76f7",
                        "0x0000000000000000000000000000000000000000000000000000000000000000"
                    ]
                },
                "nodeType": 1
            }
        },
        "gasFlame": [
            {
                "children": [
                    {
                        "children": [
                            {
                                "children": [],
                                "depth": 0,
                                "name": "Initial Gas",
                                "value": 22640
                            },
                            {
                                "children": [
                                    {
                                        "children": [],
                                        "depth": 1,
                                        "name": "ecrecover",
                                        "value": 3000
                                    },
                                    {
                                        "children": [],
                                        "depth": 1,
                                        "name": "transfer",
                                        "value": 18336
                                    }
                                ],
                                "depth": 0,
                                "name": "Executed Gas",
                                "value": 80556
                            }
                        ],
                        "depth": -1,
                        "name": "Actual Gas Used",
                        "value": 103196
                    },
                    {
                        "children": [],
                        "depth": -1,
                        "name": "Refunded Gas",
                        "value": 0
                    }
                ],
                "depth": -2,
                "name": "Total Gas",
                "value": 103196
            }
        ],
        "isConfirmed": true,
        "mainTrace": [
            {
                "children": [
                    {
                        "children": [
                            {
                                "children": [],
                                "depth": 1,
                                "id": 1,
                                "order": 1
                            },
                            {
                                "children": [
                                    {
                                        "children": [],
                                        "depth": 2,
                                        "id": 3,
                                        "order": 3
                                    }
                                ],
                                "depth": 1,
                                "id": 2,
                                "order": 2
                            },
                            {
                                "children": [],
                                "depth": 1,
                                "id": 4,
                                "order": 4
                            }
                        ],
                        "depth": 0,
                        "id": 0,
                        "order": 0
                    }
                ],
                "depth": -1,
                "id": -1,
                "order": -1
            }
        ],
        "mainTraceNodeCount": 5,
        "parentIdMap": {
            "0": -1,
            "1": 0,
            "2": 0,
            "3": 2,
            "4": 0
        },
        "tidyTrace": [
            {
                "children": [
                    {
                        "children": [
                            {
                                "children": [
                                    {
                                        "children": [],
                                        "depth": 2,
                                        "id": 3,
                                        "order": 3
                                    }
                                ],
                                "depth": 1,
                                "id": 2,
                                "order": 2
                            },
                            {
                                "children": [],
                                "depth": 1,
                                "id": 4,
                                "order": 4
                            }
                        ],
                        "depth": 0,
                        "id": 0,
                        "order": 0
                    }
                ],
                "depth": -1,
                "id": -1,
                "order": -1
            }
        ],
        "tidyTraceNodeCount": 4
    },
    "state_change": {
        "stateChanges": [
            {
                "address": "0x1a9a4d919943340b7e855e310489e16155f4ed29",
                "erc": "",
                "slots": [
                    {
                        "current": "0x0000000000000000000000000000000000000000000000000000000000000001",
                        "key": "0x0ef23834d4e900f20d4e19bd95c7ad1bb4ff34b14a94607892741dc1192bdc85",
                        "prev": "0x0000000000000000000000000000000000000000000000000000000000000000"
                    },
                    {
                        "current": "0x0000000000000000000000000000000000000000000000000000000063cf2c6f",
                        "key": "0x44b428df63c7d466ca8c747d1868cc488bce044730d5b0c57724ed44692fb159",
                        "prev": "0x0000000000000000000000000000000000000000000000000000000000000000"
                    }
                ],
                "storageVariables": [
                    {
                        "name": "nonces",
                        "type": "mapping(address => uint256)",
                        "value": {
                            "pairs": [
                                {
                                    "key": "0xbe7d87e410a5c880f7a8ee83d4ae9d3db26b0d84",
                                    "value": {
                                        "current": "1",
                                        "prev": "0",
                                        "typeTag": 1
                                    }
                                }
                            ],
                            "typeTag": 4
                        }
                    },
                    {
                        "name": "lastClaimed",
                        "type": "mapping(address => uint256)",
                        "value": {
                            "pairs": [
                                {
                                    "key": "0xbe7d87e410a5c880f7a8ee83d4ae9d3db26b0d84",
                                    "value": {
                                        "current": "1674521711",
                                        "prev": "0",
                                        "typeTag": 1
                                    }
                                }
                            ],
                            "typeTag": 4
                        }
                    }
                ]
            },
            {
                "address": "0xb3999f658c0391d94a37f7ff328f3fec942bcadc",
                "erc": "ERC-20",
                "slots": [
                    {
                        "current": "0x0000000000000000000000000000000000000000000000047c6f5392a79178a3",
                        "key": "0x75a4af7ab0eb3cfc01fd2dccbc0f26956ac0b6b90751a7658a8a61d634bef87b",
                        "prev": "0x0000000000000000000000000000000000000000000000034e8b88cee2d401ac"
                    },
                    {
                        "current": "0x000000000000000000000000000000000000000000010ae7d212f613d6d42e4f",
                        "key": "0x67071ba2a106597ccc9dfbdd3969dffcae56bb636ce0e5eacf820e7aa01a1e61",
                        "prev": "0x000000000000000000000000000000000000000000010ae8fff6c0d79b91a546"
                    }
                ],
                "storageVariables": [
                    {
                        "name": "balances",
                        "type": "mapping(address => uint96)",
                        "value": {
                            "pairs": [
                                {
                                    "key": "0x1a9a4d919943340b7e855e310489e16155f4ed29",
                                    "value": {
                                        "current": "1260425819756215147966031",
                                        "prev": "1260447573209782445778246",
                                        "typeTag": 1
                                    }
                                },
                                {
                                    "key": "0xbe7d87e410a5c880f7a8ee83d4ae9d3db26b0d84",
                                    "value": {
                                        "current": "82753453567297812643",
                                        "prev": "61000000000000000428",
                                        "typeTag": 1
                                    }
                                }
                            ],
                            "typeTag": 4
                        }
                    }
                ]
            }
        ]
    }
}