{
    "balance_change": {
        "balanceChanges": [
            {
                "account": "0xc73ba3bfa401caec6b250ff89551e83b217d8e54",
                "assets": [
                    {
                        "address": "0x498d99de4268cebca264887f591c4ba8fac042e4",
                        "amount": "100",
                        "iconUrl": "",
                        "isERC1155": false,
                        "isERC721": false,
                        "sign": false,
                        "value": ""
                    }
                ]
            },
            {
                "account": "0xa93aac88578fb8360aeb52c1f27fd4d05057eb5f",
                "assets": [
                    {
                        "address": "0x498d99de4268cebca264887f591c4ba8fac042e4",
                        "amount": "100",
                        "iconUrl": "",
                        "isERC1155": false,
                        "isERC721": false,
                        "sign": true,
                        "value": ""
                    }
                ]
            }
        ]
    },
    "profile": {
        "basic_info": {
            "baseFee": "",
            "blockNumber": 8034882,
            "callData": "0xa9059cbb000000000000000000000000a93aac88578fb8360aeb52c1f27fd4d05057eb5f0000000000000000000000000000000000000000000000056bc75e2d63100000",
            "debugEnable": true,
            "errorInfo": "",
            "eventCount": 1,
            "feeRecipient": "0x52e44f279f4203dcf680395379e5f9990a69f13c",
            "formatValue": "0",
            "gasLimit": 300000,
            "gasPrice": "4",
            "gasUsed": 51556,
            "intTxnCount": 0,
            "internalRevert": false,
            "internalRevertMessage": "",
            "isContractCreation": false,
            "isFlashloan": false,
            "maxFee": "",
            "nonce": 595,
            "overwritedBlockNumber": -1,
            "priorityFee": "",
            "receiver": "0x498d99de4268cebca264887f591c4ba8fac042e4",
            "revertMessage": "",
            "sender": "0xc73ba3bfa401caec6b250ff89551e83b217d8e54",
            "simulationEnable": true,
            "sourceTxnHash": "0xf9f5e4b4dbdde3eea41519c07141a8c092aabfa20ff9899193ffb661b9d585a7",
            "status": true,
            "timestamp": "2019-06-26T17:15:14Z",
            "transactionFee": "0.000206224",
            "txnHash": "0xf9f5e4b4dbdde3eea41519c07141a8c092aabfa20ff9899193ffb661b9d585a7",
            "txnIndex": 92,
            "type": 0,
            "value": "0"
        },
        "fund_flow": [
            {
                "amount": "100",
                "from": "0xc73ba3bfa401caec6b250ff89551e83b217d8e54",
                "id": 1,
                "isERC1155": false,
                "isERC721": false,
                "isReverted": false,
                "order": 1,
                "to": "0xa93aac88578fb8360aeb52c1f27fd4d05057eb5f",
                "token": "0x498d99de4268cebca264887f591c4ba8fac042e4"
            }
        ],
        "token_infos": [
            {
                "address": "0x498d99de4268cebca264887f591c4ba8fac042e4",
                "decimals": 18
            },
            {
                "address": "0xc02aaa39b223fe8d0a0e5c4f27ead9083c756cc2",
                "decimals": 18
            },
            {
                "address": "0xeeeeeeeeeeeeeeeeeeeeeeeeeeeeeeeeeeeeeeee",
                "decimals": 18
            }
        ]
    },
    "address_label": {
        "labels": [
            {
                "address": "0x498d99de4268cebca264887f591c4ba8fac042e4",
                "label": "EMB"
            },
            {
                "address": "0x0000000000000000000000000000000000000001",
                "label": "Precompiled"
            },
            {
                "address": "0x0000000000000000000000000000000000000002",
                "label": "Precompiled"
            },
            {
                "address": "0x0000000000000000000000000000000000000003",
                "label": "Precompiled"
            },
            {
                "address": "0x0000000000000000000000000000000000000004",
                "label": "Precompiled"
            },
            {
                "address": "0xeeeeeeeeeeeeeeeeeeeeeeeeeeeeeeeeeeeeeeee",
                "label": "Ether"
            }
        ]
    },
    "trace": {
        "accountLabels": null,
        "dataMap": {
            "-1": {
                "invocation": {
                    "address": "0xc73ba3bfa401caec6b250ff89551e83b217d8e54",
                    "callData": "",
                    "decodedMethod": null,
                    "errorInfo": "",
                    "fromAddress": "",
                    "gasUsed": 0,
                    "id": -1,
                    "methodDecoded": false,
                    "operation": "",
                    "output": "",
                    "revert": false,
                    "revertMessage": "",
                    "selector": "",
                    "status": false,
                    "value": ""
                },
                "nodeType": 0
            },
            "0": {
                "invocation": {
                    "address": "0x498d99de4268cebca264887f591c4ba8fac042e4",
                    "callData": "0x000000000000000000000000a93aac88578fb8360aeb52c1f27fd4d05057eb5f0000000000000000000000000000000000000000000000056bc75e2d63100000",
                    "decodedMethod": {
                        "callParams": [
                            {
                                "name": "to",
                                "type": "address",
                                "value": "0xa93aac88578fb8360aeb52c1f27fd4d05057eb5f"
                            },
                            {
                                "decimalAvailable": true,
                                "name": "value",
                                "type": "uint256",
                                "value": "100,000,000,000,000,000,000"
                            }
                        ],
                        "constructorArguments": "",
                        "name": "transfer",
                        "returnParams": [
                            {
                                "name": "",
                                "type": "bool",
                                "value": true
                            }
                        ],
                        "signature": "transfer(address,uint256)"
                    },
                    "errorInfo": "",
                    "fromAddress": "0xc73ba3bfa401caec6b250ff89551e83b217d8e54",
                    "gasUsed": 51556,
                    "id": 0,
                    "methodDecoded": true,
                    "operation": "CALL",
                    "output": "0x0000000000000000000000000000000000000000000000000000000000000001",
                    "revert": false,
                    "revertMessage": "",
                    "selector": "0xa9059cbb",
                    "status": true,
                    "value": "0"
                },
                "nodeType": 0
            },
            "1": {
                "event": {
                    "contract": "0x498d99de4268cebca264887f591c4ba8fac042e4",
                    "decodedLog": {
                        "name": "Transfer",
                        "params": [
                            {
                                "name": "from",
                                "type": "address",
                                "value": "0xc73ba3bfa401caec6b250ff89551e83b217d8e54"
                            },
                            {
                                "name": "to",
                                "type": "address",
                                "value": "0xa93aac88578fb8360aeb52c1f27fd4d05057eb5f"
                            },
                            {
                                "decimalAvailable": true,
                                "name": "value",
                                "type": "uint256",
                                "value": "100,000,000,000,000,000,000"
                            }
                        ],
                        "signature": "Transfer(address,address,uint256)"
                    },
                    "id": 1,
                    "logData": "0x0000000000000000000000000000000000000000000000056bc75e2d63100000",
                    "logDecoded": true,
                    "operation": "EVENT",
                    "revert": false,
                    "status": true,
                    "topics": [
                        "0xddf252ad1be2c89b69c2b068fc378daa952ba7f163c4a11628f55a4df523b3ef",
                        "0x000000000000000000000000c73ba3bfa401caec6b250ff89551e83b217d8e54",
                        "0x000000000000000000000000a93aac88578fb8360aeb52c1f27fd4d05057eb5f"
                    ]
                },
                "nodeType": 1
            }
        },
        "gasFlame": [
            {
                "children": [
                    {
                        "children": [
                            {
                                "children": [],
                                "depth": 0,
                                "name": "Initial Gas",
                                "value": 23256
                            },
                            {
                                "children": [],
                                "depth": 0,
                                "name": "Executed Gas",
                                "value": 28300
                            }
                        ],
                        "depth": -1,
                        "name": "Actual Gas Used",
                        "value": 51556
                    },
                    {
                        "children": [],
                        "depth": -1,
                        "name": "Refunded Gas",
                        "value": 0
                    }
                ],
                "depth": -2,
                "name": "Total Gas",
                "value": 51556
            }
        ],
        "isConfirmed": true,
        "mainTrace": [
            {
                "children": [
                    {
                        "children": [
                            {
                                "children": [],
                                "depth": 1,
                                "id": 1,
                                "order": 1
                            }
                        ],
                        "depth": 0,
                        "id": 0,
                        "order": 0
                    }
                ],
                "depth": -1,
                "id": -1,
                "order": -1
            }
        ],
        "mainTraceNodeCount": 2,
        "parentIdMap": {
            "0": -1,
            "1": 0
        },
        "tidyTrace": [
            {
                "children": [
                    {
                        "children": [
                            {
                                "children": [],
                                "depth": 1,
                                "id": 1,
                                "order": 1
                            }
                        ],
                        "depth": 0,
                        "id": 0,
                        "order": 0
                    }
                ],
                "depth": -1,
                "id": -1,
                "order": -1
            }
        ],
        "tidyTraceNodeCount": 2
    },
    "state_change": {
        "stateChanges": [
            {
                "address": "0x498d99de4268cebca264887f591c4ba8fac042e4",
                "erc": "ERC-20",
                "slots": [
                    {
                        "current": "0x000000000000000000000000000000000000000000096db2b694e363001c0000",
                        "key": "0xc887872b04eff4383f0bc8e4595c1aed4eecda92839ce6e2738d33f301b25fc1",
                        "prev": "0x000000000000000000000000000000000000000000096db8225c4190632c0000"
                    },
                    {
                        "current": "0x0000000000000000000000000000000000000000000000056bc75e2d63100000",
                        "key": "0x37960c688c5d64db04e26ea1ba0e5ebaa9318b58c07a8514d44ebbef419ce06a",
                        "prev": "0x0000000000000000000000000000000000000000000000000000000000000000"
                    }
                ],
                "storageVariables": [
                    {
                        "name": "_balances",
                        "type": "mapping(address => uint256)",
                        "value": {
                            "pairs": [
                                {
                                    "key": "0xa93aac88578fb8360aeb52c1f27fd4d05057eb5f",
                                    "value": {
                                        "current": "100000000000000000000",
                                        "prev": "0",
                                        "typeTag": 1
                                    }
                                },
                                {
                                    "key": "0xc73ba3bfa401caec6b250ff89551e83b217d8e54",
                                    "value": {
                                        "current": "11398367000000000000000000",
                                        "prev": "11398467000000000000000000",
                                        "typeTag": 1
                                    }
                                }
                            ],
                            "typeTag": 4
                        }
                    }
                ]
            }
        ]
    }
}