{
    "balance_change": {
        "balanceChanges": [
            {
                "account": "0xb983562984465912a7798c20d8997ffb6092a01d",
                "assets": [
                    {
                        "address": "0xd048dc71d39ca7b9a7f6b88ac82f3174850bdca2",
                        "amount": "99,995",
                        "iconUrl": "",
                        "isERC1155": false,
                        "isERC721": false,
                        "sign": false,
                        "value": ""
                    }
                ]
            },
            {
                "account": "0x337619c4948a76c95c0fc6014dc73f8ca9d3e665",
                "assets": [
                    {
                        "address": "0xd048dc71d39ca7b9a7f6b88ac82f3174850bdca2",
                        "amount": "99,995",
                        "iconUrl": "",
                        "isERC1155": false,
                        "isERC721": false,
                        "sign": true,
                        "value": ""
                    }
                ]
            }
        ]
    },
    "profile": {
        "basic_info": {
            "baseFee": "",
            "blockNumber": 9944810,
            "callData": "0xa9059cbb000000000000000000000000337619c4948a76c95c0fc6014dc73f8ca9d3e66500000000000000000000000000000000000000000000152cbd644fc8b18c0000",
            "debugEnable": true,
            "errorInfo": "",
            "eventCount": 1,
            "feeRecipient": "0xea674fdde714fd979de3edf0f56aa9716b898ec8",
            "formatValue": "0",
            "gasLimit": 90000,
            "gasPrice": "20",
            "gasUsed": 37081,
            "intTxnCount": 0,
            "internalRevert": false,
            "internalRevertMessage": "",
            "isContractCreation": false,
            "isFlashloan": false,
            "maxFee": "",
            "nonce": 52582,
            "overwritedBlockNumber": -1,
            "priorityFee": "",
            "receiver": "0xd048dc71d39ca7b9a7f6b88ac82f3174850bdca2",
            "revertMessage": "",
            "sender": "0xb983562984465912a7798c20d8997ffb6092a01d",
            "simulationEnable": true,
            "sourceTxnHash": "0xf980b4e45733b98e247a8f725fb2782bb7b638d27ff669d09c9f7a6d532ce1cf",
            "status": true,
            "timestamp": "2020-04-26T00:19:44Z",
            "transactionFee": "0.00074162",
            "txnHash": "0xf980b4e45733b98e247a8f725fb2782bb7b638d27ff669d09c9f7a6d532ce1cf",
            "txnIndex": 21,
            "type": 0,
            "value": "0"
        },
        "fund_flow": [
            {
                "amount": "99,995",
                "from": "0xb983562984465912a7798c20d8997ffb6092a01d",
                "id": 1,
                "isERC1155": false,
                "isERC721": false,
                "isReverted": false,
                "order": 1,
                "to": "0x337619c4948a76c95c0fc6014dc73f8ca9d3e665",
                "token": "0xd048dc71d39ca7b9a7f6b88ac82f3174850bdca2"
            }
        ],
        "token_infos": [
            {
                "address": "0xd048dc71d39ca7b9a7f6b88ac82f3174850bdca2",
                "decimals": 18
            },
            {
                "address": "0xeeeeeeeeeeeeeeeeeeeeeeeeeeeeeeeeeeeeeeee",
                "decimals": 18
            },
            {
                "address": "0xc02aaa39b223fe8d0a0e5c4f27ead9083c756cc2",
                "decimals": 18
            }
        ]
    },
    "address_label": {
        "labels": [
            {
                "address": "0x0000000000000000000000000000000000000001",
                "label": "Precompiled"
            },
            {
                "address": "0x0000000000000000000000000000000000000002",
                "label": "Precompiled"
            },
            {
                "address": "0x0000000000000000000000000000000000000003",
                "label": "Precompiled"
            },
            {
                "address": "0x0000000000000000000000000000000000000004",
                "label": "Precompiled"
            },
            {
                "address": "0xeeeeeeeeeeeeeeeeeeeeeeeeeeeeeeeeeeeeeeee",
                "label": "Ether"
            },
            {
                "address": "0xd048dc71d39ca7b9a7f6b88ac82f3174850bdca2",
                "label": "Rivet Chain (RVCX)"
            }
        ]
    },
    "trace": {
        "accountLabels": null,
        "dataMap": {
            "-1": {
                "invocation": {
                    "address": "0xb983562984465912a7798c20d8997ffb6092a01d",
                    "callData": "",
                    "decodedMethod": null,
                    "errorInfo": "",
                    "fromAddress": "",
                    "gasUsed": 0,
                    "id": -1,
                    "methodDecoded": false,
                    "operation": "",
                    "output": "",
                    "revert": false,
                    "revertMessage": "",
                    "selector": "",
                    "status": false,
                    "value": ""
                },
                "nodeType": 0
            },
            "0": {
                "invocation": {
                    "address": "0xd048dc71d39ca7b9a7f6b88ac82f3174850bdca2",
                    "callData": "0x000000000000000000000000337619c4948a76c95c0fc6014dc73f8ca9d3e66500000000000000000000000000000000000000000000152cbd644fc8b18c0000",
                    "decodedMethod": {
                        "callParams": [
                            {
                                "name": "_to",
                                "type": "address",
                                "value": "0x337619c4948a76c95c0fc6014dc73f8ca9d3e665"
                            },
                            {
                                "decimalAvailable": true,
                                "name": "_value",
                                "type": "uint256",
                                "value": "99,995,000,000,000,000,000,000"
                            }
                        ],
                        "constructorArguments": "",
                        "name": "transfer",
                        "returnParams": [
                            {
                                "name": "",
                                "type": "bool",
                                "value": true
                            }
                        ],
                        "signature": "transfer(address,uint256)"
                    },
                    "errorInfo": "",
                    "fromAddress": "0xb983562984465912a7798c20d8997ffb6092a01d",
                    "gasUsed": 37081,
                    "id": 0,
                    "methodDecoded": true,
                    "operation": "CALL",
                    "output": "0x0000000000000000000000000000000000000000000000000000000000000001",
                    "revert": false,
                    "revertMessage": "",
                    "selector": "0xa9059cbb",
                    "status": true,
                    "value": "0"
                },
                "nodeType": 0
            },
            "1": {
                "event": {
                    "contract": "0xd048dc71d39ca7b9a7f6b88ac82f3174850bdca2",
                    "decodedLog": {
                        "name": "Transfer",
                        "params": [
                            {
                                "name": "from",
                                "type": "address",
                                "value": "0xb983562984465912a7798c20d8997ffb6092a01d"
                            },
                            {
                                "name": "to",
                                "type": "address",
                                "value": "0x337619c4948a76c95c0fc6014dc73f8ca9d3e665"
                            },
                            {
                                "decimalAvailable": true,
                                "name": "value",
                                "type": "uint256",
                                "value": "99,995,000,000,000,000,000,000"
                            }
                        ],
                        "signature": "Transfer(address,address,uint256)"
                    },
                    "id": 1,
                    "logData": "0x00000000000000000000000000000000000000000000152cbd644fc8b18c0000",
                    "logDecoded": true,
                    "operation": "EVENT",
                    "revert": false,
                    "status": true,
                    "topics": [
                        "0xddf252ad1be2c89b69c2b068fc378daa952ba7f163c4a11628f55a4df523b3ef",
                        "0x000000000000000000000000b983562984465912a7798c20d8997ffb6092a01d",
                        "0x000000000000000000000000337619c4948a76c95c0fc6014dc73f8ca9d3e665"
                    ]
                },
                "nodeType": 1
            }
        },
        "gasFlame": [
            {
                "children": [
                    {
                        "children": [
                            {
                                "children": [],
                                "depth": 0,
                                "name": "Initial Gas",
                                "value": 21656
                            },
                            {
                                "children": [],
                                "depth": 0,
                                "name": "Executed Gas",
                                "value": 15425
                            }
                        ],
                        "depth": -1,
                        "name": "Actual Gas Used",
                        "value": 37081
                    },
                    {
                        "children": [],
                        "depth": -1,
                        "name": "Refunded Gas",
                        "value": 0
                    }
                ],
                "depth": -2,
                "name": "Total Gas",
                "value": 37081
            }
        ],
        "isConfirmed": true,
        "mainTrace": [
            {
                "children": [
                    {
                        "children": [
                            {
                                "children": [],
                                "depth": 1,
                                "id": 1,
                                "order": 1
                            }
                        ],
                        "depth": 0,
                        "id": 0,
                        "order": 0
                    }
                ],
                "depth": -1,
                "id": -1,
                "order": -1
            }
        ],
        "mainTraceNodeCount": 2,
        "parentIdMap": {
            "0": -1,
            "1": 0
        },
        "tidyTrace": [
            {
                "children": [
                    {
                        "children": [
                            {
                                "children": [],
                                "depth": 1,
                                "id": 1,
                                "order": 1
                            }
                        ],
                        "depth": 0,
                        "id": 0,
                        "order": 0
                    }
                ],
                "depth": -1,
                "id": -1,
                "order": -1
            }
        ],
        "tidyTraceNodeCount": 2
    },
    "state_change": {
        "stateChanges": [
            {
                "address": "0xd048dc71d39ca7b9a7f6b88ac82f3174850bdca2",
                "erc": "ERC-20",
                "slots": [
                    {
                        "current": "0x00000000000000000000000000000000000000000016c5a97f48159751040000",
                        "key": "0xb08f5ed96dc81ad4cd5594b0e50e0bf1d4f59cbda964b0029dda0e05ec5a5291",
                        "prev": "0x00000000000000000000000000000000000000000016dad63cac656002900000"
                    },
                    {
                        "current": "0x00000000000000000000000000000000000000000027ceac09b56629d32fe400",
                        "key": "0x3bd7b4b21e64db43cc32058e43e01cc579c5bddcf12587a773db006c9abc7e8f",
                        "prev": "0x00000000000000000000000000000000000000000027b97f4c51166121a3e400"
                    }
                ],
                "storageVariables": [
                    {
                        "name": "balances",
                        "type": "mapping(address => uint256)",
                        "value": {
                            "pairs": [
                                {
                                    "key": "0x337619c4948a76c95c0fc6014dc73f8ca9d3e665",
                                    "value": {
                                        "current": "48124088000000009719243776",
                                        "prev": "48024093000000009719243776",
                                        "typeTag": 1
                                    }
                                },
                                {
                                    "key": "0xb983562984465912a7798c20d8997ffb6092a01d",
                                    "value": {
                                        "current": "27529800899999999648333824",
                                        "prev": "27629795899999999648333824",
                                        "typeTag": 1
                                    }
                                }
                            ],
                            "typeTag": 4
                        }
                    }
                ]
            }
        ]
    }
}