{
    "balance_change": {
        "balanceChanges": [
            {
                "account": "0xf3983d358613f071ab2c899cf38b66bda5c06168",
                "assets": [
                    {
                        "address": "0xe0c6a2cd058ef091c7a5ef5e29a74ffdd9bd566c",
                        "amount": "32.878344032828876287",
                        "iconUrl": "",
                        "isERC1155": false,
                        "isERC721": false,
                        "sign": false,
                        "value": "96.14676196"
                    },
                    {
                        "address": "0xe481f2311c774564d517d015e678c2736a25ddd3",
                        "amount": "0.510132415813640984",
                        "iconUrl": "",
                        "isERC1155": false,
                        "isERC721": false,
                        "sign": true,
                        "value": "95.53149851"
                    }
                ]
            },
            {
                "account": "0x0b316150f91dbd9a234b870cc75aaf57def1be43",
                "assets": [
                    {
                        "address": "0xc02aaa39b223fe8d0a0e5c4f27ead9083c756cc2",
                        "amount": "0.163628066962754861",
                        "iconUrl": "https://assets.blocksec.com/icon/f1cb2d02c471d545bbc7722daf3277fd852d98e63d118771af7047bd8256c516.png",
                        "isERC1155": false,
                        "isERC721": false,
                        "sign": true,
                        "value": "96.14676199"
                    },
                    {
                        "address": "0xe481f2311c774564d517d015e678c2736a25ddd3",
                        "amount": "0.510132415813640984",
                        "iconUrl": "",
                        "isERC1155": false,
                        "isERC721": false,
                        "sign": false,
                        "value": "95.53149851"
                    }
                ]
            },
            {
                "account": "0x29f61938a2502cf7ecb7cdf161bb7c1cf24b4756",
                "assets": [
                    {
                        "address": "0xe0c6a2cd058ef091c7a5ef5e29a74ffdd9bd566c",
                        "amount": "32.878344032828876287",
                        "iconUrl": "",
                        "isERC1155": false,
                        "isERC721": false,
                        "sign": true,
                        "value": "96.14676196"
                    },
                    {
                        "address": "0xc02aaa39b223fe8d0a0e5c4f27ead9083c756cc2",
                        "amount": "0.163628066962754861",
                        "iconUrl": "https://assets.blocksec.com/icon/f1cb2d02c471d545bbc7722daf3277fd852d98e63d118771af7047bd8256c516.png",
                        "isERC1155": false,
                        "isERC721": false,
                        "sign": false,
                        "value": "96.14676199"
                    }
                ]
            }
        ]
    },
    "profile": {
        "basic_info": {
            "baseFee": "",
            "blockNumber": 11453998,
            "callData": "0x5c11d795000000000000000000000000000000000000000000000002067f9dd78abcdca2000000000000000000000000000000000000000000000000070a91e7ab6dfed000000000000000000000000000000000000000000000000000000000000000a0000000000000000000000000f3983d358613f071ab2c899cf38b66bda5c06168000000000000000000000000000000000000000000000000000000005fd7f3640000000000000000000000000000000000000000000000000000000000000003000000000000000000000000e0c6a2cd058ef091c7a5ef5e29a74ffdd9bd566c000000000000000000000000c02aaa39b223fe8d0a0e5c4f27ead9083c756cc2000000000000000000000000e481f2311c774564d517d015e678c2736a25ddd3",
            "debugEnable": true,
            "errorInfo": "",
            "eventCount": 8,
            "feeRecipient": "0xea674fdde714fd979de3edf0f56aa9716b898ec8",
            "formatValue": "0",
            "gasLimit": 292142,
            "gasPrice": "44.55",
            "gasUsed": 269200,
            "intTxnCount": 15,
            "internalRevert": false,
            "internalRevertMessage": "",
            "isContractCreation": false,
            "isFlashloan": false,
            "maxFee": "",
            "nonce": 775,
            "overwritedBlockNumber": -1,
            "priorityFee": "",
            "receiver": "0x7a250d5630b4cf539739df2c5dacb4c659f2488d",
            "revertMessage": "",
            "sender": "0xf3983d358613f071ab2c899cf38b66bda5c06168",
            "simulationEnable": true,
            "sourceTxnHash": "0xf937afc626db8afc2bf7e66b231cbf915779ca10d809783228f88480d729466c",
            "status": true,
            "timestamp": "2020-12-14T23:01:58Z",
            "transactionFee": "0.01199286",
            "txnHash": "0xf937afc626db8afc2bf7e66b231cbf915779ca10d809783228f88480d729466c",
            "txnIndex": 39,
            "type": 0,
            "value": "0"
        },
        "fund_flow": [
            {
                "amount": "32.878344032828876287",
                "from": "0xf3983d358613f071ab2c899cf38b66bda5c06168",
                "id": 1,
                "isERC1155": false,
                "isERC721": false,
                "isReverted": false,
                "order": 1,
                "to": "0x29f61938a2502cf7ecb7cdf161bb7c1cf24b4756",
                "token": "0xe0c6a2cd058ef091c7a5ef5e29a74ffdd9bd566c"
            },
            {
                "amount": "0.163628066962754861",
                "from": "0x29f61938a2502cf7ecb7cdf161bb7c1cf24b4756",
                "id": 2,
                "isERC1155": false,
                "isERC721": false,
                "isReverted": false,
                "order": 2,
                "to": "0x0b316150f91dbd9a234b870cc75aaf57def1be43",
                "token": "0xc02aaa39b223fe8d0a0e5c4f27ead9083c756cc2"
            },
            {
                "amount": "0.510132415813640984",
                "from": "0x0b316150f91dbd9a234b870cc75aaf57def1be43",
                "id": 3,
                "isERC1155": false,
                "isERC721": false,
                "isReverted": false,
                "order": 3,
                "to": "0xf3983d358613f071ab2c899cf38b66bda5c06168",
                "token": "0xe481f2311c774564d517d015e678c2736a25ddd3"
            }
        ],
        "token_infos": [
            {
                "address": "0xe0c6a2cd058ef091c7a5ef5e29a74ffdd9bd566c",
                "decimals": 18
            },
            {
                "address": "0xe481f2311c774564d517d015e678c2736a25ddd3",
                "decimals": 18
            },
            {
                "address": "0xeeeeeeeeeeeeeeeeeeeeeeeeeeeeeeeeeeeeeeee",
                "decimals": 18
            },
            {
                "address": "0xc02aaa39b223fe8d0a0e5c4f27ead9083c756cc2",
                "decimals": 18
            }
        ]
    },
    "address_label": {
        "labels": [
            {
                "address": "0x0b316150f91dbd9a234b870cc75aaf57def1be43",
                "label": "Uniswap V2: DEFO"
            },
            {
                "address": "0x0000000000000000000000000000000000000001",
                "label": "Precompiled"
            },
            {
                "address": "0xe0c6a2cd058ef091c7a5ef5e29a74ffdd9bd566c",
                "label": "RFIDMT (RFIDMT)"
            },
            {
                "address": "0x7a250d5630b4cf539739df2c5dacb4c659f2488d",
                "label": "Uniswap V2: Router 2"
            },
            {
                "address": "0xe481f2311c774564d517d015e678c2736a25ddd3",
                "label": "DefHold: DEFO Token"
            },
            {
                "address": "0x29f61938a2502cf7ecb7cdf161bb7c1cf24b4756",
                "label": "Uniswap V2: RFIDMT 2"
            },
            {
                "address": "0x0000000000000000000000000000000000000002",
                "label": "Precompiled"
            },
            {
                "address": "0x0000000000000000000000000000000000000003",
                "label": "Precompiled"
            },
            {
                "address": "0x0000000000000000000000000000000000000004",
                "label": "Precompiled"
            },
            {
                "address": "0xeeeeeeeeeeeeeeeeeeeeeeeeeeeeeeeeeeeeeeee",
                "label": "Ether"
            },
            {
                "address": "0xc02aaa39b223fe8d0a0e5c4f27ead9083c756cc2",
                "label": "Wrapped Ether (WETH)"
            }
        ]
    },
    "trace": {
        "accountLabels": null,
        "dataMap": {
            "-1": {
                "invocation": {
                    "address": "0xf3983d358613f071ab2c899cf38b66bda5c06168",
                    "callData": "",
                    "decodedMethod": null,
                    "errorInfo": "",
                    "fromAddress": "",
                    "gasUsed": 0,
                    "id": -1,
                    "methodDecoded": false,
                    "operation": "",
                    "output": "",
                    "revert": false,
                    "revertMessage": "",
                    "selector": "",
                    "status": false,
                    "value": ""
                },
                "nodeType": 0
            },
            "0": {
                "invocation": {
                    "address": "0x7a250d5630b4cf539739df2c5dacb4c659f2488d",
                    "callData": "0x000000000000000000000000000000000000000000000002067f9dd78abcdca2000000000000000000000000000000000000000000000000070a91e7ab6dfed000000000000000000000000000000000000000000000000000000000000000a0000000000000000000000000f3983d358613f071ab2c899cf38b66bda5c06168000000000000000000000000000000000000000000000000000000005fd7f3640000000000000000000000000000000000000000000000000000000000000003000000000000000000000000e0c6a2cd058ef091c7a5ef5e29a74ffdd9bd566c000000000000000000000000c02aaa39b223fe8d0a0e5c4f27ead9083c756cc2000000000000000000000000e481f2311c774564d517d015e678c2736a25ddd3",
                    "decodedMethod": {
                        "callParams": [
                            {
                                "name": "amountIn",
                                "type": "uint256",
                                "value": "37,361,754,582,760,086,690"
                            },
                            {
                                "name": "amountOutMin",
                                "type": "uint256",
                                "value": "507,378,332,232,187,600"
                            },
                            {
                                "name": "path",
                                "type": "address[]",
                                "value": [
                                    "0xe0c6a2cd058ef091c7a5ef5e29a74ffdd9bd566c",
                                    "0xc02aaa39b223fe8d0a0e5c4f27ead9083c756cc2",
                                    "0xe481f2311c774564d517d015e678c2736a25ddd3"
                                ]
                            },
                            {
                                "name": "to",
                                "type": "address",
                                "value": "0xf3983d358613f071ab2c899cf38b66bda5c06168"
                            },
                            {
                                "name": "deadline",
                                "type": "uint256",
                                "value": "1,607,988,068"
                            }
                        ],
                        "constructorArguments": "",
                        "name": "swapExactTokensForTokensSupportingFeeOnTransferTokens",
                        "returnParams": [],
                        "signature": "swapExactTokensForTokensSupportingFeeOnTransferTokens(uint256,uint256,address[],address,uint256)"
                    },
                    "errorInfo": "",
                    "fromAddress": "0xf3983d358613f071ab2c899cf38b66bda5c06168",
                    "gasUsed": 269200,
                    "id": 0,
                    "methodDecoded": true,
                    "operation": "CALL",
                    "output": "",
                    "revert": false,
                    "revertMessage": "",
                    "selector": "0x5c11d795",
                    "status": true,
                    "value": "0"
                },
                "nodeType": 0
            },
            "1": {
                "invocation": {
                    "address": "0xe0c6a2cd058ef091c7a5ef5e29a74ffdd9bd566c",
                    "callData": "0x000000000000000000000000f3983d358613f071ab2c899cf38b66bda5c0616800000000000000000000000029f61938a2502cf7ecb7cdf161bb7c1cf24b4756000000000000000000000000000000000000000000000002067f9dd78abcdca2",
                    "decodedMethod": {
                        "callParams": [
                            {
                                "name": "sender",
                                "type": "address",
                                "value": "0xf3983d358613f071ab2c899cf38b66bda5c06168"
                            },
                            {
                                "name": "recipient",
                                "type": "address",
                                "value": "0x29f61938a2502cf7ecb7cdf161bb7c1cf24b4756"
                            },
                            {
                                "decimalAvailable": true,
                                "name": "amount",
                                "type": "uint256",
                                "value": "37,361,754,582,760,086,690"
                            }
                        ],
                        "constructorArguments": "",
                        "name": "transferFrom",
                        "returnParams": [
                            {
                                "name": "",
                                "type": "bool",
                                "value": true
                            }
                        ],
                        "signature": "transferFrom(address,address,uint256)"
                    },
                    "errorInfo": "",
                    "fromAddress": "0x7a250d5630b4cf539739df2c5dacb4c659f2488d",
                    "gasUsed": 95312,
                    "id": 1,
                    "methodDecoded": true,
                    "operation": "CALL",
                    "output": "0x0000000000000000000000000000000000000000000000000000000000000001",
                    "revert": false,
                    "revertMessage": "",
                    "selector": "0x23b872dd",
                    "status": true,
                    "value": "0"
                },
                "nodeType": 0
            },
            "10": {
                "invocation": {
                    "address": "0xc02aaa39b223fe8d0a0e5c4f27ead9083c756cc2",
                    "callData": "0x00000000000000000000000029f61938a2502cf7ecb7cdf161bb7c1cf24b4756",
                    "decodedMethod": {
                        "callParams": [
                            {
                                "name": "",
                                "type": "address",
                                "value": "0x29f61938a2502cf7ecb7cdf161bb7c1cf24b4756"
                            }
                        ],
                        "constructorArguments": "",
                        "name": "balanceOf",
                        "returnParams": [
                            {
                                "decimalAvailable": true,
                                "name": "",
                                "type": "uint256",
                                "value": "38,659,187,126,300,803,170"
                            }
                        ],
                        "signature": "balanceOf(address)"
                    },
                    "errorInfo": "",
                    "fromAddress": "0x29f61938a2502cf7ecb7cdf161bb7c1cf24b4756",
                    "gasUsed": 1234,
                    "id": 10,
                    "methodDecoded": true,
                    "operation": "STATICCALL",
                    "output": "0x000000000000000000000000000000000000000000000002188105ddc0838062",
                    "revert": false,
                    "revertMessage": "",
                    "selector": "0x70a08231",
                    "status": true,
                    "value": "0"
                },
                "nodeType": 0
            },
            "11": {
                "invocation": {
                    "address": "0xe0c6a2cd058ef091c7a5ef5e29a74ffdd9bd566c",
                    "callData": "0x00000000000000000000000029f61938a2502cf7ecb7cdf161bb7c1cf24b4756",
                    "decodedMethod": {
                        "callParams": [
                            {
                                "name": "account",
                                "type": "address",
                                "value": "0x29f61938a2502cf7ecb7cdf161bb7c1cf24b4756"
                            }
                        ],
                        "constructorArguments": "",
                        "name": "balanceOf",
                        "returnParams": [
                            {
                                "decimalAvailable": true,
                                "name": "",
                                "type": "uint256",
                                "value": "7,777,496,536,542,383,010,683"
                            }
                        ],
                        "signature": "balanceOf(address)"
                    },
                    "errorInfo": "",
                    "fromAddress": "0x29f61938a2502cf7ecb7cdf161bb7c1cf24b4756",
                    "gasUsed": 2243,
                    "id": 11,
                    "methodDecoded": true,
                    "operation": "STATICCALL",
                    "output": "0x0000000000000000000000000000000000000000000001a59e72550ae7a1737b",
                    "revert": false,
                    "revertMessage": "",
                    "selector": "0x70a08231",
                    "status": true,
                    "value": "0"
                },
                "nodeType": 0
            },
            "12": {
                "event": {
                    "contract": "0x29f61938a2502cf7ecb7cdf161bb7c1cf24b4756",
                    "decodedLog": {
                        "name": "Sync",
                        "params": [
                            {
                                "name": "reserve0",
                                "type": "uint112",
                                "value": "38,659,187,126,300,803,170"
                            },
                            {
                                "name": "reserve1",
                                "type": "uint112",
                                "value": "7,777,496,536,542,383,010,683"
                            }
                        ],
                        "signature": "Sync(uint112,uint112)"
                    },
                    "id": 12,
                    "logData": "0x000000000000000000000000000000000000000000000002188105ddc08380620000000000000000000000000000000000000000000001a59e72550ae7a1737b",
                    "logDecoded": true,
                    "operation": "EVENT",
                    "revert": false,
                    "status": true,
                    "topics": [
                        "0x1c411e9a96e071241c2f21f7726b17ae89e3cab4c78be50e062b03a9fffbbad1"
                    ]
                },
                "nodeType": 1
            },
            "13": {
                "event": {
                    "contract": "0x29f61938a2502cf7ecb7cdf161bb7c1cf24b4756",
                    "decodedLog": {
                        "name": "Swap",
                        "params": [
                            {
                                "name": "sender",
                                "type": "address",
                                "value": "0x7a250d5630b4cf539739df2c5dacb4c659f2488d"
                            },
                            {
                                "name": "to",
                                "type": "address",
                                "value": "0x0b316150f91dbd9a234b870cc75aaf57def1be43"
                            },
                            {
                                "name": "amount0In",
                                "type": "uint256",
                                "value": "0"
                            },
                            {
                                "name": "amount1In",
                                "type": "uint256",
                                "value": "32,878,344,032,828,876,288"
                            },
                            {
                                "name": "amount0Out",
                                "type": "uint256",
                                "value": "163,628,066,962,754,861"
                            },
                            {
                                "name": "amount1Out",
                                "type": "uint256",
                                "value": "0"
                            }
                        ],
                        "signature": "Swap(address,uint256,uint256,uint256,uint256,address)"
                    },
                    "id": 13,
                    "logData": "0x0000000000000000000000000000000000000000000000000000000000000000000000000000000000000000000000000000000000000001c84757b36fd96600000000000000000000000000000000000000000000000000024552dc26994d2d0000000000000000000000000000000000000000000000000000000000000000",
                    "logDecoded": true,
                    "operation": "EVENT",
                    "revert": false,
                    "status": true,
                    "topics": [
                        "0xd78ad95fa46c994b6551d0da85fc275fe613ce37657fb8d5e3d130840159d822",
                        "0x0000000000000000000000007a250d5630b4cf539739df2c5dacb4c659f2488d",
                        "0x0000000000000000000000000b316150f91dbd9a234b870cc75aaf57def1be43"
                    ]
                },
                "nodeType": 1
            },
            "14": {
                "invocation": {
                    "address": "0x0b316150f91dbd9a234b870cc75aaf57def1be43",
                    "callData": "0x",
                    "decodedMethod": {
                        "callParams": [],
                        "constructorArguments": "",
                        "name": "getReserves",
                        "returnParams": [
                            {
                                "name": "_reserve0",
                                "type": "uint112",
                                "value": "792,971,881,094,581,383,395"
                            },
                            {
                                "name": "_reserve1",
                                "type": "uint112",
                                "value": "2,480,145,090,716,828,187,280"
                            },
                            {
                                "name": "_blockTimestampLast",
                                "type": "uint32",
                                "value": "1,607,986,874"
                            }
                        ],
                        "signature": "getReserves()"
                    },
                    "errorInfo": "",
                    "fromAddress": "0x7a250d5630b4cf539739df2c5dacb4c659f2488d",
                    "gasUsed": 1204,
                    "id": 14,
                    "methodDecoded": true,
                    "operation": "STATICCALL",
                    "output": "0x00000000000000000000000000000000000000000000002afcb20c82abd0f0e300000000000000000000000000000000000000000000008672ed63a295803a90000000000000000000000000000000000000000000000000000000005fd7eeba",
                    "revert": false,
                    "revertMessage": "",
                    "selector": "0x0902f1ac",
                    "status": true,
                    "value": "0"
                },
                "nodeType": 0
            },
            "15": {
                "invocation": {
                    "address": "0xc02aaa39b223fe8d0a0e5c4f27ead9083c756cc2",
                    "callData": "0x0000000000000000000000000b316150f91dbd9a234b870cc75aaf57def1be43",
                    "decodedMethod": {
                        "callParams": [
                            {
                                "name": "",
                                "type": "address",
                                "value": "0x0b316150f91dbd9a234b870cc75aaf57def1be43"
                            }
                        ],
                        "constructorArguments": "",
                        "name": "balanceOf",
                        "returnParams": [
                            {
                                "decimalAvailable": true,
                                "name": "",
                                "type": "uint256",
                                "value": "793,135,509,161,544,138,256"
                            }
                        ],
                        "signature": "balanceOf(address)"
                    },
                    "errorInfo": "",
                    "fromAddress": "0x7a250d5630b4cf539739df2c5dacb4c659f2488d",
                    "gasUsed": 1234,
                    "id": 15,
                    "methodDecoded": true,
                    "operation": "STATICCALL",
                    "output": "0x00000000000000000000000000000000000000000000002afef75f5ed26a3e10",
                    "revert": false,
                    "revertMessage": "",
                    "selector": "0x70a08231",
                    "status": true,
                    "value": "0"
                },
                "nodeType": 0
            },
            "16": {
                "invocation": {
                    "address": "0x0b316150f91dbd9a234b870cc75aaf57def1be43",
                    "callData": "0x000000000000000000000000000000000000000000000000000000000000000000000000000000000000000000000000000000000000000007145abab8fbe318000000000000000000000000f3983d358613f071ab2c899cf38b66bda5c0616800000000000000000000000000000000000000000000000000000000000000800000000000000000000000000000000000000000000000000000000000000000",
                    "decodedMethod": {
                        "callParams": [
                            {
                                "name": "amount0Out",
                                "type": "uint256",
                                "value": "0"
                            },
                            {
                                "name": "amount1Out",
                                "type": "uint256",
                                "value": "510,132,415,813,640,984"
                            },
                            {
                                "name": "to",
                                "type": "address",
                                "value": "0xf3983d358613f071ab2c899cf38b66bda5c06168"
                            },
                            {
                                "name": "data",
                                "type": "bytes",
                                "value": "0x"
                            }
                        ],
                        "constructorArguments": "",
                        "name": "swap",
                        "returnParams": [],
                        "signature": "swap(uint256,uint256,address,bytes)"
                    },
                    "errorInfo": "",
                    "fromAddress": "0x7a250d5630b4cf539739df2c5dacb4c659f2488d",
                    "gasUsed": 71250,
                    "id": 16,
                    "methodDecoded": true,
                    "operation": "CALL",
                    "output": "",
                    "revert": false,
                    "revertMessage": "",
                    "selector": "0x022c0d9f",
                    "status": true,
                    "value": "0"
                },
                "nodeType": 0
            },
            "17": {
                "invocation": {
                    "address": "0xe481f2311c774564d517d015e678c2736a25ddd3",
                    "callData": "0x000000000000000000000000f3983d358613f071ab2c899cf38b66bda5c0616800000000000000000000000000000000000000000000000007145abab8fbe318",
                    "decodedMethod": {
                        "callParams": [
                            {
                                "name": "recipient",
                                "type": "address",
                                "value": "0xf3983d358613f071ab2c899cf38b66bda5c06168"
                            },
                            {
                                "decimalAvailable": true,
                                "name": "amount",
                                "type": "uint256",
                                "value": "510,132,415,813,640,984"
                            }
                        ],
                        "constructorArguments": "",
                        "name": "transfer",
                        "returnParams": [
                            {
                                "name": "",
                                "type": "bool",
                                "value": true
                            }
                        ],
                        "signature": "transfer(address,uint256)"
                    },
                    "errorInfo": "",
                    "fromAddress": "0x0b316150f91dbd9a234b870cc75aaf57def1be43",
                    "gasUsed": 29730,
                    "id": 17,
                    "methodDecoded": true,
                    "operation": "CALL",
                    "output": "0x0000000000000000000000000000000000000000000000000000000000000001",
                    "revert": false,
                    "revertMessage": "",
                    "selector": "0xa9059cbb",
                    "status": true,
                    "value": "0"
                },
                "nodeType": 0
            },
            "18": {
                "event": {
                    "contract": "0xe481f2311c774564d517d015e678c2736a25ddd3",
                    "decodedLog": {
                        "name": "Transfer",
                        "params": [
                            {
                                "name": "from",
                                "type": "address",
                                "value": "0x0b316150f91dbd9a234b870cc75aaf57def1be43"
                            },
                            {
                                "name": "to",
                                "type": "address",
                                "value": "0xf3983d358613f071ab2c899cf38b66bda5c06168"
                            },
                            {
                                "decimalAvailable": true,
                                "name": "value",
                                "type": "uint256",
                                "value": "510,132,415,813,640,984"
                            }
                        ],
                        "signature": "Transfer(address,address,uint256)"
                    },
                    "id": 18,
                    "logData": "0x00000000000000000000000000000000000000000000000007145abab8fbe318",
                    "logDecoded": true,
                    "operation": "EVENT",
                    "revert": false,
                    "status": true,
                    "topics": [
                        "0xddf252ad1be2c89b69c2b068fc378daa952ba7f163c4a11628f55a4df523b3ef",
                        "0x0000000000000000000000000b316150f91dbd9a234b870cc75aaf57def1be43",
                        "0x000000000000000000000000f3983d358613f071ab2c899cf38b66bda5c06168"
                    ]
                },
                "nodeType": 1
            },
            "19": {
                "invocation": {
                    "address": "0xc02aaa39b223fe8d0a0e5c4f27ead9083c756cc2",
                    "callData": "0x0000000000000000000000000b316150f91dbd9a234b870cc75aaf57def1be43",
                    "decodedMethod": {
                        "callParams": [
                            {
                                "name": "",
                                "type": "address",
                                "value": "0x0b316150f91dbd9a234b870cc75aaf57def1be43"
                            }
                        ],
                        "constructorArguments": "",
                        "name": "balanceOf",
                        "returnParams": [
                            {
                                "decimalAvailable": true,
                                "name": "",
                                "type": "uint256",
                                "value": "793,135,509,161,544,138,256"
                            }
                        ],
                        "signature": "balanceOf(address)"
                    },
                    "errorInfo": "",
                    "fromAddress": "0x0b316150f91dbd9a234b870cc75aaf57def1be43",
                    "gasUsed": 1234,
                    "id": 19,
                    "methodDecoded": true,
                    "operation": "STATICCALL",
                    "output": "0x00000000000000000000000000000000000000000000002afef75f5ed26a3e10",
                    "revert": false,
                    "revertMessage": "",
                    "selector": "0x70a08231",
                    "status": true,
                    "value": "0"
                },
                "nodeType": 0
            },
            "2": {
                "event": {
                    "contract": "0xe0c6a2cd058ef091c7a5ef5e29a74ffdd9bd566c",
                    "decodedLog": {
                        "name": "Transfer",
                        "params": [
                            {
                                "name": "from",
                                "type": "address",
                                "value": "0xf3983d358613f071ab2c899cf38b66bda5c06168"
                            },
                            {
                                "name": "to",
                                "type": "address",
                                "value": "0x29f61938a2502cf7ecb7cdf161bb7c1cf24b4756"
                            },
                            {
                                "decimalAvailable": true,
                                "name": "value",
                                "type": "uint256",
                                "value": "32,878,344,032,828,876,288"
                            }
                        ],
                        "signature": "Transfer(address,address,uint256)"
                    },
                    "id": 2,
                    "logData": "0x000000000000000000000000000000000000000000000001c84757b36fd96600",
                    "logDecoded": true,
                    "operation": "EVENT",
                    "revert": false,
                    "status": true,
                    "topics": [
                        "0xddf252ad1be2c89b69c2b068fc378daa952ba7f163c4a11628f55a4df523b3ef",
                        "0x000000000000000000000000f3983d358613f071ab2c899cf38b66bda5c06168",
                        "0x00000000000000000000000029f61938a2502cf7ecb7cdf161bb7c1cf24b4756"
                    ]
                },
                "nodeType": 1
            },
            "20": {
                "invocation": {
                    "address": "0xe481f2311c774564d517d015e678c2736a25ddd3",
                    "callData": "0x0000000000000000000000000b316150f91dbd9a234b870cc75aaf57def1be43",
                    "decodedMethod": {
                        "callParams": [
                            {
                                "name": "account",
                                "type": "address",
                                "value": "0x0b316150f91dbd9a234b870cc75aaf57def1be43"
                            }
                        ],
                        "constructorArguments": "",
                        "name": "balanceOf",
                        "returnParams": [
                            {
                                "decimalAvailable": true,
                                "name": "",
                                "type": "uint256",
                                "value": "2,479,634,958,301,014,546,296"
                            }
                        ],
                        "signature": "balanceOf(address)"
                    },
                    "errorInfo": "",
                    "fromAddress": "0x0b316150f91dbd9a234b870cc75aaf57def1be43",
                    "gasUsed": 1263,
                    "id": 20,
                    "methodDecoded": true,
                    "operation": "STATICCALL",
                    "output": "0x0000000000000000000000000000000000000000000000866bd908e7dc845778",
                    "revert": false,
                    "revertMessage": "",
                    "selector": "0x70a08231",
                    "status": true,
                    "value": "0"
                },
                "nodeType": 0
            },
            "21": {
                "event": {
                    "contract": "0x0b316150f91dbd9a234b870cc75aaf57def1be43",
                    "decodedLog": {
                        "name": "Sync",
                        "params": [
                            {
                                "name": "reserve0",
                                "type": "uint112",
                                "value": "793,135,509,161,544,138,256"
                            },
                            {
                                "name": "reserve1",
                                "type": "uint112",
                                "value": "2,479,634,958,301,014,546,296"
                            }
                        ],
                        "signature": "Sync(uint112,uint112)"
                    },
                    "id": 21,
                    "logData": "0x00000000000000000000000000000000000000000000002afef75f5ed26a3e100000000000000000000000000000000000000000000000866bd908e7dc845778",
                    "logDecoded": true,
                    "operation": "EVENT",
                    "revert": false,
                    "status": true,
                    "topics": [
                        "0x1c411e9a96e071241c2f21f7726b17ae89e3cab4c78be50e062b03a9fffbbad1"
                    ]
                },
                "nodeType": 1
            },
            "22": {
                "event": {
                    "contract": "0x0b316150f91dbd9a234b870cc75aaf57def1be43",
                    "decodedLog": {
                        "name": "Swap",
                        "params": [
                            {
                                "name": "sender",
                                "type": "address",
                                "value": "0x7a250d5630b4cf539739df2c5dacb4c659f2488d"
                            },
                            {
                                "name": "to",
                                "type": "address",
                                "value": "0xf3983d358613f071ab2c899cf38b66bda5c06168"
                            },
                            {
                                "name": "amount0In",
                                "type": "uint256",
                                "value": "163,628,066,962,754,861"
                            },
                            {
                                "name": "amount1In",
                                "type": "uint256",
                                "value": "0"
                            },
                            {
                                "name": "amount0Out",
                                "type": "uint256",
                                "value": "0"
                            },
                            {
                                "name": "amount1Out",
                                "type": "uint256",
                                "value": "510,132,415,813,640,984"
                            }
                        ],
                        "signature": "Swap(address,uint256,uint256,uint256,uint256,address)"
                    },
                    "id": 22,
                    "logData": "0x000000000000000000000000000000000000000000000000024552dc26994d2d0000000000000000000000000000000000000000000000000000000000000000000000000000000000000000000000000000000000000000000000000000000000000000000000000000000000000000000000000000000007145abab8fbe318",
                    "logDecoded": true,
                    "operation": "EVENT",
                    "revert": false,
                    "status": true,
                    "topics": [
                        "0xd78ad95fa46c994b6551d0da85fc275fe613ce37657fb8d5e3d130840159d822",
                        "0x0000000000000000000000007a250d5630b4cf539739df2c5dacb4c659f2488d",
                        "0x000000000000000000000000f3983d358613f071ab2c899cf38b66bda5c06168"
                    ]
                },
                "nodeType": 1
            },
            "23": {
                "invocation": {
                    "address": "0xe481f2311c774564d517d015e678c2736a25ddd3",
                    "callData": "0x000000000000000000000000f3983d358613f071ab2c899cf38b66bda5c06168",
                    "decodedMethod": {
                        "callParams": [
                            {
                                "name": "account",
                                "type": "address",
                                "value": "0xf3983d358613f071ab2c899cf38b66bda5c06168"
                            }
                        ],
                        "constructorArguments": "",
                        "name": "balanceOf",
                        "returnParams": [
                            {
                                "decimalAvailable": true,
                                "name": "",
                                "type": "uint256",
                                "value": "510,132,415,813,640,984"
                            }
                        ],
                        "signature": "balanceOf(address)"
                    },
                    "errorInfo": "",
                    "fromAddress": "0x7a250d5630b4cf539739df2c5dacb4c659f2488d",
                    "gasUsed": 1263,
                    "id": 23,
                    "methodDecoded": true,
                    "operation": "STATICCALL",
                    "output": "0x00000000000000000000000000000000000000000000000007145abab8fbe318",
                    "revert": false,
                    "revertMessage": "",
                    "selector": "0x70a08231",
                    "status": true,
                    "value": "0"
                },
                "nodeType": 0
            },
            "3": {
                "event": {
                    "contract": "0xe0c6a2cd058ef091c7a5ef5e29a74ffdd9bd566c",
                    "decodedLog": {
                        "name": "Approval",
                        "params": [
                            {
                                "name": "owner",
                                "type": "address",
                                "value": "0xf3983d358613f071ab2c899cf38b66bda5c06168"
                            },
                            {
                                "name": "spender",
                                "type": "address",
                                "value": "0x7a250d5630b4cf539739df2c5dacb4c659f2488d"
                            },
                            {
                                "decimalAvailable": true,
                                "name": "value",
                                "type": "uint256",
                                "value": "115,792,089,237,316,195,423,570,985,008,687,907,853,269,984,665,640,564,039,419,222,253,330,369,553,245"
                            }
                        ],
                        "signature": "Approval(address,address,uint256)"
                    },
                    "id": 3,
                    "logData": "0xfffffffffffffffffffffffffffffffffffffffffffffffdeb9fab74cddf235d",
                    "logDecoded": true,
                    "operation": "EVENT",
                    "revert": false,
                    "status": true,
                    "topics": [
                        "0x8c5be1e5ebec7d5bd14f71427d1e84f3dd0314c0f7b2291e5b200ac8c7c3b925",
                        "0x000000000000000000000000f3983d358613f071ab2c899cf38b66bda5c06168",
                        "0x0000000000000000000000007a250d5630b4cf539739df2c5dacb4c659f2488d"
                    ]
                },
                "nodeType": 1
            },
            "4": {
                "invocation": {
                    "address": "0xe481f2311c774564d517d015e678c2736a25ddd3",
                    "callData": "0x000000000000000000000000f3983d358613f071ab2c899cf38b66bda5c06168",
                    "decodedMethod": {
                        "callParams": [
                            {
                                "name": "account",
                                "type": "address",
                                "value": "0xf3983d358613f071ab2c899cf38b66bda5c06168"
                            }
                        ],
                        "constructorArguments": "",
                        "name": "balanceOf",
                        "returnParams": [
                            {
                                "decimalAvailable": true,
                                "name": "",
                                "type": "uint256",
                                "value": "0"
                            }
                        ],
                        "signature": "balanceOf(address)"
                    },
                    "errorInfo": "",
                    "fromAddress": "0x7a250d5630b4cf539739df2c5dacb4c659f2488d",
                    "gasUsed": 1263,
                    "id": 4,
                    "methodDecoded": true,
                    "operation": "STATICCALL",
                    "output": "0x0000000000000000000000000000000000000000000000000000000000000000",
                    "revert": false,
                    "revertMessage": "",
                    "selector": "0x70a08231",
                    "status": true,
                    "value": "0"
                },
                "nodeType": 0
            },
            "5": {
                "invocation": {
                    "address": "0x29f61938a2502cf7ecb7cdf161bb7c1cf24b4756",
                    "callData": "0x",
                    "decodedMethod": {
                        "callParams": [],
                        "constructorArguments": "",
                        "name": "getReserves",
                        "returnParams": [
                            {
                                "name": "_reserve0",
                                "type": "uint112",
                                "value": "38,822,815,193,263,558,031"
                            },
                            {
                                "name": "_reserve1",
                                "type": "uint112",
                                "value": "7,744,618,192,509,554,134,395"
                            },
                            {
                                "name": "_blockTimestampLast",
                                "type": "uint32",
                                "value": "1,607,980,991"
                            }
                        ],
                        "signature": "getReserves()"
                    },
                    "errorInfo": "",
                    "fromAddress": "0x7a250d5630b4cf539739df2c5dacb4c659f2488d",
                    "gasUsed": 1204,
                    "id": 5,
                    "methodDecoded": true,
                    "operation": "STATICCALL",
                    "output": "0x0000000000000000000000000000000000000000000000021ac658b9e71ccd8f0000000000000000000000000000000000000000000001a3d62afd5777c80d7b000000000000000000000000000000000000000000000000000000005fd7d7bf",
                    "revert": false,
                    "revertMessage": "",
                    "selector": "0x0902f1ac",
                    "status": true,
                    "value": "0"
                },
                "nodeType": 0
            },
            "6": {
                "invocation": {
                    "address": "0xe0c6a2cd058ef091c7a5ef5e29a74ffdd9bd566c",
                    "callData": "0x00000000000000000000000029f61938a2502cf7ecb7cdf161bb7c1cf24b4756",
                    "decodedMethod": {
                        "callParams": [
                            {
                                "name": "account",
                                "type": "address",
                                "value": "0x29f61938a2502cf7ecb7cdf161bb7c1cf24b4756"
                            }
                        ],
                        "constructorArguments": "",
                        "name": "balanceOf",
                        "returnParams": [
                            {
                                "decimalAvailable": true,
                                "name": "",
                                "type": "uint256",
                                "value": "7,777,496,536,542,383,010,683"
                            }
                        ],
                        "signature": "balanceOf(address)"
                    },
                    "errorInfo": "",
                    "fromAddress": "0x7a250d5630b4cf539739df2c5dacb4c659f2488d",
                    "gasUsed": 2243,
                    "id": 6,
                    "methodDecoded": true,
                    "operation": "STATICCALL",
                    "output": "0x0000000000000000000000000000000000000000000001a59e72550ae7a1737b",
                    "revert": false,
                    "revertMessage": "",
                    "selector": "0x70a08231",
                    "status": true,
                    "value": "0"
                },
                "nodeType": 0
            },
            "7": {
                "invocation": {
                    "address": "0x29f61938a2502cf7ecb7cdf161bb7c1cf24b4756",
                    "callData": "0x000000000000000000000000000000000000000000000000024552dc26994d2d00000000000000000000000000000000000000000000000000000000000000000000000000000000000000000b316150f91dbd9a234b870cc75aaf57def1be4300000000000000000000000000000000000000000000000000000000000000800000000000000000000000000000000000000000000000000000000000000000",
                    "decodedMethod": {
                        "callParams": [
                            {
                                "name": "amount0Out",
                                "type": "uint256",
                                "value": "163,628,066,962,754,861"
                            },
                            {
                                "name": "amount1Out",
                                "type": "uint256",
                                "value": "0"
                            },
                            {
                                "name": "to",
                                "type": "address",
                                "value": "0x0b316150f91dbd9a234b870cc75aaf57def1be43"
                            },
                            {
                                "name": "data",
                                "type": "bytes",
                                "value": "0x"
                            }
                        ],
                        "constructorArguments": "",
                        "name": "swap",
                        "returnParams": [],
                        "signature": "swap(uint256,uint256,address,bytes)"
                    },
                    "errorInfo": "",
                    "fromAddress": "0x7a250d5630b4cf539739df2c5dacb4c659f2488d",
                    "gasUsed": 57662,
                    "id": 7,
                    "methodDecoded": true,
                    "operation": "CALL",
                    "output": "",
                    "revert": false,
                    "revertMessage": "",
                    "selector": "0x022c0d9f",
                    "status": true,
                    "value": "0"
                },
                "nodeType": 0
            },
            "8": {
                "invocation": {
                    "address": "0xc02aaa39b223fe8d0a0e5c4f27ead9083c756cc2",
                    "callData": "0x0000000000000000000000000b316150f91dbd9a234b870cc75aaf57def1be43000000000000000000000000000000000000000000000000024552dc26994d2d",
                    "decodedMethod": {
                        "callParams": [
                            {
                                "name": "dst",
                                "type": "address",
                                "value": "0x0b316150f91dbd9a234b870cc75aaf57def1be43"
                            },
                            {
                                "decimalAvailable": true,
                                "name": "wad",
                                "type": "uint256",
                                "value": "163,628,066,962,754,861"
                            }
                        ],
                        "constructorArguments": "",
                        "name": "transfer",
                        "returnParams": [
                            {
                                "name": "",
                                "type": "bool",
                                "value": true
                            }
                        ],
                        "signature": "transfer(address,uint256)"
                    },
                    "errorInfo": "",
                    "fromAddress": "0x29f61938a2502cf7ecb7cdf161bb7c1cf24b4756",
                    "gasUsed": 15162,
                    "id": 8,
                    "methodDecoded": true,
                    "operation": "CALL",
                    "output": "0x0000000000000000000000000000000000000000000000000000000000000001",
                    "revert": false,
                    "revertMessage": "",
                    "selector": "0xa9059cbb",
                    "status": true,
                    "value": "0"
                },
                "nodeType": 0
            },
            "9": {
                "event": {
                    "contract": "0xc02aaa39b223fe8d0a0e5c4f27ead9083c756cc2",
                    "decodedLog": {
                        "name": "Transfer",
                        "params": [
                            {
                                "name": "src",
                                "type": "address",
                                "value": "0x29f61938a2502cf7ecb7cdf161bb7c1cf24b4756"
                            },
                            {
                                "name": "dst",
                                "type": "address",
                                "value": "0x0b316150f91dbd9a234b870cc75aaf57def1be43"
                            },
                            {
                                "decimalAvailable": true,
                                "name": "wad",
                                "type": "uint256",
                                "value": "163,628,066,962,754,861"
                            }
                        ],
                        "signature": "Transfer(address,address,uint256)"
                    },
                    "id": 9,
                    "logData": "0x000000000000000000000000000000000000000000000000024552dc26994d2d",
                    "logDecoded": true,
                    "operation": "EVENT",
                    "revert": false,
                    "status": true,
                    "topics": [
                        "0xddf252ad1be2c89b69c2b068fc378daa952ba7f163c4a11628f55a4df523b3ef",
                        "0x00000000000000000000000029f61938a2502cf7ecb7cdf161bb7c1cf24b4756",
                        "0x0000000000000000000000000b316150f91dbd9a234b870cc75aaf57def1be43"
                    ]
                },
                "nodeType": 1
            }
        },
        "gasFlame": [
            {
                "children": [
                    {
                        "children": [
                            {
                                "children": [],
                                "depth": 0,
                                "name": "Initial Gas",
                                "value": 23452
                            },
                            {
                                "children": [
                                    {
                                        "children": [],
                                        "depth": 1,
                                        "name": "transferFrom",
                                        "value": 95312
                                    },
                                    {
                                        "children": [],
                                        "depth": 1,
                                        "name": "balanceOf",
                                        "value": 1263
                                    },
                                    {
                                        "children": [],
                                        "depth": 1,
                                        "name": "getReserves",
                                        "value": 1204
                                    },
                                    {
                                        "children": [],
                                        "depth": 1,
                                        "name": "balanceOf",
                                        "value": 2243
                                    },
                                    {
                                        "children": [
                                            {
                                                "children": [],
                                                "depth": 2,
                                                "name": "transfer",
                                                "value": 15162
                                            },
                                            {
                                                "children": [],
                                                "depth": 2,
                                                "name": "balanceOf",
                                                "value": 1234
                                            },
                                            {
                                                "children": [],
                                                "depth": 2,
                                                "name": "balanceOf",
                                                "value": 2243
                                            }
                                        ],
                                        "depth": 1,
                                        "name": "swap",
                                        "value": 57662
                                    },
                                    {
                                        "children": [],
                                        "depth": 1,
                                        "name": "getReserves",
                                        "value": 1204
                                    },
                                    {
                                        "children": [],
                                        "depth": 1,
                                        "name": "balanceOf",
                                        "value": 1234
                                    },
                                    {
                                        "children": [
                                            {
                                                "children": [],
                                                "depth": 2,
                                                "name": "transfer",
                                                "value": 29730
                                            },
                                            {
                                                "children": [],
                                                "depth": 2,
                                                "name": "balanceOf",
                                                "value": 1234
                                            },
                                            {
                                                "children": [],
                                                "depth": 2,
                                                "name": "balanceOf",
                                                "value": 1263
                                            }
                                        ],
                                        "depth": 1,
                                        "name": "swap",
                                        "value": 71250
                                    },
                                    {
                                        "children": [],
                                        "depth": 1,
                                        "name": "balanceOf",
                                        "value": 1263
                                    }
                                ],
                                "depth": 0,
                                "name": "Executed Gas",
                                "value": 254148
                            }
                        ],
                        "depth": -1,
                        "name": "Actual Gas Used",
                        "value": 269200
                    },
                    {
                        "children": [],
                        "depth": -1,
                        "name": "Refunded Gas",
                        "value": 8400
                    }
                ],
                "depth": -2,
                "name": "Total Gas",
                "value": 277600
            }
        ],
        "isConfirmed": true,
        "mainTrace": [
            {
                "children": [
                    {
                        "children": [
                            {
                                "children": [
                                    {
                                        "children": [],
                                        "depth": 2,
                                        "id": 2,
                                        "order": 2
                                    },
                                    {
                                        "children": [],
                                        "depth": 2,
                                        "id": 3,
                                        "order": 3
                                    }
                                ],
                                "depth": 1,
                                "id": 1,
                                "order": 1
                            },
                            {
                                "children": [],
                                "depth": 1,
                                "id": 4,
                                "order": 4
                            },
                            {
                                "children": [],
                                "depth": 1,
                                "id": 5,
                                "order": 5
                            },
                            {
                                "children": [],
                                "depth": 1,
                                "id": 6,
                                "order": 6
                            },
                            {
                                "children": [
                                    {
                                        "children": [
                                            {
                                                "children": [],
                                                "depth": 3,
                                                "id": 9,
                                                "order": 9
                                            }
                                        ],
                                        "depth": 2,
                                        "id": 8,
                                        "order": 8
                                    },
                                    {
                                        "children": [],
                                        "depth": 2,
                                        "id": 10,
                                        "order": 10
                                    },
                                    {
                                        "children": [],
                                        "depth": 2,
                                        "id": 11,
                                        "order": 11
                                    },
                                    {
                                        "children": [],
                                        "depth": 2,
                                        "id": 12,
                                        "order": 12
                                    },
                                    {
                                        "children": [],
                                        "depth": 2,
                                        "id": 13,
                                        "order": 13
                                    }
                                ],
                                "depth": 1,
                                "id": 7,
                                "order": 7
                            },
                            {
                                "children": [],
                                "depth": 1,
                                "id": 14,
                                "order": 14
                            },
                            {
                                "children": [],
                                "depth": 1,
                                "id": 15,
                                "order": 15
                            },
                            {
                                "children": [
                                    {
                                        "children": [
                                            {
                                                "children": [],
                                                "depth": 3,
                                                "id": 18,
                                                "order": 18
                                            }
                                        ],
                                        "depth": 2,
                                        "id": 17,
                                        "order": 17
                                    },
                                    {
                                        "children": [],
                                        "depth": 2,
                                        "id": 19,
                                        "order": 19
                                    },
                                    {
                                        "children": [],
                                        "depth": 2,
                                        "id": 20,
                                        "order": 20
                                    },
                                    {
                                        "children": [],
                                        "depth": 2,
                                        "id": 21,
                                        "order": 21
                                    },
                                    {
                                        "children": [],
                                        "depth": 2,
                                        "id": 22,
                                        "order": 22
                                    }
                                ],
                                "depth": 1,
                                "id": 16,
                                "order": 16
                            },
                            {
                                "children": [],
                                "depth": 1,
                                "id": 23,
                                "order": 23
                            }
                        ],
                        "depth": 0,
                        "id": 0,
                        "order": 0
                    }
                ],
                "depth": -1,
                "id": -1,
                "order": -1
            }
        ],
        "mainTraceNodeCount": 24,
        "parentIdMap": {
            "0": -1,
            "1": 0,
            "10": 7,
            "11": 7,
            "12": 7,
            "13": 7,
            "14": 0,
            "15": 0,
            "16": 0,
            "17": 16,
            "18": 17,
            "19": 16,
            "2": 1,
            "20": 16,
            "21": 16,
            "22": 16,
            "23": 0,
            "3": 1,
            "4": 0,
            "5": 0,
            "6": 0,
            "7": 0,
            "8": 7,
            "9": 8
        },
        "tidyTrace": [
            {
                "children": [
                    {
                        "children": [
                            {
                                "children": [
                                    {
                                        "children": [],
                                        "depth": 2,
                                        "id": 2,
                                        "order": 2
                                    },
                                    {
                                        "children": [],
                                        "depth": 2,
                                        "id": 3,
                                        "order": 3
                                    }
                                ],
                                "depth": 1,
                                "id": 1,
                                "order": 1
                            },
                            {
                                "children": [
                                    {
                                        "children": [
                                            {
                                                "children": [],
                                                "depth": 3,
                                                "id": 9,
                                                "order": 9
                                            }
                                        ],
                                        "depth": 2,
                                        "id": 8,
                                        "order": 8
                                    },
                                    {
                                        "children": [],
                                        "depth": 2,
                                        "id": 12,
                                        "order": 12
                                    },
                                    {
                                        "children": [],
                                        "depth": 2,
                                        "id": 13,
                                        "order": 13
                                    }
                                ],
                                "depth": 1,
                                "id": 7,
                                "order": 7
                            },
                            {
                                "children": [
                                    {
                                        "children": [
                                            {
                                                "children": [],
                                                "depth": 3,
                                                "id": 18,
                                                "order": 18
                                            }
                                        ],
                                        "depth": 2,
                                        "id": 17,
                                        "order": 17
                                    },
                                    {
                                        "children": [],
                                        "depth": 2,
                                        "id": 21,
                                        "order": 21
                                    },
                                    {
                                        "children": [],
                                        "depth": 2,
                                        "id": 22,
                                        "order": 22
                                    }
                                ],
                                "depth": 1,
                                "id": 16,
                                "order": 16
                            }
                        ],
                        "depth": 0,
                        "id": 0,
                        "order": 0
                    }
                ],
                "depth": -1,
                "id": -1,
                "order": -1
            }
        ],
        "tidyTraceNodeCount": 14
    },
    "state_change": {
        "stateChanges": [
            {
                "address": "0x0b316150f91dbd9a234b870cc75aaf57def1be43",
                "erc": "ERC-20",
                "slots": [
                    {
                        "current": "0x000000000000000000000000000000aad9fa4112ec189216c0ceb841b1dec9b4",
                        "key": "0x0000000000000000000000000000000000000000000000000000000000000009",
                        "prev": "0x000000000000000000000000000000aad970a32178e1b8733734894dbb5a3f0c"
                    },
                    {
                        "current": "0x000000000000000000000000000000071cf20aa35f764fc4a3e67901e222564f",
                        "key": "0x000000000000000000000000000000000000000000000000000000000000000a",
                        "prev": "0x000000000000000000000000000000071ce3f938c490d496ab3f330af97f8bdf"
                    },
                    {
                        "current": "0x5fd7eee60000000000866bd908e7dc84577800000000002afef75f5ed26a3e10",
                        "key": "0x0000000000000000000000000000000000000000000000000000000000000008",
                        "prev": "0x5fd7eeba00000000008672ed63a295803a9000000000002afcb20c82abd0f0e3"
                    }
                ],
                "storageVariables": [
                    {
                        "name": "price0CumulativeLast",
                        "type": "uint256",
                        "value": {
                            "current": "58137744245715298569139013953220694165940",
                            "prev": "58137029697577727272609968126699637456652",
                            "typeTag": 1
                        }
                    },
                    {
                        "name": "price1CumulativeLast",
                        "type": "uint256",
                        "value": {
                            "current": "2420451703936142949186891050084410218063",
                            "prev": "2420378658533036855785397497599671372767",
                            "typeTag": 1
                        }
                    },
                    {
                        "name": "reserve0",
                        "type": "uint112",
                        "value": {
                            "current": "793135509161544138256",
                            "prev": "792971881094581383395",
                            "typeTag": 1
                        }
                    },
                    {
                        "name": "reserve1",
                        "type": "uint112",
                        "value": {
                            "current": "2479634958301014546296",
                            "prev": "2480145090716828187280",
                            "typeTag": 1
                        }
                    },
                    {
                        "name": "blockTimestampLast",
                        "type": "uint32",
                        "value": {
                            "current": "1607986918",
                            "prev": "1607986874",
                            "typeTag": 1
                        }
                    }
                ]
            },
            {
                "address": "0x29f61938a2502cf7ecb7cdf161bb7c1cf24b4756",
                "erc": "ERC-20",
                "slots": [
                    {
                        "current": "0x000000000000000000000000000000000548b53b18bdc2256b0a227aada8dcd3",
                        "key": "0x000000000000000000000000000000000000000000000000000000000000000a",
                        "prev": "0x00000000000000000000000000000000052aff220f91a61bcc959e6cd894e705"
                    },
                    {
                        "current": "0x5fd7eee60000000001a59e72550ae7a1737b000000000002188105ddc0838062",
                        "key": "0x0000000000000000000000000000000000000000000000000000000000000008",
                        "prev": "0x5fd7d7bf0000000001a3d62afd5777c80d7b0000000000021ac658b9e71ccd8f"
                    },
                    {
                        "current": "0x0000000000000000000000000000016ad19497df418a0b89c644d7c0e32c193c",
                        "key": "0x0000000000000000000000000000000000000000000000000000000000000009",
                        "prev": "0x00000000000000000000000000000158c701883fe74f814d7d91647bf92789f9"
                    }
                ],
                "storageVariables": [
                    {
                        "name": "price1CumulativeLast",
                        "type": "uint256",
                        "value": {
                            "current": "7023661150995980292675552732640763091",
                            "prev": "6869391160007852602667307634863171333",
                            "typeTag": 1
                        }
                    },
                    {
                        "name": "reserve0",
                        "type": "uint112",
                        "value": {
                            "current": "38659187126300803170",
                            "prev": "38822815193263558031",
                            "typeTag": 1
                        }
                    },
                    {
                        "name": "reserve1",
                        "type": "uint112",
                        "value": {
                            "current": "7777496536542383010683",
                            "prev": "7744618192509554134395",
                            "typeTag": 1
                        }
                    },
                    {
                        "name": "blockTimestampLast",
                        "type": "uint32",
                        "value": {
                            "current": "1607986918",
                            "prev": "1607980991",
                            "typeTag": 1
                        }
                    },
                    {
                        "name": "price0CumulativeLast",
                        "type": "uint256",
                        "value": {
                            "current": "123460797016765848149639723657849551460668",
                            "prev": "117321658547731555712985385991289908464121",
                            "typeTag": 1
                        }
                    }
                ]
            },
            {
                "address": "0xc02aaa39b223fe8d0a0e5c4f27ead9083c756cc2",
                "erc": "ERC-20",
                "slots": [
                    {
                        "current": "0x000000000000000000000000000000000000000000000002188105ddc0838062",
                        "key": "0x5868d586945675eabae31588b0cfa2591e526e0676966f7df9865cca929202cb",
                        "prev": "0x0000000000000000000000000000000000000000000000021ac658b9e71ccd8f"
                    },
                    {
                        "current": "0x00000000000000000000000000000000000000000000002afef75f5ed26a3e10",
                        "key": "0x67488e9fc05f08712d9fbccddb0bfd7a4f7edbafa471c6497a30b4eb1332f4b6",
                        "prev": "0x00000000000000000000000000000000000000000000002afcb20c82abd0f0e3"
                    }
                ],
                "storageVariables": [
                    {
                        "name": "balanceOf",
                        "type": "mapping(address => uint256)",
                        "value": {
                            "pairs": [
                                {
                                    "key": "0x0b316150f91dbd9a234b870cc75aaf57def1be43",
                                    "value": {
                                        "current": "793135509161544138256",
                                        "prev": "792971881094581383395",
                                        "typeTag": 1
                                    }
                                },
                                {
                                    "key": "0x29f61938a2502cf7ecb7cdf161bb7c1cf24b4756",
                                    "value": {
                                        "current": "38659187126300803170",
                                        "prev": "38822815193263558031",
                                        "typeTag": 1
                                    }
                                }
                            ],
                            "typeTag": 4
                        }
                    }
                ]
            },
            {
                "address": "0xe0c6a2cd058ef091c7a5ef5e29a74ffdd9bd566c",
                "erc": "ERC-20",
                "slots": [
                    {
                        "current": "0x0000000000000000000000000000000000000000000001a59e72550ae7a1737b",
                        "key": "0xaae7d63d12cdd9836735716d3bebf5701e3fdc495d018e8793b9ba141d685042",
                        "prev": "0x0000000000000000000000000000000000000000000001a3d62afd5777c80d7b"
                    },
                    {
                        "current": "0xa13577e1c10116c3d41e74b74ac757808efcb9fe50067a2f111a8e2a99ba345b",
                        "key": "0x5868d586945675eabae31588b0cfa2591e526e0676966f7df9865cca929202cb",
                        "prev": "0xa0c2e5407179c204e6cfc2276b1d595767a67097b73d904469275a4c57a8665b"
                    },
                    {
                        "current": "0xb7714188f54a35ec77ef2880e9fe2ecf4ba651c615079d09022c1f1eaba1104e",
                        "key": "0x000000000000000000000000000000000000000000000000000000000000000a",
                        "prev": "0xb780e12a97684d1dc69c8acc097034b149a802cef1ab72542ed3c97855c0b668"
                    },
                    {
                        "current": "0x0000000000000000000000000000000000000000000000a310df17a2a54113c5",
                        "key": "0x000000000000000000000000000000000000000000000000000000000000000b",
                        "prev": "0x0000000000000000000000000000000000000000000000a2dd0587d9e42e30e8"
                    },
                    {
                        "current": "0x0000000000000000000000000000000000000000000000209cf96b2087736978",
                        "key": "0x000000000000000000000000000000000000000000000000000000000000000c",
                        "prev": "0x000000000000000000000000000000000000000000000020929ab4c52da2d5b3"
                    },
                    {
                        "current": "0x0000000000000000000000000000000000000000000001fd7ce75e9a2acc9688",
                        "key": "0x0000000000000000000000000000000000000000000000000000000000000009",
                        "prev": "0x0000000000000000000000000000000000000000000001fd874614f5849d2a4d"
                    },
                    {
                        "current": "0xfffffffffffffffffffffffffffffffffffffffffffffffdeb9fab74cddf235d",
                        "key": "0x3cc56cbb7b3bd9ec2b9b33ac8eda36ad8b8aa44ba26626aa8e47059be5e658fb",
                        "prev": "0xfffffffffffffffffffffffffffffffffffffffffffffffff21f494c589bffff"
                    },
                    {
                        "current": "0x00000000000000000007f8db094c36e227a1c71e7d521fc5470c3f57e5e658b8",
                        "key": "0x149c85dc0c014cbf400ae8c07db5a76cd05ad6aa2511432be3b93bcced4a00cd",
                        "prev": "0x00823242f1a56bf03c040db608683aed4cf9c18df2bedefb1ba71d8fd217ccd2"
                    }
                ],
                "storageVariables": [
                    {
                        "name": "_rTotal",
                        "type": "uint256",
                        "value": {
                            "current": "82973357314955034565854515912879519729236433443787181540333301047681831997518",
                            "prev": "83000961756220233245261812043046235598220033535163712659597390980706881025640",
                            "typeTag": 1
                        }
                    },
                    {
                        "name": "_tFeeTotal",
                        "type": "uint256",
                        "value": {
                            "current": "3008035000426394883013",
                            "prev": "3004298824968118874344",
                            "typeTag": 1
                        }
                    },
                    {
                        "name": "_tBurnTotal",
                        "type": "uint256",
                        "value": {
                            "current": "601607000085278976376",
                            "prev": "600859764993623774643",
                            "typeTag": 1
                        }
                    },
                    {
                        "name": "_tTotal",
                        "type": "uint256",
                        "value": {
                            "current": "9398392999914721023624",
                            "prev": "9399140235006376225357",
                            "typeTag": 1
                        }
                    },
                    {
                        "name": "_allowances",
                        "type": "mapping(address => mapping(address => uint256))",
                        "value": {
                            "pairs": [
                                {
                                    "key": "0xf3983d358613f071ab2c899cf38b66bda5c06168",
                                    "value": {
                                        "pairs": [
                                            {
                                                "key": "0x7a250d5630b4cf539739df2c5dacb4c659f2488d",
                                                "value": {
                                                    "current": "115792089237316195423570985008687907853269984665640564039419222253330369553245",
                                                    "prev": "115792089237316195423570985008687907853269984665640564039456584007913129639935",
                                                    "typeTag": 1
                                                }
                                            }
                                        ],
                                        "typeTag": 4
                                    }
                                }
                            ],
                            "typeTag": 4
                        }
                    },
                    {
                        "name": "_tOwned",
                        "type": "mapping(address => uint256)",
                        "value": {
                            "pairs": [
                                {
                                    "key": "0x29f61938a2502cf7ecb7cdf161bb7c1cf24b4756",
                                    "value": {
                                        "current": "7777496536542383010683",
                                        "prev": "7744618192509554134395",
                                        "typeTag": 1
                                    }
                                }
                            ],
                            "typeTag": 4
                        }
                    },
                    {
                        "name": "_rOwned",
                        "type": "mapping(address => uint256)",
                        "value": {
                            "pairs": [
                                {
                                    "key": "0x29f61938a2502cf7ecb7cdf161bb7c1cf24b4756",
                                    "value": {
                                        "current": "72916838910468131333601584498973589878578959375823485415940373357875447870555",
                                        "prev": "72714406341190007684573699421729418961021605698703706842923386820311013418587",
                                        "typeTag": 1
                                    }
                                },
                                {
                                    "key": "0xf3983d358613f071ab2c899cf38b66bda5c06168",
                                    "value": {
                                        "current": "763574737018820800179791481259522991455935343209371832",
                                        "prev": "230037010543322328435944782147905607341133559977569215272532405932692851922",
                                        "typeTag": 1
                                    }
                                }
                            ],
                            "typeTag": 4
                        }
                    }
                ]
            },
            {
                "address": "0xe481f2311c774564d517d015e678c2736a25ddd3",
                "erc": "ERC-20",
                "slots": [
                    {
                        "current": "0x0000000000000000000000000000000000000000000000866bd908e7dc845778",
                        "key": "0x73c1a6fc91b14f922365eabc568c1769bad80c78b439dd5d933502fc4a566f7e",
                        "prev": "0x00000000000000000000000000000000000000000000008672ed63a295803a90"
                    },
                    {
                        "current": "0x00000000000000000000000000000000000000000000000007145abab8fbe318",
                        "key": "0xc688b16318281cb418f10be56420b72a30a32e712d60b84f90bdf275c6894dd5",
                        "prev": "0x0000000000000000000000000000000000000000000000000000000000000000"
                    }
                ],
                "storageVariables": [
                    {
                        "name": "_balances",
                        "type": "mapping(address => uint256)",
                        "value": {
                            "pairs": [
                                {
                                    "key": "0x0b316150f91dbd9a234b870cc75aaf57def1be43",
                                    "value": {
                                        "current": "2479634958301014546296",
                                        "prev": "2480145090716828187280",
                                        "typeTag": 1
                                    }
                                },
                                {
                                    "key": "0xf3983d358613f071ab2c899cf38b66bda5c06168",
                                    "value": {
                                        "current": "510132415813640984",
                                        "prev": "0",
                                        "typeTag": 1
                                    }
                                }
                            ],
                            "typeTag": 4
                        }
                    }
                ]
            }
        ]
    }
}