{
    "balance_change": {
        "balanceChanges": []
    },
    "profile": {
        "basic_info": {
            "baseFee": "",
            "blockNumber": 6624605,
            "callData": "0x610b1abd000000000000000000000000000000000000000000000000000000000000e68c0000000000000000000000000000000000000000000000000000000000000006",
            "debugEnable": true,
            "errorInfo": "",
            "eventCount": 0,
            "feeRecipient": "0x52bc44d5378309ee2abf1539bf71de1b7d7be3b5",
            "formatValue": "0",
            "gasLimit": 200000,
            "gasPrice": "13",
            "gasUsed": 86868,
            "intTxnCount": 1,
            "internalRevert": false,
            "internalRevertMessage": "",
            "isContractCreation": false,
            "isFlashloan": false,
            "maxFee": "",
            "nonce": 7921,
            "overwritedBlockNumber": -1,
            "priorityFee": "",
            "receiver": "0x2402b6fa4785866e8009f90da83d3bef27bb2ed3",
            "revertMessage": "",
            "sender": "0x33338ac7d7f92e4f2f3e1ae0f430e882ba4a2df8",
            "simulationEnable": true,
            "sourceTxnHash": "0xfa5f29b2ff4b60dca19d7cd80c6141604427017cb4df4ca18dfba8ddd8eace6c",
            "status": true,
            "timestamp": "2018-11-01T16:20:07Z",
            "transactionFee": "0.001129284",
            "txnHash": "0xfa5f29b2ff4b60dca19d7cd80c6141604427017cb4df4ca18dfba8ddd8eace6c",
            "txnIndex": 93,
            "type": 0,
            "value": "0"
        },
        "fund_flow": [],
        "token_infos": [
            {
                "address": "0xc02aaa39b223fe8d0a0e5c4f27ead9083c756cc2",
                "decimals": 18
            },
            {
                "address": "0xeeeeeeeeeeeeeeeeeeeeeeeeeeeeeeeeeeeeeeee",
                "decimals": 18
            }
        ]
    },
    "address_label": {
        "labels": [
            {
                "address": "0xeeeeeeeeeeeeeeeeeeeeeeeeeeeeeeeeeeeeeeee",
                "label": "Ether"
            },
            {
                "address": "0x0000000000000000000000000000000000000001",
                "label": "Precompiled"
            },
            {
                "address": "0x0000000000000000000000000000000000000002",
                "label": "Precompiled"
            },
            {
                "address": "0x0000000000000000000000000000000000000003",
                "label": "Precompiled"
            },
            {
                "address": "0x0000000000000000000000000000000000000004",
                "label": "Precompiled"
            }
        ]
    },
    "trace": {
        "accountLabels": null,
        "dataMap": {
            "-1": {
                "invocation": {
                    "address": "0x33338ac7d7f92e4f2f3e1ae0f430e882ba4a2df8",
                    "callData": "",
                    "decodedMethod": null,
                    "errorInfo": "",
                    "fromAddress": "",
                    "gasUsed": 0,
                    "id": -1,
                    "methodDecoded": false,
                    "operation": "",
                    "output": "",
                    "revert": false,
                    "revertMessage": "",
                    "selector": "",
                    "status": false,
                    "value": ""
                },
                "nodeType": 0
            },
            "0": {
                "invocation": {
                    "address": "0x2402b6fa4785866e8009f90da83d3bef27bb2ed3",
                    "callData": "0x000000000000000000000000000000000000000000000000000000000000e68c0000000000000000000000000000000000000000000000000000000000000006",
                    "decodedMethod": {
                        "callParams": [
                            {
                                "name": "startTokenId",
                                "type": "uint256",
                                "value": "59,020"
                            },
                            {
                                "name": "tokenIdsLength",
                                "type": "uint256",
                                "value": "6"
                            }
                        ],
                        "constructorArguments": "",
                        "name": "lottery",
                        "returnParams": [],
                        "signature": "lottery(uint256,uint256)"
                    },
                    "errorInfo": "",
                    "fromAddress": "0x33338ac7d7f92e4f2f3e1ae0f430e882ba4a2df8",
                    "gasUsed": 86868,
                    "id": 0,
                    "methodDecoded": true,
                    "operation": "CALL",
                    "output": "0x0000000000000000000000000000000000000000000000000000000000000001",
                    "revert": false,
                    "revertMessage": "",
                    "selector": "0x610b1abd",
                    "status": true,
                    "value": "0"
                },
                "nodeType": 0
            },
            "1": {
                "invocation": {
                    "address": "0x5fef77211502196be0d4d950a12367e1b74c91c0",
                    "callData": "0x0000000000000000000000000000000000000000000000000000000000000006",
                    "decodedMethod": {
                        "callParams": [
                            {
                                "name": "number",
                                "type": "uint256",
                                "value": "6"
                            }
                        ],
                        "constructorArguments": "",
                        "name": "random",
                        "returnParams": [
                            {
                                "name": "",
                                "type": "uint256",
                                "value": "1"
                            }
                        ],
                        "signature": "random(uint256)"
                    },
                    "errorInfo": "",
                    "fromAddress": "0x2402b6fa4785866e8009f90da83d3bef27bb2ed3",
                    "gasUsed": 6277,
                    "id": 1,
                    "methodDecoded": true,
                    "operation": "CALL",
                    "output": "0x0000000000000000000000000000000000000000000000000000000000000001",
                    "revert": false,
                    "revertMessage": "",
                    "selector": "0xb863bd37",
                    "status": true,
                    "value": "0"
                },
                "nodeType": 0
            }
        },
        "gasFlame": [
            {
                "children": [
                    {
                        "children": [
                            {
                                "children": [],
                                "depth": 0,
                                "name": "Initial Gas",
                                "value": 21720
                            },
                            {
                                "children": [
                                    {
                                        "children": [],
                                        "depth": 1,
                                        "name": "random",
                                        "value": 6277
                                    }
                                ],
                                "depth": 0,
                                "name": "Executed Gas",
                                "value": 65148
                            }
                        ],
                        "depth": -1,
                        "name": "Actual Gas Used",
                        "value": 86868
                    },
                    {
                        "children": [],
                        "depth": -1,
                        "name": "Refunded Gas",
                        "value": 0
                    }
                ],
                "depth": -2,
                "name": "Total Gas",
                "value": 86868
            }
        ],
        "isConfirmed": true,
        "mainTrace": [
            {
                "children": [
                    {
                        "children": [
                            {
                                "children": [],
                                "depth": 1,
                                "id": 1,
                                "order": 1
                            }
                        ],
                        "depth": 0,
                        "id": 0,
                        "order": 0
                    }
                ],
                "depth": -1,
                "id": -1,
                "order": -1
            }
        ],
        "mainTraceNodeCount": 2,
        "parentIdMap": {
            "0": -1,
            "1": 0
        },
        "tidyTrace": [
            {
                "children": [
                    {
                        "children": [
                            {
                                "children": [],
                                "depth": 1,
                                "id": 1,
                                "order": 1
                            }
                        ],
                        "depth": 0,
                        "id": 0,
                        "order": 0
                    }
                ],
                "depth": -1,
                "id": -1,
                "order": -1
            }
        ],
        "tidyTraceNodeCount": 2
    },
    "state_change": {
        "stateChanges": [
            {
                "address": "0x2402b6fa4785866e8009f90da83d3bef27bb2ed3",
                "erc": "",
                "slots": [
                    {
                        "current": "0x000000000000000000000000000000000000000000000000000000000000e68c",
                        "key": "0x0000000000000000000000000000000000000000000000000000000000000003",
                        "prev": "0x000000000000000000000000000000000000000000000000000000000000e68b"
                    },
                    {
                        "current": "0x000000000000000000000000000000000000000000000000000000000065155d",
                        "key": "0x0000000000000000000000000000000000000000000000000000000000000002",
                        "prev": "0x0000000000000000000000000000000000000000000000000000000000651555"
                    },
                    {
                        "current": "0x0000000000000000000000000000000000000000000000000000000000000006",
                        "key": "0x0b527eb9b456a8a11411edf6a94a8c0de06243b39cabb92e1b00ec312826cb21",
                        "prev": "0x0000000000000000000000000000000000000000000000000000000000000000"
                    },
                    {
                        "current": "0x0000000000000000000000000000000000000000000000000000000000000001",
                        "key": "0x0b527eb9b456a8a11411edf6a94a8c0de06243b39cabb92e1b00ec312826cb22",
                        "prev": "0x0000000000000000000000000000000000000000000000000000000000000000"
                    }
                ],
                "storageVariables": []
            },
            {
                "address": "0x5fef77211502196be0d4d950a12367e1b74c91c0",
                "erc": "",
                "slots": [
                    {
                        "current": "0x732cc606c25de82d2976e9c8f3429fa1563a646e1f80fa8aaa9574a32a1b7c84",
                        "key": "0x0000000000000000000000000000000000000000000000000000000000000000",
                        "prev": "0xa4b4e1376cf984dab97f45361dd29d252092a621fee58799a94c0bbb39d41403"
                    }
                ],
                "storageVariables": []
            }
        ]
    }
}