{
    "balance_change": {
        "balanceChanges": [
            {
                "account": "0x564286362092d8e7936f0549571a803b203aaced",
                "assets": [
                    {
                        "address": "0x0000000000085d4780b73119b644ae5ecd22b376",
                        "amount": "119.66912343",
                        "iconUrl": "https://assets.blocksec.com/icon/67253da83e8ec0bc4adc998fae95ccd612ecf76a66cb8dd38ca9b97c929a1250.png",
                        "isERC1155": false,
                        "isERC721": false,
                        "sign": false,
                        "value": ""
                    }
                ]
            },
            {
                "account": "0x647bf926732797f66417693c08c87e967a9b1477",
                "assets": [
                    {
                        "address": "0x0000000000085d4780b73119b644ae5ecd22b376",
                        "amount": "119.66912343",
                        "iconUrl": "https://assets.blocksec.com/icon/67253da83e8ec0bc4adc998fae95ccd612ecf76a66cb8dd38ca9b97c929a1250.png",
                        "isERC1155": false,
                        "isERC721": false,
                        "sign": true,
                        "value": ""
                    }
                ]
            }
        ]
    },
    "profile": {
        "basic_info": {
            "baseFee": "",
            "blockNumber": 8241663,
            "callData": "0xa9059cbb000000000000000000000000647bf926732797f66417693c08c87e967a9b14770000000000000000000000000000000000000000000000067cbe21b9b3867c00",
            "debugEnable": true,
            "errorInfo": "",
            "eventCount": 1,
            "feeRecipient": "0x5a0b54d5dc17e0aadc383d2db43b0a0d3e029c4c",
            "formatValue": "0",
            "gasLimit": 207128,
            "gasPrice": "40",
            "gasUsed": 27722,
            "intTxnCount": 1,
            "internalRevert": false,
            "internalRevertMessage": "",
            "isContractCreation": false,
            "isFlashloan": false,
            "maxFee": "",
            "nonce": 1522873,
            "overwritedBlockNumber": -1,
            "priorityFee": "",
            "receiver": "0x0000000000085d4780b73119b644ae5ecd22b376",
            "revertMessage": "",
            "sender": "0x564286362092d8e7936f0549571a803b203aaced",
            "simulationEnable": true,
            "sourceTxnHash": "0xfaa531404d88c74449350bb4ff05b1653824acff39f818fc64e73bcfe1b981e0",
            "status": true,
            "timestamp": "2019-07-28T21:56:58Z",
            "transactionFee": "0.00110888",
            "txnHash": "0xfaa531404d88c74449350bb4ff05b1653824acff39f818fc64e73bcfe1b981e0",
            "txnIndex": 1,
            "type": 0,
            "value": "0"
        },
        "fund_flow": [
            {
                "amount": "119.66912343",
                "from": "0x564286362092d8e7936f0549571a803b203aaced",
                "id": 1,
                "isERC1155": false,
                "isERC721": false,
                "isReverted": false,
                "order": 1,
                "to": "0x647bf926732797f66417693c08c87e967a9b1477",
                "token": "0x0000000000085d4780b73119b644ae5ecd22b376"
            }
        ],
        "token_infos": [
            {
                "address": "0x0000000000085d4780b73119b644ae5ecd22b376",
                "decimals": 18
            },
            {
                "address": "0xc02aaa39b223fe8d0a0e5c4f27ead9083c756cc2",
                "decimals": 18
            },
            {
                "address": "0xeeeeeeeeeeeeeeeeeeeeeeeeeeeeeeeeeeeeeeee",
                "decimals": 18
            }
        ]
    },
    "address_label": {
        "labels": [
            {
                "address": "0x0000000000000000000000000000000000000002",
                "label": "Precompiled"
            },
            {
                "address": "0x0000000000000000000000000000000000000003",
                "label": "Precompiled"
            },
            {
                "address": "0x0000000000000000000000000000000000000004",
                "label": "Precompiled"
            },
            {
                "address": "0xeeeeeeeeeeeeeeeeeeeeeeeeeeeeeeeeeeeeeeee",
                "label": "Ether"
            },
            {
                "address": "0x0000000000085d4780b73119b644ae5ecd22b376",
                "label": "TrueUSD: TUSD Token"
            },
            {
                "address": "0x564286362092d8e7936f0549571a803b203aaced",
                "label": "Binance 3"
            },
            {
                "address": "0xcb9a11afdc6bdb92e4a6235959455f28758b34ba",
                "label": "TrueUSD (TUSD)"
            },
            {
                "address": "0x0000000000000000000000000000000000000001",
                "label": "Precompiled"
            }
        ]
    },
    "trace": {
        "accountLabels": null,
        "dataMap": {
            "-1": {
                "invocation": {
                    "address": "0x564286362092d8e7936f0549571a803b203aaced",
                    "callData": "",
                    "decodedMethod": null,
                    "errorInfo": "",
                    "fromAddress": "",
                    "gasUsed": 0,
                    "id": -1,
                    "methodDecoded": false,
                    "operation": "",
                    "output": "",
                    "revert": false,
                    "revertMessage": "",
                    "selector": "",
                    "status": false,
                    "value": ""
                },
                "nodeType": 0
            },
            "0": {
                "invocation": {
                    "address": "0x0000000000085d4780b73119b644ae5ecd22b376",
                    "callData": "0x000000000000000000000000647bf926732797f66417693c08c87e967a9b14770000000000000000000000000000000000000000000000067cbe21b9b3867c00",
                    "decodedMethod": {
                        "callParams": [
                            {
                                "name": "_to",
                                "type": "address",
                                "value": "0x647bf926732797f66417693c08c87e967a9b1477"
                            },
                            {
                                "decimalAvailable": true,
                                "name": "_value",
                                "type": "uint256",
                                "value": "119,669,123,430,000,000,000"
                            }
                        ],
                        "constructorArguments": "",
                        "name": "transfer",
                        "returnParams": [
                            {
                                "name": "",
                                "type": "bool",
                                "value": true
                            }
                        ],
                        "signature": "transfer(address,uint256)"
                    },
                    "errorInfo": "",
                    "fromAddress": "0x564286362092d8e7936f0549571a803b203aaced",
                    "gasUsed": 27722,
                    "id": 0,
                    "methodDecoded": true,
                    "operation": "CALL",
                    "output": "0x0000000000000000000000000000000000000000000000000000000000000001",
                    "revert": false,
                    "revertMessage": "",
                    "selector": "0xa9059cbb",
                    "status": true,
                    "value": "0"
                },
                "nodeType": 0
            },
            "1": {
                "invocation": {
                    "address": "0xcb9a11afdc6bdb92e4a6235959455f28758b34ba",
                    "callData": "0x000000000000000000000000647bf926732797f66417693c08c87e967a9b14770000000000000000000000000000000000000000000000067cbe21b9b3867c00",
                    "decodedMethod": {
                        "callParams": [
                            {
                                "name": "_to",
                                "type": "address",
                                "value": "0x647bf926732797f66417693c08c87e967a9b1477"
                            },
                            {
                                "decimalAvailable": true,
                                "name": "_value",
                                "type": "uint256",
                                "value": "119,669,123,430,000,000,000"
                            }
                        ],
                        "constructorArguments": "",
                        "name": "transfer",
                        "returnParams": [
                            {
                                "name": "",
                                "type": "bool",
                                "value": true
                            }
                        ],
                        "signature": "transfer(address,uint256)"
                    },
                    "errorInfo": "",
                    "fromAddress": "0x0000000000085d4780b73119b644ae5ecd22b376",
                    "gasUsed": 30719,
                    "id": 1,
                    "methodDecoded": true,
                    "operation": "DELEGATECALL",
                    "output": "0x0000000000000000000000000000000000000000000000000000000000000001",
                    "revert": false,
                    "revertMessage": "",
                    "selector": "0xa9059cbb",
                    "status": true,
                    "value": "0"
                },
                "nodeType": 0
            },
            "2": {
                "event": {
                    "contract": "0x0000000000085d4780b73119b644ae5ecd22b376",
                    "decodedLog": {
                        "name": "Transfer",
                        "params": [
                            {
                                "name": "from",
                                "type": "address",
                                "value": "0x564286362092d8e7936f0549571a803b203aaced"
                            },
                            {
                                "name": "to",
                                "type": "address",
                                "value": "0x647bf926732797f66417693c08c87e967a9b1477"
                            },
                            {
                                "decimalAvailable": true,
                                "name": "value",
                                "type": "uint256",
                                "value": "119,669,123,430,000,000,000"
                            }
                        ],
                        "signature": "Transfer(address,address,uint256)"
                    },
                    "id": 2,
                    "logData": "0x0000000000000000000000000000000000000000000000067cbe21b9b3867c00",
                    "logDecoded": true,
                    "operation": "EVENT",
                    "revert": false,
                    "status": true,
                    "topics": [
                        "0xddf252ad1be2c89b69c2b068fc378daa952ba7f163c4a11628f55a4df523b3ef",
                        "0x000000000000000000000000564286362092d8e7936f0549571a803b203aaced",
                        "0x000000000000000000000000647bf926732797f66417693c08c87e967a9b1477"
                    ]
                },
                "nodeType": 1
            }
        },
        "gasFlame": [
            {
                "children": [
                    {
                        "children": [
                            {
                                "children": [],
                                "depth": 0,
                                "name": "Initial Gas",
                                "value": 23320
                            },
                            {
                                "children": [
                                    {
                                        "children": [],
                                        "depth": 1,
                                        "name": "transfer",
                                        "value": 30719
                                    }
                                ],
                                "depth": 0,
                                "name": "Executed Gas",
                                "value": 32124
                            }
                        ],
                        "depth": -1,
                        "name": "Actual Gas Used",
                        "value": 27722
                    },
                    {
                        "children": [],
                        "depth": -1,
                        "name": "Refunded Gas",
                        "value": 27722
                    }
                ],
                "depth": -2,
                "name": "Total Gas",
                "value": 55444
            }
        ],
        "isConfirmed": true,
        "mainTrace": [
            {
                "children": [
                    {
                        "children": [
                            {
                                "children": [
                                    {
                                        "children": [],
                                        "depth": 2,
                                        "id": 2,
                                        "order": 2
                                    }
                                ],
                                "depth": 1,
                                "id": 1,
                                "order": 1
                            }
                        ],
                        "depth": 0,
                        "id": 0,
                        "order": 0
                    }
                ],
                "depth": -1,
                "id": -1,
                "order": -1
            }
        ],
        "mainTraceNodeCount": 3,
        "parentIdMap": {
            "0": -1,
            "1": 0,
            "2": 1
        },
        "tidyTrace": [
            {
                "children": [
                    {
                        "children": [
                            {
                                "children": [
                                    {
                                        "children": [],
                                        "depth": 2,
                                        "id": 2,
                                        "order": 2
                                    }
                                ],
                                "depth": 1,
                                "id": 1,
                                "order": 1
                            }
                        ],
                        "depth": 0,
                        "id": 0,
                        "order": 0
                    }
                ],
                "depth": -1,
                "id": -1,
                "order": -1
            }
        ],
        "tidyTraceNodeCount": 3
    },
    "state_change": {
        "stateChanges": [
            {
                "address": "0x0000000000085d4780b73119b644ae5ecd22b376",
                "erc": "ERC-20",
                "slots": [
                    {
                        "current": "0x000000000000000000000000000000000000000000007e508f55c2237227a400",
                        "key": "0x10f330baf6484110e35a2687ba4d677136bee3cf6e99dc8cbe551881f5e672c8",
                        "prev": "0x000000000000000000000000000000000000000000007e570c13e3dd25ae2000"
                    },
                    {
                        "current": "0x00000000000000000000000000000000000000000000000687dbd66f1d63ac00",
                        "key": "0xe6ad5569168f1d76ab2911816d2dc981953a15b2296ad7e82f360d0934a074ab",
                        "prev": "0x0000000000000000000000000000000000000000000000000b1db4b569dd3000"
                    },
                    {
                        "current": "0x0000000000000000000000000000000000000000000000000000000000000000",
                        "key": "0x000000000000000000000000000000000000000000000000000000000012948a",
                        "prev": "0x0000000000000000000000000000000000000000000000000000000000000001"
                    },
                    {
                        "current": "0x0000000000000000000000000000000000000000000000000000000000000000",
                        "key": "0x0000000000000000000000000000000000000000000000000000000000129489",
                        "prev": "0x0000000000000000000000000000000000000000000000000000000000000001"
                    },
                    {
                        "current": "0x0000000000000000000000000000000000000000000000000000000000029489",
                        "key": "0x00000000000000000000000000000000000000000000000000000000000fffff",
                        "prev": "0x000000000000000000000000000000000000000000000000000000000002948b"
                    }
                ],
                "storageVariables": [
                    {
                        "name": "_balanceOf",
                        "type": "mapping(address => uint256)",
                        "value": {
                            "pairs": [
                                {
                                    "key": "0x564286362092d8e7936f0549571a803b203aaced",
                                    "value": {
                                        "current": "596504244742250000000000",
                                        "prev": "596623913865680000000000",
                                        "typeTag": 1
                                    }
                                },
                                {
                                    "key": "0x647bf926732797f66417693c08c87e967a9b1477",
                                    "value": {
                                        "current": "120470118430000000000",
                                        "prev": "800995000000000000",
                                        "typeTag": 1
                                    }
                                }
                            ],
                            "typeTag": 4
                        }
                    }
                ]
            }
        ]
    }
}