{
    "balance_change": {
        "balanceChanges": [
            {
                "account": "0xed7646046603f5f661d789964ea86233dce0e297",
                "assets": [
                    {
                        "address": "0xeeeeeeeeeeeeeeeeeeeeeeeeeeeeeeeeeeeeeeee",
                        "amount": "0.01",
                        "iconUrl": "https://assets.blocksec.com/image/1663669189317-3.png",
                        "isERC1155": false,
                        "isERC721": false,
                        "sign": false,
                        "value": "22.205300000000002"
                    }
                ]
            },
            {
                "account": "0x2a3dd3eb832af982ec71669e178424b10dca2ede",
                "assets": [
                    {
                        "address": "0xeeeeeeeeeeeeeeeeeeeeeeeeeeeeeeeeeeeeeeee",
                        "amount": "0.01",
                        "iconUrl": "https://assets.blocksec.com/image/1663669189317-3.png",
                        "isERC1155": false,
                        "isERC721": false,
                        "sign": true,
                        "value": "22.205300000000002"
                    }
                ]
            }
        ]
    },
    "profile": {
        "basic_info": {
            "baseFee": "28.145347787",
            "blockNumber": 18957801,
            "callData": "0xcd5865790000000000000000000000000000000000000000000000000000000000000001000000000000000000000000ed7646046603f5f661d789964ea86233dce0e297000000000000000000000000000000000000000000000000002386f26fc100000000000000000000000000000000000000000000000000000000000000000000000000000000000000000000000000000000000000000000000000000000000100000000000000000000000000000000000000000000000000000000000000c00000000000000000000000000000000000000000000000000000000000000000",
            "debugEnable": true,
            "errorInfo": "",
            "eventCount": 2,
            "feeRecipient": "0x1f9090aae28b8a3dceadf281b0f12828e676c326",
            "formatValue": "0.01",
            "gasLimit": 156692,
            "gasPrice": "29.818812106",
            "gasUsed": 129656,
            "intTxnCount": 3,
            "internalRevert": false,
            "internalRevertMessage": "",
            "isContractCreation": false,
            "isFlashloan": false,
            "maxFee": "58.465826671",
            "nonce": 111,
            "overwritedBlockNumber": -1,
            "priorityFee": "1.673464319",
            "receiver": "0x2a3dd3eb832af982ec71669e178424b10dca2ede",
            "revertMessage": "",
            "sender": "0xed7646046603f5f661d789964ea86233dce0e297",
            "simulationEnable": true,
            "sourceTxnHash": "0xfac154264240bcd83737cdaecc48c713a2d1d3c6fb016952838a5fcfe72f9486",
            "status": true,
            "timestamp": "2024-01-07T21:14:23Z",
            "transactionFee": "0.003866187902415536",
            "txnHash": "0xfac154264240bcd83737cdaecc48c713a2d1d3c6fb016952838a5fcfe72f9486",
            "txnIndex": 29,
            "type": 2,
            "value": "10000000000000000"
        },
        "fund_flow": [
            {
                "amount": "0.01",
                "from": "0xed7646046603f5f661d789964ea86233dce0e297",
                "id": 1,
                "isERC1155": false,
                "isERC721": false,
                "isReverted": false,
                "order": 1,
                "to": "0x2a3dd3eb832af982ec71669e178424b10dca2ede",
                "token": "0xeeeeeeeeeeeeeeeeeeeeeeeeeeeeeeeeeeeeeeee"
            }
        ],
        "token_infos": [
            {
                "address": "0xc02aaa39b223fe8d0a0e5c4f27ead9083c756cc2",
                "decimals": 18
            },
            {
                "address": "0xeeeeeeeeeeeeeeeeeeeeeeeeeeeeeeeeeeeeeeee",
                "decimals": 18
            }
        ]
    },
    "address_label": {
        "labels": [
            {
                "address": "0x2a3dd3eb832af982ec71669e178424b10dca2ede",
                "label": "Polygon (Matic): zkEVM Bridge"
            },
            {
                "address": "0x0000000000000000000000000000000000000000",
                "label": "Null Address"
            },
            {
                "address": "0x0000000000000000000000000000000000000002",
                "label": "Precompiled"
            },
            {
                "address": "0x0000000000000000000000000000000000000003",
                "label": "Precompiled"
            },
            {
                "address": "0x0000000000000000000000000000000000000004",
                "label": "Precompiled"
            },
            {
                "address": "0xeeeeeeeeeeeeeeeeeeeeeeeeeeeeeeeeeeeeeeee",
                "label": "Ether"
            },
            {
                "address": "0xbc1ea504fc54d078514efcca1f6860b5219b6bc3",
                "label": "PolygonZkEVMGlobalExitRoot"
            },
            {
                "address": "0x580bda1e7a0cfae92fa7f6c20a3794f169ce3cfb",
                "label": "TransparentUpgradeableProxy_580b_3cfb"
            },
            {
                "address": "0x5ac4182a1dd41aeef465e40b82fd326bf66ab82c",
                "label": "PolygonZkEVMBridge"
            },
            {
                "address": "0x0000000000000000000000000000000000000001",
                "label": "Precompiled"
            }
        ]
    },
    "trace": {
        "accountLabels": null,
        "dataMap": {
            "-1": {
                "invocation": {
                    "address": "0xed7646046603f5f661d789964ea86233dce0e297",
                    "callData": "",
                    "decodedMethod": null,
                    "errorInfo": "",
                    "fromAddress": "",
                    "gasUsed": 0,
                    "id": -1,
                    "methodDecoded": false,
                    "operation": "",
                    "output": "",
                    "revert": false,
                    "revertMessage": "",
                    "selector": "",
                    "status": false,
                    "value": ""
                },
                "nodeType": 0
            },
            "0": {
                "invocation": {
                    "address": "0x2a3dd3eb832af982ec71669e178424b10dca2ede",
                    "callData": "0x0000000000000000000000000000000000000000000000000000000000000001000000000000000000000000ed7646046603f5f661d789964ea86233dce0e297000000000000000000000000000000000000000000000000002386f26fc100000000000000000000000000000000000000000000000000000000000000000000000000000000000000000000000000000000000000000000000000000000000100000000000000000000000000000000000000000000000000000000000000c00000000000000000000000000000000000000000000000000000000000000000",
                    "decodedMethod": {
                        "callParams": [
                            {
                                "name": "destinationNetwork",
                                "type": "uint32",
                                "value": "1"
                            },
                            {
                                "name": "destinationAddress",
                                "type": "address",
                                "value": "0xed7646046603f5f661d789964ea86233dce0e297"
                            },
                            {
                                "name": "amount",
                                "type": "uint256",
                                "value": "10,000,000,000,000,000"
                            },
                            {
                                "name": "token",
                                "type": "address",
                                "value": "0x0000000000000000000000000000000000000000"
                            },
                            {
                                "name": "forceUpdateGlobalExitRoot",
                                "type": "bool",
                                "value": true
                            },
                            {
                                "name": "permitData",
                                "type": "bytes",
                                "value": "0x"
                            }
                        ],
                        "constructorArguments": "",
                        "name": "bridgeAsset",
                        "returnParams": [],
                        "signature": "bridgeAsset(uint32,address,uint256,address,bool,bytes)"
                    },
                    "errorInfo": "",
                    "fromAddress": "0xed7646046603f5f661d789964ea86233dce0e297",
                    "gasUsed": 129656,
                    "id": 0,
                    "methodDecoded": true,
                    "operation": "CALL",
                    "output": "",
                    "revert": false,
                    "revertMessage": "",
                    "selector": "0xcd586579",
                    "status": true,
                    "value": "0.01"
                },
                "nodeType": 0
            },
            "1": {
                "invocation": {
                    "address": "0x5ac4182a1dd41aeef465e40b82fd326bf66ab82c",
                    "callData": "0x0000000000000000000000000000000000000000000000000000000000000001000000000000000000000000ed7646046603f5f661d789964ea86233dce0e297000000000000000000000000000000000000000000000000002386f26fc100000000000000000000000000000000000000000000000000000000000000000000000000000000000000000000000000000000000000000000000000000000000100000000000000000000000000000000000000000000000000000000000000c00000000000000000000000000000000000000000000000000000000000000000",
                    "decodedMethod": {
                        "callParams": [
                            {
                                "name": "destinationNetwork",
                                "type": "uint32",
                                "value": "1"
                            },
                            {
                                "name": "destinationAddress",
                                "type": "address",
                                "value": "0xed7646046603f5f661d789964ea86233dce0e297"
                            },
                            {
                                "name": "amount",
                                "type": "uint256",
                                "value": "10,000,000,000,000,000"
                            },
                            {
                                "name": "token",
                                "type": "address",
                                "value": "0x0000000000000000000000000000000000000000"
                            },
                            {
                                "name": "forceUpdateGlobalExitRoot",
                                "type": "bool",
                                "value": true
                            },
                            {
                                "name": "permitData",
                                "type": "bytes",
                                "value": "0x"
                            }
                        ],
                        "constructorArguments": "",
                        "name": "bridgeAsset",
                        "returnParams": [],
                        "signature": "bridgeAsset(uint32,address,uint256,address,bool,bytes)"
                    },
                    "errorInfo": "",
                    "fromAddress": "0x2a3dd3eb832af982ec71669e178424b10dca2ede",
                    "gasUsed": 102890,
                    "id": 1,
                    "methodDecoded": true,
                    "operation": "DELEGATECALL",
                    "output": "",
                    "revert": false,
                    "revertMessage": "",
                    "selector": "0xcd586579",
                    "status": true,
                    "value": "0.01"
                },
                "nodeType": 0
            },
            "2": {
                "event": {
                    "contract": "0x2a3dd3eb832af982ec71669e178424b10dca2ede",
                    "decodedLog": {
                        "name": "BridgeEvent",
                        "params": [
                            {
                                "name": "leafType",
                                "type": "uint8",
                                "value": "0"
                            },
                            {
                                "name": "originNetwork",
                                "type": "uint32",
                                "value": "0"
                            },
                            {
                                "name": "originAddress",
                                "type": "address",
                                "value": "0x0000000000000000000000000000000000000000"
                            },
                            {
                                "name": "destinationNetwork",
                                "type": "uint32",
                                "value": "1"
                            },
                            {
                                "name": "destinationAddress",
                                "type": "address",
                                "value": "0xed7646046603f5f661d789964ea86233dce0e297"
                            },
                            {
                                "name": "amount",
                                "type": "uint256",
                                "value": "10,000,000,000,000,000"
                            },
                            {
                                "name": "metadata",
                                "type": "bytes",
                                "value": "0x"
                            },
                            {
                                "name": "depositCount",
                                "type": "uint32",
                                "value": "162,949"
                            }
                        ],
                        "signature": "BridgeEvent(uint8,uint32,address,uint32,address,uint256,bytes,uint32)"
                    },
                    "id": 2,
                    "logData": "0x0000000000000000000000000000000000000000000000000000000000000000000000000000000000000000000000000000000000000000000000000000000000000000000000000000000000000000000000000000000000000000000000000000000000000000000000000000000000000000000000000000000000000001000000000000000000000000ed7646046603f5f661d789964ea86233dce0e297000000000000000000000000000000000000000000000000002386f26fc1000000000000000000000000000000000000000000000000000000000000000001000000000000000000000000000000000000000000000000000000000000027c850000000000000000000000000000000000000000000000000000000000000000",
                    "logDecoded": true,
                    "operation": "EVENT",
                    "revert": false,
                    "status": true,
                    "topics": [
                        "0x501781209a1f8899323b96b4ef08b168df93e0a90c673d1e4cce39366cb62f9b"
                    ]
                },
                "nodeType": 1
            },
            "3": {
                "invocation": {
                    "address": "0x580bda1e7a0cfae92fa7f6c20a3794f169ce3cfb",
                    "callData": "0x0c0e75cfb73a8eee04808b5e3c5a9d38fe6e4ce72860bf8ef96021a53939976d",
                    "decodedMethod": {
                        "callParams": [
                            {
                                "name": "newRoot",
                                "type": "bytes32",
                                "value": "0x0c0e75cfb73a8eee04808b5e3c5a9d38fe6e4ce72860bf8ef96021a53939976d"
                            }
                        ],
                        "constructorArguments": "",
                        "name": "updateExitRoot",
                        "returnParams": [],
                        "signature": "updateExitRoot(bytes32)"
                    },
                    "errorInfo": "",
                    "fromAddress": "0x2a3dd3eb832af982ec71669e178424b10dca2ede",
                    "gasUsed": 38667,
                    "id": 3,
                    "methodDecoded": true,
                    "operation": "CALL",
                    "output": "",
                    "revert": false,
                    "revertMessage": "",
                    "selector": "0x33d6247d",
                    "status": true,
                    "value": "0"
                },
                "nodeType": 0
            },
            "4": {
                "invocation": {
                    "address": "0xbc1ea504fc54d078514efcca1f6860b5219b6bc3",
                    "callData": "0x0c0e75cfb73a8eee04808b5e3c5a9d38fe6e4ce72860bf8ef96021a53939976d",
                    "decodedMethod": {
                        "callParams": [
                            {
                                "name": "newRoot",
                                "type": "bytes32",
                                "value": "0x0c0e75cfb73a8eee04808b5e3c5a9d38fe6e4ce72860bf8ef96021a53939976d"
                            }
                        ],
                        "constructorArguments": "",
                        "name": "updateExitRoot",
                        "returnParams": [],
                        "signature": "updateExitRoot(bytes32)"
                    },
                    "errorInfo": "",
                    "fromAddress": "0x580bda1e7a0cfae92fa7f6c20a3794f169ce3cfb",
                    "gasUsed": 31351,
                    "id": 4,
                    "methodDecoded": true,
                    "operation": "DELEGATECALL",
                    "output": "",
                    "revert": false,
                    "revertMessage": "",
                    "selector": "0x33d6247d",
                    "status": true,
                    "value": "0"
                },
                "nodeType": 0
            },
            "5": {
                "event": {
                    "contract": "0x580bda1e7a0cfae92fa7f6c20a3794f169ce3cfb",
                    "decodedLog": {
                        "name": "UpdateGlobalExitRoot",
                        "params": [
                            {
                                "name": "mainnetExitRoot",
                                "type": "bytes32",
                                "value": "0x0c0e75cfb73a8eee04808b5e3c5a9d38fe6e4ce72860bf8ef96021a53939976d"
                            },
                            {
                                "name": "rollupExitRoot",
                                "type": "bytes32",
                                "value": "0x72d3ff81819ff19aae93da8dfd9e4b434ee754fd1f7bd7aee515d1cc3dd90c46"
                            }
                        ],
                        "signature": "UpdateGlobalExitRoot(bytes32,bytes32)"
                    },
                    "id": 5,
                    "logData": "0x",
                    "logDecoded": true,
                    "operation": "EVENT",
                    "revert": false,
                    "status": true,
                    "topics": [
                        "0x61014378f82a0d809aefaf87a8ac9505b89c321808287a6e7810f29304c1fce3",
                        "0x0c0e75cfb73a8eee04808b5e3c5a9d38fe6e4ce72860bf8ef96021a53939976d",
                        "0x72d3ff81819ff19aae93da8dfd9e4b434ee754fd1f7bd7aee515d1cc3dd90c46"
                    ]
                },
                "nodeType": 1
            }
        },
        "gasFlame": [
            {
                "children": [
                    {
                        "children": [
                            {
                                "children": [],
                                "depth": 0,
                                "name": "Initial Gas",
                                "value": 22296
                            },
                            {
                                "children": [
                                    {
                                        "children": [
                                            {
                                                "children": [
                                                    {
                                                        "children": [],
                                                        "depth": 3,
                                                        "name": "updateExitRoot",
                                                        "value": 31351
                                                    }
                                                ],
                                                "depth": 2,
                                                "name": "updateExitRoot",
                                                "value": 38667
                                            }
                                        ],
                                        "depth": 1,
                                        "name": "bridgeAsset",
                                        "value": 102890
                                    }
                                ],
                                "depth": 0,
                                "name": "Executed Gas",
                                "value": 110160
                            }
                        ],
                        "depth": -1,
                        "name": "Actual Gas Used",
                        "value": 129656
                    },
                    {
                        "children": [],
                        "depth": -1,
                        "name": "Refunded Gas",
                        "value": 2800
                    }
                ],
                "depth": -2,
                "name": "Total Gas",
                "value": 132456
            }
        ],
        "isConfirmed": true,
        "mainTrace": [
            {
                "children": [
                    {
                        "children": [
                            {
                                "children": [
                                    {
                                        "children": [],
                                        "depth": 2,
                                        "id": 2,
                                        "order": 2
                                    },
                                    {
                                        "children": [
                                            {
                                                "children": [
                                                    {
                                                        "children": [],
                                                        "depth": 4,
                                                        "id": 5,
                                                        "order": 5
                                                    }
                                                ],
                                                "depth": 3,
                                                "id": 4,
                                                "order": 4
                                            }
                                        ],
                                        "depth": 2,
                                        "id": 3,
                                        "order": 3
                                    }
                                ],
                                "depth": 1,
                                "id": 1,
                                "order": 1
                            }
                        ],
                        "depth": 0,
                        "id": 0,
                        "order": 0
                    }
                ],
                "depth": -1,
                "id": -1,
                "order": -1
            }
        ],
        "mainTraceNodeCount": 6,
        "parentIdMap": {
            "0": -1,
            "1": 0,
            "2": 1,
            "3": 1,
            "4": 3,
            "5": 4
        },
        "tidyTrace": [
            {
                "children": [
                    {
                        "children": [
                            {
                                "children": [
                                    {
                                        "children": [],
                                        "depth": 2,
                                        "id": 2,
                                        "order": 2
                                    },
                                    {
                                        "children": [
                                            {
                                                "children": [
                                                    {
                                                        "children": [],
                                                        "depth": 4,
                                                        "id": 5,
                                                        "order": 5
                                                    }
                                                ],
                                                "depth": 3,
                                                "id": 4,
                                                "order": 4
                                            }
                                        ],
                                        "depth": 2,
                                        "id": 3,
                                        "order": 3
                                    }
                                ],
                                "depth": 1,
                                "id": 1,
                                "order": 1
                            }
                        ],
                        "depth": 0,
                        "id": 0,
                        "order": 0
                    }
                ],
                "depth": -1,
                "id": -1,
                "order": -1
            }
        ],
        "tidyTraceNodeCount": 6
    },
    "state_change": {
        "stateChanges": [
            {
                "address": "0x2a3dd3eb832af982ec71669e178424b10dca2ede",
                "erc": "",
                "slots": [
                    {
                        "current": "0x0000000000000000000000000000000000000000000000000000000000027c86",
                        "key": "0x0000000000000000000000000000000000000000000000000000000000000053",
                        "prev": "0x0000000000000000000000000000000000000000000000000000000000027c85"
                    },
                    {
                        "current": "0xf675fd4ce42d01f95d38465fc8e90b038c3d75270c6d65722d977264f0166a1f",
                        "key": "0x0000000000000000000000000000000000000000000000000000000000000034",
                        "prev": "0x2854c32b182f77632ebc3659c507518f7d102c5d7a86e863112424c148594cd3"
                    },
                    {
                        "current": "0x00000000027c86580bda1e7a0cfae92fa7f6c20a3794f169ce3cfb0000000000",
                        "key": "0x0000000000000000000000000000000000000000000000000000000000000068",
                        "prev": "0x00000000027c85580bda1e7a0cfae92fa7f6c20a3794f169ce3cfb0000000000"
                    }
                ],
                "storageVariables": [
                    {
                        "name": "depositCount",
                        "type": "uint256",
                        "value": {
                            "current": "162950",
                            "prev": "162949",
                            "typeTag": 1
                        }
                    },
                    {
                        "name": "isEmergencyState",
                        "type": "bool",
                        "value": {
                            "current": "false",
                            "prev": "false",
                            "typeTag": 1
                        }
                    },
                    {
                        "name": "networkID",
                        "type": "uint32",
                        "value": {
                            "current": "0",
                            "prev": "0",
                            "typeTag": 1
                        }
                    },
                    {
                        "name": "globalExitRootManager",
                        "type": "contract IBasePolygonZkEVMGlobalExitRoot",
                        "value": {
                            "current": "0x580bda1e7a0cfae92fa7f6c20a3794f169ce3cfb",
                            "prev": "0x580bda1e7a0cfae92fa7f6c20a3794f169ce3cfb",
                            "typeTag": 1
                        }
                    },
                    {
                        "name": "lastUpdatedDepositCount",
                        "type": "uint32",
                        "value": {
                            "current": "162950",
                            "prev": "162949",
                            "typeTag": 1
                        }
                    }
                ]
            },
            {
                "address": "0x580bda1e7a0cfae92fa7f6c20a3794f169ce3cfb",
                "erc": "",
                "slots": [
                    {
                        "current": "0x0c0e75cfb73a8eee04808b5e3c5a9d38fe6e4ce72860bf8ef96021a53939976d",
                        "key": "0x0000000000000000000000000000000000000000000000000000000000000001",
                        "prev": "0xfd90f182f3c0a53dfeb259abe85cff5f69748ec2b45cec9bf21df4ed802ad49a"
                    },
                    {
                        "current": "0x00000000000000000000000000000000000000000000000000000000659b142f",
                        "key": "0x55c5cb2421ba57ad8c7f10f4040804b84425c9e402de583fc153ab53f33edf6d",
                        "prev": "0x0000000000000000000000000000000000000000000000000000000000000000"
                    }
                ],
                "storageVariables": [
                    {
                        "name": "lastMainnetExitRoot",
                        "type": "bytes32",
                        "value": {
                            "current": "0x0c0e75cfb73a8eee04808b5e3c5a9d38fe6e4ce72860bf8ef96021a53939976d",
                            "prev": "0xfd90f182f3c0a53dfeb259abe85cff5f69748ec2b45cec9bf21df4ed802ad49a",
                            "typeTag": 1
                        }
                    },
                    {
                        "name": "globalExitRootMap",
                        "type": "mapping(bytes32 => uint256)",
                        "value": {
                            "pairs": [
                                {
                                    "key": "0x55e6ddbc03ec835452b0ce7cd0bb56bbe42841f39d19d822336a5e834044373f",
                                    "value": {
                                        "current": "1704662063",
                                        "prev": "0",
                                        "typeTag": 1
                                    }
                                }
                            ],
                            "typeTag": 4
                        }
                    }
                ]
            }
        ]
    }
}