{
    "balance_change": {
        "balanceChanges": [
            {
                "account": "0x6be0ab801017ace6075dca5e52b05ccb3b1f93f4",
                "assets": [
                    {
                        "address": "0xf951e335afb289353dc249e82926178eac7ded78",
                        "amount": "0.057337604805313096",
                        "iconUrl": "",
                        "isERC1155": false,
                        "isERC721": false,
                        "sign": false,
                        "value": "136.2245085"
                    }
                ]
            },
            {
                "account": "0x0fe4f44bee93503346a3ac9ee5a26b130a5796d6",
                "assets": [
                    {
                        "address": "0xf951e335afb289353dc249e82926178eac7ded78",
                        "amount": "0.057337604805313096",
                        "iconUrl": "",
                        "isERC1155": false,
                        "isERC721": false,
                        "sign": true,
                        "value": "136.2245085"
                    }
                ]
            }
        ]
    },
    "profile": {
        "basic_info": {
            "baseFee": "12.869900609",
            "blockNumber": 18897649,
            "callData": "0xe7a050aa0000000000000000000000000fe4f44bee93503346a3ac9ee5a26b130a5796d6000000000000000000000000f951e335afb289353dc249e82926178eac7ded7800000000000000000000000000000000000000000000000000cbb43f6eb14248",
            "debugEnable": true,
            "errorInfo": "",
            "eventCount": 2,
            "feeRecipient": "0xe43cc5b6ff052f5aa931a4f9ef2bfa0c500014ca",
            "formatValue": "0",
            "gasLimit": 295287,
            "gasPrice": "14",
            "gasUsed": 184547,
            "intTxnCount": 15,
            "internalRevert": false,
            "internalRevertMessage": "",
            "isContractCreation": false,
            "isFlashloan": false,
            "maxFee": "",
            "nonce": 2,
            "overwritedBlockNumber": -1,
            "priorityFee": "",
            "receiver": "0x858646372cc42e1a627fce94aa7a7033e7cf075a",
            "revertMessage": "",
            "sender": "0x6be0ab801017ace6075dca5e52b05ccb3b1f93f4",
            "simulationEnable": true,
            "sourceTxnHash": "0xfac75e59619a34a8e33b1e6ca77a68373c22197cc2ed2fd423840820bc17ff92",
            "status": true,
            "timestamp": "2023-12-30T10:08:59Z",
            "transactionFee": "0.002583658",
            "txnHash": "0xfac75e59619a34a8e33b1e6ca77a68373c22197cc2ed2fd423840820bc17ff92",
            "txnIndex": 27,
            "type": 0,
            "value": "0"
        },
        "fund_flow": [
            {
                "amount": "0.057337604805313096",
                "from": "0x6be0ab801017ace6075dca5e52b05ccb3b1f93f4",
                "id": 1,
                "isERC1155": false,
                "isERC721": false,
                "isReverted": false,
                "order": 1,
                "to": "0x0fe4f44bee93503346a3ac9ee5a26b130a5796d6",
                "token": "0xf951e335afb289353dc249e82926178eac7ded78"
            }
        ],
        "token_infos": [
            {
                "address": "0xc02aaa39b223fe8d0a0e5c4f27ead9083c756cc2",
                "decimals": 18
            },
            {
                "address": "0xf951e335afb289353dc249e82926178eac7ded78",
                "decimals": 18
            },
            {
                "address": "0xeeeeeeeeeeeeeeeeeeeeeeeeeeeeeeeeeeeeeeee",
                "decimals": 18
            }
        ]
    },
    "address_label": {
        "labels": [
            {
                "address": "0x5d25eef8cfedaa47d31fe2346726de1c21e342fb",
                "label": "StrategyManager"
            },
            {
                "address": "0xdfda04f980be6a64e3607c95ca26012ab9aa46d3",
                "label": "EigenLayer: Base Strategy Implementation"
            },
            {
                "address": "0x0fe4f44bee93503346a3ac9ee5a26b130a5796d6",
                "label": "TransparentUpgradeableProxy_0fe4_96d6"
            },
            {
                "address": "0xd92145c07f8ed1d392c1b88017934e301cc1c3cd",
                "label": "EigenLayer: Slasher"
            },
            {
                "address": "0x0000000000000000000000000000000000000001",
                "label": "Precompiled"
            },
            {
                "address": "0x0000000000000000000000000000000000000002",
                "label": "Precompiled"
            },
            {
                "address": "0x0000000000000000000000000000000000000003",
                "label": "Precompiled"
            },
            {
                "address": "0xeeeeeeeeeeeeeeeeeeeeeeeeeeeeeeeeeeeeeeee",
                "label": "Ether"
            },
            {
                "address": "0xf951e335afb289353dc249e82926178eac7ded78",
                "label": "Swell Network: swETH Token"
            },
            {
                "address": "0x0000000000000000000000000000000000000004",
                "label": "Precompiled"
            },
            {
                "address": "0x39053d51b77dc0d36036fc1fcc8cb819df8ef37a",
                "label": "EigenLayer: Delegation"
            },
            {
                "address": "0xdda46bf18eeb3e06e2f12975a3a184e40581a72f",
                "label": "swETH"
            },
            {
                "address": "0x858646372cc42e1a627fce94aa7a7033e7cf075a",
                "label": "EigenLayer: Strategy Manager"
            },
            {
                "address": "0xf97e97649da958d290e84e6d571c32f4b7f475e4",
                "label": "DelegationManager"
            },
            {
                "address": "0xef31c292801f24f16479dd83197f1e6aebb8d6d8",
                "label": "Slasher"
            }
        ]
    },
    "trace": {
        "accountLabels": null,
        "dataMap": {
            "-1": {
                "invocation": {
                    "address": "0x6be0ab801017ace6075dca5e52b05ccb3b1f93f4",
                    "callData": "",
                    "decodedMethod": null,
                    "errorInfo": "",
                    "fromAddress": "",
                    "gasUsed": 0,
                    "id": -1,
                    "methodDecoded": false,
                    "operation": "",
                    "output": "",
                    "revert": false,
                    "revertMessage": "",
                    "selector": "",
                    "status": false,
                    "value": ""
                },
                "nodeType": 0
            },
            "0": {
                "invocation": {
                    "address": "0x858646372cc42e1a627fce94aa7a7033e7cf075a",
                    "callData": "0x0000000000000000000000000fe4f44bee93503346a3ac9ee5a26b130a5796d6000000000000000000000000f951e335afb289353dc249e82926178eac7ded7800000000000000000000000000000000000000000000000000cbb43f6eb14248",
                    "decodedMethod": {
                        "callParams": [
                            {
                                "name": "strategy",
                                "type": "address",
                                "value": "0x0fe4f44bee93503346a3ac9ee5a26b130a5796d6"
                            },
                            {
                                "name": "token",
                                "type": "address",
                                "value": "0xf951e335afb289353dc249e82926178eac7ded78"
                            },
                            {
                                "name": "amount",
                                "type": "uint256",
                                "value": "57,337,604,805,313,096"
                            }
                        ],
                        "constructorArguments": "",
                        "name": "depositIntoStrategy",
                        "returnParams": [
                            {
                                "name": "shares",
                                "type": "uint256",
                                "value": "57,337,604,805,313,096"
                            }
                        ],
                        "signature": "depositIntoStrategy(address,address,uint256)"
                    },
                    "errorInfo": "",
                    "fromAddress": "0x6be0ab801017ace6075dca5e52b05ccb3b1f93f4",
                    "gasUsed": 184547,
                    "id": 0,
                    "methodDecoded": true,
                    "operation": "CALL",
                    "output": "0x00000000000000000000000000000000000000000000000000cbb43f6eb14248",
                    "revert": false,
                    "revertMessage": "",
                    "selector": "0xe7a050aa",
                    "status": true,
                    "value": "0"
                },
                "nodeType": 0
            },
            "1": {
                "invocation": {
                    "address": "0x5d25eef8cfedaa47d31fe2346726de1c21e342fb",
                    "callData": "0x0000000000000000000000000fe4f44bee93503346a3ac9ee5a26b130a5796d6000000000000000000000000f951e335afb289353dc249e82926178eac7ded7800000000000000000000000000000000000000000000000000cbb43f6eb14248",
                    "decodedMethod": {
                        "callParams": [
                            {
                                "name": "strategy",
                                "type": "address",
                                "value": "0x0fe4f44bee93503346a3ac9ee5a26b130a5796d6"
                            },
                            {
                                "name": "token",
                                "type": "address",
                                "value": "0xf951e335afb289353dc249e82926178eac7ded78"
                            },
                            {
                                "name": "amount",
                                "type": "uint256",
                                "value": "57,337,604,805,313,096"
                            }
                        ],
                        "constructorArguments": "",
                        "name": "depositIntoStrategy",
                        "returnParams": [
                            {
                                "name": "shares",
                                "type": "uint256",
                                "value": "57,337,604,805,313,096"
                            }
                        ],
                        "signature": "depositIntoStrategy(address,address,uint256)"
                    },
                    "errorInfo": "",
                    "fromAddress": "0x858646372cc42e1a627fce94aa7a7033e7cf075a",
                    "gasUsed": 162807,
                    "id": 1,
                    "methodDecoded": true,
                    "operation": "DELEGATECALL",
                    "output": "0x00000000000000000000000000000000000000000000000000cbb43f6eb14248",
                    "revert": false,
                    "revertMessage": "",
                    "selector": "0xe7a050aa",
                    "status": true,
                    "value": "0"
                },
                "nodeType": 0
            },
            "10": {
                "invocation": {
                    "address": "0xdfda04f980be6a64e3607c95ca26012ab9aa46d3",
                    "callData": "0x000000000000000000000000f951e335afb289353dc249e82926178eac7ded7800000000000000000000000000000000000000000000000000cbb43f6eb14248",
                    "decodedMethod": {
                        "callParams": [
                            {
                                "name": "token",
                                "type": "address",
                                "value": "0xf951e335afb289353dc249e82926178eac7ded78"
                            },
                            {
                                "name": "amount",
                                "type": "uint256",
                                "value": "57,337,604,805,313,096"
                            }
                        ],
                        "constructorArguments": "",
                        "name": "deposit",
                        "returnParams": [
                            {
                                "name": "newShares",
                                "type": "uint256",
                                "value": "57,337,604,805,313,096"
                            }
                        ],
                        "signature": "deposit(address,uint256)"
                    },
                    "errorInfo": "",
                    "fromAddress": "0x0fe4f44bee93503346a3ac9ee5a26b130a5796d6",
                    "gasUsed": 18552,
                    "id": 10,
                    "methodDecoded": true,
                    "operation": "DELEGATECALL",
                    "output": "0x00000000000000000000000000000000000000000000000000cbb43f6eb14248",
                    "revert": false,
                    "revertMessage": "",
                    "selector": "0x47e7ef24",
                    "status": true,
                    "value": "0"
                },
                "nodeType": 0
            },
            "11": {
                "invocation": {
                    "address": "0xf951e335afb289353dc249e82926178eac7ded78",
                    "callData": "0x0000000000000000000000000fe4f44bee93503346a3ac9ee5a26b130a5796d6",
                    "decodedMethod": {
                        "callParams": [
                            {
                                "name": "account",
                                "type": "address",
                                "value": "0x0fe4f44bee93503346a3ac9ee5a26b130a5796d6"
                            }
                        ],
                        "constructorArguments": "",
                        "name": "balanceOf",
                        "returnParams": [
                            {
                                "decimalAvailable": true,
                                "name": "",
                                "type": "uint256",
                                "value": "93,868,349,019,705,512,908,932"
                            }
                        ],
                        "signature": "balanceOf(address)"
                    },
                    "errorInfo": "",
                    "fromAddress": "0x0fe4f44bee93503346a3ac9ee5a26b130a5796d6",
                    "gasUsed": 1483,
                    "id": 11,
                    "methodDecoded": true,
                    "operation": "STATICCALL",
                    "output": "0x0000000000000000000000000000000000000000000013e09d0791981de55884",
                    "revert": false,
                    "revertMessage": "",
                    "selector": "0x70a08231",
                    "status": true,
                    "value": "0"
                },
                "nodeType": 0
            },
            "12": {
                "invocation": {
                    "address": "0xdda46bf18eeb3e06e2f12975a3a184e40581a72f",
                    "callData": "0x0000000000000000000000000fe4f44bee93503346a3ac9ee5a26b130a5796d6",
                    "decodedMethod": {
                        "callParams": [
                            {
                                "name": "account",
                                "type": "address",
                                "value": "0x0fe4f44bee93503346a3ac9ee5a26b130a5796d6"
                            }
                        ],
                        "constructorArguments": "",
                        "name": "balanceOf",
                        "returnParams": [
                            {
                                "decimalAvailable": true,
                                "name": "",
                                "type": "uint256",
                                "value": "93,868,349,019,705,512,908,932"
                            }
                        ],
                        "signature": "balanceOf(address)"
                    },
                    "errorInfo": "",
                    "fromAddress": "0xf951e335afb289353dc249e82926178eac7ded78",
                    "gasUsed": 664,
                    "id": 12,
                    "methodDecoded": true,
                    "operation": "DELEGATECALL",
                    "output": "0x0000000000000000000000000000000000000000000013e09d0791981de55884",
                    "revert": false,
                    "revertMessage": "",
                    "selector": "0x70a08231",
                    "status": true,
                    "value": "0"
                },
                "nodeType": 0
            },
            "13": {
                "invocation": {
                    "address": "0xf951e335afb289353dc249e82926178eac7ded78",
                    "callData": "0x0000000000000000000000000fe4f44bee93503346a3ac9ee5a26b130a5796d6",
                    "decodedMethod": {
                        "callParams": [
                            {
                                "name": "account",
                                "type": "address",
                                "value": "0x0fe4f44bee93503346a3ac9ee5a26b130a5796d6"
                            }
                        ],
                        "constructorArguments": "",
                        "name": "balanceOf",
                        "returnParams": [
                            {
                                "decimalAvailable": true,
                                "name": "",
                                "type": "uint256",
                                "value": "93,868,349,019,705,512,908,932"
                            }
                        ],
                        "signature": "balanceOf(address)"
                    },
                    "errorInfo": "",
                    "fromAddress": "0x0fe4f44bee93503346a3ac9ee5a26b130a5796d6",
                    "gasUsed": 1483,
                    "id": 13,
                    "methodDecoded": true,
                    "operation": "STATICCALL",
                    "output": "0x0000000000000000000000000000000000000000000013e09d0791981de55884",
                    "revert": false,
                    "revertMessage": "",
                    "selector": "0x70a08231",
                    "status": true,
                    "value": "0"
                },
                "nodeType": 0
            },
            "14": {
                "invocation": {
                    "address": "0xdda46bf18eeb3e06e2f12975a3a184e40581a72f",
                    "callData": "0x0000000000000000000000000fe4f44bee93503346a3ac9ee5a26b130a5796d6",
                    "decodedMethod": {
                        "callParams": [
                            {
                                "name": "account",
                                "type": "address",
                                "value": "0x0fe4f44bee93503346a3ac9ee5a26b130a5796d6"
                            }
                        ],
                        "constructorArguments": "",
                        "name": "balanceOf",
                        "returnParams": [
                            {
                                "decimalAvailable": true,
                                "name": "",
                                "type": "uint256",
                                "value": "93,868,349,019,705,512,908,932"
                            }
                        ],
                        "signature": "balanceOf(address)"
                    },
                    "errorInfo": "",
                    "fromAddress": "0xf951e335afb289353dc249e82926178eac7ded78",
                    "gasUsed": 664,
                    "id": 14,
                    "methodDecoded": true,
                    "operation": "DELEGATECALL",
                    "output": "0x0000000000000000000000000000000000000000000013e09d0791981de55884",
                    "revert": false,
                    "revertMessage": "",
                    "selector": "0x70a08231",
                    "status": true,
                    "value": "0"
                },
                "nodeType": 0
            },
            "15": {
                "invocation": {
                    "address": "0x39053d51b77dc0d36036fc1fcc8cb819df8ef37a",
                    "callData": "0x0000000000000000000000006be0ab801017ace6075dca5e52b05ccb3b1f93f40000000000000000000000000fe4f44bee93503346a3ac9ee5a26b130a5796d600000000000000000000000000000000000000000000000000cbb43f6eb14248",
                    "decodedMethod": {
                        "callParams": [
                            {
                                "name": "staker",
                                "type": "address",
                                "value": "0x6be0ab801017ace6075dca5e52b05ccb3b1f93f4"
                            },
                            {
                                "name": "strategy",
                                "type": "address",
                                "value": "0x0fe4f44bee93503346a3ac9ee5a26b130a5796d6"
                            },
                            {
                                "name": "shares",
                                "type": "uint256",
                                "value": "57,337,604,805,313,096"
                            }
                        ],
                        "constructorArguments": "",
                        "name": "increaseDelegatedShares",
                        "returnParams": [],
                        "signature": "increaseDelegatedShares(address,address,uint256)"
                    },
                    "errorInfo": "",
                    "fromAddress": "0x858646372cc42e1a627fce94aa7a7033e7cf075a",
                    "gasUsed": 1590,
                    "id": 15,
                    "methodDecoded": true,
                    "operation": "CALL",
                    "output": "",
                    "revert": false,
                    "revertMessage": "",
                    "selector": "0x28a573ae",
                    "status": true,
                    "value": "0"
                },
                "nodeType": 0
            },
            "16": {
                "invocation": {
                    "address": "0xf97e97649da958d290e84e6d571c32f4b7f475e4",
                    "callData": "0x0000000000000000000000006be0ab801017ace6075dca5e52b05ccb3b1f93f40000000000000000000000000fe4f44bee93503346a3ac9ee5a26b130a5796d600000000000000000000000000000000000000000000000000cbb43f6eb14248",
                    "decodedMethod": {
                        "callParams": [
                            {
                                "name": "staker",
                                "type": "address",
                                "value": "0x6be0ab801017ace6075dca5e52b05ccb3b1f93f4"
                            },
                            {
                                "name": "strategy",
                                "type": "address",
                                "value": "0x0fe4f44bee93503346a3ac9ee5a26b130a5796d6"
                            },
                            {
                                "name": "shares",
                                "type": "uint256",
                                "value": "57,337,604,805,313,096"
                            }
                        ],
                        "constructorArguments": "",
                        "name": "increaseDelegatedShares",
                        "returnParams": [],
                        "signature": "increaseDelegatedShares(address,address,uint256)"
                    },
                    "errorInfo": "",
                    "fromAddress": "0x39053d51b77dc0d36036fc1fcc8cb819df8ef37a",
                    "gasUsed": 765,
                    "id": 16,
                    "methodDecoded": true,
                    "operation": "DELEGATECALL",
                    "output": "",
                    "revert": false,
                    "revertMessage": "",
                    "selector": "0x28a573ae",
                    "status": true,
                    "value": "0"
                },
                "nodeType": 0
            },
            "17": {
                "event": {
                    "contract": "0x858646372cc42e1a627fce94aa7a7033e7cf075a",
                    "decodedLog": {
                        "name": "Deposit",
                        "params": [
                            {
                                "name": "staker",
                                "type": "address",
                                "value": "0x6be0ab801017ace6075dca5e52b05ccb3b1f93f4"
                            },
                            {
                                "name": "token",
                                "type": "address",
                                "value": "0xf951e335afb289353dc249e82926178eac7ded78"
                            },
                            {
                                "name": "strategy",
                                "type": "address",
                                "value": "0x0fe4f44bee93503346a3ac9ee5a26b130a5796d6"
                            },
                            {
                                "name": "shares",
                                "type": "uint256",
                                "value": "57,337,604,805,313,096"
                            }
                        ],
                        "signature": "Deposit(address,address,address,uint256)"
                    },
                    "id": 17,
                    "logData": "0x0000000000000000000000006be0ab801017ace6075dca5e52b05ccb3b1f93f4000000000000000000000000f951e335afb289353dc249e82926178eac7ded780000000000000000000000000fe4f44bee93503346a3ac9ee5a26b130a5796d600000000000000000000000000000000000000000000000000cbb43f6eb14248",
                    "logDecoded": true,
                    "operation": "EVENT",
                    "revert": false,
                    "status": true,
                    "topics": [
                        "0x7cfff908a4b583f36430b25d75964c458d8ede8a99bd61be750e97ee1b2f3a96"
                    ]
                },
                "nodeType": 1
            },
            "2": {
                "invocation": {
                    "address": "0xd92145c07f8ed1d392c1b88017934e301cc1c3cd",
                    "callData": "0x0000000000000000000000006be0ab801017ace6075dca5e52b05ccb3b1f93f4",
                    "decodedMethod": {
                        "callParams": [
                            {
                                "name": "staker",
                                "type": "address",
                                "value": "0x6be0ab801017ace6075dca5e52b05ccb3b1f93f4"
                            }
                        ],
                        "constructorArguments": "",
                        "name": "isFrozen",
                        "returnParams": [
                            {
                                "name": "",
                                "type": "bool",
                                "value": false
                            }
                        ],
                        "signature": "isFrozen(address)"
                    },
                    "errorInfo": "",
                    "fromAddress": "0x858646372cc42e1a627fce94aa7a7033e7cf075a",
                    "gasUsed": 22795,
                    "id": 2,
                    "methodDecoded": true,
                    "operation": "STATICCALL",
                    "output": "0x0000000000000000000000000000000000000000000000000000000000000000",
                    "revert": false,
                    "revertMessage": "",
                    "selector": "0xe5839836",
                    "status": true,
                    "value": "0"
                },
                "nodeType": 0
            },
            "3": {
                "invocation": {
                    "address": "0xef31c292801f24f16479dd83197f1e6aebb8d6d8",
                    "callData": "0x0000000000000000000000006be0ab801017ace6075dca5e52b05ccb3b1f93f4",
                    "decodedMethod": {
                        "callParams": [
                            {
                                "name": "staker",
                                "type": "address",
                                "value": "0x6be0ab801017ace6075dca5e52b05ccb3b1f93f4"
                            }
                        ],
                        "constructorArguments": "",
                        "name": "isFrozen",
                        "returnParams": [
                            {
                                "name": "",
                                "type": "bool",
                                "value": false
                            }
                        ],
                        "signature": "isFrozen(address)"
                    },
                    "errorInfo": "",
                    "fromAddress": "0xd92145c07f8ed1d392c1b88017934e301cc1c3cd",
                    "gasUsed": 15476,
                    "id": 3,
                    "methodDecoded": true,
                    "operation": "DELEGATECALL",
                    "output": "0x0000000000000000000000000000000000000000000000000000000000000000",
                    "revert": false,
                    "revertMessage": "",
                    "selector": "0xe5839836",
                    "status": true,
                    "value": "0"
                },
                "nodeType": 0
            },
            "4": {
                "invocation": {
                    "address": "0x39053d51b77dc0d36036fc1fcc8cb819df8ef37a",
                    "callData": "0x0000000000000000000000006be0ab801017ace6075dca5e52b05ccb3b1f93f4",
                    "decodedMethod": {
                        "callParams": [
                            {
                                "name": "staker",
                                "type": "address",
                                "value": "0x6be0ab801017ace6075dca5e52b05ccb3b1f93f4"
                            }
                        ],
                        "constructorArguments": "",
                        "name": "isDelegated",
                        "returnParams": [
                            {
                                "name": "",
                                "type": "bool",
                                "value": false
                            }
                        ],
                        "signature": "isDelegated(address)"
                    },
                    "errorInfo": "",
                    "fromAddress": "0xd92145c07f8ed1d392c1b88017934e301cc1c3cd",
                    "gasUsed": 9928,
                    "id": 4,
                    "methodDecoded": true,
                    "operation": "STATICCALL",
                    "output": "0x0000000000000000000000000000000000000000000000000000000000000000",
                    "revert": false,
                    "revertMessage": "",
                    "selector": "0x3e28391d",
                    "status": true,
                    "value": "0"
                },
                "nodeType": 0
            },
            "5": {
                "invocation": {
                    "address": "0xf97e97649da958d290e84e6d571c32f4b7f475e4",
                    "callData": "0x0000000000000000000000006be0ab801017ace6075dca5e52b05ccb3b1f93f4",
                    "decodedMethod": {
                        "callParams": [
                            {
                                "name": "staker",
                                "type": "address",
                                "value": "0x6be0ab801017ace6075dca5e52b05ccb3b1f93f4"
                            }
                        ],
                        "constructorArguments": "",
                        "name": "isDelegated",
                        "returnParams": [
                            {
                                "name": "",
                                "type": "bool",
                                "value": false
                            }
                        ],
                        "signature": "isDelegated(address)"
                    },
                    "errorInfo": "",
                    "fromAddress": "0x39053d51b77dc0d36036fc1fcc8cb819df8ef37a",
                    "gasUsed": 2609,
                    "id": 5,
                    "methodDecoded": true,
                    "operation": "DELEGATECALL",
                    "output": "0x0000000000000000000000000000000000000000000000000000000000000000",
                    "revert": false,
                    "revertMessage": "",
                    "selector": "0x3e28391d",
                    "status": true,
                    "value": "0"
                },
                "nodeType": 0
            },
            "6": {
                "invocation": {
                    "address": "0xf951e335afb289353dc249e82926178eac7ded78",
                    "callData": "0x0000000000000000000000006be0ab801017ace6075dca5e52b05ccb3b1f93f40000000000000000000000000fe4f44bee93503346a3ac9ee5a26b130a5796d600000000000000000000000000000000000000000000000000cbb43f6eb14248",
                    "decodedMethod": {
                        "callParams": [
                            {
                                "name": "from",
                                "type": "address",
                                "value": "0x6be0ab801017ace6075dca5e52b05ccb3b1f93f4"
                            },
                            {
                                "name": "to",
                                "type": "address",
                                "value": "0x0fe4f44bee93503346a3ac9ee5a26b130a5796d6"
                            },
                            {
                                "decimalAvailable": true,
                                "name": "amount",
                                "type": "uint256",
                                "value": "57,337,604,805,313,096"
                            }
                        ],
                        "constructorArguments": "",
                        "name": "transferFrom",
                        "returnParams": [
                            {
                                "name": "",
                                "type": "bool",
                                "value": true
                            }
                        ],
                        "signature": "transferFrom(address,address,uint256)"
                    },
                    "errorInfo": "",
                    "fromAddress": "0x858646372cc42e1a627fce94aa7a7033e7cf075a",
                    "gasUsed": 22565,
                    "id": 6,
                    "methodDecoded": true,
                    "operation": "CALL",
                    "output": "0x0000000000000000000000000000000000000000000000000000000000000001",
                    "revert": false,
                    "revertMessage": "",
                    "selector": "0x23b872dd",
                    "status": true,
                    "value": "0"
                },
                "nodeType": 0
            },
            "7": {
                "invocation": {
                    "address": "0xdda46bf18eeb3e06e2f12975a3a184e40581a72f",
                    "callData": "0x0000000000000000000000006be0ab801017ace6075dca5e52b05ccb3b1f93f40000000000000000000000000fe4f44bee93503346a3ac9ee5a26b130a5796d600000000000000000000000000000000000000000000000000cbb43f6eb14248",
                    "decodedMethod": {
                        "callParams": [
                            {
                                "name": "from",
                                "type": "address",
                                "value": "0x6be0ab801017ace6075dca5e52b05ccb3b1f93f4"
                            },
                            {
                                "name": "to",
                                "type": "address",
                                "value": "0x0fe4f44bee93503346a3ac9ee5a26b130a5796d6"
                            },
                            {
                                "decimalAvailable": true,
                                "name": "amount",
                                "type": "uint256",
                                "value": "57,337,604,805,313,096"
                            }
                        ],
                        "constructorArguments": "",
                        "name": "transferFrom",
                        "returnParams": [
                            {
                                "name": "",
                                "type": "bool",
                                "value": true
                            }
                        ],
                        "signature": "transferFrom(address,address,uint256)"
                    },
                    "errorInfo": "",
                    "fromAddress": "0xf951e335afb289353dc249e82926178eac7ded78",
                    "gasUsed": 15237,
                    "id": 7,
                    "methodDecoded": true,
                    "operation": "DELEGATECALL",
                    "output": "0x0000000000000000000000000000000000000000000000000000000000000001",
                    "revert": false,
                    "revertMessage": "",
                    "selector": "0x23b872dd",
                    "status": true,
                    "value": "0"
                },
                "nodeType": 0
            },
            "8": {
                "event": {
                    "contract": "0xf951e335afb289353dc249e82926178eac7ded78",
                    "decodedLog": {
                        "name": "Transfer",
                        "params": [
                            {
                                "name": "from",
                                "type": "address",
                                "value": "0x6be0ab801017ace6075dca5e52b05ccb3b1f93f4"
                            },
                            {
                                "name": "to",
                                "type": "address",
                                "value": "0x0fe4f44bee93503346a3ac9ee5a26b130a5796d6"
                            },
                            {
                                "decimalAvailable": true,
                                "name": "value",
                                "type": "uint256",
                                "value": "57,337,604,805,313,096"
                            }
                        ],
                        "signature": "Transfer(address,address,uint256)"
                    },
                    "id": 8,
                    "logData": "0x00000000000000000000000000000000000000000000000000cbb43f6eb14248",
                    "logDecoded": true,
                    "operation": "EVENT",
                    "revert": false,
                    "status": true,
                    "topics": [
                        "0xddf252ad1be2c89b69c2b068fc378daa952ba7f163c4a11628f55a4df523b3ef",
                        "0x0000000000000000000000006be0ab801017ace6075dca5e52b05ccb3b1f93f4",
                        "0x0000000000000000000000000fe4f44bee93503346a3ac9ee5a26b130a5796d6"
                    ]
                },
                "nodeType": 1
            },
            "9": {
                "invocation": {
                    "address": "0x0fe4f44bee93503346a3ac9ee5a26b130a5796d6",
                    "callData": "0x000000000000000000000000f951e335afb289353dc249e82926178eac7ded7800000000000000000000000000000000000000000000000000cbb43f6eb14248",
                    "decodedMethod": {
                        "callParams": [
                            {
                                "name": "token",
                                "type": "address",
                                "value": "0xf951e335afb289353dc249e82926178eac7ded78"
                            },
                            {
                                "name": "amount",
                                "type": "uint256",
                                "value": "57,337,604,805,313,096"
                            }
                        ],
                        "constructorArguments": "",
                        "name": "deposit",
                        "returnParams": [
                            {
                                "name": "newShares",
                                "type": "uint256",
                                "value": "57,337,604,805,313,096"
                            }
                        ],
                        "signature": "deposit(address,uint256)"
                    },
                    "errorInfo": "",
                    "fromAddress": "0x858646372cc42e1a627fce94aa7a7033e7cf075a",
                    "gasUsed": 25874,
                    "id": 9,
                    "methodDecoded": true,
                    "operation": "CALL",
                    "output": "0x00000000000000000000000000000000000000000000000000cbb43f6eb14248",
                    "revert": false,
                    "revertMessage": "",
                    "selector": "0x47e7ef24",
                    "status": true,
                    "value": "0"
                },
                "nodeType": 0
            }
        },
        "gasFlame": [
            {
                "children": [
                    {
                        "children": [
                            {
                                "children": [],
                                "depth": 0,
                                "name": "Initial Gas",
                                "value": 22012
                            },
                            {
                                "children": [
                                    {
                                        "children": [
                                            {
                                                "children": [
                                                    {
                                                        "children": [
                                                            {
                                                                "children": [
                                                                    {
                                                                        "children": [],
                                                                        "depth": 5,
                                                                        "name": "isDelegated",
                                                                        "value": 2609
                                                                    }
                                                                ],
                                                                "depth": 4,
                                                                "name": "isDelegated",
                                                                "value": 9928
                                                            }
                                                        ],
                                                        "depth": 3,
                                                        "name": "isFrozen",
                                                        "value": 15476
                                                    }
                                                ],
                                                "depth": 2,
                                                "name": "isFrozen",
                                                "value": 22795
                                            },
                                            {
                                                "children": [
                                                    {
                                                        "children": [],
                                                        "depth": 3,
                                                        "name": "transferFrom",
                                                        "value": 15237
                                                    }
                                                ],
                                                "depth": 2,
                                                "name": "transferFrom",
                                                "value": 22565
                                            },
                                            {
                                                "children": [
                                                    {
                                                        "children": [
                                                            {
                                                                "children": [
                                                                    {
                                                                        "children": [],
                                                                        "depth": 5,
                                                                        "name": "balanceOf",
                                                                        "value": 664
                                                                    }
                                                                ],
                                                                "depth": 4,
                                                                "name": "balanceOf",
                                                                "value": 1483
                                                            },
                                                            {
                                                                "children": [
                                                                    {
                                                                        "children": [],
                                                                        "depth": 5,
                                                                        "name": "balanceOf",
                                                                        "value": 664
                                                                    }
                                                                ],
                                                                "depth": 4,
                                                                "name": "balanceOf",
                                                                "value": 1483
                                                            }
                                                        ],
                                                        "depth": 3,
                                                        "name": "deposit",
                                                        "value": 18552
                                                    }
                                                ],
                                                "depth": 2,
                                                "name": "deposit",
                                                "value": 25874
                                            },
                                            {
                                                "children": [
                                                    {
                                                        "children": [],
                                                        "depth": 3,
                                                        "name": "increaseDelegatedShares",
                                                        "value": 765
                                                    }
                                                ],
                                                "depth": 2,
                                                "name": "increaseDelegatedShares",
                                                "value": 1590
                                            }
                                        ],
                                        "depth": 1,
                                        "name": "depositIntoStrategy",
                                        "value": 162807
                                    }
                                ],
                                "depth": 0,
                                "name": "Executed Gas",
                                "value": 170135
                            }
                        ],
                        "depth": -1,
                        "name": "Actual Gas Used",
                        "value": 184547
                    },
                    {
                        "children": [],
                        "depth": -1,
                        "name": "Refunded Gas",
                        "value": 7600
                    }
                ],
                "depth": -2,
                "name": "Total Gas",
                "value": 192147
            }
        ],
        "isConfirmed": true,
        "mainTrace": [
            {
                "children": [
                    {
                        "children": [
                            {
                                "children": [
                                    {
                                        "children": [
                                            {
                                                "children": [
                                                    {
                                                        "children": [
                                                            {
                                                                "children": [],
                                                                "depth": 5,
                                                                "id": 5,
                                                                "order": 5
                                                            }
                                                        ],
                                                        "depth": 4,
                                                        "id": 4,
                                                        "order": 4
                                                    }
                                                ],
                                                "depth": 3,
                                                "id": 3,
                                                "order": 3
                                            }
                                        ],
                                        "depth": 2,
                                        "id": 2,
                                        "order": 2
                                    },
                                    {
                                        "children": [
                                            {
                                                "children": [
                                                    {
                                                        "children": [],
                                                        "depth": 4,
                                                        "id": 8,
                                                        "order": 8
                                                    }
                                                ],
                                                "depth": 3,
                                                "id": 7,
                                                "order": 7
                                            }
                                        ],
                                        "depth": 2,
                                        "id": 6,
                                        "order": 6
                                    },
                                    {
                                        "children": [
                                            {
                                                "children": [
                                                    {
                                                        "children": [
                                                            {
                                                                "children": [],
                                                                "depth": 5,
                                                                "id": 12,
                                                                "order": 12
                                                            }
                                                        ],
                                                        "depth": 4,
                                                        "id": 11,
                                                        "order": 11
                                                    },
                                                    {
                                                        "children": [
                                                            {
                                                                "children": [],
                                                                "depth": 5,
                                                                "id": 14,
                                                                "order": 14
                                                            }
                                                        ],
                                                        "depth": 4,
                                                        "id": 13,
                                                        "order": 13
                                                    }
                                                ],
                                                "depth": 3,
                                                "id": 10,
                                                "order": 10
                                            }
                                        ],
                                        "depth": 2,
                                        "id": 9,
                                        "order": 9
                                    },
                                    {
                                        "children": [
                                            {
                                                "children": [],
                                                "depth": 3,
                                                "id": 16,
                                                "order": 16
                                            }
                                        ],
                                        "depth": 2,
                                        "id": 15,
                                        "order": 15
                                    },
                                    {
                                        "children": [],
                                        "depth": 2,
                                        "id": 17,
                                        "order": 17
                                    }
                                ],
                                "depth": 1,
                                "id": 1,
                                "order": 1
                            }
                        ],
                        "depth": 0,
                        "id": 0,
                        "order": 0
                    }
                ],
                "depth": -1,
                "id": -1,
                "order": -1
            }
        ],
        "mainTraceNodeCount": 18,
        "parentIdMap": {
            "0": -1,
            "1": 0,
            "10": 9,
            "11": 10,
            "12": 11,
            "13": 10,
            "14": 13,
            "15": 1,
            "16": 15,
            "17": 1,
            "2": 1,
            "3": 2,
            "4": 3,
            "5": 4,
            "6": 1,
            "7": 6,
            "8": 7,
            "9": 1
        },
        "tidyTrace": [
            {
                "children": [
                    {
                        "children": [
                            {
                                "children": [
                                    {
                                        "children": [
                                            {
                                                "children": [
                                                    {
                                                        "children": [],
                                                        "depth": 4,
                                                        "id": 8,
                                                        "order": 8
                                                    }
                                                ],
                                                "depth": 3,
                                                "id": 7,
                                                "order": 7
                                            }
                                        ],
                                        "depth": 2,
                                        "id": 6,
                                        "order": 6
                                    },
                                    {
                                        "children": [
                                            {
                                                "children": [],
                                                "depth": 3,
                                                "id": 10,
                                                "order": 10
                                            }
                                        ],
                                        "depth": 2,
                                        "id": 9,
                                        "order": 9
                                    },
                                    {
                                        "children": [
                                            {
                                                "children": [],
                                                "depth": 3,
                                                "id": 16,
                                                "order": 16
                                            }
                                        ],
                                        "depth": 2,
                                        "id": 15,
                                        "order": 15
                                    },
                                    {
                                        "children": [],
                                        "depth": 2,
                                        "id": 17,
                                        "order": 17
                                    }
                                ],
                                "depth": 1,
                                "id": 1,
                                "order": 1
                            }
                        ],
                        "depth": 0,
                        "id": 0,
                        "order": 0
                    }
                ],
                "depth": -1,
                "id": -1,
                "order": -1
            }
        ],
        "tidyTraceNodeCount": 10
    },
    "state_change": {
        "stateChanges": [
            {
                "address": "0x0fe4f44bee93503346a3ac9ee5a26b130a5796d6",
                "erc": "",
                "slots": [
                    {
                        "current": "0x0000000000000000000000000000000000000000000013e09d0791981de55884",
                        "key": "0x0000000000000000000000000000000000000000000000000000000000000033",
                        "prev": "0x0000000000000000000000000000000000000000000013e09c3bdd58af34163c"
                    }
                ],
                "storageVariables": [
                    {
                        "name": "totalShares",
                        "type": "uint256",
                        "value": {
                            "current": "93868349019705512908932",
                            "prev": "93868291682100707595836",
                            "typeTag": 1
                        }
                    }
                ]
            },
            {
                "address": "0x858646372cc42e1a627fce94aa7a7033e7cf075a",
                "erc": "",
                "slots": [
                    {
                        "current": "0x0000000000000000000000000000000000000000000000000000000000000001",
                        "key": "0xbcfe82fa73f39fa94aa8f28a215f54a5402b56fa93beff370c412f2121e24e21",
                        "prev": "0x0000000000000000000000000000000000000000000000000000000000000000"
                    },
                    {
                        "current": "0x0000000000000000000000000fe4f44bee93503346a3ac9ee5a26b130a5796d6",
                        "key": "0xa8b0da83b7164c190db367763e248592b5583784a0f6dc888cf059c90c08082f",
                        "prev": "0x0000000000000000000000000000000000000000000000000000000000000000"
                    },
                    {
                        "current": "0x00000000000000000000000000000000000000000000000000cbb43f6eb14248",
                        "key": "0xb388abe34e1ee444ce15531ab4fb552ce78d801d394b4a0dfefd9b31a740341b",
                        "prev": "0x0000000000000000000000000000000000000000000000000000000000000000"
                    }
                ],
                "storageVariables": [
                    {
                        "name": "stakerStrategyList",
                        "type": "mapping(address => contract IStrategy[])",
                        "value": {
                            "pairs": [
                                {
                                    "key": "0x6be0ab801017ace6075dca5e52b05ccb3b1f93f4",
                                    "value": {
                                        "elemType": "contract IStrategy",
                                        "elems": [
                                            {
                                                "index": 0,
                                                "value": {
                                                    "current": "0x0fe4f44bee93503346a3ac9ee5a26b130a5796d6",
                                                    "prev": "0x0000000000000000000000000000000000000000",
                                                    "typeTag": 1
                                                }
                                            }
                                        ],
                                        "typeTag": 2
                                    }
                                }
                            ],
                            "typeTag": 4
                        }
                    },
                    {
                        "name": "stakerStrategyShares",
                        "type": "mapping(address => mapping(contract IStrategy => uint256))",
                        "value": {
                            "pairs": [
                                {
                                    "key": "0x6be0ab801017ace6075dca5e52b05ccb3b1f93f4",
                                    "value": {
                                        "pairs": [
                                            {
                                                "key": "0x0fe4f44bee93503346a3ac9ee5a26b130a5796d6",
                                                "value": {
                                                    "current": "57337604805313096",
                                                    "prev": "0",
                                                    "typeTag": 1
                                                }
                                            }
                                        ],
                                        "typeTag": 4
                                    }
                                }
                            ],
                            "typeTag": 4
                        }
                    }
                ]
            },
            {
                "address": "0xf951e335afb289353dc249e82926178eac7ded78",
                "erc": "ERC-20",
                "slots": [
                    {
                        "current": "0x0000000000000000000000000000000000000000000013e09d0791981de55884",
                        "key": "0x7d73e789f227d9f54f7e7478869820f00eead7a350cfaa3378190cca3af4da46",
                        "prev": "0x0000000000000000000000000000000000000000000013e09c3bdd58af34163c"
                    },
                    {
                        "current": "0x0000000000000000000000000000000000000000000000000000000000000000",
                        "key": "0x73e5848d1c0e37a4398824c415a2d99ca3daa93880407ae92f2a7832a9db29ac",
                        "prev": "0x00000000000000000000000000000000000000000000000000cbb43f6eb14248"
                    }
                ],
                "storageVariables": [
                    {
                        "name": "_balances",
                        "type": "mapping(address => uint256)",
                        "value": {
                            "pairs": [
                                {
                                    "key": "0x0fe4f44bee93503346a3ac9ee5a26b130a5796d6",
                                    "value": {
                                        "current": "93868349019705512908932",
                                        "prev": "93868291682100707595836",
                                        "typeTag": 1
                                    }
                                },
                                {
                                    "key": "0x6be0ab801017ace6075dca5e52b05ccb3b1f93f4",
                                    "value": {
                                        "current": "0",
                                        "prev": "57337604805313096",
                                        "typeTag": 1
                                    }
                                }
                            ],
                            "typeTag": 4
                        }
                    }
                ]
            }
        ]
    }
}