{
    "balance_change": {
        "balanceChanges": [
            {
                "account": "0xfee6f36fd1bf9c2e724150a670b7c81db3f1911e",
                "assets": [
                    {
                        "address": "0x286f0322164f532f388dac8bce2a5101d92a3475",
                        "amount": "2,850",
                        "iconUrl": "",
                        "isERC1155": false,
                        "isERC721": false,
                        "sign": false,
                        "value": ""
                    }
                ]
            },
            {
                "account": "0x532e10b6b3e6f9a9ffb031c08b2ffd6a621adcfe",
                "assets": [
                    {
                        "address": "0x286f0322164f532f388dac8bce2a5101d92a3475",
                        "amount": "2,850",
                        "iconUrl": "",
                        "isERC1155": false,
                        "isERC721": false,
                        "sign": true,
                        "value": ""
                    }
                ]
            }
        ]
    },
    "profile": {
        "basic_info": {
            "baseFee": "",
            "blockNumber": 8830384,
            "callData": "0xa9059cbb000000000000000000000000532e10b6b3e6f9a9ffb031c08b2ffd6a621adcfe00000000000000000000000000000000000000000000009a7fb1fc0d87480000",
            "debugEnable": true,
            "errorInfo": "",
            "eventCount": 1,
            "feeRecipient": "0xaa5c4244f05c92781c4f259913319d8ba1acf05e",
            "formatValue": "0",
            "gasLimit": 3000000,
            "gasPrice": "14",
            "gasUsed": 37401,
            "intTxnCount": 0,
            "internalRevert": false,
            "internalRevertMessage": "",
            "isContractCreation": false,
            "isFlashloan": false,
            "maxFee": "",
            "nonce": 766,
            "overwritedBlockNumber": -1,
            "priorityFee": "",
            "receiver": "0x286f0322164f532f388dac8bce2a5101d92a3475",
            "revertMessage": "",
            "sender": "0xfee6f36fd1bf9c2e724150a670b7c81db3f1911e",
            "simulationEnable": true,
            "sourceTxnHash": "0xfb16c10fe4a6f81c555642ad1a7a5b6c3a20f405ad659e2861e8d924601ba06a",
            "status": true,
            "timestamp": "2019-10-28T22:22:54Z",
            "transactionFee": "0.000523614",
            "txnHash": "0xfb16c10fe4a6f81c555642ad1a7a5b6c3a20f405ad659e2861e8d924601ba06a",
            "txnIndex": 5,
            "type": 0,
            "value": "0"
        },
        "fund_flow": [
            {
                "amount": "2,850",
                "from": "0xfee6f36fd1bf9c2e724150a670b7c81db3f1911e",
                "id": 1,
                "isERC1155": false,
                "isERC721": false,
                "isReverted": false,
                "order": 1,
                "to": "0x532e10b6b3e6f9a9ffb031c08b2ffd6a621adcfe",
                "token": "0x286f0322164f532f388dac8bce2a5101d92a3475"
            }
        ],
        "token_infos": [
            {
                "address": "0x286f0322164f532f388dac8bce2a5101d92a3475",
                "decimals": 18
            },
            {
                "address": "0xc02aaa39b223fe8d0a0e5c4f27ead9083c756cc2",
                "decimals": 18
            },
            {
                "address": "0xeeeeeeeeeeeeeeeeeeeeeeeeeeeeeeeeeeeeeeee",
                "decimals": 18
            }
        ]
    },
    "address_label": {
        "labels": [
            {
                "address": "0x0000000000000000000000000000000000000004",
                "label": "Precompiled"
            },
            {
                "address": "0xeeeeeeeeeeeeeeeeeeeeeeeeeeeeeeeeeeeeeeee",
                "label": "Ether"
            },
            {
                "address": "0x286f0322164f532f388dac8bce2a5101d92a3475",
                "label": "DNA (DNA)"
            },
            {
                "address": "0x0000000000000000000000000000000000000001",
                "label": "Precompiled"
            },
            {
                "address": "0x0000000000000000000000000000000000000002",
                "label": "Precompiled"
            },
            {
                "address": "0x0000000000000000000000000000000000000003",
                "label": "Precompiled"
            }
        ]
    },
    "trace": {
        "accountLabels": null,
        "dataMap": {
            "-1": {
                "invocation": {
                    "address": "0xfee6f36fd1bf9c2e724150a670b7c81db3f1911e",
                    "callData": "",
                    "decodedMethod": null,
                    "errorInfo": "",
                    "fromAddress": "",
                    "gasUsed": 0,
                    "id": -1,
                    "methodDecoded": false,
                    "operation": "",
                    "output": "",
                    "revert": false,
                    "revertMessage": "",
                    "selector": "",
                    "status": false,
                    "value": ""
                },
                "nodeType": 0
            },
            "0": {
                "invocation": {
                    "address": "0x286f0322164f532f388dac8bce2a5101d92a3475",
                    "callData": "0x000000000000000000000000532e10b6b3e6f9a9ffb031c08b2ffd6a621adcfe00000000000000000000000000000000000000000000009a7fb1fc0d87480000",
                    "decodedMethod": {
                        "callParams": [
                            {
                                "name": "_to",
                                "type": "address",
                                "value": "0x532e10b6b3e6f9a9ffb031c08b2ffd6a621adcfe"
                            },
                            {
                                "decimalAvailable": true,
                                "name": "_value",
                                "type": "uint256",
                                "value": "2,850,000,000,000,000,000,000"
                            }
                        ],
                        "constructorArguments": "",
                        "name": "transfer",
                        "returnParams": [
                            {
                                "name": "",
                                "type": "bool",
                                "value": true
                            }
                        ],
                        "signature": "transfer(address,uint256)"
                    },
                    "errorInfo": "",
                    "fromAddress": "0xfee6f36fd1bf9c2e724150a670b7c81db3f1911e",
                    "gasUsed": 37401,
                    "id": 0,
                    "methodDecoded": true,
                    "operation": "CALL",
                    "output": "0x0000000000000000000000000000000000000000000000000000000000000001",
                    "revert": false,
                    "revertMessage": "",
                    "selector": "0xa9059cbb",
                    "status": true,
                    "value": "0"
                },
                "nodeType": 0
            },
            "1": {
                "event": {
                    "contract": "0x286f0322164f532f388dac8bce2a5101d92a3475",
                    "decodedLog": {
                        "name": "Transfer",
                        "params": [
                            {
                                "name": "from",
                                "type": "address",
                                "value": "0xfee6f36fd1bf9c2e724150a670b7c81db3f1911e"
                            },
                            {
                                "name": "to",
                                "type": "address",
                                "value": "0x532e10b6b3e6f9a9ffb031c08b2ffd6a621adcfe"
                            },
                            {
                                "decimalAvailable": true,
                                "name": "value",
                                "type": "uint256",
                                "value": "2,850,000,000,000,000,000,000"
                            }
                        ],
                        "signature": "Transfer(address,address,uint256)"
                    },
                    "id": 1,
                    "logData": "0x00000000000000000000000000000000000000000000009a7fb1fc0d87480000",
                    "logDecoded": true,
                    "operation": "EVENT",
                    "revert": false,
                    "status": true,
                    "topics": [
                        "0xddf252ad1be2c89b69c2b068fc378daa952ba7f163c4a11628f55a4df523b3ef",
                        "0x000000000000000000000000fee6f36fd1bf9c2e724150a670b7c81db3f1911e",
                        "0x000000000000000000000000532e10b6b3e6f9a9ffb031c08b2ffd6a621adcfe"
                    ]
                },
                "nodeType": 1
            }
        },
        "gasFlame": [
            {
                "children": [
                    {
                        "children": [
                            {
                                "children": [],
                                "depth": 0,
                                "name": "Initial Gas",
                                "value": 23256
                            },
                            {
                                "children": [],
                                "depth": 0,
                                "name": "Executed Gas",
                                "value": 14145
                            }
                        ],
                        "depth": -1,
                        "name": "Actual Gas Used",
                        "value": 37401
                    },
                    {
                        "children": [],
                        "depth": -1,
                        "name": "Refunded Gas",
                        "value": 0
                    }
                ],
                "depth": -2,
                "name": "Total Gas",
                "value": 37401
            }
        ],
        "isConfirmed": true,
        "mainTrace": [
            {
                "children": [
                    {
                        "children": [
                            {
                                "children": [],
                                "depth": 1,
                                "id": 1,
                                "order": 1
                            }
                        ],
                        "depth": 0,
                        "id": 0,
                        "order": 0
                    }
                ],
                "depth": -1,
                "id": -1,
                "order": -1
            }
        ],
        "mainTraceNodeCount": 2,
        "parentIdMap": {
            "0": -1,
            "1": 0
        },
        "tidyTrace": [
            {
                "children": [
                    {
                        "children": [
                            {
                                "children": [],
                                "depth": 1,
                                "id": 1,
                                "order": 1
                            }
                        ],
                        "depth": 0,
                        "id": 0,
                        "order": 0
                    }
                ],
                "depth": -1,
                "id": -1,
                "order": -1
            }
        ],
        "tidyTraceNodeCount": 2
    },
    "state_change": {
        "stateChanges": [
            {
                "address": "0x286f0322164f532f388dac8bce2a5101d92a3475",
                "erc": "ERC-20",
                "slots": [
                    {
                        "current": "0x00000000000000000000000000000000000000000064897b864404866aa90000",
                        "key": "0xa11ceae0f87fc5e4ebbea54a370ff0aa508bd20e228d31be7f8f530563386412",
                        "prev": "0x000000000000000000000000000000000000000000648a1605f60093f1f10000"
                    },
                    {
                        "current": "0x00000000000000000000000000000000000000000005b951c120b8c3b61c0000",
                        "key": "0x9ba6471244c171492917f941219f4980c9ab7e6fa72a9ab523093b24c5023c7a",
                        "prev": "0x00000000000000000000000000000000000000000005b8b7416ebcb62ed40000"
                    }
                ],
                "storageVariables": [
                    {
                        "name": "balances",
                        "type": "mapping(address => uint256)",
                        "value": {
                            "pairs": [
                                {
                                    "key": "0x532e10b6b3e6f9a9ffb031c08b2ffd6a621adcfe",
                                    "value": {
                                        "current": "6919775000000000000000000",
                                        "prev": "6916925000000000000000000",
                                        "typeTag": 1
                                    }
                                },
                                {
                                    "key": "0xfee6f36fd1bf9c2e724150a670b7c81db3f1911e",
                                    "value": {
                                        "current": "121541824794000000000000000",
                                        "prev": "121544674794000000000000000",
                                        "typeTag": 1
                                    }
                                }
                            ],
                            "typeTag": 4
                        }
                    }
                ]
            }
        ]
    }
}