{
    "balance_change": {
        "balanceChanges": [
            {
                "account": "0xeb59013bc7f9f56bb94f6fd1c8f1c0917337b5f0",
                "assets": [
                    {
                        "address": "0x0d152b9ee87ebae179f64c067a966dd716c50742",
                        "amount": "10",
                        "iconUrl": "",
                        "isERC1155": false,
                        "isERC721": false,
                        "sign": false,
                        "value": ""
                    }
                ]
            },
            {
                "account": "0x7b2428a55379eda456655226ecb989375240dfb5",
                "assets": [
                    {
                        "address": "0x0d152b9ee87ebae179f64c067a966dd716c50742",
                        "amount": "10",
                        "iconUrl": "",
                        "isERC1155": false,
                        "isERC721": false,
                        "sign": true,
                        "value": ""
                    }
                ]
            }
        ]
    },
    "profile": {
        "basic_info": {
            "baseFee": "",
            "blockNumber": 6863538,
            "callData": "0xa9059cbb0000000000000000000000007b2428a55379eda456655226ecb989375240dfb5000000000000000000000000000000000000000000000000000000000000000a",
            "debugEnable": true,
            "errorInfo": "",
            "eventCount": 1,
            "feeRecipient": "0x2a65aca4d5fc5b5c859090a6c34d164135398226",
            "formatValue": "0",
            "gasLimit": 51621,
            "gasPrice": "10",
            "gasUsed": 36621,
            "intTxnCount": 0,
            "internalRevert": false,
            "internalRevertMessage": "",
            "isContractCreation": false,
            "isFlashloan": false,
            "maxFee": "",
            "nonce": 0,
            "overwritedBlockNumber": -1,
            "priorityFee": "",
            "receiver": "0x0d152b9ee87ebae179f64c067a966dd716c50742",
            "revertMessage": "",
            "sender": "0xeb59013bc7f9f56bb94f6fd1c8f1c0917337b5f0",
            "simulationEnable": true,
            "sourceTxnHash": "0xfbfc92804f1f2cec696460c0943123ef24798c356ae48a8e87598b5d8e872501",
            "status": true,
            "timestamp": "2018-12-10T23:01:44Z",
            "transactionFee": "0.00036621",
            "txnHash": "0xfbfc92804f1f2cec696460c0943123ef24798c356ae48a8e87598b5d8e872501",
            "txnIndex": 114,
            "type": 0,
            "value": "0"
        },
        "fund_flow": [
            {
                "amount": "10",
                "from": "0xeb59013bc7f9f56bb94f6fd1c8f1c0917337b5f0",
                "id": 1,
                "isERC1155": false,
                "isERC721": false,
                "isReverted": false,
                "order": 1,
                "to": "0x7b2428a55379eda456655226ecb989375240dfb5",
                "token": "0x0d152b9ee87ebae179f64c067a966dd716c50742"
            }
        ],
        "token_infos": [
            {
                "address": "0x0d152b9ee87ebae179f64c067a966dd716c50742",
                "decimals": 0
            },
            {
                "address": "0xc02aaa39b223fe8d0a0e5c4f27ead9083c756cc2",
                "decimals": 18
            },
            {
                "address": "0xeeeeeeeeeeeeeeeeeeeeeeeeeeeeeeeeeeeeeeee",
                "decimals": 18
            }
        ]
    },
    "address_label": {
        "labels": [
            {
                "address": "0x0000000000000000000000000000000000000002",
                "label": "Precompiled"
            },
            {
                "address": "0x0000000000000000000000000000000000000003",
                "label": "Precompiled"
            },
            {
                "address": "0x0000000000000000000000000000000000000004",
                "label": "Precompiled"
            },
            {
                "address": "0xeeeeeeeeeeeeeeeeeeeeeeeeeeeeeeeeeeeeeeee",
                "label": "Ether"
            },
            {
                "address": "0x0d152b9ee87ebae179f64c067a966dd716c50742",
                "label": "Mavrodi (MAVRO)"
            },
            {
                "address": "0x0000000000000000000000000000000000000001",
                "label": "Precompiled"
            }
        ]
    },
    "trace": {
        "accountLabels": null,
        "dataMap": {
            "-1": {
                "invocation": {
                    "address": "0xeb59013bc7f9f56bb94f6fd1c8f1c0917337b5f0",
                    "callData": "",
                    "decodedMethod": null,
                    "errorInfo": "",
                    "fromAddress": "",
                    "gasUsed": 0,
                    "id": -1,
                    "methodDecoded": false,
                    "operation": "",
                    "output": "",
                    "revert": false,
                    "revertMessage": "",
                    "selector": "",
                    "status": false,
                    "value": ""
                },
                "nodeType": 0
            },
            "0": {
                "invocation": {
                    "address": "0x0d152b9ee87ebae179f64c067a966dd716c50742",
                    "callData": "0x0000000000000000000000007b2428a55379eda456655226ecb989375240dfb5000000000000000000000000000000000000000000000000000000000000000a",
                    "decodedMethod": {
                        "callParams": [
                            {
                                "name": "_to",
                                "type": "address",
                                "value": "0x7b2428a55379eda456655226ecb989375240dfb5"
                            },
                            {
                                "decimalAvailable": true,
                                "name": "_value",
                                "type": "uint256",
                                "value": "10"
                            }
                        ],
                        "constructorArguments": "",
                        "name": "transfer",
                        "returnParams": [
                            {
                                "name": "",
                                "type": "bool",
                                "value": true
                            }
                        ],
                        "signature": "transfer(address,uint256)"
                    },
                    "errorInfo": "",
                    "fromAddress": "0xeb59013bc7f9f56bb94f6fd1c8f1c0917337b5f0",
                    "gasUsed": 36621,
                    "id": 0,
                    "methodDecoded": true,
                    "operation": "CALL",
                    "output": "0x0000000000000000000000000000000000000000000000000000000000000001",
                    "revert": false,
                    "revertMessage": "",
                    "selector": "0xa9059cbb",
                    "status": true,
                    "value": "0"
                },
                "nodeType": 0
            },
            "1": {
                "event": {
                    "contract": "0x0d152b9ee87ebae179f64c067a966dd716c50742",
                    "decodedLog": {
                        "name": "Transfer",
                        "params": [
                            {
                                "name": "from",
                                "type": "address",
                                "value": "0xeb59013bc7f9f56bb94f6fd1c8f1c0917337b5f0"
                            },
                            {
                                "name": "to",
                                "type": "address",
                                "value": "0x7b2428a55379eda456655226ecb989375240dfb5"
                            },
                            {
                                "decimalAvailable": true,
                                "name": "value",
                                "type": "uint256",
                                "value": "10"
                            }
                        ],
                        "signature": "Transfer(address,address,uint256)"
                    },
                    "id": 1,
                    "logData": "0x000000000000000000000000000000000000000000000000000000000000000a",
                    "logDecoded": true,
                    "operation": "EVENT",
                    "revert": false,
                    "status": true,
                    "topics": [
                        "0xddf252ad1be2c89b69c2b068fc378daa952ba7f163c4a11628f55a4df523b3ef",
                        "0x000000000000000000000000eb59013bc7f9f56bb94f6fd1c8f1c0917337b5f0",
                        "0x0000000000000000000000007b2428a55379eda456655226ecb989375240dfb5"
                    ]
                },
                "nodeType": 1
            }
        },
        "gasFlame": [
            {
                "children": [
                    {
                        "children": [
                            {
                                "children": [],
                                "depth": 0,
                                "name": "Initial Gas",
                                "value": 22872
                            },
                            {
                                "children": [],
                                "depth": 0,
                                "name": "Executed Gas",
                                "value": 13749
                            }
                        ],
                        "depth": -1,
                        "name": "Actual Gas Used",
                        "value": 36621
                    },
                    {
                        "children": [],
                        "depth": -1,
                        "name": "Refunded Gas",
                        "value": 0
                    }
                ],
                "depth": -2,
                "name": "Total Gas",
                "value": 36621
            }
        ],
        "isConfirmed": true,
        "mainTrace": [
            {
                "children": [
                    {
                        "children": [
                            {
                                "children": [],
                                "depth": 1,
                                "id": 1,
                                "order": 1
                            }
                        ],
                        "depth": 0,
                        "id": 0,
                        "order": 0
                    }
                ],
                "depth": -1,
                "id": -1,
                "order": -1
            }
        ],
        "mainTraceNodeCount": 2,
        "parentIdMap": {
            "0": -1,
            "1": 0
        },
        "tidyTrace": [
            {
                "children": [
                    {
                        "children": [
                            {
                                "children": [],
                                "depth": 1,
                                "id": 1,
                                "order": 1
                            }
                        ],
                        "depth": 0,
                        "id": 0,
                        "order": 0
                    }
                ],
                "depth": -1,
                "id": -1,
                "order": -1
            }
        ],
        "tidyTraceNodeCount": 2
    },
    "state_change": {
        "stateChanges": [
            {
                "address": "0x0d152b9ee87ebae179f64c067a966dd716c50742",
                "erc": "ERC-20",
                "slots": [
                    {
                        "current": "0x0000000000000000000000000000000000000000000000000000000000133e4f",
                        "key": "0x2b0f4297de5894608f68e3e7dd6ad2b509fdfd98188ec04a7533f2c364a59264",
                        "prev": "0x0000000000000000000000000000000000000000000000000000000000133e45"
                    },
                    {
                        "current": "0x000000000000000000000000000000000000000000000000000000000000000f",
                        "key": "0x7f139478a7742c86d1583ffd42795778addd148a23b492c8144e8b633a8c54d1",
                        "prev": "0x0000000000000000000000000000000000000000000000000000000000000019"
                    }
                ],
                "storageVariables": [
                    {
                        "name": "balances",
                        "type": "mapping(address => uint256)",
                        "value": {
                            "pairs": [
                                {
                                    "key": "0x7b2428a55379eda456655226ecb989375240dfb5",
                                    "value": {
                                        "current": "1261135",
                                        "prev": "1261125",
                                        "typeTag": 1
                                    }
                                },
                                {
                                    "key": "0xeb59013bc7f9f56bb94f6fd1c8f1c0917337b5f0",
                                    "value": {
                                        "current": "15",
                                        "prev": "25",
                                        "typeTag": 1
                                    }
                                }
                            ],
                            "typeTag": 4
                        }
                    }
                ]
            }
        ]
    }
}