{
    "balance_change": {
        "balanceChanges": [
            {
                "account": "0xec962fb1db3679c8f4807d60b4fc16c180b70b46",
                "assets": [
                    {
                        "address": "0xeeeeeeeeeeeeeeeeeeeeeeeeeeeeeeeeeeeeeeee",
                        "amount": "0.03",
                        "iconUrl": "https://assets.blocksec.com/image/1663669189317-3.png",
                        "isERC1155": false,
                        "isERC721": false,
                        "sign": false,
                        "value": ""
                    }
                ]
            },
            {
                "account": "0xd1ceeeeee83f8bcf3bedad437202b6154e9f5405",
                "assets": [
                    {
                        "address": "0xeeeeeeeeeeeeeeeeeeeeeeeeeeeeeeeeeeeeeeee",
                        "amount": "0.03",
                        "iconUrl": "https://assets.blocksec.com/image/1663669189317-3.png",
                        "isERC1155": false,
                        "isERC721": false,
                        "sign": true,
                        "value": ""
                    }
                ]
            }
        ]
    },
    "profile": {
        "basic_info": {
            "baseFee": "",
            "blockNumber": 8849355,
            "callData": "0x5e83b46300000000000000000000000000000000000000000000000000000000000000040000000000000000000000000000000000000000000000000000000000000064000000000000000000000000000000000000000000000000000000000087089056898c4def7c481049b6b819e94e38384d7241bb88a27df2776325f5b756d5efab2b07bc71f201bcb0e6de67a43f23e8cafdc0b016a357f842890bccc49ef1ec3d61f71b259def4f547fafc33c24abbaef22a2e9590d72a9fdf1ddfc2f0b0b2c",
            "debugEnable": true,
            "errorInfo": "",
            "eventCount": 1,
            "feeRecipient": "0x5a0b54d5dc17e0aadc383d2db43b0a0d3e029c4c",
            "formatValue": "0.03",
            "gasLimit": 150000,
            "gasPrice": "13",
            "gasUsed": 82165,
            "intTxnCount": 1,
            "internalRevert": false,
            "internalRevertMessage": "",
            "isContractCreation": false,
            "isFlashloan": false,
            "maxFee": "",
            "nonce": 61060,
            "overwritedBlockNumber": -1,
            "priorityFee": "",
            "receiver": "0xd1ceeeeee83f8bcf3bedad437202b6154e9f5405",
            "revertMessage": "",
            "sender": "0xec962fb1db3679c8f4807d60b4fc16c180b70b46",
            "simulationEnable": true,
            "sourceTxnHash": "0xfbfa804b3ee84b51cea6c54f9b213f0551c1866b98fe1a913e6f99f24441841a",
            "status": true,
            "timestamp": "2019-10-31T23:31:06Z",
            "transactionFee": "0.001068145",
            "txnHash": "0xfbfa804b3ee84b51cea6c54f9b213f0551c1866b98fe1a913e6f99f24441841a",
            "txnIndex": 34,
            "type": 0,
            "value": "30000000000000000"
        },
        "fund_flow": [
            {
                "amount": "0.03",
                "from": "0xec962fb1db3679c8f4807d60b4fc16c180b70b46",
                "id": 1,
                "isERC1155": false,
                "isERC721": false,
                "isReverted": false,
                "order": 1,
                "to": "0xd1ceeeeee83f8bcf3bedad437202b6154e9f5405",
                "token": "0xeeeeeeeeeeeeeeeeeeeeeeeeeeeeeeeeeeeeeeee"
            }
        ],
        "token_infos": [
            {
                "address": "0xc02aaa39b223fe8d0a0e5c4f27ead9083c756cc2",
                "decimals": 18
            },
            {
                "address": "0xeeeeeeeeeeeeeeeeeeeeeeeeeeeeeeeeeeeeeeee",
                "decimals": 18
            }
        ]
    },
    "address_label": {
        "labels": [
            {
                "address": "0xeeeeeeeeeeeeeeeeeeeeeeeeeeeeeeeeeeeeeeee",
                "label": "Ether"
            },
            {
                "address": "0xd1ceeeeee83f8bcf3bedad437202b6154e9f5405",
                "label": "Dice2Win"
            },
            {
                "address": "0x0000000000000000000000000000000000000001",
                "label": "Precompiled"
            },
            {
                "address": "0x0000000000000000000000000000000000000002",
                "label": "Precompiled"
            },
            {
                "address": "0x0000000000000000000000000000000000000003",
                "label": "Precompiled"
            },
            {
                "address": "0x0000000000000000000000000000000000000004",
                "label": "Precompiled"
            }
        ]
    },
    "trace": {
        "accountLabels": null,
        "dataMap": {
            "-1": {
                "invocation": {
                    "address": "0xec962fb1db3679c8f4807d60b4fc16c180b70b46",
                    "callData": "",
                    "decodedMethod": null,
                    "errorInfo": "",
                    "fromAddress": "",
                    "gasUsed": 0,
                    "id": -1,
                    "methodDecoded": false,
                    "operation": "",
                    "output": "",
                    "revert": false,
                    "revertMessage": "",
                    "selector": "",
                    "status": false,
                    "value": ""
                },
                "nodeType": 0
            },
            "0": {
                "invocation": {
                    "address": "0xd1ceeeeee83f8bcf3bedad437202b6154e9f5405",
                    "callData": "0x00000000000000000000000000000000000000000000000000000000000000040000000000000000000000000000000000000000000000000000000000000064000000000000000000000000000000000000000000000000000000000087089056898c4def7c481049b6b819e94e38384d7241bb88a27df2776325f5b756d5efab2b07bc71f201bcb0e6de67a43f23e8cafdc0b016a357f842890bccc49ef1ec3d61f71b259def4f547fafc33c24abbaef22a2e9590d72a9fdf1ddfc2f0b0b2c",
                    "decodedMethod": {
                        "callParams": [
                            {
                                "name": "betMask",
                                "type": "uint256",
                                "value": "4"
                            },
                            {
                                "name": "modulo",
                                "type": "uint256",
                                "value": "100"
                            },
                            {
                                "name": "commitLastBlock",
                                "type": "uint256",
                                "value": "8,849,552"
                            },
                            {
                                "name": "commit",
                                "type": "uint256",
                                "value": "39,141,931,371,660,756,254,630,689,819,686,010,914,525,162,398,939,742,013,577,454,019,695,827,408,367"
                            },
                            {
                                "name": "r",
                                "type": "bytes32",
                                "value": "0xab2b07bc71f201bcb0e6de67a43f23e8cafdc0b016a357f842890bccc49ef1ec"
                            },
                            {
                                "name": "s",
                                "type": "bytes32",
                                "value": "0x3d61f71b259def4f547fafc33c24abbaef22a2e9590d72a9fdf1ddfc2f0b0b2c"
                            }
                        ],
                        "constructorArguments": "",
                        "name": "placeBet",
                        "returnParams": [],
                        "signature": "placeBet(uint256,uint256,uint256,uint256,bytes32,bytes32)"
                    },
                    "errorInfo": "",
                    "fromAddress": "0xec962fb1db3679c8f4807d60b4fc16c180b70b46",
                    "gasUsed": 82165,
                    "id": 0,
                    "methodDecoded": true,
                    "operation": "CALL",
                    "output": "",
                    "revert": false,
                    "revertMessage": "",
                    "selector": "0x5e83b463",
                    "status": true,
                    "value": "0.03"
                },
                "nodeType": 0
            },
            "1": {
                "invocation": {
                    "address": "0x0000000000000000000000000000000000000001",
                    "callData": "0xc945e92174899c2094451cabf8b598991df71c33dad3eb0375ed7f16000000000000000000000000000000000000000000000000000000000000001bab2b07bc71f201bcb0e6de67a43f23e8cafdc0b016a357f842890bccc49ef1ec3d61f71b259def4f547fafc33c24abbaef22a2e9590d72a9fdf1ddfc2f0b0b2c",
                    "decodedMethod": {
                        "callParams": [
                            {
                                "name": "hash",
                                "type": "bytes32",
                                "value": "0x66d2e3f7c945e92174899c2094451cabf8b598991df71c33dad3eb0375ed7f16"
                            },
                            {
                                "name": "v",
                                "type": "uint256",
                                "value": "27"
                            },
                            {
                                "name": "r",
                                "type": "bytes32",
                                "value": "0xab2b07bc71f201bcb0e6de67a43f23e8cafdc0b016a357f842890bccc49ef1ec"
                            },
                            {
                                "name": "s",
                                "type": "bytes32",
                                "value": "0x3d61f71b259def4f547fafc33c24abbaef22a2e9590d72a9fdf1ddfc2f0b0b2c"
                            }
                        ],
                        "constructorArguments": "",
                        "name": "ecrecover",
                        "returnParams": [
                            {
                                "name": "",
                                "type": "address",
                                "value": "0xb00b5ca7ec0502f2f269e99b91ebbccbce9cccec"
                            }
                        ],
                        "signature": "ecrecover(bytes32,uint256,bytes32,bytes32)"
                    },
                    "errorInfo": "",
                    "fromAddress": "0xd1ceeeeee83f8bcf3bedad437202b6154e9f5405",
                    "gasUsed": 3000,
                    "id": 1,
                    "methodDecoded": true,
                    "operation": "CALL",
                    "output": "0x000000000000000000000000b00b5ca7ec0502f2f269e99b91ebbccbce9cccec",
                    "revert": false,
                    "revertMessage": "",
                    "selector": "0x66d2e3f7",
                    "status": true,
                    "value": "0"
                },
                "nodeType": 0
            },
            "2": {
                "event": {
                    "contract": "0xd1ceeeeee83f8bcf3bedad437202b6154e9f5405",
                    "decodedLog": {
                        "name": "Commit",
                        "params": [
                            {
                                "name": "commit",
                                "type": "uint256",
                                "value": "39,141,931,371,660,756,254,630,689,819,686,010,914,525,162,398,939,742,013,577,454,019,695,827,408,367"
                            }
                        ],
                        "signature": "Commit(uint256)"
                    },
                    "id": 2,
                    "logData": "0x56898c4def7c481049b6b819e94e38384d7241bb88a27df2776325f5b756d5ef",
                    "logDecoded": true,
                    "operation": "EVENT",
                    "revert": false,
                    "status": true,
                    "topics": [
                        "0x5bdd2fc99022530157777690475b670d3872f32262eb1d47d9ba8000dad58f87"
                    ]
                },
                "nodeType": 1
            }
        },
        "gasFlame": [
            {
                "children": [
                    {
                        "children": [
                            {
                                "children": [],
                                "depth": 0,
                                "name": "Initial Gas",
                                "value": 28504
                            },
                            {
                                "children": [
                                    {
                                        "children": [],
                                        "depth": 1,
                                        "name": "ecrecover",
                                        "value": 3000
                                    }
                                ],
                                "depth": 0,
                                "name": "Executed Gas",
                                "value": 53661
                            }
                        ],
                        "depth": -1,
                        "name": "Actual Gas Used",
                        "value": 82165
                    },
                    {
                        "children": [],
                        "depth": -1,
                        "name": "Refunded Gas",
                        "value": 0
                    }
                ],
                "depth": -2,
                "name": "Total Gas",
                "value": 82165
            }
        ],
        "isConfirmed": true,
        "mainTrace": [
            {
                "children": [
                    {
                        "children": [
                            {
                                "children": [],
                                "depth": 1,
                                "id": 1,
                                "order": 1
                            },
                            {
                                "children": [],
                                "depth": 1,
                                "id": 2,
                                "order": 2
                            }
                        ],
                        "depth": 0,
                        "id": 0,
                        "order": 0
                    }
                ],
                "depth": -1,
                "id": -1,
                "order": -1
            }
        ],
        "mainTraceNodeCount": 3,
        "parentIdMap": {
            "0": -1,
            "1": 0,
            "2": 0
        },
        "tidyTrace": [
            {
                "children": [
                    {
                        "children": [
                            {
                                "children": [],
                                "depth": 1,
                                "id": 1,
                                "order": 1
                            },
                            {
                                "children": [],
                                "depth": 1,
                                "id": 2,
                                "order": 2
                            }
                        ],
                        "depth": 0,
                        "id": 0,
                        "order": 0
                    }
                ],
                "depth": -1,
                "id": -1,
                "order": -1
            }
        ],
        "tidyTraceNodeCount": 3
    },
    "state_change": {
        "stateChanges": [
            {
                "address": "0xd1ceeeeee83f8bcf3bedad437202b6154e9f5405",
                "erc": "",
                "slots": [
                    {
                        "current": "0x000000000000000000000000000000000000000000000000006a94d74f430000",
                        "key": "0x9acaec41118b1713210b1aaaf1593ac5817b79b4a67127c795ff3b932dac1687",
                        "prev": "0x0000000000000000000000000000000000000000000000000000000000000000"
                    },
                    {
                        "current": "0xec962fb1db3679c8f4807d60b4fc16c180b70b46000000000000008707cb0464",
                        "key": "0x9acaec41118b1713210b1aaaf1593ac5817b79b4a67127c795ff3b932dac1688",
                        "prev": "0x0000000000000000000000000000000000000000000000000000000000000000"
                    },
                    {
                        "current": "0x0000000000000000678fc54333e00000000000000000000009d6dfbe59c08000",
                        "key": "0x0000000000000000000000000000000000000000000000000000000000000004",
                        "prev": "0x00000000000000005d41e1724a25c000000000000000000009d6dfbe59c08000"
                    }
                ],
                "storageVariables": [
                    {
                        "name": "jackpotSize",
                        "type": "uint128",
                        "value": {
                            "current": "709000000000000000",
                            "prev": "709000000000000000",
                            "typeTag": 1
                        }
                    },
                    {
                        "name": "lockedInBets",
                        "type": "uint128",
                        "value": {
                            "current": "7462400000000000000",
                            "prev": "6719900000000000000",
                            "typeTag": 1
                        }
                    },
                    {
                        "name": "bets",
                        "type": "mapping(uint256 => struct Dice2Win.Bet)",
                        "value": {
                            "pairs": [
                                {
                                    "key": "39141931371660756254630689819686010914525162398939742013577454019695827408367",
                                    "value": {
                                        "fields": [
                                            {
                                                "name": "amount",
                                                "type": "uint256",
                                                "value": {
                                                    "current": "30000000000000000",
                                                    "prev": "0",
                                                    "typeTag": 1
                                                }
                                            },
                                            {
                                                "name": "modulo",
                                                "type": "uint8",
                                                "value": {
                                                    "current": "100",
                                                    "prev": "0",
                                                    "typeTag": 1
                                                }
                                            },
                                            {
                                                "name": "rollUnder",
                                                "type": "uint8",
                                                "value": {
                                                    "current": "4",
                                                    "prev": "0",
                                                    "typeTag": 1
                                                }
                                            },
                                            {
                                                "name": "placeBlockNumber",
                                                "type": "uint40",
                                                "value": {
                                                    "current": "8849355",
                                                    "prev": "0",
                                                    "typeTag": 1
                                                }
                                            },
                                            {
                                                "name": "mask",
                                                "type": "uint40",
                                                "value": {
                                                    "current": "0",
                                                    "prev": "0",
                                                    "typeTag": 1
                                                }
                                            },
                                            {
                                                "name": "gambler",
                                                "type": "address",
                                                "value": {
                                                    "current": "0xec962fb1db3679c8f4807d60b4fc16c180b70b46",
                                                    "prev": "0x0000000000000000000000000000000000000000",
                                                    "typeTag": 1
                                                }
                                            }
                                        ],
                                        "typeTag": 3
                                    }
                                }
                            ],
                            "typeTag": 4
                        }
                    }
                ]
            }
        ]
    }
}