{
    "balance_change": {
        "balanceChanges": [
            {
                "account": "0x0000000000000000000000000000000000000000",
                "assets": [
                    {
                        "address": "0xb7e548c4f133adbb910914d7529d5cb00c2e9051",
                        "amount": "1",
                        "iconUrl": "",
                        "isERC1155": false,
                        "isERC721": true,
                        "sign": false,
                        "tokenID": "58846",
                        "value": ""
                    }
                ]
            },
            {
                "account": "0x66a96c3af91551828a7b0508b844f07cfb6d4cf1",
                "assets": [
                    {
                        "address": "0xb7e548c4f133adbb910914d7529d5cb00c2e9051",
                        "amount": "1",
                        "iconUrl": "",
                        "isERC1155": false,
                        "isERC721": true,
                        "sign": true,
                        "tokenID": "58846",
                        "value": ""
                    }
                ]
            }
        ]
    },
    "profile": {
        "basic_info": {
            "baseFee": "5.824531993",
            "blockNumber": 19804054,
            "callData": "0xac5288ad0000000000000000000000000000000000000000000000000000000000000001000000000000000000000000b7e548c4f133adbb910914d7529d5cb00c2e9051000000000000000000000000000000000000000000000000000000000000e5de0000000000000000000000000000000000000000000000000000000000000001000000000000000000000000660539a1ab24c281538a4d37000000000000e5de00000000000000000000000000000000000000000000000000000000000000010000000000000000000000000000000000000000000000000000000000000000000000000000000000000000000000000000000000000000000000000000000100000000000000000000000000000000000000000000000000000000000000000000000000000000000000000000000000000000000000000000000000000000000000000000000000000000fea6f9fc76bc180ebbbfff0abdf739ad7df67ff8000000000000000000000000000000000000000000000000000000006637867800000000000000000000000000000000000000000000000000000000000001a00000000000000000000000000000000000000000000000000000000000000041c323a40a31620805787aeb019858f9f4829d2210ec938f70fcca359521343ec30aed196f6a45af90bd6e6c53e12410ec2fa4f90449b16753c41bae85c8970ebd1c00000000000000000000000000000000000000000000000000000000000000",
            "debugEnable": true,
            "errorInfo": "",
            "eventCount": 2,
            "feeRecipient": "0x388c818ca8b9251b393131c08a736a67ccb19297",
            "formatValue": "0",
            "gasLimit": 248298,
            "gasPrice": "6.324531993",
            "gasUsed": 163071,
            "intTxnCount": 8,
            "internalRevert": false,
            "internalRevertMessage": "",
            "isContractCreation": false,
            "isFlashloan": false,
            "maxFee": "8.2625",
            "nonce": 0,
            "overwritedBlockNumber": -1,
            "priorityFee": "0.5",
            "receiver": "0xaacfdf323b44d8b27319249ca3ee1b3aa05083b2",
            "revertMessage": "",
            "sender": "0x66a96c3af91551828a7b0508b844f07cfb6d4cf1",
            "simulationEnable": true,
            "sourceTxnHash": "0xfb6b4bb748f9812ee12d4faaf3f1278badbdf475a6586768480ac47baad427b0",
            "status": true,
            "timestamp": "2024-05-05T13:00:47Z",
            "transactionFee": "0.001031347756630503",
            "txnHash": "0xfb6b4bb748f9812ee12d4faaf3f1278badbdf475a6586768480ac47baad427b0",
            "txnIndex": 80,
            "type": 2,
            "value": "0"
        },
        "fund_flow": [
            {
                "amount": "1",
                "from": "0x0000000000000000000000000000000000000000",
                "id": 1,
                "isERC1155": false,
                "isERC721": true,
                "isReverted": false,
                "order": 1,
                "to": "0x66a96c3af91551828a7b0508b844f07cfb6d4cf1",
                "token": "0xb7e548c4f133adbb910914d7529d5cb00c2e9051",
                "tokenID": "58846"
            }
        ],
        "token_infos": [
            {
                "address": "0xc02aaa39b223fe8d0a0e5c4f27ead9083c756cc2",
                "decimals": 18
            },
            {
                "address": "0xeeeeeeeeeeeeeeeeeeeeeeeeeeeeeeeeeeeeeeee",
                "decimals": 18
            }
        ]
    },
    "address_label": {
        "labels": [
            {
                "address": "0xaacfdf323b44d8b27319249ca3ee1b3aa05083b2",
                "label": "PalioAI Gen0: Whitelist Minter"
            },
            {
                "address": "0xb7e548c4f133adbb910914d7529d5cb00c2e9051",
                "label": "BasicERC721CWithBasicRoyalties"
            },
            {
                "address": "0x388c818ca8b9251b393131c08a736a67ccb19297",
                "label": "LidoExecutionLayerRewardsVault"
            },
            {
                "address": "0x9cbf164420286357b268674f6bf0fa29800d59ae",
                "label": "TokenGateway"
            },
            {
                "address": "0x0000000000000000000000000000000000000004",
                "label": "Precompiled"
            },
            {
                "address": "0x0000000000000000000000000000000000000003",
                "label": "Precompiled"
            },
            {
                "address": "0xeeeeeeeeeeeeeeeeeeeeeeeeeeeeeeeeeeeeeeee",
                "label": "Ether"
            },
            {
                "address": "0x0000000000000000000000000000000000000000",
                "label": "Null Address"
            },
            {
                "address": "0x7127f0feaef8143241a5fac62ac5b7be02ef26a9",
                "label": "TransparentUpgradeableProxy"
            },
            {
                "address": "0x0000000000000000000000000000000000000001",
                "label": "Precompiled"
            },
            {
                "address": "0x0000000000000000000000000000000000000002",
                "label": "Precompiled"
            }
        ]
    },
    "trace": {
        "accountLabels": null,
        "dataMap": {
            "-1": {
                "invocation": {
                    "address": "0x66a96c3af91551828a7b0508b844f07cfb6d4cf1",
                    "callData": "",
                    "decodedMethod": null,
                    "errorInfo": "",
                    "fromAddress": "",
                    "gasUsed": 0,
                    "id": -1,
                    "methodDecoded": false,
                    "operation": "",
                    "output": "",
                    "revert": false,
                    "revertMessage": "",
                    "selector": "",
                    "status": false,
                    "value": ""
                },
                "nodeType": 0
            },
            "0": {
                "invocation": {
                    "address": "0xaacfdf323b44d8b27319249ca3ee1b3aa05083b2",
                    "callData": "0x0000000000000000000000000000000000000000000000000000000000000001000000000000000000000000b7e548c4f133adbb910914d7529d5cb00c2e9051000000000000000000000000000000000000000000000000000000000000e5de0000000000000000000000000000000000000000000000000000000000000001000000000000000000000000660539a1ab24c281538a4d37000000000000e5de00000000000000000000000000000000000000000000000000000000000000010000000000000000000000000000000000000000000000000000000000000000000000000000000000000000000000000000000000000000000000000000000100000000000000000000000000000000000000000000000000000000000000000000000000000000000000000000000000000000000000000000000000000000000000000000000000000000fea6f9fc76bc180ebbbfff0abdf739ad7df67ff8000000000000000000000000000000000000000000000000000000006637867800000000000000000000000000000000000000000000000000000000000001a00000000000000000000000000000000000000000000000000000000000000041c323a40a31620805787aeb019858f9f4829d2210ec938f70fcca359521343ec30aed196f6a45af90bd6e6c53e12410ec2fa4f90449b16753c41bae85c8970ebd1c00000000000000000000000000000000000000000000000000000000000000",
                    "decodedMethod": {
                        "callParams": [
                            {
                                "name": "_tokenType",
                                "type": "bool",
                                "value": true
                            },
                            {
                                "name": "_tokenAddress",
                                "type": "address",
                                "value": "0xb7e548c4f133adbb910914d7529d5cb00c2e9051"
                            },
                            {
                                "name": "_tokenId",
                                "type": "uint256",
                                "value": "58,846"
                            },
                            {
                                "name": "_amount",
                                "type": "uint256",
                                "value": "1"
                            },
                            {
                                "name": "_limits",
                                "type": "uint256[4]",
                                "value": [
                                    "582,433,582,763,272,324,192,518,222,332,749,163,384,797,193,694",
                                    "1",
                                    "0",
                                    "1"
                                ]
                            },
                            {
                                "name": "_paymentTokenAddress",
                                "type": "address",
                                "value": "0x0000000000000000000000000000000000000000"
                            },
                            {
                                "name": "_paymentTokenAmount",
                                "type": "uint256",
                                "value": "0"
                            },
                            {
                                "name": "_payeeAddress",
                                "type": "address",
                                "value": "0xfea6f9fc76bc180ebbbfff0abdf739ad7df67ff8"
                            },
                            {
                                "name": "_deadline",
                                "type": "uint256",
                                "value": "1,714,914,936"
                            },
                            {
                                "name": "_sig",
                                "type": "bytes",
                                "value": "0xc323a40a31620805787aeb019858f9f4829d2210ec938f70fcca359521343ec30aed196f6a45af90bd6e6c53e12410ec2fa4f90449b16753c41bae85c8970ebd1c"
                            }
                        ],
                        "constructorArguments": "",
                        "name": "mintWithSig",
                        "returnParams": [],
                        "signature": "mintWithSig(bool,address,uint256,uint256,uint256[4],address,uint256,address,uint256,bytes)"
                    },
                    "errorInfo": "",
                    "fromAddress": "0x66a96c3af91551828a7b0508b844f07cfb6d4cf1",
                    "gasUsed": 163071,
                    "id": 0,
                    "methodDecoded": true,
                    "operation": "CALL",
                    "output": "",
                    "revert": false,
                    "revertMessage": "",
                    "selector": "0xac5288ad",
                    "status": true,
                    "value": "0"
                },
                "nodeType": 0
            },
            "1": {
                "invocation": {
                    "address": "0x7127f0feaef8143241a5fac62ac5b7be02ef26a9",
                    "callData": "0x000000000000000000000000b7e548c4f133adbb910914d7529d5cb00c2e9051",
                    "decodedMethod": {
                        "callParams": [
                            {
                                "name": "_tokenContract",
                                "type": "address",
                                "value": "0xb7e548c4f133adbb910914d7529d5cb00c2e9051"
                            }
                        ],
                        "constructorArguments": "",
                        "name": "nftManager",
                        "returnParams": [
                            {
                                "name": "",
                                "type": "address",
                                "value": "0x0abe40ab7054bf0d408d8ef545d8bd99e5df45c5"
                            }
                        ],
                        "signature": "nftManager(address)"
                    },
                    "errorInfo": "",
                    "fromAddress": "0xaacfdf323b44d8b27319249ca3ee1b3aa05083b2",
                    "gasUsed": 9808,
                    "id": 1,
                    "methodDecoded": true,
                    "operation": "STATICCALL",
                    "output": "0x0000000000000000000000000abe40ab7054bf0d408d8ef545d8bd99e5df45c5",
                    "revert": false,
                    "revertMessage": "",
                    "selector": "0x9cb9f9d3",
                    "status": true,
                    "value": "0"
                },
                "nodeType": 0
            },
            "10": {
                "event": {
                    "contract": "0xaacfdf323b44d8b27319249ca3ee1b3aa05083b2",
                    "decodedLog": {
                        "name": "Mint",
                        "params": [
                            {
                                "name": "recipient",
                                "type": "address",
                                "value": "0x66a96c3af91551828a7b0508b844f07cfb6d4cf1"
                            },
                            {
                                "name": "tokenAddress",
                                "type": "address",
                                "value": "0xb7e548c4f133adbb910914d7529d5cb00c2e9051"
                            },
                            {
                                "name": "tokenId",
                                "type": "uint256",
                                "value": "58,846"
                            },
                            {
                                "name": "amount",
                                "type": "uint256",
                                "value": "1"
                            },
                            {
                                "name": "paymentTokenAddress",
                                "type": "address",
                                "value": "0x0000000000000000000000000000000000000000"
                            },
                            {
                                "name": "paymentTokenAmount",
                                "type": "uint256",
                                "value": "0"
                            },
                            {
                                "name": "payee",
                                "type": "address",
                                "value": "0xfea6f9fc76bc180ebbbfff0abdf739ad7df67ff8"
                            }
                        ],
                        "signature": "Mint(address,address,uint256,uint256,address,uint256,address)"
                    },
                    "id": 10,
                    "logData": "0x000000000000000000000000000000000000000000000000000000000000000100000000000000000000000000000000000000000000000000000000000000000000000000000000000000000000000000000000000000000000000000000000000000000000000000000000fea6f9fc76bc180ebbbfff0abdf739ad7df67ff8",
                    "logDecoded": true,
                    "operation": "EVENT",
                    "revert": false,
                    "status": true,
                    "topics": [
                        "0x9458eeddaedbaa3c544375f79a44d8ce0bd00529626bc2af7b2fffbf5dcf0c3c",
                        "0x00000000000000000000000066a96c3af91551828a7b0508b844f07cfb6d4cf1",
                        "0x000000000000000000000000b7e548c4f133adbb910914d7529d5cb00c2e9051",
                        "0x000000000000000000000000000000000000000000000000000000000000e5de"
                    ]
                },
                "nodeType": 1
            },
            "2": {
                "invocation": {
                    "address": "0x9cbf164420286357b268674f6bf0fa29800d59ae",
                    "callData": "0x000000000000000000000000b7e548c4f133adbb910914d7529d5cb00c2e9051",
                    "decodedMethod": {
                        "callParams": [
                            {
                                "name": "_tokenContract",
                                "type": "address",
                                "value": "0xb7e548c4f133adbb910914d7529d5cb00c2e9051"
                            }
                        ],
                        "constructorArguments": "",
                        "name": "nftManager",
                        "returnParams": [
                            {
                                "name": "",
                                "type": "address",
                                "value": "0x0abe40ab7054bf0d408d8ef545d8bd99e5df45c5"
                            }
                        ],
                        "signature": "nftManager(address)"
                    },
                    "errorInfo": "",
                    "fromAddress": "0x7127f0feaef8143241a5fac62ac5b7be02ef26a9",
                    "gasUsed": 2648,
                    "id": 2,
                    "methodDecoded": true,
                    "operation": "DELEGATECALL",
                    "output": "0x0000000000000000000000000abe40ab7054bf0d408d8ef545d8bd99e5df45c5",
                    "revert": false,
                    "revertMessage": "",
                    "selector": "0x9cb9f9d3",
                    "status": true,
                    "value": "0"
                },
                "nodeType": 0
            },
            "3": {
                "invocation": {
                    "address": "0x0000000000000000000000000000000000000001",
                    "callData": "0x144da1690a00f81ce9d6764d2cbde635a6a7182684ad364a8f083369000000000000000000000000000000000000000000000000000000000000001cc323a40a31620805787aeb019858f9f4829d2210ec938f70fcca359521343ec30aed196f6a45af90bd6e6c53e12410ec2fa4f90449b16753c41bae85c8970ebd",
                    "decodedMethod": {
                        "callParams": [
                            {
                                "name": "hash",
                                "type": "bytes32",
                                "value": "0xc42536bb144da1690a00f81ce9d6764d2cbde635a6a7182684ad364a8f083369"
                            },
                            {
                                "name": "v",
                                "type": "uint256",
                                "value": "28"
                            },
                            {
                                "name": "r",
                                "type": "bytes32",
                                "value": "0xc323a40a31620805787aeb019858f9f4829d2210ec938f70fcca359521343ec3"
                            },
                            {
                                "name": "s",
                                "type": "bytes32",
                                "value": "0x0aed196f6a45af90bd6e6c53e12410ec2fa4f90449b16753c41bae85c8970ebd"
                            }
                        ],
                        "constructorArguments": "",
                        "name": "ecrecover",
                        "returnParams": [
                            {
                                "name": "",
                                "type": "address",
                                "value": "0x0abe40ab7054bf0d408d8ef545d8bd99e5df45c5"
                            }
                        ],
                        "signature": "ecrecover(bytes32,uint256,bytes32,bytes32)"
                    },
                    "errorInfo": "",
                    "fromAddress": "0xaacfdf323b44d8b27319249ca3ee1b3aa05083b2",
                    "gasUsed": 3000,
                    "id": 3,
                    "methodDecoded": true,
                    "operation": "STATICCALL",
                    "output": "0x0000000000000000000000000abe40ab7054bf0d408d8ef545d8bd99e5df45c5",
                    "revert": false,
                    "revertMessage": "",
                    "selector": "0xc42536bb",
                    "status": true,
                    "value": "0"
                },
                "nodeType": 0
            },
            "4": {
                "invocation": {
                    "address": "0xfea6f9fc76bc180ebbbfff0abdf739ad7df67ff8",
                    "callData": "0x",
                    "decodedMethod": null,
                    "errorInfo": "",
                    "fromAddress": "0xaacfdf323b44d8b27319249ca3ee1b3aa05083b2",
                    "gasUsed": 0,
                    "id": 4,
                    "methodDecoded": false,
                    "operation": "CALL",
                    "output": "",
                    "revert": false,
                    "revertMessage": "",
                    "selector": "fallback",
                    "status": true,
                    "value": "0"
                },
                "nodeType": 0
            },
            "5": {
                "invocation": {
                    "address": "0x7127f0feaef8143241a5fac62ac5b7be02ef26a9",
                    "callData": "0x000000000000000000000000b7e548c4f133adbb910914d7529d5cb00c2e905100000000000000000000000066a96c3af91551828a7b0508b844f07cfb6d4cf1000000000000000000000000000000000000000000000000000000000000e5de",
                    "decodedMethod": {
                        "callParams": [
                            {
                                "name": "_tokenContract",
                                "type": "address",
                                "value": "0xb7e548c4f133adbb910914d7529d5cb00c2e9051"
                            },
                            {
                                "name": "_recipient",
                                "type": "address",
                                "value": "0x66a96c3af91551828a7b0508b844f07cfb6d4cf1"
                            },
                            {
                                "name": "_tokenId",
                                "type": "uint256",
                                "value": "58,846"
                            }
                        ],
                        "constructorArguments": "",
                        "name": "ERC721_mint",
                        "returnParams": [],
                        "signature": "ERC721_mint(address,address,uint256)"
                    },
                    "errorInfo": "",
                    "fromAddress": "0xaacfdf323b44d8b27319249ca3ee1b3aa05083b2",
                    "gasUsed": 64965,
                    "id": 5,
                    "methodDecoded": true,
                    "operation": "CALL",
                    "output": "",
                    "revert": false,
                    "revertMessage": "",
                    "selector": "0xec1b14ab",
                    "status": true,
                    "value": "0"
                },
                "nodeType": 0
            },
            "6": {
                "invocation": {
                    "address": "0x9cbf164420286357b268674f6bf0fa29800d59ae",
                    "callData": "0x000000000000000000000000b7e548c4f133adbb910914d7529d5cb00c2e905100000000000000000000000066a96c3af91551828a7b0508b844f07cfb6d4cf1000000000000000000000000000000000000000000000000000000000000e5de",
                    "decodedMethod": {
                        "callParams": [
                            {
                                "name": "_tokenContract",
                                "type": "address",
                                "value": "0xb7e548c4f133adbb910914d7529d5cb00c2e9051"
                            },
                            {
                                "name": "_recipient",
                                "type": "address",
                                "value": "0x66a96c3af91551828a7b0508b844f07cfb6d4cf1"
                            },
                            {
                                "name": "_tokenId",
                                "type": "uint256",
                                "value": "58,846"
                            }
                        ],
                        "constructorArguments": "",
                        "name": "ERC721_mint",
                        "returnParams": [],
                        "signature": "ERC721_mint(address,address,uint256)"
                    },
                    "errorInfo": "",
                    "fromAddress": "0x7127f0feaef8143241a5fac62ac5b7be02ef26a9",
                    "gasUsed": 64299,
                    "id": 6,
                    "methodDecoded": true,
                    "operation": "DELEGATECALL",
                    "output": "",
                    "revert": false,
                    "revertMessage": "",
                    "selector": "0xec1b14ab",
                    "status": true,
                    "value": "0"
                },
                "nodeType": 0
            },
            "7": {
                "invocation": {
                    "address": "0xb7e548c4f133adbb910914d7529d5cb00c2e9051",
                    "callData": "0x",
                    "decodedMethod": {
                        "callParams": [],
                        "constructorArguments": "",
                        "name": "owner",
                        "returnParams": [
                            {
                                "name": "",
                                "type": "address",
                                "value": "0x3419467128a7f9b22e8e9f382178fcec451afc43"
                            }
                        ],
                        "signature": "owner()"
                    },
                    "errorInfo": "",
                    "fromAddress": "0x7127f0feaef8143241a5fac62ac5b7be02ef26a9",
                    "gasUsed": 2409,
                    "id": 7,
                    "methodDecoded": true,
                    "operation": "STATICCALL",
                    "output": "0x0000000000000000000000003419467128a7f9b22e8e9f382178fcec451afc43",
                    "revert": false,
                    "revertMessage": "",
                    "selector": "0x8da5cb5b",
                    "status": true,
                    "value": "0"
                },
                "nodeType": 0
            },
            "8": {
                "invocation": {
                    "address": "0xb7e548c4f133adbb910914d7529d5cb00c2e9051",
                    "callData": "0x00000000000000000000000066a96c3af91551828a7b0508b844f07cfb6d4cf1000000000000000000000000000000000000000000000000000000000000e5de",
                    "decodedMethod": {
                        "callParams": [
                            {
                                "name": "to",
                                "type": "address",
                                "value": "0x66a96c3af91551828a7b0508b844f07cfb6d4cf1"
                            },
                            {
                                "name": "tokenId",
                                "type": "uint256",
                                "value": "58,846"
                            }
                        ],
                        "constructorArguments": "",
                        "name": "mint",
                        "returnParams": [],
                        "signature": "mint(address,uint256)"
                    },
                    "errorInfo": "",
                    "fromAddress": "0x7127f0feaef8143241a5fac62ac5b7be02ef26a9",
                    "gasUsed": 53243,
                    "id": 8,
                    "methodDecoded": true,
                    "operation": "CALL",
                    "output": "",
                    "revert": false,
                    "revertMessage": "",
                    "selector": "0x40c10f19",
                    "status": true,
                    "value": "0"
                },
                "nodeType": 0
            },
            "9": {
                "event": {
                    "contract": "0xb7e548c4f133adbb910914d7529d5cb00c2e9051",
                    "decodedLog": {
                        "name": "Transfer",
                        "params": [
                            {
                                "name": "from",
                                "type": "address",
                                "value": "0x0000000000000000000000000000000000000000"
                            },
                            {
                                "name": "to",
                                "type": "address",
                                "value": "0x66a96c3af91551828a7b0508b844f07cfb6d4cf1"
                            },
                            {
                                "decimalAvailable": true,
                                "name": "tokenId",
                                "type": "uint256",
                                "value": "58,846"
                            }
                        ],
                        "signature": "Transfer(address,address,uint256)"
                    },
                    "id": 9,
                    "logData": "0x",
                    "logDecoded": true,
                    "operation": "EVENT",
                    "revert": false,
                    "status": true,
                    "topics": [
                        "0xddf252ad1be2c89b69c2b068fc378daa952ba7f163c4a11628f55a4df523b3ef",
                        "0x0000000000000000000000000000000000000000000000000000000000000000",
                        "0x00000000000000000000000066a96c3af91551828a7b0508b844f07cfb6d4cf1",
                        "0x000000000000000000000000000000000000000000000000000000000000e5de"
                    ]
                },
                "nodeType": 1
            }
        },
        "gasFlame": [
            {
                "children": [
                    {
                        "children": [
                            {
                                "children": [],
                                "depth": 0,
                                "name": "Initial Gas",
                                "value": 24824
                            },
                            {
                                "children": [
                                    {
                                        "children": [
                                            {
                                                "children": [],
                                                "depth": 2,
                                                "name": "nftManager",
                                                "value": 2648
                                            }
                                        ],
                                        "depth": 1,
                                        "name": "nftManager",
                                        "value": 9808
                                    },
                                    {
                                        "children": [],
                                        "depth": 1,
                                        "name": "ecrecover",
                                        "value": 3000
                                    },
                                    {
                                        "children": [],
                                        "depth": 1,
                                        "name": "fallback",
                                        "value": 0
                                    },
                                    {
                                        "children": [
                                            {
                                                "children": [
                                                    {
                                                        "children": [],
                                                        "depth": 3,
                                                        "name": "owner",
                                                        "value": 2409
                                                    },
                                                    {
                                                        "children": [],
                                                        "depth": 3,
                                                        "name": "mint",
                                                        "value": 53243
                                                    }
                                                ],
                                                "depth": 2,
                                                "name": "ERC721_mint",
                                                "value": 64299
                                            }
                                        ],
                                        "depth": 1,
                                        "name": "ERC721_mint",
                                        "value": 64965
                                    }
                                ],
                                "depth": 0,
                                "name": "Executed Gas",
                                "value": 138247
                            }
                        ],
                        "depth": -1,
                        "name": "Actual Gas Used",
                        "value": 163071
                    },
                    {
                        "children": [],
                        "depth": -1,
                        "name": "Refunded Gas",
                        "value": 0
                    }
                ],
                "depth": -2,
                "name": "Total Gas",
                "value": 163071
            }
        ],
        "isConfirmed": true,
        "mainTrace": [
            {
                "children": [
                    {
                        "children": [
                            {
                                "children": [
                                    {
                                        "children": [],
                                        "depth": 2,
                                        "id": 2,
                                        "order": 2
                                    }
                                ],
                                "depth": 1,
                                "id": 1,
                                "order": 1
                            },
                            {
                                "children": [],
                                "depth": 1,
                                "id": 3,
                                "order": 3
                            },
                            {
                                "children": [],
                                "depth": 1,
                                "id": 4,
                                "order": 4
                            },
                            {
                                "children": [
                                    {
                                        "children": [
                                            {
                                                "children": [],
                                                "depth": 3,
                                                "id": 7,
                                                "order": 7
                                            },
                                            {
                                                "children": [
                                                    {
                                                        "children": [],
                                                        "depth": 4,
                                                        "id": 9,
                                                        "order": 9
                                                    }
                                                ],
                                                "depth": 3,
                                                "id": 8,
                                                "order": 8
                                            }
                                        ],
                                        "depth": 2,
                                        "id": 6,
                                        "order": 6
                                    }
                                ],
                                "depth": 1,
                                "id": 5,
                                "order": 5
                            },
                            {
                                "children": [],
                                "depth": 1,
                                "id": 10,
                                "order": 10
                            }
                        ],
                        "depth": 0,
                        "id": 0,
                        "order": 0
                    }
                ],
                "depth": -1,
                "id": -1,
                "order": -1
            }
        ],
        "mainTraceNodeCount": 11,
        "parentIdMap": {
            "0": -1,
            "1": 0,
            "10": 0,
            "2": 1,
            "3": 0,
            "4": 0,
            "5": 0,
            "6": 5,
            "7": 6,
            "8": 6,
            "9": 8
        },
        "tidyTrace": [
            {
                "children": [
                    {
                        "children": [
                            {
                                "children": [],
                                "depth": 1,
                                "id": 4,
                                "order": 4
                            },
                            {
                                "children": [
                                    {
                                        "children": [
                                            {
                                                "children": [
                                                    {
                                                        "children": [],
                                                        "depth": 4,
                                                        "id": 9,
                                                        "order": 9
                                                    }
                                                ],
                                                "depth": 3,
                                                "id": 8,
                                                "order": 8
                                            }
                                        ],
                                        "depth": 2,
                                        "id": 6,
                                        "order": 6
                                    }
                                ],
                                "depth": 1,
                                "id": 5,
                                "order": 5
                            },
                            {
                                "children": [],
                                "depth": 1,
                                "id": 10,
                                "order": 10
                            }
                        ],
                        "depth": 0,
                        "id": 0,
                        "order": 0
                    }
                ],
                "depth": -1,
                "id": -1,
                "order": -1
            }
        ],
        "tidyTraceNodeCount": 7
    },
    "state_change": {
        "stateChanges": [
            {
                "address": "0xaacfdf323b44d8b27319249ca3ee1b3aa05083b2",
                "erc": "",
                "slots": [
                    {
                        "current": "0x0000000000000000000000000000000000000000000000000000000000000001",
                        "key": "0xec7c7c816766906738c6756106211a486628d51fc2336b6e83339c77224e3c09",
                        "prev": "0x0000000000000000000000000000000000000000000000000000000000000000"
                    },
                    {
                        "current": "0x0000000000000000000000000000000000000000000000000000000000000001",
                        "key": "0xdac04e83f8bc7d18e7952d9d4222ed5cad0bef4758f65afdfeea5039fdfa6404",
                        "prev": "0x0000000000000000000000000000000000000000000000000000000000000000"
                    }
                ],
                "storageVariables": [
                    {
                        "name": "mintedBuyerId",
                        "type": "mapping(address => mapping(uint256 => uint256))",
                        "value": {
                            "pairs": [
                                {
                                    "key": "0x66a96c3af91551828a7b0508b844f07cfb6d4cf1",
                                    "value": {
                                        "pairs": [
                                            {
                                                "key": "582433582763272324192518222332749163384797193694",
                                                "value": {
                                                    "current": "1",
                                                    "prev": "0",
                                                    "typeTag": 1
                                                }
                                            }
                                        ],
                                        "typeTag": 4
                                    }
                                }
                            ],
                            "typeTag": 4
                        }
                    },
                    {
                        "name": "mintedTokenId",
                        "type": "mapping(address => mapping(uint256 => mapping(uint256 => uint256)))",
                        "value": {
                            "pairs": [
                                {
                                    "key": "0xb7e548c4f133adbb910914d7529d5cb00c2e9051",
                                    "value": {
                                        "pairs": [
                                            {
                                                "key": "58846",
                                                "value": {
                                                    "pairs": [
                                                        {
                                                            "key": "0",
                                                            "value": {
                                                                "current": "1",
                                                                "prev": "0",
                                                                "typeTag": 1
                                                            }
                                                        }
                                                    ],
                                                    "typeTag": 4
                                                }
                                            }
                                        ],
                                        "typeTag": 4
                                    }
                                }
                            ],
                            "typeTag": 4
                        }
                    }
                ]
            },
            {
                "address": "0xb7e548c4f133adbb910914d7529d5cb00c2e9051",
                "erc": "ERC-721",
                "slots": [
                    {
                        "current": "0x0000000000000000000000000000000000000000000000000000000000000001",
                        "key": "0x873123faabc10d0f37d59c1fb4dbb7a8a28e8f384a2ef2365aae9288e18a73f7",
                        "prev": "0x0000000000000000000000000000000000000000000000000000000000000000"
                    },
                    {
                        "current": "0x00000000000000000000000066a96c3af91551828a7b0508b844f07cfb6d4cf1",
                        "key": "0xd5b5a401c1dd4c61508e261b9e8f9fe22257c4450e013ed34d499167aa32d397",
                        "prev": "0x0000000000000000000000000000000000000000000000000000000000000000"
                    }
                ],
                "storageVariables": [
                    {
                        "name": "_balances",
                        "type": "mapping(address => uint256)",
                        "value": {
                            "pairs": [
                                {
                                    "key": "0x66a96c3af91551828a7b0508b844f07cfb6d4cf1",
                                    "value": {
                                        "current": "1",
                                        "prev": "0",
                                        "typeTag": 1
                                    }
                                }
                            ],
                            "typeTag": 4
                        }
                    },
                    {
                        "name": "_owners",
                        "type": "mapping(uint256 => address)",
                        "value": {
                            "pairs": [
                                {
                                    "key": "58846",
                                    "value": {
                                        "current": "0x66a96c3af91551828a7b0508b844f07cfb6d4cf1",
                                        "prev": "0x0000000000000000000000000000000000000000",
                                        "typeTag": 1
                                    }
                                }
                            ],
                            "typeTag": 4
                        }
                    }
                ]
            }
        ]
    }
}