{
    "balance_change": {
        "balanceChanges": [
            {
                "account": "0x02066f691f91b70deea64845f8fa10ebe691c843",
                "assets": [
                    {
                        "address": "0x822f1a51e534723ec1305e6eb5c96aecfeb4c629",
                        "amount": "1,667",
                        "iconUrl": "",
                        "isERC1155": false,
                        "isERC721": false,
                        "sign": false,
                        "value": ""
                    }
                ]
            },
            {
                "account": "0x45e94a9bcd176390f48bd8449353a31db4b797dc",
                "assets": [
                    {
                        "address": "0x822f1a51e534723ec1305e6eb5c96aecfeb4c629",
                        "amount": "1,667",
                        "iconUrl": "",
                        "isERC1155": false,
                        "isERC721": false,
                        "sign": true,
                        "value": ""
                    }
                ]
            }
        ]
    },
    "profile": {
        "basic_info": {
            "baseFee": "14.357659708",
            "blockNumber": 16525045,
            "callData": "0xa9059cbb00000000000000000000000045e94a9bcd176390f48bd8449353a31db4b797dc00000000000000000000000000000000000000000000005a5e45b3db002c0000",
            "debugEnable": true,
            "errorInfo": "",
            "eventCount": 1,
            "feeRecipient": "0x690b9a9e9aa1c9db991c7721a92d351db4fac990",
            "formatValue": "0",
            "gasLimit": 81730,
            "gasPrice": "15.357659708",
            "gasUsed": 54487,
            "intTxnCount": 0,
            "internalRevert": false,
            "internalRevertMessage": "",
            "isContractCreation": false,
            "isFlashloan": false,
            "maxFee": "19.536904079",
            "nonce": 439,
            "overwritedBlockNumber": -1,
            "priorityFee": "1",
            "receiver": "0x822f1a51e534723ec1305e6eb5c96aecfeb4c629",
            "revertMessage": "",
            "sender": "0x02066f691f91b70deea64845f8fa10ebe691c843",
            "simulationEnable": true,
            "sourceTxnHash": "0xfb6edaa333235d165593ad86aad18fec0b0c4b4fec18c6ce49446e3d65831592",
            "status": true,
            "timestamp": "2023-01-31T06:34:11Z",
            "transactionFee": "0.000836792804509796",
            "txnHash": "0xfb6edaa333235d165593ad86aad18fec0b0c4b4fec18c6ce49446e3d65831592",
            "txnIndex": 81,
            "type": 2,
            "value": "0"
        },
        "fund_flow": [
            {
                "amount": "1,667",
                "from": "0x02066f691f91b70deea64845f8fa10ebe691c843",
                "id": 1,
                "isERC1155": false,
                "isERC721": false,
                "isReverted": false,
                "order": 1,
                "to": "0x45e94a9bcd176390f48bd8449353a31db4b797dc",
                "token": "0x822f1a51e534723ec1305e6eb5c96aecfeb4c629"
            }
        ],
        "token_infos": [
            {
                "address": "0x822f1a51e534723ec1305e6eb5c96aecfeb4c629",
                "decimals": 18
            },
            {
                "address": "0xc02aaa39b223fe8d0a0e5c4f27ead9083c756cc2",
                "decimals": 18
            },
            {
                "address": "0xeeeeeeeeeeeeeeeeeeeeeeeeeeeeeeeeeeeeeeee",
                "decimals": 18
            }
        ]
    },
    "address_label": {
        "labels": [
            {
                "address": "0xeeeeeeeeeeeeeeeeeeeeeeeeeeeeeeeeeeeeeeee",
                "label": "Ether"
            },
            {
                "address": "0x822f1a51e534723ec1305e6eb5c96aecfeb4c629",
                "label": "METAUS (MTU)"
            },
            {
                "address": "0x0000000000000000000000000000000000000001",
                "label": "Precompiled"
            },
            {
                "address": "0x0000000000000000000000000000000000000002",
                "label": "Precompiled"
            },
            {
                "address": "0x0000000000000000000000000000000000000003",
                "label": "Precompiled"
            },
            {
                "address": "0x0000000000000000000000000000000000000004",
                "label": "Precompiled"
            }
        ]
    },
    "trace": {
        "accountLabels": null,
        "dataMap": {
            "-1": {
                "invocation": {
                    "address": "0x02066f691f91b70deea64845f8fa10ebe691c843",
                    "callData": "",
                    "decodedMethod": null,
                    "errorInfo": "",
                    "fromAddress": "",
                    "gasUsed": 0,
                    "id": -1,
                    "methodDecoded": false,
                    "operation": "",
                    "output": "",
                    "revert": false,
                    "revertMessage": "",
                    "selector": "",
                    "status": false,
                    "value": ""
                },
                "nodeType": 0
            },
            "0": {
                "invocation": {
                    "address": "0x822f1a51e534723ec1305e6eb5c96aecfeb4c629",
                    "callData": "0x00000000000000000000000045e94a9bcd176390f48bd8449353a31db4b797dc00000000000000000000000000000000000000000000005a5e45b3db002c0000",
                    "decodedMethod": {
                        "callParams": [
                            {
                                "name": "to",
                                "type": "address",
                                "value": "0x45e94a9bcd176390f48bd8449353a31db4b797dc"
                            },
                            {
                                "decimalAvailable": true,
                                "name": "amount",
                                "type": "uint256",
                                "value": "1,667,000,000,000,000,000,000"
                            }
                        ],
                        "constructorArguments": "",
                        "name": "transfer",
                        "returnParams": [
                            {
                                "name": "",
                                "type": "bool",
                                "value": true
                            }
                        ],
                        "signature": "transfer(address,uint256)"
                    },
                    "errorInfo": "",
                    "fromAddress": "0x02066f691f91b70deea64845f8fa10ebe691c843",
                    "gasUsed": 54487,
                    "id": 0,
                    "methodDecoded": true,
                    "operation": "CALL",
                    "output": "0x0000000000000000000000000000000000000000000000000000000000000001",
                    "revert": false,
                    "revertMessage": "",
                    "selector": "0xa9059cbb",
                    "status": true,
                    "value": "0"
                },
                "nodeType": 0
            },
            "1": {
                "event": {
                    "contract": "0x822f1a51e534723ec1305e6eb5c96aecfeb4c629",
                    "decodedLog": {
                        "name": "Transfer",
                        "params": [
                            {
                                "name": "from",
                                "type": "address",
                                "value": "0x02066f691f91b70deea64845f8fa10ebe691c843"
                            },
                            {
                                "name": "to",
                                "type": "address",
                                "value": "0x45e94a9bcd176390f48bd8449353a31db4b797dc"
                            },
                            {
                                "decimalAvailable": true,
                                "name": "value",
                                "type": "uint256",
                                "value": "1,667,000,000,000,000,000,000"
                            }
                        ],
                        "signature": "Transfer(address,address,uint256)"
                    },
                    "id": 1,
                    "logData": "0x00000000000000000000000000000000000000000000005a5e45b3db002c0000",
                    "logDecoded": true,
                    "operation": "EVENT",
                    "revert": false,
                    "status": true,
                    "topics": [
                        "0xddf252ad1be2c89b69c2b068fc378daa952ba7f163c4a11628f55a4df523b3ef",
                        "0x00000000000000000000000002066f691f91b70deea64845f8fa10ebe691c843",
                        "0x00000000000000000000000045e94a9bcd176390f48bd8449353a31db4b797dc"
                    ]
                },
                "nodeType": 1
            }
        },
        "gasFlame": [
            {
                "children": [
                    {
                        "children": [
                            {
                                "children": [],
                                "depth": 0,
                                "name": "Initial Gas",
                                "value": 21632
                            },
                            {
                                "children": [],
                                "depth": 0,
                                "name": "Executed Gas",
                                "value": 32855
                            }
                        ],
                        "depth": -1,
                        "name": "Actual Gas Used",
                        "value": 54487
                    },
                    {
                        "children": [],
                        "depth": -1,
                        "name": "Refunded Gas",
                        "value": 0
                    }
                ],
                "depth": -2,
                "name": "Total Gas",
                "value": 54487
            }
        ],
        "isConfirmed": true,
        "mainTrace": [
            {
                "children": [
                    {
                        "children": [
                            {
                                "children": [],
                                "depth": 1,
                                "id": 1,
                                "order": 1
                            }
                        ],
                        "depth": 0,
                        "id": 0,
                        "order": 0
                    }
                ],
                "depth": -1,
                "id": -1,
                "order": -1
            }
        ],
        "mainTraceNodeCount": 2,
        "parentIdMap": {
            "0": -1,
            "1": 0
        },
        "tidyTrace": [
            {
                "children": [
                    {
                        "children": [
                            {
                                "children": [],
                                "depth": 1,
                                "id": 1,
                                "order": 1
                            }
                        ],
                        "depth": 0,
                        "id": 0,
                        "order": 0
                    }
                ],
                "depth": -1,
                "id": -1,
                "order": -1
            }
        ],
        "tidyTraceNodeCount": 2
    },
    "state_change": {
        "stateChanges": [
            {
                "address": "0x822f1a51e534723ec1305e6eb5c96aecfeb4c629",
                "erc": "ERC-20",
                "slots": [
                    {
                        "current": "0x0000000000000000000000000000000000000000000031a71e91f6d2c62ee000",
                        "key": "0x35bdb347f53d27cb4c89c0affaa301d7f11943c510eeeb16a3c07bd0968db263",
                        "prev": "0x0000000000000000000000000000000000000000000032017cd7aaadc65ae000"
                    },
                    {
                        "current": "0x00000000000000000000000000000000000000000000005a5e45b3db002c0000",
                        "key": "0x6b772ca40b0e95f0f38debc2bbd37466a34823e1c04283465fbdbd72d06dc6cc",
                        "prev": "0x0000000000000000000000000000000000000000000000000000000000000000"
                    }
                ],
                "storageVariables": [
                    {
                        "name": "_balances",
                        "type": "mapping(address => uint256)",
                        "value": {
                            "pairs": [
                                {
                                    "key": "0x02066f691f91b70deea64845f8fa10ebe691c843",
                                    "value": {
                                        "current": "234478766734000000000000",
                                        "prev": "236145766734000000000000",
                                        "typeTag": 1
                                    }
                                },
                                {
                                    "key": "0x45e94a9bcd176390f48bd8449353a31db4b797dc",
                                    "value": {
                                        "current": "1667000000000000000000",
                                        "prev": "0",
                                        "typeTag": 1
                                    }
                                }
                            ],
                            "typeTag": 4
                        }
                    }
                ]
            }
        ]
    }
}