{
    "balance_change": {
        "balanceChanges": [
            {
                "account": "0x9a75eabb817b9cbff16d84c18dbb2dadb18309c6",
                "assets": [
                    {
                        "address": "0xbc2faad1ec407571249b0e874a9abd840111389b",
                        "amount": "23.53067815",
                        "iconUrl": "",
                        "isERC1155": false,
                        "isERC721": false,
                        "sign": false,
                        "value": ""
                    }
                ]
            },
            {
                "account": "0x82f215858600b4ada551f46db0bd6a795c948353",
                "assets": [
                    {
                        "address": "0xbc2faad1ec407571249b0e874a9abd840111389b",
                        "amount": "23.53067815",
                        "iconUrl": "",
                        "isERC1155": false,
                        "isERC721": false,
                        "sign": true,
                        "value": ""
                    }
                ]
            }
        ]
    },
    "profile": {
        "basic_info": {
            "baseFee": "",
            "blockNumber": 8884857,
            "callData": "0xa9059cbb00000000000000000000000082f215858600b4ada551f46db0bd6a795c948353000000000000000000000000000000000000000000000000000000008c40f727",
            "debugEnable": true,
            "errorInfo": "",
            "eventCount": 1,
            "feeRecipient": "0x5a0b54d5dc17e0aadc383d2db43b0a0d3e029c4c",
            "formatValue": "0",
            "gasLimit": 100000,
            "gasPrice": "3",
            "gasUsed": 37395,
            "intTxnCount": 0,
            "internalRevert": false,
            "internalRevertMessage": "",
            "isContractCreation": false,
            "isFlashloan": false,
            "maxFee": "",
            "nonce": 115624,
            "overwritedBlockNumber": -1,
            "priorityFee": "",
            "receiver": "0xbc2faad1ec407571249b0e874a9abd840111389b",
            "revertMessage": "",
            "sender": "0x9a75eabb817b9cbff16d84c18dbb2dadb18309c6",
            "simulationEnable": true,
            "sourceTxnHash": "0xfd14ec9005e97acd170c299fa4556e6c5930f5dab8f4d741b4c17d46b64dade6",
            "status": true,
            "timestamp": "2019-11-06T16:25:14Z",
            "transactionFee": "0.000112185",
            "txnHash": "0xfd14ec9005e97acd170c299fa4556e6c5930f5dab8f4d741b4c17d46b64dade6",
            "txnIndex": 100,
            "type": 0,
            "value": "0"
        },
        "fund_flow": [
            {
                "amount": "23.53067815",
                "from": "0x9a75eabb817b9cbff16d84c18dbb2dadb18309c6",
                "id": 1,
                "isERC1155": false,
                "isERC721": false,
                "isReverted": false,
                "order": 1,
                "to": "0x82f215858600b4ada551f46db0bd6a795c948353",
                "token": "0xbc2faad1ec407571249b0e874a9abd840111389b"
            }
        ],
        "token_infos": [
            {
                "address": "0xbc2faad1ec407571249b0e874a9abd840111389b",
                "decimals": 8
            },
            {
                "address": "0xc02aaa39b223fe8d0a0e5c4f27ead9083c756cc2",
                "decimals": 18
            },
            {
                "address": "0xeeeeeeeeeeeeeeeeeeeeeeeeeeeeeeeeeeeeeeee",
                "decimals": 18
            }
        ]
    },
    "address_label": {
        "labels": [
            {
                "address": "0x0000000000000000000000000000000000000002",
                "label": "Precompiled"
            },
            {
                "address": "0x0000000000000000000000000000000000000003",
                "label": "Precompiled"
            },
            {
                "address": "0x0000000000000000000000000000000000000004",
                "label": "Precompiled"
            },
            {
                "address": "0xeeeeeeeeeeeeeeeeeeeeeeeeeeeeeeeeeeeeeeee",
                "label": "Ether"
            },
            {
                "address": "0xbc2faad1ec407571249b0e874a9abd840111389b",
                "label": "BFX"
            },
            {
                "address": "0x0000000000000000000000000000000000000001",
                "label": "Precompiled"
            }
        ]
    },
    "trace": {
        "accountLabels": null,
        "dataMap": {
            "-1": {
                "invocation": {
                    "address": "0x9a75eabb817b9cbff16d84c18dbb2dadb18309c6",
                    "callData": "",
                    "decodedMethod": null,
                    "errorInfo": "",
                    "fromAddress": "",
                    "gasUsed": 0,
                    "id": -1,
                    "methodDecoded": false,
                    "operation": "",
                    "output": "",
                    "revert": false,
                    "revertMessage": "",
                    "selector": "",
                    "status": false,
                    "value": ""
                },
                "nodeType": 0
            },
            "0": {
                "invocation": {
                    "address": "0xbc2faad1ec407571249b0e874a9abd840111389b",
                    "callData": "0x00000000000000000000000082f215858600b4ada551f46db0bd6a795c948353000000000000000000000000000000000000000000000000000000008c40f727",
                    "decodedMethod": {
                        "callParams": [
                            {
                                "name": "_to",
                                "type": "address",
                                "value": "0x82f215858600b4ada551f46db0bd6a795c948353"
                            },
                            {
                                "decimalAvailable": true,
                                "name": "_value",
                                "type": "uint256",
                                "value": "2,353,067,815"
                            }
                        ],
                        "constructorArguments": "",
                        "name": "transfer",
                        "returnParams": [
                            {
                                "name": "success",
                                "type": "bool",
                                "value": true
                            }
                        ],
                        "signature": "transfer(address,uint256)"
                    },
                    "errorInfo": "",
                    "fromAddress": "0x9a75eabb817b9cbff16d84c18dbb2dadb18309c6",
                    "gasUsed": 37395,
                    "id": 0,
                    "methodDecoded": true,
                    "operation": "CALL",
                    "output": "0x0000000000000000000000000000000000000000000000000000000000000001",
                    "revert": false,
                    "revertMessage": "",
                    "selector": "0xa9059cbb",
                    "status": true,
                    "value": "0"
                },
                "nodeType": 0
            },
            "1": {
                "event": {
                    "contract": "0xbc2faad1ec407571249b0e874a9abd840111389b",
                    "decodedLog": {
                        "name": "Transfer",
                        "params": [
                            {
                                "name": "_from",
                                "type": "address",
                                "value": "0x9a75eabb817b9cbff16d84c18dbb2dadb18309c6"
                            },
                            {
                                "name": "_to",
                                "type": "address",
                                "value": "0x82f215858600b4ada551f46db0bd6a795c948353"
                            },
                            {
                                "decimalAvailable": true,
                                "name": "_value",
                                "type": "uint256",
                                "value": "2,353,067,815"
                            }
                        ],
                        "signature": "Transfer(address,address,uint256)"
                    },
                    "id": 1,
                    "logData": "0x000000000000000000000000000000000000000000000000000000008c40f727",
                    "logDecoded": true,
                    "operation": "EVENT",
                    "revert": false,
                    "status": true,
                    "topics": [
                        "0xddf252ad1be2c89b69c2b068fc378daa952ba7f163c4a11628f55a4df523b3ef",
                        "0x0000000000000000000000009a75eabb817b9cbff16d84c18dbb2dadb18309c6",
                        "0x00000000000000000000000082f215858600b4ada551f46db0bd6a795c948353"
                    ]
                },
                "nodeType": 1
            }
        },
        "gasFlame": [
            {
                "children": [
                    {
                        "children": [
                            {
                                "children": [],
                                "depth": 0,
                                "name": "Initial Gas",
                                "value": 23000
                            },
                            {
                                "children": [],
                                "depth": 0,
                                "name": "Executed Gas",
                                "value": 14395
                            }
                        ],
                        "depth": -1,
                        "name": "Actual Gas Used",
                        "value": 37395
                    },
                    {
                        "children": [],
                        "depth": -1,
                        "name": "Refunded Gas",
                        "value": 0
                    }
                ],
                "depth": -2,
                "name": "Total Gas",
                "value": 37395
            }
        ],
        "isConfirmed": true,
        "mainTrace": [
            {
                "children": [
                    {
                        "children": [
                            {
                                "children": [],
                                "depth": 1,
                                "id": 1,
                                "order": 1
                            }
                        ],
                        "depth": 0,
                        "id": 0,
                        "order": 0
                    }
                ],
                "depth": -1,
                "id": -1,
                "order": -1
            }
        ],
        "mainTraceNodeCount": 2,
        "parentIdMap": {
            "0": -1,
            "1": 0
        },
        "tidyTrace": [
            {
                "children": [
                    {
                        "children": [
                            {
                                "children": [],
                                "depth": 1,
                                "id": 1,
                                "order": 1
                            }
                        ],
                        "depth": 0,
                        "id": 0,
                        "order": 0
                    }
                ],
                "depth": -1,
                "id": -1,
                "order": -1
            }
        ],
        "tidyTraceNodeCount": 2
    },
    "state_change": {
        "stateChanges": [
            {
                "address": "0xbc2faad1ec407571249b0e874a9abd840111389b",
                "erc": "ERC-20",
                "slots": [
                    {
                        "current": "0x0000000000000000000000000000000000000000000000000000932f4b3ebb6b",
                        "key": "0xf31b6963c87947f27e83f4c2a929424b71d6c58e912b93d504a6d09dbb45a64d",
                        "prev": "0x0000000000000000000000000000000000000000000000000000932fd77fb292"
                    },
                    {
                        "current": "0x0000000000000000000000000000000000000000000000000000002cdb386569",
                        "key": "0x995e0315de9ccca1c6e0e4786948964e1ad6238157da2751875b01282bde8fd7",
                        "prev": "0x0000000000000000000000000000000000000000000000000000002c4ef76e42"
                    }
                ],
                "storageVariables": [
                    {
                        "name": "balanceOf",
                        "type": "mapping(address => uint256)",
                        "value": {
                            "pairs": [
                                {
                                    "key": "0x82f215858600b4ada551f46db0bd6a795c948353",
                                    "value": {
                                        "current": "192656467305",
                                        "prev": "190303399490",
                                        "typeTag": 1
                                    }
                                },
                                {
                                    "key": "0x9a75eabb817b9cbff16d84c18dbb2dadb18309c6",
                                    "value": {
                                        "current": "161831335148395",
                                        "prev": "161833688216210",
                                        "typeTag": 1
                                    }
                                }
                            ],
                            "typeTag": 4
                        }
                    }
                ]
            }
        ]
    }
}