{
    "balance_change": {
        "balanceChanges": []
    },
    "profile": {
        "basic_info": {
            "baseFee": "5.209390208",
            "blockNumber": 20527671,
            "callData": "0x8f111f3c0000000000000000000000000000000000000000000000000000000000000bc200000000000000000000000000000000000000000000000000000000000000c0000000000000000000000000000000000000000000000000000000000000003000000000000000000000000000000000000000000000000000000000000000000000000000000000000000000000000000000000000000000000000000040758000000000000000000000000000000000000000000000000000000000004079300000000000000000000000000000000000000000000000000000000000000b288c2c008db9d0d25ca30d60080f5ebd3d114dbccd95f2bd2df05446eae6b1acadf4505e6b9ea472e86fbe0b4e12c2dc36e0da95fc2461184e55f9c63e3fef3e2730000000066d08f1b01000000000000000107764e4ad93d8f807cbac2896b87dfa7de0b2185adeb9d1b25bf26896fb3ef644796b138c392a0fad00c0121300afaec0f93b13fd6a54e5b7ba1272d16ddd553bd9967c6bf29f03a05c4c001cee69cf2e67d126138dcfd9b50deccaa07f0448e0000000000000000000000000000",
            "debugEnable": true,
            "errorInfo": "",
            "eventCount": 1,
            "feeRecipient": "0x1f9090aae28b8a3dceadf281b0f12828e676c326",
            "formatValue": "0",
            "gasLimit": 157245,
            "gasPrice": "5.210390208",
            "gasUsed": 106569,
            "intTxnCount": 5,
            "internalRevert": false,
            "internalRevertMessage": "",
            "isContractCreation": false,
            "isFlashloan": false,
            "maxFee": "52.96310605",
            "nonce": 3010,
            "overwritedBlockNumber": -1,
            "priorityFee": "0.001",
            "receiver": "0x8d99372612e8cfe7163b1a453831bc40eaeb3cf3",
            "revertMessage": "",
            "sender": "0xba369bd77a346babcd282cb1a015194e8ec54542",
            "simulationEnable": true,
            "sourceTxnHash": "0xfd2c33e76fc7507ea00c44f0913f4a1acd241be64653f730630402383c7a3538",
            "status": true,
            "timestamp": "2024-08-14T15:09:23Z",
            "transactionFee": "0.000555266074076352",
            "txnHash": "0xfd2c33e76fc7507ea00c44f0913f4a1acd241be64653f730630402383c7a3538",
            "txnIndex": 116,
            "type": 2,
            "value": "0"
        },
        "fund_flow": [],
        "token_infos": [
            {
                "address": "0xc02aaa39b223fe8d0a0e5c4f27ead9083c756cc2",
                "decimals": 18
            },
            {
                "address": "0xeeeeeeeeeeeeeeeeeeeeeeeeeeeeeeeeeeeeeeee",
                "decimals": 18
            }
        ]
    },
    "address_label": {
        "labels": [
            {
                "address": "0xeeeeeeeeeeeeeeeeeeeeeeeeeeeeeeeeeeeeeeee",
                "label": "Ether"
            },
            {
                "address": "0x8d99372612e8cfe7163b1a453831bc40eaeb3cf3",
                "label": "0x8d99_TransparentUpgradeableProxy"
            },
            {
                "address": "0x7983403dda368aa7d67145a9b81c5c517f364c42",
                "label": "0x7983_TransparentUpgradeableProxy"
            },
            {
                "address": "0x0000000000000000000000000000000000000003",
                "label": "Precompiled"
            },
            {
                "address": "0x0000000000000000000000000000000000000004",
                "label": "Precompiled"
            },
            {
                "address": "0x0000000000000000000000000000000000000000",
                "label": "Null Address"
            },
            {
                "address": "0x383f16fb2809a56fc639c1ee2c93ad2aa7ee130a",
                "label": "SequencerInbox"
            },
            {
                "address": "0x7efcb76d0e2e776a298aaa603d433336e5f8b6ab",
                "label": "ERC20Bridge"
            },
            {
                "address": "0x0000000000000000000000000000000000000001",
                "label": "Precompiled"
            },
            {
                "address": "0x0000000000000000000000000000000000000002",
                "label": "Precompiled"
            }
        ]
    },
    "trace": {
        "accountLabels": null,
        "dataMap": {
            "-1": {
                "invocation": {
                    "address": "0xba369bd77a346babcd282cb1a015194e8ec54542",
                    "callData": "",
                    "decodedMethod": null,
                    "errorInfo": "",
                    "fromAddress": "",
                    "gasUsed": 0,
                    "id": -1,
                    "methodDecoded": false,
                    "operation": "",
                    "output": "",
                    "revert": false,
                    "revertMessage": "",
                    "selector": "",
                    "status": false,
                    "value": ""
                },
                "nodeType": 0
            },
            "0": {
                "invocation": {
                    "address": "0x8d99372612e8cfe7163b1a453831bc40eaeb3cf3",
                    "callData": "0x0000000000000000000000000000000000000000000000000000000000000bc200000000000000000000000000000000000000000000000000000000000000c0000000000000000000000000000000000000000000000000000000000000003000000000000000000000000000000000000000000000000000000000000000000000000000000000000000000000000000000000000000000000000000040758000000000000000000000000000000000000000000000000000000000004079300000000000000000000000000000000000000000000000000000000000000b288c2c008db9d0d25ca30d60080f5ebd3d114dbccd95f2bd2df05446eae6b1acadf4505e6b9ea472e86fbe0b4e12c2dc36e0da95fc2461184e55f9c63e3fef3e2730000000066d08f1b01000000000000000107764e4ad93d8f807cbac2896b87dfa7de0b2185adeb9d1b25bf26896fb3ef644796b138c392a0fad00c0121300afaec0f93b13fd6a54e5b7ba1272d16ddd553bd9967c6bf29f03a05c4c001cee69cf2e67d126138dcfd9b50deccaa07f0448e0000000000000000000000000000",
                    "decodedMethod": {
                        "callParams": [
                            {
                                "name": "sequenceNumber",
                                "type": "uint256",
                                "value": "3,010"
                            },
                            {
                                "name": "data",
                                "type": "bytes",
                                "value": "0x88c2c008db9d0d25ca30d60080f5ebd3d114dbccd95f2bd2df05446eae6b1acadf4505e6b9ea472e86fbe0b4e12c2dc36e0da95fc2461184e55f9c63e3fef3e2730000000066d08f1b01000000000000000107764e4ad93d8f807cbac2896b87dfa7de0b2185adeb9d1b25bf26896fb3ef644796b138c392a0fad00c0121300afaec0f93b13fd6a54e5b7ba1272d16ddd553bd9967c6bf29f03a05c4c001cee69cf2e67d126138dcfd9b50deccaa07f0448e"
                            },
                            {
                                "name": "afterDelayedMessagesRead",
                                "type": "uint256",
                                "value": "48"
                            },
                            {
                                "name": "gasRefunder",
                                "type": "address",
                                "value": "0x0000000000000000000000000000000000000000"
                            },
                            {
                                "name": "prevMessageCount",
                                "type": "uint256",
                                "value": "264,024"
                            },
                            {
                                "name": "newMessageCount",
                                "type": "uint256",
                                "value": "264,083"
                            }
                        ],
                        "constructorArguments": "",
                        "name": "addSequencerL2BatchFromOrigin",
                        "returnParams": [],
                        "signature": "addSequencerL2BatchFromOrigin(uint256,bytes,uint256,address,uint256,uint256)"
                    },
                    "errorInfo": "",
                    "fromAddress": "0xba369bd77a346babcd282cb1a015194e8ec54542",
                    "gasUsed": 106569,
                    "id": 0,
                    "methodDecoded": true,
                    "operation": "CALL",
                    "output": "",
                    "revert": false,
                    "revertMessage": "",
                    "selector": "0x8f111f3c",
                    "status": true,
                    "value": "0"
                },
                "nodeType": 0
            },
            "1": {
                "invocation": {
                    "address": "0x383f16fb2809a56fc639c1ee2c93ad2aa7ee130a",
                    "callData": "0x0000000000000000000000000000000000000000000000000000000000000bc200000000000000000000000000000000000000000000000000000000000000c0000000000000000000000000000000000000000000000000000000000000003000000000000000000000000000000000000000000000000000000000000000000000000000000000000000000000000000000000000000000000000000040758000000000000000000000000000000000000000000000000000000000004079300000000000000000000000000000000000000000000000000000000000000b288c2c008db9d0d25ca30d60080f5ebd3d114dbccd95f2bd2df05446eae6b1acadf4505e6b9ea472e86fbe0b4e12c2dc36e0da95fc2461184e55f9c63e3fef3e2730000000066d08f1b01000000000000000107764e4ad93d8f807cbac2896b87dfa7de0b2185adeb9d1b25bf26896fb3ef644796b138c392a0fad00c0121300afaec0f93b13fd6a54e5b7ba1272d16ddd553bd9967c6bf29f03a05c4c001cee69cf2e67d126138dcfd9b50deccaa07f0448e0000000000000000000000000000",
                    "decodedMethod": {
                        "callParams": [
                            {
                                "name": "sequenceNumber",
                                "type": "uint256",
                                "value": "3,010"
                            },
                            {
                                "name": "data",
                                "type": "bytes",
                                "value": "0x88c2c008db9d0d25ca30d60080f5ebd3d114dbccd95f2bd2df05446eae6b1acadf4505e6b9ea472e86fbe0b4e12c2dc36e0da95fc2461184e55f9c63e3fef3e2730000000066d08f1b01000000000000000107764e4ad93d8f807cbac2896b87dfa7de0b2185adeb9d1b25bf26896fb3ef644796b138c392a0fad00c0121300afaec0f93b13fd6a54e5b7ba1272d16ddd553bd9967c6bf29f03a05c4c001cee69cf2e67d126138dcfd9b50deccaa07f0448e"
                            },
                            {
                                "name": "afterDelayedMessagesRead",
                                "type": "uint256",
                                "value": "48"
                            },
                            {
                                "name": "gasRefunder",
                                "type": "address",
                                "value": "0x0000000000000000000000000000000000000000"
                            },
                            {
                                "name": "prevMessageCount",
                                "type": "uint256",
                                "value": "264,024"
                            },
                            {
                                "name": "newMessageCount",
                                "type": "uint256",
                                "value": "264,083"
                            }
                        ],
                        "constructorArguments": "",
                        "name": "addSequencerL2BatchFromOrigin",
                        "returnParams": [],
                        "signature": "addSequencerL2BatchFromOrigin(uint256,bytes,uint256,address,uint256,uint256)"
                    },
                    "errorInfo": "",
                    "fromAddress": "0x8d99372612e8cfe7163b1a453831bc40eaeb3cf3",
                    "gasUsed": 45032,
                    "id": 1,
                    "methodDecoded": true,
                    "operation": "DELEGATECALL",
                    "output": "",
                    "revert": false,
                    "revertMessage": "",
                    "selector": "0x8f111f3c",
                    "status": true,
                    "value": "0"
                },
                "nodeType": 0
            },
            "2": {
                "invocation": {
                    "address": "0x7983403dda368aa7d67145a9b81c5c517f364c42",
                    "callData": "0x",
                    "decodedMethod": {
                        "callParams": [],
                        "constructorArguments": "",
                        "name": "delayedMessageCount",
                        "returnParams": [
                            {
                                "name": "",
                                "type": "uint256",
                                "value": "48"
                            }
                        ],
                        "signature": "delayedMessageCount()"
                    },
                    "errorInfo": "",
                    "fromAddress": "0x8d99372612e8cfe7163b1a453831bc40eaeb3cf3",
                    "gasUsed": 3685,
                    "id": 2,
                    "methodDecoded": true,
                    "operation": "STATICCALL",
                    "output": "0x0000000000000000000000000000000000000000000000000000000000000030",
                    "revert": false,
                    "revertMessage": "",
                    "selector": "0xeca067ad",
                    "status": true,
                    "value": "0"
                },
                "nodeType": 0
            },
            "3": {
                "invocation": {
                    "address": "0x7efcb76d0e2e776a298aaa603d433336e5f8b6ab",
                    "callData": "0x",
                    "decodedMethod": {
                        "callParams": [],
                        "constructorArguments": "",
                        "name": "delayedMessageCount",
                        "returnParams": [
                            {
                                "name": "",
                                "type": "uint256",
                                "value": "48"
                            }
                        ],
                        "signature": "delayedMessageCount()"
                    },
                    "errorInfo": "",
                    "fromAddress": "0x7983403dda368aa7d67145a9b81c5c517f364c42",
                    "gasUsed": 369,
                    "id": 3,
                    "methodDecoded": true,
                    "operation": "DELEGATECALL",
                    "output": "0x0000000000000000000000000000000000000000000000000000000000000030",
                    "revert": false,
                    "revertMessage": "",
                    "selector": "0xeca067ad",
                    "status": true,
                    "value": "0"
                },
                "nodeType": 0
            },
            "4": {
                "invocation": {
                    "address": "0x7983403dda368aa7d67145a9b81c5c517f364c42",
                    "callData": "0x7ceb324b4e86c04cebb9d9c76466b1a093affd7589f0cdae229571c276a753d3000000000000000000000000000000000000000000000000000000000000003000000000000000000000000000000000000000000000000000000000000407580000000000000000000000000000000000000000000000000000000000040793",
                    "decodedMethod": {
                        "callParams": [
                            {
                                "name": "dataHash",
                                "type": "bytes32",
                                "value": "0x7ceb324b4e86c04cebb9d9c76466b1a093affd7589f0cdae229571c276a753d3"
                            },
                            {
                                "name": "afterDelayedMessagesRead",
                                "type": "uint256",
                                "value": "48"
                            },
                            {
                                "name": "prevMessageCount",
                                "type": "uint256",
                                "value": "264,024"
                            },
                            {
                                "name": "newMessageCount",
                                "type": "uint256",
                                "value": "264,083"
                            }
                        ],
                        "constructorArguments": "",
                        "name": "enqueueSequencerMessage",
                        "returnParams": [
                            {
                                "name": "seqMessageIndex",
                                "type": "uint256",
                                "value": "3,010"
                            },
                            {
                                "name": "beforeAcc",
                                "type": "bytes32",
                                "value": "0x309bb444ff453f14526dc5eb3b5cdc01a1d003ffaca459b58e62f331780dffda"
                            },
                            {
                                "name": "delayedAcc",
                                "type": "bytes32",
                                "value": "0x4fbd404ef6dc17c4957f616b881bbc662f95da2aca842406c2f6800cdd5e8cc2"
                            },
                            {
                                "name": "acc",
                                "type": "bytes32",
                                "value": "0x940554ab1b000101654df9ef47c26c82daef59c6ae2742d289a73c85353d586a"
                            }
                        ],
                        "signature": "enqueueSequencerMessage(bytes32,uint256,uint256,uint256)"
                    },
                    "errorInfo": "",
                    "fromAddress": "0x8d99372612e8cfe7163b1a453831bc40eaeb3cf3",
                    "gasUsed": 28798,
                    "id": 4,
                    "methodDecoded": true,
                    "operation": "CALL",
                    "output": "0x0000000000000000000000000000000000000000000000000000000000000bc2309bb444ff453f14526dc5eb3b5cdc01a1d003ffaca459b58e62f331780dffda4fbd404ef6dc17c4957f616b881bbc662f95da2aca842406c2f6800cdd5e8cc2940554ab1b000101654df9ef47c26c82daef59c6ae2742d289a73c85353d586a",
                    "revert": false,
                    "revertMessage": "",
                    "selector": "0x86598a56",
                    "status": true,
                    "value": "0"
                },
                "nodeType": 0
            },
            "5": {
                "invocation": {
                    "address": "0x7efcb76d0e2e776a298aaa603d433336e5f8b6ab",
                    "callData": "0x7ceb324b4e86c04cebb9d9c76466b1a093affd7589f0cdae229571c276a753d3000000000000000000000000000000000000000000000000000000000000003000000000000000000000000000000000000000000000000000000000000407580000000000000000000000000000000000000000000000000000000000040793",
                    "decodedMethod": {
                        "callParams": [
                            {
                                "name": "dataHash",
                                "type": "bytes32",
                                "value": "0x7ceb324b4e86c04cebb9d9c76466b1a093affd7589f0cdae229571c276a753d3"
                            },
                            {
                                "name": "afterDelayedMessagesRead",
                                "type": "uint256",
                                "value": "48"
                            },
                            {
                                "name": "prevMessageCount",
                                "type": "uint256",
                                "value": "264,024"
                            },
                            {
                                "name": "newMessageCount",
                                "type": "uint256",
                                "value": "264,083"
                            }
                        ],
                        "constructorArguments": "",
                        "name": "enqueueSequencerMessage",
                        "returnParams": [
                            {
                                "name": "seqMessageIndex",
                                "type": "uint256",
                                "value": "3,010"
                            },
                            {
                                "name": "beforeAcc",
                                "type": "bytes32",
                                "value": "0x309bb444ff453f14526dc5eb3b5cdc01a1d003ffaca459b58e62f331780dffda"
                            },
                            {
                                "name": "delayedAcc",
                                "type": "bytes32",
                                "value": "0x4fbd404ef6dc17c4957f616b881bbc662f95da2aca842406c2f6800cdd5e8cc2"
                            },
                            {
                                "name": "acc",
                                "type": "bytes32",
                                "value": "0x940554ab1b000101654df9ef47c26c82daef59c6ae2742d289a73c85353d586a"
                            }
                        ],
                        "signature": "enqueueSequencerMessage(bytes32,uint256,uint256,uint256)"
                    },
                    "errorInfo": "",
                    "fromAddress": "0x7983403dda368aa7d67145a9b81c5c517f364c42",
                    "gasUsed": 27955,
                    "id": 5,
                    "methodDecoded": true,
                    "operation": "DELEGATECALL",
                    "output": "0x0000000000000000000000000000000000000000000000000000000000000bc2309bb444ff453f14526dc5eb3b5cdc01a1d003ffaca459b58e62f331780dffda4fbd404ef6dc17c4957f616b881bbc662f95da2aca842406c2f6800cdd5e8cc2940554ab1b000101654df9ef47c26c82daef59c6ae2742d289a73c85353d586a",
                    "revert": false,
                    "revertMessage": "",
                    "selector": "0x86598a56",
                    "status": true,
                    "value": "0"
                },
                "nodeType": 0
            },
            "6": {
                "event": {
                    "contract": "0x8d99372612e8cfe7163b1a453831bc40eaeb3cf3",
                    "decodedLog": {
                        "name": "SequencerBatchDelivered",
                        "params": [
                            {
                                "name": "batchSequenceNumber",
                                "type": "uint256",
                                "value": "3,010"
                            },
                            {
                                "name": "beforeAcc",
                                "type": "bytes32",
                                "value": "0x309bb444ff453f14526dc5eb3b5cdc01a1d003ffaca459b58e62f331780dffda"
                            },
                            {
                                "name": "afterAcc",
                                "type": "bytes32",
                                "value": "0x940554ab1b000101654df9ef47c26c82daef59c6ae2742d289a73c85353d586a"
                            },
                            {
                                "name": "delayedAcc",
                                "type": "bytes32",
                                "value": "0x4fbd404ef6dc17c4957f616b881bbc662f95da2aca842406c2f6800cdd5e8cc2"
                            },
                            {
                                "name": "afterDelayedMessagesRead",
                                "type": "uint256",
                                "value": "48"
                            },
                            {
                                "name": "timeBounds",
                                "type": "(uint64,uint64,uint64,uint64)",
                                "value": [
                                    {
                                        "name": "minTimestamp",
                                        "type": "uint64",
                                        "value": "1,637,248,163"
                                    },
                                    {
                                        "name": "maxTimestamp",
                                        "type": "uint64",
                                        "value": "1,723,651,763"
                                    },
                                    {
                                        "name": "minBlockNumber",
                                        "type": "uint64",
                                        "value": "17,071,671"
                                    },
                                    {
                                        "name": "maxBlockNumber",
                                        "type": "uint64",
                                        "value": "20,527,719"
                                    }
                                ]
                            },
                            {
                                "name": "dataLocation",
                                "type": "uint8",
                                "value": "0"
                            }
                        ],
                        "signature": "SequencerBatchDelivered(uint256,bytes32,bytes32,bytes32,uint256,(uint64,uint64,uint64,uint64),uint8)"
                    },
                    "id": 6,
                    "logData": "0x4fbd404ef6dc17c4957f616b881bbc662f95da2aca842406c2f6800cdd5e8cc200000000000000000000000000000000000000000000000000000000000000300000000000000000000000000000000000000000000000000000000061966ca30000000000000000000000000000000000000000000000000000000066bcd6b30000000000000000000000000000000000000000000000000000000001047e370000000000000000000000000000000000000000000000000000000001393a670000000000000000000000000000000000000000000000000000000000000000",
                    "logDecoded": true,
                    "operation": "EVENT",
                    "revert": false,
                    "status": true,
                    "topics": [
                        "0x7394f4a19a13c7b92b5bb71033245305946ef78452f7b4986ac1390b5df4ebd7",
                        "0x0000000000000000000000000000000000000000000000000000000000000bc2",
                        "0x309bb444ff453f14526dc5eb3b5cdc01a1d003ffaca459b58e62f331780dffda",
                        "0x940554ab1b000101654df9ef47c26c82daef59c6ae2742d289a73c85353d586a"
                    ]
                },
                "nodeType": 1
            }
        },
        "gasFlame": [
            {
                "children": [
                    {
                        "children": [
                            {
                                "children": [],
                                "depth": 0,
                                "name": "Initial Gas",
                                "value": 58152
                            },
                            {
                                "children": [
                                    {
                                        "children": [
                                            {
                                                "children": [
                                                    {
                                                        "children": [],
                                                        "depth": 3,
                                                        "name": "delayedMessageCount",
                                                        "value": 369
                                                    }
                                                ],
                                                "depth": 2,
                                                "name": "delayedMessageCount",
                                                "value": 3685
                                            },
                                            {
                                                "children": [
                                                    {
                                                        "children": [],
                                                        "depth": 3,
                                                        "name": "enqueueSequencerMessage",
                                                        "value": 27955
                                                    }
                                                ],
                                                "depth": 2,
                                                "name": "enqueueSequencerMessage",
                                                "value": 28798
                                            }
                                        ],
                                        "depth": 1,
                                        "name": "addSequencerL2BatchFromOrigin",
                                        "value": 45032
                                    }
                                ],
                                "depth": 0,
                                "name": "Executed Gas",
                                "value": 48417
                            }
                        ],
                        "depth": -1,
                        "name": "Actual Gas Used",
                        "value": 106569
                    },
                    {
                        "children": [],
                        "depth": -1,
                        "name": "Refunded Gas",
                        "value": 0
                    }
                ],
                "depth": -2,
                "name": "Total Gas",
                "value": 106569
            }
        ],
        "isConfirmed": true,
        "mainTrace": [
            {
                "children": [
                    {
                        "children": [
                            {
                                "children": [
                                    {
                                        "children": [
                                            {
                                                "children": [],
                                                "depth": 3,
                                                "id": 3,
                                                "order": 3
                                            }
                                        ],
                                        "depth": 2,
                                        "id": 2,
                                        "order": 2
                                    },
                                    {
                                        "children": [
                                            {
                                                "children": [],
                                                "depth": 3,
                                                "id": 5,
                                                "order": 5
                                            }
                                        ],
                                        "depth": 2,
                                        "id": 4,
                                        "order": 4
                                    },
                                    {
                                        "children": [],
                                        "depth": 2,
                                        "id": 6,
                                        "order": 6
                                    }
                                ],
                                "depth": 1,
                                "id": 1,
                                "order": 1
                            }
                        ],
                        "depth": 0,
                        "id": 0,
                        "order": 0
                    }
                ],
                "depth": -1,
                "id": -1,
                "order": -1
            }
        ],
        "mainTraceNodeCount": 7,
        "parentIdMap": {
            "0": -1,
            "1": 0,
            "2": 1,
            "3": 2,
            "4": 1,
            "5": 4,
            "6": 1
        },
        "tidyTrace": [
            {
                "children": [
                    {
                        "children": [
                            {
                                "children": [
                                    {
                                        "children": [
                                            {
                                                "children": [],
                                                "depth": 3,
                                                "id": 5,
                                                "order": 5
                                            }
                                        ],
                                        "depth": 2,
                                        "id": 4,
                                        "order": 4
                                    },
                                    {
                                        "children": [],
                                        "depth": 2,
                                        "id": 6,
                                        "order": 6
                                    }
                                ],
                                "depth": 1,
                                "id": 1,
                                "order": 1
                            }
                        ],
                        "depth": 0,
                        "id": 0,
                        "order": 0
                    }
                ],
                "depth": -1,
                "id": -1,
                "order": -1
            }
        ],
        "tidyTraceNodeCount": 5
    },
    "state_change": {
        "stateChanges": [
            {
                "address": "0x7983403dda368aa7d67145a9b81c5c517f364c42",
                "erc": "",
                "slots": [
                    {
                        "current": "0x0000000000000000000000000000000000000000000000000000000000040793",
                        "key": "0x000000000000000000000000000000000000000000000000000000000000000a",
                        "prev": "0x0000000000000000000000000000000000000000000000000000000000040758"
                    },
                    {
                        "current": "0x0000000000000000000000000000000000000000000000000000000000000bc3",
                        "key": "0x0000000000000000000000000000000000000000000000000000000000000007",
                        "prev": "0x0000000000000000000000000000000000000000000000000000000000000bc2"
                    },
                    {
                        "current": "0x940554ab1b000101654df9ef47c26c82daef59c6ae2742d289a73c85353d586a",
                        "key": "0xa66cc928b5edb82af9bd49922954155ab7b0942694bea4ce44661d9a8736d24a",
                        "prev": "0x0000000000000000000000000000000000000000000000000000000000000000"
                    }
                ],
                "storageVariables": [
                    {
                        "name": "sequencerReportedSubMessageCount",
                        "type": "uint256",
                        "value": {
                            "current": "264083",
                            "prev": "264024",
                            "typeTag": 1
                        }
                    },
                    {
                        "name": "sequencerInboxAccs",
                        "type": "bytes32[]",
                        "value": {
                            "elemType": "bytes32",
                            "elems": [
                                {
                                    "index": 3010,
                                    "value": {
                                        "current": "0x940554ab1b000101654df9ef47c26c82daef59c6ae2742d289a73c85353d586a",
                                        "prev": "0x0000000000000000000000000000000000000000000000000000000000000000",
                                        "typeTag": 1
                                    }
                                }
                            ],
                            "typeTag": 2
                        }
                    }
                ]
            }
        ]
    }
}