{
    "balance_change": {
        "balanceChanges": [
            {
                "account": "0xd99d3faf8c1c3fb9511c9b2561a307a723915bc9",
                "assets": [
                    {
                        "address": "0x700f5b6fbef95f3fbd4f50233e6d05d4eab6dd03",
                        "amount": "9,303.351689400080926806",
                        "iconUrl": "",
                        "isERC1155": false,
                        "isERC721": false,
                        "sign": false,
                        "value": ""
                    }
                ]
            },
            {
                "account": "0x9ffb5c84dd88f9f13d515876fe525e443b637a4d",
                "assets": [
                    {
                        "address": "0x700f5b6fbef95f3fbd4f50233e6d05d4eab6dd03",
                        "amount": "9,303.351689400080926806",
                        "iconUrl": "",
                        "isERC1155": false,
                        "isERC721": false,
                        "sign": true,
                        "value": ""
                    }
                ]
            }
        ]
    },
    "profile": {
        "basic_info": {
            "baseFee": "",
            "blockNumber": 6037763,
            "callData": "0xa9059cbb0000000000000000000000009ffb5c84dd88f9f13d515876fe525e443b637a4d0000000000000000000000000000000000000000000001f855f0ce3d56140856",
            "debugEnable": true,
            "errorInfo": "",
            "eventCount": 1,
            "feeRecipient": "0x5a0b54d5dc17e0aadc383d2db43b0a0d3e029c4c",
            "formatValue": "0",
            "gasLimit": 80000,
            "gasPrice": "1.01",
            "gasUsed": 22244,
            "intTxnCount": 0,
            "internalRevert": false,
            "internalRevertMessage": "",
            "isContractCreation": false,
            "isFlashloan": false,
            "maxFee": "",
            "nonce": 9,
            "overwritedBlockNumber": -1,
            "priorityFee": "",
            "receiver": "0x700f5b6fbef95f3fbd4f50233e6d05d4eab6dd03",
            "revertMessage": "",
            "sender": "0xd99d3faf8c1c3fb9511c9b2561a307a723915bc9",
            "simulationEnable": true,
            "sourceTxnHash": "0xfeb666183e048aa736c19b9eef6587a8587ba924016eac8ddda8387187e52f16",
            "status": true,
            "timestamp": "2018-07-27T06:25:48Z",
            "transactionFee": "0.00002246644",
            "txnHash": "0xfeb666183e048aa736c19b9eef6587a8587ba924016eac8ddda8387187e52f16",
            "txnIndex": 34,
            "type": 0,
            "value": "0"
        },
        "fund_flow": [
            {
                "amount": "9,303.351689400080926806",
                "from": "0xd99d3faf8c1c3fb9511c9b2561a307a723915bc9",
                "id": 1,
                "isERC1155": false,
                "isERC721": false,
                "isReverted": false,
                "order": 1,
                "to": "0x9ffb5c84dd88f9f13d515876fe525e443b637a4d",
                "token": "0x700f5b6fbef95f3fbd4f50233e6d05d4eab6dd03"
            }
        ],
        "token_infos": [
            {
                "address": "0x700f5b6fbef95f3fbd4f50233e6d05d4eab6dd03",
                "decimals": 18
            },
            {
                "address": "0xc02aaa39b223fe8d0a0e5c4f27ead9083c756cc2",
                "decimals": 18
            },
            {
                "address": "0xeeeeeeeeeeeeeeeeeeeeeeeeeeeeeeeeeeeeeeee",
                "decimals": 18
            }
        ]
    },
    "address_label": {
        "labels": [
            {
                "address": "0x0000000000000000000000000000000000000003",
                "label": "Precompiled"
            },
            {
                "address": "0x0000000000000000000000000000000000000004",
                "label": "Precompiled"
            },
            {
                "address": "0xeeeeeeeeeeeeeeeeeeeeeeeeeeeeeeeeeeeeeeee",
                "label": "Ether"
            },
            {
                "address": "0x700f5b6fbef95f3fbd4f50233e6d05d4eab6dd03",
                "label": "SOB"
            },
            {
                "address": "0x0000000000000000000000000000000000000001",
                "label": "Precompiled"
            },
            {
                "address": "0x0000000000000000000000000000000000000002",
                "label": "Precompiled"
            }
        ]
    },
    "trace": {
        "accountLabels": null,
        "dataMap": {
            "-1": {
                "invocation": {
                    "address": "0xd99d3faf8c1c3fb9511c9b2561a307a723915bc9",
                    "callData": "",
                    "decodedMethod": null,
                    "errorInfo": "",
                    "fromAddress": "",
                    "gasUsed": 0,
                    "id": -1,
                    "methodDecoded": false,
                    "operation": "",
                    "output": "",
                    "revert": false,
                    "revertMessage": "",
                    "selector": "",
                    "status": false,
                    "value": ""
                },
                "nodeType": 0
            },
            "0": {
                "invocation": {
                    "address": "0x700f5b6fbef95f3fbd4f50233e6d05d4eab6dd03",
                    "callData": "0x0000000000000000000000009ffb5c84dd88f9f13d515876fe525e443b637a4d0000000000000000000000000000000000000000000001f855f0ce3d56140856",
                    "decodedMethod": {
                        "callParams": [
                            {
                                "name": "_to",
                                "type": "address",
                                "value": "0x9ffb5c84dd88f9f13d515876fe525e443b637a4d"
                            },
                            {
                                "decimalAvailable": true,
                                "name": "_amount",
                                "type": "uint256",
                                "value": "9,303,351,689,400,080,926,806"
                            }
                        ],
                        "constructorArguments": "",
                        "name": "transfer",
                        "returnParams": [
                            {
                                "name": "success",
                                "type": "bool",
                                "value": true
                            }
                        ],
                        "signature": "transfer(address,uint256)"
                    },
                    "errorInfo": "",
                    "fromAddress": "0xd99d3faf8c1c3fb9511c9b2561a307a723915bc9",
                    "gasUsed": 22244,
                    "id": 0,
                    "methodDecoded": true,
                    "operation": "CALL",
                    "output": "0x0000000000000000000000000000000000000000000000000000000000000001",
                    "revert": false,
                    "revertMessage": "",
                    "selector": "0xa9059cbb",
                    "status": true,
                    "value": "0"
                },
                "nodeType": 0
            },
            "1": {
                "event": {
                    "contract": "0x700f5b6fbef95f3fbd4f50233e6d05d4eab6dd03",
                    "decodedLog": {
                        "name": "Transfer",
                        "params": [
                            {
                                "name": "_from",
                                "type": "address",
                                "value": "0xd99d3faf8c1c3fb9511c9b2561a307a723915bc9"
                            },
                            {
                                "name": "_to",
                                "type": "address",
                                "value": "0x9ffb5c84dd88f9f13d515876fe525e443b637a4d"
                            },
                            {
                                "decimalAvailable": true,
                                "name": "_value",
                                "type": "uint256",
                                "value": "9,303,351,689,400,080,926,806"
                            }
                        ],
                        "signature": "Transfer(address,address,uint256)"
                    },
                    "id": 1,
                    "logData": "0x0000000000000000000000000000000000000000000001f855f0ce3d56140856",
                    "logDecoded": true,
                    "operation": "EVENT",
                    "revert": false,
                    "status": true,
                    "topics": [
                        "0xddf252ad1be2c89b69c2b068fc378daa952ba7f163c4a11628f55a4df523b3ef",
                        "0x000000000000000000000000d99d3faf8c1c3fb9511c9b2561a307a723915bc9",
                        "0x0000000000000000000000009ffb5c84dd88f9f13d515876fe525e443b637a4d"
                    ]
                },
                "nodeType": 1
            }
        },
        "gasFlame": [
            {
                "children": [
                    {
                        "children": [
                            {
                                "children": [],
                                "depth": 0,
                                "name": "Initial Gas",
                                "value": 23448
                            },
                            {
                                "children": [],
                                "depth": 0,
                                "name": "Executed Gas",
                                "value": 13796
                            }
                        ],
                        "depth": -1,
                        "name": "Actual Gas Used",
                        "value": 22244
                    },
                    {
                        "children": [],
                        "depth": -1,
                        "name": "Refunded Gas",
                        "value": 15000
                    }
                ],
                "depth": -2,
                "name": "Total Gas",
                "value": 37244
            }
        ],
        "isConfirmed": true,
        "mainTrace": [
            {
                "children": [
                    {
                        "children": [
                            {
                                "children": [],
                                "depth": 1,
                                "id": 1,
                                "order": 1
                            }
                        ],
                        "depth": 0,
                        "id": 0,
                        "order": 0
                    }
                ],
                "depth": -1,
                "id": -1,
                "order": -1
            }
        ],
        "mainTraceNodeCount": 2,
        "parentIdMap": {
            "0": -1,
            "1": 0
        },
        "tidyTrace": [
            {
                "children": [
                    {
                        "children": [
                            {
                                "children": [],
                                "depth": 1,
                                "id": 1,
                                "order": 1
                            }
                        ],
                        "depth": 0,
                        "id": 0,
                        "order": 0
                    }
                ],
                "depth": -1,
                "id": -1,
                "order": -1
            }
        ],
        "tidyTraceNodeCount": 2
    },
    "state_change": {
        "stateChanges": [
            {
                "address": "0x700f5b6fbef95f3fbd4f50233e6d05d4eab6dd03",
                "erc": "ERC-20",
                "slots": [
                    {
                        "current": "0x0000000000000000000000000000000000000000000000000000000000000000",
                        "key": "0x65070986e0871d60cbe2bdc80540ea563c411e98fc802575e5a7761e48671769",
                        "prev": "0x0000000000000000000000000000000000000000000001f855f0ce3d56140856"
                    },
                    {
                        "current": "0x0000000000000000000000000000000000000000000a30c5ff1b16d55fa9f79a",
                        "key": "0x6f790a229c0bcfcb2e8d9b3ca2d6828f874decda74ef018ea53831a46f469355",
                        "prev": "0x0000000000000000000000000000000000000000000a2ecda92a48980995ef44"
                    }
                ],
                "storageVariables": [
                    {
                        "name": "balances",
                        "type": "mapping(address => uint256)",
                        "value": {
                            "pairs": [
                                {
                                    "key": "0x9ffb5c84dd88f9f13d515876fe525e443b637a4d",
                                    "value": {
                                        "current": "12319584178217965230618522",
                                        "prev": "12310280826528565149691716",
                                        "typeTag": 1
                                    }
                                },
                                {
                                    "key": "0xd99d3faf8c1c3fb9511c9b2561a307a723915bc9",
                                    "value": {
                                        "current": "0",
                                        "prev": "9303351689400080926806",
                                        "typeTag": 1
                                    }
                                }
                            ],
                            "typeTag": 4
                        }
                    }
                ]
            }
        ]
    }
}