{
    "balance_change": {
        "balanceChanges": [
            {
                "account": "0x1f487a4435f3b730d742aa4b6ef8c9e0a6b9a027",
                "assets": [
                    {
                        "address": "0x6b175474e89094c44da98b954eedeac495271d0f",
                        "amount": "13,000",
                        "iconUrl": "https://assets.blocksec.com/icon/39aead569b9c011cb6f69734d9abbc9ab6a80049fe93bbd12bb473a3e0e859a3.png",
                        "isERC1155": false,
                        "isERC721": false,
                        "sign": true,
                        "value": ""
                    }
                ]
            },
            {
                "account": "0x39755357759ce0d7f32dc8dc45414cca409ae24e",
                "assets": [
                    {
                        "address": "0x6b175474e89094c44da98b954eedeac495271d0f",
                        "amount": "13,000",
                        "iconUrl": "https://assets.blocksec.com/icon/39aead569b9c011cb6f69734d9abbc9ab6a80049fe93bbd12bb473a3e0e859a3.png",
                        "isERC1155": false,
                        "isERC721": false,
                        "sign": false,
                        "value": ""
                    }
                ]
            }
        ]
    },
    "profile": {
        "basic_info": {
            "baseFee": "",
            "blockNumber": 9314917,
            "callData": "0xb4f9b6c800000000000000000000000000000000000000000000000000000000000b7ad6",
            "debugEnable": true,
            "errorInfo": "",
            "eventCount": 3,
            "feeRecipient": "0x829bd824b016326a401d083b33d092293333a830",
            "formatValue": "0",
            "gasLimit": 249914,
            "gasPrice": "8.8",
            "gasUsed": 74244,
            "intTxnCount": 1,
            "internalRevert": false,
            "internalRevertMessage": "",
            "isContractCreation": false,
            "isFlashloan": false,
            "maxFee": "",
            "nonce": 213960,
            "overwritedBlockNumber": -1,
            "priorityFee": "",
            "receiver": "0x39755357759ce0d7f32dc8dc45414cca409ae24e",
            "revertMessage": "",
            "sender": "0x1f487a4435f3b730d742aa4b6ef8c9e0a6b9a027",
            "simulationEnable": true,
            "sourceTxnHash": "0xfe6113e57d5fe00d5c8239daf30eeac8135279ffc9cafa24ff49cad5cce58a83",
            "status": true,
            "timestamp": "2020-01-19T23:50:55Z",
            "transactionFee": "0.0006533472",
            "txnHash": "0xfe6113e57d5fe00d5c8239daf30eeac8135279ffc9cafa24ff49cad5cce58a83",
            "txnIndex": 1,
            "type": 0,
            "value": "0"
        },
        "fund_flow": [
            {
                "amount": "13,000",
                "from": "0x39755357759ce0d7f32dc8dc45414cca409ae24e",
                "id": 1,
                "isERC1155": false,
                "isERC721": false,
                "isReverted": false,
                "order": 1,
                "to": "0x1f487a4435f3b730d742aa4b6ef8c9e0a6b9a027",
                "token": "0x6b175474e89094c44da98b954eedeac495271d0f"
            }
        ],
        "token_infos": [
            {
                "address": "0x6b175474e89094c44da98b954eedeac495271d0f",
                "decimals": 18
            },
            {
                "address": "0xc02aaa39b223fe8d0a0e5c4f27ead9083c756cc2",
                "decimals": 18
            },
            {
                "address": "0xeeeeeeeeeeeeeeeeeeeeeeeeeeeeeeeeeeeeeeee",
                "decimals": 18
            }
        ]
    },
    "address_label": {
        "labels": [
            {
                "address": "0x0000000000000000000000000000000000000003",
                "label": "Precompiled"
            },
            {
                "address": "0x0000000000000000000000000000000000000004",
                "label": "Precompiled"
            },
            {
                "address": "0xeeeeeeeeeeeeeeeeeeeeeeeeeeeeeeeeeeeeeeee",
                "label": "Ether"
            },
            {
                "address": "0x6b175474e89094c44da98b954eedeac495271d0f",
                "label": "Sky: Dai Stablecoin"
            },
            {
                "address": "0x39755357759ce0d7f32dc8dc45414cca409ae24e",
                "label": "Eth2Dai: Old Contract"
            },
            {
                "address": "0x0000000000000000000000000000000000000001",
                "label": "Precompiled"
            },
            {
                "address": "0x0000000000000000000000000000000000000002",
                "label": "Precompiled"
            }
        ]
    },
    "trace": {
        "accountLabels": null,
        "dataMap": {
            "-1": {
                "invocation": {
                    "address": "0x1f487a4435f3b730d742aa4b6ef8c9e0a6b9a027",
                    "callData": "",
                    "decodedMethod": null,
                    "errorInfo": "",
                    "fromAddress": "",
                    "gasUsed": 0,
                    "id": -1,
                    "methodDecoded": false,
                    "operation": "",
                    "output": "",
                    "revert": false,
                    "revertMessage": "",
                    "selector": "",
                    "status": false,
                    "value": ""
                },
                "nodeType": 0
            },
            "0": {
                "invocation": {
                    "address": "0x39755357759ce0d7f32dc8dc45414cca409ae24e",
                    "callData": "0x00000000000000000000000000000000000000000000000000000000000b7ad6",
                    "decodedMethod": {
                        "callParams": [
                            {
                                "name": "id",
                                "type": "bytes32",
                                "value": "0x00000000000000000000000000000000000000000000000000000000000b7ad6"
                            }
                        ],
                        "constructorArguments": "",
                        "name": "kill",
                        "returnParams": [],
                        "signature": "kill(bytes32)"
                    },
                    "errorInfo": "",
                    "fromAddress": "0x1f487a4435f3b730d742aa4b6ef8c9e0a6b9a027",
                    "gasUsed": 74244,
                    "id": 0,
                    "methodDecoded": true,
                    "operation": "CALL",
                    "output": "",
                    "revert": false,
                    "revertMessage": "",
                    "selector": "0xb4f9b6c8",
                    "status": true,
                    "value": "0"
                },
                "nodeType": 0
            },
            "1": {
                "invocation": {
                    "address": "0x6b175474e89094c44da98b954eedeac495271d0f",
                    "callData": "0x0000000000000000000000001f487a4435f3b730d742aa4b6ef8c9e0a6b9a0270000000000000000000000000000000000000000000002c0bb3dd30c4e200000",
                    "decodedMethod": {
                        "callParams": [
                            {
                                "name": "dst",
                                "type": "address",
                                "value": "0x1f487a4435f3b730d742aa4b6ef8c9e0a6b9a027"
                            },
                            {
                                "decimalAvailable": true,
                                "name": "wad",
                                "type": "uint256",
                                "value": "13,000,000,000,000,000,000,000"
                            }
                        ],
                        "constructorArguments": "",
                        "name": "transfer",
                        "returnParams": [
                            {
                                "name": "",
                                "type": "bool",
                                "value": true
                            }
                        ],
                        "signature": "transfer(address,uint256)"
                    },
                    "errorInfo": "",
                    "fromAddress": "0x39755357759ce0d7f32dc8dc45414cca409ae24e",
                    "gasUsed": 15374,
                    "id": 1,
                    "methodDecoded": true,
                    "operation": "CALL",
                    "output": "0x0000000000000000000000000000000000000000000000000000000000000001",
                    "revert": false,
                    "revertMessage": "",
                    "selector": "0xa9059cbb",
                    "status": true,
                    "value": "0"
                },
                "nodeType": 0
            },
            "2": {
                "event": {
                    "contract": "0x6b175474e89094c44da98b954eedeac495271d0f",
                    "decodedLog": {
                        "name": "Transfer",
                        "params": [
                            {
                                "name": "src",
                                "type": "address",
                                "value": "0x39755357759ce0d7f32dc8dc45414cca409ae24e"
                            },
                            {
                                "name": "dst",
                                "type": "address",
                                "value": "0x1f487a4435f3b730d742aa4b6ef8c9e0a6b9a027"
                            },
                            {
                                "decimalAvailable": true,
                                "name": "wad",
                                "type": "uint256",
                                "value": "13,000,000,000,000,000,000,000"
                            }
                        ],
                        "signature": "Transfer(address,address,uint256)"
                    },
                    "id": 2,
                    "logData": "0x0000000000000000000000000000000000000000000002c0bb3dd30c4e200000",
                    "logDecoded": true,
                    "operation": "EVENT",
                    "revert": false,
                    "status": true,
                    "topics": [
                        "0xddf252ad1be2c89b69c2b068fc378daa952ba7f163c4a11628f55a4df523b3ef",
                        "0x00000000000000000000000039755357759ce0d7f32dc8dc45414cca409ae24e",
                        "0x0000000000000000000000001f487a4435f3b730d742aa4b6ef8c9e0a6b9a027"
                    ]
                },
                "nodeType": 1
            },
            "3": {
                "event": {
                    "contract": "0x39755357759ce0d7f32dc8dc45414cca409ae24e",
                    "decodedLog": {
                        "name": "LogItemUpdate",
                        "params": [
                            {
                                "name": "id",
                                "type": "uint256",
                                "value": "752,342"
                            }
                        ],
                        "signature": "LogItemUpdate(uint256)"
                    },
                    "id": 3,
                    "logData": "0x00000000000000000000000000000000000000000000000000000000000b7ad6",
                    "logDecoded": true,
                    "operation": "EVENT",
                    "revert": false,
                    "status": true,
                    "topics": [
                        "0xa2c251311b1a7a475913900a2a73dc9789a21b04bc737e050bbc506dd4eb3488"
                    ]
                },
                "nodeType": 1
            },
            "4": {
                "event": {
                    "contract": "0x39755357759ce0d7f32dc8dc45414cca409ae24e",
                    "decodedLog": {
                        "name": "LogKill",
                        "params": [
                            {
                                "name": "id",
                                "type": "bytes32",
                                "value": "0x00000000000000000000000000000000000000000000000000000000000b7ad6"
                            },
                            {
                                "name": "pair",
                                "type": "bytes32",
                                "value": "0x7bda8b27e891f9687bd6d3312ab3f4f458e2cc91916429d721d617df7ac29fb8"
                            },
                            {
                                "name": "maker",
                                "type": "address",
                                "value": "0x1f487a4435f3b730d742aa4b6ef8c9e0a6b9a027"
                            },
                            {
                                "name": "pay_gem",
                                "type": "address",
                                "value": "0x6b175474e89094c44da98b954eedeac495271d0f"
                            },
                            {
                                "name": "buy_gem",
                                "type": "address",
                                "value": "0xc02aaa39b223fe8d0a0e5c4f27ead9083c756cc2"
                            },
                            {
                                "name": "pay_amt",
                                "type": "uint128",
                                "value": "13,000,000,000,000,000,000,000"
                            },
                            {
                                "name": "buy_amt",
                                "type": "uint128",
                                "value": "78,944,989,186,780,711,345"
                            },
                            {
                                "name": "timestamp",
                                "type": "uint64",
                                "value": "1,579,477,855"
                            }
                        ],
                        "signature": "LogKill(bytes32,bytes32,address,address,address,uint128,uint128,uint64)"
                    },
                    "id": 4,
                    "logData": "0x0000000000000000000000006b175474e89094c44da98b954eedeac495271d0f000000000000000000000000c02aaa39b223fe8d0a0e5c4f27ead9083c756cc20000000000000000000000000000000000000000000002c0bb3dd30c4e2000000000000000000000000000000000000000000000000000044794f1659b1e49b1000000000000000000000000000000000000000000000000000000005e24eb5f",
                    "logDecoded": true,
                    "operation": "EVENT",
                    "revert": false,
                    "status": true,
                    "topics": [
                        "0x9577941d28fff863bfbee4694a6a4a56fb09e169619189d2eaa750b5b4819995",
                        "0x00000000000000000000000000000000000000000000000000000000000b7ad6",
                        "0x7bda8b27e891f9687bd6d3312ab3f4f458e2cc91916429d721d617df7ac29fb8",
                        "0x0000000000000000000000001f487a4435f3b730d742aa4b6ef8c9e0a6b9a027"
                    ]
                },
                "nodeType": 1
            }
        },
        "gasFlame": [
            {
                "children": [
                    {
                        "children": [
                            {
                                "children": [],
                                "depth": 0,
                                "name": "Initial Gas",
                                "value": 21228
                            },
                            {
                                "children": [
                                    {
                                        "children": [],
                                        "depth": 1,
                                        "name": "transfer",
                                        "value": 15374
                                    }
                                ],
                                "depth": 0,
                                "name": "Executed Gas",
                                "value": 127259
                            }
                        ],
                        "depth": -1,
                        "name": "Actual Gas Used",
                        "value": 74244
                    },
                    {
                        "children": [],
                        "depth": -1,
                        "name": "Refunded Gas",
                        "value": 74243
                    }
                ],
                "depth": -2,
                "name": "Total Gas",
                "value": 148487
            }
        ],
        "isConfirmed": true,
        "mainTrace": [
            {
                "children": [
                    {
                        "children": [
                            {
                                "children": [
                                    {
                                        "children": [],
                                        "depth": 2,
                                        "id": 2,
                                        "order": 2
                                    }
                                ],
                                "depth": 1,
                                "id": 1,
                                "order": 1
                            },
                            {
                                "children": [],
                                "depth": 1,
                                "id": 3,
                                "order": 3
                            },
                            {
                                "children": [],
                                "depth": 1,
                                "id": 4,
                                "order": 4
                            }
                        ],
                        "depth": 0,
                        "id": 0,
                        "order": 0
                    }
                ],
                "depth": -1,
                "id": -1,
                "order": -1
            }
        ],
        "mainTraceNodeCount": 5,
        "parentIdMap": {
            "0": -1,
            "1": 0,
            "2": 1,
            "3": 0,
            "4": 0
        },
        "tidyTrace": [
            {
                "children": [
                    {
                        "children": [
                            {
                                "children": [
                                    {
                                        "children": [],
                                        "depth": 2,
                                        "id": 2,
                                        "order": 2
                                    }
                                ],
                                "depth": 1,
                                "id": 1,
                                "order": 1
                            },
                            {
                                "children": [],
                                "depth": 1,
                                "id": 3,
                                "order": 3
                            },
                            {
                                "children": [],
                                "depth": 1,
                                "id": 4,
                                "order": 4
                            }
                        ],
                        "depth": 0,
                        "id": 0,
                        "order": 0
                    }
                ],
                "depth": -1,
                "id": -1,
                "order": -1
            }
        ],
        "tidyTraceNodeCount": 5
    },
    "state_change": {
        "stateChanges": [
            {
                "address": "0x39755357759ce0d7f32dc8dc45414cca409ae24e",
                "erc": "",
                "slots": [
                    {
                        "current": "0x0000000000000000000000000000000000000000000000000000000000000000",
                        "key": "0x1aacaae4a7de4e034956754aecebcd44ee51f86676e5d987976df00f9d95f0b8",
                        "prev": "0x000000000000000000000000c02aaa39b223fe8d0a0e5c4f27ead9083c756cc2"
                    },
                    {
                        "current": "0x0000000000000000000000000000000000000000000000000000000000000000",
                        "key": "0x1aacaae4a7de4e034956754aecebcd44ee51f86676e5d987976df00f9d95f0b9",
                        "prev": "0x00000000000000005e24e0fd1f487a4435f3b730d742aa4b6ef8c9e0a6b9a027"
                    },
                    {
                        "current": "0x0000000000000000000000000000000000000000000000000000000000000000",
                        "key": "0x1aacaae4a7de4e034956754aecebcd44ee51f86676e5d987976df00f9d95f0b6",
                        "prev": "0x0000000000000000000000006b175474e89094c44da98b954eedeac495271d0f"
                    },
                    {
                        "current": "0x00000000000000000000000000000000000000000000000000000000000b7a75",
                        "key": "0xf01aabe89615bb965bd9487eee13101cbc1567c78c8d4ddfa22a0893c39f5a3f",
                        "prev": "0x00000000000000000000000000000000000000000000000000000000000b7ad6"
                    },
                    {
                        "current": "0x00000000000000000000000000000000000000000000000000000000008e2265",
                        "key": "0x8c773306e96ac7f8dd29c35ca32cb7dfa123b1b34a82d225d2e31b6fb66cf3da",
                        "prev": "0x0000000000000000000000000000000000000000000000000000000000000000"
                    },
                    {
                        "current": "0x0000000000000000000000000000000000000000000000000000000000000000",
                        "key": "0x1aacaae4a7de4e034956754aecebcd44ee51f86676e5d987976df00f9d95f0b5",
                        "prev": "0x0000000000000000000000000000000000000000000002c0bb3dd30c4e200000"
                    },
                    {
                        "current": "0x00000000000000000000000000000000000000000000000000000000000b7ad0",
                        "key": "0x2912f497b23ce3f7ac9a620894f9f8c5f6314c5f5a78484074fe207e62a238e0",
                        "prev": "0x00000000000000000000000000000000000000000000000000000000000b7ad6"
                    },
                    {
                        "current": "0x0000000000000000000000000000000000000000000000000000000000000065",
                        "key": "0x7ddeff309f21f605a22a450ceded345c6aa72940361b04764fcfc584c2bad562",
                        "prev": "0x0000000000000000000000000000000000000000000000000000000000000066"
                    },
                    {
                        "current": "0x0000000000000000000000000000000000000000000000000000000000000000",
                        "key": "0x1aacaae4a7de4e034956754aecebcd44ee51f86676e5d987976df00f9d95f0b7",
                        "prev": "0x0000000000000000000000000000000000000000000000044794f1659b1e49b1"
                    }
                ],
                "storageVariables": [
                    {
                        "name": "_span",
                        "type": "mapping(address => mapping(address => uint256))",
                        "value": {
                            "pairs": [
                                {
                                    "key": "0x6b175474e89094c44da98b954eedeac495271d0f",
                                    "value": {
                                        "pairs": [
                                            {
                                                "key": "0xc02aaa39b223fe8d0a0e5c4f27ead9083c756cc2",
                                                "value": {
                                                    "current": "101",
                                                    "prev": "102",
                                                    "typeTag": 1
                                                }
                                            }
                                        ],
                                        "typeTag": 4
                                    }
                                }
                            ],
                            "typeTag": 4
                        }
                    },
                    {
                        "name": "offers",
                        "type": "mapping(uint256 => struct SimpleMarket.OfferInfo)",
                        "value": {
                            "pairs": [
                                {
                                    "key": "752342",
                                    "value": {
                                        "fields": [
                                            {
                                                "name": "pay_amt",
                                                "type": "uint256",
                                                "value": {
                                                    "current": "0",
                                                    "prev": "13000000000000000000000",
                                                    "typeTag": 1
                                                }
                                            },
                                            {
                                                "name": "pay_gem",
                                                "type": "contract ERC20",
                                                "value": {
                                                    "current": "0x0000000000000000000000000000000000000000",
                                                    "prev": "0x6b175474e89094c44da98b954eedeac495271d0f",
                                                    "typeTag": 1
                                                }
                                            },
                                            {
                                                "name": "buy_amt",
                                                "type": "uint256",
                                                "value": {
                                                    "current": "0",
                                                    "prev": "78944989186780711345",
                                                    "typeTag": 1
                                                }
                                            },
                                            {
                                                "name": "buy_gem",
                                                "type": "contract ERC20",
                                                "value": {
                                                    "current": "0x0000000000000000000000000000000000000000",
                                                    "prev": "0xc02aaa39b223fe8d0a0e5c4f27ead9083c756cc2",
                                                    "typeTag": 1
                                                }
                                            },
                                            {
                                                "name": "owner",
                                                "type": "address",
                                                "value": {
                                                    "current": "0x0000000000000000000000000000000000000000",
                                                    "prev": "0x1f487a4435f3b730d742aa4b6ef8c9e0a6b9a027",
                                                    "typeTag": 1
                                                }
                                            },
                                            {
                                                "name": "timestamp",
                                                "type": "uint64",
                                                "value": {
                                                    "current": "0",
                                                    "prev": "1579475197",
                                                    "typeTag": 1
                                                }
                                            }
                                        ],
                                        "typeTag": 3
                                    }
                                }
                            ],
                            "typeTag": 4
                        }
                    },
                    {
                        "name": "_rank",
                        "type": "mapping(uint256 => struct MatchingMarket.sortInfo)",
                        "value": {
                            "pairs": [
                                {
                                    "key": "752245",
                                    "value": {
                                        "fields": [
                                            {
                                                "name": "next",
                                                "type": "uint256",
                                                "value": {
                                                    "current": "752336",
                                                    "prev": "752342",
                                                    "typeTag": 1
                                                }
                                            }
                                        ],
                                        "typeTag": 3
                                    }
                                },
                                {
                                    "key": "752336",
                                    "value": {
                                        "fields": [
                                            {
                                                "name": "prev",
                                                "type": "uint256",
                                                "value": {
                                                    "current": "752245",
                                                    "prev": "752342",
                                                    "typeTag": 1
                                                }
                                            }
                                        ],
                                        "typeTag": 3
                                    }
                                },
                                {
                                    "key": "752342",
                                    "value": {
                                        "fields": [
                                            {
                                                "name": "delb",
                                                "type": "uint256",
                                                "value": {
                                                    "current": "9314917",
                                                    "prev": "0",
                                                    "typeTag": 1
                                                }
                                            }
                                        ],
                                        "typeTag": 3
                                    }
                                }
                            ],
                            "typeTag": 4
                        }
                    }
                ]
            },
            {
                "address": "0x6b175474e89094c44da98b954eedeac495271d0f",
                "erc": "ERC-20",
                "slots": [
                    {
                        "current": "0x00000000000000000000000000000000000000000000ab2d924267cf9a8fcbd2",
                        "key": "0x906e49223109d6d91a95ad6f7dc6f7c360f183a570b22d779aa4db1f6aec3dcc",
                        "prev": "0x00000000000000000000000000000000000000000000adee4d803adbe8afcbd2"
                    },
                    {
                        "current": "0x000000000000000000000000000000000000000000001714e6defd3fca200000",
                        "key": "0x788bda5f27f4923f72e8d12535e0f706bbf5a94856e6cf29b3710be12998f7a4",
                        "prev": "0x0000000000000000000000000000000000000000000014542ba12a337c000000"
                    }
                ],
                "storageVariables": [
                    {
                        "name": "balanceOf",
                        "type": "mapping(address => uint256)",
                        "value": {
                            "pairs": [
                                {
                                    "key": "0x1f487a4435f3b730d742aa4b6ef8c9e0a6b9a027",
                                    "value": {
                                        "current": "109000000000000000000000",
                                        "prev": "96000000000000000000000",
                                        "typeTag": 1
                                    }
                                },
                                {
                                    "key": "0x39755357759ce0d7f32dc8dc45414cca409ae24e",
                                    "value": {
                                        "current": "808365311154245610752978",
                                        "prev": "821365311154245610752978",
                                        "typeTag": 1
                                    }
                                }
                            ],
                            "typeTag": 4
                        }
                    }
                ]
            }
        ]
    }
}