{
    "balance_change": {
        "balanceChanges": [
            {
                "account": "0xcd851cd26afc9a2c0b933b805b3926e1101579b8",
                "assets": [
                    {
                        "address": "0xc834fa996fa3bec7aad3693af486ae53d8aa8b50",
                        "amount": "1,570,914",
                        "iconUrl": "https://assets.blocksec.com/icon/2d481e034d483744c7475823968bfc87b07436abc12f0c0a0642c6e91918251c.png",
                        "isERC1155": false,
                        "isERC721": false,
                        "sign": false,
                        "value": "942.54839999999991745"
                    }
                ]
            },
            {
                "account": "0x6cc5f688a315f3dc28a7781717a9a798a59fda7b",
                "assets": [
                    {
                        "address": "0xc834fa996fa3bec7aad3693af486ae53d8aa8b50",
                        "amount": "1,570,914",
                        "iconUrl": "https://assets.blocksec.com/icon/2d481e034d483744c7475823968bfc87b07436abc12f0c0a0642c6e91918251c.png",
                        "isERC1155": false,
                        "isERC721": false,
                        "sign": true,
                        "value": "942.54839999999991745"
                    }
                ]
            }
        ]
    },
    "profile": {
        "basic_info": {
            "baseFee": "21.883912174",
            "blockNumber": 16951269,
            "callData": "0xa9059cbb0000000000000000000000006cc5f688a315f3dc28a7781717a9a798a59fda7b000000000000000000000000000000000000000000014ca76b2804eaf4480000",
            "debugEnable": true,
            "errorInfo": "",
            "eventCount": 1,
            "feeRecipient": "0x4675c7e5baafbffbca748158becba61ef3b0a263",
            "formatValue": "0",
            "gasLimit": 100000,
            "gasPrice": "23.883912174",
            "gasUsed": 29719,
            "intTxnCount": 0,
            "internalRevert": false,
            "internalRevertMessage": "",
            "isContractCreation": false,
            "isFlashloan": false,
            "maxFee": "50",
            "nonce": 106,
            "overwritedBlockNumber": -1,
            "priorityFee": "2",
            "receiver": "0xc834fa996fa3bec7aad3693af486ae53d8aa8b50",
            "revertMessage": "",
            "sender": "0xcd851cd26afc9a2c0b933b805b3926e1101579b8",
            "simulationEnable": true,
            "sourceTxnHash": "0xfe7309755ca957c5d0f0b75bd419624c45fe1908b6d3066037fb6d56bd85e8b6",
            "status": true,
            "timestamp": "2023-04-01T02:15:11Z",
            "transactionFee": "0.000709805985899106",
            "txnHash": "0xfe7309755ca957c5d0f0b75bd419624c45fe1908b6d3066037fb6d56bd85e8b6",
            "txnIndex": 54,
            "type": 2,
            "value": "0"
        },
        "fund_flow": [
            {
                "amount": "1,570,914",
                "from": "0xcd851cd26afc9a2c0b933b805b3926e1101579b8",
                "id": 1,
                "isERC1155": false,
                "isERC721": false,
                "isReverted": false,
                "order": 1,
                "to": "0x6cc5f688a315f3dc28a7781717a9a798a59fda7b",
                "token": "0xc834fa996fa3bec7aad3693af486ae53d8aa8b50"
            }
        ],
        "token_infos": [
            {
                "address": "0xc02aaa39b223fe8d0a0e5c4f27ead9083c756cc2",
                "decimals": 18
            },
            {
                "address": "0xc834fa996fa3bec7aad3693af486ae53d8aa8b50",
                "decimals": 18
            },
            {
                "address": "0xeeeeeeeeeeeeeeeeeeeeeeeeeeeeeeeeeeeeeeee",
                "decimals": 18
            }
        ]
    },
    "address_label": {
        "labels": [
            {
                "address": "0xc834fa996fa3bec7aad3693af486ae53d8aa8b50",
                "label": "Convergence: CONV Token"
            },
            {
                "address": "0xcd851cd26afc9a2c0b933b805b3926e1101579b8",
                "label": "OKEX"
            },
            {
                "address": "0x0000000000000000000000000000000000000001",
                "label": "Precompiled"
            },
            {
                "address": "0x0000000000000000000000000000000000000002",
                "label": "Precompiled"
            },
            {
                "address": "0x0000000000000000000000000000000000000003",
                "label": "Precompiled"
            },
            {
                "address": "0x0000000000000000000000000000000000000004",
                "label": "Precompiled"
            },
            {
                "address": "0xeeeeeeeeeeeeeeeeeeeeeeeeeeeeeeeeeeeeeeee",
                "label": "Ether"
            },
            {
                "address": "0x6cc5f688a315f3dc28a7781717a9a798a59fda7b",
                "label": "OKX"
            }
        ]
    },
    "trace": {
        "accountLabels": null,
        "dataMap": {
            "-1": {
                "invocation": {
                    "address": "0xcd851cd26afc9a2c0b933b805b3926e1101579b8",
                    "callData": "",
                    "decodedMethod": null,
                    "errorInfo": "",
                    "fromAddress": "",
                    "gasUsed": 0,
                    "id": -1,
                    "methodDecoded": false,
                    "operation": "",
                    "output": "",
                    "revert": false,
                    "revertMessage": "",
                    "selector": "",
                    "status": false,
                    "value": ""
                },
                "nodeType": 0
            },
            "0": {
                "invocation": {
                    "address": "0xc834fa996fa3bec7aad3693af486ae53d8aa8b50",
                    "callData": "0x0000000000000000000000006cc5f688a315f3dc28a7781717a9a798a59fda7b000000000000000000000000000000000000000000014ca76b2804eaf4480000",
                    "decodedMethod": {
                        "callParams": [
                            {
                                "name": "recipient",
                                "type": "address",
                                "value": "0x6cc5f688a315f3dc28a7781717a9a798a59fda7b"
                            },
                            {
                                "decimalAvailable": true,
                                "name": "amount",
                                "type": "uint256",
                                "value": "1,570,914,000,000,000,000,000,000"
                            }
                        ],
                        "constructorArguments": "",
                        "name": "transfer",
                        "returnParams": [
                            {
                                "name": "",
                                "type": "bool",
                                "value": true
                            }
                        ],
                        "signature": "transfer(address,uint256)"
                    },
                    "errorInfo": "",
                    "fromAddress": "0xcd851cd26afc9a2c0b933b805b3926e1101579b8",
                    "gasUsed": 29719,
                    "id": 0,
                    "methodDecoded": true,
                    "operation": "CALL",
                    "output": "0x0000000000000000000000000000000000000000000000000000000000000001",
                    "revert": false,
                    "revertMessage": "",
                    "selector": "0xa9059cbb",
                    "status": true,
                    "value": "0"
                },
                "nodeType": 0
            },
            "1": {
                "event": {
                    "contract": "0xc834fa996fa3bec7aad3693af486ae53d8aa8b50",
                    "decodedLog": {
                        "name": "Transfer",
                        "params": [
                            {
                                "name": "from",
                                "type": "address",
                                "value": "0xcd851cd26afc9a2c0b933b805b3926e1101579b8"
                            },
                            {
                                "name": "to",
                                "type": "address",
                                "value": "0x6cc5f688a315f3dc28a7781717a9a798a59fda7b"
                            },
                            {
                                "decimalAvailable": true,
                                "name": "value",
                                "type": "uint256",
                                "value": "1,570,914,000,000,000,000,000,000"
                            }
                        ],
                        "signature": "Transfer(address,address,uint256)"
                    },
                    "id": 1,
                    "logData": "0x000000000000000000000000000000000000000000014ca76b2804eaf4480000",
                    "logDecoded": true,
                    "operation": "EVENT",
                    "revert": false,
                    "status": true,
                    "topics": [
                        "0xddf252ad1be2c89b69c2b068fc378daa952ba7f163c4a11628f55a4df523b3ef",
                        "0x000000000000000000000000cd851cd26afc9a2c0b933b805b3926e1101579b8",
                        "0x0000000000000000000000006cc5f688a315f3dc28a7781717a9a798a59fda7b"
                    ]
                },
                "nodeType": 1
            }
        },
        "gasFlame": [
            {
                "children": [
                    {
                        "children": [
                            {
                                "children": [],
                                "depth": 0,
                                "name": "Initial Gas",
                                "value": 21668
                            },
                            {
                                "children": [],
                                "depth": 0,
                                "name": "Executed Gas",
                                "value": 12851
                            }
                        ],
                        "depth": -1,
                        "name": "Actual Gas Used",
                        "value": 29719
                    },
                    {
                        "children": [],
                        "depth": -1,
                        "name": "Refunded Gas",
                        "value": 4800
                    }
                ],
                "depth": -2,
                "name": "Total Gas",
                "value": 34519
            }
        ],
        "isConfirmed": true,
        "mainTrace": [
            {
                "children": [
                    {
                        "children": [
                            {
                                "children": [],
                                "depth": 1,
                                "id": 1,
                                "order": 1
                            }
                        ],
                        "depth": 0,
                        "id": 0,
                        "order": 0
                    }
                ],
                "depth": -1,
                "id": -1,
                "order": -1
            }
        ],
        "mainTraceNodeCount": 2,
        "parentIdMap": {
            "0": -1,
            "1": 0
        },
        "tidyTrace": [
            {
                "children": [
                    {
                        "children": [
                            {
                                "children": [],
                                "depth": 1,
                                "id": 1,
                                "order": 1
                            }
                        ],
                        "depth": 0,
                        "id": 0,
                        "order": 0
                    }
                ],
                "depth": -1,
                "id": -1,
                "order": -1
            }
        ],
        "tidyTraceNodeCount": 2
    },
    "state_change": {
        "stateChanges": [
            {
                "address": "0xc834fa996fa3bec7aad3693af486ae53d8aa8b50",
                "erc": "ERC-20",
                "slots": [
                    {
                        "current": "0x0000000000000000000000000000000000000000000000000000000000000000",
                        "key": "0xe3b63a53c5083f8bf81a32fa4f3c1f537f1dd38ed54c3e376c1532a2af7949c4",
                        "prev": "0x000000000000000000000000000000000000000000014ca76b2804eaf4480000"
                    },
                    {
                        "current": "0x000000000000000000000000000000000000000004c85282b17a27758e9d4be5",
                        "key": "0xf320692c47514b5ff69503836be0506f1667cd3f5c074c801b2305e178ec6842",
                        "prev": "0x000000000000000000000000000000000000000004c705db4652228a9a554be5"
                    }
                ],
                "storageVariables": [
                    {
                        "name": "_balances",
                        "type": "mapping(address => uint256)",
                        "value": {
                            "pairs": [
                                {
                                    "key": "0x6cc5f688a315f3dc28a7781717a9a798a59fda7b",
                                    "value": {
                                        "current": "1480114848125208480718867429",
                                        "prev": "1478543934125208480718867429",
                                        "typeTag": 1
                                    }
                                },
                                {
                                    "key": "0xcd851cd26afc9a2c0b933b805b3926e1101579b8",
                                    "value": {
                                        "current": "0",
                                        "prev": "1570914000000000000000000",
                                        "typeTag": 1
                                    }
                                }
                            ],
                            "typeTag": 4
                        }
                    }
                ]
            }
        ]
    }
}