{
    "balance_change": {
        "balanceChanges": [
            {
                "account": "0xf1c9ee019ae6efbaac06d3c08b1cbaa59b1ecb48",
                "assets": [
                    {
                        "address": "0xeeeeeeeeeeeeeeeeeeeeeeeeeeeeeeeeeeeeeeee",
                        "amount": "0.041123076923076923",
                        "iconUrl": "https://assets.blocksec.com/image/1663669189317-3.png",
                        "isERC1155": false,
                        "isERC721": false,
                        "sign": false,
                        "value": ""
                    }
                ]
            },
            {
                "account": "0xa8a2e11c6cae88f06f678ced0c21dc37b51e5bad",
                "assets": [
                    {
                        "address": "0xeeeeeeeeeeeeeeeeeeeeeeeeeeeeeeeeeeeeeeee",
                        "amount": "0.041123076923076923",
                        "iconUrl": "https://assets.blocksec.com/image/1663669189317-3.png",
                        "isERC1155": false,
                        "isERC721": false,
                        "sign": true,
                        "value": ""
                    }
                ]
            }
        ]
    },
    "profile": {
        "basic_info": {
            "baseFee": "",
            "blockNumber": 8725343,
            "callData": "0xca722cdc2cee792859e9d2d7d3e6813b706624d9d9a1c657997c6121dfaa8e532d6d2d7ca61af4d471ddd610c34ab8053142f571b8c789bee2a88aea5697a17ba19d1bcf",
            "debugEnable": true,
            "errorInfo": "",
            "eventCount": 1,
            "feeRecipient": "0x5a0b54d5dc17e0aadc383d2db43b0a0d3e029c4c",
            "formatValue": "0",
            "gasLimit": 50000,
            "gasPrice": "1",
            "gasUsed": 33686,
            "intTxnCount": 1,
            "internalRevert": false,
            "internalRevertMessage": "",
            "isContractCreation": false,
            "isFlashloan": false,
            "maxFee": "",
            "nonce": 8588,
            "overwritedBlockNumber": -1,
            "priorityFee": "",
            "receiver": "0xf1c9ee019ae6efbaac06d3c08b1cbaa59b1ecb48",
            "revertMessage": "",
            "sender": "0xfc5998ae24dd8eccad7acbf1427002b94f3830fc",
            "simulationEnable": true,
            "sourceTxnHash": "0xff6c26455ceb33f201c2a4ad7eb479f03417cac8cbe3c83f3cb1d7119f1623bd",
            "status": true,
            "timestamp": "2019-10-12T07:10:46Z",
            "transactionFee": "0.000033686",
            "txnHash": "0xff6c26455ceb33f201c2a4ad7eb479f03417cac8cbe3c83f3cb1d7119f1623bd",
            "txnIndex": 19,
            "type": 0,
            "value": "0"
        },
        "fund_flow": [
            {
                "amount": "0.041123076923076923",
                "from": "0xf1c9ee019ae6efbaac06d3c08b1cbaa59b1ecb48",
                "id": 1,
                "isERC1155": false,
                "isERC721": false,
                "isReverted": false,
                "order": 1,
                "to": "0xa8a2e11c6cae88f06f678ced0c21dc37b51e5bad",
                "token": "0xeeeeeeeeeeeeeeeeeeeeeeeeeeeeeeeeeeeeeeee"
            }
        ],
        "token_infos": [
            {
                "address": "0xc02aaa39b223fe8d0a0e5c4f27ead9083c756cc2",
                "decimals": 18
            },
            {
                "address": "0xeeeeeeeeeeeeeeeeeeeeeeeeeeeeeeeeeeeeeeee",
                "decimals": 18
            }
        ]
    },
    "address_label": {
        "labels": [
            {
                "address": "0x0000000000000000000000000000000000000002",
                "label": "Precompiled"
            },
            {
                "address": "0x0000000000000000000000000000000000000003",
                "label": "Precompiled"
            },
            {
                "address": "0x0000000000000000000000000000000000000004",
                "label": "Precompiled"
            },
            {
                "address": "0xeeeeeeeeeeeeeeeeeeeeeeeeeeeeeeeeeeeeeeee",
                "label": "Ether"
            },
            {
                "address": "0xf1c9ee019ae6efbaac06d3c08b1cbaa59b1ecb48",
                "label": "FairCasino"
            },
            {
                "address": "0x0000000000000000000000000000000000000001",
                "label": "Precompiled"
            }
        ]
    },
    "trace": {
        "accountLabels": null,
        "dataMap": {
            "-1": {
                "invocation": {
                    "address": "0xfc5998ae24dd8eccad7acbf1427002b94f3830fc",
                    "callData": "",
                    "decodedMethod": null,
                    "errorInfo": "",
                    "fromAddress": "",
                    "gasUsed": 0,
                    "id": -1,
                    "methodDecoded": false,
                    "operation": "",
                    "output": "",
                    "revert": false,
                    "revertMessage": "",
                    "selector": "",
                    "status": false,
                    "value": ""
                },
                "nodeType": 0
            },
            "0": {
                "invocation": {
                    "address": "0xf1c9ee019ae6efbaac06d3c08b1cbaa59b1ecb48",
                    "callData": "0x2cee792859e9d2d7d3e6813b706624d9d9a1c657997c6121dfaa8e532d6d2d7ca61af4d471ddd610c34ab8053142f571b8c789bee2a88aea5697a17ba19d1bcf",
                    "decodedMethod": {
                        "callParams": [
                            {
                                "name": "reveal",
                                "type": "uint256",
                                "value": "20,323,111,138,255,788,313,838,459,530,712,987,834,310,738,596,530,624,698,399,075,205,420,805,860,732"
                            },
                            {
                                "name": "blockHash",
                                "type": "bytes32",
                                "value": "0xa61af4d471ddd610c34ab8053142f571b8c789bee2a88aea5697a17ba19d1bcf"
                            }
                        ],
                        "constructorArguments": "",
                        "name": "settleBet",
                        "returnParams": [],
                        "signature": "settleBet(uint256,bytes32)"
                    },
                    "errorInfo": "",
                    "fromAddress": "0xfc5998ae24dd8eccad7acbf1427002b94f3830fc",
                    "gasUsed": 33686,
                    "id": 0,
                    "methodDecoded": true,
                    "operation": "CALL",
                    "output": "",
                    "revert": false,
                    "revertMessage": "",
                    "selector": "0xca722cdc",
                    "status": true,
                    "value": "0"
                },
                "nodeType": 0
            },
            "1": {
                "invocation": {
                    "address": "0xa8a2e11c6cae88f06f678ced0c21dc37b51e5bad",
                    "callData": "0x",
                    "decodedMethod": null,
                    "errorInfo": "",
                    "fromAddress": "0xf1c9ee019ae6efbaac06d3c08b1cbaa59b1ecb48",
                    "gasUsed": 0,
                    "id": 1,
                    "methodDecoded": false,
                    "operation": "CALL",
                    "output": "",
                    "revert": false,
                    "revertMessage": "",
                    "selector": "fallback",
                    "status": true,
                    "value": "0.041123076923076923"
                },
                "nodeType": 0
            },
            "2": {
                "event": {
                    "contract": "0xf1c9ee019ae6efbaac06d3c08b1cbaa59b1ecb48",
                    "decodedLog": {
                        "name": "Payment",
                        "params": [
                            {
                                "name": "beneficiary",
                                "type": "address",
                                "value": "0xa8a2e11c6cae88f06f678ced0c21dc37b51e5bad"
                            },
                            {
                                "name": "amount",
                                "type": "uint256",
                                "value": "41,123,076,923,076,923"
                            }
                        ],
                        "signature": "Payment(address,uint256)"
                    },
                    "id": 2,
                    "logData": "0x000000000000000000000000000000000000000000000000009219387812313b",
                    "logDecoded": true,
                    "operation": "EVENT",
                    "revert": false,
                    "status": true,
                    "topics": [
                        "0xd4f43975feb89f48dd30cabbb32011045be187d1e11c8ea9faa43efc35282519",
                        "0x000000000000000000000000a8a2e11c6cae88f06f678ced0c21dc37b51e5bad"
                    ]
                },
                "nodeType": 1
            }
        },
        "gasFlame": [
            {
                "children": [
                    {
                        "children": [
                            {
                                "children": [],
                                "depth": 0,
                                "name": "Initial Gas",
                                "value": 25624
                            },
                            {
                                "children": [
                                    {
                                        "children": [],
                                        "depth": 1,
                                        "name": "fallback",
                                        "value": 0
                                    }
                                ],
                                "depth": 0,
                                "name": "Executed Gas",
                                "value": 23062
                            }
                        ],
                        "depth": -1,
                        "name": "Actual Gas Used",
                        "value": 33686
                    },
                    {
                        "children": [],
                        "depth": -1,
                        "name": "Refunded Gas",
                        "value": 15000
                    }
                ],
                "depth": -2,
                "name": "Total Gas",
                "value": 48686
            }
        ],
        "isConfirmed": true,
        "mainTrace": [
            {
                "children": [
                    {
                        "children": [
                            {
                                "children": [],
                                "depth": 1,
                                "id": 1,
                                "order": 1
                            },
                            {
                                "children": [],
                                "depth": 1,
                                "id": 2,
                                "order": 2
                            }
                        ],
                        "depth": 0,
                        "id": 0,
                        "order": 0
                    }
                ],
                "depth": -1,
                "id": -1,
                "order": -1
            }
        ],
        "mainTraceNodeCount": 3,
        "parentIdMap": {
            "0": -1,
            "1": 0,
            "2": 0
        },
        "tidyTrace": [
            {
                "children": [
                    {
                        "children": [
                            {
                                "children": [],
                                "depth": 1,
                                "id": 1,
                                "order": 1
                            },
                            {
                                "children": [],
                                "depth": 1,
                                "id": 2,
                                "order": 2
                            }
                        ],
                        "depth": 0,
                        "id": 0,
                        "order": 0
                    }
                ],
                "depth": -1,
                "id": -1,
                "order": -1
            }
        ],
        "tidyTraceNodeCount": 3
    },
    "state_change": {
        "stateChanges": [
            {
                "address": "0xf1c9ee019ae6efbaac06d3c08b1cbaa59b1ecb48",
                "erc": "",
                "slots": [
                    {
                        "current": "0x0000000000000000000000000000000000000000000000000000000000000000",
                        "key": "0x7f5cdfb6facf5ce2eac9ab170d4f4f07ac791e37df528b7271b6fce0a0eaed28",
                        "prev": "0x000000000000000000000000000000000000000000000000006a94d74f430000"
                    },
                    {
                        "current": "0x000000000000000009cacb762984000000000000000000000d80ca5846748000",
                        "key": "0x0000000000000000000000000000000000000000000000000000000000000004",
                        "prev": "0x00000000000000000a5ce4aea196313b00000000000000000d80ca5846748000"
                    }
                ],
                "storageVariables": [
                    {
                        "name": "bets",
                        "type": "mapping(uint256 => struct FairCasino.Bet)",
                        "value": {
                            "pairs": [
                                {
                                    "key": "108709371697145282047322068064612921874387525087171079454881104039058237742582",
                                    "value": {
                                        "fields": [
                                            {
                                                "name": "amount",
                                                "type": "uint256",
                                                "value": {
                                                    "current": "0",
                                                    "prev": "30000000000000000",
                                                    "typeTag": 1
                                                }
                                            }
                                        ],
                                        "typeTag": 3
                                    }
                                }
                            ],
                            "typeTag": 4
                        }
                    },
                    {
                        "name": "jackpotSize",
                        "type": "uint128",
                        "value": {
                            "current": "973000000000000000",
                            "prev": "973000000000000000",
                            "typeTag": 1
                        }
                    },
                    {
                        "name": "lockedInBets",
                        "type": "uint128",
                        "value": {
                            "current": "705600000000000000",
                            "prev": "746723076923076923",
                            "typeTag": 1
                        }
                    }
                ]
            }
        ]
    }
}