{
    "balance_change": {
        "balanceChanges": []
    },
    "profile": {
        "basic_info": {
            "baseFee": "",
            "blockNumber": 1179541,
            "callData": "0x75090ebf00000000000000000000000000000000000000000000000000005a616772656200000000000000000000000000000000000000000000000000000000001e848000000000000000000000000000000000000000000000000000000000000000000000000000000000000000000000000000000000000000000000000000000000",
            "debugEnable": true,
            "errorInfo": "",
            "eventCount": 1,
            "feeRecipient": "0x000a4e0c3fcfd7254a32f07d6b4e633e4f17c02d",
            "formatValue": "0",
            "gasLimit": 200000,
            "gasPrice": "50",
            "gasUsed": 105120,
            "intTxnCount": 0,
            "internalRevert": false,
            "internalRevertMessage": "",
            "isContractCreation": false,
            "isFlashloan": false,
            "maxFee": "",
            "nonce": 4247,
            "overwritedBlockNumber": -1,
            "priorityFee": "",
            "receiver": "0x3589d05a1ec4af9f65b0e5554e645707775ee43c",
            "revertMessage": "",
            "sender": "0xfeb92d30bf01ff9a1901666c5573532bfa07eeec",
            "simulationEnable": true,
            "sourceTxnHash": "0xff8a4d063829615ac589120d2271aa8d096411deef8ef0d5e8ea24b67c1bcbcc",
            "status": true,
            "timestamp": "2016-03-19T17:13:02Z",
            "transactionFee": "0.005256",
            "txnHash": "0xff8a4d063829615ac589120d2271aa8d096411deef8ef0d5e8ea24b67c1bcbcc",
            "txnIndex": 0,
            "type": 0,
            "value": "0"
        },
        "fund_flow": [],
        "token_infos": [
            {
                "address": "0xc02aaa39b223fe8d0a0e5c4f27ead9083c756cc2",
                "decimals": 18
            },
            {
                "address": "0xeeeeeeeeeeeeeeeeeeeeeeeeeeeeeeeeeeeeeeee",
                "decimals": 18
            }
        ]
    },
    "address_label": {
        "labels": [
            {
                "address": "0x0000000000000000000000000000000000000002",
                "label": "Precompiled"
            },
            {
                "address": "0x0000000000000000000000000000000000000003",
                "label": "Precompiled"
            },
            {
                "address": "0x0000000000000000000000000000000000000004",
                "label": "Precompiled"
            },
            {
                "address": "0xeeeeeeeeeeeeeeeeeeeeeeeeeeeeeeeeeeeeeeee",
                "label": "Ether"
            },
            {
                "address": "0x0000000000000000000000000000000000000000",
                "label": "Null Address"
            },
            {
                "address": "0x0000000000000000000000000000000000000001",
                "label": "Precompiled"
            }
        ]
    },
    "trace": {
        "accountLabels": null,
        "dataMap": {
            "-1": {
                "invocation": {
                    "address": "0xfeb92d30bf01ff9a1901666c5573532bfa07eeec",
                    "callData": "",
                    "decodedMethod": null,
                    "errorInfo": "",
                    "fromAddress": "",
                    "gasUsed": 0,
                    "id": -1,
                    "methodDecoded": false,
                    "operation": "",
                    "output": "",
                    "revert": false,
                    "revertMessage": "",
                    "selector": "",
                    "status": false,
                    "value": ""
                },
                "nodeType": 0
            },
            "0": {
                "invocation": {
                    "address": "0x3589d05a1ec4af9f65b0e5554e645707775ee43c",
                    "callData": "0x00000000000000000000000000000000000000000000000000005a616772656200000000000000000000000000000000000000000000000000000000001e848000000000000000000000000000000000000000000000000000000000000000000000000000000000000000000000000000000000000000000000000000000000",
                    "decodedMethod": {
                        "callParams": [
                            {
                                "name": "domain",
                                "type": "uint256",
                                "value": "99,374,393,877,858"
                            },
                            {
                                "name": "expires",
                                "type": "uint256",
                                "value": "2,000,000"
                            },
                            {
                                "name": "price",
                                "type": "uint256",
                                "value": "0"
                            },
                            {
                                "name": "transfer",
                                "type": "address",
                                "value": "0x0000000000000000000000000000000000000000"
                            }
                        ],
                        "constructorArguments": "",
                        "name": "changeDomain",
                        "returnParams": [],
                        "signature": "changeDomain(uint256,uint256,uint256,address)"
                    },
                    "errorInfo": "",
                    "fromAddress": "0xfeb92d30bf01ff9a1901666c5573532bfa07eeec",
                    "gasUsed": 105120,
                    "id": 0,
                    "methodDecoded": true,
                    "operation": "CALL",
                    "output": "",
                    "revert": false,
                    "revertMessage": "",
                    "selector": "0x75090ebf",
                    "status": true,
                    "value": "0"
                },
                "nodeType": 0
            },
            "1": {
                "event": {
                    "contract": "0x3589d05a1ec4af9f65b0e5554e645707775ee43c",
                    "decodedLog": {
                        "name": "DomainChanged",
                        "params": [
                            {
                                "name": "sender",
                                "type": "address",
                                "value": "0xfeb92d30bf01ff9a1901666c5573532bfa07eeec"
                            },
                            {
                                "name": "domain",
                                "type": "uint256",
                                "value": "99,374,393,877,858"
                            },
                            {
                                "name": "id",
                                "type": "uint256",
                                "value": "0"
                            }
                        ],
                        "signature": "DomainChanged(address,uint256,uint256)"
                    },
                    "id": 1,
                    "logData": "0x00000000000000000000000000000000000000000000000000005a61677265620000000000000000000000000000000000000000000000000000000000000000",
                    "logDecoded": true,
                    "operation": "EVENT",
                    "revert": false,
                    "status": true,
                    "topics": [
                        "0xf10cb5dcb691bb26c2685b3fd72f4ca4008c33eafd1ee88c27210ef1db722459",
                        "0x000000000000000000000000feb92d30bf01ff9a1901666c5573532bfa07eeec"
                    ]
                },
                "nodeType": 1
            }
        },
        "gasFlame": [
            {
                "children": [
                    {
                        "children": [
                            {
                                "children": [],
                                "depth": 0,
                                "name": "Initial Gas",
                                "value": 22360
                            },
                            {
                                "children": [],
                                "depth": 0,
                                "name": "Executed Gas",
                                "value": 82760
                            }
                        ],
                        "depth": -1,
                        "name": "Actual Gas Used",
                        "value": 105120
                    },
                    {
                        "children": [],
                        "depth": -1,
                        "name": "Refunded Gas",
                        "value": 0
                    }
                ],
                "depth": -2,
                "name": "Total Gas",
                "value": 105120
            }
        ],
        "isConfirmed": true,
        "mainTrace": [
            {
                "children": [
                    {
                        "children": [
                            {
                                "children": [],
                                "depth": 1,
                                "id": 1,
                                "order": 1
                            }
                        ],
                        "depth": 0,
                        "id": 0,
                        "order": 0
                    }
                ],
                "depth": -1,
                "id": -1,
                "order": -1
            }
        ],
        "mainTraceNodeCount": 2,
        "parentIdMap": {
            "0": -1,
            "1": 0
        },
        "tidyTrace": [
            {
                "children": [
                    {
                        "children": [
                            {
                                "children": [],
                                "depth": 1,
                                "id": 1,
                                "order": 1
                            }
                        ],
                        "depth": 0,
                        "id": 0,
                        "order": 0
                    }
                ],
                "depth": -1,
                "id": -1,
                "order": -1
            }
        ],
        "tidyTraceNodeCount": 2
    },
    "state_change": {
        "stateChanges": [
            {
                "address": "0x3589d05a1ec4af9f65b0e5554e645707775ee43c",
                "erc": "",
                "slots": [
                    {
                        "current": "0x00000000000000000000000000000000000000000000000000005a6167726562",
                        "key": "0x0000000000000000000000000000000000000000000000000000000000000001",
                        "prev": "0x000000000000000000000000000000000000000000000000007965726576616e"
                    },
                    {
                        "current": "0x0000000000000000000000000000000000000000000000000000000000005ef8",
                        "key": "0x0000000000000000000000000000000000000000000000000000000000000000",
                        "prev": "0x0000000000000000000000000000000000000000000000000000000000005ef7"
                    },
                    {
                        "current": "0x000000000000000000000000feb92d30bf01ff9a1901666c5573532bfa07eeec",
                        "key": "0xde0f623bcdaf49848ce3b05cf9b3fa508008568baac7fd72c04af89ce8cf308b",
                        "prev": "0x0000000000000000000000000000000000000000000000000000000000000000"
                    },
                    {
                        "current": "0x0000000000000000000000000000000000000000000000000000000000308415",
                        "key": "0xde0f623bcdaf49848ce3b05cf9b3fa508008568baac7fd72c04af89ce8cf308c",
                        "prev": "0x0000000000000000000000000000000000000000000000000000000000000000"
                    },
                    {
                        "current": "0x000000000000000000000000000000000000000000000000007965726576616e",
                        "key": "0xde0f623bcdaf49848ce3b05cf9b3fa508008568baac7fd72c04af89ce8cf308f",
                        "prev": "0x0000000000000000000000000000000000000000000000000000000000000000"
                    }
                ],
                "storageVariables": []
            }
        ]
    }
}