{
    "balance_change": {
        "balanceChanges": [
            {
                "account": "0xbdf418e227bfaae94232b1d693e4a2448f11b14b",
                "assets": [
                    {
                        "address": "0x93190dbce9b9bd4aa546270a8d1d65905b5fdd28",
                        "amount": "1,185",
                        "iconUrl": "https://assets.blocksec.com/icon/ddf89ac78640bdc580c47032bfb97dbca7a606a5ab97de2c3249b8123e020205.png",
                        "isERC1155": false,
                        "isERC721": false,
                        "sign": false,
                        "value": ""
                    }
                ]
            },
            {
                "account": "0x0000000000000000000000000000000000000000",
                "assets": [
                    {
                        "address": "0x93190dbce9b9bd4aa546270a8d1d65905b5fdd28",
                        "amount": "1,185",
                        "iconUrl": "https://assets.blocksec.com/icon/ddf89ac78640bdc580c47032bfb97dbca7a606a5ab97de2c3249b8123e020205.png",
                        "isERC1155": false,
                        "isERC721": false,
                        "sign": true,
                        "value": ""
                    }
                ]
            }
        ]
    },
    "profile": {
        "basic_info": {
            "baseFee": "",
            "blockNumber": 8701783,
            "callData": "0xa9059cbb00000000000000000000000000000000000000000000000000000000000000000000000000000000000000000000000000000000000000403d2db599d5e40000",
            "debugEnable": true,
            "errorInfo": "",
            "eventCount": 1,
            "feeRecipient": "0xd7a15baeb7ea05c9660cbe03fb7999c2c2e57625",
            "formatValue": "0",
            "gasLimit": 35281,
            "gasPrice": "10",
            "gasUsed": 20281,
            "intTxnCount": 0,
            "internalRevert": false,
            "internalRevertMessage": "",
            "isContractCreation": false,
            "isFlashloan": false,
            "maxFee": "",
            "nonce": 0,
            "overwritedBlockNumber": -1,
            "priorityFee": "",
            "receiver": "0x93190dbce9b9bd4aa546270a8d1d65905b5fdd28",
            "revertMessage": "",
            "sender": "0xbdf418e227bfaae94232b1d693e4a2448f11b14b",
            "simulationEnable": true,
            "sourceTxnHash": "0xffd5d9294e3cb2db7b6253d19c5c4855cf80b4e6236222c28031812da59b3fa0",
            "status": true,
            "timestamp": "2019-10-08T14:13:11Z",
            "transactionFee": "0.00020281",
            "txnHash": "0xffd5d9294e3cb2db7b6253d19c5c4855cf80b4e6236222c28031812da59b3fa0",
            "txnIndex": 136,
            "type": 0,
            "value": "0"
        },
        "fund_flow": [
            {
                "amount": "1,185",
                "from": "0xbdf418e227bfaae94232b1d693e4a2448f11b14b",
                "id": 1,
                "isERC1155": false,
                "isERC721": false,
                "isReverted": false,
                "order": 1,
                "to": "0x0000000000000000000000000000000000000000",
                "token": "0x93190dbce9b9bd4aa546270a8d1d65905b5fdd28"
            }
        ],
        "token_infos": [
            {
                "address": "0x93190dbce9b9bd4aa546270a8d1d65905b5fdd28",
                "decimals": 18
            },
            {
                "address": "0xc02aaa39b223fe8d0a0e5c4f27ead9083c756cc2",
                "decimals": 18
            },
            {
                "address": "0xeeeeeeeeeeeeeeeeeeeeeeeeeeeeeeeeeeeeeeee",
                "decimals": 18
            }
        ]
    },
    "address_label": {
        "labels": [
            {
                "address": "0x93190dbce9b9bd4aa546270a8d1d65905b5fdd28",
                "label": "DAPS Token"
            },
            {
                "address": "0x0000000000000000000000000000000000000001",
                "label": "Precompiled"
            },
            {
                "address": "0x0000000000000000000000000000000000000002",
                "label": "Precompiled"
            },
            {
                "address": "0x0000000000000000000000000000000000000003",
                "label": "Precompiled"
            },
            {
                "address": "0x0000000000000000000000000000000000000004",
                "label": "Precompiled"
            },
            {
                "address": "0xeeeeeeeeeeeeeeeeeeeeeeeeeeeeeeeeeeeeeeee",
                "label": "Ether"
            },
            {
                "address": "0x0000000000000000000000000000000000000000",
                "label": "Null Address"
            }
        ]
    },
    "trace": {
        "accountLabels": null,
        "dataMap": {
            "-1": {
                "invocation": {
                    "address": "0xbdf418e227bfaae94232b1d693e4a2448f11b14b",
                    "callData": "",
                    "decodedMethod": null,
                    "errorInfo": "",
                    "fromAddress": "",
                    "gasUsed": 0,
                    "id": -1,
                    "methodDecoded": false,
                    "operation": "",
                    "output": "",
                    "revert": false,
                    "revertMessage": "",
                    "selector": "",
                    "status": false,
                    "value": ""
                },
                "nodeType": 0
            },
            "0": {
                "invocation": {
                    "address": "0x93190dbce9b9bd4aa546270a8d1d65905b5fdd28",
                    "callData": "0x00000000000000000000000000000000000000000000000000000000000000000000000000000000000000000000000000000000000000403d2db599d5e40000",
                    "decodedMethod": {
                        "callParams": [
                            {
                                "name": "to",
                                "type": "address",
                                "value": "0x0000000000000000000000000000000000000000"
                            },
                            {
                                "decimalAvailable": true,
                                "name": "tokens",
                                "type": "uint256",
                                "value": "1,185,000,000,000,000,000,000"
                            }
                        ],
                        "constructorArguments": "",
                        "name": "transfer",
                        "returnParams": [
                            {
                                "name": "success",
                                "type": "bool",
                                "value": true
                            }
                        ],
                        "signature": "transfer(address,uint256)"
                    },
                    "errorInfo": "",
                    "fromAddress": "0xbdf418e227bfaae94232b1d693e4a2448f11b14b",
                    "gasUsed": 20281,
                    "id": 0,
                    "methodDecoded": true,
                    "operation": "CALL",
                    "output": "0x0000000000000000000000000000000000000000000000000000000000000001",
                    "revert": false,
                    "revertMessage": "",
                    "selector": "0xa9059cbb",
                    "status": true,
                    "value": "0"
                },
                "nodeType": 0
            },
            "1": {
                "event": {
                    "contract": "0x93190dbce9b9bd4aa546270a8d1d65905b5fdd28",
                    "decodedLog": {
                        "name": "Transfer",
                        "params": [
                            {
                                "name": "from",
                                "type": "address",
                                "value": "0xbdf418e227bfaae94232b1d693e4a2448f11b14b"
                            },
                            {
                                "name": "to",
                                "type": "address",
                                "value": "0x0000000000000000000000000000000000000000"
                            },
                            {
                                "decimalAvailable": true,
                                "name": "tokens",
                                "type": "uint256",
                                "value": "1,185,000,000,000,000,000,000"
                            }
                        ],
                        "signature": "Transfer(address,address,uint256)"
                    },
                    "id": 1,
                    "logData": "0x0000000000000000000000000000000000000000000000403d2db599d5e40000",
                    "logDecoded": true,
                    "operation": "EVENT",
                    "revert": false,
                    "status": true,
                    "topics": [
                        "0xddf252ad1be2c89b69c2b068fc378daa952ba7f163c4a11628f55a4df523b3ef",
                        "0x000000000000000000000000bdf418e227bfaae94232b1d693e4a2448f11b14b",
                        "0x0000000000000000000000000000000000000000000000000000000000000000"
                    ]
                },
                "nodeType": 1
            }
        },
        "gasFlame": [
            {
                "children": [
                    {
                        "children": [
                            {
                                "children": [],
                                "depth": 0,
                                "name": "Initial Gas",
                                "value": 21976
                            },
                            {
                                "children": [],
                                "depth": 0,
                                "name": "Executed Gas",
                                "value": 13305
                            }
                        ],
                        "depth": -1,
                        "name": "Actual Gas Used",
                        "value": 20281
                    },
                    {
                        "children": [],
                        "depth": -1,
                        "name": "Refunded Gas",
                        "value": 15000
                    }
                ],
                "depth": -2,
                "name": "Total Gas",
                "value": 35281
            }
        ],
        "isConfirmed": true,
        "mainTrace": [
            {
                "children": [
                    {
                        "children": [
                            {
                                "children": [],
                                "depth": 1,
                                "id": 1,
                                "order": 1
                            }
                        ],
                        "depth": 0,
                        "id": 0,
                        "order": 0
                    }
                ],
                "depth": -1,
                "id": -1,
                "order": -1
            }
        ],
        "mainTraceNodeCount": 2,
        "parentIdMap": {
            "0": -1,
            "1": 0
        },
        "tidyTrace": [
            {
                "children": [
                    {
                        "children": [
                            {
                                "children": [],
                                "depth": 1,
                                "id": 1,
                                "order": 1
                            }
                        ],
                        "depth": 0,
                        "id": 0,
                        "order": 0
                    }
                ],
                "depth": -1,
                "id": -1,
                "order": -1
            }
        ],
        "tidyTraceNodeCount": 2
    },
    "state_change": {
        "stateChanges": [
            {
                "address": "0x93190dbce9b9bd4aa546270a8d1d65905b5fdd28",
                "erc": "ERC-20",
                "slots": [
                    {
                        "current": "0x0000000000000000000000000000000000000000000000000000000000000000",
                        "key": "0x9876b4e1e1ba786e7b0de5cd61d0b3fd93a3d6ea36f11a7d47a56bf6bff3de96",
                        "prev": "0x0000000000000000000000000000000000000000000000403d2db599d5e40000"
                    },
                    {
                        "current": "0x000000000000000000000000000000000000000045348243e561ad0c508f8301",
                        "key": "0x54cdd369e4e8a8515e52ca72ec816c2101831ad1f18bf44102ed171459c9b4f8",
                        "prev": "0x000000000000000000000000000000000000000045348203a833f7727aab8301"
                    }
                ],
                "storageVariables": [
                    {
                        "name": "balances",
                        "type": "mapping(address => uint256)",
                        "value": {
                            "pairs": [
                                {
                                    "key": "0x0000000000000000000000000000000000000000",
                                    "value": {
                                        "current": "21417944980396078827341579009",
                                        "prev": "21417943795396078827341579009",
                                        "typeTag": 1
                                    }
                                },
                                {
                                    "key": "0xbdf418e227bfaae94232b1d693e4a2448f11b14b",
                                    "value": {
                                        "current": "0",
                                        "prev": "1185000000000000000000",
                                        "typeTag": 1
                                    }
                                }
                            ],
                            "typeTag": 4
                        }
                    }
                ]
            }
        ]
    }
}