{
    "balance_change": {
        "balanceChanges": [
            {
                "account": "0x733d15099a3382d60925884995dd8d53804a6d3b",
                "assets": [
                    {
                        "address": "0xd533a949740bb3306d119cc777fa900ba034cd52",
                        "amount": "228.637767854187553407",
                        "iconUrl": "",
                        "isERC1155": false,
                        "isERC721": false,
                        "sign": true,
                        "value": ""
                    }
                ]
            },
            {
                "account": "0x0000000000000000000000000000000000000000",
                "assets": [
                    {
                        "address": "0xd533a949740bb3306d119cc777fa900ba034cd52",
                        "amount": "228.637767854187553407",
                        "iconUrl": "",
                        "isERC1155": false,
                        "isERC721": false,
                        "sign": false,
                        "value": ""
                    }
                ]
            }
        ]
    },
    "profile": {
        "basic_info": {
            "baseFee": "",
            "blockNumber": 10803142,
            "callData": "0x6a627842000000000000000000000000b1f2cdec61db658f091671f5f199635aef202cac",
            "debugEnable": true,
            "errorInfo": "",
            "eventCount": 3,
            "feeRecipient": "0x04668ec2f57cc15c381b461b9fedab5d451c8f7f",
            "formatValue": "0",
            "gasLimit": 297010,
            "gasPrice": "310",
            "gasUsed": 193569,
            "intTxnCount": 10,
            "internalRevert": false,
            "internalRevertMessage": "",
            "isContractCreation": false,
            "isFlashloan": false,
            "maxFee": "",
            "nonce": 309,
            "overwritedBlockNumber": -1,
            "priorityFee": "",
            "receiver": "0xd061d61a4d941c39e5453435b6345dc261c2fce0",
            "revertMessage": "",
            "sender": "0x733d15099a3382d60925884995dd8d53804a6d3b",
            "simulationEnable": true,
            "sourceTxnHash": "0xff63f7a115d3e0c2f514c3732b2d6a0b5061e2170f6f1266b725407e53a9cc02",
            "status": true,
            "timestamp": "2020-09-05T18:48:30Z",
            "transactionFee": "0.06000639",
            "txnHash": "0xff63f7a115d3e0c2f514c3732b2d6a0b5061e2170f6f1266b725407e53a9cc02",
            "txnIndex": 28,
            "type": 0,
            "value": "0"
        },
        "fund_flow": [
            {
                "amount": "228.637767854187553407",
                "from": "0x0000000000000000000000000000000000000000",
                "id": 1,
                "isERC1155": false,
                "isERC721": false,
                "isReverted": false,
                "order": 1,
                "to": "0x733d15099a3382d60925884995dd8d53804a6d3b",
                "token": "0xd533a949740bb3306d119cc777fa900ba034cd52"
            }
        ],
        "token_infos": [
            {
                "address": "0xc02aaa39b223fe8d0a0e5c4f27ead9083c756cc2",
                "decimals": 18
            },
            {
                "address": "0xd533a949740bb3306d119cc777fa900ba034cd52",
                "decimals": 18
            },
            {
                "address": "0xeeeeeeeeeeeeeeeeeeeeeeeeeeeeeeeeeeeeeeee",
                "decimals": 18
            }
        ]
    },
    "address_label": {
        "labels": [
            {
                "address": "0x5f3b5dfeb7b28cdbd7faba78963ee202a494e2a2",
                "label": "Curve.fi: Voting Escrow"
            },
            {
                "address": "0xd061d61a4d941c39e5453435b6345dc261c2fce0",
                "label": "Curve.fi: Token Minter"
            },
            {
                "address": "0x0000000000000000000000000000000000000004",
                "label": "Precompiled"
            },
            {
                "address": "0x0000000000000000000000000000000000000001",
                "label": "Precompiled"
            },
            {
                "address": "0x0000000000000000000000000000000000000002",
                "label": "Precompiled"
            },
            {
                "address": "0x0000000000000000000000000000000000000003",
                "label": "Precompiled"
            },
            {
                "address": "0xeeeeeeeeeeeeeeeeeeeeeeeeeeeeeeeeeeeeeeee",
                "label": "Ether"
            },
            {
                "address": "0xd533a949740bb3306d119cc777fa900ba034cd52",
                "label": "Curve.fi: CRV Token"
            },
            {
                "address": "0x2f50d538606fa9edd2b11e2446beb18c9d5846bb",
                "label": "Curve.fi: Gauge Controller"
            },
            {
                "address": "0xb1f2cdec61db658f091671f5f199635aef202cac",
                "label": "Curve.fi: renBTC Liquidity Gauge"
            }
        ]
    },
    "trace": {
        "accountLabels": null,
        "dataMap": {
            "-1": {
                "invocation": {
                    "address": "0x733d15099a3382d60925884995dd8d53804a6d3b",
                    "callData": "",
                    "decodedMethod": null,
                    "errorInfo": "",
                    "fromAddress": "",
                    "gasUsed": 0,
                    "id": -1,
                    "methodDecoded": false,
                    "operation": "",
                    "output": "",
                    "revert": false,
                    "revertMessage": "",
                    "selector": "",
                    "status": false,
                    "value": ""
                },
                "nodeType": 0
            },
            "0": {
                "invocation": {
                    "address": "0xd061d61a4d941c39e5453435b6345dc261c2fce0",
                    "callData": "0x000000000000000000000000b1f2cdec61db658f091671f5f199635aef202cac",
                    "decodedMethod": {
                        "callParams": [
                            {
                                "name": "to",
                                "type": "address",
                                "value": "0xb1f2cdec61db658f091671f5f199635aef202cac"
                            }
                        ],
                        "constructorArguments": "",
                        "name": "mint",
                        "returnParams": [],
                        "signature": "mint(address)"
                    },
                    "errorInfo": "",
                    "fromAddress": "0x733d15099a3382d60925884995dd8d53804a6d3b",
                    "gasUsed": 193569,
                    "id": 0,
                    "methodDecoded": true,
                    "operation": "CALL",
                    "output": "",
                    "revert": false,
                    "revertMessage": "",
                    "selector": "0x6a627842",
                    "status": true,
                    "value": "0"
                },
                "nodeType": 0
            },
            "1": {
                "invocation": {
                    "address": "0x2f50d538606fa9edd2b11e2446beb18c9d5846bb",
                    "callData": "0x000000000000000000000000b1f2cdec61db658f091671f5f199635aef202cac",
                    "decodedMethod": {
                        "callParams": [
                            {
                                "name": "_addr",
                                "type": "address",
                                "value": "0xb1f2cdec61db658f091671f5f199635aef202cac"
                            }
                        ],
                        "constructorArguments": "",
                        "name": "gauge_types",
                        "returnParams": [
                            {
                                "name": "",
                                "type": "int128",
                                "value": "0"
                            }
                        ],
                        "signature": "gauge_types(address)"
                    },
                    "errorInfo": "",
                    "fromAddress": "0xd061d61a4d941c39e5453435b6345dc261c2fce0",
                    "gasUsed": 1262,
                    "id": 1,
                    "methodDecoded": true,
                    "operation": "STATICCALL",
                    "output": "0x0000000000000000000000000000000000000000000000000000000000000000",
                    "revert": false,
                    "revertMessage": "",
                    "selector": "0x3f9095b7",
                    "status": true,
                    "value": "0"
                },
                "nodeType": 0
            },
            "10": {
                "invocation": {
                    "address": "0xb1f2cdec61db658f091671f5f199635aef202cac",
                    "callData": "0x000000000000000000000000733d15099a3382d60925884995dd8d53804a6d3b",
                    "decodedMethod": {
                        "callParams": [
                            {
                                "name": "arg0",
                                "type": "address",
                                "value": "0x733d15099a3382d60925884995dd8d53804a6d3b"
                            }
                        ],
                        "constructorArguments": "",
                        "name": "integrate_fraction",
                        "returnParams": [
                            {
                                "name": "",
                                "type": "uint256",
                                "value": "1,852,883,717,293,810,526,113"
                            }
                        ],
                        "signature": "integrate_fraction(address)"
                    },
                    "errorInfo": "",
                    "fromAddress": "0xd061d61a4d941c39e5453435b6345dc261c2fce0",
                    "gasUsed": 1824,
                    "id": 10,
                    "methodDecoded": true,
                    "operation": "STATICCALL",
                    "output": "0x00000000000000000000000000000000000000000000006471ed53e14ae227a1",
                    "revert": false,
                    "revertMessage": "",
                    "selector": "0x09400707",
                    "status": true,
                    "value": "0"
                },
                "nodeType": 0
            },
            "11": {
                "invocation": {
                    "address": "0xd533a949740bb3306d119cc777fa900ba034cd52",
                    "callData": "0x000000000000000000000000733d15099a3382d60925884995dd8d53804a6d3b00000000000000000000000000000000000000000000000c64fc867d1313227f",
                    "decodedMethod": {
                        "callParams": [
                            {
                                "name": "to",
                                "type": "address",
                                "value": "0x733d15099a3382d60925884995dd8d53804a6d3b"
                            },
                            {
                                "name": "amount",
                                "type": "uint256",
                                "value": "228,637,767,854,187,553,407"
                            }
                        ],
                        "constructorArguments": "",
                        "name": "mint",
                        "returnParams": [],
                        "signature": "mint(address,uint256)"
                    },
                    "errorInfo": "",
                    "fromAddress": "0xd061d61a4d941c39e5453435b6345dc261c2fce0",
                    "gasUsed": 33612,
                    "id": 11,
                    "methodDecoded": true,
                    "operation": "CALL",
                    "output": "0x0000000000000000000000000000000000000000000000000000000000000001",
                    "revert": false,
                    "revertMessage": "",
                    "selector": "0x40c10f19",
                    "status": true,
                    "value": "0"
                },
                "nodeType": 0
            },
            "12": {
                "event": {
                    "contract": "0xd533a949740bb3306d119cc777fa900ba034cd52",
                    "decodedLog": {
                        "name": "Transfer",
                        "params": [
                            {
                                "name": "from",
                                "type": "address",
                                "value": "0x0000000000000000000000000000000000000000"
                            },
                            {
                                "name": "to",
                                "type": "address",
                                "value": "0x733d15099a3382d60925884995dd8d53804a6d3b"
                            },
                            {
                                "decimalAvailable": true,
                                "name": "value",
                                "type": "uint256",
                                "value": "228,637,767,854,187,553,407"
                            }
                        ],
                        "signature": "Transfer(address,address,uint256)"
                    },
                    "id": 12,
                    "logData": "0x00000000000000000000000000000000000000000000000c64fc867d1313227f",
                    "logDecoded": true,
                    "operation": "EVENT",
                    "revert": false,
                    "status": true,
                    "topics": [
                        "0xddf252ad1be2c89b69c2b068fc378daa952ba7f163c4a11628f55a4df523b3ef",
                        "0x0000000000000000000000000000000000000000000000000000000000000000",
                        "0x000000000000000000000000733d15099a3382d60925884995dd8d53804a6d3b"
                    ]
                },
                "nodeType": 1
            },
            "13": {
                "event": {
                    "contract": "0xd061d61a4d941c39e5453435b6345dc261c2fce0",
                    "decodedLog": {
                        "name": "Minted",
                        "params": [
                            {
                                "name": "recipient",
                                "type": "address",
                                "value": "0x733d15099a3382d60925884995dd8d53804a6d3b"
                            },
                            {
                                "name": "gauge",
                                "type": "address",
                                "value": "0xb1f2cdec61db658f091671f5f199635aef202cac"
                            },
                            {
                                "name": "minted",
                                "type": "uint256",
                                "value": "1,852,883,717,293,810,526,113"
                            }
                        ],
                        "signature": "Minted(address,address,uint256)"
                    },
                    "id": 13,
                    "logData": "0x000000000000000000000000b1f2cdec61db658f091671f5f199635aef202cac00000000000000000000000000000000000000000000006471ed53e14ae227a1",
                    "logDecoded": true,
                    "operation": "EVENT",
                    "revert": false,
                    "status": true,
                    "topics": [
                        "0x9d228d69b5fdb8d273a2336f8fb8612d039631024ea9bf09c424a9503aa078f0",
                        "0x000000000000000000000000733d15099a3382d60925884995dd8d53804a6d3b"
                    ]
                },
                "nodeType": 1
            },
            "2": {
                "invocation": {
                    "address": "0xb1f2cdec61db658f091671f5f199635aef202cac",
                    "callData": "0x000000000000000000000000733d15099a3382d60925884995dd8d53804a6d3b",
                    "decodedMethod": {
                        "callParams": [
                            {
                                "name": "addr",
                                "type": "address",
                                "value": "0x733d15099a3382d60925884995dd8d53804a6d3b"
                            }
                        ],
                        "constructorArguments": "",
                        "name": "user_checkpoint",
                        "returnParams": [
                            {
                                "name": "",
                                "type": "bool",
                                "value": true
                            }
                        ],
                        "signature": "user_checkpoint(address)"
                    },
                    "errorInfo": "",
                    "fromAddress": "0xd061d61a4d941c39e5453435b6345dc261c2fce0",
                    "gasUsed": 119989,
                    "id": 2,
                    "methodDecoded": true,
                    "operation": "CALL",
                    "output": "0x0000000000000000000000000000000000000000000000000000000000000001",
                    "revert": false,
                    "revertMessage": "",
                    "selector": "0x4b820093",
                    "status": true,
                    "value": "0"
                },
                "nodeType": 0
            },
            "3": {
                "invocation": {
                    "address": "0xd533a949740bb3306d119cc777fa900ba034cd52",
                    "callData": "0x",
                    "decodedMethod": {
                        "callParams": [],
                        "constructorArguments": "",
                        "name": "future_epoch_time_write",
                        "returnParams": [
                            {
                                "name": "",
                                "type": "uint256",
                                "value": "1,628,893,048"
                            }
                        ],
                        "signature": "future_epoch_time_write()"
                    },
                    "errorInfo": "",
                    "fromAddress": "0xb1f2cdec61db658f091671f5f199635aef202cac",
                    "gasUsed": 1206,
                    "id": 3,
                    "methodDecoded": true,
                    "operation": "CALL",
                    "output": "0x000000000000000000000000000000000000000000000000000000006116ef78",
                    "revert": false,
                    "revertMessage": "",
                    "selector": "0xb26b238e",
                    "status": true,
                    "value": "0"
                },
                "nodeType": 0
            },
            "4": {
                "invocation": {
                    "address": "0xd533a949740bb3306d119cc777fa900ba034cd52",
                    "callData": "0x",
                    "decodedMethod": {
                        "callParams": [],
                        "constructorArguments": "",
                        "name": "rate",
                        "returnParams": [
                            {
                                "name": "",
                                "type": "uint256",
                                "value": "8,714,335,457,889,396,245"
                            }
                        ],
                        "signature": "rate()"
                    },
                    "errorInfo": "",
                    "fromAddress": "0xb1f2cdec61db658f091671f5f199635aef202cac",
                    "gasUsed": 1669,
                    "id": 4,
                    "methodDecoded": true,
                    "operation": "STATICCALL",
                    "output": "0x00000000000000000000000000000000000000000000000078ef89edad16a615",
                    "revert": false,
                    "revertMessage": "",
                    "selector": "0x2c4e722e",
                    "status": true,
                    "value": "0"
                },
                "nodeType": 0
            },
            "5": {
                "invocation": {
                    "address": "0x2f50d538606fa9edd2b11e2446beb18c9d5846bb",
                    "callData": "0x000000000000000000000000b1f2cdec61db658f091671f5f199635aef202cac",
                    "decodedMethod": {
                        "callParams": [
                            {
                                "name": "addr",
                                "type": "address",
                                "value": "0xb1f2cdec61db658f091671f5f199635aef202cac"
                            }
                        ],
                        "constructorArguments": "",
                        "name": "checkpoint_gauge",
                        "returnParams": [],
                        "signature": "checkpoint_gauge(address)"
                    },
                    "errorInfo": "",
                    "fromAddress": "0xb1f2cdec61db658f091671f5f199635aef202cac",
                    "gasUsed": 15601,
                    "id": 5,
                    "methodDecoded": true,
                    "operation": "CALL",
                    "output": "",
                    "revert": false,
                    "revertMessage": "",
                    "selector": "0x615e5237",
                    "status": true,
                    "value": "0"
                },
                "nodeType": 0
            },
            "6": {
                "invocation": {
                    "address": "0x2f50d538606fa9edd2b11e2446beb18c9d5846bb",
                    "callData": "0x000000000000000000000000b1f2cdec61db658f091671f5f199635aef202cac000000000000000000000000000000000000000000000000000000005f503200",
                    "decodedMethod": {
                        "callParams": [
                            {
                                "name": "addr",
                                "type": "address",
                                "value": "0xb1f2cdec61db658f091671f5f199635aef202cac"
                            },
                            {
                                "name": "time",
                                "type": "uint256",
                                "value": "1,599,091,200"
                            }
                        ],
                        "constructorArguments": "",
                        "name": "gauge_relative_weight",
                        "returnParams": [
                            {
                                "name": "",
                                "type": "uint256",
                                "value": "123,900,048,990,250,634"
                            }
                        ],
                        "signature": "gauge_relative_weight(address,uint256)"
                    },
                    "errorInfo": "",
                    "fromAddress": "0xb1f2cdec61db658f091671f5f199635aef202cac",
                    "gasUsed": 4860,
                    "id": 6,
                    "methodDecoded": true,
                    "operation": "STATICCALL",
                    "output": "0x00000000000000000000000000000000000000000000000001b82e7027b7a68a",
                    "revert": false,
                    "revertMessage": "",
                    "selector": "0xd3078c94",
                    "status": true,
                    "value": "0"
                },
                "nodeType": 0
            },
            "7": {
                "invocation": {
                    "address": "0x5f3b5dfeb7b28cdbd7faba78963ee202a494e2a2",
                    "callData": "0x000000000000000000000000733d15099a3382d60925884995dd8d53804a6d3b",
                    "decodedMethod": {
                        "callParams": [
                            {
                                "name": "account",
                                "type": "address",
                                "value": "0x733d15099a3382d60925884995dd8d53804a6d3b"
                            }
                        ],
                        "constructorArguments": "",
                        "name": "balanceOf",
                        "returnParams": [
                            {
                                "decimalAvailable": true,
                                "name": "",
                                "type": "uint256",
                                "value": "0"
                            }
                        ],
                        "signature": "balanceOf(address)"
                    },
                    "errorInfo": "",
                    "fromAddress": "0xb1f2cdec61db658f091671f5f199635aef202cac",
                    "gasUsed": 1591,
                    "id": 7,
                    "methodDecoded": true,
                    "operation": "STATICCALL",
                    "output": "0x0000000000000000000000000000000000000000000000000000000000000000",
                    "revert": false,
                    "revertMessage": "",
                    "selector": "0x70a08231",
                    "status": true,
                    "value": "0"
                },
                "nodeType": 0
            },
            "8": {
                "invocation": {
                    "address": "0x5f3b5dfeb7b28cdbd7faba78963ee202a494e2a2",
                    "callData": "0x",
                    "decodedMethod": {
                        "callParams": [],
                        "constructorArguments": "",
                        "name": "totalSupply",
                        "returnParams": [
                            {
                                "name": "",
                                "type": "uint256",
                                "value": "3,632,023,612,581,485,041,802,010"
                            }
                        ],
                        "signature": "totalSupply()"
                    },
                    "errorInfo": "",
                    "fromAddress": "0xb1f2cdec61db658f091671f5f199635aef202cac",
                    "gasUsed": 6254,
                    "id": 8,
                    "methodDecoded": true,
                    "operation": "STATICCALL",
                    "output": "0x00000000000000000000000000000000000000000003011c65022507fbe1db1a",
                    "revert": false,
                    "revertMessage": "",
                    "selector": "0x18160ddd",
                    "status": true,
                    "value": "0"
                },
                "nodeType": 0
            },
            "9": {
                "event": {
                    "contract": "0xb1f2cdec61db658f091671f5f199635aef202cac",
                    "decodedLog": {
                        "name": "UpdateLiquidityLimit",
                        "params": [
                            {
                                "name": "user",
                                "type": "address",
                                "value": "0x733d15099a3382d60925884995dd8d53804a6d3b"
                            },
                            {
                                "name": "original_balance",
                                "type": "uint256",
                                "value": "74,950,955,790,000,000,000"
                            },
                            {
                                "name": "original_supply",
                                "type": "uint256",
                                "value": "9,059,399,014,579,392,832,372"
                            },
                            {
                                "name": "working_balance",
                                "type": "uint256",
                                "value": "29,980,382,316,000,000,000"
                            },
                            {
                                "name": "working_supply",
                                "type": "uint256",
                                "value": "4,478,778,065,981,587,921,356"
                            }
                        ],
                        "signature": "UpdateLiquidityLimit(address,uint256,uint256,uint256,uint256)"
                    },
                    "id": 9,
                    "logData": "0x000000000000000000000000733d15099a3382d60925884995dd8d53804a6d3b0000000000000000000000000000000000000000000000041027492f0ef50c000000000000000000000000000000000000000000000001eb1c6acd01c0956374000000000000000000000000000000000000000000000001a00fb6df9f9538000000000000000000000000000000000000000000000000f2cb88196d539519cc",
                    "logDecoded": true,
                    "operation": "EVENT",
                    "revert": false,
                    "status": true,
                    "topics": [
                        "0x7ecd84343f76a23d2227290e0288da3251b045541698e575a5515af4f04197a3"
                    ]
                },
                "nodeType": 1
            }
        },
        "gasFlame": [
            {
                "children": [
                    {
                        "children": [
                            {
                                "children": [],
                                "depth": 0,
                                "name": "Initial Gas",
                                "value": 21432
                            },
                            {
                                "children": [
                                    {
                                        "children": [],
                                        "depth": 1,
                                        "name": "gauge_types",
                                        "value": 1262
                                    },
                                    {
                                        "children": [
                                            {
                                                "children": [],
                                                "depth": 2,
                                                "name": "future_epoch_time_write",
                                                "value": 1206
                                            },
                                            {
                                                "children": [],
                                                "depth": 2,
                                                "name": "rate",
                                                "value": 1669
                                            },
                                            {
                                                "children": [],
                                                "depth": 2,
                                                "name": "checkpoint_gauge",
                                                "value": 15601
                                            },
                                            {
                                                "children": [],
                                                "depth": 2,
                                                "name": "gauge_relative_weight",
                                                "value": 4860
                                            },
                                            {
                                                "children": [],
                                                "depth": 2,
                                                "name": "balanceOf",
                                                "value": 1591
                                            },
                                            {
                                                "children": [],
                                                "depth": 2,
                                                "name": "totalSupply",
                                                "value": 6254
                                            }
                                        ],
                                        "depth": 1,
                                        "name": "user_checkpoint",
                                        "value": 119989
                                    },
                                    {
                                        "children": [],
                                        "depth": 1,
                                        "name": "integrate_fraction",
                                        "value": 1824
                                    },
                                    {
                                        "children": [],
                                        "depth": 1,
                                        "name": "mint",
                                        "value": 33612
                                    }
                                ],
                                "depth": 0,
                                "name": "Executed Gas",
                                "value": 191337
                            }
                        ],
                        "depth": -1,
                        "name": "Actual Gas Used",
                        "value": 193569
                    },
                    {
                        "children": [],
                        "depth": -1,
                        "name": "Refunded Gas",
                        "value": 19200
                    }
                ],
                "depth": -2,
                "name": "Total Gas",
                "value": 212769
            }
        ],
        "isConfirmed": true,
        "mainTrace": [
            {
                "children": [
                    {
                        "children": [
                            {
                                "children": [],
                                "depth": 1,
                                "id": 1,
                                "order": 1
                            },
                            {
                                "children": [
                                    {
                                        "children": [],
                                        "depth": 2,
                                        "id": 3,
                                        "order": 3
                                    },
                                    {
                                        "children": [],
                                        "depth": 2,
                                        "id": 4,
                                        "order": 4
                                    },
                                    {
                                        "children": [],
                                        "depth": 2,
                                        "id": 5,
                                        "order": 5
                                    },
                                    {
                                        "children": [],
                                        "depth": 2,
                                        "id": 6,
                                        "order": 6
                                    },
                                    {
                                        "children": [],
                                        "depth": 2,
                                        "id": 7,
                                        "order": 7
                                    },
                                    {
                                        "children": [],
                                        "depth": 2,
                                        "id": 8,
                                        "order": 8
                                    },
                                    {
                                        "children": [],
                                        "depth": 2,
                                        "id": 9,
                                        "order": 9
                                    }
                                ],
                                "depth": 1,
                                "id": 2,
                                "order": 2
                            },
                            {
                                "children": [],
                                "depth": 1,
                                "id": 10,
                                "order": 10
                            },
                            {
                                "children": [
                                    {
                                        "children": [],
                                        "depth": 2,
                                        "id": 12,
                                        "order": 12
                                    }
                                ],
                                "depth": 1,
                                "id": 11,
                                "order": 11
                            },
                            {
                                "children": [],
                                "depth": 1,
                                "id": 13,
                                "order": 13
                            }
                        ],
                        "depth": 0,
                        "id": 0,
                        "order": 0
                    }
                ],
                "depth": -1,
                "id": -1,
                "order": -1
            }
        ],
        "mainTraceNodeCount": 14,
        "parentIdMap": {
            "0": -1,
            "1": 0,
            "10": 0,
            "11": 0,
            "12": 11,
            "13": 0,
            "2": 0,
            "3": 2,
            "4": 2,
            "5": 2,
            "6": 2,
            "7": 2,
            "8": 2,
            "9": 2
        },
        "tidyTrace": [
            {
                "children": [
                    {
                        "children": [
                            {
                                "children": [
                                    {
                                        "children": [],
                                        "depth": 2,
                                        "id": 3,
                                        "order": 3
                                    },
                                    {
                                        "children": [],
                                        "depth": 2,
                                        "id": 5,
                                        "order": 5
                                    },
                                    {
                                        "children": [],
                                        "depth": 2,
                                        "id": 9,
                                        "order": 9
                                    }
                                ],
                                "depth": 1,
                                "id": 2,
                                "order": 2
                            },
                            {
                                "children": [
                                    {
                                        "children": [],
                                        "depth": 2,
                                        "id": 12,
                                        "order": 12
                                    }
                                ],
                                "depth": 1,
                                "id": 11,
                                "order": 11
                            },
                            {
                                "children": [],
                                "depth": 1,
                                "id": 13,
                                "order": 13
                            }
                        ],
                        "depth": 0,
                        "id": 0,
                        "order": 0
                    }
                ],
                "depth": -1,
                "id": -1,
                "order": -1
            }
        ],
        "tidyTraceNodeCount": 8
    },
    "state_change": {
        "stateChanges": [
            {
                "address": "0xb1f2cdec61db658f091671f5f199635aef202cac",
                "erc": "",
                "slots": [
                    {
                        "current": "0x0000000000000000000000000000000000000000000000000000000000000c0e",
                        "key": "0x000000000000000000000000000000000000000000000000000000000000000b",
                        "prev": "0x0000000000000000000000000000000000000000000000000000000000000c0d"
                    },
                    {
                        "current": "0x000000000000000000000000000000000000000000000000000000005f53dd7e",
                        "key": "0xdf6966c971051c3d54ec59162606531493a51404a002842f56009d7e5cf4b4d5",
                        "prev": "0x0000000000000000000000000000000000000000000000000000000000000000"
                    },
                    {
                        "current": "0x0000000000000000000000000000000000000000000047f4a0886193ece80c32",
                        "key": "0xd7b6990105719101dabeb77144f2a3385c8033acd3af97e9423a695e81ad2ac3",
                        "prev": "0x0000000000000000000000000000000000000000000000000000000000000000"
                    },
                    {
                        "current": "0x00000000000000000000000000000000000000000000006471ed53e14ae227a1",
                        "key": "0xf55ad55a88fc764b8395b685273e8e88c0fdff09b4749641f66dddfccacb0ffe",
                        "prev": "0x0000000000000000000000000000000000000000000000580cf0cd6437cf0522"
                    },
                    {
                        "current": "0x0000000000000000000000000000000000000000000047f4a0886193ece80c32",
                        "key": "0x63603ae9bc040d2d8efd74d8c2aeec7dada5f75bb769b06b631474d0231f9a46",
                        "prev": "0x0000000000000000000000000000000000000000000047f436b283554e86e358"
                    },
                    {
                        "current": "0x000000000000000000000000000000000000000000000000000000005f53dd7e",
                        "key": "0x92f8989d7e314fff771d6265b75bbc6d377faef7146fe58155982c40d81ea43f",
                        "prev": "0x000000000000000000000000000000000000000000000000000000005f536380"
                    }
                ],
                "storageVariables": []
            },
            {
                "address": "0xd061d61a4d941c39e5453435b6345dc261c2fce0",
                "erc": "",
                "slots": [
                    {
                        "current": "0x00000000000000000000000000000000000000000000006471ed53e14ae227a1",
                        "key": "0xd99667a83e9f89adcb52be25e049b82a95ced13f396f6b2077b61686cd06510b",
                        "prev": "0x0000000000000000000000000000000000000000000000580cf0cd6437cf0522"
                    }
                ],
                "storageVariables": []
            },
            {
                "address": "0xd533a949740bb3306d119cc777fa900ba034cd52",
                "erc": "",
                "slots": [
                    {
                        "current": "0x00000000000000000000000000000000000000000000000c64fc867d1313227f",
                        "key": "0xa18b9df5d181b83a505ae9b73c619f5d90db8b40fd81adf471b44cabd8137419",
                        "prev": "0x0000000000000000000000000000000000000000000000000000000000000000"
                    },
                    {
                        "current": "0x00000000000000000000000000000000000000000442d2a487d6717bc8d5f750",
                        "key": "0x0000000000000000000000000000000000000000000000000000000000000005",
                        "prev": "0x00000000000000000000000000000000000000000442d29822d9eafeb5c2d4d1"
                    }
                ],
                "storageVariables": []
            }
        ]
    }
}