{
    "balance_change": {
        "balanceChanges": [
            {
                "account": "0x0000000000000000000000000000000000000000",
                "assets": [
                    {
                        "address": "0x740df024ce73f589acd5e8756b377ef8c6558bab",
                        "amount": "1,000,000,000",
                        "iconUrl": "",
                        "isERC1155": false,
                        "isERC721": false,
                        "sign": false,
                        "value": "57358.18707"
                    }
                ]
            },
            {
                "account": "0xff8c8747ab44f5bdaeb0520525bbada166e8a8b0",
                "assets": [
                    {
                        "address": "0x740df024ce73f589acd5e8756b377ef8c6558bab",
                        "amount": "1,000,000,000",
                        "iconUrl": "",
                        "isERC1155": false,
                        "isERC721": false,
                        "sign": true,
                        "value": "57358.18707"
                    }
                ]
            }
        ]
    },
    "profile": {
        "basic_info": {
            "baseFee": "9.89837029",
            "blockNumber": 20082094,
            "callData": "0x57a781220000000000000000000000000000000000000000000000000000000000000020000000000000000000000000000000000000000000000000000000000000020416f1be700000000000000000000000000000000000000000000000000000000000000b64000000000000000000000000000000000000000000000000000000000000004a000000000000000000000000740df024ce73f589acd5e8756b377ef8c6558bab000000000000000000000000614dca9ace2cea0a89320b0c8c43549848498bd6000000000000000000000000000000000000000000000000000000000000000000000000000000000000000000000000000000000000000302e59c390324808d0000000000000000000000000000000000000000000000000000000000000001000000000000000000000000000000000000000000000000000000000000010000000000000000000000000000000000000000000000000000000000000000a0000000000000000000000000c0ffee78121f208475abdd2cf0853a7afed64749000000000000000000000000ff8c8747ab44f5bdaeb0520525bbada166e8a8b00000000000000000000000000000000000000000033b2e3c9fd0803ce80000000000000000000000000000000000000000000000000000000000000000000080000000000000000000000000000000000000000000000000000000000000000000000000000000000000000000000000000000000000000000000000000249f000000000000000000000000000000000000000000000000000000009502f900100000000000000000000000000000000000000000000000000000000",
            "debugEnable": true,
            "errorInfo": "",
            "eventCount": 2,
            "feeRecipient": "0x4838b106fce9647bdf1e7877bf73ce8b0bad5f97",
            "formatValue": "0",
            "gasLimit": 500000,
            "gasPrice": "9.99837029",
            "gasUsed": 120008,
            "intTxnCount": 14,
            "internalRevert": false,
            "internalRevertMessage": "",
            "isContractCreation": false,
            "isFlashloan": false,
            "maxFee": "15.076909822",
            "nonce": 505,
            "overwritedBlockNumber": -1,
            "priorityFee": "0.1",
            "receiver": "0xe1dd53589c001982d06247e1259dcc366b8ddb1b",
            "revertMessage": "",
            "sender": "0xa198fa5db682a2a828a90b42d3cd938dacc01ade",
            "simulationEnable": true,
            "sourceTxnHash": "0x0cc143ccf3316d47b36a2e45577922f4ebe2374966bb22c1e9cf49c747d46396",
            "status": true,
            "timestamp": "2024-06-13T09:45:23Z",
            "transactionFee": "0.00119988442176232",
            "txnHash": "0x0cc143ccf3316d47b36a2e45577922f4ebe2374966bb22c1e9cf49c747d46396",
            "txnIndex": 81,
            "type": 2,
            "value": "0"
        },
        "fund_flow": [
            {
                "amount": "1,000,000,000",
                "from": "0x0000000000000000000000000000000000000000",
                "id": 1,
                "isERC1155": false,
                "isERC721": false,
                "isReverted": false,
                "order": 1,
                "to": "0xff8c8747ab44f5bdaeb0520525bbada166e8a8b0",
                "token": "0x740df024ce73f589acd5e8756b377ef8c6558bab"
            }
        ],
        "token_infos": [
            {
                "address": "0x740df024ce73f589acd5e8756b377ef8c6558bab",
                "decimals": 18
            },
            {
                "address": "0xc02aaa39b223fe8d0a0e5c4f27ead9083c756cc2",
                "decimals": 18
            },
            {
                "address": "0xeeeeeeeeeeeeeeeeeeeeeeeeeeeeeeeeeeeeeeee",
                "decimals": 18
            }
        ]
    },
    "address_label": {
        "labels": [
            {
                "address": "0x8d5b1b160d33ce8b6cafe2674a81916d33c6ff0b",
                "label": "HolographBridgeProxy"
            },
            {
                "address": "0x0000000000000000000000000000000000000001",
                "label": "Precompiled"
            },
            {
                "address": "0x0000000000000000000000000000000000000003",
                "label": "Precompiled"
            },
            {
                "address": "0x740df024ce73f589acd5e8756b377ef8c6558bab",
                "label": "Holograph: HLG Token"
            },
            {
                "address": "0xc0768aa301fa733e45b2de64657f952407ec564b",
                "label": "HolographRegistryProxy"
            },
            {
                "address": "0xdcdbb4a68c2a88c3fc0c9187a2d1218e0289c226",
                "label": "HolographBridge"
            },
            {
                "address": "0x1ed99dfe7462763eaf6925271d7cb2232a61854c",
                "label": "Holograph"
            },
            {
                "address": "0x0000000000000000000000000000000000000004",
                "label": "Precompiled"
            },
            {
                "address": "0x5a408c26eaac667980bda89006ff622d3400c5b8",
                "label": "HolographOperator"
            },
            {
                "address": "0x57eea1eaaa6ae35039e43b9c15f3deafc89f0ff1",
                "label": "HolographERC20"
            },
            {
                "address": "0x768955fc9bc8717fb88278dd51c42a58b2a1ad25",
                "label": "HolographRegistry"
            },
            {
                "address": "0x0000000000000000000000000000000000000002",
                "label": "Precompiled"
            },
            {
                "address": "0xeeeeeeeeeeeeeeeeeeeeeeeeeeeeeeeeeeeeeeee",
                "label": "Ether"
            },
            {
                "address": "0x0000000000000000000000000000000000000000",
                "label": "Null Address"
            },
            {
                "address": "0xe1dd53589c001982d06247e1259dcc366b8ddb1b",
                "label": "HolographOperatorProxy"
            }
        ]
    },
    "trace": {
        "accountLabels": null,
        "dataMap": {
            "-1": {
                "invocation": {
                    "address": "0xa198fa5db682a2a828a90b42d3cd938dacc01ade",
                    "callData": "",
                    "decodedMethod": null,
                    "errorInfo": "",
                    "fromAddress": "",
                    "gasUsed": 0,
                    "id": -1,
                    "methodDecoded": false,
                    "operation": "",
                    "output": "",
                    "revert": false,
                    "revertMessage": "",
                    "selector": "",
                    "status": false,
                    "value": ""
                },
                "nodeType": 0
            },
            "0": {
                "invocation": {
                    "address": "0xe1dd53589c001982d06247e1259dcc366b8ddb1b",
                    "callData": "0x0000000000000000000000000000000000000000000000000000000000000020000000000000000000000000000000000000000000000000000000000000020416f1be700000000000000000000000000000000000000000000000000000000000000b64000000000000000000000000000000000000000000000000000000000000004a000000000000000000000000740df024ce73f589acd5e8756b377ef8c6558bab000000000000000000000000614dca9ace2cea0a89320b0c8c43549848498bd6000000000000000000000000000000000000000000000000000000000000000000000000000000000000000000000000000000000000000302e59c390324808d0000000000000000000000000000000000000000000000000000000000000001000000000000000000000000000000000000000000000000000000000000010000000000000000000000000000000000000000000000000000000000000000a0000000000000000000000000c0ffee78121f208475abdd2cf0853a7afed64749000000000000000000000000ff8c8747ab44f5bdaeb0520525bbada166e8a8b00000000000000000000000000000000000000000033b2e3c9fd0803ce80000000000000000000000000000000000000000000000000000000000000000000080000000000000000000000000000000000000000000000000000000000000000000000000000000000000000000000000000000000000000000000000000249f000000000000000000000000000000000000000000000000000000009502f900100000000000000000000000000000000000000000000000000000000",
                    "decodedMethod": {
                        "callParams": [
                            {
                                "name": "bridgeInRequestPayload",
                                "type": "bytes",
                                "value": "0x16f1be700000000000000000000000000000000000000000000000000000000000000b64000000000000000000000000000000000000000000000000000000000000004a000000000000000000000000740df024ce73f589acd5e8756b377ef8c6558bab000000000000000000000000614dca9ace2cea0a89320b0c8c43549848498bd6000000000000000000000000000000000000000000000000000000000000000000000000000000000000000000000000000000000000000302e59c390324808d0000000000000000000000000000000000000000000000000000000000000001000000000000000000000000000000000000000000000000000000000000010000000000000000000000000000000000000000000000000000000000000000a0000000000000000000000000c0ffee78121f208475abdd2cf0853a7afed64749000000000000000000000000ff8c8747ab44f5bdaeb0520525bbada166e8a8b00000000000000000000000000000000000000000033b2e3c9fd0803ce80000000000000000000000000000000000000000000000000000000000000000000080000000000000000000000000000000000000000000000000000000000000000000000000000000000000000000000000000000000000000000000000000249f000000000000000000000000000000000000000000000000000000009502f9001"
                            }
                        ],
                        "constructorArguments": "",
                        "name": "recoverJob",
                        "returnParams": [],
                        "signature": "recoverJob(bytes)"
                    },
                    "errorInfo": "",
                    "fromAddress": "0xa198fa5db682a2a828a90b42d3cd938dacc01ade",
                    "gasUsed": 120008,
                    "id": 0,
                    "methodDecoded": true,
                    "operation": "CALL",
                    "output": "",
                    "revert": false,
                    "revertMessage": "",
                    "selector": "0x57a78122",
                    "status": true,
                    "value": "0"
                },
                "nodeType": 0
            },
            "1": {
                "invocation": {
                    "address": "0x5a408c26eaac667980bda89006ff622d3400c5b8",
                    "callData": "0x0000000000000000000000000000000000000000000000000000000000000020000000000000000000000000000000000000000000000000000000000000020416f1be700000000000000000000000000000000000000000000000000000000000000b64000000000000000000000000000000000000000000000000000000000000004a000000000000000000000000740df024ce73f589acd5e8756b377ef8c6558bab000000000000000000000000614dca9ace2cea0a89320b0c8c43549848498bd6000000000000000000000000000000000000000000000000000000000000000000000000000000000000000000000000000000000000000302e59c390324808d0000000000000000000000000000000000000000000000000000000000000001000000000000000000000000000000000000000000000000000000000000010000000000000000000000000000000000000000000000000000000000000000a0000000000000000000000000c0ffee78121f208475abdd2cf0853a7afed64749000000000000000000000000ff8c8747ab44f5bdaeb0520525bbada166e8a8b00000000000000000000000000000000000000000033b2e3c9fd0803ce80000000000000000000000000000000000000000000000000000000000000000000080000000000000000000000000000000000000000000000000000000000000000000000000000000000000000000000000000000000000000000000000000249f000000000000000000000000000000000000000000000000000000009502f900100000000000000000000000000000000000000000000000000000000",
                    "decodedMethod": {
                        "callParams": [
                            {
                                "name": "bridgeInRequestPayload",
                                "type": "bytes",
                                "value": "0x16f1be700000000000000000000000000000000000000000000000000000000000000b64000000000000000000000000000000000000000000000000000000000000004a000000000000000000000000740df024ce73f589acd5e8756b377ef8c6558bab000000000000000000000000614dca9ace2cea0a89320b0c8c43549848498bd6000000000000000000000000000000000000000000000000000000000000000000000000000000000000000000000000000000000000000302e59c390324808d0000000000000000000000000000000000000000000000000000000000000001000000000000000000000000000000000000000000000000000000000000010000000000000000000000000000000000000000000000000000000000000000a0000000000000000000000000c0ffee78121f208475abdd2cf0853a7afed64749000000000000000000000000ff8c8747ab44f5bdaeb0520525bbada166e8a8b00000000000000000000000000000000000000000033b2e3c9fd0803ce80000000000000000000000000000000000000000000000000000000000000000000080000000000000000000000000000000000000000000000000000000000000000000000000000000000000000000000000000000000000000000000000000249f000000000000000000000000000000000000000000000000000000009502f9001"
                            }
                        ],
                        "constructorArguments": "",
                        "name": "recoverJob",
                        "returnParams": [],
                        "signature": "recoverJob(bytes)"
                    },
                    "errorInfo": "",
                    "fromAddress": "0xe1dd53589c001982d06247e1259dcc366b8ddb1b",
                    "gasUsed": 94836,
                    "id": 1,
                    "methodDecoded": true,
                    "operation": "DELEGATECALL",
                    "output": "",
                    "revert": false,
                    "revertMessage": "",
                    "selector": "0x57a78122",
                    "status": true,
                    "value": "0"
                },
                "nodeType": 0
            },
            "10": {
                "invocation": {
                    "address": "0x57eea1eaaa6ae35039e43b9c15f3deafc89f0ff1",
                    "callData": "0x000000000000000000000000000000000000000000000000000000000000004a000000000000000000000000000000000000000000000000000000000000004000000000000000000000000000000000000000000000000000000000000000a0000000000000000000000000c0ffee78121f208475abdd2cf0853a7afed64749000000000000000000000000ff8c8747ab44f5bdaeb0520525bbada166e8a8b00000000000000000000000000000000000000000033b2e3c9fd0803ce800000000000000000000000000000000000000000000000000000000000000000000800000000000000000000000000000000000000000000000000000000000000000",
                    "decodedMethod": {
                        "callParams": [
                            {
                                "name": "fromChain",
                                "type": "uint32",
                                "value": "74"
                            },
                            {
                                "name": "payload",
                                "type": "bytes",
                                "value": "0x000000000000000000000000c0ffee78121f208475abdd2cf0853a7afed64749000000000000000000000000ff8c8747ab44f5bdaeb0520525bbada166e8a8b00000000000000000000000000000000000000000033b2e3c9fd0803ce800000000000000000000000000000000000000000000000000000000000000000000800000000000000000000000000000000000000000000000000000000000000000"
                            }
                        ],
                        "constructorArguments": "",
                        "name": "bridgeIn",
                        "returnParams": [
                            {
                                "name": "",
                                "type": "bytes4",
                                "value": "0x08a1eb20"
                            }
                        ],
                        "signature": "bridgeIn(uint32,bytes)"
                    },
                    "errorInfo": "",
                    "fromAddress": "0x740df024ce73f589acd5e8756b377ef8c6558bab",
                    "gasUsed": 41778,
                    "id": 10,
                    "methodDecoded": true,
                    "operation": "DELEGATECALL",
                    "output": "0x08a1eb2000000000000000000000000000000000000000000000000000000000",
                    "revert": false,
                    "revertMessage": "",
                    "selector": "0x08a1eb20",
                    "status": true,
                    "value": "0"
                },
                "nodeType": 0
            },
            "11": {
                "invocation": {
                    "address": "0x1ed99dfe7462763eaf6925271d7cb2232a61854c",
                    "callData": "0x",
                    "decodedMethod": {
                        "callParams": [],
                        "constructorArguments": "",
                        "name": "getBridge",
                        "returnParams": [
                            {
                                "name": "bridge",
                                "type": "address",
                                "value": "0x8d5b1b160d33ce8b6cafe2674a81916d33c6ff0b"
                            }
                        ],
                        "signature": "getBridge()"
                    },
                    "errorInfo": "",
                    "fromAddress": "0x740df024ce73f589acd5e8756b377ef8c6558bab",
                    "gasUsed": 2359,
                    "id": 11,
                    "methodDecoded": true,
                    "operation": "STATICCALL",
                    "output": "0x0000000000000000000000008d5b1b160d33ce8b6cafe2674a81916d33c6ff0b",
                    "revert": false,
                    "revertMessage": "",
                    "selector": "0x0fffbaf3",
                    "status": true,
                    "value": "0"
                },
                "nodeType": 0
            },
            "12": {
                "event": {
                    "contract": "0x740df024ce73f589acd5e8756b377ef8c6558bab",
                    "decodedLog": {
                        "name": "Transfer",
                        "params": [
                            {
                                "name": "from",
                                "type": "address",
                                "value": "0x0000000000000000000000000000000000000000"
                            },
                            {
                                "name": "to",
                                "type": "address",
                                "value": "0xff8c8747ab44f5bdaeb0520525bbada166e8a8b0"
                            },
                            {
                                "decimalAvailable": true,
                                "name": "value",
                                "type": "uint256",
                                "value": "1,000,000,000,000,000,000,000,000,000"
                            }
                        ],
                        "signature": "Transfer(address,address,uint256)"
                    },
                    "id": 12,
                    "logData": "0x0000000000000000000000000000000000000000033b2e3c9fd0803ce8000000",
                    "logDecoded": true,
                    "operation": "EVENT",
                    "revert": false,
                    "status": true,
                    "topics": [
                        "0xddf252ad1be2c89b69c2b068fc378daa952ba7f163c4a11628f55a4df523b3ef",
                        "0x0000000000000000000000000000000000000000000000000000000000000000",
                        "0x000000000000000000000000ff8c8747ab44f5bdaeb0520525bbada166e8a8b0"
                    ]
                },
                "nodeType": 1
            },
            "13": {
                "invocation": {
                    "address": "0x1ed99dfe7462763eaf6925271d7cb2232a61854c",
                    "callData": "0x",
                    "decodedMethod": {
                        "callParams": [],
                        "constructorArguments": "",
                        "name": "getRegistry",
                        "returnParams": [
                            {
                                "name": "registry",
                                "type": "address",
                                "value": "0xc0768aa301fa733e45b2de64657f952407ec564b"
                            }
                        ],
                        "signature": "getRegistry()"
                    },
                    "errorInfo": "",
                    "fromAddress": "0x740df024ce73f589acd5e8756b377ef8c6558bab",
                    "gasUsed": 358,
                    "id": 13,
                    "methodDecoded": true,
                    "operation": "STATICCALL",
                    "output": "0x000000000000000000000000c0768aa301fa733e45b2de64657f952407ec564b",
                    "revert": false,
                    "revertMessage": "",
                    "selector": "0x5ab1bd53",
                    "status": true,
                    "value": "0"
                },
                "nodeType": 0
            },
            "14": {
                "invocation": {
                    "address": "0xc0768aa301fa733e45b2de64657f952407ec564b",
                    "callData": "0x000000000000000000000000000000000000000000000000000000000000002000000000000000000000000000000000000000000000000000000000000000809b035625e569d1d2bf54830a290aefba7ab11610ba8490871dc62b86b63a89560000000000000000000000000000000000000000000000000000000000000000000000000000000000000000ff8c8747ab44f5bdaeb0520525bbada166e8a8b00000000000000000000000000000000000000000033b2e3c9fd0803ce8000000",
                    "decodedMethod": {
                        "callParams": [
                            {
                                "name": "payload",
                                "type": "bytes",
                                "value": "0x9b035625e569d1d2bf54830a290aefba7ab11610ba8490871dc62b86b63a89560000000000000000000000000000000000000000000000000000000000000000000000000000000000000000ff8c8747ab44f5bdaeb0520525bbada166e8a8b00000000000000000000000000000000000000000033b2e3c9fd0803ce8000000"
                            }
                        ],
                        "constructorArguments": "",
                        "name": "holographableEvent",
                        "returnParams": [],
                        "signature": "holographableEvent(bytes)"
                    },
                    "errorInfo": "",
                    "fromAddress": "0x740df024ce73f589acd5e8756b377ef8c6558bab",
                    "gasUsed": 4063,
                    "id": 14,
                    "methodDecoded": true,
                    "operation": "CALL",
                    "output": "",
                    "revert": false,
                    "revertMessage": "",
                    "selector": "0xafa5886e",
                    "status": true,
                    "value": "0"
                },
                "nodeType": 0
            },
            "15": {
                "invocation": {
                    "address": "0x768955fc9bc8717fb88278dd51c42a58b2a1ad25",
                    "callData": "0x000000000000000000000000000000000000000000000000000000000000002000000000000000000000000000000000000000000000000000000000000000809b035625e569d1d2bf54830a290aefba7ab11610ba8490871dc62b86b63a89560000000000000000000000000000000000000000000000000000000000000000000000000000000000000000ff8c8747ab44f5bdaeb0520525bbada166e8a8b00000000000000000000000000000000000000000033b2e3c9fd0803ce8000000",
                    "decodedMethod": {
                        "callParams": [
                            {
                                "name": "payload",
                                "type": "bytes",
                                "value": "0x9b035625e569d1d2bf54830a290aefba7ab11610ba8490871dc62b86b63a89560000000000000000000000000000000000000000000000000000000000000000000000000000000000000000ff8c8747ab44f5bdaeb0520525bbada166e8a8b00000000000000000000000000000000000000000033b2e3c9fd0803ce8000000"
                            }
                        ],
                        "constructorArguments": "",
                        "name": "holographableEvent",
                        "returnParams": [],
                        "signature": "holographableEvent(bytes)"
                    },
                    "errorInfo": "",
                    "fromAddress": "0xc0768aa301fa733e45b2de64657f952407ec564b",
                    "gasUsed": 3584,
                    "id": 15,
                    "methodDecoded": true,
                    "operation": "DELEGATECALL",
                    "output": "",
                    "revert": false,
                    "revertMessage": "",
                    "selector": "0xafa5886e",
                    "status": true,
                    "value": "0"
                },
                "nodeType": 0
            },
            "16": {
                "event": {
                    "contract": "0xc0768aa301fa733e45b2de64657f952407ec564b",
                    "decodedLog": {
                        "name": "HolographableContractEvent",
                        "params": [
                            {
                                "name": "_holographableContract",
                                "type": "address",
                                "value": "0x740df024ce73f589acd5e8756b377ef8c6558bab"
                            },
                            {
                                "name": "_payload",
                                "type": "bytes",
                                "value": "0x9b035625e569d1d2bf54830a290aefba7ab11610ba8490871dc62b86b63a89560000000000000000000000000000000000000000000000000000000000000000000000000000000000000000ff8c8747ab44f5bdaeb0520525bbada166e8a8b00000000000000000000000000000000000000000033b2e3c9fd0803ce8000000"
                            }
                        ],
                        "signature": "HolographableContractEvent(address,bytes)"
                    },
                    "id": 16,
                    "logData": "0x000000000000000000000000000000000000000000000000000000000000002000000000000000000000000000000000000000000000000000000000000000809b035625e569d1d2bf54830a290aefba7ab11610ba8490871dc62b86b63a89560000000000000000000000000000000000000000000000000000000000000000000000000000000000000000ff8c8747ab44f5bdaeb0520525bbada166e8a8b00000000000000000000000000000000000000000033b2e3c9fd0803ce8000000",
                    "logDecoded": true,
                    "operation": "EVENT",
                    "revert": false,
                    "status": true,
                    "topics": [
                        "0xb4d3a3f85e85fdbd1d39f939d8c75355ec33ef437522432fe1a7b8b20bb4fab4",
                        "0x000000000000000000000000740df024ce73f589acd5e8756b377ef8c6558bab"
                    ]
                },
                "nodeType": 1
            },
            "2": {
                "invocation": {
                    "address": "0x8d5b1b160d33ce8b6cafe2674a81916d33c6ff0b",
                    "callData": "0x0000000000000000000000000000000000000000000000000000000000000b64000000000000000000000000000000000000000000000000000000000000004a000000000000000000000000740df024ce73f589acd5e8756b377ef8c6558bab000000000000000000000000614dca9ace2cea0a89320b0c8c43549848498bd6000000000000000000000000000000000000000000000000000000000000000000000000000000000000000000000000000000000000000302e59c390324808d0000000000000000000000000000000000000000000000000000000000000001000000000000000000000000000000000000000000000000000000000000010000000000000000000000000000000000000000000000000000000000000000a0000000000000000000000000c0ffee78121f208475abdd2cf0853a7afed64749000000000000000000000000ff8c8747ab44f5bdaeb0520525bbada166e8a8b00000000000000000000000000000000000000000033b2e3c9fd0803ce80000000000000000000000000000000000000000000000000000000000000000000080000000000000000000000000000000000000000000000000000000000000000000000000000000000000000000000000000000000000000000000000000249f000000000000000000000000000000000000000000000000000000009502f9001",
                    "decodedMethod": {
                        "callParams": [
                            {
                                "name": "",
                                "type": "uint256",
                                "value": "2,916"
                            },
                            {
                                "name": "fromChain",
                                "type": "uint32",
                                "value": "74"
                            },
                            {
                                "name": "holographableContract",
                                "type": "address",
                                "value": "0x740df024ce73f589acd5e8756b377ef8c6558bab"
                            },
                            {
                                "name": "hToken",
                                "type": "address",
                                "value": "0x614dca9ace2cea0a89320b0c8c43549848498bd6"
                            },
                            {
                                "name": "hTokenRecipient",
                                "type": "address",
                                "value": "0x0000000000000000000000000000000000000000"
                            },
                            {
                                "name": "hTokenValue",
                                "type": "uint256",
                                "value": "55,548,976,947,551,043,725"
                            },
                            {
                                "name": "doNotRevert",
                                "type": "bool",
                                "value": true
                            },
                            {
                                "name": "bridgeInPayload",
                                "type": "bytes",
                                "value": "0x000000000000000000000000c0ffee78121f208475abdd2cf0853a7afed64749000000000000000000000000ff8c8747ab44f5bdaeb0520525bbada166e8a8b00000000000000000000000000000000000000000033b2e3c9fd0803ce800000000000000000000000000000000000000000000000000000000000000000000800000000000000000000000000000000000000000000000000000000000000000"
                            }
                        ],
                        "constructorArguments": "",
                        "name": "bridgeInRequest",
                        "returnParams": [],
                        "signature": "bridgeInRequest(uint256,uint32,address,address,address,uint256,bool,bytes)"
                    },
                    "errorInfo": "",
                    "fromAddress": "0xe1dd53589c001982d06247e1259dcc366b8ddb1b",
                    "gasUsed": 83728,
                    "id": 2,
                    "methodDecoded": true,
                    "operation": "CALL",
                    "output": "",
                    "revert": false,
                    "revertMessage": "",
                    "selector": "0x16f1be70",
                    "status": true,
                    "value": "0"
                },
                "nodeType": 0
            },
            "3": {
                "invocation": {
                    "address": "0xdcdbb4a68c2a88c3fc0c9187a2d1218e0289c226",
                    "callData": "0x0000000000000000000000000000000000000000000000000000000000000b64000000000000000000000000000000000000000000000000000000000000004a000000000000000000000000740df024ce73f589acd5e8756b377ef8c6558bab000000000000000000000000614dca9ace2cea0a89320b0c8c43549848498bd6000000000000000000000000000000000000000000000000000000000000000000000000000000000000000000000000000000000000000302e59c390324808d0000000000000000000000000000000000000000000000000000000000000001000000000000000000000000000000000000000000000000000000000000010000000000000000000000000000000000000000000000000000000000000000a0000000000000000000000000c0ffee78121f208475abdd2cf0853a7afed64749000000000000000000000000ff8c8747ab44f5bdaeb0520525bbada166e8a8b00000000000000000000000000000000000000000033b2e3c9fd0803ce80000000000000000000000000000000000000000000000000000000000000000000080000000000000000000000000000000000000000000000000000000000000000000000000000000000000000000000000000000000000000000000000000249f000000000000000000000000000000000000000000000000000000009502f9001",
                    "decodedMethod": {
                        "callParams": [
                            {
                                "name": "",
                                "type": "uint256",
                                "value": "2,916"
                            },
                            {
                                "name": "fromChain",
                                "type": "uint32",
                                "value": "74"
                            },
                            {
                                "name": "holographableContract",
                                "type": "address",
                                "value": "0x740df024ce73f589acd5e8756b377ef8c6558bab"
                            },
                            {
                                "name": "hToken",
                                "type": "address",
                                "value": "0x614dca9ace2cea0a89320b0c8c43549848498bd6"
                            },
                            {
                                "name": "hTokenRecipient",
                                "type": "address",
                                "value": "0x0000000000000000000000000000000000000000"
                            },
                            {
                                "name": "hTokenValue",
                                "type": "uint256",
                                "value": "55,548,976,947,551,043,725"
                            },
                            {
                                "name": "doNotRevert",
                                "type": "bool",
                                "value": true
                            },
                            {
                                "name": "bridgeInPayload",
                                "type": "bytes",
                                "value": "0x000000000000000000000000c0ffee78121f208475abdd2cf0853a7afed64749000000000000000000000000ff8c8747ab44f5bdaeb0520525bbada166e8a8b00000000000000000000000000000000000000000033b2e3c9fd0803ce800000000000000000000000000000000000000000000000000000000000000000000800000000000000000000000000000000000000000000000000000000000000000"
                            }
                        ],
                        "constructorArguments": "",
                        "name": "bridgeInRequest",
                        "returnParams": [],
                        "signature": "bridgeInRequest(uint256,uint32,address,address,address,uint256,bool,bytes)"
                    },
                    "errorInfo": "",
                    "fromAddress": "0x8d5b1b160d33ce8b6cafe2674a81916d33c6ff0b",
                    "gasUsed": 78710,
                    "id": 3,
                    "methodDecoded": true,
                    "operation": "DELEGATECALL",
                    "output": "",
                    "revert": false,
                    "revertMessage": "",
                    "selector": "0x16f1be70",
                    "status": true,
                    "value": "0"
                },
                "nodeType": 0
            },
            "4": {
                "invocation": {
                    "address": "0xc0768aa301fa733e45b2de64657f952407ec564b",
                    "callData": "0x000000000000000000000000740df024ce73f589acd5e8756b377ef8c6558bab",
                    "decodedMethod": {
                        "callParams": [
                            {
                                "name": "smartContract",
                                "type": "address",
                                "value": "0x740df024ce73f589acd5e8756b377ef8c6558bab"
                            }
                        ],
                        "constructorArguments": "",
                        "name": "isHolographedContract",
                        "returnParams": [
                            {
                                "name": "",
                                "type": "bool",
                                "value": true
                            }
                        ],
                        "signature": "isHolographedContract(address)"
                    },
                    "errorInfo": "",
                    "fromAddress": "0x8d5b1b160d33ce8b6cafe2674a81916d33c6ff0b",
                    "gasUsed": 7521,
                    "id": 4,
                    "methodDecoded": true,
                    "operation": "STATICCALL",
                    "output": "0x0000000000000000000000000000000000000000000000000000000000000001",
                    "revert": false,
                    "revertMessage": "",
                    "selector": "0x44b25fff",
                    "status": true,
                    "value": "0"
                },
                "nodeType": 0
            },
            "5": {
                "invocation": {
                    "address": "0x768955fc9bc8717fb88278dd51c42a58b2a1ad25",
                    "callData": "0x000000000000000000000000740df024ce73f589acd5e8756b377ef8c6558bab",
                    "decodedMethod": {
                        "callParams": [
                            {
                                "name": "smartContract",
                                "type": "address",
                                "value": "0x740df024ce73f589acd5e8756b377ef8c6558bab"
                            }
                        ],
                        "constructorArguments": "",
                        "name": "isHolographedContract",
                        "returnParams": [
                            {
                                "name": "",
                                "type": "bool",
                                "value": true
                            }
                        ],
                        "signature": "isHolographedContract(address)"
                    },
                    "errorInfo": "",
                    "fromAddress": "0xc0768aa301fa733e45b2de64657f952407ec564b",
                    "gasUsed": 2587,
                    "id": 5,
                    "methodDecoded": true,
                    "operation": "DELEGATECALL",
                    "output": "0x0000000000000000000000000000000000000000000000000000000000000001",
                    "revert": false,
                    "revertMessage": "",
                    "selector": "0x44b25fff",
                    "status": true,
                    "value": "0"
                },
                "nodeType": 0
            },
            "6": {
                "invocation": {
                    "address": "0x740df024ce73f589acd5e8756b377ef8c6558bab",
                    "callData": "0x000000000000000000000000000000000000000000000000000000000000004a000000000000000000000000000000000000000000000000000000000000004000000000000000000000000000000000000000000000000000000000000000a0000000000000000000000000c0ffee78121f208475abdd2cf0853a7afed64749000000000000000000000000ff8c8747ab44f5bdaeb0520525bbada166e8a8b00000000000000000000000000000000000000000033b2e3c9fd0803ce800000000000000000000000000000000000000000000000000000000000000000000800000000000000000000000000000000000000000000000000000000000000000",
                    "decodedMethod": {
                        "callParams": [
                            {
                                "name": "fromChain",
                                "type": "uint32",
                                "value": "74"
                            },
                            {
                                "name": "payload",
                                "type": "bytes",
                                "value": "0x000000000000000000000000c0ffee78121f208475abdd2cf0853a7afed64749000000000000000000000000ff8c8747ab44f5bdaeb0520525bbada166e8a8b00000000000000000000000000000000000000000033b2e3c9fd0803ce800000000000000000000000000000000000000000000000000000000000000000000800000000000000000000000000000000000000000000000000000000000000000"
                            }
                        ],
                        "constructorArguments": "",
                        "name": "bridgeIn",
                        "returnParams": [
                            {
                                "name": "",
                                "type": "bytes4",
                                "value": "0x08a1eb20"
                            }
                        ],
                        "signature": "bridgeIn(uint32,bytes)"
                    },
                    "errorInfo": "",
                    "fromAddress": "0x8d5b1b160d33ce8b6cafe2674a81916d33c6ff0b",
                    "gasUsed": 59789,
                    "id": 6,
                    "methodDecoded": true,
                    "operation": "CALL",
                    "output": "0x08a1eb2000000000000000000000000000000000000000000000000000000000",
                    "revert": false,
                    "revertMessage": "",
                    "selector": "0x08a1eb20",
                    "status": true,
                    "value": "0"
                },
                "nodeType": 0
            },
            "7": {
                "invocation": {
                    "address": "0x1ed99dfe7462763eaf6925271d7cb2232a61854c",
                    "callData": "0x",
                    "decodedMethod": {
                        "callParams": [],
                        "constructorArguments": "",
                        "name": "getRegistry",
                        "returnParams": [
                            {
                                "name": "registry",
                                "type": "address",
                                "value": "0xc0768aa301fa733e45b2de64657f952407ec564b"
                            }
                        ],
                        "signature": "getRegistry()"
                    },
                    "errorInfo": "",
                    "fromAddress": "0x740df024ce73f589acd5e8756b377ef8c6558bab",
                    "gasUsed": 2358,
                    "id": 7,
                    "methodDecoded": true,
                    "operation": "STATICCALL",
                    "output": "0x000000000000000000000000c0768aa301fa733e45b2de64657f952407ec564b",
                    "revert": false,
                    "revertMessage": "",
                    "selector": "0x5ab1bd53",
                    "status": true,
                    "value": "0"
                },
                "nodeType": 0
            },
            "8": {
                "invocation": {
                    "address": "0xc0768aa301fa733e45b2de64657f952407ec564b",
                    "callData": "0x000000000000000000000000000000000000486f6c6f67726170684552433230",
                    "decodedMethod": {
                        "callParams": [
                            {
                                "name": "contractType",
                                "type": "bytes32",
                                "value": "0x000000000000000000000000000000000000486f6c6f67726170684552433230"
                            }
                        ],
                        "constructorArguments": "",
                        "name": "getReservedContractTypeAddress",
                        "returnParams": [
                            {
                                "name": "contractTypeAddress",
                                "type": "address",
                                "value": "0x57eea1eaaa6ae35039e43b9c15f3deafc89f0ff1"
                            }
                        ],
                        "signature": "getReservedContractTypeAddress(bytes32)"
                    },
                    "errorInfo": "",
                    "fromAddress": "0x740df024ce73f589acd5e8756b377ef8c6558bab",
                    "gasUsed": 5198,
                    "id": 8,
                    "methodDecoded": true,
                    "operation": "STATICCALL",
                    "output": "0x00000000000000000000000057eea1eaaa6ae35039e43b9c15f3deafc89f0ff1",
                    "revert": false,
                    "revertMessage": "",
                    "selector": "0x74b7510c",
                    "status": true,
                    "value": "0"
                },
                "nodeType": 0
            },
            "9": {
                "invocation": {
                    "address": "0x768955fc9bc8717fb88278dd51c42a58b2a1ad25",
                    "callData": "0x000000000000000000000000000000000000486f6c6f67726170684552433230",
                    "decodedMethod": {
                        "callParams": [
                            {
                                "name": "contractType",
                                "type": "bytes32",
                                "value": "0x000000000000000000000000000000000000486f6c6f67726170684552433230"
                            }
                        ],
                        "constructorArguments": "",
                        "name": "getReservedContractTypeAddress",
                        "returnParams": [
                            {
                                "name": "contractTypeAddress",
                                "type": "address",
                                "value": "0x57eea1eaaa6ae35039e43b9c15f3deafc89f0ff1"
                            }
                        ],
                        "signature": "getReservedContractTypeAddress(bytes32)"
                    },
                    "errorInfo": "",
                    "fromAddress": "0xc0768aa301fa733e45b2de64657f952407ec564b",
                    "gasUsed": 4743,
                    "id": 9,
                    "methodDecoded": true,
                    "operation": "DELEGATECALL",
                    "output": "0x00000000000000000000000057eea1eaaa6ae35039e43b9c15f3deafc89f0ff1",
                    "revert": false,
                    "revertMessage": "",
                    "selector": "0x74b7510c",
                    "status": true,
                    "value": "0"
                },
                "nodeType": 0
            }
        },
        "gasFlame": [
            {
                "children": [
                    {
                        "children": [
                            {
                                "children": [],
                                "depth": 0,
                                "name": "Initial Gas",
                                "value": 24936
                            },
                            {
                                "children": [
                                    {
                                        "children": [
                                            {
                                                "children": [
                                                    {
                                                        "children": [
                                                            {
                                                                "children": [
                                                                    {
                                                                        "children": [],
                                                                        "depth": 5,
                                                                        "name": "isHolographedContract",
                                                                        "value": 2587
                                                                    }
                                                                ],
                                                                "depth": 4,
                                                                "name": "isHolographedContract",
                                                                "value": 7521
                                                            },
                                                            {
                                                                "children": [
                                                                    {
                                                                        "children": [],
                                                                        "depth": 5,
                                                                        "name": "getRegistry",
                                                                        "value": 2358
                                                                    },
                                                                    {
                                                                        "children": [
                                                                            {
                                                                                "children": [],
                                                                                "depth": 6,
                                                                                "name": "getReservedContractTypeAddress",
                                                                                "value": 4743
                                                                            }
                                                                        ],
                                                                        "depth": 5,
                                                                        "name": "getReservedContractTypeAddress",
                                                                        "value": 5198
                                                                    },
                                                                    {
                                                                        "children": [
                                                                            {
                                                                                "children": [],
                                                                                "depth": 6,
                                                                                "name": "getBridge",
                                                                                "value": 2359
                                                                            },
                                                                            {
                                                                                "children": [],
                                                                                "depth": 6,
                                                                                "name": "getRegistry",
                                                                                "value": 358
                                                                            },
                                                                            {
                                                                                "children": [
                                                                                    {
                                                                                        "children": [],
                                                                                        "depth": 7,
                                                                                        "name": "holographableEvent",
                                                                                        "value": 3584
                                                                                    }
                                                                                ],
                                                                                "depth": 6,
                                                                                "name": "holographableEvent",
                                                                                "value": 4063
                                                                            }
                                                                        ],
                                                                        "depth": 5,
                                                                        "name": "bridgeIn",
                                                                        "value": 41778
                                                                    }
                                                                ],
                                                                "depth": 4,
                                                                "name": "bridgeIn",
                                                                "value": 59789
                                                            }
                                                        ],
                                                        "depth": 3,
                                                        "name": "bridgeInRequest",
                                                        "value": 78710
                                                    }
                                                ],
                                                "depth": 2,
                                                "name": "bridgeInRequest",
                                                "value": 83728
                                            }
                                        ],
                                        "depth": 1,
                                        "name": "recoverJob",
                                        "value": 94836
                                    }
                                ],
                                "depth": 0,
                                "name": "Executed Gas",
                                "value": 99872
                            }
                        ],
                        "depth": -1,
                        "name": "Actual Gas Used",
                        "value": 120008
                    },
                    {
                        "children": [],
                        "depth": -1,
                        "name": "Refunded Gas",
                        "value": 4800
                    }
                ],
                "depth": -2,
                "name": "Total Gas",
                "value": 124808
            }
        ],
        "isConfirmed": true,
        "mainTrace": [
            {
                "children": [
                    {
                        "children": [
                            {
                                "children": [
                                    {
                                        "children": [
                                            {
                                                "children": [
                                                    {
                                                        "children": [
                                                            {
                                                                "children": [],
                                                                "depth": 5,
                                                                "id": 5,
                                                                "order": 5
                                                            }
                                                        ],
                                                        "depth": 4,
                                                        "id": 4,
                                                        "order": 4
                                                    },
                                                    {
                                                        "children": [
                                                            {
                                                                "children": [],
                                                                "depth": 5,
                                                                "id": 7,
                                                                "order": 7
                                                            },
                                                            {
                                                                "children": [
                                                                    {
                                                                        "children": [],
                                                                        "depth": 6,
                                                                        "id": 9,
                                                                        "order": 9
                                                                    }
                                                                ],
                                                                "depth": 5,
                                                                "id": 8,
                                                                "order": 8
                                                            },
                                                            {
                                                                "children": [
                                                                    {
                                                                        "children": [],
                                                                        "depth": 6,
                                                                        "id": 11,
                                                                        "order": 11
                                                                    },
                                                                    {
                                                                        "children": [],
                                                                        "depth": 6,
                                                                        "id": 12,
                                                                        "order": 12
                                                                    },
                                                                    {
                                                                        "children": [],
                                                                        "depth": 6,
                                                                        "id": 13,
                                                                        "order": 13
                                                                    },
                                                                    {
                                                                        "children": [
                                                                            {
                                                                                "children": [
                                                                                    {
                                                                                        "children": [],
                                                                                        "depth": 8,
                                                                                        "id": 16,
                                                                                        "order": 16
                                                                                    }
                                                                                ],
                                                                                "depth": 7,
                                                                                "id": 15,
                                                                                "order": 15
                                                                            }
                                                                        ],
                                                                        "depth": 6,
                                                                        "id": 14,
                                                                        "order": 14
                                                                    }
                                                                ],
                                                                "depth": 5,
                                                                "id": 10,
                                                                "order": 10
                                                            }
                                                        ],
                                                        "depth": 4,
                                                        "id": 6,
                                                        "order": 6
                                                    }
                                                ],
                                                "depth": 3,
                                                "id": 3,
                                                "order": 3
                                            }
                                        ],
                                        "depth": 2,
                                        "id": 2,
                                        "order": 2
                                    }
                                ],
                                "depth": 1,
                                "id": 1,
                                "order": 1
                            }
                        ],
                        "depth": 0,
                        "id": 0,
                        "order": 0
                    }
                ],
                "depth": -1,
                "id": -1,
                "order": -1
            }
        ],
        "mainTraceNodeCount": 17,
        "parentIdMap": {
            "0": -1,
            "1": 0,
            "10": 6,
            "11": 10,
            "12": 10,
            "13": 10,
            "14": 10,
            "15": 14,
            "16": 15,
            "2": 1,
            "3": 2,
            "4": 3,
            "5": 4,
            "6": 3,
            "7": 6,
            "8": 6,
            "9": 8
        },
        "tidyTrace": [
            {
                "children": [
                    {
                        "children": [
                            {
                                "children": [
                                    {
                                        "children": [
                                            {
                                                "children": [
                                                    {
                                                        "children": [
                                                            {
                                                                "children": [
                                                                    {
                                                                        "children": [],
                                                                        "depth": 6,
                                                                        "id": 12,
                                                                        "order": 12
                                                                    },
                                                                    {
                                                                        "children": [
                                                                            {
                                                                                "children": [
                                                                                    {
                                                                                        "children": [],
                                                                                        "depth": 8,
                                                                                        "id": 16,
                                                                                        "order": 16
                                                                                    }
                                                                                ],
                                                                                "depth": 7,
                                                                                "id": 15,
                                                                                "order": 15
                                                                            }
                                                                        ],
                                                                        "depth": 6,
                                                                        "id": 14,
                                                                        "order": 14
                                                                    }
                                                                ],
                                                                "depth": 5,
                                                                "id": 10,
                                                                "order": 10
                                                            }
                                                        ],
                                                        "depth": 4,
                                                        "id": 6,
                                                        "order": 6
                                                    }
                                                ],
                                                "depth": 3,
                                                "id": 3,
                                                "order": 3
                                            }
                                        ],
                                        "depth": 2,
                                        "id": 2,
                                        "order": 2
                                    }
                                ],
                                "depth": 1,
                                "id": 1,
                                "order": 1
                            }
                        ],
                        "depth": 0,
                        "id": 0,
                        "order": 0
                    }
                ],
                "depth": -1,
                "id": -1,
                "order": -1
            }
        ],
        "tidyTraceNodeCount": 10
    },
    "state_change": {
        "stateChanges": [
            {
                "address": "0x740df024ce73f589acd5e8756b377ef8c6558bab",
                "erc": "",
                "slots": [
                    {
                        "current": "0x0000000000000000000000000000000000000000237b570774a2a8c6c5d9db4f",
                        "key": "0x0000000000000000000000000000000000000000000000000000000000000009",
                        "prev": "0x0000000000000000000000000000000000000000204028cad4d22889ddd9db4f"
                    },
                    {
                        "current": "0x0000000000000000000000000000000000000000033b2e3c9fd0803ce8000000",
                        "key": "0xba7d0a75e7198d046f78643ca280120ce8852610d3338b6649fd11fec90acd8b",
                        "prev": "0x0000000000000000000000000000000000000000000000000000000000000000"
                    }
                ],
                "storageVariables": []
            },
            {
                "address": "0xe1dd53589c001982d06247e1259dcc366b8ddb1b",
                "erc": "",
                "slots": [
                    {
                        "current": "0x0000000000000000000000000000000000000000000000000000000000000000",
                        "key": "0x1dce4e685eafd7dfc00e354e958196abd5bec818c30114b560545ea750b1b37e",
                        "prev": "0x0000000000000000000000000000000000000000000000000000000000000001"
                    }
                ],
                "storageVariables": [
                    {
                        "name": "_failedJobs",
                        "type": "mapping(bytes32 => bool)",
                        "value": {
                            "pairs": [
                                {
                                    "key": "0x3f9c5cc110c558a92c8fcd807deccaa8d15b4a83baf326f760de093728916571",
                                    "value": {
                                        "current": "false",
                                        "prev": "true",
                                        "typeTag": 1
                                    }
                                }
                            ],
                            "typeTag": 4
                        }
                    }
                ]
            }
        ]
    }
}