{
    "balance_change": {
        "balanceChanges": [
            {
                "account": "0xded2b1a426e1b7d415a40bcad44e98f47181dda2",
                "assets": [
                    {
                        "address": "0x88b9f5c66342ebaf661b3e2836b807c8cb1b3195",
                        "amount": "2,380,000",
                        "iconUrl": "",
                        "isERC1155": false,
                        "isERC721": false,
                        "sign": true,
                        "value": "53533.55243"
                    }
                ]
            },
            {
                "account": "0x0000000000000000000000000000000000000000",
                "assets": [
                    {
                        "address": "0xc98936de9640d6bfc24f82de1cf0f8cd9f5b388d",
                        "amount": "55.640024973434531459",
                        "iconUrl": "",
                        "isERC1155": false,
                        "isERC721": false,
                        "sign": false,
                        "value": "984.2139128"
                    }
                ]
            },
            {
                "account": "0x3933bb4d19904deba20a02efc66229aaea441ba8",
                "assets": [
                    {
                        "address": "0xc98936de9640d6bfc24f82de1cf0f8cd9f5b388d",
                        "amount": "55.640024973434531459",
                        "iconUrl": "",
                        "isERC1155": false,
                        "isERC721": false,
                        "sign": true,
                        "value": "984.2139128"
                    }
                ]
            },
            {
                "account": "0x88b9f5c66342ebaf661b3e2836b807c8cb1b3195",
                "assets": [
                    {
                        "address": "0x88b9f5c66342ebaf661b3e2836b807c8cb1b3195",
                        "amount": "121,154.475256892245227852",
                        "iconUrl": "",
                        "isERC1155": false,
                        "isERC721": false,
                        "sign": false,
                        "value": "2503.662786"
                    }
                ]
            },
            {
                "account": "0xa21bb38c1c760f221d56f2e3226a27c9cdbe8061",
                "assets": [
                    {
                        "address": "0xeeeeeeeeeeeeeeeeeeeeeeeeeeeeeeeeeeeeeeee",
                        "amount": "0.318135188593015507",
                        "iconUrl": "https://assets.blocksec.com/image/1663669189317-3.png",
                        "isERC1155": false,
                        "isERC721": false,
                        "sign": true,
                        "value": "988.51602072169193636"
                    }
                ]
            },
            {
                "account": "0xbc452fdc8f851d7c5b72e1fe74dfb63bb793d511",
                "assets": [
                    {
                        "address": "0x88b9f5c66342ebaf661b3e2836b807c8cb1b3195",
                        "amount": "2,380,000",
                        "iconUrl": "",
                        "isERC1155": false,
                        "isERC721": false,
                        "sign": false,
                        "value": "53533.55243"
                    }
                ]
            },
            {
                "account": "0xc02aaa39b223fe8d0a0e5c4f27ead9083c756cc2",
                "assets": [
                    {
                        "address": "0xeeeeeeeeeeeeeeeeeeeeeeeeeeeeeeeeeeeeeeee",
                        "amount": "0.638186854225747973",
                        "iconUrl": "https://assets.blocksec.com/image/1663669189317-3.png",
                        "isERC1155": false,
                        "isERC721": false,
                        "sign": false,
                        "value": "1982.9869571073238722"
                    },
                    {
                        "address": "0xc02aaa39b223fe8d0a0e5c4f27ead9083c756cc2",
                        "amount": "0.638186854225747973",
                        "iconUrl": "https://assets.blocksec.com/icon/f1cb2d02c471d545bbc7722daf3277fd852d98e63d118771af7047bd8256c516.png",
                        "isERC1155": false,
                        "isERC721": false,
                        "sign": true,
                        "value": "1985.2078473599398839"
                    }
                ]
            },
            {
                "account": "0xc98936de9640d6bfc24f82de1cf0f8cd9f5b388d",
                "assets": [
                    {
                        "address": "0x88b9f5c66342ebaf661b3e2836b807c8cb1b3195",
                        "amount": "121,154.475256892245227852",
                        "iconUrl": "",
                        "isERC1155": false,
                        "isERC721": false,
                        "sign": true,
                        "value": "2503.662786"
                    },
                    {
                        "address": "0xc02aaa39b223fe8d0a0e5c4f27ead9083c756cc2",
                        "amount": "0.638186854225747973",
                        "iconUrl": "https://assets.blocksec.com/icon/f1cb2d02c471d545bbc7722daf3277fd852d98e63d118771af7047bd8256c516.png",
                        "isERC1155": false,
                        "isERC721": false,
                        "sign": false,
                        "value": "1985.2078473599398839"
                    }
                ]
            },
            {
                "account": "0xee9b6aa7196c1d9a3bb0de858e1e0ab81d0cd0e0",
                "assets": [
                    {
                        "address": "0xeeeeeeeeeeeeeeeeeeeeeeeeeeeeeeeeeeeeeeee",
                        "amount": "0.320051665632732466",
                        "iconUrl": "https://assets.blocksec.com/image/1663669189317-3.png",
                        "isERC1155": false,
                        "isERC721": false,
                        "sign": true,
                        "value": "994.470936385631936"
                    }
                ]
            }
        ]
    },
    "profile": {
        "basic_info": {
            "baseFee": "11.924148042",
            "blockNumber": 19688050,
            "callData": "0xe32a9a3700000000000000000000000088b9f5c66342ebaf661b3e2836b807c8cb1b319500000000000000000000000000000000000000000001f7fc0efb8b91b7800000",
            "debugEnable": true,
            "errorInfo": "",
            "eventCount": 17,
            "feeRecipient": "0x4838b106fce9647bdf1e7877bf73ce8b0bad5f97",
            "formatValue": "0",
            "gasLimit": 394442,
            "gasPrice": "14.924148042",
            "gasUsed": 308784,
            "intTxnCount": 27,
            "internalRevert": false,
            "internalRevertMessage": "",
            "isContractCreation": false,
            "isFlashloan": false,
            "maxFee": "25",
            "nonce": 38,
            "overwritedBlockNumber": -1,
            "priorityFee": "3",
            "receiver": "0xd818ff3d5cfc938014b270d0c8029ba04629b549",
            "revertMessage": "",
            "sender": "0xded2b1a426e1b7d415a40bcad44e98f47181dda2",
            "simulationEnable": true,
            "sourceTxnHash": "0x108a52c403fe206bafb34ce1880138f22591f82b0f45c6c77de7c8787dc6a834",
            "status": true,
            "timestamp": "2024-04-19T07:38:59Z",
            "transactionFee": "0.004608338129000928",
            "txnHash": "0x108a52c403fe206bafb34ce1880138f22591f82b0f45c6c77de7c8787dc6a834",
            "txnIndex": 4,
            "type": 2,
            "value": "0"
        },
        "fund_flow": [
            {
                "amount": "121,154.475256892245227852",
                "from": "0x88b9f5c66342ebaf661b3e2836b807c8cb1b3195",
                "id": 1,
                "isERC1155": false,
                "isERC721": false,
                "isReverted": false,
                "order": 1,
                "to": "0xc98936de9640d6bfc24f82de1cf0f8cd9f5b388d",
                "token": "0x88b9f5c66342ebaf661b3e2836b807c8cb1b3195"
            },
            {
                "amount": "0.798100840094938736",
                "from": "0xc98936de9640d6bfc24f82de1cf0f8cd9f5b388d",
                "id": 2,
                "isERC1155": false,
                "isERC721": false,
                "isReverted": false,
                "order": 2,
                "to": "0x7a250d5630b4cf539739df2c5dacb4c659f2488d",
                "token": "0xc02aaa39b223fe8d0a0e5c4f27ead9083c756cc2"
            },
            {
                "amount": "0.798100840094938736",
                "from": "0xc02aaa39b223fe8d0a0e5c4f27ead9083c756cc2",
                "id": 3,
                "isERC1155": false,
                "isERC721": false,
                "isReverted": false,
                "order": 3,
                "to": "0x7a250d5630b4cf539739df2c5dacb4c659f2488d",
                "token": "0xeeeeeeeeeeeeeeeeeeeeeeeeeeeeeeeeeeeeeeee"
            },
            {
                "amount": "0.798100840094938736",
                "from": "0x7a250d5630b4cf539739df2c5dacb4c659f2488d",
                "id": 4,
                "isERC1155": false,
                "isERC721": false,
                "isReverted": false,
                "order": 4,
                "to": "0xc02aaa39b223fe8d0a0e5c4f27ead9083c756cc2",
                "token": "0xc02aaa39b223fe8d0a0e5c4f27ead9083c756cc2"
            },
            {
                "amount": "0.798190263944661261",
                "from": "0x7a250d5630b4cf539739df2c5dacb4c659f2488d",
                "id": 5,
                "isERC1155": false,
                "isERC721": false,
                "isReverted": false,
                "order": 5,
                "to": "0x88b9f5c66342ebaf661b3e2836b807c8cb1b3195",
                "token": "0xeeeeeeeeeeeeeeeeeeeeeeeeeeeeeeeeeeeeeeee"
            },
            {
                "amount": "0.160003409718913288",
                "from": "0x88b9f5c66342ebaf661b3e2836b807c8cb1b3195",
                "id": 6,
                "isERC1155": false,
                "isERC721": false,
                "isReverted": false,
                "order": 6,
                "to": "0x7a250d5630b4cf539739df2c5dacb4c659f2488d",
                "token": "0xeeeeeeeeeeeeeeeeeeeeeeeeeeeeeeeeeeeeeeee"
            },
            {
                "amount": "0.159913985869190763",
                "from": "0x7a250d5630b4cf539739df2c5dacb4c659f2488d",
                "id": 7,
                "isERC1155": false,
                "isERC721": false,
                "isReverted": false,
                "order": 7,
                "to": "0xc02aaa39b223fe8d0a0e5c4f27ead9083c756cc2",
                "token": "0xeeeeeeeeeeeeeeeeeeeeeeeeeeeeeeeeeeeeeeee"
            },
            {
                "amount": "0.159913985869190763",
                "from": "0xc02aaa39b223fe8d0a0e5c4f27ead9083c756cc2",
                "id": 8,
                "isERC1155": false,
                "isERC721": false,
                "isReverted": false,
                "order": 8,
                "to": "0x7a250d5630b4cf539739df2c5dacb4c659f2488d",
                "token": "0xc02aaa39b223fe8d0a0e5c4f27ead9083c756cc2"
            },
            {
                "amount": "0.159913985869190763",
                "from": "0x7a250d5630b4cf539739df2c5dacb4c659f2488d",
                "id": 9,
                "isERC1155": false,
                "isERC721": false,
                "isReverted": false,
                "order": 9,
                "to": "0xc98936de9640d6bfc24f82de1cf0f8cd9f5b388d",
                "token": "0xc02aaa39b223fe8d0a0e5c4f27ead9083c756cc2"
            },
            {
                "amount": "55.640024973434531459",
                "from": "0x0000000000000000000000000000000000000000",
                "id": 10,
                "isERC1155": false,
                "isERC721": false,
                "isReverted": false,
                "order": 10,
                "to": "0x3933bb4d19904deba20a02efc66229aaea441ba8",
                "token": "0xc98936de9640d6bfc24f82de1cf0f8cd9f5b388d"
            },
            {
                "amount": "0.320051665632732466",
                "from": "0x88b9f5c66342ebaf661b3e2836b807c8cb1b3195",
                "id": 11,
                "isERC1155": false,
                "isERC721": false,
                "isReverted": false,
                "order": 11,
                "to": "0xee9b6aa7196c1d9a3bb0de858e1e0ab81d0cd0e0",
                "token": "0xeeeeeeeeeeeeeeeeeeeeeeeeeeeeeeeeeeeeeeee"
            },
            {
                "amount": "0.318135188593015507",
                "from": "0x88b9f5c66342ebaf661b3e2836b807c8cb1b3195",
                "id": 12,
                "isERC1155": false,
                "isERC721": false,
                "isReverted": false,
                "order": 12,
                "to": "0xa21bb38c1c760f221d56f2e3226a27c9cdbe8061",
                "token": "0xeeeeeeeeeeeeeeeeeeeeeeeeeeeeeeeeeeeeeeee"
            },
            {
                "amount": "2,380,000",
                "from": "0xbc452fdc8f851d7c5b72e1fe74dfb63bb793d511",
                "id": 13,
                "isERC1155": false,
                "isERC721": false,
                "isReverted": false,
                "order": 13,
                "to": "0xded2b1a426e1b7d415a40bcad44e98f47181dda2",
                "token": "0x88b9f5c66342ebaf661b3e2836b807c8cb1b3195"
            }
        ],
        "token_infos": [
            {
                "address": "0x88b9f5c66342ebaf661b3e2836b807c8cb1b3195",
                "decimals": 18
            },
            {
                "address": "0xc02aaa39b223fe8d0a0e5c4f27ead9083c756cc2",
                "decimals": 18
            },
            {
                "address": "0xc98936de9640d6bfc24f82de1cf0f8cd9f5b388d",
                "decimals": 18
            },
            {
                "address": "0xeeeeeeeeeeeeeeeeeeeeeeeeeeeeeeeeeeeeeeee",
                "decimals": 18
            }
        ]
    },
    "address_label": {
        "labels": [
            {
                "address": "0x88b9f5c66342ebaf661b3e2836b807c8cb1b3195",
                "label": "NobleBlocks: NOBL Token"
            },
            {
                "address": "0xc98936de9640d6bfc24f82de1cf0f8cd9f5b388d",
                "label": "Uniswap V2: NOBL 2"
            },
            {
                "address": "0x5c69bee701ef814a2b6a3edd4b1652cb9cc5aa6f",
                "label": "Uniswap V2: Factory Contract"
            },
            {
                "address": "0x3933bb4d19904deba20a02efc66229aaea441ba8",
                "label": "NobleBlocks: Deployer"
            },
            {
                "address": "0x0000000000000000000000000000000000000003",
                "label": "Precompiled"
            },
            {
                "address": "0x0000000000000000000000000000000000000004",
                "label": "Precompiled"
            },
            {
                "address": "0x7a250d5630b4cf539739df2c5dacb4c659f2488d",
                "label": "Uniswap V2: Router 2"
            },
            {
                "address": "0xded2b1a426e1b7d415a40bcad44e98f47181dda2",
                "label": "Hedgey Finance Exploiter"
            },
            {
                "address": "0x0000000000000000000000000000000000000000",
                "label": "Null Address"
            },
            {
                "address": "0xeeeeeeeeeeeeeeeeeeeeeeeeeeeeeeeeeeeeeeee",
                "label": "Ether"
            },
            {
                "address": "0x0000000000000000000000000000000000000001",
                "label": "Precompiled"
            },
            {
                "address": "0x0000000000000000000000000000000000000002",
                "label": "Precompiled"
            },
            {
                "address": "0xc02aaa39b223fe8d0a0e5c4f27ead9083c756cc2",
                "label": "Wrapped Ether (WETH)"
            },
            {
                "address": "0xbc452fdc8f851d7c5b72e1fe74dfb63bb793d511",
                "label": "Hedgey Finance: Claims"
            }
        ]
    },
    "trace": {
        "accountLabels": null,
        "dataMap": {
            "-1": {
                "invocation": {
                    "address": "0xded2b1a426e1b7d415a40bcad44e98f47181dda2",
                    "callData": "",
                    "decodedMethod": null,
                    "errorInfo": "",
                    "fromAddress": "",
                    "gasUsed": 0,
                    "id": -1,
                    "methodDecoded": false,
                    "operation": "",
                    "output": "",
                    "revert": false,
                    "revertMessage": "",
                    "selector": "",
                    "status": false,
                    "value": ""
                },
                "nodeType": 0
            },
            "0": {
                "invocation": {
                    "address": "0xd818ff3d5cfc938014b270d0c8029ba04629b549",
                    "callData": "0x00000000000000000000000088b9f5c66342ebaf661b3e2836b807c8cb1b319500000000000000000000000000000000000000000001f7fc0efb8b91b7800000",
                    "decodedMethod": null,
                    "errorInfo": "",
                    "fromAddress": "0xded2b1a426e1b7d415a40bcad44e98f47181dda2",
                    "gasUsed": 308784,
                    "id": 0,
                    "methodDecoded": false,
                    "operation": "CALL",
                    "output": "",
                    "revert": false,
                    "revertMessage": "",
                    "selector": "0xe32a9a37",
                    "status": true,
                    "value": "0"
                },
                "nodeType": 0
            },
            "1": {
                "invocation": {
                    "address": "0x88b9f5c66342ebaf661b3e2836b807c8cb1b3195",
                    "callData": "0x000000000000000000000000bc452fdc8f851d7c5b72e1fe74dfb63bb793d511000000000000000000000000ded2b1a426e1b7d415a40bcad44e98f47181dda200000000000000000000000000000000000000000001f7fc0efb8b91b7800000",
                    "decodedMethod": {
                        "callParams": [
                            {
                                "name": "sender",
                                "type": "address",
                                "value": "0xbc452fdc8f851d7c5b72e1fe74dfb63bb793d511"
                            },
                            {
                                "name": "recipient",
                                "type": "address",
                                "value": "0xded2b1a426e1b7d415a40bcad44e98f47181dda2"
                            },
                            {
                                "decimalAvailable": true,
                                "name": "amount",
                                "type": "uint256",
                                "value": "2,380,000,000,000,000,000,000,000"
                            }
                        ],
                        "constructorArguments": "",
                        "name": "transferFrom",
                        "returnParams": [
                            {
                                "name": "",
                                "type": "bool",
                                "value": true
                            }
                        ],
                        "signature": "transferFrom(address,address,uint256)"
                    },
                    "errorInfo": "",
                    "fromAddress": "0xd818ff3d5cfc938014b270d0c8029ba04629b549",
                    "gasUsed": 355655,
                    "id": 1,
                    "methodDecoded": true,
                    "operation": "CALL",
                    "output": "0x0000000000000000000000000000000000000000000000000000000000000001",
                    "revert": false,
                    "revertMessage": "",
                    "selector": "0x23b872dd",
                    "status": true,
                    "value": "0"
                },
                "nodeType": 0
            },
            "10": {
                "invocation": {
                    "address": "0xc98936de9640d6bfc24f82de1cf0f8cd9f5b388d",
                    "callData": "0x00000000000000000000000000000000000000000000000000000000000000000000000000000000000000000000000000000000000000000b136c7c4cccb6700000000000000000000000007a250d5630b4cf539739df2c5dacb4c659f2488d00000000000000000000000000000000000000000000000000000000000000800000000000000000000000000000000000000000000000000000000000000000",
                    "decodedMethod": {
                        "callParams": [
                            {
                                "name": "amount0Out",
                                "type": "uint256",
                                "value": "0"
                            },
                            {
                                "name": "amount1Out",
                                "type": "uint256",
                                "value": "798,100,840,094,938,736"
                            },
                            {
                                "name": "to",
                                "type": "address",
                                "value": "0x7a250d5630b4cf539739df2c5dacb4c659f2488d"
                            },
                            {
                                "name": "data",
                                "type": "bytes",
                                "value": "0x"
                            }
                        ],
                        "constructorArguments": "",
                        "name": "swap",
                        "returnParams": [],
                        "signature": "swap(uint256,uint256,address,bytes)"
                    },
                    "errorInfo": "",
                    "fromAddress": "0x7a250d5630b4cf539739df2c5dacb4c659f2488d",
                    "gasUsed": 65206,
                    "id": 10,
                    "methodDecoded": true,
                    "operation": "CALL",
                    "output": "",
                    "revert": false,
                    "revertMessage": "",
                    "selector": "0x022c0d9f",
                    "status": true,
                    "value": "0"
                },
                "nodeType": 0
            },
            "11": {
                "invocation": {
                    "address": "0xc02aaa39b223fe8d0a0e5c4f27ead9083c756cc2",
                    "callData": "0x0000000000000000000000007a250d5630b4cf539739df2c5dacb4c659f2488d0000000000000000000000000000000000000000000000000b136c7c4cccb670",
                    "decodedMethod": {
                        "callParams": [
                            {
                                "name": "dst",
                                "type": "address",
                                "value": "0x7a250d5630b4cf539739df2c5dacb4c659f2488d"
                            },
                            {
                                "decimalAvailable": true,
                                "name": "wad",
                                "type": "uint256",
                                "value": "798,100,840,094,938,736"
                            }
                        ],
                        "constructorArguments": "",
                        "name": "transfer",
                        "returnParams": [
                            {
                                "name": "",
                                "type": "bool",
                                "value": true
                            }
                        ],
                        "signature": "transfer(address,uint256)"
                    },
                    "errorInfo": "",
                    "fromAddress": "0xc98936de9640d6bfc24f82de1cf0f8cd9f5b388d",
                    "gasUsed": 29962,
                    "id": 11,
                    "methodDecoded": true,
                    "operation": "CALL",
                    "output": "0x0000000000000000000000000000000000000000000000000000000000000001",
                    "revert": false,
                    "revertMessage": "",
                    "selector": "0xa9059cbb",
                    "status": true,
                    "value": "0"
                },
                "nodeType": 0
            },
            "12": {
                "event": {
                    "contract": "0xc02aaa39b223fe8d0a0e5c4f27ead9083c756cc2",
                    "decodedLog": {
                        "name": "Transfer",
                        "params": [
                            {
                                "name": "src",
                                "type": "address",
                                "value": "0xc98936de9640d6bfc24f82de1cf0f8cd9f5b388d"
                            },
                            {
                                "name": "dst",
                                "type": "address",
                                "value": "0x7a250d5630b4cf539739df2c5dacb4c659f2488d"
                            },
                            {
                                "decimalAvailable": true,
                                "name": "wad",
                                "type": "uint256",
                                "value": "798,100,840,094,938,736"
                            }
                        ],
                        "signature": "Transfer(address,address,uint256)"
                    },
                    "id": 12,
                    "logData": "0x0000000000000000000000000000000000000000000000000b136c7c4cccb670",
                    "logDecoded": true,
                    "operation": "EVENT",
                    "revert": false,
                    "status": true,
                    "topics": [
                        "0xddf252ad1be2c89b69c2b068fc378daa952ba7f163c4a11628f55a4df523b3ef",
                        "0x000000000000000000000000c98936de9640d6bfc24f82de1cf0f8cd9f5b388d",
                        "0x0000000000000000000000007a250d5630b4cf539739df2c5dacb4c659f2488d"
                    ]
                },
                "nodeType": 1
            },
            "13": {
                "invocation": {
                    "address": "0x88b9f5c66342ebaf661b3e2836b807c8cb1b3195",
                    "callData": "0x000000000000000000000000c98936de9640d6bfc24f82de1cf0f8cd9f5b388d",
                    "decodedMethod": {
                        "callParams": [
                            {
                                "name": "account",
                                "type": "address",
                                "value": "0xc98936de9640d6bfc24f82de1cf0f8cd9f5b388d"
                            }
                        ],
                        "constructorArguments": "",
                        "name": "balanceOf",
                        "returnParams": [
                            {
                                "decimalAvailable": true,
                                "name": "",
                                "type": "uint256",
                                "value": "28,371,016,615,598,052,207,172,774"
                            }
                        ],
                        "signature": "balanceOf(address)"
                    },
                    "errorInfo": "",
                    "fromAddress": "0xc98936de9640d6bfc24f82de1cf0f8cd9f5b388d",
                    "gasUsed": 887,
                    "id": 13,
                    "methodDecoded": true,
                    "operation": "STATICCALL",
                    "output": "0x0000000000000000000000000000000000000000001777cbe47bb6246e5b1ca6",
                    "revert": false,
                    "revertMessage": "",
                    "selector": "0x70a08231",
                    "status": true,
                    "value": "0"
                },
                "nodeType": 0
            },
            "14": {
                "invocation": {
                    "address": "0xc02aaa39b223fe8d0a0e5c4f27ead9083c756cc2",
                    "callData": "0x000000000000000000000000c98936de9640d6bfc24f82de1cf0f8cd9f5b388d",
                    "decodedMethod": {
                        "callParams": [
                            {
                                "name": "",
                                "type": "address",
                                "value": "0xc98936de9640d6bfc24f82de1cf0f8cd9f5b388d"
                            }
                        ],
                        "constructorArguments": "",
                        "name": "balanceOf",
                        "returnParams": [
                            {
                                "decimalAvailable": true,
                                "name": "",
                                "type": "uint256",
                                "value": "224,236,039,518,641,886,143"
                            }
                        ],
                        "signature": "balanceOf(address)"
                    },
                    "errorInfo": "",
                    "fromAddress": "0xc98936de9640d6bfc24f82de1cf0f8cd9f5b388d",
                    "gasUsed": 534,
                    "id": 14,
                    "methodDecoded": true,
                    "operation": "STATICCALL",
                    "output": "0x00000000000000000000000000000000000000000000000c27e671e3851a93bf",
                    "revert": false,
                    "revertMessage": "",
                    "selector": "0x70a08231",
                    "status": true,
                    "value": "0"
                },
                "nodeType": 0
            },
            "15": {
                "event": {
                    "contract": "0xc98936de9640d6bfc24f82de1cf0f8cd9f5b388d",
                    "decodedLog": {
                        "name": "Sync",
                        "params": [
                            {
                                "name": "reserve0",
                                "type": "uint112",
                                "value": "28,371,016,615,598,052,207,172,774"
                            },
                            {
                                "name": "reserve1",
                                "type": "uint112",
                                "value": "224,236,039,518,641,886,143"
                            }
                        ],
                        "signature": "Sync(uint112,uint112)"
                    },
                    "id": 15,
                    "logData": "0x0000000000000000000000000000000000000000001777cbe47bb6246e5b1ca600000000000000000000000000000000000000000000000c27e671e3851a93bf",
                    "logDecoded": true,
                    "operation": "EVENT",
                    "revert": false,
                    "status": true,
                    "topics": [
                        "0x1c411e9a96e071241c2f21f7726b17ae89e3cab4c78be50e062b03a9fffbbad1"
                    ]
                },
                "nodeType": 1
            },
            "16": {
                "event": {
                    "contract": "0xc98936de9640d6bfc24f82de1cf0f8cd9f5b388d",
                    "decodedLog": {
                        "name": "Swap",
                        "params": [
                            {
                                "name": "sender",
                                "type": "address",
                                "value": "0x7a250d5630b4cf539739df2c5dacb4c659f2488d"
                            },
                            {
                                "name": "to",
                                "type": "address",
                                "value": "0x7a250d5630b4cf539739df2c5dacb4c659f2488d"
                            },
                            {
                                "name": "amount0In",
                                "type": "uint256",
                                "value": "100,921,677,888,991,240,274,801"
                            },
                            {
                                "name": "amount1In",
                                "type": "uint256",
                                "value": "0"
                            },
                            {
                                "name": "amount0Out",
                                "type": "uint256",
                                "value": "0"
                            },
                            {
                                "name": "amount1Out",
                                "type": "uint256",
                                "value": "798,100,840,094,938,736"
                            }
                        ],
                        "signature": "Swap(address,uint256,uint256,uint256,uint256,address)"
                    },
                    "id": 16,
                    "logData": "0x00000000000000000000000000000000000000000000155ef9a18612554a4371000000000000000000000000000000000000000000000000000000000000000000000000000000000000000000000000000000000000000000000000000000000000000000000000000000000000000000000000000000000b136c7c4cccb670",
                    "logDecoded": true,
                    "operation": "EVENT",
                    "revert": false,
                    "status": true,
                    "topics": [
                        "0xd78ad95fa46c994b6551d0da85fc275fe613ce37657fb8d5e3d130840159d822",
                        "0x0000000000000000000000007a250d5630b4cf539739df2c5dacb4c659f2488d",
                        "0x0000000000000000000000007a250d5630b4cf539739df2c5dacb4c659f2488d"
                    ]
                },
                "nodeType": 1
            },
            "17": {
                "invocation": {
                    "address": "0xc02aaa39b223fe8d0a0e5c4f27ead9083c756cc2",
                    "callData": "0x0000000000000000000000007a250d5630b4cf539739df2c5dacb4c659f2488d",
                    "decodedMethod": {
                        "callParams": [
                            {
                                "name": "",
                                "type": "address",
                                "value": "0x7a250d5630b4cf539739df2c5dacb4c659f2488d"
                            }
                        ],
                        "constructorArguments": "",
                        "name": "balanceOf",
                        "returnParams": [
                            {
                                "decimalAvailable": true,
                                "name": "",
                                "type": "uint256",
                                "value": "798,100,840,094,938,736"
                            }
                        ],
                        "signature": "balanceOf(address)"
                    },
                    "errorInfo": "",
                    "fromAddress": "0x7a250d5630b4cf539739df2c5dacb4c659f2488d",
                    "gasUsed": 534,
                    "id": 17,
                    "methodDecoded": true,
                    "operation": "STATICCALL",
                    "output": "0x0000000000000000000000000000000000000000000000000b136c7c4cccb670",
                    "revert": false,
                    "revertMessage": "",
                    "selector": "0x70a08231",
                    "status": true,
                    "value": "0"
                },
                "nodeType": 0
            },
            "18": {
                "invocation": {
                    "address": "0xc02aaa39b223fe8d0a0e5c4f27ead9083c756cc2",
                    "callData": "0x0000000000000000000000000000000000000000000000000b136c7c4cccb670",
                    "decodedMethod": {
                        "callParams": [
                            {
                                "name": "wad",
                                "type": "uint256",
                                "value": "798,100,840,094,938,736"
                            }
                        ],
                        "constructorArguments": "",
                        "name": "withdraw",
                        "returnParams": [],
                        "signature": "withdraw(uint256)"
                    },
                    "errorInfo": "",
                    "fromAddress": "0x7a250d5630b4cf539739df2c5dacb4c659f2488d",
                    "gasUsed": 9223,
                    "id": 18,
                    "methodDecoded": true,
                    "operation": "CALL",
                    "output": "",
                    "revert": false,
                    "revertMessage": "",
                    "selector": "0x2e1a7d4d",
                    "status": true,
                    "value": "0"
                },
                "nodeType": 0
            },
            "19": {
                "invocation": {
                    "address": "0x7a250d5630b4cf539739df2c5dacb4c659f2488d",
                    "callData": "0x",
                    "decodedMethod": null,
                    "errorInfo": "",
                    "fromAddress": "0xc02aaa39b223fe8d0a0e5c4f27ead9083c756cc2",
                    "gasUsed": 83,
                    "id": 19,
                    "methodDecoded": false,
                    "operation": "CALL",
                    "output": "",
                    "revert": false,
                    "revertMessage": "",
                    "selector": "fallback",
                    "status": true,
                    "value": "0.798100840094938736"
                },
                "nodeType": 0
            },
            "2": {
                "invocation": {
                    "address": "0x7a250d5630b4cf539739df2c5dacb4c659f2488d",
                    "callData": "0x",
                    "decodedMethod": {
                        "callParams": [],
                        "constructorArguments": "",
                        "name": "WETH",
                        "returnParams": [
                            {
                                "name": "",
                                "type": "address",
                                "value": "0xc02aaa39b223fe8d0a0e5c4f27ead9083c756cc2"
                            }
                        ],
                        "signature": "WETH()"
                    },
                    "errorInfo": "",
                    "fromAddress": "0x88b9f5c66342ebaf661b3e2836b807c8cb1b3195",
                    "gasUsed": 275,
                    "id": 2,
                    "methodDecoded": true,
                    "operation": "STATICCALL",
                    "output": "0x000000000000000000000000c02aaa39b223fe8d0a0e5c4f27ead9083c756cc2",
                    "revert": false,
                    "revertMessage": "",
                    "selector": "0xad5c4648",
                    "status": true,
                    "value": "0"
                },
                "nodeType": 0
            },
            "20": {
                "event": {
                    "contract": "0xc02aaa39b223fe8d0a0e5c4f27ead9083c756cc2",
                    "decodedLog": {
                        "name": "Withdrawal",
                        "params": [
                            {
                                "name": "src",
                                "type": "address",
                                "value": "0x7a250d5630b4cf539739df2c5dacb4c659f2488d"
                            },
                            {
                                "name": "wad",
                                "type": "uint256",
                                "value": "798,100,840,094,938,736"
                            }
                        ],
                        "signature": "Withdrawal(address,uint256)"
                    },
                    "id": 20,
                    "logData": "0x0000000000000000000000000000000000000000000000000b136c7c4cccb670",
                    "logDecoded": true,
                    "operation": "EVENT",
                    "revert": false,
                    "status": true,
                    "topics": [
                        "0x7fcf532c15f0a6db0bd6d0e038bea71d30d808c7d98cb3bf7268a95bf5081b65",
                        "0x0000000000000000000000007a250d5630b4cf539739df2c5dacb4c659f2488d"
                    ]
                },
                "nodeType": 1
            },
            "21": {
                "invocation": {
                    "address": "0x88b9f5c66342ebaf661b3e2836b807c8cb1b3195",
                    "callData": "0x",
                    "decodedMethod": null,
                    "errorInfo": "",
                    "fromAddress": "0x7a250d5630b4cf539739df2c5dacb4c659f2488d",
                    "gasUsed": 55,
                    "id": 21,
                    "methodDecoded": false,
                    "operation": "CALL",
                    "output": "",
                    "revert": false,
                    "revertMessage": "",
                    "selector": "fallback",
                    "status": true,
                    "value": "0.798100840094938736"
                },
                "nodeType": 0
            },
            "22": {
                "event": {
                    "contract": "0x88b9f5c66342ebaf661b3e2836b807c8cb1b3195",
                    "decodedLog": {
                        "name": "Approval",
                        "params": [
                            {
                                "name": "owner",
                                "type": "address",
                                "value": "0x88b9f5c66342ebaf661b3e2836b807c8cb1b3195"
                            },
                            {
                                "name": "spender",
                                "type": "address",
                                "value": "0x7a250d5630b4cf539739df2c5dacb4c659f2488d"
                            },
                            {
                                "decimalAvailable": true,
                                "name": "value",
                                "type": "uint256",
                                "value": "20,232,797,367,901,004,953,051"
                            }
                        ],
                        "signature": "Approval(address,address,uint256)"
                    },
                    "id": 22,
                    "logData": "0x000000000000000000000000000000000000000000000448d277f826b5d2f5db",
                    "logDecoded": true,
                    "operation": "EVENT",
                    "revert": false,
                    "status": true,
                    "topics": [
                        "0x8c5be1e5ebec7d5bd14f71427d1e84f3dd0314c0f7b2291e5b200ac8c7c3b925",
                        "0x00000000000000000000000088b9f5c66342ebaf661b3e2836b807c8cb1b3195",
                        "0x0000000000000000000000007a250d5630b4cf539739df2c5dacb4c659f2488d"
                    ]
                },
                "nodeType": 1
            },
            "23": {
                "invocation": {
                    "address": "0x7a250d5630b4cf539739df2c5dacb4c659f2488d",
                    "callData": "0x00000000000000000000000088b9f5c66342ebaf661b3e2836b807c8cb1b3195000000000000000000000000000000000000000000000448d277f826b5d2f5db000000000000000000000000000000000000000000000000000000000000000000000000000000000000000000000000000000000000000000000000000000000000000000000000000000003933bb4d19904deba20a02efc66229aaea441ba8000000000000000000000000000000000000000000000000000000006622205b",
                    "decodedMethod": {
                        "callParams": [
                            {
                                "name": "token",
                                "type": "address",
                                "value": "0x88b9f5c66342ebaf661b3e2836b807c8cb1b3195"
                            },
                            {
                                "name": "amountTokenDesired",
                                "type": "uint256",
                                "value": "20,232,797,367,901,004,953,051"
                            },
                            {
                                "name": "amountTokenMin",
                                "type": "uint256",
                                "value": "0"
                            },
                            {
                                "name": "amountETHMin",
                                "type": "uint256",
                                "value": "0"
                            },
                            {
                                "name": "to",
                                "type": "address",
                                "value": "0x3933bb4d19904deba20a02efc66229aaea441ba8"
                            },
                            {
                                "name": "deadline",
                                "type": "uint256",
                                "value": "1,713,512,539"
                            }
                        ],
                        "constructorArguments": "",
                        "name": "addLiquidityETH",
                        "returnParams": [
                            {
                                "name": "amountToken",
                                "type": "uint256",
                                "value": "20,232,797,367,901,004,953,051"
                            },
                            {
                                "name": "amountETH",
                                "type": "uint256",
                                "value": "159,913,985,869,190,763"
                            },
                            {
                                "name": "liquidity",
                                "type": "uint256",
                                "value": "55,640,024,973,434,531,459"
                            }
                        ],
                        "signature": "addLiquidityETH(address,uint256,uint256,uint256,address,uint256)"
                    },
                    "errorInfo": "",
                    "fromAddress": "0x88b9f5c66342ebaf661b3e2836b807c8cb1b3195",
                    "gasUsed": 88652,
                    "id": 23,
                    "methodDecoded": true,
                    "operation": "CALL",
                    "output": "0x000000000000000000000000000000000000000000000448d277f826b5d2f5db000000000000000000000000000000000000000000000000023820ec4259966b000000000000000000000000000000000000000000000003042913eb7b6dae83",
                    "revert": false,
                    "revertMessage": "",
                    "selector": "0xf305d719",
                    "status": true,
                    "value": "0.160003409718913288"
                },
                "nodeType": 0
            },
            "24": {
                "invocation": {
                    "address": "0x5c69bee701ef814a2b6a3edd4b1652cb9cc5aa6f",
                    "callData": "0x00000000000000000000000088b9f5c66342ebaf661b3e2836b807c8cb1b3195000000000000000000000000c02aaa39b223fe8d0a0e5c4f27ead9083c756cc2",
                    "decodedMethod": {
                        "callParams": [
                            {
                                "name": "",
                                "type": "address",
                                "value": "0x88b9f5c66342ebaf661b3e2836b807c8cb1b3195"
                            },
                            {
                                "name": "",
                                "type": "address",
                                "value": "0xc02aaa39b223fe8d0a0e5c4f27ead9083c756cc2"
                            }
                        ],
                        "constructorArguments": "",
                        "name": "getPair",
                        "returnParams": [
                            {
                                "name": "",
                                "type": "address",
                                "value": "0xc98936de9640d6bfc24f82de1cf0f8cd9f5b388d"
                            }
                        ],
                        "signature": "getPair(address,address)"
                    },
                    "errorInfo": "",
                    "fromAddress": "0x7a250d5630b4cf539739df2c5dacb4c659f2488d",
                    "gasUsed": 2564,
                    "id": 24,
                    "methodDecoded": true,
                    "operation": "STATICCALL",
                    "output": "0x000000000000000000000000c98936de9640d6bfc24f82de1cf0f8cd9f5b388d",
                    "revert": false,
                    "revertMessage": "",
                    "selector": "0xe6a43905",
                    "status": true,
                    "value": "0"
                },
                "nodeType": 0
            },
            "25": {
                "invocation": {
                    "address": "0xc98936de9640d6bfc24f82de1cf0f8cd9f5b388d",
                    "callData": "0x",
                    "decodedMethod": {
                        "callParams": [],
                        "constructorArguments": "",
                        "name": "getReserves",
                        "returnParams": [
                            {
                                "name": "_reserve0",
                                "type": "uint112",
                                "value": "28,371,016,615,598,052,207,172,774"
                            },
                            {
                                "name": "_reserve1",
                                "type": "uint112",
                                "value": "224,236,039,518,641,886,143"
                            },
                            {
                                "name": "_blockTimestampLast",
                                "type": "uint32",
                                "value": "1,713,512,339"
                            }
                        ],
                        "signature": "getReserves()"
                    },
                    "errorInfo": "",
                    "fromAddress": "0x7a250d5630b4cf539739df2c5dacb4c659f2488d",
                    "gasUsed": 504,
                    "id": 25,
                    "methodDecoded": true,
                    "operation": "STATICCALL",
                    "output": "0x0000000000000000000000000000000000000000001777cbe47bb6246e5b1ca600000000000000000000000000000000000000000000000c27e671e3851a93bf0000000000000000000000000000000000000000000000000000000066221f93",
                    "revert": false,
                    "revertMessage": "",
                    "selector": "0x0902f1ac",
                    "status": true,
                    "value": "0"
                },
                "nodeType": 0
            },
            "26": {
                "invocation": {
                    "address": "0x88b9f5c66342ebaf661b3e2836b807c8cb1b3195",
                    "callData": "0x00000000000000000000000088b9f5c66342ebaf661b3e2836b807c8cb1b3195000000000000000000000000c98936de9640d6bfc24f82de1cf0f8cd9f5b388d000000000000000000000000000000000000000000000448d277f826b5d2f5db",
                    "decodedMethod": {
                        "callParams": [
                            {
                                "name": "sender",
                                "type": "address",
                                "value": "0x88b9f5c66342ebaf661b3e2836b807c8cb1b3195"
                            },
                            {
                                "name": "recipient",
                                "type": "address",
                                "value": "0xc98936de9640d6bfc24f82de1cf0f8cd9f5b388d"
                            },
                            {
                                "decimalAvailable": true,
                                "name": "amount",
                                "type": "uint256",
                                "value": "20,232,797,367,901,004,953,051"
                            }
                        ],
                        "constructorArguments": "",
                        "name": "transferFrom",
                        "returnParams": [
                            {
                                "name": "",
                                "type": "bool",
                                "value": true
                            }
                        ],
                        "signature": "transferFrom(address,address,uint256)"
                    },
                    "errorInfo": "",
                    "fromAddress": "0x7a250d5630b4cf539739df2c5dacb4c659f2488d",
                    "gasUsed": 8316,
                    "id": 26,
                    "methodDecoded": true,
                    "operation": "CALL",
                    "output": "0x0000000000000000000000000000000000000000000000000000000000000001",
                    "revert": false,
                    "revertMessage": "",
                    "selector": "0x23b872dd",
                    "status": true,
                    "value": "0"
                },
                "nodeType": 0
            },
            "27": {
                "event": {
                    "contract": "0x88b9f5c66342ebaf661b3e2836b807c8cb1b3195",
                    "decodedLog": {
                        "name": "Transfer",
                        "params": [
                            {
                                "name": "from",
                                "type": "address",
                                "value": "0x88b9f5c66342ebaf661b3e2836b807c8cb1b3195"
                            },
                            {
                                "name": "to",
                                "type": "address",
                                "value": "0xc98936de9640d6bfc24f82de1cf0f8cd9f5b388d"
                            },
                            {
                                "decimalAvailable": true,
                                "name": "value",
                                "type": "uint256",
                                "value": "20,232,797,367,901,004,953,051"
                            }
                        ],
                        "signature": "Transfer(address,address,uint256)"
                    },
                    "id": 27,
                    "logData": "0x000000000000000000000000000000000000000000000448d277f826b5d2f5db",
                    "logDecoded": true,
                    "operation": "EVENT",
                    "revert": false,
                    "status": true,
                    "topics": [
                        "0xddf252ad1be2c89b69c2b068fc378daa952ba7f163c4a11628f55a4df523b3ef",
                        "0x00000000000000000000000088b9f5c66342ebaf661b3e2836b807c8cb1b3195",
                        "0x000000000000000000000000c98936de9640d6bfc24f82de1cf0f8cd9f5b388d"
                    ]
                },
                "nodeType": 1
            },
            "28": {
                "event": {
                    "contract": "0x88b9f5c66342ebaf661b3e2836b807c8cb1b3195",
                    "decodedLog": {
                        "name": "Approval",
                        "params": [
                            {
                                "name": "owner",
                                "type": "address",
                                "value": "0x88b9f5c66342ebaf661b3e2836b807c8cb1b3195"
                            },
                            {
                                "name": "spender",
                                "type": "address",
                                "value": "0x7a250d5630b4cf539739df2c5dacb4c659f2488d"
                            },
                            {
                                "decimalAvailable": true,
                                "name": "value",
                                "type": "uint256",
                                "value": "0"
                            }
                        ],
                        "signature": "Approval(address,address,uint256)"
                    },
                    "id": 28,
                    "logData": "0x0000000000000000000000000000000000000000000000000000000000000000",
                    "logDecoded": true,
                    "operation": "EVENT",
                    "revert": false,
                    "status": true,
                    "topics": [
                        "0x8c5be1e5ebec7d5bd14f71427d1e84f3dd0314c0f7b2291e5b200ac8c7c3b925",
                        "0x00000000000000000000000088b9f5c66342ebaf661b3e2836b807c8cb1b3195",
                        "0x0000000000000000000000007a250d5630b4cf539739df2c5dacb4c659f2488d"
                    ]
                },
                "nodeType": 1
            },
            "29": {
                "invocation": {
                    "address": "0xc02aaa39b223fe8d0a0e5c4f27ead9083c756cc2",
                    "callData": "0x",
                    "decodedMethod": {
                        "callParams": [],
                        "constructorArguments": "",
                        "name": "deposit",
                        "returnParams": [],
                        "signature": "deposit()"
                    },
                    "errorInfo": "",
                    "fromAddress": "0x7a250d5630b4cf539739df2c5dacb4c659f2488d",
                    "gasUsed": 21974,
                    "id": 29,
                    "methodDecoded": true,
                    "operation": "CALL",
                    "output": "",
                    "revert": false,
                    "revertMessage": "",
                    "selector": "0xd0e30db0",
                    "status": true,
                    "value": "0.159913985869190763"
                },
                "nodeType": 0
            },
            "3": {
                "event": {
                    "contract": "0x88b9f5c66342ebaf661b3e2836b807c8cb1b3195",
                    "decodedLog": {
                        "name": "Approval",
                        "params": [
                            {
                                "name": "owner",
                                "type": "address",
                                "value": "0x88b9f5c66342ebaf661b3e2836b807c8cb1b3195"
                            },
                            {
                                "name": "spender",
                                "type": "address",
                                "value": "0x7a250d5630b4cf539739df2c5dacb4c659f2488d"
                            },
                            {
                                "decimalAvailable": true,
                                "name": "value",
                                "type": "uint256",
                                "value": "100,921,677,888,991,240,274,801"
                            }
                        ],
                        "signature": "Approval(address,address,uint256)"
                    },
                    "id": 3,
                    "logData": "0x00000000000000000000000000000000000000000000155ef9a18612554a4371",
                    "logDecoded": true,
                    "operation": "EVENT",
                    "revert": false,
                    "status": true,
                    "topics": [
                        "0x8c5be1e5ebec7d5bd14f71427d1e84f3dd0314c0f7b2291e5b200ac8c7c3b925",
                        "0x00000000000000000000000088b9f5c66342ebaf661b3e2836b807c8cb1b3195",
                        "0x0000000000000000000000007a250d5630b4cf539739df2c5dacb4c659f2488d"
                    ]
                },
                "nodeType": 1
            },
            "30": {
                "event": {
                    "contract": "0xc02aaa39b223fe8d0a0e5c4f27ead9083c756cc2",
                    "decodedLog": {
                        "name": "Deposit",
                        "params": [
                            {
                                "name": "dst",
                                "type": "address",
                                "value": "0x7a250d5630b4cf539739df2c5dacb4c659f2488d"
                            },
                            {
                                "name": "wad",
                                "type": "uint256",
                                "value": "159,913,985,869,190,763"
                            }
                        ],
                        "signature": "Deposit(address,uint256)"
                    },
                    "id": 30,
                    "logData": "0x000000000000000000000000000000000000000000000000023820ec4259966b",
                    "logDecoded": true,
                    "operation": "EVENT",
                    "revert": false,
                    "status": true,
                    "topics": [
                        "0xe1fffcc4923d04b559f4d29a8bfc6cda04eb5b0d3c460751c2402c5c5cc9109c",
                        "0x0000000000000000000000007a250d5630b4cf539739df2c5dacb4c659f2488d"
                    ]
                },
                "nodeType": 1
            },
            "31": {
                "invocation": {
                    "address": "0xc02aaa39b223fe8d0a0e5c4f27ead9083c756cc2",
                    "callData": "0x000000000000000000000000c98936de9640d6bfc24f82de1cf0f8cd9f5b388d000000000000000000000000000000000000000000000000023820ec4259966b",
                    "decodedMethod": {
                        "callParams": [
                            {
                                "name": "dst",
                                "type": "address",
                                "value": "0xc98936de9640d6bfc24f82de1cf0f8cd9f5b388d"
                            },
                            {
                                "decimalAvailable": true,
                                "name": "wad",
                                "type": "uint256",
                                "value": "159,913,985,869,190,763"
                            }
                        ],
                        "constructorArguments": "",
                        "name": "transfer",
                        "returnParams": [
                            {
                                "name": "",
                                "type": "bool",
                                "value": true
                            }
                        ],
                        "signature": "transfer(address,uint256)"
                    },
                    "errorInfo": "",
                    "fromAddress": "0x7a250d5630b4cf539739df2c5dacb4c659f2488d",
                    "gasUsed": 3262,
                    "id": 31,
                    "methodDecoded": true,
                    "operation": "CALL",
                    "output": "0x0000000000000000000000000000000000000000000000000000000000000001",
                    "revert": false,
                    "revertMessage": "",
                    "selector": "0xa9059cbb",
                    "status": true,
                    "value": "0"
                },
                "nodeType": 0
            },
            "32": {
                "event": {
                    "contract": "0xc02aaa39b223fe8d0a0e5c4f27ead9083c756cc2",
                    "decodedLog": {
                        "name": "Transfer",
                        "params": [
                            {
                                "name": "src",
                                "type": "address",
                                "value": "0x7a250d5630b4cf539739df2c5dacb4c659f2488d"
                            },
                            {
                                "name": "dst",
                                "type": "address",
                                "value": "0xc98936de9640d6bfc24f82de1cf0f8cd9f5b388d"
                            },
                            {
                                "decimalAvailable": true,
                                "name": "wad",
                                "type": "uint256",
                                "value": "159,913,985,869,190,763"
                            }
                        ],
                        "signature": "Transfer(address,address,uint256)"
                    },
                    "id": 32,
                    "logData": "0x000000000000000000000000000000000000000000000000023820ec4259966b",
                    "logDecoded": true,
                    "operation": "EVENT",
                    "revert": false,
                    "status": true,
                    "topics": [
                        "0xddf252ad1be2c89b69c2b068fc378daa952ba7f163c4a11628f55a4df523b3ef",
                        "0x0000000000000000000000007a250d5630b4cf539739df2c5dacb4c659f2488d",
                        "0x000000000000000000000000c98936de9640d6bfc24f82de1cf0f8cd9f5b388d"
                    ]
                },
                "nodeType": 1
            },
            "33": {
                "invocation": {
                    "address": "0xc98936de9640d6bfc24f82de1cf0f8cd9f5b388d",
                    "callData": "0x0000000000000000000000003933bb4d19904deba20a02efc66229aaea441ba8",
                    "decodedMethod": {
                        "callParams": [
                            {
                                "name": "to",
                                "type": "address",
                                "value": "0x3933bb4d19904deba20a02efc66229aaea441ba8"
                            }
                        ],
                        "constructorArguments": "",
                        "name": "mint",
                        "returnParams": [
                            {
                                "name": "liquidity",
                                "type": "uint256",
                                "value": "55,640,024,973,434,531,459"
                            }
                        ],
                        "signature": "mint(address)"
                    },
                    "errorInfo": "",
                    "fromAddress": "0x7a250d5630b4cf539739df2c5dacb4c659f2488d",
                    "gasUsed": 29830,
                    "id": 33,
                    "methodDecoded": true,
                    "operation": "CALL",
                    "output": "0x000000000000000000000000000000000000000000000003042913eb7b6dae83",
                    "revert": false,
                    "revertMessage": "",
                    "selector": "0x6a627842",
                    "status": true,
                    "value": "0"
                },
                "nodeType": 0
            },
            "34": {
                "invocation": {
                    "address": "0x88b9f5c66342ebaf661b3e2836b807c8cb1b3195",
                    "callData": "0x000000000000000000000000c98936de9640d6bfc24f82de1cf0f8cd9f5b388d",
                    "decodedMethod": {
                        "callParams": [
                            {
                                "name": "account",
                                "type": "address",
                                "value": "0xc98936de9640d6bfc24f82de1cf0f8cd9f5b388d"
                            }
                        ],
                        "constructorArguments": "",
                        "name": "balanceOf",
                        "returnParams": [
                            {
                                "decimalAvailable": true,
                                "name": "",
                                "type": "uint256",
                                "value": "28,391,249,412,965,953,212,125,825"
                            }
                        ],
                        "signature": "balanceOf(address)"
                    },
                    "errorInfo": "",
                    "fromAddress": "0xc98936de9640d6bfc24f82de1cf0f8cd9f5b388d",
                    "gasUsed": 887,
                    "id": 34,
                    "methodDecoded": true,
                    "operation": "STATICCALL",
                    "output": "0x000000000000000000000000000000000000000000177c14b6f3ae4b242e1281",
                    "revert": false,
                    "revertMessage": "",
                    "selector": "0x70a08231",
                    "status": true,
                    "value": "0"
                },
                "nodeType": 0
            },
            "35": {
                "invocation": {
                    "address": "0xc02aaa39b223fe8d0a0e5c4f27ead9083c756cc2",
                    "callData": "0x000000000000000000000000c98936de9640d6bfc24f82de1cf0f8cd9f5b388d",
                    "decodedMethod": {
                        "callParams": [
                            {
                                "name": "",
                                "type": "address",
                                "value": "0xc98936de9640d6bfc24f82de1cf0f8cd9f5b388d"
                            }
                        ],
                        "constructorArguments": "",
                        "name": "balanceOf",
                        "returnParams": [
                            {
                                "decimalAvailable": true,
                                "name": "",
                                "type": "uint256",
                                "value": "224,395,953,504,511,076,906"
                            }
                        ],
                        "signature": "balanceOf(address)"
                    },
                    "errorInfo": "",
                    "fromAddress": "0xc98936de9640d6bfc24f82de1cf0f8cd9f5b388d",
                    "gasUsed": 534,
                    "id": 35,
                    "methodDecoded": true,
                    "operation": "STATICCALL",
                    "output": "0x00000000000000000000000000000000000000000000000c2a1e92cfc7742a2a",
                    "revert": false,
                    "revertMessage": "",
                    "selector": "0x70a08231",
                    "status": true,
                    "value": "0"
                },
                "nodeType": 0
            },
            "36": {
                "invocation": {
                    "address": "0x5c69bee701ef814a2b6a3edd4b1652cb9cc5aa6f",
                    "callData": "0x",
                    "decodedMethod": {
                        "callParams": [],
                        "constructorArguments": "",
                        "name": "feeTo",
                        "returnParams": [
                            {
                                "name": "",
                                "type": "address",
                                "value": "0x0000000000000000000000000000000000000000"
                            }
                        ],
                        "signature": "feeTo()"
                    },
                    "errorInfo": "",
                    "fromAddress": "0xc98936de9640d6bfc24f82de1cf0f8cd9f5b388d",
                    "gasUsed": 2314,
                    "id": 36,
                    "methodDecoded": true,
                    "operation": "STATICCALL",
                    "output": "0x0000000000000000000000000000000000000000000000000000000000000000",
                    "revert": false,
                    "revertMessage": "",
                    "selector": "0x017e7e58",
                    "status": true,
                    "value": "0"
                },
                "nodeType": 0
            },
            "37": {
                "event": {
                    "contract": "0xc98936de9640d6bfc24f82de1cf0f8cd9f5b388d",
                    "decodedLog": {
                        "name": "Transfer",
                        "params": [
                            {
                                "name": "from",
                                "type": "address",
                                "value": "0x0000000000000000000000000000000000000000"
                            },
                            {
                                "name": "to",
                                "type": "address",
                                "value": "0x3933bb4d19904deba20a02efc66229aaea441ba8"
                            },
                            {
                                "decimalAvailable": true,
                                "name": "value",
                                "type": "uint256",
                                "value": "55,640,024,973,434,531,459"
                            }
                        ],
                        "signature": "Transfer(address,address,uint256)"
                    },
                    "id": 37,
                    "logData": "0x000000000000000000000000000000000000000000000003042913eb7b6dae83",
                    "logDecoded": true,
                    "operation": "EVENT",
                    "revert": false,
                    "status": true,
                    "topics": [
                        "0xddf252ad1be2c89b69c2b068fc378daa952ba7f163c4a11628f55a4df523b3ef",
                        "0x0000000000000000000000000000000000000000000000000000000000000000",
                        "0x0000000000000000000000003933bb4d19904deba20a02efc66229aaea441ba8"
                    ]
                },
                "nodeType": 1
            },
            "38": {
                "event": {
                    "contract": "0xc98936de9640d6bfc24f82de1cf0f8cd9f5b388d",
                    "decodedLog": {
                        "name": "Sync",
                        "params": [
                            {
                                "name": "reserve0",
                                "type": "uint112",
                                "value": "28,391,249,412,965,953,212,125,825"
                            },
                            {
                                "name": "reserve1",
                                "type": "uint112",
                                "value": "224,395,953,504,511,076,906"
                            }
                        ],
                        "signature": "Sync(uint112,uint112)"
                    },
                    "id": 38,
                    "logData": "0x000000000000000000000000000000000000000000177c14b6f3ae4b242e128100000000000000000000000000000000000000000000000c2a1e92cfc7742a2a",
                    "logDecoded": true,
                    "operation": "EVENT",
                    "revert": false,
                    "status": true,
                    "topics": [
                        "0x1c411e9a96e071241c2f21f7726b17ae89e3cab4c78be50e062b03a9fffbbad1"
                    ]
                },
                "nodeType": 1
            },
            "39": {
                "event": {
                    "contract": "0xc98936de9640d6bfc24f82de1cf0f8cd9f5b388d",
                    "decodedLog": {
                        "name": "Mint",
                        "params": [
                            {
                                "name": "sender",
                                "type": "address",
                                "value": "0x7a250d5630b4cf539739df2c5dacb4c659f2488d"
                            },
                            {
                                "name": "amount0",
                                "type": "uint256",
                                "value": "20,232,797,367,901,004,953,051"
                            },
                            {
                                "name": "amount1",
                                "type": "uint256",
                                "value": "159,913,985,869,190,763"
                            }
                        ],
                        "signature": "Mint(address,uint256,uint256)"
                    },
                    "id": 39,
                    "logData": "0x000000000000000000000000000000000000000000000448d277f826b5d2f5db000000000000000000000000000000000000000000000000023820ec4259966b",
                    "logDecoded": true,
                    "operation": "EVENT",
                    "revert": false,
                    "status": true,
                    "topics": [
                        "0x4c209b5fc8ad50758f13e2e1088ba56a560dff690a1c6fef26394f4c03821c4f",
                        "0x0000000000000000000000007a250d5630b4cf539739df2c5dacb4c659f2488d"
                    ]
                },
                "nodeType": 1
            },
            "4": {
                "invocation": {
                    "address": "0x7a250d5630b4cf539739df2c5dacb4c659f2488d",
                    "callData": "0x00000000000000000000000000000000000000000000155ef9a18612554a4371000000000000000000000000000000000000000000000000000000000000000000000000000000000000000000000000000000000000000000000000000000a000000000000000000000000088b9f5c66342ebaf661b3e2836b807c8cb1b3195000000000000000000000000000000000000000000000000000000006622205b000000000000000000000000000000000000000000000000000000000000000200000000000000000000000088b9f5c66342ebaf661b3e2836b807c8cb1b3195000000000000000000000000c02aaa39b223fe8d0a0e5c4f27ead9083c756cc2",
                    "decodedMethod": {
                        "callParams": [
                            {
                                "name": "amountIn",
                                "type": "uint256",
                                "value": "100,921,677,888,991,240,274,801"
                            },
                            {
                                "name": "amountOutMin",
                                "type": "uint256",
                                "value": "0"
                            },
                            {
                                "name": "path",
                                "type": "address[]",
                                "value": [
                                    "0x88b9f5c66342ebaf661b3e2836b807c8cb1b3195",
                                    "0xc02aaa39b223fe8d0a0e5c4f27ead9083c756cc2"
                                ]
                            },
                            {
                                "name": "to",
                                "type": "address",
                                "value": "0x88b9f5c66342ebaf661b3e2836b807c8cb1b3195"
                            },
                            {
                                "name": "deadline",
                                "type": "uint256",
                                "value": "1,713,512,539"
                            }
                        ],
                        "constructorArguments": "",
                        "name": "swapExactTokensForETHSupportingFeeOnTransferTokens",
                        "returnParams": [],
                        "signature": "swapExactTokensForETHSupportingFeeOnTransferTokens(uint256,uint256,address[],address,uint256)"
                    },
                    "errorInfo": "",
                    "fromAddress": "0x88b9f5c66342ebaf661b3e2836b807c8cb1b3195",
                    "gasUsed": 113156,
                    "id": 4,
                    "methodDecoded": true,
                    "operation": "CALL",
                    "output": "",
                    "revert": false,
                    "revertMessage": "",
                    "selector": "0x791ac947",
                    "status": true,
                    "value": "0"
                },
                "nodeType": 0
            },
            "40": {
                "invocation": {
                    "address": "0x88b9f5c66342ebaf661b3e2836b807c8cb1b3195",
                    "callData": "0x",
                    "decodedMethod": null,
                    "errorInfo": "",
                    "fromAddress": "0x7a250d5630b4cf539739df2c5dacb4c659f2488d",
                    "gasUsed": 55,
                    "id": 40,
                    "methodDecoded": false,
                    "operation": "CALL",
                    "output": "",
                    "revert": false,
                    "revertMessage": "",
                    "selector": "fallback",
                    "status": true,
                    "value": "0.000089423849722525"
                },
                "nodeType": 0
            },
            "41": {
                "invocation": {
                    "address": "0xee9b6aa7196c1d9a3bb0de858e1e0ab81d0cd0e0",
                    "callData": "0x",
                    "decodedMethod": null,
                    "errorInfo": "",
                    "fromAddress": "0x88b9f5c66342ebaf661b3e2836b807c8cb1b3195",
                    "gasUsed": 0,
                    "id": 41,
                    "methodDecoded": false,
                    "operation": "CALL",
                    "output": "",
                    "revert": false,
                    "revertMessage": "",
                    "selector": "fallback",
                    "status": true,
                    "value": "0.320051665632732466"
                },
                "nodeType": 0
            },
            "42": {
                "invocation": {
                    "address": "0xa21bb38c1c760f221d56f2e3226a27c9cdbe8061",
                    "callData": "0x",
                    "decodedMethod": null,
                    "errorInfo": "",
                    "fromAddress": "0x88b9f5c66342ebaf661b3e2836b807c8cb1b3195",
                    "gasUsed": 0,
                    "id": 42,
                    "methodDecoded": false,
                    "operation": "CALL",
                    "output": "",
                    "revert": false,
                    "revertMessage": "",
                    "selector": "fallback",
                    "status": true,
                    "value": "0.318135188593015507"
                },
                "nodeType": 0
            },
            "43": {
                "event": {
                    "contract": "0x88b9f5c66342ebaf661b3e2836b807c8cb1b3195",
                    "decodedLog": {
                        "name": "Transfer",
                        "params": [
                            {
                                "name": "from",
                                "type": "address",
                                "value": "0xbc452fdc8f851d7c5b72e1fe74dfb63bb793d511"
                            },
                            {
                                "name": "to",
                                "type": "address",
                                "value": "0xded2b1a426e1b7d415a40bcad44e98f47181dda2"
                            },
                            {
                                "decimalAvailable": true,
                                "name": "value",
                                "type": "uint256",
                                "value": "2,380,000,000,000,000,000,000,000"
                            }
                        ],
                        "signature": "Transfer(address,address,uint256)"
                    },
                    "id": 43,
                    "logData": "0x00000000000000000000000000000000000000000001f7fc0efb8b91b7800000",
                    "logDecoded": true,
                    "operation": "EVENT",
                    "revert": false,
                    "status": true,
                    "topics": [
                        "0xddf252ad1be2c89b69c2b068fc378daa952ba7f163c4a11628f55a4df523b3ef",
                        "0x000000000000000000000000bc452fdc8f851d7c5b72e1fe74dfb63bb793d511",
                        "0x000000000000000000000000ded2b1a426e1b7d415a40bcad44e98f47181dda2"
                    ]
                },
                "nodeType": 1
            },
            "44": {
                "event": {
                    "contract": "0x88b9f5c66342ebaf661b3e2836b807c8cb1b3195",
                    "decodedLog": {
                        "name": "Approval",
                        "params": [
                            {
                                "name": "owner",
                                "type": "address",
                                "value": "0xbc452fdc8f851d7c5b72e1fe74dfb63bb793d511"
                            },
                            {
                                "name": "spender",
                                "type": "address",
                                "value": "0xd818ff3d5cfc938014b270d0c8029ba04629b549"
                            },
                            {
                                "decimalAvailable": true,
                                "name": "value",
                                "type": "uint256",
                                "value": "9,520,000,000,000,000,000,000,000"
                            }
                        ],
                        "signature": "Approval(address,address,uint256)"
                    },
                    "id": 44,
                    "logData": "0x00000000000000000000000000000000000000000007dff03bee2e46de000000",
                    "logDecoded": true,
                    "operation": "EVENT",
                    "revert": false,
                    "status": true,
                    "topics": [
                        "0x8c5be1e5ebec7d5bd14f71427d1e84f3dd0314c0f7b2291e5b200ac8c7c3b925",
                        "0x000000000000000000000000bc452fdc8f851d7c5b72e1fe74dfb63bb793d511",
                        "0x000000000000000000000000d818ff3d5cfc938014b270d0c8029ba04629b549"
                    ]
                },
                "nodeType": 1
            },
            "5": {
                "invocation": {
                    "address": "0x88b9f5c66342ebaf661b3e2836b807c8cb1b3195",
                    "callData": "0x00000000000000000000000088b9f5c66342ebaf661b3e2836b807c8cb1b3195000000000000000000000000c98936de9640d6bfc24f82de1cf0f8cd9f5b388d00000000000000000000000000000000000000000000155ef9a18612554a4371",
                    "decodedMethod": {
                        "callParams": [
                            {
                                "name": "sender",
                                "type": "address",
                                "value": "0x88b9f5c66342ebaf661b3e2836b807c8cb1b3195"
                            },
                            {
                                "name": "recipient",
                                "type": "address",
                                "value": "0xc98936de9640d6bfc24f82de1cf0f8cd9f5b388d"
                            },
                            {
                                "decimalAvailable": true,
                                "name": "amount",
                                "type": "uint256",
                                "value": "100,921,677,888,991,240,274,801"
                            }
                        ],
                        "constructorArguments": "",
                        "name": "transferFrom",
                        "returnParams": [
                            {
                                "name": "",
                                "type": "bool",
                                "value": true
                            }
                        ],
                        "signature": "transferFrom(address,address,uint256)"
                    },
                    "errorInfo": "",
                    "fromAddress": "0x7a250d5630b4cf539739df2c5dacb4c659f2488d",
                    "gasUsed": 18110,
                    "id": 5,
                    "methodDecoded": true,
                    "operation": "CALL",
                    "output": "0x0000000000000000000000000000000000000000000000000000000000000001",
                    "revert": false,
                    "revertMessage": "",
                    "selector": "0x23b872dd",
                    "status": true,
                    "value": "0"
                },
                "nodeType": 0
            },
            "6": {
                "event": {
                    "contract": "0x88b9f5c66342ebaf661b3e2836b807c8cb1b3195",
                    "decodedLog": {
                        "name": "Transfer",
                        "params": [
                            {
                                "name": "from",
                                "type": "address",
                                "value": "0x88b9f5c66342ebaf661b3e2836b807c8cb1b3195"
                            },
                            {
                                "name": "to",
                                "type": "address",
                                "value": "0xc98936de9640d6bfc24f82de1cf0f8cd9f5b388d"
                            },
                            {
                                "decimalAvailable": true,
                                "name": "value",
                                "type": "uint256",
                                "value": "100,921,677,888,991,240,274,801"
                            }
                        ],
                        "signature": "Transfer(address,address,uint256)"
                    },
                    "id": 6,
                    "logData": "0x00000000000000000000000000000000000000000000155ef9a18612554a4371",
                    "logDecoded": true,
                    "operation": "EVENT",
                    "revert": false,
                    "status": true,
                    "topics": [
                        "0xddf252ad1be2c89b69c2b068fc378daa952ba7f163c4a11628f55a4df523b3ef",
                        "0x00000000000000000000000088b9f5c66342ebaf661b3e2836b807c8cb1b3195",
                        "0x000000000000000000000000c98936de9640d6bfc24f82de1cf0f8cd9f5b388d"
                    ]
                },
                "nodeType": 1
            },
            "7": {
                "event": {
                    "contract": "0x88b9f5c66342ebaf661b3e2836b807c8cb1b3195",
                    "decodedLog": {
                        "name": "Approval",
                        "params": [
                            {
                                "name": "owner",
                                "type": "address",
                                "value": "0x88b9f5c66342ebaf661b3e2836b807c8cb1b3195"
                            },
                            {
                                "name": "spender",
                                "type": "address",
                                "value": "0x7a250d5630b4cf539739df2c5dacb4c659f2488d"
                            },
                            {
                                "decimalAvailable": true,
                                "name": "value",
                                "type": "uint256",
                                "value": "0"
                            }
                        ],
                        "signature": "Approval(address,address,uint256)"
                    },
                    "id": 7,
                    "logData": "0x0000000000000000000000000000000000000000000000000000000000000000",
                    "logDecoded": true,
                    "operation": "EVENT",
                    "revert": false,
                    "status": true,
                    "topics": [
                        "0x8c5be1e5ebec7d5bd14f71427d1e84f3dd0314c0f7b2291e5b200ac8c7c3b925",
                        "0x00000000000000000000000088b9f5c66342ebaf661b3e2836b807c8cb1b3195",
                        "0x0000000000000000000000007a250d5630b4cf539739df2c5dacb4c659f2488d"
                    ]
                },
                "nodeType": 1
            },
            "8": {
                "invocation": {
                    "address": "0xc98936de9640d6bfc24f82de1cf0f8cd9f5b388d",
                    "callData": "0x",
                    "decodedMethod": {
                        "callParams": [],
                        "constructorArguments": "",
                        "name": "getReserves",
                        "returnParams": [
                            {
                                "name": "_reserve0",
                                "type": "uint112",
                                "value": "28,270,094,937,709,060,966,897,973"
                            },
                            {
                                "name": "_reserve1",
                                "type": "uint112",
                                "value": "225,034,140,358,736,824,879"
                            },
                            {
                                "name": "_blockTimestampLast",
                                "type": "uint32",
                                "value": "1,713,512,303"
                            }
                        ],
                        "signature": "getReserves()"
                    },
                    "errorInfo": "",
                    "fromAddress": "0x7a250d5630b4cf539739df2c5dacb4c659f2488d",
                    "gasUsed": 2504,
                    "id": 8,
                    "methodDecoded": true,
                    "operation": "STATICCALL",
                    "output": "0x00000000000000000000000000000000000000000017626ceada30121910d93500000000000000000000000000000000000000000000000c32f9de5fd1e74a2f0000000000000000000000000000000000000000000000000000000066221f6f",
                    "revert": false,
                    "revertMessage": "",
                    "selector": "0x0902f1ac",
                    "status": true,
                    "value": "0"
                },
                "nodeType": 0
            },
            "9": {
                "invocation": {
                    "address": "0x88b9f5c66342ebaf661b3e2836b807c8cb1b3195",
                    "callData": "0x000000000000000000000000c98936de9640d6bfc24f82de1cf0f8cd9f5b388d",
                    "decodedMethod": {
                        "callParams": [
                            {
                                "name": "account",
                                "type": "address",
                                "value": "0xc98936de9640d6bfc24f82de1cf0f8cd9f5b388d"
                            }
                        ],
                        "constructorArguments": "",
                        "name": "balanceOf",
                        "returnParams": [
                            {
                                "decimalAvailable": true,
                                "name": "",
                                "type": "uint256",
                                "value": "28,371,016,615,598,052,207,172,774"
                            }
                        ],
                        "signature": "balanceOf(address)"
                    },
                    "errorInfo": "",
                    "fromAddress": "0x7a250d5630b4cf539739df2c5dacb4c659f2488d",
                    "gasUsed": 887,
                    "id": 9,
                    "methodDecoded": true,
                    "operation": "STATICCALL",
                    "output": "0x0000000000000000000000000000000000000000001777cbe47bb6246e5b1ca6",
                    "revert": false,
                    "revertMessage": "",
                    "selector": "0x70a08231",
                    "status": true,
                    "value": "0"
                },
                "nodeType": 0
            }
        },
        "gasFlame": [
            {
                "children": [
                    {
                        "children": [
                            {
                                "children": [],
                                "depth": 0,
                                "name": "Initial Gas",
                                "value": 21668
                            },
                            {
                                "children": [
                                    {
                                        "children": [
                                            {
                                                "children": [],
                                                "depth": 2,
                                                "name": "WETH",
                                                "value": 275
                                            },
                                            {
                                                "children": [
                                                    {
                                                        "children": [],
                                                        "depth": 3,
                                                        "name": "transferFrom",
                                                        "value": 18110
                                                    },
                                                    {
                                                        "children": [],
                                                        "depth": 3,
                                                        "name": "getReserves",
                                                        "value": 2504
                                                    },
                                                    {
                                                        "children": [],
                                                        "depth": 3,
                                                        "name": "balanceOf",
                                                        "value": 887
                                                    },
                                                    {
                                                        "children": [
                                                            {
                                                                "children": [],
                                                                "depth": 4,
                                                                "name": "transfer",
                                                                "value": 29962
                                                            },
                                                            {
                                                                "children": [],
                                                                "depth": 4,
                                                                "name": "balanceOf",
                                                                "value": 887
                                                            },
                                                            {
                                                                "children": [],
                                                                "depth": 4,
                                                                "name": "balanceOf",
                                                                "value": 534
                                                            }
                                                        ],
                                                        "depth": 3,
                                                        "name": "swap",
                                                        "value": 65206
                                                    },
                                                    {
                                                        "children": [],
                                                        "depth": 3,
                                                        "name": "balanceOf",
                                                        "value": 534
                                                    },
                                                    {
                                                        "children": [
                                                            {
                                                                "children": [],
                                                                "depth": 4,
                                                                "name": "fallback",
                                                                "value": 83
                                                            }
                                                        ],
                                                        "depth": 3,
                                                        "name": "withdraw",
                                                        "value": 9223
                                                    },
                                                    {
                                                        "children": [],
                                                        "depth": 3,
                                                        "name": "fallback",
                                                        "value": 55
                                                    }
                                                ],
                                                "depth": 2,
                                                "name": "swapExactTokensForETHSupportingFeeOnTransferTokens",
                                                "value": 113156
                                            },
                                            {
                                                "children": [
                                                    {
                                                        "children": [],
                                                        "depth": 3,
                                                        "name": "getPair",
                                                        "value": 2564
                                                    },
                                                    {
                                                        "children": [],
                                                        "depth": 3,
                                                        "name": "getReserves",
                                                        "value": 504
                                                    },
                                                    {
                                                        "children": [],
                                                        "depth": 3,
                                                        "name": "transferFrom",
                                                        "value": 8316
                                                    },
                                                    {
                                                        "children": [],
                                                        "depth": 3,
                                                        "name": "deposit",
                                                        "value": 21974
                                                    },
                                                    {
                                                        "children": [],
                                                        "depth": 3,
                                                        "name": "transfer",
                                                        "value": 3262
                                                    },
                                                    {
                                                        "children": [
                                                            {
                                                                "children": [],
                                                                "depth": 4,
                                                                "name": "balanceOf",
                                                                "value": 887
                                                            },
                                                            {
                                                                "children": [],
                                                                "depth": 4,
                                                                "name": "balanceOf",
                                                                "value": 534
                                                            },
                                                            {
                                                                "children": [],
                                                                "depth": 4,
                                                                "name": "feeTo",
                                                                "value": 2314
                                                            }
                                                        ],
                                                        "depth": 3,
                                                        "name": "mint",
                                                        "value": 29830
                                                    },
                                                    {
                                                        "children": [],
                                                        "depth": 3,
                                                        "name": "fallback",
                                                        "value": 55
                                                    }
                                                ],
                                                "depth": 2,
                                                "name": "addLiquidityETH",
                                                "value": 88652
                                            },
                                            {
                                                "children": [],
                                                "depth": 2,
                                                "name": "fallback",
                                                "value": 0
                                            },
                                            {
                                                "children": [],
                                                "depth": 2,
                                                "name": "fallback",
                                                "value": 0
                                            }
                                        ],
                                        "depth": 1,
                                        "name": "transferFrom",
                                        "value": 355655
                                    }
                                ],
                                "depth": 0,
                                "name": "Executed Gas",
                                "value": 364311
                            }
                        ],
                        "depth": -1,
                        "name": "Actual Gas Used",
                        "value": 308784
                    },
                    {
                        "children": [],
                        "depth": -1,
                        "name": "Refunded Gas",
                        "value": 77195
                    }
                ],
                "depth": -2,
                "name": "Total Gas",
                "value": 385979
            }
        ],
        "isConfirmed": true,
        "mainTrace": [
            {
                "children": [
                    {
                        "children": [
                            {
                                "children": [
                                    {
                                        "children": [],
                                        "depth": 2,
                                        "id": 2,
                                        "order": 2
                                    },
                                    {
                                        "children": [],
                                        "depth": 2,
                                        "id": 3,
                                        "order": 3
                                    },
                                    {
                                        "children": [
                                            {
                                                "children": [
                                                    {
                                                        "children": [],
                                                        "depth": 4,
                                                        "id": 6,
                                                        "order": 6
                                                    },
                                                    {
                                                        "children": [],
                                                        "depth": 4,
                                                        "id": 7,
                                                        "order": 7
                                                    }
                                                ],
                                                "depth": 3,
                                                "id": 5,
                                                "order": 5
                                            },
                                            {
                                                "children": [],
                                                "depth": 3,
                                                "id": 8,
                                                "order": 8
                                            },
                                            {
                                                "children": [],
                                                "depth": 3,
                                                "id": 9,
                                                "order": 9
                                            },
                                            {
                                                "children": [
                                                    {
                                                        "children": [
                                                            {
                                                                "children": [],
                                                                "depth": 5,
                                                                "id": 12,
                                                                "order": 12
                                                            }
                                                        ],
                                                        "depth": 4,
                                                        "id": 11,
                                                        "order": 11
                                                    },
                                                    {
                                                        "children": [],
                                                        "depth": 4,
                                                        "id": 13,
                                                        "order": 13
                                                    },
                                                    {
                                                        "children": [],
                                                        "depth": 4,
                                                        "id": 14,
                                                        "order": 14
                                                    },
                                                    {
                                                        "children": [],
                                                        "depth": 4,
                                                        "id": 15,
                                                        "order": 15
                                                    },
                                                    {
                                                        "children": [],
                                                        "depth": 4,
                                                        "id": 16,
                                                        "order": 16
                                                    }
                                                ],
                                                "depth": 3,
                                                "id": 10,
                                                "order": 10
                                            },
                                            {
                                                "children": [],
                                                "depth": 3,
                                                "id": 17,
                                                "order": 17
                                            },
                                            {
                                                "children": [
                                                    {
                                                        "children": [],
                                                        "depth": 4,
                                                        "id": 19,
                                                        "order": 19
                                                    },
                                                    {
                                                        "children": [],
                                                        "depth": 4,
                                                        "id": 20,
                                                        "order": 20
                                                    }
                                                ],
                                                "depth": 3,
                                                "id": 18,
                                                "order": 18
                                            },
                                            {
                                                "children": [],
                                                "depth": 3,
                                                "id": 21,
                                                "order": 21
                                            }
                                        ],
                                        "depth": 2,
                                        "id": 4,
                                        "order": 4
                                    },
                                    {
                                        "children": [],
                                        "depth": 2,
                                        "id": 22,
                                        "order": 22
                                    },
                                    {
                                        "children": [
                                            {
                                                "children": [],
                                                "depth": 3,
                                                "id": 24,
                                                "order": 24
                                            },
                                            {
                                                "children": [],
                                                "depth": 3,
                                                "id": 25,
                                                "order": 25
                                            },
                                            {
                                                "children": [
                                                    {
                                                        "children": [],
                                                        "depth": 4,
                                                        "id": 27,
                                                        "order": 27
                                                    },
                                                    {
                                                        "children": [],
                                                        "depth": 4,
                                                        "id": 28,
                                                        "order": 28
                                                    }
                                                ],
                                                "depth": 3,
                                                "id": 26,
                                                "order": 26
                                            },
                                            {
                                                "children": [
                                                    {
                                                        "children": [],
                                                        "depth": 4,
                                                        "id": 30,
                                                        "order": 30
                                                    }
                                                ],
                                                "depth": 3,
                                                "id": 29,
                                                "order": 29
                                            },
                                            {
                                                "children": [
                                                    {
                                                        "children": [],
                                                        "depth": 4,
                                                        "id": 32,
                                                        "order": 32
                                                    }
                                                ],
                                                "depth": 3,
                                                "id": 31,
                                                "order": 31
                                            },
                                            {
                                                "children": [
                                                    {
                                                        "children": [],
                                                        "depth": 4,
                                                        "id": 34,
                                                        "order": 34
                                                    },
                                                    {
                                                        "children": [],
                                                        "depth": 4,
                                                        "id": 35,
                                                        "order": 35
                                                    },
                                                    {
                                                        "children": [],
                                                        "depth": 4,
                                                        "id": 36,
                                                        "order": 36
                                                    },
                                                    {
                                                        "children": [],
                                                        "depth": 4,
                                                        "id": 37,
                                                        "order": 37
                                                    },
                                                    {
                                                        "children": [],
                                                        "depth": 4,
                                                        "id": 38,
                                                        "order": 38
                                                    },
                                                    {
                                                        "children": [],
                                                        "depth": 4,
                                                        "id": 39,
                                                        "order": 39
                                                    }
                                                ],
                                                "depth": 3,
                                                "id": 33,
                                                "order": 33
                                            },
                                            {
                                                "children": [],
                                                "depth": 3,
                                                "id": 40,
                                                "order": 40
                                            }
                                        ],
                                        "depth": 2,
                                        "id": 23,
                                        "order": 23
                                    },
                                    {
                                        "children": [],
                                        "depth": 2,
                                        "id": 41,
                                        "order": 41
                                    },
                                    {
                                        "children": [],
                                        "depth": 2,
                                        "id": 42,
                                        "order": 42
                                    },
                                    {
                                        "children": [],
                                        "depth": 2,
                                        "id": 43,
                                        "order": 43
                                    },
                                    {
                                        "children": [],
                                        "depth": 2,
                                        "id": 44,
                                        "order": 44
                                    }
                                ],
                                "depth": 1,
                                "id": 1,
                                "order": 1
                            }
                        ],
                        "depth": 0,
                        "id": 0,
                        "order": 0
                    }
                ],
                "depth": -1,
                "id": -1,
                "order": -1
            }
        ],
        "mainTraceNodeCount": 45,
        "parentIdMap": {
            "0": -1,
            "1": 0,
            "10": 4,
            "11": 10,
            "12": 11,
            "13": 10,
            "14": 10,
            "15": 10,
            "16": 10,
            "17": 4,
            "18": 4,
            "19": 18,
            "2": 1,
            "20": 18,
            "21": 4,
            "22": 1,
            "23": 1,
            "24": 23,
            "25": 23,
            "26": 23,
            "27": 26,
            "28": 26,
            "29": 23,
            "3": 1,
            "30": 29,
            "31": 23,
            "32": 31,
            "33": 23,
            "34": 33,
            "35": 33,
            "36": 33,
            "37": 33,
            "38": 33,
            "39": 33,
            "4": 1,
            "40": 23,
            "41": 1,
            "42": 1,
            "43": 1,
            "44": 1,
            "5": 4,
            "6": 5,
            "7": 5,
            "8": 4,
            "9": 4
        },
        "tidyTrace": [
            {
                "children": [
                    {
                        "children": [
                            {
                                "children": [
                                    {
                                        "children": [],
                                        "depth": 2,
                                        "id": 3,
                                        "order": 3
                                    },
                                    {
                                        "children": [
                                            {
                                                "children": [
                                                    {
                                                        "children": [],
                                                        "depth": 4,
                                                        "id": 6,
                                                        "order": 6
                                                    },
                                                    {
                                                        "children": [],
                                                        "depth": 4,
                                                        "id": 7,
                                                        "order": 7
                                                    }
                                                ],
                                                "depth": 3,
                                                "id": 5,
                                                "order": 5
                                            },
                                            {
                                                "children": [
                                                    {
                                                        "children": [
                                                            {
                                                                "children": [],
                                                                "depth": 5,
                                                                "id": 12,
                                                                "order": 12
                                                            }
                                                        ],
                                                        "depth": 4,
                                                        "id": 11,
                                                        "order": 11
                                                    },
                                                    {
                                                        "children": [],
                                                        "depth": 4,
                                                        "id": 15,
                                                        "order": 15
                                                    },
                                                    {
                                                        "children": [],
                                                        "depth": 4,
                                                        "id": 16,
                                                        "order": 16
                                                    }
                                                ],
                                                "depth": 3,
                                                "id": 10,
                                                "order": 10
                                            },
                                            {
                                                "children": [
                                                    {
                                                        "children": [],
                                                        "depth": 4,
                                                        "id": 19,
                                                        "order": 19
                                                    },
                                                    {
                                                        "children": [],
                                                        "depth": 4,
                                                        "id": 20,
                                                        "order": 20
                                                    }
                                                ],
                                                "depth": 3,
                                                "id": 18,
                                                "order": 18
                                            },
                                            {
                                                "children": [],
                                                "depth": 3,
                                                "id": 21,
                                                "order": 21
                                            }
                                        ],
                                        "depth": 2,
                                        "id": 4,
                                        "order": 4
                                    },
                                    {
                                        "children": [],
                                        "depth": 2,
                                        "id": 22,
                                        "order": 22
                                    },
                                    {
                                        "children": [
                                            {
                                                "children": [
                                                    {
                                                        "children": [],
                                                        "depth": 4,
                                                        "id": 27,
                                                        "order": 27
                                                    },
                                                    {
                                                        "children": [],
                                                        "depth": 4,
                                                        "id": 28,
                                                        "order": 28
                                                    }
                                                ],
                                                "depth": 3,
                                                "id": 26,
                                                "order": 26
                                            },
                                            {
                                                "children": [
                                                    {
                                                        "children": [],
                                                        "depth": 4,
                                                        "id": 30,
                                                        "order": 30
                                                    }
                                                ],
                                                "depth": 3,
                                                "id": 29,
                                                "order": 29
                                            },
                                            {
                                                "children": [
                                                    {
                                                        "children": [],
                                                        "depth": 4,
                                                        "id": 32,
                                                        "order": 32
                                                    }
                                                ],
                                                "depth": 3,
                                                "id": 31,
                                                "order": 31
                                            },
                                            {
                                                "children": [
                                                    {
                                                        "children": [],
                                                        "depth": 4,
                                                        "id": 37,
                                                        "order": 37
                                                    },
                                                    {
                                                        "children": [],
                                                        "depth": 4,
                                                        "id": 38,
                                                        "order": 38
                                                    },
                                                    {
                                                        "children": [],
                                                        "depth": 4,
                                                        "id": 39,
                                                        "order": 39
                                                    }
                                                ],
                                                "depth": 3,
                                                "id": 33,
                                                "order": 33
                                            },
                                            {
                                                "children": [],
                                                "depth": 3,
                                                "id": 40,
                                                "order": 40
                                            }
                                        ],
                                        "depth": 2,
                                        "id": 23,
                                        "order": 23
                                    },
                                    {
                                        "children": [],
                                        "depth": 2,
                                        "id": 41,
                                        "order": 41
                                    },
                                    {
                                        "children": [],
                                        "depth": 2,
                                        "id": 42,
                                        "order": 42
                                    },
                                    {
                                        "children": [],
                                        "depth": 2,
                                        "id": 43,
                                        "order": 43
                                    },
                                    {
                                        "children": [],
                                        "depth": 2,
                                        "id": 44,
                                        "order": 44
                                    }
                                ],
                                "depth": 1,
                                "id": 1,
                                "order": 1
                            }
                        ],
                        "depth": 0,
                        "id": 0,
                        "order": 0
                    }
                ],
                "depth": -1,
                "id": -1,
                "order": -1
            }
        ],
        "tidyTraceNodeCount": 34
    },
    "state_change": {
        "stateChanges": [
            {
                "address": "0x88b9f5c66342ebaf661b3e2836b807c8cb1b3195",
                "erc": "ERC-20",
                "slots": [
                    {
                        "current": "0x00000000000000000000000000000000000000000063d7ed402f4482507a3000",
                        "key": "0x643940ddcb9071ab2b1ce0f942c807967dea9cf415a161e3a2082fd773ffb4b3",
                        "prev": "0x00000000000000000000000000000000000000000065cfe94f2ad01407fa3000"
                    },
                    {
                        "current": "0x00000000000000000000000000000000000000000001f7fc0efb8b91b7800000",
                        "key": "0xf38e0c0920bfe16769eab2fee01acab924946c95eee6390ca66b92be76a6c142",
                        "prev": "0x0000000000000000000000000000000000000000000000000000000000000000"
                    },
                    {
                        "current": "0x00000000000000000000000000000000000000000007dff03bee2e46de000000",
                        "key": "0xcfb75dfd7bf844e58d042e85755cf7e32a663603a1f2870fe5d344366d103cb8",
                        "prev": "0x00000000000000000000000000000000000000000009d7ec4ae9b9d895800000"
                    },
                    {
                        "current": "0x0000000000000000000000000000000000000000000000000000000000000000",
                        "key": "0xe19e6bcd9f54aaa13c84b396963dbc8a907a9ccf78f0325137809e60b94b8a2d",
                        "prev": "0x0000000000000000000000000000000000000000000019a7cc197e390b1d394c"
                    },
                    {
                        "current": "0x000000000000000000000000000000000000000000177c14b6f3ae4b242e1281",
                        "key": "0xc06735ec419a4a2f3bebacfdc91582e419645f010217418712c8a345ed71c2b5",
                        "prev": "0x00000000000000000000000000000000000000000017626ceada30121910d935"
                    }
                ],
                "storageVariables": [
                    {
                        "name": "_balances",
                        "type": "mapping(address => uint256)",
                        "value": {
                            "pairs": [
                                {
                                    "key": "0x88b9f5c66342ebaf661b3e2836b807c8cb1b3195",
                                    "value": {
                                        "current": "0",
                                        "prev": "121154475256892245227852",
                                        "typeTag": 1
                                    }
                                },
                                {
                                    "key": "0xbc452fdc8f851d7c5b72e1fe74dfb63bb793d511",
                                    "value": {
                                        "current": "120703341439001400000000000",
                                        "prev": "123083341439001400000000000",
                                        "typeTag": 1
                                    }
                                },
                                {
                                    "key": "0xc98936de9640d6bfc24f82de1cf0f8cd9f5b388d",
                                    "value": {
                                        "current": "28391249412965953212125825",
                                        "prev": "28270094937709060966897973",
                                        "typeTag": 1
                                    }
                                },
                                {
                                    "key": "0xded2b1a426e1b7d415a40bcad44e98f47181dda2",
                                    "value": {
                                        "current": "2380000000000000000000000",
                                        "prev": "0",
                                        "typeTag": 1
                                    }
                                }
                            ],
                            "typeTag": 4
                        }
                    },
                    {
                        "name": "_allowances",
                        "type": "mapping(address => mapping(address => uint256))",
                        "value": {
                            "pairs": [
                                {
                                    "key": "0xbc452fdc8f851d7c5b72e1fe74dfb63bb793d511",
                                    "value": {
                                        "pairs": [
                                            {
                                                "key": "0xd818ff3d5cfc938014b270d0c8029ba04629b549",
                                                "value": {
                                                    "current": "9520000000000000000000000",
                                                    "prev": "11900000000000000000000000",
                                                    "typeTag": 1
                                                }
                                            }
                                        ],
                                        "typeTag": 4
                                    }
                                }
                            ],
                            "typeTag": 4
                        }
                    }
                ]
            },
            {
                "address": "0xc02aaa39b223fe8d0a0e5c4f27ead9083c756cc2",
                "erc": "ERC-20",
                "slots": [
                    {
                        "current": "0x00000000000000000000000000000000000000000000000c2a1e92cfc7742a2a",
                        "key": "0x7cfb9fb70251bef6e10114d7a2b9bb8cd3addf50426b89ad4dc1d64e90c48720",
                        "prev": "0x00000000000000000000000000000000000000000000000c32f9de5fd1e74a2f"
                    }
                ],
                "storageVariables": [
                    {
                        "name": "balanceOf",
                        "type": "mapping(address => uint256)",
                        "value": {
                            "pairs": [
                                {
                                    "key": "0xc98936de9640d6bfc24f82de1cf0f8cd9f5b388d",
                                    "value": {
                                        "current": "224395953504511076906",
                                        "prev": "225034140358736824879",
                                        "typeTag": 1
                                    }
                                }
                            ],
                            "typeTag": 4
                        }
                    }
                ]
            },
            {
                "address": "0xc98936de9640d6bfc24f82de1cf0f8cd9f5b388d",
                "erc": "ERC-20",
                "slots": [
                    {
                        "current": "0x000000000000000000000000001856582a6df6acb5c0f8c7a4a8cc6bea023318",
                        "key": "0x000000000000000000000000000000000000000000000000000000000000000a",
                        "prev": "0x00000000000000000000000000185613284cffc7f627322a6a1d64098b7c0304"
                    },
                    {
                        "current": "0x66221f9300000000000c2a1e92cfc7742a2a000000177c14b6f3ae4b242e1281",
                        "key": "0x0000000000000000000000000000000000000000000000000000000000000008",
                        "prev": "0x66221f6f00000000000c32f9de5fd1e74a2f00000017626ceada30121910d935"
                    },
                    {
                        "current": "0x00000000000000000000000000000000001f61e7ef3f2cc8b74f436451740a28",
                        "key": "0x0000000000000000000000000000000000000000000000000000000000000009",
                        "prev": "0x00000000000000000000000000000000001f61d5277a7593e8ba158171b8fb44"
                    },
                    {
                        "current": "0x0000000000000000000000000000000000000000000010887e00ef9d28f66b8f",
                        "key": "0x0000000000000000000000000000000000000000000000000000000000000000",
                        "prev": "0x00000000000000000000000000000000000000000000108579d7dbb1ad88bd0c"
                    },
                    {
                        "current": "0x000000000000000000000000000000000000000000000102913361fa66011de9",
                        "key": "0xbc33027b3138852f350ccdfe21ce783ba55a7ed1538b76bed6ee9ac25cb7f4e2",
                        "prev": "0x0000000000000000000000000000000000000000000000ff8d0a4e0eea936f66"
                    }
                ],
                "storageVariables": [
                    {
                        "name": "balanceOf",
                        "type": "mapping(address => uint256)",
                        "value": {
                            "pairs": [
                                {
                                    "key": "0x3933bb4d19904deba20a02efc66229aaea441ba8",
                                    "value": {
                                        "current": "4769722785104457178601",
                                        "prev": "4714082760131022647142",
                                        "typeTag": 1
                                    }
                                }
                            ],
                            "typeTag": 4
                        }
                    },
                    {
                        "name": "price1CumulativeLast",
                        "type": "uint256",
                        "value": {
                            "current": "542739542601694715996540673410556788834710296",
                            "prev": "542716060288760084118523452249837241915671300",
                            "typeTag": 1
                        }
                    },
                    {
                        "name": "reserve0",
                        "type": "uint112",
                        "value": {
                            "current": "28391249412965953212125825",
                            "prev": "28270094937709060966897973",
                            "typeTag": 1
                        }
                    },
                    {
                        "name": "reserve1",
                        "type": "uint112",
                        "value": {
                            "current": "224395953504511076906",
                            "prev": "225034140358736824879",
                            "typeTag": 1
                        }
                    },
                    {
                        "name": "blockTimestampLast",
                        "type": "uint32",
                        "value": {
                            "current": "1713512339",
                            "prev": "1713512303",
                            "typeTag": 1
                        }
                    },
                    {
                        "name": "price0CumulativeLast",
                        "type": "uint256",
                        "value": {
                            "current": "162946972094965824197656778005285416",
                            "prev": "162945484162708985164532525987068740",
                            "typeTag": 1
                        }
                    },
                    {
                        "name": "totalSupply",
                        "type": "uint256",
                        "value": {
                            "current": "78075700440245877500815",
                            "prev": "78020060415272442969356",
                            "typeTag": 1
                        }
                    }
                ]
            }
        ]
    }
}