{
    "balance_change": {
        "balanceChanges": [
            {
                "account": "0xc7823188d459e1744c0e5fd58a0e074e92982ea3",
                "assets": [
                    {
                        "address": "0x2170ed0880ac9a755fd29b2688956bd959f933f8",
                        "amount": "12.162940372138517923",
                        "iconUrl": "https://assets.blocksec.com/icon/848f9478-0e76-4d44-a5ec-b9ab6582f38f.png",
                        "isERC1155": false,
                        "isERC721": false,
                        "sign": true,
                        "value": "23074.19255"
                    }
                ]
            },
            {
                "account": "0x1f90bdeb5674833868ee9b36707b929024e7a513",
                "assets": [
                    {
                        "address": "0x9801da0aa142749295692c7cb3241e4ee2b80bda",
                        "amount": "130.96894717247636878",
                        "iconUrl": "",
                        "isERC1155": false,
                        "isERC721": false,
                        "sign": false,
                        "value": ""
                    }
                ]
            },
            {
                "account": "0x2976bd3774622367ce7a575d28201480e640966f",
                "assets": [
                    {
                        "address": "0x9801da0aa142749295692c7cb3241e4ee2b80bda",
                        "amount": "130.576040330958939674",
                        "iconUrl": "",
                        "isERC1155": false,
                        "isERC721": false,
                        "sign": true,
                        "value": ""
                    },
                    {
                        "address": "0x2170ed0880ac9a755fd29b2688956bd959f933f8",
                        "amount": "12.162940372138517923",
                        "iconUrl": "https://assets.blocksec.com/icon/848f9478-0e76-4d44-a5ec-b9ab6582f38f.png",
                        "isERC1155": false,
                        "isERC721": false,
                        "sign": false,
                        "value": "23074.19255"
                    }
                ]
            },
            {
                "account": "0x9801da0aa142749295692c7cb3241e4ee2b80bda",
                "assets": [
                    {
                        "address": "0x9801da0aa142749295692c7cb3241e4ee2b80bda",
                        "amount": "0.392906841517429106",
                        "iconUrl": "",
                        "isERC1155": false,
                        "isERC721": false,
                        "sign": true,
                        "value": ""
                    }
                ]
            }
        ]
    },
    "profile": {
        "basic_info": {
            "baseFee": "",
            "blockNumber": 29474566,
            "callData": "0x6ec6db550000000000000000000000001f90bdeb5674833868ee9b36707b929024e7a5130000000000000000000000009801da0aa142749295692c7cb3241e4ee2b80bda0000000000000000000000002976bd3774622367ce7a575d28201480e640966f",
            "debugEnable": true,
            "errorInfo": "",
            "eventCount": 6,
            "feeRecipient": "0xd1d6bf74282782b0b3eb1413c901d6ecf02e8e28",
            "formatValue": "0",
            "gasLimit": 99025496,
            "gasPrice": "5",
            "gasUsed": 141595,
            "intTxnCount": 13,
            "internalRevert": false,
            "internalRevertMessage": "",
            "isContractCreation": false,
            "isFlashloan": false,
            "maxFee": "",
            "nonce": 34,
            "overwritedBlockNumber": -1,
            "priorityFee": "",
            "receiver": "0xc7823188d459e1744c0e5fd58a0e074e92982ea3",
            "revertMessage": "",
            "sender": "0xab90a897cf6c56c69a4579ead3c900260dfba02d",
            "simulationEnable": true,
            "sourceTxnHash": "0x1147b3c0f3ebdd524c4e58430bb736eba9f7fa522158f5ad81eb3e2394b466d0",
            "status": true,
            "timestamp": "2023-06-27T18:22:50Z",
            "transactionFee": "0.000707975",
            "txnHash": "0x1147b3c0f3ebdd524c4e58430bb736eba9f7fa522158f5ad81eb3e2394b466d0",
            "txnIndex": 21,
            "type": 0,
            "value": "0"
        },
        "fund_flow": [
            {
                "amount": "130.96894717247636878",
                "from": "0x1f90bdeb5674833868ee9b36707b929024e7a513",
                "id": 1,
                "isERC1155": false,
                "isERC721": false,
                "isReverted": false,
                "order": 1,
                "to": "0xc7823188d459e1744c0e5fd58a0e074e92982ea3",
                "token": "0x9801da0aa142749295692c7cb3241e4ee2b80bda"
            },
            {
                "amount": "130.576040330958939674",
                "from": "0xc7823188d459e1744c0e5fd58a0e074e92982ea3",
                "id": 2,
                "isERC1155": false,
                "isERC721": false,
                "isReverted": false,
                "order": 2,
                "to": "0x2976bd3774622367ce7a575d28201480e640966f",
                "token": "0x9801da0aa142749295692c7cb3241e4ee2b80bda"
            },
            {
                "amount": "0.392906841517429106",
                "from": "0xc7823188d459e1744c0e5fd58a0e074e92982ea3",
                "id": 3,
                "isERC1155": false,
                "isERC721": false,
                "isReverted": false,
                "order": 3,
                "to": "0x9801da0aa142749295692c7cb3241e4ee2b80bda",
                "token": "0x9801da0aa142749295692c7cb3241e4ee2b80bda"
            },
            {
                "amount": "12.162940372138517923",
                "from": "0x2976bd3774622367ce7a575d28201480e640966f",
                "id": 4,
                "isERC1155": false,
                "isERC721": false,
                "isReverted": false,
                "order": 4,
                "to": "0xc7823188d459e1744c0e5fd58a0e074e92982ea3",
                "token": "0x2170ed0880ac9a755fd29b2688956bd959f933f8"
            }
        ],
        "token_infos": [
            {
                "address": "0xbb4cdb9cbd36b01bd1cbaebf2de08d9173bc095c",
                "decimals": 18
            },
            {
                "address": "0xeeeeeeeeeeeeeeeeeeeeeeeeeeeeeeeeeeeeeeee",
                "decimals": 18
            },
            {
                "address": "0x2170ed0880ac9a755fd29b2688956bd959f933f8",
                "decimals": 18
            },
            {
                "address": "0x9801da0aa142749295692c7cb3241e4ee2b80bda",
                "decimals": 18
            }
        ]
    },
    "address_label": {
        "labels": [
            {
                "address": "0xeeeeeeeeeeeeeeeeeeeeeeeeeeeeeeeeeeeeeeee",
                "label": "BNB"
            },
            {
                "address": "0x2976bd3774622367ce7a575d28201480e640966f",
                "label": "STRAC V2 (STRAC-V2)"
            },
            {
                "address": "0x0000000000000000000000000000000000000001",
                "label": "Precompiled"
            },
            {
                "address": "0x2170ed0880ac9a755fd29b2688956bd959f933f8",
                "label": "Ethereum: ETH Token"
            },
            {
                "address": "0x3870d09f59564d8b86b052b1fb1e27b961f9bc73",
                "label": "UniswapV2Router02"
            },
            {
                "address": "0x9801da0aa142749295692c7cb3241e4ee2b80bda",
                "label": "STRAC (STRAC)"
            },
            {
                "address": "0x0000000000000000000000000000000000000002",
                "label": "Precompiled"
            },
            {
                "address": "0x0000000000000000000000000000000000000003",
                "label": "Precompiled"
            },
            {
                "address": "0x0000000000000000000000000000000000000004",
                "label": "Precompiled"
            }
        ]
    },
    "trace": {
        "accountLabels": null,
        "dataMap": {
            "-1": {
                "invocation": {
                    "address": "0xab90a897cf6c56c69a4579ead3c900260dfba02d",
                    "callData": "",
                    "decodedMethod": null,
                    "errorInfo": "",
                    "fromAddress": "",
                    "gasUsed": 0,
                    "id": -1,
                    "methodDecoded": false,
                    "operation": "",
                    "output": "",
                    "revert": false,
                    "revertMessage": "",
                    "selector": "",
                    "status": false,
                    "value": ""
                },
                "nodeType": 0
            },
            "0": {
                "invocation": {
                    "address": "0xc7823188d459e1744c0e5fd58a0e074e92982ea3",
                    "callData": "0x0000000000000000000000001f90bdeb5674833868ee9b36707b929024e7a5130000000000000000000000009801da0aa142749295692c7cb3241e4ee2b80bda0000000000000000000000002976bd3774622367ce7a575d28201480e640966f",
                    "decodedMethod": null,
                    "errorInfo": "",
                    "fromAddress": "0xab90a897cf6c56c69a4579ead3c900260dfba02d",
                    "gasUsed": 141595,
                    "id": 0,
                    "methodDecoded": false,
                    "operation": "CALL",
                    "output": "",
                    "revert": false,
                    "revertMessage": "",
                    "selector": "0x6ec6db55",
                    "status": true,
                    "value": "0"
                },
                "nodeType": 0
            },
            "1": {
                "invocation": {
                    "address": "0x9801da0aa142749295692c7cb3241e4ee2b80bda",
                    "callData": "0x0000000000000000000000001f90bdeb5674833868ee9b36707b929024e7a513",
                    "decodedMethod": {
                        "callParams": [
                            {
                                "name": "account",
                                "type": "address",
                                "value": "0x1f90bdeb5674833868ee9b36707b929024e7a513"
                            }
                        ],
                        "constructorArguments": "",
                        "name": "balanceOf",
                        "returnParams": [
                            {
                                "decimalAvailable": true,
                                "name": "",
                                "type": "uint256",
                                "value": "130,968,947,172,476,368,780"
                            }
                        ],
                        "signature": "balanceOf(address)"
                    },
                    "errorInfo": "",
                    "fromAddress": "0xc7823188d459e1744c0e5fd58a0e074e92982ea3",
                    "gasUsed": 1285,
                    "id": 1,
                    "methodDecoded": true,
                    "operation": "STATICCALL",
                    "output": "0x000000000000000000000000000000000000000000000007198f2b8cd65ab78c",
                    "revert": false,
                    "revertMessage": "",
                    "selector": "0x70a08231",
                    "status": true,
                    "value": "0"
                },
                "nodeType": 0
            },
            "10": {
                "invocation": {
                    "address": "0x9801da0aa142749295692c7cb3241e4ee2b80bda",
                    "callData": "0x0000000000000000000000002976bd3774622367ce7a575d28201480e640966f000000000000000000000000000000000000000000000007198f2b8cd65ab78c",
                    "decodedMethod": {
                        "callParams": [
                            {
                                "name": "recipient",
                                "type": "address",
                                "value": "0x2976bd3774622367ce7a575d28201480e640966f"
                            },
                            {
                                "decimalAvailable": true,
                                "name": "amount",
                                "type": "uint256",
                                "value": "130,968,947,172,476,368,780"
                            }
                        ],
                        "constructorArguments": "",
                        "name": "transfer",
                        "returnParams": [
                            {
                                "name": "",
                                "type": "bool",
                                "value": true
                            }
                        ],
                        "signature": "transfer(address,uint256)"
                    },
                    "errorInfo": "",
                    "fromAddress": "0xc7823188d459e1744c0e5fd58a0e074e92982ea3",
                    "gasUsed": 24582,
                    "id": 10,
                    "methodDecoded": true,
                    "operation": "CALL",
                    "output": "0x0000000000000000000000000000000000000000000000000000000000000001",
                    "revert": false,
                    "revertMessage": "",
                    "selector": "0xa9059cbb",
                    "status": true,
                    "value": "0"
                },
                "nodeType": 0
            },
            "11": {
                "event": {
                    "contract": "0x9801da0aa142749295692c7cb3241e4ee2b80bda",
                    "decodedLog": {
                        "name": "Transfer",
                        "params": [
                            {
                                "name": "from",
                                "type": "address",
                                "value": "0xc7823188d459e1744c0e5fd58a0e074e92982ea3"
                            },
                            {
                                "name": "to",
                                "type": "address",
                                "value": "0x2976bd3774622367ce7a575d28201480e640966f"
                            },
                            {
                                "decimalAvailable": true,
                                "name": "value",
                                "type": "uint256",
                                "value": "130,576,040,330,958,939,674"
                            }
                        ],
                        "signature": "Transfer(address,address,uint256)"
                    },
                    "id": 11,
                    "logData": "0x000000000000000000000000000000000000000000000007141b48dc07e3261a",
                    "logDecoded": true,
                    "operation": "EVENT",
                    "revert": false,
                    "status": true,
                    "topics": [
                        "0xddf252ad1be2c89b69c2b068fc378daa952ba7f163c4a11628f55a4df523b3ef",
                        "0x000000000000000000000000c7823188d459e1744c0e5fd58a0e074e92982ea3",
                        "0x0000000000000000000000002976bd3774622367ce7a575d28201480e640966f"
                    ]
                },
                "nodeType": 1
            },
            "12": {
                "event": {
                    "contract": "0x9801da0aa142749295692c7cb3241e4ee2b80bda",
                    "decodedLog": {
                        "name": "Transfer",
                        "params": [
                            {
                                "name": "from",
                                "type": "address",
                                "value": "0xc7823188d459e1744c0e5fd58a0e074e92982ea3"
                            },
                            {
                                "name": "to",
                                "type": "address",
                                "value": "0x9801da0aa142749295692c7cb3241e4ee2b80bda"
                            },
                            {
                                "decimalAvailable": true,
                                "name": "value",
                                "type": "uint256",
                                "value": "392,906,841,517,429,106"
                            }
                        ],
                        "signature": "Transfer(address,address,uint256)"
                    },
                    "id": 12,
                    "logData": "0x0000000000000000000000000000000000000000000000000573e2b0ce779172",
                    "logDecoded": true,
                    "operation": "EVENT",
                    "revert": false,
                    "status": true,
                    "topics": [
                        "0xddf252ad1be2c89b69c2b068fc378daa952ba7f163c4a11628f55a4df523b3ef",
                        "0x000000000000000000000000c7823188d459e1744c0e5fd58a0e074e92982ea3",
                        "0x0000000000000000000000009801da0aa142749295692c7cb3241e4ee2b80bda"
                    ]
                },
                "nodeType": 1
            },
            "13": {
                "invocation": {
                    "address": "0x2976bd3774622367ce7a575d28201480e640966f",
                    "callData": "0x000000000000000000000000000000000000000000000000a8cb71d39192e5a30000000000000000000000000000000000000000000000000000000000000000000000000000000000000000c7823188d459e1744c0e5fd58a0e074e92982ea300000000000000000000000000000000000000000000000000000000000000800000000000000000000000000000000000000000000000000000000000000000",
                    "decodedMethod": {
                        "callParams": [
                            {
                                "name": "amount0Out",
                                "type": "uint256",
                                "value": "12,162,940,372,138,517,923"
                            },
                            {
                                "name": "amount1Out",
                                "type": "uint256",
                                "value": "0"
                            },
                            {
                                "name": "to",
                                "type": "address",
                                "value": "0xc7823188d459e1744c0e5fd58a0e074e92982ea3"
                            },
                            {
                                "name": "data",
                                "type": "bytes",
                                "value": "0x"
                            }
                        ],
                        "constructorArguments": "",
                        "name": "swap",
                        "returnParams": [],
                        "signature": "swap(uint256,uint256,address,bytes)"
                    },
                    "errorInfo": "",
                    "fromAddress": "0xc7823188d459e1744c0e5fd58a0e074e92982ea3",
                    "gasUsed": 71449,
                    "id": 13,
                    "methodDecoded": true,
                    "operation": "CALL",
                    "output": "",
                    "revert": false,
                    "revertMessage": "",
                    "selector": "0x022c0d9f",
                    "status": true,
                    "value": "0"
                },
                "nodeType": 0
            },
            "14": {
                "invocation": {
                    "address": "0x2170ed0880ac9a755fd29b2688956bd959f933f8",
                    "callData": "0x000000000000000000000000c7823188d459e1744c0e5fd58a0e074e92982ea3000000000000000000000000000000000000000000000000a8cb71d39192e5a3",
                    "decodedMethod": {
                        "callParams": [
                            {
                                "name": "recipient",
                                "type": "address",
                                "value": "0xc7823188d459e1744c0e5fd58a0e074e92982ea3"
                            },
                            {
                                "decimalAvailable": true,
                                "name": "amount",
                                "type": "uint256",
                                "value": "12,162,940,372,138,517,923"
                            }
                        ],
                        "constructorArguments": "",
                        "name": "transfer",
                        "returnParams": [
                            {
                                "name": "",
                                "type": "bool",
                                "value": true
                            }
                        ],
                        "signature": "transfer(address,uint256)"
                    },
                    "errorInfo": "",
                    "fromAddress": "0x2976bd3774622367ce7a575d28201480e640966f",
                    "gasUsed": 29471,
                    "id": 14,
                    "methodDecoded": true,
                    "operation": "CALL",
                    "output": "0x0000000000000000000000000000000000000000000000000000000000000001",
                    "revert": false,
                    "revertMessage": "",
                    "selector": "0xa9059cbb",
                    "status": true,
                    "value": "0"
                },
                "nodeType": 0
            },
            "15": {
                "event": {
                    "contract": "0x2170ed0880ac9a755fd29b2688956bd959f933f8",
                    "decodedLog": {
                        "name": "Transfer",
                        "params": [
                            {
                                "name": "from",
                                "type": "address",
                                "value": "0x2976bd3774622367ce7a575d28201480e640966f"
                            },
                            {
                                "name": "to",
                                "type": "address",
                                "value": "0xc7823188d459e1744c0e5fd58a0e074e92982ea3"
                            },
                            {
                                "decimalAvailable": true,
                                "name": "value",
                                "type": "uint256",
                                "value": "12,162,940,372,138,517,923"
                            }
                        ],
                        "signature": "Transfer(address,address,uint256)"
                    },
                    "id": 15,
                    "logData": "0x000000000000000000000000000000000000000000000000a8cb71d39192e5a3",
                    "logDecoded": true,
                    "operation": "EVENT",
                    "revert": false,
                    "status": true,
                    "topics": [
                        "0xddf252ad1be2c89b69c2b068fc378daa952ba7f163c4a11628f55a4df523b3ef",
                        "0x0000000000000000000000002976bd3774622367ce7a575d28201480e640966f",
                        "0x000000000000000000000000c7823188d459e1744c0e5fd58a0e074e92982ea3"
                    ]
                },
                "nodeType": 1
            },
            "16": {
                "invocation": {
                    "address": "0x2170ed0880ac9a755fd29b2688956bd959f933f8",
                    "callData": "0x0000000000000000000000002976bd3774622367ce7a575d28201480e640966f",
                    "decodedMethod": {
                        "callParams": [
                            {
                                "name": "account",
                                "type": "address",
                                "value": "0x2976bd3774622367ce7a575d28201480e640966f"
                            }
                        ],
                        "constructorArguments": "",
                        "name": "balanceOf",
                        "returnParams": [
                            {
                                "decimalAvailable": true,
                                "name": "",
                                "type": "uint256",
                                "value": "2,624,142,725,133,003,615,826"
                            }
                        ],
                        "signature": "balanceOf(address)"
                    },
                    "errorInfo": "",
                    "fromAddress": "0x2976bd3774622367ce7a575d28201480e640966f",
                    "gasUsed": 1231,
                    "id": 16,
                    "methodDecoded": true,
                    "operation": "STATICCALL",
                    "output": "0x00000000000000000000000000000000000000000000008e414bc13456336e52",
                    "revert": false,
                    "revertMessage": "",
                    "selector": "0x70a08231",
                    "status": true,
                    "value": "0"
                },
                "nodeType": 0
            },
            "17": {
                "invocation": {
                    "address": "0x9801da0aa142749295692c7cb3241e4ee2b80bda",
                    "callData": "0x0000000000000000000000002976bd3774622367ce7a575d28201480e640966f",
                    "decodedMethod": {
                        "callParams": [
                            {
                                "name": "account",
                                "type": "address",
                                "value": "0x2976bd3774622367ce7a575d28201480e640966f"
                            }
                        ],
                        "constructorArguments": "",
                        "name": "balanceOf",
                        "returnParams": [
                            {
                                "decimalAvailable": true,
                                "name": "",
                                "type": "uint256",
                                "value": "28,217,324,868,680,625,390,861"
                            }
                        ],
                        "signature": "balanceOf(address)"
                    },
                    "errorInfo": "",
                    "fromAddress": "0x2976bd3774622367ce7a575d28201480e640966f",
                    "gasUsed": 1285,
                    "id": 17,
                    "methodDecoded": true,
                    "operation": "STATICCALL",
                    "output": "0x0000000000000000000000000000000000000000000005f9aa0c0a454097850d",
                    "revert": false,
                    "revertMessage": "",
                    "selector": "0x70a08231",
                    "status": true,
                    "value": "0"
                },
                "nodeType": 0
            },
            "18": {
                "event": {
                    "contract": "0x2976bd3774622367ce7a575d28201480e640966f",
                    "decodedLog": {
                        "name": "Sync",
                        "params": [
                            {
                                "name": "reserve0",
                                "type": "uint112",
                                "value": "2,624,142,725,133,003,615,826"
                            },
                            {
                                "name": "reserve1",
                                "type": "uint112",
                                "value": "28,217,324,868,680,625,390,861"
                            }
                        ],
                        "signature": "Sync(uint112,uint112)"
                    },
                    "id": 18,
                    "logData": "0x00000000000000000000000000000000000000000000008e414bc13456336e520000000000000000000000000000000000000000000005f9aa0c0a454097850d",
                    "logDecoded": true,
                    "operation": "EVENT",
                    "revert": false,
                    "status": true,
                    "topics": [
                        "0x1c411e9a96e071241c2f21f7726b17ae89e3cab4c78be50e062b03a9fffbbad1"
                    ]
                },
                "nodeType": 1
            },
            "19": {
                "event": {
                    "contract": "0x2976bd3774622367ce7a575d28201480e640966f",
                    "decodedLog": {
                        "name": "Swap",
                        "params": [
                            {
                                "name": "sender",
                                "type": "address",
                                "value": "0xc7823188d459e1744c0e5fd58a0e074e92982ea3"
                            },
                            {
                                "name": "to",
                                "type": "address",
                                "value": "0xc7823188d459e1744c0e5fd58a0e074e92982ea3"
                            },
                            {
                                "name": "amount0In",
                                "type": "uint256",
                                "value": "0"
                            },
                            {
                                "name": "amount1In",
                                "type": "uint256",
                                "value": "130,576,040,330,958,939,674"
                            },
                            {
                                "name": "amount0Out",
                                "type": "uint256",
                                "value": "12,162,940,372,138,517,923"
                            },
                            {
                                "name": "amount1Out",
                                "type": "uint256",
                                "value": "0"
                            }
                        ],
                        "signature": "Swap(address,uint256,uint256,uint256,uint256,address)"
                    },
                    "id": 19,
                    "logData": "0x0000000000000000000000000000000000000000000000000000000000000000000000000000000000000000000000000000000000000007141b48dc07e3261a000000000000000000000000000000000000000000000000a8cb71d39192e5a30000000000000000000000000000000000000000000000000000000000000000",
                    "logDecoded": true,
                    "operation": "EVENT",
                    "revert": false,
                    "status": true,
                    "topics": [
                        "0xd78ad95fa46c994b6551d0da85fc275fe613ce37657fb8d5e3d130840159d822",
                        "0x000000000000000000000000c7823188d459e1744c0e5fd58a0e074e92982ea3",
                        "0x000000000000000000000000c7823188d459e1744c0e5fd58a0e074e92982ea3"
                    ]
                },
                "nodeType": 1
            },
            "2": {
                "invocation": {
                    "address": "0x1f90bdeb5674833868ee9b36707b929024e7a513",
                    "callData": "0x000000000000000000000000c7823188d459e1744c0e5fd58a0e074e92982ea30000000000000000000000009801da0aa142749295692c7cb3241e4ee2b80bda000000000000000000000000000000000000000000000007198f2b8cd65ab78c",
                    "decodedMethod": null,
                    "errorInfo": "",
                    "fromAddress": "0xc7823188d459e1744c0e5fd58a0e074e92982ea3",
                    "gasUsed": 39740,
                    "id": 2,
                    "methodDecoded": false,
                    "operation": "CALL",
                    "output": "",
                    "revert": false,
                    "revertMessage": "",
                    "selector": "0x4a75084c",
                    "status": true,
                    "value": "0"
                },
                "nodeType": 0
            },
            "3": {
                "invocation": {
                    "address": "0xc7823188d459e1744c0e5fd58a0e074e92982ea3",
                    "callData": "0x000000000000000000000000c7823188d459e1744c0e5fd58a0e074e92982ea30000000000000000000000001f90bdeb5674833868ee9b36707b929024e7a513000000000000000000000000000000000000000000000007198f2b8cd65ab78c",
                    "decodedMethod": {
                        "callParams": [
                            {
                                "name": "sender",
                                "type": "address",
                                "value": "0xc7823188d459e1744c0e5fd58a0e074e92982ea3"
                            },
                            {
                                "name": "recipient",
                                "type": "address",
                                "value": "0x1f90bdeb5674833868ee9b36707b929024e7a513"
                            },
                            {
                                "decimalAvailable": true,
                                "name": "amount",
                                "type": "uint256",
                                "value": "130,968,947,172,476,368,780"
                            }
                        ],
                        "constructorArguments": "",
                        "name": "transferFrom",
                        "returnParams": [
                            {
                                "name": "",
                                "type": "bool",
                                "value": true
                            }
                        ],
                        "signature": "transferFrom(address,address,uint256)"
                    },
                    "errorInfo": "",
                    "fromAddress": "0x1f90bdeb5674833868ee9b36707b929024e7a513",
                    "gasUsed": 2486,
                    "id": 3,
                    "methodDecoded": true,
                    "operation": "CALL",
                    "output": "0x0000000000000000000000000000000000000000000000000000000000000001",
                    "revert": false,
                    "revertMessage": "",
                    "selector": "0x23b872dd",
                    "status": true,
                    "value": "0"
                },
                "nodeType": 0
            },
            "4": {
                "invocation": {
                    "address": "0x9801da0aa142749295692c7cb3241e4ee2b80bda",
                    "callData": "0x000000000000000000000000c7823188d459e1744c0e5fd58a0e074e92982ea3000000000000000000000000000000000000000000000007198f2b8cd65ab78c",
                    "decodedMethod": {
                        "callParams": [
                            {
                                "name": "recipient",
                                "type": "address",
                                "value": "0xc7823188d459e1744c0e5fd58a0e074e92982ea3"
                            },
                            {
                                "decimalAvailable": true,
                                "name": "amount",
                                "type": "uint256",
                                "value": "130,968,947,172,476,368,780"
                            }
                        ],
                        "constructorArguments": "",
                        "name": "transfer",
                        "returnParams": [
                            {
                                "name": "",
                                "type": "bool",
                                "value": true
                            }
                        ],
                        "signature": "transfer(address,uint256)"
                    },
                    "errorInfo": "",
                    "fromAddress": "0x1f90bdeb5674833868ee9b36707b929024e7a513",
                    "gasUsed": 33889,
                    "id": 4,
                    "methodDecoded": true,
                    "operation": "CALL",
                    "output": "0x0000000000000000000000000000000000000000000000000000000000000001",
                    "revert": false,
                    "revertMessage": "",
                    "selector": "0xa9059cbb",
                    "status": true,
                    "value": "0"
                },
                "nodeType": 0
            },
            "5": {
                "event": {
                    "contract": "0x9801da0aa142749295692c7cb3241e4ee2b80bda",
                    "decodedLog": {
                        "name": "Transfer",
                        "params": [
                            {
                                "name": "from",
                                "type": "address",
                                "value": "0x1f90bdeb5674833868ee9b36707b929024e7a513"
                            },
                            {
                                "name": "to",
                                "type": "address",
                                "value": "0xc7823188d459e1744c0e5fd58a0e074e92982ea3"
                            },
                            {
                                "decimalAvailable": true,
                                "name": "value",
                                "type": "uint256",
                                "value": "130,968,947,172,476,368,780"
                            }
                        ],
                        "signature": "Transfer(address,address,uint256)"
                    },
                    "id": 5,
                    "logData": "0x000000000000000000000000000000000000000000000007198f2b8cd65ab78c",
                    "logDecoded": true,
                    "operation": "EVENT",
                    "revert": false,
                    "status": true,
                    "topics": [
                        "0xddf252ad1be2c89b69c2b068fc378daa952ba7f163c4a11628f55a4df523b3ef",
                        "0x0000000000000000000000001f90bdeb5674833868ee9b36707b929024e7a513",
                        "0x000000000000000000000000c7823188d459e1744c0e5fd58a0e074e92982ea3"
                    ]
                },
                "nodeType": 1
            },
            "6": {
                "invocation": {
                    "address": "0x2976bd3774622367ce7a575d28201480e640966f",
                    "callData": "0x",
                    "decodedMethod": {
                        "callParams": [],
                        "constructorArguments": "",
                        "name": "getReserves",
                        "returnParams": [
                            {
                                "name": "",
                                "type": "uint256",
                                "value": "2,636,305,665,505,142,133,749"
                            },
                            {
                                "name": "",
                                "type": "uint256",
                                "value": "28,086,748,828,349,666,451,187"
                            }
                        ],
                        "signature": "getReserves()"
                    },
                    "errorInfo": "",
                    "fromAddress": "0xc7823188d459e1744c0e5fd58a0e074e92982ea3",
                    "gasUsed": 1217,
                    "id": 6,
                    "methodDecoded": true,
                    "operation": "CALL",
                    "output": "0x00000000000000000000000000000000000000000000008eea173307e7c653f50000000000000000000000000000000000000000000005f295f0c16938b45ef300000000000000000000000000000000000000000000000000000000649b25ff",
                    "revert": false,
                    "revertMessage": "",
                    "selector": "0x0902f1ac",
                    "status": true,
                    "value": "0"
                },
                "nodeType": 0
            },
            "7": {
                "invocation": {
                    "address": "0x9801da0aa142749295692c7cb3241e4ee2b80bda",
                    "callData": "0x000000000000000000000000c7823188d459e1744c0e5fd58a0e074e92982ea3",
                    "decodedMethod": {
                        "callParams": [
                            {
                                "name": "account",
                                "type": "address",
                                "value": "0xc7823188d459e1744c0e5fd58a0e074e92982ea3"
                            }
                        ],
                        "constructorArguments": "",
                        "name": "balanceOf",
                        "returnParams": [
                            {
                                "decimalAvailable": true,
                                "name": "",
                                "type": "uint256",
                                "value": "130,968,947,172,476,368,780"
                            }
                        ],
                        "signature": "balanceOf(address)"
                    },
                    "errorInfo": "",
                    "fromAddress": "0xc7823188d459e1744c0e5fd58a0e074e92982ea3",
                    "gasUsed": 1285,
                    "id": 7,
                    "methodDecoded": true,
                    "operation": "STATICCALL",
                    "output": "0x000000000000000000000000000000000000000000000007198f2b8cd65ab78c",
                    "revert": false,
                    "revertMessage": "",
                    "selector": "0x70a08231",
                    "status": true,
                    "value": "0"
                },
                "nodeType": 0
            },
            "8": {
                "invocation": {
                    "address": "0x3870d09f59564d8b86b052b1fb1e27b961f9bc73",
                    "callData": "0x000000000000000000000000000000000000000000000007198f2b8cd65ab78c0000000000000000000000000000000000000000000005f295f0c16938b45ef300000000000000000000000000000000000000000000008eea173307e7c653f5",
                    "decodedMethod": {
                        "callParams": [
                            {
                                "name": "amountIn",
                                "type": "uint256",
                                "value": "130,968,947,172,476,368,780"
                            },
                            {
                                "name": "reserveIn",
                                "type": "uint256",
                                "value": "28,086,748,828,349,666,451,187"
                            },
                            {
                                "name": "reserveOut",
                                "type": "uint256",
                                "value": "2,636,305,665,505,142,133,749"
                            }
                        ],
                        "constructorArguments": "",
                        "name": "getAmountOut",
                        "returnParams": [
                            {
                                "name": "amountOut",
                                "type": "uint256",
                                "value": "12,199,538,989,105,835,430"
                            }
                        ],
                        "signature": "getAmountOut(uint256,uint256,uint256)"
                    },
                    "errorInfo": "",
                    "fromAddress": "0xc7823188d459e1744c0e5fd58a0e074e92982ea3",
                    "gasUsed": 998,
                    "id": 8,
                    "methodDecoded": true,
                    "operation": "STATICCALL",
                    "output": "0x000000000000000000000000000000000000000000000000a94d78131d2e6da6",
                    "revert": false,
                    "revertMessage": "",
                    "selector": "0x054d50d4",
                    "status": true,
                    "value": "0"
                },
                "nodeType": 0
            },
            "9": {
                "invocation": {
                    "address": "0x9801da0aa142749295692c7cb3241e4ee2b80bda",
                    "callData": "0x000000000000000000000000c7823188d459e1744c0e5fd58a0e074e92982ea3",
                    "decodedMethod": {
                        "callParams": [
                            {
                                "name": "account",
                                "type": "address",
                                "value": "0xc7823188d459e1744c0e5fd58a0e074e92982ea3"
                            }
                        ],
                        "constructorArguments": "",
                        "name": "balanceOf",
                        "returnParams": [
                            {
                                "decimalAvailable": true,
                                "name": "",
                                "type": "uint256",
                                "value": "130,968,947,172,476,368,780"
                            }
                        ],
                        "signature": "balanceOf(address)"
                    },
                    "errorInfo": "",
                    "fromAddress": "0xc7823188d459e1744c0e5fd58a0e074e92982ea3",
                    "gasUsed": 1285,
                    "id": 9,
                    "methodDecoded": true,
                    "operation": "STATICCALL",
                    "output": "0x000000000000000000000000000000000000000000000007198f2b8cd65ab78c",
                    "revert": false,
                    "revertMessage": "",
                    "selector": "0x70a08231",
                    "status": true,
                    "value": "0"
                },
                "nodeType": 0
            }
        },
        "gasFlame": [
            {
                "children": [
                    {
                        "children": [
                            {
                                "children": [],
                                "depth": 0,
                                "name": "Initial Gas",
                                "value": 22168
                            },
                            {
                                "children": [
                                    {
                                        "children": [],
                                        "depth": 1,
                                        "name": "balanceOf",
                                        "value": 1285
                                    },
                                    {
                                        "children": [
                                            {
                                                "children": [],
                                                "depth": 2,
                                                "name": "transferFrom",
                                                "value": 2486
                                            },
                                            {
                                                "children": [],
                                                "depth": 2,
                                                "name": "transfer",
                                                "value": 33889
                                            }
                                        ],
                                        "depth": 1,
                                        "name": "0x4a75084c",
                                        "value": 39740
                                    },
                                    {
                                        "children": [],
                                        "depth": 1,
                                        "name": "getReserves",
                                        "value": 1217
                                    },
                                    {
                                        "children": [],
                                        "depth": 1,
                                        "name": "balanceOf",
                                        "value": 1285
                                    },
                                    {
                                        "children": [],
                                        "depth": 1,
                                        "name": "getAmountOut",
                                        "value": 998
                                    },
                                    {
                                        "children": [],
                                        "depth": 1,
                                        "name": "balanceOf",
                                        "value": 1285
                                    },
                                    {
                                        "children": [],
                                        "depth": 1,
                                        "name": "transfer",
                                        "value": 24582
                                    },
                                    {
                                        "children": [
                                            {
                                                "children": [],
                                                "depth": 2,
                                                "name": "transfer",
                                                "value": 29471
                                            },
                                            {
                                                "children": [],
                                                "depth": 2,
                                                "name": "balanceOf",
                                                "value": 1231
                                            },
                                            {
                                                "children": [],
                                                "depth": 2,
                                                "name": "balanceOf",
                                                "value": 1285
                                            }
                                        ],
                                        "depth": 1,
                                        "name": "swap",
                                        "value": 71449
                                    }
                                ],
                                "depth": 0,
                                "name": "Executed Gas",
                                "value": 157827
                            }
                        ],
                        "depth": -1,
                        "name": "Actual Gas Used",
                        "value": 141595
                    },
                    {
                        "children": [],
                        "depth": -1,
                        "name": "Refunded Gas",
                        "value": 38400
                    }
                ],
                "depth": -2,
                "name": "Total Gas",
                "value": 179995
            }
        ],
        "isConfirmed": true,
        "mainTrace": [
            {
                "children": [
                    {
                        "children": [
                            {
                                "children": [],
                                "depth": 1,
                                "id": 1,
                                "order": 1
                            },
                            {
                                "children": [
                                    {
                                        "children": [],
                                        "depth": 2,
                                        "id": 3,
                                        "order": 3
                                    },
                                    {
                                        "children": [
                                            {
                                                "children": [],
                                                "depth": 3,
                                                "id": 5,
                                                "order": 5
                                            }
                                        ],
                                        "depth": 2,
                                        "id": 4,
                                        "order": 4
                                    }
                                ],
                                "depth": 1,
                                "id": 2,
                                "order": 2
                            },
                            {
                                "children": [],
                                "depth": 1,
                                "id": 6,
                                "order": 6
                            },
                            {
                                "children": [],
                                "depth": 1,
                                "id": 7,
                                "order": 7
                            },
                            {
                                "children": [],
                                "depth": 1,
                                "id": 8,
                                "order": 8
                            },
                            {
                                "children": [],
                                "depth": 1,
                                "id": 9,
                                "order": 9
                            },
                            {
                                "children": [
                                    {
                                        "children": [],
                                        "depth": 2,
                                        "id": 11,
                                        "order": 11
                                    },
                                    {
                                        "children": [],
                                        "depth": 2,
                                        "id": 12,
                                        "order": 12
                                    }
                                ],
                                "depth": 1,
                                "id": 10,
                                "order": 10
                            },
                            {
                                "children": [
                                    {
                                        "children": [
                                            {
                                                "children": [],
                                                "depth": 3,
                                                "id": 15,
                                                "order": 15
                                            }
                                        ],
                                        "depth": 2,
                                        "id": 14,
                                        "order": 14
                                    },
                                    {
                                        "children": [],
                                        "depth": 2,
                                        "id": 16,
                                        "order": 16
                                    },
                                    {
                                        "children": [],
                                        "depth": 2,
                                        "id": 17,
                                        "order": 17
                                    },
                                    {
                                        "children": [],
                                        "depth": 2,
                                        "id": 18,
                                        "order": 18
                                    },
                                    {
                                        "children": [],
                                        "depth": 2,
                                        "id": 19,
                                        "order": 19
                                    }
                                ],
                                "depth": 1,
                                "id": 13,
                                "order": 13
                            }
                        ],
                        "depth": 0,
                        "id": 0,
                        "order": 0
                    }
                ],
                "depth": -1,
                "id": -1,
                "order": -1
            }
        ],
        "mainTraceNodeCount": 20,
        "parentIdMap": {
            "0": -1,
            "1": 0,
            "10": 0,
            "11": 10,
            "12": 10,
            "13": 0,
            "14": 13,
            "15": 14,
            "16": 13,
            "17": 13,
            "18": 13,
            "19": 13,
            "2": 0,
            "3": 2,
            "4": 2,
            "5": 4,
            "6": 0,
            "7": 0,
            "8": 0,
            "9": 0
        },
        "tidyTrace": [
            {
                "children": [
                    {
                        "children": [
                            {
                                "children": [
                                    {
                                        "children": [],
                                        "depth": 2,
                                        "id": 3,
                                        "order": 3
                                    },
                                    {
                                        "children": [
                                            {
                                                "children": [],
                                                "depth": 3,
                                                "id": 5,
                                                "order": 5
                                            }
                                        ],
                                        "depth": 2,
                                        "id": 4,
                                        "order": 4
                                    }
                                ],
                                "depth": 1,
                                "id": 2,
                                "order": 2
                            },
                            {
                                "children": [],
                                "depth": 1,
                                "id": 6,
                                "order": 6
                            },
                            {
                                "children": [
                                    {
                                        "children": [],
                                        "depth": 2,
                                        "id": 11,
                                        "order": 11
                                    },
                                    {
                                        "children": [],
                                        "depth": 2,
                                        "id": 12,
                                        "order": 12
                                    }
                                ],
                                "depth": 1,
                                "id": 10,
                                "order": 10
                            },
                            {
                                "children": [
                                    {
                                        "children": [
                                            {
                                                "children": [],
                                                "depth": 3,
                                                "id": 15,
                                                "order": 15
                                            }
                                        ],
                                        "depth": 2,
                                        "id": 14,
                                        "order": 14
                                    },
                                    {
                                        "children": [],
                                        "depth": 2,
                                        "id": 18,
                                        "order": 18
                                    },
                                    {
                                        "children": [],
                                        "depth": 2,
                                        "id": 19,
                                        "order": 19
                                    }
                                ],
                                "depth": 1,
                                "id": 13,
                                "order": 13
                            }
                        ],
                        "depth": 0,
                        "id": 0,
                        "order": 0
                    }
                ],
                "depth": -1,
                "id": -1,
                "order": -1
            }
        ],
        "tidyTraceNodeCount": 14
    },
    "state_change": {
        "stateChanges": [
            {
                "address": "0x2170ed0880ac9a755fd29b2688956bd959f933f8",
                "erc": "ERC-20",
                "slots": [
                    {
                        "current": "0x00000000000000000000000000000000000000000000008e414bc13456336e52",
                        "key": "0x465102fa2403a599c6af1951bda71c14890d7c83a21a891a8d89d13893cbaf0e",
                        "prev": "0x00000000000000000000000000000000000000000000008eea173307e7c653f5"
                    },
                    {
                        "current": "0x000000000000000000000000000000000000000000000000a8cb71d39192e5a3",
                        "key": "0xdf4cb62639d5a8e485b26be335292f053d6631eafdb8016f3160d62576d1fa78",
                        "prev": "0x0000000000000000000000000000000000000000000000000000000000000000"
                    }
                ],
                "storageVariables": [
                    {
                        "name": "_balances",
                        "type": "mapping(address => uint256)",
                        "value": {
                            "pairs": [
                                {
                                    "key": "0x2976bd3774622367ce7a575d28201480e640966f",
                                    "value": {
                                        "current": "2624142725133003615826",
                                        "prev": "2636305665505142133749",
                                        "typeTag": 1
                                    }
                                },
                                {
                                    "key": "0xc7823188d459e1744c0e5fd58a0e074e92982ea3",
                                    "value": {
                                        "current": "12162940372138517923",
                                        "prev": "0",
                                        "typeTag": 1
                                    }
                                }
                            ],
                            "typeTag": 4
                        }
                    }
                ]
            },
            {
                "address": "0x2976bd3774622367ce7a575d28201480e640966f",
                "erc": "",
                "slots": [
                    {
                        "current": "0x649b28fa0000000005f9aa0c0a454097850d00000000008e414bc13456336e52",
                        "key": "0x0000000000000000000000000000000000000000000000000000000000000008",
                        "prev": "0x649b25ff0000000005f295f0c16938b45ef300000000008eea173307e7c653f5"
                    },
                    {
                        "current": "0x00000000000000000000000000004c344c60c8d4708da3ea0451ab3044569cbb",
                        "key": "0x0000000000000000000000000000000000000000000000000000000000000009",
                        "prev": "0x00000000000000000000000000004c342c9fe9c990df46d5f028fc1387b3f616"
                    },
                    {
                        "current": "0x0000000000000000000000000000001481b3d70e35b41be59ea93f573e212dc4",
                        "key": "0x000000000000000000000000000000000000000000000000000000000000000a",
                        "prev": "0x00000000000000000000000000000014816c38fd41a829c2cd58592297fbe5a7"
                    }
                ],
                "storageVariables": []
            },
            {
                "address": "0x9801da0aa142749295692c7cb3241e4ee2b80bda",
                "erc": "ERC-20",
                "slots": [
                    {
                        "current": "0x0000000000000000000000000000000000000000000005f9aa0c0a454097850d",
                        "key": "0x1a9fc9ba937c7e2a816d7d51e118901e573464942706ca61b6dfb42174ec6f8a",
                        "prev": "0x0000000000000000000000000000000000000000000005f295f0c16938b45ef3"
                    },
                    {
                        "current": "0x0000000000000000000000000000000000000000000000279184dc57d6f99012",
                        "key": "0xee945f0e2fb1d7f1d33dcc8d81486d56039be14575ed7659beefe7e8403cd1e0",
                        "prev": "0x0000000000000000000000000000000000000000000000278c10f9a70881fea0"
                    },
                    {
                        "current": "0x0000000000000000000000000000000000000000000000000000000000000000",
                        "key": "0xbfed51d931384930564951f0ddb618160dd86349118ca6da96b13374f6f092f6",
                        "prev": "0x000000000000000000000000000000000000000000000007198f2b8cd65ab78c"
                    }
                ],
                "storageVariables": [
                    {
                        "name": "_balances",
                        "type": "mapping(address => uint256)",
                        "value": {
                            "pairs": [
                                {
                                    "key": "0x1f90bdeb5674833868ee9b36707b929024e7a513",
                                    "value": {
                                        "current": "0",
                                        "prev": "130968947172476368780",
                                        "typeTag": 1
                                    }
                                },
                                {
                                    "key": "0x2976bd3774622367ce7a575d28201480e640966f",
                                    "value": {
                                        "current": "28217324868680625390861",
                                        "prev": "28086748828349666451187",
                                        "typeTag": 1
                                    }
                                },
                                {
                                    "key": "0x9801da0aa142749295692c7cb3241e4ee2b80bda",
                                    "value": {
                                        "current": "729908766976924815378",
                                        "prev": "729515860135407386272",
                                        "typeTag": 1
                                    }
                                }
                            ],
                            "typeTag": 4
                        }
                    }
                ]
            }
        ]
    }
}