{
    "balance_change": {
        "balanceChanges": [
            {
                "account": "0x36fb87c3e65ec608d37e38bd556fb6ebdb3d8a39",
                "assets": [
                    {
                        "address": "0x55d398326f99059ff775485246999027b3197955",
                        "amount": "36,574.031608362256830655",
                        "iconUrl": "https://assets.blocksec.com/icon/810ebed5-1cb7-4a60-827d-c7eb0c438c0e.png",
                        "isERC1155": false,
                        "isERC721": false,
                        "sign": true,
                        "value": "36560.86496"
                    }
                ]
            },
            {
                "account": "0x3e1c5ddd39801c1e72e5ab7e19c614fd398747f8",
                "assets": [
                    {
                        "address": "0x523aa213fe806778ffa597b6409382fffcc12de2",
                        "amount": "7.009062065300537504",
                        "iconUrl": "",
                        "isERC1155": false,
                        "isERC721": false,
                        "sign": false,
                        "value": "0.00932379"
                    }
                ]
            },
            {
                "account": "0x000000000000000000000000000000000000dead",
                "assets": [
                    {
                        "address": "0x523aa213fe806778ffa597b6409382fffcc12de2",
                        "amount": "10,055.53146106732174257",
                        "iconUrl": "",
                        "isERC1155": false,
                        "isERC721": false,
                        "sign": true,
                        "value": "13.24899768"
                    }
                ]
            },
            {
                "account": "0x32f9188d6d86bf88dbac3ceee5958adf1aa609df",
                "assets": [
                    {
                        "address": "0x523aa213fe806778ffa597b6409382fffcc12de2",
                        "amount": "1,005,546.137044666873719593",
                        "iconUrl": "",
                        "isERC1155": false,
                        "isERC721": false,
                        "sign": false,
                        "value": "36674.64546"
                    }
                ]
            },
            {
                "account": "0x7367e49979e1b3e616976729bef602c3823bcacc",
                "assets": [
                    {
                        "address": "0x523aa213fe806778ffa597b6409382fffcc12de2",
                        "amount": "20,111.062922134643485141",
                        "iconUrl": "",
                        "isERC1155": false,
                        "isERC721": false,
                        "sign": true,
                        "value": "25.75501459"
                    }
                ]
            },
            {
                "account": "0xbb33668bae76a6394683deef645487e333b8fc45",
                "assets": [
                    {
                        "address": "0x55d398326f99059ff775485246999027b3197955",
                        "amount": "36,574.031608362256830655",
                        "iconUrl": "https://assets.blocksec.com/icon/810ebed5-1cb7-4a60-827d-c7eb0c438c0e.png",
                        "isERC1155": false,
                        "isERC721": false,
                        "sign": false,
                        "value": "36560.86496"
                    },
                    {
                        "address": "0x523aa213fe806778ffa597b6409382fffcc12de2",
                        "amount": "975,386.551723530209029386",
                        "iconUrl": "",
                        "isERC1155": false,
                        "isERC721": false,
                        "sign": true,
                        "value": "643.2084407"
                    }
                ]
            }
        ]
    },
    "profile": {
        "basic_info": {
            "baseFee": "0",
            "blockNumber": 38629401,
            "callData": "0xc5d4d8c90000000000000000000000000000000000000000000008102871d54018007b7e00000000000000000000000000000000000000000000000000000000000000000000000000000000000000000000000000000000000000000000000000000000000000000000000000000000000000000000000000000000000000000000008000000000000000000000000000000000000000000000000000000000000000011100000000000000000000000000000000000000000000000000000000000000",
            "debugEnable": true,
            "errorInfo": "",
            "eventCount": 17,
            "feeRecipient": "0x7b501c7944185130dd4ad73293e8aa84effdcee7",
            "formatValue": "0",
            "gasLimit": 1115341,
            "gasPrice": "3",
            "gasUsed": 1013097,
            "intTxnCount": 30,
            "internalRevert": false,
            "internalRevertMessage": "",
            "isContractCreation": false,
            "isFlashloan": true,
            "maxFee": "3",
            "nonce": 11,
            "overwritedBlockNumber": -1,
            "priorityFee": "3",
            "receiver": "0x3e1c5ddd39801c1e72e5ab7e19c614fd398747f8",
            "revertMessage": "",
            "sender": "0x36fb87c3e65ec608d37e38bd556fb6ebdb3d8a39",
            "simulationEnable": true,
            "sourceTxnHash": "0x12e8c24dec36a29fdd9b9d7a8b587b3abd2519089b6438c194e6e5eb357b68d8",
            "status": true,
            "timestamp": "2024-05-11T13:03:27Z",
            "transactionFee": "0.003039291",
            "txnHash": "0x12e8c24dec36a29fdd9b9d7a8b587b3abd2519089b6438c194e6e5eb357b68d8",
            "txnIndex": 35,
            "type": 2,
            "value": "0"
        },
        "fund_flow": [
            {
                "amount": "38,076.994113041657265022",
                "from": "0xbb33668bae76a6394683deef645487e333b8fc45",
                "id": 1,
                "isERC1155": false,
                "isERC721": false,
                "isReverted": false,
                "order": 1,
                "to": "0x867211c240e601994dbbf58ac47cb385a4ba84d8",
                "token": "0x55d398326f99059ff775485246999027b3197955"
            },
            {
                "amount": "1,005,546.137044666873719593",
                "from": "0x32f9188d6d86bf88dbac3ceee5958adf1aa609df",
                "id": 2,
                "isERC1155": false,
                "isERC721": false,
                "isReverted": false,
                "order": 2,
                "to": "0x3e1c5ddd39801c1e72e5ab7e19c614fd398747f8",
                "token": "0x523aa213fe806778ffa597b6409382fffcc12de2"
            },
            {
                "amount": "2,000",
                "from": "0x3e1c5ddd39801c1e72e5ab7e19c614fd398747f8",
                "id": 3,
                "isERC1155": false,
                "isERC721": false,
                "isReverted": false,
                "order": 3,
                "to": "0x867211c240e601994dbbf58ac47cb385a4ba84d8",
                "token": "0x523aa213fe806778ffa597b6409382fffcc12de2"
            },
            {
                "amount": "38,076.994113041657265022",
                "from": "0x867211c240e601994dbbf58ac47cb385a4ba84d8",
                "id": 4,
                "isERC1155": false,
                "isERC721": false,
                "isReverted": false,
                "order": 4,
                "to": "0xbb33668bae76a6394683deef645487e333b8fc45",
                "token": "0x55d398326f99059ff775485246999027b3197955"
            },
            {
                "amount": "20",
                "from": "0x867211c240e601994dbbf58ac47cb385a4ba84d8",
                "id": 5,
                "isERC1155": false,
                "isERC721": false,
                "isReverted": false,
                "order": 5,
                "to": "0x000000000000000000000000000000000000dead",
                "token": "0x523aa213fe806778ffa597b6409382fffcc12de2"
            },
            {
                "amount": "40",
                "from": "0x867211c240e601994dbbf58ac47cb385a4ba84d8",
                "id": 6,
                "isERC1155": false,
                "isERC721": false,
                "isReverted": false,
                "order": 6,
                "to": "0x7367e49979e1b3e616976729bef602c3823bcacc",
                "token": "0x523aa213fe806778ffa597b6409382fffcc12de2"
            },
            {
                "amount": "1,940",
                "from": "0x867211c240e601994dbbf58ac47cb385a4ba84d8",
                "id": 7,
                "isERC1155": false,
                "isERC721": false,
                "isReverted": false,
                "order": 7,
                "to": "0xbb33668bae76a6394683deef645487e333b8fc45",
                "token": "0x523aa213fe806778ffa597b6409382fffcc12de2"
            },
            {
                "amount": "10,035.53146106732174257",
                "from": "0x3e1c5ddd39801c1e72e5ab7e19c614fd398747f8",
                "id": 8,
                "isERC1155": false,
                "isERC721": false,
                "isReverted": false,
                "order": 8,
                "to": "0x000000000000000000000000000000000000dead",
                "token": "0x523aa213fe806778ffa597b6409382fffcc12de2"
            },
            {
                "amount": "20,071.062922134643485141",
                "from": "0x3e1c5ddd39801c1e72e5ab7e19c614fd398747f8",
                "id": 9,
                "isERC1155": false,
                "isERC721": false,
                "isReverted": false,
                "order": 9,
                "to": "0x7367e49979e1b3e616976729bef602c3823bcacc",
                "token": "0x523aa213fe806778ffa597b6409382fffcc12de2"
            },
            {
                "amount": "973,446.551723530209029386",
                "from": "0x3e1c5ddd39801c1e72e5ab7e19c614fd398747f8",
                "id": 10,
                "isERC1155": false,
                "isERC721": false,
                "isReverted": false,
                "order": 10,
                "to": "0xbb33668bae76a6394683deef645487e333b8fc45",
                "token": "0x523aa213fe806778ffa597b6409382fffcc12de2"
            },
            {
                "amount": "36,574.031608362256830655",
                "from": "0xbb33668bae76a6394683deef645487e333b8fc45",
                "id": 11,
                "isERC1155": false,
                "isERC721": false,
                "isReverted": false,
                "order": 11,
                "to": "0x3e1c5ddd39801c1e72e5ab7e19c614fd398747f8",
                "token": "0x55d398326f99059ff775485246999027b3197955"
            },
            {
                "amount": "36,574.031608362256830655",
                "from": "0x3e1c5ddd39801c1e72e5ab7e19c614fd398747f8",
                "id": 12,
                "isERC1155": false,
                "isERC721": false,
                "isReverted": false,
                "order": 12,
                "to": "0x36fb87c3e65ec608d37e38bd556fb6ebdb3d8a39",
                "token": "0x55d398326f99059ff775485246999027b3197955"
            }
        ],
        "token_infos": [
            {
                "address": "0xeeeeeeeeeeeeeeeeeeeeeeeeeeeeeeeeeeeeeeee",
                "decimals": 18
            },
            {
                "address": "0x523aa213fe806778ffa597b6409382fffcc12de2",
                "decimals": 18
            },
            {
                "address": "0x55d398326f99059ff775485246999027b3197955",
                "decimals": 18
            },
            {
                "address": "0xbb4cdb9cbd36b01bd1cbaebf2de08d9173bc095c",
                "decimals": 18
            }
        ]
    },
    "address_label": {
        "labels": [
            {
                "address": "0xeeeeeeeeeeeeeeeeeeeeeeeeeeeeeeeeeeeeeeee",
                "label": "BNB"
            },
            {
                "address": "0xbb33668bae76a6394683deef645487e333b8fc45",
                "label": "Cake-LP"
            },
            {
                "address": "0x0000000000000000000000000000000000000002",
                "label": "Precompiled"
            },
            {
                "address": "0x0000000000000000000000000000000000000003",
                "label": "Precompiled"
            },
            {
                "address": "0x10ed43c718714eb63d5aa57b78b54704e256024e",
                "label": "PancakeRouter"
            },
            {
                "address": "0x55d398326f99059ff775485246999027b3197955",
                "label": "BUSD-T Stablecoin"
            },
            {
                "address": "0x523aa213fe806778ffa597b6409382fffcc12de2",
                "label": "TGC"
            },
            {
                "address": "0x0000000000000000000000000000000000000001",
                "label": "Precompiled"
            },
            {
                "address": "0x0000000000000000000000000000000000000004",
                "label": "Precompiled"
            }
        ]
    },
    "trace": {
        "accountLabels": null,
        "dataMap": {
            "-1": {
                "invocation": {
                    "address": "0x36fb87c3e65ec608d37e38bd556fb6ebdb3d8a39",
                    "callData": "",
                    "decodedMethod": null,
                    "errorInfo": "",
                    "fromAddress": "",
                    "gasUsed": 0,
                    "id": -1,
                    "methodDecoded": false,
                    "operation": "",
                    "output": "",
                    "revert": false,
                    "revertMessage": "",
                    "selector": "",
                    "status": false,
                    "value": ""
                },
                "nodeType": 0
            },
            "0": {
                "invocation": {
                    "address": "0x3e1c5ddd39801c1e72e5ab7e19c614fd398747f8",
                    "callData": "0x0000000000000000000000000000000000000000000008102871d54018007b7e00000000000000000000000000000000000000000000000000000000000000000000000000000000000000000000000000000000000000000000000000000000000000000000000000000000000000000000000000000000000000000000008000000000000000000000000000000000000000000000000000000000000000011100000000000000000000000000000000000000000000000000000000000000",
                    "decodedMethod": null,
                    "errorInfo": "",
                    "fromAddress": "0x36fb87c3e65ec608d37e38bd556fb6ebdb3d8a39",
                    "gasUsed": 1013097,
                    "id": 0,
                    "methodDecoded": false,
                    "operation": "CALL",
                    "output": "",
                    "revert": false,
                    "revertMessage": "",
                    "selector": "0xc5d4d8c9",
                    "status": true,
                    "value": "0"
                },
                "nodeType": 0
            },
            "1": {
                "invocation": {
                    "address": "0x2e0705664e03b8bb50bc7f4a58bfca8698754096",
                    "callData": "0x0000000000000000000000000000000000000000000008102871d54018007b7e00000000000000000000000000000000000000000000000000000000000000000000000000000000000000000000000000000000000000000000000000000000000000000000000000000000000000000000000000000000000000000000008000000000000000000000000000000000000000000000000000000000000000011100000000000000000000000000000000000000000000000000000000000000",
                    "decodedMethod": null,
                    "errorInfo": "",
                    "fromAddress": "0x3e1c5ddd39801c1e72e5ab7e19c614fd398747f8",
                    "gasUsed": 1068358,
                    "id": 1,
                    "methodDecoded": false,
                    "operation": "DELEGATECALL",
                    "output": "",
                    "revert": false,
                    "revertMessage": "",
                    "selector": "0xc5d4d8c9",
                    "status": true,
                    "value": "0"
                },
                "nodeType": 0
            },
            "10": {
                "invocation": {
                    "address": "0x32f9188d6d86bf88dbac3ceee5958adf1aa609df",
                    "callData": "0x",
                    "decodedMethod": null,
                    "errorInfo": "",
                    "fromAddress": "0x3e1c5ddd39801c1e72e5ab7e19c614fd398747f8",
                    "gasUsed": 53464,
                    "id": 10,
                    "methodDecoded": false,
                    "operation": "CALL",
                    "output": "0x0000000000000000000000000000000000000000000000000000000000000001",
                    "revert": false,
                    "revertMessage": "",
                    "selector": "0xfd5a466f",
                    "status": true,
                    "value": "0"
                },
                "nodeType": 0
            },
            "11": {
                "invocation": {
                    "address": "0x55d398326f99059ff775485246999027b3197955",
                    "callData": "0x000000000000000000000000bb33668bae76a6394683deef645487e333b8fc45",
                    "decodedMethod": {
                        "callParams": [
                            {
                                "name": "account",
                                "type": "address",
                                "value": "0xbb33668bae76a6394683deef645487e333b8fc45"
                            }
                        ],
                        "constructorArguments": "",
                        "name": "balanceOf",
                        "returnParams": [
                            {
                                "decimalAvailable": true,
                                "name": "",
                                "type": "uint256",
                                "value": "3,808,080,219,326,098,337"
                            }
                        ],
                        "signature": "balanceOf(address)"
                    },
                    "errorInfo": "",
                    "fromAddress": "0x32f9188d6d86bf88dbac3ceee5958adf1aa609df",
                    "gasUsed": 531,
                    "id": 11,
                    "methodDecoded": true,
                    "operation": "STATICCALL",
                    "output": "0x00000000000000000000000000000000000000000000000034d904c88d1faba1",
                    "revert": false,
                    "revertMessage": "",
                    "selector": "0x70a08231",
                    "status": true,
                    "value": "0"
                },
                "nodeType": 0
            },
            "12": {
                "invocation": {
                    "address": "0x523aa213fe806778ffa597b6409382fffcc12de2",
                    "callData": "0x000000000000000000000000bb33668bae76a6394683deef645487e333b8fc45",
                    "decodedMethod": {
                        "callParams": [
                            {
                                "name": "account",
                                "type": "address",
                                "value": "0xbb33668bae76a6394683deef645487e333b8fc45"
                            }
                        ],
                        "constructorArguments": "",
                        "name": "balanceOf",
                        "returnParams": [
                            {
                                "decimalAvailable": true,
                                "name": "",
                                "type": "uint256",
                                "value": "38,063,621,810,134,850,539,992"
                            }
                        ],
                        "signature": "balanceOf(address)"
                    },
                    "errorInfo": "",
                    "fromAddress": "0x32f9188d6d86bf88dbac3ceee5958adf1aa609df",
                    "gasUsed": 2560,
                    "id": 12,
                    "methodDecoded": true,
                    "operation": "STATICCALL",
                    "output": "0x00000000000000000000000000000000000000000000080f6eddde9b2add11d8",
                    "revert": false,
                    "revertMessage": "",
                    "selector": "0x70a08231",
                    "status": true,
                    "value": "0"
                },
                "nodeType": 0
            },
            "13": {
                "invocation": {
                    "address": "0x523aa213fe806778ffa597b6409382fffcc12de2",
                    "callData": "0x0000000000000000000000003e1c5ddd39801c1e72e5ab7e19c614fd398747f800000000000000000000000000000000000000000000d4eec3ebbe5bfcc6ab29",
                    "decodedMethod": {
                        "callParams": [
                            {
                                "name": "to",
                                "type": "address",
                                "value": "0x3e1c5ddd39801c1e72e5ab7e19c614fd398747f8"
                            },
                            {
                                "decimalAvailable": true,
                                "name": "amount",
                                "type": "uint256",
                                "value": "1,005,546,137,044,666,873,719,593"
                            }
                        ],
                        "constructorArguments": "",
                        "name": "transfer",
                        "returnParams": [
                            {
                                "name": "",
                                "type": "bool",
                                "value": true
                            }
                        ],
                        "signature": "transfer(address,uint256)"
                    },
                    "errorInfo": "",
                    "fromAddress": "0x32f9188d6d86bf88dbac3ceee5958adf1aa609df",
                    "gasUsed": 19549,
                    "id": 13,
                    "methodDecoded": true,
                    "operation": "CALL",
                    "output": "0x0000000000000000000000000000000000000000000000000000000000000001",
                    "revert": false,
                    "revertMessage": "",
                    "selector": "0xa9059cbb",
                    "status": true,
                    "value": "0"
                },
                "nodeType": 0
            },
            "14": {
                "event": {
                    "contract": "0x523aa213fe806778ffa597b6409382fffcc12de2",
                    "decodedLog": {
                        "name": "Transfer",
                        "params": [
                            {
                                "name": "from",
                                "type": "address",
                                "value": "0x32f9188d6d86bf88dbac3ceee5958adf1aa609df"
                            },
                            {
                                "name": "to",
                                "type": "address",
                                "value": "0x3e1c5ddd39801c1e72e5ab7e19c614fd398747f8"
                            },
                            {
                                "decimalAvailable": true,
                                "name": "value",
                                "type": "uint256",
                                "value": "1,005,546,137,044,666,873,719,593"
                            }
                        ],
                        "signature": "Transfer(address,address,uint256)"
                    },
                    "id": 14,
                    "logData": "0x00000000000000000000000000000000000000000000d4eec3ebbe5bfcc6ab29",
                    "logDecoded": true,
                    "operation": "EVENT",
                    "revert": false,
                    "status": true,
                    "topics": [
                        "0xddf252ad1be2c89b69c2b068fc378daa952ba7f163c4a11628f55a4df523b3ef",
                        "0x00000000000000000000000032f9188d6d86bf88dbac3ceee5958adf1aa609df",
                        "0x0000000000000000000000003e1c5ddd39801c1e72e5ab7e19c614fd398747f8"
                    ]
                },
                "nodeType": 1
            },
            "15": {
                "event": {
                    "contract": "0x32f9188d6d86bf88dbac3ceee5958adf1aa609df",
                    "decodedLog": null,
                    "id": 15,
                    "logData": "0x0000000000000000000000003e1c5ddd39801c1e72e5ab7e19c614fd398747f8000000000000000000000000000000000000000000000005741afeff944c000000000000000000000000000000000000000000000000d4eec3ebbe5bfcc6ab2900000000000000000000000000000000000000000000000000000000663f6c9f",
                    "logDecoded": false,
                    "operation": "EVENT",
                    "revert": false,
                    "status": true,
                    "topics": [
                        "0x213164b3cbc3b44267b44314ff639c0f5aa1a4648e0f62220c646c843c94a92b"
                    ]
                },
                "nodeType": 1
            },
            "16": {
                "invocation": {
                    "address": "0x523aa213fe806778ffa597b6409382fffcc12de2",
                    "callData": "0x000000000000000000000000867211c240e601994dbbf58ac47cb385a4ba84d800000000000000000000000000000000000000000000006c6b935b8bbd400000",
                    "decodedMethod": {
                        "callParams": [
                            {
                                "name": "to",
                                "type": "address",
                                "value": "0x867211c240e601994dbbf58ac47cb385a4ba84d8"
                            },
                            {
                                "decimalAvailable": true,
                                "name": "amount",
                                "type": "uint256",
                                "value": "2,000,000,000,000,000,000,000"
                            }
                        ],
                        "constructorArguments": "",
                        "name": "transfer",
                        "returnParams": [
                            {
                                "name": "",
                                "type": "bool",
                                "value": true
                            }
                        ],
                        "signature": "transfer(address,uint256)"
                    },
                    "errorInfo": "",
                    "fromAddress": "0x3e1c5ddd39801c1e72e5ab7e19c614fd398747f8",
                    "gasUsed": 27849,
                    "id": 16,
                    "methodDecoded": true,
                    "operation": "CALL",
                    "output": "0x0000000000000000000000000000000000000000000000000000000000000001",
                    "revert": false,
                    "revertMessage": "",
                    "selector": "0xa9059cbb",
                    "status": true,
                    "value": "0"
                },
                "nodeType": 0
            },
            "17": {
                "event": {
                    "contract": "0x523aa213fe806778ffa597b6409382fffcc12de2",
                    "decodedLog": {
                        "name": "Transfer",
                        "params": [
                            {
                                "name": "from",
                                "type": "address",
                                "value": "0x3e1c5ddd39801c1e72e5ab7e19c614fd398747f8"
                            },
                            {
                                "name": "to",
                                "type": "address",
                                "value": "0x867211c240e601994dbbf58ac47cb385a4ba84d8"
                            },
                            {
                                "decimalAvailable": true,
                                "name": "value",
                                "type": "uint256",
                                "value": "2,000,000,000,000,000,000,000"
                            }
                        ],
                        "signature": "Transfer(address,address,uint256)"
                    },
                    "id": 17,
                    "logData": "0x00000000000000000000000000000000000000000000006c6b935b8bbd400000",
                    "logDecoded": true,
                    "operation": "EVENT",
                    "revert": false,
                    "status": true,
                    "topics": [
                        "0xddf252ad1be2c89b69c2b068fc378daa952ba7f163c4a11628f55a4df523b3ef",
                        "0x0000000000000000000000003e1c5ddd39801c1e72e5ab7e19c614fd398747f8",
                        "0x000000000000000000000000867211c240e601994dbbf58ac47cb385a4ba84d8"
                    ]
                },
                "nodeType": 1
            },
            "18": {
                "invocation": {
                    "address": "0x55d398326f99059ff775485246999027b3197955",
                    "callData": "0x000000000000000000000000bb33668bae76a6394683deef645487e333b8fc450000000000000000000000000000000000000000000008102871d54018007b7e",
                    "decodedMethod": {
                        "callParams": [
                            {
                                "name": "recipient",
                                "type": "address",
                                "value": "0xbb33668bae76a6394683deef645487e333b8fc45"
                            },
                            {
                                "decimalAvailable": true,
                                "name": "amount",
                                "type": "uint256",
                                "value": "38,076,994,113,041,657,265,022"
                            }
                        ],
                        "constructorArguments": "",
                        "name": "transfer",
                        "returnParams": [
                            {
                                "name": "",
                                "type": "bool",
                                "value": true
                            }
                        ],
                        "signature": "transfer(address,uint256)"
                    },
                    "errorInfo": "",
                    "fromAddress": "0x867211c240e601994dbbf58ac47cb385a4ba84d8",
                    "gasUsed": 3271,
                    "id": 18,
                    "methodDecoded": true,
                    "operation": "CALL",
                    "output": "0x0000000000000000000000000000000000000000000000000000000000000001",
                    "revert": false,
                    "revertMessage": "",
                    "selector": "0xa9059cbb",
                    "status": true,
                    "value": "0"
                },
                "nodeType": 0
            },
            "19": {
                "event": {
                    "contract": "0x55d398326f99059ff775485246999027b3197955",
                    "decodedLog": {
                        "name": "Transfer",
                        "params": [
                            {
                                "name": "from",
                                "type": "address",
                                "value": "0x867211c240e601994dbbf58ac47cb385a4ba84d8"
                            },
                            {
                                "name": "to",
                                "type": "address",
                                "value": "0xbb33668bae76a6394683deef645487e333b8fc45"
                            },
                            {
                                "decimalAvailable": true,
                                "name": "value",
                                "type": "uint256",
                                "value": "38,076,994,113,041,657,265,022"
                            }
                        ],
                        "signature": "Transfer(address,address,uint256)"
                    },
                    "id": 19,
                    "logData": "0x0000000000000000000000000000000000000000000008102871d54018007b7e",
                    "logDecoded": true,
                    "operation": "EVENT",
                    "revert": false,
                    "status": true,
                    "topics": [
                        "0xddf252ad1be2c89b69c2b068fc378daa952ba7f163c4a11628f55a4df523b3ef",
                        "0x000000000000000000000000867211c240e601994dbbf58ac47cb385a4ba84d8",
                        "0x000000000000000000000000bb33668bae76a6394683deef645487e333b8fc45"
                    ]
                },
                "nodeType": 1
            },
            "2": {
                "invocation": {
                    "address": "0x55d398326f99059ff775485246999027b3197955",
                    "callData": "0x000000000000000000000000bb33668bae76a6394683deef645487e333b8fc45",
                    "decodedMethod": {
                        "callParams": [
                            {
                                "name": "account",
                                "type": "address",
                                "value": "0xbb33668bae76a6394683deef645487e333b8fc45"
                            }
                        ],
                        "constructorArguments": "",
                        "name": "balanceOf",
                        "returnParams": [
                            {
                                "decimalAvailable": true,
                                "name": "",
                                "type": "uint256",
                                "value": "38,080,802,193,260,983,363,359"
                            }
                        ],
                        "signature": "balanceOf(address)"
                    },
                    "errorInfo": "",
                    "fromAddress": "0x3e1c5ddd39801c1e72e5ab7e19c614fd398747f8",
                    "gasUsed": 2531,
                    "id": 2,
                    "methodDecoded": true,
                    "operation": "STATICCALL",
                    "output": "0x0000000000000000000000000000000000000000000008105d4ada08a520271f",
                    "revert": false,
                    "revertMessage": "",
                    "selector": "0x70a08231",
                    "status": true,
                    "value": "0"
                },
                "nodeType": 0
            },
            "20": {
                "invocation": {
                    "address": "0x523aa213fe806778ffa597b6409382fffcc12de2",
                    "callData": "0x000000000000000000000000bb33668bae76a6394683deef645487e333b8fc4500000000000000000000000000000000000000000000006c6b935b8bbd400000",
                    "decodedMethod": {
                        "callParams": [
                            {
                                "name": "to",
                                "type": "address",
                                "value": "0xbb33668bae76a6394683deef645487e333b8fc45"
                            },
                            {
                                "decimalAvailable": true,
                                "name": "amount",
                                "type": "uint256",
                                "value": "2,000,000,000,000,000,000,000"
                            }
                        ],
                        "constructorArguments": "",
                        "name": "transfer",
                        "returnParams": [
                            {
                                "name": "",
                                "type": "bool",
                                "value": true
                            }
                        ],
                        "signature": "transfer(address,uint256)"
                    },
                    "errorInfo": "",
                    "fromAddress": "0x867211c240e601994dbbf58ac47cb385a4ba84d8",
                    "gasUsed": 29799,
                    "id": 20,
                    "methodDecoded": true,
                    "operation": "CALL",
                    "output": "0x0000000000000000000000000000000000000000000000000000000000000001",
                    "revert": false,
                    "revertMessage": "",
                    "selector": "0xa9059cbb",
                    "status": true,
                    "value": "0"
                },
                "nodeType": 0
            },
            "21": {
                "event": {
                    "contract": "0x523aa213fe806778ffa597b6409382fffcc12de2",
                    "decodedLog": {
                        "name": "Transfer",
                        "params": [
                            {
                                "name": "from",
                                "type": "address",
                                "value": "0x867211c240e601994dbbf58ac47cb385a4ba84d8"
                            },
                            {
                                "name": "to",
                                "type": "address",
                                "value": "0x000000000000000000000000000000000000dead"
                            },
                            {
                                "decimalAvailable": true,
                                "name": "value",
                                "type": "uint256",
                                "value": "20,000,000,000,000,000,000"
                            }
                        ],
                        "signature": "Transfer(address,address,uint256)"
                    },
                    "id": 21,
                    "logData": "0x000000000000000000000000000000000000000000000001158e460913d00000",
                    "logDecoded": true,
                    "operation": "EVENT",
                    "revert": false,
                    "status": true,
                    "topics": [
                        "0xddf252ad1be2c89b69c2b068fc378daa952ba7f163c4a11628f55a4df523b3ef",
                        "0x000000000000000000000000867211c240e601994dbbf58ac47cb385a4ba84d8",
                        "0x000000000000000000000000000000000000000000000000000000000000dead"
                    ]
                },
                "nodeType": 1
            },
            "22": {
                "event": {
                    "contract": "0x523aa213fe806778ffa597b6409382fffcc12de2",
                    "decodedLog": {
                        "name": "Transfer",
                        "params": [
                            {
                                "name": "from",
                                "type": "address",
                                "value": "0x867211c240e601994dbbf58ac47cb385a4ba84d8"
                            },
                            {
                                "name": "to",
                                "type": "address",
                                "value": "0x7367e49979e1b3e616976729bef602c3823bcacc"
                            },
                            {
                                "decimalAvailable": true,
                                "name": "value",
                                "type": "uint256",
                                "value": "40,000,000,000,000,000,000"
                            }
                        ],
                        "signature": "Transfer(address,address,uint256)"
                    },
                    "id": 22,
                    "logData": "0x0000000000000000000000000000000000000000000000022b1c8c1227a00000",
                    "logDecoded": true,
                    "operation": "EVENT",
                    "revert": false,
                    "status": true,
                    "topics": [
                        "0xddf252ad1be2c89b69c2b068fc378daa952ba7f163c4a11628f55a4df523b3ef",
                        "0x000000000000000000000000867211c240e601994dbbf58ac47cb385a4ba84d8",
                        "0x0000000000000000000000007367e49979e1b3e616976729bef602c3823bcacc"
                    ]
                },
                "nodeType": 1
            },
            "23": {
                "event": {
                    "contract": "0x523aa213fe806778ffa597b6409382fffcc12de2",
                    "decodedLog": {
                        "name": "Transfer",
                        "params": [
                            {
                                "name": "from",
                                "type": "address",
                                "value": "0x867211c240e601994dbbf58ac47cb385a4ba84d8"
                            },
                            {
                                "name": "to",
                                "type": "address",
                                "value": "0xbb33668bae76a6394683deef645487e333b8fc45"
                            },
                            {
                                "decimalAvailable": true,
                                "name": "value",
                                "type": "uint256",
                                "value": "1,940,000,000,000,000,000,000"
                            }
                        ],
                        "signature": "Transfer(address,address,uint256)"
                    },
                    "id": 23,
                    "logData": "0x0000000000000000000000000000000000000000000000692ae8897081d00000",
                    "logDecoded": true,
                    "operation": "EVENT",
                    "revert": false,
                    "status": true,
                    "topics": [
                        "0xddf252ad1be2c89b69c2b068fc378daa952ba7f163c4a11628f55a4df523b3ef",
                        "0x000000000000000000000000867211c240e601994dbbf58ac47cb385a4ba84d8",
                        "0x000000000000000000000000bb33668bae76a6394683deef645487e333b8fc45"
                    ]
                },
                "nodeType": 1
            },
            "24": {
                "invocation": {
                    "address": "0x523aa213fe806778ffa597b6409382fffcc12de2",
                    "callData": "0x000000000000000000000000bb33668bae76a6394683deef645487e333b8fc45",
                    "decodedMethod": {
                        "callParams": [
                            {
                                "name": "account",
                                "type": "address",
                                "value": "0xbb33668bae76a6394683deef645487e333b8fc45"
                            }
                        ],
                        "constructorArguments": "",
                        "name": "balanceOf",
                        "returnParams": [
                            {
                                "decimalAvailable": true,
                                "name": "",
                                "type": "uint256",
                                "value": "40,003,621,810,134,850,539,992"
                            }
                        ],
                        "signature": "balanceOf(address)"
                    },
                    "errorInfo": "",
                    "fromAddress": "0xbb33668bae76a6394683deef645487e333b8fc45",
                    "gasUsed": 560,
                    "id": 24,
                    "methodDecoded": true,
                    "operation": "STATICCALL",
                    "output": "0x00000000000000000000000000000000000000000000087899c6680bacad11d8",
                    "revert": false,
                    "revertMessage": "",
                    "selector": "0x70a08231",
                    "status": true,
                    "value": "0"
                },
                "nodeType": 0
            },
            "25": {
                "invocation": {
                    "address": "0x55d398326f99059ff775485246999027b3197955",
                    "callData": "0x000000000000000000000000bb33668bae76a6394683deef645487e333b8fc45",
                    "decodedMethod": {
                        "callParams": [
                            {
                                "name": "account",
                                "type": "address",
                                "value": "0xbb33668bae76a6394683deef645487e333b8fc45"
                            }
                        ],
                        "constructorArguments": "",
                        "name": "balanceOf",
                        "returnParams": [
                            {
                                "decimalAvailable": true,
                                "name": "",
                                "type": "uint256",
                                "value": "38,080,802,193,260,983,363,359"
                            }
                        ],
                        "signature": "balanceOf(address)"
                    },
                    "errorInfo": "",
                    "fromAddress": "0xbb33668bae76a6394683deef645487e333b8fc45",
                    "gasUsed": 531,
                    "id": 25,
                    "methodDecoded": true,
                    "operation": "STATICCALL",
                    "output": "0x0000000000000000000000000000000000000000000008105d4ada08a520271f",
                    "revert": false,
                    "revertMessage": "",
                    "selector": "0x70a08231",
                    "status": true,
                    "value": "0"
                },
                "nodeType": 0
            },
            "26": {
                "event": {
                    "contract": "0xbb33668bae76a6394683deef645487e333b8fc45",
                    "decodedLog": {
                        "name": "Sync",
                        "params": [
                            {
                                "name": "reserve0",
                                "type": "uint112",
                                "value": "40,003,621,810,134,850,539,992"
                            },
                            {
                                "name": "reserve1",
                                "type": "uint112",
                                "value": "38,080,802,193,260,983,363,359"
                            }
                        ],
                        "signature": "Sync(uint112,uint112)"
                    },
                    "id": 26,
                    "logData": "0x00000000000000000000000000000000000000000000087899c6680bacad11d80000000000000000000000000000000000000000000008105d4ada08a520271f",
                    "logDecoded": true,
                    "operation": "EVENT",
                    "revert": false,
                    "status": true,
                    "topics": [
                        "0x1c411e9a96e071241c2f21f7726b17ae89e3cab4c78be50e062b03a9fffbbad1"
                    ]
                },
                "nodeType": 1
            },
            "27": {
                "event": {
                    "contract": "0xbb33668bae76a6394683deef645487e333b8fc45",
                    "decodedLog": {
                        "name": "Swap",
                        "params": [
                            {
                                "name": "sender",
                                "type": "address",
                                "value": "0x3e1c5ddd39801c1e72e5ab7e19c614fd398747f8"
                            },
                            {
                                "name": "to",
                                "type": "address",
                                "value": "0x867211c240e601994dbbf58ac47cb385a4ba84d8"
                            },
                            {
                                "name": "amount0In",
                                "type": "uint256",
                                "value": "1,940,000,000,000,000,000,000"
                            },
                            {
                                "name": "amount1In",
                                "type": "uint256",
                                "value": "38,076,994,113,041,657,265,022"
                            },
                            {
                                "name": "amount0Out",
                                "type": "uint256",
                                "value": "0"
                            },
                            {
                                "name": "amount1Out",
                                "type": "uint256",
                                "value": "38,076,994,113,041,657,265,022"
                            }
                        ],
                        "signature": "Swap(address,uint256,uint256,uint256,uint256,address)"
                    },
                    "id": 27,
                    "logData": "0x0000000000000000000000000000000000000000000000692ae8897081d000000000000000000000000000000000000000000000000008102871d54018007b7e00000000000000000000000000000000000000000000000000000000000000000000000000000000000000000000000000000000000008102871d54018007b7e",
                    "logDecoded": true,
                    "operation": "EVENT",
                    "revert": false,
                    "status": true,
                    "topics": [
                        "0xd78ad95fa46c994b6551d0da85fc275fe613ce37657fb8d5e3d130840159d822",
                        "0x0000000000000000000000003e1c5ddd39801c1e72e5ab7e19c614fd398747f8",
                        "0x000000000000000000000000867211c240e601994dbbf58ac47cb385a4ba84d8"
                    ]
                },
                "nodeType": 1
            },
            "28": {
                "invocation": {
                    "address": "0x523aa213fe806778ffa597b6409382fffcc12de2",
                    "callData": "0x0000000000000000000000003e1c5ddd39801c1e72e5ab7e19c614fd398747f8",
                    "decodedMethod": {
                        "callParams": [
                            {
                                "name": "account",
                                "type": "address",
                                "value": "0x3e1c5ddd39801c1e72e5ab7e19c614fd398747f8"
                            }
                        ],
                        "constructorArguments": "",
                        "name": "balanceOf",
                        "returnParams": [
                            {
                                "decimalAvailable": true,
                                "name": "",
                                "type": "uint256",
                                "value": "1,003,553,146,106,732,174,257,097"
                            }
                        ],
                        "signature": "balanceOf(address)"
                    },
                    "errorInfo": "",
                    "fromAddress": "0x3e1c5ddd39801c1e72e5ab7e19c614fd398747f8",
                    "gasUsed": 560,
                    "id": 28,
                    "methodDecoded": true,
                    "operation": "STATICCALL",
                    "output": "0x00000000000000000000000000000000000000000000d482b99d93a0526e2bc9",
                    "revert": false,
                    "revertMessage": "",
                    "selector": "0x70a08231",
                    "status": true,
                    "value": "0"
                },
                "nodeType": 0
            },
            "29": {
                "invocation": {
                    "address": "0x10ed43c718714eb63d5aa57b78b54704e256024e",
                    "callData": "0x00000000000000000000000000000000000000000000d482b99d93a0526e2bc9000000000000000000000000000000000000000000000000000000000000000000000000000000000000000000000000000000000000000000000000000000a00000000000000000000000003e1c5ddd39801c1e72e5ab7e19c614fd398747f800000000000000000000000000000000000000000000000000000000663f6ca90000000000000000000000000000000000000000000000000000000000000002000000000000000000000000523aa213fe806778ffa597b6409382fffcc12de200000000000000000000000055d398326f99059ff775485246999027b3197955",
                    "decodedMethod": {
                        "callParams": [
                            {
                                "name": "amountIn",
                                "type": "uint256",
                                "value": "1,003,553,146,106,732,174,257,097"
                            },
                            {
                                "name": "amountOutMin",
                                "type": "uint256",
                                "value": "0"
                            },
                            {
                                "name": "path",
                                "type": "address[]",
                                "value": [
                                    "0x523aa213fe806778ffa597b6409382fffcc12de2",
                                    "0x55d398326f99059ff775485246999027b3197955"
                                ]
                            },
                            {
                                "name": "to",
                                "type": "address",
                                "value": "0x3e1c5ddd39801c1e72e5ab7e19c614fd398747f8"
                            },
                            {
                                "name": "deadline",
                                "type": "uint256",
                                "value": "1,715,432,617"
                            }
                        ],
                        "constructorArguments": "",
                        "name": "swapExactTokensForTokensSupportingFeeOnTransferTokens",
                        "returnParams": [],
                        "signature": "swapExactTokensForTokensSupportingFeeOnTransferTokens(uint256,uint256,address[],address,uint256)"
                    },
                    "errorInfo": "",
                    "fromAddress": "0x3e1c5ddd39801c1e72e5ab7e19c614fd398747f8",
                    "gasUsed": 66606,
                    "id": 29,
                    "methodDecoded": true,
                    "operation": "CALL",
                    "output": "",
                    "revert": false,
                    "revertMessage": "",
                    "selector": "0x5c11d795",
                    "status": true,
                    "value": "0"
                },
                "nodeType": 0
            },
            "3": {
                "invocation": {
                    "address": "0x867211c240e601994dbbf58ac47cb385a4ba84d8",
                    "callData": "0x60806040527398c74b8686eaa050d89cfc9757160ec1223ce0955f806101000a81548173ffffffffffffffffffffffffffffffffffffffff021916908373ffffffffffffffffffffffffffffffffffffffff1602179055507310ed43c718714eb63d5aa57b78b54704e256024e60025f6101000a81548173ffffffffffffffffffffffffffffffffffffffff021916908373ffffffffffffffffffffffffffffffffffffffff16021790555073bb4cdb9cbd36b01bd1cbaebf2de08d9173bc095c60035f6101000a81548173ffffffffffffffffffffffffffffffffffffffff021916908373ffffffffffffffffffffffffffffffffffffffff1602179055507332f9188d6d86bf88dbac3ceee5958adf1aa609df60055f6101000a81548173ffffffffffffffffffffffffffffffffffffffff021916908373ffffffffffffffffffffffffffffffffffffffff16021790555073523aa213fe806778ffa597b6409382fffcc12de260065f6101000a81548173ffffffffffffffffffffffffffffffffffffffff021916908373ffffffffffffffffffffffffffffffffffffffff16021790555073bb33668bae76a6394683deef645487e333b8fc4560075f6101000a81548173ffffffffffffffffffffffffffffffffffffffff021916908373ffffffffffffffffffffffffffffffffffffffff16021790555073e9e7cea3dedca5984780bafc599bd69add087d5660085f6101000a81548173ffffffffffffffffffffffffffffffffffffffff021916908373ffffffffffffffffffffffffffffffffffffffff1602179055507355d398326f99059ff775485246999027b319795560095f6101000a81548173ffffffffffffffffffffffffffffffffffffffff021916908373ffffffffffffffffffffffffffffffffffffffff16021790555073bb33668bae76a6394683deef645487e333b8fc45600a5f6101000a81548173ffffffffffffffffffffffffffffffffffffffff021916908373ffffffffffffffffffffffffffffffffffffffff160217905550600a5f9054906101000a900473ffffffffffffffffffffffffffffffffffffffff16600b5f6101000a81548173ffffffffffffffffffffffffffffffffffffffff021916908373ffffffffffffffffffffffffffffffffffffffff16021790555060025f9054906101000a900473ffffffffffffffffffffffffffffffffffffffff16600c5f6101000a81548173ffffffffffffffffffffffffffffffffffffffff021916908373ffffffffffffffffffffffffffffffffffffffff16021790555060035f9054906101000a900473ffffffffffffffffffffffffffffffffffffffff16600d5f6101000a81548173ffffffffffffffffffffffffffffffffffffffff021916908373ffffffffffffffffffffffffffffffffffffffff16021790555060065f9054906101000a900473ffffffffffffffffffffffffffffffffffffffff16600e5f6101000a81548173ffffffffffffffffffffffffffffffffffffffff021916908373ffffffffffffffffffffffffffffffffffffffff16021790555060095f9054906101000a900473ffffffffffffffffffffffffffffffffffffffff16600f5f6101000a81548173ffffffffffffffffffffffffffffffffffffffff021916908373ffffffffffffffffffffffffffffffffffffffff16021790555060075f9054906101000a900473ffffffffffffffffffffffffffffffffffffffff1660105f6101000a81548173ffffffffffffffffffffffffffffffffffffffff021916908373ffffffffffffffffffffffffffffffffffffffff16021790555060055f9054906101000a900473ffffffffffffffffffffffffffffffffffffffff1660115f6101000a81548173ffffffffffffffffffffffffffffffffffffffff021916908373ffffffffffffffffffffffffffffffffffffffff1602179055503480156105a9575f80fd5b50604051610d16380380610d1683398181016040528101906105cb91906106af565b815f806101000a81548173ffffffffffffffffffffffffffffffffffffffff021916908373ffffffffffffffffffffffffffffffffffffffff1602179055508060015f6101000a81548173ffffffffffffffffffffffffffffffffffffffff021916908373ffffffffffffffffffffffffffffffffffffffff16021790555050506106ed565b5f80fd5b5f73ffffffffffffffffffffffffffffffffffffffff82169050919050565b5f61067e82610655565b9050919050565b61068e81610674565b8114610698575f80fd5b50565b5f815190506106a981610685565b92915050565b5f80604083850312156106c5576106c4610651565b5b5f6106d28582860161069b565b92505060206106e38582860161069b565b9150509250929050565b61061c806106fa5f395ff3fe608060405234801561000f575f80fd5b5060043610610029575f3560e01c8063848008121461002d575b5f80fd5b61004760048036038101906100429190610400565b610049565b005b5f8054906101000a900473ffffffffffffffffffffffffffffffffffffffff1673ffffffffffffffffffffffffffffffffffffffff163273ffffffffffffffffffffffffffffffffffffffff1614806100ee575060015f9054906101000a900473ffffffffffffffffffffffffffffffffffffffff1673ffffffffffffffffffffffffffffffffffffffff163273ffffffffffffffffffffffffffffffffffffffff16145b6100f6575f80fd5b5f733e1c5ddd39801c1e72e5ab7e19c614fd398747f890505f686c6b935b8bbd40000090508173ffffffffffffffffffffffffffffffffffffffff1663c5d4d8c9825f806040518463ffffffff1660e01b815260040161015893929190610517565b5f604051808303815f87803b15801561016f575f80fd5b505af1158015610181573d5f803e3d5ffd5b50505050600f5f9054906101000a900473ffffffffffffffffffffffffffffffffffffffff1673ffffffffffffffffffffffffffffffffffffffff1663a9059cbb60075f9054906101000a900473ffffffffffffffffffffffffffffffffffffffff16876040518363ffffffff1660e01b815260040161020292919061055f565b6020604051808303815f875af115801561021e573d5f803e3d5ffd5b505050506040513d601f19601f8201168201806040525081019061024291906105bb565b50600e5f9054906101000a900473ffffffffffffffffffffffffffffffffffffffff1673ffffffffffffffffffffffffffffffffffffffff1663a9059cbb60075f9054906101000a900473ffffffffffffffffffffffffffffffffffffffff16836040518363ffffffff1660e01b81526004016102c092919061055f565b6020604051808303815f875af11580156102dc573d5f803e3d5ffd5b505050506040513d601f19601f8201168201806040525081019061030091906105bb565b5050505050505050565b5f80fd5b5f80fd5b5f73ffffffffffffffffffffffffffffffffffffffff82169050919050565b5f61033b82610312565b9050919050565b61034b81610331565b8114610355575f80fd5b50565b5f8135905061036681610342565b92915050565b5f819050919050565b61037e8161036c565b8114610388575f80fd5b50565b5f8135905061039981610375565b92915050565b5f80fd5b5f80fd5b5f80fd5b5f8083601f8401126103c0576103bf61039f565b5b8235905067ffffffffffffffff8111156103dd576103dc6103a3565b5b6020830191508360018202830111156103f9576103f86103a7565b5b9250929050565b5f805f805f608086880312156104195761041861030a565b5b5f61042688828901610358565b95505060206104378882890161038b565b94505060406104488882890161038b565b935050606086013567ffffffffffffffff8111156104695761046861030e565b5b610475888289016103ab565b92509250509295509295909350565b61048d8161036c565b82525050565b5f819050919050565b5f819050919050565b5f6104bf6104ba6104b584610493565b61049c565b61036c565b9050919050565b6104cf816104a5565b82525050565b6104de81610331565b82525050565b5f82825260208201905092915050565b50565b5f6105025f836104e4565b915061050d826104f4565b5f82019050919050565b5f60808201905061052a5f830186610484565b61053760208301856104c6565b61054460408301846104d5565b8181036060830152610555816104f7565b9050949350505050565b5f6040820190506105725f8301856104d5565b61057f6020830184610484565b9392505050565b5f8115159050919050565b61059a81610586565b81146105a4575f80fd5b50565b5f815190506105b581610591565b92915050565b5f602082840312156105d0576105cf61030a565b5b5f6105dd848285016105a7565b9150509291505056fea26469706673582212208b311aadbed6533ebaced4cd74e113695d411a9fa621b8f6d69038ea9fc1e6db64736f6c6343000814003300000000000000000000000036fb87c3e65ec608d37e38bd556fb6ebdb3d8a3900000000000000000000000036fb87c3e65ec608d37e38bd556fb6ebdb3d8a39",
                    "decodedMethod": null,
                    "errorInfo": "",
                    "fromAddress": "0x3e1c5ddd39801c1e72e5ab7e19c614fd398747f8",
                    "gasUsed": 691753,
                    "id": 3,
                    "methodDecoded": false,
                    "operation": "CREATE",
                    "output": "0x608060405234801561000f575f80fd5b5060043610610029575f3560e01c8063848008121461002d575b5f80fd5b61004760048036038101906100429190610400565b610049565b005b5f8054906101000a900473ffffffffffffffffffffffffffffffffffffffff1673ffffffffffffffffffffffffffffffffffffffff163273ffffffffffffffffffffffffffffffffffffffff1614806100ee575060015f9054906101000a900473ffffffffffffffffffffffffffffffffffffffff1673ffffffffffffffffffffffffffffffffffffffff163273ffffffffffffffffffffffffffffffffffffffff16145b6100f6575f80fd5b5f733e1c5ddd39801c1e72e5ab7e19c614fd398747f890505f686c6b935b8bbd40000090508173ffffffffffffffffffffffffffffffffffffffff1663c5d4d8c9825f806040518463ffffffff1660e01b815260040161015893929190610517565b5f604051808303815f87803b15801561016f575f80fd5b505af1158015610181573d5f803e3d5ffd5b50505050600f5f9054906101000a900473ffffffffffffffffffffffffffffffffffffffff1673ffffffffffffffffffffffffffffffffffffffff1663a9059cbb60075f9054906101000a900473ffffffffffffffffffffffffffffffffffffffff16876040518363ffffffff1660e01b815260040161020292919061055f565b6020604051808303815f875af115801561021e573d5f803e3d5ffd5b505050506040513d601f19601f8201168201806040525081019061024291906105bb565b50600e5f9054906101000a900473ffffffffffffffffffffffffffffffffffffffff1673ffffffffffffffffffffffffffffffffffffffff1663a9059cbb60075f9054906101000a900473ffffffffffffffffffffffffffffffffffffffff16836040518363ffffffff1660e01b81526004016102c092919061055f565b6020604051808303815f875af11580156102dc573d5f803e3d5ffd5b505050506040513d601f19601f8201168201806040525081019061030091906105bb565b5050505050505050565b5f80fd5b5f80fd5b5f73ffffffffffffffffffffffffffffffffffffffff82169050919050565b5f61033b82610312565b9050919050565b61034b81610331565b8114610355575f80fd5b50565b5f8135905061036681610342565b92915050565b5f819050919050565b61037e8161036c565b8114610388575f80fd5b50565b5f8135905061039981610375565b92915050565b5f80fd5b5f80fd5b5f80fd5b5f8083601f8401126103c0576103bf61039f565b5b8235905067ffffffffffffffff8111156103dd576103dc6103a3565b5b6020830191508360018202830111156103f9576103f86103a7565b5b9250929050565b5f805f805f608086880312156104195761041861030a565b5b5f61042688828901610358565b95505060206104378882890161038b565b94505060406104488882890161038b565b935050606086013567ffffffffffffffff8111156104695761046861030e565b5b610475888289016103ab565b92509250509295509295909350565b61048d8161036c565b82525050565b5f819050919050565b5f819050919050565b5f6104bf6104ba6104b584610493565b61049c565b61036c565b9050919050565b6104cf816104a5565b82525050565b6104de81610331565b82525050565b5f82825260208201905092915050565b50565b5f6105025f836104e4565b915061050d826104f4565b5f82019050919050565b5f60808201905061052a5f830186610484565b61053760208301856104c6565b61054460408301846104d5565b8181036060830152610555816104f7565b9050949350505050565b5f6040820190506105725f8301856104d5565b61057f6020830184610484565b9392505050565b5f8115159050919050565b61059a81610586565b81146105a4575f80fd5b50565b5f815190506105b581610591565b92915050565b5f602082840312156105d0576105cf61030a565b5b5f6105dd848285016105a7565b9150509291505056fea26469706673582212208b311aadbed6533ebaced4cd74e113695d411a9fa621b8f6d69038ea9fc1e6db64736f6c63430008140033",
                    "revert": false,
                    "revertMessage": "",
                    "selector": "",
                    "status": true,
                    "value": "0"
                },
                "nodeType": 0
            },
            "30": {
                "invocation": {
                    "address": "0x523aa213fe806778ffa597b6409382fffcc12de2",
                    "callData": "0x0000000000000000000000003e1c5ddd39801c1e72e5ab7e19c614fd398747f8000000000000000000000000bb33668bae76a6394683deef645487e333b8fc4500000000000000000000000000000000000000000000d482b99d93a0526e2bc9",
                    "decodedMethod": {
                        "callParams": [
                            {
                                "name": "from",
                                "type": "address",
                                "value": "0x3e1c5ddd39801c1e72e5ab7e19c614fd398747f8"
                            },
                            {
                                "name": "to",
                                "type": "address",
                                "value": "0xbb33668bae76a6394683deef645487e333b8fc45"
                            },
                            {
                                "decimalAvailable": true,
                                "name": "amount",
                                "type": "uint256",
                                "value": "1,003,553,146,106,732,174,257,097"
                            }
                        ],
                        "constructorArguments": "",
                        "name": "transferFrom",
                        "returnParams": [
                            {
                                "name": "",
                                "type": "bool",
                                "value": true
                            }
                        ],
                        "signature": "transferFrom(address,address,uint256)"
                    },
                    "errorInfo": "",
                    "fromAddress": "0x10ed43c718714eb63d5aa57b78b54704e256024e",
                    "gasUsed": 13859,
                    "id": 30,
                    "methodDecoded": true,
                    "operation": "CALL",
                    "output": "0x0000000000000000000000000000000000000000000000000000000000000001",
                    "revert": false,
                    "revertMessage": "",
                    "selector": "0x23b872dd",
                    "status": true,
                    "value": "0"
                },
                "nodeType": 0
            },
            "31": {
                "event": {
                    "contract": "0x523aa213fe806778ffa597b6409382fffcc12de2",
                    "decodedLog": {
                        "name": "Transfer",
                        "params": [
                            {
                                "name": "from",
                                "type": "address",
                                "value": "0x3e1c5ddd39801c1e72e5ab7e19c614fd398747f8"
                            },
                            {
                                "name": "to",
                                "type": "address",
                                "value": "0x000000000000000000000000000000000000dead"
                            },
                            {
                                "decimalAvailable": true,
                                "name": "value",
                                "type": "uint256",
                                "value": "10,035,531,461,067,321,742,570"
                            }
                        ],
                        "signature": "Transfer(address,address,uint256)"
                    },
                    "id": 31,
                    "logData": "0x00000000000000000000000000000000000000000000022006f9e550f69594ea",
                    "logDecoded": true,
                    "operation": "EVENT",
                    "revert": false,
                    "status": true,
                    "topics": [
                        "0xddf252ad1be2c89b69c2b068fc378daa952ba7f163c4a11628f55a4df523b3ef",
                        "0x0000000000000000000000003e1c5ddd39801c1e72e5ab7e19c614fd398747f8",
                        "0x000000000000000000000000000000000000000000000000000000000000dead"
                    ]
                },
                "nodeType": 1
            },
            "32": {
                "event": {
                    "contract": "0x523aa213fe806778ffa597b6409382fffcc12de2",
                    "decodedLog": {
                        "name": "Transfer",
                        "params": [
                            {
                                "name": "from",
                                "type": "address",
                                "value": "0x3e1c5ddd39801c1e72e5ab7e19c614fd398747f8"
                            },
                            {
                                "name": "to",
                                "type": "address",
                                "value": "0x7367e49979e1b3e616976729bef602c3823bcacc"
                            },
                            {
                                "decimalAvailable": true,
                                "name": "value",
                                "type": "uint256",
                                "value": "20,071,062,922,134,643,485,141"
                            }
                        ],
                        "signature": "Transfer(address,address,uint256)"
                    },
                    "id": 32,
                    "logData": "0x0000000000000000000000000000000000000000000004400df3caa1ed2b29d5",
                    "logDecoded": true,
                    "operation": "EVENT",
                    "revert": false,
                    "status": true,
                    "topics": [
                        "0xddf252ad1be2c89b69c2b068fc378daa952ba7f163c4a11628f55a4df523b3ef",
                        "0x0000000000000000000000003e1c5ddd39801c1e72e5ab7e19c614fd398747f8",
                        "0x0000000000000000000000007367e49979e1b3e616976729bef602c3823bcacc"
                    ]
                },
                "nodeType": 1
            },
            "33": {
                "event": {
                    "contract": "0x523aa213fe806778ffa597b6409382fffcc12de2",
                    "decodedLog": {
                        "name": "Transfer",
                        "params": [
                            {
                                "name": "from",
                                "type": "address",
                                "value": "0x3e1c5ddd39801c1e72e5ab7e19c614fd398747f8"
                            },
                            {
                                "name": "to",
                                "type": "address",
                                "value": "0xbb33668bae76a6394683deef645487e333b8fc45"
                            },
                            {
                                "decimalAvailable": true,
                                "name": "value",
                                "type": "uint256",
                                "value": "973,446,551,723,530,209,029,386"
                            }
                        ],
                        "signature": "Transfer(address,address,uint256)"
                    },
                    "id": 33,
                    "logData": "0x00000000000000000000000000000000000000000000ce22a4afe3ad6ead6d0a",
                    "logDecoded": true,
                    "operation": "EVENT",
                    "revert": false,
                    "status": true,
                    "topics": [
                        "0xddf252ad1be2c89b69c2b068fc378daa952ba7f163c4a11628f55a4df523b3ef",
                        "0x0000000000000000000000003e1c5ddd39801c1e72e5ab7e19c614fd398747f8",
                        "0x000000000000000000000000bb33668bae76a6394683deef645487e333b8fc45"
                    ]
                },
                "nodeType": 1
            },
            "34": {
                "invocation": {
                    "address": "0x55d398326f99059ff775485246999027b3197955",
                    "callData": "0x0000000000000000000000003e1c5ddd39801c1e72e5ab7e19c614fd398747f8",
                    "decodedMethod": {
                        "callParams": [
                            {
                                "name": "account",
                                "type": "address",
                                "value": "0x3e1c5ddd39801c1e72e5ab7e19c614fd398747f8"
                            }
                        ],
                        "constructorArguments": "",
                        "name": "balanceOf",
                        "returnParams": [
                            {
                                "decimalAvailable": true,
                                "name": "",
                                "type": "uint256",
                                "value": "0"
                            }
                        ],
                        "signature": "balanceOf(address)"
                    },
                    "errorInfo": "",
                    "fromAddress": "0x10ed43c718714eb63d5aa57b78b54704e256024e",
                    "gasUsed": 2531,
                    "id": 34,
                    "methodDecoded": true,
                    "operation": "STATICCALL",
                    "output": "0x0000000000000000000000000000000000000000000000000000000000000000",
                    "revert": false,
                    "revertMessage": "",
                    "selector": "0x70a08231",
                    "status": true,
                    "value": "0"
                },
                "nodeType": 0
            },
            "35": {
                "invocation": {
                    "address": "0xbb33668bae76a6394683deef645487e333b8fc45",
                    "callData": "0x",
                    "decodedMethod": {
                        "callParams": [],
                        "constructorArguments": "",
                        "name": "getReserves",
                        "returnParams": [
                            {
                                "name": "_reserve0",
                                "type": "uint112",
                                "value": "40,003,621,810,134,850,539,992"
                            },
                            {
                                "name": "_reserve1",
                                "type": "uint112",
                                "value": "38,080,802,193,260,983,363,359"
                            },
                            {
                                "name": "_blockTimestampLast",
                                "type": "uint32",
                                "value": "1,715,432,607"
                            }
                        ],
                        "signature": "getReserves()"
                    },
                    "errorInfo": "",
                    "fromAddress": "0x10ed43c718714eb63d5aa57b78b54704e256024e",
                    "gasUsed": 893,
                    "id": 35,
                    "methodDecoded": true,
                    "operation": "STATICCALL",
                    "output": "0x00000000000000000000000000000000000000000000087899c6680bacad11d80000000000000000000000000000000000000000000008105d4ada08a520271f00000000000000000000000000000000000000000000000000000000663f6c9f",
                    "revert": false,
                    "revertMessage": "",
                    "selector": "0x0902f1ac",
                    "status": true,
                    "value": "0"
                },
                "nodeType": 0
            },
            "36": {
                "invocation": {
                    "address": "0x523aa213fe806778ffa597b6409382fffcc12de2",
                    "callData": "0x000000000000000000000000bb33668bae76a6394683deef645487e333b8fc45",
                    "decodedMethod": {
                        "callParams": [
                            {
                                "name": "account",
                                "type": "address",
                                "value": "0xbb33668bae76a6394683deef645487e333b8fc45"
                            }
                        ],
                        "constructorArguments": "",
                        "name": "balanceOf",
                        "returnParams": [
                            {
                                "decimalAvailable": true,
                                "name": "",
                                "type": "uint256",
                                "value": "1,013,450,173,533,665,059,569,378"
                            }
                        ],
                        "signature": "balanceOf(address)"
                    },
                    "errorInfo": "",
                    "fromAddress": "0x10ed43c718714eb63d5aa57b78b54704e256024e",
                    "gasUsed": 560,
                    "id": 36,
                    "methodDecoded": true,
                    "operation": "STATICCALL",
                    "output": "0x00000000000000000000000000000000000000000000d69b3e764bb91b5a7ee2",
                    "revert": false,
                    "revertMessage": "",
                    "selector": "0x70a08231",
                    "status": true,
                    "value": "0"
                },
                "nodeType": 0
            },
            "37": {
                "invocation": {
                    "address": "0xbb33668bae76a6394683deef645487e333b8fc45",
                    "callData": "0x00000000000000000000000000000000000000000000000000000000000000000000000000000000000000000000000000000000000007beaea66247f4f810bf0000000000000000000000003e1c5ddd39801c1e72e5ab7e19c614fd398747f800000000000000000000000000000000000000000000000000000000000000800000000000000000000000000000000000000000000000000000000000000000",
                    "decodedMethod": {
                        "callParams": [
                            {
                                "name": "amount0Out",
                                "type": "uint256",
                                "value": "0"
                            },
                            {
                                "name": "amount1Out",
                                "type": "uint256",
                                "value": "36,574,031,608,362,256,830,655"
                            },
                            {
                                "name": "to",
                                "type": "address",
                                "value": "0x3e1c5ddd39801c1e72e5ab7e19c614fd398747f8"
                            },
                            {
                                "name": "data",
                                "type": "bytes",
                                "value": "0x"
                            }
                        ],
                        "constructorArguments": "",
                        "name": "swap",
                        "returnParams": [],
                        "signature": "swap(uint256,uint256,address,bytes)"
                    },
                    "errorInfo": "",
                    "fromAddress": "0x10ed43c718714eb63d5aa57b78b54704e256024e",
                    "gasUsed": 41090,
                    "id": 37,
                    "methodDecoded": true,
                    "operation": "CALL",
                    "output": "",
                    "revert": false,
                    "revertMessage": "",
                    "selector": "0x022c0d9f",
                    "status": true,
                    "value": "0"
                },
                "nodeType": 0
            },
            "38": {
                "invocation": {
                    "address": "0x55d398326f99059ff775485246999027b3197955",
                    "callData": "0x0000000000000000000000003e1c5ddd39801c1e72e5ab7e19c614fd398747f80000000000000000000000000000000000000000000007beaea66247f4f810bf",
                    "decodedMethod": {
                        "callParams": [
                            {
                                "name": "recipient",
                                "type": "address",
                                "value": "0x3e1c5ddd39801c1e72e5ab7e19c614fd398747f8"
                            },
                            {
                                "decimalAvailable": true,
                                "name": "amount",
                                "type": "uint256",
                                "value": "36,574,031,608,362,256,830,655"
                            }
                        ],
                        "constructorArguments": "",
                        "name": "transfer",
                        "returnParams": [
                            {
                                "name": "",
                                "type": "bool",
                                "value": true
                            }
                        ],
                        "signature": "transfer(address,uint256)"
                    },
                    "errorInfo": "",
                    "fromAddress": "0xbb33668bae76a6394683deef645487e333b8fc45",
                    "gasUsed": 25971,
                    "id": 38,
                    "methodDecoded": true,
                    "operation": "CALL",
                    "output": "0x0000000000000000000000000000000000000000000000000000000000000001",
                    "revert": false,
                    "revertMessage": "",
                    "selector": "0xa9059cbb",
                    "status": true,
                    "value": "0"
                },
                "nodeType": 0
            },
            "39": {
                "event": {
                    "contract": "0x55d398326f99059ff775485246999027b3197955",
                    "decodedLog": {
                        "name": "Transfer",
                        "params": [
                            {
                                "name": "from",
                                "type": "address",
                                "value": "0xbb33668bae76a6394683deef645487e333b8fc45"
                            },
                            {
                                "name": "to",
                                "type": "address",
                                "value": "0x3e1c5ddd39801c1e72e5ab7e19c614fd398747f8"
                            },
                            {
                                "decimalAvailable": true,
                                "name": "value",
                                "type": "uint256",
                                "value": "36,574,031,608,362,256,830,655"
                            }
                        ],
                        "signature": "Transfer(address,address,uint256)"
                    },
                    "id": 39,
                    "logData": "0x0000000000000000000000000000000000000000000007beaea66247f4f810bf",
                    "logDecoded": true,
                    "operation": "EVENT",
                    "revert": false,
                    "status": true,
                    "topics": [
                        "0xddf252ad1be2c89b69c2b068fc378daa952ba7f163c4a11628f55a4df523b3ef",
                        "0x000000000000000000000000bb33668bae76a6394683deef645487e333b8fc45",
                        "0x0000000000000000000000003e1c5ddd39801c1e72e5ab7e19c614fd398747f8"
                    ]
                },
                "nodeType": 1
            },
            "4": {
                "invocation": {
                    "address": "0xbb33668bae76a6394683deef645487e333b8fc45",
                    "callData": "0x00000000000000000000000000000000000000000000000000000000000000000000000000000000000000000000000000000000000008102871d54018007b7e000000000000000000000000867211c240e601994dbbf58ac47cb385a4ba84d8000000000000000000000000000000000000000000000000000000000000008000000000000000000000000000000000000000000000000000000000000000013100000000000000000000000000000000000000000000000000000000000000",
                    "decodedMethod": {
                        "callParams": [
                            {
                                "name": "amount0Out",
                                "type": "uint256",
                                "value": "0"
                            },
                            {
                                "name": "amount1Out",
                                "type": "uint256",
                                "value": "38,076,994,113,041,657,265,022"
                            },
                            {
                                "name": "to",
                                "type": "address",
                                "value": "0x867211c240e601994dbbf58ac47cb385a4ba84d8"
                            },
                            {
                                "name": "data",
                                "type": "bytes",
                                "value": "0x31"
                            }
                        ],
                        "constructorArguments": "",
                        "name": "swap",
                        "returnParams": [],
                        "signature": "swap(uint256,uint256,address,bytes)"
                    },
                    "errorInfo": "",
                    "fromAddress": "0x3e1c5ddd39801c1e72e5ab7e19c614fd398747f8",
                    "gasUsed": 191110,
                    "id": 4,
                    "methodDecoded": true,
                    "operation": "CALL",
                    "output": "",
                    "revert": false,
                    "revertMessage": "",
                    "selector": "0x022c0d9f",
                    "status": true,
                    "value": "0"
                },
                "nodeType": 0
            },
            "40": {
                "invocation": {
                    "address": "0x523aa213fe806778ffa597b6409382fffcc12de2",
                    "callData": "0x000000000000000000000000bb33668bae76a6394683deef645487e333b8fc45",
                    "decodedMethod": {
                        "callParams": [
                            {
                                "name": "account",
                                "type": "address",
                                "value": "0xbb33668bae76a6394683deef645487e333b8fc45"
                            }
                        ],
                        "constructorArguments": "",
                        "name": "balanceOf",
                        "returnParams": [
                            {
                                "decimalAvailable": true,
                                "name": "",
                                "type": "uint256",
                                "value": "1,013,450,173,533,665,059,569,378"
                            }
                        ],
                        "signature": "balanceOf(address)"
                    },
                    "errorInfo": "",
                    "fromAddress": "0xbb33668bae76a6394683deef645487e333b8fc45",
                    "gasUsed": 560,
                    "id": 40,
                    "methodDecoded": true,
                    "operation": "STATICCALL",
                    "output": "0x00000000000000000000000000000000000000000000d69b3e764bb91b5a7ee2",
                    "revert": false,
                    "revertMessage": "",
                    "selector": "0x70a08231",
                    "status": true,
                    "value": "0"
                },
                "nodeType": 0
            },
            "41": {
                "invocation": {
                    "address": "0x55d398326f99059ff775485246999027b3197955",
                    "callData": "0x000000000000000000000000bb33668bae76a6394683deef645487e333b8fc45",
                    "decodedMethod": {
                        "callParams": [
                            {
                                "name": "account",
                                "type": "address",
                                "value": "0xbb33668bae76a6394683deef645487e333b8fc45"
                            }
                        ],
                        "constructorArguments": "",
                        "name": "balanceOf",
                        "returnParams": [
                            {
                                "decimalAvailable": true,
                                "name": "",
                                "type": "uint256",
                                "value": "1,506,770,584,898,726,532,704"
                            }
                        ],
                        "signature": "balanceOf(address)"
                    },
                    "errorInfo": "",
                    "fromAddress": "0xbb33668bae76a6394683deef645487e333b8fc45",
                    "gasUsed": 531,
                    "id": 41,
                    "methodDecoded": true,
                    "operation": "STATICCALL",
                    "output": "0x000000000000000000000000000000000000000000000051aea477c0b0281660",
                    "revert": false,
                    "revertMessage": "",
                    "selector": "0x70a08231",
                    "status": true,
                    "value": "0"
                },
                "nodeType": 0
            },
            "42": {
                "event": {
                    "contract": "0xbb33668bae76a6394683deef645487e333b8fc45",
                    "decodedLog": {
                        "name": "Sync",
                        "params": [
                            {
                                "name": "reserve0",
                                "type": "uint112",
                                "value": "1,013,450,173,533,665,059,569,378"
                            },
                            {
                                "name": "reserve1",
                                "type": "uint112",
                                "value": "1,506,770,584,898,726,532,704"
                            }
                        ],
                        "signature": "Sync(uint112,uint112)"
                    },
                    "id": 42,
                    "logData": "0x00000000000000000000000000000000000000000000d69b3e764bb91b5a7ee2000000000000000000000000000000000000000000000051aea477c0b0281660",
                    "logDecoded": true,
                    "operation": "EVENT",
                    "revert": false,
                    "status": true,
                    "topics": [
                        "0x1c411e9a96e071241c2f21f7726b17ae89e3cab4c78be50e062b03a9fffbbad1"
                    ]
                },
                "nodeType": 1
            },
            "43": {
                "event": {
                    "contract": "0xbb33668bae76a6394683deef645487e333b8fc45",
                    "decodedLog": {
                        "name": "Swap",
                        "params": [
                            {
                                "name": "sender",
                                "type": "address",
                                "value": "0x10ed43c718714eb63d5aa57b78b54704e256024e"
                            },
                            {
                                "name": "to",
                                "type": "address",
                                "value": "0x3e1c5ddd39801c1e72e5ab7e19c614fd398747f8"
                            },
                            {
                                "name": "amount0In",
                                "type": "uint256",
                                "value": "973,446,551,723,530,209,029,386"
                            },
                            {
                                "name": "amount1In",
                                "type": "uint256",
                                "value": "0"
                            },
                            {
                                "name": "amount0Out",
                                "type": "uint256",
                                "value": "0"
                            },
                            {
                                "name": "amount1Out",
                                "type": "uint256",
                                "value": "36,574,031,608,362,256,830,655"
                            }
                        ],
                        "signature": "Swap(address,uint256,uint256,uint256,uint256,address)"
                    },
                    "id": 43,
                    "logData": "0x00000000000000000000000000000000000000000000ce22a4afe3ad6ead6d0a000000000000000000000000000000000000000000000000000000000000000000000000000000000000000000000000000000000000000000000000000000000000000000000000000000000000000000000000000007beaea66247f4f810bf",
                    "logDecoded": true,
                    "operation": "EVENT",
                    "revert": false,
                    "status": true,
                    "topics": [
                        "0xd78ad95fa46c994b6551d0da85fc275fe613ce37657fb8d5e3d130840159d822",
                        "0x00000000000000000000000010ed43c718714eb63d5aa57b78b54704e256024e",
                        "0x0000000000000000000000003e1c5ddd39801c1e72e5ab7e19c614fd398747f8"
                    ]
                },
                "nodeType": 1
            },
            "44": {
                "invocation": {
                    "address": "0x55d398326f99059ff775485246999027b3197955",
                    "callData": "0x0000000000000000000000003e1c5ddd39801c1e72e5ab7e19c614fd398747f8",
                    "decodedMethod": {
                        "callParams": [
                            {
                                "name": "account",
                                "type": "address",
                                "value": "0x3e1c5ddd39801c1e72e5ab7e19c614fd398747f8"
                            }
                        ],
                        "constructorArguments": "",
                        "name": "balanceOf",
                        "returnParams": [
                            {
                                "decimalAvailable": true,
                                "name": "",
                                "type": "uint256",
                                "value": "36,574,031,608,362,256,830,655"
                            }
                        ],
                        "signature": "balanceOf(address)"
                    },
                    "errorInfo": "",
                    "fromAddress": "0x10ed43c718714eb63d5aa57b78b54704e256024e",
                    "gasUsed": 531,
                    "id": 44,
                    "methodDecoded": true,
                    "operation": "STATICCALL",
                    "output": "0x0000000000000000000000000000000000000000000007beaea66247f4f810bf",
                    "revert": false,
                    "revertMessage": "",
                    "selector": "0x70a08231",
                    "status": true,
                    "value": "0"
                },
                "nodeType": 0
            },
            "45": {
                "invocation": {
                    "address": "0x55d398326f99059ff775485246999027b3197955",
                    "callData": "0x0000000000000000000000003e1c5ddd39801c1e72e5ab7e19c614fd398747f8",
                    "decodedMethod": {
                        "callParams": [
                            {
                                "name": "account",
                                "type": "address",
                                "value": "0x3e1c5ddd39801c1e72e5ab7e19c614fd398747f8"
                            }
                        ],
                        "constructorArguments": "",
                        "name": "balanceOf",
                        "returnParams": [
                            {
                                "decimalAvailable": true,
                                "name": "",
                                "type": "uint256",
                                "value": "36,574,031,608,362,256,830,655"
                            }
                        ],
                        "signature": "balanceOf(address)"
                    },
                    "errorInfo": "",
                    "fromAddress": "0x3e1c5ddd39801c1e72e5ab7e19c614fd398747f8",
                    "gasUsed": 531,
                    "id": 45,
                    "methodDecoded": true,
                    "operation": "STATICCALL",
                    "output": "0x0000000000000000000000000000000000000000000007beaea66247f4f810bf",
                    "revert": false,
                    "revertMessage": "",
                    "selector": "0x70a08231",
                    "status": true,
                    "value": "0"
                },
                "nodeType": 0
            },
            "46": {
                "invocation": {
                    "address": "0x55d398326f99059ff775485246999027b3197955",
                    "callData": "0x00000000000000000000000036fb87c3e65ec608d37e38bd556fb6ebdb3d8a390000000000000000000000000000000000000000000007beaea66247f4f810bf",
                    "decodedMethod": {
                        "callParams": [
                            {
                                "name": "recipient",
                                "type": "address",
                                "value": "0x36fb87c3e65ec608d37e38bd556fb6ebdb3d8a39"
                            },
                            {
                                "decimalAvailable": true,
                                "name": "amount",
                                "type": "uint256",
                                "value": "36,574,031,608,362,256,830,655"
                            }
                        ],
                        "constructorArguments": "",
                        "name": "transfer",
                        "returnParams": [
                            {
                                "name": "",
                                "type": "bool",
                                "value": true
                            }
                        ],
                        "signature": "transfer(address,uint256)"
                    },
                    "errorInfo": "",
                    "fromAddress": "0x3e1c5ddd39801c1e72e5ab7e19c614fd398747f8",
                    "gasUsed": 25171,
                    "id": 46,
                    "methodDecoded": true,
                    "operation": "CALL",
                    "output": "0x0000000000000000000000000000000000000000000000000000000000000001",
                    "revert": false,
                    "revertMessage": "",
                    "selector": "0xa9059cbb",
                    "status": true,
                    "value": "0"
                },
                "nodeType": 0
            },
            "47": {
                "event": {
                    "contract": "0x55d398326f99059ff775485246999027b3197955",
                    "decodedLog": {
                        "name": "Transfer",
                        "params": [
                            {
                                "name": "from",
                                "type": "address",
                                "value": "0x3e1c5ddd39801c1e72e5ab7e19c614fd398747f8"
                            },
                            {
                                "name": "to",
                                "type": "address",
                                "value": "0x36fb87c3e65ec608d37e38bd556fb6ebdb3d8a39"
                            },
                            {
                                "decimalAvailable": true,
                                "name": "value",
                                "type": "uint256",
                                "value": "36,574,031,608,362,256,830,655"
                            }
                        ],
                        "signature": "Transfer(address,address,uint256)"
                    },
                    "id": 47,
                    "logData": "0x0000000000000000000000000000000000000000000007beaea66247f4f810bf",
                    "logDecoded": true,
                    "operation": "EVENT",
                    "revert": false,
                    "status": true,
                    "topics": [
                        "0xddf252ad1be2c89b69c2b068fc378daa952ba7f163c4a11628f55a4df523b3ef",
                        "0x0000000000000000000000003e1c5ddd39801c1e72e5ab7e19c614fd398747f8",
                        "0x00000000000000000000000036fb87c3e65ec608d37e38bd556fb6ebdb3d8a39"
                    ]
                },
                "nodeType": 1
            },
            "5": {
                "invocation": {
                    "address": "0x55d398326f99059ff775485246999027b3197955",
                    "callData": "0x000000000000000000000000867211c240e601994dbbf58ac47cb385a4ba84d80000000000000000000000000000000000000000000008102871d54018007b7e",
                    "decodedMethod": {
                        "callParams": [
                            {
                                "name": "recipient",
                                "type": "address",
                                "value": "0x867211c240e601994dbbf58ac47cb385a4ba84d8"
                            },
                            {
                                "decimalAvailable": true,
                                "name": "amount",
                                "type": "uint256",
                                "value": "38,076,994,113,041,657,265,022"
                            }
                        ],
                        "constructorArguments": "",
                        "name": "transfer",
                        "returnParams": [
                            {
                                "name": "",
                                "type": "bool",
                                "value": true
                            }
                        ],
                        "signature": "transfer(address,uint256)"
                    },
                    "errorInfo": "",
                    "fromAddress": "0xbb33668bae76a6394683deef645487e333b8fc45",
                    "gasUsed": 27971,
                    "id": 5,
                    "methodDecoded": true,
                    "operation": "CALL",
                    "output": "0x0000000000000000000000000000000000000000000000000000000000000001",
                    "revert": false,
                    "revertMessage": "",
                    "selector": "0xa9059cbb",
                    "status": true,
                    "value": "0"
                },
                "nodeType": 0
            },
            "6": {
                "event": {
                    "contract": "0x55d398326f99059ff775485246999027b3197955",
                    "decodedLog": {
                        "name": "Transfer",
                        "params": [
                            {
                                "name": "from",
                                "type": "address",
                                "value": "0xbb33668bae76a6394683deef645487e333b8fc45"
                            },
                            {
                                "name": "to",
                                "type": "address",
                                "value": "0x867211c240e601994dbbf58ac47cb385a4ba84d8"
                            },
                            {
                                "decimalAvailable": true,
                                "name": "value",
                                "type": "uint256",
                                "value": "38,076,994,113,041,657,265,022"
                            }
                        ],
                        "signature": "Transfer(address,address,uint256)"
                    },
                    "id": 6,
                    "logData": "0x0000000000000000000000000000000000000000000008102871d54018007b7e",
                    "logDecoded": true,
                    "operation": "EVENT",
                    "revert": false,
                    "status": true,
                    "topics": [
                        "0xddf252ad1be2c89b69c2b068fc378daa952ba7f163c4a11628f55a4df523b3ef",
                        "0x000000000000000000000000bb33668bae76a6394683deef645487e333b8fc45",
                        "0x000000000000000000000000867211c240e601994dbbf58ac47cb385a4ba84d8"
                    ]
                },
                "nodeType": 1
            },
            "7": {
                "invocation": {
                    "address": "0x867211c240e601994dbbf58ac47cb385a4ba84d8",
                    "callData": "0x0000000000000000000000003e1c5ddd39801c1e72e5ab7e19c614fd398747f800000000000000000000000000000000000000000000000000000000000000000000000000000000000000000000000000000000000008102871d54018007b7e000000000000000000000000000000000000000000000000000000000000008000000000000000000000000000000000000000000000000000000000000000013100000000000000000000000000000000000000000000000000000000000000",
                    "decodedMethod": {
                        "callParams": [
                            {
                                "name": "_sender",
                                "type": "address",
                                "value": "0x3e1c5ddd39801c1e72e5ab7e19c614fd398747f8"
                            },
                            {
                                "name": "_amount0",
                                "type": "uint256",
                                "value": "0"
                            },
                            {
                                "name": "_amount1",
                                "type": "uint256",
                                "value": "38,076,994,113,041,657,265,022"
                            },
                            {
                                "name": "_data",
                                "type": "bytes",
                                "value": "0x31"
                            }
                        ],
                        "constructorArguments": "",
                        "name": "pancakeCall",
                        "returnParams": [],
                        "signature": "pancakeCall(address,uint256,uint256,bytes)"
                    },
                    "errorInfo": "",
                    "fromAddress": "0xbb33668bae76a6394683deef645487e333b8fc45",
                    "gasUsed": 126174,
                    "id": 7,
                    "methodDecoded": true,
                    "operation": "CALL",
                    "output": "",
                    "revert": false,
                    "revertMessage": "",
                    "selector": "0x84800812",
                    "status": true,
                    "value": "0"
                },
                "nodeType": 0
            },
            "8": {
                "invocation": {
                    "address": "0x3e1c5ddd39801c1e72e5ab7e19c614fd398747f8",
                    "callData": "0x00000000000000000000000000000000000000000000006c6b935b8bbd4000000000000000000000000000000000000000000000000000000000000000000000000000000000000000000000000000000000000000000000000000000000000000000000000000000000000000000000000000000000000000000000000000800000000000000000000000000000000000000000000000000000000000000000",
                    "decodedMethod": null,
                    "errorInfo": "",
                    "fromAddress": "0x867211c240e601994dbbf58ac47cb385a4ba84d8",
                    "gasUsed": 88712,
                    "id": 8,
                    "methodDecoded": false,
                    "operation": "CALL",
                    "output": "",
                    "revert": false,
                    "revertMessage": "",
                    "selector": "0xc5d4d8c9",
                    "status": true,
                    "value": "0"
                },
                "nodeType": 0
            },
            "9": {
                "invocation": {
                    "address": "0x2e0705664e03b8bb50bc7f4a58bfca8698754096",
                    "callData": "0x00000000000000000000000000000000000000000000006c6b935b8bbd4000000000000000000000000000000000000000000000000000000000000000000000000000000000000000000000000000000000000000000000000000000000000000000000000000000000000000000000000000000000000000000000000000800000000000000000000000000000000000000000000000000000000000000000",
                    "decodedMethod": null,
                    "errorInfo": "",
                    "fromAddress": "0x3e1c5ddd39801c1e72e5ab7e19c614fd398747f8",
                    "gasUsed": 86998,
                    "id": 9,
                    "methodDecoded": false,
                    "operation": "DELEGATECALL",
                    "output": "",
                    "revert": false,
                    "revertMessage": "",
                    "selector": "0xc5d4d8c9",
                    "status": true,
                    "value": "0"
                },
                "nodeType": 0
            }
        },
        "gasFlame": [
            {
                "children": [
                    {
                        "children": [
                            {
                                "children": [],
                                "depth": 0,
                                "name": "Initial Gas",
                                "value": 21976
                            },
                            {
                                "children": [
                                    {
                                        "children": [
                                            {
                                                "children": [],
                                                "depth": 2,
                                                "name": "balanceOf",
                                                "value": 2531
                                            },
                                            {
                                                "children": [],
                                                "depth": 2,
                                                "name": "contract creation",
                                                "value": 691753
                                            },
                                            {
                                                "children": [
                                                    {
                                                        "children": [],
                                                        "depth": 3,
                                                        "name": "transfer",
                                                        "value": 27971
                                                    },
                                                    {
                                                        "children": [
                                                            {
                                                                "children": [
                                                                    {
                                                                        "children": [
                                                                            {
                                                                                "children": [
                                                                                    {
                                                                                        "children": [],
                                                                                        "depth": 7,
                                                                                        "name": "balanceOf",
                                                                                        "value": 531
                                                                                    },
                                                                                    {
                                                                                        "children": [],
                                                                                        "depth": 7,
                                                                                        "name": "balanceOf",
                                                                                        "value": 2560
                                                                                    },
                                                                                    {
                                                                                        "children": [],
                                                                                        "depth": 7,
                                                                                        "name": "transfer",
                                                                                        "value": 19549
                                                                                    }
                                                                                ],
                                                                                "depth": 6,
                                                                                "name": "0xfd5a466f",
                                                                                "value": 53464
                                                                            },
                                                                            {
                                                                                "children": [],
                                                                                "depth": 6,
                                                                                "name": "transfer",
                                                                                "value": 27849
                                                                            }
                                                                        ],
                                                                        "depth": 5,
                                                                        "name": "0xc5d4d8c9",
                                                                        "value": 86998
                                                                    }
                                                                ],
                                                                "depth": 4,
                                                                "name": "0xc5d4d8c9",
                                                                "value": 88712
                                                            },
                                                            {
                                                                "children": [],
                                                                "depth": 4,
                                                                "name": "transfer",
                                                                "value": 3271
                                                            },
                                                            {
                                                                "children": [],
                                                                "depth": 4,
                                                                "name": "transfer",
                                                                "value": 29799
                                                            }
                                                        ],
                                                        "depth": 3,
                                                        "name": "pancakeCall",
                                                        "value": 126174
                                                    },
                                                    {
                                                        "children": [],
                                                        "depth": 3,
                                                        "name": "balanceOf",
                                                        "value": 560
                                                    },
                                                    {
                                                        "children": [],
                                                        "depth": 3,
                                                        "name": "balanceOf",
                                                        "value": 531
                                                    }
                                                ],
                                                "depth": 2,
                                                "name": "swap",
                                                "value": 191110
                                            },
                                            {
                                                "children": [],
                                                "depth": 2,
                                                "name": "balanceOf",
                                                "value": 560
                                            },
                                            {
                                                "children": [
                                                    {
                                                        "children": [],
                                                        "depth": 3,
                                                        "name": "transferFrom",
                                                        "value": 13859
                                                    },
                                                    {
                                                        "children": [],
                                                        "depth": 3,
                                                        "name": "balanceOf",
                                                        "value": 2531
                                                    },
                                                    {
                                                        "children": [],
                                                        "depth": 3,
                                                        "name": "getReserves",
                                                        "value": 893
                                                    },
                                                    {
                                                        "children": [],
                                                        "depth": 3,
                                                        "name": "balanceOf",
                                                        "value": 560
                                                    },
                                                    {
                                                        "children": [
                                                            {
                                                                "children": [],
                                                                "depth": 4,
                                                                "name": "transfer",
                                                                "value": 25971
                                                            },
                                                            {
                                                                "children": [],
                                                                "depth": 4,
                                                                "name": "balanceOf",
                                                                "value": 560
                                                            },
                                                            {
                                                                "children": [],
                                                                "depth": 4,
                                                                "name": "balanceOf",
                                                                "value": 531
                                                            }
                                                        ],
                                                        "depth": 3,
                                                        "name": "swap",
                                                        "value": 41090
                                                    },
                                                    {
                                                        "children": [],
                                                        "depth": 3,
                                                        "name": "balanceOf",
                                                        "value": 531
                                                    }
                                                ],
                                                "depth": 2,
                                                "name": "swapExactTokensForTokensSupportingFeeOnTransferTokens",
                                                "value": 66606
                                            },
                                            {
                                                "children": [],
                                                "depth": 2,
                                                "name": "balanceOf",
                                                "value": 531
                                            },
                                            {
                                                "children": [],
                                                "depth": 2,
                                                "name": "transfer",
                                                "value": 25171
                                            }
                                        ],
                                        "depth": 1,
                                        "name": "0xc5d4d8c9",
                                        "value": 1068358
                                    }
                                ],
                                "depth": 0,
                                "name": "Executed Gas",
                                "value": 1076421
                            }
                        ],
                        "depth": -1,
                        "name": "Actual Gas Used",
                        "value": 1013097
                    },
                    {
                        "children": [],
                        "depth": -1,
                        "name": "Refunded Gas",
                        "value": 85300
                    }
                ],
                "depth": -2,
                "name": "Total Gas",
                "value": 1098397
            }
        ],
        "isConfirmed": true,
        "mainTrace": [
            {
                "children": [
                    {
                        "children": [
                            {
                                "children": [
                                    {
                                        "children": [],
                                        "depth": 2,
                                        "id": 2,
                                        "order": 2
                                    },
                                    {
                                        "children": [],
                                        "depth": 2,
                                        "id": 3,
                                        "order": 3
                                    },
                                    {
                                        "children": [
                                            {
                                                "children": [
                                                    {
                                                        "children": [],
                                                        "depth": 4,
                                                        "id": 6,
                                                        "order": 6
                                                    }
                                                ],
                                                "depth": 3,
                                                "id": 5,
                                                "order": 5
                                            },
                                            {
                                                "children": [
                                                    {
                                                        "children": [
                                                            {
                                                                "children": [
                                                                    {
                                                                        "children": [
                                                                            {
                                                                                "children": [],
                                                                                "depth": 7,
                                                                                "id": 11,
                                                                                "order": 11
                                                                            },
                                                                            {
                                                                                "children": [],
                                                                                "depth": 7,
                                                                                "id": 12,
                                                                                "order": 12
                                                                            },
                                                                            {
                                                                                "children": [
                                                                                    {
                                                                                        "children": [],
                                                                                        "depth": 8,
                                                                                        "id": 14,
                                                                                        "order": 14
                                                                                    }
                                                                                ],
                                                                                "depth": 7,
                                                                                "id": 13,
                                                                                "order": 13
                                                                            },
                                                                            {
                                                                                "children": [],
                                                                                "depth": 7,
                                                                                "id": 15,
                                                                                "order": 15
                                                                            }
                                                                        ],
                                                                        "depth": 6,
                                                                        "id": 10,
                                                                        "order": 10
                                                                    },
                                                                    {
                                                                        "children": [
                                                                            {
                                                                                "children": [],
                                                                                "depth": 7,
                                                                                "id": 17,
                                                                                "order": 17
                                                                            }
                                                                        ],
                                                                        "depth": 6,
                                                                        "id": 16,
                                                                        "order": 16
                                                                    }
                                                                ],
                                                                "depth": 5,
                                                                "id": 9,
                                                                "order": 9
                                                            }
                                                        ],
                                                        "depth": 4,
                                                        "id": 8,
                                                        "order": 8
                                                    },
                                                    {
                                                        "children": [
                                                            {
                                                                "children": [],
                                                                "depth": 5,
                                                                "id": 19,
                                                                "order": 19
                                                            }
                                                        ],
                                                        "depth": 4,
                                                        "id": 18,
                                                        "order": 18
                                                    },
                                                    {
                                                        "children": [
                                                            {
                                                                "children": [],
                                                                "depth": 5,
                                                                "id": 21,
                                                                "order": 21
                                                            },
                                                            {
                                                                "children": [],
                                                                "depth": 5,
                                                                "id": 22,
                                                                "order": 22
                                                            },
                                                            {
                                                                "children": [],
                                                                "depth": 5,
                                                                "id": 23,
                                                                "order": 23
                                                            }
                                                        ],
                                                        "depth": 4,
                                                        "id": 20,
                                                        "order": 20
                                                    }
                                                ],
                                                "depth": 3,
                                                "id": 7,
                                                "order": 7
                                            },
                                            {
                                                "children": [],
                                                "depth": 3,
                                                "id": 24,
                                                "order": 24
                                            },
                                            {
                                                "children": [],
                                                "depth": 3,
                                                "id": 25,
                                                "order": 25
                                            },
                                            {
                                                "children": [],
                                                "depth": 3,
                                                "id": 26,
                                                "order": 26
                                            },
                                            {
                                                "children": [],
                                                "depth": 3,
                                                "id": 27,
                                                "order": 27
                                            }
                                        ],
                                        "depth": 2,
                                        "id": 4,
                                        "order": 4
                                    },
                                    {
                                        "children": [],
                                        "depth": 2,
                                        "id": 28,
                                        "order": 28
                                    },
                                    {
                                        "children": [
                                            {
                                                "children": [
                                                    {
                                                        "children": [],
                                                        "depth": 4,
                                                        "id": 31,
                                                        "order": 31
                                                    },
                                                    {
                                                        "children": [],
                                                        "depth": 4,
                                                        "id": 32,
                                                        "order": 32
                                                    },
                                                    {
                                                        "children": [],
                                                        "depth": 4,
                                                        "id": 33,
                                                        "order": 33
                                                    }
                                                ],
                                                "depth": 3,
                                                "id": 30,
                                                "order": 30
                                            },
                                            {
                                                "children": [],
                                                "depth": 3,
                                                "id": 34,
                                                "order": 34
                                            },
                                            {
                                                "children": [],
                                                "depth": 3,
                                                "id": 35,
                                                "order": 35
                                            },
                                            {
                                                "children": [],
                                                "depth": 3,
                                                "id": 36,
                                                "order": 36
                                            },
                                            {
                                                "children": [
                                                    {
                                                        "children": [
                                                            {
                                                                "children": [],
                                                                "depth": 5,
                                                                "id": 39,
                                                                "order": 39
                                                            }
                                                        ],
                                                        "depth": 4,
                                                        "id": 38,
                                                        "order": 38
                                                    },
                                                    {
                                                        "children": [],
                                                        "depth": 4,
                                                        "id": 40,
                                                        "order": 40
                                                    },
                                                    {
                                                        "children": [],
                                                        "depth": 4,
                                                        "id": 41,
                                                        "order": 41
                                                    },
                                                    {
                                                        "children": [],
                                                        "depth": 4,
                                                        "id": 42,
                                                        "order": 42
                                                    },
                                                    {
                                                        "children": [],
                                                        "depth": 4,
                                                        "id": 43,
                                                        "order": 43
                                                    }
                                                ],
                                                "depth": 3,
                                                "id": 37,
                                                "order": 37
                                            },
                                            {
                                                "children": [],
                                                "depth": 3,
                                                "id": 44,
                                                "order": 44
                                            }
                                        ],
                                        "depth": 2,
                                        "id": 29,
                                        "order": 29
                                    },
                                    {
                                        "children": [],
                                        "depth": 2,
                                        "id": 45,
                                        "order": 45
                                    },
                                    {
                                        "children": [
                                            {
                                                "children": [],
                                                "depth": 3,
                                                "id": 47,
                                                "order": 47
                                            }
                                        ],
                                        "depth": 2,
                                        "id": 46,
                                        "order": 46
                                    }
                                ],
                                "depth": 1,
                                "id": 1,
                                "order": 1
                            }
                        ],
                        "depth": 0,
                        "id": 0,
                        "order": 0
                    }
                ],
                "depth": -1,
                "id": -1,
                "order": -1
            }
        ],
        "mainTraceNodeCount": 48,
        "parentIdMap": {
            "0": -1,
            "1": 0,
            "10": 9,
            "11": 10,
            "12": 10,
            "13": 10,
            "14": 13,
            "15": 10,
            "16": 9,
            "17": 16,
            "18": 7,
            "19": 18,
            "2": 1,
            "20": 7,
            "21": 20,
            "22": 20,
            "23": 20,
            "24": 4,
            "25": 4,
            "26": 4,
            "27": 4,
            "28": 1,
            "29": 1,
            "3": 1,
            "30": 29,
            "31": 30,
            "32": 30,
            "33": 30,
            "34": 29,
            "35": 29,
            "36": 29,
            "37": 29,
            "38": 37,
            "39": 38,
            "4": 1,
            "40": 37,
            "41": 37,
            "42": 37,
            "43": 37,
            "44": 29,
            "45": 1,
            "46": 1,
            "47": 46,
            "5": 4,
            "6": 5,
            "7": 4,
            "8": 7,
            "9": 8
        },
        "tidyTrace": [
            {
                "children": [
                    {
                        "children": [
                            {
                                "children": [
                                    {
                                        "children": [],
                                        "depth": 2,
                                        "id": 3,
                                        "order": 3
                                    },
                                    {
                                        "children": [
                                            {
                                                "children": [
                                                    {
                                                        "children": [],
                                                        "depth": 4,
                                                        "id": 6,
                                                        "order": 6
                                                    }
                                                ],
                                                "depth": 3,
                                                "id": 5,
                                                "order": 5
                                            },
                                            {
                                                "children": [
                                                    {
                                                        "children": [
                                                            {
                                                                "children": [
                                                                    {
                                                                        "children": [
                                                                            {
                                                                                "children": [
                                                                                    {
                                                                                        "children": [],
                                                                                        "depth": 8,
                                                                                        "id": 14,
                                                                                        "order": 14
                                                                                    }
                                                                                ],
                                                                                "depth": 7,
                                                                                "id": 13,
                                                                                "order": 13
                                                                            },
                                                                            {
                                                                                "children": [],
                                                                                "depth": 7,
                                                                                "id": 15,
                                                                                "order": 15
                                                                            }
                                                                        ],
                                                                        "depth": 6,
                                                                        "id": 10,
                                                                        "order": 10
                                                                    },
                                                                    {
                                                                        "children": [
                                                                            {
                                                                                "children": [],
                                                                                "depth": 7,
                                                                                "id": 17,
                                                                                "order": 17
                                                                            }
                                                                        ],
                                                                        "depth": 6,
                                                                        "id": 16,
                                                                        "order": 16
                                                                    }
                                                                ],
                                                                "depth": 5,
                                                                "id": 9,
                                                                "order": 9
                                                            }
                                                        ],
                                                        "depth": 4,
                                                        "id": 8,
                                                        "order": 8
                                                    },
                                                    {
                                                        "children": [
                                                            {
                                                                "children": [],
                                                                "depth": 5,
                                                                "id": 19,
                                                                "order": 19
                                                            }
                                                        ],
                                                        "depth": 4,
                                                        "id": 18,
                                                        "order": 18
                                                    },
                                                    {
                                                        "children": [
                                                            {
                                                                "children": [],
                                                                "depth": 5,
                                                                "id": 21,
                                                                "order": 21
                                                            },
                                                            {
                                                                "children": [],
                                                                "depth": 5,
                                                                "id": 22,
                                                                "order": 22
                                                            },
                                                            {
                                                                "children": [],
                                                                "depth": 5,
                                                                "id": 23,
                                                                "order": 23
                                                            }
                                                        ],
                                                        "depth": 4,
                                                        "id": 20,
                                                        "order": 20
                                                    }
                                                ],
                                                "depth": 3,
                                                "id": 7,
                                                "order": 7
                                            },
                                            {
                                                "children": [],
                                                "depth": 3,
                                                "id": 26,
                                                "order": 26
                                            },
                                            {
                                                "children": [],
                                                "depth": 3,
                                                "id": 27,
                                                "order": 27
                                            }
                                        ],
                                        "depth": 2,
                                        "id": 4,
                                        "order": 4
                                    },
                                    {
                                        "children": [
                                            {
                                                "children": [
                                                    {
                                                        "children": [],
                                                        "depth": 4,
                                                        "id": 31,
                                                        "order": 31
                                                    },
                                                    {
                                                        "children": [],
                                                        "depth": 4,
                                                        "id": 32,
                                                        "order": 32
                                                    },
                                                    {
                                                        "children": [],
                                                        "depth": 4,
                                                        "id": 33,
                                                        "order": 33
                                                    }
                                                ],
                                                "depth": 3,
                                                "id": 30,
                                                "order": 30
                                            },
                                            {
                                                "children": [
                                                    {
                                                        "children": [
                                                            {
                                                                "children": [],
                                                                "depth": 5,
                                                                "id": 39,
                                                                "order": 39
                                                            }
                                                        ],
                                                        "depth": 4,
                                                        "id": 38,
                                                        "order": 38
                                                    },
                                                    {
                                                        "children": [],
                                                        "depth": 4,
                                                        "id": 42,
                                                        "order": 42
                                                    },
                                                    {
                                                        "children": [],
                                                        "depth": 4,
                                                        "id": 43,
                                                        "order": 43
                                                    }
                                                ],
                                                "depth": 3,
                                                "id": 37,
                                                "order": 37
                                            }
                                        ],
                                        "depth": 2,
                                        "id": 29,
                                        "order": 29
                                    },
                                    {
                                        "children": [
                                            {
                                                "children": [],
                                                "depth": 3,
                                                "id": 47,
                                                "order": 47
                                            }
                                        ],
                                        "depth": 2,
                                        "id": 46,
                                        "order": 46
                                    }
                                ],
                                "depth": 1,
                                "id": 1,
                                "order": 1
                            }
                        ],
                        "depth": 0,
                        "id": 0,
                        "order": 0
                    }
                ],
                "depth": -1,
                "id": -1,
                "order": -1
            }
        ],
        "tidyTraceNodeCount": 35
    },
    "state_change": {
        "stateChanges": [
            {
                "address": "0x32f9188d6d86bf88dbac3ceee5958adf1aa609df",
                "erc": "",
                "slots": [
                    {
                        "current": "0x0000000000000000000000000000000000000000000000000000000000000000",
                        "key": "0xcb3dc330765c471ae56ebcdae66dda7fc16c699660eda452720f2ed1d5831f1f",
                        "prev": "0x0000000000000000000000000000000000000000000000056bc75e2d63100000"
                    },
                    {
                        "current": "0x0000000000000000000000000000000000000000000000000000000000000000",
                        "key": "0xc11d59a34a0cff8cd6adf99b2f38b65d1514185eee17ad62676915f519877480",
                        "prev": "0x00000000000000000000000000000000000000000000000000000000663f2994"
                    }
                ],
                "storageVariables": []
            },
            {
                "address": "0x523aa213fe806778ffa597b6409382fffcc12de2",
                "erc": "ERC-20",
                "slots": [
                    {
                        "current": "0x00000000000000000000000000000000000000000000046d827209f279c463db",
                        "key": "0x76eef8b955b7075197d325b783f34cd8a18e9e66dab9f3a1a09b4e4874177f81",
                        "prev": "0x00000000000000000000000000000000000000000000002b4961b33e64f93a06"
                    },
                    {
                        "current": "0x00000000000000000000000000000000000000000000d69b3e764bb91b5a7ee2",
                        "key": "0xeb175cd2ae5c9b33c5673958c7389d9b7c1e82f9332f251e5ca03ad51c438c7d",
                        "prev": "0x00000000000000000000000000000000000000000000080f6eddde9b2add11d8"
                    },
                    {
                        "current": "0x00000000000000000000000000000000000000000051e33389d7fce7ed2ae259",
                        "key": "0xdc8bbe3846ee66ea8d00f00688fb0156088638a73775170e29f691abffa3f685",
                        "prev": "0x00000000000000000000000000000000000000000052b8224dc3bb43e9f18d82"
                    },
                    {
                        "current": "0x0000000000000000000000000000000000000000000000000000000000000000",
                        "key": "0x70c6f1ab38dd9cbca757a8f735024886b96e78deebb834f9bacf0be592959b76",
                        "prev": "0x000000000000000000000000000000000000000000000000614530d012e780a0"
                    },
                    {
                        "current": "0x000000000000000000000000000000000000000000001cf6453ef45366019191",
                        "key": "0xb34209a263f6c38fe55f099e9e70f9d67e93982480ff3234a5e0108028ad164d",
                        "prev": "0x000000000000000000000000000000000000000000001ad528b6c8f95b9bfca7"
                    }
                ],
                "storageVariables": [
                    {
                        "name": "_balances",
                        "type": "mapping(address => uint256)",
                        "value": {
                            "pairs": [
                                {
                                    "key": "0x000000000000000000000000000000000000dead",
                                    "value": {
                                        "current": "136769150256558819611025",
                                        "prev": "126713618795491497868455",
                                        "typeTag": 1
                                    }
                                },
                                {
                                    "key": "0x32f9188d6d86bf88dbac3ceee5958adf1aa609df",
                                    "value": {
                                        "current": "98995919297029708037415513",
                                        "prev": "100001465434074374911135106",
                                        "typeTag": 1
                                    }
                                },
                                {
                                    "key": "0x3e1c5ddd39801c1e72e5ab7e19c614fd398747f8",
                                    "value": {
                                        "current": "0",
                                        "prev": "7009062065300537504",
                                        "typeTag": 1
                                    }
                                },
                                {
                                    "key": "0x7367e49979e1b3e616976729bef602c3823bcacc",
                                    "value": {
                                        "current": "20909560621822227276763",
                                        "prev": "798497699687583791622",
                                        "typeTag": 1
                                    }
                                },
                                {
                                    "key": "0xbb33668bae76a6394683deef645487e333b8fc45",
                                    "value": {
                                        "current": "1013450173533665059569378",
                                        "prev": "38063621810134850539992",
                                        "typeTag": 1
                                    }
                                }
                            ],
                            "typeTag": 4
                        }
                    }
                ]
            },
            {
                "address": "0x55d398326f99059ff775485246999027b3197955",
                "erc": "ERC-20",
                "slots": [
                    {
                        "current": "0x0000000000000000000000000000000000000000000007beaea66247f4f810bf",
                        "key": "0x3a9761ba31dcfef416f63816cd62f993caa641f74d317d9a8acfb60bcf39982a",
                        "prev": "0x0000000000000000000000000000000000000000000000000000000000000000"
                    },
                    {
                        "current": "0x000000000000000000000000000000000000000000000051aea477c0b0281660",
                        "key": "0xeb175cd2ae5c9b33c5673958c7389d9b7c1e82f9332f251e5ca03ad51c438c7d",
                        "prev": "0x0000000000000000000000000000000000000000000008105d4ada08a520271f"
                    }
                ],
                "storageVariables": [
                    {
                        "name": "_balances",
                        "type": "mapping(address => uint256)",
                        "value": {
                            "pairs": [
                                {
                                    "key": "0x36fb87c3e65ec608d37e38bd556fb6ebdb3d8a39",
                                    "value": {
                                        "current": "36574031608362256830655",
                                        "prev": "0",
                                        "typeTag": 1
                                    }
                                },
                                {
                                    "key": "0xbb33668bae76a6394683deef645487e333b8fc45",
                                    "value": {
                                        "current": "1506770584898726532704",
                                        "prev": "38080802193260983363359",
                                        "typeTag": 1
                                    }
                                }
                            ],
                            "typeTag": 4
                        }
                    }
                ]
            },
            {
                "address": "0x867211c240e601994dbbf58ac47cb385a4ba84d8",
                "erc": "",
                "slots": [
                    {
                        "current": "0x000000000000000000000000523aa213fe806778ffa597b6409382fffcc12de2",
                        "key": "0x000000000000000000000000000000000000000000000000000000000000000e",
                        "prev": "0x0000000000000000000000000000000000000000000000000000000000000000"
                    },
                    {
                        "current": "0x000000000000000000000000bb33668bae76a6394683deef645487e333b8fc45",
                        "key": "0x0000000000000000000000000000000000000000000000000000000000000007",
                        "prev": "0x0000000000000000000000000000000000000000000000000000000000000000"
                    },
                    {
                        "current": "0x000000000000000000000000bb33668bae76a6394683deef645487e333b8fc45",
                        "key": "0x000000000000000000000000000000000000000000000000000000000000000b",
                        "prev": "0x0000000000000000000000000000000000000000000000000000000000000000"
                    },
                    {
                        "current": "0x000000000000000000000000bb33668bae76a6394683deef645487e333b8fc45",
                        "key": "0x000000000000000000000000000000000000000000000000000000000000000a",
                        "prev": "0x0000000000000000000000000000000000000000000000000000000000000000"
                    },
                    {
                        "current": "0x000000000000000000000000bb4cdb9cbd36b01bd1cbaebf2de08d9173bc095c",
                        "key": "0x000000000000000000000000000000000000000000000000000000000000000d",
                        "prev": "0x0000000000000000000000000000000000000000000000000000000000000000"
                    },
                    {
                        "current": "0x00000000000000000000000010ed43c718714eb63d5aa57b78b54704e256024e",
                        "key": "0x0000000000000000000000000000000000000000000000000000000000000002",
                        "prev": "0x0000000000000000000000000000000000000000000000000000000000000000"
                    },
                    {
                        "current": "0x000000000000000000000000e9e7cea3dedca5984780bafc599bd69add087d56",
                        "key": "0x0000000000000000000000000000000000000000000000000000000000000008",
                        "prev": "0x0000000000000000000000000000000000000000000000000000000000000000"
                    },
                    {
                        "current": "0x00000000000000000000000055d398326f99059ff775485246999027b3197955",
                        "key": "0x000000000000000000000000000000000000000000000000000000000000000f",
                        "prev": "0x0000000000000000000000000000000000000000000000000000000000000000"
                    },
                    {
                        "current": "0x000000000000000000000000523aa213fe806778ffa597b6409382fffcc12de2",
                        "key": "0x0000000000000000000000000000000000000000000000000000000000000006",
                        "prev": "0x0000000000000000000000000000000000000000000000000000000000000000"
                    },
                    {
                        "current": "0x00000000000000000000000032f9188d6d86bf88dbac3ceee5958adf1aa609df",
                        "key": "0x0000000000000000000000000000000000000000000000000000000000000005",
                        "prev": "0x0000000000000000000000000000000000000000000000000000000000000000"
                    },
                    {
                        "current": "0x00000000000000000000000010ed43c718714eb63d5aa57b78b54704e256024e",
                        "key": "0x000000000000000000000000000000000000000000000000000000000000000c",
                        "prev": "0x0000000000000000000000000000000000000000000000000000000000000000"
                    },
                    {
                        "current": "0x00000000000000000000000036fb87c3e65ec608d37e38bd556fb6ebdb3d8a39",
                        "key": "0x0000000000000000000000000000000000000000000000000000000000000000",
                        "prev": "0x0000000000000000000000000000000000000000000000000000000000000000"
                    },
                    {
                        "current": "0x00000000000000000000000036fb87c3e65ec608d37e38bd556fb6ebdb3d8a39",
                        "key": "0x0000000000000000000000000000000000000000000000000000000000000001",
                        "prev": "0x0000000000000000000000000000000000000000000000000000000000000000"
                    },
                    {
                        "current": "0x000000000000000000000000bb4cdb9cbd36b01bd1cbaebf2de08d9173bc095c",
                        "key": "0x0000000000000000000000000000000000000000000000000000000000000003",
                        "prev": "0x0000000000000000000000000000000000000000000000000000000000000000"
                    },
                    {
                        "current": "0x000000000000000000000000bb33668bae76a6394683deef645487e333b8fc45",
                        "key": "0x0000000000000000000000000000000000000000000000000000000000000010",
                        "prev": "0x0000000000000000000000000000000000000000000000000000000000000000"
                    },
                    {
                        "current": "0x00000000000000000000000032f9188d6d86bf88dbac3ceee5958adf1aa609df",
                        "key": "0x0000000000000000000000000000000000000000000000000000000000000011",
                        "prev": "0x0000000000000000000000000000000000000000000000000000000000000000"
                    },
                    {
                        "current": "0x00000000000000000000000055d398326f99059ff775485246999027b3197955",
                        "key": "0x0000000000000000000000000000000000000000000000000000000000000009",
                        "prev": "0x0000000000000000000000000000000000000000000000000000000000000000"
                    }
                ],
                "storageVariables": []
            },
            {
                "address": "0xbb33668bae76a6394683deef645487e333b8fc45",
                "erc": "ERC-20",
                "slots": [
                    {
                        "current": "0x0000000000000000000000000000000251ae2f3064fbe9b1c2801e466eabe0d4",
                        "key": "0x0000000000000000000000000000000000000000000000000000000000000009",
                        "prev": "0x00000000000000000000000000000002424b6846ba9adb09f73e3e5abbe0341d"
                    },
                    {
                        "current": "0x000000000000000000000000000000024603587249eaa60bfbf77cff0e90d8fa",
                        "key": "0x000000000000000000000000000000000000000000000000000000000000000a",
                        "prev": "0x0000000000000000000000000000000236a41f2769e877109803cb19d2400e1e"
                    },
                    {
                        "current": "0x663f6c9f000000000051aea477c0b028166000000000d69b3e764bb91b5a7ee2",
                        "key": "0x0000000000000000000000000000000000000000000000000000000000000008",
                        "prev": "0x663f5d3e0000000008105d4ada08a520271f00000000080f6eddde9b2add11d8"
                    }
                ],
                "storageVariables": [
                    {
                        "name": "price0CumulativeLast",
                        "type": "uint256",
                        "value": {
                            "current": "789136618261296389905857246915933757652",
                            "prev": "768685318802393063167855016655687005213",
                            "typeTag": 1
                        }
                    },
                    {
                        "name": "price1CumulativeLast",
                        "type": "uint256",
                        "value": {
                            "current": "773628064344328368978687565867642837242",
                            "prev": "753195214176435106141831120911895367198",
                            "typeTag": 1
                        }
                    },
                    {
                        "name": "reserve0",
                        "type": "uint112",
                        "value": {
                            "current": "1013450173533665059569378",
                            "prev": "38063621810134850539992",
                            "typeTag": 1
                        }
                    },
                    {
                        "name": "reserve1",
                        "type": "uint112",
                        "value": {
                            "current": "1506770584898726532704",
                            "prev": "38080802193260983363359",
                            "typeTag": 1
                        }
                    },
                    {
                        "name": "blockTimestampLast",
                        "type": "uint32",
                        "value": {
                            "current": "1715432607",
                            "prev": "1715428670",
                            "typeTag": 1
                        }
                    }
                ]
            }
        ]
    }
}