{
    "balance_change": {
        "balanceChanges": [
            {
                "account": "0x0000000000000000000000000000000000000000",
                "assets": [
                    {
                        "address": "0xa0b86991c6218b36c1d19d4a2e9eb0ce3606eb48",
                        "amount": "49,680",
                        "iconUrl": "https://assets.blocksec.com/icon/0347a86cc07dbd03fdc5db01a4e5ac7e1217f90e0b6e4bb0f75cbcca09160989.png",
                        "isERC1155": false,
                        "isERC721": false,
                        "sign": true,
                        "value": "49675.032000000000547"
                    }
                ]
            },
            {
                "account": "0x54fd7ba87ddbdb4b8a28aee34ab8ffc4004687de",
                "assets": [
                    {
                        "address": "0xa0b86991c6218b36c1d19d4a2e9eb0ce3606eb48",
                        "amount": "49,680",
                        "iconUrl": "https://assets.blocksec.com/icon/0347a86cc07dbd03fdc5db01a4e5ac7e1217f90e0b6e4bb0f75cbcca09160989.png",
                        "isERC1155": false,
                        "isERC721": false,
                        "sign": false,
                        "value": "49675.032000000000547"
                    }
                ]
            }
        ]
    },
    "profile": {
        "basic_info": {
            "baseFee": "7.288478609",
            "blockNumber": 19738692,
            "callData": "0xebf6abc900000000000000000000000054fd7ba87ddbdb4b8a28aee34ab8ffc4004687de00000000000000000000000000000000000000000000000000000000000000400000000000000000000000000000000000000000000000000000000000000204696f1894000000000000000000000000000000000000000000000000000000000000001e0000000000000000000000000000000000000000000000000000000000000060000000000000000000000000000000000000000000000000000000000000000000000000000000000000000000000000000000000000000000000000000001800000000000000000000000000000000000000000000000000000000000000006000000000000000000000000000000000000000000000000000000000000000300000000000000000000000000000000000000000000000000000000000000020000000000000000000000000000000000000000000000000000000000006010000000000000000000000000adaf1626aec26a7937ae7d1fa0664e6e0904c1d0000000000000000000000000a0b86991c6218b36c1d19d4a2e9eb0ce3606eb480000000000000000000000000000000000000000000000000000000b9128a400000000000000000000000000000000000000000000000000000000000000000100000000000000000000000027428dd2d3dd32a4d7f7c497eaaa23130d894911000000000000000000000000000000000000000000000000000000000000001e0000000000000000000000000000000000000000000000000000000000000017000000000000000000000000000000000000000000000000000000000000001e00000000000000000000000000000000000000000000000000000000",
            "debugEnable": true,
            "errorInfo": "",
            "eventCount": 7,
            "feeRecipient": "0x95222290dd7278aa3ddd389cc1e1d165cc4bafe5",
            "formatValue": "0",
            "gasLimit": 192327,
            "gasPrice": "16.356092246",
            "gasUsed": 150030,
            "intTxnCount": 16,
            "internalRevert": false,
            "internalRevertMessage": "",
            "isContractCreation": false,
            "isFlashloan": false,
            "maxFee": "16.356092246",
            "nonce": 1,
            "overwritedBlockNumber": -1,
            "priorityFee": "10",
            "receiver": "0x156c5c2fe8c831249761a41e58d36beb7882067d",
            "revertMessage": "",
            "sender": "0xe2edb263d873cf3f2cfaecfcb76892ceec6b8b84",
            "simulationEnable": true,
            "sourceTxnHash": "0x167c97b5897d11b23a6694f30acb71e8deead771d22fe88aee04ca8696a2bffa",
            "status": true,
            "timestamp": "2024-04-26T09:38:59Z",
            "transactionFee": "0.00245390451966738",
            "txnHash": "0x167c97b5897d11b23a6694f30acb71e8deead771d22fe88aee04ca8696a2bffa",
            "txnIndex": 9,
            "type": 2,
            "value": "0"
        },
        "fund_flow": [
            {
                "amount": "49,680",
                "from": "0x54fd7ba87ddbdb4b8a28aee34ab8ffc4004687de",
                "id": 1,
                "isERC1155": false,
                "isERC721": false,
                "isReverted": false,
                "order": 1,
                "to": "0xc4922d64a24675e16e1586e3e3aa56c06fabe907",
                "token": "0xa0b86991c6218b36c1d19d4a2e9eb0ce3606eb48"
            },
            {
                "amount": "49,680",
                "from": "0xc4922d64a24675e16e1586e3e3aa56c06fabe907",
                "id": 2,
                "isERC1155": false,
                "isERC721": false,
                "isReverted": false,
                "order": 2,
                "to": "0x0000000000000000000000000000000000000000",
                "token": "0xa0b86991c6218b36c1d19d4a2e9eb0ce3606eb48"
            }
        ],
        "token_infos": [
            {
                "address": "0xa0b86991c6218b36c1d19d4a2e9eb0ce3606eb48",
                "decimals": 6
            },
            {
                "address": "0xc02aaa39b223fe8d0a0e5c4f27ead9083c756cc2",
                "decimals": 18
            },
            {
                "address": "0xeeeeeeeeeeeeeeeeeeeeeeeeeeeeeeeeeeeeeeee",
                "decimals": 18
            }
        ]
    },
    "address_label": {
        "labels": [
            {
                "address": "0xeeeeeeeeeeeeeeeeeeeeeeeeeeeeeeeeeeeeeeee",
                "label": "Ether"
            },
            {
                "address": "0xb2f38107a18f8599331677c14374fd3a952fb2c8",
                "label": "Message"
            },
            {
                "address": "0xa0b86991c6218b36c1d19d4a2e9eb0ce3606eb48",
                "label": "Circle: USDC Token"
            },
            {
                "address": "0x43506849d7c04f9138d1a2050bbf3a0c054402dd",
                "label": "FiatTokenV2_2"
            },
            {
                "address": "0x0000000000000000000000000000000000000003",
                "label": "Precompiled"
            },
            {
                "address": "0x0a992d191deec32afe36203ad87d7d289a738f81",
                "label": "MessageTransmitter"
            },
            {
                "address": "0xbd3fa81b58ba92a82136038b25adec7066af3155",
                "label": "TokenMessenger"
            },
            {
                "address": "0xc4922d64a24675e16e1586e3e3aa56c06fabe907",
                "label": "TokenMinter"
            },
            {
                "address": "0x0000000000000000000000000000000000000001",
                "label": "Precompiled"
            },
            {
                "address": "0x0000000000000000000000000000000000000002",
                "label": "Precompiled"
            },
            {
                "address": "0x0000000000000000000000000000000000000004",
                "label": "Precompiled"
            }
        ]
    },
    "trace": {
        "accountLabels": null,
        "dataMap": {
            "-1": {
                "invocation": {
                    "address": "0xe2edb263d873cf3f2cfaecfcb76892ceec6b8b84",
                    "callData": "",
                    "decodedMethod": null,
                    "errorInfo": "",
                    "fromAddress": "",
                    "gasUsed": 0,
                    "id": -1,
                    "methodDecoded": false,
                    "operation": "",
                    "output": "",
                    "revert": false,
                    "revertMessage": "",
                    "selector": "",
                    "status": false,
                    "value": ""
                },
                "nodeType": 0
            },
            "0": {
                "invocation": {
                    "address": "0x156c5c2fe8c831249761a41e58d36beb7882067d",
                    "callData": "0x00000000000000000000000054fd7ba87ddbdb4b8a28aee34ab8ffc4004687de00000000000000000000000000000000000000000000000000000000000000400000000000000000000000000000000000000000000000000000000000000204696f1894000000000000000000000000000000000000000000000000000000000000001e0000000000000000000000000000000000000000000000000000000000000060000000000000000000000000000000000000000000000000000000000000000000000000000000000000000000000000000000000000000000000000000001800000000000000000000000000000000000000000000000000000000000000006000000000000000000000000000000000000000000000000000000000000000300000000000000000000000000000000000000000000000000000000000000020000000000000000000000000000000000000000000000000000000000006010000000000000000000000000adaf1626aec26a7937ae7d1fa0664e6e0904c1d0000000000000000000000000a0b86991c6218b36c1d19d4a2e9eb0ce3606eb480000000000000000000000000000000000000000000000000000000b9128a400000000000000000000000000000000000000000000000000000000000000000100000000000000000000000027428dd2d3dd32a4d7f7c497eaaa23130d894911000000000000000000000000000000000000000000000000000000000000001e0000000000000000000000000000000000000000000000000000000000000017000000000000000000000000000000000000000000000000000000000000001e00000000000000000000000000000000000000000000000000000000",
                    "decodedMethod": null,
                    "errorInfo": "",
                    "fromAddress": "0xe2edb263d873cf3f2cfaecfcb76892ceec6b8b84",
                    "gasUsed": 150030,
                    "id": 0,
                    "methodDecoded": false,
                    "operation": "CALL",
                    "output": "",
                    "revert": false,
                    "revertMessage": "",
                    "selector": "0xebf6abc9",
                    "status": true,
                    "value": "0"
                },
                "nodeType": 0
            },
            "1": {
                "invocation": {
                    "address": "0x54fd7ba87ddbdb4b8a28aee34ab8ffc4004687de",
                    "callData": "0x000000000000000000000000000000000000000000000000000000000000001e0000000000000000000000000000000000000000000000000000000000000060000000000000000000000000000000000000000000000000000000000000000000000000000000000000000000000000000000000000000000000000000001800000000000000000000000000000000000000000000000000000000000000006000000000000000000000000000000000000000000000000000000000000000300000000000000000000000000000000000000000000000000000000000000020000000000000000000000000000000000000000000000000000000000006010000000000000000000000000adaf1626aec26a7937ae7d1fa0664e6e0904c1d0000000000000000000000000a0b86991c6218b36c1d19d4a2e9eb0ce3606eb480000000000000000000000000000000000000000000000000000000b9128a400000000000000000000000000000000000000000000000000000000000000000100000000000000000000000027428dd2d3dd32a4d7f7c497eaaa23130d894911000000000000000000000000000000000000000000000000000000000000001e0000000000000000000000000000000000000000000000000000000000000017000000000000000000000000000000000000000000000000000000000000001e",
                    "decodedMethod": {
                        "callParams": [
                            {
                                "name": "targetChainId",
                                "type": "uint16",
                                "value": "30"
                            },
                            {
                                "name": "payload",
                                "type": "bytes",
                                "value": "0x0000000000000000000000000000000000000000000000000000000000000006000000000000000000000000000000000000000000000000000000000000000300000000000000000000000000000000000000000000000000000000000000020000000000000000000000000000000000000000000000000000000000006010000000000000000000000000adaf1626aec26a7937ae7d1fa0664e6e0904c1d0000000000000000000000000a0b86991c6218b36c1d19d4a2e9eb0ce3606eb480000000000000000000000000000000000000000000000000000000b9128a400000000000000000000000000000000000000000000000000000000000000000100000000000000000000000027428dd2d3dd32a4d7f7c497eaaa23130d894911000000000000000000000000000000000000000000000000000000000000001e0000000000000000000000000000000000000000000000000000000000000017000000000000000000000000000000000000000000000000000000000000001e"
                            },
                            {
                                "name": "forwardCost",
                                "type": "uint256",
                                "value": "0"
                            }
                        ],
                        "constructorArguments": "",
                        "name": "pike_send",
                        "returnParams": [],
                        "signature": "pike_send(uint16,bytes,uint256)"
                    },
                    "errorInfo": "",
                    "fromAddress": "0x156c5c2fe8c831249761a41e58d36beb7882067d",
                    "gasUsed": 156129,
                    "id": 1,
                    "methodDecoded": true,
                    "operation": "CALL",
                    "output": "",
                    "revert": false,
                    "revertMessage": "",
                    "selector": "0x696f1894",
                    "status": true,
                    "value": "0"
                },
                "nodeType": 0
            },
            "10": {
                "invocation": {
                    "address": "0x43506849d7c04f9138d1a2050bbf3a0c054402dd",
                    "callData": "0x00000000000000000000000054fd7ba87ddbdb4b8a28aee34ab8ffc4004687de000000000000000000000000c4922d64a24675e16e1586e3e3aa56c06fabe9070000000000000000000000000000000000000000000000000000000b9128a400",
                    "decodedMethod": {
                        "callParams": [
                            {
                                "name": "from",
                                "type": "address",
                                "value": "0x54fd7ba87ddbdb4b8a28aee34ab8ffc4004687de"
                            },
                            {
                                "name": "to",
                                "type": "address",
                                "value": "0xc4922d64a24675e16e1586e3e3aa56c06fabe907"
                            },
                            {
                                "decimalAvailable": true,
                                "name": "value",
                                "type": "uint256",
                                "value": "49,680,000,000"
                            }
                        ],
                        "constructorArguments": "",
                        "name": "transferFrom",
                        "returnParams": [
                            {
                                "name": "",
                                "type": "bool",
                                "value": true
                            }
                        ],
                        "signature": "transferFrom(address,address,uint256)"
                    },
                    "errorInfo": "",
                    "fromAddress": "0xa0b86991c6218b36c1d19d4a2e9eb0ce3606eb48",
                    "gasUsed": 32454,
                    "id": 10,
                    "methodDecoded": true,
                    "operation": "DELEGATECALL",
                    "output": "0x0000000000000000000000000000000000000000000000000000000000000001",
                    "revert": false,
                    "revertMessage": "",
                    "selector": "0x23b872dd",
                    "status": true,
                    "value": "0"
                },
                "nodeType": 0
            },
            "11": {
                "event": {
                    "contract": "0xa0b86991c6218b36c1d19d4a2e9eb0ce3606eb48",
                    "decodedLog": {
                        "name": "Transfer",
                        "params": [
                            {
                                "name": "from",
                                "type": "address",
                                "value": "0x54fd7ba87ddbdb4b8a28aee34ab8ffc4004687de"
                            },
                            {
                                "name": "to",
                                "type": "address",
                                "value": "0xc4922d64a24675e16e1586e3e3aa56c06fabe907"
                            },
                            {
                                "decimalAvailable": true,
                                "name": "value",
                                "type": "uint256",
                                "value": "49,680,000,000"
                            }
                        ],
                        "signature": "Transfer(address,address,uint256)"
                    },
                    "id": 11,
                    "logData": "0x0000000000000000000000000000000000000000000000000000000b9128a400",
                    "logDecoded": true,
                    "operation": "EVENT",
                    "revert": false,
                    "status": true,
                    "topics": [
                        "0xddf252ad1be2c89b69c2b068fc378daa952ba7f163c4a11628f55a4df523b3ef",
                        "0x00000000000000000000000054fd7ba87ddbdb4b8a28aee34ab8ffc4004687de",
                        "0x000000000000000000000000c4922d64a24675e16e1586e3e3aa56c06fabe907"
                    ]
                },
                "nodeType": 1
            },
            "12": {
                "invocation": {
                    "address": "0xc4922d64a24675e16e1586e3e3aa56c06fabe907",
                    "callData": "0x000000000000000000000000a0b86991c6218b36c1d19d4a2e9eb0ce3606eb480000000000000000000000000000000000000000000000000000000b9128a400",
                    "decodedMethod": {
                        "callParams": [
                            {
                                "name": "burnToken",
                                "type": "address",
                                "value": "0xa0b86991c6218b36c1d19d4a2e9eb0ce3606eb48"
                            },
                            {
                                "name": "burnAmount",
                                "type": "uint256",
                                "value": "49,680,000,000"
                            }
                        ],
                        "constructorArguments": "",
                        "name": "burn",
                        "returnParams": [],
                        "signature": "burn(address,uint256)"
                    },
                    "errorInfo": "",
                    "fromAddress": "0xbd3fa81b58ba92a82136038b25adec7066af3155",
                    "gasUsed": 20133,
                    "id": 12,
                    "methodDecoded": true,
                    "operation": "CALL",
                    "output": "",
                    "revert": false,
                    "revertMessage": "",
                    "selector": "0x9dc29fac",
                    "status": true,
                    "value": "0"
                },
                "nodeType": 0
            },
            "13": {
                "invocation": {
                    "address": "0xa0b86991c6218b36c1d19d4a2e9eb0ce3606eb48",
                    "callData": "0x0000000000000000000000000000000000000000000000000000000b9128a400",
                    "decodedMethod": {
                        "callParams": [
                            {
                                "name": "_amount",
                                "type": "uint256",
                                "value": "49,680,000,000"
                            }
                        ],
                        "constructorArguments": "",
                        "name": "burn",
                        "returnParams": [],
                        "signature": "burn(uint256)"
                    },
                    "errorInfo": "",
                    "fromAddress": "0xc4922d64a24675e16e1586e3e3aa56c06fabe907",
                    "gasUsed": 12767,
                    "id": 13,
                    "methodDecoded": true,
                    "operation": "CALL",
                    "output": "",
                    "revert": false,
                    "revertMessage": "",
                    "selector": "0x42966c68",
                    "status": true,
                    "value": "0"
                },
                "nodeType": 0
            },
            "14": {
                "invocation": {
                    "address": "0x43506849d7c04f9138d1a2050bbf3a0c054402dd",
                    "callData": "0x0000000000000000000000000000000000000000000000000000000b9128a400",
                    "decodedMethod": {
                        "callParams": [
                            {
                                "name": "_amount",
                                "type": "uint256",
                                "value": "49,680,000,000"
                            }
                        ],
                        "constructorArguments": "",
                        "name": "burn",
                        "returnParams": [],
                        "signature": "burn(uint256)"
                    },
                    "errorInfo": "",
                    "fromAddress": "0xa0b86991c6218b36c1d19d4a2e9eb0ce3606eb48",
                    "gasUsed": 11984,
                    "id": 14,
                    "methodDecoded": true,
                    "operation": "DELEGATECALL",
                    "output": "",
                    "revert": false,
                    "revertMessage": "",
                    "selector": "0x42966c68",
                    "status": true,
                    "value": "0"
                },
                "nodeType": 0
            },
            "15": {
                "event": {
                    "contract": "0xa0b86991c6218b36c1d19d4a2e9eb0ce3606eb48",
                    "decodedLog": {
                        "name": "Burn",
                        "params": [
                            {
                                "name": "burner",
                                "type": "address",
                                "value": "0xc4922d64a24675e16e1586e3e3aa56c06fabe907"
                            },
                            {
                                "name": "value",
                                "type": "uint256",
                                "value": "49,680,000,000"
                            }
                        ],
                        "signature": "Burn(address,uint256)"
                    },
                    "id": 15,
                    "logData": "0x0000000000000000000000000000000000000000000000000000000b9128a400",
                    "logDecoded": true,
                    "operation": "EVENT",
                    "revert": false,
                    "status": true,
                    "topics": [
                        "0xcc16f5dbb4873280815c1ee09dbd06736cffcc184412cf7a71a0fdb75d397ca5",
                        "0x000000000000000000000000c4922d64a24675e16e1586e3e3aa56c06fabe907"
                    ]
                },
                "nodeType": 1
            },
            "16": {
                "event": {
                    "contract": "0xa0b86991c6218b36c1d19d4a2e9eb0ce3606eb48",
                    "decodedLog": {
                        "name": "Transfer",
                        "params": [
                            {
                                "name": "from",
                                "type": "address",
                                "value": "0xc4922d64a24675e16e1586e3e3aa56c06fabe907"
                            },
                            {
                                "name": "to",
                                "type": "address",
                                "value": "0x0000000000000000000000000000000000000000"
                            },
                            {
                                "decimalAvailable": true,
                                "name": "value",
                                "type": "uint256",
                                "value": "49,680,000,000"
                            }
                        ],
                        "signature": "Transfer(address,address,uint256)"
                    },
                    "id": 16,
                    "logData": "0x0000000000000000000000000000000000000000000000000000000b9128a400",
                    "logDecoded": true,
                    "operation": "EVENT",
                    "revert": false,
                    "status": true,
                    "topics": [
                        "0xddf252ad1be2c89b69c2b068fc378daa952ba7f163c4a11628f55a4df523b3ef",
                        "0x000000000000000000000000c4922d64a24675e16e1586e3e3aa56c06fabe907",
                        "0x0000000000000000000000000000000000000000000000000000000000000000"
                    ]
                },
                "nodeType": 1
            },
            "17": {
                "invocation": {
                    "address": "0xb2f38107a18f8599331677c14374fd3a952fb2c8",
                    "callData": "0x000000000000000000000000a0b86991c6218b36c1d19d4a2e9eb0ce3606eb48",
                    "decodedMethod": {
                        "callParams": [
                            {
                                "name": "addr",
                                "type": "address",
                                "value": "0xa0b86991c6218b36c1d19d4a2e9eb0ce3606eb48"
                            }
                        ],
                        "constructorArguments": "",
                        "name": "addressToBytes32",
                        "returnParams": [
                            {
                                "name": "",
                                "type": "bytes32",
                                "value": "0x000000000000000000000000a0b86991c6218b36c1d19d4a2e9eb0ce3606eb48"
                            }
                        ],
                        "signature": "addressToBytes32(address)"
                    },
                    "errorInfo": "",
                    "fromAddress": "0xbd3fa81b58ba92a82136038b25adec7066af3155",
                    "gasUsed": 233,
                    "id": 17,
                    "methodDecoded": true,
                    "operation": "DELEGATECALL",
                    "output": "0x000000000000000000000000a0b86991c6218b36c1d19d4a2e9eb0ce3606eb48",
                    "revert": false,
                    "revertMessage": "",
                    "selector": "0x82c947b7",
                    "status": true,
                    "value": "0"
                },
                "nodeType": 0
            },
            "18": {
                "invocation": {
                    "address": "0xb2f38107a18f8599331677c14374fd3a952fb2c8",
                    "callData": "0x00000000000000000000000054fd7ba87ddbdb4b8a28aee34ab8ffc4004687de",
                    "decodedMethod": {
                        "callParams": [
                            {
                                "name": "addr",
                                "type": "address",
                                "value": "0x54fd7ba87ddbdb4b8a28aee34ab8ffc4004687de"
                            }
                        ],
                        "constructorArguments": "",
                        "name": "addressToBytes32",
                        "returnParams": [
                            {
                                "name": "",
                                "type": "bytes32",
                                "value": "0x00000000000000000000000054fd7ba87ddbdb4b8a28aee34ab8ffc4004687de"
                            }
                        ],
                        "signature": "addressToBytes32(address)"
                    },
                    "errorInfo": "",
                    "fromAddress": "0xbd3fa81b58ba92a82136038b25adec7066af3155",
                    "gasUsed": 233,
                    "id": 18,
                    "methodDecoded": true,
                    "operation": "DELEGATECALL",
                    "output": "0x00000000000000000000000054fd7ba87ddbdb4b8a28aee34ab8ffc4004687de",
                    "revert": false,
                    "revertMessage": "",
                    "selector": "0x82c947b7",
                    "status": true,
                    "value": "0"
                },
                "nodeType": 0
            },
            "19": {
                "invocation": {
                    "address": "0x0a992d191deec32afe36203ad87d7d289a738f81",
                    "callData": "0x00000000000000000000000000000000000000000000000000000000000000060000000000000000000000001682ae6375c4e4a97e4b583bc394c861a46d89620000000000000000000000000000000000000000000000000000000000000060000000000000000000000000000000000000000000000000000000000000008400000000000000000000000000000000a0b86991c6218b36c1d19d4a2e9eb0ce3606eb48000000000000000000000000a9452ca8281556dafa4c0d3da3dcaaa1849410320000000000000000000000000000000000000000000000000000000b9128a40000000000000000000000000054fd7ba87ddbdb4b8a28aee34ab8ffc4004687de00000000000000000000000000000000000000000000000000000000",
                    "decodedMethod": {
                        "callParams": [
                            {
                                "name": "destinationDomain",
                                "type": "uint32",
                                "value": "6"
                            },
                            {
                                "name": "recipient",
                                "type": "bytes32",
                                "value": "0x0000000000000000000000001682ae6375c4e4a97e4b583bc394c861a46d8962"
                            },
                            {
                                "name": "messageBody",
                                "type": "bytes",
                                "value": "0x00000000000000000000000000000000a0b86991c6218b36c1d19d4a2e9eb0ce3606eb48000000000000000000000000a9452ca8281556dafa4c0d3da3dcaaa1849410320000000000000000000000000000000000000000000000000000000b9128a40000000000000000000000000054fd7ba87ddbdb4b8a28aee34ab8ffc4004687de"
                            }
                        ],
                        "constructorArguments": "",
                        "name": "sendMessage",
                        "returnParams": [
                            {
                                "name": "",
                                "type": "uint64",
                                "value": "48,892"
                            }
                        ],
                        "signature": "sendMessage(uint32,bytes32,bytes)"
                    },
                    "errorInfo": "",
                    "fromAddress": "0xbd3fa81b58ba92a82136038b25adec7066af3155",
                    "gasUsed": 15838,
                    "id": 19,
                    "methodDecoded": true,
                    "operation": "CALL",
                    "output": "0x000000000000000000000000000000000000000000000000000000000000befc",
                    "revert": false,
                    "revertMessage": "",
                    "selector": "0x0ba469bc",
                    "status": true,
                    "value": "0"
                },
                "nodeType": 0
            },
            "2": {
                "invocation": {
                    "address": "0x9138af31ab71ae4e7b5b7c525f5fbddbfcc306ee",
                    "callData": "0x000000000000000000000000000000000000000000000000000000000000001e0000000000000000000000000000000000000000000000000000000000000060000000000000000000000000000000000000000000000000000000000000000000000000000000000000000000000000000000000000000000000000000001800000000000000000000000000000000000000000000000000000000000000006000000000000000000000000000000000000000000000000000000000000000300000000000000000000000000000000000000000000000000000000000000020000000000000000000000000000000000000000000000000000000000006010000000000000000000000000adaf1626aec26a7937ae7d1fa0664e6e0904c1d0000000000000000000000000a0b86991c6218b36c1d19d4a2e9eb0ce3606eb480000000000000000000000000000000000000000000000000000000b9128a400000000000000000000000000000000000000000000000000000000000000000100000000000000000000000027428dd2d3dd32a4d7f7c497eaaa23130d894911000000000000000000000000000000000000000000000000000000000000001e0000000000000000000000000000000000000000000000000000000000000017000000000000000000000000000000000000000000000000000000000000001e",
                    "decodedMethod": {
                        "callParams": [
                            {
                                "name": "targetChainId",
                                "type": "uint16",
                                "value": "30"
                            },
                            {
                                "name": "payload",
                                "type": "bytes",
                                "value": "0x0000000000000000000000000000000000000000000000000000000000000006000000000000000000000000000000000000000000000000000000000000000300000000000000000000000000000000000000000000000000000000000000020000000000000000000000000000000000000000000000000000000000006010000000000000000000000000adaf1626aec26a7937ae7d1fa0664e6e0904c1d0000000000000000000000000a0b86991c6218b36c1d19d4a2e9eb0ce3606eb480000000000000000000000000000000000000000000000000000000b9128a400000000000000000000000000000000000000000000000000000000000000000100000000000000000000000027428dd2d3dd32a4d7f7c497eaaa23130d894911000000000000000000000000000000000000000000000000000000000000001e0000000000000000000000000000000000000000000000000000000000000017000000000000000000000000000000000000000000000000000000000000001e"
                            },
                            {
                                "name": "forwardCost",
                                "type": "uint256",
                                "value": "0"
                            }
                        ],
                        "constructorArguments": "",
                        "name": "pike_send",
                        "returnParams": [],
                        "signature": "pike_send(uint16,bytes,uint256)"
                    },
                    "errorInfo": "",
                    "fromAddress": "0x54fd7ba87ddbdb4b8a28aee34ab8ffc4004687de",
                    "gasUsed": 151147,
                    "id": 2,
                    "methodDecoded": true,
                    "operation": "DELEGATECALL",
                    "output": "",
                    "revert": false,
                    "revertMessage": "",
                    "selector": "0x696f1894",
                    "status": true,
                    "value": "0"
                },
                "nodeType": 0
            },
            "20": {
                "invocation": {
                    "address": "0xb2f38107a18f8599331677c14374fd3a952fb2c8",
                    "callData": "0x000000000000000000000000bd3fa81b58ba92a82136038b25adec7066af3155",
                    "decodedMethod": {
                        "callParams": [
                            {
                                "name": "addr",
                                "type": "address",
                                "value": "0xbd3fa81b58ba92a82136038b25adec7066af3155"
                            }
                        ],
                        "constructorArguments": "",
                        "name": "addressToBytes32",
                        "returnParams": [
                            {
                                "name": "",
                                "type": "bytes32",
                                "value": "0x000000000000000000000000bd3fa81b58ba92a82136038b25adec7066af3155"
                            }
                        ],
                        "signature": "addressToBytes32(address)"
                    },
                    "errorInfo": "",
                    "fromAddress": "0x0a992d191deec32afe36203ad87d7d289a738f81",
                    "gasUsed": 233,
                    "id": 20,
                    "methodDecoded": true,
                    "operation": "DELEGATECALL",
                    "output": "0x000000000000000000000000bd3fa81b58ba92a82136038b25adec7066af3155",
                    "revert": false,
                    "revertMessage": "",
                    "selector": "0x82c947b7",
                    "status": true,
                    "value": "0"
                },
                "nodeType": 0
            },
            "21": {
                "event": {
                    "contract": "0x0a992d191deec32afe36203ad87d7d289a738f81",
                    "decodedLog": {
                        "name": "MessageSent",
                        "params": [
                            {
                                "name": "message",
                                "type": "bytes",
                                "value": "0x000000000000000000000006000000000000befc000000000000000000000000bd3fa81b58ba92a82136038b25adec7066af31550000000000000000000000001682ae6375c4e4a97e4b583bc394c861a46d8962000000000000000000000000000000000000000000000000000000000000000000000000000000000000000000000000a0b86991c6218b36c1d19d4a2e9eb0ce3606eb48000000000000000000000000a9452ca8281556dafa4c0d3da3dcaaa1849410320000000000000000000000000000000000000000000000000000000b9128a40000000000000000000000000054fd7ba87ddbdb4b8a28aee34ab8ffc4004687de"
                            }
                        ],
                        "signature": "MessageSent(bytes)"
                    },
                    "id": 21,
                    "logData": "0x000000000000000000000000000000000000000000000000000000000000002000000000000000000000000000000000000000000000000000000000000000f8000000000000000000000006000000000000befc000000000000000000000000bd3fa81b58ba92a82136038b25adec7066af31550000000000000000000000001682ae6375c4e4a97e4b583bc394c861a46d8962000000000000000000000000000000000000000000000000000000000000000000000000000000000000000000000000a0b86991c6218b36c1d19d4a2e9eb0ce3606eb48000000000000000000000000a9452ca8281556dafa4c0d3da3dcaaa1849410320000000000000000000000000000000000000000000000000000000b9128a40000000000000000000000000054fd7ba87ddbdb4b8a28aee34ab8ffc4004687de0000000000000000",
                    "logDecoded": true,
                    "operation": "EVENT",
                    "revert": false,
                    "status": true,
                    "topics": [
                        "0x8c5261668696ce22758910d05bab8f186d6eb247ceac2af2e82c7dc17669b036"
                    ]
                },
                "nodeType": 1
            },
            "22": {
                "event": {
                    "contract": "0xbd3fa81b58ba92a82136038b25adec7066af3155",
                    "decodedLog": {
                        "name": "DepositForBurn",
                        "params": [
                            {
                                "name": "nonce",
                                "type": "uint64",
                                "value": "48,892"
                            },
                            {
                                "name": "burnToken",
                                "type": "address",
                                "value": "0xa0b86991c6218b36c1d19d4a2e9eb0ce3606eb48"
                            },
                            {
                                "name": "depositor",
                                "type": "address",
                                "value": "0x54fd7ba87ddbdb4b8a28aee34ab8ffc4004687de"
                            },
                            {
                                "name": "amount",
                                "type": "uint256",
                                "value": "49,680,000,000"
                            },
                            {
                                "name": "mintRecipient",
                                "type": "bytes32",
                                "value": "0x000000000000000000000000a9452ca8281556dafa4c0d3da3dcaaa184941032"
                            },
                            {
                                "name": "destinationDomain",
                                "type": "uint32",
                                "value": "6"
                            },
                            {
                                "name": "destinationTokenMessenger",
                                "type": "bytes32",
                                "value": "0x0000000000000000000000001682ae6375c4e4a97e4b583bc394c861a46d8962"
                            },
                            {
                                "name": "destinationCaller",
                                "type": "bytes32",
                                "value": "0x0000000000000000000000000000000000000000000000000000000000000000"
                            }
                        ],
                        "signature": "DepositForBurn(uint64,address,uint256,address,bytes32,uint32,bytes32,bytes32)"
                    },
                    "id": 22,
                    "logData": "0x0000000000000000000000000000000000000000000000000000000b9128a400000000000000000000000000a9452ca8281556dafa4c0d3da3dcaaa18494103200000000000000000000000000000000000000000000000000000000000000060000000000000000000000001682ae6375c4e4a97e4b583bc394c861a46d89620000000000000000000000000000000000000000000000000000000000000000",
                    "logDecoded": true,
                    "operation": "EVENT",
                    "revert": false,
                    "status": true,
                    "topics": [
                        "0x2fa9ca894982930190727e75500a97d8dc500233a5065e0f3126c48fbe0343c0",
                        "0x000000000000000000000000000000000000000000000000000000000000befc",
                        "0x000000000000000000000000a0b86991c6218b36c1d19d4a2e9eb0ce3606eb48",
                        "0x00000000000000000000000054fd7ba87ddbdb4b8a28aee34ab8ffc4004687de"
                    ]
                },
                "nodeType": 1
            },
            "23": {
                "event": {
                    "contract": "0x54fd7ba87ddbdb4b8a28aee34ab8ffc4004687de",
                    "decodedLog": {
                        "name": "OutcomingPikeMessage",
                        "params": [
                            {
                                "name": "cctpTargetChainId",
                                "type": "uint16",
                                "value": "30"
                            },
                            {
                                "name": "circleDomain",
                                "type": "uint32",
                                "value": "6"
                            },
                            {
                                "name": "user",
                                "type": "address",
                                "value": "0xadaf1626aec26a7937ae7d1fa0664e6e0904c1d0"
                            },
                            {
                                "name": "borrowAmount",
                                "type": "uint256",
                                "value": "49,680,000,000"
                            }
                        ],
                        "signature": "OutcomingPikeMessage(uint16,uint32,address,uint256)"
                    },
                    "id": 23,
                    "logData": "0x000000000000000000000000000000000000000000000000000000000000001e0000000000000000000000000000000000000000000000000000000000000006000000000000000000000000adaf1626aec26a7937ae7d1fa0664e6e0904c1d00000000000000000000000000000000000000000000000000000000b9128a400",
                    "logDecoded": true,
                    "operation": "EVENT",
                    "revert": false,
                    "status": true,
                    "topics": [
                        "0x7d54848b9e8a949dbad5c17c9271474a6a21385aec59cc5bdb0cd0ab2ce37e5f"
                    ]
                },
                "nodeType": 1
            },
            "3": {
                "invocation": {
                    "address": "0xa0b86991c6218b36c1d19d4a2e9eb0ce3606eb48",
                    "callData": "0x000000000000000000000000bd3fa81b58ba92a82136038b25adec7066af31550000000000000000000000000000000000000000000000000000000b9128a400",
                    "decodedMethod": {
                        "callParams": [
                            {
                                "name": "spender",
                                "type": "address",
                                "value": "0xbd3fa81b58ba92a82136038b25adec7066af3155"
                            },
                            {
                                "decimalAvailable": true,
                                "name": "value",
                                "type": "uint256",
                                "value": "49,680,000,000"
                            }
                        ],
                        "constructorArguments": "",
                        "name": "approve",
                        "returnParams": [
                            {
                                "name": "",
                                "type": "bool",
                                "value": true
                            }
                        ],
                        "signature": "approve(address,uint256)"
                    },
                    "errorInfo": "",
                    "fromAddress": "0x54fd7ba87ddbdb4b8a28aee34ab8ffc4004687de",
                    "gasUsed": 33962,
                    "id": 3,
                    "methodDecoded": true,
                    "operation": "CALL",
                    "output": "0x0000000000000000000000000000000000000000000000000000000000000001",
                    "revert": false,
                    "revertMessage": "",
                    "selector": "0x095ea7b3",
                    "status": true,
                    "value": "0"
                },
                "nodeType": 0
            },
            "4": {
                "invocation": {
                    "address": "0x43506849d7c04f9138d1a2050bbf3a0c054402dd",
                    "callData": "0x000000000000000000000000bd3fa81b58ba92a82136038b25adec7066af31550000000000000000000000000000000000000000000000000000000b9128a400",
                    "decodedMethod": {
                        "callParams": [
                            {
                                "name": "spender",
                                "type": "address",
                                "value": "0xbd3fa81b58ba92a82136038b25adec7066af3155"
                            },
                            {
                                "decimalAvailable": true,
                                "name": "value",
                                "type": "uint256",
                                "value": "49,680,000,000"
                            }
                        ],
                        "constructorArguments": "",
                        "name": "approve",
                        "returnParams": [
                            {
                                "name": "",
                                "type": "bool",
                                "value": true
                            }
                        ],
                        "signature": "approve(address,uint256)"
                    },
                    "errorInfo": "",
                    "fromAddress": "0xa0b86991c6218b36c1d19d4a2e9eb0ce3606eb48",
                    "gasUsed": 26673,
                    "id": 4,
                    "methodDecoded": true,
                    "operation": "DELEGATECALL",
                    "output": "0x0000000000000000000000000000000000000000000000000000000000000001",
                    "revert": false,
                    "revertMessage": "",
                    "selector": "0x095ea7b3",
                    "status": true,
                    "value": "0"
                },
                "nodeType": 0
            },
            "5": {
                "event": {
                    "contract": "0xa0b86991c6218b36c1d19d4a2e9eb0ce3606eb48",
                    "decodedLog": {
                        "name": "Approval",
                        "params": [
                            {
                                "name": "owner",
                                "type": "address",
                                "value": "0x54fd7ba87ddbdb4b8a28aee34ab8ffc4004687de"
                            },
                            {
                                "name": "spender",
                                "type": "address",
                                "value": "0xbd3fa81b58ba92a82136038b25adec7066af3155"
                            },
                            {
                                "decimalAvailable": true,
                                "name": "value",
                                "type": "uint256",
                                "value": "49,680,000,000"
                            }
                        ],
                        "signature": "Approval(address,address,uint256)"
                    },
                    "id": 5,
                    "logData": "0x0000000000000000000000000000000000000000000000000000000b9128a400",
                    "logDecoded": true,
                    "operation": "EVENT",
                    "revert": false,
                    "status": true,
                    "topics": [
                        "0x8c5be1e5ebec7d5bd14f71427d1e84f3dd0314c0f7b2291e5b200ac8c7c3b925",
                        "0x00000000000000000000000054fd7ba87ddbdb4b8a28aee34ab8ffc4004687de",
                        "0x000000000000000000000000bd3fa81b58ba92a82136038b25adec7066af3155"
                    ]
                },
                "nodeType": 1
            },
            "6": {
                "invocation": {
                    "address": "0xa0b86991c6218b36c1d19d4a2e9eb0ce3606eb48",
                    "callData": "0x00000000000000000000000054fd7ba87ddbdb4b8a28aee34ab8ffc4004687de",
                    "decodedMethod": {
                        "callParams": [
                            {
                                "name": "account",
                                "type": "address",
                                "value": "0x54fd7ba87ddbdb4b8a28aee34ab8ffc4004687de"
                            }
                        ],
                        "constructorArguments": "",
                        "name": "balanceOf",
                        "returnParams": [
                            {
                                "decimalAvailable": true,
                                "name": "",
                                "type": "uint256",
                                "value": "49,680,075,182"
                            }
                        ],
                        "signature": "balanceOf(address)"
                    },
                    "errorInfo": "",
                    "fromAddress": "0x54fd7ba87ddbdb4b8a28aee34ab8ffc4004687de",
                    "gasUsed": 3339,
                    "id": 6,
                    "methodDecoded": true,
                    "operation": "STATICCALL",
                    "output": "0x0000000000000000000000000000000000000000000000000000000b9129c9ae",
                    "revert": false,
                    "revertMessage": "",
                    "selector": "0x70a08231",
                    "status": true,
                    "value": "0"
                },
                "nodeType": 0
            },
            "7": {
                "invocation": {
                    "address": "0x43506849d7c04f9138d1a2050bbf3a0c054402dd",
                    "callData": "0x00000000000000000000000054fd7ba87ddbdb4b8a28aee34ab8ffc4004687de",
                    "decodedMethod": {
                        "callParams": [
                            {
                                "name": "account",
                                "type": "address",
                                "value": "0x54fd7ba87ddbdb4b8a28aee34ab8ffc4004687de"
                            }
                        ],
                        "constructorArguments": "",
                        "name": "balanceOf",
                        "returnParams": [
                            {
                                "decimalAvailable": true,
                                "name": "",
                                "type": "uint256",
                                "value": "49,680,075,182"
                            }
                        ],
                        "signature": "balanceOf(address)"
                    },
                    "errorInfo": "",
                    "fromAddress": "0xa0b86991c6218b36c1d19d4a2e9eb0ce3606eb48",
                    "gasUsed": 2553,
                    "id": 7,
                    "methodDecoded": true,
                    "operation": "DELEGATECALL",
                    "output": "0x0000000000000000000000000000000000000000000000000000000b9129c9ae",
                    "revert": false,
                    "revertMessage": "",
                    "selector": "0x70a08231",
                    "status": true,
                    "value": "0"
                },
                "nodeType": 0
            },
            "8": {
                "invocation": {
                    "address": "0xbd3fa81b58ba92a82136038b25adec7066af3155",
                    "callData": "0x0000000000000000000000000000000000000000000000000000000b9128a4000000000000000000000000000000000000000000000000000000000000000006000000000000000000000000a9452ca8281556dafa4c0d3da3dcaaa184941032000000000000000000000000a0b86991c6218b36c1d19d4a2e9eb0ce3606eb48",
                    "decodedMethod": {
                        "callParams": [
                            {
                                "name": "amount",
                                "type": "uint256",
                                "value": "49,680,000,000"
                            },
                            {
                                "name": "destinationDomain",
                                "type": "uint32",
                                "value": "6"
                            },
                            {
                                "name": "mintRecipient",
                                "type": "bytes32",
                                "value": "0x000000000000000000000000a9452ca8281556dafa4c0d3da3dcaaa184941032"
                            },
                            {
                                "name": "burnToken",
                                "type": "address",
                                "value": "0xa0b86991c6218b36c1d19d4a2e9eb0ce3606eb48"
                            }
                        ],
                        "constructorArguments": "",
                        "name": "depositForBurn",
                        "returnParams": [
                            {
                                "name": "_nonce",
                                "type": "uint64",
                                "value": "48,892"
                            }
                        ],
                        "signature": "depositForBurn(uint256,uint32,bytes32,address)"
                    },
                    "errorInfo": "",
                    "fromAddress": "0x54fd7ba87ddbdb4b8a28aee34ab8ffc4004687de",
                    "gasUsed": 88542,
                    "id": 8,
                    "methodDecoded": true,
                    "operation": "CALL",
                    "output": "0x000000000000000000000000000000000000000000000000000000000000befc",
                    "revert": false,
                    "revertMessage": "",
                    "selector": "0x6fd3504e",
                    "status": true,
                    "value": "0"
                },
                "nodeType": 0
            },
            "9": {
                "invocation": {
                    "address": "0xa0b86991c6218b36c1d19d4a2e9eb0ce3606eb48",
                    "callData": "0x00000000000000000000000054fd7ba87ddbdb4b8a28aee34ab8ffc4004687de000000000000000000000000c4922d64a24675e16e1586e3e3aa56c06fabe9070000000000000000000000000000000000000000000000000000000b9128a400",
                    "decodedMethod": {
                        "callParams": [
                            {
                                "name": "from",
                                "type": "address",
                                "value": "0x54fd7ba87ddbdb4b8a28aee34ab8ffc4004687de"
                            },
                            {
                                "name": "to",
                                "type": "address",
                                "value": "0xc4922d64a24675e16e1586e3e3aa56c06fabe907"
                            },
                            {
                                "decimalAvailable": true,
                                "name": "value",
                                "type": "uint256",
                                "value": "49,680,000,000"
                            }
                        ],
                        "constructorArguments": "",
                        "name": "transferFrom",
                        "returnParams": [
                            {
                                "name": "",
                                "type": "bool",
                                "value": true
                            }
                        ],
                        "signature": "transferFrom(address,address,uint256)"
                    },
                    "errorInfo": "",
                    "fromAddress": "0xbd3fa81b58ba92a82136038b25adec7066af3155",
                    "gasUsed": 33249,
                    "id": 9,
                    "methodDecoded": true,
                    "operation": "CALL",
                    "output": "0x0000000000000000000000000000000000000000000000000000000000000001",
                    "revert": false,
                    "revertMessage": "",
                    "selector": "0x23b872dd",
                    "status": true,
                    "value": "0"
                },
                "nodeType": 0
            }
        },
        "gasFlame": [
            {
                "children": [
                    {
                        "children": [
                            {
                                "children": [],
                                "depth": 0,
                                "name": "Initial Gas",
                                "value": 24860
                            },
                            {
                                "children": [
                                    {
                                        "children": [
                                            {
                                                "children": [
                                                    {
                                                        "children": [
                                                            {
                                                                "children": [],
                                                                "depth": 4,
                                                                "name": "approve",
                                                                "value": 26673
                                                            }
                                                        ],
                                                        "depth": 3,
                                                        "name": "approve",
                                                        "value": 33962
                                                    },
                                                    {
                                                        "children": [
                                                            {
                                                                "children": [],
                                                                "depth": 4,
                                                                "name": "balanceOf",
                                                                "value": 2553
                                                            }
                                                        ],
                                                        "depth": 3,
                                                        "name": "balanceOf",
                                                        "value": 3339
                                                    },
                                                    {
                                                        "children": [
                                                            {
                                                                "children": [
                                                                    {
                                                                        "children": [],
                                                                        "depth": 5,
                                                                        "name": "transferFrom",
                                                                        "value": 32454
                                                                    }
                                                                ],
                                                                "depth": 4,
                                                                "name": "transferFrom",
                                                                "value": 33249
                                                            },
                                                            {
                                                                "children": [
                                                                    {
                                                                        "children": [
                                                                            {
                                                                                "children": [],
                                                                                "depth": 6,
                                                                                "name": "burn",
                                                                                "value": 11984
                                                                            }
                                                                        ],
                                                                        "depth": 5,
                                                                        "name": "burn",
                                                                        "value": 12767
                                                                    }
                                                                ],
                                                                "depth": 4,
                                                                "name": "burn",
                                                                "value": 20133
                                                            },
                                                            {
                                                                "children": [],
                                                                "depth": 4,
                                                                "name": "addressToBytes32",
                                                                "value": 233
                                                            },
                                                            {
                                                                "children": [],
                                                                "depth": 4,
                                                                "name": "addressToBytes32",
                                                                "value": 233
                                                            },
                                                            {
                                                                "children": [
                                                                    {
                                                                        "children": [],
                                                                        "depth": 5,
                                                                        "name": "addressToBytes32",
                                                                        "value": 233
                                                                    }
                                                                ],
                                                                "depth": 4,
                                                                "name": "sendMessage",
                                                                "value": 15838
                                                            }
                                                        ],
                                                        "depth": 3,
                                                        "name": "depositForBurn",
                                                        "value": 88542
                                                    }
                                                ],
                                                "depth": 2,
                                                "name": "pike_send",
                                                "value": 151147
                                            }
                                        ],
                                        "depth": 1,
                                        "name": "pike_send",
                                        "value": 156129
                                    }
                                ],
                                "depth": 0,
                                "name": "Executed Gas",
                                "value": 162677
                            }
                        ],
                        "depth": -1,
                        "name": "Actual Gas Used",
                        "value": 150030
                    },
                    {
                        "children": [],
                        "depth": -1,
                        "name": "Refunded Gas",
                        "value": 37507
                    }
                ],
                "depth": -2,
                "name": "Total Gas",
                "value": 187537
            }
        ],
        "isConfirmed": true,
        "mainTrace": [
            {
                "children": [
                    {
                        "children": [
                            {
                                "children": [
                                    {
                                        "children": [
                                            {
                                                "children": [
                                                    {
                                                        "children": [
                                                            {
                                                                "children": [],
                                                                "depth": 5,
                                                                "id": 5,
                                                                "order": 5
                                                            }
                                                        ],
                                                        "depth": 4,
                                                        "id": 4,
                                                        "order": 4
                                                    }
                                                ],
                                                "depth": 3,
                                                "id": 3,
                                                "order": 3
                                            },
                                            {
                                                "children": [
                                                    {
                                                        "children": [],
                                                        "depth": 4,
                                                        "id": 7,
                                                        "order": 7
                                                    }
                                                ],
                                                "depth": 3,
                                                "id": 6,
                                                "order": 6
                                            },
                                            {
                                                "children": [
                                                    {
                                                        "children": [
                                                            {
                                                                "children": [
                                                                    {
                                                                        "children": [],
                                                                        "depth": 6,
                                                                        "id": 11,
                                                                        "order": 11
                                                                    }
                                                                ],
                                                                "depth": 5,
                                                                "id": 10,
                                                                "order": 10
                                                            }
                                                        ],
                                                        "depth": 4,
                                                        "id": 9,
                                                        "order": 9
                                                    },
                                                    {
                                                        "children": [
                                                            {
                                                                "children": [
                                                                    {
                                                                        "children": [
                                                                            {
                                                                                "children": [],
                                                                                "depth": 7,
                                                                                "id": 15,
                                                                                "order": 15
                                                                            },
                                                                            {
                                                                                "children": [],
                                                                                "depth": 7,
                                                                                "id": 16,
                                                                                "order": 16
                                                                            }
                                                                        ],
                                                                        "depth": 6,
                                                                        "id": 14,
                                                                        "order": 14
                                                                    }
                                                                ],
                                                                "depth": 5,
                                                                "id": 13,
                                                                "order": 13
                                                            }
                                                        ],
                                                        "depth": 4,
                                                        "id": 12,
                                                        "order": 12
                                                    },
                                                    {
                                                        "children": [],
                                                        "depth": 4,
                                                        "id": 17,
                                                        "order": 17
                                                    },
                                                    {
                                                        "children": [],
                                                        "depth": 4,
                                                        "id": 18,
                                                        "order": 18
                                                    },
                                                    {
                                                        "children": [
                                                            {
                                                                "children": [],
                                                                "depth": 5,
                                                                "id": 20,
                                                                "order": 20
                                                            },
                                                            {
                                                                "children": [],
                                                                "depth": 5,
                                                                "id": 21,
                                                                "order": 21
                                                            }
                                                        ],
                                                        "depth": 4,
                                                        "id": 19,
                                                        "order": 19
                                                    },
                                                    {
                                                        "children": [],
                                                        "depth": 4,
                                                        "id": 22,
                                                        "order": 22
                                                    }
                                                ],
                                                "depth": 3,
                                                "id": 8,
                                                "order": 8
                                            },
                                            {
                                                "children": [],
                                                "depth": 3,
                                                "id": 23,
                                                "order": 23
                                            }
                                        ],
                                        "depth": 2,
                                        "id": 2,
                                        "order": 2
                                    }
                                ],
                                "depth": 1,
                                "id": 1,
                                "order": 1
                            }
                        ],
                        "depth": 0,
                        "id": 0,
                        "order": 0
                    }
                ],
                "depth": -1,
                "id": -1,
                "order": -1
            }
        ],
        "mainTraceNodeCount": 24,
        "parentIdMap": {
            "0": -1,
            "1": 0,
            "10": 9,
            "11": 10,
            "12": 8,
            "13": 12,
            "14": 13,
            "15": 14,
            "16": 14,
            "17": 8,
            "18": 8,
            "19": 8,
            "2": 1,
            "20": 19,
            "21": 19,
            "22": 8,
            "23": 2,
            "3": 2,
            "4": 3,
            "5": 4,
            "6": 2,
            "7": 6,
            "8": 2,
            "9": 8
        },
        "tidyTrace": [
            {
                "children": [
                    {
                        "children": [
                            {
                                "children": [
                                    {
                                        "children": [
                                            {
                                                "children": [
                                                    {
                                                        "children": [
                                                            {
                                                                "children": [],
                                                                "depth": 5,
                                                                "id": 5,
                                                                "order": 5
                                                            }
                                                        ],
                                                        "depth": 4,
                                                        "id": 4,
                                                        "order": 4
                                                    }
                                                ],
                                                "depth": 3,
                                                "id": 3,
                                                "order": 3
                                            },
                                            {
                                                "children": [
                                                    {
                                                        "children": [
                                                            {
                                                                "children": [
                                                                    {
                                                                        "children": [],
                                                                        "depth": 6,
                                                                        "id": 11,
                                                                        "order": 11
                                                                    }
                                                                ],
                                                                "depth": 5,
                                                                "id": 10,
                                                                "order": 10
                                                            }
                                                        ],
                                                        "depth": 4,
                                                        "id": 9,
                                                        "order": 9
                                                    },
                                                    {
                                                        "children": [
                                                            {
                                                                "children": [
                                                                    {
                                                                        "children": [
                                                                            {
                                                                                "children": [],
                                                                                "depth": 7,
                                                                                "id": 15,
                                                                                "order": 15
                                                                            },
                                                                            {
                                                                                "children": [],
                                                                                "depth": 7,
                                                                                "id": 16,
                                                                                "order": 16
                                                                            }
                                                                        ],
                                                                        "depth": 6,
                                                                        "id": 14,
                                                                        "order": 14
                                                                    }
                                                                ],
                                                                "depth": 5,
                                                                "id": 13,
                                                                "order": 13
                                                            }
                                                        ],
                                                        "depth": 4,
                                                        "id": 12,
                                                        "order": 12
                                                    },
                                                    {
                                                        "children": [],
                                                        "depth": 4,
                                                        "id": 17,
                                                        "order": 17
                                                    },
                                                    {
                                                        "children": [],
                                                        "depth": 4,
                                                        "id": 18,
                                                        "order": 18
                                                    },
                                                    {
                                                        "children": [
                                                            {
                                                                "children": [],
                                                                "depth": 5,
                                                                "id": 20,
                                                                "order": 20
                                                            },
                                                            {
                                                                "children": [],
                                                                "depth": 5,
                                                                "id": 21,
                                                                "order": 21
                                                            }
                                                        ],
                                                        "depth": 4,
                                                        "id": 19,
                                                        "order": 19
                                                    },
                                                    {
                                                        "children": [],
                                                        "depth": 4,
                                                        "id": 22,
                                                        "order": 22
                                                    }
                                                ],
                                                "depth": 3,
                                                "id": 8,
                                                "order": 8
                                            },
                                            {
                                                "children": [],
                                                "depth": 3,
                                                "id": 23,
                                                "order": 23
                                            }
                                        ],
                                        "depth": 2,
                                        "id": 2,
                                        "order": 2
                                    }
                                ],
                                "depth": 1,
                                "id": 1,
                                "order": 1
                            }
                        ],
                        "depth": 0,
                        "id": 0,
                        "order": 0
                    }
                ],
                "depth": -1,
                "id": -1,
                "order": -1
            }
        ],
        "tidyTraceNodeCount": 22
    },
    "state_change": {
        "stateChanges": [
            {
                "address": "0x0a992d191deec32afe36203ad87d7d289a738f81",
                "erc": "",
                "slots": [
                    {
                        "current": "0x000000000000000000000000000000000000000000000000000000000000befd",
                        "key": "0x0000000000000000000000000000000000000000000000000000000000000009",
                        "prev": "0x000000000000000000000000000000000000000000000000000000000000befc"
                    }
                ],
                "storageVariables": [
                    {
                        "name": "nextAvailableNonce",
                        "type": "uint64",
                        "value": {
                            "current": "48893",
                            "prev": "48892",
                            "typeTag": 1
                        }
                    }
                ]
            },
            {
                "address": "0xa0b86991c6218b36c1d19d4a2e9eb0ce3606eb48",
                "erc": "ERC-20",
                "slots": [
                    {
                        "current": "0x00000000000000000000000000000000000000000000000000000000000125ae",
                        "key": "0x32264c3a1a2d8f9bac060a063e2c504cc04b6433a9c3e07c83c8214697e25b8b",
                        "prev": "0x0000000000000000000000000000000000000000000000000000000b9129c9ae"
                    },
                    {
                        "current": "0x000000000000000000000000000000000000000000000000005cb44ac19d5271",
                        "key": "0x000000000000000000000000000000000000000000000000000000000000000b",
                        "prev": "0x000000000000000000000000000000000000000000000000005cb45652c5f671"
                    }
                ],
                "storageVariables": [
                    {
                        "name": "balanceAndBlacklistStates",
                        "type": "mapping(address => uint256)",
                        "value": {
                            "pairs": [
                                {
                                    "key": "0x54fd7ba87ddbdb4b8a28aee34ab8ffc4004687de",
                                    "value": {
                                        "current": "75182",
                                        "prev": "49680075182",
                                        "typeTag": 1
                                    }
                                }
                            ],
                            "typeTag": 4
                        }
                    },
                    {
                        "name": "totalSupply_",
                        "type": "uint256",
                        "value": {
                            "current": "26093931026272881",
                            "prev": "26093980706272881",
                            "typeTag": 1
                        }
                    }
                ]
            }
        ]
    }
}