{
    "balance_change": {
        "balanceChanges": [
            {
                "account": "0xb7b0fe129fefa222efd4eb1f6bef9de339339bbb",
                "assets": [
                    {
                        "address": "0xbb4cdb9cbd36b01bd1cbaebf2de08d9173bc095c",
                        "amount": "6.894371397414556949",
                        "iconUrl": "https://assets.blocksec.com/icon/65a007cb-916d-490f-9438-b972e4549029.png",
                        "isERC1155": false,
                        "isERC721": false,
                        "sign": true,
                        "value": "2230.985573818951189"
                    },
                    {
                        "address": "0x65f11b2de17c4af7a8f70858d6ccb63aac215697",
                        "amount": "1,019,997,999,999,998.980002",
                        "iconUrl": "",
                        "isERC1155": false,
                        "isERC721": false,
                        "sign": false,
                        "value": ""
                    }
                ]
            },
            {
                "account": "0x000000000000000000000000000000000000dead",
                "assets": [
                    {
                        "address": "0x65f11b2de17c4af7a8f70858d6ccb63aac215697",
                        "amount": "19,997,999,999,999.980002",
                        "iconUrl": "",
                        "isERC1155": false,
                        "isERC721": false,
                        "sign": true,
                        "value": "2031.009683"
                    }
                ]
            },
            {
                "account": "0x1f443ce3c024b2bc635131151fe16d0ca8cd7b98",
                "assets": [
                    {
                        "address": "0x65f11b2de17c4af7a8f70858d6ccb63aac215697",
                        "amount": "9,999,999,999.99999",
                        "iconUrl": "",
                        "isERC1155": false,
                        "isERC721": false,
                        "sign": true,
                        "value": ""
                    }
                ]
            },
            {
                "account": "0x39d57605c83ba2dbf684f03faee49990e897f932",
                "assets": [
                    {
                        "address": "0x65f11b2de17c4af7a8f70858d6ccb63aac215697",
                        "amount": "9,999,999,999.99999",
                        "iconUrl": "",
                        "isERC1155": false,
                        "isERC721": false,
                        "sign": true,
                        "value": ""
                    }
                ]
            },
            {
                "account": "0x5d70f43fcd1bac6bb09ccccfe72e6800cc903fcb",
                "assets": [
                    {
                        "address": "0x65f11b2de17c4af7a8f70858d6ccb63aac215697",
                        "amount": "9,999,999,999.99999",
                        "iconUrl": "",
                        "isERC1155": false,
                        "isERC721": false,
                        "sign": true,
                        "value": ""
                    }
                ]
            },
            {
                "account": "0x626160f691c0637afac2fa96ed23def5dbede6bb",
                "assets": [
                    {
                        "address": "0x65f11b2de17c4af7a8f70858d6ccb63aac215697",
                        "amount": "9,999,999,999.99999",
                        "iconUrl": "",
                        "isERC1155": false,
                        "isERC721": false,
                        "sign": true,
                        "value": ""
                    }
                ]
            },
            {
                "account": "0x626ef2f8bdd10517ffa7eeff4d7739935fee2139",
                "assets": [
                    {
                        "address": "0x65f11b2de17c4af7a8f70858d6ccb63aac215697",
                        "amount": "9,999,999,999.99999",
                        "iconUrl": "",
                        "isERC1155": false,
                        "isERC721": false,
                        "sign": true,
                        "value": ""
                    }
                ]
            },
            {
                "account": "0x88ff4f62a75733c0f5afe58672121568a680de84",
                "assets": [
                    {
                        "address": "0xbb4cdb9cbd36b01bd1cbaebf2de08d9173bc095c",
                        "amount": "6.894371397414556949",
                        "iconUrl": "https://assets.blocksec.com/icon/65a007cb-916d-490f-9438-b972e4549029.png",
                        "isERC1155": false,
                        "isERC721": false,
                        "sign": false,
                        "value": "2230.985573818951189"
                    },
                    {
                        "address": "0x65f11b2de17c4af7a8f70858d6ccb63aac215697",
                        "amount": "999,899,999,999,999.0001",
                        "iconUrl": "",
                        "isERC1155": false,
                        "isERC721": false,
                        "sign": true,
                        "value": "0.00000006"
                    }
                ]
            },
            {
                "account": "0x8eaa0fcb07f3904492b145507cc2dfbf9a5aed42",
                "assets": [
                    {
                        "address": "0x65f11b2de17c4af7a8f70858d6ccb63aac215697",
                        "amount": "9,999,999,999.99999",
                        "iconUrl": "",
                        "isERC1155": false,
                        "isERC721": false,
                        "sign": true,
                        "value": ""
                    }
                ]
            },
            {
                "account": "0xa7c54f8ab74a6ea716e24ba1cefe9d967d6a6fe9",
                "assets": [
                    {
                        "address": "0x65f11b2de17c4af7a8f70858d6ccb63aac215697",
                        "amount": "9,999,999,999.99999",
                        "iconUrl": "",
                        "isERC1155": false,
                        "isERC721": false,
                        "sign": true,
                        "value": ""
                    }
                ]
            },
            {
                "account": "0xb238638efc83a53076a9e7bda2c1d352dfd4299a",
                "assets": [
                    {
                        "address": "0x65f11b2de17c4af7a8f70858d6ccb63aac215697",
                        "amount": "9,999,999,999.99999",
                        "iconUrl": "",
                        "isERC1155": false,
                        "isERC721": false,
                        "sign": true,
                        "value": ""
                    }
                ]
            },
            {
                "account": "0xc7c2aef3ecbdc177404fdb97792f22fe6071ae64",
                "assets": [
                    {
                        "address": "0x65f11b2de17c4af7a8f70858d6ccb63aac215697",
                        "amount": "9,999,999,999.99999",
                        "iconUrl": "",
                        "isERC1155": false,
                        "isERC721": false,
                        "sign": true,
                        "value": ""
                    }
                ]
            },
            {
                "account": "0xe401e4254391ce5eaa1b42675c9d7055a329521a",
                "assets": [
                    {
                        "address": "0x65f11b2de17c4af7a8f70858d6ccb63aac215697",
                        "amount": "9,999,999,999.99999",
                        "iconUrl": "",
                        "isERC1155": false,
                        "isERC721": false,
                        "sign": true,
                        "value": ""
                    }
                ]
            }
        ]
    },
    "profile": {
        "basic_info": {
            "baseFee": "",
            "blockNumber": 20120885,
            "callData": "0xdead5fae00000000000000000000000088ff4f62a75733c0f5afe58672121568a680de84",
            "debugEnable": true,
            "errorInfo": "",
            "eventCount": 15,
            "feeRecipient": "0x72b61c6014342d914470ec7ac2975be345796c2b",
            "formatValue": "0",
            "gasLimit": 446429,
            "gasPrice": "15",
            "gasUsed": 434611,
            "intTxnCount": 7,
            "internalRevert": false,
            "internalRevertMessage": "",
            "isContractCreation": false,
            "isFlashloan": true,
            "maxFee": "",
            "nonce": 2,
            "overwritedBlockNumber": -1,
            "priorityFee": "",
            "receiver": "0xb7b0fe129fefa222efd4eb1f6bef9de339339bbb",
            "revertMessage": "",
            "sender": "0x2723e1f6a9a3cd003fd395cc46882e4573cb249f",
            "simulationEnable": true,
            "sourceTxnHash": "0x16be4fe1c8fcab578fcb999cbc40885ba0d4ba9f3782a67bd215fb56dc579062",
            "status": true,
            "timestamp": "2022-08-03T15:13:52Z",
            "transactionFee": "0.006519165",
            "txnHash": "0x16be4fe1c8fcab578fcb999cbc40885ba0d4ba9f3782a67bd215fb56dc579062",
            "txnIndex": 0,
            "type": 0,
            "value": "0"
        },
        "fund_flow": [
            {
                "amount": "6.894371397414556949",
                "from": "0x88ff4f62a75733c0f5afe58672121568a680de84",
                "id": 1,
                "isERC1155": false,
                "isERC721": false,
                "isReverted": false,
                "order": 1,
                "to": "0xb7b0fe129fefa222efd4eb1f6bef9de339339bbb",
                "token": "0xbb4cdb9cbd36b01bd1cbaebf2de08d9173bc095c"
            },
            {
                "amount": "9,999,999,999.99999",
                "from": "0xb7b0fe129fefa222efd4eb1f6bef9de339339bbb",
                "id": 2,
                "isERC1155": false,
                "isERC721": false,
                "isReverted": false,
                "order": 2,
                "to": "0x5d70f43fcd1bac6bb09ccccfe72e6800cc903fcb",
                "token": "0x65f11b2de17c4af7a8f70858d6ccb63aac215697"
            },
            {
                "amount": "9,999,999,999.99999",
                "from": "0xb7b0fe129fefa222efd4eb1f6bef9de339339bbb",
                "id": 3,
                "isERC1155": false,
                "isERC721": false,
                "isReverted": false,
                "order": 3,
                "to": "0x626160f691c0637afac2fa96ed23def5dbede6bb",
                "token": "0x65f11b2de17c4af7a8f70858d6ccb63aac215697"
            },
            {
                "amount": "9,999,999,999.99999",
                "from": "0xb7b0fe129fefa222efd4eb1f6bef9de339339bbb",
                "id": 4,
                "isERC1155": false,
                "isERC721": false,
                "isReverted": false,
                "order": 4,
                "to": "0x39d57605c83ba2dbf684f03faee49990e897f932",
                "token": "0x65f11b2de17c4af7a8f70858d6ccb63aac215697"
            },
            {
                "amount": "9,999,999,999.99999",
                "from": "0xb7b0fe129fefa222efd4eb1f6bef9de339339bbb",
                "id": 5,
                "isERC1155": false,
                "isERC721": false,
                "isReverted": false,
                "order": 5,
                "to": "0x8eaa0fcb07f3904492b145507cc2dfbf9a5aed42",
                "token": "0x65f11b2de17c4af7a8f70858d6ccb63aac215697"
            },
            {
                "amount": "9,999,999,999.99999",
                "from": "0xb7b0fe129fefa222efd4eb1f6bef9de339339bbb",
                "id": 6,
                "isERC1155": false,
                "isERC721": false,
                "isReverted": false,
                "order": 6,
                "to": "0xc7c2aef3ecbdc177404fdb97792f22fe6071ae64",
                "token": "0x65f11b2de17c4af7a8f70858d6ccb63aac215697"
            },
            {
                "amount": "9,999,999,999.99999",
                "from": "0xb7b0fe129fefa222efd4eb1f6bef9de339339bbb",
                "id": 7,
                "isERC1155": false,
                "isERC721": false,
                "isReverted": false,
                "order": 7,
                "to": "0xa7c54f8ab74a6ea716e24ba1cefe9d967d6a6fe9",
                "token": "0x65f11b2de17c4af7a8f70858d6ccb63aac215697"
            },
            {
                "amount": "9,999,999,999.99999",
                "from": "0xb7b0fe129fefa222efd4eb1f6bef9de339339bbb",
                "id": 8,
                "isERC1155": false,
                "isERC721": false,
                "isReverted": false,
                "order": 8,
                "to": "0xb238638efc83a53076a9e7bda2c1d352dfd4299a",
                "token": "0x65f11b2de17c4af7a8f70858d6ccb63aac215697"
            },
            {
                "amount": "9,999,999,999.99999",
                "from": "0xb7b0fe129fefa222efd4eb1f6bef9de339339bbb",
                "id": 9,
                "isERC1155": false,
                "isERC721": false,
                "isReverted": false,
                "order": 9,
                "to": "0x626ef2f8bdd10517ffa7eeff4d7739935fee2139",
                "token": "0x65f11b2de17c4af7a8f70858d6ccb63aac215697"
            },
            {
                "amount": "9,999,999,999.99999",
                "from": "0xb7b0fe129fefa222efd4eb1f6bef9de339339bbb",
                "id": 10,
                "isERC1155": false,
                "isERC721": false,
                "isReverted": false,
                "order": 10,
                "to": "0x1f443ce3c024b2bc635131151fe16d0ca8cd7b98",
                "token": "0x65f11b2de17c4af7a8f70858d6ccb63aac215697"
            },
            {
                "amount": "9,999,999,999.99999",
                "from": "0xb7b0fe129fefa222efd4eb1f6bef9de339339bbb",
                "id": 11,
                "isERC1155": false,
                "isERC721": false,
                "isReverted": false,
                "order": 11,
                "to": "0xe401e4254391ce5eaa1b42675c9d7055a329521a",
                "token": "0x65f11b2de17c4af7a8f70858d6ccb63aac215697"
            },
            {
                "amount": "19,997,999,999,999.980002",
                "from": "0xb7b0fe129fefa222efd4eb1f6bef9de339339bbb",
                "id": 12,
                "isERC1155": false,
                "isERC721": false,
                "isReverted": false,
                "order": 12,
                "to": "0x000000000000000000000000000000000000dead",
                "token": "0x65f11b2de17c4af7a8f70858d6ccb63aac215697"
            },
            {
                "amount": "999,899,999,999,999.0001",
                "from": "0xb7b0fe129fefa222efd4eb1f6bef9de339339bbb",
                "id": 13,
                "isERC1155": false,
                "isERC721": false,
                "isReverted": false,
                "order": 13,
                "to": "0x88ff4f62a75733c0f5afe58672121568a680de84",
                "token": "0x65f11b2de17c4af7a8f70858d6ccb63aac215697"
            }
        ],
        "token_infos": [
            {
                "address": "0xbb4cdb9cbd36b01bd1cbaebf2de08d9173bc095c",
                "decimals": 18
            },
            {
                "address": "0xeeeeeeeeeeeeeeeeeeeeeeeeeeeeeeeeeeeeeeee",
                "decimals": 18
            },
            {
                "address": "0x65f11b2de17c4af7a8f70858d6ccb63aac215697",
                "decimals": 18
            }
        ]
    },
    "address_label": {
        "labels": [
            {
                "address": "0xbb4cdb9cbd36b01bd1cbaebf2de08d9173bc095c",
                "label": "Wrapped BNB"
            },
            {
                "address": "0x65f11b2de17c4af7a8f70858d6ccb63aac215697",
                "label": "QIXI"
            },
            {
                "address": "0x0000000000000000000000000000000000000001",
                "label": "Precompiled"
            },
            {
                "address": "0x0000000000000000000000000000000000000002",
                "label": "Precompiled"
            },
            {
                "address": "0x0000000000000000000000000000000000000003",
                "label": "Precompiled"
            },
            {
                "address": "0x0000000000000000000000000000000000000004",
                "label": "Precompiled"
            },
            {
                "address": "0xeeeeeeeeeeeeeeeeeeeeeeeeeeeeeeeeeeeeeeee",
                "label": "BNB"
            },
            {
                "address": "0x88ff4f62a75733c0f5afe58672121568a680de84",
                "label": "PancakeSwap: WBNB-QIXI"
            }
        ]
    },
    "trace": {
        "accountLabels": null,
        "dataMap": {
            "-1": {
                "invocation": {
                    "address": "0x2723e1f6a9a3cd003fd395cc46882e4573cb249f",
                    "callData": "",
                    "decodedMethod": null,
                    "errorInfo": "",
                    "fromAddress": "",
                    "gasUsed": 0,
                    "id": -1,
                    "methodDecoded": false,
                    "operation": "",
                    "output": "",
                    "revert": false,
                    "revertMessage": "",
                    "selector": "",
                    "status": false,
                    "value": ""
                },
                "nodeType": 0
            },
            "0": {
                "invocation": {
                    "address": "0xb7b0fe129fefa222efd4eb1f6bef9de339339bbb",
                    "callData": "0x00000000000000000000000088ff4f62a75733c0f5afe58672121568a680de84",
                    "decodedMethod": null,
                    "errorInfo": "",
                    "fromAddress": "0x2723e1f6a9a3cd003fd395cc46882e4573cb249f",
                    "gasUsed": 434611,
                    "id": 0,
                    "methodDecoded": false,
                    "operation": "CALL",
                    "output": "",
                    "revert": false,
                    "revertMessage": "",
                    "selector": "0xdead5fae",
                    "status": true,
                    "value": "0"
                },
                "nodeType": 0
            },
            "1": {
                "invocation": {
                    "address": "0xbb4cdb9cbd36b01bd1cbaebf2de08d9173bc095c",
                    "callData": "0x00000000000000000000000088ff4f62a75733c0f5afe58672121568a680de84",
                    "decodedMethod": {
                        "callParams": [
                            {
                                "name": "",
                                "type": "address",
                                "value": "0x88ff4f62a75733c0f5afe58672121568a680de84"
                            }
                        ],
                        "constructorArguments": "",
                        "name": "balanceOf",
                        "returnParams": [
                            {
                                "decimalAvailable": true,
                                "name": "",
                                "type": "uint256",
                                "value": "6,895,371,397,414,556,949"
                            }
                        ],
                        "signature": "balanceOf(address)"
                    },
                    "errorInfo": "",
                    "fromAddress": "0xb7b0fe129fefa222efd4eb1f6bef9de339339bbb",
                    "gasUsed": 1234,
                    "id": 1,
                    "methodDecoded": true,
                    "operation": "STATICCALL",
                    "output": "0x0000000000000000000000000000000000000000000000005fb147c0b1489515",
                    "revert": false,
                    "revertMessage": "",
                    "selector": "0x70a08231",
                    "status": true,
                    "value": "0"
                },
                "nodeType": 0
            },
            "10": {
                "event": {
                    "contract": "0x65f11b2de17c4af7a8f70858d6ccb63aac215697",
                    "decodedLog": {
                        "name": "Transfer",
                        "params": [
                            {
                                "name": "from",
                                "type": "address",
                                "value": "0xb7b0fe129fefa222efd4eb1f6bef9de339339bbb"
                            },
                            {
                                "name": "to",
                                "type": "address",
                                "value": "0x8eaa0fcb07f3904492b145507cc2dfbf9a5aed42"
                            },
                            {
                                "decimalAvailable": true,
                                "name": "value",
                                "type": "uint256",
                                "value": "9,999,999,999,999,990,000,000,000,000"
                            }
                        ],
                        "signature": "Transfer(address,address,uint256)"
                    },
                    "id": 10,
                    "logData": "0x0000000000000000000000000000000000000000204fce5e3e24f948c18d6000",
                    "logDecoded": true,
                    "operation": "EVENT",
                    "revert": false,
                    "status": true,
                    "topics": [
                        "0xddf252ad1be2c89b69c2b068fc378daa952ba7f163c4a11628f55a4df523b3ef",
                        "0x000000000000000000000000b7b0fe129fefa222efd4eb1f6bef9de339339bbb",
                        "0x0000000000000000000000008eaa0fcb07f3904492b145507cc2dfbf9a5aed42"
                    ]
                },
                "nodeType": 1
            },
            "11": {
                "event": {
                    "contract": "0x65f11b2de17c4af7a8f70858d6ccb63aac215697",
                    "decodedLog": {
                        "name": "Transfer",
                        "params": [
                            {
                                "name": "from",
                                "type": "address",
                                "value": "0xb7b0fe129fefa222efd4eb1f6bef9de339339bbb"
                            },
                            {
                                "name": "to",
                                "type": "address",
                                "value": "0xc7c2aef3ecbdc177404fdb97792f22fe6071ae64"
                            },
                            {
                                "decimalAvailable": true,
                                "name": "value",
                                "type": "uint256",
                                "value": "9,999,999,999,999,990,000,000,000,000"
                            }
                        ],
                        "signature": "Transfer(address,address,uint256)"
                    },
                    "id": 11,
                    "logData": "0x0000000000000000000000000000000000000000204fce5e3e24f948c18d6000",
                    "logDecoded": true,
                    "operation": "EVENT",
                    "revert": false,
                    "status": true,
                    "topics": [
                        "0xddf252ad1be2c89b69c2b068fc378daa952ba7f163c4a11628f55a4df523b3ef",
                        "0x000000000000000000000000b7b0fe129fefa222efd4eb1f6bef9de339339bbb",
                        "0x000000000000000000000000c7c2aef3ecbdc177404fdb97792f22fe6071ae64"
                    ]
                },
                "nodeType": 1
            },
            "12": {
                "event": {
                    "contract": "0x65f11b2de17c4af7a8f70858d6ccb63aac215697",
                    "decodedLog": {
                        "name": "Transfer",
                        "params": [
                            {
                                "name": "from",
                                "type": "address",
                                "value": "0xb7b0fe129fefa222efd4eb1f6bef9de339339bbb"
                            },
                            {
                                "name": "to",
                                "type": "address",
                                "value": "0xa7c54f8ab74a6ea716e24ba1cefe9d967d6a6fe9"
                            },
                            {
                                "decimalAvailable": true,
                                "name": "value",
                                "type": "uint256",
                                "value": "9,999,999,999,999,990,000,000,000,000"
                            }
                        ],
                        "signature": "Transfer(address,address,uint256)"
                    },
                    "id": 12,
                    "logData": "0x0000000000000000000000000000000000000000204fce5e3e24f948c18d6000",
                    "logDecoded": true,
                    "operation": "EVENT",
                    "revert": false,
                    "status": true,
                    "topics": [
                        "0xddf252ad1be2c89b69c2b068fc378daa952ba7f163c4a11628f55a4df523b3ef",
                        "0x000000000000000000000000b7b0fe129fefa222efd4eb1f6bef9de339339bbb",
                        "0x000000000000000000000000a7c54f8ab74a6ea716e24ba1cefe9d967d6a6fe9"
                    ]
                },
                "nodeType": 1
            },
            "13": {
                "event": {
                    "contract": "0x65f11b2de17c4af7a8f70858d6ccb63aac215697",
                    "decodedLog": {
                        "name": "Transfer",
                        "params": [
                            {
                                "name": "from",
                                "type": "address",
                                "value": "0xb7b0fe129fefa222efd4eb1f6bef9de339339bbb"
                            },
                            {
                                "name": "to",
                                "type": "address",
                                "value": "0xb238638efc83a53076a9e7bda2c1d352dfd4299a"
                            },
                            {
                                "decimalAvailable": true,
                                "name": "value",
                                "type": "uint256",
                                "value": "9,999,999,999,999,990,000,000,000,000"
                            }
                        ],
                        "signature": "Transfer(address,address,uint256)"
                    },
                    "id": 13,
                    "logData": "0x0000000000000000000000000000000000000000204fce5e3e24f948c18d6000",
                    "logDecoded": true,
                    "operation": "EVENT",
                    "revert": false,
                    "status": true,
                    "topics": [
                        "0xddf252ad1be2c89b69c2b068fc378daa952ba7f163c4a11628f55a4df523b3ef",
                        "0x000000000000000000000000b7b0fe129fefa222efd4eb1f6bef9de339339bbb",
                        "0x000000000000000000000000b238638efc83a53076a9e7bda2c1d352dfd4299a"
                    ]
                },
                "nodeType": 1
            },
            "14": {
                "event": {
                    "contract": "0x65f11b2de17c4af7a8f70858d6ccb63aac215697",
                    "decodedLog": {
                        "name": "Transfer",
                        "params": [
                            {
                                "name": "from",
                                "type": "address",
                                "value": "0xb7b0fe129fefa222efd4eb1f6bef9de339339bbb"
                            },
                            {
                                "name": "to",
                                "type": "address",
                                "value": "0x626ef2f8bdd10517ffa7eeff4d7739935fee2139"
                            },
                            {
                                "decimalAvailable": true,
                                "name": "value",
                                "type": "uint256",
                                "value": "9,999,999,999,999,990,000,000,000,000"
                            }
                        ],
                        "signature": "Transfer(address,address,uint256)"
                    },
                    "id": 14,
                    "logData": "0x0000000000000000000000000000000000000000204fce5e3e24f948c18d6000",
                    "logDecoded": true,
                    "operation": "EVENT",
                    "revert": false,
                    "status": true,
                    "topics": [
                        "0xddf252ad1be2c89b69c2b068fc378daa952ba7f163c4a11628f55a4df523b3ef",
                        "0x000000000000000000000000b7b0fe129fefa222efd4eb1f6bef9de339339bbb",
                        "0x000000000000000000000000626ef2f8bdd10517ffa7eeff4d7739935fee2139"
                    ]
                },
                "nodeType": 1
            },
            "15": {
                "event": {
                    "contract": "0x65f11b2de17c4af7a8f70858d6ccb63aac215697",
                    "decodedLog": {
                        "name": "Transfer",
                        "params": [
                            {
                                "name": "from",
                                "type": "address",
                                "value": "0xb7b0fe129fefa222efd4eb1f6bef9de339339bbb"
                            },
                            {
                                "name": "to",
                                "type": "address",
                                "value": "0x1f443ce3c024b2bc635131151fe16d0ca8cd7b98"
                            },
                            {
                                "decimalAvailable": true,
                                "name": "value",
                                "type": "uint256",
                                "value": "9,999,999,999,999,990,000,000,000,000"
                            }
                        ],
                        "signature": "Transfer(address,address,uint256)"
                    },
                    "id": 15,
                    "logData": "0x0000000000000000000000000000000000000000204fce5e3e24f948c18d6000",
                    "logDecoded": true,
                    "operation": "EVENT",
                    "revert": false,
                    "status": true,
                    "topics": [
                        "0xddf252ad1be2c89b69c2b068fc378daa952ba7f163c4a11628f55a4df523b3ef",
                        "0x000000000000000000000000b7b0fe129fefa222efd4eb1f6bef9de339339bbb",
                        "0x0000000000000000000000001f443ce3c024b2bc635131151fe16d0ca8cd7b98"
                    ]
                },
                "nodeType": 1
            },
            "16": {
                "event": {
                    "contract": "0x65f11b2de17c4af7a8f70858d6ccb63aac215697",
                    "decodedLog": {
                        "name": "Transfer",
                        "params": [
                            {
                                "name": "from",
                                "type": "address",
                                "value": "0xb7b0fe129fefa222efd4eb1f6bef9de339339bbb"
                            },
                            {
                                "name": "to",
                                "type": "address",
                                "value": "0xe401e4254391ce5eaa1b42675c9d7055a329521a"
                            },
                            {
                                "decimalAvailable": true,
                                "name": "value",
                                "type": "uint256",
                                "value": "9,999,999,999,999,990,000,000,000,000"
                            }
                        ],
                        "signature": "Transfer(address,address,uint256)"
                    },
                    "id": 16,
                    "logData": "0x0000000000000000000000000000000000000000204fce5e3e24f948c18d6000",
                    "logDecoded": true,
                    "operation": "EVENT",
                    "revert": false,
                    "status": true,
                    "topics": [
                        "0xddf252ad1be2c89b69c2b068fc378daa952ba7f163c4a11628f55a4df523b3ef",
                        "0x000000000000000000000000b7b0fe129fefa222efd4eb1f6bef9de339339bbb",
                        "0x000000000000000000000000e401e4254391ce5eaa1b42675c9d7055a329521a"
                    ]
                },
                "nodeType": 1
            },
            "17": {
                "event": {
                    "contract": "0x65f11b2de17c4af7a8f70858d6ccb63aac215697",
                    "decodedLog": {
                        "name": "Transfer",
                        "params": [
                            {
                                "name": "from",
                                "type": "address",
                                "value": "0xb7b0fe129fefa222efd4eb1f6bef9de339339bbb"
                            },
                            {
                                "name": "to",
                                "type": "address",
                                "value": "0x000000000000000000000000000000000000dead"
                            },
                            {
                                "decimalAvailable": true,
                                "name": "value",
                                "type": "uint256",
                                "value": "19,997,999,999,999,980,002,000,000,000,000"
                            }
                        ],
                        "signature": "Transfer(address,address,uint256)"
                    },
                    "id": 17,
                    "logData": "0x00000000000000000000000000000000000000fc6905e3cc413a89bff9c82000",
                    "logDecoded": true,
                    "operation": "EVENT",
                    "revert": false,
                    "status": true,
                    "topics": [
                        "0xddf252ad1be2c89b69c2b068fc378daa952ba7f163c4a11628f55a4df523b3ef",
                        "0x000000000000000000000000b7b0fe129fefa222efd4eb1f6bef9de339339bbb",
                        "0x000000000000000000000000000000000000000000000000000000000000dead"
                    ]
                },
                "nodeType": 1
            },
            "18": {
                "event": {
                    "contract": "0x65f11b2de17c4af7a8f70858d6ccb63aac215697",
                    "decodedLog": {
                        "name": "Transfer",
                        "params": [
                            {
                                "name": "from",
                                "type": "address",
                                "value": "0xb7b0fe129fefa222efd4eb1f6bef9de339339bbb"
                            },
                            {
                                "name": "to",
                                "type": "address",
                                "value": "0x88ff4f62a75733c0f5afe58672121568a680de84"
                            },
                            {
                                "decimalAvailable": true,
                                "name": "value",
                                "type": "uint256",
                                "value": "999,899,999,999,999,000,100,000,000,000,000"
                            }
                        ],
                        "signature": "Transfer(address,address,uint256)"
                    },
                    "id": 18,
                    "logData": "0x000000000000000000000000000000000000314c83267de4bd6ee77ec9164000",
                    "logDecoded": true,
                    "operation": "EVENT",
                    "revert": false,
                    "status": true,
                    "topics": [
                        "0xddf252ad1be2c89b69c2b068fc378daa952ba7f163c4a11628f55a4df523b3ef",
                        "0x000000000000000000000000b7b0fe129fefa222efd4eb1f6bef9de339339bbb",
                        "0x00000000000000000000000088ff4f62a75733c0f5afe58672121568a680de84"
                    ]
                },
                "nodeType": 1
            },
            "19": {
                "invocation": {
                    "address": "0x65f11b2de17c4af7a8f70858d6ccb63aac215697",
                    "callData": "0x00000000000000000000000088ff4f62a75733c0f5afe58672121568a680de84",
                    "decodedMethod": {
                        "callParams": [
                            {
                                "name": "",
                                "type": "address",
                                "value": "0x88ff4f62a75733c0f5afe58672121568a680de84"
                            }
                        ],
                        "constructorArguments": "",
                        "name": "balanceOf",
                        "returnParams": [
                            {
                                "decimalAvailable": true,
                                "name": "",
                                "type": "uint256",
                                "value": "979,902,000,000,645,643,464,328,996,596,407"
                            }
                        ],
                        "signature": "balanceOf(address)"
                    },
                    "errorInfo": "",
                    "fromAddress": "0x88ff4f62a75733c0f5afe58672121568a680de84",
                    "gasUsed": 1373,
                    "id": 19,
                    "methodDecoded": true,
                    "operation": "STATICCALL",
                    "output": "0x00000000000000000000000000000000000030501a209a3b89e80b76d26e2ab7",
                    "revert": false,
                    "revertMessage": "",
                    "selector": "0x70a08231",
                    "status": true,
                    "value": "0"
                },
                "nodeType": 0
            },
            "2": {
                "invocation": {
                    "address": "0x88ff4f62a75733c0f5afe58672121568a680de84",
                    "callData": "0x00000000000000000000000000000000000000000000000000000000000000000000000000000000000000000000000000000000000000005fadba420c821515000000000000000000000000b7b0fe129fefa222efd4eb1f6bef9de339339bbb000000000000000000000000000000000000000000000000000000000000008000000000000000000000000000000000000000000000000000000000000000013100000000000000000000000000000000000000000000000000000000000000",
                    "decodedMethod": {
                        "callParams": [
                            {
                                "name": "amount0Out",
                                "type": "uint256",
                                "value": "0"
                            },
                            {
                                "name": "amount1Out",
                                "type": "uint256",
                                "value": "6,894,371,397,414,556,949"
                            },
                            {
                                "name": "to",
                                "type": "address",
                                "value": "0xb7b0fe129fefa222efd4eb1f6bef9de339339bbb"
                            },
                            {
                                "name": "data",
                                "type": "bytes",
                                "value": "0x31"
                            }
                        ],
                        "constructorArguments": "",
                        "name": "swap",
                        "returnParams": [],
                        "signature": "swap(uint256,uint256,address,bytes)"
                    },
                    "errorInfo": "",
                    "fromAddress": "0xb7b0fe129fefa222efd4eb1f6bef9de339339bbb",
                    "gasUsed": 387877,
                    "id": 2,
                    "methodDecoded": true,
                    "operation": "CALL",
                    "output": "",
                    "revert": false,
                    "revertMessage": "",
                    "selector": "0x022c0d9f",
                    "status": true,
                    "value": "0"
                },
                "nodeType": 0
            },
            "20": {
                "invocation": {
                    "address": "0xbb4cdb9cbd36b01bd1cbaebf2de08d9173bc095c",
                    "callData": "0x00000000000000000000000088ff4f62a75733c0f5afe58672121568a680de84",
                    "decodedMethod": {
                        "callParams": [
                            {
                                "name": "",
                                "type": "address",
                                "value": "0x88ff4f62a75733c0f5afe58672121568a680de84"
                            }
                        ],
                        "constructorArguments": "",
                        "name": "balanceOf",
                        "returnParams": [
                            {
                                "decimalAvailable": true,
                                "name": "",
                                "type": "uint256",
                                "value": "1,000,000,000,000,000"
                            }
                        ],
                        "signature": "balanceOf(address)"
                    },
                    "errorInfo": "",
                    "fromAddress": "0x88ff4f62a75733c0f5afe58672121568a680de84",
                    "gasUsed": 1234,
                    "id": 20,
                    "methodDecoded": true,
                    "operation": "STATICCALL",
                    "output": "0x00000000000000000000000000000000000000000000000000038d7ea4c68000",
                    "revert": false,
                    "revertMessage": "",
                    "selector": "0x70a08231",
                    "status": true,
                    "value": "0"
                },
                "nodeType": 0
            },
            "21": {
                "event": {
                    "contract": "0x88ff4f62a75733c0f5afe58672121568a680de84",
                    "decodedLog": {
                        "name": "Sync",
                        "params": [
                            {
                                "name": "reserve0",
                                "type": "uint112",
                                "value": "979,902,000,000,645,643,464,328,996,596,407"
                            },
                            {
                                "name": "reserve1",
                                "type": "uint112",
                                "value": "1,000,000,000,000,000"
                            }
                        ],
                        "signature": "Sync(uint112,uint112)"
                    },
                    "id": 21,
                    "logData": "0x00000000000000000000000000000000000030501a209a3b89e80b76d26e2ab700000000000000000000000000000000000000000000000000038d7ea4c68000",
                    "logDecoded": true,
                    "operation": "EVENT",
                    "revert": false,
                    "status": true,
                    "topics": [
                        "0x1c411e9a96e071241c2f21f7726b17ae89e3cab4c78be50e062b03a9fffbbad1"
                    ]
                },
                "nodeType": 1
            },
            "22": {
                "event": {
                    "contract": "0x88ff4f62a75733c0f5afe58672121568a680de84",
                    "decodedLog": {
                        "name": "Swap",
                        "params": [
                            {
                                "name": "sender",
                                "type": "address",
                                "value": "0xb7b0fe129fefa222efd4eb1f6bef9de339339bbb"
                            },
                            {
                                "name": "to",
                                "type": "address",
                                "value": "0xb7b0fe129fefa222efd4eb1f6bef9de339339bbb"
                            },
                            {
                                "name": "amount0In",
                                "type": "uint256",
                                "value": "979,901,999,999,999,020,098,000,000,000,000"
                            },
                            {
                                "name": "amount1In",
                                "type": "uint256",
                                "value": "0"
                            },
                            {
                                "name": "amount0Out",
                                "type": "uint256",
                                "value": "0"
                            },
                            {
                                "name": "amount1Out",
                                "type": "uint256",
                                "value": "6,894,371,397,414,556,949"
                            }
                        ],
                        "signature": "Swap(address,uint256,uint256,uint256,uint256,address)"
                    },
                    "id": 22,
                    "logData": "0x00000000000000000000000000000000000030501a209a187c345dbecf4e2000000000000000000000000000000000000000000000000000000000000000000000000000000000000000000000000000000000000000000000000000000000000000000000000000000000000000000000000000000000005fadba420c821515",
                    "logDecoded": true,
                    "operation": "EVENT",
                    "revert": false,
                    "status": true,
                    "topics": [
                        "0xd78ad95fa46c994b6551d0da85fc275fe613ce37657fb8d5e3d130840159d822",
                        "0x000000000000000000000000b7b0fe129fefa222efd4eb1f6bef9de339339bbb",
                        "0x000000000000000000000000b7b0fe129fefa222efd4eb1f6bef9de339339bbb"
                    ]
                },
                "nodeType": 1
            },
            "3": {
                "invocation": {
                    "address": "0xbb4cdb9cbd36b01bd1cbaebf2de08d9173bc095c",
                    "callData": "0x000000000000000000000000b7b0fe129fefa222efd4eb1f6bef9de339339bbb0000000000000000000000000000000000000000000000005fadba420c821515",
                    "decodedMethod": {
                        "callParams": [
                            {
                                "name": "dst",
                                "type": "address",
                                "value": "0xb7b0fe129fefa222efd4eb1f6bef9de339339bbb"
                            },
                            {
                                "decimalAvailable": true,
                                "name": "wad",
                                "type": "uint256",
                                "value": "6,894,371,397,414,556,949"
                            }
                        ],
                        "constructorArguments": "",
                        "name": "transfer",
                        "returnParams": [
                            {
                                "name": "",
                                "type": "bool",
                                "value": true
                            }
                        ],
                        "signature": "transfer(address,uint256)"
                    },
                    "errorInfo": "",
                    "fromAddress": "0x88ff4f62a75733c0f5afe58672121568a680de84",
                    "gasUsed": 30162,
                    "id": 3,
                    "methodDecoded": true,
                    "operation": "CALL",
                    "output": "0x0000000000000000000000000000000000000000000000000000000000000001",
                    "revert": false,
                    "revertMessage": "",
                    "selector": "0xa9059cbb",
                    "status": true,
                    "value": "0"
                },
                "nodeType": 0
            },
            "4": {
                "event": {
                    "contract": "0xbb4cdb9cbd36b01bd1cbaebf2de08d9173bc095c",
                    "decodedLog": {
                        "name": "Transfer",
                        "params": [
                            {
                                "name": "src",
                                "type": "address",
                                "value": "0x88ff4f62a75733c0f5afe58672121568a680de84"
                            },
                            {
                                "name": "dst",
                                "type": "address",
                                "value": "0xb7b0fe129fefa222efd4eb1f6bef9de339339bbb"
                            },
                            {
                                "decimalAvailable": true,
                                "name": "wad",
                                "type": "uint256",
                                "value": "6,894,371,397,414,556,949"
                            }
                        ],
                        "signature": "Transfer(address,address,uint256)"
                    },
                    "id": 4,
                    "logData": "0x0000000000000000000000000000000000000000000000005fadba420c821515",
                    "logDecoded": true,
                    "operation": "EVENT",
                    "revert": false,
                    "status": true,
                    "topics": [
                        "0xddf252ad1be2c89b69c2b068fc378daa952ba7f163c4a11628f55a4df523b3ef",
                        "0x00000000000000000000000088ff4f62a75733c0f5afe58672121568a680de84",
                        "0x000000000000000000000000b7b0fe129fefa222efd4eb1f6bef9de339339bbb"
                    ]
                },
                "nodeType": 1
            },
            "5": {
                "invocation": {
                    "address": "0xb7b0fe129fefa222efd4eb1f6bef9de339339bbb",
                    "callData": "0x000000000000000000000000b7b0fe129fefa222efd4eb1f6bef9de339339bbb00000000000000000000000000000000000000000000000000000000000000000000000000000000000000000000000000000000000000005fadba420c821515000000000000000000000000000000000000000000000000000000000000008000000000000000000000000000000000000000000000000000000000000000013100000000000000000000000000000000000000000000000000000000000000",
                    "decodedMethod": {
                        "callParams": [
                            {
                                "name": "_sender",
                                "type": "address",
                                "value": "0xb7b0fe129fefa222efd4eb1f6bef9de339339bbb"
                            },
                            {
                                "name": "_amount0",
                                "type": "uint256",
                                "value": "0"
                            },
                            {
                                "name": "_amount1",
                                "type": "uint256",
                                "value": "6,894,371,397,414,556,949"
                            },
                            {
                                "name": "_data",
                                "type": "bytes",
                                "value": "0x31"
                            }
                        ],
                        "constructorArguments": "",
                        "name": "pancakeCall",
                        "returnParams": [],
                        "signature": "pancakeCall(address,uint256,uint256,bytes)"
                    },
                    "errorInfo": "",
                    "fromAddress": "0x88ff4f62a75733c0f5afe58672121568a680de84",
                    "gasUsed": 306742,
                    "id": 5,
                    "methodDecoded": true,
                    "operation": "CALL",
                    "output": "",
                    "revert": false,
                    "revertMessage": "",
                    "selector": "0x84800812",
                    "status": true,
                    "value": "0"
                },
                "nodeType": 0
            },
            "6": {
                "invocation": {
                    "address": "0x65f11b2de17c4af7a8f70858d6ccb63aac215697",
                    "callData": "0x00000000000000000000000088ff4f62a75733c0f5afe58672121568a680de84000000000000000000000000000000000000314dc6448d932ae0a456589c0000",
                    "decodedMethod": {
                        "callParams": [
                            {
                                "name": "to",
                                "type": "address",
                                "value": "0x88ff4f62a75733c0f5afe58672121568a680de84"
                            },
                            {
                                "decimalAvailable": true,
                                "name": "value",
                                "type": "uint256",
                                "value": "999,999,999,999,999,000,000,000,000,000,000"
                            }
                        ],
                        "constructorArguments": "",
                        "name": "transfer",
                        "returnParams": [
                            {
                                "name": "",
                                "type": "bool",
                                "value": true
                            }
                        ],
                        "signature": "transfer(address,uint256)"
                    },
                    "errorInfo": "",
                    "fromAddress": "0xb7b0fe129fefa222efd4eb1f6bef9de339339bbb",
                    "gasUsed": 300902,
                    "id": 6,
                    "methodDecoded": true,
                    "operation": "CALL",
                    "output": "0x0000000000000000000000000000000000000000000000000000000000000001",
                    "revert": false,
                    "revertMessage": "",
                    "selector": "0xa9059cbb",
                    "status": true,
                    "value": "0"
                },
                "nodeType": 0
            },
            "7": {
                "event": {
                    "contract": "0x65f11b2de17c4af7a8f70858d6ccb63aac215697",
                    "decodedLog": {
                        "name": "Transfer",
                        "params": [
                            {
                                "name": "from",
                                "type": "address",
                                "value": "0xb7b0fe129fefa222efd4eb1f6bef9de339339bbb"
                            },
                            {
                                "name": "to",
                                "type": "address",
                                "value": "0x5d70f43fcd1bac6bb09ccccfe72e6800cc903fcb"
                            },
                            {
                                "decimalAvailable": true,
                                "name": "value",
                                "type": "uint256",
                                "value": "9,999,999,999,999,990,000,000,000,000"
                            }
                        ],
                        "signature": "Transfer(address,address,uint256)"
                    },
                    "id": 7,
                    "logData": "0x0000000000000000000000000000000000000000204fce5e3e24f948c18d6000",
                    "logDecoded": true,
                    "operation": "EVENT",
                    "revert": false,
                    "status": true,
                    "topics": [
                        "0xddf252ad1be2c89b69c2b068fc378daa952ba7f163c4a11628f55a4df523b3ef",
                        "0x000000000000000000000000b7b0fe129fefa222efd4eb1f6bef9de339339bbb",
                        "0x0000000000000000000000005d70f43fcd1bac6bb09ccccfe72e6800cc903fcb"
                    ]
                },
                "nodeType": 1
            },
            "8": {
                "event": {
                    "contract": "0x65f11b2de17c4af7a8f70858d6ccb63aac215697",
                    "decodedLog": {
                        "name": "Transfer",
                        "params": [
                            {
                                "name": "from",
                                "type": "address",
                                "value": "0xb7b0fe129fefa222efd4eb1f6bef9de339339bbb"
                            },
                            {
                                "name": "to",
                                "type": "address",
                                "value": "0x626160f691c0637afac2fa96ed23def5dbede6bb"
                            },
                            {
                                "decimalAvailable": true,
                                "name": "value",
                                "type": "uint256",
                                "value": "9,999,999,999,999,990,000,000,000,000"
                            }
                        ],
                        "signature": "Transfer(address,address,uint256)"
                    },
                    "id": 8,
                    "logData": "0x0000000000000000000000000000000000000000204fce5e3e24f948c18d6000",
                    "logDecoded": true,
                    "operation": "EVENT",
                    "revert": false,
                    "status": true,
                    "topics": [
                        "0xddf252ad1be2c89b69c2b068fc378daa952ba7f163c4a11628f55a4df523b3ef",
                        "0x000000000000000000000000b7b0fe129fefa222efd4eb1f6bef9de339339bbb",
                        "0x000000000000000000000000626160f691c0637afac2fa96ed23def5dbede6bb"
                    ]
                },
                "nodeType": 1
            },
            "9": {
                "event": {
                    "contract": "0x65f11b2de17c4af7a8f70858d6ccb63aac215697",
                    "decodedLog": {
                        "name": "Transfer",
                        "params": [
                            {
                                "name": "from",
                                "type": "address",
                                "value": "0xb7b0fe129fefa222efd4eb1f6bef9de339339bbb"
                            },
                            {
                                "name": "to",
                                "type": "address",
                                "value": "0x39d57605c83ba2dbf684f03faee49990e897f932"
                            },
                            {
                                "decimalAvailable": true,
                                "name": "value",
                                "type": "uint256",
                                "value": "9,999,999,999,999,990,000,000,000,000"
                            }
                        ],
                        "signature": "Transfer(address,address,uint256)"
                    },
                    "id": 9,
                    "logData": "0x0000000000000000000000000000000000000000204fce5e3e24f948c18d6000",
                    "logDecoded": true,
                    "operation": "EVENT",
                    "revert": false,
                    "status": true,
                    "topics": [
                        "0xddf252ad1be2c89b69c2b068fc378daa952ba7f163c4a11628f55a4df523b3ef",
                        "0x000000000000000000000000b7b0fe129fefa222efd4eb1f6bef9de339339bbb",
                        "0x00000000000000000000000039d57605c83ba2dbf684f03faee49990e897f932"
                    ]
                },
                "nodeType": 1
            }
        },
        "gasFlame": [
            {
                "children": [
                    {
                        "children": [
                            {
                                "children": [],
                                "depth": 0,
                                "name": "Initial Gas",
                                "value": 21432
                            },
                            {
                                "children": [
                                    {
                                        "children": [],
                                        "depth": 1,
                                        "name": "balanceOf",
                                        "value": 1234
                                    },
                                    {
                                        "children": [
                                            {
                                                "children": [],
                                                "depth": 2,
                                                "name": "transfer",
                                                "value": 30162
                                            },
                                            {
                                                "children": [
                                                    {
                                                        "children": [],
                                                        "depth": 3,
                                                        "name": "transfer",
                                                        "value": 300902
                                                    }
                                                ],
                                                "depth": 2,
                                                "name": "pancakeCall",
                                                "value": 306742
                                            },
                                            {
                                                "children": [],
                                                "depth": 2,
                                                "name": "balanceOf",
                                                "value": 1373
                                            },
                                            {
                                                "children": [],
                                                "depth": 2,
                                                "name": "balanceOf",
                                                "value": 1234
                                            }
                                        ],
                                        "depth": 1,
                                        "name": "swap",
                                        "value": 387877
                                    }
                                ],
                                "depth": 0,
                                "name": "Executed Gas",
                                "value": 417379
                            }
                        ],
                        "depth": -1,
                        "name": "Actual Gas Used",
                        "value": 434611
                    },
                    {
                        "children": [],
                        "depth": -1,
                        "name": "Refunded Gas",
                        "value": 4200
                    }
                ],
                "depth": -2,
                "name": "Total Gas",
                "value": 438811
            }
        ],
        "isConfirmed": true,
        "mainTrace": [
            {
                "children": [
                    {
                        "children": [
                            {
                                "children": [],
                                "depth": 1,
                                "id": 1,
                                "order": 1
                            },
                            {
                                "children": [
                                    {
                                        "children": [
                                            {
                                                "children": [],
                                                "depth": 3,
                                                "id": 4,
                                                "order": 4
                                            }
                                        ],
                                        "depth": 2,
                                        "id": 3,
                                        "order": 3
                                    },
                                    {
                                        "children": [
                                            {
                                                "children": [
                                                    {
                                                        "children": [],
                                                        "depth": 4,
                                                        "id": 7,
                                                        "order": 7
                                                    },
                                                    {
                                                        "children": [],
                                                        "depth": 4,
                                                        "id": 8,
                                                        "order": 8
                                                    },
                                                    {
                                                        "children": [],
                                                        "depth": 4,
                                                        "id": 9,
                                                        "order": 9
                                                    },
                                                    {
                                                        "children": [],
                                                        "depth": 4,
                                                        "id": 10,
                                                        "order": 10
                                                    },
                                                    {
                                                        "children": [],
                                                        "depth": 4,
                                                        "id": 11,
                                                        "order": 11
                                                    },
                                                    {
                                                        "children": [],
                                                        "depth": 4,
                                                        "id": 12,
                                                        "order": 12
                                                    },
                                                    {
                                                        "children": [],
                                                        "depth": 4,
                                                        "id": 13,
                                                        "order": 13
                                                    },
                                                    {
                                                        "children": [],
                                                        "depth": 4,
                                                        "id": 14,
                                                        "order": 14
                                                    },
                                                    {
                                                        "children": [],
                                                        "depth": 4,
                                                        "id": 15,
                                                        "order": 15
                                                    },
                                                    {
                                                        "children": [],
                                                        "depth": 4,
                                                        "id": 16,
                                                        "order": 16
                                                    },
                                                    {
                                                        "children": [],
                                                        "depth": 4,
                                                        "id": 17,
                                                        "order": 17
                                                    },
                                                    {
                                                        "children": [],
                                                        "depth": 4,
                                                        "id": 18,
                                                        "order": 18
                                                    }
                                                ],
                                                "depth": 3,
                                                "id": 6,
                                                "order": 6
                                            }
                                        ],
                                        "depth": 2,
                                        "id": 5,
                                        "order": 5
                                    },
                                    {
                                        "children": [],
                                        "depth": 2,
                                        "id": 19,
                                        "order": 19
                                    },
                                    {
                                        "children": [],
                                        "depth": 2,
                                        "id": 20,
                                        "order": 20
                                    },
                                    {
                                        "children": [],
                                        "depth": 2,
                                        "id": 21,
                                        "order": 21
                                    },
                                    {
                                        "children": [],
                                        "depth": 2,
                                        "id": 22,
                                        "order": 22
                                    }
                                ],
                                "depth": 1,
                                "id": 2,
                                "order": 2
                            }
                        ],
                        "depth": 0,
                        "id": 0,
                        "order": 0
                    }
                ],
                "depth": -1,
                "id": -1,
                "order": -1
            }
        ],
        "mainTraceNodeCount": 23,
        "parentIdMap": {
            "0": -1,
            "1": 0,
            "10": 6,
            "11": 6,
            "12": 6,
            "13": 6,
            "14": 6,
            "15": 6,
            "16": 6,
            "17": 6,
            "18": 6,
            "19": 2,
            "2": 0,
            "20": 2,
            "21": 2,
            "22": 2,
            "3": 2,
            "4": 3,
            "5": 2,
            "6": 5,
            "7": 6,
            "8": 6,
            "9": 6
        },
        "tidyTrace": [
            {
                "children": [
                    {
                        "children": [
                            {
                                "children": [
                                    {
                                        "children": [
                                            {
                                                "children": [],
                                                "depth": 3,
                                                "id": 4,
                                                "order": 4
                                            }
                                        ],
                                        "depth": 2,
                                        "id": 3,
                                        "order": 3
                                    },
                                    {
                                        "children": [
                                            {
                                                "children": [
                                                    {
                                                        "children": [],
                                                        "depth": 4,
                                                        "id": 7,
                                                        "order": 7
                                                    },
                                                    {
                                                        "children": [],
                                                        "depth": 4,
                                                        "id": 8,
                                                        "order": 8
                                                    },
                                                    {
                                                        "children": [],
                                                        "depth": 4,
                                                        "id": 9,
                                                        "order": 9
                                                    },
                                                    {
                                                        "children": [],
                                                        "depth": 4,
                                                        "id": 10,
                                                        "order": 10
                                                    },
                                                    {
                                                        "children": [],
                                                        "depth": 4,
                                                        "id": 11,
                                                        "order": 11
                                                    },
                                                    {
                                                        "children": [],
                                                        "depth": 4,
                                                        "id": 12,
                                                        "order": 12
                                                    },
                                                    {
                                                        "children": [],
                                                        "depth": 4,
                                                        "id": 13,
                                                        "order": 13
                                                    },
                                                    {
                                                        "children": [],
                                                        "depth": 4,
                                                        "id": 14,
                                                        "order": 14
                                                    },
                                                    {
                                                        "children": [],
                                                        "depth": 4,
                                                        "id": 15,
                                                        "order": 15
                                                    },
                                                    {
                                                        "children": [],
                                                        "depth": 4,
                                                        "id": 16,
                                                        "order": 16
                                                    },
                                                    {
                                                        "children": [],
                                                        "depth": 4,
                                                        "id": 17,
                                                        "order": 17
                                                    },
                                                    {
                                                        "children": [],
                                                        "depth": 4,
                                                        "id": 18,
                                                        "order": 18
                                                    }
                                                ],
                                                "depth": 3,
                                                "id": 6,
                                                "order": 6
                                            }
                                        ],
                                        "depth": 2,
                                        "id": 5,
                                        "order": 5
                                    },
                                    {
                                        "children": [],
                                        "depth": 2,
                                        "id": 21,
                                        "order": 21
                                    },
                                    {
                                        "children": [],
                                        "depth": 2,
                                        "id": 22,
                                        "order": 22
                                    }
                                ],
                                "depth": 1,
                                "id": 2,
                                "order": 2
                            }
                        ],
                        "depth": 0,
                        "id": 0,
                        "order": 0
                    }
                ],
                "depth": -1,
                "id": -1,
                "order": -1
            }
        ],
        "tidyTraceNodeCount": 20
    },
    "state_change": {
        "stateChanges": [
            {
                "address": "0x65f11b2de17c4af7a8f70858d6ccb63aac215697",
                "erc": "ERC-20",
                "slots": [
                    {
                        "current": "0x0000000000000000000000000000000000000000204fce5e3e24f948c18d6000",
                        "key": "0x5c76cc45304d8599483a0cf33a8230962400478a8f8ca1f9904622df26399342",
                        "prev": "0x0000000000000000000000000000000000000000000000000000000000000000"
                    },
                    {
                        "current": "0x0000000000000000000000000000000000000000204fce5e3e24f948c18d6000",
                        "key": "0x63f7d2ec3a22c7db1a003de45375dc62824563ef6ddf4f374b186c3df32adaee",
                        "prev": "0x0000000000000000000000000000000000000000000000000000000000000000"
                    },
                    {
                        "current": "0x0000000000000000000000000000000000000000204fce5e3e24f948c18d6000",
                        "key": "0xb3d444a37df52a2f390abc1cbfa486f3aa412827d4668106845488b3245a7968",
                        "prev": "0x0000000000000000000000000000000000000000000000000000000000000000"
                    },
                    {
                        "current": "0x0000000000000000000000000000000000000000204fce5e3e24f948c18d6000",
                        "key": "0x4e9ea2a0d39e8509fa36432172a7c9f39e1372a99081dac67a9c3403e92580f3",
                        "prev": "0x0000000000000000000000000000000000000000000000000000000000000000"
                    },
                    {
                        "current": "0x0000000000000000000000000000000000000000204fce5e3e24f948c18d6000",
                        "key": "0x860fdb2392c89e4b0a2895c3baf7881c3a208e80d740778bb950f367003b98c6",
                        "prev": "0x0000000000000000000000000000000000000000000000000000000000000000"
                    },
                    {
                        "current": "0x0000000000000000000000000000000000000000204fce5e3e24f948c18d6000",
                        "key": "0xc9a1c6ebae230f2340b650fa2915f8a156cfe301a1ed80f9eda0b521866c9549",
                        "prev": "0x0000000000000000000000000000000000000000000000000000000000000000"
                    },
                    {
                        "current": "0x00000000000000000000000000000000000000fc6905e3ce045f2e4fe80b8472",
                        "key": "0x6a9609baa168169acaea398c4407efea4be641bb08e21e88806d9836fd9333cc",
                        "prev": "0x000000000000000000000000000000000000000000000001c324a48fee436472"
                    },
                    {
                        "current": "0x0000000000000000000000000000000000000000204fce5e3e24f948c18d6000",
                        "key": "0x4ff9d0278e8d043520666f94df9c4b38eac666fbf5dea42755ed6aba02cf7071",
                        "prev": "0x0000000000000000000000000000000000000000000000000000000000000000"
                    },
                    {
                        "current": "0xffffffffffffffffffffffffffffffffffffceb239bb726cd51f5ba9a7640000",
                        "key": "0xbd1300361a11200f90119bca14aedba2fc9bcb3a463389ea89b134d0bb2c9064",
                        "prev": "0x0000000000000000000000000000000000000000000000000000000000000000"
                    },
                    {
                        "current": "0x0000000000000000000000000000000000000000204fce5e3e24f948c18d6000",
                        "key": "0x2613b33c3d40a757253feb22b441ef9dfae257aa0230b9adef6a996979721010",
                        "prev": "0x0000000000000000000000000000000000000000000000000000000000000000"
                    },
                    {
                        "current": "0x00000000000000000000000000000000000030501a209a3b89e80b76d26e2ab7",
                        "key": "0xebc4c024d2c141c153c2a11d4344e220749c2158af9498ff8524abe0ca27a7b1",
                        "prev": "0x0000000000000000000000000000000000000000000000230db3adb803200ab7"
                    },
                    {
                        "current": "0x0000000000000000000000000000000000000000204fce5e3e24f948c18d6000",
                        "key": "0x37dcb50a88ca5b4014df745f15a9c0062dd7dd4775c89a7aff06388c260ad830",
                        "prev": "0x0000000000000000000000000000000000000000000000000000000000000000"
                    },
                    {
                        "current": "0x0000000000000000000000000000000000000000204fce5e3e24f948c18d6000",
                        "key": "0x6e5db87117fa44d9b680927dc26b85cc94d330e349a25e2e61bccf00d82790fa",
                        "prev": "0x0000000000000000000000000000000000000000000000000000000000000000"
                    }
                ],
                "storageVariables": [
                    {
                        "name": "balanceOf",
                        "type": "mapping(address => uint256)",
                        "value": {
                            "pairs": [
                                {
                                    "key": "0x000000000000000000000000000000000000dead",
                                    "value": {
                                        "current": "19998000000032488290948351755378",
                                        "prev": "32508288948351755378",
                                        "typeTag": 1
                                    }
                                },
                                {
                                    "key": "0x1f443ce3c024b2bc635131151fe16d0ca8cd7b98",
                                    "value": {
                                        "current": "9999999999999990000000000000",
                                        "prev": "0",
                                        "typeTag": 1
                                    }
                                },
                                {
                                    "key": "0x39d57605c83ba2dbf684f03faee49990e897f932",
                                    "value": {
                                        "current": "9999999999999990000000000000",
                                        "prev": "0",
                                        "typeTag": 1
                                    }
                                },
                                {
                                    "key": "0x5d70f43fcd1bac6bb09ccccfe72e6800cc903fcb",
                                    "value": {
                                        "current": "9999999999999990000000000000",
                                        "prev": "0",
                                        "typeTag": 1
                                    }
                                },
                                {
                                    "key": "0x626160f691c0637afac2fa96ed23def5dbede6bb",
                                    "value": {
                                        "current": "9999999999999990000000000000",
                                        "prev": "0",
                                        "typeTag": 1
                                    }
                                },
                                {
                                    "key": "0x626ef2f8bdd10517ffa7eeff4d7739935fee2139",
                                    "value": {
                                        "current": "9999999999999990000000000000",
                                        "prev": "0",
                                        "typeTag": 1
                                    }
                                },
                                {
                                    "key": "0x88ff4f62a75733c0f5afe58672121568a680de84",
                                    "value": {
                                        "current": "979902000000645643464328996596407",
                                        "prev": "646623366328996596407",
                                        "typeTag": 1
                                    }
                                },
                                {
                                    "key": "0x8eaa0fcb07f3904492b145507cc2dfbf9a5aed42",
                                    "value": {
                                        "current": "9999999999999990000000000000",
                                        "prev": "0",
                                        "typeTag": 1
                                    }
                                },
                                {
                                    "key": "0xa7c54f8ab74a6ea716e24ba1cefe9d967d6a6fe9",
                                    "value": {
                                        "current": "9999999999999990000000000000",
                                        "prev": "0",
                                        "typeTag": 1
                                    }
                                },
                                {
                                    "key": "0xb238638efc83a53076a9e7bda2c1d352dfd4299a",
                                    "value": {
                                        "current": "9999999999999990000000000000",
                                        "prev": "0",
                                        "typeTag": 1
                                    }
                                },
                                {
                                    "key": "0xb7b0fe129fefa222efd4eb1f6bef9de339339bbb",
                                    "value": {
                                        "current": "115792089237316195423570985008687907853269983665640564039458584007913129639936",
                                        "prev": "0",
                                        "typeTag": 1
                                    }
                                },
                                {
                                    "key": "0xc7c2aef3ecbdc177404fdb97792f22fe6071ae64",
                                    "value": {
                                        "current": "9999999999999990000000000000",
                                        "prev": "0",
                                        "typeTag": 1
                                    }
                                },
                                {
                                    "key": "0xe401e4254391ce5eaa1b42675c9d7055a329521a",
                                    "value": {
                                        "current": "9999999999999990000000000000",
                                        "prev": "0",
                                        "typeTag": 1
                                    }
                                }
                            ],
                            "typeTag": 4
                        }
                    }
                ]
            },
            {
                "address": "0x88ff4f62a75733c0f5afe58672121568a680de84",
                "erc": "ERC-20",
                "slots": [
                    {
                        "current": "0x00000000000000000000000000000000000b96a534538bb318973608271b8d9b",
                        "key": "0x0000000000000000000000000000000000000000000000000000000000000009",
                        "prev": "0x00000000000000000000000000000000000b345e79a7da5445eb02a88d7b7e8b"
                    },
                    {
                        "current": "0x0000000000000000000000000000000a8c1131d11d01bdfca56c49444e57bc38",
                        "key": "0x000000000000000000000000000000000000000000000000000000000000000a",
                        "prev": "0x0000000000000000000000000000000a7ee13e2abb8a6e4e60156c57aa60682c"
                    },
                    {
                        "current": "0x62ea90b000000000000000038d7ea4c6800030501a209a3b89e80b76d26e2ab7",
                        "key": "0x0000000000000000000000000000000000000000000000000000000000000008",
                        "prev": "0x62ea908c0000000000005fb147c0b14895150000000000230db3adb803200ab7"
                    }
                ],
                "storageVariables": [
                    {
                        "name": "reserve0",
                        "type": "uint112",
                        "value": {
                            "current": "979902000000645643464328996596407",
                            "prev": "646623366328996596407",
                            "typeTag": 1
                        }
                    },
                    {
                        "name": "reserve1",
                        "type": "uint112",
                        "value": {
                            "current": "1000000000000000",
                            "prev": "6895371397414556949",
                            "typeTag": 1
                        }
                    },
                    {
                        "name": "blockTimestampLast",
                        "type": "uint32",
                        "value": {
                            "current": "1659539632",
                            "prev": "1659539596",
                            "typeTag": 1
                        }
                    },
                    {
                        "name": "price0CumulativeLast",
                        "type": "uint256",
                        "value": {
                            "current": "60170715725466774511340738987134363",
                            "prev": "58177435841157162339902203048459915",
                            "typeTag": 1
                        }
                    },
                    {
                        "name": "price1CumulativeLast",
                        "type": "uint256",
                        "value": {
                            "current": "3589004868071601664721464785091935321144",
                            "prev": "3571475924366473672344494648459396147244",
                            "typeTag": 1
                        }
                    }
                ]
            },
            {
                "address": "0xb7b0fe129fefa222efd4eb1f6bef9de339339bbb",
                "erc": "",
                "slots": [
                    {
                        "current": "0x00000000000000000000000088ff4f62a75733c0f5afe58672121568a680de84",
                        "key": "0x0000000000000000000000000000000000000000000000000000000000000002",
                        "prev": "0x0000000000000000000000000000000000000000000000000000000000000000"
                    }
                ],
                "storageVariables": []
            },
            {
                "address": "0xbb4cdb9cbd36b01bd1cbaebf2de08d9173bc095c",
                "erc": "ERC-20",
                "slots": [
                    {
                        "current": "0x00000000000000000000000000000000000000000000000000038d7ea4c68000",
                        "key": "0x8fe6da7517f71488ff6bcb80424b208499ac4a1b7a6595c5fe89be64a8e33b08",
                        "prev": "0x0000000000000000000000000000000000000000000000005fb147c0b1489515"
                    },
                    {
                        "current": "0x0000000000000000000000000000000000000000000000005fadba420c821515",
                        "key": "0x1319a671b08339620f271c04f61852f5bdea353dcc7992780e139b01936c7a4e",
                        "prev": "0x0000000000000000000000000000000000000000000000000000000000000000"
                    }
                ],
                "storageVariables": [
                    {
                        "name": "balanceOf",
                        "type": "mapping(address => uint256)",
                        "value": {
                            "pairs": [
                                {
                                    "key": "0x88ff4f62a75733c0f5afe58672121568a680de84",
                                    "value": {
                                        "current": "1000000000000000",
                                        "prev": "6895371397414556949",
                                        "typeTag": 1
                                    }
                                },
                                {
                                    "key": "0xb7b0fe129fefa222efd4eb1f6bef9de339339bbb",
                                    "value": {
                                        "current": "6894371397414556949",
                                        "prev": "0",
                                        "typeTag": 1
                                    }
                                }
                            ],
                            "typeTag": 4
                        }
                    }
                ]
            }
        ]
    }
}