{
    "balance_change": {
        "balanceChanges": [
            {
                "account": "0x829fe73463ceae6579973b8bcd1e018976040ec4",
                "assets": [
                    {
                        "address": "0xbb4cdb9cbd36b01bd1cbaebf2de08d9173bc095c",
                        "amount": "5.68068370797680611",
                        "iconUrl": "https://assets.blocksec.com/icon/65a007cb-916d-490f-9438-b972e4549029.png",
                        "isERC1155": false,
                        "isERC721": false,
                        "sign": true,
                        "value": "1306.5850881901691554"
                    }
                ]
            },
            {
                "account": "0xd7a7d90b63da1b4e7ef79cb36935d38af0d6d0b4",
                "assets": [
                    {
                        "address": "0x4341bdced3908a45835c67a2dbbde2d2daa6645d",
                        "amount": "95,000,000",
                        "iconUrl": "",
                        "isERC1155": false,
                        "isERC721": false,
                        "sign": true,
                        "value": "2008.98276"
                    }
                ]
            },
            {
                "account": "0x0000000000000000000000000000000000000000",
                "assets": [
                    {
                        "address": "0x4341bdced3908a45835c67a2dbbde2d2daa6645d",
                        "amount": "104,500,000",
                        "iconUrl": "",
                        "isERC1155": false,
                        "isERC721": false,
                        "sign": false,
                        "value": "18546.38228"
                    }
                ]
            },
            {
                "account": "0x16b9a82891338f9ba80e2d6970fdda79d1eb0dae",
                "assets": [
                    {
                        "address": "0x55d398326f99059ff775485246999027b3197955",
                        "amount": "5,683.062170081466106194",
                        "iconUrl": "https://assets.blocksec.com/icon/810ebed5-1cb7-4a60-827d-c7eb0c438c0e.png",
                        "isERC1155": false,
                        "isERC721": false,
                        "sign": true,
                        "value": "5683.06217"
                    },
                    {
                        "address": "0xbb4cdb9cbd36b01bd1cbaebf2de08d9173bc095c",
                        "amount": "24.68068370797680611",
                        "iconUrl": "https://assets.blocksec.com/icon/65a007cb-916d-490f-9438-b972e4549029.png",
                        "isERC1155": false,
                        "isERC721": false,
                        "sign": false,
                        "value": "5676.678188650178806"
                    }
                ]
            },
            {
                "account": "0x2281dcee8dca1b011162401da4166a862c9ad35f",
                "assets": [
                    {
                        "address": "0xeeeeeeeeeeeeeeeeeeeeeeeeeeeeeeeeeeeeeeee",
                        "amount": "19",
                        "iconUrl": "https://assets.blocksec.com/image/1663669189317-2.png",
                        "isERC1155": false,
                        "isERC721": false,
                        "sign": true,
                        "value": "4366.2"
                    }
                ]
            },
            {
                "account": "0x5813d7818c9d8f29a9a96b00031ef576e892def4",
                "assets": [
                    {
                        "address": "0x4341bdced3908a45835c67a2dbbde2d2daa6645d",
                        "amount": "9,500,000",
                        "iconUrl": "",
                        "isERC1155": false,
                        "isERC721": false,
                        "sign": true,
                        "value": "355.9800607"
                    },
                    {
                        "address": "0x55d398326f99059ff775485246999027b3197955",
                        "amount": "5,683.062170081466106194",
                        "iconUrl": "https://assets.blocksec.com/icon/810ebed5-1cb7-4a60-827d-c7eb0c438c0e.png",
                        "isERC1155": false,
                        "isERC721": false,
                        "sign": false,
                        "value": "5683.06217"
                    }
                ]
            },
            {
                "account": "0xbb4cdb9cbd36b01bd1cbaebf2de08d9173bc095c",
                "assets": [
                    {
                        "address": "0xeeeeeeeeeeeeeeeeeeeeeeeeeeeeeeeeeeeeeeee",
                        "amount": "19",
                        "iconUrl": "https://assets.blocksec.com/image/1663669189317-2.png",
                        "isERC1155": false,
                        "isERC721": false,
                        "sign": false,
                        "value": "4366.2"
                    },
                    {
                        "address": "0xbb4cdb9cbd36b01bd1cbaebf2de08d9173bc095c",
                        "amount": "19",
                        "iconUrl": "https://assets.blocksec.com/icon/65a007cb-916d-490f-9438-b972e4549029.png",
                        "isERC1155": false,
                        "isERC721": false,
                        "sign": true,
                        "value": "4370.0930999999998505"
                    }
                ]
            }
        ]
    },
    "profile": {
        "basic_info": {
            "baseFee": "0",
            "blockNumber": 34083189,
            "callData": "0x12514bba00000000000000000000000000000000000000000000000107ad8f556c6c0000",
            "debugEnable": true,
            "errorInfo": "",
            "eventCount": 16,
            "feeRecipient": "0x0bac492386862ad3df4b666bc096b0505bb694da",
            "formatValue": "0",
            "gasLimit": 771372,
            "gasPrice": "3",
            "gasUsed": 362999,
            "intTxnCount": 34,
            "internalRevert": false,
            "internalRevertMessage": "",
            "isContractCreation": false,
            "isFlashloan": true,
            "maxFee": "",
            "nonce": 22,
            "overwritedBlockNumber": -1,
            "priorityFee": "",
            "receiver": "0xd7a7d90b63da1b4e7ef79cb36935d38af0d6d0b4",
            "revertMessage": "",
            "sender": "0x829fe73463ceae6579973b8bcd1e018976040ec4",
            "simulationEnable": true,
            "sourceTxnHash": "0x189a8dc1e0fea34fd7f5fa78c6e9bdf099a8d575ff5c557fa30d90c6acd0b29f",
            "status": true,
            "timestamp": "2023-12-05T08:05:36Z",
            "transactionFee": "0.001088997",
            "txnHash": "0x189a8dc1e0fea34fd7f5fa78c6e9bdf099a8d575ff5c557fa30d90c6acd0b29f",
            "txnIndex": 88,
            "type": 0,
            "value": "0"
        },
        "fund_flow": [
            {
                "amount": "19",
                "from": "0xd534fae679f7f02364d177e9d44f1d15963c0dd7",
                "id": 1,
                "isERC1155": false,
                "isERC721": false,
                "isReverted": false,
                "order": 1,
                "to": "0xd7a7d90b63da1b4e7ef79cb36935d38af0d6d0b4",
                "token": "0xbb4cdb9cbd36b01bd1cbaebf2de08d9173bc095c"
            },
            {
                "amount": "19",
                "from": "0xbb4cdb9cbd36b01bd1cbaebf2de08d9173bc095c",
                "id": 2,
                "isERC1155": false,
                "isERC721": false,
                "isReverted": false,
                "order": 2,
                "to": "0xd7a7d90b63da1b4e7ef79cb36935d38af0d6d0b4",
                "token": "0xeeeeeeeeeeeeeeeeeeeeeeeeeeeeeeeeeeeeeeee"
            },
            {
                "amount": "19",
                "from": "0xd7a7d90b63da1b4e7ef79cb36935d38af0d6d0b4",
                "id": 3,
                "isERC1155": false,
                "isERC721": false,
                "isReverted": false,
                "order": 3,
                "to": "0xbb4cdb9cbd36b01bd1cbaebf2de08d9173bc095c",
                "token": "0xbb4cdb9cbd36b01bd1cbaebf2de08d9173bc095c"
            },
            {
                "amount": "19",
                "from": "0xd7a7d90b63da1b4e7ef79cb36935d38af0d6d0b4",
                "id": 4,
                "isERC1155": false,
                "isERC721": false,
                "isReverted": false,
                "order": 4,
                "to": "0xa915bb6d5c117fb95e9ac2eddae68aad5edb5841",
                "token": "0xeeeeeeeeeeeeeeeeeeeeeeeeeeeeeeeeeeeeeeee"
            },
            {
                "amount": "95,000,000",
                "from": "0x0000000000000000000000000000000000000000",
                "id": 5,
                "isERC1155": false,
                "isERC721": false,
                "isReverted": false,
                "order": 5,
                "to": "0xd7a7d90b63da1b4e7ef79cb36935d38af0d6d0b4",
                "token": "0x4341bdced3908a45835c67a2dbbde2d2daa6645d"
            },
            {
                "amount": "9,500,000",
                "from": "0x0000000000000000000000000000000000000000",
                "id": 6,
                "isERC1155": false,
                "isERC721": false,
                "isReverted": false,
                "order": 6,
                "to": "0x5813d7818c9d8f29a9a96b00031ef576e892def4",
                "token": "0x4341bdced3908a45835c67a2dbbde2d2daa6645d"
            },
            {
                "amount": "19",
                "from": "0xa915bb6d5c117fb95e9ac2eddae68aad5edb5841",
                "id": 7,
                "isERC1155": false,
                "isERC721": false,
                "isReverted": false,
                "order": 7,
                "to": "0x2281dcee8dca1b011162401da4166a862c9ad35f",
                "token": "0xeeeeeeeeeeeeeeeeeeeeeeeeeeeeeeeeeeeeeeee"
            },
            {
                "amount": "5,683.062170081466106194",
                "from": "0x5813d7818c9d8f29a9a96b00031ef576e892def4",
                "id": 8,
                "isERC1155": false,
                "isERC721": false,
                "isReverted": false,
                "order": 8,
                "to": "0xd7a7d90b63da1b4e7ef79cb36935d38af0d6d0b4",
                "token": "0x55d398326f99059ff775485246999027b3197955"
            },
            {
                "amount": "5,683.062170081466106194",
                "from": "0xd7a7d90b63da1b4e7ef79cb36935d38af0d6d0b4",
                "id": 9,
                "isERC1155": false,
                "isERC721": false,
                "isReverted": false,
                "order": 9,
                "to": "0x16b9a82891338f9ba80e2d6970fdda79d1eb0dae",
                "token": "0x55d398326f99059ff775485246999027b3197955"
            },
            {
                "amount": "24.68068370797680611",
                "from": "0x16b9a82891338f9ba80e2d6970fdda79d1eb0dae",
                "id": 10,
                "isERC1155": false,
                "isERC721": false,
                "isReverted": false,
                "order": 10,
                "to": "0xd7a7d90b63da1b4e7ef79cb36935d38af0d6d0b4",
                "token": "0xbb4cdb9cbd36b01bd1cbaebf2de08d9173bc095c"
            },
            {
                "amount": "19",
                "from": "0xd7a7d90b63da1b4e7ef79cb36935d38af0d6d0b4",
                "id": 11,
                "isERC1155": false,
                "isERC721": false,
                "isReverted": false,
                "order": 11,
                "to": "0xd534fae679f7f02364d177e9d44f1d15963c0dd7",
                "token": "0xbb4cdb9cbd36b01bd1cbaebf2de08d9173bc095c"
            },
            {
                "amount": "5.68068370797680611",
                "from": "0xd7a7d90b63da1b4e7ef79cb36935d38af0d6d0b4",
                "id": 12,
                "isERC1155": false,
                "isERC721": false,
                "isReverted": false,
                "order": 12,
                "to": "0x829fe73463ceae6579973b8bcd1e018976040ec4",
                "token": "0xbb4cdb9cbd36b01bd1cbaebf2de08d9173bc095c"
            }
        ],
        "token_infos": [
            {
                "address": "0x55d398326f99059ff775485246999027b3197955",
                "decimals": 18
            },
            {
                "address": "0xbb4cdb9cbd36b01bd1cbaebf2de08d9173bc095c",
                "decimals": 18
            },
            {
                "address": "0xeeeeeeeeeeeeeeeeeeeeeeeeeeeeeeeeeeeeeeee",
                "decimals": 18
            },
            {
                "address": "0x4341bdced3908a45835c67a2dbbde2d2daa6645d",
                "decimals": 18
            }
        ]
    },
    "address_label": {
        "labels": [
            {
                "address": "0x16b9a82891338f9ba80e2d6970fdda79d1eb0dae",
                "label": "PancakeSwap: WBNB-BSC-USD 2"
            },
            {
                "address": "0x55d398326f99059ff775485246999027b3197955",
                "label": "BUSD-T Stablecoin"
            },
            {
                "address": "0x4341bdced3908a45835c67a2dbbde2d2daa6645d",
                "label": "MAMO"
            },
            {
                "address": "0x0000000000000000000000000000000000000002",
                "label": "Precompiled"
            },
            {
                "address": "0x0000000000000000000000000000000000000004",
                "label": "Precompiled"
            },
            {
                "address": "0xeeeeeeeeeeeeeeeeeeeeeeeeeeeeeeeeeeeeeeee",
                "label": "BNB"
            },
            {
                "address": "0x5813d7818c9d8f29a9a96b00031ef576e892def4",
                "label": "PancakePair"
            },
            {
                "address": "0x10ed43c718714eb63d5aa57b78b54704e256024e",
                "label": "PancakeRouter"
            },
            {
                "address": "0xbb4cdb9cbd36b01bd1cbaebf2de08d9173bc095c",
                "label": "Wrapped BNB"
            },
            {
                "address": "0xd534fae679f7f02364d177e9d44f1d15963c0dd7",
                "label": "DLP_d534fae6 (DLP)"
            },
            {
                "address": "0x829fe73463ceae6579973b8bcd1e018976040ec4",
                "label": "MAMO Token Exploiter"
            },
            {
                "address": "0x0000000000000000000000000000000000000001",
                "label": "Precompiled"
            },
            {
                "address": "0x0000000000000000000000000000000000000003",
                "label": "Precompiled"
            },
            {
                "address": "0x409e377a7affb1fd3369cfc24880ad58895d1dd9",
                "label": "DVM"
            },
            {
                "address": "0x67ee3cb086f8a16f34bee3ca72fad36f7db929e2",
                "label": "DODO: DODO Token"
            }
        ]
    },
    "trace": {
        "accountLabels": null,
        "dataMap": {
            "-1": {
                "invocation": {
                    "address": "0x829fe73463ceae6579973b8bcd1e018976040ec4",
                    "callData": "",
                    "decodedMethod": null,
                    "errorInfo": "",
                    "fromAddress": "",
                    "gasUsed": 0,
                    "id": -1,
                    "methodDecoded": false,
                    "operation": "",
                    "output": "",
                    "revert": false,
                    "revertMessage": "",
                    "selector": "",
                    "status": false,
                    "value": ""
                },
                "nodeType": 0
            },
            "0": {
                "invocation": {
                    "address": "0xd7a7d90b63da1b4e7ef79cb36935d38af0d6d0b4",
                    "callData": "0x00000000000000000000000000000000000000000000000107ad8f556c6c0000",
                    "decodedMethod": {
                        "callParams": [
                            {
                                "name": "amount",
                                "type": "uint256",
                                "value": "19,000,000,000,000,000,000"
                            }
                        ],
                        "constructorArguments": "",
                        "name": "transfer",
                        "returnParams": [],
                        "signature": "transfer(uint256)"
                    },
                    "errorInfo": "",
                    "fromAddress": "0x829fe73463ceae6579973b8bcd1e018976040ec4",
                    "gasUsed": 362999,
                    "id": 0,
                    "methodDecoded": true,
                    "operation": "CALL",
                    "output": "",
                    "revert": false,
                    "revertMessage": "",
                    "selector": "0x12514bba",
                    "status": true,
                    "value": "0"
                },
                "nodeType": 0
            },
            "1": {
                "invocation": {
                    "address": "0xd534fae679f7f02364d177e9d44f1d15963c0dd7",
                    "callData": "0x000000000000000000000000000000000000000000000000000000000000000000000000000000000000000000000000000000000000000107ad8f556c6c0000000000000000000000000000d7a7d90b63da1b4e7ef79cb36935d38af0d6d0b4000000000000000000000000000000000000000000000000000000000000008000000000000000000000000000000000000000000000000000000000000000012100000000000000000000000000000000000000000000000000000000000000",
                    "decodedMethod": {
                        "callParams": [
                            {
                                "name": "baseAmount",
                                "type": "uint256",
                                "value": "0"
                            },
                            {
                                "name": "quoteAmount",
                                "type": "uint256",
                                "value": "19,000,000,000,000,000,000"
                            },
                            {
                                "name": "assetTo",
                                "type": "address",
                                "value": "0xd7a7d90b63da1b4e7ef79cb36935d38af0d6d0b4"
                            },
                            {
                                "name": "data",
                                "type": "bytes",
                                "value": "0x21"
                            }
                        ],
                        "constructorArguments": "",
                        "name": "flashLoan",
                        "returnParams": [],
                        "signature": "flashLoan(uint256,uint256,address,bytes)"
                    },
                    "errorInfo": "",
                    "fromAddress": "0xd7a7d90b63da1b4e7ef79cb36935d38af0d6d0b4",
                    "gasUsed": 407333,
                    "id": 1,
                    "methodDecoded": true,
                    "operation": "CALL",
                    "output": "",
                    "revert": false,
                    "revertMessage": "",
                    "selector": "0xd0a494e4",
                    "status": true,
                    "value": "0"
                },
                "nodeType": 0
            },
            "10": {
                "invocation": {
                    "address": "0x4341bdced3908a45835c67a2dbbde2d2daa6645d",
                    "callData": "0x000000000000000000000000d7a7d90b63da1b4e7ef79cb36935d38af0d6d0b40000000000000000000000000000000000000000004e950851be0c2ebf0000000000000000000000000000000000000000000000000000000000000000000002",
                    "decodedMethod": {
                        "callParams": [
                            {
                                "name": "_addr",
                                "type": "address",
                                "value": "0xd7a7d90b63da1b4e7ef79cb36935d38af0d6d0b4"
                            },
                            {
                                "name": "_amount",
                                "type": "uint256",
                                "value": "95,000,000,000,000,000,000,000,000"
                            },
                            {
                                "name": "times",
                                "type": "uint8",
                                "value": "2"
                            }
                        ],
                        "constructorArguments": "",
                        "name": "giveawayOne",
                        "returnParams": [
                            {
                                "name": "",
                                "type": "bool",
                                "value": true
                            }
                        ],
                        "signature": "giveawayOne(address,uint256,uint8)"
                    },
                    "errorInfo": "",
                    "fromAddress": "0xa915bb6d5c117fb95e9ac2eddae68aad5edb5841",
                    "gasUsed": 35322,
                    "id": 10,
                    "methodDecoded": true,
                    "operation": "CALL",
                    "output": "0x0000000000000000000000000000000000000000000000000000000000000001",
                    "revert": false,
                    "revertMessage": "",
                    "selector": "0x486c9662",
                    "status": true,
                    "value": "0"
                },
                "nodeType": 0
            },
            "11": {
                "event": {
                    "contract": "0x4341bdced3908a45835c67a2dbbde2d2daa6645d",
                    "decodedLog": {
                        "name": "Transfer",
                        "params": [
                            {
                                "name": "from",
                                "type": "address",
                                "value": "0x0000000000000000000000000000000000000000"
                            },
                            {
                                "name": "to",
                                "type": "address",
                                "value": "0xd7a7d90b63da1b4e7ef79cb36935d38af0d6d0b4"
                            },
                            {
                                "decimalAvailable": true,
                                "name": "value",
                                "type": "uint256",
                                "value": "95,000,000,000,000,000,000,000,000"
                            }
                        ],
                        "signature": "Transfer(address,address,uint256)"
                    },
                    "id": 11,
                    "logData": "0x0000000000000000000000000000000000000000004e950851be0c2ebf000000",
                    "logDecoded": true,
                    "operation": "EVENT",
                    "revert": false,
                    "status": true,
                    "topics": [
                        "0xddf252ad1be2c89b69c2b068fc378daa952ba7f163c4a11628f55a4df523b3ef",
                        "0x0000000000000000000000000000000000000000000000000000000000000000",
                        "0x000000000000000000000000d7a7d90b63da1b4e7ef79cb36935d38af0d6d0b4"
                    ]
                },
                "nodeType": 1
            },
            "12": {
                "invocation": {
                    "address": "0x4341bdced3908a45835c67a2dbbde2d2daa6645d",
                    "callData": "0x0000000000000000000000005813d7818c9d8f29a9a96b00031ef576e892def400000000000000000000000000000000000000000007dbb4082c9ad1798000000000000000000000000000000000000000000000000000000000000000000001",
                    "decodedMethod": {
                        "callParams": [
                            {
                                "name": "_addr",
                                "type": "address",
                                "value": "0x5813d7818c9d8f29a9a96b00031ef576e892def4"
                            },
                            {
                                "name": "_amount",
                                "type": "uint256",
                                "value": "9,500,000,000,000,000,000,000,000"
                            },
                            {
                                "name": "times",
                                "type": "uint8",
                                "value": "1"
                            }
                        ],
                        "constructorArguments": "",
                        "name": "giveawayOne",
                        "returnParams": [
                            {
                                "name": "",
                                "type": "bool",
                                "value": true
                            }
                        ],
                        "signature": "giveawayOne(address,uint256,uint8)"
                    },
                    "errorInfo": "",
                    "fromAddress": "0xa915bb6d5c117fb95e9ac2eddae68aad5edb5841",
                    "gasUsed": 26500,
                    "id": 12,
                    "methodDecoded": true,
                    "operation": "CALL",
                    "output": "0x0000000000000000000000000000000000000000000000000000000000000001",
                    "revert": false,
                    "revertMessage": "",
                    "selector": "0x486c9662",
                    "status": true,
                    "value": "0"
                },
                "nodeType": 0
            },
            "13": {
                "event": {
                    "contract": "0x4341bdced3908a45835c67a2dbbde2d2daa6645d",
                    "decodedLog": {
                        "name": "Transfer",
                        "params": [
                            {
                                "name": "from",
                                "type": "address",
                                "value": "0x0000000000000000000000000000000000000000"
                            },
                            {
                                "name": "to",
                                "type": "address",
                                "value": "0x5813d7818c9d8f29a9a96b00031ef576e892def4"
                            },
                            {
                                "decimalAvailable": true,
                                "name": "value",
                                "type": "uint256",
                                "value": "9,500,000,000,000,000,000,000,000"
                            }
                        ],
                        "signature": "Transfer(address,address,uint256)"
                    },
                    "id": 13,
                    "logData": "0x00000000000000000000000000000000000000000007dbb4082c9ad179800000",
                    "logDecoded": true,
                    "operation": "EVENT",
                    "revert": false,
                    "status": true,
                    "topics": [
                        "0xddf252ad1be2c89b69c2b068fc378daa952ba7f163c4a11628f55a4df523b3ef",
                        "0x0000000000000000000000000000000000000000000000000000000000000000",
                        "0x0000000000000000000000005813d7818c9d8f29a9a96b00031ef576e892def4"
                    ]
                },
                "nodeType": 1
            },
            "14": {
                "invocation": {
                    "address": "0x2281dcee8dca1b011162401da4166a862c9ad35f",
                    "callData": "0x",
                    "decodedMethod": null,
                    "errorInfo": "",
                    "fromAddress": "0xa915bb6d5c117fb95e9ac2eddae68aad5edb5841",
                    "gasUsed": 0,
                    "id": 14,
                    "methodDecoded": false,
                    "operation": "CALL",
                    "output": "",
                    "revert": false,
                    "revertMessage": "",
                    "selector": "fallback",
                    "status": true,
                    "value": "19"
                },
                "nodeType": 0
            },
            "15": {
                "invocation": {
                    "address": "0x5813d7818c9d8f29a9a96b00031ef576e892def4",
                    "callData": "0x",
                    "decodedMethod": {
                        "callParams": [],
                        "constructorArguments": "",
                        "name": "token0",
                        "returnParams": [
                            {
                                "name": "",
                                "type": "address",
                                "value": "0x4341bdced3908a45835c67a2dbbde2d2daa6645d"
                            }
                        ],
                        "signature": "token0()"
                    },
                    "errorInfo": "",
                    "fromAddress": "0xd7a7d90b63da1b4e7ef79cb36935d38af0d6d0b4",
                    "gasUsed": 2465,
                    "id": 15,
                    "methodDecoded": true,
                    "operation": "STATICCALL",
                    "output": "0x0000000000000000000000004341bdced3908a45835c67a2dbbde2d2daa6645d",
                    "revert": false,
                    "revertMessage": "",
                    "selector": "0x0dfe1681",
                    "status": true,
                    "value": "0"
                },
                "nodeType": 0
            },
            "16": {
                "invocation": {
                    "address": "0x5813d7818c9d8f29a9a96b00031ef576e892def4",
                    "callData": "0x",
                    "decodedMethod": {
                        "callParams": [],
                        "constructorArguments": "",
                        "name": "getReserves",
                        "returnParams": [
                            {
                                "name": "_reserve0",
                                "type": "uint112",
                                "value": "30,503,694,129,561,858,470,407,619"
                            },
                            {
                                "name": "_reserve1",
                                "type": "uint112",
                                "value": "23,976,626,623,894,851,541,714"
                            },
                            {
                                "name": "_blockTimestampLast",
                                "type": "uint32",
                                "value": "1,701,763,277"
                            }
                        ],
                        "signature": "getReserves()"
                    },
                    "errorInfo": "",
                    "fromAddress": "0xd7a7d90b63da1b4e7ef79cb36935d38af0d6d0b4",
                    "gasUsed": 2893,
                    "id": 16,
                    "methodDecoded": true,
                    "operation": "STATICCALL",
                    "output": "0x000000000000000000000000000000000000000000193b68927c0a7bfa096dc3000000000000000000000000000000000000000000000513c68960d1f205dad200000000000000000000000000000000000000000000000000000000656ed8cd",
                    "revert": false,
                    "revertMessage": "",
                    "selector": "0x0902f1ac",
                    "status": true,
                    "value": "0"
                },
                "nodeType": 0
            },
            "17": {
                "invocation": {
                    "address": "0x4341bdced3908a45835c67a2dbbde2d2daa6645d",
                    "callData": "0x0000000000000000000000005813d7818c9d8f29a9a96b00031ef576e892def4",
                    "decodedMethod": {
                        "callParams": [
                            {
                                "name": "account",
                                "type": "address",
                                "value": "0x5813d7818c9d8f29a9a96b00031ef576e892def4"
                            }
                        ],
                        "constructorArguments": "",
                        "name": "balanceOf",
                        "returnParams": [
                            {
                                "decimalAvailable": true,
                                "name": "",
                                "type": "uint256",
                                "value": "40,003,694,129,561,858,470,407,619"
                            }
                        ],
                        "signature": "balanceOf(address)"
                    },
                    "errorInfo": "",
                    "fromAddress": "0xd7a7d90b63da1b4e7ef79cb36935d38af0d6d0b4",
                    "gasUsed": 11474,
                    "id": 17,
                    "methodDecoded": true,
                    "operation": "STATICCALL",
                    "output": "0x00000000000000000000000000000000000000000021171c9aa8a54d73896dc3",
                    "revert": false,
                    "revertMessage": "",
                    "selector": "0x70a08231",
                    "status": true,
                    "value": "0"
                },
                "nodeType": 0
            },
            "18": {
                "invocation": {
                    "address": "0x10ed43c718714eb63d5aa57b78b54704e256024e",
                    "callData": "0x00000000000000000000000000000000000000000007dbb4082c9ad179800000000000000000000000000000000000000000000000193b68927c0a7bfa096dc3000000000000000000000000000000000000000000000513c68960d1f205dad2",
                    "decodedMethod": {
                        "callParams": [
                            {
                                "name": "amountIn",
                                "type": "uint256",
                                "value": "9,500,000,000,000,000,000,000,000"
                            },
                            {
                                "name": "reserveIn",
                                "type": "uint256",
                                "value": "30,503,694,129,561,858,470,407,619"
                            },
                            {
                                "name": "reserveOut",
                                "type": "uint256",
                                "value": "23,976,626,623,894,851,541,714"
                            }
                        ],
                        "constructorArguments": "",
                        "name": "getAmountOut",
                        "returnParams": [
                            {
                                "name": "amountOut",
                                "type": "uint256",
                                "value": "5,683,062,170,081,466,106,194"
                            }
                        ],
                        "signature": "getAmountOut(uint256,uint256,uint256)"
                    },
                    "errorInfo": "",
                    "fromAddress": "0xd7a7d90b63da1b4e7ef79cb36935d38af0d6d0b4",
                    "gasUsed": 1021,
                    "id": 18,
                    "methodDecoded": true,
                    "operation": "STATICCALL",
                    "output": "0x0000000000000000000000000000000000000000000001341454b589065dc152",
                    "revert": false,
                    "revertMessage": "",
                    "selector": "0x054d50d4",
                    "status": true,
                    "value": "0"
                },
                "nodeType": 0
            },
            "19": {
                "invocation": {
                    "address": "0x5813d7818c9d8f29a9a96b00031ef576e892def4",
                    "callData": "0x00000000000000000000000000000000000000000000000000000000000000000000000000000000000000000000000000000000000001341454b589065dc152000000000000000000000000d7a7d90b63da1b4e7ef79cb36935d38af0d6d0b400000000000000000000000000000000000000000000000000000000000000800000000000000000000000000000000000000000000000000000000000000000",
                    "decodedMethod": {
                        "callParams": [
                            {
                                "name": "amount0Out",
                                "type": "uint256",
                                "value": "0"
                            },
                            {
                                "name": "amount1Out",
                                "type": "uint256",
                                "value": "5,683,062,170,081,466,106,194"
                            },
                            {
                                "name": "to",
                                "type": "address",
                                "value": "0xd7a7d90b63da1b4e7ef79cb36935d38af0d6d0b4"
                            },
                            {
                                "name": "data",
                                "type": "bytes",
                                "value": "0x"
                            }
                        ],
                        "constructorArguments": "",
                        "name": "swap",
                        "returnParams": [],
                        "signature": "swap(uint256,uint256,address,bytes)"
                    },
                    "errorInfo": "",
                    "fromAddress": "0xd7a7d90b63da1b4e7ef79cb36935d38af0d6d0b4",
                    "gasUsed": 67788,
                    "id": 19,
                    "methodDecoded": true,
                    "operation": "CALL",
                    "output": "",
                    "revert": false,
                    "revertMessage": "",
                    "selector": "0x022c0d9f",
                    "status": true,
                    "value": "0"
                },
                "nodeType": 0
            },
            "2": {
                "invocation": {
                    "address": "0x409e377a7affb1fd3369cfc24880ad58895d1dd9",
                    "callData": "0x000000000000000000000000000000000000000000000000000000000000000000000000000000000000000000000000000000000000000107ad8f556c6c0000000000000000000000000000d7a7d90b63da1b4e7ef79cb36935d38af0d6d0b4000000000000000000000000000000000000000000000000000000000000008000000000000000000000000000000000000000000000000000000000000000012100000000000000000000000000000000000000000000000000000000000000",
                    "decodedMethod": {
                        "callParams": [
                            {
                                "name": "baseAmount",
                                "type": "uint256",
                                "value": "0"
                            },
                            {
                                "name": "quoteAmount",
                                "type": "uint256",
                                "value": "19,000,000,000,000,000,000"
                            },
                            {
                                "name": "assetTo",
                                "type": "address",
                                "value": "0xd7a7d90b63da1b4e7ef79cb36935d38af0d6d0b4"
                            },
                            {
                                "name": "data",
                                "type": "bytes",
                                "value": "0x21"
                            }
                        ],
                        "constructorArguments": "",
                        "name": "flashLoan",
                        "returnParams": [],
                        "signature": "flashLoan(uint256,uint256,address,bytes)"
                    },
                    "errorInfo": "",
                    "fromAddress": "0xd534fae679f7f02364d177e9d44f1d15963c0dd7",
                    "gasUsed": 404634,
                    "id": 2,
                    "methodDecoded": true,
                    "operation": "DELEGATECALL",
                    "output": "",
                    "revert": false,
                    "revertMessage": "",
                    "selector": "0xd0a494e4",
                    "status": true,
                    "value": "0"
                },
                "nodeType": 0
            },
            "20": {
                "invocation": {
                    "address": "0x55d398326f99059ff775485246999027b3197955",
                    "callData": "0x000000000000000000000000d7a7d90b63da1b4e7ef79cb36935d38af0d6d0b40000000000000000000000000000000000000000000001341454b589065dc152",
                    "decodedMethod": {
                        "callParams": [
                            {
                                "name": "recipient",
                                "type": "address",
                                "value": "0xd7a7d90b63da1b4e7ef79cb36935d38af0d6d0b4"
                            },
                            {
                                "decimalAvailable": true,
                                "name": "amount",
                                "type": "uint256",
                                "value": "5,683,062,170,081,466,106,194"
                            }
                        ],
                        "constructorArguments": "",
                        "name": "transfer",
                        "returnParams": [
                            {
                                "name": "",
                                "type": "bool",
                                "value": true
                            }
                        ],
                        "signature": "transfer(address,uint256)"
                    },
                    "errorInfo": "",
                    "fromAddress": "0x5813d7818c9d8f29a9a96b00031ef576e892def4",
                    "gasUsed": 29971,
                    "id": 20,
                    "methodDecoded": true,
                    "operation": "CALL",
                    "output": "0x0000000000000000000000000000000000000000000000000000000000000001",
                    "revert": false,
                    "revertMessage": "",
                    "selector": "0xa9059cbb",
                    "status": true,
                    "value": "0"
                },
                "nodeType": 0
            },
            "21": {
                "event": {
                    "contract": "0x55d398326f99059ff775485246999027b3197955",
                    "decodedLog": {
                        "name": "Transfer",
                        "params": [
                            {
                                "name": "from",
                                "type": "address",
                                "value": "0x5813d7818c9d8f29a9a96b00031ef576e892def4"
                            },
                            {
                                "name": "to",
                                "type": "address",
                                "value": "0xd7a7d90b63da1b4e7ef79cb36935d38af0d6d0b4"
                            },
                            {
                                "decimalAvailable": true,
                                "name": "value",
                                "type": "uint256",
                                "value": "5,683,062,170,081,466,106,194"
                            }
                        ],
                        "signature": "Transfer(address,address,uint256)"
                    },
                    "id": 21,
                    "logData": "0x0000000000000000000000000000000000000000000001341454b589065dc152",
                    "logDecoded": true,
                    "operation": "EVENT",
                    "revert": false,
                    "status": true,
                    "topics": [
                        "0xddf252ad1be2c89b69c2b068fc378daa952ba7f163c4a11628f55a4df523b3ef",
                        "0x0000000000000000000000005813d7818c9d8f29a9a96b00031ef576e892def4",
                        "0x000000000000000000000000d7a7d90b63da1b4e7ef79cb36935d38af0d6d0b4"
                    ]
                },
                "nodeType": 1
            },
            "22": {
                "invocation": {
                    "address": "0x4341bdced3908a45835c67a2dbbde2d2daa6645d",
                    "callData": "0x0000000000000000000000005813d7818c9d8f29a9a96b00031ef576e892def4",
                    "decodedMethod": {
                        "callParams": [
                            {
                                "name": "account",
                                "type": "address",
                                "value": "0x5813d7818c9d8f29a9a96b00031ef576e892def4"
                            }
                        ],
                        "constructorArguments": "",
                        "name": "balanceOf",
                        "returnParams": [
                            {
                                "decimalAvailable": true,
                                "name": "",
                                "type": "uint256",
                                "value": "40,003,694,129,561,858,470,407,619"
                            }
                        ],
                        "signature": "balanceOf(address)"
                    },
                    "errorInfo": "",
                    "fromAddress": "0x5813d7818c9d8f29a9a96b00031ef576e892def4",
                    "gasUsed": 3474,
                    "id": 22,
                    "methodDecoded": true,
                    "operation": "STATICCALL",
                    "output": "0x00000000000000000000000000000000000000000021171c9aa8a54d73896dc3",
                    "revert": false,
                    "revertMessage": "",
                    "selector": "0x70a08231",
                    "status": true,
                    "value": "0"
                },
                "nodeType": 0
            },
            "23": {
                "invocation": {
                    "address": "0x55d398326f99059ff775485246999027b3197955",
                    "callData": "0x0000000000000000000000005813d7818c9d8f29a9a96b00031ef576e892def4",
                    "decodedMethod": {
                        "callParams": [
                            {
                                "name": "account",
                                "type": "address",
                                "value": "0x5813d7818c9d8f29a9a96b00031ef576e892def4"
                            }
                        ],
                        "constructorArguments": "",
                        "name": "balanceOf",
                        "returnParams": [
                            {
                                "decimalAvailable": true,
                                "name": "",
                                "type": "uint256",
                                "value": "18,293,564,453,813,385,435,520"
                            }
                        ],
                        "signature": "balanceOf(address)"
                    },
                    "errorInfo": "",
                    "fromAddress": "0x5813d7818c9d8f29a9a96b00031ef576e892def4",
                    "gasUsed": 531,
                    "id": 23,
                    "methodDecoded": true,
                    "operation": "STATICCALL",
                    "output": "0x0000000000000000000000000000000000000000000003dfb234ab48eba81980",
                    "revert": false,
                    "revertMessage": "",
                    "selector": "0x70a08231",
                    "status": true,
                    "value": "0"
                },
                "nodeType": 0
            },
            "24": {
                "event": {
                    "contract": "0x5813d7818c9d8f29a9a96b00031ef576e892def4",
                    "decodedLog": {
                        "name": "Sync",
                        "params": [
                            {
                                "name": "reserve0",
                                "type": "uint112",
                                "value": "40,003,694,129,561,858,470,407,619"
                            },
                            {
                                "name": "reserve1",
                                "type": "uint112",
                                "value": "18,293,564,453,813,385,435,520"
                            }
                        ],
                        "signature": "Sync(uint112,uint112)"
                    },
                    "id": 24,
                    "logData": "0x00000000000000000000000000000000000000000021171c9aa8a54d73896dc30000000000000000000000000000000000000000000003dfb234ab48eba81980",
                    "logDecoded": true,
                    "operation": "EVENT",
                    "revert": false,
                    "status": true,
                    "topics": [
                        "0x1c411e9a96e071241c2f21f7726b17ae89e3cab4c78be50e062b03a9fffbbad1"
                    ]
                },
                "nodeType": 1
            },
            "25": {
                "event": {
                    "contract": "0x5813d7818c9d8f29a9a96b00031ef576e892def4",
                    "decodedLog": {
                        "name": "Swap",
                        "params": [
                            {
                                "name": "sender",
                                "type": "address",
                                "value": "0xd7a7d90b63da1b4e7ef79cb36935d38af0d6d0b4"
                            },
                            {
                                "name": "to",
                                "type": "address",
                                "value": "0xd7a7d90b63da1b4e7ef79cb36935d38af0d6d0b4"
                            },
                            {
                                "name": "amount0In",
                                "type": "uint256",
                                "value": "9,500,000,000,000,000,000,000,000"
                            },
                            {
                                "name": "amount1In",
                                "type": "uint256",
                                "value": "0"
                            },
                            {
                                "name": "amount0Out",
                                "type": "uint256",
                                "value": "0"
                            },
                            {
                                "name": "amount1Out",
                                "type": "uint256",
                                "value": "5,683,062,170,081,466,106,194"
                            }
                        ],
                        "signature": "Swap(address,uint256,uint256,uint256,uint256,address)"
                    },
                    "id": 25,
                    "logData": "0x00000000000000000000000000000000000000000007dbb4082c9ad179800000000000000000000000000000000000000000000000000000000000000000000000000000000000000000000000000000000000000000000000000000000000000000000000000000000000000000000000000000000001341454b589065dc152",
                    "logDecoded": true,
                    "operation": "EVENT",
                    "revert": false,
                    "status": true,
                    "topics": [
                        "0xd78ad95fa46c994b6551d0da85fc275fe613ce37657fb8d5e3d130840159d822",
                        "0x000000000000000000000000d7a7d90b63da1b4e7ef79cb36935d38af0d6d0b4",
                        "0x000000000000000000000000d7a7d90b63da1b4e7ef79cb36935d38af0d6d0b4"
                    ]
                },
                "nodeType": 1
            },
            "26": {
                "invocation": {
                    "address": "0x55d398326f99059ff775485246999027b3197955",
                    "callData": "0x000000000000000000000000d7a7d90b63da1b4e7ef79cb36935d38af0d6d0b4",
                    "decodedMethod": {
                        "callParams": [
                            {
                                "name": "account",
                                "type": "address",
                                "value": "0xd7a7d90b63da1b4e7ef79cb36935d38af0d6d0b4"
                            }
                        ],
                        "constructorArguments": "",
                        "name": "balanceOf",
                        "returnParams": [
                            {
                                "decimalAvailable": true,
                                "name": "",
                                "type": "uint256",
                                "value": "5,683,062,170,081,466,106,194"
                            }
                        ],
                        "signature": "balanceOf(address)"
                    },
                    "errorInfo": "",
                    "fromAddress": "0xd7a7d90b63da1b4e7ef79cb36935d38af0d6d0b4",
                    "gasUsed": 531,
                    "id": 26,
                    "methodDecoded": true,
                    "operation": "STATICCALL",
                    "output": "0x0000000000000000000000000000000000000000000001341454b589065dc152",
                    "revert": false,
                    "revertMessage": "",
                    "selector": "0x70a08231",
                    "status": true,
                    "value": "0"
                },
                "nodeType": 0
            },
            "27": {
                "invocation": {
                    "address": "0x55d398326f99059ff775485246999027b3197955",
                    "callData": "0x00000000000000000000000010ed43c718714eb63d5aa57b78b54704e256024effffffffffffffffffffffffffffffffffffffffffffffffffffffffffffffff",
                    "decodedMethod": {
                        "callParams": [
                            {
                                "name": "spender",
                                "type": "address",
                                "value": "0x10ed43c718714eb63d5aa57b78b54704e256024e"
                            },
                            {
                                "decimalAvailable": true,
                                "name": "amount",
                                "type": "uint256",
                                "value": "115,792,089,237,316,195,423,570,985,008,687,907,853,269,984,665,640,564,039,457,584,007,913,129,639,935"
                            }
                        ],
                        "constructorArguments": "",
                        "name": "approve",
                        "returnParams": [
                            {
                                "name": "",
                                "type": "bool",
                                "value": true
                            }
                        ],
                        "signature": "approve(address,uint256)"
                    },
                    "errorInfo": "",
                    "fromAddress": "0xd7a7d90b63da1b4e7ef79cb36935d38af0d6d0b4",
                    "gasUsed": 24562,
                    "id": 27,
                    "methodDecoded": true,
                    "operation": "CALL",
                    "output": "0x0000000000000000000000000000000000000000000000000000000000000001",
                    "revert": false,
                    "revertMessage": "",
                    "selector": "0x095ea7b3",
                    "status": true,
                    "value": "0"
                },
                "nodeType": 0
            },
            "28": {
                "event": {
                    "contract": "0x55d398326f99059ff775485246999027b3197955",
                    "decodedLog": {
                        "name": "Approval",
                        "params": [
                            {
                                "name": "owner",
                                "type": "address",
                                "value": "0xd7a7d90b63da1b4e7ef79cb36935d38af0d6d0b4"
                            },
                            {
                                "name": "spender",
                                "type": "address",
                                "value": "0x10ed43c718714eb63d5aa57b78b54704e256024e"
                            },
                            {
                                "decimalAvailable": true,
                                "name": "value",
                                "type": "uint256",
                                "value": "115,792,089,237,316,195,423,570,985,008,687,907,853,269,984,665,640,564,039,457,584,007,913,129,639,935"
                            }
                        ],
                        "signature": "Approval(address,address,uint256)"
                    },
                    "id": 28,
                    "logData": "0xffffffffffffffffffffffffffffffffffffffffffffffffffffffffffffffff",
                    "logDecoded": true,
                    "operation": "EVENT",
                    "revert": false,
                    "status": true,
                    "topics": [
                        "0x8c5be1e5ebec7d5bd14f71427d1e84f3dd0314c0f7b2291e5b200ac8c7c3b925",
                        "0x000000000000000000000000d7a7d90b63da1b4e7ef79cb36935d38af0d6d0b4",
                        "0x00000000000000000000000010ed43c718714eb63d5aa57b78b54704e256024e"
                    ]
                },
                "nodeType": 1
            },
            "29": {
                "invocation": {
                    "address": "0x10ed43c718714eb63d5aa57b78b54704e256024e",
                    "callData": "0x0000000000000000000000000000000000000000000001341454b589065dc152000000000000000000000000000000000000000000000000000000000000000000000000000000000000000000000000000000000000000000000000000000a0000000000000000000000000d7a7d90b63da1b4e7ef79cb36935d38af0d6d0b400000000000000000000000000000000000000000000000000000000656eda0c000000000000000000000000000000000000000000000000000000000000000200000000000000000000000055d398326f99059ff775485246999027b3197955000000000000000000000000bb4cdb9cbd36b01bd1cbaebf2de08d9173bc095c",
                    "decodedMethod": {
                        "callParams": [
                            {
                                "name": "amountIn",
                                "type": "uint256",
                                "value": "5,683,062,170,081,466,106,194"
                            },
                            {
                                "name": "amountOutMin",
                                "type": "uint256",
                                "value": "0"
                            },
                            {
                                "name": "path",
                                "type": "address[]",
                                "value": [
                                    "0x55d398326f99059ff775485246999027b3197955",
                                    "0xbb4cdb9cbd36b01bd1cbaebf2de08d9173bc095c"
                                ]
                            },
                            {
                                "name": "to",
                                "type": "address",
                                "value": "0xd7a7d90b63da1b4e7ef79cb36935d38af0d6d0b4"
                            },
                            {
                                "name": "deadline",
                                "type": "uint256",
                                "value": "1,701,763,596"
                            }
                        ],
                        "constructorArguments": "",
                        "name": "swapExactTokensForTokens",
                        "returnParams": [
                            {
                                "name": "amounts",
                                "type": "uint256[]",
                                "value": [
                                    "5,683,062,170,081,466,106,194",
                                    "24,680,683,707,976,806,110"
                                ]
                            }
                        ],
                        "signature": "swapExactTokensForTokens(uint256,uint256,address[],address,uint256)"
                    },
                    "errorInfo": "",
                    "fromAddress": "0xd7a7d90b63da1b4e7ef79cb36935d38af0d6d0b4",
                    "gasUsed": 86955,
                    "id": 29,
                    "methodDecoded": true,
                    "operation": "CALL",
                    "output": "0x000000000000000000000000000000000000000000000000000000000000002000000000000000000000000000000000000000000000000000000000000000020000000000000000000000000000000000000000000001341454b589065dc152000000000000000000000000000000000000000000000001568367118bba6ede",
                    "revert": false,
                    "revertMessage": "",
                    "selector": "0x38ed1739",
                    "status": true,
                    "value": "0"
                },
                "nodeType": 0
            },
            "3": {
                "invocation": {
                    "address": "0xbb4cdb9cbd36b01bd1cbaebf2de08d9173bc095c",
                    "callData": "0x000000000000000000000000d7a7d90b63da1b4e7ef79cb36935d38af0d6d0b400000000000000000000000000000000000000000000000107ad8f556c6c0000",
                    "decodedMethod": {
                        "callParams": [
                            {
                                "name": "dst",
                                "type": "address",
                                "value": "0xd7a7d90b63da1b4e7ef79cb36935d38af0d6d0b4"
                            },
                            {
                                "decimalAvailable": true,
                                "name": "wad",
                                "type": "uint256",
                                "value": "19,000,000,000,000,000,000"
                            }
                        ],
                        "constructorArguments": "",
                        "name": "transfer",
                        "returnParams": [
                            {
                                "name": "",
                                "type": "bool",
                                "value": true
                            }
                        ],
                        "signature": "transfer(address,uint256)"
                    },
                    "errorInfo": "",
                    "fromAddress": "0xd534fae679f7f02364d177e9d44f1d15963c0dd7",
                    "gasUsed": 29962,
                    "id": 3,
                    "methodDecoded": true,
                    "operation": "CALL",
                    "output": "0x0000000000000000000000000000000000000000000000000000000000000001",
                    "revert": false,
                    "revertMessage": "",
                    "selector": "0xa9059cbb",
                    "status": true,
                    "value": "0"
                },
                "nodeType": 0
            },
            "30": {
                "invocation": {
                    "address": "0x16b9a82891338f9ba80e2d6970fdda79d1eb0dae",
                    "callData": "0x",
                    "decodedMethod": {
                        "callParams": [],
                        "constructorArguments": "",
                        "name": "getReserves",
                        "returnParams": [
                            {
                                "name": "_reserve0",
                                "type": "uint112",
                                "value": "17,609,022,825,996,366,074,530,085"
                            },
                            {
                                "name": "_reserve1",
                                "type": "uint112",
                                "value": "76,689,679,168,205,659,977,356"
                            },
                            {
                                "name": "_blockTimestampLast",
                                "type": "uint32",
                                "value": "1,701,763,533"
                            }
                        ],
                        "signature": "getReserves()"
                    },
                    "errorInfo": "",
                    "fromAddress": "0x10ed43c718714eb63d5aa57b78b54704e256024e",
                    "gasUsed": 2893,
                    "id": 30,
                    "methodDecoded": true,
                    "operation": "STATICCALL",
                    "output": "0x0000000000000000000000000000000000000000000e90db0a483a403fdac92500000000000000000000000000000000000000000000103d5b18342614be368c00000000000000000000000000000000000000000000000000000000656ed9cd",
                    "revert": false,
                    "revertMessage": "",
                    "selector": "0x0902f1ac",
                    "status": true,
                    "value": "0"
                },
                "nodeType": 0
            },
            "31": {
                "invocation": {
                    "address": "0x55d398326f99059ff775485246999027b3197955",
                    "callData": "0x000000000000000000000000d7a7d90b63da1b4e7ef79cb36935d38af0d6d0b400000000000000000000000016b9a82891338f9ba80e2d6970fdda79d1eb0dae0000000000000000000000000000000000000000000001341454b589065dc152",
                    "decodedMethod": {
                        "callParams": [
                            {
                                "name": "sender",
                                "type": "address",
                                "value": "0xd7a7d90b63da1b4e7ef79cb36935d38af0d6d0b4"
                            },
                            {
                                "name": "recipient",
                                "type": "address",
                                "value": "0x16b9a82891338f9ba80e2d6970fdda79d1eb0dae"
                            },
                            {
                                "decimalAvailable": true,
                                "name": "amount",
                                "type": "uint256",
                                "value": "5,683,062,170,081,466,106,194"
                            }
                        ],
                        "constructorArguments": "",
                        "name": "transferFrom",
                        "returnParams": [
                            {
                                "name": "",
                                "type": "bool",
                                "value": true
                            }
                        ],
                        "signature": "transferFrom(address,address,uint256)"
                    },
                    "errorInfo": "",
                    "fromAddress": "0x10ed43c718714eb63d5aa57b78b54704e256024e",
                    "gasUsed": 10834,
                    "id": 31,
                    "methodDecoded": true,
                    "operation": "CALL",
                    "output": "0x0000000000000000000000000000000000000000000000000000000000000001",
                    "revert": false,
                    "revertMessage": "",
                    "selector": "0x23b872dd",
                    "status": true,
                    "value": "0"
                },
                "nodeType": 0
            },
            "32": {
                "event": {
                    "contract": "0x55d398326f99059ff775485246999027b3197955",
                    "decodedLog": {
                        "name": "Transfer",
                        "params": [
                            {
                                "name": "from",
                                "type": "address",
                                "value": "0xd7a7d90b63da1b4e7ef79cb36935d38af0d6d0b4"
                            },
                            {
                                "name": "to",
                                "type": "address",
                                "value": "0x16b9a82891338f9ba80e2d6970fdda79d1eb0dae"
                            },
                            {
                                "decimalAvailable": true,
                                "name": "value",
                                "type": "uint256",
                                "value": "5,683,062,170,081,466,106,194"
                            }
                        ],
                        "signature": "Transfer(address,address,uint256)"
                    },
                    "id": 32,
                    "logData": "0x0000000000000000000000000000000000000000000001341454b589065dc152",
                    "logDecoded": true,
                    "operation": "EVENT",
                    "revert": false,
                    "status": true,
                    "topics": [
                        "0xddf252ad1be2c89b69c2b068fc378daa952ba7f163c4a11628f55a4df523b3ef",
                        "0x000000000000000000000000d7a7d90b63da1b4e7ef79cb36935d38af0d6d0b4",
                        "0x00000000000000000000000016b9a82891338f9ba80e2d6970fdda79d1eb0dae"
                    ]
                },
                "nodeType": 1
            },
            "33": {
                "event": {
                    "contract": "0x55d398326f99059ff775485246999027b3197955",
                    "decodedLog": {
                        "name": "Approval",
                        "params": [
                            {
                                "name": "owner",
                                "type": "address",
                                "value": "0xd7a7d90b63da1b4e7ef79cb36935d38af0d6d0b4"
                            },
                            {
                                "name": "spender",
                                "type": "address",
                                "value": "0x10ed43c718714eb63d5aa57b78b54704e256024e"
                            },
                            {
                                "decimalAvailable": true,
                                "name": "value",
                                "type": "uint256",
                                "value": "115,792,089,237,316,195,423,570,985,008,687,907,853,269,984,665,640,564,033,774,521,837,831,663,533,741"
                            }
                        ],
                        "signature": "Approval(address,address,uint256)"
                    },
                    "id": 33,
                    "logData": "0xfffffffffffffffffffffffffffffffffffffffffffffecbebab4a76f9a23ead",
                    "logDecoded": true,
                    "operation": "EVENT",
                    "revert": false,
                    "status": true,
                    "topics": [
                        "0x8c5be1e5ebec7d5bd14f71427d1e84f3dd0314c0f7b2291e5b200ac8c7c3b925",
                        "0x000000000000000000000000d7a7d90b63da1b4e7ef79cb36935d38af0d6d0b4",
                        "0x00000000000000000000000010ed43c718714eb63d5aa57b78b54704e256024e"
                    ]
                },
                "nodeType": 1
            },
            "34": {
                "invocation": {
                    "address": "0x16b9a82891338f9ba80e2d6970fdda79d1eb0dae",
                    "callData": "0x0000000000000000000000000000000000000000000000000000000000000000000000000000000000000000000000000000000000000001568367118bba6ede000000000000000000000000d7a7d90b63da1b4e7ef79cb36935d38af0d6d0b400000000000000000000000000000000000000000000000000000000000000800000000000000000000000000000000000000000000000000000000000000000",
                    "decodedMethod": {
                        "callParams": [
                            {
                                "name": "amount0Out",
                                "type": "uint256",
                                "value": "0"
                            },
                            {
                                "name": "amount1Out",
                                "type": "uint256",
                                "value": "24,680,683,707,976,806,110"
                            },
                            {
                                "name": "to",
                                "type": "address",
                                "value": "0xd7a7d90b63da1b4e7ef79cb36935d38af0d6d0b4"
                            },
                            {
                                "name": "data",
                                "type": "bytes",
                                "value": "0x"
                            }
                        ],
                        "constructorArguments": "",
                        "name": "swap",
                        "returnParams": [],
                        "signature": "swap(uint256,uint256,address,bytes)"
                    },
                    "errorInfo": "",
                    "fromAddress": "0x10ed43c718714eb63d5aa57b78b54704e256024e",
                    "gasUsed": 62339,
                    "id": 34,
                    "methodDecoded": true,
                    "operation": "CALL",
                    "output": "",
                    "revert": false,
                    "revertMessage": "",
                    "selector": "0x022c0d9f",
                    "status": true,
                    "value": "0"
                },
                "nodeType": 0
            },
            "35": {
                "invocation": {
                    "address": "0xbb4cdb9cbd36b01bd1cbaebf2de08d9173bc095c",
                    "callData": "0x000000000000000000000000d7a7d90b63da1b4e7ef79cb36935d38af0d6d0b4000000000000000000000000000000000000000000000001568367118bba6ede",
                    "decodedMethod": {
                        "callParams": [
                            {
                                "name": "dst",
                                "type": "address",
                                "value": "0xd7a7d90b63da1b4e7ef79cb36935d38af0d6d0b4"
                            },
                            {
                                "decimalAvailable": true,
                                "name": "wad",
                                "type": "uint256",
                                "value": "24,680,683,707,976,806,110"
                            }
                        ],
                        "constructorArguments": "",
                        "name": "transfer",
                        "returnParams": [
                            {
                                "name": "",
                                "type": "bool",
                                "value": true
                            }
                        ],
                        "signature": "transfer(address,uint256)"
                    },
                    "errorInfo": "",
                    "fromAddress": "0x16b9a82891338f9ba80e2d6970fdda79d1eb0dae",
                    "gasUsed": 27962,
                    "id": 35,
                    "methodDecoded": true,
                    "operation": "CALL",
                    "output": "0x0000000000000000000000000000000000000000000000000000000000000001",
                    "revert": false,
                    "revertMessage": "",
                    "selector": "0xa9059cbb",
                    "status": true,
                    "value": "0"
                },
                "nodeType": 0
            },
            "36": {
                "event": {
                    "contract": "0xbb4cdb9cbd36b01bd1cbaebf2de08d9173bc095c",
                    "decodedLog": {
                        "name": "Transfer",
                        "params": [
                            {
                                "name": "src",
                                "type": "address",
                                "value": "0x16b9a82891338f9ba80e2d6970fdda79d1eb0dae"
                            },
                            {
                                "name": "dst",
                                "type": "address",
                                "value": "0xd7a7d90b63da1b4e7ef79cb36935d38af0d6d0b4"
                            },
                            {
                                "decimalAvailable": true,
                                "name": "wad",
                                "type": "uint256",
                                "value": "24,680,683,707,976,806,110"
                            }
                        ],
                        "signature": "Transfer(address,address,uint256)"
                    },
                    "id": 36,
                    "logData": "0x000000000000000000000000000000000000000000000001568367118bba6ede",
                    "logDecoded": true,
                    "operation": "EVENT",
                    "revert": false,
                    "status": true,
                    "topics": [
                        "0xddf252ad1be2c89b69c2b068fc378daa952ba7f163c4a11628f55a4df523b3ef",
                        "0x00000000000000000000000016b9a82891338f9ba80e2d6970fdda79d1eb0dae",
                        "0x000000000000000000000000d7a7d90b63da1b4e7ef79cb36935d38af0d6d0b4"
                    ]
                },
                "nodeType": 1
            },
            "37": {
                "invocation": {
                    "address": "0x55d398326f99059ff775485246999027b3197955",
                    "callData": "0x00000000000000000000000016b9a82891338f9ba80e2d6970fdda79d1eb0dae",
                    "decodedMethod": {
                        "callParams": [
                            {
                                "name": "account",
                                "type": "address",
                                "value": "0x16b9a82891338f9ba80e2d6970fdda79d1eb0dae"
                            }
                        ],
                        "constructorArguments": "",
                        "name": "balanceOf",
                        "returnParams": [
                            {
                                "decimalAvailable": true,
                                "name": "",
                                "type": "uint256",
                                "value": "17,614,705,888,166,447,540,636,279"
                            }
                        ],
                        "signature": "balanceOf(address)"
                    },
                    "errorInfo": "",
                    "fromAddress": "0x16b9a82891338f9ba80e2d6970fdda79d1eb0dae",
                    "gasUsed": 531,
                    "id": 37,
                    "methodDecoded": true,
                    "operation": "STATICCALL",
                    "output": "0x0000000000000000000000000000000000000000000e920f1e9cefc946388a77",
                    "revert": false,
                    "revertMessage": "",
                    "selector": "0x70a08231",
                    "status": true,
                    "value": "0"
                },
                "nodeType": 0
            },
            "38": {
                "invocation": {
                    "address": "0xbb4cdb9cbd36b01bd1cbaebf2de08d9173bc095c",
                    "callData": "0x00000000000000000000000016b9a82891338f9ba80e2d6970fdda79d1eb0dae",
                    "decodedMethod": {
                        "callParams": [
                            {
                                "name": "",
                                "type": "address",
                                "value": "0x16b9a82891338f9ba80e2d6970fdda79d1eb0dae"
                            }
                        ],
                        "constructorArguments": "",
                        "name": "balanceOf",
                        "returnParams": [
                            {
                                "decimalAvailable": true,
                                "name": "",
                                "type": "uint256",
                                "value": "76,664,998,484,497,683,171,246"
                            }
                        ],
                        "signature": "balanceOf(address)"
                    },
                    "errorInfo": "",
                    "fromAddress": "0x16b9a82891338f9ba80e2d6970fdda79d1eb0dae",
                    "gasUsed": 534,
                    "id": 38,
                    "methodDecoded": true,
                    "operation": "STATICCALL",
                    "output": "0x00000000000000000000000000000000000000000000103c0494cd148903c7ae",
                    "revert": false,
                    "revertMessage": "",
                    "selector": "0x70a08231",
                    "status": true,
                    "value": "0"
                },
                "nodeType": 0
            },
            "39": {
                "event": {
                    "contract": "0x16b9a82891338f9ba80e2d6970fdda79d1eb0dae",
                    "decodedLog": {
                        "name": "Sync",
                        "params": [
                            {
                                "name": "reserve0",
                                "type": "uint112",
                                "value": "17,614,705,888,166,447,540,636,279"
                            },
                            {
                                "name": "reserve1",
                                "type": "uint112",
                                "value": "76,664,998,484,497,683,171,246"
                            }
                        ],
                        "signature": "Sync(uint112,uint112)"
                    },
                    "id": 39,
                    "logData": "0x0000000000000000000000000000000000000000000e920f1e9cefc946388a7700000000000000000000000000000000000000000000103c0494cd148903c7ae",
                    "logDecoded": true,
                    "operation": "EVENT",
                    "revert": false,
                    "status": true,
                    "topics": [
                        "0x1c411e9a96e071241c2f21f7726b17ae89e3cab4c78be50e062b03a9fffbbad1"
                    ]
                },
                "nodeType": 1
            },
            "4": {
                "event": {
                    "contract": "0xbb4cdb9cbd36b01bd1cbaebf2de08d9173bc095c",
                    "decodedLog": {
                        "name": "Transfer",
                        "params": [
                            {
                                "name": "src",
                                "type": "address",
                                "value": "0xd534fae679f7f02364d177e9d44f1d15963c0dd7"
                            },
                            {
                                "name": "dst",
                                "type": "address",
                                "value": "0xd7a7d90b63da1b4e7ef79cb36935d38af0d6d0b4"
                            },
                            {
                                "decimalAvailable": true,
                                "name": "wad",
                                "type": "uint256",
                                "value": "19,000,000,000,000,000,000"
                            }
                        ],
                        "signature": "Transfer(address,address,uint256)"
                    },
                    "id": 4,
                    "logData": "0x00000000000000000000000000000000000000000000000107ad8f556c6c0000",
                    "logDecoded": true,
                    "operation": "EVENT",
                    "revert": false,
                    "status": true,
                    "topics": [
                        "0xddf252ad1be2c89b69c2b068fc378daa952ba7f163c4a11628f55a4df523b3ef",
                        "0x000000000000000000000000d534fae679f7f02364d177e9d44f1d15963c0dd7",
                        "0x000000000000000000000000d7a7d90b63da1b4e7ef79cb36935d38af0d6d0b4"
                    ]
                },
                "nodeType": 1
            },
            "40": {
                "event": {
                    "contract": "0x16b9a82891338f9ba80e2d6970fdda79d1eb0dae",
                    "decodedLog": {
                        "name": "Swap",
                        "params": [
                            {
                                "name": "sender",
                                "type": "address",
                                "value": "0x10ed43c718714eb63d5aa57b78b54704e256024e"
                            },
                            {
                                "name": "to",
                                "type": "address",
                                "value": "0xd7a7d90b63da1b4e7ef79cb36935d38af0d6d0b4"
                            },
                            {
                                "name": "amount0In",
                                "type": "uint256",
                                "value": "5,683,062,170,081,466,106,194"
                            },
                            {
                                "name": "amount1In",
                                "type": "uint256",
                                "value": "0"
                            },
                            {
                                "name": "amount0Out",
                                "type": "uint256",
                                "value": "0"
                            },
                            {
                                "name": "amount1Out",
                                "type": "uint256",
                                "value": "24,680,683,707,976,806,110"
                            }
                        ],
                        "signature": "Swap(address,uint256,uint256,uint256,uint256,address)"
                    },
                    "id": 40,
                    "logData": "0x0000000000000000000000000000000000000000000001341454b589065dc15200000000000000000000000000000000000000000000000000000000000000000000000000000000000000000000000000000000000000000000000000000000000000000000000000000000000000000000000000000001568367118bba6ede",
                    "logDecoded": true,
                    "operation": "EVENT",
                    "revert": false,
                    "status": true,
                    "topics": [
                        "0xd78ad95fa46c994b6551d0da85fc275fe613ce37657fb8d5e3d130840159d822",
                        "0x00000000000000000000000010ed43c718714eb63d5aa57b78b54704e256024e",
                        "0x000000000000000000000000d7a7d90b63da1b4e7ef79cb36935d38af0d6d0b4"
                    ]
                },
                "nodeType": 1
            },
            "41": {
                "invocation": {
                    "address": "0xbb4cdb9cbd36b01bd1cbaebf2de08d9173bc095c",
                    "callData": "0x000000000000000000000000d534fae679f7f02364d177e9d44f1d15963c0dd700000000000000000000000000000000000000000000000107ad8f556c6c0000",
                    "decodedMethod": {
                        "callParams": [
                            {
                                "name": "dst",
                                "type": "address",
                                "value": "0xd534fae679f7f02364d177e9d44f1d15963c0dd7"
                            },
                            {
                                "decimalAvailable": true,
                                "name": "wad",
                                "type": "uint256",
                                "value": "19,000,000,000,000,000,000"
                            }
                        ],
                        "constructorArguments": "",
                        "name": "transfer",
                        "returnParams": [
                            {
                                "name": "",
                                "type": "bool",
                                "value": true
                            }
                        ],
                        "signature": "transfer(address,uint256)"
                    },
                    "errorInfo": "",
                    "fromAddress": "0xd7a7d90b63da1b4e7ef79cb36935d38af0d6d0b4",
                    "gasUsed": 3262,
                    "id": 41,
                    "methodDecoded": true,
                    "operation": "CALL",
                    "output": "0x0000000000000000000000000000000000000000000000000000000000000001",
                    "revert": false,
                    "revertMessage": "",
                    "selector": "0xa9059cbb",
                    "status": true,
                    "value": "0"
                },
                "nodeType": 0
            },
            "42": {
                "event": {
                    "contract": "0xbb4cdb9cbd36b01bd1cbaebf2de08d9173bc095c",
                    "decodedLog": {
                        "name": "Transfer",
                        "params": [
                            {
                                "name": "src",
                                "type": "address",
                                "value": "0xd7a7d90b63da1b4e7ef79cb36935d38af0d6d0b4"
                            },
                            {
                                "name": "dst",
                                "type": "address",
                                "value": "0xd534fae679f7f02364d177e9d44f1d15963c0dd7"
                            },
                            {
                                "decimalAvailable": true,
                                "name": "wad",
                                "type": "uint256",
                                "value": "19,000,000,000,000,000,000"
                            }
                        ],
                        "signature": "Transfer(address,address,uint256)"
                    },
                    "id": 42,
                    "logData": "0x00000000000000000000000000000000000000000000000107ad8f556c6c0000",
                    "logDecoded": true,
                    "operation": "EVENT",
                    "revert": false,
                    "status": true,
                    "topics": [
                        "0xddf252ad1be2c89b69c2b068fc378daa952ba7f163c4a11628f55a4df523b3ef",
                        "0x000000000000000000000000d7a7d90b63da1b4e7ef79cb36935d38af0d6d0b4",
                        "0x000000000000000000000000d534fae679f7f02364d177e9d44f1d15963c0dd7"
                    ]
                },
                "nodeType": 1
            },
            "43": {
                "invocation": {
                    "address": "0xbb4cdb9cbd36b01bd1cbaebf2de08d9173bc095c",
                    "callData": "0x000000000000000000000000d7a7d90b63da1b4e7ef79cb36935d38af0d6d0b4",
                    "decodedMethod": {
                        "callParams": [
                            {
                                "name": "",
                                "type": "address",
                                "value": "0xd7a7d90b63da1b4e7ef79cb36935d38af0d6d0b4"
                            }
                        ],
                        "constructorArguments": "",
                        "name": "balanceOf",
                        "returnParams": [
                            {
                                "decimalAvailable": true,
                                "name": "",
                                "type": "uint256",
                                "value": "5,680,683,707,976,806,110"
                            }
                        ],
                        "signature": "balanceOf(address)"
                    },
                    "errorInfo": "",
                    "fromAddress": "0xd7a7d90b63da1b4e7ef79cb36935d38af0d6d0b4",
                    "gasUsed": 534,
                    "id": 43,
                    "methodDecoded": true,
                    "operation": "STATICCALL",
                    "output": "0x0000000000000000000000000000000000000000000000004ed5d7bc1f4e6ede",
                    "revert": false,
                    "revertMessage": "",
                    "selector": "0x70a08231",
                    "status": true,
                    "value": "0"
                },
                "nodeType": 0
            },
            "44": {
                "invocation": {
                    "address": "0xbb4cdb9cbd36b01bd1cbaebf2de08d9173bc095c",
                    "callData": "0x000000000000000000000000829fe73463ceae6579973b8bcd1e018976040ec40000000000000000000000000000000000000000000000004ed5d7bc1f4e6ede",
                    "decodedMethod": {
                        "callParams": [
                            {
                                "name": "dst",
                                "type": "address",
                                "value": "0x829fe73463ceae6579973b8bcd1e018976040ec4"
                            },
                            {
                                "decimalAvailable": true,
                                "name": "wad",
                                "type": "uint256",
                                "value": "5,680,683,707,976,806,110"
                            }
                        ],
                        "constructorArguments": "",
                        "name": "transfer",
                        "returnParams": [
                            {
                                "name": "",
                                "type": "bool",
                                "value": true
                            }
                        ],
                        "signature": "transfer(address,uint256)"
                    },
                    "errorInfo": "",
                    "fromAddress": "0xd7a7d90b63da1b4e7ef79cb36935d38af0d6d0b4",
                    "gasUsed": 25162,
                    "id": 44,
                    "methodDecoded": true,
                    "operation": "CALL",
                    "output": "0x0000000000000000000000000000000000000000000000000000000000000001",
                    "revert": false,
                    "revertMessage": "",
                    "selector": "0xa9059cbb",
                    "status": true,
                    "value": "0"
                },
                "nodeType": 0
            },
            "45": {
                "event": {
                    "contract": "0xbb4cdb9cbd36b01bd1cbaebf2de08d9173bc095c",
                    "decodedLog": {
                        "name": "Transfer",
                        "params": [
                            {
                                "name": "src",
                                "type": "address",
                                "value": "0xd7a7d90b63da1b4e7ef79cb36935d38af0d6d0b4"
                            },
                            {
                                "name": "dst",
                                "type": "address",
                                "value": "0x829fe73463ceae6579973b8bcd1e018976040ec4"
                            },
                            {
                                "decimalAvailable": true,
                                "name": "wad",
                                "type": "uint256",
                                "value": "5,680,683,707,976,806,110"
                            }
                        ],
                        "signature": "Transfer(address,address,uint256)"
                    },
                    "id": 45,
                    "logData": "0x0000000000000000000000000000000000000000000000004ed5d7bc1f4e6ede",
                    "logDecoded": true,
                    "operation": "EVENT",
                    "revert": false,
                    "status": true,
                    "topics": [
                        "0xddf252ad1be2c89b69c2b068fc378daa952ba7f163c4a11628f55a4df523b3ef",
                        "0x000000000000000000000000d7a7d90b63da1b4e7ef79cb36935d38af0d6d0b4",
                        "0x000000000000000000000000829fe73463ceae6579973b8bcd1e018976040ec4"
                    ]
                },
                "nodeType": 1
            },
            "46": {
                "invocation": {
                    "address": "0x67ee3cb086f8a16f34bee3ca72fad36f7db929e2",
                    "callData": "0x000000000000000000000000d534fae679f7f02364d177e9d44f1d15963c0dd7",
                    "decodedMethod": {
                        "callParams": [
                            {
                                "name": "owner",
                                "type": "address",
                                "value": "0xd534fae679f7f02364d177e9d44f1d15963c0dd7"
                            }
                        ],
                        "constructorArguments": "",
                        "name": "balanceOf",
                        "returnParams": [
                            {
                                "decimalAvailable": true,
                                "name": "balance",
                                "type": "uint256",
                                "value": "323,831,899,377,336,597,818,996"
                            }
                        ],
                        "signature": "balanceOf(address)"
                    },
                    "errorInfo": "",
                    "fromAddress": "0xd534fae679f7f02364d177e9d44f1d15963c0dd7",
                    "gasUsed": 2487,
                    "id": 46,
                    "methodDecoded": true,
                    "operation": "STATICCALL",
                    "output": "0x000000000000000000000000000000000000000000004492f6628cc06c6f2e74",
                    "revert": false,
                    "revertMessage": "",
                    "selector": "0x70a08231",
                    "status": true,
                    "value": "0"
                },
                "nodeType": 0
            },
            "47": {
                "invocation": {
                    "address": "0xbb4cdb9cbd36b01bd1cbaebf2de08d9173bc095c",
                    "callData": "0x000000000000000000000000d534fae679f7f02364d177e9d44f1d15963c0dd7",
                    "decodedMethod": {
                        "callParams": [
                            {
                                "name": "",
                                "type": "address",
                                "value": "0xd534fae679f7f02364d177e9d44f1d15963c0dd7"
                            }
                        ],
                        "constructorArguments": "",
                        "name": "balanceOf",
                        "returnParams": [
                            {
                                "decimalAvailable": true,
                                "name": "",
                                "type": "uint256",
                                "value": "174,839,942,849,600,995,634"
                            }
                        ],
                        "signature": "balanceOf(address)"
                    },
                    "errorInfo": "",
                    "fromAddress": "0xd534fae679f7f02364d177e9d44f1d15963c0dd7",
                    "gasUsed": 534,
                    "id": 47,
                    "methodDecoded": true,
                    "operation": "STATICCALL",
                    "output": "0x0000000000000000000000000000000000000000000000097a6441ae1410c132",
                    "revert": false,
                    "revertMessage": "",
                    "selector": "0x70a08231",
                    "status": true,
                    "value": "0"
                },
                "nodeType": 0
            },
            "48": {
                "invocation": {
                    "address": "0x67ee3cb086f8a16f34bee3ca72fad36f7db929e2",
                    "callData": "0x000000000000000000000000d534fae679f7f02364d177e9d44f1d15963c0dd7",
                    "decodedMethod": {
                        "callParams": [
                            {
                                "name": "owner",
                                "type": "address",
                                "value": "0xd534fae679f7f02364d177e9d44f1d15963c0dd7"
                            }
                        ],
                        "constructorArguments": "",
                        "name": "balanceOf",
                        "returnParams": [
                            {
                                "decimalAvailable": true,
                                "name": "balance",
                                "type": "uint256",
                                "value": "323,831,899,377,336,597,818,996"
                            }
                        ],
                        "signature": "balanceOf(address)"
                    },
                    "errorInfo": "",
                    "fromAddress": "0xd534fae679f7f02364d177e9d44f1d15963c0dd7",
                    "gasUsed": 487,
                    "id": 48,
                    "methodDecoded": true,
                    "operation": "STATICCALL",
                    "output": "0x000000000000000000000000000000000000000000004492f6628cc06c6f2e74",
                    "revert": false,
                    "revertMessage": "",
                    "selector": "0x70a08231",
                    "status": true,
                    "value": "0"
                },
                "nodeType": 0
            },
            "49": {
                "invocation": {
                    "address": "0xbb4cdb9cbd36b01bd1cbaebf2de08d9173bc095c",
                    "callData": "0x000000000000000000000000d534fae679f7f02364d177e9d44f1d15963c0dd7",
                    "decodedMethod": {
                        "callParams": [
                            {
                                "name": "",
                                "type": "address",
                                "value": "0xd534fae679f7f02364d177e9d44f1d15963c0dd7"
                            }
                        ],
                        "constructorArguments": "",
                        "name": "balanceOf",
                        "returnParams": [
                            {
                                "decimalAvailable": true,
                                "name": "",
                                "type": "uint256",
                                "value": "174,839,942,849,600,995,634"
                            }
                        ],
                        "signature": "balanceOf(address)"
                    },
                    "errorInfo": "",
                    "fromAddress": "0xd534fae679f7f02364d177e9d44f1d15963c0dd7",
                    "gasUsed": 534,
                    "id": 49,
                    "methodDecoded": true,
                    "operation": "STATICCALL",
                    "output": "0x0000000000000000000000000000000000000000000000097a6441ae1410c132",
                    "revert": false,
                    "revertMessage": "",
                    "selector": "0x70a08231",
                    "status": true,
                    "value": "0"
                },
                "nodeType": 0
            },
            "5": {
                "invocation": {
                    "address": "0xd7a7d90b63da1b4e7ef79cb36935d38af0d6d0b4",
                    "callData": "0x000000000000000000000000d7a7d90b63da1b4e7ef79cb36935d38af0d6d0b4000000000000000000000000000000000000000000000000000000000000000000000000000000000000000000000000000000000000000107ad8f556c6c0000000000000000000000000000000000000000000000000000000000000000008000000000000000000000000000000000000000000000000000000000000000012100000000000000000000000000000000000000000000000000000000000000",
                    "decodedMethod": {
                        "callParams": [
                            {
                                "name": "sender",
                                "type": "address",
                                "value": "0xd7a7d90b63da1b4e7ef79cb36935d38af0d6d0b4"
                            },
                            {
                                "name": "baseAmount",
                                "type": "uint256",
                                "value": "0"
                            },
                            {
                                "name": "quoteAmount",
                                "type": "uint256",
                                "value": "19,000,000,000,000,000,000"
                            },
                            {
                                "name": "data",
                                "type": "bytes",
                                "value": "0x21"
                            }
                        ],
                        "constructorArguments": "",
                        "name": "DVMFlashLoanCall",
                        "returnParams": [],
                        "signature": "DVMFlashLoanCall(address,uint256,uint256,bytes)"
                    },
                    "errorInfo": "",
                    "fromAddress": "0xd534fae679f7f02364d177e9d44f1d15963c0dd7",
                    "gasUsed": 345759,
                    "id": 5,
                    "methodDecoded": true,
                    "operation": "CALL",
                    "output": "",
                    "revert": false,
                    "revertMessage": "",
                    "selector": "0xeb2021c3",
                    "status": true,
                    "value": "0"
                },
                "nodeType": 0
            },
            "50": {
                "event": {
                    "contract": "0xd534fae679f7f02364d177e9d44f1d15963c0dd7",
                    "decodedLog": {
                        "name": "DODOFlashLoan",
                        "params": [
                            {
                                "name": "borrower",
                                "type": "address",
                                "value": "0xd7a7d90b63da1b4e7ef79cb36935d38af0d6d0b4"
                            },
                            {
                                "name": "assetTo",
                                "type": "address",
                                "value": "0xd7a7d90b63da1b4e7ef79cb36935d38af0d6d0b4"
                            },
                            {
                                "name": "baseAmount",
                                "type": "uint256",
                                "value": "0"
                            },
                            {
                                "name": "quoteAmount",
                                "type": "uint256",
                                "value": "19,000,000,000,000,000,000"
                            }
                        ],
                        "signature": "DODOFlashLoan(address,address,uint256,uint256)"
                    },
                    "id": 50,
                    "logData": "0x000000000000000000000000d7a7d90b63da1b4e7ef79cb36935d38af0d6d0b4000000000000000000000000d7a7d90b63da1b4e7ef79cb36935d38af0d6d0b4000000000000000000000000000000000000000000000000000000000000000000000000000000000000000000000000000000000000000107ad8f556c6c0000",
                    "logDecoded": true,
                    "operation": "EVENT",
                    "revert": false,
                    "status": true,
                    "topics": [
                        "0x0b82e93068db15abd9fbb2682c65462ea8a0a10582dce93a5664818e296f54eb"
                    ]
                },
                "nodeType": 1
            },
            "6": {
                "invocation": {
                    "address": "0xbb4cdb9cbd36b01bd1cbaebf2de08d9173bc095c",
                    "callData": "0x00000000000000000000000000000000000000000000000107ad8f556c6c0000",
                    "decodedMethod": {
                        "callParams": [
                            {
                                "name": "wad",
                                "type": "uint256",
                                "value": "19,000,000,000,000,000,000"
                            }
                        ],
                        "constructorArguments": "",
                        "name": "withdraw",
                        "returnParams": [],
                        "signature": "withdraw(uint256)"
                    },
                    "errorInfo": "",
                    "fromAddress": "0xd7a7d90b63da1b4e7ef79cb36935d38af0d6d0b4",
                    "gasUsed": 9195,
                    "id": 6,
                    "methodDecoded": true,
                    "operation": "CALL",
                    "output": "",
                    "revert": false,
                    "revertMessage": "",
                    "selector": "0x2e1a7d4d",
                    "status": true,
                    "value": "0"
                },
                "nodeType": 0
            },
            "7": {
                "invocation": {
                    "address": "0xd7a7d90b63da1b4e7ef79cb36935d38af0d6d0b4",
                    "callData": "0x",
                    "decodedMethod": null,
                    "errorInfo": "",
                    "fromAddress": "0xbb4cdb9cbd36b01bd1cbaebf2de08d9173bc095c",
                    "gasUsed": 55,
                    "id": 7,
                    "methodDecoded": false,
                    "operation": "CALL",
                    "output": "",
                    "revert": false,
                    "revertMessage": "",
                    "selector": "fallback",
                    "status": true,
                    "value": "19"
                },
                "nodeType": 0
            },
            "8": {
                "event": {
                    "contract": "0xbb4cdb9cbd36b01bd1cbaebf2de08d9173bc095c",
                    "decodedLog": {
                        "name": "Withdrawal",
                        "params": [
                            {
                                "name": "src",
                                "type": "address",
                                "value": "0xd7a7d90b63da1b4e7ef79cb36935d38af0d6d0b4"
                            },
                            {
                                "name": "wad",
                                "type": "uint256",
                                "value": "19,000,000,000,000,000,000"
                            }
                        ],
                        "signature": "Withdrawal(address,uint256)"
                    },
                    "id": 8,
                    "logData": "0x00000000000000000000000000000000000000000000000107ad8f556c6c0000",
                    "logDecoded": true,
                    "operation": "EVENT",
                    "revert": false,
                    "status": true,
                    "topics": [
                        "0x7fcf532c15f0a6db0bd6d0e038bea71d30d808c7d98cb3bf7268a95bf5081b65",
                        "0x000000000000000000000000d7a7d90b63da1b4e7ef79cb36935d38af0d6d0b4"
                    ]
                },
                "nodeType": 1
            },
            "9": {
                "invocation": {
                    "address": "0xa915bb6d5c117fb95e9ac2eddae68aad5edb5841",
                    "callData": "0x0000000000000000000000005813d7818c9d8f29a9a96b00031ef576e892def4",
                    "decodedMethod": {
                        "callParams": [
                            {
                                "name": "to",
                                "type": "address",
                                "value": "0x5813d7818c9d8f29a9a96b00031ef576e892def4"
                            }
                        ],
                        "constructorArguments": "",
                        "name": "BuyToken",
                        "returnParams": [],
                        "signature": "BuyToken(address)"
                    },
                    "errorInfo": "",
                    "fromAddress": "0xd7a7d90b63da1b4e7ef79cb36935d38af0d6d0b4",
                    "gasUsed": 88041,
                    "id": 9,
                    "methodDecoded": true,
                    "operation": "CALL",
                    "output": "0x0000000000000000000000000000000000000000000000000000000000000001",
                    "revert": false,
                    "revertMessage": "",
                    "selector": "0xfe03068d",
                    "status": true,
                    "value": "19"
                },
                "nodeType": 0
            }
        },
        "gasFlame": [
            {
                "children": [
                    {
                        "children": [
                            {
                                "children": [],
                                "depth": 0,
                                "name": "Initial Gas",
                                "value": 21276
                            },
                            {
                                "children": [
                                    {
                                        "children": [
                                            {
                                                "children": [
                                                    {
                                                        "children": [],
                                                        "depth": 3,
                                                        "name": "transfer",
                                                        "value": 29962
                                                    },
                                                    {
                                                        "children": [
                                                            {
                                                                "children": [
                                                                    {
                                                                        "children": [],
                                                                        "depth": 5,
                                                                        "name": "fallback",
                                                                        "value": 55
                                                                    }
                                                                ],
                                                                "depth": 4,
                                                                "name": "withdraw",
                                                                "value": 9195
                                                            },
                                                            {
                                                                "children": [
                                                                    {
                                                                        "children": [],
                                                                        "depth": 5,
                                                                        "name": "giveawayOne",
                                                                        "value": 35322
                                                                    },
                                                                    {
                                                                        "children": [],
                                                                        "depth": 5,
                                                                        "name": "giveawayOne",
                                                                        "value": 26500
                                                                    },
                                                                    {
                                                                        "children": [],
                                                                        "depth": 5,
                                                                        "name": "fallback",
                                                                        "value": 0
                                                                    }
                                                                ],
                                                                "depth": 4,
                                                                "name": "BuyToken",
                                                                "value": 88041
                                                            },
                                                            {
                                                                "children": [],
                                                                "depth": 4,
                                                                "name": "token0",
                                                                "value": 2465
                                                            },
                                                            {
                                                                "children": [],
                                                                "depth": 4,
                                                                "name": "getReserves",
                                                                "value": 2893
                                                            },
                                                            {
                                                                "children": [],
                                                                "depth": 4,
                                                                "name": "balanceOf",
                                                                "value": 11474
                                                            },
                                                            {
                                                                "children": [],
                                                                "depth": 4,
                                                                "name": "getAmountOut",
                                                                "value": 1021
                                                            },
                                                            {
                                                                "children": [
                                                                    {
                                                                        "children": [],
                                                                        "depth": 5,
                                                                        "name": "transfer",
                                                                        "value": 29971
                                                                    },
                                                                    {
                                                                        "children": [],
                                                                        "depth": 5,
                                                                        "name": "balanceOf",
                                                                        "value": 3474
                                                                    },
                                                                    {
                                                                        "children": [],
                                                                        "depth": 5,
                                                                        "name": "balanceOf",
                                                                        "value": 531
                                                                    }
                                                                ],
                                                                "depth": 4,
                                                                "name": "swap",
                                                                "value": 67788
                                                            },
                                                            {
                                                                "children": [],
                                                                "depth": 4,
                                                                "name": "balanceOf",
                                                                "value": 531
                                                            },
                                                            {
                                                                "children": [],
                                                                "depth": 4,
                                                                "name": "approve",
                                                                "value": 24562
                                                            },
                                                            {
                                                                "children": [
                                                                    {
                                                                        "children": [],
                                                                        "depth": 5,
                                                                        "name": "getReserves",
                                                                        "value": 2893
                                                                    },
                                                                    {
                                                                        "children": [],
                                                                        "depth": 5,
                                                                        "name": "transferFrom",
                                                                        "value": 10834
                                                                    },
                                                                    {
                                                                        "children": [
                                                                            {
                                                                                "children": [],
                                                                                "depth": 6,
                                                                                "name": "transfer",
                                                                                "value": 27962
                                                                            },
                                                                            {
                                                                                "children": [],
                                                                                "depth": 6,
                                                                                "name": "balanceOf",
                                                                                "value": 531
                                                                            },
                                                                            {
                                                                                "children": [],
                                                                                "depth": 6,
                                                                                "name": "balanceOf",
                                                                                "value": 534
                                                                            }
                                                                        ],
                                                                        "depth": 5,
                                                                        "name": "swap",
                                                                        "value": 62339
                                                                    }
                                                                ],
                                                                "depth": 4,
                                                                "name": "swapExactTokensForTokens",
                                                                "value": 86955
                                                            },
                                                            {
                                                                "children": [],
                                                                "depth": 4,
                                                                "name": "transfer",
                                                                "value": 3262
                                                            },
                                                            {
                                                                "children": [],
                                                                "depth": 4,
                                                                "name": "balanceOf",
                                                                "value": 534
                                                            },
                                                            {
                                                                "children": [],
                                                                "depth": 4,
                                                                "name": "transfer",
                                                                "value": 25162
                                                            }
                                                        ],
                                                        "depth": 3,
                                                        "name": "DVMFlashLoanCall",
                                                        "value": 345759
                                                    },
                                                    {
                                                        "children": [],
                                                        "depth": 3,
                                                        "name": "balanceOf",
                                                        "value": 2487
                                                    },
                                                    {
                                                        "children": [],
                                                        "depth": 3,
                                                        "name": "balanceOf",
                                                        "value": 534
                                                    },
                                                    {
                                                        "children": [],
                                                        "depth": 3,
                                                        "name": "balanceOf",
                                                        "value": 487
                                                    },
                                                    {
                                                        "children": [],
                                                        "depth": 3,
                                                        "name": "balanceOf",
                                                        "value": 534
                                                    }
                                                ],
                                                "depth": 2,
                                                "name": "flashLoan",
                                                "value": 404634
                                            }
                                        ],
                                        "depth": 1,
                                        "name": "flashLoan",
                                        "value": 407333
                                    }
                                ],
                                "depth": 0,
                                "name": "Executed Gas",
                                "value": 412623
                            }
                        ],
                        "depth": -1,
                        "name": "Actual Gas Used",
                        "value": 362999
                    },
                    {
                        "children": [],
                        "depth": -1,
                        "name": "Refunded Gas",
                        "value": 70900
                    }
                ],
                "depth": -2,
                "name": "Total Gas",
                "value": 433899
            }
        ],
        "isConfirmed": true,
        "mainTrace": [
            {
                "children": [
                    {
                        "children": [
                            {
                                "children": [
                                    {
                                        "children": [
                                            {
                                                "children": [
                                                    {
                                                        "children": [],
                                                        "depth": 4,
                                                        "id": 4,
                                                        "order": 4
                                                    }
                                                ],
                                                "depth": 3,
                                                "id": 3,
                                                "order": 3
                                            },
                                            {
                                                "children": [
                                                    {
                                                        "children": [
                                                            {
                                                                "children": [],
                                                                "depth": 5,
                                                                "id": 7,
                                                                "order": 7
                                                            },
                                                            {
                                                                "children": [],
                                                                "depth": 5,
                                                                "id": 8,
                                                                "order": 8
                                                            }
                                                        ],
                                                        "depth": 4,
                                                        "id": 6,
                                                        "order": 6
                                                    },
                                                    {
                                                        "children": [
                                                            {
                                                                "children": [
                                                                    {
                                                                        "children": [],
                                                                        "depth": 6,
                                                                        "id": 11,
                                                                        "order": 11
                                                                    }
                                                                ],
                                                                "depth": 5,
                                                                "id": 10,
                                                                "order": 10
                                                            },
                                                            {
                                                                "children": [
                                                                    {
                                                                        "children": [],
                                                                        "depth": 6,
                                                                        "id": 13,
                                                                        "order": 13
                                                                    }
                                                                ],
                                                                "depth": 5,
                                                                "id": 12,
                                                                "order": 12
                                                            },
                                                            {
                                                                "children": [],
                                                                "depth": 5,
                                                                "id": 14,
                                                                "order": 14
                                                            }
                                                        ],
                                                        "depth": 4,
                                                        "id": 9,
                                                        "order": 9
                                                    },
                                                    {
                                                        "children": [],
                                                        "depth": 4,
                                                        "id": 15,
                                                        "order": 15
                                                    },
                                                    {
                                                        "children": [],
                                                        "depth": 4,
                                                        "id": 16,
                                                        "order": 16
                                                    },
                                                    {
                                                        "children": [],
                                                        "depth": 4,
                                                        "id": 17,
                                                        "order": 17
                                                    },
                                                    {
                                                        "children": [],
                                                        "depth": 4,
                                                        "id": 18,
                                                        "order": 18
                                                    },
                                                    {
                                                        "children": [
                                                            {
                                                                "children": [
                                                                    {
                                                                        "children": [],
                                                                        "depth": 6,
                                                                        "id": 21,
                                                                        "order": 21
                                                                    }
                                                                ],
                                                                "depth": 5,
                                                                "id": 20,
                                                                "order": 20
                                                            },
                                                            {
                                                                "children": [],
                                                                "depth": 5,
                                                                "id": 22,
                                                                "order": 22
                                                            },
                                                            {
                                                                "children": [],
                                                                "depth": 5,
                                                                "id": 23,
                                                                "order": 23
                                                            },
                                                            {
                                                                "children": [],
                                                                "depth": 5,
                                                                "id": 24,
                                                                "order": 24
                                                            },
                                                            {
                                                                "children": [],
                                                                "depth": 5,
                                                                "id": 25,
                                                                "order": 25
                                                            }
                                                        ],
                                                        "depth": 4,
                                                        "id": 19,
                                                        "order": 19
                                                    },
                                                    {
                                                        "children": [],
                                                        "depth": 4,
                                                        "id": 26,
                                                        "order": 26
                                                    },
                                                    {
                                                        "children": [
                                                            {
                                                                "children": [],
                                                                "depth": 5,
                                                                "id": 28,
                                                                "order": 28
                                                            }
                                                        ],
                                                        "depth": 4,
                                                        "id": 27,
                                                        "order": 27
                                                    },
                                                    {
                                                        "children": [
                                                            {
                                                                "children": [],
                                                                "depth": 5,
                                                                "id": 30,
                                                                "order": 30
                                                            },
                                                            {
                                                                "children": [
                                                                    {
                                                                        "children": [],
                                                                        "depth": 6,
                                                                        "id": 32,
                                                                        "order": 32
                                                                    },
                                                                    {
                                                                        "children": [],
                                                                        "depth": 6,
                                                                        "id": 33,
                                                                        "order": 33
                                                                    }
                                                                ],
                                                                "depth": 5,
                                                                "id": 31,
                                                                "order": 31
                                                            },
                                                            {
                                                                "children": [
                                                                    {
                                                                        "children": [
                                                                            {
                                                                                "children": [],
                                                                                "depth": 7,
                                                                                "id": 36,
                                                                                "order": 36
                                                                            }
                                                                        ],
                                                                        "depth": 6,
                                                                        "id": 35,
                                                                        "order": 35
                                                                    },
                                                                    {
                                                                        "children": [],
                                                                        "depth": 6,
                                                                        "id": 37,
                                                                        "order": 37
                                                                    },
                                                                    {
                                                                        "children": [],
                                                                        "depth": 6,
                                                                        "id": 38,
                                                                        "order": 38
                                                                    },
                                                                    {
                                                                        "children": [],
                                                                        "depth": 6,
                                                                        "id": 39,
                                                                        "order": 39
                                                                    },
                                                                    {
                                                                        "children": [],
                                                                        "depth": 6,
                                                                        "id": 40,
                                                                        "order": 40
                                                                    }
                                                                ],
                                                                "depth": 5,
                                                                "id": 34,
                                                                "order": 34
                                                            }
                                                        ],
                                                        "depth": 4,
                                                        "id": 29,
                                                        "order": 29
                                                    },
                                                    {
                                                        "children": [
                                                            {
                                                                "children": [],
                                                                "depth": 5,
                                                                "id": 42,
                                                                "order": 42
                                                            }
                                                        ],
                                                        "depth": 4,
                                                        "id": 41,
                                                        "order": 41
                                                    },
                                                    {
                                                        "children": [],
                                                        "depth": 4,
                                                        "id": 43,
                                                        "order": 43
                                                    },
                                                    {
                                                        "children": [
                                                            {
                                                                "children": [],
                                                                "depth": 5,
                                                                "id": 45,
                                                                "order": 45
                                                            }
                                                        ],
                                                        "depth": 4,
                                                        "id": 44,
                                                        "order": 44
                                                    }
                                                ],
                                                "depth": 3,
                                                "id": 5,
                                                "order": 5
                                            },
                                            {
                                                "children": [],
                                                "depth": 3,
                                                "id": 46,
                                                "order": 46
                                            },
                                            {
                                                "children": [],
                                                "depth": 3,
                                                "id": 47,
                                                "order": 47
                                            },
                                            {
                                                "children": [],
                                                "depth": 3,
                                                "id": 48,
                                                "order": 48
                                            },
                                            {
                                                "children": [],
                                                "depth": 3,
                                                "id": 49,
                                                "order": 49
                                            },
                                            {
                                                "children": [],
                                                "depth": 3,
                                                "id": 50,
                                                "order": 50
                                            }
                                        ],
                                        "depth": 2,
                                        "id": 2,
                                        "order": 2
                                    }
                                ],
                                "depth": 1,
                                "id": 1,
                                "order": 1
                            }
                        ],
                        "depth": 0,
                        "id": 0,
                        "order": 0
                    }
                ],
                "depth": -1,
                "id": -1,
                "order": -1
            }
        ],
        "mainTraceNodeCount": 51,
        "parentIdMap": {
            "0": -1,
            "1": 0,
            "10": 9,
            "11": 10,
            "12": 9,
            "13": 12,
            "14": 9,
            "15": 5,
            "16": 5,
            "17": 5,
            "18": 5,
            "19": 5,
            "2": 1,
            "20": 19,
            "21": 20,
            "22": 19,
            "23": 19,
            "24": 19,
            "25": 19,
            "26": 5,
            "27": 5,
            "28": 27,
            "29": 5,
            "3": 2,
            "30": 29,
            "31": 29,
            "32": 31,
            "33": 31,
            "34": 29,
            "35": 34,
            "36": 35,
            "37": 34,
            "38": 34,
            "39": 34,
            "4": 3,
            "40": 34,
            "41": 5,
            "42": 41,
            "43": 5,
            "44": 5,
            "45": 44,
            "46": 2,
            "47": 2,
            "48": 2,
            "49": 2,
            "5": 2,
            "50": 2,
            "6": 5,
            "7": 6,
            "8": 6,
            "9": 5
        },
        "tidyTrace": [
            {
                "children": [
                    {
                        "children": [
                            {
                                "children": [
                                    {
                                        "children": [
                                            {
                                                "children": [
                                                    {
                                                        "children": [],
                                                        "depth": 4,
                                                        "id": 4,
                                                        "order": 4
                                                    }
                                                ],
                                                "depth": 3,
                                                "id": 3,
                                                "order": 3
                                            },
                                            {
                                                "children": [
                                                    {
                                                        "children": [
                                                            {
                                                                "children": [],
                                                                "depth": 5,
                                                                "id": 7,
                                                                "order": 7
                                                            },
                                                            {
                                                                "children": [],
                                                                "depth": 5,
                                                                "id": 8,
                                                                "order": 8
                                                            }
                                                        ],
                                                        "depth": 4,
                                                        "id": 6,
                                                        "order": 6
                                                    },
                                                    {
                                                        "children": [
                                                            {
                                                                "children": [
                                                                    {
                                                                        "children": [],
                                                                        "depth": 6,
                                                                        "id": 11,
                                                                        "order": 11
                                                                    }
                                                                ],
                                                                "depth": 5,
                                                                "id": 10,
                                                                "order": 10
                                                            },
                                                            {
                                                                "children": [
                                                                    {
                                                                        "children": [],
                                                                        "depth": 6,
                                                                        "id": 13,
                                                                        "order": 13
                                                                    }
                                                                ],
                                                                "depth": 5,
                                                                "id": 12,
                                                                "order": 12
                                                            },
                                                            {
                                                                "children": [],
                                                                "depth": 5,
                                                                "id": 14,
                                                                "order": 14
                                                            }
                                                        ],
                                                        "depth": 4,
                                                        "id": 9,
                                                        "order": 9
                                                    },
                                                    {
                                                        "children": [
                                                            {
                                                                "children": [
                                                                    {
                                                                        "children": [],
                                                                        "depth": 6,
                                                                        "id": 21,
                                                                        "order": 21
                                                                    }
                                                                ],
                                                                "depth": 5,
                                                                "id": 20,
                                                                "order": 20
                                                            },
                                                            {
                                                                "children": [],
                                                                "depth": 5,
                                                                "id": 24,
                                                                "order": 24
                                                            },
                                                            {
                                                                "children": [],
                                                                "depth": 5,
                                                                "id": 25,
                                                                "order": 25
                                                            }
                                                        ],
                                                        "depth": 4,
                                                        "id": 19,
                                                        "order": 19
                                                    },
                                                    {
                                                        "children": [
                                                            {
                                                                "children": [],
                                                                "depth": 5,
                                                                "id": 28,
                                                                "order": 28
                                                            }
                                                        ],
                                                        "depth": 4,
                                                        "id": 27,
                                                        "order": 27
                                                    },
                                                    {
                                                        "children": [
                                                            {
                                                                "children": [
                                                                    {
                                                                        "children": [],
                                                                        "depth": 6,
                                                                        "id": 32,
                                                                        "order": 32
                                                                    },
                                                                    {
                                                                        "children": [],
                                                                        "depth": 6,
                                                                        "id": 33,
                                                                        "order": 33
                                                                    }
                                                                ],
                                                                "depth": 5,
                                                                "id": 31,
                                                                "order": 31
                                                            },
                                                            {
                                                                "children": [
                                                                    {
                                                                        "children": [
                                                                            {
                                                                                "children": [],
                                                                                "depth": 7,
                                                                                "id": 36,
                                                                                "order": 36
                                                                            }
                                                                        ],
                                                                        "depth": 6,
                                                                        "id": 35,
                                                                        "order": 35
                                                                    },
                                                                    {
                                                                        "children": [],
                                                                        "depth": 6,
                                                                        "id": 39,
                                                                        "order": 39
                                                                    },
                                                                    {
                                                                        "children": [],
                                                                        "depth": 6,
                                                                        "id": 40,
                                                                        "order": 40
                                                                    }
                                                                ],
                                                                "depth": 5,
                                                                "id": 34,
                                                                "order": 34
                                                            }
                                                        ],
                                                        "depth": 4,
                                                        "id": 29,
                                                        "order": 29
                                                    },
                                                    {
                                                        "children": [
                                                            {
                                                                "children": [],
                                                                "depth": 5,
                                                                "id": 42,
                                                                "order": 42
                                                            }
                                                        ],
                                                        "depth": 4,
                                                        "id": 41,
                                                        "order": 41
                                                    },
                                                    {
                                                        "children": [
                                                            {
                                                                "children": [],
                                                                "depth": 5,
                                                                "id": 45,
                                                                "order": 45
                                                            }
                                                        ],
                                                        "depth": 4,
                                                        "id": 44,
                                                        "order": 44
                                                    }
                                                ],
                                                "depth": 3,
                                                "id": 5,
                                                "order": 5
                                            },
                                            {
                                                "children": [],
                                                "depth": 3,
                                                "id": 50,
                                                "order": 50
                                            }
                                        ],
                                        "depth": 2,
                                        "id": 2,
                                        "order": 2
                                    }
                                ],
                                "depth": 1,
                                "id": 1,
                                "order": 1
                            }
                        ],
                        "depth": 0,
                        "id": 0,
                        "order": 0
                    }
                ],
                "depth": -1,
                "id": -1,
                "order": -1
            }
        ],
        "tidyTraceNodeCount": 36
    },
    "state_change": {
        "stateChanges": [
            {
                "address": "0x16b9a82891338f9ba80e2d6970fdda79d1eb0dae",
                "erc": "ERC-20",
                "slots": [
                    {
                        "current": "0x656ed9d000000000103c0494cd148903c7ae0000000e920f1e9cefc946388a77",
                        "key": "0x0000000000000000000000000000000000000000000000000000000000000008",
                        "prev": "0x656ed9cd00000000103d5b18342614be368c0000000e90db0a483a403fdac925"
                    },
                    {
                        "current": "0x000000000000000000000000000000040e692f7d2386dba63253d6dd1f5816e3",
                        "key": "0x0000000000000000000000000000000000000000000000000000000000000009",
                        "prev": "0x000000000000000000000000000000040e692c24e262279a692f6ca9f35656b0"
                    },
                    {
                        "current": "0x00000000000000000000000000067ce36dc9d0cecfd52097aa011f2f24136327",
                        "key": "0x000000000000000000000000000000000000000000000000000000000000000a",
                        "prev": "0x00000000000000000000000000067ce36b18f9447d8f073510e9f852c7cec2a6"
                    }
                ],
                "storageVariables": [
                    {
                        "name": "price1CumulativeLast",
                        "type": "uint256",
                        "value": {
                            "current": "144683784677751398106021990993674809361261351",
                            "prev": "144683781101079482420333014247317584288334502",
                            "typeTag": 1
                        }
                    },
                    {
                        "name": "reserve0",
                        "type": "uint112",
                        "value": {
                            "current": "17614705888166447540636279",
                            "prev": "17609022825996366074530085",
                            "typeTag": 1
                        }
                    },
                    {
                        "name": "reserve1",
                        "type": "uint112",
                        "value": {
                            "current": "76664998484497683171246",
                            "prev": "76689679168205659977356",
                            "typeTag": 1
                        }
                    },
                    {
                        "name": "blockTimestampLast",
                        "type": "uint32",
                        "value": {
                            "current": "1701763536",
                            "prev": "1701763533",
                            "typeTag": 1
                        }
                    },
                    {
                        "name": "price0CumulativeLast",
                        "type": "uint256",
                        "value": {
                            "current": "1380284813982655527554320736172400711395",
                            "prev": "1380284746143187518132779272365636212400",
                            "typeTag": 1
                        }
                    }
                ]
            },
            {
                "address": "0x4341bdced3908a45835c67a2dbbde2d2daa6645d",
                "erc": "ERC-20",
                "slots": [
                    {
                        "current": "0x0000000000000000000000000000000000000000004e950851be0c2ebf000000",
                        "key": "0x1e1eae3a380887964cc8c8a6921511bb1ca3568f80d6aee8261041a36db14cf4",
                        "prev": "0x0000000000000000000000000000000000000000000000000000000000000000"
                    },
                    {
                        "current": "0x00000000000000000000000000000000000000005b81c1443d4e2fb2a0000000",
                        "key": "0x0000000000000000000000000000000000000000000000000000000000000004",
                        "prev": "0x00000000000000000000000000000000000000005b2b5087e36388b267800000"
                    },
                    {
                        "current": "0x00000000000000000000000000000000000000000007dbb4082c9ad179800000",
                        "key": "0xc3a42d07a251b6136961901d971e0903eb5616e9d346be42b3a773fc3e2a0819",
                        "prev": "0x0000000000000000000000000000000000000000000000000000000000000000"
                    }
                ],
                "storageVariables": [
                    {
                        "name": "_treasury",
                        "type": "mapping(uint8 => mapping(address => struct Treasury.T))",
                        "value": {
                            "pairs": [
                                {
                                    "key": "0",
                                    "value": {
                                        "pairs": [
                                            {
                                                "key": "0x5813d7818c9d8f29a9a96b00031ef576e892def4",
                                                "value": {
                                                    "fields": [
                                                        {
                                                            "name": "fund",
                                                            "type": "uint256",
                                                            "value": {
                                                                "current": "9500000000000000000000000",
                                                                "prev": "0",
                                                                "typeTag": 1
                                                            }
                                                        }
                                                    ],
                                                    "typeTag": 3
                                                }
                                            }
                                        ],
                                        "typeTag": 4
                                    }
                                },
                                {
                                    "key": "1",
                                    "value": {
                                        "pairs": [
                                            {
                                                "key": "0xd7a7d90b63da1b4e7ef79cb36935d38af0d6d0b4",
                                                "value": {
                                                    "fields": [
                                                        {
                                                            "name": "fund",
                                                            "type": "uint256",
                                                            "value": {
                                                                "current": "95000000000000000000000000",
                                                                "prev": "0",
                                                                "typeTag": 1
                                                            }
                                                        }
                                                    ],
                                                    "typeTag": 3
                                                }
                                            }
                                        ],
                                        "typeTag": 4
                                    }
                                }
                            ],
                            "typeTag": 4
                        }
                    },
                    {
                        "name": "_capacity",
                        "type": "uint256",
                        "value": {
                            "current": "28320000000000000000000000000",
                            "prev": "28215500000000000000000000000",
                            "typeTag": 1
                        }
                    }
                ]
            },
            {
                "address": "0x55d398326f99059ff775485246999027b3197955",
                "erc": "ERC-20",
                "slots": [
                    {
                        "current": "0x0000000000000000000000000000000000000000000003dfb234ab48eba81980",
                        "key": "0x515b71a9aea85d710295654bfc5ff98e3885ceec46668edde2580c99550dfd7b",
                        "prev": "0x000000000000000000000000000000000000000000000513c68960d1f205dad2"
                    },
                    {
                        "current": "0xfffffffffffffffffffffffffffffffffffffffffffffecbebab4a76f9a23ead",
                        "key": "0xc2526d0f6605ab112deb5ed55c24c043d2ef10d83710195df4ad3aee1d4b879a",
                        "prev": "0x0000000000000000000000000000000000000000000000000000000000000000"
                    },
                    {
                        "current": "0x0000000000000000000000000000000000000000000e920f1e9cefc946388a77",
                        "key": "0xba08221f8673e7bcd34c1b8c4689a983ae464d35addf83dda4fe5d5546a79b0d",
                        "prev": "0x0000000000000000000000000000000000000000000e90db0a483a403fdac925"
                    }
                ],
                "storageVariables": [
                    {
                        "name": "_balances",
                        "type": "mapping(address => uint256)",
                        "value": {
                            "pairs": [
                                {
                                    "key": "0x16b9a82891338f9ba80e2d6970fdda79d1eb0dae",
                                    "value": {
                                        "current": "17614705888166447540636279",
                                        "prev": "17609022825996366074530085",
                                        "typeTag": 1
                                    }
                                },
                                {
                                    "key": "0x5813d7818c9d8f29a9a96b00031ef576e892def4",
                                    "value": {
                                        "current": "18293564453813385435520",
                                        "prev": "23976626623894851541714",
                                        "typeTag": 1
                                    }
                                }
                            ],
                            "typeTag": 4
                        }
                    },
                    {
                        "name": "_allowances",
                        "type": "mapping(address => mapping(address => uint256))",
                        "value": {
                            "pairs": [
                                {
                                    "key": "0xd7a7d90b63da1b4e7ef79cb36935d38af0d6d0b4",
                                    "value": {
                                        "pairs": [
                                            {
                                                "key": "0x10ed43c718714eb63d5aa57b78b54704e256024e",
                                                "value": {
                                                    "current": "115792089237316195423570985008687907853269984665640564033774521837831663533741",
                                                    "prev": "0",
                                                    "typeTag": 1
                                                }
                                            }
                                        ],
                                        "typeTag": 4
                                    }
                                }
                            ],
                            "typeTag": 4
                        }
                    }
                ]
            },
            {
                "address": "0x5813d7818c9d8f29a9a96b00031ef576e892def4",
                "erc": "ERC-20",
                "slots": [
                    {
                        "current": "0x000000000000000000000000000000000282758249dd8e8dad14f9a7b87dc7b1",
                        "key": "0x0000000000000000000000000000000000000000000000000000000000000009",
                        "prev": "0x000000000000000000000000000000000282416475e5c7240817d4c0231f86c7"
                    },
                    {
                        "current": "0x0000000000000000000000000000777de5de7fc607bd5cd80da6da4b42a222d5",
                        "key": "0x000000000000000000000000000000000000000000000000000000000000000a",
                        "prev": "0x00000000000000000000000000007778debbe5850554c04e55d33146498a810f"
                    },
                    {
                        "current": "0x656ed9d00000000003dfb234ab48eba8198000000021171c9aa8a54d73896dc3",
                        "key": "0x0000000000000000000000000000000000000000000000000000000000000008",
                        "prev": "0x656ed8cd000000000513c68960d1f205dad2000000193b68927c0a7bfa096dc3"
                    }
                ],
                "storageVariables": [
                    {
                        "name": "price0CumulativeLast",
                        "type": "uint256",
                        "value": {
                            "current": "3335837947624364949916440346505365425",
                            "prev": "3334780899107378699913064002292254407",
                            "typeTag": 1
                        }
                    },
                    {
                        "name": "price1CumulativeLast",
                        "type": "uint256",
                        "value": {
                            "current": "10409202870237079590509872708440078839587541",
                            "prev": "10407491974139769558633987207491063456104719",
                            "typeTag": 1
                        }
                    },
                    {
                        "name": "reserve0",
                        "type": "uint112",
                        "value": {
                            "current": "40003694129561858470407619",
                            "prev": "30503694129561858470407619",
                            "typeTag": 1
                        }
                    },
                    {
                        "name": "reserve1",
                        "type": "uint112",
                        "value": {
                            "current": "18293564453813385435520",
                            "prev": "23976626623894851541714",
                            "typeTag": 1
                        }
                    },
                    {
                        "name": "blockTimestampLast",
                        "type": "uint32",
                        "value": {
                            "current": "1701763536",
                            "prev": "1701763277",
                            "typeTag": 1
                        }
                    }
                ]
            },
            {
                "address": "0xbb4cdb9cbd36b01bd1cbaebf2de08d9173bc095c",
                "erc": "ERC-20",
                "slots": [
                    {
                        "current": "0x00000000000000000000000000000000000000000000103c0494cd148903c7ae",
                        "key": "0x65a91b743eebb93754974b0d76ae6fbcc9c7843adbbd90f71368692e5c22fe4d",
                        "prev": "0x00000000000000000000000000000000000000000000103d5b18342614be368c"
                    },
                    {
                        "current": "0x0000000000000000000000000000000000000000000000004ed5d7bc1f4e6ede",
                        "key": "0x3ec77dc42304dff419d0440ffc8a16595fc44e6f9499284cca9e0662a5fbf27f",
                        "prev": "0x0000000000000000000000000000000000000000000000000000000000000000"
                    }
                ],
                "storageVariables": [
                    {
                        "name": "balanceOf",
                        "type": "mapping(address => uint256)",
                        "value": {
                            "pairs": [
                                {
                                    "key": "0x16b9a82891338f9ba80e2d6970fdda79d1eb0dae",
                                    "value": {
                                        "current": "76664998484497683171246",
                                        "prev": "76689679168205659977356",
                                        "typeTag": 1
                                    }
                                },
                                {
                                    "key": "0x829fe73463ceae6579973b8bcd1e018976040ec4",
                                    "value": {
                                        "current": "5680683707976806110",
                                        "prev": "0",
                                        "typeTag": 1
                                    }
                                }
                            ],
                            "typeTag": 4
                        }
                    }
                ]
            }
        ]
    }
}