{
    "balance_change": {
        "balanceChanges": [
            {
                "account": "0xd0c8af170397c04525a02234b65e9a39969f4e93",
                "assets": [
                    {
                        "address": "0xeeeeeeeeeeeeeeeeeeeeeeeeeeeeeeeeeeeeeeee",
                        "amount": "37.687090507128961838",
                        "iconUrl": "https://assets.blocksec.com/image/1663669189317-2.png",
                        "isERC1155": false,
                        "isERC721": false,
                        "sign": true,
                        "value": "22395.72185"
                    },
                    {
                        "address": "0xbb4cdb9cbd36b01bd1cbaebf2de08d9173bc095c",
                        "amount": "0.000000000000000003",
                        "iconUrl": "https://assets.blocksec.com/icon/65a007cb-916d-490f-9438-b972e4549029.png",
                        "isERC1155": false,
                        "isERC721": false,
                        "sign": false,
                        "value": "0.0000000000000017862350999999999885"
                    }
                ]
            },
            {
                "account": "0x16b9a82891338f9ba80e2d6970fdda79d1eb0dae",
                "assets": [
                    {
                        "address": "0xbb4cdb9cbd36b01bd1cbaebf2de08d9173bc095c",
                        "amount": "37.687090507128961835",
                        "iconUrl": "https://assets.blocksec.com/icon/65a007cb-916d-490f-9438-b972e4549029.png",
                        "isERC1155": false,
                        "isERC721": false,
                        "sign": false,
                        "value": "22439.334628612966856"
                    },
                    {
                        "address": "0x55d398326f99059ff775485246999027b3197955",
                        "amount": "22,495.575756855855691599",
                        "iconUrl": "https://assets.blocksec.com/icon/810ebed5-1cb7-4a60-827d-c7eb0c438c0e.png",
                        "isERC1155": false,
                        "isERC721": false,
                        "sign": true,
                        "value": "22495.57576"
                    }
                ]
            },
            {
                "account": "0x6a75ac4b8d8e76d15502e69be4cb6325422833b4",
                "assets": [
                    {
                        "address": "0x55d398326f99059ff775485246999027b3197955",
                        "amount": "22,495.575756855855691599",
                        "iconUrl": "https://assets.blocksec.com/icon/810ebed5-1cb7-4a60-827d-c7eb0c438c0e.png",
                        "isERC1155": false,
                        "isERC721": false,
                        "sign": false,
                        "value": "22495.57576"
                    }
                ]
            },
            {
                "account": "0xbb4cdb9cbd36b01bd1cbaebf2de08d9173bc095c",
                "assets": [
                    {
                        "address": "0xeeeeeeeeeeeeeeeeeeeeeeeeeeeeeeeeeeeeeeee",
                        "amount": "37.687090507128961838",
                        "iconUrl": "https://assets.blocksec.com/image/1663669189317-2.png",
                        "isERC1155": false,
                        "isERC721": false,
                        "sign": false,
                        "value": "22395.72185"
                    },
                    {
                        "address": "0xbb4cdb9cbd36b01bd1cbaebf2de08d9173bc095c",
                        "amount": "37.687090507128961838",
                        "iconUrl": "https://assets.blocksec.com/icon/65a007cb-916d-490f-9438-b972e4549029.png",
                        "isERC1155": false,
                        "isERC721": false,
                        "sign": true,
                        "value": "22439.334628612966856"
                    }
                ]
            }
        ]
    },
    "profile": {
        "basic_info": {
            "baseFee": "0",
            "blockNumber": 37470332,
            "callData": "0x6dca46ec00000000000000000000000000000000000000000000000000000000000000800000000000000000000000000000000000000000000000000000000000000001000000000000000000000000f436f8fe7b26d87eb74e5446acec2e8ad4075e470000000000000000000000006a75ac4b8d8e76d15502e69be4cb6325422833b400000000000000000000000000000000000000000000000000000000000000010000000000000000000000000000000000000000000000000000000000000018",
            "debugEnable": true,
            "errorInfo": "",
            "eventCount": 13,
            "feeRecipient": "0xa6f79b60359f141df90a0c745125b131caaffd12",
            "formatValue": "0",
            "gasLimit": 30000000,
            "gasPrice": "3",
            "gasUsed": 306040,
            "intTxnCount": 42,
            "internalRevert": false,
            "internalRevertMessage": "",
            "isContractCreation": false,
            "isFlashloan": false,
            "maxFee": "",
            "nonce": 2,
            "overwritedBlockNumber": -1,
            "priorityFee": "",
            "receiver": "0xd0c8af170397c04525a02234b65e9a39969f4e93",
            "revertMessage": "",
            "sender": "0x5bb5b6d41c3e5e41d9b9ed33d12f1537a1293d5f",
            "simulationEnable": true,
            "sourceTxnHash": "0x210071108f3e5cd24f49ef4b8bcdc11804984b0c0334e18a9a2cdb4cd5186067",
            "status": true,
            "timestamp": "2024-04-01T05:19:02Z",
            "transactionFee": "0.00091812",
            "txnHash": "0x210071108f3e5cd24f49ef4b8bcdc11804984b0c0334e18a9a2cdb4cd5186067",
            "txnIndex": 32,
            "type": 0,
            "value": "0"
        },
        "fund_flow": [
            {
                "amount": "22,495.575756855855691599",
                "from": "0x6a75ac4b8d8e76d15502e69be4cb6325422833b4",
                "id": 1,
                "isERC1155": false,
                "isERC721": false,
                "isReverted": false,
                "order": 1,
                "to": "0xd0c8af170397c04525a02234b65e9a39969f4e93",
                "token": "0x55d398326f99059ff775485246999027b3197955"
            },
            {
                "amount": "0.000000000000000003",
                "from": "0xbb4cdb9cbd36b01bd1cbaebf2de08d9173bc095c",
                "id": 2,
                "isERC1155": false,
                "isERC721": false,
                "isReverted": false,
                "order": 2,
                "to": "0xd0c8af170397c04525a02234b65e9a39969f4e93",
                "token": "0xeeeeeeeeeeeeeeeeeeeeeeeeeeeeeeeeeeeeeeee"
            },
            {
                "amount": "0.000000000000000003",
                "from": "0xd0c8af170397c04525a02234b65e9a39969f4e93",
                "id": 3,
                "isERC1155": false,
                "isERC721": false,
                "isReverted": false,
                "order": 3,
                "to": "0xbb4cdb9cbd36b01bd1cbaebf2de08d9173bc095c",
                "token": "0xbb4cdb9cbd36b01bd1cbaebf2de08d9173bc095c"
            },
            {
                "amount": "22,495.575756855855691599",
                "from": "0xd0c8af170397c04525a02234b65e9a39969f4e93",
                "id": 4,
                "isERC1155": false,
                "isERC721": false,
                "isReverted": false,
                "order": 4,
                "to": "0x16b9a82891338f9ba80e2d6970fdda79d1eb0dae",
                "token": "0x55d398326f99059ff775485246999027b3197955"
            },
            {
                "amount": "37.687090507128961835",
                "from": "0x16b9a82891338f9ba80e2d6970fdda79d1eb0dae",
                "id": 5,
                "isERC1155": false,
                "isERC721": false,
                "isReverted": false,
                "order": 5,
                "to": "0x10ed43c718714eb63d5aa57b78b54704e256024e",
                "token": "0xbb4cdb9cbd36b01bd1cbaebf2de08d9173bc095c"
            },
            {
                "amount": "37.687090507128961835",
                "from": "0xbb4cdb9cbd36b01bd1cbaebf2de08d9173bc095c",
                "id": 6,
                "isERC1155": false,
                "isERC721": false,
                "isReverted": false,
                "order": 6,
                "to": "0x10ed43c718714eb63d5aa57b78b54704e256024e",
                "token": "0xeeeeeeeeeeeeeeeeeeeeeeeeeeeeeeeeeeeeeeee"
            },
            {
                "amount": "37.687090507128961835",
                "from": "0x10ed43c718714eb63d5aa57b78b54704e256024e",
                "id": 7,
                "isERC1155": false,
                "isERC721": false,
                "isReverted": false,
                "order": 7,
                "to": "0xbb4cdb9cbd36b01bd1cbaebf2de08d9173bc095c",
                "token": "0xbb4cdb9cbd36b01bd1cbaebf2de08d9173bc095c"
            },
            {
                "amount": "37.687090507128961835",
                "from": "0x10ed43c718714eb63d5aa57b78b54704e256024e",
                "id": 8,
                "isERC1155": false,
                "isERC721": false,
                "isReverted": false,
                "order": 8,
                "to": "0xd0c8af170397c04525a02234b65e9a39969f4e93",
                "token": "0xeeeeeeeeeeeeeeeeeeeeeeeeeeeeeeeeeeeeeeee"
            }
        ],
        "token_infos": [
            {
                "address": "0xeeeeeeeeeeeeeeeeeeeeeeeeeeeeeeeeeeeeeeee",
                "decimals": 18
            },
            {
                "address": "0x55d398326f99059ff775485246999027b3197955",
                "decimals": 18
            },
            {
                "address": "0xbb4cdb9cbd36b01bd1cbaebf2de08d9173bc095c",
                "decimals": 18
            }
        ]
    },
    "address_label": {
        "labels": [
            {
                "address": "0x0000000000000000000000000000000000000003",
                "label": "Precompiled"
            },
            {
                "address": "0x16b9a82891338f9ba80e2d6970fdda79d1eb0dae",
                "label": "PancakeSwap: WBNB-BSC-USD 2"
            },
            {
                "address": "0x6a75ac4b8d8e76d15502e69be4cb6325422833b4",
                "label": "OpenLeverage: Trade Controller"
            },
            {
                "address": "0xbb4cdb9cbd36b01bd1cbaebf2de08d9173bc095c",
                "label": "Wrapped BNB"
            },
            {
                "address": "0x7c5e04894410e98b1788fbdb181ffacbf8e60617",
                "label": "OpenLeverage LToken (LToken)"
            },
            {
                "address": "0xa75323e651e0eac7756003f7e0c3fc8967fb1925",
                "label": "LToken"
            },
            {
                "address": "0x912c0462474c933499a6923a6afc6ac1e58b8ce4",
                "label": "ControllerDelegator"
            },
            {
                "address": "0xe307e9c4aa77e69ff084e4ffcd7de93f497d68b6",
                "label": "LPool"
            },
            {
                "address": "0xbdc76cd9b04f17473aafe4569f4776cec76f0526",
                "label": "ControllerV1"
            },
            {
                "address": "0x0000000000000000000000000000000000000002",
                "label": "Precompiled"
            },
            {
                "address": "0x0000000000000000000000000000000000000004",
                "label": "Precompiled"
            },
            {
                "address": "0x5bb5b6d41c3e5e41d9b9ed33d12f1537a1293d5f",
                "label": "Fake_Phishing327281"
            },
            {
                "address": "0x88a149ac891af29e0b59616af8d146a58e17fbc0",
                "label": "OpenLevV1"
            },
            {
                "address": "0x0000000000000000000000000000000000000001",
                "label": "Precompiled"
            },
            {
                "address": "0x55d398326f99059ff775485246999027b3197955",
                "label": "BUSD-T Stablecoin"
            },
            {
                "address": "0xeeeeeeeeeeeeeeeeeeeeeeeeeeeeeeeeeeeeeeee",
                "label": "BNB"
            },
            {
                "address": "0x665c2e9c433f07cb464fa1315942c2e05be19208",
                "label": "OpenLevV1Lib"
            },
            {
                "address": "0x10ed43c718714eb63d5aa57b78b54704e256024e",
                "label": "PancakeRouter"
            }
        ]
    },
    "trace": {
        "accountLabels": null,
        "dataMap": {
            "-1": {
                "invocation": {
                    "address": "0x5bb5b6d41c3e5e41d9b9ed33d12f1537a1293d5f",
                    "callData": "",
                    "decodedMethod": null,
                    "errorInfo": "",
                    "fromAddress": "",
                    "gasUsed": 0,
                    "id": -1,
                    "methodDecoded": false,
                    "operation": "",
                    "output": "",
                    "revert": false,
                    "revertMessage": "",
                    "selector": "",
                    "status": false,
                    "value": ""
                },
                "nodeType": 0
            },
            "0": {
                "invocation": {
                    "address": "0xd0c8af170397c04525a02234b65e9a39969f4e93",
                    "callData": "0x00000000000000000000000000000000000000000000000000000000000000800000000000000000000000000000000000000000000000000000000000000001000000000000000000000000f436f8fe7b26d87eb74e5446acec2e8ad4075e470000000000000000000000006a75ac4b8d8e76d15502e69be4cb6325422833b400000000000000000000000000000000000000000000000000000000000000010000000000000000000000000000000000000000000000000000000000000018",
                    "decodedMethod": null,
                    "errorInfo": "",
                    "fromAddress": "0x5bb5b6d41c3e5e41d9b9ed33d12f1537a1293d5f",
                    "gasUsed": 306040,
                    "id": 0,
                    "methodDecoded": false,
                    "operation": "CALL",
                    "output": "",
                    "revert": false,
                    "revertMessage": "",
                    "selector": "0x6dca46ec",
                    "status": true,
                    "value": "0"
                },
                "nodeType": 0
            },
            "1": {
                "invocation": {
                    "address": "0x6a75ac4b8d8e76d15502e69be4cb6325422833b4",
                    "callData": "0x0000000000000000000000000000000000000000000000000000000000000018",
                    "decodedMethod": {
                        "callParams": [
                            {
                                "name": "",
                                "type": "uint16",
                                "value": "24"
                            }
                        ],
                        "constructorArguments": "",
                        "name": "markets",
                        "returnParams": [
                            {
                                "name": "pool0",
                                "type": "address",
                                "value": "0x7c5e04894410e98b1788fbdb181ffacbf8e60617"
                            },
                            {
                                "name": "pool1",
                                "type": "address",
                                "value": "0xa75323e651e0eac7756003f7e0c3fc8967fb1925"
                            },
                            {
                                "name": "token0",
                                "type": "address",
                                "value": "0xbb4cdb9cbd36b01bd1cbaebf2de08d9173bc095c"
                            },
                            {
                                "name": "token1",
                                "type": "address",
                                "value": "0x55d398326f99059ff775485246999027b3197955"
                            },
                            {
                                "name": "marginLimit",
                                "type": "uint16",
                                "value": "450"
                            },
                            {
                                "name": "feesRate",
                                "type": "uint16",
                                "value": "0"
                            },
                            {
                                "name": "priceDiffientRatio",
                                "type": "uint16",
                                "value": "5"
                            },
                            {
                                "name": "priceUpdater",
                                "type": "address",
                                "value": "0x74e4fb918480d57718ad1e46113f70a110ff7fbe"
                            },
                            {
                                "name": "pool0Insurance",
                                "type": "uint256",
                                "value": "57,549,311,202,102,038,545"
                            },
                            {
                                "name": "pool1Insurance",
                                "type": "uint256",
                                "value": "10,564,809,865,456,566,322,330"
                            }
                        ],
                        "signature": "markets(uint16)"
                    },
                    "errorInfo": "",
                    "fromAddress": "0xd0c8af170397c04525a02234b65e9a39969f4e93",
                    "gasUsed": 21062,
                    "id": 1,
                    "methodDecoded": true,
                    "operation": "CALL",
                    "output": "0x0000000000000000000000007c5e04894410e98b1788fbdb181ffacbf8e60617000000000000000000000000a75323e651e0eac7756003f7e0c3fc8967fb1925000000000000000000000000bb4cdb9cbd36b01bd1cbaebf2de08d9173bc095c00000000000000000000000055d398326f99059ff775485246999027b319795500000000000000000000000000000000000000000000000000000000000001c20000000000000000000000000000000000000000000000000000000000000000000000000000000000000000000000000000000000000000000000000000000500000000000000000000000074e4fb918480d57718ad1e46113f70a110ff7fbe0000000000000000000000000000000000000000000000031ea839a105b3501100000000000000000000000000000000000000000000023cb83085df010ec49a",
                    "revert": false,
                    "revertMessage": "",
                    "selector": "0x284f4302",
                    "status": true,
                    "value": "0"
                },
                "nodeType": 0
            },
            "10": {
                "invocation": {
                    "address": "0xe307e9c4aa77e69ff084e4ffcd7de93f497d68b6",
                    "callData": "0x000000000000000000000000d0c8af170397c04525a02234b65e9a39969f4e93",
                    "decodedMethod": {
                        "callParams": [
                            {
                                "name": "account",
                                "type": "address",
                                "value": "0xd0c8af170397c04525a02234b65e9a39969f4e93"
                            }
                        ],
                        "constructorArguments": "",
                        "name": "borrowBalanceCurrent",
                        "returnParams": [
                            {
                                "name": "",
                                "type": "uint256",
                                "value": "0"
                            }
                        ],
                        "signature": "borrowBalanceCurrent(address)"
                    },
                    "errorInfo": "",
                    "fromAddress": "0x7c5e04894410e98b1788fbdb181ffacbf8e60617",
                    "gasUsed": 25042,
                    "id": 10,
                    "methodDecoded": true,
                    "operation": "DELEGATECALL",
                    "output": "0x0000000000000000000000000000000000000000000000000000000000000000",
                    "revert": false,
                    "revertMessage": "",
                    "selector": "0x17bfdfbc",
                    "status": true,
                    "value": "0"
                },
                "nodeType": 0
            },
            "11": {
                "invocation": {
                    "address": "0xbb4cdb9cbd36b01bd1cbaebf2de08d9173bc095c",
                    "callData": "0x0000000000000000000000007c5e04894410e98b1788fbdb181ffacbf8e60617",
                    "decodedMethod": {
                        "callParams": [
                            {
                                "name": "",
                                "type": "address",
                                "value": "0x7c5e04894410e98b1788fbdb181ffacbf8e60617"
                            }
                        ],
                        "constructorArguments": "",
                        "name": "balanceOf",
                        "returnParams": [
                            {
                                "decimalAvailable": true,
                                "name": "",
                                "type": "uint256",
                                "value": "120,891,542,002,304,443,426"
                            }
                        ],
                        "signature": "balanceOf(address)"
                    },
                    "errorInfo": "",
                    "fromAddress": "0x7c5e04894410e98b1788fbdb181ffacbf8e60617",
                    "gasUsed": 2534,
                    "id": 11,
                    "methodDecoded": true,
                    "operation": "STATICCALL",
                    "output": "0x0000000000000000000000000000000000000000000000068db508f0b4926422",
                    "revert": false,
                    "revertMessage": "",
                    "selector": "0x70a08231",
                    "status": true,
                    "value": "0"
                },
                "nodeType": 0
            },
            "12": {
                "invocation": {
                    "address": "0x665c2e9c433f07cb464fa1315942c2e05be19208",
                    "callData": "0x000000000000000000000000d0c8af170397c04525a02234b65e9a39969f4e93000000000000000000000000bb4cdb9cbd36b01bd1cbaebf2de08d9173bc095c000000000000000000000000bb4cdb9cbd36b01bd1cbaebf2de08d9173bc095c0000000000000000000000000000000000000000000000000000000000000000",
                    "decodedMethod": null,
                    "errorInfo": "",
                    "fromAddress": "0x6a75ac4b8d8e76d15502e69be4cb6325422833b4",
                    "gasUsed": 3155,
                    "id": 12,
                    "methodDecoded": false,
                    "operation": "DELEGATECALL",
                    "output": "0x0000000000000000000000000000000000000000000000000000000000000000",
                    "revert": false,
                    "revertMessage": "",
                    "selector": "0x289e376f",
                    "status": true,
                    "value": "0"
                },
                "nodeType": 0
            },
            "13": {
                "invocation": {
                    "address": "0xbb4cdb9cbd36b01bd1cbaebf2de08d9173bc095c",
                    "callData": "0x",
                    "decodedMethod": {
                        "callParams": [],
                        "constructorArguments": "",
                        "name": "deposit",
                        "returnParams": [],
                        "signature": "deposit()"
                    },
                    "errorInfo": "",
                    "fromAddress": "0x6a75ac4b8d8e76d15502e69be4cb6325422833b4",
                    "gasUsed": 2074,
                    "id": 13,
                    "methodDecoded": true,
                    "operation": "CALL",
                    "output": "",
                    "revert": false,
                    "revertMessage": "",
                    "selector": "0xd0e30db0",
                    "status": true,
                    "value": "0"
                },
                "nodeType": 0
            },
            "14": {
                "event": {
                    "contract": "0xbb4cdb9cbd36b01bd1cbaebf2de08d9173bc095c",
                    "decodedLog": {
                        "name": "Deposit",
                        "params": [
                            {
                                "name": "dst",
                                "type": "address",
                                "value": "0x6a75ac4b8d8e76d15502e69be4cb6325422833b4"
                            },
                            {
                                "name": "wad",
                                "type": "uint256",
                                "value": "0"
                            }
                        ],
                        "signature": "Deposit(address,uint256)"
                    },
                    "id": 14,
                    "logData": "0x0000000000000000000000000000000000000000000000000000000000000000",
                    "logDecoded": true,
                    "operation": "EVENT",
                    "revert": false,
                    "status": true,
                    "topics": [
                        "0xe1fffcc4923d04b559f4d29a8bfc6cda04eb5b0d3c460751c2402c5c5cc9109c",
                        "0x0000000000000000000000006a75ac4b8d8e76d15502e69be4cb6325422833b4"
                    ]
                },
                "nodeType": 1
            },
            "15": {
                "invocation": {
                    "address": "0x7c5e04894410e98b1788fbdb181ffacbf8e60617",
                    "callData": "0x000000000000000000000000d0c8af170397c04525a02234b65e9a39969f4e930000000000000000000000000000000000000000000000000000000000000000",
                    "decodedMethod": {
                        "callParams": [
                            {
                                "name": "borrower",
                                "type": "address",
                                "value": "0xd0c8af170397c04525a02234b65e9a39969f4e93"
                            },
                            {
                                "name": "repayAmount",
                                "type": "uint256",
                                "value": "0"
                            }
                        ],
                        "constructorArguments": "",
                        "name": "repayBorrowBehalf",
                        "returnParams": [],
                        "signature": "repayBorrowBehalf(address,uint256)"
                    },
                    "errorInfo": "",
                    "fromAddress": "0x6a75ac4b8d8e76d15502e69be4cb6325422833b4",
                    "gasUsed": 41916,
                    "id": 15,
                    "methodDecoded": true,
                    "operation": "CALL",
                    "output": "",
                    "revert": false,
                    "revertMessage": "",
                    "selector": "0x2608f818",
                    "status": true,
                    "value": "0"
                },
                "nodeType": 0
            },
            "16": {
                "invocation": {
                    "address": "0xe307e9c4aa77e69ff084e4ffcd7de93f497d68b6",
                    "callData": "0x000000000000000000000000d0c8af170397c04525a02234b65e9a39969f4e930000000000000000000000000000000000000000000000000000000000000000",
                    "decodedMethod": {
                        "callParams": [
                            {
                                "name": "borrower",
                                "type": "address",
                                "value": "0xd0c8af170397c04525a02234b65e9a39969f4e93"
                            },
                            {
                                "name": "repayAmount",
                                "type": "uint256",
                                "value": "0"
                            }
                        ],
                        "constructorArguments": "",
                        "name": "repayBorrowBehalf",
                        "returnParams": [],
                        "signature": "repayBorrowBehalf(address,uint256)"
                    },
                    "errorInfo": "",
                    "fromAddress": "0x7c5e04894410e98b1788fbdb181ffacbf8e60617",
                    "gasUsed": 41246,
                    "id": 16,
                    "methodDecoded": true,
                    "operation": "DELEGATECALL",
                    "output": "",
                    "revert": false,
                    "revertMessage": "",
                    "selector": "0x2608f818",
                    "status": true,
                    "value": "0"
                },
                "nodeType": 0
            },
            "17": {
                "invocation": {
                    "address": "0xbb4cdb9cbd36b01bd1cbaebf2de08d9173bc095c",
                    "callData": "0x0000000000000000000000007c5e04894410e98b1788fbdb181ffacbf8e60617",
                    "decodedMethod": {
                        "callParams": [
                            {
                                "name": "",
                                "type": "address",
                                "value": "0x7c5e04894410e98b1788fbdb181ffacbf8e60617"
                            }
                        ],
                        "constructorArguments": "",
                        "name": "balanceOf",
                        "returnParams": [
                            {
                                "decimalAvailable": true,
                                "name": "",
                                "type": "uint256",
                                "value": "120,891,542,002,304,443,426"
                            }
                        ],
                        "signature": "balanceOf(address)"
                    },
                    "errorInfo": "",
                    "fromAddress": "0x7c5e04894410e98b1788fbdb181ffacbf8e60617",
                    "gasUsed": 534,
                    "id": 17,
                    "methodDecoded": true,
                    "operation": "STATICCALL",
                    "output": "0x0000000000000000000000000000000000000000000000068db508f0b4926422",
                    "revert": false,
                    "revertMessage": "",
                    "selector": "0x70a08231",
                    "status": true,
                    "value": "0"
                },
                "nodeType": 0
            },
            "18": {
                "event": {
                    "contract": "0x7c5e04894410e98b1788fbdb181ffacbf8e60617",
                    "decodedLog": {
                        "name": "AccrueInterest",
                        "params": [
                            {
                                "name": "cashPrior",
                                "type": "uint256",
                                "value": "120,891,542,002,304,443,426"
                            },
                            {
                                "name": "interestAccumulated",
                                "type": "uint256",
                                "value": "2,217,381,610,825"
                            },
                            {
                                "name": "borrowIndex",
                                "type": "uint256",
                                "value": "14,070,629,675,425,302,226,706,808"
                            },
                            {
                                "name": "totalBorrows",
                                "type": "uint256",
                                "value": "41,520,149,634,999,288,806"
                            }
                        ],
                        "signature": "AccrueInterest(uint256,uint256,uint256,uint256)"
                    },
                    "id": 18,
                    "logData": "0x0000000000000000000000000000000000000000000000068db508f0b492642200000000000000000000000000000000000000000000000000000204463e45490000000000000000000000000000000000000000000ba3925cf5383fd1fca1780000000000000000000000000000000000000000000000024035341c1f3283e6",
                    "logDecoded": true,
                    "operation": "EVENT",
                    "revert": false,
                    "status": true,
                    "topics": [
                        "0x4dec04e750ca11537cabcd8a9eab06494de08da3735bc8871cd41250e190bc04"
                    ]
                },
                "nodeType": 1
            },
            "19": {
                "invocation": {
                    "address": "0x912c0462474c933499a6923a6afc6ac1e58b8ce4",
                    "callData": "0x0000000000000000000000006a75ac4b8d8e76d15502e69be4cb6325422833b4000000000000000000000000d0c8af170397c04525a02234b65e9a39969f4e9300000000000000000000000000000000000000000000000000000000000000000000000000000000000000000000000000000000000000000000000000000000",
                    "decodedMethod": {
                        "callParams": [
                            {
                                "name": "payer",
                                "type": "address",
                                "value": "0x6a75ac4b8d8e76d15502e69be4cb6325422833b4"
                            },
                            {
                                "name": "borrower",
                                "type": "address",
                                "value": "0xd0c8af170397c04525a02234b65e9a39969f4e93"
                            },
                            {
                                "name": "repayAmount",
                                "type": "uint256",
                                "value": "0"
                            },
                            {
                                "name": "isEnd",
                                "type": "bool",
                                "value": false
                            }
                        ],
                        "constructorArguments": "",
                        "name": "repayBorrowAllowed",
                        "returnParams": [],
                        "signature": "repayBorrowAllowed(address,address,uint256,bool)"
                    },
                    "errorInfo": "",
                    "fromAddress": "0x7c5e04894410e98b1788fbdb181ffacbf8e60617",
                    "gasUsed": 1276,
                    "id": 19,
                    "methodDecoded": true,
                    "operation": "CALL",
                    "output": "",
                    "revert": false,
                    "revertMessage": "",
                    "selector": "0x09644e98",
                    "status": true,
                    "value": "0"
                },
                "nodeType": 0
            },
            "2": {
                "invocation": {
                    "address": "0x88a149ac891af29e0b59616af8d146a58e17fbc0",
                    "callData": "0x0000000000000000000000000000000000000000000000000000000000000018",
                    "decodedMethod": {
                        "callParams": [
                            {
                                "name": "",
                                "type": "uint16",
                                "value": "24"
                            }
                        ],
                        "constructorArguments": "",
                        "name": "markets",
                        "returnParams": [
                            {
                                "name": "pool0",
                                "type": "address",
                                "value": "0x7c5e04894410e98b1788fbdb181ffacbf8e60617"
                            },
                            {
                                "name": "pool1",
                                "type": "address",
                                "value": "0xa75323e651e0eac7756003f7e0c3fc8967fb1925"
                            },
                            {
                                "name": "token0",
                                "type": "address",
                                "value": "0xbb4cdb9cbd36b01bd1cbaebf2de08d9173bc095c"
                            },
                            {
                                "name": "token1",
                                "type": "address",
                                "value": "0x55d398326f99059ff775485246999027b3197955"
                            },
                            {
                                "name": "marginLimit",
                                "type": "uint16",
                                "value": "450"
                            },
                            {
                                "name": "feesRate",
                                "type": "uint16",
                                "value": "0"
                            },
                            {
                                "name": "priceDiffientRatio",
                                "type": "uint16",
                                "value": "5"
                            },
                            {
                                "name": "priceUpdater",
                                "type": "address",
                                "value": "0x74e4fb918480d57718ad1e46113f70a110ff7fbe"
                            },
                            {
                                "name": "pool0Insurance",
                                "type": "uint256",
                                "value": "57,549,311,202,102,038,545"
                            },
                            {
                                "name": "pool1Insurance",
                                "type": "uint256",
                                "value": "10,564,809,865,456,566,322,330"
                            }
                        ],
                        "signature": "markets(uint16)"
                    },
                    "errorInfo": "",
                    "fromAddress": "0x6a75ac4b8d8e76d15502e69be4cb6325422833b4",
                    "gasUsed": 15735,
                    "id": 2,
                    "methodDecoded": true,
                    "operation": "DELEGATECALL",
                    "output": "0x0000000000000000000000007c5e04894410e98b1788fbdb181ffacbf8e60617000000000000000000000000a75323e651e0eac7756003f7e0c3fc8967fb1925000000000000000000000000bb4cdb9cbd36b01bd1cbaebf2de08d9173bc095c00000000000000000000000055d398326f99059ff775485246999027b319795500000000000000000000000000000000000000000000000000000000000001c20000000000000000000000000000000000000000000000000000000000000000000000000000000000000000000000000000000000000000000000000000000500000000000000000000000074e4fb918480d57718ad1e46113f70a110ff7fbe0000000000000000000000000000000000000000000000031ea839a105b3501100000000000000000000000000000000000000000000023cb83085df010ec49a",
                    "revert": false,
                    "revertMessage": "",
                    "selector": "0x284f4302",
                    "status": true,
                    "value": "0"
                },
                "nodeType": 0
            },
            "20": {
                "invocation": {
                    "address": "0xbdc76cd9b04f17473aafe4569f4776cec76f0526",
                    "callData": "0x0000000000000000000000006a75ac4b8d8e76d15502e69be4cb6325422833b4000000000000000000000000d0c8af170397c04525a02234b65e9a39969f4e9300000000000000000000000000000000000000000000000000000000000000000000000000000000000000000000000000000000000000000000000000000000",
                    "decodedMethod": {
                        "callParams": [
                            {
                                "name": "payer",
                                "type": "address",
                                "value": "0x6a75ac4b8d8e76d15502e69be4cb6325422833b4"
                            },
                            {
                                "name": "borrower",
                                "type": "address",
                                "value": "0xd0c8af170397c04525a02234b65e9a39969f4e93"
                            },
                            {
                                "name": "repayAmount",
                                "type": "uint256",
                                "value": "0"
                            },
                            {
                                "name": "isEnd",
                                "type": "bool",
                                "value": false
                            }
                        ],
                        "constructorArguments": "",
                        "name": "repayBorrowAllowed",
                        "returnParams": [],
                        "signature": "repayBorrowAllowed(address,address,uint256,bool)"
                    },
                    "errorInfo": "",
                    "fromAddress": "0x912c0462474c933499a6923a6afc6ac1e58b8ce4",
                    "gasUsed": 616,
                    "id": 20,
                    "methodDecoded": true,
                    "operation": "DELEGATECALL",
                    "output": "",
                    "revert": false,
                    "revertMessage": "",
                    "selector": "0x09644e98",
                    "status": true,
                    "value": "0"
                },
                "nodeType": 0
            },
            "21": {
                "event": {
                    "contract": "0x7c5e04894410e98b1788fbdb181ffacbf8e60617",
                    "decodedLog": {
                        "name": "RepayBorrow",
                        "params": [
                            {
                                "name": "payer",
                                "type": "address",
                                "value": "0x6a75ac4b8d8e76d15502e69be4cb6325422833b4"
                            },
                            {
                                "name": "borrower",
                                "type": "address",
                                "value": "0xd0c8af170397c04525a02234b65e9a39969f4e93"
                            },
                            {
                                "name": "repayAmount",
                                "type": "uint256",
                                "value": "0"
                            },
                            {
                                "name": "accountBorrows",
                                "type": "uint256",
                                "value": "0"
                            },
                            {
                                "name": "accountInterestIndex",
                                "type": "uint256",
                                "value": "0"
                            },
                            {
                                "name": "totalBorrows",
                                "type": "uint256",
                                "value": "41,520,149,634,999,288,806"
                            }
                        ],
                        "signature": "RepayBorrow(address,address,uint256,uint256,uint256,uint256)"
                    },
                    "id": 21,
                    "logData": "0x0000000000000000000000006a75ac4b8d8e76d15502e69be4cb6325422833b4000000000000000000000000d0c8af170397c04525a02234b65e9a39969f4e930000000000000000000000000000000000000000000000000000000000000000000000000000000000000000000000000000000000000000000000000000000000000000000000000000000000000000000000000000000000000000000000000000000000000000000000000000000000000000000000024035341c1f3283e6",
                    "logDecoded": true,
                    "operation": "EVENT",
                    "revert": false,
                    "status": true,
                    "topics": [
                        "0x6fadbf7329d21f278e724fa0d4511001a158f2a97ee35c5bc4cf8b64417399ef"
                    ]
                },
                "nodeType": 1
            },
            "22": {
                "invocation": {
                    "address": "0x7c5e04894410e98b1788fbdb181ffacbf8e60617",
                    "callData": "0x000000000000000000000000d0c8af170397c04525a02234b65e9a39969f4e93",
                    "decodedMethod": {
                        "callParams": [
                            {
                                "name": "account",
                                "type": "address",
                                "value": "0xd0c8af170397c04525a02234b65e9a39969f4e93"
                            }
                        ],
                        "constructorArguments": "",
                        "name": "borrowBalanceStored",
                        "returnParams": [
                            {
                                "name": "",
                                "type": "uint256",
                                "value": "0"
                            }
                        ],
                        "signature": "borrowBalanceStored(address)"
                    },
                    "errorInfo": "",
                    "fromAddress": "0x6a75ac4b8d8e76d15502e69be4cb6325422833b4",
                    "gasUsed": 1293,
                    "id": 22,
                    "methodDecoded": true,
                    "operation": "STATICCALL",
                    "output": "0x0000000000000000000000000000000000000000000000000000000000000000",
                    "revert": false,
                    "revertMessage": "",
                    "selector": "0x95dd9193",
                    "status": true,
                    "value": "0"
                },
                "nodeType": 0
            },
            "23": {
                "invocation": {
                    "address": "0xe307e9c4aa77e69ff084e4ffcd7de93f497d68b6",
                    "callData": "0x000000000000000000000000d0c8af170397c04525a02234b65e9a39969f4e93",
                    "decodedMethod": {
                        "callParams": [
                            {
                                "name": "account",
                                "type": "address",
                                "value": "0xd0c8af170397c04525a02234b65e9a39969f4e93"
                            }
                        ],
                        "constructorArguments": "",
                        "name": "borrowBalanceStored",
                        "returnParams": [
                            {
                                "name": "",
                                "type": "uint256",
                                "value": "0"
                            }
                        ],
                        "signature": "borrowBalanceStored(address)"
                    },
                    "errorInfo": "",
                    "fromAddress": "0x7c5e04894410e98b1788fbdb181ffacbf8e60617",
                    "gasUsed": 554,
                    "id": 23,
                    "methodDecoded": true,
                    "operation": "DELEGATECALL",
                    "output": "0x0000000000000000000000000000000000000000000000000000000000000000",
                    "revert": false,
                    "revertMessage": "",
                    "selector": "0x95dd9193",
                    "status": true,
                    "value": "0"
                },
                "nodeType": 0
            },
            "24": {
                "invocation": {
                    "address": "0x665c2e9c433f07cb464fa1315942c2e05be19208",
                    "callData": "0x000000000000000000000000d0c8af170397c04525a02234b65e9a39969f4e9300000000000000000000000055d398326f99059ff775485246999027b3197955000000000000000000000000bb4cdb9cbd36b01bd1cbaebf2de08d9173bc095c0000000000000000000000000000000000000000000004c37cd3b4312262374f",
                    "decodedMethod": null,
                    "errorInfo": "",
                    "fromAddress": "0x6a75ac4b8d8e76d15502e69be4cb6325422833b4",
                    "gasUsed": 31499,
                    "id": 24,
                    "methodDecoded": false,
                    "operation": "DELEGATECALL",
                    "output": "",
                    "revert": false,
                    "revertMessage": "",
                    "selector": "0x19ea053f",
                    "status": true,
                    "value": "0"
                },
                "nodeType": 0
            },
            "25": {
                "invocation": {
                    "address": "0x55d398326f99059ff775485246999027b3197955",
                    "callData": "0x000000000000000000000000d0c8af170397c04525a02234b65e9a39969f4e93",
                    "decodedMethod": {
                        "callParams": [
                            {
                                "name": "account",
                                "type": "address",
                                "value": "0xd0c8af170397c04525a02234b65e9a39969f4e93"
                            }
                        ],
                        "constructorArguments": "",
                        "name": "balanceOf",
                        "returnParams": [
                            {
                                "decimalAvailable": true,
                                "name": "",
                                "type": "uint256",
                                "value": "0"
                            }
                        ],
                        "signature": "balanceOf(address)"
                    },
                    "errorInfo": "",
                    "fromAddress": "0x6a75ac4b8d8e76d15502e69be4cb6325422833b4",
                    "gasUsed": 2531,
                    "id": 25,
                    "methodDecoded": true,
                    "operation": "STATICCALL",
                    "output": "0x0000000000000000000000000000000000000000000000000000000000000000",
                    "revert": false,
                    "revertMessage": "",
                    "selector": "0x70a08231",
                    "status": true,
                    "value": "0"
                },
                "nodeType": 0
            },
            "26": {
                "invocation": {
                    "address": "0x55d398326f99059ff775485246999027b3197955",
                    "callData": "0x000000000000000000000000d0c8af170397c04525a02234b65e9a39969f4e930000000000000000000000000000000000000000000004c37cd3b4312262374f",
                    "decodedMethod": {
                        "callParams": [
                            {
                                "name": "recipient",
                                "type": "address",
                                "value": "0xd0c8af170397c04525a02234b65e9a39969f4e93"
                            },
                            {
                                "decimalAvailable": true,
                                "name": "amount",
                                "type": "uint256",
                                "value": "22,495,575,756,855,855,691,599"
                            }
                        ],
                        "constructorArguments": "",
                        "name": "transfer",
                        "returnParams": [
                            {
                                "name": "",
                                "type": "bool",
                                "value": true
                            }
                        ],
                        "signature": "transfer(address,uint256)"
                    },
                    "errorInfo": "",
                    "fromAddress": "0x6a75ac4b8d8e76d15502e69be4cb6325422833b4",
                    "gasUsed": 25971,
                    "id": 26,
                    "methodDecoded": true,
                    "operation": "CALL",
                    "output": "0x0000000000000000000000000000000000000000000000000000000000000001",
                    "revert": false,
                    "revertMessage": "",
                    "selector": "0xa9059cbb",
                    "status": true,
                    "value": "0"
                },
                "nodeType": 0
            },
            "27": {
                "event": {
                    "contract": "0x55d398326f99059ff775485246999027b3197955",
                    "decodedLog": {
                        "name": "Transfer",
                        "params": [
                            {
                                "name": "from",
                                "type": "address",
                                "value": "0x6a75ac4b8d8e76d15502e69be4cb6325422833b4"
                            },
                            {
                                "name": "to",
                                "type": "address",
                                "value": "0xd0c8af170397c04525a02234b65e9a39969f4e93"
                            },
                            {
                                "decimalAvailable": true,
                                "name": "value",
                                "type": "uint256",
                                "value": "22,495,575,756,855,855,691,599"
                            }
                        ],
                        "signature": "Transfer(address,address,uint256)"
                    },
                    "id": 27,
                    "logData": "0x0000000000000000000000000000000000000000000004c37cd3b4312262374f",
                    "logDecoded": true,
                    "operation": "EVENT",
                    "revert": false,
                    "status": true,
                    "topics": [
                        "0xddf252ad1be2c89b69c2b068fc378daa952ba7f163c4a11628f55a4df523b3ef",
                        "0x0000000000000000000000006a75ac4b8d8e76d15502e69be4cb6325422833b4",
                        "0x000000000000000000000000d0c8af170397c04525a02234b65e9a39969f4e93"
                    ]
                },
                "nodeType": 1
            },
            "28": {
                "invocation": {
                    "address": "0x55d398326f99059ff775485246999027b3197955",
                    "callData": "0x000000000000000000000000d0c8af170397c04525a02234b65e9a39969f4e93",
                    "decodedMethod": {
                        "callParams": [
                            {
                                "name": "account",
                                "type": "address",
                                "value": "0xd0c8af170397c04525a02234b65e9a39969f4e93"
                            }
                        ],
                        "constructorArguments": "",
                        "name": "balanceOf",
                        "returnParams": [
                            {
                                "decimalAvailable": true,
                                "name": "",
                                "type": "uint256",
                                "value": "22,495,575,756,855,855,691,599"
                            }
                        ],
                        "signature": "balanceOf(address)"
                    },
                    "errorInfo": "",
                    "fromAddress": "0x6a75ac4b8d8e76d15502e69be4cb6325422833b4",
                    "gasUsed": 531,
                    "id": 28,
                    "methodDecoded": true,
                    "operation": "STATICCALL",
                    "output": "0x0000000000000000000000000000000000000000000004c37cd3b4312262374f",
                    "revert": false,
                    "revertMessage": "",
                    "selector": "0x70a08231",
                    "status": true,
                    "value": "0"
                },
                "nodeType": 0
            },
            "29": {
                "event": {
                    "contract": "0x6a75ac4b8d8e76d15502e69be4cb6325422833b4",
                    "decodedLog": {
                        "name": "TradeClosed",
                        "params": [
                            {
                                "name": "owner",
                                "type": "address",
                                "value": "0xd0c8af170397c04525a02234b65e9a39969f4e93"
                            },
                            {
                                "name": "marketId",
                                "type": "uint16",
                                "value": "24"
                            },
                            {
                                "name": "longToken",
                                "type": "bool",
                                "value": true
                            },
                            {
                                "name": "depositToken",
                                "type": "bool",
                                "value": true
                            },
                            {
                                "name": "closeAmount",
                                "type": "uint256",
                                "value": "22,496,196,437,664,802,228,975"
                            },
                            {
                                "name": "depositDecrease",
                                "type": "uint256",
                                "value": "2,961,612,621,930,143,793,133"
                            },
                            {
                                "name": "depositReturn",
                                "type": "uint256",
                                "value": "22,496,196,437,664,802,228,975"
                            },
                            {
                                "name": "fees",
                                "type": "uint256",
                                "value": "0"
                            },
                            {
                                "name": "token0Price",
                                "type": "uint256",
                                "value": "0"
                            },
                            {
                                "name": "dex",
                                "type": "uint32",
                                "value": "0"
                            }
                        ],
                        "signature": "TradeClosed(address,uint16,bool,bool,uint256,uint256,uint256,uint256,uint256,uint32)"
                    },
                    "id": 29,
                    "logData": "0x000000000000000000000000d0c8af170397c04525a02234b65e9a39969f4e930000000000000000000000000000000000000000000000000000000000000018000000000000000000000000000000000000000000000000000000000000000100000000000000000000000000000000000000000000000000000000000000010000000000000000000000000000000000000000000004c38570ce19628b4aef0000000000000000000000000000000000000000000000a08ca1ac596b79bfed0000000000000000000000000000000000000000000004c38570ce19628b4aef000000000000000000000000000000000000000000000000000000000000000000000000000000000000000000000000000000000000000000000000000000000000000000000000000000000000000000000000000000000000000000000000",
                    "logDecoded": true,
                    "operation": "EVENT",
                    "revert": false,
                    "status": true,
                    "topics": [
                        "0xe70a68514e4d6172405fb7ec20bbb172435f8456e126bd4eb98d7706bff58b6a"
                    ]
                },
                "nodeType": 1
            },
            "3": {
                "invocation": {
                    "address": "0x6a75ac4b8d8e76d15502e69be4cb6325422833b4",
                    "callData": "0x00000000000000000000000000000000000000000000000000000000000000180000000000000000000000000000000000000000000000000000000000000001",
                    "decodedMethod": {
                        "callParams": [
                            {
                                "name": "marketId",
                                "type": "uint16",
                                "value": "24"
                            },
                            {
                                "name": "longToken",
                                "type": "bool",
                                "value": true
                            }
                        ],
                        "constructorArguments": "",
                        "name": "payoffTrade",
                        "returnParams": [],
                        "signature": "payoffTrade(uint16,bool)"
                    },
                    "errorInfo": "",
                    "fromAddress": "0xd0c8af170397c04525a02234b65e9a39969f4e93",
                    "gasUsed": 184643,
                    "id": 3,
                    "methodDecoded": true,
                    "operation": "CALL",
                    "output": "",
                    "revert": false,
                    "revertMessage": "",
                    "selector": "0xeda79ec6",
                    "status": true,
                    "value": "0"
                },
                "nodeType": 0
            },
            "30": {
                "invocation": {
                    "address": "0xbb4cdb9cbd36b01bd1cbaebf2de08d9173bc095c",
                    "callData": "0x000000000000000000000000d0c8af170397c04525a02234b65e9a39969f4e93",
                    "decodedMethod": {
                        "callParams": [
                            {
                                "name": "",
                                "type": "address",
                                "value": "0xd0c8af170397c04525a02234b65e9a39969f4e93"
                            }
                        ],
                        "constructorArguments": "",
                        "name": "balanceOf",
                        "returnParams": [
                            {
                                "decimalAvailable": true,
                                "name": "",
                                "type": "uint256",
                                "value": "3"
                            }
                        ],
                        "signature": "balanceOf(address)"
                    },
                    "errorInfo": "",
                    "fromAddress": "0xd0c8af170397c04525a02234b65e9a39969f4e93",
                    "gasUsed": 2534,
                    "id": 30,
                    "methodDecoded": true,
                    "operation": "STATICCALL",
                    "output": "0x0000000000000000000000000000000000000000000000000000000000000003",
                    "revert": false,
                    "revertMessage": "",
                    "selector": "0x70a08231",
                    "status": true,
                    "value": "0"
                },
                "nodeType": 0
            },
            "31": {
                "invocation": {
                    "address": "0xbb4cdb9cbd36b01bd1cbaebf2de08d9173bc095c",
                    "callData": "0x000000000000000000000000d0c8af170397c04525a02234b65e9a39969f4e93",
                    "decodedMethod": {
                        "callParams": [
                            {
                                "name": "",
                                "type": "address",
                                "value": "0xd0c8af170397c04525a02234b65e9a39969f4e93"
                            }
                        ],
                        "constructorArguments": "",
                        "name": "balanceOf",
                        "returnParams": [
                            {
                                "decimalAvailable": true,
                                "name": "",
                                "type": "uint256",
                                "value": "3"
                            }
                        ],
                        "signature": "balanceOf(address)"
                    },
                    "errorInfo": "",
                    "fromAddress": "0xd0c8af170397c04525a02234b65e9a39969f4e93",
                    "gasUsed": 534,
                    "id": 31,
                    "methodDecoded": true,
                    "operation": "STATICCALL",
                    "output": "0x0000000000000000000000000000000000000000000000000000000000000003",
                    "revert": false,
                    "revertMessage": "",
                    "selector": "0x70a08231",
                    "status": true,
                    "value": "0"
                },
                "nodeType": 0
            },
            "32": {
                "invocation": {
                    "address": "0xbb4cdb9cbd36b01bd1cbaebf2de08d9173bc095c",
                    "callData": "0x0000000000000000000000000000000000000000000000000000000000000003",
                    "decodedMethod": {
                        "callParams": [
                            {
                                "name": "wad",
                                "type": "uint256",
                                "value": "3"
                            }
                        ],
                        "constructorArguments": "",
                        "name": "withdraw",
                        "returnParams": [],
                        "signature": "withdraw(uint256)"
                    },
                    "errorInfo": "",
                    "fromAddress": "0xd0c8af170397c04525a02234b65e9a39969f4e93",
                    "gasUsed": 11995,
                    "id": 32,
                    "methodDecoded": true,
                    "operation": "CALL",
                    "output": "",
                    "revert": false,
                    "revertMessage": "",
                    "selector": "0x2e1a7d4d",
                    "status": true,
                    "value": "0"
                },
                "nodeType": 0
            },
            "33": {
                "invocation": {
                    "address": "0xd0c8af170397c04525a02234b65e9a39969f4e93",
                    "callData": "0x",
                    "decodedMethod": null,
                    "errorInfo": "",
                    "fromAddress": "0xbb4cdb9cbd36b01bd1cbaebf2de08d9173bc095c",
                    "gasUsed": 55,
                    "id": 33,
                    "methodDecoded": false,
                    "operation": "CALL",
                    "output": "",
                    "revert": false,
                    "revertMessage": "",
                    "selector": "fallback",
                    "status": true,
                    "value": "0.000000000000000003"
                },
                "nodeType": 0
            },
            "34": {
                "event": {
                    "contract": "0xbb4cdb9cbd36b01bd1cbaebf2de08d9173bc095c",
                    "decodedLog": {
                        "name": "Withdrawal",
                        "params": [
                            {
                                "name": "src",
                                "type": "address",
                                "value": "0xd0c8af170397c04525a02234b65e9a39969f4e93"
                            },
                            {
                                "name": "wad",
                                "type": "uint256",
                                "value": "3"
                            }
                        ],
                        "signature": "Withdrawal(address,uint256)"
                    },
                    "id": 34,
                    "logData": "0x0000000000000000000000000000000000000000000000000000000000000003",
                    "logDecoded": true,
                    "operation": "EVENT",
                    "revert": false,
                    "status": true,
                    "topics": [
                        "0x7fcf532c15f0a6db0bd6d0e038bea71d30d808c7d98cb3bf7268a95bf5081b65",
                        "0x000000000000000000000000d0c8af170397c04525a02234b65e9a39969f4e93"
                    ]
                },
                "nodeType": 1
            },
            "35": {
                "invocation": {
                    "address": "0x55d398326f99059ff775485246999027b3197955",
                    "callData": "0x000000000000000000000000d0c8af170397c04525a02234b65e9a39969f4e93",
                    "decodedMethod": {
                        "callParams": [
                            {
                                "name": "account",
                                "type": "address",
                                "value": "0xd0c8af170397c04525a02234b65e9a39969f4e93"
                            }
                        ],
                        "constructorArguments": "",
                        "name": "balanceOf",
                        "returnParams": [
                            {
                                "decimalAvailable": true,
                                "name": "",
                                "type": "uint256",
                                "value": "22,495,575,756,855,855,691,599"
                            }
                        ],
                        "signature": "balanceOf(address)"
                    },
                    "errorInfo": "",
                    "fromAddress": "0xd0c8af170397c04525a02234b65e9a39969f4e93",
                    "gasUsed": 531,
                    "id": 35,
                    "methodDecoded": true,
                    "operation": "STATICCALL",
                    "output": "0x0000000000000000000000000000000000000000000004c37cd3b4312262374f",
                    "revert": false,
                    "revertMessage": "",
                    "selector": "0x70a08231",
                    "status": true,
                    "value": "0"
                },
                "nodeType": 0
            },
            "36": {
                "invocation": {
                    "address": "0x55d398326f99059ff775485246999027b3197955",
                    "callData": "0x000000000000000000000000d0c8af170397c04525a02234b65e9a39969f4e93",
                    "decodedMethod": {
                        "callParams": [
                            {
                                "name": "account",
                                "type": "address",
                                "value": "0xd0c8af170397c04525a02234b65e9a39969f4e93"
                            }
                        ],
                        "constructorArguments": "",
                        "name": "balanceOf",
                        "returnParams": [
                            {
                                "decimalAvailable": true,
                                "name": "",
                                "type": "uint256",
                                "value": "22,495,575,756,855,855,691,599"
                            }
                        ],
                        "signature": "balanceOf(address)"
                    },
                    "errorInfo": "",
                    "fromAddress": "0xd0c8af170397c04525a02234b65e9a39969f4e93",
                    "gasUsed": 531,
                    "id": 36,
                    "methodDecoded": true,
                    "operation": "STATICCALL",
                    "output": "0x0000000000000000000000000000000000000000000004c37cd3b4312262374f",
                    "revert": false,
                    "revertMessage": "",
                    "selector": "0x70a08231",
                    "status": true,
                    "value": "0"
                },
                "nodeType": 0
            },
            "37": {
                "invocation": {
                    "address": "0x55d398326f99059ff775485246999027b3197955",
                    "callData": "0x00000000000000000000000010ed43c718714eb63d5aa57b78b54704e256024e0000000000000000000000000000000000000000000004c37cd3b4312262374f",
                    "decodedMethod": {
                        "callParams": [
                            {
                                "name": "spender",
                                "type": "address",
                                "value": "0x10ed43c718714eb63d5aa57b78b54704e256024e"
                            },
                            {
                                "decimalAvailable": true,
                                "name": "amount",
                                "type": "uint256",
                                "value": "22,495,575,756,855,855,691,599"
                            }
                        ],
                        "constructorArguments": "",
                        "name": "approve",
                        "returnParams": [
                            {
                                "name": "",
                                "type": "bool",
                                "value": true
                            }
                        ],
                        "signature": "approve(address,uint256)"
                    },
                    "errorInfo": "",
                    "fromAddress": "0xd0c8af170397c04525a02234b65e9a39969f4e93",
                    "gasUsed": 24562,
                    "id": 37,
                    "methodDecoded": true,
                    "operation": "CALL",
                    "output": "0x0000000000000000000000000000000000000000000000000000000000000001",
                    "revert": false,
                    "revertMessage": "",
                    "selector": "0x095ea7b3",
                    "status": true,
                    "value": "0"
                },
                "nodeType": 0
            },
            "38": {
                "event": {
                    "contract": "0x55d398326f99059ff775485246999027b3197955",
                    "decodedLog": {
                        "name": "Approval",
                        "params": [
                            {
                                "name": "owner",
                                "type": "address",
                                "value": "0xd0c8af170397c04525a02234b65e9a39969f4e93"
                            },
                            {
                                "name": "spender",
                                "type": "address",
                                "value": "0x10ed43c718714eb63d5aa57b78b54704e256024e"
                            },
                            {
                                "decimalAvailable": true,
                                "name": "value",
                                "type": "uint256",
                                "value": "22,495,575,756,855,855,691,599"
                            }
                        ],
                        "signature": "Approval(address,address,uint256)"
                    },
                    "id": 38,
                    "logData": "0x0000000000000000000000000000000000000000000004c37cd3b4312262374f",
                    "logDecoded": true,
                    "operation": "EVENT",
                    "revert": false,
                    "status": true,
                    "topics": [
                        "0x8c5be1e5ebec7d5bd14f71427d1e84f3dd0314c0f7b2291e5b200ac8c7c3b925",
                        "0x000000000000000000000000d0c8af170397c04525a02234b65e9a39969f4e93",
                        "0x00000000000000000000000010ed43c718714eb63d5aa57b78b54704e256024e"
                    ]
                },
                "nodeType": 1
            },
            "39": {
                "invocation": {
                    "address": "0x55d398326f99059ff775485246999027b3197955",
                    "callData": "0x000000000000000000000000d0c8af170397c04525a02234b65e9a39969f4e93",
                    "decodedMethod": {
                        "callParams": [
                            {
                                "name": "account",
                                "type": "address",
                                "value": "0xd0c8af170397c04525a02234b65e9a39969f4e93"
                            }
                        ],
                        "constructorArguments": "",
                        "name": "balanceOf",
                        "returnParams": [
                            {
                                "decimalAvailable": true,
                                "name": "",
                                "type": "uint256",
                                "value": "22,495,575,756,855,855,691,599"
                            }
                        ],
                        "signature": "balanceOf(address)"
                    },
                    "errorInfo": "",
                    "fromAddress": "0xd0c8af170397c04525a02234b65e9a39969f4e93",
                    "gasUsed": 531,
                    "id": 39,
                    "methodDecoded": true,
                    "operation": "STATICCALL",
                    "output": "0x0000000000000000000000000000000000000000000004c37cd3b4312262374f",
                    "revert": false,
                    "revertMessage": "",
                    "selector": "0x70a08231",
                    "status": true,
                    "value": "0"
                },
                "nodeType": 0
            },
            "4": {
                "invocation": {
                    "address": "0x88a149ac891af29e0b59616af8d146a58e17fbc0",
                    "callData": "0x00000000000000000000000000000000000000000000000000000000000000180000000000000000000000000000000000000000000000000000000000000001",
                    "decodedMethod": {
                        "callParams": [
                            {
                                "name": "marketId",
                                "type": "uint16",
                                "value": "24"
                            },
                            {
                                "name": "longToken",
                                "type": "bool",
                                "value": true
                            }
                        ],
                        "constructorArguments": "",
                        "name": "payoffTrade",
                        "returnParams": [],
                        "signature": "payoffTrade(uint16,bool)"
                    },
                    "errorInfo": "",
                    "fromAddress": "0x6a75ac4b8d8e76d15502e69be4cb6325422833b4",
                    "gasUsed": 183974,
                    "id": 4,
                    "methodDecoded": true,
                    "operation": "DELEGATECALL",
                    "output": "",
                    "revert": false,
                    "revertMessage": "",
                    "selector": "0xeda79ec6",
                    "status": true,
                    "value": "0"
                },
                "nodeType": 0
            },
            "40": {
                "invocation": {
                    "address": "0x10ed43c718714eb63d5aa57b78b54704e256024e",
                    "callData": "0x0000000000000000000000000000000000000000000004c37cd3b4312262374f000000000000000000000000000000000000000000000000000000000000000000000000000000000000000000000000000000000000000000000000000000a0000000000000000000000000d0c8af170397c04525a02234b65e9a39969f4e9300000000000000000000000000000000000000000000000000000000660a43c6000000000000000000000000000000000000000000000000000000000000000200000000000000000000000055d398326f99059ff775485246999027b3197955000000000000000000000000bb4cdb9cbd36b01bd1cbaebf2de08d9173bc095c",
                    "decodedMethod": {
                        "callParams": [
                            {
                                "name": "amountIn",
                                "type": "uint256",
                                "value": "22,495,575,756,855,855,691,599"
                            },
                            {
                                "name": "amountOutMin",
                                "type": "uint256",
                                "value": "0"
                            },
                            {
                                "name": "path",
                                "type": "address[]",
                                "value": [
                                    "0x55d398326f99059ff775485246999027b3197955",
                                    "0xbb4cdb9cbd36b01bd1cbaebf2de08d9173bc095c"
                                ]
                            },
                            {
                                "name": "to",
                                "type": "address",
                                "value": "0xd0c8af170397c04525a02234b65e9a39969f4e93"
                            },
                            {
                                "name": "deadline",
                                "type": "uint256",
                                "value": "1,711,948,742"
                            }
                        ],
                        "constructorArguments": "",
                        "name": "swapExactTokensForETH",
                        "returnParams": [
                            {
                                "name": "amounts",
                                "type": "uint256[]",
                                "value": [
                                    "22,495,575,756,855,855,691,599",
                                    "37,687,090,507,128,961,835"
                                ]
                            }
                        ],
                        "signature": "swapExactTokensForETH(uint256,uint256,address[],address,uint256)"
                    },
                    "errorInfo": "",
                    "fromAddress": "0xd0c8af170397c04525a02234b65e9a39969f4e93",
                    "gasUsed": 95525,
                    "id": 40,
                    "methodDecoded": true,
                    "operation": "CALL",
                    "output": "0x000000000000000000000000000000000000000000000000000000000000002000000000000000000000000000000000000000000000000000000000000000020000000000000000000000000000000000000000000004c37cd3b4312262374f0000000000000000000000000000000000000000000000020b037124376afb2b",
                    "revert": false,
                    "revertMessage": "",
                    "selector": "0x18cbafe5",
                    "status": true,
                    "value": "0"
                },
                "nodeType": 0
            },
            "41": {
                "invocation": {
                    "address": "0x16b9a82891338f9ba80e2d6970fdda79d1eb0dae",
                    "callData": "0x",
                    "decodedMethod": {
                        "callParams": [],
                        "constructorArguments": "",
                        "name": "getReserves",
                        "returnParams": [
                            {
                                "name": "_reserve0",
                                "type": "uint112",
                                "value": "4,994,915,709,511,007,301,480,533"
                            },
                            {
                                "name": "_reserve1",
                                "type": "uint112",
                                "value": "8,426,697,957,945,880,655,858"
                            },
                            {
                                "name": "_blockTimestampLast",
                                "type": "uint32",
                                "value": "1,711,948,742"
                            }
                        ],
                        "signature": "getReserves()"
                    },
                    "errorInfo": "",
                    "fromAddress": "0x10ed43c718714eb63d5aa57b78b54704e256024e",
                    "gasUsed": 2893,
                    "id": 41,
                    "methodDecoded": true,
                    "operation": "STATICCALL",
                    "output": "0x0000000000000000000000000000000000000000000421b6ec55a2a0ba1b30550000000000000000000000000000000000000000000001c8cfed1a3149c8b7f200000000000000000000000000000000000000000000000000000000660a43c6",
                    "revert": false,
                    "revertMessage": "",
                    "selector": "0x0902f1ac",
                    "status": true,
                    "value": "0"
                },
                "nodeType": 0
            },
            "42": {
                "invocation": {
                    "address": "0x55d398326f99059ff775485246999027b3197955",
                    "callData": "0x000000000000000000000000d0c8af170397c04525a02234b65e9a39969f4e9300000000000000000000000016b9a82891338f9ba80e2d6970fdda79d1eb0dae0000000000000000000000000000000000000000000004c37cd3b4312262374f",
                    "decodedMethod": {
                        "callParams": [
                            {
                                "name": "sender",
                                "type": "address",
                                "value": "0xd0c8af170397c04525a02234b65e9a39969f4e93"
                            },
                            {
                                "name": "recipient",
                                "type": "address",
                                "value": "0x16b9a82891338f9ba80e2d6970fdda79d1eb0dae"
                            },
                            {
                                "decimalAvailable": true,
                                "name": "amount",
                                "type": "uint256",
                                "value": "22,495,575,756,855,855,691,599"
                            }
                        ],
                        "constructorArguments": "",
                        "name": "transferFrom",
                        "returnParams": [
                            {
                                "name": "",
                                "type": "bool",
                                "value": true
                            }
                        ],
                        "signature": "transferFrom(address,address,uint256)"
                    },
                    "errorInfo": "",
                    "fromAddress": "0x10ed43c718714eb63d5aa57b78b54704e256024e",
                    "gasUsed": 10834,
                    "id": 42,
                    "methodDecoded": true,
                    "operation": "CALL",
                    "output": "0x0000000000000000000000000000000000000000000000000000000000000001",
                    "revert": false,
                    "revertMessage": "",
                    "selector": "0x23b872dd",
                    "status": true,
                    "value": "0"
                },
                "nodeType": 0
            },
            "43": {
                "event": {
                    "contract": "0x55d398326f99059ff775485246999027b3197955",
                    "decodedLog": {
                        "name": "Transfer",
                        "params": [
                            {
                                "name": "from",
                                "type": "address",
                                "value": "0xd0c8af170397c04525a02234b65e9a39969f4e93"
                            },
                            {
                                "name": "to",
                                "type": "address",
                                "value": "0x16b9a82891338f9ba80e2d6970fdda79d1eb0dae"
                            },
                            {
                                "decimalAvailable": true,
                                "name": "value",
                                "type": "uint256",
                                "value": "22,495,575,756,855,855,691,599"
                            }
                        ],
                        "signature": "Transfer(address,address,uint256)"
                    },
                    "id": 43,
                    "logData": "0x0000000000000000000000000000000000000000000004c37cd3b4312262374f",
                    "logDecoded": true,
                    "operation": "EVENT",
                    "revert": false,
                    "status": true,
                    "topics": [
                        "0xddf252ad1be2c89b69c2b068fc378daa952ba7f163c4a11628f55a4df523b3ef",
                        "0x000000000000000000000000d0c8af170397c04525a02234b65e9a39969f4e93",
                        "0x00000000000000000000000016b9a82891338f9ba80e2d6970fdda79d1eb0dae"
                    ]
                },
                "nodeType": 1
            },
            "44": {
                "event": {
                    "contract": "0x55d398326f99059ff775485246999027b3197955",
                    "decodedLog": {
                        "name": "Approval",
                        "params": [
                            {
                                "name": "owner",
                                "type": "address",
                                "value": "0xd0c8af170397c04525a02234b65e9a39969f4e93"
                            },
                            {
                                "name": "spender",
                                "type": "address",
                                "value": "0x10ed43c718714eb63d5aa57b78b54704e256024e"
                            },
                            {
                                "decimalAvailable": true,
                                "name": "value",
                                "type": "uint256",
                                "value": "0"
                            }
                        ],
                        "signature": "Approval(address,address,uint256)"
                    },
                    "id": 44,
                    "logData": "0x0000000000000000000000000000000000000000000000000000000000000000",
                    "logDecoded": true,
                    "operation": "EVENT",
                    "revert": false,
                    "status": true,
                    "topics": [
                        "0x8c5be1e5ebec7d5bd14f71427d1e84f3dd0314c0f7b2291e5b200ac8c7c3b925",
                        "0x000000000000000000000000d0c8af170397c04525a02234b65e9a39969f4e93",
                        "0x00000000000000000000000010ed43c718714eb63d5aa57b78b54704e256024e"
                    ]
                },
                "nodeType": 1
            },
            "45": {
                "invocation": {
                    "address": "0x16b9a82891338f9ba80e2d6970fdda79d1eb0dae",
                    "callData": "0x00000000000000000000000000000000000000000000000000000000000000000000000000000000000000000000000000000000000000020b037124376afb2b00000000000000000000000010ed43c718714eb63d5aa57b78b54704e256024e00000000000000000000000000000000000000000000000000000000000000800000000000000000000000000000000000000000000000000000000000000000",
                    "decodedMethod": {
                        "callParams": [
                            {
                                "name": "amount0Out",
                                "type": "uint256",
                                "value": "0"
                            },
                            {
                                "name": "amount1Out",
                                "type": "uint256",
                                "value": "37,687,090,507,128,961,835"
                            },
                            {
                                "name": "to",
                                "type": "address",
                                "value": "0x10ed43c718714eb63d5aa57b78b54704e256024e"
                            },
                            {
                                "name": "data",
                                "type": "bytes",
                                "value": "0x"
                            }
                        ],
                        "constructorArguments": "",
                        "name": "swap",
                        "returnParams": [],
                        "signature": "swap(uint256,uint256,address,bytes)"
                    },
                    "errorInfo": "",
                    "fromAddress": "0x10ed43c718714eb63d5aa57b78b54704e256024e",
                    "gasUsed": 53855,
                    "id": 45,
                    "methodDecoded": true,
                    "operation": "CALL",
                    "output": "",
                    "revert": false,
                    "revertMessage": "",
                    "selector": "0x022c0d9f",
                    "status": true,
                    "value": "0"
                },
                "nodeType": 0
            },
            "46": {
                "invocation": {
                    "address": "0xbb4cdb9cbd36b01bd1cbaebf2de08d9173bc095c",
                    "callData": "0x00000000000000000000000010ed43c718714eb63d5aa57b78b54704e256024e0000000000000000000000000000000000000000000000020b037124376afb2b",
                    "decodedMethod": {
                        "callParams": [
                            {
                                "name": "dst",
                                "type": "address",
                                "value": "0x10ed43c718714eb63d5aa57b78b54704e256024e"
                            },
                            {
                                "decimalAvailable": true,
                                "name": "wad",
                                "type": "uint256",
                                "value": "37,687,090,507,128,961,835"
                            }
                        ],
                        "constructorArguments": "",
                        "name": "transfer",
                        "returnParams": [
                            {
                                "name": "",
                                "type": "bool",
                                "value": true
                            }
                        ],
                        "signature": "transfer(address,uint256)"
                    },
                    "errorInfo": "",
                    "fromAddress": "0x16b9a82891338f9ba80e2d6970fdda79d1eb0dae",
                    "gasUsed": 29962,
                    "id": 46,
                    "methodDecoded": true,
                    "operation": "CALL",
                    "output": "0x0000000000000000000000000000000000000000000000000000000000000001",
                    "revert": false,
                    "revertMessage": "",
                    "selector": "0xa9059cbb",
                    "status": true,
                    "value": "0"
                },
                "nodeType": 0
            },
            "47": {
                "event": {
                    "contract": "0xbb4cdb9cbd36b01bd1cbaebf2de08d9173bc095c",
                    "decodedLog": {
                        "name": "Transfer",
                        "params": [
                            {
                                "name": "src",
                                "type": "address",
                                "value": "0x16b9a82891338f9ba80e2d6970fdda79d1eb0dae"
                            },
                            {
                                "name": "dst",
                                "type": "address",
                                "value": "0x10ed43c718714eb63d5aa57b78b54704e256024e"
                            },
                            {
                                "decimalAvailable": true,
                                "name": "wad",
                                "type": "uint256",
                                "value": "37,687,090,507,128,961,835"
                            }
                        ],
                        "signature": "Transfer(address,address,uint256)"
                    },
                    "id": 47,
                    "logData": "0x0000000000000000000000000000000000000000000000020b037124376afb2b",
                    "logDecoded": true,
                    "operation": "EVENT",
                    "revert": false,
                    "status": true,
                    "topics": [
                        "0xddf252ad1be2c89b69c2b068fc378daa952ba7f163c4a11628f55a4df523b3ef",
                        "0x00000000000000000000000016b9a82891338f9ba80e2d6970fdda79d1eb0dae",
                        "0x00000000000000000000000010ed43c718714eb63d5aa57b78b54704e256024e"
                    ]
                },
                "nodeType": 1
            },
            "48": {
                "invocation": {
                    "address": "0x55d398326f99059ff775485246999027b3197955",
                    "callData": "0x00000000000000000000000016b9a82891338f9ba80e2d6970fdda79d1eb0dae",
                    "decodedMethod": {
                        "callParams": [
                            {
                                "name": "account",
                                "type": "address",
                                "value": "0x16b9a82891338f9ba80e2d6970fdda79d1eb0dae"
                            }
                        ],
                        "constructorArguments": "",
                        "name": "balanceOf",
                        "returnParams": [
                            {
                                "decimalAvailable": true,
                                "name": "",
                                "type": "uint256",
                                "value": "5,017,411,285,267,863,157,172,132"
                            }
                        ],
                        "signature": "balanceOf(address)"
                    },
                    "errorInfo": "",
                    "fromAddress": "0x16b9a82891338f9ba80e2d6970fdda79d1eb0dae",
                    "gasUsed": 531,
                    "id": 48,
                    "methodDecoded": true,
                    "operation": "STATICCALL",
                    "output": "0x00000000000000000000000000000000000000000004267a692956d1dc7d67a4",
                    "revert": false,
                    "revertMessage": "",
                    "selector": "0x70a08231",
                    "status": true,
                    "value": "0"
                },
                "nodeType": 0
            },
            "49": {
                "invocation": {
                    "address": "0xbb4cdb9cbd36b01bd1cbaebf2de08d9173bc095c",
                    "callData": "0x00000000000000000000000016b9a82891338f9ba80e2d6970fdda79d1eb0dae",
                    "decodedMethod": {
                        "callParams": [
                            {
                                "name": "",
                                "type": "address",
                                "value": "0x16b9a82891338f9ba80e2d6970fdda79d1eb0dae"
                            }
                        ],
                        "constructorArguments": "",
                        "name": "balanceOf",
                        "returnParams": [
                            {
                                "decimalAvailable": true,
                                "name": "",
                                "type": "uint256",
                                "value": "8,389,010,867,438,751,694,023"
                            }
                        ],
                        "signature": "balanceOf(address)"
                    },
                    "errorInfo": "",
                    "fromAddress": "0x16b9a82891338f9ba80e2d6970fdda79d1eb0dae",
                    "gasUsed": 534,
                    "id": 49,
                    "methodDecoded": true,
                    "operation": "STATICCALL",
                    "output": "0x0000000000000000000000000000000000000000000001c6c4e9a90d125dbcc7",
                    "revert": false,
                    "revertMessage": "",
                    "selector": "0x70a08231",
                    "status": true,
                    "value": "0"
                },
                "nodeType": 0
            },
            "5": {
                "invocation": {
                    "address": "0xbb4cdb9cbd36b01bd1cbaebf2de08d9173bc095c",
                    "callData": "0x0000000000000000000000006a75ac4b8d8e76d15502e69be4cb6325422833b4",
                    "decodedMethod": {
                        "callParams": [
                            {
                                "name": "",
                                "type": "address",
                                "value": "0x6a75ac4b8d8e76d15502e69be4cb6325422833b4"
                            }
                        ],
                        "constructorArguments": "",
                        "name": "balanceOf",
                        "returnParams": [
                            {
                                "decimalAvailable": true,
                                "name": "",
                                "type": "uint256",
                                "value": "161,417,993,195,347,131,951"
                            }
                        ],
                        "signature": "balanceOf(address)"
                    },
                    "errorInfo": "",
                    "fromAddress": "0x6a75ac4b8d8e76d15502e69be4cb6325422833b4",
                    "gasUsed": 2534,
                    "id": 5,
                    "methodDecoded": true,
                    "operation": "STATICCALL",
                    "output": "0x000000000000000000000000000000000000000000000008c01fe994fd163e2f",
                    "revert": false,
                    "revertMessage": "",
                    "selector": "0x70a08231",
                    "status": true,
                    "value": "0"
                },
                "nodeType": 0
            },
            "50": {
                "event": {
                    "contract": "0x16b9a82891338f9ba80e2d6970fdda79d1eb0dae",
                    "decodedLog": {
                        "name": "Sync",
                        "params": [
                            {
                                "name": "reserve0",
                                "type": "uint112",
                                "value": "5,017,411,285,267,863,157,172,132"
                            },
                            {
                                "name": "reserve1",
                                "type": "uint112",
                                "value": "8,389,010,867,438,751,694,023"
                            }
                        ],
                        "signature": "Sync(uint112,uint112)"
                    },
                    "id": 50,
                    "logData": "0x00000000000000000000000000000000000000000004267a692956d1dc7d67a40000000000000000000000000000000000000000000001c6c4e9a90d125dbcc7",
                    "logDecoded": true,
                    "operation": "EVENT",
                    "revert": false,
                    "status": true,
                    "topics": [
                        "0x1c411e9a96e071241c2f21f7726b17ae89e3cab4c78be50e062b03a9fffbbad1"
                    ]
                },
                "nodeType": 1
            },
            "51": {
                "event": {
                    "contract": "0x16b9a82891338f9ba80e2d6970fdda79d1eb0dae",
                    "decodedLog": {
                        "name": "Swap",
                        "params": [
                            {
                                "name": "sender",
                                "type": "address",
                                "value": "0x10ed43c718714eb63d5aa57b78b54704e256024e"
                            },
                            {
                                "name": "to",
                                "type": "address",
                                "value": "0x10ed43c718714eb63d5aa57b78b54704e256024e"
                            },
                            {
                                "name": "amount0In",
                                "type": "uint256",
                                "value": "22,495,575,756,855,855,691,599"
                            },
                            {
                                "name": "amount1In",
                                "type": "uint256",
                                "value": "0"
                            },
                            {
                                "name": "amount0Out",
                                "type": "uint256",
                                "value": "0"
                            },
                            {
                                "name": "amount1Out",
                                "type": "uint256",
                                "value": "37,687,090,507,128,961,835"
                            }
                        ],
                        "signature": "Swap(address,uint256,uint256,uint256,uint256,address)"
                    },
                    "id": 51,
                    "logData": "0x0000000000000000000000000000000000000000000004c37cd3b4312262374f000000000000000000000000000000000000000000000000000000000000000000000000000000000000000000000000000000000000000000000000000000000000000000000000000000000000000000000000000000020b037124376afb2b",
                    "logDecoded": true,
                    "operation": "EVENT",
                    "revert": false,
                    "status": true,
                    "topics": [
                        "0xd78ad95fa46c994b6551d0da85fc275fe613ce37657fb8d5e3d130840159d822",
                        "0x00000000000000000000000010ed43c718714eb63d5aa57b78b54704e256024e",
                        "0x00000000000000000000000010ed43c718714eb63d5aa57b78b54704e256024e"
                    ]
                },
                "nodeType": 1
            },
            "52": {
                "invocation": {
                    "address": "0xbb4cdb9cbd36b01bd1cbaebf2de08d9173bc095c",
                    "callData": "0x0000000000000000000000000000000000000000000000020b037124376afb2b",
                    "decodedMethod": {
                        "callParams": [
                            {
                                "name": "wad",
                                "type": "uint256",
                                "value": "37,687,090,507,128,961,835"
                            }
                        ],
                        "constructorArguments": "",
                        "name": "withdraw",
                        "returnParams": [],
                        "signature": "withdraw(uint256)"
                    },
                    "errorInfo": "",
                    "fromAddress": "0x10ed43c718714eb63d5aa57b78b54704e256024e",
                    "gasUsed": 9223,
                    "id": 52,
                    "methodDecoded": true,
                    "operation": "CALL",
                    "output": "",
                    "revert": false,
                    "revertMessage": "",
                    "selector": "0x2e1a7d4d",
                    "status": true,
                    "value": "0"
                },
                "nodeType": 0
            },
            "53": {
                "invocation": {
                    "address": "0x10ed43c718714eb63d5aa57b78b54704e256024e",
                    "callData": "0x",
                    "decodedMethod": null,
                    "errorInfo": "",
                    "fromAddress": "0xbb4cdb9cbd36b01bd1cbaebf2de08d9173bc095c",
                    "gasUsed": 83,
                    "id": 53,
                    "methodDecoded": false,
                    "operation": "CALL",
                    "output": "",
                    "revert": false,
                    "revertMessage": "",
                    "selector": "fallback",
                    "status": true,
                    "value": "37.687090507128961835"
                },
                "nodeType": 0
            },
            "54": {
                "event": {
                    "contract": "0xbb4cdb9cbd36b01bd1cbaebf2de08d9173bc095c",
                    "decodedLog": {
                        "name": "Withdrawal",
                        "params": [
                            {
                                "name": "src",
                                "type": "address",
                                "value": "0x10ed43c718714eb63d5aa57b78b54704e256024e"
                            },
                            {
                                "name": "wad",
                                "type": "uint256",
                                "value": "37,687,090,507,128,961,835"
                            }
                        ],
                        "signature": "Withdrawal(address,uint256)"
                    },
                    "id": 54,
                    "logData": "0x0000000000000000000000000000000000000000000000020b037124376afb2b",
                    "logDecoded": true,
                    "operation": "EVENT",
                    "revert": false,
                    "status": true,
                    "topics": [
                        "0x7fcf532c15f0a6db0bd6d0e038bea71d30d808c7d98cb3bf7268a95bf5081b65",
                        "0x00000000000000000000000010ed43c718714eb63d5aa57b78b54704e256024e"
                    ]
                },
                "nodeType": 1
            },
            "55": {
                "invocation": {
                    "address": "0xd0c8af170397c04525a02234b65e9a39969f4e93",
                    "callData": "0x",
                    "decodedMethod": null,
                    "errorInfo": "",
                    "fromAddress": "0x10ed43c718714eb63d5aa57b78b54704e256024e",
                    "gasUsed": 55,
                    "id": 55,
                    "methodDecoded": false,
                    "operation": "CALL",
                    "output": "",
                    "revert": false,
                    "revertMessage": "",
                    "selector": "fallback",
                    "status": true,
                    "value": "37.687090507128961835"
                },
                "nodeType": 0
            },
            "6": {
                "invocation": {
                    "address": "0x55d398326f99059ff775485246999027b3197955",
                    "callData": "0x0000000000000000000000006a75ac4b8d8e76d15502e69be4cb6325422833b4",
                    "decodedMethod": {
                        "callParams": [
                            {
                                "name": "account",
                                "type": "address",
                                "value": "0x6a75ac4b8d8e76d15502e69be4cb6325422833b4"
                            }
                        ],
                        "constructorArguments": "",
                        "name": "balanceOf",
                        "returnParams": [
                            {
                                "decimalAvailable": true,
                                "name": "",
                                "type": "uint256",
                                "value": "81,496,001,326,996,673,315,727"
                            }
                        ],
                        "signature": "balanceOf(address)"
                    },
                    "errorInfo": "",
                    "fromAddress": "0x6a75ac4b8d8e76d15502e69be4cb6325422833b4",
                    "gasUsed": 2531,
                    "id": 6,
                    "methodDecoded": true,
                    "operation": "STATICCALL",
                    "output": "0x000000000000000000000000000000000000000000001141e836ae953fb4c38f",
                    "revert": false,
                    "revertMessage": "",
                    "selector": "0x70a08231",
                    "status": true,
                    "value": "0"
                },
                "nodeType": 0
            },
            "7": {
                "invocation": {
                    "address": "0x912c0462474c933499a6923a6afc6ac1e58b8ce4",
                    "callData": "0x0000000000000000000000000000000000000000000000000000000000000018",
                    "decodedMethod": {
                        "callParams": [
                            {
                                "name": "marketId",
                                "type": "uint256",
                                "value": "24"
                            }
                        ],
                        "constructorArguments": "",
                        "name": "closeTradeAllowed",
                        "returnParams": [
                            {
                                "name": "",
                                "type": "bool",
                                "value": true
                            }
                        ],
                        "signature": "closeTradeAllowed(uint256)"
                    },
                    "errorInfo": "",
                    "fromAddress": "0x6a75ac4b8d8e76d15502e69be4cb6325422833b4",
                    "gasUsed": 7780,
                    "id": 7,
                    "methodDecoded": true,
                    "operation": "STATICCALL",
                    "output": "0x0000000000000000000000000000000000000000000000000000000000000001",
                    "revert": false,
                    "revertMessage": "",
                    "selector": "0x8aad2b33",
                    "status": true,
                    "value": "0"
                },
                "nodeType": 0
            },
            "8": {
                "invocation": {
                    "address": "0xbdc76cd9b04f17473aafe4569f4776cec76f0526",
                    "callData": "0x0000000000000000000000000000000000000000000000000000000000000018",
                    "decodedMethod": {
                        "callParams": [
                            {
                                "name": "marketId",
                                "type": "uint256",
                                "value": "24"
                            }
                        ],
                        "constructorArguments": "",
                        "name": "closeTradeAllowed",
                        "returnParams": [
                            {
                                "name": "",
                                "type": "bool",
                                "value": true
                            }
                        ],
                        "signature": "closeTradeAllowed(uint256)"
                    },
                    "errorInfo": "",
                    "fromAddress": "0x912c0462474c933499a6923a6afc6ac1e58b8ce4",
                    "gasUsed": 2541,
                    "id": 8,
                    "methodDecoded": true,
                    "operation": "DELEGATECALL",
                    "output": "0x0000000000000000000000000000000000000000000000000000000000000001",
                    "revert": false,
                    "revertMessage": "",
                    "selector": "0x8aad2b33",
                    "status": true,
                    "value": "0"
                },
                "nodeType": 0
            },
            "9": {
                "invocation": {
                    "address": "0x7c5e04894410e98b1788fbdb181ffacbf8e60617",
                    "callData": "0x000000000000000000000000d0c8af170397c04525a02234b65e9a39969f4e93",
                    "decodedMethod": {
                        "callParams": [
                            {
                                "name": "account",
                                "type": "address",
                                "value": "0xd0c8af170397c04525a02234b65e9a39969f4e93"
                            }
                        ],
                        "constructorArguments": "",
                        "name": "borrowBalanceCurrent",
                        "returnParams": [
                            {
                                "name": "",
                                "type": "uint256",
                                "value": "0"
                            }
                        ],
                        "signature": "borrowBalanceCurrent(address)"
                    },
                    "errorInfo": "",
                    "fromAddress": "0x6a75ac4b8d8e76d15502e69be4cb6325422833b4",
                    "gasUsed": 30282,
                    "id": 9,
                    "methodDecoded": true,
                    "operation": "STATICCALL",
                    "output": "0x0000000000000000000000000000000000000000000000000000000000000000",
                    "revert": false,
                    "revertMessage": "",
                    "selector": "0x17bfdfbc",
                    "status": true,
                    "value": "0"
                },
                "nodeType": 0
            }
        },
        "gasFlame": [
            {
                "children": [
                    {
                        "children": [
                            {
                                "children": [],
                                "depth": 0,
                                "name": "Initial Gas",
                                "value": 22360
                            },
                            {
                                "children": [
                                    {
                                        "children": [
                                            {
                                                "children": [],
                                                "depth": 2,
                                                "name": "markets",
                                                "value": 15735
                                            }
                                        ],
                                        "depth": 1,
                                        "name": "markets",
                                        "value": 21062
                                    },
                                    {
                                        "children": [
                                            {
                                                "children": [
                                                    {
                                                        "children": [],
                                                        "depth": 3,
                                                        "name": "balanceOf",
                                                        "value": 2534
                                                    },
                                                    {
                                                        "children": [],
                                                        "depth": 3,
                                                        "name": "balanceOf",
                                                        "value": 2531
                                                    },
                                                    {
                                                        "children": [
                                                            {
                                                                "children": [],
                                                                "depth": 4,
                                                                "name": "closeTradeAllowed",
                                                                "value": 2541
                                                            }
                                                        ],
                                                        "depth": 3,
                                                        "name": "closeTradeAllowed",
                                                        "value": 7780
                                                    },
                                                    {
                                                        "children": [
                                                            {
                                                                "children": [
                                                                    {
                                                                        "children": [],
                                                                        "depth": 5,
                                                                        "name": "balanceOf",
                                                                        "value": 2534
                                                                    }
                                                                ],
                                                                "depth": 4,
                                                                "name": "borrowBalanceCurrent",
                                                                "value": 25042
                                                            }
                                                        ],
                                                        "depth": 3,
                                                        "name": "borrowBalanceCurrent",
                                                        "value": 30282
                                                    },
                                                    {
                                                        "children": [
                                                            {
                                                                "children": [],
                                                                "depth": 4,
                                                                "name": "deposit",
                                                                "value": 2074
                                                            }
                                                        ],
                                                        "depth": 3,
                                                        "name": "0x289e376f",
                                                        "value": 3155
                                                    },
                                                    {
                                                        "children": [
                                                            {
                                                                "children": [
                                                                    {
                                                                        "children": [],
                                                                        "depth": 5,
                                                                        "name": "balanceOf",
                                                                        "value": 534
                                                                    },
                                                                    {
                                                                        "children": [
                                                                            {
                                                                                "children": [],
                                                                                "depth": 6,
                                                                                "name": "repayBorrowAllowed",
                                                                                "value": 616
                                                                            }
                                                                        ],
                                                                        "depth": 5,
                                                                        "name": "repayBorrowAllowed",
                                                                        "value": 1276
                                                                    }
                                                                ],
                                                                "depth": 4,
                                                                "name": "repayBorrowBehalf",
                                                                "value": 41246
                                                            }
                                                        ],
                                                        "depth": 3,
                                                        "name": "repayBorrowBehalf",
                                                        "value": 41916
                                                    },
                                                    {
                                                        "children": [
                                                            {
                                                                "children": [],
                                                                "depth": 4,
                                                                "name": "borrowBalanceStored",
                                                                "value": 554
                                                            }
                                                        ],
                                                        "depth": 3,
                                                        "name": "borrowBalanceStored",
                                                        "value": 1293
                                                    },
                                                    {
                                                        "children": [
                                                            {
                                                                "children": [],
                                                                "depth": 4,
                                                                "name": "balanceOf",
                                                                "value": 2531
                                                            },
                                                            {
                                                                "children": [],
                                                                "depth": 4,
                                                                "name": "transfer",
                                                                "value": 25971
                                                            },
                                                            {
                                                                "children": [],
                                                                "depth": 4,
                                                                "name": "balanceOf",
                                                                "value": 531
                                                            }
                                                        ],
                                                        "depth": 3,
                                                        "name": "0x19ea053f",
                                                        "value": 31499
                                                    }
                                                ],
                                                "depth": 2,
                                                "name": "payoffTrade",
                                                "value": 183974
                                            }
                                        ],
                                        "depth": 1,
                                        "name": "payoffTrade",
                                        "value": 184643
                                    },
                                    {
                                        "children": [],
                                        "depth": 1,
                                        "name": "balanceOf",
                                        "value": 2534
                                    },
                                    {
                                        "children": [],
                                        "depth": 1,
                                        "name": "balanceOf",
                                        "value": 534
                                    },
                                    {
                                        "children": [
                                            {
                                                "children": [],
                                                "depth": 2,
                                                "name": "fallback",
                                                "value": 55
                                            }
                                        ],
                                        "depth": 1,
                                        "name": "withdraw",
                                        "value": 11995
                                    },
                                    {
                                        "children": [],
                                        "depth": 1,
                                        "name": "balanceOf",
                                        "value": 531
                                    },
                                    {
                                        "children": [],
                                        "depth": 1,
                                        "name": "balanceOf",
                                        "value": 531
                                    },
                                    {
                                        "children": [],
                                        "depth": 1,
                                        "name": "approve",
                                        "value": 24562
                                    },
                                    {
                                        "children": [],
                                        "depth": 1,
                                        "name": "balanceOf",
                                        "value": 531
                                    },
                                    {
                                        "children": [
                                            {
                                                "children": [],
                                                "depth": 2,
                                                "name": "getReserves",
                                                "value": 2893
                                            },
                                            {
                                                "children": [],
                                                "depth": 2,
                                                "name": "transferFrom",
                                                "value": 10834
                                            },
                                            {
                                                "children": [
                                                    {
                                                        "children": [],
                                                        "depth": 3,
                                                        "name": "transfer",
                                                        "value": 29962
                                                    },
                                                    {
                                                        "children": [],
                                                        "depth": 3,
                                                        "name": "balanceOf",
                                                        "value": 531
                                                    },
                                                    {
                                                        "children": [],
                                                        "depth": 3,
                                                        "name": "balanceOf",
                                                        "value": 534
                                                    }
                                                ],
                                                "depth": 2,
                                                "name": "swap",
                                                "value": 53855
                                            },
                                            {
                                                "children": [
                                                    {
                                                        "children": [],
                                                        "depth": 3,
                                                        "name": "fallback",
                                                        "value": 83
                                                    }
                                                ],
                                                "depth": 2,
                                                "name": "withdraw",
                                                "value": 9223
                                            },
                                            {
                                                "children": [],
                                                "depth": 2,
                                                "name": "fallback",
                                                "value": 55
                                            }
                                        ],
                                        "depth": 1,
                                        "name": "swapExactTokensForETH",
                                        "value": 95525
                                    }
                                ],
                                "depth": 0,
                                "name": "Executed Gas",
                                "value": 360189
                            }
                        ],
                        "depth": -1,
                        "name": "Actual Gas Used",
                        "value": 306040
                    },
                    {
                        "children": [],
                        "depth": -1,
                        "name": "Refunded Gas",
                        "value": 76509
                    }
                ],
                "depth": -2,
                "name": "Total Gas",
                "value": 382549
            }
        ],
        "isConfirmed": true,
        "mainTrace": [
            {
                "children": [
                    {
                        "children": [
                            {
                                "children": [
                                    {
                                        "children": [],
                                        "depth": 2,
                                        "id": 2,
                                        "order": 2
                                    }
                                ],
                                "depth": 1,
                                "id": 1,
                                "order": 1
                            },
                            {
                                "children": [
                                    {
                                        "children": [
                                            {
                                                "children": [],
                                                "depth": 3,
                                                "id": 5,
                                                "order": 5
                                            },
                                            {
                                                "children": [],
                                                "depth": 3,
                                                "id": 6,
                                                "order": 6
                                            },
                                            {
                                                "children": [
                                                    {
                                                        "children": [],
                                                        "depth": 4,
                                                        "id": 8,
                                                        "order": 8
                                                    }
                                                ],
                                                "depth": 3,
                                                "id": 7,
                                                "order": 7
                                            },
                                            {
                                                "children": [
                                                    {
                                                        "children": [
                                                            {
                                                                "children": [],
                                                                "depth": 5,
                                                                "id": 11,
                                                                "order": 11
                                                            }
                                                        ],
                                                        "depth": 4,
                                                        "id": 10,
                                                        "order": 10
                                                    }
                                                ],
                                                "depth": 3,
                                                "id": 9,
                                                "order": 9
                                            },
                                            {
                                                "children": [
                                                    {
                                                        "children": [
                                                            {
                                                                "children": [],
                                                                "depth": 5,
                                                                "id": 14,
                                                                "order": 14
                                                            }
                                                        ],
                                                        "depth": 4,
                                                        "id": 13,
                                                        "order": 13
                                                    }
                                                ],
                                                "depth": 3,
                                                "id": 12,
                                                "order": 12
                                            },
                                            {
                                                "children": [
                                                    {
                                                        "children": [
                                                            {
                                                                "children": [],
                                                                "depth": 5,
                                                                "id": 17,
                                                                "order": 17
                                                            },
                                                            {
                                                                "children": [],
                                                                "depth": 5,
                                                                "id": 18,
                                                                "order": 18
                                                            },
                                                            {
                                                                "children": [
                                                                    {
                                                                        "children": [],
                                                                        "depth": 6,
                                                                        "id": 20,
                                                                        "order": 20
                                                                    }
                                                                ],
                                                                "depth": 5,
                                                                "id": 19,
                                                                "order": 19
                                                            },
                                                            {
                                                                "children": [],
                                                                "depth": 5,
                                                                "id": 21,
                                                                "order": 21
                                                            }
                                                        ],
                                                        "depth": 4,
                                                        "id": 16,
                                                        "order": 16
                                                    }
                                                ],
                                                "depth": 3,
                                                "id": 15,
                                                "order": 15
                                            },
                                            {
                                                "children": [
                                                    {
                                                        "children": [],
                                                        "depth": 4,
                                                        "id": 23,
                                                        "order": 23
                                                    }
                                                ],
                                                "depth": 3,
                                                "id": 22,
                                                "order": 22
                                            },
                                            {
                                                "children": [
                                                    {
                                                        "children": [],
                                                        "depth": 4,
                                                        "id": 25,
                                                        "order": 25
                                                    },
                                                    {
                                                        "children": [
                                                            {
                                                                "children": [],
                                                                "depth": 5,
                                                                "id": 27,
                                                                "order": 27
                                                            }
                                                        ],
                                                        "depth": 4,
                                                        "id": 26,
                                                        "order": 26
                                                    },
                                                    {
                                                        "children": [],
                                                        "depth": 4,
                                                        "id": 28,
                                                        "order": 28
                                                    }
                                                ],
                                                "depth": 3,
                                                "id": 24,
                                                "order": 24
                                            },
                                            {
                                                "children": [],
                                                "depth": 3,
                                                "id": 29,
                                                "order": 29
                                            }
                                        ],
                                        "depth": 2,
                                        "id": 4,
                                        "order": 4
                                    }
                                ],
                                "depth": 1,
                                "id": 3,
                                "order": 3
                            },
                            {
                                "children": [],
                                "depth": 1,
                                "id": 30,
                                "order": 30
                            },
                            {
                                "children": [],
                                "depth": 1,
                                "id": 31,
                                "order": 31
                            },
                            {
                                "children": [
                                    {
                                        "children": [],
                                        "depth": 2,
                                        "id": 33,
                                        "order": 33
                                    },
                                    {
                                        "children": [],
                                        "depth": 2,
                                        "id": 34,
                                        "order": 34
                                    }
                                ],
                                "depth": 1,
                                "id": 32,
                                "order": 32
                            },
                            {
                                "children": [],
                                "depth": 1,
                                "id": 35,
                                "order": 35
                            },
                            {
                                "children": [],
                                "depth": 1,
                                "id": 36,
                                "order": 36
                            },
                            {
                                "children": [
                                    {
                                        "children": [],
                                        "depth": 2,
                                        "id": 38,
                                        "order": 38
                                    }
                                ],
                                "depth": 1,
                                "id": 37,
                                "order": 37
                            },
                            {
                                "children": [],
                                "depth": 1,
                                "id": 39,
                                "order": 39
                            },
                            {
                                "children": [
                                    {
                                        "children": [],
                                        "depth": 2,
                                        "id": 41,
                                        "order": 41
                                    },
                                    {
                                        "children": [
                                            {
                                                "children": [],
                                                "depth": 3,
                                                "id": 43,
                                                "order": 43
                                            },
                                            {
                                                "children": [],
                                                "depth": 3,
                                                "id": 44,
                                                "order": 44
                                            }
                                        ],
                                        "depth": 2,
                                        "id": 42,
                                        "order": 42
                                    },
                                    {
                                        "children": [
                                            {
                                                "children": [
                                                    {
                                                        "children": [],
                                                        "depth": 4,
                                                        "id": 47,
                                                        "order": 47
                                                    }
                                                ],
                                                "depth": 3,
                                                "id": 46,
                                                "order": 46
                                            },
                                            {
                                                "children": [],
                                                "depth": 3,
                                                "id": 48,
                                                "order": 48
                                            },
                                            {
                                                "children": [],
                                                "depth": 3,
                                                "id": 49,
                                                "order": 49
                                            },
                                            {
                                                "children": [],
                                                "depth": 3,
                                                "id": 50,
                                                "order": 50
                                            },
                                            {
                                                "children": [],
                                                "depth": 3,
                                                "id": 51,
                                                "order": 51
                                            }
                                        ],
                                        "depth": 2,
                                        "id": 45,
                                        "order": 45
                                    },
                                    {
                                        "children": [
                                            {
                                                "children": [],
                                                "depth": 3,
                                                "id": 53,
                                                "order": 53
                                            },
                                            {
                                                "children": [],
                                                "depth": 3,
                                                "id": 54,
                                                "order": 54
                                            }
                                        ],
                                        "depth": 2,
                                        "id": 52,
                                        "order": 52
                                    },
                                    {
                                        "children": [],
                                        "depth": 2,
                                        "id": 55,
                                        "order": 55
                                    }
                                ],
                                "depth": 1,
                                "id": 40,
                                "order": 40
                            }
                        ],
                        "depth": 0,
                        "id": 0,
                        "order": 0
                    }
                ],
                "depth": -1,
                "id": -1,
                "order": -1
            }
        ],
        "mainTraceNodeCount": 56,
        "parentIdMap": {
            "0": -1,
            "1": 0,
            "10": 9,
            "11": 10,
            "12": 4,
            "13": 12,
            "14": 13,
            "15": 4,
            "16": 15,
            "17": 16,
            "18": 16,
            "19": 16,
            "2": 1,
            "20": 19,
            "21": 16,
            "22": 4,
            "23": 22,
            "24": 4,
            "25": 24,
            "26": 24,
            "27": 26,
            "28": 24,
            "29": 4,
            "3": 0,
            "30": 0,
            "31": 0,
            "32": 0,
            "33": 32,
            "34": 32,
            "35": 0,
            "36": 0,
            "37": 0,
            "38": 37,
            "39": 0,
            "4": 3,
            "40": 0,
            "41": 40,
            "42": 40,
            "43": 42,
            "44": 42,
            "45": 40,
            "46": 45,
            "47": 46,
            "48": 45,
            "49": 45,
            "5": 4,
            "50": 45,
            "51": 45,
            "52": 40,
            "53": 52,
            "54": 52,
            "55": 40,
            "6": 4,
            "7": 4,
            "8": 7,
            "9": 4
        },
        "tidyTrace": [
            {
                "children": [
                    {
                        "children": [
                            {
                                "children": [
                                    {
                                        "children": [],
                                        "depth": 2,
                                        "id": 2,
                                        "order": 2
                                    }
                                ],
                                "depth": 1,
                                "id": 1,
                                "order": 1
                            },
                            {
                                "children": [
                                    {
                                        "children": [
                                            {
                                                "children": [
                                                    {
                                                        "children": [
                                                            {
                                                                "children": [],
                                                                "depth": 5,
                                                                "id": 14,
                                                                "order": 14
                                                            }
                                                        ],
                                                        "depth": 4,
                                                        "id": 13,
                                                        "order": 13
                                                    }
                                                ],
                                                "depth": 3,
                                                "id": 12,
                                                "order": 12
                                            },
                                            {
                                                "children": [
                                                    {
                                                        "children": [
                                                            {
                                                                "children": [],
                                                                "depth": 5,
                                                                "id": 18,
                                                                "order": 18
                                                            },
                                                            {
                                                                "children": [
                                                                    {
                                                                        "children": [],
                                                                        "depth": 6,
                                                                        "id": 20,
                                                                        "order": 20
                                                                    }
                                                                ],
                                                                "depth": 5,
                                                                "id": 19,
                                                                "order": 19
                                                            },
                                                            {
                                                                "children": [],
                                                                "depth": 5,
                                                                "id": 21,
                                                                "order": 21
                                                            }
                                                        ],
                                                        "depth": 4,
                                                        "id": 16,
                                                        "order": 16
                                                    }
                                                ],
                                                "depth": 3,
                                                "id": 15,
                                                "order": 15
                                            },
                                            {
                                                "children": [
                                                    {
                                                        "children": [
                                                            {
                                                                "children": [],
                                                                "depth": 5,
                                                                "id": 27,
                                                                "order": 27
                                                            }
                                                        ],
                                                        "depth": 4,
                                                        "id": 26,
                                                        "order": 26
                                                    }
                                                ],
                                                "depth": 3,
                                                "id": 24,
                                                "order": 24
                                            },
                                            {
                                                "children": [],
                                                "depth": 3,
                                                "id": 29,
                                                "order": 29
                                            }
                                        ],
                                        "depth": 2,
                                        "id": 4,
                                        "order": 4
                                    }
                                ],
                                "depth": 1,
                                "id": 3,
                                "order": 3
                            },
                            {
                                "children": [
                                    {
                                        "children": [],
                                        "depth": 2,
                                        "id": 33,
                                        "order": 33
                                    },
                                    {
                                        "children": [],
                                        "depth": 2,
                                        "id": 34,
                                        "order": 34
                                    }
                                ],
                                "depth": 1,
                                "id": 32,
                                "order": 32
                            },
                            {
                                "children": [
                                    {
                                        "children": [],
                                        "depth": 2,
                                        "id": 38,
                                        "order": 38
                                    }
                                ],
                                "depth": 1,
                                "id": 37,
                                "order": 37
                            },
                            {
                                "children": [
                                    {
                                        "children": [
                                            {
                                                "children": [],
                                                "depth": 3,
                                                "id": 43,
                                                "order": 43
                                            },
                                            {
                                                "children": [],
                                                "depth": 3,
                                                "id": 44,
                                                "order": 44
                                            }
                                        ],
                                        "depth": 2,
                                        "id": 42,
                                        "order": 42
                                    },
                                    {
                                        "children": [
                                            {
                                                "children": [
                                                    {
                                                        "children": [],
                                                        "depth": 4,
                                                        "id": 47,
                                                        "order": 47
                                                    }
                                                ],
                                                "depth": 3,
                                                "id": 46,
                                                "order": 46
                                            },
                                            {
                                                "children": [],
                                                "depth": 3,
                                                "id": 50,
                                                "order": 50
                                            },
                                            {
                                                "children": [],
                                                "depth": 3,
                                                "id": 51,
                                                "order": 51
                                            }
                                        ],
                                        "depth": 2,
                                        "id": 45,
                                        "order": 45
                                    },
                                    {
                                        "children": [
                                            {
                                                "children": [],
                                                "depth": 3,
                                                "id": 53,
                                                "order": 53
                                            },
                                            {
                                                "children": [],
                                                "depth": 3,
                                                "id": 54,
                                                "order": 54
                                            }
                                        ],
                                        "depth": 2,
                                        "id": 52,
                                        "order": 52
                                    },
                                    {
                                        "children": [],
                                        "depth": 2,
                                        "id": 55,
                                        "order": 55
                                    }
                                ],
                                "depth": 1,
                                "id": 40,
                                "order": 40
                            }
                        ],
                        "depth": 0,
                        "id": 0,
                        "order": 0
                    }
                ],
                "depth": -1,
                "id": -1,
                "order": -1
            }
        ],
        "tidyTraceNodeCount": 36
    },
    "state_change": {
        "stateChanges": [
            {
                "address": "0x16b9a82891338f9ba80e2d6970fdda79d1eb0dae",
                "erc": "ERC-20",
                "slots": [
                    {
                        "current": "0x660a43c60000000001c6c4e9a90d125dbcc700000004267a692956d1dc7d67a4",
                        "key": "0x0000000000000000000000000000000000000000000000000000000000000008",
                        "prev": "0x660a43c60000000001c8cfed1a3149c8b7f20000000421b6ec55a2a0ba1b3055"
                    }
                ],
                "storageVariables": [
                    {
                        "name": "reserve0",
                        "type": "uint112",
                        "value": {
                            "current": "5017411285267863157172132",
                            "prev": "4994915709511007301480533",
                            "typeTag": 1
                        }
                    },
                    {
                        "name": "reserve1",
                        "type": "uint112",
                        "value": {
                            "current": "8389010867438751694023",
                            "prev": "8426697957945880655858",
                            "typeTag": 1
                        }
                    },
                    {
                        "name": "blockTimestampLast",
                        "type": "uint32",
                        "value": {
                            "current": "1711948742",
                            "prev": "1711948742",
                            "typeTag": 1
                        }
                    }
                ]
            },
            {
                "address": "0x55d398326f99059ff775485246999027b3197955",
                "erc": "ERC-20",
                "slots": [
                    {
                        "current": "0x00000000000000000000000000000000000000000004267a692956d1dc7d67a4",
                        "key": "0xba08221f8673e7bcd34c1b8c4689a983ae464d35addf83dda4fe5d5546a79b0d",
                        "prev": "0x0000000000000000000000000000000000000000000421b6ec55a2a0ba1b3055"
                    },
                    {
                        "current": "0x000000000000000000000000000000000000000000000c7e6b62fa641d528c40",
                        "key": "0x933675447a9c8f054eacec146da61295053c9f3b58eb03884f42e0862939d83e",
                        "prev": "0x000000000000000000000000000000000000000000001141e836ae953fb4c38f"
                    }
                ],
                "storageVariables": [
                    {
                        "name": "_balances",
                        "type": "mapping(address => uint256)",
                        "value": {
                            "pairs": [
                                {
                                    "key": "0x16b9a82891338f9ba80e2d6970fdda79d1eb0dae",
                                    "value": {
                                        "current": "5017411285267863157172132",
                                        "prev": "4994915709511007301480533",
                                        "typeTag": 1
                                    }
                                },
                                {
                                    "key": "0x6a75ac4b8d8e76d15502e69be4cb6325422833b4",
                                    "value": {
                                        "current": "59000425570140817624128",
                                        "prev": "81496001326996673315727",
                                        "typeTag": 1
                                    }
                                }
                            ],
                            "typeTag": 4
                        }
                    }
                ]
            },
            {
                "address": "0x6a75ac4b8d8e76d15502e69be4cb6325422833b4",
                "erc": "",
                "slots": [
                    {
                        "current": "0x0000000000000000000000000000000000000000000000000000000000000000",
                        "key": "0xcb4c8b82923df591f497dd0d55e27783c81487ca3d7918fbf60c1fde6c414669",
                        "prev": "0x0000000000000000000000000000000000000000000000a08ca1ac596b79bfed"
                    },
                    {
                        "current": "0x0000000000000000000000000000000000000000000000000000000000000000",
                        "key": "0xcb4c8b82923df591f497dd0d55e27783c81487ca3d7918fbf60c1fde6c41466a",
                        "prev": "0x0000000000000000000000000000000000000000000004c38570ce19628b4aef"
                    },
                    {
                        "current": "0x0000000000000000000000000000000000000000000000000000000000000000",
                        "key": "0xcb4c8b82923df591f497dd0d55e27783c81487ca3d7918fbf60c1fde6c41466b",
                        "prev": "0x000000000000000000000000000000000000000000000000000000023bc07901"
                    },
                    {
                        "current": "0x000000000000000000000000000000000000000000000c7e81fa6c214f51feaa",
                        "key": "0xe2cab5023e7cbce5f767635ad121c03c417206a37ee6dcb4806e1632f0aa831a",
                        "prev": "0x000000000000000000000000000000000000000000001142076b3a3ab1dd4999"
                    }
                ],
                "storageVariables": [
                    {
                        "name": "activeTrades",
                        "type": "mapping(address => mapping(uint16 => mapping(bool => struct Types.Trade)))",
                        "value": {
                            "pairs": [
                                {
                                    "key": "0xd0c8af170397c04525a02234b65e9a39969f4e93",
                                    "value": {
                                        "pairs": [
                                            {
                                                "key": "24",
                                                "value": {
                                                    "pairs": [
                                                        {
                                                            "key": "true",
                                                            "value": {
                                                                "fields": [
                                                                    {
                                                                        "name": "deposited",
                                                                        "type": "uint256",
                                                                        "value": {
                                                                            "current": "0",
                                                                            "prev": "2961612621930143793133",
                                                                            "typeTag": 1
                                                                        }
                                                                    },
                                                                    {
                                                                        "name": "held",
                                                                        "type": "uint256",
                                                                        "value": {
                                                                            "current": "0",
                                                                            "prev": "22496196437664802228975",
                                                                            "typeTag": 1
                                                                        }
                                                                    },
                                                                    {
                                                                        "name": "depositToken",
                                                                        "type": "bool",
                                                                        "value": {
                                                                            "current": "false",
                                                                            "prev": "true",
                                                                            "typeTag": 1
                                                                        }
                                                                    },
                                                                    {
                                                                        "name": "lastBlockNum",
                                                                        "type": "uint128",
                                                                        "value": {
                                                                            "current": "0",
                                                                            "prev": "37470329",
                                                                            "typeTag": 1
                                                                        }
                                                                    }
                                                                ],
                                                                "typeTag": 3
                                                            }
                                                        }
                                                    ],
                                                    "typeTag": 4
                                                }
                                            }
                                        ],
                                        "typeTag": 4
                                    }
                                }
                            ],
                            "typeTag": 4
                        }
                    },
                    {
                        "name": "totalHelds",
                        "type": "mapping(address => uint256)",
                        "value": {
                            "pairs": [
                                {
                                    "key": "0x55d398326f99059ff775485246999027b3197955",
                                    "value": {
                                        "current": "59002053464988536929962",
                                        "prev": "81498249902653339158937",
                                        "typeTag": 1
                                    }
                                }
                            ],
                            "typeTag": 4
                        }
                    }
                ]
            },
            {
                "address": "0x7c5e04894410e98b1788fbdb181ffacbf8e60617",
                "erc": "ERC-20",
                "slots": [
                    {
                        "current": "0x0000000000000000000000000000000000000000000000000573fc041320f612",
                        "key": "0x0000000000000000000000000000000000000000000000000000000000000012",
                        "prev": "0x0000000000000000000000000000000000000000000000000573fbd072812258"
                    },
                    {
                        "current": "0x0000000000000000000000000000000000000000000ba3925cf5383fd1fca178",
                        "key": "0xcc9341d27ff3121cc8b77eed7ad621b3175fd771e1937e1d21d05bda08f39e84",
                        "prev": "0x0000000000000000000000000000000000000000000ba3925287905cb821992b"
                    },
                    {
                        "current": "0x00000000000000000000000000000000000000000000000000000000023bc07c",
                        "key": "0x000000000000000000000000000000000000000000000000000000000000000d",
                        "prev": "0x00000000000000000000000000000000000000000000000000000000023bc079"
                    },
                    {
                        "current": "0x0000000000000000000000000000000000000000000ba3925cf5383fd1fca178",
                        "key": "0x000000000000000000000000000000000000000000000000000000000000000e",
                        "prev": "0x0000000000000000000000000000000000000000000ba3925287905cb821992b"
                    },
                    {
                        "current": "0x0000000000000000000000000000000000000000000000024035341c1f3283e6",
                        "key": "0x000000000000000000000000000000000000000000000000000000000000000f",
                        "prev": "0x00000000000000000000000000000000000000000000000240353217d8f43e9d"
                    }
                ],
                "storageVariables": [
                    {
                        "name": "totalReserves",
                        "type": "uint256",
                        "value": {
                            "current": "392934686942361106",
                            "prev": "392934465204200024",
                            "typeTag": 1
                        }
                    },
                    {
                        "name": "accountBorrows",
                        "type": "mapping(address => struct LPoolStorage.BorrowSnapshot)",
                        "value": {
                            "pairs": [
                                {
                                    "key": "0xd0c8af170397c04525a02234b65e9a39969f4e93",
                                    "value": {
                                        "fields": [
                                            {
                                                "name": "interestIndex",
                                                "type": "uint256",
                                                "value": {
                                                    "current": "14070629675425302226706808",
                                                    "prev": "14070628923983995552766251",
                                                    "typeTag": 1
                                                }
                                            }
                                        ],
                                        "typeTag": 3
                                    }
                                }
                            ],
                            "typeTag": 4
                        }
                    },
                    {
                        "name": "accrualBlockNumber",
                        "type": "uint256",
                        "value": {
                            "current": "37470332",
                            "prev": "37470329",
                            "typeTag": 1
                        }
                    },
                    {
                        "name": "borrowIndex",
                        "type": "uint256",
                        "value": {
                            "current": "14070629675425302226706808",
                            "prev": "14070628923983995552766251",
                            "typeTag": 1
                        }
                    },
                    {
                        "name": "totalBorrows",
                        "type": "uint256",
                        "value": {
                            "current": "41520149634999288806",
                            "prev": "41520147417617677981",
                            "typeTag": 1
                        }
                    }
                ]
            },
            {
                "address": "0xbb4cdb9cbd36b01bd1cbaebf2de08d9173bc095c",
                "erc": "ERC-20",
                "slots": [
                    {
                        "current": "0x0000000000000000000000000000000000000000000001c6c4e9a90d125dbcc7",
                        "key": "0x65a91b743eebb93754974b0d76ae6fbcc9c7843adbbd90f71368692e5c22fe4d",
                        "prev": "0x0000000000000000000000000000000000000000000001c8cfed1a3149c8b7f2"
                    },
                    {
                        "current": "0x0000000000000000000000000000000000000000000000000000000000000000",
                        "key": "0xa1779ee4480f0849f0b4a85832dc1a92a20cd64d25314742dfe91d0e1c6d3820",
                        "prev": "0x0000000000000000000000000000000000000000000000000000000000000003"
                    }
                ],
                "storageVariables": [
                    {
                        "name": "balanceOf",
                        "type": "mapping(address => uint256)",
                        "value": {
                            "pairs": [
                                {
                                    "key": "0x16b9a82891338f9ba80e2d6970fdda79d1eb0dae",
                                    "value": {
                                        "current": "8389010867438751694023",
                                        "prev": "8426697957945880655858",
                                        "typeTag": 1
                                    }
                                },
                                {
                                    "key": "0xd0c8af170397c04525a02234b65e9a39969f4e93",
                                    "value": {
                                        "current": "0",
                                        "prev": "3",
                                        "typeTag": 1
                                    }
                                }
                            ],
                            "typeTag": 4
                        }
                    }
                ]
            }
        ]
    }
}