{
    "balance_change": {
        "balanceChanges": [
            {
                "account": "0xe9458215bef3aa61a039eb59ffc283bf82b81c84",
                "assets": [
                    {
                        "address": "0xeeeeeeeeeeeeeeeeeeeeeeeeeeeeeeeeeeeeeeee",
                        "amount": "0.000000001",
                        "iconUrl": "https://assets.blocksec.com/image/1663669189317-3.png",
                        "isERC1155": false,
                        "isERC721": false,
                        "sign": false,
                        "value": "0.0000018902899999999999636"
                    },
                    {
                        "address": "0xc02aaa39b223fe8d0a0e5c4f27ead9083c756cc2",
                        "amount": "1.136449063099364001",
                        "iconUrl": "https://assets.blocksec.com/icon/f1cb2d02c471d545bbc7722daf3277fd852d98e63d118771af7047bd8256c516.png",
                        "isERC1155": false,
                        "isERC721": false,
                        "sign": true,
                        "value": "2152.2299644906599276"
                    }
                ]
            },
            {
                "account": "0x421a5671306cb5f66ff580573c1c8d536e266c93",
                "assets": [
                    {
                        "address": "0xc02aaa39b223fe8d0a0e5c4f27ead9083c756cc2",
                        "amount": "1.136449063099364001",
                        "iconUrl": "https://assets.blocksec.com/icon/f1cb2d02c471d545bbc7722daf3277fd852d98e63d118771af7047bd8256c516.png",
                        "isERC1155": false,
                        "isERC721": false,
                        "sign": false,
                        "value": "2152.2299644906599276"
                    }
                ]
            },
            {
                "account": "0xdafea492d9c6733ae3d56b7ed1adb60692c98bc5",
                "assets": [
                    {
                        "address": "0xeeeeeeeeeeeeeeeeeeeeeeeeeeeeeeeeeeeeeeee",
                        "amount": "0.000000001",
                        "iconUrl": "https://assets.blocksec.com/image/1663669189317-3.png",
                        "isERC1155": false,
                        "isERC721": false,
                        "sign": true,
                        "value": "0.0000018902899999999999636"
                    }
                ]
            }
        ]
    },
    "profile": {
        "basic_info": {
            "baseFee": "26.517873989",
            "blockNumber": 17366980,
            "callData": "0xab28339300000000000000000000000000000000000000000000000000000000000000200000000000000000000000000000000000000000000000000000000000000002000000000000000000000000e9458215bef3aa61a039eb59ffc283bf82b81c840000000000000000000000007a250d5630b4cf539739df2c5dacb4c659f2488d",
            "debugEnable": true,
            "errorInfo": "",
            "eventCount": 6,
            "feeRecipient": "0xdafea492d9c6733ae3d56b7ed1adb60692c98bc5",
            "formatValue": "0",
            "gasLimit": 203104,
            "gasPrice": "26.617873989",
            "gasUsed": 174804,
            "intTxnCount": 19,
            "internalRevert": false,
            "internalRevertMessage": "",
            "isContractCreation": false,
            "isFlashloan": false,
            "maxFee": "36.467038638",
            "nonce": 15,
            "overwritedBlockNumber": -1,
            "priorityFee": "0.1",
            "receiver": "0xe9458215bef3aa61a039eb59ffc283bf82b81c84",
            "revertMessage": "",
            "sender": "0x9748c8540a5f752ba747f1203ac13dae789033de",
            "simulationEnable": true,
            "sourceTxnHash": "0x23fb7f093e827ed061aafb574cfd420eab879621c7f78cb341292e106a3a88c0",
            "status": true,
            "timestamp": "2023-05-29T20:21:23Z",
            "transactionFee": "0.004652910844773156",
            "txnHash": "0x23fb7f093e827ed061aafb574cfd420eab879621c7f78cb341292e106a3a88c0",
            "txnIndex": 89,
            "type": 2,
            "value": "0"
        },
        "fund_flow": [
            {
                "amount": "88,104,775,387.217598184058610576",
                "from": "0x421a5671306cb5f66ff580573c1c8d536e266c93",
                "id": 1,
                "isERC1155": false,
                "isERC721": false,
                "isReverted": false,
                "order": 1,
                "to": "0xe9458215bef3aa61a039eb59ffc283bf82b81c84",
                "token": "0x6feac5f3792065b21f85bc118d891b33e0673bd8"
            },
            {
                "amount": "88,104,775,387.217598184058610576",
                "from": "0xe9458215bef3aa61a039eb59ffc283bf82b81c84",
                "id": 2,
                "isERC1155": false,
                "isERC721": false,
                "isReverted": false,
                "order": 2,
                "to": "0x421a5671306cb5f66ff580573c1c8d536e266c93",
                "token": "0x6feac5f3792065b21f85bc118d891b33e0673bd8"
            },
            {
                "amount": "0.000000001",
                "from": "0xe9458215bef3aa61a039eb59ffc283bf82b81c84",
                "id": 3,
                "isERC1155": false,
                "isERC721": false,
                "isReverted": false,
                "order": 3,
                "to": "0xdafea492d9c6733ae3d56b7ed1adb60692c98bc5",
                "token": "0xeeeeeeeeeeeeeeeeeeeeeeeeeeeeeeeeeeeeeeee"
            },
            {
                "amount": "1.136449063099364001",
                "from": "0x421a5671306cb5f66ff580573c1c8d536e266c93",
                "id": 4,
                "isERC1155": false,
                "isERC721": false,
                "isReverted": false,
                "order": 4,
                "to": "0xe9458215bef3aa61a039eb59ffc283bf82b81c84",
                "token": "0xc02aaa39b223fe8d0a0e5c4f27ead9083c756cc2"
            }
        ],
        "token_infos": [
            {
                "address": "0x6feac5f3792065b21f85bc118d891b33e0673bd8",
                "decimals": 18
            },
            {
                "address": "0xc02aaa39b223fe8d0a0e5c4f27ead9083c756cc2",
                "decimals": 18
            },
            {
                "address": "0xeeeeeeeeeeeeeeeeeeeeeeeeeeeeeeeeeeeeeeee",
                "decimals": 18
            }
        ]
    },
    "address_label": {
        "labels": [
            {
                "address": "0xeeeeeeeeeeeeeeeeeeeeeeeeeeeeeeeeeeeeeeee",
                "label": "Ether"
            },
            {
                "address": "0x6feac5f3792065b21f85bc118d891b33e0673bd8",
                "label": "NOON (NO)"
            },
            {
                "address": "0xc02aaa39b223fe8d0a0e5c4f27ead9083c756cc2",
                "label": "Wrapped Ether (WETH)"
            },
            {
                "address": "0x0000000000000000000000000000000000000002",
                "label": "Precompiled"
            },
            {
                "address": "0x0000000000000000000000000000000000000003",
                "label": "Precompiled"
            },
            {
                "address": "0x7a250d5630b4cf539739df2c5dacb4c659f2488d",
                "label": "Uniswap V2: Router 2"
            },
            {
                "address": "0xdafea492d9c6733ae3d56b7ed1adb60692c98bc5",
                "label": "Flashbots: Builder"
            },
            {
                "address": "0x421a5671306cb5f66ff580573c1c8d536e266c93",
                "label": "Uniswap V2 (UNI-V2)"
            },
            {
                "address": "0x0000000000000000000000000000000000000001",
                "label": "Precompiled"
            },
            {
                "address": "0x0000000000000000000000000000000000000004",
                "label": "Precompiled"
            }
        ]
    },
    "trace": {
        "accountLabels": null,
        "dataMap": {
            "-1": {
                "invocation": {
                    "address": "0x9748c8540a5f752ba747f1203ac13dae789033de",
                    "callData": "",
                    "decodedMethod": null,
                    "errorInfo": "",
                    "fromAddress": "",
                    "gasUsed": 0,
                    "id": -1,
                    "methodDecoded": false,
                    "operation": "",
                    "output": "",
                    "revert": false,
                    "revertMessage": "",
                    "selector": "",
                    "status": false,
                    "value": ""
                },
                "nodeType": 0
            },
            "0": {
                "invocation": {
                    "address": "0xe9458215bef3aa61a039eb59ffc283bf82b81c84",
                    "callData": "0x00000000000000000000000000000000000000000000000000000000000000200000000000000000000000000000000000000000000000000000000000000002000000000000000000000000e9458215bef3aa61a039eb59ffc283bf82b81c840000000000000000000000007a250d5630b4cf539739df2c5dacb4c659f2488d",
                    "decodedMethod": null,
                    "errorInfo": "",
                    "fromAddress": "0x9748c8540a5f752ba747f1203ac13dae789033de",
                    "gasUsed": 174804,
                    "id": 0,
                    "methodDecoded": false,
                    "operation": "CALL",
                    "output": "",
                    "revert": false,
                    "revertMessage": "",
                    "selector": "0xab283393",
                    "status": true,
                    "value": "0"
                },
                "nodeType": 0
            },
            "1": {
                "invocation": {
                    "address": "0x6feac5f3792065b21f85bc118d891b33e0673bd8",
                    "callData": "0x000000000000000000000000421a5671306cb5f66ff580573c1c8d536e266c93",
                    "decodedMethod": {
                        "callParams": [
                            {
                                "name": "account",
                                "type": "address",
                                "value": "0x421a5671306cb5f66ff580573c1c8d536e266c93"
                            }
                        ],
                        "constructorArguments": "",
                        "name": "balanceOf",
                        "returnParams": [
                            {
                                "decimalAvailable": true,
                                "name": "",
                                "type": "uint256",
                                "value": "88,104,775,387,217,598,184,058,610,577"
                            }
                        ],
                        "signature": "balanceOf(address)"
                    },
                    "errorInfo": "",
                    "fromAddress": "0xe9458215bef3aa61a039eb59ffc283bf82b81c84",
                    "gasUsed": 2469,
                    "id": 1,
                    "methodDecoded": true,
                    "operation": "STATICCALL",
                    "output": "0x00000000000000000000000000000000000000011cae8fe40ef5a9796b216391",
                    "revert": false,
                    "revertMessage": "",
                    "selector": "0x70a08231",
                    "status": true,
                    "value": "0"
                },
                "nodeType": 0
            },
            "10": {
                "invocation": {
                    "address": "0x6feac5f3792065b21f85bc118d891b33e0673bd8",
                    "callData": "0x000000000000000000000000421a5671306cb5f66ff580573c1c8d536e266c9300000000000000000000000000000000000000011cae8fe40ef5a9796b216390",
                    "decodedMethod": {
                        "callParams": [
                            {
                                "name": "_to",
                                "type": "address",
                                "value": "0x421a5671306cb5f66ff580573c1c8d536e266c93"
                            },
                            {
                                "decimalAvailable": true,
                                "name": "_value",
                                "type": "uint256",
                                "value": "88,104,775,387,217,598,184,058,610,576"
                            }
                        ],
                        "constructorArguments": "",
                        "name": "transfer",
                        "returnParams": [],
                        "signature": "transfer(address,uint256)"
                    },
                    "errorInfo": "",
                    "fromAddress": "0xe9458215bef3aa61a039eb59ffc283bf82b81c84",
                    "gasUsed": 4430,
                    "id": 10,
                    "methodDecoded": true,
                    "operation": "CALL",
                    "output": "",
                    "revert": false,
                    "revertMessage": "",
                    "selector": "0xa9059cbb",
                    "status": true,
                    "value": "0"
                },
                "nodeType": 0
            },
            "11": {
                "invocation": {
                    "address": "0x6feac5f3792065b21f85bc118d891b33e0673bd8",
                    "callData": "0x000000000000000000000000e9458215bef3aa61a039eb59ffc283bf82b81c84000000000000000000000000421a5671306cb5f66ff580573c1c8d536e266c9300000000000000000000000000000000000000011cae8fe40ef5a9796b216390",
                    "decodedMethod": {
                        "callParams": [
                            {
                                "name": "sender",
                                "type": "address",
                                "value": "0xe9458215bef3aa61a039eb59ffc283bf82b81c84"
                            },
                            {
                                "name": "recipient",
                                "type": "address",
                                "value": "0x421a5671306cb5f66ff580573c1c8d536e266c93"
                            },
                            {
                                "name": "amount",
                                "type": "uint256",
                                "value": "88,104,775,387,217,598,184,058,610,576"
                            }
                        ],
                        "constructorArguments": "",
                        "name": "_transfer",
                        "returnParams": [],
                        "signature": "_transfer(address,address,uint256)"
                    },
                    "errorInfo": "",
                    "fromAddress": "0x6feac5f3792065b21f85bc118d891b33e0673bd8",
                    "gasUsed": 3733,
                    "id": 11,
                    "methodDecoded": true,
                    "operation": "CALL",
                    "output": "",
                    "revert": false,
                    "revertMessage": "",
                    "selector": "0x30e0789e",
                    "status": true,
                    "value": "0"
                },
                "nodeType": 0
            },
            "12": {
                "event": {
                    "contract": "0x6feac5f3792065b21f85bc118d891b33e0673bd8",
                    "decodedLog": {
                        "name": "Transfer",
                        "params": [
                            {
                                "name": "from",
                                "type": "address",
                                "value": "0xe9458215bef3aa61a039eb59ffc283bf82b81c84"
                            },
                            {
                                "name": "to",
                                "type": "address",
                                "value": "0x421a5671306cb5f66ff580573c1c8d536e266c93"
                            },
                            {
                                "decimalAvailable": true,
                                "name": "value",
                                "type": "uint256",
                                "value": "88,104,775,387,217,598,184,058,610,576"
                            }
                        ],
                        "signature": "Transfer(address,address,uint256)"
                    },
                    "id": 12,
                    "logData": "0x00000000000000000000000000000000000000011cae8fe40ef5a9796b216390",
                    "logDecoded": true,
                    "operation": "EVENT",
                    "revert": false,
                    "status": true,
                    "topics": [
                        "0xddf252ad1be2c89b69c2b068fc378daa952ba7f163c4a11628f55a4df523b3ef",
                        "0x000000000000000000000000e9458215bef3aa61a039eb59ffc283bf82b81c84",
                        "0x000000000000000000000000421a5671306cb5f66ff580573c1c8d536e266c93"
                    ]
                },
                "nodeType": 1
            },
            "13": {
                "invocation": {
                    "address": "0x6feac5f3792065b21f85bc118d891b33e0673bd8",
                    "callData": "0x000000000000000000000000421a5671306cb5f66ff580573c1c8d536e266c93",
                    "decodedMethod": {
                        "callParams": [
                            {
                                "name": "account",
                                "type": "address",
                                "value": "0x421a5671306cb5f66ff580573c1c8d536e266c93"
                            }
                        ],
                        "constructorArguments": "",
                        "name": "balanceOf",
                        "returnParams": [
                            {
                                "decimalAvailable": true,
                                "name": "",
                                "type": "uint256",
                                "value": "88,104,775,387,217,598,184,058,610,577"
                            }
                        ],
                        "signature": "balanceOf(address)"
                    },
                    "errorInfo": "",
                    "fromAddress": "0xe9458215bef3aa61a039eb59ffc283bf82b81c84",
                    "gasUsed": 469,
                    "id": 13,
                    "methodDecoded": true,
                    "operation": "STATICCALL",
                    "output": "0x00000000000000000000000000000000000000011cae8fe40ef5a9796b216391",
                    "revert": false,
                    "revertMessage": "",
                    "selector": "0x70a08231",
                    "status": true,
                    "value": "0"
                },
                "nodeType": 0
            },
            "14": {
                "invocation": {
                    "address": "0x421a5671306cb5f66ff580573c1c8d536e266c93",
                    "callData": "0x",
                    "decodedMethod": {
                        "callParams": [],
                        "constructorArguments": "",
                        "name": "getReserves",
                        "returnParams": [
                            {
                                "name": "_reserve0",
                                "type": "uint112",
                                "value": "1"
                            },
                            {
                                "name": "_reserve1",
                                "type": "uint112",
                                "value": "1,136,449,063,099,364,002"
                            },
                            {
                                "name": "_blockTimestampLast",
                                "type": "uint32",
                                "value": "1,685,391,683"
                            }
                        ],
                        "signature": "getReserves()"
                    },
                    "errorInfo": "",
                    "fromAddress": "0xe9458215bef3aa61a039eb59ffc283bf82b81c84",
                    "gasUsed": 504,
                    "id": 14,
                    "methodDecoded": true,
                    "operation": "STATICCALL",
                    "output": "0x00000000000000000000000000000000000000000000000000000000000000010000000000000000000000000000000000000000000000000fc57a66d75cf2a20000000000000000000000000000000000000000000000000000000064750943",
                    "revert": false,
                    "revertMessage": "",
                    "selector": "0x0902f1ac",
                    "status": true,
                    "value": "0"
                },
                "nodeType": 0
            },
            "15": {
                "invocation": {
                    "address": "0xdafea492d9c6733ae3d56b7ed1adb60692c98bc5",
                    "callData": "0x",
                    "decodedMethod": null,
                    "errorInfo": "",
                    "fromAddress": "0xe9458215bef3aa61a039eb59ffc283bf82b81c84",
                    "gasUsed": 0,
                    "id": 15,
                    "methodDecoded": false,
                    "operation": "CALL",
                    "output": "",
                    "revert": false,
                    "revertMessage": "",
                    "selector": "fallback",
                    "status": true,
                    "value": "0.000000001"
                },
                "nodeType": 0
            },
            "16": {
                "invocation": {
                    "address": "0x7a250d5630b4cf539739df2c5dacb4c659f2488d",
                    "callData": "0x00000000000000000000000000000000000000011cae8fe40ef5a9796b21639000000000000000000000000000000000000000000000000000000000000000010000000000000000000000000000000000000000000000000fc57a66d75cf2a2",
                    "decodedMethod": {
                        "callParams": [
                            {
                                "name": "amountIn",
                                "type": "uint256",
                                "value": "88,104,775,387,217,598,184,058,610,576"
                            },
                            {
                                "name": "reserveIn",
                                "type": "uint256",
                                "value": "1"
                            },
                            {
                                "name": "reserveOut",
                                "type": "uint256",
                                "value": "1,136,449,063,099,364,002"
                            }
                        ],
                        "constructorArguments": "",
                        "name": "getAmountOut",
                        "returnParams": [
                            {
                                "name": "amountOut",
                                "type": "uint256",
                                "value": "1,136,449,063,099,364,001"
                            }
                        ],
                        "signature": "getAmountOut(uint256,uint256,uint256)"
                    },
                    "errorInfo": "",
                    "fromAddress": "0xe9458215bef3aa61a039eb59ffc283bf82b81c84",
                    "gasUsed": 1021,
                    "id": 16,
                    "methodDecoded": true,
                    "operation": "STATICCALL",
                    "output": "0x0000000000000000000000000000000000000000000000000fc57a66d75cf2a1",
                    "revert": false,
                    "revertMessage": "",
                    "selector": "0x054d50d4",
                    "status": true,
                    "value": "0"
                },
                "nodeType": 0
            },
            "17": {
                "invocation": {
                    "address": "0x421a5671306cb5f66ff580573c1c8d536e266c93",
                    "callData": "0x00000000000000000000000000000000000000000000000000000000000000000000000000000000000000000000000000000000000000000fc57a66d75cf2a1000000000000000000000000e9458215bef3aa61a039eb59ffc283bf82b81c8400000000000000000000000000000000000000000000000000000000000000800000000000000000000000000000000000000000000000000000000000000000",
                    "decodedMethod": {
                        "callParams": [
                            {
                                "name": "amount0Out",
                                "type": "uint256",
                                "value": "0"
                            },
                            {
                                "name": "amount1Out",
                                "type": "uint256",
                                "value": "1,136,449,063,099,364,001"
                            },
                            {
                                "name": "to",
                                "type": "address",
                                "value": "0xe9458215bef3aa61a039eb59ffc283bf82b81c84"
                            },
                            {
                                "name": "data",
                                "type": "bytes",
                                "value": "0x"
                            }
                        ],
                        "constructorArguments": "",
                        "name": "swap",
                        "returnParams": [],
                        "signature": "swap(uint256,uint256,address,bytes)"
                    },
                    "errorInfo": "",
                    "fromAddress": "0xe9458215bef3aa61a039eb59ffc283bf82b81c84",
                    "gasUsed": 41072,
                    "id": 17,
                    "methodDecoded": true,
                    "operation": "CALL",
                    "output": "",
                    "revert": false,
                    "revertMessage": "",
                    "selector": "0x022c0d9f",
                    "status": true,
                    "value": "0"
                },
                "nodeType": 0
            },
            "18": {
                "invocation": {
                    "address": "0xc02aaa39b223fe8d0a0e5c4f27ead9083c756cc2",
                    "callData": "0x000000000000000000000000e9458215bef3aa61a039eb59ffc283bf82b81c840000000000000000000000000000000000000000000000000fc57a66d75cf2a1",
                    "decodedMethod": {
                        "callParams": [
                            {
                                "name": "dst",
                                "type": "address",
                                "value": "0xe9458215bef3aa61a039eb59ffc283bf82b81c84"
                            },
                            {
                                "decimalAvailable": true,
                                "name": "wad",
                                "type": "uint256",
                                "value": "1,136,449,063,099,364,001"
                            }
                        ],
                        "constructorArguments": "",
                        "name": "transfer",
                        "returnParams": [
                            {
                                "name": "",
                                "type": "bool",
                                "value": true
                            }
                        ],
                        "signature": "transfer(address,uint256)"
                    },
                    "errorInfo": "",
                    "fromAddress": "0x421a5671306cb5f66ff580573c1c8d536e266c93",
                    "gasUsed": 27962,
                    "id": 18,
                    "methodDecoded": true,
                    "operation": "CALL",
                    "output": "0x0000000000000000000000000000000000000000000000000000000000000001",
                    "revert": false,
                    "revertMessage": "",
                    "selector": "0xa9059cbb",
                    "status": true,
                    "value": "0"
                },
                "nodeType": 0
            },
            "19": {
                "event": {
                    "contract": "0xc02aaa39b223fe8d0a0e5c4f27ead9083c756cc2",
                    "decodedLog": {
                        "name": "Transfer",
                        "params": [
                            {
                                "name": "src",
                                "type": "address",
                                "value": "0x421a5671306cb5f66ff580573c1c8d536e266c93"
                            },
                            {
                                "name": "dst",
                                "type": "address",
                                "value": "0xe9458215bef3aa61a039eb59ffc283bf82b81c84"
                            },
                            {
                                "decimalAvailable": true,
                                "name": "wad",
                                "type": "uint256",
                                "value": "1,136,449,063,099,364,001"
                            }
                        ],
                        "signature": "Transfer(address,address,uint256)"
                    },
                    "id": 19,
                    "logData": "0x0000000000000000000000000000000000000000000000000fc57a66d75cf2a1",
                    "logDecoded": true,
                    "operation": "EVENT",
                    "revert": false,
                    "status": true,
                    "topics": [
                        "0xddf252ad1be2c89b69c2b068fc378daa952ba7f163c4a11628f55a4df523b3ef",
                        "0x000000000000000000000000421a5671306cb5f66ff580573c1c8d536e266c93",
                        "0x000000000000000000000000e9458215bef3aa61a039eb59ffc283bf82b81c84"
                    ]
                },
                "nodeType": 1
            },
            "2": {
                "invocation": {
                    "address": "0x6feac5f3792065b21f85bc118d891b33e0673bd8",
                    "callData": "0x000000000000000000000000421a5671306cb5f66ff580573c1c8d536e266c93000000000000000000000000e9458215bef3aa61a039eb59ffc283bf82b81c8400000000000000000000000000000000000000011cae8fe40ef5a9796b216390",
                    "decodedMethod": {
                        "callParams": [
                            {
                                "name": "sender",
                                "type": "address",
                                "value": "0x421a5671306cb5f66ff580573c1c8d536e266c93"
                            },
                            {
                                "name": "recipient",
                                "type": "address",
                                "value": "0xe9458215bef3aa61a039eb59ffc283bf82b81c84"
                            },
                            {
                                "name": "amount",
                                "type": "uint256",
                                "value": "88,104,775,387,217,598,184,058,610,576"
                            }
                        ],
                        "constructorArguments": "",
                        "name": "_transfer",
                        "returnParams": [],
                        "signature": "_transfer(address,address,uint256)"
                    },
                    "errorInfo": "",
                    "fromAddress": "0xe9458215bef3aa61a039eb59ffc283bf82b81c84",
                    "gasUsed": 28433,
                    "id": 2,
                    "methodDecoded": true,
                    "operation": "CALL",
                    "output": "",
                    "revert": false,
                    "revertMessage": "",
                    "selector": "0x30e0789e",
                    "status": true,
                    "value": "0"
                },
                "nodeType": 0
            },
            "20": {
                "invocation": {
                    "address": "0x6feac5f3792065b21f85bc118d891b33e0673bd8",
                    "callData": "0x000000000000000000000000421a5671306cb5f66ff580573c1c8d536e266c93",
                    "decodedMethod": {
                        "callParams": [
                            {
                                "name": "account",
                                "type": "address",
                                "value": "0x421a5671306cb5f66ff580573c1c8d536e266c93"
                            }
                        ],
                        "constructorArguments": "",
                        "name": "balanceOf",
                        "returnParams": [
                            {
                                "decimalAvailable": true,
                                "name": "",
                                "type": "uint256",
                                "value": "88,104,775,387,217,598,184,058,610,577"
                            }
                        ],
                        "signature": "balanceOf(address)"
                    },
                    "errorInfo": "",
                    "fromAddress": "0x421a5671306cb5f66ff580573c1c8d536e266c93",
                    "gasUsed": 469,
                    "id": 20,
                    "methodDecoded": true,
                    "operation": "STATICCALL",
                    "output": "0x00000000000000000000000000000000000000011cae8fe40ef5a9796b216391",
                    "revert": false,
                    "revertMessage": "",
                    "selector": "0x70a08231",
                    "status": true,
                    "value": "0"
                },
                "nodeType": 0
            },
            "21": {
                "invocation": {
                    "address": "0xc02aaa39b223fe8d0a0e5c4f27ead9083c756cc2",
                    "callData": "0x000000000000000000000000421a5671306cb5f66ff580573c1c8d536e266c93",
                    "decodedMethod": {
                        "callParams": [
                            {
                                "name": "",
                                "type": "address",
                                "value": "0x421a5671306cb5f66ff580573c1c8d536e266c93"
                            }
                        ],
                        "constructorArguments": "",
                        "name": "balanceOf",
                        "returnParams": [
                            {
                                "decimalAvailable": true,
                                "name": "",
                                "type": "uint256",
                                "value": "1"
                            }
                        ],
                        "signature": "balanceOf(address)"
                    },
                    "errorInfo": "",
                    "fromAddress": "0x421a5671306cb5f66ff580573c1c8d536e266c93",
                    "gasUsed": 534,
                    "id": 21,
                    "methodDecoded": true,
                    "operation": "STATICCALL",
                    "output": "0x0000000000000000000000000000000000000000000000000000000000000001",
                    "revert": false,
                    "revertMessage": "",
                    "selector": "0x70a08231",
                    "status": true,
                    "value": "0"
                },
                "nodeType": 0
            },
            "22": {
                "event": {
                    "contract": "0x421a5671306cb5f66ff580573c1c8d536e266c93",
                    "decodedLog": {
                        "name": "Sync",
                        "params": [
                            {
                                "name": "reserve0",
                                "type": "uint112",
                                "value": "88,104,775,387,217,598,184,058,610,577"
                            },
                            {
                                "name": "reserve1",
                                "type": "uint112",
                                "value": "1"
                            }
                        ],
                        "signature": "Sync(uint112,uint112)"
                    },
                    "id": 22,
                    "logData": "0x00000000000000000000000000000000000000011cae8fe40ef5a9796b2163910000000000000000000000000000000000000000000000000000000000000001",
                    "logDecoded": true,
                    "operation": "EVENT",
                    "revert": false,
                    "status": true,
                    "topics": [
                        "0x1c411e9a96e071241c2f21f7726b17ae89e3cab4c78be50e062b03a9fffbbad1"
                    ]
                },
                "nodeType": 1
            },
            "23": {
                "event": {
                    "contract": "0x421a5671306cb5f66ff580573c1c8d536e266c93",
                    "decodedLog": {
                        "name": "Swap",
                        "params": [
                            {
                                "name": "sender",
                                "type": "address",
                                "value": "0xe9458215bef3aa61a039eb59ffc283bf82b81c84"
                            },
                            {
                                "name": "to",
                                "type": "address",
                                "value": "0xe9458215bef3aa61a039eb59ffc283bf82b81c84"
                            },
                            {
                                "name": "amount0In",
                                "type": "uint256",
                                "value": "88,104,775,387,217,598,184,058,610,576"
                            },
                            {
                                "name": "amount1In",
                                "type": "uint256",
                                "value": "0"
                            },
                            {
                                "name": "amount0Out",
                                "type": "uint256",
                                "value": "0"
                            },
                            {
                                "name": "amount1Out",
                                "type": "uint256",
                                "value": "1,136,449,063,099,364,001"
                            }
                        ],
                        "signature": "Swap(address,uint256,uint256,uint256,uint256,address)"
                    },
                    "id": 23,
                    "logData": "0x00000000000000000000000000000000000000011cae8fe40ef5a9796b216390000000000000000000000000000000000000000000000000000000000000000000000000000000000000000000000000000000000000000000000000000000000000000000000000000000000000000000000000000000000fc57a66d75cf2a1",
                    "logDecoded": true,
                    "operation": "EVENT",
                    "revert": false,
                    "status": true,
                    "topics": [
                        "0xd78ad95fa46c994b6551d0da85fc275fe613ce37657fb8d5e3d130840159d822",
                        "0x000000000000000000000000e9458215bef3aa61a039eb59ffc283bf82b81c84",
                        "0x000000000000000000000000e9458215bef3aa61a039eb59ffc283bf82b81c84"
                    ]
                },
                "nodeType": 1
            },
            "24": {
                "invocation": {
                    "address": "0xc02aaa39b223fe8d0a0e5c4f27ead9083c756cc2",
                    "callData": "0x000000000000000000000000e9458215bef3aa61a039eb59ffc283bf82b81c84",
                    "decodedMethod": {
                        "callParams": [
                            {
                                "name": "",
                                "type": "address",
                                "value": "0xe9458215bef3aa61a039eb59ffc283bf82b81c84"
                            }
                        ],
                        "constructorArguments": "",
                        "name": "balanceOf",
                        "returnParams": [
                            {
                                "decimalAvailable": true,
                                "name": "",
                                "type": "uint256",
                                "value": "1,136,449,063,099,364,001"
                            }
                        ],
                        "signature": "balanceOf(address)"
                    },
                    "errorInfo": "",
                    "fromAddress": "0xe9458215bef3aa61a039eb59ffc283bf82b81c84",
                    "gasUsed": 534,
                    "id": 24,
                    "methodDecoded": true,
                    "operation": "STATICCALL",
                    "output": "0x0000000000000000000000000000000000000000000000000fc57a66d75cf2a1",
                    "revert": false,
                    "revertMessage": "",
                    "selector": "0x70a08231",
                    "status": true,
                    "value": "0"
                },
                "nodeType": 0
            },
            "25": {
                "invocation": {
                    "address": "0xc02aaa39b223fe8d0a0e5c4f27ead9083c756cc2",
                    "callData": "0x000000000000000000000000e9458215bef3aa61a039eb59ffc283bf82b81c84",
                    "decodedMethod": {
                        "callParams": [
                            {
                                "name": "",
                                "type": "address",
                                "value": "0xe9458215bef3aa61a039eb59ffc283bf82b81c84"
                            }
                        ],
                        "constructorArguments": "",
                        "name": "balanceOf",
                        "returnParams": [
                            {
                                "decimalAvailable": true,
                                "name": "",
                                "type": "uint256",
                                "value": "1,136,449,063,099,364,001"
                            }
                        ],
                        "signature": "balanceOf(address)"
                    },
                    "errorInfo": "",
                    "fromAddress": "0xe9458215bef3aa61a039eb59ffc283bf82b81c84",
                    "gasUsed": 534,
                    "id": 25,
                    "methodDecoded": true,
                    "operation": "STATICCALL",
                    "output": "0x0000000000000000000000000000000000000000000000000fc57a66d75cf2a1",
                    "revert": false,
                    "revertMessage": "",
                    "selector": "0x70a08231",
                    "status": true,
                    "value": "0"
                },
                "nodeType": 0
            },
            "3": {
                "event": {
                    "contract": "0x6feac5f3792065b21f85bc118d891b33e0673bd8",
                    "decodedLog": {
                        "name": "Transfer",
                        "params": [
                            {
                                "name": "from",
                                "type": "address",
                                "value": "0x421a5671306cb5f66ff580573c1c8d536e266c93"
                            },
                            {
                                "name": "to",
                                "type": "address",
                                "value": "0xe9458215bef3aa61a039eb59ffc283bf82b81c84"
                            },
                            {
                                "decimalAvailable": true,
                                "name": "value",
                                "type": "uint256",
                                "value": "88,104,775,387,217,598,184,058,610,576"
                            }
                        ],
                        "signature": "Transfer(address,address,uint256)"
                    },
                    "id": 3,
                    "logData": "0x00000000000000000000000000000000000000011cae8fe40ef5a9796b216390",
                    "logDecoded": true,
                    "operation": "EVENT",
                    "revert": false,
                    "status": true,
                    "topics": [
                        "0xddf252ad1be2c89b69c2b068fc378daa952ba7f163c4a11628f55a4df523b3ef",
                        "0x000000000000000000000000421a5671306cb5f66ff580573c1c8d536e266c93",
                        "0x000000000000000000000000e9458215bef3aa61a039eb59ffc283bf82b81c84"
                    ]
                },
                "nodeType": 1
            },
            "4": {
                "invocation": {
                    "address": "0x421a5671306cb5f66ff580573c1c8d536e266c93",
                    "callData": "0x",
                    "decodedMethod": {
                        "callParams": [],
                        "constructorArguments": "",
                        "name": "sync",
                        "returnParams": [],
                        "signature": "sync()"
                    },
                    "errorInfo": "",
                    "fromAddress": "0xe9458215bef3aa61a039eb59ffc283bf82b81c84",
                    "gasUsed": 33237,
                    "id": 4,
                    "methodDecoded": true,
                    "operation": "CALL",
                    "output": "",
                    "revert": false,
                    "revertMessage": "",
                    "selector": "0xfff6cae9",
                    "status": true,
                    "value": "0"
                },
                "nodeType": 0
            },
            "5": {
                "invocation": {
                    "address": "0x6feac5f3792065b21f85bc118d891b33e0673bd8",
                    "callData": "0x000000000000000000000000421a5671306cb5f66ff580573c1c8d536e266c93",
                    "decodedMethod": {
                        "callParams": [
                            {
                                "name": "account",
                                "type": "address",
                                "value": "0x421a5671306cb5f66ff580573c1c8d536e266c93"
                            }
                        ],
                        "constructorArguments": "",
                        "name": "balanceOf",
                        "returnParams": [
                            {
                                "decimalAvailable": true,
                                "name": "",
                                "type": "uint256",
                                "value": "1"
                            }
                        ],
                        "signature": "balanceOf(address)"
                    },
                    "errorInfo": "",
                    "fromAddress": "0x421a5671306cb5f66ff580573c1c8d536e266c93",
                    "gasUsed": 469,
                    "id": 5,
                    "methodDecoded": true,
                    "operation": "STATICCALL",
                    "output": "0x0000000000000000000000000000000000000000000000000000000000000001",
                    "revert": false,
                    "revertMessage": "",
                    "selector": "0x70a08231",
                    "status": true,
                    "value": "0"
                },
                "nodeType": 0
            },
            "6": {
                "invocation": {
                    "address": "0xc02aaa39b223fe8d0a0e5c4f27ead9083c756cc2",
                    "callData": "0x000000000000000000000000421a5671306cb5f66ff580573c1c8d536e266c93",
                    "decodedMethod": {
                        "callParams": [
                            {
                                "name": "",
                                "type": "address",
                                "value": "0x421a5671306cb5f66ff580573c1c8d536e266c93"
                            }
                        ],
                        "constructorArguments": "",
                        "name": "balanceOf",
                        "returnParams": [
                            {
                                "decimalAvailable": true,
                                "name": "",
                                "type": "uint256",
                                "value": "1,136,449,063,099,364,002"
                            }
                        ],
                        "signature": "balanceOf(address)"
                    },
                    "errorInfo": "",
                    "fromAddress": "0x421a5671306cb5f66ff580573c1c8d536e266c93",
                    "gasUsed": 2534,
                    "id": 6,
                    "methodDecoded": true,
                    "operation": "STATICCALL",
                    "output": "0x0000000000000000000000000000000000000000000000000fc57a66d75cf2a2",
                    "revert": false,
                    "revertMessage": "",
                    "selector": "0x70a08231",
                    "status": true,
                    "value": "0"
                },
                "nodeType": 0
            },
            "7": {
                "event": {
                    "contract": "0x421a5671306cb5f66ff580573c1c8d536e266c93",
                    "decodedLog": {
                        "name": "Sync",
                        "params": [
                            {
                                "name": "reserve0",
                                "type": "uint112",
                                "value": "1"
                            },
                            {
                                "name": "reserve1",
                                "type": "uint112",
                                "value": "1,136,449,063,099,364,002"
                            }
                        ],
                        "signature": "Sync(uint112,uint112)"
                    },
                    "id": 7,
                    "logData": "0x00000000000000000000000000000000000000000000000000000000000000010000000000000000000000000000000000000000000000000fc57a66d75cf2a2",
                    "logDecoded": true,
                    "operation": "EVENT",
                    "revert": false,
                    "status": true,
                    "topics": [
                        "0x1c411e9a96e071241c2f21f7726b17ae89e3cab4c78be50e062b03a9fffbbad1"
                    ]
                },
                "nodeType": 1
            },
            "8": {
                "invocation": {
                    "address": "0x6feac5f3792065b21f85bc118d891b33e0673bd8",
                    "callData": "0x000000000000000000000000421a5671306cb5f66ff580573c1c8d536e266c93",
                    "decodedMethod": {
                        "callParams": [
                            {
                                "name": "account",
                                "type": "address",
                                "value": "0x421a5671306cb5f66ff580573c1c8d536e266c93"
                            }
                        ],
                        "constructorArguments": "",
                        "name": "balanceOf",
                        "returnParams": [
                            {
                                "decimalAvailable": true,
                                "name": "",
                                "type": "uint256",
                                "value": "1"
                            }
                        ],
                        "signature": "balanceOf(address)"
                    },
                    "errorInfo": "",
                    "fromAddress": "0xe9458215bef3aa61a039eb59ffc283bf82b81c84",
                    "gasUsed": 469,
                    "id": 8,
                    "methodDecoded": true,
                    "operation": "STATICCALL",
                    "output": "0x0000000000000000000000000000000000000000000000000000000000000001",
                    "revert": false,
                    "revertMessage": "",
                    "selector": "0x70a08231",
                    "status": true,
                    "value": "0"
                },
                "nodeType": 0
            },
            "9": {
                "invocation": {
                    "address": "0x6feac5f3792065b21f85bc118d891b33e0673bd8",
                    "callData": "0x000000000000000000000000e9458215bef3aa61a039eb59ffc283bf82b81c84",
                    "decodedMethod": {
                        "callParams": [
                            {
                                "name": "account",
                                "type": "address",
                                "value": "0xe9458215bef3aa61a039eb59ffc283bf82b81c84"
                            }
                        ],
                        "constructorArguments": "",
                        "name": "balanceOf",
                        "returnParams": [
                            {
                                "decimalAvailable": true,
                                "name": "",
                                "type": "uint256",
                                "value": "88,104,775,387,217,598,184,058,610,576"
                            }
                        ],
                        "signature": "balanceOf(address)"
                    },
                    "errorInfo": "",
                    "fromAddress": "0xe9458215bef3aa61a039eb59ffc283bf82b81c84",
                    "gasUsed": 469,
                    "id": 9,
                    "methodDecoded": true,
                    "operation": "STATICCALL",
                    "output": "0x00000000000000000000000000000000000000011cae8fe40ef5a9796b216390",
                    "revert": false,
                    "revertMessage": "",
                    "selector": "0x70a08231",
                    "status": true,
                    "value": "0"
                },
                "nodeType": 0
            }
        },
        "gasFlame": [
            {
                "children": [
                    {
                        "children": [
                            {
                                "children": [],
                                "depth": 0,
                                "name": "Initial Gas",
                                "value": 22080
                            },
                            {
                                "children": [
                                    {
                                        "children": [],
                                        "depth": 1,
                                        "name": "balanceOf",
                                        "value": 2469
                                    },
                                    {
                                        "children": [],
                                        "depth": 1,
                                        "name": "_transfer",
                                        "value": 28433
                                    },
                                    {
                                        "children": [
                                            {
                                                "children": [],
                                                "depth": 2,
                                                "name": "balanceOf",
                                                "value": 469
                                            },
                                            {
                                                "children": [],
                                                "depth": 2,
                                                "name": "balanceOf",
                                                "value": 2534
                                            }
                                        ],
                                        "depth": 1,
                                        "name": "sync",
                                        "value": 33237
                                    },
                                    {
                                        "children": [],
                                        "depth": 1,
                                        "name": "balanceOf",
                                        "value": 469
                                    },
                                    {
                                        "children": [],
                                        "depth": 1,
                                        "name": "balanceOf",
                                        "value": 469
                                    },
                                    {
                                        "children": [
                                            {
                                                "children": [],
                                                "depth": 2,
                                                "name": "_transfer",
                                                "value": 3733
                                            }
                                        ],
                                        "depth": 1,
                                        "name": "transfer",
                                        "value": 4430
                                    },
                                    {
                                        "children": [],
                                        "depth": 1,
                                        "name": "balanceOf",
                                        "value": 469
                                    },
                                    {
                                        "children": [],
                                        "depth": 1,
                                        "name": "getReserves",
                                        "value": 504
                                    },
                                    {
                                        "children": [],
                                        "depth": 1,
                                        "name": "fallback",
                                        "value": 0
                                    },
                                    {
                                        "children": [],
                                        "depth": 1,
                                        "name": "getAmountOut",
                                        "value": 1021
                                    },
                                    {
                                        "children": [
                                            {
                                                "children": [],
                                                "depth": 2,
                                                "name": "transfer",
                                                "value": 27962
                                            },
                                            {
                                                "children": [],
                                                "depth": 2,
                                                "name": "balanceOf",
                                                "value": 469
                                            },
                                            {
                                                "children": [],
                                                "depth": 2,
                                                "name": "balanceOf",
                                                "value": 534
                                            }
                                        ],
                                        "depth": 1,
                                        "name": "swap",
                                        "value": 41072
                                    },
                                    {
                                        "children": [],
                                        "depth": 1,
                                        "name": "balanceOf",
                                        "value": 534
                                    },
                                    {
                                        "children": [],
                                        "depth": 1,
                                        "name": "balanceOf",
                                        "value": 534
                                    }
                                ],
                                "depth": 0,
                                "name": "Executed Gas",
                                "value": 181024
                            }
                        ],
                        "depth": -1,
                        "name": "Actual Gas Used",
                        "value": 174804
                    },
                    {
                        "children": [],
                        "depth": -1,
                        "name": "Refunded Gas",
                        "value": 28300
                    }
                ],
                "depth": -2,
                "name": "Total Gas",
                "value": 203104
            }
        ],
        "isConfirmed": true,
        "mainTrace": [
            {
                "children": [
                    {
                        "children": [
                            {
                                "children": [],
                                "depth": 1,
                                "id": 1,
                                "order": 1
                            },
                            {
                                "children": [
                                    {
                                        "children": [],
                                        "depth": 2,
                                        "id": 3,
                                        "order": 3
                                    }
                                ],
                                "depth": 1,
                                "id": 2,
                                "order": 2
                            },
                            {
                                "children": [
                                    {
                                        "children": [],
                                        "depth": 2,
                                        "id": 5,
                                        "order": 5
                                    },
                                    {
                                        "children": [],
                                        "depth": 2,
                                        "id": 6,
                                        "order": 6
                                    },
                                    {
                                        "children": [],
                                        "depth": 2,
                                        "id": 7,
                                        "order": 7
                                    }
                                ],
                                "depth": 1,
                                "id": 4,
                                "order": 4
                            },
                            {
                                "children": [],
                                "depth": 1,
                                "id": 8,
                                "order": 8
                            },
                            {
                                "children": [],
                                "depth": 1,
                                "id": 9,
                                "order": 9
                            },
                            {
                                "children": [
                                    {
                                        "children": [
                                            {
                                                "children": [],
                                                "depth": 3,
                                                "id": 12,
                                                "order": 12
                                            }
                                        ],
                                        "depth": 2,
                                        "id": 11,
                                        "order": 11
                                    }
                                ],
                                "depth": 1,
                                "id": 10,
                                "order": 10
                            },
                            {
                                "children": [],
                                "depth": 1,
                                "id": 13,
                                "order": 13
                            },
                            {
                                "children": [],
                                "depth": 1,
                                "id": 14,
                                "order": 14
                            },
                            {
                                "children": [],
                                "depth": 1,
                                "id": 15,
                                "order": 15
                            },
                            {
                                "children": [],
                                "depth": 1,
                                "id": 16,
                                "order": 16
                            },
                            {
                                "children": [
                                    {
                                        "children": [
                                            {
                                                "children": [],
                                                "depth": 3,
                                                "id": 19,
                                                "order": 19
                                            }
                                        ],
                                        "depth": 2,
                                        "id": 18,
                                        "order": 18
                                    },
                                    {
                                        "children": [],
                                        "depth": 2,
                                        "id": 20,
                                        "order": 20
                                    },
                                    {
                                        "children": [],
                                        "depth": 2,
                                        "id": 21,
                                        "order": 21
                                    },
                                    {
                                        "children": [],
                                        "depth": 2,
                                        "id": 22,
                                        "order": 22
                                    },
                                    {
                                        "children": [],
                                        "depth": 2,
                                        "id": 23,
                                        "order": 23
                                    }
                                ],
                                "depth": 1,
                                "id": 17,
                                "order": 17
                            },
                            {
                                "children": [],
                                "depth": 1,
                                "id": 24,
                                "order": 24
                            },
                            {
                                "children": [],
                                "depth": 1,
                                "id": 25,
                                "order": 25
                            }
                        ],
                        "depth": 0,
                        "id": 0,
                        "order": 0
                    }
                ],
                "depth": -1,
                "id": -1,
                "order": -1
            }
        ],
        "mainTraceNodeCount": 26,
        "parentIdMap": {
            "0": -1,
            "1": 0,
            "10": 0,
            "11": 10,
            "12": 11,
            "13": 0,
            "14": 0,
            "15": 0,
            "16": 0,
            "17": 0,
            "18": 17,
            "19": 18,
            "2": 0,
            "20": 17,
            "21": 17,
            "22": 17,
            "23": 17,
            "24": 0,
            "25": 0,
            "3": 2,
            "4": 0,
            "5": 4,
            "6": 4,
            "7": 4,
            "8": 0,
            "9": 0
        },
        "tidyTrace": [
            {
                "children": [
                    {
                        "children": [
                            {
                                "children": [
                                    {
                                        "children": [],
                                        "depth": 2,
                                        "id": 3,
                                        "order": 3
                                    }
                                ],
                                "depth": 1,
                                "id": 2,
                                "order": 2
                            },
                            {
                                "children": [
                                    {
                                        "children": [],
                                        "depth": 2,
                                        "id": 7,
                                        "order": 7
                                    }
                                ],
                                "depth": 1,
                                "id": 4,
                                "order": 4
                            },
                            {
                                "children": [
                                    {
                                        "children": [
                                            {
                                                "children": [],
                                                "depth": 3,
                                                "id": 12,
                                                "order": 12
                                            }
                                        ],
                                        "depth": 2,
                                        "id": 11,
                                        "order": 11
                                    }
                                ],
                                "depth": 1,
                                "id": 10,
                                "order": 10
                            },
                            {
                                "children": [],
                                "depth": 1,
                                "id": 15,
                                "order": 15
                            },
                            {
                                "children": [
                                    {
                                        "children": [
                                            {
                                                "children": [],
                                                "depth": 3,
                                                "id": 19,
                                                "order": 19
                                            }
                                        ],
                                        "depth": 2,
                                        "id": 18,
                                        "order": 18
                                    },
                                    {
                                        "children": [],
                                        "depth": 2,
                                        "id": 22,
                                        "order": 22
                                    },
                                    {
                                        "children": [],
                                        "depth": 2,
                                        "id": 23,
                                        "order": 23
                                    }
                                ],
                                "depth": 1,
                                "id": 17,
                                "order": 17
                            }
                        ],
                        "depth": 0,
                        "id": 0,
                        "order": 0
                    }
                ],
                "depth": -1,
                "id": -1,
                "order": -1
            }
        ],
        "tidyTraceNodeCount": 14
    },
    "state_change": {
        "stateChanges": [
            {
                "address": "0x421a5671306cb5f66ff580573c1c8d536e266c93",
                "erc": "ERC-20",
                "slots": [
                    {
                        "current": "0x64750943000000000000000000000000000100011cae8fe40ef5a9796b216391",
                        "key": "0x0000000000000000000000000000000000000000000000000000000000000008",
                        "prev": "0x6475053b0000000000000fc57a66d75cf2a200011cae8fe40ef5a9796b216391"
                    },
                    {
                        "current": "0x00000000000000000000000000000000000000000078937c06b10429951ed0b0",
                        "key": "0x0000000000000000000000000000000000000000000000000000000000000009",
                        "prev": "0x0000000000000000000000000000000000000000003f673a078855c8690421a0"
                    },
                    {
                        "current": "0x0000000000000000000000009eaf25d7cb016b35154a218e0ccf18f6c2ff5304",
                        "key": "0x000000000000000000000000000000000000000000000000000000000000000a",
                        "prev": "0x00000000000000000000000055eb040554d76b8a919a255456d1a55e27856bf4"
                    }
                ],
                "storageVariables": [
                    {
                        "name": "price0CumulativeLast",
                        "type": "uint256",
                        "value": {
                            "current": "145767574105173690542903472",
                            "prev": "76649800837391560959336864",
                            "typeTag": 1
                        }
                    },
                    {
                        "name": "price1CumulativeLast",
                        "type": "uint256",
                        "value": {
                            "current": "905926468785038516874206518286817505607006769924",
                            "prev": "490505240905010294310650643464297578060488993780",
                            "typeTag": 1
                        }
                    },
                    {
                        "name": "reserve0",
                        "type": "uint112",
                        "value": {
                            "current": "88104775387217598184058610577",
                            "prev": "88104775387217598184058610577",
                            "typeTag": 1
                        }
                    },
                    {
                        "name": "reserve1",
                        "type": "uint112",
                        "value": {
                            "current": "1",
                            "prev": "1136449063099364002",
                            "typeTag": 1
                        }
                    },
                    {
                        "name": "blockTimestampLast",
                        "type": "uint32",
                        "value": {
                            "current": "1685391683",
                            "prev": "1685390651",
                            "typeTag": 1
                        }
                    }
                ]
            },
            {
                "address": "0xc02aaa39b223fe8d0a0e5c4f27ead9083c756cc2",
                "erc": "ERC-20",
                "slots": [
                    {
                        "current": "0x0000000000000000000000000000000000000000000000000000000000000001",
                        "key": "0x686ed8e0e75e6588bd56fb46eabcfbe89731f104a018493f7d8493aa740b3e5a",
                        "prev": "0x0000000000000000000000000000000000000000000000000fc57a66d75cf2a2"
                    },
                    {
                        "current": "0x0000000000000000000000000000000000000000000000000fc57a66d75cf2a1",
                        "key": "0xefb533ddb37b60a58e68815ee0c3880029edc4544f27124eff928007af9cdee8",
                        "prev": "0x0000000000000000000000000000000000000000000000000000000000000000"
                    }
                ],
                "storageVariables": [
                    {
                        "name": "balanceOf",
                        "type": "mapping(address => uint256)",
                        "value": {
                            "pairs": [
                                {
                                    "key": "0x421a5671306cb5f66ff580573c1c8d536e266c93",
                                    "value": {
                                        "current": "1",
                                        "prev": "1136449063099364002",
                                        "typeTag": 1
                                    }
                                },
                                {
                                    "key": "0xe9458215bef3aa61a039eb59ffc283bf82b81c84",
                                    "value": {
                                        "current": "1136449063099364001",
                                        "prev": "0",
                                        "typeTag": 1
                                    }
                                }
                            ],
                            "typeTag": 4
                        }
                    }
                ]
            },
            {
                "address": "0xe9458215bef3aa61a039eb59ffc283bf82b81c84",
                "erc": "",
                "slots": [
                    {
                        "current": "0x00000000000000000000000156bf82a7067972c78526a5f528011374ceaf3065",
                        "key": "0x0000000000000000000000000000000000000000000000000000000000000002",
                        "prev": "0x00000000000000000000000056bf82a7067972c78526a5f528011374ceaf3065"
                    }
                ],
                "storageVariables": []
            }
        ]
    }
}