{
    "balance_change": {
        "balanceChanges": [
            {
                "account": "0x0000000000000000000000000000000000000000",
                "assets": [
                    {
                        "address": "0xb84cbaf116eb90fd445dd5aeadfab3e807d2cbac",
                        "amount": "1",
                        "iconUrl": "",
                        "isERC1155": false,
                        "isERC721": true,
                        "sign": false,
                        "tokenID": "100",
                        "value": ""
                    }
                ]
            },
            {
                "account": "0x05ec1bf1572a5d71a475b387335b670480c5aca9",
                "assets": [
                    {
                        "address": "0xb84cbaf116eb90fd445dd5aeadfab3e807d2cbac",
                        "amount": "1",
                        "iconUrl": "",
                        "isERC1155": false,
                        "isERC721": true,
                        "sign": true,
                        "tokenID": "100",
                        "value": ""
                    }
                ]
            }
        ]
    },
    "profile": {
        "basic_info": {
            "baseFee": "23.919070566",
            "blockNumber": 15453778,
            "callData": "0xfb4a9be00000000000000000000000000000000000000000000000000000000000000040000000000000000000000000000000000000000000000000000000000000000100000000000000000000000000000000000000000000000000000000000000086f29d60724f47376e568902a87b9517727f677218831bdba9b339ece927287f5abdac075ff053fa2a35d8420e1fa4de6fe34b153ab629453c3be5b39d84f231bbbb4c47b41a95ce9853b5fc2a31dc69eb7e50e6e7eda38e290e4be306f026a8fd18e2836b15faa2273aee657aea974061aaa3fb63238cefc11005753968435cc7c0a712c7bf1ee7eb24224b29e80c55b29bd5b594080449499aee1146a7b63b2302d1d99926c14b1bbeef23742276cf9e431580983b89aea4b9545f7663926d457b8ada9fca20305b1ec412f61259fd521400dd2491c4ae2371e51de94337221fdaef982e8b74a0ca264835e05b1c053fb03fb6e9b00f54b756e66720d115575",
            "debugEnable": true,
            "errorInfo": "",
            "eventCount": 1,
            "feeRecipient": "0x1ad91ee08f21be3de0ba2ba6918e714da6b45836",
            "formatValue": "0",
            "gasLimit": 139509,
            "gasPrice": "26.419070566",
            "gasUsed": 93006,
            "intTxnCount": 0,
            "internalRevert": false,
            "internalRevertMessage": "",
            "isContractCreation": false,
            "isFlashloan": false,
            "maxFee": "60.265876012",
            "nonce": 33,
            "overwritedBlockNumber": -1,
            "priorityFee": "2.5",
            "receiver": "0xb84cbaf116eb90fd445dd5aeadfab3e807d2cbac",
            "revertMessage": "",
            "sender": "0x05ec1bf1572a5d71a475b387335b670480c5aca9",
            "simulationEnable": true,
            "sourceTxnHash": "0x27e64a8215ae1528245c912bcca09883fdd7cce69249bd5d5d1c0eecf5297b96",
            "status": true,
            "timestamp": "2022-09-01T15:59:11Z",
            "transactionFee": "0.002457132077061396",
            "txnHash": "0x27e64a8215ae1528245c912bcca09883fdd7cce69249bd5d5d1c0eecf5297b96",
            "txnIndex": 333,
            "type": 2,
            "value": "0"
        },
        "fund_flow": [
            {
                "amount": "1",
                "from": "0x0000000000000000000000000000000000000000",
                "id": 1,
                "isERC1155": false,
                "isERC721": true,
                "isReverted": false,
                "order": 1,
                "to": "0x05ec1bf1572a5d71a475b387335b670480c5aca9",
                "token": "0xb84cbaf116eb90fd445dd5aeadfab3e807d2cbac",
                "tokenID": "100"
            }
        ],
        "token_infos": [
            {
                "address": "0xc02aaa39b223fe8d0a0e5c4f27ead9083c756cc2",
                "decimals": 18
            },
            {
                "address": "0xeeeeeeeeeeeeeeeeeeeeeeeeeeeeeeeeeeeeeeee",
                "decimals": 18
            }
        ]
    },
    "address_label": {
        "labels": [
            {
                "address": "0xeeeeeeeeeeeeeeeeeeeeeeeeeeeeeeeeeeeeeeee",
                "label": "Ether"
            },
            {
                "address": "0xb84cbaf116eb90fd445dd5aeadfab3e807d2cbac",
                "label": "Bad Guys by RPF (BGRPF)"
            },
            {
                "address": "0x0000000000000000000000000000000000000001",
                "label": "Precompiled"
            },
            {
                "address": "0x0000000000000000000000000000000000000002",
                "label": "Precompiled"
            },
            {
                "address": "0x0000000000000000000000000000000000000003",
                "label": "Precompiled"
            },
            {
                "address": "0x0000000000000000000000000000000000000004",
                "label": "Precompiled"
            }
        ]
    },
    "trace": {
        "accountLabels": null,
        "dataMap": {
            "-1": {
                "invocation": {
                    "address": "0x05ec1bf1572a5d71a475b387335b670480c5aca9",
                    "callData": "",
                    "decodedMethod": null,
                    "errorInfo": "",
                    "fromAddress": "",
                    "gasUsed": 0,
                    "id": -1,
                    "methodDecoded": false,
                    "operation": "",
                    "output": "",
                    "revert": false,
                    "revertMessage": "",
                    "selector": "",
                    "status": false,
                    "value": ""
                },
                "nodeType": 0
            },
            "0": {
                "invocation": {
                    "address": "0xb84cbaf116eb90fd445dd5aeadfab3e807d2cbac",
                    "callData": "0x0000000000000000000000000000000000000000000000000000000000000040000000000000000000000000000000000000000000000000000000000000000100000000000000000000000000000000000000000000000000000000000000086f29d60724f47376e568902a87b9517727f677218831bdba9b339ece927287f5abdac075ff053fa2a35d8420e1fa4de6fe34b153ab629453c3be5b39d84f231bbbb4c47b41a95ce9853b5fc2a31dc69eb7e50e6e7eda38e290e4be306f026a8fd18e2836b15faa2273aee657aea974061aaa3fb63238cefc11005753968435cc7c0a712c7bf1ee7eb24224b29e80c55b29bd5b594080449499aee1146a7b63b2302d1d99926c14b1bbeef23742276cf9e431580983b89aea4b9545f7663926d457b8ada9fca20305b1ec412f61259fd521400dd2491c4ae2371e51de94337221fdaef982e8b74a0ca264835e05b1c053fb03fb6e9b00f54b756e66720d115575",
                    "decodedMethod": {
                        "callParams": [
                            {
                                "name": "_merkleProof",
                                "type": "bytes32[]",
                                "value": [
                                    "0x6f29d60724f47376e568902a87b9517727f677218831bdba9b339ece927287f5",
                                    "0xabdac075ff053fa2a35d8420e1fa4de6fe34b153ab629453c3be5b39d84f231b",
                                    "0xbbb4c47b41a95ce9853b5fc2a31dc69eb7e50e6e7eda38e290e4be306f026a8f",
                                    "0xd18e2836b15faa2273aee657aea974061aaa3fb63238cefc11005753968435cc",
                                    "0x7c0a712c7bf1ee7eb24224b29e80c55b29bd5b594080449499aee1146a7b63b2",
                                    "0x302d1d99926c14b1bbeef23742276cf9e431580983b89aea4b9545f7663926d4",
                                    "0x57b8ada9fca20305b1ec412f61259fd521400dd2491c4ae2371e51de94337221",
                                    "0xfdaef982e8b74a0ca264835e05b1c053fb03fb6e9b00f54b756e66720d115575"
                                ]
                            },
                            {
                                "name": "chosenAmount",
                                "type": "uint256",
                                "value": "1"
                            }
                        ],
                        "constructorArguments": "",
                        "name": "WhiteListMint",
                        "returnParams": [],
                        "signature": "WhiteListMint(bytes32[],uint256)"
                    },
                    "errorInfo": "",
                    "fromAddress": "0x05ec1bf1572a5d71a475b387335b670480c5aca9",
                    "gasUsed": 93006,
                    "id": 0,
                    "methodDecoded": true,
                    "operation": "CALL",
                    "output": "",
                    "revert": false,
                    "revertMessage": "",
                    "selector": "0xfb4a9be0",
                    "status": true,
                    "value": "0"
                },
                "nodeType": 0
            },
            "1": {
                "event": {
                    "contract": "0xb84cbaf116eb90fd445dd5aeadfab3e807d2cbac",
                    "decodedLog": {
                        "name": "Transfer",
                        "params": [
                            {
                                "name": "from",
                                "type": "address",
                                "value": "0x0000000000000000000000000000000000000000"
                            },
                            {
                                "name": "to",
                                "type": "address",
                                "value": "0x05ec1bf1572a5d71a475b387335b670480c5aca9"
                            },
                            {
                                "decimalAvailable": true,
                                "name": "tokenId",
                                "type": "uint256",
                                "value": "100"
                            }
                        ],
                        "signature": "Transfer(address,address,uint256)"
                    },
                    "id": 1,
                    "logData": "0x",
                    "logDecoded": true,
                    "operation": "EVENT",
                    "revert": false,
                    "status": true,
                    "topics": [
                        "0xddf252ad1be2c89b69c2b068fc378daa952ba7f163c4a11628f55a4df523b3ef",
                        "0x0000000000000000000000000000000000000000000000000000000000000000",
                        "0x00000000000000000000000005ec1bf1572a5d71a475b387335b670480c5aca9",
                        "0x0000000000000000000000000000000000000000000000000000000000000064"
                    ]
                },
                "nodeType": 1
            }
        },
        "gasFlame": [
            {
                "children": [
                    {
                        "children": [
                            {
                                "children": [],
                                "depth": 0,
                                "name": "Initial Gas",
                                "value": 25556
                            },
                            {
                                "children": [],
                                "depth": 0,
                                "name": "Executed Gas",
                                "value": 67450
                            }
                        ],
                        "depth": -1,
                        "name": "Actual Gas Used",
                        "value": 93006
                    },
                    {
                        "children": [],
                        "depth": -1,
                        "name": "Refunded Gas",
                        "value": 0
                    }
                ],
                "depth": -2,
                "name": "Total Gas",
                "value": 93006
            }
        ],
        "isConfirmed": true,
        "mainTrace": [
            {
                "children": [
                    {
                        "children": [
                            {
                                "children": [],
                                "depth": 1,
                                "id": 1,
                                "order": 1
                            }
                        ],
                        "depth": 0,
                        "id": 0,
                        "order": 0
                    }
                ],
                "depth": -1,
                "id": -1,
                "order": -1
            }
        ],
        "mainTraceNodeCount": 2,
        "parentIdMap": {
            "0": -1,
            "1": 0
        },
        "tidyTrace": [
            {
                "children": [
                    {
                        "children": [
                            {
                                "children": [],
                                "depth": 1,
                                "id": 1,
                                "order": 1
                            }
                        ],
                        "depth": 0,
                        "id": 0,
                        "order": 0
                    }
                ],
                "depth": -1,
                "id": -1,
                "order": -1
            }
        ],
        "tidyTraceNodeCount": 2
    },
    "state_change": {
        "stateChanges": [
            {
                "address": "0xb84cbaf116eb90fd445dd5aeadfab3e807d2cbac",
                "erc": "ERC-721",
                "slots": [
                    {
                        "current": "0x0000000000000000000000000000000100000000000000000000000000000001",
                        "key": "0xd9f703f341a68bab44b0c69bbe2ecb0b64d96e6f240d81684f1088e3afc94be3",
                        "prev": "0x0000000000000000000000000000000000000000000000000000000000000000"
                    },
                    {
                        "current": "0x00000000000000006310d6cf05ec1bf1572a5d71a475b387335b670480c5aca9",
                        "key": "0x6b16ef514f22b74729cbea5cc7babfecbdc2309e530ca716643d11fe929eed2e",
                        "prev": "0x0000000000000000000000000000000000000000000000000000000000000000"
                    },
                    {
                        "current": "0x0000000000000000000000000000000000000000000000000000000000000065",
                        "key": "0x0000000000000000000000000000000000000000000000000000000000000000",
                        "prev": "0x0000000000000000000000000000000000000000000000000000000000000064"
                    }
                ],
                "storageVariables": [
                    {
                        "name": "_ownerships",
                        "type": "mapping(uint256 => struct ERC721A.TokenOwnership)",
                        "value": {
                            "pairs": [
                                {
                                    "key": "100",
                                    "value": {
                                        "fields": [
                                            {
                                                "name": "addr",
                                                "type": "address",
                                                "value": {
                                                    "current": "0x05ec1bf1572a5d71a475b387335b670480c5aca9",
                                                    "prev": "0x0000000000000000000000000000000000000000",
                                                    "typeTag": 1
                                                }
                                            },
                                            {
                                                "name": "startTimestamp",
                                                "type": "uint64",
                                                "value": {
                                                    "current": "1662047951",
                                                    "prev": "0",
                                                    "typeTag": 1
                                                }
                                            }
                                        ],
                                        "typeTag": 3
                                    }
                                }
                            ],
                            "typeTag": 4
                        }
                    },
                    {
                        "name": "_currentIndex",
                        "type": "uint256",
                        "value": {
                            "current": "101",
                            "prev": "100",
                            "typeTag": 1
                        }
                    },
                    {
                        "name": "_addressData",
                        "type": "mapping(address => struct ERC721A.AddressData)",
                        "value": {
                            "pairs": [
                                {
                                    "key": "0x05ec1bf1572a5d71a475b387335b670480c5aca9",
                                    "value": {
                                        "fields": [
                                            {
                                                "name": "balance",
                                                "type": "uint128",
                                                "value": {
                                                    "current": "1",
                                                    "prev": "0",
                                                    "typeTag": 1
                                                }
                                            },
                                            {
                                                "name": "numberMinted",
                                                "type": "uint128",
                                                "value": {
                                                    "current": "1",
                                                    "prev": "0",
                                                    "typeTag": 1
                                                }
                                            }
                                        ],
                                        "typeTag": 3
                                    }
                                }
                            ],
                            "typeTag": 4
                        }
                    }
                ]
            }
        ]
    }
}