{
    "balance_change": {
        "balanceChanges": []
    },
    "profile": {
        "basic_info": {
            "baseFee": "4.91353181",
            "blockNumber": 15414652,
            "callData": "0x706bc66b000000000000000000000000a0b86991c6218b36c1d19d4a2e9eb0ce3606eb48",
            "debugEnable": true,
            "errorInfo": "",
            "eventCount": 0,
            "feeRecipient": "0xea674fdde714fd979de3edf0f56aa9716b898ec8",
            "formatValue": "0",
            "gasLimit": 110643,
            "gasPrice": "5.91353181",
            "gasUsed": 73762,
            "intTxnCount": 0,
            "internalRevert": false,
            "internalRevertMessage": "",
            "isContractCreation": false,
            "isFlashloan": false,
            "maxFee": "9.140625236",
            "nonce": 71,
            "overwritedBlockNumber": -1,
            "priorityFee": "1",
            "receiver": "0x3335a88bb18fd3b6824b59af62b50ce494143333",
            "revertMessage": "",
            "sender": "0x8f53a5bde40f809958f5a0a568b7d65a4eb07349",
            "simulationEnable": true,
            "sourceTxnHash": "0x30679e7b6b410fb78368f5fb6e4c203e44d81c66ae9014c797e40856be1bbe66",
            "status": true,
            "timestamp": "2022-08-26T09:46:54Z",
            "transactionFee": "0.00043619393336922",
            "txnHash": "0x30679e7b6b410fb78368f5fb6e4c203e44d81c66ae9014c797e40856be1bbe66",
            "txnIndex": 137,
            "type": 2,
            "value": "0"
        },
        "fund_flow": [],
        "token_infos": [
            {
                "address": "0xc02aaa39b223fe8d0a0e5c4f27ead9083c756cc2",
                "decimals": 18
            },
            {
                "address": "0xeeeeeeeeeeeeeeeeeeeeeeeeeeeeeeeeeeeeeeee",
                "decimals": 18
            }
        ]
    },
    "address_label": {
        "labels": [
            {
                "address": "0x0000000000000000000000000000000000000004",
                "label": "Precompiled"
            },
            {
                "address": "0xeeeeeeeeeeeeeeeeeeeeeeeeeeeeeeeeeeeeeeee",
                "label": "Ether"
            },
            {
                "address": "0x3335a88bb18fd3b6824b59af62b50ce494143333",
                "label": "RubicProxy"
            },
            {
                "address": "0xa0b86991c6218b36c1d19d4a2e9eb0ce3606eb48",
                "label": "Circle: USDC Token"
            },
            {
                "address": "0x0000000000000000000000000000000000000001",
                "label": "Precompiled"
            },
            {
                "address": "0x0000000000000000000000000000000000000002",
                "label": "Precompiled"
            },
            {
                "address": "0x0000000000000000000000000000000000000003",
                "label": "Precompiled"
            }
        ]
    },
    "trace": {
        "accountLabels": null,
        "dataMap": {
            "-1": {
                "invocation": {
                    "address": "0x8f53a5bde40f809958f5a0a568b7d65a4eb07349",
                    "callData": "",
                    "decodedMethod": null,
                    "errorInfo": "",
                    "fromAddress": "",
                    "gasUsed": 0,
                    "id": -1,
                    "methodDecoded": false,
                    "operation": "",
                    "output": "",
                    "revert": false,
                    "revertMessage": "",
                    "selector": "",
                    "status": false,
                    "value": ""
                },
                "nodeType": 0
            },
            "0": {
                "invocation": {
                    "address": "0x3335a88bb18fd3b6824b59af62b50ce494143333",
                    "callData": "0x000000000000000000000000a0b86991c6218b36c1d19d4a2e9eb0ce3606eb48",
                    "decodedMethod": {
                        "callParams": [
                            {
                                "name": "_router",
                                "type": "address",
                                "value": "0xa0b86991c6218b36c1d19d4a2e9eb0ce3606eb48"
                            }
                        ],
                        "constructorArguments": "",
                        "name": "addAvailableRouter",
                        "returnParams": [],
                        "signature": "addAvailableRouter(address)"
                    },
                    "errorInfo": "",
                    "fromAddress": "0x8f53a5bde40f809958f5a0a568b7d65a4eb07349",
                    "gasUsed": 73762,
                    "id": 0,
                    "methodDecoded": true,
                    "operation": "CALL",
                    "output": "",
                    "revert": false,
                    "revertMessage": "",
                    "selector": "0x706bc66b",
                    "status": true,
                    "value": "0"
                },
                "nodeType": 0
            }
        },
        "gasFlame": [
            {
                "children": [
                    {
                        "children": [
                            {
                                "children": [],
                                "depth": 0,
                                "name": "Initial Gas",
                                "value": 21432
                            },
                            {
                                "children": [],
                                "depth": 0,
                                "name": "Executed Gas",
                                "value": 52330
                            }
                        ],
                        "depth": -1,
                        "name": "Actual Gas Used",
                        "value": 73762
                    },
                    {
                        "children": [],
                        "depth": -1,
                        "name": "Refunded Gas",
                        "value": 0
                    }
                ],
                "depth": -2,
                "name": "Total Gas",
                "value": 73762
            }
        ],
        "isConfirmed": true,
        "mainTrace": [
            {
                "children": [
                    {
                        "children": [],
                        "depth": 0,
                        "id": 0,
                        "order": 0
                    }
                ],
                "depth": -1,
                "id": -1,
                "order": -1
            }
        ],
        "mainTraceNodeCount": 1,
        "parentIdMap": {
            "0": -1
        },
        "tidyTrace": [
            {
                "children": [
                    {
                        "children": [],
                        "depth": 0,
                        "id": 0,
                        "order": 0
                    }
                ],
                "depth": -1,
                "id": -1,
                "order": -1
            }
        ],
        "tidyTraceNodeCount": 1
    },
    "state_change": {
        "stateChanges": [
            {
                "address": "0x3335a88bb18fd3b6824b59af62b50ce494143333",
                "erc": "",
                "slots": [
                    {
                        "current": "0x000000000000000000000000000000000000000000000000000000000000000b",
                        "key": "0x0000000000000000000000000000000000000000000000000000000000000104",
                        "prev": "0x000000000000000000000000000000000000000000000000000000000000000a"
                    },
                    {
                        "current": "0x000000000000000000000000a0b86991c6218b36c1d19d4a2e9eb0ce3606eb48",
                        "key": "0x4c0be60200faa20559308cb7b5a1bb3255c16cb1cab91f525b5ae7a03d02fac8",
                        "prev": "0x0000000000000000000000000000000000000000000000000000000000000000"
                    },
                    {
                        "current": "0x000000000000000000000000000000000000000000000000000000000000000b",
                        "key": "0xc4e04b6bef9db26f5e5f05c0ed33f46432d34efaf8f5a2a0c394786799ae67d2",
                        "prev": "0x0000000000000000000000000000000000000000000000000000000000000000"
                    }
                ],
                "storageVariables": [
                    {
                        "name": "availableRouters",
                        "type": "struct EnumerableSetUpgradeable.AddressSet",
                        "value": {
                            "fields": [
                                {
                                    "name": "_inner",
                                    "type": "struct EnumerableSetUpgradeable.Set",
                                    "value": {
                                        "fields": [
                                            {
                                                "name": "_values",
                                                "type": "bytes32[]",
                                                "value": {
                                                    "elemType": "bytes32",
                                                    "elems": [
                                                        {
                                                            "index": 10,
                                                            "value": {
                                                                "current": "0x000000000000000000000000a0b86991c6218b36c1d19d4a2e9eb0ce3606eb48",
                                                                "prev": "0x0000000000000000000000000000000000000000000000000000000000000000",
                                                                "typeTag": 1
                                                            }
                                                        }
                                                    ],
                                                    "typeTag": 2
                                                }
                                            },
                                            {
                                                "name": "_indexes",
                                                "type": "mapping(bytes32 => uint256)",
                                                "value": {
                                                    "pairs": [
                                                        {
                                                            "key": "0x000000000000000000000000a0b86991c6218b36c1d19d4a2e9eb0ce3606eb48",
                                                            "value": {
                                                                "current": "11",
                                                                "prev": "0",
                                                                "typeTag": 1
                                                            }
                                                        }
                                                    ],
                                                    "typeTag": 4
                                                }
                                            }
                                        ],
                                        "typeTag": 3
                                    }
                                }
                            ],
                            "typeTag": 3
                        }
                    }
                ]
            }
        ]
    }
}