{
    "balance_change": {
        "balanceChanges": [
            {
                "account": "0x2d85f5c295760b0afe0b271b94254a8c58b513c5",
                "assets": [
                    {
                        "address": "0xb1bbeea2da2905e6b0a30203aef55c399c53d042",
                        "amount": "8,792.873290680252648282",
                        "iconUrl": "",
                        "isERC1155": false,
                        "isERC721": false,
                        "sign": true,
                        "value": "439011.1911"
                    }
                ]
            },
            {
                "account": "0xb3fb1d01b07a706736ca175f827e4f56021b85de",
                "assets": [
                    {
                        "address": "0xb1bbeea2da2905e6b0a30203aef55c399c53d042",
                        "amount": "8,792.873290680252648282",
                        "iconUrl": "",
                        "isERC1155": false,
                        "isERC721": false,
                        "sign": false,
                        "value": "439011.1911"
                    }
                ]
            }
        ]
    },
    "profile": {
        "basic_info": {
            "baseFee": "13.592263771",
            "blockNumber": 14421984,
            "callData": "0x74a97af600000000000000000000000000000000000000000000000000000000000000800000000000000000000000003ad416233f87a8ed4778ef92237655cfa4ece41500000000000000000000000000000000000000000000000000000000000000c00000000000000000000000000000000000000000000000000000000000000260000000000000000000000000000000000000000000000000000000000000000000000000000000000000000000000000000000000000000000000000000000000000000000000000000000000000000000000000000000000000000000000163a97af60000000000000000000000000000000000000000000000000000000000000080000000000000000000000000a4aafee01a8bd3808fb9dfd6352d5015fe42720e00000000000000000000000000000000000000000000000000000000000000c000000000000000000000000000000000000000000000000000000000000001200000000000000000000000000000000000000000000000000000000000000000000000000000000000000000000000000000000000000000000000000000000000000000000000000000000000000000000000000000000000000000000000214d0000000000000000000000000000000000000000000001dca9a1373c007e4b5a0000000000000000000000000000000000000000000000000000000000000000000000000000000000000000000000000000000000000000000000000000032e1a7d0000000000000000000000000000000000000000000000000000000000000000000000000000000000000000000000000000000000000000000000000000000000000000000000000000000000000000000000000000000000017400000000000000000000000000000000000000000000000000000000000000",
            "debugEnable": true,
            "errorInfo": "",
            "eventCount": 2,
            "feeRecipient": "0x00192fb10df37c9fb26829eb2cc623cd1bf599e8",
            "formatValue": "0",
            "gasLimit": 3364150,
            "gasPrice": "15.092263771",
            "gasUsed": 140841,
            "intTxnCount": 3,
            "internalRevert": false,
            "internalRevertMessage": "",
            "isContractCreation": false,
            "isFlashloan": false,
            "maxFee": "16.68562146",
            "nonce": 3,
            "overwritedBlockNumber": -1,
            "priorityFee": "1.5",
            "receiver": "0x89767960b76b009416bc7ff4a4b79051eed0a9ee",
            "revertMessage": "",
            "sender": "0x1751e3e1aaf1a3e7b973c889b7531f43fc59f7d0",
            "simulationEnable": true,
            "sourceTxnHash": "0x33479bcfbc792aa0f8103ab0d7a3784788b5b0e1467c81ffbed1b7682660b4fa",
            "status": true,
            "timestamp": "2022-03-20T07:48:54Z",
            "transactionFee": "0.002125609521771411",
            "txnHash": "0x33479bcfbc792aa0f8103ab0d7a3784788b5b0e1467c81ffbed1b7682660b4fa",
            "txnIndex": 77,
            "type": 2,
            "value": "0"
        },
        "fund_flow": [
            {
                "amount": "8,792.873290680252648282",
                "from": "0xb3fb1d01b07a706736ca175f827e4f56021b85de",
                "id": 1,
                "isERC1155": false,
                "isERC721": false,
                "isReverted": false,
                "order": 1,
                "to": "0x2d85f5c295760b0afe0b271b94254a8c58b513c5",
                "token": "0xb1bbeea2da2905e6b0a30203aef55c399c53d042"
            }
        ],
        "token_infos": [
            {
                "address": "0xb1bbeea2da2905e6b0a30203aef55c399c53d042",
                "decimals": 18
            },
            {
                "address": "0xc02aaa39b223fe8d0a0e5c4f27ead9083c756cc2",
                "decimals": 18
            },
            {
                "address": "0xeeeeeeeeeeeeeeeeeeeeeeeeeeeeeeeeeeeeeeee",
                "decimals": 18
            }
        ]
    },
    "address_label": {
        "labels": [
            {
                "address": "0xeeeeeeeeeeeeeeeeeeeeeeeeeeeeeeeeeeeeeeee",
                "label": "Ether"
            },
            {
                "address": "0xb1bbeea2da2905e6b0a30203aef55c399c53d042",
                "label": "Uniswap V2: UMB 4"
            },
            {
                "address": "0xb3fb1d01b07a706736ca175f827e4f56021b85de",
                "label": "StakingRewards"
            },
            {
                "address": "0x0000000000000000000000000000000000000001",
                "label": "Precompiled"
            },
            {
                "address": "0x0000000000000000000000000000000000000002",
                "label": "Precompiled"
            },
            {
                "address": "0x0000000000000000000000000000000000000003",
                "label": "Precompiled"
            },
            {
                "address": "0x0000000000000000000000000000000000000004",
                "label": "Precompiled"
            }
        ]
    },
    "trace": {
        "accountLabels": null,
        "dataMap": {
            "-1": {
                "invocation": {
                    "address": "0x1751e3e1aaf1a3e7b973c889b7531f43fc59f7d0",
                    "callData": "",
                    "decodedMethod": null,
                    "errorInfo": "",
                    "fromAddress": "",
                    "gasUsed": 0,
                    "id": -1,
                    "methodDecoded": false,
                    "operation": "",
                    "output": "",
                    "revert": false,
                    "revertMessage": "",
                    "selector": "",
                    "status": false,
                    "value": ""
                },
                "nodeType": 0
            },
            "0": {
                "invocation": {
                    "address": "0x89767960b76b009416bc7ff4a4b79051eed0a9ee",
                    "callData": "0x00000000000000000000000000000000000000000000000000000000000000800000000000000000000000003ad416233f87a8ed4778ef92237655cfa4ece41500000000000000000000000000000000000000000000000000000000000000c00000000000000000000000000000000000000000000000000000000000000260000000000000000000000000000000000000000000000000000000000000000000000000000000000000000000000000000000000000000000000000000000000000000000000000000000000000000000000000000000000000000000000163a97af60000000000000000000000000000000000000000000000000000000000000080000000000000000000000000a4aafee01a8bd3808fb9dfd6352d5015fe42720e00000000000000000000000000000000000000000000000000000000000000c000000000000000000000000000000000000000000000000000000000000001200000000000000000000000000000000000000000000000000000000000000000000000000000000000000000000000000000000000000000000000000000000000000000000000000000000000000000000000000000000000000000000000214d0000000000000000000000000000000000000000000001dca9a1373c007e4b5a0000000000000000000000000000000000000000000000000000000000000000000000000000000000000000000000000000000000000000000000000000032e1a7d0000000000000000000000000000000000000000000000000000000000000000000000000000000000000000000000000000000000000000000000000000000000000000000000000000000000000000000000000000000000017400000000000000000000000000000000000000000000000000000000000000",
                    "decodedMethod": null,
                    "errorInfo": "",
                    "fromAddress": "0x1751e3e1aaf1a3e7b973c889b7531f43fc59f7d0",
                    "gasUsed": 140841,
                    "id": 0,
                    "methodDecoded": false,
                    "operation": "CALL",
                    "output": "0x0000000000000000000000000000000000000000000000000000000000000020000000000000000000000000000000000000000000000000000000000000004000000000000000000000000000000000000000000000000000000000000000200000000000000000000000000000000000000000000000000000000000000000",
                    "revert": false,
                    "revertMessage": "",
                    "selector": "0x74a97af6",
                    "status": true,
                    "value": "0"
                },
                "nodeType": 0
            },
            "1": {
                "invocation": {
                    "address": "0x2d85f5c295760b0afe0b271b94254a8c58b513c5",
                    "callData": "0x0000000000000000000000000000000000000000000000000000000000000080000000000000000000000000a4aafee01a8bd3808fb9dfd6352d5015fe42720e00000000000000000000000000000000000000000000000000000000000000c000000000000000000000000000000000000000000000000000000000000001200000000000000000000000000000000000000000000000000000000000000000000000000000000000000000000000000000000000000000000000000000000000000000000000000000000000000000000000000000000000000000000000214d0000000000000000000000000000000000000000000001dca9a1373c007e4b5a0000000000000000000000000000000000000000000000000000000000000000000000000000000000000000000000000000000000000000000000000000032e1a7d0000000000000000000000000000000000000000000000000000000000",
                    "decodedMethod": null,
                    "errorInfo": "",
                    "fromAddress": "0x89767960b76b009416bc7ff4a4b79051eed0a9ee",
                    "gasUsed": 115866,
                    "id": 1,
                    "methodDecoded": false,
                    "operation": "CALL",
                    "output": "0x00000000000000000000000000000000000000000000000000000000000000200000000000000000000000000000000000000000000000000000000000000000",
                    "revert": false,
                    "revertMessage": "",
                    "selector": "0x74a97af6",
                    "status": true,
                    "value": "0"
                },
                "nodeType": 0
            },
            "2": {
                "invocation": {
                    "address": "0xb3fb1d01b07a706736ca175f827e4f56021b85de",
                    "callData": "0x0000000000000000000000000000000000000000000001dca9a1373c007e4b5a",
                    "decodedMethod": {
                        "callParams": [
                            {
                                "name": "amount",
                                "type": "uint256",
                                "value": "8,792,873,290,680,252,648,282"
                            }
                        ],
                        "constructorArguments": "",
                        "name": "withdraw",
                        "returnParams": [],
                        "signature": "withdraw(uint256)"
                    },
                    "errorInfo": "",
                    "fromAddress": "0x2d85f5c295760b0afe0b271b94254a8c58b513c5",
                    "gasUsed": 106332,
                    "id": 2,
                    "methodDecoded": true,
                    "operation": "CALL",
                    "output": "",
                    "revert": false,
                    "revertMessage": "",
                    "selector": "0x2e1a7d4d",
                    "status": true,
                    "value": "0"
                },
                "nodeType": 0
            },
            "3": {
                "invocation": {
                    "address": "0xb1bbeea2da2905e6b0a30203aef55c399c53d042",
                    "callData": "0x0000000000000000000000002d85f5c295760b0afe0b271b94254a8c58b513c50000000000000000000000000000000000000000000001dca9a1373c007e4b5a",
                    "decodedMethod": {
                        "callParams": [
                            {
                                "name": "to",
                                "type": "address",
                                "value": "0x2d85f5c295760b0afe0b271b94254a8c58b513c5"
                            },
                            {
                                "decimalAvailable": true,
                                "name": "value",
                                "type": "uint256",
                                "value": "8,792,873,290,680,252,648,282"
                            }
                        ],
                        "constructorArguments": "",
                        "name": "transfer",
                        "returnParams": [
                            {
                                "name": "",
                                "type": "bool",
                                "value": true
                            }
                        ],
                        "signature": "transfer(address,uint256)"
                    },
                    "errorInfo": "",
                    "fromAddress": "0xb3fb1d01b07a706736ca175f827e4f56021b85de",
                    "gasUsed": 29840,
                    "id": 3,
                    "methodDecoded": true,
                    "operation": "CALL",
                    "output": "0x0000000000000000000000000000000000000000000000000000000000000001",
                    "revert": false,
                    "revertMessage": "",
                    "selector": "0xa9059cbb",
                    "status": true,
                    "value": "0"
                },
                "nodeType": 0
            },
            "4": {
                "event": {
                    "contract": "0xb1bbeea2da2905e6b0a30203aef55c399c53d042",
                    "decodedLog": {
                        "name": "Transfer",
                        "params": [
                            {
                                "name": "from",
                                "type": "address",
                                "value": "0xb3fb1d01b07a706736ca175f827e4f56021b85de"
                            },
                            {
                                "name": "to",
                                "type": "address",
                                "value": "0x2d85f5c295760b0afe0b271b94254a8c58b513c5"
                            },
                            {
                                "decimalAvailable": true,
                                "name": "value",
                                "type": "uint256",
                                "value": "8,792,873,290,680,252,648,282"
                            }
                        ],
                        "signature": "Transfer(address,address,uint256)"
                    },
                    "id": 4,
                    "logData": "0x0000000000000000000000000000000000000000000001dca9a1373c007e4b5a",
                    "logDecoded": true,
                    "operation": "EVENT",
                    "revert": false,
                    "status": true,
                    "topics": [
                        "0xddf252ad1be2c89b69c2b068fc378daa952ba7f163c4a11628f55a4df523b3ef",
                        "0x000000000000000000000000b3fb1d01b07a706736ca175f827e4f56021b85de",
                        "0x0000000000000000000000002d85f5c295760b0afe0b271b94254a8c58b513c5"
                    ]
                },
                "nodeType": 1
            },
            "5": {
                "event": {
                    "contract": "0xb3fb1d01b07a706736ca175f827e4f56021b85de",
                    "decodedLog": {
                        "name": "Withdrawn",
                        "params": [
                            {
                                "name": "user",
                                "type": "address",
                                "value": "0x2d85f5c295760b0afe0b271b94254a8c58b513c5"
                            },
                            {
                                "name": "amount",
                                "type": "uint256",
                                "value": "8,792,873,290,680,252,648,282"
                            }
                        ],
                        "signature": "Withdrawn(address,uint256)"
                    },
                    "id": 5,
                    "logData": "0x0000000000000000000000000000000000000000000001dca9a1373c007e4b5a",
                    "logDecoded": true,
                    "operation": "EVENT",
                    "revert": false,
                    "status": true,
                    "topics": [
                        "0x7084f5476618d8e60b11ef0d7d3f06914655adb8793e28ff7f018d4c76d505d5",
                        "0x0000000000000000000000002d85f5c295760b0afe0b271b94254a8c58b513c5"
                    ]
                },
                "nodeType": 1
            }
        },
        "gasFlame": [
            {
                "children": [
                    {
                        "children": [
                            {
                                "children": [],
                                "depth": 0,
                                "name": "Initial Gas",
                                "value": 24592
                            },
                            {
                                "children": [
                                    {
                                        "children": [
                                            {
                                                "children": [
                                                    {
                                                        "children": [],
                                                        "depth": 3,
                                                        "name": "transfer",
                                                        "value": 29840
                                                    }
                                                ],
                                                "depth": 2,
                                                "name": "withdraw",
                                                "value": 106332
                                            }
                                        ],
                                        "depth": 1,
                                        "name": "0x74a97af6",
                                        "value": 115866
                                    }
                                ],
                                "depth": 0,
                                "name": "Executed Gas",
                                "value": 128649
                            }
                        ],
                        "depth": -1,
                        "name": "Actual Gas Used",
                        "value": 140841
                    },
                    {
                        "children": [],
                        "depth": -1,
                        "name": "Refunded Gas",
                        "value": 12400
                    }
                ],
                "depth": -2,
                "name": "Total Gas",
                "value": 153241
            }
        ],
        "isConfirmed": true,
        "mainTrace": [
            {
                "children": [
                    {
                        "children": [
                            {
                                "children": [
                                    {
                                        "children": [
                                            {
                                                "children": [
                                                    {
                                                        "children": [],
                                                        "depth": 4,
                                                        "id": 4,
                                                        "order": 4
                                                    }
                                                ],
                                                "depth": 3,
                                                "id": 3,
                                                "order": 3
                                            },
                                            {
                                                "children": [],
                                                "depth": 3,
                                                "id": 5,
                                                "order": 5
                                            }
                                        ],
                                        "depth": 2,
                                        "id": 2,
                                        "order": 2
                                    }
                                ],
                                "depth": 1,
                                "id": 1,
                                "order": 1
                            }
                        ],
                        "depth": 0,
                        "id": 0,
                        "order": 0
                    }
                ],
                "depth": -1,
                "id": -1,
                "order": -1
            }
        ],
        "mainTraceNodeCount": 6,
        "parentIdMap": {
            "0": -1,
            "1": 0,
            "2": 1,
            "3": 2,
            "4": 3,
            "5": 2
        },
        "tidyTrace": [
            {
                "children": [
                    {
                        "children": [
                            {
                                "children": [
                                    {
                                        "children": [
                                            {
                                                "children": [
                                                    {
                                                        "children": [],
                                                        "depth": 4,
                                                        "id": 4,
                                                        "order": 4
                                                    }
                                                ],
                                                "depth": 3,
                                                "id": 3,
                                                "order": 3
                                            },
                                            {
                                                "children": [],
                                                "depth": 3,
                                                "id": 5,
                                                "order": 5
                                            }
                                        ],
                                        "depth": 2,
                                        "id": 2,
                                        "order": 2
                                    }
                                ],
                                "depth": 1,
                                "id": 1,
                                "order": 1
                            }
                        ],
                        "depth": 0,
                        "id": 0,
                        "order": 0
                    }
                ],
                "depth": -1,
                "id": -1,
                "order": -1
            }
        ],
        "tidyTraceNodeCount": 6
    },
    "state_change": {
        "stateChanges": [
            {
                "address": "0xb1bbeea2da2905e6b0a30203aef55c399c53d042",
                "erc": "ERC-20",
                "slots": [
                    {
                        "current": "0x0000000000000000000000000000000000000000000000000000000000000000",
                        "key": "0x96806f5b0d49251df5bad161fc15f515ee8d83a2d0693aa54e8f37cbdc6fdf67",
                        "prev": "0x0000000000000000000000000000000000000000000001dca9a1373c007e4b5a"
                    },
                    {
                        "current": "0x0000000000000000000000000000000000000000000001dca9a1373c007e4b5a",
                        "key": "0x5f7260ca244fdce735e729c9434299f37af4cf5f44e9d07b4ace2318bf22d123",
                        "prev": "0x0000000000000000000000000000000000000000000000000000000000000000"
                    }
                ],
                "storageVariables": [
                    {
                        "name": "balanceOf",
                        "type": "mapping(address => uint256)",
                        "value": {
                            "pairs": [
                                {
                                    "key": "0x2d85f5c295760b0afe0b271b94254a8c58b513c5",
                                    "value": {
                                        "current": "8792873290680252648282",
                                        "prev": "0",
                                        "typeTag": 1
                                    }
                                },
                                {
                                    "key": "0xb3fb1d01b07a706736ca175f827e4f56021b85de",
                                    "value": {
                                        "current": "0",
                                        "prev": "8792873290680252648282",
                                        "typeTag": 1
                                    }
                                }
                            ],
                            "typeTag": 4
                        }
                    }
                ]
            },
            {
                "address": "0xb3fb1d01b07a706736ca175f827e4f56021b85de",
                "erc": "",
                "slots": [
                    {
                        "current": "0x0000000000000000000000000000000000000000000000016cd66266a5dba0d0",
                        "key": "0x0000000000000000000000000000000000000000000000000000000000000005",
                        "prev": "0x0000000000000000000000000000000000000000000000016a613748b6f53c0c"
                    },
                    {
                        "current": "0x0000000000000000000082c48e0b679c480000006236dc6600278d006259ac03",
                        "key": "0x000000000000000000000000000000000000000000000000000000000000000a",
                        "prev": "0x0000000000000000000082c48e0b679c480000006236c2de00278d006259ac03"
                    },
                    {
                        "current": "0x0000000000000000000000000000000000000000000000016cd66266a5dba0d0",
                        "key": "0x66db37ced23500afb5dd8062a12946f3ff001f5b1c73862cb5170e6b9945e2a7",
                        "prev": "0x0000000000000000000000000000000000000000000000000000000000000000"
                    },
                    {
                        "current": "0x0000000000000000000000000000000000000000000000000000000000000000",
                        "key": "0x0000000000000000000000000000000000000000000000000000000000000008",
                        "prev": "0x0000000000000000000000000000000000000000000001dca9a1373c007e4b5a"
                    },
                    {
                        "current": "0xfffffffffffffffffffffffffffffffffffffffffffffe23565ec8c3ff81b4a6",
                        "key": "0x2a25187d7db174f0aa165ce902feea38a72c151992c513dfc62d7ac3724c2deb",
                        "prev": "0x0000000000000000000000000000000000000000000000000000000000000000"
                    }
                ],
                "storageVariables": [
                    {
                        "name": "_totalSupply",
                        "type": "uint256",
                        "value": {
                            "current": "0",
                            "prev": "8792873290680252648282",
                            "typeTag": 1
                        }
                    },
                    {
                        "name": "_balances",
                        "type": "mapping(address => uint256)",
                        "value": {
                            "pairs": [
                                {
                                    "key": "0x2d85f5c295760b0afe0b271b94254a8c58b513c5",
                                    "value": {
                                        "current": "115792089237316195423570985008687907853269984665640564030664710717232876991654",
                                        "prev": "0",
                                        "typeTag": 1
                                    }
                                }
                            ],
                            "typeTag": 4
                        }
                    },
                    {
                        "name": "rewardPerTokenStored",
                        "type": "uint256",
                        "value": {
                            "current": "26289308067830669520",
                            "prev": "26112212899917544460",
                            "typeTag": 1
                        }
                    },
                    {
                        "name": "timeData",
                        "type": "struct StakingRewards.Times",
                        "value": {
                            "fields": [
                                {
                                    "name": "periodFinish",
                                    "type": "uint32",
                                    "value": {
                                        "current": "1650043907",
                                        "prev": "1650043907",
                                        "typeTag": 1
                                    }
                                },
                                {
                                    "name": "rewardsDuration",
                                    "type": "uint32",
                                    "value": {
                                        "current": "2592000",
                                        "prev": "2592000",
                                        "typeTag": 1
                                    }
                                },
                                {
                                    "name": "lastUpdateTime",
                                    "type": "uint32",
                                    "value": {
                                        "current": "1647762534",
                                        "prev": "1647755998",
                                        "typeTag": 1
                                    }
                                },
                                {
                                    "name": "totalRewardsSupply",
                                    "type": "uint96",
                                    "value": {
                                        "current": "617533440000000000000000",
                                        "prev": "617533440000000000000000",
                                        "typeTag": 1
                                    }
                                }
                            ],
                            "typeTag": 3
                        }
                    },
                    {
                        "name": "userRewardPerTokenPaid",
                        "type": "mapping(address => uint256)",
                        "value": {
                            "pairs": [
                                {
                                    "key": "0x2d85f5c295760b0afe0b271b94254a8c58b513c5",
                                    "value": {
                                        "current": "26289308067830669520",
                                        "prev": "0",
                                        "typeTag": 1
                                    }
                                }
                            ],
                            "typeTag": 4
                        }
                    }
                ]
            }
        ]
    }
}