{
    "balance_change": {
        "balanceChanges": [
            {
                "account": "0x9cfa73b8d300ec5bf204e4de4a58e5ee6b7dc93c",
                "assets": [
                    {
                        "address": "0x50f5474724e0ee42d9a4e711ccfb275809fd6d4a",
                        "amount": "1",
                        "iconUrl": "https://assets.blocksec.com/nft/icon/nft_13c4f3dd-b659-4d38-9461-b9372f0d013c.png",
                        "isERC1155": false,
                        "isERC721": true,
                        "sign": false,
                        "tokenID": "3738",
                        "value": ""
                    }
                ]
            },
            {
                "account": "0x0000000000000000000000000000000000000000",
                "assets": [
                    {
                        "address": "0x50f5474724e0ee42d9a4e711ccfb275809fd6d4a",
                        "amount": "1",
                        "iconUrl": "https://assets.blocksec.com/nft/icon/nft_13c4f3dd-b659-4d38-9461-b9372f0d013c.png",
                        "isERC1155": false,
                        "isERC721": true,
                        "sign": true,
                        "tokenID": "3738",
                        "value": ""
                    }
                ]
            }
        ]
    },
    "profile": {
        "basic_info": {
            "baseFee": "125.839319634",
            "blockNumber": 14163042,
            "callData": "0x6ee678ae0000000000000000000000009cfa73b8d300ec5bf204e4de4a58e5ee6b7dc93c0000000000000000000000009cfa73b8d300ec5bf204e4de4a58e5ee6b7dc93c0000000000000000000000000000000000000000000000000000000000000e9a",
            "debugEnable": true,
            "errorInfo": "",
            "eventCount": 1,
            "feeRecipient": "0x6ebaf477f83e055589c1188bcc6ddccd8c9b131a",
            "formatValue": "0",
            "gasLimit": 77311,
            "gasPrice": "126.839319634",
            "gasUsed": 51541,
            "intTxnCount": 0,
            "internalRevert": false,
            "internalRevertMessage": "",
            "isContractCreation": false,
            "isFlashloan": false,
            "maxFee": "218.488806624",
            "nonce": 26,
            "overwritedBlockNumber": -1,
            "priorityFee": "1",
            "receiver": "0x50f5474724e0ee42d9a4e711ccfb275809fd6d4a",
            "revertMessage": "",
            "sender": "0x6fb0b915d0e10c3b2ae42a5dd879c3d995377a2c",
            "simulationEnable": true,
            "sourceTxnHash": "0x34516ee081c221d8576939f68aee71e002dd5557180d45194209d6692241f7b1",
            "status": true,
            "timestamp": "2022-02-08T03:35:51Z",
            "transactionFee": "0.006537425373255994",
            "txnHash": "0x34516ee081c221d8576939f68aee71e002dd5557180d45194209d6692241f7b1",
            "txnIndex": 297,
            "type": 2,
            "value": "0"
        },
        "fund_flow": [
            {
                "amount": "1",
                "from": "0x9cfa73b8d300ec5bf204e4de4a58e5ee6b7dc93c",
                "id": 1,
                "isERC1155": false,
                "isERC721": true,
                "isReverted": false,
                "order": 1,
                "to": "0x0000000000000000000000000000000000000000",
                "token": "0x50f5474724e0ee42d9a4e711ccfb275809fd6d4a",
                "tokenID": "3738"
            }
        ],
        "token_infos": [
            {
                "address": "0xeeeeeeeeeeeeeeeeeeeeeeeeeeeeeeeeeeeeeeee",
                "decimals": 18
            },
            {
                "address": "0xc02aaa39b223fe8d0a0e5c4f27ead9083c756cc2",
                "decimals": 18
            }
        ]
    },
    "address_label": {
        "labels": [
            {
                "address": "0x50f5474724e0ee42d9a4e711ccfb275809fd6d4a",
                "label": "The Sandbox: Old LAND Token"
            },
            {
                "address": "0x0000000000000000000000000000000000000001",
                "label": "Precompiled"
            },
            {
                "address": "0x0000000000000000000000000000000000000002",
                "label": "Precompiled"
            },
            {
                "address": "0x0000000000000000000000000000000000000003",
                "label": "Precompiled"
            },
            {
                "address": "0x0000000000000000000000000000000000000004",
                "label": "Precompiled"
            },
            {
                "address": "0xeeeeeeeeeeeeeeeeeeeeeeeeeeeeeeeeeeeeeeee",
                "label": "Ether"
            }
        ]
    },
    "trace": {
        "accountLabels": null,
        "dataMap": {
            "-1": {
                "invocation": {
                    "address": "0x6fb0b915d0e10c3b2ae42a5dd879c3d995377a2c",
                    "callData": "",
                    "decodedMethod": null,
                    "errorInfo": "",
                    "fromAddress": "",
                    "gasUsed": 0,
                    "id": -1,
                    "methodDecoded": false,
                    "operation": "",
                    "output": "",
                    "revert": false,
                    "revertMessage": "",
                    "selector": "",
                    "status": false,
                    "value": ""
                },
                "nodeType": 0
            },
            "0": {
                "invocation": {
                    "address": "0x50f5474724e0ee42d9a4e711ccfb275809fd6d4a",
                    "callData": "0x0000000000000000000000009cfa73b8d300ec5bf204e4de4a58e5ee6b7dc93c0000000000000000000000009cfa73b8d300ec5bf204e4de4a58e5ee6b7dc93c0000000000000000000000000000000000000000000000000000000000000e9a",
                    "decodedMethod": {
                        "callParams": [
                            {
                                "name": "from",
                                "type": "address",
                                "value": "0x9cfa73b8d300ec5bf204e4de4a58e5ee6b7dc93c"
                            },
                            {
                                "name": "owner",
                                "type": "address",
                                "value": "0x9cfa73b8d300ec5bf204e4de4a58e5ee6b7dc93c"
                            },
                            {
                                "name": "id",
                                "type": "uint256",
                                "value": "3,738"
                            }
                        ],
                        "constructorArguments": "",
                        "name": "_burn",
                        "returnParams": [],
                        "signature": "_burn(address,address,uint256)"
                    },
                    "errorInfo": "",
                    "fromAddress": "0x6fb0b915d0e10c3b2ae42a5dd879c3d995377a2c",
                    "gasUsed": 51541,
                    "id": 0,
                    "methodDecoded": true,
                    "operation": "CALL",
                    "output": "",
                    "revert": false,
                    "revertMessage": "",
                    "selector": "0x6ee678ae",
                    "status": true,
                    "value": "0"
                },
                "nodeType": 0
            },
            "1": {
                "event": {
                    "contract": "0x50f5474724e0ee42d9a4e711ccfb275809fd6d4a",
                    "decodedLog": {
                        "name": "Transfer",
                        "params": [
                            {
                                "name": "_from",
                                "type": "address",
                                "value": "0x9cfa73b8d300ec5bf204e4de4a58e5ee6b7dc93c"
                            },
                            {
                                "name": "_to",
                                "type": "address",
                                "value": "0x0000000000000000000000000000000000000000"
                            },
                            {
                                "decimalAvailable": true,
                                "name": "_tokenId",
                                "type": "uint256",
                                "value": "3,738"
                            }
                        ],
                        "signature": "Transfer(address,address,uint256)"
                    },
                    "id": 1,
                    "logData": "0x",
                    "logDecoded": true,
                    "operation": "EVENT",
                    "revert": false,
                    "status": true,
                    "topics": [
                        "0xddf252ad1be2c89b69c2b068fc378daa952ba7f163c4a11628f55a4df523b3ef",
                        "0x0000000000000000000000009cfa73b8d300ec5bf204e4de4a58e5ee6b7dc93c",
                        "0x0000000000000000000000000000000000000000000000000000000000000000",
                        "0x0000000000000000000000000000000000000000000000000000000000000e9a"
                    ]
                },
                "nodeType": 1
            }
        },
        "gasFlame": [
            {
                "children": [
                    {
                        "children": [
                            {
                                "children": [],
                                "depth": 0,
                                "name": "Initial Gas",
                                "value": 21928
                            },
                            {
                                "children": [],
                                "depth": 0,
                                "name": "Executed Gas",
                                "value": 29613
                            }
                        ],
                        "depth": -1,
                        "name": "Actual Gas Used",
                        "value": 51541
                    },
                    {
                        "children": [],
                        "depth": -1,
                        "name": "Refunded Gas",
                        "value": 0
                    }
                ],
                "depth": -2,
                "name": "Total Gas",
                "value": 51541
            }
        ],
        "isConfirmed": true,
        "mainTrace": [
            {
                "children": [
                    {
                        "children": [
                            {
                                "children": [],
                                "depth": 1,
                                "id": 1,
                                "order": 1
                            }
                        ],
                        "depth": 0,
                        "id": 0,
                        "order": 0
                    }
                ],
                "depth": -1,
                "id": -1,
                "order": -1
            }
        ],
        "mainTraceNodeCount": 2,
        "parentIdMap": {
            "0": -1,
            "1": 0
        },
        "tidyTrace": [
            {
                "children": [
                    {
                        "children": [
                            {
                                "children": [],
                                "depth": 1,
                                "id": 1,
                                "order": 1
                            }
                        ],
                        "depth": 0,
                        "id": 0,
                        "order": 0
                    }
                ],
                "depth": -1,
                "id": -1,
                "order": -1
            }
        ],
        "tidyTraceNodeCount": 2
    },
    "state_change": {
        "stateChanges": [
            {
                "address": "0x50f5474724e0ee42d9a4e711ccfb275809fd6d4a",
                "erc": "ERC-721",
                "slots": [
                    {
                        "current": "0x0000000000000000000000010000000000000000000000000000000000000000",
                        "key": "0xa0096cba3c18d48aeb5ec97dac9576bc4353152637914dae90f891fd60cd7128",
                        "prev": "0x0000000000000000000000000000000000000000000000000000000000000000"
                    },
                    {
                        "current": "0x0000000000000000000000000000000000000000000000000000000000000ac9",
                        "key": "0x6274a9fdc1b64a162bb480fcf17516799330d564e79c0b5ad55b69a00f2e4685",
                        "prev": "0x0000000000000000000000000000000000000000000000000000000000000aca"
                    }
                ],
                "storageVariables": [
                    {
                        "name": "_owners",
                        "type": "mapping(uint256 => uint256)",
                        "value": {
                            "pairs": [
                                {
                                    "key": "3738",
                                    "value": {
                                        "current": "1461501637330902918203684832716283019655932542976",
                                        "prev": "0",
                                        "typeTag": 1
                                    }
                                }
                            ],
                            "typeTag": 4
                        }
                    },
                    {
                        "name": "_numNFTPerAddress",
                        "type": "mapping(address => uint256)",
                        "value": {
                            "pairs": [
                                {
                                    "key": "0x9cfa73b8d300ec5bf204e4de4a58e5ee6b7dc93c",
                                    "value": {
                                        "current": "2761",
                                        "prev": "2762",
                                        "typeTag": 1
                                    }
                                }
                            ],
                            "typeTag": 4
                        }
                    }
                ]
            }
        ]
    }
}