{
    "balance_change": {
        "balanceChanges": [
            {
                "account": "0x368a6558255bccac517da5106647d8182c571b23",
                "assets": [
                    {
                        "address": "0x7f4e7fb900e0ec043718d05caee549805cab22c8",
                        "amount": "134,897.917762348532113754",
                        "iconUrl": "",
                        "isERC1155": false,
                        "isERC721": false,
                        "sign": false,
                        "value": ""
                    },
                    {
                        "address": "0xf2df8794f8f99f1ba4d8adc468ebff2e47cd7010",
                        "amount": "1,150,965.873028",
                        "iconUrl": "",
                        "isERC1155": false,
                        "isERC721": false,
                        "sign": false,
                        "value": ""
                    }
                ]
            },
            {
                "account": "0x910fd17b9bfc42a6eea822912f036ef5a080be8a",
                "assets": [
                    {
                        "address": "0xa0afaa285ce85974c3c881256cb7f225e3a1178a",
                        "amount": "133,548.938584725046782717",
                        "iconUrl": "",
                        "isERC1155": false,
                        "isERC721": false,
                        "sign": true,
                        "value": "728624.3855"
                    },
                    {
                        "address": "0xdac17f958d2ee523a2206206994597c13d831ec7",
                        "amount": "1,139,456.204397",
                        "iconUrl": "https://assets.blocksec.com/icon/fcea71f3193ce895be44bfdf941f7e4c9381dd587f273c2d1a27f1263d84e4ea.png",
                        "isERC1155": false,
                        "isERC721": false,
                        "sign": true,
                        "value": "1149065.2381683319006"
                    }
                ]
            },
            {
                "account": "0x051ebd717311350f1684f89335bed4abd083a2b6",
                "assets": [
                    {
                        "address": "0xa0afaa285ce85974c3c881256cb7f225e3a1178a",
                        "amount": "133,548.938584725046782717",
                        "iconUrl": "",
                        "isERC1155": false,
                        "isERC721": false,
                        "sign": false,
                        "value": "728624.3855"
                    },
                    {
                        "address": "0xdac17f958d2ee523a2206206994597c13d831ec7",
                        "amount": "1,139,456.204397",
                        "iconUrl": "https://assets.blocksec.com/icon/fcea71f3193ce895be44bfdf941f7e4c9381dd587f273c2d1a27f1263d84e4ea.png",
                        "isERC1155": false,
                        "isERC721": false,
                        "sign": false,
                        "value": "1149065.2381683319006"
                    },
                    {
                        "address": "0x7f4e7fb900e0ec043718d05caee549805cab22c8",
                        "amount": "134,897.917762348532113754",
                        "iconUrl": "",
                        "isERC1155": false,
                        "isERC721": false,
                        "sign": true,
                        "value": ""
                    },
                    {
                        "address": "0xf2df8794f8f99f1ba4d8adc468ebff2e47cd7010",
                        "amount": "1,150,965.873028",
                        "iconUrl": "",
                        "isERC1155": false,
                        "isERC721": false,
                        "sign": true,
                        "value": ""
                    }
                ]
            }
        ]
    },
    "profile": {
        "basic_info": {
            "baseFee": "",
            "blockNumber": 12000165,
            "callData": "0x57a41e93000000000000000000000000051ebd717311350f1684f89335bed4abd083a2b6000000000000000000000000910fd17b9bfc42a6eea822912f036ef5a080be8a0000000000000000000000000000000000000000000000000000000000000063",
            "debugEnable": true,
            "errorInfo": "",
            "eventCount": 5,
            "feeRecipient": "0x52bc44d5378309ee2abf1539bf71de1b7d7be3b5",
            "formatValue": "0",
            "gasLimit": 314654,
            "gasPrice": "300",
            "gasUsed": 302916,
            "intTxnCount": 27,
            "internalRevert": false,
            "internalRevertMessage": "",
            "isContractCreation": false,
            "isFlashloan": true,
            "maxFee": "",
            "nonce": 63,
            "overwritedBlockNumber": -1,
            "priorityFee": "",
            "receiver": "0x910fd17b9bfc42a6eea822912f036ef5a080be8a",
            "revertMessage": "",
            "sender": "0x368a6558255bccac517da5106647d8182c571b23",
            "simulationEnable": true,
            "sourceTxnHash": "0x395675b56370a9f5fe8b32badfa80043f5291443bd6c8273900476880fb5221e",
            "status": true,
            "timestamp": "2021-03-08T20:57:45Z",
            "transactionFee": "0.0908748",
            "txnHash": "0x395675b56370a9f5fe8b32badfa80043f5291443bd6c8273900476880fb5221e",
            "txnIndex": 3,
            "type": 0,
            "value": "0"
        },
        "fund_flow": [
            {
                "amount": "134,897.917762348532113754",
                "from": "0x368a6558255bccac517da5106647d8182c571b23",
                "id": 1,
                "isERC1155": false,
                "isERC721": false,
                "isReverted": false,
                "order": 1,
                "to": "0x051ebd717311350f1684f89335bed4abd083a2b6",
                "token": "0x7f4e7fb900e0ec043718d05caee549805cab22c8"
            },
            {
                "amount": "1,150,965.873028",
                "from": "0x368a6558255bccac517da5106647d8182c571b23",
                "id": 2,
                "isERC1155": false,
                "isERC721": false,
                "isReverted": false,
                "order": 2,
                "to": "0x051ebd717311350f1684f89335bed4abd083a2b6",
                "token": "0xf2df8794f8f99f1ba4d8adc468ebff2e47cd7010"
            },
            {
                "amount": "133,548.938584725046782717",
                "from": "0x051ebd717311350f1684f89335bed4abd083a2b6",
                "id": 3,
                "isERC1155": false,
                "isERC721": false,
                "isReverted": false,
                "order": 3,
                "to": "0x910fd17b9bfc42a6eea822912f036ef5a080be8a",
                "token": "0xa0afaa285ce85974c3c881256cb7f225e3a1178a"
            },
            {
                "amount": "1,139,456.204397",
                "from": "0x051ebd717311350f1684f89335bed4abd083a2b6",
                "id": 4,
                "isERC1155": false,
                "isERC721": false,
                "isReverted": false,
                "order": 4,
                "to": "0x910fd17b9bfc42a6eea822912f036ef5a080be8a",
                "token": "0xdac17f958d2ee523a2206206994597c13d831ec7"
            }
        ],
        "token_infos": [
            {
                "address": "0xc02aaa39b223fe8d0a0e5c4f27ead9083c756cc2",
                "decimals": 18
            },
            {
                "address": "0xdac17f958d2ee523a2206206994597c13d831ec7",
                "decimals": 6
            },
            {
                "address": "0xf2df8794f8f99f1ba4d8adc468ebff2e47cd7010",
                "decimals": 6
            },
            {
                "address": "0xeeeeeeeeeeeeeeeeeeeeeeeeeeeeeeeeeeeeeeee",
                "decimals": 18
            },
            {
                "address": "0x7f4e7fb900e0ec043718d05caee549805cab22c8",
                "decimals": 18
            },
            {
                "address": "0xa0afaa285ce85974c3c881256cb7f225e3a1178a",
                "decimals": 18
            }
        ]
    },
    "address_label": {
        "labels": [
            {
                "address": "0x0000000000000000000000000000000000000004",
                "label": "Precompiled"
            },
            {
                "address": "0x2bbd66fc4898242bdbd2583bbe1d76e8b8f71445",
                "label": "DVM"
            },
            {
                "address": "0x95c4f5b83aa70810d4f142d58e5f7242bd891cb0",
                "label": "DODO: Multisig 2"
            },
            {
                "address": "0x85351262f7474ebe23ffacd633cf20a491f1325d",
                "label": "Fake_Phishing281501"
            },
            {
                "address": "0x7f4e7fb900e0ec043718d05caee549805cab22c8",
                "label": "FDO (FDO)"
            },
            {
                "address": "0xa0afaa285ce85974c3c881256cb7f225e3a1178a",
                "label": "CrescoFin: wCRES Token"
            },
            {
                "address": "0x0000000000000000000000000000000000000001",
                "label": "Precompiled"
            },
            {
                "address": "0x0000000000000000000000000000000000000003",
                "label": "Precompiled"
            },
            {
                "address": "0xeeeeeeeeeeeeeeeeeeeeeeeeeeeeeeeeeeeeeeee",
                "label": "Ether"
            },
            {
                "address": "0x5e84190a270333ace5b9202a3f4cebf11b81bb01",
                "label": "FeeRateModel"
            },
            {
                "address": "0x051ebd717311350f1684f89335bed4abd083a2b6",
                "label": "DLP_051ebd71 (DLP)"
            },
            {
                "address": "0xf2df8794f8f99f1ba4d8adc468ebff2e47cd7010",
                "label": "FUSDT (FUSDT)"
            },
            {
                "address": "0x0000000000000000000000000000000000000002",
                "label": "Precompiled"
            },
            {
                "address": "0xdac17f958d2ee523a2206206994597c13d831ec7",
                "label": "Tether: USDT Stablecoin"
            }
        ]
    },
    "trace": {
        "accountLabels": null,
        "dataMap": {
            "-1": {
                "invocation": {
                    "address": "0x368a6558255bccac517da5106647d8182c571b23",
                    "callData": "",
                    "decodedMethod": null,
                    "errorInfo": "",
                    "fromAddress": "",
                    "gasUsed": 0,
                    "id": -1,
                    "methodDecoded": false,
                    "operation": "",
                    "output": "",
                    "revert": false,
                    "revertMessage": "",
                    "selector": "",
                    "status": false,
                    "value": ""
                },
                "nodeType": 0
            },
            "0": {
                "invocation": {
                    "address": "0x910fd17b9bfc42a6eea822912f036ef5a080be8a",
                    "callData": "0x000000000000000000000000051ebd717311350f1684f89335bed4abd083a2b6000000000000000000000000910fd17b9bfc42a6eea822912f036ef5a080be8a0000000000000000000000000000000000000000000000000000000000000063",
                    "decodedMethod": null,
                    "errorInfo": "",
                    "fromAddress": "0x368a6558255bccac517da5106647d8182c571b23",
                    "gasUsed": 302916,
                    "id": 0,
                    "methodDecoded": false,
                    "operation": "CALL",
                    "output": "",
                    "revert": false,
                    "revertMessage": "",
                    "selector": "0x57a41e93",
                    "status": true,
                    "value": "0"
                },
                "nodeType": 0
            },
            "1": {
                "invocation": {
                    "address": "0x051ebd717311350f1684f89335bed4abd083a2b6",
                    "callData": "0x",
                    "decodedMethod": {
                        "callParams": [],
                        "constructorArguments": "",
                        "name": "getVaultReserve",
                        "returnParams": [
                            {
                                "name": "baseReserve",
                                "type": "uint256",
                                "value": "134,897,917,762,348,532,103,754"
                            },
                            {
                                "name": "quoteReserve",
                                "type": "uint256",
                                "value": "1,150,965,863,028"
                            }
                        ],
                        "signature": "getVaultReserve()"
                    },
                    "errorInfo": "",
                    "fromAddress": "0x910fd17b9bfc42a6eea822912f036ef5a080be8a",
                    "gasUsed": 1980,
                    "id": 1,
                    "methodDecoded": true,
                    "operation": "STATICCALL",
                    "output": "0x000000000000000000000000000000000000000000001c90d4adad0e619ffa4a0000000000000000000000000000000000000000000000000000010bfae95274",
                    "revert": false,
                    "revertMessage": "",
                    "selector": "0x36223ce9",
                    "status": true,
                    "value": "0"
                },
                "nodeType": 0
            },
            "10": {
                "invocation": {
                    "address": "0x2bbd66fc4898242bdbd2583bbe1d76e8b8f71445",
                    "callData": "0x000000000000000000000000000000000000000000001c47b3d4e634a3356afc000000000000000000000000000000000000000000000000000001094ce1de6d000000000000000000000000910fd17b9bfc42a6eea822912f036ef5a080be8a000000000000000000000000000000000000000000000000000000000000008000000000000000000000000000000000000000000000000000000000000000013100000000000000000000000000000000000000000000000000000000000000",
                    "decodedMethod": {
                        "callParams": [
                            {
                                "name": "baseAmount",
                                "type": "uint256",
                                "value": "133,548,938,584,725,046,782,716"
                            },
                            {
                                "name": "quoteAmount",
                                "type": "uint256",
                                "value": "1,139,456,204,397"
                            },
                            {
                                "name": "assetTo",
                                "type": "address",
                                "value": "0x910fd17b9bfc42a6eea822912f036ef5a080be8a"
                            },
                            {
                                "name": "data",
                                "type": "bytes",
                                "value": "0x31"
                            }
                        ],
                        "constructorArguments": "",
                        "name": "flashLoan",
                        "returnParams": [],
                        "signature": "flashLoan(uint256,uint256,address,bytes)"
                    },
                    "errorInfo": "",
                    "fromAddress": "0x051ebd717311350f1684f89335bed4abd083a2b6",
                    "gasUsed": 190204,
                    "id": 10,
                    "methodDecoded": true,
                    "operation": "DELEGATECALL",
                    "output": "",
                    "revert": false,
                    "revertMessage": "",
                    "selector": "0xd0a494e4",
                    "status": true,
                    "value": "0"
                },
                "nodeType": 0
            },
            "11": {
                "invocation": {
                    "address": "0xa0afaa285ce85974c3c881256cb7f225e3a1178a",
                    "callData": "0x000000000000000000000000910fd17b9bfc42a6eea822912f036ef5a080be8a000000000000000000000000000000000000000000001c47b3d4e634a3356afc",
                    "decodedMethod": {
                        "callParams": [
                            {
                                "name": "_to",
                                "type": "address",
                                "value": "0x910fd17b9bfc42a6eea822912f036ef5a080be8a"
                            },
                            {
                                "decimalAvailable": true,
                                "name": "_value",
                                "type": "uint256",
                                "value": "133,548,938,584,725,046,782,716"
                            }
                        ],
                        "constructorArguments": "",
                        "name": "transfer",
                        "returnParams": [
                            {
                                "name": "",
                                "type": "bool",
                                "value": true
                            }
                        ],
                        "signature": "transfer(address,uint256)"
                    },
                    "errorInfo": "",
                    "fromAddress": "0x051ebd717311350f1684f89335bed4abd083a2b6",
                    "gasUsed": 30155,
                    "id": 11,
                    "methodDecoded": true,
                    "operation": "CALL",
                    "output": "0x0000000000000000000000000000000000000000000000000000000000000001",
                    "revert": false,
                    "revertMessage": "",
                    "selector": "0xa9059cbb",
                    "status": true,
                    "value": "0"
                },
                "nodeType": 0
            },
            "12": {
                "event": {
                    "contract": "0xa0afaa285ce85974c3c881256cb7f225e3a1178a",
                    "decodedLog": {
                        "name": "Transfer",
                        "params": [
                            {
                                "name": "from",
                                "type": "address",
                                "value": "0x051ebd717311350f1684f89335bed4abd083a2b6"
                            },
                            {
                                "name": "to",
                                "type": "address",
                                "value": "0x910fd17b9bfc42a6eea822912f036ef5a080be8a"
                            },
                            {
                                "decimalAvailable": true,
                                "name": "value",
                                "type": "uint256",
                                "value": "133,548,938,584,725,046,782,716"
                            }
                        ],
                        "signature": "Transfer(address,address,uint256)"
                    },
                    "id": 12,
                    "logData": "0x000000000000000000000000000000000000000000001c47b3d4e634a3356afc",
                    "logDecoded": true,
                    "operation": "EVENT",
                    "revert": false,
                    "status": true,
                    "topics": [
                        "0xddf252ad1be2c89b69c2b068fc378daa952ba7f163c4a11628f55a4df523b3ef",
                        "0x000000000000000000000000051ebd717311350f1684f89335bed4abd083a2b6",
                        "0x000000000000000000000000910fd17b9bfc42a6eea822912f036ef5a080be8a"
                    ]
                },
                "nodeType": 1
            },
            "13": {
                "invocation": {
                    "address": "0xdac17f958d2ee523a2206206994597c13d831ec7",
                    "callData": "0x000000000000000000000000910fd17b9bfc42a6eea822912f036ef5a080be8a000000000000000000000000000000000000000000000000000001094ce1de6d",
                    "decodedMethod": {
                        "callParams": [
                            {
                                "name": "_to",
                                "type": "address",
                                "value": "0x910fd17b9bfc42a6eea822912f036ef5a080be8a"
                            },
                            {
                                "decimalAvailable": true,
                                "name": "_value",
                                "type": "uint256",
                                "value": "1,139,456,204,397"
                            }
                        ],
                        "constructorArguments": "",
                        "name": "transfer",
                        "returnParams": [],
                        "signature": "transfer(address,uint256)"
                    },
                    "errorInfo": "",
                    "fromAddress": "0x051ebd717311350f1684f89335bed4abd083a2b6",
                    "gasUsed": 34601,
                    "id": 13,
                    "methodDecoded": true,
                    "operation": "CALL",
                    "output": "",
                    "revert": false,
                    "revertMessage": "",
                    "selector": "0xa9059cbb",
                    "status": true,
                    "value": "0"
                },
                "nodeType": 0
            },
            "14": {
                "event": {
                    "contract": "0xdac17f958d2ee523a2206206994597c13d831ec7",
                    "decodedLog": {
                        "name": "Transfer",
                        "params": [
                            {
                                "name": "from",
                                "type": "address",
                                "value": "0x051ebd717311350f1684f89335bed4abd083a2b6"
                            },
                            {
                                "name": "to",
                                "type": "address",
                                "value": "0x910fd17b9bfc42a6eea822912f036ef5a080be8a"
                            },
                            {
                                "decimalAvailable": true,
                                "name": "value",
                                "type": "uint256",
                                "value": "1,139,456,204,397"
                            }
                        ],
                        "signature": "Transfer(address,address,uint256)"
                    },
                    "id": 14,
                    "logData": "0x000000000000000000000000000000000000000000000000000001094ce1de6d",
                    "logDecoded": true,
                    "operation": "EVENT",
                    "revert": false,
                    "status": true,
                    "topics": [
                        "0xddf252ad1be2c89b69c2b068fc378daa952ba7f163c4a11628f55a4df523b3ef",
                        "0x000000000000000000000000051ebd717311350f1684f89335bed4abd083a2b6",
                        "0x000000000000000000000000910fd17b9bfc42a6eea822912f036ef5a080be8a"
                    ]
                },
                "nodeType": 1
            },
            "15": {
                "invocation": {
                    "address": "0x910fd17b9bfc42a6eea822912f036ef5a080be8a",
                    "callData": "0x000000000000000000000000910fd17b9bfc42a6eea822912f036ef5a080be8a000000000000000000000000000000000000000000001c47b3d4e634a3356afc000000000000000000000000000000000000000000000000000001094ce1de6d000000000000000000000000000000000000000000000000000000000000008000000000000000000000000000000000000000000000000000000000000000013100000000000000000000000000000000000000000000000000000000000000",
                    "decodedMethod": {
                        "callParams": [
                            {
                                "name": "sender",
                                "type": "address",
                                "value": "0x910fd17b9bfc42a6eea822912f036ef5a080be8a"
                            },
                            {
                                "name": "baseAmount",
                                "type": "uint256",
                                "value": "133,548,938,584,725,046,782,716"
                            },
                            {
                                "name": "quoteAmount",
                                "type": "uint256",
                                "value": "1,139,456,204,397"
                            },
                            {
                                "name": "data",
                                "type": "bytes",
                                "value": "0x31"
                            }
                        ],
                        "constructorArguments": "",
                        "name": "DVMFlashLoanCall",
                        "returnParams": [],
                        "signature": "DVMFlashLoanCall(address,uint256,uint256,bytes)"
                    },
                    "errorInfo": "",
                    "fromAddress": "0x051ebd717311350f1684f89335bed4abd083a2b6",
                    "gasUsed": 76726,
                    "id": 15,
                    "methodDecoded": true,
                    "operation": "CALL",
                    "output": "",
                    "revert": false,
                    "revertMessage": "",
                    "selector": "0xeb2021c3",
                    "status": true,
                    "value": "0"
                },
                "nodeType": 0
            },
            "16": {
                "invocation": {
                    "address": "0x051ebd717311350f1684f89335bed4abd083a2b6",
                    "callData": "0x",
                    "decodedMethod": {
                        "callParams": [],
                        "constructorArguments": "",
                        "name": "_BASE_TOKEN_",
                        "returnParams": [
                            {
                                "name": "",
                                "type": "address",
                                "value": "0xa0afaa285ce85974c3c881256cb7f225e3a1178a"
                            }
                        ],
                        "signature": "_BASE_TOKEN_()"
                    },
                    "errorInfo": "",
                    "fromAddress": "0x910fd17b9bfc42a6eea822912f036ef5a080be8a",
                    "gasUsed": 1926,
                    "id": 16,
                    "methodDecoded": true,
                    "operation": "STATICCALL",
                    "output": "0x000000000000000000000000a0afaa285ce85974c3c881256cb7f225e3a1178a",
                    "revert": false,
                    "revertMessage": "",
                    "selector": "0x4a248d2a",
                    "status": true,
                    "value": "0"
                },
                "nodeType": 0
            },
            "17": {
                "invocation": {
                    "address": "0x2bbd66fc4898242bdbd2583bbe1d76e8b8f71445",
                    "callData": "0x",
                    "decodedMethod": {
                        "callParams": [],
                        "constructorArguments": "",
                        "name": "_BASE_TOKEN_",
                        "returnParams": [
                            {
                                "name": "",
                                "type": "address",
                                "value": "0xa0afaa285ce85974c3c881256cb7f225e3a1178a"
                            }
                        ],
                        "signature": "_BASE_TOKEN_()"
                    },
                    "errorInfo": "",
                    "fromAddress": "0x051ebd717311350f1684f89335bed4abd083a2b6",
                    "gasUsed": 1160,
                    "id": 17,
                    "methodDecoded": true,
                    "operation": "DELEGATECALL",
                    "output": "0x000000000000000000000000a0afaa285ce85974c3c881256cb7f225e3a1178a",
                    "revert": false,
                    "revertMessage": "",
                    "selector": "0x4a248d2a",
                    "status": true,
                    "value": "0"
                },
                "nodeType": 0
            },
            "18": {
                "invocation": {
                    "address": "0x051ebd717311350f1684f89335bed4abd083a2b6",
                    "callData": "0x",
                    "decodedMethod": {
                        "callParams": [],
                        "constructorArguments": "",
                        "name": "_QUOTE_TOKEN_",
                        "returnParams": [
                            {
                                "name": "",
                                "type": "address",
                                "value": "0xdac17f958d2ee523a2206206994597c13d831ec7"
                            }
                        ],
                        "signature": "_QUOTE_TOKEN_()"
                    },
                    "errorInfo": "",
                    "fromAddress": "0x910fd17b9bfc42a6eea822912f036ef5a080be8a",
                    "gasUsed": 1881,
                    "id": 18,
                    "methodDecoded": true,
                    "operation": "STATICCALL",
                    "output": "0x000000000000000000000000dac17f958d2ee523a2206206994597c13d831ec7",
                    "revert": false,
                    "revertMessage": "",
                    "selector": "0xd4b97046",
                    "status": true,
                    "value": "0"
                },
                "nodeType": 0
            },
            "19": {
                "invocation": {
                    "address": "0x2bbd66fc4898242bdbd2583bbe1d76e8b8f71445",
                    "callData": "0x",
                    "decodedMethod": {
                        "callParams": [],
                        "constructorArguments": "",
                        "name": "_QUOTE_TOKEN_",
                        "returnParams": [
                            {
                                "name": "",
                                "type": "address",
                                "value": "0xdac17f958d2ee523a2206206994597c13d831ec7"
                            }
                        ],
                        "signature": "_QUOTE_TOKEN_()"
                    },
                    "errorInfo": "",
                    "fromAddress": "0x051ebd717311350f1684f89335bed4abd083a2b6",
                    "gasUsed": 1115,
                    "id": 19,
                    "methodDecoded": true,
                    "operation": "DELEGATECALL",
                    "output": "0x000000000000000000000000dac17f958d2ee523a2206206994597c13d831ec7",
                    "revert": false,
                    "revertMessage": "",
                    "selector": "0xd4b97046",
                    "status": true,
                    "value": "0"
                },
                "nodeType": 0
            },
            "2": {
                "invocation": {
                    "address": "0x2bbd66fc4898242bdbd2583bbe1d76e8b8f71445",
                    "callData": "0x",
                    "decodedMethod": {
                        "callParams": [],
                        "constructorArguments": "",
                        "name": "getVaultReserve",
                        "returnParams": [
                            {
                                "name": "baseReserve",
                                "type": "uint256",
                                "value": "134,897,917,762,348,532,103,754"
                            },
                            {
                                "name": "quoteReserve",
                                "type": "uint256",
                                "value": "1,150,965,863,028"
                            }
                        ],
                        "signature": "getVaultReserve()"
                    },
                    "errorInfo": "",
                    "fromAddress": "0x051ebd717311350f1684f89335bed4abd083a2b6",
                    "gasUsed": 1208,
                    "id": 2,
                    "methodDecoded": true,
                    "operation": "DELEGATECALL",
                    "output": "0x000000000000000000000000000000000000000000001c90d4adad0e619ffa4a0000000000000000000000000000000000000000000000000000010bfae95274",
                    "revert": false,
                    "revertMessage": "",
                    "selector": "0x36223ce9",
                    "status": true,
                    "value": "0"
                },
                "nodeType": 0
            },
            "20": {
                "invocation": {
                    "address": "0x051ebd717311350f1684f89335bed4abd083a2b6",
                    "callData": "0x00000000000000000000000095c4f5b83aa70810d4f142d58e5f7242bd891cb00000000000000000000000007f4e7fb900e0ec043718d05caee549805cab22c8000000000000000000000000f2df8794f8f99f1ba4d8adc468ebff2e47cd7010000000000000000000000000000000000000000000000000000aa87bee5380000000000000000000000000005e84190a270333ace5b9202a3f4cebf11b81bb0100000000000000000000000000000000000000000000000000000000000000010000000000000000000000000000000000000000000000000de0b6b3a76400000000000000000000000000000000000000000000000000000000000000000000",
                    "decodedMethod": {
                        "callParams": [
                            {
                                "name": "maintainer",
                                "type": "address",
                                "value": "0x95c4f5b83aa70810d4f142d58e5f7242bd891cb0"
                            },
                            {
                                "name": "baseTokenAddress",
                                "type": "address",
                                "value": "0x7f4e7fb900e0ec043718d05caee549805cab22c8"
                            },
                            {
                                "name": "quoteTokenAddress",
                                "type": "address",
                                "value": "0xf2df8794f8f99f1ba4d8adc468ebff2e47cd7010"
                            },
                            {
                                "name": "lpFeeRate",
                                "type": "uint256",
                                "value": "3,000,000,000,000,000"
                            },
                            {
                                "name": "mtFeeRateModel",
                                "type": "address",
                                "value": "0x5e84190a270333ace5b9202a3f4cebf11b81bb01"
                            },
                            {
                                "name": "i",
                                "type": "uint256",
                                "value": "1"
                            },
                            {
                                "name": "k",
                                "type": "uint256",
                                "value": "1,000,000,000,000,000,000"
                            },
                            {
                                "name": "isOpenTWAP",
                                "type": "bool",
                                "value": false
                            }
                        ],
                        "constructorArguments": "",
                        "name": "init",
                        "returnParams": [],
                        "signature": "init(address,address,address,uint256,address,uint256,uint256,bool)"
                    },
                    "errorInfo": "",
                    "fromAddress": "0x910fd17b9bfc42a6eea822912f036ef5a080be8a",
                    "gasUsed": 36241,
                    "id": 20,
                    "methodDecoded": true,
                    "operation": "CALL",
                    "output": "",
                    "revert": false,
                    "revertMessage": "",
                    "selector": "0x5039972a",
                    "status": true,
                    "value": "0"
                },
                "nodeType": 0
            },
            "21": {
                "invocation": {
                    "address": "0x2bbd66fc4898242bdbd2583bbe1d76e8b8f71445",
                    "callData": "0x00000000000000000000000095c4f5b83aa70810d4f142d58e5f7242bd891cb00000000000000000000000007f4e7fb900e0ec043718d05caee549805cab22c8000000000000000000000000f2df8794f8f99f1ba4d8adc468ebff2e47cd7010000000000000000000000000000000000000000000000000000aa87bee5380000000000000000000000000005e84190a270333ace5b9202a3f4cebf11b81bb0100000000000000000000000000000000000000000000000000000000000000010000000000000000000000000000000000000000000000000de0b6b3a76400000000000000000000000000000000000000000000000000000000000000000000",
                    "decodedMethod": {
                        "callParams": [
                            {
                                "name": "maintainer",
                                "type": "address",
                                "value": "0x95c4f5b83aa70810d4f142d58e5f7242bd891cb0"
                            },
                            {
                                "name": "baseTokenAddress",
                                "type": "address",
                                "value": "0x7f4e7fb900e0ec043718d05caee549805cab22c8"
                            },
                            {
                                "name": "quoteTokenAddress",
                                "type": "address",
                                "value": "0xf2df8794f8f99f1ba4d8adc468ebff2e47cd7010"
                            },
                            {
                                "name": "lpFeeRate",
                                "type": "uint256",
                                "value": "3,000,000,000,000,000"
                            },
                            {
                                "name": "mtFeeRateModel",
                                "type": "address",
                                "value": "0x5e84190a270333ace5b9202a3f4cebf11b81bb01"
                            },
                            {
                                "name": "i",
                                "type": "uint256",
                                "value": "1"
                            },
                            {
                                "name": "k",
                                "type": "uint256",
                                "value": "1,000,000,000,000,000,000"
                            },
                            {
                                "name": "isOpenTWAP",
                                "type": "bool",
                                "value": false
                            }
                        ],
                        "constructorArguments": "",
                        "name": "init",
                        "returnParams": [],
                        "signature": "init(address,address,address,uint256,address,uint256,uint256,bool)"
                    },
                    "errorInfo": "",
                    "fromAddress": "0x051ebd717311350f1684f89335bed4abd083a2b6",
                    "gasUsed": 35430,
                    "id": 21,
                    "methodDecoded": true,
                    "operation": "DELEGATECALL",
                    "output": "",
                    "revert": false,
                    "revertMessage": "",
                    "selector": "0x5039972a",
                    "status": true,
                    "value": "0"
                },
                "nodeType": 0
            },
            "22": {
                "invocation": {
                    "address": "0x7f4e7fb900e0ec043718d05caee549805cab22c8",
                    "callData": "0x",
                    "decodedMethod": {
                        "callParams": [],
                        "constructorArguments": "",
                        "name": "decimals",
                        "returnParams": [
                            {
                                "name": "",
                                "type": "uint256",
                                "value": "18"
                            }
                        ],
                        "signature": "decimals()"
                    },
                    "errorInfo": "",
                    "fromAddress": "0x051ebd717311350f1684f89335bed4abd083a2b6",
                    "gasUsed": 1764,
                    "id": 22,
                    "methodDecoded": true,
                    "operation": "STATICCALL",
                    "output": "0x0000000000000000000000000000000000000000000000000000000000000012",
                    "revert": false,
                    "revertMessage": "",
                    "selector": "0x313ce567",
                    "status": true,
                    "value": "0"
                },
                "nodeType": 0
            },
            "23": {
                "invocation": {
                    "address": "0x85351262f7474ebe23ffacd633cf20a491f1325d",
                    "callData": "0x",
                    "decodedMethod": {
                        "callParams": [],
                        "constructorArguments": "",
                        "name": "decimals",
                        "returnParams": [
                            {
                                "name": "",
                                "type": "uint256",
                                "value": "18"
                            }
                        ],
                        "signature": "decimals()"
                    },
                    "errorInfo": "",
                    "fromAddress": "0x7f4e7fb900e0ec043718d05caee549805cab22c8",
                    "gasUsed": 998,
                    "id": 23,
                    "methodDecoded": true,
                    "operation": "DELEGATECALL",
                    "output": "0x0000000000000000000000000000000000000000000000000000000000000012",
                    "revert": false,
                    "revertMessage": "",
                    "selector": "0x313ce567",
                    "status": true,
                    "value": "0"
                },
                "nodeType": 0
            },
            "24": {
                "invocation": {
                    "address": "0x7f4e7fb900e0ec043718d05caee549805cab22c8",
                    "callData": "0x000000000000000000000000051ebd717311350f1684f89335bed4abd083a2b6",
                    "decodedMethod": {
                        "callParams": [
                            {
                                "name": "owner",
                                "type": "address",
                                "value": "0x051ebd717311350f1684f89335bed4abd083a2b6"
                            }
                        ],
                        "constructorArguments": "",
                        "name": "balanceOf",
                        "returnParams": [
                            {
                                "decimalAvailable": true,
                                "name": "balance",
                                "type": "uint256",
                                "value": "134,897,917,762,348,532,113,754"
                            }
                        ],
                        "signature": "balanceOf(address)"
                    },
                    "errorInfo": "",
                    "fromAddress": "0x051ebd717311350f1684f89335bed4abd083a2b6",
                    "gasUsed": 1936,
                    "id": 24,
                    "methodDecoded": true,
                    "operation": "STATICCALL",
                    "output": "0x000000000000000000000000000000000000000000001c90d4adad0e61a0215a",
                    "revert": false,
                    "revertMessage": "",
                    "selector": "0x70a08231",
                    "status": true,
                    "value": "0"
                },
                "nodeType": 0
            },
            "25": {
                "invocation": {
                    "address": "0x85351262f7474ebe23ffacd633cf20a491f1325d",
                    "callData": "0x000000000000000000000000051ebd717311350f1684f89335bed4abd083a2b6",
                    "decodedMethod": {
                        "callParams": [
                            {
                                "name": "owner",
                                "type": "address",
                                "value": "0x051ebd717311350f1684f89335bed4abd083a2b6"
                            }
                        ],
                        "constructorArguments": "",
                        "name": "balanceOf",
                        "returnParams": [
                            {
                                "decimalAvailable": true,
                                "name": "balance",
                                "type": "uint256",
                                "value": "134,897,917,762,348,532,113,754"
                            }
                        ],
                        "signature": "balanceOf(address)"
                    },
                    "errorInfo": "",
                    "fromAddress": "0x7f4e7fb900e0ec043718d05caee549805cab22c8",
                    "gasUsed": 1164,
                    "id": 25,
                    "methodDecoded": true,
                    "operation": "DELEGATECALL",
                    "output": "0x000000000000000000000000000000000000000000001c90d4adad0e61a0215a",
                    "revert": false,
                    "revertMessage": "",
                    "selector": "0x70a08231",
                    "status": true,
                    "value": "0"
                },
                "nodeType": 0
            },
            "26": {
                "invocation": {
                    "address": "0xf2df8794f8f99f1ba4d8adc468ebff2e47cd7010",
                    "callData": "0x000000000000000000000000051ebd717311350f1684f89335bed4abd083a2b6",
                    "decodedMethod": {
                        "callParams": [
                            {
                                "name": "owner",
                                "type": "address",
                                "value": "0x051ebd717311350f1684f89335bed4abd083a2b6"
                            }
                        ],
                        "constructorArguments": "",
                        "name": "balanceOf",
                        "returnParams": [
                            {
                                "decimalAvailable": true,
                                "name": "balance",
                                "type": "uint256",
                                "value": "1,150,965,873,028"
                            }
                        ],
                        "signature": "balanceOf(address)"
                    },
                    "errorInfo": "",
                    "fromAddress": "0x051ebd717311350f1684f89335bed4abd083a2b6",
                    "gasUsed": 1936,
                    "id": 26,
                    "methodDecoded": true,
                    "operation": "STATICCALL",
                    "output": "0x0000000000000000000000000000000000000000000000000000010bfae97984",
                    "revert": false,
                    "revertMessage": "",
                    "selector": "0x70a08231",
                    "status": true,
                    "value": "0"
                },
                "nodeType": 0
            },
            "27": {
                "invocation": {
                    "address": "0x85351262f7474ebe23ffacd633cf20a491f1325d",
                    "callData": "0x000000000000000000000000051ebd717311350f1684f89335bed4abd083a2b6",
                    "decodedMethod": {
                        "callParams": [
                            {
                                "name": "owner",
                                "type": "address",
                                "value": "0x051ebd717311350f1684f89335bed4abd083a2b6"
                            }
                        ],
                        "constructorArguments": "",
                        "name": "balanceOf",
                        "returnParams": [
                            {
                                "decimalAvailable": true,
                                "name": "balance",
                                "type": "uint256",
                                "value": "1,150,965,873,028"
                            }
                        ],
                        "signature": "balanceOf(address)"
                    },
                    "errorInfo": "",
                    "fromAddress": "0xf2df8794f8f99f1ba4d8adc468ebff2e47cd7010",
                    "gasUsed": 1164,
                    "id": 27,
                    "methodDecoded": true,
                    "operation": "DELEGATECALL",
                    "output": "0x0000000000000000000000000000000000000000000000000000010bfae97984",
                    "revert": false,
                    "revertMessage": "",
                    "selector": "0x70a08231",
                    "status": true,
                    "value": "0"
                },
                "nodeType": 0
            },
            "28": {
                "invocation": {
                    "address": "0x7f4e7fb900e0ec043718d05caee549805cab22c8",
                    "callData": "0x000000000000000000000000051ebd717311350f1684f89335bed4abd083a2b6",
                    "decodedMethod": {
                        "callParams": [
                            {
                                "name": "owner",
                                "type": "address",
                                "value": "0x051ebd717311350f1684f89335bed4abd083a2b6"
                            }
                        ],
                        "constructorArguments": "",
                        "name": "balanceOf",
                        "returnParams": [
                            {
                                "decimalAvailable": true,
                                "name": "balance",
                                "type": "uint256",
                                "value": "134,897,917,762,348,532,113,754"
                            }
                        ],
                        "signature": "balanceOf(address)"
                    },
                    "errorInfo": "",
                    "fromAddress": "0x051ebd717311350f1684f89335bed4abd083a2b6",
                    "gasUsed": 1936,
                    "id": 28,
                    "methodDecoded": true,
                    "operation": "STATICCALL",
                    "output": "0x000000000000000000000000000000000000000000001c90d4adad0e61a0215a",
                    "revert": false,
                    "revertMessage": "",
                    "selector": "0x70a08231",
                    "status": true,
                    "value": "0"
                },
                "nodeType": 0
            },
            "29": {
                "invocation": {
                    "address": "0x85351262f7474ebe23ffacd633cf20a491f1325d",
                    "callData": "0x000000000000000000000000051ebd717311350f1684f89335bed4abd083a2b6",
                    "decodedMethod": {
                        "callParams": [
                            {
                                "name": "owner",
                                "type": "address",
                                "value": "0x051ebd717311350f1684f89335bed4abd083a2b6"
                            }
                        ],
                        "constructorArguments": "",
                        "name": "balanceOf",
                        "returnParams": [
                            {
                                "decimalAvailable": true,
                                "name": "balance",
                                "type": "uint256",
                                "value": "134,897,917,762,348,532,113,754"
                            }
                        ],
                        "signature": "balanceOf(address)"
                    },
                    "errorInfo": "",
                    "fromAddress": "0x7f4e7fb900e0ec043718d05caee549805cab22c8",
                    "gasUsed": 1164,
                    "id": 29,
                    "methodDecoded": true,
                    "operation": "DELEGATECALL",
                    "output": "0x000000000000000000000000000000000000000000001c90d4adad0e61a0215a",
                    "revert": false,
                    "revertMessage": "",
                    "selector": "0x70a08231",
                    "status": true,
                    "value": "0"
                },
                "nodeType": 0
            },
            "3": {
                "invocation": {
                    "address": "0x7f4e7fb900e0ec043718d05caee549805cab22c8",
                    "callData": "0x000000000000000000000000368a6558255bccac517da5106647d8182c571b23000000000000000000000000051ebd717311350f1684f89335bed4abd083a2b6000000000000000000000000000000000000000000001c90d4adad0e61a0215a",
                    "decodedMethod": {
                        "callParams": [
                            {
                                "name": "from",
                                "type": "address",
                                "value": "0x368a6558255bccac517da5106647d8182c571b23"
                            },
                            {
                                "name": "to",
                                "type": "address",
                                "value": "0x051ebd717311350f1684f89335bed4abd083a2b6"
                            },
                            {
                                "decimalAvailable": true,
                                "name": "amount",
                                "type": "uint256",
                                "value": "134,897,917,762,348,532,113,754"
                            }
                        ],
                        "constructorArguments": "",
                        "name": "transferFrom",
                        "returnParams": [
                            {
                                "name": "",
                                "type": "bool",
                                "value": true
                            }
                        ],
                        "signature": "transferFrom(address,address,uint256)"
                    },
                    "errorInfo": "",
                    "fromAddress": "0x910fd17b9bfc42a6eea822912f036ef5a080be8a",
                    "gasUsed": 38258,
                    "id": 3,
                    "methodDecoded": true,
                    "operation": "CALL",
                    "output": "0x0000000000000000000000000000000000000000000000000000000000000001",
                    "revert": false,
                    "revertMessage": "",
                    "selector": "0x23b872dd",
                    "status": true,
                    "value": "0"
                },
                "nodeType": 0
            },
            "30": {
                "invocation": {
                    "address": "0xf2df8794f8f99f1ba4d8adc468ebff2e47cd7010",
                    "callData": "0x000000000000000000000000051ebd717311350f1684f89335bed4abd083a2b6",
                    "decodedMethod": {
                        "callParams": [
                            {
                                "name": "owner",
                                "type": "address",
                                "value": "0x051ebd717311350f1684f89335bed4abd083a2b6"
                            }
                        ],
                        "constructorArguments": "",
                        "name": "balanceOf",
                        "returnParams": [
                            {
                                "decimalAvailable": true,
                                "name": "balance",
                                "type": "uint256",
                                "value": "1,150,965,873,028"
                            }
                        ],
                        "signature": "balanceOf(address)"
                    },
                    "errorInfo": "",
                    "fromAddress": "0x051ebd717311350f1684f89335bed4abd083a2b6",
                    "gasUsed": 1936,
                    "id": 30,
                    "methodDecoded": true,
                    "operation": "STATICCALL",
                    "output": "0x0000000000000000000000000000000000000000000000000000010bfae97984",
                    "revert": false,
                    "revertMessage": "",
                    "selector": "0x70a08231",
                    "status": true,
                    "value": "0"
                },
                "nodeType": 0
            },
            "31": {
                "invocation": {
                    "address": "0x85351262f7474ebe23ffacd633cf20a491f1325d",
                    "callData": "0x000000000000000000000000051ebd717311350f1684f89335bed4abd083a2b6",
                    "decodedMethod": {
                        "callParams": [
                            {
                                "name": "owner",
                                "type": "address",
                                "value": "0x051ebd717311350f1684f89335bed4abd083a2b6"
                            }
                        ],
                        "constructorArguments": "",
                        "name": "balanceOf",
                        "returnParams": [
                            {
                                "decimalAvailable": true,
                                "name": "balance",
                                "type": "uint256",
                                "value": "1,150,965,873,028"
                            }
                        ],
                        "signature": "balanceOf(address)"
                    },
                    "errorInfo": "",
                    "fromAddress": "0xf2df8794f8f99f1ba4d8adc468ebff2e47cd7010",
                    "gasUsed": 1164,
                    "id": 31,
                    "methodDecoded": true,
                    "operation": "DELEGATECALL",
                    "output": "0x0000000000000000000000000000000000000000000000000000010bfae97984",
                    "revert": false,
                    "revertMessage": "",
                    "selector": "0x70a08231",
                    "status": true,
                    "value": "0"
                },
                "nodeType": 0
            },
            "32": {
                "event": {
                    "contract": "0x051ebd717311350f1684f89335bed4abd083a2b6",
                    "decodedLog": {
                        "name": "DODOFlashLoan",
                        "params": [
                            {
                                "name": "borrower",
                                "type": "address",
                                "value": "0x910fd17b9bfc42a6eea822912f036ef5a080be8a"
                            },
                            {
                                "name": "assetTo",
                                "type": "address",
                                "value": "0x910fd17b9bfc42a6eea822912f036ef5a080be8a"
                            },
                            {
                                "name": "baseAmount",
                                "type": "uint256",
                                "value": "133,548,938,584,725,046,782,716"
                            },
                            {
                                "name": "quoteAmount",
                                "type": "uint256",
                                "value": "1,139,456,204,397"
                            }
                        ],
                        "signature": "DODOFlashLoan(address,address,uint256,uint256)"
                    },
                    "id": 32,
                    "logData": "0x000000000000000000000000910fd17b9bfc42a6eea822912f036ef5a080be8a000000000000000000000000910fd17b9bfc42a6eea822912f036ef5a080be8a000000000000000000000000000000000000000000001c47b3d4e634a3356afc000000000000000000000000000000000000000000000000000001094ce1de6d",
                    "logDecoded": true,
                    "operation": "EVENT",
                    "revert": false,
                    "status": true,
                    "topics": [
                        "0x0b82e93068db15abd9fbb2682c65462ea8a0a10582dce93a5664818e296f54eb"
                    ]
                },
                "nodeType": 1
            },
            "4": {
                "invocation": {
                    "address": "0x85351262f7474ebe23ffacd633cf20a491f1325d",
                    "callData": "0x000000000000000000000000368a6558255bccac517da5106647d8182c571b23000000000000000000000000051ebd717311350f1684f89335bed4abd083a2b6000000000000000000000000000000000000000000001c90d4adad0e61a0215a",
                    "decodedMethod": {
                        "callParams": [
                            {
                                "name": "from",
                                "type": "address",
                                "value": "0x368a6558255bccac517da5106647d8182c571b23"
                            },
                            {
                                "name": "to",
                                "type": "address",
                                "value": "0x051ebd717311350f1684f89335bed4abd083a2b6"
                            },
                            {
                                "decimalAvailable": true,
                                "name": "amount",
                                "type": "uint256",
                                "value": "134,897,917,762,348,532,113,754"
                            }
                        ],
                        "constructorArguments": "",
                        "name": "transferFrom",
                        "returnParams": [
                            {
                                "name": "",
                                "type": "bool",
                                "value": true
                            }
                        ],
                        "signature": "transferFrom(address,address,uint256)"
                    },
                    "errorInfo": "",
                    "fromAddress": "0x7f4e7fb900e0ec043718d05caee549805cab22c8",
                    "gasUsed": 37474,
                    "id": 4,
                    "methodDecoded": true,
                    "operation": "DELEGATECALL",
                    "output": "0x0000000000000000000000000000000000000000000000000000000000000001",
                    "revert": false,
                    "revertMessage": "",
                    "selector": "0x23b872dd",
                    "status": true,
                    "value": "0"
                },
                "nodeType": 0
            },
            "5": {
                "event": {
                    "contract": "0x7f4e7fb900e0ec043718d05caee549805cab22c8",
                    "decodedLog": {
                        "name": "Transfer",
                        "params": [
                            {
                                "name": "from",
                                "type": "address",
                                "value": "0x368a6558255bccac517da5106647d8182c571b23"
                            },
                            {
                                "name": "to",
                                "type": "address",
                                "value": "0x051ebd717311350f1684f89335bed4abd083a2b6"
                            },
                            {
                                "decimalAvailable": true,
                                "name": "amount",
                                "type": "uint256",
                                "value": "134,897,917,762,348,532,113,754"
                            }
                        ],
                        "signature": "Transfer(address,address,uint256)"
                    },
                    "id": 5,
                    "logData": "0x000000000000000000000000000000000000000000001c90d4adad0e61a0215a",
                    "logDecoded": true,
                    "operation": "EVENT",
                    "revert": false,
                    "status": true,
                    "topics": [
                        "0xddf252ad1be2c89b69c2b068fc378daa952ba7f163c4a11628f55a4df523b3ef",
                        "0x000000000000000000000000368a6558255bccac517da5106647d8182c571b23",
                        "0x000000000000000000000000051ebd717311350f1684f89335bed4abd083a2b6"
                    ]
                },
                "nodeType": 1
            },
            "6": {
                "invocation": {
                    "address": "0xf2df8794f8f99f1ba4d8adc468ebff2e47cd7010",
                    "callData": "0x000000000000000000000000368a6558255bccac517da5106647d8182c571b23000000000000000000000000051ebd717311350f1684f89335bed4abd083a2b60000000000000000000000000000000000000000000000000000010bfae97984",
                    "decodedMethod": {
                        "callParams": [
                            {
                                "name": "from",
                                "type": "address",
                                "value": "0x368a6558255bccac517da5106647d8182c571b23"
                            },
                            {
                                "name": "to",
                                "type": "address",
                                "value": "0x051ebd717311350f1684f89335bed4abd083a2b6"
                            },
                            {
                                "decimalAvailable": true,
                                "name": "amount",
                                "type": "uint256",
                                "value": "1,150,965,873,028"
                            }
                        ],
                        "constructorArguments": "",
                        "name": "transferFrom",
                        "returnParams": [
                            {
                                "name": "",
                                "type": "bool",
                                "value": true
                            }
                        ],
                        "signature": "transferFrom(address,address,uint256)"
                    },
                    "errorInfo": "",
                    "fromAddress": "0x910fd17b9bfc42a6eea822912f036ef5a080be8a",
                    "gasUsed": 38258,
                    "id": 6,
                    "methodDecoded": true,
                    "operation": "CALL",
                    "output": "0x0000000000000000000000000000000000000000000000000000000000000001",
                    "revert": false,
                    "revertMessage": "",
                    "selector": "0x23b872dd",
                    "status": true,
                    "value": "0"
                },
                "nodeType": 0
            },
            "7": {
                "invocation": {
                    "address": "0x85351262f7474ebe23ffacd633cf20a491f1325d",
                    "callData": "0x000000000000000000000000368a6558255bccac517da5106647d8182c571b23000000000000000000000000051ebd717311350f1684f89335bed4abd083a2b60000000000000000000000000000000000000000000000000000010bfae97984",
                    "decodedMethod": {
                        "callParams": [
                            {
                                "name": "from",
                                "type": "address",
                                "value": "0x368a6558255bccac517da5106647d8182c571b23"
                            },
                            {
                                "name": "to",
                                "type": "address",
                                "value": "0x051ebd717311350f1684f89335bed4abd083a2b6"
                            },
                            {
                                "decimalAvailable": true,
                                "name": "amount",
                                "type": "uint256",
                                "value": "1,150,965,873,028"
                            }
                        ],
                        "constructorArguments": "",
                        "name": "transferFrom",
                        "returnParams": [
                            {
                                "name": "",
                                "type": "bool",
                                "value": true
                            }
                        ],
                        "signature": "transferFrom(address,address,uint256)"
                    },
                    "errorInfo": "",
                    "fromAddress": "0xf2df8794f8f99f1ba4d8adc468ebff2e47cd7010",
                    "gasUsed": 37474,
                    "id": 7,
                    "methodDecoded": true,
                    "operation": "DELEGATECALL",
                    "output": "0x0000000000000000000000000000000000000000000000000000000000000001",
                    "revert": false,
                    "revertMessage": "",
                    "selector": "0x23b872dd",
                    "status": true,
                    "value": "0"
                },
                "nodeType": 0
            },
            "8": {
                "event": {
                    "contract": "0xf2df8794f8f99f1ba4d8adc468ebff2e47cd7010",
                    "decodedLog": {
                        "name": "Transfer",
                        "params": [
                            {
                                "name": "from",
                                "type": "address",
                                "value": "0x368a6558255bccac517da5106647d8182c571b23"
                            },
                            {
                                "name": "to",
                                "type": "address",
                                "value": "0x051ebd717311350f1684f89335bed4abd083a2b6"
                            },
                            {
                                "decimalAvailable": true,
                                "name": "amount",
                                "type": "uint256",
                                "value": "1,150,965,873,028"
                            }
                        ],
                        "signature": "Transfer(address,address,uint256)"
                    },
                    "id": 8,
                    "logData": "0x0000000000000000000000000000000000000000000000000000010bfae97984",
                    "logDecoded": true,
                    "operation": "EVENT",
                    "revert": false,
                    "status": true,
                    "topics": [
                        "0xddf252ad1be2c89b69c2b068fc378daa952ba7f163c4a11628f55a4df523b3ef",
                        "0x000000000000000000000000368a6558255bccac517da5106647d8182c571b23",
                        "0x000000000000000000000000051ebd717311350f1684f89335bed4abd083a2b6"
                    ]
                },
                "nodeType": 1
            },
            "9": {
                "invocation": {
                    "address": "0x051ebd717311350f1684f89335bed4abd083a2b6",
                    "callData": "0x000000000000000000000000000000000000000000001c47b3d4e634a3356afc000000000000000000000000000000000000000000000000000001094ce1de6d000000000000000000000000910fd17b9bfc42a6eea822912f036ef5a080be8a000000000000000000000000000000000000000000000000000000000000008000000000000000000000000000000000000000000000000000000000000000013100000000000000000000000000000000000000000000000000000000000000",
                    "decodedMethod": {
                        "callParams": [
                            {
                                "name": "baseAmount",
                                "type": "uint256",
                                "value": "133,548,938,584,725,046,782,716"
                            },
                            {
                                "name": "quoteAmount",
                                "type": "uint256",
                                "value": "1,139,456,204,397"
                            },
                            {
                                "name": "assetTo",
                                "type": "address",
                                "value": "0x910fd17b9bfc42a6eea822912f036ef5a080be8a"
                            },
                            {
                                "name": "data",
                                "type": "bytes",
                                "value": "0x31"
                            }
                        ],
                        "constructorArguments": "",
                        "name": "flashLoan",
                        "returnParams": [],
                        "signature": "flashLoan(uint256,uint256,address,bytes)"
                    },
                    "errorInfo": "",
                    "fromAddress": "0x910fd17b9bfc42a6eea822912f036ef5a080be8a",
                    "gasUsed": 191003,
                    "id": 9,
                    "methodDecoded": true,
                    "operation": "CALL",
                    "output": "",
                    "revert": false,
                    "revertMessage": "",
                    "selector": "0xd0a494e4",
                    "status": true,
                    "value": "0"
                },
                "nodeType": 0
            }
        },
        "gasFlame": [
            {
                "children": [
                    {
                        "children": [
                            {
                                "children": [],
                                "depth": 0,
                                "name": "Initial Gas",
                                "value": 21940
                            },
                            {
                                "children": [
                                    {
                                        "children": [
                                            {
                                                "children": [],
                                                "depth": 2,
                                                "name": "getVaultReserve",
                                                "value": 1208
                                            }
                                        ],
                                        "depth": 1,
                                        "name": "getVaultReserve",
                                        "value": 1980
                                    },
                                    {
                                        "children": [
                                            {
                                                "children": [],
                                                "depth": 2,
                                                "name": "transferFrom",
                                                "value": 37474
                                            }
                                        ],
                                        "depth": 1,
                                        "name": "transferFrom",
                                        "value": 38258
                                    },
                                    {
                                        "children": [
                                            {
                                                "children": [],
                                                "depth": 2,
                                                "name": "transferFrom",
                                                "value": 37474
                                            }
                                        ],
                                        "depth": 1,
                                        "name": "transferFrom",
                                        "value": 38258
                                    },
                                    {
                                        "children": [
                                            {
                                                "children": [
                                                    {
                                                        "children": [],
                                                        "depth": 3,
                                                        "name": "transfer",
                                                        "value": 30155
                                                    },
                                                    {
                                                        "children": [],
                                                        "depth": 3,
                                                        "name": "transfer",
                                                        "value": 34601
                                                    },
                                                    {
                                                        "children": [
                                                            {
                                                                "children": [
                                                                    {
                                                                        "children": [],
                                                                        "depth": 5,
                                                                        "name": "_BASE_TOKEN_",
                                                                        "value": 1160
                                                                    }
                                                                ],
                                                                "depth": 4,
                                                                "name": "_BASE_TOKEN_",
                                                                "value": 1926
                                                            },
                                                            {
                                                                "children": [
                                                                    {
                                                                        "children": [],
                                                                        "depth": 5,
                                                                        "name": "_QUOTE_TOKEN_",
                                                                        "value": 1115
                                                                    }
                                                                ],
                                                                "depth": 4,
                                                                "name": "_QUOTE_TOKEN_",
                                                                "value": 1881
                                                            },
                                                            {
                                                                "children": [
                                                                    {
                                                                        "children": [
                                                                            {
                                                                                "children": [
                                                                                    {
                                                                                        "children": [],
                                                                                        "depth": 7,
                                                                                        "name": "decimals",
                                                                                        "value": 998
                                                                                    }
                                                                                ],
                                                                                "depth": 6,
                                                                                "name": "decimals",
                                                                                "value": 1764
                                                                            }
                                                                        ],
                                                                        "depth": 5,
                                                                        "name": "init",
                                                                        "value": 35430
                                                                    }
                                                                ],
                                                                "depth": 4,
                                                                "name": "init",
                                                                "value": 36241
                                                            }
                                                        ],
                                                        "depth": 3,
                                                        "name": "DVMFlashLoanCall",
                                                        "value": 76726
                                                    },
                                                    {
                                                        "children": [
                                                            {
                                                                "children": [],
                                                                "depth": 4,
                                                                "name": "balanceOf",
                                                                "value": 1164
                                                            }
                                                        ],
                                                        "depth": 3,
                                                        "name": "balanceOf",
                                                        "value": 1936
                                                    },
                                                    {
                                                        "children": [
                                                            {
                                                                "children": [],
                                                                "depth": 4,
                                                                "name": "balanceOf",
                                                                "value": 1164
                                                            }
                                                        ],
                                                        "depth": 3,
                                                        "name": "balanceOf",
                                                        "value": 1936
                                                    },
                                                    {
                                                        "children": [
                                                            {
                                                                "children": [],
                                                                "depth": 4,
                                                                "name": "balanceOf",
                                                                "value": 1164
                                                            }
                                                        ],
                                                        "depth": 3,
                                                        "name": "balanceOf",
                                                        "value": 1936
                                                    },
                                                    {
                                                        "children": [
                                                            {
                                                                "children": [],
                                                                "depth": 4,
                                                                "name": "balanceOf",
                                                                "value": 1164
                                                            }
                                                        ],
                                                        "depth": 3,
                                                        "name": "balanceOf",
                                                        "value": 1936
                                                    }
                                                ],
                                                "depth": 2,
                                                "name": "flashLoan",
                                                "value": 190204
                                            }
                                        ],
                                        "depth": 1,
                                        "name": "flashLoan",
                                        "value": 191003
                                    }
                                ],
                                "depth": 0,
                                "name": "Executed Gas",
                                "value": 285176
                            }
                        ],
                        "depth": -1,
                        "name": "Actual Gas Used",
                        "value": 302916
                    },
                    {
                        "children": [],
                        "depth": -1,
                        "name": "Refunded Gas",
                        "value": 4200
                    }
                ],
                "depth": -2,
                "name": "Total Gas",
                "value": 307116
            }
        ],
        "isConfirmed": true,
        "mainTrace": [
            {
                "children": [
                    {
                        "children": [
                            {
                                "children": [
                                    {
                                        "children": [],
                                        "depth": 2,
                                        "id": 2,
                                        "order": 2
                                    }
                                ],
                                "depth": 1,
                                "id": 1,
                                "order": 1
                            },
                            {
                                "children": [
                                    {
                                        "children": [
                                            {
                                                "children": [],
                                                "depth": 3,
                                                "id": 5,
                                                "order": 5
                                            }
                                        ],
                                        "depth": 2,
                                        "id": 4,
                                        "order": 4
                                    }
                                ],
                                "depth": 1,
                                "id": 3,
                                "order": 3
                            },
                            {
                                "children": [
                                    {
                                        "children": [
                                            {
                                                "children": [],
                                                "depth": 3,
                                                "id": 8,
                                                "order": 8
                                            }
                                        ],
                                        "depth": 2,
                                        "id": 7,
                                        "order": 7
                                    }
                                ],
                                "depth": 1,
                                "id": 6,
                                "order": 6
                            },
                            {
                                "children": [
                                    {
                                        "children": [
                                            {
                                                "children": [
                                                    {
                                                        "children": [],
                                                        "depth": 4,
                                                        "id": 12,
                                                        "order": 12
                                                    }
                                                ],
                                                "depth": 3,
                                                "id": 11,
                                                "order": 11
                                            },
                                            {
                                                "children": [
                                                    {
                                                        "children": [],
                                                        "depth": 4,
                                                        "id": 14,
                                                        "order": 14
                                                    }
                                                ],
                                                "depth": 3,
                                                "id": 13,
                                                "order": 13
                                            },
                                            {
                                                "children": [
                                                    {
                                                        "children": [
                                                            {
                                                                "children": [],
                                                                "depth": 5,
                                                                "id": 17,
                                                                "order": 17
                                                            }
                                                        ],
                                                        "depth": 4,
                                                        "id": 16,
                                                        "order": 16
                                                    },
                                                    {
                                                        "children": [
                                                            {
                                                                "children": [],
                                                                "depth": 5,
                                                                "id": 19,
                                                                "order": 19
                                                            }
                                                        ],
                                                        "depth": 4,
                                                        "id": 18,
                                                        "order": 18
                                                    },
                                                    {
                                                        "children": [
                                                            {
                                                                "children": [
                                                                    {
                                                                        "children": [
                                                                            {
                                                                                "children": [],
                                                                                "depth": 7,
                                                                                "id": 23,
                                                                                "order": 23
                                                                            }
                                                                        ],
                                                                        "depth": 6,
                                                                        "id": 22,
                                                                        "order": 22
                                                                    }
                                                                ],
                                                                "depth": 5,
                                                                "id": 21,
                                                                "order": 21
                                                            }
                                                        ],
                                                        "depth": 4,
                                                        "id": 20,
                                                        "order": 20
                                                    }
                                                ],
                                                "depth": 3,
                                                "id": 15,
                                                "order": 15
                                            },
                                            {
                                                "children": [
                                                    {
                                                        "children": [],
                                                        "depth": 4,
                                                        "id": 25,
                                                        "order": 25
                                                    }
                                                ],
                                                "depth": 3,
                                                "id": 24,
                                                "order": 24
                                            },
                                            {
                                                "children": [
                                                    {
                                                        "children": [],
                                                        "depth": 4,
                                                        "id": 27,
                                                        "order": 27
                                                    }
                                                ],
                                                "depth": 3,
                                                "id": 26,
                                                "order": 26
                                            },
                                            {
                                                "children": [
                                                    {
                                                        "children": [],
                                                        "depth": 4,
                                                        "id": 29,
                                                        "order": 29
                                                    }
                                                ],
                                                "depth": 3,
                                                "id": 28,
                                                "order": 28
                                            },
                                            {
                                                "children": [
                                                    {
                                                        "children": [],
                                                        "depth": 4,
                                                        "id": 31,
                                                        "order": 31
                                                    }
                                                ],
                                                "depth": 3,
                                                "id": 30,
                                                "order": 30
                                            },
                                            {
                                                "children": [],
                                                "depth": 3,
                                                "id": 32,
                                                "order": 32
                                            }
                                        ],
                                        "depth": 2,
                                        "id": 10,
                                        "order": 10
                                    }
                                ],
                                "depth": 1,
                                "id": 9,
                                "order": 9
                            }
                        ],
                        "depth": 0,
                        "id": 0,
                        "order": 0
                    }
                ],
                "depth": -1,
                "id": -1,
                "order": -1
            }
        ],
        "mainTraceNodeCount": 33,
        "parentIdMap": {
            "0": -1,
            "1": 0,
            "10": 9,
            "11": 10,
            "12": 11,
            "13": 10,
            "14": 13,
            "15": 10,
            "16": 15,
            "17": 16,
            "18": 15,
            "19": 18,
            "2": 1,
            "20": 15,
            "21": 20,
            "22": 21,
            "23": 22,
            "24": 10,
            "25": 24,
            "26": 10,
            "27": 26,
            "28": 10,
            "29": 28,
            "3": 0,
            "30": 10,
            "31": 30,
            "32": 10,
            "4": 3,
            "5": 4,
            "6": 0,
            "7": 6,
            "8": 7,
            "9": 0
        },
        "tidyTrace": [
            {
                "children": [
                    {
                        "children": [
                            {
                                "children": [
                                    {
                                        "children": [
                                            {
                                                "children": [],
                                                "depth": 3,
                                                "id": 5,
                                                "order": 5
                                            }
                                        ],
                                        "depth": 2,
                                        "id": 4,
                                        "order": 4
                                    }
                                ],
                                "depth": 1,
                                "id": 3,
                                "order": 3
                            },
                            {
                                "children": [
                                    {
                                        "children": [
                                            {
                                                "children": [],
                                                "depth": 3,
                                                "id": 8,
                                                "order": 8
                                            }
                                        ],
                                        "depth": 2,
                                        "id": 7,
                                        "order": 7
                                    }
                                ],
                                "depth": 1,
                                "id": 6,
                                "order": 6
                            },
                            {
                                "children": [
                                    {
                                        "children": [
                                            {
                                                "children": [
                                                    {
                                                        "children": [],
                                                        "depth": 4,
                                                        "id": 12,
                                                        "order": 12
                                                    }
                                                ],
                                                "depth": 3,
                                                "id": 11,
                                                "order": 11
                                            },
                                            {
                                                "children": [
                                                    {
                                                        "children": [],
                                                        "depth": 4,
                                                        "id": 14,
                                                        "order": 14
                                                    }
                                                ],
                                                "depth": 3,
                                                "id": 13,
                                                "order": 13
                                            },
                                            {
                                                "children": [
                                                    {
                                                        "children": [
                                                            {
                                                                "children": [],
                                                                "depth": 5,
                                                                "id": 21,
                                                                "order": 21
                                                            }
                                                        ],
                                                        "depth": 4,
                                                        "id": 20,
                                                        "order": 20
                                                    }
                                                ],
                                                "depth": 3,
                                                "id": 15,
                                                "order": 15
                                            },
                                            {
                                                "children": [],
                                                "depth": 3,
                                                "id": 32,
                                                "order": 32
                                            }
                                        ],
                                        "depth": 2,
                                        "id": 10,
                                        "order": 10
                                    }
                                ],
                                "depth": 1,
                                "id": 9,
                                "order": 9
                            }
                        ],
                        "depth": 0,
                        "id": 0,
                        "order": 0
                    }
                ],
                "depth": -1,
                "id": -1,
                "order": -1
            }
        ],
        "tidyTraceNodeCount": 17
    },
    "state_change": {
        "stateChanges": [
            {
                "address": "0x051ebd717311350f1684f89335bed4abd083a2b6",
                "erc": "ERC-20",
                "slots": [
                    {
                        "current": "0x0000000000000000000000007f4e7fb900e0ec043718d05caee549805cab22c8",
                        "key": "0x0000000000000000000000000000000000000000000000000000000000000001",
                        "prev": "0x000000000000000000000000a0afaa285ce85974c3c881256cb7f225e3a1178a"
                    },
                    {
                        "current": "0x000000000000000000000000f2df8794f8f99f1ba4d8adc468ebff2e47cd7010",
                        "key": "0x0000000000000000000000000000000000000000000000000000000000000002",
                        "prev": "0x000000000000000000000000dac17f958d2ee523a2206206994597c13d831ec7"
                    },
                    {
                        "current": "0x000000000000000000000000010bfae97984000000001c90d4adad0e61a0215a",
                        "key": "0x0000000000000000000000000000000000000000000000000000000000000003",
                        "prev": "0x000000000000000000000000010bfae95274000000001c90d4adad0e619ffa4a"
                    }
                ],
                "storageVariables": [
                    {
                        "name": "_BASE_TOKEN_",
                        "type": "contract IERC20",
                        "value": {
                            "current": "0x7f4e7fb900e0ec043718d05caee549805cab22c8",
                            "prev": "0xa0afaa285ce85974c3c881256cb7f225e3a1178a",
                            "typeTag": 1
                        }
                    },
                    {
                        "name": "_QUOTE_TOKEN_",
                        "type": "contract IERC20",
                        "value": {
                            "current": "0xf2df8794f8f99f1ba4d8adc468ebff2e47cd7010",
                            "prev": "0xdac17f958d2ee523a2206206994597c13d831ec7",
                            "typeTag": 1
                        }
                    },
                    {
                        "name": "_BASE_RESERVE_",
                        "type": "uint112",
                        "value": {
                            "current": "134897917762348532113754",
                            "prev": "134897917762348532103754",
                            "typeTag": 1
                        }
                    },
                    {
                        "name": "_QUOTE_RESERVE_",
                        "type": "uint112",
                        "value": {
                            "current": "1150965873028",
                            "prev": "1150965863028",
                            "typeTag": 1
                        }
                    },
                    {
                        "name": "_BLOCK_TIMESTAMP_LAST_",
                        "type": "uint32",
                        "value": {
                            "current": "0",
                            "prev": "0",
                            "typeTag": 1
                        }
                    }
                ]
            },
            {
                "address": "0x7f4e7fb900e0ec043718d05caee549805cab22c8",
                "erc": "ERC-20",
                "slots": [
                    {
                        "current": "0x000000000000000000000000000000000000000000001c90d4adad0e61a0215a",
                        "key": "0x40ff167e766405adf785e368d8933b113d6f8a99b94e28556f369fb217c0fe6a",
                        "prev": "0x0000000000000000000000000000000000000000000000000000000000000000"
                    },
                    {
                        "current": "0x0000000000000000000000000000000000000000033b11abcb22d32e865fdea6",
                        "key": "0xc4142a3b72feb5b6f57fe5d463e1b0d7ee30e81c63d78b76321d73e5caa5ce01",
                        "prev": "0x0000000000000000000000000000000000000000033b2e3c9fd0803ce8000000"
                    },
                    {
                        "current": "0x0000000000000000000000000000000000000001431d0aa7ceb4277862d2011a",
                        "key": "0x792c55b55fcd0f2458b75210a69d27872b5683c76ce762886982e29868ffd00d",
                        "prev": "0x0000000000000000000000000000000000000001431d2738a361d486c4722274"
                    }
                ],
                "storageVariables": [
                    {
                        "name": "balances",
                        "type": "mapping(address => uint256)",
                        "value": {
                            "pairs": [
                                {
                                    "key": "0x051ebd717311350f1684f89335bed4abd083a2b6",
                                    "value": {
                                        "current": "134897917762348532113754",
                                        "prev": "0",
                                        "typeTag": 1
                                    }
                                },
                                {
                                    "key": "0x368a6558255bccac517da5106647d8182c571b23",
                                    "value": {
                                        "current": "99998767340228943715746578714",
                                        "prev": "99998902238146706064278692468",
                                        "typeTag": 1
                                    }
                                }
                            ],
                            "typeTag": 4
                        }
                    },
                    {
                        "name": "allowed",
                        "type": "mapping(address => mapping(address => uint256))",
                        "value": {
                            "pairs": [
                                {
                                    "key": "0x368a6558255bccac517da5106647d8182c571b23",
                                    "value": {
                                        "pairs": [
                                            {
                                                "key": "0x910fd17b9bfc42a6eea822912f036ef5a080be8a",
                                                "value": {
                                                    "current": "999865102082237651467886246",
                                                    "prev": "1000000000000000000000000000",
                                                    "typeTag": 1
                                                }
                                            }
                                        ],
                                        "typeTag": 4
                                    }
                                }
                            ],
                            "typeTag": 4
                        }
                    }
                ]
            },
            {
                "address": "0x910fd17b9bfc42a6eea822912f036ef5a080be8a",
                "erc": "",
                "slots": [
                    {
                        "current": "0x0000000000000000000000000000000000000000000000000000000000000001",
                        "key": "0x0000000000000000000000000000000000000000000000000000000000000000",
                        "prev": "0x0000000000000000000000000000000000000000000000000000000000000000"
                    }
                ],
                "storageVariables": []
            },
            {
                "address": "0xa0afaa285ce85974c3c881256cb7f225e3a1178a",
                "erc": "ERC-20",
                "slots": [
                    {
                        "current": "0x000000000000000000000000000000000000000000001c47b3d4e634a3356afc",
                        "key": "0xe43df9d7314a100267511899ee1e7acd26e5b44ab6d9d2e3cce172a8382c60e9",
                        "prev": "0x0000000000000000000000000000000000000000000000000000000000000000"
                    },
                    {
                        "current": "0x00000000000000000000000000000000000000000000004920d8c6d9be6a8f4e",
                        "key": "0xdf7db3be09851f5f66a4a3c954eab9dde76bc2b5aa9e1c1638c9ddfe3d45d0d1",
                        "prev": "0x000000000000000000000000000000000000000000001c90d4adad0e619ffa4a"
                    }
                ],
                "storageVariables": [
                    {
                        "name": "balances",
                        "type": "mapping(address => uint256)",
                        "value": {
                            "pairs": [
                                {
                                    "key": "0x051ebd717311350f1684f89335bed4abd083a2b6",
                                    "value": {
                                        "current": "1348979177623485321038",
                                        "prev": "134897917762348532103754",
                                        "typeTag": 1
                                    }
                                },
                                {
                                    "key": "0x910fd17b9bfc42a6eea822912f036ef5a080be8a",
                                    "value": {
                                        "current": "133548938584725046782716",
                                        "prev": "0",
                                        "typeTag": 1
                                    }
                                }
                            ],
                            "typeTag": 4
                        }
                    }
                ]
            },
            {
                "address": "0xdac17f958d2ee523a2206206994597c13d831ec7",
                "erc": "ERC-20",
                "slots": [
                    {
                        "current": "0x00000000000000000000000000000000000000000000000000000002ae077407",
                        "key": "0xd1c828dd8cb015122018b7a5b3d45570500b6041a1ef462bd5763eb10bf967c4",
                        "prev": "0x0000000000000000000000000000000000000000000000000000010bfae95274"
                    },
                    {
                        "current": "0x000000000000000000000000000000000000000000000000000001094ce1de6d",
                        "key": "0x5712c07dbdef40a8dcf85538dd92671bd42232f44594cb64ceaa3af6da2b2688",
                        "prev": "0x0000000000000000000000000000000000000000000000000000000000000000"
                    }
                ],
                "storageVariables": [
                    {
                        "name": "balances",
                        "type": "mapping(address => uint256)",
                        "value": {
                            "pairs": [
                                {
                                    "key": "0x051ebd717311350f1684f89335bed4abd083a2b6",
                                    "value": {
                                        "current": "11509658631",
                                        "prev": "1150965863028",
                                        "typeTag": 1
                                    }
                                },
                                {
                                    "key": "0x910fd17b9bfc42a6eea822912f036ef5a080be8a",
                                    "value": {
                                        "current": "1139456204397",
                                        "prev": "0",
                                        "typeTag": 1
                                    }
                                }
                            ],
                            "typeTag": 4
                        }
                    }
                ]
            },
            {
                "address": "0xf2df8794f8f99f1ba4d8adc468ebff2e47cd7010",
                "erc": "ERC-20",
                "slots": [
                    {
                        "current": "0x000000000000000000000000000000000000000000000000016343e290eb9ba7",
                        "key": "0x792c55b55fcd0f2458b75210a69d27872b5683c76ce762886982e29868ffd00d",
                        "prev": "0x000000000000000000000000000000000000000000000000016344ee8bd5152b"
                    },
                    {
                        "current": "0x0000000000000000000000000000000000000000000000000000010bfae97984",
                        "key": "0x40ff167e766405adf785e368d8933b113d6f8a99b94e28556f369fb217c0fe6a",
                        "prev": "0x0000000000000000000000000000000000000000000000000000000000000000"
                    },
                    {
                        "current": "0x0000000000000000000000000000000000000000033b2e3c9fd07f30ed16867c",
                        "key": "0xc4142a3b72feb5b6f57fe5d463e1b0d7ee30e81c63d78b76321d73e5caa5ce01",
                        "prev": "0x0000000000000000000000000000000000000000033b2e3c9fd0803ce8000000"
                    }
                ],
                "storageVariables": [
                    {
                        "name": "allowed",
                        "type": "mapping(address => mapping(address => uint256))",
                        "value": {
                            "pairs": [
                                {
                                    "key": "0x368a6558255bccac517da5106647d8182c571b23",
                                    "value": {
                                        "pairs": [
                                            {
                                                "key": "0x910fd17b9bfc42a6eea822912f036ef5a080be8a",
                                                "value": {
                                                    "current": "999999999999998849034126972",
                                                    "prev": "1000000000000000000000000000",
                                                    "typeTag": 1
                                                }
                                            }
                                        ],
                                        "typeTag": 4
                                    }
                                }
                            ],
                            "typeTag": 4
                        }
                    },
                    {
                        "name": "balances",
                        "type": "mapping(address => uint256)",
                        "value": {
                            "pairs": [
                                {
                                    "key": "0x051ebd717311350f1684f89335bed4abd083a2b6",
                                    "value": {
                                        "current": "1150965873028",
                                        "prev": "0",
                                        "typeTag": 1
                                    }
                                },
                                {
                                    "key": "0x368a6558255bccac517da5106647d8182c571b23",
                                    "value": {
                                        "current": "99998257105312679",
                                        "prev": "99999408071185707",
                                        "typeTag": 1
                                    }
                                }
                            ],
                            "typeTag": 4
                        }
                    }
                ]
            }
        ]
    }
}