{
    "balance_change": {
        "balanceChanges": [
            {
                "account": "0xbdbb5945f252bc3466a319cdcc3ee8056bf2e569",
                "assets": [
                    {
                        "address": "0x18aaa7115705e8be94bffebde57af9bfc265b998",
                        "amount": "18,564,497.819999999999735541",
                        "iconUrl": "",
                        "isERC1155": false,
                        "isERC721": false,
                        "sign": true,
                        "value": "1094227.689"
                    }
                ]
            },
            {
                "account": "0x4deca517d6817b6510798b7328f2314d3003abac",
                "assets": [
                    {
                        "address": "0x18aaa7115705e8be94bffebde57af9bfc265b998",
                        "amount": "18,564,497.819999999999735541",
                        "iconUrl": "",
                        "isERC1155": false,
                        "isERC721": false,
                        "sign": false,
                        "value": "1094227.689"
                    }
                ]
            }
        ]
    },
    "profile": {
        "basic_info": {
            "baseFee": "13.567545887",
            "blockNumber": 15201799,
            "callData": "0x543db4c40000000000000000000000000000000000000000000000000000000000000055",
            "debugEnable": true,
            "errorInfo": "",
            "eventCount": 3,
            "feeRecipient": "0x7f101fe45e6649a6fb8f3f8b43ed03d353f2b90c",
            "formatValue": "0",
            "gasLimit": 2000000,
            "gasPrice": "30",
            "gasUsed": 170218,
            "intTxnCount": 7,
            "internalRevert": false,
            "internalRevertMessage": "",
            "isContractCreation": false,
            "isFlashloan": false,
            "maxFee": "",
            "nonce": 5,
            "overwritedBlockNumber": -1,
            "priorityFee": "",
            "receiver": "0xbdbb5945f252bc3466a319cdcc3ee8056bf2e569",
            "revertMessage": "",
            "sender": "0xa0c7bd318d69424603cbf91e9969870f21b8ab4c",
            "simulationEnable": true,
            "sourceTxnHash": "0x4227bca8ed4b8915c7eec0e14ad3748a88c4371d4176e716e8007249b9980dc9",
            "status": true,
            "timestamp": "2022-07-23T23:11:36Z",
            "transactionFee": "0.00510654",
            "txnHash": "0x4227bca8ed4b8915c7eec0e14ad3748a88c4371d4176e716e8007249b9980dc9",
            "txnIndex": 8,
            "type": 0,
            "value": "0"
        },
        "fund_flow": [
            {
                "amount": "18,564,497.819999999999735541",
                "from": "0x4deca517d6817b6510798b7328f2314d3003abac",
                "id": 1,
                "isERC1155": false,
                "isERC721": false,
                "isReverted": false,
                "order": 1,
                "to": "0xbdbb5945f252bc3466a319cdcc3ee8056bf2e569",
                "token": "0x18aaa7115705e8be94bffebde57af9bfc265b998"
            }
        ],
        "token_infos": [
            {
                "address": "0x18aaa7115705e8be94bffebde57af9bfc265b998",
                "decimals": 18
            },
            {
                "address": "0xc02aaa39b223fe8d0a0e5c4f27ead9083c756cc2",
                "decimals": 18
            },
            {
                "address": "0xeeeeeeeeeeeeeeeeeeeeeeeeeeeeeeeeeeeeeeee",
                "decimals": 18
            }
        ]
    },
    "address_label": {
        "labels": [
            {
                "address": "0x18aaa7115705e8be94bffebde57af9bfc265b998",
                "label": "Audius: AUDIO Token"
            },
            {
                "address": "0x22a9ccfdd10382d9cd18ca4437ff375bd7a87bbd",
                "label": "AudiusToken"
            },
            {
                "address": "0x4deca517d6817b6510798b7328f2314d3003abac",
                "label": "Audius: Community Treasury"
            },
            {
                "address": "0x35dd16dfa4ea1522c29ddd087e8f076cad0ae5e8",
                "label": "Governance"
            },
            {
                "address": "0x0000000000000000000000000000000000000001",
                "label": "Precompiled"
            },
            {
                "address": "0x0000000000000000000000000000000000000004",
                "label": "Precompiled"
            },
            {
                "address": "0xeeeeeeeeeeeeeeeeeeeeeeeeeeeeeeeeeeeeeeee",
                "label": "Ether"
            },
            {
                "address": "0xea10fd3536fce6a5d40d55c790b96df33b26702f",
                "label": "Staking"
            },
            {
                "address": "0xe6d97b2099f142513be7a2a068be040656ae4591",
                "label": "AudiusAdminUpgradeabilityProxy"
            },
            {
                "address": "0xa0c7bd318d69424603cbf91e9969870f21b8ab4c",
                "label": "Audius Exploiter"
            },
            {
                "address": "0x0000000000000000000000000000000000000002",
                "label": "Precompiled"
            },
            {
                "address": "0x0000000000000000000000000000000000000003",
                "label": "Precompiled"
            }
        ]
    },
    "trace": {
        "accountLabels": null,
        "dataMap": {
            "-1": {
                "invocation": {
                    "address": "0xa0c7bd318d69424603cbf91e9969870f21b8ab4c",
                    "callData": "",
                    "decodedMethod": null,
                    "errorInfo": "",
                    "fromAddress": "",
                    "gasUsed": 0,
                    "id": -1,
                    "methodDecoded": false,
                    "operation": "",
                    "output": "",
                    "revert": false,
                    "revertMessage": "",
                    "selector": "",
                    "status": false,
                    "value": ""
                },
                "nodeType": 0
            },
            "0": {
                "invocation": {
                    "address": "0xbdbb5945f252bc3466a319cdcc3ee8056bf2e569",
                    "callData": "0x0000000000000000000000000000000000000000000000000000000000000055",
                    "decodedMethod": null,
                    "errorInfo": "",
                    "fromAddress": "0xa0c7bd318d69424603cbf91e9969870f21b8ab4c",
                    "gasUsed": 170218,
                    "id": 0,
                    "methodDecoded": false,
                    "operation": "CALL",
                    "output": "",
                    "revert": false,
                    "revertMessage": "",
                    "selector": "0x543db4c4",
                    "status": true,
                    "value": "0"
                },
                "nodeType": 0
            },
            "1": {
                "invocation": {
                    "address": "0x4deca517d6817b6510798b7328f2314d3003abac",
                    "callData": "0x0000000000000000000000000000000000000000000000000000000000000055",
                    "decodedMethod": {
                        "callParams": [
                            {
                                "name": "_proposalId",
                                "type": "uint256",
                                "value": "85"
                            }
                        ],
                        "constructorArguments": "",
                        "name": "evaluateProposalOutcome",
                        "returnParams": [
                            {
                                "name": "",
                                "type": "uint8",
                                "value": "2"
                            }
                        ],
                        "signature": "evaluateProposalOutcome(uint256)"
                    },
                    "errorInfo": "",
                    "fromAddress": "0xbdbb5945f252bc3466a319cdcc3ee8056bf2e569",
                    "gasUsed": 153389,
                    "id": 1,
                    "methodDecoded": true,
                    "operation": "CALL",
                    "output": "0x0000000000000000000000000000000000000000000000000000000000000002",
                    "revert": false,
                    "revertMessage": "",
                    "selector": "0x7476f748",
                    "status": true,
                    "value": "0"
                },
                "nodeType": 0
            },
            "10": {
                "event": {
                    "contract": "0x4deca517d6817b6510798b7328f2314d3003abac",
                    "decodedLog": {
                        "name": "ProposalOutcomeEvaluated",
                        "params": [
                            {
                                "name": "_proposalId",
                                "type": "uint256",
                                "value": "85"
                            },
                            {
                                "name": "_outcome",
                                "type": "uint8",
                                "value": "2"
                            },
                            {
                                "name": "_voteMagnitudeYes",
                                "type": "uint256",
                                "value": "10,000,000,000,000,000,000,000,000,000,000"
                            },
                            {
                                "name": "_voteMagnitudeNo",
                                "type": "uint256",
                                "value": "0"
                            },
                            {
                                "name": "_numVotes",
                                "type": "uint256",
                                "value": "1"
                            }
                        ],
                        "signature": "ProposalOutcomeEvaluated(uint256,uint8,uint256,uint256,uint256)"
                    },
                    "id": 10,
                    "logData": "0x000000000000000000000000000000000000007e37be2022c0914b268000000000000000000000000000000000000000000000000000000000000000000000000000000000000000000000000000000000000000000000000000000000000001",
                    "logDecoded": true,
                    "operation": "EVENT",
                    "revert": false,
                    "status": true,
                    "topics": [
                        "0xb5c05f2b4df457fb2a62ca282c87338fa901f0b7de530321f507d59859cc11cf",
                        "0x0000000000000000000000000000000000000000000000000000000000000055",
                        "0x0000000000000000000000000000000000000000000000000000000000000002"
                    ]
                },
                "nodeType": 1
            },
            "2": {
                "invocation": {
                    "address": "0x35dd16dfa4ea1522c29ddd087e8f076cad0ae5e8",
                    "callData": "0x0000000000000000000000000000000000000000000000000000000000000055",
                    "decodedMethod": {
                        "callParams": [
                            {
                                "name": "_proposalId",
                                "type": "uint256",
                                "value": "85"
                            }
                        ],
                        "constructorArguments": "",
                        "name": "evaluateProposalOutcome",
                        "returnParams": [
                            {
                                "name": "",
                                "type": "uint8",
                                "value": "2"
                            }
                        ],
                        "signature": "evaluateProposalOutcome(uint256)"
                    },
                    "errorInfo": "",
                    "fromAddress": "0x4deca517d6817b6510798b7328f2314d3003abac",
                    "gasUsed": 148391,
                    "id": 2,
                    "methodDecoded": true,
                    "operation": "DELEGATECALL",
                    "output": "0x0000000000000000000000000000000000000000000000000000000000000002",
                    "revert": false,
                    "revertMessage": "",
                    "selector": "0x7476f748",
                    "status": true,
                    "value": "0"
                },
                "nodeType": 0
            },
            "3": {
                "invocation": {
                    "address": "0xbdbb5945f252bc3466a319cdcc3ee8056bf2e569",
                    "callData": "0x3078000000000000000000000000000000000000000000000000000000000000",
                    "decodedMethod": {
                        "callParams": [
                            {
                                "name": "contractKey",
                                "type": "bytes32",
                                "value": "0x3078000000000000000000000000000000000000000000000000000000000000"
                            }
                        ],
                        "constructorArguments": "",
                        "name": "getContract",
                        "returnParams": [
                            {
                                "name": "",
                                "type": "address",
                                "value": "0x18aaa7115705e8be94bffebde57af9bfc265b998"
                            }
                        ],
                        "signature": "getContract(bytes32)"
                    },
                    "errorInfo": "",
                    "fromAddress": "0x4deca517d6817b6510798b7328f2314d3003abac",
                    "gasUsed": 383,
                    "id": 3,
                    "methodDecoded": true,
                    "operation": "STATICCALL",
                    "output": "0x00000000000000000000000018aaa7115705e8be94bffebde57af9bfc265b998",
                    "revert": false,
                    "revertMessage": "",
                    "selector": "0xe16c7d98",
                    "status": true,
                    "value": "0"
                },
                "nodeType": 0
            },
            "4": {
                "invocation": {
                    "address": "0xe6d97b2099f142513be7a2a068be040656ae4591",
                    "callData": "0x0000000000000000000000000000000000000000000000000000000000e7f602",
                    "decodedMethod": {
                        "callParams": [
                            {
                                "name": "_blockNumber",
                                "type": "uint256",
                                "value": "15,201,794"
                            }
                        ],
                        "constructorArguments": "",
                        "name": "totalStakedAt",
                        "returnParams": [
                            {
                                "name": "",
                                "type": "uint256",
                                "value": "20,000,357,056,668,494,479,746,388,146,790"
                            }
                        ],
                        "signature": "totalStakedAt(uint256)"
                    },
                    "errorInfo": "",
                    "fromAddress": "0x4deca517d6817b6510798b7328f2314d3003abac",
                    "gasUsed": 12567,
                    "id": 4,
                    "methodDecoded": true,
                    "operation": "STATICCALL",
                    "output": "0x00000000000000000000000000000000000000fc70a399f649dddc75a1073a66",
                    "revert": false,
                    "revertMessage": "",
                    "selector": "0xc9c53232",
                    "status": true,
                    "value": "0"
                },
                "nodeType": 0
            },
            "5": {
                "invocation": {
                    "address": "0xea10fd3536fce6a5d40d55c790b96df33b26702f",
                    "callData": "0x0000000000000000000000000000000000000000000000000000000000e7f602",
                    "decodedMethod": {
                        "callParams": [
                            {
                                "name": "_blockNumber",
                                "type": "uint256",
                                "value": "15,201,794"
                            }
                        ],
                        "constructorArguments": "",
                        "name": "totalStakedAt",
                        "returnParams": [
                            {
                                "name": "",
                                "type": "uint256",
                                "value": "20,000,357,056,668,494,479,746,388,146,790"
                            }
                        ],
                        "signature": "totalStakedAt(uint256)"
                    },
                    "errorInfo": "",
                    "fromAddress": "0xe6d97b2099f142513be7a2a068be040656ae4591",
                    "gasUsed": 7569,
                    "id": 5,
                    "methodDecoded": true,
                    "operation": "DELEGATECALL",
                    "output": "0x00000000000000000000000000000000000000fc70a399f649dddc75a1073a66",
                    "revert": false,
                    "revertMessage": "",
                    "selector": "0xc9c53232",
                    "status": true,
                    "value": "0"
                },
                "nodeType": 0
            },
            "6": {
                "invocation": {
                    "address": "0x18aaa7115705e8be94bffebde57af9bfc265b998",
                    "callData": "0x000000000000000000000000bdbb5945f252bc3466a319cdcc3ee8056bf2e5690000000000000000000000000000000000000000000f5b2f71812d138f71f6f5",
                    "decodedMethod": {
                        "callParams": [
                            {
                                "name": "to",
                                "type": "address",
                                "value": "0xbdbb5945f252bc3466a319cdcc3ee8056bf2e569"
                            },
                            {
                                "decimalAvailable": true,
                                "name": "value",
                                "type": "uint256",
                                "value": "18,564,497,819,999,999,999,735,541"
                            }
                        ],
                        "constructorArguments": "",
                        "name": "transfer",
                        "returnParams": [
                            {
                                "name": "",
                                "type": "bool",
                                "value": true
                            }
                        ],
                        "signature": "transfer(address,uint256)"
                    },
                    "errorInfo": "",
                    "fromAddress": "0x4deca517d6817b6510798b7328f2314d3003abac",
                    "gasUsed": 37235,
                    "id": 6,
                    "methodDecoded": true,
                    "operation": "CALL",
                    "output": "0x0000000000000000000000000000000000000000000000000000000000000001",
                    "revert": false,
                    "revertMessage": "",
                    "selector": "0xa9059cbb",
                    "status": true,
                    "value": "0"
                },
                "nodeType": 0
            },
            "7": {
                "invocation": {
                    "address": "0x22a9ccfdd10382d9cd18ca4437ff375bd7a87bbd",
                    "callData": "0x000000000000000000000000bdbb5945f252bc3466a319cdcc3ee8056bf2e5690000000000000000000000000000000000000000000f5b2f71812d138f71f6f5",
                    "decodedMethod": {
                        "callParams": [
                            {
                                "name": "to",
                                "type": "address",
                                "value": "0xbdbb5945f252bc3466a319cdcc3ee8056bf2e569"
                            },
                            {
                                "decimalAvailable": true,
                                "name": "value",
                                "type": "uint256",
                                "value": "18,564,497,819,999,999,999,735,541"
                            }
                        ],
                        "constructorArguments": "",
                        "name": "transfer",
                        "returnParams": [
                            {
                                "name": "",
                                "type": "bool",
                                "value": true
                            }
                        ],
                        "signature": "transfer(address,uint256)"
                    },
                    "errorInfo": "",
                    "fromAddress": "0x18aaa7115705e8be94bffebde57af9bfc265b998",
                    "gasUsed": 32234,
                    "id": 7,
                    "methodDecoded": true,
                    "operation": "DELEGATECALL",
                    "output": "0x0000000000000000000000000000000000000000000000000000000000000001",
                    "revert": false,
                    "revertMessage": "",
                    "selector": "0xa9059cbb",
                    "status": true,
                    "value": "0"
                },
                "nodeType": 0
            },
            "8": {
                "event": {
                    "contract": "0x18aaa7115705e8be94bffebde57af9bfc265b998",
                    "decodedLog": {
                        "name": "Transfer",
                        "params": [
                            {
                                "name": "from",
                                "type": "address",
                                "value": "0x4deca517d6817b6510798b7328f2314d3003abac"
                            },
                            {
                                "name": "to",
                                "type": "address",
                                "value": "0xbdbb5945f252bc3466a319cdcc3ee8056bf2e569"
                            },
                            {
                                "decimalAvailable": true,
                                "name": "value",
                                "type": "uint256",
                                "value": "18,564,497,819,999,999,999,735,541"
                            }
                        ],
                        "signature": "Transfer(address,address,uint256)"
                    },
                    "id": 8,
                    "logData": "0x0000000000000000000000000000000000000000000f5b2f71812d138f71f6f5",
                    "logDecoded": true,
                    "operation": "EVENT",
                    "revert": false,
                    "status": true,
                    "topics": [
                        "0xddf252ad1be2c89b69c2b068fc378daa952ba7f163c4a11628f55a4df523b3ef",
                        "0x0000000000000000000000004deca517d6817b6510798b7328f2314d3003abac",
                        "0x000000000000000000000000bdbb5945f252bc3466a319cdcc3ee8056bf2e569"
                    ]
                },
                "nodeType": 1
            },
            "9": {
                "event": {
                    "contract": "0x4deca517d6817b6510798b7328f2314d3003abac",
                    "decodedLog": {
                        "name": "ProposalTransactionExecuted",
                        "params": [
                            {
                                "name": "_proposalId",
                                "type": "uint256",
                                "value": "85"
                            },
                            {
                                "name": "_success",
                                "type": "bool",
                                "value": true
                            },
                            {
                                "name": "_returnData",
                                "type": "bytes",
                                "value": "0x0000000000000000000000000000000000000000000000000000000000000001"
                            }
                        ],
                        "signature": "ProposalTransactionExecuted(uint256,bool,bytes)"
                    },
                    "id": 9,
                    "logData": "0x000000000000000000000000000000000000000000000000000000000000002000000000000000000000000000000000000000000000000000000000000000200000000000000000000000000000000000000000000000000000000000000001",
                    "logDecoded": true,
                    "operation": "EVENT",
                    "revert": false,
                    "status": true,
                    "topics": [
                        "0xa85727613e00cfd4688ad13995391ed4b4cd9e493bcb978393d8fddeec804dbd",
                        "0x0000000000000000000000000000000000000000000000000000000000000055",
                        "0x0000000000000000000000000000000000000000000000000000000000000001"
                    ]
                },
                "nodeType": 1
            }
        },
        "gasFlame": [
            {
                "children": [
                    {
                        "children": [
                            {
                                "children": [],
                                "depth": 0,
                                "name": "Initial Gas",
                                "value": 21204
                            },
                            {
                                "children": [
                                    {
                                        "children": [
                                            {
                                                "children": [
                                                    {
                                                        "children": [],
                                                        "depth": 3,
                                                        "name": "getContract",
                                                        "value": 383
                                                    },
                                                    {
                                                        "children": [
                                                            {
                                                                "children": [],
                                                                "depth": 4,
                                                                "name": "totalStakedAt",
                                                                "value": 7569
                                                            }
                                                        ],
                                                        "depth": 3,
                                                        "name": "totalStakedAt",
                                                        "value": 12567
                                                    },
                                                    {
                                                        "children": [
                                                            {
                                                                "children": [],
                                                                "depth": 4,
                                                                "name": "transfer",
                                                                "value": 32234
                                                            }
                                                        ],
                                                        "depth": 3,
                                                        "name": "transfer",
                                                        "value": 37235
                                                    }
                                                ],
                                                "depth": 2,
                                                "name": "evaluateProposalOutcome",
                                                "value": 148391
                                            }
                                        ],
                                        "depth": 1,
                                        "name": "evaluateProposalOutcome",
                                        "value": 153389
                                    }
                                ],
                                "depth": 0,
                                "name": "Executed Gas",
                                "value": 158614
                            }
                        ],
                        "depth": -1,
                        "name": "Actual Gas Used",
                        "value": 170218
                    },
                    {
                        "children": [],
                        "depth": -1,
                        "name": "Refunded Gas",
                        "value": 9600
                    }
                ],
                "depth": -2,
                "name": "Total Gas",
                "value": 179818
            }
        ],
        "isConfirmed": true,
        "mainTrace": [
            {
                "children": [
                    {
                        "children": [
                            {
                                "children": [
                                    {
                                        "children": [
                                            {
                                                "children": [],
                                                "depth": 3,
                                                "id": 3,
                                                "order": 3
                                            },
                                            {
                                                "children": [
                                                    {
                                                        "children": [],
                                                        "depth": 4,
                                                        "id": 5,
                                                        "order": 5
                                                    }
                                                ],
                                                "depth": 3,
                                                "id": 4,
                                                "order": 4
                                            },
                                            {
                                                "children": [
                                                    {
                                                        "children": [
                                                            {
                                                                "children": [],
                                                                "depth": 5,
                                                                "id": 8,
                                                                "order": 8
                                                            }
                                                        ],
                                                        "depth": 4,
                                                        "id": 7,
                                                        "order": 7
                                                    }
                                                ],
                                                "depth": 3,
                                                "id": 6,
                                                "order": 6
                                            },
                                            {
                                                "children": [],
                                                "depth": 3,
                                                "id": 9,
                                                "order": 9
                                            },
                                            {
                                                "children": [],
                                                "depth": 3,
                                                "id": 10,
                                                "order": 10
                                            }
                                        ],
                                        "depth": 2,
                                        "id": 2,
                                        "order": 2
                                    }
                                ],
                                "depth": 1,
                                "id": 1,
                                "order": 1
                            }
                        ],
                        "depth": 0,
                        "id": 0,
                        "order": 0
                    }
                ],
                "depth": -1,
                "id": -1,
                "order": -1
            }
        ],
        "mainTraceNodeCount": 11,
        "parentIdMap": {
            "0": -1,
            "1": 0,
            "10": 2,
            "2": 1,
            "3": 2,
            "4": 2,
            "5": 4,
            "6": 2,
            "7": 6,
            "8": 7,
            "9": 2
        },
        "tidyTrace": [
            {
                "children": [
                    {
                        "children": [
                            {
                                "children": [
                                    {
                                        "children": [
                                            {
                                                "children": [
                                                    {
                                                        "children": [
                                                            {
                                                                "children": [],
                                                                "depth": 5,
                                                                "id": 8,
                                                                "order": 8
                                                            }
                                                        ],
                                                        "depth": 4,
                                                        "id": 7,
                                                        "order": 7
                                                    }
                                                ],
                                                "depth": 3,
                                                "id": 6,
                                                "order": 6
                                            },
                                            {
                                                "children": [],
                                                "depth": 3,
                                                "id": 9,
                                                "order": 9
                                            },
                                            {
                                                "children": [],
                                                "depth": 3,
                                                "id": 10,
                                                "order": 10
                                            }
                                        ],
                                        "depth": 2,
                                        "id": 2,
                                        "order": 2
                                    }
                                ],
                                "depth": 1,
                                "id": 1,
                                "order": 1
                            }
                        ],
                        "depth": 0,
                        "id": 0,
                        "order": 0
                    }
                ],
                "depth": -1,
                "id": -1,
                "order": -1
            }
        ],
        "tidyTraceNodeCount": 8
    },
    "state_change": {
        "stateChanges": [
            {
                "address": "0x18aaa7115705e8be94bffebde57af9bfc265b998",
                "erc": "ERC-20",
                "slots": [
                    {
                        "current": "0x0000000000000000000000000000000000000000000027b57d4489817d91f591",
                        "key": "0xe6e4cb32c6a2151ad8544d40aebef169f8f47dfb2562aa59a51a7e4a7234ae75",
                        "prev": "0x0000000000000000000000000000000000000000000f82e4eec5b6950d03ec86"
                    },
                    {
                        "current": "0x0000000000000000000000000000000000000000000f5b2f71812d138f71f6f5",
                        "key": "0x039dae196ce1f9121f463bdc33bd211f1dda514faca447ce0cf4737b710a2d08",
                        "prev": "0x0000000000000000000000000000000000000000000000000000000000000000"
                    }
                ],
                "storageVariables": [
                    {
                        "name": "_balances",
                        "type": "mapping(address => uint256)",
                        "value": {
                            "pairs": [
                                {
                                    "key": "0x4deca517d6817b6510798b7328f2314d3003abac",
                                    "value": {
                                        "current": "187520179999999999997329",
                                        "prev": "18752017999999999999732870",
                                        "typeTag": 1
                                    }
                                },
                                {
                                    "key": "0xbdbb5945f252bc3466a319cdcc3ee8056bf2e569",
                                    "value": {
                                        "current": "18564497819999999999735541",
                                        "prev": "0",
                                        "typeTag": 1
                                    }
                                }
                            ],
                            "typeTag": 4
                        }
                    }
                ]
            },
            {
                "address": "0x4deca517d6817b6510798b7328f2314d3003abac",
                "erc": "",
                "slots": [
                    {
                        "current": "0x0000000000000000000000000000000000000000000000000000000000000002",
                        "key": "0x49157b242564839087dcaef57fcbfdae9309e1ea00bce40edd87ee97d7eb19b3",
                        "prev": "0x0000000000000000000000000000000000000000000000000000000000000000"
                    },
                    {
                        "current": "0x0000000000000000000000000000000000000000000000000000000000000000",
                        "key": "0xece66cfdbd22e3f37d348a3d8e19074452862cd65fd4b9a11f0336d1ac6d1dc3",
                        "prev": "0x0000000000000000000000000000000000000000000000000000000000000055"
                    },
                    {
                        "current": "0x0000000000000000000000000000000000000000000000000000000000000000",
                        "key": "0x000000000000000000000000000000000000000000000000000000000000003d",
                        "prev": "0x0000000000000000000000000000000000000000000000000000000000000001"
                    }
                ],
                "storageVariables": [
                    {
                        "name": "proposals",
                        "type": "mapping(uint256 => struct Governance.Proposal)",
                        "value": {
                            "pairs": [
                                {
                                    "key": "85",
                                    "value": {
                                        "fields": [
                                            {
                                                "name": "callData",
                                                "type": "bytes",
                                                "value": {
                                                    "current": "0x000000000000000000000000bdbb5945f252bc3466a319cdcc3ee8056bf2e5690x0000000000000000000000000000000000000000000f5b2f71812d138f71f6f5",
                                                    "prev": "0x000000000000000000000000bdbb5945f252bc3466a319cdcc3ee8056bf2e5690x0000000000000000000000000000000000000000000f5b2f71812d138f71f6f5",
                                                    "typeTag": 1
                                                }
                                            },
                                            {
                                                "name": "outcome",
                                                "type": "enum Governance.Outcome",
                                                "value": {
                                                    "current": "2",
                                                    "prev": "0",
                                                    "typeTag": 1
                                                }
                                            }
                                        ],
                                        "typeTag": 3
                                    }
                                }
                            ],
                            "typeTag": 4
                        }
                    }
                ]
            }
        ]
    }
}