{
    "balance_change": {
        "balanceChanges": []
    },
    "profile": {
        "basic_info": {
            "baseFee": "",
            "blockNumber": 4501969,
            "callData": "0xcbf0b0c0000000000000000000000000ae7168deb525862f4fee37d987a971b385b96952",
            "debugEnable": true,
            "errorInfo": "",
            "eventCount": 1,
            "feeRecipient": "0x180ba8f73897c0cb26d76265fc7868cfd936e617",
            "formatValue": "0",
            "gasLimit": 108082,
            "gasPrice": "13.6",
            "gasUsed": 69082,
            "intTxnCount": 1,
            "internalRevert": false,
            "internalRevertMessage": "",
            "isContractCreation": false,
            "isFlashloan": false,
            "maxFee": "",
            "nonce": 89,
            "overwritedBlockNumber": -1,
            "priorityFee": "",
            "receiver": "0x863df6bfa4469f3ead0be8f9f2aae51c91a907b4",
            "revertMessage": "",
            "sender": "0xae7168deb525862f4fee37d987a971b385b96952",
            "simulationEnable": true,
            "sourceTxnHash": "0x47f7cff7a5e671884629c93b368cb18f58a993f4b19c2a53a8662e3f1482f690",
            "status": true,
            "timestamp": "2017-11-06T15:25:21Z",
            "transactionFee": "0.0009395152",
            "txnHash": "0x47f7cff7a5e671884629c93b368cb18f58a993f4b19c2a53a8662e3f1482f690",
            "txnIndex": 144,
            "type": 0,
            "value": "0"
        },
        "fund_flow": [],
        "token_infos": [
            {
                "address": "0xc02aaa39b223fe8d0a0e5c4f27ead9083c756cc2",
                "decimals": 18
            },
            {
                "address": "0xeeeeeeeeeeeeeeeeeeeeeeeeeeeeeeeeeeeeeeee",
                "decimals": 18
            }
        ]
    },
    "address_label": {
        "labels": [
            {
                "address": "0x0000000000000000000000000000000000000003",
                "label": "Precompiled"
            },
            {
                "address": "0x0000000000000000000000000000000000000004",
                "label": "Precompiled"
            },
            {
                "address": "0xeeeeeeeeeeeeeeeeeeeeeeeeeeeeeeeeeeeeeeee",
                "label": "Ether"
            },
            {
                "address": "0x863df6bfa4469f3ead0be8f9f2aae51c91a907b4",
                "label": "Parity Bug: Trigger"
            },
            {
                "address": "0x0000000000000000000000000000000000000001",
                "label": "Precompiled"
            },
            {
                "address": "0x0000000000000000000000000000000000000002",
                "label": "Precompiled"
            }
        ]
    },
    "trace": {
        "accountLabels": null,
        "dataMap": {
            "-1": {
                "invocation": {
                    "address": "0xae7168deb525862f4fee37d987a971b385b96952",
                    "callData": "",
                    "decodedMethod": null,
                    "errorInfo": "",
                    "fromAddress": "",
                    "gasUsed": 0,
                    "id": -1,
                    "methodDecoded": false,
                    "operation": "",
                    "output": "",
                    "revert": false,
                    "revertMessage": "",
                    "selector": "",
                    "status": false,
                    "value": ""
                },
                "nodeType": 0
            },
            "0": {
                "invocation": {
                    "address": "0x863df6bfa4469f3ead0be8f9f2aae51c91a907b4",
                    "callData": "0x000000000000000000000000ae7168deb525862f4fee37d987a971b385b96952",
                    "decodedMethod": {
                        "callParams": [
                            {
                                "name": "_to",
                                "type": "address",
                                "value": "0xae7168deb525862f4fee37d987a971b385b96952"
                            }
                        ],
                        "constructorArguments": "",
                        "name": "kill",
                        "returnParams": [],
                        "signature": "kill(address)"
                    },
                    "errorInfo": "",
                    "fromAddress": "0xae7168deb525862f4fee37d987a971b385b96952",
                    "gasUsed": 69082,
                    "id": 0,
                    "methodDecoded": true,
                    "operation": "CALL",
                    "output": "",
                    "revert": false,
                    "revertMessage": "",
                    "selector": "0xcbf0b0c0",
                    "status": true,
                    "value": "0"
                },
                "nodeType": 0
            },
            "1": {
                "event": {
                    "contract": "0x863df6bfa4469f3ead0be8f9f2aae51c91a907b4",
                    "decodedLog": {
                        "name": "Confirmation",
                        "params": [
                            {
                                "name": "owner",
                                "type": "address",
                                "value": "0xae7168deb525862f4fee37d987a971b385b96952"
                            },
                            {
                                "name": "operation",
                                "type": "bytes32",
                                "value": "0xc862e598e65d9e4a158a418413393d2378b62e32f11b7c8ddb93c92f5aac8af3"
                            }
                        ],
                        "signature": "Confirmation(address,bytes32)"
                    },
                    "id": 1,
                    "logData": "0x000000000000000000000000ae7168deb525862f4fee37d987a971b385b96952c862e598e65d9e4a158a418413393d2378b62e32f11b7c8ddb93c92f5aac8af3",
                    "logDecoded": true,
                    "operation": "EVENT",
                    "revert": false,
                    "status": true,
                    "topics": [
                        "0xe1c52dc63b719ade82e8bea94cc41a0d5d28e4aaf536adb5e9cccc9ff8c1aeda"
                    ]
                },
                "nodeType": 1
            },
            "2": {
                "invocation": {
                    "address": "0xae7168deb525862f4fee37d987a971b385b96952",
                    "callData": "",
                    "decodedMethod": null,
                    "errorInfo": "",
                    "fromAddress": "0x863df6bfa4469f3ead0be8f9f2aae51c91a907b4",
                    "gasUsed": 0,
                    "id": 2,
                    "methodDecoded": false,
                    "operation": "SELFDESTRUCT",
                    "output": "",
                    "revert": false,
                    "revertMessage": "",
                    "selector": "",
                    "status": true,
                    "value": "0"
                },
                "nodeType": 0
            }
        },
        "gasFlame": [
            {
                "children": [
                    {
                        "children": [
                            {
                                "children": [],
                                "depth": 0,
                                "name": "Initial Gas",
                                "value": 22680
                            },
                            {
                                "children": [
                                    {
                                        "children": [],
                                        "depth": 1,
                                        "name": "",
                                        "value": 0
                                    }
                                ],
                                "depth": 0,
                                "name": "Executed Gas",
                                "value": 85402
                            }
                        ],
                        "depth": -1,
                        "name": "Actual Gas Used",
                        "value": 69082
                    },
                    {
                        "children": [],
                        "depth": -1,
                        "name": "Refunded Gas",
                        "value": 39000
                    }
                ],
                "depth": -2,
                "name": "Total Gas",
                "value": 108082
            }
        ],
        "isConfirmed": true,
        "mainTrace": [
            {
                "children": [
                    {
                        "children": [
                            {
                                "children": [],
                                "depth": 1,
                                "id": 1,
                                "order": 1
                            },
                            {
                                "children": [],
                                "depth": 1,
                                "id": 2,
                                "order": 2
                            }
                        ],
                        "depth": 0,
                        "id": 0,
                        "order": 0
                    }
                ],
                "depth": -1,
                "id": -1,
                "order": -1
            }
        ],
        "mainTraceNodeCount": 3,
        "parentIdMap": {
            "0": -1,
            "1": 0,
            "2": 0
        },
        "tidyTrace": [
            {
                "children": [
                    {
                        "children": [
                            {
                                "children": [],
                                "depth": 1,
                                "id": 1,
                                "order": 1
                            },
                            {
                                "children": [],
                                "depth": 1,
                                "id": 2,
                                "order": 2
                            }
                        ],
                        "depth": 0,
                        "id": 0,
                        "order": 0
                    }
                ],
                "depth": -1,
                "id": -1,
                "order": -1
            }
        ],
        "tidyTraceNodeCount": 3
    },
    "state_change": {
        "stateChanges": [
            {
                "address": "0x863df6bfa4469f3ead0be8f9f2aae51c91a907b4",
                "erc": "",
                "slots": [
                    {
                        "current": "0x0000000000000000000000000000000000000000000000000000000000000001",
                        "key": "0x0000000000000000000000000000000000000000000000000000000000000107",
                        "prev": "0x0000000000000000000000000000000000000000000000000000000000000000"
                    }
                ],
                "storageVariables": []
            }
        ]
    }
}