{
    "balance_change": {
        "balanceChanges": []
    },
    "profile": {
        "basic_info": {
            "baseFee": "5.921315901",
            "blockNumber": 20331565,
            "callData": "0x6a761202000000000000000000000000fbffef83b1c172fe3bc86c1ccb036ab9f3efcaf20000000000000000000000000000000000000000000000000000000000000000000000000000000000000000000000000000000000000000000000000000014000000000000000000000000000000000000000000000000000000000000000010000000000000000000000000000000000000000000000000000000000000000000000000000000000000000000000000000000000000000000000000000000000000000000000000000000000000000000000000000000000000000000000000000000000000000000000000000000000000000000000000000000000000000000000000000000000000000000000000000000000000000000000000000000000000000000000000000000000000000000000000000000000000000000001a00000000000000000000000000000000000000000000000000000000000000024804e1f0a000000000000000000000000ef279c2ab14960aa319008cbea384b9f8ac35fc60000000000000000000000000000000000000000000000000000000000000000000000000000000000000000000000000000000000000000000001043da7c6bd7c130430cf662de3d9af067c4a0629f849e29003c40ad3979cd670720c3ceb3a61e38fb7166353e3262eb6554c3f6571807cf22f9bdc4a83a56441661f8e64a89386af2f223b8433a1df65db8f0ff60544b2f02c56ec02b640d6fb15a11f7dffda5b99b0292b5e02d0cc44508d7d8f994515358e9da3016d8098b2258820000000000000000000000000d967113224c354600b3151e27aaba53e3034f37200000000000000000000000000000000000000000000000000000000000000000140082eba0f71627a3451d47132b8f4c266bc9be2bebe4424848757d10f13e76963af0b543a2357765d9f290410e919301ad065f0f2efa1233eb8634c93111f0e2000000000000000000000000000000000000000000000000000000000",
            "debugEnable": true,
            "errorInfo": "",
            "eventCount": 1,
            "feeRecipient": "0x95222290dd7278aa3ddd389cc1e1d165cc4bafe5",
            "formatValue": "0",
            "gasLimit": 210000,
            "gasPrice": "9.221315901",
            "gasUsed": 73539,
            "intTxnCount": 5,
            "internalRevert": false,
            "internalRevertMessage": "",
            "isContractCreation": false,
            "isFlashloan": false,
            "maxFee": "15.5",
            "nonce": 2972,
            "overwritedBlockNumber": -1,
            "priorityFee": "3.3",
            "receiver": "0x27fd43babfbe83a81d14665b1a6fb8030a60c9b4",
            "revertMessage": "",
            "sender": "0xd967113224c354600b3151e27aaba53e3034f372",
            "simulationEnable": true,
            "sourceTxnHash": "0x48164d3adbab78c2cb9876f6e17f88e321097fcd14cadd57556866e4ef3e185d",
            "status": true,
            "timestamp": "2024-07-18T06:17:47Z",
            "transactionFee": "0.000678126350043639",
            "txnHash": "0x48164d3adbab78c2cb9876f6e17f88e321097fcd14cadd57556866e4ef3e185d",
            "txnIndex": 21,
            "type": 2,
            "value": "0"
        },
        "fund_flow": [],
        "token_infos": [
            {
                "address": "0xc02aaa39b223fe8d0a0e5c4f27ead9083c756cc2",
                "decimals": 18
            },
            {
                "address": "0xeeeeeeeeeeeeeeeeeeeeeeeeeeeeeeeeeeeeeeee",
                "decimals": 18
            }
        ]
    },
    "address_label": {
        "labels": [
            {
                "address": "0xd9db270c1b5e3bd161e8c8503c55ceabee709552",
                "label": "Safe: Singleton 1.3.0"
            },
            {
                "address": "0x27fd43babfbe83a81d14665b1a6fb8030a60c9b4",
                "label": "GnosisSafeProxy_27fd_c9b4"
            },
            {
                "address": "0x0000000000000000000000000000000000000001",
                "label": "Precompiled"
            },
            {
                "address": "0xeeeeeeeeeeeeeeeeeeeeeeeeeeeeeeeeeeeeeeee",
                "label": "Ether"
            },
            {
                "address": "0xd967113224c354600b3151e27aaba53e3034f372",
                "label": "WazirX Exchange Exploiter"
            },
            {
                "address": "0x0000000000000000000000000000000000000000",
                "label": "Null Address"
            },
            {
                "address": "0x0000000000000000000000000000000000000002",
                "label": "Precompiled"
            },
            {
                "address": "0x0000000000000000000000000000000000000003",
                "label": "Precompiled"
            },
            {
                "address": "0x0000000000000000000000000000000000000004",
                "label": "Precompiled"
            }
        ]
    },
    "trace": {
        "accountLabels": null,
        "dataMap": {
            "-1": {
                "invocation": {
                    "address": "0xd967113224c354600b3151e27aaba53e3034f372",
                    "callData": "",
                    "decodedMethod": null,
                    "errorInfo": "",
                    "fromAddress": "",
                    "gasUsed": 0,
                    "id": -1,
                    "methodDecoded": false,
                    "operation": "",
                    "output": "",
                    "revert": false,
                    "revertMessage": "",
                    "selector": "",
                    "status": false,
                    "value": ""
                },
                "nodeType": 0
            },
            "0": {
                "invocation": {
                    "address": "0x27fd43babfbe83a81d14665b1a6fb8030a60c9b4",
                    "callData": "0x000000000000000000000000fbffef83b1c172fe3bc86c1ccb036ab9f3efcaf20000000000000000000000000000000000000000000000000000000000000000000000000000000000000000000000000000000000000000000000000000014000000000000000000000000000000000000000000000000000000000000000010000000000000000000000000000000000000000000000000000000000000000000000000000000000000000000000000000000000000000000000000000000000000000000000000000000000000000000000000000000000000000000000000000000000000000000000000000000000000000000000000000000000000000000000000000000000000000000000000000000000000000000000000000000000000000000000000000000000000000000000000000000000000000000001a00000000000000000000000000000000000000000000000000000000000000024804e1f0a000000000000000000000000ef279c2ab14960aa319008cbea384b9f8ac35fc60000000000000000000000000000000000000000000000000000000000000000000000000000000000000000000000000000000000000000000001043da7c6bd7c130430cf662de3d9af067c4a0629f849e29003c40ad3979cd670720c3ceb3a61e38fb7166353e3262eb6554c3f6571807cf22f9bdc4a83a56441661f8e64a89386af2f223b8433a1df65db8f0ff60544b2f02c56ec02b640d6fb15a11f7dffda5b99b0292b5e02d0cc44508d7d8f994515358e9da3016d8098b2258820000000000000000000000000d967113224c354600b3151e27aaba53e3034f37200000000000000000000000000000000000000000000000000000000000000000140082eba0f71627a3451d47132b8f4c266bc9be2bebe4424848757d10f13e76963af0b543a2357765d9f290410e919301ad065f0f2efa1233eb8634c93111f0e2000000000000000000000000000000000000000000000000000000000",
                    "decodedMethod": {
                        "callParams": [
                            {
                                "name": "to",
                                "type": "address",
                                "value": "0xfbffef83b1c172fe3bc86c1ccb036ab9f3efcaf2"
                            },
                            {
                                "name": "value",
                                "type": "uint256",
                                "value": "0"
                            },
                            {
                                "name": "data",
                                "type": "bytes",
                                "value": "0x804e1f0a000000000000000000000000ef279c2ab14960aa319008cbea384b9f8ac35fc6"
                            },
                            {
                                "name": "operation",
                                "type": "uint8",
                                "value": "1"
                            },
                            {
                                "name": "safeTxGas",
                                "type": "uint256",
                                "value": "0"
                            },
                            {
                                "name": "baseGas",
                                "type": "uint256",
                                "value": "0"
                            },
                            {
                                "name": "gasPrice",
                                "type": "uint256",
                                "value": "0"
                            },
                            {
                                "name": "gasToken",
                                "type": "address",
                                "value": "0x0000000000000000000000000000000000000000"
                            },
                            {
                                "name": "refundReceiver",
                                "type": "address",
                                "value": "0x0000000000000000000000000000000000000000"
                            },
                            {
                                "name": "signatures",
                                "type": "bytes",
                                "value": "0x3da7c6bd7c130430cf662de3d9af067c4a0629f849e29003c40ad3979cd670720c3ceb3a61e38fb7166353e3262eb6554c3f6571807cf22f9bdc4a83a56441661f8e64a89386af2f223b8433a1df65db8f0ff60544b2f02c56ec02b640d6fb15a11f7dffda5b99b0292b5e02d0cc44508d7d8f994515358e9da3016d8098b2258820000000000000000000000000d967113224c354600b3151e27aaba53e3034f37200000000000000000000000000000000000000000000000000000000000000000140082eba0f71627a3451d47132b8f4c266bc9be2bebe4424848757d10f13e76963af0b543a2357765d9f290410e919301ad065f0f2efa1233eb8634c93111f0e20"
                            }
                        ],
                        "constructorArguments": "",
                        "name": "execTransaction",
                        "returnParams": [
                            {
                                "name": "success",
                                "type": "bool",
                                "value": true
                            }
                        ],
                        "signature": "execTransaction(address,uint256,bytes,uint8,uint256,uint256,uint256,address,address,bytes)"
                    },
                    "errorInfo": "",
                    "fromAddress": "0xd967113224c354600b3151e27aaba53e3034f372",
                    "gasUsed": 73539,
                    "id": 0,
                    "methodDecoded": true,
                    "operation": "CALL",
                    "output": "0x0000000000000000000000000000000000000000000000000000000000000001",
                    "revert": false,
                    "revertMessage": "",
                    "selector": "0x6a761202",
                    "status": true,
                    "value": "0"
                },
                "nodeType": 0
            },
            "1": {
                "invocation": {
                    "address": "0xd9db270c1b5e3bd161e8c8503c55ceabee709552",
                    "callData": "0x000000000000000000000000fbffef83b1c172fe3bc86c1ccb036ab9f3efcaf20000000000000000000000000000000000000000000000000000000000000000000000000000000000000000000000000000000000000000000000000000014000000000000000000000000000000000000000000000000000000000000000010000000000000000000000000000000000000000000000000000000000000000000000000000000000000000000000000000000000000000000000000000000000000000000000000000000000000000000000000000000000000000000000000000000000000000000000000000000000000000000000000000000000000000000000000000000000000000000000000000000000000000000000000000000000000000000000000000000000000000000000000000000000000000000001a00000000000000000000000000000000000000000000000000000000000000024804e1f0a000000000000000000000000ef279c2ab14960aa319008cbea384b9f8ac35fc60000000000000000000000000000000000000000000000000000000000000000000000000000000000000000000000000000000000000000000001043da7c6bd7c130430cf662de3d9af067c4a0629f849e29003c40ad3979cd670720c3ceb3a61e38fb7166353e3262eb6554c3f6571807cf22f9bdc4a83a56441661f8e64a89386af2f223b8433a1df65db8f0ff60544b2f02c56ec02b640d6fb15a11f7dffda5b99b0292b5e02d0cc44508d7d8f994515358e9da3016d8098b2258820000000000000000000000000d967113224c354600b3151e27aaba53e3034f37200000000000000000000000000000000000000000000000000000000000000000140082eba0f71627a3451d47132b8f4c266bc9be2bebe4424848757d10f13e76963af0b543a2357765d9f290410e919301ad065f0f2efa1233eb8634c93111f0e2000000000000000000000000000000000000000000000000000000000",
                    "decodedMethod": {
                        "callParams": [
                            {
                                "name": "to",
                                "type": "address",
                                "value": "0xfbffef83b1c172fe3bc86c1ccb036ab9f3efcaf2"
                            },
                            {
                                "name": "value",
                                "type": "uint256",
                                "value": "0"
                            },
                            {
                                "name": "data",
                                "type": "bytes",
                                "value": "0x804e1f0a000000000000000000000000ef279c2ab14960aa319008cbea384b9f8ac35fc6"
                            },
                            {
                                "name": "operation",
                                "type": "uint8",
                                "value": "1"
                            },
                            {
                                "name": "safeTxGas",
                                "type": "uint256",
                                "value": "0"
                            },
                            {
                                "name": "baseGas",
                                "type": "uint256",
                                "value": "0"
                            },
                            {
                                "name": "gasPrice",
                                "type": "uint256",
                                "value": "0"
                            },
                            {
                                "name": "gasToken",
                                "type": "address",
                                "value": "0x0000000000000000000000000000000000000000"
                            },
                            {
                                "name": "refundReceiver",
                                "type": "address",
                                "value": "0x0000000000000000000000000000000000000000"
                            },
                            {
                                "name": "signatures",
                                "type": "bytes",
                                "value": "0x3da7c6bd7c130430cf662de3d9af067c4a0629f849e29003c40ad3979cd670720c3ceb3a61e38fb7166353e3262eb6554c3f6571807cf22f9bdc4a83a56441661f8e64a89386af2f223b8433a1df65db8f0ff60544b2f02c56ec02b640d6fb15a11f7dffda5b99b0292b5e02d0cc44508d7d8f994515358e9da3016d8098b2258820000000000000000000000000d967113224c354600b3151e27aaba53e3034f37200000000000000000000000000000000000000000000000000000000000000000140082eba0f71627a3451d47132b8f4c266bc9be2bebe4424848757d10f13e76963af0b543a2357765d9f290410e919301ad065f0f2efa1233eb8634c93111f0e20"
                            }
                        ],
                        "constructorArguments": "",
                        "name": "execTransaction",
                        "returnParams": [
                            {
                                "name": "success",
                                "type": "bool",
                                "value": true
                            }
                        ],
                        "signature": "execTransaction(address,uint256,bytes,uint8,uint256,uint256,uint256,address,address,bytes)"
                    },
                    "errorInfo": "",
                    "fromAddress": "0x27fd43babfbe83a81d14665b1a6fb8030a60c9b4",
                    "gasUsed": 41351,
                    "id": 1,
                    "methodDecoded": true,
                    "operation": "DELEGATECALL",
                    "output": "0x0000000000000000000000000000000000000000000000000000000000000001",
                    "revert": false,
                    "revertMessage": "",
                    "selector": "0x6a761202",
                    "status": true,
                    "value": "0"
                },
                "nodeType": 0
            },
            "2": {
                "invocation": {
                    "address": "0x0000000000000000000000000000000000000001",
                    "callData": "0xc76e2f244f0d92cf0ff7f3947788e75dd198a5a7cf4ad9020ddc8346000000000000000000000000000000000000000000000000000000000000001b3da7c6bd7c130430cf662de3d9af067c4a0629f849e29003c40ad3979cd670720c3ceb3a61e38fb7166353e3262eb6554c3f6571807cf22f9bdc4a83a5644166",
                    "decodedMethod": {
                        "callParams": [
                            {
                                "name": "hash",
                                "type": "bytes32",
                                "value": "0x44496341c76e2f244f0d92cf0ff7f3947788e75dd198a5a7cf4ad9020ddc8346"
                            },
                            {
                                "name": "v",
                                "type": "uint256",
                                "value": "27"
                            },
                            {
                                "name": "r",
                                "type": "bytes32",
                                "value": "0x3da7c6bd7c130430cf662de3d9af067c4a0629f849e29003c40ad3979cd67072"
                            },
                            {
                                "name": "s",
                                "type": "bytes32",
                                "value": "0x0c3ceb3a61e38fb7166353e3262eb6554c3f6571807cf22f9bdc4a83a5644166"
                            }
                        ],
                        "constructorArguments": "",
                        "name": "ecrecover",
                        "returnParams": [
                            {
                                "name": "",
                                "type": "address",
                                "value": "0x9af78003cecc2383d9d576a49c0c6b17fc34ae34"
                            }
                        ],
                        "signature": "ecrecover(bytes32,uint256,bytes32,bytes32)"
                    },
                    "errorInfo": "",
                    "fromAddress": "0x27fd43babfbe83a81d14665b1a6fb8030a60c9b4",
                    "gasUsed": 3000,
                    "id": 2,
                    "methodDecoded": true,
                    "operation": "STATICCALL",
                    "output": "0x0000000000000000000000009af78003cecc2383d9d576a49c0c6b17fc34ae34",
                    "revert": false,
                    "revertMessage": "",
                    "selector": "0x44496341",
                    "status": true,
                    "value": "0"
                },
                "nodeType": 0
            },
            "3": {
                "invocation": {
                    "address": "0x0000000000000000000000000000000000000001",
                    "callData": "0xc76e2f244f0d92cf0ff7f3947788e75dd198a5a7cf4ad9020ddc8346000000000000000000000000000000000000000000000000000000000000001c8e64a89386af2f223b8433a1df65db8f0ff60544b2f02c56ec02b640d6fb15a11f7dffda5b99b0292b5e02d0cc44508d7d8f994515358e9da3016d8098b22588",
                    "decodedMethod": {
                        "callParams": [
                            {
                                "name": "hash",
                                "type": "bytes32",
                                "value": "0x44496341c76e2f244f0d92cf0ff7f3947788e75dd198a5a7cf4ad9020ddc8346"
                            },
                            {
                                "name": "v",
                                "type": "uint256",
                                "value": "28"
                            },
                            {
                                "name": "r",
                                "type": "bytes32",
                                "value": "0x8e64a89386af2f223b8433a1df65db8f0ff60544b2f02c56ec02b640d6fb15a1"
                            },
                            {
                                "name": "s",
                                "type": "bytes32",
                                "value": "0x1f7dffda5b99b0292b5e02d0cc44508d7d8f994515358e9da3016d8098b22588"
                            }
                        ],
                        "constructorArguments": "",
                        "name": "ecrecover",
                        "returnParams": [
                            {
                                "name": "",
                                "type": "address",
                                "value": "0xd83b89e261d02b0f2f9e384b44907f8d380e9af0"
                            }
                        ],
                        "signature": "ecrecover(bytes32,uint256,bytes32,bytes32)"
                    },
                    "errorInfo": "",
                    "fromAddress": "0x27fd43babfbe83a81d14665b1a6fb8030a60c9b4",
                    "gasUsed": 3000,
                    "id": 3,
                    "methodDecoded": true,
                    "operation": "STATICCALL",
                    "output": "0x000000000000000000000000d83b89e261d02b0f2f9e384b44907f8d380e9af0",
                    "revert": false,
                    "revertMessage": "",
                    "selector": "0x44496341",
                    "status": true,
                    "value": "0"
                },
                "nodeType": 0
            },
            "4": {
                "invocation": {
                    "address": "0x0000000000000000000000000000000000000001",
                    "callData": "0xc76e2f244f0d92cf0ff7f3947788e75dd198a5a7cf4ad9020ddc8346000000000000000000000000000000000000000000000000000000000000001c40082eba0f71627a3451d47132b8f4c266bc9be2bebe4424848757d10f13e76963af0b543a2357765d9f290410e919301ad065f0f2efa1233eb8634c93111f0e",
                    "decodedMethod": {
                        "callParams": [
                            {
                                "name": "hash",
                                "type": "bytes32",
                                "value": "0x44496341c76e2f244f0d92cf0ff7f3947788e75dd198a5a7cf4ad9020ddc8346"
                            },
                            {
                                "name": "v",
                                "type": "uint256",
                                "value": "28"
                            },
                            {
                                "name": "r",
                                "type": "bytes32",
                                "value": "0x40082eba0f71627a3451d47132b8f4c266bc9be2bebe4424848757d10f13e769"
                            },
                            {
                                "name": "s",
                                "type": "bytes32",
                                "value": "0x63af0b543a2357765d9f290410e919301ad065f0f2efa1233eb8634c93111f0e"
                            }
                        ],
                        "constructorArguments": "",
                        "name": "ecrecover",
                        "returnParams": [
                            {
                                "name": "",
                                "type": "address",
                                "value": "0xfa54b4085811aef6acf47d51b05fda188deae28b"
                            }
                        ],
                        "signature": "ecrecover(bytes32,uint256,bytes32,bytes32)"
                    },
                    "errorInfo": "",
                    "fromAddress": "0x27fd43babfbe83a81d14665b1a6fb8030a60c9b4",
                    "gasUsed": 3000,
                    "id": 4,
                    "methodDecoded": true,
                    "operation": "STATICCALL",
                    "output": "0x000000000000000000000000fa54b4085811aef6acf47d51b05fda188deae28b",
                    "revert": false,
                    "revertMessage": "",
                    "selector": "0x44496341",
                    "status": true,
                    "value": "0"
                },
                "nodeType": 0
            },
            "5": {
                "invocation": {
                    "address": "0xfbffef83b1c172fe3bc86c1ccb036ab9f3efcaf2",
                    "callData": "0x000000000000000000000000ef279c2ab14960aa319008cbea384b9f8ac35fc6",
                    "decodedMethod": null,
                    "errorInfo": "",
                    "fromAddress": "0x27fd43babfbe83a81d14665b1a6fb8030a60c9b4",
                    "gasUsed": 3118,
                    "id": 5,
                    "methodDecoded": false,
                    "operation": "DELEGATECALL",
                    "output": "",
                    "revert": false,
                    "revertMessage": "",
                    "selector": "0x804e1f0a",
                    "status": true,
                    "value": "0"
                },
                "nodeType": 0
            },
            "6": {
                "event": {
                    "contract": "0x27fd43babfbe83a81d14665b1a6fb8030a60c9b4",
                    "decodedLog": {
                        "name": "ExecutionSuccess",
                        "params": [
                            {
                                "name": "txHash",
                                "type": "bytes32",
                                "value": "0x4e82121a3bc2fb62c0b06ab5fff5ca965ceab4f51cc949c6e50d85ed63e6aa70"
                            },
                            {
                                "name": "payment",
                                "type": "uint256",
                                "value": "0"
                            }
                        ],
                        "signature": "ExecutionSuccess(bytes32,uint256)"
                    },
                    "id": 6,
                    "logData": "0x4e82121a3bc2fb62c0b06ab5fff5ca965ceab4f51cc949c6e50d85ed63e6aa700000000000000000000000000000000000000000000000000000000000000000",
                    "logDecoded": true,
                    "operation": "EVENT",
                    "revert": false,
                    "status": true,
                    "topics": [
                        "0x442e715f626346e8c54381002da614f62bee8d27386535b2521ec8540898556e"
                    ]
                },
                "nodeType": 1
            }
        },
        "gasFlame": [
            {
                "children": [
                    {
                        "children": [
                            {
                                "children": [],
                                "depth": 0,
                                "name": "Initial Gas",
                                "value": 27224
                            },
                            {
                                "children": [
                                    {
                                        "children": [
                                            {
                                                "children": [],
                                                "depth": 2,
                                                "name": "ecrecover",
                                                "value": 3000
                                            },
                                            {
                                                "children": [],
                                                "depth": 2,
                                                "name": "ecrecover",
                                                "value": 3000
                                            },
                                            {
                                                "children": [],
                                                "depth": 2,
                                                "name": "ecrecover",
                                                "value": 3000
                                            },
                                            {
                                                "children": [],
                                                "depth": 2,
                                                "name": "0x804e1f0a",
                                                "value": 3118
                                            }
                                        ],
                                        "depth": 1,
                                        "name": "execTransaction",
                                        "value": 41351
                                    }
                                ],
                                "depth": 0,
                                "name": "Executed Gas",
                                "value": 46315
                            }
                        ],
                        "depth": -1,
                        "name": "Actual Gas Used",
                        "value": 73539
                    },
                    {
                        "children": [],
                        "depth": -1,
                        "name": "Refunded Gas",
                        "value": 0
                    }
                ],
                "depth": -2,
                "name": "Total Gas",
                "value": 73539
            }
        ],
        "isConfirmed": true,
        "mainTrace": [
            {
                "children": [
                    {
                        "children": [
                            {
                                "children": [
                                    {
                                        "children": [],
                                        "depth": 2,
                                        "id": 2,
                                        "order": 2
                                    },
                                    {
                                        "children": [],
                                        "depth": 2,
                                        "id": 3,
                                        "order": 3
                                    },
                                    {
                                        "children": [],
                                        "depth": 2,
                                        "id": 4,
                                        "order": 4
                                    },
                                    {
                                        "children": [],
                                        "depth": 2,
                                        "id": 5,
                                        "order": 5
                                    },
                                    {
                                        "children": [],
                                        "depth": 2,
                                        "id": 6,
                                        "order": 6
                                    }
                                ],
                                "depth": 1,
                                "id": 1,
                                "order": 1
                            }
                        ],
                        "depth": 0,
                        "id": 0,
                        "order": 0
                    }
                ],
                "depth": -1,
                "id": -1,
                "order": -1
            }
        ],
        "mainTraceNodeCount": 7,
        "parentIdMap": {
            "0": -1,
            "1": 0,
            "2": 1,
            "3": 1,
            "4": 1,
            "5": 1,
            "6": 1
        },
        "tidyTrace": [
            {
                "children": [
                    {
                        "children": [
                            {
                                "children": [
                                    {
                                        "children": [],
                                        "depth": 2,
                                        "id": 5,
                                        "order": 5
                                    },
                                    {
                                        "children": [],
                                        "depth": 2,
                                        "id": 6,
                                        "order": 6
                                    }
                                ],
                                "depth": 1,
                                "id": 1,
                                "order": 1
                            }
                        ],
                        "depth": 0,
                        "id": 0,
                        "order": 0
                    }
                ],
                "depth": -1,
                "id": -1,
                "order": -1
            }
        ],
        "tidyTraceNodeCount": 4
    },
    "state_change": {
        "stateChanges": [
            {
                "address": "0x27fd43babfbe83a81d14665b1a6fb8030a60c9b4",
                "erc": "",
                "slots": [
                    {
                        "current": "0x00000000000000000000000000000000000000000000000000000000000006b7",
                        "key": "0x0000000000000000000000000000000000000000000000000000000000000005",
                        "prev": "0x00000000000000000000000000000000000000000000000000000000000006b6"
                    },
                    {
                        "current": "0x000000000000000000000000ef279c2ab14960aa319008cbea384b9f8ac35fc6",
                        "key": "0x0000000000000000000000000000000000000000000000000000000000000000",
                        "prev": "0x000000000000000000000000d9db270c1b5e3bd161e8c8503c55ceabee709552"
                    }
                ],
                "storageVariables": [
                    {
                        "name": "nonce",
                        "type": "uint256",
                        "value": {
                            "current": "1719",
                            "prev": "1718",
                            "typeTag": 1
                        }
                    },
                    {
                        "name": "singleton",
                        "type": "address",
                        "value": {
                            "current": "0xef279c2ab14960aa319008cbea384b9f8ac35fc6",
                            "prev": "0xd9db270c1b5e3bd161e8c8503c55ceabee709552",
                            "typeTag": 1
                        }
                    }
                ]
            }
        ]
    }
}