{
    "balance_change": {
        "balanceChanges": [
            {
                "account": "0x27fa2806f40cf808ac9cc43fa0726d9356bb1ecf",
                "assets": [
                    {
                        "address": "0xeeeeeeeeeeeeeeeeeeeeeeeeeeeeeeeeeeeeeeee",
                        "amount": "0.144",
                        "iconUrl": "https://assets.blocksec.com/icon/29c6a94b6fcda2094a4ef377d5e9d2b5763b528648a19b4d856d9d23cd54dac1.png",
                        "isERC1155": false,
                        "isERC721": false,
                        "sign": true,
                        "value": "1.28558556"
                    }
                ]
            },
            {
                "account": "0xa481b139a1a654ca19d2074f174f17d7534e8cec",
                "assets": [
                    {
                        "address": "0xeeeeeeeeeeeeeeeeeeeeeeeeeeeeeeeeeeeeeeee",
                        "amount": "0.16",
                        "iconUrl": "https://assets.blocksec.com/icon/29c6a94b6fcda2094a4ef377d5e9d2b5763b528648a19b4d856d9d23cd54dac1.png",
                        "isERC1155": false,
                        "isERC721": false,
                        "sign": false,
                        "value": "1.4284284"
                    }
                ]
            },
            {
                "account": "0x66122c6886b74b59eb77501b49534194cb220b9e",
                "assets": [
                    {
                        "address": "0xeeeeeeeeeeeeeeeeeeeeeeeeeeeeeeeeeeeeeeee",
                        "amount": "0.0112",
                        "iconUrl": "https://assets.blocksec.com/icon/29c6a94b6fcda2094a4ef377d5e9d2b5763b528648a19b4d856d9d23cd54dac1.png",
                        "isERC1155": false,
                        "isERC721": false,
                        "sign": true,
                        "value": "0.09998998"
                    }
                ]
            },
            {
                "account": "0xb7461cf331a3a940e69b9deea98fa43fd357f571",
                "assets": [
                    {
                        "address": "0xeeeeeeeeeeeeeeeeeeeeeeeeeeeeeeeeeeeeeeee",
                        "amount": "0.0048",
                        "iconUrl": "https://assets.blocksec.com/icon/29c6a94b6fcda2094a4ef377d5e9d2b5763b528648a19b4d856d9d23cd54dac1.png",
                        "isERC1155": false,
                        "isERC721": false,
                        "sign": true,
                        "value": "0.04285285"
                    }
                ]
            }
        ]
    },
    "profile": {
        "basic_info": {
            "baseFee": "25",
            "blockNumber": 35560012,
            "callData": "0xb51d053400000000000000000000000066122c6886b74b59eb77501b49534194cb220b9e0000000000000000000000000000000000000000000000000000000000000001",
            "debugEnable": true,
            "errorInfo": "",
            "eventCount": 1,
            "feeRecipient": "0x0100000000000000000000000000000000000000",
            "formatValue": "0",
            "gasLimit": 147714,
            "gasPrice": "25",
            "gasUsed": 121658,
            "intTxnCount": 5,
            "internalRevert": false,
            "internalRevertMessage": "",
            "isContractCreation": false,
            "isFlashloan": false,
            "maxFee": "",
            "nonce": 16,
            "overwritedBlockNumber": -1,
            "priorityFee": "",
            "receiver": "0xa481b139a1a654ca19d2074f174f17d7534e8cec",
            "revertMessage": "",
            "sender": "0x27fa2806f40cf808ac9cc43fa0726d9356bb1ecf",
            "simulationEnable": true,
            "sourceTxnHash": "0x49c5b3b414bf874689de9a5b98c55445659c2fd2ad6f8a3cdd4e0203937c395e",
            "status": true,
            "timestamp": "2023-09-23T15:11:10Z",
            "transactionFee": "0.00304145",
            "txnHash": "0x49c5b3b414bf874689de9a5b98c55445659c2fd2ad6f8a3cdd4e0203937c395e",
            "txnIndex": 3,
            "type": 0,
            "value": "0"
        },
        "fund_flow": [
            {
                "amount": "0.144",
                "from": "0xa481b139a1a654ca19d2074f174f17d7534e8cec",
                "id": 1,
                "isERC1155": false,
                "isERC721": false,
                "isReverted": false,
                "order": 1,
                "to": "0x27fa2806f40cf808ac9cc43fa0726d9356bb1ecf",
                "token": "0xeeeeeeeeeeeeeeeeeeeeeeeeeeeeeeeeeeeeeeee"
            },
            {
                "amount": "0.0048",
                "from": "0xa481b139a1a654ca19d2074f174f17d7534e8cec",
                "id": 2,
                "isERC1155": false,
                "isERC721": false,
                "isReverted": false,
                "order": 2,
                "to": "0xb7461cf331a3a940e69b9deea98fa43fd357f571",
                "token": "0xeeeeeeeeeeeeeeeeeeeeeeeeeeeeeeeeeeeeeeee"
            },
            {
                "amount": "0.0112",
                "from": "0xa481b139a1a654ca19d2074f174f17d7534e8cec",
                "id": 3,
                "isERC1155": false,
                "isERC721": false,
                "isReverted": false,
                "order": 3,
                "to": "0x66122c6886b74b59eb77501b49534194cb220b9e",
                "token": "0xeeeeeeeeeeeeeeeeeeeeeeeeeeeeeeeeeeeeeeee"
            }
        ],
        "token_infos": [
            {
                "address": "0xb31f66aa3c1e785363f0875a1b74e27b85fd66c7",
                "decimals": 18
            },
            {
                "address": "0xeeeeeeeeeeeeeeeeeeeeeeeeeeeeeeeeeeeeeeee",
                "decimals": 18
            }
        ]
    },
    "address_label": {
        "labels": [
            {
                "address": "0xeeeeeeeeeeeeeeeeeeeeeeeeeeeeeeeeeeeeeeee",
                "label": "AVAX"
            },
            {
                "address": "0xa481b139a1a654ca19d2074f174f17d7534e8cec",
                "label": "Stars Arena: Shares"
            },
            {
                "address": "0x0000000000000000000000000000000000000001",
                "label": "Precompiled"
            },
            {
                "address": "0x0000000000000000000000000000000000000002",
                "label": "Precompiled"
            },
            {
                "address": "0x0000000000000000000000000000000000000003",
                "label": "Precompiled"
            },
            {
                "address": "0x0000000000000000000000000000000000000004",
                "label": "Precompiled"
            }
        ]
    },
    "trace": {
        "accountLabels": null,
        "dataMap": {
            "-1": {
                "invocation": {
                    "address": "0x27fa2806f40cf808ac9cc43fa0726d9356bb1ecf",
                    "callData": "",
                    "decodedMethod": null,
                    "errorInfo": "",
                    "fromAddress": "",
                    "gasUsed": 0,
                    "id": -1,
                    "methodDecoded": false,
                    "operation": "",
                    "output": "",
                    "revert": false,
                    "revertMessage": "",
                    "selector": "",
                    "status": false,
                    "value": ""
                },
                "nodeType": 0
            },
            "0": {
                "invocation": {
                    "address": "0xa481b139a1a654ca19d2074f174f17d7534e8cec",
                    "callData": "0x00000000000000000000000066122c6886b74b59eb77501b49534194cb220b9e0000000000000000000000000000000000000000000000000000000000000001",
                    "decodedMethod": {
                        "callParams": [
                            {
                                "name": "sharesSubject",
                                "type": "address",
                                "value": "0x66122c6886b74b59eb77501b49534194cb220b9e"
                            },
                            {
                                "name": "amount",
                                "type": "uint256",
                                "value": "1"
                            }
                        ],
                        "constructorArguments": "",
                        "name": "sellShares",
                        "returnParams": [],
                        "signature": "sellShares(address,uint256)"
                    },
                    "errorInfo": "",
                    "fromAddress": "0x27fa2806f40cf808ac9cc43fa0726d9356bb1ecf",
                    "gasUsed": 121658,
                    "id": 0,
                    "methodDecoded": true,
                    "operation": "CALL",
                    "output": "",
                    "revert": false,
                    "revertMessage": "",
                    "selector": "0xb51d0534",
                    "status": true,
                    "value": "0"
                },
                "nodeType": 0
            },
            "1": {
                "invocation": {
                    "address": "0xe1c7a0ad11eaa720d942a09ee30f4a280ac768b9",
                    "callData": "0x00000000000000000000000066122c6886b74b59eb77501b49534194cb220b9e0000000000000000000000000000000000000000000000000000000000000001",
                    "decodedMethod": {
                        "callParams": [
                            {
                                "name": "sharesSubject",
                                "type": "address",
                                "value": "0x66122c6886b74b59eb77501b49534194cb220b9e"
                            },
                            {
                                "name": "amount",
                                "type": "uint256",
                                "value": "1"
                            }
                        ],
                        "constructorArguments": "",
                        "name": "sellShares",
                        "returnParams": [],
                        "signature": "sellShares(address,uint256)"
                    },
                    "errorInfo": "",
                    "fromAddress": "0xa481b139a1a654ca19d2074f174f17d7534e8cec",
                    "gasUsed": 92926,
                    "id": 1,
                    "methodDecoded": true,
                    "operation": "DELEGATECALL",
                    "output": "",
                    "revert": false,
                    "revertMessage": "",
                    "selector": "0xb51d0534",
                    "status": true,
                    "value": "0"
                },
                "nodeType": 0
            },
            "2": {
                "invocation": {
                    "address": "0x27fa2806f40cf808ac9cc43fa0726d9356bb1ecf",
                    "callData": "0x",
                    "decodedMethod": null,
                    "errorInfo": "",
                    "fromAddress": "0xa481b139a1a654ca19d2074f174f17d7534e8cec",
                    "gasUsed": 0,
                    "id": 2,
                    "methodDecoded": false,
                    "operation": "CALL",
                    "output": "",
                    "revert": false,
                    "revertMessage": "",
                    "selector": "fallback",
                    "status": true,
                    "value": "0.144"
                },
                "nodeType": 0
            },
            "3": {
                "invocation": {
                    "address": "0xb7461cf331a3a940e69b9deea98fa43fd357f571",
                    "callData": "0x",
                    "decodedMethod": null,
                    "errorInfo": "",
                    "fromAddress": "0xa481b139a1a654ca19d2074f174f17d7534e8cec",
                    "gasUsed": 0,
                    "id": 3,
                    "methodDecoded": false,
                    "operation": "CALL",
                    "output": "",
                    "revert": false,
                    "revertMessage": "",
                    "selector": "fallback",
                    "status": true,
                    "value": "0.0032"
                },
                "nodeType": 0
            },
            "4": {
                "invocation": {
                    "address": "0x66122c6886b74b59eb77501b49534194cb220b9e",
                    "callData": "0x",
                    "decodedMethod": null,
                    "errorInfo": "",
                    "fromAddress": "0xa481b139a1a654ca19d2074f174f17d7534e8cec",
                    "gasUsed": 0,
                    "id": 4,
                    "methodDecoded": false,
                    "operation": "CALL",
                    "output": "",
                    "revert": false,
                    "revertMessage": "",
                    "selector": "fallback",
                    "status": true,
                    "value": "0.0112"
                },
                "nodeType": 0
            },
            "5": {
                "invocation": {
                    "address": "0xb7461cf331a3a940e69b9deea98fa43fd357f571",
                    "callData": "0x",
                    "decodedMethod": null,
                    "errorInfo": "",
                    "fromAddress": "0xa481b139a1a654ca19d2074f174f17d7534e8cec",
                    "gasUsed": 0,
                    "id": 5,
                    "methodDecoded": false,
                    "operation": "CALL",
                    "output": "",
                    "revert": false,
                    "revertMessage": "",
                    "selector": "fallback",
                    "status": true,
                    "value": "0.0016"
                },
                "nodeType": 0
            },
            "6": {
                "event": {
                    "contract": "0xa481b139a1a654ca19d2074f174f17d7534e8cec",
                    "decodedLog": {
                        "name": "Trade",
                        "params": [
                            {
                                "name": "trader",
                                "type": "address",
                                "value": "0x27fa2806f40cf808ac9cc43fa0726d9356bb1ecf"
                            },
                            {
                                "name": "subject",
                                "type": "address",
                                "value": "0x66122c6886b74b59eb77501b49534194cb220b9e"
                            },
                            {
                                "name": "isBuy",
                                "type": "bool",
                                "value": false
                            },
                            {
                                "name": "shareAmount",
                                "type": "uint256",
                                "value": "1"
                            },
                            {
                                "name": "amount",
                                "type": "uint256",
                                "value": "160,000,000,000,000,000"
                            },
                            {
                                "name": "protocolAmount",
                                "type": "uint256",
                                "value": "3,200,000,000,000,000"
                            },
                            {
                                "name": "subjectAmount",
                                "type": "uint256",
                                "value": "11,200,000,000,000,000"
                            },
                            {
                                "name": "referralAmount",
                                "type": "uint256",
                                "value": "1,600,000,000,000,000"
                            },
                            {
                                "name": "supply",
                                "type": "uint256",
                                "value": "8"
                            },
                            {
                                "name": "buyPrice",
                                "type": "uint256",
                                "value": "160,000,000,000,000,000"
                            },
                            {
                                "name": "myShares",
                                "type": "uint256",
                                "value": "0"
                            }
                        ],
                        "signature": "Trade(address,address,bool,uint256,uint256,uint256,uint256,uint256,uint256,uint256,uint256)"
                    },
                    "id": 6,
                    "logData": "0x00000000000000000000000027fa2806f40cf808ac9cc43fa0726d9356bb1ecf00000000000000000000000066122c6886b74b59eb77501b49534194cb220b9e0000000000000000000000000000000000000000000000000000000000000000000000000000000000000000000000000000000000000000000000000000000100000000000000000000000000000000000000000000000002386f26fc100000000000000000000000000000000000000000000000000000000b5e620f4800000000000000000000000000000000000000000000000000000027ca57357c00000000000000000000000000000000000000000000000000000005af3107a40000000000000000000000000000000000000000000000000000000000000000000800000000000000000000000000000000000000000000000002386f26fc1000000000000000000000000000000000000000000000000000000000000000000000",
                    "logDecoded": true,
                    "operation": "EVENT",
                    "revert": false,
                    "status": true,
                    "topics": [
                        "0xc9d4f93ded9b42fa24561e02b2a40f720f71601eb1b3f7b3fd4eff20877639ee"
                    ]
                },
                "nodeType": 1
            }
        },
        "gasFlame": [
            {
                "children": [
                    {
                        "children": [
                            {
                                "children": [],
                                "depth": 0,
                                "name": "Initial Gas",
                                "value": 21572
                            },
                            {
                                "children": [
                                    {
                                        "children": [
                                            {
                                                "children": [],
                                                "depth": 2,
                                                "name": "fallback",
                                                "value": 0
                                            },
                                            {
                                                "children": [],
                                                "depth": 2,
                                                "name": "fallback",
                                                "value": 0
                                            },
                                            {
                                                "children": [],
                                                "depth": 2,
                                                "name": "fallback",
                                                "value": 0
                                            },
                                            {
                                                "children": [],
                                                "depth": 2,
                                                "name": "fallback",
                                                "value": 0
                                            }
                                        ],
                                        "depth": 1,
                                        "name": "sellShares",
                                        "value": 92926
                                    }
                                ],
                                "depth": 0,
                                "name": "Executed Gas",
                                "value": 100086
                            }
                        ],
                        "depth": -1,
                        "name": "Actual Gas Used",
                        "value": 121658
                    },
                    {
                        "children": [],
                        "depth": -1,
                        "name": "Refunded Gas",
                        "value": 0
                    }
                ],
                "depth": -2,
                "name": "Total Gas",
                "value": 121658
            }
        ],
        "isConfirmed": true,
        "mainTrace": [
            {
                "children": [
                    {
                        "children": [
                            {
                                "children": [
                                    {
                                        "children": [],
                                        "depth": 2,
                                        "id": 2,
                                        "order": 2
                                    },
                                    {
                                        "children": [],
                                        "depth": 2,
                                        "id": 3,
                                        "order": 3
                                    },
                                    {
                                        "children": [],
                                        "depth": 2,
                                        "id": 4,
                                        "order": 4
                                    },
                                    {
                                        "children": [],
                                        "depth": 2,
                                        "id": 5,
                                        "order": 5
                                    },
                                    {
                                        "children": [],
                                        "depth": 2,
                                        "id": 6,
                                        "order": 6
                                    }
                                ],
                                "depth": 1,
                                "id": 1,
                                "order": 1
                            }
                        ],
                        "depth": 0,
                        "id": 0,
                        "order": 0
                    }
                ],
                "depth": -1,
                "id": -1,
                "order": -1
            }
        ],
        "mainTraceNodeCount": 7,
        "parentIdMap": {
            "0": -1,
            "1": 0,
            "2": 1,
            "3": 1,
            "4": 1,
            "5": 1,
            "6": 1
        },
        "tidyTrace": [
            {
                "children": [
                    {
                        "children": [
                            {
                                "children": [
                                    {
                                        "children": [],
                                        "depth": 2,
                                        "id": 2,
                                        "order": 2
                                    },
                                    {
                                        "children": [],
                                        "depth": 2,
                                        "id": 3,
                                        "order": 3
                                    },
                                    {
                                        "children": [],
                                        "depth": 2,
                                        "id": 4,
                                        "order": 4
                                    },
                                    {
                                        "children": [],
                                        "depth": 2,
                                        "id": 5,
                                        "order": 5
                                    },
                                    {
                                        "children": [],
                                        "depth": 2,
                                        "id": 6,
                                        "order": 6
                                    }
                                ],
                                "depth": 1,
                                "id": 1,
                                "order": 1
                            }
                        ],
                        "depth": 0,
                        "id": 0,
                        "order": 0
                    }
                ],
                "depth": -1,
                "id": -1,
                "order": -1
            }
        ],
        "tidyTraceNodeCount": 7
    },
    "state_change": {
        "stateChanges": [
            {
                "address": "0xa481b139a1a654ca19d2074f174f17d7534e8cec",
                "erc": "",
                "slots": [
                    {
                        "current": "0x0000000000000000000000000000000000000000000000000000000000000000",
                        "key": "0xafb60b7c79bf265bb9dd48b733bf041d93bdd9851c3584cc72d60319097fcda0",
                        "prev": "0x0000000000000000000000000000000000000000000000000000000000000001"
                    },
                    {
                        "current": "0x0000000000000000000000000000000000000000000000000000000000000008",
                        "key": "0xdb894fdb777aa14c1440ebf73e1bc146b8414bc984beb2cf6a9fa9b2fc6baed6",
                        "prev": "0x0000000000000000000000000000000000000000000000000000000000000009"
                    },
                    {
                        "current": "0x000000000000000000000000de6f2026c670d5f945009d9c4351f83a12b3146f",
                        "key": "0xa18e09d106a9571e268f7d0c0dc6bf9139fb41842d200b29bed02d2ed53454ff",
                        "prev": "0x00000000000000000000000027fa2806f40cf808ac9cc43fa0726d9356bb1ecf"
                    },
                    {
                        "current": "0x0000000000000000000000000000000000000000000000000000000000000000",
                        "key": "0xa18e09d106a9571e268f7d0c0dc6bf9139fb41842d200b29bed02d2ed5345501",
                        "prev": "0x000000000000000000000000de6f2026c670d5f945009d9c4351f83a12b3146f"
                    },
                    {
                        "current": "0x0000000000000000000000000000000000000000000000000000000000000004",
                        "key": "0xc0bc4a404a22e29c9cc498bbbe8ef34ae10ba5a772bb34ca67229f1469ab6777",
                        "prev": "0x0000000000000000000000000000000000000000000000000000000000000005"
                    }
                ],
                "storageVariables": []
            }
        ]
    }
}