{
    "balance_change": {
        "balanceChanges": [
            {
                "account": "0x18738290af1aaf96f0acfa945c9c31ab21cd65be",
                "assets": [
                    {
                        "address": "0x8c8687fc965593dfb2f0b4eaefd55e9d8df348df",
                        "amount": "59,471,745.571",
                        "iconUrl": "",
                        "isERC1155": false,
                        "isERC721": false,
                        "sign": true,
                        "value": "168754467.94437248315"
                    }
                ]
            },
            {
                "account": "0x0000000000000000000000000000000000000000",
                "assets": [
                    {
                        "address": "0x8c8687fc965593dfb2f0b4eaefd55e9d8df348df",
                        "amount": "59,471,745.571",
                        "iconUrl": "",
                        "isERC1155": false,
                        "isERC721": false,
                        "sign": false,
                        "value": "168754467.94437248315"
                    }
                ]
            }
        ]
    },
    "profile": {
        "basic_info": {
            "baseFee": "",
            "blockNumber": 11979840,
            "callData": "0x40c10f1900000000000000000000000018738290af1aaf96f0acfa945c9c31ab21cd65be0000000000000000000000000000000000000000003131a1c9983c1c5c238000",
            "debugEnable": true,
            "errorInfo": "",
            "eventCount": 1,
            "feeRecipient": "0x829bd824b016326a401d083b33d092293333a830",
            "formatValue": "0",
            "gasLimit": 57257,
            "gasPrice": "145",
            "gasUsed": 56785,
            "intTxnCount": 1,
            "internalRevert": false,
            "internalRevertMessage": "",
            "isContractCreation": false,
            "isFlashloan": false,
            "maxFee": "",
            "nonce": 8,
            "overwritedBlockNumber": -1,
            "priorityFee": "",
            "receiver": "0x8c8687fc965593dfb2f0b4eaefd55e9d8df348df",
            "revertMessage": "",
            "sender": "0x18738290af1aaf96f0acfa945c9c31ab21cd65be",
            "simulationEnable": true,
            "sourceTxnHash": "0x4bb10927ea7afc2336033574b74ebd6f73ef35ac0db1bb96229627c9d77555a0",
            "status": true,
            "timestamp": "2021-03-05T18:03:09Z",
            "transactionFee": "0.008233825",
            "txnHash": "0x4bb10927ea7afc2336033574b74ebd6f73ef35ac0db1bb96229627c9d77555a0",
            "txnIndex": 161,
            "type": 0,
            "value": "0"
        },
        "fund_flow": [
            {
                "amount": "59,471,745.571",
                "from": "0x0000000000000000000000000000000000000000",
                "id": 1,
                "isERC1155": false,
                "isERC721": false,
                "isReverted": false,
                "order": 1,
                "to": "0x18738290af1aaf96f0acfa945c9c31ab21cd65be",
                "token": "0x8c8687fc965593dfb2f0b4eaefd55e9d8df348df"
            }
        ],
        "token_infos": [
            {
                "address": "0x8c8687fc965593dfb2f0b4eaefd55e9d8df348df",
                "decimals": 18
            },
            {
                "address": "0xc02aaa39b223fe8d0a0e5c4f27ead9083c756cc2",
                "decimals": 18
            },
            {
                "address": "0xeeeeeeeeeeeeeeeeeeeeeeeeeeeeeeeeeeeeeeee",
                "decimals": 18
            }
        ]
    },
    "address_label": {
        "labels": [
            {
                "address": "0x0000000000000000000000000000000000000002",
                "label": "Precompiled"
            },
            {
                "address": "0x0000000000000000000000000000000000000003",
                "label": "Precompiled"
            },
            {
                "address": "0x0000000000000000000000000000000000000004",
                "label": "Precompiled"
            },
            {
                "address": "0xeeeeeeeeeeeeeeeeeeeeeeeeeeeeeeeeeeeeeeee",
                "label": "Ether"
            },
            {
                "address": "0x8c8687fc965593dfb2f0b4eaefd55e9d8df348df",
                "label": "PAID Network: Old Contract"
            },
            {
                "address": "0x0000000000000000000000000000000000000001",
                "label": "Precompiled"
            }
        ]
    },
    "trace": {
        "accountLabels": null,
        "dataMap": {
            "-1": {
                "invocation": {
                    "address": "0x18738290af1aaf96f0acfa945c9c31ab21cd65be",
                    "callData": "",
                    "decodedMethod": null,
                    "errorInfo": "",
                    "fromAddress": "",
                    "gasUsed": 0,
                    "id": -1,
                    "methodDecoded": false,
                    "operation": "",
                    "output": "",
                    "revert": false,
                    "revertMessage": "",
                    "selector": "",
                    "status": false,
                    "value": ""
                },
                "nodeType": 0
            },
            "0": {
                "invocation": {
                    "address": "0x8c8687fc965593dfb2f0b4eaefd55e9d8df348df",
                    "callData": "0x00000000000000000000000018738290af1aaf96f0acfa945c9c31ab21cd65be0000000000000000000000000000000000000000003131a1c9983c1c5c238000",
                    "decodedMethod": {
                        "callParams": [
                            {
                                "name": "to",
                                "type": "address",
                                "value": "0x18738290af1aaf96f0acfa945c9c31ab21cd65be"
                            },
                            {
                                "name": "amount",
                                "type": "uint256",
                                "value": "59,471,745,571,000,000,000,000,000"
                            }
                        ],
                        "constructorArguments": "",
                        "name": "mint",
                        "returnParams": [],
                        "signature": "mint(address,uint256)"
                    },
                    "errorInfo": "",
                    "fromAddress": "0x18738290af1aaf96f0acfa945c9c31ab21cd65be",
                    "gasUsed": 56785,
                    "id": 0,
                    "methodDecoded": true,
                    "operation": "CALL",
                    "output": "",
                    "revert": false,
                    "revertMessage": "",
                    "selector": "0x40c10f19",
                    "status": true,
                    "value": "0"
                },
                "nodeType": 0
            },
            "1": {
                "invocation": {
                    "address": "0xb828e66eb5b41b9ada9aa42420a6542cd095b9c7",
                    "callData": "0x00000000000000000000000018738290af1aaf96f0acfa945c9c31ab21cd65be0000000000000000000000000000000000000000003131a1c9983c1c5c238000",
                    "decodedMethod": {
                        "callParams": [
                            {
                                "name": "to",
                                "type": "address",
                                "value": "0x18738290af1aaf96f0acfa945c9c31ab21cd65be"
                            },
                            {
                                "name": "amount",
                                "type": "uint256",
                                "value": "59,471,745,571,000,000,000,000,000"
                            }
                        ],
                        "constructorArguments": "",
                        "name": "mint",
                        "returnParams": [],
                        "signature": "mint(address,uint256)"
                    },
                    "errorInfo": "",
                    "fromAddress": "0x8c8687fc965593dfb2f0b4eaefd55e9d8df348df",
                    "gasUsed": 32329,
                    "id": 1,
                    "methodDecoded": true,
                    "operation": "DELEGATECALL",
                    "output": "",
                    "revert": false,
                    "revertMessage": "",
                    "selector": "0x40c10f19",
                    "status": true,
                    "value": "0"
                },
                "nodeType": 0
            },
            "2": {
                "event": {
                    "contract": "0x8c8687fc965593dfb2f0b4eaefd55e9d8df348df",
                    "decodedLog": {
                        "name": "Transfer",
                        "params": [
                            {
                                "name": "from",
                                "type": "address",
                                "value": "0x0000000000000000000000000000000000000000"
                            },
                            {
                                "name": "to",
                                "type": "address",
                                "value": "0x18738290af1aaf96f0acfa945c9c31ab21cd65be"
                            },
                            {
                                "decimalAvailable": true,
                                "name": "value",
                                "type": "uint256",
                                "value": "59,471,745,571,000,000,000,000,000"
                            }
                        ],
                        "signature": "Transfer(address,address,uint256)"
                    },
                    "id": 2,
                    "logData": "0x0000000000000000000000000000000000000000003131a1c9983c1c5c238000",
                    "logDecoded": true,
                    "operation": "EVENT",
                    "revert": false,
                    "status": true,
                    "topics": [
                        "0xddf252ad1be2c89b69c2b068fc378daa952ba7f163c4a11628f55a4df523b3ef",
                        "0x0000000000000000000000000000000000000000000000000000000000000000",
                        "0x00000000000000000000000018738290af1aaf96f0acfa945c9c31ab21cd65be"
                    ]
                },
                "nodeType": 1
            }
        },
        "gasFlame": [
            {
                "children": [
                    {
                        "children": [
                            {
                                "children": [],
                                "depth": 0,
                                "name": "Initial Gas",
                                "value": 21680
                            },
                            {
                                "children": [
                                    {
                                        "children": [],
                                        "depth": 1,
                                        "name": "mint",
                                        "value": 32329
                                    }
                                ],
                                "depth": 0,
                                "name": "Executed Gas",
                                "value": 35105
                            }
                        ],
                        "depth": -1,
                        "name": "Actual Gas Used",
                        "value": 56785
                    },
                    {
                        "children": [],
                        "depth": -1,
                        "name": "Refunded Gas",
                        "value": 0
                    }
                ],
                "depth": -2,
                "name": "Total Gas",
                "value": 56785
            }
        ],
        "isConfirmed": true,
        "mainTrace": [
            {
                "children": [
                    {
                        "children": [
                            {
                                "children": [
                                    {
                                        "children": [],
                                        "depth": 2,
                                        "id": 2,
                                        "order": 2
                                    }
                                ],
                                "depth": 1,
                                "id": 1,
                                "order": 1
                            }
                        ],
                        "depth": 0,
                        "id": 0,
                        "order": 0
                    }
                ],
                "depth": -1,
                "id": -1,
                "order": -1
            }
        ],
        "mainTraceNodeCount": 3,
        "parentIdMap": {
            "0": -1,
            "1": 0,
            "2": 1
        },
        "tidyTrace": [
            {
                "children": [
                    {
                        "children": [
                            {
                                "children": [
                                    {
                                        "children": [],
                                        "depth": 2,
                                        "id": 2,
                                        "order": 2
                                    }
                                ],
                                "depth": 1,
                                "id": 1,
                                "order": 1
                            }
                        ],
                        "depth": 0,
                        "id": 0,
                        "order": 0
                    }
                ],
                "depth": -1,
                "id": -1,
                "order": -1
            }
        ],
        "tidyTraceNodeCount": 3
    },
    "state_change": {
        "stateChanges": [
            {
                "address": "0x8c8687fc965593dfb2f0b4eaefd55e9d8df348df",
                "erc": "",
                "slots": [
                    {
                        "current": "0x0000000000000000000000000000000000000000003131a1c9983c1c5c238000",
                        "key": "0xf707f3fab6c3eba41c4b9ba8d7c1fbccd9b1b291487a801d5050f298729f0eb1",
                        "prev": "0x0000000000000000000000000000000000000000000000000000000000000000"
                    },
                    {
                        "current": "0x000000000000000000000000000000000000000001ebf051dff2591b99630000",
                        "key": "0x0000000000000000000000000000000000000000000000000000000000000067",
                        "prev": "0x000000000000000000000000000000000000000001babeb0165a1cff3d3f8000"
                    }
                ],
                "storageVariables": []
            }
        ]
    }
}