{
    "balance_change": {
        "balanceChanges": [
            {
                "account": "0x40c31236b228935b0329eff066b1ad96e319595e",
                "assets": [
                    {
                        "address": "0x31adda225642a8f4d7e90d4152be6661ab22a5a2",
                        "amount": "2,570,000",
                        "iconUrl": "",
                        "isERC1155": false,
                        "isERC721": false,
                        "sign": false,
                        "value": "350787.01000000000826"
                    }
                ]
            },
            {
                "account": "0x5b8d598b354f5760b2a65f492154e7a3df46d1be",
                "assets": [
                    {
                        "address": "0x31adda225642a8f4d7e90d4152be6661ab22a5a2",
                        "amount": "2,570,000",
                        "iconUrl": "",
                        "isERC1155": false,
                        "isERC721": false,
                        "sign": true,
                        "value": "350787.01000000000826"
                    }
                ]
            }
        ]
    },
    "profile": {
        "basic_info": {
            "baseFee": "45.999087958",
            "blockNumber": 18774585,
            "callData": "0x6b76484e00000000000000000000000031adda225642a8f4d7e90d4152be6661ab22a5a2000000000000000000000000d7a421a6786cf4951a8fae10385680222d63f89a",
            "debugEnable": true,
            "errorInfo": "",
            "eventCount": 4,
            "feeRecipient": "0xdafea492d9c6733ae3d56b7ed1adb60692c98bc5",
            "formatValue": "0",
            "gasLimit": 1000000,
            "gasPrice": "50.999087958",
            "gasUsed": 143313,
            "intTxnCount": 16,
            "internalRevert": true,
            "internalRevertMessage": "",
            "isContractCreation": false,
            "isFlashloan": false,
            "maxFee": "60",
            "nonce": 1,
            "overwritedBlockNumber": -1,
            "priorityFee": "5",
            "receiver": "0xba6fa6e8500cd8eeda8ebb9dfbcc554ff4a3eb77",
            "revertMessage": "",
            "sender": "0x3ea6ba6d3415e4dfd380516c799aafa94e420519",
            "simulationEnable": true,
            "sourceTxnHash": "0x51ce3d9cfc85c1f6a532b908bb2debb16c7569eb8b76effe614016aac6635f65",
            "status": true,
            "timestamp": "2023-12-13T03:30:35Z",
            "transactionFee": "0.007308832292524854",
            "txnHash": "0x51ce3d9cfc85c1f6a532b908bb2debb16c7569eb8b76effe614016aac6635f65",
            "txnIndex": 49,
            "type": 2,
            "value": "0"
        },
        "fund_flow": [
            {
                "amount": "2,570,000",
                "from": "0x40c31236b228935b0329eff066b1ad96e319595e",
                "id": 1,
                "isERC1155": false,
                "isERC721": false,
                "isReverted": false,
                "order": 1,
                "to": "0x5b8d598b354f5760b2a65f492154e7a3df46d1be",
                "token": "0x31adda225642a8f4d7e90d4152be6661ab22a5a2"
            }
        ],
        "token_infos": [
            {
                "address": "0x31adda225642a8f4d7e90d4152be6661ab22a5a2",
                "decimals": 18
            },
            {
                "address": "0xc02aaa39b223fe8d0a0e5c4f27ead9083c756cc2",
                "decimals": 18
            },
            {
                "address": "0xeeeeeeeeeeeeeeeeeeeeeeeeeeeeeeeeeeeeeeee",
                "decimals": 18
            }
        ]
    },
    "address_label": {
        "labels": [
            {
                "address": "0x40c31236b228935b0329eff066b1ad96e319595e",
                "label": "L1ChugSplashProxy"
            },
            {
                "address": "0x5877bb958999ec60addafa3e053f451a81ddbfe3",
                "label": "HyprTokenL1"
            },
            {
                "address": "0x0000000000000000000000000000000000000001",
                "label": "Precompiled"
            },
            {
                "address": "0x0000000000000000000000000000000000000003",
                "label": "Precompiled"
            },
            {
                "address": "0x0000000000000000000000000000000000000004",
                "label": "Precompiled"
            },
            {
                "address": "0xeeeeeeeeeeeeeeeeeeeeeeeeeeeeeeeeeeeeeeee",
                "label": "Ether"
            },
            {
                "address": "0x31adda225642a8f4d7e90d4152be6661ab22a5a2",
                "label": "Hypr Network: HYPR Token"
            },
            {
                "address": "0xe468b43b4ae4d750cd6a5d7edacc1a751302c99c",
                "label": "L1StandardBridge"
            },
            {
                "address": "0x0000000000000000000000000000000000000002",
                "label": "Precompiled"
            },
            {
                "address": "0x5b8d598b354f5760b2a65f492154e7a3df46d1be",
                "label": "Hypr Exploiter 1"
            },
            {
                "address": "0x3ea6ba6d3415e4dfd380516c799aafa94e420519",
                "label": "Hypr Network Bridge Exploiter"
            },
            {
                "address": "0xba86cd28d937f1cc7c74a365368477408578364a",
                "label": "ProxyAdmin"
            }
        ]
    },
    "trace": {
        "accountLabels": null,
        "dataMap": {
            "-1": {
                "invocation": {
                    "address": "0x3ea6ba6d3415e4dfd380516c799aafa94e420519",
                    "callData": "",
                    "decodedMethod": null,
                    "errorInfo": "",
                    "fromAddress": "",
                    "gasUsed": 0,
                    "id": -1,
                    "methodDecoded": false,
                    "operation": "",
                    "output": "",
                    "revert": false,
                    "revertMessage": "",
                    "selector": "",
                    "status": false,
                    "value": ""
                },
                "nodeType": 0
            },
            "0": {
                "invocation": {
                    "address": "0xba6fa6e8500cd8eeda8ebb9dfbcc554ff4a3eb77",
                    "callData": "0x00000000000000000000000031adda225642a8f4d7e90d4152be6661ab22a5a2000000000000000000000000d7a421a6786cf4951a8fae10385680222d63f89a",
                    "decodedMethod": {
                        "callParams": [
                            {
                                "name": "fromToken",
                                "type": "address",
                                "value": "0x31adda225642a8f4d7e90d4152be6661ab22a5a2"
                            },
                            {
                                "name": "toToken",
                                "type": "address",
                                "value": "0xd7a421a6786cf4951a8fae10385680222d63f89a"
                            }
                        ],
                        "constructorArguments": "",
                        "name": "swap",
                        "returnParams": [],
                        "signature": "swap(address,address)"
                    },
                    "errorInfo": "",
                    "fromAddress": "0x3ea6ba6d3415e4dfd380516c799aafa94e420519",
                    "gasUsed": 143313,
                    "id": 0,
                    "methodDecoded": true,
                    "operation": "CALL",
                    "output": "",
                    "revert": false,
                    "revertMessage": "",
                    "selector": "0x6b76484e",
                    "status": true,
                    "value": "0"
                },
                "nodeType": 0
            },
            "1": {
                "invocation": {
                    "address": "0x40c31236b228935b0329eff066b1ad96e319595e",
                    "callData": "0x000000000000000000000000ba6fa6e8500cd8eeda8ebb9dfbcc554ff4a3eb77",
                    "decodedMethod": {
                        "callParams": [
                            {
                                "name": "initialOwner",
                                "type": "address",
                                "value": "0xba6fa6e8500cd8eeda8ebb9dfbcc554ff4a3eb77"
                            }
                        ],
                        "constructorArguments": "",
                        "name": "initialize",
                        "returnParams": [],
                        "signature": "initialize(address)"
                    },
                    "errorInfo": "",
                    "fromAddress": "0xba6fa6e8500cd8eeda8ebb9dfbcc554ff4a3eb77",
                    "gasUsed": 24585,
                    "id": 1,
                    "methodDecoded": true,
                    "operation": "CALL",
                    "output": "",
                    "revert": false,
                    "revertMessage": "",
                    "selector": "0xc4d66de8",
                    "status": true,
                    "value": "0"
                },
                "nodeType": 0
            },
            "10": {
                "invocation": {
                    "address": "0x5877bb958999ec60addafa3e053f451a81ddbfe3",
                    "callData": "0x01ffc9a700000000000000000000000000000000000000000000000000000000",
                    "decodedMethod": {
                        "callParams": [
                            {
                                "name": "interfaceId",
                                "type": "bytes4",
                                "value": "0x01ffc9a7"
                            }
                        ],
                        "constructorArguments": "",
                        "name": "supportsInterface",
                        "returnParams": [],
                        "signature": "supportsInterface(bytes4)"
                    },
                    "errorInfo": "execution reverted",
                    "fromAddress": "0x31adda225642a8f4d7e90d4152be6661ab22a5a2",
                    "gasUsed": 195,
                    "id": 10,
                    "methodDecoded": true,
                    "operation": "DELEGATECALL",
                    "output": "",
                    "revert": true,
                    "revertMessage": "",
                    "selector": "0x01ffc9a7",
                    "status": false,
                    "value": "0"
                },
                "nodeType": 0
            },
            "11": {
                "invocation": {
                    "address": "0x31adda225642a8f4d7e90d4152be6661ab22a5a2",
                    "callData": "0x01ffc9a700000000000000000000000000000000000000000000000000000000",
                    "decodedMethod": {
                        "callParams": [
                            {
                                "name": "interfaceId",
                                "type": "bytes4",
                                "value": "0x01ffc9a7"
                            }
                        ],
                        "constructorArguments": "",
                        "name": "supportsInterface",
                        "returnParams": [],
                        "signature": "supportsInterface(bytes4)"
                    },
                    "errorInfo": "execution reverted",
                    "fromAddress": "0x40c31236b228935b0329eff066b1ad96e319595e",
                    "gasUsed": 7353,
                    "id": 11,
                    "methodDecoded": true,
                    "operation": "STATICCALL",
                    "output": "",
                    "revert": true,
                    "revertMessage": "",
                    "selector": "0x01ffc9a7",
                    "status": false,
                    "value": "0"
                },
                "nodeType": 0
            },
            "12": {
                "invocation": {
                    "address": "0x5877bb958999ec60addafa3e053f451a81ddbfe3",
                    "callData": "0x01ffc9a700000000000000000000000000000000000000000000000000000000",
                    "decodedMethod": {
                        "callParams": [
                            {
                                "name": "interfaceId",
                                "type": "bytes4",
                                "value": "0x01ffc9a7"
                            }
                        ],
                        "constructorArguments": "",
                        "name": "supportsInterface",
                        "returnParams": [],
                        "signature": "supportsInterface(bytes4)"
                    },
                    "errorInfo": "execution reverted",
                    "fromAddress": "0x31adda225642a8f4d7e90d4152be6661ab22a5a2",
                    "gasUsed": 195,
                    "id": 12,
                    "methodDecoded": true,
                    "operation": "DELEGATECALL",
                    "output": "",
                    "revert": true,
                    "revertMessage": "",
                    "selector": "0x01ffc9a7",
                    "status": false,
                    "value": "0"
                },
                "nodeType": 0
            },
            "13": {
                "invocation": {
                    "address": "0x31adda225642a8f4d7e90d4152be6661ab22a5a2",
                    "callData": "0x0000000000000000000000005b8d598b354f5760b2a65f492154e7a3df46d1be000000000000000000000000000000000000000000022037faaa846cf2400000",
                    "decodedMethod": {
                        "callParams": [
                            {
                                "name": "to",
                                "type": "address",
                                "value": "0x5b8d598b354f5760b2a65f492154e7a3df46d1be"
                            },
                            {
                                "decimalAvailable": true,
                                "name": "amount",
                                "type": "uint256",
                                "value": "2,570,000,000,000,000,000,000,000"
                            }
                        ],
                        "constructorArguments": "",
                        "name": "transfer",
                        "returnParams": [
                            {
                                "name": "",
                                "type": "bool",
                                "value": true
                            }
                        ],
                        "signature": "transfer(address,uint256)"
                    },
                    "errorInfo": "",
                    "fromAddress": "0x40c31236b228935b0329eff066b1ad96e319595e",
                    "gasUsed": 43686,
                    "id": 13,
                    "methodDecoded": true,
                    "operation": "CALL",
                    "output": "0x0000000000000000000000000000000000000000000000000000000000000001",
                    "revert": false,
                    "revertMessage": "",
                    "selector": "0xa9059cbb",
                    "status": true,
                    "value": "0"
                },
                "nodeType": 0
            },
            "14": {
                "invocation": {
                    "address": "0x5877bb958999ec60addafa3e053f451a81ddbfe3",
                    "callData": "0x0000000000000000000000005b8d598b354f5760b2a65f492154e7a3df46d1be000000000000000000000000000000000000000000022037faaa846cf2400000",
                    "decodedMethod": {
                        "callParams": [
                            {
                                "name": "to",
                                "type": "address",
                                "value": "0x5b8d598b354f5760b2a65f492154e7a3df46d1be"
                            },
                            {
                                "decimalAvailable": true,
                                "name": "amount",
                                "type": "uint256",
                                "value": "2,570,000,000,000,000,000,000,000"
                            }
                        ],
                        "constructorArguments": "",
                        "name": "transfer",
                        "returnParams": [
                            {
                                "name": "",
                                "type": "bool",
                                "value": true
                            }
                        ],
                        "signature": "transfer(address,uint256)"
                    },
                    "errorInfo": "",
                    "fromAddress": "0x31adda225642a8f4d7e90d4152be6661ab22a5a2",
                    "gasUsed": 36523,
                    "id": 14,
                    "methodDecoded": true,
                    "operation": "DELEGATECALL",
                    "output": "0x0000000000000000000000000000000000000000000000000000000000000001",
                    "revert": false,
                    "revertMessage": "",
                    "selector": "0xa9059cbb",
                    "status": true,
                    "value": "0"
                },
                "nodeType": 0
            },
            "15": {
                "event": {
                    "contract": "0x31adda225642a8f4d7e90d4152be6661ab22a5a2",
                    "decodedLog": {
                        "name": "Transfer",
                        "params": [
                            {
                                "name": "from",
                                "type": "address",
                                "value": "0x40c31236b228935b0329eff066b1ad96e319595e"
                            },
                            {
                                "name": "to",
                                "type": "address",
                                "value": "0x5b8d598b354f5760b2a65f492154e7a3df46d1be"
                            },
                            {
                                "decimalAvailable": true,
                                "name": "value",
                                "type": "uint256",
                                "value": "2,570,000,000,000,000,000,000,000"
                            }
                        ],
                        "signature": "Transfer(address,address,uint256)"
                    },
                    "id": 15,
                    "logData": "0x000000000000000000000000000000000000000000022037faaa846cf2400000",
                    "logDecoded": true,
                    "operation": "EVENT",
                    "revert": false,
                    "status": true,
                    "topics": [
                        "0xddf252ad1be2c89b69c2b068fc378daa952ba7f163c4a11628f55a4df523b3ef",
                        "0x00000000000000000000000040c31236b228935b0329eff066b1ad96e319595e",
                        "0x0000000000000000000000005b8d598b354f5760b2a65f492154e7a3df46d1be"
                    ]
                },
                "nodeType": 1
            },
            "16": {
                "event": {
                    "contract": "0x40c31236b228935b0329eff066b1ad96e319595e",
                    "decodedLog": {
                        "name": "ERC20WithdrawalFinalized",
                        "params": [
                            {
                                "name": "l1Token",
                                "type": "address",
                                "value": "0x31adda225642a8f4d7e90d4152be6661ab22a5a2"
                            },
                            {
                                "name": "l2Token",
                                "type": "address",
                                "value": "0xd7a421a6786cf4951a8fae10385680222d63f89a"
                            },
                            {
                                "name": "from",
                                "type": "address",
                                "value": "0x40c31236b228935b0329eff066b1ad96e319595e"
                            },
                            {
                                "name": "to",
                                "type": "address",
                                "value": "0x5b8d598b354f5760b2a65f492154e7a3df46d1be"
                            },
                            {
                                "name": "amount",
                                "type": "uint256",
                                "value": "2,570,000,000,000,000,000,000,000"
                            },
                            {
                                "name": "extraData",
                                "type": "bytes",
                                "value": "0x"
                            }
                        ],
                        "signature": "ERC20WithdrawalFinalized(address,address,address,address,uint256,bytes)"
                    },
                    "id": 16,
                    "logData": "0x0000000000000000000000005b8d598b354f5760b2a65f492154e7a3df46d1be000000000000000000000000000000000000000000022037faaa846cf240000000000000000000000000000000000000000000000000000000000000000000600000000000000000000000000000000000000000000000000000000000000000",
                    "logDecoded": true,
                    "operation": "EVENT",
                    "revert": false,
                    "status": true,
                    "topics": [
                        "0x3ceee06c1e37648fcbb6ed52e17b3e1f275a1f8c7b22a84b2b84732431e046b3",
                        "0x00000000000000000000000031adda225642a8f4d7e90d4152be6661ab22a5a2",
                        "0x000000000000000000000000d7a421a6786cf4951a8fae10385680222d63f89a",
                        "0x00000000000000000000000040c31236b228935b0329eff066b1ad96e319595e"
                    ]
                },
                "nodeType": 1
            },
            "17": {
                "event": {
                    "contract": "0x40c31236b228935b0329eff066b1ad96e319595e",
                    "decodedLog": {
                        "name": "ERC20BridgeFinalized",
                        "params": [
                            {
                                "name": "localToken",
                                "type": "address",
                                "value": "0x31adda225642a8f4d7e90d4152be6661ab22a5a2"
                            },
                            {
                                "name": "remoteToken",
                                "type": "address",
                                "value": "0xd7a421a6786cf4951a8fae10385680222d63f89a"
                            },
                            {
                                "name": "from",
                                "type": "address",
                                "value": "0x40c31236b228935b0329eff066b1ad96e319595e"
                            },
                            {
                                "name": "to",
                                "type": "address",
                                "value": "0x5b8d598b354f5760b2a65f492154e7a3df46d1be"
                            },
                            {
                                "name": "amount",
                                "type": "uint256",
                                "value": "2,570,000,000,000,000,000,000,000"
                            },
                            {
                                "name": "extraData",
                                "type": "bytes",
                                "value": "0x"
                            }
                        ],
                        "signature": "ERC20BridgeFinalized(address,address,address,address,uint256,bytes)"
                    },
                    "id": 17,
                    "logData": "0x0000000000000000000000005b8d598b354f5760b2a65f492154e7a3df46d1be000000000000000000000000000000000000000000022037faaa846cf240000000000000000000000000000000000000000000000000000000000000000000600000000000000000000000000000000000000000000000000000000000000000",
                    "logDecoded": true,
                    "operation": "EVENT",
                    "revert": false,
                    "status": true,
                    "topics": [
                        "0xd59c65b35445225835c83f50b6ede06a7be047d22e357073e250d9af537518cd",
                        "0x00000000000000000000000031adda225642a8f4d7e90d4152be6661ab22a5a2",
                        "0x000000000000000000000000d7a421a6786cf4951a8fae10385680222d63f89a",
                        "0x00000000000000000000000040c31236b228935b0329eff066b1ad96e319595e"
                    ]
                },
                "nodeType": 1
            },
            "18": {
                "invocation": {
                    "address": "0x31adda225642a8f4d7e90d4152be6661ab22a5a2",
                    "callData": "0x0000000000000000000000005b8d598b354f5760b2a65f492154e7a3df46d1be",
                    "decodedMethod": {
                        "callParams": [
                            {
                                "name": "account",
                                "type": "address",
                                "value": "0x5b8d598b354f5760b2a65f492154e7a3df46d1be"
                            }
                        ],
                        "constructorArguments": "",
                        "name": "balanceOf",
                        "returnParams": [
                            {
                                "decimalAvailable": true,
                                "name": "",
                                "type": "uint256",
                                "value": "2,570,000,000,000,000,000,000,000"
                            }
                        ],
                        "signature": "balanceOf(address)"
                    },
                    "errorInfo": "",
                    "fromAddress": "0xba6fa6e8500cd8eeda8ebb9dfbcc554ff4a3eb77",
                    "gasUsed": 1286,
                    "id": 18,
                    "methodDecoded": true,
                    "operation": "CALL",
                    "output": "0x000000000000000000000000000000000000000000022037faaa846cf2400000",
                    "revert": false,
                    "revertMessage": "",
                    "selector": "0x70a08231",
                    "status": true,
                    "value": "0"
                },
                "nodeType": 0
            },
            "19": {
                "invocation": {
                    "address": "0x5877bb958999ec60addafa3e053f451a81ddbfe3",
                    "callData": "0x0000000000000000000000005b8d598b354f5760b2a65f492154e7a3df46d1be",
                    "decodedMethod": {
                        "callParams": [
                            {
                                "name": "account",
                                "type": "address",
                                "value": "0x5b8d598b354f5760b2a65f492154e7a3df46d1be"
                            }
                        ],
                        "constructorArguments": "",
                        "name": "balanceOf",
                        "returnParams": [
                            {
                                "decimalAvailable": true,
                                "name": "",
                                "type": "uint256",
                                "value": "2,570,000,000,000,000,000,000,000"
                            }
                        ],
                        "signature": "balanceOf(address)"
                    },
                    "errorInfo": "",
                    "fromAddress": "0x31adda225642a8f4d7e90d4152be6661ab22a5a2",
                    "gasUsed": 626,
                    "id": 19,
                    "methodDecoded": true,
                    "operation": "DELEGATECALL",
                    "output": "0x000000000000000000000000000000000000000000022037faaa846cf2400000",
                    "revert": false,
                    "revertMessage": "",
                    "selector": "0x70a08231",
                    "status": true,
                    "value": "0"
                },
                "nodeType": 0
            },
            "2": {
                "invocation": {
                    "address": "0xba86cd28d937f1cc7c74a365368477408578364a",
                    "callData": "0x",
                    "decodedMethod": {
                        "callParams": [],
                        "constructorArguments": "",
                        "name": "isUpgrading",
                        "returnParams": [
                            {
                                "name": "",
                                "type": "bool",
                                "value": false
                            }
                        ],
                        "signature": "isUpgrading()"
                    },
                    "errorInfo": "",
                    "fromAddress": "0x40c31236b228935b0329eff066b1ad96e319595e",
                    "gasUsed": 2347,
                    "id": 2,
                    "methodDecoded": true,
                    "operation": "STATICCALL",
                    "output": "0x0000000000000000000000000000000000000000000000000000000000000000",
                    "revert": false,
                    "revertMessage": "",
                    "selector": "0xb7947262",
                    "status": true,
                    "value": "0"
                },
                "nodeType": 0
            },
            "20": {
                "invocation": {
                    "address": "0x000000000000000000636f6e736f6c652e6c6f67",
                    "callData": "0x00000000000000000000000000000000000000000000000000000000000000400000000000000000000000000000000000000000000000000000000000273710000000000000000000000000000000000000000000000000000000000000000670726f6669740000000000000000000000000000000000000000000000000000",
                    "decodedMethod": {
                        "callParams": [
                            {
                                "name": "description",
                                "type": "string",
                                "value": "profit"
                            },
                            {
                                "name": "_when",
                                "type": "uint256",
                                "value": "2,570,000"
                            }
                        ],
                        "constructorArguments": "",
                        "name": "log",
                        "returnParams": [],
                        "signature": "log(string,uint256)"
                    },
                    "errorInfo": "",
                    "fromAddress": "0xba6fa6e8500cd8eeda8ebb9dfbcc554ff4a3eb77",
                    "gasUsed": 0,
                    "id": 20,
                    "methodDecoded": true,
                    "operation": "STATICCALL",
                    "output": "",
                    "revert": false,
                    "revertMessage": "",
                    "selector": "0xb60e72cc",
                    "status": true,
                    "value": "0"
                },
                "nodeType": 0
            },
            "3": {
                "invocation": {
                    "address": "0xe468b43b4ae4d750cd6a5d7edacc1a751302c99c",
                    "callData": "0x000000000000000000000000ba6fa6e8500cd8eeda8ebb9dfbcc554ff4a3eb77",
                    "decodedMethod": {
                        "callParams": [
                            {
                                "name": "_messenger",
                                "type": "address",
                                "value": "0xba6fa6e8500cd8eeda8ebb9dfbcc554ff4a3eb77"
                            }
                        ],
                        "constructorArguments": "",
                        "name": "initialize",
                        "returnParams": [],
                        "signature": "initialize(address)"
                    },
                    "errorInfo": "",
                    "fromAddress": "0x40c31236b228935b0329eff066b1ad96e319595e",
                    "gasUsed": 11822,
                    "id": 3,
                    "methodDecoded": true,
                    "operation": "DELEGATECALL",
                    "output": "",
                    "revert": false,
                    "revertMessage": "",
                    "selector": "0xc4d66de8",
                    "status": true,
                    "value": "0"
                },
                "nodeType": 0
            },
            "4": {
                "event": {
                    "contract": "0x40c31236b228935b0329eff066b1ad96e319595e",
                    "decodedLog": {
                        "name": "Initialized",
                        "params": [
                            {
                                "name": "version",
                                "type": "uint8",
                                "value": "2"
                            }
                        ],
                        "signature": "Initialized(uint8)"
                    },
                    "id": 4,
                    "logData": "0x0000000000000000000000000000000000000000000000000000000000000002",
                    "logDecoded": true,
                    "operation": "EVENT",
                    "revert": false,
                    "status": true,
                    "topics": [
                        "0x7f26b83ff96e1f2b6a682f133852f6798a09c465da95921460cefb3847402498"
                    ]
                },
                "nodeType": 1
            },
            "5": {
                "invocation": {
                    "address": "0x40c31236b228935b0329eff066b1ad96e319595e",
                    "callData": "0x00000000000000000000000031adda225642a8f4d7e90d4152be6661ab22a5a2000000000000000000000000d7a421a6786cf4951a8fae10385680222d63f89a00000000000000000000000040c31236b228935b0329eff066b1ad96e319595e0000000000000000000000005b8d598b354f5760b2a65f492154e7a3df46d1be000000000000000000000000000000000000000000022037faaa846cf240000000000000000000000000000000000000000000000000000000000000000000c00000000000000000000000000000000000000000000000000000000000000000",
                    "decodedMethod": {
                        "callParams": [
                            {
                                "name": "_l1Token",
                                "type": "address",
                                "value": "0x31adda225642a8f4d7e90d4152be6661ab22a5a2"
                            },
                            {
                                "name": "_l2Token",
                                "type": "address",
                                "value": "0xd7a421a6786cf4951a8fae10385680222d63f89a"
                            },
                            {
                                "name": "_from",
                                "type": "address",
                                "value": "0x40c31236b228935b0329eff066b1ad96e319595e"
                            },
                            {
                                "name": "_to",
                                "type": "address",
                                "value": "0x5b8d598b354f5760b2a65f492154e7a3df46d1be"
                            },
                            {
                                "name": "_amount",
                                "type": "uint256",
                                "value": "2,570,000,000,000,000,000,000,000"
                            },
                            {
                                "name": "_extraData",
                                "type": "bytes",
                                "value": "0x"
                            }
                        ],
                        "constructorArguments": "",
                        "name": "finalizeERC20Withdrawal",
                        "returnParams": [],
                        "signature": "finalizeERC20Withdrawal(address,address,address,address,uint256,bytes)"
                    },
                    "errorInfo": "",
                    "fromAddress": "0xba6fa6e8500cd8eeda8ebb9dfbcc554ff4a3eb77",
                    "gasUsed": 81607,
                    "id": 5,
                    "methodDecoded": true,
                    "operation": "CALL",
                    "output": "",
                    "revert": false,
                    "revertMessage": "",
                    "selector": "0xa9f9e675",
                    "status": true,
                    "value": "0"
                },
                "nodeType": 0
            },
            "6": {
                "invocation": {
                    "address": "0xba86cd28d937f1cc7c74a365368477408578364a",
                    "callData": "0x",
                    "decodedMethod": {
                        "callParams": [],
                        "constructorArguments": "",
                        "name": "isUpgrading",
                        "returnParams": [
                            {
                                "name": "",
                                "type": "bool",
                                "value": false
                            }
                        ],
                        "signature": "isUpgrading()"
                    },
                    "errorInfo": "",
                    "fromAddress": "0x40c31236b228935b0329eff066b1ad96e319595e",
                    "gasUsed": 347,
                    "id": 6,
                    "methodDecoded": true,
                    "operation": "STATICCALL",
                    "output": "0x0000000000000000000000000000000000000000000000000000000000000000",
                    "revert": false,
                    "revertMessage": "",
                    "selector": "0xb7947262",
                    "status": true,
                    "value": "0"
                },
                "nodeType": 0
            },
            "7": {
                "invocation": {
                    "address": "0xe468b43b4ae4d750cd6a5d7edacc1a751302c99c",
                    "callData": "0x00000000000000000000000031adda225642a8f4d7e90d4152be6661ab22a5a2000000000000000000000000d7a421a6786cf4951a8fae10385680222d63f89a00000000000000000000000040c31236b228935b0329eff066b1ad96e319595e0000000000000000000000005b8d598b354f5760b2a65f492154e7a3df46d1be000000000000000000000000000000000000000000022037faaa846cf240000000000000000000000000000000000000000000000000000000000000000000c00000000000000000000000000000000000000000000000000000000000000000",
                    "decodedMethod": {
                        "callParams": [
                            {
                                "name": "_l1Token",
                                "type": "address",
                                "value": "0x31adda225642a8f4d7e90d4152be6661ab22a5a2"
                            },
                            {
                                "name": "_l2Token",
                                "type": "address",
                                "value": "0xd7a421a6786cf4951a8fae10385680222d63f89a"
                            },
                            {
                                "name": "_from",
                                "type": "address",
                                "value": "0x40c31236b228935b0329eff066b1ad96e319595e"
                            },
                            {
                                "name": "_to",
                                "type": "address",
                                "value": "0x5b8d598b354f5760b2a65f492154e7a3df46d1be"
                            },
                            {
                                "name": "_amount",
                                "type": "uint256",
                                "value": "2,570,000,000,000,000,000,000,000"
                            },
                            {
                                "name": "_extraData",
                                "type": "bytes",
                                "value": "0x"
                            }
                        ],
                        "constructorArguments": "",
                        "name": "finalizeERC20Withdrawal",
                        "returnParams": [],
                        "signature": "finalizeERC20Withdrawal(address,address,address,address,uint256,bytes)"
                    },
                    "errorInfo": "",
                    "fromAddress": "0x40c31236b228935b0329eff066b1ad96e319595e",
                    "gasUsed": 79826,
                    "id": 7,
                    "methodDecoded": true,
                    "operation": "DELEGATECALL",
                    "output": "",
                    "revert": false,
                    "revertMessage": "",
                    "selector": "0xa9f9e675",
                    "status": true,
                    "value": "0"
                },
                "nodeType": 0
            },
            "8": {
                "invocation": {
                    "address": "0xba6fa6e8500cd8eeda8ebb9dfbcc554ff4a3eb77",
                    "callData": "0x",
                    "decodedMethod": {
                        "callParams": [],
                        "constructorArguments": "",
                        "name": "xDomainMessageSender",
                        "returnParams": [
                            {
                                "name": "",
                                "type": "address",
                                "value": "0x4200000000000000000000000000000000000010"
                            }
                        ],
                        "signature": "xDomainMessageSender()"
                    },
                    "errorInfo": "",
                    "fromAddress": "0x40c31236b228935b0329eff066b1ad96e319595e",
                    "gasUsed": 2514,
                    "id": 8,
                    "methodDecoded": true,
                    "operation": "STATICCALL",
                    "output": "0x0000000000000000000000004200000000000000000000000000000000000010",
                    "revert": false,
                    "revertMessage": "",
                    "selector": "0x6e296e45",
                    "status": true,
                    "value": "0"
                },
                "nodeType": 0
            },
            "9": {
                "invocation": {
                    "address": "0x31adda225642a8f4d7e90d4152be6661ab22a5a2",
                    "callData": "0x01ffc9a700000000000000000000000000000000000000000000000000000000",
                    "decodedMethod": {
                        "callParams": [
                            {
                                "name": "interfaceId",
                                "type": "bytes4",
                                "value": "0x01ffc9a7"
                            }
                        ],
                        "constructorArguments": "",
                        "name": "supportsInterface",
                        "returnParams": [],
                        "signature": "supportsInterface(bytes4)"
                    },
                    "errorInfo": "execution reverted",
                    "fromAddress": "0x40c31236b228935b0329eff066b1ad96e319595e",
                    "gasUsed": 7353,
                    "id": 9,
                    "methodDecoded": true,
                    "operation": "STATICCALL",
                    "output": "",
                    "revert": true,
                    "revertMessage": "",
                    "selector": "0x01ffc9a7",
                    "status": false,
                    "value": "0"
                },
                "nodeType": 0
            }
        },
        "gasFlame": [
            {
                "children": [
                    {
                        "children": [
                            {
                                "children": [],
                                "depth": 0,
                                "name": "Initial Gas",
                                "value": 21800
                            },
                            {
                                "children": [
                                    {
                                        "children": [
                                            {
                                                "children": [],
                                                "depth": 2,
                                                "name": "isUpgrading",
                                                "value": 2347
                                            },
                                            {
                                                "children": [],
                                                "depth": 2,
                                                "name": "initialize",
                                                "value": 11822
                                            }
                                        ],
                                        "depth": 1,
                                        "name": "initialize",
                                        "value": 24585
                                    },
                                    {
                                        "children": [
                                            {
                                                "children": [],
                                                "depth": 2,
                                                "name": "isUpgrading",
                                                "value": 347
                                            },
                                            {
                                                "children": [
                                                    {
                                                        "children": [],
                                                        "depth": 3,
                                                        "name": "xDomainMessageSender",
                                                        "value": 2514
                                                    },
                                                    {
                                                        "children": [
                                                            {
                                                                "children": [],
                                                                "depth": 4,
                                                                "name": "supportsInterface",
                                                                "value": 195
                                                            }
                                                        ],
                                                        "depth": 3,
                                                        "name": "supportsInterface",
                                                        "value": 7353
                                                    },
                                                    {
                                                        "children": [
                                                            {
                                                                "children": [],
                                                                "depth": 4,
                                                                "name": "supportsInterface",
                                                                "value": 195
                                                            }
                                                        ],
                                                        "depth": 3,
                                                        "name": "supportsInterface",
                                                        "value": 7353
                                                    },
                                                    {
                                                        "children": [
                                                            {
                                                                "children": [],
                                                                "depth": 4,
                                                                "name": "transfer",
                                                                "value": 36523
                                                            }
                                                        ],
                                                        "depth": 3,
                                                        "name": "transfer",
                                                        "value": 43686
                                                    }
                                                ],
                                                "depth": 2,
                                                "name": "finalizeERC20Withdrawal",
                                                "value": 79826
                                            }
                                        ],
                                        "depth": 1,
                                        "name": "finalizeERC20Withdrawal",
                                        "value": 81607
                                    },
                                    {
                                        "children": [
                                            {
                                                "children": [],
                                                "depth": 2,
                                                "name": "balanceOf",
                                                "value": 626
                                            }
                                        ],
                                        "depth": 1,
                                        "name": "balanceOf",
                                        "value": 1286
                                    },
                                    {
                                        "children": [],
                                        "depth": 1,
                                        "name": "log",
                                        "value": 0
                                    }
                                ],
                                "depth": 0,
                                "name": "Executed Gas",
                                "value": 124313
                            }
                        ],
                        "depth": -1,
                        "name": "Actual Gas Used",
                        "value": 143313
                    },
                    {
                        "children": [],
                        "depth": -1,
                        "name": "Refunded Gas",
                        "value": 2800
                    }
                ],
                "depth": -2,
                "name": "Total Gas",
                "value": 146113
            }
        ],
        "isConfirmed": true,
        "mainTrace": [
            {
                "children": [
                    {
                        "children": [
                            {
                                "children": [
                                    {
                                        "children": [],
                                        "depth": 2,
                                        "id": 2,
                                        "order": 2
                                    },
                                    {
                                        "children": [
                                            {
                                                "children": [],
                                                "depth": 3,
                                                "id": 4,
                                                "order": 4
                                            }
                                        ],
                                        "depth": 2,
                                        "id": 3,
                                        "order": 3
                                    }
                                ],
                                "depth": 1,
                                "id": 1,
                                "order": 1
                            },
                            {
                                "children": [
                                    {
                                        "children": [],
                                        "depth": 2,
                                        "id": 6,
                                        "order": 6
                                    },
                                    {
                                        "children": [
                                            {
                                                "children": [],
                                                "depth": 3,
                                                "id": 8,
                                                "order": 8
                                            },
                                            {
                                                "children": [
                                                    {
                                                        "children": [],
                                                        "depth": 4,
                                                        "id": 10,
                                                        "order": 10
                                                    }
                                                ],
                                                "depth": 3,
                                                "id": 9,
                                                "order": 9
                                            },
                                            {
                                                "children": [
                                                    {
                                                        "children": [],
                                                        "depth": 4,
                                                        "id": 12,
                                                        "order": 12
                                                    }
                                                ],
                                                "depth": 3,
                                                "id": 11,
                                                "order": 11
                                            },
                                            {
                                                "children": [
                                                    {
                                                        "children": [
                                                            {
                                                                "children": [],
                                                                "depth": 5,
                                                                "id": 15,
                                                                "order": 15
                                                            }
                                                        ],
                                                        "depth": 4,
                                                        "id": 14,
                                                        "order": 14
                                                    }
                                                ],
                                                "depth": 3,
                                                "id": 13,
                                                "order": 13
                                            },
                                            {
                                                "children": [],
                                                "depth": 3,
                                                "id": 16,
                                                "order": 16
                                            },
                                            {
                                                "children": [],
                                                "depth": 3,
                                                "id": 17,
                                                "order": 17
                                            }
                                        ],
                                        "depth": 2,
                                        "id": 7,
                                        "order": 7
                                    }
                                ],
                                "depth": 1,
                                "id": 5,
                                "order": 5
                            },
                            {
                                "children": [
                                    {
                                        "children": [],
                                        "depth": 2,
                                        "id": 19,
                                        "order": 19
                                    }
                                ],
                                "depth": 1,
                                "id": 18,
                                "order": 18
                            },
                            {
                                "children": [],
                                "depth": 1,
                                "id": 20,
                                "order": 20
                            }
                        ],
                        "depth": 0,
                        "id": 0,
                        "order": 0
                    }
                ],
                "depth": -1,
                "id": -1,
                "order": -1
            }
        ],
        "mainTraceNodeCount": 21,
        "parentIdMap": {
            "0": -1,
            "1": 0,
            "10": 9,
            "11": 7,
            "12": 11,
            "13": 7,
            "14": 13,
            "15": 14,
            "16": 7,
            "17": 7,
            "18": 0,
            "19": 18,
            "2": 1,
            "20": 0,
            "3": 1,
            "4": 3,
            "5": 0,
            "6": 5,
            "7": 5,
            "8": 7,
            "9": 7
        },
        "tidyTrace": [
            {
                "children": [
                    {
                        "children": [
                            {
                                "children": [
                                    {
                                        "children": [
                                            {
                                                "children": [],
                                                "depth": 3,
                                                "id": 4,
                                                "order": 4
                                            }
                                        ],
                                        "depth": 2,
                                        "id": 3,
                                        "order": 3
                                    }
                                ],
                                "depth": 1,
                                "id": 1,
                                "order": 1
                            },
                            {
                                "children": [
                                    {
                                        "children": [
                                            {
                                                "children": [
                                                    {
                                                        "children": [
                                                            {
                                                                "children": [],
                                                                "depth": 5,
                                                                "id": 15,
                                                                "order": 15
                                                            }
                                                        ],
                                                        "depth": 4,
                                                        "id": 14,
                                                        "order": 14
                                                    }
                                                ],
                                                "depth": 3,
                                                "id": 13,
                                                "order": 13
                                            },
                                            {
                                                "children": [],
                                                "depth": 3,
                                                "id": 16,
                                                "order": 16
                                            },
                                            {
                                                "children": [],
                                                "depth": 3,
                                                "id": 17,
                                                "order": 17
                                            }
                                        ],
                                        "depth": 2,
                                        "id": 7,
                                        "order": 7
                                    }
                                ],
                                "depth": 1,
                                "id": 5,
                                "order": 5
                            },
                            {
                                "children": [
                                    {
                                        "children": [],
                                        "depth": 2,
                                        "id": 19,
                                        "order": 19
                                    }
                                ],
                                "depth": 1,
                                "id": 18,
                                "order": 18
                            }
                        ],
                        "depth": 0,
                        "id": 0,
                        "order": 0
                    }
                ],
                "depth": -1,
                "id": -1,
                "order": -1
            }
        ],
        "tidyTraceNodeCount": 13
    },
    "state_change": {
        "stateChanges": [
            {
                "address": "0x31adda225642a8f4d7e90d4152be6661ab22a5a2",
                "erc": "ERC-20",
                "slots": [
                    {
                        "current": "0x000000000000000000000000000000000000000000000000a688906bd8b00000",
                        "key": "0x4928949d89e1b09a1d15df2eb33dd95d048e351bcf12fe798f83f4fb2b21793d",
                        "prev": "0x000000000000000000000000000000000000000000022038a13314d8caf00000"
                    },
                    {
                        "current": "0x000000000000000000000000000000000000000000022037faaa846cf2400000",
                        "key": "0x127a17a615823052cc1666636ab2cad53a8335a6028aa5beafb838d9926c6854",
                        "prev": "0x0000000000000000000000000000000000000000000000000000000000000000"
                    }
                ],
                "storageVariables": [
                    {
                        "name": "_balances",
                        "type": "mapping(address => uint256)",
                        "value": {
                            "pairs": [
                                {
                                    "key": "0x40c31236b228935b0329eff066b1ad96e319595e",
                                    "value": {
                                        "current": "12000000000000000000",
                                        "prev": "2570012000000000000000000",
                                        "typeTag": 1
                                    }
                                },
                                {
                                    "key": "0x5b8d598b354f5760b2a65f492154e7a3df46d1be",
                                    "value": {
                                        "current": "2570000000000000000000000",
                                        "prev": "0",
                                        "typeTag": 1
                                    }
                                }
                            ],
                            "typeTag": 4
                        }
                    }
                ]
            },
            {
                "address": "0x40c31236b228935b0329eff066b1ad96e319595e",
                "erc": "",
                "slots": [
                    {
                        "current": "0x000000000000000000000000ba6fa6e8500cd8eeda8ebb9dfbcc554ff4a3eb77",
                        "key": "0x0000000000000000000000000000000000000000000000000000000000000003",
                        "prev": "0x000000000000000000000000f0e9a593d3b252511adfb5ea16ebf0a0450b2a11"
                    },
                    {
                        "current": "0x000000000000000000000000000000000000000000000000a688906bd8b00000",
                        "key": "0xc0801673e11c2f40cd912c69b25fbd270c4e562e5d641d8ec0838a9729e12612",
                        "prev": "0x000000000000000000000000000000000000000000022038a13314d8caf00000"
                    }
                ],
                "storageVariables": []
            }
        ]
    }
}