{
    "balance_change": {
        "balanceChanges": []
    },
    "profile": {
        "basic_info": {
            "baseFee": "",
            "blockNumber": 23695905,
            "callData": "0x90607876",
            "debugEnable": true,
            "errorInfo": "execution reverted",
            "eventCount": 20,
            "feeRecipient": "0x8b6c8fd93d6f4cea42bbb345dbc6f0dfdb5bec73",
            "formatValue": "0",
            "gasLimit": 2964313,
            "gasPrice": "5",
            "gasUsed": 424556,
            "intTxnCount": 33,
            "internalRevert": true,
            "internalRevertMessage": "",
            "isContractCreation": false,
            "isFlashloan": true,
            "maxFee": "",
            "nonce": 2,
            "overwritedBlockNumber": -1,
            "priorityFee": "",
            "receiver": "0x3d2d1c00b859ab56385e1a5fc73e173297b25619",
            "revertMessage": "&ERC20: transfer amount exceeds balance",
            "sender": "0x4054c1af800d15f8e73e04eb92f411ffe9c4d671",
            "simulationEnable": true,
            "sourceTxnHash": "0x52deb26eda0f8b3b56a3588a9f63d9bda872f507bf782a3e9dfdb7bae969ab7d",
            "status": false,
            "timestamp": "2022-12-07T08:57:06Z",
            "transactionFee": "0.00212278",
            "txnHash": "0x52deb26eda0f8b3b56a3588a9f63d9bda872f507bf782a3e9dfdb7bae969ab7d",
            "txnIndex": 116,
            "type": 0,
            "value": "0"
        },
        "fund_flow": [],
        "token_infos": [
            {
                "address": "0x55d398326f99059ff775485246999027b3197955",
                "decimals": 18
            },
            {
                "address": "0xbb4cdb9cbd36b01bd1cbaebf2de08d9173bc095c",
                "decimals": 18
            },
            {
                "address": "0xddc0cff76bcc0ee14c3e73af630c029fe020f907",
                "decimals": 18
            },
            {
                "address": "0xeeeeeeeeeeeeeeeeeeeeeeeeeeeeeeeeeeeeeeee",
                "decimals": 18
            }
        ]
    },
    "address_label": {
        "labels": [
            {
                "address": "0x0000000000000000000000000000000000000003",
                "label": "Precompiled"
            },
            {
                "address": "0x10ed43c718714eb63d5aa57b78b54704e256024e",
                "label": "PancakeRouter"
            },
            {
                "address": "0xddc0cff76bcc0ee14c3e73af630c029fe020f907",
                "label": "AES (AES)"
            },
            {
                "address": "0x9ad32e3054268b849b84a8dbcc7c8f7c52e4e69a",
                "label": "DPPOracle"
            },
            {
                "address": "0x40ed17221b3b2d8455f4f1a05cac6b77c5f707e3",
                "label": "Pancake LPs (Cake-LP)"
            },
            {
                "address": "0x55d398326f99059ff775485246999027b3197955",
                "label": "BUSD-T Stablecoin"
            },
            {
                "address": "0xeeeeeeeeeeeeeeeeeeeeeeeeeeeeeeeeeeeeeeee",
                "label": "BNB"
            },
            {
                "address": "0x0000000000000000000000000000000000000001",
                "label": "Precompiled"
            },
            {
                "address": "0x0000000000000000000000000000000000000002",
                "label": "Precompiled"
            },
            {
                "address": "0x0000000000000000000000000000000000000004",
                "label": "Precompiled"
            }
        ]
    },
    "trace": {
        "accountLabels": null,
        "dataMap": {
            "-1": {
                "invocation": {
                    "address": "0x4054c1af800d15f8e73e04eb92f411ffe9c4d671",
                    "callData": "",
                    "decodedMethod": null,
                    "errorInfo": "",
                    "fromAddress": "",
                    "gasUsed": 0,
                    "id": -1,
                    "methodDecoded": false,
                    "operation": "",
                    "output": "",
                    "revert": false,
                    "revertMessage": "",
                    "selector": "",
                    "status": false,
                    "value": ""
                },
                "nodeType": 0
            },
            "0": {
                "invocation": {
                    "address": "0x3d2d1c00b859ab56385e1a5fc73e173297b25619",
                    "callData": "0x",
                    "decodedMethod": null,
                    "errorInfo": "execution reverted",
                    "fromAddress": "0x4054c1af800d15f8e73e04eb92f411ffe9c4d671",
                    "gasUsed": 424556,
                    "id": 0,
                    "methodDecoded": false,
                    "operation": "CALL",
                    "output": "0x08c379a00000000000000000000000000000000000000000000000000000000000000020000000000000000000000000000000000000000000000000000000000000002645524332303a207472616e7366657220616d6f756e7420657863656564732062616c616e63650000000000000000000000000000000000000000000000000000",
                    "revert": true,
                    "revertMessage": "&ERC20: transfer amount exceeds balance",
                    "selector": "0x90607876",
                    "status": false,
                    "value": "0"
                },
                "nodeType": 0
            },
            "1": {
                "invocation": {
                    "address": "0x55d398326f99059ff775485246999027b3197955",
                    "callData": "0x0000000000000000000000009ad32e3054268b849b84a8dbcc7c8f7c52e4e69a",
                    "decodedMethod": {
                        "callParams": [
                            {
                                "name": "account",
                                "type": "address",
                                "value": "0x9ad32e3054268b849b84a8dbcc7c8f7c52e4e69a"
                            }
                        ],
                        "constructorArguments": "",
                        "name": "balanceOf",
                        "returnParams": [
                            {
                                "decimalAvailable": true,
                                "name": "",
                                "type": "uint256",
                                "value": "836,944,312,816,628,772,067,694"
                            }
                        ],
                        "signature": "balanceOf(address)"
                    },
                    "errorInfo": "",
                    "fromAddress": "0x3d2d1c00b859ab56385e1a5fc73e173297b25619",
                    "gasUsed": 1231,
                    "id": 1,
                    "methodDecoded": true,
                    "operation": "STATICCALL",
                    "output": "0x00000000000000000000000000000000000000000000b13ad79489b5490b596e",
                    "revert": true,
                    "revertMessage": "",
                    "selector": "0x70a08231",
                    "status": true,
                    "value": "0"
                },
                "nodeType": 0
            },
            "10": {
                "event": {
                    "contract": "0x55d398326f99059ff775485246999027b3197955",
                    "decodedLog": {
                        "name": "Transfer",
                        "params": [
                            {
                                "name": "from",
                                "type": "address",
                                "value": "0x3d2d1c00b859ab56385e1a5fc73e173297b25619"
                            },
                            {
                                "name": "to",
                                "type": "address",
                                "value": "0x40ed17221b3b2d8455f4f1a05cac6b77c5f707e3"
                            },
                            {
                                "decimalAvailable": true,
                                "name": "value",
                                "type": "uint256",
                                "value": "100,000,000,000,000,000,000,000"
                            }
                        ],
                        "signature": "Transfer(address,address,uint256)"
                    },
                    "id": 10,
                    "logData": "0x00000000000000000000000000000000000000000000152d02c7e14af6800000",
                    "logDecoded": true,
                    "operation": "EVENT",
                    "revert": true,
                    "status": false,
                    "topics": [
                        "0xddf252ad1be2c89b69c2b068fc378daa952ba7f163c4a11628f55a4df523b3ef",
                        "0x0000000000000000000000003d2d1c00b859ab56385e1a5fc73e173297b25619",
                        "0x00000000000000000000000040ed17221b3b2d8455f4f1a05cac6b77c5f707e3"
                    ]
                },
                "nodeType": 1
            },
            "11": {
                "event": {
                    "contract": "0x55d398326f99059ff775485246999027b3197955",
                    "decodedLog": {
                        "name": "Approval",
                        "params": [
                            {
                                "name": "owner",
                                "type": "address",
                                "value": "0x3d2d1c00b859ab56385e1a5fc73e173297b25619"
                            },
                            {
                                "name": "spender",
                                "type": "address",
                                "value": "0x10ed43c718714eb63d5aa57b78b54704e256024e"
                            },
                            {
                                "decimalAvailable": true,
                                "name": "value",
                                "type": "uint256",
                                "value": "0"
                            }
                        ],
                        "signature": "Approval(address,address,uint256)"
                    },
                    "id": 11,
                    "logData": "0x0000000000000000000000000000000000000000000000000000000000000000",
                    "logDecoded": true,
                    "operation": "EVENT",
                    "revert": true,
                    "status": false,
                    "topics": [
                        "0x8c5be1e5ebec7d5bd14f71427d1e84f3dd0314c0f7b2291e5b200ac8c7c3b925",
                        "0x0000000000000000000000003d2d1c00b859ab56385e1a5fc73e173297b25619",
                        "0x00000000000000000000000010ed43c718714eb63d5aa57b78b54704e256024e"
                    ]
                },
                "nodeType": 1
            },
            "12": {
                "invocation": {
                    "address": "0xddc0cff76bcc0ee14c3e73af630c029fe020f907",
                    "callData": "0x0000000000000000000000003d2d1c00b859ab56385e1a5fc73e173297b25619",
                    "decodedMethod": {
                        "callParams": [
                            {
                                "name": "account",
                                "type": "address",
                                "value": "0x3d2d1c00b859ab56385e1a5fc73e173297b25619"
                            }
                        ],
                        "constructorArguments": "",
                        "name": "balanceOf",
                        "returnParams": [
                            {
                                "decimalAvailable": true,
                                "name": "",
                                "type": "uint256",
                                "value": "0"
                            }
                        ],
                        "signature": "balanceOf(address)"
                    },
                    "errorInfo": "",
                    "fromAddress": "0x10ed43c718714eb63d5aa57b78b54704e256024e",
                    "gasUsed": 1609,
                    "id": 12,
                    "methodDecoded": true,
                    "operation": "STATICCALL",
                    "output": "0x0000000000000000000000000000000000000000000000000000000000000000",
                    "revert": true,
                    "revertMessage": "",
                    "selector": "0x70a08231",
                    "status": true,
                    "value": "0"
                },
                "nodeType": 0
            },
            "13": {
                "invocation": {
                    "address": "0x40ed17221b3b2d8455f4f1a05cac6b77c5f707e3",
                    "callData": "0x",
                    "decodedMethod": {
                        "callParams": [],
                        "constructorArguments": "",
                        "name": "getReserves",
                        "returnParams": [
                            {
                                "name": "_reserve0",
                                "type": "uint112",
                                "value": "2,418,893,887,874,475,909,110"
                            },
                            {
                                "name": "_reserve1",
                                "type": "uint112",
                                "value": "1,376,301,156,220,937,343,391,700"
                            },
                            {
                                "name": "_blockTimestampLast",
                                "type": "uint32",
                                "value": "1,670,403,426"
                            }
                        ],
                        "signature": "getReserves()"
                    },
                    "errorInfo": "",
                    "fromAddress": "0x10ed43c718714eb63d5aa57b78b54704e256024e",
                    "gasUsed": 2993,
                    "id": 13,
                    "methodDecoded": true,
                    "operation": "STATICCALL",
                    "output": "0x00000000000000000000000000000000000000000000008320e5672c39b25ff60000000000000000000000000000000000000000000123716f67dae5d168d7d40000000000000000000000000000000000000000000000000000000063905562",
                    "revert": true,
                    "revertMessage": "",
                    "selector": "0x0902f1ac",
                    "status": true,
                    "value": "0"
                },
                "nodeType": 0
            },
            "14": {
                "invocation": {
                    "address": "0x55d398326f99059ff775485246999027b3197955",
                    "callData": "0x00000000000000000000000040ed17221b3b2d8455f4f1a05cac6b77c5f707e3",
                    "decodedMethod": {
                        "callParams": [
                            {
                                "name": "account",
                                "type": "address",
                                "value": "0x40ed17221b3b2d8455f4f1a05cac6b77c5f707e3"
                            }
                        ],
                        "constructorArguments": "",
                        "name": "balanceOf",
                        "returnParams": [
                            {
                                "decimalAvailable": true,
                                "name": "",
                                "type": "uint256",
                                "value": "102,418,893,887,874,475,909,110"
                            }
                        ],
                        "signature": "balanceOf(address)"
                    },
                    "errorInfo": "",
                    "fromAddress": "0x10ed43c718714eb63d5aa57b78b54704e256024e",
                    "gasUsed": 1231,
                    "id": 14,
                    "methodDecoded": true,
                    "operation": "STATICCALL",
                    "output": "0x0000000000000000000000000000000000000000000015b023ad487730325ff6",
                    "revert": true,
                    "revertMessage": "",
                    "selector": "0x70a08231",
                    "status": true,
                    "value": "0"
                },
                "nodeType": 0
            },
            "15": {
                "invocation": {
                    "address": "0x40ed17221b3b2d8455f4f1a05cac6b77c5f707e3",
                    "callData": "0x0000000000000000000000000000000000000000000000000000000000000000000000000000000000000000000000000000000000011c8b0611507f29391a1b0000000000000000000000003d2d1c00b859ab56385e1a5fc73e173297b2561900000000000000000000000000000000000000000000000000000000000000800000000000000000000000000000000000000000000000000000000000000000",
                    "decodedMethod": {
                        "callParams": [
                            {
                                "name": "amount0Out",
                                "type": "uint256",
                                "value": "0"
                            },
                            {
                                "name": "amount1Out",
                                "type": "uint256",
                                "value": "1,343,716,615,780,370,782,689,819"
                            },
                            {
                                "name": "to",
                                "type": "address",
                                "value": "0x3d2d1c00b859ab56385e1a5fc73e173297b25619"
                            },
                            {
                                "name": "data",
                                "type": "bytes",
                                "value": "0x"
                            }
                        ],
                        "constructorArguments": "",
                        "name": "swap",
                        "returnParams": [],
                        "signature": "swap(uint256,uint256,address,bytes)"
                    },
                    "errorInfo": "",
                    "fromAddress": "0x10ed43c718714eb63d5aa57b78b54704e256024e",
                    "gasUsed": 86684,
                    "id": 15,
                    "methodDecoded": true,
                    "operation": "CALL",
                    "output": "",
                    "revert": true,
                    "revertMessage": "",
                    "selector": "0x022c0d9f",
                    "status": true,
                    "value": "0"
                },
                "nodeType": 0
            },
            "16": {
                "invocation": {
                    "address": "0xddc0cff76bcc0ee14c3e73af630c029fe020f907",
                    "callData": "0x0000000000000000000000003d2d1c00b859ab56385e1a5fc73e173297b25619000000000000000000000000000000000000000000011c8b0611507f29391a1b",
                    "decodedMethod": {
                        "callParams": [
                            {
                                "name": "to",
                                "type": "address",
                                "value": "0x3d2d1c00b859ab56385e1a5fc73e173297b25619"
                            },
                            {
                                "decimalAvailable": true,
                                "name": "amount",
                                "type": "uint256",
                                "value": "1,343,716,615,780,370,782,689,819"
                            }
                        ],
                        "constructorArguments": "",
                        "name": "transfer",
                        "returnParams": [
                            {
                                "name": "",
                                "type": "bool",
                                "value": true
                            }
                        ],
                        "signature": "transfer(address,uint256)"
                    },
                    "errorInfo": "",
                    "fromAddress": "0x40ed17221b3b2d8455f4f1a05cac6b77c5f707e3",
                    "gasUsed": 49308,
                    "id": 16,
                    "methodDecoded": true,
                    "operation": "CALL",
                    "output": "0x0000000000000000000000000000000000000000000000000000000000000001",
                    "revert": true,
                    "revertMessage": "",
                    "selector": "0xa9059cbb",
                    "status": true,
                    "value": "0"
                },
                "nodeType": 0
            },
            "17": {
                "event": {
                    "contract": "0xddc0cff76bcc0ee14c3e73af630c029fe020f907",
                    "decodedLog": {
                        "name": "Transfer",
                        "params": [
                            {
                                "name": "from",
                                "type": "address",
                                "value": "0x40ed17221b3b2d8455f4f1a05cac6b77c5f707e3"
                            },
                            {
                                "name": "to",
                                "type": "address",
                                "value": "0x0000000000000000000000000000000000000000"
                            },
                            {
                                "decimalAvailable": true,
                                "name": "value",
                                "type": "uint256",
                                "value": "40,311,498,473,411,123,480,694"
                            }
                        ],
                        "signature": "Transfer(address,address,uint256)"
                    },
                    "id": 17,
                    "logData": "0x0000000000000000000000000000000000000000000008894a6c0a184b7a0876",
                    "logDecoded": true,
                    "operation": "EVENT",
                    "revert": true,
                    "status": false,
                    "topics": [
                        "0xddf252ad1be2c89b69c2b068fc378daa952ba7f163c4a11628f55a4df523b3ef",
                        "0x00000000000000000000000040ed17221b3b2d8455f4f1a05cac6b77c5f707e3",
                        "0x0000000000000000000000000000000000000000000000000000000000000000"
                    ]
                },
                "nodeType": 1
            },
            "18": {
                "event": {
                    "contract": "0xddc0cff76bcc0ee14c3e73af630c029fe020f907",
                    "decodedLog": {
                        "name": "Transfer",
                        "params": [
                            {
                                "name": "from",
                                "type": "address",
                                "value": "0x40ed17221b3b2d8455f4f1a05cac6b77c5f707e3"
                            },
                            {
                                "name": "to",
                                "type": "address",
                                "value": "0x3d2d1c00b859ab56385e1a5fc73e173297b25619"
                            },
                            {
                                "decimalAvailable": true,
                                "name": "value",
                                "type": "uint256",
                                "value": "1,209,344,954,202,333,704,420,838"
                            }
                        ],
                        "signature": "Transfer(address,address,uint256)"
                    },
                    "id": 18,
                    "logData": "0x000000000000000000000000000000000000000000010016b8a92ed8d84cfde6",
                    "logDecoded": true,
                    "operation": "EVENT",
                    "revert": true,
                    "status": false,
                    "topics": [
                        "0xddf252ad1be2c89b69c2b068fc378daa952ba7f163c4a11628f55a4df523b3ef",
                        "0x00000000000000000000000040ed17221b3b2d8455f4f1a05cac6b77c5f707e3",
                        "0x0000000000000000000000003d2d1c00b859ab56385e1a5fc73e173297b25619"
                    ]
                },
                "nodeType": 1
            },
            "19": {
                "invocation": {
                    "address": "0x55d398326f99059ff775485246999027b3197955",
                    "callData": "0x00000000000000000000000040ed17221b3b2d8455f4f1a05cac6b77c5f707e3",
                    "decodedMethod": {
                        "callParams": [
                            {
                                "name": "account",
                                "type": "address",
                                "value": "0x40ed17221b3b2d8455f4f1a05cac6b77c5f707e3"
                            }
                        ],
                        "constructorArguments": "",
                        "name": "balanceOf",
                        "returnParams": [
                            {
                                "decimalAvailable": true,
                                "name": "",
                                "type": "uint256",
                                "value": "102,418,893,887,874,475,909,110"
                            }
                        ],
                        "signature": "balanceOf(address)"
                    },
                    "errorInfo": "",
                    "fromAddress": "0x40ed17221b3b2d8455f4f1a05cac6b77c5f707e3",
                    "gasUsed": 1231,
                    "id": 19,
                    "methodDecoded": true,
                    "operation": "STATICCALL",
                    "output": "0x0000000000000000000000000000000000000000000015b023ad487730325ff6",
                    "revert": true,
                    "revertMessage": "",
                    "selector": "0x70a08231",
                    "status": true,
                    "value": "0"
                },
                "nodeType": 0
            },
            "2": {
                "invocation": {
                    "address": "0x9ad32e3054268b849b84a8dbcc7c8f7c52e4e69a",
                    "callData": "0x000000000000000000000000000000000000000000000000000000000000000000000000000000000000000000000000000000000000b13ad79489b5490b596e0000000000000000000000003d2d1c00b859ab56385e1a5fc73e173297b25619000000000000000000000000000000000000000000000000000000000000008000000000000000000000000000000000000000000000000000000000000000013000000000000000000000000000000000000000000000000000000000000000",
                    "decodedMethod": {
                        "callParams": [
                            {
                                "name": "baseAmount",
                                "type": "uint256",
                                "value": "0"
                            },
                            {
                                "name": "quoteAmount",
                                "type": "uint256",
                                "value": "836,944,312,816,628,772,067,694"
                            },
                            {
                                "name": "_assetTo",
                                "type": "address",
                                "value": "0x3d2d1c00b859ab56385e1a5fc73e173297b25619"
                            },
                            {
                                "name": "data",
                                "type": "bytes",
                                "value": "0x30"
                            }
                        ],
                        "constructorArguments": "",
                        "name": "flashLoan",
                        "returnParams": [],
                        "signature": "flashLoan(uint256,uint256,address,bytes)"
                    },
                    "errorInfo": "execution reverted",
                    "fromAddress": "0x3d2d1c00b859ab56385e1a5fc73e173297b25619",
                    "gasUsed": 393186,
                    "id": 2,
                    "methodDecoded": true,
                    "operation": "CALL",
                    "output": "0x08c379a00000000000000000000000000000000000000000000000000000000000000020000000000000000000000000000000000000000000000000000000000000002645524332303a207472616e7366657220616d6f756e7420657863656564732062616c616e63650000000000000000000000000000000000000000000000000000",
                    "revert": true,
                    "revertMessage": "&ERC20: transfer amount exceeds balance",
                    "selector": "0xd0a494e4",
                    "status": false,
                    "value": "0"
                },
                "nodeType": 0
            },
            "20": {
                "invocation": {
                    "address": "0xddc0cff76bcc0ee14c3e73af630c029fe020f907",
                    "callData": "0x00000000000000000000000040ed17221b3b2d8455f4f1a05cac6b77c5f707e3",
                    "decodedMethod": {
                        "callParams": [
                            {
                                "name": "account",
                                "type": "address",
                                "value": "0x40ed17221b3b2d8455f4f1a05cac6b77c5f707e3"
                            }
                        ],
                        "constructorArguments": "",
                        "name": "balanceOf",
                        "returnParams": [
                            {
                                "decimalAvailable": true,
                                "name": "",
                                "type": "uint256",
                                "value": "126,644,703,545,192,515,490,168"
                            }
                        ],
                        "signature": "balanceOf(address)"
                    },
                    "errorInfo": "",
                    "fromAddress": "0x40ed17221b3b2d8455f4f1a05cac6b77c5f707e3",
                    "gasUsed": 1609,
                    "id": 20,
                    "methodDecoded": true,
                    "operation": "STATICCALL",
                    "output": "0x000000000000000000000000000000000000000000001ad16c52a1f4ada1d178",
                    "revert": true,
                    "revertMessage": "",
                    "selector": "0x70a08231",
                    "status": true,
                    "value": "0"
                },
                "nodeType": 0
            },
            "21": {
                "event": {
                    "contract": "0x40ed17221b3b2d8455f4f1a05cac6b77c5f707e3",
                    "decodedLog": {
                        "name": "Sync",
                        "params": [
                            {
                                "name": "reserve0",
                                "type": "uint112",
                                "value": "102,418,893,887,874,475,909,110"
                            },
                            {
                                "name": "reserve1",
                                "type": "uint112",
                                "value": "126,644,703,545,192,515,490,168"
                            }
                        ],
                        "signature": "Sync(uint112,uint112)"
                    },
                    "id": 21,
                    "logData": "0x0000000000000000000000000000000000000000000015b023ad487730325ff6000000000000000000000000000000000000000000001ad16c52a1f4ada1d178",
                    "logDecoded": true,
                    "operation": "EVENT",
                    "revert": true,
                    "status": false,
                    "topics": [
                        "0x1c411e9a96e071241c2f21f7726b17ae89e3cab4c78be50e062b03a9fffbbad1"
                    ]
                },
                "nodeType": 1
            },
            "22": {
                "event": {
                    "contract": "0x40ed17221b3b2d8455f4f1a05cac6b77c5f707e3",
                    "decodedLog": {
                        "name": "Swap",
                        "params": [
                            {
                                "name": "sender",
                                "type": "address",
                                "value": "0x10ed43c718714eb63d5aa57b78b54704e256024e"
                            },
                            {
                                "name": "to",
                                "type": "address",
                                "value": "0x3d2d1c00b859ab56385e1a5fc73e173297b25619"
                            },
                            {
                                "name": "amount0In",
                                "type": "uint256",
                                "value": "100,000,000,000,000,000,000,000"
                            },
                            {
                                "name": "amount1In",
                                "type": "uint256",
                                "value": "94,060,163,104,625,954,788,287"
                            },
                            {
                                "name": "amount0Out",
                                "type": "uint256",
                                "value": "0"
                            },
                            {
                                "name": "amount1Out",
                                "type": "uint256",
                                "value": "1,343,716,615,780,370,782,689,819"
                            }
                        ],
                        "signature": "Swap(address,uint256,uint256,uint256,uint256,address)"
                    },
                    "id": 22,
                    "logData": "0x00000000000000000000000000000000000000000000152d02c7e14af68000000000000000000000000000000000000000000000000013eb02fc178e057213bf0000000000000000000000000000000000000000000000000000000000000000000000000000000000000000000000000000000000011c8b0611507f29391a1b",
                    "logDecoded": true,
                    "operation": "EVENT",
                    "revert": true,
                    "status": false,
                    "topics": [
                        "0xd78ad95fa46c994b6551d0da85fc275fe613ce37657fb8d5e3d130840159d822",
                        "0x00000000000000000000000010ed43c718714eb63d5aa57b78b54704e256024e",
                        "0x0000000000000000000000003d2d1c00b859ab56385e1a5fc73e173297b25619"
                    ]
                },
                "nodeType": 1
            },
            "23": {
                "invocation": {
                    "address": "0xddc0cff76bcc0ee14c3e73af630c029fe020f907",
                    "callData": "0x0000000000000000000000003d2d1c00b859ab56385e1a5fc73e173297b25619",
                    "decodedMethod": {
                        "callParams": [
                            {
                                "name": "account",
                                "type": "address",
                                "value": "0x3d2d1c00b859ab56385e1a5fc73e173297b25619"
                            }
                        ],
                        "constructorArguments": "",
                        "name": "balanceOf",
                        "returnParams": [
                            {
                                "decimalAvailable": true,
                                "name": "",
                                "type": "uint256",
                                "value": "1,209,344,954,202,333,704,420,838"
                            }
                        ],
                        "signature": "balanceOf(address)"
                    },
                    "errorInfo": "",
                    "fromAddress": "0x10ed43c718714eb63d5aa57b78b54704e256024e",
                    "gasUsed": 1609,
                    "id": 23,
                    "methodDecoded": true,
                    "operation": "STATICCALL",
                    "output": "0x000000000000000000000000000000000000000000010016b8a92ed8d84cfde6",
                    "revert": true,
                    "revertMessage": "",
                    "selector": "0x70a08231",
                    "status": true,
                    "value": "0"
                },
                "nodeType": 0
            },
            "24": {
                "invocation": {
                    "address": "0xddc0cff76bcc0ee14c3e73af630c029fe020f907",
                    "callData": "0x00000000000000000000000040ed17221b3b2d8455f4f1a05cac6b77c5f707e3",
                    "decodedMethod": {
                        "callParams": [
                            {
                                "name": "account",
                                "type": "address",
                                "value": "0x40ed17221b3b2d8455f4f1a05cac6b77c5f707e3"
                            }
                        ],
                        "constructorArguments": "",
                        "name": "balanceOf",
                        "returnParams": [
                            {
                                "decimalAvailable": true,
                                "name": "",
                                "type": "uint256",
                                "value": "126,644,703,545,192,515,490,168"
                            }
                        ],
                        "signature": "balanceOf(address)"
                    },
                    "errorInfo": "",
                    "fromAddress": "0x3d2d1c00b859ab56385e1a5fc73e173297b25619",
                    "gasUsed": 1609,
                    "id": 24,
                    "methodDecoded": true,
                    "operation": "STATICCALL",
                    "output": "0x000000000000000000000000000000000000000000001ad16c52a1f4ada1d178",
                    "revert": true,
                    "revertMessage": "",
                    "selector": "0x70a08231",
                    "status": true,
                    "value": "0"
                },
                "nodeType": 0
            },
            "25": {
                "invocation": {
                    "address": "0xddc0cff76bcc0ee14c3e73af630c029fe020f907",
                    "callData": "0x0000000000000000000000003d2d1c00b859ab56385e1a5fc73e173297b25619",
                    "decodedMethod": {
                        "callParams": [
                            {
                                "name": "account",
                                "type": "address",
                                "value": "0x3d2d1c00b859ab56385e1a5fc73e173297b25619"
                            }
                        ],
                        "constructorArguments": "",
                        "name": "balanceOf",
                        "returnParams": [
                            {
                                "decimalAvailable": true,
                                "name": "",
                                "type": "uint256",
                                "value": "1,209,344,954,202,333,704,420,838"
                            }
                        ],
                        "signature": "balanceOf(address)"
                    },
                    "errorInfo": "",
                    "fromAddress": "0x3d2d1c00b859ab56385e1a5fc73e173297b25619",
                    "gasUsed": 1609,
                    "id": 25,
                    "methodDecoded": true,
                    "operation": "STATICCALL",
                    "output": "0x000000000000000000000000000000000000000000010016b8a92ed8d84cfde6",
                    "revert": true,
                    "revertMessage": "",
                    "selector": "0x70a08231",
                    "status": true,
                    "value": "0"
                },
                "nodeType": 0
            },
            "26": {
                "invocation": {
                    "address": "0xddc0cff76bcc0ee14c3e73af630c029fe020f907",
                    "callData": "0x00000000000000000000000040ed17221b3b2d8455f4f1a05cac6b77c5f707e300000000000000000000000000000000000000000000800b5c54976c6c267ef3",
                    "decodedMethod": {
                        "callParams": [
                            {
                                "name": "to",
                                "type": "address",
                                "value": "0x40ed17221b3b2d8455f4f1a05cac6b77c5f707e3"
                            },
                            {
                                "decimalAvailable": true,
                                "name": "amount",
                                "type": "uint256",
                                "value": "604,672,477,101,166,852,210,419"
                            }
                        ],
                        "constructorArguments": "",
                        "name": "transfer",
                        "returnParams": [
                            {
                                "name": "",
                                "type": "bool",
                                "value": true
                            }
                        ],
                        "signature": "transfer(address,uint256)"
                    },
                    "errorInfo": "",
                    "fromAddress": "0x3d2d1c00b859ab56385e1a5fc73e173297b25619",
                    "gasUsed": 17925,
                    "id": 26,
                    "methodDecoded": true,
                    "operation": "CALL",
                    "output": "0x0000000000000000000000000000000000000000000000000000000000000001",
                    "revert": true,
                    "revertMessage": "",
                    "selector": "0xa9059cbb",
                    "status": true,
                    "value": "0"
                },
                "nodeType": 0
            },
            "27": {
                "event": {
                    "contract": "0xddc0cff76bcc0ee14c3e73af630c029fe020f907",
                    "decodedLog": {
                        "name": "Transfer",
                        "params": [
                            {
                                "name": "from",
                                "type": "address",
                                "value": "0x3d2d1c00b859ab56385e1a5fc73e173297b25619"
                            },
                            {
                                "name": "to",
                                "type": "address",
                                "value": "0x0000000000000000000000000000000000000000"
                            },
                            {
                                "decimalAvailable": true,
                                "name": "value",
                                "type": "uint256",
                                "value": "18,140,174,313,035,005,566,312"
                            }
                        ],
                        "signature": "Transfer(address,address,uint256)"
                    },
                    "id": 27,
                    "logData": "0x0000000000000000000000000000000000000000000003d7617d6af1552a1d68",
                    "logDecoded": true,
                    "operation": "EVENT",
                    "revert": true,
                    "status": false,
                    "topics": [
                        "0xddf252ad1be2c89b69c2b068fc378daa952ba7f163c4a11628f55a4df523b3ef",
                        "0x0000000000000000000000003d2d1c00b859ab56385e1a5fc73e173297b25619",
                        "0x0000000000000000000000000000000000000000000000000000000000000000"
                    ]
                },
                "nodeType": 1
            },
            "28": {
                "event": {
                    "contract": "0xddc0cff76bcc0ee14c3e73af630c029fe020f907",
                    "decodedLog": {
                        "name": "Transfer",
                        "params": [
                            {
                                "name": "from",
                                "type": "address",
                                "value": "0x3d2d1c00b859ab56385e1a5fc73e173297b25619"
                            },
                            {
                                "name": "to",
                                "type": "address",
                                "value": "0x40ed17221b3b2d8455f4f1a05cac6b77c5f707e3"
                            },
                            {
                                "decimalAvailable": true,
                                "name": "value",
                                "type": "uint256",
                                "value": "586,532,302,788,131,846,644,107"
                            }
                        ],
                        "signature": "Transfer(address,address,uint256)"
                    },
                    "id": 28,
                    "logData": "0x000000000000000000000000000000000000000000007c33fad72c7b16fc618b",
                    "logDecoded": true,
                    "operation": "EVENT",
                    "revert": true,
                    "status": false,
                    "topics": [
                        "0xddf252ad1be2c89b69c2b068fc378daa952ba7f163c4a11628f55a4df523b3ef",
                        "0x0000000000000000000000003d2d1c00b859ab56385e1a5fc73e173297b25619",
                        "0x00000000000000000000000040ed17221b3b2d8455f4f1a05cac6b77c5f707e3"
                    ]
                },
                "nodeType": 1
            },
            "29": {
                "invocation": {
                    "address": "0xddc0cff76bcc0ee14c3e73af630c029fe020f907",
                    "callData": "0x",
                    "decodedMethod": {
                        "callParams": [],
                        "constructorArguments": "",
                        "name": "swapFeeTotal",
                        "returnParams": [
                            {
                                "name": "",
                                "type": "uint256",
                                "value": "33,463,838,679,252,193,563,718"
                            }
                        ],
                        "signature": "swapFeeTotal()"
                    },
                    "errorInfo": "",
                    "fromAddress": "0x3d2d1c00b859ab56385e1a5fc73e173297b25619",
                    "gasUsed": 1195,
                    "id": 29,
                    "methodDecoded": true,
                    "operation": "CALL",
                    "output": "0x000000000000000000000000000000000000000000000716140d6bc38bf8d446",
                    "revert": true,
                    "revertMessage": "",
                    "selector": "0xd408ee2d",
                    "status": true,
                    "value": "0"
                },
                "nodeType": 0
            },
            "3": {
                "invocation": {
                    "address": "0x55d398326f99059ff775485246999027b3197955",
                    "callData": "0x0000000000000000000000003d2d1c00b859ab56385e1a5fc73e173297b2561900000000000000000000000000000000000000000000b13ad79489b5490b596e",
                    "decodedMethod": {
                        "callParams": [
                            {
                                "name": "recipient",
                                "type": "address",
                                "value": "0x3d2d1c00b859ab56385e1a5fc73e173297b25619"
                            },
                            {
                                "decimalAvailable": true,
                                "name": "amount",
                                "type": "uint256",
                                "value": "836,944,312,816,628,772,067,694"
                            }
                        ],
                        "constructorArguments": "",
                        "name": "transfer",
                        "returnParams": [
                            {
                                "name": "",
                                "type": "bool",
                                "value": true
                            }
                        ],
                        "signature": "transfer(address,uint256)"
                    },
                    "errorInfo": "",
                    "fromAddress": "0x9ad32e3054268b849b84a8dbcc7c8f7c52e4e69a",
                    "gasUsed": 29471,
                    "id": 3,
                    "methodDecoded": true,
                    "operation": "CALL",
                    "output": "0x0000000000000000000000000000000000000000000000000000000000000001",
                    "revert": true,
                    "revertMessage": "",
                    "selector": "0xa9059cbb",
                    "status": true,
                    "value": "0"
                },
                "nodeType": 0
            },
            "30": {
                "invocation": {
                    "address": "0x40ed17221b3b2d8455f4f1a05cac6b77c5f707e3",
                    "callData": "0x",
                    "decodedMethod": {
                        "callParams": [],
                        "constructorArguments": "",
                        "name": "getReserves",
                        "returnParams": [
                            {
                                "name": "_reserve0",
                                "type": "uint112",
                                "value": "102,418,893,887,874,475,909,110"
                            },
                            {
                                "name": "_reserve1",
                                "type": "uint112",
                                "value": "126,644,703,545,192,515,490,168"
                            },
                            {
                                "name": "_blockTimestampLast",
                                "type": "uint32",
                                "value": "1,670,403,426"
                            }
                        ],
                        "signature": "getReserves()"
                    },
                    "errorInfo": "",
                    "fromAddress": "0x3d2d1c00b859ab56385e1a5fc73e173297b25619",
                    "gasUsed": 2993,
                    "id": 30,
                    "methodDecoded": true,
                    "operation": "STATICCALL",
                    "output": "0x0000000000000000000000000000000000000000000015b023ad487730325ff6000000000000000000000000000000000000000000001ad16c52a1f4ada1d1780000000000000000000000000000000000000000000000000000000063905562",
                    "revert": true,
                    "revertMessage": "",
                    "selector": "0x0902f1ac",
                    "status": true,
                    "value": "0"
                },
                "nodeType": 0
            },
            "31": {
                "invocation": {
                    "address": "0xddc0cff76bcc0ee14c3e73af630c029fe020f907",
                    "callData": "0x00000000000000000000000040ed17221b3b2d8455f4f1a05cac6b77c5f707e3",
                    "decodedMethod": {
                        "callParams": [
                            {
                                "name": "account",
                                "type": "address",
                                "value": "0x40ed17221b3b2d8455f4f1a05cac6b77c5f707e3"
                            }
                        ],
                        "constructorArguments": "",
                        "name": "balanceOf",
                        "returnParams": [
                            {
                                "decimalAvailable": true,
                                "name": "",
                                "type": "uint256",
                                "value": "713,177,006,333,324,362,134,275"
                            }
                        ],
                        "signature": "balanceOf(address)"
                    },
                    "errorInfo": "",
                    "fromAddress": "0x3d2d1c00b859ab56385e1a5fc73e173297b25619",
                    "gasUsed": 1609,
                    "id": 31,
                    "methodDecoded": true,
                    "operation": "STATICCALL",
                    "output": "0x0000000000000000000000000000000000000000000097056729ce6fc49e3303",
                    "revert": true,
                    "revertMessage": "",
                    "selector": "0x70a08231",
                    "status": true,
                    "value": "0"
                },
                "nodeType": 0
            },
            "32": {
                "invocation": {
                    "address": "0x40ed17221b3b2d8455f4f1a05cac6b77c5f707e3",
                    "callData": "0x0000000000000000000000003d2d1c00b859ab56385e1a5fc73e173297b25619",
                    "decodedMethod": {
                        "callParams": [
                            {
                                "name": "to",
                                "type": "address",
                                "value": "0x3d2d1c00b859ab56385e1a5fc73e173297b25619"
                            }
                        ],
                        "constructorArguments": "",
                        "name": "skim",
                        "returnParams": [],
                        "signature": "skim(address)"
                    },
                    "errorInfo": "",
                    "fromAddress": "0x3d2d1c00b859ab56385e1a5fc73e173297b25619",
                    "gasUsed": 43786,
                    "id": 32,
                    "methodDecoded": true,
                    "operation": "CALL",
                    "output": "",
                    "revert": true,
                    "revertMessage": "",
                    "selector": "0xbc25cf77",
                    "status": true,
                    "value": "0"
                },
                "nodeType": 0
            },
            "33": {
                "invocation": {
                    "address": "0x55d398326f99059ff775485246999027b3197955",
                    "callData": "0x00000000000000000000000040ed17221b3b2d8455f4f1a05cac6b77c5f707e3",
                    "decodedMethod": {
                        "callParams": [
                            {
                                "name": "account",
                                "type": "address",
                                "value": "0x40ed17221b3b2d8455f4f1a05cac6b77c5f707e3"
                            }
                        ],
                        "constructorArguments": "",
                        "name": "balanceOf",
                        "returnParams": [
                            {
                                "decimalAvailable": true,
                                "name": "",
                                "type": "uint256",
                                "value": "102,418,893,887,874,475,909,110"
                            }
                        ],
                        "signature": "balanceOf(address)"
                    },
                    "errorInfo": "",
                    "fromAddress": "0x40ed17221b3b2d8455f4f1a05cac6b77c5f707e3",
                    "gasUsed": 1231,
                    "id": 33,
                    "methodDecoded": true,
                    "operation": "STATICCALL",
                    "output": "0x0000000000000000000000000000000000000000000015b023ad487730325ff6",
                    "revert": true,
                    "revertMessage": "",
                    "selector": "0x70a08231",
                    "status": true,
                    "value": "0"
                },
                "nodeType": 0
            },
            "34": {
                "invocation": {
                    "address": "0x55d398326f99059ff775485246999027b3197955",
                    "callData": "0x0000000000000000000000003d2d1c00b859ab56385e1a5fc73e173297b256190000000000000000000000000000000000000000000000000000000000000000",
                    "decodedMethod": {
                        "callParams": [
                            {
                                "name": "recipient",
                                "type": "address",
                                "value": "0x3d2d1c00b859ab56385e1a5fc73e173297b25619"
                            },
                            {
                                "decimalAvailable": true,
                                "name": "amount",
                                "type": "uint256",
                                "value": "0"
                            }
                        ],
                        "constructorArguments": "",
                        "name": "transfer",
                        "returnParams": [
                            {
                                "name": "",
                                "type": "bool",
                                "value": true
                            }
                        ],
                        "signature": "transfer(address,uint256)"
                    },
                    "errorInfo": "",
                    "fromAddress": "0x40ed17221b3b2d8455f4f1a05cac6b77c5f707e3",
                    "gasUsed": 6071,
                    "id": 34,
                    "methodDecoded": true,
                    "operation": "CALL",
                    "output": "0x0000000000000000000000000000000000000000000000000000000000000001",
                    "revert": true,
                    "revertMessage": "",
                    "selector": "0xa9059cbb",
                    "status": true,
                    "value": "0"
                },
                "nodeType": 0
            },
            "35": {
                "event": {
                    "contract": "0x55d398326f99059ff775485246999027b3197955",
                    "decodedLog": {
                        "name": "Transfer",
                        "params": [
                            {
                                "name": "from",
                                "type": "address",
                                "value": "0x40ed17221b3b2d8455f4f1a05cac6b77c5f707e3"
                            },
                            {
                                "name": "to",
                                "type": "address",
                                "value": "0x3d2d1c00b859ab56385e1a5fc73e173297b25619"
                            },
                            {
                                "decimalAvailable": true,
                                "name": "value",
                                "type": "uint256",
                                "value": "0"
                            }
                        ],
                        "signature": "Transfer(address,address,uint256)"
                    },
                    "id": 35,
                    "logData": "0x0000000000000000000000000000000000000000000000000000000000000000",
                    "logDecoded": true,
                    "operation": "EVENT",
                    "revert": true,
                    "status": false,
                    "topics": [
                        "0xddf252ad1be2c89b69c2b068fc378daa952ba7f163c4a11628f55a4df523b3ef",
                        "0x00000000000000000000000040ed17221b3b2d8455f4f1a05cac6b77c5f707e3",
                        "0x0000000000000000000000003d2d1c00b859ab56385e1a5fc73e173297b25619"
                    ]
                },
                "nodeType": 1
            },
            "36": {
                "invocation": {
                    "address": "0xddc0cff76bcc0ee14c3e73af630c029fe020f907",
                    "callData": "0x00000000000000000000000040ed17221b3b2d8455f4f1a05cac6b77c5f707e3",
                    "decodedMethod": {
                        "callParams": [
                            {
                                "name": "account",
                                "type": "address",
                                "value": "0x40ed17221b3b2d8455f4f1a05cac6b77c5f707e3"
                            }
                        ],
                        "constructorArguments": "",
                        "name": "balanceOf",
                        "returnParams": [
                            {
                                "decimalAvailable": true,
                                "name": "",
                                "type": "uint256",
                                "value": "713,177,006,333,324,362,134,275"
                            }
                        ],
                        "signature": "balanceOf(address)"
                    },
                    "errorInfo": "",
                    "fromAddress": "0x40ed17221b3b2d8455f4f1a05cac6b77c5f707e3",
                    "gasUsed": 1609,
                    "id": 36,
                    "methodDecoded": true,
                    "operation": "STATICCALL",
                    "output": "0x0000000000000000000000000000000000000000000097056729ce6fc49e3303",
                    "revert": true,
                    "revertMessage": "",
                    "selector": "0x70a08231",
                    "status": true,
                    "value": "0"
                },
                "nodeType": 0
            },
            "37": {
                "invocation": {
                    "address": "0xddc0cff76bcc0ee14c3e73af630c029fe020f907",
                    "callData": "0x0000000000000000000000003d2d1c00b859ab56385e1a5fc73e173297b25619000000000000000000000000000000000000000000007c33fad72c7b16fc618b",
                    "decodedMethod": {
                        "callParams": [
                            {
                                "name": "to",
                                "type": "address",
                                "value": "0x3d2d1c00b859ab56385e1a5fc73e173297b25619"
                            },
                            {
                                "decimalAvailable": true,
                                "name": "amount",
                                "type": "uint256",
                                "value": "586,532,302,788,131,846,644,107"
                            }
                        ],
                        "constructorArguments": "",
                        "name": "transfer",
                        "returnParams": [
                            {
                                "name": "",
                                "type": "bool",
                                "value": true
                            }
                        ],
                        "signature": "transfer(address,uint256)"
                    },
                    "errorInfo": "",
                    "fromAddress": "0x40ed17221b3b2d8455f4f1a05cac6b77c5f707e3",
                    "gasUsed": 17508,
                    "id": 37,
                    "methodDecoded": true,
                    "operation": "CALL",
                    "output": "0x0000000000000000000000000000000000000000000000000000000000000001",
                    "revert": true,
                    "revertMessage": "",
                    "selector": "0xa9059cbb",
                    "status": true,
                    "value": "0"
                },
                "nodeType": 0
            },
            "38": {
                "event": {
                    "contract": "0xddc0cff76bcc0ee14c3e73af630c029fe020f907",
                    "decodedLog": {
                        "name": "Transfer",
                        "params": [
                            {
                                "name": "from",
                                "type": "address",
                                "value": "0x40ed17221b3b2d8455f4f1a05cac6b77c5f707e3"
                            },
                            {
                                "name": "to",
                                "type": "address",
                                "value": "0x0000000000000000000000000000000000000000"
                            },
                            {
                                "decimalAvailable": true,
                                "name": "value",
                                "type": "uint256",
                                "value": "17,595,969,083,643,955,399,323"
                            }
                        ],
                        "signature": "Transfer(address,address,uint256)"
                    },
                    "id": 38,
                    "logData": "0x0000000000000000000000000000000000000000000003b9e1200e2269a64a9b",
                    "logDecoded": true,
                    "operation": "EVENT",
                    "revert": true,
                    "status": false,
                    "topics": [
                        "0xddf252ad1be2c89b69c2b068fc378daa952ba7f163c4a11628f55a4df523b3ef",
                        "0x00000000000000000000000040ed17221b3b2d8455f4f1a05cac6b77c5f707e3",
                        "0x0000000000000000000000000000000000000000000000000000000000000000"
                    ]
                },
                "nodeType": 1
            },
            "39": {
                "event": {
                    "contract": "0xddc0cff76bcc0ee14c3e73af630c029fe020f907",
                    "decodedLog": {
                        "name": "Transfer",
                        "params": [
                            {
                                "name": "from",
                                "type": "address",
                                "value": "0x40ed17221b3b2d8455f4f1a05cac6b77c5f707e3"
                            },
                            {
                                "name": "to",
                                "type": "address",
                                "value": "0x3d2d1c00b859ab56385e1a5fc73e173297b25619"
                            },
                            {
                                "decimalAvailable": true,
                                "name": "value",
                                "type": "uint256",
                                "value": "527,879,072,509,318,661,979,697"
                            }
                        ],
                        "signature": "Transfer(address,address,uint256)"
                    },
                    "id": 39,
                    "logData": "0x000000000000000000000000000000000000000000006fc861c1a808617cbe31",
                    "logDecoded": true,
                    "operation": "EVENT",
                    "revert": true,
                    "status": false,
                    "topics": [
                        "0xddf252ad1be2c89b69c2b068fc378daa952ba7f163c4a11628f55a4df523b3ef",
                        "0x00000000000000000000000040ed17221b3b2d8455f4f1a05cac6b77c5f707e3",
                        "0x0000000000000000000000003d2d1c00b859ab56385e1a5fc73e173297b25619"
                    ]
                },
                "nodeType": 1
            },
            "4": {
                "event": {
                    "contract": "0x55d398326f99059ff775485246999027b3197955",
                    "decodedLog": {
                        "name": "Transfer",
                        "params": [
                            {
                                "name": "from",
                                "type": "address",
                                "value": "0x9ad32e3054268b849b84a8dbcc7c8f7c52e4e69a"
                            },
                            {
                                "name": "to",
                                "type": "address",
                                "value": "0x3d2d1c00b859ab56385e1a5fc73e173297b25619"
                            },
                            {
                                "decimalAvailable": true,
                                "name": "value",
                                "type": "uint256",
                                "value": "836,944,312,816,628,772,067,694"
                            }
                        ],
                        "signature": "Transfer(address,address,uint256)"
                    },
                    "id": 4,
                    "logData": "0x00000000000000000000000000000000000000000000b13ad79489b5490b596e",
                    "logDecoded": true,
                    "operation": "EVENT",
                    "revert": true,
                    "status": false,
                    "topics": [
                        "0xddf252ad1be2c89b69c2b068fc378daa952ba7f163c4a11628f55a4df523b3ef",
                        "0x0000000000000000000000009ad32e3054268b849b84a8dbcc7c8f7c52e4e69a",
                        "0x0000000000000000000000003d2d1c00b859ab56385e1a5fc73e173297b25619"
                    ]
                },
                "nodeType": 1
            },
            "40": {
                "invocation": {
                    "address": "0xddc0cff76bcc0ee14c3e73af630c029fe020f907",
                    "callData": "0x",
                    "decodedMethod": {
                        "callParams": [],
                        "constructorArguments": "",
                        "name": "swapFeeTotal",
                        "returnParams": [
                            {
                                "name": "",
                                "type": "uint256",
                                "value": "39,329,161,707,133,512,030,159"
                            }
                        ],
                        "signature": "swapFeeTotal()"
                    },
                    "errorInfo": "",
                    "fromAddress": "0x3d2d1c00b859ab56385e1a5fc73e173297b25619",
                    "gasUsed": 1195,
                    "id": 40,
                    "methodDecoded": true,
                    "operation": "CALL",
                    "output": "0x00000000000000000000000000000000000000000000085409c2c5cf048597cf",
                    "revert": true,
                    "revertMessage": "",
                    "selector": "0xd408ee2d",
                    "status": true,
                    "value": "0"
                },
                "nodeType": 0
            },
            "41": {
                "invocation": {
                    "address": "0xddc0cff76bcc0ee14c3e73af630c029fe020f907",
                    "callData": "0x00000000000000000000000040ed17221b3b2d8455f4f1a05cac6b77c5f707e3",
                    "decodedMethod": {
                        "callParams": [
                            {
                                "name": "account",
                                "type": "address",
                                "value": "0x40ed17221b3b2d8455f4f1a05cac6b77c5f707e3"
                            }
                        ],
                        "constructorArguments": "",
                        "name": "balanceOf",
                        "returnParams": [
                            {
                                "decimalAvailable": true,
                                "name": "",
                                "type": "uint256",
                                "value": "167,701,964,740,361,744,755,255"
                            }
                        ],
                        "signature": "balanceOf(address)"
                    },
                    "errorInfo": "",
                    "fromAddress": "0x3d2d1c00b859ab56385e1a5fc73e173297b25619",
                    "gasUsed": 1609,
                    "id": 41,
                    "methodDecoded": true,
                    "operation": "STATICCALL",
                    "output": "0x00000000000000000000000000000000000000000000238324481844f97b2a37",
                    "revert": true,
                    "revertMessage": "",
                    "selector": "0x70a08231",
                    "status": true,
                    "value": "0"
                },
                "nodeType": 0
            },
            "42": {
                "invocation": {
                    "address": "0xddc0cff76bcc0ee14c3e73af630c029fe020f907",
                    "callData": "0x00000000000000000000000040ed17221b3b2d8455f4f1a05cac6b77c5f707e3000000000000000000000000000000000000000000000e7516488a9521a664ad",
                    "decodedMethod": {
                        "callParams": [
                            {
                                "name": "to",
                                "type": "address",
                                "value": "0x40ed17221b3b2d8455f4f1a05cac6b77c5f707e3"
                            },
                            {
                                "decimalAvailable": true,
                                "name": "amount",
                                "type": "uint256",
                                "value": "68,273,005,502,439,327,425,709"
                            }
                        ],
                        "constructorArguments": "",
                        "name": "transfer",
                        "returnParams": [
                            {
                                "name": "",
                                "type": "bool",
                                "value": true
                            }
                        ],
                        "signature": "transfer(address,uint256)"
                    },
                    "errorInfo": "",
                    "fromAddress": "0x3d2d1c00b859ab56385e1a5fc73e173297b25619",
                    "gasUsed": 17925,
                    "id": 42,
                    "methodDecoded": true,
                    "operation": "CALL",
                    "output": "0x0000000000000000000000000000000000000000000000000000000000000001",
                    "revert": true,
                    "revertMessage": "",
                    "selector": "0xa9059cbb",
                    "status": true,
                    "value": "0"
                },
                "nodeType": 0
            },
            "43": {
                "event": {
                    "contract": "0xddc0cff76bcc0ee14c3e73af630c029fe020f907",
                    "decodedLog": {
                        "name": "Transfer",
                        "params": [
                            {
                                "name": "from",
                                "type": "address",
                                "value": "0x3d2d1c00b859ab56385e1a5fc73e173297b25619"
                            },
                            {
                                "name": "to",
                                "type": "address",
                                "value": "0x0000000000000000000000000000000000000000"
                            },
                            {
                                "decimalAvailable": true,
                                "name": "value",
                                "type": "uint256",
                                "value": "2,048,190,165,073,179,822,771"
                            }
                        ],
                        "signature": "Transfer(address,address,uint256)"
                    },
                    "id": 43,
                    "logData": "0x00000000000000000000000000000000000000000000006f0859375b8391cab3",
                    "logDecoded": true,
                    "operation": "EVENT",
                    "revert": true,
                    "status": false,
                    "topics": [
                        "0xddf252ad1be2c89b69c2b068fc378daa952ba7f163c4a11628f55a4df523b3ef",
                        "0x0000000000000000000000003d2d1c00b859ab56385e1a5fc73e173297b25619",
                        "0x0000000000000000000000000000000000000000000000000000000000000000"
                    ]
                },
                "nodeType": 1
            },
            "44": {
                "event": {
                    "contract": "0xddc0cff76bcc0ee14c3e73af630c029fe020f907",
                    "decodedLog": {
                        "name": "Transfer",
                        "params": [
                            {
                                "name": "from",
                                "type": "address",
                                "value": "0x3d2d1c00b859ab56385e1a5fc73e173297b25619"
                            },
                            {
                                "name": "to",
                                "type": "address",
                                "value": "0x40ed17221b3b2d8455f4f1a05cac6b77c5f707e3"
                            },
                            {
                                "decimalAvailable": true,
                                "name": "value",
                                "type": "uint256",
                                "value": "66,224,815,337,366,147,602,938"
                            }
                        ],
                        "signature": "Transfer(address,address,uint256)"
                    },
                    "id": 44,
                    "logData": "0x000000000000000000000000000000000000000000000e060def53399e1499fa",
                    "logDecoded": true,
                    "operation": "EVENT",
                    "revert": true,
                    "status": false,
                    "topics": [
                        "0xddf252ad1be2c89b69c2b068fc378daa952ba7f163c4a11628f55a4df523b3ef",
                        "0x0000000000000000000000003d2d1c00b859ab56385e1a5fc73e173297b25619",
                        "0x00000000000000000000000040ed17221b3b2d8455f4f1a05cac6b77c5f707e3"
                    ]
                },
                "nodeType": 1
            },
            "45": {
                "invocation": {
                    "address": "0x40ed17221b3b2d8455f4f1a05cac6b77c5f707e3",
                    "callData": "0x",
                    "decodedMethod": {
                        "callParams": [],
                        "constructorArguments": "",
                        "name": "sync",
                        "returnParams": [],
                        "signature": "sync()"
                    },
                    "errorInfo": "",
                    "fromAddress": "0x3d2d1c00b859ab56385e1a5fc73e173297b25619",
                    "gasUsed": 25752,
                    "id": 45,
                    "methodDecoded": true,
                    "operation": "CALL",
                    "output": "",
                    "revert": true,
                    "revertMessage": "",
                    "selector": "0xfff6cae9",
                    "status": true,
                    "value": "0"
                },
                "nodeType": 0
            },
            "46": {
                "invocation": {
                    "address": "0x55d398326f99059ff775485246999027b3197955",
                    "callData": "0x00000000000000000000000040ed17221b3b2d8455f4f1a05cac6b77c5f707e3",
                    "decodedMethod": {
                        "callParams": [
                            {
                                "name": "account",
                                "type": "address",
                                "value": "0x40ed17221b3b2d8455f4f1a05cac6b77c5f707e3"
                            }
                        ],
                        "constructorArguments": "",
                        "name": "balanceOf",
                        "returnParams": [
                            {
                                "decimalAvailable": true,
                                "name": "",
                                "type": "uint256",
                                "value": "102,418,893,887,874,475,909,110"
                            }
                        ],
                        "signature": "balanceOf(address)"
                    },
                    "errorInfo": "",
                    "fromAddress": "0x40ed17221b3b2d8455f4f1a05cac6b77c5f707e3",
                    "gasUsed": 1231,
                    "id": 46,
                    "methodDecoded": true,
                    "operation": "STATICCALL",
                    "output": "0x0000000000000000000000000000000000000000000015b023ad487730325ff6",
                    "revert": true,
                    "revertMessage": "",
                    "selector": "0x70a08231",
                    "status": true,
                    "value": "0"
                },
                "nodeType": 0
            },
            "47": {
                "invocation": {
                    "address": "0xddc0cff76bcc0ee14c3e73af630c029fe020f907",
                    "callData": "0x00000000000000000000000040ed17221b3b2d8455f4f1a05cac6b77c5f707e3",
                    "decodedMethod": {
                        "callParams": [
                            {
                                "name": "account",
                                "type": "address",
                                "value": "0x40ed17221b3b2d8455f4f1a05cac6b77c5f707e3"
                            }
                        ],
                        "constructorArguments": "",
                        "name": "balanceOf",
                        "returnParams": [
                            {
                                "decimalAvailable": true,
                                "name": "",
                                "type": "uint256",
                                "value": "233,926,780,077,727,892,358,193"
                            }
                        ],
                        "signature": "balanceOf(address)"
                    },
                    "errorInfo": "",
                    "fromAddress": "0x40ed17221b3b2d8455f4f1a05cac6b77c5f707e3",
                    "gasUsed": 1609,
                    "id": 47,
                    "methodDecoded": true,
                    "operation": "STATICCALL",
                    "output": "0x00000000000000000000000000000000000000000000318932376b7e978fc431",
                    "revert": true,
                    "revertMessage": "",
                    "selector": "0x70a08231",
                    "status": true,
                    "value": "0"
                },
                "nodeType": 0
            },
            "48": {
                "event": {
                    "contract": "0x40ed17221b3b2d8455f4f1a05cac6b77c5f707e3",
                    "decodedLog": {
                        "name": "Sync",
                        "params": [
                            {
                                "name": "reserve0",
                                "type": "uint112",
                                "value": "102,418,893,887,874,475,909,110"
                            },
                            {
                                "name": "reserve1",
                                "type": "uint112",
                                "value": "233,926,780,077,727,892,358,193"
                            }
                        ],
                        "signature": "Sync(uint112,uint112)"
                    },
                    "id": 48,
                    "logData": "0x0000000000000000000000000000000000000000000015b023ad487730325ff600000000000000000000000000000000000000000000318932376b7e978fc431",
                    "logDecoded": true,
                    "operation": "EVENT",
                    "revert": true,
                    "status": false,
                    "topics": [
                        "0x1c411e9a96e071241c2f21f7726b17ae89e3cab4c78be50e062b03a9fffbbad1"
                    ]
                },
                "nodeType": 1
            },
            "49": {
                "invocation": {
                    "address": "0xddc0cff76bcc0ee14c3e73af630c029fe020f907",
                    "callData": "0x",
                    "decodedMethod": {
                        "callParams": [],
                        "constructorArguments": "",
                        "name": "distributeFee",
                        "returnParams": [],
                        "signature": "distributeFee()"
                    },
                    "errorInfo": "execution reverted",
                    "fromAddress": "0x3d2d1c00b859ab56385e1a5fc73e173297b25619",
                    "gasUsed": 54657,
                    "id": 49,
                    "methodDecoded": true,
                    "operation": "CALL",
                    "output": "0x08c379a00000000000000000000000000000000000000000000000000000000000000020000000000000000000000000000000000000000000000000000000000000002645524332303a207472616e7366657220616d6f756e7420657863656564732062616c616e63650000000000000000000000000000000000000000000000000000",
                    "revert": true,
                    "revertMessage": "&ERC20: transfer amount exceeds balance",
                    "selector": "0x26c4e60d",
                    "status": false,
                    "value": "0"
                },
                "nodeType": 0
            },
            "5": {
                "invocation": {
                    "address": "0x3d2d1c00b859ab56385e1a5fc73e173297b25619",
                    "callData": "0x0000000000000000000000003d2d1c00b859ab56385e1a5fc73e173297b25619000000000000000000000000000000000000000000000000000000000000000000000000000000000000000000000000000000000000b13ad79489b5490b596e000000000000000000000000000000000000000000000000000000000000008000000000000000000000000000000000000000000000000000000000000000013000000000000000000000000000000000000000000000000000000000000000",
                    "decodedMethod": {
                        "callParams": [
                            {
                                "name": "sender",
                                "type": "address",
                                "value": "0x3d2d1c00b859ab56385e1a5fc73e173297b25619"
                            },
                            {
                                "name": "baseAmount",
                                "type": "uint256",
                                "value": "0"
                            },
                            {
                                "name": "quoteAmount",
                                "type": "uint256",
                                "value": "836,944,312,816,628,772,067,694"
                            },
                            {
                                "name": "data",
                                "type": "bytes",
                                "value": "0x30"
                            }
                        ],
                        "constructorArguments": "",
                        "name": "DPPFlashLoanCall",
                        "returnParams": [],
                        "signature": "DPPFlashLoanCall(address,uint256,uint256,bytes)"
                    },
                    "errorInfo": "execution reverted",
                    "fromAddress": "0x9ad32e3054268b849b84a8dbcc7c8f7c52e4e69a",
                    "gasUsed": 351852,
                    "id": 5,
                    "methodDecoded": true,
                    "operation": "CALL",
                    "output": "0x08c379a00000000000000000000000000000000000000000000000000000000000000020000000000000000000000000000000000000000000000000000000000000002645524332303a207472616e7366657220616d6f756e7420657863656564732062616c616e63650000000000000000000000000000000000000000000000000000",
                    "revert": true,
                    "revertMessage": "&ERC20: transfer amount exceeds balance",
                    "selector": "0x7ed1f1dd",
                    "status": false,
                    "value": "0"
                },
                "nodeType": 0
            },
            "50": {
                "event": {
                    "contract": "0xddc0cff76bcc0ee14c3e73af630c029fe020f907",
                    "decodedLog": {
                        "name": "Transfer",
                        "params": [
                            {
                                "name": "from",
                                "type": "address",
                                "value": "0x40ed17221b3b2d8455f4f1a05cac6b77c5f707e3"
                            },
                            {
                                "name": "to",
                                "type": "address",
                                "value": "0xeb55526075ec7797d5cdcf4c3263fa39004b958d"
                            },
                            {
                                "decimalAvailable": true,
                                "name": "value",
                                "type": "uint256",
                                "value": "80,023,783,524,315,810,608,832"
                            }
                        ],
                        "signature": "Transfer(address,address,uint256)"
                    },
                    "id": 50,
                    "logData": "0x0000000000000000000000000000000000000000000010f219165b3060c1b6c0",
                    "logDecoded": true,
                    "operation": "EVENT",
                    "revert": true,
                    "status": false,
                    "topics": [
                        "0xddf252ad1be2c89b69c2b068fc378daa952ba7f163c4a11628f55a4df523b3ef",
                        "0x00000000000000000000000040ed17221b3b2d8455f4f1a05cac6b77c5f707e3",
                        "0x000000000000000000000000eb55526075ec7797d5cdcf4c3263fa39004b958d"
                    ]
                },
                "nodeType": 1
            },
            "51": {
                "event": {
                    "contract": "0xddc0cff76bcc0ee14c3e73af630c029fe020f907",
                    "decodedLog": {
                        "name": "Transfer",
                        "params": [
                            {
                                "name": "from",
                                "type": "address",
                                "value": "0x40ed17221b3b2d8455f4f1a05cac6b77c5f707e3"
                            },
                            {
                                "name": "to",
                                "type": "address",
                                "value": "0x05de4ea6d2472eb569b55e6a1ada52d2a451d854"
                            },
                            {
                                "decimalAvailable": true,
                                "name": "value",
                                "type": "uint256",
                                "value": "40,011,891,762,157,905,304,416"
                            }
                        ],
                        "signature": "Transfer(address,address,uint256)"
                    },
                    "id": 51,
                    "logData": "0x0000000000000000000000000000000000000000000008790c8b2d983060db60",
                    "logDecoded": true,
                    "operation": "EVENT",
                    "revert": true,
                    "status": false,
                    "topics": [
                        "0xddf252ad1be2c89b69c2b068fc378daa952ba7f163c4a11628f55a4df523b3ef",
                        "0x00000000000000000000000040ed17221b3b2d8455f4f1a05cac6b77c5f707e3",
                        "0x00000000000000000000000005de4ea6d2472eb569b55e6a1ada52d2a451d854"
                    ]
                },
                "nodeType": 1
            },
            "52": {
                "event": {
                    "contract": "0xddc0cff76bcc0ee14c3e73af630c029fe020f907",
                    "decodedLog": {
                        "name": "Transfer",
                        "params": [
                            {
                                "name": "from",
                                "type": "address",
                                "value": "0x40ed17221b3b2d8455f4f1a05cac6b77c5f707e3"
                            },
                            {
                                "name": "to",
                                "type": "address",
                                "value": "0x7c31f5c790cea93d83ad94f92037abc1c0d5740d"
                            },
                            {
                                "decimalAvailable": true,
                                "name": "value",
                                "type": "uint256",
                                "value": "40,011,891,762,157,905,304,416"
                            }
                        ],
                        "signature": "Transfer(address,address,uint256)"
                    },
                    "id": 52,
                    "logData": "0x0000000000000000000000000000000000000000000008790c8b2d983060db60",
                    "logDecoded": true,
                    "operation": "EVENT",
                    "revert": true,
                    "status": false,
                    "topics": [
                        "0xddf252ad1be2c89b69c2b068fc378daa952ba7f163c4a11628f55a4df523b3ef",
                        "0x00000000000000000000000040ed17221b3b2d8455f4f1a05cac6b77c5f707e3",
                        "0x0000000000000000000000007c31f5c790cea93d83ad94f92037abc1c0d5740d"
                    ]
                },
                "nodeType": 1
            },
            "53": {
                "event": {
                    "contract": "0xddc0cff76bcc0ee14c3e73af630c029fe020f907",
                    "decodedLog": {
                        "name": "Transfer",
                        "params": [
                            {
                                "name": "from",
                                "type": "address",
                                "value": "0x40ed17221b3b2d8455f4f1a05cac6b77c5f707e3"
                            },
                            {
                                "name": "to",
                                "type": "address",
                                "value": "0x3e1ba8607304edc3d26ea6fba67c09ceb2890aca"
                            },
                            {
                                "decimalAvailable": true,
                                "name": "value",
                                "type": "uint256",
                                "value": "40,011,891,762,157,905,304,416"
                            }
                        ],
                        "signature": "Transfer(address,address,uint256)"
                    },
                    "id": 53,
                    "logData": "0x0000000000000000000000000000000000000000000008790c8b2d983060db60",
                    "logDecoded": true,
                    "operation": "EVENT",
                    "revert": true,
                    "status": false,
                    "topics": [
                        "0xddf252ad1be2c89b69c2b068fc378daa952ba7f163c4a11628f55a4df523b3ef",
                        "0x00000000000000000000000040ed17221b3b2d8455f4f1a05cac6b77c5f707e3",
                        "0x0000000000000000000000003e1ba8607304edc3d26ea6fba67c09ceb2890aca"
                    ]
                },
                "nodeType": 1
            },
            "6": {
                "invocation": {
                    "address": "0x55d398326f99059ff775485246999027b3197955",
                    "callData": "0x00000000000000000000000010ed43c718714eb63d5aa57b78b54704e256024e00000000000000000000000000000000000000000000152d02c7e14af6800000",
                    "decodedMethod": {
                        "callParams": [
                            {
                                "name": "spender",
                                "type": "address",
                                "value": "0x10ed43c718714eb63d5aa57b78b54704e256024e"
                            },
                            {
                                "decimalAvailable": true,
                                "name": "amount",
                                "type": "uint256",
                                "value": "100,000,000,000,000,000,000,000"
                            }
                        ],
                        "constructorArguments": "",
                        "name": "approve",
                        "returnParams": [
                            {
                                "name": "",
                                "type": "bool",
                                "value": true
                            }
                        ],
                        "signature": "approve(address,uint256)"
                    },
                    "errorInfo": "",
                    "fromAddress": "0x3d2d1c00b859ab56385e1a5fc73e173297b25619",
                    "gasUsed": 22462,
                    "id": 6,
                    "methodDecoded": true,
                    "operation": "CALL",
                    "output": "0x0000000000000000000000000000000000000000000000000000000000000001",
                    "revert": true,
                    "revertMessage": "",
                    "selector": "0x095ea7b3",
                    "status": true,
                    "value": "0"
                },
                "nodeType": 0
            },
            "7": {
                "event": {
                    "contract": "0x55d398326f99059ff775485246999027b3197955",
                    "decodedLog": {
                        "name": "Approval",
                        "params": [
                            {
                                "name": "owner",
                                "type": "address",
                                "value": "0x3d2d1c00b859ab56385e1a5fc73e173297b25619"
                            },
                            {
                                "name": "spender",
                                "type": "address",
                                "value": "0x10ed43c718714eb63d5aa57b78b54704e256024e"
                            },
                            {
                                "decimalAvailable": true,
                                "name": "value",
                                "type": "uint256",
                                "value": "100,000,000,000,000,000,000,000"
                            }
                        ],
                        "signature": "Approval(address,address,uint256)"
                    },
                    "id": 7,
                    "logData": "0x00000000000000000000000000000000000000000000152d02c7e14af6800000",
                    "logDecoded": true,
                    "operation": "EVENT",
                    "revert": true,
                    "status": false,
                    "topics": [
                        "0x8c5be1e5ebec7d5bd14f71427d1e84f3dd0314c0f7b2291e5b200ac8c7c3b925",
                        "0x0000000000000000000000003d2d1c00b859ab56385e1a5fc73e173297b25619",
                        "0x00000000000000000000000010ed43c718714eb63d5aa57b78b54704e256024e"
                    ]
                },
                "nodeType": 1
            },
            "8": {
                "invocation": {
                    "address": "0x10ed43c718714eb63d5aa57b78b54704e256024e",
                    "callData": "0x00000000000000000000000000000000000000000000152d02c7e14af6800000000000000000000000000000000000000000000000000000000000000000000000000000000000000000000000000000000000000000000000000000000000a00000000000000000000000003d2d1c00b859ab56385e1a5fc73e173297b256190000000000000000000000000000000000000000000000000000000063905562000000000000000000000000000000000000000000000000000000000000000200000000000000000000000055d398326f99059ff775485246999027b3197955000000000000000000000000ddc0cff76bcc0ee14c3e73af630c029fe020f907",
                    "decodedMethod": {
                        "callParams": [
                            {
                                "name": "amountIn",
                                "type": "uint256",
                                "value": "100,000,000,000,000,000,000,000"
                            },
                            {
                                "name": "amountOutMin",
                                "type": "uint256",
                                "value": "0"
                            },
                            {
                                "name": "path",
                                "type": "address[]",
                                "value": [
                                    "0x55d398326f99059ff775485246999027b3197955",
                                    "0xddc0cff76bcc0ee14c3e73af630c029fe020f907"
                                ]
                            },
                            {
                                "name": "to",
                                "type": "address",
                                "value": "0x3d2d1c00b859ab56385e1a5fc73e173297b25619"
                            },
                            {
                                "name": "deadline",
                                "type": "uint256",
                                "value": "1,670,403,426"
                            }
                        ],
                        "constructorArguments": "",
                        "name": "swapExactTokensForTokensSupportingFeeOnTransferTokens",
                        "returnParams": [],
                        "signature": "swapExactTokensForTokensSupportingFeeOnTransferTokens(uint256,uint256,address[],address,uint256)"
                    },
                    "errorInfo": "",
                    "fromAddress": "0x3d2d1c00b859ab56385e1a5fc73e173297b25619",
                    "gasUsed": 122302,
                    "id": 8,
                    "methodDecoded": true,
                    "operation": "CALL",
                    "output": "",
                    "revert": true,
                    "revertMessage": "",
                    "selector": "0x5c11d795",
                    "status": true,
                    "value": "0"
                },
                "nodeType": 0
            },
            "9": {
                "invocation": {
                    "address": "0x55d398326f99059ff775485246999027b3197955",
                    "callData": "0x0000000000000000000000003d2d1c00b859ab56385e1a5fc73e173297b2561900000000000000000000000040ed17221b3b2d8455f4f1a05cac6b77c5f707e300000000000000000000000000000000000000000000152d02c7e14af6800000",
                    "decodedMethod": {
                        "callParams": [
                            {
                                "name": "sender",
                                "type": "address",
                                "value": "0x3d2d1c00b859ab56385e1a5fc73e173297b25619"
                            },
                            {
                                "name": "recipient",
                                "type": "address",
                                "value": "0x40ed17221b3b2d8455f4f1a05cac6b77c5f707e3"
                            },
                            {
                                "decimalAvailable": true,
                                "name": "amount",
                                "type": "uint256",
                                "value": "100,000,000,000,000,000,000,000"
                            }
                        ],
                        "constructorArguments": "",
                        "name": "transferFrom",
                        "returnParams": [
                            {
                                "name": "",
                                "type": "bool",
                                "value": true
                            }
                        ],
                        "signature": "transferFrom(address,address,uint256)"
                    },
                    "errorInfo": "",
                    "fromAddress": "0x10ed43c718714eb63d5aa57b78b54704e256024e",
                    "gasUsed": 14434,
                    "id": 9,
                    "methodDecoded": true,
                    "operation": "CALL",
                    "output": "0x0000000000000000000000000000000000000000000000000000000000000001",
                    "revert": true,
                    "revertMessage": "",
                    "selector": "0x23b872dd",
                    "status": true,
                    "value": "0"
                },
                "nodeType": 0
            }
        },
        "gasFlame": [
            {
                "children": [
                    {
                        "children": [
                            {
                                "children": [],
                                "depth": 0,
                                "name": "Initial Gas",
                                "value": 21064
                            },
                            {
                                "children": [
                                    {
                                        "children": [],
                                        "depth": 1,
                                        "name": "balanceOf",
                                        "value": 1231
                                    },
                                    {
                                        "children": [
                                            {
                                                "children": [],
                                                "depth": 2,
                                                "name": "transfer",
                                                "value": 29471
                                            },
                                            {
                                                "children": [
                                                    {
                                                        "children": [],
                                                        "depth": 3,
                                                        "name": "approve",
                                                        "value": 22462
                                                    },
                                                    {
                                                        "children": [
                                                            {
                                                                "children": [],
                                                                "depth": 4,
                                                                "name": "transferFrom",
                                                                "value": 14434
                                                            },
                                                            {
                                                                "children": [],
                                                                "depth": 4,
                                                                "name": "balanceOf",
                                                                "value": 1609
                                                            },
                                                            {
                                                                "children": [],
                                                                "depth": 4,
                                                                "name": "getReserves",
                                                                "value": 2993
                                                            },
                                                            {
                                                                "children": [],
                                                                "depth": 4,
                                                                "name": "balanceOf",
                                                                "value": 1231
                                                            },
                                                            {
                                                                "children": [
                                                                    {
                                                                        "children": [],
                                                                        "depth": 5,
                                                                        "name": "transfer",
                                                                        "value": 49308
                                                                    },
                                                                    {
                                                                        "children": [],
                                                                        "depth": 5,
                                                                        "name": "balanceOf",
                                                                        "value": 1231
                                                                    },
                                                                    {
                                                                        "children": [],
                                                                        "depth": 5,
                                                                        "name": "balanceOf",
                                                                        "value": 1609
                                                                    }
                                                                ],
                                                                "depth": 4,
                                                                "name": "swap",
                                                                "value": 86684
                                                            },
                                                            {
                                                                "children": [],
                                                                "depth": 4,
                                                                "name": "balanceOf",
                                                                "value": 1609
                                                            }
                                                        ],
                                                        "depth": 3,
                                                        "name": "swapExactTokensForTokensSupportingFeeOnTransferTokens",
                                                        "value": 122302
                                                    },
                                                    {
                                                        "children": [],
                                                        "depth": 3,
                                                        "name": "balanceOf",
                                                        "value": 1609
                                                    },
                                                    {
                                                        "children": [],
                                                        "depth": 3,
                                                        "name": "balanceOf",
                                                        "value": 1609
                                                    },
                                                    {
                                                        "children": [],
                                                        "depth": 3,
                                                        "name": "transfer",
                                                        "value": 17925
                                                    },
                                                    {
                                                        "children": [],
                                                        "depth": 3,
                                                        "name": "swapFeeTotal",
                                                        "value": 1195
                                                    },
                                                    {
                                                        "children": [],
                                                        "depth": 3,
                                                        "name": "getReserves",
                                                        "value": 2993
                                                    },
                                                    {
                                                        "children": [],
                                                        "depth": 3,
                                                        "name": "balanceOf",
                                                        "value": 1609
                                                    },
                                                    {
                                                        "children": [
                                                            {
                                                                "children": [],
                                                                "depth": 4,
                                                                "name": "balanceOf",
                                                                "value": 1231
                                                            },
                                                            {
                                                                "children": [],
                                                                "depth": 4,
                                                                "name": "transfer",
                                                                "value": 6071
                                                            },
                                                            {
                                                                "children": [],
                                                                "depth": 4,
                                                                "name": "balanceOf",
                                                                "value": 1609
                                                            },
                                                            {
                                                                "children": [],
                                                                "depth": 4,
                                                                "name": "transfer",
                                                                "value": 17508
                                                            }
                                                        ],
                                                        "depth": 3,
                                                        "name": "skim",
                                                        "value": 43786
                                                    },
                                                    {
                                                        "children": [],
                                                        "depth": 3,
                                                        "name": "swapFeeTotal",
                                                        "value": 1195
                                                    },
                                                    {
                                                        "children": [],
                                                        "depth": 3,
                                                        "name": "balanceOf",
                                                        "value": 1609
                                                    },
                                                    {
                                                        "children": [],
                                                        "depth": 3,
                                                        "name": "transfer",
                                                        "value": 17925
                                                    },
                                                    {
                                                        "children": [
                                                            {
                                                                "children": [],
                                                                "depth": 4,
                                                                "name": "balanceOf",
                                                                "value": 1231
                                                            },
                                                            {
                                                                "children": [],
                                                                "depth": 4,
                                                                "name": "balanceOf",
                                                                "value": 1609
                                                            }
                                                        ],
                                                        "depth": 3,
                                                        "name": "sync",
                                                        "value": 25752
                                                    },
                                                    {
                                                        "children": [],
                                                        "depth": 3,
                                                        "name": "distributeFee",
                                                        "value": 54657
                                                    }
                                                ],
                                                "depth": 2,
                                                "name": "DPPFlashLoanCall",
                                                "value": 351852
                                            }
                                        ],
                                        "depth": 1,
                                        "name": "flashLoan",
                                        "value": 393186
                                    }
                                ],
                                "depth": 0,
                                "name": "Executed Gas",
                                "value": 403492
                            }
                        ],
                        "depth": -1,
                        "name": "Actual Gas Used",
                        "value": 424556
                    },
                    {
                        "children": [],
                        "depth": -1,
                        "name": "Refunded Gas",
                        "value": 0
                    }
                ],
                "depth": -2,
                "name": "Total Gas",
                "value": 424556
            }
        ],
        "isConfirmed": true,
        "mainTrace": [
            {
                "children": [
                    {
                        "children": [
                            {
                                "children": [],
                                "depth": 1,
                                "id": 1,
                                "order": 1
                            },
                            {
                                "children": [
                                    {
                                        "children": [
                                            {
                                                "children": [],
                                                "depth": 3,
                                                "id": 4,
                                                "order": 4
                                            }
                                        ],
                                        "depth": 2,
                                        "id": 3,
                                        "order": 3
                                    },
                                    {
                                        "children": [
                                            {
                                                "children": [
                                                    {
                                                        "children": [],
                                                        "depth": 4,
                                                        "id": 7,
                                                        "order": 7
                                                    }
                                                ],
                                                "depth": 3,
                                                "id": 6,
                                                "order": 6
                                            },
                                            {
                                                "children": [
                                                    {
                                                        "children": [
                                                            {
                                                                "children": [],
                                                                "depth": 5,
                                                                "id": 10,
                                                                "order": 10
                                                            },
                                                            {
                                                                "children": [],
                                                                "depth": 5,
                                                                "id": 11,
                                                                "order": 11
                                                            }
                                                        ],
                                                        "depth": 4,
                                                        "id": 9,
                                                        "order": 9
                                                    },
                                                    {
                                                        "children": [],
                                                        "depth": 4,
                                                        "id": 12,
                                                        "order": 12
                                                    },
                                                    {
                                                        "children": [],
                                                        "depth": 4,
                                                        "id": 13,
                                                        "order": 13
                                                    },
                                                    {
                                                        "children": [],
                                                        "depth": 4,
                                                        "id": 14,
                                                        "order": 14
                                                    },
                                                    {
                                                        "children": [
                                                            {
                                                                "children": [
                                                                    {
                                                                        "children": [],
                                                                        "depth": 6,
                                                                        "id": 17,
                                                                        "order": 17
                                                                    },
                                                                    {
                                                                        "children": [],
                                                                        "depth": 6,
                                                                        "id": 18,
                                                                        "order": 18
                                                                    }
                                                                ],
                                                                "depth": 5,
                                                                "id": 16,
                                                                "order": 16
                                                            },
                                                            {
                                                                "children": [],
                                                                "depth": 5,
                                                                "id": 19,
                                                                "order": 19
                                                            },
                                                            {
                                                                "children": [],
                                                                "depth": 5,
                                                                "id": 20,
                                                                "order": 20
                                                            },
                                                            {
                                                                "children": [],
                                                                "depth": 5,
                                                                "id": 21,
                                                                "order": 21
                                                            },
                                                            {
                                                                "children": [],
                                                                "depth": 5,
                                                                "id": 22,
                                                                "order": 22
                                                            }
                                                        ],
                                                        "depth": 4,
                                                        "id": 15,
                                                        "order": 15
                                                    },
                                                    {
                                                        "children": [],
                                                        "depth": 4,
                                                        "id": 23,
                                                        "order": 23
                                                    }
                                                ],
                                                "depth": 3,
                                                "id": 8,
                                                "order": 8
                                            },
                                            {
                                                "children": [],
                                                "depth": 3,
                                                "id": 24,
                                                "order": 24
                                            },
                                            {
                                                "children": [],
                                                "depth": 3,
                                                "id": 25,
                                                "order": 25
                                            },
                                            {
                                                "children": [
                                                    {
                                                        "children": [],
                                                        "depth": 4,
                                                        "id": 27,
                                                        "order": 27
                                                    },
                                                    {
                                                        "children": [],
                                                        "depth": 4,
                                                        "id": 28,
                                                        "order": 28
                                                    }
                                                ],
                                                "depth": 3,
                                                "id": 26,
                                                "order": 26
                                            },
                                            {
                                                "children": [],
                                                "depth": 3,
                                                "id": 29,
                                                "order": 29
                                            },
                                            {
                                                "children": [],
                                                "depth": 3,
                                                "id": 30,
                                                "order": 30
                                            },
                                            {
                                                "children": [],
                                                "depth": 3,
                                                "id": 31,
                                                "order": 31
                                            },
                                            {
                                                "children": [
                                                    {
                                                        "children": [],
                                                        "depth": 4,
                                                        "id": 33,
                                                        "order": 33
                                                    },
                                                    {
                                                        "children": [
                                                            {
                                                                "children": [],
                                                                "depth": 5,
                                                                "id": 35,
                                                                "order": 35
                                                            }
                                                        ],
                                                        "depth": 4,
                                                        "id": 34,
                                                        "order": 34
                                                    },
                                                    {
                                                        "children": [],
                                                        "depth": 4,
                                                        "id": 36,
                                                        "order": 36
                                                    },
                                                    {
                                                        "children": [
                                                            {
                                                                "children": [],
                                                                "depth": 5,
                                                                "id": 38,
                                                                "order": 38
                                                            },
                                                            {
                                                                "children": [],
                                                                "depth": 5,
                                                                "id": 39,
                                                                "order": 39
                                                            }
                                                        ],
                                                        "depth": 4,
                                                        "id": 37,
                                                        "order": 37
                                                    }
                                                ],
                                                "depth": 3,
                                                "id": 32,
                                                "order": 32
                                            },
                                            {
                                                "children": [],
                                                "depth": 3,
                                                "id": 40,
                                                "order": 40
                                            },
                                            {
                                                "children": [],
                                                "depth": 3,
                                                "id": 41,
                                                "order": 41
                                            },
                                            {
                                                "children": [
                                                    {
                                                        "children": [],
                                                        "depth": 4,
                                                        "id": 43,
                                                        "order": 43
                                                    },
                                                    {
                                                        "children": [],
                                                        "depth": 4,
                                                        "id": 44,
                                                        "order": 44
                                                    }
                                                ],
                                                "depth": 3,
                                                "id": 42,
                                                "order": 42
                                            },
                                            {
                                                "children": [
                                                    {
                                                        "children": [],
                                                        "depth": 4,
                                                        "id": 46,
                                                        "order": 46
                                                    },
                                                    {
                                                        "children": [],
                                                        "depth": 4,
                                                        "id": 47,
                                                        "order": 47
                                                    },
                                                    {
                                                        "children": [],
                                                        "depth": 4,
                                                        "id": 48,
                                                        "order": 48
                                                    }
                                                ],
                                                "depth": 3,
                                                "id": 45,
                                                "order": 45
                                            },
                                            {
                                                "children": [
                                                    {
                                                        "children": [],
                                                        "depth": 4,
                                                        "id": 50,
                                                        "order": 50
                                                    },
                                                    {
                                                        "children": [],
                                                        "depth": 4,
                                                        "id": 51,
                                                        "order": 51
                                                    },
                                                    {
                                                        "children": [],
                                                        "depth": 4,
                                                        "id": 52,
                                                        "order": 52
                                                    },
                                                    {
                                                        "children": [],
                                                        "depth": 4,
                                                        "id": 53,
                                                        "order": 53
                                                    }
                                                ],
                                                "depth": 3,
                                                "id": 49,
                                                "order": 49
                                            }
                                        ],
                                        "depth": 2,
                                        "id": 5,
                                        "order": 5
                                    }
                                ],
                                "depth": 1,
                                "id": 2,
                                "order": 2
                            }
                        ],
                        "depth": 0,
                        "id": 0,
                        "order": 0
                    }
                ],
                "depth": -1,
                "id": -1,
                "order": -1
            }
        ],
        "mainTraceNodeCount": 54,
        "parentIdMap": {
            "0": -1,
            "1": 0,
            "10": 9,
            "11": 9,
            "12": 8,
            "13": 8,
            "14": 8,
            "15": 8,
            "16": 15,
            "17": 16,
            "18": 16,
            "19": 15,
            "2": 0,
            "20": 15,
            "21": 15,
            "22": 15,
            "23": 8,
            "24": 5,
            "25": 5,
            "26": 5,
            "27": 26,
            "28": 26,
            "29": 5,
            "3": 2,
            "30": 5,
            "31": 5,
            "32": 5,
            "33": 32,
            "34": 32,
            "35": 34,
            "36": 32,
            "37": 32,
            "38": 37,
            "39": 37,
            "4": 3,
            "40": 5,
            "41": 5,
            "42": 5,
            "43": 42,
            "44": 42,
            "45": 5,
            "46": 45,
            "47": 45,
            "48": 45,
            "49": 5,
            "5": 2,
            "50": 49,
            "51": 49,
            "52": 49,
            "53": 49,
            "6": 5,
            "7": 6,
            "8": 5,
            "9": 8
        },
        "tidyTrace": [
            {
                "children": [
                    {
                        "children": [
                            {
                                "children": [
                                    {
                                        "children": [
                                            {
                                                "children": [],
                                                "depth": 3,
                                                "id": 4,
                                                "order": 4
                                            }
                                        ],
                                        "depth": 2,
                                        "id": 3,
                                        "order": 3
                                    },
                                    {
                                        "children": [
                                            {
                                                "children": [
                                                    {
                                                        "children": [],
                                                        "depth": 4,
                                                        "id": 7,
                                                        "order": 7
                                                    }
                                                ],
                                                "depth": 3,
                                                "id": 6,
                                                "order": 6
                                            },
                                            {
                                                "children": [
                                                    {
                                                        "children": [
                                                            {
                                                                "children": [],
                                                                "depth": 5,
                                                                "id": 10,
                                                                "order": 10
                                                            },
                                                            {
                                                                "children": [],
                                                                "depth": 5,
                                                                "id": 11,
                                                                "order": 11
                                                            }
                                                        ],
                                                        "depth": 4,
                                                        "id": 9,
                                                        "order": 9
                                                    },
                                                    {
                                                        "children": [
                                                            {
                                                                "children": [
                                                                    {
                                                                        "children": [],
                                                                        "depth": 6,
                                                                        "id": 17,
                                                                        "order": 17
                                                                    },
                                                                    {
                                                                        "children": [],
                                                                        "depth": 6,
                                                                        "id": 18,
                                                                        "order": 18
                                                                    }
                                                                ],
                                                                "depth": 5,
                                                                "id": 16,
                                                                "order": 16
                                                            },
                                                            {
                                                                "children": [],
                                                                "depth": 5,
                                                                "id": 21,
                                                                "order": 21
                                                            },
                                                            {
                                                                "children": [],
                                                                "depth": 5,
                                                                "id": 22,
                                                                "order": 22
                                                            }
                                                        ],
                                                        "depth": 4,
                                                        "id": 15,
                                                        "order": 15
                                                    }
                                                ],
                                                "depth": 3,
                                                "id": 8,
                                                "order": 8
                                            },
                                            {
                                                "children": [
                                                    {
                                                        "children": [],
                                                        "depth": 4,
                                                        "id": 27,
                                                        "order": 27
                                                    },
                                                    {
                                                        "children": [],
                                                        "depth": 4,
                                                        "id": 28,
                                                        "order": 28
                                                    }
                                                ],
                                                "depth": 3,
                                                "id": 26,
                                                "order": 26
                                            },
                                            {
                                                "children": [],
                                                "depth": 3,
                                                "id": 29,
                                                "order": 29
                                            },
                                            {
                                                "children": [
                                                    {
                                                        "children": [
                                                            {
                                                                "children": [],
                                                                "depth": 5,
                                                                "id": 35,
                                                                "order": 35
                                                            }
                                                        ],
                                                        "depth": 4,
                                                        "id": 34,
                                                        "order": 34
                                                    },
                                                    {
                                                        "children": [
                                                            {
                                                                "children": [],
                                                                "depth": 5,
                                                                "id": 38,
                                                                "order": 38
                                                            },
                                                            {
                                                                "children": [],
                                                                "depth": 5,
                                                                "id": 39,
                                                                "order": 39
                                                            }
                                                        ],
                                                        "depth": 4,
                                                        "id": 37,
                                                        "order": 37
                                                    }
                                                ],
                                                "depth": 3,
                                                "id": 32,
                                                "order": 32
                                            },
                                            {
                                                "children": [],
                                                "depth": 3,
                                                "id": 40,
                                                "order": 40
                                            },
                                            {
                                                "children": [
                                                    {
                                                        "children": [],
                                                        "depth": 4,
                                                        "id": 43,
                                                        "order": 43
                                                    },
                                                    {
                                                        "children": [],
                                                        "depth": 4,
                                                        "id": 44,
                                                        "order": 44
                                                    }
                                                ],
                                                "depth": 3,
                                                "id": 42,
                                                "order": 42
                                            },
                                            {
                                                "children": [
                                                    {
                                                        "children": [],
                                                        "depth": 4,
                                                        "id": 48,
                                                        "order": 48
                                                    }
                                                ],
                                                "depth": 3,
                                                "id": 45,
                                                "order": 45
                                            },
                                            {
                                                "children": [
                                                    {
                                                        "children": [],
                                                        "depth": 4,
                                                        "id": 50,
                                                        "order": 50
                                                    },
                                                    {
                                                        "children": [],
                                                        "depth": 4,
                                                        "id": 51,
                                                        "order": 51
                                                    },
                                                    {
                                                        "children": [],
                                                        "depth": 4,
                                                        "id": 52,
                                                        "order": 52
                                                    },
                                                    {
                                                        "children": [],
                                                        "depth": 4,
                                                        "id": 53,
                                                        "order": 53
                                                    }
                                                ],
                                                "depth": 3,
                                                "id": 49,
                                                "order": 49
                                            }
                                        ],
                                        "depth": 2,
                                        "id": 5,
                                        "order": 5
                                    }
                                ],
                                "depth": 1,
                                "id": 2,
                                "order": 2
                            }
                        ],
                        "depth": 0,
                        "id": 0,
                        "order": 0
                    }
                ],
                "depth": -1,
                "id": -1,
                "order": -1
            }
        ],
        "tidyTraceNodeCount": 38
    },
    "state_change": {
        "stateChanges": []
    }
}