{
    "balance_change": {
        "balanceChanges": [
            {
                "account": "0x384be939cf8317f6b570815c7f8e95c54ed6aa85",
                "assets": [
                    {
                        "address": "0xeeeeeeeeeeeeeeeeeeeeeeeeeeeeeeeeeeeeeeee",
                        "amount": "94.9",
                        "iconUrl": "https://assets.blocksec.com/image/1663669189317-3.png",
                        "isERC1155": false,
                        "isERC721": false,
                        "sign": true,
                        "value": "175277.45300000000259"
                    }
                ]
            },
            {
                "account": "0x31d3243cfb54b34fc9c73e1cb1137124bd6b13e1",
                "assets": [
                    {
                        "address": "0xc02aaa39b223fe8d0a0e5c4f27ead9083c756cc2",
                        "amount": "100",
                        "iconUrl": "https://assets.blocksec.com/icon/f1cb2d02c471d545bbc7722daf3277fd852d98e63d118771af7047bd8256c516.png",
                        "isERC1155": false,
                        "isERC721": false,
                        "sign": false,
                        "value": "185367.00000000000728"
                    }
                ]
            },
            {
                "account": "0x388c818ca8b9251b393131c08a736a67ccb19297",
                "assets": [
                    {
                        "address": "0xeeeeeeeeeeeeeeeeeeeeeeeeeeeeeeeeeeeeeeee",
                        "amount": "5.1",
                        "iconUrl": "https://assets.blocksec.com/image/1663669189317-3.png",
                        "isERC1155": false,
                        "isERC721": false,
                        "sign": true,
                        "value": "9419.547000000000139"
                    }
                ]
            },
            {
                "account": "0xc02aaa39b223fe8d0a0e5c4f27ead9083c756cc2",
                "assets": [
                    {
                        "address": "0xc02aaa39b223fe8d0a0e5c4f27ead9083c756cc2",
                        "amount": "100",
                        "iconUrl": "https://assets.blocksec.com/icon/f1cb2d02c471d545bbc7722daf3277fd852d98e63d118771af7047bd8256c516.png",
                        "isERC1155": false,
                        "isERC721": false,
                        "sign": true,
                        "value": "185367.00000000000728"
                    },
                    {
                        "address": "0xeeeeeeeeeeeeeeeeeeeeeeeeeeeeeeeeeeeeeeee",
                        "amount": "100",
                        "iconUrl": "https://assets.blocksec.com/image/1663669189317-3.png",
                        "isERC1155": false,
                        "isERC721": false,
                        "sign": false,
                        "value": "184697.00000000000273"
                    }
                ]
            }
        ]
    },
    "profile": {
        "basic_info": {
            "baseFee": "17.992663788",
            "blockNumber": 17007839,
            "callData": "0x88dcde760000000000000000000000000000000000000000000000000000000000000040000000000000000000000000000000000000000000000000000000000000008000000000000000000000000000000000000000000000000000000000000000178f3800c01fc1181cc4393bbcdb1fc10b1fc1391fc1b82000000000000000000000000000000000000000000000000000000000000000000000000000000000020000000000000000000000000000000000000000000000000000000000000040000000000000000000000000000000000000000000000000000000000000010000000000000000000000000000000000000000000000000000000000000000836cca019802d4ce81bf3f9e724c6aaf739cb25b2e96b39ee7b99d01c6cb8eec8c8d410c94242c94243f20c10a1fd788cb9b83dabdd03300afa0328a1532f448ae26334c00cb02d5cbf28123f30549dd3c7fba4b96b5445f0f841c604f33d40ae060f378e93447c0c49685ed2013c2f6bfa60802c5eee4d0b78717c7cfa10d94e7a9da0200000000000000000000000000000000000000000000000000000000000000000000000000000000000000000000000000000000000000000000000061c238011d01c1783f01d43c734dcd6c80be985d816e40a9dc64416c154b6f02c5fcc27e260b17c73d53ff66155b283f02c1581fc1780cd4f81292018a1bc6b5323664771fd2e130044d54fa0cd409eb1c04c36c8b77f1ff0624892b491c85532bd900000000000000000000000000000000000000000000000000000000000000",
            "debugEnable": true,
            "errorInfo": "",
            "eventCount": 3,
            "feeRecipient": "0x388c818ca8b9251b393131c08a736a67ccb19297",
            "formatValue": "0",
            "gasLimit": 324164,
            "gasPrice": "19.12274438",
            "gasUsed": 226395,
            "intTxnCount": 13,
            "internalRevert": false,
            "internalRevertMessage": "",
            "isContractCreation": false,
            "isFlashloan": false,
            "maxFee": "23.405964174",
            "nonce": 3,
            "overwritedBlockNumber": -1,
            "priorityFee": "1.130080592",
            "receiver": "0x384be939cf8317f6b570815c7f8e95c54ed6aa85",
            "revertMessage": "",
            "sender": "0xc9c5b86993b1a72dca6082b2d34210afe19c7ccf",
            "simulationEnable": true,
            "sourceTxnHash": "0x542838429f32b49d71264cc1036bb7cfd66824613ba0c437f7ce4269edb58f74",
            "status": true,
            "timestamp": "2023-04-09T02:35:23Z",
            "transactionFee": "0.0043292937139101",
            "txnHash": "0x542838429f32b49d71264cc1036bb7cfd66824613ba0c437f7ce4269edb58f74",
            "txnIndex": 2,
            "type": 2,
            "value": "0"
        },
        "fund_flow": [
            {
                "amount": "100",
                "from": "0x31d3243cfb54b34fc9c73e1cb1137124bd6b13e1",
                "id": 1,
                "isERC1155": false,
                "isERC721": false,
                "isReverted": false,
                "order": 1,
                "to": "0x384be939cf8317f6b570815c7f8e95c54ed6aa85",
                "token": "0xc02aaa39b223fe8d0a0e5c4f27ead9083c756cc2"
            },
            {
                "amount": "100",
                "from": "0xc02aaa39b223fe8d0a0e5c4f27ead9083c756cc2",
                "id": 2,
                "isERC1155": false,
                "isERC721": false,
                "isReverted": false,
                "order": 2,
                "to": "0x384be939cf8317f6b570815c7f8e95c54ed6aa85",
                "token": "0xeeeeeeeeeeeeeeeeeeeeeeeeeeeeeeeeeeeeeeee"
            },
            {
                "amount": "100",
                "from": "0x384be939cf8317f6b570815c7f8e95c54ed6aa85",
                "id": 3,
                "isERC1155": false,
                "isERC721": false,
                "isReverted": false,
                "order": 3,
                "to": "0xc02aaa39b223fe8d0a0e5c4f27ead9083c756cc2",
                "token": "0xc02aaa39b223fe8d0a0e5c4f27ead9083c756cc2"
            },
            {
                "amount": "5.1",
                "from": "0x384be939cf8317f6b570815c7f8e95c54ed6aa85",
                "id": 4,
                "isERC1155": false,
                "isERC721": false,
                "isReverted": false,
                "order": 4,
                "to": "0x388c818ca8b9251b393131c08a736a67ccb19297",
                "token": "0xeeeeeeeeeeeeeeeeeeeeeeeeeeeeeeeeeeeeeeee"
            }
        ],
        "token_infos": [
            {
                "address": "0xeeeeeeeeeeeeeeeeeeeeeeeeeeeeeeeeeeeeeeee",
                "decimals": 18
            },
            {
                "address": "0xc02aaa39b223fe8d0a0e5c4f27ead9083c756cc2",
                "decimals": 18
            }
        ]
    },
    "address_label": {
        "labels": [
            {
                "address": "0x0000000000000000000000000000000000000003",
                "label": "Precompiled"
            },
            {
                "address": "0xeeeeeeeeeeeeeeeeeeeeeeeeeeeeeeeeeeeeeeee",
                "label": "Ether"
            },
            {
                "address": "0x514910771af9ca656af840dff83e8264ecf986ca",
                "label": "Chainlink: LINK Token"
            },
            {
                "address": "0xc02aaa39b223fe8d0a0e5c4f27ead9083c756cc2",
                "label": "Wrapped Ether (WETH)"
            },
            {
                "address": "0x388c818ca8b9251b393131c08a736a67ccb19297",
                "label": "Lido: Execution Layer Rewards Vault"
            },
            {
                "address": "0x0000000000000000000000000000000000000004",
                "label": "Precompiled"
            },
            {
                "address": "0x0000000000000000000000000000000000000000",
                "label": "Null Address"
            },
            {
                "address": "0x044b75f554b886a065b9567891e45c79542d7357",
                "label": "SushiSwap: Route Processor 2"
            },
            {
                "address": "0x0000000000000000000000000000000000000001",
                "label": "Precompiled"
            },
            {
                "address": "0x0000000000000000000000000000000000000002",
                "label": "Precompiled"
            }
        ]
    },
    "trace": {
        "accountLabels": null,
        "dataMap": {
            "-1": {
                "invocation": {
                    "address": "0xc9c5b86993b1a72dca6082b2d34210afe19c7ccf",
                    "callData": "",
                    "decodedMethod": null,
                    "errorInfo": "",
                    "fromAddress": "",
                    "gasUsed": 0,
                    "id": -1,
                    "methodDecoded": false,
                    "operation": "",
                    "output": "",
                    "revert": false,
                    "revertMessage": "",
                    "selector": "",
                    "status": false,
                    "value": ""
                },
                "nodeType": 0
            },
            "0": {
                "invocation": {
                    "address": "0x384be939cf8317f6b570815c7f8e95c54ed6aa85",
                    "callData": "0x0000000000000000000000000000000000000000000000000000000000000040000000000000000000000000000000000000000000000000000000000000008000000000000000000000000000000000000000000000000000000000000000178f3800c01fc1181cc4393bbcdb1fc10b1fc1391fc1b82000000000000000000000000000000000000000000000000000000000000000000000000000000000020000000000000000000000000000000000000000000000000000000000000040000000000000000000000000000000000000000000000000000000000000010000000000000000000000000000000000000000000000000000000000000000836cca019802d4ce81bf3f9e724c6aaf739cb25b2e96b39ee7b99d01c6cb8eec8c8d410c94242c94243f20c10a1fd788cb9b83dabdd03300afa0328a1532f448ae26334c00cb02d5cbf28123f30549dd3c7fba4b96b5445f0f841c604f33d40ae060f378e93447c0c49685ed2013c2f6bfa60802c5eee4d0b78717c7cfa10d94e7a9da0200000000000000000000000000000000000000000000000000000000000000000000000000000000000000000000000000000000000000000000000061c238011d01c1783f01d43c734dcd6c80be985d816e40a9dc64416c154b6f02c5fcc27e260b17c73d53ff66155b283f02c1581fc1780cd4f81292018a1bc6b5323664771fd2e130044d54fa0cd409eb1c04c36c8b77f1ff0624892b491c85532bd900000000000000000000000000000000000000000000000000000000000000",
                    "decodedMethod": null,
                    "errorInfo": "",
                    "fromAddress": "0xc9c5b86993b1a72dca6082b2d34210afe19c7ccf",
                    "gasUsed": 226395,
                    "id": 0,
                    "methodDecoded": false,
                    "operation": "CALL",
                    "output": "",
                    "revert": false,
                    "revertMessage": "",
                    "selector": "0x88dcde76",
                    "status": true,
                    "value": "0"
                },
                "nodeType": 0
            },
            "1": {
                "invocation": {
                    "address": "0x3a6be917af476db69cd12955c994e8f87bb52e68",
                    "callData": "0x0000000000000000000000000000000000000000000000000000000000000040000000000000000000000000000000000000000000000000000000000000008000000000000000000000000000000000000000000000000000000000000000178f3800c01fc1181cc4393bbcdb1fc10b1fc1391fc1b82000000000000000000000000000000000000000000000000000000000000000000000000000000000020000000000000000000000000000000000000000000000000000000000000040000000000000000000000000000000000000000000000000000000000000010000000000000000000000000000000000000000000000000000000000000000836cca019802d4ce81bf3f9e724c6aaf739cb25b2e96b39ee7b99d01c6cb8eec8c8d410c94242c94243f20c10a1fd788cb9b83dabdd03300afa0328a1532f448ae26334c00cb02d5cbf28123f30549dd3c7fba4b96b5445f0f841c604f33d40ae060f378e93447c0c49685ed2013c2f6bfa60802c5eee4d0b78717c7cfa10d94e7a9da0200000000000000000000000000000000000000000000000000000000000000000000000000000000000000000000000000000000000000000000000061c238011d01c1783f01d43c734dcd6c80be985d816e40a9dc64416c154b6f02c5fcc27e260b17c73d53ff66155b283f02c1581fc1780cd4f81292018a1bc6b5323664771fd2e130044d54fa0cd409eb1c04c36c8b77f1ff0624892b491c85532bd900000000000000000000000000000000000000000000000000000000000000",
                    "decodedMethod": null,
                    "errorInfo": "",
                    "fromAddress": "0x384be939cf8317f6b570815c7f8e95c54ed6aa85",
                    "gasUsed": 253782,
                    "id": 1,
                    "methodDecoded": false,
                    "operation": "DELEGATECALL",
                    "output": "",
                    "revert": false,
                    "revertMessage": "",
                    "selector": "0x88dcde76",
                    "status": true,
                    "value": "0"
                },
                "nodeType": 0
            },
            "10": {
                "event": {
                    "contract": "0xc02aaa39b223fe8d0a0e5c4f27ead9083c756cc2",
                    "decodedLog": {
                        "name": "Transfer",
                        "params": [
                            {
                                "name": "src",
                                "type": "address",
                                "value": "0x31d3243cfb54b34fc9c73e1cb1137124bd6b13e1"
                            },
                            {
                                "name": "dst",
                                "type": "address",
                                "value": "0x384be939cf8317f6b570815c7f8e95c54ed6aa85"
                            },
                            {
                                "decimalAvailable": true,
                                "name": "wad",
                                "type": "uint256",
                                "value": "100,000,000,000,000,000,000"
                            }
                        ],
                        "signature": "Transfer(address,address,uint256)"
                    },
                    "id": 10,
                    "logData": "0x0000000000000000000000000000000000000000000000056bc75e2d63100000",
                    "logDecoded": true,
                    "operation": "EVENT",
                    "revert": false,
                    "status": true,
                    "topics": [
                        "0xddf252ad1be2c89b69c2b068fc378daa952ba7f163c4a11628f55a4df523b3ef",
                        "0x00000000000000000000000031d3243cfb54b34fc9c73e1cb1137124bd6b13e1",
                        "0x000000000000000000000000384be939cf8317f6b570815c7f8e95c54ed6aa85"
                    ]
                },
                "nodeType": 1
            },
            "11": {
                "invocation": {
                    "address": "0xc02aaa39b223fe8d0a0e5c4f27ead9083c756cc2",
                    "callData": "0x0000000000000000000000000000000000000000000000056bc75e2d63100000",
                    "decodedMethod": {
                        "callParams": [
                            {
                                "name": "wad",
                                "type": "uint256",
                                "value": "100,000,000,000,000,000,000"
                            }
                        ],
                        "constructorArguments": "",
                        "name": "withdraw",
                        "returnParams": [],
                        "signature": "withdraw(uint256)"
                    },
                    "errorInfo": "",
                    "fromAddress": "0x384be939cf8317f6b570815c7f8e95c54ed6aa85",
                    "gasUsed": 9352,
                    "id": 11,
                    "methodDecoded": true,
                    "operation": "CALL",
                    "output": "",
                    "revert": false,
                    "revertMessage": "",
                    "selector": "0x2e1a7d4d",
                    "status": true,
                    "value": "0"
                },
                "nodeType": 0
            },
            "12": {
                "invocation": {
                    "address": "0x384be939cf8317f6b570815c7f8e95c54ed6aa85",
                    "callData": "0x",
                    "decodedMethod": null,
                    "errorInfo": "",
                    "fromAddress": "0xc02aaa39b223fe8d0a0e5c4f27ead9083c756cc2",
                    "gasUsed": 212,
                    "id": 12,
                    "methodDecoded": false,
                    "operation": "CALL",
                    "output": "",
                    "revert": false,
                    "revertMessage": "",
                    "selector": "fallback",
                    "status": true,
                    "value": "100"
                },
                "nodeType": 0
            },
            "13": {
                "invocation": {
                    "address": "0x3a6be917af476db69cd12955c994e8f87bb52e68",
                    "callData": "0x",
                    "decodedMethod": null,
                    "errorInfo": "",
                    "fromAddress": "0x384be939cf8317f6b570815c7f8e95c54ed6aa85",
                    "gasUsed": 55,
                    "id": 13,
                    "methodDecoded": false,
                    "operation": "DELEGATECALL",
                    "output": "",
                    "revert": false,
                    "revertMessage": "",
                    "selector": "fallback",
                    "status": true,
                    "value": "100"
                },
                "nodeType": 0
            },
            "14": {
                "event": {
                    "contract": "0xc02aaa39b223fe8d0a0e5c4f27ead9083c756cc2",
                    "decodedLog": {
                        "name": "Withdrawal",
                        "params": [
                            {
                                "name": "src",
                                "type": "address",
                                "value": "0x384be939cf8317f6b570815c7f8e95c54ed6aa85"
                            },
                            {
                                "name": "wad",
                                "type": "uint256",
                                "value": "100,000,000,000,000,000,000"
                            }
                        ],
                        "signature": "Withdrawal(address,uint256)"
                    },
                    "id": 14,
                    "logData": "0x0000000000000000000000000000000000000000000000056bc75e2d63100000",
                    "logDecoded": true,
                    "operation": "EVENT",
                    "revert": false,
                    "status": true,
                    "topics": [
                        "0x7fcf532c15f0a6db0bd6d0e038bea71d30d808c7d98cb3bf7268a95bf5081b65",
                        "0x000000000000000000000000384be939cf8317f6b570815c7f8e95c54ed6aa85"
                    ]
                },
                "nodeType": 1
            },
            "15": {
                "invocation": {
                    "address": "0x388c818ca8b9251b393131c08a736a67ccb19297",
                    "callData": "0x",
                    "decodedMethod": null,
                    "errorInfo": "",
                    "fromAddress": "0x384be939cf8317f6b570815c7f8e95c54ed6aa85",
                    "gasUsed": 1111,
                    "id": 15,
                    "methodDecoded": false,
                    "operation": "CALL",
                    "output": "",
                    "revert": false,
                    "revertMessage": "",
                    "selector": "fallback",
                    "status": true,
                    "value": "5.1"
                },
                "nodeType": 0
            },
            "16": {
                "event": {
                    "contract": "0x388c818ca8b9251b393131c08a736a67ccb19297",
                    "decodedLog": {
                        "name": "ETHReceived",
                        "params": [
                            {
                                "name": "amount",
                                "type": "uint256",
                                "value": "5,100,000,000,000,000,000"
                            }
                        ],
                        "signature": "ETHReceived(uint256)"
                    },
                    "id": 16,
                    "logData": "0x00000000000000000000000000000000000000000000000046c6d6faa27e0000",
                    "logDecoded": true,
                    "operation": "EVENT",
                    "revert": false,
                    "status": true,
                    "topics": [
                        "0x27f12abfe35860a9a927b465bb3d4a9c23c8428174b83f278fe45ed7b4da2662"
                    ]
                },
                "nodeType": 1
            },
            "2": {
                "invocation": {
                    "address": "0x384be939cf8317f6b570815c7f8e95c54ed6aa85",
                    "callData": "0x000000000000000000000000000000000000000000000000000000000000002000000000000000000000000000000000000000000000000000000000000000836cca019802d4ce81bf3f9e724c6aaf739cb25b2e96b39ee7b99d01c6cb8eec8c8d410c94242c94243f20c10a1fd788cb9b83dabdd03300afa0328a1532f448ae26334c00cb02d5cbf28123f30549dd3c7fba4b96b5445f0f841c604f33d40ae060f378e93447c0c49685ed2013c2f6bfa60802c5eee4d0b78717c7cfa10d94e7a9da020000000000000000000000000000000000000000000000000000000000",
                    "decodedMethod": null,
                    "errorInfo": "",
                    "fromAddress": "0x384be939cf8317f6b570815c7f8e95c54ed6aa85",
                    "gasUsed": 103151,
                    "id": 2,
                    "methodDecoded": false,
                    "operation": "CALL",
                    "output": "",
                    "revert": false,
                    "revertMessage": "",
                    "selector": "0x4da14154",
                    "status": true,
                    "value": "0"
                },
                "nodeType": 0
            },
            "3": {
                "invocation": {
                    "address": "0x3a6be917af476db69cd12955c994e8f87bb52e68",
                    "callData": "0x000000000000000000000000000000000000000000000000000000000000002000000000000000000000000000000000000000000000000000000000000000836cca019802d4ce81bf3f9e724c6aaf739cb25b2e96b39ee7b99d01c6cb8eec8c8d410c94242c94243f20c10a1fd788cb9b83dabdd03300afa0328a1532f448ae26334c00cb02d5cbf28123f30549dd3c7fba4b96b5445f0f841c604f33d40ae060f378e93447c0c49685ed2013c2f6bfa60802c5eee4d0b78717c7cfa10d94e7a9da020000000000000000000000000000000000000000000000000000000000",
                    "decodedMethod": null,
                    "errorInfo": "",
                    "fromAddress": "0x384be939cf8317f6b570815c7f8e95c54ed6aa85",
                    "gasUsed": 102946,
                    "id": 3,
                    "methodDecoded": false,
                    "operation": "DELEGATECALL",
                    "output": "",
                    "revert": false,
                    "revertMessage": "",
                    "selector": "0x4da14154",
                    "status": true,
                    "value": "0"
                },
                "nodeType": 0
            },
            "4": {
                "invocation": {
                    "address": "0x044b75f554b886a065b9567891e45c79542d7357",
                    "callData": "0x000000000000000000000000eeeeeeeeeeeeeeeeeeeeeeeeeeeeeeeeeeeeeeee0000000000000000000000000000000000000000000000000000000000000000000000000000000000000000eeeeeeeeeeeeeeeeeeeeeeeeeeeeeeeeeeeeeeee0000000000000000000000000000000000000000000000000000000000000000000000000000000000000000000000000000000000000000000000000000000000000000000000000000000000000000000000000000000000000000000000c0000000000000000000000000000000000000000000000000000000000000004201514910771af9ca656af840dff83e8264ecf986ca01000001384be939cf8317f6b570815c7f8e95c54ed6aa85000000000000000000000000000000000000000000000000000000000000000000000000000000000000000000000000000000",
                    "decodedMethod": {
                        "callParams": [
                            {
                                "name": "tokenIn",
                                "type": "address",
                                "value": "0xeeeeeeeeeeeeeeeeeeeeeeeeeeeeeeeeeeeeeeee"
                            },
                            {
                                "name": "amountIn",
                                "type": "uint256",
                                "value": "0"
                            },
                            {
                                "name": "tokenOut",
                                "type": "address",
                                "value": "0xeeeeeeeeeeeeeeeeeeeeeeeeeeeeeeeeeeeeeeee"
                            },
                            {
                                "name": "amountOutMin",
                                "type": "uint256",
                                "value": "0"
                            },
                            {
                                "name": "to",
                                "type": "address",
                                "value": "0x0000000000000000000000000000000000000000"
                            },
                            {
                                "name": "route",
                                "type": "bytes",
                                "value": "0x01514910771af9ca656af840dff83e8264ecf986ca01000001384be939cf8317f6b570815c7f8e95c54ed6aa85000000000000000000000000000000000000000000"
                            }
                        ],
                        "constructorArguments": "",
                        "name": "processRoute",
                        "returnParams": [
                            {
                                "name": "amountOut",
                                "type": "uint256",
                                "value": "0"
                            }
                        ],
                        "signature": "processRoute(address,uint256,address,uint256,address,bytes)"
                    },
                    "errorInfo": "",
                    "fromAddress": "0x384be939cf8317f6b570815c7f8e95c54ed6aa85",
                    "gasUsed": 73541,
                    "id": 4,
                    "methodDecoded": true,
                    "operation": "CALL",
                    "output": "0x0000000000000000000000000000000000000000000000000000000000000000",
                    "revert": false,
                    "revertMessage": "",
                    "selector": "0x2646478b",
                    "status": true,
                    "value": "0"
                },
                "nodeType": 0
            },
            "5": {
                "invocation": {
                    "address": "0x514910771af9ca656af840dff83e8264ecf986ca",
                    "callData": "0x000000000000000000000000044b75f554b886a065b9567891e45c79542d7357",
                    "decodedMethod": {
                        "callParams": [
                            {
                                "name": "_owner",
                                "type": "address",
                                "value": "0x044b75f554b886a065b9567891e45c79542d7357"
                            }
                        ],
                        "constructorArguments": "",
                        "name": "balanceOf",
                        "returnParams": [
                            {
                                "decimalAvailable": true,
                                "name": "balance",
                                "type": "uint256",
                                "value": "0"
                            }
                        ],
                        "signature": "balanceOf(address)"
                    },
                    "errorInfo": "",
                    "fromAddress": "0x044b75f554b886a065b9567891e45c79542d7357",
                    "gasUsed": 2655,
                    "id": 5,
                    "methodDecoded": true,
                    "operation": "STATICCALL",
                    "output": "0x0000000000000000000000000000000000000000000000000000000000000000",
                    "revert": false,
                    "revertMessage": "",
                    "selector": "0x70a08231",
                    "status": true,
                    "value": "0"
                },
                "nodeType": 0
            },
            "6": {
                "invocation": {
                    "address": "0x384be939cf8317f6b570815c7f8e95c54ed6aa85",
                    "callData": "0x000000000000000000000000000000000000000000000000000000000000000000000000000000000000000000000000000000000000000000000000000000000000000000000000000000000000000000000000000000000000000000000000000000000000000000000000fffd8963efd1fc6a506488495d951d5263988d2500000000000000000000000000000000000000000000000000000000000000a00000000000000000000000000000000000000000000000000000000000000040000000000000000000000000514910771af9ca656af840dff83e8264ecf986ca000000000000000000000000044b75f554b886a065b9567891e45c79542d7357",
                    "decodedMethod": {
                        "callParams": [
                            {
                                "name": "recipient",
                                "type": "address",
                                "value": "0x0000000000000000000000000000000000000000"
                            },
                            {
                                "name": "zeroForOne",
                                "type": "bool",
                                "value": false
                            },
                            {
                                "name": "amountSpecified",
                                "type": "int256",
                                "value": "0"
                            },
                            {
                                "name": "sqrtPriceLimitX96",
                                "type": "uint160",
                                "value": "1,461,446,703,485,210,103,287,273,052,203,988,822,378,723,970,341"
                            },
                            {
                                "name": "data",
                                "type": "bytes",
                                "value": "0x000000000000000000000000514910771af9ca656af840dff83e8264ecf986ca000000000000000000000000044b75f554b886a065b9567891e45c79542d7357"
                            }
                        ],
                        "constructorArguments": "",
                        "name": "swap",
                        "returnParams": [
                            {
                                "name": "amount0",
                                "type": "int256",
                                "value": "0"
                            },
                            {
                                "name": "amount1",
                                "type": "int256",
                                "value": "0"
                            }
                        ],
                        "signature": "swap(address,bool,int256,uint160,bytes)"
                    },
                    "errorInfo": "",
                    "fromAddress": "0x044b75f554b886a065b9567891e45c79542d7357",
                    "gasUsed": 51469,
                    "id": 6,
                    "methodDecoded": true,
                    "operation": "CALL",
                    "output": "0x00000000000000000000000000000000000000000000000000000000000000000000000000000000000000000000000000000000000000000000000000000000",
                    "revert": false,
                    "revertMessage": "",
                    "selector": "0x128acb08",
                    "status": true,
                    "value": "0"
                },
                "nodeType": 0
            },
            "7": {
                "invocation": {
                    "address": "0x3a6be917af476db69cd12955c994e8f87bb52e68",
                    "callData": "0x000000000000000000000000000000000000000000000000000000000000000000000000000000000000000000000000000000000000000000000000000000000000000000000000000000000000000000000000000000000000000000000000000000000000000000000000fffd8963efd1fc6a506488495d951d5263988d2500000000000000000000000000000000000000000000000000000000000000a00000000000000000000000000000000000000000000000000000000000000040000000000000000000000000514910771af9ca656af840dff83e8264ecf986ca000000000000000000000000044b75f554b886a065b9567891e45c79542d7357",
                    "decodedMethod": {
                        "callParams": [
                            {
                                "name": "recipient",
                                "type": "address",
                                "value": "0x0000000000000000000000000000000000000000"
                            },
                            {
                                "name": "zeroForOne",
                                "type": "bool",
                                "value": false
                            },
                            {
                                "name": "amountSpecified",
                                "type": "int256",
                                "value": "0"
                            },
                            {
                                "name": "sqrtPriceLimitX96",
                                "type": "uint160",
                                "value": "1,461,446,703,485,210,103,287,273,052,203,988,822,378,723,970,341"
                            },
                            {
                                "name": "data",
                                "type": "bytes",
                                "value": "0x000000000000000000000000514910771af9ca656af840dff83e8264ecf986ca000000000000000000000000044b75f554b886a065b9567891e45c79542d7357"
                            }
                        ],
                        "constructorArguments": "",
                        "name": "swap",
                        "returnParams": [
                            {
                                "name": "amount0",
                                "type": "int256",
                                "value": "0"
                            },
                            {
                                "name": "amount1",
                                "type": "int256",
                                "value": "0"
                            }
                        ],
                        "signature": "swap(address,bool,int256,uint160,bytes)"
                    },
                    "errorInfo": "",
                    "fromAddress": "0x384be939cf8317f6b570815c7f8e95c54ed6aa85",
                    "gasUsed": 51252,
                    "id": 7,
                    "methodDecoded": true,
                    "operation": "DELEGATECALL",
                    "output": "0x00000000000000000000000000000000000000000000000000000000000000000000000000000000000000000000000000000000000000000000000000000000",
                    "revert": false,
                    "revertMessage": "",
                    "selector": "0x128acb08",
                    "status": true,
                    "value": "0"
                },
                "nodeType": 0
            },
            "8": {
                "invocation": {
                    "address": "0x044b75f554b886a065b9567891e45c79542d7357",
                    "callData": "0x0000000000000000000000000000000000000000000000056bc75e2d63100000000000000000000000000000000000000000000000000000000000000000000000000000000000000000000000000000000000000000000000000000000000600000000000000000000000000000000000000000000000000000000000000040000000000000000000000000c02aaa39b223fe8d0a0e5c4f27ead9083c756cc200000000000000000000000031d3243cfb54b34fc9c73e1cb1137124bd6b13e1",
                    "decodedMethod": {
                        "callParams": [
                            {
                                "name": "amount0Delta",
                                "type": "int256",
                                "value": "100,000,000,000,000,000,000"
                            },
                            {
                                "name": "amount1Delta",
                                "type": "int256",
                                "value": "0"
                            },
                            {
                                "name": "data",
                                "type": "bytes",
                                "value": "0x000000000000000000000000c02aaa39b223fe8d0a0e5c4f27ead9083c756cc200000000000000000000000031d3243cfb54b34fc9c73e1cb1137124bd6b13e1"
                            }
                        ],
                        "constructorArguments": "",
                        "name": "uniswapV3SwapCallback",
                        "returnParams": [],
                        "signature": "uniswapV3SwapCallback(int256,int256,bytes)"
                    },
                    "errorInfo": "",
                    "fromAddress": "0x384be939cf8317f6b570815c7f8e95c54ed6aa85",
                    "gasUsed": 37333,
                    "id": 8,
                    "methodDecoded": true,
                    "operation": "CALL",
                    "output": "",
                    "revert": false,
                    "revertMessage": "",
                    "selector": "0xfa461e33",
                    "status": true,
                    "value": "0"
                },
                "nodeType": 0
            },
            "9": {
                "invocation": {
                    "address": "0xc02aaa39b223fe8d0a0e5c4f27ead9083c756cc2",
                    "callData": "0x00000000000000000000000031d3243cfb54b34fc9c73e1cb1137124bd6b13e1000000000000000000000000384be939cf8317f6b570815c7f8e95c54ed6aa850000000000000000000000000000000000000000000000056bc75e2d63100000",
                    "decodedMethod": {
                        "callParams": [
                            {
                                "name": "src",
                                "type": "address",
                                "value": "0x31d3243cfb54b34fc9c73e1cb1137124bd6b13e1"
                            },
                            {
                                "name": "dst",
                                "type": "address",
                                "value": "0x384be939cf8317f6b570815c7f8e95c54ed6aa85"
                            },
                            {
                                "decimalAvailable": true,
                                "name": "wad",
                                "type": "uint256",
                                "value": "100,000,000,000,000,000,000"
                            }
                        ],
                        "constructorArguments": "",
                        "name": "transferFrom",
                        "returnParams": [
                            {
                                "name": "",
                                "type": "bool",
                                "value": true
                            }
                        ],
                        "signature": "transferFrom(address,address,uint256)"
                    },
                    "errorInfo": "",
                    "fromAddress": "0x044b75f554b886a065b9567891e45c79542d7357",
                    "gasUsed": 32125,
                    "id": 9,
                    "methodDecoded": true,
                    "operation": "CALL",
                    "output": "0x0000000000000000000000000000000000000000000000000000000000000001",
                    "revert": false,
                    "revertMessage": "",
                    "selector": "0x23b872dd",
                    "status": true,
                    "value": "0"
                },
                "nodeType": 0
            }
        },
        "gasFlame": [
            {
                "children": [
                    {
                        "children": [
                            {
                                "children": [],
                                "depth": 0,
                                "name": "Initial Gas",
                                "value": 26440
                            },
                            {
                                "children": [
                                    {
                                        "children": [
                                            {
                                                "children": [
                                                    {
                                                        "children": [
                                                            {
                                                                "children": [
                                                                    {
                                                                        "children": [],
                                                                        "depth": 5,
                                                                        "name": "balanceOf",
                                                                        "value": 2655
                                                                    },
                                                                    {
                                                                        "children": [
                                                                            {
                                                                                "children": [
                                                                                    {
                                                                                        "children": [
                                                                                            {
                                                                                                "children": [],
                                                                                                "depth": 8,
                                                                                                "name": "transferFrom",
                                                                                                "value": 32125
                                                                                            }
                                                                                        ],
                                                                                        "depth": 7,
                                                                                        "name": "uniswapV3SwapCallback",
                                                                                        "value": 37333
                                                                                    }
                                                                                ],
                                                                                "depth": 6,
                                                                                "name": "swap",
                                                                                "value": 51252
                                                                            }
                                                                        ],
                                                                        "depth": 5,
                                                                        "name": "swap",
                                                                        "value": 51469
                                                                    }
                                                                ],
                                                                "depth": 4,
                                                                "name": "processRoute",
                                                                "value": 73541
                                                            },
                                                            {
                                                                "children": [
                                                                    {
                                                                        "children": [
                                                                            {
                                                                                "children": [],
                                                                                "depth": 6,
                                                                                "name": "fallback",
                                                                                "value": 55
                                                                            }
                                                                        ],
                                                                        "depth": 5,
                                                                        "name": "fallback",
                                                                        "value": 212
                                                                    }
                                                                ],
                                                                "depth": 4,
                                                                "name": "withdraw",
                                                                "value": 9352
                                                            }
                                                        ],
                                                        "depth": 3,
                                                        "name": "0x4da14154",
                                                        "value": 102946
                                                    }
                                                ],
                                                "depth": 2,
                                                "name": "0x4da14154",
                                                "value": 103151
                                            },
                                            {
                                                "children": [],
                                                "depth": 2,
                                                "name": "fallback",
                                                "value": 1111
                                            }
                                        ],
                                        "depth": 1,
                                        "name": "0x88dcde76",
                                        "value": 253782
                                    }
                                ],
                                "depth": 0,
                                "name": "Executed Gas",
                                "value": 256553
                            }
                        ],
                        "depth": -1,
                        "name": "Actual Gas Used",
                        "value": 226395
                    },
                    {
                        "children": [],
                        "depth": -1,
                        "name": "Refunded Gas",
                        "value": 56598
                    }
                ],
                "depth": -2,
                "name": "Total Gas",
                "value": 282993
            }
        ],
        "isConfirmed": true,
        "mainTrace": [
            {
                "children": [
                    {
                        "children": [
                            {
                                "children": [
                                    {
                                        "children": [
                                            {
                                                "children": [
                                                    {
                                                        "children": [
                                                            {
                                                                "children": [],
                                                                "depth": 5,
                                                                "id": 5,
                                                                "order": 5
                                                            },
                                                            {
                                                                "children": [
                                                                    {
                                                                        "children": [
                                                                            {
                                                                                "children": [
                                                                                    {
                                                                                        "children": [
                                                                                            {
                                                                                                "children": [],
                                                                                                "depth": 9,
                                                                                                "id": 10,
                                                                                                "order": 10
                                                                                            }
                                                                                        ],
                                                                                        "depth": 8,
                                                                                        "id": 9,
                                                                                        "order": 9
                                                                                    }
                                                                                ],
                                                                                "depth": 7,
                                                                                "id": 8,
                                                                                "order": 8
                                                                            }
                                                                        ],
                                                                        "depth": 6,
                                                                        "id": 7,
                                                                        "order": 7
                                                                    }
                                                                ],
                                                                "depth": 5,
                                                                "id": 6,
                                                                "order": 6
                                                            }
                                                        ],
                                                        "depth": 4,
                                                        "id": 4,
                                                        "order": 4
                                                    },
                                                    {
                                                        "children": [
                                                            {
                                                                "children": [
                                                                    {
                                                                        "children": [],
                                                                        "depth": 6,
                                                                        "id": 13,
                                                                        "order": 13
                                                                    }
                                                                ],
                                                                "depth": 5,
                                                                "id": 12,
                                                                "order": 12
                                                            },
                                                            {
                                                                "children": [],
                                                                "depth": 5,
                                                                "id": 14,
                                                                "order": 14
                                                            }
                                                        ],
                                                        "depth": 4,
                                                        "id": 11,
                                                        "order": 11
                                                    }
                                                ],
                                                "depth": 3,
                                                "id": 3,
                                                "order": 3
                                            }
                                        ],
                                        "depth": 2,
                                        "id": 2,
                                        "order": 2
                                    },
                                    {
                                        "children": [
                                            {
                                                "children": [],
                                                "depth": 3,
                                                "id": 16,
                                                "order": 16
                                            }
                                        ],
                                        "depth": 2,
                                        "id": 15,
                                        "order": 15
                                    }
                                ],
                                "depth": 1,
                                "id": 1,
                                "order": 1
                            }
                        ],
                        "depth": 0,
                        "id": 0,
                        "order": 0
                    }
                ],
                "depth": -1,
                "id": -1,
                "order": -1
            }
        ],
        "mainTraceNodeCount": 17,
        "parentIdMap": {
            "0": -1,
            "1": 0,
            "10": 9,
            "11": 3,
            "12": 11,
            "13": 12,
            "14": 11,
            "15": 1,
            "16": 15,
            "2": 1,
            "3": 2,
            "4": 3,
            "5": 4,
            "6": 4,
            "7": 6,
            "8": 7,
            "9": 8
        },
        "tidyTrace": [
            {
                "children": [
                    {
                        "children": [
                            {
                                "children": [
                                    {
                                        "children": [
                                            {
                                                "children": [
                                                    {
                                                        "children": [
                                                            {
                                                                "children": [
                                                                    {
                                                                        "children": [
                                                                            {
                                                                                "children": [
                                                                                    {
                                                                                        "children": [
                                                                                            {
                                                                                                "children": [],
                                                                                                "depth": 9,
                                                                                                "id": 10,
                                                                                                "order": 10
                                                                                            }
                                                                                        ],
                                                                                        "depth": 8,
                                                                                        "id": 9,
                                                                                        "order": 9
                                                                                    }
                                                                                ],
                                                                                "depth": 7,
                                                                                "id": 8,
                                                                                "order": 8
                                                                            }
                                                                        ],
                                                                        "depth": 6,
                                                                        "id": 7,
                                                                        "order": 7
                                                                    }
                                                                ],
                                                                "depth": 5,
                                                                "id": 6,
                                                                "order": 6
                                                            }
                                                        ],
                                                        "depth": 4,
                                                        "id": 4,
                                                        "order": 4
                                                    },
                                                    {
                                                        "children": [
                                                            {
                                                                "children": [
                                                                    {
                                                                        "children": [],
                                                                        "depth": 6,
                                                                        "id": 13,
                                                                        "order": 13
                                                                    }
                                                                ],
                                                                "depth": 5,
                                                                "id": 12,
                                                                "order": 12
                                                            },
                                                            {
                                                                "children": [],
                                                                "depth": 5,
                                                                "id": 14,
                                                                "order": 14
                                                            }
                                                        ],
                                                        "depth": 4,
                                                        "id": 11,
                                                        "order": 11
                                                    }
                                                ],
                                                "depth": 3,
                                                "id": 3,
                                                "order": 3
                                            }
                                        ],
                                        "depth": 2,
                                        "id": 2,
                                        "order": 2
                                    },
                                    {
                                        "children": [
                                            {
                                                "children": [],
                                                "depth": 3,
                                                "id": 16,
                                                "order": 16
                                            }
                                        ],
                                        "depth": 2,
                                        "id": 15,
                                        "order": 15
                                    }
                                ],
                                "depth": 1,
                                "id": 1,
                                "order": 1
                            }
                        ],
                        "depth": 0,
                        "id": 0,
                        "order": 0
                    }
                ],
                "depth": -1,
                "id": -1,
                "order": -1
            }
        ],
        "tidyTraceNodeCount": 16
    },
    "state_change": {
        "stateChanges": [
            {
                "address": "0xc02aaa39b223fe8d0a0e5c4f27ead9083c756cc2",
                "erc": "ERC-20",
                "slots": [
                    {
                        "current": "0x00000000000000000000000000000000000000000000004762325a435be361e7",
                        "key": "0x95f8cd41e2ee220afdea18978164e272fdbc090d8a126b5889281f951ee53f1c",
                        "prev": "0x00000000000000000000000000000000000000000000004ccdf9b870bef361e7"
                    }
                ],
                "storageVariables": [
                    {
                        "name": "balanceOf",
                        "type": "mapping(address => uint256)",
                        "value": {
                            "pairs": [
                                {
                                    "key": "0x31d3243cfb54b34fc9c73e1cb1137124bd6b13e1",
                                    "value": {
                                        "current": "1316794646443281572327",
                                        "prev": "1416794646443281572327",
                                        "typeTag": 1
                                    }
                                }
                            ],
                            "typeTag": 4
                        }
                    }
                ]
            }
        ]
    }
}