{
    "balance_change": {
        "balanceChanges": [
            {
                "account": "0xedee6379fe90bd9b85d8d0b767d4a6deb0dc9dcf",
                "assets": [
                    {
                        "address": "0xa0b86991c6218b36c1d19d4a2e9eb0ce3606eb48",
                        "amount": "47,809.355551",
                        "iconUrl": "https://assets.blocksec.com/icon/0347a86cc07dbd03fdc5db01a4e5ac7e1217f90e0b6e4bb0f75cbcca09160989.png",
                        "isERC1155": false,
                        "isERC721": false,
                        "sign": true,
                        "value": "47799.793678890001054"
                    }
                ]
            },
            {
                "account": "0x2c349022df145c1a2ed895b5577905e6f1bc7881",
                "assets": [
                    {
                        "address": "0xa0b86991c6218b36c1d19d4a2e9eb0ce3606eb48",
                        "amount": "1,000",
                        "iconUrl": "https://assets.blocksec.com/icon/0347a86cc07dbd03fdc5db01a4e5ac7e1217f90e0b6e4bb0f75cbcca09160989.png",
                        "isERC1155": false,
                        "isERC721": false,
                        "sign": false,
                        "value": "999.800000000000022"
                    }
                ]
            },
            {
                "account": "0x5322bff39339eda261bf878fa7d92791cc969bb0",
                "assets": [
                    {
                        "address": "0xa0b86991c6218b36c1d19d4a2e9eb0ce3606eb48",
                        "amount": "45,588.747326",
                        "iconUrl": "https://assets.blocksec.com/icon/0347a86cc07dbd03fdc5db01a4e5ac7e1217f90e0b6e4bb0f75cbcca09160989.png",
                        "isERC1155": false,
                        "isERC721": false,
                        "sign": false,
                        "value": "45579.629580534001004"
                    }
                ]
            },
            {
                "account": "0x96d0f726fd900e199680277aaad326fbdebc6bf9",
                "assets": [
                    {
                        "address": "0xa0b86991c6218b36c1d19d4a2e9eb0ce3606eb48",
                        "amount": "1",
                        "iconUrl": "https://assets.blocksec.com/icon/0347a86cc07dbd03fdc5db01a4e5ac7e1217f90e0b6e4bb0f75cbcca09160989.png",
                        "isERC1155": false,
                        "isERC721": false,
                        "sign": false,
                        "value": "0.999800000000000022"
                    }
                ]
            },
            {
                "account": "0xa7b7d4ebf1f5035f3b289139bada62f981f2916e",
                "assets": [
                    {
                        "address": "0xa0b86991c6218b36c1d19d4a2e9eb0ce3606eb48",
                        "amount": "1,219.608225",
                        "iconUrl": "https://assets.blocksec.com/icon/0347a86cc07dbd03fdc5db01a4e5ac7e1217f90e0b6e4bb0f75cbcca09160989.png",
                        "isERC1155": false,
                        "isERC721": false,
                        "sign": false,
                        "value": "1219.3643033550000269"
                    }
                ]
            }
        ]
    },
    "profile": {
        "basic_info": {
            "baseFee": "3.165401213",
            "blockNumber": 20520369,
            "callData": "0x8ce1fa94000000000000000000000000e3a0bc3483ae5a04db7ef2954315133a6f7d228e0000000000000000000000000000000000000000000000000000000000000080000000000000000000000000000000000000000000000000000000000000012000000000000000000000000000000000000000000000000000000000000001c000000000000000000000000000000000000000000000000000000000000000040000000000000000000000005322bff39339eda261bf878fa7d92791cc969bb0000000000000000000000000a7b7d4ebf1f5035f3b289139bada62f981f2916e0000000000000000000000002c349022df145c1a2ed895b5577905e6f1bc788100000000000000000000000096d0f726fd900e199680277aaad326fbdebc6bf900000000000000000000000000000000000000000000000000000000000000040000000000000000000000000000000000000000000000000000000a9d4d143e0000000000000000000000000000000000000000000000000000000048b1bea1000000000000000000000000000000000000000000000000000000003b9aca0000000000000000000000000000000000000000000000000000000000000f42400000000000000000000000000000000000000000000000000000000000000004000000000000000000000000a0b86991c6218b36c1d19d4a2e9eb0ce3606eb48000000000000000000000000a0b86991c6218b36c1d19d4a2e9eb0ce3606eb48000000000000000000000000a0b86991c6218b36c1d19d4a2e9eb0ce3606eb48000000000000000000000000a0b86991c6218b36c1d19d4a2e9eb0ce3606eb48",
            "debugEnable": true,
            "errorInfo": "",
            "eventCount": 4,
            "feeRecipient": "0x95222290dd7278aa3ddd389cc1e1d165cc4bafe5",
            "formatValue": "0",
            "gasLimit": 132620,
            "gasPrice": "4.665401213",
            "gasUsed": 111955,
            "intTxnCount": 12,
            "internalRevert": false,
            "internalRevertMessage": "",
            "isContractCreation": false,
            "isFlashloan": false,
            "maxFee": "6.105148333",
            "nonce": 214,
            "overwritedBlockNumber": -1,
            "priorityFee": "1.5",
            "receiver": "0x802cfff8d7cb27879e00496843bb69361ff09ab3",
            "revertMessage": "",
            "sender": "0xedee6379fe90bd9b85d8d0b767d4a6deb0dc9dcf",
            "simulationEnable": true,
            "sourceTxnHash": "0x54f659773dae6e01f83184d4b6d717c7f1bb71c0aa59e8c8f4a57c25271424b3",
            "status": true,
            "timestamp": "2024-08-13T14:42:11Z",
            "transactionFee": "0.000522314992801415",
            "txnHash": "0x54f659773dae6e01f83184d4b6d717c7f1bb71c0aa59e8c8f4a57c25271424b3",
            "txnIndex": 39,
            "type": 2,
            "value": "0"
        },
        "fund_flow": [
            {
                "amount": "45,588.747326",
                "from": "0x5322bff39339eda261bf878fa7d92791cc969bb0",
                "id": 1,
                "isERC1155": false,
                "isERC721": false,
                "isReverted": false,
                "order": 1,
                "to": "0xedee6379fe90bd9b85d8d0b767d4a6deb0dc9dcf",
                "token": "0xa0b86991c6218b36c1d19d4a2e9eb0ce3606eb48"
            },
            {
                "amount": "1,219.608225",
                "from": "0xa7b7d4ebf1f5035f3b289139bada62f981f2916e",
                "id": 2,
                "isERC1155": false,
                "isERC721": false,
                "isReverted": false,
                "order": 2,
                "to": "0xedee6379fe90bd9b85d8d0b767d4a6deb0dc9dcf",
                "token": "0xa0b86991c6218b36c1d19d4a2e9eb0ce3606eb48"
            },
            {
                "amount": "1,000",
                "from": "0x2c349022df145c1a2ed895b5577905e6f1bc7881",
                "id": 3,
                "isERC1155": false,
                "isERC721": false,
                "isReverted": false,
                "order": 3,
                "to": "0xedee6379fe90bd9b85d8d0b767d4a6deb0dc9dcf",
                "token": "0xa0b86991c6218b36c1d19d4a2e9eb0ce3606eb48"
            },
            {
                "amount": "1",
                "from": "0x96d0f726fd900e199680277aaad326fbdebc6bf9",
                "id": 4,
                "isERC1155": false,
                "isERC721": false,
                "isReverted": false,
                "order": 4,
                "to": "0xedee6379fe90bd9b85d8d0b767d4a6deb0dc9dcf",
                "token": "0xa0b86991c6218b36c1d19d4a2e9eb0ce3606eb48"
            }
        ],
        "token_infos": [
            {
                "address": "0xc02aaa39b223fe8d0a0e5c4f27ead9083c756cc2",
                "decimals": 18
            },
            {
                "address": "0xeeeeeeeeeeeeeeeeeeeeeeeeeeeeeeeeeeeeeeee",
                "decimals": 18
            },
            {
                "address": "0xa0b86991c6218b36c1d19d4a2e9eb0ce3606eb48",
                "decimals": 6
            }
        ]
    },
    "address_label": {
        "labels": [
            {
                "address": "0x5322bff39339eda261bf878fa7d92791cc969bb0",
                "label": "GnosisSafeProxy_5322_9bb0"
            },
            {
                "address": "0x0000000000000000000000000000000000000002",
                "label": "Precompiled"
            },
            {
                "address": "0x0000000000000000000000000000000000000001",
                "label": "Precompiled"
            },
            {
                "address": "0x0000000000000000000000000000000000000003",
                "label": "Precompiled"
            },
            {
                "address": "0x0000000000000000000000000000000000000004",
                "label": "Precompiled"
            },
            {
                "address": "0xeeeeeeeeeeeeeeeeeeeeeeeeeeeeeeeeeeeeeeee",
                "label": "Ether"
            },
            {
                "address": "0x2c349022df145c1a2ed895b5577905e6f1bc7881",
                "label": "GnosisSafeProxy_2c34_7881"
            },
            {
                "address": "0xa0b86991c6218b36c1d19d4a2e9eb0ce3606eb48",
                "label": "Circle: USDC Token"
            },
            {
                "address": "0x43506849d7c04f9138d1a2050bbf3a0c054402dd",
                "label": "FiatTokenV2_2"
            },
            {
                "address": "0xe3a0bc3483ae5a04db7ef2954315133a6f7d228e",
                "label": "YodlRouter"
            }
        ]
    },
    "trace": {
        "accountLabels": null,
        "dataMap": {
            "-1": {
                "invocation": {
                    "address": "0xedee6379fe90bd9b85d8d0b767d4a6deb0dc9dcf",
                    "callData": "",
                    "decodedMethod": null,
                    "errorInfo": "",
                    "fromAddress": "",
                    "gasUsed": 0,
                    "id": -1,
                    "methodDecoded": false,
                    "operation": "",
                    "output": "",
                    "revert": false,
                    "revertMessage": "",
                    "selector": "",
                    "status": false,
                    "value": ""
                },
                "nodeType": 0
            },
            "0": {
                "invocation": {
                    "address": "0x802cfff8d7cb27879e00496843bb69361ff09ab3",
                    "callData": "0x000000000000000000000000e3a0bc3483ae5a04db7ef2954315133a6f7d228e0000000000000000000000000000000000000000000000000000000000000080000000000000000000000000000000000000000000000000000000000000012000000000000000000000000000000000000000000000000000000000000001c000000000000000000000000000000000000000000000000000000000000000040000000000000000000000005322bff39339eda261bf878fa7d92791cc969bb0000000000000000000000000a7b7d4ebf1f5035f3b289139bada62f981f2916e0000000000000000000000002c349022df145c1a2ed895b5577905e6f1bc788100000000000000000000000096d0f726fd900e199680277aaad326fbdebc6bf900000000000000000000000000000000000000000000000000000000000000040000000000000000000000000000000000000000000000000000000a9d4d143e0000000000000000000000000000000000000000000000000000000048b1bea1000000000000000000000000000000000000000000000000000000003b9aca0000000000000000000000000000000000000000000000000000000000000f42400000000000000000000000000000000000000000000000000000000000000004000000000000000000000000a0b86991c6218b36c1d19d4a2e9eb0ce3606eb48000000000000000000000000a0b86991c6218b36c1d19d4a2e9eb0ce3606eb48000000000000000000000000a0b86991c6218b36c1d19d4a2e9eb0ce3606eb48000000000000000000000000a0b86991c6218b36c1d19d4a2e9eb0ce3606eb48",
                    "decodedMethod": null,
                    "errorInfo": "",
                    "fromAddress": "0xedee6379fe90bd9b85d8d0b767d4a6deb0dc9dcf",
                    "gasUsed": 111955,
                    "id": 0,
                    "methodDecoded": false,
                    "operation": "CALL",
                    "output": "",
                    "revert": false,
                    "revertMessage": "",
                    "selector": "0x8ce1fa94",
                    "status": true,
                    "value": "0"
                },
                "nodeType": 0
            },
            "1": {
                "invocation": {
                    "address": "0xe3a0bc3483ae5a04db7ef2954315133a6f7d228e",
                    "callData": "0x0000000000000000000000000000000000000000000000000000000a9d4d143e0000000000000000000000000000000000000000000000000000000000002710000000000000000000000000a0b86991c6218b36c1d19d4a2e9eb0ce3606eb480000000000000000000000005322bff39339eda261bf878fa7d92791cc969bb0000000000000000000000000edee6379fe90bd9b85d8d0b767d4a6deb0dc9dcf",
                    "decodedMethod": {
                        "callParams": [
                            {
                                "name": "amount",
                                "type": "uint256",
                                "value": "45,588,747,326"
                            },
                            {
                                "name": "feeBps",
                                "type": "uint256",
                                "value": "10,000"
                            },
                            {
                                "name": "token",
                                "type": "address",
                                "value": "0xa0b86991c6218b36c1d19d4a2e9eb0ce3606eb48"
                            },
                            {
                                "name": "from",
                                "type": "address",
                                "value": "0x5322bff39339eda261bf878fa7d92791cc969bb0"
                            },
                            {
                                "name": "to",
                                "type": "address",
                                "value": "0xedee6379fe90bd9b85d8d0b767d4a6deb0dc9dcf"
                            }
                        ],
                        "constructorArguments": "",
                        "name": "transferFee",
                        "returnParams": [
                            {
                                "name": "",
                                "type": "uint256",
                                "value": "45,588,747,326"
                            }
                        ],
                        "signature": "transferFee(uint256,uint256,address,address,address)"
                    },
                    "errorInfo": "",
                    "fromAddress": "0x802cfff8d7cb27879e00496843bb69361ff09ab3",
                    "gasUsed": 36138,
                    "id": 1,
                    "methodDecoded": true,
                    "operation": "CALL",
                    "output": "0x0000000000000000000000000000000000000000000000000000000a9d4d143e",
                    "revert": false,
                    "revertMessage": "",
                    "selector": "0xdf01a8c6",
                    "status": true,
                    "value": "0"
                },
                "nodeType": 0
            },
            "10": {
                "invocation": {
                    "address": "0xa0b86991c6218b36c1d19d4a2e9eb0ce3606eb48",
                    "callData": "0x0000000000000000000000002c349022df145c1a2ed895b5577905e6f1bc7881000000000000000000000000edee6379fe90bd9b85d8d0b767d4a6deb0dc9dcf000000000000000000000000000000000000000000000000000000003b9aca00",
                    "decodedMethod": {
                        "callParams": [
                            {
                                "name": "from",
                                "type": "address",
                                "value": "0x2c349022df145c1a2ed895b5577905e6f1bc7881"
                            },
                            {
                                "name": "to",
                                "type": "address",
                                "value": "0xedee6379fe90bd9b85d8d0b767d4a6deb0dc9dcf"
                            },
                            {
                                "decimalAvailable": true,
                                "name": "value",
                                "type": "uint256",
                                "value": "1,000,000,000"
                            }
                        ],
                        "constructorArguments": "",
                        "name": "transferFrom",
                        "returnParams": [
                            {
                                "name": "",
                                "type": "bool",
                                "value": true
                            }
                        ],
                        "signature": "transferFrom(address,address,uint256)"
                    },
                    "errorInfo": "",
                    "fromAddress": "0xe3a0bc3483ae5a04db7ef2954315133a6f7d228e",
                    "gasUsed": 16149,
                    "id": 10,
                    "methodDecoded": true,
                    "operation": "CALL",
                    "output": "0x0000000000000000000000000000000000000000000000000000000000000001",
                    "revert": false,
                    "revertMessage": "",
                    "selector": "0x23b872dd",
                    "status": true,
                    "value": "0"
                },
                "nodeType": 0
            },
            "11": {
                "invocation": {
                    "address": "0x43506849d7c04f9138d1a2050bbf3a0c054402dd",
                    "callData": "0x0000000000000000000000002c349022df145c1a2ed895b5577905e6f1bc7881000000000000000000000000edee6379fe90bd9b85d8d0b767d4a6deb0dc9dcf000000000000000000000000000000000000000000000000000000003b9aca00",
                    "decodedMethod": {
                        "callParams": [
                            {
                                "name": "from",
                                "type": "address",
                                "value": "0x2c349022df145c1a2ed895b5577905e6f1bc7881"
                            },
                            {
                                "name": "to",
                                "type": "address",
                                "value": "0xedee6379fe90bd9b85d8d0b767d4a6deb0dc9dcf"
                            },
                            {
                                "decimalAvailable": true,
                                "name": "value",
                                "type": "uint256",
                                "value": "1,000,000,000"
                            }
                        ],
                        "constructorArguments": "",
                        "name": "transferFrom",
                        "returnParams": [
                            {
                                "name": "",
                                "type": "bool",
                                "value": true
                            }
                        ],
                        "signature": "transferFrom(address,address,uint256)"
                    },
                    "errorInfo": "",
                    "fromAddress": "0xa0b86991c6218b36c1d19d4a2e9eb0ce3606eb48",
                    "gasUsed": 15354,
                    "id": 11,
                    "methodDecoded": true,
                    "operation": "DELEGATECALL",
                    "output": "0x0000000000000000000000000000000000000000000000000000000000000001",
                    "revert": false,
                    "revertMessage": "",
                    "selector": "0x23b872dd",
                    "status": true,
                    "value": "0"
                },
                "nodeType": 0
            },
            "12": {
                "event": {
                    "contract": "0xa0b86991c6218b36c1d19d4a2e9eb0ce3606eb48",
                    "decodedLog": {
                        "name": "Transfer",
                        "params": [
                            {
                                "name": "from",
                                "type": "address",
                                "value": "0x2c349022df145c1a2ed895b5577905e6f1bc7881"
                            },
                            {
                                "name": "to",
                                "type": "address",
                                "value": "0xedee6379fe90bd9b85d8d0b767d4a6deb0dc9dcf"
                            },
                            {
                                "decimalAvailable": true,
                                "name": "value",
                                "type": "uint256",
                                "value": "1,000,000,000"
                            }
                        ],
                        "signature": "Transfer(address,address,uint256)"
                    },
                    "id": 12,
                    "logData": "0x000000000000000000000000000000000000000000000000000000003b9aca00",
                    "logDecoded": true,
                    "operation": "EVENT",
                    "revert": false,
                    "status": true,
                    "topics": [
                        "0xddf252ad1be2c89b69c2b068fc378daa952ba7f163c4a11628f55a4df523b3ef",
                        "0x0000000000000000000000002c349022df145c1a2ed895b5577905e6f1bc7881",
                        "0x000000000000000000000000edee6379fe90bd9b85d8d0b767d4a6deb0dc9dcf"
                    ]
                },
                "nodeType": 1
            },
            "13": {
                "invocation": {
                    "address": "0xe3a0bc3483ae5a04db7ef2954315133a6f7d228e",
                    "callData": "0x00000000000000000000000000000000000000000000000000000000000f42400000000000000000000000000000000000000000000000000000000000002710000000000000000000000000a0b86991c6218b36c1d19d4a2e9eb0ce3606eb4800000000000000000000000096d0f726fd900e199680277aaad326fbdebc6bf9000000000000000000000000edee6379fe90bd9b85d8d0b767d4a6deb0dc9dcf",
                    "decodedMethod": {
                        "callParams": [
                            {
                                "name": "amount",
                                "type": "uint256",
                                "value": "1,000,000"
                            },
                            {
                                "name": "feeBps",
                                "type": "uint256",
                                "value": "10,000"
                            },
                            {
                                "name": "token",
                                "type": "address",
                                "value": "0xa0b86991c6218b36c1d19d4a2e9eb0ce3606eb48"
                            },
                            {
                                "name": "from",
                                "type": "address",
                                "value": "0x96d0f726fd900e199680277aaad326fbdebc6bf9"
                            },
                            {
                                "name": "to",
                                "type": "address",
                                "value": "0xedee6379fe90bd9b85d8d0b767d4a6deb0dc9dcf"
                            }
                        ],
                        "constructorArguments": "",
                        "name": "transferFee",
                        "returnParams": [
                            {
                                "name": "",
                                "type": "uint256",
                                "value": "1,000,000"
                            }
                        ],
                        "signature": "transferFee(uint256,uint256,address,address,address)"
                    },
                    "errorInfo": "",
                    "fromAddress": "0x802cfff8d7cb27879e00496843bb69361ff09ab3",
                    "gasUsed": 18338,
                    "id": 13,
                    "methodDecoded": true,
                    "operation": "CALL",
                    "output": "0x00000000000000000000000000000000000000000000000000000000000f4240",
                    "revert": false,
                    "revertMessage": "",
                    "selector": "0xdf01a8c6",
                    "status": true,
                    "value": "0"
                },
                "nodeType": 0
            },
            "14": {
                "invocation": {
                    "address": "0xa0b86991c6218b36c1d19d4a2e9eb0ce3606eb48",
                    "callData": "0x00000000000000000000000096d0f726fd900e199680277aaad326fbdebc6bf9000000000000000000000000edee6379fe90bd9b85d8d0b767d4a6deb0dc9dcf00000000000000000000000000000000000000000000000000000000000f4240",
                    "decodedMethod": {
                        "callParams": [
                            {
                                "name": "from",
                                "type": "address",
                                "value": "0x96d0f726fd900e199680277aaad326fbdebc6bf9"
                            },
                            {
                                "name": "to",
                                "type": "address",
                                "value": "0xedee6379fe90bd9b85d8d0b767d4a6deb0dc9dcf"
                            },
                            {
                                "decimalAvailable": true,
                                "name": "value",
                                "type": "uint256",
                                "value": "1,000,000"
                            }
                        ],
                        "constructorArguments": "",
                        "name": "transferFrom",
                        "returnParams": [
                            {
                                "name": "",
                                "type": "bool",
                                "value": true
                            }
                        ],
                        "signature": "transferFrom(address,address,uint256)"
                    },
                    "errorInfo": "",
                    "fromAddress": "0xe3a0bc3483ae5a04db7ef2954315133a6f7d228e",
                    "gasUsed": 16149,
                    "id": 14,
                    "methodDecoded": true,
                    "operation": "CALL",
                    "output": "0x0000000000000000000000000000000000000000000000000000000000000001",
                    "revert": false,
                    "revertMessage": "",
                    "selector": "0x23b872dd",
                    "status": true,
                    "value": "0"
                },
                "nodeType": 0
            },
            "15": {
                "invocation": {
                    "address": "0x43506849d7c04f9138d1a2050bbf3a0c054402dd",
                    "callData": "0x00000000000000000000000096d0f726fd900e199680277aaad326fbdebc6bf9000000000000000000000000edee6379fe90bd9b85d8d0b767d4a6deb0dc9dcf00000000000000000000000000000000000000000000000000000000000f4240",
                    "decodedMethod": {
                        "callParams": [
                            {
                                "name": "from",
                                "type": "address",
                                "value": "0x96d0f726fd900e199680277aaad326fbdebc6bf9"
                            },
                            {
                                "name": "to",
                                "type": "address",
                                "value": "0xedee6379fe90bd9b85d8d0b767d4a6deb0dc9dcf"
                            },
                            {
                                "decimalAvailable": true,
                                "name": "value",
                                "type": "uint256",
                                "value": "1,000,000"
                            }
                        ],
                        "constructorArguments": "",
                        "name": "transferFrom",
                        "returnParams": [
                            {
                                "name": "",
                                "type": "bool",
                                "value": true
                            }
                        ],
                        "signature": "transferFrom(address,address,uint256)"
                    },
                    "errorInfo": "",
                    "fromAddress": "0xa0b86991c6218b36c1d19d4a2e9eb0ce3606eb48",
                    "gasUsed": 15354,
                    "id": 15,
                    "methodDecoded": true,
                    "operation": "DELEGATECALL",
                    "output": "0x0000000000000000000000000000000000000000000000000000000000000001",
                    "revert": false,
                    "revertMessage": "",
                    "selector": "0x23b872dd",
                    "status": true,
                    "value": "0"
                },
                "nodeType": 0
            },
            "16": {
                "event": {
                    "contract": "0xa0b86991c6218b36c1d19d4a2e9eb0ce3606eb48",
                    "decodedLog": {
                        "name": "Transfer",
                        "params": [
                            {
                                "name": "from",
                                "type": "address",
                                "value": "0x96d0f726fd900e199680277aaad326fbdebc6bf9"
                            },
                            {
                                "name": "to",
                                "type": "address",
                                "value": "0xedee6379fe90bd9b85d8d0b767d4a6deb0dc9dcf"
                            },
                            {
                                "decimalAvailable": true,
                                "name": "value",
                                "type": "uint256",
                                "value": "1,000,000"
                            }
                        ],
                        "signature": "Transfer(address,address,uint256)"
                    },
                    "id": 16,
                    "logData": "0x00000000000000000000000000000000000000000000000000000000000f4240",
                    "logDecoded": true,
                    "operation": "EVENT",
                    "revert": false,
                    "status": true,
                    "topics": [
                        "0xddf252ad1be2c89b69c2b068fc378daa952ba7f163c4a11628f55a4df523b3ef",
                        "0x00000000000000000000000096d0f726fd900e199680277aaad326fbdebc6bf9",
                        "0x000000000000000000000000edee6379fe90bd9b85d8d0b767d4a6deb0dc9dcf"
                    ]
                },
                "nodeType": 1
            },
            "2": {
                "invocation": {
                    "address": "0xa0b86991c6218b36c1d19d4a2e9eb0ce3606eb48",
                    "callData": "0x0000000000000000000000005322bff39339eda261bf878fa7d92791cc969bb0000000000000000000000000edee6379fe90bd9b85d8d0b767d4a6deb0dc9dcf0000000000000000000000000000000000000000000000000000000a9d4d143e",
                    "decodedMethod": {
                        "callParams": [
                            {
                                "name": "from",
                                "type": "address",
                                "value": "0x5322bff39339eda261bf878fa7d92791cc969bb0"
                            },
                            {
                                "name": "to",
                                "type": "address",
                                "value": "0xedee6379fe90bd9b85d8d0b767d4a6deb0dc9dcf"
                            },
                            {
                                "decimalAvailable": true,
                                "name": "value",
                                "type": "uint256",
                                "value": "45,588,747,326"
                            }
                        ],
                        "constructorArguments": "",
                        "name": "transferFrom",
                        "returnParams": [
                            {
                                "name": "",
                                "type": "bool",
                                "value": true
                            }
                        ],
                        "signature": "transferFrom(address,address,uint256)"
                    },
                    "errorInfo": "",
                    "fromAddress": "0xe3a0bc3483ae5a04db7ef2954315133a6f7d228e",
                    "gasUsed": 31449,
                    "id": 2,
                    "methodDecoded": true,
                    "operation": "CALL",
                    "output": "0x0000000000000000000000000000000000000000000000000000000000000001",
                    "revert": false,
                    "revertMessage": "",
                    "selector": "0x23b872dd",
                    "status": true,
                    "value": "0"
                },
                "nodeType": 0
            },
            "3": {
                "invocation": {
                    "address": "0x43506849d7c04f9138d1a2050bbf3a0c054402dd",
                    "callData": "0x0000000000000000000000005322bff39339eda261bf878fa7d92791cc969bb0000000000000000000000000edee6379fe90bd9b85d8d0b767d4a6deb0dc9dcf0000000000000000000000000000000000000000000000000000000a9d4d143e",
                    "decodedMethod": {
                        "callParams": [
                            {
                                "name": "from",
                                "type": "address",
                                "value": "0x5322bff39339eda261bf878fa7d92791cc969bb0"
                            },
                            {
                                "name": "to",
                                "type": "address",
                                "value": "0xedee6379fe90bd9b85d8d0b767d4a6deb0dc9dcf"
                            },
                            {
                                "decimalAvailable": true,
                                "name": "value",
                                "type": "uint256",
                                "value": "45,588,747,326"
                            }
                        ],
                        "constructorArguments": "",
                        "name": "transferFrom",
                        "returnParams": [
                            {
                                "name": "",
                                "type": "bool",
                                "value": true
                            }
                        ],
                        "signature": "transferFrom(address,address,uint256)"
                    },
                    "errorInfo": "",
                    "fromAddress": "0xa0b86991c6218b36c1d19d4a2e9eb0ce3606eb48",
                    "gasUsed": 24154,
                    "id": 3,
                    "methodDecoded": true,
                    "operation": "DELEGATECALL",
                    "output": "0x0000000000000000000000000000000000000000000000000000000000000001",
                    "revert": false,
                    "revertMessage": "",
                    "selector": "0x23b872dd",
                    "status": true,
                    "value": "0"
                },
                "nodeType": 0
            },
            "4": {
                "event": {
                    "contract": "0xa0b86991c6218b36c1d19d4a2e9eb0ce3606eb48",
                    "decodedLog": {
                        "name": "Transfer",
                        "params": [
                            {
                                "name": "from",
                                "type": "address",
                                "value": "0x5322bff39339eda261bf878fa7d92791cc969bb0"
                            },
                            {
                                "name": "to",
                                "type": "address",
                                "value": "0xedee6379fe90bd9b85d8d0b767d4a6deb0dc9dcf"
                            },
                            {
                                "decimalAvailable": true,
                                "name": "value",
                                "type": "uint256",
                                "value": "45,588,747,326"
                            }
                        ],
                        "signature": "Transfer(address,address,uint256)"
                    },
                    "id": 4,
                    "logData": "0x0000000000000000000000000000000000000000000000000000000a9d4d143e",
                    "logDecoded": true,
                    "operation": "EVENT",
                    "revert": false,
                    "status": true,
                    "topics": [
                        "0xddf252ad1be2c89b69c2b068fc378daa952ba7f163c4a11628f55a4df523b3ef",
                        "0x0000000000000000000000005322bff39339eda261bf878fa7d92791cc969bb0",
                        "0x000000000000000000000000edee6379fe90bd9b85d8d0b767d4a6deb0dc9dcf"
                    ]
                },
                "nodeType": 1
            },
            "5": {
                "invocation": {
                    "address": "0xe3a0bc3483ae5a04db7ef2954315133a6f7d228e",
                    "callData": "0x0000000000000000000000000000000000000000000000000000000048b1bea10000000000000000000000000000000000000000000000000000000000002710000000000000000000000000a0b86991c6218b36c1d19d4a2e9eb0ce3606eb48000000000000000000000000a7b7d4ebf1f5035f3b289139bada62f981f2916e000000000000000000000000edee6379fe90bd9b85d8d0b767d4a6deb0dc9dcf",
                    "decodedMethod": {
                        "callParams": [
                            {
                                "name": "amount",
                                "type": "uint256",
                                "value": "1,219,608,225"
                            },
                            {
                                "name": "feeBps",
                                "type": "uint256",
                                "value": "10,000"
                            },
                            {
                                "name": "token",
                                "type": "address",
                                "value": "0xa0b86991c6218b36c1d19d4a2e9eb0ce3606eb48"
                            },
                            {
                                "name": "from",
                                "type": "address",
                                "value": "0xa7b7d4ebf1f5035f3b289139bada62f981f2916e"
                            },
                            {
                                "name": "to",
                                "type": "address",
                                "value": "0xedee6379fe90bd9b85d8d0b767d4a6deb0dc9dcf"
                            }
                        ],
                        "constructorArguments": "",
                        "name": "transferFee",
                        "returnParams": [
                            {
                                "name": "",
                                "type": "uint256",
                                "value": "1,219,608,225"
                            }
                        ],
                        "signature": "transferFee(uint256,uint256,address,address,address)"
                    },
                    "errorInfo": "",
                    "fromAddress": "0x802cfff8d7cb27879e00496843bb69361ff09ab3",
                    "gasUsed": 18338,
                    "id": 5,
                    "methodDecoded": true,
                    "operation": "CALL",
                    "output": "0x0000000000000000000000000000000000000000000000000000000048b1bea1",
                    "revert": false,
                    "revertMessage": "",
                    "selector": "0xdf01a8c6",
                    "status": true,
                    "value": "0"
                },
                "nodeType": 0
            },
            "6": {
                "invocation": {
                    "address": "0xa0b86991c6218b36c1d19d4a2e9eb0ce3606eb48",
                    "callData": "0x000000000000000000000000a7b7d4ebf1f5035f3b289139bada62f981f2916e000000000000000000000000edee6379fe90bd9b85d8d0b767d4a6deb0dc9dcf0000000000000000000000000000000000000000000000000000000048b1bea1",
                    "decodedMethod": {
                        "callParams": [
                            {
                                "name": "from",
                                "type": "address",
                                "value": "0xa7b7d4ebf1f5035f3b289139bada62f981f2916e"
                            },
                            {
                                "name": "to",
                                "type": "address",
                                "value": "0xedee6379fe90bd9b85d8d0b767d4a6deb0dc9dcf"
                            },
                            {
                                "decimalAvailable": true,
                                "name": "value",
                                "type": "uint256",
                                "value": "1,219,608,225"
                            }
                        ],
                        "constructorArguments": "",
                        "name": "transferFrom",
                        "returnParams": [
                            {
                                "name": "",
                                "type": "bool",
                                "value": true
                            }
                        ],
                        "signature": "transferFrom(address,address,uint256)"
                    },
                    "errorInfo": "",
                    "fromAddress": "0xe3a0bc3483ae5a04db7ef2954315133a6f7d228e",
                    "gasUsed": 16149,
                    "id": 6,
                    "methodDecoded": true,
                    "operation": "CALL",
                    "output": "0x0000000000000000000000000000000000000000000000000000000000000001",
                    "revert": false,
                    "revertMessage": "",
                    "selector": "0x23b872dd",
                    "status": true,
                    "value": "0"
                },
                "nodeType": 0
            },
            "7": {
                "invocation": {
                    "address": "0x43506849d7c04f9138d1a2050bbf3a0c054402dd",
                    "callData": "0x000000000000000000000000a7b7d4ebf1f5035f3b289139bada62f981f2916e000000000000000000000000edee6379fe90bd9b85d8d0b767d4a6deb0dc9dcf0000000000000000000000000000000000000000000000000000000048b1bea1",
                    "decodedMethod": {
                        "callParams": [
                            {
                                "name": "from",
                                "type": "address",
                                "value": "0xa7b7d4ebf1f5035f3b289139bada62f981f2916e"
                            },
                            {
                                "name": "to",
                                "type": "address",
                                "value": "0xedee6379fe90bd9b85d8d0b767d4a6deb0dc9dcf"
                            },
                            {
                                "decimalAvailable": true,
                                "name": "value",
                                "type": "uint256",
                                "value": "1,219,608,225"
                            }
                        ],
                        "constructorArguments": "",
                        "name": "transferFrom",
                        "returnParams": [
                            {
                                "name": "",
                                "type": "bool",
                                "value": true
                            }
                        ],
                        "signature": "transferFrom(address,address,uint256)"
                    },
                    "errorInfo": "",
                    "fromAddress": "0xa0b86991c6218b36c1d19d4a2e9eb0ce3606eb48",
                    "gasUsed": 15354,
                    "id": 7,
                    "methodDecoded": true,
                    "operation": "DELEGATECALL",
                    "output": "0x0000000000000000000000000000000000000000000000000000000000000001",
                    "revert": false,
                    "revertMessage": "",
                    "selector": "0x23b872dd",
                    "status": true,
                    "value": "0"
                },
                "nodeType": 0
            },
            "8": {
                "event": {
                    "contract": "0xa0b86991c6218b36c1d19d4a2e9eb0ce3606eb48",
                    "decodedLog": {
                        "name": "Transfer",
                        "params": [
                            {
                                "name": "from",
                                "type": "address",
                                "value": "0xa7b7d4ebf1f5035f3b289139bada62f981f2916e"
                            },
                            {
                                "name": "to",
                                "type": "address",
                                "value": "0xedee6379fe90bd9b85d8d0b767d4a6deb0dc9dcf"
                            },
                            {
                                "decimalAvailable": true,
                                "name": "value",
                                "type": "uint256",
                                "value": "1,219,608,225"
                            }
                        ],
                        "signature": "Transfer(address,address,uint256)"
                    },
                    "id": 8,
                    "logData": "0x0000000000000000000000000000000000000000000000000000000048b1bea1",
                    "logDecoded": true,
                    "operation": "EVENT",
                    "revert": false,
                    "status": true,
                    "topics": [
                        "0xddf252ad1be2c89b69c2b068fc378daa952ba7f163c4a11628f55a4df523b3ef",
                        "0x000000000000000000000000a7b7d4ebf1f5035f3b289139bada62f981f2916e",
                        "0x000000000000000000000000edee6379fe90bd9b85d8d0b767d4a6deb0dc9dcf"
                    ]
                },
                "nodeType": 1
            },
            "9": {
                "invocation": {
                    "address": "0xe3a0bc3483ae5a04db7ef2954315133a6f7d228e",
                    "callData": "0x000000000000000000000000000000000000000000000000000000003b9aca000000000000000000000000000000000000000000000000000000000000002710000000000000000000000000a0b86991c6218b36c1d19d4a2e9eb0ce3606eb480000000000000000000000002c349022df145c1a2ed895b5577905e6f1bc7881000000000000000000000000edee6379fe90bd9b85d8d0b767d4a6deb0dc9dcf",
                    "decodedMethod": {
                        "callParams": [
                            {
                                "name": "amount",
                                "type": "uint256",
                                "value": "1,000,000,000"
                            },
                            {
                                "name": "feeBps",
                                "type": "uint256",
                                "value": "10,000"
                            },
                            {
                                "name": "token",
                                "type": "address",
                                "value": "0xa0b86991c6218b36c1d19d4a2e9eb0ce3606eb48"
                            },
                            {
                                "name": "from",
                                "type": "address",
                                "value": "0x2c349022df145c1a2ed895b5577905e6f1bc7881"
                            },
                            {
                                "name": "to",
                                "type": "address",
                                "value": "0xedee6379fe90bd9b85d8d0b767d4a6deb0dc9dcf"
                            }
                        ],
                        "constructorArguments": "",
                        "name": "transferFee",
                        "returnParams": [
                            {
                                "name": "",
                                "type": "uint256",
                                "value": "1,000,000,000"
                            }
                        ],
                        "signature": "transferFee(uint256,uint256,address,address,address)"
                    },
                    "errorInfo": "",
                    "fromAddress": "0x802cfff8d7cb27879e00496843bb69361ff09ab3",
                    "gasUsed": 18338,
                    "id": 9,
                    "methodDecoded": true,
                    "operation": "CALL",
                    "output": "0x000000000000000000000000000000000000000000000000000000003b9aca00",
                    "revert": false,
                    "revertMessage": "",
                    "selector": "0xdf01a8c6",
                    "status": true,
                    "value": "0"
                },
                "nodeType": 0
            }
        },
        "gasFlame": [
            {
                "children": [
                    {
                        "children": [
                            {
                                "children": [],
                                "depth": 0,
                                "name": "Initial Gas",
                                "value": 25932
                            },
                            {
                                "children": [
                                    {
                                        "children": [
                                            {
                                                "children": [
                                                    {
                                                        "children": [],
                                                        "depth": 3,
                                                        "name": "transferFrom",
                                                        "value": 24154
                                                    }
                                                ],
                                                "depth": 2,
                                                "name": "transferFrom",
                                                "value": 31449
                                            }
                                        ],
                                        "depth": 1,
                                        "name": "transferFee",
                                        "value": 36138
                                    },
                                    {
                                        "children": [
                                            {
                                                "children": [
                                                    {
                                                        "children": [],
                                                        "depth": 3,
                                                        "name": "transferFrom",
                                                        "value": 15354
                                                    }
                                                ],
                                                "depth": 2,
                                                "name": "transferFrom",
                                                "value": 16149
                                            }
                                        ],
                                        "depth": 1,
                                        "name": "transferFee",
                                        "value": 18338
                                    },
                                    {
                                        "children": [
                                            {
                                                "children": [
                                                    {
                                                        "children": [],
                                                        "depth": 3,
                                                        "name": "transferFrom",
                                                        "value": 15354
                                                    }
                                                ],
                                                "depth": 2,
                                                "name": "transferFrom",
                                                "value": 16149
                                            }
                                        ],
                                        "depth": 1,
                                        "name": "transferFee",
                                        "value": 18338
                                    },
                                    {
                                        "children": [
                                            {
                                                "children": [
                                                    {
                                                        "children": [],
                                                        "depth": 3,
                                                        "name": "transferFrom",
                                                        "value": 15354
                                                    }
                                                ],
                                                "depth": 2,
                                                "name": "transferFrom",
                                                "value": 16149
                                            }
                                        ],
                                        "depth": 1,
                                        "name": "transferFee",
                                        "value": 18338
                                    }
                                ],
                                "depth": 0,
                                "name": "Executed Gas",
                                "value": 105223
                            }
                        ],
                        "depth": -1,
                        "name": "Actual Gas Used",
                        "value": 111955
                    },
                    {
                        "children": [],
                        "depth": -1,
                        "name": "Refunded Gas",
                        "value": 19200
                    }
                ],
                "depth": -2,
                "name": "Total Gas",
                "value": 131155
            }
        ],
        "isConfirmed": true,
        "mainTrace": [
            {
                "children": [
                    {
                        "children": [
                            {
                                "children": [
                                    {
                                        "children": [
                                            {
                                                "children": [
                                                    {
                                                        "children": [],
                                                        "depth": 4,
                                                        "id": 4,
                                                        "order": 4
                                                    }
                                                ],
                                                "depth": 3,
                                                "id": 3,
                                                "order": 3
                                            }
                                        ],
                                        "depth": 2,
                                        "id": 2,
                                        "order": 2
                                    }
                                ],
                                "depth": 1,
                                "id": 1,
                                "order": 1
                            },
                            {
                                "children": [
                                    {
                                        "children": [
                                            {
                                                "children": [
                                                    {
                                                        "children": [],
                                                        "depth": 4,
                                                        "id": 8,
                                                        "order": 8
                                                    }
                                                ],
                                                "depth": 3,
                                                "id": 7,
                                                "order": 7
                                            }
                                        ],
                                        "depth": 2,
                                        "id": 6,
                                        "order": 6
                                    }
                                ],
                                "depth": 1,
                                "id": 5,
                                "order": 5
                            },
                            {
                                "children": [
                                    {
                                        "children": [
                                            {
                                                "children": [
                                                    {
                                                        "children": [],
                                                        "depth": 4,
                                                        "id": 12,
                                                        "order": 12
                                                    }
                                                ],
                                                "depth": 3,
                                                "id": 11,
                                                "order": 11
                                            }
                                        ],
                                        "depth": 2,
                                        "id": 10,
                                        "order": 10
                                    }
                                ],
                                "depth": 1,
                                "id": 9,
                                "order": 9
                            },
                            {
                                "children": [
                                    {
                                        "children": [
                                            {
                                                "children": [
                                                    {
                                                        "children": [],
                                                        "depth": 4,
                                                        "id": 16,
                                                        "order": 16
                                                    }
                                                ],
                                                "depth": 3,
                                                "id": 15,
                                                "order": 15
                                            }
                                        ],
                                        "depth": 2,
                                        "id": 14,
                                        "order": 14
                                    }
                                ],
                                "depth": 1,
                                "id": 13,
                                "order": 13
                            }
                        ],
                        "depth": 0,
                        "id": 0,
                        "order": 0
                    }
                ],
                "depth": -1,
                "id": -1,
                "order": -1
            }
        ],
        "mainTraceNodeCount": 17,
        "parentIdMap": {
            "0": -1,
            "1": 0,
            "10": 9,
            "11": 10,
            "12": 11,
            "13": 0,
            "14": 13,
            "15": 14,
            "16": 15,
            "2": 1,
            "3": 2,
            "4": 3,
            "5": 0,
            "6": 5,
            "7": 6,
            "8": 7,
            "9": 0
        },
        "tidyTrace": [
            {
                "children": [
                    {
                        "children": [
                            {
                                "children": [
                                    {
                                        "children": [
                                            {
                                                "children": [
                                                    {
                                                        "children": [],
                                                        "depth": 4,
                                                        "id": 4,
                                                        "order": 4
                                                    }
                                                ],
                                                "depth": 3,
                                                "id": 3,
                                                "order": 3
                                            }
                                        ],
                                        "depth": 2,
                                        "id": 2,
                                        "order": 2
                                    }
                                ],
                                "depth": 1,
                                "id": 1,
                                "order": 1
                            },
                            {
                                "children": [
                                    {
                                        "children": [
                                            {
                                                "children": [
                                                    {
                                                        "children": [],
                                                        "depth": 4,
                                                        "id": 8,
                                                        "order": 8
                                                    }
                                                ],
                                                "depth": 3,
                                                "id": 7,
                                                "order": 7
                                            }
                                        ],
                                        "depth": 2,
                                        "id": 6,
                                        "order": 6
                                    }
                                ],
                                "depth": 1,
                                "id": 5,
                                "order": 5
                            },
                            {
                                "children": [
                                    {
                                        "children": [
                                            {
                                                "children": [
                                                    {
                                                        "children": [],
                                                        "depth": 4,
                                                        "id": 12,
                                                        "order": 12
                                                    }
                                                ],
                                                "depth": 3,
                                                "id": 11,
                                                "order": 11
                                            }
                                        ],
                                        "depth": 2,
                                        "id": 10,
                                        "order": 10
                                    }
                                ],
                                "depth": 1,
                                "id": 9,
                                "order": 9
                            },
                            {
                                "children": [
                                    {
                                        "children": [
                                            {
                                                "children": [
                                                    {
                                                        "children": [],
                                                        "depth": 4,
                                                        "id": 16,
                                                        "order": 16
                                                    }
                                                ],
                                                "depth": 3,
                                                "id": 15,
                                                "order": 15
                                            }
                                        ],
                                        "depth": 2,
                                        "id": 14,
                                        "order": 14
                                    }
                                ],
                                "depth": 1,
                                "id": 13,
                                "order": 13
                            }
                        ],
                        "depth": 0,
                        "id": 0,
                        "order": 0
                    }
                ],
                "depth": -1,
                "id": -1,
                "order": -1
            }
        ],
        "tidyTraceNodeCount": 17
    },
    "state_change": {
        "stateChanges": [
            {
                "address": "0xa0b86991c6218b36c1d19d4a2e9eb0ce3606eb48",
                "erc": "ERC-20",
                "slots": [
                    {
                        "current": "0xffffffffffffffffffffffffffffffffffffffffffffffffffffffeb8adf3cc1",
                        "key": "0xd7038cbe8a22ffed2f56284a804e05c54b0d95e76907a8c17a63bc2ed91df049",
                        "prev": "0xfffffffffffffffffffffffffffffffffffffffffffffffffffffff6282c50ff"
                    },
                    {
                        "current": "0x0000000000000000000000000000000000000000000000000000001c27a1818b",
                        "key": "0x3f1a821c4dc73d45e2aa0ae922e4001fa8e9f3c48eadef40364010ffc44b68f7",
                        "prev": "0x0000000000000000000000000000000000000000000000000000001c633c4b8b"
                    },
                    {
                        "current": "0x0000000000000000000000000000000000000000000000000000000000000000",
                        "key": "0x28bb5a2388b145d5569471c32a04ce722888420e262e528b83d869f7de11b5cd",
                        "prev": "0x000000000000000000000000000000000000000000000000000000003b9aca00"
                    },
                    {
                        "current": "0x000000000000000000000000000000000000000000000000000000000662cb33",
                        "key": "0x271a6e04518a0f7a59a3c941e0ddcb1c38ce414b8dbb2074571d3347b9cab187",
                        "prev": "0x0000000000000000000000000000000000000000000000000000000006720d73"
                    },
                    {
                        "current": "0x0000000000000000000000000000000000000000000000000000000000000000",
                        "key": "0xc59e46ef74084c3886ddf4566bfd45c99ac0ac8f331fd3843ce2299229e15aab",
                        "prev": "0x0000000000000000000000000000000000000000000000000000000a9d4d143e"
                    },
                    {
                        "current": "0x0000000000000000000000000000000000000000000000000000000b2a1d891c",
                        "key": "0x58ef6b863b954d1c78c8b8d33b17a406447d0f2cafe118e094921d995e0dcb0a",
                        "prev": "0x000000000000000000000000000000000000000000000000000000000874a9fd"
                    },
                    {
                        "current": "0x00000000000000000000000000000000000000000000000000000001a13b8600",
                        "key": "0x0d9afa955d9b153d210657a61ead78f2668188f8014b4a655baffa047a528e86",
                        "prev": "0x00000000000000000000000000000000000000000000000000000001e9ed44a1"
                    },
                    {
                        "current": "0x0000000000000000000000000000000000000000000000000000000000000000",
                        "key": "0x3f4d3a7e220adb7663eb3026d6bb7eeeba63f879cc8cad814dc32a8a9f4d629a",
                        "prev": "0x0000000000000000000000000000000000000000000000000000000048b1bea1"
                    },
                    {
                        "current": "0x0000000000000000000000000000000000000000000000000000000000000000",
                        "key": "0xb94cab8b4049f0cc32793d2df2f59902d81121013f466ee75bb0e1045d28fc46",
                        "prev": "0x00000000000000000000000000000000000000000000000000000000000f4240"
                    }
                ],
                "storageVariables": [
                    {
                        "name": "allowed",
                        "type": "mapping(address => mapping(address => uint256))",
                        "value": {
                            "pairs": [
                                {
                                    "key": "0x2c349022df145c1a2ed895b5577905e6f1bc7881",
                                    "value": {
                                        "pairs": [
                                            {
                                                "key": "0xe3a0bc3483ae5a04db7ef2954315133a6f7d228e",
                                                "value": {
                                                    "current": "0",
                                                    "prev": "1000000000",
                                                    "typeTag": 1
                                                }
                                            }
                                        ],
                                        "typeTag": 4
                                    }
                                },
                                {
                                    "key": "0x5322bff39339eda261bf878fa7d92791cc969bb0",
                                    "value": {
                                        "pairs": [
                                            {
                                                "key": "0xe3a0bc3483ae5a04db7ef2954315133a6f7d228e",
                                                "value": {
                                                    "current": "115792089237316195423570985008687907853269984665640564039457584007825265212609",
                                                    "prev": "115792089237316195423570985008687907853269984665640564039457584007870853959935",
                                                    "typeTag": 1
                                                }
                                            }
                                        ],
                                        "typeTag": 4
                                    }
                                },
                                {
                                    "key": "0x96d0f726fd900e199680277aaad326fbdebc6bf9",
                                    "value": {
                                        "pairs": [
                                            {
                                                "key": "0xe3a0bc3483ae5a04db7ef2954315133a6f7d228e",
                                                "value": {
                                                    "current": "0",
                                                    "prev": "1000000",
                                                    "typeTag": 1
                                                }
                                            }
                                        ],
                                        "typeTag": 4
                                    }
                                },
                                {
                                    "key": "0xa7b7d4ebf1f5035f3b289139bada62f981f2916e",
                                    "value": {
                                        "pairs": [
                                            {
                                                "key": "0xe3a0bc3483ae5a04db7ef2954315133a6f7d228e",
                                                "value": {
                                                    "current": "0",
                                                    "prev": "1219608225",
                                                    "typeTag": 1
                                                }
                                            }
                                        ],
                                        "typeTag": 4
                                    }
                                }
                            ],
                            "typeTag": 4
                        }
                    },
                    {
                        "name": "balanceAndBlacklistStates",
                        "type": "mapping(address => uint256)",
                        "value": {
                            "pairs": [
                                {
                                    "key": "0x2c349022df145c1a2ed895b5577905e6f1bc7881",
                                    "value": {
                                        "current": "120923980171",
                                        "prev": "121923980171",
                                        "typeTag": 1
                                    }
                                },
                                {
                                    "key": "0x5322bff39339eda261bf878fa7d92791cc969bb0",
                                    "value": {
                                        "current": "0",
                                        "prev": "45588747326",
                                        "typeTag": 1
                                    }
                                },
                                {
                                    "key": "0x96d0f726fd900e199680277aaad326fbdebc6bf9",
                                    "value": {
                                        "current": "107137843",
                                        "prev": "108137843",
                                        "typeTag": 1
                                    }
                                },
                                {
                                    "key": "0xa7b7d4ebf1f5035f3b289139bada62f981f2916e",
                                    "value": {
                                        "current": "7000000000",
                                        "prev": "8219608225",
                                        "typeTag": 1
                                    }
                                },
                                {
                                    "key": "0xedee6379fe90bd9b85d8d0b767d4a6deb0dc9dcf",
                                    "value": {
                                        "current": "47951218972",
                                        "prev": "141863421",
                                        "typeTag": 1
                                    }
                                }
                            ],
                            "typeTag": 4
                        }
                    }
                ]
            }
        ]
    }
}