{
    "balance_change": {
        "balanceChanges": []
    },
    "profile": {
        "basic_info": {
            "baseFee": "86.151694183",
            "blockNumber": 14182038,
            "callData": "0x44c028fe00000000000000000000000000000000000000000000000000000000000000070000000000000000000000006e36556b3ee5aa28def2a8ec3dae30ec2b208739000000000000000000000000000000000000000000000000000000000000000000000000000000000000000000000000000000000000000000000000000000800000000000000000000000000000000000000000000000000000000000000024ab033ea9000000000000000000000000dcc8a38a3a1f4ef4d0b4984dcbb31627d0952c2800000000000000000000000000000000000000000000000000000000",
            "debugEnable": true,
            "errorInfo": "",
            "eventCount": 0,
            "feeRecipient": "0xea674fdde714fd979de3edf0f56aa9716b898ec8",
            "formatValue": "0",
            "gasLimit": 99822,
            "gasPrice": "87.151694183",
            "gasUsed": 66548,
            "intTxnCount": 1,
            "internalRevert": false,
            "internalRevertMessage": "",
            "isContractCreation": false,
            "isFlashloan": false,
            "maxFee": "168.470417798",
            "nonce": 21,
            "overwritedBlockNumber": -1,
            "priorityFee": "1",
            "receiver": "0x5a6ebeb61a80b2a2a5e0b4d893d731358d888583",
            "revertMessage": "",
            "sender": "0xdcc8a38a3a1f4ef4d0b4984dcbb31627d0952c28",
            "simulationEnable": true,
            "sourceTxnHash": "0x544e5849b71b98393f41d641683586d0b519c46a2eeac9bcb351917f40258a85",
            "status": true,
            "timestamp": "2022-02-11T02:22:14Z",
            "transactionFee": "0.005799770944490284",
            "txnHash": "0x544e5849b71b98393f41d641683586d0b519c46a2eeac9bcb351917f40258a85",
            "txnIndex": 183,
            "type": 2,
            "value": "0"
        },
        "fund_flow": [],
        "token_infos": [
            {
                "address": "0xeeeeeeeeeeeeeeeeeeeeeeeeeeeeeeeeeeeeeeee",
                "decimals": 18
            },
            {
                "address": "0xc02aaa39b223fe8d0a0e5c4f27ead9083c756cc2",
                "decimals": 18
            }
        ]
    },
    "address_label": {
        "labels": [
            {
                "address": "0x0000000000000000000000000000000000000004",
                "label": "Precompiled"
            },
            {
                "address": "0xeeeeeeeeeeeeeeeeeeeeeeeeeeeeeeeeeeeeeeee",
                "label": "Ether"
            },
            {
                "address": "0xdcc8a38a3a1f4ef4d0b4984dcbb31627d0952c28",
                "label": "Build Finance Exploiter"
            },
            {
                "address": "0x5a6ebeb61a80b2a2a5e0b4d893d731358d888583",
                "label": "Governance"
            },
            {
                "address": "0x6e36556b3ee5aa28def2a8ec3dae30ec2b208739",
                "label": "Build Finance: BUILD Token"
            },
            {
                "address": "0x0000000000000000000000000000000000000001",
                "label": "Precompiled"
            },
            {
                "address": "0x0000000000000000000000000000000000000002",
                "label": "Precompiled"
            },
            {
                "address": "0x0000000000000000000000000000000000000003",
                "label": "Precompiled"
            }
        ]
    },
    "trace": {
        "accountLabels": null,
        "dataMap": {
            "-1": {
                "invocation": {
                    "address": "0xdcc8a38a3a1f4ef4d0b4984dcbb31627d0952c28",
                    "callData": "",
                    "decodedMethod": null,
                    "errorInfo": "",
                    "fromAddress": "",
                    "gasUsed": 0,
                    "id": -1,
                    "methodDecoded": false,
                    "operation": "",
                    "output": "",
                    "revert": false,
                    "revertMessage": "",
                    "selector": "",
                    "status": false,
                    "value": ""
                },
                "nodeType": 0
            },
            "0": {
                "invocation": {
                    "address": "0x5a6ebeb61a80b2a2a5e0b4d893d731358d888583",
                    "callData": "0x00000000000000000000000000000000000000000000000000000000000000070000000000000000000000006e36556b3ee5aa28def2a8ec3dae30ec2b208739000000000000000000000000000000000000000000000000000000000000000000000000000000000000000000000000000000000000000000000000000000800000000000000000000000000000000000000000000000000000000000000024ab033ea9000000000000000000000000dcc8a38a3a1f4ef4d0b4984dcbb31627d0952c2800000000000000000000000000000000000000000000000000000000",
                    "decodedMethod": {
                        "callParams": [
                            {
                                "name": "_proposalId",
                                "type": "uint256",
                                "value": "7"
                            },
                            {
                                "name": "_target",
                                "type": "address",
                                "value": "0x6e36556b3ee5aa28def2a8ec3dae30ec2b208739"
                            },
                            {
                                "name": "_value",
                                "type": "uint256",
                                "value": "0"
                            },
                            {
                                "name": "_data",
                                "type": "bytes",
                                "value": "0xab033ea9000000000000000000000000dcc8a38a3a1f4ef4d0b4984dcbb31627d0952c28"
                            }
                        ],
                        "constructorArguments": "",
                        "name": "execute",
                        "returnParams": [
                            {
                                "name": "",
                                "type": "bytes",
                                "value": "0x"
                            }
                        ],
                        "signature": "execute(uint256,address,uint256,bytes)"
                    },
                    "errorInfo": "",
                    "fromAddress": "0xdcc8a38a3a1f4ef4d0b4984dcbb31627d0952c28",
                    "gasUsed": 66548,
                    "id": 0,
                    "methodDecoded": true,
                    "operation": "CALL",
                    "output": "0x00000000000000000000000000000000000000000000000000000000000000200000000000000000000000000000000000000000000000000000000000000000",
                    "revert": false,
                    "revertMessage": "",
                    "selector": "0x44c028fe",
                    "status": true,
                    "value": "0"
                },
                "nodeType": 0
            },
            "1": {
                "invocation": {
                    "address": "0x6e36556b3ee5aa28def2a8ec3dae30ec2b208739",
                    "callData": "0x000000000000000000000000dcc8a38a3a1f4ef4d0b4984dcbb31627d0952c28",
                    "decodedMethod": {
                        "callParams": [
                            {
                                "name": "_governance",
                                "type": "address",
                                "value": "0xdcc8a38a3a1f4ef4d0b4984dcbb31627d0952c28"
                            }
                        ],
                        "constructorArguments": "",
                        "name": "setGovernance",
                        "returnParams": [],
                        "signature": "setGovernance(address)"
                    },
                    "errorInfo": "",
                    "fromAddress": "0x5a6ebeb61a80b2a2a5e0b4d893d731358d888583",
                    "gasUsed": 5637,
                    "id": 1,
                    "methodDecoded": true,
                    "operation": "CALL",
                    "output": "",
                    "revert": false,
                    "revertMessage": "",
                    "selector": "0xab033ea9",
                    "status": true,
                    "value": "0"
                },
                "nodeType": 0
            }
        },
        "gasFlame": [
            {
                "children": [
                    {
                        "children": [
                            {
                                "children": [],
                                "depth": 0,
                                "name": "Initial Gas",
                                "value": 22524
                            },
                            {
                                "children": [
                                    {
                                        "children": [],
                                        "depth": 1,
                                        "name": "setGovernance",
                                        "value": 5637
                                    }
                                ],
                                "depth": 0,
                                "name": "Executed Gas",
                                "value": 44024
                            }
                        ],
                        "depth": -1,
                        "name": "Actual Gas Used",
                        "value": 66548
                    },
                    {
                        "children": [],
                        "depth": -1,
                        "name": "Refunded Gas",
                        "value": 0
                    }
                ],
                "depth": -2,
                "name": "Total Gas",
                "value": 66548
            }
        ],
        "isConfirmed": true,
        "mainTrace": [
            {
                "children": [
                    {
                        "children": [
                            {
                                "children": [],
                                "depth": 1,
                                "id": 1,
                                "order": 1
                            }
                        ],
                        "depth": 0,
                        "id": 0,
                        "order": 0
                    }
                ],
                "depth": -1,
                "id": -1,
                "order": -1
            }
        ],
        "mainTraceNodeCount": 2,
        "parentIdMap": {
            "0": -1,
            "1": 0
        },
        "tidyTrace": [
            {
                "children": [
                    {
                        "children": [
                            {
                                "children": [],
                                "depth": 1,
                                "id": 1,
                                "order": 1
                            }
                        ],
                        "depth": 0,
                        "id": 0,
                        "order": 0
                    }
                ],
                "depth": -1,
                "id": -1,
                "order": -1
            }
        ],
        "tidyTraceNodeCount": 2
    },
    "state_change": {
        "stateChanges": [
            {
                "address": "0x5a6ebeb61a80b2a2a5e0b4d893d731358d888583",
                "erc": "",
                "slots": [
                    {
                        "current": "0x0000000000000000000000000000000000000000000000000000000000000001",
                        "key": "0xacd8ef244210bb6898e73c48bf820ed8ecc857a3bab8d79c10e4fa92b1e9ca6b",
                        "prev": "0x0000000000000000000000000000000000000000000000000000000000000000"
                    }
                ],
                "storageVariables": [
                    {
                        "name": "proposals",
                        "type": "mapping(uint256 => struct Governance.Proposal)",
                        "value": {
                            "pairs": [
                                {
                                    "key": "7",
                                    "value": {
                                        "fields": [
                                            {
                                                "name": "executed",
                                                "type": "bool",
                                                "value": {
                                                    "current": "true",
                                                    "prev": "false",
                                                    "typeTag": 1
                                                }
                                            }
                                        ],
                                        "typeTag": 3
                                    }
                                }
                            ],
                            "typeTag": 4
                        }
                    }
                ]
            },
            {
                "address": "0x6e36556b3ee5aa28def2a8ec3dae30ec2b208739",
                "erc": "ERC-20",
                "slots": [
                    {
                        "current": "0x0000000000000000000000dcc8a38a3a1f4ef4d0b4984dcbb31627d0952c2812",
                        "key": "0x0000000000000000000000000000000000000000000000000000000000000005",
                        "prev": "0x00000000000000000000005a6ebeb61a80b2a2a5e0b4d893d731358d88858312"
                    }
                ],
                "storageVariables": [
                    {
                        "name": "_decimals",
                        "type": "uint8",
                        "value": {
                            "current": "18",
                            "prev": "18",
                            "typeTag": 1
                        }
                    },
                    {
                        "name": "governance",
                        "type": "address",
                        "value": {
                            "current": "0xdcc8a38a3a1f4ef4d0b4984dcbb31627d0952c28",
                            "prev": "0x5a6ebeb61a80b2a2a5e0b4d893d731358d888583",
                            "typeTag": 1
                        }
                    }
                ]
            }
        ]
    }
}