{
    "balance_change": {
        "balanceChanges": [
            {
                "account": "0xbc62b9ba570ad783d21e5eb006f3665d3f6bba93",
                "assets": [
                    {
                        "address": "0xeeeeeeeeeeeeeeeeeeeeeeeeeeeeeeeeeeeeeeee",
                        "amount": "2.76285163776493257",
                        "iconUrl": "https://assets.blocksec.com/image/1663669189317-2.png",
                        "isERC1155": false,
                        "isERC721": false,
                        "sign": true,
                        "value": "793.0027396"
                    }
                ]
            },
            {
                "account": "0xfed1b640633fd0a4d77315d229918ab1f6e612f9",
                "assets": [
                    {
                        "address": "0x72e901f1bb2bfa2339326dfb90c5cec911e2ba3c",
                        "amount": "1",
                        "iconUrl": "",
                        "isERC1155": false,
                        "isERC721": true,
                        "sign": true,
                        "tokenID": "632",
                        "value": ""
                    },
                    {
                        "address": "0x72e901f1bb2bfa2339326dfb90c5cec911e2ba3c",
                        "amount": "1",
                        "iconUrl": "",
                        "isERC1155": false,
                        "isERC721": true,
                        "sign": true,
                        "tokenID": "633",
                        "value": ""
                    },
                    {
                        "address": "0x72e901f1bb2bfa2339326dfb90c5cec911e2ba3c",
                        "amount": "1",
                        "iconUrl": "",
                        "isERC1155": false,
                        "isERC721": true,
                        "sign": true,
                        "tokenID": "634",
                        "value": ""
                    },
                    {
                        "address": "0x72e901f1bb2bfa2339326dfb90c5cec911e2ba3c",
                        "amount": "1",
                        "iconUrl": "",
                        "isERC1155": false,
                        "isERC721": true,
                        "sign": true,
                        "tokenID": "635",
                        "value": ""
                    },
                    {
                        "address": "0x72e901f1bb2bfa2339326dfb90c5cec911e2ba3c",
                        "amount": "1",
                        "iconUrl": "",
                        "isERC1155": false,
                        "isERC721": true,
                        "sign": true,
                        "tokenID": "636",
                        "value": ""
                    }
                ]
            },
            {
                "account": "0x0000000000000000000000000000000000000000",
                "assets": [
                    {
                        "address": "0x72e901f1bb2bfa2339326dfb90c5cec911e2ba3c",
                        "amount": "1",
                        "iconUrl": "",
                        "isERC1155": false,
                        "isERC721": true,
                        "sign": false,
                        "tokenID": "632",
                        "value": ""
                    },
                    {
                        "address": "0x72e901f1bb2bfa2339326dfb90c5cec911e2ba3c",
                        "amount": "1",
                        "iconUrl": "",
                        "isERC1155": false,
                        "isERC721": true,
                        "sign": false,
                        "tokenID": "633",
                        "value": ""
                    },
                    {
                        "address": "0x72e901f1bb2bfa2339326dfb90c5cec911e2ba3c",
                        "amount": "1",
                        "iconUrl": "",
                        "isERC1155": false,
                        "isERC721": true,
                        "sign": false,
                        "tokenID": "634",
                        "value": ""
                    },
                    {
                        "address": "0x72e901f1bb2bfa2339326dfb90c5cec911e2ba3c",
                        "amount": "1",
                        "iconUrl": "",
                        "isERC1155": false,
                        "isERC721": true,
                        "sign": false,
                        "tokenID": "635",
                        "value": ""
                    },
                    {
                        "address": "0x72e901f1bb2bfa2339326dfb90c5cec911e2ba3c",
                        "amount": "1",
                        "iconUrl": "",
                        "isERC1155": false,
                        "isERC721": true,
                        "sign": false,
                        "tokenID": "636",
                        "value": ""
                    }
                ]
            },
            {
                "account": "0xae191ca19f0f8e21d754c6cab99107ed62b6fe53",
                "assets": [
                    {
                        "address": "0xeeeeeeeeeeeeeeeeeeeeeeeeeeeeeeeeeeeeeeee",
                        "amount": "2.76285163776493257",
                        "iconUrl": "https://assets.blocksec.com/image/1663669189317-2.png",
                        "isERC1155": false,
                        "isERC721": false,
                        "sign": false,
                        "value": "793.0027396"
                    }
                ]
            }
        ]
    },
    "profile": {
        "basic_info": {
            "baseFee": "",
            "blockNumber": 21785005,
            "callData": "0x151781940000000000000000000000000000000000000000000000000470de4df8200000000000000000000000000000ae191ca19f0f8e21d754c6cab99107ed62b6fe53",
            "debugEnable": true,
            "errorInfo": "",
            "eventCount": 5,
            "feeRecipient": "0x4396e28197653d0c244d95f8c1e57da902a72b4e",
            "formatValue": "0.32",
            "gasLimit": 3000000,
            "gasPrice": "15",
            "gasUsed": 874851,
            "intTxnCount": 28,
            "internalRevert": false,
            "internalRevertMessage": "",
            "isContractCreation": false,
            "isFlashloan": false,
            "maxFee": "",
            "nonce": 1,
            "overwritedBlockNumber": -1,
            "priorityFee": "",
            "receiver": "0xfed1b640633fd0a4d77315d229918ab1f6e612f9",
            "revertMessage": "",
            "sender": "0xbc62b9ba570ad783d21e5eb006f3665d3f6bba93",
            "simulationEnable": true,
            "sourceTxnHash": "0x57aa9c85e03eb25ac5d94f15f22b3ba3ab2ef60b603b97ae76f855072ea9e3a0",
            "status": true,
            "timestamp": "2022-09-30T16:08:32Z",
            "transactionFee": "0.013122765",
            "txnHash": "0x57aa9c85e03eb25ac5d94f15f22b3ba3ab2ef60b603b97ae76f855072ea9e3a0",
            "txnIndex": 5,
            "type": 0,
            "value": "320000000000000000"
        },
        "fund_flow": [
            {
                "amount": "0.32",
                "from": "0xbc62b9ba570ad783d21e5eb006f3665d3f6bba93",
                "id": 1,
                "isERC1155": false,
                "isERC721": false,
                "isReverted": false,
                "order": 1,
                "to": "0xfed1b640633fd0a4d77315d229918ab1f6e612f9",
                "token": "0xeeeeeeeeeeeeeeeeeeeeeeeeeeeeeeeeeeeeeeee"
            },
            {
                "amount": "0.32",
                "from": "0xfed1b640633fd0a4d77315d229918ab1f6e612f9",
                "id": 2,
                "isERC1155": false,
                "isERC721": false,
                "isReverted": false,
                "order": 2,
                "to": "0xae191ca19f0f8e21d754c6cab99107ed62b6fe53",
                "token": "0xeeeeeeeeeeeeeeeeeeeeeeeeeeeeeeeeeeeeeeee"
            },
            {
                "amount": "3.08285163776493257",
                "from": "0xae191ca19f0f8e21d754c6cab99107ed62b6fe53",
                "id": 3,
                "isERC1155": false,
                "isERC721": false,
                "isReverted": false,
                "order": 3,
                "to": "0xfed1b640633fd0a4d77315d229918ab1f6e612f9",
                "token": "0xeeeeeeeeeeeeeeeeeeeeeeeeeeeeeeeeeeeeeeee"
            },
            {
                "amount": "1",
                "from": "0x0000000000000000000000000000000000000000",
                "id": 4,
                "isERC1155": false,
                "isERC721": true,
                "isReverted": false,
                "order": 4,
                "to": "0xfed1b640633fd0a4d77315d229918ab1f6e612f9",
                "token": "0x72e901f1bb2bfa2339326dfb90c5cec911e2ba3c",
                "tokenID": "632"
            },
            {
                "amount": "1",
                "from": "0x0000000000000000000000000000000000000000",
                "id": 5,
                "isERC1155": false,
                "isERC721": true,
                "isReverted": false,
                "order": 5,
                "to": "0xfed1b640633fd0a4d77315d229918ab1f6e612f9",
                "token": "0x72e901f1bb2bfa2339326dfb90c5cec911e2ba3c",
                "tokenID": "633"
            },
            {
                "amount": "1",
                "from": "0x0000000000000000000000000000000000000000",
                "id": 6,
                "isERC1155": false,
                "isERC721": true,
                "isReverted": false,
                "order": 6,
                "to": "0xfed1b640633fd0a4d77315d229918ab1f6e612f9",
                "token": "0x72e901f1bb2bfa2339326dfb90c5cec911e2ba3c",
                "tokenID": "634"
            },
            {
                "amount": "1",
                "from": "0x0000000000000000000000000000000000000000",
                "id": 7,
                "isERC1155": false,
                "isERC721": true,
                "isReverted": false,
                "order": 7,
                "to": "0xfed1b640633fd0a4d77315d229918ab1f6e612f9",
                "token": "0x72e901f1bb2bfa2339326dfb90c5cec911e2ba3c",
                "tokenID": "635"
            },
            {
                "amount": "1",
                "from": "0x0000000000000000000000000000000000000000",
                "id": 8,
                "isERC1155": false,
                "isERC721": true,
                "isReverted": false,
                "order": 8,
                "to": "0xfed1b640633fd0a4d77315d229918ab1f6e612f9",
                "token": "0x72e901f1bb2bfa2339326dfb90c5cec911e2ba3c",
                "tokenID": "636"
            },
            {
                "amount": "3.08285163776493257",
                "from": "0xfed1b640633fd0a4d77315d229918ab1f6e612f9",
                "id": 9,
                "isERC1155": false,
                "isERC721": false,
                "isReverted": false,
                "order": 9,
                "to": "0xbc62b9ba570ad783d21e5eb006f3665d3f6bba93",
                "token": "0xeeeeeeeeeeeeeeeeeeeeeeeeeeeeeeeeeeeeeeee"
            }
        ],
        "token_infos": [
            {
                "address": "0xbb4cdb9cbd36b01bd1cbaebf2de08d9173bc095c",
                "decimals": 18
            },
            {
                "address": "0xeeeeeeeeeeeeeeeeeeeeeeeeeeeeeeeeeeeeeeee",
                "decimals": 18
            }
        ]
    },
    "address_label": {
        "labels": [
            {
                "address": "0xeeeeeeeeeeeeeeeeeeeeeeeeeeeeeeeeeeeeeeee",
                "label": "BNB"
            },
            {
                "address": "0x0000000000000000000000000000000000000002",
                "label": "Precompiled"
            },
            {
                "address": "0xae191ca19f0f8e21d754c6cab99107ed62b6fe53",
                "label": "House_Wallet"
            },
            {
                "address": "0x72e901f1bb2bfa2339326dfb90c5cec911e2ba3c",
                "label": "Thunderbrawl Roulette (THBR)"
            },
            {
                "address": "0x0000000000000000000000000000000000000001",
                "label": "Precompiled"
            },
            {
                "address": "0x0000000000000000000000000000000000000003",
                "label": "Precompiled"
            },
            {
                "address": "0x0000000000000000000000000000000000000004",
                "label": "Precompiled"
            }
        ]
    },
    "trace": {
        "accountLabels": null,
        "dataMap": {
            "-1": {
                "invocation": {
                    "address": "0xbc62b9ba570ad783d21e5eb006f3665d3f6bba93",
                    "callData": "",
                    "decodedMethod": null,
                    "errorInfo": "",
                    "fromAddress": "",
                    "gasUsed": 0,
                    "id": -1,
                    "methodDecoded": false,
                    "operation": "",
                    "output": "",
                    "revert": false,
                    "revertMessage": "",
                    "selector": "",
                    "status": false,
                    "value": ""
                },
                "nodeType": 0
            },
            "0": {
                "invocation": {
                    "address": "0xfed1b640633fd0a4d77315d229918ab1f6e612f9",
                    "callData": "0x0000000000000000000000000000000000000000000000000470de4df8200000000000000000000000000000ae191ca19f0f8e21d754c6cab99107ed62b6fe53",
                    "decodedMethod": null,
                    "errorInfo": "",
                    "fromAddress": "0xbc62b9ba570ad783d21e5eb006f3665d3f6bba93",
                    "gasUsed": 874851,
                    "id": 0,
                    "methodDecoded": false,
                    "operation": "CALL",
                    "output": "",
                    "revert": false,
                    "revertMessage": "",
                    "selector": "0x15178194",
                    "status": true,
                    "value": "0.32"
                },
                "nodeType": 0
            },
            "1": {
                "invocation": {
                    "address": "0xae191ca19f0f8e21d754c6cab99107ed62b6fe53",
                    "callData": "0x0000000000000000000000000000000000000000000a364c8ba0aa99e4780000000000000000000000000000000000000000000000000000000000000000000100000000000000000000000000000000000000000000000000000000000000000000000000000000000000000000000000000023eb45bc3239b196147e963fce00000000000000000000000000000000000000000000000000000000000001000000000000000000000000006ee709bf229c7c2303128e88225128784c801ce1000000000000000000000000000000000000000000000000000000000000000100000000000000000000000000000000000000000000000000000000000000010000000000000000000000000000000000000000000000000000000000000033484154454655434b494e474841434b455253544845594e4556455243414e4841434b54484953494841544550524556494f555300000000000000000000000000",
                    "decodedMethod": {
                        "callParams": [
                            {
                                "name": "random",
                                "type": "uint256",
                                "value": "12,345,678,000,000,000,000,000,000"
                            },
                            {
                                "name": "gameId",
                                "type": "uint256",
                                "value": "1"
                            },
                            {
                                "name": "feestate",
                                "type": "bool",
                                "value": false
                            },
                            {
                                "name": "_x",
                                "type": "uint256",
                                "value": "2,845,798,969,920,214,568,462,001,258,446"
                            },
                            {
                                "name": "name",
                                "type": "string",
                                "value": "HATEFUCKINGHACKERSTHEYNEVERCANHACKTHISIHATEPREVIOUS"
                            },
                            {
                                "name": "_add",
                                "type": "address",
                                "value": "0x6ee709bf229c7c2303128e88225128784c801ce1"
                            },
                            {
                                "name": "nftcheck",
                                "type": "bool",
                                "value": true
                            },
                            {
                                "name": "dystopianCheck",
                                "type": "bool",
                                "value": true
                            }
                        ],
                        "constructorArguments": "",
                        "name": "shoot",
                        "returnParams": [],
                        "signature": "shoot(uint256,uint256,bool,uint256,string,address,bool,bool)"
                    },
                    "errorInfo": "",
                    "fromAddress": "0xfed1b640633fd0a4d77315d229918ab1f6e612f9",
                    "gasUsed": 78475,
                    "id": 1,
                    "methodDecoded": true,
                    "operation": "CALL",
                    "output": "",
                    "revert": false,
                    "revertMessage": "",
                    "selector": "0xabb3bd5e",
                    "status": true,
                    "value": "0.32"
                },
                "nodeType": 0
            },
            "10": {
                "invocation": {
                    "address": "0x0000000000000000000000000000000000000002",
                    "callData": "0x000000000000000000000000000000000000cd5e19e98606ca01974600000000000000000000000000000000000000000000000000000000000000600000000000000000000000006ee709bf229c7c2303128e88225128784c801ce1000000000000000000000000000000000000000000000000000000000000003557454c434f4d45544f5448554e444552425241574c524f554c455454454e4f57594f5557494e54484553484f4f54494e4747414d450000000000000000000000",
                    "decodedMethod": {
                        "callParams": [
                            {
                                "name": "data",
                                "type": "bytes",
                                "value": "0x00000000000000000000000000000000000000000000cd5e19e98606ca01974600000000000000000000000000000000000000000000000000000000000000600000000000000000000000006ee709bf229c7c2303128e88225128784c801ce1000000000000000000000000000000000000000000000000000000000000003557454c434f4d45544f5448554e444552425241574c524f554c455454454e4f57594f5557494e54484553484f4f54494e4747414d450000000000000000000000"
                            }
                        ],
                        "constructorArguments": "",
                        "name": "sha256hash",
                        "returnParams": [
                            {
                                "name": "hash",
                                "type": "bytes32",
                                "value": "0x4061e8ae4207343a0e11b687633f43176cf1ef6309011db9b4a435bb7678c651"
                            }
                        ],
                        "signature": "sha256hash(bytes)"
                    },
                    "errorInfo": "",
                    "fromAddress": "0xae191ca19f0f8e21d754c6cab99107ed62b6fe53",
                    "gasUsed": 132,
                    "id": 10,
                    "methodDecoded": true,
                    "operation": "STATICCALL",
                    "output": "0x4061e8ae4207343a0e11b687633f43176cf1ef6309011db9b4a435bb7678c651",
                    "revert": false,
                    "revertMessage": "",
                    "selector": "0x00000000",
                    "status": true,
                    "value": "0"
                },
                "nodeType": 0
            },
            "11": {
                "invocation": {
                    "address": "0xfed1b640633fd0a4d77315d229918ab1f6e612f9",
                    "callData": "0x",
                    "decodedMethod": null,
                    "errorInfo": "",
                    "fromAddress": "0xae191ca19f0f8e21d754c6cab99107ed62b6fe53",
                    "gasUsed": 62,
                    "id": 11,
                    "methodDecoded": false,
                    "operation": "CALL",
                    "output": "",
                    "revert": false,
                    "revertMessage": "",
                    "selector": "fallback",
                    "status": true,
                    "value": "0.616570327552986514"
                },
                "nodeType": 0
            },
            "12": {
                "invocation": {
                    "address": "0x72e901f1bb2bfa2339326dfb90c5cec911e2ba3c",
                    "callData": "0x000000000000000000000000fed1b640633fd0a4d77315d229918ab1f6e612f90000000000000000000000000000000000000000000000000000000000000001",
                    "decodedMethod": {
                        "callParams": [
                            {
                                "name": "to",
                                "type": "address",
                                "value": "0xfed1b640633fd0a4d77315d229918ab1f6e612f9"
                            },
                            {
                                "name": "_mintAmount",
                                "type": "uint256",
                                "value": "1"
                            }
                        ],
                        "constructorArguments": "",
                        "name": "reward",
                        "returnParams": [],
                        "signature": "reward(address,uint256)"
                    },
                    "errorInfo": "",
                    "fromAddress": "0xae191ca19f0f8e21d754c6cab99107ed62b6fe53",
                    "gasUsed": 549059,
                    "id": 12,
                    "methodDecoded": true,
                    "operation": "CALL",
                    "output": "",
                    "revert": false,
                    "revertMessage": "",
                    "selector": "0x21670f22",
                    "status": true,
                    "value": "0"
                },
                "nodeType": 0
            },
            "13": {
                "event": {
                    "contract": "0x72e901f1bb2bfa2339326dfb90c5cec911e2ba3c",
                    "decodedLog": {
                        "name": "Transfer",
                        "params": [
                            {
                                "name": "from",
                                "type": "address",
                                "value": "0x0000000000000000000000000000000000000000"
                            },
                            {
                                "name": "to",
                                "type": "address",
                                "value": "0xfed1b640633fd0a4d77315d229918ab1f6e612f9"
                            },
                            {
                                "decimalAvailable": true,
                                "name": "tokenId",
                                "type": "uint256",
                                "value": "633"
                            }
                        ],
                        "signature": "Transfer(address,address,uint256)"
                    },
                    "id": 13,
                    "logData": "0x",
                    "logDecoded": true,
                    "operation": "EVENT",
                    "revert": false,
                    "status": true,
                    "topics": [
                        "0xddf252ad1be2c89b69c2b068fc378daa952ba7f163c4a11628f55a4df523b3ef",
                        "0x0000000000000000000000000000000000000000000000000000000000000000",
                        "0x000000000000000000000000fed1b640633fd0a4d77315d229918ab1f6e612f9",
                        "0x0000000000000000000000000000000000000000000000000000000000000279"
                    ]
                },
                "nodeType": 1
            },
            "14": {
                "invocation": {
                    "address": "0xfed1b640633fd0a4d77315d229918ab1f6e612f9",
                    "callData": "0x000000000000000000000000ae191ca19f0f8e21d754c6cab99107ed62b6fe530000000000000000000000000000000000000000000000000000000000000000000000000000000000000000000000000000000000000000000000000000027900000000000000000000000000000000000000000000000000000000000000800000000000000000000000000000000000000000000000000000000000000000",
                    "decodedMethod": {
                        "callParams": [
                            {
                                "name": "",
                                "type": "address",
                                "value": "0xae191ca19f0f8e21d754c6cab99107ed62b6fe53"
                            },
                            {
                                "name": "",
                                "type": "address",
                                "value": "0x0000000000000000000000000000000000000000"
                            },
                            {
                                "name": "",
                                "type": "uint256",
                                "value": "633"
                            },
                            {
                                "name": "",
                                "type": "bytes",
                                "value": "0x"
                            }
                        ],
                        "constructorArguments": "",
                        "name": "onERC721Received",
                        "returnParams": [
                            {
                                "name": "",
                                "type": "bytes4",
                                "value": "0x150b7a02"
                            }
                        ],
                        "signature": "onERC721Received(address,address,uint256,bytes)"
                    },
                    "errorInfo": "",
                    "fromAddress": "0x72e901f1bb2bfa2339326dfb90c5cec911e2ba3c",
                    "gasUsed": 432370,
                    "id": 14,
                    "methodDecoded": true,
                    "operation": "CALL",
                    "output": "0x150b7a0200000000000000000000000000000000000000000000000000000000",
                    "revert": false,
                    "revertMessage": "",
                    "selector": "0x150b7a02",
                    "status": true,
                    "value": "0"
                },
                "nodeType": 0
            },
            "15": {
                "invocation": {
                    "address": "0xae191ca19f0f8e21d754c6cab99107ed62b6fe53",
                    "callData": "0x0000000000000000000000000000000000000000000000000000000000000001000000000000000000000000fed1b640633fd0a4d77315d229918ab1f6e612f900000000000000000000000000000000000000000000000004473fb91c6bc6c9000000000000000000000000000000000000000000000000000000000000000100000000000000000000000000000000000000000000cd5e19e98606ca01974600000000000000000000000000000000000000000000000000000000000000e00000000000000000000000006ee709bf229c7c2303128e88225128784c801ce1000000000000000000000000000000000000000000000000000000000000003557454c434f4d45544f5448554e444552425241574c524f554c455454454e4f57594f5557494e54484553484f4f54494e4747414d450000000000000000000000",
                    "decodedMethod": {
                        "callParams": [
                            {
                                "name": "_ID",
                                "type": "uint256",
                                "value": "1"
                            },
                            {
                                "name": "_player",
                                "type": "address",
                                "value": "0xfed1b640633fd0a4d77315d229918ab1f6e612f9"
                            },
                            {
                                "name": "_amount",
                                "type": "uint256",
                                "value": "308,285,163,776,493,257"
                            },
                            {
                                "name": "_rewardStatus",
                                "type": "bool",
                                "value": true
                            },
                            {
                                "name": "_x",
                                "type": "uint256",
                                "value": "969,820,990,102,090,205,468,486"
                            },
                            {
                                "name": "name",
                                "type": "string",
                                "value": "WELCOMETOTHUNDERBRAWLROULETTENOWYOUWINTHESHOOTINGGAME"
                            },
                            {
                                "name": "_add",
                                "type": "address",
                                "value": "0x6ee709bf229c7c2303128e88225128784c801ce1"
                            }
                        ],
                        "constructorArguments": "",
                        "name": "claimReward",
                        "returnParams": [],
                        "signature": "claimReward(uint256,address,uint256,bool,uint256,string,address)"
                    },
                    "errorInfo": "",
                    "fromAddress": "0xfed1b640633fd0a4d77315d229918ab1f6e612f9",
                    "gasUsed": 425041,
                    "id": 15,
                    "methodDecoded": true,
                    "operation": "CALL",
                    "output": "",
                    "revert": false,
                    "revertMessage": "",
                    "selector": "0x011b51d5",
                    "status": true,
                    "value": "0"
                },
                "nodeType": 0
            },
            "16": {
                "invocation": {
                    "address": "0x0000000000000000000000000000000000000002",
                    "callData": "0x000000000000000000000000000000000000cd5e19e98606ca01974600000000000000000000000000000000000000000000000000000000000000600000000000000000000000006ee709bf229c7c2303128e88225128784c801ce1000000000000000000000000000000000000000000000000000000000000003557454c434f4d45544f5448554e444552425241574c524f554c455454454e4f57594f5557494e54484553484f4f54494e4747414d450000000000000000000000",
                    "decodedMethod": {
                        "callParams": [
                            {
                                "name": "data",
                                "type": "bytes",
                                "value": "0x00000000000000000000000000000000000000000000cd5e19e98606ca01974600000000000000000000000000000000000000000000000000000000000000600000000000000000000000006ee709bf229c7c2303128e88225128784c801ce1000000000000000000000000000000000000000000000000000000000000003557454c434f4d45544f5448554e444552425241574c524f554c455454454e4f57594f5557494e54484553484f4f54494e4747414d450000000000000000000000"
                            }
                        ],
                        "constructorArguments": "",
                        "name": "sha256hash",
                        "returnParams": [
                            {
                                "name": "hash",
                                "type": "bytes32",
                                "value": "0x4061e8ae4207343a0e11b687633f43176cf1ef6309011db9b4a435bb7678c651"
                            }
                        ],
                        "signature": "sha256hash(bytes)"
                    },
                    "errorInfo": "",
                    "fromAddress": "0xae191ca19f0f8e21d754c6cab99107ed62b6fe53",
                    "gasUsed": 132,
                    "id": 16,
                    "methodDecoded": true,
                    "operation": "STATICCALL",
                    "output": "0x4061e8ae4207343a0e11b687633f43176cf1ef6309011db9b4a435bb7678c651",
                    "revert": false,
                    "revertMessage": "",
                    "selector": "0x00000000",
                    "status": true,
                    "value": "0"
                },
                "nodeType": 0
            },
            "17": {
                "invocation": {
                    "address": "0xfed1b640633fd0a4d77315d229918ab1f6e612f9",
                    "callData": "0x",
                    "decodedMethod": null,
                    "errorInfo": "",
                    "fromAddress": "0xae191ca19f0f8e21d754c6cab99107ed62b6fe53",
                    "gasUsed": 62,
                    "id": 17,
                    "methodDecoded": false,
                    "operation": "CALL",
                    "output": "",
                    "revert": false,
                    "revertMessage": "",
                    "selector": "fallback",
                    "status": true,
                    "value": "0.616570327552986514"
                },
                "nodeType": 0
            },
            "18": {
                "invocation": {
                    "address": "0x72e901f1bb2bfa2339326dfb90c5cec911e2ba3c",
                    "callData": "0x000000000000000000000000fed1b640633fd0a4d77315d229918ab1f6e612f90000000000000000000000000000000000000000000000000000000000000001",
                    "decodedMethod": {
                        "callParams": [
                            {
                                "name": "to",
                                "type": "address",
                                "value": "0xfed1b640633fd0a4d77315d229918ab1f6e612f9"
                            },
                            {
                                "name": "_mintAmount",
                                "type": "uint256",
                                "value": "1"
                            }
                        ],
                        "constructorArguments": "",
                        "name": "reward",
                        "returnParams": [],
                        "signature": "reward(address,uint256)"
                    },
                    "errorInfo": "",
                    "fromAddress": "0xae191ca19f0f8e21d754c6cab99107ed62b6fe53",
                    "gasUsed": 407366,
                    "id": 18,
                    "methodDecoded": true,
                    "operation": "CALL",
                    "output": "",
                    "revert": false,
                    "revertMessage": "",
                    "selector": "0x21670f22",
                    "status": true,
                    "value": "0"
                },
                "nodeType": 0
            },
            "19": {
                "event": {
                    "contract": "0x72e901f1bb2bfa2339326dfb90c5cec911e2ba3c",
                    "decodedLog": {
                        "name": "Transfer",
                        "params": [
                            {
                                "name": "from",
                                "type": "address",
                                "value": "0x0000000000000000000000000000000000000000"
                            },
                            {
                                "name": "to",
                                "type": "address",
                                "value": "0xfed1b640633fd0a4d77315d229918ab1f6e612f9"
                            },
                            {
                                "decimalAvailable": true,
                                "name": "tokenId",
                                "type": "uint256",
                                "value": "634"
                            }
                        ],
                        "signature": "Transfer(address,address,uint256)"
                    },
                    "id": 19,
                    "logData": "0x",
                    "logDecoded": true,
                    "operation": "EVENT",
                    "revert": false,
                    "status": true,
                    "topics": [
                        "0xddf252ad1be2c89b69c2b068fc378daa952ba7f163c4a11628f55a4df523b3ef",
                        "0x0000000000000000000000000000000000000000000000000000000000000000",
                        "0x000000000000000000000000fed1b640633fd0a4d77315d229918ab1f6e612f9",
                        "0x000000000000000000000000000000000000000000000000000000000000027a"
                    ]
                },
                "nodeType": 1
            },
            "2": {
                "invocation": {
                    "address": "0x0000000000000000000000000000000000000002",
                    "callData": "0x00000000000000000000000000000023eb45bc3239b196147e963fce00000000000000000000000000000000000000000000000000000000000000600000000000000000000000006ee709bf229c7c2303128e88225128784c801ce10000000000000000000000000000000000000000000000000000000000000033484154454655434b494e474841434b455253544845594e4556455243414e4841434b54484953494841544550524556494f555300000000000000000000000000",
                    "decodedMethod": {
                        "callParams": [
                            {
                                "name": "data",
                                "type": "bytes",
                                "value": "0x0000000000000000000000000000000000000023eb45bc3239b196147e963fce00000000000000000000000000000000000000000000000000000000000000600000000000000000000000006ee709bf229c7c2303128e88225128784c801ce10000000000000000000000000000000000000000000000000000000000000033484154454655434b494e474841434b455253544845594e4556455243414e4841434b54484953494841544550524556494f555300000000000000000000000000"
                            }
                        ],
                        "constructorArguments": "",
                        "name": "sha256hash",
                        "returnParams": [
                            {
                                "name": "hash",
                                "type": "bytes32",
                                "value": "0x52ed2f0b7486dfed2ec4abef928f81bc612c7564373fe2b9d42e74ff21d18265"
                            }
                        ],
                        "signature": "sha256hash(bytes)"
                    },
                    "errorInfo": "",
                    "fromAddress": "0xae191ca19f0f8e21d754c6cab99107ed62b6fe53",
                    "gasUsed": 132,
                    "id": 2,
                    "methodDecoded": true,
                    "operation": "STATICCALL",
                    "output": "0x52ed2f0b7486dfed2ec4abef928f81bc612c7564373fe2b9d42e74ff21d18265",
                    "revert": false,
                    "revertMessage": "",
                    "selector": "0x00000000",
                    "status": true,
                    "value": "0"
                },
                "nodeType": 0
            },
            "20": {
                "invocation": {
                    "address": "0xfed1b640633fd0a4d77315d229918ab1f6e612f9",
                    "callData": "0x000000000000000000000000ae191ca19f0f8e21d754c6cab99107ed62b6fe530000000000000000000000000000000000000000000000000000000000000000000000000000000000000000000000000000000000000000000000000000027a00000000000000000000000000000000000000000000000000000000000000800000000000000000000000000000000000000000000000000000000000000000",
                    "decodedMethod": {
                        "callParams": [
                            {
                                "name": "",
                                "type": "address",
                                "value": "0xae191ca19f0f8e21d754c6cab99107ed62b6fe53"
                            },
                            {
                                "name": "",
                                "type": "address",
                                "value": "0x0000000000000000000000000000000000000000"
                            },
                            {
                                "name": "",
                                "type": "uint256",
                                "value": "634"
                            },
                            {
                                "name": "",
                                "type": "bytes",
                                "value": "0x"
                            }
                        ],
                        "constructorArguments": "",
                        "name": "onERC721Received",
                        "returnParams": [
                            {
                                "name": "",
                                "type": "bytes4",
                                "value": "0x150b7a02"
                            }
                        ],
                        "signature": "onERC721Received(address,address,uint256,bytes)"
                    },
                    "errorInfo": "",
                    "fromAddress": "0x72e901f1bb2bfa2339326dfb90c5cec911e2ba3c",
                    "gasUsed": 290677,
                    "id": 20,
                    "methodDecoded": true,
                    "operation": "CALL",
                    "output": "0x150b7a0200000000000000000000000000000000000000000000000000000000",
                    "revert": false,
                    "revertMessage": "",
                    "selector": "0x150b7a02",
                    "status": true,
                    "value": "0"
                },
                "nodeType": 0
            },
            "21": {
                "invocation": {
                    "address": "0xae191ca19f0f8e21d754c6cab99107ed62b6fe53",
                    "callData": "0x0000000000000000000000000000000000000000000000000000000000000001000000000000000000000000fed1b640633fd0a4d77315d229918ab1f6e612f900000000000000000000000000000000000000000000000004473fb91c6bc6c9000000000000000000000000000000000000000000000000000000000000000100000000000000000000000000000000000000000000cd5e19e98606ca01974600000000000000000000000000000000000000000000000000000000000000e00000000000000000000000006ee709bf229c7c2303128e88225128784c801ce1000000000000000000000000000000000000000000000000000000000000003557454c434f4d45544f5448554e444552425241574c524f554c455454454e4f57594f5557494e54484553484f4f54494e4747414d450000000000000000000000",
                    "decodedMethod": {
                        "callParams": [
                            {
                                "name": "_ID",
                                "type": "uint256",
                                "value": "1"
                            },
                            {
                                "name": "_player",
                                "type": "address",
                                "value": "0xfed1b640633fd0a4d77315d229918ab1f6e612f9"
                            },
                            {
                                "name": "_amount",
                                "type": "uint256",
                                "value": "308,285,163,776,493,257"
                            },
                            {
                                "name": "_rewardStatus",
                                "type": "bool",
                                "value": true
                            },
                            {
                                "name": "_x",
                                "type": "uint256",
                                "value": "969,820,990,102,090,205,468,486"
                            },
                            {
                                "name": "name",
                                "type": "string",
                                "value": "WELCOMETOTHUNDERBRAWLROULETTENOWYOUWINTHESHOOTINGGAME"
                            },
                            {
                                "name": "_add",
                                "type": "address",
                                "value": "0x6ee709bf229c7c2303128e88225128784c801ce1"
                            }
                        ],
                        "constructorArguments": "",
                        "name": "claimReward",
                        "returnParams": [],
                        "signature": "claimReward(uint256,address,uint256,bool,uint256,string,address)"
                    },
                    "errorInfo": "",
                    "fromAddress": "0xfed1b640633fd0a4d77315d229918ab1f6e612f9",
                    "gasUsed": 283348,
                    "id": 21,
                    "methodDecoded": true,
                    "operation": "CALL",
                    "output": "",
                    "revert": false,
                    "revertMessage": "",
                    "selector": "0x011b51d5",
                    "status": true,
                    "value": "0"
                },
                "nodeType": 0
            },
            "22": {
                "invocation": {
                    "address": "0x0000000000000000000000000000000000000002",
                    "callData": "0x000000000000000000000000000000000000cd5e19e98606ca01974600000000000000000000000000000000000000000000000000000000000000600000000000000000000000006ee709bf229c7c2303128e88225128784c801ce1000000000000000000000000000000000000000000000000000000000000003557454c434f4d45544f5448554e444552425241574c524f554c455454454e4f57594f5557494e54484553484f4f54494e4747414d450000000000000000000000",
                    "decodedMethod": {
                        "callParams": [
                            {
                                "name": "data",
                                "type": "bytes",
                                "value": "0x00000000000000000000000000000000000000000000cd5e19e98606ca01974600000000000000000000000000000000000000000000000000000000000000600000000000000000000000006ee709bf229c7c2303128e88225128784c801ce1000000000000000000000000000000000000000000000000000000000000003557454c434f4d45544f5448554e444552425241574c524f554c455454454e4f57594f5557494e54484553484f4f54494e4747414d450000000000000000000000"
                            }
                        ],
                        "constructorArguments": "",
                        "name": "sha256hash",
                        "returnParams": [
                            {
                                "name": "hash",
                                "type": "bytes32",
                                "value": "0x4061e8ae4207343a0e11b687633f43176cf1ef6309011db9b4a435bb7678c651"
                            }
                        ],
                        "signature": "sha256hash(bytes)"
                    },
                    "errorInfo": "",
                    "fromAddress": "0xae191ca19f0f8e21d754c6cab99107ed62b6fe53",
                    "gasUsed": 132,
                    "id": 22,
                    "methodDecoded": true,
                    "operation": "STATICCALL",
                    "output": "0x4061e8ae4207343a0e11b687633f43176cf1ef6309011db9b4a435bb7678c651",
                    "revert": false,
                    "revertMessage": "",
                    "selector": "0x00000000",
                    "status": true,
                    "value": "0"
                },
                "nodeType": 0
            },
            "23": {
                "invocation": {
                    "address": "0xfed1b640633fd0a4d77315d229918ab1f6e612f9",
                    "callData": "0x",
                    "decodedMethod": null,
                    "errorInfo": "",
                    "fromAddress": "0xae191ca19f0f8e21d754c6cab99107ed62b6fe53",
                    "gasUsed": 62,
                    "id": 23,
                    "methodDecoded": false,
                    "operation": "CALL",
                    "output": "",
                    "revert": false,
                    "revertMessage": "",
                    "selector": "fallback",
                    "status": true,
                    "value": "0.616570327552986514"
                },
                "nodeType": 0
            },
            "24": {
                "invocation": {
                    "address": "0x72e901f1bb2bfa2339326dfb90c5cec911e2ba3c",
                    "callData": "0x000000000000000000000000fed1b640633fd0a4d77315d229918ab1f6e612f90000000000000000000000000000000000000000000000000000000000000001",
                    "decodedMethod": {
                        "callParams": [
                            {
                                "name": "to",
                                "type": "address",
                                "value": "0xfed1b640633fd0a4d77315d229918ab1f6e612f9"
                            },
                            {
                                "name": "_mintAmount",
                                "type": "uint256",
                                "value": "1"
                            }
                        ],
                        "constructorArguments": "",
                        "name": "reward",
                        "returnParams": [],
                        "signature": "reward(address,uint256)"
                    },
                    "errorInfo": "",
                    "fromAddress": "0xae191ca19f0f8e21d754c6cab99107ed62b6fe53",
                    "gasUsed": 265673,
                    "id": 24,
                    "methodDecoded": true,
                    "operation": "CALL",
                    "output": "",
                    "revert": false,
                    "revertMessage": "",
                    "selector": "0x21670f22",
                    "status": true,
                    "value": "0"
                },
                "nodeType": 0
            },
            "25": {
                "event": {
                    "contract": "0x72e901f1bb2bfa2339326dfb90c5cec911e2ba3c",
                    "decodedLog": {
                        "name": "Transfer",
                        "params": [
                            {
                                "name": "from",
                                "type": "address",
                                "value": "0x0000000000000000000000000000000000000000"
                            },
                            {
                                "name": "to",
                                "type": "address",
                                "value": "0xfed1b640633fd0a4d77315d229918ab1f6e612f9"
                            },
                            {
                                "decimalAvailable": true,
                                "name": "tokenId",
                                "type": "uint256",
                                "value": "635"
                            }
                        ],
                        "signature": "Transfer(address,address,uint256)"
                    },
                    "id": 25,
                    "logData": "0x",
                    "logDecoded": true,
                    "operation": "EVENT",
                    "revert": false,
                    "status": true,
                    "topics": [
                        "0xddf252ad1be2c89b69c2b068fc378daa952ba7f163c4a11628f55a4df523b3ef",
                        "0x0000000000000000000000000000000000000000000000000000000000000000",
                        "0x000000000000000000000000fed1b640633fd0a4d77315d229918ab1f6e612f9",
                        "0x000000000000000000000000000000000000000000000000000000000000027b"
                    ]
                },
                "nodeType": 1
            },
            "26": {
                "invocation": {
                    "address": "0xfed1b640633fd0a4d77315d229918ab1f6e612f9",
                    "callData": "0x000000000000000000000000ae191ca19f0f8e21d754c6cab99107ed62b6fe530000000000000000000000000000000000000000000000000000000000000000000000000000000000000000000000000000000000000000000000000000027b00000000000000000000000000000000000000000000000000000000000000800000000000000000000000000000000000000000000000000000000000000000",
                    "decodedMethod": {
                        "callParams": [
                            {
                                "name": "",
                                "type": "address",
                                "value": "0xae191ca19f0f8e21d754c6cab99107ed62b6fe53"
                            },
                            {
                                "name": "",
                                "type": "address",
                                "value": "0x0000000000000000000000000000000000000000"
                            },
                            {
                                "name": "",
                                "type": "uint256",
                                "value": "635"
                            },
                            {
                                "name": "",
                                "type": "bytes",
                                "value": "0x"
                            }
                        ],
                        "constructorArguments": "",
                        "name": "onERC721Received",
                        "returnParams": [
                            {
                                "name": "",
                                "type": "bytes4",
                                "value": "0x150b7a02"
                            }
                        ],
                        "signature": "onERC721Received(address,address,uint256,bytes)"
                    },
                    "errorInfo": "",
                    "fromAddress": "0x72e901f1bb2bfa2339326dfb90c5cec911e2ba3c",
                    "gasUsed": 148984,
                    "id": 26,
                    "methodDecoded": true,
                    "operation": "CALL",
                    "output": "0x150b7a0200000000000000000000000000000000000000000000000000000000",
                    "revert": false,
                    "revertMessage": "",
                    "selector": "0x150b7a02",
                    "status": true,
                    "value": "0"
                },
                "nodeType": 0
            },
            "27": {
                "invocation": {
                    "address": "0xae191ca19f0f8e21d754c6cab99107ed62b6fe53",
                    "callData": "0x0000000000000000000000000000000000000000000000000000000000000001000000000000000000000000fed1b640633fd0a4d77315d229918ab1f6e612f900000000000000000000000000000000000000000000000004473fb91c6bc6c9000000000000000000000000000000000000000000000000000000000000000100000000000000000000000000000000000000000000cd5e19e98606ca01974600000000000000000000000000000000000000000000000000000000000000e00000000000000000000000006ee709bf229c7c2303128e88225128784c801ce1000000000000000000000000000000000000000000000000000000000000003557454c434f4d45544f5448554e444552425241574c524f554c455454454e4f57594f5557494e54484553484f4f54494e4747414d450000000000000000000000",
                    "decodedMethod": {
                        "callParams": [
                            {
                                "name": "_ID",
                                "type": "uint256",
                                "value": "1"
                            },
                            {
                                "name": "_player",
                                "type": "address",
                                "value": "0xfed1b640633fd0a4d77315d229918ab1f6e612f9"
                            },
                            {
                                "name": "_amount",
                                "type": "uint256",
                                "value": "308,285,163,776,493,257"
                            },
                            {
                                "name": "_rewardStatus",
                                "type": "bool",
                                "value": true
                            },
                            {
                                "name": "_x",
                                "type": "uint256",
                                "value": "969,820,990,102,090,205,468,486"
                            },
                            {
                                "name": "name",
                                "type": "string",
                                "value": "WELCOMETOTHUNDERBRAWLROULETTENOWYOUWINTHESHOOTINGGAME"
                            },
                            {
                                "name": "_add",
                                "type": "address",
                                "value": "0x6ee709bf229c7c2303128e88225128784c801ce1"
                            }
                        ],
                        "constructorArguments": "",
                        "name": "claimReward",
                        "returnParams": [],
                        "signature": "claimReward(uint256,address,uint256,bool,uint256,string,address)"
                    },
                    "errorInfo": "",
                    "fromAddress": "0xfed1b640633fd0a4d77315d229918ab1f6e612f9",
                    "gasUsed": 141655,
                    "id": 27,
                    "methodDecoded": true,
                    "operation": "CALL",
                    "output": "",
                    "revert": false,
                    "revertMessage": "",
                    "selector": "0x011b51d5",
                    "status": true,
                    "value": "0"
                },
                "nodeType": 0
            },
            "28": {
                "invocation": {
                    "address": "0x0000000000000000000000000000000000000002",
                    "callData": "0x000000000000000000000000000000000000cd5e19e98606ca01974600000000000000000000000000000000000000000000000000000000000000600000000000000000000000006ee709bf229c7c2303128e88225128784c801ce1000000000000000000000000000000000000000000000000000000000000003557454c434f4d45544f5448554e444552425241574c524f554c455454454e4f57594f5557494e54484553484f4f54494e4747414d450000000000000000000000",
                    "decodedMethod": {
                        "callParams": [
                            {
                                "name": "data",
                                "type": "bytes",
                                "value": "0x00000000000000000000000000000000000000000000cd5e19e98606ca01974600000000000000000000000000000000000000000000000000000000000000600000000000000000000000006ee709bf229c7c2303128e88225128784c801ce1000000000000000000000000000000000000000000000000000000000000003557454c434f4d45544f5448554e444552425241574c524f554c455454454e4f57594f5557494e54484553484f4f54494e4747414d450000000000000000000000"
                            }
                        ],
                        "constructorArguments": "",
                        "name": "sha256hash",
                        "returnParams": [
                            {
                                "name": "hash",
                                "type": "bytes32",
                                "value": "0x4061e8ae4207343a0e11b687633f43176cf1ef6309011db9b4a435bb7678c651"
                            }
                        ],
                        "signature": "sha256hash(bytes)"
                    },
                    "errorInfo": "",
                    "fromAddress": "0xae191ca19f0f8e21d754c6cab99107ed62b6fe53",
                    "gasUsed": 132,
                    "id": 28,
                    "methodDecoded": true,
                    "operation": "STATICCALL",
                    "output": "0x4061e8ae4207343a0e11b687633f43176cf1ef6309011db9b4a435bb7678c651",
                    "revert": false,
                    "revertMessage": "",
                    "selector": "0x00000000",
                    "status": true,
                    "value": "0"
                },
                "nodeType": 0
            },
            "29": {
                "invocation": {
                    "address": "0xfed1b640633fd0a4d77315d229918ab1f6e612f9",
                    "callData": "0x",
                    "decodedMethod": null,
                    "errorInfo": "",
                    "fromAddress": "0xae191ca19f0f8e21d754c6cab99107ed62b6fe53",
                    "gasUsed": 62,
                    "id": 29,
                    "methodDecoded": false,
                    "operation": "CALL",
                    "output": "",
                    "revert": false,
                    "revertMessage": "",
                    "selector": "fallback",
                    "status": true,
                    "value": "0.616570327552986514"
                },
                "nodeType": 0
            },
            "3": {
                "invocation": {
                    "address": "0xae191ca19f0f8e21d754c6cab99107ed62b6fe53",
                    "callData": "0x0000000000000000000000000000000000000000000000000000000000000001000000000000000000000000fed1b640633fd0a4d77315d229918ab1f6e612f900000000000000000000000000000000000000000000000004473fb91c6bc6c9000000000000000000000000000000000000000000000000000000000000000100000000000000000000000000000000000000000000cd5e19e98606ca01974600000000000000000000000000000000000000000000000000000000000000e00000000000000000000000006ee709bf229c7c2303128e88225128784c801ce1000000000000000000000000000000000000000000000000000000000000003557454c434f4d45544f5448554e444552425241574c524f554c455454454e4f57594f5557494e54484553484f4f54494e4747414d450000000000000000000000",
                    "decodedMethod": {
                        "callParams": [
                            {
                                "name": "_ID",
                                "type": "uint256",
                                "value": "1"
                            },
                            {
                                "name": "_player",
                                "type": "address",
                                "value": "0xfed1b640633fd0a4d77315d229918ab1f6e612f9"
                            },
                            {
                                "name": "_amount",
                                "type": "uint256",
                                "value": "308,285,163,776,493,257"
                            },
                            {
                                "name": "_rewardStatus",
                                "type": "bool",
                                "value": true
                            },
                            {
                                "name": "_x",
                                "type": "uint256",
                                "value": "969,820,990,102,090,205,468,486"
                            },
                            {
                                "name": "name",
                                "type": "string",
                                "value": "WELCOMETOTHUNDERBRAWLROULETTENOWYOUWINTHESHOOTINGGAME"
                            },
                            {
                                "name": "_add",
                                "type": "address",
                                "value": "0x6ee709bf229c7c2303128e88225128784c801ce1"
                            }
                        ],
                        "constructorArguments": "",
                        "name": "claimReward",
                        "returnParams": [],
                        "signature": "claimReward(uint256,address,uint256,bool,uint256,string,address)"
                    },
                    "errorInfo": "",
                    "fromAddress": "0xfed1b640633fd0a4d77315d229918ab1f6e612f9",
                    "gasUsed": 712627,
                    "id": 3,
                    "methodDecoded": true,
                    "operation": "CALL",
                    "output": "",
                    "revert": false,
                    "revertMessage": "",
                    "selector": "0x011b51d5",
                    "status": true,
                    "value": "0"
                },
                "nodeType": 0
            },
            "30": {
                "invocation": {
                    "address": "0x72e901f1bb2bfa2339326dfb90c5cec911e2ba3c",
                    "callData": "0x000000000000000000000000fed1b640633fd0a4d77315d229918ab1f6e612f90000000000000000000000000000000000000000000000000000000000000001",
                    "decodedMethod": {
                        "callParams": [
                            {
                                "name": "to",
                                "type": "address",
                                "value": "0xfed1b640633fd0a4d77315d229918ab1f6e612f9"
                            },
                            {
                                "name": "_mintAmount",
                                "type": "uint256",
                                "value": "1"
                            }
                        ],
                        "constructorArguments": "",
                        "name": "reward",
                        "returnParams": [],
                        "signature": "reward(address,uint256)"
                    },
                    "errorInfo": "",
                    "fromAddress": "0xae191ca19f0f8e21d754c6cab99107ed62b6fe53",
                    "gasUsed": 123980,
                    "id": 30,
                    "methodDecoded": true,
                    "operation": "CALL",
                    "output": "",
                    "revert": false,
                    "revertMessage": "",
                    "selector": "0x21670f22",
                    "status": true,
                    "value": "0"
                },
                "nodeType": 0
            },
            "31": {
                "event": {
                    "contract": "0x72e901f1bb2bfa2339326dfb90c5cec911e2ba3c",
                    "decodedLog": {
                        "name": "Transfer",
                        "params": [
                            {
                                "name": "from",
                                "type": "address",
                                "value": "0x0000000000000000000000000000000000000000"
                            },
                            {
                                "name": "to",
                                "type": "address",
                                "value": "0xfed1b640633fd0a4d77315d229918ab1f6e612f9"
                            },
                            {
                                "decimalAvailable": true,
                                "name": "tokenId",
                                "type": "uint256",
                                "value": "636"
                            }
                        ],
                        "signature": "Transfer(address,address,uint256)"
                    },
                    "id": 31,
                    "logData": "0x",
                    "logDecoded": true,
                    "operation": "EVENT",
                    "revert": false,
                    "status": true,
                    "topics": [
                        "0xddf252ad1be2c89b69c2b068fc378daa952ba7f163c4a11628f55a4df523b3ef",
                        "0x0000000000000000000000000000000000000000000000000000000000000000",
                        "0x000000000000000000000000fed1b640633fd0a4d77315d229918ab1f6e612f9",
                        "0x000000000000000000000000000000000000000000000000000000000000027c"
                    ]
                },
                "nodeType": 1
            },
            "32": {
                "invocation": {
                    "address": "0xfed1b640633fd0a4d77315d229918ab1f6e612f9",
                    "callData": "0x000000000000000000000000ae191ca19f0f8e21d754c6cab99107ed62b6fe530000000000000000000000000000000000000000000000000000000000000000000000000000000000000000000000000000000000000000000000000000027c00000000000000000000000000000000000000000000000000000000000000800000000000000000000000000000000000000000000000000000000000000000",
                    "decodedMethod": {
                        "callParams": [
                            {
                                "name": "",
                                "type": "address",
                                "value": "0xae191ca19f0f8e21d754c6cab99107ed62b6fe53"
                            },
                            {
                                "name": "",
                                "type": "address",
                                "value": "0x0000000000000000000000000000000000000000"
                            },
                            {
                                "name": "",
                                "type": "uint256",
                                "value": "636"
                            },
                            {
                                "name": "",
                                "type": "bytes",
                                "value": "0x"
                            }
                        ],
                        "constructorArguments": "",
                        "name": "onERC721Received",
                        "returnParams": [
                            {
                                "name": "",
                                "type": "bytes4",
                                "value": "0x150b7a02"
                            }
                        ],
                        "signature": "onERC721Received(address,address,uint256,bytes)"
                    },
                    "errorInfo": "",
                    "fromAddress": "0x72e901f1bb2bfa2339326dfb90c5cec911e2ba3c",
                    "gasUsed": 3091,
                    "id": 32,
                    "methodDecoded": true,
                    "operation": "CALL",
                    "output": "0x150b7a0200000000000000000000000000000000000000000000000000000000",
                    "revert": false,
                    "revertMessage": "",
                    "selector": "0x150b7a02",
                    "status": true,
                    "value": "0"
                },
                "nodeType": 0
            },
            "33": {
                "invocation": {
                    "address": "0xbc62b9ba570ad783d21e5eb006f3665d3f6bba93",
                    "callData": "0x",
                    "decodedMethod": null,
                    "errorInfo": "",
                    "fromAddress": "0xfed1b640633fd0a4d77315d229918ab1f6e612f9",
                    "gasUsed": 0,
                    "id": 33,
                    "methodDecoded": false,
                    "operation": "CALL",
                    "output": "",
                    "revert": false,
                    "revertMessage": "",
                    "selector": "fallback",
                    "status": true,
                    "value": "3.08285163776493257"
                },
                "nodeType": 0
            },
            "4": {
                "invocation": {
                    "address": "0x0000000000000000000000000000000000000002",
                    "callData": "0x000000000000000000000000000000000000cd5e19e98606ca01974600000000000000000000000000000000000000000000000000000000000000600000000000000000000000006ee709bf229c7c2303128e88225128784c801ce1000000000000000000000000000000000000000000000000000000000000003557454c434f4d45544f5448554e444552425241574c524f554c455454454e4f57594f5557494e54484553484f4f54494e4747414d450000000000000000000000",
                    "decodedMethod": {
                        "callParams": [
                            {
                                "name": "data",
                                "type": "bytes",
                                "value": "0x00000000000000000000000000000000000000000000cd5e19e98606ca01974600000000000000000000000000000000000000000000000000000000000000600000000000000000000000006ee709bf229c7c2303128e88225128784c801ce1000000000000000000000000000000000000000000000000000000000000003557454c434f4d45544f5448554e444552425241574c524f554c455454454e4f57594f5557494e54484553484f4f54494e4747414d450000000000000000000000"
                            }
                        ],
                        "constructorArguments": "",
                        "name": "sha256hash",
                        "returnParams": [
                            {
                                "name": "hash",
                                "type": "bytes32",
                                "value": "0x4061e8ae4207343a0e11b687633f43176cf1ef6309011db9b4a435bb7678c651"
                            }
                        ],
                        "signature": "sha256hash(bytes)"
                    },
                    "errorInfo": "",
                    "fromAddress": "0xae191ca19f0f8e21d754c6cab99107ed62b6fe53",
                    "gasUsed": 132,
                    "id": 4,
                    "methodDecoded": true,
                    "operation": "STATICCALL",
                    "output": "0x4061e8ae4207343a0e11b687633f43176cf1ef6309011db9b4a435bb7678c651",
                    "revert": false,
                    "revertMessage": "",
                    "selector": "0x00000000",
                    "status": true,
                    "value": "0"
                },
                "nodeType": 0
            },
            "5": {
                "invocation": {
                    "address": "0xfed1b640633fd0a4d77315d229918ab1f6e612f9",
                    "callData": "0x",
                    "decodedMethod": null,
                    "errorInfo": "",
                    "fromAddress": "0xae191ca19f0f8e21d754c6cab99107ed62b6fe53",
                    "gasUsed": 62,
                    "id": 5,
                    "methodDecoded": false,
                    "operation": "CALL",
                    "output": "",
                    "revert": false,
                    "revertMessage": "",
                    "selector": "fallback",
                    "status": true,
                    "value": "0.616570327552986514"
                },
                "nodeType": 0
            },
            "6": {
                "invocation": {
                    "address": "0x72e901f1bb2bfa2339326dfb90c5cec911e2ba3c",
                    "callData": "0x000000000000000000000000fed1b640633fd0a4d77315d229918ab1f6e612f90000000000000000000000000000000000000000000000000000000000000001",
                    "decodedMethod": {
                        "callParams": [
                            {
                                "name": "to",
                                "type": "address",
                                "value": "0xfed1b640633fd0a4d77315d229918ab1f6e612f9"
                            },
                            {
                                "name": "_mintAmount",
                                "type": "uint256",
                                "value": "1"
                            }
                        ],
                        "constructorArguments": "",
                        "name": "reward",
                        "returnParams": [],
                        "signature": "reward(address,uint256)"
                    },
                    "errorInfo": "",
                    "fromAddress": "0xae191ca19f0f8e21d754c6cab99107ed62b6fe53",
                    "gasUsed": 694952,
                    "id": 6,
                    "methodDecoded": true,
                    "operation": "CALL",
                    "output": "",
                    "revert": false,
                    "revertMessage": "",
                    "selector": "0x21670f22",
                    "status": true,
                    "value": "0"
                },
                "nodeType": 0
            },
            "7": {
                "event": {
                    "contract": "0x72e901f1bb2bfa2339326dfb90c5cec911e2ba3c",
                    "decodedLog": {
                        "name": "Transfer",
                        "params": [
                            {
                                "name": "from",
                                "type": "address",
                                "value": "0x0000000000000000000000000000000000000000"
                            },
                            {
                                "name": "to",
                                "type": "address",
                                "value": "0xfed1b640633fd0a4d77315d229918ab1f6e612f9"
                            },
                            {
                                "decimalAvailable": true,
                                "name": "tokenId",
                                "type": "uint256",
                                "value": "632"
                            }
                        ],
                        "signature": "Transfer(address,address,uint256)"
                    },
                    "id": 7,
                    "logData": "0x",
                    "logDecoded": true,
                    "operation": "EVENT",
                    "revert": false,
                    "status": true,
                    "topics": [
                        "0xddf252ad1be2c89b69c2b068fc378daa952ba7f163c4a11628f55a4df523b3ef",
                        "0x0000000000000000000000000000000000000000000000000000000000000000",
                        "0x000000000000000000000000fed1b640633fd0a4d77315d229918ab1f6e612f9",
                        "0x0000000000000000000000000000000000000000000000000000000000000278"
                    ]
                },
                "nodeType": 1
            },
            "8": {
                "invocation": {
                    "address": "0xfed1b640633fd0a4d77315d229918ab1f6e612f9",
                    "callData": "0x000000000000000000000000ae191ca19f0f8e21d754c6cab99107ed62b6fe530000000000000000000000000000000000000000000000000000000000000000000000000000000000000000000000000000000000000000000000000000027800000000000000000000000000000000000000000000000000000000000000800000000000000000000000000000000000000000000000000000000000000000",
                    "decodedMethod": {
                        "callParams": [
                            {
                                "name": "",
                                "type": "address",
                                "value": "0xae191ca19f0f8e21d754c6cab99107ed62b6fe53"
                            },
                            {
                                "name": "",
                                "type": "address",
                                "value": "0x0000000000000000000000000000000000000000"
                            },
                            {
                                "name": "",
                                "type": "uint256",
                                "value": "632"
                            },
                            {
                                "name": "",
                                "type": "bytes",
                                "value": "0x"
                            }
                        ],
                        "constructorArguments": "",
                        "name": "onERC721Received",
                        "returnParams": [
                            {
                                "name": "",
                                "type": "bytes4",
                                "value": "0x150b7a02"
                            }
                        ],
                        "signature": "onERC721Received(address,address,uint256,bytes)"
                    },
                    "errorInfo": "",
                    "fromAddress": "0x72e901f1bb2bfa2339326dfb90c5cec911e2ba3c",
                    "gasUsed": 574063,
                    "id": 8,
                    "methodDecoded": true,
                    "operation": "CALL",
                    "output": "0x150b7a0200000000000000000000000000000000000000000000000000000000",
                    "revert": false,
                    "revertMessage": "",
                    "selector": "0x150b7a02",
                    "status": true,
                    "value": "0"
                },
                "nodeType": 0
            },
            "9": {
                "invocation": {
                    "address": "0xae191ca19f0f8e21d754c6cab99107ed62b6fe53",
                    "callData": "0x0000000000000000000000000000000000000000000000000000000000000001000000000000000000000000fed1b640633fd0a4d77315d229918ab1f6e612f900000000000000000000000000000000000000000000000004473fb91c6bc6c9000000000000000000000000000000000000000000000000000000000000000100000000000000000000000000000000000000000000cd5e19e98606ca01974600000000000000000000000000000000000000000000000000000000000000e00000000000000000000000006ee709bf229c7c2303128e88225128784c801ce1000000000000000000000000000000000000000000000000000000000000003557454c434f4d45544f5448554e444552425241574c524f554c455454454e4f57594f5557494e54484553484f4f54494e4747414d450000000000000000000000",
                    "decodedMethod": {
                        "callParams": [
                            {
                                "name": "_ID",
                                "type": "uint256",
                                "value": "1"
                            },
                            {
                                "name": "_player",
                                "type": "address",
                                "value": "0xfed1b640633fd0a4d77315d229918ab1f6e612f9"
                            },
                            {
                                "name": "_amount",
                                "type": "uint256",
                                "value": "308,285,163,776,493,257"
                            },
                            {
                                "name": "_rewardStatus",
                                "type": "bool",
                                "value": true
                            },
                            {
                                "name": "_x",
                                "type": "uint256",
                                "value": "969,820,990,102,090,205,468,486"
                            },
                            {
                                "name": "name",
                                "type": "string",
                                "value": "WELCOMETOTHUNDERBRAWLROULETTENOWYOUWINTHESHOOTINGGAME"
                            },
                            {
                                "name": "_add",
                                "type": "address",
                                "value": "0x6ee709bf229c7c2303128e88225128784c801ce1"
                            }
                        ],
                        "constructorArguments": "",
                        "name": "claimReward",
                        "returnParams": [],
                        "signature": "claimReward(uint256,address,uint256,bool,uint256,string,address)"
                    },
                    "errorInfo": "",
                    "fromAddress": "0xfed1b640633fd0a4d77315d229918ab1f6e612f9",
                    "gasUsed": 566734,
                    "id": 9,
                    "methodDecoded": true,
                    "operation": "CALL",
                    "output": "",
                    "revert": false,
                    "revertMessage": "",
                    "selector": "0x011b51d5",
                    "status": true,
                    "value": "0"
                },
                "nodeType": 0
            }
        },
        "gasFlame": [
            {
                "children": [
                    {
                        "children": [
                            {
                                "children": [],
                                "depth": 0,
                                "name": "Initial Gas",
                                "value": 21632
                            },
                            {
                                "children": [
                                    {
                                        "children": [
                                            {
                                                "children": [],
                                                "depth": 2,
                                                "name": "sha256hash",
                                                "value": 132
                                            }
                                        ],
                                        "depth": 1,
                                        "name": "shoot",
                                        "value": 78475
                                    },
                                    {
                                        "children": [
                                            {
                                                "children": [],
                                                "depth": 2,
                                                "name": "sha256hash",
                                                "value": 132
                                            },
                                            {
                                                "children": [],
                                                "depth": 2,
                                                "name": "fallback",
                                                "value": 62
                                            },
                                            {
                                                "children": [
                                                    {
                                                        "children": [
                                                            {
                                                                "children": [
                                                                    {
                                                                        "children": [],
                                                                        "depth": 5,
                                                                        "name": "sha256hash",
                                                                        "value": 132
                                                                    },
                                                                    {
                                                                        "children": [],
                                                                        "depth": 5,
                                                                        "name": "fallback",
                                                                        "value": 62
                                                                    },
                                                                    {
                                                                        "children": [
                                                                            {
                                                                                "children": [
                                                                                    {
                                                                                        "children": [
                                                                                            {
                                                                                                "children": [],
                                                                                                "depth": 8,
                                                                                                "name": "sha256hash",
                                                                                                "value": 132
                                                                                            },
                                                                                            {
                                                                                                "children": [],
                                                                                                "depth": 8,
                                                                                                "name": "fallback",
                                                                                                "value": 62
                                                                                            },
                                                                                            {
                                                                                                "children": [
                                                                                                    {
                                                                                                        "children": [
                                                                                                            {
                                                                                                                "children": [
                                                                                                                    {
                                                                                                                        "children": [],
                                                                                                                        "depth": 11,
                                                                                                                        "name": "sha256hash",
                                                                                                                        "value": 132
                                                                                                                    },
                                                                                                                    {
                                                                                                                        "children": [],
                                                                                                                        "depth": 11,
                                                                                                                        "name": "fallback",
                                                                                                                        "value": 62
                                                                                                                    },
                                                                                                                    {
                                                                                                                        "children": [
                                                                                                                            {
                                                                                                                                "children": [
                                                                                                                                    {
                                                                                                                                        "children": [
                                                                                                                                            {
                                                                                                                                                "children": [],
                                                                                                                                                "depth": 14,
                                                                                                                                                "name": "sha256hash",
                                                                                                                                                "value": 132
                                                                                                                                            },
                                                                                                                                            {
                                                                                                                                                "children": [],
                                                                                                                                                "depth": 14,
                                                                                                                                                "name": "fallback",
                                                                                                                                                "value": 62
                                                                                                                                            },
                                                                                                                                            {
                                                                                                                                                "children": [
                                                                                                                                                    {
                                                                                                                                                        "children": [],
                                                                                                                                                        "depth": 15,
                                                                                                                                                        "name": "onERC721Received",
                                                                                                                                                        "value": 3091
                                                                                                                                                    }
                                                                                                                                                ],
                                                                                                                                                "depth": 14,
                                                                                                                                                "name": "reward",
                                                                                                                                                "value": 123980
                                                                                                                                            }
                                                                                                                                        ],
                                                                                                                                        "depth": 13,
                                                                                                                                        "name": "claimReward",
                                                                                                                                        "value": 141655
                                                                                                                                    }
                                                                                                                                ],
                                                                                                                                "depth": 12,
                                                                                                                                "name": "onERC721Received",
                                                                                                                                "value": 148984
                                                                                                                            }
                                                                                                                        ],
                                                                                                                        "depth": 11,
                                                                                                                        "name": "reward",
                                                                                                                        "value": 265673
                                                                                                                    }
                                                                                                                ],
                                                                                                                "depth": 10,
                                                                                                                "name": "claimReward",
                                                                                                                "value": 283348
                                                                                                            }
                                                                                                        ],
                                                                                                        "depth": 9,
                                                                                                        "name": "onERC721Received",
                                                                                                        "value": 290677
                                                                                                    }
                                                                                                ],
                                                                                                "depth": 8,
                                                                                                "name": "reward",
                                                                                                "value": 407366
                                                                                            }
                                                                                        ],
                                                                                        "depth": 7,
                                                                                        "name": "claimReward",
                                                                                        "value": 425041
                                                                                    }
                                                                                ],
                                                                                "depth": 6,
                                                                                "name": "onERC721Received",
                                                                                "value": 432370
                                                                            }
                                                                        ],
                                                                        "depth": 5,
                                                                        "name": "reward",
                                                                        "value": 549059
                                                                    }
                                                                ],
                                                                "depth": 4,
                                                                "name": "claimReward",
                                                                "value": 566734
                                                            }
                                                        ],
                                                        "depth": 3,
                                                        "name": "onERC721Received",
                                                        "value": 574063
                                                    }
                                                ],
                                                "depth": 2,
                                                "name": "reward",
                                                "value": 694952
                                            }
                                        ],
                                        "depth": 1,
                                        "name": "claimReward",
                                        "value": 712627
                                    },
                                    {
                                        "children": [],
                                        "depth": 1,
                                        "name": "fallback",
                                        "value": 0
                                    }
                                ],
                                "depth": 0,
                                "name": "Executed Gas",
                                "value": 895819
                            }
                        ],
                        "depth": -1,
                        "name": "Actual Gas Used",
                        "value": 874851
                    },
                    {
                        "children": [],
                        "depth": -1,
                        "name": "Refunded Gas",
                        "value": 42600
                    }
                ],
                "depth": -2,
                "name": "Total Gas",
                "value": 917451
            }
        ],
        "isConfirmed": true,
        "mainTrace": [
            {
                "children": [
                    {
                        "children": [
                            {
                                "children": [
                                    {
                                        "children": [],
                                        "depth": 2,
                                        "id": 2,
                                        "order": 2
                                    }
                                ],
                                "depth": 1,
                                "id": 1,
                                "order": 1
                            },
                            {
                                "children": [
                                    {
                                        "children": [],
                                        "depth": 2,
                                        "id": 4,
                                        "order": 4
                                    },
                                    {
                                        "children": [],
                                        "depth": 2,
                                        "id": 5,
                                        "order": 5
                                    },
                                    {
                                        "children": [
                                            {
                                                "children": [],
                                                "depth": 3,
                                                "id": 7,
                                                "order": 7
                                            },
                                            {
                                                "children": [
                                                    {
                                                        "children": [
                                                            {
                                                                "children": [],
                                                                "depth": 5,
                                                                "id": 10,
                                                                "order": 10
                                                            },
                                                            {
                                                                "children": [],
                                                                "depth": 5,
                                                                "id": 11,
                                                                "order": 11
                                                            },
                                                            {
                                                                "children": [
                                                                    {
                                                                        "children": [],
                                                                        "depth": 6,
                                                                        "id": 13,
                                                                        "order": 13
                                                                    },
                                                                    {
                                                                        "children": [
                                                                            {
                                                                                "children": [
                                                                                    {
                                                                                        "children": [],
                                                                                        "depth": 8,
                                                                                        "id": 16,
                                                                                        "order": 16
                                                                                    },
                                                                                    {
                                                                                        "children": [],
                                                                                        "depth": 8,
                                                                                        "id": 17,
                                                                                        "order": 17
                                                                                    },
                                                                                    {
                                                                                        "children": [
                                                                                            {
                                                                                                "children": [],
                                                                                                "depth": 9,
                                                                                                "id": 19,
                                                                                                "order": 19
                                                                                            },
                                                                                            {
                                                                                                "children": [
                                                                                                    {
                                                                                                        "children": [
                                                                                                            {
                                                                                                                "children": [],
                                                                                                                "depth": 11,
                                                                                                                "id": 22,
                                                                                                                "order": 22
                                                                                                            },
                                                                                                            {
                                                                                                                "children": [],
                                                                                                                "depth": 11,
                                                                                                                "id": 23,
                                                                                                                "order": 23
                                                                                                            },
                                                                                                            {
                                                                                                                "children": [
                                                                                                                    {
                                                                                                                        "children": [],
                                                                                                                        "depth": 12,
                                                                                                                        "id": 25,
                                                                                                                        "order": 25
                                                                                                                    },
                                                                                                                    {
                                                                                                                        "children": [
                                                                                                                            {
                                                                                                                                "children": [
                                                                                                                                    {
                                                                                                                                        "children": [],
                                                                                                                                        "depth": 14,
                                                                                                                                        "id": 28,
                                                                                                                                        "order": 28
                                                                                                                                    },
                                                                                                                                    {
                                                                                                                                        "children": [],
                                                                                                                                        "depth": 14,
                                                                                                                                        "id": 29,
                                                                                                                                        "order": 29
                                                                                                                                    },
                                                                                                                                    {
                                                                                                                                        "children": [
                                                                                                                                            {
                                                                                                                                                "children": [],
                                                                                                                                                "depth": 15,
                                                                                                                                                "id": 31,
                                                                                                                                                "order": 31
                                                                                                                                            },
                                                                                                                                            {
                                                                                                                                                "children": [],
                                                                                                                                                "depth": 15,
                                                                                                                                                "id": 32,
                                                                                                                                                "order": 32
                                                                                                                                            }
                                                                                                                                        ],
                                                                                                                                        "depth": 14,
                                                                                                                                        "id": 30,
                                                                                                                                        "order": 30
                                                                                                                                    }
                                                                                                                                ],
                                                                                                                                "depth": 13,
                                                                                                                                "id": 27,
                                                                                                                                "order": 27
                                                                                                                            }
                                                                                                                        ],
                                                                                                                        "depth": 12,
                                                                                                                        "id": 26,
                                                                                                                        "order": 26
                                                                                                                    }
                                                                                                                ],
                                                                                                                "depth": 11,
                                                                                                                "id": 24,
                                                                                                                "order": 24
                                                                                                            }
                                                                                                        ],
                                                                                                        "depth": 10,
                                                                                                        "id": 21,
                                                                                                        "order": 21
                                                                                                    }
                                                                                                ],
                                                                                                "depth": 9,
                                                                                                "id": 20,
                                                                                                "order": 20
                                                                                            }
                                                                                        ],
                                                                                        "depth": 8,
                                                                                        "id": 18,
                                                                                        "order": 18
                                                                                    }
                                                                                ],
                                                                                "depth": 7,
                                                                                "id": 15,
                                                                                "order": 15
                                                                            }
                                                                        ],
                                                                        "depth": 6,
                                                                        "id": 14,
                                                                        "order": 14
                                                                    }
                                                                ],
                                                                "depth": 5,
                                                                "id": 12,
                                                                "order": 12
                                                            }
                                                        ],
                                                        "depth": 4,
                                                        "id": 9,
                                                        "order": 9
                                                    }
                                                ],
                                                "depth": 3,
                                                "id": 8,
                                                "order": 8
                                            }
                                        ],
                                        "depth": 2,
                                        "id": 6,
                                        "order": 6
                                    }
                                ],
                                "depth": 1,
                                "id": 3,
                                "order": 3
                            },
                            {
                                "children": [],
                                "depth": 1,
                                "id": 33,
                                "order": 33
                            }
                        ],
                        "depth": 0,
                        "id": 0,
                        "order": 0
                    }
                ],
                "depth": -1,
                "id": -1,
                "order": -1
            }
        ],
        "mainTraceNodeCount": 34,
        "parentIdMap": {
            "0": -1,
            "1": 0,
            "10": 9,
            "11": 9,
            "12": 9,
            "13": 12,
            "14": 12,
            "15": 14,
            "16": 15,
            "17": 15,
            "18": 15,
            "19": 18,
            "2": 1,
            "20": 18,
            "21": 20,
            "22": 21,
            "23": 21,
            "24": 21,
            "25": 24,
            "26": 24,
            "27": 26,
            "28": 27,
            "29": 27,
            "3": 0,
            "30": 27,
            "31": 30,
            "32": 30,
            "33": 0,
            "4": 3,
            "5": 3,
            "6": 3,
            "7": 6,
            "8": 6,
            "9": 8
        },
        "tidyTrace": [
            {
                "children": [
                    {
                        "children": [
                            {
                                "children": [],
                                "depth": 1,
                                "id": 1,
                                "order": 1
                            },
                            {
                                "children": [
                                    {
                                        "children": [],
                                        "depth": 2,
                                        "id": 5,
                                        "order": 5
                                    },
                                    {
                                        "children": [
                                            {
                                                "children": [],
                                                "depth": 3,
                                                "id": 7,
                                                "order": 7
                                            },
                                            {
                                                "children": [
                                                    {
                                                        "children": [
                                                            {
                                                                "children": [],
                                                                "depth": 5,
                                                                "id": 11,
                                                                "order": 11
                                                            },
                                                            {
                                                                "children": [
                                                                    {
                                                                        "children": [],
                                                                        "depth": 6,
                                                                        "id": 13,
                                                                        "order": 13
                                                                    },
                                                                    {
                                                                        "children": [
                                                                            {
                                                                                "children": [
                                                                                    {
                                                                                        "children": [],
                                                                                        "depth": 8,
                                                                                        "id": 17,
                                                                                        "order": 17
                                                                                    },
                                                                                    {
                                                                                        "children": [
                                                                                            {
                                                                                                "children": [],
                                                                                                "depth": 9,
                                                                                                "id": 19,
                                                                                                "order": 19
                                                                                            },
                                                                                            {
                                                                                                "children": [
                                                                                                    {
                                                                                                        "children": [
                                                                                                            {
                                                                                                                "children": [],
                                                                                                                "depth": 11,
                                                                                                                "id": 23,
                                                                                                                "order": 23
                                                                                                            },
                                                                                                            {
                                                                                                                "children": [
                                                                                                                    {
                                                                                                                        "children": [],
                                                                                                                        "depth": 12,
                                                                                                                        "id": 25,
                                                                                                                        "order": 25
                                                                                                                    },
                                                                                                                    {
                                                                                                                        "children": [
                                                                                                                            {
                                                                                                                                "children": [
                                                                                                                                    {
                                                                                                                                        "children": [],
                                                                                                                                        "depth": 14,
                                                                                                                                        "id": 29,
                                                                                                                                        "order": 29
                                                                                                                                    },
                                                                                                                                    {
                                                                                                                                        "children": [
                                                                                                                                            {
                                                                                                                                                "children": [],
                                                                                                                                                "depth": 15,
                                                                                                                                                "id": 31,
                                                                                                                                                "order": 31
                                                                                                                                            },
                                                                                                                                            {
                                                                                                                                                "children": [],
                                                                                                                                                "depth": 15,
                                                                                                                                                "id": 32,
                                                                                                                                                "order": 32
                                                                                                                                            }
                                                                                                                                        ],
                                                                                                                                        "depth": 14,
                                                                                                                                        "id": 30,
                                                                                                                                        "order": 30
                                                                                                                                    }
                                                                                                                                ],
                                                                                                                                "depth": 13,
                                                                                                                                "id": 27,
                                                                                                                                "order": 27
                                                                                                                            }
                                                                                                                        ],
                                                                                                                        "depth": 12,
                                                                                                                        "id": 26,
                                                                                                                        "order": 26
                                                                                                                    }
                                                                                                                ],
                                                                                                                "depth": 11,
                                                                                                                "id": 24,
                                                                                                                "order": 24
                                                                                                            }
                                                                                                        ],
                                                                                                        "depth": 10,
                                                                                                        "id": 21,
                                                                                                        "order": 21
                                                                                                    }
                                                                                                ],
                                                                                                "depth": 9,
                                                                                                "id": 20,
                                                                                                "order": 20
                                                                                            }
                                                                                        ],
                                                                                        "depth": 8,
                                                                                        "id": 18,
                                                                                        "order": 18
                                                                                    }
                                                                                ],
                                                                                "depth": 7,
                                                                                "id": 15,
                                                                                "order": 15
                                                                            }
                                                                        ],
                                                                        "depth": 6,
                                                                        "id": 14,
                                                                        "order": 14
                                                                    }
                                                                ],
                                                                "depth": 5,
                                                                "id": 12,
                                                                "order": 12
                                                            }
                                                        ],
                                                        "depth": 4,
                                                        "id": 9,
                                                        "order": 9
                                                    }
                                                ],
                                                "depth": 3,
                                                "id": 8,
                                                "order": 8
                                            }
                                        ],
                                        "depth": 2,
                                        "id": 6,
                                        "order": 6
                                    }
                                ],
                                "depth": 1,
                                "id": 3,
                                "order": 3
                            },
                            {
                                "children": [],
                                "depth": 1,
                                "id": 33,
                                "order": 33
                            }
                        ],
                        "depth": 0,
                        "id": 0,
                        "order": 0
                    }
                ],
                "depth": -1,
                "id": -1,
                "order": -1
            }
        ],
        "tidyTraceNodeCount": 28
    },
    "state_change": {
        "stateChanges": [
            {
                "address": "0x72e901f1bb2bfa2339326dfb90c5cec911e2ba3c",
                "erc": "ERC-721",
                "slots": [
                    {
                        "current": "0x000000000000000000000000fed1b640633fd0a4d77315d229918ab1f6e612f9",
                        "key": "0x6a9afcd50c789d96a0a6e315abec2b94f73c2169e77113ca82c652ca2c38f843",
                        "prev": "0x0000000000000000000000000000000000000000000000000000000000000000"
                    },
                    {
                        "current": "0x0000000000000000000000000000000000000000000000000000000000000278",
                        "key": "0x0e82f05d41e6a21a73f7f44bf6a72fe2628195dc575e054764b3b8179696b72e",
                        "prev": "0x0000000000000000000000000000000000000000000000000000000000000000"
                    },
                    {
                        "current": "0x000000000000000000000000000000000000000000000000000000000000027a",
                        "key": "0x6cbd94547f5bea96259b905157a063ea2f81a1f1267533a382090ded16d9cb3f",
                        "prev": "0x0000000000000000000000000000000000000000000000000000000000000000"
                    },
                    {
                        "current": "0x000000000000000000000000000000000000000000000000000000000000027b",
                        "key": "0xf3f7a9fe364faab93b216da50a3214154f22a0a2b415b23a84c8169e8b63715d",
                        "prev": "0x0000000000000000000000000000000000000000000000000000000000000000"
                    },
                    {
                        "current": "0x000000000000000000000000fed1b640633fd0a4d77315d229918ab1f6e612f9",
                        "key": "0x8963b0591f53e712238a19bc8fc31f59d59c09bd1e5a99bf0ea4e10fae4da7f7",
                        "prev": "0x0000000000000000000000000000000000000000000000000000000000000000"
                    },
                    {
                        "current": "0x0000000000000000000000000000000000000000000000000000000000000279",
                        "key": "0xf3f7a9fe364faab93b216da50a3214154f22a0a2b415b23a84c8169e8b63715b",
                        "prev": "0x0000000000000000000000000000000000000000000000000000000000000000"
                    },
                    {
                        "current": "0x0000000000000000000000000000000000000000000000000000000000000279",
                        "key": "0x147022fd3faf24746a4cdd84e260fd0efa05fccc630b00fb3c25785849cb25ae",
                        "prev": "0x0000000000000000000000000000000000000000000000000000000000000000"
                    },
                    {
                        "current": "0x0000000000000000000000000000000000000000000000000000000000000277",
                        "key": "0x6b9301fc73b82135ba6e8aa20133244817c036270bfbf02bce2de15b5568ea60",
                        "prev": "0x0000000000000000000000000000000000000000000000000000000000000000"
                    },
                    {
                        "current": "0x0000000000000000000000000000000000000000000000000000000000000278",
                        "key": "0xf3f7a9fe364faab93b216da50a3214154f22a0a2b415b23a84c8169e8b63715a",
                        "prev": "0x0000000000000000000000000000000000000000000000000000000000000000"
                    },
                    {
                        "current": "0x000000000000000000000000fed1b640633fd0a4d77315d229918ab1f6e612f9",
                        "key": "0xc3480addce3ac6525f46b6c2a0e062f673a5fc349d18a84352fb307b749d6762",
                        "prev": "0x0000000000000000000000000000000000000000000000000000000000000000"
                    },
                    {
                        "current": "0x000000000000000000000000fed1b640633fd0a4d77315d229918ab1f6e612f9",
                        "key": "0x0edde601ffef0d547213e7c1bfbf148a239fbc3b0276c550d64d9a2dbf162706",
                        "prev": "0x0000000000000000000000000000000000000000000000000000000000000000"
                    },
                    {
                        "current": "0x0000000000000000000000000000000000000000000000000000000000000003",
                        "key": "0x41ca562816e149d900da3146a0813ae030ed9055753f7abddb659a5884fc58ad",
                        "prev": "0x0000000000000000000000000000000000000000000000000000000000000000"
                    },
                    {
                        "current": "0x0000000000000000000000000000000000000000000000000000000000000004",
                        "key": "0xf44781e4f7dbe3327bcaab3c2932ea7bf67ff19b7e6dab853e22b77a3cbfaa9f",
                        "prev": "0x0000000000000000000000000000000000000000000000000000000000000000"
                    },
                    {
                        "current": "0x000000000000000000000000000000000000000000000000000000000000027c",
                        "key": "0x0000000000000000000000000000000000000000000000000000000000000008",
                        "prev": "0x0000000000000000000000000000000000000000000000000000000000000277"
                    },
                    {
                        "current": "0x0000000000000000000000000000000000000000000000000000000000000278",
                        "key": "0x02f80fc14cc90c4d561dc04eae5fd533b7fcf998d0cf2f9e23692588d2f0ef2e",
                        "prev": "0x0000000000000000000000000000000000000000000000000000000000000000"
                    },
                    {
                        "current": "0x0000000000000000000000000000000000000000000000000000000000000005",
                        "key": "0xe3ecaf7e544f4a359f16f701bbfe2c5d7eab7470b11caef7263427d17fbfcbb3",
                        "prev": "0x0000000000000000000000000000000000000000000000000000000000000000"
                    },
                    {
                        "current": "0x0000000000000000000000000000000000000000000000000000000000000001",
                        "key": "0x53df2fbae4f44c7cb692b3624411aa0bd761f5e4591160533107f93e88243815",
                        "prev": "0x0000000000000000000000000000000000000000000000000000000000000000"
                    },
                    {
                        "current": "0x000000000000000000000000000000000000000000000000000000000000027a",
                        "key": "0xcc7e811e661e9e78021a5e7693bdfa00b42ab7597a435e06027bc62b4fa2b890",
                        "prev": "0x0000000000000000000000000000000000000000000000000000000000000000"
                    },
                    {
                        "current": "0x0000000000000000000000000000000000000000000000000000000000000002",
                        "key": "0x6c77dd5b244f43783b77334765911f5adb49047c531fd7dd05e000ec71b0fa78",
                        "prev": "0x0000000000000000000000000000000000000000000000000000000000000000"
                    },
                    {
                        "current": "0x0000000000000000000000000000000000000000000000000000000000000024",
                        "key": "0x0000000000000000000000000000000000000000000000000000000000000015",
                        "prev": "0x000000000000000000000000000000000000000000000000000000000000001f"
                    },
                    {
                        "current": "0x0000000000000000000000000000000000000000000000000000000000000279",
                        "key": "0x2cd556dc9a64f0c92e29e0ac29d0c9ebf179c67264b85029893c4e62877d84cf",
                        "prev": "0x0000000000000000000000000000000000000000000000000000000000000000"
                    },
                    {
                        "current": "0x000000000000000000000000fed1b640633fd0a4d77315d229918ab1f6e612f9",
                        "key": "0xaf52cd92af34c8136e55487a5d481ac9cb6021f77e6724b3c6bb4ed080098823",
                        "prev": "0x0000000000000000000000000000000000000000000000000000000000000000"
                    },
                    {
                        "current": "0x000000000000000000000000000000000000000000000000000000000000027c",
                        "key": "0xc748bfad74faa961e802631d9de6678217d8f9b983b3e6b8a338fc900295700f",
                        "prev": "0x0000000000000000000000000000000000000000000000000000000000000000"
                    },
                    {
                        "current": "0x000000000000000000000000000000000000000000000000000000000000027a",
                        "key": "0xf3f7a9fe364faab93b216da50a3214154f22a0a2b415b23a84c8169e8b63715c",
                        "prev": "0x0000000000000000000000000000000000000000000000000000000000000000"
                    },
                    {
                        "current": "0x000000000000000000000000000000000000000000000000000000000000027b",
                        "key": "0xf7cdd3ca0d282c5cf21f630afc2646c2974694db22c751899c9deb2f908c9326",
                        "prev": "0x0000000000000000000000000000000000000000000000000000000000000000"
                    },
                    {
                        "current": "0x000000000000000000000000000000000000000000000000000000000000027b",
                        "key": "0x5c840d13caeea8244e82543d7fef057bec92e31b72cf40e21ff1f783e660c388",
                        "prev": "0x0000000000000000000000000000000000000000000000000000000000000000"
                    },
                    {
                        "current": "0x000000000000000000000000000000000000000000000000000000000000027c",
                        "key": "0xf3f7a9fe364faab93b216da50a3214154f22a0a2b415b23a84c8169e8b63715e",
                        "prev": "0x0000000000000000000000000000000000000000000000000000000000000000"
                    }
                ],
                "storageVariables": [
                    {
                        "name": "_owners",
                        "type": "mapping(uint256 => address)",
                        "value": {
                            "pairs": [
                                {
                                    "key": "632",
                                    "value": {
                                        "current": "0xfed1b640633fd0a4d77315d229918ab1f6e612f9",
                                        "prev": "0x0000000000000000000000000000000000000000",
                                        "typeTag": 1
                                    }
                                },
                                {
                                    "key": "633",
                                    "value": {
                                        "current": "0xfed1b640633fd0a4d77315d229918ab1f6e612f9",
                                        "prev": "0x0000000000000000000000000000000000000000",
                                        "typeTag": 1
                                    }
                                },
                                {
                                    "key": "634",
                                    "value": {
                                        "current": "0xfed1b640633fd0a4d77315d229918ab1f6e612f9",
                                        "prev": "0x0000000000000000000000000000000000000000",
                                        "typeTag": 1
                                    }
                                },
                                {
                                    "key": "635",
                                    "value": {
                                        "current": "0xfed1b640633fd0a4d77315d229918ab1f6e612f9",
                                        "prev": "0x0000000000000000000000000000000000000000",
                                        "typeTag": 1
                                    }
                                },
                                {
                                    "key": "636",
                                    "value": {
                                        "current": "0xfed1b640633fd0a4d77315d229918ab1f6e612f9",
                                        "prev": "0x0000000000000000000000000000000000000000",
                                        "typeTag": 1
                                    }
                                }
                            ],
                            "typeTag": 4
                        }
                    },
                    {
                        "name": "_allTokensIndex",
                        "type": "mapping(uint256 => uint256)",
                        "value": {
                            "pairs": [
                                {
                                    "key": "632",
                                    "value": {
                                        "current": "631",
                                        "prev": "0",
                                        "typeTag": 1
                                    }
                                },
                                {
                                    "key": "633",
                                    "value": {
                                        "current": "632",
                                        "prev": "0",
                                        "typeTag": 1
                                    }
                                },
                                {
                                    "key": "634",
                                    "value": {
                                        "current": "633",
                                        "prev": "0",
                                        "typeTag": 1
                                    }
                                },
                                {
                                    "key": "635",
                                    "value": {
                                        "current": "634",
                                        "prev": "0",
                                        "typeTag": 1
                                    }
                                },
                                {
                                    "key": "636",
                                    "value": {
                                        "current": "635",
                                        "prev": "0",
                                        "typeTag": 1
                                    }
                                }
                            ],
                            "typeTag": 4
                        }
                    },
                    {
                        "name": "_ownedTokens",
                        "type": "mapping(address => mapping(uint256 => uint256))",
                        "value": {
                            "pairs": [
                                {
                                    "key": "0xfed1b640633fd0a4d77315d229918ab1f6e612f9",
                                    "value": {
                                        "pairs": [
                                            {
                                                "key": "0",
                                                "value": {
                                                    "current": "632",
                                                    "prev": "0",
                                                    "typeTag": 1
                                                }
                                            },
                                            {
                                                "key": "1",
                                                "value": {
                                                    "current": "633",
                                                    "prev": "0",
                                                    "typeTag": 1
                                                }
                                            },
                                            {
                                                "key": "2",
                                                "value": {
                                                    "current": "634",
                                                    "prev": "0",
                                                    "typeTag": 1
                                                }
                                            },
                                            {
                                                "key": "3",
                                                "value": {
                                                    "current": "635",
                                                    "prev": "0",
                                                    "typeTag": 1
                                                }
                                            },
                                            {
                                                "key": "4",
                                                "value": {
                                                    "current": "636",
                                                    "prev": "0",
                                                    "typeTag": 1
                                                }
                                            }
                                        ],
                                        "typeTag": 4
                                    }
                                }
                            ],
                            "typeTag": 4
                        }
                    },
                    {
                        "name": "rewardTotal",
                        "type": "uint256",
                        "value": {
                            "current": "36",
                            "prev": "31",
                            "typeTag": 1
                        }
                    },
                    {
                        "name": "_allTokens",
                        "type": "uint256[]",
                        "value": {
                            "elemType": "uint256",
                            "elems": [
                                {
                                    "index": 631,
                                    "value": {
                                        "current": "632",
                                        "prev": "0",
                                        "typeTag": 1
                                    }
                                },
                                {
                                    "index": 632,
                                    "value": {
                                        "current": "633",
                                        "prev": "0",
                                        "typeTag": 1
                                    }
                                },
                                {
                                    "index": 633,
                                    "value": {
                                        "current": "634",
                                        "prev": "0",
                                        "typeTag": 1
                                    }
                                },
                                {
                                    "index": 634,
                                    "value": {
                                        "current": "635",
                                        "prev": "0",
                                        "typeTag": 1
                                    }
                                },
                                {
                                    "index": 635,
                                    "value": {
                                        "current": "636",
                                        "prev": "0",
                                        "typeTag": 1
                                    }
                                }
                            ],
                            "typeTag": 2
                        }
                    },
                    {
                        "name": "_balances",
                        "type": "mapping(address => uint256)",
                        "value": {
                            "pairs": [
                                {
                                    "key": "0xfed1b640633fd0a4d77315d229918ab1f6e612f9",
                                    "value": {
                                        "current": "5",
                                        "prev": "0",
                                        "typeTag": 1
                                    }
                                }
                            ],
                            "typeTag": 4
                        }
                    },
                    {
                        "name": "_ownedTokensIndex",
                        "type": "mapping(uint256 => uint256)",
                        "value": {
                            "pairs": [
                                {
                                    "key": "633",
                                    "value": {
                                        "current": "1",
                                        "prev": "0",
                                        "typeTag": 1
                                    }
                                },
                                {
                                    "key": "634",
                                    "value": {
                                        "current": "2",
                                        "prev": "0",
                                        "typeTag": 1
                                    }
                                },
                                {
                                    "key": "635",
                                    "value": {
                                        "current": "3",
                                        "prev": "0",
                                        "typeTag": 1
                                    }
                                },
                                {
                                    "key": "636",
                                    "value": {
                                        "current": "4",
                                        "prev": "0",
                                        "typeTag": 1
                                    }
                                }
                            ],
                            "typeTag": 4
                        }
                    }
                ]
            },
            {
                "address": "0xae191ca19f0f8e21d754c6cab99107ed62b6fe53",
                "erc": "",
                "slots": [
                    {
                        "current": "0x00000000000000000000000000000000000000000000000000010a5d524ae7d4",
                        "key": "0x0000000000000000000000000000000000000000000000000000000000000004",
                        "prev": "0x0000000000000000000000000000000000000000000000000000052f2279a800"
                    },
                    {
                        "current": "0x00000000000000000000000000000000000000000000000000000aa792a6d612",
                        "key": "0x0000000000000000000000000000000000000000000000000000000000000005",
                        "prev": "0x0000000000000000000000000000000000000000000000000000003515dbe800"
                    },
                    {
                        "current": "0x00000000000000000000000000000000000000000000000000000d5177508b97",
                        "key": "0x0000000000000000000000000000000000000000000000000000000000000006",
                        "prev": "0x000000000000000000000000000000000000000000000000000000425b52e200"
                    },
                    {
                        "current": "0x0000000000000000000000000000000000000000000000000000000000000003",
                        "key": "0x000000000000000000000000000000000000000000000000000000000000000b",
                        "prev": "0x0000000000000000000000000000000000000000000000000000000000000000"
                    },
                    {
                        "current": "0x00000000000000000000000000000000000000000000000000299e94dbb43937",
                        "key": "0x0000000000000000000000000000000000000000000000000000000000000003",
                        "prev": "0x0000000000000000000000000000000000000000000000000000cf5d63024000"
                    }
                ],
                "storageVariables": [
                    {
                        "name": "ownerFee",
                        "type": "uint256",
                        "value": {
                            "current": "14643545279383",
                            "prev": "285000000000",
                            "typeTag": 1
                        }
                    },
                    {
                        "name": "randomNumber",
                        "type": "uint256",
                        "value": {
                            "current": "3",
                            "prev": "0",
                            "typeTag": 1
                        }
                    },
                    {
                        "name": "playerFee",
                        "type": "uint256",
                        "value": {
                            "current": "11714836223506743",
                            "prev": "228000000000000",
                            "typeTag": 1
                        }
                    },
                    {
                        "name": "holderFee",
                        "type": "uint256",
                        "value": {
                            "current": "292870905587668",
                            "prev": "5700000000000",
                            "typeTag": 1
                        }
                    },
                    {
                        "name": "liquidityFee",
                        "type": "uint256",
                        "value": {
                            "current": "11714836223506",
                            "prev": "228000000000",
                            "typeTag": 1
                        }
                    }
                ]
            },
            {
                "address": "0xfed1b640633fd0a4d77315d229918ab1f6e612f9",
                "erc": "",
                "slots": [
                    {
                        "current": "0x0000000000000000000000000000000000000000000000000470de4df8200000",
                        "key": "0x0000000000000000000000000000000000000000000000000000000000000001",
                        "prev": "0x0000000000000000000000000000000000000000000000000000000000000000"
                    },
                    {
                        "current": "0x00000000000000000000000000000000000000000000000000299e94dbb43937",
                        "key": "0x0000000000000000000000000000000000000000000000000000000000000002",
                        "prev": "0x0000000000000000000000000000000000000000000000000000000000000000"
                    },
                    {
                        "current": "0x00000000000000000000000000000000000000000000000004473fb91c6bc6c9",
                        "key": "0x0000000000000000000000000000000000000000000000000000000000000003",
                        "prev": "0x0000000000000000000000000000000000000000000000000000000000000000"
                    }
                ],
                "storageVariables": []
            }
        ]
    }
}