{
    "balance_change": {
        "balanceChanges": []
    },
    "profile": {
        "basic_info": {
            "baseFee": "28.326649355",
            "blockNumber": 15625424,
            "callData": "0x1cff79cd000000000000000000000000badc0defafcf6d4239bdf0b66da4d7bd36fcf05a0000000000000000000000000000000000000000000000000000000000000040000000000000000000000000000000000000000000000000000000000000032000000000000000000000000000000000000000000000000000000000000000030000000000000000000000001e0447b19bb6ecfdae1e4ae1694b0c3659614e4e00000000000000000000000000000000000000000000000000000000000000000000000000000000000000000000000000000000000000000000000000000000000000000000000000000000000000000000000000000000000000000000000000000000000000000000000000000000000000000000000000000000000000e0000000000000000000000000000000000000000000000beff1ceef246ef7bd1f00000000000000000000000000000000000000000000000000000000000000010000000000000000000000000000000000000000000000000000000000000020000000000000000000000000000000000000000000000000000000000000000000000000000000000000000000000000000000000000000000000000000000000000000000000000000000006554ff0f2b6613bb2baa9a45788ad8574a805f6d000000000000000000000000c02aaa39b223fe8d0a0e5c4f27ead9083c756cc200000000000000000000000000000000000000000000000000000000000000a00000000000000000000000006554ff0f2b6613bb2baa9a45788ad8574a805f6d000000000000000000000000000000000000000000000000000000000000004000000000000000000000000000000000000000000000000000000000000000a000000000000000000000000000000000000000000000000000000000000000044798ce5b00000000000000000000000000000000000000000000000000000000000000000000000000000000000000000000000000000000000000000000000200000000000000000000000000000000000000000000000000000000000000040000000000000000000000000000000000000000000000000000000000000001000000000000000000000000000000000000000000000000000000000000000100000000000000000000000000000000000000000000000000000000000000020000000000000000000000000000000000000000000000000000000000000002",
            "debugEnable": true,
            "errorInfo": "",
            "eventCount": 3,
            "feeRecipient": "0xf2f5c73fa04406b1995e397b55c24ab1f3ea726c",
            "formatValue": "0",
            "gasLimit": 300000,
            "gasPrice": "48.326649355",
            "gasUsed": 136370,
            "intTxnCount": 7,
            "internalRevert": false,
            "internalRevertMessage": "",
            "isContractCreation": false,
            "isFlashloan": false,
            "maxFee": "56.804343732",
            "nonce": 1,
            "overwritedBlockNumber": -1,
            "priorityFee": "20",
            "receiver": "0x6554ff0f2b6613bb2baa9a45788ad8574a805f6d",
            "revertMessage": "",
            "sender": "0xb9f78307ded12112c1f09c16009e03ef4ef16612",
            "simulationEnable": true,
            "sourceTxnHash": "0x59ddcf5ee5c687af2cbf291c3ac63bf28316a8ecbb621d9f62d07fa8a5b8ef4e",
            "status": true,
            "timestamp": "2022-09-27T14:56:23Z",
            "transactionFee": "0.00659030517254135",
            "txnHash": "0x59ddcf5ee5c687af2cbf291c3ac63bf28316a8ecbb621d9f62d07fa8a5b8ef4e",
            "txnIndex": 10,
            "type": 2,
            "value": "0"
        },
        "fund_flow": [],
        "token_infos": [
            {
                "address": "0xc02aaa39b223fe8d0a0e5c4f27ead9083c756cc2",
                "decimals": 18
            },
            {
                "address": "0xeeeeeeeeeeeeeeeeeeeeeeeeeeeeeeeeeeeeeeee",
                "decimals": 18
            }
        ]
    },
    "address_label": {
        "labels": [
            {
                "address": "0xeeeeeeeeeeeeeeeeeeeeeeeeeeeeeeeeeeeeeeee",
                "label": "Ether"
            },
            {
                "address": "0xc02aaa39b223fe8d0a0e5c4f27ead9083c756cc2",
                "label": "Wrapped Ether (WETH)"
            },
            {
                "address": "0x0000000000000000000000000000000000000002",
                "label": "Precompiled"
            },
            {
                "address": "0x1e0447b19bb6ecfdae1e4ae1694b0c3659614e4e",
                "label": "dYdX: Solo Margin"
            },
            {
                "address": "0xb9f78307ded12112c1f09c16009e03ef4ef16612",
                "label": "Milady Maker Exploiter"
            },
            {
                "address": "0x56e7d4520abfecf10b38368b00723d9bd3c21ee1",
                "label": "dYdX: Operation Impl"
            },
            {
                "address": "0xbadc0defafcf6d4239bdf0b66da4d7bd36fcf05a",
                "label": "MEV Bot: 0xbaD\u202605A"
            },
            {
                "address": "0x0000000000000000000000000000000000000001",
                "label": "Precompiled"
            },
            {
                "address": "0x0000000000000000000000000000000000000003",
                "label": "Precompiled"
            },
            {
                "address": "0x0000000000000000000000000000000000000004",
                "label": "Precompiled"
            }
        ]
    },
    "trace": {
        "accountLabels": null,
        "dataMap": {
            "-1": {
                "invocation": {
                    "address": "0xb9f78307ded12112c1f09c16009e03ef4ef16612",
                    "callData": "",
                    "decodedMethod": null,
                    "errorInfo": "",
                    "fromAddress": "",
                    "gasUsed": 0,
                    "id": -1,
                    "methodDecoded": false,
                    "operation": "",
                    "output": "",
                    "revert": false,
                    "revertMessage": "",
                    "selector": "",
                    "status": false,
                    "value": ""
                },
                "nodeType": 0
            },
            "0": {
                "invocation": {
                    "address": "0x6554ff0f2b6613bb2baa9a45788ad8574a805f6d",
                    "callData": "0x000000000000000000000000badc0defafcf6d4239bdf0b66da4d7bd36fcf05a0000000000000000000000000000000000000000000000000000000000000040000000000000000000000000000000000000000000000000000000000000032000000000000000000000000000000000000000000000000000000000000000030000000000000000000000001e0447b19bb6ecfdae1e4ae1694b0c3659614e4e00000000000000000000000000000000000000000000000000000000000000000000000000000000000000000000000000000000000000000000000000000000000000000000000000000000000000000000000000000000000000000000000000000000000000000000000000000000000000000000000000000000000000e0000000000000000000000000000000000000000000000beff1ceef246ef7bd1f00000000000000000000000000000000000000000000000000000000000000010000000000000000000000000000000000000000000000000000000000000020000000000000000000000000000000000000000000000000000000000000000000000000000000000000000000000000000000000000000000000000000000000000000000000000000000006554ff0f2b6613bb2baa9a45788ad8574a805f6d000000000000000000000000c02aaa39b223fe8d0a0e5c4f27ead9083c756cc200000000000000000000000000000000000000000000000000000000000000a00000000000000000000000006554ff0f2b6613bb2baa9a45788ad8574a805f6d000000000000000000000000000000000000000000000000000000000000004000000000000000000000000000000000000000000000000000000000000000a000000000000000000000000000000000000000000000000000000000000000044798ce5b00000000000000000000000000000000000000000000000000000000000000000000000000000000000000000000000000000000000000000000000200000000000000000000000000000000000000000000000000000000000000040000000000000000000000000000000000000000000000000000000000000001000000000000000000000000000000000000000000000000000000000000000100000000000000000000000000000000000000000000000000000000000000020000000000000000000000000000000000000000000000000000000000000002",
                    "decodedMethod": {
                        "callParams": [
                            {
                                "name": "_target",
                                "type": "address",
                                "value": "0xbadc0defafcf6d4239bdf0b66da4d7bd36fcf05a"
                            },
                            {
                                "name": "_data",
                                "type": "bytes",
                                "value": "0x00000000000000000000000000000000000000000000000000000000000000030000000000000000000000001e0447b19bb6ecfdae1e4ae1694b0c3659614e4e00000000000000000000000000000000000000000000000000000000000000000000000000000000000000000000000000000000000000000000000000000000000000000000000000000000000000000000000000000000000000000000000000000000000000000000000000000000000000000000000000000000000000e0000000000000000000000000000000000000000000000beff1ceef246ef7bd1f00000000000000000000000000000000000000000000000000000000000000010000000000000000000000000000000000000000000000000000000000000020000000000000000000000000000000000000000000000000000000000000000000000000000000000000000000000000000000000000000000000000000000000000000000000000000000006554ff0f2b6613bb2baa9a45788ad8574a805f6d000000000000000000000000c02aaa39b223fe8d0a0e5c4f27ead9083c756cc200000000000000000000000000000000000000000000000000000000000000a00000000000000000000000006554ff0f2b6613bb2baa9a45788ad8574a805f6d000000000000000000000000000000000000000000000000000000000000004000000000000000000000000000000000000000000000000000000000000000a000000000000000000000000000000000000000000000000000000000000000044798ce5b00000000000000000000000000000000000000000000000000000000000000000000000000000000000000000000000000000000000000000000000200000000000000000000000000000000000000000000000000000000000000040000000000000000000000000000000000000000000000000000000000000001000000000000000000000000000000000000000000000000000000000000000100000000000000000000000000000000000000000000000000000000000000020000000000000000000000000000000000000000000000000000000000000002"
                            }
                        ],
                        "constructorArguments": "",
                        "name": "execute",
                        "returnParams": [],
                        "signature": "execute(address,bytes)"
                    },
                    "errorInfo": "",
                    "fromAddress": "0xb9f78307ded12112c1f09c16009e03ef4ef16612",
                    "gasUsed": 136370,
                    "id": 0,
                    "methodDecoded": true,
                    "operation": "CALL",
                    "output": "",
                    "revert": false,
                    "revertMessage": "",
                    "selector": "0x1cff79cd",
                    "status": true,
                    "value": "0"
                },
                "nodeType": 0
            },
            "1": {
                "invocation": {
                    "address": "0x1e0447b19bb6ecfdae1e4ae1694b0c3659614e4e",
                    "callData": "0x000000000000000000000000000000000000000000000000000000000000004000000000000000000000000000000000000000000000000000000000000000a000000000000000000000000000000000000000000000000000000000000000010000000000000000000000006554ff0f2b6613bb2baa9a45788ad8574a805f6d00000000000000000000000000000000000000000000000000000000000000010000000000000000000000000000000000000000000000000000000000000001000000000000000000000000000000000000000000000000000000000000002000000000000000000000000000000000000000000000000000000000000000080000000000000000000000000000000000000000000000000000000000000000000000000000000000000000000000000000000000000000000000000000000000000000000000000000000000000000000000000000000000000000000000000000000000000000000000000000000000000000000000000000000000000000000000000000000000000000000000000000000000000000000000000000000000000000000000000000000000000000000000000000000000000000000000000000000000000000000000000000000000000000000000000000000000000000000000000000000000000000badc0defafcf6d4239bdf0b66da4d7bd36fcf05a00000000000000000000000000000000000000000000000000000000000000000000000000000000000000000000000000000000000000000000000000000160000000000000000000000000000000000000000000000000000000000000032000000000000000000000000000000000000000000000000000000000000000030000000000000000000000001e0447b19bb6ecfdae1e4ae1694b0c3659614e4e00000000000000000000000000000000000000000000000000000000000000000000000000000000000000000000000000000000000000000000000000000000000000000000000000000000000000000000000000000000000000000000000000000000000000000000000000000000000000000000000000000000000000e0000000000000000000000000000000000000000000000beff1ceef246ef7bd1f00000000000000000000000000000000000000000000000000000000000000010000000000000000000000000000000000000000000000000000000000000020000000000000000000000000000000000000000000000000000000000000000000000000000000000000000000000000000000000000000000000000000000000000000000000000000000006554ff0f2b6613bb2baa9a45788ad8574a805f6d000000000000000000000000c02aaa39b223fe8d0a0e5c4f27ead9083c756cc200000000000000000000000000000000000000000000000000000000000000a00000000000000000000000006554ff0f2b6613bb2baa9a45788ad8574a805f6d000000000000000000000000000000000000000000000000000000000000004000000000000000000000000000000000000000000000000000000000000000a000000000000000000000000000000000000000000000000000000000000000044798ce5b00000000000000000000000000000000000000000000000000000000000000000000000000000000000000000000000000000000000000000000000200000000000000000000000000000000000000000000000000000000000000040000000000000000000000000000000000000000000000000000000000000001000000000000000000000000000000000000000000000000000000000000000100000000000000000000000000000000000000000000000000000000000000020000000000000000000000000000000000000000000000000000000000000002",
                    "decodedMethod": {
                        "callParams": [
                            {
                                "name": "accounts",
                                "type": "(address,uint256)[]",
                                "value": [
                                    [
                                        {
                                            "name": "owner",
                                            "type": "address",
                                            "value": "0x6554ff0f2b6613bb2baa9a45788ad8574a805f6d"
                                        },
                                        {
                                            "name": "number",
                                            "type": "uint256",
                                            "value": "1"
                                        }
                                    ]
                                ]
                            },
                            {
                                "name": "actions",
                                "type": "(uint8,uint256,(bool,uint8,uint8,uint256),uint256,uint256,address,uint256,bytes)[]",
                                "value": [
                                    [
                                        {
                                            "name": "actionType",
                                            "type": "uint8",
                                            "value": "8"
                                        },
                                        {
                                            "name": "accountId",
                                            "type": "uint256",
                                            "value": "0"
                                        },
                                        {
                                            "name": "amount",
                                            "type": "(bool,uint8,uint8,uint256)",
                                            "value": [
                                                {
                                                    "name": "sign",
                                                    "type": "bool",
                                                    "value": false
                                                },
                                                {
                                                    "name": "denomination",
                                                    "type": "uint8",
                                                    "value": "0"
                                                },
                                                {
                                                    "name": "ref",
                                                    "type": "uint8",
                                                    "value": "0"
                                                },
                                                {
                                                    "name": "value",
                                                    "type": "uint256",
                                                    "value": "0"
                                                }
                                            ]
                                        },
                                        {
                                            "name": "primaryMarketId",
                                            "type": "uint256",
                                            "value": "0"
                                        },
                                        {
                                            "name": "secondaryMarketId",
                                            "type": "uint256",
                                            "value": "0"
                                        },
                                        {
                                            "name": "otherAddress",
                                            "type": "address",
                                            "value": "0xbadc0defafcf6d4239bdf0b66da4d7bd36fcf05a"
                                        },
                                        {
                                            "name": "otherAccountId",
                                            "type": "uint256",
                                            "value": "0"
                                        },
                                        {
                                            "name": "data",
                                            "type": "bytes",
                                            "value": "0x00000000000000000000000000000000000000000000000000000000000000030000000000000000000000001e0447b19bb6ecfdae1e4ae1694b0c3659614e4e00000000000000000000000000000000000000000000000000000000000000000000000000000000000000000000000000000000000000000000000000000000000000000000000000000000000000000000000000000000000000000000000000000000000000000000000000000000000000000000000000000000000000e0000000000000000000000000000000000000000000000beff1ceef246ef7bd1f00000000000000000000000000000000000000000000000000000000000000010000000000000000000000000000000000000000000000000000000000000020000000000000000000000000000000000000000000000000000000000000000000000000000000000000000000000000000000000000000000000000000000000000000000000000000000006554ff0f2b6613bb2baa9a45788ad8574a805f6d000000000000000000000000c02aaa39b223fe8d0a0e5c4f27ead9083c756cc200000000000000000000000000000000000000000000000000000000000000a00000000000000000000000006554ff0f2b6613bb2baa9a45788ad8574a805f6d000000000000000000000000000000000000000000000000000000000000004000000000000000000000000000000000000000000000000000000000000000a000000000000000000000000000000000000000000000000000000000000000044798ce5b00000000000000000000000000000000000000000000000000000000000000000000000000000000000000000000000000000000000000000000000200000000000000000000000000000000000000000000000000000000000000040000000000000000000000000000000000000000000000000000000000000001000000000000000000000000000000000000000000000000000000000000000100000000000000000000000000000000000000000000000000000000000000020000000000000000000000000000000000000000000000000000000000000002"
                                        }
                                    ]
                                ]
                            }
                        ],
                        "constructorArguments": "",
                        "name": "operate",
                        "returnParams": [],
                        "signature": "operate((address,uint256)[],(uint8,uint256,(bool,uint8,uint8,uint256),uint256,uint256,address,uint256,bytes)[])"
                    },
                    "errorInfo": "",
                    "fromAddress": "0x6554ff0f2b6613bb2baa9a45788ad8574a805f6d",
                    "gasUsed": 102068,
                    "id": 1,
                    "methodDecoded": true,
                    "operation": "CALL",
                    "output": "",
                    "revert": false,
                    "revertMessage": "",
                    "selector": "0xa67a6a45",
                    "status": true,
                    "value": "0"
                },
                "nodeType": 0
            },
            "10": {
                "event": {
                    "contract": "0x1e0447b19bb6ecfdae1e4ae1694b0c3659614e4e",
                    "decodedLog": {
                        "name": "LogCall",
                        "params": [
                            {
                                "name": "accountOwner",
                                "type": "address",
                                "value": "0x6554ff0f2b6613bb2baa9a45788ad8574a805f6d"
                            },
                            {
                                "name": "accountNumber",
                                "type": "uint256",
                                "value": "1"
                            },
                            {
                                "name": "callee",
                                "type": "address",
                                "value": "0xbadc0defafcf6d4239bdf0b66da4d7bd36fcf05a"
                            }
                        ],
                        "signature": "LogCall(address,uint256,address)"
                    },
                    "id": 10,
                    "logData": "0x0000000000000000000000000000000000000000000000000000000000000001000000000000000000000000badc0defafcf6d4239bdf0b66da4d7bd36fcf05a",
                    "logDecoded": true,
                    "operation": "EVENT",
                    "revert": false,
                    "status": true,
                    "topics": [
                        "0xab38cdc4a831ebe6542bf277d36b65dbc5c66a4d03ec6cf56ac38de05dc30098",
                        "0x0000000000000000000000006554ff0f2b6613bb2baa9a45788ad8574a805f6d"
                    ]
                },
                "nodeType": 1
            },
            "2": {
                "invocation": {
                    "address": "0x56e7d4520abfecf10b38368b00723d9bd3c21ee1",
                    "callData": "0x0000000000000000000000000000000000000000000000000000000000000000000000000000000000000000000000000000000000000000000000000000006000000000000000000000000000000000000000000000000000000000000000c000000000000000000000000000000000000000000000000000000000000000010000000000000000000000006554ff0f2b6613bb2baa9a45788ad8574a805f6d00000000000000000000000000000000000000000000000000000000000000010000000000000000000000000000000000000000000000000000000000000001000000000000000000000000000000000000000000000000000000000000002000000000000000000000000000000000000000000000000000000000000000080000000000000000000000000000000000000000000000000000000000000000000000000000000000000000000000000000000000000000000000000000000000000000000000000000000000000000000000000000000000000000000000000000000000000000000000000000000000000000000000000000000000000000000000000000000000000000000000000000000000000000000000000000000000000000000000000000000000000000000000000000000000000000000000000000000000000000000000000000000000000000000000000000000000000000000000000000000000000000badc0defafcf6d4239bdf0b66da4d7bd36fcf05a00000000000000000000000000000000000000000000000000000000000000000000000000000000000000000000000000000000000000000000000000000160000000000000000000000000000000000000000000000000000000000000032000000000000000000000000000000000000000000000000000000000000000030000000000000000000000001e0447b19bb6ecfdae1e4ae1694b0c3659614e4e00000000000000000000000000000000000000000000000000000000000000000000000000000000000000000000000000000000000000000000000000000000000000000000000000000000000000000000000000000000000000000000000000000000000000000000000000000000000000000000000000000000000000e0000000000000000000000000000000000000000000000beff1ceef246ef7bd1f00000000000000000000000000000000000000000000000000000000000000010000000000000000000000000000000000000000000000000000000000000020000000000000000000000000000000000000000000000000000000000000000000000000000000000000000000000000000000000000000000000000000000000000000000000000000000006554ff0f2b6613bb2baa9a45788ad8574a805f6d000000000000000000000000c02aaa39b223fe8d0a0e5c4f27ead9083c756cc200000000000000000000000000000000000000000000000000000000000000a00000000000000000000000006554ff0f2b6613bb2baa9a45788ad8574a805f6d000000000000000000000000000000000000000000000000000000000000004000000000000000000000000000000000000000000000000000000000000000a000000000000000000000000000000000000000000000000000000000000000044798ce5b00000000000000000000000000000000000000000000000000000000000000000000000000000000000000000000000000000000000000000000000200000000000000000000000000000000000000000000000000000000000000040000000000000000000000000000000000000000000000000000000000000001000000000000000000000000000000000000000000000000000000000000000100000000000000000000000000000000000000000000000000000000000000020000000000000000000000000000000000000000000000000000000000000002",
                    "decodedMethod": {
                        "callParams": [
                            {
                                "name": "state",
                                "type": "bytes32",
                                "value": "0x0000000000000000000000000000000000000000000000000000000000000000"
                            },
                            {
                                "name": "accounts",
                                "type": "(address,uint256)[]",
                                "value": [
                                    [
                                        {
                                            "name": "owner",
                                            "type": "address",
                                            "value": "0x6554ff0f2b6613bb2baa9a45788ad8574a805f6d"
                                        },
                                        {
                                            "name": "number",
                                            "type": "uint256",
                                            "value": "1"
                                        }
                                    ]
                                ]
                            },
                            {
                                "name": "actions",
                                "type": "(uint8,uint256,(bool,uint8,uint8,uint256),uint256,uint256,address,uint256,bytes)[]",
                                "value": [
                                    [
                                        {
                                            "name": "actionType",
                                            "type": "uint8",
                                            "value": "8"
                                        },
                                        {
                                            "name": "accountId",
                                            "type": "uint256",
                                            "value": "0"
                                        },
                                        {
                                            "name": "amount",
                                            "type": "(bool,uint8,uint8,uint256)",
                                            "value": [
                                                {
                                                    "name": "sign",
                                                    "type": "bool",
                                                    "value": false
                                                },
                                                {
                                                    "name": "denomination",
                                                    "type": "uint8",
                                                    "value": "0"
                                                },
                                                {
                                                    "name": "ref",
                                                    "type": "uint8",
                                                    "value": "0"
                                                },
                                                {
                                                    "name": "value",
                                                    "type": "uint256",
                                                    "value": "0"
                                                }
                                            ]
                                        },
                                        {
                                            "name": "primaryMarketId",
                                            "type": "uint256",
                                            "value": "0"
                                        },
                                        {
                                            "name": "secondaryMarketId",
                                            "type": "uint256",
                                            "value": "0"
                                        },
                                        {
                                            "name": "otherAddress",
                                            "type": "address",
                                            "value": "0xbadc0defafcf6d4239bdf0b66da4d7bd36fcf05a"
                                        },
                                        {
                                            "name": "otherAccountId",
                                            "type": "uint256",
                                            "value": "0"
                                        },
                                        {
                                            "name": "data",
                                            "type": "bytes",
                                            "value": "0x00000000000000000000000000000000000000000000000000000000000000030000000000000000000000001e0447b19bb6ecfdae1e4ae1694b0c3659614e4e00000000000000000000000000000000000000000000000000000000000000000000000000000000000000000000000000000000000000000000000000000000000000000000000000000000000000000000000000000000000000000000000000000000000000000000000000000000000000000000000000000000000000e0000000000000000000000000000000000000000000000beff1ceef246ef7bd1f00000000000000000000000000000000000000000000000000000000000000010000000000000000000000000000000000000000000000000000000000000020000000000000000000000000000000000000000000000000000000000000000000000000000000000000000000000000000000000000000000000000000000000000000000000000000000006554ff0f2b6613bb2baa9a45788ad8574a805f6d000000000000000000000000c02aaa39b223fe8d0a0e5c4f27ead9083c756cc200000000000000000000000000000000000000000000000000000000000000a00000000000000000000000006554ff0f2b6613bb2baa9a45788ad8574a805f6d000000000000000000000000000000000000000000000000000000000000004000000000000000000000000000000000000000000000000000000000000000a000000000000000000000000000000000000000000000000000000000000000044798ce5b00000000000000000000000000000000000000000000000000000000000000000000000000000000000000000000000000000000000000000000000200000000000000000000000000000000000000000000000000000000000000040000000000000000000000000000000000000000000000000000000000000001000000000000000000000000000000000000000000000000000000000000000100000000000000000000000000000000000000000000000000000000000000020000000000000000000000000000000000000000000000000000000000000002"
                                        }
                                    ]
                                ]
                            }
                        ],
                        "constructorArguments": "",
                        "name": "operate",
                        "returnParams": [],
                        "signature": "operate(bytes32,(address,uint256)[],(uint8,uint256,(bool,uint8,uint8,uint256),uint256,uint256,address,uint256,bytes)[])"
                    },
                    "errorInfo": "",
                    "fromAddress": "0x1e0447b19bb6ecfdae1e4ae1694b0c3659614e4e",
                    "gasUsed": 85580,
                    "id": 2,
                    "methodDecoded": true,
                    "operation": "DELEGATECALL",
                    "output": "",
                    "revert": false,
                    "revertMessage": "",
                    "selector": "0xbd76ecfd",
                    "status": true,
                    "value": "0"
                },
                "nodeType": 0
            },
            "3": {
                "event": {
                    "contract": "0x1e0447b19bb6ecfdae1e4ae1694b0c3659614e4e",
                    "decodedLog": {
                        "name": "LogOperation",
                        "params": [
                            {
                                "name": "sender",
                                "type": "address",
                                "value": "0x6554ff0f2b6613bb2baa9a45788ad8574a805f6d"
                            }
                        ],
                        "signature": "LogOperation(address)"
                    },
                    "id": 3,
                    "logData": "0x0000000000000000000000006554ff0f2b6613bb2baa9a45788ad8574a805f6d",
                    "logDecoded": true,
                    "operation": "EVENT",
                    "revert": false,
                    "status": true,
                    "topics": [
                        "0x91b01baeee3a24b590d112613814d86801005c7ef9353e7fc1eaeaf33ccf83b0"
                    ]
                },
                "nodeType": 1
            },
            "4": {
                "invocation": {
                    "address": "0xbadc0defafcf6d4239bdf0b66da4d7bd36fcf05a",
                    "callData": "0x0000000000000000000000006554ff0f2b6613bb2baa9a45788ad8574a805f6d0000000000000000000000006554ff0f2b6613bb2baa9a45788ad8574a805f6d00000000000000000000000000000000000000000000000000000000000000010000000000000000000000000000000000000000000000000000000000000080000000000000000000000000000000000000000000000000000000000000032000000000000000000000000000000000000000000000000000000000000000030000000000000000000000001e0447b19bb6ecfdae1e4ae1694b0c3659614e4e00000000000000000000000000000000000000000000000000000000000000000000000000000000000000000000000000000000000000000000000000000000000000000000000000000000000000000000000000000000000000000000000000000000000000000000000000000000000000000000000000000000000000e0000000000000000000000000000000000000000000000beff1ceef246ef7bd1f00000000000000000000000000000000000000000000000000000000000000010000000000000000000000000000000000000000000000000000000000000020000000000000000000000000000000000000000000000000000000000000000000000000000000000000000000000000000000000000000000000000000000000000000000000000000000006554ff0f2b6613bb2baa9a45788ad8574a805f6d000000000000000000000000c02aaa39b223fe8d0a0e5c4f27ead9083c756cc200000000000000000000000000000000000000000000000000000000000000a00000000000000000000000006554ff0f2b6613bb2baa9a45788ad8574a805f6d000000000000000000000000000000000000000000000000000000000000004000000000000000000000000000000000000000000000000000000000000000a000000000000000000000000000000000000000000000000000000000000000044798ce5b00000000000000000000000000000000000000000000000000000000000000000000000000000000000000000000000000000000000000000000000200000000000000000000000000000000000000000000000000000000000000040000000000000000000000000000000000000000000000000000000000000001000000000000000000000000000000000000000000000000000000000000000100000000000000000000000000000000000000000000000000000000000000020000000000000000000000000000000000000000000000000000000000000002",
                    "decodedMethod": {
                        "callParams": [
                            {
                                "name": "sender",
                                "type": "address",
                                "value": "0x6554ff0f2b6613bb2baa9a45788ad8574a805f6d"
                            },
                            {
                                "name": "account",
                                "type": "(address,uint256)",
                                "value": [
                                    {
                                        "name": "owner",
                                        "type": "address",
                                        "value": "0x6554ff0f2b6613bb2baa9a45788ad8574a805f6d"
                                    },
                                    {
                                        "name": "number",
                                        "type": "uint256",
                                        "value": "1"
                                    }
                                ]
                            },
                            {
                                "name": "data",
                                "type": "bytes",
                                "value": "0x00000000000000000000000000000000000000000000000000000000000000030000000000000000000000001e0447b19bb6ecfdae1e4ae1694b0c3659614e4e00000000000000000000000000000000000000000000000000000000000000000000000000000000000000000000000000000000000000000000000000000000000000000000000000000000000000000000000000000000000000000000000000000000000000000000000000000000000000000000000000000000000000e0000000000000000000000000000000000000000000000beff1ceef246ef7bd1f00000000000000000000000000000000000000000000000000000000000000010000000000000000000000000000000000000000000000000000000000000020000000000000000000000000000000000000000000000000000000000000000000000000000000000000000000000000000000000000000000000000000000000000000000000000000000006554ff0f2b6613bb2baa9a45788ad8574a805f6d000000000000000000000000c02aaa39b223fe8d0a0e5c4f27ead9083c756cc200000000000000000000000000000000000000000000000000000000000000a00000000000000000000000006554ff0f2b6613bb2baa9a45788ad8574a805f6d000000000000000000000000000000000000000000000000000000000000004000000000000000000000000000000000000000000000000000000000000000a000000000000000000000000000000000000000000000000000000000000000044798ce5b00000000000000000000000000000000000000000000000000000000000000000000000000000000000000000000000000000000000000000000000200000000000000000000000000000000000000000000000000000000000000040000000000000000000000000000000000000000000000000000000000000001000000000000000000000000000000000000000000000000000000000000000100000000000000000000000000000000000000000000000000000000000000020000000000000000000000000000000000000000000000000000000000000002"
                            }
                        ],
                        "constructorArguments": "",
                        "name": "callFunction",
                        "returnParams": [],
                        "signature": "callFunction(address,(address,uint256),bytes)"
                    },
                    "errorInfo": "",
                    "fromAddress": "0x1e0447b19bb6ecfdae1e4ae1694b0c3659614e4e",
                    "gasUsed": 49045,
                    "id": 4,
                    "methodDecoded": true,
                    "operation": "CALL",
                    "output": "",
                    "revert": false,
                    "revertMessage": "",
                    "selector": "0x8b418713",
                    "status": true,
                    "value": "0"
                },
                "nodeType": 0
            },
            "5": {
                "invocation": {
                    "address": "0xdd6bd08c29ff3ef8780bf6a10d8b620a93ac5705",
                    "callData": "0x0000000000000000000000006554ff0f2b6613bb2baa9a45788ad8574a805f6d0000000000000000000000006554ff0f2b6613bb2baa9a45788ad8574a805f6d00000000000000000000000000000000000000000000000000000000000000010000000000000000000000000000000000000000000000000000000000000080000000000000000000000000000000000000000000000000000000000000032000000000000000000000000000000000000000000000000000000000000000030000000000000000000000001e0447b19bb6ecfdae1e4ae1694b0c3659614e4e00000000000000000000000000000000000000000000000000000000000000000000000000000000000000000000000000000000000000000000000000000000000000000000000000000000000000000000000000000000000000000000000000000000000000000000000000000000000000000000000000000000000000e0000000000000000000000000000000000000000000000beff1ceef246ef7bd1f00000000000000000000000000000000000000000000000000000000000000010000000000000000000000000000000000000000000000000000000000000020000000000000000000000000000000000000000000000000000000000000000000000000000000000000000000000000000000000000000000000000000000000000000000000000000000006554ff0f2b6613bb2baa9a45788ad8574a805f6d000000000000000000000000c02aaa39b223fe8d0a0e5c4f27ead9083c756cc200000000000000000000000000000000000000000000000000000000000000a00000000000000000000000006554ff0f2b6613bb2baa9a45788ad8574a805f6d000000000000000000000000000000000000000000000000000000000000004000000000000000000000000000000000000000000000000000000000000000a000000000000000000000000000000000000000000000000000000000000000044798ce5b00000000000000000000000000000000000000000000000000000000000000000000000000000000000000000000000000000000000000000000000200000000000000000000000000000000000000000000000000000000000000040000000000000000000000000000000000000000000000000000000000000001000000000000000000000000000000000000000000000000000000000000000100000000000000000000000000000000000000000000000000000000000000020000000000000000000000000000000000000000000000000000000000000002",
                    "decodedMethod": {
                        "callParams": [
                            {
                                "name": "sender",
                                "type": "address",
                                "value": "0x6554ff0f2b6613bb2baa9a45788ad8574a805f6d"
                            },
                            {
                                "name": "account",
                                "type": "(address,uint256)",
                                "value": [
                                    {
                                        "name": "owner",
                                        "type": "address",
                                        "value": "0x6554ff0f2b6613bb2baa9a45788ad8574a805f6d"
                                    },
                                    {
                                        "name": "number",
                                        "type": "uint256",
                                        "value": "1"
                                    }
                                ]
                            },
                            {
                                "name": "data",
                                "type": "bytes",
                                "value": "0x00000000000000000000000000000000000000000000000000000000000000030000000000000000000000001e0447b19bb6ecfdae1e4ae1694b0c3659614e4e00000000000000000000000000000000000000000000000000000000000000000000000000000000000000000000000000000000000000000000000000000000000000000000000000000000000000000000000000000000000000000000000000000000000000000000000000000000000000000000000000000000000000e0000000000000000000000000000000000000000000000beff1ceef246ef7bd1f00000000000000000000000000000000000000000000000000000000000000010000000000000000000000000000000000000000000000000000000000000020000000000000000000000000000000000000000000000000000000000000000000000000000000000000000000000000000000000000000000000000000000000000000000000000000000006554ff0f2b6613bb2baa9a45788ad8574a805f6d000000000000000000000000c02aaa39b223fe8d0a0e5c4f27ead9083c756cc200000000000000000000000000000000000000000000000000000000000000a00000000000000000000000006554ff0f2b6613bb2baa9a45788ad8574a805f6d000000000000000000000000000000000000000000000000000000000000004000000000000000000000000000000000000000000000000000000000000000a000000000000000000000000000000000000000000000000000000000000000044798ce5b00000000000000000000000000000000000000000000000000000000000000000000000000000000000000000000000000000000000000000000000200000000000000000000000000000000000000000000000000000000000000040000000000000000000000000000000000000000000000000000000000000001000000000000000000000000000000000000000000000000000000000000000100000000000000000000000000000000000000000000000000000000000000020000000000000000000000000000000000000000000000000000000000000002"
                            }
                        ],
                        "constructorArguments": "",
                        "name": "callFunction",
                        "returnParams": [],
                        "signature": "callFunction(address,(address,uint256),bytes)"
                    },
                    "errorInfo": "",
                    "fromAddress": "0xbadc0defafcf6d4239bdf0b66da4d7bd36fcf05a",
                    "gasUsed": 37251,
                    "id": 5,
                    "methodDecoded": true,
                    "operation": "DELEGATECALL",
                    "output": "",
                    "revert": false,
                    "revertMessage": "",
                    "selector": "0x8b418713",
                    "status": true,
                    "value": "0"
                },
                "nodeType": 0
            },
            "6": {
                "invocation": {
                    "address": "0xc02aaa39b223fe8d0a0e5c4f27ead9083c756cc2",
                    "callData": "0x000000000000000000000000badc0defafcf6d4239bdf0b66da4d7bd36fcf05a0000000000000000000000006554ff0f2b6613bb2baa9a45788ad8574a805f6d",
                    "decodedMethod": {
                        "callParams": [
                            {
                                "name": "",
                                "type": "address",
                                "value": "0xbadc0defafcf6d4239bdf0b66da4d7bd36fcf05a"
                            },
                            {
                                "name": "",
                                "type": "address",
                                "value": "0x6554ff0f2b6613bb2baa9a45788ad8574a805f6d"
                            }
                        ],
                        "constructorArguments": "",
                        "name": "allowance",
                        "returnParams": [
                            {
                                "decimalAvailable": true,
                                "name": "",
                                "type": "uint256",
                                "value": "0"
                            }
                        ],
                        "signature": "allowance(address,address)"
                    },
                    "errorInfo": "",
                    "fromAddress": "0xbadc0defafcf6d4239bdf0b66da4d7bd36fcf05a",
                    "gasUsed": 2717,
                    "id": 6,
                    "methodDecoded": true,
                    "operation": "CALL",
                    "output": "0x0000000000000000000000000000000000000000000000000000000000000000",
                    "revert": false,
                    "revertMessage": "",
                    "selector": "0xdd62ed3e",
                    "status": true,
                    "value": "0"
                },
                "nodeType": 0
            },
            "7": {
                "invocation": {
                    "address": "0xc02aaa39b223fe8d0a0e5c4f27ead9083c756cc2",
                    "callData": "0x0000000000000000000000006554ff0f2b6613bb2baa9a45788ad8574a805f6d0000000000000000000000000000000000000000002ea1489056265177bac118",
                    "decodedMethod": {
                        "callParams": [
                            {
                                "name": "guy",
                                "type": "address",
                                "value": "0x6554ff0f2b6613bb2baa9a45788ad8574a805f6d"
                            },
                            {
                                "decimalAvailable": true,
                                "name": "wad",
                                "type": "uint256",
                                "value": "56,372,227,272,130,782,805,279,000"
                            }
                        ],
                        "constructorArguments": "",
                        "name": "approve",
                        "returnParams": [
                            {
                                "name": "",
                                "type": "bool",
                                "value": true
                            }
                        ],
                        "signature": "approve(address,uint256)"
                    },
                    "errorInfo": "",
                    "fromAddress": "0xbadc0defafcf6d4239bdf0b66da4d7bd36fcf05a",
                    "gasUsed": 22320,
                    "id": 7,
                    "methodDecoded": true,
                    "operation": "CALL",
                    "output": "0x0000000000000000000000000000000000000000000000000000000000000001",
                    "revert": false,
                    "revertMessage": "",
                    "selector": "0x095ea7b3",
                    "status": true,
                    "value": "0"
                },
                "nodeType": 0
            },
            "8": {
                "event": {
                    "contract": "0xc02aaa39b223fe8d0a0e5c4f27ead9083c756cc2",
                    "decodedLog": {
                        "name": "Approval",
                        "params": [
                            {
                                "name": "src",
                                "type": "address",
                                "value": "0xbadc0defafcf6d4239bdf0b66da4d7bd36fcf05a"
                            },
                            {
                                "name": "guy",
                                "type": "address",
                                "value": "0x6554ff0f2b6613bb2baa9a45788ad8574a805f6d"
                            },
                            {
                                "decimalAvailable": true,
                                "name": "wad",
                                "type": "uint256",
                                "value": "56,372,227,272,130,782,805,279,000"
                            }
                        ],
                        "signature": "Approval(address,address,uint256)"
                    },
                    "id": 8,
                    "logData": "0x0000000000000000000000000000000000000000002ea1489056265177bac118",
                    "logDecoded": true,
                    "operation": "EVENT",
                    "revert": false,
                    "status": true,
                    "topics": [
                        "0x8c5be1e5ebec7d5bd14f71427d1e84f3dd0314c0f7b2291e5b200ac8c7c3b925",
                        "0x000000000000000000000000badc0defafcf6d4239bdf0b66da4d7bd36fcf05a",
                        "0x0000000000000000000000006554ff0f2b6613bb2baa9a45788ad8574a805f6d"
                    ]
                },
                "nodeType": 1
            },
            "9": {
                "invocation": {
                    "address": "0x6554ff0f2b6613bb2baa9a45788ad8574a805f6d",
                    "callData": "0x000000000000000000000000000000000000000000000000000000044798ce5b00000000000000000000000000000000000000000000000000000000000000000000000000000000000000000000000000000000000000000000000200000000000000000000000000000000000000000000000000000beff1ceef246ef7bd1f00000000000000000000000000000000000000000000000000000001",
                    "decodedMethod": {
                        "callParams": [],
                        "constructorArguments": "",
                        "name": "execute_44g58pv",
                        "returnParams": [],
                        "signature": "execute_44g58pv()"
                    },
                    "errorInfo": "",
                    "fromAddress": "0xbadc0defafcf6d4239bdf0b66da4d7bd36fcf05a",
                    "gasUsed": 120,
                    "id": 9,
                    "methodDecoded": true,
                    "operation": "CALL",
                    "output": "",
                    "revert": false,
                    "revertMessage": "",
                    "selector": "0x00000000",
                    "status": true,
                    "value": "0"
                },
                "nodeType": 0
            }
        },
        "gasFlame": [
            {
                "children": [
                    {
                        "children": [
                            {
                                "children": [],
                                "depth": 0,
                                "name": "Initial Gas",
                                "value": 26220
                            },
                            {
                                "children": [
                                    {
                                        "children": [
                                            {
                                                "children": [
                                                    {
                                                        "children": [
                                                            {
                                                                "children": [
                                                                    {
                                                                        "children": [],
                                                                        "depth": 5,
                                                                        "name": "allowance",
                                                                        "value": 2717
                                                                    },
                                                                    {
                                                                        "children": [],
                                                                        "depth": 5,
                                                                        "name": "approve",
                                                                        "value": 22320
                                                                    },
                                                                    {
                                                                        "children": [],
                                                                        "depth": 5,
                                                                        "name": "execute_44g58pv",
                                                                        "value": 120
                                                                    }
                                                                ],
                                                                "depth": 4,
                                                                "name": "callFunction",
                                                                "value": 37251
                                                            }
                                                        ],
                                                        "depth": 3,
                                                        "name": "callFunction",
                                                        "value": 49045
                                                    }
                                                ],
                                                "depth": 2,
                                                "name": "operate",
                                                "value": 85580
                                            }
                                        ],
                                        "depth": 1,
                                        "name": "operate",
                                        "value": 102068
                                    }
                                ],
                                "depth": 0,
                                "name": "Executed Gas",
                                "value": 110150
                            }
                        ],
                        "depth": -1,
                        "name": "Actual Gas Used",
                        "value": 136370
                    },
                    {
                        "children": [],
                        "depth": -1,
                        "name": "Refunded Gas",
                        "value": 0
                    }
                ],
                "depth": -2,
                "name": "Total Gas",
                "value": 136370
            }
        ],
        "isConfirmed": true,
        "mainTrace": [
            {
                "children": [
                    {
                        "children": [
                            {
                                "children": [
                                    {
                                        "children": [
                                            {
                                                "children": [],
                                                "depth": 3,
                                                "id": 3,
                                                "order": 3
                                            },
                                            {
                                                "children": [
                                                    {
                                                        "children": [
                                                            {
                                                                "children": [],
                                                                "depth": 5,
                                                                "id": 6,
                                                                "order": 6
                                                            },
                                                            {
                                                                "children": [
                                                                    {
                                                                        "children": [],
                                                                        "depth": 6,
                                                                        "id": 8,
                                                                        "order": 8
                                                                    }
                                                                ],
                                                                "depth": 5,
                                                                "id": 7,
                                                                "order": 7
                                                            },
                                                            {
                                                                "children": [],
                                                                "depth": 5,
                                                                "id": 9,
                                                                "order": 9
                                                            }
                                                        ],
                                                        "depth": 4,
                                                        "id": 5,
                                                        "order": 5
                                                    }
                                                ],
                                                "depth": 3,
                                                "id": 4,
                                                "order": 4
                                            },
                                            {
                                                "children": [],
                                                "depth": 3,
                                                "id": 10,
                                                "order": 10
                                            }
                                        ],
                                        "depth": 2,
                                        "id": 2,
                                        "order": 2
                                    }
                                ],
                                "depth": 1,
                                "id": 1,
                                "order": 1
                            }
                        ],
                        "depth": 0,
                        "id": 0,
                        "order": 0
                    }
                ],
                "depth": -1,
                "id": -1,
                "order": -1
            }
        ],
        "mainTraceNodeCount": 11,
        "parentIdMap": {
            "0": -1,
            "1": 0,
            "10": 2,
            "2": 1,
            "3": 2,
            "4": 2,
            "5": 4,
            "6": 5,
            "7": 5,
            "8": 7,
            "9": 5
        },
        "tidyTrace": [
            {
                "children": [
                    {
                        "children": [
                            {
                                "children": [
                                    {
                                        "children": [
                                            {
                                                "children": [],
                                                "depth": 3,
                                                "id": 3,
                                                "order": 3
                                            },
                                            {
                                                "children": [
                                                    {
                                                        "children": [
                                                            {
                                                                "children": [],
                                                                "depth": 5,
                                                                "id": 6,
                                                                "order": 6
                                                            },
                                                            {
                                                                "children": [
                                                                    {
                                                                        "children": [],
                                                                        "depth": 6,
                                                                        "id": 8,
                                                                        "order": 8
                                                                    }
                                                                ],
                                                                "depth": 5,
                                                                "id": 7,
                                                                "order": 7
                                                            },
                                                            {
                                                                "children": [],
                                                                "depth": 5,
                                                                "id": 9,
                                                                "order": 9
                                                            }
                                                        ],
                                                        "depth": 4,
                                                        "id": 5,
                                                        "order": 5
                                                    }
                                                ],
                                                "depth": 3,
                                                "id": 4,
                                                "order": 4
                                            },
                                            {
                                                "children": [],
                                                "depth": 3,
                                                "id": 10,
                                                "order": 10
                                            }
                                        ],
                                        "depth": 2,
                                        "id": 2,
                                        "order": 2
                                    }
                                ],
                                "depth": 1,
                                "id": 1,
                                "order": 1
                            }
                        ],
                        "depth": 0,
                        "id": 0,
                        "order": 0
                    }
                ],
                "depth": -1,
                "id": -1,
                "order": -1
            }
        ],
        "tidyTraceNodeCount": 11
    },
    "state_change": {
        "stateChanges": [
            {
                "address": "0x1e0447b19bb6ecfdae1e4ae1694b0c3659614e4e",
                "erc": "",
                "slots": [
                    {
                        "current": "0x00000000000000000000000000000000000000000000000000000000000a2c57",
                        "key": "0x000000000000000000000000000000000000000000000000000000000000000c",
                        "prev": "0x00000000000000000000000000000000000000000000000000000000000a2c56"
                    }
                ],
                "storageVariables": [
                    {
                        "name": "_guardCounter",
                        "type": "uint256",
                        "value": {
                            "current": "666711",
                            "prev": "666710",
                            "typeTag": 1
                        }
                    }
                ]
            },
            {
                "address": "0xc02aaa39b223fe8d0a0e5c4f27ead9083c756cc2",
                "erc": "ERC-20",
                "slots": [
                    {
                        "current": "0x0000000000000000000000000000000000000000002ea1489056265177bac118",
                        "key": "0xf95676cf3387e8b255608254c953827cee428a30718e945c98a0b22d06e84a28",
                        "prev": "0x0000000000000000000000000000000000000000000000000000000000000000"
                    }
                ],
                "storageVariables": [
                    {
                        "name": "allowance",
                        "type": "mapping(address => mapping(address => uint256))",
                        "value": {
                            "pairs": [
                                {
                                    "key": "0xbadc0defafcf6d4239bdf0b66da4d7bd36fcf05a",
                                    "value": {
                                        "pairs": [
                                            {
                                                "key": "0x6554ff0f2b6613bb2baa9a45788ad8574a805f6d",
                                                "value": {
                                                    "current": "56372227272130782805279000",
                                                    "prev": "0",
                                                    "typeTag": 1
                                                }
                                            }
                                        ],
                                        "typeTag": 4
                                    }
                                }
                            ],
                            "typeTag": 4
                        }
                    }
                ]
            }
        ]
    }
}