{
    "balance_change": {
        "balanceChanges": [
            {
                "account": "0x0a0805082ea0fc8bfdcc6218a986efda6704efe5",
                "assets": [
                    {
                        "address": "0x4200000000000000000000000000000000000042",
                        "amount": "2,667.787074274175149671",
                        "iconUrl": "https://assets.blocksec.com/icon/f3c26069ad80ab44cc5dfe1a823fcef7fbb81d55b25da933666cc6578a094310.png",
                        "isERC1155": false,
                        "isERC721": false,
                        "sign": true,
                        "value": ""
                    }
                ]
            },
            {
                "account": "0x4d9618239044a2ab2581f0cc954d28873afa4d7b",
                "assets": [
                    {
                        "address": "0x4200000000000000000000000000000000000042",
                        "amount": "2,736.191871050436050944",
                        "iconUrl": "https://assets.blocksec.com/icon/f3c26069ad80ab44cc5dfe1a823fcef7fbb81d55b25da933666cc6578a094310.png",
                        "isERC1155": false,
                        "isERC721": false,
                        "sign": false,
                        "value": ""
                    }
                ]
            },
            {
                "account": "0xec1557a67d4980c948cd473075293204f4d280fd",
                "assets": [
                    {
                        "address": "0x4200000000000000000000000000000000000042",
                        "amount": "68.404796776260901273",
                        "iconUrl": "https://assets.blocksec.com/icon/f3c26069ad80ab44cc5dfe1a823fcef7fbb81d55b25da933666cc6578a094310.png",
                        "isERC1155": false,
                        "isERC721": false,
                        "sign": true,
                        "value": ""
                    }
                ]
            }
        ]
    },
    "profile": {
        "basic_info": {
            "baseFee": "",
            "blockNumber": 13591384,
            "callData": "0x912d97fc0000000000000000000000000a0805082ea0fc8bfdcc6218a986efda6704efe5000000000000000000000000be81eabdbd437cba43e4c1c330c63022772c252000000000000000000000000000000000000000000000000000000000000000010000000000000000000000000000000000000000000000000000000000000000fffffffffffffffffffffffffffffffffffffffffffffffffffffffffffffffe000000000000000000000000000000000000000000000094544a49c128ac00000000000000000000000000000000000000000000000000000000000000000001fffffffffffffffffffffffffffffffffffffffffffffffffffffffffffffffe000000000000000000000000420000000000000000000000000000000000004200000000000000000000000000000000000000000000000000000000000001600000000000000000000000004d9618239044a2ab2581f0cc954d28873afa4d7b000000000000000000000000000000000000000000000000000000000000004128bc2ff1634b13821eac466ef6875c44f1f556d00d3cafce02da07b217da395131294339d96a01922b83f8e3c67e74652198b3a6db79d7ddd48807b9ec6ae0491c00000000000000000000000000000000000000000000000000000000000000",
            "debugEnable": true,
            "errorInfo": "",
            "eventCount": 8,
            "feeRecipient": "0x0000000000000000000000000000000000000000",
            "formatValue": "0",
            "gasLimit": 5000000,
            "gasPrice": "0.001",
            "gasUsed": 206938,
            "intTxnCount": 16,
            "internalRevert": false,
            "internalRevertMessage": "",
            "isContractCreation": false,
            "isFlashloan": false,
            "maxFee": "",
            "nonce": 850,
            "overwritedBlockNumber": -1,
            "priorityFee": "",
            "receiver": "0x065e8a87b8f11aed6facf9447abe5e8c5d7502b6",
            "revertMessage": "",
            "sender": "0x0a0805082ea0fc8bfdcc6218a986efda6704efe5",
            "simulationEnable": true,
            "sourceTxnHash": "0x5dc519726e1236eb846271f6699e03cdd1a8fd593a2900c71cd2aabbdb7c92e6",
            "status": true,
            "timestamp": "2022-07-01T05:03:55Z",
            "transactionFee": "0.000166511964365296",
            "txnHash": "0x5dc519726e1236eb846271f6699e03cdd1a8fd593a2900c71cd2aabbdb7c92e6",
            "txnIndex": 0,
            "type": 0,
            "value": "0"
        },
        "fund_flow": [
            {
                "amount": "68.404796776260901273",
                "from": "0x4d9618239044a2ab2581f0cc954d28873afa4d7b",
                "id": 1,
                "isERC1155": false,
                "isERC721": false,
                "isReverted": false,
                "order": 1,
                "to": "0xec1557a67d4980c948cd473075293204f4d280fd",
                "token": "0x4200000000000000000000000000000000000042"
            },
            {
                "amount": "2,667.787074274175149671",
                "from": "0x4d9618239044a2ab2581f0cc954d28873afa4d7b",
                "id": 2,
                "isERC1155": false,
                "isERC721": false,
                "isReverted": false,
                "order": 2,
                "to": "0x0a0805082ea0fc8bfdcc6218a986efda6704efe5",
                "token": "0x4200000000000000000000000000000000000042"
            }
        ],
        "token_infos": [
            {
                "address": "0x4200000000000000000000000000000000000006",
                "decimals": 18
            },
            {
                "address": "0x4200000000000000000000000000000000000042",
                "decimals": 18
            },
            {
                "address": "0xeeeeeeeeeeeeeeeeeeeeeeeeeeeeeeeeeeeeeeee",
                "decimals": 18
            }
        ]
    },
    "address_label": {
        "labels": [
            {
                "address": "0x0000000000000000000000000000000000000002",
                "label": "Precompiled"
            },
            {
                "address": "0x065e8a87b8f11aed6facf9447abe5e8c5d7502b6",
                "label": "ExchangeV4"
            },
            {
                "address": "0x4200000000000000000000000000000000000042",
                "label": "Optimism: OP Token"
            },
            {
                "address": "0x522149e80bcef74de8592a48a4698e195c38ad37",
                "label": "CancellationRegistry"
            },
            {
                "address": "0x0000000000000000000000000000000000000001",
                "label": "Precompiled"
            },
            {
                "address": "0x0000000000000000000000000000000000000004",
                "label": "Precompiled"
            },
            {
                "address": "0xeeeeeeeeeeeeeeeeeeeeeeeeeeeeeeeeeeeeeeee",
                "label": "Ether"
            },
            {
                "address": "0x445e27a25606dad4321c7b97ef8350a9585a5c78",
                "label": "PaymentERC20Registry"
            },
            {
                "address": "0x40a863955742dd6cfc873a7d69dc85113fa8085f",
                "label": "ExchangeRegistry"
            },
            {
                "address": "0x0000000000000000000000000000000000000003",
                "label": "Precompiled"
            }
        ]
    },
    "trace": {
        "accountLabels": null,
        "dataMap": {
            "-1": {
                "invocation": {
                    "address": "0x0a0805082ea0fc8bfdcc6218a986efda6704efe5",
                    "callData": "",
                    "decodedMethod": null,
                    "errorInfo": "",
                    "fromAddress": "",
                    "gasUsed": 0,
                    "id": -1,
                    "methodDecoded": false,
                    "operation": "",
                    "output": "",
                    "revert": false,
                    "revertMessage": "",
                    "selector": "",
                    "status": false,
                    "value": ""
                },
                "nodeType": 0
            },
            "0": {
                "invocation": {
                    "address": "0x065e8a87b8f11aed6facf9447abe5e8c5d7502b6",
                    "callData": "0x0000000000000000000000000a0805082ea0fc8bfdcc6218a986efda6704efe5000000000000000000000000be81eabdbd437cba43e4c1c330c63022772c252000000000000000000000000000000000000000000000000000000000000000010000000000000000000000000000000000000000000000000000000000000000fffffffffffffffffffffffffffffffffffffffffffffffffffffffffffffffe000000000000000000000000000000000000000000000094544a49c128ac00000000000000000000000000000000000000000000000000000000000000000001fffffffffffffffffffffffffffffffffffffffffffffffffffffffffffffffe000000000000000000000000420000000000000000000000000000000000004200000000000000000000000000000000000000000000000000000000000001600000000000000000000000004d9618239044a2ab2581f0cc954d28873afa4d7b000000000000000000000000000000000000000000000000000000000000004128bc2ff1634b13821eac466ef6875c44f1f556d00d3cafce02da07b217da395131294339d96a01922b83f8e3c67e74652198b3a6db79d7ddd48807b9ec6ae0491c00000000000000000000000000000000000000000000000000000000000000",
                    "decodedMethod": {
                        "callParams": [
                            {
                                "name": "seller",
                                "type": "address",
                                "value": "0x0a0805082ea0fc8bfdcc6218a986efda6704efe5"
                            },
                            {
                                "name": "contractAddress",
                                "type": "address",
                                "value": "0xbe81eabdbd437cba43e4c1c330c63022772c2520"
                            },
                            {
                                "name": "tokenId",
                                "type": "uint256",
                                "value": "1"
                            },
                            {
                                "name": "startTime",
                                "type": "uint256",
                                "value": "0"
                            },
                            {
                                "name": "expiration",
                                "type": "uint256",
                                "value": "115,792,089,237,316,195,423,570,985,008,687,907,853,269,984,665,640,564,039,457,584,007,913,129,639,934"
                            },
                            {
                                "name": "price",
                                "type": "uint256",
                                "value": "2,736,191,871,050,436,050,944"
                            },
                            {
                                "name": "quantity",
                                "type": "uint256",
                                "value": "1"
                            },
                            {
                                "name": "createdAtBlockNumber",
                                "type": "uint256",
                                "value": "115,792,089,237,316,195,423,570,985,008,687,907,853,269,984,665,640,564,039,457,584,007,913,129,639,934"
                            },
                            {
                                "name": "paymentERC20",
                                "type": "address",
                                "value": "0x4200000000000000000000000000000000000042"
                            },
                            {
                                "name": "signature",
                                "type": "bytes",
                                "value": "0x28bc2ff1634b13821eac466ef6875c44f1f556d00d3cafce02da07b217da395131294339d96a01922b83f8e3c67e74652198b3a6db79d7ddd48807b9ec6ae0491c"
                            },
                            {
                                "name": "buyer",
                                "type": "address",
                                "value": "0x4d9618239044a2ab2581f0cc954d28873afa4d7b"
                            }
                        ],
                        "constructorArguments": "",
                        "name": "fillSellOrder",
                        "returnParams": [],
                        "signature": "fillSellOrder(address,address,uint256,uint256,uint256,uint256,uint256,uint256,address,bytes,address)"
                    },
                    "errorInfo": "",
                    "fromAddress": "0x0a0805082ea0fc8bfdcc6218a986efda6704efe5",
                    "gasUsed": 206938,
                    "id": 0,
                    "methodDecoded": true,
                    "operation": "CALL",
                    "output": "",
                    "revert": false,
                    "revertMessage": "",
                    "selector": "0x912d97fc",
                    "status": true,
                    "value": "0"
                },
                "nodeType": 0
            },
            "1": {
                "invocation": {
                    "address": "0x445e27a25606dad4321c7b97ef8350a9585a5c78",
                    "callData": "0x0000000000000000000000004200000000000000000000000000000000000042",
                    "decodedMethod": {
                        "callParams": [
                            {
                                "name": "_token",
                                "type": "address",
                                "value": "0x4200000000000000000000000000000000000042"
                            }
                        ],
                        "constructorArguments": "",
                        "name": "isApprovedERC20",
                        "returnParams": [
                            {
                                "name": "",
                                "type": "bool",
                                "value": true
                            }
                        ],
                        "signature": "isApprovedERC20(address)"
                    },
                    "errorInfo": "",
                    "fromAddress": "0x065e8a87b8f11aed6facf9447abe5e8c5d7502b6",
                    "gasUsed": 2480,
                    "id": 1,
                    "methodDecoded": true,
                    "operation": "STATICCALL",
                    "output": "0x0000000000000000000000000000000000000000000000000000000000000001",
                    "revert": false,
                    "revertMessage": "",
                    "selector": "0x1eb9bbd4",
                    "status": true,
                    "value": "0"
                },
                "nodeType": 0
            },
            "10": {
                "invocation": {
                    "address": "0xbe81eabdbd437cba43e4c1c330c63022772c2520",
                    "callData": "0x80ac58cd00000000000000000000000000000000000000000000000000000000",
                    "decodedMethod": {
                        "callParams": [
                            {
                                "name": "interfaceId",
                                "type": "bytes4",
                                "value": "0x80ac58cd"
                            }
                        ],
                        "constructorArguments": "",
                        "name": "supportsInterface",
                        "returnParams": [
                            {
                                "name": "",
                                "type": "bool",
                                "value": false
                            }
                        ],
                        "signature": "supportsInterface(bytes4)"
                    },
                    "errorInfo": "",
                    "fromAddress": "0x065e8a87b8f11aed6facf9447abe5e8c5d7502b6",
                    "gasUsed": 687,
                    "id": 10,
                    "methodDecoded": true,
                    "operation": "STATICCALL",
                    "output": "0x0000000000000000000000000000000000000000000000000000000000000000",
                    "revert": false,
                    "revertMessage": "",
                    "selector": "0x01ffc9a7",
                    "status": true,
                    "value": "0"
                },
                "nodeType": 0
            },
            "11": {
                "invocation": {
                    "address": "0xbe81eabdbd437cba43e4c1c330c63022772c2520",
                    "callData": "0x01ffc9a700000000000000000000000000000000000000000000000000000000",
                    "decodedMethod": {
                        "callParams": [
                            {
                                "name": "interfaceId",
                                "type": "bytes4",
                                "value": "0x01ffc9a7"
                            }
                        ],
                        "constructorArguments": "",
                        "name": "supportsInterface",
                        "returnParams": [
                            {
                                "name": "",
                                "type": "bool",
                                "value": true
                            }
                        ],
                        "signature": "supportsInterface(bytes4)"
                    },
                    "errorInfo": "",
                    "fromAddress": "0x065e8a87b8f11aed6facf9447abe5e8c5d7502b6",
                    "gasUsed": 677,
                    "id": 11,
                    "methodDecoded": true,
                    "operation": "STATICCALL",
                    "output": "0x0000000000000000000000000000000000000000000000000000000000000001",
                    "revert": false,
                    "revertMessage": "",
                    "selector": "0x01ffc9a7",
                    "status": true,
                    "value": "0"
                },
                "nodeType": 0
            },
            "12": {
                "invocation": {
                    "address": "0xbe81eabdbd437cba43e4c1c330c63022772c2520",
                    "callData": "0xffffffff00000000000000000000000000000000000000000000000000000000",
                    "decodedMethod": {
                        "callParams": [
                            {
                                "name": "interfaceId",
                                "type": "bytes4",
                                "value": "0xffffffff"
                            }
                        ],
                        "constructorArguments": "",
                        "name": "supportsInterface",
                        "returnParams": [
                            {
                                "name": "",
                                "type": "bool",
                                "value": false
                            }
                        ],
                        "signature": "supportsInterface(bytes4)"
                    },
                    "errorInfo": "",
                    "fromAddress": "0x065e8a87b8f11aed6facf9447abe5e8c5d7502b6",
                    "gasUsed": 661,
                    "id": 12,
                    "methodDecoded": true,
                    "operation": "STATICCALL",
                    "output": "0x0000000000000000000000000000000000000000000000000000000000000000",
                    "revert": false,
                    "revertMessage": "",
                    "selector": "0x01ffc9a7",
                    "status": true,
                    "value": "0"
                },
                "nodeType": 0
            },
            "13": {
                "invocation": {
                    "address": "0xbe81eabdbd437cba43e4c1c330c63022772c2520",
                    "callData": "0xd9b67a2600000000000000000000000000000000000000000000000000000000",
                    "decodedMethod": {
                        "callParams": [
                            {
                                "name": "interfaceId",
                                "type": "bytes4",
                                "value": "0xd9b67a26"
                            }
                        ],
                        "constructorArguments": "",
                        "name": "supportsInterface",
                        "returnParams": [
                            {
                                "name": "",
                                "type": "bool",
                                "value": true
                            }
                        ],
                        "signature": "supportsInterface(bytes4)"
                    },
                    "errorInfo": "",
                    "fromAddress": "0x065e8a87b8f11aed6facf9447abe5e8c5d7502b6",
                    "gasUsed": 677,
                    "id": 13,
                    "methodDecoded": true,
                    "operation": "STATICCALL",
                    "output": "0x0000000000000000000000000000000000000000000000000000000000000001",
                    "revert": false,
                    "revertMessage": "",
                    "selector": "0x01ffc9a7",
                    "status": true,
                    "value": "0"
                },
                "nodeType": 0
            },
            "14": {
                "invocation": {
                    "address": "0xbe81eabdbd437cba43e4c1c330c63022772c2520",
                    "callData": "0x0000000000000000000000000a0805082ea0fc8bfdcc6218a986efda6704efe50000000000000000000000004d9618239044a2ab2581f0cc954d28873afa4d7b0000000000000000000000000000000000000000000000000000000000000001000000000000000000000000000000000000000000000000000000000000000100000000000000000000000000000000000000000000000000000000000000a00000000000000000000000000000000000000000000000000000000000000000",
                    "decodedMethod": {
                        "callParams": [
                            {
                                "name": "from",
                                "type": "address",
                                "value": "0x0a0805082ea0fc8bfdcc6218a986efda6704efe5"
                            },
                            {
                                "name": "to",
                                "type": "address",
                                "value": "0x4d9618239044a2ab2581f0cc954d28873afa4d7b"
                            },
                            {
                                "name": "id",
                                "type": "uint256",
                                "value": "1"
                            },
                            {
                                "name": "amount",
                                "type": "uint256",
                                "value": "1"
                            },
                            {
                                "name": "data",
                                "type": "bytes",
                                "value": "0x"
                            }
                        ],
                        "constructorArguments": "",
                        "name": "safeTransferFrom",
                        "returnParams": [],
                        "signature": "safeTransferFrom(address,address,uint256,uint256,bytes)"
                    },
                    "errorInfo": "",
                    "fromAddress": "0x065e8a87b8f11aed6facf9447abe5e8c5d7502b6",
                    "gasUsed": 1283,
                    "id": 14,
                    "methodDecoded": true,
                    "operation": "CALL",
                    "output": "",
                    "revert": false,
                    "revertMessage": "",
                    "selector": "0xf242432a",
                    "status": true,
                    "value": "0"
                },
                "nodeType": 0
            },
            "15": {
                "invocation": {
                    "address": "0x40a863955742dd6cfc873a7d69dc85113fa8085f",
                    "callData": "0x000000000000000000000000be81eabdbd437cba43e4c1c330c63022772c2520",
                    "decodedMethod": {
                        "callParams": [
                            {
                                "name": "_erc721address",
                                "type": "address",
                                "value": "0xbe81eabdbd437cba43e4c1c330c63022772c2520"
                            }
                        ],
                        "constructorArguments": "",
                        "name": "getRoyaltyPayoutRate",
                        "returnParams": [
                            {
                                "name": "",
                                "type": "uint256",
                                "value": "0"
                            }
                        ],
                        "signature": "getRoyaltyPayoutRate(address)"
                    },
                    "errorInfo": "",
                    "fromAddress": "0x065e8a87b8f11aed6facf9447abe5e8c5d7502b6",
                    "gasUsed": 2597,
                    "id": 15,
                    "methodDecoded": true,
                    "operation": "STATICCALL",
                    "output": "0x0000000000000000000000000000000000000000000000000000000000000000",
                    "revert": false,
                    "revertMessage": "",
                    "selector": "0xec4210ff",
                    "status": true,
                    "value": "0"
                },
                "nodeType": 0
            },
            "16": {
                "invocation": {
                    "address": "0x4200000000000000000000000000000000000042",
                    "callData": "0x0000000000000000000000004d9618239044a2ab2581f0cc954d28873afa4d7b000000000000000000000000ec1557a67d4980c948cd473075293204f4d280fd000000000000000000000000000000000000000000000003b54ea83e6dd11999",
                    "decodedMethod": {
                        "callParams": [
                            {
                                "name": "from",
                                "type": "address",
                                "value": "0x4d9618239044a2ab2581f0cc954d28873afa4d7b"
                            },
                            {
                                "name": "to",
                                "type": "address",
                                "value": "0xec1557a67d4980c948cd473075293204f4d280fd"
                            },
                            {
                                "decimalAvailable": true,
                                "name": "amount",
                                "type": "uint256",
                                "value": "68,404,796,776,260,901,273"
                            }
                        ],
                        "constructorArguments": "",
                        "name": "transferFrom",
                        "returnParams": [
                            {
                                "name": "",
                                "type": "bool",
                                "value": true
                            }
                        ],
                        "signature": "transferFrom(address,address,uint256)"
                    },
                    "errorInfo": "",
                    "fromAddress": "0x065e8a87b8f11aed6facf9447abe5e8c5d7502b6",
                    "gasUsed": 89233,
                    "id": 16,
                    "methodDecoded": true,
                    "operation": "CALL",
                    "output": "0x0000000000000000000000000000000000000000000000000000000000000001",
                    "revert": false,
                    "revertMessage": "",
                    "selector": "0x23b872dd",
                    "status": true,
                    "value": "0"
                },
                "nodeType": 0
            },
            "17": {
                "event": {
                    "contract": "0x4200000000000000000000000000000000000042",
                    "decodedLog": {
                        "name": "Approval",
                        "params": [
                            {
                                "name": "owner",
                                "type": "address",
                                "value": "0x4d9618239044a2ab2581f0cc954d28873afa4d7b"
                            },
                            {
                                "name": "spender",
                                "type": "address",
                                "value": "0x065e8a87b8f11aed6facf9447abe5e8c5d7502b6"
                            },
                            {
                                "decimalAvailable": true,
                                "name": "value",
                                "type": "uint256",
                                "value": "1,999,926,595,203,223,739,098,727"
                            }
                        ],
                        "signature": "Approval(address,address,uint256)"
                    },
                    "id": 17,
                    "logData": "0x00000000000000000000000000000000000000000001a7803ceb601a8f3ae667",
                    "logDecoded": true,
                    "operation": "EVENT",
                    "revert": false,
                    "status": true,
                    "topics": [
                        "0x8c5be1e5ebec7d5bd14f71427d1e84f3dd0314c0f7b2291e5b200ac8c7c3b925",
                        "0x0000000000000000000000004d9618239044a2ab2581f0cc954d28873afa4d7b",
                        "0x000000000000000000000000065e8a87b8f11aed6facf9447abe5e8c5d7502b6"
                    ]
                },
                "nodeType": 1
            },
            "18": {
                "event": {
                    "contract": "0x4200000000000000000000000000000000000042",
                    "decodedLog": {
                        "name": "Transfer",
                        "params": [
                            {
                                "name": "from",
                                "type": "address",
                                "value": "0x4d9618239044a2ab2581f0cc954d28873afa4d7b"
                            },
                            {
                                "name": "to",
                                "type": "address",
                                "value": "0xec1557a67d4980c948cd473075293204f4d280fd"
                            },
                            {
                                "decimalAvailable": true,
                                "name": "value",
                                "type": "uint256",
                                "value": "68,404,796,776,260,901,273"
                            }
                        ],
                        "signature": "Transfer(address,address,uint256)"
                    },
                    "id": 18,
                    "logData": "0x000000000000000000000000000000000000000000000003b54ea83e6dd11999",
                    "logDecoded": true,
                    "operation": "EVENT",
                    "revert": false,
                    "status": true,
                    "topics": [
                        "0xddf252ad1be2c89b69c2b068fc378daa952ba7f163c4a11628f55a4df523b3ef",
                        "0x0000000000000000000000004d9618239044a2ab2581f0cc954d28873afa4d7b",
                        "0x000000000000000000000000ec1557a67d4980c948cd473075293204f4d280fd"
                    ]
                },
                "nodeType": 1
            },
            "19": {
                "event": {
                    "contract": "0x4200000000000000000000000000000000000042",
                    "decodedLog": {
                        "name": "DelegateVotesChanged",
                        "params": [
                            {
                                "name": "delegate",
                                "type": "address",
                                "value": "0x4d9618239044a2ab2581f0cc954d28873afa4d7b"
                            },
                            {
                                "name": "previousBalance",
                                "type": "uint256",
                                "value": "2,736,191,871,050,436,050,944"
                            },
                            {
                                "name": "newBalance",
                                "type": "uint256",
                                "value": "2,667,787,074,274,175,149,671"
                            }
                        ],
                        "signature": "DelegateVotesChanged(address,uint256,uint256)"
                    },
                    "id": 19,
                    "logData": "0x000000000000000000000000000000000000000000000094544a49c128ac00000000000000000000000000000000000000000000000000909efba182badae667",
                    "logDecoded": true,
                    "operation": "EVENT",
                    "revert": false,
                    "status": true,
                    "topics": [
                        "0xdec2bacdd2f05b59de34da9b523dff8be42e5e38e818c82fdb0bae774387a724",
                        "0x0000000000000000000000004d9618239044a2ab2581f0cc954d28873afa4d7b"
                    ]
                },
                "nodeType": 1
            },
            "2": {
                "invocation": {
                    "address": "0x4200000000000000000000000000000000000042",
                    "callData": "0x0000000000000000000000004d9618239044a2ab2581f0cc954d28873afa4d7b",
                    "decodedMethod": {
                        "callParams": [
                            {
                                "name": "account",
                                "type": "address",
                                "value": "0x4d9618239044a2ab2581f0cc954d28873afa4d7b"
                            }
                        ],
                        "constructorArguments": "",
                        "name": "balanceOf",
                        "returnParams": [
                            {
                                "decimalAvailable": true,
                                "name": "",
                                "type": "uint256",
                                "value": "2,736,191,871,050,436,050,944"
                            }
                        ],
                        "signature": "balanceOf(address)"
                    },
                    "errorInfo": "",
                    "fromAddress": "0x065e8a87b8f11aed6facf9447abe5e8c5d7502b6",
                    "gasUsed": 2952,
                    "id": 2,
                    "methodDecoded": true,
                    "operation": "STATICCALL",
                    "output": "0x000000000000000000000000000000000000000000000094544a49c128ac0000",
                    "revert": false,
                    "revertMessage": "",
                    "selector": "0x70a08231",
                    "status": true,
                    "value": "0"
                },
                "nodeType": 0
            },
            "20": {
                "event": {
                    "contract": "0x4200000000000000000000000000000000000042",
                    "decodedLog": {
                        "name": "DelegateVotesChanged",
                        "params": [
                            {
                                "name": "delegate",
                                "type": "address",
                                "value": "0xb1ea5a3e5ea7fa1834d48058ecda26d8c59e8251"
                            },
                            {
                                "name": "previousBalance",
                                "type": "uint256",
                                "value": "2,604,937,019,090,100,274,783,395"
                            },
                            {
                                "name": "newBalance",
                                "type": "uint256",
                                "value": "2,605,005,423,886,876,535,684,668"
                            }
                        ],
                        "signature": "DelegateVotesChanged(address,uint256,uint256)"
                    },
                    "id": 20,
                    "logData": "0x00000000000000000000000000000000000000000002279deb34229c861ee4a30000000000000000000000000000000000000000000227a1a082cadaf3effe3c",
                    "logDecoded": true,
                    "operation": "EVENT",
                    "revert": false,
                    "status": true,
                    "topics": [
                        "0xdec2bacdd2f05b59de34da9b523dff8be42e5e38e818c82fdb0bae774387a724",
                        "0x000000000000000000000000b1ea5a3e5ea7fa1834d48058ecda26d8c59e8251"
                    ]
                },
                "nodeType": 1
            },
            "21": {
                "invocation": {
                    "address": "0x4200000000000000000000000000000000000042",
                    "callData": "0x0000000000000000000000004d9618239044a2ab2581f0cc954d28873afa4d7b0000000000000000000000000a0805082ea0fc8bfdcc6218a986efda6704efe50000000000000000000000000000000000000000000000909efba182badae667",
                    "decodedMethod": {
                        "callParams": [
                            {
                                "name": "from",
                                "type": "address",
                                "value": "0x4d9618239044a2ab2581f0cc954d28873afa4d7b"
                            },
                            {
                                "name": "to",
                                "type": "address",
                                "value": "0x0a0805082ea0fc8bfdcc6218a986efda6704efe5"
                            },
                            {
                                "decimalAvailable": true,
                                "name": "amount",
                                "type": "uint256",
                                "value": "2,667,787,074,274,175,149,671"
                            }
                        ],
                        "constructorArguments": "",
                        "name": "transferFrom",
                        "returnParams": [
                            {
                                "name": "",
                                "type": "bool",
                                "value": true
                            }
                        ],
                        "signature": "transferFrom(address,address,uint256)"
                    },
                    "errorInfo": "",
                    "fromAddress": "0x065e8a87b8f11aed6facf9447abe5e8c5d7502b6",
                    "gasUsed": 19052,
                    "id": 21,
                    "methodDecoded": true,
                    "operation": "CALL",
                    "output": "0x0000000000000000000000000000000000000000000000000000000000000001",
                    "revert": false,
                    "revertMessage": "",
                    "selector": "0x23b872dd",
                    "status": true,
                    "value": "0"
                },
                "nodeType": 0
            },
            "22": {
                "event": {
                    "contract": "0x4200000000000000000000000000000000000042",
                    "decodedLog": {
                        "name": "Approval",
                        "params": [
                            {
                                "name": "owner",
                                "type": "address",
                                "value": "0x4d9618239044a2ab2581f0cc954d28873afa4d7b"
                            },
                            {
                                "name": "spender",
                                "type": "address",
                                "value": "0x065e8a87b8f11aed6facf9447abe5e8c5d7502b6"
                            },
                            {
                                "decimalAvailable": true,
                                "name": "value",
                                "type": "uint256",
                                "value": "1,997,258,808,128,949,563,949,056"
                            }
                        ],
                        "signature": "Approval(address,address,uint256)"
                    },
                    "id": 22,
                    "logData": "0x00000000000000000000000000000000000000000001a6ef9defbe97d4600000",
                    "logDecoded": true,
                    "operation": "EVENT",
                    "revert": false,
                    "status": true,
                    "topics": [
                        "0x8c5be1e5ebec7d5bd14f71427d1e84f3dd0314c0f7b2291e5b200ac8c7c3b925",
                        "0x0000000000000000000000004d9618239044a2ab2581f0cc954d28873afa4d7b",
                        "0x000000000000000000000000065e8a87b8f11aed6facf9447abe5e8c5d7502b6"
                    ]
                },
                "nodeType": 1
            },
            "23": {
                "event": {
                    "contract": "0x4200000000000000000000000000000000000042",
                    "decodedLog": {
                        "name": "Transfer",
                        "params": [
                            {
                                "name": "from",
                                "type": "address",
                                "value": "0x4d9618239044a2ab2581f0cc954d28873afa4d7b"
                            },
                            {
                                "name": "to",
                                "type": "address",
                                "value": "0x0a0805082ea0fc8bfdcc6218a986efda6704efe5"
                            },
                            {
                                "decimalAvailable": true,
                                "name": "value",
                                "type": "uint256",
                                "value": "2,667,787,074,274,175,149,671"
                            }
                        ],
                        "signature": "Transfer(address,address,uint256)"
                    },
                    "id": 23,
                    "logData": "0x0000000000000000000000000000000000000000000000909efba182badae667",
                    "logDecoded": true,
                    "operation": "EVENT",
                    "revert": false,
                    "status": true,
                    "topics": [
                        "0xddf252ad1be2c89b69c2b068fc378daa952ba7f163c4a11628f55a4df523b3ef",
                        "0x0000000000000000000000004d9618239044a2ab2581f0cc954d28873afa4d7b",
                        "0x0000000000000000000000000a0805082ea0fc8bfdcc6218a986efda6704efe5"
                    ]
                },
                "nodeType": 1
            },
            "24": {
                "event": {
                    "contract": "0x4200000000000000000000000000000000000042",
                    "decodedLog": {
                        "name": "DelegateVotesChanged",
                        "params": [
                            {
                                "name": "delegate",
                                "type": "address",
                                "value": "0x4d9618239044a2ab2581f0cc954d28873afa4d7b"
                            },
                            {
                                "name": "previousBalance",
                                "type": "uint256",
                                "value": "2,667,787,074,274,175,149,671"
                            },
                            {
                                "name": "newBalance",
                                "type": "uint256",
                                "value": "0"
                            }
                        ],
                        "signature": "DelegateVotesChanged(address,uint256,uint256)"
                    },
                    "id": 24,
                    "logData": "0x0000000000000000000000000000000000000000000000909efba182badae6670000000000000000000000000000000000000000000000000000000000000000",
                    "logDecoded": true,
                    "operation": "EVENT",
                    "revert": false,
                    "status": true,
                    "topics": [
                        "0xdec2bacdd2f05b59de34da9b523dff8be42e5e38e818c82fdb0bae774387a724",
                        "0x0000000000000000000000004d9618239044a2ab2581f0cc954d28873afa4d7b"
                    ]
                },
                "nodeType": 1
            },
            "3": {
                "invocation": {
                    "address": "0x4200000000000000000000000000000000000042",
                    "callData": "0x0000000000000000000000004d9618239044a2ab2581f0cc954d28873afa4d7b000000000000000000000000065e8a87b8f11aed6facf9447abe5e8c5d7502b6",
                    "decodedMethod": {
                        "callParams": [
                            {
                                "name": "owner",
                                "type": "address",
                                "value": "0x4d9618239044a2ab2581f0cc954d28873afa4d7b"
                            },
                            {
                                "name": "spender",
                                "type": "address",
                                "value": "0x065e8a87b8f11aed6facf9447abe5e8c5d7502b6"
                            }
                        ],
                        "constructorArguments": "",
                        "name": "allowance",
                        "returnParams": [
                            {
                                "decimalAvailable": true,
                                "name": "",
                                "type": "uint256",
                                "value": "1,999,995,000,000,000,000,000,000"
                            }
                        ],
                        "signature": "allowance(address,address)"
                    },
                    "errorInfo": "",
                    "fromAddress": "0x065e8a87b8f11aed6facf9447abe5e8c5d7502b6",
                    "gasUsed": 3219,
                    "id": 3,
                    "methodDecoded": true,
                    "operation": "STATICCALL",
                    "output": "0x00000000000000000000000000000000000000000001a783f23a0858fd0c0000",
                    "revert": false,
                    "revertMessage": "",
                    "selector": "0xdd62ed3e",
                    "status": true,
                    "value": "0"
                },
                "nodeType": 0
            },
            "4": {
                "invocation": {
                    "address": "0x522149e80bcef74de8592a48a4698e195c38ad37",
                    "callData": "0x0000000000000000000000000a0805082ea0fc8bfdcc6218a986efda6704efe5000000000000000000000000be81eabdbd437cba43e4c1c330c63022772c25200000000000000000000000000000000000000000000000000000000000000001",
                    "decodedMethod": {
                        "callParams": [
                            {
                                "name": "addr",
                                "type": "address",
                                "value": "0x0a0805082ea0fc8bfdcc6218a986efda6704efe5"
                            },
                            {
                                "name": "tokenAddr",
                                "type": "address",
                                "value": "0xbe81eabdbd437cba43e4c1c330c63022772c2520"
                            },
                            {
                                "name": "tokenId",
                                "type": "uint256",
                                "value": "1"
                            }
                        ],
                        "constructorArguments": "",
                        "name": "getSellOrderCancellationBlockNumber",
                        "returnParams": [
                            {
                                "name": "",
                                "type": "uint256",
                                "value": "13,591,381"
                            }
                        ],
                        "signature": "getSellOrderCancellationBlockNumber(address,address,uint256)"
                    },
                    "errorInfo": "",
                    "fromAddress": "0x065e8a87b8f11aed6facf9447abe5e8c5d7502b6",
                    "gasUsed": 2932,
                    "id": 4,
                    "methodDecoded": true,
                    "operation": "STATICCALL",
                    "output": "0x0000000000000000000000000000000000000000000000000000000000cf6355",
                    "revert": false,
                    "revertMessage": "",
                    "selector": "0xbc1389c8",
                    "status": true,
                    "value": "0"
                },
                "nodeType": 0
            },
            "5": {
                "invocation": {
                    "address": "0x0000000000000000000000000000000000000001",
                    "callData": "0x95c766dba0f4c425f8bfd7fe65d5edf91cc94e384147b31d37cbe44d000000000000000000000000000000000000000000000000000000000000001c28bc2ff1634b13821eac466ef6875c44f1f556d00d3cafce02da07b217da395131294339d96a01922b83f8e3c67e74652198b3a6db79d7ddd48807b9ec6ae049",
                    "decodedMethod": {
                        "callParams": [
                            {
                                "name": "hash",
                                "type": "bytes32",
                                "value": "0xe658da3195c766dba0f4c425f8bfd7fe65d5edf91cc94e384147b31d37cbe44d"
                            },
                            {
                                "name": "v",
                                "type": "uint256",
                                "value": "28"
                            },
                            {
                                "name": "r",
                                "type": "bytes32",
                                "value": "0x28bc2ff1634b13821eac466ef6875c44f1f556d00d3cafce02da07b217da3951"
                            },
                            {
                                "name": "s",
                                "type": "bytes32",
                                "value": "0x31294339d96a01922b83f8e3c67e74652198b3a6db79d7ddd48807b9ec6ae049"
                            }
                        ],
                        "constructorArguments": "",
                        "name": "ecrecover",
                        "returnParams": [
                            {
                                "name": "",
                                "type": "address",
                                "value": "0x0a0805082ea0fc8bfdcc6218a986efda6704efe5"
                            }
                        ],
                        "signature": "ecrecover(bytes32,uint256,bytes32,bytes32)"
                    },
                    "errorInfo": "",
                    "fromAddress": "0x065e8a87b8f11aed6facf9447abe5e8c5d7502b6",
                    "gasUsed": 3000,
                    "id": 5,
                    "methodDecoded": true,
                    "operation": "STATICCALL",
                    "output": "0x0000000000000000000000000a0805082ea0fc8bfdcc6218a986efda6704efe5",
                    "revert": false,
                    "revertMessage": "",
                    "selector": "0xe658da31",
                    "status": true,
                    "value": "0"
                },
                "nodeType": 0
            },
            "6": {
                "invocation": {
                    "address": "0x522149e80bcef74de8592a48a4698e195c38ad37",
                    "callData": "0x0000000000000000000000000a0805082ea0fc8bfdcc6218a986efda6704efe5000000000000000000000000be81eabdbd437cba43e4c1c330c63022772c25200000000000000000000000000000000000000000000000000000000000000001",
                    "decodedMethod": {
                        "callParams": [
                            {
                                "name": "seller",
                                "type": "address",
                                "value": "0x0a0805082ea0fc8bfdcc6218a986efda6704efe5"
                            },
                            {
                                "name": "tokenAddr",
                                "type": "address",
                                "value": "0xbe81eabdbd437cba43e4c1c330c63022772c2520"
                            },
                            {
                                "name": "tokenId",
                                "type": "uint256",
                                "value": "1"
                            }
                        ],
                        "constructorArguments": "",
                        "name": "cancelPreviousSellOrders",
                        "returnParams": [],
                        "signature": "cancelPreviousSellOrders(address,address,uint256)"
                    },
                    "errorInfo": "",
                    "fromAddress": "0x065e8a87b8f11aed6facf9447abe5e8c5d7502b6",
                    "gasUsed": 5818,
                    "id": 6,
                    "methodDecoded": true,
                    "operation": "CALL",
                    "output": "",
                    "revert": false,
                    "revertMessage": "",
                    "selector": "0x083d089d",
                    "status": true,
                    "value": "0"
                },
                "nodeType": 0
            },
            "7": {
                "event": {
                    "contract": "0x065e8a87b8f11aed6facf9447abe5e8c5d7502b6",
                    "decodedLog": {
                        "name": "SellOrderFilled",
                        "params": [
                            {
                                "name": "seller",
                                "type": "address",
                                "value": "0x0a0805082ea0fc8bfdcc6218a986efda6704efe5"
                            },
                            {
                                "name": "contractAddress",
                                "type": "address",
                                "value": "0xbe81eabdbd437cba43e4c1c330c63022772c2520"
                            },
                            {
                                "name": "tokenId",
                                "type": "uint256",
                                "value": "1"
                            },
                            {
                                "name": "buyer",
                                "type": "address",
                                "value": "0x4d9618239044a2ab2581f0cc954d28873afa4d7b"
                            },
                            {
                                "name": "price",
                                "type": "uint256",
                                "value": "2,736,191,871,050,436,050,944"
                            }
                        ],
                        "signature": "SellOrderFilled(address,address,address,uint256,uint256)"
                    },
                    "id": 7,
                    "logData": "0x0000000000000000000000004d9618239044a2ab2581f0cc954d28873afa4d7b000000000000000000000000000000000000000000000094544a49c128ac0000",
                    "logDecoded": true,
                    "operation": "EVENT",
                    "revert": false,
                    "status": true,
                    "topics": [
                        "0x70ba0d31158674eea8365d0f7b9ac70e552cc28b8bb848664e4feb939c6578f8",
                        "0x0000000000000000000000000a0805082ea0fc8bfdcc6218a986efda6704efe5",
                        "0x000000000000000000000000be81eabdbd437cba43e4c1c330c63022772c2520",
                        "0x0000000000000000000000000000000000000000000000000000000000000001"
                    ]
                },
                "nodeType": 1
            },
            "8": {
                "invocation": {
                    "address": "0xbe81eabdbd437cba43e4c1c330c63022772c2520",
                    "callData": "0x01ffc9a700000000000000000000000000000000000000000000000000000000",
                    "decodedMethod": {
                        "callParams": [
                            {
                                "name": "interfaceId",
                                "type": "bytes4",
                                "value": "0x01ffc9a7"
                            }
                        ],
                        "constructorArguments": "",
                        "name": "supportsInterface",
                        "returnParams": [
                            {
                                "name": "",
                                "type": "bool",
                                "value": true
                            }
                        ],
                        "signature": "supportsInterface(bytes4)"
                    },
                    "errorInfo": "",
                    "fromAddress": "0x065e8a87b8f11aed6facf9447abe5e8c5d7502b6",
                    "gasUsed": 677,
                    "id": 8,
                    "methodDecoded": true,
                    "operation": "STATICCALL",
                    "output": "0x0000000000000000000000000000000000000000000000000000000000000001",
                    "revert": false,
                    "revertMessage": "",
                    "selector": "0x01ffc9a7",
                    "status": true,
                    "value": "0"
                },
                "nodeType": 0
            },
            "9": {
                "invocation": {
                    "address": "0xbe81eabdbd437cba43e4c1c330c63022772c2520",
                    "callData": "0xffffffff00000000000000000000000000000000000000000000000000000000",
                    "decodedMethod": {
                        "callParams": [
                            {
                                "name": "interfaceId",
                                "type": "bytes4",
                                "value": "0xffffffff"
                            }
                        ],
                        "constructorArguments": "",
                        "name": "supportsInterface",
                        "returnParams": [
                            {
                                "name": "",
                                "type": "bool",
                                "value": false
                            }
                        ],
                        "signature": "supportsInterface(bytes4)"
                    },
                    "errorInfo": "",
                    "fromAddress": "0x065e8a87b8f11aed6facf9447abe5e8c5d7502b6",
                    "gasUsed": 661,
                    "id": 9,
                    "methodDecoded": true,
                    "operation": "STATICCALL",
                    "output": "0x0000000000000000000000000000000000000000000000000000000000000000",
                    "revert": false,
                    "revertMessage": "",
                    "selector": "0x01ffc9a7",
                    "status": true,
                    "value": "0"
                },
                "nodeType": 0
            }
        },
        "gasFlame": [
            {
                "children": [
                    {
                        "children": [
                            {
                                "children": [],
                                "depth": 0,
                                "name": "Initial Gas",
                                "value": 25420
                            },
                            {
                                "children": [
                                    {
                                        "children": [],
                                        "depth": 1,
                                        "name": "isApprovedERC20",
                                        "value": 2480
                                    },
                                    {
                                        "children": [],
                                        "depth": 1,
                                        "name": "balanceOf",
                                        "value": 2952
                                    },
                                    {
                                        "children": [],
                                        "depth": 1,
                                        "name": "allowance",
                                        "value": 3219
                                    },
                                    {
                                        "children": [],
                                        "depth": 1,
                                        "name": "getSellOrderCancellationBlockNumber",
                                        "value": 2932
                                    },
                                    {
                                        "children": [],
                                        "depth": 1,
                                        "name": "ecrecover",
                                        "value": 3000
                                    },
                                    {
                                        "children": [],
                                        "depth": 1,
                                        "name": "cancelPreviousSellOrders",
                                        "value": 5818
                                    },
                                    {
                                        "children": [],
                                        "depth": 1,
                                        "name": "supportsInterface",
                                        "value": 677
                                    },
                                    {
                                        "children": [],
                                        "depth": 1,
                                        "name": "supportsInterface",
                                        "value": 661
                                    },
                                    {
                                        "children": [],
                                        "depth": 1,
                                        "name": "supportsInterface",
                                        "value": 687
                                    },
                                    {
                                        "children": [],
                                        "depth": 1,
                                        "name": "supportsInterface",
                                        "value": 677
                                    },
                                    {
                                        "children": [],
                                        "depth": 1,
                                        "name": "supportsInterface",
                                        "value": 661
                                    },
                                    {
                                        "children": [],
                                        "depth": 1,
                                        "name": "supportsInterface",
                                        "value": 677
                                    },
                                    {
                                        "children": [],
                                        "depth": 1,
                                        "name": "safeTransferFrom",
                                        "value": 1283
                                    },
                                    {
                                        "children": [],
                                        "depth": 1,
                                        "name": "getRoyaltyPayoutRate",
                                        "value": 2597
                                    },
                                    {
                                        "children": [],
                                        "depth": 1,
                                        "name": "transferFrom",
                                        "value": 89233
                                    },
                                    {
                                        "children": [],
                                        "depth": 1,
                                        "name": "transferFrom",
                                        "value": 19052
                                    }
                                ],
                                "depth": 0,
                                "name": "Executed Gas",
                                "value": 189118
                            }
                        ],
                        "depth": -1,
                        "name": "Actual Gas Used",
                        "value": 206938
                    },
                    {
                        "children": [],
                        "depth": -1,
                        "name": "Refunded Gas",
                        "value": 7600
                    }
                ],
                "depth": -2,
                "name": "Total Gas",
                "value": 214538
            }
        ],
        "isConfirmed": true,
        "mainTrace": [
            {
                "children": [
                    {
                        "children": [
                            {
                                "children": [],
                                "depth": 1,
                                "id": 1,
                                "order": 1
                            },
                            {
                                "children": [],
                                "depth": 1,
                                "id": 2,
                                "order": 2
                            },
                            {
                                "children": [],
                                "depth": 1,
                                "id": 3,
                                "order": 3
                            },
                            {
                                "children": [],
                                "depth": 1,
                                "id": 4,
                                "order": 4
                            },
                            {
                                "children": [],
                                "depth": 1,
                                "id": 5,
                                "order": 5
                            },
                            {
                                "children": [],
                                "depth": 1,
                                "id": 6,
                                "order": 6
                            },
                            {
                                "children": [],
                                "depth": 1,
                                "id": 7,
                                "order": 7
                            },
                            {
                                "children": [],
                                "depth": 1,
                                "id": 8,
                                "order": 8
                            },
                            {
                                "children": [],
                                "depth": 1,
                                "id": 9,
                                "order": 9
                            },
                            {
                                "children": [],
                                "depth": 1,
                                "id": 10,
                                "order": 10
                            },
                            {
                                "children": [],
                                "depth": 1,
                                "id": 11,
                                "order": 11
                            },
                            {
                                "children": [],
                                "depth": 1,
                                "id": 12,
                                "order": 12
                            },
                            {
                                "children": [],
                                "depth": 1,
                                "id": 13,
                                "order": 13
                            },
                            {
                                "children": [],
                                "depth": 1,
                                "id": 14,
                                "order": 14
                            },
                            {
                                "children": [],
                                "depth": 1,
                                "id": 15,
                                "order": 15
                            },
                            {
                                "children": [
                                    {
                                        "children": [],
                                        "depth": 2,
                                        "id": 17,
                                        "order": 17
                                    },
                                    {
                                        "children": [],
                                        "depth": 2,
                                        "id": 18,
                                        "order": 18
                                    },
                                    {
                                        "children": [],
                                        "depth": 2,
                                        "id": 19,
                                        "order": 19
                                    },
                                    {
                                        "children": [],
                                        "depth": 2,
                                        "id": 20,
                                        "order": 20
                                    }
                                ],
                                "depth": 1,
                                "id": 16,
                                "order": 16
                            },
                            {
                                "children": [
                                    {
                                        "children": [],
                                        "depth": 2,
                                        "id": 22,
                                        "order": 22
                                    },
                                    {
                                        "children": [],
                                        "depth": 2,
                                        "id": 23,
                                        "order": 23
                                    },
                                    {
                                        "children": [],
                                        "depth": 2,
                                        "id": 24,
                                        "order": 24
                                    }
                                ],
                                "depth": 1,
                                "id": 21,
                                "order": 21
                            }
                        ],
                        "depth": 0,
                        "id": 0,
                        "order": 0
                    }
                ],
                "depth": -1,
                "id": -1,
                "order": -1
            }
        ],
        "mainTraceNodeCount": 25,
        "parentIdMap": {
            "0": -1,
            "1": 0,
            "10": 0,
            "11": 0,
            "12": 0,
            "13": 0,
            "14": 0,
            "15": 0,
            "16": 0,
            "17": 16,
            "18": 16,
            "19": 16,
            "2": 0,
            "20": 16,
            "21": 0,
            "22": 21,
            "23": 21,
            "24": 21,
            "3": 0,
            "4": 0,
            "5": 0,
            "6": 0,
            "7": 0,
            "8": 0,
            "9": 0
        },
        "tidyTrace": [
            {
                "children": [
                    {
                        "children": [
                            {
                                "children": [],
                                "depth": 1,
                                "id": 6,
                                "order": 6
                            },
                            {
                                "children": [],
                                "depth": 1,
                                "id": 7,
                                "order": 7
                            },
                            {
                                "children": [],
                                "depth": 1,
                                "id": 14,
                                "order": 14
                            },
                            {
                                "children": [
                                    {
                                        "children": [],
                                        "depth": 2,
                                        "id": 17,
                                        "order": 17
                                    },
                                    {
                                        "children": [],
                                        "depth": 2,
                                        "id": 18,
                                        "order": 18
                                    },
                                    {
                                        "children": [],
                                        "depth": 2,
                                        "id": 19,
                                        "order": 19
                                    },
                                    {
                                        "children": [],
                                        "depth": 2,
                                        "id": 20,
                                        "order": 20
                                    }
                                ],
                                "depth": 1,
                                "id": 16,
                                "order": 16
                            },
                            {
                                "children": [
                                    {
                                        "children": [],
                                        "depth": 2,
                                        "id": 22,
                                        "order": 22
                                    },
                                    {
                                        "children": [],
                                        "depth": 2,
                                        "id": 23,
                                        "order": 23
                                    },
                                    {
                                        "children": [],
                                        "depth": 2,
                                        "id": 24,
                                        "order": 24
                                    }
                                ],
                                "depth": 1,
                                "id": 21,
                                "order": 21
                            }
                        ],
                        "depth": 0,
                        "id": 0,
                        "order": 0
                    }
                ],
                "depth": -1,
                "id": -1,
                "order": -1
            }
        ],
        "tidyTraceNodeCount": 13
    },
    "state_change": {
        "stateChanges": [
            {
                "address": "0x4200000000000000000000000000000000000042",
                "erc": "ERC-20",
                "slots": [
                    {
                        "current": "0x000000000000000000000000000000000000000000002ad2a08cec52d8fd015e",
                        "key": "0x13919925da80894d5c067a2719e3198c169345147908bedc1a9f0efccc4b66e5",
                        "prev": "0x000000000000000000000000000000000000000000002a4201914ad01e221af7"
                    },
                    {
                        "current": "0x00000000000000000000000000000000000227a1a082cadaf3effe3c00cf6358",
                        "key": "0x57c84d5b90b287c0661d6da85a3e8417c7ae51cbd4e262de018c5532c199b6df",
                        "prev": "0x0000000000000000000000000000000000000000000000000000000000000000"
                    },
                    {
                        "current": "0x00000000000000000000000000000000000000000001a6ef9defbe97d4600000",
                        "key": "0x5edee17d9afde49f64b91dcc1c9266037d55e2b6d14294025d9f0f547ad14be7",
                        "prev": "0x00000000000000000000000000000000000000000001a783f23a0858fd0c0000"
                    },
                    {
                        "current": "0x0000000000000000000000000000000000000000000000000000000000000000",
                        "key": "0x0da6a0115db8a8c0e85a0d09f62d495696545b04232234fbc000448fb24564d7",
                        "prev": "0x000000000000000000000000000000000000000000000094544a49c128ac0000"
                    },
                    {
                        "current": "0x0000000000000000000000000000000000000000000001ab7342c4b2ff9b4b05",
                        "key": "0xbe16a5d8857e81fb3cef28e272b30d727afe66d1019670a4b2545c6377398053",
                        "prev": "0x0000000000000000000000000000000000000000000001a7bdf41c7491ca316c"
                    },
                    {
                        "current": "0x0000000000000000000000000000000000000000000000000000000000000003",
                        "key": "0xfa6bb9100af8e2d8a5aec128bb9744a073cfc8e35f4a8e241e9e9e8be15501ab",
                        "prev": "0x0000000000000000000000000000000000000000000000000000000000000002"
                    },
                    {
                        "current": "0x0000000000000000000000000000000000000000000000000000000000cf6358",
                        "key": "0x51898ce1c97892743969f1d03cf0c47646d2c812fdc881ab649a37aadfe7e48a",
                        "prev": "0x0000000000000000000000000000000000000000000000000000000000000000"
                    },
                    {
                        "current": "0x00000000000000000000000000000000000000000000000000000000000084bb",
                        "key": "0x279fb8e21eadca011a206b4e476e88ad9b31da0dfabf42757a6fad8c0dd17c22",
                        "prev": "0x00000000000000000000000000000000000000000000000000000000000084ba"
                    }
                ],
                "storageVariables": [
                    {
                        "name": "_allowances",
                        "type": "mapping(address => mapping(address => uint256))",
                        "value": {
                            "pairs": [
                                {
                                    "key": "0x4d9618239044a2ab2581f0cc954d28873afa4d7b",
                                    "value": {
                                        "pairs": [
                                            {
                                                "key": "0x065e8a87b8f11aed6facf9447abe5e8c5d7502b6",
                                                "value": {
                                                    "current": "1997258808128949563949056",
                                                    "prev": "1999995000000000000000000",
                                                    "typeTag": 1
                                                }
                                            }
                                        ],
                                        "typeTag": 4
                                    }
                                }
                            ],
                            "typeTag": 4
                        }
                    },
                    {
                        "name": "_balances",
                        "type": "mapping(address => uint256)",
                        "value": {
                            "pairs": [
                                {
                                    "key": "0x0a0805082ea0fc8bfdcc6218a986efda6704efe5",
                                    "value": {
                                        "current": "202224777417387484709214",
                                        "prev": "199556990343113309559543",
                                        "typeTag": 1
                                    }
                                },
                                {
                                    "key": "0x4d9618239044a2ab2581f0cc954d28873afa4d7b",
                                    "value": {
                                        "current": "0",
                                        "prev": "2736191871050436050944",
                                        "typeTag": 1
                                    }
                                },
                                {
                                    "key": "0xec1557a67d4980c948cd473075293204f4d280fd",
                                    "value": {
                                        "current": "7885065136409874746117",
                                        "prev": "7816660339633613844844",
                                        "typeTag": 1
                                    }
                                }
                            ],
                            "typeTag": 4
                        }
                    },
                    {
                        "name": "_checkpoints",
                        "type": "mapping(address => struct ERC20Votes.Checkpoint[])",
                        "value": {
                            "pairs": [
                                {
                                    "key": "0x4d9618239044a2ab2581f0cc954d28873afa4d7b",
                                    "value": {
                                        "elemType": "struct ERC20Votes.Checkpoint",
                                        "elems": [
                                            {
                                                "index": 2,
                                                "value": {
                                                    "fields": [
                                                        {
                                                            "name": "fromBlock",
                                                            "type": "uint32",
                                                            "value": {
                                                                "current": "13591384",
                                                                "prev": "0",
                                                                "typeTag": 1
                                                            }
                                                        },
                                                        {
                                                            "name": "votes",
                                                            "type": "uint224",
                                                            "value": {
                                                                "current": "0",
                                                                "prev": "0",
                                                                "typeTag": 1
                                                            }
                                                        }
                                                    ],
                                                    "typeTag": 3
                                                }
                                            }
                                        ],
                                        "typeTag": 2
                                    }
                                },
                                {
                                    "key": "0xb1ea5a3e5ea7fa1834d48058ecda26d8c59e8251",
                                    "value": {
                                        "elemType": "struct ERC20Votes.Checkpoint",
                                        "elems": [
                                            {
                                                "index": 33978,
                                                "value": {
                                                    "fields": [
                                                        {
                                                            "name": "fromBlock",
                                                            "type": "uint32",
                                                            "value": {
                                                                "current": "13591384",
                                                                "prev": "0",
                                                                "typeTag": 1
                                                            }
                                                        },
                                                        {
                                                            "name": "votes",
                                                            "type": "uint224",
                                                            "value": {
                                                                "current": "2605005423886876535684668",
                                                                "prev": "0",
                                                                "typeTag": 1
                                                            }
                                                        }
                                                    ],
                                                    "typeTag": 3
                                                }
                                            }
                                        ],
                                        "typeTag": 2
                                    }
                                }
                            ],
                            "typeTag": 4
                        }
                    }
                ]
            },
            {
                "address": "0x522149e80bcef74de8592a48a4698e195c38ad37",
                "erc": "",
                "slots": [
                    {
                        "current": "0x0000000000000000000000000000000000000000000000000000000000cf6358",
                        "key": "0xa96e8397651abdf92247640f28aa9a6c99b5694b181cd44b32715121407adaa7",
                        "prev": "0x0000000000000000000000000000000000000000000000000000000000cf6355"
                    }
                ],
                "storageVariables": [
                    {
                        "name": "orderCancellationBlockNumber",
                        "type": "mapping(bytes32 => uint256)",
                        "value": {
                            "pairs": [
                                {
                                    "key": "0xf162864a0c1388f0d183a815630a9d86b3f6687fd6a69c0285dc7e2df61ff2bf",
                                    "value": {
                                        "current": "13591384",
                                        "prev": "13591381",
                                        "typeTag": 1
                                    }
                                }
                            ],
                            "typeTag": 4
                        }
                    }
                ]
            }
        ]
    }
}