{
    "balance_change": {
        "balanceChanges": [
            {
                "account": "0x8b3cb6bf982798fba233bca56749e22eec42dcf3",
                "assets": [
                    {
                        "address": "0xdac17f958d2ee523a2206206994597c13d831ec7",
                        "amount": "5,383.523674",
                        "iconUrl": "https://assets.blocksec.com/icon/fcea71f3193ce895be44bfdf941f7e4c9381dd587f273c2d1a27f1263d84e4ea.png",
                        "isERC1155": false,
                        "isERC721": false,
                        "sign": true,
                        "value": "5388.9071976739994074"
                    }
                ]
            },
            {
                "account": "0x0606a235a4e4f230d1e8968083d1b61b335ff878",
                "assets": [
                    {
                        "address": "0xeeeeeeeeeeeeeeeeeeeeeeeeeeeeeeeeeeeeeeee",
                        "amount": "0.000000000000000002",
                        "iconUrl": "https://assets.blocksec.com/image/1663669189317-3.png",
                        "isERC1155": false,
                        "isERC721": false,
                        "sign": false,
                        "value": "0.0000000000000068201999999999998178"
                    }
                ]
            },
            {
                "account": "0x9e22ebec84c7e4c4bd6d4ae7ff6f4d436d6d8390",
                "assets": [
                    {
                        "address": "0xeeeeeeeeeeeeeeeeeeeeeeeeeeeeeeeeeeeeeeee",
                        "amount": "0.000000000000000002",
                        "iconUrl": "https://assets.blocksec.com/image/1663669189317-3.png",
                        "isERC1155": false,
                        "isERC721": false,
                        "sign": true,
                        "value": "0.0000000000000068201999999999998178"
                    }
                ]
            },
            {
                "account": "0xbb991998a09be83bd3d10654550b799c2fecb605",
                "assets": [
                    {
                        "address": "0xdac17f958d2ee523a2206206994597c13d831ec7",
                        "amount": "5,383.523674",
                        "iconUrl": "https://assets.blocksec.com/icon/fcea71f3193ce895be44bfdf941f7e4c9381dd587f273c2d1a27f1263d84e4ea.png",
                        "isERC1155": false,
                        "isERC721": false,
                        "sign": false,
                        "value": "5388.9071976739994074"
                    }
                ]
            }
        ]
    },
    "profile": {
        "basic_info": {
            "baseFee": "10.346395368",
            "blockNumber": 20318954,
            "callData": "0x85b4a4fc0000000000000000000000001231deb6f5749ef6ce6943a275a1d3e7486f4eae0000000000000000000000000606a235a4e4f230d1e8968083d1b61b335ff878000000000000000000000000000000000000000000000000000000000000008000000000000000000000000000000000000000000000000000000000000000c00000000000000000000000000000000000000000000000000000000000000001000000000000000000000000bb991998a09be83bd3d10654550b799c2fecb6050000000000000000000000000000000000000000000000000000000000000001000000000000000000000000dac17f958d2ee523a2206206994597c13d831ec7",
            "debugEnable": true,
            "errorInfo": "",
            "eventCount": 3,
            "feeRecipient": "0x4838b106fce9647bdf1e7877bf73ce8b0bad5f97",
            "formatValue": "0",
            "gasLimit": 341749,
            "gasPrice": "11.337092305",
            "gasUsed": 247441,
            "intTxnCount": 20,
            "internalRevert": false,
            "internalRevertMessage": "",
            "isContractCreation": false,
            "isFlashloan": false,
            "maxFee": "22.097445897",
            "nonce": 4,
            "overwritedBlockNumber": -1,
            "priorityFee": "0.990696937",
            "receiver": "0x56d3e389e4c18a9c18b8936e66a2136b37253653",
            "revertMessage": "",
            "sender": "0x8b3cb6bf982798fba233bca56749e22eec42dcf3",
            "simulationEnable": true,
            "sourceTxnHash": "0x602d810c47a9022b422cf2fa32ec973f887a72df78d40e448d511e82eba5a38a",
            "status": true,
            "timestamp": "2024-07-16T12:04:47Z",
            "transactionFee": "0.002805261457041505",
            "txnHash": "0x602d810c47a9022b422cf2fa32ec973f887a72df78d40e448d511e82eba5a38a",
            "txnIndex": 117,
            "type": 2,
            "value": "0"
        },
        "fund_flow": [
            {
                "amount": "0.000000000000000001",
                "from": "0x0606a235a4e4f230d1e8968083d1b61b335ff878",
                "id": 1,
                "isERC1155": false,
                "isERC721": false,
                "isReverted": false,
                "order": 1,
                "to": "0x64db6d15027d1bb19fa3b95ab93799986f19e854",
                "token": "0xeeeeeeeeeeeeeeeeeeeeeeeeeeeeeeeeeeeeeeee"
            },
            {
                "amount": "0.000000000000000001",
                "from": "0x64db6d15027d1bb19fa3b95ab93799986f19e854",
                "id": 2,
                "isERC1155": false,
                "isERC721": false,
                "isReverted": false,
                "order": 2,
                "to": "0x1231deb6f5749ef6ce6943a275a1d3e7486f4eae",
                "token": "0xeeeeeeeeeeeeeeeeeeeeeeeeeeeeeeeeeeeeeeee"
            },
            {
                "amount": "0.000000000000000001",
                "from": "0x0606a235a4e4f230d1e8968083d1b61b335ff878",
                "id": 3,
                "isERC1155": false,
                "isERC721": false,
                "isReverted": false,
                "order": 3,
                "to": "0x53994ad92419b8fad97ea1fb1644ac0e01bb0726",
                "token": "0xeeeeeeeeeeeeeeeeeeeeeeeeeeeeeeeeeeeeeeee"
            },
            {
                "amount": "0.000000000000000001",
                "from": "0x53994ad92419b8fad97ea1fb1644ac0e01bb0726",
                "id": 4,
                "isERC1155": false,
                "isERC721": false,
                "isReverted": false,
                "order": 4,
                "to": "0x1231deb6f5749ef6ce6943a275a1d3e7486f4eae",
                "token": "0xeeeeeeeeeeeeeeeeeeeeeeeeeeeeeeeeeeeeeeee"
            },
            {
                "amount": "5,383.523674",
                "from": "0xbb991998a09be83bd3d10654550b799c2fecb605",
                "id": 5,
                "isERC1155": false,
                "isERC721": false,
                "isReverted": false,
                "order": 5,
                "to": "0x8b3cb6bf982798fba233bca56749e22eec42dcf3",
                "token": "0xdac17f958d2ee523a2206206994597c13d831ec7"
            },
            {
                "amount": "0.000000000000000002",
                "from": "0x1231deb6f5749ef6ce6943a275a1d3e7486f4eae",
                "id": 6,
                "isERC1155": false,
                "isERC721": false,
                "isReverted": false,
                "order": 6,
                "to": "0x9e22ebec84c7e4c4bd6d4ae7ff6f4d436d6d8390",
                "token": "0xeeeeeeeeeeeeeeeeeeeeeeeeeeeeeeeeeeeeeeee"
            }
        ],
        "token_infos": [
            {
                "address": "0xc02aaa39b223fe8d0a0e5c4f27ead9083c756cc2",
                "decimals": 18
            },
            {
                "address": "0xdac17f958d2ee523a2206206994597c13d831ec7",
                "decimals": 6
            },
            {
                "address": "0xeeeeeeeeeeeeeeeeeeeeeeeeeeeeeeeeeeeeeeee",
                "decimals": 18
            }
        ]
    },
    "address_label": {
        "labels": [
            {
                "address": "0xdac17f958d2ee523a2206206994597c13d831ec7",
                "label": "Tether: USDT Stablecoin"
            },
            {
                "address": "0x1231deb6f5749ef6ce6943a275a1d3e7486f4eae",
                "label": "LI.FI: LiFi Diamond"
            },
            {
                "address": "0xf28a352377663ca134bd27b582b1a9a4dad7e534",
                "label": "GasZipFacet"
            },
            {
                "address": "0x0000000000000000000000000000000000000002",
                "label": "Precompiled"
            },
            {
                "address": "0xeeeeeeeeeeeeeeeeeeeeeeeeeeeeeeeeeeeeeeee",
                "label": "Ether"
            },
            {
                "address": "0x8b3cb6bf982798fba233bca56749e22eec42dcf3",
                "label": "LI.FI Exploiter 2"
            },
            {
                "address": "0x9e22ebec84c7e4c4bd6d4ae7ff6f4d436d6d8390",
                "label": "GasZip"
            },
            {
                "address": "0x0000000000000000000000000000000000000001",
                "label": "Precompiled"
            },
            {
                "address": "0x0000000000000000000000000000000000000003",
                "label": "Precompiled"
            },
            {
                "address": "0x0000000000000000000000000000000000000004",
                "label": "Precompiled"
            }
        ]
    },
    "trace": {
        "accountLabels": null,
        "dataMap": {
            "-1": {
                "invocation": {
                    "address": "0x8b3cb6bf982798fba233bca56749e22eec42dcf3",
                    "callData": "",
                    "decodedMethod": null,
                    "errorInfo": "",
                    "fromAddress": "",
                    "gasUsed": 0,
                    "id": -1,
                    "methodDecoded": false,
                    "operation": "",
                    "output": "",
                    "revert": false,
                    "revertMessage": "",
                    "selector": "",
                    "status": false,
                    "value": ""
                },
                "nodeType": 0
            },
            "0": {
                "invocation": {
                    "address": "0x56d3e389e4c18a9c18b8936e66a2136b37253653",
                    "callData": "0x0000000000000000000000001231deb6f5749ef6ce6943a275a1d3e7486f4eae0000000000000000000000000606a235a4e4f230d1e8968083d1b61b335ff878000000000000000000000000000000000000000000000000000000000000008000000000000000000000000000000000000000000000000000000000000000c00000000000000000000000000000000000000000000000000000000000000001000000000000000000000000bb991998a09be83bd3d10654550b799c2fecb6050000000000000000000000000000000000000000000000000000000000000001000000000000000000000000dac17f958d2ee523a2206206994597c13d831ec7",
                    "decodedMethod": null,
                    "errorInfo": "",
                    "fromAddress": "0x8b3cb6bf982798fba233bca56749e22eec42dcf3",
                    "gasUsed": 247441,
                    "id": 0,
                    "methodDecoded": false,
                    "operation": "CALL",
                    "output": "",
                    "revert": false,
                    "revertMessage": "",
                    "selector": "0x85b4a4fc",
                    "status": true,
                    "value": "0"
                },
                "nodeType": 0
            },
            "1": {
                "invocation": {
                    "address": "0xdac17f958d2ee523a2206206994597c13d831ec7",
                    "callData": "0x000000000000000000000000bb991998a09be83bd3d10654550b799c2fecb605",
                    "decodedMethod": {
                        "callParams": [
                            {
                                "name": "who",
                                "type": "address",
                                "value": "0xbb991998a09be83bd3d10654550b799c2fecb605"
                            }
                        ],
                        "constructorArguments": "",
                        "name": "balanceOf",
                        "returnParams": [
                            {
                                "decimalAvailable": true,
                                "name": "",
                                "type": "uint256",
                                "value": "5,383,523,674"
                            }
                        ],
                        "signature": "balanceOf(address)"
                    },
                    "errorInfo": "",
                    "fromAddress": "0x56d3e389e4c18a9c18b8936e66a2136b37253653",
                    "gasUsed": 5031,
                    "id": 1,
                    "methodDecoded": true,
                    "operation": "STATICCALL",
                    "output": "0x0000000000000000000000000000000000000000000000000000000140e20d5a",
                    "revert": false,
                    "revertMessage": "",
                    "selector": "0x70a08231",
                    "status": true,
                    "value": "0"
                },
                "nodeType": 0
            },
            "10": {
                "invocation": {
                    "address": "0x64db6d15027d1bb19fa3b95ab93799986f19e854",
                    "callData": "0x0000000000000000000000001231deb6f5749ef6ce6943a275a1d3e7486f4eae",
                    "decodedMethod": {
                        "callParams": [
                            {
                                "name": "_to",
                                "type": "address",
                                "value": "0x1231deb6f5749ef6ce6943a275a1d3e7486f4eae"
                            }
                        ],
                        "constructorArguments": "",
                        "name": "sendTo",
                        "returnParams": [],
                        "signature": "sendTo(address)"
                    },
                    "errorInfo": "",
                    "fromAddress": "0x0606a235a4e4f230d1e8968083d1b61b335ff878",
                    "gasUsed": 5139,
                    "id": 10,
                    "methodDecoded": true,
                    "operation": "CALL",
                    "output": "",
                    "revert": false,
                    "revertMessage": "",
                    "selector": "0xe6d25245",
                    "status": true,
                    "value": "0.000000000000000001"
                },
                "nodeType": 0
            },
            "11": {
                "invocation": {
                    "address": "0x1231deb6f5749ef6ce6943a275a1d3e7486f4eae",
                    "callData": "",
                    "decodedMethod": null,
                    "errorInfo": "",
                    "fromAddress": "0x64db6d15027d1bb19fa3b95ab93799986f19e854",
                    "gasUsed": 0,
                    "id": 11,
                    "methodDecoded": false,
                    "operation": "SELFDESTRUCT",
                    "output": "",
                    "revert": false,
                    "revertMessage": "",
                    "selector": "",
                    "status": true,
                    "value": "0.000000000000000001"
                },
                "nodeType": 0
            },
            "12": {
                "invocation": {
                    "address": "0x0606a235a4e4f230d1e8968083d1b61b335ff878",
                    "callData": "0x0000000000000000000000001231deb6f5749ef6ce6943a275a1d3e7486f4eae00000000000000000000000056d3e389e4c18a9c18b8936e66a2136b37253653",
                    "decodedMethod": {
                        "callParams": [
                            {
                                "name": "owner",
                                "type": "address",
                                "value": "0x1231deb6f5749ef6ce6943a275a1d3e7486f4eae"
                            },
                            {
                                "name": "spender",
                                "type": "address",
                                "value": "0x56d3e389e4c18a9c18b8936e66a2136b37253653"
                            }
                        ],
                        "constructorArguments": "",
                        "name": "allowance",
                        "returnParams": [
                            {
                                "decimalAvailable": true,
                                "name": "",
                                "type": "uint256",
                                "value": "0"
                            }
                        ],
                        "signature": "allowance(address,address)"
                    },
                    "errorInfo": "",
                    "fromAddress": "0x1231deb6f5749ef6ce6943a275a1d3e7486f4eae",
                    "gasUsed": 322,
                    "id": 12,
                    "methodDecoded": true,
                    "operation": "STATICCALL",
                    "output": "0x0000000000000000000000000000000000000000000000000000000000000000",
                    "revert": false,
                    "revertMessage": "",
                    "selector": "0xdd62ed3e",
                    "status": true,
                    "value": "0"
                },
                "nodeType": 0
            },
            "13": {
                "invocation": {
                    "address": "0x0606a235a4e4f230d1e8968083d1b61b335ff878",
                    "callData": "0x00000000000000000000000056d3e389e4c18a9c18b8936e66a2136b37253653ffffffffffffffffffffffffffffffffffffffffffffffffffffffffffffffff",
                    "decodedMethod": {
                        "callParams": [
                            {
                                "name": "spender",
                                "type": "address",
                                "value": "0x56d3e389e4c18a9c18b8936e66a2136b37253653"
                            },
                            {
                                "decimalAvailable": true,
                                "name": "amount",
                                "type": "uint256",
                                "value": "115,792,089,237,316,195,423,570,985,008,687,907,853,269,984,665,640,564,039,457,584,007,913,129,639,935"
                            }
                        ],
                        "constructorArguments": "",
                        "name": "approve",
                        "returnParams": [
                            {
                                "name": "",
                                "type": "bool",
                                "value": true
                            }
                        ],
                        "signature": "approve(address,uint256)"
                    },
                    "errorInfo": "",
                    "fromAddress": "0x1231deb6f5749ef6ce6943a275a1d3e7486f4eae",
                    "gasUsed": 69484,
                    "id": 13,
                    "methodDecoded": true,
                    "operation": "CALL",
                    "output": "0x0000000000000000000000000000000000000000000000000000000000000001",
                    "revert": false,
                    "revertMessage": "",
                    "selector": "0x095ea7b3",
                    "status": true,
                    "value": "0"
                },
                "nodeType": 0
            },
            "14": {
                "invocation": {
                    "address": "0x53994ad92419b8fad97ea1fb1644ac0e01bb0726",
                    "callData": "0x60808060405234601457607c908161001a8239f35b600080fdfe6004361015600c57600080fd5b60003560e01c63e6d2524514602057600080fd5b60203660031901126041576004356001600160a01b03811690819003604157ff5b600080fdfea2646970667358221220d032fabdf595d96cc28a67429db4dce354cf45bce77e7343d35f919dbabe9ae464736f6c63430008130033",
                    "decodedMethod": null,
                    "errorInfo": "",
                    "fromAddress": "0x0606a235a4e4f230d1e8968083d1b61b335ff878",
                    "gasUsed": 24881,
                    "id": 14,
                    "methodDecoded": false,
                    "operation": "CREATE",
                    "output": "0x6004361015600c57600080fd5b60003560e01c63e6d2524514602057600080fd5b60203660031901126041576004356001600160a01b03811690819003604157ff5b600080fdfea2646970667358221220d032fabdf595d96cc28a67429db4dce354cf45bce77e7343d35f919dbabe9ae464736f6c63430008130033",
                    "revert": false,
                    "revertMessage": "",
                    "selector": "",
                    "status": true,
                    "value": "0"
                },
                "nodeType": 0
            },
            "15": {
                "invocation": {
                    "address": "0x53994ad92419b8fad97ea1fb1644ac0e01bb0726",
                    "callData": "0x0000000000000000000000001231deb6f5749ef6ce6943a275a1d3e7486f4eae",
                    "decodedMethod": {
                        "callParams": [
                            {
                                "name": "_to",
                                "type": "address",
                                "value": "0x1231deb6f5749ef6ce6943a275a1d3e7486f4eae"
                            }
                        ],
                        "constructorArguments": "",
                        "name": "sendTo",
                        "returnParams": [],
                        "signature": "sendTo(address)"
                    },
                    "errorInfo": "",
                    "fromAddress": "0x0606a235a4e4f230d1e8968083d1b61b335ff878",
                    "gasUsed": 5139,
                    "id": 15,
                    "methodDecoded": true,
                    "operation": "CALL",
                    "output": "",
                    "revert": false,
                    "revertMessage": "",
                    "selector": "0xe6d25245",
                    "status": true,
                    "value": "0.000000000000000001"
                },
                "nodeType": 0
            },
            "16": {
                "invocation": {
                    "address": "0x1231deb6f5749ef6ce6943a275a1d3e7486f4eae",
                    "callData": "",
                    "decodedMethod": null,
                    "errorInfo": "",
                    "fromAddress": "0x53994ad92419b8fad97ea1fb1644ac0e01bb0726",
                    "gasUsed": 0,
                    "id": 16,
                    "methodDecoded": false,
                    "operation": "SELFDESTRUCT",
                    "output": "",
                    "revert": false,
                    "revertMessage": "",
                    "selector": "",
                    "status": true,
                    "value": "0.000000000000000001"
                },
                "nodeType": 0
            },
            "17": {
                "invocation": {
                    "address": "0xdac17f958d2ee523a2206206994597c13d831ec7",
                    "callData": "0x000000000000000000000000bb991998a09be83bd3d10654550b799c2fecb6050000000000000000000000008b3cb6bf982798fba233bca56749e22eec42dcf30000000000000000000000000000000000000000000000000000000140e20d5a",
                    "decodedMethod": {
                        "callParams": [
                            {
                                "name": "_from",
                                "type": "address",
                                "value": "0xbb991998a09be83bd3d10654550b799c2fecb605"
                            },
                            {
                                "name": "_to",
                                "type": "address",
                                "value": "0x8b3cb6bf982798fba233bca56749e22eec42dcf3"
                            },
                            {
                                "decimalAvailable": true,
                                "name": "_value",
                                "type": "uint256",
                                "value": "5,383,523,674"
                            }
                        ],
                        "constructorArguments": "",
                        "name": "transferFrom",
                        "returnParams": [],
                        "signature": "transferFrom(address,address,uint256)"
                    },
                    "errorInfo": "",
                    "fromAddress": "0x1231deb6f5749ef6ce6943a275a1d3e7486f4eae",
                    "gasUsed": 40824,
                    "id": 17,
                    "methodDecoded": true,
                    "operation": "CALL",
                    "output": "",
                    "revert": false,
                    "revertMessage": "",
                    "selector": "0x23b872dd",
                    "status": true,
                    "value": "0"
                },
                "nodeType": 0
            },
            "18": {
                "event": {
                    "contract": "0xdac17f958d2ee523a2206206994597c13d831ec7",
                    "decodedLog": {
                        "name": "Transfer",
                        "params": [
                            {
                                "name": "from",
                                "type": "address",
                                "value": "0xbb991998a09be83bd3d10654550b799c2fecb605"
                            },
                            {
                                "name": "to",
                                "type": "address",
                                "value": "0x8b3cb6bf982798fba233bca56749e22eec42dcf3"
                            },
                            {
                                "decimalAvailable": true,
                                "name": "value",
                                "type": "uint256",
                                "value": "5,383,523,674"
                            }
                        ],
                        "signature": "Transfer(address,address,uint256)"
                    },
                    "id": 18,
                    "logData": "0x0000000000000000000000000000000000000000000000000000000140e20d5a",
                    "logDecoded": true,
                    "operation": "EVENT",
                    "revert": false,
                    "status": true,
                    "topics": [
                        "0xddf252ad1be2c89b69c2b068fc378daa952ba7f163c4a11628f55a4df523b3ef",
                        "0x000000000000000000000000bb991998a09be83bd3d10654550b799c2fecb605",
                        "0x0000000000000000000000008b3cb6bf982798fba233bca56749e22eec42dcf3"
                    ]
                },
                "nodeType": 1
            },
            "19": {
                "invocation": {
                    "address": "0x0606a235a4e4f230d1e8968083d1b61b335ff878",
                    "callData": "0x0000000000000000000000001231deb6f5749ef6ce6943a275a1d3e7486f4eae",
                    "decodedMethod": {
                        "callParams": [
                            {
                                "name": "account",
                                "type": "address",
                                "value": "0x1231deb6f5749ef6ce6943a275a1d3e7486f4eae"
                            }
                        ],
                        "constructorArguments": "",
                        "name": "balanceOf",
                        "returnParams": [
                            {
                                "decimalAvailable": true,
                                "name": "",
                                "type": "uint256",
                                "value": "1"
                            }
                        ],
                        "signature": "balanceOf(address)"
                    },
                    "errorInfo": "",
                    "fromAddress": "0x1231deb6f5749ef6ce6943a275a1d3e7486f4eae",
                    "gasUsed": 263,
                    "id": 19,
                    "methodDecoded": true,
                    "operation": "STATICCALL",
                    "output": "0x0000000000000000000000000000000000000000000000000000000000000001",
                    "revert": false,
                    "revertMessage": "",
                    "selector": "0x70a08231",
                    "status": true,
                    "value": "0"
                },
                "nodeType": 0
            },
            "2": {
                "invocation": {
                    "address": "0xdac17f958d2ee523a2206206994597c13d831ec7",
                    "callData": "0x000000000000000000000000bb991998a09be83bd3d10654550b799c2fecb6050000000000000000000000001231deb6f5749ef6ce6943a275a1d3e7486f4eae",
                    "decodedMethod": {
                        "callParams": [
                            {
                                "name": "_owner",
                                "type": "address",
                                "value": "0xbb991998a09be83bd3d10654550b799c2fecb605"
                            },
                            {
                                "name": "_spender",
                                "type": "address",
                                "value": "0x1231deb6f5749ef6ce6943a275a1d3e7486f4eae"
                            }
                        ],
                        "constructorArguments": "",
                        "name": "allowance",
                        "returnParams": [
                            {
                                "decimalAvailable": true,
                                "name": "remaining",
                                "type": "uint256",
                                "value": "10,000,000,000"
                            }
                        ],
                        "signature": "allowance(address,address)"
                    },
                    "errorInfo": "",
                    "fromAddress": "0x56d3e389e4c18a9c18b8936e66a2136b37253653",
                    "gasUsed": 3356,
                    "id": 2,
                    "methodDecoded": true,
                    "operation": "STATICCALL",
                    "output": "0x00000000000000000000000000000000000000000000000000000002540be400",
                    "revert": false,
                    "revertMessage": "",
                    "selector": "0xdd62ed3e",
                    "status": true,
                    "value": "0"
                },
                "nodeType": 0
            },
            "20": {
                "event": {
                    "contract": "0x1231deb6f5749ef6ce6943a275a1d3e7486f4eae",
                    "decodedLog": {
                        "name": "AssetSwapped",
                        "params": [
                            {
                                "name": "transactionId",
                                "type": "bytes32",
                                "value": "0x0000000000000000000000000000000000000000000000000000000000000000"
                            },
                            {
                                "name": "dex",
                                "type": "address",
                                "value": "0xdac17f958d2ee523a2206206994597c13d831ec7"
                            },
                            {
                                "name": "fromAssetId",
                                "type": "address",
                                "value": "0x0606a235a4e4f230d1e8968083d1b61b335ff878"
                            },
                            {
                                "name": "toAssetId",
                                "type": "address",
                                "value": "0x0606a235a4e4f230d1e8968083d1b61b335ff878"
                            },
                            {
                                "name": "fromAmount",
                                "type": "uint256",
                                "value": "1"
                            },
                            {
                                "name": "toAmount",
                                "type": "uint256",
                                "value": "1"
                            },
                            {
                                "name": "timestamp",
                                "type": "uint256",
                                "value": "1,721,131,487"
                            }
                        ],
                        "signature": "AssetSwapped(bytes32,address,address,address,uint256,uint256,uint256)"
                    },
                    "id": 20,
                    "logData": "0x0000000000000000000000000000000000000000000000000000000000000000000000000000000000000000dac17f958d2ee523a2206206994597c13d831ec70000000000000000000000000606a235a4e4f230d1e8968083d1b61b335ff8780000000000000000000000000606a235a4e4f230d1e8968083d1b61b335ff8780000000000000000000000000000000000000000000000000000000000000001000000000000000000000000000000000000000000000000000000000000000100000000000000000000000000000000000000000000000000000000669661df",
                    "logDecoded": true,
                    "operation": "EVENT",
                    "revert": false,
                    "status": true,
                    "topics": [
                        "0x7bfdfdb5e3a3776976e53cb0607060f54c5312701c8cba1155cc4d5394440b38"
                    ]
                },
                "nodeType": 1
            },
            "21": {
                "invocation": {
                    "address": "0x9e22ebec84c7e4c4bd6d4ae7ff6f4d436d6d8390",
                    "callData": "0x000000000000000000000000000000000000000000000000000000000000000000000000000000000000000056d3e389e4c18a9c18b8936e66a2136b37253653",
                    "decodedMethod": {
                        "callParams": [
                            {
                                "name": "chains",
                                "type": "uint256",
                                "value": "0"
                            },
                            {
                                "name": "to",
                                "type": "address",
                                "value": "0x56d3e389e4c18a9c18b8936e66a2136b37253653"
                            }
                        ],
                        "constructorArguments": "",
                        "name": "deposit",
                        "returnParams": [],
                        "signature": "deposit(uint256,address)"
                    },
                    "errorInfo": "",
                    "fromAddress": "0x1231deb6f5749ef6ce6943a275a1d3e7486f4eae",
                    "gasUsed": 2231,
                    "id": 21,
                    "methodDecoded": true,
                    "operation": "CALL",
                    "output": "",
                    "revert": false,
                    "revertMessage": "",
                    "selector": "0x6e553f65",
                    "status": true,
                    "value": "0.000000000000000002"
                },
                "nodeType": 0
            },
            "22": {
                "event": {
                    "contract": "0x9e22ebec84c7e4c4bd6d4ae7ff6f4d436d6d8390",
                    "decodedLog": {
                        "name": "Deposit",
                        "params": [
                            {
                                "name": "from",
                                "type": "address",
                                "value": "0x1231deb6f5749ef6ce6943a275a1d3e7486f4eae"
                            },
                            {
                                "name": "chains",
                                "type": "uint256",
                                "value": "0"
                            },
                            {
                                "name": "amount",
                                "type": "uint256",
                                "value": "2"
                            },
                            {
                                "name": "to",
                                "type": "address",
                                "value": "0x56d3e389e4c18a9c18b8936e66a2136b37253653"
                            }
                        ],
                        "signature": "Deposit(address,uint256,uint256,address)"
                    },
                    "id": 22,
                    "logData": "0x0000000000000000000000001231deb6f5749ef6ce6943a275a1d3e7486f4eae0000000000000000000000000000000000000000000000000000000000000000000000000000000000000000000000000000000000000000000000000000000200000000000000000000000056d3e389e4c18a9c18b8936e66a2136b37253653",
                    "logDecoded": true,
                    "operation": "EVENT",
                    "revert": false,
                    "status": true,
                    "topics": [
                        "0x02d7e648dd130fc184d383e55bb126ac4c9c60e8f94bf05acdf557ba2d540b47"
                    ]
                },
                "nodeType": 1
            },
            "23": {
                "invocation": {
                    "address": "0x8b3cb6bf982798fba233bca56749e22eec42dcf3",
                    "callData": "0x",
                    "decodedMethod": null,
                    "errorInfo": "",
                    "fromAddress": "0x56d3e389e4c18a9c18b8936e66a2136b37253653",
                    "gasUsed": 0,
                    "id": 23,
                    "methodDecoded": false,
                    "operation": "CALL",
                    "output": "",
                    "revert": false,
                    "revertMessage": "",
                    "selector": "fallback",
                    "status": true,
                    "value": "0"
                },
                "nodeType": 0
            },
            "3": {
                "invocation": {
                    "address": "0x1231deb6f5749ef6ce6943a275a1d3e7486f4eae",
                    "callData": "0x0000000000000000000000000000000000000000000000000000000000000060000000000000000000000000000000000000000000000000000000000000000000000000000000000000000056d3e389e4c18a9c18b8936e66a2136b37253653000000000000000000000000dac17f958d2ee523a2206206994597c13d831ec700000000000000000000000056d3e389e4c18a9c18b8936e66a2136b372536530000000000000000000000000606a235a4e4f230d1e8968083d1b61b335ff8780000000000000000000000000606a235a4e4f230d1e8968083d1b61b335ff878000000000000000000000000000000000000000000000000000000000000000100000000000000000000000000000000000000000000000000000000000000e00000000000000000000000000000000000000000000000000000000000000001000000000000000000000000000000000000000000000000000000000000006423b872dd000000000000000000000000bb991998a09be83bd3d10654550b799c2fecb6050000000000000000000000008b3cb6bf982798fba233bca56749e22eec42dcf30000000000000000000000000000000000000000000000000000000140e20d5a00000000000000000000000000000000000000000000000000000000",
                    "decodedMethod": {
                        "callParams": [
                            {
                                "name": "_swapData",
                                "type": "(address,address,address,address,uint256,bytes,bool)",
                                "value": [
                                    {
                                        "name": "callTo",
                                        "type": "address",
                                        "value": "0xdac17f958d2ee523a2206206994597c13d831ec7"
                                    },
                                    {
                                        "name": "approveTo",
                                        "type": "address",
                                        "value": "0x56d3e389e4c18a9c18b8936e66a2136b37253653"
                                    },
                                    {
                                        "name": "sendingAssetId",
                                        "type": "address",
                                        "value": "0x0606a235a4e4f230d1e8968083d1b61b335ff878"
                                    },
                                    {
                                        "name": "receivingAssetId",
                                        "type": "address",
                                        "value": "0x0606a235a4e4f230d1e8968083d1b61b335ff878"
                                    },
                                    {
                                        "name": "fromAmount",
                                        "type": "uint256",
                                        "value": "1"
                                    },
                                    {
                                        "name": "callData",
                                        "type": "bytes",
                                        "value": "0x23b872dd000000000000000000000000bb991998a09be83bd3d10654550b799c2fecb6050000000000000000000000008b3cb6bf982798fba233bca56749e22eec42dcf30000000000000000000000000000000000000000000000000000000140e20d5a"
                                    },
                                    {
                                        "name": "requiresDeposit",
                                        "type": "bool",
                                        "value": true
                                    }
                                ]
                            },
                            {
                                "name": "_destinationChains",
                                "type": "uint256",
                                "value": "0"
                            },
                            {
                                "name": "_recipient",
                                "type": "address",
                                "value": "0x56d3e389e4c18a9c18b8936e66a2136b37253653"
                            }
                        ],
                        "constructorArguments": "",
                        "name": "depositToGasZipERC20",
                        "returnParams": [],
                        "signature": "depositToGasZipERC20((address,address,address,address,uint256,bytes,bool),uint256,address)"
                    },
                    "errorInfo": "",
                    "fromAddress": "0x56d3e389e4c18a9c18b8936e66a2136b37253653",
                    "gasUsed": 211478,
                    "id": 3,
                    "methodDecoded": true,
                    "operation": "CALL",
                    "output": "",
                    "revert": false,
                    "revertMessage": "",
                    "selector": "0x3d86ea87",
                    "status": true,
                    "value": "0"
                },
                "nodeType": 0
            },
            "4": {
                "invocation": {
                    "address": "0xf28a352377663ca134bd27b582b1a9a4dad7e534",
                    "callData": "0x0000000000000000000000000000000000000000000000000000000000000060000000000000000000000000000000000000000000000000000000000000000000000000000000000000000056d3e389e4c18a9c18b8936e66a2136b37253653000000000000000000000000dac17f958d2ee523a2206206994597c13d831ec700000000000000000000000056d3e389e4c18a9c18b8936e66a2136b372536530000000000000000000000000606a235a4e4f230d1e8968083d1b61b335ff8780000000000000000000000000606a235a4e4f230d1e8968083d1b61b335ff878000000000000000000000000000000000000000000000000000000000000000100000000000000000000000000000000000000000000000000000000000000e00000000000000000000000000000000000000000000000000000000000000001000000000000000000000000000000000000000000000000000000000000006423b872dd000000000000000000000000bb991998a09be83bd3d10654550b799c2fecb6050000000000000000000000008b3cb6bf982798fba233bca56749e22eec42dcf30000000000000000000000000000000000000000000000000000000140e20d5a00000000000000000000000000000000000000000000000000000000",
                    "decodedMethod": {
                        "callParams": [
                            {
                                "name": "_swapData",
                                "type": "(address,address,address,address,uint256,bytes,bool)",
                                "value": [
                                    {
                                        "name": "callTo",
                                        "type": "address",
                                        "value": "0xdac17f958d2ee523a2206206994597c13d831ec7"
                                    },
                                    {
                                        "name": "approveTo",
                                        "type": "address",
                                        "value": "0x56d3e389e4c18a9c18b8936e66a2136b37253653"
                                    },
                                    {
                                        "name": "sendingAssetId",
                                        "type": "address",
                                        "value": "0x0606a235a4e4f230d1e8968083d1b61b335ff878"
                                    },
                                    {
                                        "name": "receivingAssetId",
                                        "type": "address",
                                        "value": "0x0606a235a4e4f230d1e8968083d1b61b335ff878"
                                    },
                                    {
                                        "name": "fromAmount",
                                        "type": "uint256",
                                        "value": "1"
                                    },
                                    {
                                        "name": "callData",
                                        "type": "bytes",
                                        "value": "0x23b872dd000000000000000000000000bb991998a09be83bd3d10654550b799c2fecb6050000000000000000000000008b3cb6bf982798fba233bca56749e22eec42dcf30000000000000000000000000000000000000000000000000000000140e20d5a"
                                    },
                                    {
                                        "name": "requiresDeposit",
                                        "type": "bool",
                                        "value": true
                                    }
                                ]
                            },
                            {
                                "name": "_destinationChains",
                                "type": "uint256",
                                "value": "0"
                            },
                            {
                                "name": "_recipient",
                                "type": "address",
                                "value": "0x56d3e389e4c18a9c18b8936e66a2136b37253653"
                            }
                        ],
                        "constructorArguments": "",
                        "name": "depositToGasZipERC20",
                        "returnParams": [],
                        "signature": "depositToGasZipERC20((address,address,address,address,uint256,bytes,bool),uint256,address)"
                    },
                    "errorInfo": "",
                    "fromAddress": "0x1231deb6f5749ef6ce6943a275a1d3e7486f4eae",
                    "gasUsed": 206476,
                    "id": 4,
                    "methodDecoded": true,
                    "operation": "DELEGATECALL",
                    "output": "",
                    "revert": false,
                    "revertMessage": "",
                    "selector": "0x3d86ea87",
                    "status": true,
                    "value": "0"
                },
                "nodeType": 0
            },
            "5": {
                "invocation": {
                    "address": "0x0606a235a4e4f230d1e8968083d1b61b335ff878",
                    "callData": "0x0000000000000000000000001231deb6f5749ef6ce6943a275a1d3e7486f4eae",
                    "decodedMethod": {
                        "callParams": [
                            {
                                "name": "account",
                                "type": "address",
                                "value": "0x1231deb6f5749ef6ce6943a275a1d3e7486f4eae"
                            }
                        ],
                        "constructorArguments": "",
                        "name": "balanceOf",
                        "returnParams": [
                            {
                                "decimalAvailable": true,
                                "name": "",
                                "type": "uint256",
                                "value": "1"
                            }
                        ],
                        "signature": "balanceOf(address)"
                    },
                    "errorInfo": "",
                    "fromAddress": "0x1231deb6f5749ef6ce6943a275a1d3e7486f4eae",
                    "gasUsed": 263,
                    "id": 5,
                    "methodDecoded": true,
                    "operation": "STATICCALL",
                    "output": "0x0000000000000000000000000000000000000000000000000000000000000001",
                    "revert": false,
                    "revertMessage": "",
                    "selector": "0x70a08231",
                    "status": true,
                    "value": "0"
                },
                "nodeType": 0
            },
            "6": {
                "invocation": {
                    "address": "0x0606a235a4e4f230d1e8968083d1b61b335ff878",
                    "callData": "0x0000000000000000000000001231deb6f5749ef6ce6943a275a1d3e7486f4eae",
                    "decodedMethod": {
                        "callParams": [
                            {
                                "name": "account",
                                "type": "address",
                                "value": "0x1231deb6f5749ef6ce6943a275a1d3e7486f4eae"
                            }
                        ],
                        "constructorArguments": "",
                        "name": "balanceOf",
                        "returnParams": [
                            {
                                "decimalAvailable": true,
                                "name": "",
                                "type": "uint256",
                                "value": "1"
                            }
                        ],
                        "signature": "balanceOf(address)"
                    },
                    "errorInfo": "",
                    "fromAddress": "0x1231deb6f5749ef6ce6943a275a1d3e7486f4eae",
                    "gasUsed": 263,
                    "id": 6,
                    "methodDecoded": true,
                    "operation": "STATICCALL",
                    "output": "0x0000000000000000000000000000000000000000000000000000000000000001",
                    "revert": false,
                    "revertMessage": "",
                    "selector": "0x70a08231",
                    "status": true,
                    "value": "0"
                },
                "nodeType": 0
            },
            "7": {
                "invocation": {
                    "address": "0x0606a235a4e4f230d1e8968083d1b61b335ff878",
                    "callData": "0x0000000000000000000000001231deb6f5749ef6ce6943a275a1d3e7486f4eae00000000000000000000000056d3e389e4c18a9c18b8936e66a2136b37253653",
                    "decodedMethod": {
                        "callParams": [
                            {
                                "name": "owner",
                                "type": "address",
                                "value": "0x1231deb6f5749ef6ce6943a275a1d3e7486f4eae"
                            },
                            {
                                "name": "spender",
                                "type": "address",
                                "value": "0x56d3e389e4c18a9c18b8936e66a2136b37253653"
                            }
                        ],
                        "constructorArguments": "",
                        "name": "allowance",
                        "returnParams": [
                            {
                                "decimalAvailable": true,
                                "name": "",
                                "type": "uint256",
                                "value": "0"
                            }
                        ],
                        "signature": "allowance(address,address)"
                    },
                    "errorInfo": "",
                    "fromAddress": "0x1231deb6f5749ef6ce6943a275a1d3e7486f4eae",
                    "gasUsed": 322,
                    "id": 7,
                    "methodDecoded": true,
                    "operation": "STATICCALL",
                    "output": "0x0000000000000000000000000000000000000000000000000000000000000000",
                    "revert": false,
                    "revertMessage": "",
                    "selector": "0xdd62ed3e",
                    "status": true,
                    "value": "0"
                },
                "nodeType": 0
            },
            "8": {
                "invocation": {
                    "address": "0x0606a235a4e4f230d1e8968083d1b61b335ff878",
                    "callData": "0x00000000000000000000000056d3e389e4c18a9c18b8936e66a2136b372536530000000000000000000000000000000000000000000000000000000000000000",
                    "decodedMethod": {
                        "callParams": [
                            {
                                "name": "spender",
                                "type": "address",
                                "value": "0x56d3e389e4c18a9c18b8936e66a2136b37253653"
                            },
                            {
                                "decimalAvailable": true,
                                "name": "amount",
                                "type": "uint256",
                                "value": "0"
                            }
                        ],
                        "constructorArguments": "",
                        "name": "approve",
                        "returnParams": [
                            {
                                "name": "",
                                "type": "bool",
                                "value": true
                            }
                        ],
                        "signature": "approve(address,uint256)"
                    },
                    "errorInfo": "",
                    "fromAddress": "0x1231deb6f5749ef6ce6943a275a1d3e7486f4eae",
                    "gasUsed": 69484,
                    "id": 8,
                    "methodDecoded": true,
                    "operation": "CALL",
                    "output": "0x0000000000000000000000000000000000000000000000000000000000000001",
                    "revert": false,
                    "revertMessage": "",
                    "selector": "0x095ea7b3",
                    "status": true,
                    "value": "0"
                },
                "nodeType": 0
            },
            "9": {
                "invocation": {
                    "address": "0x64db6d15027d1bb19fa3b95ab93799986f19e854",
                    "callData": "0x60808060405234601457607c908161001a8239f35b600080fdfe6004361015600c57600080fd5b60003560e01c63e6d2524514602057600080fd5b60203660031901126041576004356001600160a01b03811690819003604157ff5b600080fdfea2646970667358221220d032fabdf595d96cc28a67429db4dce354cf45bce77e7343d35f919dbabe9ae464736f6c63430008130033",
                    "decodedMethod": null,
                    "errorInfo": "",
                    "fromAddress": "0x0606a235a4e4f230d1e8968083d1b61b335ff878",
                    "gasUsed": 24881,
                    "id": 9,
                    "methodDecoded": false,
                    "operation": "CREATE",
                    "output": "0x6004361015600c57600080fd5b60003560e01c63e6d2524514602057600080fd5b60203660031901126041576004356001600160a01b03811690819003604157ff5b600080fdfea2646970667358221220d032fabdf595d96cc28a67429db4dce354cf45bce77e7343d35f919dbabe9ae464736f6c63430008130033",
                    "revert": false,
                    "revertMessage": "",
                    "selector": "",
                    "status": true,
                    "value": "0"
                },
                "nodeType": 0
            }
        },
        "gasFlame": [
            {
                "children": [
                    {
                        "children": [
                            {
                                "children": [],
                                "depth": 0,
                                "name": "Initial Gas",
                                "value": 23096
                            },
                            {
                                "children": [
                                    {
                                        "children": [],
                                        "depth": 1,
                                        "name": "balanceOf",
                                        "value": 5031
                                    },
                                    {
                                        "children": [],
                                        "depth": 1,
                                        "name": "allowance",
                                        "value": 3356
                                    },
                                    {
                                        "children": [
                                            {
                                                "children": [
                                                    {
                                                        "children": [],
                                                        "depth": 3,
                                                        "name": "balanceOf",
                                                        "value": 263
                                                    },
                                                    {
                                                        "children": [],
                                                        "depth": 3,
                                                        "name": "balanceOf",
                                                        "value": 263
                                                    },
                                                    {
                                                        "children": [],
                                                        "depth": 3,
                                                        "name": "allowance",
                                                        "value": 322
                                                    },
                                                    {
                                                        "children": [
                                                            {
                                                                "children": [],
                                                                "depth": 4,
                                                                "name": "contract creation",
                                                                "value": 24881
                                                            },
                                                            {
                                                                "children": [
                                                                    {
                                                                        "children": [],
                                                                        "depth": 5,
                                                                        "name": "",
                                                                        "value": 0
                                                                    }
                                                                ],
                                                                "depth": 4,
                                                                "name": "sendTo",
                                                                "value": 5139
                                                            }
                                                        ],
                                                        "depth": 3,
                                                        "name": "approve",
                                                        "value": 69484
                                                    },
                                                    {
                                                        "children": [],
                                                        "depth": 3,
                                                        "name": "allowance",
                                                        "value": 322
                                                    },
                                                    {
                                                        "children": [
                                                            {
                                                                "children": [],
                                                                "depth": 4,
                                                                "name": "contract creation",
                                                                "value": 24881
                                                            },
                                                            {
                                                                "children": [
                                                                    {
                                                                        "children": [],
                                                                        "depth": 5,
                                                                        "name": "",
                                                                        "value": 0
                                                                    }
                                                                ],
                                                                "depth": 4,
                                                                "name": "sendTo",
                                                                "value": 5139
                                                            }
                                                        ],
                                                        "depth": 3,
                                                        "name": "approve",
                                                        "value": 69484
                                                    },
                                                    {
                                                        "children": [],
                                                        "depth": 3,
                                                        "name": "transferFrom",
                                                        "value": 40824
                                                    },
                                                    {
                                                        "children": [],
                                                        "depth": 3,
                                                        "name": "balanceOf",
                                                        "value": 263
                                                    },
                                                    {
                                                        "children": [],
                                                        "depth": 3,
                                                        "name": "deposit",
                                                        "value": 2231
                                                    }
                                                ],
                                                "depth": 2,
                                                "name": "depositToGasZipERC20",
                                                "value": 206476
                                            }
                                        ],
                                        "depth": 1,
                                        "name": "depositToGasZipERC20",
                                        "value": 211478
                                    },
                                    {
                                        "children": [],
                                        "depth": 1,
                                        "name": "fallback",
                                        "value": 0
                                    }
                                ],
                                "depth": 0,
                                "name": "Executed Gas",
                                "value": 229145
                            }
                        ],
                        "depth": -1,
                        "name": "Actual Gas Used",
                        "value": 247441
                    },
                    {
                        "children": [],
                        "depth": -1,
                        "name": "Refunded Gas",
                        "value": 4800
                    }
                ],
                "depth": -2,
                "name": "Total Gas",
                "value": 252241
            }
        ],
        "isConfirmed": true,
        "mainTrace": [
            {
                "children": [
                    {
                        "children": [
                            {
                                "children": [],
                                "depth": 1,
                                "id": 1,
                                "order": 1
                            },
                            {
                                "children": [],
                                "depth": 1,
                                "id": 2,
                                "order": 2
                            },
                            {
                                "children": [
                                    {
                                        "children": [
                                            {
                                                "children": [],
                                                "depth": 3,
                                                "id": 5,
                                                "order": 5
                                            },
                                            {
                                                "children": [],
                                                "depth": 3,
                                                "id": 6,
                                                "order": 6
                                            },
                                            {
                                                "children": [],
                                                "depth": 3,
                                                "id": 7,
                                                "order": 7
                                            },
                                            {
                                                "children": [
                                                    {
                                                        "children": [],
                                                        "depth": 4,
                                                        "id": 9,
                                                        "order": 9
                                                    },
                                                    {
                                                        "children": [
                                                            {
                                                                "children": [],
                                                                "depth": 5,
                                                                "id": 11,
                                                                "order": 11
                                                            }
                                                        ],
                                                        "depth": 4,
                                                        "id": 10,
                                                        "order": 10
                                                    }
                                                ],
                                                "depth": 3,
                                                "id": 8,
                                                "order": 8
                                            },
                                            {
                                                "children": [],
                                                "depth": 3,
                                                "id": 12,
                                                "order": 12
                                            },
                                            {
                                                "children": [
                                                    {
                                                        "children": [],
                                                        "depth": 4,
                                                        "id": 14,
                                                        "order": 14
                                                    },
                                                    {
                                                        "children": [
                                                            {
                                                                "children": [],
                                                                "depth": 5,
                                                                "id": 16,
                                                                "order": 16
                                                            }
                                                        ],
                                                        "depth": 4,
                                                        "id": 15,
                                                        "order": 15
                                                    }
                                                ],
                                                "depth": 3,
                                                "id": 13,
                                                "order": 13
                                            },
                                            {
                                                "children": [
                                                    {
                                                        "children": [],
                                                        "depth": 4,
                                                        "id": 18,
                                                        "order": 18
                                                    }
                                                ],
                                                "depth": 3,
                                                "id": 17,
                                                "order": 17
                                            },
                                            {
                                                "children": [],
                                                "depth": 3,
                                                "id": 19,
                                                "order": 19
                                            },
                                            {
                                                "children": [],
                                                "depth": 3,
                                                "id": 20,
                                                "order": 20
                                            },
                                            {
                                                "children": [
                                                    {
                                                        "children": [],
                                                        "depth": 4,
                                                        "id": 22,
                                                        "order": 22
                                                    }
                                                ],
                                                "depth": 3,
                                                "id": 21,
                                                "order": 21
                                            }
                                        ],
                                        "depth": 2,
                                        "id": 4,
                                        "order": 4
                                    }
                                ],
                                "depth": 1,
                                "id": 3,
                                "order": 3
                            },
                            {
                                "children": [],
                                "depth": 1,
                                "id": 23,
                                "order": 23
                            }
                        ],
                        "depth": 0,
                        "id": 0,
                        "order": 0
                    }
                ],
                "depth": -1,
                "id": -1,
                "order": -1
            }
        ],
        "mainTraceNodeCount": 24,
        "parentIdMap": {
            "0": -1,
            "1": 0,
            "10": 8,
            "11": 10,
            "12": 4,
            "13": 4,
            "14": 13,
            "15": 13,
            "16": 15,
            "17": 4,
            "18": 17,
            "19": 4,
            "2": 0,
            "20": 4,
            "21": 4,
            "22": 21,
            "23": 0,
            "3": 0,
            "4": 3,
            "5": 4,
            "6": 4,
            "7": 4,
            "8": 4,
            "9": 8
        },
        "tidyTrace": [
            {
                "children": [
                    {
                        "children": [
                            {
                                "children": [
                                    {
                                        "children": [
                                            {
                                                "children": [
                                                    {
                                                        "children": [],
                                                        "depth": 4,
                                                        "id": 9,
                                                        "order": 9
                                                    },
                                                    {
                                                        "children": [
                                                            {
                                                                "children": [],
                                                                "depth": 5,
                                                                "id": 11,
                                                                "order": 11
                                                            }
                                                        ],
                                                        "depth": 4,
                                                        "id": 10,
                                                        "order": 10
                                                    }
                                                ],
                                                "depth": 3,
                                                "id": 8,
                                                "order": 8
                                            },
                                            {
                                                "children": [
                                                    {
                                                        "children": [],
                                                        "depth": 4,
                                                        "id": 14,
                                                        "order": 14
                                                    },
                                                    {
                                                        "children": [
                                                            {
                                                                "children": [],
                                                                "depth": 5,
                                                                "id": 16,
                                                                "order": 16
                                                            }
                                                        ],
                                                        "depth": 4,
                                                        "id": 15,
                                                        "order": 15
                                                    }
                                                ],
                                                "depth": 3,
                                                "id": 13,
                                                "order": 13
                                            },
                                            {
                                                "children": [
                                                    {
                                                        "children": [],
                                                        "depth": 4,
                                                        "id": 18,
                                                        "order": 18
                                                    }
                                                ],
                                                "depth": 3,
                                                "id": 17,
                                                "order": 17
                                            },
                                            {
                                                "children": [],
                                                "depth": 3,
                                                "id": 20,
                                                "order": 20
                                            },
                                            {
                                                "children": [
                                                    {
                                                        "children": [],
                                                        "depth": 4,
                                                        "id": 22,
                                                        "order": 22
                                                    }
                                                ],
                                                "depth": 3,
                                                "id": 21,
                                                "order": 21
                                            }
                                        ],
                                        "depth": 2,
                                        "id": 4,
                                        "order": 4
                                    }
                                ],
                                "depth": 1,
                                "id": 3,
                                "order": 3
                            },
                            {
                                "children": [],
                                "depth": 1,
                                "id": 23,
                                "order": 23
                            }
                        ],
                        "depth": 0,
                        "id": 0,
                        "order": 0
                    }
                ],
                "depth": -1,
                "id": -1,
                "order": -1
            }
        ],
        "tidyTraceNodeCount": 17
    },
    "state_change": {
        "stateChanges": [
            {
                "address": "0xdac17f958d2ee523a2206206994597c13d831ec7",
                "erc": "ERC-20",
                "slots": [
                    {
                        "current": "0x0000000000000000000000000000000000000000000000000000000140e20d5a",
                        "key": "0x5954731bd05ccc7d60b6beaf5cfca14720f119ee611227ef81aa441b9eb61757",
                        "prev": "0x0000000000000000000000000000000000000000000000000000000000000000"
                    },
                    {
                        "current": "0x000000000000000000000000000000000000000000000000000000011329d6a6",
                        "key": "0xf5918cc525d57c75724def2c937b0213ea2fd188887a5ddb6bf0365b3227cdba",
                        "prev": "0x00000000000000000000000000000000000000000000000000000002540be400"
                    },
                    {
                        "current": "0x0000000000000000000000000000000000000000000000000000000000000000",
                        "key": "0x12a4416346f39085d01989f560e69f6fbfad15c06a2f67ef01a9351bd2c28bdd",
                        "prev": "0x0000000000000000000000000000000000000000000000000000000140e20d5a"
                    }
                ],
                "storageVariables": [
                    {
                        "name": "balances",
                        "type": "mapping(address => uint256)",
                        "value": {
                            "pairs": [
                                {
                                    "key": "0x8b3cb6bf982798fba233bca56749e22eec42dcf3",
                                    "value": {
                                        "current": "5383523674",
                                        "prev": "0",
                                        "typeTag": 1
                                    }
                                },
                                {
                                    "key": "0xbb991998a09be83bd3d10654550b799c2fecb605",
                                    "value": {
                                        "current": "0",
                                        "prev": "5383523674",
                                        "typeTag": 1
                                    }
                                }
                            ],
                            "typeTag": 4
                        }
                    },
                    {
                        "name": "allowed",
                        "type": "mapping(address => mapping(address => uint256))",
                        "value": {
                            "pairs": [
                                {
                                    "key": "0xbb991998a09be83bd3d10654550b799c2fecb605",
                                    "value": {
                                        "pairs": [
                                            {
                                                "key": "0x1231deb6f5749ef6ce6943a275a1d3e7486f4eae",
                                                "value": {
                                                    "current": "4616476326",
                                                    "prev": "10000000000",
                                                    "typeTag": 1
                                                }
                                            }
                                        ],
                                        "typeTag": 4
                                    }
                                }
                            ],
                            "typeTag": 4
                        }
                    }
                ]
            }
        ]
    }
}