{
    "balance_change": {
        "balanceChanges": [
            {
                "account": "0x3df6cd58716d22855afb3b828f82f10708afbb4f",
                "assets": [
                    {
                        "address": "0x55d398326f99059ff775485246999027b3197955",
                        "amount": "127,677.363775463262166716",
                        "iconUrl": "https://assets.blocksec.com/icon/810ebed5-1cb7-4a60-827d-c7eb0c438c0e.png",
                        "isERC1155": false,
                        "isERC721": false,
                        "sign": true,
                        "value": "127805.04116379998594"
                    }
                ]
            },
            {
                "account": "0xd7ba198ce82f4c46ad8f6148ccfdb41866750231",
                "assets": [
                    {
                        "address": "0x9cb928bf50ed220ac8f703bce35be5ce7f56c99c",
                        "amount": "50,591,832.95970910722322876",
                        "iconUrl": "",
                        "isERC1155": false,
                        "isERC721": false,
                        "sign": false,
                        "value": "1694.903647"
                    }
                ]
            },
            {
                "account": "0x0000000000000000000000000000000000000000",
                "assets": [
                    {
                        "address": "0x9cb928bf50ed220ac8f703bce35be5ce7f56c99c",
                        "amount": "505,918.329597091072232287",
                        "iconUrl": "",
                        "isERC1155": false,
                        "isERC721": false,
                        "sign": true,
                        "value": "36820.47263"
                    }
                ]
            },
            {
                "account": "0x26a0e28c7944da198311f3ba8d8d4e9776024561",
                "assets": [
                    {
                        "address": "0x9cb928bf50ed220ac8f703bce35be5ce7f56c99c",
                        "amount": "10,651.921213154439429715",
                        "iconUrl": "",
                        "isERC1155": false,
                        "isERC721": false,
                        "sign": true,
                        "value": "554.0502422"
                    }
                ]
            },
            {
                "account": "0x27948d1fbbe9e239e23ad92a9056762acd01e271",
                "assets": [
                    {
                        "address": "0x9cb928bf50ed220ac8f703bce35be5ce7f56c99c",
                        "amount": "10,651.921213154439429715",
                        "iconUrl": "",
                        "isERC1155": false,
                        "isERC721": false,
                        "sign": true,
                        "value": "554.0502422"
                    }
                ]
            },
            {
                "account": "0x48b89a75f307227f7068ad441380cbfdc58b4206",
                "assets": [
                    {
                        "address": "0x9cb928bf50ed220ac8f703bce35be5ce7f56c99c",
                        "amount": "10,651.921213154439429715",
                        "iconUrl": "",
                        "isERC1155": false,
                        "isERC721": false,
                        "sign": true,
                        "value": "554.0502422"
                    }
                ]
            },
            {
                "account": "0x5c06323345b008376ec9db82388cf716a3e22cc3",
                "assets": [
                    {
                        "address": "0x9cb928bf50ed220ac8f703bce35be5ce7f56c99c",
                        "amount": "10,651.921213154439429715",
                        "iconUrl": "",
                        "isERC1155": false,
                        "isERC721": false,
                        "sign": true,
                        "value": "554.0502422"
                    }
                ]
            },
            {
                "account": "0x6564fb08e957131efadded7c4526516c6360ea7d",
                "assets": [
                    {
                        "address": "0x9cb928bf50ed220ac8f703bce35be5ce7f56c99c",
                        "amount": "965,125.470548302325717373",
                        "iconUrl": "",
                        "isERC1155": false,
                        "isERC721": false,
                        "sign": true,
                        "value": "70.19322002"
                    }
                ]
            },
            {
                "account": "0x7e6ba6c2b6e078bb29d357be896513c84dea12f9",
                "assets": [
                    {
                        "address": "0x9cb928bf50ed220ac8f703bce35be5ce7f56c99c",
                        "amount": "1,517,754.988791273216696862",
                        "iconUrl": "",
                        "isERC1155": false,
                        "isERC721": false,
                        "sign": true,
                        "value": "104.9515868"
                    }
                ]
            },
            {
                "account": "0x96bf2e6cc029363b57ffa5984b943f825d333614",
                "assets": [
                    {
                        "address": "0x9cb928bf50ed220ac8f703bce35be5ce7f56c99c",
                        "amount": "505,918.329597091072232287",
                        "iconUrl": "",
                        "isERC1155": false,
                        "isERC721": false,
                        "sign": true,
                        "value": "36820.47263"
                    }
                ]
            },
            {
                "account": "0xa0ddb8c704353cc590203460f4d736a6573f52d0",
                "assets": [
                    {
                        "address": "0x9cb928bf50ed220ac8f703bce35be5ce7f56c99c",
                        "amount": "15,570.396215293272915734",
                        "iconUrl": "",
                        "isERC1155": false,
                        "isERC721": false,
                        "sign": true,
                        "value": "798.27042"
                    }
                ]
            },
            {
                "account": "0xa45727bc857f528d1c2b2c3e37bff8fada5b275d",
                "assets": [
                    {
                        "address": "0x9cb928bf50ed220ac8f703bce35be5ce7f56c99c",
                        "amount": "15,570.396215293272915734",
                        "iconUrl": "",
                        "isERC1155": false,
                        "isERC721": false,
                        "sign": true,
                        "value": "798.27042"
                    }
                ]
            },
            {
                "account": "0xa6e3fa334cca29a86347236356385e1c98816ea0",
                "assets": [
                    {
                        "address": "0x9cb928bf50ed220ac8f703bce35be5ce7f56c99c",
                        "amount": "10,651.921213154439429715",
                        "iconUrl": "",
                        "isERC1155": false,
                        "isERC721": false,
                        "sign": true,
                        "value": "554.0502422"
                    }
                ]
            },
            {
                "account": "0xa7ee68e8621dab9119d0de2007bf330844a9a8b7",
                "assets": [
                    {
                        "address": "0x9cb928bf50ed220ac8f703bce35be5ce7f56c99c",
                        "amount": "905,317.447062637750167425",
                        "iconUrl": "",
                        "isERC1155": false,
                        "isERC721": false,
                        "sign": true,
                        "value": "14.99396516"
                    }
                ]
            },
            {
                "account": "0xb86ac8dbc06062d99876d5a4e1030e188773c79e",
                "assets": [
                    {
                        "address": "0x9cb928bf50ed220ac8f703bce35be5ce7f56c99c",
                        "amount": "10,651.921213154439429715",
                        "iconUrl": "",
                        "isERC1155": false,
                        "isERC721": false,
                        "sign": true,
                        "value": "554.0502422"
                    }
                ]
            },
            {
                "account": "0xd228faee4f73a73fcc73b6d9a1bd25ee1d6ee611",
                "assets": [
                    {
                        "address": "0x9cb928bf50ed220ac8f703bce35be5ce7f56c99c",
                        "amount": "46,038,567.993335287573138174",
                        "iconUrl": "",
                        "isERC1155": false,
                        "isERC721": false,
                        "sign": true,
                        "value": "89534.96335"
                    },
                    {
                        "address": "0x55d398326f99059ff775485246999027b3197955",
                        "amount": "127,677.363775463262166716",
                        "iconUrl": "https://assets.blocksec.com/icon/810ebed5-1cb7-4a60-827d-c7eb0c438c0e.png",
                        "isERC1155": false,
                        "isERC721": false,
                        "sign": false,
                        "value": "127805.04116379998594"
                    }
                ]
            },
            {
                "account": "0xd45000236679ab9c42d291d13cae3ac5e135d4cd",
                "assets": [
                    {
                        "address": "0x9cb928bf50ed220ac8f703bce35be5ce7f56c99c",
                        "amount": "10,651.921213154439429715",
                        "iconUrl": "",
                        "isERC1155": false,
                        "isERC721": false,
                        "sign": true,
                        "value": "554.0502422"
                    }
                ]
            },
            {
                "account": "0xe354ffd988fd99640a88e6aca4ba7ad045ba93e7",
                "assets": [
                    {
                        "address": "0x9cb928bf50ed220ac8f703bce35be5ce7f56c99c",
                        "amount": "15,570.396215293272915734",
                        "iconUrl": "",
                        "isERC1155": false,
                        "isERC721": false,
                        "sign": true,
                        "value": "798.27042"
                    }
                ]
            },
            {
                "account": "0xe99d76ae80ea4d037d8e01f25f56db19d5bde0bf",
                "assets": [
                    {
                        "address": "0x9cb928bf50ed220ac8f703bce35be5ce7f56c99c",
                        "amount": "10,651.921213154439429715",
                        "iconUrl": "",
                        "isERC1155": false,
                        "isERC721": false,
                        "sign": true,
                        "value": "554.0502422"
                    }
                ]
            },
            {
                "account": "0xef203f5ee341a29bdbe2533e740f884761cb179d",
                "assets": [
                    {
                        "address": "0x9cb928bf50ed220ac8f703bce35be5ce7f56c99c",
                        "amount": "10,651.921213154439429715",
                        "iconUrl": "",
                        "isERC1155": false,
                        "isERC721": false,
                        "sign": true,
                        "value": "554.0502422"
                    }
                ]
            },
            {
                "account": "0xf6f4625d5353ef969d945773b1fb69964791e194",
                "assets": [
                    {
                        "address": "0x9cb928bf50ed220ac8f703bce35be5ce7f56c99c",
                        "amount": "10,651.921213154439429715",
                        "iconUrl": "",
                        "isERC1155": false,
                        "isERC721": false,
                        "sign": true,
                        "value": "554.0502422"
                    }
                ]
            }
        ]
    },
    "profile": {
        "basic_info": {
            "baseFee": "",
            "blockNumber": 22102845,
            "callData": "0xa0ad2d7600000000000000000000000000000000000000000029d93cc29f8c6f921f715b",
            "debugEnable": true,
            "errorInfo": "",
            "eventCount": 23,
            "feeRecipient": "0x7ae2f5b9e386cd1b50a4550696d957cb4900f03a",
            "formatValue": "0",
            "gasLimit": 550400,
            "gasPrice": "5",
            "gasUsed": 523105,
            "intTxnCount": 10,
            "internalRevert": false,
            "internalRevertMessage": "",
            "isContractCreation": false,
            "isFlashloan": false,
            "maxFee": "",
            "nonce": 16,
            "overwritedBlockNumber": -1,
            "priorityFee": "",
            "receiver": "0xd7ba198ce82f4c46ad8f6148ccfdb41866750231",
            "revertMessage": "",
            "sender": "0x3df6cd58716d22855afb3b828f82f10708afbb4f",
            "simulationEnable": true,
            "sourceTxnHash": "0x601b8ab0c1d51e71796a0df5453ca671ae23de3d5ec9ffd87b9c378504f99c32",
            "status": true,
            "timestamp": "2022-10-12T05:03:19Z",
            "transactionFee": "0.002615525",
            "txnHash": "0x601b8ab0c1d51e71796a0df5453ca671ae23de3d5ec9ffd87b9c378504f99c32",
            "txnIndex": 79,
            "type": 0,
            "value": "0"
        },
        "fund_flow": [
            {
                "amount": "505,918.329597091072232287",
                "from": "0xd7ba198ce82f4c46ad8f6148ccfdb41866750231",
                "id": 1,
                "isERC1155": false,
                "isERC721": false,
                "isReverted": false,
                "order": 1,
                "to": "0x0000000000000000000000000000000000000000",
                "token": "0x9cb928bf50ed220ac8f703bce35be5ce7f56c99c"
            },
            {
                "amount": "46,038,567.993335287573138174",
                "from": "0xd7ba198ce82f4c46ad8f6148ccfdb41866750231",
                "id": 2,
                "isERC1155": false,
                "isERC721": false,
                "isReverted": false,
                "order": 2,
                "to": "0xd228faee4f73a73fcc73b6d9a1bd25ee1d6ee611",
                "token": "0x9cb928bf50ed220ac8f703bce35be5ce7f56c99c"
            },
            {
                "amount": "1,011,836.659194182144464575",
                "from": "0xd7ba198ce82f4c46ad8f6148ccfdb41866750231",
                "id": 3,
                "isERC1155": false,
                "isERC721": false,
                "isReverted": false,
                "order": 3,
                "to": "0x6564fb08e957131efadded7c4526516c6360ea7d",
                "token": "0x9cb928bf50ed220ac8f703bce35be5ce7f56c99c"
            },
            {
                "amount": "1,011,836.659194182144464575",
                "from": "0xd7ba198ce82f4c46ad8f6148ccfdb41866750231",
                "id": 4,
                "isERC1155": false,
                "isERC721": false,
                "isReverted": false,
                "order": 4,
                "to": "0xa7ee68e8621dab9119d0de2007bf330844a9a8b7",
                "token": "0x9cb928bf50ed220ac8f703bce35be5ce7f56c99c"
            },
            {
                "amount": "1,517,754.988791273216696862",
                "from": "0xd7ba198ce82f4c46ad8f6148ccfdb41866750231",
                "id": 5,
                "isERC1155": false,
                "isERC721": false,
                "isReverted": false,
                "order": 5,
                "to": "0x7e6ba6c2b6e078bb29d357be896513c84dea12f9",
                "token": "0x9cb928bf50ed220ac8f703bce35be5ce7f56c99c"
            },
            {
                "amount": "505,918.329597091072232287",
                "from": "0xd7ba198ce82f4c46ad8f6148ccfdb41866750231",
                "id": 6,
                "isERC1155": false,
                "isERC721": false,
                "isReverted": false,
                "order": 6,
                "to": "0x96bf2e6cc029363b57ffa5984b943f825d333614",
                "token": "0x9cb928bf50ed220ac8f703bce35be5ce7f56c99c"
            },
            {
                "amount": "10,651.921213154439429715",
                "from": "0xa7ee68e8621dab9119d0de2007bf330844a9a8b7",
                "id": 7,
                "isERC1155": false,
                "isERC721": false,
                "isReverted": false,
                "order": 7,
                "to": "0x48b89a75f307227f7068ad441380cbfdc58b4206",
                "token": "0x9cb928bf50ed220ac8f703bce35be5ce7f56c99c"
            },
            {
                "amount": "10,651.921213154439429715",
                "from": "0xa7ee68e8621dab9119d0de2007bf330844a9a8b7",
                "id": 8,
                "isERC1155": false,
                "isERC721": false,
                "isReverted": false,
                "order": 8,
                "to": "0xd45000236679ab9c42d291d13cae3ac5e135d4cd",
                "token": "0x9cb928bf50ed220ac8f703bce35be5ce7f56c99c"
            },
            {
                "amount": "10,651.921213154439429715",
                "from": "0xa7ee68e8621dab9119d0de2007bf330844a9a8b7",
                "id": 9,
                "isERC1155": false,
                "isERC721": false,
                "isReverted": false,
                "order": 9,
                "to": "0x26a0e28c7944da198311f3ba8d8d4e9776024561",
                "token": "0x9cb928bf50ed220ac8f703bce35be5ce7f56c99c"
            },
            {
                "amount": "10,651.921213154439429715",
                "from": "0xa7ee68e8621dab9119d0de2007bf330844a9a8b7",
                "id": 10,
                "isERC1155": false,
                "isERC721": false,
                "isReverted": false,
                "order": 10,
                "to": "0xa6e3fa334cca29a86347236356385e1c98816ea0",
                "token": "0x9cb928bf50ed220ac8f703bce35be5ce7f56c99c"
            },
            {
                "amount": "10,651.921213154439429715",
                "from": "0xa7ee68e8621dab9119d0de2007bf330844a9a8b7",
                "id": 11,
                "isERC1155": false,
                "isERC721": false,
                "isReverted": false,
                "order": 11,
                "to": "0xf6f4625d5353ef969d945773b1fb69964791e194",
                "token": "0x9cb928bf50ed220ac8f703bce35be5ce7f56c99c"
            },
            {
                "amount": "10,651.921213154439429715",
                "from": "0xa7ee68e8621dab9119d0de2007bf330844a9a8b7",
                "id": 12,
                "isERC1155": false,
                "isERC721": false,
                "isReverted": false,
                "order": 12,
                "to": "0xef203f5ee341a29bdbe2533e740f884761cb179d",
                "token": "0x9cb928bf50ed220ac8f703bce35be5ce7f56c99c"
            },
            {
                "amount": "10,651.921213154439429715",
                "from": "0xa7ee68e8621dab9119d0de2007bf330844a9a8b7",
                "id": 13,
                "isERC1155": false,
                "isERC721": false,
                "isReverted": false,
                "order": 13,
                "to": "0x27948d1fbbe9e239e23ad92a9056762acd01e271",
                "token": "0x9cb928bf50ed220ac8f703bce35be5ce7f56c99c"
            },
            {
                "amount": "10,651.921213154439429715",
                "from": "0xa7ee68e8621dab9119d0de2007bf330844a9a8b7",
                "id": 14,
                "isERC1155": false,
                "isERC721": false,
                "isReverted": false,
                "order": 14,
                "to": "0xe99d76ae80ea4d037d8e01f25f56db19d5bde0bf",
                "token": "0x9cb928bf50ed220ac8f703bce35be5ce7f56c99c"
            },
            {
                "amount": "10,651.921213154439429715",
                "from": "0xa7ee68e8621dab9119d0de2007bf330844a9a8b7",
                "id": 15,
                "isERC1155": false,
                "isERC721": false,
                "isReverted": false,
                "order": 15,
                "to": "0x5c06323345b008376ec9db82388cf716a3e22cc3",
                "token": "0x9cb928bf50ed220ac8f703bce35be5ce7f56c99c"
            },
            {
                "amount": "10,651.921213154439429715",
                "from": "0xa7ee68e8621dab9119d0de2007bf330844a9a8b7",
                "id": 16,
                "isERC1155": false,
                "isERC721": false,
                "isReverted": false,
                "order": 16,
                "to": "0xb86ac8dbc06062d99876d5a4e1030e188773c79e",
                "token": "0x9cb928bf50ed220ac8f703bce35be5ce7f56c99c"
            },
            {
                "amount": "15,570.396215293272915734",
                "from": "0x6564fb08e957131efadded7c4526516c6360ea7d",
                "id": 17,
                "isERC1155": false,
                "isERC721": false,
                "isReverted": false,
                "order": 17,
                "to": "0xa45727bc857f528d1c2b2c3e37bff8fada5b275d",
                "token": "0x9cb928bf50ed220ac8f703bce35be5ce7f56c99c"
            },
            {
                "amount": "15,570.396215293272915734",
                "from": "0x6564fb08e957131efadded7c4526516c6360ea7d",
                "id": 18,
                "isERC1155": false,
                "isERC721": false,
                "isReverted": false,
                "order": 18,
                "to": "0xe354ffd988fd99640a88e6aca4ba7ad045ba93e7",
                "token": "0x9cb928bf50ed220ac8f703bce35be5ce7f56c99c"
            },
            {
                "amount": "15,570.396215293272915734",
                "from": "0x6564fb08e957131efadded7c4526516c6360ea7d",
                "id": 19,
                "isERC1155": false,
                "isERC721": false,
                "isReverted": false,
                "order": 19,
                "to": "0xa0ddb8c704353cc590203460f4d736a6573f52d0",
                "token": "0x9cb928bf50ed220ac8f703bce35be5ce7f56c99c"
            },
            {
                "amount": "127,677.363775463262166716",
                "from": "0xd228faee4f73a73fcc73b6d9a1bd25ee1d6ee611",
                "id": 20,
                "isERC1155": false,
                "isERC721": false,
                "isReverted": false,
                "order": 20,
                "to": "0x3df6cd58716d22855afb3b828f82f10708afbb4f",
                "token": "0x55d398326f99059ff775485246999027b3197955"
            }
        ],
        "token_infos": [
            {
                "address": "0x55d398326f99059ff775485246999027b3197955",
                "decimals": 18
            },
            {
                "address": "0x9cb928bf50ed220ac8f703bce35be5ce7f56c99c",
                "decimals": 18
            },
            {
                "address": "0xbb4cdb9cbd36b01bd1cbaebf2de08d9173bc095c",
                "decimals": 18
            },
            {
                "address": "0xeeeeeeeeeeeeeeeeeeeeeeeeeeeeeeeeeeeeeeee",
                "decimals": 18
            }
        ]
    },
    "address_label": {
        "labels": [
            {
                "address": "0xeeeeeeeeeeeeeeeeeeeeeeeeeeeeeeeeeeeeeeee",
                "label": "BNB"
            },
            {
                "address": "0xd228faee4f73a73fcc73b6d9a1bd25ee1d6ee611",
                "label": "Pancake LPs (Cake-LP)"
            },
            {
                "address": "0x9cb928bf50ed220ac8f703bce35be5ce7f56c99c",
                "label": "Journey of awakening (ATK)"
            },
            {
                "address": "0x10ed43c718714eb63d5aa57b78b54704e256024e",
                "label": "PancakeRouter"
            },
            {
                "address": "0x55d398326f99059ff775485246999027b3197955",
                "label": "BUSD-T Stablecoin"
            },
            {
                "address": "0x0000000000000000000000000000000000000001",
                "label": "Precompiled"
            },
            {
                "address": "0x0000000000000000000000000000000000000002",
                "label": "Precompiled"
            },
            {
                "address": "0x0000000000000000000000000000000000000003",
                "label": "Precompiled"
            },
            {
                "address": "0x0000000000000000000000000000000000000004",
                "label": "Precompiled"
            }
        ]
    },
    "trace": {
        "accountLabels": null,
        "dataMap": {
            "-1": {
                "invocation": {
                    "address": "0x3df6cd58716d22855afb3b828f82f10708afbb4f",
                    "callData": "",
                    "decodedMethod": null,
                    "errorInfo": "",
                    "fromAddress": "",
                    "gasUsed": 0,
                    "id": -1,
                    "methodDecoded": false,
                    "operation": "",
                    "output": "",
                    "revert": false,
                    "revertMessage": "",
                    "selector": "",
                    "status": false,
                    "value": ""
                },
                "nodeType": 0
            },
            "0": {
                "invocation": {
                    "address": "0xd7ba198ce82f4c46ad8f6148ccfdb41866750231",
                    "callData": "0x00000000000000000000000000000000000000000029d93cc29f8c6f921f715b",
                    "decodedMethod": null,
                    "errorInfo": "",
                    "fromAddress": "0x3df6cd58716d22855afb3b828f82f10708afbb4f",
                    "gasUsed": 523105,
                    "id": 0,
                    "methodDecoded": false,
                    "operation": "CALL",
                    "output": "",
                    "revert": false,
                    "revertMessage": "",
                    "selector": "0xa0ad2d76",
                    "status": true,
                    "value": "0"
                },
                "nodeType": 0
            },
            "1": {
                "invocation": {
                    "address": "0x10ed43c718714eb63d5aa57b78b54704e256024e",
                    "callData": "0x00000000000000000000000000000000000000000029d93cc29f8c6f921f715b000000000000000000000000000000000000000000000000000000000000000000000000000000000000000000000000000000000000000000000000000000a00000000000000000000000003df6cd58716d22855afb3b828f82f10708afbb4f0000000000000000000000000000000000000000000000000000000063464afb00000000000000000000000000000000000000000000000000000000000000020000000000000000000000009cb928bf50ed220ac8f703bce35be5ce7f56c99c00000000000000000000000055d398326f99059ff775485246999027b3197955",
                    "decodedMethod": {
                        "callParams": [
                            {
                                "name": "amountIn",
                                "type": "uint256",
                                "value": "50,591,832,959,709,107,223,228,763"
                            },
                            {
                                "name": "amountOutMin",
                                "type": "uint256",
                                "value": "0"
                            },
                            {
                                "name": "path",
                                "type": "address[]",
                                "value": [
                                    "0x9cb928bf50ed220ac8f703bce35be5ce7f56c99c",
                                    "0x55d398326f99059ff775485246999027b3197955"
                                ]
                            },
                            {
                                "name": "to",
                                "type": "address",
                                "value": "0x3df6cd58716d22855afb3b828f82f10708afbb4f"
                            },
                            {
                                "name": "deadline",
                                "type": "uint256",
                                "value": "1,665,551,099"
                            }
                        ],
                        "constructorArguments": "",
                        "name": "swapExactTokensForTokensSupportingFeeOnTransferTokens",
                        "returnParams": [],
                        "signature": "swapExactTokensForTokensSupportingFeeOnTransferTokens(uint256,uint256,address[],address,uint256)"
                    },
                    "errorInfo": "",
                    "fromAddress": "0xd7ba198ce82f4c46ad8f6148ccfdb41866750231",
                    "gasUsed": 512766,
                    "id": 1,
                    "methodDecoded": true,
                    "operation": "CALL",
                    "output": "",
                    "revert": false,
                    "revertMessage": "",
                    "selector": "0x5c11d795",
                    "status": true,
                    "value": "0"
                },
                "nodeType": 0
            },
            "10": {
                "event": {
                    "contract": "0x9cb928bf50ed220ac8f703bce35be5ce7f56c99c",
                    "decodedLog": {
                        "name": "Transfer",
                        "params": [
                            {
                                "name": "from",
                                "type": "address",
                                "value": "0xa7ee68e8621dab9119d0de2007bf330844a9a8b7"
                            },
                            {
                                "name": "to",
                                "type": "address",
                                "value": "0xd45000236679ab9c42d291d13cae3ac5e135d4cd"
                            },
                            {
                                "decimalAvailable": true,
                                "name": "value",
                                "type": "uint256",
                                "value": "10,651,921,213,154,439,429,715"
                            }
                        ],
                        "signature": "Transfer(address,address,uint256)"
                    },
                    "id": 10,
                    "logData": "0x000000000000000000000000000000000000000000000241711a33110e537e53",
                    "logDecoded": true,
                    "operation": "EVENT",
                    "revert": false,
                    "status": true,
                    "topics": [
                        "0xddf252ad1be2c89b69c2b068fc378daa952ba7f163c4a11628f55a4df523b3ef",
                        "0x000000000000000000000000a7ee68e8621dab9119d0de2007bf330844a9a8b7",
                        "0x000000000000000000000000d45000236679ab9c42d291d13cae3ac5e135d4cd"
                    ]
                },
                "nodeType": 1
            },
            "11": {
                "event": {
                    "contract": "0x9cb928bf50ed220ac8f703bce35be5ce7f56c99c",
                    "decodedLog": {
                        "name": "Transfer",
                        "params": [
                            {
                                "name": "from",
                                "type": "address",
                                "value": "0xa7ee68e8621dab9119d0de2007bf330844a9a8b7"
                            },
                            {
                                "name": "to",
                                "type": "address",
                                "value": "0x26a0e28c7944da198311f3ba8d8d4e9776024561"
                            },
                            {
                                "decimalAvailable": true,
                                "name": "value",
                                "type": "uint256",
                                "value": "10,651,921,213,154,439,429,715"
                            }
                        ],
                        "signature": "Transfer(address,address,uint256)"
                    },
                    "id": 11,
                    "logData": "0x000000000000000000000000000000000000000000000241711a33110e537e53",
                    "logDecoded": true,
                    "operation": "EVENT",
                    "revert": false,
                    "status": true,
                    "topics": [
                        "0xddf252ad1be2c89b69c2b068fc378daa952ba7f163c4a11628f55a4df523b3ef",
                        "0x000000000000000000000000a7ee68e8621dab9119d0de2007bf330844a9a8b7",
                        "0x00000000000000000000000026a0e28c7944da198311f3ba8d8d4e9776024561"
                    ]
                },
                "nodeType": 1
            },
            "12": {
                "event": {
                    "contract": "0x9cb928bf50ed220ac8f703bce35be5ce7f56c99c",
                    "decodedLog": {
                        "name": "Transfer",
                        "params": [
                            {
                                "name": "from",
                                "type": "address",
                                "value": "0xa7ee68e8621dab9119d0de2007bf330844a9a8b7"
                            },
                            {
                                "name": "to",
                                "type": "address",
                                "value": "0xa6e3fa334cca29a86347236356385e1c98816ea0"
                            },
                            {
                                "decimalAvailable": true,
                                "name": "value",
                                "type": "uint256",
                                "value": "10,651,921,213,154,439,429,715"
                            }
                        ],
                        "signature": "Transfer(address,address,uint256)"
                    },
                    "id": 12,
                    "logData": "0x000000000000000000000000000000000000000000000241711a33110e537e53",
                    "logDecoded": true,
                    "operation": "EVENT",
                    "revert": false,
                    "status": true,
                    "topics": [
                        "0xddf252ad1be2c89b69c2b068fc378daa952ba7f163c4a11628f55a4df523b3ef",
                        "0x000000000000000000000000a7ee68e8621dab9119d0de2007bf330844a9a8b7",
                        "0x000000000000000000000000a6e3fa334cca29a86347236356385e1c98816ea0"
                    ]
                },
                "nodeType": 1
            },
            "13": {
                "event": {
                    "contract": "0x9cb928bf50ed220ac8f703bce35be5ce7f56c99c",
                    "decodedLog": {
                        "name": "Transfer",
                        "params": [
                            {
                                "name": "from",
                                "type": "address",
                                "value": "0xa7ee68e8621dab9119d0de2007bf330844a9a8b7"
                            },
                            {
                                "name": "to",
                                "type": "address",
                                "value": "0xf6f4625d5353ef969d945773b1fb69964791e194"
                            },
                            {
                                "decimalAvailable": true,
                                "name": "value",
                                "type": "uint256",
                                "value": "10,651,921,213,154,439,429,715"
                            }
                        ],
                        "signature": "Transfer(address,address,uint256)"
                    },
                    "id": 13,
                    "logData": "0x000000000000000000000000000000000000000000000241711a33110e537e53",
                    "logDecoded": true,
                    "operation": "EVENT",
                    "revert": false,
                    "status": true,
                    "topics": [
                        "0xddf252ad1be2c89b69c2b068fc378daa952ba7f163c4a11628f55a4df523b3ef",
                        "0x000000000000000000000000a7ee68e8621dab9119d0de2007bf330844a9a8b7",
                        "0x000000000000000000000000f6f4625d5353ef969d945773b1fb69964791e194"
                    ]
                },
                "nodeType": 1
            },
            "14": {
                "event": {
                    "contract": "0x9cb928bf50ed220ac8f703bce35be5ce7f56c99c",
                    "decodedLog": {
                        "name": "Transfer",
                        "params": [
                            {
                                "name": "from",
                                "type": "address",
                                "value": "0xa7ee68e8621dab9119d0de2007bf330844a9a8b7"
                            },
                            {
                                "name": "to",
                                "type": "address",
                                "value": "0xef203f5ee341a29bdbe2533e740f884761cb179d"
                            },
                            {
                                "decimalAvailable": true,
                                "name": "value",
                                "type": "uint256",
                                "value": "10,651,921,213,154,439,429,715"
                            }
                        ],
                        "signature": "Transfer(address,address,uint256)"
                    },
                    "id": 14,
                    "logData": "0x000000000000000000000000000000000000000000000241711a33110e537e53",
                    "logDecoded": true,
                    "operation": "EVENT",
                    "revert": false,
                    "status": true,
                    "topics": [
                        "0xddf252ad1be2c89b69c2b068fc378daa952ba7f163c4a11628f55a4df523b3ef",
                        "0x000000000000000000000000a7ee68e8621dab9119d0de2007bf330844a9a8b7",
                        "0x000000000000000000000000ef203f5ee341a29bdbe2533e740f884761cb179d"
                    ]
                },
                "nodeType": 1
            },
            "15": {
                "event": {
                    "contract": "0x9cb928bf50ed220ac8f703bce35be5ce7f56c99c",
                    "decodedLog": {
                        "name": "Transfer",
                        "params": [
                            {
                                "name": "from",
                                "type": "address",
                                "value": "0xa7ee68e8621dab9119d0de2007bf330844a9a8b7"
                            },
                            {
                                "name": "to",
                                "type": "address",
                                "value": "0x27948d1fbbe9e239e23ad92a9056762acd01e271"
                            },
                            {
                                "decimalAvailable": true,
                                "name": "value",
                                "type": "uint256",
                                "value": "10,651,921,213,154,439,429,715"
                            }
                        ],
                        "signature": "Transfer(address,address,uint256)"
                    },
                    "id": 15,
                    "logData": "0x000000000000000000000000000000000000000000000241711a33110e537e53",
                    "logDecoded": true,
                    "operation": "EVENT",
                    "revert": false,
                    "status": true,
                    "topics": [
                        "0xddf252ad1be2c89b69c2b068fc378daa952ba7f163c4a11628f55a4df523b3ef",
                        "0x000000000000000000000000a7ee68e8621dab9119d0de2007bf330844a9a8b7",
                        "0x00000000000000000000000027948d1fbbe9e239e23ad92a9056762acd01e271"
                    ]
                },
                "nodeType": 1
            },
            "16": {
                "event": {
                    "contract": "0x9cb928bf50ed220ac8f703bce35be5ce7f56c99c",
                    "decodedLog": {
                        "name": "Transfer",
                        "params": [
                            {
                                "name": "from",
                                "type": "address",
                                "value": "0xa7ee68e8621dab9119d0de2007bf330844a9a8b7"
                            },
                            {
                                "name": "to",
                                "type": "address",
                                "value": "0xe99d76ae80ea4d037d8e01f25f56db19d5bde0bf"
                            },
                            {
                                "decimalAvailable": true,
                                "name": "value",
                                "type": "uint256",
                                "value": "10,651,921,213,154,439,429,715"
                            }
                        ],
                        "signature": "Transfer(address,address,uint256)"
                    },
                    "id": 16,
                    "logData": "0x000000000000000000000000000000000000000000000241711a33110e537e53",
                    "logDecoded": true,
                    "operation": "EVENT",
                    "revert": false,
                    "status": true,
                    "topics": [
                        "0xddf252ad1be2c89b69c2b068fc378daa952ba7f163c4a11628f55a4df523b3ef",
                        "0x000000000000000000000000a7ee68e8621dab9119d0de2007bf330844a9a8b7",
                        "0x000000000000000000000000e99d76ae80ea4d037d8e01f25f56db19d5bde0bf"
                    ]
                },
                "nodeType": 1
            },
            "17": {
                "event": {
                    "contract": "0x9cb928bf50ed220ac8f703bce35be5ce7f56c99c",
                    "decodedLog": {
                        "name": "Transfer",
                        "params": [
                            {
                                "name": "from",
                                "type": "address",
                                "value": "0xa7ee68e8621dab9119d0de2007bf330844a9a8b7"
                            },
                            {
                                "name": "to",
                                "type": "address",
                                "value": "0x5c06323345b008376ec9db82388cf716a3e22cc3"
                            },
                            {
                                "decimalAvailable": true,
                                "name": "value",
                                "type": "uint256",
                                "value": "10,651,921,213,154,439,429,715"
                            }
                        ],
                        "signature": "Transfer(address,address,uint256)"
                    },
                    "id": 17,
                    "logData": "0x000000000000000000000000000000000000000000000241711a33110e537e53",
                    "logDecoded": true,
                    "operation": "EVENT",
                    "revert": false,
                    "status": true,
                    "topics": [
                        "0xddf252ad1be2c89b69c2b068fc378daa952ba7f163c4a11628f55a4df523b3ef",
                        "0x000000000000000000000000a7ee68e8621dab9119d0de2007bf330844a9a8b7",
                        "0x0000000000000000000000005c06323345b008376ec9db82388cf716a3e22cc3"
                    ]
                },
                "nodeType": 1
            },
            "18": {
                "event": {
                    "contract": "0x9cb928bf50ed220ac8f703bce35be5ce7f56c99c",
                    "decodedLog": {
                        "name": "Transfer",
                        "params": [
                            {
                                "name": "from",
                                "type": "address",
                                "value": "0xa7ee68e8621dab9119d0de2007bf330844a9a8b7"
                            },
                            {
                                "name": "to",
                                "type": "address",
                                "value": "0xb86ac8dbc06062d99876d5a4e1030e188773c79e"
                            },
                            {
                                "decimalAvailable": true,
                                "name": "value",
                                "type": "uint256",
                                "value": "10,651,921,213,154,439,429,715"
                            }
                        ],
                        "signature": "Transfer(address,address,uint256)"
                    },
                    "id": 18,
                    "logData": "0x000000000000000000000000000000000000000000000241711a33110e537e53",
                    "logDecoded": true,
                    "operation": "EVENT",
                    "revert": false,
                    "status": true,
                    "topics": [
                        "0xddf252ad1be2c89b69c2b068fc378daa952ba7f163c4a11628f55a4df523b3ef",
                        "0x000000000000000000000000a7ee68e8621dab9119d0de2007bf330844a9a8b7",
                        "0x000000000000000000000000b86ac8dbc06062d99876d5a4e1030e188773c79e"
                    ]
                },
                "nodeType": 1
            },
            "19": {
                "event": {
                    "contract": "0x9cb928bf50ed220ac8f703bce35be5ce7f56c99c",
                    "decodedLog": {
                        "name": "Transfer",
                        "params": [
                            {
                                "name": "from",
                                "type": "address",
                                "value": "0x6564fb08e957131efadded7c4526516c6360ea7d"
                            },
                            {
                                "name": "to",
                                "type": "address",
                                "value": "0xa45727bc857f528d1c2b2c3e37bff8fada5b275d"
                            },
                            {
                                "decimalAvailable": true,
                                "name": "value",
                                "type": "uint256",
                                "value": "15,570,396,215,293,272,915,734"
                            }
                        ],
                        "signature": "Transfer(address,address,uint256)"
                    },
                    "id": 19,
                    "logData": "0x00000000000000000000000000000000000000000000034c12a79e508223ff16",
                    "logDecoded": true,
                    "operation": "EVENT",
                    "revert": false,
                    "status": true,
                    "topics": [
                        "0xddf252ad1be2c89b69c2b068fc378daa952ba7f163c4a11628f55a4df523b3ef",
                        "0x0000000000000000000000006564fb08e957131efadded7c4526516c6360ea7d",
                        "0x000000000000000000000000a45727bc857f528d1c2b2c3e37bff8fada5b275d"
                    ]
                },
                "nodeType": 1
            },
            "2": {
                "invocation": {
                    "address": "0x9cb928bf50ed220ac8f703bce35be5ce7f56c99c",
                    "callData": "0x000000000000000000000000d7ba198ce82f4c46ad8f6148ccfdb41866750231000000000000000000000000d228faee4f73a73fcc73b6d9a1bd25ee1d6ee61100000000000000000000000000000000000000000029d93cc29f8c6f921f715b",
                    "decodedMethod": {
                        "callParams": [
                            {
                                "name": "sender",
                                "type": "address",
                                "value": "0xd7ba198ce82f4c46ad8f6148ccfdb41866750231"
                            },
                            {
                                "name": "recipient",
                                "type": "address",
                                "value": "0xd228faee4f73a73fcc73b6d9a1bd25ee1d6ee611"
                            },
                            {
                                "decimalAvailable": true,
                                "name": "amount",
                                "type": "uint256",
                                "value": "50,591,832,959,709,107,223,228,763"
                            }
                        ],
                        "constructorArguments": "",
                        "name": "transferFrom",
                        "returnParams": [
                            {
                                "name": "",
                                "type": "bool",
                                "value": true
                            }
                        ],
                        "signature": "transferFrom(address,address,uint256)"
                    },
                    "errorInfo": "",
                    "fromAddress": "0x10ed43c718714eb63d5aa57b78b54704e256024e",
                    "gasUsed": 413597,
                    "id": 2,
                    "methodDecoded": true,
                    "operation": "CALL",
                    "output": "0x0000000000000000000000000000000000000000000000000000000000000001",
                    "revert": false,
                    "revertMessage": "",
                    "selector": "0x23b872dd",
                    "status": true,
                    "value": "0"
                },
                "nodeType": 0
            },
            "20": {
                "event": {
                    "contract": "0x9cb928bf50ed220ac8f703bce35be5ce7f56c99c",
                    "decodedLog": {
                        "name": "Transfer",
                        "params": [
                            {
                                "name": "from",
                                "type": "address",
                                "value": "0x6564fb08e957131efadded7c4526516c6360ea7d"
                            },
                            {
                                "name": "to",
                                "type": "address",
                                "value": "0xe354ffd988fd99640a88e6aca4ba7ad045ba93e7"
                            },
                            {
                                "decimalAvailable": true,
                                "name": "value",
                                "type": "uint256",
                                "value": "15,570,396,215,293,272,915,734"
                            }
                        ],
                        "signature": "Transfer(address,address,uint256)"
                    },
                    "id": 20,
                    "logData": "0x00000000000000000000000000000000000000000000034c12a79e508223ff16",
                    "logDecoded": true,
                    "operation": "EVENT",
                    "revert": false,
                    "status": true,
                    "topics": [
                        "0xddf252ad1be2c89b69c2b068fc378daa952ba7f163c4a11628f55a4df523b3ef",
                        "0x0000000000000000000000006564fb08e957131efadded7c4526516c6360ea7d",
                        "0x000000000000000000000000e354ffd988fd99640a88e6aca4ba7ad045ba93e7"
                    ]
                },
                "nodeType": 1
            },
            "21": {
                "event": {
                    "contract": "0x9cb928bf50ed220ac8f703bce35be5ce7f56c99c",
                    "decodedLog": {
                        "name": "Transfer",
                        "params": [
                            {
                                "name": "from",
                                "type": "address",
                                "value": "0x6564fb08e957131efadded7c4526516c6360ea7d"
                            },
                            {
                                "name": "to",
                                "type": "address",
                                "value": "0xa0ddb8c704353cc590203460f4d736a6573f52d0"
                            },
                            {
                                "decimalAvailable": true,
                                "name": "value",
                                "type": "uint256",
                                "value": "15,570,396,215,293,272,915,734"
                            }
                        ],
                        "signature": "Transfer(address,address,uint256)"
                    },
                    "id": 21,
                    "logData": "0x00000000000000000000000000000000000000000000034c12a79e508223ff16",
                    "logDecoded": true,
                    "operation": "EVENT",
                    "revert": false,
                    "status": true,
                    "topics": [
                        "0xddf252ad1be2c89b69c2b068fc378daa952ba7f163c4a11628f55a4df523b3ef",
                        "0x0000000000000000000000006564fb08e957131efadded7c4526516c6360ea7d",
                        "0x000000000000000000000000a0ddb8c704353cc590203460f4d736a6573f52d0"
                    ]
                },
                "nodeType": 1
            },
            "22": {
                "event": {
                    "contract": "0x9cb928bf50ed220ac8f703bce35be5ce7f56c99c",
                    "decodedLog": {
                        "name": "Approval",
                        "params": [
                            {
                                "name": "owner",
                                "type": "address",
                                "value": "0xd7ba198ce82f4c46ad8f6148ccfdb41866750231"
                            },
                            {
                                "name": "spender",
                                "type": "address",
                                "value": "0x10ed43c718714eb63d5aa57b78b54704e256024e"
                            },
                            {
                                "decimalAvailable": true,
                                "name": "value",
                                "type": "uint256",
                                "value": "115,792,089,237,316,195,423,570,985,008,687,907,853,269,984,665,640,513,447,624,624,298,805,906,411,172"
                            }
                        ],
                        "signature": "Approval(address,address,uint256)"
                    },
                    "id": 22,
                    "logData": "0xffffffffffffffffffffffffffffffffffffffffffd626c33d6073906de08ea4",
                    "logDecoded": true,
                    "operation": "EVENT",
                    "revert": false,
                    "status": true,
                    "topics": [
                        "0x8c5be1e5ebec7d5bd14f71427d1e84f3dd0314c0f7b2291e5b200ac8c7c3b925",
                        "0x000000000000000000000000d7ba198ce82f4c46ad8f6148ccfdb41866750231",
                        "0x00000000000000000000000010ed43c718714eb63d5aa57b78b54704e256024e"
                    ]
                },
                "nodeType": 1
            },
            "23": {
                "invocation": {
                    "address": "0x55d398326f99059ff775485246999027b3197955",
                    "callData": "0x0000000000000000000000003df6cd58716d22855afb3b828f82f10708afbb4f",
                    "decodedMethod": {
                        "callParams": [
                            {
                                "name": "account",
                                "type": "address",
                                "value": "0x3df6cd58716d22855afb3b828f82f10708afbb4f"
                            }
                        ],
                        "constructorArguments": "",
                        "name": "balanceOf",
                        "returnParams": [
                            {
                                "decimalAvailable": true,
                                "name": "",
                                "type": "uint256",
                                "value": "0"
                            }
                        ],
                        "signature": "balanceOf(address)"
                    },
                    "errorInfo": "",
                    "fromAddress": "0x10ed43c718714eb63d5aa57b78b54704e256024e",
                    "gasUsed": 1231,
                    "id": 23,
                    "methodDecoded": true,
                    "operation": "STATICCALL",
                    "output": "0x0000000000000000000000000000000000000000000000000000000000000000",
                    "revert": false,
                    "revertMessage": "",
                    "selector": "0x70a08231",
                    "status": true,
                    "value": "0"
                },
                "nodeType": 0
            },
            "24": {
                "invocation": {
                    "address": "0xd228faee4f73a73fcc73b6d9a1bd25ee1d6ee611",
                    "callData": "0x",
                    "decodedMethod": {
                        "callParams": [],
                        "constructorArguments": "",
                        "name": "getReserves",
                        "returnParams": [
                            {
                                "name": "_reserve0",
                                "type": "uint112",
                                "value": "131,274,553,496,631,435,962,609"
                            },
                            {
                                "name": "_reserve1",
                                "type": "uint112",
                                "value": "1,293,850,648,377,557,811,245,887"
                            },
                            {
                                "name": "_blockTimestampLast",
                                "type": "uint32",
                                "value": "1,665,550,981"
                            }
                        ],
                        "signature": "getReserves()"
                    },
                    "errorInfo": "",
                    "fromAddress": "0x10ed43c718714eb63d5aa57b78b54704e256024e",
                    "gasUsed": 2993,
                    "id": 24,
                    "methodDecoded": true,
                    "operation": "STATICCALL",
                    "output": "0x000000000000000000000000000000000000000000001bcc6865e2cb0a05a8f10000000000000000000000000000000000000000000111fbc8c0d0db55d4b33f0000000000000000000000000000000000000000000000000000000063464a85",
                    "revert": false,
                    "revertMessage": "",
                    "selector": "0x0902f1ac",
                    "status": true,
                    "value": "0"
                },
                "nodeType": 0
            },
            "25": {
                "invocation": {
                    "address": "0x9cb928bf50ed220ac8f703bce35be5ce7f56c99c",
                    "callData": "0x000000000000000000000000d228faee4f73a73fcc73b6d9a1bd25ee1d6ee611",
                    "decodedMethod": {
                        "callParams": [
                            {
                                "name": "account",
                                "type": "address",
                                "value": "0xd228faee4f73a73fcc73b6d9a1bd25ee1d6ee611"
                            }
                        ],
                        "constructorArguments": "",
                        "name": "balanceOf",
                        "returnParams": [
                            {
                                "decimalAvailable": true,
                                "name": "",
                                "type": "uint256",
                                "value": "47,332,418,641,712,845,384,384,061"
                            }
                        ],
                        "signature": "balanceOf(address)"
                    },
                    "errorInfo": "",
                    "fromAddress": "0x10ed43c718714eb63d5aa57b78b54704e256024e",
                    "gasUsed": 1304,
                    "id": 25,
                    "methodDecoded": true,
                    "operation": "STATICCALL",
                    "output": "0x0000000000000000000000000000000000000000002727078e5720036cb8fe3d",
                    "revert": false,
                    "revertMessage": "",
                    "selector": "0x70a08231",
                    "status": true,
                    "value": "0"
                },
                "nodeType": 0
            },
            "26": {
                "invocation": {
                    "address": "0xd228faee4f73a73fcc73b6d9a1bd25ee1d6ee611",
                    "callData": "0x000000000000000000000000000000000000000000001b09675cc21e5e929ebc00000000000000000000000000000000000000000000000000000000000000000000000000000000000000003df6cd58716d22855afb3b828f82f10708afbb4f00000000000000000000000000000000000000000000000000000000000000800000000000000000000000000000000000000000000000000000000000000000",
                    "decodedMethod": {
                        "callParams": [
                            {
                                "name": "amount0Out",
                                "type": "uint256",
                                "value": "127,677,363,775,463,262,166,716"
                            },
                            {
                                "name": "amount1Out",
                                "type": "uint256",
                                "value": "0"
                            },
                            {
                                "name": "to",
                                "type": "address",
                                "value": "0x3df6cd58716d22855afb3b828f82f10708afbb4f"
                            },
                            {
                                "name": "data",
                                "type": "bytes",
                                "value": "0x"
                            }
                        ],
                        "constructorArguments": "",
                        "name": "swap",
                        "returnParams": [],
                        "signature": "swap(uint256,uint256,address,bytes)"
                    },
                    "errorInfo": "",
                    "fromAddress": "0x10ed43c718714eb63d5aa57b78b54704e256024e",
                    "gasUsed": 78618,
                    "id": 26,
                    "methodDecoded": true,
                    "operation": "CALL",
                    "output": "",
                    "revert": false,
                    "revertMessage": "",
                    "selector": "0x022c0d9f",
                    "status": true,
                    "value": "0"
                },
                "nodeType": 0
            },
            "27": {
                "invocation": {
                    "address": "0x55d398326f99059ff775485246999027b3197955",
                    "callData": "0x0000000000000000000000003df6cd58716d22855afb3b828f82f10708afbb4f000000000000000000000000000000000000000000001b09675cc21e5e929ebc",
                    "decodedMethod": {
                        "callParams": [
                            {
                                "name": "recipient",
                                "type": "address",
                                "value": "0x3df6cd58716d22855afb3b828f82f10708afbb4f"
                            },
                            {
                                "decimalAvailable": true,
                                "name": "amount",
                                "type": "uint256",
                                "value": "127,677,363,775,463,262,166,716"
                            }
                        ],
                        "constructorArguments": "",
                        "name": "transfer",
                        "returnParams": [
                            {
                                "name": "",
                                "type": "bool",
                                "value": true
                            }
                        ],
                        "signature": "transfer(address,uint256)"
                    },
                    "errorInfo": "",
                    "fromAddress": "0xd228faee4f73a73fcc73b6d9a1bd25ee1d6ee611",
                    "gasUsed": 29471,
                    "id": 27,
                    "methodDecoded": true,
                    "operation": "CALL",
                    "output": "0x0000000000000000000000000000000000000000000000000000000000000001",
                    "revert": false,
                    "revertMessage": "",
                    "selector": "0xa9059cbb",
                    "status": true,
                    "value": "0"
                },
                "nodeType": 0
            },
            "28": {
                "event": {
                    "contract": "0x55d398326f99059ff775485246999027b3197955",
                    "decodedLog": {
                        "name": "Transfer",
                        "params": [
                            {
                                "name": "from",
                                "type": "address",
                                "value": "0xd228faee4f73a73fcc73b6d9a1bd25ee1d6ee611"
                            },
                            {
                                "name": "to",
                                "type": "address",
                                "value": "0x3df6cd58716d22855afb3b828f82f10708afbb4f"
                            },
                            {
                                "decimalAvailable": true,
                                "name": "value",
                                "type": "uint256",
                                "value": "127,677,363,775,463,262,166,716"
                            }
                        ],
                        "signature": "Transfer(address,address,uint256)"
                    },
                    "id": 28,
                    "logData": "0x000000000000000000000000000000000000000000001b09675cc21e5e929ebc",
                    "logDecoded": true,
                    "operation": "EVENT",
                    "revert": false,
                    "status": true,
                    "topics": [
                        "0xddf252ad1be2c89b69c2b068fc378daa952ba7f163c4a11628f55a4df523b3ef",
                        "0x000000000000000000000000d228faee4f73a73fcc73b6d9a1bd25ee1d6ee611",
                        "0x0000000000000000000000003df6cd58716d22855afb3b828f82f10708afbb4f"
                    ]
                },
                "nodeType": 1
            },
            "29": {
                "invocation": {
                    "address": "0x55d398326f99059ff775485246999027b3197955",
                    "callData": "0x000000000000000000000000d228faee4f73a73fcc73b6d9a1bd25ee1d6ee611",
                    "decodedMethod": {
                        "callParams": [
                            {
                                "name": "account",
                                "type": "address",
                                "value": "0xd228faee4f73a73fcc73b6d9a1bd25ee1d6ee611"
                            }
                        ],
                        "constructorArguments": "",
                        "name": "balanceOf",
                        "returnParams": [
                            {
                                "decimalAvailable": true,
                                "name": "",
                                "type": "uint256",
                                "value": "3,597,189,721,168,173,795,893"
                            }
                        ],
                        "signature": "balanceOf(address)"
                    },
                    "errorInfo": "",
                    "fromAddress": "0xd228faee4f73a73fcc73b6d9a1bd25ee1d6ee611",
                    "gasUsed": 1231,
                    "id": 29,
                    "methodDecoded": true,
                    "operation": "STATICCALL",
                    "output": "0x0000000000000000000000000000000000000000000000c3010920acab730a35",
                    "revert": false,
                    "revertMessage": "",
                    "selector": "0x70a08231",
                    "status": true,
                    "value": "0"
                },
                "nodeType": 0
            },
            "3": {
                "event": {
                    "contract": "0x9cb928bf50ed220ac8f703bce35be5ce7f56c99c",
                    "decodedLog": {
                        "name": "Transfer",
                        "params": [
                            {
                                "name": "from",
                                "type": "address",
                                "value": "0xd7ba198ce82f4c46ad8f6148ccfdb41866750231"
                            },
                            {
                                "name": "to",
                                "type": "address",
                                "value": "0x0000000000000000000000000000000000000000"
                            },
                            {
                                "decimalAvailable": true,
                                "name": "value",
                                "type": "uint256",
                                "value": "505,918,329,597,091,072,232,287"
                            }
                        ],
                        "signature": "Transfer(address,address,uint256)"
                    },
                    "id": 3,
                    "logData": "0x000000000000000000000000000000000000000000006b21e339ea5d4694cb5f",
                    "logDecoded": true,
                    "operation": "EVENT",
                    "revert": false,
                    "status": true,
                    "topics": [
                        "0xddf252ad1be2c89b69c2b068fc378daa952ba7f163c4a11628f55a4df523b3ef",
                        "0x000000000000000000000000d7ba198ce82f4c46ad8f6148ccfdb41866750231",
                        "0x0000000000000000000000000000000000000000000000000000000000000000"
                    ]
                },
                "nodeType": 1
            },
            "30": {
                "invocation": {
                    "address": "0x9cb928bf50ed220ac8f703bce35be5ce7f56c99c",
                    "callData": "0x000000000000000000000000d228faee4f73a73fcc73b6d9a1bd25ee1d6ee611",
                    "decodedMethod": {
                        "callParams": [
                            {
                                "name": "account",
                                "type": "address",
                                "value": "0xd228faee4f73a73fcc73b6d9a1bd25ee1d6ee611"
                            }
                        ],
                        "constructorArguments": "",
                        "name": "balanceOf",
                        "returnParams": [
                            {
                                "decimalAvailable": true,
                                "name": "",
                                "type": "uint256",
                                "value": "47,332,418,641,712,845,384,384,061"
                            }
                        ],
                        "signature": "balanceOf(address)"
                    },
                    "errorInfo": "",
                    "fromAddress": "0xd228faee4f73a73fcc73b6d9a1bd25ee1d6ee611",
                    "gasUsed": 1304,
                    "id": 30,
                    "methodDecoded": true,
                    "operation": "STATICCALL",
                    "output": "0x0000000000000000000000000000000000000000002727078e5720036cb8fe3d",
                    "revert": false,
                    "revertMessage": "",
                    "selector": "0x70a08231",
                    "status": true,
                    "value": "0"
                },
                "nodeType": 0
            },
            "31": {
                "event": {
                    "contract": "0xd228faee4f73a73fcc73b6d9a1bd25ee1d6ee611",
                    "decodedLog": {
                        "name": "Sync",
                        "params": [
                            {
                                "name": "reserve0",
                                "type": "uint112",
                                "value": "3,597,189,721,168,173,795,893"
                            },
                            {
                                "name": "reserve1",
                                "type": "uint112",
                                "value": "47,332,418,641,712,845,384,384,061"
                            }
                        ],
                        "signature": "Sync(uint112,uint112)"
                    },
                    "id": 31,
                    "logData": "0x0000000000000000000000000000000000000000000000c3010920acab730a350000000000000000000000000000000000000000002727078e5720036cb8fe3d",
                    "logDecoded": true,
                    "operation": "EVENT",
                    "revert": false,
                    "status": true,
                    "topics": [
                        "0x1c411e9a96e071241c2f21f7726b17ae89e3cab4c78be50e062b03a9fffbbad1"
                    ]
                },
                "nodeType": 1
            },
            "32": {
                "event": {
                    "contract": "0xd228faee4f73a73fcc73b6d9a1bd25ee1d6ee611",
                    "decodedLog": {
                        "name": "Swap",
                        "params": [
                            {
                                "name": "sender",
                                "type": "address",
                                "value": "0x10ed43c718714eb63d5aa57b78b54704e256024e"
                            },
                            {
                                "name": "to",
                                "type": "address",
                                "value": "0x3df6cd58716d22855afb3b828f82f10708afbb4f"
                            },
                            {
                                "name": "amount0In",
                                "type": "uint256",
                                "value": "0"
                            },
                            {
                                "name": "amount1In",
                                "type": "uint256",
                                "value": "46,038,567,993,335,287,573,138,174"
                            },
                            {
                                "name": "amount0Out",
                                "type": "uint256",
                                "value": "127,677,363,775,463,262,166,716"
                            },
                            {
                                "name": "amount1Out",
                                "type": "uint256",
                                "value": "0"
                            }
                        ],
                        "signature": "Swap(address,uint256,uint256,uint256,uint256,address)"
                    },
                    "id": 32,
                    "logData": "0x000000000000000000000000000000000000000000000000000000000000000000000000000000000000000000000000000000000026150bc5964f2816e44afe000000000000000000000000000000000000000000001b09675cc21e5e929ebc0000000000000000000000000000000000000000000000000000000000000000",
                    "logDecoded": true,
                    "operation": "EVENT",
                    "revert": false,
                    "status": true,
                    "topics": [
                        "0xd78ad95fa46c994b6551d0da85fc275fe613ce37657fb8d5e3d130840159d822",
                        "0x00000000000000000000000010ed43c718714eb63d5aa57b78b54704e256024e",
                        "0x0000000000000000000000003df6cd58716d22855afb3b828f82f10708afbb4f"
                    ]
                },
                "nodeType": 1
            },
            "33": {
                "invocation": {
                    "address": "0x55d398326f99059ff775485246999027b3197955",
                    "callData": "0x0000000000000000000000003df6cd58716d22855afb3b828f82f10708afbb4f",
                    "decodedMethod": {
                        "callParams": [
                            {
                                "name": "account",
                                "type": "address",
                                "value": "0x3df6cd58716d22855afb3b828f82f10708afbb4f"
                            }
                        ],
                        "constructorArguments": "",
                        "name": "balanceOf",
                        "returnParams": [
                            {
                                "decimalAvailable": true,
                                "name": "",
                                "type": "uint256",
                                "value": "127,677,363,775,463,262,166,716"
                            }
                        ],
                        "signature": "balanceOf(address)"
                    },
                    "errorInfo": "",
                    "fromAddress": "0x10ed43c718714eb63d5aa57b78b54704e256024e",
                    "gasUsed": 1231,
                    "id": 33,
                    "methodDecoded": true,
                    "operation": "STATICCALL",
                    "output": "0x000000000000000000000000000000000000000000001b09675cc21e5e929ebc",
                    "revert": false,
                    "revertMessage": "",
                    "selector": "0x70a08231",
                    "status": true,
                    "value": "0"
                },
                "nodeType": 0
            },
            "4": {
                "event": {
                    "contract": "0x9cb928bf50ed220ac8f703bce35be5ce7f56c99c",
                    "decodedLog": {
                        "name": "Transfer",
                        "params": [
                            {
                                "name": "from",
                                "type": "address",
                                "value": "0xd7ba198ce82f4c46ad8f6148ccfdb41866750231"
                            },
                            {
                                "name": "to",
                                "type": "address",
                                "value": "0xd228faee4f73a73fcc73b6d9a1bd25ee1d6ee611"
                            },
                            {
                                "decimalAvailable": true,
                                "name": "value",
                                "type": "uint256",
                                "value": "46,038,567,993,335,287,573,138,174"
                            }
                        ],
                        "signature": "Transfer(address,address,uint256)"
                    },
                    "id": 4,
                    "logData": "0x00000000000000000000000000000000000000000026150bc5964f2816e44afe",
                    "logDecoded": true,
                    "operation": "EVENT",
                    "revert": false,
                    "status": true,
                    "topics": [
                        "0xddf252ad1be2c89b69c2b068fc378daa952ba7f163c4a11628f55a4df523b3ef",
                        "0x000000000000000000000000d7ba198ce82f4c46ad8f6148ccfdb41866750231",
                        "0x000000000000000000000000d228faee4f73a73fcc73b6d9a1bd25ee1d6ee611"
                    ]
                },
                "nodeType": 1
            },
            "5": {
                "event": {
                    "contract": "0x9cb928bf50ed220ac8f703bce35be5ce7f56c99c",
                    "decodedLog": {
                        "name": "Transfer",
                        "params": [
                            {
                                "name": "from",
                                "type": "address",
                                "value": "0xd7ba198ce82f4c46ad8f6148ccfdb41866750231"
                            },
                            {
                                "name": "to",
                                "type": "address",
                                "value": "0x6564fb08e957131efadded7c4526516c6360ea7d"
                            },
                            {
                                "decimalAvailable": true,
                                "name": "value",
                                "type": "uint256",
                                "value": "1,011,836,659,194,182,144,464,575"
                            }
                        ],
                        "signature": "Transfer(address,address,uint256)"
                    },
                    "id": 5,
                    "logData": "0x00000000000000000000000000000000000000000000d643c673d4ba8d2996bf",
                    "logDecoded": true,
                    "operation": "EVENT",
                    "revert": false,
                    "status": true,
                    "topics": [
                        "0xddf252ad1be2c89b69c2b068fc378daa952ba7f163c4a11628f55a4df523b3ef",
                        "0x000000000000000000000000d7ba198ce82f4c46ad8f6148ccfdb41866750231",
                        "0x0000000000000000000000006564fb08e957131efadded7c4526516c6360ea7d"
                    ]
                },
                "nodeType": 1
            },
            "6": {
                "event": {
                    "contract": "0x9cb928bf50ed220ac8f703bce35be5ce7f56c99c",
                    "decodedLog": {
                        "name": "Transfer",
                        "params": [
                            {
                                "name": "from",
                                "type": "address",
                                "value": "0xd7ba198ce82f4c46ad8f6148ccfdb41866750231"
                            },
                            {
                                "name": "to",
                                "type": "address",
                                "value": "0xa7ee68e8621dab9119d0de2007bf330844a9a8b7"
                            },
                            {
                                "decimalAvailable": true,
                                "name": "value",
                                "type": "uint256",
                                "value": "1,011,836,659,194,182,144,464,575"
                            }
                        ],
                        "signature": "Transfer(address,address,uint256)"
                    },
                    "id": 6,
                    "logData": "0x00000000000000000000000000000000000000000000d643c673d4ba8d2996bf",
                    "logDecoded": true,
                    "operation": "EVENT",
                    "revert": false,
                    "status": true,
                    "topics": [
                        "0xddf252ad1be2c89b69c2b068fc378daa952ba7f163c4a11628f55a4df523b3ef",
                        "0x000000000000000000000000d7ba198ce82f4c46ad8f6148ccfdb41866750231",
                        "0x000000000000000000000000a7ee68e8621dab9119d0de2007bf330844a9a8b7"
                    ]
                },
                "nodeType": 1
            },
            "7": {
                "event": {
                    "contract": "0x9cb928bf50ed220ac8f703bce35be5ce7f56c99c",
                    "decodedLog": {
                        "name": "Transfer",
                        "params": [
                            {
                                "name": "from",
                                "type": "address",
                                "value": "0xd7ba198ce82f4c46ad8f6148ccfdb41866750231"
                            },
                            {
                                "name": "to",
                                "type": "address",
                                "value": "0x7e6ba6c2b6e078bb29d357be896513c84dea12f9"
                            },
                            {
                                "decimalAvailable": true,
                                "name": "value",
                                "type": "uint256",
                                "value": "1,517,754,988,791,273,216,696,862"
                            }
                        ],
                        "signature": "Transfer(address,address,uint256)"
                    },
                    "id": 7,
                    "logData": "0x000000000000000000000000000000000000000000014165a9adbf17d3be621e",
                    "logDecoded": true,
                    "operation": "EVENT",
                    "revert": false,
                    "status": true,
                    "topics": [
                        "0xddf252ad1be2c89b69c2b068fc378daa952ba7f163c4a11628f55a4df523b3ef",
                        "0x000000000000000000000000d7ba198ce82f4c46ad8f6148ccfdb41866750231",
                        "0x0000000000000000000000007e6ba6c2b6e078bb29d357be896513c84dea12f9"
                    ]
                },
                "nodeType": 1
            },
            "8": {
                "event": {
                    "contract": "0x9cb928bf50ed220ac8f703bce35be5ce7f56c99c",
                    "decodedLog": {
                        "name": "Transfer",
                        "params": [
                            {
                                "name": "from",
                                "type": "address",
                                "value": "0xd7ba198ce82f4c46ad8f6148ccfdb41866750231"
                            },
                            {
                                "name": "to",
                                "type": "address",
                                "value": "0x96bf2e6cc029363b57ffa5984b943f825d333614"
                            },
                            {
                                "decimalAvailable": true,
                                "name": "value",
                                "type": "uint256",
                                "value": "505,918,329,597,091,072,232,287"
                            }
                        ],
                        "signature": "Transfer(address,address,uint256)"
                    },
                    "id": 8,
                    "logData": "0x000000000000000000000000000000000000000000006b21e339ea5d4694cb5f",
                    "logDecoded": true,
                    "operation": "EVENT",
                    "revert": false,
                    "status": true,
                    "topics": [
                        "0xddf252ad1be2c89b69c2b068fc378daa952ba7f163c4a11628f55a4df523b3ef",
                        "0x000000000000000000000000d7ba198ce82f4c46ad8f6148ccfdb41866750231",
                        "0x00000000000000000000000096bf2e6cc029363b57ffa5984b943f825d333614"
                    ]
                },
                "nodeType": 1
            },
            "9": {
                "event": {
                    "contract": "0x9cb928bf50ed220ac8f703bce35be5ce7f56c99c",
                    "decodedLog": {
                        "name": "Transfer",
                        "params": [
                            {
                                "name": "from",
                                "type": "address",
                                "value": "0xa7ee68e8621dab9119d0de2007bf330844a9a8b7"
                            },
                            {
                                "name": "to",
                                "type": "address",
                                "value": "0x48b89a75f307227f7068ad441380cbfdc58b4206"
                            },
                            {
                                "decimalAvailable": true,
                                "name": "value",
                                "type": "uint256",
                                "value": "10,651,921,213,154,439,429,715"
                            }
                        ],
                        "signature": "Transfer(address,address,uint256)"
                    },
                    "id": 9,
                    "logData": "0x000000000000000000000000000000000000000000000241711a33110e537e53",
                    "logDecoded": true,
                    "operation": "EVENT",
                    "revert": false,
                    "status": true,
                    "topics": [
                        "0xddf252ad1be2c89b69c2b068fc378daa952ba7f163c4a11628f55a4df523b3ef",
                        "0x000000000000000000000000a7ee68e8621dab9119d0de2007bf330844a9a8b7",
                        "0x00000000000000000000000048b89a75f307227f7068ad441380cbfdc58b4206"
                    ]
                },
                "nodeType": 1
            }
        },
        "gasFlame": [
            {
                "children": [
                    {
                        "children": [
                            {
                                "children": [],
                                "depth": 0,
                                "name": "Initial Gas",
                                "value": 21324
                            },
                            {
                                "children": [
                                    {
                                        "children": [
                                            {
                                                "children": [],
                                                "depth": 2,
                                                "name": "transferFrom",
                                                "value": 413597
                                            },
                                            {
                                                "children": [],
                                                "depth": 2,
                                                "name": "balanceOf",
                                                "value": 1231
                                            },
                                            {
                                                "children": [],
                                                "depth": 2,
                                                "name": "getReserves",
                                                "value": 2993
                                            },
                                            {
                                                "children": [],
                                                "depth": 2,
                                                "name": "balanceOf",
                                                "value": 1304
                                            },
                                            {
                                                "children": [
                                                    {
                                                        "children": [],
                                                        "depth": 3,
                                                        "name": "transfer",
                                                        "value": 29471
                                                    },
                                                    {
                                                        "children": [],
                                                        "depth": 3,
                                                        "name": "balanceOf",
                                                        "value": 1231
                                                    },
                                                    {
                                                        "children": [],
                                                        "depth": 3,
                                                        "name": "balanceOf",
                                                        "value": 1304
                                                    }
                                                ],
                                                "depth": 2,
                                                "name": "swap",
                                                "value": 78618
                                            },
                                            {
                                                "children": [],
                                                "depth": 2,
                                                "name": "balanceOf",
                                                "value": 1231
                                            }
                                        ],
                                        "depth": 1,
                                        "name": "swapExactTokensForTokensSupportingFeeOnTransferTokens",
                                        "value": 512766
                                    }
                                ],
                                "depth": 0,
                                "name": "Executed Gas",
                                "value": 520981
                            }
                        ],
                        "depth": -1,
                        "name": "Actual Gas Used",
                        "value": 523105
                    },
                    {
                        "children": [],
                        "depth": -1,
                        "name": "Refunded Gas",
                        "value": 19200
                    }
                ],
                "depth": -2,
                "name": "Total Gas",
                "value": 542305
            }
        ],
        "isConfirmed": true,
        "mainTrace": [
            {
                "children": [
                    {
                        "children": [
                            {
                                "children": [
                                    {
                                        "children": [
                                            {
                                                "children": [],
                                                "depth": 3,
                                                "id": 3,
                                                "order": 3
                                            },
                                            {
                                                "children": [],
                                                "depth": 3,
                                                "id": 4,
                                                "order": 4
                                            },
                                            {
                                                "children": [],
                                                "depth": 3,
                                                "id": 5,
                                                "order": 5
                                            },
                                            {
                                                "children": [],
                                                "depth": 3,
                                                "id": 6,
                                                "order": 6
                                            },
                                            {
                                                "children": [],
                                                "depth": 3,
                                                "id": 7,
                                                "order": 7
                                            },
                                            {
                                                "children": [],
                                                "depth": 3,
                                                "id": 8,
                                                "order": 8
                                            },
                                            {
                                                "children": [],
                                                "depth": 3,
                                                "id": 9,
                                                "order": 9
                                            },
                                            {
                                                "children": [],
                                                "depth": 3,
                                                "id": 10,
                                                "order": 10
                                            },
                                            {
                                                "children": [],
                                                "depth": 3,
                                                "id": 11,
                                                "order": 11
                                            },
                                            {
                                                "children": [],
                                                "depth": 3,
                                                "id": 12,
                                                "order": 12
                                            },
                                            {
                                                "children": [],
                                                "depth": 3,
                                                "id": 13,
                                                "order": 13
                                            },
                                            {
                                                "children": [],
                                                "depth": 3,
                                                "id": 14,
                                                "order": 14
                                            },
                                            {
                                                "children": [],
                                                "depth": 3,
                                                "id": 15,
                                                "order": 15
                                            },
                                            {
                                                "children": [],
                                                "depth": 3,
                                                "id": 16,
                                                "order": 16
                                            },
                                            {
                                                "children": [],
                                                "depth": 3,
                                                "id": 17,
                                                "order": 17
                                            },
                                            {
                                                "children": [],
                                                "depth": 3,
                                                "id": 18,
                                                "order": 18
                                            },
                                            {
                                                "children": [],
                                                "depth": 3,
                                                "id": 19,
                                                "order": 19
                                            },
                                            {
                                                "children": [],
                                                "depth": 3,
                                                "id": 20,
                                                "order": 20
                                            },
                                            {
                                                "children": [],
                                                "depth": 3,
                                                "id": 21,
                                                "order": 21
                                            },
                                            {
                                                "children": [],
                                                "depth": 3,
                                                "id": 22,
                                                "order": 22
                                            }
                                        ],
                                        "depth": 2,
                                        "id": 2,
                                        "order": 2
                                    },
                                    {
                                        "children": [],
                                        "depth": 2,
                                        "id": 23,
                                        "order": 23
                                    },
                                    {
                                        "children": [],
                                        "depth": 2,
                                        "id": 24,
                                        "order": 24
                                    },
                                    {
                                        "children": [],
                                        "depth": 2,
                                        "id": 25,
                                        "order": 25
                                    },
                                    {
                                        "children": [
                                            {
                                                "children": [
                                                    {
                                                        "children": [],
                                                        "depth": 4,
                                                        "id": 28,
                                                        "order": 28
                                                    }
                                                ],
                                                "depth": 3,
                                                "id": 27,
                                                "order": 27
                                            },
                                            {
                                                "children": [],
                                                "depth": 3,
                                                "id": 29,
                                                "order": 29
                                            },
                                            {
                                                "children": [],
                                                "depth": 3,
                                                "id": 30,
                                                "order": 30
                                            },
                                            {
                                                "children": [],
                                                "depth": 3,
                                                "id": 31,
                                                "order": 31
                                            },
                                            {
                                                "children": [],
                                                "depth": 3,
                                                "id": 32,
                                                "order": 32
                                            }
                                        ],
                                        "depth": 2,
                                        "id": 26,
                                        "order": 26
                                    },
                                    {
                                        "children": [],
                                        "depth": 2,
                                        "id": 33,
                                        "order": 33
                                    }
                                ],
                                "depth": 1,
                                "id": 1,
                                "order": 1
                            }
                        ],
                        "depth": 0,
                        "id": 0,
                        "order": 0
                    }
                ],
                "depth": -1,
                "id": -1,
                "order": -1
            }
        ],
        "mainTraceNodeCount": 34,
        "parentIdMap": {
            "0": -1,
            "1": 0,
            "10": 2,
            "11": 2,
            "12": 2,
            "13": 2,
            "14": 2,
            "15": 2,
            "16": 2,
            "17": 2,
            "18": 2,
            "19": 2,
            "2": 1,
            "20": 2,
            "21": 2,
            "22": 2,
            "23": 1,
            "24": 1,
            "25": 1,
            "26": 1,
            "27": 26,
            "28": 27,
            "29": 26,
            "3": 2,
            "30": 26,
            "31": 26,
            "32": 26,
            "33": 1,
            "4": 2,
            "5": 2,
            "6": 2,
            "7": 2,
            "8": 2,
            "9": 2
        },
        "tidyTrace": [
            {
                "children": [
                    {
                        "children": [
                            {
                                "children": [
                                    {
                                        "children": [
                                            {
                                                "children": [],
                                                "depth": 3,
                                                "id": 3,
                                                "order": 3
                                            },
                                            {
                                                "children": [],
                                                "depth": 3,
                                                "id": 4,
                                                "order": 4
                                            },
                                            {
                                                "children": [],
                                                "depth": 3,
                                                "id": 5,
                                                "order": 5
                                            },
                                            {
                                                "children": [],
                                                "depth": 3,
                                                "id": 6,
                                                "order": 6
                                            },
                                            {
                                                "children": [],
                                                "depth": 3,
                                                "id": 7,
                                                "order": 7
                                            },
                                            {
                                                "children": [],
                                                "depth": 3,
                                                "id": 8,
                                                "order": 8
                                            },
                                            {
                                                "children": [],
                                                "depth": 3,
                                                "id": 9,
                                                "order": 9
                                            },
                                            {
                                                "children": [],
                                                "depth": 3,
                                                "id": 10,
                                                "order": 10
                                            },
                                            {
                                                "children": [],
                                                "depth": 3,
                                                "id": 11,
                                                "order": 11
                                            },
                                            {
                                                "children": [],
                                                "depth": 3,
                                                "id": 12,
                                                "order": 12
                                            },
                                            {
                                                "children": [],
                                                "depth": 3,
                                                "id": 13,
                                                "order": 13
                                            },
                                            {
                                                "children": [],
                                                "depth": 3,
                                                "id": 14,
                                                "order": 14
                                            },
                                            {
                                                "children": [],
                                                "depth": 3,
                                                "id": 15,
                                                "order": 15
                                            },
                                            {
                                                "children": [],
                                                "depth": 3,
                                                "id": 16,
                                                "order": 16
                                            },
                                            {
                                                "children": [],
                                                "depth": 3,
                                                "id": 17,
                                                "order": 17
                                            },
                                            {
                                                "children": [],
                                                "depth": 3,
                                                "id": 18,
                                                "order": 18
                                            },
                                            {
                                                "children": [],
                                                "depth": 3,
                                                "id": 19,
                                                "order": 19
                                            },
                                            {
                                                "children": [],
                                                "depth": 3,
                                                "id": 20,
                                                "order": 20
                                            },
                                            {
                                                "children": [],
                                                "depth": 3,
                                                "id": 21,
                                                "order": 21
                                            },
                                            {
                                                "children": [],
                                                "depth": 3,
                                                "id": 22,
                                                "order": 22
                                            }
                                        ],
                                        "depth": 2,
                                        "id": 2,
                                        "order": 2
                                    },
                                    {
                                        "children": [
                                            {
                                                "children": [
                                                    {
                                                        "children": [],
                                                        "depth": 4,
                                                        "id": 28,
                                                        "order": 28
                                                    }
                                                ],
                                                "depth": 3,
                                                "id": 27,
                                                "order": 27
                                            },
                                            {
                                                "children": [],
                                                "depth": 3,
                                                "id": 31,
                                                "order": 31
                                            },
                                            {
                                                "children": [],
                                                "depth": 3,
                                                "id": 32,
                                                "order": 32
                                            }
                                        ],
                                        "depth": 2,
                                        "id": 26,
                                        "order": 26
                                    }
                                ],
                                "depth": 1,
                                "id": 1,
                                "order": 1
                            }
                        ],
                        "depth": 0,
                        "id": 0,
                        "order": 0
                    }
                ],
                "depth": -1,
                "id": -1,
                "order": -1
            }
        ],
        "tidyTraceNodeCount": 28
    },
    "state_change": {
        "stateChanges": [
            {
                "address": "0x55d398326f99059ff775485246999027b3197955",
                "erc": "ERC-20",
                "slots": [
                    {
                        "current": "0x0000000000000000000000000000000000000000000000c3010920acab730a35",
                        "key": "0x50aeb4a8322c6845cbc991d3b43dbaeb16279471f765fccc94a25db30a56f5bd",
                        "prev": "0x000000000000000000000000000000000000000000001bcc6865e2cb0a05a8f1"
                    },
                    {
                        "current": "0x000000000000000000000000000000000000000000001b09675cc21e5e929ebc",
                        "key": "0xbec5cc2ae7d20f622086b95054ac23eed3d627393279b767193097a343c5c9af",
                        "prev": "0x0000000000000000000000000000000000000000000000000000000000000000"
                    }
                ],
                "storageVariables": [
                    {
                        "name": "_balances",
                        "type": "mapping(address => uint256)",
                        "value": {
                            "pairs": [
                                {
                                    "key": "0x3df6cd58716d22855afb3b828f82f10708afbb4f",
                                    "value": {
                                        "current": "127677363775463262166716",
                                        "prev": "0",
                                        "typeTag": 1
                                    }
                                },
                                {
                                    "key": "0xd228faee4f73a73fcc73b6d9a1bd25ee1d6ee611",
                                    "value": {
                                        "current": "3597189721168173795893",
                                        "prev": "131274553496631435962609",
                                        "typeTag": 1
                                    }
                                }
                            ],
                            "typeTag": 4
                        }
                    }
                ]
            },
            {
                "address": "0x9cb928bf50ed220ac8f703bce35be5ce7f56c99c",
                "erc": "ERC-20",
                "slots": [
                    {
                        "current": "0x00000000000000000000000000000000000000000000036814eebcfa6bc23fb7",
                        "key": "0x70fe97e75a0e70e0dd423d01c032c336af59c033855ccfa4ab6d27442a3d5126",
                        "prev": "0x00000000000000000000000000000000000000000000001c02471ea9e99e40a1"
                    },
                    {
                        "current": "0x000000000000000000000000000000000000000000000268942a14b4184d4bf8",
                        "key": "0x1d178c74e8356ab72937e2595b6c6d13f26fede808ed3125ede664f21ec33ba4",
                        "prev": "0x000000000000000000000000000000000000000000000027230fe1a309f9cda5"
                    },
                    {
                        "current": "0x0000000000000000000000000000000000000000000002daafb5bdb25a056724",
                        "key": "0x4942c89c52265aa4e0be93b014f6f89db6a05d3bcb874d1a894d1332f5034f0a",
                        "prev": "0x0000000000000000000000000000000000000000000000993e9b8aa14bb1e8d1"
                    },
                    {
                        "current": "0x00000000000000000000000000000000000000000000024f66b424c9c3112989",
                        "key": "0x8bfb4cb68cdafeb0efe51a835e3589572021ebd8c84c74b439c0f008ffa6dc6e",
                        "prev": "0x00000000000000000000000000000000000000000000000df599f1b8b4bdab36"
                    },
                    {
                        "current": "0x0000000000000000000000000000000000000000000000000000000000000000",
                        "key": "0x3126a3df08286b219ff116c051b6a67bdfa9b799525a1f20afa65fb08affc1a0",
                        "prev": "0x00000000000000000000000000000000000000000029d93cc29f8c6f921f715b"
                    },
                    {
                        "current": "0x0000000000000000000000000000000000000000006b19860b7e0e45bca39726",
                        "key": "0x0000000000000000000000000000000000000000000000000000000000000010",
                        "prev": "0x0000000000000000000000000000000000000000006b84a7eeb7f8a303386285"
                    },
                    {
                        "current": "0x00000000000000000000000000000000000000000000025029892ebd2cd0c83c",
                        "key": "0xb138bff26ce2baf7cd357ed460d284607466d96c4f80aaa3366f5afeff891352",
                        "prev": "0x00000000000000000000000000000000000000000000000eb86efbac1e7d49e9"
                    },
                    {
                        "current": "0x000000000000000000000000000000000000000000006f0c13860266055c68da",
                        "key": "0xd840e16649f6b9a295d95876f4633d3a6b10b55e8162971cf78afd886d5ec89b",
                        "prev": "0x0000000000000000000000000000000000000000000003ea304c1808bec79d7b"
                    },
                    {
                        "current": "0x00000000000000000000000000000000000000000000025b0309110acef89eb8",
                        "key": "0x081e18f28cb7185c2aa6b4485658f70fa63e1ac640effd601190a52477ef4a4b",
                        "prev": "0x00000000000000000000000000000000000000000000001991eeddf9c0a52065"
                    },
                    {
                        "current": "0x0000000000000000000000000000000000000000000000000000000000000019",
                        "key": "0x0000000000000000000000000000000000000000000000000000000000000014",
                        "prev": "0x0000000000000000000000000000000000000000000000000000000000000016"
                    },
                    {
                        "current": "0x0000000000000000000000000000000000000000000006306b529ddad3139f12",
                        "key": "0x89cf790e0b7661421d4d82f58373e1a968ee7a6c3991d5d171daa24c380c96cf",
                        "prev": "0x0000000000000000000000000000000000000000000002e458aaff8a50ef9ffc"
                    },
                    {
                        "current": "0x000000000000000000000000000000000000000000014d243a92073210153b83",
                        "key": "0x7b0b587123e3f7dc63d409e222d4c37e43403e12db02716fdd310fed073a0a43",
                        "prev": "0x000000000000000000000000000000000000000000000bbe90e4481a3c56d965"
                    },
                    {
                        "current": "0x00000000000000000000000000000000000000000000024f0cc175a1e7668e36",
                        "key": "0xf96be190e7df5b4a81e17f96716a919a624aff637b981732fd96c4eb4d2c3423",
                        "prev": "0x00000000000000000000000000000000000000000000000d9ba74290d9130fe3"
                    },
                    {
                        "current": "0x000000000000000000000000000000000000000000000252df3325f1a54445e3",
                        "key": "0x7fedf4c15c537833a2f984618a4acafdd4d11310b0e52d359de82c595f2257be",
                        "prev": "0x0000000000000000000000000000000000000000000000116e18f2e096f0c790"
                    },
                    {
                        "current": "0x000000000000000000000000000000000000000000000000000000000000004a",
                        "key": "0x0000000000000000000000000000000000000000000000000000000000000015",
                        "prev": "0x0000000000000000000000000000000000000000000000000000000000000040"
                    },
                    {
                        "current": "0x000000000000000000000000000000000000000000000243e6a681b397469130",
                        "key": "0x6a9aefad1bf02bfd2e20676b6a190fec8e960f7f6e306e7c6a6f9a8f7eb471bc",
                        "prev": "0x000000000000000000000000000000000000000000000002758c4ea288f312dd"
                    },
                    {
                        "current": "0xffffffffffffffffffffffffffffffffffffffffffd626c33d6073906de08ea4",
                        "key": "0x5fd678eee510ca4f680f8c0858c78b489315a75ee61d9930a2b62a972cc7203b",
                        "prev": "0xffffffffffffffffffffffffffffffffffffffffffffffffffffffffffffffff"
                    },
                    {
                        "current": "0x0000000000000000000000000000000000000000002727078e5720036cb8fe3d",
                        "key": "0x2ab3311c3826390dba1534e549b7babc9b5034738922a1aed5d67bc66c9e4fde",
                        "prev": "0x0000000000000000000000000000000000000000000111fbc8c0d0db55d4b33f"
                    },
                    {
                        "current": "0x00000000000000000000000000000000000000000000024f502de0b4bf49ef2d",
                        "key": "0x02d78db6b4ea4637208dedfb64592e108c25aea074d233e0a5b322412f2aaf46",
                        "prev": "0x00000000000000000000000000000000000000000000000ddf13ada3b0f670da"
                    },
                    {
                        "current": "0x00000000000000000000000000000000000000000000bfba8db2f4a9c1b8f1d7",
                        "key": "0xd784dc550392836c84e46b160b0fb9ddc40793416960382b4e3e07f29bc81c1a",
                        "prev": "0x00000000000000000000000000000000000000000000000532451e99c3d24a56"
                    },
                    {
                        "current": "0x000000000000000000000000000000000000000000000421e993ba7835dd7ca4",
                        "key": "0xb7577f1f2749d2e1435be56b613b9193e7fca507ddd1422ab906bad784fefb93",
                        "prev": "0x0000000000000000000000000000000000000000000000d5d6ec1c27b3b97d8e"
                    },
                    {
                        "current": "0x00000000000000000000000000000000000000000000cc6c8498577f84b7c75e",
                        "key": "0x880631771ffd669094ff081fa23cc30cb084cd29f1ce63859304b62e12ce300f",
                        "prev": "0x00000000000000000000000000000000000000000000000cf61b5db67dfa2de1"
                    },
                    {
                        "current": "0x00000000000000000000000000000000000000000000024e990962aa533fe1a5",
                        "key": "0xee9c1998c307d3806ebf404f6831091226b1ee43e08e28b7861a6e0130144635",
                        "prev": "0x00000000000000000000000000000000000000000000000d27ef2f9944ec6352"
                    },
                    {
                        "current": "0x0000000000000000000000000000000000000000001b0e90de032e7c97ca3ada",
                        "key": "0x68d79839c6d765eab33e5d63f2fa97f86410f21ca6c0b05cd811958584055b01",
                        "prev": "0x0000000000000000000000000000000000000000001aa36efac9441f51356f7b"
                    }
                ],
                "storageVariables": [
                    {
                        "name": "_balanceOf",
                        "type": "mapping(address => uint256)",
                        "value": {
                            "pairs": [
                                {
                                    "key": "0x26a0e28c7944da198311f3ba8d8d4e9776024561",
                                    "value": {
                                        "current": "10902944892699537739318",
                                        "prev": "251023679545098309603",
                                        "typeTag": 1
                                    }
                                },
                                {
                                    "key": "0x27948d1fbbe9e239e23ad92a9056762acd01e271",
                                    "value": {
                                        "current": "11373870718035453365240",
                                        "prev": "721949504881013935525",
                                        "typeTag": 1
                                    }
                                },
                                {
                                    "key": "0x48b89a75f307227f7068ad441380cbfdc58b4206",
                                    "value": {
                                        "current": "13478784408309106829092",
                                        "prev": "2826863195154667399377",
                                        "typeTag": 1
                                    }
                                },
                                {
                                    "key": "0x5c06323345b008376ec9db82388cf716a3e22cc3",
                                    "value": {
                                        "current": "10894606457134909481381",
                                        "prev": "242685243980470051666",
                                        "typeTag": 1
                                    }
                                },
                                {
                                    "key": "0x6564fb08e957131efadded7c4526516c6360ea7d",
                                    "value": {
                                        "current": "965364565348182920775518",
                                        "prev": "239094799880595058145",
                                        "typeTag": 1
                                    }
                                },
                                {
                                    "key": "0x7e6ba6c2b6e078bb29d357be896513c84dea12f9",
                                    "value": {
                                        "current": "1573216342025957799181187",
                                        "prev": "55461353234684582484325",
                                        "typeTag": 1
                                    }
                                },
                                {
                                    "key": "0x96bf2e6cc029363b57ffa5984b943f825d333614",
                                    "value": {
                                        "current": "32709782589183190933060314",
                                        "prev": "32203864259586099860828027",
                                        "typeTag": 1
                                    }
                                },
                                {
                                    "key": "0xa0ddb8c704353cc590203460f4d736a6573f52d0",
                                    "value": {
                                        "current": "16087069182983680442295",
                                        "prev": "516672967690407526561",
                                        "typeTag": 1
                                    }
                                },
                                {
                                    "key": "0xa45727bc857f528d1c2b2c3e37bff8fada5b275d",
                                    "value": {
                                        "current": "19515039487168872283300",
                                        "prev": "3944643271875599367566",
                                        "typeTag": 1
                                    }
                                },
                                {
                                    "key": "0xa6e3fa334cca29a86347236356385e1c98816ea0",
                                    "value": {
                                        "current": "10697284932761024893232",
                                        "prev": "45363719606585463517",
                                        "typeTag": 1
                                    }
                                },
                                {
                                    "key": "0xa7ee68e8621dab9119d0de2007bf330844a9a8b7",
                                    "value": {
                                        "current": "905413303118127351525847",
                                        "prev": "95856055489601358422",
                                        "typeTag": 1
                                    }
                                },
                                {
                                    "key": "0xb86ac8dbc06062d99876d5a4e1030e188773c79e",
                                    "value": {
                                        "current": "10923465466453454538812",
                                        "prev": "271544253299015109097",
                                        "typeTag": 1
                                    }
                                },
                                {
                                    "key": "0xd228faee4f73a73fcc73b6d9a1bd25ee1d6ee611",
                                    "value": {
                                        "current": "47332418641712845384384061",
                                        "prev": "1293850648377557811245887",
                                        "typeTag": 1
                                    }
                                },
                                {
                                    "key": "0xd45000236679ab9c42d291d13cae3ac5e135d4cd",
                                    "value": {
                                        "current": "11123605401241883549368",
                                        "prev": "471684188087444119653",
                                        "typeTag": 1
                                    }
                                },
                                {
                                    "key": "0xd7ba198ce82f4c46ad8f6148ccfdb41866750231",
                                    "value": {
                                        "current": "0",
                                        "prev": "50591832959709107223228763",
                                        "typeTag": 1
                                    }
                                },
                                {
                                    "key": "0xe354ffd988fd99640a88e6aca4ba7ad045ba93e7",
                                    "value": {
                                        "current": "29227376029829248032530",
                                        "prev": "13656979814535975116796",
                                        "typeTag": 1
                                    }
                                },
                                {
                                    "key": "0xe99d76ae80ea4d037d8e01f25f56db19d5bde0bf",
                                    "value": {
                                        "current": "10909426328099001280905",
                                        "prev": "257505114944561851190",
                                        "typeTag": 1
                                    }
                                },
                                {
                                    "key": "0xef203f5ee341a29bdbe2533e740f884761cb179d",
                                    "value": {
                                        "current": "10907803268526239248173",
                                        "prev": "255882055371799818458",
                                        "typeTag": 1
                                    }
                                },
                                {
                                    "key": "0xf6f4625d5353ef969d945773b1fb69964791e194",
                                    "value": {
                                        "current": "10973449220197533894115",
                                        "prev": "321528007043094464400",
                                        "typeTag": 1
                                    }
                                }
                            ],
                            "typeTag": 4
                        }
                    },
                    {
                        "name": "AGNcurrentIndex",
                        "type": "uint256",
                        "value": {
                            "current": "25",
                            "prev": "22",
                            "typeTag": 1
                        }
                    },
                    {
                        "name": "_allowances",
                        "type": "mapping(address => mapping(address => uint256))",
                        "value": {
                            "pairs": [
                                {
                                    "key": "0xd7ba198ce82f4c46ad8f6148ccfdb41866750231",
                                    "value": {
                                        "pairs": [
                                            {
                                                "key": "0x10ed43c718714eb63d5aa57b78b54704e256024e",
                                                "value": {
                                                    "current": "115792089237316195423570985008687907853269984665640513447624624298805906411172",
                                                    "prev": "115792089237316195423570985008687907853269984665640564039457584007913129639935",
                                                    "typeTag": 1
                                                }
                                            }
                                        ],
                                        "typeTag": 4
                                    }
                                }
                            ],
                            "typeTag": 4
                        }
                    },
                    {
                        "name": "_tTotal",
                        "type": "uint256",
                        "value": {
                            "current": "129475594552658014066939686",
                            "prev": "129981512882255105139171973",
                            "typeTag": 1
                        }
                    },
                    {
                        "name": "ASNcurrentIndex",
                        "type": "uint256",
                        "value": {
                            "current": "74",
                            "prev": "64",
                            "typeTag": 1
                        }
                    }
                ]
            },
            {
                "address": "0xd228faee4f73a73fcc73b6d9a1bd25ee1d6ee611",
                "erc": "ERC-20",
                "slots": [
                    {
                        "current": "0x0000000000000000000000000000001b202c6e3999e52177726e0765ec806294",
                        "key": "0x0000000000000000000000000000000000000000000000000000000000000009",
                        "prev": "0x0000000000000000000000000000001b1f7b057930f452c1504461ed83ec24b6"
                    },
                    {
                        "current": "0x00000000000000000000000000000000494700fed575c77c2afdea50c36c543e",
                        "key": "0x000000000000000000000000000000000000000000000000000000000000000a",
                        "prev": "0x0000000000000000000000000000000049452d77527db8c880adc47b8d0e28d0"
                    },
                    {
                        "current": "0x63464a970000002727078e5720036cb8fe3d0000000000c3010920acab730a35",
                        "key": "0x0000000000000000000000000000000000000000000000000000000000000008",
                        "prev": "0x63464a850000000111fbc8c0d0db55d4b33f000000001bcc6865e2cb0a05a8f1"
                    }
                ],
                "storageVariables": [
                    {
                        "name": "price0CumulativeLast",
                        "type": "uint256",
                        "value": {
                            "current": "9230389899420921227413365006622575846036",
                            "prev": "9229468738262077021025246228978468660406",
                            "typeTag": 1
                        }
                    },
                    {
                        "name": "price1CumulativeLast",
                        "type": "uint256",
                        "value": {
                            "current": "97402316959270803561010986602501788734",
                            "prev": "97392834337651024497827841186871519440",
                            "typeTag": 1
                        }
                    },
                    {
                        "name": "reserve0",
                        "type": "uint112",
                        "value": {
                            "current": "3597189721168173795893",
                            "prev": "131274553496631435962609",
                            "typeTag": 1
                        }
                    },
                    {
                        "name": "reserve1",
                        "type": "uint112",
                        "value": {
                            "current": "47332418641712845384384061",
                            "prev": "1293850648377557811245887",
                            "typeTag": 1
                        }
                    },
                    {
                        "name": "blockTimestampLast",
                        "type": "uint32",
                        "value": {
                            "current": "1665550999",
                            "prev": "1665550981",
                            "typeTag": 1
                        }
                    }
                ]
            }
        ]
    }
}