{
    "balance_change": {
        "balanceChanges": [
            {
                "account": "0x1bf68a9d1eaee7826b3593c20a0ca93293cb489a",
                "assets": [
                    {
                        "address": "0xeeeeeeeeeeeeeeeeeeeeeeeeeeeeeeeeeeeeeeee",
                        "amount": "9,500",
                        "iconUrl": "https://assets.blocksec.com/image/1663669189317-3.png",
                        "isERC1155": false,
                        "isERC721": false,
                        "sign": false,
                        "value": "21732295.00000000121"
                    }
                ]
            },
            {
                "account": "0x009b60aab8e64c8f5fe449bd96fa78b1a7fffcc5",
                "assets": [
                    {
                        "address": "0xeeeeeeeeeeeeeeeeeeeeeeeeeeeeeeeeeeeeeeee",
                        "amount": "9,500",
                        "iconUrl": "https://assets.blocksec.com/image/1663669189317-3.png",
                        "isERC1155": false,
                        "isERC721": false,
                        "sign": true,
                        "value": "21732295.00000000121"
                    }
                ]
            }
        ]
    },
    "profile": {
        "basic_info": {
            "baseFee": "15.904609639",
            "blockNumber": 18908080,
            "callData": "0x2ac5ab1b000000000000000000000000b5680a55d627c52de992e3ea52a86f19da475399000000000000000000000000000000000000000000000000000000000000016000000000000000000000000000000000000000000000000000000000000001a0000000000000000000000000009b60aab8e64c8f5fe449bd96fa78b1a7fffcc5000000000000000000000000000000000000000000000000000000000000000000000000000000000000000000000000000000000000000000000000000001e0000000000000000000000000000000000000000000000000000000000000024000000000000000000000000000000000000000000000000000000000000002c000000000000000000000000000000000000000000000000000000000000002e000000000000000000000000000000000000000000000000000000000000003e000000000000000000000000000000000000000000000000000000000000004e000000000000000000000000000000000000000000000000000000000000000054f5242495400000000000000000000000000000000000000000000000000000000000000000000000000000000000000000000000000000000000000000000149263e7873613ddc598a701709875634819176aff000000000000000000000000000000000000000000000000000000000000000000000000000000000000000250f408f4b0fb17bf4f5143de4bd95802410d00422f008e9deef06fb101a0f060a2b8071fb214cf3cab5bd586c313954e2ddf2c8f9ebc55211f5d149383305f1f0000000000000000000000000000000000000000000000000000000000000003000000000000000000000000000000000000000000000202fefbf2d7c2f000000000000000000000000000000000000000000000000000000000000000000012000000000000000000000000000000000000000000000000000000000000221800000000000000000000000000000000000000000000000000000000000000000000000000000000000000000000000000000000000000000000000000000007000000000000000000000000000000000000000000000000000000000000001b000000000000000000000000000000000000000000000000000000000000001c000000000000000000000000000000000000000000000000000000000000001b000000000000000000000000000000000000000000000000000000000000001b000000000000000000000000000000000000000000000000000000000000001c000000000000000000000000000000000000000000000000000000000000001c000000000000000000000000000000000000000000000000000000000000001c00000000000000000000000000000000000000000000000000000000000000074fb73ebad15db118c10de0e526bc6a7c11a4874a77239ad37b78516e02d412669d8f9067489cbc9803a1f5a3da49fde9f7493e528af503a1c6f416d031b1803eb769e50a529d27c6209df3763d8c34b0a6c02c43e75782431d4dd5210673ae573e0e034dd7947254f8cb480743233bea644ee1a2987995bb4c352f41ad2d4803bf73df43b624dca7743735fc704a14f06e5701257485c186c5705e41d345171a79f3129fcc44355ca15279de312cc1d2b63df073ca73f6716cfb4a1ca84e1c10c0643e79fd4a66457f6104c635adda71c492ecb7477dc544902ad21c6fb4e4f600000000000000000000000000000000000000000000000000000000000000077106f4926d5099682c151031724e896c32d1ea5b339beccddec44998100531c67af9830cb284499a1825ef6725fa6e5dedcd00afe3e691209d31f9c1601692ea37bfcb8d99a8c2cbfa0704d19fdb060a9e62d621473b0ea828457d9342e56fa369e2375b5b0c1d7dab1cb32f22aab604a563d27042711f5231145b2ecb8a41322eed9270a4ca6ddca4acde2040f8359907cfa86d52aac1f5ac7060a98afd4217229df607a653f1ffbcee66f6267e239c178500e3faf2e45c111f7b4f80c8790705708a79374321b0ec4cd88d05163a57cbddc70c29fadd43092209610acffff3",
            "debugEnable": true,
            "errorInfo": "",
            "eventCount": 1,
            "feeRecipient": "0x1f9090aae28b8a3dceadf281b0f12828e676c326",
            "formatValue": "0",
            "gasLimit": 162530,
            "gasPrice": "300",
            "gasUsed": 158683,
            "intTxnCount": 14,
            "internalRevert": false,
            "internalRevertMessage": "",
            "isContractCreation": false,
            "isFlashloan": false,
            "maxFee": "",
            "nonce": 67,
            "overwritedBlockNumber": -1,
            "priorityFee": "",
            "receiver": "0x1bf68a9d1eaee7826b3593c20a0ca93293cb489a",
            "revertMessage": "",
            "sender": "0x9263e7873613ddc598a701709875634819176aff",
            "simulationEnable": true,
            "sourceTxnHash": "0x639d27e564214411ad8eb06cf00d85cd90f83503a53ab5bf35dd5c6e1148ae0a",
            "status": true,
            "timestamp": "2023-12-31T21:16:59Z",
            "transactionFee": "0.0476049",
            "txnHash": "0x639d27e564214411ad8eb06cf00d85cd90f83503a53ab5bf35dd5c6e1148ae0a",
            "txnIndex": 143,
            "type": 0,
            "value": "0"
        },
        "fund_flow": [
            {
                "amount": "9,500",
                "from": "0x1bf68a9d1eaee7826b3593c20a0ca93293cb489a",
                "id": 1,
                "isERC1155": false,
                "isERC721": false,
                "isReverted": false,
                "order": 1,
                "to": "0x009b60aab8e64c8f5fe449bd96fa78b1a7fffcc5",
                "token": "0xeeeeeeeeeeeeeeeeeeeeeeeeeeeeeeeeeeeeeeee"
            }
        ],
        "token_infos": [
            {
                "address": "0xc02aaa39b223fe8d0a0e5c4f27ead9083c756cc2",
                "decimals": 18
            },
            {
                "address": "0xeeeeeeeeeeeeeeeeeeeeeeeeeeeeeeeeeeeeeeee",
                "decimals": 18
            }
        ]
    },
    "address_label": {
        "labels": [
            {
                "address": "0xc3430bc8c2c05fc6b42114bf7f82a3e2f3ee9454",
                "label": "EthVaultImpl"
            },
            {
                "address": "0x0000000000000000000000000000000000000000",
                "label": "Null Address"
            },
            {
                "address": "0x0000000000000000000000000000000000000001",
                "label": "Precompiled"
            },
            {
                "address": "0x0000000000000000000000000000000000000004",
                "label": "Precompiled"
            },
            {
                "address": "0xeeeeeeeeeeeeeeeeeeeeeeeeeeeeeeeeeeeeeeee",
                "label": "Ether"
            },
            {
                "address": "0x0000000000000000000000000000000000000002",
                "label": "Precompiled"
            },
            {
                "address": "0x009b60aab8e64c8f5fe449bd96fa78b1a7fffcc5",
                "label": "Orbit Bridge Exploiter 4"
            },
            {
                "address": "0x1bf68a9d1eaee7826b3593c20a0ca93293cb489a",
                "label": "Orbit Chain: Bridge"
            },
            {
                "address": "0x9263e7873613ddc598a701709875634819176aff",
                "label": "Fake_Phishing270353"
            },
            {
                "address": "0x0000000000000000000000000000000000000003",
                "label": "Precompiled"
            }
        ]
    },
    "trace": {
        "accountLabels": null,
        "dataMap": {
            "-1": {
                "invocation": {
                    "address": "0x9263e7873613ddc598a701709875634819176aff",
                    "callData": "",
                    "decodedMethod": null,
                    "errorInfo": "",
                    "fromAddress": "",
                    "gasUsed": 0,
                    "id": -1,
                    "methodDecoded": false,
                    "operation": "",
                    "output": "",
                    "revert": false,
                    "revertMessage": "",
                    "selector": "",
                    "status": false,
                    "value": ""
                },
                "nodeType": 0
            },
            "0": {
                "invocation": {
                    "address": "0x1bf68a9d1eaee7826b3593c20a0ca93293cb489a",
                    "callData": "0x000000000000000000000000b5680a55d627c52de992e3ea52a86f19da475399000000000000000000000000000000000000000000000000000000000000016000000000000000000000000000000000000000000000000000000000000001a0000000000000000000000000009b60aab8e64c8f5fe449bd96fa78b1a7fffcc5000000000000000000000000000000000000000000000000000000000000000000000000000000000000000000000000000000000000000000000000000001e0000000000000000000000000000000000000000000000000000000000000024000000000000000000000000000000000000000000000000000000000000002c000000000000000000000000000000000000000000000000000000000000002e000000000000000000000000000000000000000000000000000000000000003e000000000000000000000000000000000000000000000000000000000000004e000000000000000000000000000000000000000000000000000000000000000054f5242495400000000000000000000000000000000000000000000000000000000000000000000000000000000000000000000000000000000000000000000149263e7873613ddc598a701709875634819176aff000000000000000000000000000000000000000000000000000000000000000000000000000000000000000250f408f4b0fb17bf4f5143de4bd95802410d00422f008e9deef06fb101a0f060a2b8071fb214cf3cab5bd586c313954e2ddf2c8f9ebc55211f5d149383305f1f0000000000000000000000000000000000000000000000000000000000000003000000000000000000000000000000000000000000000202fefbf2d7c2f000000000000000000000000000000000000000000000000000000000000000000012000000000000000000000000000000000000000000000000000000000000221800000000000000000000000000000000000000000000000000000000000000000000000000000000000000000000000000000000000000000000000000000007000000000000000000000000000000000000000000000000000000000000001b000000000000000000000000000000000000000000000000000000000000001c000000000000000000000000000000000000000000000000000000000000001b000000000000000000000000000000000000000000000000000000000000001b000000000000000000000000000000000000000000000000000000000000001c000000000000000000000000000000000000000000000000000000000000001c000000000000000000000000000000000000000000000000000000000000001c00000000000000000000000000000000000000000000000000000000000000074fb73ebad15db118c10de0e526bc6a7c11a4874a77239ad37b78516e02d412669d8f9067489cbc9803a1f5a3da49fde9f7493e528af503a1c6f416d031b1803eb769e50a529d27c6209df3763d8c34b0a6c02c43e75782431d4dd5210673ae573e0e034dd7947254f8cb480743233bea644ee1a2987995bb4c352f41ad2d4803bf73df43b624dca7743735fc704a14f06e5701257485c186c5705e41d345171a79f3129fcc44355ca15279de312cc1d2b63df073ca73f6716cfb4a1ca84e1c10c0643e79fd4a66457f6104c635adda71c492ecb7477dc544902ad21c6fb4e4f600000000000000000000000000000000000000000000000000000000000000077106f4926d5099682c151031724e896c32d1ea5b339beccddec44998100531c67af9830cb284499a1825ef6725fa6e5dedcd00afe3e691209d31f9c1601692ea37bfcb8d99a8c2cbfa0704d19fdb060a9e62d621473b0ea828457d9342e56fa369e2375b5b0c1d7dab1cb32f22aab604a563d27042711f5231145b2ecb8a41322eed9270a4ca6ddca4acde2040f8359907cfa86d52aac1f5ac7060a98afd4217229df607a653f1ffbcee66f6267e239c178500e3faf2e45c111f7b4f80c8790705708a79374321b0ec4cd88d05163a57cbddc70c29fadd43092209610acffff3",
                    "decodedMethod": {
                        "callParams": [
                            {
                                "name": "hubContract",
                                "type": "address",
                                "value": "0xb5680a55d627c52de992e3ea52a86f19da475399"
                            },
                            {
                                "name": "fromChain",
                                "type": "string",
                                "value": "ORBIT"
                            },
                            {
                                "name": "fromAddr",
                                "type": "bytes",
                                "value": "0x9263e7873613ddc598a701709875634819176aff"
                            },
                            {
                                "name": "toAddr",
                                "type": "address",
                                "value": "0x009b60aab8e64c8f5fe449bd96fa78b1a7fffcc5"
                            },
                            {
                                "name": "token",
                                "type": "address",
                                "value": "0x0000000000000000000000000000000000000000"
                            },
                            {
                                "name": "bytes32s",
                                "type": "bytes32[]",
                                "value": [
                                    "0x50f408f4b0fb17bf4f5143de4bd95802410d00422f008e9deef06fb101a0f060",
                                    "0xa2b8071fb214cf3cab5bd586c313954e2ddf2c8f9ebc55211f5d149383305f1f"
                                ]
                            },
                            {
                                "name": "uints",
                                "type": "uint256[]",
                                "value": [
                                    "9,500,000,000,000,000,000,000",
                                    "18",
                                    "8,728"
                                ]
                            },
                            {
                                "name": "data",
                                "type": "bytes",
                                "value": "0x"
                            },
                            {
                                "name": "v",
                                "type": "uint8[]",
                                "value": [
                                    "27",
                                    "28",
                                    "27",
                                    "27",
                                    "28",
                                    "28",
                                    "28"
                                ]
                            },
                            {
                                "name": "r",
                                "type": "bytes32[]",
                                "value": [
                                    "0x4fb73ebad15db118c10de0e526bc6a7c11a4874a77239ad37b78516e02d41266",
                                    "0x9d8f9067489cbc9803a1f5a3da49fde9f7493e528af503a1c6f416d031b1803e",
                                    "0xb769e50a529d27c6209df3763d8c34b0a6c02c43e75782431d4dd5210673ae57",
                                    "0x3e0e034dd7947254f8cb480743233bea644ee1a2987995bb4c352f41ad2d4803",
                                    "0xbf73df43b624dca7743735fc704a14f06e5701257485c186c5705e41d345171a",
                                    "0x79f3129fcc44355ca15279de312cc1d2b63df073ca73f6716cfb4a1ca84e1c10",
                                    "0xc0643e79fd4a66457f6104c635adda71c492ecb7477dc544902ad21c6fb4e4f6"
                                ]
                            },
                            {
                                "name": "s",
                                "type": "bytes32[]",
                                "value": [
                                    "0x7106f4926d5099682c151031724e896c32d1ea5b339beccddec44998100531c6",
                                    "0x7af9830cb284499a1825ef6725fa6e5dedcd00afe3e691209d31f9c1601692ea",
                                    "0x37bfcb8d99a8c2cbfa0704d19fdb060a9e62d621473b0ea828457d9342e56fa3",
                                    "0x69e2375b5b0c1d7dab1cb32f22aab604a563d27042711f5231145b2ecb8a4132",
                                    "0x2eed9270a4ca6ddca4acde2040f8359907cfa86d52aac1f5ac7060a98afd4217",
                                    "0x229df607a653f1ffbcee66f6267e239c178500e3faf2e45c111f7b4f80c87907",
                                    "0x05708a79374321b0ec4cd88d05163a57cbddc70c29fadd43092209610acffff3"
                                ]
                            }
                        ],
                        "constructorArguments": "",
                        "name": "withdraw",
                        "returnParams": [],
                        "signature": "withdraw(address,string,bytes,address,address,bytes32[],uint256[],bytes,uint8[],bytes32[],bytes32[])"
                    },
                    "errorInfo": "",
                    "fromAddress": "0x9263e7873613ddc598a701709875634819176aff",
                    "gasUsed": 158683,
                    "id": 0,
                    "methodDecoded": true,
                    "operation": "CALL",
                    "output": "",
                    "revert": false,
                    "revertMessage": "",
                    "selector": "0x2ac5ab1b",
                    "status": true,
                    "value": "0"
                },
                "nodeType": 0
            },
            "1": {
                "invocation": {
                    "address": "0xc3430bc8c2c05fc6b42114bf7f82a3e2f3ee9454",
                    "callData": "0x000000000000000000000000b5680a55d627c52de992e3ea52a86f19da475399000000000000000000000000000000000000000000000000000000000000016000000000000000000000000000000000000000000000000000000000000001a0000000000000000000000000009b60aab8e64c8f5fe449bd96fa78b1a7fffcc5000000000000000000000000000000000000000000000000000000000000000000000000000000000000000000000000000000000000000000000000000001e0000000000000000000000000000000000000000000000000000000000000024000000000000000000000000000000000000000000000000000000000000002c000000000000000000000000000000000000000000000000000000000000002e000000000000000000000000000000000000000000000000000000000000003e000000000000000000000000000000000000000000000000000000000000004e000000000000000000000000000000000000000000000000000000000000000054f5242495400000000000000000000000000000000000000000000000000000000000000000000000000000000000000000000000000000000000000000000149263e7873613ddc598a701709875634819176aff000000000000000000000000000000000000000000000000000000000000000000000000000000000000000250f408f4b0fb17bf4f5143de4bd95802410d00422f008e9deef06fb101a0f060a2b8071fb214cf3cab5bd586c313954e2ddf2c8f9ebc55211f5d149383305f1f0000000000000000000000000000000000000000000000000000000000000003000000000000000000000000000000000000000000000202fefbf2d7c2f000000000000000000000000000000000000000000000000000000000000000000012000000000000000000000000000000000000000000000000000000000000221800000000000000000000000000000000000000000000000000000000000000000000000000000000000000000000000000000000000000000000000000000007000000000000000000000000000000000000000000000000000000000000001b000000000000000000000000000000000000000000000000000000000000001c000000000000000000000000000000000000000000000000000000000000001b000000000000000000000000000000000000000000000000000000000000001b000000000000000000000000000000000000000000000000000000000000001c000000000000000000000000000000000000000000000000000000000000001c000000000000000000000000000000000000000000000000000000000000001c00000000000000000000000000000000000000000000000000000000000000074fb73ebad15db118c10de0e526bc6a7c11a4874a77239ad37b78516e02d412669d8f9067489cbc9803a1f5a3da49fde9f7493e528af503a1c6f416d031b1803eb769e50a529d27c6209df3763d8c34b0a6c02c43e75782431d4dd5210673ae573e0e034dd7947254f8cb480743233bea644ee1a2987995bb4c352f41ad2d4803bf73df43b624dca7743735fc704a14f06e5701257485c186c5705e41d345171a79f3129fcc44355ca15279de312cc1d2b63df073ca73f6716cfb4a1ca84e1c10c0643e79fd4a66457f6104c635adda71c492ecb7477dc544902ad21c6fb4e4f600000000000000000000000000000000000000000000000000000000000000077106f4926d5099682c151031724e896c32d1ea5b339beccddec44998100531c67af9830cb284499a1825ef6725fa6e5dedcd00afe3e691209d31f9c1601692ea37bfcb8d99a8c2cbfa0704d19fdb060a9e62d621473b0ea828457d9342e56fa369e2375b5b0c1d7dab1cb32f22aab604a563d27042711f5231145b2ecb8a41322eed9270a4ca6ddca4acde2040f8359907cfa86d52aac1f5ac7060a98afd4217229df607a653f1ffbcee66f6267e239c178500e3faf2e45c111f7b4f80c8790705708a79374321b0ec4cd88d05163a57cbddc70c29fadd43092209610acffff3",
                    "decodedMethod": {
                        "callParams": [
                            {
                                "name": "hubContract",
                                "type": "address",
                                "value": "0xb5680a55d627c52de992e3ea52a86f19da475399"
                            },
                            {
                                "name": "fromChain",
                                "type": "string",
                                "value": "ORBIT"
                            },
                            {
                                "name": "fromAddr",
                                "type": "bytes",
                                "value": "0x9263e7873613ddc598a701709875634819176aff"
                            },
                            {
                                "name": "toAddr",
                                "type": "address",
                                "value": "0x009b60aab8e64c8f5fe449bd96fa78b1a7fffcc5"
                            },
                            {
                                "name": "token",
                                "type": "address",
                                "value": "0x0000000000000000000000000000000000000000"
                            },
                            {
                                "name": "bytes32s",
                                "type": "bytes32[]",
                                "value": [
                                    "0x50f408f4b0fb17bf4f5143de4bd95802410d00422f008e9deef06fb101a0f060",
                                    "0xa2b8071fb214cf3cab5bd586c313954e2ddf2c8f9ebc55211f5d149383305f1f"
                                ]
                            },
                            {
                                "name": "uints",
                                "type": "uint256[]",
                                "value": [
                                    "9,500,000,000,000,000,000,000",
                                    "18",
                                    "8,728"
                                ]
                            },
                            {
                                "name": "data",
                                "type": "bytes",
                                "value": "0x"
                            },
                            {
                                "name": "v",
                                "type": "uint8[]",
                                "value": [
                                    "27",
                                    "28",
                                    "27",
                                    "27",
                                    "28",
                                    "28",
                                    "28"
                                ]
                            },
                            {
                                "name": "r",
                                "type": "bytes32[]",
                                "value": [
                                    "0x4fb73ebad15db118c10de0e526bc6a7c11a4874a77239ad37b78516e02d41266",
                                    "0x9d8f9067489cbc9803a1f5a3da49fde9f7493e528af503a1c6f416d031b1803e",
                                    "0xb769e50a529d27c6209df3763d8c34b0a6c02c43e75782431d4dd5210673ae57",
                                    "0x3e0e034dd7947254f8cb480743233bea644ee1a2987995bb4c352f41ad2d4803",
                                    "0xbf73df43b624dca7743735fc704a14f06e5701257485c186c5705e41d345171a",
                                    "0x79f3129fcc44355ca15279de312cc1d2b63df073ca73f6716cfb4a1ca84e1c10",
                                    "0xc0643e79fd4a66457f6104c635adda71c492ecb7477dc544902ad21c6fb4e4f6"
                                ]
                            },
                            {
                                "name": "s",
                                "type": "bytes32[]",
                                "value": [
                                    "0x7106f4926d5099682c151031724e896c32d1ea5b339beccddec44998100531c6",
                                    "0x7af9830cb284499a1825ef6725fa6e5dedcd00afe3e691209d31f9c1601692ea",
                                    "0x37bfcb8d99a8c2cbfa0704d19fdb060a9e62d621473b0ea828457d9342e56fa3",
                                    "0x69e2375b5b0c1d7dab1cb32f22aab604a563d27042711f5231145b2ecb8a4132",
                                    "0x2eed9270a4ca6ddca4acde2040f8359907cfa86d52aac1f5ac7060a98afd4217",
                                    "0x229df607a653f1ffbcee66f6267e239c178500e3faf2e45c111f7b4f80c87907",
                                    "0x05708a79374321b0ec4cd88d05163a57cbddc70c29fadd43092209610acffff3"
                                ]
                            }
                        ],
                        "constructorArguments": "",
                        "name": "withdraw",
                        "returnParams": [],
                        "signature": "withdraw(address,string,bytes,address,address,bytes32[],uint256[],bytes,uint8[],bytes32[],bytes32[])"
                    },
                    "errorInfo": "",
                    "fromAddress": "0x1bf68a9d1eaee7826b3593c20a0ca93293cb489a",
                    "gasUsed": 118300,
                    "id": 1,
                    "methodDecoded": true,
                    "operation": "DELEGATECALL",
                    "output": "",
                    "revert": false,
                    "revertMessage": "",
                    "selector": "0x2ac5ab1b",
                    "status": true,
                    "value": "0"
                },
                "nodeType": 0
            },
            "10": {
                "invocation": {
                    "address": "0x0000000000000000000000000000000000000001",
                    "callData": "0xf60f81143172b2843f9a2cef642a4f8a6e5a8341def16fe6d0ba7ef5000000000000000000000000000000000000000000000000000000000000001b3e0e034dd7947254f8cb480743233bea644ee1a2987995bb4c352f41ad2d480369e2375b5b0c1d7dab1cb32f22aab604a563d27042711f5231145b2ecb8a4132",
                    "decodedMethod": {
                        "callParams": [
                            {
                                "name": "hash",
                                "type": "bytes32",
                                "value": "0x12374fa4f60f81143172b2843f9a2cef642a4f8a6e5a8341def16fe6d0ba7ef5"
                            },
                            {
                                "name": "v",
                                "type": "uint256",
                                "value": "27"
                            },
                            {
                                "name": "r",
                                "type": "bytes32",
                                "value": "0x3e0e034dd7947254f8cb480743233bea644ee1a2987995bb4c352f41ad2d4803"
                            },
                            {
                                "name": "s",
                                "type": "bytes32",
                                "value": "0x69e2375b5b0c1d7dab1cb32f22aab604a563d27042711f5231145b2ecb8a4132"
                            }
                        ],
                        "constructorArguments": "",
                        "name": "ecrecover",
                        "returnParams": [
                            {
                                "name": "",
                                "type": "address",
                                "value": "0xa6dc28cbcb2f8060a00b4fa67f9b67775ac5a3a1"
                            }
                        ],
                        "signature": "ecrecover(bytes32,uint256,bytes32,bytes32)"
                    },
                    "errorInfo": "",
                    "fromAddress": "0x1bf68a9d1eaee7826b3593c20a0ca93293cb489a",
                    "gasUsed": 3000,
                    "id": 10,
                    "methodDecoded": true,
                    "operation": "STATICCALL",
                    "output": "0x000000000000000000000000a6dc28cbcb2f8060a00b4fa67f9b67775ac5a3a1",
                    "revert": false,
                    "revertMessage": "",
                    "selector": "0x12374fa4",
                    "status": true,
                    "value": "0"
                },
                "nodeType": 0
            },
            "11": {
                "invocation": {
                    "address": "0x0000000000000000000000000000000000000001",
                    "callData": "0xf60f81143172b2843f9a2cef642a4f8a6e5a8341def16fe6d0ba7ef5000000000000000000000000000000000000000000000000000000000000001cbf73df43b624dca7743735fc704a14f06e5701257485c186c5705e41d345171a2eed9270a4ca6ddca4acde2040f8359907cfa86d52aac1f5ac7060a98afd4217",
                    "decodedMethod": {
                        "callParams": [
                            {
                                "name": "hash",
                                "type": "bytes32",
                                "value": "0x12374fa4f60f81143172b2843f9a2cef642a4f8a6e5a8341def16fe6d0ba7ef5"
                            },
                            {
                                "name": "v",
                                "type": "uint256",
                                "value": "28"
                            },
                            {
                                "name": "r",
                                "type": "bytes32",
                                "value": "0xbf73df43b624dca7743735fc704a14f06e5701257485c186c5705e41d345171a"
                            },
                            {
                                "name": "s",
                                "type": "bytes32",
                                "value": "0x2eed9270a4ca6ddca4acde2040f8359907cfa86d52aac1f5ac7060a98afd4217"
                            }
                        ],
                        "constructorArguments": "",
                        "name": "ecrecover",
                        "returnParams": [
                            {
                                "name": "",
                                "type": "address",
                                "value": "0x67c3c784c49d9ab8757adb71491df1a1b38fbfa8"
                            }
                        ],
                        "signature": "ecrecover(bytes32,uint256,bytes32,bytes32)"
                    },
                    "errorInfo": "",
                    "fromAddress": "0x1bf68a9d1eaee7826b3593c20a0ca93293cb489a",
                    "gasUsed": 3000,
                    "id": 11,
                    "methodDecoded": true,
                    "operation": "STATICCALL",
                    "output": "0x00000000000000000000000067c3c784c49d9ab8757adb71491df1a1b38fbfa8",
                    "revert": false,
                    "revertMessage": "",
                    "selector": "0x12374fa4",
                    "status": true,
                    "value": "0"
                },
                "nodeType": 0
            },
            "12": {
                "invocation": {
                    "address": "0x0000000000000000000000000000000000000001",
                    "callData": "0xf60f81143172b2843f9a2cef642a4f8a6e5a8341def16fe6d0ba7ef5000000000000000000000000000000000000000000000000000000000000001c79f3129fcc44355ca15279de312cc1d2b63df073ca73f6716cfb4a1ca84e1c10229df607a653f1ffbcee66f6267e239c178500e3faf2e45c111f7b4f80c87907",
                    "decodedMethod": {
                        "callParams": [
                            {
                                "name": "hash",
                                "type": "bytes32",
                                "value": "0x12374fa4f60f81143172b2843f9a2cef642a4f8a6e5a8341def16fe6d0ba7ef5"
                            },
                            {
                                "name": "v",
                                "type": "uint256",
                                "value": "28"
                            },
                            {
                                "name": "r",
                                "type": "bytes32",
                                "value": "0x79f3129fcc44355ca15279de312cc1d2b63df073ca73f6716cfb4a1ca84e1c10"
                            },
                            {
                                "name": "s",
                                "type": "bytes32",
                                "value": "0x229df607a653f1ffbcee66f6267e239c178500e3faf2e45c111f7b4f80c87907"
                            }
                        ],
                        "constructorArguments": "",
                        "name": "ecrecover",
                        "returnParams": [
                            {
                                "name": "",
                                "type": "address",
                                "value": "0x1c0cd56f1c3e2cf13b9b44dbe5529104bade543e"
                            }
                        ],
                        "signature": "ecrecover(bytes32,uint256,bytes32,bytes32)"
                    },
                    "errorInfo": "",
                    "fromAddress": "0x1bf68a9d1eaee7826b3593c20a0ca93293cb489a",
                    "gasUsed": 3000,
                    "id": 12,
                    "methodDecoded": true,
                    "operation": "STATICCALL",
                    "output": "0x0000000000000000000000001c0cd56f1c3e2cf13b9b44dbe5529104bade543e",
                    "revert": false,
                    "revertMessage": "",
                    "selector": "0x12374fa4",
                    "status": true,
                    "value": "0"
                },
                "nodeType": 0
            },
            "13": {
                "invocation": {
                    "address": "0x0000000000000000000000000000000000000001",
                    "callData": "0xf60f81143172b2843f9a2cef642a4f8a6e5a8341def16fe6d0ba7ef5000000000000000000000000000000000000000000000000000000000000001cc0643e79fd4a66457f6104c635adda71c492ecb7477dc544902ad21c6fb4e4f605708a79374321b0ec4cd88d05163a57cbddc70c29fadd43092209610acffff3",
                    "decodedMethod": {
                        "callParams": [
                            {
                                "name": "hash",
                                "type": "bytes32",
                                "value": "0x12374fa4f60f81143172b2843f9a2cef642a4f8a6e5a8341def16fe6d0ba7ef5"
                            },
                            {
                                "name": "v",
                                "type": "uint256",
                                "value": "28"
                            },
                            {
                                "name": "r",
                                "type": "bytes32",
                                "value": "0xc0643e79fd4a66457f6104c635adda71c492ecb7477dc544902ad21c6fb4e4f6"
                            },
                            {
                                "name": "s",
                                "type": "bytes32",
                                "value": "0x05708a79374321b0ec4cd88d05163a57cbddc70c29fadd43092209610acffff3"
                            }
                        ],
                        "constructorArguments": "",
                        "name": "ecrecover",
                        "returnParams": [
                            {
                                "name": "",
                                "type": "address",
                                "value": "0x7f4b332611818ae13c76f9222e2229f274ded9bd"
                            }
                        ],
                        "signature": "ecrecover(bytes32,uint256,bytes32,bytes32)"
                    },
                    "errorInfo": "",
                    "fromAddress": "0x1bf68a9d1eaee7826b3593c20a0ca93293cb489a",
                    "gasUsed": 3000,
                    "id": 13,
                    "methodDecoded": true,
                    "operation": "STATICCALL",
                    "output": "0x0000000000000000000000007f4b332611818ae13c76f9222e2229f274ded9bd",
                    "revert": false,
                    "revertMessage": "",
                    "selector": "0x12374fa4",
                    "status": true,
                    "value": "0"
                },
                "nodeType": 0
            },
            "14": {
                "event": {
                    "contract": "0x1bf68a9d1eaee7826b3593c20a0ca93293cb489a",
                    "decodedLog": {
                        "name": "Withdraw",
                        "params": [
                            {
                                "name": "fromChain",
                                "type": "string",
                                "value": "ORBIT"
                            },
                            {
                                "name": "fromAddr",
                                "type": "bytes",
                                "value": "0x9263e7873613ddc598a701709875634819176aff"
                            },
                            {
                                "name": "toAddr",
                                "type": "bytes",
                                "value": "0x009b60aab8e64c8f5fe449bd96fa78b1a7fffcc5"
                            },
                            {
                                "name": "token",
                                "type": "bytes",
                                "value": "0x0000000000000000000000000000000000000000"
                            },
                            {
                                "name": "bytes32s",
                                "type": "bytes32[]",
                                "value": [
                                    "0x50f408f4b0fb17bf4f5143de4bd95802410d00422f008e9deef06fb101a0f060",
                                    "0xa2b8071fb214cf3cab5bd586c313954e2ddf2c8f9ebc55211f5d149383305f1f"
                                ]
                            },
                            {
                                "name": "uints",
                                "type": "uint256[]",
                                "value": [
                                    "9,500,000,000,000,000,000,000",
                                    "18",
                                    "8,728"
                                ]
                            },
                            {
                                "name": "data",
                                "type": "bytes",
                                "value": "0x"
                            }
                        ],
                        "signature": "Withdraw(string,bytes,bytes,bytes,bytes32[],uint256[],bytes)"
                    },
                    "id": 14,
                    "logData": "0x00000000000000000000000000000000000000000000000000000000000000e00000000000000000000000000000000000000000000000000000000000000120000000000000000000000000000000000000000000000000000000000000016000000000000000000000000000000000000000000000000000000000000001a000000000000000000000000000000000000000000000000000000000000001e0000000000000000000000000000000000000000000000000000000000000024000000000000000000000000000000000000000000000000000000000000002c000000000000000000000000000000000000000000000000000000000000000054f5242495400000000000000000000000000000000000000000000000000000000000000000000000000000000000000000000000000000000000000000000149263e7873613ddc598a701709875634819176aff0000000000000000000000000000000000000000000000000000000000000000000000000000000000000014009b60aab8e64c8f5fe449bd96fa78b1a7fffcc500000000000000000000000000000000000000000000000000000000000000000000000000000000000000140000000000000000000000000000000000000000000000000000000000000000000000000000000000000000000000000000000000000000000000000000000250f408f4b0fb17bf4f5143de4bd95802410d00422f008e9deef06fb101a0f060a2b8071fb214cf3cab5bd586c313954e2ddf2c8f9ebc55211f5d149383305f1f0000000000000000000000000000000000000000000000000000000000000003000000000000000000000000000000000000000000000202fefbf2d7c2f00000000000000000000000000000000000000000000000000000000000000000001200000000000000000000000000000000000000000000000000000000000022180000000000000000000000000000000000000000000000000000000000000000",
                    "logDecoded": true,
                    "operation": "EVENT",
                    "revert": false,
                    "status": true,
                    "topics": [
                        "0xa866edf1861d39a9973d7892f3869e1bb4b76bc00d216872c1dd2bc547f2da2e"
                    ]
                },
                "nodeType": 1
            },
            "15": {
                "invocation": {
                    "address": "0x009b60aab8e64c8f5fe449bd96fa78b1a7fffcc5",
                    "callData": "0x",
                    "decodedMethod": null,
                    "errorInfo": "",
                    "fromAddress": "0x1bf68a9d1eaee7826b3593c20a0ca93293cb489a",
                    "gasUsed": 0,
                    "id": 15,
                    "methodDecoded": false,
                    "operation": "CALL",
                    "output": "",
                    "revert": false,
                    "revertMessage": "",
                    "selector": "fallback",
                    "status": true,
                    "value": "9500"
                },
                "nodeType": 0
            },
            "2": {
                "invocation": {
                    "address": "0x0000000000000000000000000000000000000002",
                    "callData": "0x1eaee7826b3593c20a0ca93293cb489a4f52424954",
                    "decodedMethod": {
                        "callParams": [
                            {
                                "name": "data",
                                "type": "bytes",
                                "value": "0x1bf68a9d1eaee7826b3593c20a0ca93293cb489a4f52424954"
                            }
                        ],
                        "constructorArguments": "",
                        "name": "sha256hash",
                        "returnParams": [
                            {
                                "name": "hash",
                                "type": "bytes32",
                                "value": "0xb18557931ff79edd3f4f9f4679b4538562f57b62aadb370d1b78a81df9dd56bb"
                            }
                        ],
                        "signature": "sha256hash(bytes)"
                    },
                    "errorInfo": "",
                    "fromAddress": "0x1bf68a9d1eaee7826b3593c20a0ca93293cb489a",
                    "gasUsed": 72,
                    "id": 2,
                    "methodDecoded": true,
                    "operation": "STATICCALL",
                    "output": "0xb18557931ff79edd3f4f9f4679b4538562f57b62aadb370d1b78a81df9dd56bb",
                    "revert": false,
                    "revertMessage": "",
                    "selector": "0x1bf68a9d",
                    "status": true,
                    "value": "0"
                },
                "nodeType": 0
            },
            "3": {
                "invocation": {
                    "address": "0x0000000000000000000000000000000000000002",
                    "callData": "0x1eaee7826b3593c20a0ca93293cb489a4f52424954",
                    "decodedMethod": {
                        "callParams": [
                            {
                                "name": "data",
                                "type": "bytes",
                                "value": "0x1bf68a9d1eaee7826b3593c20a0ca93293cb489a4f52424954"
                            }
                        ],
                        "constructorArguments": "",
                        "name": "sha256hash",
                        "returnParams": [
                            {
                                "name": "hash",
                                "type": "bytes32",
                                "value": "0xb18557931ff79edd3f4f9f4679b4538562f57b62aadb370d1b78a81df9dd56bb"
                            }
                        ],
                        "signature": "sha256hash(bytes)"
                    },
                    "errorInfo": "",
                    "fromAddress": "0x1bf68a9d1eaee7826b3593c20a0ca93293cb489a",
                    "gasUsed": 72,
                    "id": 3,
                    "methodDecoded": true,
                    "operation": "STATICCALL",
                    "output": "0xb18557931ff79edd3f4f9f4679b4538562f57b62aadb370d1b78a81df9dd56bb",
                    "revert": false,
                    "revertMessage": "",
                    "selector": "0x1bf68a9d",
                    "status": true,
                    "value": "0"
                },
                "nodeType": 0
            },
            "4": {
                "invocation": {
                    "address": "0x0000000000000000000000000000000000000002",
                    "callData": "0xd627c52de992e3ea52a86f19da4753994554481bf68a9d1eaee7826b3593c20a0ca93293cb489a",
                    "decodedMethod": {
                        "callParams": [
                            {
                                "name": "data",
                                "type": "bytes",
                                "value": "0xb5680a55d627c52de992e3ea52a86f19da4753994554481bf68a9d1eaee7826b3593c20a0ca93293cb489a"
                            }
                        ],
                        "constructorArguments": "",
                        "name": "sha256hash",
                        "returnParams": [
                            {
                                "name": "hash",
                                "type": "bytes32",
                                "value": "0x50f408f4b0fb17bf4f5143de4bd95802410d00422f008e9deef06fb101a0f060"
                            }
                        ],
                        "signature": "sha256hash(bytes)"
                    },
                    "errorInfo": "",
                    "fromAddress": "0x1bf68a9d1eaee7826b3593c20a0ca93293cb489a",
                    "gasUsed": 84,
                    "id": 4,
                    "methodDecoded": true,
                    "operation": "STATICCALL",
                    "output": "0x50f408f4b0fb17bf4f5143de4bd95802410d00422f008e9deef06fb101a0f060",
                    "revert": false,
                    "revertMessage": "",
                    "selector": "0xb5680a55",
                    "status": true,
                    "value": "0"
                },
                "nodeType": 0
            },
            "5": {
                "invocation": {
                    "address": "0x0000000000000000000000000000000000000002",
                    "callData": "0x1eaee7826b3593c20a0ca93293cb489a4f52424954",
                    "decodedMethod": {
                        "callParams": [
                            {
                                "name": "data",
                                "type": "bytes",
                                "value": "0x1bf68a9d1eaee7826b3593c20a0ca93293cb489a4f52424954"
                            }
                        ],
                        "constructorArguments": "",
                        "name": "sha256hash",
                        "returnParams": [
                            {
                                "name": "hash",
                                "type": "bytes32",
                                "value": "0xb18557931ff79edd3f4f9f4679b4538562f57b62aadb370d1b78a81df9dd56bb"
                            }
                        ],
                        "signature": "sha256hash(bytes)"
                    },
                    "errorInfo": "",
                    "fromAddress": "0x1bf68a9d1eaee7826b3593c20a0ca93293cb489a",
                    "gasUsed": 72,
                    "id": 5,
                    "methodDecoded": true,
                    "operation": "STATICCALL",
                    "output": "0xb18557931ff79edd3f4f9f4679b4538562f57b62aadb370d1b78a81df9dd56bb",
                    "revert": false,
                    "revertMessage": "",
                    "selector": "0x1bf68a9d",
                    "status": true,
                    "value": "0"
                },
                "nodeType": 0
            },
            "6": {
                "invocation": {
                    "address": "0x0000000000000000000000000000000000000002",
                    "callData": "0xd627c52de992e3ea52a86f19da4753994f524249544554489263e7873613ddc598a701709875634819176aff009b60aab8e64c8f5fe449bd96fa78b1a7fffcc5000000000000000000000000000000000000000050f408f4b0fb17bf4f5143de4bd95802410d00422f008e9deef06fb101a0f060a2b8071fb214cf3cab5bd586c313954e2ddf2c8f9ebc55211f5d149383305f1f000000000000000000000000000000000000000000000202fefbf2d7c2f0000000000000000000000000000000000000000000000000000000000000000000120000000000000000000000000000000000000000000000000000000000002218",
                    "decodedMethod": {
                        "callParams": [
                            {
                                "name": "data",
                                "type": "bytes",
                                "value": "0xb5680a55d627c52de992e3ea52a86f19da4753994f524249544554489263e7873613ddc598a701709875634819176aff009b60aab8e64c8f5fe449bd96fa78b1a7fffcc5000000000000000000000000000000000000000050f408f4b0fb17bf4f5143de4bd95802410d00422f008e9deef06fb101a0f060a2b8071fb214cf3cab5bd586c313954e2ddf2c8f9ebc55211f5d149383305f1f000000000000000000000000000000000000000000000202fefbf2d7c2f0000000000000000000000000000000000000000000000000000000000000000000120000000000000000000000000000000000000000000000000000000000002218"
                            }
                        ],
                        "constructorArguments": "",
                        "name": "sha256hash",
                        "returnParams": [
                            {
                                "name": "hash",
                                "type": "bytes32",
                                "value": "0x12374fa4f60f81143172b2843f9a2cef642a4f8a6e5a8341def16fe6d0ba7ef5"
                            }
                        ],
                        "signature": "sha256hash(bytes)"
                    },
                    "errorInfo": "",
                    "fromAddress": "0x1bf68a9d1eaee7826b3593c20a0ca93293cb489a",
                    "gasUsed": 156,
                    "id": 6,
                    "methodDecoded": true,
                    "operation": "STATICCALL",
                    "output": "0x12374fa4f60f81143172b2843f9a2cef642a4f8a6e5a8341def16fe6d0ba7ef5",
                    "revert": false,
                    "revertMessage": "",
                    "selector": "0xb5680a55",
                    "status": true,
                    "value": "0"
                },
                "nodeType": 0
            },
            "7": {
                "invocation": {
                    "address": "0x0000000000000000000000000000000000000001",
                    "callData": "0xf60f81143172b2843f9a2cef642a4f8a6e5a8341def16fe6d0ba7ef5000000000000000000000000000000000000000000000000000000000000001b4fb73ebad15db118c10de0e526bc6a7c11a4874a77239ad37b78516e02d412667106f4926d5099682c151031724e896c32d1ea5b339beccddec44998100531c6",
                    "decodedMethod": {
                        "callParams": [
                            {
                                "name": "hash",
                                "type": "bytes32",
                                "value": "0x12374fa4f60f81143172b2843f9a2cef642a4f8a6e5a8341def16fe6d0ba7ef5"
                            },
                            {
                                "name": "v",
                                "type": "uint256",
                                "value": "27"
                            },
                            {
                                "name": "r",
                                "type": "bytes32",
                                "value": "0x4fb73ebad15db118c10de0e526bc6a7c11a4874a77239ad37b78516e02d41266"
                            },
                            {
                                "name": "s",
                                "type": "bytes32",
                                "value": "0x7106f4926d5099682c151031724e896c32d1ea5b339beccddec44998100531c6"
                            }
                        ],
                        "constructorArguments": "",
                        "name": "ecrecover",
                        "returnParams": [
                            {
                                "name": "",
                                "type": "address",
                                "value": "0x3b6590ff12ba188e465395e1610d8368613054b0"
                            }
                        ],
                        "signature": "ecrecover(bytes32,uint256,bytes32,bytes32)"
                    },
                    "errorInfo": "",
                    "fromAddress": "0x1bf68a9d1eaee7826b3593c20a0ca93293cb489a",
                    "gasUsed": 3000,
                    "id": 7,
                    "methodDecoded": true,
                    "operation": "STATICCALL",
                    "output": "0x0000000000000000000000003b6590ff12ba188e465395e1610d8368613054b0",
                    "revert": false,
                    "revertMessage": "",
                    "selector": "0x12374fa4",
                    "status": true,
                    "value": "0"
                },
                "nodeType": 0
            },
            "8": {
                "invocation": {
                    "address": "0x0000000000000000000000000000000000000001",
                    "callData": "0xf60f81143172b2843f9a2cef642a4f8a6e5a8341def16fe6d0ba7ef5000000000000000000000000000000000000000000000000000000000000001c9d8f9067489cbc9803a1f5a3da49fde9f7493e528af503a1c6f416d031b1803e7af9830cb284499a1825ef6725fa6e5dedcd00afe3e691209d31f9c1601692ea",
                    "decodedMethod": {
                        "callParams": [
                            {
                                "name": "hash",
                                "type": "bytes32",
                                "value": "0x12374fa4f60f81143172b2843f9a2cef642a4f8a6e5a8341def16fe6d0ba7ef5"
                            },
                            {
                                "name": "v",
                                "type": "uint256",
                                "value": "28"
                            },
                            {
                                "name": "r",
                                "type": "bytes32",
                                "value": "0x9d8f9067489cbc9803a1f5a3da49fde9f7493e528af503a1c6f416d031b1803e"
                            },
                            {
                                "name": "s",
                                "type": "bytes32",
                                "value": "0x7af9830cb284499a1825ef6725fa6e5dedcd00afe3e691209d31f9c1601692ea"
                            }
                        ],
                        "constructorArguments": "",
                        "name": "ecrecover",
                        "returnParams": [
                            {
                                "name": "",
                                "type": "address",
                                "value": "0x595f1a527527fa28a8c5f294c49e51b9799fdaf0"
                            }
                        ],
                        "signature": "ecrecover(bytes32,uint256,bytes32,bytes32)"
                    },
                    "errorInfo": "",
                    "fromAddress": "0x1bf68a9d1eaee7826b3593c20a0ca93293cb489a",
                    "gasUsed": 3000,
                    "id": 8,
                    "methodDecoded": true,
                    "operation": "STATICCALL",
                    "output": "0x000000000000000000000000595f1a527527fa28a8c5f294c49e51b9799fdaf0",
                    "revert": false,
                    "revertMessage": "",
                    "selector": "0x12374fa4",
                    "status": true,
                    "value": "0"
                },
                "nodeType": 0
            },
            "9": {
                "invocation": {
                    "address": "0x0000000000000000000000000000000000000001",
                    "callData": "0xf60f81143172b2843f9a2cef642a4f8a6e5a8341def16fe6d0ba7ef5000000000000000000000000000000000000000000000000000000000000001bb769e50a529d27c6209df3763d8c34b0a6c02c43e75782431d4dd5210673ae5737bfcb8d99a8c2cbfa0704d19fdb060a9e62d621473b0ea828457d9342e56fa3",
                    "decodedMethod": {
                        "callParams": [
                            {
                                "name": "hash",
                                "type": "bytes32",
                                "value": "0x12374fa4f60f81143172b2843f9a2cef642a4f8a6e5a8341def16fe6d0ba7ef5"
                            },
                            {
                                "name": "v",
                                "type": "uint256",
                                "value": "27"
                            },
                            {
                                "name": "r",
                                "type": "bytes32",
                                "value": "0xb769e50a529d27c6209df3763d8c34b0a6c02c43e75782431d4dd5210673ae57"
                            },
                            {
                                "name": "s",
                                "type": "bytes32",
                                "value": "0x37bfcb8d99a8c2cbfa0704d19fdb060a9e62d621473b0ea828457d9342e56fa3"
                            }
                        ],
                        "constructorArguments": "",
                        "name": "ecrecover",
                        "returnParams": [
                            {
                                "name": "",
                                "type": "address",
                                "value": "0x8a3f117ef3b40f1661dedf7f28fc33e7b6fae4f8"
                            }
                        ],
                        "signature": "ecrecover(bytes32,uint256,bytes32,bytes32)"
                    },
                    "errorInfo": "",
                    "fromAddress": "0x1bf68a9d1eaee7826b3593c20a0ca93293cb489a",
                    "gasUsed": 3000,
                    "id": 9,
                    "methodDecoded": true,
                    "operation": "STATICCALL",
                    "output": "0x0000000000000000000000008a3f117ef3b40f1661dedf7f28fc33e7b6fae4f8",
                    "revert": false,
                    "revertMessage": "",
                    "selector": "0x12374fa4",
                    "status": true,
                    "value": "0"
                },
                "nodeType": 0
            }
        },
        "gasFlame": [
            {
                "children": [
                    {
                        "children": [
                            {
                                "children": [],
                                "depth": 0,
                                "name": "Initial Gas",
                                "value": 34436
                            },
                            {
                                "children": [
                                    {
                                        "children": [
                                            {
                                                "children": [],
                                                "depth": 2,
                                                "name": "sha256hash",
                                                "value": 72
                                            },
                                            {
                                                "children": [],
                                                "depth": 2,
                                                "name": "sha256hash",
                                                "value": 72
                                            },
                                            {
                                                "children": [],
                                                "depth": 2,
                                                "name": "sha256hash",
                                                "value": 84
                                            },
                                            {
                                                "children": [],
                                                "depth": 2,
                                                "name": "sha256hash",
                                                "value": 72
                                            },
                                            {
                                                "children": [],
                                                "depth": 2,
                                                "name": "sha256hash",
                                                "value": 156
                                            },
                                            {
                                                "children": [],
                                                "depth": 2,
                                                "name": "ecrecover",
                                                "value": 3000
                                            },
                                            {
                                                "children": [],
                                                "depth": 2,
                                                "name": "ecrecover",
                                                "value": 3000
                                            },
                                            {
                                                "children": [],
                                                "depth": 2,
                                                "name": "ecrecover",
                                                "value": 3000
                                            },
                                            {
                                                "children": [],
                                                "depth": 2,
                                                "name": "ecrecover",
                                                "value": 3000
                                            },
                                            {
                                                "children": [],
                                                "depth": 2,
                                                "name": "ecrecover",
                                                "value": 3000
                                            },
                                            {
                                                "children": [],
                                                "depth": 2,
                                                "name": "ecrecover",
                                                "value": 3000
                                            },
                                            {
                                                "children": [],
                                                "depth": 2,
                                                "name": "ecrecover",
                                                "value": 3000
                                            },
                                            {
                                                "children": [],
                                                "depth": 2,
                                                "name": "fallback",
                                                "value": 0
                                            }
                                        ],
                                        "depth": 1,
                                        "name": "withdraw",
                                        "value": 118300
                                    }
                                ],
                                "depth": 0,
                                "name": "Executed Gas",
                                "value": 124247
                            }
                        ],
                        "depth": -1,
                        "name": "Actual Gas Used",
                        "value": 158683
                    },
                    {
                        "children": [],
                        "depth": -1,
                        "name": "Refunded Gas",
                        "value": 0
                    }
                ],
                "depth": -2,
                "name": "Total Gas",
                "value": 158683
            }
        ],
        "isConfirmed": true,
        "mainTrace": [
            {
                "children": [
                    {
                        "children": [
                            {
                                "children": [
                                    {
                                        "children": [],
                                        "depth": 2,
                                        "id": 2,
                                        "order": 2
                                    },
                                    {
                                        "children": [],
                                        "depth": 2,
                                        "id": 3,
                                        "order": 3
                                    },
                                    {
                                        "children": [],
                                        "depth": 2,
                                        "id": 4,
                                        "order": 4
                                    },
                                    {
                                        "children": [],
                                        "depth": 2,
                                        "id": 5,
                                        "order": 5
                                    },
                                    {
                                        "children": [],
                                        "depth": 2,
                                        "id": 6,
                                        "order": 6
                                    },
                                    {
                                        "children": [],
                                        "depth": 2,
                                        "id": 7,
                                        "order": 7
                                    },
                                    {
                                        "children": [],
                                        "depth": 2,
                                        "id": 8,
                                        "order": 8
                                    },
                                    {
                                        "children": [],
                                        "depth": 2,
                                        "id": 9,
                                        "order": 9
                                    },
                                    {
                                        "children": [],
                                        "depth": 2,
                                        "id": 10,
                                        "order": 10
                                    },
                                    {
                                        "children": [],
                                        "depth": 2,
                                        "id": 11,
                                        "order": 11
                                    },
                                    {
                                        "children": [],
                                        "depth": 2,
                                        "id": 12,
                                        "order": 12
                                    },
                                    {
                                        "children": [],
                                        "depth": 2,
                                        "id": 13,
                                        "order": 13
                                    },
                                    {
                                        "children": [],
                                        "depth": 2,
                                        "id": 14,
                                        "order": 14
                                    },
                                    {
                                        "children": [],
                                        "depth": 2,
                                        "id": 15,
                                        "order": 15
                                    }
                                ],
                                "depth": 1,
                                "id": 1,
                                "order": 1
                            }
                        ],
                        "depth": 0,
                        "id": 0,
                        "order": 0
                    }
                ],
                "depth": -1,
                "id": -1,
                "order": -1
            }
        ],
        "mainTraceNodeCount": 16,
        "parentIdMap": {
            "0": -1,
            "1": 0,
            "10": 1,
            "11": 1,
            "12": 1,
            "13": 1,
            "14": 1,
            "15": 1,
            "2": 1,
            "3": 1,
            "4": 1,
            "5": 1,
            "6": 1,
            "7": 1,
            "8": 1,
            "9": 1
        },
        "tidyTrace": [
            {
                "children": [
                    {
                        "children": [
                            {
                                "children": [
                                    {
                                        "children": [],
                                        "depth": 2,
                                        "id": 14,
                                        "order": 14
                                    },
                                    {
                                        "children": [],
                                        "depth": 2,
                                        "id": 15,
                                        "order": 15
                                    }
                                ],
                                "depth": 1,
                                "id": 1,
                                "order": 1
                            }
                        ],
                        "depth": 0,
                        "id": 0,
                        "order": 0
                    }
                ],
                "depth": -1,
                "id": -1,
                "order": -1
            }
        ],
        "tidyTraceNodeCount": 4
    },
    "state_change": {
        "stateChanges": [
            {
                "address": "0x1bf68a9d1eaee7826b3593c20a0ca93293cb489a",
                "erc": "",
                "slots": [
                    {
                        "current": "0x0000000000000000000000000000000000000000000000000000000000000001",
                        "key": "0x855ab98bba45ea84ba2f7bd3ccbc1c7d759910f53fbe5e4e933f14dfd45db9e4",
                        "prev": "0x0000000000000000000000000000000000000000000000000000000000000000"
                    }
                ],
                "storageVariables": [
                    {
                        "name": "isUsedWithdrawal",
                        "type": "mapping(bytes32 => bool)",
                        "value": {
                            "pairs": [
                                {
                                    "key": "0x12374fa4f60f81143172b2843f9a2cef642a4f8a6e5a8341def16fe6d0ba7ef5",
                                    "value": {
                                        "current": "true",
                                        "prev": "false",
                                        "typeTag": 1
                                    }
                                }
                            ],
                            "typeTag": 4
                        }
                    }
                ]
            }
        ]
    }
}