{
    "balance_change": {
        "balanceChanges": [
            {
                "account": "0x1bf68a9d1eaee7826b3593c20a0ca93293cb489a",
                "assets": [
                    {
                        "address": "0xa0b86991c6218b36c1d19d4a2e9eb0ce3606eb48",
                        "amount": "10,000,000",
                        "iconUrl": "https://assets.blocksec.com/icon/0347a86cc07dbd03fdc5db01a4e5ac7e1217f90e0b6e4bb0f75cbcca09160989.png",
                        "isERC1155": false,
                        "isERC721": false,
                        "sign": false,
                        "value": "9989000.000000000101"
                    }
                ]
            },
            {
                "account": "0xa70f8917a957757f5505a5535df1591c54f65b9d",
                "assets": [
                    {
                        "address": "0xa0b86991c6218b36c1d19d4a2e9eb0ce3606eb48",
                        "amount": "10,000,000",
                        "iconUrl": "https://assets.blocksec.com/icon/0347a86cc07dbd03fdc5db01a4e5ac7e1217f90e0b6e4bb0f75cbcca09160989.png",
                        "isERC1155": false,
                        "isERC721": false,
                        "sign": true,
                        "value": "9989000.000000000101"
                    }
                ]
            }
        ]
    },
    "profile": {
        "basic_info": {
            "baseFee": "13.128178477",
            "blockNumber": 18908121,
            "callData": "0x2ac5ab1b000000000000000000000000b5680a55d627c52de992e3ea52a86f19da475399000000000000000000000000000000000000000000000000000000000000016000000000000000000000000000000000000000000000000000000000000001a0000000000000000000000000a70f8917a957757f5505a5535df1591c54f65b9d000000000000000000000000a0b86991c6218b36c1d19d4a2e9eb0ce3606eb4800000000000000000000000000000000000000000000000000000000000001e0000000000000000000000000000000000000000000000000000000000000024000000000000000000000000000000000000000000000000000000000000002c000000000000000000000000000000000000000000000000000000000000002e0000000000000000000000000000000000000000000000000000000000000046000000000000000000000000000000000000000000000000000000000000005e000000000000000000000000000000000000000000000000000000000000000054f5242495400000000000000000000000000000000000000000000000000000000000000000000000000000000000000000000000000000000000000000000149263e7873613ddc598a701709875634819176aff000000000000000000000000000000000000000000000000000000000000000000000000000000000000000250f408f4b0fb17bf4f5143de4bd95802410d00422f008e9deef06fb101a0f0606886e943e72f8920d259934b8c3c194c94e859e85ad619ab348733a024e4938c0000000000000000000000000000000000000000000000000000000000000003000000000000000000000000000000000000000000000000000009184e72a0000000000000000000000000000000000000000000000000000000000000000006000000000000000000000000000000000000000000000000000000000000221b0000000000000000000000000000000000000000000000000000000000000000000000000000000000000000000000000000000000000000000000000000000b000000000000000000000000000000000000000000000000000000000000001b000000000000000000000000000000000000000000000000000000000000001b000000000000000000000000000000000000000000000000000000000000001b000000000000000000000000000000000000000000000000000000000000001b000000000000000000000000000000000000000000000000000000000000001b000000000000000000000000000000000000000000000000000000000000001b000000000000000000000000000000000000000000000000000000000000001b000000000000000000000000000000000000000000000000000000000000001c000000000000000000000000000000000000000000000000000000000000001c000000000000000000000000000000000000000000000000000000000000001c000000000000000000000000000000000000000000000000000000000000001c000000000000000000000000000000000000000000000000000000000000000bbd3d7b5909b382517fc61f927eefe06dda7ebde9ab8213defe2cbe241ce0cc374d4ea13457cce097b557661de2d06deba34d06283a7b8733cb10e318915507cb5f2a7cebc84869b701e910b7459726c0758a876a524f115e47eaf7751456c32517c7e030f3f8b2b59bb25f942e204f696cbbbea098d1841c94c1c0c6c5d650fc2352b5352d71dcfc2a144e45c81a0775e9840eaa5e0dffcd229a7b8e56e4eaed6911ab6433e2d18f7aeae42cf42163034e037c1bde877b05d4d4ea6f7e4b36d40e89a4c169438e1b10c73f0c4bc8a9854e683b69f1e2dd6db26d0ae5224b7b0ae4e76a5ff1a0fc36c6ea68b51bbfdeca21a4925cb1d228e6d70a218673e384a7463411e097d5b34a4ea73c81a1245ea9f3ca4121501a11e7c1ce8b06f51cba1d8665974ccfc0ae8508a48614e90327ac2e774cd5a5d305b4372c74bac659dce4f8cbc3e52cbd553b23d333a48f7d6dca84d1d20639f2d75a31e2f77c0d54104f000000000000000000000000000000000000000000000000000000000000000b7ab97c30070d35d41ea41d7103e8a6f4c28478b5af1fa655640d81e96fbf70f96c1ec3a5fad0143482a14c2a8221e20b0a976cc1461e9254ceb08ef41a483c4d6b6a1146b72433496eacdf23b938c92b4cf6b8b3a30913fb54e7f94c3790f55f44a8fdf4bd8b79b7e0730c6060b029abcab5f63a581ae7c05288666a235242924e8d13e4e1f5be1af2d0da3d47e2e106ba4db0542c4ef680272af76ec2fb8be502afbad69244c3249f405198b213f63b86a52fd3585cc3592eb597a09467a7cc53c90153258de44169367731dc140f254ccdcf1df06d35577b8be5178e3abbc172cc730fdbafc4db58619152af6bb83187974c6894f265b9267ecc2dbdb5c82e459802939b3e9c057c65f0c4c5472226d0d2c1c3d11141bd4864e58ca0c37c05046f911d9f570c4a246f88e7fc72973ac7ddf711ecfa86469032be3a9ef958bb0506b65129f236bb632f05c321b859c9043ba00b516132c096b5778fe99d8d76",
            "debugEnable": true,
            "errorInfo": "",
            "eventCount": 2,
            "feeRecipient": "0x4838b106fce9647bdf1e7877bf73ce8b0bad5f97",
            "formatValue": "0",
            "gasLimit": 223267,
            "gasPrice": "300",
            "gasUsed": 220529,
            "intTxnCount": 21,
            "internalRevert": false,
            "internalRevertMessage": "",
            "isContractCreation": false,
            "isFlashloan": false,
            "maxFee": "",
            "nonce": 68,
            "overwritedBlockNumber": -1,
            "priorityFee": "",
            "receiver": "0x1bf68a9d1eaee7826b3593c20a0ca93293cb489a",
            "revertMessage": "",
            "sender": "0x9263e7873613ddc598a701709875634819176aff",
            "simulationEnable": true,
            "sourceTxnHash": "0x64a6f486c20671e1389b3c7948d46733325c407245a86bf510cb69ef401a3f0e",
            "status": true,
            "timestamp": "2023-12-31T21:25:11Z",
            "transactionFee": "0.0661587",
            "txnHash": "0x64a6f486c20671e1389b3c7948d46733325c407245a86bf510cb69ef401a3f0e",
            "txnIndex": 4,
            "type": 0,
            "value": "0"
        },
        "fund_flow": [
            {
                "amount": "10,000,000",
                "from": "0x1bf68a9d1eaee7826b3593c20a0ca93293cb489a",
                "id": 1,
                "isERC1155": false,
                "isERC721": false,
                "isReverted": false,
                "order": 1,
                "to": "0xa70f8917a957757f5505a5535df1591c54f65b9d",
                "token": "0xa0b86991c6218b36c1d19d4a2e9eb0ce3606eb48"
            }
        ],
        "token_infos": [
            {
                "address": "0xa0b86991c6218b36c1d19d4a2e9eb0ce3606eb48",
                "decimals": 6
            },
            {
                "address": "0xc02aaa39b223fe8d0a0e5c4f27ead9083c756cc2",
                "decimals": 18
            },
            {
                "address": "0xeeeeeeeeeeeeeeeeeeeeeeeeeeeeeeeeeeeeeeee",
                "decimals": 18
            }
        ]
    },
    "address_label": {
        "labels": [
            {
                "address": "0x0000000000000000000000000000000000000001",
                "label": "Precompiled"
            },
            {
                "address": "0xeeeeeeeeeeeeeeeeeeeeeeeeeeeeeeeeeeeeeeee",
                "label": "Ether"
            },
            {
                "address": "0xa70f8917a957757f5505a5535df1591c54f65b9d",
                "label": "Orbit Bridge Exploiter 1"
            },
            {
                "address": "0xa2327a938febf5fec13bacfb16ae10ecbc4cbdcf",
                "label": "FiatTokenV2_1"
            },
            {
                "address": "0xc3430bc8c2c05fc6b42114bf7f82a3e2f3ee9454",
                "label": "EthVaultImpl"
            },
            {
                "address": "0x0000000000000000000000000000000000000002",
                "label": "Precompiled"
            },
            {
                "address": "0xa0b86991c6218b36c1d19d4a2e9eb0ce3606eb48",
                "label": "Circle: USDC Token"
            },
            {
                "address": "0x1bf68a9d1eaee7826b3593c20a0ca93293cb489a",
                "label": "Orbit Chain: Bridge"
            },
            {
                "address": "0x9263e7873613ddc598a701709875634819176aff",
                "label": "Fake_Phishing270353"
            },
            {
                "address": "0x0000000000000000000000000000000000000003",
                "label": "Precompiled"
            },
            {
                "address": "0x0000000000000000000000000000000000000004",
                "label": "Precompiled"
            }
        ]
    },
    "trace": {
        "accountLabels": null,
        "dataMap": {
            "-1": {
                "invocation": {
                    "address": "0x9263e7873613ddc598a701709875634819176aff",
                    "callData": "",
                    "decodedMethod": null,
                    "errorInfo": "",
                    "fromAddress": "",
                    "gasUsed": 0,
                    "id": -1,
                    "methodDecoded": false,
                    "operation": "",
                    "output": "",
                    "revert": false,
                    "revertMessage": "",
                    "selector": "",
                    "status": false,
                    "value": ""
                },
                "nodeType": 0
            },
            "0": {
                "invocation": {
                    "address": "0x1bf68a9d1eaee7826b3593c20a0ca93293cb489a",
                    "callData": "0x000000000000000000000000b5680a55d627c52de992e3ea52a86f19da475399000000000000000000000000000000000000000000000000000000000000016000000000000000000000000000000000000000000000000000000000000001a0000000000000000000000000a70f8917a957757f5505a5535df1591c54f65b9d000000000000000000000000a0b86991c6218b36c1d19d4a2e9eb0ce3606eb4800000000000000000000000000000000000000000000000000000000000001e0000000000000000000000000000000000000000000000000000000000000024000000000000000000000000000000000000000000000000000000000000002c000000000000000000000000000000000000000000000000000000000000002e0000000000000000000000000000000000000000000000000000000000000046000000000000000000000000000000000000000000000000000000000000005e000000000000000000000000000000000000000000000000000000000000000054f5242495400000000000000000000000000000000000000000000000000000000000000000000000000000000000000000000000000000000000000000000149263e7873613ddc598a701709875634819176aff000000000000000000000000000000000000000000000000000000000000000000000000000000000000000250f408f4b0fb17bf4f5143de4bd95802410d00422f008e9deef06fb101a0f0606886e943e72f8920d259934b8c3c194c94e859e85ad619ab348733a024e4938c0000000000000000000000000000000000000000000000000000000000000003000000000000000000000000000000000000000000000000000009184e72a0000000000000000000000000000000000000000000000000000000000000000006000000000000000000000000000000000000000000000000000000000000221b0000000000000000000000000000000000000000000000000000000000000000000000000000000000000000000000000000000000000000000000000000000b000000000000000000000000000000000000000000000000000000000000001b000000000000000000000000000000000000000000000000000000000000001b000000000000000000000000000000000000000000000000000000000000001b000000000000000000000000000000000000000000000000000000000000001b000000000000000000000000000000000000000000000000000000000000001b000000000000000000000000000000000000000000000000000000000000001b000000000000000000000000000000000000000000000000000000000000001b000000000000000000000000000000000000000000000000000000000000001c000000000000000000000000000000000000000000000000000000000000001c000000000000000000000000000000000000000000000000000000000000001c000000000000000000000000000000000000000000000000000000000000001c000000000000000000000000000000000000000000000000000000000000000bbd3d7b5909b382517fc61f927eefe06dda7ebde9ab8213defe2cbe241ce0cc374d4ea13457cce097b557661de2d06deba34d06283a7b8733cb10e318915507cb5f2a7cebc84869b701e910b7459726c0758a876a524f115e47eaf7751456c32517c7e030f3f8b2b59bb25f942e204f696cbbbea098d1841c94c1c0c6c5d650fc2352b5352d71dcfc2a144e45c81a0775e9840eaa5e0dffcd229a7b8e56e4eaed6911ab6433e2d18f7aeae42cf42163034e037c1bde877b05d4d4ea6f7e4b36d40e89a4c169438e1b10c73f0c4bc8a9854e683b69f1e2dd6db26d0ae5224b7b0ae4e76a5ff1a0fc36c6ea68b51bbfdeca21a4925cb1d228e6d70a218673e384a7463411e097d5b34a4ea73c81a1245ea9f3ca4121501a11e7c1ce8b06f51cba1d8665974ccfc0ae8508a48614e90327ac2e774cd5a5d305b4372c74bac659dce4f8cbc3e52cbd553b23d333a48f7d6dca84d1d20639f2d75a31e2f77c0d54104f000000000000000000000000000000000000000000000000000000000000000b7ab97c30070d35d41ea41d7103e8a6f4c28478b5af1fa655640d81e96fbf70f96c1ec3a5fad0143482a14c2a8221e20b0a976cc1461e9254ceb08ef41a483c4d6b6a1146b72433496eacdf23b938c92b4cf6b8b3a30913fb54e7f94c3790f55f44a8fdf4bd8b79b7e0730c6060b029abcab5f63a581ae7c05288666a235242924e8d13e4e1f5be1af2d0da3d47e2e106ba4db0542c4ef680272af76ec2fb8be502afbad69244c3249f405198b213f63b86a52fd3585cc3592eb597a09467a7cc53c90153258de44169367731dc140f254ccdcf1df06d35577b8be5178e3abbc172cc730fdbafc4db58619152af6bb83187974c6894f265b9267ecc2dbdb5c82e459802939b3e9c057c65f0c4c5472226d0d2c1c3d11141bd4864e58ca0c37c05046f911d9f570c4a246f88e7fc72973ac7ddf711ecfa86469032be3a9ef958bb0506b65129f236bb632f05c321b859c9043ba00b516132c096b5778fe99d8d76",
                    "decodedMethod": {
                        "callParams": [
                            {
                                "name": "hubContract",
                                "type": "address",
                                "value": "0xb5680a55d627c52de992e3ea52a86f19da475399"
                            },
                            {
                                "name": "fromChain",
                                "type": "string",
                                "value": "ORBIT"
                            },
                            {
                                "name": "fromAddr",
                                "type": "bytes",
                                "value": "0x9263e7873613ddc598a701709875634819176aff"
                            },
                            {
                                "name": "toAddr",
                                "type": "address",
                                "value": "0xa70f8917a957757f5505a5535df1591c54f65b9d"
                            },
                            {
                                "name": "token",
                                "type": "address",
                                "value": "0xa0b86991c6218b36c1d19d4a2e9eb0ce3606eb48"
                            },
                            {
                                "name": "bytes32s",
                                "type": "bytes32[]",
                                "value": [
                                    "0x50f408f4b0fb17bf4f5143de4bd95802410d00422f008e9deef06fb101a0f060",
                                    "0x6886e943e72f8920d259934b8c3c194c94e859e85ad619ab348733a024e4938c"
                                ]
                            },
                            {
                                "name": "uints",
                                "type": "uint256[]",
                                "value": [
                                    "10,000,000,000,000",
                                    "6",
                                    "8,731"
                                ]
                            },
                            {
                                "name": "data",
                                "type": "bytes",
                                "value": "0x"
                            },
                            {
                                "name": "v",
                                "type": "uint8[]",
                                "value": [
                                    "27",
                                    "27",
                                    "27",
                                    "27",
                                    "27",
                                    "27",
                                    "27",
                                    "28",
                                    "28",
                                    "28",
                                    "28"
                                ]
                            },
                            {
                                "name": "r",
                                "type": "bytes32[]",
                                "value": [
                                    "0xbd3d7b5909b382517fc61f927eefe06dda7ebde9ab8213defe2cbe241ce0cc37",
                                    "0x4d4ea13457cce097b557661de2d06deba34d06283a7b8733cb10e318915507cb",
                                    "0x5f2a7cebc84869b701e910b7459726c0758a876a524f115e47eaf7751456c325",
                                    "0x17c7e030f3f8b2b59bb25f942e204f696cbbbea098d1841c94c1c0c6c5d650fc",
                                    "0x2352b5352d71dcfc2a144e45c81a0775e9840eaa5e0dffcd229a7b8e56e4eaed",
                                    "0x6911ab6433e2d18f7aeae42cf42163034e037c1bde877b05d4d4ea6f7e4b36d4",
                                    "0x0e89a4c169438e1b10c73f0c4bc8a9854e683b69f1e2dd6db26d0ae5224b7b0a",
                                    "0xe4e76a5ff1a0fc36c6ea68b51bbfdeca21a4925cb1d228e6d70a218673e384a7",
                                    "0x463411e097d5b34a4ea73c81a1245ea9f3ca4121501a11e7c1ce8b06f51cba1d",
                                    "0x8665974ccfc0ae8508a48614e90327ac2e774cd5a5d305b4372c74bac659dce4",
                                    "0xf8cbc3e52cbd553b23d333a48f7d6dca84d1d20639f2d75a31e2f77c0d54104f"
                                ]
                            },
                            {
                                "name": "s",
                                "type": "bytes32[]",
                                "value": [
                                    "0x7ab97c30070d35d41ea41d7103e8a6f4c28478b5af1fa655640d81e96fbf70f9",
                                    "0x6c1ec3a5fad0143482a14c2a8221e20b0a976cc1461e9254ceb08ef41a483c4d",
                                    "0x6b6a1146b72433496eacdf23b938c92b4cf6b8b3a30913fb54e7f94c3790f55f",
                                    "0x44a8fdf4bd8b79b7e0730c6060b029abcab5f63a581ae7c05288666a23524292",
                                    "0x4e8d13e4e1f5be1af2d0da3d47e2e106ba4db0542c4ef680272af76ec2fb8be5",
                                    "0x02afbad69244c3249f405198b213f63b86a52fd3585cc3592eb597a09467a7cc",
                                    "0x53c90153258de44169367731dc140f254ccdcf1df06d35577b8be5178e3abbc1",
                                    "0x72cc730fdbafc4db58619152af6bb83187974c6894f265b9267ecc2dbdb5c82e",
                                    "0x459802939b3e9c057c65f0c4c5472226d0d2c1c3d11141bd4864e58ca0c37c05",
                                    "0x046f911d9f570c4a246f88e7fc72973ac7ddf711ecfa86469032be3a9ef958bb",
                                    "0x0506b65129f236bb632f05c321b859c9043ba00b516132c096b5778fe99d8d76"
                                ]
                            }
                        ],
                        "constructorArguments": "",
                        "name": "withdraw",
                        "returnParams": [],
                        "signature": "withdraw(address,string,bytes,address,address,bytes32[],uint256[],bytes,uint8[],bytes32[],bytes32[])"
                    },
                    "errorInfo": "",
                    "fromAddress": "0x9263e7873613ddc598a701709875634819176aff",
                    "gasUsed": 220529,
                    "id": 0,
                    "methodDecoded": true,
                    "operation": "CALL",
                    "output": "",
                    "revert": false,
                    "revertMessage": "",
                    "selector": "0x2ac5ab1b",
                    "status": true,
                    "value": "0"
                },
                "nodeType": 0
            },
            "1": {
                "invocation": {
                    "address": "0xc3430bc8c2c05fc6b42114bf7f82a3e2f3ee9454",
                    "callData": "0x000000000000000000000000b5680a55d627c52de992e3ea52a86f19da475399000000000000000000000000000000000000000000000000000000000000016000000000000000000000000000000000000000000000000000000000000001a0000000000000000000000000a70f8917a957757f5505a5535df1591c54f65b9d000000000000000000000000a0b86991c6218b36c1d19d4a2e9eb0ce3606eb4800000000000000000000000000000000000000000000000000000000000001e0000000000000000000000000000000000000000000000000000000000000024000000000000000000000000000000000000000000000000000000000000002c000000000000000000000000000000000000000000000000000000000000002e0000000000000000000000000000000000000000000000000000000000000046000000000000000000000000000000000000000000000000000000000000005e000000000000000000000000000000000000000000000000000000000000000054f5242495400000000000000000000000000000000000000000000000000000000000000000000000000000000000000000000000000000000000000000000149263e7873613ddc598a701709875634819176aff000000000000000000000000000000000000000000000000000000000000000000000000000000000000000250f408f4b0fb17bf4f5143de4bd95802410d00422f008e9deef06fb101a0f0606886e943e72f8920d259934b8c3c194c94e859e85ad619ab348733a024e4938c0000000000000000000000000000000000000000000000000000000000000003000000000000000000000000000000000000000000000000000009184e72a0000000000000000000000000000000000000000000000000000000000000000006000000000000000000000000000000000000000000000000000000000000221b0000000000000000000000000000000000000000000000000000000000000000000000000000000000000000000000000000000000000000000000000000000b000000000000000000000000000000000000000000000000000000000000001b000000000000000000000000000000000000000000000000000000000000001b000000000000000000000000000000000000000000000000000000000000001b000000000000000000000000000000000000000000000000000000000000001b000000000000000000000000000000000000000000000000000000000000001b000000000000000000000000000000000000000000000000000000000000001b000000000000000000000000000000000000000000000000000000000000001b000000000000000000000000000000000000000000000000000000000000001c000000000000000000000000000000000000000000000000000000000000001c000000000000000000000000000000000000000000000000000000000000001c000000000000000000000000000000000000000000000000000000000000001c000000000000000000000000000000000000000000000000000000000000000bbd3d7b5909b382517fc61f927eefe06dda7ebde9ab8213defe2cbe241ce0cc374d4ea13457cce097b557661de2d06deba34d06283a7b8733cb10e318915507cb5f2a7cebc84869b701e910b7459726c0758a876a524f115e47eaf7751456c32517c7e030f3f8b2b59bb25f942e204f696cbbbea098d1841c94c1c0c6c5d650fc2352b5352d71dcfc2a144e45c81a0775e9840eaa5e0dffcd229a7b8e56e4eaed6911ab6433e2d18f7aeae42cf42163034e037c1bde877b05d4d4ea6f7e4b36d40e89a4c169438e1b10c73f0c4bc8a9854e683b69f1e2dd6db26d0ae5224b7b0ae4e76a5ff1a0fc36c6ea68b51bbfdeca21a4925cb1d228e6d70a218673e384a7463411e097d5b34a4ea73c81a1245ea9f3ca4121501a11e7c1ce8b06f51cba1d8665974ccfc0ae8508a48614e90327ac2e774cd5a5d305b4372c74bac659dce4f8cbc3e52cbd553b23d333a48f7d6dca84d1d20639f2d75a31e2f77c0d54104f000000000000000000000000000000000000000000000000000000000000000b7ab97c30070d35d41ea41d7103e8a6f4c28478b5af1fa655640d81e96fbf70f96c1ec3a5fad0143482a14c2a8221e20b0a976cc1461e9254ceb08ef41a483c4d6b6a1146b72433496eacdf23b938c92b4cf6b8b3a30913fb54e7f94c3790f55f44a8fdf4bd8b79b7e0730c6060b029abcab5f63a581ae7c05288666a235242924e8d13e4e1f5be1af2d0da3d47e2e106ba4db0542c4ef680272af76ec2fb8be502afbad69244c3249f405198b213f63b86a52fd3585cc3592eb597a09467a7cc53c90153258de44169367731dc140f254ccdcf1df06d35577b8be5178e3abbc172cc730fdbafc4db58619152af6bb83187974c6894f265b9267ecc2dbdb5c82e459802939b3e9c057c65f0c4c5472226d0d2c1c3d11141bd4864e58ca0c37c05046f911d9f570c4a246f88e7fc72973ac7ddf711ecfa86469032be3a9ef958bb0506b65129f236bb632f05c321b859c9043ba00b516132c096b5778fe99d8d76",
                    "decodedMethod": {
                        "callParams": [
                            {
                                "name": "hubContract",
                                "type": "address",
                                "value": "0xb5680a55d627c52de992e3ea52a86f19da475399"
                            },
                            {
                                "name": "fromChain",
                                "type": "string",
                                "value": "ORBIT"
                            },
                            {
                                "name": "fromAddr",
                                "type": "bytes",
                                "value": "0x9263e7873613ddc598a701709875634819176aff"
                            },
                            {
                                "name": "toAddr",
                                "type": "address",
                                "value": "0xa70f8917a957757f5505a5535df1591c54f65b9d"
                            },
                            {
                                "name": "token",
                                "type": "address",
                                "value": "0xa0b86991c6218b36c1d19d4a2e9eb0ce3606eb48"
                            },
                            {
                                "name": "bytes32s",
                                "type": "bytes32[]",
                                "value": [
                                    "0x50f408f4b0fb17bf4f5143de4bd95802410d00422f008e9deef06fb101a0f060",
                                    "0x6886e943e72f8920d259934b8c3c194c94e859e85ad619ab348733a024e4938c"
                                ]
                            },
                            {
                                "name": "uints",
                                "type": "uint256[]",
                                "value": [
                                    "10,000,000,000,000",
                                    "6",
                                    "8,731"
                                ]
                            },
                            {
                                "name": "data",
                                "type": "bytes",
                                "value": "0x"
                            },
                            {
                                "name": "v",
                                "type": "uint8[]",
                                "value": [
                                    "27",
                                    "27",
                                    "27",
                                    "27",
                                    "27",
                                    "27",
                                    "27",
                                    "28",
                                    "28",
                                    "28",
                                    "28"
                                ]
                            },
                            {
                                "name": "r",
                                "type": "bytes32[]",
                                "value": [
                                    "0xbd3d7b5909b382517fc61f927eefe06dda7ebde9ab8213defe2cbe241ce0cc37",
                                    "0x4d4ea13457cce097b557661de2d06deba34d06283a7b8733cb10e318915507cb",
                                    "0x5f2a7cebc84869b701e910b7459726c0758a876a524f115e47eaf7751456c325",
                                    "0x17c7e030f3f8b2b59bb25f942e204f696cbbbea098d1841c94c1c0c6c5d650fc",
                                    "0x2352b5352d71dcfc2a144e45c81a0775e9840eaa5e0dffcd229a7b8e56e4eaed",
                                    "0x6911ab6433e2d18f7aeae42cf42163034e037c1bde877b05d4d4ea6f7e4b36d4",
                                    "0x0e89a4c169438e1b10c73f0c4bc8a9854e683b69f1e2dd6db26d0ae5224b7b0a",
                                    "0xe4e76a5ff1a0fc36c6ea68b51bbfdeca21a4925cb1d228e6d70a218673e384a7",
                                    "0x463411e097d5b34a4ea73c81a1245ea9f3ca4121501a11e7c1ce8b06f51cba1d",
                                    "0x8665974ccfc0ae8508a48614e90327ac2e774cd5a5d305b4372c74bac659dce4",
                                    "0xf8cbc3e52cbd553b23d333a48f7d6dca84d1d20639f2d75a31e2f77c0d54104f"
                                ]
                            },
                            {
                                "name": "s",
                                "type": "bytes32[]",
                                "value": [
                                    "0x7ab97c30070d35d41ea41d7103e8a6f4c28478b5af1fa655640d81e96fbf70f9",
                                    "0x6c1ec3a5fad0143482a14c2a8221e20b0a976cc1461e9254ceb08ef41a483c4d",
                                    "0x6b6a1146b72433496eacdf23b938c92b4cf6b8b3a30913fb54e7f94c3790f55f",
                                    "0x44a8fdf4bd8b79b7e0730c6060b029abcab5f63a581ae7c05288666a23524292",
                                    "0x4e8d13e4e1f5be1af2d0da3d47e2e106ba4db0542c4ef680272af76ec2fb8be5",
                                    "0x02afbad69244c3249f405198b213f63b86a52fd3585cc3592eb597a09467a7cc",
                                    "0x53c90153258de44169367731dc140f254ccdcf1df06d35577b8be5178e3abbc1",
                                    "0x72cc730fdbafc4db58619152af6bb83187974c6894f265b9267ecc2dbdb5c82e",
                                    "0x459802939b3e9c057c65f0c4c5472226d0d2c1c3d11141bd4864e58ca0c37c05",
                                    "0x046f911d9f570c4a246f88e7fc72973ac7ddf711ecfa86469032be3a9ef958bb",
                                    "0x0506b65129f236bb632f05c321b859c9043ba00b516132c096b5778fe99d8d76"
                                ]
                            }
                        ],
                        "constructorArguments": "",
                        "name": "withdraw",
                        "returnParams": [],
                        "signature": "withdraw(address,string,bytes,address,address,bytes32[],uint256[],bytes,uint8[],bytes32[],bytes32[])"
                    },
                    "errorInfo": "",
                    "fromAddress": "0x1bf68a9d1eaee7826b3593c20a0ca93293cb489a",
                    "gasUsed": 175175,
                    "id": 1,
                    "methodDecoded": true,
                    "operation": "DELEGATECALL",
                    "output": "",
                    "revert": false,
                    "revertMessage": "",
                    "selector": "0x2ac5ab1b",
                    "status": true,
                    "value": "0"
                },
                "nodeType": 0
            },
            "10": {
                "invocation": {
                    "address": "0x0000000000000000000000000000000000000001",
                    "callData": "0xc882ba2849eb9f779ca03b04ae487f11a0e9401bc8b13506ee3bfc39000000000000000000000000000000000000000000000000000000000000001b17c7e030f3f8b2b59bb25f942e204f696cbbbea098d1841c94c1c0c6c5d650fc44a8fdf4bd8b79b7e0730c6060b029abcab5f63a581ae7c05288666a23524292",
                    "decodedMethod": {
                        "callParams": [
                            {
                                "name": "hash",
                                "type": "bytes32",
                                "value": "0x58b26896c882ba2849eb9f779ca03b04ae487f11a0e9401bc8b13506ee3bfc39"
                            },
                            {
                                "name": "v",
                                "type": "uint256",
                                "value": "27"
                            },
                            {
                                "name": "r",
                                "type": "bytes32",
                                "value": "0x17c7e030f3f8b2b59bb25f942e204f696cbbbea098d1841c94c1c0c6c5d650fc"
                            },
                            {
                                "name": "s",
                                "type": "bytes32",
                                "value": "0x44a8fdf4bd8b79b7e0730c6060b029abcab5f63a581ae7c05288666a23524292"
                            }
                        ],
                        "constructorArguments": "",
                        "name": "ecrecover",
                        "returnParams": [
                            {
                                "name": "",
                                "type": "address",
                                "value": "0x67c3c784c49d9ab8757adb71491df1a1b38fbfa8"
                            }
                        ],
                        "signature": "ecrecover(bytes32,uint256,bytes32,bytes32)"
                    },
                    "errorInfo": "",
                    "fromAddress": "0x1bf68a9d1eaee7826b3593c20a0ca93293cb489a",
                    "gasUsed": 3000,
                    "id": 10,
                    "methodDecoded": true,
                    "operation": "STATICCALL",
                    "output": "0x00000000000000000000000067c3c784c49d9ab8757adb71491df1a1b38fbfa8",
                    "revert": false,
                    "revertMessage": "",
                    "selector": "0x58b26896",
                    "status": true,
                    "value": "0"
                },
                "nodeType": 0
            },
            "11": {
                "invocation": {
                    "address": "0x0000000000000000000000000000000000000001",
                    "callData": "0xc882ba2849eb9f779ca03b04ae487f11a0e9401bc8b13506ee3bfc39000000000000000000000000000000000000000000000000000000000000001b2352b5352d71dcfc2a144e45c81a0775e9840eaa5e0dffcd229a7b8e56e4eaed4e8d13e4e1f5be1af2d0da3d47e2e106ba4db0542c4ef680272af76ec2fb8be5",
                    "decodedMethod": {
                        "callParams": [
                            {
                                "name": "hash",
                                "type": "bytes32",
                                "value": "0x58b26896c882ba2849eb9f779ca03b04ae487f11a0e9401bc8b13506ee3bfc39"
                            },
                            {
                                "name": "v",
                                "type": "uint256",
                                "value": "27"
                            },
                            {
                                "name": "r",
                                "type": "bytes32",
                                "value": "0x2352b5352d71dcfc2a144e45c81a0775e9840eaa5e0dffcd229a7b8e56e4eaed"
                            },
                            {
                                "name": "s",
                                "type": "bytes32",
                                "value": "0x4e8d13e4e1f5be1af2d0da3d47e2e106ba4db0542c4ef680272af76ec2fb8be5"
                            }
                        ],
                        "constructorArguments": "",
                        "name": "ecrecover",
                        "returnParams": [
                            {
                                "name": "",
                                "type": "address",
                                "value": "0x34ebf4f74a881eb63f666e63ce1ff2f287ca5a8b"
                            }
                        ],
                        "signature": "ecrecover(bytes32,uint256,bytes32,bytes32)"
                    },
                    "errorInfo": "",
                    "fromAddress": "0x1bf68a9d1eaee7826b3593c20a0ca93293cb489a",
                    "gasUsed": 3000,
                    "id": 11,
                    "methodDecoded": true,
                    "operation": "STATICCALL",
                    "output": "0x00000000000000000000000034ebf4f74a881eb63f666e63ce1ff2f287ca5a8b",
                    "revert": false,
                    "revertMessage": "",
                    "selector": "0x58b26896",
                    "status": true,
                    "value": "0"
                },
                "nodeType": 0
            },
            "12": {
                "invocation": {
                    "address": "0x0000000000000000000000000000000000000001",
                    "callData": "0xc882ba2849eb9f779ca03b04ae487f11a0e9401bc8b13506ee3bfc39000000000000000000000000000000000000000000000000000000000000001b6911ab6433e2d18f7aeae42cf42163034e037c1bde877b05d4d4ea6f7e4b36d402afbad69244c3249f405198b213f63b86a52fd3585cc3592eb597a09467a7cc",
                    "decodedMethod": {
                        "callParams": [
                            {
                                "name": "hash",
                                "type": "bytes32",
                                "value": "0x58b26896c882ba2849eb9f779ca03b04ae487f11a0e9401bc8b13506ee3bfc39"
                            },
                            {
                                "name": "v",
                                "type": "uint256",
                                "value": "27"
                            },
                            {
                                "name": "r",
                                "type": "bytes32",
                                "value": "0x6911ab6433e2d18f7aeae42cf42163034e037c1bde877b05d4d4ea6f7e4b36d4"
                            },
                            {
                                "name": "s",
                                "type": "bytes32",
                                "value": "0x02afbad69244c3249f405198b213f63b86a52fd3585cc3592eb597a09467a7cc"
                            }
                        ],
                        "constructorArguments": "",
                        "name": "ecrecover",
                        "returnParams": [
                            {
                                "name": "",
                                "type": "address",
                                "value": "0x8a3f117ef3b40f1661dedf7f28fc33e7b6fae4f8"
                            }
                        ],
                        "signature": "ecrecover(bytes32,uint256,bytes32,bytes32)"
                    },
                    "errorInfo": "",
                    "fromAddress": "0x1bf68a9d1eaee7826b3593c20a0ca93293cb489a",
                    "gasUsed": 3000,
                    "id": 12,
                    "methodDecoded": true,
                    "operation": "STATICCALL",
                    "output": "0x0000000000000000000000008a3f117ef3b40f1661dedf7f28fc33e7b6fae4f8",
                    "revert": false,
                    "revertMessage": "",
                    "selector": "0x58b26896",
                    "status": true,
                    "value": "0"
                },
                "nodeType": 0
            },
            "13": {
                "invocation": {
                    "address": "0x0000000000000000000000000000000000000001",
                    "callData": "0xc882ba2849eb9f779ca03b04ae487f11a0e9401bc8b13506ee3bfc39000000000000000000000000000000000000000000000000000000000000001b0e89a4c169438e1b10c73f0c4bc8a9854e683b69f1e2dd6db26d0ae5224b7b0a53c90153258de44169367731dc140f254ccdcf1df06d35577b8be5178e3abbc1",
                    "decodedMethod": {
                        "callParams": [
                            {
                                "name": "hash",
                                "type": "bytes32",
                                "value": "0x58b26896c882ba2849eb9f779ca03b04ae487f11a0e9401bc8b13506ee3bfc39"
                            },
                            {
                                "name": "v",
                                "type": "uint256",
                                "value": "27"
                            },
                            {
                                "name": "r",
                                "type": "bytes32",
                                "value": "0x0e89a4c169438e1b10c73f0c4bc8a9854e683b69f1e2dd6db26d0ae5224b7b0a"
                            },
                            {
                                "name": "s",
                                "type": "bytes32",
                                "value": "0x53c90153258de44169367731dc140f254ccdcf1df06d35577b8be5178e3abbc1"
                            }
                        ],
                        "constructorArguments": "",
                        "name": "ecrecover",
                        "returnParams": [
                            {
                                "name": "",
                                "type": "address",
                                "value": "0x3924ac70075078a7713f543b72e3f8817ecec646"
                            }
                        ],
                        "signature": "ecrecover(bytes32,uint256,bytes32,bytes32)"
                    },
                    "errorInfo": "",
                    "fromAddress": "0x1bf68a9d1eaee7826b3593c20a0ca93293cb489a",
                    "gasUsed": 3000,
                    "id": 13,
                    "methodDecoded": true,
                    "operation": "STATICCALL",
                    "output": "0x0000000000000000000000003924ac70075078a7713f543b72e3f8817ecec646",
                    "revert": false,
                    "revertMessage": "",
                    "selector": "0x58b26896",
                    "status": true,
                    "value": "0"
                },
                "nodeType": 0
            },
            "14": {
                "invocation": {
                    "address": "0x0000000000000000000000000000000000000001",
                    "callData": "0xc882ba2849eb9f779ca03b04ae487f11a0e9401bc8b13506ee3bfc39000000000000000000000000000000000000000000000000000000000000001ce4e76a5ff1a0fc36c6ea68b51bbfdeca21a4925cb1d228e6d70a218673e384a772cc730fdbafc4db58619152af6bb83187974c6894f265b9267ecc2dbdb5c82e",
                    "decodedMethod": {
                        "callParams": [
                            {
                                "name": "hash",
                                "type": "bytes32",
                                "value": "0x58b26896c882ba2849eb9f779ca03b04ae487f11a0e9401bc8b13506ee3bfc39"
                            },
                            {
                                "name": "v",
                                "type": "uint256",
                                "value": "28"
                            },
                            {
                                "name": "r",
                                "type": "bytes32",
                                "value": "0xe4e76a5ff1a0fc36c6ea68b51bbfdeca21a4925cb1d228e6d70a218673e384a7"
                            },
                            {
                                "name": "s",
                                "type": "bytes32",
                                "value": "0x72cc730fdbafc4db58619152af6bb83187974c6894f265b9267ecc2dbdb5c82e"
                            }
                        ],
                        "constructorArguments": "",
                        "name": "ecrecover",
                        "returnParams": [
                            {
                                "name": "",
                                "type": "address",
                                "value": "0x3b6590ff12ba188e465395e1610d8368613054b0"
                            }
                        ],
                        "signature": "ecrecover(bytes32,uint256,bytes32,bytes32)"
                    },
                    "errorInfo": "",
                    "fromAddress": "0x1bf68a9d1eaee7826b3593c20a0ca93293cb489a",
                    "gasUsed": 3000,
                    "id": 14,
                    "methodDecoded": true,
                    "operation": "STATICCALL",
                    "output": "0x0000000000000000000000003b6590ff12ba188e465395e1610d8368613054b0",
                    "revert": false,
                    "revertMessage": "",
                    "selector": "0x58b26896",
                    "status": true,
                    "value": "0"
                },
                "nodeType": 0
            },
            "15": {
                "invocation": {
                    "address": "0x0000000000000000000000000000000000000001",
                    "callData": "0xc882ba2849eb9f779ca03b04ae487f11a0e9401bc8b13506ee3bfc39000000000000000000000000000000000000000000000000000000000000001c463411e097d5b34a4ea73c81a1245ea9f3ca4121501a11e7c1ce8b06f51cba1d459802939b3e9c057c65f0c4c5472226d0d2c1c3d11141bd4864e58ca0c37c05",
                    "decodedMethod": {
                        "callParams": [
                            {
                                "name": "hash",
                                "type": "bytes32",
                                "value": "0x58b26896c882ba2849eb9f779ca03b04ae487f11a0e9401bc8b13506ee3bfc39"
                            },
                            {
                                "name": "v",
                                "type": "uint256",
                                "value": "28"
                            },
                            {
                                "name": "r",
                                "type": "bytes32",
                                "value": "0x463411e097d5b34a4ea73c81a1245ea9f3ca4121501a11e7c1ce8b06f51cba1d"
                            },
                            {
                                "name": "s",
                                "type": "bytes32",
                                "value": "0x459802939b3e9c057c65f0c4c5472226d0d2c1c3d11141bd4864e58ca0c37c05"
                            }
                        ],
                        "constructorArguments": "",
                        "name": "ecrecover",
                        "returnParams": [
                            {
                                "name": "",
                                "type": "address",
                                "value": "0x6013f0b3ffe1ffdca3fc6a8cd705b1af048f7437"
                            }
                        ],
                        "signature": "ecrecover(bytes32,uint256,bytes32,bytes32)"
                    },
                    "errorInfo": "",
                    "fromAddress": "0x1bf68a9d1eaee7826b3593c20a0ca93293cb489a",
                    "gasUsed": 3000,
                    "id": 15,
                    "methodDecoded": true,
                    "operation": "STATICCALL",
                    "output": "0x0000000000000000000000006013f0b3ffe1ffdca3fc6a8cd705b1af048f7437",
                    "revert": false,
                    "revertMessage": "",
                    "selector": "0x58b26896",
                    "status": true,
                    "value": "0"
                },
                "nodeType": 0
            },
            "16": {
                "invocation": {
                    "address": "0x0000000000000000000000000000000000000001",
                    "callData": "0xc882ba2849eb9f779ca03b04ae487f11a0e9401bc8b13506ee3bfc39000000000000000000000000000000000000000000000000000000000000001c8665974ccfc0ae8508a48614e90327ac2e774cd5a5d305b4372c74bac659dce4046f911d9f570c4a246f88e7fc72973ac7ddf711ecfa86469032be3a9ef958bb",
                    "decodedMethod": {
                        "callParams": [
                            {
                                "name": "hash",
                                "type": "bytes32",
                                "value": "0x58b26896c882ba2849eb9f779ca03b04ae487f11a0e9401bc8b13506ee3bfc39"
                            },
                            {
                                "name": "v",
                                "type": "uint256",
                                "value": "28"
                            },
                            {
                                "name": "r",
                                "type": "bytes32",
                                "value": "0x8665974ccfc0ae8508a48614e90327ac2e774cd5a5d305b4372c74bac659dce4"
                            },
                            {
                                "name": "s",
                                "type": "bytes32",
                                "value": "0x046f911d9f570c4a246f88e7fc72973ac7ddf711ecfa86469032be3a9ef958bb"
                            }
                        ],
                        "constructorArguments": "",
                        "name": "ecrecover",
                        "returnParams": [
                            {
                                "name": "",
                                "type": "address",
                                "value": "0x7f4b332611818ae13c76f9222e2229f274ded9bd"
                            }
                        ],
                        "signature": "ecrecover(bytes32,uint256,bytes32,bytes32)"
                    },
                    "errorInfo": "",
                    "fromAddress": "0x1bf68a9d1eaee7826b3593c20a0ca93293cb489a",
                    "gasUsed": 3000,
                    "id": 16,
                    "methodDecoded": true,
                    "operation": "STATICCALL",
                    "output": "0x0000000000000000000000007f4b332611818ae13c76f9222e2229f274ded9bd",
                    "revert": false,
                    "revertMessage": "",
                    "selector": "0x58b26896",
                    "status": true,
                    "value": "0"
                },
                "nodeType": 0
            },
            "17": {
                "invocation": {
                    "address": "0x0000000000000000000000000000000000000001",
                    "callData": "0xc882ba2849eb9f779ca03b04ae487f11a0e9401bc8b13506ee3bfc39000000000000000000000000000000000000000000000000000000000000001cf8cbc3e52cbd553b23d333a48f7d6dca84d1d20639f2d75a31e2f77c0d54104f0506b65129f236bb632f05c321b859c9043ba00b516132c096b5778fe99d8d76",
                    "decodedMethod": {
                        "callParams": [
                            {
                                "name": "hash",
                                "type": "bytes32",
                                "value": "0x58b26896c882ba2849eb9f779ca03b04ae487f11a0e9401bc8b13506ee3bfc39"
                            },
                            {
                                "name": "v",
                                "type": "uint256",
                                "value": "28"
                            },
                            {
                                "name": "r",
                                "type": "bytes32",
                                "value": "0xf8cbc3e52cbd553b23d333a48f7d6dca84d1d20639f2d75a31e2f77c0d54104f"
                            },
                            {
                                "name": "s",
                                "type": "bytes32",
                                "value": "0x0506b65129f236bb632f05c321b859c9043ba00b516132c096b5778fe99d8d76"
                            }
                        ],
                        "constructorArguments": "",
                        "name": "ecrecover",
                        "returnParams": [
                            {
                                "name": "",
                                "type": "address",
                                "value": "0x595f1a527527fa28a8c5f294c49e51b9799fdaf0"
                            }
                        ],
                        "signature": "ecrecover(bytes32,uint256,bytes32,bytes32)"
                    },
                    "errorInfo": "",
                    "fromAddress": "0x1bf68a9d1eaee7826b3593c20a0ca93293cb489a",
                    "gasUsed": 3000,
                    "id": 17,
                    "methodDecoded": true,
                    "operation": "STATICCALL",
                    "output": "0x000000000000000000000000595f1a527527fa28a8c5f294c49e51b9799fdaf0",
                    "revert": false,
                    "revertMessage": "",
                    "selector": "0x58b26896",
                    "status": true,
                    "value": "0"
                },
                "nodeType": 0
            },
            "18": {
                "event": {
                    "contract": "0x1bf68a9d1eaee7826b3593c20a0ca93293cb489a",
                    "decodedLog": {
                        "name": "Withdraw",
                        "params": [
                            {
                                "name": "fromChain",
                                "type": "string",
                                "value": "ORBIT"
                            },
                            {
                                "name": "fromAddr",
                                "type": "bytes",
                                "value": "0x9263e7873613ddc598a701709875634819176aff"
                            },
                            {
                                "name": "toAddr",
                                "type": "bytes",
                                "value": "0xa70f8917a957757f5505a5535df1591c54f65b9d"
                            },
                            {
                                "name": "token",
                                "type": "bytes",
                                "value": "0xa0b86991c6218b36c1d19d4a2e9eb0ce3606eb48"
                            },
                            {
                                "name": "bytes32s",
                                "type": "bytes32[]",
                                "value": [
                                    "0x50f408f4b0fb17bf4f5143de4bd95802410d00422f008e9deef06fb101a0f060",
                                    "0x6886e943e72f8920d259934b8c3c194c94e859e85ad619ab348733a024e4938c"
                                ]
                            },
                            {
                                "name": "uints",
                                "type": "uint256[]",
                                "value": [
                                    "10,000,000,000,000",
                                    "6",
                                    "8,731"
                                ]
                            },
                            {
                                "name": "data",
                                "type": "bytes",
                                "value": "0x"
                            }
                        ],
                        "signature": "Withdraw(string,bytes,bytes,bytes,bytes32[],uint256[],bytes)"
                    },
                    "id": 18,
                    "logData": "0x00000000000000000000000000000000000000000000000000000000000000e00000000000000000000000000000000000000000000000000000000000000120000000000000000000000000000000000000000000000000000000000000016000000000000000000000000000000000000000000000000000000000000001a000000000000000000000000000000000000000000000000000000000000001e0000000000000000000000000000000000000000000000000000000000000024000000000000000000000000000000000000000000000000000000000000002c000000000000000000000000000000000000000000000000000000000000000054f5242495400000000000000000000000000000000000000000000000000000000000000000000000000000000000000000000000000000000000000000000149263e7873613ddc598a701709875634819176aff0000000000000000000000000000000000000000000000000000000000000000000000000000000000000014a70f8917a957757f5505a5535df1591c54f65b9d0000000000000000000000000000000000000000000000000000000000000000000000000000000000000014a0b86991c6218b36c1d19d4a2e9eb0ce3606eb48000000000000000000000000000000000000000000000000000000000000000000000000000000000000000250f408f4b0fb17bf4f5143de4bd95802410d00422f008e9deef06fb101a0f0606886e943e72f8920d259934b8c3c194c94e859e85ad619ab348733a024e4938c0000000000000000000000000000000000000000000000000000000000000003000000000000000000000000000000000000000000000000000009184e72a0000000000000000000000000000000000000000000000000000000000000000006000000000000000000000000000000000000000000000000000000000000221b0000000000000000000000000000000000000000000000000000000000000000",
                    "logDecoded": true,
                    "operation": "EVENT",
                    "revert": false,
                    "status": true,
                    "topics": [
                        "0xa866edf1861d39a9973d7892f3869e1bb4b76bc00d216872c1dd2bc547f2da2e"
                    ]
                },
                "nodeType": 1
            },
            "19": {
                "invocation": {
                    "address": "0xa0b86991c6218b36c1d19d4a2e9eb0ce3606eb48",
                    "callData": "0x0000000000000000000000001bf68a9d1eaee7826b3593c20a0ca93293cb489a",
                    "decodedMethod": {
                        "callParams": [
                            {
                                "name": "account",
                                "type": "address",
                                "value": "0x1bf68a9d1eaee7826b3593c20a0ca93293cb489a"
                            }
                        ],
                        "constructorArguments": "",
                        "name": "balanceOf",
                        "returnParams": [
                            {
                                "decimalAvailable": true,
                                "name": "",
                                "type": "uint256",
                                "value": "13,671,889,709,174"
                            }
                        ],
                        "signature": "balanceOf(address)"
                    },
                    "errorInfo": "",
                    "fromAddress": "0x1bf68a9d1eaee7826b3593c20a0ca93293cb489a",
                    "gasUsed": 9815,
                    "id": 19,
                    "methodDecoded": true,
                    "operation": "STATICCALL",
                    "output": "0x00000000000000000000000000000000000000000000000000000c6f3c212876",
                    "revert": false,
                    "revertMessage": "",
                    "selector": "0x70a08231",
                    "status": true,
                    "value": "0"
                },
                "nodeType": 0
            },
            "2": {
                "invocation": {
                    "address": "0x0000000000000000000000000000000000000002",
                    "callData": "0x1eaee7826b3593c20a0ca93293cb489a4f52424954",
                    "decodedMethod": {
                        "callParams": [
                            {
                                "name": "data",
                                "type": "bytes",
                                "value": "0x1bf68a9d1eaee7826b3593c20a0ca93293cb489a4f52424954"
                            }
                        ],
                        "constructorArguments": "",
                        "name": "sha256hash",
                        "returnParams": [
                            {
                                "name": "hash",
                                "type": "bytes32",
                                "value": "0xb18557931ff79edd3f4f9f4679b4538562f57b62aadb370d1b78a81df9dd56bb"
                            }
                        ],
                        "signature": "sha256hash(bytes)"
                    },
                    "errorInfo": "",
                    "fromAddress": "0x1bf68a9d1eaee7826b3593c20a0ca93293cb489a",
                    "gasUsed": 72,
                    "id": 2,
                    "methodDecoded": true,
                    "operation": "STATICCALL",
                    "output": "0xb18557931ff79edd3f4f9f4679b4538562f57b62aadb370d1b78a81df9dd56bb",
                    "revert": false,
                    "revertMessage": "",
                    "selector": "0x1bf68a9d",
                    "status": true,
                    "value": "0"
                },
                "nodeType": 0
            },
            "20": {
                "invocation": {
                    "address": "0xa2327a938febf5fec13bacfb16ae10ecbc4cbdcf",
                    "callData": "0x0000000000000000000000001bf68a9d1eaee7826b3593c20a0ca93293cb489a",
                    "decodedMethod": {
                        "callParams": [
                            {
                                "name": "account",
                                "type": "address",
                                "value": "0x1bf68a9d1eaee7826b3593c20a0ca93293cb489a"
                            }
                        ],
                        "constructorArguments": "",
                        "name": "balanceOf",
                        "returnParams": [
                            {
                                "decimalAvailable": true,
                                "name": "",
                                "type": "uint256",
                                "value": "13,671,889,709,174"
                            }
                        ],
                        "signature": "balanceOf(address)"
                    },
                    "errorInfo": "",
                    "fromAddress": "0xa0b86991c6218b36c1d19d4a2e9eb0ce3606eb48",
                    "gasUsed": 2529,
                    "id": 20,
                    "methodDecoded": true,
                    "operation": "DELEGATECALL",
                    "output": "0x00000000000000000000000000000000000000000000000000000c6f3c212876",
                    "revert": false,
                    "revertMessage": "",
                    "selector": "0x70a08231",
                    "status": true,
                    "value": "0"
                },
                "nodeType": 0
            },
            "21": {
                "invocation": {
                    "address": "0xa0b86991c6218b36c1d19d4a2e9eb0ce3606eb48",
                    "callData": "0x000000000000000000000000a70f8917a957757f5505a5535df1591c54f65b9d000000000000000000000000000000000000000000000000000009184e72a000",
                    "decodedMethod": {
                        "callParams": [
                            {
                                "name": "to",
                                "type": "address",
                                "value": "0xa70f8917a957757f5505a5535df1591c54f65b9d"
                            },
                            {
                                "decimalAvailable": true,
                                "name": "value",
                                "type": "uint256",
                                "value": "10,000,000,000,000"
                            }
                        ],
                        "constructorArguments": "",
                        "name": "transfer",
                        "returnParams": [
                            {
                                "name": "",
                                "type": "bool",
                                "value": true
                            }
                        ],
                        "signature": "transfer(address,uint256)"
                    },
                    "errorInfo": "",
                    "fromAddress": "0x1bf68a9d1eaee7826b3593c20a0ca93293cb489a",
                    "gasUsed": 18417,
                    "id": 21,
                    "methodDecoded": true,
                    "operation": "CALL",
                    "output": "0x0000000000000000000000000000000000000000000000000000000000000001",
                    "revert": false,
                    "revertMessage": "",
                    "selector": "0xa9059cbb",
                    "status": true,
                    "value": "0"
                },
                "nodeType": 0
            },
            "22": {
                "invocation": {
                    "address": "0xa2327a938febf5fec13bacfb16ae10ecbc4cbdcf",
                    "callData": "0x000000000000000000000000a70f8917a957757f5505a5535df1591c54f65b9d000000000000000000000000000000000000000000000000000009184e72a000",
                    "decodedMethod": {
                        "callParams": [
                            {
                                "name": "to",
                                "type": "address",
                                "value": "0xa70f8917a957757f5505a5535df1591c54f65b9d"
                            },
                            {
                                "decimalAvailable": true,
                                "name": "value",
                                "type": "uint256",
                                "value": "10,000,000,000,000"
                            }
                        ],
                        "constructorArguments": "",
                        "name": "transfer",
                        "returnParams": [
                            {
                                "name": "",
                                "type": "bool",
                                "value": true
                            }
                        ],
                        "signature": "transfer(address,uint256)"
                    },
                    "errorInfo": "",
                    "fromAddress": "0xa0b86991c6218b36c1d19d4a2e9eb0ce3606eb48",
                    "gasUsed": 17628,
                    "id": 22,
                    "methodDecoded": true,
                    "operation": "DELEGATECALL",
                    "output": "0x0000000000000000000000000000000000000000000000000000000000000001",
                    "revert": false,
                    "revertMessage": "",
                    "selector": "0xa9059cbb",
                    "status": true,
                    "value": "0"
                },
                "nodeType": 0
            },
            "23": {
                "event": {
                    "contract": "0xa0b86991c6218b36c1d19d4a2e9eb0ce3606eb48",
                    "decodedLog": {
                        "name": "Transfer",
                        "params": [
                            {
                                "name": "from",
                                "type": "address",
                                "value": "0x1bf68a9d1eaee7826b3593c20a0ca93293cb489a"
                            },
                            {
                                "name": "to",
                                "type": "address",
                                "value": "0xa70f8917a957757f5505a5535df1591c54f65b9d"
                            },
                            {
                                "decimalAvailable": true,
                                "name": "value",
                                "type": "uint256",
                                "value": "10,000,000,000,000"
                            }
                        ],
                        "signature": "Transfer(address,address,uint256)"
                    },
                    "id": 23,
                    "logData": "0x000000000000000000000000000000000000000000000000000009184e72a000",
                    "logDecoded": true,
                    "operation": "EVENT",
                    "revert": false,
                    "status": true,
                    "topics": [
                        "0xddf252ad1be2c89b69c2b068fc378daa952ba7f163c4a11628f55a4df523b3ef",
                        "0x0000000000000000000000001bf68a9d1eaee7826b3593c20a0ca93293cb489a",
                        "0x000000000000000000000000a70f8917a957757f5505a5535df1591c54f65b9d"
                    ]
                },
                "nodeType": 1
            },
            "3": {
                "invocation": {
                    "address": "0x0000000000000000000000000000000000000002",
                    "callData": "0x1eaee7826b3593c20a0ca93293cb489a4f52424954",
                    "decodedMethod": {
                        "callParams": [
                            {
                                "name": "data",
                                "type": "bytes",
                                "value": "0x1bf68a9d1eaee7826b3593c20a0ca93293cb489a4f52424954"
                            }
                        ],
                        "constructorArguments": "",
                        "name": "sha256hash",
                        "returnParams": [
                            {
                                "name": "hash",
                                "type": "bytes32",
                                "value": "0xb18557931ff79edd3f4f9f4679b4538562f57b62aadb370d1b78a81df9dd56bb"
                            }
                        ],
                        "signature": "sha256hash(bytes)"
                    },
                    "errorInfo": "",
                    "fromAddress": "0x1bf68a9d1eaee7826b3593c20a0ca93293cb489a",
                    "gasUsed": 72,
                    "id": 3,
                    "methodDecoded": true,
                    "operation": "STATICCALL",
                    "output": "0xb18557931ff79edd3f4f9f4679b4538562f57b62aadb370d1b78a81df9dd56bb",
                    "revert": false,
                    "revertMessage": "",
                    "selector": "0x1bf68a9d",
                    "status": true,
                    "value": "0"
                },
                "nodeType": 0
            },
            "4": {
                "invocation": {
                    "address": "0x0000000000000000000000000000000000000002",
                    "callData": "0xd627c52de992e3ea52a86f19da4753994554481bf68a9d1eaee7826b3593c20a0ca93293cb489a",
                    "decodedMethod": {
                        "callParams": [
                            {
                                "name": "data",
                                "type": "bytes",
                                "value": "0xb5680a55d627c52de992e3ea52a86f19da4753994554481bf68a9d1eaee7826b3593c20a0ca93293cb489a"
                            }
                        ],
                        "constructorArguments": "",
                        "name": "sha256hash",
                        "returnParams": [
                            {
                                "name": "hash",
                                "type": "bytes32",
                                "value": "0x50f408f4b0fb17bf4f5143de4bd95802410d00422f008e9deef06fb101a0f060"
                            }
                        ],
                        "signature": "sha256hash(bytes)"
                    },
                    "errorInfo": "",
                    "fromAddress": "0x1bf68a9d1eaee7826b3593c20a0ca93293cb489a",
                    "gasUsed": 84,
                    "id": 4,
                    "methodDecoded": true,
                    "operation": "STATICCALL",
                    "output": "0x50f408f4b0fb17bf4f5143de4bd95802410d00422f008e9deef06fb101a0f060",
                    "revert": false,
                    "revertMessage": "",
                    "selector": "0xb5680a55",
                    "status": true,
                    "value": "0"
                },
                "nodeType": 0
            },
            "5": {
                "invocation": {
                    "address": "0x0000000000000000000000000000000000000002",
                    "callData": "0x1eaee7826b3593c20a0ca93293cb489a4f52424954",
                    "decodedMethod": {
                        "callParams": [
                            {
                                "name": "data",
                                "type": "bytes",
                                "value": "0x1bf68a9d1eaee7826b3593c20a0ca93293cb489a4f52424954"
                            }
                        ],
                        "constructorArguments": "",
                        "name": "sha256hash",
                        "returnParams": [
                            {
                                "name": "hash",
                                "type": "bytes32",
                                "value": "0xb18557931ff79edd3f4f9f4679b4538562f57b62aadb370d1b78a81df9dd56bb"
                            }
                        ],
                        "signature": "sha256hash(bytes)"
                    },
                    "errorInfo": "",
                    "fromAddress": "0x1bf68a9d1eaee7826b3593c20a0ca93293cb489a",
                    "gasUsed": 72,
                    "id": 5,
                    "methodDecoded": true,
                    "operation": "STATICCALL",
                    "output": "0xb18557931ff79edd3f4f9f4679b4538562f57b62aadb370d1b78a81df9dd56bb",
                    "revert": false,
                    "revertMessage": "",
                    "selector": "0x1bf68a9d",
                    "status": true,
                    "value": "0"
                },
                "nodeType": 0
            },
            "6": {
                "invocation": {
                    "address": "0x0000000000000000000000000000000000000002",
                    "callData": "0xd627c52de992e3ea52a86f19da4753994f524249544554489263e7873613ddc598a701709875634819176affa70f8917a957757f5505a5535df1591c54f65b9da0b86991c6218b36c1d19d4a2e9eb0ce3606eb4850f408f4b0fb17bf4f5143de4bd95802410d00422f008e9deef06fb101a0f0606886e943e72f8920d259934b8c3c194c94e859e85ad619ab348733a024e4938c000000000000000000000000000000000000000000000000000009184e72a0000000000000000000000000000000000000000000000000000000000000000006000000000000000000000000000000000000000000000000000000000000221b",
                    "decodedMethod": {
                        "callParams": [
                            {
                                "name": "data",
                                "type": "bytes",
                                "value": "0xb5680a55d627c52de992e3ea52a86f19da4753994f524249544554489263e7873613ddc598a701709875634819176affa70f8917a957757f5505a5535df1591c54f65b9da0b86991c6218b36c1d19d4a2e9eb0ce3606eb4850f408f4b0fb17bf4f5143de4bd95802410d00422f008e9deef06fb101a0f0606886e943e72f8920d259934b8c3c194c94e859e85ad619ab348733a024e4938c000000000000000000000000000000000000000000000000000009184e72a0000000000000000000000000000000000000000000000000000000000000000006000000000000000000000000000000000000000000000000000000000000221b"
                            }
                        ],
                        "constructorArguments": "",
                        "name": "sha256hash",
                        "returnParams": [
                            {
                                "name": "hash",
                                "type": "bytes32",
                                "value": "0x58b26896c882ba2849eb9f779ca03b04ae487f11a0e9401bc8b13506ee3bfc39"
                            }
                        ],
                        "signature": "sha256hash(bytes)"
                    },
                    "errorInfo": "",
                    "fromAddress": "0x1bf68a9d1eaee7826b3593c20a0ca93293cb489a",
                    "gasUsed": 156,
                    "id": 6,
                    "methodDecoded": true,
                    "operation": "STATICCALL",
                    "output": "0x58b26896c882ba2849eb9f779ca03b04ae487f11a0e9401bc8b13506ee3bfc39",
                    "revert": false,
                    "revertMessage": "",
                    "selector": "0xb5680a55",
                    "status": true,
                    "value": "0"
                },
                "nodeType": 0
            },
            "7": {
                "invocation": {
                    "address": "0x0000000000000000000000000000000000000001",
                    "callData": "0xc882ba2849eb9f779ca03b04ae487f11a0e9401bc8b13506ee3bfc39000000000000000000000000000000000000000000000000000000000000001bbd3d7b5909b382517fc61f927eefe06dda7ebde9ab8213defe2cbe241ce0cc377ab97c30070d35d41ea41d7103e8a6f4c28478b5af1fa655640d81e96fbf70f9",
                    "decodedMethod": {
                        "callParams": [
                            {
                                "name": "hash",
                                "type": "bytes32",
                                "value": "0x58b26896c882ba2849eb9f779ca03b04ae487f11a0e9401bc8b13506ee3bfc39"
                            },
                            {
                                "name": "v",
                                "type": "uint256",
                                "value": "27"
                            },
                            {
                                "name": "r",
                                "type": "bytes32",
                                "value": "0xbd3d7b5909b382517fc61f927eefe06dda7ebde9ab8213defe2cbe241ce0cc37"
                            },
                            {
                                "name": "s",
                                "type": "bytes32",
                                "value": "0x7ab97c30070d35d41ea41d7103e8a6f4c28478b5af1fa655640d81e96fbf70f9"
                            }
                        ],
                        "constructorArguments": "",
                        "name": "ecrecover",
                        "returnParams": [
                            {
                                "name": "",
                                "type": "address",
                                "value": "0x07688df092cd4e5141a523e70e3b74b4c1a9692e"
                            }
                        ],
                        "signature": "ecrecover(bytes32,uint256,bytes32,bytes32)"
                    },
                    "errorInfo": "",
                    "fromAddress": "0x1bf68a9d1eaee7826b3593c20a0ca93293cb489a",
                    "gasUsed": 3000,
                    "id": 7,
                    "methodDecoded": true,
                    "operation": "STATICCALL",
                    "output": "0x00000000000000000000000007688df092cd4e5141a523e70e3b74b4c1a9692e",
                    "revert": false,
                    "revertMessage": "",
                    "selector": "0x58b26896",
                    "status": true,
                    "value": "0"
                },
                "nodeType": 0
            },
            "8": {
                "invocation": {
                    "address": "0x0000000000000000000000000000000000000001",
                    "callData": "0xc882ba2849eb9f779ca03b04ae487f11a0e9401bc8b13506ee3bfc39000000000000000000000000000000000000000000000000000000000000001b4d4ea13457cce097b557661de2d06deba34d06283a7b8733cb10e318915507cb6c1ec3a5fad0143482a14c2a8221e20b0a976cc1461e9254ceb08ef41a483c4d",
                    "decodedMethod": {
                        "callParams": [
                            {
                                "name": "hash",
                                "type": "bytes32",
                                "value": "0x58b26896c882ba2849eb9f779ca03b04ae487f11a0e9401bc8b13506ee3bfc39"
                            },
                            {
                                "name": "v",
                                "type": "uint256",
                                "value": "27"
                            },
                            {
                                "name": "r",
                                "type": "bytes32",
                                "value": "0x4d4ea13457cce097b557661de2d06deba34d06283a7b8733cb10e318915507cb"
                            },
                            {
                                "name": "s",
                                "type": "bytes32",
                                "value": "0x6c1ec3a5fad0143482a14c2a8221e20b0a976cc1461e9254ceb08ef41a483c4d"
                            }
                        ],
                        "constructorArguments": "",
                        "name": "ecrecover",
                        "returnParams": [
                            {
                                "name": "",
                                "type": "address",
                                "value": "0x1c0cd56f1c3e2cf13b9b44dbe5529104bade543e"
                            }
                        ],
                        "signature": "ecrecover(bytes32,uint256,bytes32,bytes32)"
                    },
                    "errorInfo": "",
                    "fromAddress": "0x1bf68a9d1eaee7826b3593c20a0ca93293cb489a",
                    "gasUsed": 3000,
                    "id": 8,
                    "methodDecoded": true,
                    "operation": "STATICCALL",
                    "output": "0x0000000000000000000000001c0cd56f1c3e2cf13b9b44dbe5529104bade543e",
                    "revert": false,
                    "revertMessage": "",
                    "selector": "0x58b26896",
                    "status": true,
                    "value": "0"
                },
                "nodeType": 0
            },
            "9": {
                "invocation": {
                    "address": "0x0000000000000000000000000000000000000001",
                    "callData": "0xc882ba2849eb9f779ca03b04ae487f11a0e9401bc8b13506ee3bfc39000000000000000000000000000000000000000000000000000000000000001b5f2a7cebc84869b701e910b7459726c0758a876a524f115e47eaf7751456c3256b6a1146b72433496eacdf23b938c92b4cf6b8b3a30913fb54e7f94c3790f55f",
                    "decodedMethod": {
                        "callParams": [
                            {
                                "name": "hash",
                                "type": "bytes32",
                                "value": "0x58b26896c882ba2849eb9f779ca03b04ae487f11a0e9401bc8b13506ee3bfc39"
                            },
                            {
                                "name": "v",
                                "type": "uint256",
                                "value": "27"
                            },
                            {
                                "name": "r",
                                "type": "bytes32",
                                "value": "0x5f2a7cebc84869b701e910b7459726c0758a876a524f115e47eaf7751456c325"
                            },
                            {
                                "name": "s",
                                "type": "bytes32",
                                "value": "0x6b6a1146b72433496eacdf23b938c92b4cf6b8b3a30913fb54e7f94c3790f55f"
                            }
                        ],
                        "constructorArguments": "",
                        "name": "ecrecover",
                        "returnParams": [
                            {
                                "name": "",
                                "type": "address",
                                "value": "0xa6dc28cbcb2f8060a00b4fa67f9b67775ac5a3a1"
                            }
                        ],
                        "signature": "ecrecover(bytes32,uint256,bytes32,bytes32)"
                    },
                    "errorInfo": "",
                    "fromAddress": "0x1bf68a9d1eaee7826b3593c20a0ca93293cb489a",
                    "gasUsed": 3000,
                    "id": 9,
                    "methodDecoded": true,
                    "operation": "STATICCALL",
                    "output": "0x000000000000000000000000a6dc28cbcb2f8060a00b4fa67f9b67775ac5a3a1",
                    "revert": false,
                    "revertMessage": "",
                    "selector": "0x58b26896",
                    "status": true,
                    "value": "0"
                },
                "nodeType": 0
            }
        },
        "gasFlame": [
            {
                "children": [
                    {
                        "children": [
                            {
                                "children": [],
                                "depth": 0,
                                "name": "Initial Gas",
                                "value": 39332
                            },
                            {
                                "children": [
                                    {
                                        "children": [
                                            {
                                                "children": [],
                                                "depth": 2,
                                                "name": "sha256hash",
                                                "value": 72
                                            },
                                            {
                                                "children": [],
                                                "depth": 2,
                                                "name": "sha256hash",
                                                "value": 72
                                            },
                                            {
                                                "children": [],
                                                "depth": 2,
                                                "name": "sha256hash",
                                                "value": 84
                                            },
                                            {
                                                "children": [],
                                                "depth": 2,
                                                "name": "sha256hash",
                                                "value": 72
                                            },
                                            {
                                                "children": [],
                                                "depth": 2,
                                                "name": "sha256hash",
                                                "value": 156
                                            },
                                            {
                                                "children": [],
                                                "depth": 2,
                                                "name": "ecrecover",
                                                "value": 3000
                                            },
                                            {
                                                "children": [],
                                                "depth": 2,
                                                "name": "ecrecover",
                                                "value": 3000
                                            },
                                            {
                                                "children": [],
                                                "depth": 2,
                                                "name": "ecrecover",
                                                "value": 3000
                                            },
                                            {
                                                "children": [],
                                                "depth": 2,
                                                "name": "ecrecover",
                                                "value": 3000
                                            },
                                            {
                                                "children": [],
                                                "depth": 2,
                                                "name": "ecrecover",
                                                "value": 3000
                                            },
                                            {
                                                "children": [],
                                                "depth": 2,
                                                "name": "ecrecover",
                                                "value": 3000
                                            },
                                            {
                                                "children": [],
                                                "depth": 2,
                                                "name": "ecrecover",
                                                "value": 3000
                                            },
                                            {
                                                "children": [],
                                                "depth": 2,
                                                "name": "ecrecover",
                                                "value": 3000
                                            },
                                            {
                                                "children": [],
                                                "depth": 2,
                                                "name": "ecrecover",
                                                "value": 3000
                                            },
                                            {
                                                "children": [],
                                                "depth": 2,
                                                "name": "ecrecover",
                                                "value": 3000
                                            },
                                            {
                                                "children": [],
                                                "depth": 2,
                                                "name": "ecrecover",
                                                "value": 3000
                                            },
                                            {
                                                "children": [
                                                    {
                                                        "children": [],
                                                        "depth": 3,
                                                        "name": "balanceOf",
                                                        "value": 2529
                                                    }
                                                ],
                                                "depth": 2,
                                                "name": "balanceOf",
                                                "value": 9815
                                            },
                                            {
                                                "children": [
                                                    {
                                                        "children": [],
                                                        "depth": 3,
                                                        "name": "transfer",
                                                        "value": 17628
                                                    }
                                                ],
                                                "depth": 2,
                                                "name": "transfer",
                                                "value": 18417
                                            }
                                        ],
                                        "depth": 1,
                                        "name": "withdraw",
                                        "value": 175175
                                    }
                                ],
                                "depth": 0,
                                "name": "Executed Gas",
                                "value": 181197
                            }
                        ],
                        "depth": -1,
                        "name": "Actual Gas Used",
                        "value": 220529
                    },
                    {
                        "children": [],
                        "depth": -1,
                        "name": "Refunded Gas",
                        "value": 0
                    }
                ],
                "depth": -2,
                "name": "Total Gas",
                "value": 220529
            }
        ],
        "isConfirmed": true,
        "mainTrace": [
            {
                "children": [
                    {
                        "children": [
                            {
                                "children": [
                                    {
                                        "children": [],
                                        "depth": 2,
                                        "id": 2,
                                        "order": 2
                                    },
                                    {
                                        "children": [],
                                        "depth": 2,
                                        "id": 3,
                                        "order": 3
                                    },
                                    {
                                        "children": [],
                                        "depth": 2,
                                        "id": 4,
                                        "order": 4
                                    },
                                    {
                                        "children": [],
                                        "depth": 2,
                                        "id": 5,
                                        "order": 5
                                    },
                                    {
                                        "children": [],
                                        "depth": 2,
                                        "id": 6,
                                        "order": 6
                                    },
                                    {
                                        "children": [],
                                        "depth": 2,
                                        "id": 7,
                                        "order": 7
                                    },
                                    {
                                        "children": [],
                                        "depth": 2,
                                        "id": 8,
                                        "order": 8
                                    },
                                    {
                                        "children": [],
                                        "depth": 2,
                                        "id": 9,
                                        "order": 9
                                    },
                                    {
                                        "children": [],
                                        "depth": 2,
                                        "id": 10,
                                        "order": 10
                                    },
                                    {
                                        "children": [],
                                        "depth": 2,
                                        "id": 11,
                                        "order": 11
                                    },
                                    {
                                        "children": [],
                                        "depth": 2,
                                        "id": 12,
                                        "order": 12
                                    },
                                    {
                                        "children": [],
                                        "depth": 2,
                                        "id": 13,
                                        "order": 13
                                    },
                                    {
                                        "children": [],
                                        "depth": 2,
                                        "id": 14,
                                        "order": 14
                                    },
                                    {
                                        "children": [],
                                        "depth": 2,
                                        "id": 15,
                                        "order": 15
                                    },
                                    {
                                        "children": [],
                                        "depth": 2,
                                        "id": 16,
                                        "order": 16
                                    },
                                    {
                                        "children": [],
                                        "depth": 2,
                                        "id": 17,
                                        "order": 17
                                    },
                                    {
                                        "children": [],
                                        "depth": 2,
                                        "id": 18,
                                        "order": 18
                                    },
                                    {
                                        "children": [
                                            {
                                                "children": [],
                                                "depth": 3,
                                                "id": 20,
                                                "order": 20
                                            }
                                        ],
                                        "depth": 2,
                                        "id": 19,
                                        "order": 19
                                    },
                                    {
                                        "children": [
                                            {
                                                "children": [
                                                    {
                                                        "children": [],
                                                        "depth": 4,
                                                        "id": 23,
                                                        "order": 23
                                                    }
                                                ],
                                                "depth": 3,
                                                "id": 22,
                                                "order": 22
                                            }
                                        ],
                                        "depth": 2,
                                        "id": 21,
                                        "order": 21
                                    }
                                ],
                                "depth": 1,
                                "id": 1,
                                "order": 1
                            }
                        ],
                        "depth": 0,
                        "id": 0,
                        "order": 0
                    }
                ],
                "depth": -1,
                "id": -1,
                "order": -1
            }
        ],
        "mainTraceNodeCount": 24,
        "parentIdMap": {
            "0": -1,
            "1": 0,
            "10": 1,
            "11": 1,
            "12": 1,
            "13": 1,
            "14": 1,
            "15": 1,
            "16": 1,
            "17": 1,
            "18": 1,
            "19": 1,
            "2": 1,
            "20": 19,
            "21": 1,
            "22": 21,
            "23": 22,
            "3": 1,
            "4": 1,
            "5": 1,
            "6": 1,
            "7": 1,
            "8": 1,
            "9": 1
        },
        "tidyTrace": [
            {
                "children": [
                    {
                        "children": [
                            {
                                "children": [
                                    {
                                        "children": [],
                                        "depth": 2,
                                        "id": 18,
                                        "order": 18
                                    },
                                    {
                                        "children": [
                                            {
                                                "children": [
                                                    {
                                                        "children": [],
                                                        "depth": 4,
                                                        "id": 23,
                                                        "order": 23
                                                    }
                                                ],
                                                "depth": 3,
                                                "id": 22,
                                                "order": 22
                                            }
                                        ],
                                        "depth": 2,
                                        "id": 21,
                                        "order": 21
                                    }
                                ],
                                "depth": 1,
                                "id": 1,
                                "order": 1
                            }
                        ],
                        "depth": 0,
                        "id": 0,
                        "order": 0
                    }
                ],
                "depth": -1,
                "id": -1,
                "order": -1
            }
        ],
        "tidyTraceNodeCount": 6
    },
    "state_change": {
        "stateChanges": [
            {
                "address": "0x1bf68a9d1eaee7826b3593c20a0ca93293cb489a",
                "erc": "",
                "slots": [
                    {
                        "current": "0x0000000000000000000000000000000000000000000000000000000000000001",
                        "key": "0x65c2d4faca6ff53fd72514da6b3267f89375e60d7b6d3580cf853db258d51efd",
                        "prev": "0x0000000000000000000000000000000000000000000000000000000000000000"
                    }
                ],
                "storageVariables": [
                    {
                        "name": "isUsedWithdrawal",
                        "type": "mapping(bytes32 => bool)",
                        "value": {
                            "pairs": [
                                {
                                    "key": "0x58b26896c882ba2849eb9f779ca03b04ae487f11a0e9401bc8b13506ee3bfc39",
                                    "value": {
                                        "current": "true",
                                        "prev": "false",
                                        "typeTag": 1
                                    }
                                }
                            ],
                            "typeTag": 4
                        }
                    }
                ]
            },
            {
                "address": "0xa0b86991c6218b36c1d19d4a2e9eb0ce3606eb48",
                "erc": "ERC-20",
                "slots": [
                    {
                        "current": "0x00000000000000000000000000000000000000000000000000000356edae8876",
                        "key": "0x264d958002aa674e4d521e8e1d2a2c880e3add5c1376864b92e3cbc3b732ac50",
                        "prev": "0x00000000000000000000000000000000000000000000000000000c6f3c212876"
                    },
                    {
                        "current": "0x000000000000000000000000000000000000000000000000000009184eae7779",
                        "key": "0x377c06fc490ed8fd1c2b8ba569bea05c9396150071873f9e43a18399cb68be59",
                        "prev": "0x00000000000000000000000000000000000000000000000000000000003bd779"
                    }
                ],
                "storageVariables": [
                    {
                        "name": "balances",
                        "type": "mapping(address => uint256)",
                        "value": {
                            "pairs": [
                                {
                                    "key": "0x1bf68a9d1eaee7826b3593c20a0ca93293cb489a",
                                    "value": {
                                        "current": "3671889709174",
                                        "prev": "13671889709174",
                                        "typeTag": 1
                                    }
                                },
                                {
                                    "key": "0xa70f8917a957757f5505a5535df1591c54f65b9d",
                                    "value": {
                                        "current": "10000003921785",
                                        "prev": "3921785",
                                        "typeTag": 1
                                    }
                                }
                            ],
                            "typeTag": 4
                        }
                    }
                ]
            }
        ]
    }
}