{
    "balance_change": {
        "balanceChanges": [
            {
                "account": "0x4e2ce48f0b5d97bfd4be3f6c7b6479db1aa5b365",
                "assets": [
                    {
                        "address": "0xeeeeeeeeeeeeeeeeeeeeeeeeeeeeeeeeeeeeeeee",
                        "amount": "0.0000002",
                        "iconUrl": "https://assets.blocksec.com/image/1663669189317-3.png",
                        "isERC1155": false,
                        "isERC721": false,
                        "sign": false,
                        "value": "0.00077775600000000004"
                    },
                    {
                        "address": "0x102dc1840f0c3c179670f21fa63597e82df34e60",
                        "amount": "519,763.477214666445403988",
                        "iconUrl": "",
                        "isERC1155": false,
                        "isERC721": false,
                        "sign": true,
                        "value": "60708.374136960000545"
                    }
                ]
            },
            {
                "account": "0x569006349d364a48c917855a6d4752f1901a49cf",
                "assets": [
                    {
                        "address": "0xeeeeeeeeeeeeeeeeeeeeeeeeeeeeeeeeeeeeeeee",
                        "amount": "0.00000019999999989",
                        "iconUrl": "https://assets.blocksec.com/image/1663669189317-3.png",
                        "isERC1155": false,
                        "isERC721": false,
                        "sign": true,
                        "value": "0.00077775599961112204003"
                    }
                ]
            },
            {
                "account": "0x102dc1840f0c3c179670f21fa63597e82df34e60",
                "assets": [
                    {
                        "address": "0x102dc1840f0c3c179670f21fa63597e82df34e60",
                        "amount": "86,463.059848656424290121",
                        "iconUrl": "",
                        "isERC1155": false,
                        "isERC721": false,
                        "sign": true,
                        "value": "10098.88539048000009"
                    }
                ]
            },
            {
                "account": "0xd3ee4d3fe5f7ed75c017b02cf78fae39a31034d9",
                "assets": [
                    {
                        "address": "0xeeeeeeeeeeeeeeeeeeeeeeeeeeeeeeeeeeeeeeee",
                        "amount": "0.000000000000000109",
                        "iconUrl": "https://assets.blocksec.com/image/1663669189317-3.png",
                        "isERC1155": false,
                        "isERC721": false,
                        "sign": true,
                        "value": "0.0000000000004238770200000000218"
                    }
                ]
            },
            {
                "account": "0xd3f64baa732061f8b3626ee44bab354f854877ac",
                "assets": [
                    {
                        "address": "0xeeeeeeeeeeeeeeeeeeeeeeeeeeeeeeeeeeeeeeee",
                        "amount": "0.000000000000000001",
                        "iconUrl": "https://assets.blocksec.com/image/1663669189317-3.png",
                        "isERC1155": false,
                        "isERC721": false,
                        "sign": true,
                        "value": "0.0000000000000038887800000000002"
                    }
                ]
            },
            {
                "account": "0xfcb72658cbd16f4a89c74a60868dc7cfe35ce123",
                "assets": [
                    {
                        "address": "0x102dc1840f0c3c179670f21fa63597e82df34e60",
                        "amount": "606,226.537063322869694109",
                        "iconUrl": "",
                        "isERC1155": false,
                        "isERC721": false,
                        "sign": false,
                        "value": "70807.25953328000063"
                    }
                ]
            }
        ]
    },
    "profile": {
        "basic_info": {
            "baseFee": "53.572392152",
            "blockNumber": 19393339,
            "callData": "0x60806040526000604051610012906100e1565b604051809103906000f08015801561002e573d6000803e3d6000fd5b509050806001600160a01b031663aaf05f3d600a6040518263ffffffff1660e01b81526004016000604051808303818588803b15801561006d57600080fd5b505af1158015610081573d6000803e3d6000fd5b5050505050806001600160a01b031663c3f9020260646040518263ffffffff1660e01b81526004016000604051808303818588803b1580156100c257600080fd5b505af11580156100d6573d6000803e3d6000fd5b5050505050506100ee565b6106e18061013b83390190565b603f806100fc6000396000f3fe6080604052600080fdfea2646970667358221220c0f96cb43b1ea3e087342bbe318d80c76077add2d47d7c81ea52eb3bd886669164736f6c634300081800336080604052600080546001600160a01b03191673d3f64baa732061f8b3626ee44bab354f854877ac17905534801561003657600080fd5b5061069b806100466000396000f3fe6080604052600436106100295760003560e01c8063aaf05f3d1461002e578063c3f9020214610038575b600080fd5b610036610040565b005b610036610078565b73102dc1840f0c3c179670f21fa63597e82df34e6073687d124ec49fb0aa0cb08de4438abf171f3c53b56100748183610110565b5050565b73fcb72658cbd16f4a89c74a60868dc7cfe35ce12373a23846f4e81f7b5846523c1807eb4d0ca892045c73728dbac1d2a20acc87edd23ff435931e6c4c1f3773daa91e8103b219ba85ab202d3c94bcefe354f67073102dc1840f0c3c179670f21fa63597e82df34e606100eb8582610110565b6100f58482610110565b6100ff8382610110565b6101098282610110565b5050505050565b6040516370a0823160e01b81526001600160a01b038381166004830152600091908316906370a0823190602401602060405180830381865afa15801561015a573d6000803e3d6000fd5b505050506040513d601f19601f8201168201806040525081019061017e919061049a565b600080546040516001600160a01b0380881660248301529091166044820152606481018390529192509060840160408051808303601f19018152918152602080830180516323b872dd60e01b6001600160e01b0390911617905281516101208101835230815260008183018190526001600160a01b0388168285018190526001606080850182905260808501849052670297963e6c9965e060a086015286518088018852600a815269554e495a454e2d434c4960b01b8188015260c0860152601160e08601526107536101008601528651908101875291825293810182905280850186905284518481528086019095529495509093929091816020015b6040805160608082018352600080835260208301529181019190915281526020019060019003908161027b57905050905081816000815181106102c0576102c06104b3565b60200260200101819052506000630f794d0160e11b84836040516024016102e892919061059a565b60408051601f198184030181529181526020820180516001600160e01b03166001600160e01b03199094169390931790925260005491519092506001600160a01b039091169060019061033c908490610649565b60006040518083038185875af1925050503d8060008114610379576040519150601f19603f3d011682016040523d82523d6000602084013e61037e565b606091505b50506040516370a0823160e01b8152306004820152600091506001600160a01b038916906370a0823190602401602060405180830381865afa1580156103c8573d6000803e3d6000fd5b505050506040513d601f19601f820116820180604052508101906103ec919061049a565b6040513260248201526044810182905290915060009060640160408051601f198184030181529181526020820180516001600160e01b031663a9059cbb60e01b179052519091506001600160a01b038a1690610449908390610649565b6000604051808303816000865af19150503d8060008114610486576040519150601f19603f3d011682016040523d82523d6000602084013e61048b565b606091505b50505050505050505050505050565b6000602082840312156104ac57600080fd5b5051919050565b634e487b7160e01b600052603260045260246000fd5b60005b838110156104e45781810151838201526020016104cc565b50506000910152565b600081518084526105058160208601602086016104c9565b601f01601f19169290920160200192915050565b600082825180855260208086019550808260051b84010181860160005b8481101561058d57858303601f19018952815180516001600160a01b031684528481015185850152604090810151606091850182905290610579818601836104ed565b9a86019a9450505090830190600101610536565b5090979650505050505050565b604081526105b46040820184516001600160a01b03169052565b60208301516060820152600060408401516105da60808401826001600160a01b03169052565b50606084015160a0830152608084015160c083015260a084015160e083015260c084015161012061010081818601526106176101608601846104ed565b925060e08701518286015280870151610140860152505082810360208401526106408185610519565b95945050505050565b6000825161065b8184602087016104c9565b919091019291505056fea264697066735822122003b6ad04af5394af91758494c2d88e272fcbbda89cf1eec0567d50bc704a0b8d64736f6c63430008180033",
            "debugEnable": true,
            "errorInfo": "",
            "eventCount": 8,
            "feeRecipient": "0xdafea492d9c6733ae3d56b7ed1adb60692c98bc5",
            "formatValue": "0.0000002",
            "gasLimit": 1000000,
            "gasPrice": "58.353262944",
            "gasUsed": 772829,
            "intTxnCount": 40,
            "internalRevert": true,
            "internalRevertMessage": "Call-Failed",
            "isContractCreation": true,
            "isFlashloan": false,
            "maxFee": "58.353262944",
            "nonce": 5,
            "overwritedBlockNumber": -1,
            "priorityFee": "58.353262944",
            "receiver": "0x569006349d364a48c917855a6d4752f1901a49cf",
            "revertMessage": "",
            "sender": "0x4e2ce48f0b5d97bfd4be3f6c7b6479db1aa5b365",
            "simulationEnable": true,
            "sourceTxnHash": "0x68c900fb23f766ee989b73c9845cc1d98ceadbd36f586e2db47d5acfe60857e2",
            "status": true,
            "timestamp": "2024-03-08T22:18:47Z",
            "transactionFee": "0.045097093847748576",
            "txnHash": "0x68c900fb23f766ee989b73c9845cc1d98ceadbd36f586e2db47d5acfe60857e2",
            "txnIndex": 3,
            "type": 2,
            "value": "200000000000"
        },
        "fund_flow": [
            {
                "amount": "0.0000002",
                "from": "0x4e2ce48f0b5d97bfd4be3f6c7b6479db1aa5b365",
                "id": 1,
                "isERC1155": false,
                "isERC721": false,
                "isReverted": false,
                "order": 1,
                "to": "0x569006349d364a48c917855a6d4752f1901a49cf",
                "token": "0xeeeeeeeeeeeeeeeeeeeeeeeeeeeeeeeeeeeeeeee"
            },
            {
                "amount": "0.00000000000000011",
                "from": "0x569006349d364a48c917855a6d4752f1901a49cf",
                "id": 2,
                "isERC1155": false,
                "isERC721": false,
                "isReverted": false,
                "order": 2,
                "to": "0xd3ee4d3fe5f7ed75c017b02cf78fae39a31034d9",
                "token": "0xeeeeeeeeeeeeeeeeeeeeeeeeeeeeeeeeeeeeeeee"
            },
            {
                "amount": "0.000000000000000001",
                "from": "0xd3ee4d3fe5f7ed75c017b02cf78fae39a31034d9",
                "id": 4,
                "isERC1155": false,
                "isERC721": false,
                "isReverted": false,
                "order": 3,
                "to": "0xd3f64baa732061f8b3626ee44bab354f854877ac",
                "token": "0xeeeeeeeeeeeeeeeeeeeeeeeeeeeeeeeeeeeeeeee"
            },
            {
                "amount": "30,311.326853166143484705",
                "from": "0xfcb72658cbd16f4a89c74a60868dc7cfe35ce123",
                "id": 5,
                "isERC1155": false,
                "isERC721": false,
                "isReverted": false,
                "order": 4,
                "to": "0x102dc1840f0c3c179670f21fa63597e82df34e60",
                "token": "0x102dc1840f0c3c179670f21fa63597e82df34e60"
            },
            {
                "amount": "575,915.210210156726209404",
                "from": "0xfcb72658cbd16f4a89c74a60868dc7cfe35ce123",
                "id": 6,
                "isERC1155": false,
                "isERC721": false,
                "isReverted": false,
                "order": 5,
                "to": "0xd3f64baa732061f8b3626ee44bab354f854877ac",
                "token": "0x102dc1840f0c3c179670f21fa63597e82df34e60"
            },
            {
                "amount": "28,795.76051050783631047",
                "from": "0xd3f64baa732061f8b3626ee44bab354f854877ac",
                "id": 7,
                "isERC1155": false,
                "isERC721": false,
                "isReverted": false,
                "order": 6,
                "to": "0x102dc1840f0c3c179670f21fa63597e82df34e60",
                "token": "0x102dc1840f0c3c179670f21fa63597e82df34e60"
            },
            {
                "amount": "547,119.449699648889898934",
                "from": "0xd3f64baa732061f8b3626ee44bab354f854877ac",
                "id": 8,
                "isERC1155": false,
                "isERC721": false,
                "isReverted": false,
                "order": 7,
                "to": "0xd3ee4d3fe5f7ed75c017b02cf78fae39a31034d9",
                "token": "0x102dc1840f0c3c179670f21fa63597e82df34e60"
            },
            {
                "amount": "27,355.972484982444494946",
                "from": "0xd3ee4d3fe5f7ed75c017b02cf78fae39a31034d9",
                "id": 9,
                "isERC1155": false,
                "isERC721": false,
                "isReverted": false,
                "order": 8,
                "to": "0x102dc1840f0c3c179670f21fa63597e82df34e60",
                "token": "0x102dc1840f0c3c179670f21fa63597e82df34e60"
            },
            {
                "amount": "519,763.477214666445403988",
                "from": "0xd3ee4d3fe5f7ed75c017b02cf78fae39a31034d9",
                "id": 10,
                "isERC1155": false,
                "isERC721": false,
                "isReverted": false,
                "order": 9,
                "to": "0x4e2ce48f0b5d97bfd4be3f6c7b6479db1aa5b365",
                "token": "0x102dc1840f0c3c179670f21fa63597e82df34e60"
            }
        ],
        "token_infos": [
            {
                "address": "0x102dc1840f0c3c179670f21fa63597e82df34e60",
                "decimals": 18
            },
            {
                "address": "0xc02aaa39b223fe8d0a0e5c4f27ead9083c756cc2",
                "decimals": 18
            },
            {
                "address": "0xeeeeeeeeeeeeeeeeeeeeeeeeeeeeeeeeeeeeeeee",
                "decimals": 18
            }
        ]
    },
    "address_label": {
        "labels": [
            {
                "address": "0x102dc1840f0c3c179670f21fa63597e82df34e60",
                "label": "VirtuCloud: VIRTU Token"
            },
            {
                "address": "0xd3f64baa732061f8b3626ee44bab354f854877ac",
                "label": "TransparentUpgradeableProxy_d3f6_77ac"
            },
            {
                "address": "0x4e2ce48f0b5d97bfd4be3f6c7b6479db1aa5b365",
                "label": "Unizen_io Exploiter 3"
            },
            {
                "address": "0x0000000000000000000000000000000000000001",
                "label": "Precompiled"
            },
            {
                "address": "0x0000000000000000000000000000000000000002",
                "label": "Precompiled"
            },
            {
                "address": "0x0000000000000000000000000000000000000003",
                "label": "Precompiled"
            },
            {
                "address": "0x0000000000000000000000000000000000000004",
                "label": "Precompiled"
            },
            {
                "address": "0xeeeeeeeeeeeeeeeeeeeeeeeeeeeeeeeeeeeeeeee",
                "label": "Ether"
            }
        ]
    },
    "trace": {
        "accountLabels": null,
        "dataMap": {
            "-1": {
                "invocation": {
                    "address": "0x4e2ce48f0b5d97bfd4be3f6c7b6479db1aa5b365",
                    "callData": "",
                    "decodedMethod": null,
                    "errorInfo": "",
                    "fromAddress": "",
                    "gasUsed": 0,
                    "id": -1,
                    "methodDecoded": false,
                    "operation": "",
                    "output": "",
                    "revert": false,
                    "revertMessage": "",
                    "selector": "",
                    "status": false,
                    "value": ""
                },
                "nodeType": 0
            },
            "0": {
                "invocation": {
                    "address": "0x569006349d364a48c917855a6d4752f1901a49cf",
                    "callData": "0x60806040526000604051610012906100e1565b604051809103906000f08015801561002e573d6000803e3d6000fd5b509050806001600160a01b031663aaf05f3d600a6040518263ffffffff1660e01b81526004016000604051808303818588803b15801561006d57600080fd5b505af1158015610081573d6000803e3d6000fd5b5050505050806001600160a01b031663c3f9020260646040518263ffffffff1660e01b81526004016000604051808303818588803b1580156100c257600080fd5b505af11580156100d6573d6000803e3d6000fd5b5050505050506100ee565b6106e18061013b83390190565b603f806100fc6000396000f3fe6080604052600080fdfea2646970667358221220c0f96cb43b1ea3e087342bbe318d80c76077add2d47d7c81ea52eb3bd886669164736f6c634300081800336080604052600080546001600160a01b03191673d3f64baa732061f8b3626ee44bab354f854877ac17905534801561003657600080fd5b5061069b806100466000396000f3fe6080604052600436106100295760003560e01c8063aaf05f3d1461002e578063c3f9020214610038575b600080fd5b610036610040565b005b610036610078565b73102dc1840f0c3c179670f21fa63597e82df34e6073687d124ec49fb0aa0cb08de4438abf171f3c53b56100748183610110565b5050565b73fcb72658cbd16f4a89c74a60868dc7cfe35ce12373a23846f4e81f7b5846523c1807eb4d0ca892045c73728dbac1d2a20acc87edd23ff435931e6c4c1f3773daa91e8103b219ba85ab202d3c94bcefe354f67073102dc1840f0c3c179670f21fa63597e82df34e606100eb8582610110565b6100f58482610110565b6100ff8382610110565b6101098282610110565b5050505050565b6040516370a0823160e01b81526001600160a01b038381166004830152600091908316906370a0823190602401602060405180830381865afa15801561015a573d6000803e3d6000fd5b505050506040513d601f19601f8201168201806040525081019061017e919061049a565b600080546040516001600160a01b0380881660248301529091166044820152606481018390529192509060840160408051808303601f19018152918152602080830180516323b872dd60e01b6001600160e01b0390911617905281516101208101835230815260008183018190526001600160a01b0388168285018190526001606080850182905260808501849052670297963e6c9965e060a086015286518088018852600a815269554e495a454e2d434c4960b01b8188015260c0860152601160e08601526107536101008601528651908101875291825293810182905280850186905284518481528086019095529495509093929091816020015b6040805160608082018352600080835260208301529181019190915281526020019060019003908161027b57905050905081816000815181106102c0576102c06104b3565b60200260200101819052506000630f794d0160e11b84836040516024016102e892919061059a565b60408051601f198184030181529181526020820180516001600160e01b03166001600160e01b03199094169390931790925260005491519092506001600160a01b039091169060019061033c908490610649565b60006040518083038185875af1925050503d8060008114610379576040519150601f19603f3d011682016040523d82523d6000602084013e61037e565b606091505b50506040516370a0823160e01b8152306004820152600091506001600160a01b038916906370a0823190602401602060405180830381865afa1580156103c8573d6000803e3d6000fd5b505050506040513d601f19601f820116820180604052508101906103ec919061049a565b6040513260248201526044810182905290915060009060640160408051601f198184030181529181526020820180516001600160e01b031663a9059cbb60e01b179052519091506001600160a01b038a1690610449908390610649565b6000604051808303816000865af19150503d8060008114610486576040519150601f19603f3d011682016040523d82523d6000602084013e61048b565b606091505b50505050505050505050505050565b6000602082840312156104ac57600080fd5b5051919050565b634e487b7160e01b600052603260045260246000fd5b60005b838110156104e45781810151838201526020016104cc565b50506000910152565b600081518084526105058160208601602086016104c9565b601f01601f19169290920160200192915050565b600082825180855260208086019550808260051b84010181860160005b8481101561058d57858303601f19018952815180516001600160a01b031684528481015185850152604090810151606091850182905290610579818601836104ed565b9a86019a9450505090830190600101610536565b5090979650505050505050565b604081526105b46040820184516001600160a01b03169052565b60208301516060820152600060408401516105da60808401826001600160a01b03169052565b50606084015160a0830152608084015160c083015260a084015160e083015260c084015161012061010081818601526106176101608601846104ed565b925060e08701518286015280870151610140860152505082810360208401526106408185610519565b95945050505050565b6000825161065b8184602087016104c9565b919091019291505056fea264697066735822122003b6ad04af5394af91758494c2d88e272fcbbda89cf1eec0567d50bc704a0b8d64736f6c63430008180033",
                    "decodedMethod": null,
                    "errorInfo": "",
                    "fromAddress": "0x4e2ce48f0b5d97bfd4be3f6c7b6479db1aa5b365",
                    "gasUsed": 772829,
                    "id": 0,
                    "methodDecoded": false,
                    "operation": "CREATE",
                    "output": "0x6080604052600080fdfea2646970667358221220c0f96cb43b1ea3e087342bbe318d80c76077add2d47d7c81ea52eb3bd886669164736f6c63430008180033",
                    "revert": false,
                    "revertMessage": "",
                    "selector": "",
                    "status": true,
                    "value": "0.0000002"
                },
                "nodeType": 0
            },
            "1": {
                "invocation": {
                    "address": "0xd3ee4d3fe5f7ed75c017b02cf78fae39a31034d9",
                    "callData": "0x6080604052600080546001600160a01b03191673d3f64baa732061f8b3626ee44bab354f854877ac17905534801561003657600080fd5b5061069b806100466000396000f3fe6080604052600436106100295760003560e01c8063aaf05f3d1461002e578063c3f9020214610038575b600080fd5b610036610040565b005b610036610078565b73102dc1840f0c3c179670f21fa63597e82df34e6073687d124ec49fb0aa0cb08de4438abf171f3c53b56100748183610110565b5050565b73fcb72658cbd16f4a89c74a60868dc7cfe35ce12373a23846f4e81f7b5846523c1807eb4d0ca892045c73728dbac1d2a20acc87edd23ff435931e6c4c1f3773daa91e8103b219ba85ab202d3c94bcefe354f67073102dc1840f0c3c179670f21fa63597e82df34e606100eb8582610110565b6100f58482610110565b6100ff8382610110565b6101098282610110565b5050505050565b6040516370a0823160e01b81526001600160a01b038381166004830152600091908316906370a0823190602401602060405180830381865afa15801561015a573d6000803e3d6000fd5b505050506040513d601f19601f8201168201806040525081019061017e919061049a565b600080546040516001600160a01b0380881660248301529091166044820152606481018390529192509060840160408051808303601f19018152918152602080830180516323b872dd60e01b6001600160e01b0390911617905281516101208101835230815260008183018190526001600160a01b0388168285018190526001606080850182905260808501849052670297963e6c9965e060a086015286518088018852600a815269554e495a454e2d434c4960b01b8188015260c0860152601160e08601526107536101008601528651908101875291825293810182905280850186905284518481528086019095529495509093929091816020015b6040805160608082018352600080835260208301529181019190915281526020019060019003908161027b57905050905081816000815181106102c0576102c06104b3565b60200260200101819052506000630f794d0160e11b84836040516024016102e892919061059a565b60408051601f198184030181529181526020820180516001600160e01b03166001600160e01b03199094169390931790925260005491519092506001600160a01b039091169060019061033c908490610649565b60006040518083038185875af1925050503d8060008114610379576040519150601f19603f3d011682016040523d82523d6000602084013e61037e565b606091505b50506040516370a0823160e01b8152306004820152600091506001600160a01b038916906370a0823190602401602060405180830381865afa1580156103c8573d6000803e3d6000fd5b505050506040513d601f19601f820116820180604052508101906103ec919061049a565b6040513260248201526044810182905290915060009060640160408051601f198184030181529181526020820180516001600160e01b031663a9059cbb60e01b179052519091506001600160a01b038a1690610449908390610649565b6000604051808303816000865af19150503d8060008114610486576040519150601f19603f3d011682016040523d82523d6000602084013e61048b565b606091505b50505050505050505050505050565b6000602082840312156104ac57600080fd5b5051919050565b634e487b7160e01b600052603260045260246000fd5b60005b838110156104e45781810151838201526020016104cc565b50506000910152565b600081518084526105058160208601602086016104c9565b601f01601f19169290920160200192915050565b600082825180855260208086019550808260051b84010181860160005b8481101561058d57858303601f19018952815180516001600160a01b031684528481015185850152604090810151606091850182905290610579818601836104ed565b9a86019a9450505090830190600101610536565b5090979650505050505050565b604081526105b46040820184516001600160a01b03169052565b60208301516060820152600060408401516105da60808401826001600160a01b03169052565b50606084015160a0830152608084015160c083015260a084015160e083015260c084015161012061010081818601526106176101608601846104ed565b925060e08701518286015280870151610140860152505082810360208401526106408185610519565b95945050505050565b6000825161065b8184602087016104c9565b919091019291505056fea264697066735822122003b6ad04af5394af91758494c2d88e272fcbbda89cf1eec0567d50bc704a0b8d64736f6c63430008180033",
                    "decodedMethod": null,
                    "errorInfo": "",
                    "fromAddress": "0x569006349d364a48c917855a6d4752f1901a49cf",
                    "gasUsed": 360710,
                    "id": 1,
                    "methodDecoded": false,
                    "operation": "CREATE",
                    "output": "0x6080604052600436106100295760003560e01c8063aaf05f3d1461002e578063c3f9020214610038575b600080fd5b610036610040565b005b610036610078565b73102dc1840f0c3c179670f21fa63597e82df34e6073687d124ec49fb0aa0cb08de4438abf171f3c53b56100748183610110565b5050565b73fcb72658cbd16f4a89c74a60868dc7cfe35ce12373a23846f4e81f7b5846523c1807eb4d0ca892045c73728dbac1d2a20acc87edd23ff435931e6c4c1f3773daa91e8103b219ba85ab202d3c94bcefe354f67073102dc1840f0c3c179670f21fa63597e82df34e606100eb8582610110565b6100f58482610110565b6100ff8382610110565b6101098282610110565b5050505050565b6040516370a0823160e01b81526001600160a01b038381166004830152600091908316906370a0823190602401602060405180830381865afa15801561015a573d6000803e3d6000fd5b505050506040513d601f19601f8201168201806040525081019061017e919061049a565b600080546040516001600160a01b0380881660248301529091166044820152606481018390529192509060840160408051808303601f19018152918152602080830180516323b872dd60e01b6001600160e01b0390911617905281516101208101835230815260008183018190526001600160a01b0388168285018190526001606080850182905260808501849052670297963e6c9965e060a086015286518088018852600a815269554e495a454e2d434c4960b01b8188015260c0860152601160e08601526107536101008601528651908101875291825293810182905280850186905284518481528086019095529495509093929091816020015b6040805160608082018352600080835260208301529181019190915281526020019060019003908161027b57905050905081816000815181106102c0576102c06104b3565b60200260200101819052506000630f794d0160e11b84836040516024016102e892919061059a565b60408051601f198184030181529181526020820180516001600160e01b03166001600160e01b03199094169390931790925260005491519092506001600160a01b039091169060019061033c908490610649565b60006040518083038185875af1925050503d8060008114610379576040519150601f19603f3d011682016040523d82523d6000602084013e61037e565b606091505b50506040516370a0823160e01b8152306004820152600091506001600160a01b038916906370a0823190602401602060405180830381865afa1580156103c8573d6000803e3d6000fd5b505050506040513d601f19601f820116820180604052508101906103ec919061049a565b6040513260248201526044810182905290915060009060640160408051601f198184030181529181526020820180516001600160e01b031663a9059cbb60e01b179052519091506001600160a01b038a1690610449908390610649565b6000604051808303816000865af19150503d8060008114610486576040519150601f19603f3d011682016040523d82523d6000602084013e61048b565b606091505b50505050505050505050505050565b6000602082840312156104ac57600080fd5b5051919050565b634e487b7160e01b600052603260045260246000fd5b60005b838110156104e45781810151838201526020016104cc565b50506000910152565b600081518084526105058160208601602086016104c9565b601f01601f19169290920160200192915050565b600082825180855260208086019550808260051b84010181860160005b8481101561058d57858303601f19018952815180516001600160a01b031684528481015185850152604090810151606091850182905290610579818601836104ed565b9a86019a9450505090830190600101610536565b5090979650505050505050565b604081526105b46040820184516001600160a01b03169052565b60208301516060820152600060408401516105da60808401826001600160a01b03169052565b50606084015160a0830152608084015160c083015260a084015160e083015260c084015161012061010081818601526106176101608601846104ed565b925060e08701518286015280870151610140860152505082810360208401526106408185610519565b95945050505050565b6000825161065b8184602087016104c9565b919091019291505056fea264697066735822122003b6ad04af5394af91758494c2d88e272fcbbda89cf1eec0567d50bc704a0b8d64736f6c63430008180033",
                    "revert": false,
                    "revertMessage": "",
                    "selector": "",
                    "status": true,
                    "value": "0"
                },
                "nodeType": 0
            },
            "10": {
                "invocation": {
                    "address": "0xd3ee4d3fe5f7ed75c017b02cf78fae39a31034d9",
                    "callData": "0x",
                    "decodedMethod": null,
                    "errorInfo": "",
                    "fromAddress": "0x569006349d364a48c917855a6d4752f1901a49cf",
                    "gasUsed": 263411,
                    "id": 10,
                    "methodDecoded": false,
                    "operation": "CALL",
                    "output": "",
                    "revert": false,
                    "revertMessage": "",
                    "selector": "0xc3f90202",
                    "status": true,
                    "value": "0.0000000000000001"
                },
                "nodeType": 0
            },
            "11": {
                "invocation": {
                    "address": "0x102dc1840f0c3c179670f21fa63597e82df34e60",
                    "callData": "0x000000000000000000000000fcb72658cbd16f4a89c74a60868dc7cfe35ce123",
                    "decodedMethod": {
                        "callParams": [
                            {
                                "name": "account",
                                "type": "address",
                                "value": "0xfcb72658cbd16f4a89c74a60868dc7cfe35ce123"
                            }
                        ],
                        "constructorArguments": "",
                        "name": "balanceOf",
                        "returnParams": [
                            {
                                "decimalAvailable": true,
                                "name": "",
                                "type": "uint256",
                                "value": "606,226,537,063,322,869,694,109"
                            }
                        ],
                        "signature": "balanceOf(address)"
                    },
                    "errorInfo": "",
                    "fromAddress": "0xd3ee4d3fe5f7ed75c017b02cf78fae39a31034d9",
                    "gasUsed": 2852,
                    "id": 11,
                    "methodDecoded": true,
                    "operation": "STATICCALL",
                    "output": "0x00000000000000000000000000000000000000000000805f9b3ead3dea91fe9d",
                    "revert": false,
                    "revertMessage": "",
                    "selector": "0x70a08231",
                    "status": true,
                    "value": "0"
                },
                "nodeType": 0
            },
            "12": {
                "invocation": {
                    "address": "0xd3f64baa732061f8b3626ee44bab354f854877ac",
                    "callData": "0x000000000000000000000000000000000000000000000000000000000000004000000000000000000000000000000000000000000000000000000000000001a0000000000000000000000000d3ee4d3fe5f7ed75c017b02cf78fae39a31034d90000000000000000000000000000000000000000000000000000000000000000000000000000000000000000102dc1840f0c3c179670f21fa63597e82df34e60000000000000000000000000000000000000000000000000000000000000000100000000000000000000000000000000000000000000000000000000000000000000000000000000000000000000000000000000000000000297963e6c9965e0000000000000000000000000000000000000000000000000000000000000012000000000000000000000000000000000000000000000000000000000000000110000000000000000000000000000000000000000000000000000000000000753000000000000000000000000000000000000000000000000000000000000000a554e495a454e2d434c490000000000000000000000000000000000000000000000000000000000000000000000000000000000000000000000000000000000010000000000000000000000000000000000000000000000000000000000000020000000000000000000000000102dc1840f0c3c179670f21fa63597e82df34e6000000000000000000000000000000000000000000000000000000000000000000000000000000000000000000000000000000000000000000000000000000060000000000000000000000000000000000000000000000000000000000000006423b872dd000000000000000000000000fcb72658cbd16f4a89c74a60868dc7cfe35ce123000000000000000000000000d3f64baa732061f8b3626ee44bab354f854877ac00000000000000000000000000000000000000000000805f9b3ead3dea91fe9d00000000000000000000000000000000000000000000000000000000",
                    "decodedMethod": null,
                    "errorInfo": "",
                    "fromAddress": "0xd3ee4d3fe5f7ed75c017b02cf78fae39a31034d9",
                    "gasUsed": 121689,
                    "id": 12,
                    "methodDecoded": false,
                    "operation": "CALL",
                    "output": "",
                    "revert": false,
                    "revertMessage": "",
                    "selector": "0x1ef29a02",
                    "status": true,
                    "value": "0.000000000000000001"
                },
                "nodeType": 0
            },
            "13": {
                "invocation": {
                    "address": "0xa051fc7d38baa0ace811ad9de4e9f7024e5d8a30",
                    "callData": "0x000000000000000000000000000000000000000000000000000000000000004000000000000000000000000000000000000000000000000000000000000001a0000000000000000000000000d3ee4d3fe5f7ed75c017b02cf78fae39a31034d90000000000000000000000000000000000000000000000000000000000000000000000000000000000000000102dc1840f0c3c179670f21fa63597e82df34e60000000000000000000000000000000000000000000000000000000000000000100000000000000000000000000000000000000000000000000000000000000000000000000000000000000000000000000000000000000000297963e6c9965e0000000000000000000000000000000000000000000000000000000000000012000000000000000000000000000000000000000000000000000000000000000110000000000000000000000000000000000000000000000000000000000000753000000000000000000000000000000000000000000000000000000000000000a554e495a454e2d434c490000000000000000000000000000000000000000000000000000000000000000000000000000000000000000000000000000000000010000000000000000000000000000000000000000000000000000000000000020000000000000000000000000102dc1840f0c3c179670f21fa63597e82df34e6000000000000000000000000000000000000000000000000000000000000000000000000000000000000000000000000000000000000000000000000000000060000000000000000000000000000000000000000000000000000000000000006423b872dd000000000000000000000000fcb72658cbd16f4a89c74a60868dc7cfe35ce123000000000000000000000000d3f64baa732061f8b3626ee44bab354f854877ac00000000000000000000000000000000000000000000805f9b3ead3dea91fe9d00000000000000000000000000000000000000000000000000000000",
                    "decodedMethod": null,
                    "errorInfo": "",
                    "fromAddress": "0xd3f64baa732061f8b3626ee44bab354f854877ac",
                    "gasUsed": 114231,
                    "id": 13,
                    "methodDecoded": false,
                    "operation": "DELEGATECALL",
                    "output": "",
                    "revert": false,
                    "revertMessage": "",
                    "selector": "0x1ef29a02",
                    "status": true,
                    "value": "0.000000000000000001"
                },
                "nodeType": 0
            },
            "14": {
                "invocation": {
                    "address": "0x102dc1840f0c3c179670f21fa63597e82df34e60",
                    "callData": "0x000000000000000000000000d3f64baa732061f8b3626ee44bab354f854877ac",
                    "decodedMethod": {
                        "callParams": [
                            {
                                "name": "account",
                                "type": "address",
                                "value": "0xd3f64baa732061f8b3626ee44bab354f854877ac"
                            }
                        ],
                        "constructorArguments": "",
                        "name": "balanceOf",
                        "returnParams": [
                            {
                                "decimalAvailable": true,
                                "name": "",
                                "type": "uint256",
                                "value": "0"
                            }
                        ],
                        "signature": "balanceOf(address)"
                    },
                    "errorInfo": "",
                    "fromAddress": "0xd3f64baa732061f8b3626ee44bab354f854877ac",
                    "gasUsed": 2852,
                    "id": 14,
                    "methodDecoded": true,
                    "operation": "STATICCALL",
                    "output": "0x0000000000000000000000000000000000000000000000000000000000000000",
                    "revert": false,
                    "revertMessage": "",
                    "selector": "0x70a08231",
                    "status": true,
                    "value": "0"
                },
                "nodeType": 0
            },
            "15": {
                "invocation": {
                    "address": "0x102dc1840f0c3c179670f21fa63597e82df34e60",
                    "callData": "0x000000000000000000000000fcb72658cbd16f4a89c74a60868dc7cfe35ce123000000000000000000000000d3f64baa732061f8b3626ee44bab354f854877ac00000000000000000000000000000000000000000000805f9b3ead3dea91fe9d",
                    "decodedMethod": {
                        "callParams": [
                            {
                                "name": "sender",
                                "type": "address",
                                "value": "0xfcb72658cbd16f4a89c74a60868dc7cfe35ce123"
                            },
                            {
                                "name": "recipient",
                                "type": "address",
                                "value": "0xd3f64baa732061f8b3626ee44bab354f854877ac"
                            },
                            {
                                "decimalAvailable": true,
                                "name": "amount",
                                "type": "uint256",
                                "value": "606,226,537,063,322,869,694,109"
                            }
                        ],
                        "constructorArguments": "",
                        "name": "transferFrom",
                        "returnParams": [
                            {
                                "name": "",
                                "type": "bool",
                                "value": true
                            }
                        ],
                        "signature": "transferFrom(address,address,uint256)"
                    },
                    "errorInfo": "",
                    "fromAddress": "0xd3f64baa732061f8b3626ee44bab354f854877ac",
                    "gasUsed": 57085,
                    "id": 15,
                    "methodDecoded": true,
                    "operation": "CALL",
                    "output": "0x0000000000000000000000000000000000000000000000000000000000000001",
                    "revert": false,
                    "revertMessage": "",
                    "selector": "0x23b872dd",
                    "status": true,
                    "value": "0"
                },
                "nodeType": 0
            },
            "16": {
                "event": {
                    "contract": "0x102dc1840f0c3c179670f21fa63597e82df34e60",
                    "decodedLog": {
                        "name": "Transfer",
                        "params": [
                            {
                                "name": "from",
                                "type": "address",
                                "value": "0xfcb72658cbd16f4a89c74a60868dc7cfe35ce123"
                            },
                            {
                                "name": "to",
                                "type": "address",
                                "value": "0x102dc1840f0c3c179670f21fa63597e82df34e60"
                            },
                            {
                                "decimalAvailable": true,
                                "name": "value",
                                "type": "uint256",
                                "value": "30,311,326,853,166,143,484,705"
                            }
                        ],
                        "signature": "Transfer(address,address,uint256)"
                    },
                    "id": 16,
                    "logData": "0x00000000000000000000000000000000000000000000066b2e2988a97eedb321",
                    "logDecoded": true,
                    "operation": "EVENT",
                    "revert": false,
                    "status": true,
                    "topics": [
                        "0xddf252ad1be2c89b69c2b068fc378daa952ba7f163c4a11628f55a4df523b3ef",
                        "0x000000000000000000000000fcb72658cbd16f4a89c74a60868dc7cfe35ce123",
                        "0x000000000000000000000000102dc1840f0c3c179670f21fa63597e82df34e60"
                    ]
                },
                "nodeType": 1
            },
            "17": {
                "event": {
                    "contract": "0x102dc1840f0c3c179670f21fa63597e82df34e60",
                    "decodedLog": {
                        "name": "Transfer",
                        "params": [
                            {
                                "name": "from",
                                "type": "address",
                                "value": "0xfcb72658cbd16f4a89c74a60868dc7cfe35ce123"
                            },
                            {
                                "name": "to",
                                "type": "address",
                                "value": "0xd3f64baa732061f8b3626ee44bab354f854877ac"
                            },
                            {
                                "decimalAvailable": true,
                                "name": "value",
                                "type": "uint256",
                                "value": "575,915,210,210,156,726,209,404"
                            }
                        ],
                        "signature": "Transfer(address,address,uint256)"
                    },
                    "id": 17,
                    "logData": "0x0000000000000000000000000000000000000000000079f46d1524946ba44b7c",
                    "logDecoded": true,
                    "operation": "EVENT",
                    "revert": false,
                    "status": true,
                    "topics": [
                        "0xddf252ad1be2c89b69c2b068fc378daa952ba7f163c4a11628f55a4df523b3ef",
                        "0x000000000000000000000000fcb72658cbd16f4a89c74a60868dc7cfe35ce123",
                        "0x000000000000000000000000d3f64baa732061f8b3626ee44bab354f854877ac"
                    ]
                },
                "nodeType": 1
            },
            "18": {
                "event": {
                    "contract": "0x102dc1840f0c3c179670f21fa63597e82df34e60",
                    "decodedLog": {
                        "name": "Approval",
                        "params": [
                            {
                                "name": "owner",
                                "type": "address",
                                "value": "0xfcb72658cbd16f4a89c74a60868dc7cfe35ce123"
                            },
                            {
                                "name": "spender",
                                "type": "address",
                                "value": "0xd3f64baa732061f8b3626ee44bab354f854877ac"
                            },
                            {
                                "decimalAvailable": true,
                                "name": "value",
                                "type": "uint256",
                                "value": "205,000,000,000,000,000,000,000"
                            }
                        ],
                        "signature": "Approval(address,address,uint256)"
                    },
                    "id": 18,
                    "logData": "0x000000000000000000000000000000000000000000002b691280277346200000",
                    "logDecoded": true,
                    "operation": "EVENT",
                    "revert": false,
                    "status": true,
                    "topics": [
                        "0x8c5be1e5ebec7d5bd14f71427d1e84f3dd0314c0f7b2291e5b200ac8c7c3b925",
                        "0x000000000000000000000000fcb72658cbd16f4a89c74a60868dc7cfe35ce123",
                        "0x000000000000000000000000d3f64baa732061f8b3626ee44bab354f854877ac"
                    ]
                },
                "nodeType": 1
            },
            "19": {
                "invocation": {
                    "address": "0x102dc1840f0c3c179670f21fa63597e82df34e60",
                    "callData": "0x000000000000000000000000d3f64baa732061f8b3626ee44bab354f854877ac",
                    "decodedMethod": {
                        "callParams": [
                            {
                                "name": "account",
                                "type": "address",
                                "value": "0xd3f64baa732061f8b3626ee44bab354f854877ac"
                            }
                        ],
                        "constructorArguments": "",
                        "name": "balanceOf",
                        "returnParams": [
                            {
                                "decimalAvailable": true,
                                "name": "",
                                "type": "uint256",
                                "value": "575,915,210,210,156,726,209,404"
                            }
                        ],
                        "signature": "balanceOf(address)"
                    },
                    "errorInfo": "",
                    "fromAddress": "0xd3f64baa732061f8b3626ee44bab354f854877ac",
                    "gasUsed": 852,
                    "id": 19,
                    "methodDecoded": true,
                    "operation": "STATICCALL",
                    "output": "0x0000000000000000000000000000000000000000000079f46d1524946ba44b7c",
                    "revert": false,
                    "revertMessage": "",
                    "selector": "0x70a08231",
                    "status": true,
                    "value": "0"
                },
                "nodeType": 0
            },
            "2": {
                "invocation": {
                    "address": "0xd3ee4d3fe5f7ed75c017b02cf78fae39a31034d9",
                    "callData": "0x",
                    "decodedMethod": null,
                    "errorInfo": "",
                    "fromAddress": "0x569006349d364a48c917855a6d4752f1901a49cf",
                    "gasUsed": 51409,
                    "id": 2,
                    "methodDecoded": false,
                    "operation": "CALL",
                    "output": "",
                    "revert": false,
                    "revertMessage": "",
                    "selector": "0xaaf05f3d",
                    "status": true,
                    "value": "0.00000000000000001"
                },
                "nodeType": 0
            },
            "20": {
                "invocation": {
                    "address": "0x102dc1840f0c3c179670f21fa63597e82df34e60",
                    "callData": "0x000000000000000000000000d3ee4d3fe5f7ed75c017b02cf78fae39a31034d90000000000000000000000000000000000000000000079f46d1524946ba44b7c",
                    "decodedMethod": {
                        "callParams": [
                            {
                                "name": "recipient",
                                "type": "address",
                                "value": "0xd3ee4d3fe5f7ed75c017b02cf78fae39a31034d9"
                            },
                            {
                                "decimalAvailable": true,
                                "name": "amount",
                                "type": "uint256",
                                "value": "575,915,210,210,156,726,209,404"
                            }
                        ],
                        "constructorArguments": "",
                        "name": "transfer",
                        "returnParams": [
                            {
                                "name": "",
                                "type": "bool",
                                "value": true
                            }
                        ],
                        "signature": "transfer(address,uint256)"
                    },
                    "errorInfo": "",
                    "fromAddress": "0xd3f64baa732061f8b3626ee44bab354f854877ac",
                    "gasUsed": 33449,
                    "id": 20,
                    "methodDecoded": true,
                    "operation": "CALL",
                    "output": "0x0000000000000000000000000000000000000000000000000000000000000001",
                    "revert": false,
                    "revertMessage": "",
                    "selector": "0xa9059cbb",
                    "status": true,
                    "value": "0"
                },
                "nodeType": 0
            },
            "21": {
                "event": {
                    "contract": "0x102dc1840f0c3c179670f21fa63597e82df34e60",
                    "decodedLog": {
                        "name": "Transfer",
                        "params": [
                            {
                                "name": "from",
                                "type": "address",
                                "value": "0xd3f64baa732061f8b3626ee44bab354f854877ac"
                            },
                            {
                                "name": "to",
                                "type": "address",
                                "value": "0x102dc1840f0c3c179670f21fa63597e82df34e60"
                            },
                            {
                                "decimalAvailable": true,
                                "name": "value",
                                "type": "uint256",
                                "value": "28,795,760,510,507,836,310,470"
                            }
                        ],
                        "signature": "Transfer(address,address,uint256)"
                    },
                    "id": 21,
                    "logData": "0x000000000000000000000000000000000000000000000619057441d4389503c6",
                    "logDecoded": true,
                    "operation": "EVENT",
                    "revert": false,
                    "status": true,
                    "topics": [
                        "0xddf252ad1be2c89b69c2b068fc378daa952ba7f163c4a11628f55a4df523b3ef",
                        "0x000000000000000000000000d3f64baa732061f8b3626ee44bab354f854877ac",
                        "0x000000000000000000000000102dc1840f0c3c179670f21fa63597e82df34e60"
                    ]
                },
                "nodeType": 1
            },
            "22": {
                "event": {
                    "contract": "0x102dc1840f0c3c179670f21fa63597e82df34e60",
                    "decodedLog": {
                        "name": "Transfer",
                        "params": [
                            {
                                "name": "from",
                                "type": "address",
                                "value": "0xd3f64baa732061f8b3626ee44bab354f854877ac"
                            },
                            {
                                "name": "to",
                                "type": "address",
                                "value": "0xd3ee4d3fe5f7ed75c017b02cf78fae39a31034d9"
                            },
                            {
                                "decimalAvailable": true,
                                "name": "value",
                                "type": "uint256",
                                "value": "547,119,449,699,648,889,898,934"
                            }
                        ],
                        "signature": "Transfer(address,address,uint256)"
                    },
                    "id": 22,
                    "logData": "0x0000000000000000000000000000000000000000000073db67a0e2c0330f47b6",
                    "logDecoded": true,
                    "operation": "EVENT",
                    "revert": false,
                    "status": true,
                    "topics": [
                        "0xddf252ad1be2c89b69c2b068fc378daa952ba7f163c4a11628f55a4df523b3ef",
                        "0x000000000000000000000000d3f64baa732061f8b3626ee44bab354f854877ac",
                        "0x000000000000000000000000d3ee4d3fe5f7ed75c017b02cf78fae39a31034d9"
                    ]
                },
                "nodeType": 1
            },
            "23": {
                "event": {
                    "contract": "0xd3f64baa732061f8b3626ee44bab354f854877ac",
                    "decodedLog": {
                        "name": "Swapped",
                        "params": [
                            {
                                "name": "amountIn",
                                "type": "uint256",
                                "value": "0"
                            },
                            {
                                "name": "amountOut",
                                "type": "uint256",
                                "value": "575,915,210,210,156,726,209,404"
                            },
                            {
                                "name": "srcToken",
                                "type": "address",
                                "value": "0x0000000000000000000000000000000000000000"
                            },
                            {
                                "name": "dstToken",
                                "type": "address",
                                "value": "0x102dc1840f0c3c179670f21fa63597e82df34e60"
                            },
                            {
                                "name": "receiver",
                                "type": "address",
                                "value": "0xd3ee4d3fe5f7ed75c017b02cf78fae39a31034d9"
                            },
                            {
                                "name": "sender",
                                "type": "address",
                                "value": "0xd3ee4d3fe5f7ed75c017b02cf78fae39a31034d9"
                            },
                            {
                                "name": "apiId",
                                "type": "uint16",
                                "value": "17"
                            }
                        ],
                        "signature": "Swapped(uint256,uint256,address,address,address,address,uint16)"
                    },
                    "id": 23,
                    "logData": "0x00000000000000000000000000000000000000000000000000000000000000000000000000000000000000000000000000000000000079f46d1524946ba44b7c0000000000000000000000000000000000000000000000000000000000000000000000000000000000000000102dc1840f0c3c179670f21fa63597e82df34e60000000000000000000000000d3ee4d3fe5f7ed75c017b02cf78fae39a31034d9000000000000000000000000d3ee4d3fe5f7ed75c017b02cf78fae39a31034d90000000000000000000000000000000000000000000000000000000000000011",
                    "logDecoded": true,
                    "operation": "EVENT",
                    "revert": false,
                    "status": true,
                    "topics": [
                        "0xe3aecd3d46b48cc4869cac1e9bad367d8ebe45dd01d231fe7d442d3f85ca7565"
                    ]
                },
                "nodeType": 1
            },
            "24": {
                "invocation": {
                    "address": "0x102dc1840f0c3c179670f21fa63597e82df34e60",
                    "callData": "0x000000000000000000000000d3ee4d3fe5f7ed75c017b02cf78fae39a31034d9",
                    "decodedMethod": {
                        "callParams": [
                            {
                                "name": "account",
                                "type": "address",
                                "value": "0xd3ee4d3fe5f7ed75c017b02cf78fae39a31034d9"
                            }
                        ],
                        "constructorArguments": "",
                        "name": "balanceOf",
                        "returnParams": [
                            {
                                "decimalAvailable": true,
                                "name": "",
                                "type": "uint256",
                                "value": "547,119,449,699,648,889,898,934"
                            }
                        ],
                        "signature": "balanceOf(address)"
                    },
                    "errorInfo": "",
                    "fromAddress": "0xd3ee4d3fe5f7ed75c017b02cf78fae39a31034d9",
                    "gasUsed": 852,
                    "id": 24,
                    "methodDecoded": true,
                    "operation": "STATICCALL",
                    "output": "0x0000000000000000000000000000000000000000000073db67a0e2c0330f47b6",
                    "revert": false,
                    "revertMessage": "",
                    "selector": "0x70a08231",
                    "status": true,
                    "value": "0"
                },
                "nodeType": 0
            },
            "25": {
                "invocation": {
                    "address": "0x102dc1840f0c3c179670f21fa63597e82df34e60",
                    "callData": "0x0000000000000000000000004e2ce48f0b5d97bfd4be3f6c7b6479db1aa5b3650000000000000000000000000000000000000000000073db67a0e2c0330f47b6",
                    "decodedMethod": {
                        "callParams": [
                            {
                                "name": "recipient",
                                "type": "address",
                                "value": "0x4e2ce48f0b5d97bfd4be3f6c7b6479db1aa5b365"
                            },
                            {
                                "decimalAvailable": true,
                                "name": "amount",
                                "type": "uint256",
                                "value": "547,119,449,699,648,889,898,934"
                            }
                        ],
                        "constructorArguments": "",
                        "name": "transfer",
                        "returnParams": [
                            {
                                "name": "",
                                "type": "bool",
                                "value": true
                            }
                        ],
                        "signature": "transfer(address,uint256)"
                    },
                    "errorInfo": "",
                    "fromAddress": "0xd3ee4d3fe5f7ed75c017b02cf78fae39a31034d9",
                    "gasUsed": 35449,
                    "id": 25,
                    "methodDecoded": true,
                    "operation": "CALL",
                    "output": "0x0000000000000000000000000000000000000000000000000000000000000001",
                    "revert": false,
                    "revertMessage": "",
                    "selector": "0xa9059cbb",
                    "status": true,
                    "value": "0"
                },
                "nodeType": 0
            },
            "26": {
                "event": {
                    "contract": "0x102dc1840f0c3c179670f21fa63597e82df34e60",
                    "decodedLog": {
                        "name": "Transfer",
                        "params": [
                            {
                                "name": "from",
                                "type": "address",
                                "value": "0xd3ee4d3fe5f7ed75c017b02cf78fae39a31034d9"
                            },
                            {
                                "name": "to",
                                "type": "address",
                                "value": "0x102dc1840f0c3c179670f21fa63597e82df34e60"
                            },
                            {
                                "decimalAvailable": true,
                                "name": "value",
                                "type": "uint256",
                                "value": "27,355,972,484,982,444,494,946"
                            }
                        ],
                        "signature": "Transfer(address,address,uint256)"
                    },
                    "id": 26,
                    "logData": "0x0000000000000000000000000000000000000000000005caf861a4f0028d9062",
                    "logDecoded": true,
                    "operation": "EVENT",
                    "revert": false,
                    "status": true,
                    "topics": [
                        "0xddf252ad1be2c89b69c2b068fc378daa952ba7f163c4a11628f55a4df523b3ef",
                        "0x000000000000000000000000d3ee4d3fe5f7ed75c017b02cf78fae39a31034d9",
                        "0x000000000000000000000000102dc1840f0c3c179670f21fa63597e82df34e60"
                    ]
                },
                "nodeType": 1
            },
            "27": {
                "event": {
                    "contract": "0x102dc1840f0c3c179670f21fa63597e82df34e60",
                    "decodedLog": {
                        "name": "Transfer",
                        "params": [
                            {
                                "name": "from",
                                "type": "address",
                                "value": "0xd3ee4d3fe5f7ed75c017b02cf78fae39a31034d9"
                            },
                            {
                                "name": "to",
                                "type": "address",
                                "value": "0x4e2ce48f0b5d97bfd4be3f6c7b6479db1aa5b365"
                            },
                            {
                                "decimalAvailable": true,
                                "name": "value",
                                "type": "uint256",
                                "value": "519,763,477,214,666,445,403,988"
                            }
                        ],
                        "signature": "Transfer(address,address,uint256)"
                    },
                    "id": 27,
                    "logData": "0x000000000000000000000000000000000000000000006e106f3f3dd03081b754",
                    "logDecoded": true,
                    "operation": "EVENT",
                    "revert": false,
                    "status": true,
                    "topics": [
                        "0xddf252ad1be2c89b69c2b068fc378daa952ba7f163c4a11628f55a4df523b3ef",
                        "0x000000000000000000000000d3ee4d3fe5f7ed75c017b02cf78fae39a31034d9",
                        "0x0000000000000000000000004e2ce48f0b5d97bfd4be3f6c7b6479db1aa5b365"
                    ]
                },
                "nodeType": 1
            },
            "28": {
                "invocation": {
                    "address": "0x102dc1840f0c3c179670f21fa63597e82df34e60",
                    "callData": "0x000000000000000000000000a23846f4e81f7b5846523c1807eb4d0ca892045c",
                    "decodedMethod": {
                        "callParams": [
                            {
                                "name": "account",
                                "type": "address",
                                "value": "0xa23846f4e81f7b5846523c1807eb4d0ca892045c"
                            }
                        ],
                        "constructorArguments": "",
                        "name": "balanceOf",
                        "returnParams": [
                            {
                                "decimalAvailable": true,
                                "name": "",
                                "type": "uint256",
                                "value": "0"
                            }
                        ],
                        "signature": "balanceOf(address)"
                    },
                    "errorInfo": "",
                    "fromAddress": "0xd3ee4d3fe5f7ed75c017b02cf78fae39a31034d9",
                    "gasUsed": 2852,
                    "id": 28,
                    "methodDecoded": true,
                    "operation": "STATICCALL",
                    "output": "0x0000000000000000000000000000000000000000000000000000000000000000",
                    "revert": false,
                    "revertMessage": "",
                    "selector": "0x70a08231",
                    "status": true,
                    "value": "0"
                },
                "nodeType": 0
            },
            "29": {
                "invocation": {
                    "address": "0xd3f64baa732061f8b3626ee44bab354f854877ac",
                    "callData": "0x000000000000000000000000000000000000000000000000000000000000004000000000000000000000000000000000000000000000000000000000000001a0000000000000000000000000d3ee4d3fe5f7ed75c017b02cf78fae39a31034d90000000000000000000000000000000000000000000000000000000000000000000000000000000000000000102dc1840f0c3c179670f21fa63597e82df34e60000000000000000000000000000000000000000000000000000000000000000100000000000000000000000000000000000000000000000000000000000000000000000000000000000000000000000000000000000000000297963e6c9965e0000000000000000000000000000000000000000000000000000000000000012000000000000000000000000000000000000000000000000000000000000000110000000000000000000000000000000000000000000000000000000000000753000000000000000000000000000000000000000000000000000000000000000a554e495a454e2d434c490000000000000000000000000000000000000000000000000000000000000000000000000000000000000000000000000000000000010000000000000000000000000000000000000000000000000000000000000020000000000000000000000000102dc1840f0c3c179670f21fa63597e82df34e6000000000000000000000000000000000000000000000000000000000000000000000000000000000000000000000000000000000000000000000000000000060000000000000000000000000000000000000000000000000000000000000006423b872dd000000000000000000000000a23846f4e81f7b5846523c1807eb4d0ca892045c000000000000000000000000d3f64baa732061f8b3626ee44bab354f854877ac000000000000000000000000000000000000000000000000000000000000000000000000000000000000000000000000000000000000000000000000",
                    "decodedMethod": null,
                    "errorInfo": "execution reverted",
                    "fromAddress": "0xd3ee4d3fe5f7ed75c017b02cf78fae39a31034d9",
                    "gasUsed": 11836,
                    "id": 29,
                    "methodDecoded": false,
                    "operation": "CALL",
                    "output": "0x08c379a00000000000000000000000000000000000000000000000000000000000000020000000000000000000000000000000000000000000000000000000000000000b43616c6c2d4661696c6564000000000000000000000000000000000000000000",
                    "revert": true,
                    "revertMessage": "Call-Failed",
                    "selector": "0x1ef29a02",
                    "status": false,
                    "value": "0.000000000000000001"
                },
                "nodeType": 0
            },
            "3": {
                "invocation": {
                    "address": "0x102dc1840f0c3c179670f21fa63597e82df34e60",
                    "callData": "0x000000000000000000000000687d124ec49fb0aa0cb08de4438abf171f3c53b5",
                    "decodedMethod": {
                        "callParams": [
                            {
                                "name": "account",
                                "type": "address",
                                "value": "0x687d124ec49fb0aa0cb08de4438abf171f3c53b5"
                            }
                        ],
                        "constructorArguments": "",
                        "name": "balanceOf",
                        "returnParams": [
                            {
                                "decimalAvailable": true,
                                "name": "",
                                "type": "uint256",
                                "value": "0"
                            }
                        ],
                        "signature": "balanceOf(address)"
                    },
                    "errorInfo": "",
                    "fromAddress": "0xd3ee4d3fe5f7ed75c017b02cf78fae39a31034d9",
                    "gasUsed": 2852,
                    "id": 3,
                    "methodDecoded": true,
                    "operation": "STATICCALL",
                    "output": "0x0000000000000000000000000000000000000000000000000000000000000000",
                    "revert": false,
                    "revertMessage": "",
                    "selector": "0x70a08231",
                    "status": true,
                    "value": "0"
                },
                "nodeType": 0
            },
            "30": {
                "invocation": {
                    "address": "0xa051fc7d38baa0ace811ad9de4e9f7024e5d8a30",
                    "callData": "0x000000000000000000000000000000000000000000000000000000000000004000000000000000000000000000000000000000000000000000000000000001a0000000000000000000000000d3ee4d3fe5f7ed75c017b02cf78fae39a31034d90000000000000000000000000000000000000000000000000000000000000000000000000000000000000000102dc1840f0c3c179670f21fa63597e82df34e60000000000000000000000000000000000000000000000000000000000000000100000000000000000000000000000000000000000000000000000000000000000000000000000000000000000000000000000000000000000297963e6c9965e0000000000000000000000000000000000000000000000000000000000000012000000000000000000000000000000000000000000000000000000000000000110000000000000000000000000000000000000000000000000000000000000753000000000000000000000000000000000000000000000000000000000000000a554e495a454e2d434c490000000000000000000000000000000000000000000000000000000000000000000000000000000000000000000000000000000000010000000000000000000000000000000000000000000000000000000000000020000000000000000000000000102dc1840f0c3c179670f21fa63597e82df34e6000000000000000000000000000000000000000000000000000000000000000000000000000000000000000000000000000000000000000000000000000000060000000000000000000000000000000000000000000000000000000000000006423b872dd000000000000000000000000a23846f4e81f7b5846523c1807eb4d0ca892045c000000000000000000000000d3f64baa732061f8b3626ee44bab354f854877ac000000000000000000000000000000000000000000000000000000000000000000000000000000000000000000000000000000000000000000000000",
                    "decodedMethod": null,
                    "errorInfo": "execution reverted",
                    "fromAddress": "0xd3f64baa732061f8b3626ee44bab354f854877ac",
                    "gasUsed": 10865,
                    "id": 30,
                    "methodDecoded": false,
                    "operation": "DELEGATECALL",
                    "output": "0x08c379a00000000000000000000000000000000000000000000000000000000000000020000000000000000000000000000000000000000000000000000000000000000b43616c6c2d4661696c6564000000000000000000000000000000000000000000",
                    "revert": true,
                    "revertMessage": "Call-Failed",
                    "selector": "0x1ef29a02",
                    "status": false,
                    "value": "0.000000000000000001"
                },
                "nodeType": 0
            },
            "31": {
                "invocation": {
                    "address": "0x102dc1840f0c3c179670f21fa63597e82df34e60",
                    "callData": "0x000000000000000000000000d3f64baa732061f8b3626ee44bab354f854877ac",
                    "decodedMethod": {
                        "callParams": [
                            {
                                "name": "account",
                                "type": "address",
                                "value": "0xd3f64baa732061f8b3626ee44bab354f854877ac"
                            }
                        ],
                        "constructorArguments": "",
                        "name": "balanceOf",
                        "returnParams": [
                            {
                                "decimalAvailable": true,
                                "name": "",
                                "type": "uint256",
                                "value": "0"
                            }
                        ],
                        "signature": "balanceOf(address)"
                    },
                    "errorInfo": "",
                    "fromAddress": "0xd3f64baa732061f8b3626ee44bab354f854877ac",
                    "gasUsed": 852,
                    "id": 31,
                    "methodDecoded": true,
                    "operation": "STATICCALL",
                    "output": "0x0000000000000000000000000000000000000000000000000000000000000000",
                    "revert": true,
                    "revertMessage": "",
                    "selector": "0x70a08231",
                    "status": true,
                    "value": "0"
                },
                "nodeType": 0
            },
            "32": {
                "invocation": {
                    "address": "0x102dc1840f0c3c179670f21fa63597e82df34e60",
                    "callData": "0x000000000000000000000000a23846f4e81f7b5846523c1807eb4d0ca892045c000000000000000000000000d3f64baa732061f8b3626ee44bab354f854877ac0000000000000000000000000000000000000000000000000000000000000000",
                    "decodedMethod": {
                        "callParams": [
                            {
                                "name": "sender",
                                "type": "address",
                                "value": "0xa23846f4e81f7b5846523c1807eb4d0ca892045c"
                            },
                            {
                                "name": "recipient",
                                "type": "address",
                                "value": "0xd3f64baa732061f8b3626ee44bab354f854877ac"
                            },
                            {
                                "decimalAvailable": true,
                                "name": "amount",
                                "type": "uint256",
                                "value": "0"
                            }
                        ],
                        "constructorArguments": "",
                        "name": "transferFrom",
                        "returnParams": [],
                        "signature": "transferFrom(address,address,uint256)"
                    },
                    "errorInfo": "execution reverted",
                    "fromAddress": "0xd3f64baa732061f8b3626ee44bab354f854877ac",
                    "gasUsed": 1293,
                    "id": 32,
                    "methodDecoded": true,
                    "operation": "CALL",
                    "output": "0x08c379a0000000000000000000000000000000000000000000000000000000000000002000000000000000000000000000000000000000000000000000000000000000295472616e7366657220616d6f756e74206d7573742062652067726561746572207468616e207a65726f0000000000000000000000000000000000000000000000",
                    "revert": true,
                    "revertMessage": ")Transfer amount must be greater than zero",
                    "selector": "0x23b872dd",
                    "status": false,
                    "value": "0"
                },
                "nodeType": 0
            },
            "33": {
                "invocation": {
                    "address": "0x102dc1840f0c3c179670f21fa63597e82df34e60",
                    "callData": "0x000000000000000000000000d3ee4d3fe5f7ed75c017b02cf78fae39a31034d9",
                    "decodedMethod": {
                        "callParams": [
                            {
                                "name": "account",
                                "type": "address",
                                "value": "0xd3ee4d3fe5f7ed75c017b02cf78fae39a31034d9"
                            }
                        ],
                        "constructorArguments": "",
                        "name": "balanceOf",
                        "returnParams": [
                            {
                                "decimalAvailable": true,
                                "name": "",
                                "type": "uint256",
                                "value": "0"
                            }
                        ],
                        "signature": "balanceOf(address)"
                    },
                    "errorInfo": "",
                    "fromAddress": "0xd3ee4d3fe5f7ed75c017b02cf78fae39a31034d9",
                    "gasUsed": 852,
                    "id": 33,
                    "methodDecoded": true,
                    "operation": "STATICCALL",
                    "output": "0x0000000000000000000000000000000000000000000000000000000000000000",
                    "revert": false,
                    "revertMessage": "",
                    "selector": "0x70a08231",
                    "status": true,
                    "value": "0"
                },
                "nodeType": 0
            },
            "34": {
                "invocation": {
                    "address": "0x102dc1840f0c3c179670f21fa63597e82df34e60",
                    "callData": "0x0000000000000000000000004e2ce48f0b5d97bfd4be3f6c7b6479db1aa5b3650000000000000000000000000000000000000000000000000000000000000000",
                    "decodedMethod": {
                        "callParams": [
                            {
                                "name": "recipient",
                                "type": "address",
                                "value": "0x4e2ce48f0b5d97bfd4be3f6c7b6479db1aa5b365"
                            },
                            {
                                "decimalAvailable": true,
                                "name": "amount",
                                "type": "uint256",
                                "value": "0"
                            }
                        ],
                        "constructorArguments": "",
                        "name": "transfer",
                        "returnParams": [],
                        "signature": "transfer(address,uint256)"
                    },
                    "errorInfo": "execution reverted",
                    "fromAddress": "0xd3ee4d3fe5f7ed75c017b02cf78fae39a31034d9",
                    "gasUsed": 1112,
                    "id": 34,
                    "methodDecoded": true,
                    "operation": "CALL",
                    "output": "0x08c379a0000000000000000000000000000000000000000000000000000000000000002000000000000000000000000000000000000000000000000000000000000000295472616e7366657220616d6f756e74206d7573742062652067726561746572207468616e207a65726f0000000000000000000000000000000000000000000000",
                    "revert": true,
                    "revertMessage": ")Transfer amount must be greater than zero",
                    "selector": "0xa9059cbb",
                    "status": false,
                    "value": "0"
                },
                "nodeType": 0
            },
            "35": {
                "invocation": {
                    "address": "0x102dc1840f0c3c179670f21fa63597e82df34e60",
                    "callData": "0x000000000000000000000000728dbac1d2a20acc87edd23ff435931e6c4c1f37",
                    "decodedMethod": {
                        "callParams": [
                            {
                                "name": "account",
                                "type": "address",
                                "value": "0x728dbac1d2a20acc87edd23ff435931e6c4c1f37"
                            }
                        ],
                        "constructorArguments": "",
                        "name": "balanceOf",
                        "returnParams": [
                            {
                                "decimalAvailable": true,
                                "name": "",
                                "type": "uint256",
                                "value": "0"
                            }
                        ],
                        "signature": "balanceOf(address)"
                    },
                    "errorInfo": "",
                    "fromAddress": "0xd3ee4d3fe5f7ed75c017b02cf78fae39a31034d9",
                    "gasUsed": 2852,
                    "id": 35,
                    "methodDecoded": true,
                    "operation": "STATICCALL",
                    "output": "0x0000000000000000000000000000000000000000000000000000000000000000",
                    "revert": false,
                    "revertMessage": "",
                    "selector": "0x70a08231",
                    "status": true,
                    "value": "0"
                },
                "nodeType": 0
            },
            "36": {
                "invocation": {
                    "address": "0xd3f64baa732061f8b3626ee44bab354f854877ac",
                    "callData": "0x000000000000000000000000000000000000000000000000000000000000004000000000000000000000000000000000000000000000000000000000000001a0000000000000000000000000d3ee4d3fe5f7ed75c017b02cf78fae39a31034d90000000000000000000000000000000000000000000000000000000000000000000000000000000000000000102dc1840f0c3c179670f21fa63597e82df34e60000000000000000000000000000000000000000000000000000000000000000100000000000000000000000000000000000000000000000000000000000000000000000000000000000000000000000000000000000000000297963e6c9965e0000000000000000000000000000000000000000000000000000000000000012000000000000000000000000000000000000000000000000000000000000000110000000000000000000000000000000000000000000000000000000000000753000000000000000000000000000000000000000000000000000000000000000a554e495a454e2d434c490000000000000000000000000000000000000000000000000000000000000000000000000000000000000000000000000000000000010000000000000000000000000000000000000000000000000000000000000020000000000000000000000000102dc1840f0c3c179670f21fa63597e82df34e6000000000000000000000000000000000000000000000000000000000000000000000000000000000000000000000000000000000000000000000000000000060000000000000000000000000000000000000000000000000000000000000006423b872dd000000000000000000000000728dbac1d2a20acc87edd23ff435931e6c4c1f37000000000000000000000000d3f64baa732061f8b3626ee44bab354f854877ac000000000000000000000000000000000000000000000000000000000000000000000000000000000000000000000000000000000000000000000000",
                    "decodedMethod": null,
                    "errorInfo": "execution reverted",
                    "fromAddress": "0xd3ee4d3fe5f7ed75c017b02cf78fae39a31034d9",
                    "gasUsed": 11836,
                    "id": 36,
                    "methodDecoded": false,
                    "operation": "CALL",
                    "output": "0x08c379a00000000000000000000000000000000000000000000000000000000000000020000000000000000000000000000000000000000000000000000000000000000b43616c6c2d4661696c6564000000000000000000000000000000000000000000",
                    "revert": true,
                    "revertMessage": "Call-Failed",
                    "selector": "0x1ef29a02",
                    "status": false,
                    "value": "0.000000000000000001"
                },
                "nodeType": 0
            },
            "37": {
                "invocation": {
                    "address": "0xa051fc7d38baa0ace811ad9de4e9f7024e5d8a30",
                    "callData": "0x000000000000000000000000000000000000000000000000000000000000004000000000000000000000000000000000000000000000000000000000000001a0000000000000000000000000d3ee4d3fe5f7ed75c017b02cf78fae39a31034d90000000000000000000000000000000000000000000000000000000000000000000000000000000000000000102dc1840f0c3c179670f21fa63597e82df34e60000000000000000000000000000000000000000000000000000000000000000100000000000000000000000000000000000000000000000000000000000000000000000000000000000000000000000000000000000000000297963e6c9965e0000000000000000000000000000000000000000000000000000000000000012000000000000000000000000000000000000000000000000000000000000000110000000000000000000000000000000000000000000000000000000000000753000000000000000000000000000000000000000000000000000000000000000a554e495a454e2d434c490000000000000000000000000000000000000000000000000000000000000000000000000000000000000000000000000000000000010000000000000000000000000000000000000000000000000000000000000020000000000000000000000000102dc1840f0c3c179670f21fa63597e82df34e6000000000000000000000000000000000000000000000000000000000000000000000000000000000000000000000000000000000000000000000000000000060000000000000000000000000000000000000000000000000000000000000006423b872dd000000000000000000000000728dbac1d2a20acc87edd23ff435931e6c4c1f37000000000000000000000000d3f64baa732061f8b3626ee44bab354f854877ac000000000000000000000000000000000000000000000000000000000000000000000000000000000000000000000000000000000000000000000000",
                    "decodedMethod": null,
                    "errorInfo": "execution reverted",
                    "fromAddress": "0xd3f64baa732061f8b3626ee44bab354f854877ac",
                    "gasUsed": 10865,
                    "id": 37,
                    "methodDecoded": false,
                    "operation": "DELEGATECALL",
                    "output": "0x08c379a00000000000000000000000000000000000000000000000000000000000000020000000000000000000000000000000000000000000000000000000000000000b43616c6c2d4661696c6564000000000000000000000000000000000000000000",
                    "revert": true,
                    "revertMessage": "Call-Failed",
                    "selector": "0x1ef29a02",
                    "status": false,
                    "value": "0.000000000000000001"
                },
                "nodeType": 0
            },
            "38": {
                "invocation": {
                    "address": "0x102dc1840f0c3c179670f21fa63597e82df34e60",
                    "callData": "0x000000000000000000000000d3f64baa732061f8b3626ee44bab354f854877ac",
                    "decodedMethod": {
                        "callParams": [
                            {
                                "name": "account",
                                "type": "address",
                                "value": "0xd3f64baa732061f8b3626ee44bab354f854877ac"
                            }
                        ],
                        "constructorArguments": "",
                        "name": "balanceOf",
                        "returnParams": [
                            {
                                "decimalAvailable": true,
                                "name": "",
                                "type": "uint256",
                                "value": "0"
                            }
                        ],
                        "signature": "balanceOf(address)"
                    },
                    "errorInfo": "",
                    "fromAddress": "0xd3f64baa732061f8b3626ee44bab354f854877ac",
                    "gasUsed": 852,
                    "id": 38,
                    "methodDecoded": true,
                    "operation": "STATICCALL",
                    "output": "0x0000000000000000000000000000000000000000000000000000000000000000",
                    "revert": true,
                    "revertMessage": "",
                    "selector": "0x70a08231",
                    "status": true,
                    "value": "0"
                },
                "nodeType": 0
            },
            "39": {
                "invocation": {
                    "address": "0x102dc1840f0c3c179670f21fa63597e82df34e60",
                    "callData": "0x000000000000000000000000728dbac1d2a20acc87edd23ff435931e6c4c1f37000000000000000000000000d3f64baa732061f8b3626ee44bab354f854877ac0000000000000000000000000000000000000000000000000000000000000000",
                    "decodedMethod": {
                        "callParams": [
                            {
                                "name": "sender",
                                "type": "address",
                                "value": "0x728dbac1d2a20acc87edd23ff435931e6c4c1f37"
                            },
                            {
                                "name": "recipient",
                                "type": "address",
                                "value": "0xd3f64baa732061f8b3626ee44bab354f854877ac"
                            },
                            {
                                "decimalAvailable": true,
                                "name": "amount",
                                "type": "uint256",
                                "value": "0"
                            }
                        ],
                        "constructorArguments": "",
                        "name": "transferFrom",
                        "returnParams": [],
                        "signature": "transferFrom(address,address,uint256)"
                    },
                    "errorInfo": "execution reverted",
                    "fromAddress": "0xd3f64baa732061f8b3626ee44bab354f854877ac",
                    "gasUsed": 1293,
                    "id": 39,
                    "methodDecoded": true,
                    "operation": "CALL",
                    "output": "0x08c379a0000000000000000000000000000000000000000000000000000000000000002000000000000000000000000000000000000000000000000000000000000000295472616e7366657220616d6f756e74206d7573742062652067726561746572207468616e207a65726f0000000000000000000000000000000000000000000000",
                    "revert": true,
                    "revertMessage": ")Transfer amount must be greater than zero",
                    "selector": "0x23b872dd",
                    "status": false,
                    "value": "0"
                },
                "nodeType": 0
            },
            "4": {
                "invocation": {
                    "address": "0xd3f64baa732061f8b3626ee44bab354f854877ac",
                    "callData": "0x000000000000000000000000000000000000000000000000000000000000004000000000000000000000000000000000000000000000000000000000000001a0000000000000000000000000d3ee4d3fe5f7ed75c017b02cf78fae39a31034d90000000000000000000000000000000000000000000000000000000000000000000000000000000000000000102dc1840f0c3c179670f21fa63597e82df34e60000000000000000000000000000000000000000000000000000000000000000100000000000000000000000000000000000000000000000000000000000000000000000000000000000000000000000000000000000000000297963e6c9965e0000000000000000000000000000000000000000000000000000000000000012000000000000000000000000000000000000000000000000000000000000000110000000000000000000000000000000000000000000000000000000000000753000000000000000000000000000000000000000000000000000000000000000a554e495a454e2d434c490000000000000000000000000000000000000000000000000000000000000000000000000000000000000000000000000000000000010000000000000000000000000000000000000000000000000000000000000020000000000000000000000000102dc1840f0c3c179670f21fa63597e82df34e6000000000000000000000000000000000000000000000000000000000000000000000000000000000000000000000000000000000000000000000000000000060000000000000000000000000000000000000000000000000000000000000006423b872dd000000000000000000000000687d124ec49fb0aa0cb08de4438abf171f3c53b5000000000000000000000000d3f64baa732061f8b3626ee44bab354f854877ac000000000000000000000000000000000000000000000000000000000000000000000000000000000000000000000000000000000000000000000000",
                    "decodedMethod": null,
                    "errorInfo": "execution reverted",
                    "fromAddress": "0xd3ee4d3fe5f7ed75c017b02cf78fae39a31034d9",
                    "gasUsed": 26336,
                    "id": 4,
                    "methodDecoded": false,
                    "operation": "CALL",
                    "output": "0x08c379a00000000000000000000000000000000000000000000000000000000000000020000000000000000000000000000000000000000000000000000000000000000b43616c6c2d4661696c6564000000000000000000000000000000000000000000",
                    "revert": true,
                    "revertMessage": "Call-Failed",
                    "selector": "0x1ef29a02",
                    "status": false,
                    "value": "0.000000000000000001"
                },
                "nodeType": 0
            },
            "40": {
                "invocation": {
                    "address": "0x102dc1840f0c3c179670f21fa63597e82df34e60",
                    "callData": "0x000000000000000000000000d3ee4d3fe5f7ed75c017b02cf78fae39a31034d9",
                    "decodedMethod": {
                        "callParams": [
                            {
                                "name": "account",
                                "type": "address",
                                "value": "0xd3ee4d3fe5f7ed75c017b02cf78fae39a31034d9"
                            }
                        ],
                        "constructorArguments": "",
                        "name": "balanceOf",
                        "returnParams": [
                            {
                                "decimalAvailable": true,
                                "name": "",
                                "type": "uint256",
                                "value": "0"
                            }
                        ],
                        "signature": "balanceOf(address)"
                    },
                    "errorInfo": "",
                    "fromAddress": "0xd3ee4d3fe5f7ed75c017b02cf78fae39a31034d9",
                    "gasUsed": 852,
                    "id": 40,
                    "methodDecoded": true,
                    "operation": "STATICCALL",
                    "output": "0x0000000000000000000000000000000000000000000000000000000000000000",
                    "revert": false,
                    "revertMessage": "",
                    "selector": "0x70a08231",
                    "status": true,
                    "value": "0"
                },
                "nodeType": 0
            },
            "41": {
                "invocation": {
                    "address": "0x102dc1840f0c3c179670f21fa63597e82df34e60",
                    "callData": "0x0000000000000000000000004e2ce48f0b5d97bfd4be3f6c7b6479db1aa5b3650000000000000000000000000000000000000000000000000000000000000000",
                    "decodedMethod": {
                        "callParams": [
                            {
                                "name": "recipient",
                                "type": "address",
                                "value": "0x4e2ce48f0b5d97bfd4be3f6c7b6479db1aa5b365"
                            },
                            {
                                "decimalAvailable": true,
                                "name": "amount",
                                "type": "uint256",
                                "value": "0"
                            }
                        ],
                        "constructorArguments": "",
                        "name": "transfer",
                        "returnParams": [],
                        "signature": "transfer(address,uint256)"
                    },
                    "errorInfo": "execution reverted",
                    "fromAddress": "0xd3ee4d3fe5f7ed75c017b02cf78fae39a31034d9",
                    "gasUsed": 1112,
                    "id": 41,
                    "methodDecoded": true,
                    "operation": "CALL",
                    "output": "0x08c379a0000000000000000000000000000000000000000000000000000000000000002000000000000000000000000000000000000000000000000000000000000000295472616e7366657220616d6f756e74206d7573742062652067726561746572207468616e207a65726f0000000000000000000000000000000000000000000000",
                    "revert": true,
                    "revertMessage": ")Transfer amount must be greater than zero",
                    "selector": "0xa9059cbb",
                    "status": false,
                    "value": "0"
                },
                "nodeType": 0
            },
            "42": {
                "invocation": {
                    "address": "0x102dc1840f0c3c179670f21fa63597e82df34e60",
                    "callData": "0x000000000000000000000000daa91e8103b219ba85ab202d3c94bcefe354f670",
                    "decodedMethod": {
                        "callParams": [
                            {
                                "name": "account",
                                "type": "address",
                                "value": "0xdaa91e8103b219ba85ab202d3c94bcefe354f670"
                            }
                        ],
                        "constructorArguments": "",
                        "name": "balanceOf",
                        "returnParams": [
                            {
                                "decimalAvailable": true,
                                "name": "",
                                "type": "uint256",
                                "value": "0"
                            }
                        ],
                        "signature": "balanceOf(address)"
                    },
                    "errorInfo": "",
                    "fromAddress": "0xd3ee4d3fe5f7ed75c017b02cf78fae39a31034d9",
                    "gasUsed": 2852,
                    "id": 42,
                    "methodDecoded": true,
                    "operation": "STATICCALL",
                    "output": "0x0000000000000000000000000000000000000000000000000000000000000000",
                    "revert": false,
                    "revertMessage": "",
                    "selector": "0x70a08231",
                    "status": true,
                    "value": "0"
                },
                "nodeType": 0
            },
            "43": {
                "invocation": {
                    "address": "0xd3f64baa732061f8b3626ee44bab354f854877ac",
                    "callData": "0x000000000000000000000000000000000000000000000000000000000000004000000000000000000000000000000000000000000000000000000000000001a0000000000000000000000000d3ee4d3fe5f7ed75c017b02cf78fae39a31034d90000000000000000000000000000000000000000000000000000000000000000000000000000000000000000102dc1840f0c3c179670f21fa63597e82df34e60000000000000000000000000000000000000000000000000000000000000000100000000000000000000000000000000000000000000000000000000000000000000000000000000000000000000000000000000000000000297963e6c9965e0000000000000000000000000000000000000000000000000000000000000012000000000000000000000000000000000000000000000000000000000000000110000000000000000000000000000000000000000000000000000000000000753000000000000000000000000000000000000000000000000000000000000000a554e495a454e2d434c490000000000000000000000000000000000000000000000000000000000000000000000000000000000000000000000000000000000010000000000000000000000000000000000000000000000000000000000000020000000000000000000000000102dc1840f0c3c179670f21fa63597e82df34e6000000000000000000000000000000000000000000000000000000000000000000000000000000000000000000000000000000000000000000000000000000060000000000000000000000000000000000000000000000000000000000000006423b872dd000000000000000000000000daa91e8103b219ba85ab202d3c94bcefe354f670000000000000000000000000d3f64baa732061f8b3626ee44bab354f854877ac000000000000000000000000000000000000000000000000000000000000000000000000000000000000000000000000000000000000000000000000",
                    "decodedMethod": null,
                    "errorInfo": "execution reverted",
                    "fromAddress": "0xd3ee4d3fe5f7ed75c017b02cf78fae39a31034d9",
                    "gasUsed": 11836,
                    "id": 43,
                    "methodDecoded": false,
                    "operation": "CALL",
                    "output": "0x08c379a00000000000000000000000000000000000000000000000000000000000000020000000000000000000000000000000000000000000000000000000000000000b43616c6c2d4661696c6564000000000000000000000000000000000000000000",
                    "revert": true,
                    "revertMessage": "Call-Failed",
                    "selector": "0x1ef29a02",
                    "status": false,
                    "value": "0.000000000000000001"
                },
                "nodeType": 0
            },
            "44": {
                "invocation": {
                    "address": "0xa051fc7d38baa0ace811ad9de4e9f7024e5d8a30",
                    "callData": "0x000000000000000000000000000000000000000000000000000000000000004000000000000000000000000000000000000000000000000000000000000001a0000000000000000000000000d3ee4d3fe5f7ed75c017b02cf78fae39a31034d90000000000000000000000000000000000000000000000000000000000000000000000000000000000000000102dc1840f0c3c179670f21fa63597e82df34e60000000000000000000000000000000000000000000000000000000000000000100000000000000000000000000000000000000000000000000000000000000000000000000000000000000000000000000000000000000000297963e6c9965e0000000000000000000000000000000000000000000000000000000000000012000000000000000000000000000000000000000000000000000000000000000110000000000000000000000000000000000000000000000000000000000000753000000000000000000000000000000000000000000000000000000000000000a554e495a454e2d434c490000000000000000000000000000000000000000000000000000000000000000000000000000000000000000000000000000000000010000000000000000000000000000000000000000000000000000000000000020000000000000000000000000102dc1840f0c3c179670f21fa63597e82df34e6000000000000000000000000000000000000000000000000000000000000000000000000000000000000000000000000000000000000000000000000000000060000000000000000000000000000000000000000000000000000000000000006423b872dd000000000000000000000000daa91e8103b219ba85ab202d3c94bcefe354f670000000000000000000000000d3f64baa732061f8b3626ee44bab354f854877ac000000000000000000000000000000000000000000000000000000000000000000000000000000000000000000000000000000000000000000000000",
                    "decodedMethod": null,
                    "errorInfo": "execution reverted",
                    "fromAddress": "0xd3f64baa732061f8b3626ee44bab354f854877ac",
                    "gasUsed": 10865,
                    "id": 44,
                    "methodDecoded": false,
                    "operation": "DELEGATECALL",
                    "output": "0x08c379a00000000000000000000000000000000000000000000000000000000000000020000000000000000000000000000000000000000000000000000000000000000b43616c6c2d4661696c6564000000000000000000000000000000000000000000",
                    "revert": true,
                    "revertMessage": "Call-Failed",
                    "selector": "0x1ef29a02",
                    "status": false,
                    "value": "0.000000000000000001"
                },
                "nodeType": 0
            },
            "45": {
                "invocation": {
                    "address": "0x102dc1840f0c3c179670f21fa63597e82df34e60",
                    "callData": "0x000000000000000000000000d3f64baa732061f8b3626ee44bab354f854877ac",
                    "decodedMethod": {
                        "callParams": [
                            {
                                "name": "account",
                                "type": "address",
                                "value": "0xd3f64baa732061f8b3626ee44bab354f854877ac"
                            }
                        ],
                        "constructorArguments": "",
                        "name": "balanceOf",
                        "returnParams": [
                            {
                                "decimalAvailable": true,
                                "name": "",
                                "type": "uint256",
                                "value": "0"
                            }
                        ],
                        "signature": "balanceOf(address)"
                    },
                    "errorInfo": "",
                    "fromAddress": "0xd3f64baa732061f8b3626ee44bab354f854877ac",
                    "gasUsed": 852,
                    "id": 45,
                    "methodDecoded": true,
                    "operation": "STATICCALL",
                    "output": "0x0000000000000000000000000000000000000000000000000000000000000000",
                    "revert": true,
                    "revertMessage": "",
                    "selector": "0x70a08231",
                    "status": true,
                    "value": "0"
                },
                "nodeType": 0
            },
            "46": {
                "invocation": {
                    "address": "0x102dc1840f0c3c179670f21fa63597e82df34e60",
                    "callData": "0x000000000000000000000000daa91e8103b219ba85ab202d3c94bcefe354f670000000000000000000000000d3f64baa732061f8b3626ee44bab354f854877ac0000000000000000000000000000000000000000000000000000000000000000",
                    "decodedMethod": {
                        "callParams": [
                            {
                                "name": "sender",
                                "type": "address",
                                "value": "0xdaa91e8103b219ba85ab202d3c94bcefe354f670"
                            },
                            {
                                "name": "recipient",
                                "type": "address",
                                "value": "0xd3f64baa732061f8b3626ee44bab354f854877ac"
                            },
                            {
                                "decimalAvailable": true,
                                "name": "amount",
                                "type": "uint256",
                                "value": "0"
                            }
                        ],
                        "constructorArguments": "",
                        "name": "transferFrom",
                        "returnParams": [],
                        "signature": "transferFrom(address,address,uint256)"
                    },
                    "errorInfo": "execution reverted",
                    "fromAddress": "0xd3f64baa732061f8b3626ee44bab354f854877ac",
                    "gasUsed": 1293,
                    "id": 46,
                    "methodDecoded": true,
                    "operation": "CALL",
                    "output": "0x08c379a0000000000000000000000000000000000000000000000000000000000000002000000000000000000000000000000000000000000000000000000000000000295472616e7366657220616d6f756e74206d7573742062652067726561746572207468616e207a65726f0000000000000000000000000000000000000000000000",
                    "revert": true,
                    "revertMessage": ")Transfer amount must be greater than zero",
                    "selector": "0x23b872dd",
                    "status": false,
                    "value": "0"
                },
                "nodeType": 0
            },
            "47": {
                "invocation": {
                    "address": "0x102dc1840f0c3c179670f21fa63597e82df34e60",
                    "callData": "0x000000000000000000000000d3ee4d3fe5f7ed75c017b02cf78fae39a31034d9",
                    "decodedMethod": {
                        "callParams": [
                            {
                                "name": "account",
                                "type": "address",
                                "value": "0xd3ee4d3fe5f7ed75c017b02cf78fae39a31034d9"
                            }
                        ],
                        "constructorArguments": "",
                        "name": "balanceOf",
                        "returnParams": [
                            {
                                "decimalAvailable": true,
                                "name": "",
                                "type": "uint256",
                                "value": "0"
                            }
                        ],
                        "signature": "balanceOf(address)"
                    },
                    "errorInfo": "",
                    "fromAddress": "0xd3ee4d3fe5f7ed75c017b02cf78fae39a31034d9",
                    "gasUsed": 852,
                    "id": 47,
                    "methodDecoded": true,
                    "operation": "STATICCALL",
                    "output": "0x0000000000000000000000000000000000000000000000000000000000000000",
                    "revert": false,
                    "revertMessage": "",
                    "selector": "0x70a08231",
                    "status": true,
                    "value": "0"
                },
                "nodeType": 0
            },
            "48": {
                "invocation": {
                    "address": "0x102dc1840f0c3c179670f21fa63597e82df34e60",
                    "callData": "0x0000000000000000000000004e2ce48f0b5d97bfd4be3f6c7b6479db1aa5b3650000000000000000000000000000000000000000000000000000000000000000",
                    "decodedMethod": {
                        "callParams": [
                            {
                                "name": "recipient",
                                "type": "address",
                                "value": "0x4e2ce48f0b5d97bfd4be3f6c7b6479db1aa5b365"
                            },
                            {
                                "decimalAvailable": true,
                                "name": "amount",
                                "type": "uint256",
                                "value": "0"
                            }
                        ],
                        "constructorArguments": "",
                        "name": "transfer",
                        "returnParams": [],
                        "signature": "transfer(address,uint256)"
                    },
                    "errorInfo": "execution reverted",
                    "fromAddress": "0xd3ee4d3fe5f7ed75c017b02cf78fae39a31034d9",
                    "gasUsed": 1112,
                    "id": 48,
                    "methodDecoded": true,
                    "operation": "CALL",
                    "output": "0x08c379a0000000000000000000000000000000000000000000000000000000000000002000000000000000000000000000000000000000000000000000000000000000295472616e7366657220616d6f756e74206d7573742062652067726561746572207468616e207a65726f0000000000000000000000000000000000000000000000",
                    "revert": true,
                    "revertMessage": ")Transfer amount must be greater than zero",
                    "selector": "0xa9059cbb",
                    "status": false,
                    "value": "0"
                },
                "nodeType": 0
            },
            "5": {
                "invocation": {
                    "address": "0xa051fc7d38baa0ace811ad9de4e9f7024e5d8a30",
                    "callData": "0x000000000000000000000000000000000000000000000000000000000000004000000000000000000000000000000000000000000000000000000000000001a0000000000000000000000000d3ee4d3fe5f7ed75c017b02cf78fae39a31034d90000000000000000000000000000000000000000000000000000000000000000000000000000000000000000102dc1840f0c3c179670f21fa63597e82df34e60000000000000000000000000000000000000000000000000000000000000000100000000000000000000000000000000000000000000000000000000000000000000000000000000000000000000000000000000000000000297963e6c9965e0000000000000000000000000000000000000000000000000000000000000012000000000000000000000000000000000000000000000000000000000000000110000000000000000000000000000000000000000000000000000000000000753000000000000000000000000000000000000000000000000000000000000000a554e495a454e2d434c490000000000000000000000000000000000000000000000000000000000000000000000000000000000000000000000000000000000010000000000000000000000000000000000000000000000000000000000000020000000000000000000000000102dc1840f0c3c179670f21fa63597e82df34e6000000000000000000000000000000000000000000000000000000000000000000000000000000000000000000000000000000000000000000000000000000060000000000000000000000000000000000000000000000000000000000000006423b872dd000000000000000000000000687d124ec49fb0aa0cb08de4438abf171f3c53b5000000000000000000000000d3f64baa732061f8b3626ee44bab354f854877ac000000000000000000000000000000000000000000000000000000000000000000000000000000000000000000000000000000000000000000000000",
                    "decodedMethod": null,
                    "errorInfo": "execution reverted",
                    "fromAddress": "0xd3f64baa732061f8b3626ee44bab354f854877ac",
                    "gasUsed": 18865,
                    "id": 5,
                    "methodDecoded": false,
                    "operation": "DELEGATECALL",
                    "output": "0x08c379a00000000000000000000000000000000000000000000000000000000000000020000000000000000000000000000000000000000000000000000000000000000b43616c6c2d4661696c6564000000000000000000000000000000000000000000",
                    "revert": true,
                    "revertMessage": "Call-Failed",
                    "selector": "0x1ef29a02",
                    "status": false,
                    "value": "0.000000000000000001"
                },
                "nodeType": 0
            },
            "6": {
                "invocation": {
                    "address": "0x102dc1840f0c3c179670f21fa63597e82df34e60",
                    "callData": "0x000000000000000000000000d3f64baa732061f8b3626ee44bab354f854877ac",
                    "decodedMethod": {
                        "callParams": [
                            {
                                "name": "account",
                                "type": "address",
                                "value": "0xd3f64baa732061f8b3626ee44bab354f854877ac"
                            }
                        ],
                        "constructorArguments": "",
                        "name": "balanceOf",
                        "returnParams": [
                            {
                                "decimalAvailable": true,
                                "name": "",
                                "type": "uint256",
                                "value": "0"
                            }
                        ],
                        "signature": "balanceOf(address)"
                    },
                    "errorInfo": "",
                    "fromAddress": "0xd3f64baa732061f8b3626ee44bab354f854877ac",
                    "gasUsed": 2852,
                    "id": 6,
                    "methodDecoded": true,
                    "operation": "STATICCALL",
                    "output": "0x0000000000000000000000000000000000000000000000000000000000000000",
                    "revert": true,
                    "revertMessage": "",
                    "selector": "0x70a08231",
                    "status": true,
                    "value": "0"
                },
                "nodeType": 0
            },
            "7": {
                "invocation": {
                    "address": "0x102dc1840f0c3c179670f21fa63597e82df34e60",
                    "callData": "0x000000000000000000000000687d124ec49fb0aa0cb08de4438abf171f3c53b5000000000000000000000000d3f64baa732061f8b3626ee44bab354f854877ac0000000000000000000000000000000000000000000000000000000000000000",
                    "decodedMethod": {
                        "callParams": [
                            {
                                "name": "sender",
                                "type": "address",
                                "value": "0x687d124ec49fb0aa0cb08de4438abf171f3c53b5"
                            },
                            {
                                "name": "recipient",
                                "type": "address",
                                "value": "0xd3f64baa732061f8b3626ee44bab354f854877ac"
                            },
                            {
                                "decimalAvailable": true,
                                "name": "amount",
                                "type": "uint256",
                                "value": "0"
                            }
                        ],
                        "constructorArguments": "",
                        "name": "transferFrom",
                        "returnParams": [],
                        "signature": "transferFrom(address,address,uint256)"
                    },
                    "errorInfo": "execution reverted",
                    "fromAddress": "0xd3f64baa732061f8b3626ee44bab354f854877ac",
                    "gasUsed": 1293,
                    "id": 7,
                    "methodDecoded": true,
                    "operation": "CALL",
                    "output": "0x08c379a0000000000000000000000000000000000000000000000000000000000000002000000000000000000000000000000000000000000000000000000000000000295472616e7366657220616d6f756e74206d7573742062652067726561746572207468616e207a65726f0000000000000000000000000000000000000000000000",
                    "revert": true,
                    "revertMessage": ")Transfer amount must be greater than zero",
                    "selector": "0x23b872dd",
                    "status": false,
                    "value": "0"
                },
                "nodeType": 0
            },
            "8": {
                "invocation": {
                    "address": "0x102dc1840f0c3c179670f21fa63597e82df34e60",
                    "callData": "0x000000000000000000000000d3ee4d3fe5f7ed75c017b02cf78fae39a31034d9",
                    "decodedMethod": {
                        "callParams": [
                            {
                                "name": "account",
                                "type": "address",
                                "value": "0xd3ee4d3fe5f7ed75c017b02cf78fae39a31034d9"
                            }
                        ],
                        "constructorArguments": "",
                        "name": "balanceOf",
                        "returnParams": [
                            {
                                "decimalAvailable": true,
                                "name": "",
                                "type": "uint256",
                                "value": "0"
                            }
                        ],
                        "signature": "balanceOf(address)"
                    },
                    "errorInfo": "",
                    "fromAddress": "0xd3ee4d3fe5f7ed75c017b02cf78fae39a31034d9",
                    "gasUsed": 2852,
                    "id": 8,
                    "methodDecoded": true,
                    "operation": "STATICCALL",
                    "output": "0x0000000000000000000000000000000000000000000000000000000000000000",
                    "revert": false,
                    "revertMessage": "",
                    "selector": "0x70a08231",
                    "status": true,
                    "value": "0"
                },
                "nodeType": 0
            },
            "9": {
                "invocation": {
                    "address": "0x102dc1840f0c3c179670f21fa63597e82df34e60",
                    "callData": "0x0000000000000000000000004e2ce48f0b5d97bfd4be3f6c7b6479db1aa5b3650000000000000000000000000000000000000000000000000000000000000000",
                    "decodedMethod": {
                        "callParams": [
                            {
                                "name": "recipient",
                                "type": "address",
                                "value": "0x4e2ce48f0b5d97bfd4be3f6c7b6479db1aa5b365"
                            },
                            {
                                "decimalAvailable": true,
                                "name": "amount",
                                "type": "uint256",
                                "value": "0"
                            }
                        ],
                        "constructorArguments": "",
                        "name": "transfer",
                        "returnParams": [],
                        "signature": "transfer(address,uint256)"
                    },
                    "errorInfo": "execution reverted",
                    "fromAddress": "0xd3ee4d3fe5f7ed75c017b02cf78fae39a31034d9",
                    "gasUsed": 1112,
                    "id": 9,
                    "methodDecoded": true,
                    "operation": "CALL",
                    "output": "0x08c379a0000000000000000000000000000000000000000000000000000000000000002000000000000000000000000000000000000000000000000000000000000000295472616e7366657220616d6f756e74206d7573742062652067726561746572207468616e207a65726f0000000000000000000000000000000000000000000000",
                    "revert": true,
                    "revertMessage": ")Transfer amount must be greater than zero",
                    "selector": "0xa9059cbb",
                    "status": false,
                    "value": "0"
                },
                "nodeType": 0
            }
        },
        "gasFlame": [
            {
                "children": [
                    {
                        "children": [
                            {
                                "children": [],
                                "depth": 0,
                                "name": "Initial Gas",
                                "value": 85374
                            },
                            {
                                "children": [
                                    {
                                        "children": [],
                                        "depth": 1,
                                        "name": "contract creation",
                                        "value": 360710
                                    },
                                    {
                                        "children": [
                                            {
                                                "children": [],
                                                "depth": 2,
                                                "name": "balanceOf",
                                                "value": 2852
                                            },
                                            {
                                                "children": [
                                                    {
                                                        "children": [
                                                            {
                                                                "children": [],
                                                                "depth": 4,
                                                                "name": "balanceOf",
                                                                "value": 2852
                                                            },
                                                            {
                                                                "children": [],
                                                                "depth": 4,
                                                                "name": "transferFrom",
                                                                "value": 1293
                                                            }
                                                        ],
                                                        "depth": 3,
                                                        "name": "0x1ef29a02",
                                                        "value": 18865
                                                    }
                                                ],
                                                "depth": 2,
                                                "name": "0x1ef29a02",
                                                "value": 26336
                                            },
                                            {
                                                "children": [],
                                                "depth": 2,
                                                "name": "balanceOf",
                                                "value": 2852
                                            },
                                            {
                                                "children": [],
                                                "depth": 2,
                                                "name": "transfer",
                                                "value": 1112
                                            }
                                        ],
                                        "depth": 1,
                                        "name": "0xaaf05f3d",
                                        "value": 51409
                                    },
                                    {
                                        "children": [
                                            {
                                                "children": [],
                                                "depth": 2,
                                                "name": "balanceOf",
                                                "value": 2852
                                            },
                                            {
                                                "children": [
                                                    {
                                                        "children": [
                                                            {
                                                                "children": [],
                                                                "depth": 4,
                                                                "name": "balanceOf",
                                                                "value": 2852
                                                            },
                                                            {
                                                                "children": [],
                                                                "depth": 4,
                                                                "name": "transferFrom",
                                                                "value": 57085
                                                            },
                                                            {
                                                                "children": [],
                                                                "depth": 4,
                                                                "name": "balanceOf",
                                                                "value": 852
                                                            },
                                                            {
                                                                "children": [],
                                                                "depth": 4,
                                                                "name": "transfer",
                                                                "value": 33449
                                                            }
                                                        ],
                                                        "depth": 3,
                                                        "name": "0x1ef29a02",
                                                        "value": 114231
                                                    }
                                                ],
                                                "depth": 2,
                                                "name": "0x1ef29a02",
                                                "value": 121689
                                            },
                                            {
                                                "children": [],
                                                "depth": 2,
                                                "name": "balanceOf",
                                                "value": 852
                                            },
                                            {
                                                "children": [],
                                                "depth": 2,
                                                "name": "transfer",
                                                "value": 35449
                                            },
                                            {
                                                "children": [],
                                                "depth": 2,
                                                "name": "balanceOf",
                                                "value": 2852
                                            },
                                            {
                                                "children": [
                                                    {
                                                        "children": [
                                                            {
                                                                "children": [],
                                                                "depth": 4,
                                                                "name": "balanceOf",
                                                                "value": 852
                                                            },
                                                            {
                                                                "children": [],
                                                                "depth": 4,
                                                                "name": "transferFrom",
                                                                "value": 1293
                                                            }
                                                        ],
                                                        "depth": 3,
                                                        "name": "0x1ef29a02",
                                                        "value": 10865
                                                    }
                                                ],
                                                "depth": 2,
                                                "name": "0x1ef29a02",
                                                "value": 11836
                                            },
                                            {
                                                "children": [],
                                                "depth": 2,
                                                "name": "balanceOf",
                                                "value": 852
                                            },
                                            {
                                                "children": [],
                                                "depth": 2,
                                                "name": "transfer",
                                                "value": 1112
                                            },
                                            {
                                                "children": [],
                                                "depth": 2,
                                                "name": "balanceOf",
                                                "value": 2852
                                            },
                                            {
                                                "children": [
                                                    {
                                                        "children": [
                                                            {
                                                                "children": [],
                                                                "depth": 4,
                                                                "name": "balanceOf",
                                                                "value": 852
                                                            },
                                                            {
                                                                "children": [],
                                                                "depth": 4,
                                                                "name": "transferFrom",
                                                                "value": 1293
                                                            }
                                                        ],
                                                        "depth": 3,
                                                        "name": "0x1ef29a02",
                                                        "value": 10865
                                                    }
                                                ],
                                                "depth": 2,
                                                "name": "0x1ef29a02",
                                                "value": 11836
                                            },
                                            {
                                                "children": [],
                                                "depth": 2,
                                                "name": "balanceOf",
                                                "value": 852
                                            },
                                            {
                                                "children": [],
                                                "depth": 2,
                                                "name": "transfer",
                                                "value": 1112
                                            },
                                            {
                                                "children": [],
                                                "depth": 2,
                                                "name": "balanceOf",
                                                "value": 2852
                                            },
                                            {
                                                "children": [
                                                    {
                                                        "children": [
                                                            {
                                                                "children": [],
                                                                "depth": 4,
                                                                "name": "balanceOf",
                                                                "value": 852
                                                            },
                                                            {
                                                                "children": [],
                                                                "depth": 4,
                                                                "name": "transferFrom",
                                                                "value": 1293
                                                            }
                                                        ],
                                                        "depth": 3,
                                                        "name": "0x1ef29a02",
                                                        "value": 10865
                                                    }
                                                ],
                                                "depth": 2,
                                                "name": "0x1ef29a02",
                                                "value": 11836
                                            },
                                            {
                                                "children": [],
                                                "depth": 2,
                                                "name": "balanceOf",
                                                "value": 852
                                            },
                                            {
                                                "children": [],
                                                "depth": 2,
                                                "name": "transfer",
                                                "value": 1112
                                            }
                                        ],
                                        "depth": 1,
                                        "name": "0xc3f90202",
                                        "value": 263411
                                    }
                                ],
                                "depth": 0,
                                "name": "Executed Gas",
                                "value": 734855
                            }
                        ],
                        "depth": -1,
                        "name": "Actual Gas Used",
                        "value": 772829
                    },
                    {
                        "children": [],
                        "depth": -1,
                        "name": "Refunded Gas",
                        "value": 47400
                    }
                ],
                "depth": -2,
                "name": "Total Gas",
                "value": 820229
            }
        ],
        "isConfirmed": true,
        "mainTrace": [
            {
                "children": [
                    {
                        "children": [
                            {
                                "children": [],
                                "depth": 1,
                                "id": 1,
                                "order": 1
                            },
                            {
                                "children": [
                                    {
                                        "children": [],
                                        "depth": 2,
                                        "id": 3,
                                        "order": 3
                                    },
                                    {
                                        "children": [
                                            {
                                                "children": [
                                                    {
                                                        "children": [],
                                                        "depth": 4,
                                                        "id": 6,
                                                        "order": 6
                                                    },
                                                    {
                                                        "children": [],
                                                        "depth": 4,
                                                        "id": 7,
                                                        "order": 7
                                                    }
                                                ],
                                                "depth": 3,
                                                "id": 5,
                                                "order": 5
                                            }
                                        ],
                                        "depth": 2,
                                        "id": 4,
                                        "order": 4
                                    },
                                    {
                                        "children": [],
                                        "depth": 2,
                                        "id": 8,
                                        "order": 8
                                    },
                                    {
                                        "children": [],
                                        "depth": 2,
                                        "id": 9,
                                        "order": 9
                                    }
                                ],
                                "depth": 1,
                                "id": 2,
                                "order": 2
                            },
                            {
                                "children": [
                                    {
                                        "children": [],
                                        "depth": 2,
                                        "id": 11,
                                        "order": 11
                                    },
                                    {
                                        "children": [
                                            {
                                                "children": [
                                                    {
                                                        "children": [],
                                                        "depth": 4,
                                                        "id": 14,
                                                        "order": 14
                                                    },
                                                    {
                                                        "children": [
                                                            {
                                                                "children": [],
                                                                "depth": 5,
                                                                "id": 16,
                                                                "order": 16
                                                            },
                                                            {
                                                                "children": [],
                                                                "depth": 5,
                                                                "id": 17,
                                                                "order": 17
                                                            },
                                                            {
                                                                "children": [],
                                                                "depth": 5,
                                                                "id": 18,
                                                                "order": 18
                                                            }
                                                        ],
                                                        "depth": 4,
                                                        "id": 15,
                                                        "order": 15
                                                    },
                                                    {
                                                        "children": [],
                                                        "depth": 4,
                                                        "id": 19,
                                                        "order": 19
                                                    },
                                                    {
                                                        "children": [
                                                            {
                                                                "children": [],
                                                                "depth": 5,
                                                                "id": 21,
                                                                "order": 21
                                                            },
                                                            {
                                                                "children": [],
                                                                "depth": 5,
                                                                "id": 22,
                                                                "order": 22
                                                            }
                                                        ],
                                                        "depth": 4,
                                                        "id": 20,
                                                        "order": 20
                                                    },
                                                    {
                                                        "children": [],
                                                        "depth": 4,
                                                        "id": 23,
                                                        "order": 23
                                                    }
                                                ],
                                                "depth": 3,
                                                "id": 13,
                                                "order": 13
                                            }
                                        ],
                                        "depth": 2,
                                        "id": 12,
                                        "order": 12
                                    },
                                    {
                                        "children": [],
                                        "depth": 2,
                                        "id": 24,
                                        "order": 24
                                    },
                                    {
                                        "children": [
                                            {
                                                "children": [],
                                                "depth": 3,
                                                "id": 26,
                                                "order": 26
                                            },
                                            {
                                                "children": [],
                                                "depth": 3,
                                                "id": 27,
                                                "order": 27
                                            }
                                        ],
                                        "depth": 2,
                                        "id": 25,
                                        "order": 25
                                    },
                                    {
                                        "children": [],
                                        "depth": 2,
                                        "id": 28,
                                        "order": 28
                                    },
                                    {
                                        "children": [
                                            {
                                                "children": [
                                                    {
                                                        "children": [],
                                                        "depth": 4,
                                                        "id": 31,
                                                        "order": 31
                                                    },
                                                    {
                                                        "children": [],
                                                        "depth": 4,
                                                        "id": 32,
                                                        "order": 32
                                                    }
                                                ],
                                                "depth": 3,
                                                "id": 30,
                                                "order": 30
                                            }
                                        ],
                                        "depth": 2,
                                        "id": 29,
                                        "order": 29
                                    },
                                    {
                                        "children": [],
                                        "depth": 2,
                                        "id": 33,
                                        "order": 33
                                    },
                                    {
                                        "children": [],
                                        "depth": 2,
                                        "id": 34,
                                        "order": 34
                                    },
                                    {
                                        "children": [],
                                        "depth": 2,
                                        "id": 35,
                                        "order": 35
                                    },
                                    {
                                        "children": [
                                            {
                                                "children": [
                                                    {
                                                        "children": [],
                                                        "depth": 4,
                                                        "id": 38,
                                                        "order": 38
                                                    },
                                                    {
                                                        "children": [],
                                                        "depth": 4,
                                                        "id": 39,
                                                        "order": 39
                                                    }
                                                ],
                                                "depth": 3,
                                                "id": 37,
                                                "order": 37
                                            }
                                        ],
                                        "depth": 2,
                                        "id": 36,
                                        "order": 36
                                    },
                                    {
                                        "children": [],
                                        "depth": 2,
                                        "id": 40,
                                        "order": 40
                                    },
                                    {
                                        "children": [],
                                        "depth": 2,
                                        "id": 41,
                                        "order": 41
                                    },
                                    {
                                        "children": [],
                                        "depth": 2,
                                        "id": 42,
                                        "order": 42
                                    },
                                    {
                                        "children": [
                                            {
                                                "children": [
                                                    {
                                                        "children": [],
                                                        "depth": 4,
                                                        "id": 45,
                                                        "order": 45
                                                    },
                                                    {
                                                        "children": [],
                                                        "depth": 4,
                                                        "id": 46,
                                                        "order": 46
                                                    }
                                                ],
                                                "depth": 3,
                                                "id": 44,
                                                "order": 44
                                            }
                                        ],
                                        "depth": 2,
                                        "id": 43,
                                        "order": 43
                                    },
                                    {
                                        "children": [],
                                        "depth": 2,
                                        "id": 47,
                                        "order": 47
                                    },
                                    {
                                        "children": [],
                                        "depth": 2,
                                        "id": 48,
                                        "order": 48
                                    }
                                ],
                                "depth": 1,
                                "id": 10,
                                "order": 10
                            }
                        ],
                        "depth": 0,
                        "id": 0,
                        "order": 0
                    }
                ],
                "depth": -1,
                "id": -1,
                "order": -1
            }
        ],
        "mainTraceNodeCount": 49,
        "parentIdMap": {
            "0": -1,
            "1": 0,
            "10": 0,
            "11": 10,
            "12": 10,
            "13": 12,
            "14": 13,
            "15": 13,
            "16": 15,
            "17": 15,
            "18": 15,
            "19": 13,
            "2": 0,
            "20": 13,
            "21": 20,
            "22": 20,
            "23": 13,
            "24": 10,
            "25": 10,
            "26": 25,
            "27": 25,
            "28": 10,
            "29": 10,
            "3": 2,
            "30": 29,
            "31": 30,
            "32": 30,
            "33": 10,
            "34": 10,
            "35": 10,
            "36": 10,
            "37": 36,
            "38": 37,
            "39": 37,
            "4": 2,
            "40": 10,
            "41": 10,
            "42": 10,
            "43": 10,
            "44": 43,
            "45": 44,
            "46": 44,
            "47": 10,
            "48": 10,
            "5": 4,
            "6": 5,
            "7": 5,
            "8": 2,
            "9": 2
        },
        "tidyTrace": [
            {
                "children": [
                    {
                        "children": [
                            {
                                "children": [],
                                "depth": 1,
                                "id": 1,
                                "order": 1
                            },
                            {
                                "children": [
                                    {
                                        "children": [
                                            {
                                                "children": [
                                                    {
                                                        "children": [],
                                                        "depth": 4,
                                                        "id": 7,
                                                        "order": 7
                                                    }
                                                ],
                                                "depth": 3,
                                                "id": 5,
                                                "order": 5
                                            }
                                        ],
                                        "depth": 2,
                                        "id": 4,
                                        "order": 4
                                    },
                                    {
                                        "children": [],
                                        "depth": 2,
                                        "id": 9,
                                        "order": 9
                                    }
                                ],
                                "depth": 1,
                                "id": 2,
                                "order": 2
                            },
                            {
                                "children": [
                                    {
                                        "children": [
                                            {
                                                "children": [
                                                    {
                                                        "children": [
                                                            {
                                                                "children": [],
                                                                "depth": 5,
                                                                "id": 16,
                                                                "order": 16
                                                            },
                                                            {
                                                                "children": [],
                                                                "depth": 5,
                                                                "id": 17,
                                                                "order": 17
                                                            },
                                                            {
                                                                "children": [],
                                                                "depth": 5,
                                                                "id": 18,
                                                                "order": 18
                                                            }
                                                        ],
                                                        "depth": 4,
                                                        "id": 15,
                                                        "order": 15
                                                    },
                                                    {
                                                        "children": [
                                                            {
                                                                "children": [],
                                                                "depth": 5,
                                                                "id": 21,
                                                                "order": 21
                                                            },
                                                            {
                                                                "children": [],
                                                                "depth": 5,
                                                                "id": 22,
                                                                "order": 22
                                                            }
                                                        ],
                                                        "depth": 4,
                                                        "id": 20,
                                                        "order": 20
                                                    },
                                                    {
                                                        "children": [],
                                                        "depth": 4,
                                                        "id": 23,
                                                        "order": 23
                                                    }
                                                ],
                                                "depth": 3,
                                                "id": 13,
                                                "order": 13
                                            }
                                        ],
                                        "depth": 2,
                                        "id": 12,
                                        "order": 12
                                    },
                                    {
                                        "children": [
                                            {
                                                "children": [],
                                                "depth": 3,
                                                "id": 26,
                                                "order": 26
                                            },
                                            {
                                                "children": [],
                                                "depth": 3,
                                                "id": 27,
                                                "order": 27
                                            }
                                        ],
                                        "depth": 2,
                                        "id": 25,
                                        "order": 25
                                    },
                                    {
                                        "children": [
                                            {
                                                "children": [
                                                    {
                                                        "children": [],
                                                        "depth": 4,
                                                        "id": 32,
                                                        "order": 32
                                                    }
                                                ],
                                                "depth": 3,
                                                "id": 30,
                                                "order": 30
                                            }
                                        ],
                                        "depth": 2,
                                        "id": 29,
                                        "order": 29
                                    },
                                    {
                                        "children": [],
                                        "depth": 2,
                                        "id": 34,
                                        "order": 34
                                    },
                                    {
                                        "children": [
                                            {
                                                "children": [
                                                    {
                                                        "children": [],
                                                        "depth": 4,
                                                        "id": 39,
                                                        "order": 39
                                                    }
                                                ],
                                                "depth": 3,
                                                "id": 37,
                                                "order": 37
                                            }
                                        ],
                                        "depth": 2,
                                        "id": 36,
                                        "order": 36
                                    },
                                    {
                                        "children": [],
                                        "depth": 2,
                                        "id": 41,
                                        "order": 41
                                    },
                                    {
                                        "children": [
                                            {
                                                "children": [
                                                    {
                                                        "children": [],
                                                        "depth": 4,
                                                        "id": 46,
                                                        "order": 46
                                                    }
                                                ],
                                                "depth": 3,
                                                "id": 44,
                                                "order": 44
                                            }
                                        ],
                                        "depth": 2,
                                        "id": 43,
                                        "order": 43
                                    },
                                    {
                                        "children": [],
                                        "depth": 2,
                                        "id": 48,
                                        "order": 48
                                    }
                                ],
                                "depth": 1,
                                "id": 10,
                                "order": 10
                            }
                        ],
                        "depth": 0,
                        "id": 0,
                        "order": 0
                    }
                ],
                "depth": -1,
                "id": -1,
                "order": -1
            }
        ],
        "tidyTraceNodeCount": 33
    },
    "state_change": {
        "stateChanges": [
            {
                "address": "0x102dc1840f0c3c179670f21fa63597e82df34e60",
                "erc": "ERC-20",
                "slots": [
                    {
                        "current": "0x000000000000000000000000000000000000000000002b691280277346200000",
                        "key": "0x86285a1731bbd6ec91a41b54a039df4afdea9a0efb53781d30ca283f5908d3be",
                        "prev": "0x00000000000000000000000000000000000000000000abc8adbed4b130b1fe9d"
                    },
                    {
                        "current": "0x000000000000000000000000000000000000000000006e106f3f3dd03081b754",
                        "key": "0xcba8abfd4b35793da8fad7d0347cc43bec9b9ae89b689c11aa76d4553e429bc0",
                        "prev": "0x0000000000000000000000000000000000000000000000000000000000000000"
                    },
                    {
                        "current": "0x00000000000000000000000000000000000000000000133ecdf86664b7d1768f",
                        "key": "0x00a82deeabdee797843c2a7fd7fbc4d4a322df3ac9e20eaf5029a54a28955683",
                        "prev": "0x0000000000000000000000000000000000000000000000efa1f8f6f6fdc12f46"
                    },
                    {
                        "current": "0x0000000000000000000000000000000000000000000000000000000000000000",
                        "key": "0xa7d9fee08890c2eeb2cb1a239ae91e373cf9465e7699ea32be8a50bc56363a65",
                        "prev": "0x00000000000000000000000000000000000000000000805f9b3ead3dea91fe9d"
                    }
                ],
                "storageVariables": [
                    {
                        "name": "_balances",
                        "type": "mapping(address => uint256)",
                        "value": {
                            "pairs": [
                                {
                                    "key": "0x102dc1840f0c3c179670f21fa63597e82df34e60",
                                    "value": {
                                        "current": "90883503032248017450639",
                                        "prev": "4420443183591593160518",
                                        "typeTag": 1
                                    }
                                },
                                {
                                    "key": "0x4e2ce48f0b5d97bfd4be3f6c7b6479db1aa5b365",
                                    "value": {
                                        "current": "519763477214666445403988",
                                        "prev": "0",
                                        "typeTag": 1
                                    }
                                },
                                {
                                    "key": "0xfcb72658cbd16f4a89c74a60868dc7cfe35ce123",
                                    "value": {
                                        "current": "0",
                                        "prev": "606226537063322869694109",
                                        "typeTag": 1
                                    }
                                }
                            ],
                            "typeTag": 4
                        }
                    },
                    {
                        "name": "_allowances",
                        "type": "mapping(address => mapping(address => uint256))",
                        "value": {
                            "pairs": [
                                {
                                    "key": "0xfcb72658cbd16f4a89c74a60868dc7cfe35ce123",
                                    "value": {
                                        "pairs": [
                                            {
                                                "key": "0xd3f64baa732061f8b3626ee44bab354f854877ac",
                                                "value": {
                                                    "current": "205000000000000000000000",
                                                    "prev": "811226537063322869694109",
                                                    "typeTag": 1
                                                }
                                            }
                                        ],
                                        "typeTag": 4
                                    }
                                }
                            ],
                            "typeTag": 4
                        }
                    }
                ]
            },
            {
                "address": "0xd3ee4d3fe5f7ed75c017b02cf78fae39a31034d9",
                "erc": "",
                "slots": [
                    {
                        "current": "0x000000000000000000000000d3f64baa732061f8b3626ee44bab354f854877ac",
                        "key": "0x0000000000000000000000000000000000000000000000000000000000000000",
                        "prev": "0x0000000000000000000000000000000000000000000000000000000000000000"
                    }
                ],
                "storageVariables": []
            }
        ]
    }
}