{
    "balance_change": {
        "balanceChanges": [
            {
                "account": "0x19066f7431df29a0910d287c8822936bb7d89e23",
                "assets": [
                    {
                        "address": "0x4200000000000000000000000000000000000042",
                        "amount": "64,126.668267131279072295",
                        "iconUrl": "https://assets.blocksec.com/icon/f3c26069ad80ab44cc5dfe1a823fcef7fbb81d55b25da933666cc6578a094310.png",
                        "isERC1155": false,
                        "isERC721": false,
                        "sign": true,
                        "value": ""
                    }
                ]
            },
            {
                "account": "0x1e65e48532f6cf9747774777f3f1f6dc6cf0d81b",
                "assets": [
                    {
                        "address": "0x4200000000000000000000000000000000000042",
                        "amount": "64,126.668267131279072295",
                        "iconUrl": "https://assets.blocksec.com/icon/f3c26069ad80ab44cc5dfe1a823fcef7fbb81d55b25da933666cc6578a094310.png",
                        "isERC1155": false,
                        "isERC721": false,
                        "sign": false,
                        "value": ""
                    }
                ]
            }
        ]
    },
    "profile": {
        "basic_info": {
            "baseFee": "0.059970057",
            "blockNumber": 119457379,
            "callData": "0xf2afdff30000000000000000000000001e65e48532f6cf9747774777f3f1f6dc6cf0d81b000000000000000000000000000000000000000000000000000000000000004000000000000000000000000000000000000000000000000000000000000000010000000000000000000000004200000000000000000000000000000000000042",
            "debugEnable": true,
            "errorInfo": "",
            "eventCount": 3,
            "feeRecipient": "0x4200000000000000000000000000000000000011",
            "formatValue": "0",
            "gasLimit": 1500000,
            "gasPrice": "0.062303763",
            "gasUsed": 123008,
            "intTxnCount": 8,
            "internalRevert": false,
            "internalRevertMessage": "",
            "isContractCreation": false,
            "isFlashloan": false,
            "maxFee": "0.075973889",
            "nonce": 1,
            "overwritedBlockNumber": -1,
            "priorityFee": "0.002333706",
            "receiver": "0x1da4bc596bfb1087f2f7999b0340fcba03c47fbd",
            "revertMessage": "",
            "sender": "0x19066f7431df29a0910d287c8822936bb7d89e23",
            "simulationEnable": true,
            "sourceTxnHash": "0x6baa6332f9a3ed75e727311d6317fb636844d61d9df5e199f9f68711eb632d6f",
            "status": true,
            "timestamp": "2024-04-30T21:45:35Z",
            "transactionFee": "0.000007689745490512",
            "txnHash": "0x6baa6332f9a3ed75e727311d6317fb636844d61d9df5e199f9f68711eb632d6f",
            "txnIndex": 11,
            "type": 2,
            "value": "0"
        },
        "fund_flow": [
            {
                "amount": "64,126.668267131279072295",
                "from": "0x1e65e48532f6cf9747774777f3f1f6dc6cf0d81b",
                "id": 1,
                "isERC1155": false,
                "isERC721": false,
                "isReverted": false,
                "order": 1,
                "to": "0x19066f7431df29a0910d287c8822936bb7d89e23",
                "token": "0x4200000000000000000000000000000000000042"
            }
        ],
        "token_infos": [
            {
                "address": "0x4200000000000000000000000000000000000006",
                "decimals": 18
            },
            {
                "address": "0x4200000000000000000000000000000000000042",
                "decimals": 18
            },
            {
                "address": "0xeeeeeeeeeeeeeeeeeeeeeeeeeeeeeeeeeeeeeeee",
                "decimals": 18
            }
        ]
    },
    "address_label": {
        "labels": [
            {
                "address": "0x0000000000000000000000000000000000000001",
                "label": "Precompiled"
            },
            {
                "address": "0xeeeeeeeeeeeeeeeeeeeeeeeeeeeeeeeeeeeeeeee",
                "label": "Ether"
            },
            {
                "address": "0x4200000000000000000000000000000000000019",
                "label": "0x4200_Proxy"
            },
            {
                "address": "0x420000000000000000000000000000000000001a",
                "label": "0x4200_Proxy"
            },
            {
                "address": "0x4200000000000000000000000000000000000011",
                "label": "0x4200_Proxy"
            },
            {
                "address": "0x0000000000000000000000000000000000000004",
                "label": "Precompiled"
            },
            {
                "address": "0x19066f7431df29a0910d287c8822936bb7d89e23",
                "label": "Pike Finance Exploiter"
            },
            {
                "address": "0x4200000000000000000000000000000000000042",
                "label": "Optimism: OP Token"
            },
            {
                "address": "0x0000000000000000000000000000000000000002",
                "label": "Precompiled"
            },
            {
                "address": "0x0000000000000000000000000000000000000003",
                "label": "Precompiled"
            }
        ]
    },
    "trace": {
        "accountLabels": null,
        "dataMap": {
            "-1": {
                "invocation": {
                    "address": "0x19066f7431df29a0910d287c8822936bb7d89e23",
                    "callData": "",
                    "decodedMethod": null,
                    "errorInfo": "",
                    "fromAddress": "",
                    "gasUsed": 0,
                    "id": -1,
                    "methodDecoded": false,
                    "operation": "",
                    "output": "",
                    "revert": false,
                    "revertMessage": "",
                    "selector": "",
                    "status": false,
                    "value": ""
                },
                "nodeType": 0
            },
            "0": {
                "invocation": {
                    "address": "0x1da4bc596bfb1087f2f7999b0340fcba03c47fbd",
                    "callData": "0x0000000000000000000000001e65e48532f6cf9747774777f3f1f6dc6cf0d81b000000000000000000000000000000000000000000000000000000000000004000000000000000000000000000000000000000000000000000000000000000010000000000000000000000004200000000000000000000000000000000000042",
                    "decodedMethod": null,
                    "errorInfo": "",
                    "fromAddress": "0x19066f7431df29a0910d287c8822936bb7d89e23",
                    "gasUsed": 123008,
                    "id": 0,
                    "methodDecoded": false,
                    "operation": "CALL",
                    "output": "",
                    "revert": false,
                    "revertMessage": "",
                    "selector": "0xf2afdff3",
                    "status": true,
                    "value": "0"
                },
                "nodeType": 0
            },
            "1": {
                "invocation": {
                    "address": "0x1e65e48532f6cf9747774777f3f1f6dc6cf0d81b",
                    "callData": "0x0000000000000000000000001da4bc596bfb1087f2f7999b0340fcba03c47fbd0000000000000000000000001da4bc596bfb1087f2f7999b0340fcba03c47fbd0000000000000000000000001da4bc596bfb1087f2f7999b0340fcba03c47fbd0000000000000000000000001da4bc596bfb1087f2f7999b0340fcba03c47fbd00000000000000000000000000000000000000000000000000000000000000140000000000000000000000000000000000000000000000000000000000000014",
                    "decodedMethod": {
                        "callParams": [
                            {
                                "name": "_owner",
                                "type": "address",
                                "value": "0x1da4bc596bfb1087f2f7999b0340fcba03c47fbd"
                            },
                            {
                                "name": "_WNativeAddress",
                                "type": "address",
                                "value": "0x1da4bc596bfb1087f2f7999b0340fcba03c47fbd"
                            },
                            {
                                "name": "_uniswapHelperAddress",
                                "type": "address",
                                "value": "0x1da4bc596bfb1087f2f7999b0340fcba03c47fbd"
                            },
                            {
                                "name": "tokenAddress",
                                "type": "address",
                                "value": "0x1da4bc596bfb1087f2f7999b0340fcba03c47fbd"
                            },
                            {
                                "name": "_swapFee",
                                "type": "uint16",
                                "value": "20"
                            },
                            {
                                "name": "_withdrawFee",
                                "type": "uint16",
                                "value": "20"
                            }
                        ],
                        "constructorArguments": "",
                        "name": "initialize",
                        "returnParams": [],
                        "signature": "initialize(address,address,address,address,uint16,uint16)"
                    },
                    "errorInfo": "",
                    "fromAddress": "0x1da4bc596bfb1087f2f7999b0340fcba03c47fbd",
                    "gasUsed": 43047,
                    "id": 1,
                    "methodDecoded": true,
                    "operation": "CALL",
                    "output": "",
                    "revert": false,
                    "revertMessage": "",
                    "selector": "0xfb5e556c",
                    "status": true,
                    "value": "0"
                },
                "nodeType": 0
            },
            "10": {
                "invocation": {
                    "address": "0x4200000000000000000000000000000000000042",
                    "callData": "0x00000000000000000000000019066f7431df29a0910d287c8822936bb7d89e23000000000000000000000000000000000000000000000d94504b874e5a2d5c27",
                    "decodedMethod": {
                        "callParams": [
                            {
                                "name": "to",
                                "type": "address",
                                "value": "0x19066f7431df29a0910d287c8822936bb7d89e23"
                            },
                            {
                                "decimalAvailable": true,
                                "name": "amount",
                                "type": "uint256",
                                "value": "64,126,668,267,131,279,072,295"
                            }
                        ],
                        "constructorArguments": "",
                        "name": "transfer",
                        "returnParams": [
                            {
                                "name": "",
                                "type": "bool",
                                "value": true
                            }
                        ],
                        "signature": "transfer(address,uint256)"
                    },
                    "errorInfo": "",
                    "fromAddress": "0x1e65e48532f6cf9747774777f3f1f6dc6cf0d81b",
                    "gasUsed": 33456,
                    "id": 10,
                    "methodDecoded": true,
                    "operation": "CALL",
                    "output": "0x0000000000000000000000000000000000000000000000000000000000000001",
                    "revert": false,
                    "revertMessage": "",
                    "selector": "0xa9059cbb",
                    "status": true,
                    "value": "0"
                },
                "nodeType": 0
            },
            "11": {
                "event": {
                    "contract": "0x4200000000000000000000000000000000000042",
                    "decodedLog": {
                        "name": "Transfer",
                        "params": [
                            {
                                "name": "from",
                                "type": "address",
                                "value": "0x1e65e48532f6cf9747774777f3f1f6dc6cf0d81b"
                            },
                            {
                                "name": "to",
                                "type": "address",
                                "value": "0x19066f7431df29a0910d287c8822936bb7d89e23"
                            },
                            {
                                "decimalAvailable": true,
                                "name": "value",
                                "type": "uint256",
                                "value": "64,126,668,267,131,279,072,295"
                            }
                        ],
                        "signature": "Transfer(address,address,uint256)"
                    },
                    "id": 11,
                    "logData": "0x000000000000000000000000000000000000000000000d94504b874e5a2d5c27",
                    "logDecoded": true,
                    "operation": "EVENT",
                    "revert": false,
                    "status": true,
                    "topics": [
                        "0xddf252ad1be2c89b69c2b068fc378daa952ba7f163c4a11628f55a4df523b3ef",
                        "0x0000000000000000000000001e65e48532f6cf9747774777f3f1f6dc6cf0d81b",
                        "0x00000000000000000000000019066f7431df29a0910d287c8822936bb7d89e23"
                    ]
                },
                "nodeType": 1
            },
            "2": {
                "invocation": {
                    "address": "0x860ed3d7ba65a25625233ecf34dc1b04d0f46eb9",
                    "callData": "0x0000000000000000000000001da4bc596bfb1087f2f7999b0340fcba03c47fbd0000000000000000000000001da4bc596bfb1087f2f7999b0340fcba03c47fbd0000000000000000000000001da4bc596bfb1087f2f7999b0340fcba03c47fbd0000000000000000000000001da4bc596bfb1087f2f7999b0340fcba03c47fbd00000000000000000000000000000000000000000000000000000000000000140000000000000000000000000000000000000000000000000000000000000014",
                    "decodedMethod": {
                        "callParams": [
                            {
                                "name": "_owner",
                                "type": "address",
                                "value": "0x1da4bc596bfb1087f2f7999b0340fcba03c47fbd"
                            },
                            {
                                "name": "_WNativeAddress",
                                "type": "address",
                                "value": "0x1da4bc596bfb1087f2f7999b0340fcba03c47fbd"
                            },
                            {
                                "name": "_uniswapHelperAddress",
                                "type": "address",
                                "value": "0x1da4bc596bfb1087f2f7999b0340fcba03c47fbd"
                            },
                            {
                                "name": "tokenAddress",
                                "type": "address",
                                "value": "0x1da4bc596bfb1087f2f7999b0340fcba03c47fbd"
                            },
                            {
                                "name": "_swapFee",
                                "type": "uint16",
                                "value": "20"
                            },
                            {
                                "name": "_withdrawFee",
                                "type": "uint16",
                                "value": "20"
                            }
                        ],
                        "constructorArguments": "",
                        "name": "initialize",
                        "returnParams": [],
                        "signature": "initialize(address,address,address,address,uint16,uint16)"
                    },
                    "errorInfo": "",
                    "fromAddress": "0x1e65e48532f6cf9747774777f3f1f6dc6cf0d81b",
                    "gasUsed": 38125,
                    "id": 2,
                    "methodDecoded": true,
                    "operation": "DELEGATECALL",
                    "output": "",
                    "revert": false,
                    "revertMessage": "",
                    "selector": "0xfb5e556c",
                    "status": true,
                    "value": "0"
                },
                "nodeType": 0
            },
            "3": {
                "event": {
                    "contract": "0x1e65e48532f6cf9747774777f3f1f6dc6cf0d81b",
                    "decodedLog": {
                        "name": "Initialized",
                        "params": [
                            {
                                "name": "version",
                                "type": "uint8",
                                "value": "1"
                            }
                        ],
                        "signature": "Initialized(uint8)"
                    },
                    "id": 3,
                    "logData": "0x0000000000000000000000000000000000000000000000000000000000000001",
                    "logDecoded": true,
                    "operation": "EVENT",
                    "revert": false,
                    "status": true,
                    "topics": [
                        "0x7f26b83ff96e1f2b6a682f133852f6798a09c465da95921460cefb3847402498"
                    ]
                },
                "nodeType": 1
            },
            "4": {
                "invocation": {
                    "address": "0x1e65e48532f6cf9747774777f3f1f6dc6cf0d81b",
                    "callData": "0x0000000000000000000000001da4bc596bfb1087f2f7999b0340fcba03c47fbd00000000000000000000000000000000000000000000000000000000000000400000000000000000000000000000000000000000000000000000000000000064fbd28ffb00000000000000000000000000000000000000000000000000000000000000200000000000000000000000000000000000000000000000000000000000000001000000000000000000000000420000000000000000000000000000000000004200000000000000000000000000000000000000000000000000000000",
                    "decodedMethod": {
                        "callParams": [
                            {
                                "name": "newImplementation",
                                "type": "address",
                                "value": "0x1da4bc596bfb1087f2f7999b0340fcba03c47fbd"
                            },
                            {
                                "name": "data",
                                "type": "bytes",
                                "value": "0xfbd28ffb000000000000000000000000000000000000000000000000000000000000002000000000000000000000000000000000000000000000000000000000000000010000000000000000000000004200000000000000000000000000000000000042"
                            }
                        ],
                        "constructorArguments": "",
                        "name": "upgradeToAndCall",
                        "returnParams": [],
                        "signature": "upgradeToAndCall(address,bytes)"
                    },
                    "errorInfo": "",
                    "fromAddress": "0x1da4bc596bfb1087f2f7999b0340fcba03c47fbd",
                    "gasUsed": 51767,
                    "id": 4,
                    "methodDecoded": true,
                    "operation": "CALL",
                    "output": "",
                    "revert": false,
                    "revertMessage": "",
                    "selector": "0x4f1ef286",
                    "status": true,
                    "value": "0"
                },
                "nodeType": 0
            },
            "5": {
                "invocation": {
                    "address": "0x860ed3d7ba65a25625233ecf34dc1b04d0f46eb9",
                    "callData": "0x0000000000000000000000001da4bc596bfb1087f2f7999b0340fcba03c47fbd00000000000000000000000000000000000000000000000000000000000000400000000000000000000000000000000000000000000000000000000000000064fbd28ffb00000000000000000000000000000000000000000000000000000000000000200000000000000000000000000000000000000000000000000000000000000001000000000000000000000000420000000000000000000000000000000000004200000000000000000000000000000000000000000000000000000000",
                    "decodedMethod": {
                        "callParams": [
                            {
                                "name": "newImplementation",
                                "type": "address",
                                "value": "0x1da4bc596bfb1087f2f7999b0340fcba03c47fbd"
                            },
                            {
                                "name": "data",
                                "type": "bytes",
                                "value": "0xfbd28ffb000000000000000000000000000000000000000000000000000000000000002000000000000000000000000000000000000000000000000000000000000000010000000000000000000000004200000000000000000000000000000000000042"
                            }
                        ],
                        "constructorArguments": "",
                        "name": "upgradeToAndCall",
                        "returnParams": [],
                        "signature": "upgradeToAndCall(address,bytes)"
                    },
                    "errorInfo": "",
                    "fromAddress": "0x1e65e48532f6cf9747774777f3f1f6dc6cf0d81b",
                    "gasUsed": 51339,
                    "id": 5,
                    "methodDecoded": true,
                    "operation": "DELEGATECALL",
                    "output": "",
                    "revert": false,
                    "revertMessage": "",
                    "selector": "0x4f1ef286",
                    "status": true,
                    "value": "0"
                },
                "nodeType": 0
            },
            "6": {
                "invocation": {
                    "address": "0x1da4bc596bfb1087f2f7999b0340fcba03c47fbd",
                    "callData": "0x",
                    "decodedMethod": {
                        "callParams": [],
                        "constructorArguments": "",
                        "name": "proxiableUUID",
                        "returnParams": [
                            {
                                "name": "",
                                "type": "bytes32",
                                "value": "0x360894a13ba1a3210667c828492db98dca3e2076cc3735a920a3ca505d382bbc"
                            }
                        ],
                        "signature": "proxiableUUID()"
                    },
                    "errorInfo": "",
                    "fromAddress": "0x1e65e48532f6cf9747774777f3f1f6dc6cf0d81b",
                    "gasUsed": 315,
                    "id": 6,
                    "methodDecoded": true,
                    "operation": "STATICCALL",
                    "output": "0x360894a13ba1a3210667c828492db98dca3e2076cc3735a920a3ca505d382bbc",
                    "revert": false,
                    "revertMessage": "",
                    "selector": "0x52d1902d",
                    "status": true,
                    "value": "0"
                },
                "nodeType": 0
            },
            "7": {
                "event": {
                    "contract": "0x1e65e48532f6cf9747774777f3f1f6dc6cf0d81b",
                    "decodedLog": {
                        "name": "Upgraded",
                        "params": [
                            {
                                "name": "implementation",
                                "type": "address",
                                "value": "0x1da4bc596bfb1087f2f7999b0340fcba03c47fbd"
                            }
                        ],
                        "signature": "Upgraded(address)"
                    },
                    "id": 7,
                    "logData": "0x",
                    "logDecoded": true,
                    "operation": "EVENT",
                    "revert": false,
                    "status": true,
                    "topics": [
                        "0xbc7cd75a20ee27fd9adebab32041f755214dbc6bffa90cc0225b39da2e5c2d3b",
                        "0x0000000000000000000000001da4bc596bfb1087f2f7999b0340fcba03c47fbd"
                    ]
                },
                "nodeType": 1
            },
            "8": {
                "invocation": {
                    "address": "0x1da4bc596bfb1087f2f7999b0340fcba03c47fbd",
                    "callData": "0x000000000000000000000000000000000000000000000000000000000000002000000000000000000000000000000000000000000000000000000000000000010000000000000000000000004200000000000000000000000000000000000042",
                    "decodedMethod": null,
                    "errorInfo": "",
                    "fromAddress": "0x1e65e48532f6cf9747774777f3f1f6dc6cf0d81b",
                    "gasUsed": 41621,
                    "id": 8,
                    "methodDecoded": false,
                    "operation": "DELEGATECALL",
                    "output": "",
                    "revert": false,
                    "revertMessage": "",
                    "selector": "0xfbd28ffb",
                    "status": true,
                    "value": "0"
                },
                "nodeType": 0
            },
            "9": {
                "invocation": {
                    "address": "0x4200000000000000000000000000000000000042",
                    "callData": "0x0000000000000000000000001e65e48532f6cf9747774777f3f1f6dc6cf0d81b",
                    "decodedMethod": {
                        "callParams": [
                            {
                                "name": "account",
                                "type": "address",
                                "value": "0x1e65e48532f6cf9747774777f3f1f6dc6cf0d81b"
                            }
                        ],
                        "constructorArguments": "",
                        "name": "balanceOf",
                        "returnParams": [
                            {
                                "decimalAvailable": true,
                                "name": "",
                                "type": "uint256",
                                "value": "64,126,668,267,131,279,072,295"
                            }
                        ],
                        "signature": "balanceOf(address)"
                    },
                    "errorInfo": "",
                    "fromAddress": "0x1e65e48532f6cf9747774777f3f1f6dc6cf0d81b",
                    "gasUsed": 2952,
                    "id": 9,
                    "methodDecoded": true,
                    "operation": "STATICCALL",
                    "output": "0x000000000000000000000000000000000000000000000d94504b874e5a2d5c27",
                    "revert": false,
                    "revertMessage": "",
                    "selector": "0x70a08231",
                    "status": true,
                    "value": "0"
                },
                "nodeType": 0
            }
        },
        "gasFlame": [
            {
                "children": [
                    {
                        "children": [
                            {
                                "children": [],
                                "depth": 0,
                                "name": "Initial Gas",
                                "value": 21864
                            },
                            {
                                "children": [
                                    {
                                        "children": [
                                            {
                                                "children": [],
                                                "depth": 2,
                                                "name": "initialize",
                                                "value": 38125
                                            }
                                        ],
                                        "depth": 1,
                                        "name": "initialize",
                                        "value": 43047
                                    },
                                    {
                                        "children": [
                                            {
                                                "children": [
                                                    {
                                                        "children": [],
                                                        "depth": 3,
                                                        "name": "proxiableUUID",
                                                        "value": 315
                                                    },
                                                    {
                                                        "children": [
                                                            {
                                                                "children": [],
                                                                "depth": 4,
                                                                "name": "balanceOf",
                                                                "value": 2952
                                                            },
                                                            {
                                                                "children": [],
                                                                "depth": 4,
                                                                "name": "transfer",
                                                                "value": 33456
                                                            }
                                                        ],
                                                        "depth": 3,
                                                        "name": "0xfbd28ffb",
                                                        "value": 41621
                                                    }
                                                ],
                                                "depth": 2,
                                                "name": "upgradeToAndCall",
                                                "value": 51339
                                            }
                                        ],
                                        "depth": 1,
                                        "name": "upgradeToAndCall",
                                        "value": 51767
                                    }
                                ],
                                "depth": 0,
                                "name": "Executed Gas",
                                "value": 105944
                            }
                        ],
                        "depth": -1,
                        "name": "Actual Gas Used",
                        "value": 123008
                    },
                    {
                        "children": [],
                        "depth": -1,
                        "name": "Refunded Gas",
                        "value": 4800
                    }
                ],
                "depth": -2,
                "name": "Total Gas",
                "value": 127808
            }
        ],
        "isConfirmed": true,
        "mainTrace": [
            {
                "children": [
                    {
                        "children": [
                            {
                                "children": [
                                    {
                                        "children": [
                                            {
                                                "children": [],
                                                "depth": 3,
                                                "id": 3,
                                                "order": 3
                                            }
                                        ],
                                        "depth": 2,
                                        "id": 2,
                                        "order": 2
                                    }
                                ],
                                "depth": 1,
                                "id": 1,
                                "order": 1
                            },
                            {
                                "children": [
                                    {
                                        "children": [
                                            {
                                                "children": [],
                                                "depth": 3,
                                                "id": 6,
                                                "order": 6
                                            },
                                            {
                                                "children": [],
                                                "depth": 3,
                                                "id": 7,
                                                "order": 7
                                            },
                                            {
                                                "children": [
                                                    {
                                                        "children": [],
                                                        "depth": 4,
                                                        "id": 9,
                                                        "order": 9
                                                    },
                                                    {
                                                        "children": [
                                                            {
                                                                "children": [],
                                                                "depth": 5,
                                                                "id": 11,
                                                                "order": 11
                                                            }
                                                        ],
                                                        "depth": 4,
                                                        "id": 10,
                                                        "order": 10
                                                    }
                                                ],
                                                "depth": 3,
                                                "id": 8,
                                                "order": 8
                                            }
                                        ],
                                        "depth": 2,
                                        "id": 5,
                                        "order": 5
                                    }
                                ],
                                "depth": 1,
                                "id": 4,
                                "order": 4
                            }
                        ],
                        "depth": 0,
                        "id": 0,
                        "order": 0
                    }
                ],
                "depth": -1,
                "id": -1,
                "order": -1
            }
        ],
        "mainTraceNodeCount": 12,
        "parentIdMap": {
            "0": -1,
            "1": 0,
            "10": 8,
            "11": 10,
            "2": 1,
            "3": 2,
            "4": 0,
            "5": 4,
            "6": 5,
            "7": 5,
            "8": 5,
            "9": 8
        },
        "tidyTrace": [
            {
                "children": [
                    {
                        "children": [
                            {
                                "children": [
                                    {
                                        "children": [
                                            {
                                                "children": [],
                                                "depth": 3,
                                                "id": 3,
                                                "order": 3
                                            }
                                        ],
                                        "depth": 2,
                                        "id": 2,
                                        "order": 2
                                    }
                                ],
                                "depth": 1,
                                "id": 1,
                                "order": 1
                            },
                            {
                                "children": [
                                    {
                                        "children": [
                                            {
                                                "children": [],
                                                "depth": 3,
                                                "id": 7,
                                                "order": 7
                                            },
                                            {
                                                "children": [
                                                    {
                                                        "children": [
                                                            {
                                                                "children": [],
                                                                "depth": 5,
                                                                "id": 11,
                                                                "order": 11
                                                            }
                                                        ],
                                                        "depth": 4,
                                                        "id": 10,
                                                        "order": 10
                                                    }
                                                ],
                                                "depth": 3,
                                                "id": 8,
                                                "order": 8
                                            }
                                        ],
                                        "depth": 2,
                                        "id": 5,
                                        "order": 5
                                    }
                                ],
                                "depth": 1,
                                "id": 4,
                                "order": 4
                            }
                        ],
                        "depth": 0,
                        "id": 0,
                        "order": 0
                    }
                ],
                "depth": -1,
                "id": -1,
                "order": -1
            }
        ],
        "tidyTraceNodeCount": 10
    },
    "state_change": {
        "stateChanges": [
            {
                "address": "0x1e65e48532f6cf9747774777f3f1f6dc6cf0d81b",
                "erc": "",
                "slots": [
                    {
                        "current": "0x0000000000000000000000000000000000000000000000000000000000000101",
                        "key": "0x000000000000000000000000000000000000000000000000000000000000000b",
                        "prev": "0x0000000000000000000000000000000000000000000000000000000000000001"
                    },
                    {
                        "current": "0x0000000000000000000000001da4bc596bfb1087f2f7999b0340fcba03c47fbd",
                        "key": "0x0000000000000000000000000000000000000000000000000000000000000001",
                        "prev": "0x000000000000000000000000de842eadcd27f2913a0802179edd9c07b14edd6e"
                    },
                    {
                        "current": "0x0000000000000000000000001da4bc596bfb1087f2f7999b0340fcba03c47fbd",
                        "key": "0x0000000000000000000000000000000000000000000000000000000000000002",
                        "prev": "0x00000000000000000000000046adcf744d7c532d55cd899df3c7b0e64e1a587c"
                    },
                    {
                        "current": "0x0000000000000000000000001da4bc596bfb1087f2f7999b0340fcba03c47fbd",
                        "key": "0x0000000000000000000000000000000000000000000000000000000000000003",
                        "prev": "0x00000000000000000000000027428dd2d3dd32a4d7f7c497eaaa23130d894911"
                    },
                    {
                        "current": "0x0000000000000000000000001da4bc596bfb1087f2f7999b0340fcba03c47fbd",
                        "key": "0x0000000000000000000000000000000000000000000000000000000000000004",
                        "prev": "0x0000000000000000000000007856493b59cdb1685757a6dcce12425f6a6666a0"
                    },
                    {
                        "current": "0x000000000000001da4bc596bfb1087f2f7999b0340fcba03c47fbd0014001401",
                        "key": "0x0000000000000000000000000000000000000000000000000000000000000000",
                        "prev": "0x00000000000000b1ea97c9f68978905fb1bf5089e71a073bc4f5c80018001e01"
                    },
                    {
                        "current": "0x000000000000000000000000eeeeeeeeeeeeeeeeeeeeeeeeeeeeeeeeeeeeeeee",
                        "key": "0x0000000000000000000000000000000000000000000000000000000000000009",
                        "prev": "0x000000000000000000000000615e4beebc106829df114d80c9029ee8a131157b"
                    },
                    {
                        "current": "0x0000000000000000000000001da4bc596bfb1087f2f7999b0340fcba03c47fbd",
                        "key": "0x360894a13ba1a3210667c828492db98dca3e2076cc3735a920a3ca505d382bbc",
                        "prev": "0x000000000000000000000000860ed3d7ba65a25625233ecf34dc1b04d0f46eb9"
                    }
                ],
                "storageVariables": [
                    {
                        "name": "logic contract address(EIP1967)",
                        "type": "address",
                        "value": {
                            "current": "0x1da4bc596bfb1087f2f7999b0340fcba03c47fbd",
                            "prev": "0x860ed3d7ba65a25625233ecf34dc1b04d0f46eb9",
                            "typeTag": 1
                        }
                    }
                ]
            },
            {
                "address": "0x4200000000000000000000000000000000000042",
                "erc": "ERC-20",
                "slots": [
                    {
                        "current": "0x0000000000000000000000000000000000000000000000000000000000000000",
                        "key": "0x4e546c1199f02faf5be81493fc986877ae38d7ebf3cbe72f0b77f7fafd28b126",
                        "prev": "0x000000000000000000000000000000000000000000000d94504b874e5a2d5c27"
                    },
                    {
                        "current": "0x000000000000000000000000000000000000000000000d94504b874e5a2d5c27",
                        "key": "0x8d12aa351aae2190e425ecd4693d2d5dcd3db94208799ef9f7b5475bc84544c5",
                        "prev": "0x0000000000000000000000000000000000000000000000000000000000000000"
                    }
                ],
                "storageVariables": [
                    {
                        "name": "_balances",
                        "type": "mapping(address => uint256)",
                        "value": {
                            "pairs": [
                                {
                                    "key": "0x19066f7431df29a0910d287c8822936bb7d89e23",
                                    "value": {
                                        "current": "64126668267131279072295",
                                        "prev": "0",
                                        "typeTag": 1
                                    }
                                },
                                {
                                    "key": "0x1e65e48532f6cf9747774777f3f1f6dc6cf0d81b",
                                    "value": {
                                        "current": "0",
                                        "prev": "64126668267131279072295",
                                        "typeTag": 1
                                    }
                                }
                            ],
                            "typeTag": 4
                        }
                    }
                ]
            }
        ]
    }
}