{
    "balance_change": {
        "balanceChanges": [
            {
                "account": "0x94641c01a4937f2c8ef930580cf396142a2942dc",
                "assets": [
                    {
                        "address": "0xc69ad9bab1dee23f4605a82b3354f8e40d1e5966",
                        "amount": "20",
                        "iconUrl": "",
                        "isERC1155": false,
                        "isERC721": false,
                        "sign": true,
                        "value": "35770.9431"
                    }
                ]
            },
            {
                "account": "0x9c0d1f4a029c46265831d120dee9cdc72f0ab3c3",
                "assets": [
                    {
                        "address": "0xc69ad9bab1dee23f4605a82b3354f8e40d1e5966",
                        "amount": "20",
                        "iconUrl": "",
                        "isERC1155": false,
                        "isERC721": false,
                        "sign": false,
                        "value": "35770.9431"
                    }
                ]
            }
        ]
    },
    "profile": {
        "basic_info": {
            "baseFee": "62.179432953",
            "blockNumber": 19326252,
            "callData": "0x568d8cd9000000000000000000000000000000000000000000000000000000000000006000000000000000000000000000000000000000000000000000000000000000a000000000000000000000000000000000000000000000000000000000000000e00000000000000000000000000000000000000000000000000000000000000001000000000000000000000000000000000000000000000000000000000000001e00000000000000000000000000000000000000000000000000000000000000010000000000000000000000000000000000000000000000000000000000000000000000000000000000000000000000000000000000000000000000000000000100000000000000000000000000000000000000000000000000000000000000200000000000000000000000000000000000000000000000000000000000000140000000000000000000000000c69ad9bab1dee23f4605a82b3354f8e40d1e596600000000000000000000000000000000000000000000000000000000000000a0000000000000000000000000000000000000000000000000000000000000000000000000000000000000000000000000000000000000000000000000000000000000000000000000000000000000000000000000000000000000000000000000000000000000000000000000000000000000000000000000000000000000006423b872dd0000000000000000000000009c0d1f4a029c46265831d120dee9cdc72f0ab3c300000000000000000000000094641c01a4937f2c8ef930580cf396142a2942dc000000000000000000000000000000000000000000000001158e460913d0000000000000000000000000000000000000000000000000000000000000",
            "debugEnable": true,
            "errorInfo": "",
            "eventCount": 2,
            "feeRecipient": "0x388c818ca8b9251b393131c08a736a67ccb19297",
            "formatValue": "0",
            "gasLimit": 127675,
            "gasPrice": "62.222369655",
            "gasUsed": 73888,
            "intTxnCount": 2,
            "internalRevert": false,
            "internalRevertMessage": "",
            "isContractCreation": false,
            "isFlashloan": false,
            "maxFee": "84.872531902",
            "nonce": 19,
            "overwritedBlockNumber": -1,
            "priorityFee": "0.042936702",
            "receiver": "0xbc83f2711d0749d7454e4a9d53d8594df0377c05",
            "revertMessage": "",
            "sender": "0x94641c01a4937f2c8ef930580cf396142a2942dc",
            "simulationEnable": true,
            "sourceTxnHash": "0x6e1baa7ade5bbbabd1cefeb807327aec6082b8b467b9ff74772959c27520c743",
            "status": true,
            "timestamp": "2024-02-28T13:14:35Z",
            "transactionFee": "0.00459748644906864",
            "txnHash": "0x6e1baa7ade5bbbabd1cefeb807327aec6082b8b467b9ff74772959c27520c743",
            "txnIndex": 88,
            "type": 2,
            "value": "0"
        },
        "fund_flow": [
            {
                "amount": "20",
                "from": "0x9c0d1f4a029c46265831d120dee9cdc72f0ab3c3",
                "id": 1,
                "isERC1155": false,
                "isERC721": false,
                "isReverted": false,
                "order": 1,
                "to": "0x94641c01a4937f2c8ef930580cf396142a2942dc",
                "token": "0xc69ad9bab1dee23f4605a82b3354f8e40d1e5966"
            }
        ],
        "token_infos": [
            {
                "address": "0xc02aaa39b223fe8d0a0e5c4f27ead9083c756cc2",
                "decimals": 18
            },
            {
                "address": "0xc69ad9bab1dee23f4605a82b3354f8e40d1e5966",
                "decimals": 18
            },
            {
                "address": "0xeeeeeeeeeeeeeeeeeeeeeeeeeeeeeeeeeeeeeeee",
                "decimals": 18
            }
        ]
    },
    "address_label": {
        "labels": [
            {
                "address": "0x0000000000000000000000000000000000000003",
                "label": "Precompiled"
            },
            {
                "address": "0xeeeeeeeeeeeeeeeeeeeeeeeeeeeeeeeeeeeeeeee",
                "label": "Ether"
            },
            {
                "address": "0x94641c01a4937f2c8ef930580cf396142a2942dc",
                "label": "Seneca Exploiter"
            },
            {
                "address": "0x9c0d1f4a029c46265831d120dee9cdc72f0ab3c3",
                "label": "Fake_Phishing279262"
            },
            {
                "address": "0xc69ad9bab1dee23f4605a82b3354f8e40d1e5966",
                "label": "Pendle: PT-weETH-27JUN2024 Token"
            },
            {
                "address": "0x45e15d1e4f92f28a916f4f2971ad9adc278e148b",
                "label": "Chamber"
            },
            {
                "address": "0x388c818ca8b9251b393131c08a736a67ccb19297",
                "label": "LidoExecutionLayerRewardsVault"
            },
            {
                "address": "0x0000000000000000000000000000000000000002",
                "label": "Precompiled"
            },
            {
                "address": "0xbc83f2711d0749d7454e4a9d53d8594df0377c05",
                "label": "Seneca: Chamber"
            },
            {
                "address": "0x0000000000000000000000000000000000000001",
                "label": "Precompiled"
            },
            {
                "address": "0x0000000000000000000000000000000000000004",
                "label": "Precompiled"
            }
        ]
    },
    "trace": {
        "accountLabels": null,
        "dataMap": {
            "-1": {
                "invocation": {
                    "address": "0x94641c01a4937f2c8ef930580cf396142a2942dc",
                    "callData": "",
                    "decodedMethod": null,
                    "errorInfo": "",
                    "fromAddress": "",
                    "gasUsed": 0,
                    "id": -1,
                    "methodDecoded": false,
                    "operation": "",
                    "output": "",
                    "revert": false,
                    "revertMessage": "",
                    "selector": "",
                    "status": false,
                    "value": ""
                },
                "nodeType": 0
            },
            "0": {
                "invocation": {
                    "address": "0xbc83f2711d0749d7454e4a9d53d8594df0377c05",
                    "callData": "0x000000000000000000000000000000000000000000000000000000000000006000000000000000000000000000000000000000000000000000000000000000a000000000000000000000000000000000000000000000000000000000000000e00000000000000000000000000000000000000000000000000000000000000001000000000000000000000000000000000000000000000000000000000000001e00000000000000000000000000000000000000000000000000000000000000010000000000000000000000000000000000000000000000000000000000000000000000000000000000000000000000000000000000000000000000000000000100000000000000000000000000000000000000000000000000000000000000200000000000000000000000000000000000000000000000000000000000000140000000000000000000000000c69ad9bab1dee23f4605a82b3354f8e40d1e596600000000000000000000000000000000000000000000000000000000000000a0000000000000000000000000000000000000000000000000000000000000000000000000000000000000000000000000000000000000000000000000000000000000000000000000000000000000000000000000000000000000000000000000000000000000000000000000000000000000000000000000000000000000006423b872dd0000000000000000000000009c0d1f4a029c46265831d120dee9cdc72f0ab3c300000000000000000000000094641c01a4937f2c8ef930580cf396142a2942dc000000000000000000000000000000000000000000000001158e460913d0000000000000000000000000000000000000000000000000000000000000",
                    "decodedMethod": {
                        "callParams": [
                            {
                                "name": "actions",
                                "type": "uint8[]",
                                "value": [
                                    "30"
                                ]
                            },
                            {
                                "name": "values",
                                "type": "uint256[]",
                                "value": [
                                    "0"
                                ]
                            },
                            {
                                "name": "datas",
                                "type": "bytes[]",
                                "value": [
                                    "0x000000000000000000000000c69ad9bab1dee23f4605a82b3354f8e40d1e596600000000000000000000000000000000000000000000000000000000000000a0000000000000000000000000000000000000000000000000000000000000000000000000000000000000000000000000000000000000000000000000000000000000000000000000000000000000000000000000000000000000000000000000000000000000000000000000000000000000000000000000000000000000006423b872dd0000000000000000000000009c0d1f4a029c46265831d120dee9cdc72f0ab3c300000000000000000000000094641c01a4937f2c8ef930580cf396142a2942dc000000000000000000000000000000000000000000000001158e460913d0000000000000000000000000000000000000000000000000000000000000"
                                ]
                            }
                        ],
                        "constructorArguments": "",
                        "name": "performOperations",
                        "returnParams": [
                            {
                                "name": "value1",
                                "type": "uint256",
                                "value": "0"
                            },
                            {
                                "name": "value2",
                                "type": "uint256",
                                "value": "0"
                            }
                        ],
                        "signature": "performOperations(uint8[],uint256[],bytes[])"
                    },
                    "errorInfo": "",
                    "fromAddress": "0x94641c01a4937f2c8ef930580cf396142a2942dc",
                    "gasUsed": 73888,
                    "id": 0,
                    "methodDecoded": true,
                    "operation": "CALL",
                    "output": "0x00000000000000000000000000000000000000000000000000000000000000000000000000000000000000000000000000000000000000000000000000000000",
                    "revert": false,
                    "revertMessage": "",
                    "selector": "0x568d8cd9",
                    "status": true,
                    "value": "0"
                },
                "nodeType": 0
            },
            "1": {
                "invocation": {
                    "address": "0x45e15d1e4f92f28a916f4f2971ad9adc278e148b",
                    "callData": "0x000000000000000000000000000000000000000000000000000000000000006000000000000000000000000000000000000000000000000000000000000000a000000000000000000000000000000000000000000000000000000000000000e00000000000000000000000000000000000000000000000000000000000000001000000000000000000000000000000000000000000000000000000000000001e00000000000000000000000000000000000000000000000000000000000000010000000000000000000000000000000000000000000000000000000000000000000000000000000000000000000000000000000000000000000000000000000100000000000000000000000000000000000000000000000000000000000000200000000000000000000000000000000000000000000000000000000000000140000000000000000000000000c69ad9bab1dee23f4605a82b3354f8e40d1e596600000000000000000000000000000000000000000000000000000000000000a0000000000000000000000000000000000000000000000000000000000000000000000000000000000000000000000000000000000000000000000000000000000000000000000000000000000000000000000000000000000000000000000000000000000000000000000000000000000000000000000000000000000000006423b872dd0000000000000000000000009c0d1f4a029c46265831d120dee9cdc72f0ab3c300000000000000000000000094641c01a4937f2c8ef930580cf396142a2942dc000000000000000000000000000000000000000000000001158e460913d0000000000000000000000000000000000000000000000000000000000000",
                    "decodedMethod": {
                        "callParams": [
                            {
                                "name": "actions",
                                "type": "uint8[]",
                                "value": [
                                    "30"
                                ]
                            },
                            {
                                "name": "values",
                                "type": "uint256[]",
                                "value": [
                                    "0"
                                ]
                            },
                            {
                                "name": "datas",
                                "type": "bytes[]",
                                "value": [
                                    "0x000000000000000000000000c69ad9bab1dee23f4605a82b3354f8e40d1e596600000000000000000000000000000000000000000000000000000000000000a0000000000000000000000000000000000000000000000000000000000000000000000000000000000000000000000000000000000000000000000000000000000000000000000000000000000000000000000000000000000000000000000000000000000000000000000000000000000000000000000000000000000000006423b872dd0000000000000000000000009c0d1f4a029c46265831d120dee9cdc72f0ab3c300000000000000000000000094641c01a4937f2c8ef930580cf396142a2942dc000000000000000000000000000000000000000000000001158e460913d0000000000000000000000000000000000000000000000000000000000000"
                                ]
                            }
                        ],
                        "constructorArguments": "",
                        "name": "performOperations",
                        "returnParams": [
                            {
                                "name": "value1",
                                "type": "uint256",
                                "value": "0"
                            },
                            {
                                "name": "value2",
                                "type": "uint256",
                                "value": "0"
                            }
                        ],
                        "signature": "performOperations(uint8[],uint256[],bytes[])"
                    },
                    "errorInfo": "",
                    "fromAddress": "0xbc83f2711d0749d7454e4a9d53d8594df0377c05",
                    "gasUsed": 54079,
                    "id": 1,
                    "methodDecoded": true,
                    "operation": "DELEGATECALL",
                    "output": "0x00000000000000000000000000000000000000000000000000000000000000000000000000000000000000000000000000000000000000000000000000000000",
                    "revert": false,
                    "revertMessage": "",
                    "selector": "0x568d8cd9",
                    "status": true,
                    "value": "0"
                },
                "nodeType": 0
            },
            "2": {
                "invocation": {
                    "address": "0xc69ad9bab1dee23f4605a82b3354f8e40d1e5966",
                    "callData": "0x0000000000000000000000009c0d1f4a029c46265831d120dee9cdc72f0ab3c300000000000000000000000094641c01a4937f2c8ef930580cf396142a2942dc000000000000000000000000000000000000000000000001158e460913d00000",
                    "decodedMethod": {
                        "callParams": [
                            {
                                "name": "from",
                                "type": "address",
                                "value": "0x9c0d1f4a029c46265831d120dee9cdc72f0ab3c3"
                            },
                            {
                                "name": "to",
                                "type": "address",
                                "value": "0x94641c01a4937f2c8ef930580cf396142a2942dc"
                            },
                            {
                                "decimalAvailable": true,
                                "name": "amount",
                                "type": "uint256",
                                "value": "20,000,000,000,000,000,000"
                            }
                        ],
                        "constructorArguments": "",
                        "name": "transferFrom",
                        "returnParams": [
                            {
                                "name": "",
                                "type": "bool",
                                "value": true
                            }
                        ],
                        "signature": "transferFrom(address,address,uint256)"
                    },
                    "errorInfo": "",
                    "fromAddress": "0xbc83f2711d0749d7454e4a9d53d8594df0377c05",
                    "gasUsed": 42232,
                    "id": 2,
                    "methodDecoded": true,
                    "operation": "CALL",
                    "output": "0x0000000000000000000000000000000000000000000000000000000000000001",
                    "revert": false,
                    "revertMessage": "",
                    "selector": "0x23b872dd",
                    "status": true,
                    "value": "0"
                },
                "nodeType": 0
            },
            "3": {
                "event": {
                    "contract": "0xc69ad9bab1dee23f4605a82b3354f8e40d1e5966",
                    "decodedLog": {
                        "name": "Approval",
                        "params": [
                            {
                                "name": "owner",
                                "type": "address",
                                "value": "0x9c0d1f4a029c46265831d120dee9cdc72f0ab3c3"
                            },
                            {
                                "name": "spender",
                                "type": "address",
                                "value": "0xbc83f2711d0749d7454e4a9d53d8594df0377c05"
                            },
                            {
                                "decimalAvailable": true,
                                "name": "value",
                                "type": "uint256",
                                "value": "0"
                            }
                        ],
                        "signature": "Approval(address,address,uint256)"
                    },
                    "id": 3,
                    "logData": "0x0000000000000000000000000000000000000000000000000000000000000000",
                    "logDecoded": true,
                    "operation": "EVENT",
                    "revert": false,
                    "status": true,
                    "topics": [
                        "0x8c5be1e5ebec7d5bd14f71427d1e84f3dd0314c0f7b2291e5b200ac8c7c3b925",
                        "0x0000000000000000000000009c0d1f4a029c46265831d120dee9cdc72f0ab3c3",
                        "0x000000000000000000000000bc83f2711d0749d7454e4a9d53d8594df0377c05"
                    ]
                },
                "nodeType": 1
            },
            "4": {
                "event": {
                    "contract": "0xc69ad9bab1dee23f4605a82b3354f8e40d1e5966",
                    "decodedLog": {
                        "name": "Transfer",
                        "params": [
                            {
                                "name": "from",
                                "type": "address",
                                "value": "0x9c0d1f4a029c46265831d120dee9cdc72f0ab3c3"
                            },
                            {
                                "name": "to",
                                "type": "address",
                                "value": "0x94641c01a4937f2c8ef930580cf396142a2942dc"
                            },
                            {
                                "decimalAvailable": true,
                                "name": "value",
                                "type": "uint256",
                                "value": "20,000,000,000,000,000,000"
                            }
                        ],
                        "signature": "Transfer(address,address,uint256)"
                    },
                    "id": 4,
                    "logData": "0x000000000000000000000000000000000000000000000001158e460913d00000",
                    "logDecoded": true,
                    "operation": "EVENT",
                    "revert": false,
                    "status": true,
                    "topics": [
                        "0xddf252ad1be2c89b69c2b068fc378daa952ba7f163c4a11628f55a4df523b3ef",
                        "0x0000000000000000000000009c0d1f4a029c46265831d120dee9cdc72f0ab3c3",
                        "0x00000000000000000000000094641c01a4937f2c8ef930580cf396142a2942dc"
                    ]
                },
                "nodeType": 1
            }
        },
        "gasFlame": [
            {
                "children": [
                    {
                        "children": [
                            {
                                "children": [],
                                "depth": 0,
                                "name": "Initial Gas",
                                "value": 24620
                            },
                            {
                                "children": [
                                    {
                                        "children": [
                                            {
                                                "children": [],
                                                "depth": 2,
                                                "name": "transferFrom",
                                                "value": 42232
                                            }
                                        ],
                                        "depth": 1,
                                        "name": "performOperations",
                                        "value": 54079
                                    }
                                ],
                                "depth": 0,
                                "name": "Executed Gas",
                                "value": 56868
                            }
                        ],
                        "depth": -1,
                        "name": "Actual Gas Used",
                        "value": 73888
                    },
                    {
                        "children": [],
                        "depth": -1,
                        "name": "Refunded Gas",
                        "value": 7600
                    }
                ],
                "depth": -2,
                "name": "Total Gas",
                "value": 81488
            }
        ],
        "isConfirmed": true,
        "mainTrace": [
            {
                "children": [
                    {
                        "children": [
                            {
                                "children": [
                                    {
                                        "children": [
                                            {
                                                "children": [],
                                                "depth": 3,
                                                "id": 3,
                                                "order": 3
                                            },
                                            {
                                                "children": [],
                                                "depth": 3,
                                                "id": 4,
                                                "order": 4
                                            }
                                        ],
                                        "depth": 2,
                                        "id": 2,
                                        "order": 2
                                    }
                                ],
                                "depth": 1,
                                "id": 1,
                                "order": 1
                            }
                        ],
                        "depth": 0,
                        "id": 0,
                        "order": 0
                    }
                ],
                "depth": -1,
                "id": -1,
                "order": -1
            }
        ],
        "mainTraceNodeCount": 5,
        "parentIdMap": {
            "0": -1,
            "1": 0,
            "2": 1,
            "3": 2,
            "4": 2
        },
        "tidyTrace": [
            {
                "children": [
                    {
                        "children": [
                            {
                                "children": [
                                    {
                                        "children": [
                                            {
                                                "children": [],
                                                "depth": 3,
                                                "id": 3,
                                                "order": 3
                                            },
                                            {
                                                "children": [],
                                                "depth": 3,
                                                "id": 4,
                                                "order": 4
                                            }
                                        ],
                                        "depth": 2,
                                        "id": 2,
                                        "order": 2
                                    }
                                ],
                                "depth": 1,
                                "id": 1,
                                "order": 1
                            }
                        ],
                        "depth": 0,
                        "id": 0,
                        "order": 0
                    }
                ],
                "depth": -1,
                "id": -1,
                "order": -1
            }
        ],
        "tidyTraceNodeCount": 5
    },
    "state_change": {
        "stateChanges": [
            {
                "address": "0xc69ad9bab1dee23f4605a82b3354f8e40d1e5966",
                "erc": "",
                "slots": [
                    {
                        "current": "0x0000000000000000000000000000000000000000000000000000000000000000",
                        "key": "0xf34fa75fb0a041721b84ac6a2851da8cc92bb4844e125aa28eaca71e97aa59a9",
                        "prev": "0x000000000000000000000000000000000000000000000001158e460913d00000"
                    },
                    {
                        "current": "0x0000000000000000000000000000000000000000000000001e4c5d92b80be55b",
                        "key": "0xd023ba8100b7633765e789d73dc34e64f3fd29b143d13b1fc923bc6cee4a81eb",
                        "prev": "0x00000000000000000000000000000000000000000000000133daa39bcbdbe55b"
                    },
                    {
                        "current": "0x000000000000000000000000000000000000000000000001158e460913d00000",
                        "key": "0x0e3bd16d350f0bc506bb46336146b71ed28fb7161b1a6b52f16280aa7de68821",
                        "prev": "0x0000000000000000000000000000000000000000000000000000000000000000"
                    }
                ],
                "storageVariables": []
            }
        ]
    }
}