{
    "balance_change": {
        "balanceChanges": [
            {
                "account": "0x00001b0bcca9bc88774000692def9dd6452afb9f",
                "assets": [
                    {
                        "address": "0xeeeeeeeeeeeeeeeeeeeeeeeeeeeeeeeeeeeeeeee",
                        "amount": "2.41731119075698267",
                        "iconUrl": "https://assets.blocksec.com/image/1663669189317-3.png",
                        "isERC1155": false,
                        "isERC721": false,
                        "sign": true,
                        "value": "5923.935324000330264"
                    }
                ]
            },
            {
                "account": "0x64192819ac13ef72bf6b5ae239ac672b43a9af08",
                "assets": [
                    {
                        "address": "0xeeeeeeeeeeeeeeeeeeeeeeeeeeeeeeeeeeeeeeee",
                        "amount": "2.41731119075698267",
                        "iconUrl": "https://assets.blocksec.com/image/1663669189317-3.png",
                        "isERC1155": false,
                        "isERC721": false,
                        "sign": false,
                        "value": "5923.935324000330264"
                    }
                ]
            }
        ]
    },
    "profile": {
        "basic_info": {
            "baseFee": "2.506504759",
            "blockNumber": 20468790,
            "callData": "0x6455835600000000000000000000000000000000000000000000000000000000000000c000000000000000000000000000000000000000000000000000000000000000e0000000000000000000000000000000000000000000000000000000000000010000000000000000000000000000000000000000000000000000000000000001400000000000000000000000000000000000000000000000000000000000000a20000000000000000000000000000000000000000000000000000000000000000100000000000000000000000000000000000000000000000000000000000000000000000000000000000000000000000000000000000000000000000000000000000000000000000000000000000000000000000000000000000000000000000100000000000000000000000064192819ac13ef72bf6b5ae239ac672b43a9af080000000000000000000000000000000000000000000000000000000000000001000000000000000000000000000000000000000000000000000000000000002000000000000000000000000000000000000000000000000000000000000008644d0d66730000000000000000000000000000000000000000000000000000000000028ae8000000000000000000000000000000000000000000000000000000000000000100000000000000000000000002f3d3912f8bd97c4791970aa4cf96dedd05772c000000000000000000000000c02aaa39b223fe8d0a0e5c4f27ead9083c756cc200000000000000000000000000000000000000000000000000000000000000010000000000000000000000006a16fd4770a2ba4dd8303184337b78048a140bf8000000000000000000000000c99a6a985ed2cac1ef41640596c5a5f9f4e19ef500000000000000000000000000000000000000000000000000000000000007e400000000000000000000000000000000000000000000000000000000000000000000000000000000000000000000000000000000000000000000000000000000000000000000000000000000000000000000000000000000218c03b874a57f8e00000000000000000000000000000000000000000000000000000000000001800000000000000000000000000000000000000000000000000000000000000012000000000000000000000000000000000000000000000000000000000000001b6bb585bd5ddb4f6f7aac127ebb94bd02031a9b8430591d50e340a88041f28e9d5f641ed496206a69ea787cad4b70a35e164ccaecd021ce5bd64f1fbb7117520c000000000000000000000000000000000000000000000000000000000000001ba667c7dbf32f07f3009081df8ff43c3bcf8edebe2871e0b34024b2e9ec1a95747b8f77080a6940e6d4eda4fbbc6f6b7627ad820b2520b2b280150b1ec8da8bb8000000000000000000000000000000000000000000000000000000000000001b9f4f3146240782413d154eed1772384bba7f933aa9d0a0a637142dfca24a75387248f7c825c8590c29d326dfa915d7b0fe538358584e9c035d5a5ae70bcca348000000000000000000000000000000000000000000000000000000000000001b461686f468e9de96ebbb0c9d69f9a83dbf7cb905d23b1a822328a8214f578ba24b2b7b339b96da11b01df94a68adcd0ac396913d9d9fd3c7d5e684bca4976c9b000000000000000000000000000000000000000000000000000000000000001cc81a3e10a2ecfd92410091c110c900152ca9ceb39f1357c2ef9d176703d388e2734b3f667ea50154be0b37f1a752f94ba579e92793c576ff2bbeb69ddf91658a000000000000000000000000000000000000000000000000000000000000001c768133a9076f21ce09d6acbe620db21e382f0ce105107d1fac4342e0f13f0f9c5f38ff7081f6f9c8b0443f81641b38ae629865787eefcc8ac0eee2c14485f9b9000000000000000000000000000000000000000000000000000000000000001b3ca1a043f0f86f8e50a6545348fb763b2b0081667e3cfc53644e8852183488bc621105289e96613eee341285a6d536a972a65016bb921ea2d3b4d2aa46fa4464000000000000000000000000000000000000000000000000000000000000001bfb0fc17d59dc4bd7be7a6e031a59515bc2879afeeeb86eff4cda88b1059500b11f10b4bfc0ea56e4587bb901acc091aa2f263ba69b70a779ed2d18ffa9b469a1000000000000000000000000000000000000000000000000000000000000001b33bfe348c516061d0fd0a4908b0ec75688c42f9806e08b8b8c25ed9a817ffcc629fe7d3e1ceada91133ff9a368c57c7d5847a8d61bfb3271204f4e850d8f3bdd000000000000000000000000000000000000000000000000000000000000001b66c116233f80853bde8b28d668cb8d4b68c0c77a09b644ed4ceffc1fc39d5700073deb2163c278dc961b4930000acd8157a1bbc09a47083d99d1d06e0a12d5af000000000000000000000000000000000000000000000000000000000000001c83d80d28a72910152e1e1ce8ae99ebc60ff7127b4a55567c066ad2c14f0b1087775600066443f795a92caef2d5323db7f505104d8a7ca48a026ce14c45aa8f11000000000000000000000000000000000000000000000000000000000000001b4f6da340eec483c966b0230f5ad566d95ecc2ded854ed615f350bccd13b789e0397b8cf98dff9018fd117bd71d2462d13db4e61f430eb8a51758fc77664386b6000000000000000000000000000000000000000000000000000000000000001b48c42ac83d1ee0f772c745727471d943343f2bf38ba9c714435f2518e6ab150056797f0fafb91385b31472931ad0a88285f8021f6d4b88272b88eb71c46d10e7000000000000000000000000000000000000000000000000000000000000001b725fd612b25d82d6e75cd9dd5249af536b2c0d06c8c3e6b14a99f7e7fcdbf46b2d4e1c84886dfe9b2a4d28e3785b3b96d418c4ab489ac3cfc1f947cdd2245d89000000000000000000000000000000000000000000000000000000000000001bc4a1968755245c8eb2555d8d67f7ba3b13e7214d1fbbe81bb601f72399f9a4c456611f49d2813b19338f44fd5b721959cd7d55d78501b4f69cff7c481f1f7ac0000000000000000000000000000000000000000000000000000000000000001b0818e63d3853384f24c08140f96a43d9d28971ce88b5231d05fe383f2dda93d1161762a456abc2a304eeb01013900f7722d8d56f2613f2a0ce3582b807cca34c000000000000000000000000000000000000000000000000000000000000001c969e1819a0fc5a6cf31900e40fb18314bf3824f97b9522e28900354146432d2534a4034e7acf421994b237f957ef795a6dbd5eb7d8faf00c4bf1527786c7d82c000000000000000000000000000000000000000000000000000000000000001c22866561c83df21b8ba65b695a4b93b4752c65f9a2003273ffb5f7f0a5a362e91f3481d21ab039d8d65dce0dbf951da10608a9e605958216a59bbab5bbacec9c0000000000000000000000000000000000000000000000000000000000000000000000000000000000000000000000000000000000000000000000010000000000000000000000000000000000000000000000000000000000000000",
            "debugEnable": true,
            "errorInfo": "",
            "eventCount": 1,
            "feeRecipient": "0x4838b106fce9647bdf1e7877bf73ce8b0bad5f97",
            "formatValue": "0",
            "gasLimit": 2159854,
            "gasPrice": "3.408074261",
            "gasUsed": 159983,
            "intTxnCount": 5,
            "internalRevert": false,
            "internalRevertMessage": "",
            "isContractCreation": false,
            "isFlashloan": false,
            "maxFee": "4.151217801",
            "nonce": 1784,
            "overwritedBlockNumber": -1,
            "priorityFee": "0.901569502",
            "receiver": "0x02f3d3912f8bd97c4791970aa4cf96dedd05772c",
            "revertMessage": "",
            "sender": "0x00001b0bcca9bc88774000692def9dd6452afb9f",
            "simulationEnable": true,
            "sourceTxnHash": "0x77bb83dd9b25a0af12c0092993ddf1a2f54b77fbcd1dbf1bf33a965ec707268b",
            "status": true,
            "timestamp": "2024-08-06T10:00:11Z",
            "transactionFee": "0.000545233944497563",
            "txnHash": "0x77bb83dd9b25a0af12c0092993ddf1a2f54b77fbcd1dbf1bf33a965ec707268b",
            "txnIndex": 0,
            "type": 2,
            "value": "0"
        },
        "fund_flow": [
            {
                "amount": "2.41731119075698267",
                "from": "0x64192819ac13ef72bf6b5ae239ac672b43a9af08",
                "id": 1,
                "isERC1155": false,
                "isERC721": false,
                "isReverted": false,
                "order": 1,
                "to": "0x02f3d3912f8bd97c4791970aa4cf96dedd05772c",
                "token": "0xeeeeeeeeeeeeeeeeeeeeeeeeeeeeeeeeeeeeeeee"
            },
            {
                "amount": "2.41731119075698267",
                "from": "0x02f3d3912f8bd97c4791970aa4cf96dedd05772c",
                "id": 2,
                "isERC1155": false,
                "isERC721": false,
                "isReverted": false,
                "order": 2,
                "to": "0x00001b0bcca9bc88774000692def9dd6452afb9f",
                "token": "0xeeeeeeeeeeeeeeeeeeeeeeeeeeeeeeeeeeeeeeee"
            }
        ],
        "token_infos": [
            {
                "address": "0xc02aaa39b223fe8d0a0e5c4f27ead9083c756cc2",
                "decimals": 18
            },
            {
                "address": "0xeeeeeeeeeeeeeeeeeeeeeeeeeeeeeeeeeeeeeeee",
                "decimals": 18
            }
        ]
    },
    "address_label": {
        "labels": [
            {
                "address": "0xfc274ec92bbb1a1472884558d1b5caac6f8220ee",
                "label": "MainchainGatewayV3"
            },
            {
                "address": "0x0000000000000000000000000000000000000001",
                "label": "Precompiled"
            },
            {
                "address": "0x0000000000000000000000000000000000000002",
                "label": "Precompiled"
            },
            {
                "address": "0x0000000000000000000000000000000000000003",
                "label": "Precompiled"
            },
            {
                "address": "0x0000000000000000000000000000000000000004",
                "label": "Precompiled"
            },
            {
                "address": "0xeeeeeeeeeeeeeeeeeeeeeeeeeeeeeeeeeeeeeeee",
                "label": "Ether"
            },
            {
                "address": "0xc02aaa39b223fe8d0a0e5c4f27ead9083c756cc2",
                "label": "Wrapped Ether (WETH)"
            },
            {
                "address": "0x64192819ac13ef72bf6b5ae239ac672b43a9af08",
                "label": "Axie Infinity: Ronin Bridge V2"
            }
        ]
    },
    "trace": {
        "accountLabels": null,
        "dataMap": {
            "-1": {
                "invocation": {
                    "address": "0x00001b0bcca9bc88774000692def9dd6452afb9f",
                    "callData": "",
                    "decodedMethod": null,
                    "errorInfo": "",
                    "fromAddress": "",
                    "gasUsed": 0,
                    "id": -1,
                    "methodDecoded": false,
                    "operation": "",
                    "output": "",
                    "revert": false,
                    "revertMessage": "",
                    "selector": "",
                    "status": false,
                    "value": ""
                },
                "nodeType": 0
            },
            "0": {
                "invocation": {
                    "address": "0x02f3d3912f8bd97c4791970aa4cf96dedd05772c",
                    "callData": "0x00000000000000000000000000000000000000000000000000000000000000c000000000000000000000000000000000000000000000000000000000000000e0000000000000000000000000000000000000000000000000000000000000010000000000000000000000000000000000000000000000000000000000000001400000000000000000000000000000000000000000000000000000000000000a20000000000000000000000000000000000000000000000000000000000000000100000000000000000000000000000000000000000000000000000000000000000000000000000000000000000000000000000000000000000000000000000000000000000000000000000000000000000000000000000000000000000000000100000000000000000000000064192819ac13ef72bf6b5ae239ac672b43a9af080000000000000000000000000000000000000000000000000000000000000001000000000000000000000000000000000000000000000000000000000000002000000000000000000000000000000000000000000000000000000000000008644d0d66730000000000000000000000000000000000000000000000000000000000028ae8000000000000000000000000000000000000000000000000000000000000000100000000000000000000000002f3d3912f8bd97c4791970aa4cf96dedd05772c000000000000000000000000c02aaa39b223fe8d0a0e5c4f27ead9083c756cc200000000000000000000000000000000000000000000000000000000000000010000000000000000000000006a16fd4770a2ba4dd8303184337b78048a140bf8000000000000000000000000c99a6a985ed2cac1ef41640596c5a5f9f4e19ef500000000000000000000000000000000000000000000000000000000000007e400000000000000000000000000000000000000000000000000000000000000000000000000000000000000000000000000000000000000000000000000000000000000000000000000000000000000000000000000000000218c03b874a57f8e00000000000000000000000000000000000000000000000000000000000001800000000000000000000000000000000000000000000000000000000000000012000000000000000000000000000000000000000000000000000000000000001b6bb585bd5ddb4f6f7aac127ebb94bd02031a9b8430591d50e340a88041f28e9d5f641ed496206a69ea787cad4b70a35e164ccaecd021ce5bd64f1fbb7117520c000000000000000000000000000000000000000000000000000000000000001ba667c7dbf32f07f3009081df8ff43c3bcf8edebe2871e0b34024b2e9ec1a95747b8f77080a6940e6d4eda4fbbc6f6b7627ad820b2520b2b280150b1ec8da8bb8000000000000000000000000000000000000000000000000000000000000001b9f4f3146240782413d154eed1772384bba7f933aa9d0a0a637142dfca24a75387248f7c825c8590c29d326dfa915d7b0fe538358584e9c035d5a5ae70bcca348000000000000000000000000000000000000000000000000000000000000001b461686f468e9de96ebbb0c9d69f9a83dbf7cb905d23b1a822328a8214f578ba24b2b7b339b96da11b01df94a68adcd0ac396913d9d9fd3c7d5e684bca4976c9b000000000000000000000000000000000000000000000000000000000000001cc81a3e10a2ecfd92410091c110c900152ca9ceb39f1357c2ef9d176703d388e2734b3f667ea50154be0b37f1a752f94ba579e92793c576ff2bbeb69ddf91658a000000000000000000000000000000000000000000000000000000000000001c768133a9076f21ce09d6acbe620db21e382f0ce105107d1fac4342e0f13f0f9c5f38ff7081f6f9c8b0443f81641b38ae629865787eefcc8ac0eee2c14485f9b9000000000000000000000000000000000000000000000000000000000000001b3ca1a043f0f86f8e50a6545348fb763b2b0081667e3cfc53644e8852183488bc621105289e96613eee341285a6d536a972a65016bb921ea2d3b4d2aa46fa4464000000000000000000000000000000000000000000000000000000000000001bfb0fc17d59dc4bd7be7a6e031a59515bc2879afeeeb86eff4cda88b1059500b11f10b4bfc0ea56e4587bb901acc091aa2f263ba69b70a779ed2d18ffa9b469a1000000000000000000000000000000000000000000000000000000000000001b33bfe348c516061d0fd0a4908b0ec75688c42f9806e08b8b8c25ed9a817ffcc629fe7d3e1ceada91133ff9a368c57c7d5847a8d61bfb3271204f4e850d8f3bdd000000000000000000000000000000000000000000000000000000000000001b66c116233f80853bde8b28d668cb8d4b68c0c77a09b644ed4ceffc1fc39d5700073deb2163c278dc961b4930000acd8157a1bbc09a47083d99d1d06e0a12d5af000000000000000000000000000000000000000000000000000000000000001c83d80d28a72910152e1e1ce8ae99ebc60ff7127b4a55567c066ad2c14f0b1087775600066443f795a92caef2d5323db7f505104d8a7ca48a026ce14c45aa8f11000000000000000000000000000000000000000000000000000000000000001b4f6da340eec483c966b0230f5ad566d95ecc2ded854ed615f350bccd13b789e0397b8cf98dff9018fd117bd71d2462d13db4e61f430eb8a51758fc77664386b6000000000000000000000000000000000000000000000000000000000000001b48c42ac83d1ee0f772c745727471d943343f2bf38ba9c714435f2518e6ab150056797f0fafb91385b31472931ad0a88285f8021f6d4b88272b88eb71c46d10e7000000000000000000000000000000000000000000000000000000000000001b725fd612b25d82d6e75cd9dd5249af536b2c0d06c8c3e6b14a99f7e7fcdbf46b2d4e1c84886dfe9b2a4d28e3785b3b96d418c4ab489ac3cfc1f947cdd2245d89000000000000000000000000000000000000000000000000000000000000001bc4a1968755245c8eb2555d8d67f7ba3b13e7214d1fbbe81bb601f72399f9a4c456611f49d2813b19338f44fd5b721959cd7d55d78501b4f69cff7c481f1f7ac0000000000000000000000000000000000000000000000000000000000000001b0818e63d3853384f24c08140f96a43d9d28971ce88b5231d05fe383f2dda93d1161762a456abc2a304eeb01013900f7722d8d56f2613f2a0ce3582b807cca34c000000000000000000000000000000000000000000000000000000000000001c969e1819a0fc5a6cf31900e40fb18314bf3824f97b9522e28900354146432d2534a4034e7acf421994b237f957ef795a6dbd5eb7d8faf00c4bf1527786c7d82c000000000000000000000000000000000000000000000000000000000000001c22866561c83df21b8ba65b695a4b93b4752c65f9a2003273ffb5f7f0a5a362e91f3481d21ab039d8d65dce0dbf951da10608a9e605958216a59bbab5bbacec9c0000000000000000000000000000000000000000000000000000000000000000000000000000000000000000000000000000000000000000000000010000000000000000000000000000000000000000000000000000000000000000",
                    "decodedMethod": null,
                    "errorInfo": "",
                    "fromAddress": "0x00001b0bcca9bc88774000692def9dd6452afb9f",
                    "gasUsed": 159983,
                    "id": 0,
                    "methodDecoded": false,
                    "operation": "CALL",
                    "output": "",
                    "revert": false,
                    "revertMessage": "",
                    "selector": "0x64558356",
                    "status": true,
                    "value": "0"
                },
                "nodeType": 0
            },
            "1": {
                "invocation": {
                    "address": "0x64192819ac13ef72bf6b5ae239ac672b43a9af08",
                    "callData": "0x0000000000000000000000000000000000000000000000000000000000028ae8000000000000000000000000000000000000000000000000000000000000000100000000000000000000000002f3d3912f8bd97c4791970aa4cf96dedd05772c000000000000000000000000c02aaa39b223fe8d0a0e5c4f27ead9083c756cc200000000000000000000000000000000000000000000000000000000000000010000000000000000000000006a16fd4770a2ba4dd8303184337b78048a140bf8000000000000000000000000c99a6a985ed2cac1ef41640596c5a5f9f4e19ef500000000000000000000000000000000000000000000000000000000000007e400000000000000000000000000000000000000000000000000000000000000000000000000000000000000000000000000000000000000000000000000000000000000000000000000000000000000000000000000000000218c03b874a57f8e00000000000000000000000000000000000000000000000000000000000001800000000000000000000000000000000000000000000000000000000000000012000000000000000000000000000000000000000000000000000000000000001b6bb585bd5ddb4f6f7aac127ebb94bd02031a9b8430591d50e340a88041f28e9d5f641ed496206a69ea787cad4b70a35e164ccaecd021ce5bd64f1fbb7117520c000000000000000000000000000000000000000000000000000000000000001ba667c7dbf32f07f3009081df8ff43c3bcf8edebe2871e0b34024b2e9ec1a95747b8f77080a6940e6d4eda4fbbc6f6b7627ad820b2520b2b280150b1ec8da8bb8000000000000000000000000000000000000000000000000000000000000001b9f4f3146240782413d154eed1772384bba7f933aa9d0a0a637142dfca24a75387248f7c825c8590c29d326dfa915d7b0fe538358584e9c035d5a5ae70bcca348000000000000000000000000000000000000000000000000000000000000001b461686f468e9de96ebbb0c9d69f9a83dbf7cb905d23b1a822328a8214f578ba24b2b7b339b96da11b01df94a68adcd0ac396913d9d9fd3c7d5e684bca4976c9b000000000000000000000000000000000000000000000000000000000000001cc81a3e10a2ecfd92410091c110c900152ca9ceb39f1357c2ef9d176703d388e2734b3f667ea50154be0b37f1a752f94ba579e92793c576ff2bbeb69ddf91658a000000000000000000000000000000000000000000000000000000000000001c768133a9076f21ce09d6acbe620db21e382f0ce105107d1fac4342e0f13f0f9c5f38ff7081f6f9c8b0443f81641b38ae629865787eefcc8ac0eee2c14485f9b9000000000000000000000000000000000000000000000000000000000000001b3ca1a043f0f86f8e50a6545348fb763b2b0081667e3cfc53644e8852183488bc621105289e96613eee341285a6d536a972a65016bb921ea2d3b4d2aa46fa4464000000000000000000000000000000000000000000000000000000000000001bfb0fc17d59dc4bd7be7a6e031a59515bc2879afeeeb86eff4cda88b1059500b11f10b4bfc0ea56e4587bb901acc091aa2f263ba69b70a779ed2d18ffa9b469a1000000000000000000000000000000000000000000000000000000000000001b33bfe348c516061d0fd0a4908b0ec75688c42f9806e08b8b8c25ed9a817ffcc629fe7d3e1ceada91133ff9a368c57c7d5847a8d61bfb3271204f4e850d8f3bdd000000000000000000000000000000000000000000000000000000000000001b66c116233f80853bde8b28d668cb8d4b68c0c77a09b644ed4ceffc1fc39d5700073deb2163c278dc961b4930000acd8157a1bbc09a47083d99d1d06e0a12d5af000000000000000000000000000000000000000000000000000000000000001c83d80d28a72910152e1e1ce8ae99ebc60ff7127b4a55567c066ad2c14f0b1087775600066443f795a92caef2d5323db7f505104d8a7ca48a026ce14c45aa8f11000000000000000000000000000000000000000000000000000000000000001b4f6da340eec483c966b0230f5ad566d95ecc2ded854ed615f350bccd13b789e0397b8cf98dff9018fd117bd71d2462d13db4e61f430eb8a51758fc77664386b6000000000000000000000000000000000000000000000000000000000000001b48c42ac83d1ee0f772c745727471d943343f2bf38ba9c714435f2518e6ab150056797f0fafb91385b31472931ad0a88285f8021f6d4b88272b88eb71c46d10e7000000000000000000000000000000000000000000000000000000000000001b725fd612b25d82d6e75cd9dd5249af536b2c0d06c8c3e6b14a99f7e7fcdbf46b2d4e1c84886dfe9b2a4d28e3785b3b96d418c4ab489ac3cfc1f947cdd2245d89000000000000000000000000000000000000000000000000000000000000001bc4a1968755245c8eb2555d8d67f7ba3b13e7214d1fbbe81bb601f72399f9a4c456611f49d2813b19338f44fd5b721959cd7d55d78501b4f69cff7c481f1f7ac0000000000000000000000000000000000000000000000000000000000000001b0818e63d3853384f24c08140f96a43d9d28971ce88b5231d05fe383f2dda93d1161762a456abc2a304eeb01013900f7722d8d56f2613f2a0ce3582b807cca34c000000000000000000000000000000000000000000000000000000000000001c969e1819a0fc5a6cf31900e40fb18314bf3824f97b9522e28900354146432d2534a4034e7acf421994b237f957ef795a6dbd5eb7d8faf00c4bf1527786c7d82c000000000000000000000000000000000000000000000000000000000000001c22866561c83df21b8ba65b695a4b93b4752c65f9a2003273ffb5f7f0a5a362e91f3481d21ab039d8d65dce0dbf951da10608a9e605958216a59bbab5bbacec9c",
                    "decodedMethod": {
                        "callParams": [
                            {
                                "name": "_receipt",
                                "type": "(uint256,uint8,(address,address,uint256),(address,address,uint256),(uint8,uint256,uint256))",
                                "value": [
                                    {
                                        "name": "id",
                                        "type": "uint256",
                                        "value": "166,632"
                                    },
                                    {
                                        "name": "kind",
                                        "type": "uint8",
                                        "value": "1"
                                    },
                                    {
                                        "name": "mainchain",
                                        "type": "(address,address,uint256)",
                                        "value": [
                                            {
                                                "name": "addr",
                                                "type": "address",
                                                "value": "0x02f3d3912f8bd97c4791970aa4cf96dedd05772c"
                                            },
                                            {
                                                "name": "tokenAddr",
                                                "type": "address",
                                                "value": "0xc02aaa39b223fe8d0a0e5c4f27ead9083c756cc2"
                                            },
                                            {
                                                "name": "chainId",
                                                "type": "uint256",
                                                "value": "1"
                                            }
                                        ]
                                    },
                                    {
                                        "name": "ronin",
                                        "type": "(address,address,uint256)",
                                        "value": [
                                            {
                                                "name": "addr",
                                                "type": "address",
                                                "value": "0x6a16fd4770a2ba4dd8303184337b78048a140bf8"
                                            },
                                            {
                                                "name": "tokenAddr",
                                                "type": "address",
                                                "value": "0xc99a6a985ed2cac1ef41640596c5a5f9f4e19ef5"
                                            },
                                            {
                                                "name": "chainId",
                                                "type": "uint256",
                                                "value": "2,020"
                                            }
                                        ]
                                    },
                                    {
                                        "name": "info",
                                        "type": "(uint8,uint256,uint256)",
                                        "value": [
                                            {
                                                "name": "erc",
                                                "type": "uint8",
                                                "value": "0"
                                            },
                                            {
                                                "name": "id",
                                                "type": "uint256",
                                                "value": "0"
                                            },
                                            {
                                                "name": "quantity",
                                                "type": "uint256",
                                                "value": "2,417,311,190,756,982,670"
                                            }
                                        ]
                                    }
                                ]
                            },
                            {
                                "name": "_signatures",
                                "type": "(uint8,bytes32,bytes32)[]",
                                "value": [
                                    [
                                        {
                                            "name": "v",
                                            "type": "uint8",
                                            "value": "27"
                                        },
                                        {
                                            "name": "r",
                                            "type": "bytes32",
                                            "value": "0x6bb585bd5ddb4f6f7aac127ebb94bd02031a9b8430591d50e340a88041f28e9d"
                                        },
                                        {
                                            "name": "s",
                                            "type": "bytes32",
                                            "value": "0x5f641ed496206a69ea787cad4b70a35e164ccaecd021ce5bd64f1fbb7117520c"
                                        }
                                    ],
                                    [
                                        {
                                            "name": "v",
                                            "type": "uint8",
                                            "value": "27"
                                        },
                                        {
                                            "name": "r",
                                            "type": "bytes32",
                                            "value": "0xa667c7dbf32f07f3009081df8ff43c3bcf8edebe2871e0b34024b2e9ec1a9574"
                                        },
                                        {
                                            "name": "s",
                                            "type": "bytes32",
                                            "value": "0x7b8f77080a6940e6d4eda4fbbc6f6b7627ad820b2520b2b280150b1ec8da8bb8"
                                        }
                                    ],
                                    [
                                        {
                                            "name": "v",
                                            "type": "uint8",
                                            "value": "27"
                                        },
                                        {
                                            "name": "r",
                                            "type": "bytes32",
                                            "value": "0x9f4f3146240782413d154eed1772384bba7f933aa9d0a0a637142dfca24a7538"
                                        },
                                        {
                                            "name": "s",
                                            "type": "bytes32",
                                            "value": "0x7248f7c825c8590c29d326dfa915d7b0fe538358584e9c035d5a5ae70bcca348"
                                        }
                                    ],
                                    [
                                        {
                                            "name": "v",
                                            "type": "uint8",
                                            "value": "27"
                                        },
                                        {
                                            "name": "r",
                                            "type": "bytes32",
                                            "value": "0x461686f468e9de96ebbb0c9d69f9a83dbf7cb905d23b1a822328a8214f578ba2"
                                        },
                                        {
                                            "name": "s",
                                            "type": "bytes32",
                                            "value": "0x4b2b7b339b96da11b01df94a68adcd0ac396913d9d9fd3c7d5e684bca4976c9b"
                                        }
                                    ],
                                    [
                                        {
                                            "name": "v",
                                            "type": "uint8",
                                            "value": "28"
                                        },
                                        {
                                            "name": "r",
                                            "type": "bytes32",
                                            "value": "0xc81a3e10a2ecfd92410091c110c900152ca9ceb39f1357c2ef9d176703d388e2"
                                        },
                                        {
                                            "name": "s",
                                            "type": "bytes32",
                                            "value": "0x734b3f667ea50154be0b37f1a752f94ba579e92793c576ff2bbeb69ddf91658a"
                                        }
                                    ],
                                    [
                                        {
                                            "name": "v",
                                            "type": "uint8",
                                            "value": "28"
                                        },
                                        {
                                            "name": "r",
                                            "type": "bytes32",
                                            "value": "0x768133a9076f21ce09d6acbe620db21e382f0ce105107d1fac4342e0f13f0f9c"
                                        },
                                        {
                                            "name": "s",
                                            "type": "bytes32",
                                            "value": "0x5f38ff7081f6f9c8b0443f81641b38ae629865787eefcc8ac0eee2c14485f9b9"
                                        }
                                    ],
                                    [
                                        {
                                            "name": "v",
                                            "type": "uint8",
                                            "value": "27"
                                        },
                                        {
                                            "name": "r",
                                            "type": "bytes32",
                                            "value": "0x3ca1a043f0f86f8e50a6545348fb763b2b0081667e3cfc53644e8852183488bc"
                                        },
                                        {
                                            "name": "s",
                                            "type": "bytes32",
                                            "value": "0x621105289e96613eee341285a6d536a972a65016bb921ea2d3b4d2aa46fa4464"
                                        }
                                    ],
                                    [
                                        {
                                            "name": "v",
                                            "type": "uint8",
                                            "value": "27"
                                        },
                                        {
                                            "name": "r",
                                            "type": "bytes32",
                                            "value": "0xfb0fc17d59dc4bd7be7a6e031a59515bc2879afeeeb86eff4cda88b1059500b1"
                                        },
                                        {
                                            "name": "s",
                                            "type": "bytes32",
                                            "value": "0x1f10b4bfc0ea56e4587bb901acc091aa2f263ba69b70a779ed2d18ffa9b469a1"
                                        }
                                    ],
                                    [
                                        {
                                            "name": "v",
                                            "type": "uint8",
                                            "value": "27"
                                        },
                                        {
                                            "name": "r",
                                            "type": "bytes32",
                                            "value": "0x33bfe348c516061d0fd0a4908b0ec75688c42f9806e08b8b8c25ed9a817ffcc6"
                                        },
                                        {
                                            "name": "s",
                                            "type": "bytes32",
                                            "value": "0x29fe7d3e1ceada91133ff9a368c57c7d5847a8d61bfb3271204f4e850d8f3bdd"
                                        }
                                    ],
                                    [
                                        {
                                            "name": "v",
                                            "type": "uint8",
                                            "value": "27"
                                        },
                                        {
                                            "name": "r",
                                            "type": "bytes32",
                                            "value": "0x66c116233f80853bde8b28d668cb8d4b68c0c77a09b644ed4ceffc1fc39d5700"
                                        },
                                        {
                                            "name": "s",
                                            "type": "bytes32",
                                            "value": "0x073deb2163c278dc961b4930000acd8157a1bbc09a47083d99d1d06e0a12d5af"
                                        }
                                    ],
                                    [
                                        {
                                            "name": "v",
                                            "type": "uint8",
                                            "value": "28"
                                        },
                                        {
                                            "name": "r",
                                            "type": "bytes32",
                                            "value": "0x83d80d28a72910152e1e1ce8ae99ebc60ff7127b4a55567c066ad2c14f0b1087"
                                        },
                                        {
                                            "name": "s",
                                            "type": "bytes32",
                                            "value": "0x775600066443f795a92caef2d5323db7f505104d8a7ca48a026ce14c45aa8f11"
                                        }
                                    ],
                                    [
                                        {
                                            "name": "v",
                                            "type": "uint8",
                                            "value": "27"
                                        },
                                        {
                                            "name": "r",
                                            "type": "bytes32",
                                            "value": "0x4f6da340eec483c966b0230f5ad566d95ecc2ded854ed615f350bccd13b789e0"
                                        },
                                        {
                                            "name": "s",
                                            "type": "bytes32",
                                            "value": "0x397b8cf98dff9018fd117bd71d2462d13db4e61f430eb8a51758fc77664386b6"
                                        }
                                    ],
                                    [
                                        {
                                            "name": "v",
                                            "type": "uint8",
                                            "value": "27"
                                        },
                                        {
                                            "name": "r",
                                            "type": "bytes32",
                                            "value": "0x48c42ac83d1ee0f772c745727471d943343f2bf38ba9c714435f2518e6ab1500"
                                        },
                                        {
                                            "name": "s",
                                            "type": "bytes32",
                                            "value": "0x56797f0fafb91385b31472931ad0a88285f8021f6d4b88272b88eb71c46d10e7"
                                        }
                                    ],
                                    [
                                        {
                                            "name": "v",
                                            "type": "uint8",
                                            "value": "27"
                                        },
                                        {
                                            "name": "r",
                                            "type": "bytes32",
                                            "value": "0x725fd612b25d82d6e75cd9dd5249af536b2c0d06c8c3e6b14a99f7e7fcdbf46b"
                                        },
                                        {
                                            "name": "s",
                                            "type": "bytes32",
                                            "value": "0x2d4e1c84886dfe9b2a4d28e3785b3b96d418c4ab489ac3cfc1f947cdd2245d89"
                                        }
                                    ],
                                    [
                                        {
                                            "name": "v",
                                            "type": "uint8",
                                            "value": "27"
                                        },
                                        {
                                            "name": "r",
                                            "type": "bytes32",
                                            "value": "0xc4a1968755245c8eb2555d8d67f7ba3b13e7214d1fbbe81bb601f72399f9a4c4"
                                        },
                                        {
                                            "name": "s",
                                            "type": "bytes32",
                                            "value": "0x56611f49d2813b19338f44fd5b721959cd7d55d78501b4f69cff7c481f1f7ac0"
                                        }
                                    ],
                                    [
                                        {
                                            "name": "v",
                                            "type": "uint8",
                                            "value": "27"
                                        },
                                        {
                                            "name": "r",
                                            "type": "bytes32",
                                            "value": "0x0818e63d3853384f24c08140f96a43d9d28971ce88b5231d05fe383f2dda93d1"
                                        },
                                        {
                                            "name": "s",
                                            "type": "bytes32",
                                            "value": "0x161762a456abc2a304eeb01013900f7722d8d56f2613f2a0ce3582b807cca34c"
                                        }
                                    ],
                                    [
                                        {
                                            "name": "v",
                                            "type": "uint8",
                                            "value": "28"
                                        },
                                        {
                                            "name": "r",
                                            "type": "bytes32",
                                            "value": "0x969e1819a0fc5a6cf31900e40fb18314bf3824f97b9522e28900354146432d25"
                                        },
                                        {
                                            "name": "s",
                                            "type": "bytes32",
                                            "value": "0x34a4034e7acf421994b237f957ef795a6dbd5eb7d8faf00c4bf1527786c7d82c"
                                        }
                                    ],
                                    [
                                        {
                                            "name": "v",
                                            "type": "uint8",
                                            "value": "28"
                                        },
                                        {
                                            "name": "r",
                                            "type": "bytes32",
                                            "value": "0x22866561c83df21b8ba65b695a4b93b4752c65f9a2003273ffb5f7f0a5a362e9"
                                        },
                                        {
                                            "name": "s",
                                            "type": "bytes32",
                                            "value": "0x1f3481d21ab039d8d65dce0dbf951da10608a9e605958216a59bbab5bbacec9c"
                                        }
                                    ]
                                ]
                            }
                        ],
                        "constructorArguments": "",
                        "name": "submitWithdrawal",
                        "returnParams": [
                            {
                                "name": "_locked",
                                "type": "bool",
                                "value": false
                            }
                        ],
                        "signature": "submitWithdrawal((uint256,uint8,(address,address,uint256),(address,address,uint256),(uint8,uint256,uint256)),(uint8,bytes32,bytes32)[])"
                    },
                    "errorInfo": "",
                    "fromAddress": "0x02f3d3912f8bd97c4791970aa4cf96dedd05772c",
                    "gasUsed": 93684,
                    "id": 1,
                    "methodDecoded": true,
                    "operation": "CALL",
                    "output": "0x0000000000000000000000000000000000000000000000000000000000000000",
                    "revert": false,
                    "revertMessage": "",
                    "selector": "0x4d0d6673",
                    "status": true,
                    "value": "0"
                },
                "nodeType": 0
            },
            "2": {
                "invocation": {
                    "address": "0xfc274ec92bbb1a1472884558d1b5caac6f8220ee",
                    "callData": "0x0000000000000000000000000000000000000000000000000000000000028ae8000000000000000000000000000000000000000000000000000000000000000100000000000000000000000002f3d3912f8bd97c4791970aa4cf96dedd05772c000000000000000000000000c02aaa39b223fe8d0a0e5c4f27ead9083c756cc200000000000000000000000000000000000000000000000000000000000000010000000000000000000000006a16fd4770a2ba4dd8303184337b78048a140bf8000000000000000000000000c99a6a985ed2cac1ef41640596c5a5f9f4e19ef500000000000000000000000000000000000000000000000000000000000007e400000000000000000000000000000000000000000000000000000000000000000000000000000000000000000000000000000000000000000000000000000000000000000000000000000000000000000000000000000000218c03b874a57f8e00000000000000000000000000000000000000000000000000000000000001800000000000000000000000000000000000000000000000000000000000000012000000000000000000000000000000000000000000000000000000000000001b6bb585bd5ddb4f6f7aac127ebb94bd02031a9b8430591d50e340a88041f28e9d5f641ed496206a69ea787cad4b70a35e164ccaecd021ce5bd64f1fbb7117520c000000000000000000000000000000000000000000000000000000000000001ba667c7dbf32f07f3009081df8ff43c3bcf8edebe2871e0b34024b2e9ec1a95747b8f77080a6940e6d4eda4fbbc6f6b7627ad820b2520b2b280150b1ec8da8bb8000000000000000000000000000000000000000000000000000000000000001b9f4f3146240782413d154eed1772384bba7f933aa9d0a0a637142dfca24a75387248f7c825c8590c29d326dfa915d7b0fe538358584e9c035d5a5ae70bcca348000000000000000000000000000000000000000000000000000000000000001b461686f468e9de96ebbb0c9d69f9a83dbf7cb905d23b1a822328a8214f578ba24b2b7b339b96da11b01df94a68adcd0ac396913d9d9fd3c7d5e684bca4976c9b000000000000000000000000000000000000000000000000000000000000001cc81a3e10a2ecfd92410091c110c900152ca9ceb39f1357c2ef9d176703d388e2734b3f667ea50154be0b37f1a752f94ba579e92793c576ff2bbeb69ddf91658a000000000000000000000000000000000000000000000000000000000000001c768133a9076f21ce09d6acbe620db21e382f0ce105107d1fac4342e0f13f0f9c5f38ff7081f6f9c8b0443f81641b38ae629865787eefcc8ac0eee2c14485f9b9000000000000000000000000000000000000000000000000000000000000001b3ca1a043f0f86f8e50a6545348fb763b2b0081667e3cfc53644e8852183488bc621105289e96613eee341285a6d536a972a65016bb921ea2d3b4d2aa46fa4464000000000000000000000000000000000000000000000000000000000000001bfb0fc17d59dc4bd7be7a6e031a59515bc2879afeeeb86eff4cda88b1059500b11f10b4bfc0ea56e4587bb901acc091aa2f263ba69b70a779ed2d18ffa9b469a1000000000000000000000000000000000000000000000000000000000000001b33bfe348c516061d0fd0a4908b0ec75688c42f9806e08b8b8c25ed9a817ffcc629fe7d3e1ceada91133ff9a368c57c7d5847a8d61bfb3271204f4e850d8f3bdd000000000000000000000000000000000000000000000000000000000000001b66c116233f80853bde8b28d668cb8d4b68c0c77a09b644ed4ceffc1fc39d5700073deb2163c278dc961b4930000acd8157a1bbc09a47083d99d1d06e0a12d5af000000000000000000000000000000000000000000000000000000000000001c83d80d28a72910152e1e1ce8ae99ebc60ff7127b4a55567c066ad2c14f0b1087775600066443f795a92caef2d5323db7f505104d8a7ca48a026ce14c45aa8f11000000000000000000000000000000000000000000000000000000000000001b4f6da340eec483c966b0230f5ad566d95ecc2ded854ed615f350bccd13b789e0397b8cf98dff9018fd117bd71d2462d13db4e61f430eb8a51758fc77664386b6000000000000000000000000000000000000000000000000000000000000001b48c42ac83d1ee0f772c745727471d943343f2bf38ba9c714435f2518e6ab150056797f0fafb91385b31472931ad0a88285f8021f6d4b88272b88eb71c46d10e7000000000000000000000000000000000000000000000000000000000000001b725fd612b25d82d6e75cd9dd5249af536b2c0d06c8c3e6b14a99f7e7fcdbf46b2d4e1c84886dfe9b2a4d28e3785b3b96d418c4ab489ac3cfc1f947cdd2245d89000000000000000000000000000000000000000000000000000000000000001bc4a1968755245c8eb2555d8d67f7ba3b13e7214d1fbbe81bb601f72399f9a4c456611f49d2813b19338f44fd5b721959cd7d55d78501b4f69cff7c481f1f7ac0000000000000000000000000000000000000000000000000000000000000001b0818e63d3853384f24c08140f96a43d9d28971ce88b5231d05fe383f2dda93d1161762a456abc2a304eeb01013900f7722d8d56f2613f2a0ce3582b807cca34c000000000000000000000000000000000000000000000000000000000000001c969e1819a0fc5a6cf31900e40fb18314bf3824f97b9522e28900354146432d2534a4034e7acf421994b237f957ef795a6dbd5eb7d8faf00c4bf1527786c7d82c000000000000000000000000000000000000000000000000000000000000001c22866561c83df21b8ba65b695a4b93b4752c65f9a2003273ffb5f7f0a5a362e91f3481d21ab039d8d65dce0dbf951da10608a9e605958216a59bbab5bbacec9c",
                    "decodedMethod": {
                        "callParams": [
                            {
                                "name": "_receipt",
                                "type": "(uint256,uint8,(address,address,uint256),(address,address,uint256),(uint8,uint256,uint256))",
                                "value": [
                                    {
                                        "name": "id",
                                        "type": "uint256",
                                        "value": "166,632"
                                    },
                                    {
                                        "name": "kind",
                                        "type": "uint8",
                                        "value": "1"
                                    },
                                    {
                                        "name": "mainchain",
                                        "type": "(address,address,uint256)",
                                        "value": [
                                            {
                                                "name": "addr",
                                                "type": "address",
                                                "value": "0x02f3d3912f8bd97c4791970aa4cf96dedd05772c"
                                            },
                                            {
                                                "name": "tokenAddr",
                                                "type": "address",
                                                "value": "0xc02aaa39b223fe8d0a0e5c4f27ead9083c756cc2"
                                            },
                                            {
                                                "name": "chainId",
                                                "type": "uint256",
                                                "value": "1"
                                            }
                                        ]
                                    },
                                    {
                                        "name": "ronin",
                                        "type": "(address,address,uint256)",
                                        "value": [
                                            {
                                                "name": "addr",
                                                "type": "address",
                                                "value": "0x6a16fd4770a2ba4dd8303184337b78048a140bf8"
                                            },
                                            {
                                                "name": "tokenAddr",
                                                "type": "address",
                                                "value": "0xc99a6a985ed2cac1ef41640596c5a5f9f4e19ef5"
                                            },
                                            {
                                                "name": "chainId",
                                                "type": "uint256",
                                                "value": "2,020"
                                            }
                                        ]
                                    },
                                    {
                                        "name": "info",
                                        "type": "(uint8,uint256,uint256)",
                                        "value": [
                                            {
                                                "name": "erc",
                                                "type": "uint8",
                                                "value": "0"
                                            },
                                            {
                                                "name": "id",
                                                "type": "uint256",
                                                "value": "0"
                                            },
                                            {
                                                "name": "quantity",
                                                "type": "uint256",
                                                "value": "2,417,311,190,756,982,670"
                                            }
                                        ]
                                    }
                                ]
                            },
                            {
                                "name": "_signatures",
                                "type": "(uint8,bytes32,bytes32)[]",
                                "value": [
                                    [
                                        {
                                            "name": "v",
                                            "type": "uint8",
                                            "value": "27"
                                        },
                                        {
                                            "name": "r",
                                            "type": "bytes32",
                                            "value": "0x6bb585bd5ddb4f6f7aac127ebb94bd02031a9b8430591d50e340a88041f28e9d"
                                        },
                                        {
                                            "name": "s",
                                            "type": "bytes32",
                                            "value": "0x5f641ed496206a69ea787cad4b70a35e164ccaecd021ce5bd64f1fbb7117520c"
                                        }
                                    ],
                                    [
                                        {
                                            "name": "v",
                                            "type": "uint8",
                                            "value": "27"
                                        },
                                        {
                                            "name": "r",
                                            "type": "bytes32",
                                            "value": "0xa667c7dbf32f07f3009081df8ff43c3bcf8edebe2871e0b34024b2e9ec1a9574"
                                        },
                                        {
                                            "name": "s",
                                            "type": "bytes32",
                                            "value": "0x7b8f77080a6940e6d4eda4fbbc6f6b7627ad820b2520b2b280150b1ec8da8bb8"
                                        }
                                    ],
                                    [
                                        {
                                            "name": "v",
                                            "type": "uint8",
                                            "value": "27"
                                        },
                                        {
                                            "name": "r",
                                            "type": "bytes32",
                                            "value": "0x9f4f3146240782413d154eed1772384bba7f933aa9d0a0a637142dfca24a7538"
                                        },
                                        {
                                            "name": "s",
                                            "type": "bytes32",
                                            "value": "0x7248f7c825c8590c29d326dfa915d7b0fe538358584e9c035d5a5ae70bcca348"
                                        }
                                    ],
                                    [
                                        {
                                            "name": "v",
                                            "type": "uint8",
                                            "value": "27"
                                        },
                                        {
                                            "name": "r",
                                            "type": "bytes32",
                                            "value": "0x461686f468e9de96ebbb0c9d69f9a83dbf7cb905d23b1a822328a8214f578ba2"
                                        },
                                        {
                                            "name": "s",
                                            "type": "bytes32",
                                            "value": "0x4b2b7b339b96da11b01df94a68adcd0ac396913d9d9fd3c7d5e684bca4976c9b"
                                        }
                                    ],
                                    [
                                        {
                                            "name": "v",
                                            "type": "uint8",
                                            "value": "28"
                                        },
                                        {
                                            "name": "r",
                                            "type": "bytes32",
                                            "value": "0xc81a3e10a2ecfd92410091c110c900152ca9ceb39f1357c2ef9d176703d388e2"
                                        },
                                        {
                                            "name": "s",
                                            "type": "bytes32",
                                            "value": "0x734b3f667ea50154be0b37f1a752f94ba579e92793c576ff2bbeb69ddf91658a"
                                        }
                                    ],
                                    [
                                        {
                                            "name": "v",
                                            "type": "uint8",
                                            "value": "28"
                                        },
                                        {
                                            "name": "r",
                                            "type": "bytes32",
                                            "value": "0x768133a9076f21ce09d6acbe620db21e382f0ce105107d1fac4342e0f13f0f9c"
                                        },
                                        {
                                            "name": "s",
                                            "type": "bytes32",
                                            "value": "0x5f38ff7081f6f9c8b0443f81641b38ae629865787eefcc8ac0eee2c14485f9b9"
                                        }
                                    ],
                                    [
                                        {
                                            "name": "v",
                                            "type": "uint8",
                                            "value": "27"
                                        },
                                        {
                                            "name": "r",
                                            "type": "bytes32",
                                            "value": "0x3ca1a043f0f86f8e50a6545348fb763b2b0081667e3cfc53644e8852183488bc"
                                        },
                                        {
                                            "name": "s",
                                            "type": "bytes32",
                                            "value": "0x621105289e96613eee341285a6d536a972a65016bb921ea2d3b4d2aa46fa4464"
                                        }
                                    ],
                                    [
                                        {
                                            "name": "v",
                                            "type": "uint8",
                                            "value": "27"
                                        },
                                        {
                                            "name": "r",
                                            "type": "bytes32",
                                            "value": "0xfb0fc17d59dc4bd7be7a6e031a59515bc2879afeeeb86eff4cda88b1059500b1"
                                        },
                                        {
                                            "name": "s",
                                            "type": "bytes32",
                                            "value": "0x1f10b4bfc0ea56e4587bb901acc091aa2f263ba69b70a779ed2d18ffa9b469a1"
                                        }
                                    ],
                                    [
                                        {
                                            "name": "v",
                                            "type": "uint8",
                                            "value": "27"
                                        },
                                        {
                                            "name": "r",
                                            "type": "bytes32",
                                            "value": "0x33bfe348c516061d0fd0a4908b0ec75688c42f9806e08b8b8c25ed9a817ffcc6"
                                        },
                                        {
                                            "name": "s",
                                            "type": "bytes32",
                                            "value": "0x29fe7d3e1ceada91133ff9a368c57c7d5847a8d61bfb3271204f4e850d8f3bdd"
                                        }
                                    ],
                                    [
                                        {
                                            "name": "v",
                                            "type": "uint8",
                                            "value": "27"
                                        },
                                        {
                                            "name": "r",
                                            "type": "bytes32",
                                            "value": "0x66c116233f80853bde8b28d668cb8d4b68c0c77a09b644ed4ceffc1fc39d5700"
                                        },
                                        {
                                            "name": "s",
                                            "type": "bytes32",
                                            "value": "0x073deb2163c278dc961b4930000acd8157a1bbc09a47083d99d1d06e0a12d5af"
                                        }
                                    ],
                                    [
                                        {
                                            "name": "v",
                                            "type": "uint8",
                                            "value": "28"
                                        },
                                        {
                                            "name": "r",
                                            "type": "bytes32",
                                            "value": "0x83d80d28a72910152e1e1ce8ae99ebc60ff7127b4a55567c066ad2c14f0b1087"
                                        },
                                        {
                                            "name": "s",
                                            "type": "bytes32",
                                            "value": "0x775600066443f795a92caef2d5323db7f505104d8a7ca48a026ce14c45aa8f11"
                                        }
                                    ],
                                    [
                                        {
                                            "name": "v",
                                            "type": "uint8",
                                            "value": "27"
                                        },
                                        {
                                            "name": "r",
                                            "type": "bytes32",
                                            "value": "0x4f6da340eec483c966b0230f5ad566d95ecc2ded854ed615f350bccd13b789e0"
                                        },
                                        {
                                            "name": "s",
                                            "type": "bytes32",
                                            "value": "0x397b8cf98dff9018fd117bd71d2462d13db4e61f430eb8a51758fc77664386b6"
                                        }
                                    ],
                                    [
                                        {
                                            "name": "v",
                                            "type": "uint8",
                                            "value": "27"
                                        },
                                        {
                                            "name": "r",
                                            "type": "bytes32",
                                            "value": "0x48c42ac83d1ee0f772c745727471d943343f2bf38ba9c714435f2518e6ab1500"
                                        },
                                        {
                                            "name": "s",
                                            "type": "bytes32",
                                            "value": "0x56797f0fafb91385b31472931ad0a88285f8021f6d4b88272b88eb71c46d10e7"
                                        }
                                    ],
                                    [
                                        {
                                            "name": "v",
                                            "type": "uint8",
                                            "value": "27"
                                        },
                                        {
                                            "name": "r",
                                            "type": "bytes32",
                                            "value": "0x725fd612b25d82d6e75cd9dd5249af536b2c0d06c8c3e6b14a99f7e7fcdbf46b"
                                        },
                                        {
                                            "name": "s",
                                            "type": "bytes32",
                                            "value": "0x2d4e1c84886dfe9b2a4d28e3785b3b96d418c4ab489ac3cfc1f947cdd2245d89"
                                        }
                                    ],
                                    [
                                        {
                                            "name": "v",
                                            "type": "uint8",
                                            "value": "27"
                                        },
                                        {
                                            "name": "r",
                                            "type": "bytes32",
                                            "value": "0xc4a1968755245c8eb2555d8d67f7ba3b13e7214d1fbbe81bb601f72399f9a4c4"
                                        },
                                        {
                                            "name": "s",
                                            "type": "bytes32",
                                            "value": "0x56611f49d2813b19338f44fd5b721959cd7d55d78501b4f69cff7c481f1f7ac0"
                                        }
                                    ],
                                    [
                                        {
                                            "name": "v",
                                            "type": "uint8",
                                            "value": "27"
                                        },
                                        {
                                            "name": "r",
                                            "type": "bytes32",
                                            "value": "0x0818e63d3853384f24c08140f96a43d9d28971ce88b5231d05fe383f2dda93d1"
                                        },
                                        {
                                            "name": "s",
                                            "type": "bytes32",
                                            "value": "0x161762a456abc2a304eeb01013900f7722d8d56f2613f2a0ce3582b807cca34c"
                                        }
                                    ],
                                    [
                                        {
                                            "name": "v",
                                            "type": "uint8",
                                            "value": "28"
                                        },
                                        {
                                            "name": "r",
                                            "type": "bytes32",
                                            "value": "0x969e1819a0fc5a6cf31900e40fb18314bf3824f97b9522e28900354146432d25"
                                        },
                                        {
                                            "name": "s",
                                            "type": "bytes32",
                                            "value": "0x34a4034e7acf421994b237f957ef795a6dbd5eb7d8faf00c4bf1527786c7d82c"
                                        }
                                    ],
                                    [
                                        {
                                            "name": "v",
                                            "type": "uint8",
                                            "value": "28"
                                        },
                                        {
                                            "name": "r",
                                            "type": "bytes32",
                                            "value": "0x22866561c83df21b8ba65b695a4b93b4752c65f9a2003273ffb5f7f0a5a362e9"
                                        },
                                        {
                                            "name": "s",
                                            "type": "bytes32",
                                            "value": "0x1f3481d21ab039d8d65dce0dbf951da10608a9e605958216a59bbab5bbacec9c"
                                        }
                                    ]
                                ]
                            }
                        ],
                        "constructorArguments": "",
                        "name": "submitWithdrawal",
                        "returnParams": [
                            {
                                "name": "_locked",
                                "type": "bool",
                                "value": false
                            }
                        ],
                        "signature": "submitWithdrawal((uint256,uint8,(address,address,uint256),(address,address,uint256),(uint8,uint256,uint256)),(uint8,bytes32,bytes32)[])"
                    },
                    "errorInfo": "",
                    "fromAddress": "0x64192819ac13ef72bf6b5ae239ac672b43a9af08",
                    "gasUsed": 85984,
                    "id": 2,
                    "methodDecoded": true,
                    "operation": "DELEGATECALL",
                    "output": "0x0000000000000000000000000000000000000000000000000000000000000000",
                    "revert": false,
                    "revertMessage": "",
                    "selector": "0x4d0d6673",
                    "status": true,
                    "value": "0"
                },
                "nodeType": 0
            },
            "3": {
                "invocation": {
                    "address": "0x0000000000000000000000000000000000000001",
                    "callData": "0x3447f23c588d66ef5a9fcc3c0b95871b960886c15226a96721ce7b26000000000000000000000000000000000000000000000000000000000000001b6bb585bd5ddb4f6f7aac127ebb94bd02031a9b8430591d50e340a88041f28e9d5f641ed496206a69ea787cad4b70a35e164ccaecd021ce5bd64f1fbb7117520c",
                    "decodedMethod": {
                        "callParams": [
                            {
                                "name": "hash",
                                "type": "bytes32",
                                "value": "0x0f58b2eb3447f23c588d66ef5a9fcc3c0b95871b960886c15226a96721ce7b26"
                            },
                            {
                                "name": "v",
                                "type": "uint256",
                                "value": "27"
                            },
                            {
                                "name": "r",
                                "type": "bytes32",
                                "value": "0x6bb585bd5ddb4f6f7aac127ebb94bd02031a9b8430591d50e340a88041f28e9d"
                            },
                            {
                                "name": "s",
                                "type": "bytes32",
                                "value": "0x5f641ed496206a69ea787cad4b70a35e164ccaecd021ce5bd64f1fbb7117520c"
                            }
                        ],
                        "constructorArguments": "",
                        "name": "ecrecover",
                        "returnParams": [
                            {
                                "name": "",
                                "type": "address",
                                "value": "0x493d21befb2d21b958110884aa0622749869f32b"
                            }
                        ],
                        "signature": "ecrecover(bytes32,uint256,bytes32,bytes32)"
                    },
                    "errorInfo": "",
                    "fromAddress": "0x64192819ac13ef72bf6b5ae239ac672b43a9af08",
                    "gasUsed": 3000,
                    "id": 3,
                    "methodDecoded": true,
                    "operation": "STATICCALL",
                    "output": "0x000000000000000000000000493d21befb2d21b958110884aa0622749869f32b",
                    "revert": false,
                    "revertMessage": "",
                    "selector": "0x0f58b2eb",
                    "status": true,
                    "value": "0"
                },
                "nodeType": 0
            },
            "4": {
                "invocation": {
                    "address": "0x02f3d3912f8bd97c4791970aa4cf96dedd05772c",
                    "callData": "0x",
                    "decodedMethod": null,
                    "errorInfo": "",
                    "fromAddress": "0x64192819ac13ef72bf6b5ae239ac672b43a9af08",
                    "gasUsed": 40,
                    "id": 4,
                    "methodDecoded": false,
                    "operation": "CALL",
                    "output": "",
                    "revert": false,
                    "revertMessage": "",
                    "selector": "fallback",
                    "status": true,
                    "value": "2.41731119075698267"
                },
                "nodeType": 0
            },
            "5": {
                "event": {
                    "contract": "0x64192819ac13ef72bf6b5ae239ac672b43a9af08",
                    "decodedLog": {
                        "name": "Withdrew",
                        "params": [
                            {
                                "name": "receiptHash",
                                "type": "bytes32",
                                "value": "0x9ba48c382223210599b242fa5767e0dc7d625f10ea39665103a8248f185e838f"
                            },
                            {
                                "name": "receipt",
                                "type": "(uint256,uint8,(address,address,uint256),(address,address,uint256),(uint8,uint256,uint256))",
                                "value": [
                                    {
                                        "name": "id",
                                        "type": "uint256",
                                        "value": "166,632"
                                    },
                                    {
                                        "name": "kind",
                                        "type": "uint8",
                                        "value": "1"
                                    },
                                    {
                                        "name": "mainchain",
                                        "type": "(address,address,uint256)",
                                        "value": [
                                            {
                                                "name": "addr",
                                                "type": "address",
                                                "value": "0x02f3d3912f8bd97c4791970aa4cf96dedd05772c"
                                            },
                                            {
                                                "name": "tokenAddr",
                                                "type": "address",
                                                "value": "0xc02aaa39b223fe8d0a0e5c4f27ead9083c756cc2"
                                            },
                                            {
                                                "name": "chainId",
                                                "type": "uint256",
                                                "value": "1"
                                            }
                                        ]
                                    },
                                    {
                                        "name": "ronin",
                                        "type": "(address,address,uint256)",
                                        "value": [
                                            {
                                                "name": "addr",
                                                "type": "address",
                                                "value": "0x6a16fd4770a2ba4dd8303184337b78048a140bf8"
                                            },
                                            {
                                                "name": "tokenAddr",
                                                "type": "address",
                                                "value": "0xc99a6a985ed2cac1ef41640596c5a5f9f4e19ef5"
                                            },
                                            {
                                                "name": "chainId",
                                                "type": "uint256",
                                                "value": "2,020"
                                            }
                                        ]
                                    },
                                    {
                                        "name": "info",
                                        "type": "(uint8,uint256,uint256)",
                                        "value": [
                                            {
                                                "name": "erc",
                                                "type": "uint8",
                                                "value": "0"
                                            },
                                            {
                                                "name": "id",
                                                "type": "uint256",
                                                "value": "0"
                                            },
                                            {
                                                "name": "quantity",
                                                "type": "uint256",
                                                "value": "2,417,311,190,756,982,670"
                                            }
                                        ]
                                    }
                                ]
                            }
                        ],
                        "signature": "Withdrew(bytes32,(uint256,uint8,(address,address,uint256),(address,address,uint256),(uint8,uint256,uint256)))"
                    },
                    "id": 5,
                    "logData": "0x9ba48c382223210599b242fa5767e0dc7d625f10ea39665103a8248f185e838f0000000000000000000000000000000000000000000000000000000000028ae8000000000000000000000000000000000000000000000000000000000000000100000000000000000000000002f3d3912f8bd97c4791970aa4cf96dedd05772c000000000000000000000000c02aaa39b223fe8d0a0e5c4f27ead9083c756cc200000000000000000000000000000000000000000000000000000000000000010000000000000000000000006a16fd4770a2ba4dd8303184337b78048a140bf8000000000000000000000000c99a6a985ed2cac1ef41640596c5a5f9f4e19ef500000000000000000000000000000000000000000000000000000000000007e400000000000000000000000000000000000000000000000000000000000000000000000000000000000000000000000000000000000000000000000000000000000000000000000000000000000000000000000000000000218c03b874a57f8e",
                    "logDecoded": true,
                    "operation": "EVENT",
                    "revert": false,
                    "status": true,
                    "topics": [
                        "0x21e88e956aa3e086f6388e899965cef814688f99ad8bb29b08d396571016372d"
                    ]
                },
                "nodeType": 1
            },
            "6": {
                "invocation": {
                    "address": "0x00001b0bcca9bc88774000692def9dd6452afb9f",
                    "callData": "0x",
                    "decodedMethod": null,
                    "errorInfo": "",
                    "fromAddress": "0x02f3d3912f8bd97c4791970aa4cf96dedd05772c",
                    "gasUsed": 0,
                    "id": 6,
                    "methodDecoded": false,
                    "operation": "CALL",
                    "output": "",
                    "revert": false,
                    "revertMessage": "",
                    "selector": "fallback",
                    "status": true,
                    "value": "2.41731119075698267"
                },
                "nodeType": 0
            }
        },
        "gasFlame": [
            {
                "children": [
                    {
                        "children": [
                            {
                                "children": [],
                                "depth": 0,
                                "name": "Initial Gas",
                                "value": 47216
                            },
                            {
                                "children": [
                                    {
                                        "children": [
                                            {
                                                "children": [
                                                    {
                                                        "children": [],
                                                        "depth": 3,
                                                        "name": "ecrecover",
                                                        "value": 3000
                                                    },
                                                    {
                                                        "children": [],
                                                        "depth": 3,
                                                        "name": "fallback",
                                                        "value": 40
                                                    }
                                                ],
                                                "depth": 2,
                                                "name": "submitWithdrawal",
                                                "value": 85984
                                            }
                                        ],
                                        "depth": 1,
                                        "name": "submitWithdrawal",
                                        "value": 93684
                                    },
                                    {
                                        "children": [],
                                        "depth": 1,
                                        "name": "fallback",
                                        "value": 0
                                    }
                                ],
                                "depth": 0,
                                "name": "Executed Gas",
                                "value": 112767
                            }
                        ],
                        "depth": -1,
                        "name": "Actual Gas Used",
                        "value": 159983
                    },
                    {
                        "children": [],
                        "depth": -1,
                        "name": "Refunded Gas",
                        "value": 0
                    }
                ],
                "depth": -2,
                "name": "Total Gas",
                "value": 159983
            }
        ],
        "isConfirmed": true,
        "mainTrace": [
            {
                "children": [
                    {
                        "children": [
                            {
                                "children": [
                                    {
                                        "children": [
                                            {
                                                "children": [],
                                                "depth": 3,
                                                "id": 3,
                                                "order": 3
                                            },
                                            {
                                                "children": [],
                                                "depth": 3,
                                                "id": 4,
                                                "order": 4
                                            },
                                            {
                                                "children": [],
                                                "depth": 3,
                                                "id": 5,
                                                "order": 5
                                            }
                                        ],
                                        "depth": 2,
                                        "id": 2,
                                        "order": 2
                                    }
                                ],
                                "depth": 1,
                                "id": 1,
                                "order": 1
                            },
                            {
                                "children": [],
                                "depth": 1,
                                "id": 6,
                                "order": 6
                            }
                        ],
                        "depth": 0,
                        "id": 0,
                        "order": 0
                    }
                ],
                "depth": -1,
                "id": -1,
                "order": -1
            }
        ],
        "mainTraceNodeCount": 7,
        "parentIdMap": {
            "0": -1,
            "1": 0,
            "2": 1,
            "3": 2,
            "4": 2,
            "5": 2,
            "6": 0
        },
        "tidyTrace": [
            {
                "children": [
                    {
                        "children": [
                            {
                                "children": [
                                    {
                                        "children": [
                                            {
                                                "children": [],
                                                "depth": 3,
                                                "id": 4,
                                                "order": 4
                                            },
                                            {
                                                "children": [],
                                                "depth": 3,
                                                "id": 5,
                                                "order": 5
                                            }
                                        ],
                                        "depth": 2,
                                        "id": 2,
                                        "order": 2
                                    }
                                ],
                                "depth": 1,
                                "id": 1,
                                "order": 1
                            },
                            {
                                "children": [],
                                "depth": 1,
                                "id": 6,
                                "order": 6
                            }
                        ],
                        "depth": 0,
                        "id": 0,
                        "order": 0
                    }
                ],
                "depth": -1,
                "id": -1,
                "order": -1
            }
        ],
        "tidyTraceNodeCount": 6
    },
    "state_change": {
        "stateChanges": [
            {
                "address": "0x64192819ac13ef72bf6b5ae239ac672b43a9af08",
                "erc": "",
                "slots": [
                    {
                        "current": "0x9ba48c382223210599b242fa5767e0dc7d625f10ea39665103a8248f185e838f",
                        "key": "0x988e38afc1cac9b4dfcc11f38a6068045b51f962730052c6baa4c6c4938e2e6f",
                        "prev": "0x0000000000000000000000000000000000000000000000000000000000000000"
                    },
                    {
                        "current": "0x0000000000000000000000000000000000000000000000de5e01579608a4565e",
                        "key": "0x606aca94012633eb821ed768c7b0057dae4bf713fc7c8e38b8b84cab0393b9cd",
                        "prev": "0x0000000000000000000000000000000000000000000000de3c7553dd93fed6d0"
                    }
                ],
                "storageVariables": [
                    {
                        "name": "withdrawalHash",
                        "type": "mapping(uint256 => bytes32)",
                        "value": {
                            "pairs": [
                                {
                                    "key": "166632",
                                    "value": {
                                        "current": "0x9ba48c382223210599b242fa5767e0dc7d625f10ea39665103a8248f185e838f",
                                        "prev": "0x0000000000000000000000000000000000000000000000000000000000000000",
                                        "typeTag": 1
                                    }
                                }
                            ],
                            "typeTag": 4
                        }
                    },
                    {
                        "name": "lastSyncedWithdrawal",
                        "type": "mapping(address => uint256)",
                        "value": {
                            "pairs": [
                                {
                                    "key": "0xc02aaa39b223fe8d0a0e5c4f27ead9083c756cc2",
                                    "value": {
                                        "current": "4101950975979964094046",
                                        "prev": "4099533664789207111376",
                                        "typeTag": 1
                                    }
                                }
                            ],
                            "typeTag": 4
                        }
                    }
                ]
            }
        ]
    }
}