{
    "balance_change": {
        "balanceChanges": []
    },
    "profile": {
        "basic_info": {
            "baseFee": "22.630835158",
            "blockNumber": 15928595,
            "callData": "0x788fb484000000000000000000000000000000000000000000000000000000000000006000000000000000000000000000000000000000000000000000000000000000c0000000000000000000000000000000000000000000000000000000000000012000000000000000000000000000000000000000000000000000000000000000020000000000000000000000003472a5a71965499acd81997a54bba8d852c6e53d000000000000000000000000a0b86991c6218b36c1d19d4a2e9eb0ce3606eb4800000000000000000000000000000000000000000000000000000000000000020000000000000000000000000000000000000000000008a931857683449000000000000000000000000000000000000000000000000000000000001c620b6c0000000000000000000000000000000000000000000000000000000000000000c0000000000000000000000000a0b86991c6218b36c1d19d4a2e9eb0ce3606eb480000000000000000000000003472a5a71965499acd81997a54bba8d852c6e53d000000000000000000000000a898974410f7e7689bb626b41bc2292c6a0f56940000000000000000000000000000000000000000000008a931857683449000000000000000000000000000000000000000000000000000000000001c620fb1c00000000000000000000000000000000000000000000000000000001a33404640",
            "debugEnable": true,
            "errorInfo": "execution reverted",
            "eventCount": 15,
            "feeRecipient": "0x5e795999d4f19b13baa5b6e9df418f7cc479c502",
            "formatValue": "0",
            "gasLimit": 1143703,
            "gasPrice": "24.130835158",
            "gasUsed": 524044,
            "intTxnCount": 38,
            "internalRevert": true,
            "internalRevertMessage": "",
            "isContractCreation": false,
            "isFlashloan": true,
            "maxFee": "28.405185927",
            "nonce": 3,
            "overwritedBlockNumber": -1,
            "priorityFee": "1.5",
            "receiver": "0x7e96ffb79444c2e323701a20021579fa47f0a5b0",
            "revertMessage": "BoringMath: Underflow",
            "sender": "0xb7ea0f0f8c6df7a61bf024db21bbe85ac5688005",
            "simulationEnable": true,
            "sourceTxnHash": "0x7a845d8d2af7919f5b9e22dd5571305cb5347d17986a8402715c1463d515fc18",
            "status": false,
            "timestamp": "2022-11-08T23:28:11Z",
            "transactionFee": "0.012645619379538952",
            "txnHash": "0x7a845d8d2af7919f5b9e22dd5571305cb5347d17986a8402715c1463d515fc18",
            "txnIndex": 61,
            "type": 2,
            "value": "0"
        },
        "fund_flow": [],
        "token_infos": [
            {
                "address": "0xa0b86991c6218b36c1d19d4a2e9eb0ce3606eb48",
                "decimals": 6
            },
            {
                "address": "0xa898974410f7e7689bb626b41bc2292c6a0f5694",
                "decimals": 6
            },
            {
                "address": "0xc02aaa39b223fe8d0a0e5c4f27ead9083c756cc2",
                "decimals": 18
            },
            {
                "address": "0xeeeeeeeeeeeeeeeeeeeeeeeeeeeeeeeeeeeeeeee",
                "decimals": 18
            },
            {
                "address": "0x3472a5a71965499acd81997a54bba8d852c6e53d",
                "decimals": 18
            }
        ]
    },
    "address_label": {
        "labels": [
            {
                "address": "0xa2327a938febf5fec13bacfb16ae10ecbc4cbdcf",
                "label": "FiatTokenV2_1"
            },
            {
                "address": "0xf5bce5077908a1b7370b9ae04adc565ebd643966",
                "label": "SushiSwap: BentoBoxV1"
            },
            {
                "address": "0xddb2dfad74f64f14bb1a1cbab9c03bc0eed74493",
                "label": "Badger: Gated Mini Me Controller"
            },
            {
                "address": "0xa0b86991c6218b36c1d19d4a2e9eb0ce3606eb48",
                "label": "Circle: USDC Token"
            },
            {
                "address": "0x0000000000000000000000000000000000000004",
                "label": "Precompiled"
            },
            {
                "address": "0xa898974410f7e7689bb626b41bc2292c6a0f5694",
                "label": "Kashi Medium Risk Badger/USD Coin-... (kmBADGER/...)"
            },
            {
                "address": "0xba12222222228d8ba445958a75a0704d566bf2c8",
                "label": "Balancer: Vault"
            },
            {
                "address": "0xeba06639750badcdf5ee100d72f3c93f2d1918a7",
                "label": "GatedMiniMeController"
            },
            {
                "address": "0x0000000000000000000000000000000000000001",
                "label": "Precompiled"
            },
            {
                "address": "0xce88686553686da562ce7cea497ce749da109f9f",
                "label": "ProtocolFeesCollector"
            },
            {
                "address": "0x0000000000000000000000000000000000000002",
                "label": "Precompiled"
            },
            {
                "address": "0xeeeeeeeeeeeeeeeeeeeeeeeeeeeeeeeeeeeeeeee",
                "label": "Ether"
            },
            {
                "address": "0x3472a5a71965499acd81997a54bba8d852c6e53d",
                "label": "Badger: BADGER Token"
            },
            {
                "address": "0x2cba6ab6574646badc84f0544d05059e57a5dc42",
                "label": "SushiSwap: Kashi Pair Medium Risk V1"
            },
            {
                "address": "0x0000000000000000000000000000000000000003",
                "label": "Precompiled"
            }
        ]
    },
    "trace": {
        "accountLabels": null,
        "dataMap": {
            "-1": {
                "invocation": {
                    "address": "0xb7ea0f0f8c6df7a61bf024db21bbe85ac5688005",
                    "callData": "",
                    "decodedMethod": null,
                    "errorInfo": "",
                    "fromAddress": "",
                    "gasUsed": 0,
                    "id": -1,
                    "methodDecoded": false,
                    "operation": "",
                    "output": "",
                    "revert": false,
                    "revertMessage": "",
                    "selector": "",
                    "status": false,
                    "value": ""
                },
                "nodeType": 0
            },
            "0": {
                "invocation": {
                    "address": "0x7e96ffb79444c2e323701a20021579fa47f0a5b0",
                    "callData": "0x000000000000000000000000000000000000000000000000000000000000006000000000000000000000000000000000000000000000000000000000000000c0000000000000000000000000000000000000000000000000000000000000012000000000000000000000000000000000000000000000000000000000000000020000000000000000000000003472a5a71965499acd81997a54bba8d852c6e53d000000000000000000000000a0b86991c6218b36c1d19d4a2e9eb0ce3606eb4800000000000000000000000000000000000000000000000000000000000000020000000000000000000000000000000000000000000008a931857683449000000000000000000000000000000000000000000000000000000000001c620b6c0000000000000000000000000000000000000000000000000000000000000000c0000000000000000000000000a0b86991c6218b36c1d19d4a2e9eb0ce3606eb480000000000000000000000003472a5a71965499acd81997a54bba8d852c6e53d000000000000000000000000a898974410f7e7689bb626b41bc2292c6a0f56940000000000000000000000000000000000000000000008a931857683449000000000000000000000000000000000000000000000000000000000001c620fb1c00000000000000000000000000000000000000000000000000000001a33404640",
                    "decodedMethod": {
                        "callParams": [
                            {
                                "name": "tokens",
                                "type": "address[]",
                                "value": [
                                    "0x3472a5a71965499acd81997a54bba8d852c6e53d",
                                    "0xa0b86991c6218b36c1d19d4a2e9eb0ce3606eb48"
                                ]
                            },
                            {
                                "name": "amounts",
                                "type": "uint256[]",
                                "value": [
                                    "40,900,000,000,000,000,000,000",
                                    "121,904,000,000"
                                ]
                            },
                            {
                                "name": "userData",
                                "type": "bytes",
                                "value": "0x000000000000000000000000a0b86991c6218b36c1d19d4a2e9eb0ce3606eb480000000000000000000000003472a5a71965499acd81997a54bba8d852c6e53d000000000000000000000000a898974410f7e7689bb626b41bc2292c6a0f56940000000000000000000000000000000000000000000008a931857683449000000000000000000000000000000000000000000000000000000000001c620fb1c00000000000000000000000000000000000000000000000000000001a33404640"
                            }
                        ],
                        "constructorArguments": "",
                        "name": "flashLoan",
                        "returnParams": [],
                        "signature": "flashLoan(address[],uint256[],bytes)"
                    },
                    "errorInfo": "execution reverted",
                    "fromAddress": "0xb7ea0f0f8c6df7a61bf024db21bbe85ac5688005",
                    "gasUsed": 524044,
                    "id": 0,
                    "methodDecoded": true,
                    "operation": "CALL",
                    "output": "0x08c379a000000000000000000000000000000000000000000000000000000000000000200000000000000000000000000000000000000000000000000000000000000015426f72696e674d6174683a20556e646572666c6f770000000000000000000000",
                    "revert": true,
                    "revertMessage": "BoringMath: Underflow",
                    "selector": "0x788fb484",
                    "status": false,
                    "value": "0"
                },
                "nodeType": 0
            },
            "1": {
                "invocation": {
                    "address": "0xba12222222228d8ba445958a75a0704d566bf2c8",
                    "callData": "0x0000000000000000000000007e96ffb79444c2e323701a20021579fa47f0a5b0000000000000000000000000000000000000000000000000000000000000008000000000000000000000000000000000000000000000000000000000000000e0000000000000000000000000000000000000000000000000000000000000014000000000000000000000000000000000000000000000000000000000000000020000000000000000000000003472a5a71965499acd81997a54bba8d852c6e53d000000000000000000000000a0b86991c6218b36c1d19d4a2e9eb0ce3606eb4800000000000000000000000000000000000000000000000000000000000000020000000000000000000000000000000000000000000008a931857683449000000000000000000000000000000000000000000000000000000000001c620b6c0000000000000000000000000000000000000000000000000000000000000000c0000000000000000000000000a0b86991c6218b36c1d19d4a2e9eb0ce3606eb480000000000000000000000003472a5a71965499acd81997a54bba8d852c6e53d000000000000000000000000a898974410f7e7689bb626b41bc2292c6a0f56940000000000000000000000000000000000000000000008a931857683449000000000000000000000000000000000000000000000000000000000001c620fb1c00000000000000000000000000000000000000000000000000000001a33404640",
                    "decodedMethod": {
                        "callParams": [
                            {
                                "name": "recipient",
                                "type": "address",
                                "value": "0x7e96ffb79444c2e323701a20021579fa47f0a5b0"
                            },
                            {
                                "name": "tokens",
                                "type": "address[]",
                                "value": [
                                    "0x3472a5a71965499acd81997a54bba8d852c6e53d",
                                    "0xa0b86991c6218b36c1d19d4a2e9eb0ce3606eb48"
                                ]
                            },
                            {
                                "name": "amounts",
                                "type": "uint256[]",
                                "value": [
                                    "40,900,000,000,000,000,000,000",
                                    "121,904,000,000"
                                ]
                            },
                            {
                                "name": "userData",
                                "type": "bytes",
                                "value": "0x000000000000000000000000a0b86991c6218b36c1d19d4a2e9eb0ce3606eb480000000000000000000000003472a5a71965499acd81997a54bba8d852c6e53d000000000000000000000000a898974410f7e7689bb626b41bc2292c6a0f56940000000000000000000000000000000000000000000008a931857683449000000000000000000000000000000000000000000000000000000000001c620fb1c00000000000000000000000000000000000000000000000000000001a33404640"
                            }
                        ],
                        "constructorArguments": "",
                        "name": "flashLoan",
                        "returnParams": [],
                        "signature": "flashLoan(address,address[],uint256[],bytes)"
                    },
                    "errorInfo": "execution reverted",
                    "fromAddress": "0x7e96ffb79444c2e323701a20021579fa47f0a5b0",
                    "gasUsed": 490864,
                    "id": 1,
                    "methodDecoded": true,
                    "operation": "CALL",
                    "output": "0x08c379a000000000000000000000000000000000000000000000000000000000000000200000000000000000000000000000000000000000000000000000000000000015426f72696e674d6174683a20556e646572666c6f770000000000000000000000",
                    "revert": true,
                    "revertMessage": "BoringMath: Underflow",
                    "selector": "0x5c38449e",
                    "status": false,
                    "value": "0"
                },
                "nodeType": 0
            },
            "10": {
                "invocation": {
                    "address": "0xce88686553686da562ce7cea497ce749da109f9f",
                    "callData": "0x",
                    "decodedMethod": {
                        "callParams": [],
                        "constructorArguments": "",
                        "name": "getFlashLoanFeePercentage",
                        "returnParams": [
                            {
                                "name": "",
                                "type": "uint256",
                                "value": "0"
                            }
                        ],
                        "signature": "getFlashLoanFeePercentage()"
                    },
                    "errorInfo": "",
                    "fromAddress": "0xba12222222228d8ba445958a75a0704d566bf2c8",
                    "gasUsed": 350,
                    "id": 10,
                    "methodDecoded": true,
                    "operation": "STATICCALL",
                    "output": "0x0000000000000000000000000000000000000000000000000000000000000000",
                    "revert": true,
                    "revertMessage": "",
                    "selector": "0xd877845c",
                    "status": true,
                    "value": "0"
                },
                "nodeType": 0
            },
            "11": {
                "invocation": {
                    "address": "0xa0b86991c6218b36c1d19d4a2e9eb0ce3606eb48",
                    "callData": "0x0000000000000000000000007e96ffb79444c2e323701a20021579fa47f0a5b00000000000000000000000000000000000000000000000000000001c620b6c00",
                    "decodedMethod": {
                        "callParams": [
                            {
                                "name": "to",
                                "type": "address",
                                "value": "0x7e96ffb79444c2e323701a20021579fa47f0a5b0"
                            },
                            {
                                "decimalAvailable": true,
                                "name": "value",
                                "type": "uint256",
                                "value": "121,904,000,000"
                            }
                        ],
                        "constructorArguments": "",
                        "name": "transfer",
                        "returnParams": [
                            {
                                "name": "",
                                "type": "bool",
                                "value": true
                            }
                        ],
                        "signature": "transfer(address,uint256)"
                    },
                    "errorInfo": "",
                    "fromAddress": "0xba12222222228d8ba445958a75a0704d566bf2c8",
                    "gasUsed": 35517,
                    "id": 11,
                    "methodDecoded": true,
                    "operation": "CALL",
                    "output": "0x0000000000000000000000000000000000000000000000000000000000000001",
                    "revert": true,
                    "revertMessage": "",
                    "selector": "0xa9059cbb",
                    "status": true,
                    "value": "0"
                },
                "nodeType": 0
            },
            "12": {
                "invocation": {
                    "address": "0xa2327a938febf5fec13bacfb16ae10ecbc4cbdcf",
                    "callData": "0x0000000000000000000000007e96ffb79444c2e323701a20021579fa47f0a5b00000000000000000000000000000000000000000000000000000001c620b6c00",
                    "decodedMethod": {
                        "callParams": [
                            {
                                "name": "to",
                                "type": "address",
                                "value": "0x7e96ffb79444c2e323701a20021579fa47f0a5b0"
                            },
                            {
                                "decimalAvailable": true,
                                "name": "value",
                                "type": "uint256",
                                "value": "121,904,000,000"
                            }
                        ],
                        "constructorArguments": "",
                        "name": "transfer",
                        "returnParams": [
                            {
                                "name": "",
                                "type": "bool",
                                "value": true
                            }
                        ],
                        "signature": "transfer(address,uint256)"
                    },
                    "errorInfo": "",
                    "fromAddress": "0xa0b86991c6218b36c1d19d4a2e9eb0ce3606eb48",
                    "gasUsed": 34728,
                    "id": 12,
                    "methodDecoded": true,
                    "operation": "DELEGATECALL",
                    "output": "0x0000000000000000000000000000000000000000000000000000000000000001",
                    "revert": true,
                    "revertMessage": "",
                    "selector": "0xa9059cbb",
                    "status": true,
                    "value": "0"
                },
                "nodeType": 0
            },
            "13": {
                "event": {
                    "contract": "0xa0b86991c6218b36c1d19d4a2e9eb0ce3606eb48",
                    "decodedLog": {
                        "name": "Transfer",
                        "params": [
                            {
                                "name": "from",
                                "type": "address",
                                "value": "0xba12222222228d8ba445958a75a0704d566bf2c8"
                            },
                            {
                                "name": "to",
                                "type": "address",
                                "value": "0x7e96ffb79444c2e323701a20021579fa47f0a5b0"
                            },
                            {
                                "decimalAvailable": true,
                                "name": "value",
                                "type": "uint256",
                                "value": "121,904,000,000"
                            }
                        ],
                        "signature": "Transfer(address,address,uint256)"
                    },
                    "id": 13,
                    "logData": "0x0000000000000000000000000000000000000000000000000000001c620b6c00",
                    "logDecoded": true,
                    "operation": "EVENT",
                    "revert": true,
                    "status": false,
                    "topics": [
                        "0xddf252ad1be2c89b69c2b068fc378daa952ba7f163c4a11628f55a4df523b3ef",
                        "0x000000000000000000000000ba12222222228d8ba445958a75a0704d566bf2c8",
                        "0x0000000000000000000000007e96ffb79444c2e323701a20021579fa47f0a5b0"
                    ]
                },
                "nodeType": 1
            },
            "14": {
                "invocation": {
                    "address": "0x7e96ffb79444c2e323701a20021579fa47f0a5b0",
                    "callData": "0x000000000000000000000000000000000000000000000000000000000000008000000000000000000000000000000000000000000000000000000000000000e0000000000000000000000000000000000000000000000000000000000000014000000000000000000000000000000000000000000000000000000000000001a000000000000000000000000000000000000000000000000000000000000000020000000000000000000000003472a5a71965499acd81997a54bba8d852c6e53d000000000000000000000000a0b86991c6218b36c1d19d4a2e9eb0ce3606eb4800000000000000000000000000000000000000000000000000000000000000020000000000000000000000000000000000000000000008a931857683449000000000000000000000000000000000000000000000000000000000001c620b6c0000000000000000000000000000000000000000000000000000000000000000020000000000000000000000000000000000000000000000000000000000000000000000000000000000000000000000000000000000000000000000000000000000000000000000000000000000000000000000000000000000000000000000c0000000000000000000000000a0b86991c6218b36c1d19d4a2e9eb0ce3606eb480000000000000000000000003472a5a71965499acd81997a54bba8d852c6e53d000000000000000000000000a898974410f7e7689bb626b41bc2292c6a0f56940000000000000000000000000000000000000000000008a931857683449000000000000000000000000000000000000000000000000000000000001c620fb1c00000000000000000000000000000000000000000000000000000001a33404640",
                    "decodedMethod": {
                        "callParams": [
                            {
                                "name": "tokens",
                                "type": "address[]",
                                "value": [
                                    "0x3472a5a71965499acd81997a54bba8d852c6e53d",
                                    "0xa0b86991c6218b36c1d19d4a2e9eb0ce3606eb48"
                                ]
                            },
                            {
                                "name": "amounts",
                                "type": "uint256[]",
                                "value": [
                                    "40,900,000,000,000,000,000,000",
                                    "121,904,000,000"
                                ]
                            },
                            {
                                "name": "feeAmounts",
                                "type": "uint256[]",
                                "value": [
                                    "0",
                                    "0"
                                ]
                            },
                            {
                                "name": "userData",
                                "type": "bytes",
                                "value": "0x000000000000000000000000a0b86991c6218b36c1d19d4a2e9eb0ce3606eb480000000000000000000000003472a5a71965499acd81997a54bba8d852c6e53d000000000000000000000000a898974410f7e7689bb626b41bc2292c6a0f56940000000000000000000000000000000000000000000008a931857683449000000000000000000000000000000000000000000000000000000000001c620fb1c00000000000000000000000000000000000000000000000000000001a33404640"
                            }
                        ],
                        "constructorArguments": "",
                        "name": "receiveFlashLoan",
                        "returnParams": [],
                        "signature": "receiveFlashLoan(address[],uint256[],uint256[],bytes)"
                    },
                    "errorInfo": "execution reverted",
                    "fromAddress": "0xba12222222228d8ba445958a75a0704d566bf2c8",
                    "gasUsed": 336344,
                    "id": 14,
                    "methodDecoded": true,
                    "operation": "CALL",
                    "output": "0x08c379a000000000000000000000000000000000000000000000000000000000000000200000000000000000000000000000000000000000000000000000000000000015426f72696e674d6174683a20556e646572666c6f770000000000000000000000",
                    "revert": true,
                    "revertMessage": "BoringMath: Underflow",
                    "selector": "0xf04f2707",
                    "status": false,
                    "value": "0"
                },
                "nodeType": 0
            },
            "15": {
                "invocation": {
                    "address": "0x3472a5a71965499acd81997a54bba8d852c6e53d",
                    "callData": "0x0000000000000000000000007e96ffb79444c2e323701a20021579fa47f0a5b0",
                    "decodedMethod": {
                        "callParams": [
                            {
                                "name": "_owner",
                                "type": "address",
                                "value": "0x7e96ffb79444c2e323701a20021579fa47f0a5b0"
                            }
                        ],
                        "constructorArguments": "",
                        "name": "balanceOf",
                        "returnParams": [
                            {
                                "decimalAvailable": true,
                                "name": "balance",
                                "type": "uint256",
                                "value": "40,900,000,000,000,000,000,000"
                            }
                        ],
                        "signature": "balanceOf(address)"
                    },
                    "errorInfo": "",
                    "fromAddress": "0x7e96ffb79444c2e323701a20021579fa47f0a5b0",
                    "gasUsed": 2016,
                    "id": 15,
                    "methodDecoded": true,
                    "operation": "STATICCALL",
                    "output": "0x0000000000000000000000000000000000000000000008a93185768344900000",
                    "revert": true,
                    "revertMessage": "",
                    "selector": "0x70a08231",
                    "status": true,
                    "value": "0"
                },
                "nodeType": 0
            },
            "16": {
                "invocation": {
                    "address": "0xa0b86991c6218b36c1d19d4a2e9eb0ce3606eb48",
                    "callData": "0x0000000000000000000000007e96ffb79444c2e323701a20021579fa47f0a5b0",
                    "decodedMethod": {
                        "callParams": [
                            {
                                "name": "account",
                                "type": "address",
                                "value": "0x7e96ffb79444c2e323701a20021579fa47f0a5b0"
                            }
                        ],
                        "constructorArguments": "",
                        "name": "balanceOf",
                        "returnParams": [
                            {
                                "decimalAvailable": true,
                                "name": "",
                                "type": "uint256",
                                "value": "121,904,000,000"
                            }
                        ],
                        "signature": "balanceOf(address)"
                    },
                    "errorInfo": "",
                    "fromAddress": "0x7e96ffb79444c2e323701a20021579fa47f0a5b0",
                    "gasUsed": 1315,
                    "id": 16,
                    "methodDecoded": true,
                    "operation": "STATICCALL",
                    "output": "0x0000000000000000000000000000000000000000000000000000001c620b6c00",
                    "revert": true,
                    "revertMessage": "",
                    "selector": "0x70a08231",
                    "status": true,
                    "value": "0"
                },
                "nodeType": 0
            },
            "17": {
                "invocation": {
                    "address": "0xa2327a938febf5fec13bacfb16ae10ecbc4cbdcf",
                    "callData": "0x0000000000000000000000007e96ffb79444c2e323701a20021579fa47f0a5b0",
                    "decodedMethod": {
                        "callParams": [
                            {
                                "name": "account",
                                "type": "address",
                                "value": "0x7e96ffb79444c2e323701a20021579fa47f0a5b0"
                            }
                        ],
                        "constructorArguments": "",
                        "name": "balanceOf",
                        "returnParams": [
                            {
                                "decimalAvailable": true,
                                "name": "",
                                "type": "uint256",
                                "value": "121,904,000,000"
                            }
                        ],
                        "signature": "balanceOf(address)"
                    },
                    "errorInfo": "",
                    "fromAddress": "0xa0b86991c6218b36c1d19d4a2e9eb0ce3606eb48",
                    "gasUsed": 529,
                    "id": 17,
                    "methodDecoded": true,
                    "operation": "DELEGATECALL",
                    "output": "0x0000000000000000000000000000000000000000000000000000001c620b6c00",
                    "revert": true,
                    "revertMessage": "",
                    "selector": "0x70a08231",
                    "status": true,
                    "value": "0"
                },
                "nodeType": 0
            },
            "18": {
                "invocation": {
                    "address": "0xf5bce5077908a1b7370b9ae04adc565ebd643966",
                    "callData": "0x0000000000000000000000007e96ffb79444c2e323701a20021579fa47f0a5b00000000000000000000000002cba6ab6574646badc84f0544d05059e57a5dc420000000000000000000000000000000000000000000000000000000000000001000000000000000000000000000000000000000000000000000000000000000000000000000000000000000000000000000000000000000000000000000000000000000000000000000000000000000000000000000000000000000000000000",
                    "decodedMethod": {
                        "callParams": [
                            {
                                "name": "user",
                                "type": "address",
                                "value": "0x7e96ffb79444c2e323701a20021579fa47f0a5b0"
                            },
                            {
                                "name": "masterContract",
                                "type": "address",
                                "value": "0x2cba6ab6574646badc84f0544d05059e57a5dc42"
                            },
                            {
                                "name": "approved",
                                "type": "bool",
                                "value": true
                            },
                            {
                                "name": "v",
                                "type": "uint8",
                                "value": "0"
                            },
                            {
                                "name": "r",
                                "type": "bytes32",
                                "value": "0x0000000000000000000000000000000000000000000000000000000000000000"
                            },
                            {
                                "name": "s",
                                "type": "bytes32",
                                "value": "0x0000000000000000000000000000000000000000000000000000000000000000"
                            }
                        ],
                        "constructorArguments": "",
                        "name": "setMasterContractApproval",
                        "returnParams": [],
                        "signature": "setMasterContractApproval(address,address,bool,uint8,bytes32,bytes32)"
                    },
                    "errorInfo": "",
                    "fromAddress": "0x7e96ffb79444c2e323701a20021579fa47f0a5b0",
                    "gasUsed": 29394,
                    "id": 18,
                    "methodDecoded": true,
                    "operation": "CALL",
                    "output": "",
                    "revert": true,
                    "revertMessage": "",
                    "selector": "0xc0a47c93",
                    "status": true,
                    "value": "0"
                },
                "nodeType": 0
            },
            "19": {
                "event": {
                    "contract": "0xf5bce5077908a1b7370b9ae04adc565ebd643966",
                    "decodedLog": {
                        "name": "LogSetMasterContractApproval",
                        "params": [
                            {
                                "name": "masterContract",
                                "type": "address",
                                "value": "0x2cba6ab6574646badc84f0544d05059e57a5dc42"
                            },
                            {
                                "name": "user",
                                "type": "address",
                                "value": "0x7e96ffb79444c2e323701a20021579fa47f0a5b0"
                            },
                            {
                                "name": "approved",
                                "type": "bool",
                                "value": true
                            }
                        ],
                        "signature": "LogSetMasterContractApproval(address,address,bool)"
                    },
                    "id": 19,
                    "logData": "0x0000000000000000000000000000000000000000000000000000000000000001",
                    "logDecoded": true,
                    "operation": "EVENT",
                    "revert": true,
                    "status": false,
                    "topics": [
                        "0x5f6ebb64ba012a851c6f014e6cad458ddf213d1512049b31cd06365c2b059257",
                        "0x0000000000000000000000002cba6ab6574646badc84f0544d05059e57a5dc42",
                        "0x0000000000000000000000007e96ffb79444c2e323701a20021579fa47f0a5b0"
                    ]
                },
                "nodeType": 1
            },
            "2": {
                "invocation": {
                    "address": "0x3472a5a71965499acd81997a54bba8d852c6e53d",
                    "callData": "0x000000000000000000000000ba12222222228d8ba445958a75a0704d566bf2c8",
                    "decodedMethod": {
                        "callParams": [
                            {
                                "name": "_owner",
                                "type": "address",
                                "value": "0xba12222222228d8ba445958a75a0704d566bf2c8"
                            }
                        ],
                        "constructorArguments": "",
                        "name": "balanceOf",
                        "returnParams": [
                            {
                                "decimalAvailable": true,
                                "name": "balance",
                                "type": "uint256",
                                "value": "1,979,368,249,484,577,445,904,278"
                            }
                        ],
                        "signature": "balanceOf(address)"
                    },
                    "errorInfo": "",
                    "fromAddress": "0xba12222222228d8ba445958a75a0704d566bf2c8",
                    "gasUsed": 8016,
                    "id": 2,
                    "methodDecoded": true,
                    "operation": "STATICCALL",
                    "output": "0x00000000000000000000000000000000000000000001a325c48f53c75e39ff96",
                    "revert": true,
                    "revertMessage": "",
                    "selector": "0x70a08231",
                    "status": true,
                    "value": "0"
                },
                "nodeType": 0
            },
            "20": {
                "invocation": {
                    "address": "0x3472a5a71965499acd81997a54bba8d852c6e53d",
                    "callData": "0x000000000000000000000000f5bce5077908a1b7370b9ae04adc565ebd643966ffffffffffffffffffffffffffffffffffffffffffffffffffffffffffffffff",
                    "decodedMethod": {
                        "callParams": [
                            {
                                "name": "_spender",
                                "type": "address",
                                "value": "0xf5bce5077908a1b7370b9ae04adc565ebd643966"
                            },
                            {
                                "decimalAvailable": true,
                                "name": "_amount",
                                "type": "uint256",
                                "value": "115,792,089,237,316,195,423,570,985,008,687,907,853,269,984,665,640,564,039,457,584,007,913,129,639,935"
                            }
                        ],
                        "constructorArguments": "",
                        "name": "approve",
                        "returnParams": [
                            {
                                "name": "success",
                                "type": "bool",
                                "value": true
                            }
                        ],
                        "signature": "approve(address,uint256)"
                    },
                    "errorInfo": "",
                    "fromAddress": "0x7e96ffb79444c2e323701a20021579fa47f0a5b0",
                    "gasUsed": 26808,
                    "id": 20,
                    "methodDecoded": true,
                    "operation": "CALL",
                    "output": "0x0000000000000000000000000000000000000000000000000000000000000001",
                    "revert": true,
                    "revertMessage": "",
                    "selector": "0x095ea7b3",
                    "status": true,
                    "value": "0"
                },
                "nodeType": 0
            },
            "21": {
                "invocation": {
                    "address": "0xddb2dfad74f64f14bb1a1cbab9c03bc0eed74493",
                    "callData": "0x0000000000000000000000007e96ffb79444c2e323701a20021579fa47f0a5b0000000000000000000000000f5bce5077908a1b7370b9ae04adc565ebd643966ffffffffffffffffffffffffffffffffffffffffffffffffffffffffffffffff",
                    "decodedMethod": {
                        "callParams": [
                            {
                                "name": "",
                                "type": "address",
                                "value": "0x7e96ffb79444c2e323701a20021579fa47f0a5b0"
                            },
                            {
                                "name": "",
                                "type": "address",
                                "value": "0xf5bce5077908a1b7370b9ae04adc565ebd643966"
                            },
                            {
                                "name": "",
                                "type": "uint256",
                                "value": "115,792,089,237,316,195,423,570,985,008,687,907,853,269,984,665,640,564,039,457,584,007,913,129,639,935"
                            }
                        ],
                        "constructorArguments": "",
                        "name": "onApprove",
                        "returnParams": [
                            {
                                "name": "",
                                "type": "bool",
                                "value": true
                            }
                        ],
                        "signature": "onApprove(address,address,uint256)"
                    },
                    "errorInfo": "",
                    "fromAddress": "0x3472a5a71965499acd81997a54bba8d852c6e53d",
                    "gasUsed": 1237,
                    "id": 21,
                    "methodDecoded": true,
                    "operation": "CALL",
                    "output": "0x0000000000000000000000000000000000000000000000000000000000000001",
                    "revert": true,
                    "revertMessage": "",
                    "selector": "0xda682aeb",
                    "status": true,
                    "value": "0"
                },
                "nodeType": 0
            },
            "22": {
                "invocation": {
                    "address": "0xeba06639750badcdf5ee100d72f3c93f2d1918a7",
                    "callData": "0x0000000000000000000000007e96ffb79444c2e323701a20021579fa47f0a5b0000000000000000000000000f5bce5077908a1b7370b9ae04adc565ebd643966ffffffffffffffffffffffffffffffffffffffffffffffffffffffffffffffff",
                    "decodedMethod": {
                        "callParams": [
                            {
                                "name": "",
                                "type": "address",
                                "value": "0x7e96ffb79444c2e323701a20021579fa47f0a5b0"
                            },
                            {
                                "name": "",
                                "type": "address",
                                "value": "0xf5bce5077908a1b7370b9ae04adc565ebd643966"
                            },
                            {
                                "name": "",
                                "type": "uint256",
                                "value": "115,792,089,237,316,195,423,570,985,008,687,907,853,269,984,665,640,564,039,457,584,007,913,129,639,935"
                            }
                        ],
                        "constructorArguments": "",
                        "name": "onApprove",
                        "returnParams": [
                            {
                                "name": "",
                                "type": "bool",
                                "value": true
                            }
                        ],
                        "signature": "onApprove(address,address,uint256)"
                    },
                    "errorInfo": "",
                    "fromAddress": "0xddb2dfad74f64f14bb1a1cbab9c03bc0eed74493",
                    "gasUsed": 485,
                    "id": 22,
                    "methodDecoded": true,
                    "operation": "DELEGATECALL",
                    "output": "0x0000000000000000000000000000000000000000000000000000000000000001",
                    "revert": true,
                    "revertMessage": "",
                    "selector": "0xda682aeb",
                    "status": true,
                    "value": "0"
                },
                "nodeType": 0
            },
            "23": {
                "event": {
                    "contract": "0x3472a5a71965499acd81997a54bba8d852c6e53d",
                    "decodedLog": {
                        "name": "Approval",
                        "params": [
                            {
                                "name": "_owner",
                                "type": "address",
                                "value": "0x7e96ffb79444c2e323701a20021579fa47f0a5b0"
                            },
                            {
                                "name": "_spender",
                                "type": "address",
                                "value": "0xf5bce5077908a1b7370b9ae04adc565ebd643966"
                            },
                            {
                                "decimalAvailable": true,
                                "name": "_amount",
                                "type": "uint256",
                                "value": "115,792,089,237,316,195,423,570,985,008,687,907,853,269,984,665,640,564,039,457,584,007,913,129,639,935"
                            }
                        ],
                        "signature": "Approval(address,address,uint256)"
                    },
                    "id": 23,
                    "logData": "0xffffffffffffffffffffffffffffffffffffffffffffffffffffffffffffffff",
                    "logDecoded": true,
                    "operation": "EVENT",
                    "revert": true,
                    "status": false,
                    "topics": [
                        "0x8c5be1e5ebec7d5bd14f71427d1e84f3dd0314c0f7b2291e5b200ac8c7c3b925",
                        "0x0000000000000000000000007e96ffb79444c2e323701a20021579fa47f0a5b0",
                        "0x000000000000000000000000f5bce5077908a1b7370b9ae04adc565ebd643966"
                    ]
                },
                "nodeType": 1
            },
            "24": {
                "invocation": {
                    "address": "0xf5bce5077908a1b7370b9ae04adc565ebd643966",
                    "callData": "0x0000000000000000000000003472a5a71965499acd81997a54bba8d852c6e53d0000000000000000000000007e96ffb79444c2e323701a20021579fa47f0a5b00000000000000000000000007e96ffb79444c2e323701a20021579fa47f0a5b000000000000000000000000000000000000000000000000000000000000000000000000000000000000000000000000000000000000008a93185768344900000",
                    "decodedMethod": {
                        "callParams": [
                            {
                                "name": "token_",
                                "type": "address",
                                "value": "0x3472a5a71965499acd81997a54bba8d852c6e53d"
                            },
                            {
                                "name": "from",
                                "type": "address",
                                "value": "0x7e96ffb79444c2e323701a20021579fa47f0a5b0"
                            },
                            {
                                "name": "to",
                                "type": "address",
                                "value": "0x7e96ffb79444c2e323701a20021579fa47f0a5b0"
                            },
                            {
                                "name": "amount",
                                "type": "uint256",
                                "value": "0"
                            },
                            {
                                "name": "share",
                                "type": "uint256",
                                "value": "40,900,000,000,000,000,000,000"
                            }
                        ],
                        "constructorArguments": "",
                        "name": "deposit",
                        "returnParams": [
                            {
                                "name": "amountOut",
                                "type": "uint256",
                                "value": "40,900,000,000,000,000,000,000"
                            },
                            {
                                "name": "shareOut",
                                "type": "uint256",
                                "value": "40,900,000,000,000,000,000,000"
                            }
                        ],
                        "signature": "deposit(address,address,address,uint256,uint256)"
                    },
                    "errorInfo": "",
                    "fromAddress": "0x7e96ffb79444c2e323701a20021579fa47f0a5b0",
                    "gasUsed": 53271,
                    "id": 24,
                    "methodDecoded": true,
                    "operation": "CALL",
                    "output": "0x0000000000000000000000000000000000000000000008a931857683449000000000000000000000000000000000000000000000000008a93185768344900000",
                    "revert": true,
                    "revertMessage": "",
                    "selector": "0x02b9446c",
                    "status": true,
                    "value": "0"
                },
                "nodeType": 0
            },
            "25": {
                "invocation": {
                    "address": "0x3472a5a71965499acd81997a54bba8d852c6e53d",
                    "callData": "0x0000000000000000000000007e96ffb79444c2e323701a20021579fa47f0a5b0000000000000000000000000f5bce5077908a1b7370b9ae04adc565ebd6439660000000000000000000000000000000000000000000008a93185768344900000",
                    "decodedMethod": {
                        "callParams": [
                            {
                                "name": "_from",
                                "type": "address",
                                "value": "0x7e96ffb79444c2e323701a20021579fa47f0a5b0"
                            },
                            {
                                "name": "_to",
                                "type": "address",
                                "value": "0xf5bce5077908a1b7370b9ae04adc565ebd643966"
                            },
                            {
                                "decimalAvailable": true,
                                "name": "_amount",
                                "type": "uint256",
                                "value": "40,900,000,000,000,000,000,000"
                            }
                        ],
                        "constructorArguments": "",
                        "name": "transferFrom",
                        "returnParams": [
                            {
                                "name": "success",
                                "type": "bool",
                                "value": true
                            }
                        ],
                        "signature": "transferFrom(address,address,uint256)"
                    },
                    "errorInfo": "",
                    "fromAddress": "0xf5bce5077908a1b7370b9ae04adc565ebd643966",
                    "gasUsed": 19622,
                    "id": 25,
                    "methodDecoded": true,
                    "operation": "CALL",
                    "output": "0x0000000000000000000000000000000000000000000000000000000000000001",
                    "revert": true,
                    "revertMessage": "",
                    "selector": "0x23b872dd",
                    "status": true,
                    "value": "0"
                },
                "nodeType": 0
            },
            "26": {
                "invocation": {
                    "address": "0xddb2dfad74f64f14bb1a1cbab9c03bc0eed74493",
                    "callData": "0x0000000000000000000000007e96ffb79444c2e323701a20021579fa47f0a5b0000000000000000000000000f5bce5077908a1b7370b9ae04adc565ebd6439660000000000000000000000000000000000000000000008a93185768344900000",
                    "decodedMethod": {
                        "callParams": [
                            {
                                "name": "",
                                "type": "address",
                                "value": "0x7e96ffb79444c2e323701a20021579fa47f0a5b0"
                            },
                            {
                                "name": "",
                                "type": "address",
                                "value": "0xf5bce5077908a1b7370b9ae04adc565ebd643966"
                            },
                            {
                                "name": "",
                                "type": "uint256",
                                "value": "40,900,000,000,000,000,000,000"
                            }
                        ],
                        "constructorArguments": "",
                        "name": "onTransfer",
                        "returnParams": [
                            {
                                "name": "",
                                "type": "bool",
                                "value": true
                            }
                        ],
                        "signature": "onTransfer(address,address,uint256)"
                    },
                    "errorInfo": "",
                    "fromAddress": "0x3472a5a71965499acd81997a54bba8d852c6e53d",
                    "gasUsed": 1238,
                    "id": 26,
                    "methodDecoded": true,
                    "operation": "CALL",
                    "output": "0x0000000000000000000000000000000000000000000000000000000000000001",
                    "revert": true,
                    "revertMessage": "",
                    "selector": "0x4a393149",
                    "status": true,
                    "value": "0"
                },
                "nodeType": 0
            },
            "27": {
                "invocation": {
                    "address": "0xeba06639750badcdf5ee100d72f3c93f2d1918a7",
                    "callData": "0x0000000000000000000000007e96ffb79444c2e323701a20021579fa47f0a5b0000000000000000000000000f5bce5077908a1b7370b9ae04adc565ebd6439660000000000000000000000000000000000000000000008a93185768344900000",
                    "decodedMethod": {
                        "callParams": [
                            {
                                "name": "",
                                "type": "address",
                                "value": "0x7e96ffb79444c2e323701a20021579fa47f0a5b0"
                            },
                            {
                                "name": "",
                                "type": "address",
                                "value": "0xf5bce5077908a1b7370b9ae04adc565ebd643966"
                            },
                            {
                                "name": "",
                                "type": "uint256",
                                "value": "40,900,000,000,000,000,000,000"
                            }
                        ],
                        "constructorArguments": "",
                        "name": "onTransfer",
                        "returnParams": [
                            {
                                "name": "",
                                "type": "bool",
                                "value": true
                            }
                        ],
                        "signature": "onTransfer(address,address,uint256)"
                    },
                    "errorInfo": "",
                    "fromAddress": "0xddb2dfad74f64f14bb1a1cbab9c03bc0eed74493",
                    "gasUsed": 486,
                    "id": 27,
                    "methodDecoded": true,
                    "operation": "DELEGATECALL",
                    "output": "0x0000000000000000000000000000000000000000000000000000000000000001",
                    "revert": true,
                    "revertMessage": "",
                    "selector": "0x4a393149",
                    "status": true,
                    "value": "0"
                },
                "nodeType": 0
            },
            "28": {
                "event": {
                    "contract": "0x3472a5a71965499acd81997a54bba8d852c6e53d",
                    "decodedLog": {
                        "name": "Transfer",
                        "params": [
                            {
                                "name": "_from",
                                "type": "address",
                                "value": "0x7e96ffb79444c2e323701a20021579fa47f0a5b0"
                            },
                            {
                                "name": "_to",
                                "type": "address",
                                "value": "0xf5bce5077908a1b7370b9ae04adc565ebd643966"
                            },
                            {
                                "decimalAvailable": true,
                                "name": "_amount",
                                "type": "uint256",
                                "value": "40,900,000,000,000,000,000,000"
                            }
                        ],
                        "signature": "Transfer(address,address,uint256)"
                    },
                    "id": 28,
                    "logData": "0x0000000000000000000000000000000000000000000008a93185768344900000",
                    "logDecoded": true,
                    "operation": "EVENT",
                    "revert": true,
                    "status": false,
                    "topics": [
                        "0xddf252ad1be2c89b69c2b068fc378daa952ba7f163c4a11628f55a4df523b3ef",
                        "0x0000000000000000000000007e96ffb79444c2e323701a20021579fa47f0a5b0",
                        "0x000000000000000000000000f5bce5077908a1b7370b9ae04adc565ebd643966"
                    ]
                },
                "nodeType": 1
            },
            "29": {
                "event": {
                    "contract": "0xf5bce5077908a1b7370b9ae04adc565ebd643966",
                    "decodedLog": {
                        "name": "LogDeposit",
                        "params": [
                            {
                                "name": "token",
                                "type": "address",
                                "value": "0x3472a5a71965499acd81997a54bba8d852c6e53d"
                            },
                            {
                                "name": "from",
                                "type": "address",
                                "value": "0x7e96ffb79444c2e323701a20021579fa47f0a5b0"
                            },
                            {
                                "name": "to",
                                "type": "address",
                                "value": "0x7e96ffb79444c2e323701a20021579fa47f0a5b0"
                            },
                            {
                                "name": "amount",
                                "type": "uint256",
                                "value": "40,900,000,000,000,000,000,000"
                            },
                            {
                                "name": "share",
                                "type": "uint256",
                                "value": "40,900,000,000,000,000,000,000"
                            }
                        ],
                        "signature": "LogDeposit(address,address,address,uint256,uint256)"
                    },
                    "id": 29,
                    "logData": "0x0000000000000000000000000000000000000000000008a931857683449000000000000000000000000000000000000000000000000008a93185768344900000",
                    "logDecoded": true,
                    "operation": "EVENT",
                    "revert": true,
                    "status": false,
                    "topics": [
                        "0xb2346165e782564f17f5b7e555c21f4fd96fbc93458572bf0113ea35a958fc55",
                        "0x0000000000000000000000003472a5a71965499acd81997a54bba8d852c6e53d",
                        "0x0000000000000000000000007e96ffb79444c2e323701a20021579fa47f0a5b0",
                        "0x0000000000000000000000007e96ffb79444c2e323701a20021579fa47f0a5b0"
                    ]
                },
                "nodeType": 1
            },
            "3": {
                "invocation": {
                    "address": "0xce88686553686da562ce7cea497ce749da109f9f",
                    "callData": "0x",
                    "decodedMethod": {
                        "callParams": [],
                        "constructorArguments": "",
                        "name": "getFlashLoanFeePercentage",
                        "returnParams": [
                            {
                                "name": "",
                                "type": "uint256",
                                "value": "0"
                            }
                        ],
                        "signature": "getFlashLoanFeePercentage()"
                    },
                    "errorInfo": "",
                    "fromAddress": "0xba12222222228d8ba445958a75a0704d566bf2c8",
                    "gasUsed": 2350,
                    "id": 3,
                    "methodDecoded": true,
                    "operation": "STATICCALL",
                    "output": "0x0000000000000000000000000000000000000000000000000000000000000000",
                    "revert": true,
                    "revertMessage": "",
                    "selector": "0xd877845c",
                    "status": true,
                    "value": "0"
                },
                "nodeType": 0
            },
            "30": {
                "invocation": {
                    "address": "0xa898974410f7e7689bb626b41bc2292c6a0f5694",
                    "callData": "0x0000000000000000000000007e96ffb79444c2e323701a20021579fa47f0a5b000000000000000000000000000000000000000000000000000000000000000000000000000000000000000000000000000000000000008a93185768344900000",
                    "decodedMethod": {
                        "callParams": [
                            {
                                "name": "to",
                                "type": "address",
                                "value": "0x7e96ffb79444c2e323701a20021579fa47f0a5b0"
                            },
                            {
                                "name": "skim",
                                "type": "bool",
                                "value": false
                            },
                            {
                                "name": "share",
                                "type": "uint256",
                                "value": "40,900,000,000,000,000,000,000"
                            }
                        ],
                        "constructorArguments": "",
                        "name": "addCollateral",
                        "returnParams": [],
                        "signature": "addCollateral(address,bool,uint256)"
                    },
                    "errorInfo": "",
                    "fromAddress": "0x7e96ffb79444c2e323701a20021579fa47f0a5b0",
                    "gasUsed": 46445,
                    "id": 30,
                    "methodDecoded": true,
                    "operation": "CALL",
                    "output": "",
                    "revert": true,
                    "revertMessage": "",
                    "selector": "0x860ffea1",
                    "status": true,
                    "value": "0"
                },
                "nodeType": 0
            },
            "31": {
                "invocation": {
                    "address": "0x2cba6ab6574646badc84f0544d05059e57a5dc42",
                    "callData": "0x0000000000000000000000007e96ffb79444c2e323701a20021579fa47f0a5b000000000000000000000000000000000000000000000000000000000000000000000000000000000000000000000000000000000000008a93185768344900000",
                    "decodedMethod": {
                        "callParams": [
                            {
                                "name": "to",
                                "type": "address",
                                "value": "0x7e96ffb79444c2e323701a20021579fa47f0a5b0"
                            },
                            {
                                "name": "skim",
                                "type": "bool",
                                "value": false
                            },
                            {
                                "name": "share",
                                "type": "uint256",
                                "value": "40,900,000,000,000,000,000,000"
                            }
                        ],
                        "constructorArguments": "",
                        "name": "addCollateral",
                        "returnParams": [],
                        "signature": "addCollateral(address,bool,uint256)"
                    },
                    "errorInfo": "",
                    "fromAddress": "0xa898974410f7e7689bb626b41bc2292c6a0f5694",
                    "gasUsed": 43764,
                    "id": 31,
                    "methodDecoded": true,
                    "operation": "DELEGATECALL",
                    "output": "",
                    "revert": true,
                    "revertMessage": "",
                    "selector": "0x860ffea1",
                    "status": true,
                    "value": "0"
                },
                "nodeType": 0
            },
            "32": {
                "invocation": {
                    "address": "0xf5bce5077908a1b7370b9ae04adc565ebd643966",
                    "callData": "0x0000000000000000000000003472a5a71965499acd81997a54bba8d852c6e53d0000000000000000000000007e96ffb79444c2e323701a20021579fa47f0a5b0000000000000000000000000a898974410f7e7689bb626b41bc2292c6a0f56940000000000000000000000000000000000000000000008a93185768344900000",
                    "decodedMethod": {
                        "callParams": [
                            {
                                "name": "token",
                                "type": "address",
                                "value": "0x3472a5a71965499acd81997a54bba8d852c6e53d"
                            },
                            {
                                "name": "from",
                                "type": "address",
                                "value": "0x7e96ffb79444c2e323701a20021579fa47f0a5b0"
                            },
                            {
                                "name": "to",
                                "type": "address",
                                "value": "0xa898974410f7e7689bb626b41bc2292c6a0f5694"
                            },
                            {
                                "name": "share",
                                "type": "uint256",
                                "value": "40,900,000,000,000,000,000,000"
                            }
                        ],
                        "constructorArguments": "",
                        "name": "transfer",
                        "returnParams": [],
                        "signature": "transfer(address,address,address,uint256)"
                    },
                    "errorInfo": "",
                    "fromAddress": "0xa898974410f7e7689bb626b41bc2292c6a0f5694",
                    "gasUsed": 11249,
                    "id": 32,
                    "methodDecoded": true,
                    "operation": "CALL",
                    "output": "",
                    "revert": true,
                    "revertMessage": "",
                    "selector": "0xf18d03cc",
                    "status": true,
                    "value": "0"
                },
                "nodeType": 0
            },
            "33": {
                "event": {
                    "contract": "0xf5bce5077908a1b7370b9ae04adc565ebd643966",
                    "decodedLog": {
                        "name": "LogTransfer",
                        "params": [
                            {
                                "name": "token",
                                "type": "address",
                                "value": "0x3472a5a71965499acd81997a54bba8d852c6e53d"
                            },
                            {
                                "name": "from",
                                "type": "address",
                                "value": "0x7e96ffb79444c2e323701a20021579fa47f0a5b0"
                            },
                            {
                                "name": "to",
                                "type": "address",
                                "value": "0xa898974410f7e7689bb626b41bc2292c6a0f5694"
                            },
                            {
                                "name": "share",
                                "type": "uint256",
                                "value": "40,900,000,000,000,000,000,000"
                            }
                        ],
                        "signature": "LogTransfer(address,address,address,uint256)"
                    },
                    "id": 33,
                    "logData": "0x0000000000000000000000000000000000000000000008a93185768344900000",
                    "logDecoded": true,
                    "operation": "EVENT",
                    "revert": true,
                    "status": false,
                    "topics": [
                        "0x6eabe333476233fd382224f233210cb808a7bc4c4de64f9d76628bf63c677b1a",
                        "0x0000000000000000000000003472a5a71965499acd81997a54bba8d852c6e53d",
                        "0x0000000000000000000000007e96ffb79444c2e323701a20021579fa47f0a5b0",
                        "0x000000000000000000000000a898974410f7e7689bb626b41bc2292c6a0f5694"
                    ]
                },
                "nodeType": 1
            },
            "34": {
                "event": {
                    "contract": "0xa898974410f7e7689bb626b41bc2292c6a0f5694",
                    "decodedLog": {
                        "name": "LogAddCollateral",
                        "params": [
                            {
                                "name": "from",
                                "type": "address",
                                "value": "0x7e96ffb79444c2e323701a20021579fa47f0a5b0"
                            },
                            {
                                "name": "to",
                                "type": "address",
                                "value": "0x7e96ffb79444c2e323701a20021579fa47f0a5b0"
                            },
                            {
                                "name": "share",
                                "type": "uint256",
                                "value": "40,900,000,000,000,000,000,000"
                            }
                        ],
                        "signature": "LogAddCollateral(address,address,uint256)"
                    },
                    "id": 34,
                    "logData": "0x0000000000000000000000000000000000000000000008a93185768344900000",
                    "logDecoded": true,
                    "operation": "EVENT",
                    "revert": true,
                    "status": false,
                    "topics": [
                        "0x9ed03113de523cebfe5e49d5f8e12894b1c0d42ce805990461726444c90eab87",
                        "0x0000000000000000000000007e96ffb79444c2e323701a20021579fa47f0a5b0",
                        "0x0000000000000000000000007e96ffb79444c2e323701a20021579fa47f0a5b0"
                    ]
                },
                "nodeType": 1
            },
            "35": {
                "invocation": {
                    "address": "0xa0b86991c6218b36c1d19d4a2e9eb0ce3606eb48",
                    "callData": "0x000000000000000000000000f5bce5077908a1b7370b9ae04adc565ebd643966ffffffffffffffffffffffffffffffffffffffffffffffffffffffffffffffff",
                    "decodedMethod": {
                        "callParams": [
                            {
                                "name": "spender",
                                "type": "address",
                                "value": "0xf5bce5077908a1b7370b9ae04adc565ebd643966"
                            },
                            {
                                "decimalAvailable": true,
                                "name": "value",
                                "type": "uint256",
                                "value": "115,792,089,237,316,195,423,570,985,008,687,907,853,269,984,665,640,564,039,457,584,007,913,129,639,935"
                            }
                        ],
                        "constructorArguments": "",
                        "name": "approve",
                        "returnParams": [
                            {
                                "name": "",
                                "type": "bool",
                                "value": true
                            }
                        ],
                        "signature": "approve(address,uint256)"
                    },
                    "errorInfo": "",
                    "fromAddress": "0x7e96ffb79444c2e323701a20021579fa47f0a5b0",
                    "gasUsed": 27867,
                    "id": 35,
                    "methodDecoded": true,
                    "operation": "CALL",
                    "output": "0x0000000000000000000000000000000000000000000000000000000000000001",
                    "revert": true,
                    "revertMessage": "",
                    "selector": "0x095ea7b3",
                    "status": true,
                    "value": "0"
                },
                "nodeType": 0
            },
            "36": {
                "invocation": {
                    "address": "0xa2327a938febf5fec13bacfb16ae10ecbc4cbdcf",
                    "callData": "0x000000000000000000000000f5bce5077908a1b7370b9ae04adc565ebd643966ffffffffffffffffffffffffffffffffffffffffffffffffffffffffffffffff",
                    "decodedMethod": {
                        "callParams": [
                            {
                                "name": "spender",
                                "type": "address",
                                "value": "0xf5bce5077908a1b7370b9ae04adc565ebd643966"
                            },
                            {
                                "decimalAvailable": true,
                                "name": "value",
                                "type": "uint256",
                                "value": "115,792,089,237,316,195,423,570,985,008,687,907,853,269,984,665,640,564,039,457,584,007,913,129,639,935"
                            }
                        ],
                        "constructorArguments": "",
                        "name": "approve",
                        "returnParams": [
                            {
                                "name": "",
                                "type": "bool",
                                "value": true
                            }
                        ],
                        "signature": "approve(address,uint256)"
                    },
                    "errorInfo": "",
                    "fromAddress": "0xa0b86991c6218b36c1d19d4a2e9eb0ce3606eb48",
                    "gasUsed": 27078,
                    "id": 36,
                    "methodDecoded": true,
                    "operation": "DELEGATECALL",
                    "output": "0x0000000000000000000000000000000000000000000000000000000000000001",
                    "revert": true,
                    "revertMessage": "",
                    "selector": "0x095ea7b3",
                    "status": true,
                    "value": "0"
                },
                "nodeType": 0
            },
            "37": {
                "event": {
                    "contract": "0xa0b86991c6218b36c1d19d4a2e9eb0ce3606eb48",
                    "decodedLog": {
                        "name": "Approval",
                        "params": [
                            {
                                "name": "owner",
                                "type": "address",
                                "value": "0x7e96ffb79444c2e323701a20021579fa47f0a5b0"
                            },
                            {
                                "name": "spender",
                                "type": "address",
                                "value": "0xf5bce5077908a1b7370b9ae04adc565ebd643966"
                            },
                            {
                                "decimalAvailable": true,
                                "name": "value",
                                "type": "uint256",
                                "value": "115,792,089,237,316,195,423,570,985,008,687,907,853,269,984,665,640,564,039,457,584,007,913,129,639,935"
                            }
                        ],
                        "signature": "Approval(address,address,uint256)"
                    },
                    "id": 37,
                    "logData": "0xffffffffffffffffffffffffffffffffffffffffffffffffffffffffffffffff",
                    "logDecoded": true,
                    "operation": "EVENT",
                    "revert": true,
                    "status": false,
                    "topics": [
                        "0x8c5be1e5ebec7d5bd14f71427d1e84f3dd0314c0f7b2291e5b200ac8c7c3b925",
                        "0x0000000000000000000000007e96ffb79444c2e323701a20021579fa47f0a5b0",
                        "0x000000000000000000000000f5bce5077908a1b7370b9ae04adc565ebd643966"
                    ]
                },
                "nodeType": 1
            },
            "38": {
                "invocation": {
                    "address": "0xf5bce5077908a1b7370b9ae04adc565ebd643966",
                    "callData": "0x000000000000000000000000a0b86991c6218b36c1d19d4a2e9eb0ce3606eb480000000000000000000000007e96ffb79444c2e323701a20021579fa47f0a5b00000000000000000000000007e96ffb79444c2e323701a20021579fa47f0a5b000000000000000000000000000000000000000000000000000000000000000000000000000000000000000000000000000000000000000000000001a33404640",
                    "decodedMethod": {
                        "callParams": [
                            {
                                "name": "token_",
                                "type": "address",
                                "value": "0xa0b86991c6218b36c1d19d4a2e9eb0ce3606eb48"
                            },
                            {
                                "name": "from",
                                "type": "address",
                                "value": "0x7e96ffb79444c2e323701a20021579fa47f0a5b0"
                            },
                            {
                                "name": "to",
                                "type": "address",
                                "value": "0x7e96ffb79444c2e323701a20021579fa47f0a5b0"
                            },
                            {
                                "name": "amount",
                                "type": "uint256",
                                "value": "0"
                            },
                            {
                                "name": "share",
                                "type": "uint256",
                                "value": "112,529,000,000"
                            }
                        ],
                        "constructorArguments": "",
                        "name": "deposit",
                        "returnParams": [
                            {
                                "name": "amountOut",
                                "type": "uint256",
                                "value": "113,599,899,976"
                            },
                            {
                                "name": "shareOut",
                                "type": "uint256",
                                "value": "112,529,000,000"
                            }
                        ],
                        "signature": "deposit(address,address,address,uint256,uint256)"
                    },
                    "errorInfo": "",
                    "fromAddress": "0x7e96ffb79444c2e323701a20021579fa47f0a5b0",
                    "gasUsed": 44517,
                    "id": 38,
                    "methodDecoded": true,
                    "operation": "CALL",
                    "output": "0x0000000000000000000000000000000000000000000000000000001a7314e9480000000000000000000000000000000000000000000000000000001a33404640",
                    "revert": true,
                    "revertMessage": "",
                    "selector": "0x02b9446c",
                    "status": true,
                    "value": "0"
                },
                "nodeType": 0
            },
            "39": {
                "invocation": {
                    "address": "0xa0b86991c6218b36c1d19d4a2e9eb0ce3606eb48",
                    "callData": "0x0000000000000000000000007e96ffb79444c2e323701a20021579fa47f0a5b0000000000000000000000000f5bce5077908a1b7370b9ae04adc565ebd6439660000000000000000000000000000000000000000000000000000001a7314e948",
                    "decodedMethod": {
                        "callParams": [
                            {
                                "name": "from",
                                "type": "address",
                                "value": "0x7e96ffb79444c2e323701a20021579fa47f0a5b0"
                            },
                            {
                                "name": "to",
                                "type": "address",
                                "value": "0xf5bce5077908a1b7370b9ae04adc565ebd643966"
                            },
                            {
                                "decimalAvailable": true,
                                "name": "value",
                                "type": "uint256",
                                "value": "113,599,899,976"
                            }
                        ],
                        "constructorArguments": "",
                        "name": "transferFrom",
                        "returnParams": [
                            {
                                "name": "",
                                "type": "bool",
                                "value": true
                            }
                        ],
                        "signature": "transferFrom(address,address,uint256)"
                    },
                    "errorInfo": "",
                    "fromAddress": "0xf5bce5077908a1b7370b9ae04adc565ebd643966",
                    "gasUsed": 10792,
                    "id": 39,
                    "methodDecoded": true,
                    "operation": "CALL",
                    "output": "0x0000000000000000000000000000000000000000000000000000000000000001",
                    "revert": true,
                    "revertMessage": "",
                    "selector": "0x23b872dd",
                    "status": true,
                    "value": "0"
                },
                "nodeType": 0
            },
            "4": {
                "invocation": {
                    "address": "0x3472a5a71965499acd81997a54bba8d852c6e53d",
                    "callData": "0x0000000000000000000000007e96ffb79444c2e323701a20021579fa47f0a5b00000000000000000000000000000000000000000000008a93185768344900000",
                    "decodedMethod": {
                        "callParams": [
                            {
                                "name": "_to",
                                "type": "address",
                                "value": "0x7e96ffb79444c2e323701a20021579fa47f0a5b0"
                            },
                            {
                                "decimalAvailable": true,
                                "name": "_amount",
                                "type": "uint256",
                                "value": "40,900,000,000,000,000,000,000"
                            }
                        ],
                        "constructorArguments": "",
                        "name": "transfer",
                        "returnParams": [
                            {
                                "name": "success",
                                "type": "bool",
                                "value": true
                            }
                        ],
                        "signature": "transfer(address,uint256)"
                    },
                    "errorInfo": "",
                    "fromAddress": "0xba12222222228d8ba445958a75a0704d566bf2c8",
                    "gasUsed": 74772,
                    "id": 4,
                    "methodDecoded": true,
                    "operation": "CALL",
                    "output": "0x0000000000000000000000000000000000000000000000000000000000000001",
                    "revert": true,
                    "revertMessage": "",
                    "selector": "0xa9059cbb",
                    "status": true,
                    "value": "0"
                },
                "nodeType": 0
            },
            "40": {
                "invocation": {
                    "address": "0xa2327a938febf5fec13bacfb16ae10ecbc4cbdcf",
                    "callData": "0x0000000000000000000000007e96ffb79444c2e323701a20021579fa47f0a5b0000000000000000000000000f5bce5077908a1b7370b9ae04adc565ebd6439660000000000000000000000000000000000000000000000000000001a7314e948",
                    "decodedMethod": {
                        "callParams": [
                            {
                                "name": "from",
                                "type": "address",
                                "value": "0x7e96ffb79444c2e323701a20021579fa47f0a5b0"
                            },
                            {
                                "name": "to",
                                "type": "address",
                                "value": "0xf5bce5077908a1b7370b9ae04adc565ebd643966"
                            },
                            {
                                "decimalAvailable": true,
                                "name": "value",
                                "type": "uint256",
                                "value": "113,599,899,976"
                            }
                        ],
                        "constructorArguments": "",
                        "name": "transferFrom",
                        "returnParams": [
                            {
                                "name": "",
                                "type": "bool",
                                "value": true
                            }
                        ],
                        "signature": "transferFrom(address,address,uint256)"
                    },
                    "errorInfo": "",
                    "fromAddress": "0xa0b86991c6218b36c1d19d4a2e9eb0ce3606eb48",
                    "gasUsed": 9997,
                    "id": 40,
                    "methodDecoded": true,
                    "operation": "DELEGATECALL",
                    "output": "0x0000000000000000000000000000000000000000000000000000000000000001",
                    "revert": true,
                    "revertMessage": "",
                    "selector": "0x23b872dd",
                    "status": true,
                    "value": "0"
                },
                "nodeType": 0
            },
            "41": {
                "event": {
                    "contract": "0xa0b86991c6218b36c1d19d4a2e9eb0ce3606eb48",
                    "decodedLog": {
                        "name": "Transfer",
                        "params": [
                            {
                                "name": "from",
                                "type": "address",
                                "value": "0x7e96ffb79444c2e323701a20021579fa47f0a5b0"
                            },
                            {
                                "name": "to",
                                "type": "address",
                                "value": "0xf5bce5077908a1b7370b9ae04adc565ebd643966"
                            },
                            {
                                "decimalAvailable": true,
                                "name": "value",
                                "type": "uint256",
                                "value": "113,599,899,976"
                            }
                        ],
                        "signature": "Transfer(address,address,uint256)"
                    },
                    "id": 41,
                    "logData": "0x0000000000000000000000000000000000000000000000000000001a7314e948",
                    "logDecoded": true,
                    "operation": "EVENT",
                    "revert": true,
                    "status": false,
                    "topics": [
                        "0xddf252ad1be2c89b69c2b068fc378daa952ba7f163c4a11628f55a4df523b3ef",
                        "0x0000000000000000000000007e96ffb79444c2e323701a20021579fa47f0a5b0",
                        "0x000000000000000000000000f5bce5077908a1b7370b9ae04adc565ebd643966"
                    ]
                },
                "nodeType": 1
            },
            "42": {
                "event": {
                    "contract": "0xf5bce5077908a1b7370b9ae04adc565ebd643966",
                    "decodedLog": {
                        "name": "LogDeposit",
                        "params": [
                            {
                                "name": "token",
                                "type": "address",
                                "value": "0xa0b86991c6218b36c1d19d4a2e9eb0ce3606eb48"
                            },
                            {
                                "name": "from",
                                "type": "address",
                                "value": "0x7e96ffb79444c2e323701a20021579fa47f0a5b0"
                            },
                            {
                                "name": "to",
                                "type": "address",
                                "value": "0x7e96ffb79444c2e323701a20021579fa47f0a5b0"
                            },
                            {
                                "name": "amount",
                                "type": "uint256",
                                "value": "113,599,899,976"
                            },
                            {
                                "name": "share",
                                "type": "uint256",
                                "value": "112,529,000,000"
                            }
                        ],
                        "signature": "LogDeposit(address,address,address,uint256,uint256)"
                    },
                    "id": 42,
                    "logData": "0x0000000000000000000000000000000000000000000000000000001a7314e9480000000000000000000000000000000000000000000000000000001a33404640",
                    "logDecoded": true,
                    "operation": "EVENT",
                    "revert": true,
                    "status": false,
                    "topics": [
                        "0xb2346165e782564f17f5b7e555c21f4fd96fbc93458572bf0113ea35a958fc55",
                        "0x000000000000000000000000a0b86991c6218b36c1d19d4a2e9eb0ce3606eb48",
                        "0x0000000000000000000000007e96ffb79444c2e323701a20021579fa47f0a5b0",
                        "0x0000000000000000000000007e96ffb79444c2e323701a20021579fa47f0a5b0"
                    ]
                },
                "nodeType": 1
            },
            "43": {
                "invocation": {
                    "address": "0xa898974410f7e7689bb626b41bc2292c6a0f5694",
                    "callData": "0x0000000000000000000000007e96ffb79444c2e323701a20021579fa47f0a5b000000000000000000000000000000000000000000000000000000000000000000000000000000000000000000000000000000000000000000000001a33404640",
                    "decodedMethod": {
                        "callParams": [
                            {
                                "name": "to",
                                "type": "address",
                                "value": "0x7e96ffb79444c2e323701a20021579fa47f0a5b0"
                            },
                            {
                                "name": "skim",
                                "type": "bool",
                                "value": false
                            },
                            {
                                "name": "share",
                                "type": "uint256",
                                "value": "112,529,000,000"
                            }
                        ],
                        "constructorArguments": "",
                        "name": "addAsset",
                        "returnParams": [
                            {
                                "name": "fraction",
                                "type": "uint256",
                                "value": "108,358,777,045"
                            }
                        ],
                        "signature": "addAsset(address,bool,uint256)"
                    },
                    "errorInfo": "",
                    "fromAddress": "0x7e96ffb79444c2e323701a20021579fa47f0a5b0",
                    "gasUsed": 52440,
                    "id": 43,
                    "methodDecoded": true,
                    "operation": "CALL",
                    "output": "0x000000000000000000000000000000000000000000000000000000193aafb8d5",
                    "revert": true,
                    "revertMessage": "",
                    "selector": "0x1b51e940",
                    "status": true,
                    "value": "0"
                },
                "nodeType": 0
            },
            "44": {
                "invocation": {
                    "address": "0x2cba6ab6574646badc84f0544d05059e57a5dc42",
                    "callData": "0x0000000000000000000000007e96ffb79444c2e323701a20021579fa47f0a5b000000000000000000000000000000000000000000000000000000000000000000000000000000000000000000000000000000000000000000000001a33404640",
                    "decodedMethod": {
                        "callParams": [
                            {
                                "name": "to",
                                "type": "address",
                                "value": "0x7e96ffb79444c2e323701a20021579fa47f0a5b0"
                            },
                            {
                                "name": "skim",
                                "type": "bool",
                                "value": false
                            },
                            {
                                "name": "share",
                                "type": "uint256",
                                "value": "112,529,000,000"
                            }
                        ],
                        "constructorArguments": "",
                        "name": "addAsset",
                        "returnParams": [
                            {
                                "name": "fraction",
                                "type": "uint256",
                                "value": "108,358,777,045"
                            }
                        ],
                        "signature": "addAsset(address,bool,uint256)"
                    },
                    "errorInfo": "",
                    "fromAddress": "0xa898974410f7e7689bb626b41bc2292c6a0f5694",
                    "gasUsed": 52256,
                    "id": 44,
                    "methodDecoded": true,
                    "operation": "DELEGATECALL",
                    "output": "0x000000000000000000000000000000000000000000000000000000193aafb8d5",
                    "revert": true,
                    "revertMessage": "",
                    "selector": "0x1b51e940",
                    "status": true,
                    "value": "0"
                },
                "nodeType": 0
            },
            "45": {
                "invocation": {
                    "address": "0xf5bce5077908a1b7370b9ae04adc565ebd643966",
                    "callData": "0x000000000000000000000000a0b86991c6218b36c1d19d4a2e9eb0ce3606eb4800000000000000000000000000000000000000000000000000000002eee783340000000000000000000000000000000000000000000000000000000000000001",
                    "decodedMethod": {
                        "callParams": [
                            {
                                "name": "token",
                                "type": "address",
                                "value": "0xa0b86991c6218b36c1d19d4a2e9eb0ce3606eb48"
                            },
                            {
                                "name": "amount",
                                "type": "uint256",
                                "value": "12,598,084,404"
                            },
                            {
                                "name": "roundUp",
                                "type": "bool",
                                "value": true
                            }
                        ],
                        "constructorArguments": "",
                        "name": "toShare",
                        "returnParams": [
                            {
                                "name": "share",
                                "type": "uint256",
                                "value": "12,479,322,959"
                            }
                        ],
                        "signature": "toShare(address,uint256,bool)"
                    },
                    "errorInfo": "",
                    "fromAddress": "0xa898974410f7e7689bb626b41bc2292c6a0f5694",
                    "gasUsed": 1420,
                    "id": 45,
                    "methodDecoded": true,
                    "operation": "STATICCALL",
                    "output": "0x00000000000000000000000000000000000000000000000000000002e7d35b4f",
                    "revert": true,
                    "revertMessage": "",
                    "selector": "0xda5139ca",
                    "status": true,
                    "value": "0"
                },
                "nodeType": 0
            },
            "46": {
                "event": {
                    "contract": "0xa898974410f7e7689bb626b41bc2292c6a0f5694",
                    "decodedLog": {
                        "name": "Transfer",
                        "params": [
                            {
                                "name": "_from",
                                "type": "address",
                                "value": "0x0000000000000000000000000000000000000000"
                            },
                            {
                                "name": "_to",
                                "type": "address",
                                "value": "0x7e96ffb79444c2e323701a20021579fa47f0a5b0"
                            },
                            {
                                "decimalAvailable": true,
                                "name": "_value",
                                "type": "uint256",
                                "value": "108,358,777,045"
                            }
                        ],
                        "signature": "Transfer(address,address,uint256)"
                    },
                    "id": 46,
                    "logData": "0x000000000000000000000000000000000000000000000000000000193aafb8d5",
                    "logDecoded": true,
                    "operation": "EVENT",
                    "revert": true,
                    "status": false,
                    "topics": [
                        "0xddf252ad1be2c89b69c2b068fc378daa952ba7f163c4a11628f55a4df523b3ef",
                        "0x0000000000000000000000000000000000000000000000000000000000000000",
                        "0x0000000000000000000000007e96ffb79444c2e323701a20021579fa47f0a5b0"
                    ]
                },
                "nodeType": 1
            },
            "47": {
                "invocation": {
                    "address": "0xf5bce5077908a1b7370b9ae04adc565ebd643966",
                    "callData": "0x000000000000000000000000a0b86991c6218b36c1d19d4a2e9eb0ce3606eb480000000000000000000000007e96ffb79444c2e323701a20021579fa47f0a5b0000000000000000000000000a898974410f7e7689bb626b41bc2292c6a0f56940000000000000000000000000000000000000000000000000000001a33404640",
                    "decodedMethod": {
                        "callParams": [
                            {
                                "name": "token",
                                "type": "address",
                                "value": "0xa0b86991c6218b36c1d19d4a2e9eb0ce3606eb48"
                            },
                            {
                                "name": "from",
                                "type": "address",
                                "value": "0x7e96ffb79444c2e323701a20021579fa47f0a5b0"
                            },
                            {
                                "name": "to",
                                "type": "address",
                                "value": "0xa898974410f7e7689bb626b41bc2292c6a0f5694"
                            },
                            {
                                "name": "share",
                                "type": "uint256",
                                "value": "112,529,000,000"
                            }
                        ],
                        "constructorArguments": "",
                        "name": "transfer",
                        "returnParams": [],
                        "signature": "transfer(address,address,address,uint256)"
                    },
                    "errorInfo": "",
                    "fromAddress": "0xa898974410f7e7689bb626b41bc2292c6a0f5694",
                    "gasUsed": 9249,
                    "id": 47,
                    "methodDecoded": true,
                    "operation": "CALL",
                    "output": "",
                    "revert": true,
                    "revertMessage": "",
                    "selector": "0xf18d03cc",
                    "status": true,
                    "value": "0"
                },
                "nodeType": 0
            },
            "48": {
                "event": {
                    "contract": "0xf5bce5077908a1b7370b9ae04adc565ebd643966",
                    "decodedLog": {
                        "name": "LogTransfer",
                        "params": [
                            {
                                "name": "token",
                                "type": "address",
                                "value": "0xa0b86991c6218b36c1d19d4a2e9eb0ce3606eb48"
                            },
                            {
                                "name": "from",
                                "type": "address",
                                "value": "0x7e96ffb79444c2e323701a20021579fa47f0a5b0"
                            },
                            {
                                "name": "to",
                                "type": "address",
                                "value": "0xa898974410f7e7689bb626b41bc2292c6a0f5694"
                            },
                            {
                                "name": "share",
                                "type": "uint256",
                                "value": "112,529,000,000"
                            }
                        ],
                        "signature": "LogTransfer(address,address,address,uint256)"
                    },
                    "id": 48,
                    "logData": "0x0000000000000000000000000000000000000000000000000000001a33404640",
                    "logDecoded": true,
                    "operation": "EVENT",
                    "revert": true,
                    "status": false,
                    "topics": [
                        "0x6eabe333476233fd382224f233210cb808a7bc4c4de64f9d76628bf63c677b1a",
                        "0x000000000000000000000000a0b86991c6218b36c1d19d4a2e9eb0ce3606eb48",
                        "0x0000000000000000000000007e96ffb79444c2e323701a20021579fa47f0a5b0",
                        "0x000000000000000000000000a898974410f7e7689bb626b41bc2292c6a0f5694"
                    ]
                },
                "nodeType": 1
            },
            "49": {
                "event": {
                    "contract": "0xa898974410f7e7689bb626b41bc2292c6a0f5694",
                    "decodedLog": {
                        "name": "LogAddAsset",
                        "params": [
                            {
                                "name": "from",
                                "type": "address",
                                "value": "0x7e96ffb79444c2e323701a20021579fa47f0a5b0"
                            },
                            {
                                "name": "to",
                                "type": "address",
                                "value": "0x7e96ffb79444c2e323701a20021579fa47f0a5b0"
                            },
                            {
                                "name": "share",
                                "type": "uint256",
                                "value": "112,529,000,000"
                            },
                            {
                                "name": "fraction",
                                "type": "uint256",
                                "value": "108,358,777,045"
                            }
                        ],
                        "signature": "LogAddAsset(address,address,uint256,uint256)"
                    },
                    "id": 49,
                    "logData": "0x0000000000000000000000000000000000000000000000000000001a33404640000000000000000000000000000000000000000000000000000000193aafb8d5",
                    "logDecoded": true,
                    "operation": "EVENT",
                    "revert": true,
                    "status": false,
                    "topics": [
                        "0x30a8c4f9ab5af7e1309ca87c32377d1a83366c5990472dbf9d262450eae14e38",
                        "0x0000000000000000000000007e96ffb79444c2e323701a20021579fa47f0a5b0",
                        "0x0000000000000000000000007e96ffb79444c2e323701a20021579fa47f0a5b0"
                    ]
                },
                "nodeType": 1
            },
            "5": {
                "invocation": {
                    "address": "0xddb2dfad74f64f14bb1a1cbab9c03bc0eed74493",
                    "callData": "0x000000000000000000000000ba12222222228d8ba445958a75a0704d566bf2c80000000000000000000000007e96ffb79444c2e323701a20021579fa47f0a5b00000000000000000000000000000000000000000000008a93185768344900000",
                    "decodedMethod": {
                        "callParams": [
                            {
                                "name": "",
                                "type": "address",
                                "value": "0xba12222222228d8ba445958a75a0704d566bf2c8"
                            },
                            {
                                "name": "",
                                "type": "address",
                                "value": "0x7e96ffb79444c2e323701a20021579fa47f0a5b0"
                            },
                            {
                                "name": "",
                                "type": "uint256",
                                "value": "40,900,000,000,000,000,000,000"
                            }
                        ],
                        "constructorArguments": "",
                        "name": "onTransfer",
                        "returnParams": [
                            {
                                "name": "",
                                "type": "bool",
                                "value": true
                            }
                        ],
                        "signature": "onTransfer(address,address,uint256)"
                    },
                    "errorInfo": "",
                    "fromAddress": "0x3472a5a71965499acd81997a54bba8d852c6e53d",
                    "gasUsed": 9738,
                    "id": 5,
                    "methodDecoded": true,
                    "operation": "CALL",
                    "output": "0x0000000000000000000000000000000000000000000000000000000000000001",
                    "revert": true,
                    "revertMessage": "",
                    "selector": "0x4a393149",
                    "status": true,
                    "value": "0"
                },
                "nodeType": 0
            },
            "50": {
                "invocation": {
                    "address": "0xa898974410f7e7689bb626b41bc2292c6a0f5694",
                    "callData": "0x0000000000000000000000007e96ffb79444c2e323701a20021579fa47f0a5b00000000000000000000000000000000000000000000000000000001c620fb1c0",
                    "decodedMethod": {
                        "callParams": [
                            {
                                "name": "to",
                                "type": "address",
                                "value": "0x7e96ffb79444c2e323701a20021579fa47f0a5b0"
                            },
                            {
                                "name": "amount",
                                "type": "uint256",
                                "value": "121,904,280,000"
                            }
                        ],
                        "constructorArguments": "",
                        "name": "borrow",
                        "returnParams": [],
                        "signature": "borrow(address,uint256)"
                    },
                    "errorInfo": "execution reverted",
                    "fromAddress": "0x7e96ffb79444c2e323701a20021579fa47f0a5b0",
                    "gasUsed": 33094,
                    "id": 50,
                    "methodDecoded": true,
                    "operation": "CALL",
                    "output": "0x08c379a000000000000000000000000000000000000000000000000000000000000000200000000000000000000000000000000000000000000000000000000000000015426f72696e674d6174683a20556e646572666c6f770000000000000000000000",
                    "revert": true,
                    "revertMessage": "BoringMath: Underflow",
                    "selector": "0x4b8a3529",
                    "status": false,
                    "value": "0"
                },
                "nodeType": 0
            },
            "51": {
                "invocation": {
                    "address": "0x2cba6ab6574646badc84f0544d05059e57a5dc42",
                    "callData": "0x0000000000000000000000007e96ffb79444c2e323701a20021579fa47f0a5b00000000000000000000000000000000000000000000000000000001c620fb1c0",
                    "decodedMethod": {
                        "callParams": [
                            {
                                "name": "to",
                                "type": "address",
                                "value": "0x7e96ffb79444c2e323701a20021579fa47f0a5b0"
                            },
                            {
                                "name": "amount",
                                "type": "uint256",
                                "value": "121,904,280,000"
                            }
                        ],
                        "constructorArguments": "",
                        "name": "borrow",
                        "returnParams": [],
                        "signature": "borrow(address,uint256)"
                    },
                    "errorInfo": "execution reverted",
                    "fromAddress": "0xa898974410f7e7689bb626b41bc2292c6a0f5694",
                    "gasUsed": 32905,
                    "id": 51,
                    "methodDecoded": true,
                    "operation": "DELEGATECALL",
                    "output": "0x08c379a000000000000000000000000000000000000000000000000000000000000000200000000000000000000000000000000000000000000000000000000000000015426f72696e674d6174683a20556e646572666c6f770000000000000000000000",
                    "revert": true,
                    "revertMessage": "BoringMath: Underflow",
                    "selector": "0x4b8a3529",
                    "status": false,
                    "value": "0"
                },
                "nodeType": 0
            },
            "52": {
                "event": {
                    "contract": "0xa898974410f7e7689bb626b41bc2292c6a0f5694",
                    "decodedLog": {
                        "name": "LogBorrow",
                        "params": [
                            {
                                "name": "from",
                                "type": "address",
                                "value": "0x7e96ffb79444c2e323701a20021579fa47f0a5b0"
                            },
                            {
                                "name": "to",
                                "type": "address",
                                "value": "0x7e96ffb79444c2e323701a20021579fa47f0a5b0"
                            },
                            {
                                "name": "amount",
                                "type": "uint256",
                                "value": "121,904,280,000"
                            },
                            {
                                "name": "feeAmount",
                                "type": "uint256",
                                "value": "60,952,140"
                            },
                            {
                                "name": "part",
                                "type": "uint256",
                                "value": "111,131,619,368"
                            }
                        ],
                        "signature": "LogBorrow(address,address,uint256,uint256,uint256)"
                    },
                    "id": 52,
                    "logData": "0x0000000000000000000000000000000000000000000000000000001c620fb1c00000000000000000000000000000000000000000000000000000000003a20e4c00000000000000000000000000000000000000000000000000000019dff5f028",
                    "logDecoded": true,
                    "operation": "EVENT",
                    "revert": true,
                    "status": false,
                    "topics": [
                        "0x3a5151e57d3bc9798e7853034ac52293d1a0e12a2b44725e75b03b21f86477a6",
                        "0x0000000000000000000000007e96ffb79444c2e323701a20021579fa47f0a5b0",
                        "0x0000000000000000000000007e96ffb79444c2e323701a20021579fa47f0a5b0"
                    ]
                },
                "nodeType": 1
            },
            "53": {
                "invocation": {
                    "address": "0xf5bce5077908a1b7370b9ae04adc565ebd643966",
                    "callData": "0x000000000000000000000000a0b86991c6218b36c1d19d4a2e9eb0ce3606eb480000000000000000000000000000000000000000000000000000001c620fb1c00000000000000000000000000000000000000000000000000000000000000000",
                    "decodedMethod": {
                        "callParams": [
                            {
                                "name": "token",
                                "type": "address",
                                "value": "0xa0b86991c6218b36c1d19d4a2e9eb0ce3606eb48"
                            },
                            {
                                "name": "amount",
                                "type": "uint256",
                                "value": "121,904,280,000"
                            },
                            {
                                "name": "roundUp",
                                "type": "bool",
                                "value": false
                            }
                        ],
                        "constructorArguments": "",
                        "name": "toShare",
                        "returnParams": [
                            {
                                "name": "share",
                                "type": "uint256",
                                "value": "120,755,095,093"
                            }
                        ],
                        "signature": "toShare(address,uint256,bool)"
                    },
                    "errorInfo": "",
                    "fromAddress": "0xa898974410f7e7689bb626b41bc2292c6a0f5694",
                    "gasUsed": 1137,
                    "id": 53,
                    "methodDecoded": true,
                    "operation": "STATICCALL",
                    "output": "0x0000000000000000000000000000000000000000000000000000001c1d908635",
                    "revert": true,
                    "revertMessage": "",
                    "selector": "0xda5139ca",
                    "status": true,
                    "value": "0"
                },
                "nodeType": 0
            },
            "6": {
                "invocation": {
                    "address": "0xeba06639750badcdf5ee100d72f3c93f2d1918a7",
                    "callData": "0x000000000000000000000000ba12222222228d8ba445958a75a0704d566bf2c80000000000000000000000007e96ffb79444c2e323701a20021579fa47f0a5b00000000000000000000000000000000000000000000008a93185768344900000",
                    "decodedMethod": {
                        "callParams": [
                            {
                                "name": "",
                                "type": "address",
                                "value": "0xba12222222228d8ba445958a75a0704d566bf2c8"
                            },
                            {
                                "name": "",
                                "type": "address",
                                "value": "0x7e96ffb79444c2e323701a20021579fa47f0a5b0"
                            },
                            {
                                "name": "",
                                "type": "uint256",
                                "value": "40,900,000,000,000,000,000,000"
                            }
                        ],
                        "constructorArguments": "",
                        "name": "onTransfer",
                        "returnParams": [
                            {
                                "name": "",
                                "type": "bool",
                                "value": true
                            }
                        ],
                        "signature": "onTransfer(address,address,uint256)"
                    },
                    "errorInfo": "",
                    "fromAddress": "0xddb2dfad74f64f14bb1a1cbab9c03bc0eed74493",
                    "gasUsed": 2486,
                    "id": 6,
                    "methodDecoded": true,
                    "operation": "DELEGATECALL",
                    "output": "0x0000000000000000000000000000000000000000000000000000000000000001",
                    "revert": true,
                    "revertMessage": "",
                    "selector": "0x4a393149",
                    "status": true,
                    "value": "0"
                },
                "nodeType": 0
            },
            "7": {
                "event": {
                    "contract": "0x3472a5a71965499acd81997a54bba8d852c6e53d",
                    "decodedLog": {
                        "name": "Transfer",
                        "params": [
                            {
                                "name": "_from",
                                "type": "address",
                                "value": "0xba12222222228d8ba445958a75a0704d566bf2c8"
                            },
                            {
                                "name": "_to",
                                "type": "address",
                                "value": "0x7e96ffb79444c2e323701a20021579fa47f0a5b0"
                            },
                            {
                                "decimalAvailable": true,
                                "name": "_amount",
                                "type": "uint256",
                                "value": "40,900,000,000,000,000,000,000"
                            }
                        ],
                        "signature": "Transfer(address,address,uint256)"
                    },
                    "id": 7,
                    "logData": "0x0000000000000000000000000000000000000000000008a93185768344900000",
                    "logDecoded": true,
                    "operation": "EVENT",
                    "revert": true,
                    "status": false,
                    "topics": [
                        "0xddf252ad1be2c89b69c2b068fc378daa952ba7f163c4a11628f55a4df523b3ef",
                        "0x000000000000000000000000ba12222222228d8ba445958a75a0704d566bf2c8",
                        "0x0000000000000000000000007e96ffb79444c2e323701a20021579fa47f0a5b0"
                    ]
                },
                "nodeType": 1
            },
            "8": {
                "invocation": {
                    "address": "0xa0b86991c6218b36c1d19d4a2e9eb0ce3606eb48",
                    "callData": "0x000000000000000000000000ba12222222228d8ba445958a75a0704d566bf2c8",
                    "decodedMethod": {
                        "callParams": [
                            {
                                "name": "account",
                                "type": "address",
                                "value": "0xba12222222228d8ba445958a75a0704d566bf2c8"
                            }
                        ],
                        "constructorArguments": "",
                        "name": "balanceOf",
                        "returnParams": [
                            {
                                "decimalAvailable": true,
                                "name": "",
                                "type": "uint256",
                                "value": "16,129,950,027,559"
                            }
                        ],
                        "signature": "balanceOf(address)"
                    },
                    "errorInfo": "",
                    "fromAddress": "0xba12222222228d8ba445958a75a0704d566bf2c8",
                    "gasUsed": 9815,
                    "id": 8,
                    "methodDecoded": true,
                    "operation": "STATICCALL",
                    "output": "0x00000000000000000000000000000000000000000000000000000eab8bf10f27",
                    "revert": true,
                    "revertMessage": "",
                    "selector": "0x70a08231",
                    "status": true,
                    "value": "0"
                },
                "nodeType": 0
            },
            "9": {
                "invocation": {
                    "address": "0xa2327a938febf5fec13bacfb16ae10ecbc4cbdcf",
                    "callData": "0x000000000000000000000000ba12222222228d8ba445958a75a0704d566bf2c8",
                    "decodedMethod": {
                        "callParams": [
                            {
                                "name": "account",
                                "type": "address",
                                "value": "0xba12222222228d8ba445958a75a0704d566bf2c8"
                            }
                        ],
                        "constructorArguments": "",
                        "name": "balanceOf",
                        "returnParams": [
                            {
                                "decimalAvailable": true,
                                "name": "",
                                "type": "uint256",
                                "value": "16,129,950,027,559"
                            }
                        ],
                        "signature": "balanceOf(address)"
                    },
                    "errorInfo": "",
                    "fromAddress": "0xa0b86991c6218b36c1d19d4a2e9eb0ce3606eb48",
                    "gasUsed": 2529,
                    "id": 9,
                    "methodDecoded": true,
                    "operation": "DELEGATECALL",
                    "output": "0x00000000000000000000000000000000000000000000000000000eab8bf10f27",
                    "revert": true,
                    "revertMessage": "",
                    "selector": "0x70a08231",
                    "status": true,
                    "value": "0"
                },
                "nodeType": 0
            }
        },
        "gasFlame": [
            {
                "children": [
                    {
                        "children": [
                            {
                                "children": [],
                                "depth": 0,
                                "name": "Initial Gas",
                                "value": 24756
                            },
                            {
                                "children": [
                                    {
                                        "children": [
                                            {
                                                "children": [],
                                                "depth": 2,
                                                "name": "balanceOf",
                                                "value": 8016
                                            },
                                            {
                                                "children": [],
                                                "depth": 2,
                                                "name": "getFlashLoanFeePercentage",
                                                "value": 2350
                                            },
                                            {
                                                "children": [
                                                    {
                                                        "children": [
                                                            {
                                                                "children": [],
                                                                "depth": 4,
                                                                "name": "onTransfer",
                                                                "value": 2486
                                                            }
                                                        ],
                                                        "depth": 3,
                                                        "name": "onTransfer",
                                                        "value": 9738
                                                    }
                                                ],
                                                "depth": 2,
                                                "name": "transfer",
                                                "value": 74772
                                            },
                                            {
                                                "children": [
                                                    {
                                                        "children": [],
                                                        "depth": 3,
                                                        "name": "balanceOf",
                                                        "value": 2529
                                                    }
                                                ],
                                                "depth": 2,
                                                "name": "balanceOf",
                                                "value": 9815
                                            },
                                            {
                                                "children": [],
                                                "depth": 2,
                                                "name": "getFlashLoanFeePercentage",
                                                "value": 350
                                            },
                                            {
                                                "children": [
                                                    {
                                                        "children": [],
                                                        "depth": 3,
                                                        "name": "transfer",
                                                        "value": 34728
                                                    }
                                                ],
                                                "depth": 2,
                                                "name": "transfer",
                                                "value": 35517
                                            },
                                            {
                                                "children": [
                                                    {
                                                        "children": [],
                                                        "depth": 3,
                                                        "name": "balanceOf",
                                                        "value": 2016
                                                    },
                                                    {
                                                        "children": [
                                                            {
                                                                "children": [],
                                                                "depth": 4,
                                                                "name": "balanceOf",
                                                                "value": 529
                                                            }
                                                        ],
                                                        "depth": 3,
                                                        "name": "balanceOf",
                                                        "value": 1315
                                                    },
                                                    {
                                                        "children": [],
                                                        "depth": 3,
                                                        "name": "setMasterContractApproval",
                                                        "value": 29394
                                                    },
                                                    {
                                                        "children": [
                                                            {
                                                                "children": [
                                                                    {
                                                                        "children": [],
                                                                        "depth": 5,
                                                                        "name": "onApprove",
                                                                        "value": 485
                                                                    }
                                                                ],
                                                                "depth": 4,
                                                                "name": "onApprove",
                                                                "value": 1237
                                                            }
                                                        ],
                                                        "depth": 3,
                                                        "name": "approve",
                                                        "value": 26808
                                                    },
                                                    {
                                                        "children": [
                                                            {
                                                                "children": [
                                                                    {
                                                                        "children": [
                                                                            {
                                                                                "children": [],
                                                                                "depth": 6,
                                                                                "name": "onTransfer",
                                                                                "value": 486
                                                                            }
                                                                        ],
                                                                        "depth": 5,
                                                                        "name": "onTransfer",
                                                                        "value": 1238
                                                                    }
                                                                ],
                                                                "depth": 4,
                                                                "name": "transferFrom",
                                                                "value": 19622
                                                            }
                                                        ],
                                                        "depth": 3,
                                                        "name": "deposit",
                                                        "value": 53271
                                                    },
                                                    {
                                                        "children": [
                                                            {
                                                                "children": [
                                                                    {
                                                                        "children": [],
                                                                        "depth": 5,
                                                                        "name": "transfer",
                                                                        "value": 11249
                                                                    }
                                                                ],
                                                                "depth": 4,
                                                                "name": "addCollateral",
                                                                "value": 43764
                                                            }
                                                        ],
                                                        "depth": 3,
                                                        "name": "addCollateral",
                                                        "value": 46445
                                                    },
                                                    {
                                                        "children": [
                                                            {
                                                                "children": [],
                                                                "depth": 4,
                                                                "name": "approve",
                                                                "value": 27078
                                                            }
                                                        ],
                                                        "depth": 3,
                                                        "name": "approve",
                                                        "value": 27867
                                                    },
                                                    {
                                                        "children": [
                                                            {
                                                                "children": [
                                                                    {
                                                                        "children": [],
                                                                        "depth": 5,
                                                                        "name": "transferFrom",
                                                                        "value": 9997
                                                                    }
                                                                ],
                                                                "depth": 4,
                                                                "name": "transferFrom",
                                                                "value": 10792
                                                            }
                                                        ],
                                                        "depth": 3,
                                                        "name": "deposit",
                                                        "value": 44517
                                                    },
                                                    {
                                                        "children": [
                                                            {
                                                                "children": [
                                                                    {
                                                                        "children": [],
                                                                        "depth": 5,
                                                                        "name": "toShare",
                                                                        "value": 1420
                                                                    },
                                                                    {
                                                                        "children": [],
                                                                        "depth": 5,
                                                                        "name": "transfer",
                                                                        "value": 9249
                                                                    }
                                                                ],
                                                                "depth": 4,
                                                                "name": "addAsset",
                                                                "value": 52256
                                                            }
                                                        ],
                                                        "depth": 3,
                                                        "name": "addAsset",
                                                        "value": 52440
                                                    },
                                                    {
                                                        "children": [
                                                            {
                                                                "children": [
                                                                    {
                                                                        "children": [],
                                                                        "depth": 5,
                                                                        "name": "toShare",
                                                                        "value": 1137
                                                                    }
                                                                ],
                                                                "depth": 4,
                                                                "name": "borrow",
                                                                "value": 32905
                                                            }
                                                        ],
                                                        "depth": 3,
                                                        "name": "borrow",
                                                        "value": 33094
                                                    }
                                                ],
                                                "depth": 2,
                                                "name": "receiveFlashLoan",
                                                "value": 336344
                                            }
                                        ],
                                        "depth": 1,
                                        "name": "flashLoan",
                                        "value": 490864
                                    }
                                ],
                                "depth": 0,
                                "name": "Executed Gas",
                                "value": 499288
                            }
                        ],
                        "depth": -1,
                        "name": "Actual Gas Used",
                        "value": 524044
                    },
                    {
                        "children": [],
                        "depth": -1,
                        "name": "Refunded Gas",
                        "value": 0
                    }
                ],
                "depth": -2,
                "name": "Total Gas",
                "value": 524044
            }
        ],
        "isConfirmed": true,
        "mainTrace": [
            {
                "children": [
                    {
                        "children": [
                            {
                                "children": [
                                    {
                                        "children": [],
                                        "depth": 2,
                                        "id": 2,
                                        "order": 2
                                    },
                                    {
                                        "children": [],
                                        "depth": 2,
                                        "id": 3,
                                        "order": 3
                                    },
                                    {
                                        "children": [
                                            {
                                                "children": [
                                                    {
                                                        "children": [],
                                                        "depth": 4,
                                                        "id": 6,
                                                        "order": 6
                                                    }
                                                ],
                                                "depth": 3,
                                                "id": 5,
                                                "order": 5
                                            },
                                            {
                                                "children": [],
                                                "depth": 3,
                                                "id": 7,
                                                "order": 7
                                            }
                                        ],
                                        "depth": 2,
                                        "id": 4,
                                        "order": 4
                                    },
                                    {
                                        "children": [
                                            {
                                                "children": [],
                                                "depth": 3,
                                                "id": 9,
                                                "order": 9
                                            }
                                        ],
                                        "depth": 2,
                                        "id": 8,
                                        "order": 8
                                    },
                                    {
                                        "children": [],
                                        "depth": 2,
                                        "id": 10,
                                        "order": 10
                                    },
                                    {
                                        "children": [
                                            {
                                                "children": [
                                                    {
                                                        "children": [],
                                                        "depth": 4,
                                                        "id": 13,
                                                        "order": 13
                                                    }
                                                ],
                                                "depth": 3,
                                                "id": 12,
                                                "order": 12
                                            }
                                        ],
                                        "depth": 2,
                                        "id": 11,
                                        "order": 11
                                    },
                                    {
                                        "children": [
                                            {
                                                "children": [],
                                                "depth": 3,
                                                "id": 15,
                                                "order": 15
                                            },
                                            {
                                                "children": [
                                                    {
                                                        "children": [],
                                                        "depth": 4,
                                                        "id": 17,
                                                        "order": 17
                                                    }
                                                ],
                                                "depth": 3,
                                                "id": 16,
                                                "order": 16
                                            },
                                            {
                                                "children": [
                                                    {
                                                        "children": [],
                                                        "depth": 4,
                                                        "id": 19,
                                                        "order": 19
                                                    }
                                                ],
                                                "depth": 3,
                                                "id": 18,
                                                "order": 18
                                            },
                                            {
                                                "children": [
                                                    {
                                                        "children": [
                                                            {
                                                                "children": [],
                                                                "depth": 5,
                                                                "id": 22,
                                                                "order": 22
                                                            }
                                                        ],
                                                        "depth": 4,
                                                        "id": 21,
                                                        "order": 21
                                                    },
                                                    {
                                                        "children": [],
                                                        "depth": 4,
                                                        "id": 23,
                                                        "order": 23
                                                    }
                                                ],
                                                "depth": 3,
                                                "id": 20,
                                                "order": 20
                                            },
                                            {
                                                "children": [
                                                    {
                                                        "children": [
                                                            {
                                                                "children": [
                                                                    {
                                                                        "children": [],
                                                                        "depth": 6,
                                                                        "id": 27,
                                                                        "order": 27
                                                                    }
                                                                ],
                                                                "depth": 5,
                                                                "id": 26,
                                                                "order": 26
                                                            },
                                                            {
                                                                "children": [],
                                                                "depth": 5,
                                                                "id": 28,
                                                                "order": 28
                                                            }
                                                        ],
                                                        "depth": 4,
                                                        "id": 25,
                                                        "order": 25
                                                    },
                                                    {
                                                        "children": [],
                                                        "depth": 4,
                                                        "id": 29,
                                                        "order": 29
                                                    }
                                                ],
                                                "depth": 3,
                                                "id": 24,
                                                "order": 24
                                            },
                                            {
                                                "children": [
                                                    {
                                                        "children": [
                                                            {
                                                                "children": [
                                                                    {
                                                                        "children": [],
                                                                        "depth": 6,
                                                                        "id": 33,
                                                                        "order": 33
                                                                    }
                                                                ],
                                                                "depth": 5,
                                                                "id": 32,
                                                                "order": 32
                                                            },
                                                            {
                                                                "children": [],
                                                                "depth": 5,
                                                                "id": 34,
                                                                "order": 34
                                                            }
                                                        ],
                                                        "depth": 4,
                                                        "id": 31,
                                                        "order": 31
                                                    }
                                                ],
                                                "depth": 3,
                                                "id": 30,
                                                "order": 30
                                            },
                                            {
                                                "children": [
                                                    {
                                                        "children": [
                                                            {
                                                                "children": [],
                                                                "depth": 5,
                                                                "id": 37,
                                                                "order": 37
                                                            }
                                                        ],
                                                        "depth": 4,
                                                        "id": 36,
                                                        "order": 36
                                                    }
                                                ],
                                                "depth": 3,
                                                "id": 35,
                                                "order": 35
                                            },
                                            {
                                                "children": [
                                                    {
                                                        "children": [
                                                            {
                                                                "children": [
                                                                    {
                                                                        "children": [],
                                                                        "depth": 6,
                                                                        "id": 41,
                                                                        "order": 41
                                                                    }
                                                                ],
                                                                "depth": 5,
                                                                "id": 40,
                                                                "order": 40
                                                            }
                                                        ],
                                                        "depth": 4,
                                                        "id": 39,
                                                        "order": 39
                                                    },
                                                    {
                                                        "children": [],
                                                        "depth": 4,
                                                        "id": 42,
                                                        "order": 42
                                                    }
                                                ],
                                                "depth": 3,
                                                "id": 38,
                                                "order": 38
                                            },
                                            {
                                                "children": [
                                                    {
                                                        "children": [
                                                            {
                                                                "children": [],
                                                                "depth": 5,
                                                                "id": 45,
                                                                "order": 45
                                                            },
                                                            {
                                                                "children": [],
                                                                "depth": 5,
                                                                "id": 46,
                                                                "order": 46
                                                            },
                                                            {
                                                                "children": [
                                                                    {
                                                                        "children": [],
                                                                        "depth": 6,
                                                                        "id": 48,
                                                                        "order": 48
                                                                    }
                                                                ],
                                                                "depth": 5,
                                                                "id": 47,
                                                                "order": 47
                                                            },
                                                            {
                                                                "children": [],
                                                                "depth": 5,
                                                                "id": 49,
                                                                "order": 49
                                                            }
                                                        ],
                                                        "depth": 4,
                                                        "id": 44,
                                                        "order": 44
                                                    }
                                                ],
                                                "depth": 3,
                                                "id": 43,
                                                "order": 43
                                            },
                                            {
                                                "children": [
                                                    {
                                                        "children": [
                                                            {
                                                                "children": [],
                                                                "depth": 5,
                                                                "id": 52,
                                                                "order": 52
                                                            },
                                                            {
                                                                "children": [],
                                                                "depth": 5,
                                                                "id": 53,
                                                                "order": 53
                                                            }
                                                        ],
                                                        "depth": 4,
                                                        "id": 51,
                                                        "order": 51
                                                    }
                                                ],
                                                "depth": 3,
                                                "id": 50,
                                                "order": 50
                                            }
                                        ],
                                        "depth": 2,
                                        "id": 14,
                                        "order": 14
                                    }
                                ],
                                "depth": 1,
                                "id": 1,
                                "order": 1
                            }
                        ],
                        "depth": 0,
                        "id": 0,
                        "order": 0
                    }
                ],
                "depth": -1,
                "id": -1,
                "order": -1
            }
        ],
        "mainTraceNodeCount": 54,
        "parentIdMap": {
            "0": -1,
            "1": 0,
            "10": 1,
            "11": 1,
            "12": 11,
            "13": 12,
            "14": 1,
            "15": 14,
            "16": 14,
            "17": 16,
            "18": 14,
            "19": 18,
            "2": 1,
            "20": 14,
            "21": 20,
            "22": 21,
            "23": 20,
            "24": 14,
            "25": 24,
            "26": 25,
            "27": 26,
            "28": 25,
            "29": 24,
            "3": 1,
            "30": 14,
            "31": 30,
            "32": 31,
            "33": 32,
            "34": 31,
            "35": 14,
            "36": 35,
            "37": 36,
            "38": 14,
            "39": 38,
            "4": 1,
            "40": 39,
            "41": 40,
            "42": 38,
            "43": 14,
            "44": 43,
            "45": 44,
            "46": 44,
            "47": 44,
            "48": 47,
            "49": 44,
            "5": 4,
            "50": 14,
            "51": 50,
            "52": 51,
            "53": 51,
            "6": 5,
            "7": 4,
            "8": 1,
            "9": 8
        },
        "tidyTrace": [
            {
                "children": [
                    {
                        "children": [
                            {
                                "children": [
                                    {
                                        "children": [
                                            {
                                                "children": [
                                                    {
                                                        "children": [],
                                                        "depth": 4,
                                                        "id": 6,
                                                        "order": 6
                                                    }
                                                ],
                                                "depth": 3,
                                                "id": 5,
                                                "order": 5
                                            },
                                            {
                                                "children": [],
                                                "depth": 3,
                                                "id": 7,
                                                "order": 7
                                            }
                                        ],
                                        "depth": 2,
                                        "id": 4,
                                        "order": 4
                                    },
                                    {
                                        "children": [
                                            {
                                                "children": [
                                                    {
                                                        "children": [],
                                                        "depth": 4,
                                                        "id": 13,
                                                        "order": 13
                                                    }
                                                ],
                                                "depth": 3,
                                                "id": 12,
                                                "order": 12
                                            }
                                        ],
                                        "depth": 2,
                                        "id": 11,
                                        "order": 11
                                    },
                                    {
                                        "children": [
                                            {
                                                "children": [
                                                    {
                                                        "children": [],
                                                        "depth": 4,
                                                        "id": 19,
                                                        "order": 19
                                                    }
                                                ],
                                                "depth": 3,
                                                "id": 18,
                                                "order": 18
                                            },
                                            {
                                                "children": [
                                                    {
                                                        "children": [
                                                            {
                                                                "children": [],
                                                                "depth": 5,
                                                                "id": 22,
                                                                "order": 22
                                                            }
                                                        ],
                                                        "depth": 4,
                                                        "id": 21,
                                                        "order": 21
                                                    },
                                                    {
                                                        "children": [],
                                                        "depth": 4,
                                                        "id": 23,
                                                        "order": 23
                                                    }
                                                ],
                                                "depth": 3,
                                                "id": 20,
                                                "order": 20
                                            },
                                            {
                                                "children": [
                                                    {
                                                        "children": [
                                                            {
                                                                "children": [
                                                                    {
                                                                        "children": [],
                                                                        "depth": 6,
                                                                        "id": 27,
                                                                        "order": 27
                                                                    }
                                                                ],
                                                                "depth": 5,
                                                                "id": 26,
                                                                "order": 26
                                                            },
                                                            {
                                                                "children": [],
                                                                "depth": 5,
                                                                "id": 28,
                                                                "order": 28
                                                            }
                                                        ],
                                                        "depth": 4,
                                                        "id": 25,
                                                        "order": 25
                                                    },
                                                    {
                                                        "children": [],
                                                        "depth": 4,
                                                        "id": 29,
                                                        "order": 29
                                                    }
                                                ],
                                                "depth": 3,
                                                "id": 24,
                                                "order": 24
                                            },
                                            {
                                                "children": [
                                                    {
                                                        "children": [
                                                            {
                                                                "children": [
                                                                    {
                                                                        "children": [],
                                                                        "depth": 6,
                                                                        "id": 33,
                                                                        "order": 33
                                                                    }
                                                                ],
                                                                "depth": 5,
                                                                "id": 32,
                                                                "order": 32
                                                            },
                                                            {
                                                                "children": [],
                                                                "depth": 5,
                                                                "id": 34,
                                                                "order": 34
                                                            }
                                                        ],
                                                        "depth": 4,
                                                        "id": 31,
                                                        "order": 31
                                                    }
                                                ],
                                                "depth": 3,
                                                "id": 30,
                                                "order": 30
                                            },
                                            {
                                                "children": [
                                                    {
                                                        "children": [
                                                            {
                                                                "children": [],
                                                                "depth": 5,
                                                                "id": 37,
                                                                "order": 37
                                                            }
                                                        ],
                                                        "depth": 4,
                                                        "id": 36,
                                                        "order": 36
                                                    }
                                                ],
                                                "depth": 3,
                                                "id": 35,
                                                "order": 35
                                            },
                                            {
                                                "children": [
                                                    {
                                                        "children": [
                                                            {
                                                                "children": [
                                                                    {
                                                                        "children": [],
                                                                        "depth": 6,
                                                                        "id": 41,
                                                                        "order": 41
                                                                    }
                                                                ],
                                                                "depth": 5,
                                                                "id": 40,
                                                                "order": 40
                                                            }
                                                        ],
                                                        "depth": 4,
                                                        "id": 39,
                                                        "order": 39
                                                    },
                                                    {
                                                        "children": [],
                                                        "depth": 4,
                                                        "id": 42,
                                                        "order": 42
                                                    }
                                                ],
                                                "depth": 3,
                                                "id": 38,
                                                "order": 38
                                            },
                                            {
                                                "children": [
                                                    {
                                                        "children": [
                                                            {
                                                                "children": [],
                                                                "depth": 5,
                                                                "id": 46,
                                                                "order": 46
                                                            },
                                                            {
                                                                "children": [
                                                                    {
                                                                        "children": [],
                                                                        "depth": 6,
                                                                        "id": 48,
                                                                        "order": 48
                                                                    }
                                                                ],
                                                                "depth": 5,
                                                                "id": 47,
                                                                "order": 47
                                                            },
                                                            {
                                                                "children": [],
                                                                "depth": 5,
                                                                "id": 49,
                                                                "order": 49
                                                            }
                                                        ],
                                                        "depth": 4,
                                                        "id": 44,
                                                        "order": 44
                                                    }
                                                ],
                                                "depth": 3,
                                                "id": 43,
                                                "order": 43
                                            },
                                            {
                                                "children": [
                                                    {
                                                        "children": [
                                                            {
                                                                "children": [],
                                                                "depth": 5,
                                                                "id": 52,
                                                                "order": 52
                                                            }
                                                        ],
                                                        "depth": 4,
                                                        "id": 51,
                                                        "order": 51
                                                    }
                                                ],
                                                "depth": 3,
                                                "id": 50,
                                                "order": 50
                                            }
                                        ],
                                        "depth": 2,
                                        "id": 14,
                                        "order": 14
                                    }
                                ],
                                "depth": 1,
                                "id": 1,
                                "order": 1
                            }
                        ],
                        "depth": 0,
                        "id": 0,
                        "order": 0
                    }
                ],
                "depth": -1,
                "id": -1,
                "order": -1
            }
        ],
        "tidyTraceNodeCount": 44
    },
    "state_change": {
        "stateChanges": []
    }
}