{
    "balance_change": {
        "balanceChanges": []
    },
    "profile": {
        "basic_info": {
            "baseFee": "0.01",
            "blockNumber": 234976218,
            "callData": "0xcf9d4afa0000000000000000000000002ffd0d2bea8e922a722de83c451ad93e097851f5",
            "debugEnable": true,
            "errorInfo": "",
            "eventCount": 1,
            "feeRecipient": "0xa4b000000000000000000073657175656e636572",
            "formatValue": "0",
            "gasLimit": 205473,
            "gasPrice": "0.01",
            "gasUsed": 189463,
            "intTxnCount": 3,
            "internalRevert": false,
            "internalRevertMessage": "",
            "isContractCreation": false,
            "isFlashloan": false,
            "maxFee": "0.0135",
            "nonce": 68,
            "overwritedBlockNumber": -1,
            "priorityFee": "0",
            "receiver": "0x2d1abeeb8e7dc9f08f96652603d2d31a838564a5",
            "revertMessage": "",
            "sender": "0x3c6184f4ee527600dcc0163ccc47dedd110a6101",
            "simulationEnable": true,
            "sourceTxnHash": "0x7d6220913cc4a1307f98c4c4b351264d8d02eb2f0e39b5fbf85d0e90594cfdf3",
            "status": true,
            "timestamp": "2024-07-22T19:57:40Z",
            "transactionFee": "0.00000189463",
            "txnHash": "0x7d6220913cc4a1307f98c4c4b351264d8d02eb2f0e39b5fbf85d0e90594cfdf3",
            "txnIndex": 1,
            "type": 2,
            "value": "0"
        },
        "fund_flow": [],
        "token_infos": [
            {
                "address": "0x82af49447d8a07e3bd95bd0d56f35241523fbab1",
                "decimals": 18
            },
            {
                "address": "0xeeeeeeeeeeeeeeeeeeeeeeeeeeeeeeeeeeeeeeee",
                "decimals": 18
            }
        ]
    },
    "address_label": {
        "labels": [
            {
                "address": "0x0000000000000000000000000000000000000002",
                "label": "Precompiled"
            },
            {
                "address": "0x62cf82fb0484af382714cd09296260edc1dc0c6c",
                "label": "SmartLoanDiamondBeacon"
            },
            {
                "address": "0x32e7af5a8151934f3787d0cd59eb6edd0a736b1d",
                "label": "0x32e7_RewardDistributor"
            },
            {
                "address": "0x3e273bcc448d22b9329a56da3a91ace1b57e7d04",
                "label": "DiamondInit"
            },
            {
                "address": "0x0000000000000000000000000000000000000001",
                "label": "Precompiled"
            },
            {
                "address": "0xeeeeeeeeeeeeeeeeeeeeeeeeeeeeeeeeeeeeeeee",
                "label": "Ether"
            },
            {
                "address": "0xbf5041fc07e1c866d15c749156657b8eed0fb649",
                "label": "0xbf50_RewardDistributor"
            },
            {
                "address": "0x0000000000000000000000000000000000000003",
                "label": "Precompiled"
            },
            {
                "address": "0x0000000000000000000000000000000000000004",
                "label": "Precompiled"
            }
        ]
    },
    "trace": {
        "accountLabels": null,
        "dataMap": {
            "-1": {
                "invocation": {
                    "address": "0x3c6184f4ee527600dcc0163ccc47dedd110a6101",
                    "callData": "",
                    "decodedMethod": null,
                    "errorInfo": "",
                    "fromAddress": "",
                    "gasUsed": 0,
                    "id": -1,
                    "methodDecoded": false,
                    "operation": "",
                    "output": "",
                    "revert": false,
                    "revertMessage": "",
                    "selector": "",
                    "status": false,
                    "value": ""
                },
                "nodeType": 0
            },
            "0": {
                "invocation": {
                    "address": "0x2d1abeeb8e7dc9f08f96652603d2d31a838564a5",
                    "callData": "0x0000000000000000000000002ffd0d2bea8e922a722de83c451ad93e097851f5",
                    "decodedMethod": {
                        "callParams": [
                            {
                                "name": "feeAddress",
                                "type": "address",
                                "value": "0x2ffd0d2bea8e922a722de83c451ad93e097851f5"
                            }
                        ],
                        "constructorArguments": "",
                        "name": "initContract",
                        "returnParams": [],
                        "signature": "initContract(address)"
                    },
                    "errorInfo": "",
                    "fromAddress": "0x3c6184f4ee527600dcc0163ccc47dedd110a6101",
                    "gasUsed": 189463,
                    "id": 0,
                    "methodDecoded": true,
                    "operation": "CALL",
                    "output": "0x0000000000000000000000000000000000000000000000000000000000000001",
                    "revert": false,
                    "revertMessage": "",
                    "selector": "0xcf9d4afa",
                    "status": true,
                    "value": "0"
                },
                "nodeType": 0
            },
            "1": {
                "invocation": {
                    "address": "0x2ffd0d2bea8e922a722de83c451ad93e097851f5",
                    "callData": "0x00000000000000000000000000000000000000000000000000000000f2fde38b0000000000000000000000002d1abeeb8e7dc9f08f96652603d2d31a838564a5",
                    "decodedMethod": {
                        "callParams": [],
                        "constructorArguments": "",
                        "name": "init",
                        "returnParams": [],
                        "signature": "init()"
                    },
                    "errorInfo": "",
                    "fromAddress": "0x2d1abeeb8e7dc9f08f96652603d2d31a838564a5",
                    "gasUsed": 130497,
                    "id": 1,
                    "methodDecoded": true,
                    "operation": "CALL",
                    "output": "",
                    "revert": false,
                    "revertMessage": "",
                    "selector": "0xe1c7392a",
                    "status": true,
                    "value": "0"
                },
                "nodeType": 0
            },
            "2": {
                "invocation": {
                    "address": "0x62cf82fb0484af382714cd09296260edc1dc0c6c",
                    "callData": "0xe1c7392a00000000000000000000000000000000000000000000000000000000",
                    "decodedMethod": {
                        "callParams": [
                            {
                                "name": "funcSignature",
                                "type": "bytes4",
                                "value": "0xe1c7392a"
                            }
                        ],
                        "constructorArguments": "",
                        "name": "implementation",
                        "returnParams": [
                            {
                                "name": "",
                                "type": "address",
                                "value": "0x3e273bcc448d22b9329a56da3a91ace1b57e7d04"
                            }
                        ],
                        "signature": "implementation(bytes4)"
                    },
                    "errorInfo": "",
                    "fromAddress": "0x2ffd0d2bea8e922a722de83c451ad93e097851f5",
                    "gasUsed": 4848,
                    "id": 2,
                    "methodDecoded": true,
                    "operation": "STATICCALL",
                    "output": "0x0000000000000000000000003e273bcc448d22b9329a56da3a91ace1b57e7d04",
                    "revert": false,
                    "revertMessage": "",
                    "selector": "0x0d741577",
                    "status": true,
                    "value": "0"
                },
                "nodeType": 0
            },
            "3": {
                "invocation": {
                    "address": "0x3e273bcc448d22b9329a56da3a91ace1b57e7d04",
                    "callData": "0x00000000000000000000000000000000000000000000000000000000f2fde38b0000000000000000000000002d1abeeb8e7dc9f08f96652603d2d31a838564a5",
                    "decodedMethod": {
                        "callParams": [],
                        "constructorArguments": "",
                        "name": "init",
                        "returnParams": [],
                        "signature": "init()"
                    },
                    "errorInfo": "",
                    "fromAddress": "0x2ffd0d2bea8e922a722de83c451ad93e097851f5",
                    "gasUsed": 117796,
                    "id": 3,
                    "methodDecoded": true,
                    "operation": "DELEGATECALL",
                    "output": "",
                    "revert": false,
                    "revertMessage": "",
                    "selector": "0xe1c7392a",
                    "status": true,
                    "value": "0"
                },
                "nodeType": 0
            },
            "4": {
                "event": {
                    "contract": "0x2ffd0d2bea8e922a722de83c451ad93e097851f5",
                    "decodedLog": {
                        "name": "OwnershipTransferred",
                        "params": [
                            {
                                "name": "previousOwner",
                                "type": "address",
                                "value": "0x81262dfc30a5e3ae137029f20850566f86f6eb3a"
                            },
                            {
                                "name": "newOwner",
                                "type": "address",
                                "value": "0x2d1abeeb8e7dc9f08f96652603d2d31a838564a5"
                            }
                        ],
                        "signature": "OwnershipTransferred(address,address)"
                    },
                    "id": 4,
                    "logData": "0x",
                    "logDecoded": true,
                    "operation": "EVENT",
                    "revert": false,
                    "status": true,
                    "topics": [
                        "0x8be0079c531659141344cd1fd0a4f28419497f9722a3daafe3b4186f6b6457e0",
                        "0x00000000000000000000000081262dfc30a5e3ae137029f20850566f86f6eb3a",
                        "0x0000000000000000000000002d1abeeb8e7dc9f08f96652603d2d31a838564a5"
                    ]
                },
                "nodeType": 1
            }
        },
        "gasFlame": [
            {
                "children": [
                    {
                        "children": [
                            {
                                "children": [
                                    {
                                        "children": [
                                            {
                                                "children": [
                                                    {
                                                        "children": [],
                                                        "depth": 2,
                                                        "name": "implementation",
                                                        "value": 4848
                                                    },
                                                    {
                                                        "children": [],
                                                        "depth": 2,
                                                        "name": "init",
                                                        "value": 117796
                                                    }
                                                ],
                                                "depth": 1,
                                                "name": "init",
                                                "value": 130497
                                            }
                                        ],
                                        "depth": 0,
                                        "name": "L2 Executed Gas",
                                        "value": 136927
                                    },
                                    {
                                        "children": [],
                                        "depth": 0,
                                        "name": "L2 Initial Gas",
                                        "value": 21432
                                    }
                                ],
                                "depth": -1,
                                "name": "L2 Actual Gas Used",
                                "value": 158359
                            },
                            {
                                "children": [],
                                "depth": -1,
                                "name": "L2 Refunded Gas",
                                "value": 0
                            }
                        ],
                        "depth": -2,
                        "name": "L2 Total Gas",
                        "value": 158359
                    },
                    {
                        "children": [
                            {
                                "children": [],
                                "depth": -1,
                                "name": "L1 Actual Gas Used",
                                "value": 31104
                            },
                            {
                                "children": [],
                                "depth": -1,
                                "name": "L1 Refunded Gas",
                                "value": 0
                            }
                        ],
                        "depth": -2,
                        "name": "L1 Total Gas",
                        "value": 31104
                    }
                ],
                "depth": -3,
                "name": "Total Gas",
                "value": 189463
            }
        ],
        "isConfirmed": true,
        "mainTrace": [
            {
                "children": [
                    {
                        "children": [
                            {
                                "children": [
                                    {
                                        "children": [],
                                        "depth": 2,
                                        "id": 2,
                                        "order": 2
                                    },
                                    {
                                        "children": [
                                            {
                                                "children": [],
                                                "depth": 3,
                                                "id": 4,
                                                "order": 4
                                            }
                                        ],
                                        "depth": 2,
                                        "id": 3,
                                        "order": 3
                                    }
                                ],
                                "depth": 1,
                                "id": 1,
                                "order": 1
                            }
                        ],
                        "depth": 0,
                        "id": 0,
                        "order": 0
                    }
                ],
                "depth": -1,
                "id": -1,
                "order": -1
            }
        ],
        "mainTraceNodeCount": 5,
        "parentIdMap": {
            "0": -1,
            "1": 0,
            "2": 1,
            "3": 1,
            "4": 3
        },
        "tidyTrace": [
            {
                "children": [
                    {
                        "children": [
                            {
                                "children": [
                                    {
                                        "children": [
                                            {
                                                "children": [],
                                                "depth": 3,
                                                "id": 4,
                                                "order": 4
                                            }
                                        ],
                                        "depth": 2,
                                        "id": 3,
                                        "order": 3
                                    }
                                ],
                                "depth": 1,
                                "id": 1,
                                "order": 1
                            }
                        ],
                        "depth": 0,
                        "id": 0,
                        "order": 0
                    }
                ],
                "depth": -1,
                "id": -1,
                "order": -1
            }
        ],
        "tidyTraceNodeCount": 4
    },
    "state_change": {
        "stateChanges": [
            {
                "address": "0x2ffd0d2bea8e922a722de83c451ad93e097851f5",
                "erc": "",
                "slots": [
                    {
                        "current": "0x0000000000000000000000000000000000000000000000000000000000000001",
                        "key": "0x65d510a5d8f7ef134ec444f7f34ee808c8eeb5177cdfd16be0c40fe1ab433695",
                        "prev": "0x0000000000000000000000000000000000000000000000000000000000000000"
                    },
                    {
                        "current": "0x0000000000000000000000000000000000000000000000000000000000000001",
                        "key": "0x5622121b47b8cd0120c4efe45dd5483242f54a3d49bd7679be565d47694918c3",
                        "prev": "0x0000000000000000000000000000000000000000000000000000000000000000"
                    },
                    {
                        "current": "0x0000000000000000000000002d1abeeb8e7dc9f08f96652603d2d31a838564a5",
                        "key": "0x8d5bb42e0ac1496a2c326edc9c00758985246e6c2bb146d6c2f4a0d509e0960b",
                        "prev": "0x00000000000000000000000081262dfc30a5e3ae137029f20850566f86f6eb3a"
                    },
                    {
                        "current": "0x0000000000000000000000000000000000000000000000000000000000000001",
                        "key": "0xc8fcad8db84d3cc18b4c41d551ea0ee66dd599cde068d998e57d5e09332c1321",
                        "prev": "0x0000000000000000000000000000000000000000000000000000000000000000"
                    },
                    {
                        "current": "0x0000000000000000000000000000000000000000000000000000000000000001",
                        "key": "0x699d9daa71b280d05a152715774afa0a81a312594b2d731d6b0b2552b7d6f69f",
                        "prev": "0x0000000000000000000000000000000000000000000000000000000000000000"
                    },
                    {
                        "current": "0x0000000000000000000000000000000000000000000000000000000000000001",
                        "key": "0xcfacd24499ca9dc4061f20eee5df559aa2ba71570ecafda8b207a64fa6efbd6b",
                        "prev": "0x0000000000000000000000000000000000000000000000000000000000000000"
                    }
                ],
                "storageVariables": []
            }
        ]
    }
}