{
    "balance_change": {
        "balanceChanges": [
            {
                "account": "0xb6911dee6a5b1c65ad1ac11a99aec09c2cf83c0e",
                "assets": [
                    {
                        "address": "0xeeeeeeeeeeeeeeeeeeeeeeeeeeeeeeeeeeeeeeee",
                        "amount": "0.000000000000008888",
                        "iconUrl": "https://assets.blocksec.com/image/1663669189317-2.png",
                        "isERC1155": false,
                        "isERC721": false,
                        "sign": false,
                        "value": ""
                    }
                ]
            },
            {
                "account": "0x4237d006471b38af0e1691c00d96193a8ff5709f",
                "assets": [
                    {
                        "address": "0xeeeeeeeeeeeeeeeeeeeeeeeeeeeeeeeeeeeeeeee",
                        "amount": "0.000000000000008888",
                        "iconUrl": "https://assets.blocksec.com/image/1663669189317-2.png",
                        "isERC1155": false,
                        "isERC721": false,
                        "sign": true,
                        "value": ""
                    },
                    {
                        "address": "0x55d398326f99059ff775485246999027b3197955",
                        "amount": "11,500",
                        "iconUrl": "https://assets.blocksec.com/icon/810ebed5-1cb7-4a60-827d-c7eb0c438c0e.png",
                        "isERC1155": false,
                        "isERC721": false,
                        "sign": true,
                        "value": "11494.825"
                    }
                ]
            },
            {
                "account": "0x1521d34ae3d85e2219bff49dd8fe2809e1ad07dd",
                "assets": [
                    {
                        "address": "0x3213573c46eb905ba17f0bb650e10c2352552e8a",
                        "amount": "1,000",
                        "iconUrl": "",
                        "isERC1155": false,
                        "isERC721": false,
                        "sign": false,
                        "value": ""
                    }
                ]
            },
            {
                "account": "0x6976d28d21cba294377257eae04761fa5ce14eaf",
                "assets": [
                    {
                        "address": "0x3213573c46eb905ba17f0bb650e10c2352552e8a",
                        "amount": "500",
                        "iconUrl": "",
                        "isERC1155": false,
                        "isERC721": false,
                        "sign": false,
                        "value": ""
                    }
                ]
            },
            {
                "account": "0x80df77b2ae5828ff499a735ee823d6cd7cf95f5a",
                "assets": [
                    {
                        "address": "0x55d398326f99059ff775485246999027b3197955",
                        "amount": "11,500",
                        "iconUrl": "https://assets.blocksec.com/icon/810ebed5-1cb7-4a60-827d-c7eb0c438c0e.png",
                        "isERC1155": false,
                        "isERC721": false,
                        "sign": false,
                        "value": "11494.825"
                    },
                    {
                        "address": "0x3213573c46eb905ba17f0bb650e10c2352552e8a",
                        "amount": "1,500",
                        "iconUrl": "",
                        "isERC1155": false,
                        "isERC721": false,
                        "sign": true,
                        "value": ""
                    }
                ]
            }
        ]
    },
    "profile": {
        "basic_info": {
            "baseFee": "0",
            "blockNumber": 39730207,
            "callData": "0x4fcccbae0000000000000000000000000000000000000000000000000000000000000001",
            "debugEnable": true,
            "errorInfo": "",
            "eventCount": 5,
            "feeRecipient": "0xbdcc079bbb23c1d9a6f36aa31309676c258abac7",
            "formatValue": "0.000000000000008888",
            "gasLimit": 5000000,
            "gasPrice": "3.0300501",
            "gasUsed": 4232913,
            "intTxnCount": 13,
            "internalRevert": false,
            "internalRevertMessage": "",
            "isContractCreation": false,
            "isFlashloan": false,
            "maxFee": "",
            "nonce": 101,
            "overwritedBlockNumber": -1,
            "priorityFee": "",
            "receiver": "0x4237d006471b38af0e1691c00d96193a8ff5709f",
            "revertMessage": "",
            "sender": "0xb6911dee6a5b1c65ad1ac11a99aec09c2cf83c0e",
            "simulationEnable": true,
            "sourceTxnHash": "0x813b5af69a490becf9c19c19a19e0fa9ec53f086a90ed3ce7d1a0b3786e5f6bf",
            "status": true,
            "timestamp": "2024-06-18T20:59:50Z",
            "transactionFee": "0.0128259384589413",
            "txnHash": "0x813b5af69a490becf9c19c19a19e0fa9ec53f086a90ed3ce7d1a0b3786e5f6bf",
            "txnIndex": 5,
            "type": 0,
            "value": "8888"
        },
        "fund_flow": [
            {
                "amount": "0.000000000000008888",
                "from": "0xb6911dee6a5b1c65ad1ac11a99aec09c2cf83c0e",
                "id": 1,
                "isERC1155": false,
                "isERC721": false,
                "isReverted": false,
                "order": 1,
                "to": "0x4237d006471b38af0e1691c00d96193a8ff5709f",
                "token": "0xeeeeeeeeeeeeeeeeeeeeeeeeeeeeeeeeeeeeeeee"
            },
            {
                "amount": "11,500",
                "from": "0x80df77b2ae5828ff499a735ee823d6cd7cf95f5a",
                "id": 2,
                "isERC1155": false,
                "isERC721": false,
                "isReverted": false,
                "order": 2,
                "to": "0x4237d006471b38af0e1691c00d96193a8ff5709f",
                "token": "0x55d398326f99059ff775485246999027b3197955"
            },
            {
                "amount": "500",
                "from": "0x6976d28d21cba294377257eae04761fa5ce14eaf",
                "id": 3,
                "isERC1155": false,
                "isERC721": false,
                "isReverted": false,
                "order": 3,
                "to": "0x4237d006471b38af0e1691c00d96193a8ff5709f",
                "token": "0x3213573c46eb905ba17f0bb650e10c2352552e8a"
            },
            {
                "amount": "1,000",
                "from": "0x1521d34ae3d85e2219bff49dd8fe2809e1ad07dd",
                "id": 4,
                "isERC1155": false,
                "isERC721": false,
                "isReverted": false,
                "order": 4,
                "to": "0x4237d006471b38af0e1691c00d96193a8ff5709f",
                "token": "0x3213573c46eb905ba17f0bb650e10c2352552e8a"
            },
            {
                "amount": "1,500",
                "from": "0x4237d006471b38af0e1691c00d96193a8ff5709f",
                "id": 5,
                "isERC1155": false,
                "isERC721": false,
                "isReverted": false,
                "order": 5,
                "to": "0x80df77b2ae5828ff499a735ee823d6cd7cf95f5a",
                "token": "0x3213573c46eb905ba17f0bb650e10c2352552e8a"
            }
        ],
        "token_infos": [
            {
                "address": "0xeeeeeeeeeeeeeeeeeeeeeeeeeeeeeeeeeeeeeeee",
                "decimals": 18
            },
            {
                "address": "0x3213573c46eb905ba17f0bb650e10c2352552e8a",
                "decimals": 18
            },
            {
                "address": "0x55d398326f99059ff775485246999027b3197955",
                "decimals": 18
            },
            {
                "address": "0xbb4cdb9cbd36b01bd1cbaebf2de08d9173bc095c",
                "decimals": 18
            }
        ]
    },
    "address_label": {
        "labels": [
            {
                "address": "0x80df77b2ae5828ff499a735ee823d6cd7cf95f5a",
                "label": "INcufi"
            },
            {
                "address": "0x0000000000000000000000000000000000000001",
                "label": "Precompiled"
            },
            {
                "address": "0x0000000000000000000000000000000000000002",
                "label": "Precompiled"
            },
            {
                "address": "0x0000000000000000000000000000000000000003",
                "label": "Precompiled"
            },
            {
                "address": "0x0000000000000000000000000000000000000004",
                "label": "Precompiled"
            },
            {
                "address": "0xeeeeeeeeeeeeeeeeeeeeeeeeeeeeeeeeeeeeeeee",
                "label": "BNB"
            },
            {
                "address": "0x55d398326f99059ff775485246999027b3197955",
                "label": "BUSD-T Stablecoin"
            },
            {
                "address": "0x3213573c46eb905ba17f0bb650e10c2352552e8a",
                "label": "AKITADEF"
            }
        ]
    },
    "trace": {
        "accountLabels": null,
        "dataMap": {
            "-1": {
                "invocation": {
                    "address": "0xb6911dee6a5b1c65ad1ac11a99aec09c2cf83c0e",
                    "callData": "",
                    "decodedMethod": null,
                    "errorInfo": "",
                    "fromAddress": "",
                    "gasUsed": 0,
                    "id": -1,
                    "methodDecoded": false,
                    "operation": "",
                    "output": "",
                    "revert": false,
                    "revertMessage": "",
                    "selector": "",
                    "status": false,
                    "value": ""
                },
                "nodeType": 0
            },
            "0": {
                "invocation": {
                    "address": "0x4237d006471b38af0e1691c00d96193a8ff5709f",
                    "callData": "0x0000000000000000000000000000000000000000000000000000000000000001",
                    "decodedMethod": {
                        "callParams": [
                            {
                                "name": "shouldEnable",
                                "type": "bool",
                                "value": true
                            }
                        ],
                        "constructorArguments": "",
                        "name": "burn",
                        "returnParams": [],
                        "signature": "burn(bool)"
                    },
                    "errorInfo": "",
                    "fromAddress": "0xb6911dee6a5b1c65ad1ac11a99aec09c2cf83c0e",
                    "gasUsed": 4232913,
                    "id": 0,
                    "methodDecoded": true,
                    "operation": "CALL",
                    "output": "",
                    "revert": false,
                    "revertMessage": "",
                    "selector": "0x4fcccbae",
                    "status": true,
                    "value": "0.000000000000008888"
                },
                "nodeType": 0
            },
            "1": {
                "invocation": {
                    "address": "0x80df77b2ae5828ff499a735ee823d6cd7cf95f5a",
                    "callData": "0x",
                    "decodedMethod": {
                        "callParams": [],
                        "constructorArguments": "",
                        "name": "listMyoID",
                        "returnParams": [
                            {
                                "name": "",
                                "type": "(uint256,uint256,uint256,uint256,uint256,uint256,bool,address,uint256,uint256,uint256,uint256)[]",
                                "value": [
                                    [
                                        {
                                            "name": "id",
                                            "type": "uint256",
                                            "value": "1,187"
                                        },
                                        {
                                            "name": "amount",
                                            "type": "uint256",
                                            "value": "100,000,000,000,000,000,000"
                                        },
                                        {
                                            "name": "apy",
                                            "type": "uint256",
                                            "value": "0"
                                        },
                                        {
                                            "name": "period",
                                            "type": "uint256",
                                            "value": "0"
                                        },
                                        {
                                            "name": "startdate",
                                            "type": "uint256",
                                            "value": "1,718,743,550"
                                        },
                                        {
                                            "name": "enddate",
                                            "type": "uint256",
                                            "value": "1,718,743,550"
                                        },
                                        {
                                            "name": "complet",
                                            "type": "bool",
                                            "value": true
                                        },
                                        {
                                            "name": "USer",
                                            "type": "address",
                                            "value": "0x4237d006471b38af0e1691c00d96193a8ff5709f"
                                        },
                                        {
                                            "name": "withdraltime",
                                            "type": "uint256",
                                            "value": "1,718,743,598"
                                        },
                                        {
                                            "name": "PRice",
                                            "type": "uint256",
                                            "value": "31,299"
                                        },
                                        {
                                            "name": "decimal",
                                            "type": "uint256",
                                            "value": "1,000,000,000"
                                        },
                                        {
                                            "name": "earningwithdralAkita",
                                            "type": "uint256",
                                            "value": "0"
                                        }
                                    ],
                                    [
                                        {
                                            "name": "id",
                                            "type": "uint256",
                                            "value": "1,188"
                                        },
                                        {
                                            "name": "amount",
                                            "type": "uint256",
                                            "value": "10,000,000,000,000,000,000,000"
                                        },
                                        {
                                            "name": "apy",
                                            "type": "uint256",
                                            "value": "0"
                                        },
                                        {
                                            "name": "period",
                                            "type": "uint256",
                                            "value": "0"
                                        },
                                        {
                                            "name": "startdate",
                                            "type": "uint256",
                                            "value": "1,718,743,676"
                                        },
                                        {
                                            "name": "enddate",
                                            "type": "uint256",
                                            "value": "1,718,743,676"
                                        },
                                        {
                                            "name": "complet",
                                            "type": "bool",
                                            "value": true
                                        },
                                        {
                                            "name": "USer",
                                            "type": "address",
                                            "value": "0x4237d006471b38af0e1691c00d96193a8ff5709f"
                                        },
                                        {
                                            "name": "withdraltime",
                                            "type": "uint256",
                                            "value": "1,718,743,685"
                                        },
                                        {
                                            "name": "PRice",
                                            "type": "uint256",
                                            "value": "31,299"
                                        },
                                        {
                                            "name": "decimal",
                                            "type": "uint256",
                                            "value": "1,000,000,000"
                                        },
                                        {
                                            "name": "earningwithdralAkita",
                                            "type": "uint256",
                                            "value": "0"
                                        }
                                    ],
                                    [
                                        {
                                            "name": "id",
                                            "type": "uint256",
                                            "value": "1,189"
                                        },
                                        {
                                            "name": "amount",
                                            "type": "uint256",
                                            "value": "10,000,000,000,000,000,000,000"
                                        },
                                        {
                                            "name": "apy",
                                            "type": "uint256",
                                            "value": "0"
                                        },
                                        {
                                            "name": "period",
                                            "type": "uint256",
                                            "value": "0"
                                        },
                                        {
                                            "name": "startdate",
                                            "type": "uint256",
                                            "value": "1,718,743,706"
                                        },
                                        {
                                            "name": "enddate",
                                            "type": "uint256",
                                            "value": "1,718,743,706"
                                        },
                                        {
                                            "name": "complet",
                                            "type": "bool",
                                            "value": true
                                        },
                                        {
                                            "name": "USer",
                                            "type": "address",
                                            "value": "0x4237d006471b38af0e1691c00d96193a8ff5709f"
                                        },
                                        {
                                            "name": "withdraltime",
                                            "type": "uint256",
                                            "value": "1,718,743,715"
                                        },
                                        {
                                            "name": "PRice",
                                            "type": "uint256",
                                            "value": "31,299"
                                        },
                                        {
                                            "name": "decimal",
                                            "type": "uint256",
                                            "value": "1,000,000,000"
                                        },
                                        {
                                            "name": "earningwithdralAkita",
                                            "type": "uint256",
                                            "value": "0"
                                        }
                                    ],
                                    [
                                        {
                                            "name": "id",
                                            "type": "uint256",
                                            "value": "1,190"
                                        },
                                        {
                                            "name": "amount",
                                            "type": "uint256",
                                            "value": "10,000,000,000,000,000,000,000"
                                        },
                                        {
                                            "name": "apy",
                                            "type": "uint256",
                                            "value": "0"
                                        },
                                        {
                                            "name": "period",
                                            "type": "uint256",
                                            "value": "0"
                                        },
                                        {
                                            "name": "startdate",
                                            "type": "uint256",
                                            "value": "1,718,743,724"
                                        },
                                        {
                                            "name": "enddate",
                                            "type": "uint256",
                                            "value": "1,718,743,724"
                                        },
                                        {
                                            "name": "complet",
                                            "type": "bool",
                                            "value": true
                                        },
                                        {
                                            "name": "USer",
                                            "type": "address",
                                            "value": "0x4237d006471b38af0e1691c00d96193a8ff5709f"
                                        },
                                        {
                                            "name": "withdraltime",
                                            "type": "uint256",
                                            "value": "1,718,743,739"
                                        },
                                        {
                                            "name": "PRice",
                                            "type": "uint256",
                                            "value": "31,299"
                                        },
                                        {
                                            "name": "decimal",
                                            "type": "uint256",
                                            "value": "1,000,000,000"
                                        },
                                        {
                                            "name": "earningwithdralAkita",
                                            "type": "uint256",
                                            "value": "0"
                                        }
                                    ],
                                    [
                                        {
                                            "name": "id",
                                            "type": "uint256",
                                            "value": "1,191"
                                        },
                                        {
                                            "name": "amount",
                                            "type": "uint256",
                                            "value": "10,000,000,000,000,000,000,000"
                                        },
                                        {
                                            "name": "apy",
                                            "type": "uint256",
                                            "value": "0"
                                        },
                                        {
                                            "name": "period",
                                            "type": "uint256",
                                            "value": "0"
                                        },
                                        {
                                            "name": "startdate",
                                            "type": "uint256",
                                            "value": "1,718,743,931"
                                        },
                                        {
                                            "name": "enddate",
                                            "type": "uint256",
                                            "value": "1,718,743,931"
                                        },
                                        {
                                            "name": "complet",
                                            "type": "bool",
                                            "value": true
                                        },
                                        {
                                            "name": "USer",
                                            "type": "address",
                                            "value": "0x4237d006471b38af0e1691c00d96193a8ff5709f"
                                        },
                                        {
                                            "name": "withdraltime",
                                            "type": "uint256",
                                            "value": "1,718,743,940"
                                        },
                                        {
                                            "name": "PRice",
                                            "type": "uint256",
                                            "value": "31,299"
                                        },
                                        {
                                            "name": "decimal",
                                            "type": "uint256",
                                            "value": "1,000,000,000"
                                        },
                                        {
                                            "name": "earningwithdralAkita",
                                            "type": "uint256",
                                            "value": "0"
                                        }
                                    ],
                                    [
                                        {
                                            "name": "id",
                                            "type": "uint256",
                                            "value": "1,192"
                                        },
                                        {
                                            "name": "amount",
                                            "type": "uint256",
                                            "value": "10,000,000,000,000,000,000,000"
                                        },
                                        {
                                            "name": "apy",
                                            "type": "uint256",
                                            "value": "0"
                                        },
                                        {
                                            "name": "period",
                                            "type": "uint256",
                                            "value": "0"
                                        },
                                        {
                                            "name": "startdate",
                                            "type": "uint256",
                                            "value": "1,718,743,949"
                                        },
                                        {
                                            "name": "enddate",
                                            "type": "uint256",
                                            "value": "1,718,743,949"
                                        },
                                        {
                                            "name": "complet",
                                            "type": "bool",
                                            "value": true
                                        },
                                        {
                                            "name": "USer",
                                            "type": "address",
                                            "value": "0x4237d006471b38af0e1691c00d96193a8ff5709f"
                                        },
                                        {
                                            "name": "withdraltime",
                                            "type": "uint256",
                                            "value": "1,718,743,958"
                                        },
                                        {
                                            "name": "PRice",
                                            "type": "uint256",
                                            "value": "31,299"
                                        },
                                        {
                                            "name": "decimal",
                                            "type": "uint256",
                                            "value": "1,000,000,000"
                                        },
                                        {
                                            "name": "earningwithdralAkita",
                                            "type": "uint256",
                                            "value": "0"
                                        }
                                    ],
                                    [
                                        {
                                            "name": "id",
                                            "type": "uint256",
                                            "value": "1,193"
                                        },
                                        {
                                            "name": "amount",
                                            "type": "uint256",
                                            "value": "10,000,000,000,000,000,000,000"
                                        },
                                        {
                                            "name": "apy",
                                            "type": "uint256",
                                            "value": "0"
                                        },
                                        {
                                            "name": "period",
                                            "type": "uint256",
                                            "value": "0"
                                        },
                                        {
                                            "name": "startdate",
                                            "type": "uint256",
                                            "value": "1,718,743,967"
                                        },
                                        {
                                            "name": "enddate",
                                            "type": "uint256",
                                            "value": "1,718,743,967"
                                        },
                                        {
                                            "name": "complet",
                                            "type": "bool",
                                            "value": true
                                        },
                                        {
                                            "name": "USer",
                                            "type": "address",
                                            "value": "0x4237d006471b38af0e1691c00d96193a8ff5709f"
                                        },
                                        {
                                            "name": "withdraltime",
                                            "type": "uint256",
                                            "value": "1,718,743,976"
                                        },
                                        {
                                            "name": "PRice",
                                            "type": "uint256",
                                            "value": "31,299"
                                        },
                                        {
                                            "name": "decimal",
                                            "type": "uint256",
                                            "value": "1,000,000,000"
                                        },
                                        {
                                            "name": "earningwithdralAkita",
                                            "type": "uint256",
                                            "value": "0"
                                        }
                                    ],
                                    [
                                        {
                                            "name": "id",
                                            "type": "uint256",
                                            "value": "1,194"
                                        },
                                        {
                                            "name": "amount",
                                            "type": "uint256",
                                            "value": "10,000,000,000,000,000,000,000"
                                        },
                                        {
                                            "name": "apy",
                                            "type": "uint256",
                                            "value": "0"
                                        },
                                        {
                                            "name": "period",
                                            "type": "uint256",
                                            "value": "0"
                                        },
                                        {
                                            "name": "startdate",
                                            "type": "uint256",
                                            "value": "1,718,743,985"
                                        },
                                        {
                                            "name": "enddate",
                                            "type": "uint256",
                                            "value": "1,718,743,985"
                                        },
                                        {
                                            "name": "complet",
                                            "type": "bool",
                                            "value": true
                                        },
                                        {
                                            "name": "USer",
                                            "type": "address",
                                            "value": "0x4237d006471b38af0e1691c00d96193a8ff5709f"
                                        },
                                        {
                                            "name": "withdraltime",
                                            "type": "uint256",
                                            "value": "1,718,743,994"
                                        },
                                        {
                                            "name": "PRice",
                                            "type": "uint256",
                                            "value": "31,299"
                                        },
                                        {
                                            "name": "decimal",
                                            "type": "uint256",
                                            "value": "1,000,000,000"
                                        },
                                        {
                                            "name": "earningwithdralAkita",
                                            "type": "uint256",
                                            "value": "0"
                                        }
                                    ],
                                    [
                                        {
                                            "name": "id",
                                            "type": "uint256",
                                            "value": "1,195"
                                        },
                                        {
                                            "name": "amount",
                                            "type": "uint256",
                                            "value": "10,000,000,000,000,000,000,000"
                                        },
                                        {
                                            "name": "apy",
                                            "type": "uint256",
                                            "value": "0"
                                        },
                                        {
                                            "name": "period",
                                            "type": "uint256",
                                            "value": "0"
                                        },
                                        {
                                            "name": "startdate",
                                            "type": "uint256",
                                            "value": "1,718,744,000"
                                        },
                                        {
                                            "name": "enddate",
                                            "type": "uint256",
                                            "value": "1,718,744,000"
                                        },
                                        {
                                            "name": "complet",
                                            "type": "bool",
                                            "value": true
                                        },
                                        {
                                            "name": "USer",
                                            "type": "address",
                                            "value": "0x4237d006471b38af0e1691c00d96193a8ff5709f"
                                        },
                                        {
                                            "name": "withdraltime",
                                            "type": "uint256",
                                            "value": "1,718,744,009"
                                        },
                                        {
                                            "name": "PRice",
                                            "type": "uint256",
                                            "value": "31,299"
                                        },
                                        {
                                            "name": "decimal",
                                            "type": "uint256",
                                            "value": "1,000,000,000"
                                        },
                                        {
                                            "name": "earningwithdralAkita",
                                            "type": "uint256",
                                            "value": "0"
                                        }
                                    ],
                                    [
                                        {
                                            "name": "id",
                                            "type": "uint256",
                                            "value": "1,196"
                                        },
                                        {
                                            "name": "amount",
                                            "type": "uint256",
                                            "value": "10,000,000,000,000,000,000,000"
                                        },
                                        {
                                            "name": "apy",
                                            "type": "uint256",
                                            "value": "0"
                                        },
                                        {
                                            "name": "period",
                                            "type": "uint256",
                                            "value": "0"
                                        },
                                        {
                                            "name": "startdate",
                                            "type": "uint256",
                                            "value": "1,718,744,015"
                                        },
                                        {
                                            "name": "enddate",
                                            "type": "uint256",
                                            "value": "1,718,744,015"
                                        },
                                        {
                                            "name": "complet",
                                            "type": "bool",
                                            "value": true
                                        },
                                        {
                                            "name": "USer",
                                            "type": "address",
                                            "value": "0x4237d006471b38af0e1691c00d96193a8ff5709f"
                                        },
                                        {
                                            "name": "withdraltime",
                                            "type": "uint256",
                                            "value": "1,718,744,024"
                                        },
                                        {
                                            "name": "PRice",
                                            "type": "uint256",
                                            "value": "31,299"
                                        },
                                        {
                                            "name": "decimal",
                                            "type": "uint256",
                                            "value": "1,000,000,000"
                                        },
                                        {
                                            "name": "earningwithdralAkita",
                                            "type": "uint256",
                                            "value": "0"
                                        }
                                    ],
                                    [
                                        {
                                            "name": "id",
                                            "type": "uint256",
                                            "value": "1,197"
                                        },
                                        {
                                            "name": "amount",
                                            "type": "uint256",
                                            "value": "10,000,000,000,000,000,000,000"
                                        },
                                        {
                                            "name": "apy",
                                            "type": "uint256",
                                            "value": "0"
                                        },
                                        {
                                            "name": "period",
                                            "type": "uint256",
                                            "value": "0"
                                        },
                                        {
                                            "name": "startdate",
                                            "type": "uint256",
                                            "value": "1,718,744,039"
                                        },
                                        {
                                            "name": "enddate",
                                            "type": "uint256",
                                            "value": "1,718,744,039"
                                        },
                                        {
                                            "name": "complet",
                                            "type": "bool",
                                            "value": true
                                        },
                                        {
                                            "name": "USer",
                                            "type": "address",
                                            "value": "0x4237d006471b38af0e1691c00d96193a8ff5709f"
                                        },
                                        {
                                            "name": "withdraltime",
                                            "type": "uint256",
                                            "value": "1,718,744,048"
                                        },
                                        {
                                            "name": "PRice",
                                            "type": "uint256",
                                            "value": "31,299"
                                        },
                                        {
                                            "name": "decimal",
                                            "type": "uint256",
                                            "value": "1,000,000,000"
                                        },
                                        {
                                            "name": "earningwithdralAkita",
                                            "type": "uint256",
                                            "value": "0"
                                        }
                                    ],
                                    [
                                        {
                                            "name": "id",
                                            "type": "uint256",
                                            "value": "1,198"
                                        },
                                        {
                                            "name": "amount",
                                            "type": "uint256",
                                            "value": "10,000,000,000,000,000,000,000"
                                        },
                                        {
                                            "name": "apy",
                                            "type": "uint256",
                                            "value": "0"
                                        },
                                        {
                                            "name": "period",
                                            "type": "uint256",
                                            "value": "0"
                                        },
                                        {
                                            "name": "startdate",
                                            "type": "uint256",
                                            "value": "1,718,744,054"
                                        },
                                        {
                                            "name": "enddate",
                                            "type": "uint256",
                                            "value": "1,718,744,054"
                                        },
                                        {
                                            "name": "complet",
                                            "type": "bool",
                                            "value": true
                                        },
                                        {
                                            "name": "USer",
                                            "type": "address",
                                            "value": "0x4237d006471b38af0e1691c00d96193a8ff5709f"
                                        },
                                        {
                                            "name": "withdraltime",
                                            "type": "uint256",
                                            "value": "1,718,744,063"
                                        },
                                        {
                                            "name": "PRice",
                                            "type": "uint256",
                                            "value": "31,299"
                                        },
                                        {
                                            "name": "decimal",
                                            "type": "uint256",
                                            "value": "1,000,000,000"
                                        },
                                        {
                                            "name": "earningwithdralAkita",
                                            "type": "uint256",
                                            "value": "0"
                                        }
                                    ],
                                    [
                                        {
                                            "name": "id",
                                            "type": "uint256",
                                            "value": "1,199"
                                        },
                                        {
                                            "name": "amount",
                                            "type": "uint256",
                                            "value": "10,000,000,000,000,000,000,000"
                                        },
                                        {
                                            "name": "apy",
                                            "type": "uint256",
                                            "value": "0"
                                        },
                                        {
                                            "name": "period",
                                            "type": "uint256",
                                            "value": "0"
                                        },
                                        {
                                            "name": "startdate",
                                            "type": "uint256",
                                            "value": "1,718,744,069"
                                        },
                                        {
                                            "name": "enddate",
                                            "type": "uint256",
                                            "value": "1,718,744,069"
                                        },
                                        {
                                            "name": "complet",
                                            "type": "bool",
                                            "value": true
                                        },
                                        {
                                            "name": "USer",
                                            "type": "address",
                                            "value": "0x4237d006471b38af0e1691c00d96193a8ff5709f"
                                        },
                                        {
                                            "name": "withdraltime",
                                            "type": "uint256",
                                            "value": "1,718,744,078"
                                        },
                                        {
                                            "name": "PRice",
                                            "type": "uint256",
                                            "value": "31,299"
                                        },
                                        {
                                            "name": "decimal",
                                            "type": "uint256",
                                            "value": "1,000,000,000"
                                        },
                                        {
                                            "name": "earningwithdralAkita",
                                            "type": "uint256",
                                            "value": "0"
                                        }
                                    ],
                                    [
                                        {
                                            "name": "id",
                                            "type": "uint256",
                                            "value": "1,200"
                                        },
                                        {
                                            "name": "amount",
                                            "type": "uint256",
                                            "value": "10,000,000,000,000,000,000,000"
                                        },
                                        {
                                            "name": "apy",
                                            "type": "uint256",
                                            "value": "0"
                                        },
                                        {
                                            "name": "period",
                                            "type": "uint256",
                                            "value": "0"
                                        },
                                        {
                                            "name": "startdate",
                                            "type": "uint256",
                                            "value": "1,718,744,087"
                                        },
                                        {
                                            "name": "enddate",
                                            "type": "uint256",
                                            "value": "1,718,744,087"
                                        },
                                        {
                                            "name": "complet",
                                            "type": "bool",
                                            "value": true
                                        },
                                        {
                                            "name": "USer",
                                            "type": "address",
                                            "value": "0x4237d006471b38af0e1691c00d96193a8ff5709f"
                                        },
                                        {
                                            "name": "withdraltime",
                                            "type": "uint256",
                                            "value": "1,718,744,096"
                                        },
                                        {
                                            "name": "PRice",
                                            "type": "uint256",
                                            "value": "31,299"
                                        },
                                        {
                                            "name": "decimal",
                                            "type": "uint256",
                                            "value": "1,000,000,000"
                                        },
                                        {
                                            "name": "earningwithdralAkita",
                                            "type": "uint256",
                                            "value": "0"
                                        }
                                    ],
                                    [
                                        {
                                            "name": "id",
                                            "type": "uint256",
                                            "value": "1,201"
                                        },
                                        {
                                            "name": "amount",
                                            "type": "uint256",
                                            "value": "10,000,000,000,000,000,000,000"
                                        },
                                        {
                                            "name": "apy",
                                            "type": "uint256",
                                            "value": "0"
                                        },
                                        {
                                            "name": "period",
                                            "type": "uint256",
                                            "value": "0"
                                        },
                                        {
                                            "name": "startdate",
                                            "type": "uint256",
                                            "value": "1,718,744,105"
                                        },
                                        {
                                            "name": "enddate",
                                            "type": "uint256",
                                            "value": "1,718,744,105"
                                        },
                                        {
                                            "name": "complet",
                                            "type": "bool",
                                            "value": true
                                        },
                                        {
                                            "name": "USer",
                                            "type": "address",
                                            "value": "0x4237d006471b38af0e1691c00d96193a8ff5709f"
                                        },
                                        {
                                            "name": "withdraltime",
                                            "type": "uint256",
                                            "value": "1,718,744,135"
                                        },
                                        {
                                            "name": "PRice",
                                            "type": "uint256",
                                            "value": "31,299"
                                        },
                                        {
                                            "name": "decimal",
                                            "type": "uint256",
                                            "value": "1,000,000,000"
                                        },
                                        {
                                            "name": "earningwithdralAkita",
                                            "type": "uint256",
                                            "value": "0"
                                        }
                                    ],
                                    [
                                        {
                                            "name": "id",
                                            "type": "uint256",
                                            "value": "1,202"
                                        },
                                        {
                                            "name": "amount",
                                            "type": "uint256",
                                            "value": "10,000,000,000,000,000,000,000"
                                        },
                                        {
                                            "name": "apy",
                                            "type": "uint256",
                                            "value": "0"
                                        },
                                        {
                                            "name": "period",
                                            "type": "uint256",
                                            "value": "0"
                                        },
                                        {
                                            "name": "startdate",
                                            "type": "uint256",
                                            "value": "1,718,744,147"
                                        },
                                        {
                                            "name": "enddate",
                                            "type": "uint256",
                                            "value": "1,718,744,147"
                                        },
                                        {
                                            "name": "complet",
                                            "type": "bool",
                                            "value": true
                                        },
                                        {
                                            "name": "USer",
                                            "type": "address",
                                            "value": "0x4237d006471b38af0e1691c00d96193a8ff5709f"
                                        },
                                        {
                                            "name": "withdraltime",
                                            "type": "uint256",
                                            "value": "1,718,744,156"
                                        },
                                        {
                                            "name": "PRice",
                                            "type": "uint256",
                                            "value": "31,299"
                                        },
                                        {
                                            "name": "decimal",
                                            "type": "uint256",
                                            "value": "1,000,000,000"
                                        },
                                        {
                                            "name": "earningwithdralAkita",
                                            "type": "uint256",
                                            "value": "0"
                                        }
                                    ],
                                    [
                                        {
                                            "name": "id",
                                            "type": "uint256",
                                            "value": "1,203"
                                        },
                                        {
                                            "name": "amount",
                                            "type": "uint256",
                                            "value": "10,000,000,000,000,000,000,000"
                                        },
                                        {
                                            "name": "apy",
                                            "type": "uint256",
                                            "value": "0"
                                        },
                                        {
                                            "name": "period",
                                            "type": "uint256",
                                            "value": "0"
                                        },
                                        {
                                            "name": "startdate",
                                            "type": "uint256",
                                            "value": "1,718,744,162"
                                        },
                                        {
                                            "name": "enddate",
                                            "type": "uint256",
                                            "value": "1,718,744,162"
                                        },
                                        {
                                            "name": "complet",
                                            "type": "bool",
                                            "value": true
                                        },
                                        {
                                            "name": "USer",
                                            "type": "address",
                                            "value": "0x4237d006471b38af0e1691c00d96193a8ff5709f"
                                        },
                                        {
                                            "name": "withdraltime",
                                            "type": "uint256",
                                            "value": "1,718,744,171"
                                        },
                                        {
                                            "name": "PRice",
                                            "type": "uint256",
                                            "value": "31,299"
                                        },
                                        {
                                            "name": "decimal",
                                            "type": "uint256",
                                            "value": "1,000,000,000"
                                        },
                                        {
                                            "name": "earningwithdralAkita",
                                            "type": "uint256",
                                            "value": "0"
                                        }
                                    ],
                                    [
                                        {
                                            "name": "id",
                                            "type": "uint256",
                                            "value": "1,204"
                                        },
                                        {
                                            "name": "amount",
                                            "type": "uint256",
                                            "value": "10,000,000,000,000,000,000,000"
                                        },
                                        {
                                            "name": "apy",
                                            "type": "uint256",
                                            "value": "0"
                                        },
                                        {
                                            "name": "period",
                                            "type": "uint256",
                                            "value": "0"
                                        },
                                        {
                                            "name": "startdate",
                                            "type": "uint256",
                                            "value": "1,718,744,177"
                                        },
                                        {
                                            "name": "enddate",
                                            "type": "uint256",
                                            "value": "1,718,744,177"
                                        },
                                        {
                                            "name": "complet",
                                            "type": "bool",
                                            "value": true
                                        },
                                        {
                                            "name": "USer",
                                            "type": "address",
                                            "value": "0x4237d006471b38af0e1691c00d96193a8ff5709f"
                                        },
                                        {
                                            "name": "withdraltime",
                                            "type": "uint256",
                                            "value": "1,718,744,186"
                                        },
                                        {
                                            "name": "PRice",
                                            "type": "uint256",
                                            "value": "31,299"
                                        },
                                        {
                                            "name": "decimal",
                                            "type": "uint256",
                                            "value": "1,000,000,000"
                                        },
                                        {
                                            "name": "earningwithdralAkita",
                                            "type": "uint256",
                                            "value": "0"
                                        }
                                    ],
                                    [
                                        {
                                            "name": "id",
                                            "type": "uint256",
                                            "value": "1,205"
                                        },
                                        {
                                            "name": "amount",
                                            "type": "uint256",
                                            "value": "10,000,000,000,000,000,000,000"
                                        },
                                        {
                                            "name": "apy",
                                            "type": "uint256",
                                            "value": "0"
                                        },
                                        {
                                            "name": "period",
                                            "type": "uint256",
                                            "value": "0"
                                        },
                                        {
                                            "name": "startdate",
                                            "type": "uint256",
                                            "value": "1,718,744,195"
                                        },
                                        {
                                            "name": "enddate",
                                            "type": "uint256",
                                            "value": "1,718,744,195"
                                        },
                                        {
                                            "name": "complet",
                                            "type": "bool",
                                            "value": true
                                        },
                                        {
                                            "name": "USer",
                                            "type": "address",
                                            "value": "0x4237d006471b38af0e1691c00d96193a8ff5709f"
                                        },
                                        {
                                            "name": "withdraltime",
                                            "type": "uint256",
                                            "value": "1,718,744,204"
                                        },
                                        {
                                            "name": "PRice",
                                            "type": "uint256",
                                            "value": "31,299"
                                        },
                                        {
                                            "name": "decimal",
                                            "type": "uint256",
                                            "value": "1,000,000,000"
                                        },
                                        {
                                            "name": "earningwithdralAkita",
                                            "type": "uint256",
                                            "value": "0"
                                        }
                                    ],
                                    [
                                        {
                                            "name": "id",
                                            "type": "uint256",
                                            "value": "1,206"
                                        },
                                        {
                                            "name": "amount",
                                            "type": "uint256",
                                            "value": "10,000,000,000,000,000,000,000"
                                        },
                                        {
                                            "name": "apy",
                                            "type": "uint256",
                                            "value": "0"
                                        },
                                        {
                                            "name": "period",
                                            "type": "uint256",
                                            "value": "0"
                                        },
                                        {
                                            "name": "startdate",
                                            "type": "uint256",
                                            "value": "1,718,744,213"
                                        },
                                        {
                                            "name": "enddate",
                                            "type": "uint256",
                                            "value": "1,718,744,213"
                                        },
                                        {
                                            "name": "complet",
                                            "type": "bool",
                                            "value": true
                                        },
                                        {
                                            "name": "USer",
                                            "type": "address",
                                            "value": "0x4237d006471b38af0e1691c00d96193a8ff5709f"
                                        },
                                        {
                                            "name": "withdraltime",
                                            "type": "uint256",
                                            "value": "1,718,744,222"
                                        },
                                        {
                                            "name": "PRice",
                                            "type": "uint256",
                                            "value": "31,299"
                                        },
                                        {
                                            "name": "decimal",
                                            "type": "uint256",
                                            "value": "1,000,000,000"
                                        },
                                        {
                                            "name": "earningwithdralAkita",
                                            "type": "uint256",
                                            "value": "0"
                                        }
                                    ],
                                    [
                                        {
                                            "name": "id",
                                            "type": "uint256",
                                            "value": "1,207"
                                        },
                                        {
                                            "name": "amount",
                                            "type": "uint256",
                                            "value": "10,000,000,000,000,000,000,000"
                                        },
                                        {
                                            "name": "apy",
                                            "type": "uint256",
                                            "value": "0"
                                        },
                                        {
                                            "name": "period",
                                            "type": "uint256",
                                            "value": "0"
                                        },
                                        {
                                            "name": "startdate",
                                            "type": "uint256",
                                            "value": "1,718,744,228"
                                        },
                                        {
                                            "name": "enddate",
                                            "type": "uint256",
                                            "value": "1,718,744,228"
                                        },
                                        {
                                            "name": "complet",
                                            "type": "bool",
                                            "value": true
                                        },
                                        {
                                            "name": "USer",
                                            "type": "address",
                                            "value": "0x4237d006471b38af0e1691c00d96193a8ff5709f"
                                        },
                                        {
                                            "name": "withdraltime",
                                            "type": "uint256",
                                            "value": "1,718,744,237"
                                        },
                                        {
                                            "name": "PRice",
                                            "type": "uint256",
                                            "value": "31,299"
                                        },
                                        {
                                            "name": "decimal",
                                            "type": "uint256",
                                            "value": "1,000,000,000"
                                        },
                                        {
                                            "name": "earningwithdralAkita",
                                            "type": "uint256",
                                            "value": "0"
                                        }
                                    ],
                                    [
                                        {
                                            "name": "id",
                                            "type": "uint256",
                                            "value": "1,208"
                                        },
                                        {
                                            "name": "amount",
                                            "type": "uint256",
                                            "value": "10,000,000,000,000,000,000,000"
                                        },
                                        {
                                            "name": "apy",
                                            "type": "uint256",
                                            "value": "0"
                                        },
                                        {
                                            "name": "period",
                                            "type": "uint256",
                                            "value": "0"
                                        },
                                        {
                                            "name": "startdate",
                                            "type": "uint256",
                                            "value": "1,718,744,246"
                                        },
                                        {
                                            "name": "enddate",
                                            "type": "uint256",
                                            "value": "1,718,744,246"
                                        },
                                        {
                                            "name": "complet",
                                            "type": "bool",
                                            "value": true
                                        },
                                        {
                                            "name": "USer",
                                            "type": "address",
                                            "value": "0x4237d006471b38af0e1691c00d96193a8ff5709f"
                                        },
                                        {
                                            "name": "withdraltime",
                                            "type": "uint256",
                                            "value": "1,718,744,255"
                                        },
                                        {
                                            "name": "PRice",
                                            "type": "uint256",
                                            "value": "31,299"
                                        },
                                        {
                                            "name": "decimal",
                                            "type": "uint256",
                                            "value": "1,000,000,000"
                                        },
                                        {
                                            "name": "earningwithdralAkita",
                                            "type": "uint256",
                                            "value": "0"
                                        }
                                    ],
                                    [
                                        {
                                            "name": "id",
                                            "type": "uint256",
                                            "value": "1,209"
                                        },
                                        {
                                            "name": "amount",
                                            "type": "uint256",
                                            "value": "10,000,000,000,000,000,000,000"
                                        },
                                        {
                                            "name": "apy",
                                            "type": "uint256",
                                            "value": "0"
                                        },
                                        {
                                            "name": "period",
                                            "type": "uint256",
                                            "value": "0"
                                        },
                                        {
                                            "name": "startdate",
                                            "type": "uint256",
                                            "value": "1,718,744,264"
                                        },
                                        {
                                            "name": "enddate",
                                            "type": "uint256",
                                            "value": "1,718,744,264"
                                        },
                                        {
                                            "name": "complet",
                                            "type": "bool",
                                            "value": true
                                        },
                                        {
                                            "name": "USer",
                                            "type": "address",
                                            "value": "0x4237d006471b38af0e1691c00d96193a8ff5709f"
                                        },
                                        {
                                            "name": "withdraltime",
                                            "type": "uint256",
                                            "value": "1,718,744,273"
                                        },
                                        {
                                            "name": "PRice",
                                            "type": "uint256",
                                            "value": "31,299"
                                        },
                                        {
                                            "name": "decimal",
                                            "type": "uint256",
                                            "value": "1,000,000,000"
                                        },
                                        {
                                            "name": "earningwithdralAkita",
                                            "type": "uint256",
                                            "value": "0"
                                        }
                                    ],
                                    [
                                        {
                                            "name": "id",
                                            "type": "uint256",
                                            "value": "1,210"
                                        },
                                        {
                                            "name": "amount",
                                            "type": "uint256",
                                            "value": "10,000,000,000,000,000,000,000"
                                        },
                                        {
                                            "name": "apy",
                                            "type": "uint256",
                                            "value": "0"
                                        },
                                        {
                                            "name": "period",
                                            "type": "uint256",
                                            "value": "0"
                                        },
                                        {
                                            "name": "startdate",
                                            "type": "uint256",
                                            "value": "1,718,744,291"
                                        },
                                        {
                                            "name": "enddate",
                                            "type": "uint256",
                                            "value": "1,718,744,291"
                                        },
                                        {
                                            "name": "complet",
                                            "type": "bool",
                                            "value": true
                                        },
                                        {
                                            "name": "USer",
                                            "type": "address",
                                            "value": "0x4237d006471b38af0e1691c00d96193a8ff5709f"
                                        },
                                        {
                                            "name": "withdraltime",
                                            "type": "uint256",
                                            "value": "1,718,744,300"
                                        },
                                        {
                                            "name": "PRice",
                                            "type": "uint256",
                                            "value": "31,299"
                                        },
                                        {
                                            "name": "decimal",
                                            "type": "uint256",
                                            "value": "1,000,000,000"
                                        },
                                        {
                                            "name": "earningwithdralAkita",
                                            "type": "uint256",
                                            "value": "0"
                                        }
                                    ],
                                    [
                                        {
                                            "name": "id",
                                            "type": "uint256",
                                            "value": "1,211"
                                        },
                                        {
                                            "name": "amount",
                                            "type": "uint256",
                                            "value": "10,000,000,000,000,000,000,000"
                                        },
                                        {
                                            "name": "apy",
                                            "type": "uint256",
                                            "value": "0"
                                        },
                                        {
                                            "name": "period",
                                            "type": "uint256",
                                            "value": "0"
                                        },
                                        {
                                            "name": "startdate",
                                            "type": "uint256",
                                            "value": "1,718,744,309"
                                        },
                                        {
                                            "name": "enddate",
                                            "type": "uint256",
                                            "value": "1,718,744,309"
                                        },
                                        {
                                            "name": "complet",
                                            "type": "bool",
                                            "value": true
                                        },
                                        {
                                            "name": "USer",
                                            "type": "address",
                                            "value": "0x4237d006471b38af0e1691c00d96193a8ff5709f"
                                        },
                                        {
                                            "name": "withdraltime",
                                            "type": "uint256",
                                            "value": "1,718,744,318"
                                        },
                                        {
                                            "name": "PRice",
                                            "type": "uint256",
                                            "value": "31,299"
                                        },
                                        {
                                            "name": "decimal",
                                            "type": "uint256",
                                            "value": "1,000,000,000"
                                        },
                                        {
                                            "name": "earningwithdralAkita",
                                            "type": "uint256",
                                            "value": "0"
                                        }
                                    ],
                                    [
                                        {
                                            "name": "id",
                                            "type": "uint256",
                                            "value": "1,212"
                                        },
                                        {
                                            "name": "amount",
                                            "type": "uint256",
                                            "value": "10,000,000,000,000,000,000,000"
                                        },
                                        {
                                            "name": "apy",
                                            "type": "uint256",
                                            "value": "0"
                                        },
                                        {
                                            "name": "period",
                                            "type": "uint256",
                                            "value": "0"
                                        },
                                        {
                                            "name": "startdate",
                                            "type": "uint256",
                                            "value": "1,718,744,327"
                                        },
                                        {
                                            "name": "enddate",
                                            "type": "uint256",
                                            "value": "1,718,744,327"
                                        },
                                        {
                                            "name": "complet",
                                            "type": "bool",
                                            "value": true
                                        },
                                        {
                                            "name": "USer",
                                            "type": "address",
                                            "value": "0x4237d006471b38af0e1691c00d96193a8ff5709f"
                                        },
                                        {
                                            "name": "withdraltime",
                                            "type": "uint256",
                                            "value": "1,718,744,336"
                                        },
                                        {
                                            "name": "PRice",
                                            "type": "uint256",
                                            "value": "31,299"
                                        },
                                        {
                                            "name": "decimal",
                                            "type": "uint256",
                                            "value": "1,000,000,000"
                                        },
                                        {
                                            "name": "earningwithdralAkita",
                                            "type": "uint256",
                                            "value": "0"
                                        }
                                    ],
                                    [
                                        {
                                            "name": "id",
                                            "type": "uint256",
                                            "value": "1,213"
                                        },
                                        {
                                            "name": "amount",
                                            "type": "uint256",
                                            "value": "10,000,000,000,000,000,000,000"
                                        },
                                        {
                                            "name": "apy",
                                            "type": "uint256",
                                            "value": "0"
                                        },
                                        {
                                            "name": "period",
                                            "type": "uint256",
                                            "value": "0"
                                        },
                                        {
                                            "name": "startdate",
                                            "type": "uint256",
                                            "value": "1,718,744,342"
                                        },
                                        {
                                            "name": "enddate",
                                            "type": "uint256",
                                            "value": "1,718,744,342"
                                        },
                                        {
                                            "name": "complet",
                                            "type": "bool",
                                            "value": true
                                        },
                                        {
                                            "name": "USer",
                                            "type": "address",
                                            "value": "0x4237d006471b38af0e1691c00d96193a8ff5709f"
                                        },
                                        {
                                            "name": "withdraltime",
                                            "type": "uint256",
                                            "value": "1,718,744,351"
                                        },
                                        {
                                            "name": "PRice",
                                            "type": "uint256",
                                            "value": "31,299"
                                        },
                                        {
                                            "name": "decimal",
                                            "type": "uint256",
                                            "value": "1,000,000,000"
                                        },
                                        {
                                            "name": "earningwithdralAkita",
                                            "type": "uint256",
                                            "value": "0"
                                        }
                                    ],
                                    [
                                        {
                                            "name": "id",
                                            "type": "uint256",
                                            "value": "1,214"
                                        },
                                        {
                                            "name": "amount",
                                            "type": "uint256",
                                            "value": "10,000,000,000,000,000,000,000"
                                        },
                                        {
                                            "name": "apy",
                                            "type": "uint256",
                                            "value": "0"
                                        },
                                        {
                                            "name": "period",
                                            "type": "uint256",
                                            "value": "0"
                                        },
                                        {
                                            "name": "startdate",
                                            "type": "uint256",
                                            "value": "1,718,744,360"
                                        },
                                        {
                                            "name": "enddate",
                                            "type": "uint256",
                                            "value": "1,718,744,360"
                                        },
                                        {
                                            "name": "complet",
                                            "type": "bool",
                                            "value": true
                                        },
                                        {
                                            "name": "USer",
                                            "type": "address",
                                            "value": "0x4237d006471b38af0e1691c00d96193a8ff5709f"
                                        },
                                        {
                                            "name": "withdraltime",
                                            "type": "uint256",
                                            "value": "1,718,744,369"
                                        },
                                        {
                                            "name": "PRice",
                                            "type": "uint256",
                                            "value": "31,299"
                                        },
                                        {
                                            "name": "decimal",
                                            "type": "uint256",
                                            "value": "1,000,000,000"
                                        },
                                        {
                                            "name": "earningwithdralAkita",
                                            "type": "uint256",
                                            "value": "0"
                                        }
                                    ],
                                    [
                                        {
                                            "name": "id",
                                            "type": "uint256",
                                            "value": "1,215"
                                        },
                                        {
                                            "name": "amount",
                                            "type": "uint256",
                                            "value": "10,000,000,000,000,000,000,000"
                                        },
                                        {
                                            "name": "apy",
                                            "type": "uint256",
                                            "value": "0"
                                        },
                                        {
                                            "name": "period",
                                            "type": "uint256",
                                            "value": "0"
                                        },
                                        {
                                            "name": "startdate",
                                            "type": "uint256",
                                            "value": "1,718,744,381"
                                        },
                                        {
                                            "name": "enddate",
                                            "type": "uint256",
                                            "value": "1,718,744,381"
                                        },
                                        {
                                            "name": "complet",
                                            "type": "bool",
                                            "value": false
                                        },
                                        {
                                            "name": "USer",
                                            "type": "address",
                                            "value": "0x4237d006471b38af0e1691c00d96193a8ff5709f"
                                        },
                                        {
                                            "name": "withdraltime",
                                            "type": "uint256",
                                            "value": "0"
                                        },
                                        {
                                            "name": "PRice",
                                            "type": "uint256",
                                            "value": "31,299"
                                        },
                                        {
                                            "name": "decimal",
                                            "type": "uint256",
                                            "value": "1,000,000,000"
                                        },
                                        {
                                            "name": "earningwithdralAkita",
                                            "type": "uint256",
                                            "value": "0"
                                        }
                                    ]
                                ]
                            }
                        ],
                        "signature": "listMyoID()"
                    },
                    "errorInfo": "",
                    "fromAddress": "0x4237d006471b38af0e1691c00d96193a8ff5709f",
                    "gasUsed": 3956471,
                    "id": 1,
                    "methodDecoded": true,
                    "operation": "STATICCALL",
                    "output": "0x0000000000000000000000000000000000000000000000000000000000000020000000000000000000000000000000000000000000000000000000000000001d00000000000000000000000000000000000000000000000000000000000004a30000000000000000000000000000000000000000000000056bc75e2d6310000000000000000000000000000000000000000000000000000000000000000000000000000000000000000000000000000000000000000000000000000000000000000000000000000000000000000000000000000000000000000000006671f1fe000000000000000000000000000000000000000000000000000000006671f1fe00000000000000000000000000000000000000000000000000000000000000010000000000000000000000004237d006471b38af0e1691c00d96193a8ff5709f000000000000000000000000000000000000000000000000000000006671f22e0000000000000000000000000000000000000000000000000000000000007a43000000000000000000000000000000000000000000000000000000003b9aca00000000000000000000000000000000000000000000000000000000000000000000000000000000000000000000000000000000000000000000000000000004a400000000000000000000000000000000000000000000021e19e0c9bab240000000000000000000000000000000000000000000000000000000000000000000000000000000000000000000000000000000000000000000000000000000000000000000000000000000000000000000000000000000000000000000006671f27c000000000000000000000000000000000000000000000000000000006671f27c00000000000000000000000000000000000000000000000000000000000000010000000000000000000000004237d006471b38af0e1691c00d96193a8ff5709f000000000000000000000000000000000000000000000000000000006671f2850000000000000000000000000000000000000000000000000000000000007a43000000000000000000000000000000000000000000000000000000003b9aca00000000000000000000000000000000000000000000000000000000000000000000000000000000000000000000000000000000000000000000000000000004a500000000000000000000000000000000000000000000021e19e0c9bab240000000000000000000000000000000000000000000000000000000000000000000000000000000000000000000000000000000000000000000000000000000000000000000000000000000000000000000000000000000000000000000006671f29a000000000000000000000000000000000000000000000000000000006671f29a00000000000000000000000000000000000000000000000000000000000000010000000000000000000000004237d006471b38af0e1691c00d96193a8ff5709f000000000000000000000000000000000000000000000000000000006671f2a30000000000000000000000000000000000000000000000000000000000007a43000000000000000000000000000000000000000000000000000000003b9aca00000000000000000000000000000000000000000000000000000000000000000000000000000000000000000000000000000000000000000000000000000004a600000000000000000000000000000000000000000000021e19e0c9bab240000000000000000000000000000000000000000000000000000000000000000000000000000000000000000000000000000000000000000000000000000000000000000000000000000000000000000000000000000000000000000000006671f2ac000000000000000000000000000000000000000000000000000000006671f2ac00000000000000000000000000000000000000000000000000000000000000010000000000000000000000004237d006471b38af0e1691c00d96193a8ff5709f000000000000000000000000000000000000000000000000000000006671f2bb0000000000000000000000000000000000000000000000000000000000007a43000000000000000000000000000000000000000000000000000000003b9aca00000000000000000000000000000000000000000000000000000000000000000000000000000000000000000000000000000000000000000000000000000004a700000000000000000000000000000000000000000000021e19e0c9bab240000000000000000000000000000000000000000000000000000000000000000000000000000000000000000000000000000000000000000000000000000000000000000000000000000000000000000000000000000000000000000000006671f37b000000000000000000000000000000000000000000000000000000006671f37b00000000000000000000000000000000000000000000000000000000000000010000000000000000000000004237d006471b38af0e1691c00d96193a8ff5709f000000000000000000000000000000000000000000000000000000006671f3840000000000000000000000000000000000000000000000000000000000007a43000000000000000000000000000000000000000000000000000000003b9aca00000000000000000000000000000000000000000000000000000000000000000000000000000000000000000000000000000000000000000000000000000004a800000000000000000000000000000000000000000000021e19e0c9bab240000000000000000000000000000000000000000000000000000000000000000000000000000000000000000000000000000000000000000000000000000000000000000000000000000000000000000000000000000000000000000000006671f38d000000000000000000000000000000000000000000000000000000006671f38d00000000000000000000000000000000000000000000000000000000000000010000000000000000000000004237d006471b38af0e1691c00d96193a8ff5709f000000000000000000000000000000000000000000000000000000006671f3960000000000000000000000000000000000000000000000000000000000007a43000000000000000000000000000000000000000000000000000000003b9aca00000000000000000000000000000000000000000000000000000000000000000000000000000000000000000000000000000000000000000000000000000004a900000000000000000000000000000000000000000000021e19e0c9bab240000000000000000000000000000000000000000000000000000000000000000000000000000000000000000000000000000000000000000000000000000000000000000000000000000000000000000000000000000000000000000000006671f39f000000000000000000000000000000000000000000000000000000006671f39f00000000000000000000000000000000000000000000000000000000000000010000000000000000000000004237d006471b38af0e1691c00d96193a8ff5709f000000000000000000000000000000000000000000000000000000006671f3a80000000000000000000000000000000000000000000000000000000000007a43000000000000000000000000000000000000000000000000000000003b9aca00000000000000000000000000000000000000000000000000000000000000000000000000000000000000000000000000000000000000000000000000000004aa00000000000000000000000000000000000000000000021e19e0c9bab240000000000000000000000000000000000000000000000000000000000000000000000000000000000000000000000000000000000000000000000000000000000000000000000000000000000000000000000000000000000000000000006671f3b1000000000000000000000000000000000000000000000000000000006671f3b100000000000000000000000000000000000000000000000000000000000000010000000000000000000000004237d006471b38af0e1691c00d96193a8ff5709f000000000000000000000000000000000000000000000000000000006671f3ba0000000000000000000000000000000000000000000000000000000000007a43000000000000000000000000000000000000000000000000000000003b9aca00000000000000000000000000000000000000000000000000000000000000000000000000000000000000000000000000000000000000000000000000000004ab00000000000000000000000000000000000000000000021e19e0c9bab240000000000000000000000000000000000000000000000000000000000000000000000000000000000000000000000000000000000000000000000000000000000000000000000000000000000000000000000000000000000000000000006671f3c0000000000000000000000000000000000000000000000000000000006671f3c000000000000000000000000000000000000000000000000000000000000000010000000000000000000000004237d006471b38af0e1691c00d96193a8ff5709f000000000000000000000000000000000000000000000000000000006671f3c90000000000000000000000000000000000000000000000000000000000007a43000000000000000000000000000000000000000000000000000000003b9aca00000000000000000000000000000000000000000000000000000000000000000000000000000000000000000000000000000000000000000000000000000004ac00000000000000000000000000000000000000000000021e19e0c9bab240000000000000000000000000000000000000000000000000000000000000000000000000000000000000000000000000000000000000000000000000000000000000000000000000000000000000000000000000000000000000000000006671f3cf000000000000000000000000000000000000000000000000000000006671f3cf00000000000000000000000000000000000000000000000000000000000000010000000000000000000000004237d006471b38af0e1691c00d96193a8ff5709f000000000000000000000000000000000000000000000000000000006671f3d80000000000000000000000000000000000000000000000000000000000007a43000000000000000000000000000000000000000000000000000000003b9aca00000000000000000000000000000000000000000000000000000000000000000000000000000000000000000000000000000000000000000000000000000004ad00000000000000000000000000000000000000000000021e19e0c9bab240000000000000000000000000000000000000000000000000000000000000000000000000000000000000000000000000000000000000000000000000000000000000000000000000000000000000000000000000000000000000000000006671f3e7000000000000000000000000000000000000000000000000000000006671f3e700000000000000000000000000000000000000000000000000000000000000010000000000000000000000004237d006471b38af0e1691c00d96193a8ff5709f000000000000000000000000000000000000000000000000000000006671f3f00000000000000000000000000000000000000000000000000000000000007a43000000000000000000000000000000000000000000000000000000003b9aca00000000000000000000000000000000000000000000000000000000000000000000000000000000000000000000000000000000000000000000000000000004ae00000000000000000000000000000000000000000000021e19e0c9bab240000000000000000000000000000000000000000000000000000000000000000000000000000000000000000000000000000000000000000000000000000000000000000000000000000000000000000000000000000000000000000000006671f3f6000000000000000000000000000000000000000000000000000000006671f3f600000000000000000000000000000000000000000000000000000000000000010000000000000000000000004237d006471b38af0e1691c00d96193a8ff5709f000000000000000000000000000000000000000000000000000000006671f3ff0000000000000000000000000000000000000000000000000000000000007a43000000000000000000000000000000000000000000000000000000003b9aca00000000000000000000000000000000000000000000000000000000000000000000000000000000000000000000000000000000000000000000000000000004af00000000000000000000000000000000000000000000021e19e0c9bab240000000000000000000000000000000000000000000000000000000000000000000000000000000000000000000000000000000000000000000000000000000000000000000000000000000000000000000000000000000000000000000006671f405000000000000000000000000000000000000000000000000000000006671f40500000000000000000000000000000000000000000000000000000000000000010000000000000000000000004237d006471b38af0e1691c00d96193a8ff5709f000000000000000000000000000000000000000000000000000000006671f40e0000000000000000000000000000000000000000000000000000000000007a43000000000000000000000000000000000000000000000000000000003b9aca00000000000000000000000000000000000000000000000000000000000000000000000000000000000000000000000000000000000000000000000000000004b000000000000000000000000000000000000000000000021e19e0c9bab240000000000000000000000000000000000000000000000000000000000000000000000000000000000000000000000000000000000000000000000000000000000000000000000000000000000000000000000000000000000000000000006671f417000000000000000000000000000000000000000000000000000000006671f41700000000000000000000000000000000000000000000000000000000000000010000000000000000000000004237d006471b38af0e1691c00d96193a8ff5709f000000000000000000000000000000000000000000000000000000006671f4200000000000000000000000000000000000000000000000000000000000007a43000000000000000000000000000000000000000000000000000000003b9aca00000000000000000000000000000000000000000000000000000000000000000000000000000000000000000000000000000000000000000000000000000004b100000000000000000000000000000000000000000000021e19e0c9bab240000000000000000000000000000000000000000000000000000000000000000000000000000000000000000000000000000000000000000000000000000000000000000000000000000000000000000000000000000000000000000000006671f429000000000000000000000000000000000000000000000000000000006671f42900000000000000000000000000000000000000000000000000000000000000010000000000000000000000004237d006471b38af0e1691c00d96193a8ff5709f000000000000000000000000000000000000000000000000000000006671f4470000000000000000000000000000000000000000000000000000000000007a43000000000000000000000000000000000000000000000000000000003b9aca00000000000000000000000000000000000000000000000000000000000000000000000000000000000000000000000000000000000000000000000000000004b200000000000000000000000000000000000000000000021e19e0c9bab240000000000000000000000000000000000000000000000000000000000000000000000000000000000000000000000000000000000000000000000000000000000000000000000000000000000000000000000000000000000000000000006671f453000000000000000000000000000000000000000000000000000000006671f45300000000000000000000000000000000000000000000000000000000000000010000000000000000000000004237d006471b38af0e1691c00d96193a8ff5709f000000000000000000000000000000000000000000000000000000006671f45c0000000000000000000000000000000000000000000000000000000000007a43000000000000000000000000000000000000000000000000000000003b9aca00000000000000000000000000000000000000000000000000000000000000000000000000000000000000000000000000000000000000000000000000000004b300000000000000000000000000000000000000000000021e19e0c9bab240000000000000000000000000000000000000000000000000000000000000000000000000000000000000000000000000000000000000000000000000000000000000000000000000000000000000000000000000000000000000000000006671f462000000000000000000000000000000000000000000000000000000006671f46200000000000000000000000000000000000000000000000000000000000000010000000000000000000000004237d006471b38af0e1691c00d96193a8ff5709f000000000000000000000000000000000000000000000000000000006671f46b0000000000000000000000000000000000000000000000000000000000007a43000000000000000000000000000000000000000000000000000000003b9aca00000000000000000000000000000000000000000000000000000000000000000000000000000000000000000000000000000000000000000000000000000004b400000000000000000000000000000000000000000000021e19e0c9bab240000000000000000000000000000000000000000000000000000000000000000000000000000000000000000000000000000000000000000000000000000000000000000000000000000000000000000000000000000000000000000000006671f471000000000000000000000000000000000000000000000000000000006671f47100000000000000000000000000000000000000000000000000000000000000010000000000000000000000004237d006471b38af0e1691c00d96193a8ff5709f000000000000000000000000000000000000000000000000000000006671f47a0000000000000000000000000000000000000000000000000000000000007a43000000000000000000000000000000000000000000000000000000003b9aca00000000000000000000000000000000000000000000000000000000000000000000000000000000000000000000000000000000000000000000000000000004b500000000000000000000000000000000000000000000021e19e0c9bab240000000000000000000000000000000000000000000000000000000000000000000000000000000000000000000000000000000000000000000000000000000000000000000000000000000000000000000000000000000000000000000006671f483000000000000000000000000000000000000000000000000000000006671f48300000000000000000000000000000000000000000000000000000000000000010000000000000000000000004237d006471b38af0e1691c00d96193a8ff5709f000000000000000000000000000000000000000000000000000000006671f48c0000000000000000000000000000000000000000000000000000000000007a43000000000000000000000000000000000000000000000000000000003b9aca00000000000000000000000000000000000000000000000000000000000000000000000000000000000000000000000000000000000000000000000000000004b600000000000000000000000000000000000000000000021e19e0c9bab240000000000000000000000000000000000000000000000000000000000000000000000000000000000000000000000000000000000000000000000000000000000000000000000000000000000000000000000000000000000000000000006671f495000000000000000000000000000000000000000000000000000000006671f49500000000000000000000000000000000000000000000000000000000000000010000000000000000000000004237d006471b38af0e1691c00d96193a8ff5709f000000000000000000000000000000000000000000000000000000006671f49e0000000000000000000000000000000000000000000000000000000000007a43000000000000000000000000000000000000000000000000000000003b9aca00000000000000000000000000000000000000000000000000000000000000000000000000000000000000000000000000000000000000000000000000000004b700000000000000000000000000000000000000000000021e19e0c9bab240000000000000000000000000000000000000000000000000000000000000000000000000000000000000000000000000000000000000000000000000000000000000000000000000000000000000000000000000000000000000000000006671f4a4000000000000000000000000000000000000000000000000000000006671f4a400000000000000000000000000000000000000000000000000000000000000010000000000000000000000004237d006471b38af0e1691c00d96193a8ff5709f000000000000000000000000000000000000000000000000000000006671f4ad0000000000000000000000000000000000000000000000000000000000007a43000000000000000000000000000000000000000000000000000000003b9aca00000000000000000000000000000000000000000000000000000000000000000000000000000000000000000000000000000000000000000000000000000004b800000000000000000000000000000000000000000000021e19e0c9bab240000000000000000000000000000000000000000000000000000000000000000000000000000000000000000000000000000000000000000000000000000000000000000000000000000000000000000000000000000000000000000000006671f4b6000000000000000000000000000000000000000000000000000000006671f4b600000000000000000000000000000000000000000000000000000000000000010000000000000000000000004237d006471b38af0e1691c00d96193a8ff5709f000000000000000000000000000000000000000000000000000000006671f4bf0000000000000000000000000000000000000000000000000000000000007a43000000000000000000000000000000000000000000000000000000003b9aca00000000000000000000000000000000000000000000000000000000000000000000000000000000000000000000000000000000000000000000000000000004b900000000000000000000000000000000000000000000021e19e0c9bab240000000000000000000000000000000000000000000000000000000000000000000000000000000000000000000000000000000000000000000000000000000000000000000000000000000000000000000000000000000000000000000006671f4c8000000000000000000000000000000000000000000000000000000006671f4c800000000000000000000000000000000000000000000000000000000000000010000000000000000000000004237d006471b38af0e1691c00d96193a8ff5709f000000000000000000000000000000000000000000000000000000006671f4d10000000000000000000000000000000000000000000000000000000000007a43000000000000000000000000000000000000000000000000000000003b9aca00000000000000000000000000000000000000000000000000000000000000000000000000000000000000000000000000000000000000000000000000000004ba00000000000000000000000000000000000000000000021e19e0c9bab240000000000000000000000000000000000000000000000000000000000000000000000000000000000000000000000000000000000000000000000000000000000000000000000000000000000000000000000000000000000000000000006671f4e3000000000000000000000000000000000000000000000000000000006671f4e300000000000000000000000000000000000000000000000000000000000000010000000000000000000000004237d006471b38af0e1691c00d96193a8ff5709f000000000000000000000000000000000000000000000000000000006671f4ec0000000000000000000000000000000000000000000000000000000000007a43000000000000000000000000000000000000000000000000000000003b9aca00000000000000000000000000000000000000000000000000000000000000000000000000000000000000000000000000000000000000000000000000000004bb00000000000000000000000000000000000000000000021e19e0c9bab240000000000000000000000000000000000000000000000000000000000000000000000000000000000000000000000000000000000000000000000000000000000000000000000000000000000000000000000000000000000000000000006671f4f5000000000000000000000000000000000000000000000000000000006671f4f500000000000000000000000000000000000000000000000000000000000000010000000000000000000000004237d006471b38af0e1691c00d96193a8ff5709f000000000000000000000000000000000000000000000000000000006671f4fe0000000000000000000000000000000000000000000000000000000000007a43000000000000000000000000000000000000000000000000000000003b9aca00000000000000000000000000000000000000000000000000000000000000000000000000000000000000000000000000000000000000000000000000000004bc00000000000000000000000000000000000000000000021e19e0c9bab240000000000000000000000000000000000000000000000000000000000000000000000000000000000000000000000000000000000000000000000000000000000000000000000000000000000000000000000000000000000000000000006671f507000000000000000000000000000000000000000000000000000000006671f50700000000000000000000000000000000000000000000000000000000000000010000000000000000000000004237d006471b38af0e1691c00d96193a8ff5709f000000000000000000000000000000000000000000000000000000006671f5100000000000000000000000000000000000000000000000000000000000007a43000000000000000000000000000000000000000000000000000000003b9aca00000000000000000000000000000000000000000000000000000000000000000000000000000000000000000000000000000000000000000000000000000004bd00000000000000000000000000000000000000000000021e19e0c9bab240000000000000000000000000000000000000000000000000000000000000000000000000000000000000000000000000000000000000000000000000000000000000000000000000000000000000000000000000000000000000000000006671f516000000000000000000000000000000000000000000000000000000006671f51600000000000000000000000000000000000000000000000000000000000000010000000000000000000000004237d006471b38af0e1691c00d96193a8ff5709f000000000000000000000000000000000000000000000000000000006671f51f0000000000000000000000000000000000000000000000000000000000007a43000000000000000000000000000000000000000000000000000000003b9aca00000000000000000000000000000000000000000000000000000000000000000000000000000000000000000000000000000000000000000000000000000004be00000000000000000000000000000000000000000000021e19e0c9bab240000000000000000000000000000000000000000000000000000000000000000000000000000000000000000000000000000000000000000000000000000000000000000000000000000000000000000000000000000000000000000000006671f528000000000000000000000000000000000000000000000000000000006671f52800000000000000000000000000000000000000000000000000000000000000010000000000000000000000004237d006471b38af0e1691c00d96193a8ff5709f000000000000000000000000000000000000000000000000000000006671f5310000000000000000000000000000000000000000000000000000000000007a43000000000000000000000000000000000000000000000000000000003b9aca00000000000000000000000000000000000000000000000000000000000000000000000000000000000000000000000000000000000000000000000000000004bf00000000000000000000000000000000000000000000021e19e0c9bab240000000000000000000000000000000000000000000000000000000000000000000000000000000000000000000000000000000000000000000000000000000000000000000000000000000000000000000000000000000000000000000006671f53d000000000000000000000000000000000000000000000000000000006671f53d00000000000000000000000000000000000000000000000000000000000000000000000000000000000000004237d006471b38af0e1691c00d96193a8ff5709f00000000000000000000000000000000000000000000000000000000000000000000000000000000000000000000000000000000000000000000000000007a43000000000000000000000000000000000000000000000000000000003b9aca000000000000000000000000000000000000000000000000000000000000000000",
                    "revert": false,
                    "revertMessage": "",
                    "selector": "0xf9d9220a",
                    "status": true,
                    "value": "0"
                },
                "nodeType": 0
            },
            "10": {
                "event": {
                    "contract": "0x3213573c46eb905ba17f0bb650e10c2352552e8a",
                    "decodedLog": {
                        "name": "Transfer",
                        "params": [
                            {
                                "name": "from",
                                "type": "address",
                                "value": "0x1521d34ae3d85e2219bff49dd8fe2809e1ad07dd"
                            },
                            {
                                "name": "to",
                                "type": "address",
                                "value": "0x4237d006471b38af0e1691c00d96193a8ff5709f"
                            },
                            {
                                "decimalAvailable": true,
                                "name": "value",
                                "type": "uint256",
                                "value": "1,000,000,000,000,000,000,000"
                            }
                        ],
                        "signature": "Transfer(address,address,uint256)"
                    },
                    "id": 10,
                    "logData": "0x00000000000000000000000000000000000000000000003635c9adc5dea00000",
                    "logDecoded": true,
                    "operation": "EVENT",
                    "revert": false,
                    "status": true,
                    "topics": [
                        "0xddf252ad1be2c89b69c2b068fc378daa952ba7f163c4a11628f55a4df523b3ef",
                        "0x0000000000000000000000001521d34ae3d85e2219bff49dd8fe2809e1ad07dd",
                        "0x0000000000000000000000004237d006471b38af0e1691c00d96193a8ff5709f"
                    ]
                },
                "nodeType": 1
            },
            "11": {
                "invocation": {
                    "address": "0x3213573c46eb905ba17f0bb650e10c2352552e8a",
                    "callData": "0x0000000000000000000000004237d006471b38af0e1691c00d96193a8ff5709f",
                    "decodedMethod": {
                        "callParams": [
                            {
                                "name": "account",
                                "type": "address",
                                "value": "0x4237d006471b38af0e1691c00d96193a8ff5709f"
                            }
                        ],
                        "constructorArguments": "",
                        "name": "balanceOf",
                        "returnParams": [
                            {
                                "decimalAvailable": true,
                                "name": "",
                                "type": "uint256",
                                "value": "1,500,000,000,000,000,000,000"
                            }
                        ],
                        "signature": "balanceOf(address)"
                    },
                    "errorInfo": "",
                    "fromAddress": "0x4237d006471b38af0e1691c00d96193a8ff5709f",
                    "gasUsed": 626,
                    "id": 11,
                    "methodDecoded": true,
                    "operation": "STATICCALL",
                    "output": "0x00000000000000000000000000000000000000000000005150ae84a8cdf00000",
                    "revert": false,
                    "revertMessage": "",
                    "selector": "0x70a08231",
                    "status": true,
                    "value": "0"
                },
                "nodeType": 0
            },
            "12": {
                "invocation": {
                    "address": "0x80df77b2ae5828ff499a735ee823d6cd7cf95f5a",
                    "callData": "0x00000000000000000000000000000000000000000000005150ae84a8cdf00000",
                    "decodedMethod": {
                        "callParams": [
                            {
                                "name": "amount",
                                "type": "uint256",
                                "value": "1,500,000,000,000,000,000,000"
                            }
                        ],
                        "constructorArguments": "",
                        "name": "swapCommision",
                        "returnParams": [],
                        "signature": "swapCommision(uint256)"
                    },
                    "errorInfo": "",
                    "fromAddress": "0x4237d006471b38af0e1691c00d96193a8ff5709f",
                    "gasUsed": 19591,
                    "id": 12,
                    "methodDecoded": true,
                    "operation": "CALL",
                    "output": "",
                    "revert": false,
                    "revertMessage": "",
                    "selector": "0xc5da6274",
                    "status": true,
                    "value": "0"
                },
                "nodeType": 0
            },
            "13": {
                "invocation": {
                    "address": "0x3213573c46eb905ba17f0bb650e10c2352552e8a",
                    "callData": "0x0000000000000000000000004237d006471b38af0e1691c00d96193a8ff5709f00000000000000000000000080df77b2ae5828ff499a735ee823d6cd7cf95f5a00000000000000000000000000000000000000000000005150ae84a8cdf00000",
                    "decodedMethod": {
                        "callParams": [
                            {
                                "name": "from",
                                "type": "address",
                                "value": "0x4237d006471b38af0e1691c00d96193a8ff5709f"
                            },
                            {
                                "name": "to",
                                "type": "address",
                                "value": "0x80df77b2ae5828ff499a735ee823d6cd7cf95f5a"
                            },
                            {
                                "decimalAvailable": true,
                                "name": "amount",
                                "type": "uint256",
                                "value": "1,500,000,000,000,000,000,000"
                            }
                        ],
                        "constructorArguments": "",
                        "name": "transferFrom",
                        "returnParams": [
                            {
                                "name": "",
                                "type": "bool",
                                "value": true
                            }
                        ],
                        "signature": "transferFrom(address,address,uint256)"
                    },
                    "errorInfo": "",
                    "fromAddress": "0x80df77b2ae5828ff499a735ee823d6cd7cf95f5a",
                    "gasUsed": 10553,
                    "id": 13,
                    "methodDecoded": true,
                    "operation": "CALL",
                    "output": "0x0000000000000000000000000000000000000000000000000000000000000001",
                    "revert": false,
                    "revertMessage": "",
                    "selector": "0x23b872dd",
                    "status": true,
                    "value": "0"
                },
                "nodeType": 0
            },
            "14": {
                "event": {
                    "contract": "0x3213573c46eb905ba17f0bb650e10c2352552e8a",
                    "decodedLog": {
                        "name": "Transfer",
                        "params": [
                            {
                                "name": "from",
                                "type": "address",
                                "value": "0x4237d006471b38af0e1691c00d96193a8ff5709f"
                            },
                            {
                                "name": "to",
                                "type": "address",
                                "value": "0x80df77b2ae5828ff499a735ee823d6cd7cf95f5a"
                            },
                            {
                                "decimalAvailable": true,
                                "name": "value",
                                "type": "uint256",
                                "value": "1,500,000,000,000,000,000,000"
                            }
                        ],
                        "signature": "Transfer(address,address,uint256)"
                    },
                    "id": 14,
                    "logData": "0x00000000000000000000000000000000000000000000005150ae84a8cdf00000",
                    "logDecoded": true,
                    "operation": "EVENT",
                    "revert": false,
                    "status": true,
                    "topics": [
                        "0xddf252ad1be2c89b69c2b068fc378daa952ba7f163c4a11628f55a4df523b3ef",
                        "0x0000000000000000000000004237d006471b38af0e1691c00d96193a8ff5709f",
                        "0x00000000000000000000000080df77b2ae5828ff499a735ee823d6cd7cf95f5a"
                    ]
                },
                "nodeType": 1
            },
            "15": {
                "invocation": {
                    "address": "0x55d398326f99059ff775485246999027b3197955",
                    "callData": "0x0000000000000000000000004237d006471b38af0e1691c00d96193a8ff5709f00000000000000000000000000000000000000000000005150ae84a8cdf00000",
                    "decodedMethod": {
                        "callParams": [
                            {
                                "name": "recipient",
                                "type": "address",
                                "value": "0x4237d006471b38af0e1691c00d96193a8ff5709f"
                            },
                            {
                                "decimalAvailable": true,
                                "name": "amount",
                                "type": "uint256",
                                "value": "1,500,000,000,000,000,000,000"
                            }
                        ],
                        "constructorArguments": "",
                        "name": "transfer",
                        "returnParams": [
                            {
                                "name": "",
                                "type": "bool",
                                "value": true
                            }
                        ],
                        "signature": "transfer(address,uint256)"
                    },
                    "errorInfo": "",
                    "fromAddress": "0x80df77b2ae5828ff499a735ee823d6cd7cf95f5a",
                    "gasUsed": 3271,
                    "id": 15,
                    "methodDecoded": true,
                    "operation": "CALL",
                    "output": "0x0000000000000000000000000000000000000000000000000000000000000001",
                    "revert": false,
                    "revertMessage": "",
                    "selector": "0xa9059cbb",
                    "status": true,
                    "value": "0"
                },
                "nodeType": 0
            },
            "16": {
                "event": {
                    "contract": "0x55d398326f99059ff775485246999027b3197955",
                    "decodedLog": {
                        "name": "Transfer",
                        "params": [
                            {
                                "name": "from",
                                "type": "address",
                                "value": "0x80df77b2ae5828ff499a735ee823d6cd7cf95f5a"
                            },
                            {
                                "name": "to",
                                "type": "address",
                                "value": "0x4237d006471b38af0e1691c00d96193a8ff5709f"
                            },
                            {
                                "decimalAvailable": true,
                                "name": "value",
                                "type": "uint256",
                                "value": "1,500,000,000,000,000,000,000"
                            }
                        ],
                        "signature": "Transfer(address,address,uint256)"
                    },
                    "id": 16,
                    "logData": "0x00000000000000000000000000000000000000000000005150ae84a8cdf00000",
                    "logDecoded": true,
                    "operation": "EVENT",
                    "revert": false,
                    "status": true,
                    "topics": [
                        "0xddf252ad1be2c89b69c2b068fc378daa952ba7f163c4a11628f55a4df523b3ef",
                        "0x00000000000000000000000080df77b2ae5828ff499a735ee823d6cd7cf95f5a",
                        "0x0000000000000000000000004237d006471b38af0e1691c00d96193a8ff5709f"
                    ]
                },
                "nodeType": 1
            },
            "17": {
                "invocation": {
                    "address": "0x55d398326f99059ff775485246999027b3197955",
                    "callData": "0x0000000000000000000000004237d006471b38af0e1691c00d96193a8ff5709f",
                    "decodedMethod": {
                        "callParams": [
                            {
                                "name": "account",
                                "type": "address",
                                "value": "0x4237d006471b38af0e1691c00d96193a8ff5709f"
                            }
                        ],
                        "constructorArguments": "",
                        "name": "balanceOf",
                        "returnParams": [
                            {
                                "decimalAvailable": true,
                                "name": "",
                                "type": "uint256",
                                "value": "52,015,000,000,000,000,000,000"
                            }
                        ],
                        "signature": "balanceOf(address)"
                    },
                    "errorInfo": "",
                    "fromAddress": "0x4237d006471b38af0e1691c00d96193a8ff5709f",
                    "gasUsed": 531,
                    "id": 17,
                    "methodDecoded": true,
                    "operation": "STATICCALL",
                    "output": "0x000000000000000000000000000000000000000000000b03bd2200b8075c0000",
                    "revert": false,
                    "revertMessage": "",
                    "selector": "0x70a08231",
                    "status": true,
                    "value": "0"
                },
                "nodeType": 0
            },
            "18": {
                "invocation": {
                    "address": "0x000000000000000000636f6e736f6c652e6c6f67",
                    "callData": "0x000000000000000000000000000000000000000000000000000000000000cb2f",
                    "decodedMethod": {
                        "callParams": [
                            {
                                "name": "",
                                "type": "uint256",
                                "value": "52,015"
                            }
                        ],
                        "constructorArguments": "",
                        "name": "log",
                        "returnParams": [],
                        "signature": "log(uint256)"
                    },
                    "errorInfo": "",
                    "fromAddress": "0x4237d006471b38af0e1691c00d96193a8ff5709f",
                    "gasUsed": 0,
                    "id": 18,
                    "methodDecoded": true,
                    "operation": "STATICCALL",
                    "output": "",
                    "revert": false,
                    "revertMessage": "",
                    "selector": "0xf82c50f1",
                    "status": true,
                    "value": "0"
                },
                "nodeType": 0
            },
            "2": {
                "invocation": {
                    "address": "0x80df77b2ae5828ff499a735ee823d6cd7cf95f5a",
                    "callData": "0x00000000000000000000000000000000000000000000000000000000000004bf",
                    "decodedMethod": {
                        "callParams": [
                            {
                                "name": "id",
                                "type": "uint256",
                                "value": "1,215"
                            }
                        ],
                        "constructorArguments": "",
                        "name": "withdral",
                        "returnParams": [],
                        "signature": "withdral(uint256)"
                    },
                    "errorInfo": "",
                    "fromAddress": "0x4237d006471b38af0e1691c00d96193a8ff5709f",
                    "gasUsed": 163558,
                    "id": 2,
                    "methodDecoded": true,
                    "operation": "CALL",
                    "output": "",
                    "revert": false,
                    "revertMessage": "",
                    "selector": "0xc704b354",
                    "status": true,
                    "value": "0"
                },
                "nodeType": 0
            },
            "3": {
                "invocation": {
                    "address": "0x55d398326f99059ff775485246999027b3197955",
                    "callData": "0x0000000000000000000000004237d006471b38af0e1691c00d96193a8ff5709f00000000000000000000000000000000000000000000021e19e0c9bab2400000",
                    "decodedMethod": {
                        "callParams": [
                            {
                                "name": "recipient",
                                "type": "address",
                                "value": "0x4237d006471b38af0e1691c00d96193a8ff5709f"
                            },
                            {
                                "decimalAvailable": true,
                                "name": "amount",
                                "type": "uint256",
                                "value": "10,000,000,000,000,000,000,000"
                            }
                        ],
                        "constructorArguments": "",
                        "name": "transfer",
                        "returnParams": [
                            {
                                "name": "",
                                "type": "bool",
                                "value": true
                            }
                        ],
                        "signature": "transfer(address,uint256)"
                    },
                    "errorInfo": "",
                    "fromAddress": "0x80df77b2ae5828ff499a735ee823d6cd7cf95f5a",
                    "gasUsed": 12871,
                    "id": 3,
                    "methodDecoded": true,
                    "operation": "CALL",
                    "output": "0x0000000000000000000000000000000000000000000000000000000000000001",
                    "revert": false,
                    "revertMessage": "",
                    "selector": "0xa9059cbb",
                    "status": true,
                    "value": "0"
                },
                "nodeType": 0
            },
            "4": {
                "event": {
                    "contract": "0x55d398326f99059ff775485246999027b3197955",
                    "decodedLog": {
                        "name": "Transfer",
                        "params": [
                            {
                                "name": "from",
                                "type": "address",
                                "value": "0x80df77b2ae5828ff499a735ee823d6cd7cf95f5a"
                            },
                            {
                                "name": "to",
                                "type": "address",
                                "value": "0x4237d006471b38af0e1691c00d96193a8ff5709f"
                            },
                            {
                                "decimalAvailable": true,
                                "name": "value",
                                "type": "uint256",
                                "value": "10,000,000,000,000,000,000,000"
                            }
                        ],
                        "signature": "Transfer(address,address,uint256)"
                    },
                    "id": 4,
                    "logData": "0x00000000000000000000000000000000000000000000021e19e0c9bab2400000",
                    "logDecoded": true,
                    "operation": "EVENT",
                    "revert": false,
                    "status": true,
                    "topics": [
                        "0xddf252ad1be2c89b69c2b068fc378daa952ba7f163c4a11628f55a4df523b3ef",
                        "0x00000000000000000000000080df77b2ae5828ff499a735ee823d6cd7cf95f5a",
                        "0x0000000000000000000000004237d006471b38af0e1691c00d96193a8ff5709f"
                    ]
                },
                "nodeType": 1
            },
            "5": {
                "invocation": {
                    "address": "0x3213573c46eb905ba17f0bb650e10c2352552e8a",
                    "callData": "0x0000000000000000000000006976d28d21cba294377257eae04761fa5ce14eaf",
                    "decodedMethod": {
                        "callParams": [
                            {
                                "name": "account",
                                "type": "address",
                                "value": "0x6976d28d21cba294377257eae04761fa5ce14eaf"
                            }
                        ],
                        "constructorArguments": "",
                        "name": "balanceOf",
                        "returnParams": [
                            {
                                "decimalAvailable": true,
                                "name": "",
                                "type": "uint256",
                                "value": "500,000,000,000,000,000,000"
                            }
                        ],
                        "signature": "balanceOf(address)"
                    },
                    "errorInfo": "",
                    "fromAddress": "0x4237d006471b38af0e1691c00d96193a8ff5709f",
                    "gasUsed": 2626,
                    "id": 5,
                    "methodDecoded": true,
                    "operation": "STATICCALL",
                    "output": "0x00000000000000000000000000000000000000000000001b1ae4d6e2ef500000",
                    "revert": false,
                    "revertMessage": "",
                    "selector": "0x70a08231",
                    "status": true,
                    "value": "0"
                },
                "nodeType": 0
            },
            "6": {
                "invocation": {
                    "address": "0x3213573c46eb905ba17f0bb650e10c2352552e8a",
                    "callData": "0x0000000000000000000000006976d28d21cba294377257eae04761fa5ce14eaf0000000000000000000000004237d006471b38af0e1691c00d96193a8ff5709f00000000000000000000000000000000000000000000001b1ae4d6e2ef500000",
                    "decodedMethod": {
                        "callParams": [
                            {
                                "name": "from",
                                "type": "address",
                                "value": "0x6976d28d21cba294377257eae04761fa5ce14eaf"
                            },
                            {
                                "name": "to",
                                "type": "address",
                                "value": "0x4237d006471b38af0e1691c00d96193a8ff5709f"
                            },
                            {
                                "decimalAvailable": true,
                                "name": "amount",
                                "type": "uint256",
                                "value": "500,000,000,000,000,000,000"
                            }
                        ],
                        "constructorArguments": "",
                        "name": "transferFrom",
                        "returnParams": [
                            {
                                "name": "",
                                "type": "bool",
                                "value": true
                            }
                        ],
                        "signature": "transferFrom(address,address,uint256)"
                    },
                    "errorInfo": "",
                    "fromAddress": "0x4237d006471b38af0e1691c00d96193a8ff5709f",
                    "gasUsed": 30453,
                    "id": 6,
                    "methodDecoded": true,
                    "operation": "CALL",
                    "output": "0x0000000000000000000000000000000000000000000000000000000000000001",
                    "revert": false,
                    "revertMessage": "",
                    "selector": "0x23b872dd",
                    "status": true,
                    "value": "0"
                },
                "nodeType": 0
            },
            "7": {
                "event": {
                    "contract": "0x3213573c46eb905ba17f0bb650e10c2352552e8a",
                    "decodedLog": {
                        "name": "Transfer",
                        "params": [
                            {
                                "name": "from",
                                "type": "address",
                                "value": "0x6976d28d21cba294377257eae04761fa5ce14eaf"
                            },
                            {
                                "name": "to",
                                "type": "address",
                                "value": "0x4237d006471b38af0e1691c00d96193a8ff5709f"
                            },
                            {
                                "decimalAvailable": true,
                                "name": "value",
                                "type": "uint256",
                                "value": "500,000,000,000,000,000,000"
                            }
                        ],
                        "signature": "Transfer(address,address,uint256)"
                    },
                    "id": 7,
                    "logData": "0x00000000000000000000000000000000000000000000001b1ae4d6e2ef500000",
                    "logDecoded": true,
                    "operation": "EVENT",
                    "revert": false,
                    "status": true,
                    "topics": [
                        "0xddf252ad1be2c89b69c2b068fc378daa952ba7f163c4a11628f55a4df523b3ef",
                        "0x0000000000000000000000006976d28d21cba294377257eae04761fa5ce14eaf",
                        "0x0000000000000000000000004237d006471b38af0e1691c00d96193a8ff5709f"
                    ]
                },
                "nodeType": 1
            },
            "8": {
                "invocation": {
                    "address": "0x3213573c46eb905ba17f0bb650e10c2352552e8a",
                    "callData": "0x0000000000000000000000001521d34ae3d85e2219bff49dd8fe2809e1ad07dd",
                    "decodedMethod": {
                        "callParams": [
                            {
                                "name": "account",
                                "type": "address",
                                "value": "0x1521d34ae3d85e2219bff49dd8fe2809e1ad07dd"
                            }
                        ],
                        "constructorArguments": "",
                        "name": "balanceOf",
                        "returnParams": [
                            {
                                "decimalAvailable": true,
                                "name": "",
                                "type": "uint256",
                                "value": "1,000,000,000,000,000,000,000"
                            }
                        ],
                        "signature": "balanceOf(address)"
                    },
                    "errorInfo": "",
                    "fromAddress": "0x4237d006471b38af0e1691c00d96193a8ff5709f",
                    "gasUsed": 2626,
                    "id": 8,
                    "methodDecoded": true,
                    "operation": "STATICCALL",
                    "output": "0x00000000000000000000000000000000000000000000003635c9adc5dea00000",
                    "revert": false,
                    "revertMessage": "",
                    "selector": "0x70a08231",
                    "status": true,
                    "value": "0"
                },
                "nodeType": 0
            },
            "9": {
                "invocation": {
                    "address": "0x3213573c46eb905ba17f0bb650e10c2352552e8a",
                    "callData": "0x0000000000000000000000001521d34ae3d85e2219bff49dd8fe2809e1ad07dd0000000000000000000000004237d006471b38af0e1691c00d96193a8ff5709f00000000000000000000000000000000000000000000003635c9adc5dea00000",
                    "decodedMethod": {
                        "callParams": [
                            {
                                "name": "from",
                                "type": "address",
                                "value": "0x1521d34ae3d85e2219bff49dd8fe2809e1ad07dd"
                            },
                            {
                                "name": "to",
                                "type": "address",
                                "value": "0x4237d006471b38af0e1691c00d96193a8ff5709f"
                            },
                            {
                                "decimalAvailable": true,
                                "name": "amount",
                                "type": "uint256",
                                "value": "1,000,000,000,000,000,000,000"
                            }
                        ],
                        "constructorArguments": "",
                        "name": "transferFrom",
                        "returnParams": [
                            {
                                "name": "",
                                "type": "bool",
                                "value": true
                            }
                        ],
                        "signature": "transferFrom(address,address,uint256)"
                    },
                    "errorInfo": "",
                    "fromAddress": "0x4237d006471b38af0e1691c00d96193a8ff5709f",
                    "gasUsed": 8553,
                    "id": 9,
                    "methodDecoded": true,
                    "operation": "CALL",
                    "output": "0x0000000000000000000000000000000000000000000000000000000000000001",
                    "revert": false,
                    "revertMessage": "",
                    "selector": "0x23b872dd",
                    "status": true,
                    "value": "0"
                },
                "nodeType": 0
            }
        },
        "gasFlame": [
            {
                "children": [
                    {
                        "children": [
                            {
                                "children": [],
                                "depth": 0,
                                "name": "Initial Gas",
                                "value": 21204
                            },
                            {
                                "children": [
                                    {
                                        "children": [],
                                        "depth": 1,
                                        "name": "listMyoID",
                                        "value": 3956471
                                    },
                                    {
                                        "children": [
                                            {
                                                "children": [],
                                                "depth": 2,
                                                "name": "transfer",
                                                "value": 12871
                                            }
                                        ],
                                        "depth": 1,
                                        "name": "withdral",
                                        "value": 163558
                                    },
                                    {
                                        "children": [],
                                        "depth": 1,
                                        "name": "balanceOf",
                                        "value": 2626
                                    },
                                    {
                                        "children": [],
                                        "depth": 1,
                                        "name": "transferFrom",
                                        "value": 30453
                                    },
                                    {
                                        "children": [],
                                        "depth": 1,
                                        "name": "balanceOf",
                                        "value": 2626
                                    },
                                    {
                                        "children": [],
                                        "depth": 1,
                                        "name": "transferFrom",
                                        "value": 8553
                                    },
                                    {
                                        "children": [],
                                        "depth": 1,
                                        "name": "balanceOf",
                                        "value": 626
                                    },
                                    {
                                        "children": [
                                            {
                                                "children": [],
                                                "depth": 2,
                                                "name": "transferFrom",
                                                "value": 10553
                                            },
                                            {
                                                "children": [],
                                                "depth": 2,
                                                "name": "transfer",
                                                "value": 3271
                                            }
                                        ],
                                        "depth": 1,
                                        "name": "swapCommision",
                                        "value": 19591
                                    },
                                    {
                                        "children": [],
                                        "depth": 1,
                                        "name": "balanceOf",
                                        "value": 531
                                    },
                                    {
                                        "children": [],
                                        "depth": 1,
                                        "name": "log",
                                        "value": 0
                                    }
                                ],
                                "depth": 0,
                                "name": "Executed Gas",
                                "value": 4241209
                            }
                        ],
                        "depth": -1,
                        "name": "Actual Gas Used",
                        "value": 4232913
                    },
                    {
                        "children": [],
                        "depth": -1,
                        "name": "Refunded Gas",
                        "value": 29500
                    }
                ],
                "depth": -2,
                "name": "Total Gas",
                "value": 4262413
            }
        ],
        "isConfirmed": true,
        "mainTrace": [
            {
                "children": [
                    {
                        "children": [
                            {
                                "children": [],
                                "depth": 1,
                                "id": 1,
                                "order": 1
                            },
                            {
                                "children": [
                                    {
                                        "children": [
                                            {
                                                "children": [],
                                                "depth": 3,
                                                "id": 4,
                                                "order": 4
                                            }
                                        ],
                                        "depth": 2,
                                        "id": 3,
                                        "order": 3
                                    }
                                ],
                                "depth": 1,
                                "id": 2,
                                "order": 2
                            },
                            {
                                "children": [],
                                "depth": 1,
                                "id": 5,
                                "order": 5
                            },
                            {
                                "children": [
                                    {
                                        "children": [],
                                        "depth": 2,
                                        "id": 7,
                                        "order": 7
                                    }
                                ],
                                "depth": 1,
                                "id": 6,
                                "order": 6
                            },
                            {
                                "children": [],
                                "depth": 1,
                                "id": 8,
                                "order": 8
                            },
                            {
                                "children": [
                                    {
                                        "children": [],
                                        "depth": 2,
                                        "id": 10,
                                        "order": 10
                                    }
                                ],
                                "depth": 1,
                                "id": 9,
                                "order": 9
                            },
                            {
                                "children": [],
                                "depth": 1,
                                "id": 11,
                                "order": 11
                            },
                            {
                                "children": [
                                    {
                                        "children": [
                                            {
                                                "children": [],
                                                "depth": 3,
                                                "id": 14,
                                                "order": 14
                                            }
                                        ],
                                        "depth": 2,
                                        "id": 13,
                                        "order": 13
                                    },
                                    {
                                        "children": [
                                            {
                                                "children": [],
                                                "depth": 3,
                                                "id": 16,
                                                "order": 16
                                            }
                                        ],
                                        "depth": 2,
                                        "id": 15,
                                        "order": 15
                                    }
                                ],
                                "depth": 1,
                                "id": 12,
                                "order": 12
                            },
                            {
                                "children": [],
                                "depth": 1,
                                "id": 17,
                                "order": 17
                            },
                            {
                                "children": [],
                                "depth": 1,
                                "id": 18,
                                "order": 18
                            }
                        ],
                        "depth": 0,
                        "id": 0,
                        "order": 0
                    }
                ],
                "depth": -1,
                "id": -1,
                "order": -1
            }
        ],
        "mainTraceNodeCount": 19,
        "parentIdMap": {
            "0": -1,
            "1": 0,
            "10": 9,
            "11": 0,
            "12": 0,
            "13": 12,
            "14": 13,
            "15": 12,
            "16": 15,
            "17": 0,
            "18": 0,
            "2": 0,
            "3": 2,
            "4": 3,
            "5": 0,
            "6": 0,
            "7": 6,
            "8": 0,
            "9": 0
        },
        "tidyTrace": [
            {
                "children": [
                    {
                        "children": [
                            {
                                "children": [
                                    {
                                        "children": [
                                            {
                                                "children": [],
                                                "depth": 3,
                                                "id": 4,
                                                "order": 4
                                            }
                                        ],
                                        "depth": 2,
                                        "id": 3,
                                        "order": 3
                                    }
                                ],
                                "depth": 1,
                                "id": 2,
                                "order": 2
                            },
                            {
                                "children": [
                                    {
                                        "children": [],
                                        "depth": 2,
                                        "id": 7,
                                        "order": 7
                                    }
                                ],
                                "depth": 1,
                                "id": 6,
                                "order": 6
                            },
                            {
                                "children": [
                                    {
                                        "children": [],
                                        "depth": 2,
                                        "id": 10,
                                        "order": 10
                                    }
                                ],
                                "depth": 1,
                                "id": 9,
                                "order": 9
                            },
                            {
                                "children": [
                                    {
                                        "children": [
                                            {
                                                "children": [],
                                                "depth": 3,
                                                "id": 14,
                                                "order": 14
                                            }
                                        ],
                                        "depth": 2,
                                        "id": 13,
                                        "order": 13
                                    },
                                    {
                                        "children": [
                                            {
                                                "children": [],
                                                "depth": 3,
                                                "id": 16,
                                                "order": 16
                                            }
                                        ],
                                        "depth": 2,
                                        "id": 15,
                                        "order": 15
                                    }
                                ],
                                "depth": 1,
                                "id": 12,
                                "order": 12
                            }
                        ],
                        "depth": 0,
                        "id": 0,
                        "order": 0
                    }
                ],
                "depth": -1,
                "id": -1,
                "order": -1
            }
        ],
        "tidyTraceNodeCount": 13
    },
    "state_change": {
        "stateChanges": [
            {
                "address": "0x3213573c46eb905ba17f0bb650e10c2352552e8a",
                "erc": "ERC-20",
                "slots": [
                    {
                        "current": "0x0000000000000000000000000000000000000000000000000000000000000000",
                        "key": "0x6ba477c655520e2a68fb53fab6f11913b1dee94ad2f3947a5417a69508e8972e",
                        "prev": "0x00000000000000000000000000000000000000000000001b1ae4d6e2ef500000"
                    },
                    {
                        "current": "0x0000000000000000000000000000000000000000000000000000000000000000",
                        "key": "0x609ed3898f091675d791a23c5a1c56d26d22927b4c036dc58ca33b9158e406e4",
                        "prev": "0x00000000000000000000000000000000000000000000003635c9adc5dea00000"
                    },
                    {
                        "current": "0x00000000000000000000000000000000000000000000cf25dd2819716040c000",
                        "key": "0xcba459903d3efcf131a79e335265d1d32530516173e315e1718c86ff3d0cff4f",
                        "prev": "0x00000000000000000000000000000000000000000000ced48c7994c89250c000"
                    }
                ],
                "storageVariables": [
                    {
                        "name": "_balances",
                        "type": "mapping(address => uint256)",
                        "value": {
                            "pairs": [
                                {
                                    "key": "0x1521d34ae3d85e2219bff49dd8fe2809e1ad07dd",
                                    "value": {
                                        "current": "0",
                                        "prev": "1000000000000000000000",
                                        "typeTag": 1
                                    }
                                },
                                {
                                    "key": "0x6976d28d21cba294377257eae04761fa5ce14eaf",
                                    "value": {
                                        "current": "0",
                                        "prev": "500000000000000000000",
                                        "typeTag": 1
                                    }
                                },
                                {
                                    "key": "0x80df77b2ae5828ff499a735ee823d6cd7cf95f5a",
                                    "value": {
                                        "current": "978228327500000000000000",
                                        "prev": "976728327500000000000000",
                                        "typeTag": 1
                                    }
                                }
                            ],
                            "typeTag": 4
                        }
                    }
                ]
            },
            {
                "address": "0x55d398326f99059ff775485246999027b3197955",
                "erc": "ERC-20",
                "slots": [
                    {
                        "current": "0x0000000000000000000000000000000000000000000003b634e5021b4d765000",
                        "key": "0x00d9a47528e8c706598b57841d521375e83a093fa7912d0877cf64baf1f2f3af",
                        "prev": "0x0000000000000000000000000000000000000000000006259f74507ecda65000"
                    },
                    {
                        "current": "0x000000000000000000000000000000000000000000000b03bd2200b8075c0000",
                        "key": "0xa7e9275019ef385b0592c32229c3bbe58c572062504124de654fffce593b27db",
                        "prev": "0x0000000000000000000000000000000000000000000008945292b254872c0000"
                    }
                ],
                "storageVariables": [
                    {
                        "name": "_balances",
                        "type": "mapping(address => uint256)",
                        "value": {
                            "pairs": [
                                {
                                    "key": "0x4237d006471b38af0e1691c00d96193a8ff5709f",
                                    "value": {
                                        "current": "52015000000000000000000",
                                        "prev": "40515000000000000000000",
                                        "typeTag": 1
                                    }
                                },
                                {
                                    "key": "0x80df77b2ae5828ff499a735ee823d6cd7cf95f5a",
                                    "value": {
                                        "current": "17528218325000000000000",
                                        "prev": "29028218325000000000000",
                                        "typeTag": 1
                                    }
                                }
                            ],
                            "typeTag": 4
                        }
                    }
                ]
            },
            {
                "address": "0x80df77b2ae5828ff499a735ee823d6cd7cf95f5a",
                "erc": "",
                "slots": [
                    {
                        "current": "0x00000000000000000000004237d006471b38af0e1691c00d96193a8ff5709f01",
                        "key": "0xecd8bf00fd001e320ff67199bbdd9b9830df78164f3b17b92f0c8ac6c1fb7a9d",
                        "prev": "0x00000000000000000000004237d006471b38af0e1691c00d96193a8ff5709f00"
                    },
                    {
                        "current": "0x00000000000000000000000000000000000000000000021e19e0c9bab2400000",
                        "key": "0x22440aad85873fa25f9e8313e0f261a71c9ff7200cebfe275a7071f672cb74a0",
                        "prev": "0x0000000000000000000000000000000000000000000000000000000000000000"
                    },
                    {
                        "current": "0x000000000000000000000000000000000000000000003b50405d6e98e2100000",
                        "key": "0x0000000000000000000000000000000000000000000000000000000000000008",
                        "prev": "0x000000000000000000000000000000000000000000003932267ca4de2fd00000"
                    },
                    {
                        "current": "0x000000000000000000000000000000000000000000000000000000000000001d",
                        "key": "0x22440aad85873fa25f9e8313e0f261a71c9ff7200cebfe275a7071f672cb749d",
                        "prev": "0x0000000000000000000000000000000000000000000000000000000000000000"
                    },
                    {
                        "current": "0x0000000000000000000000004237d006471b38af0e1691c00d96193a8ff5709f",
                        "key": "0x22440aad85873fa25f9e8313e0f261a71c9ff7200cebfe275a7071f672cb749f",
                        "prev": "0x0000000000000000000000000000000000000000000000000000000000000000"
                    },
                    {
                        "current": "0x000000000000000000000000000000000000000000000000000000006671f546",
                        "key": "0xecd8bf00fd001e320ff67199bbdd9b9830df78164f3b17b92f0c8ac6c1fb7a9e",
                        "prev": "0x0000000000000000000000000000000000000000000000000000000000000000"
                    },
                    {
                        "current": "0x00000000000000000000000000000000000000000000000000000000000004bf",
                        "key": "0x22440aad85873fa25f9e8313e0f261a71c9ff7200cebfe275a7071f672cb749e",
                        "prev": "0x0000000000000000000000000000000000000000000000000000000000000000"
                    },
                    {
                        "current": "0x000000000000000000000000000000000000000000000000000000006671f546",
                        "key": "0x22440aad85873fa25f9e8313e0f261a71c9ff7200cebfe275a7071f672cb74a1",
                        "prev": "0x0000000000000000000000000000000000000000000000000000000000000000"
                    },
                    {
                        "current": "0x000000000000000000000000000000000000000000000000000000000000001d",
                        "key": "0x000000000000000000000000000000000000000000000000000000000000000c",
                        "prev": "0x000000000000000000000000000000000000000000000000000000000000001c"
                    }
                ],
                "storageVariables": [
                    {
                        "name": "WId",
                        "type": "struct Counters.Counter",
                        "value": {
                            "fields": [
                                {
                                    "name": "_value",
                                    "type": "uint256",
                                    "value": {
                                        "current": "29",
                                        "prev": "28",
                                        "typeTag": 1
                                    }
                                }
                            ],
                            "typeTag": 3
                        }
                    },
                    {
                        "name": "totalwithdral",
                        "type": "uint256",
                        "value": {
                            "current": "280100000000000000000000",
                            "prev": "270100000000000000000000",
                            "typeTag": 1
                        }
                    },
                    {
                        "name": "OrdereMap",
                        "type": "mapping(uint256 => struct INcufi.order)",
                        "value": {
                            "pairs": [
                                {
                                    "key": "1215",
                                    "value": {
                                        "fields": [
                                            {
                                                "name": "complet",
                                                "type": "bool",
                                                "value": {
                                                    "current": "true",
                                                    "prev": "false",
                                                    "typeTag": 1
                                                }
                                            },
                                            {
                                                "name": "USer",
                                                "type": "address",
                                                "value": {
                                                    "current": "0x4237d006471b38af0e1691c00d96193a8ff5709f",
                                                    "prev": "0x4237d006471b38af0e1691c00d96193a8ff5709f",
                                                    "typeTag": 1
                                                }
                                            },
                                            {
                                                "name": "withdraltime",
                                                "type": "uint256",
                                                "value": {
                                                    "current": "1718744390",
                                                    "prev": "0",
                                                    "typeTag": 1
                                                }
                                            }
                                        ],
                                        "typeTag": 3
                                    }
                                }
                            ],
                            "typeTag": 4
                        }
                    },
                    {
                        "name": "WithdrawMap",
                        "type": "mapping(uint256 => struct INcufi.Withdraw)",
                        "value": {
                            "pairs": [
                                {
                                    "key": "29",
                                    "value": {
                                        "fields": [
                                            {
                                                "name": "id",
                                                "type": "uint256",
                                                "value": {
                                                    "current": "29",
                                                    "prev": "0",
                                                    "typeTag": 1
                                                }
                                            },
                                            {
                                                "name": "orderid",
                                                "type": "uint256",
                                                "value": {
                                                    "current": "1215",
                                                    "prev": "0",
                                                    "typeTag": 1
                                                }
                                            },
                                            {
                                                "name": "USer",
                                                "type": "address",
                                                "value": {
                                                    "current": "0x4237d006471b38af0e1691c00d96193a8ff5709f",
                                                    "prev": "0x0000000000000000000000000000000000000000",
                                                    "typeTag": 1
                                                }
                                            },
                                            {
                                                "name": "amount",
                                                "type": "uint256",
                                                "value": {
                                                    "current": "10000000000000000000000",
                                                    "prev": "0",
                                                    "typeTag": 1
                                                }
                                            },
                                            {
                                                "name": "withdraltime",
                                                "type": "uint256",
                                                "value": {
                                                    "current": "1718744390",
                                                    "prev": "0",
                                                    "typeTag": 1
                                                }
                                            }
                                        ],
                                        "typeTag": 3
                                    }
                                }
                            ],
                            "typeTag": 4
                        }
                    }
                ]
            }
        ]
    }
}