{
    "balance_change": {
        "balanceChanges": [
            {
                "account": "0x05324c970713450ba0bc12efd840034fcb0a4baa",
                "assets": [
                    {
                        "address": "0xeeeeeeeeeeeeeeeeeeeeeeeeeeeeeeeeeeeeeeee",
                        "amount": "0.3",
                        "iconUrl": "https://assets.blocksec.com/image/1663669189317-3.png",
                        "isERC1155": false,
                        "isERC721": false,
                        "sign": false,
                        "value": "671.3309999999999946"
                    },
                    {
                        "address": "0xbd3531da5cf5857e7cfaa92426877b022e612cf8",
                        "amount": "1",
                        "iconUrl": "https://assets.blocksec.com/nft/icon/nft_99cc3bfb-e114-4c2c-a0ba-8295bd540bc4.png",
                        "isERC1155": false,
                        "isERC721": true,
                        "sign": true,
                        "tokenID": "3324",
                        "value": ""
                    }
                ]
            },
            {
                "account": "0x1d5586da44328f28bfbbf59b808a87584355b3ef",
                "assets": [
                    {
                        "address": "0xc02aaa39b223fe8d0a0e5c4f27ead9083c756cc2",
                        "amount": "0.299996269054622144",
                        "iconUrl": "https://assets.blocksec.com/icon/f1cb2d02c471d545bbc7722daf3277fd852d98e63d118771af7047bd8256c516.png",
                        "isERC1155": false,
                        "isERC721": false,
                        "sign": true,
                        "value": "668.47268654745699457"
                    }
                ]
            },
            {
                "account": "0x19c56cb20e6e9598fc4d22318436f34981e481f9",
                "assets": [
                    {
                        "address": "0xc02aaa39b223fe8d0a0e5c4f27ead9083c756cc2",
                        "amount": "0.000003730945377856",
                        "iconUrl": "https://assets.blocksec.com/icon/f1cb2d02c471d545bbc7722daf3277fd852d98e63d118771af7047bd8256c516.png",
                        "isERC1155": false,
                        "isERC721": false,
                        "sign": true,
                        "value": "0.008313553657436059932"
                    }
                ]
            },
            {
                "account": "0xc02aaa39b223fe8d0a0e5c4f27ead9083c756cc2",
                "assets": [
                    {
                        "address": "0xeeeeeeeeeeeeeeeeeeeeeeeeeeeeeeeeeeeeeeee",
                        "amount": "0.3",
                        "iconUrl": "https://assets.blocksec.com/image/1663669189317-3.png",
                        "isERC1155": false,
                        "isERC721": false,
                        "sign": true,
                        "value": "671.3309999999999946"
                    },
                    {
                        "address": "0xc02aaa39b223fe8d0a0e5c4f27ead9083c756cc2",
                        "amount": "0.3",
                        "iconUrl": "https://assets.blocksec.com/icon/f1cb2d02c471d545bbc7722daf3277fd852d98e63d118771af7047bd8256c516.png",
                        "isERC1155": false,
                        "isERC721": false,
                        "sign": false,
                        "value": "668.48099999999999454"
                    }
                ]
            },
            {
                "account": "0xc3f4659588b13f23e09ec54783a3c407e39ad589",
                "assets": [
                    {
                        "address": "0xbd3531da5cf5857e7cfaa92426877b022e612cf8",
                        "amount": "1",
                        "iconUrl": "https://assets.blocksec.com/nft/icon/nft_99cc3bfb-e114-4c2c-a0ba-8295bd540bc4.png",
                        "isERC1155": false,
                        "isERC721": true,
                        "sign": false,
                        "tokenID": "3324",
                        "value": ""
                    }
                ]
            }
        ]
    },
    "profile": {
        "basic_info": {
            "baseFee": "65.144732338",
            "blockNumber": 18835345,
            "callData": "0x901f6c5a0000000000000000000000002405913d54fc46eeaf3fb092bfb099f46803872f000000000000000000000000c3f4659588b13f23e09ec54783a3c407e39ad5890000000000000000000000000000000000000000000000000000000000000cfc000000000000000000000000c490e4646a91c3cbafa8c55540c94dcd0212037e",
            "debugEnable": true,
            "errorInfo": "",
            "eventCount": 12,
            "feeRecipient": "0xdafea492d9c6733ae3d56b7ed1adb60692c98bc5",
            "formatValue": "0.3",
            "gasLimit": 438344,
            "gasPrice": "67.144732338",
            "gasUsed": 337631,
            "intTxnCount": 32,
            "internalRevert": false,
            "internalRevertMessage": "",
            "isContractCreation": false,
            "isFlashloan": true,
            "maxFee": "80",
            "nonce": 9,
            "overwritedBlockNumber": -1,
            "priorityFee": "2",
            "receiver": "0x1d5586da44328f28bfbbf59b808a87584355b3ef",
            "revertMessage": "",
            "sender": "0x05324c970713450ba0bc12efd840034fcb0a4baa",
            "simulationEnable": true,
            "sourceTxnHash": "0x88db033171344c7b89d50f48e1e50ef3a622371cf3ab997613469904838c83ad",
            "status": true,
            "timestamp": "2023-12-21T16:10:47Z",
            "transactionFee": "0.022670143124011278",
            "txnHash": "0x88db033171344c7b89d50f48e1e50ef3a622371cf3ab997613469904838c83ad",
            "txnIndex": 49,
            "type": 2,
            "value": "300000000000000000"
        },
        "fund_flow": [
            {
                "amount": "0.3",
                "from": "0x05324c970713450ba0bc12efd840034fcb0a4baa",
                "id": 1,
                "isERC1155": false,
                "isERC721": false,
                "isReverted": false,
                "order": 1,
                "to": "0x1d5586da44328f28bfbbf59b808a87584355b3ef",
                "token": "0xeeeeeeeeeeeeeeeeeeeeeeeeeeeeeeeeeeeeeeee"
            },
            {
                "amount": "7.349504076428393992",
                "from": "0xc490e4646a91c3cbafa8c55540c94dcd0212037e",
                "id": 2,
                "isERC1155": false,
                "isERC721": false,
                "isReverted": false,
                "order": 2,
                "to": "0x1d5586da44328f28bfbbf59b808a87584355b3ef",
                "token": "0xc02aaa39b223fe8d0a0e5c4f27ead9083c756cc2"
            },
            {
                "amount": "7.349504076428393992",
                "from": "0x1d5586da44328f28bfbbf59b808a87584355b3ef",
                "id": 3,
                "isERC1155": false,
                "isERC721": false,
                "isReverted": false,
                "order": 3,
                "to": "0xc3f4659588b13f23e09ec54783a3c407e39ad589",
                "token": "0xc02aaa39b223fe8d0a0e5c4f27ead9083c756cc2"
            },
            {
                "amount": "3.091093926957833992",
                "from": "0xc3f4659588b13f23e09ec54783a3c407e39ad589",
                "id": 4,
                "isERC1155": false,
                "isERC721": false,
                "isReverted": false,
                "order": 4,
                "to": "0x1d5586da44328f28bfbbf59b808a87584355b3ef",
                "token": "0xc02aaa39b223fe8d0a0e5c4f27ead9083c756cc2"
            },
            {
                "amount": "1",
                "from": "0xc3f4659588b13f23e09ec54783a3c407e39ad589",
                "id": 5,
                "isERC1155": false,
                "isERC721": true,
                "isReverted": false,
                "order": 5,
                "to": "0x05324c970713450ba0bc12efd840034fcb0a4baa",
                "token": "0xbd3531da5cf5857e7cfaa92426877b022e612cf8",
                "tokenID": "3324"
            },
            {
                "amount": "4.258406418525182144",
                "from": "0xc3f4659588b13f23e09ec54783a3c407e39ad589",
                "id": 6,
                "isERC1155": false,
                "isERC721": false,
                "isReverted": false,
                "order": 6,
                "to": "0xc490e4646a91c3cbafa8c55540c94dcd0212037e",
                "token": "0xc02aaa39b223fe8d0a0e5c4f27ead9083c756cc2"
            },
            {
                "amount": "0.000003730945377856",
                "from": "0xc3f4659588b13f23e09ec54783a3c407e39ad589",
                "id": 7,
                "isERC1155": false,
                "isERC721": false,
                "isReverted": false,
                "order": 7,
                "to": "0x19c56cb20e6e9598fc4d22318436f34981e481f9",
                "token": "0xc02aaa39b223fe8d0a0e5c4f27ead9083c756cc2"
            },
            {
                "amount": "0.3",
                "from": "0x1d5586da44328f28bfbbf59b808a87584355b3ef",
                "id": 8,
                "isERC1155": false,
                "isERC721": false,
                "isReverted": false,
                "order": 8,
                "to": "0xc02aaa39b223fe8d0a0e5c4f27ead9083c756cc2",
                "token": "0xeeeeeeeeeeeeeeeeeeeeeeeeeeeeeeeeeeeeeeee"
            },
            {
                "amount": "0.3",
                "from": "0xc02aaa39b223fe8d0a0e5c4f27ead9083c756cc2",
                "id": 9,
                "isERC1155": false,
                "isERC721": false,
                "isReverted": false,
                "order": 9,
                "to": "0x1d5586da44328f28bfbbf59b808a87584355b3ef",
                "token": "0xc02aaa39b223fe8d0a0e5c4f27ead9083c756cc2"
            },
            {
                "amount": "3.091097657903211848",
                "from": "0x1d5586da44328f28bfbbf59b808a87584355b3ef",
                "id": 10,
                "isERC1155": false,
                "isERC721": false,
                "isReverted": false,
                "order": 10,
                "to": "0xc490e4646a91c3cbafa8c55540c94dcd0212037e",
                "token": "0xc02aaa39b223fe8d0a0e5c4f27ead9083c756cc2"
            }
        ],
        "token_infos": [
            {
                "address": "0xc02aaa39b223fe8d0a0e5c4f27ead9083c756cc2",
                "decimals": 18
            },
            {
                "address": "0xeeeeeeeeeeeeeeeeeeeeeeeeeeeeeeeeeeeeeeee",
                "decimals": 18
            }
        ]
    },
    "address_label": {
        "labels": [
            {
                "address": "0x0000000000000000000000000000000000000000",
                "label": "Null Address"
            },
            {
                "address": "0x0000000000000000000000000000000000000002",
                "label": "Precompiled"
            },
            {
                "address": "0x0000000000000000000000000000000000000004",
                "label": "Precompiled"
            },
            {
                "address": "0x05324c970713450ba0bc12efd840034fcb0a4baa",
                "label": "Pine Protocol Exploiter"
            },
            {
                "address": "0xc490e4646a91c3cbafa8c55540c94dcd0212037e",
                "label": "GnosisSafeProxy_c490_037e"
            },
            {
                "address": "0x1a4c2ac5d97f4f4dda2b880342b298ea58f2b808",
                "label": "PineLendingLibrary"
            },
            {
                "address": "0x0000000000000000000000000000000000000001",
                "label": "Precompiled"
            },
            {
                "address": "0x0000000000000000000000000000000000000003",
                "label": "Precompiled"
            },
            {
                "address": "0x19c56cb20e6e9598fc4d22318436f34981e481f9",
                "label": "TransparentUpgradeableProxy_19c5_81f9"
            },
            {
                "address": "0xbd3531da5cf5857e7cfaa92426877b022e612cf8",
                "label": "Pudgy Penguins: PPG Token"
            },
            {
                "address": "0xc02aaa39b223fe8d0a0e5c4f27ead9083c756cc2",
                "label": "Wrapped Ether (WETH)"
            },
            {
                "address": "0x1ccf0cfd4be8fb3669e9f4b37a58fffb8cc6f4bd",
                "label": "UpgradeableBeacon"
            },
            {
                "address": "0xeeeeeeeeeeeeeeeeeeeeeeeeeeeeeeeeeeeeeeee",
                "label": "Ether"
            },
            {
                "address": "0x5284d97a1462a767f385ae6ae89ba9065ece193c",
                "label": "LandRover01"
            },
            {
                "address": "0xc3f4659588b13f23e09ec54783a3c407e39ad589",
                "label": "BeaconProxy"
            },
            {
                "address": "0x2405913d54fc46eeaf3fb092bfb099f46803872f",
                "label": "0x2405_ERC721LendingPool02"
            },
            {
                "address": "0x4cb4e3d9e2032e4561ae93ec4815126371bbd0ce",
                "label": "0x4cb4_ERC721LendingPool02"
            }
        ]
    },
    "trace": {
        "accountLabels": null,
        "dataMap": {
            "-1": {
                "invocation": {
                    "address": "0x05324c970713450ba0bc12efd840034fcb0a4baa",
                    "callData": "",
                    "decodedMethod": null,
                    "errorInfo": "",
                    "fromAddress": "",
                    "gasUsed": 0,
                    "id": -1,
                    "methodDecoded": false,
                    "operation": "",
                    "output": "",
                    "revert": false,
                    "revertMessage": "",
                    "selector": "",
                    "status": false,
                    "value": ""
                },
                "nodeType": 0
            },
            "0": {
                "invocation": {
                    "address": "0x1d5586da44328f28bfbbf59b808a87584355b3ef",
                    "callData": "0x0000000000000000000000002405913d54fc46eeaf3fb092bfb099f46803872f000000000000000000000000c3f4659588b13f23e09ec54783a3c407e39ad5890000000000000000000000000000000000000000000000000000000000000cfc000000000000000000000000c490e4646a91c3cbafa8c55540c94dcd0212037e",
                    "decodedMethod": null,
                    "errorInfo": "",
                    "fromAddress": "0x05324c970713450ba0bc12efd840034fcb0a4baa",
                    "gasUsed": 337631,
                    "id": 0,
                    "methodDecoded": false,
                    "operation": "CALL",
                    "output": "",
                    "revert": false,
                    "revertMessage": "",
                    "selector": "0x901f6c5a",
                    "status": true,
                    "value": "0.3"
                },
                "nodeType": 0
            },
            "1": {
                "invocation": {
                    "address": "0xc02aaa39b223fe8d0a0e5c4f27ead9083c756cc2",
                    "callData": "0x000000000000000000000000c490e4646a91c3cbafa8c55540c94dcd0212037e0000000000000000000000002405913d54fc46eeaf3fb092bfb099f46803872f",
                    "decodedMethod": {
                        "callParams": [
                            {
                                "name": "",
                                "type": "address",
                                "value": "0xc490e4646a91c3cbafa8c55540c94dcd0212037e"
                            },
                            {
                                "name": "",
                                "type": "address",
                                "value": "0x2405913d54fc46eeaf3fb092bfb099f46803872f"
                            }
                        ],
                        "constructorArguments": "",
                        "name": "allowance",
                        "returnParams": [
                            {
                                "decimalAvailable": true,
                                "name": "",
                                "type": "uint256",
                                "value": "100,000,000,000,000,000,000,000,000"
                            }
                        ],
                        "signature": "allowance(address,address)"
                    },
                    "errorInfo": "",
                    "fromAddress": "0x1d5586da44328f28bfbbf59b808a87584355b3ef",
                    "gasUsed": 2717,
                    "id": 1,
                    "methodDecoded": true,
                    "operation": "STATICCALL",
                    "output": "0x00000000000000000000000000000000000000000052b7d2dcc80cd2e4000000",
                    "revert": false,
                    "revertMessage": "",
                    "selector": "0xdd62ed3e",
                    "status": true,
                    "value": "0"
                },
                "nodeType": 0
            },
            "10": {
                "event": {
                    "contract": "0xc02aaa39b223fe8d0a0e5c4f27ead9083c756cc2",
                    "decodedLog": {
                        "name": "Approval",
                        "params": [
                            {
                                "name": "src",
                                "type": "address",
                                "value": "0x1d5586da44328f28bfbbf59b808a87584355b3ef"
                            },
                            {
                                "name": "guy",
                                "type": "address",
                                "value": "0xc3f4659588b13f23e09ec54783a3c407e39ad589"
                            },
                            {
                                "decimalAvailable": true,
                                "name": "wad",
                                "type": "uint256",
                                "value": "115,792,089,237,316,195,423,570,985,008,687,907,853,269,984,665,640,564,039,457,584,007,913,129,639,935"
                            }
                        ],
                        "signature": "Approval(address,address,uint256)"
                    },
                    "id": 10,
                    "logData": "0xffffffffffffffffffffffffffffffffffffffffffffffffffffffffffffffff",
                    "logDecoded": true,
                    "operation": "EVENT",
                    "revert": false,
                    "status": true,
                    "topics": [
                        "0x8c5be1e5ebec7d5bd14f71427d1e84f3dd0314c0f7b2291e5b200ac8c7c3b925",
                        "0x0000000000000000000000001d5586da44328f28bfbbf59b808a87584355b3ef",
                        "0x000000000000000000000000c3f4659588b13f23e09ec54783a3c407e39ad589"
                    ]
                },
                "nodeType": 1
            },
            "11": {
                "invocation": {
                    "address": "0xc02aaa39b223fe8d0a0e5c4f27ead9083c756cc2",
                    "callData": "0x0000000000000000000000001d5586da44328f28bfbbf59b808a87584355b3ef",
                    "decodedMethod": {
                        "callParams": [
                            {
                                "name": "",
                                "type": "address",
                                "value": "0x1d5586da44328f28bfbbf59b808a87584355b3ef"
                            }
                        ],
                        "constructorArguments": "",
                        "name": "balanceOf",
                        "returnParams": [
                            {
                                "decimalAvailable": true,
                                "name": "",
                                "type": "uint256",
                                "value": "7,349,504,076,428,393,992"
                            }
                        ],
                        "signature": "balanceOf(address)"
                    },
                    "errorInfo": "",
                    "fromAddress": "0x1d5586da44328f28bfbbf59b808a87584355b3ef",
                    "gasUsed": 534,
                    "id": 11,
                    "methodDecoded": true,
                    "operation": "STATICCALL",
                    "output": "0x00000000000000000000000000000000000000000000000065feaf04a6ccbe08",
                    "revert": false,
                    "revertMessage": "",
                    "selector": "0x70a08231",
                    "status": true,
                    "value": "0"
                },
                "nodeType": 0
            },
            "12": {
                "invocation": {
                    "address": "0xc3f4659588b13f23e09ec54783a3c407e39ad589",
                    "callData": "0x0000000000000000000000000000000000000000000000000000000000000cfc00000000000000000000000000000000000000000000000065feaf04a6ccbe080000000000000000000000000000000000000000000000000000000000000000",
                    "decodedMethod": {
                        "callParams": [
                            {
                                "name": "nftID",
                                "type": "uint256",
                                "value": "3,324"
                            },
                            {
                                "name": "repayAmount",
                                "type": "uint256",
                                "value": "7,349,504,076,428,393,992"
                            },
                            {
                                "name": "pineWallet",
                                "type": "address",
                                "value": "0x0000000000000000000000000000000000000000"
                            }
                        ],
                        "constructorArguments": "",
                        "name": "repay",
                        "returnParams": [
                            {
                                "name": "",
                                "type": "bool",
                                "value": true
                            }
                        ],
                        "signature": "repay(uint256,uint256,address)"
                    },
                    "errorInfo": "",
                    "fromAddress": "0x1d5586da44328f28bfbbf59b808a87584355b3ef",
                    "gasUsed": 291463,
                    "id": 12,
                    "methodDecoded": true,
                    "operation": "CALL",
                    "output": "0x0000000000000000000000000000000000000000000000000000000000000001",
                    "revert": false,
                    "revertMessage": "",
                    "selector": "0xb1e8f8ef",
                    "status": true,
                    "value": "0"
                },
                "nodeType": 0
            },
            "13": {
                "invocation": {
                    "address": "0x1ccf0cfd4be8fb3669e9f4b37a58fffb8cc6f4bd",
                    "callData": "0x",
                    "decodedMethod": {
                        "callParams": [],
                        "constructorArguments": "",
                        "name": "implementation",
                        "returnParams": [
                            {
                                "name": "",
                                "type": "address",
                                "value": "0xd3de1104cf61d1f1dc418f9fc93c15f196a6d1c5"
                            }
                        ],
                        "signature": "implementation()"
                    },
                    "errorInfo": "",
                    "fromAddress": "0xc3f4659588b13f23e09ec54783a3c407e39ad589",
                    "gasUsed": 2308,
                    "id": 13,
                    "methodDecoded": true,
                    "operation": "STATICCALL",
                    "output": "0x000000000000000000000000d3de1104cf61d1f1dc418f9fc93c15f196a6d1c5",
                    "revert": false,
                    "revertMessage": "",
                    "selector": "0x5c60da1b",
                    "status": true,
                    "value": "0"
                },
                "nodeType": 0
            },
            "14": {
                "invocation": {
                    "address": "0xd3de1104cf61d1f1dc418f9fc93c15f196a6d1c5",
                    "callData": "0x0000000000000000000000000000000000000000000000000000000000000cfc00000000000000000000000000000000000000000000000065feaf04a6ccbe080000000000000000000000000000000000000000000000000000000000000000",
                    "decodedMethod": {
                        "callParams": [
                            {
                                "name": "nftID",
                                "type": "uint256",
                                "value": "3,324"
                            },
                            {
                                "name": "repayAmount",
                                "type": "uint256",
                                "value": "7,349,504,076,428,393,992"
                            },
                            {
                                "name": "pineWallet",
                                "type": "address",
                                "value": "0x0000000000000000000000000000000000000000"
                            }
                        ],
                        "constructorArguments": "",
                        "name": "repay",
                        "returnParams": [
                            {
                                "name": "",
                                "type": "bool",
                                "value": true
                            }
                        ],
                        "signature": "repay(uint256,uint256,address)"
                    },
                    "errorInfo": "",
                    "fromAddress": "0xc3f4659588b13f23e09ec54783a3c407e39ad589",
                    "gasUsed": 281230,
                    "id": 14,
                    "methodDecoded": true,
                    "operation": "DELEGATECALL",
                    "output": "0x0000000000000000000000000000000000000000000000000000000000000001",
                    "revert": false,
                    "revertMessage": "",
                    "selector": "0xb1e8f8ef",
                    "status": true,
                    "value": "0"
                },
                "nodeType": 0
            },
            "15": {
                "invocation": {
                    "address": "0xbd3531da5cf5857e7cfaa92426877b022e612cf8",
                    "callData": "0x00000000000000000000000005324c970713450ba0bc12efd840034fcb0a4baa0000000000000000000000005284d97a1462a767f385ae6ae89ba9065ece193c",
                    "decodedMethod": {
                        "callParams": [
                            {
                                "name": "owner",
                                "type": "address",
                                "value": "0x05324c970713450ba0bc12efd840034fcb0a4baa"
                            },
                            {
                                "name": "operator",
                                "type": "address",
                                "value": "0x5284d97a1462a767f385ae6ae89ba9065ece193c"
                            }
                        ],
                        "constructorArguments": "",
                        "name": "isApprovedForAll",
                        "returnParams": [
                            {
                                "name": "",
                                "type": "bool",
                                "value": false
                            }
                        ],
                        "signature": "isApprovedForAll(address,address)"
                    },
                    "errorInfo": "",
                    "fromAddress": "0xc3f4659588b13f23e09ec54783a3c407e39ad589",
                    "gasUsed": 3305,
                    "id": 15,
                    "methodDecoded": true,
                    "operation": "STATICCALL",
                    "output": "0x0000000000000000000000000000000000000000000000000000000000000000",
                    "revert": false,
                    "revertMessage": "",
                    "selector": "0xe985e9c5",
                    "status": true,
                    "value": "0"
                },
                "nodeType": 0
            },
            "16": {
                "invocation": {
                    "address": "0xfd5ee497a2732b1eec1f40eb28062330b8391a53",
                    "callData": "0x00000000000000000000000000000000000000000000000000000000000001bc",
                    "decodedMethod": {
                        "callParams": [
                            {
                                "name": "lenderRateBpsPerBlock",
                                "type": "uint32",
                                "value": "444"
                            }
                        ],
                        "constructorArguments": "",
                        "name": "getClientRateByLenderRatePerBlock",
                        "returnParams": [
                            {
                                "name": "",
                                "type": "uint32",
                                "value": "701"
                            }
                        ],
                        "signature": "getClientRateByLenderRatePerBlock(uint32)"
                    },
                    "errorInfo": "",
                    "fromAddress": "0xc3f4659588b13f23e09ec54783a3c407e39ad589",
                    "gasUsed": 8809,
                    "id": 16,
                    "methodDecoded": true,
                    "operation": "STATICCALL",
                    "output": "0x00000000000000000000000000000000000000000000000000000000000002bd",
                    "revert": false,
                    "revertMessage": "",
                    "selector": "0x02e57744",
                    "status": true,
                    "value": "0"
                },
                "nodeType": 0
            },
            "17": {
                "invocation": {
                    "address": "0x1a4c2ac5d97f4f4dda2b880342b298ea58f2b808",
                    "callData": "0x00000000000000000000000000000000000000000000000000000000011f676f000000000000000000000000000000000000000000000000000000006596d6ef00000000000000000000000000000000000000000000000000000000000001bc0000000000000000000000000000000000000000000000000000000000000fa00000000000000000000000000000000000000000000000003b18e03cef86000000000000000000000000000000000000000000000000000000000000000000000000000000000000000000000000000000000000000000000000000000000000000000000000000000000000000000000000000000000000000000000000000000000000000000000000000005324c970713450ba0bc12efd840034fcb0a4baa",
                    "decodedMethod": null,
                    "errorInfo": "",
                    "fromAddress": "0xc3f4659588b13f23e09ec54783a3c407e39ad589",
                    "gasUsed": 2439,
                    "id": 17,
                    "methodDecoded": false,
                    "operation": "DELEGATECALL",
                    "output": "0x0000000000000000000000000000000000000000000000000000000000000001",
                    "revert": false,
                    "revertMessage": "",
                    "selector": "0xd4d30063",
                    "status": true,
                    "value": "0"
                },
                "nodeType": 0
            },
            "18": {
                "invocation": {
                    "address": "0xc02aaa39b223fe8d0a0e5c4f27ead9083c756cc2",
                    "callData": "0x0000000000000000000000001d5586da44328f28bfbbf59b808a87584355b3ef000000000000000000000000c3f4659588b13f23e09ec54783a3c407e39ad58900000000000000000000000000000000000000000000000065feaf04a6ccbe08",
                    "decodedMethod": {
                        "callParams": [
                            {
                                "name": "src",
                                "type": "address",
                                "value": "0x1d5586da44328f28bfbbf59b808a87584355b3ef"
                            },
                            {
                                "name": "dst",
                                "type": "address",
                                "value": "0xc3f4659588b13f23e09ec54783a3c407e39ad589"
                            },
                            {
                                "decimalAvailable": true,
                                "name": "wad",
                                "type": "uint256",
                                "value": "7,349,504,076,428,393,992"
                            }
                        ],
                        "constructorArguments": "",
                        "name": "transferFrom",
                        "returnParams": [
                            {
                                "name": "",
                                "type": "bool",
                                "value": true
                            }
                        ],
                        "signature": "transferFrom(address,address,uint256)"
                    },
                    "errorInfo": "",
                    "fromAddress": "0xc3f4659588b13f23e09ec54783a3c407e39ad589",
                    "gasUsed": 25325,
                    "id": 18,
                    "methodDecoded": true,
                    "operation": "CALL",
                    "output": "0x0000000000000000000000000000000000000000000000000000000000000001",
                    "revert": false,
                    "revertMessage": "",
                    "selector": "0x23b872dd",
                    "status": true,
                    "value": "0"
                },
                "nodeType": 0
            },
            "19": {
                "event": {
                    "contract": "0xc02aaa39b223fe8d0a0e5c4f27ead9083c756cc2",
                    "decodedLog": {
                        "name": "Transfer",
                        "params": [
                            {
                                "name": "src",
                                "type": "address",
                                "value": "0x1d5586da44328f28bfbbf59b808a87584355b3ef"
                            },
                            {
                                "name": "dst",
                                "type": "address",
                                "value": "0xc3f4659588b13f23e09ec54783a3c407e39ad589"
                            },
                            {
                                "decimalAvailable": true,
                                "name": "wad",
                                "type": "uint256",
                                "value": "7,349,504,076,428,393,992"
                            }
                        ],
                        "signature": "Transfer(address,address,uint256)"
                    },
                    "id": 19,
                    "logData": "0x00000000000000000000000000000000000000000000000065feaf04a6ccbe08",
                    "logDecoded": true,
                    "operation": "EVENT",
                    "revert": false,
                    "status": true,
                    "topics": [
                        "0xddf252ad1be2c89b69c2b068fc378daa952ba7f163c4a11628f55a4df523b3ef",
                        "0x0000000000000000000000001d5586da44328f28bfbbf59b808a87584355b3ef",
                        "0x000000000000000000000000c3f4659588b13f23e09ec54783a3c407e39ad589"
                    ]
                },
                "nodeType": 1
            },
            "2": {
                "invocation": {
                    "address": "0xc02aaa39b223fe8d0a0e5c4f27ead9083c756cc2",
                    "callData": "0x000000000000000000000000c490e4646a91c3cbafa8c55540c94dcd0212037e",
                    "decodedMethod": {
                        "callParams": [
                            {
                                "name": "",
                                "type": "address",
                                "value": "0xc490e4646a91c3cbafa8c55540c94dcd0212037e"
                            }
                        ],
                        "constructorArguments": "",
                        "name": "balanceOf",
                        "returnParams": [
                            {
                                "decimalAvailable": true,
                                "name": "",
                                "type": "uint256",
                                "value": "7,349,504,076,428,393,992"
                            }
                        ],
                        "signature": "balanceOf(address)"
                    },
                    "errorInfo": "",
                    "fromAddress": "0x1d5586da44328f28bfbbf59b808a87584355b3ef",
                    "gasUsed": 2534,
                    "id": 2,
                    "methodDecoded": true,
                    "operation": "STATICCALL",
                    "output": "0x00000000000000000000000000000000000000000000000065feaf04a6ccbe08",
                    "revert": false,
                    "revertMessage": "",
                    "selector": "0x70a08231",
                    "status": true,
                    "value": "0"
                },
                "nodeType": 0
            },
            "20": {
                "invocation": {
                    "address": "0x1a4c2ac5d97f4f4dda2b880342b298ea58f2b808",
                    "callData": "0x00000000000000000000000000000000000000000000000000000000011f676f000000000000000000000000000000000000000000000000000000006596d6ef00000000000000000000000000000000000000000000000000000000000002bd0000000000000000000000000000000000000000000000000000000000000fa00000000000000000000000000000000000000000000000003b18e03cef86000000000000000000000000000000000000000000000000000000000000000000000000000000000000000000000000000000000000000000000000000000000000000000000000000000000000000000000000000000000000000000000000000000000000000000000000000005324c970713450ba0bc12efd840034fcb0a4baa",
                    "decodedMethod": null,
                    "errorInfo": "",
                    "fromAddress": "0xc3f4659588b13f23e09ec54783a3c407e39ad589",
                    "gasUsed": 2934,
                    "id": 20,
                    "methodDecoded": false,
                    "operation": "DELEGATECALL",
                    "output": "0x0000000000000000000000000000000000000000000000003b18e9780b1c5f00",
                    "revert": false,
                    "revertMessage": "",
                    "selector": "0xdf9a33b7",
                    "status": true,
                    "value": "0"
                },
                "nodeType": 0
            },
            "21": {
                "invocation": {
                    "address": "0x1a4c2ac5d97f4f4dda2b880342b298ea58f2b808",
                    "callData": "0x00000000000000000000000000000000000000000000000000000000011f676f000000000000000000000000000000000000000000000000000000006596d6ef00000000000000000000000000000000000000000000000000000000000002bd0000000000000000000000000000000000000000000000000000000000000fa00000000000000000000000000000000000000000000000003b18e03cef86000000000000000000000000000000000000000000000000000000000000000000000000000000000000000000000000000000000000000000000000000000000000000000000000000000000000000000000000000000000000000000000000000000000000000000000000000005324c970713450ba0bc12efd840034fcb0a4baa",
                    "decodedMethod": null,
                    "errorInfo": "",
                    "fromAddress": "0xc3f4659588b13f23e09ec54783a3c407e39ad589",
                    "gasUsed": 2934,
                    "id": 21,
                    "methodDecoded": false,
                    "operation": "DELEGATECALL",
                    "output": "0x0000000000000000000000000000000000000000000000003b18e9780b1c5f00",
                    "revert": false,
                    "revertMessage": "",
                    "selector": "0xdf9a33b7",
                    "status": true,
                    "value": "0"
                },
                "nodeType": 0
            },
            "22": {
                "invocation": {
                    "address": "0xc02aaa39b223fe8d0a0e5c4f27ead9083c756cc2",
                    "callData": "0x0000000000000000000000001d5586da44328f28bfbbf59b808a87584355b3ef0000000000000000000000000000000000000000000000002ae5c58c9bb05f08",
                    "decodedMethod": {
                        "callParams": [
                            {
                                "name": "dst",
                                "type": "address",
                                "value": "0x1d5586da44328f28bfbbf59b808a87584355b3ef"
                            },
                            {
                                "decimalAvailable": true,
                                "name": "wad",
                                "type": "uint256",
                                "value": "3,091,093,926,957,833,992"
                            }
                        ],
                        "constructorArguments": "",
                        "name": "transfer",
                        "returnParams": [
                            {
                                "name": "",
                                "type": "bool",
                                "value": true
                            }
                        ],
                        "signature": "transfer(address,uint256)"
                    },
                    "errorInfo": "",
                    "fromAddress": "0xc3f4659588b13f23e09ec54783a3c407e39ad589",
                    "gasUsed": 23162,
                    "id": 22,
                    "methodDecoded": true,
                    "operation": "CALL",
                    "output": "0x0000000000000000000000000000000000000000000000000000000000000001",
                    "revert": false,
                    "revertMessage": "",
                    "selector": "0xa9059cbb",
                    "status": true,
                    "value": "0"
                },
                "nodeType": 0
            },
            "23": {
                "event": {
                    "contract": "0xc02aaa39b223fe8d0a0e5c4f27ead9083c756cc2",
                    "decodedLog": {
                        "name": "Transfer",
                        "params": [
                            {
                                "name": "src",
                                "type": "address",
                                "value": "0xc3f4659588b13f23e09ec54783a3c407e39ad589"
                            },
                            {
                                "name": "dst",
                                "type": "address",
                                "value": "0x1d5586da44328f28bfbbf59b808a87584355b3ef"
                            },
                            {
                                "decimalAvailable": true,
                                "name": "wad",
                                "type": "uint256",
                                "value": "3,091,093,926,957,833,992"
                            }
                        ],
                        "signature": "Transfer(address,address,uint256)"
                    },
                    "id": 23,
                    "logData": "0x0000000000000000000000000000000000000000000000002ae5c58c9bb05f08",
                    "logDecoded": true,
                    "operation": "EVENT",
                    "revert": false,
                    "status": true,
                    "topics": [
                        "0xddf252ad1be2c89b69c2b068fc378daa952ba7f163c4a11628f55a4df523b3ef",
                        "0x000000000000000000000000c3f4659588b13f23e09ec54783a3c407e39ad589",
                        "0x0000000000000000000000001d5586da44328f28bfbbf59b808a87584355b3ef"
                    ]
                },
                "nodeType": 1
            },
            "24": {
                "invocation": {
                    "address": "0x1a4c2ac5d97f4f4dda2b880342b298ea58f2b808",
                    "callData": "0x00000000000000000000000000000000000000000000000000000000011f676f000000000000000000000000000000000000000000000000000000006596d6ef00000000000000000000000000000000000000000000000000000000000002bd0000000000000000000000000000000000000000000000000000000000000fa00000000000000000000000000000000000000000000000003b18e03cef86000000000000000000000000000000000000000000000000000000000000000000000000000000000000000000000000000000000000000000000000000000000000000000000000000000000000000000000000000000000000000000000000000000000000000000000000000005324c970713450ba0bc12efd840034fcb0a4baa",
                    "decodedMethod": null,
                    "errorInfo": "",
                    "fromAddress": "0xc3f4659588b13f23e09ec54783a3c407e39ad589",
                    "gasUsed": 2934,
                    "id": 24,
                    "methodDecoded": false,
                    "operation": "DELEGATECALL",
                    "output": "0x0000000000000000000000000000000000000000000000003b18e9780b1c5f00",
                    "revert": false,
                    "revertMessage": "",
                    "selector": "0xdf9a33b7",
                    "status": true,
                    "value": "0"
                },
                "nodeType": 0
            },
            "25": {
                "invocation": {
                    "address": "0xbd3531da5cf5857e7cfaa92426877b022e612cf8",
                    "callData": "0x000000000000000000000000c3f4659588b13f23e09ec54783a3c407e39ad58900000000000000000000000005324c970713450ba0bc12efd840034fcb0a4baa0000000000000000000000000000000000000000000000000000000000000cfc",
                    "decodedMethod": {
                        "callParams": [
                            {
                                "name": "from",
                                "type": "address",
                                "value": "0xc3f4659588b13f23e09ec54783a3c407e39ad589"
                            },
                            {
                                "name": "to",
                                "type": "address",
                                "value": "0x05324c970713450ba0bc12efd840034fcb0a4baa"
                            },
                            {
                                "decimalAvailable": true,
                                "name": "tokenId",
                                "type": "uint256",
                                "value": "3,324"
                            }
                        ],
                        "constructorArguments": "",
                        "name": "transferFrom",
                        "returnParams": [],
                        "signature": "transferFrom(address,address,uint256)"
                    },
                    "errorInfo": "",
                    "fromAddress": "0xc3f4659588b13f23e09ec54783a3c407e39ad589",
                    "gasUsed": 75179,
                    "id": 25,
                    "methodDecoded": true,
                    "operation": "CALL",
                    "output": "",
                    "revert": false,
                    "revertMessage": "",
                    "selector": "0x23b872dd",
                    "status": true,
                    "value": "0"
                },
                "nodeType": 0
            },
            "26": {
                "event": {
                    "contract": "0xbd3531da5cf5857e7cfaa92426877b022e612cf8",
                    "decodedLog": {
                        "name": "Approval",
                        "params": [
                            {
                                "name": "owner",
                                "type": "address",
                                "value": "0xc3f4659588b13f23e09ec54783a3c407e39ad589"
                            },
                            {
                                "name": "approved",
                                "type": "address",
                                "value": "0x0000000000000000000000000000000000000000"
                            },
                            {
                                "decimalAvailable": true,
                                "name": "tokenId",
                                "type": "uint256",
                                "value": "3,324"
                            }
                        ],
                        "signature": "Approval(address,address,uint256)"
                    },
                    "id": 26,
                    "logData": "0x",
                    "logDecoded": true,
                    "operation": "EVENT",
                    "revert": false,
                    "status": true,
                    "topics": [
                        "0x8c5be1e5ebec7d5bd14f71427d1e84f3dd0314c0f7b2291e5b200ac8c7c3b925",
                        "0x000000000000000000000000c3f4659588b13f23e09ec54783a3c407e39ad589",
                        "0x0000000000000000000000000000000000000000000000000000000000000000",
                        "0x0000000000000000000000000000000000000000000000000000000000000cfc"
                    ]
                },
                "nodeType": 1
            },
            "27": {
                "event": {
                    "contract": "0xbd3531da5cf5857e7cfaa92426877b022e612cf8",
                    "decodedLog": {
                        "name": "Transfer",
                        "params": [
                            {
                                "name": "from",
                                "type": "address",
                                "value": "0xc3f4659588b13f23e09ec54783a3c407e39ad589"
                            },
                            {
                                "name": "to",
                                "type": "address",
                                "value": "0x05324c970713450ba0bc12efd840034fcb0a4baa"
                            },
                            {
                                "decimalAvailable": true,
                                "name": "tokenId",
                                "type": "uint256",
                                "value": "3,324"
                            }
                        ],
                        "signature": "Transfer(address,address,uint256)"
                    },
                    "id": 27,
                    "logData": "0x",
                    "logDecoded": true,
                    "operation": "EVENT",
                    "revert": false,
                    "status": true,
                    "topics": [
                        "0xddf252ad1be2c89b69c2b068fc378daa952ba7f163c4a11628f55a4df523b3ef",
                        "0x000000000000000000000000c3f4659588b13f23e09ec54783a3c407e39ad589",
                        "0x00000000000000000000000005324c970713450ba0bc12efd840034fcb0a4baa",
                        "0x0000000000000000000000000000000000000000000000000000000000000cfc"
                    ]
                },
                "nodeType": 1
            },
            "28": {
                "invocation": {
                    "address": "0xfd5ee497a2732b1eec1f40eb28062330b8391a53",
                    "callData": "0x00000000000000000000000000000000000000000000000000000000000001bc",
                    "decodedMethod": {
                        "callParams": [
                            {
                                "name": "lenderRateBpsPerBlock",
                                "type": "uint32",
                                "value": "444"
                            }
                        ],
                        "constructorArguments": "",
                        "name": "getFeeCutBpsByLenderRatePerBlock",
                        "returnParams": [
                            {
                                "name": "",
                                "type": "uint256",
                                "value": "3,676"
                            }
                        ],
                        "signature": "getFeeCutBpsByLenderRatePerBlock(uint32)"
                    },
                    "errorInfo": "",
                    "fromAddress": "0xc3f4659588b13f23e09ec54783a3c407e39ad589",
                    "gasUsed": 8900,
                    "id": 28,
                    "methodDecoded": true,
                    "operation": "STATICCALL",
                    "output": "0x0000000000000000000000000000000000000000000000000000000000000e5c",
                    "revert": false,
                    "revertMessage": "",
                    "selector": "0x2e1d6768",
                    "status": true,
                    "value": "0"
                },
                "nodeType": 0
            },
            "29": {
                "invocation": {
                    "address": "0xc02aaa39b223fe8d0a0e5c4f27ead9083c756cc2",
                    "callData": "0x000000000000000000000000c3f4659588b13f23e09ec54783a3c407e39ad589",
                    "decodedMethod": {
                        "callParams": [
                            {
                                "name": "",
                                "type": "address",
                                "value": "0xc3f4659588b13f23e09ec54783a3c407e39ad589"
                            }
                        ],
                        "constructorArguments": "",
                        "name": "balanceOf",
                        "returnParams": [
                            {
                                "decimalAvailable": true,
                                "name": "",
                                "type": "uint256",
                                "value": "4,258,410,149,470,560,000"
                            }
                        ],
                        "signature": "balanceOf(address)"
                    },
                    "errorInfo": "",
                    "fromAddress": "0xc3f4659588b13f23e09ec54783a3c407e39ad589",
                    "gasUsed": 534,
                    "id": 29,
                    "methodDecoded": true,
                    "operation": "STATICCALL",
                    "output": "0x0000000000000000000000000000000000000000000000003b18e9780b1c5f00",
                    "revert": false,
                    "revertMessage": "",
                    "selector": "0x70a08231",
                    "status": true,
                    "value": "0"
                },
                "nodeType": 0
            },
            "3": {
                "invocation": {
                    "address": "0x2405913d54fc46eeaf3fb092bfb099f46803872f",
                    "callData": "0x0000000000000000000000001d5586da44328f28bfbbf59b808a87584355b3ef000000000000000000000000c02aaa39b223fe8d0a0e5c4f27ead9083c756cc200000000000000000000000000000000000000000000000065feaf04a6ccbe08000000000000000000000000000000000000000000000000000000000000008000000000000000000000000000000000000000000000000000000000000000600000000000000000000000000000000000000000000000000000000000000cfc000000000000000000000000c3f4659588b13f23e09ec54783a3c407e39ad589000000000000000000000000c490e4646a91c3cbafa8c55540c94dcd0212037e",
                    "decodedMethod": {
                        "callParams": [
                            {
                                "name": "_receiver",
                                "type": "address",
                                "value": "0x1d5586da44328f28bfbbf59b808a87584355b3ef"
                            },
                            {
                                "name": "_reserve",
                                "type": "address",
                                "value": "0xc02aaa39b223fe8d0a0e5c4f27ead9083c756cc2"
                            },
                            {
                                "name": "_amount",
                                "type": "uint256",
                                "value": "7,349,504,076,428,393,992"
                            },
                            {
                                "name": "_params",
                                "type": "bytes",
                                "value": "0x0000000000000000000000000000000000000000000000000000000000000cfc000000000000000000000000c3f4659588b13f23e09ec54783a3c407e39ad589000000000000000000000000c490e4646a91c3cbafa8c55540c94dcd0212037e"
                            }
                        ],
                        "constructorArguments": "",
                        "name": "flashLoan",
                        "returnParams": [],
                        "signature": "flashLoan(address,address,uint256,bytes)"
                    },
                    "errorInfo": "",
                    "fromAddress": "0x1d5586da44328f28bfbbf59b808a87584355b3ef",
                    "gasUsed": 384773,
                    "id": 3,
                    "methodDecoded": true,
                    "operation": "CALL",
                    "output": "",
                    "revert": false,
                    "revertMessage": "",
                    "selector": "0x5cffe9de",
                    "status": true,
                    "value": "0"
                },
                "nodeType": 0
            },
            "30": {
                "invocation": {
                    "address": "0xc02aaa39b223fe8d0a0e5c4f27ead9083c756cc2",
                    "callData": "0x000000000000000000000000c3f4659588b13f23e09ec54783a3c407e39ad589000000000000000000000000c490e4646a91c3cbafa8c55540c94dcd0212037e0000000000000000000000000000000000000000000000003b18e6135d6fd8c0",
                    "decodedMethod": {
                        "callParams": [
                            {
                                "name": "src",
                                "type": "address",
                                "value": "0xc3f4659588b13f23e09ec54783a3c407e39ad589"
                            },
                            {
                                "name": "dst",
                                "type": "address",
                                "value": "0xc490e4646a91c3cbafa8c55540c94dcd0212037e"
                            },
                            {
                                "decimalAvailable": true,
                                "name": "wad",
                                "type": "uint256",
                                "value": "4,258,406,418,525,182,144"
                            }
                        ],
                        "constructorArguments": "",
                        "name": "transferFrom",
                        "returnParams": [
                            {
                                "name": "",
                                "type": "bool",
                                "value": true
                            }
                        ],
                        "signature": "transferFrom(address,address,uint256)"
                    },
                    "errorInfo": "",
                    "fromAddress": "0xc3f4659588b13f23e09ec54783a3c407e39ad589",
                    "gasUsed": 3132,
                    "id": 30,
                    "methodDecoded": true,
                    "operation": "CALL",
                    "output": "0x0000000000000000000000000000000000000000000000000000000000000001",
                    "revert": false,
                    "revertMessage": "",
                    "selector": "0x23b872dd",
                    "status": true,
                    "value": "0"
                },
                "nodeType": 0
            },
            "31": {
                "event": {
                    "contract": "0xc02aaa39b223fe8d0a0e5c4f27ead9083c756cc2",
                    "decodedLog": {
                        "name": "Transfer",
                        "params": [
                            {
                                "name": "src",
                                "type": "address",
                                "value": "0xc3f4659588b13f23e09ec54783a3c407e39ad589"
                            },
                            {
                                "name": "dst",
                                "type": "address",
                                "value": "0xc490e4646a91c3cbafa8c55540c94dcd0212037e"
                            },
                            {
                                "decimalAvailable": true,
                                "name": "wad",
                                "type": "uint256",
                                "value": "4,258,406,418,525,182,144"
                            }
                        ],
                        "signature": "Transfer(address,address,uint256)"
                    },
                    "id": 31,
                    "logData": "0x0000000000000000000000000000000000000000000000003b18e6135d6fd8c0",
                    "logDecoded": true,
                    "operation": "EVENT",
                    "revert": false,
                    "status": true,
                    "topics": [
                        "0xddf252ad1be2c89b69c2b068fc378daa952ba7f163c4a11628f55a4df523b3ef",
                        "0x000000000000000000000000c3f4659588b13f23e09ec54783a3c407e39ad589",
                        "0x000000000000000000000000c490e4646a91c3cbafa8c55540c94dcd0212037e"
                    ]
                },
                "nodeType": 1
            },
            "32": {
                "invocation": {
                    "address": "0xfd5ee497a2732b1eec1f40eb28062330b8391a53",
                    "callData": "0x00000000000000000000000000000000000000000000000000000000000001bc",
                    "decodedMethod": {
                        "callParams": [
                            {
                                "name": "lenderRateBpsPerBlock",
                                "type": "uint32",
                                "value": "444"
                            }
                        ],
                        "constructorArguments": "",
                        "name": "getFeeCutBpsByLenderRatePerBlock",
                        "returnParams": [
                            {
                                "name": "",
                                "type": "uint256",
                                "value": "3,676"
                            }
                        ],
                        "signature": "getFeeCutBpsByLenderRatePerBlock(uint32)"
                    },
                    "errorInfo": "",
                    "fromAddress": "0xc3f4659588b13f23e09ec54783a3c407e39ad589",
                    "gasUsed": 8900,
                    "id": 32,
                    "methodDecoded": true,
                    "operation": "STATICCALL",
                    "output": "0x0000000000000000000000000000000000000000000000000000000000000e5c",
                    "revert": false,
                    "revertMessage": "",
                    "selector": "0x2e1d6768",
                    "status": true,
                    "value": "0"
                },
                "nodeType": 0
            },
            "33": {
                "invocation": {
                    "address": "0xc02aaa39b223fe8d0a0e5c4f27ead9083c756cc2",
                    "callData": "0x000000000000000000000000c3f4659588b13f23e09ec54783a3c407e39ad58900000000000000000000000019c56cb20e6e9598fc4d22318436f34981e481f900000000000000000000000000000000000000000000000000000364adac8640",
                    "decodedMethod": {
                        "callParams": [
                            {
                                "name": "src",
                                "type": "address",
                                "value": "0xc3f4659588b13f23e09ec54783a3c407e39ad589"
                            },
                            {
                                "name": "dst",
                                "type": "address",
                                "value": "0x19c56cb20e6e9598fc4d22318436f34981e481f9"
                            },
                            {
                                "decimalAvailable": true,
                                "name": "wad",
                                "type": "uint256",
                                "value": "3,730,945,377,856"
                            }
                        ],
                        "constructorArguments": "",
                        "name": "transferFrom",
                        "returnParams": [
                            {
                                "name": "",
                                "type": "bool",
                                "value": true
                            }
                        ],
                        "signature": "transferFrom(address,address,uint256)"
                    },
                    "errorInfo": "",
                    "fromAddress": "0xc3f4659588b13f23e09ec54783a3c407e39ad589",
                    "gasUsed": 7932,
                    "id": 33,
                    "methodDecoded": true,
                    "operation": "CALL",
                    "output": "0x0000000000000000000000000000000000000000000000000000000000000001",
                    "revert": false,
                    "revertMessage": "",
                    "selector": "0x23b872dd",
                    "status": true,
                    "value": "0"
                },
                "nodeType": 0
            },
            "34": {
                "event": {
                    "contract": "0xc02aaa39b223fe8d0a0e5c4f27ead9083c756cc2",
                    "decodedLog": {
                        "name": "Transfer",
                        "params": [
                            {
                                "name": "src",
                                "type": "address",
                                "value": "0xc3f4659588b13f23e09ec54783a3c407e39ad589"
                            },
                            {
                                "name": "dst",
                                "type": "address",
                                "value": "0x19c56cb20e6e9598fc4d22318436f34981e481f9"
                            },
                            {
                                "decimalAvailable": true,
                                "name": "wad",
                                "type": "uint256",
                                "value": "3,730,945,377,856"
                            }
                        ],
                        "signature": "Transfer(address,address,uint256)"
                    },
                    "id": 34,
                    "logData": "0x00000000000000000000000000000000000000000000000000000364adac8640",
                    "logDecoded": true,
                    "operation": "EVENT",
                    "revert": false,
                    "status": true,
                    "topics": [
                        "0xddf252ad1be2c89b69c2b068fc378daa952ba7f163c4a11628f55a4df523b3ef",
                        "0x000000000000000000000000c3f4659588b13f23e09ec54783a3c407e39ad589",
                        "0x00000000000000000000000019c56cb20e6e9598fc4d22318436f34981e481f9"
                    ]
                },
                "nodeType": 1
            },
            "35": {
                "invocation": {
                    "address": "0xbd3531da5cf5857e7cfaa92426877b022e612cf8",
                    "callData": "0x0000000000000000000000000000000000000000000000000000000000000cfc",
                    "decodedMethod": {
                        "callParams": [
                            {
                                "name": "tokenId",
                                "type": "uint256",
                                "value": "3,324"
                            }
                        ],
                        "constructorArguments": "",
                        "name": "ownerOf",
                        "returnParams": [
                            {
                                "name": "",
                                "type": "address",
                                "value": "0x05324c970713450ba0bc12efd840034fcb0a4baa"
                            }
                        ],
                        "signature": "ownerOf(uint256)"
                    },
                    "errorInfo": "",
                    "fromAddress": "0xc3f4659588b13f23e09ec54783a3c407e39ad589",
                    "gasUsed": 1006,
                    "id": 35,
                    "methodDecoded": true,
                    "operation": "STATICCALL",
                    "output": "0x00000000000000000000000005324c970713450ba0bc12efd840034fcb0a4baa",
                    "revert": false,
                    "revertMessage": "",
                    "selector": "0x6352211e",
                    "status": true,
                    "value": "0"
                },
                "nodeType": 0
            },
            "36": {
                "event": {
                    "contract": "0xc3f4659588b13f23e09ec54783a3c407e39ad589",
                    "decodedLog": {
                        "name": "LoanTermsChanged",
                        "params": [
                            {
                                "name": "user",
                                "type": "address",
                                "value": "0x0000000000000000000000000000000000000000"
                            },
                            {
                                "name": "erc721",
                                "type": "address",
                                "value": "0xbd3531da5cf5857e7cfaa92426877b022e612cf8"
                            },
                            {
                                "name": "nftID",
                                "type": "uint256",
                                "value": "3,324"
                            },
                            {
                                "name": "oldTerms",
                                "type": "(uint256,uint256,uint32,uint32,uint256,uint256,uint256,uint256,address)",
                                "value": [
                                    {
                                        "name": "loanStartBlock",
                                        "type": "uint256",
                                        "value": "18,835,311"
                                    },
                                    {
                                        "name": "loanExpireTimestamp",
                                        "type": "uint256",
                                        "value": "1,704,384,239"
                                    },
                                    {
                                        "name": "interestBPS1000000XBlock",
                                        "type": "uint32",
                                        "value": "444"
                                    },
                                    {
                                        "name": "maxLTVBPS",
                                        "type": "uint32",
                                        "value": "4,000"
                                    },
                                    {
                                        "name": "borrowedWei",
                                        "type": "uint256",
                                        "value": "4,258,400,000,000,000,000"
                                    },
                                    {
                                        "name": "returnedWei",
                                        "type": "uint256",
                                        "value": "0"
                                    },
                                    {
                                        "name": "accuredInterestWei",
                                        "type": "uint256",
                                        "value": "0"
                                    },
                                    {
                                        "name": "repaidInterestWei",
                                        "type": "uint256",
                                        "value": "0"
                                    },
                                    {
                                        "name": "borrower",
                                        "type": "address",
                                        "value": "0x05324c970713450ba0bc12efd840034fcb0a4baa"
                                    }
                                ]
                            },
                            {
                                "name": "newTerms",
                                "type": "(uint256,uint256,uint32,uint32,uint256,uint256,uint256,uint256,address)",
                                "value": [
                                    {
                                        "name": "loanStartBlock",
                                        "type": "uint256",
                                        "value": "0"
                                    },
                                    {
                                        "name": "loanExpireTimestamp",
                                        "type": "uint256",
                                        "value": "0"
                                    },
                                    {
                                        "name": "interestBPS1000000XBlock",
                                        "type": "uint32",
                                        "value": "0"
                                    },
                                    {
                                        "name": "maxLTVBPS",
                                        "type": "uint32",
                                        "value": "0"
                                    },
                                    {
                                        "name": "borrowedWei",
                                        "type": "uint256",
                                        "value": "0"
                                    },
                                    {
                                        "name": "returnedWei",
                                        "type": "uint256",
                                        "value": "0"
                                    },
                                    {
                                        "name": "accuredInterestWei",
                                        "type": "uint256",
                                        "value": "0"
                                    },
                                    {
                                        "name": "repaidInterestWei",
                                        "type": "uint256",
                                        "value": "0"
                                    },
                                    {
                                        "name": "borrower",
                                        "type": "address",
                                        "value": "0x0000000000000000000000000000000000000000"
                                    }
                                ]
                            }
                        ],
                        "signature": "LoanTermsChanged(address,address,uint256,(uint256,uint256,uint32,uint32,uint256,uint256,uint256,uint256,address),(uint256,uint256,uint32,uint32,uint256,uint256,uint256,uint256,address))"
                    },
                    "id": 36,
                    "logData": "0x00000000000000000000000000000000000000000000000000000000011f676f000000000000000000000000000000000000000000000000000000006596d6ef00000000000000000000000000000000000000000000000000000000000001bc0000000000000000000000000000000000000000000000000000000000000fa00000000000000000000000000000000000000000000000003b18e03cef86000000000000000000000000000000000000000000000000000000000000000000000000000000000000000000000000000000000000000000000000000000000000000000000000000000000000000000000000000000000000000000000000000000000000000000000000000005324c970713450ba0bc12efd840034fcb0a4baa000000000000000000000000000000000000000000000000000000000000000000000000000000000000000000000000000000000000000000000000000000000000000000000000000000000000000000000000000000000000000000000000000000000000000000000000000000000000000000000000000000000000000000000000000000000000000000000000000000000000000000000000000000000000000000000000000000000000000000000000000000000000000000000000000000000000000000000000000000000000000000000000000000000000000000000000000000000000000000000000000000000000000000000000000000000000000000000000000000000000000000000000000000000000000000000000",
                    "logDecoded": true,
                    "operation": "EVENT",
                    "revert": false,
                    "status": true,
                    "topics": [
                        "0xb7faaf58a53a3a4bdfdd90dff44b713036c882f23772663c180bf72866f44c1c",
                        "0x0000000000000000000000000000000000000000000000000000000000000000",
                        "0x000000000000000000000000bd3531da5cf5857e7cfaa92426877b022e612cf8",
                        "0x0000000000000000000000000000000000000000000000000000000000000cfc"
                    ]
                },
                "nodeType": 1
            },
            "37": {
                "invocation": {
                    "address": "0xc02aaa39b223fe8d0a0e5c4f27ead9083c756cc2",
                    "callData": "0x000000000000000000000000c490e4646a91c3cbafa8c55540c94dcd0212037e",
                    "decodedMethod": {
                        "callParams": [
                            {
                                "name": "",
                                "type": "address",
                                "value": "0xc490e4646a91c3cbafa8c55540c94dcd0212037e"
                            }
                        ],
                        "constructorArguments": "",
                        "name": "balanceOf",
                        "returnParams": [
                            {
                                "decimalAvailable": true,
                                "name": "",
                                "type": "uint256",
                                "value": "4,258,406,418,525,182,144"
                            }
                        ],
                        "signature": "balanceOf(address)"
                    },
                    "errorInfo": "",
                    "fromAddress": "0x1d5586da44328f28bfbbf59b808a87584355b3ef",
                    "gasUsed": 534,
                    "id": 37,
                    "methodDecoded": true,
                    "operation": "STATICCALL",
                    "output": "0x0000000000000000000000000000000000000000000000003b18e6135d6fd8c0",
                    "revert": false,
                    "revertMessage": "",
                    "selector": "0x70a08231",
                    "status": true,
                    "value": "0"
                },
                "nodeType": 0
            },
            "38": {
                "event": {
                    "contract": "0x1d5586da44328f28bfbbf59b808a87584355b3ef",
                    "decodedLog": null,
                    "id": 38,
                    "logData": "0x0000000000000000000000000000000000000000000000000000000000000020000000000000000000000000000000000000000000000000000000000000000a446f6e6520726570617900000000000000000000000000000000000000000000",
                    "logDecoded": false,
                    "operation": "EVENT",
                    "revert": false,
                    "status": true,
                    "topics": [
                        "0x00467151cfd444517705ab188779d73a34223ae980dd9b7cbcc0121e339f3f42"
                    ]
                },
                "nodeType": 1
            },
            "39": {
                "invocation": {
                    "address": "0xc02aaa39b223fe8d0a0e5c4f27ead9083c756cc2",
                    "callData": "0x000000000000000000000000c490e4646a91c3cbafa8c55540c94dcd0212037e",
                    "decodedMethod": {
                        "callParams": [
                            {
                                "name": "",
                                "type": "address",
                                "value": "0xc490e4646a91c3cbafa8c55540c94dcd0212037e"
                            }
                        ],
                        "constructorArguments": "",
                        "name": "balanceOf",
                        "returnParams": [
                            {
                                "decimalAvailable": true,
                                "name": "",
                                "type": "uint256",
                                "value": "4,258,406,418,525,182,144"
                            }
                        ],
                        "signature": "balanceOf(address)"
                    },
                    "errorInfo": "",
                    "fromAddress": "0x1d5586da44328f28bfbbf59b808a87584355b3ef",
                    "gasUsed": 534,
                    "id": 39,
                    "methodDecoded": true,
                    "operation": "STATICCALL",
                    "output": "0x0000000000000000000000000000000000000000000000003b18e6135d6fd8c0",
                    "revert": false,
                    "revertMessage": "",
                    "selector": "0x70a08231",
                    "status": true,
                    "value": "0"
                },
                "nodeType": 0
            },
            "4": {
                "invocation": {
                    "address": "0x4cb4e3d9e2032e4561ae93ec4815126371bbd0ce",
                    "callData": "0x0000000000000000000000001d5586da44328f28bfbbf59b808a87584355b3ef000000000000000000000000c02aaa39b223fe8d0a0e5c4f27ead9083c756cc200000000000000000000000000000000000000000000000065feaf04a6ccbe08000000000000000000000000000000000000000000000000000000000000008000000000000000000000000000000000000000000000000000000000000000600000000000000000000000000000000000000000000000000000000000000cfc000000000000000000000000c3f4659588b13f23e09ec54783a3c407e39ad589000000000000000000000000c490e4646a91c3cbafa8c55540c94dcd0212037e",
                    "decodedMethod": {
                        "callParams": [
                            {
                                "name": "_receiver",
                                "type": "address",
                                "value": "0x1d5586da44328f28bfbbf59b808a87584355b3ef"
                            },
                            {
                                "name": "_reserve",
                                "type": "address",
                                "value": "0xc02aaa39b223fe8d0a0e5c4f27ead9083c756cc2"
                            },
                            {
                                "name": "_amount",
                                "type": "uint256",
                                "value": "7,349,504,076,428,393,992"
                            },
                            {
                                "name": "_params",
                                "type": "bytes",
                                "value": "0x0000000000000000000000000000000000000000000000000000000000000cfc000000000000000000000000c3f4659588b13f23e09ec54783a3c407e39ad589000000000000000000000000c490e4646a91c3cbafa8c55540c94dcd0212037e"
                            }
                        ],
                        "constructorArguments": "",
                        "name": "flashLoan",
                        "returnParams": [],
                        "signature": "flashLoan(address,address,uint256,bytes)"
                    },
                    "errorInfo": "",
                    "fromAddress": "0x2405913d54fc46eeaf3fb092bfb099f46803872f",
                    "gasUsed": 382062,
                    "id": 4,
                    "methodDecoded": true,
                    "operation": "DELEGATECALL",
                    "output": "",
                    "revert": false,
                    "revertMessage": "",
                    "selector": "0x5cffe9de",
                    "status": true,
                    "value": "0"
                },
                "nodeType": 0
            },
            "40": {
                "invocation": {
                    "address": "0xc02aaa39b223fe8d0a0e5c4f27ead9083c756cc2",
                    "callData": "0x",
                    "decodedMethod": {
                        "callParams": [],
                        "constructorArguments": "",
                        "name": "deposit",
                        "returnParams": [],
                        "signature": "deposit()"
                    },
                    "errorInfo": "",
                    "fromAddress": "0x1d5586da44328f28bfbbf59b808a87584355b3ef",
                    "gasUsed": 2074,
                    "id": 40,
                    "methodDecoded": true,
                    "operation": "CALL",
                    "output": "",
                    "revert": false,
                    "revertMessage": "",
                    "selector": "0xd0e30db0",
                    "status": true,
                    "value": "0.3"
                },
                "nodeType": 0
            },
            "41": {
                "event": {
                    "contract": "0xc02aaa39b223fe8d0a0e5c4f27ead9083c756cc2",
                    "decodedLog": {
                        "name": "Deposit",
                        "params": [
                            {
                                "name": "dst",
                                "type": "address",
                                "value": "0x1d5586da44328f28bfbbf59b808a87584355b3ef"
                            },
                            {
                                "name": "wad",
                                "type": "uint256",
                                "value": "300,000,000,000,000,000"
                            }
                        ],
                        "signature": "Deposit(address,uint256)"
                    },
                    "id": 41,
                    "logData": "0x0000000000000000000000000000000000000000000000000429d069189e0000",
                    "logDecoded": true,
                    "operation": "EVENT",
                    "revert": false,
                    "status": true,
                    "topics": [
                        "0xe1fffcc4923d04b559f4d29a8bfc6cda04eb5b0d3c460751c2402c5c5cc9109c",
                        "0x0000000000000000000000001d5586da44328f28bfbbf59b808a87584355b3ef"
                    ]
                },
                "nodeType": 1
            },
            "42": {
                "invocation": {
                    "address": "0xc02aaa39b223fe8d0a0e5c4f27ead9083c756cc2",
                    "callData": "0x000000000000000000000000c490e4646a91c3cbafa8c55540c94dcd0212037e0000000000000000000000000000000000000000000000002ae5c8f1495ce548",
                    "decodedMethod": {
                        "callParams": [
                            {
                                "name": "dst",
                                "type": "address",
                                "value": "0xc490e4646a91c3cbafa8c55540c94dcd0212037e"
                            },
                            {
                                "decimalAvailable": true,
                                "name": "wad",
                                "type": "uint256",
                                "value": "3,091,097,657,903,211,848"
                            }
                        ],
                        "constructorArguments": "",
                        "name": "transfer",
                        "returnParams": [
                            {
                                "name": "",
                                "type": "bool",
                                "value": true
                            }
                        ],
                        "signature": "transfer(address,uint256)"
                    },
                    "errorInfo": "",
                    "fromAddress": "0x1d5586da44328f28bfbbf59b808a87584355b3ef",
                    "gasUsed": 3262,
                    "id": 42,
                    "methodDecoded": true,
                    "operation": "CALL",
                    "output": "0x0000000000000000000000000000000000000000000000000000000000000001",
                    "revert": false,
                    "revertMessage": "",
                    "selector": "0xa9059cbb",
                    "status": true,
                    "value": "0"
                },
                "nodeType": 0
            },
            "43": {
                "event": {
                    "contract": "0xc02aaa39b223fe8d0a0e5c4f27ead9083c756cc2",
                    "decodedLog": {
                        "name": "Transfer",
                        "params": [
                            {
                                "name": "src",
                                "type": "address",
                                "value": "0x1d5586da44328f28bfbbf59b808a87584355b3ef"
                            },
                            {
                                "name": "dst",
                                "type": "address",
                                "value": "0xc490e4646a91c3cbafa8c55540c94dcd0212037e"
                            },
                            {
                                "decimalAvailable": true,
                                "name": "wad",
                                "type": "uint256",
                                "value": "3,091,097,657,903,211,848"
                            }
                        ],
                        "signature": "Transfer(address,address,uint256)"
                    },
                    "id": 43,
                    "logData": "0x0000000000000000000000000000000000000000000000002ae5c8f1495ce548",
                    "logDecoded": true,
                    "operation": "EVENT",
                    "revert": false,
                    "status": true,
                    "topics": [
                        "0xddf252ad1be2c89b69c2b068fc378daa952ba7f163c4a11628f55a4df523b3ef",
                        "0x0000000000000000000000001d5586da44328f28bfbbf59b808a87584355b3ef",
                        "0x000000000000000000000000c490e4646a91c3cbafa8c55540c94dcd0212037e"
                    ]
                },
                "nodeType": 1
            },
            "44": {
                "invocation": {
                    "address": "0xc02aaa39b223fe8d0a0e5c4f27ead9083c756cc2",
                    "callData": "0x000000000000000000000000c490e4646a91c3cbafa8c55540c94dcd0212037e",
                    "decodedMethod": {
                        "callParams": [
                            {
                                "name": "",
                                "type": "address",
                                "value": "0xc490e4646a91c3cbafa8c55540c94dcd0212037e"
                            }
                        ],
                        "constructorArguments": "",
                        "name": "balanceOf",
                        "returnParams": [
                            {
                                "decimalAvailable": true,
                                "name": "",
                                "type": "uint256",
                                "value": "7,349,504,076,428,393,992"
                            }
                        ],
                        "signature": "balanceOf(address)"
                    },
                    "errorInfo": "",
                    "fromAddress": "0x2405913d54fc46eeaf3fb092bfb099f46803872f",
                    "gasUsed": 534,
                    "id": 44,
                    "methodDecoded": true,
                    "operation": "STATICCALL",
                    "output": "0x00000000000000000000000000000000000000000000000065feaf04a6ccbe08",
                    "revert": false,
                    "revertMessage": "",
                    "selector": "0x70a08231",
                    "status": true,
                    "value": "0"
                },
                "nodeType": 0
            },
            "5": {
                "invocation": {
                    "address": "0xc02aaa39b223fe8d0a0e5c4f27ead9083c756cc2",
                    "callData": "0x000000000000000000000000c490e4646a91c3cbafa8c55540c94dcd0212037e",
                    "decodedMethod": {
                        "callParams": [
                            {
                                "name": "",
                                "type": "address",
                                "value": "0xc490e4646a91c3cbafa8c55540c94dcd0212037e"
                            }
                        ],
                        "constructorArguments": "",
                        "name": "balanceOf",
                        "returnParams": [
                            {
                                "decimalAvailable": true,
                                "name": "",
                                "type": "uint256",
                                "value": "7,349,504,076,428,393,992"
                            }
                        ],
                        "signature": "balanceOf(address)"
                    },
                    "errorInfo": "",
                    "fromAddress": "0x2405913d54fc46eeaf3fb092bfb099f46803872f",
                    "gasUsed": 534,
                    "id": 5,
                    "methodDecoded": true,
                    "operation": "STATICCALL",
                    "output": "0x00000000000000000000000000000000000000000000000065feaf04a6ccbe08",
                    "revert": false,
                    "revertMessage": "",
                    "selector": "0x70a08231",
                    "status": true,
                    "value": "0"
                },
                "nodeType": 0
            },
            "6": {
                "invocation": {
                    "address": "0xc02aaa39b223fe8d0a0e5c4f27ead9083c756cc2",
                    "callData": "0x000000000000000000000000c490e4646a91c3cbafa8c55540c94dcd0212037e0000000000000000000000001d5586da44328f28bfbbf59b808a87584355b3ef00000000000000000000000000000000000000000000000065feaf04a6ccbe08",
                    "decodedMethod": {
                        "callParams": [
                            {
                                "name": "src",
                                "type": "address",
                                "value": "0xc490e4646a91c3cbafa8c55540c94dcd0212037e"
                            },
                            {
                                "name": "dst",
                                "type": "address",
                                "value": "0x1d5586da44328f28bfbbf59b808a87584355b3ef"
                            },
                            {
                                "decimalAvailable": true,
                                "name": "wad",
                                "type": "uint256",
                                "value": "7,349,504,076,428,393,992"
                            }
                        ],
                        "constructorArguments": "",
                        "name": "transferFrom",
                        "returnParams": [
                            {
                                "name": "",
                                "type": "bool",
                                "value": true
                            }
                        ],
                        "signature": "transferFrom(address,address,uint256)"
                    },
                    "errorInfo": "",
                    "fromAddress": "0x2405913d54fc46eeaf3fb092bfb099f46803872f",
                    "gasUsed": 31648,
                    "id": 6,
                    "methodDecoded": true,
                    "operation": "CALL",
                    "output": "0x0000000000000000000000000000000000000000000000000000000000000001",
                    "revert": false,
                    "revertMessage": "",
                    "selector": "0x23b872dd",
                    "status": true,
                    "value": "0"
                },
                "nodeType": 0
            },
            "7": {
                "event": {
                    "contract": "0xc02aaa39b223fe8d0a0e5c4f27ead9083c756cc2",
                    "decodedLog": {
                        "name": "Transfer",
                        "params": [
                            {
                                "name": "src",
                                "type": "address",
                                "value": "0xc490e4646a91c3cbafa8c55540c94dcd0212037e"
                            },
                            {
                                "name": "dst",
                                "type": "address",
                                "value": "0x1d5586da44328f28bfbbf59b808a87584355b3ef"
                            },
                            {
                                "decimalAvailable": true,
                                "name": "wad",
                                "type": "uint256",
                                "value": "7,349,504,076,428,393,992"
                            }
                        ],
                        "signature": "Transfer(address,address,uint256)"
                    },
                    "id": 7,
                    "logData": "0x00000000000000000000000000000000000000000000000065feaf04a6ccbe08",
                    "logDecoded": true,
                    "operation": "EVENT",
                    "revert": false,
                    "status": true,
                    "topics": [
                        "0xddf252ad1be2c89b69c2b068fc378daa952ba7f163c4a11628f55a4df523b3ef",
                        "0x000000000000000000000000c490e4646a91c3cbafa8c55540c94dcd0212037e",
                        "0x0000000000000000000000001d5586da44328f28bfbbf59b808a87584355b3ef"
                    ]
                },
                "nodeType": 1
            },
            "8": {
                "invocation": {
                    "address": "0x1d5586da44328f28bfbbf59b808a87584355b3ef",
                    "callData": "0x000000000000000000000000c02aaa39b223fe8d0a0e5c4f27ead9083c756cc200000000000000000000000000000000000000000000000065feaf04a6ccbe080000000000000000000000000000000000000000000000000000000000000000000000000000000000000000000000000000000000000000000000000000008000000000000000000000000000000000000000000000000000000000000000600000000000000000000000000000000000000000000000000000000000000cfc000000000000000000000000c3f4659588b13f23e09ec54783a3c407e39ad589000000000000000000000000c490e4646a91c3cbafa8c55540c94dcd0212037e",
                    "decodedMethod": {
                        "callParams": [
                            {
                                "name": "_reserve",
                                "type": "address",
                                "value": "0xc02aaa39b223fe8d0a0e5c4f27ead9083c756cc2"
                            },
                            {
                                "name": "_amount",
                                "type": "uint256",
                                "value": "7,349,504,076,428,393,992"
                            },
                            {
                                "name": "_fee",
                                "type": "uint256",
                                "value": "0"
                            },
                            {
                                "name": "_params",
                                "type": "bytes",
                                "value": "0x0000000000000000000000000000000000000000000000000000000000000cfc000000000000000000000000c3f4659588b13f23e09ec54783a3c407e39ad589000000000000000000000000c490e4646a91c3cbafa8c55540c94dcd0212037e"
                            }
                        ],
                        "constructorArguments": "",
                        "name": "executeOperation",
                        "returnParams": [],
                        "signature": "executeOperation(address,uint256,uint256,bytes)"
                    },
                    "errorInfo": "",
                    "fromAddress": "0x2405913d54fc46eeaf3fb092bfb099f46803872f",
                    "gasUsed": 338151,
                    "id": 8,
                    "methodDecoded": true,
                    "operation": "CALL",
                    "output": "",
                    "revert": false,
                    "revertMessage": "",
                    "selector": "0xee872558",
                    "status": true,
                    "value": "0"
                },
                "nodeType": 0
            },
            "9": {
                "invocation": {
                    "address": "0xc02aaa39b223fe8d0a0e5c4f27ead9083c756cc2",
                    "callData": "0x000000000000000000000000c3f4659588b13f23e09ec54783a3c407e39ad589ffffffffffffffffffffffffffffffffffffffffffffffffffffffffffffffff",
                    "decodedMethod": {
                        "callParams": [
                            {
                                "name": "guy",
                                "type": "address",
                                "value": "0xc3f4659588b13f23e09ec54783a3c407e39ad589"
                            },
                            {
                                "decimalAvailable": true,
                                "name": "wad",
                                "type": "uint256",
                                "value": "115,792,089,237,316,195,423,570,985,008,687,907,853,269,984,665,640,564,039,457,584,007,913,129,639,935"
                            }
                        ],
                        "constructorArguments": "",
                        "name": "approve",
                        "returnParams": [
                            {
                                "name": "",
                                "type": "bool",
                                "value": true
                            }
                        ],
                        "signature": "approve(address,uint256)"
                    },
                    "errorInfo": "",
                    "fromAddress": "0x1d5586da44328f28bfbbf59b808a87584355b3ef",
                    "gasUsed": 24420,
                    "id": 9,
                    "methodDecoded": true,
                    "operation": "CALL",
                    "output": "0x0000000000000000000000000000000000000000000000000000000000000001",
                    "revert": false,
                    "revertMessage": "",
                    "selector": "0x095ea7b3",
                    "status": true,
                    "value": "0"
                },
                "nodeType": 0
            }
        },
        "gasFlame": [
            {
                "children": [
                    {
                        "children": [
                            {
                                "children": [],
                                "depth": 0,
                                "name": "Initial Gas",
                                "value": 22320
                            },
                            {
                                "children": [
                                    {
                                        "children": [],
                                        "depth": 1,
                                        "name": "allowance",
                                        "value": 2717
                                    },
                                    {
                                        "children": [],
                                        "depth": 1,
                                        "name": "balanceOf",
                                        "value": 2534
                                    },
                                    {
                                        "children": [
                                            {
                                                "children": [
                                                    {
                                                        "children": [],
                                                        "depth": 3,
                                                        "name": "balanceOf",
                                                        "value": 534
                                                    },
                                                    {
                                                        "children": [],
                                                        "depth": 3,
                                                        "name": "transferFrom",
                                                        "value": 31648
                                                    },
                                                    {
                                                        "children": [
                                                            {
                                                                "children": [],
                                                                "depth": 4,
                                                                "name": "approve",
                                                                "value": 24420
                                                            },
                                                            {
                                                                "children": [],
                                                                "depth": 4,
                                                                "name": "balanceOf",
                                                                "value": 534
                                                            },
                                                            {
                                                                "children": [
                                                                    {
                                                                        "children": [],
                                                                        "depth": 5,
                                                                        "name": "implementation",
                                                                        "value": 2308
                                                                    },
                                                                    {
                                                                        "children": [
                                                                            {
                                                                                "children": [],
                                                                                "depth": 6,
                                                                                "name": "isApprovedForAll",
                                                                                "value": 3305
                                                                            },
                                                                            {
                                                                                "children": [],
                                                                                "depth": 6,
                                                                                "name": "getClientRateByLenderRatePerBlock",
                                                                                "value": 8809
                                                                            },
                                                                            {
                                                                                "children": [],
                                                                                "depth": 6,
                                                                                "name": "0xd4d30063",
                                                                                "value": 2439
                                                                            },
                                                                            {
                                                                                "children": [],
                                                                                "depth": 6,
                                                                                "name": "transferFrom",
                                                                                "value": 25325
                                                                            },
                                                                            {
                                                                                "children": [],
                                                                                "depth": 6,
                                                                                "name": "0xdf9a33b7",
                                                                                "value": 2934
                                                                            },
                                                                            {
                                                                                "children": [],
                                                                                "depth": 6,
                                                                                "name": "0xdf9a33b7",
                                                                                "value": 2934
                                                                            },
                                                                            {
                                                                                "children": [],
                                                                                "depth": 6,
                                                                                "name": "transfer",
                                                                                "value": 23162
                                                                            },
                                                                            {
                                                                                "children": [],
                                                                                "depth": 6,
                                                                                "name": "0xdf9a33b7",
                                                                                "value": 2934
                                                                            },
                                                                            {
                                                                                "children": [],
                                                                                "depth": 6,
                                                                                "name": "transferFrom",
                                                                                "value": 75179
                                                                            },
                                                                            {
                                                                                "children": [],
                                                                                "depth": 6,
                                                                                "name": "getFeeCutBpsByLenderRatePerBlock",
                                                                                "value": 8900
                                                                            },
                                                                            {
                                                                                "children": [],
                                                                                "depth": 6,
                                                                                "name": "balanceOf",
                                                                                "value": 534
                                                                            },
                                                                            {
                                                                                "children": [],
                                                                                "depth": 6,
                                                                                "name": "transferFrom",
                                                                                "value": 3132
                                                                            },
                                                                            {
                                                                                "children": [],
                                                                                "depth": 6,
                                                                                "name": "getFeeCutBpsByLenderRatePerBlock",
                                                                                "value": 8900
                                                                            },
                                                                            {
                                                                                "children": [],
                                                                                "depth": 6,
                                                                                "name": "transferFrom",
                                                                                "value": 7932
                                                                            },
                                                                            {
                                                                                "children": [],
                                                                                "depth": 6,
                                                                                "name": "ownerOf",
                                                                                "value": 1006
                                                                            }
                                                                        ],
                                                                        "depth": 5,
                                                                        "name": "repay",
                                                                        "value": 281230
                                                                    }
                                                                ],
                                                                "depth": 4,
                                                                "name": "repay",
                                                                "value": 291463
                                                            },
                                                            {
                                                                "children": [],
                                                                "depth": 4,
                                                                "name": "balanceOf",
                                                                "value": 534
                                                            },
                                                            {
                                                                "children": [],
                                                                "depth": 4,
                                                                "name": "balanceOf",
                                                                "value": 534
                                                            },
                                                            {
                                                                "children": [],
                                                                "depth": 4,
                                                                "name": "deposit",
                                                                "value": 2074
                                                            },
                                                            {
                                                                "children": [],
                                                                "depth": 4,
                                                                "name": "transfer",
                                                                "value": 3262
                                                            }
                                                        ],
                                                        "depth": 3,
                                                        "name": "executeOperation",
                                                        "value": 338151
                                                    },
                                                    {
                                                        "children": [],
                                                        "depth": 3,
                                                        "name": "balanceOf",
                                                        "value": 534
                                                    }
                                                ],
                                                "depth": 2,
                                                "name": "flashLoan",
                                                "value": 382062
                                            }
                                        ],
                                        "depth": 1,
                                        "name": "flashLoan",
                                        "value": 384773
                                    }
                                ],
                                "depth": 0,
                                "name": "Executed Gas",
                                "value": 399718
                            }
                        ],
                        "depth": -1,
                        "name": "Actual Gas Used",
                        "value": 337631
                    },
                    {
                        "children": [],
                        "depth": -1,
                        "name": "Refunded Gas",
                        "value": 84407
                    }
                ],
                "depth": -2,
                "name": "Total Gas",
                "value": 422038
            }
        ],
        "isConfirmed": true,
        "mainTrace": [
            {
                "children": [
                    {
                        "children": [
                            {
                                "children": [],
                                "depth": 1,
                                "id": 1,
                                "order": 1
                            },
                            {
                                "children": [],
                                "depth": 1,
                                "id": 2,
                                "order": 2
                            },
                            {
                                "children": [
                                    {
                                        "children": [
                                            {
                                                "children": [],
                                                "depth": 3,
                                                "id": 5,
                                                "order": 5
                                            },
                                            {
                                                "children": [
                                                    {
                                                        "children": [],
                                                        "depth": 4,
                                                        "id": 7,
                                                        "order": 7
                                                    }
                                                ],
                                                "depth": 3,
                                                "id": 6,
                                                "order": 6
                                            },
                                            {
                                                "children": [
                                                    {
                                                        "children": [
                                                            {
                                                                "children": [],
                                                                "depth": 5,
                                                                "id": 10,
                                                                "order": 10
                                                            }
                                                        ],
                                                        "depth": 4,
                                                        "id": 9,
                                                        "order": 9
                                                    },
                                                    {
                                                        "children": [],
                                                        "depth": 4,
                                                        "id": 11,
                                                        "order": 11
                                                    },
                                                    {
                                                        "children": [
                                                            {
                                                                "children": [],
                                                                "depth": 5,
                                                                "id": 13,
                                                                "order": 13
                                                            },
                                                            {
                                                                "children": [
                                                                    {
                                                                        "children": [],
                                                                        "depth": 6,
                                                                        "id": 15,
                                                                        "order": 15
                                                                    },
                                                                    {
                                                                        "children": [],
                                                                        "depth": 6,
                                                                        "id": 16,
                                                                        "order": 16
                                                                    },
                                                                    {
                                                                        "children": [],
                                                                        "depth": 6,
                                                                        "id": 17,
                                                                        "order": 17
                                                                    },
                                                                    {
                                                                        "children": [
                                                                            {
                                                                                "children": [],
                                                                                "depth": 7,
                                                                                "id": 19,
                                                                                "order": 19
                                                                            }
                                                                        ],
                                                                        "depth": 6,
                                                                        "id": 18,
                                                                        "order": 18
                                                                    },
                                                                    {
                                                                        "children": [],
                                                                        "depth": 6,
                                                                        "id": 20,
                                                                        "order": 20
                                                                    },
                                                                    {
                                                                        "children": [],
                                                                        "depth": 6,
                                                                        "id": 21,
                                                                        "order": 21
                                                                    },
                                                                    {
                                                                        "children": [
                                                                            {
                                                                                "children": [],
                                                                                "depth": 7,
                                                                                "id": 23,
                                                                                "order": 23
                                                                            }
                                                                        ],
                                                                        "depth": 6,
                                                                        "id": 22,
                                                                        "order": 22
                                                                    },
                                                                    {
                                                                        "children": [],
                                                                        "depth": 6,
                                                                        "id": 24,
                                                                        "order": 24
                                                                    },
                                                                    {
                                                                        "children": [
                                                                            {
                                                                                "children": [],
                                                                                "depth": 7,
                                                                                "id": 26,
                                                                                "order": 26
                                                                            },
                                                                            {
                                                                                "children": [],
                                                                                "depth": 7,
                                                                                "id": 27,
                                                                                "order": 27
                                                                            }
                                                                        ],
                                                                        "depth": 6,
                                                                        "id": 25,
                                                                        "order": 25
                                                                    },
                                                                    {
                                                                        "children": [],
                                                                        "depth": 6,
                                                                        "id": 28,
                                                                        "order": 28
                                                                    },
                                                                    {
                                                                        "children": [],
                                                                        "depth": 6,
                                                                        "id": 29,
                                                                        "order": 29
                                                                    },
                                                                    {
                                                                        "children": [
                                                                            {
                                                                                "children": [],
                                                                                "depth": 7,
                                                                                "id": 31,
                                                                                "order": 31
                                                                            }
                                                                        ],
                                                                        "depth": 6,
                                                                        "id": 30,
                                                                        "order": 30
                                                                    },
                                                                    {
                                                                        "children": [],
                                                                        "depth": 6,
                                                                        "id": 32,
                                                                        "order": 32
                                                                    },
                                                                    {
                                                                        "children": [
                                                                            {
                                                                                "children": [],
                                                                                "depth": 7,
                                                                                "id": 34,
                                                                                "order": 34
                                                                            }
                                                                        ],
                                                                        "depth": 6,
                                                                        "id": 33,
                                                                        "order": 33
                                                                    },
                                                                    {
                                                                        "children": [],
                                                                        "depth": 6,
                                                                        "id": 35,
                                                                        "order": 35
                                                                    },
                                                                    {
                                                                        "children": [],
                                                                        "depth": 6,
                                                                        "id": 36,
                                                                        "order": 36
                                                                    }
                                                                ],
                                                                "depth": 5,
                                                                "id": 14,
                                                                "order": 14
                                                            }
                                                        ],
                                                        "depth": 4,
                                                        "id": 12,
                                                        "order": 12
                                                    },
                                                    {
                                                        "children": [],
                                                        "depth": 4,
                                                        "id": 37,
                                                        "order": 37
                                                    },
                                                    {
                                                        "children": [],
                                                        "depth": 4,
                                                        "id": 38,
                                                        "order": 38
                                                    },
                                                    {
                                                        "children": [],
                                                        "depth": 4,
                                                        "id": 39,
                                                        "order": 39
                                                    },
                                                    {
                                                        "children": [
                                                            {
                                                                "children": [],
                                                                "depth": 5,
                                                                "id": 41,
                                                                "order": 41
                                                            }
                                                        ],
                                                        "depth": 4,
                                                        "id": 40,
                                                        "order": 40
                                                    },
                                                    {
                                                        "children": [
                                                            {
                                                                "children": [],
                                                                "depth": 5,
                                                                "id": 43,
                                                                "order": 43
                                                            }
                                                        ],
                                                        "depth": 4,
                                                        "id": 42,
                                                        "order": 42
                                                    }
                                                ],
                                                "depth": 3,
                                                "id": 8,
                                                "order": 8
                                            },
                                            {
                                                "children": [],
                                                "depth": 3,
                                                "id": 44,
                                                "order": 44
                                            }
                                        ],
                                        "depth": 2,
                                        "id": 4,
                                        "order": 4
                                    }
                                ],
                                "depth": 1,
                                "id": 3,
                                "order": 3
                            }
                        ],
                        "depth": 0,
                        "id": 0,
                        "order": 0
                    }
                ],
                "depth": -1,
                "id": -1,
                "order": -1
            }
        ],
        "mainTraceNodeCount": 45,
        "parentIdMap": {
            "0": -1,
            "1": 0,
            "10": 9,
            "11": 8,
            "12": 8,
            "13": 12,
            "14": 12,
            "15": 14,
            "16": 14,
            "17": 14,
            "18": 14,
            "19": 18,
            "2": 0,
            "20": 14,
            "21": 14,
            "22": 14,
            "23": 22,
            "24": 14,
            "25": 14,
            "26": 25,
            "27": 25,
            "28": 14,
            "29": 14,
            "3": 0,
            "30": 14,
            "31": 30,
            "32": 14,
            "33": 14,
            "34": 33,
            "35": 14,
            "36": 14,
            "37": 8,
            "38": 8,
            "39": 8,
            "4": 3,
            "40": 8,
            "41": 40,
            "42": 8,
            "43": 42,
            "44": 4,
            "5": 4,
            "6": 4,
            "7": 6,
            "8": 4,
            "9": 8
        },
        "tidyTrace": [
            {
                "children": [
                    {
                        "children": [
                            {
                                "children": [
                                    {
                                        "children": [
                                            {
                                                "children": [
                                                    {
                                                        "children": [],
                                                        "depth": 4,
                                                        "id": 7,
                                                        "order": 7
                                                    }
                                                ],
                                                "depth": 3,
                                                "id": 6,
                                                "order": 6
                                            },
                                            {
                                                "children": [
                                                    {
                                                        "children": [
                                                            {
                                                                "children": [],
                                                                "depth": 5,
                                                                "id": 10,
                                                                "order": 10
                                                            }
                                                        ],
                                                        "depth": 4,
                                                        "id": 9,
                                                        "order": 9
                                                    },
                                                    {
                                                        "children": [
                                                            {
                                                                "children": [
                                                                    {
                                                                        "children": [],
                                                                        "depth": 6,
                                                                        "id": 17,
                                                                        "order": 17
                                                                    },
                                                                    {
                                                                        "children": [
                                                                            {
                                                                                "children": [],
                                                                                "depth": 7,
                                                                                "id": 19,
                                                                                "order": 19
                                                                            }
                                                                        ],
                                                                        "depth": 6,
                                                                        "id": 18,
                                                                        "order": 18
                                                                    },
                                                                    {
                                                                        "children": [],
                                                                        "depth": 6,
                                                                        "id": 20,
                                                                        "order": 20
                                                                    },
                                                                    {
                                                                        "children": [],
                                                                        "depth": 6,
                                                                        "id": 21,
                                                                        "order": 21
                                                                    },
                                                                    {
                                                                        "children": [
                                                                            {
                                                                                "children": [],
                                                                                "depth": 7,
                                                                                "id": 23,
                                                                                "order": 23
                                                                            }
                                                                        ],
                                                                        "depth": 6,
                                                                        "id": 22,
                                                                        "order": 22
                                                                    },
                                                                    {
                                                                        "children": [],
                                                                        "depth": 6,
                                                                        "id": 24,
                                                                        "order": 24
                                                                    },
                                                                    {
                                                                        "children": [
                                                                            {
                                                                                "children": [],
                                                                                "depth": 7,
                                                                                "id": 26,
                                                                                "order": 26
                                                                            },
                                                                            {
                                                                                "children": [],
                                                                                "depth": 7,
                                                                                "id": 27,
                                                                                "order": 27
                                                                            }
                                                                        ],
                                                                        "depth": 6,
                                                                        "id": 25,
                                                                        "order": 25
                                                                    },
                                                                    {
                                                                        "children": [
                                                                            {
                                                                                "children": [],
                                                                                "depth": 7,
                                                                                "id": 31,
                                                                                "order": 31
                                                                            }
                                                                        ],
                                                                        "depth": 6,
                                                                        "id": 30,
                                                                        "order": 30
                                                                    },
                                                                    {
                                                                        "children": [
                                                                            {
                                                                                "children": [],
                                                                                "depth": 7,
                                                                                "id": 34,
                                                                                "order": 34
                                                                            }
                                                                        ],
                                                                        "depth": 6,
                                                                        "id": 33,
                                                                        "order": 33
                                                                    },
                                                                    {
                                                                        "children": [],
                                                                        "depth": 6,
                                                                        "id": 36,
                                                                        "order": 36
                                                                    }
                                                                ],
                                                                "depth": 5,
                                                                "id": 14,
                                                                "order": 14
                                                            }
                                                        ],
                                                        "depth": 4,
                                                        "id": 12,
                                                        "order": 12
                                                    },
                                                    {
                                                        "children": [],
                                                        "depth": 4,
                                                        "id": 38,
                                                        "order": 38
                                                    },
                                                    {
                                                        "children": [
                                                            {
                                                                "children": [],
                                                                "depth": 5,
                                                                "id": 41,
                                                                "order": 41
                                                            }
                                                        ],
                                                        "depth": 4,
                                                        "id": 40,
                                                        "order": 40
                                                    },
                                                    {
                                                        "children": [
                                                            {
                                                                "children": [],
                                                                "depth": 5,
                                                                "id": 43,
                                                                "order": 43
                                                            }
                                                        ],
                                                        "depth": 4,
                                                        "id": 42,
                                                        "order": 42
                                                    }
                                                ],
                                                "depth": 3,
                                                "id": 8,
                                                "order": 8
                                            }
                                        ],
                                        "depth": 2,
                                        "id": 4,
                                        "order": 4
                                    }
                                ],
                                "depth": 1,
                                "id": 3,
                                "order": 3
                            }
                        ],
                        "depth": 0,
                        "id": 0,
                        "order": 0
                    }
                ],
                "depth": -1,
                "id": -1,
                "order": -1
            }
        ],
        "tidyTraceNodeCount": 31
    },
    "state_change": {
        "stateChanges": [
            {
                "address": "0xbd3531da5cf5857e7cfaa92426877b022e612cf8",
                "erc": "ERC-721",
                "slots": [
                    {
                        "current": "0x0000000000000000000000000000000000000000000000000000000000000000",
                        "key": "0x58c27edcdf1da5e7958da27dd706966eade1470056c99181b068145eee28b164",
                        "prev": "0x0000000000000000000000000000000000000000000000000000000000000001"
                    },
                    {
                        "current": "0x0000000000000000000000000000000000000000000000000000000000000001",
                        "key": "0xa92a27de02bf1784d196300f4685a4c5cbf43c9124303ba64cd285755963352b",
                        "prev": "0x0000000000000000000000000000000000000000000000000000000000000000"
                    },
                    {
                        "current": "0x00000000000000000000000005324c970713450ba0bc12efd840034fcb0a4baa",
                        "key": "0x4abc96802bdabf83adef3404c3ba01beff75673851d25e3e0761d806e75cc80b",
                        "prev": "0x000000000000000000000000c3f4659588b13f23e09ec54783a3c407e39ad589"
                    },
                    {
                        "current": "0x0000000000000000000000000000000000000000000000000000000000000000",
                        "key": "0xdad244714d17eeafb4bbe0a6b6d83efd6dc0d89cfd21249b0f44d0467a8fb518",
                        "prev": "0x0000000000000000000000000000000000000000000000000000000000000cfc"
                    },
                    {
                        "current": "0x0000000000000000000000000000000000000000000000000000000000000cfc",
                        "key": "0xafec15eef726849b2103ea288df1b5a0f5140af5bf2284a54b98863ef44bb3d6",
                        "prev": "0x0000000000000000000000000000000000000000000000000000000000000000"
                    }
                ],
                "storageVariables": [
                    {
                        "name": "_balances",
                        "type": "mapping(address => uint256)",
                        "value": {
                            "pairs": [
                                {
                                    "key": "0x05324c970713450ba0bc12efd840034fcb0a4baa",
                                    "value": {
                                        "current": "1",
                                        "prev": "0",
                                        "typeTag": 1
                                    }
                                },
                                {
                                    "key": "0xc3f4659588b13f23e09ec54783a3c407e39ad589",
                                    "value": {
                                        "current": "0",
                                        "prev": "1",
                                        "typeTag": 1
                                    }
                                }
                            ],
                            "typeTag": 4
                        }
                    },
                    {
                        "name": "_owners",
                        "type": "mapping(uint256 => address)",
                        "value": {
                            "pairs": [
                                {
                                    "key": "3324",
                                    "value": {
                                        "current": "0x05324c970713450ba0bc12efd840034fcb0a4baa",
                                        "prev": "0xc3f4659588b13f23e09ec54783a3c407e39ad589",
                                        "typeTag": 1
                                    }
                                }
                            ],
                            "typeTag": 4
                        }
                    },
                    {
                        "name": "_ownedTokens",
                        "type": "mapping(address => mapping(uint256 => uint256))",
                        "value": {
                            "pairs": [
                                {
                                    "key": "0x05324c970713450ba0bc12efd840034fcb0a4baa",
                                    "value": {
                                        "pairs": [
                                            {
                                                "key": "0",
                                                "value": {
                                                    "current": "3324",
                                                    "prev": "0",
                                                    "typeTag": 1
                                                }
                                            }
                                        ],
                                        "typeTag": 4
                                    }
                                },
                                {
                                    "key": "0xc3f4659588b13f23e09ec54783a3c407e39ad589",
                                    "value": {
                                        "pairs": [
                                            {
                                                "key": "0",
                                                "value": {
                                                    "current": "0",
                                                    "prev": "3324",
                                                    "typeTag": 1
                                                }
                                            }
                                        ],
                                        "typeTag": 4
                                    }
                                }
                            ],
                            "typeTag": 4
                        }
                    }
                ]
            },
            {
                "address": "0xc02aaa39b223fe8d0a0e5c4f27ead9083c756cc2",
                "erc": "ERC-20",
                "slots": [
                    {
                        "current": "0x00000000000000000000000000000000000000000000000001d1ac3b52776d12",
                        "key": "0xf6a49220623f429b79f097954e493a5b37e1ba0c92cf688ca01ab6bcb337a459",
                        "prev": "0x00000000000000000000000000000000000000000000000001d1a8d6a4cae6d2"
                    },
                    {
                        "current": "0x00000000000000000000000000000000000000000052b7d276c95dce3d3341f8",
                        "key": "0x91292bd784c662764cadde8b3fae9a343f7007636cbefb128be3b097fb299b77",
                        "prev": "0x00000000000000000000000000000000000000000052b7d2dcc80cd2e4000000"
                    },
                    {
                        "current": "0x0000000000000000000000000000000000000000000000000429cd046af179c0",
                        "key": "0xa2a21912fbd081e080585729570488aedf3b61a98dee5a4f6f4c1b5457f732f1",
                        "prev": "0x0000000000000000000000000000000000000000000000000000000000000000"
                    },
                    {
                        "current": "0xffffffffffffffffffffffffffffffffffffffffffffffffffffffffffffffff",
                        "key": "0x7a30ac438499dda45419266fd7a68ffa1d13139d97970163a56d437f2fc7c61c",
                        "prev": "0x0000000000000000000000000000000000000000000000000000000000000000"
                    }
                ],
                "storageVariables": [
                    {
                        "name": "balanceOf",
                        "type": "mapping(address => uint256)",
                        "value": {
                            "pairs": [
                                {
                                    "key": "0x19c56cb20e6e9598fc4d22318436f34981e481f9",
                                    "value": {
                                        "current": "131075234957061394",
                                        "prev": "131071504011683538",
                                        "typeTag": 1
                                    }
                                },
                                {
                                    "key": "0x1d5586da44328f28bfbbf59b808a87584355b3ef",
                                    "value": {
                                        "current": "299996269054622144",
                                        "prev": "0",
                                        "typeTag": 1
                                    }
                                }
                            ],
                            "typeTag": 4
                        }
                    },
                    {
                        "name": "allowance",
                        "type": "mapping(address => mapping(address => uint256))",
                        "value": {
                            "pairs": [
                                {
                                    "key": "0x1d5586da44328f28bfbbf59b808a87584355b3ef",
                                    "value": {
                                        "pairs": [
                                            {
                                                "key": "0xc3f4659588b13f23e09ec54783a3c407e39ad589",
                                                "value": {
                                                    "current": "115792089237316195423570985008687907853269984665640564039457584007913129639935",
                                                    "prev": "0",
                                                    "typeTag": 1
                                                }
                                            }
                                        ],
                                        "typeTag": 4
                                    }
                                },
                                {
                                    "key": "0xc490e4646a91c3cbafa8c55540c94dcd0212037e",
                                    "value": {
                                        "pairs": [
                                            {
                                                "key": "0x2405913d54fc46eeaf3fb092bfb099f46803872f",
                                                "value": {
                                                    "current": "99999992650495923571606008",
                                                    "prev": "100000000000000000000000000",
                                                    "typeTag": 1
                                                }
                                            }
                                        ],
                                        "typeTag": 4
                                    }
                                }
                            ],
                            "typeTag": 4
                        }
                    }
                ]
            },
            {
                "address": "0xc3f4659588b13f23e09ec54783a3c407e39ad589",
                "erc": "",
                "slots": [
                    {
                        "current": "0x0000000000000000000000000000000000000000000000000000000000000000",
                        "key": "0x00000000000000000000000000000000000000000000000000000000000000d0",
                        "prev": "0x0000000000000000000000000000000000000000000000003b18e03cef860000"
                    },
                    {
                        "current": "0x0000000000000000000000000000000000000000000000000000000000000000",
                        "key": "0xd537d06c14fb47e94c995505959c02c749bd99c48734d47fa855f8072fc19246",
                        "prev": "0x00000000000000000000000005324c970713450ba0bc12efd840034fcb0a4baa"
                    },
                    {
                        "current": "0x0000000000000000000000000000000000000000000000000000000000000000",
                        "key": "0xd537d06c14fb47e94c995505959c02c749bd99c48734d47fa855f8072fc1923f",
                        "prev": "0x00000000000000000000000000000000000000000000000000000000011f676f"
                    },
                    {
                        "current": "0x0000000000000000000000000000000000000000000000000000000000000000",
                        "key": "0xd537d06c14fb47e94c995505959c02c749bd99c48734d47fa855f8072fc19240",
                        "prev": "0x000000000000000000000000000000000000000000000000000000006596d6ef"
                    },
                    {
                        "current": "0x0000000000000000000000000000000000000000000000000000000000000000",
                        "key": "0xd537d06c14fb47e94c995505959c02c749bd99c48734d47fa855f8072fc19241",
                        "prev": "0x00000000000000000000000000000000000000000000000000000fa0000001bc"
                    },
                    {
                        "current": "0x0000000000000000000000000000000000000000000000000000000000000000",
                        "key": "0xd537d06c14fb47e94c995505959c02c749bd99c48734d47fa855f8072fc19242",
                        "prev": "0x0000000000000000000000000000000000000000000000003b18e03cef860000"
                    }
                ],
                "storageVariables": []
            }
        ]
    }
}