{
    "balance_change": {
        "balanceChanges": [
            {
                "account": "0x59c686272e6f11dc8701a162f938fb085d940ad3",
                "assets": [
                    {
                        "address": "0xeeeeeeeeeeeeeeeeeeeeeeeeeeeeeeeeeeeeeeee",
                        "amount": "297.897796173333552624",
                        "iconUrl": "https://assets.blocksec.com/image/1663669189317-2.png",
                        "isERC1155": false,
                        "isERC721": false,
                        "sign": true,
                        "value": "125581.7262"
                    }
                ]
            },
            {
                "account": "0x0ed7e52944161450477ee417de9cd3a859b14fd0",
                "assets": [
                    {
                        "address": "0xbb4cdb9cbd36b01bd1cbaebf2de08d9173bc095c",
                        "amount": "30",
                        "iconUrl": "https://assets.blocksec.com/icon/65a007cb-916d-490f-9438-b972e4549029.png",
                        "isERC1155": false,
                        "isERC721": false,
                        "sign": true,
                        "value": "12646.79307"
                    }
                ]
            },
            {
                "account": "0xbb4cdb9cbd36b01bd1cbaebf2de08d9173bc095c",
                "assets": [
                    {
                        "address": "0xeeeeeeeeeeeeeeeeeeeeeeeeeeeeeeeeeeeeeeee",
                        "amount": "30",
                        "iconUrl": "https://assets.blocksec.com/image/1663669189317-2.png",
                        "isERC1155": false,
                        "isERC721": false,
                        "sign": true,
                        "value": "12646.79307"
                    },
                    {
                        "address": "0xbb4cdb9cbd36b01bd1cbaebf2de08d9173bc095c",
                        "amount": "30",
                        "iconUrl": "https://assets.blocksec.com/icon/65a007cb-916d-490f-9438-b972e4549029.png",
                        "isERC1155": false,
                        "isERC721": false,
                        "sign": false,
                        "value": "12646.79307"
                    }
                ]
            },
            {
                "account": "0xe1e1aa58983f6b8ee8e4ecd206cea6578f036c21",
                "assets": [
                    {
                        "address": "0xeeeeeeeeeeeeeeeeeeeeeeeeeeeeeeeeeeeeeeee",
                        "amount": "327.897796173333552624",
                        "iconUrl": "https://assets.blocksec.com/image/1663669189317-2.png",
                        "isERC1155": false,
                        "isERC721": false,
                        "sign": false,
                        "value": "138228.5193"
                    }
                ]
            }
        ]
    },
    "profile": {
        "basic_info": {
            "baseFee": "",
            "blockNumber": 10090725,
            "callData": "0xabd6d2fa",
            "debugEnable": true,
            "errorInfo": "",
            "eventCount": 15,
            "feeRecipient": "0xbe807dddb074639cd9fa61b47676c064fc50d62c",
            "formatValue": "0",
            "gasLimit": 950000,
            "gasPrice": "5",
            "gasUsed": 388267,
            "intTxnCount": 40,
            "internalRevert": true,
            "internalRevertMessage": "Must Buy More Than One Surge",
            "isContractCreation": false,
            "isFlashloan": true,
            "maxFee": "",
            "nonce": 45,
            "overwritedBlockNumber": -1,
            "priorityFee": "",
            "receiver": "0x5f2e29762fda6d33fd705644d8d2846582bf68d3",
            "revertMessage": "",
            "sender": "0x59c686272e6f11dc8701a162f938fb085d940ad3",
            "simulationEnable": true,
            "sourceTxnHash": "0x8c93d6e5d6b3ec7478b4195123a696dbc82a3441be090e048fe4b33a242ef09d",
            "status": true,
            "timestamp": "2021-08-16T22:11:27Z",
            "transactionFee": "0.001941335",
            "txnHash": "0x8c93d6e5d6b3ec7478b4195123a696dbc82a3441be090e048fe4b33a242ef09d",
            "txnIndex": 171,
            "type": 0,
            "value": "0"
        },
        "fund_flow": [
            {
                "amount": "10,000",
                "from": "0x0ed7e52944161450477ee417de9cd3a859b14fd0",
                "id": 1,
                "isERC1155": false,
                "isERC721": false,
                "isReverted": false,
                "order": 1,
                "to": "0x5f2e29762fda6d33fd705644d8d2846582bf68d3",
                "token": "0xbb4cdb9cbd36b01bd1cbaebf2de08d9173bc095c"
            },
            {
                "amount": "10,297.897796173333552624",
                "from": "0xbb4cdb9cbd36b01bd1cbaebf2de08d9173bc095c",
                "id": 2,
                "isERC1155": false,
                "isERC721": false,
                "isReverted": false,
                "order": 2,
                "to": "0x5f2e29762fda6d33fd705644d8d2846582bf68d3",
                "token": "0xeeeeeeeeeeeeeeeeeeeeeeeeeeeeeeeeeeeeeeee"
            },
            {
                "amount": "10,297.897796173333552624",
                "from": "0x5f2e29762fda6d33fd705644d8d2846582bf68d3",
                "id": 3,
                "isERC1155": false,
                "isERC721": false,
                "isReverted": false,
                "order": 3,
                "to": "0xbb4cdb9cbd36b01bd1cbaebf2de08d9173bc095c",
                "token": "0xbb4cdb9cbd36b01bd1cbaebf2de08d9173bc095c"
            },
            {
                "amount": "39,808.336167059872684266",
                "from": "0x5f2e29762fda6d33fd705644d8d2846582bf68d3",
                "id": 4,
                "isERC1155": false,
                "isERC721": false,
                "isReverted": false,
                "order": 4,
                "to": "0xe1e1aa58983f6b8ee8e4ecd206cea6578f036c21",
                "token": "0xeeeeeeeeeeeeeeeeeeeeeeeeeeeeeeeeeeeeeeee"
            },
            {
                "amount": "2,006,872,273,555,985,686",
                "from": "0xe1e1aa58983f6b8ee8e4ecd206cea6578f036c21",
                "id": 5,
                "isERC1155": false,
                "isERC721": false,
                "isReverted": false,
                "order": 5,
                "to": "0x5f2e29762fda6d33fd705644d8d2846582bf68d3",
                "token": "0xe1e1aa58983f6b8ee8e4ecd206cea6578f036c21"
            },
            {
                "amount": "40,136.23396323320623689",
                "from": "0xe1e1aa58983f6b8ee8e4ecd206cea6578f036c21",
                "id": 6,
                "isERC1155": false,
                "isERC721": false,
                "isReverted": false,
                "order": 6,
                "to": "0x5f2e29762fda6d33fd705644d8d2846582bf68d3",
                "token": "0xeeeeeeeeeeeeeeeeeeeeeeeeeeeeeeeeeeeeeeee"
            },
            {
                "amount": "2,006,872,273,555,985,686",
                "from": "0x5f2e29762fda6d33fd705644d8d2846582bf68d3",
                "id": 7,
                "isERC1155": false,
                "isERC721": false,
                "isReverted": false,
                "order": 7,
                "to": "0xe1e1aa58983f6b8ee8e4ecd206cea6578f036c21",
                "token": "0xe1e1aa58983f6b8ee8e4ecd206cea6578f036c21"
            },
            {
                "amount": "10,327.897796173333552624",
                "from": "0x5f2e29762fda6d33fd705644d8d2846582bf68d3",
                "id": 8,
                "isERC1155": false,
                "isERC721": false,
                "isReverted": false,
                "order": 8,
                "to": "0xbb4cdb9cbd36b01bd1cbaebf2de08d9173bc095c",
                "token": "0xeeeeeeeeeeeeeeeeeeeeeeeeeeeeeeeeeeeeeeee"
            },
            {
                "amount": "10,327.897796173333552624",
                "from": "0xbb4cdb9cbd36b01bd1cbaebf2de08d9173bc095c",
                "id": 9,
                "isERC1155": false,
                "isERC721": false,
                "isReverted": false,
                "order": 9,
                "to": "0x5f2e29762fda6d33fd705644d8d2846582bf68d3",
                "token": "0xbb4cdb9cbd36b01bd1cbaebf2de08d9173bc095c"
            },
            {
                "amount": "10,030",
                "from": "0x5f2e29762fda6d33fd705644d8d2846582bf68d3",
                "id": 10,
                "isERC1155": false,
                "isERC721": false,
                "isReverted": false,
                "order": 10,
                "to": "0x0ed7e52944161450477ee417de9cd3a859b14fd0",
                "token": "0xbb4cdb9cbd36b01bd1cbaebf2de08d9173bc095c"
            },
            {
                "amount": "297.897796173333552624",
                "from": "0x5f2e29762fda6d33fd705644d8d2846582bf68d3",
                "id": 11,
                "isERC1155": false,
                "isERC721": false,
                "isReverted": false,
                "order": 11,
                "to": "0x59c686272e6f11dc8701a162f938fb085d940ad3",
                "token": "0xeeeeeeeeeeeeeeeeeeeeeeeeeeeeeeeeeeeeeeee"
            }
        ],
        "token_infos": [
            {
                "address": "0xbb4cdb9cbd36b01bd1cbaebf2de08d9173bc095c",
                "decimals": 18
            },
            {
                "address": "0xe1e1aa58983f6b8ee8e4ecd206cea6578f036c21",
                "decimals": 0
            },
            {
                "address": "0xeeeeeeeeeeeeeeeeeeeeeeeeeeeeeeeeeeeeeeee",
                "decimals": 18
            }
        ]
    },
    "address_label": {
        "labels": [
            {
                "address": "0xeeeeeeeeeeeeeeeeeeeeeeeeeeeeeeeeeeeeeeee",
                "label": "BNB"
            },
            {
                "address": "0x59c686272e6f11dc8701a162f938fb085d940ad3",
                "label": "XSURGE Exploiter 1"
            },
            {
                "address": "0x0000000000000000000000000000000000000004",
                "label": "Precompiled"
            },
            {
                "address": "0xe1e1aa58983f6b8ee8e4ecd206cea6578f036c21",
                "label": "Surge (SURGE)"
            },
            {
                "address": "0x0000000000000000000000000000000000000001",
                "label": "Precompiled"
            },
            {
                "address": "0x0000000000000000000000000000000000000002",
                "label": "Precompiled"
            },
            {
                "address": "0x0000000000000000000000000000000000000003",
                "label": "Precompiled"
            },
            {
                "address": "0x0e09fabb73bd3ade0a17ecc321fd13a19e81ce82",
                "label": "PancakeSwap Token (Cake)"
            },
            {
                "address": "0x0ed7e52944161450477ee417de9cd3a859b14fd0",
                "label": "PancakeSwap: WBNB-Cake 2"
            },
            {
                "address": "0xbb4cdb9cbd36b01bd1cbaebf2de08d9173bc095c",
                "label": "Wrapped BNB"
            }
        ]
    },
    "trace": {
        "accountLabels": null,
        "dataMap": {
            "-1": {
                "invocation": {
                    "address": "0x59c686272e6f11dc8701a162f938fb085d940ad3",
                    "callData": "",
                    "decodedMethod": null,
                    "errorInfo": "",
                    "fromAddress": "",
                    "gasUsed": 0,
                    "id": -1,
                    "methodDecoded": false,
                    "operation": "",
                    "output": "",
                    "revert": false,
                    "revertMessage": "",
                    "selector": "",
                    "status": false,
                    "value": ""
                },
                "nodeType": 0
            },
            "0": {
                "invocation": {
                    "address": "0x5f2e29762fda6d33fd705644d8d2846582bf68d3",
                    "callData": "0x",
                    "decodedMethod": null,
                    "errorInfo": "",
                    "fromAddress": "0x59c686272e6f11dc8701a162f938fb085d940ad3",
                    "gasUsed": 388267,
                    "id": 0,
                    "methodDecoded": false,
                    "operation": "CALL",
                    "output": "",
                    "revert": false,
                    "revertMessage": "",
                    "selector": "0xabd6d2fa",
                    "status": true,
                    "value": "0"
                },
                "nodeType": 0
            },
            "1": {
                "invocation": {
                    "address": "0x0ed7e52944161450477ee417de9cd3a859b14fd0",
                    "callData": "0x000000000000000000000000000000000000000000000000000000000000000000000000000000000000000000000000000000000000021e19e0c9bab24000000000000000000000000000005f2e29762fda6d33fd705644d8d2846582bf68d3000000000000000000000000000000000000000000000000000000000000008000000000000000000000000000000000000000000000000000000000000000096e6f7420656d7074790000000000000000000000000000000000000000000000",
                    "decodedMethod": {
                        "callParams": [
                            {
                                "name": "amount0Out",
                                "type": "uint256",
                                "value": "0"
                            },
                            {
                                "name": "amount1Out",
                                "type": "uint256",
                                "value": "10,000,000,000,000,000,000,000"
                            },
                            {
                                "name": "to",
                                "type": "address",
                                "value": "0x5f2e29762fda6d33fd705644d8d2846582bf68d3"
                            },
                            {
                                "name": "data",
                                "type": "bytes",
                                "value": "0x6e6f7420656d707479"
                            }
                        ],
                        "constructorArguments": "",
                        "name": "swap",
                        "returnParams": [],
                        "signature": "swap(uint256,uint256,address,bytes)"
                    },
                    "errorInfo": "",
                    "fromAddress": "0x5f2e29762fda6d33fd705644d8d2846582bf68d3",
                    "gasUsed": 466182,
                    "id": 1,
                    "methodDecoded": true,
                    "operation": "CALL",
                    "output": "",
                    "revert": false,
                    "revertMessage": "",
                    "selector": "0x022c0d9f",
                    "status": true,
                    "value": "0"
                },
                "nodeType": 0
            },
            "10": {
                "invocation": {
                    "address": "0xe1e1aa58983f6b8ee8e4ecd206cea6578f036c21",
                    "callData": "0x",
                    "decodedMethod": {
                        "callParams": [],
                        "constructorArguments": "",
                        "name": "calculatePrice",
                        "returnParams": [
                            {
                                "name": "",
                                "type": "uint256",
                                "value": "4,956,252"
                            }
                        ],
                        "signature": "calculatePrice()"
                    },
                    "errorInfo": "",
                    "fromAddress": "0x5f2e29762fda6d33fd705644d8d2846582bf68d3",
                    "gasUsed": 1555,
                    "id": 10,
                    "methodDecoded": true,
                    "operation": "STATICCALL",
                    "output": "0x00000000000000000000000000000000000000000000000000000000004ba05c",
                    "revert": false,
                    "revertMessage": "",
                    "selector": "0xd348b409",
                    "status": true,
                    "value": "0"
                },
                "nodeType": 0
            },
            "11": {
                "invocation": {
                    "address": "0xe1e1aa58983f6b8ee8e4ecd206cea6578f036c21",
                    "callData": "0x",
                    "decodedMethod": null,
                    "errorInfo": "",
                    "fromAddress": "0x5f2e29762fda6d33fd705644d8d2846582bf68d3",
                    "gasUsed": 34351,
                    "id": 11,
                    "methodDecoded": false,
                    "operation": "CALL",
                    "output": "",
                    "revert": false,
                    "revertMessage": "",
                    "selector": "fallback",
                    "status": true,
                    "value": "10000"
                },
                "nodeType": 0
            },
            "12": {
                "event": {
                    "contract": "0xe1e1aa58983f6b8ee8e4ecd206cea6578f036c21",
                    "decodedLog": {
                        "name": "Transfer",
                        "params": [
                            {
                                "name": "from",
                                "type": "address",
                                "value": "0xe1e1aa58983f6b8ee8e4ecd206cea6578f036c21"
                            },
                            {
                                "name": "to",
                                "type": "address",
                                "value": "0x5f2e29762fda6d33fd705644d8d2846582bf68d3"
                            },
                            {
                                "decimalAvailable": true,
                                "name": "value",
                                "type": "uint256",
                                "value": "1,896,594,328,449,691"
                            }
                        ],
                        "signature": "Transfer(address,address,uint256)"
                    },
                    "id": 12,
                    "logData": "0x0000000000000000000000000000000000000000000000000006bcf1473af29b",
                    "logDecoded": true,
                    "operation": "EVENT",
                    "revert": false,
                    "status": true,
                    "topics": [
                        "0xddf252ad1be2c89b69c2b068fc378daa952ba7f163c4a11628f55a4df523b3ef",
                        "0x000000000000000000000000e1e1aa58983f6b8ee8e4ecd206cea6578f036c21",
                        "0x0000000000000000000000005f2e29762fda6d33fd705644d8d2846582bf68d3"
                    ]
                },
                "nodeType": 1
            },
            "13": {
                "invocation": {
                    "address": "0xe1e1aa58983f6b8ee8e4ecd206cea6578f036c21",
                    "callData": "0x0000000000000000000000005f2e29762fda6d33fd705644d8d2846582bf68d3",
                    "decodedMethod": {
                        "callParams": [
                            {
                                "name": "account",
                                "type": "address",
                                "value": "0x5f2e29762fda6d33fd705644d8d2846582bf68d3"
                            }
                        ],
                        "constructorArguments": "",
                        "name": "balanceOf",
                        "returnParams": [
                            {
                                "decimalAvailable": true,
                                "name": "",
                                "type": "uint256",
                                "value": "1,896,594,328,449,691"
                            }
                        ],
                        "signature": "balanceOf(address)"
                    },
                    "errorInfo": "",
                    "fromAddress": "0x5f2e29762fda6d33fd705644d8d2846582bf68d3",
                    "gasUsed": 1630,
                    "id": 13,
                    "methodDecoded": true,
                    "operation": "STATICCALL",
                    "output": "0x0000000000000000000000000000000000000000000000000006bcf1473af29b",
                    "revert": false,
                    "revertMessage": "",
                    "selector": "0x70a08231",
                    "status": true,
                    "value": "0"
                },
                "nodeType": 0
            },
            "14": {
                "invocation": {
                    "address": "0xe1e1aa58983f6b8ee8e4ecd206cea6578f036c21",
                    "callData": "0x0000000000000000000000000000000000000000000000000006bcf1473af29b",
                    "decodedMethod": {
                        "callParams": [
                            {
                                "name": "tokenAmount",
                                "type": "uint256",
                                "value": "1,896,594,328,449,691"
                            }
                        ],
                        "constructorArguments": "",
                        "name": "sell",
                        "returnParams": [
                            {
                                "name": "",
                                "type": "bool",
                                "value": true
                            }
                        ],
                        "signature": "sell(uint256)"
                    },
                    "errorInfo": "",
                    "fromAddress": "0x5f2e29762fda6d33fd705644d8d2846582bf68d3",
                    "gasUsed": 49968,
                    "id": 14,
                    "methodDecoded": true,
                    "operation": "CALL",
                    "output": "0x0000000000000000000000000000000000000000000000000000000000000001",
                    "revert": false,
                    "revertMessage": "",
                    "selector": "0xe4849b32",
                    "status": true,
                    "value": "0"
                },
                "nodeType": 0
            },
            "15": {
                "invocation": {
                    "address": "0x5f2e29762fda6d33fd705644d8d2846582bf68d3",
                    "callData": "0x",
                    "decodedMethod": null,
                    "errorInfo": "",
                    "fromAddress": "0xe1e1aa58983f6b8ee8e4ecd206cea6578f036c21",
                    "gasUsed": 24337,
                    "id": 15,
                    "methodDecoded": false,
                    "operation": "CALL",
                    "output": "",
                    "revert": false,
                    "revertMessage": "",
                    "selector": "fallback",
                    "status": true,
                    "value": "9346.330934876995646045"
                },
                "nodeType": 0
            },
            "16": {
                "invocation": {
                    "address": "0xe1e1aa58983f6b8ee8e4ecd206cea6578f036c21",
                    "callData": "0x0000000000000000000000005f2e29762fda6d33fd705644d8d2846582bf68d3",
                    "decodedMethod": {
                        "callParams": [
                            {
                                "name": "account",
                                "type": "address",
                                "value": "0x5f2e29762fda6d33fd705644d8d2846582bf68d3"
                            }
                        ],
                        "constructorArguments": "",
                        "name": "balanceOf",
                        "returnParams": [
                            {
                                "decimalAvailable": true,
                                "name": "",
                                "type": "uint256",
                                "value": "1,896,594,328,449,691"
                            }
                        ],
                        "signature": "balanceOf(address)"
                    },
                    "errorInfo": "",
                    "fromAddress": "0x5f2e29762fda6d33fd705644d8d2846582bf68d3",
                    "gasUsed": 1630,
                    "id": 16,
                    "methodDecoded": true,
                    "operation": "STATICCALL",
                    "output": "0x0000000000000000000000000000000000000000000000000006bcf1473af29b",
                    "revert": false,
                    "revertMessage": "",
                    "selector": "0x70a08231",
                    "status": true,
                    "value": "0"
                },
                "nodeType": 0
            },
            "17": {
                "invocation": {
                    "address": "0xe1e1aa58983f6b8ee8e4ecd206cea6578f036c21",
                    "callData": "0x",
                    "decodedMethod": null,
                    "errorInfo": "",
                    "fromAddress": "0x5f2e29762fda6d33fd705644d8d2846582bf68d3",
                    "gasUsed": 10951,
                    "id": 17,
                    "methodDecoded": false,
                    "operation": "CALL",
                    "output": "",
                    "revert": false,
                    "revertMessage": "",
                    "selector": "fallback",
                    "status": true,
                    "value": "9346.330934876995646045"
                },
                "nodeType": 0
            },
            "18": {
                "event": {
                    "contract": "0xe1e1aa58983f6b8ee8e4ecd206cea6578f036c21",
                    "decodedLog": {
                        "name": "Transfer",
                        "params": [
                            {
                                "name": "from",
                                "type": "address",
                                "value": "0xe1e1aa58983f6b8ee8e4ecd206cea6578f036c21"
                            },
                            {
                                "name": "to",
                                "type": "address",
                                "value": "0x5f2e29762fda6d33fd705644d8d2846582bf68d3"
                            },
                            {
                                "decimalAvailable": true,
                                "name": "value",
                                "type": "uint256",
                                "value": "11,213,498,508,308,519"
                            }
                        ],
                        "signature": "Transfer(address,address,uint256)"
                    },
                    "id": 18,
                    "logData": "0x0000000000000000000000000000000000000000000000000027d69e1346f027",
                    "logDecoded": true,
                    "operation": "EVENT",
                    "revert": false,
                    "status": true,
                    "topics": [
                        "0xddf252ad1be2c89b69c2b068fc378daa952ba7f163c4a11628f55a4df523b3ef",
                        "0x000000000000000000000000e1e1aa58983f6b8ee8e4ecd206cea6578f036c21",
                        "0x0000000000000000000000005f2e29762fda6d33fd705644d8d2846582bf68d3"
                    ]
                },
                "nodeType": 1
            },
            "19": {
                "event": {
                    "contract": "0xe1e1aa58983f6b8ee8e4ecd206cea6578f036c21",
                    "decodedLog": {
                        "name": "Transfer",
                        "params": [
                            {
                                "name": "from",
                                "type": "address",
                                "value": "0x5f2e29762fda6d33fd705644d8d2846582bf68d3"
                            },
                            {
                                "name": "to",
                                "type": "address",
                                "value": "0xe1e1aa58983f6b8ee8e4ecd206cea6578f036c21"
                            },
                            {
                                "decimalAvailable": true,
                                "name": "value",
                                "type": "uint256",
                                "value": "1,896,594,328,449,691"
                            }
                        ],
                        "signature": "Transfer(address,address,uint256)"
                    },
                    "id": 19,
                    "logData": "0x0000000000000000000000000000000000000000000000000006bcf1473af29b",
                    "logDecoded": true,
                    "operation": "EVENT",
                    "revert": false,
                    "status": true,
                    "topics": [
                        "0xddf252ad1be2c89b69c2b068fc378daa952ba7f163c4a11628f55a4df523b3ef",
                        "0x0000000000000000000000005f2e29762fda6d33fd705644d8d2846582bf68d3",
                        "0x000000000000000000000000e1e1aa58983f6b8ee8e4ecd206cea6578f036c21"
                    ]
                },
                "nodeType": 1
            },
            "2": {
                "invocation": {
                    "address": "0xbb4cdb9cbd36b01bd1cbaebf2de08d9173bc095c",
                    "callData": "0x0000000000000000000000005f2e29762fda6d33fd705644d8d2846582bf68d300000000000000000000000000000000000000000000021e19e0c9bab2400000",
                    "decodedMethod": {
                        "callParams": [
                            {
                                "name": "dst",
                                "type": "address",
                                "value": "0x5f2e29762fda6d33fd705644d8d2846582bf68d3"
                            },
                            {
                                "decimalAvailable": true,
                                "name": "wad",
                                "type": "uint256",
                                "value": "10,000,000,000,000,000,000,000"
                            }
                        ],
                        "constructorArguments": "",
                        "name": "transfer",
                        "returnParams": [
                            {
                                "name": "",
                                "type": "bool",
                                "value": true
                            }
                        ],
                        "signature": "transfer(address,uint256)"
                    },
                    "errorInfo": "",
                    "fromAddress": "0x0ed7e52944161450477ee417de9cd3a859b14fd0",
                    "gasUsed": 30162,
                    "id": 2,
                    "methodDecoded": true,
                    "operation": "CALL",
                    "output": "0x0000000000000000000000000000000000000000000000000000000000000001",
                    "revert": false,
                    "revertMessage": "",
                    "selector": "0xa9059cbb",
                    "status": true,
                    "value": "0"
                },
                "nodeType": 0
            },
            "20": {
                "invocation": {
                    "address": "0xe1e1aa58983f6b8ee8e4ecd206cea6578f036c21",
                    "callData": "0x",
                    "decodedMethod": {
                        "callParams": [],
                        "constructorArguments": "",
                        "name": "calculatePrice",
                        "returnParams": [
                            {
                                "name": "",
                                "type": "uint256",
                                "value": "962,813"
                            }
                        ],
                        "signature": "calculatePrice()"
                    },
                    "errorInfo": "",
                    "fromAddress": "0x5f2e29762fda6d33fd705644d8d2846582bf68d3",
                    "gasUsed": 1555,
                    "id": 20,
                    "methodDecoded": true,
                    "operation": "STATICCALL",
                    "output": "0x00000000000000000000000000000000000000000000000000000000000eb0fd",
                    "revert": false,
                    "revertMessage": "",
                    "selector": "0xd348b409",
                    "status": true,
                    "value": "0"
                },
                "nodeType": 0
            },
            "21": {
                "invocation": {
                    "address": "0xe1e1aa58983f6b8ee8e4ecd206cea6578f036c21",
                    "callData": "0x",
                    "decodedMethod": null,
                    "errorInfo": "execution reverted",
                    "fromAddress": "0x5f2e29762fda6d33fd705644d8d2846582bf68d3",
                    "gasUsed": 4801,
                    "id": 21,
                    "methodDecoded": false,
                    "operation": "CALL",
                    "output": "0x08c379a00000000000000000000000000000000000000000000000000000000000000020000000000000000000000000000000000000000000000000000000000000001c4d75737420427579204d6f7265205468616e204f6e6520537572676500000000",
                    "revert": true,
                    "revertMessage": "Must Buy More Than One Surge",
                    "selector": "fallback",
                    "status": false,
                    "value": "0"
                },
                "nodeType": 0
            },
            "22": {
                "invocation": {
                    "address": "0xe1e1aa58983f6b8ee8e4ecd206cea6578f036c21",
                    "callData": "0x0000000000000000000000005f2e29762fda6d33fd705644d8d2846582bf68d3",
                    "decodedMethod": {
                        "callParams": [
                            {
                                "name": "account",
                                "type": "address",
                                "value": "0x5f2e29762fda6d33fd705644d8d2846582bf68d3"
                            }
                        ],
                        "constructorArguments": "",
                        "name": "balanceOf",
                        "returnParams": [
                            {
                                "decimalAvailable": true,
                                "name": "",
                                "type": "uint256",
                                "value": "11,213,498,508,308,519"
                            }
                        ],
                        "signature": "balanceOf(address)"
                    },
                    "errorInfo": "",
                    "fromAddress": "0x5f2e29762fda6d33fd705644d8d2846582bf68d3",
                    "gasUsed": 1630,
                    "id": 22,
                    "methodDecoded": true,
                    "operation": "STATICCALL",
                    "output": "0x0000000000000000000000000000000000000000000000000027d69e1346f027",
                    "revert": false,
                    "revertMessage": "",
                    "selector": "0x70a08231",
                    "status": true,
                    "value": "0"
                },
                "nodeType": 0
            },
            "23": {
                "invocation": {
                    "address": "0xe1e1aa58983f6b8ee8e4ecd206cea6578f036c21",
                    "callData": "0x0000000000000000000000000000000000000000000000000027d69e1346f027",
                    "decodedMethod": {
                        "callParams": [
                            {
                                "name": "tokenAmount",
                                "type": "uint256",
                                "value": "11,213,498,508,308,519"
                            }
                        ],
                        "constructorArguments": "",
                        "name": "sell",
                        "returnParams": [
                            {
                                "name": "",
                                "type": "bool",
                                "value": true
                            }
                        ],
                        "signature": "sell(uint256)"
                    },
                    "errorInfo": "",
                    "fromAddress": "0x5f2e29762fda6d33fd705644d8d2846582bf68d3",
                    "gasUsed": 49968,
                    "id": 23,
                    "methodDecoded": true,
                    "operation": "CALL",
                    "output": "0x0000000000000000000000000000000000000000000000000000000000000001",
                    "revert": false,
                    "revertMessage": "",
                    "selector": "0xe4849b32",
                    "status": true,
                    "value": "0"
                },
                "nodeType": 0
            },
            "24": {
                "invocation": {
                    "address": "0x5f2e29762fda6d33fd705644d8d2846582bf68d3",
                    "callData": "0x",
                    "decodedMethod": null,
                    "errorInfo": "",
                    "fromAddress": "0xe1e1aa58983f6b8ee8e4ecd206cea6578f036c21",
                    "gasUsed": 24337,
                    "id": 24,
                    "methodDecoded": false,
                    "operation": "CALL",
                    "output": "",
                    "revert": false,
                    "revertMessage": "",
                    "selector": "fallback",
                    "status": true,
                    "value": "10148.712010923246269691"
                },
                "nodeType": 0
            },
            "25": {
                "invocation": {
                    "address": "0xe1e1aa58983f6b8ee8e4ecd206cea6578f036c21",
                    "callData": "0x0000000000000000000000005f2e29762fda6d33fd705644d8d2846582bf68d3",
                    "decodedMethod": {
                        "callParams": [
                            {
                                "name": "account",
                                "type": "address",
                                "value": "0x5f2e29762fda6d33fd705644d8d2846582bf68d3"
                            }
                        ],
                        "constructorArguments": "",
                        "name": "balanceOf",
                        "returnParams": [
                            {
                                "decimalAvailable": true,
                                "name": "",
                                "type": "uint256",
                                "value": "11,213,498,508,308,519"
                            }
                        ],
                        "signature": "balanceOf(address)"
                    },
                    "errorInfo": "",
                    "fromAddress": "0x5f2e29762fda6d33fd705644d8d2846582bf68d3",
                    "gasUsed": 1630,
                    "id": 25,
                    "methodDecoded": true,
                    "operation": "STATICCALL",
                    "output": "0x0000000000000000000000000000000000000000000000000027d69e1346f027",
                    "revert": false,
                    "revertMessage": "",
                    "selector": "0x70a08231",
                    "status": true,
                    "value": "0"
                },
                "nodeType": 0
            },
            "26": {
                "invocation": {
                    "address": "0xe1e1aa58983f6b8ee8e4ecd206cea6578f036c21",
                    "callData": "0x",
                    "decodedMethod": null,
                    "errorInfo": "",
                    "fromAddress": "0x5f2e29762fda6d33fd705644d8d2846582bf68d3",
                    "gasUsed": 10951,
                    "id": 26,
                    "methodDecoded": false,
                    "operation": "CALL",
                    "output": "",
                    "revert": false,
                    "revertMessage": "",
                    "selector": "fallback",
                    "status": true,
                    "value": "10148.712010923246269691"
                },
                "nodeType": 0
            },
            "27": {
                "event": {
                    "contract": "0xe1e1aa58983f6b8ee8e4ecd206cea6578f036c21",
                    "decodedLog": {
                        "name": "Transfer",
                        "params": [
                            {
                                "name": "from",
                                "type": "address",
                                "value": "0xe1e1aa58983f6b8ee8e4ecd206cea6578f036c21"
                            },
                            {
                                "name": "to",
                                "type": "address",
                                "value": "0x5f2e29762fda6d33fd705644d8d2846582bf68d3"
                            },
                            {
                                "decimalAvailable": true,
                                "name": "value",
                                "type": "uint256",
                                "value": "129,641,835,439,618,650"
                            }
                        ],
                        "signature": "Transfer(address,address,uint256)"
                    },
                    "id": 27,
                    "logData": "0x00000000000000000000000000000000000000000000000001cc948ffd687a5a",
                    "logDecoded": true,
                    "operation": "EVENT",
                    "revert": false,
                    "status": true,
                    "topics": [
                        "0xddf252ad1be2c89b69c2b068fc378daa952ba7f163c4a11628f55a4df523b3ef",
                        "0x000000000000000000000000e1e1aa58983f6b8ee8e4ecd206cea6578f036c21",
                        "0x0000000000000000000000005f2e29762fda6d33fd705644d8d2846582bf68d3"
                    ]
                },
                "nodeType": 1
            },
            "28": {
                "event": {
                    "contract": "0xe1e1aa58983f6b8ee8e4ecd206cea6578f036c21",
                    "decodedLog": {
                        "name": "Transfer",
                        "params": [
                            {
                                "name": "from",
                                "type": "address",
                                "value": "0x5f2e29762fda6d33fd705644d8d2846582bf68d3"
                            },
                            {
                                "name": "to",
                                "type": "address",
                                "value": "0xe1e1aa58983f6b8ee8e4ecd206cea6578f036c21"
                            },
                            {
                                "decimalAvailable": true,
                                "name": "value",
                                "type": "uint256",
                                "value": "11,213,498,508,308,519"
                            }
                        ],
                        "signature": "Transfer(address,address,uint256)"
                    },
                    "id": 28,
                    "logData": "0x0000000000000000000000000000000000000000000000000027d69e1346f027",
                    "logDecoded": true,
                    "operation": "EVENT",
                    "revert": false,
                    "status": true,
                    "topics": [
                        "0xddf252ad1be2c89b69c2b068fc378daa952ba7f163c4a11628f55a4df523b3ef",
                        "0x0000000000000000000000005f2e29762fda6d33fd705644d8d2846582bf68d3",
                        "0x000000000000000000000000e1e1aa58983f6b8ee8e4ecd206cea6578f036c21"
                    ]
                },
                "nodeType": 1
            },
            "29": {
                "invocation": {
                    "address": "0xe1e1aa58983f6b8ee8e4ecd206cea6578f036c21",
                    "callData": "0x",
                    "decodedMethod": {
                        "callParams": [],
                        "constructorArguments": "",
                        "name": "calculatePrice",
                        "returnParams": [
                            {
                                "name": "",
                                "type": "uint256",
                                "value": "84,630"
                            }
                        ],
                        "signature": "calculatePrice()"
                    },
                    "errorInfo": "",
                    "fromAddress": "0x5f2e29762fda6d33fd705644d8d2846582bf68d3",
                    "gasUsed": 1555,
                    "id": 29,
                    "methodDecoded": true,
                    "operation": "STATICCALL",
                    "output": "0x0000000000000000000000000000000000000000000000000000000000014a96",
                    "revert": false,
                    "revertMessage": "",
                    "selector": "0xd348b409",
                    "status": true,
                    "value": "0"
                },
                "nodeType": 0
            },
            "3": {
                "event": {
                    "contract": "0xbb4cdb9cbd36b01bd1cbaebf2de08d9173bc095c",
                    "decodedLog": {
                        "name": "Transfer",
                        "params": [
                            {
                                "name": "src",
                                "type": "address",
                                "value": "0x0ed7e52944161450477ee417de9cd3a859b14fd0"
                            },
                            {
                                "name": "dst",
                                "type": "address",
                                "value": "0x5f2e29762fda6d33fd705644d8d2846582bf68d3"
                            },
                            {
                                "decimalAvailable": true,
                                "name": "wad",
                                "type": "uint256",
                                "value": "10,000,000,000,000,000,000,000"
                            }
                        ],
                        "signature": "Transfer(address,address,uint256)"
                    },
                    "id": 3,
                    "logData": "0x00000000000000000000000000000000000000000000021e19e0c9bab2400000",
                    "logDecoded": true,
                    "operation": "EVENT",
                    "revert": false,
                    "status": true,
                    "topics": [
                        "0xddf252ad1be2c89b69c2b068fc378daa952ba7f163c4a11628f55a4df523b3ef",
                        "0x0000000000000000000000000ed7e52944161450477ee417de9cd3a859b14fd0",
                        "0x0000000000000000000000005f2e29762fda6d33fd705644d8d2846582bf68d3"
                    ]
                },
                "nodeType": 1
            },
            "30": {
                "invocation": {
                    "address": "0xe1e1aa58983f6b8ee8e4ecd206cea6578f036c21",
                    "callData": "0x",
                    "decodedMethod": null,
                    "errorInfo": "execution reverted",
                    "fromAddress": "0x5f2e29762fda6d33fd705644d8d2846582bf68d3",
                    "gasUsed": 4801,
                    "id": 30,
                    "methodDecoded": false,
                    "operation": "CALL",
                    "output": "0x08c379a00000000000000000000000000000000000000000000000000000000000000020000000000000000000000000000000000000000000000000000000000000001c4d75737420427579204d6f7265205468616e204f6e6520537572676500000000",
                    "revert": true,
                    "revertMessage": "Must Buy More Than One Surge",
                    "selector": "fallback",
                    "status": false,
                    "value": "0"
                },
                "nodeType": 0
            },
            "31": {
                "invocation": {
                    "address": "0xe1e1aa58983f6b8ee8e4ecd206cea6578f036c21",
                    "callData": "0x0000000000000000000000005f2e29762fda6d33fd705644d8d2846582bf68d3",
                    "decodedMethod": {
                        "callParams": [
                            {
                                "name": "account",
                                "type": "address",
                                "value": "0x5f2e29762fda6d33fd705644d8d2846582bf68d3"
                            }
                        ],
                        "constructorArguments": "",
                        "name": "balanceOf",
                        "returnParams": [
                            {
                                "decimalAvailable": true,
                                "name": "",
                                "type": "uint256",
                                "value": "129,641,835,439,618,650"
                            }
                        ],
                        "signature": "balanceOf(address)"
                    },
                    "errorInfo": "",
                    "fromAddress": "0x5f2e29762fda6d33fd705644d8d2846582bf68d3",
                    "gasUsed": 1630,
                    "id": 31,
                    "methodDecoded": true,
                    "operation": "STATICCALL",
                    "output": "0x00000000000000000000000000000000000000000000000001cc948ffd687a5a",
                    "revert": false,
                    "revertMessage": "",
                    "selector": "0x70a08231",
                    "status": true,
                    "value": "0"
                },
                "nodeType": 0
            },
            "32": {
                "invocation": {
                    "address": "0xe1e1aa58983f6b8ee8e4ecd206cea6578f036c21",
                    "callData": "0x00000000000000000000000000000000000000000000000001cc948ffd687a5a",
                    "decodedMethod": {
                        "callParams": [
                            {
                                "name": "tokenAmount",
                                "type": "uint256",
                                "value": "129,641,835,439,618,650"
                            }
                        ],
                        "constructorArguments": "",
                        "name": "sell",
                        "returnParams": [
                            {
                                "name": "",
                                "type": "bool",
                                "value": true
                            }
                        ],
                        "signature": "sell(uint256)"
                    },
                    "errorInfo": "",
                    "fromAddress": "0x5f2e29762fda6d33fd705644d8d2846582bf68d3",
                    "gasUsed": 49968,
                    "id": 32,
                    "methodDecoded": true,
                    "operation": "CALL",
                    "output": "0x0000000000000000000000000000000000000000000000000000000000000001",
                    "revert": false,
                    "revertMessage": "",
                    "selector": "0xe4849b32",
                    "status": true,
                    "value": "0"
                },
                "nodeType": 0
            },
            "33": {
                "invocation": {
                    "address": "0x5f2e29762fda6d33fd705644d8d2846582bf68d3",
                    "callData": "0x",
                    "decodedMethod": null,
                    "errorInfo": "",
                    "fromAddress": "0xe1e1aa58983f6b8ee8e4ecd206cea6578f036c21",
                    "gasUsed": 24337,
                    "id": 33,
                    "methodDecoded": false,
                    "operation": "CALL",
                    "output": "",
                    "revert": false,
                    "revertMessage": "",
                    "selector": "fallback",
                    "status": true,
                    "value": "10313.29322125963076853"
                },
                "nodeType": 0
            },
            "34": {
                "invocation": {
                    "address": "0xe1e1aa58983f6b8ee8e4ecd206cea6578f036c21",
                    "callData": "0x0000000000000000000000005f2e29762fda6d33fd705644d8d2846582bf68d3",
                    "decodedMethod": {
                        "callParams": [
                            {
                                "name": "account",
                                "type": "address",
                                "value": "0x5f2e29762fda6d33fd705644d8d2846582bf68d3"
                            }
                        ],
                        "constructorArguments": "",
                        "name": "balanceOf",
                        "returnParams": [
                            {
                                "decimalAvailable": true,
                                "name": "",
                                "type": "uint256",
                                "value": "129,641,835,439,618,650"
                            }
                        ],
                        "signature": "balanceOf(address)"
                    },
                    "errorInfo": "",
                    "fromAddress": "0x5f2e29762fda6d33fd705644d8d2846582bf68d3",
                    "gasUsed": 1630,
                    "id": 34,
                    "methodDecoded": true,
                    "operation": "STATICCALL",
                    "output": "0x00000000000000000000000000000000000000000000000001cc948ffd687a5a",
                    "revert": false,
                    "revertMessage": "",
                    "selector": "0x70a08231",
                    "status": true,
                    "value": "0"
                },
                "nodeType": 0
            },
            "35": {
                "invocation": {
                    "address": "0xe1e1aa58983f6b8ee8e4ecd206cea6578f036c21",
                    "callData": "0x",
                    "decodedMethod": null,
                    "errorInfo": "",
                    "fromAddress": "0x5f2e29762fda6d33fd705644d8d2846582bf68d3",
                    "gasUsed": 10951,
                    "id": 35,
                    "methodDecoded": false,
                    "operation": "CALL",
                    "output": "",
                    "revert": false,
                    "revertMessage": "",
                    "selector": "fallback",
                    "status": true,
                    "value": "10313.29322125963076853"
                },
                "nodeType": 0
            },
            "36": {
                "event": {
                    "contract": "0xe1e1aa58983f6b8ee8e4ecd206cea6578f036c21",
                    "decodedLog": {
                        "name": "Transfer",
                        "params": [
                            {
                                "name": "from",
                                "type": "address",
                                "value": "0xe1e1aa58983f6b8ee8e4ecd206cea6578f036c21"
                            },
                            {
                                "name": "to",
                                "type": "address",
                                "value": "0x5f2e29762fda6d33fd705644d8d2846582bf68d3"
                            },
                            {
                                "decimalAvailable": true,
                                "name": "value",
                                "type": "uint256",
                                "value": "1,864,120,345,279,608,826"
                            }
                        ],
                        "signature": "Transfer(address,address,uint256)"
                    },
                    "id": 36,
                    "logData": "0x00000000000000000000000000000000000000000000000019deaf93d6f837fa",
                    "logDecoded": true,
                    "operation": "EVENT",
                    "revert": false,
                    "status": true,
                    "topics": [
                        "0xddf252ad1be2c89b69c2b068fc378daa952ba7f163c4a11628f55a4df523b3ef",
                        "0x000000000000000000000000e1e1aa58983f6b8ee8e4ecd206cea6578f036c21",
                        "0x0000000000000000000000005f2e29762fda6d33fd705644d8d2846582bf68d3"
                    ]
                },
                "nodeType": 1
            },
            "37": {
                "event": {
                    "contract": "0xe1e1aa58983f6b8ee8e4ecd206cea6578f036c21",
                    "decodedLog": {
                        "name": "Transfer",
                        "params": [
                            {
                                "name": "from",
                                "type": "address",
                                "value": "0x5f2e29762fda6d33fd705644d8d2846582bf68d3"
                            },
                            {
                                "name": "to",
                                "type": "address",
                                "value": "0xe1e1aa58983f6b8ee8e4ecd206cea6578f036c21"
                            },
                            {
                                "decimalAvailable": true,
                                "name": "value",
                                "type": "uint256",
                                "value": "129,641,835,439,618,650"
                            }
                        ],
                        "signature": "Transfer(address,address,uint256)"
                    },
                    "id": 37,
                    "logData": "0x00000000000000000000000000000000000000000000000001cc948ffd687a5a",
                    "logDecoded": true,
                    "operation": "EVENT",
                    "revert": false,
                    "status": true,
                    "topics": [
                        "0xddf252ad1be2c89b69c2b068fc378daa952ba7f163c4a11628f55a4df523b3ef",
                        "0x0000000000000000000000005f2e29762fda6d33fd705644d8d2846582bf68d3",
                        "0x000000000000000000000000e1e1aa58983f6b8ee8e4ecd206cea6578f036c21"
                    ]
                },
                "nodeType": 1
            },
            "38": {
                "invocation": {
                    "address": "0xe1e1aa58983f6b8ee8e4ecd206cea6578f036c21",
                    "callData": "0x",
                    "decodedMethod": {
                        "callParams": [],
                        "constructorArguments": "",
                        "name": "calculatePrice",
                        "returnParams": [
                            {
                                "name": "",
                                "type": "uint256",
                                "value": "5,894"
                            }
                        ],
                        "signature": "calculatePrice()"
                    },
                    "errorInfo": "",
                    "fromAddress": "0x5f2e29762fda6d33fd705644d8d2846582bf68d3",
                    "gasUsed": 1555,
                    "id": 38,
                    "methodDecoded": true,
                    "operation": "STATICCALL",
                    "output": "0x0000000000000000000000000000000000000000000000000000000000001706",
                    "revert": false,
                    "revertMessage": "",
                    "selector": "0xd348b409",
                    "status": true,
                    "value": "0"
                },
                "nodeType": 0
            },
            "39": {
                "invocation": {
                    "address": "0xe1e1aa58983f6b8ee8e4ecd206cea6578f036c21",
                    "callData": "0x0000000000000000000000005f2e29762fda6d33fd705644d8d2846582bf68d3",
                    "decodedMethod": {
                        "callParams": [
                            {
                                "name": "account",
                                "type": "address",
                                "value": "0x5f2e29762fda6d33fd705644d8d2846582bf68d3"
                            }
                        ],
                        "constructorArguments": "",
                        "name": "balanceOf",
                        "returnParams": [
                            {
                                "decimalAvailable": true,
                                "name": "",
                                "type": "uint256",
                                "value": "1,864,120,345,279,608,826"
                            }
                        ],
                        "signature": "balanceOf(address)"
                    },
                    "errorInfo": "",
                    "fromAddress": "0x5f2e29762fda6d33fd705644d8d2846582bf68d3",
                    "gasUsed": 1630,
                    "id": 39,
                    "methodDecoded": true,
                    "operation": "STATICCALL",
                    "output": "0x00000000000000000000000000000000000000000000000019deaf93d6f837fa",
                    "revert": false,
                    "revertMessage": "",
                    "selector": "0x70a08231",
                    "status": true,
                    "value": "0"
                },
                "nodeType": 0
            },
            "4": {
                "invocation": {
                    "address": "0x5f2e29762fda6d33fd705644d8d2846582bf68d3",
                    "callData": "0x0000000000000000000000005f2e29762fda6d33fd705644d8d2846582bf68d3000000000000000000000000000000000000000000000000000000000000000000000000000000000000000000000000000000000000021e19e0c9bab2400000000000000000000000000000000000000000000000000000000000000000008000000000000000000000000000000000000000000000000000000000000000096e6f7420656d7074790000000000000000000000000000000000000000000000",
                    "decodedMethod": {
                        "callParams": [
                            {
                                "name": "_sender",
                                "type": "address",
                                "value": "0x5f2e29762fda6d33fd705644d8d2846582bf68d3"
                            },
                            {
                                "name": "_amount0",
                                "type": "uint256",
                                "value": "0"
                            },
                            {
                                "name": "_amount1",
                                "type": "uint256",
                                "value": "10,000,000,000,000,000,000,000"
                            },
                            {
                                "name": "_data",
                                "type": "bytes",
                                "value": "0x6e6f7420656d707479"
                            }
                        ],
                        "constructorArguments": "",
                        "name": "pancakeCall",
                        "returnParams": [],
                        "signature": "pancakeCall(address,uint256,uint256,bytes)"
                    },
                    "errorInfo": "",
                    "fromAddress": "0x0ed7e52944161450477ee417de9cd3a859b14fd0",
                    "gasUsed": 385178,
                    "id": 4,
                    "methodDecoded": true,
                    "operation": "CALL",
                    "output": "",
                    "revert": false,
                    "revertMessage": "",
                    "selector": "0x84800812",
                    "status": true,
                    "value": "0"
                },
                "nodeType": 0
            },
            "40": {
                "invocation": {
                    "address": "0xe1e1aa58983f6b8ee8e4ecd206cea6578f036c21",
                    "callData": "0x00000000000000000000000000000000000000000000000019deaf93d6f837fa",
                    "decodedMethod": {
                        "callParams": [
                            {
                                "name": "tokenAmount",
                                "type": "uint256",
                                "value": "1,864,120,345,279,608,826"
                            }
                        ],
                        "constructorArguments": "",
                        "name": "sell",
                        "returnParams": [
                            {
                                "name": "",
                                "type": "bool",
                                "value": true
                            }
                        ],
                        "signature": "sell(uint256)"
                    },
                    "errorInfo": "",
                    "fromAddress": "0x5f2e29762fda6d33fd705644d8d2846582bf68d3",
                    "gasUsed": 26512,
                    "id": 40,
                    "methodDecoded": true,
                    "operation": "CALL",
                    "output": "0x0000000000000000000000000000000000000000000000000000000000000001",
                    "revert": false,
                    "revertMessage": "",
                    "selector": "0xe4849b32",
                    "status": true,
                    "value": "0"
                },
                "nodeType": 0
            },
            "41": {
                "invocation": {
                    "address": "0x5f2e29762fda6d33fd705644d8d2846582bf68d3",
                    "callData": "0x",
                    "decodedMethod": null,
                    "errorInfo": "",
                    "fromAddress": "0xe1e1aa58983f6b8ee8e4ecd206cea6578f036c21",
                    "gasUsed": 881,
                    "id": 41,
                    "methodDecoded": false,
                    "operation": "CALL",
                    "output": "",
                    "revert": false,
                    "revertMessage": "",
                    "selector": "fallback",
                    "status": true,
                    "value": "10327.897796173333552624"
                },
                "nodeType": 0
            },
            "42": {
                "event": {
                    "contract": "0xe1e1aa58983f6b8ee8e4ecd206cea6578f036c21",
                    "decodedLog": {
                        "name": "Transfer",
                        "params": [
                            {
                                "name": "from",
                                "type": "address",
                                "value": "0x5f2e29762fda6d33fd705644d8d2846582bf68d3"
                            },
                            {
                                "name": "to",
                                "type": "address",
                                "value": "0xe1e1aa58983f6b8ee8e4ecd206cea6578f036c21"
                            },
                            {
                                "decimalAvailable": true,
                                "name": "value",
                                "type": "uint256",
                                "value": "1,864,120,345,279,608,826"
                            }
                        ],
                        "signature": "Transfer(address,address,uint256)"
                    },
                    "id": 42,
                    "logData": "0x00000000000000000000000000000000000000000000000019deaf93d6f837fa",
                    "logDecoded": true,
                    "operation": "EVENT",
                    "revert": false,
                    "status": true,
                    "topics": [
                        "0xddf252ad1be2c89b69c2b068fc378daa952ba7f163c4a11628f55a4df523b3ef",
                        "0x0000000000000000000000005f2e29762fda6d33fd705644d8d2846582bf68d3",
                        "0x000000000000000000000000e1e1aa58983f6b8ee8e4ecd206cea6578f036c21"
                    ]
                },
                "nodeType": 1
            },
            "43": {
                "invocation": {
                    "address": "0xbb4cdb9cbd36b01bd1cbaebf2de08d9173bc095c",
                    "callData": "0x",
                    "decodedMethod": {
                        "callParams": [],
                        "constructorArguments": "",
                        "name": "deposit",
                        "returnParams": [],
                        "signature": "deposit()"
                    },
                    "errorInfo": "",
                    "fromAddress": "0x5f2e29762fda6d33fd705644d8d2846582bf68d3",
                    "gasUsed": 22674,
                    "id": 43,
                    "methodDecoded": true,
                    "operation": "CALL",
                    "output": "",
                    "revert": false,
                    "revertMessage": "",
                    "selector": "0xd0e30db0",
                    "status": true,
                    "value": "10327.897796173333552624"
                },
                "nodeType": 0
            },
            "44": {
                "event": {
                    "contract": "0xbb4cdb9cbd36b01bd1cbaebf2de08d9173bc095c",
                    "decodedLog": {
                        "name": "Deposit",
                        "params": [
                            {
                                "name": "dst",
                                "type": "address",
                                "value": "0x5f2e29762fda6d33fd705644d8d2846582bf68d3"
                            },
                            {
                                "name": "wad",
                                "type": "uint256",
                                "value": "10,327,897,796,173,333,552,624"
                            }
                        ],
                        "signature": "Deposit(address,uint256)"
                    },
                    "id": 44,
                    "logData": "0x00000000000000000000000000000000000000000000022fe05fc6126b3c5df0",
                    "logDecoded": true,
                    "operation": "EVENT",
                    "revert": false,
                    "status": true,
                    "topics": [
                        "0xe1fffcc4923d04b559f4d29a8bfc6cda04eb5b0d3c460751c2402c5c5cc9109c",
                        "0x0000000000000000000000005f2e29762fda6d33fd705644d8d2846582bf68d3"
                    ]
                },
                "nodeType": 1
            },
            "45": {
                "invocation": {
                    "address": "0xbb4cdb9cbd36b01bd1cbaebf2de08d9173bc095c",
                    "callData": "0x0000000000000000000000000ed7e52944161450477ee417de9cd3a859b14fd000000000000000000000000000000000000000000000021fba3632c84ff80000",
                    "decodedMethod": {
                        "callParams": [
                            {
                                "name": "dst",
                                "type": "address",
                                "value": "0x0ed7e52944161450477ee417de9cd3a859b14fd0"
                            },
                            {
                                "decimalAvailable": true,
                                "name": "wad",
                                "type": "uint256",
                                "value": "10,030,000,000,000,000,000,000"
                            }
                        ],
                        "constructorArguments": "",
                        "name": "transfer",
                        "returnParams": [
                            {
                                "name": "",
                                "type": "bool",
                                "value": true
                            }
                        ],
                        "signature": "transfer(address,uint256)"
                    },
                    "errorInfo": "",
                    "fromAddress": "0x5f2e29762fda6d33fd705644d8d2846582bf68d3",
                    "gasUsed": 6762,
                    "id": 45,
                    "methodDecoded": true,
                    "operation": "CALL",
                    "output": "0x0000000000000000000000000000000000000000000000000000000000000001",
                    "revert": false,
                    "revertMessage": "",
                    "selector": "0xa9059cbb",
                    "status": true,
                    "value": "0"
                },
                "nodeType": 0
            },
            "46": {
                "event": {
                    "contract": "0xbb4cdb9cbd36b01bd1cbaebf2de08d9173bc095c",
                    "decodedLog": {
                        "name": "Transfer",
                        "params": [
                            {
                                "name": "src",
                                "type": "address",
                                "value": "0x5f2e29762fda6d33fd705644d8d2846582bf68d3"
                            },
                            {
                                "name": "dst",
                                "type": "address",
                                "value": "0x0ed7e52944161450477ee417de9cd3a859b14fd0"
                            },
                            {
                                "decimalAvailable": true,
                                "name": "wad",
                                "type": "uint256",
                                "value": "10,030,000,000,000,000,000,000"
                            }
                        ],
                        "signature": "Transfer(address,address,uint256)"
                    },
                    "id": 46,
                    "logData": "0x00000000000000000000000000000000000000000000021fba3632c84ff80000",
                    "logDecoded": true,
                    "operation": "EVENT",
                    "revert": false,
                    "status": true,
                    "topics": [
                        "0xddf252ad1be2c89b69c2b068fc378daa952ba7f163c4a11628f55a4df523b3ef",
                        "0x0000000000000000000000005f2e29762fda6d33fd705644d8d2846582bf68d3",
                        "0x0000000000000000000000000ed7e52944161450477ee417de9cd3a859b14fd0"
                    ]
                },
                "nodeType": 1
            },
            "47": {
                "invocation": {
                    "address": "0xbb4cdb9cbd36b01bd1cbaebf2de08d9173bc095c",
                    "callData": "0x0000000000000000000000005f2e29762fda6d33fd705644d8d2846582bf68d3",
                    "decodedMethod": {
                        "callParams": [
                            {
                                "name": "",
                                "type": "address",
                                "value": "0x5f2e29762fda6d33fd705644d8d2846582bf68d3"
                            }
                        ],
                        "constructorArguments": "",
                        "name": "balanceOf",
                        "returnParams": [
                            {
                                "decimalAvailable": true,
                                "name": "",
                                "type": "uint256",
                                "value": "297,897,796,173,333,552,624"
                            }
                        ],
                        "signature": "balanceOf(address)"
                    },
                    "errorInfo": "",
                    "fromAddress": "0x5f2e29762fda6d33fd705644d8d2846582bf68d3",
                    "gasUsed": 1234,
                    "id": 47,
                    "methodDecoded": true,
                    "operation": "STATICCALL",
                    "output": "0x0000000000000000000000000000000000000000000000102629934a1b445df0",
                    "revert": false,
                    "revertMessage": "",
                    "selector": "0x70a08231",
                    "status": true,
                    "value": "0"
                },
                "nodeType": 0
            },
            "48": {
                "invocation": {
                    "address": "0xbb4cdb9cbd36b01bd1cbaebf2de08d9173bc095c",
                    "callData": "0x0000000000000000000000000000000000000000000000102629934a1b445df0",
                    "decodedMethod": {
                        "callParams": [
                            {
                                "name": "wad",
                                "type": "uint256",
                                "value": "297,897,796,173,333,552,624"
                            }
                        ],
                        "constructorArguments": "",
                        "name": "withdraw",
                        "returnParams": [],
                        "signature": "withdraw(uint256)"
                    },
                    "errorInfo": "",
                    "fromAddress": "0x5f2e29762fda6d33fd705644d8d2846582bf68d3",
                    "gasUsed": 12721,
                    "id": 48,
                    "methodDecoded": true,
                    "operation": "CALL",
                    "output": "",
                    "revert": false,
                    "revertMessage": "",
                    "selector": "0x2e1a7d4d",
                    "status": true,
                    "value": "0"
                },
                "nodeType": 0
            },
            "49": {
                "invocation": {
                    "address": "0x5f2e29762fda6d33fd705644d8d2846582bf68d3",
                    "callData": "0x",
                    "decodedMethod": null,
                    "errorInfo": "",
                    "fromAddress": "0xbb4cdb9cbd36b01bd1cbaebf2de08d9173bc095c",
                    "gasUsed": 881,
                    "id": 49,
                    "methodDecoded": false,
                    "operation": "CALL",
                    "output": "",
                    "revert": false,
                    "revertMessage": "",
                    "selector": "fallback",
                    "status": true,
                    "value": "297.897796173333552624"
                },
                "nodeType": 0
            },
            "5": {
                "invocation": {
                    "address": "0x0ed7e52944161450477ee417de9cd3a859b14fd0",
                    "callData": "0x",
                    "decodedMethod": {
                        "callParams": [],
                        "constructorArguments": "",
                        "name": "token0",
                        "returnParams": [
                            {
                                "name": "",
                                "type": "address",
                                "value": "0x0e09fabb73bd3ade0a17ecc321fd13a19e81ce82"
                            }
                        ],
                        "signature": "token0()"
                    },
                    "errorInfo": "",
                    "fromAddress": "0x5f2e29762fda6d33fd705644d8d2846582bf68d3",
                    "gasUsed": 1165,
                    "id": 5,
                    "methodDecoded": true,
                    "operation": "STATICCALL",
                    "output": "0x0000000000000000000000000e09fabb73bd3ade0a17ecc321fd13a19e81ce82",
                    "revert": false,
                    "revertMessage": "",
                    "selector": "0x0dfe1681",
                    "status": true,
                    "value": "0"
                },
                "nodeType": 0
            },
            "50": {
                "event": {
                    "contract": "0xbb4cdb9cbd36b01bd1cbaebf2de08d9173bc095c",
                    "decodedLog": {
                        "name": "Withdrawal",
                        "params": [
                            {
                                "name": "src",
                                "type": "address",
                                "value": "0x5f2e29762fda6d33fd705644d8d2846582bf68d3"
                            },
                            {
                                "name": "wad",
                                "type": "uint256",
                                "value": "297,897,796,173,333,552,624"
                            }
                        ],
                        "signature": "Withdrawal(address,uint256)"
                    },
                    "id": 50,
                    "logData": "0x0000000000000000000000000000000000000000000000102629934a1b445df0",
                    "logDecoded": true,
                    "operation": "EVENT",
                    "revert": false,
                    "status": true,
                    "topics": [
                        "0x7fcf532c15f0a6db0bd6d0e038bea71d30d808c7d98cb3bf7268a95bf5081b65",
                        "0x0000000000000000000000005f2e29762fda6d33fd705644d8d2846582bf68d3"
                    ]
                },
                "nodeType": 1
            },
            "51": {
                "invocation": {
                    "address": "0x59c686272e6f11dc8701a162f938fb085d940ad3",
                    "callData": "0x",
                    "decodedMethod": null,
                    "errorInfo": "",
                    "fromAddress": "0x5f2e29762fda6d33fd705644d8d2846582bf68d3",
                    "gasUsed": 0,
                    "id": 51,
                    "methodDecoded": false,
                    "operation": "CALL",
                    "output": "",
                    "revert": false,
                    "revertMessage": "",
                    "selector": "fallback",
                    "status": true,
                    "value": "297.897796173333552624"
                },
                "nodeType": 0
            },
            "52": {
                "invocation": {
                    "address": "0x0e09fabb73bd3ade0a17ecc321fd13a19e81ce82",
                    "callData": "0x0000000000000000000000000ed7e52944161450477ee417de9cd3a859b14fd0",
                    "decodedMethod": {
                        "callParams": [
                            {
                                "name": "account",
                                "type": "address",
                                "value": "0x0ed7e52944161450477ee417de9cd3a859b14fd0"
                            }
                        ],
                        "constructorArguments": "",
                        "name": "balanceOf",
                        "returnParams": [
                            {
                                "decimalAvailable": true,
                                "name": "",
                                "type": "uint256",
                                "value": "20,614,607,259,397,899,894,737,419"
                            }
                        ],
                        "signature": "balanceOf(address)"
                    },
                    "errorInfo": "",
                    "fromAddress": "0x0ed7e52944161450477ee417de9cd3a859b14fd0",
                    "gasUsed": 1231,
                    "id": 52,
                    "methodDecoded": true,
                    "operation": "STATICCALL",
                    "output": "0x000000000000000000000000000000000000000000110d50194990226c914a0b",
                    "revert": false,
                    "revertMessage": "",
                    "selector": "0x70a08231",
                    "status": true,
                    "value": "0"
                },
                "nodeType": 0
            },
            "53": {
                "invocation": {
                    "address": "0xbb4cdb9cbd36b01bd1cbaebf2de08d9173bc095c",
                    "callData": "0x0000000000000000000000000ed7e52944161450477ee417de9cd3a859b14fd0",
                    "decodedMethod": {
                        "callParams": [
                            {
                                "name": "",
                                "type": "address",
                                "value": "0x0ed7e52944161450477ee417de9cd3a859b14fd0"
                            }
                        ],
                        "constructorArguments": "",
                        "name": "balanceOf",
                        "returnParams": [
                            {
                                "decimalAvailable": true,
                                "name": "",
                                "type": "uint256",
                                "value": "1,058,723,132,433,669,423,888,049"
                            }
                        ],
                        "signature": "balanceOf(address)"
                    },
                    "errorInfo": "",
                    "fromAddress": "0x0ed7e52944161450477ee417de9cd3a859b14fd0",
                    "gasUsed": 1234,
                    "id": 53,
                    "methodDecoded": true,
                    "operation": "STATICCALL",
                    "output": "0x00000000000000000000000000000000000000000000e0317efaa8dc4efbf6b1",
                    "revert": false,
                    "revertMessage": "",
                    "selector": "0x70a08231",
                    "status": true,
                    "value": "0"
                },
                "nodeType": 0
            },
            "54": {
                "event": {
                    "contract": "0x0ed7e52944161450477ee417de9cd3a859b14fd0",
                    "decodedLog": {
                        "name": "Sync",
                        "params": [
                            {
                                "name": "reserve0",
                                "type": "uint112",
                                "value": "20,614,607,259,397,899,894,737,419"
                            },
                            {
                                "name": "reserve1",
                                "type": "uint112",
                                "value": "1,058,723,132,433,669,423,888,049"
                            }
                        ],
                        "signature": "Sync(uint112,uint112)"
                    },
                    "id": 54,
                    "logData": "0x000000000000000000000000000000000000000000110d50194990226c914a0b00000000000000000000000000000000000000000000e0317efaa8dc4efbf6b1",
                    "logDecoded": true,
                    "operation": "EVENT",
                    "revert": false,
                    "status": true,
                    "topics": [
                        "0x1c411e9a96e071241c2f21f7726b17ae89e3cab4c78be50e062b03a9fffbbad1"
                    ]
                },
                "nodeType": 1
            },
            "55": {
                "event": {
                    "contract": "0x0ed7e52944161450477ee417de9cd3a859b14fd0",
                    "decodedLog": {
                        "name": "Swap",
                        "params": [
                            {
                                "name": "sender",
                                "type": "address",
                                "value": "0x5f2e29762fda6d33fd705644d8d2846582bf68d3"
                            },
                            {
                                "name": "to",
                                "type": "address",
                                "value": "0x5f2e29762fda6d33fd705644d8d2846582bf68d3"
                            },
                            {
                                "name": "amount0In",
                                "type": "uint256",
                                "value": "0"
                            },
                            {
                                "name": "amount1In",
                                "type": "uint256",
                                "value": "10,030,000,000,000,000,000,000"
                            },
                            {
                                "name": "amount0Out",
                                "type": "uint256",
                                "value": "0"
                            },
                            {
                                "name": "amount1Out",
                                "type": "uint256",
                                "value": "10,000,000,000,000,000,000,000"
                            }
                        ],
                        "signature": "Swap(address,uint256,uint256,uint256,uint256,address)"
                    },
                    "id": 55,
                    "logData": "0x000000000000000000000000000000000000000000000000000000000000000000000000000000000000000000000000000000000000021fba3632c84ff80000000000000000000000000000000000000000000000000000000000000000000000000000000000000000000000000000000000000000021e19e0c9bab2400000",
                    "logDecoded": true,
                    "operation": "EVENT",
                    "revert": false,
                    "status": true,
                    "topics": [
                        "0xd78ad95fa46c994b6551d0da85fc275fe613ce37657fb8d5e3d130840159d822",
                        "0x0000000000000000000000005f2e29762fda6d33fd705644d8d2846582bf68d3",
                        "0x0000000000000000000000005f2e29762fda6d33fd705644d8d2846582bf68d3"
                    ]
                },
                "nodeType": 1
            },
            "6": {
                "invocation": {
                    "address": "0x0ed7e52944161450477ee417de9cd3a859b14fd0",
                    "callData": "0x",
                    "decodedMethod": {
                        "callParams": [],
                        "constructorArguments": "",
                        "name": "token1",
                        "returnParams": [
                            {
                                "name": "",
                                "type": "address",
                                "value": "0xbb4cdb9cbd36b01bd1cbaebf2de08d9173bc095c"
                            }
                        ],
                        "signature": "token1()"
                    },
                    "errorInfo": "",
                    "fromAddress": "0x5f2e29762fda6d33fd705644d8d2846582bf68d3",
                    "gasUsed": 1097,
                    "id": 6,
                    "methodDecoded": true,
                    "operation": "STATICCALL",
                    "output": "0x000000000000000000000000bb4cdb9cbd36b01bd1cbaebf2de08d9173bc095c",
                    "revert": false,
                    "revertMessage": "",
                    "selector": "0xd21220a7",
                    "status": true,
                    "value": "0"
                },
                "nodeType": 0
            },
            "7": {
                "invocation": {
                    "address": "0xbb4cdb9cbd36b01bd1cbaebf2de08d9173bc095c",
                    "callData": "0x00000000000000000000000000000000000000000000021e19e0c9bab2400000",
                    "decodedMethod": {
                        "callParams": [
                            {
                                "name": "wad",
                                "type": "uint256",
                                "value": "10,000,000,000,000,000,000,000"
                            }
                        ],
                        "constructorArguments": "",
                        "name": "withdraw",
                        "returnParams": [],
                        "signature": "withdraw(uint256)"
                    },
                    "errorInfo": "",
                    "fromAddress": "0x5f2e29762fda6d33fd705644d8d2846582bf68d3",
                    "gasUsed": 12721,
                    "id": 7,
                    "methodDecoded": true,
                    "operation": "CALL",
                    "output": "",
                    "revert": false,
                    "revertMessage": "",
                    "selector": "0x2e1a7d4d",
                    "status": true,
                    "value": "0"
                },
                "nodeType": 0
            },
            "8": {
                "invocation": {
                    "address": "0x5f2e29762fda6d33fd705644d8d2846582bf68d3",
                    "callData": "0x",
                    "decodedMethod": null,
                    "errorInfo": "",
                    "fromAddress": "0xbb4cdb9cbd36b01bd1cbaebf2de08d9173bc095c",
                    "gasUsed": 881,
                    "id": 8,
                    "methodDecoded": false,
                    "operation": "CALL",
                    "output": "",
                    "revert": false,
                    "revertMessage": "",
                    "selector": "fallback",
                    "status": true,
                    "value": "10000"
                },
                "nodeType": 0
            },
            "9": {
                "event": {
                    "contract": "0xbb4cdb9cbd36b01bd1cbaebf2de08d9173bc095c",
                    "decodedLog": {
                        "name": "Withdrawal",
                        "params": [
                            {
                                "name": "src",
                                "type": "address",
                                "value": "0x5f2e29762fda6d33fd705644d8d2846582bf68d3"
                            },
                            {
                                "name": "wad",
                                "type": "uint256",
                                "value": "10,000,000,000,000,000,000,000"
                            }
                        ],
                        "signature": "Withdrawal(address,uint256)"
                    },
                    "id": 9,
                    "logData": "0x00000000000000000000000000000000000000000000021e19e0c9bab2400000",
                    "logDecoded": true,
                    "operation": "EVENT",
                    "revert": false,
                    "status": true,
                    "topics": [
                        "0x7fcf532c15f0a6db0bd6d0e038bea71d30d808c7d98cb3bf7268a95bf5081b65",
                        "0x0000000000000000000000005f2e29762fda6d33fd705644d8d2846582bf68d3"
                    ]
                },
                "nodeType": 1
            }
        },
        "gasFlame": [
            {
                "children": [
                    {
                        "children": [
                            {
                                "children": [],
                                "depth": 0,
                                "name": "Initial Gas",
                                "value": 21064
                            },
                            {
                                "children": [
                                    {
                                        "children": [
                                            {
                                                "children": [],
                                                "depth": 2,
                                                "name": "transfer",
                                                "value": 30162
                                            },
                                            {
                                                "children": [
                                                    {
                                                        "children": [],
                                                        "depth": 3,
                                                        "name": "token0",
                                                        "value": 1165
                                                    },
                                                    {
                                                        "children": [],
                                                        "depth": 3,
                                                        "name": "token1",
                                                        "value": 1097
                                                    },
                                                    {
                                                        "children": [
                                                            {
                                                                "children": [],
                                                                "depth": 4,
                                                                "name": "fallback",
                                                                "value": 881
                                                            }
                                                        ],
                                                        "depth": 3,
                                                        "name": "withdraw",
                                                        "value": 12721
                                                    },
                                                    {
                                                        "children": [],
                                                        "depth": 3,
                                                        "name": "calculatePrice",
                                                        "value": 1555
                                                    },
                                                    {
                                                        "children": [],
                                                        "depth": 3,
                                                        "name": "fallback",
                                                        "value": 34351
                                                    },
                                                    {
                                                        "children": [],
                                                        "depth": 3,
                                                        "name": "balanceOf",
                                                        "value": 1630
                                                    },
                                                    {
                                                        "children": [
                                                            {
                                                                "children": [
                                                                    {
                                                                        "children": [],
                                                                        "depth": 5,
                                                                        "name": "balanceOf",
                                                                        "value": 1630
                                                                    },
                                                                    {
                                                                        "children": [],
                                                                        "depth": 5,
                                                                        "name": "fallback",
                                                                        "value": 10951
                                                                    }
                                                                ],
                                                                "depth": 4,
                                                                "name": "fallback",
                                                                "value": 24337
                                                            }
                                                        ],
                                                        "depth": 3,
                                                        "name": "sell",
                                                        "value": 49968
                                                    },
                                                    {
                                                        "children": [],
                                                        "depth": 3,
                                                        "name": "calculatePrice",
                                                        "value": 1555
                                                    },
                                                    {
                                                        "children": [],
                                                        "depth": 3,
                                                        "name": "fallback",
                                                        "value": 4801
                                                    },
                                                    {
                                                        "children": [],
                                                        "depth": 3,
                                                        "name": "balanceOf",
                                                        "value": 1630
                                                    },
                                                    {
                                                        "children": [
                                                            {
                                                                "children": [
                                                                    {
                                                                        "children": [],
                                                                        "depth": 5,
                                                                        "name": "balanceOf",
                                                                        "value": 1630
                                                                    },
                                                                    {
                                                                        "children": [],
                                                                        "depth": 5,
                                                                        "name": "fallback",
                                                                        "value": 10951
                                                                    }
                                                                ],
                                                                "depth": 4,
                                                                "name": "fallback",
                                                                "value": 24337
                                                            }
                                                        ],
                                                        "depth": 3,
                                                        "name": "sell",
                                                        "value": 49968
                                                    },
                                                    {
                                                        "children": [],
                                                        "depth": 3,
                                                        "name": "calculatePrice",
                                                        "value": 1555
                                                    },
                                                    {
                                                        "children": [],
                                                        "depth": 3,
                                                        "name": "fallback",
                                                        "value": 4801
                                                    },
                                                    {
                                                        "children": [],
                                                        "depth": 3,
                                                        "name": "balanceOf",
                                                        "value": 1630
                                                    },
                                                    {
                                                        "children": [
                                                            {
                                                                "children": [
                                                                    {
                                                                        "children": [],
                                                                        "depth": 5,
                                                                        "name": "balanceOf",
                                                                        "value": 1630
                                                                    },
                                                                    {
                                                                        "children": [],
                                                                        "depth": 5,
                                                                        "name": "fallback",
                                                                        "value": 10951
                                                                    }
                                                                ],
                                                                "depth": 4,
                                                                "name": "fallback",
                                                                "value": 24337
                                                            }
                                                        ],
                                                        "depth": 3,
                                                        "name": "sell",
                                                        "value": 49968
                                                    },
                                                    {
                                                        "children": [],
                                                        "depth": 3,
                                                        "name": "calculatePrice",
                                                        "value": 1555
                                                    },
                                                    {
                                                        "children": [],
                                                        "depth": 3,
                                                        "name": "balanceOf",
                                                        "value": 1630
                                                    },
                                                    {
                                                        "children": [
                                                            {
                                                                "children": [],
                                                                "depth": 4,
                                                                "name": "fallback",
                                                                "value": 881
                                                            }
                                                        ],
                                                        "depth": 3,
                                                        "name": "sell",
                                                        "value": 26512
                                                    },
                                                    {
                                                        "children": [],
                                                        "depth": 3,
                                                        "name": "deposit",
                                                        "value": 22674
                                                    },
                                                    {
                                                        "children": [],
                                                        "depth": 3,
                                                        "name": "transfer",
                                                        "value": 6762
                                                    },
                                                    {
                                                        "children": [],
                                                        "depth": 3,
                                                        "name": "balanceOf",
                                                        "value": 1234
                                                    },
                                                    {
                                                        "children": [
                                                            {
                                                                "children": [],
                                                                "depth": 4,
                                                                "name": "fallback",
                                                                "value": 881
                                                            }
                                                        ],
                                                        "depth": 3,
                                                        "name": "withdraw",
                                                        "value": 12721
                                                    },
                                                    {
                                                        "children": [],
                                                        "depth": 3,
                                                        "name": "fallback",
                                                        "value": 0
                                                    }
                                                ],
                                                "depth": 2,
                                                "name": "pancakeCall",
                                                "value": 385178
                                            },
                                            {
                                                "children": [],
                                                "depth": 2,
                                                "name": "balanceOf",
                                                "value": 1231
                                            },
                                            {
                                                "children": [],
                                                "depth": 2,
                                                "name": "balanceOf",
                                                "value": 1234
                                            }
                                        ],
                                        "depth": 1,
                                        "name": "swap",
                                        "value": 466182
                                    }
                                ],
                                "depth": 0,
                                "name": "Executed Gas",
                                "value": 469203
                            }
                        ],
                        "depth": -1,
                        "name": "Actual Gas Used",
                        "value": 388267
                    },
                    {
                        "children": [],
                        "depth": -1,
                        "name": "Refunded Gas",
                        "value": 102000
                    }
                ],
                "depth": -2,
                "name": "Total Gas",
                "value": 490267
            }
        ],
        "isConfirmed": true,
        "mainTrace": [
            {
                "children": [
                    {
                        "children": [
                            {
                                "children": [
                                    {
                                        "children": [
                                            {
                                                "children": [],
                                                "depth": 3,
                                                "id": 3,
                                                "order": 3
                                            }
                                        ],
                                        "depth": 2,
                                        "id": 2,
                                        "order": 2
                                    },
                                    {
                                        "children": [
                                            {
                                                "children": [],
                                                "depth": 3,
                                                "id": 5,
                                                "order": 5
                                            },
                                            {
                                                "children": [],
                                                "depth": 3,
                                                "id": 6,
                                                "order": 6
                                            },
                                            {
                                                "children": [
                                                    {
                                                        "children": [],
                                                        "depth": 4,
                                                        "id": 8,
                                                        "order": 8
                                                    },
                                                    {
                                                        "children": [],
                                                        "depth": 4,
                                                        "id": 9,
                                                        "order": 9
                                                    }
                                                ],
                                                "depth": 3,
                                                "id": 7,
                                                "order": 7
                                            },
                                            {
                                                "children": [],
                                                "depth": 3,
                                                "id": 10,
                                                "order": 10
                                            },
                                            {
                                                "children": [
                                                    {
                                                        "children": [],
                                                        "depth": 4,
                                                        "id": 12,
                                                        "order": 12
                                                    }
                                                ],
                                                "depth": 3,
                                                "id": 11,
                                                "order": 11
                                            },
                                            {
                                                "children": [],
                                                "depth": 3,
                                                "id": 13,
                                                "order": 13
                                            },
                                            {
                                                "children": [
                                                    {
                                                        "children": [
                                                            {
                                                                "children": [],
                                                                "depth": 5,
                                                                "id": 16,
                                                                "order": 16
                                                            },
                                                            {
                                                                "children": [
                                                                    {
                                                                        "children": [],
                                                                        "depth": 6,
                                                                        "id": 18,
                                                                        "order": 18
                                                                    }
                                                                ],
                                                                "depth": 5,
                                                                "id": 17,
                                                                "order": 17
                                                            }
                                                        ],
                                                        "depth": 4,
                                                        "id": 15,
                                                        "order": 15
                                                    },
                                                    {
                                                        "children": [],
                                                        "depth": 4,
                                                        "id": 19,
                                                        "order": 19
                                                    }
                                                ],
                                                "depth": 3,
                                                "id": 14,
                                                "order": 14
                                            },
                                            {
                                                "children": [],
                                                "depth": 3,
                                                "id": 20,
                                                "order": 20
                                            },
                                            {
                                                "children": [],
                                                "depth": 3,
                                                "id": 21,
                                                "order": 21
                                            },
                                            {
                                                "children": [],
                                                "depth": 3,
                                                "id": 22,
                                                "order": 22
                                            },
                                            {
                                                "children": [
                                                    {
                                                        "children": [
                                                            {
                                                                "children": [],
                                                                "depth": 5,
                                                                "id": 25,
                                                                "order": 25
                                                            },
                                                            {
                                                                "children": [
                                                                    {
                                                                        "children": [],
                                                                        "depth": 6,
                                                                        "id": 27,
                                                                        "order": 27
                                                                    }
                                                                ],
                                                                "depth": 5,
                                                                "id": 26,
                                                                "order": 26
                                                            }
                                                        ],
                                                        "depth": 4,
                                                        "id": 24,
                                                        "order": 24
                                                    },
                                                    {
                                                        "children": [],
                                                        "depth": 4,
                                                        "id": 28,
                                                        "order": 28
                                                    }
                                                ],
                                                "depth": 3,
                                                "id": 23,
                                                "order": 23
                                            },
                                            {
                                                "children": [],
                                                "depth": 3,
                                                "id": 29,
                                                "order": 29
                                            },
                                            {
                                                "children": [],
                                                "depth": 3,
                                                "id": 30,
                                                "order": 30
                                            },
                                            {
                                                "children": [],
                                                "depth": 3,
                                                "id": 31,
                                                "order": 31
                                            },
                                            {
                                                "children": [
                                                    {
                                                        "children": [
                                                            {
                                                                "children": [],
                                                                "depth": 5,
                                                                "id": 34,
                                                                "order": 34
                                                            },
                                                            {
                                                                "children": [
                                                                    {
                                                                        "children": [],
                                                                        "depth": 6,
                                                                        "id": 36,
                                                                        "order": 36
                                                                    }
                                                                ],
                                                                "depth": 5,
                                                                "id": 35,
                                                                "order": 35
                                                            }
                                                        ],
                                                        "depth": 4,
                                                        "id": 33,
                                                        "order": 33
                                                    },
                                                    {
                                                        "children": [],
                                                        "depth": 4,
                                                        "id": 37,
                                                        "order": 37
                                                    }
                                                ],
                                                "depth": 3,
                                                "id": 32,
                                                "order": 32
                                            },
                                            {
                                                "children": [],
                                                "depth": 3,
                                                "id": 38,
                                                "order": 38
                                            },
                                            {
                                                "children": [],
                                                "depth": 3,
                                                "id": 39,
                                                "order": 39
                                            },
                                            {
                                                "children": [
                                                    {
                                                        "children": [],
                                                        "depth": 4,
                                                        "id": 41,
                                                        "order": 41
                                                    },
                                                    {
                                                        "children": [],
                                                        "depth": 4,
                                                        "id": 42,
                                                        "order": 42
                                                    }
                                                ],
                                                "depth": 3,
                                                "id": 40,
                                                "order": 40
                                            },
                                            {
                                                "children": [
                                                    {
                                                        "children": [],
                                                        "depth": 4,
                                                        "id": 44,
                                                        "order": 44
                                                    }
                                                ],
                                                "depth": 3,
                                                "id": 43,
                                                "order": 43
                                            },
                                            {
                                                "children": [
                                                    {
                                                        "children": [],
                                                        "depth": 4,
                                                        "id": 46,
                                                        "order": 46
                                                    }
                                                ],
                                                "depth": 3,
                                                "id": 45,
                                                "order": 45
                                            },
                                            {
                                                "children": [],
                                                "depth": 3,
                                                "id": 47,
                                                "order": 47
                                            },
                                            {
                                                "children": [
                                                    {
                                                        "children": [],
                                                        "depth": 4,
                                                        "id": 49,
                                                        "order": 49
                                                    },
                                                    {
                                                        "children": [],
                                                        "depth": 4,
                                                        "id": 50,
                                                        "order": 50
                                                    }
                                                ],
                                                "depth": 3,
                                                "id": 48,
                                                "order": 48
                                            },
                                            {
                                                "children": [],
                                                "depth": 3,
                                                "id": 51,
                                                "order": 51
                                            }
                                        ],
                                        "depth": 2,
                                        "id": 4,
                                        "order": 4
                                    },
                                    {
                                        "children": [],
                                        "depth": 2,
                                        "id": 52,
                                        "order": 52
                                    },
                                    {
                                        "children": [],
                                        "depth": 2,
                                        "id": 53,
                                        "order": 53
                                    },
                                    {
                                        "children": [],
                                        "depth": 2,
                                        "id": 54,
                                        "order": 54
                                    },
                                    {
                                        "children": [],
                                        "depth": 2,
                                        "id": 55,
                                        "order": 55
                                    }
                                ],
                                "depth": 1,
                                "id": 1,
                                "order": 1
                            }
                        ],
                        "depth": 0,
                        "id": 0,
                        "order": 0
                    }
                ],
                "depth": -1,
                "id": -1,
                "order": -1
            }
        ],
        "mainTraceNodeCount": 56,
        "parentIdMap": {
            "0": -1,
            "1": 0,
            "10": 4,
            "11": 4,
            "12": 11,
            "13": 4,
            "14": 4,
            "15": 14,
            "16": 15,
            "17": 15,
            "18": 17,
            "19": 14,
            "2": 1,
            "20": 4,
            "21": 4,
            "22": 4,
            "23": 4,
            "24": 23,
            "25": 24,
            "26": 24,
            "27": 26,
            "28": 23,
            "29": 4,
            "3": 2,
            "30": 4,
            "31": 4,
            "32": 4,
            "33": 32,
            "34": 33,
            "35": 33,
            "36": 35,
            "37": 32,
            "38": 4,
            "39": 4,
            "4": 1,
            "40": 4,
            "41": 40,
            "42": 40,
            "43": 4,
            "44": 43,
            "45": 4,
            "46": 45,
            "47": 4,
            "48": 4,
            "49": 48,
            "5": 4,
            "50": 48,
            "51": 4,
            "52": 1,
            "53": 1,
            "54": 1,
            "55": 1,
            "6": 4,
            "7": 4,
            "8": 7,
            "9": 7
        },
        "tidyTrace": [
            {
                "children": [
                    {
                        "children": [
                            {
                                "children": [
                                    {
                                        "children": [
                                            {
                                                "children": [],
                                                "depth": 3,
                                                "id": 3,
                                                "order": 3
                                            }
                                        ],
                                        "depth": 2,
                                        "id": 2,
                                        "order": 2
                                    },
                                    {
                                        "children": [
                                            {
                                                "children": [
                                                    {
                                                        "children": [],
                                                        "depth": 4,
                                                        "id": 8,
                                                        "order": 8
                                                    },
                                                    {
                                                        "children": [],
                                                        "depth": 4,
                                                        "id": 9,
                                                        "order": 9
                                                    }
                                                ],
                                                "depth": 3,
                                                "id": 7,
                                                "order": 7
                                            },
                                            {
                                                "children": [
                                                    {
                                                        "children": [],
                                                        "depth": 4,
                                                        "id": 12,
                                                        "order": 12
                                                    }
                                                ],
                                                "depth": 3,
                                                "id": 11,
                                                "order": 11
                                            },
                                            {
                                                "children": [
                                                    {
                                                        "children": [
                                                            {
                                                                "children": [
                                                                    {
                                                                        "children": [],
                                                                        "depth": 6,
                                                                        "id": 18,
                                                                        "order": 18
                                                                    }
                                                                ],
                                                                "depth": 5,
                                                                "id": 17,
                                                                "order": 17
                                                            }
                                                        ],
                                                        "depth": 4,
                                                        "id": 15,
                                                        "order": 15
                                                    },
                                                    {
                                                        "children": [],
                                                        "depth": 4,
                                                        "id": 19,
                                                        "order": 19
                                                    }
                                                ],
                                                "depth": 3,
                                                "id": 14,
                                                "order": 14
                                            },
                                            {
                                                "children": [],
                                                "depth": 3,
                                                "id": 21,
                                                "order": 21
                                            },
                                            {
                                                "children": [
                                                    {
                                                        "children": [
                                                            {
                                                                "children": [
                                                                    {
                                                                        "children": [],
                                                                        "depth": 6,
                                                                        "id": 27,
                                                                        "order": 27
                                                                    }
                                                                ],
                                                                "depth": 5,
                                                                "id": 26,
                                                                "order": 26
                                                            }
                                                        ],
                                                        "depth": 4,
                                                        "id": 24,
                                                        "order": 24
                                                    },
                                                    {
                                                        "children": [],
                                                        "depth": 4,
                                                        "id": 28,
                                                        "order": 28
                                                    }
                                                ],
                                                "depth": 3,
                                                "id": 23,
                                                "order": 23
                                            },
                                            {
                                                "children": [],
                                                "depth": 3,
                                                "id": 30,
                                                "order": 30
                                            },
                                            {
                                                "children": [
                                                    {
                                                        "children": [
                                                            {
                                                                "children": [
                                                                    {
                                                                        "children": [],
                                                                        "depth": 6,
                                                                        "id": 36,
                                                                        "order": 36
                                                                    }
                                                                ],
                                                                "depth": 5,
                                                                "id": 35,
                                                                "order": 35
                                                            }
                                                        ],
                                                        "depth": 4,
                                                        "id": 33,
                                                        "order": 33
                                                    },
                                                    {
                                                        "children": [],
                                                        "depth": 4,
                                                        "id": 37,
                                                        "order": 37
                                                    }
                                                ],
                                                "depth": 3,
                                                "id": 32,
                                                "order": 32
                                            },
                                            {
                                                "children": [
                                                    {
                                                        "children": [],
                                                        "depth": 4,
                                                        "id": 41,
                                                        "order": 41
                                                    },
                                                    {
                                                        "children": [],
                                                        "depth": 4,
                                                        "id": 42,
                                                        "order": 42
                                                    }
                                                ],
                                                "depth": 3,
                                                "id": 40,
                                                "order": 40
                                            },
                                            {
                                                "children": [
                                                    {
                                                        "children": [],
                                                        "depth": 4,
                                                        "id": 44,
                                                        "order": 44
                                                    }
                                                ],
                                                "depth": 3,
                                                "id": 43,
                                                "order": 43
                                            },
                                            {
                                                "children": [
                                                    {
                                                        "children": [],
                                                        "depth": 4,
                                                        "id": 46,
                                                        "order": 46
                                                    }
                                                ],
                                                "depth": 3,
                                                "id": 45,
                                                "order": 45
                                            },
                                            {
                                                "children": [
                                                    {
                                                        "children": [],
                                                        "depth": 4,
                                                        "id": 49,
                                                        "order": 49
                                                    },
                                                    {
                                                        "children": [],
                                                        "depth": 4,
                                                        "id": 50,
                                                        "order": 50
                                                    }
                                                ],
                                                "depth": 3,
                                                "id": 48,
                                                "order": 48
                                            },
                                            {
                                                "children": [],
                                                "depth": 3,
                                                "id": 51,
                                                "order": 51
                                            }
                                        ],
                                        "depth": 2,
                                        "id": 4,
                                        "order": 4
                                    },
                                    {
                                        "children": [],
                                        "depth": 2,
                                        "id": 54,
                                        "order": 54
                                    },
                                    {
                                        "children": [],
                                        "depth": 2,
                                        "id": 55,
                                        "order": 55
                                    }
                                ],
                                "depth": 1,
                                "id": 1,
                                "order": 1
                            }
                        ],
                        "depth": 0,
                        "id": 0,
                        "order": 0
                    }
                ],
                "depth": -1,
                "id": -1,
                "order": -1
            }
        ],
        "tidyTraceNodeCount": 40
    },
    "state_change": {
        "stateChanges": [
            {
                "address": "0x0ed7e52944161450477ee417de9cd3a859b14fd0",
                "erc": "ERC-20",
                "slots": [
                    {
                        "current": "0x00000000000000000000000000000007966785fd7e7ba739ac3931952f57d494",
                        "key": "0x0000000000000000000000000000000000000000000000000000000000000009",
                        "prev": "0x0000000000000000000000000000000796670faa3990bba6280357cea2adea8e"
                    },
                    {
                        "current": "0x00000000000000000000000000000c0986fb22ffc31fef6c26bf048260bdca55",
                        "key": "0x000000000000000000000000000000000000000000000000000000000000000a",
                        "prev": "0x00000000000000000000000000000c09864be416b42119713c7bc88c72265f83"
                    },
                    {
                        "current": "0x611ae28f00000000e0317efaa8dc4efbf6b1000000110d50194990226c914a0b",
                        "key": "0x0000000000000000000000000000000000000000000000000000000000000008",
                        "prev": "0x611ae28600000000e02fdea53fceb143f6b1000000110d50194990226c914a0b"
                    }
                ],
                "storageVariables": [
                    {
                        "name": "price1CumulativeLast",
                        "type": "uint256",
                        "value": {
                            "current": "1048589393011223573048911437361457905125973",
                            "prev": "1048588483083299131294060979362384860045187",
                            "typeTag": 1
                        }
                    },
                    {
                        "name": "reserve0",
                        "type": "uint112",
                        "value": {
                            "current": "20614607259397899894737419",
                            "prev": "20614607259397899894737419",
                            "typeTag": 1
                        }
                    },
                    {
                        "name": "reserve1",
                        "type": "uint112",
                        "value": {
                            "current": "1058723132433669423888049",
                            "prev": "1058693132433669423888049",
                            "typeTag": 1
                        }
                    },
                    {
                        "name": "blockTimestampLast",
                        "type": "uint32",
                        "value": {
                            "current": "1629151887",
                            "prev": "1629151878",
                            "typeTag": 1
                        }
                    },
                    {
                        "name": "price0CumulativeLast",
                        "type": "uint256",
                        "value": {
                            "current": "2581898292035082713018354882582395999380",
                            "prev": "2581895892113483011650341935406941858446",
                            "typeTag": 1
                        }
                    }
                ]
            },
            {
                "address": "0xbb4cdb9cbd36b01bd1cbaebf2de08d9173bc095c",
                "erc": "ERC-20",
                "slots": [
                    {
                        "current": "0x00000000000000000000000000000000000000000000e0317efaa8dc4efbf6b1",
                        "key": "0x774456c48aa6871068b68c947f132b492bb302d48e494377f521bc0164db1c16",
                        "prev": "0x00000000000000000000000000000000000000000000e02fdea53fceb143f6b1"
                    }
                ],
                "storageVariables": [
                    {
                        "name": "balanceOf",
                        "type": "mapping(address => uint256)",
                        "value": {
                            "pairs": [
                                {
                                    "key": "0x0ed7e52944161450477ee417de9cd3a859b14fd0",
                                    "value": {
                                        "current": "1058723132433669423888049",
                                        "prev": "1058693132433669423888049",
                                        "typeTag": 1
                                    }
                                }
                            ],
                            "typeTag": 4
                        }
                    }
                ]
            }
        ]
    }
}