{
    "balance_change": {
        "balanceChanges": [
            {
                "account": "0xc73781107d086754314f7720ca14ab8c5ad035e4",
                "assets": [
                    {
                        "address": "0xa608985f5b40cdf6862bec775207f84280a91e3a",
                        "amount": "191,955,211,775.0677378921846213",
                        "iconUrl": "",
                        "isERC1155": false,
                        "isERC721": false,
                        "sign": false,
                        "value": ""
                    },
                    {
                        "address": "0x55d398326f99059ff775485246999027b3197955",
                        "amount": "190,138.757990310758328686",
                        "iconUrl": "https://assets.blocksec.com/icon/810ebed5-1cb7-4a60-827d-c7eb0c438c0e.png",
                        "isERC1155": false,
                        "isERC721": false,
                        "sign": true,
                        "value": "189891.57761460000611"
                    }
                ]
            },
            {
                "account": "0x687756c50f6b3172e29df21c2537c37086b679a5",
                "assets": [
                    {
                        "address": "0xa608985f5b40cdf6862bec775207f84280a91e3a",
                        "amount": "191,955,211,775.0677378921846213",
                        "iconUrl": "",
                        "isERC1155": false,
                        "isERC721": false,
                        "sign": true,
                        "value": ""
                    },
                    {
                        "address": "0x55d398326f99059ff775485246999027b3197955",
                        "amount": "190,138.757990310758328686",
                        "iconUrl": "https://assets.blocksec.com/icon/810ebed5-1cb7-4a60-827d-c7eb0c438c0e.png",
                        "isERC1155": false,
                        "isERC721": false,
                        "sign": false,
                        "value": "189891.57761460000611"
                    }
                ]
            }
        ]
    },
    "profile": {
        "basic_info": {
            "baseFee": "0",
            "blockNumber": 38167373,
            "callData": "0x09b8790a0000000000000000000000000000000000000000000000000000000000000080000000000000000000000000a608985f5b40cdf6862bec775207f84280a91e3a0000000000000000000000004f31fa980a675570939b737ebdde0471a4be40eb0000000000000000000000000000000000000000000000008ac7230489e80000000000000000000000000000000000000000000000000000000000000000000568656c6c6f000000000000000000000000000000000000000000000000000000",
            "debugEnable": true,
            "errorInfo": "",
            "eventCount": 5,
            "feeRecipient": "0xef0274e31810c9df02f98fafde0f841f4e66a1cd",
            "formatValue": "0",
            "gasLimit": 687938,
            "gasPrice": "1",
            "gasUsed": 323736,
            "intTxnCount": 19,
            "internalRevert": false,
            "internalRevertMessage": "",
            "isContractCreation": false,
            "isFlashloan": false,
            "maxFee": "",
            "nonce": 5,
            "overwritedBlockNumber": -1,
            "priorityFee": "",
            "receiver": "0xc73781107d086754314f7720ca14ab8c5ad035e4",
            "revertMessage": "",
            "sender": "0xd03d360dfc1dac7935e114d564a088077e6754a0",
            "simulationEnable": true,
            "sourceTxnHash": "0x8ff764dde572928c353716358e271638fa05af54be69f043df72ad9ad054de25",
            "status": true,
            "timestamp": "2024-04-25T11:18:05Z",
            "transactionFee": "0.000323736",
            "txnHash": "0x8ff764dde572928c353716358e271638fa05af54be69f043df72ad9ad054de25",
            "txnIndex": 111,
            "type": 0,
            "value": "0"
        },
        "fund_flow": [
            {
                "amount": "191,955,211,775.0677378921846213",
                "from": "0xc73781107d086754314f7720ca14ab8c5ad035e4",
                "id": 1,
                "isERC1155": false,
                "isERC721": false,
                "isReverted": false,
                "order": 1,
                "to": "0x687756c50f6b3172e29df21c2537c37086b679a5",
                "token": "0xa608985f5b40cdf6862bec775207f84280a91e3a"
            },
            {
                "amount": "190,138.757990310758328686",
                "from": "0x687756c50f6b3172e29df21c2537c37086b679a5",
                "id": 2,
                "isERC1155": false,
                "isERC721": false,
                "isReverted": false,
                "order": 2,
                "to": "0xc73781107d086754314f7720ca14ab8c5ad035e4",
                "token": "0x55d398326f99059ff775485246999027b3197955"
            }
        ],
        "token_infos": [
            {
                "address": "0x55d398326f99059ff775485246999027b3197955",
                "decimals": 18
            },
            {
                "address": "0xa608985f5b40cdf6862bec775207f84280a91e3a",
                "decimals": 18
            },
            {
                "address": "0xbb4cdb9cbd36b01bd1cbaebf2de08d9173bc095c",
                "decimals": 18
            },
            {
                "address": "0xeeeeeeeeeeeeeeeeeeeeeeeeeeeeeeeeeeeeeeee",
                "decimals": 18
            }
        ]
    },
    "address_label": {
        "labels": [
            {
                "address": "0x0000000000000000000000000000000000000002",
                "label": "Precompiled"
            },
            {
                "address": "0x0000000000000000000000000000000000000003",
                "label": "Precompiled"
            },
            {
                "address": "0xeeeeeeeeeeeeeeeeeeeeeeeeeeeeeeeeeeeeeeee",
                "label": "BNB"
            },
            {
                "address": "0x687756c50f6b3172e29df21c2537c37086b679a5",
                "label": "PancakeSwap V2: BSC-USD-NGFS"
            },
            {
                "address": "0x10ed43c718714eb63d5aa57b78b54704e256024e",
                "label": "PancakeRouter"
            },
            {
                "address": "0x55d398326f99059ff775485246999027b3197955",
                "label": "BUSD-T Stablecoin"
            },
            {
                "address": "0xa608985f5b40cdf6862bec775207f84280a91e3a",
                "label": "NGFS"
            },
            {
                "address": "0x0000000000000000000000000000000000000001",
                "label": "Precompiled"
            },
            {
                "address": "0x0000000000000000000000000000000000000004",
                "label": "Precompiled"
            },
            {
                "address": "0xca143ce32fe78f1f7019d7d551a6402fc5350c73",
                "label": "PancakeSwap: Factory v2"
            }
        ]
    },
    "trace": {
        "accountLabels": null,
        "dataMap": {
            "-1": {
                "invocation": {
                    "address": "0xd03d360dfc1dac7935e114d564a088077e6754a0",
                    "callData": "",
                    "decodedMethod": null,
                    "errorInfo": "",
                    "fromAddress": "",
                    "gasUsed": 0,
                    "id": -1,
                    "methodDecoded": false,
                    "operation": "",
                    "output": "",
                    "revert": false,
                    "revertMessage": "",
                    "selector": "",
                    "status": false,
                    "value": ""
                },
                "nodeType": 0
            },
            "0": {
                "invocation": {
                    "address": "0xc73781107d086754314f7720ca14ab8c5ad035e4",
                    "callData": "0x0000000000000000000000000000000000000000000000000000000000000080000000000000000000000000a608985f5b40cdf6862bec775207f84280a91e3a0000000000000000000000004f31fa980a675570939b737ebdde0471a4be40eb0000000000000000000000000000000000000000000000008ac7230489e80000000000000000000000000000000000000000000000000000000000000000000568656c6c6f000000000000000000000000000000000000000000000000000000",
                    "decodedMethod": null,
                    "errorInfo": "",
                    "fromAddress": "0xd03d360dfc1dac7935e114d564a088077e6754a0",
                    "gasUsed": 323736,
                    "id": 0,
                    "methodDecoded": false,
                    "operation": "CALL",
                    "output": "",
                    "revert": false,
                    "revertMessage": "",
                    "selector": "0x09b8790a",
                    "status": true,
                    "value": "0"
                },
                "nodeType": 0
            },
            "1": {
                "invocation": {
                    "address": "0xca143ce32fe78f1f7019d7d551a6402fc5350c73",
                    "callData": "0x000000000000000000000000a608985f5b40cdf6862bec775207f84280a91e3a00000000000000000000000055d398326f99059ff775485246999027b3197955",
                    "decodedMethod": {
                        "callParams": [
                            {
                                "name": "",
                                "type": "address",
                                "value": "0xa608985f5b40cdf6862bec775207f84280a91e3a"
                            },
                            {
                                "name": "",
                                "type": "address",
                                "value": "0x55d398326f99059ff775485246999027b3197955"
                            }
                        ],
                        "constructorArguments": "",
                        "name": "getPair",
                        "returnParams": [
                            {
                                "name": "",
                                "type": "address",
                                "value": "0x687756c50f6b3172e29df21c2537c37086b679a5"
                            }
                        ],
                        "signature": "getPair(address,address)"
                    },
                    "errorInfo": "",
                    "fromAddress": "0xc73781107d086754314f7720ca14ab8c5ad035e4",
                    "gasUsed": 2676,
                    "id": 1,
                    "methodDecoded": true,
                    "operation": "STATICCALL",
                    "output": "0x000000000000000000000000687756c50f6b3172e29df21c2537c37086b679a5",
                    "revert": false,
                    "revertMessage": "",
                    "selector": "0xe6a43905",
                    "status": true,
                    "value": "0"
                },
                "nodeType": 0
            },
            "10": {
                "invocation": {
                    "address": "0xa608985f5b40cdf6862bec775207f84280a91e3a",
                    "callData": "0x000000000000000000000000c73781107d086754314f7720ca14ab8c5ad035e4000000000000000000000000687756c50f6b3172e29df21c2537c37086b679a500000000000000000000000000000000000000026c3da131527a231ffa1b80f4",
                    "decodedMethod": {
                        "callParams": [
                            {
                                "name": "sender",
                                "type": "address",
                                "value": "0xc73781107d086754314f7720ca14ab8c5ad035e4"
                            },
                            {
                                "name": "recipient",
                                "type": "address",
                                "value": "0x687756c50f6b3172e29df21c2537c37086b679a5"
                            },
                            {
                                "decimalAvailable": true,
                                "name": "amount",
                                "type": "uint256",
                                "value": "191,955,211,775,067,737,892,184,621,300"
                            }
                        ],
                        "constructorArguments": "",
                        "name": "transferFrom",
                        "returnParams": [
                            {
                                "name": "",
                                "type": "bool",
                                "value": true
                            }
                        ],
                        "signature": "transferFrom(address,address,uint256)"
                    },
                    "errorInfo": "",
                    "fromAddress": "0x10ed43c718714eb63d5aa57b78b54704e256024e",
                    "gasUsed": 16563,
                    "id": 10,
                    "methodDecoded": true,
                    "operation": "CALL",
                    "output": "0x0000000000000000000000000000000000000000000000000000000000000001",
                    "revert": false,
                    "revertMessage": "",
                    "selector": "0x23b872dd",
                    "status": true,
                    "value": "0"
                },
                "nodeType": 0
            },
            "11": {
                "event": {
                    "contract": "0xa608985f5b40cdf6862bec775207f84280a91e3a",
                    "decodedLog": {
                        "name": "Transfer",
                        "params": [
                            {
                                "name": "from",
                                "type": "address",
                                "value": "0xc73781107d086754314f7720ca14ab8c5ad035e4"
                            },
                            {
                                "name": "to",
                                "type": "address",
                                "value": "0x687756c50f6b3172e29df21c2537c37086b679a5"
                            },
                            {
                                "decimalAvailable": true,
                                "name": "value",
                                "type": "uint256",
                                "value": "191,955,211,775,067,737,892,184,621,300"
                            }
                        ],
                        "signature": "Transfer(address,address,uint256)"
                    },
                    "id": 11,
                    "logData": "0x00000000000000000000000000000000000000026c3da131527a231ffa1b80f4",
                    "logDecoded": true,
                    "operation": "EVENT",
                    "revert": false,
                    "status": true,
                    "topics": [
                        "0xddf252ad1be2c89b69c2b068fc378daa952ba7f163c4a11628f55a4df523b3ef",
                        "0x000000000000000000000000c73781107d086754314f7720ca14ab8c5ad035e4",
                        "0x000000000000000000000000687756c50f6b3172e29df21c2537c37086b679a5"
                    ]
                },
                "nodeType": 1
            },
            "12": {
                "invocation": {
                    "address": "0x55d398326f99059ff775485246999027b3197955",
                    "callData": "0x000000000000000000000000c73781107d086754314f7720ca14ab8c5ad035e4",
                    "decodedMethod": {
                        "callParams": [
                            {
                                "name": "account",
                                "type": "address",
                                "value": "0xc73781107d086754314f7720ca14ab8c5ad035e4"
                            }
                        ],
                        "constructorArguments": "",
                        "name": "balanceOf",
                        "returnParams": [
                            {
                                "decimalAvailable": true,
                                "name": "",
                                "type": "uint256",
                                "value": "0"
                            }
                        ],
                        "signature": "balanceOf(address)"
                    },
                    "errorInfo": "",
                    "fromAddress": "0x10ed43c718714eb63d5aa57b78b54704e256024e",
                    "gasUsed": 2531,
                    "id": 12,
                    "methodDecoded": true,
                    "operation": "STATICCALL",
                    "output": "0x0000000000000000000000000000000000000000000000000000000000000000",
                    "revert": false,
                    "revertMessage": "",
                    "selector": "0x70a08231",
                    "status": true,
                    "value": "0"
                },
                "nodeType": 0
            },
            "13": {
                "invocation": {
                    "address": "0x687756c50f6b3172e29df21c2537c37086b679a5",
                    "callData": "0x",
                    "decodedMethod": {
                        "callParams": [],
                        "constructorArguments": "",
                        "name": "getReserves",
                        "returnParams": [
                            {
                                "name": "_reserve0",
                                "type": "uint112",
                                "value": "192,044,910,952,619,638,111,430"
                            },
                            {
                                "name": "_reserve1",
                                "type": "uint112",
                                "value": "1,919,552,117,750,677,378,921,846,213"
                            },
                            {
                                "name": "_blockTimestampLast",
                                "type": "uint32",
                                "value": "1,714,038,677"
                            }
                        ],
                        "signature": "getReserves()"
                    },
                    "errorInfo": "",
                    "fromAddress": "0x10ed43c718714eb63d5aa57b78b54704e256024e",
                    "gasUsed": 2893,
                    "id": 13,
                    "methodDecoded": true,
                    "operation": "STATICCALL",
                    "output": "0x0000000000000000000000000000000000000000000028aac68615dc81edbcc600000000000000000000000000000000000000000633d0f8d02f4d26b842d5c500000000000000000000000000000000000000000000000000000000662a2795",
                    "revert": false,
                    "revertMessage": "",
                    "selector": "0x0902f1ac",
                    "status": true,
                    "value": "0"
                },
                "nodeType": 0
            },
            "14": {
                "invocation": {
                    "address": "0xa608985f5b40cdf6862bec775207f84280a91e3a",
                    "callData": "0x000000000000000000000000687756c50f6b3172e29df21c2537c37086b679a5",
                    "decodedMethod": {
                        "callParams": [
                            {
                                "name": "account",
                                "type": "address",
                                "value": "0x687756c50f6b3172e29df21c2537c37086b679a5"
                            }
                        ],
                        "constructorArguments": "",
                        "name": "balanceOf",
                        "returnParams": [
                            {
                                "decimalAvailable": true,
                                "name": "",
                                "type": "uint256",
                                "value": "193,874,763,892,818,415,271,106,467,513"
                            }
                        ],
                        "signature": "balanceOf(address)"
                    },
                    "errorInfo": "",
                    "fromAddress": "0x10ed43c718714eb63d5aa57b78b54704e256024e",
                    "gasUsed": 625,
                    "id": 14,
                    "methodDecoded": true,
                    "operation": "STATICCALL",
                    "output": "0x00000000000000000000000000000000000000027271722a22a97046b25e56b9",
                    "revert": false,
                    "revertMessage": "",
                    "selector": "0x70a08231",
                    "status": true,
                    "value": "0"
                },
                "nodeType": 0
            },
            "15": {
                "invocation": {
                    "address": "0x687756c50f6b3172e29df21c2537c37086b679a5",
                    "callData": "0x000000000000000000000000000000000000000000002843715661df6698296e0000000000000000000000000000000000000000000000000000000000000000000000000000000000000000c73781107d086754314f7720ca14ab8c5ad035e400000000000000000000000000000000000000000000000000000000000000800000000000000000000000000000000000000000000000000000000000000000",
                    "decodedMethod": {
                        "callParams": [
                            {
                                "name": "amount0Out",
                                "type": "uint256",
                                "value": "190,138,757,990,310,758,328,686"
                            },
                            {
                                "name": "amount1Out",
                                "type": "uint256",
                                "value": "0"
                            },
                            {
                                "name": "to",
                                "type": "address",
                                "value": "0xc73781107d086754314f7720ca14ab8c5ad035e4"
                            },
                            {
                                "name": "data",
                                "type": "bytes",
                                "value": "0x"
                            }
                        ],
                        "constructorArguments": "",
                        "name": "swap",
                        "returnParams": [],
                        "signature": "swap(uint256,uint256,address,bytes)"
                    },
                    "errorInfo": "",
                    "fromAddress": "0x10ed43c718714eb63d5aa57b78b54704e256024e",
                    "gasUsed": 62439,
                    "id": 15,
                    "methodDecoded": true,
                    "operation": "CALL",
                    "output": "",
                    "revert": false,
                    "revertMessage": "",
                    "selector": "0x022c0d9f",
                    "status": true,
                    "value": "0"
                },
                "nodeType": 0
            },
            "16": {
                "invocation": {
                    "address": "0x55d398326f99059ff775485246999027b3197955",
                    "callData": "0x000000000000000000000000c73781107d086754314f7720ca14ab8c5ad035e4000000000000000000000000000000000000000000002843715661df6698296e",
                    "decodedMethod": {
                        "callParams": [
                            {
                                "name": "recipient",
                                "type": "address",
                                "value": "0xc73781107d086754314f7720ca14ab8c5ad035e4"
                            },
                            {
                                "decimalAvailable": true,
                                "name": "amount",
                                "type": "uint256",
                                "value": "190,138,757,990,310,758,328,686"
                            }
                        ],
                        "constructorArguments": "",
                        "name": "transfer",
                        "returnParams": [
                            {
                                "name": "",
                                "type": "bool",
                                "value": true
                            }
                        ],
                        "signature": "transfer(address,uint256)"
                    },
                    "errorInfo": "",
                    "fromAddress": "0x687756c50f6b3172e29df21c2537c37086b679a5",
                    "gasUsed": 27971,
                    "id": 16,
                    "methodDecoded": true,
                    "operation": "CALL",
                    "output": "0x0000000000000000000000000000000000000000000000000000000000000001",
                    "revert": false,
                    "revertMessage": "",
                    "selector": "0xa9059cbb",
                    "status": true,
                    "value": "0"
                },
                "nodeType": 0
            },
            "17": {
                "event": {
                    "contract": "0x55d398326f99059ff775485246999027b3197955",
                    "decodedLog": {
                        "name": "Transfer",
                        "params": [
                            {
                                "name": "from",
                                "type": "address",
                                "value": "0x687756c50f6b3172e29df21c2537c37086b679a5"
                            },
                            {
                                "name": "to",
                                "type": "address",
                                "value": "0xc73781107d086754314f7720ca14ab8c5ad035e4"
                            },
                            {
                                "decimalAvailable": true,
                                "name": "value",
                                "type": "uint256",
                                "value": "190,138,757,990,310,758,328,686"
                            }
                        ],
                        "signature": "Transfer(address,address,uint256)"
                    },
                    "id": 17,
                    "logData": "0x000000000000000000000000000000000000000000002843715661df6698296e",
                    "logDecoded": true,
                    "operation": "EVENT",
                    "revert": false,
                    "status": true,
                    "topics": [
                        "0xddf252ad1be2c89b69c2b068fc378daa952ba7f163c4a11628f55a4df523b3ef",
                        "0x000000000000000000000000687756c50f6b3172e29df21c2537c37086b679a5",
                        "0x000000000000000000000000c73781107d086754314f7720ca14ab8c5ad035e4"
                    ]
                },
                "nodeType": 1
            },
            "18": {
                "invocation": {
                    "address": "0x55d398326f99059ff775485246999027b3197955",
                    "callData": "0x000000000000000000000000687756c50f6b3172e29df21c2537c37086b679a5",
                    "decodedMethod": {
                        "callParams": [
                            {
                                "name": "account",
                                "type": "address",
                                "value": "0x687756c50f6b3172e29df21c2537c37086b679a5"
                            }
                        ],
                        "constructorArguments": "",
                        "name": "balanceOf",
                        "returnParams": [
                            {
                                "decimalAvailable": true,
                                "name": "",
                                "type": "uint256",
                                "value": "1,906,152,962,308,879,782,744"
                            }
                        ],
                        "signature": "balanceOf(address)"
                    },
                    "errorInfo": "",
                    "fromAddress": "0x687756c50f6b3172e29df21c2537c37086b679a5",
                    "gasUsed": 531,
                    "id": 18,
                    "methodDecoded": true,
                    "operation": "STATICCALL",
                    "output": "0x000000000000000000000000000000000000000000000067552fb3fd1b559358",
                    "revert": false,
                    "revertMessage": "",
                    "selector": "0x70a08231",
                    "status": true,
                    "value": "0"
                },
                "nodeType": 0
            },
            "19": {
                "invocation": {
                    "address": "0xa608985f5b40cdf6862bec775207f84280a91e3a",
                    "callData": "0x000000000000000000000000687756c50f6b3172e29df21c2537c37086b679a5",
                    "decodedMethod": {
                        "callParams": [
                            {
                                "name": "account",
                                "type": "address",
                                "value": "0x687756c50f6b3172e29df21c2537c37086b679a5"
                            }
                        ],
                        "constructorArguments": "",
                        "name": "balanceOf",
                        "returnParams": [
                            {
                                "decimalAvailable": true,
                                "name": "",
                                "type": "uint256",
                                "value": "193,874,763,892,818,415,271,106,467,513"
                            }
                        ],
                        "signature": "balanceOf(address)"
                    },
                    "errorInfo": "",
                    "fromAddress": "0x687756c50f6b3172e29df21c2537c37086b679a5",
                    "gasUsed": 625,
                    "id": 19,
                    "methodDecoded": true,
                    "operation": "STATICCALL",
                    "output": "0x00000000000000000000000000000000000000027271722a22a97046b25e56b9",
                    "revert": false,
                    "revertMessage": "",
                    "selector": "0x70a08231",
                    "status": true,
                    "value": "0"
                },
                "nodeType": 0
            },
            "2": {
                "invocation": {
                    "address": "0xa608985f5b40cdf6862bec775207f84280a91e3a",
                    "callData": "0x",
                    "decodedMethod": {
                        "callParams": [],
                        "constructorArguments": "",
                        "name": "delegateCallReserves",
                        "returnParams": [],
                        "signature": "delegateCallReserves()"
                    },
                    "errorInfo": "",
                    "fromAddress": "0xc73781107d086754314f7720ca14ab8c5ad035e4",
                    "gasUsed": 27554,
                    "id": 2,
                    "methodDecoded": true,
                    "operation": "CALL",
                    "output": "",
                    "revert": false,
                    "revertMessage": "",
                    "selector": "0x9bdb94d8",
                    "status": true,
                    "value": "0"
                },
                "nodeType": 0
            },
            "20": {
                "event": {
                    "contract": "0x687756c50f6b3172e29df21c2537c37086b679a5",
                    "decodedLog": {
                        "name": "Sync",
                        "params": [
                            {
                                "name": "reserve0",
                                "type": "uint112",
                                "value": "1,906,152,962,308,879,782,744"
                            },
                            {
                                "name": "reserve1",
                                "type": "uint112",
                                "value": "193,874,763,892,818,415,271,106,467,513"
                            }
                        ],
                        "signature": "Sync(uint112,uint112)"
                    },
                    "id": 20,
                    "logData": "0x000000000000000000000000000000000000000000000067552fb3fd1b55935800000000000000000000000000000000000000027271722a22a97046b25e56b9",
                    "logDecoded": true,
                    "operation": "EVENT",
                    "revert": false,
                    "status": true,
                    "topics": [
                        "0x1c411e9a96e071241c2f21f7726b17ae89e3cab4c78be50e062b03a9fffbbad1"
                    ]
                },
                "nodeType": 1
            },
            "21": {
                "event": {
                    "contract": "0x687756c50f6b3172e29df21c2537c37086b679a5",
                    "decodedLog": {
                        "name": "Swap",
                        "params": [
                            {
                                "name": "sender",
                                "type": "address",
                                "value": "0x10ed43c718714eb63d5aa57b78b54704e256024e"
                            },
                            {
                                "name": "to",
                                "type": "address",
                                "value": "0xc73781107d086754314f7720ca14ab8c5ad035e4"
                            },
                            {
                                "name": "amount0In",
                                "type": "uint256",
                                "value": "0"
                            },
                            {
                                "name": "amount1In",
                                "type": "uint256",
                                "value": "191,955,211,775,067,737,892,184,621,300"
                            },
                            {
                                "name": "amount0Out",
                                "type": "uint256",
                                "value": "190,138,757,990,310,758,328,686"
                            },
                            {
                                "name": "amount1Out",
                                "type": "uint256",
                                "value": "0"
                            }
                        ],
                        "signature": "Swap(address,uint256,uint256,uint256,uint256,address)"
                    },
                    "id": 21,
                    "logData": "0x000000000000000000000000000000000000000000000000000000000000000000000000000000000000000000000000000000026c3da131527a231ffa1b80f4000000000000000000000000000000000000000000002843715661df6698296e0000000000000000000000000000000000000000000000000000000000000000",
                    "logDecoded": true,
                    "operation": "EVENT",
                    "revert": false,
                    "status": true,
                    "topics": [
                        "0xd78ad95fa46c994b6551d0da85fc275fe613ce37657fb8d5e3d130840159d822",
                        "0x00000000000000000000000010ed43c718714eb63d5aa57b78b54704e256024e",
                        "0x000000000000000000000000c73781107d086754314f7720ca14ab8c5ad035e4"
                    ]
                },
                "nodeType": 1
            },
            "22": {
                "invocation": {
                    "address": "0x55d398326f99059ff775485246999027b3197955",
                    "callData": "0x000000000000000000000000c73781107d086754314f7720ca14ab8c5ad035e4",
                    "decodedMethod": {
                        "callParams": [
                            {
                                "name": "account",
                                "type": "address",
                                "value": "0xc73781107d086754314f7720ca14ab8c5ad035e4"
                            }
                        ],
                        "constructorArguments": "",
                        "name": "balanceOf",
                        "returnParams": [
                            {
                                "decimalAvailable": true,
                                "name": "",
                                "type": "uint256",
                                "value": "190,138,757,990,310,758,328,686"
                            }
                        ],
                        "signature": "balanceOf(address)"
                    },
                    "errorInfo": "",
                    "fromAddress": "0x10ed43c718714eb63d5aa57b78b54704e256024e",
                    "gasUsed": 531,
                    "id": 22,
                    "methodDecoded": true,
                    "operation": "STATICCALL",
                    "output": "0x000000000000000000000000000000000000000000002843715661df6698296e",
                    "revert": false,
                    "revertMessage": "",
                    "selector": "0x70a08231",
                    "status": true,
                    "value": "0"
                },
                "nodeType": 0
            },
            "23": {
                "invocation": {
                    "address": "0x55d398326f99059ff775485246999027b3197955",
                    "callData": "0x000000000000000000000000c73781107d086754314f7720ca14ab8c5ad035e4",
                    "decodedMethod": {
                        "callParams": [
                            {
                                "name": "account",
                                "type": "address",
                                "value": "0xc73781107d086754314f7720ca14ab8c5ad035e4"
                            }
                        ],
                        "constructorArguments": "",
                        "name": "balanceOf",
                        "returnParams": [
                            {
                                "decimalAvailable": true,
                                "name": "",
                                "type": "uint256",
                                "value": "190,138,757,990,310,758,328,686"
                            }
                        ],
                        "signature": "balanceOf(address)"
                    },
                    "errorInfo": "",
                    "fromAddress": "0xc73781107d086754314f7720ca14ab8c5ad035e4",
                    "gasUsed": 531,
                    "id": 23,
                    "methodDecoded": true,
                    "operation": "STATICCALL",
                    "output": "0x000000000000000000000000000000000000000000002843715661df6698296e",
                    "revert": false,
                    "revertMessage": "",
                    "selector": "0x70a08231",
                    "status": true,
                    "value": "0"
                },
                "nodeType": 0
            },
            "24": {
                "invocation": {
                    "address": "0x000000000000000000636f6e736f6c652e6c6f67",
                    "callData": "0x0000000000000000000000000000000000000000000000000000000000000040000000000000000000000000000000000000000000000000000000000002e6ba000000000000000000000000000000000000000000000000000000000000000a5553445420697320257300000000000000000000000000000000000000000000",
                    "decodedMethod": null,
                    "errorInfo": "",
                    "fromAddress": "0xc73781107d086754314f7720ca14ab8c5ad035e4",
                    "gasUsed": 0,
                    "id": 24,
                    "methodDecoded": false,
                    "operation": "STATICCALL",
                    "output": "",
                    "revert": false,
                    "revertMessage": "",
                    "selector": "0x9710a9d0",
                    "status": true,
                    "value": "0"
                },
                "nodeType": 0
            },
            "3": {
                "invocation": {
                    "address": "0xa608985f5b40cdf6862bec775207f84280a91e3a",
                    "callData": "0x000000000000000000000000c73781107d086754314f7720ca14ab8c5ad035e4",
                    "decodedMethod": {
                        "callParams": [
                            {
                                "name": "_addr",
                                "type": "address",
                                "value": "0xc73781107d086754314f7720ca14ab8c5ad035e4"
                            }
                        ],
                        "constructorArguments": "",
                        "name": "setProxySync",
                        "returnParams": [],
                        "signature": "setProxySync(address)"
                    },
                    "errorInfo": "",
                    "fromAddress": "0xc73781107d086754314f7720ca14ab8c5ad035e4",
                    "gasUsed": 49234,
                    "id": 3,
                    "methodDecoded": true,
                    "operation": "CALL",
                    "output": "",
                    "revert": false,
                    "revertMessage": "",
                    "selector": "0x9d98824c",
                    "status": true,
                    "value": "0"
                },
                "nodeType": 0
            },
            "4": {
                "invocation": {
                    "address": "0xa608985f5b40cdf6862bec775207f84280a91e3a",
                    "callData": "0x000000000000000000000000687756c50f6b3172e29df21c2537c37086b679a5",
                    "decodedMethod": {
                        "callParams": [
                            {
                                "name": "account",
                                "type": "address",
                                "value": "0x687756c50f6b3172e29df21c2537c37086b679a5"
                            }
                        ],
                        "constructorArguments": "",
                        "name": "balanceOf",
                        "returnParams": [
                            {
                                "decimalAvailable": true,
                                "name": "",
                                "type": "uint256",
                                "value": "1,919,552,117,750,677,378,921,846,213"
                            }
                        ],
                        "signature": "balanceOf(address)"
                    },
                    "errorInfo": "",
                    "fromAddress": "0xc73781107d086754314f7720ca14ab8c5ad035e4",
                    "gasUsed": 2625,
                    "id": 4,
                    "methodDecoded": true,
                    "operation": "STATICCALL",
                    "output": "0x00000000000000000000000000000000000000000633d0f8d02f4d26b842d5c5",
                    "revert": false,
                    "revertMessage": "",
                    "selector": "0x70a08231",
                    "status": true,
                    "value": "0"
                },
                "nodeType": 0
            },
            "5": {
                "invocation": {
                    "address": "0xa608985f5b40cdf6862bec775207f84280a91e3a",
                    "callData": "0x000000000000000000000000c73781107d086754314f7720ca14ab8c5ad035e400000000000000000000000000000000000000026c3da131527a231ffa1b80f4",
                    "decodedMethod": {
                        "callParams": [
                            {
                                "name": "syncAddr",
                                "type": "address",
                                "value": "0xc73781107d086754314f7720ca14ab8c5ad035e4"
                            },
                            {
                                "name": "syncAmount",
                                "type": "uint256",
                                "value": "191,955,211,775,067,737,892,184,621,300"
                            }
                        ],
                        "constructorArguments": "",
                        "name": "reserveMultiSync",
                        "returnParams": [],
                        "signature": "reserveMultiSync(address,uint256)"
                    },
                    "errorInfo": "",
                    "fromAddress": "0xc73781107d086754314f7720ca14ab8c5ad035e4",
                    "gasUsed": 23342,
                    "id": 5,
                    "methodDecoded": true,
                    "operation": "CALL",
                    "output": "",
                    "revert": false,
                    "revertMessage": "",
                    "selector": "0x3a2a6074",
                    "status": true,
                    "value": "0"
                },
                "nodeType": 0
            },
            "6": {
                "invocation": {
                    "address": "0xa608985f5b40cdf6862bec775207f84280a91e3a",
                    "callData": "0x000000000000000000000000c73781107d086754314f7720ca14ab8c5ad035e4",
                    "decodedMethod": {
                        "callParams": [
                            {
                                "name": "account",
                                "type": "address",
                                "value": "0xc73781107d086754314f7720ca14ab8c5ad035e4"
                            }
                        ],
                        "constructorArguments": "",
                        "name": "balanceOf",
                        "returnParams": [
                            {
                                "decimalAvailable": true,
                                "name": "",
                                "type": "uint256",
                                "value": "191,955,211,775,067,737,892,184,621,300"
                            }
                        ],
                        "signature": "balanceOf(address)"
                    },
                    "errorInfo": "",
                    "fromAddress": "0xc73781107d086754314f7720ca14ab8c5ad035e4",
                    "gasUsed": 625,
                    "id": 6,
                    "methodDecoded": true,
                    "operation": "STATICCALL",
                    "output": "0x00000000000000000000000000000000000000026c3da131527a231ffa1b80f4",
                    "revert": false,
                    "revertMessage": "",
                    "selector": "0x70a08231",
                    "status": true,
                    "value": "0"
                },
                "nodeType": 0
            },
            "7": {
                "invocation": {
                    "address": "0xa608985f5b40cdf6862bec775207f84280a91e3a",
                    "callData": "0x00000000000000000000000010ed43c718714eb63d5aa57b78b54704e256024effffffffffffffffffffffffffffffffffffffffffffffffffffffffffffffff",
                    "decodedMethod": {
                        "callParams": [
                            {
                                "name": "spender",
                                "type": "address",
                                "value": "0x10ed43c718714eb63d5aa57b78b54704e256024e"
                            },
                            {
                                "decimalAvailable": true,
                                "name": "amount",
                                "type": "uint256",
                                "value": "115,792,089,237,316,195,423,570,985,008,687,907,853,269,984,665,640,564,039,457,584,007,913,129,639,935"
                            }
                        ],
                        "constructorArguments": "",
                        "name": "approve",
                        "returnParams": [
                            {
                                "name": "",
                                "type": "bool",
                                "value": true
                            }
                        ],
                        "signature": "approve(address,uint256)"
                    },
                    "errorInfo": "",
                    "fromAddress": "0xc73781107d086754314f7720ca14ab8c5ad035e4",
                    "gasUsed": 24685,
                    "id": 7,
                    "methodDecoded": true,
                    "operation": "CALL",
                    "output": "0x0000000000000000000000000000000000000000000000000000000000000001",
                    "revert": false,
                    "revertMessage": "",
                    "selector": "0x095ea7b3",
                    "status": true,
                    "value": "0"
                },
                "nodeType": 0
            },
            "8": {
                "event": {
                    "contract": "0xa608985f5b40cdf6862bec775207f84280a91e3a",
                    "decodedLog": {
                        "name": "Approval",
                        "params": [
                            {
                                "name": "owner",
                                "type": "address",
                                "value": "0xc73781107d086754314f7720ca14ab8c5ad035e4"
                            },
                            {
                                "name": "spender",
                                "type": "address",
                                "value": "0x10ed43c718714eb63d5aa57b78b54704e256024e"
                            },
                            {
                                "decimalAvailable": true,
                                "name": "value",
                                "type": "uint256",
                                "value": "115,792,089,237,316,195,423,570,985,008,687,907,853,269,984,665,640,564,039,457,584,007,913,129,639,935"
                            }
                        ],
                        "signature": "Approval(address,address,uint256)"
                    },
                    "id": 8,
                    "logData": "0xffffffffffffffffffffffffffffffffffffffffffffffffffffffffffffffff",
                    "logDecoded": true,
                    "operation": "EVENT",
                    "revert": false,
                    "status": true,
                    "topics": [
                        "0x8c5be1e5ebec7d5bd14f71427d1e84f3dd0314c0f7b2291e5b200ac8c7c3b925",
                        "0x000000000000000000000000c73781107d086754314f7720ca14ab8c5ad035e4",
                        "0x00000000000000000000000010ed43c718714eb63d5aa57b78b54704e256024e"
                    ]
                },
                "nodeType": 1
            },
            "9": {
                "invocation": {
                    "address": "0x10ed43c718714eb63d5aa57b78b54704e256024e",
                    "callData": "0x00000000000000000000000000000000000000026c3da131527a231ffa1b80f4000000000000000000000000000000000000000000000000000000000000000000000000000000000000000000000000000000000000000000000000000000a0000000000000000000000000c73781107d086754314f7720ca14ab8c5ad035e400000000000000000000000000000000000000000000000000000000662a3bed0000000000000000000000000000000000000000000000000000000000000002000000000000000000000000a608985f5b40cdf6862bec775207f84280a91e3a00000000000000000000000055d398326f99059ff775485246999027b3197955",
                    "decodedMethod": {
                        "callParams": [
                            {
                                "name": "amountIn",
                                "type": "uint256",
                                "value": "191,955,211,775,067,737,892,184,621,300"
                            },
                            {
                                "name": "amountOutMin",
                                "type": "uint256",
                                "value": "0"
                            },
                            {
                                "name": "path",
                                "type": "address[]",
                                "value": [
                                    "0xa608985f5b40cdf6862bec775207f84280a91e3a",
                                    "0x55d398326f99059ff775485246999027b3197955"
                                ]
                            },
                            {
                                "name": "to",
                                "type": "address",
                                "value": "0xc73781107d086754314f7720ca14ab8c5ad035e4"
                            },
                            {
                                "name": "deadline",
                                "type": "uint256",
                                "value": "1,714,043,885"
                            }
                        ],
                        "constructorArguments": "",
                        "name": "swapExactTokensForTokensSupportingFeeOnTransferTokens",
                        "returnParams": [],
                        "signature": "swapExactTokensForTokensSupportingFeeOnTransferTokens(uint256,uint256,address[],address,uint256)"
                    },
                    "errorInfo": "",
                    "fromAddress": "0xc73781107d086754314f7720ca14ab8c5ad035e4",
                    "gasUsed": 97774,
                    "id": 9,
                    "methodDecoded": true,
                    "operation": "CALL",
                    "output": "",
                    "revert": false,
                    "revertMessage": "",
                    "selector": "0x5c11d795",
                    "status": true,
                    "value": "0"
                },
                "nodeType": 0
            }
        },
        "gasFlame": [
            {
                "children": [
                    {
                        "children": [
                            {
                                "children": [],
                                "depth": 0,
                                "name": "Initial Gas",
                                "value": 22468
                            },
                            {
                                "children": [
                                    {
                                        "children": [],
                                        "depth": 1,
                                        "name": "getPair",
                                        "value": 2676
                                    },
                                    {
                                        "children": [],
                                        "depth": 1,
                                        "name": "delegateCallReserves",
                                        "value": 27554
                                    },
                                    {
                                        "children": [],
                                        "depth": 1,
                                        "name": "setProxySync",
                                        "value": 49234
                                    },
                                    {
                                        "children": [],
                                        "depth": 1,
                                        "name": "balanceOf",
                                        "value": 2625
                                    },
                                    {
                                        "children": [],
                                        "depth": 1,
                                        "name": "reserveMultiSync",
                                        "value": 23342
                                    },
                                    {
                                        "children": [],
                                        "depth": 1,
                                        "name": "balanceOf",
                                        "value": 625
                                    },
                                    {
                                        "children": [],
                                        "depth": 1,
                                        "name": "approve",
                                        "value": 24685
                                    },
                                    {
                                        "children": [
                                            {
                                                "children": [],
                                                "depth": 2,
                                                "name": "transferFrom",
                                                "value": 16563
                                            },
                                            {
                                                "children": [],
                                                "depth": 2,
                                                "name": "balanceOf",
                                                "value": 2531
                                            },
                                            {
                                                "children": [],
                                                "depth": 2,
                                                "name": "getReserves",
                                                "value": 2893
                                            },
                                            {
                                                "children": [],
                                                "depth": 2,
                                                "name": "balanceOf",
                                                "value": 625
                                            },
                                            {
                                                "children": [
                                                    {
                                                        "children": [],
                                                        "depth": 3,
                                                        "name": "transfer",
                                                        "value": 27971
                                                    },
                                                    {
                                                        "children": [],
                                                        "depth": 3,
                                                        "name": "balanceOf",
                                                        "value": 531
                                                    },
                                                    {
                                                        "children": [],
                                                        "depth": 3,
                                                        "name": "balanceOf",
                                                        "value": 625
                                                    }
                                                ],
                                                "depth": 2,
                                                "name": "swap",
                                                "value": 62439
                                            },
                                            {
                                                "children": [],
                                                "depth": 2,
                                                "name": "balanceOf",
                                                "value": 531
                                            }
                                        ],
                                        "depth": 1,
                                        "name": "swapExactTokensForTokensSupportingFeeOnTransferTokens",
                                        "value": 97774
                                    },
                                    {
                                        "children": [],
                                        "depth": 1,
                                        "name": "balanceOf",
                                        "value": 531
                                    },
                                    {
                                        "children": [],
                                        "depth": 1,
                                        "name": "0x9710a9d0",
                                        "value": 0
                                    }
                                ],
                                "depth": 0,
                                "name": "Executed Gas",
                                "value": 343868
                            }
                        ],
                        "depth": -1,
                        "name": "Actual Gas Used",
                        "value": 323736
                    },
                    {
                        "children": [],
                        "depth": -1,
                        "name": "Refunded Gas",
                        "value": 42600
                    }
                ],
                "depth": -2,
                "name": "Total Gas",
                "value": 366336
            }
        ],
        "isConfirmed": true,
        "mainTrace": [
            {
                "children": [
                    {
                        "children": [
                            {
                                "children": [],
                                "depth": 1,
                                "id": 1,
                                "order": 1
                            },
                            {
                                "children": [],
                                "depth": 1,
                                "id": 2,
                                "order": 2
                            },
                            {
                                "children": [],
                                "depth": 1,
                                "id": 3,
                                "order": 3
                            },
                            {
                                "children": [],
                                "depth": 1,
                                "id": 4,
                                "order": 4
                            },
                            {
                                "children": [],
                                "depth": 1,
                                "id": 5,
                                "order": 5
                            },
                            {
                                "children": [],
                                "depth": 1,
                                "id": 6,
                                "order": 6
                            },
                            {
                                "children": [
                                    {
                                        "children": [],
                                        "depth": 2,
                                        "id": 8,
                                        "order": 8
                                    }
                                ],
                                "depth": 1,
                                "id": 7,
                                "order": 7
                            },
                            {
                                "children": [
                                    {
                                        "children": [
                                            {
                                                "children": [],
                                                "depth": 3,
                                                "id": 11,
                                                "order": 11
                                            }
                                        ],
                                        "depth": 2,
                                        "id": 10,
                                        "order": 10
                                    },
                                    {
                                        "children": [],
                                        "depth": 2,
                                        "id": 12,
                                        "order": 12
                                    },
                                    {
                                        "children": [],
                                        "depth": 2,
                                        "id": 13,
                                        "order": 13
                                    },
                                    {
                                        "children": [],
                                        "depth": 2,
                                        "id": 14,
                                        "order": 14
                                    },
                                    {
                                        "children": [
                                            {
                                                "children": [
                                                    {
                                                        "children": [],
                                                        "depth": 4,
                                                        "id": 17,
                                                        "order": 17
                                                    }
                                                ],
                                                "depth": 3,
                                                "id": 16,
                                                "order": 16
                                            },
                                            {
                                                "children": [],
                                                "depth": 3,
                                                "id": 18,
                                                "order": 18
                                            },
                                            {
                                                "children": [],
                                                "depth": 3,
                                                "id": 19,
                                                "order": 19
                                            },
                                            {
                                                "children": [],
                                                "depth": 3,
                                                "id": 20,
                                                "order": 20
                                            },
                                            {
                                                "children": [],
                                                "depth": 3,
                                                "id": 21,
                                                "order": 21
                                            }
                                        ],
                                        "depth": 2,
                                        "id": 15,
                                        "order": 15
                                    },
                                    {
                                        "children": [],
                                        "depth": 2,
                                        "id": 22,
                                        "order": 22
                                    }
                                ],
                                "depth": 1,
                                "id": 9,
                                "order": 9
                            },
                            {
                                "children": [],
                                "depth": 1,
                                "id": 23,
                                "order": 23
                            },
                            {
                                "children": [],
                                "depth": 1,
                                "id": 24,
                                "order": 24
                            }
                        ],
                        "depth": 0,
                        "id": 0,
                        "order": 0
                    }
                ],
                "depth": -1,
                "id": -1,
                "order": -1
            }
        ],
        "mainTraceNodeCount": 25,
        "parentIdMap": {
            "0": -1,
            "1": 0,
            "10": 9,
            "11": 10,
            "12": 9,
            "13": 9,
            "14": 9,
            "15": 9,
            "16": 15,
            "17": 16,
            "18": 15,
            "19": 15,
            "2": 0,
            "20": 15,
            "21": 15,
            "22": 9,
            "23": 0,
            "24": 0,
            "3": 0,
            "4": 0,
            "5": 0,
            "6": 0,
            "7": 0,
            "8": 7,
            "9": 0
        },
        "tidyTrace": [
            {
                "children": [
                    {
                        "children": [
                            {
                                "children": [],
                                "depth": 1,
                                "id": 2,
                                "order": 2
                            },
                            {
                                "children": [],
                                "depth": 1,
                                "id": 3,
                                "order": 3
                            },
                            {
                                "children": [],
                                "depth": 1,
                                "id": 5,
                                "order": 5
                            },
                            {
                                "children": [
                                    {
                                        "children": [],
                                        "depth": 2,
                                        "id": 8,
                                        "order": 8
                                    }
                                ],
                                "depth": 1,
                                "id": 7,
                                "order": 7
                            },
                            {
                                "children": [
                                    {
                                        "children": [
                                            {
                                                "children": [],
                                                "depth": 3,
                                                "id": 11,
                                                "order": 11
                                            }
                                        ],
                                        "depth": 2,
                                        "id": 10,
                                        "order": 10
                                    },
                                    {
                                        "children": [
                                            {
                                                "children": [
                                                    {
                                                        "children": [],
                                                        "depth": 4,
                                                        "id": 17,
                                                        "order": 17
                                                    }
                                                ],
                                                "depth": 3,
                                                "id": 16,
                                                "order": 16
                                            },
                                            {
                                                "children": [],
                                                "depth": 3,
                                                "id": 20,
                                                "order": 20
                                            },
                                            {
                                                "children": [],
                                                "depth": 3,
                                                "id": 21,
                                                "order": 21
                                            }
                                        ],
                                        "depth": 2,
                                        "id": 15,
                                        "order": 15
                                    }
                                ],
                                "depth": 1,
                                "id": 9,
                                "order": 9
                            }
                        ],
                        "depth": 0,
                        "id": 0,
                        "order": 0
                    }
                ],
                "depth": -1,
                "id": -1,
                "order": -1
            }
        ],
        "tidyTraceNodeCount": 14
    },
    "state_change": {
        "stateChanges": [
            {
                "address": "0x55d398326f99059ff775485246999027b3197955",
                "erc": "ERC-20",
                "slots": [
                    {
                        "current": "0x000000000000000000000000000000000000000000000067552fb3fd1b559358",
                        "key": "0xa2c2ba48363d2c1c51babf6e3b513f11d1736cb0ee39469897bad127dd1006e9",
                        "prev": "0x0000000000000000000000000000000000000000000028aac68615dc81edbcc6"
                    },
                    {
                        "current": "0x000000000000000000000000000000000000000000002843715661df6698296e",
                        "key": "0x97a6c4cd2448cb19c4e401ff23b8b8dd27b8ba6438e5070c30899662ed0cdbb5",
                        "prev": "0x0000000000000000000000000000000000000000000000000000000000000000"
                    }
                ],
                "storageVariables": [
                    {
                        "name": "_balances",
                        "type": "mapping(address => uint256)",
                        "value": {
                            "pairs": [
                                {
                                    "key": "0x687756c50f6b3172e29df21c2537c37086b679a5",
                                    "value": {
                                        "current": "1906152962308879782744",
                                        "prev": "192044910952619638111430",
                                        "typeTag": 1
                                    }
                                },
                                {
                                    "key": "0xc73781107d086754314f7720ca14ab8c5ad035e4",
                                    "value": {
                                        "current": "190138757990310758328686",
                                        "prev": "0",
                                        "typeTag": 1
                                    }
                                }
                            ],
                            "typeTag": 4
                        }
                    }
                ]
            },
            {
                "address": "0x687756c50f6b3172e29df21c2537c37086b679a5",
                "erc": "ERC-20",
                "slots": [
                    {
                        "current": "0x00000000000000000000000000000485c554cc4673fb6684c0ea98dda570d5ad",
                        "key": "0x0000000000000000000000000000000000000000000000000000000000000009",
                        "prev": "0x0000000000000000000000000000016b76da028a31bd507d305de851e04bf70d"
                    },
                    {
                        "current": "0x000000000000000000000000000000000000c25dc6f30b07334318a986acfde8",
                        "key": "0x000000000000000000000000000000000000000000000000000000000000000a",
                        "prev": "0x0000000000000000000000000000000000003cfaaddb2de3f9491400e13ef380"
                    },
                    {
                        "current": "0x662a3bed00027271722a22a97046b25e56b9000000000067552fb3fd1b559358",
                        "key": "0x0000000000000000000000000000000000000000000000000000000000000008",
                        "prev": "0x662a279500000633d0f8d02f4d26b842d5c50000000028aac68615dc81edbcc6"
                    }
                ],
                "storageVariables": [
                    {
                        "name": "price1CumulativeLast",
                        "type": "uint256",
                        "value": {
                            "current": "3942217254075248290663781123292648",
                            "prev": "1236805422725831763680348570841984",
                            "typeTag": 1
                        }
                    },
                    {
                        "name": "reserve0",
                        "type": "uint112",
                        "value": {
                            "current": "1906152962308879782744",
                            "prev": "192044910952619638111430",
                            "typeTag": 1
                        }
                    },
                    {
                        "name": "reserve1",
                        "type": "uint112",
                        "value": {
                            "current": "193874763892818415271106467513",
                            "prev": "1919552117750677378921846213",
                            "typeTag": 1
                        }
                    },
                    {
                        "name": "blockTimestampLast",
                        "type": "uint32",
                        "value": {
                            "current": "1714043885",
                            "prev": "1714038677",
                            "typeTag": 1
                        }
                    },
                    {
                        "name": "price0CumulativeLast",
                        "type": "uint256",
                        "value": {
                            "current": "393968996738824972801186967984447278863789",
                            "prev": "123680480068032142169462270724040131606285",
                            "typeTag": 1
                        }
                    }
                ]
            },
            {
                "address": "0xa608985f5b40cdf6862bec775207f84280a91e3a",
                "erc": "ERC-20",
                "slots": [
                    {
                        "current": "0xffffffffffffffffffffffffffffffffffffffffffffffffffffffffffffffff",
                        "key": "0x2083d4e08632a912cd49b3f2add738f079ff910bb25348a5aa64d73cda939938",
                        "prev": "0x0000000000000000000000000000000000000000000000000000000000000000"
                    },
                    {
                        "current": "0x00000000000000000000000000000000000000027271722a22a97046b25e56b9",
                        "key": "0xa2c2ba48363d2c1c51babf6e3b513f11d1736cb0ee39469897bad127dd1006e9",
                        "prev": "0x00000000000000000000000000000000000000000633d0f8d02f4d26b842d5c5"
                    },
                    {
                        "current": "0x000000000000000000000000c73781107d086754314f7720ca14ab8c5ad035e4",
                        "key": "0x000000000000000000000000000000000000000000000000000000000000000a",
                        "prev": "0x0000000000000000000000000000000000000000000000000000000000000000"
                    },
                    {
                        "current": "0x0000000000000000000000000000000000000000000000000000000000010001",
                        "key": "0x0000000000000000000000000000000000000000000000000000000000000020",
                        "prev": "0x0000000000000000000000000000000000000000000000000000000000010000"
                    },
                    {
                        "current": "0x000000000000000000000000c73781107d086754314f7720ca14ab8c5ad035e4",
                        "key": "0x000000000000000000000000000000000000000000000000000000000000000d",
                        "prev": "0x0000000000000000000000000000000000000000000000000000000000000000"
                    },
                    {
                        "current": "0x0000000000000000000000000000000000000000000000000000000000000001",
                        "key": "0xce7b22bd89b53697b1305ecd22b788bcc2a4fe0ff16506e2077a2ba6f4082b44",
                        "prev": "0x0000000000000000000000000000000000000000000000000000000000000000"
                    }
                ],
                "storageVariables": [
                    {
                        "name": "uniswapV2Dele",
                        "type": "bool",
                        "value": {
                            "current": "true",
                            "prev": "false",
                            "typeTag": 1
                        }
                    },
                    {
                        "name": "inSwapAndLiquify",
                        "type": "bool",
                        "value": {
                            "current": "false",
                            "prev": "false",
                            "typeTag": 1
                        }
                    },
                    {
                        "name": "swapAndLiquifyEnabled",
                        "type": "bool",
                        "value": {
                            "current": "true",
                            "prev": "true",
                            "typeTag": 1
                        }
                    },
                    {
                        "name": "_uniswapV2Library",
                        "type": "contract IPancakeLibrary",
                        "value": {
                            "current": "0xc73781107d086754314f7720ca14ab8c5ad035e4",
                            "prev": "0x0000000000000000000000000000000000000000",
                            "typeTag": 1
                        }
                    },
                    {
                        "name": "_isExcludedFromFee",
                        "type": "mapping(address => bool)",
                        "value": {
                            "pairs": [
                                {
                                    "key": "0xc73781107d086754314f7720ca14ab8c5ad035e4",
                                    "value": {
                                        "current": "true",
                                        "prev": "false",
                                        "typeTag": 1
                                    }
                                }
                            ],
                            "typeTag": 4
                        }
                    },
                    {
                        "name": "_allowances",
                        "type": "mapping(address => mapping(address => uint256))",
                        "value": {
                            "pairs": [
                                {
                                    "key": "0xc73781107d086754314f7720ca14ab8c5ad035e4",
                                    "value": {
                                        "pairs": [
                                            {
                                                "key": "0x10ed43c718714eb63d5aa57b78b54704e256024e",
                                                "value": {
                                                    "current": "115792089237316195423570985008687907853269984665640564039457584007913129639935",
                                                    "prev": "0",
                                                    "typeTag": 1
                                                }
                                            }
                                        ],
                                        "typeTag": 4
                                    }
                                }
                            ],
                            "typeTag": 4
                        }
                    },
                    {
                        "name": "_balances",
                        "type": "mapping(address => uint256)",
                        "value": {
                            "pairs": [
                                {
                                    "key": "0x687756c50f6b3172e29df21c2537c37086b679a5",
                                    "value": {
                                        "current": "193874763892818415271106467513",
                                        "prev": "1919552117750677378921846213",
                                        "typeTag": 1
                                    }
                                }
                            ],
                            "typeTag": 4
                        }
                    },
                    {
                        "name": "_uniswapV2Proxy",
                        "type": "address",
                        "value": {
                            "current": "0xc73781107d086754314f7720ca14ab8c5ad035e4",
                            "prev": "0x0000000000000000000000000000000000000000",
                            "typeTag": 1
                        }
                    }
                ]
            },
            {
                "address": "0xc73781107d086754314f7720ca14ab8c5ad035e4",
                "erc": "",
                "slots": [
                    {
                        "current": "0x0000000000000000000000000000000000000000000000008ac7230489e80000",
                        "key": "0x000000000000000000000000000000000000000000000000000000000000000b",
                        "prev": "0x0000000000000000000000000000000000000000000000000000000000000000"
                    },
                    {
                        "current": "0x000000000000000000000000687756c50f6b3172e29df21c2537c37086b679a5",
                        "key": "0x0000000000000000000000000000000000000000000000000000000000000001",
                        "prev": "0x0000000000000000000000000000000000000000000000000000000000000000"
                    },
                    {
                        "current": "0x0000000000000000000000004f31fa980a675570939b737ebdde0471a4be40eb",
                        "key": "0x000000000000000000000000000000000000000000000000000000000000000c",
                        "prev": "0x0000000000000000000000000000000000000000000000000000000000000000"
                    }
                ],
                "storageVariables": []
            }
        ]
    }
}