{
    "balance_change": {
        "balanceChanges": [
            {
                "account": "0x0cfc28d16d07219249c6d6d6ae24e7132ee4caa7",
                "assets": [
                    {
                        "address": "0x19ae49b9f38dd836317363839a5f6bfbfa7e319a",
                        "amount": "482,589,886.903032631",
                        "iconUrl": "",
                        "isERC1155": false,
                        "isERC721": false,
                        "sign": true,
                        "value": "190507.7098"
                    }
                ]
            },
            {
                "account": "0x47ddb6a433b76117a98fbeab5320d8b67d468e31",
                "assets": [
                    {
                        "address": "0x19ae49b9f38dd836317363839a5f6bfbfa7e319a",
                        "amount": "482,589,886.903032631",
                        "iconUrl": "",
                        "isERC1155": false,
                        "isERC721": false,
                        "sign": false,
                        "value": "190507.7098"
                    }
                ]
            }
        ]
    },
    "profile": {
        "basic_info": {
            "baseFee": "10.285423626",
            "blockNumber": 19723706,
            "callData": "0x06b091f900000000000000000000000019ae49b9f38dd836317363839a5f6bfbfa7e319a0000000000000000000000000000000000000000000000000000000000000000",
            "debugEnable": true,
            "errorInfo": "",
            "eventCount": 2,
            "feeRecipient": "0x95222290dd7278aa3ddd389cc1e1d165cc4bafe5",
            "formatValue": "0",
            "gasLimit": 148530,
            "gasPrice": "10.305423626",
            "gasUsed": 139110,
            "intTxnCount": 8,
            "internalRevert": false,
            "internalRevertMessage": "",
            "isContractCreation": false,
            "isFlashloan": false,
            "maxFee": "15",
            "nonce": 3,
            "overwritedBlockNumber": -1,
            "priorityFee": "0.02",
            "receiver": "0x899266243fd2b9a0426b58bd6d534c6b813ef27a",
            "revertMessage": "",
            "sender": "0x0cfc28d16d07219249c6d6d6ae24e7132ee4caa7",
            "simulationEnable": true,
            "sourceTxnHash": "0x903d88a92cbc0165a7f662305ac1bff97430dbcccaa0fe71e101e18aa9109c92",
            "status": true,
            "timestamp": "2024-04-24T07:19:35Z",
            "transactionFee": "0.00143358748061286",
            "txnHash": "0x903d88a92cbc0165a7f662305ac1bff97430dbcccaa0fe71e101e18aa9109c92",
            "txnIndex": 146,
            "type": 2,
            "value": "0"
        },
        "fund_flow": [
            {
                "amount": "482,589,886.903032631",
                "from": "0x47ddb6a433b76117a98fbeab5320d8b67d468e31",
                "id": 1,
                "isERC1155": false,
                "isERC721": false,
                "isReverted": false,
                "order": 1,
                "to": "0x0cfc28d16d07219249c6d6d6ae24e7132ee4caa7",
                "token": "0x19ae49b9f38dd836317363839a5f6bfbfa7e319a"
            }
        ],
        "token_infos": [
            {
                "address": "0xc02aaa39b223fe8d0a0e5c4f27ead9083c756cc2",
                "decimals": 18
            },
            {
                "address": "0xeeeeeeeeeeeeeeeeeeeeeeeeeeeeeeeeeeeeeeee",
                "decimals": 18
            },
            {
                "address": "0x19ae49b9f38dd836317363839a5f6bfbfa7e319a",
                "decimals": 9
            }
        ]
    },
    "address_label": {
        "labels": [
            {
                "address": "0xeeeeeeeeeeeeeeeeeeeeeeeeeeeeeeeeeeeeeeee",
                "label": "Ether"
            },
            {
                "address": "0x0cfc28d16d07219249c6d6d6ae24e7132ee4caa7",
                "label": "SaitaChain Exploiter"
            },
            {
                "address": "0x354cca2f55dde182d36fe34d673430e226a3cb8c",
                "label": "XBridge"
            },
            {
                "address": "0x47ddb6a433b76117a98fbeab5320d8b67d468e31",
                "label": "OwnedUpgradeabilityXBridgeProxy"
            },
            {
                "address": "0x19ae49b9f38dd836317363839a5f6bfbfa7e319a",
                "label": "Saitachain: STC Token"
            },
            {
                "address": "0x0000000000000000000000000000000000000001",
                "label": "Precompiled"
            },
            {
                "address": "0x0000000000000000000000000000000000000002",
                "label": "Precompiled"
            },
            {
                "address": "0x0000000000000000000000000000000000000003",
                "label": "Precompiled"
            },
            {
                "address": "0x0000000000000000000000000000000000000004",
                "label": "Precompiled"
            }
        ]
    },
    "trace": {
        "accountLabels": null,
        "dataMap": {
            "-1": {
                "invocation": {
                    "address": "0x0cfc28d16d07219249c6d6d6ae24e7132ee4caa7",
                    "callData": "",
                    "decodedMethod": null,
                    "errorInfo": "",
                    "fromAddress": "",
                    "gasUsed": 0,
                    "id": -1,
                    "methodDecoded": false,
                    "operation": "",
                    "output": "",
                    "revert": false,
                    "revertMessage": "",
                    "selector": "",
                    "status": false,
                    "value": ""
                },
                "nodeType": 0
            },
            "0": {
                "invocation": {
                    "address": "0x899266243fd2b9a0426b58bd6d534c6b813ef27a",
                    "callData": "0x00000000000000000000000019ae49b9f38dd836317363839a5f6bfbfa7e319a0000000000000000000000000000000000000000000000000000000000000000",
                    "decodedMethod": {
                        "callParams": [
                            {
                                "name": "token",
                                "type": "address",
                                "value": "0x19ae49b9f38dd836317363839a5f6bfbfa7e319a"
                            },
                            {
                                "name": "amount",
                                "type": "uint256",
                                "value": "0"
                            }
                        ],
                        "constructorArguments": "",
                        "name": "withdrawTokens",
                        "returnParams": [],
                        "signature": "withdrawTokens(address,uint256)"
                    },
                    "errorInfo": "",
                    "fromAddress": "0x0cfc28d16d07219249c6d6d6ae24e7132ee4caa7",
                    "gasUsed": 139110,
                    "id": 0,
                    "methodDecoded": true,
                    "operation": "CALL",
                    "output": "",
                    "revert": false,
                    "revertMessage": "",
                    "selector": "0x06b091f9",
                    "status": true,
                    "value": "0"
                },
                "nodeType": 0
            },
            "1": {
                "invocation": {
                    "address": "0x445d2656e557e19800b2a3b9be547db56ed3c8d4",
                    "callData": "0x00000000000000000000000019ae49b9f38dd836317363839a5f6bfbfa7e319a0000000000000000000000000000000000000000000000000000000000000000",
                    "decodedMethod": {
                        "callParams": [
                            {
                                "name": "token",
                                "type": "address",
                                "value": "0x19ae49b9f38dd836317363839a5f6bfbfa7e319a"
                            },
                            {
                                "name": "amount",
                                "type": "uint256",
                                "value": "0"
                            }
                        ],
                        "constructorArguments": "",
                        "name": "withdrawTokens",
                        "returnParams": [],
                        "signature": "withdrawTokens(address,uint256)"
                    },
                    "errorInfo": "",
                    "fromAddress": "0x899266243fd2b9a0426b58bd6d534c6b813ef27a",
                    "gasUsed": 117290,
                    "id": 1,
                    "methodDecoded": true,
                    "operation": "DELEGATECALL",
                    "output": "",
                    "revert": false,
                    "revertMessage": "",
                    "selector": "0x06b091f9",
                    "status": true,
                    "value": "0"
                },
                "nodeType": 0
            },
            "10": {
                "event": {
                    "contract": "0x47ddb6a433b76117a98fbeab5320d8b67d468e31",
                    "decodedLog": {
                        "name": "TokenWithdrawn",
                        "params": [
                            {
                                "name": "user",
                                "type": "address",
                                "value": "0x899266243fd2b9a0426b58bd6d534c6b813ef27a"
                            },
                            {
                                "name": "receiver",
                                "type": "address",
                                "value": "0x0cfc28d16d07219249c6d6d6ae24e7132ee4caa7"
                            },
                            {
                                "name": "amount",
                                "type": "uint256",
                                "value": "482,589,886,903,032,631"
                            }
                        ],
                        "signature": "TokenWithdrawn(address,address,uint256)"
                    },
                    "id": 10,
                    "logData": "0x00000000000000000000000000000000000000000000000006b280f1fd0d1b37",
                    "logDecoded": true,
                    "operation": "EVENT",
                    "revert": false,
                    "status": true,
                    "topics": [
                        "0x8210728e7c071f615b840ee026032693858fbcd5e5359e67e438c890f59e5620",
                        "0x000000000000000000000000899266243fd2b9a0426b58bd6d534c6b813ef27a",
                        "0x0000000000000000000000000cfc28d16d07219249c6d6d6ae24e7132ee4caa7"
                    ]
                },
                "nodeType": 1
            },
            "2": {
                "invocation": {
                    "address": "0x47ddb6a433b76117a98fbeab5320d8b67d468e31",
                    "callData": "0x00000000000000000000000019ae49b9f38dd836317363839a5f6bfbfa7e319a",
                    "decodedMethod": {
                        "callParams": [
                            {
                                "name": "",
                                "type": "address",
                                "value": "0x19ae49b9f38dd836317363839a5f6bfbfa7e319a"
                            }
                        ],
                        "constructorArguments": "",
                        "name": "tokenTax",
                        "returnParams": [
                            {
                                "name": "",
                                "type": "uint256",
                                "value": "0"
                            }
                        ],
                        "signature": "tokenTax(address)"
                    },
                    "errorInfo": "",
                    "fromAddress": "0x899266243fd2b9a0426b58bd6d534c6b813ef27a",
                    "gasUsed": 9915,
                    "id": 2,
                    "methodDecoded": true,
                    "operation": "CALL",
                    "output": "0x0000000000000000000000000000000000000000000000000000000000000000",
                    "revert": false,
                    "revertMessage": "",
                    "selector": "0x43fb2b61",
                    "status": true,
                    "value": "0"
                },
                "nodeType": 0
            },
            "3": {
                "invocation": {
                    "address": "0x354cca2f55dde182d36fe34d673430e226a3cb8c",
                    "callData": "0x00000000000000000000000019ae49b9f38dd836317363839a5f6bfbfa7e319a",
                    "decodedMethod": {
                        "callParams": [
                            {
                                "name": "",
                                "type": "address",
                                "value": "0x19ae49b9f38dd836317363839a5f6bfbfa7e319a"
                            }
                        ],
                        "constructorArguments": "",
                        "name": "tokenTax",
                        "returnParams": [
                            {
                                "name": "",
                                "type": "uint256",
                                "value": "0"
                            }
                        ],
                        "signature": "tokenTax(address)"
                    },
                    "errorInfo": "",
                    "fromAddress": "0x47ddb6a433b76117a98fbeab5320d8b67d468e31",
                    "gasUsed": 2674,
                    "id": 3,
                    "methodDecoded": true,
                    "operation": "DELEGATECALL",
                    "output": "0x0000000000000000000000000000000000000000000000000000000000000000",
                    "revert": false,
                    "revertMessage": "",
                    "selector": "0x43fb2b61",
                    "status": true,
                    "value": "0"
                },
                "nodeType": 0
            },
            "4": {
                "invocation": {
                    "address": "0x19ae49b9f38dd836317363839a5f6bfbfa7e319a",
                    "callData": "0x00000000000000000000000047ddb6a433b76117a98fbeab5320d8b67d468e31",
                    "decodedMethod": {
                        "callParams": [
                            {
                                "name": "account",
                                "type": "address",
                                "value": "0x47ddb6a433b76117a98fbeab5320d8b67d468e31"
                            }
                        ],
                        "constructorArguments": "",
                        "name": "balanceOf",
                        "returnParams": [
                            {
                                "decimalAvailable": true,
                                "name": "",
                                "type": "uint256",
                                "value": "482,589,886,903,032,631"
                            }
                        ],
                        "signature": "balanceOf(address)"
                    },
                    "errorInfo": "",
                    "fromAddress": "0x899266243fd2b9a0426b58bd6d534c6b813ef27a",
                    "gasUsed": 20044,
                    "id": 4,
                    "methodDecoded": true,
                    "operation": "STATICCALL",
                    "output": "0x00000000000000000000000000000000000000000000000006b280f1fd0d1b37",
                    "revert": false,
                    "revertMessage": "",
                    "selector": "0x70a08231",
                    "status": true,
                    "value": "0"
                },
                "nodeType": 0
            },
            "5": {
                "invocation": {
                    "address": "0x47ddb6a433b76117a98fbeab5320d8b67d468e31",
                    "callData": "0x00000000000000000000000019ae49b9f38dd836317363839a5f6bfbfa7e319a0000000000000000000000000cfc28d16d07219249c6d6d6ae24e7132ee4caa700000000000000000000000000000000000000000000000006b280f1fd0d1b37",
                    "decodedMethod": {
                        "callParams": [
                            {
                                "name": "token",
                                "type": "address",
                                "value": "0x19ae49b9f38dd836317363839a5f6bfbfa7e319a"
                            },
                            {
                                "name": "receiver",
                                "type": "address",
                                "value": "0x0cfc28d16d07219249c6d6d6ae24e7132ee4caa7"
                            },
                            {
                                "name": "amount",
                                "type": "uint256",
                                "value": "482,589,886,903,032,631"
                            }
                        ],
                        "constructorArguments": "",
                        "name": "withdrawTokens",
                        "returnParams": [],
                        "signature": "withdrawTokens(address,address,uint256)"
                    },
                    "errorInfo": "",
                    "fromAddress": "0x899266243fd2b9a0426b58bd6d534c6b813ef27a",
                    "gasUsed": 74580,
                    "id": 5,
                    "methodDecoded": true,
                    "operation": "CALL",
                    "output": "",
                    "revert": false,
                    "revertMessage": "",
                    "selector": "0x5e35359e",
                    "status": true,
                    "value": "0"
                },
                "nodeType": 0
            },
            "6": {
                "invocation": {
                    "address": "0x354cca2f55dde182d36fe34d673430e226a3cb8c",
                    "callData": "0x00000000000000000000000019ae49b9f38dd836317363839a5f6bfbfa7e319a0000000000000000000000000cfc28d16d07219249c6d6d6ae24e7132ee4caa700000000000000000000000000000000000000000000000006b280f1fd0d1b37",
                    "decodedMethod": {
                        "callParams": [
                            {
                                "name": "token",
                                "type": "address",
                                "value": "0x19ae49b9f38dd836317363839a5f6bfbfa7e319a"
                            },
                            {
                                "name": "receiver",
                                "type": "address",
                                "value": "0x0cfc28d16d07219249c6d6d6ae24e7132ee4caa7"
                            },
                            {
                                "name": "amount",
                                "type": "uint256",
                                "value": "482,589,886,903,032,631"
                            }
                        ],
                        "constructorArguments": "",
                        "name": "withdrawTokens",
                        "returnParams": [],
                        "signature": "withdrawTokens(address,address,uint256)"
                    },
                    "errorInfo": "",
                    "fromAddress": "0x47ddb6a433b76117a98fbeab5320d8b67d468e31",
                    "gasUsed": 73830,
                    "id": 6,
                    "methodDecoded": true,
                    "operation": "DELEGATECALL",
                    "output": "",
                    "revert": false,
                    "revertMessage": "",
                    "selector": "0x5e35359e",
                    "status": true,
                    "value": "0"
                },
                "nodeType": 0
            },
            "7": {
                "invocation": {
                    "address": "0x19ae49b9f38dd836317363839a5f6bfbfa7e319a",
                    "callData": "0x00000000000000000000000047ddb6a433b76117a98fbeab5320d8b67d468e31",
                    "decodedMethod": {
                        "callParams": [
                            {
                                "name": "account",
                                "type": "address",
                                "value": "0x47ddb6a433b76117a98fbeab5320d8b67d468e31"
                            }
                        ],
                        "constructorArguments": "",
                        "name": "balanceOf",
                        "returnParams": [
                            {
                                "decimalAvailable": true,
                                "name": "",
                                "type": "uint256",
                                "value": "482,589,886,903,032,631"
                            }
                        ],
                        "signature": "balanceOf(address)"
                    },
                    "errorInfo": "",
                    "fromAddress": "0x47ddb6a433b76117a98fbeab5320d8b67d468e31",
                    "gasUsed": 4044,
                    "id": 7,
                    "methodDecoded": true,
                    "operation": "STATICCALL",
                    "output": "0x00000000000000000000000000000000000000000000000006b280f1fd0d1b37",
                    "revert": false,
                    "revertMessage": "",
                    "selector": "0x70a08231",
                    "status": true,
                    "value": "0"
                },
                "nodeType": 0
            },
            "8": {
                "invocation": {
                    "address": "0x19ae49b9f38dd836317363839a5f6bfbfa7e319a",
                    "callData": "0x0000000000000000000000000cfc28d16d07219249c6d6d6ae24e7132ee4caa700000000000000000000000000000000000000000000000006b280f1fd0d1b37",
                    "decodedMethod": {
                        "callParams": [
                            {
                                "name": "recipient",
                                "type": "address",
                                "value": "0x0cfc28d16d07219249c6d6d6ae24e7132ee4caa7"
                            },
                            {
                                "decimalAvailable": true,
                                "name": "amount",
                                "type": "uint256",
                                "value": "482,589,886,903,032,631"
                            }
                        ],
                        "constructorArguments": "",
                        "name": "transfer",
                        "returnParams": [
                            {
                                "name": "",
                                "type": "bool",
                                "value": true
                            }
                        ],
                        "signature": "transfer(address,uint256)"
                    },
                    "errorInfo": "",
                    "fromAddress": "0x47ddb6a433b76117a98fbeab5320d8b67d468e31",
                    "gasUsed": 59157,
                    "id": 8,
                    "methodDecoded": true,
                    "operation": "CALL",
                    "output": "0x0000000000000000000000000000000000000000000000000000000000000001",
                    "revert": false,
                    "revertMessage": "",
                    "selector": "0xa9059cbb",
                    "status": true,
                    "value": "0"
                },
                "nodeType": 0
            },
            "9": {
                "event": {
                    "contract": "0x19ae49b9f38dd836317363839a5f6bfbfa7e319a",
                    "decodedLog": {
                        "name": "Transfer",
                        "params": [
                            {
                                "name": "from",
                                "type": "address",
                                "value": "0x47ddb6a433b76117a98fbeab5320d8b67d468e31"
                            },
                            {
                                "name": "to",
                                "type": "address",
                                "value": "0x0cfc28d16d07219249c6d6d6ae24e7132ee4caa7"
                            },
                            {
                                "decimalAvailable": true,
                                "name": "value",
                                "type": "uint256",
                                "value": "482,589,886,903,032,631"
                            }
                        ],
                        "signature": "Transfer(address,address,uint256)"
                    },
                    "id": 9,
                    "logData": "0x00000000000000000000000000000000000000000000000006b280f1fd0d1b37",
                    "logDecoded": true,
                    "operation": "EVENT",
                    "revert": false,
                    "status": true,
                    "topics": [
                        "0xddf252ad1be2c89b69c2b068fc378daa952ba7f163c4a11628f55a4df523b3ef",
                        "0x00000000000000000000000047ddb6a433b76117a98fbeab5320d8b67d468e31",
                        "0x0000000000000000000000000cfc28d16d07219249c6d6d6ae24e7132ee4caa7"
                    ]
                },
                "nodeType": 1
            }
        },
        "gasFlame": [
            {
                "children": [
                    {
                        "children": [
                            {
                                "children": [],
                                "depth": 0,
                                "name": "Initial Gas",
                                "value": 21560
                            },
                            {
                                "children": [
                                    {
                                        "children": [
                                            {
                                                "children": [
                                                    {
                                                        "children": [],
                                                        "depth": 3,
                                                        "name": "tokenTax",
                                                        "value": 2674
                                                    }
                                                ],
                                                "depth": 2,
                                                "name": "tokenTax",
                                                "value": 9915
                                            },
                                            {
                                                "children": [],
                                                "depth": 2,
                                                "name": "balanceOf",
                                                "value": 20044
                                            },
                                            {
                                                "children": [
                                                    {
                                                        "children": [
                                                            {
                                                                "children": [],
                                                                "depth": 4,
                                                                "name": "balanceOf",
                                                                "value": 4044
                                                            },
                                                            {
                                                                "children": [],
                                                                "depth": 4,
                                                                "name": "transfer",
                                                                "value": 59157
                                                            }
                                                        ],
                                                        "depth": 3,
                                                        "name": "withdrawTokens",
                                                        "value": 73830
                                                    }
                                                ],
                                                "depth": 2,
                                                "name": "withdrawTokens",
                                                "value": 74580
                                            }
                                        ],
                                        "depth": 1,
                                        "name": "withdrawTokens",
                                        "value": 117290
                                    }
                                ],
                                "depth": 0,
                                "name": "Executed Gas",
                                "value": 122350
                            }
                        ],
                        "depth": -1,
                        "name": "Actual Gas Used",
                        "value": 139110
                    },
                    {
                        "children": [],
                        "depth": -1,
                        "name": "Refunded Gas",
                        "value": 4800
                    }
                ],
                "depth": -2,
                "name": "Total Gas",
                "value": 143910
            }
        ],
        "isConfirmed": true,
        "mainTrace": [
            {
                "children": [
                    {
                        "children": [
                            {
                                "children": [
                                    {
                                        "children": [
                                            {
                                                "children": [],
                                                "depth": 3,
                                                "id": 3,
                                                "order": 3
                                            }
                                        ],
                                        "depth": 2,
                                        "id": 2,
                                        "order": 2
                                    },
                                    {
                                        "children": [],
                                        "depth": 2,
                                        "id": 4,
                                        "order": 4
                                    },
                                    {
                                        "children": [
                                            {
                                                "children": [
                                                    {
                                                        "children": [],
                                                        "depth": 4,
                                                        "id": 7,
                                                        "order": 7
                                                    },
                                                    {
                                                        "children": [
                                                            {
                                                                "children": [],
                                                                "depth": 5,
                                                                "id": 9,
                                                                "order": 9
                                                            }
                                                        ],
                                                        "depth": 4,
                                                        "id": 8,
                                                        "order": 8
                                                    },
                                                    {
                                                        "children": [],
                                                        "depth": 4,
                                                        "id": 10,
                                                        "order": 10
                                                    }
                                                ],
                                                "depth": 3,
                                                "id": 6,
                                                "order": 6
                                            }
                                        ],
                                        "depth": 2,
                                        "id": 5,
                                        "order": 5
                                    }
                                ],
                                "depth": 1,
                                "id": 1,
                                "order": 1
                            }
                        ],
                        "depth": 0,
                        "id": 0,
                        "order": 0
                    }
                ],
                "depth": -1,
                "id": -1,
                "order": -1
            }
        ],
        "mainTraceNodeCount": 11,
        "parentIdMap": {
            "0": -1,
            "1": 0,
            "10": 6,
            "2": 1,
            "3": 2,
            "4": 1,
            "5": 1,
            "6": 5,
            "7": 6,
            "8": 6,
            "9": 8
        },
        "tidyTrace": [
            {
                "children": [
                    {
                        "children": [
                            {
                                "children": [
                                    {
                                        "children": [
                                            {
                                                "children": [],
                                                "depth": 3,
                                                "id": 3,
                                                "order": 3
                                            }
                                        ],
                                        "depth": 2,
                                        "id": 2,
                                        "order": 2
                                    },
                                    {
                                        "children": [
                                            {
                                                "children": [
                                                    {
                                                        "children": [
                                                            {
                                                                "children": [],
                                                                "depth": 5,
                                                                "id": 9,
                                                                "order": 9
                                                            }
                                                        ],
                                                        "depth": 4,
                                                        "id": 8,
                                                        "order": 8
                                                    },
                                                    {
                                                        "children": [],
                                                        "depth": 4,
                                                        "id": 10,
                                                        "order": 10
                                                    }
                                                ],
                                                "depth": 3,
                                                "id": 6,
                                                "order": 6
                                            }
                                        ],
                                        "depth": 2,
                                        "id": 5,
                                        "order": 5
                                    }
                                ],
                                "depth": 1,
                                "id": 1,
                                "order": 1
                            }
                        ],
                        "depth": 0,
                        "id": 0,
                        "order": 0
                    }
                ],
                "depth": -1,
                "id": -1,
                "order": -1
            }
        ],
        "tidyTraceNodeCount": 9
    },
    "state_change": {
        "stateChanges": [
            {
                "address": "0x19ae49b9f38dd836317363839a5f6bfbfa7e319a",
                "erc": "ERC-20",
                "slots": [
                    {
                        "current": "0x000000000000000000000000000000000000000000000000000000006628b287",
                        "key": "0xbdfeb5a4844e9b911d8168b41d6411f920db84b51cd63540743043e73f857705",
                        "prev": "0x00000000000000000000000000000000000000000000000000000000662820e3"
                    },
                    {
                        "current": "0x0000000000000000000000000000000000000000000000000000000000000000",
                        "key": "0xb40023af99242e3d5ec1f559d21dafa6d3cf16aec254ed242480f4a77944580c",
                        "prev": "0x013c4525d0f84acf751993535a234b2a53a7066930a375b1e2be00b7df8e4566"
                    },
                    {
                        "current": "0x013c4525d0f84acf751993535a234b2a53a7066930a375b1e2be00b7df8e4566",
                        "key": "0x8e7d8b6ebd27c88c7c01a0704df9550d34c2d4d03ee00349b23293c998755da6",
                        "prev": "0x0000000000000000000000000000000000000000000000000000000000000000"
                    }
                ],
                "storageVariables": [
                    {
                        "name": "_lastTrade",
                        "type": "mapping(address => uint256)",
                        "value": {
                            "pairs": [
                                {
                                    "key": "0x47ddb6a433b76117a98fbeab5320d8b67d468e31",
                                    "value": {
                                        "current": "1713943175",
                                        "prev": "1713905891",
                                        "typeTag": 1
                                    }
                                }
                            ],
                            "typeTag": 4
                        }
                    },
                    {
                        "name": "_rOwned",
                        "type": "mapping(address => uint256)",
                        "value": {
                            "pairs": [
                                {
                                    "key": "0x0cfc28d16d07219249c6d6d6ae24e7132ee4caa7",
                                    "value": {
                                        "current": "558800912493022846883752707005078724681450659136371841226927993532233696614",
                                        "prev": "0",
                                        "typeTag": 1
                                    }
                                },
                                {
                                    "key": "0x47ddb6a433b76117a98fbeab5320d8b67d468e31",
                                    "value": {
                                        "current": "0",
                                        "prev": "558800912493022846883752707005078724681450659136371841226927993532233696614",
                                        "typeTag": 1
                                    }
                                }
                            ],
                            "typeTag": 4
                        }
                    }
                ]
            }
        ]
    }
}