{
    "balance_change": {
        "balanceChanges": [
            {
                "account": "0xf7552ba0ee5bed0f306658f4a1201f421d703898",
                "assets": [
                    {
                        "address": "0xeeeeeeeeeeeeeeeeeeeeeeeeeeeeeeeeeeeeeeee",
                        "amount": "0.01",
                        "iconUrl": "https://assets.blocksec.com/image/1663669189317-2.png",
                        "isERC1155": false,
                        "isERC721": false,
                        "sign": false,
                        "value": "2.51705932"
                    }
                ]
            },
            {
                "account": "0x00000047bb99ea4d791bb749d970de71ee0b1a34",
                "assets": [
                    {
                        "address": "0xeeeeeeeeeeeeeeeeeeeeeeeeeeeeeeeeeeeeeeee",
                        "amount": "0.009999999999999999",
                        "iconUrl": "https://assets.blocksec.com/image/1663669189317-2.png",
                        "isERC1155": false,
                        "isERC721": false,
                        "sign": true,
                        "value": "2.51705932"
                    },
                    {
                        "address": "0xbb4cdb9cbd36b01bd1cbaebf2de08d9173bc095c",
                        "amount": "0.000000000000000001",
                        "iconUrl": "https://assets.blocksec.com/icon/65a007cb-916d-490f-9438-b972e4549029.png",
                        "isERC1155": false,
                        "isERC721": false,
                        "sign": true,
                        "value": "0.00000000000000025087559999999999149"
                    },
                    {
                        "address": "0x55d398326f99059ff775485246999027b3197955",
                        "amount": "43,841.867959016089190183",
                        "iconUrl": "https://assets.blocksec.com/icon/810ebed5-1cb7-4a60-827d-c7eb0c438c0e.png",
                        "isERC1155": false,
                        "isERC721": false,
                        "sign": false,
                        "value": "43815.56283922399803"
                    }
                ]
            },
            {
                "account": "0x36696169c63e42cd08ce11f5deebbcebae652050",
                "assets": [
                    {
                        "address": "0xbb4cdb9cbd36b01bd1cbaebf2de08d9173bc095c",
                        "amount": "173.907186477338745776",
                        "iconUrl": "https://assets.blocksec.com/icon/65a007cb-916d-490f-9438-b972e4549029.png",
                        "isERC1155": false,
                        "isERC721": false,
                        "sign": false,
                        "value": "43629.069757499398523"
                    },
                    {
                        "address": "0x55d398326f99059ff775485246999027b3197955",
                        "amount": "43,841.867959016089190183",
                        "iconUrl": "https://assets.blocksec.com/icon/810ebed5-1cb7-4a60-827d-c7eb0c438c0e.png",
                        "isERC1155": false,
                        "isERC721": false,
                        "sign": true,
                        "value": "43815.56283922399803"
                    }
                ]
            },
            {
                "account": "0xbb4cdb9cbd36b01bd1cbaebf2de08d9173bc095c",
                "assets": [
                    {
                        "address": "0xeeeeeeeeeeeeeeeeeeeeeeeeeeeeeeeeeeeeeeee",
                        "amount": "0.000000000000000001",
                        "iconUrl": "https://assets.blocksec.com/image/1663669189317-2.png",
                        "isERC1155": false,
                        "isERC721": false,
                        "sign": true,
                        "value": ""
                    },
                    {
                        "address": "0xbb4cdb9cbd36b01bd1cbaebf2de08d9173bc095c",
                        "amount": "0.000000000000000001",
                        "iconUrl": "https://assets.blocksec.com/icon/65a007cb-916d-490f-9438-b972e4549029.png",
                        "isERC1155": false,
                        "isERC721": false,
                        "sign": false,
                        "value": "0.00000000000000025087559999999999149"
                    }
                ]
            },
            {
                "account": "0xece3f2645ed0910d4a10f4e262e9fe47c481d9de",
                "assets": [
                    {
                        "address": "0xbb4cdb9cbd36b01bd1cbaebf2de08d9173bc095c",
                        "amount": "173.907186477338745776",
                        "iconUrl": "https://assets.blocksec.com/icon/65a007cb-916d-490f-9438-b972e4549029.png",
                        "isERC1155": false,
                        "isERC721": false,
                        "sign": true,
                        "value": "43629.069757499398523"
                    }
                ]
            }
        ]
    },
    "profile": {
        "basic_info": {
            "baseFee": "0",
            "blockNumber": 34506417,
            "callData": "0xa9059cbb000000000000000000000000f7552ba0ee5bed0f306658f4a1201f421d7038980000000000000000000000000000000000000000000000000000000000000000",
            "debugEnable": true,
            "errorInfo": "",
            "eventCount": 6,
            "feeRecipient": "0xd1d6bf74282782b0b3eb1413c901d6ecf02e8e28",
            "formatValue": "0.01",
            "gasLimit": 5000000,
            "gasPrice": "6",
            "gasUsed": 320507,
            "intTxnCount": 25,
            "internalRevert": false,
            "internalRevertMessage": "",
            "isContractCreation": false,
            "isFlashloan": false,
            "maxFee": "",
            "nonce": 12,
            "overwritedBlockNumber": -1,
            "priorityFee": "",
            "receiver": "0x7d7583724245eeebb745ebcb1cee0091ff43082b",
            "revertMessage": "",
            "sender": "0xf7552ba0ee5bed0f306658f4a1201f421d703898",
            "simulationEnable": true,
            "sourceTxnHash": "0x93ae5f0a121d5e1aadae052c36bc5ecf2d406d35222f4c6a5d63fef1d6de1081",
            "status": true,
            "timestamp": "2023-12-20T02:01:52Z",
            "transactionFee": "0.001923042",
            "txnHash": "0x93ae5f0a121d5e1aadae052c36bc5ecf2d406d35222f4c6a5d63fef1d6de1081",
            "txnIndex": 16,
            "type": 0,
            "value": "10000000000000000"
        },
        "fund_flow": [
            {
                "amount": "0.01",
                "from": "0xf7552ba0ee5bed0f306658f4a1201f421d703898",
                "id": 1,
                "isERC1155": false,
                "isERC721": false,
                "isReverted": false,
                "order": 1,
                "to": "0x7d7583724245eeebb745ebcb1cee0091ff43082b",
                "token": "0xeeeeeeeeeeeeeeeeeeeeeeeeeeeeeeeeeeeeeeee"
            },
            {
                "amount": "0.01",
                "from": "0x7d7583724245eeebb745ebcb1cee0091ff43082b",
                "id": 2,
                "isERC1155": false,
                "isERC721": false,
                "isReverted": false,
                "order": 2,
                "to": "0x00000047bb99ea4d791bb749d970de71ee0b1a34",
                "token": "0xeeeeeeeeeeeeeeeeeeeeeeeeeeeeeeeeeeeeeeee"
            },
            {
                "amount": "0.000000000000000001",
                "from": "0x00000047bb99ea4d791bb749d970de71ee0b1a34",
                "id": 3,
                "isERC1155": false,
                "isERC721": false,
                "isReverted": false,
                "order": 3,
                "to": "0xbb4cdb9cbd36b01bd1cbaebf2de08d9173bc095c",
                "token": "0xeeeeeeeeeeeeeeeeeeeeeeeeeeeeeeeeeeeeeeee"
            },
            {
                "amount": "0.000000000000000001",
                "from": "0xbb4cdb9cbd36b01bd1cbaebf2de08d9173bc095c",
                "id": 4,
                "isERC1155": false,
                "isERC721": false,
                "isReverted": false,
                "order": 4,
                "to": "0x00000047bb99ea4d791bb749d970de71ee0b1a34",
                "token": "0xbb4cdb9cbd36b01bd1cbaebf2de08d9173bc095c"
            },
            {
                "amount": "173.907186477338745776",
                "from": "0x36696169c63e42cd08ce11f5deebbcebae652050",
                "id": 5,
                "isERC1155": false,
                "isERC721": false,
                "isReverted": false,
                "order": 5,
                "to": "0xece3f2645ed0910d4a10f4e262e9fe47c481d9de",
                "token": "0xbb4cdb9cbd36b01bd1cbaebf2de08d9173bc095c"
            },
            {
                "amount": "43,841.867959016089190183",
                "from": "0x00000047bb99ea4d791bb749d970de71ee0b1a34",
                "id": 6,
                "isERC1155": false,
                "isERC721": false,
                "isReverted": false,
                "order": 6,
                "to": "0x36696169c63e42cd08ce11f5deebbcebae652050",
                "token": "0x55d398326f99059ff775485246999027b3197955"
            }
        ],
        "token_infos": [
            {
                "address": "0x55d398326f99059ff775485246999027b3197955",
                "decimals": 18
            },
            {
                "address": "0xbb4cdb9cbd36b01bd1cbaebf2de08d9173bc095c",
                "decimals": 18
            },
            {
                "address": "0xeeeeeeeeeeeeeeeeeeeeeeeeeeeeeeeeeeeeeeee",
                "decimals": 18
            }
        ]
    },
    "address_label": {
        "labels": [
            {
                "address": "0x00000047bb99ea4d791bb749d970de71ee0b1a34",
                "label": "Transit Finance: Router v5"
            },
            {
                "address": "0x0000000000000000000000000000000000000002",
                "label": "Precompiled"
            },
            {
                "address": "0x4d67dc640f5327d0e1c7c6537ed8542aaf46cf99",
                "label": "PancakeV3LmPool"
            },
            {
                "address": "0xece3f2645ed0910d4a10f4e262e9fe47c481d9de",
                "label": "PancakeSwap V2: FEE 31"
            },
            {
                "address": "0xbb4cdb9cbd36b01bd1cbaebf2de08d9173bc095c",
                "label": "Wrapped BNB"
            },
            {
                "address": "0x55d398326f99059ff775485246999027b3197955",
                "label": "BUSD-T Stablecoin"
            },
            {
                "address": "0x0000000000000000000000000000000000000003",
                "label": "Precompiled"
            },
            {
                "address": "0xeeeeeeeeeeeeeeeeeeeeeeeeeeeeeeeeeeeeeeee",
                "label": "BNB"
            },
            {
                "address": "0x0000000000000000000000000000000000000001",
                "label": "Precompiled"
            },
            {
                "address": "0xf7552ba0ee5bed0f306658f4a1201f421d703898",
                "label": "TransitSwap Router Exploiter"
            },
            {
                "address": "0x556b9306565093c855aea9ae92a594704c2cd59e",
                "label": "PancakeSwap: Masterchef V3"
            },
            {
                "address": "0x36696169c63e42cd08ce11f5deebbcebae652050",
                "label": "PancakeV3Pool"
            },
            {
                "address": "0x0000000000000000000000000000000000000004",
                "label": "Precompiled"
            }
        ]
    },
    "trace": {
        "accountLabels": null,
        "dataMap": {
            "-1": {
                "invocation": {
                    "address": "0xf7552ba0ee5bed0f306658f4a1201f421d703898",
                    "callData": "",
                    "decodedMethod": null,
                    "errorInfo": "",
                    "fromAddress": "",
                    "gasUsed": 0,
                    "id": -1,
                    "methodDecoded": false,
                    "operation": "",
                    "output": "",
                    "revert": false,
                    "revertMessage": "",
                    "selector": "",
                    "status": false,
                    "value": ""
                },
                "nodeType": 0
            },
            "0": {
                "invocation": {
                    "address": "0x7d7583724245eeebb745ebcb1cee0091ff43082b",
                    "callData": "0x000000000000000000000000f7552ba0ee5bed0f306658f4a1201f421d7038980000000000000000000000000000000000000000000000000000000000000000",
                    "decodedMethod": {
                        "callParams": [
                            {
                                "name": "_to",
                                "type": "address",
                                "value": "0xf7552ba0ee5bed0f306658f4a1201f421d703898"
                            },
                            {
                                "decimalAvailable": true,
                                "name": "_value",
                                "type": "uint256",
                                "value": "0"
                            }
                        ],
                        "constructorArguments": "",
                        "name": "transfer",
                        "returnParams": [],
                        "signature": "transfer(address,uint256)"
                    },
                    "errorInfo": "",
                    "fromAddress": "0xf7552ba0ee5bed0f306658f4a1201f421d703898",
                    "gasUsed": 320507,
                    "id": 0,
                    "methodDecoded": true,
                    "operation": "CALL",
                    "output": "",
                    "revert": false,
                    "revertMessage": "",
                    "selector": "0xa9059cbb",
                    "status": true,
                    "value": "0.01"
                },
                "nodeType": 0
            },
            "1": {
                "invocation": {
                    "address": "0x3599f3766c9388005ead030f66010771fcf3c267",
                    "callData": "0x",
                    "decodedMethod": {
                        "callParams": [],
                        "constructorArguments": "",
                        "name": "getBlock",
                        "returnParams": [
                            {
                                "name": "",
                                "type": "uint256",
                                "value": "34,506,417"
                            }
                        ],
                        "signature": "getBlock()"
                    },
                    "errorInfo": "",
                    "fromAddress": "0x7d7583724245eeebb745ebcb1cee0091ff43082b",
                    "gasUsed": 2415,
                    "id": 1,
                    "methodDecoded": true,
                    "operation": "STATICCALL",
                    "output": "0x00000000000000000000000000000000000000000000000000000000020e86b1",
                    "revert": false,
                    "revertMessage": "",
                    "selector": "0x2e97766d",
                    "status": true,
                    "value": "0"
                },
                "nodeType": 0
            },
            "10": {
                "invocation": {
                    "address": "0x55d398326f99059ff775485246999027b3197955",
                    "callData": "0x00000000000000000000000000000047bb99ea4d791bb749d970de71ee0b1a34",
                    "decodedMethod": {
                        "callParams": [
                            {
                                "name": "account",
                                "type": "address",
                                "value": "0x00000047bb99ea4d791bb749d970de71ee0b1a34"
                            }
                        ],
                        "constructorArguments": "",
                        "name": "balanceOf",
                        "returnParams": [
                            {
                                "decimalAvailable": true,
                                "name": "",
                                "type": "uint256",
                                "value": "43,841,867,959,016,089,190,183"
                            }
                        ],
                        "signature": "balanceOf(address)"
                    },
                    "errorInfo": "",
                    "fromAddress": "0x7d7583724245eeebb745ebcb1cee0091ff43082b",
                    "gasUsed": 2531,
                    "id": 10,
                    "methodDecoded": true,
                    "operation": "STATICCALL",
                    "output": "0x000000000000000000000000000000000000000000000948ac24008dadfbff27",
                    "revert": false,
                    "revertMessage": "",
                    "selector": "0x70a08231",
                    "status": true,
                    "value": "0"
                },
                "nodeType": 0
            },
            "11": {
                "invocation": {
                    "address": "0x36696169c63e42cd08ce11f5deebbcebae652050",
                    "callData": "0x",
                    "decodedMethod": {
                        "callParams": [],
                        "constructorArguments": "",
                        "name": "token0",
                        "returnParams": [
                            {
                                "name": "",
                                "type": "address",
                                "value": "0x55d398326f99059ff775485246999027b3197955"
                            }
                        ],
                        "signature": "token0()"
                    },
                    "errorInfo": "",
                    "fromAddress": "0x00000047bb99ea4d791bb749d970de71ee0b1a34",
                    "gasUsed": 266,
                    "id": 11,
                    "methodDecoded": true,
                    "operation": "STATICCALL",
                    "output": "0x00000000000000000000000055d398326f99059ff775485246999027b3197955",
                    "revert": false,
                    "revertMessage": "",
                    "selector": "0x0dfe1681",
                    "status": true,
                    "value": "0"
                },
                "nodeType": 0
            },
            "12": {
                "invocation": {
                    "address": "0x36696169c63e42cd08ce11f5deebbcebae652050",
                    "callData": "0x",
                    "decodedMethod": {
                        "callParams": [],
                        "constructorArguments": "",
                        "name": "token1",
                        "returnParams": [
                            {
                                "name": "",
                                "type": "address",
                                "value": "0xbb4cdb9cbd36b01bd1cbaebf2de08d9173bc095c"
                            }
                        ],
                        "signature": "token1()"
                    },
                    "errorInfo": "",
                    "fromAddress": "0x00000047bb99ea4d791bb749d970de71ee0b1a34",
                    "gasUsed": 308,
                    "id": 12,
                    "methodDecoded": true,
                    "operation": "STATICCALL",
                    "output": "0x000000000000000000000000bb4cdb9cbd36b01bd1cbaebf2de08d9173bc095c",
                    "revert": false,
                    "revertMessage": "",
                    "selector": "0xd21220a7",
                    "status": true,
                    "value": "0"
                },
                "nodeType": 0
            },
            "13": {
                "invocation": {
                    "address": "0x36696169c63e42cd08ce11f5deebbcebae652050",
                    "callData": "0x",
                    "decodedMethod": {
                        "callParams": [],
                        "constructorArguments": "",
                        "name": "fee",
                        "returnParams": [
                            {
                                "name": "",
                                "type": "uint24",
                                "value": "500"
                            }
                        ],
                        "signature": "fee()"
                    },
                    "errorInfo": "",
                    "fromAddress": "0x00000047bb99ea4d791bb749d970de71ee0b1a34",
                    "gasUsed": 251,
                    "id": 13,
                    "methodDecoded": true,
                    "operation": "STATICCALL",
                    "output": "0x00000000000000000000000000000000000000000000000000000000000001f4",
                    "revert": false,
                    "revertMessage": "",
                    "selector": "0xddca3f43",
                    "status": true,
                    "value": "0"
                },
                "nodeType": 0
            },
            "14": {
                "invocation": {
                    "address": "0x36696169c63e42cd08ce11f5deebbcebae652050",
                    "callData": "0x000000000000000000000000ece3f2645ed0910d4a10f4e262e9fe47c481d9de0000000000000000000000000000000000000000000000000000000000000001000000000000000000000000000000000000000000000948ac24008dadfbff2700000000000000000000000000000000000000000000000000000001000276a400000000000000000000000000000000000000000000000000000000000000a000000000000000000000000000000000000000000000000000000000000000a001000000000000000000000036696169c63e42cd08ce11f5deebbcebae6520500000000000000000000000000000000000000000000000000000000000000040000000000000000000000000000000000000000000000000000000000000004000000000000000000000000055d398326f99059ff775485246999027b3197955c472bae540044f07329abf33830ef75493abc0d2c512713138a7906da9776bff",
                    "decodedMethod": {
                        "callParams": [
                            {
                                "name": "recipient",
                                "type": "address",
                                "value": "0xece3f2645ed0910d4a10f4e262e9fe47c481d9de"
                            },
                            {
                                "name": "zeroForOne",
                                "type": "bool",
                                "value": true
                            },
                            {
                                "name": "amountSpecified",
                                "type": "int256",
                                "value": "43,841,867,959,016,089,190,183"
                            },
                            {
                                "name": "sqrtPriceLimitX96",
                                "type": "uint160",
                                "value": "4,295,128,740"
                            },
                            {
                                "name": "data",
                                "type": "bytes",
                                "value": "0x01000000000000000000000036696169c63e42cd08ce11f5deebbcebae6520500000000000000000000000000000000000000000000000000000000000000040000000000000000000000000000000000000000000000000000000000000004000000000000000000000000055d398326f99059ff775485246999027b3197955c472bae540044f07329abf33830ef75493abc0d2c512713138a7906da9776bff"
                            }
                        ],
                        "constructorArguments": "",
                        "name": "swap",
                        "returnParams": [
                            {
                                "name": "amount0",
                                "type": "int256",
                                "value": "43,841,867,959,016,089,190,183"
                            },
                            {
                                "name": "amount1",
                                "type": "int256",
                                "value": "-173,907,186,477,338,745,776"
                            }
                        ],
                        "signature": "swap(address,bool,int256,uint160,bytes)"
                    },
                    "errorInfo": "",
                    "fromAddress": "0x00000047bb99ea4d791bb749d970de71ee0b1a34",
                    "gasUsed": 158572,
                    "id": 14,
                    "methodDecoded": true,
                    "operation": "CALL",
                    "output": "0x000000000000000000000000000000000000000000000948ac24008dadfbff27fffffffffffffffffffffffffffffffffffffffffffffff6928d8f4c729ba450",
                    "revert": false,
                    "revertMessage": "",
                    "selector": "0x128acb08",
                    "status": true,
                    "value": "0"
                },
                "nodeType": 0
            },
            "15": {
                "invocation": {
                    "address": "0x4d67dc640f5327d0e1c7c6537ed8542aaf46cf99",
                    "callData": "0x0000000000000000000000000000000000000000000000000000000065824b10",
                    "decodedMethod": {
                        "callParams": [
                            {
                                "name": "currTimestamp",
                                "type": "uint32",
                                "value": "1,703,037,712"
                            }
                        ],
                        "constructorArguments": "",
                        "name": "accumulateReward",
                        "returnParams": [],
                        "signature": "accumulateReward(uint32)"
                    },
                    "errorInfo": "",
                    "fromAddress": "0x36696169c63e42cd08ce11f5deebbcebae652050",
                    "gasUsed": 25705,
                    "id": 15,
                    "methodDecoded": true,
                    "operation": "CALL",
                    "output": "",
                    "revert": false,
                    "revertMessage": "",
                    "selector": "0x214a6fe2",
                    "status": true,
                    "value": "0"
                },
                "nodeType": 0
            },
            "16": {
                "invocation": {
                    "address": "0x556b9306565093c855aea9ae92a594704c2cd59e",
                    "callData": "0x00000000000000000000000036696169c63e42cd08ce11f5deebbcebae652050",
                    "decodedMethod": {
                        "callParams": [
                            {
                                "name": "_v3Pool",
                                "type": "address",
                                "value": "0x36696169c63e42cd08ce11f5deebbcebae652050"
                            }
                        ],
                        "constructorArguments": "",
                        "name": "getLatestPeriodInfo",
                        "returnParams": [
                            {
                                "name": "cakePerSecond",
                                "type": "uint256",
                                "value": "26,200,410,222,253,479,719,515,487,804"
                            },
                            {
                                "name": "endTime",
                                "type": "uint256",
                                "value": "1,703,085,996"
                            }
                        ],
                        "signature": "getLatestPeriodInfo(address)"
                    },
                    "errorInfo": "",
                    "fromAddress": "0x4d67dc640f5327d0e1c7c6537ed8542aaf46cf99",
                    "gasUsed": 11440,
                    "id": 16,
                    "methodDecoded": true,
                    "operation": "STATICCALL",
                    "output": "0x000000000000000000000000000000000000000054a878ac262068fd4c747e3c00000000000000000000000000000000000000000000000000000000658307ac",
                    "revert": false,
                    "revertMessage": "",
                    "selector": "0xa15ea89f",
                    "status": true,
                    "value": "0"
                },
                "nodeType": 0
            },
            "17": {
                "invocation": {
                    "address": "0x4d67dc640f5327d0e1c7c6537ed8542aaf46cf99",
                    "callData": "0xffffffffffffffffffffffffffffffffffffffffffffffffffffffffffff27fc0000000000000000000000000000000000000000000000000000000000000001",
                    "decodedMethod": {
                        "callParams": [
                            {
                                "name": "tick",
                                "type": "int24",
                                "value": "-55,300"
                            },
                            {
                                "name": "zeroForOne",
                                "type": "bool",
                                "value": true
                            }
                        ],
                        "constructorArguments": "",
                        "name": "crossLmTick",
                        "returnParams": [],
                        "signature": "crossLmTick(int24,bool)"
                    },
                    "errorInfo": "",
                    "fromAddress": "0x36696169c63e42cd08ce11f5deebbcebae652050",
                    "gasUsed": 10708,
                    "id": 17,
                    "methodDecoded": true,
                    "operation": "CALL",
                    "output": "",
                    "revert": false,
                    "revertMessage": "",
                    "selector": "0xa4984633",
                    "status": true,
                    "value": "0"
                },
                "nodeType": 0
            },
            "18": {
                "invocation": {
                    "address": "0xbb4cdb9cbd36b01bd1cbaebf2de08d9173bc095c",
                    "callData": "0x000000000000000000000000ece3f2645ed0910d4a10f4e262e9fe47c481d9de0000000000000000000000000000000000000000000000096d7270b38d645bb0",
                    "decodedMethod": {
                        "callParams": [
                            {
                                "name": "dst",
                                "type": "address",
                                "value": "0xece3f2645ed0910d4a10f4e262e9fe47c481d9de"
                            },
                            {
                                "decimalAvailable": true,
                                "name": "wad",
                                "type": "uint256",
                                "value": "173,907,186,477,338,745,776"
                            }
                        ],
                        "constructorArguments": "",
                        "name": "transfer",
                        "returnParams": [
                            {
                                "name": "",
                                "type": "bool",
                                "value": true
                            }
                        ],
                        "signature": "transfer(address,uint256)"
                    },
                    "errorInfo": "",
                    "fromAddress": "0x36696169c63e42cd08ce11f5deebbcebae652050",
                    "gasUsed": 10862,
                    "id": 18,
                    "methodDecoded": true,
                    "operation": "CALL",
                    "output": "0x0000000000000000000000000000000000000000000000000000000000000001",
                    "revert": false,
                    "revertMessage": "",
                    "selector": "0xa9059cbb",
                    "status": true,
                    "value": "0"
                },
                "nodeType": 0
            },
            "19": {
                "event": {
                    "contract": "0xbb4cdb9cbd36b01bd1cbaebf2de08d9173bc095c",
                    "decodedLog": {
                        "name": "Transfer",
                        "params": [
                            {
                                "name": "src",
                                "type": "address",
                                "value": "0x36696169c63e42cd08ce11f5deebbcebae652050"
                            },
                            {
                                "name": "dst",
                                "type": "address",
                                "value": "0xece3f2645ed0910d4a10f4e262e9fe47c481d9de"
                            },
                            {
                                "decimalAvailable": true,
                                "name": "wad",
                                "type": "uint256",
                                "value": "173,907,186,477,338,745,776"
                            }
                        ],
                        "signature": "Transfer(address,address,uint256)"
                    },
                    "id": 19,
                    "logData": "0x0000000000000000000000000000000000000000000000096d7270b38d645bb0",
                    "logDecoded": true,
                    "operation": "EVENT",
                    "revert": false,
                    "status": true,
                    "topics": [
                        "0xddf252ad1be2c89b69c2b068fc378daa952ba7f163c4a11628f55a4df523b3ef",
                        "0x00000000000000000000000036696169c63e42cd08ce11f5deebbcebae652050",
                        "0x000000000000000000000000ece3f2645ed0910d4a10f4e262e9fe47c481d9de"
                    ]
                },
                "nodeType": 1
            },
            "2": {
                "invocation": {
                    "address": "0x00000047bb99ea4d791bb749d970de71ee0b1a34",
                    "callData": "0x00000000000000000000000000000000000000000000000000000000000000200000000000000000000000000000000000000000000000000000000000000000000000000000000000000000bb4cdb9cbd36b01bd1cbaebf2de08d9173bc095c000000000000000000000000ece3f2645ed0910d4a10f4e262e9fe47c481d9de000000000000000000000000bb4cdb9cbd36b01bd1cbaebf2de08d9173bc095c000000000000000000000000000000000000000000000000002386f26fc100000000000000000000000000000000000000000000000000000000000000000001000000000000000000000000000000000000000000000000002386f26fc0ffff0000000000000000000000000000000000000000000000000000000065824b10000000000000000000000000000000000000000000000000000000000000016000000000000000000000000000000000000000000000000000000000000001c000000000000000000000000000000000000000000000000000000000000001e000000000000000000000000000000000000000000000000000000000000000020100000000000000000000007d7583724245eeebb745ebcb1cee0091ff43082b01000000000000000000000036696169c63e42cd08ce11f5deebbcebae65205000000000000000000000000000000000000000000000000000000000000000000000000000000000000000000000000000000000000000000000000000000000",
                    "decodedMethod": {
                        "callParams": [
                            {
                                "name": "params",
                                "type": "(address,address,address,address,uint256,uint256,uint256,uint256,uint256[],bytes,string)",
                                "value": [
                                    {
                                        "name": "srcToken",
                                        "type": "address",
                                        "value": "0x0000000000000000000000000000000000000000"
                                    },
                                    {
                                        "name": "dstToken",
                                        "type": "address",
                                        "value": "0xbb4cdb9cbd36b01bd1cbaebf2de08d9173bc095c"
                                    },
                                    {
                                        "name": "dstReceiver",
                                        "type": "address",
                                        "value": "0xece3f2645ed0910d4a10f4e262e9fe47c481d9de"
                                    },
                                    {
                                        "name": "wrappedToken",
                                        "type": "address",
                                        "value": "0xbb4cdb9cbd36b01bd1cbaebf2de08d9173bc095c"
                                    },
                                    {
                                        "name": "amount",
                                        "type": "uint256",
                                        "value": "10,000,000,000,000,000"
                                    },
                                    {
                                        "name": "minReturnAmount",
                                        "type": "uint256",
                                        "value": "1"
                                    },
                                    {
                                        "name": "fee",
                                        "type": "uint256",
                                        "value": "9,999,999,999,999,999"
                                    },
                                    {
                                        "name": "deadline",
                                        "type": "uint256",
                                        "value": "1,703,037,712"
                                    },
                                    {
                                        "name": "pools",
                                        "type": "uint256[]",
                                        "value": [
                                            "452,312,848,583,266,388,373,324,160,906,431,624,182,782,952,710,024,156,446,775,479,796,578,322,475",
                                            "452,312,848,583,266,388,373,324,160,500,822,705,807,063,255,235,247,521,466,952,638,073,588,228,176"
                                        ]
                                    },
                                    {
                                        "name": "signature",
                                        "type": "bytes",
                                        "value": "0x"
                                    },
                                    {
                                        "name": "channel",
                                        "type": "string",
                                        "value": ""
                                    }
                                ]
                            }
                        ],
                        "constructorArguments": "",
                        "name": "exactInputV3Swap",
                        "returnParams": [
                            {
                                "name": "returnAmount",
                                "type": "uint256",
                                "value": "173,907,186,477,338,745,776"
                            }
                        ],
                        "signature": "exactInputV3Swap((address,address,address,address,uint256,uint256,uint256,uint256,uint256[],bytes,string))"
                    },
                    "errorInfo": "",
                    "fromAddress": "0x7d7583724245eeebb745ebcb1cee0091ff43082b",
                    "gasUsed": 220318,
                    "id": 2,
                    "methodDecoded": true,
                    "operation": "CALL",
                    "output": "0x0000000000000000000000000000000000000000000000096d7270b38d645bb0",
                    "revert": false,
                    "revertMessage": "",
                    "selector": "0xb9b5149b",
                    "status": true,
                    "value": "0.01"
                },
                "nodeType": 0
            },
            "20": {
                "invocation": {
                    "address": "0x55d398326f99059ff775485246999027b3197955",
                    "callData": "0x00000000000000000000000036696169c63e42cd08ce11f5deebbcebae652050",
                    "decodedMethod": {
                        "callParams": [
                            {
                                "name": "account",
                                "type": "address",
                                "value": "0x36696169c63e42cd08ce11f5deebbcebae652050"
                            }
                        ],
                        "constructorArguments": "",
                        "name": "balanceOf",
                        "returnParams": [
                            {
                                "decimalAvailable": true,
                                "name": "",
                                "type": "uint256",
                                "value": "9,485,011,174,029,608,430,218,334"
                            }
                        ],
                        "signature": "balanceOf(address)"
                    },
                    "errorInfo": "",
                    "fromAddress": "0x36696169c63e42cd08ce11f5deebbcebae652050",
                    "gasUsed": 2531,
                    "id": 20,
                    "methodDecoded": true,
                    "operation": "STATICCALL",
                    "output": "0x00000000000000000000000000000000000000000007d8877c6d8cf35e4e2c5e",
                    "revert": false,
                    "revertMessage": "",
                    "selector": "0x70a08231",
                    "status": true,
                    "value": "0"
                },
                "nodeType": 0
            },
            "21": {
                "invocation": {
                    "address": "0x00000047bb99ea4d791bb749d970de71ee0b1a34",
                    "callData": "0x000000000000000000000000000000000000000000000948ac24008dadfbff27fffffffffffffffffffffffffffffffffffffffffffffff6928d8f4c729ba450000000000000000000000000000000000000000000000000000000000000006000000000000000000000000000000000000000000000000000000000000000a001000000000000000000000036696169c63e42cd08ce11f5deebbcebae6520500000000000000000000000000000000000000000000000000000000000000040000000000000000000000000000000000000000000000000000000000000004000000000000000000000000055d398326f99059ff775485246999027b3197955c472bae540044f07329abf33830ef75493abc0d2c512713138a7906da9776bff",
                    "decodedMethod": {
                        "callParams": [
                            {
                                "name": "amount0Delta",
                                "type": "int256",
                                "value": "43,841,867,959,016,089,190,183"
                            },
                            {
                                "name": "amount1Delta",
                                "type": "int256",
                                "value": "-173,907,186,477,338,745,776"
                            },
                            {
                                "name": "_data",
                                "type": "bytes",
                                "value": "0x01000000000000000000000036696169c63e42cd08ce11f5deebbcebae6520500000000000000000000000000000000000000000000000000000000000000040000000000000000000000000000000000000000000000000000000000000004000000000000000000000000055d398326f99059ff775485246999027b3197955c472bae540044f07329abf33830ef75493abc0d2c512713138a7906da9776bff"
                            }
                        ],
                        "constructorArguments": "",
                        "name": "pancakeV3SwapCallback",
                        "returnParams": [],
                        "signature": "pancakeV3SwapCallback(int256,int256,bytes)"
                    },
                    "errorInfo": "",
                    "fromAddress": "0x36696169c63e42cd08ce11f5deebbcebae652050",
                    "gasUsed": 19483,
                    "id": 21,
                    "methodDecoded": true,
                    "operation": "CALL",
                    "output": "",
                    "revert": false,
                    "revertMessage": "",
                    "selector": "0x23a69e75",
                    "status": true,
                    "value": "0"
                },
                "nodeType": 0
            },
            "22": {
                "invocation": {
                    "address": "0x55d398326f99059ff775485246999027b3197955",
                    "callData": "0x00000000000000000000000036696169c63e42cd08ce11f5deebbcebae652050000000000000000000000000000000000000000000000948ac24008dadfbff27",
                    "decodedMethod": {
                        "callParams": [
                            {
                                "name": "recipient",
                                "type": "address",
                                "value": "0x36696169c63e42cd08ce11f5deebbcebae652050"
                            },
                            {
                                "decimalAvailable": true,
                                "name": "amount",
                                "type": "uint256",
                                "value": "43,841,867,959,016,089,190,183"
                            }
                        ],
                        "constructorArguments": "",
                        "name": "transfer",
                        "returnParams": [
                            {
                                "name": "",
                                "type": "bool",
                                "value": true
                            }
                        ],
                        "signature": "transfer(address,uint256)"
                    },
                    "errorInfo": "",
                    "fromAddress": "0x00000047bb99ea4d791bb749d970de71ee0b1a34",
                    "gasUsed": 8871,
                    "id": 22,
                    "methodDecoded": true,
                    "operation": "CALL",
                    "output": "0x0000000000000000000000000000000000000000000000000000000000000001",
                    "revert": false,
                    "revertMessage": "",
                    "selector": "0xa9059cbb",
                    "status": true,
                    "value": "0"
                },
                "nodeType": 0
            },
            "23": {
                "event": {
                    "contract": "0x55d398326f99059ff775485246999027b3197955",
                    "decodedLog": {
                        "name": "Transfer",
                        "params": [
                            {
                                "name": "from",
                                "type": "address",
                                "value": "0x00000047bb99ea4d791bb749d970de71ee0b1a34"
                            },
                            {
                                "name": "to",
                                "type": "address",
                                "value": "0x36696169c63e42cd08ce11f5deebbcebae652050"
                            },
                            {
                                "decimalAvailable": true,
                                "name": "value",
                                "type": "uint256",
                                "value": "43,841,867,959,016,089,190,183"
                            }
                        ],
                        "signature": "Transfer(address,address,uint256)"
                    },
                    "id": 23,
                    "logData": "0x000000000000000000000000000000000000000000000948ac24008dadfbff27",
                    "logDecoded": true,
                    "operation": "EVENT",
                    "revert": false,
                    "status": true,
                    "topics": [
                        "0xddf252ad1be2c89b69c2b068fc378daa952ba7f163c4a11628f55a4df523b3ef",
                        "0x00000000000000000000000000000047bb99ea4d791bb749d970de71ee0b1a34",
                        "0x00000000000000000000000036696169c63e42cd08ce11f5deebbcebae652050"
                    ]
                },
                "nodeType": 1
            },
            "24": {
                "invocation": {
                    "address": "0x55d398326f99059ff775485246999027b3197955",
                    "callData": "0x00000000000000000000000036696169c63e42cd08ce11f5deebbcebae652050",
                    "decodedMethod": {
                        "callParams": [
                            {
                                "name": "account",
                                "type": "address",
                                "value": "0x36696169c63e42cd08ce11f5deebbcebae652050"
                            }
                        ],
                        "constructorArguments": "",
                        "name": "balanceOf",
                        "returnParams": [
                            {
                                "decimalAvailable": true,
                                "name": "",
                                "type": "uint256",
                                "value": "9,528,853,041,988,624,519,408,517"
                            }
                        ],
                        "signature": "balanceOf(address)"
                    },
                    "errorInfo": "",
                    "fromAddress": "0x36696169c63e42cd08ce11f5deebbcebae652050",
                    "gasUsed": 531,
                    "id": 24,
                    "methodDecoded": true,
                    "operation": "STATICCALL",
                    "output": "0x00000000000000000000000000000000000000000007e1d028918d810c4a2b85",
                    "revert": false,
                    "revertMessage": "",
                    "selector": "0x70a08231",
                    "status": true,
                    "value": "0"
                },
                "nodeType": 0
            },
            "25": {
                "event": {
                    "contract": "0x36696169c63e42cd08ce11f5deebbcebae652050",
                    "decodedLog": {
                        "name": "Swap",
                        "params": [
                            {
                                "name": "sender",
                                "type": "address",
                                "value": "0x00000047bb99ea4d791bb749d970de71ee0b1a34"
                            },
                            {
                                "name": "recipient",
                                "type": "address",
                                "value": "0xece3f2645ed0910d4a10f4e262e9fe47c481d9de"
                            },
                            {
                                "name": "amount0",
                                "type": "int256",
                                "value": "43,841,867,959,016,089,190,183"
                            },
                            {
                                "name": "amount1",
                                "type": "int256",
                                "value": "-173,907,186,477,338,745,776"
                            },
                            {
                                "name": "sqrtPriceX96",
                                "type": "uint160",
                                "value": "4,990,168,276,089,522,510,497,003,971"
                            },
                            {
                                "name": "liquidity",
                                "type": "uint128",
                                "value": "6,871,982,296,254,711,524,581,723"
                            },
                            {
                                "name": "tick",
                                "type": "int24",
                                "value": "-55,301"
                            },
                            {
                                "name": "protocolFeesToken0",
                                "type": "uint128",
                                "value": "7,453,117,553,032,735,162"
                            },
                            {
                                "name": "protocolFeesToken1",
                                "type": "uint128",
                                "value": "0"
                            }
                        ],
                        "signature": "Swap(address,address,int256,int256,uint160,uint128,int24,uint128,uint128)"
                    },
                    "id": 25,
                    "logData": "0x000000000000000000000000000000000000000000000948ac24008dadfbff27fffffffffffffffffffffffffffffffffffffffffffffff6928d8f4c729ba4500000000000000000000000000000000000000000101fc53c4cdb8fb28c6339c300000000000000000000000000000000000000000005af32e82061057d6d615bffffffffffffffffffffffffffffffffffffffffffffffffffffffffffff27fb000000000000000000000000000000000000000000000000676ecaed19bea9ba0000000000000000000000000000000000000000000000000000000000000000",
                    "logDecoded": true,
                    "operation": "EVENT",
                    "revert": false,
                    "status": true,
                    "topics": [
                        "0x19b47279256b2a23a1665c810c8d55a1758940ee09377d4f8d26497a3577dc83",
                        "0x00000000000000000000000000000047bb99ea4d791bb749d970de71ee0b1a34",
                        "0x000000000000000000000000ece3f2645ed0910d4a10f4e262e9fe47c481d9de"
                    ]
                },
                "nodeType": 1
            },
            "26": {
                "invocation": {
                    "address": "0xbb4cdb9cbd36b01bd1cbaebf2de08d9173bc095c",
                    "callData": "0x000000000000000000000000ece3f2645ed0910d4a10f4e262e9fe47c481d9de",
                    "decodedMethod": {
                        "callParams": [
                            {
                                "name": "",
                                "type": "address",
                                "value": "0xece3f2645ed0910d4a10f4e262e9fe47c481d9de"
                            }
                        ],
                        "constructorArguments": "",
                        "name": "balanceOf",
                        "returnParams": [
                            {
                                "decimalAvailable": true,
                                "name": "",
                                "type": "uint256",
                                "value": "173,917,186,477,338,745,776"
                            }
                        ],
                        "signature": "balanceOf(address)"
                    },
                    "errorInfo": "",
                    "fromAddress": "0x00000047bb99ea4d791bb749d970de71ee0b1a34",
                    "gasUsed": 534,
                    "id": 26,
                    "methodDecoded": true,
                    "operation": "STATICCALL",
                    "output": "0x0000000000000000000000000000000000000000000000096d95f7a5fd255bb0",
                    "revert": false,
                    "revertMessage": "",
                    "selector": "0x70a08231",
                    "status": true,
                    "value": "0"
                },
                "nodeType": 0
            },
            "27": {
                "event": {
                    "contract": "0x00000047bb99ea4d791bb749d970de71ee0b1a34",
                    "decodedLog": {
                        "name": "TransitSwapped",
                        "params": [
                            {
                                "name": "srcToken",
                                "type": "address",
                                "value": "0x0000000000000000000000000000000000000000"
                            },
                            {
                                "name": "dstToken",
                                "type": "address",
                                "value": "0xbb4cdb9cbd36b01bd1cbaebf2de08d9173bc095c"
                            },
                            {
                                "name": "dstReceiver",
                                "type": "address",
                                "value": "0xece3f2645ed0910d4a10f4e262e9fe47c481d9de"
                            },
                            {
                                "name": "amount",
                                "type": "uint256",
                                "value": "10,000,000,000,000,000"
                            },
                            {
                                "name": "returnAmount",
                                "type": "uint256",
                                "value": "173,907,186,477,338,745,776"
                            },
                            {
                                "name": "toChainID",
                                "type": "uint256",
                                "value": "0"
                            },
                            {
                                "name": "channel",
                                "type": "string",
                                "value": ""
                            }
                        ],
                        "signature": "TransitSwapped(address,address,address,uint256,uint256,uint256,string)"
                    },
                    "id": 27,
                    "logData": "0x000000000000000000000000000000000000000000000000002386f26fc100000000000000000000000000000000000000000000000000096d7270b38d645bb0000000000000000000000000000000000000000000000000000000000000000000000000000000000000000000000000000000000000000000000000000000800000000000000000000000000000000000000000000000000000000000000000",
                    "logDecoded": true,
                    "operation": "EVENT",
                    "revert": false,
                    "status": true,
                    "topics": [
                        "0x2251435bd151cd72851a82be055bf6d1c3d7f34d08d56493dddf874229b8e897",
                        "0x0000000000000000000000000000000000000000000000000000000000000000",
                        "0x000000000000000000000000bb4cdb9cbd36b01bd1cbaebf2de08d9173bc095c",
                        "0x000000000000000000000000ece3f2645ed0910d4a10f4e262e9fe47c481d9de"
                    ]
                },
                "nodeType": 1
            },
            "28": {
                "invocation": {
                    "address": "0xece3f2645ed0910d4a10f4e262e9fe47c481d9de",
                    "callData": "0x",
                    "decodedMethod": {
                        "callParams": [],
                        "constructorArguments": "",
                        "name": "sync",
                        "returnParams": [],
                        "signature": "sync()"
                    },
                    "errorInfo": "",
                    "fromAddress": "0x7d7583724245eeebb745ebcb1cee0091ff43082b",
                    "gasUsed": 69293,
                    "id": 28,
                    "methodDecoded": true,
                    "operation": "CALL",
                    "output": "",
                    "revert": false,
                    "revertMessage": "",
                    "selector": "0xfff6cae9",
                    "status": true,
                    "value": "0"
                },
                "nodeType": 0
            },
            "29": {
                "invocation": {
                    "address": "0x1f790e7eb953b3f7ead89e5a100ffc3b8d2d2b28",
                    "callData": "0x000000000000000000000000ece3f2645ed0910d4a10f4e262e9fe47c481d9de",
                    "decodedMethod": {
                        "callParams": [
                            {
                                "name": "account",
                                "type": "address",
                                "value": "0xece3f2645ed0910d4a10f4e262e9fe47c481d9de"
                            }
                        ],
                        "constructorArguments": "",
                        "name": "balanceOf",
                        "returnParams": [
                            {
                                "decimalAvailable": true,
                                "name": "",
                                "type": "uint256",
                                "value": "1,000,000,000,000,000,000,000,000"
                            }
                        ],
                        "signature": "balanceOf(address)"
                    },
                    "errorInfo": "",
                    "fromAddress": "0xece3f2645ed0910d4a10f4e262e9fe47c481d9de",
                    "gasUsed": 2863,
                    "id": 29,
                    "methodDecoded": true,
                    "operation": "STATICCALL",
                    "output": "0x00000000000000000000000000000000000000000000d3c21bcecceda1000000",
                    "revert": false,
                    "revertMessage": "",
                    "selector": "0x70a08231",
                    "status": true,
                    "value": "0"
                },
                "nodeType": 0
            },
            "3": {
                "invocation": {
                    "address": "0xbb4cdb9cbd36b01bd1cbaebf2de08d9173bc095c",
                    "callData": "0x",
                    "decodedMethod": {
                        "callParams": [],
                        "constructorArguments": "",
                        "name": "deposit",
                        "returnParams": [],
                        "signature": "deposit()"
                    },
                    "errorInfo": "",
                    "fromAddress": "0x00000047bb99ea4d791bb749d970de71ee0b1a34",
                    "gasUsed": 6874,
                    "id": 3,
                    "methodDecoded": true,
                    "operation": "CALL",
                    "output": "",
                    "revert": false,
                    "revertMessage": "",
                    "selector": "0xd0e30db0",
                    "status": true,
                    "value": "0.000000000000000001"
                },
                "nodeType": 0
            },
            "30": {
                "invocation": {
                    "address": "0xbb4cdb9cbd36b01bd1cbaebf2de08d9173bc095c",
                    "callData": "0x000000000000000000000000ece3f2645ed0910d4a10f4e262e9fe47c481d9de",
                    "decodedMethod": {
                        "callParams": [
                            {
                                "name": "",
                                "type": "address",
                                "value": "0xece3f2645ed0910d4a10f4e262e9fe47c481d9de"
                            }
                        ],
                        "constructorArguments": "",
                        "name": "balanceOf",
                        "returnParams": [
                            {
                                "decimalAvailable": true,
                                "name": "",
                                "type": "uint256",
                                "value": "173,917,186,477,338,745,776"
                            }
                        ],
                        "signature": "balanceOf(address)"
                    },
                    "errorInfo": "",
                    "fromAddress": "0xece3f2645ed0910d4a10f4e262e9fe47c481d9de",
                    "gasUsed": 534,
                    "id": 30,
                    "methodDecoded": true,
                    "operation": "STATICCALL",
                    "output": "0x0000000000000000000000000000000000000000000000096d95f7a5fd255bb0",
                    "revert": false,
                    "revertMessage": "",
                    "selector": "0x70a08231",
                    "status": true,
                    "value": "0"
                },
                "nodeType": 0
            },
            "31": {
                "event": {
                    "contract": "0xece3f2645ed0910d4a10f4e262e9fe47c481d9de",
                    "decodedLog": {
                        "name": "Sync",
                        "params": [
                            {
                                "name": "reserve0",
                                "type": "uint112",
                                "value": "1,000,000,000,000,000,000,000,000"
                            },
                            {
                                "name": "reserve1",
                                "type": "uint112",
                                "value": "173,917,186,477,338,745,776"
                            }
                        ],
                        "signature": "Sync(uint112,uint112)"
                    },
                    "id": 31,
                    "logData": "0x00000000000000000000000000000000000000000000d3c21bcecceda10000000000000000000000000000000000000000000000000000096d95f7a5fd255bb0",
                    "logDecoded": true,
                    "operation": "EVENT",
                    "revert": false,
                    "status": true,
                    "topics": [
                        "0x1c411e9a96e071241c2f21f7726b17ae89e3cab4c78be50e062b03a9fffbbad1"
                    ]
                },
                "nodeType": 1
            },
            "4": {
                "event": {
                    "contract": "0xbb4cdb9cbd36b01bd1cbaebf2de08d9173bc095c",
                    "decodedLog": {
                        "name": "Deposit",
                        "params": [
                            {
                                "name": "dst",
                                "type": "address",
                                "value": "0x00000047bb99ea4d791bb749d970de71ee0b1a34"
                            },
                            {
                                "name": "wad",
                                "type": "uint256",
                                "value": "1"
                            }
                        ],
                        "signature": "Deposit(address,uint256)"
                    },
                    "id": 4,
                    "logData": "0x0000000000000000000000000000000000000000000000000000000000000001",
                    "logDecoded": true,
                    "operation": "EVENT",
                    "revert": false,
                    "status": true,
                    "topics": [
                        "0xe1fffcc4923d04b559f4d29a8bfc6cda04eb5b0d3c460751c2402c5c5cc9109c",
                        "0x00000000000000000000000000000047bb99ea4d791bb749d970de71ee0b1a34"
                    ]
                },
                "nodeType": 1
            },
            "5": {
                "invocation": {
                    "address": "0xbb4cdb9cbd36b01bd1cbaebf2de08d9173bc095c",
                    "callData": "0x000000000000000000000000ece3f2645ed0910d4a10f4e262e9fe47c481d9de",
                    "decodedMethod": {
                        "callParams": [
                            {
                                "name": "",
                                "type": "address",
                                "value": "0xece3f2645ed0910d4a10f4e262e9fe47c481d9de"
                            }
                        ],
                        "constructorArguments": "",
                        "name": "balanceOf",
                        "returnParams": [
                            {
                                "decimalAvailable": true,
                                "name": "",
                                "type": "uint256",
                                "value": "10,000,000,000,000,000"
                            }
                        ],
                        "signature": "balanceOf(address)"
                    },
                    "errorInfo": "",
                    "fromAddress": "0x00000047bb99ea4d791bb749d970de71ee0b1a34",
                    "gasUsed": 2534,
                    "id": 5,
                    "methodDecoded": true,
                    "operation": "STATICCALL",
                    "output": "0x000000000000000000000000000000000000000000000000002386f26fc10000",
                    "revert": false,
                    "revertMessage": "",
                    "selector": "0x70a08231",
                    "status": true,
                    "value": "0"
                },
                "nodeType": 0
            },
            "6": {
                "invocation": {
                    "address": "0x7d7583724245eeebb745ebcb1cee0091ff43082b",
                    "callData": "0x",
                    "decodedMethod": {
                        "callParams": [],
                        "constructorArguments": "",
                        "name": "token0",
                        "returnParams": [
                            {
                                "name": "",
                                "type": "address",
                                "value": "0xbb4cdb9cbd36b01bd1cbaebf2de08d9173bc095c"
                            }
                        ],
                        "signature": "token0()"
                    },
                    "errorInfo": "",
                    "fromAddress": "0x00000047bb99ea4d791bb749d970de71ee0b1a34",
                    "gasUsed": 364,
                    "id": 6,
                    "methodDecoded": true,
                    "operation": "STATICCALL",
                    "output": "0x000000000000000000000000bb4cdb9cbd36b01bd1cbaebf2de08d9173bc095c",
                    "revert": false,
                    "revertMessage": "",
                    "selector": "0x0dfe1681",
                    "status": true,
                    "value": "0"
                },
                "nodeType": 0
            },
            "7": {
                "invocation": {
                    "address": "0x7d7583724245eeebb745ebcb1cee0091ff43082b",
                    "callData": "0x",
                    "decodedMethod": {
                        "callParams": [],
                        "constructorArguments": "",
                        "name": "token1",
                        "returnParams": [
                            {
                                "name": "",
                                "type": "address",
                                "value": "0x55d398326f99059ff775485246999027b3197955"
                            }
                        ],
                        "signature": "token1()"
                    },
                    "errorInfo": "",
                    "fromAddress": "0x00000047bb99ea4d791bb749d970de71ee0b1a34",
                    "gasUsed": 430,
                    "id": 7,
                    "methodDecoded": true,
                    "operation": "STATICCALL",
                    "output": "0x00000000000000000000000055d398326f99059ff775485246999027b3197955",
                    "revert": false,
                    "revertMessage": "",
                    "selector": "0xd21220a7",
                    "status": true,
                    "value": "0"
                },
                "nodeType": 0
            },
            "8": {
                "invocation": {
                    "address": "0x7d7583724245eeebb745ebcb1cee0091ff43082b",
                    "callData": "0x",
                    "decodedMethod": {
                        "callParams": [],
                        "constructorArguments": "",
                        "name": "fee",
                        "returnParams": [
                            {
                                "name": "",
                                "type": "uint256",
                                "value": "0"
                            }
                        ],
                        "signature": "fee()"
                    },
                    "errorInfo": "",
                    "fromAddress": "0x00000047bb99ea4d791bb749d970de71ee0b1a34",
                    "gasUsed": 401,
                    "id": 8,
                    "methodDecoded": true,
                    "operation": "STATICCALL",
                    "output": "0x0000000000000000000000000000000000000000000000000000000000000000",
                    "revert": false,
                    "revertMessage": "",
                    "selector": "0xddca3f43",
                    "status": true,
                    "value": "0"
                },
                "nodeType": 0
            },
            "9": {
                "invocation": {
                    "address": "0x7d7583724245eeebb745ebcb1cee0091ff43082b",
                    "callData": "0x00000000000000000000000000000047bb99ea4d791bb749d970de71ee0b1a340000000000000000000000000000000000000000000000000000000000000001000000000000000000000000000000000000000000000000000000000000000100000000000000000000000000000000000000000000000000000001000276a400000000000000000000000000000000000000000000000000000000000000a000000000000000000000000000000000000000000000000000000000000000a00100000000000000000000007d7583724245eeebb745ebcb1cee0091ff43082b00000000000000000000000000000000000000000000000000000000000000400000000000000000000000000000000000000000000000000000000000000040000000000000000000000000bb4cdb9cbd36b01bd1cbaebf2de08d9173bc095ce3b91515faba4076e729fd79b6485a46bd17b308916cea1d9e1ce9a84ff53ee4",
                    "decodedMethod": {
                        "callParams": [
                            {
                                "name": "recipient",
                                "type": "address",
                                "value": "0x00000047bb99ea4d791bb749d970de71ee0b1a34"
                            },
                            {
                                "name": "zeroForOne",
                                "type": "bool",
                                "value": true
                            },
                            {
                                "name": "amountSpecified",
                                "type": "int256",
                                "value": "1"
                            },
                            {
                                "name": "sqrtPriceLimitX96",
                                "type": "uint160",
                                "value": "4,295,128,740"
                            },
                            {
                                "name": "data",
                                "type": "bytes",
                                "value": "0x0100000000000000000000007d7583724245eeebb745ebcb1cee0091ff43082b00000000000000000000000000000000000000000000000000000000000000400000000000000000000000000000000000000000000000000000000000000040000000000000000000000000bb4cdb9cbd36b01bd1cbaebf2de08d9173bc095ce3b91515faba4076e729fd79b6485a46bd17b308916cea1d9e1ce9a84ff53ee4"
                            }
                        ],
                        "constructorArguments": "",
                        "name": "swap",
                        "returnParams": [
                            {
                                "name": "amount0",
                                "type": "int256",
                                "value": "0"
                            },
                            {
                                "name": "amount1",
                                "type": "int256",
                                "value": "-43,841,867,959,016,089,190,183"
                            }
                        ],
                        "signature": "swap(address,bool,int256,uint160,bytes)"
                    },
                    "errorInfo": "",
                    "fromAddress": "0x00000047bb99ea4d791bb749d970de71ee0b1a34",
                    "gasUsed": 7420,
                    "id": 9,
                    "methodDecoded": true,
                    "operation": "CALL",
                    "output": "0x0000000000000000000000000000000000000000000000000000000000000000fffffffffffffffffffffffffffffffffffffffffffff6b753dbff72520400d9",
                    "revert": false,
                    "revertMessage": "",
                    "selector": "0x128acb08",
                    "status": true,
                    "value": "0"
                },
                "nodeType": 0
            }
        },
        "gasFlame": [
            {
                "children": [
                    {
                        "children": [
                            {
                                "children": [],
                                "depth": 0,
                                "name": "Initial Gas",
                                "value": 21560
                            },
                            {
                                "children": [
                                    {
                                        "children": [],
                                        "depth": 1,
                                        "name": "getBlock",
                                        "value": 2415
                                    },
                                    {
                                        "children": [
                                            {
                                                "children": [],
                                                "depth": 2,
                                                "name": "deposit",
                                                "value": 6874
                                            },
                                            {
                                                "children": [],
                                                "depth": 2,
                                                "name": "balanceOf",
                                                "value": 2534
                                            },
                                            {
                                                "children": [],
                                                "depth": 2,
                                                "name": "token0",
                                                "value": 364
                                            },
                                            {
                                                "children": [],
                                                "depth": 2,
                                                "name": "token1",
                                                "value": 430
                                            },
                                            {
                                                "children": [],
                                                "depth": 2,
                                                "name": "fee",
                                                "value": 401
                                            },
                                            {
                                                "children": [
                                                    {
                                                        "children": [],
                                                        "depth": 3,
                                                        "name": "balanceOf",
                                                        "value": 2531
                                                    }
                                                ],
                                                "depth": 2,
                                                "name": "swap",
                                                "value": 7420
                                            },
                                            {
                                                "children": [],
                                                "depth": 2,
                                                "name": "token0",
                                                "value": 266
                                            },
                                            {
                                                "children": [],
                                                "depth": 2,
                                                "name": "token1",
                                                "value": 308
                                            },
                                            {
                                                "children": [],
                                                "depth": 2,
                                                "name": "fee",
                                                "value": 251
                                            },
                                            {
                                                "children": [
                                                    {
                                                        "children": [
                                                            {
                                                                "children": [],
                                                                "depth": 4,
                                                                "name": "getLatestPeriodInfo",
                                                                "value": 11440
                                                            }
                                                        ],
                                                        "depth": 3,
                                                        "name": "accumulateReward",
                                                        "value": 25705
                                                    },
                                                    {
                                                        "children": [],
                                                        "depth": 3,
                                                        "name": "crossLmTick",
                                                        "value": 10708
                                                    },
                                                    {
                                                        "children": [],
                                                        "depth": 3,
                                                        "name": "transfer",
                                                        "value": 10862
                                                    },
                                                    {
                                                        "children": [],
                                                        "depth": 3,
                                                        "name": "balanceOf",
                                                        "value": 2531
                                                    },
                                                    {
                                                        "children": [
                                                            {
                                                                "children": [],
                                                                "depth": 4,
                                                                "name": "transfer",
                                                                "value": 8871
                                                            }
                                                        ],
                                                        "depth": 3,
                                                        "name": "pancakeV3SwapCallback",
                                                        "value": 19483
                                                    },
                                                    {
                                                        "children": [],
                                                        "depth": 3,
                                                        "name": "balanceOf",
                                                        "value": 531
                                                    }
                                                ],
                                                "depth": 2,
                                                "name": "swap",
                                                "value": 158572
                                            },
                                            {
                                                "children": [],
                                                "depth": 2,
                                                "name": "balanceOf",
                                                "value": 534
                                            }
                                        ],
                                        "depth": 1,
                                        "name": "exactInputV3Swap",
                                        "value": 220318
                                    },
                                    {
                                        "children": [
                                            {
                                                "children": [],
                                                "depth": 2,
                                                "name": "balanceOf",
                                                "value": 2863
                                            },
                                            {
                                                "children": [],
                                                "depth": 2,
                                                "name": "balanceOf",
                                                "value": 534
                                            }
                                        ],
                                        "depth": 1,
                                        "name": "sync",
                                        "value": 69293
                                    }
                                ],
                                "depth": 0,
                                "name": "Executed Gas",
                                "value": 312147
                            }
                        ],
                        "depth": -1,
                        "name": "Actual Gas Used",
                        "value": 320507
                    },
                    {
                        "children": [],
                        "depth": -1,
                        "name": "Refunded Gas",
                        "value": 13200
                    }
                ],
                "depth": -2,
                "name": "Total Gas",
                "value": 333707
            }
        ],
        "isConfirmed": true,
        "mainTrace": [
            {
                "children": [
                    {
                        "children": [
                            {
                                "children": [],
                                "depth": 1,
                                "id": 1,
                                "order": 1
                            },
                            {
                                "children": [
                                    {
                                        "children": [
                                            {
                                                "children": [],
                                                "depth": 3,
                                                "id": 4,
                                                "order": 4
                                            }
                                        ],
                                        "depth": 2,
                                        "id": 3,
                                        "order": 3
                                    },
                                    {
                                        "children": [],
                                        "depth": 2,
                                        "id": 5,
                                        "order": 5
                                    },
                                    {
                                        "children": [],
                                        "depth": 2,
                                        "id": 6,
                                        "order": 6
                                    },
                                    {
                                        "children": [],
                                        "depth": 2,
                                        "id": 7,
                                        "order": 7
                                    },
                                    {
                                        "children": [],
                                        "depth": 2,
                                        "id": 8,
                                        "order": 8
                                    },
                                    {
                                        "children": [
                                            {
                                                "children": [],
                                                "depth": 3,
                                                "id": 10,
                                                "order": 10
                                            }
                                        ],
                                        "depth": 2,
                                        "id": 9,
                                        "order": 9
                                    },
                                    {
                                        "children": [],
                                        "depth": 2,
                                        "id": 11,
                                        "order": 11
                                    },
                                    {
                                        "children": [],
                                        "depth": 2,
                                        "id": 12,
                                        "order": 12
                                    },
                                    {
                                        "children": [],
                                        "depth": 2,
                                        "id": 13,
                                        "order": 13
                                    },
                                    {
                                        "children": [
                                            {
                                                "children": [
                                                    {
                                                        "children": [],
                                                        "depth": 4,
                                                        "id": 16,
                                                        "order": 16
                                                    }
                                                ],
                                                "depth": 3,
                                                "id": 15,
                                                "order": 15
                                            },
                                            {
                                                "children": [],
                                                "depth": 3,
                                                "id": 17,
                                                "order": 17
                                            },
                                            {
                                                "children": [
                                                    {
                                                        "children": [],
                                                        "depth": 4,
                                                        "id": 19,
                                                        "order": 19
                                                    }
                                                ],
                                                "depth": 3,
                                                "id": 18,
                                                "order": 18
                                            },
                                            {
                                                "children": [],
                                                "depth": 3,
                                                "id": 20,
                                                "order": 20
                                            },
                                            {
                                                "children": [
                                                    {
                                                        "children": [
                                                            {
                                                                "children": [],
                                                                "depth": 5,
                                                                "id": 23,
                                                                "order": 23
                                                            }
                                                        ],
                                                        "depth": 4,
                                                        "id": 22,
                                                        "order": 22
                                                    }
                                                ],
                                                "depth": 3,
                                                "id": 21,
                                                "order": 21
                                            },
                                            {
                                                "children": [],
                                                "depth": 3,
                                                "id": 24,
                                                "order": 24
                                            },
                                            {
                                                "children": [],
                                                "depth": 3,
                                                "id": 25,
                                                "order": 25
                                            }
                                        ],
                                        "depth": 2,
                                        "id": 14,
                                        "order": 14
                                    },
                                    {
                                        "children": [],
                                        "depth": 2,
                                        "id": 26,
                                        "order": 26
                                    },
                                    {
                                        "children": [],
                                        "depth": 2,
                                        "id": 27,
                                        "order": 27
                                    }
                                ],
                                "depth": 1,
                                "id": 2,
                                "order": 2
                            },
                            {
                                "children": [
                                    {
                                        "children": [],
                                        "depth": 2,
                                        "id": 29,
                                        "order": 29
                                    },
                                    {
                                        "children": [],
                                        "depth": 2,
                                        "id": 30,
                                        "order": 30
                                    },
                                    {
                                        "children": [],
                                        "depth": 2,
                                        "id": 31,
                                        "order": 31
                                    }
                                ],
                                "depth": 1,
                                "id": 28,
                                "order": 28
                            }
                        ],
                        "depth": 0,
                        "id": 0,
                        "order": 0
                    }
                ],
                "depth": -1,
                "id": -1,
                "order": -1
            }
        ],
        "mainTraceNodeCount": 32,
        "parentIdMap": {
            "0": -1,
            "1": 0,
            "10": 9,
            "11": 2,
            "12": 2,
            "13": 2,
            "14": 2,
            "15": 14,
            "16": 15,
            "17": 14,
            "18": 14,
            "19": 18,
            "2": 0,
            "20": 14,
            "21": 14,
            "22": 21,
            "23": 22,
            "24": 14,
            "25": 14,
            "26": 2,
            "27": 2,
            "28": 0,
            "29": 28,
            "3": 2,
            "30": 28,
            "31": 28,
            "4": 3,
            "5": 2,
            "6": 2,
            "7": 2,
            "8": 2,
            "9": 2
        },
        "tidyTrace": [
            {
                "children": [
                    {
                        "children": [
                            {
                                "children": [
                                    {
                                        "children": [
                                            {
                                                "children": [],
                                                "depth": 3,
                                                "id": 4,
                                                "order": 4
                                            }
                                        ],
                                        "depth": 2,
                                        "id": 3,
                                        "order": 3
                                    },
                                    {
                                        "children": [],
                                        "depth": 2,
                                        "id": 9,
                                        "order": 9
                                    },
                                    {
                                        "children": [
                                            {
                                                "children": [],
                                                "depth": 3,
                                                "id": 15,
                                                "order": 15
                                            },
                                            {
                                                "children": [],
                                                "depth": 3,
                                                "id": 17,
                                                "order": 17
                                            },
                                            {
                                                "children": [
                                                    {
                                                        "children": [],
                                                        "depth": 4,
                                                        "id": 19,
                                                        "order": 19
                                                    }
                                                ],
                                                "depth": 3,
                                                "id": 18,
                                                "order": 18
                                            },
                                            {
                                                "children": [
                                                    {
                                                        "children": [
                                                            {
                                                                "children": [],
                                                                "depth": 5,
                                                                "id": 23,
                                                                "order": 23
                                                            }
                                                        ],
                                                        "depth": 4,
                                                        "id": 22,
                                                        "order": 22
                                                    }
                                                ],
                                                "depth": 3,
                                                "id": 21,
                                                "order": 21
                                            },
                                            {
                                                "children": [],
                                                "depth": 3,
                                                "id": 25,
                                                "order": 25
                                            }
                                        ],
                                        "depth": 2,
                                        "id": 14,
                                        "order": 14
                                    },
                                    {
                                        "children": [],
                                        "depth": 2,
                                        "id": 27,
                                        "order": 27
                                    }
                                ],
                                "depth": 1,
                                "id": 2,
                                "order": 2
                            },
                            {
                                "children": [
                                    {
                                        "children": [],
                                        "depth": 2,
                                        "id": 31,
                                        "order": 31
                                    }
                                ],
                                "depth": 1,
                                "id": 28,
                                "order": 28
                            }
                        ],
                        "depth": 0,
                        "id": 0,
                        "order": 0
                    }
                ],
                "depth": -1,
                "id": -1,
                "order": -1
            }
        ],
        "tidyTraceNodeCount": 17
    },
    "state_change": {
        "stateChanges": [
            {
                "address": "0x36696169c63e42cd08ce11f5deebbcebae652050",
                "erc": "",
                "slots": [
                    {
                        "current": "0x00000000000000038751ea157e480078000000000000036bbdfc6ebe5786d708",
                        "key": "0x0000000000000000000000000000000000000000000000000000000000000004",
                        "prev": "0x00000000000000038751ea157e480078000000000000036b568da3d13dc82d4e"
                    },
                    {
                        "current": "0x0000000000000000000000000000000013c10586a6f10520c5197fc252aa68e4",
                        "key": "0xeec72fa961e405d7429d4b1c14a7b063200f1c2195e8b2b6ab4b176e02b44d91",
                        "prev": "0x000000000000000000000000000000000c1c9a54634fd1f1cf5abcd2b9096966"
                    },
                    {
                        "current": "0x000000038403840161ff27fb0000000000000000101fc53c4cdb8fb28c6339c3",
                        "key": "0x0000000000000000000000000000000000000000000000000000000000000000",
                        "prev": "0x000000038403840160ff2804000000000000000010216dd3767902d4fbbe0e7e"
                    },
                    {
                        "current": "0x000000000000000000000000000000001fdd9fe4c33919b889bd6a58624ffd06",
                        "key": "0x0000000000000000000000000000000000000000000000000000000000000002",
                        "prev": "0x000000000000000000000000000000001fdd7c921d0f8d5898ef0d99d56b1f0a"
                    },
                    {
                        "current": "0x01000000000000000000018884bf758b36f3e7f637fffedc56fe203065824b10",
                        "key": "0x000000000000000000000000000000000000000000000000000000000000016a",
                        "prev": "0x01000000000000000000018884aea0adffdad11269fffedcb53a07496581db77"
                    },
                    {
                        "current": "0x00000000000000000000000000000000000000000005af32e82061057d6d615b",
                        "key": "0x0000000000000000000000000000000000000000000000000000000000000005",
                        "prev": "0x00000000000000000000000000000000000000000005af2625ef7999e6200c56"
                    },
                    {
                        "current": "0x000000000000000000000000000000000015aaacde3cf4234cda6a37eb9127f1",
                        "key": "0xeec72fa961e405d7429d4b1c14a7b063200f1c2195e8b2b6ab4b176e02b44d92",
                        "prev": "0x00000000000000000000000000000000000b8a112e9226dcc2b3606a83a90634"
                    },
                    {
                        "current": "0x0100e9072b000000000000000000000018f397b1ae4ef99508ffff3ec963bf1e",
                        "key": "0xeec72fa961e405d7429d4b1c14a7b063200f1c2195e8b2b6ab4b176e02b44d93",
                        "prev": "0x01649943e500000000000000000001886bcbddd988a4ee612fffff9d8d9a6112"
                    }
                ],
                "storageVariables": [
                    {
                        "name": "slot0",
                        "type": "struct PancakeV3Pool.Slot0",
                        "value": {
                            "fields": [
                                {
                                    "name": "sqrtPriceX96",
                                    "type": "uint160",
                                    "value": {
                                        "current": "4990168276089522510497003971",
                                        "prev": "4992173347935293888842829438",
                                        "typeTag": 1
                                    }
                                },
                                {
                                    "name": "tick",
                                    "type": "int24",
                                    "value": {
                                        "current": "-55301",
                                        "prev": "-55292",
                                        "typeTag": 1
                                    }
                                },
                                {
                                    "name": "observationIndex",
                                    "type": "uint16",
                                    "value": {
                                        "current": "353",
                                        "prev": "352",
                                        "typeTag": 1
                                    }
                                },
                                {
                                    "name": "observationCardinality",
                                    "type": "uint16",
                                    "value": {
                                        "current": "900",
                                        "prev": "900",
                                        "typeTag": 1
                                    }
                                },
                                {
                                    "name": "observationCardinalityNext",
                                    "type": "uint16",
                                    "value": {
                                        "current": "900",
                                        "prev": "900",
                                        "typeTag": 1
                                    }
                                }
                            ],
                            "typeTag": 3
                        }
                    },
                    {
                        "name": "liquidity",
                        "type": "uint128",
                        "value": {
                            "current": "6871982296254711524581723",
                            "prev": "6871746942387335483886678",
                            "typeTag": 1
                        }
                    },
                    {
                        "name": "ticks",
                        "type": "mapping(int24 => struct Tick.Info)",
                        "value": {
                            "pairs": [
                                {
                                    "key": "-55300",
                                    "value": {
                                        "fields": [
                                            {
                                                "name": "feeGrowthOutside0X128",
                                                "type": "uint256",
                                                "value": {
                                                    "current": "26257557293898305456453232326838216932",
                                                    "prev": "16099250438438091751158605710367484262",
                                                    "typeTag": 1
                                                }
                                            },
                                            {
                                                "name": "feeGrowthOutside1X128",
                                                "type": "uint256",
                                                "value": {
                                                    "current": "112499939685165255748478806055266289",
                                                    "prev": "59915599260946920611396828793472564",
                                                    "typeTag": 1
                                                }
                                            },
                                            {
                                                "name": "tickCumulativeOutside",
                                                "type": "int56",
                                                "value": {
                                                    "current": "-829844898018",
                                                    "prev": "-422826057454",
                                                    "typeTag": 1
                                                }
                                            },
                                            {
                                                "name": "secondsPerLiquidityOutsideX128",
                                                "type": "uint160",
                                                "value": {
                                                    "current": "460274551203936441608",
                                                    "prev": "1853156153037528304083247",
                                                    "typeTag": 1
                                                }
                                            },
                                            {
                                                "name": "secondsOutside",
                                                "type": "uint32",
                                                "value": {
                                                    "current": "15271723",
                                                    "prev": "1687765989",
                                                    "typeTag": 1
                                                }
                                            },
                                            {
                                                "name": "initialized",
                                                "type": "bool",
                                                "value": {
                                                    "current": "true",
                                                    "prev": "true",
                                                    "typeTag": 1
                                                }
                                            }
                                        ],
                                        "typeTag": 3
                                    }
                                }
                            ],
                            "typeTag": 4
                        }
                    },
                    {
                        "name": "protocolFees",
                        "type": "struct PancakeV3Pool.ProtocolFees",
                        "value": {
                            "fields": [
                                {
                                    "name": "token0",
                                    "type": "uint128",
                                    "value": {
                                        "current": "16154591003226948425480",
                                        "prev": "16147137885673915690318",
                                        "typeTag": 1
                                    }
                                },
                                {
                                    "name": "token1",
                                    "type": "uint128",
                                    "value": {
                                        "current": "65091064267396350072",
                                        "prev": "65091064267396350072",
                                        "typeTag": 1
                                    }
                                }
                            ],
                            "typeTag": 3
                        }
                    },
                    {
                        "name": "feeGrowthGlobal0X128",
                        "type": "uint256",
                        "value": {
                            "current": "42356808502635229983958147148035390726",
                            "prev": "42356092070165035515769947978640072458",
                            "typeTag": 1
                        }
                    }
                ]
            },
            {
                "address": "0x4d67dc640f5327d0e1c7c6537ed8542aaf46cf99",
                "erc": "",
                "slots": [
                    {
                        "current": "0x000000000000000000000000000000001224715e816fe5471eb563920faeeb8d",
                        "key": "0x0000000000000000000000000000000000000000000000000000000000000001",
                        "prev": "0x0000000000000000000000000000000012247128ddd969e4891f18e5b0b63128"
                    },
                    {
                        "current": "0x00000000000000000000000165824b1000000000000534afd365b0e001707084",
                        "key": "0x0000000000000000000000000000000000000000000000000000000000000003",
                        "prev": "0x00000000000000000000000165824b0d00000000000534c006f8bc98407001a6"
                    },
                    {
                        "current": "0x0000000000000000000000000000000002c47a374a57f54615d6cb3fdf8d5d42",
                        "key": "0x8a230769f4450d4e488b74ca256a1aa7160e2d7469c960c106690682be641af9",
                        "prev": "0x000000000000000000000000000000000f5ff7273717f00108de985230218e4b"
                    }
                ],
                "storageVariables": []
            },
            {
                "address": "0x55d398326f99059ff775485246999027b3197955",
                "erc": "ERC-20",
                "slots": [
                    {
                        "current": "0x0000000000000000000000000000000000000000000000000000000000000000",
                        "key": "0xe5e58e8302075d7f9461b9d9a397e1ee6768a5f320c4b18cd4f8a518b3b251b4",
                        "prev": "0x000000000000000000000000000000000000000000000948ac24008dadfbff27"
                    },
                    {
                        "current": "0x00000000000000000000000000000000000000000007e1d028918d810c4a2b85",
                        "key": "0x4b4dfb61299ca62a744d1ae05c6e24e84740e94efd86eec09992191d35df35c4",
                        "prev": "0x00000000000000000000000000000000000000000007d8877c6d8cf35e4e2c5e"
                    }
                ],
                "storageVariables": [
                    {
                        "name": "_balances",
                        "type": "mapping(address => uint256)",
                        "value": {
                            "pairs": [
                                {
                                    "key": "0x00000047bb99ea4d791bb749d970de71ee0b1a34",
                                    "value": {
                                        "current": "0",
                                        "prev": "43841867959016089190183",
                                        "typeTag": 1
                                    }
                                },
                                {
                                    "key": "0x36696169c63e42cd08ce11f5deebbcebae652050",
                                    "value": {
                                        "current": "9528853041988624519408517",
                                        "prev": "9485011174029608430218334",
                                        "typeTag": 1
                                    }
                                }
                            ],
                            "typeTag": 4
                        }
                    }
                ]
            },
            {
                "address": "0xbb4cdb9cbd36b01bd1cbaebf2de08d9173bc095c",
                "erc": "ERC-20",
                "slots": [
                    {
                        "current": "0x000000000000000000000000000000000000000000000000060b331c938e7028",
                        "key": "0x245bafcf183614e66fd8ffecbf091aaef402981886d54670d1588388a33311fa",
                        "prev": "0x000000000000000000000000000000000000000000000000060b331c938e7027"
                    },
                    {
                        "current": "0x0000000000000000000000000000000000000000000015d4c50e5b945283a186",
                        "key": "0xf398c0878886fbe9ddcca4240ffdc3ab6a71e3d8caebbc2d009dac30c6555b68",
                        "prev": "0x0000000000000000000000000000000000000000000015de3280cc47dfe7fd36"
                    },
                    {
                        "current": "0x0000000000000000000000000000000000000000000000096d95f7a5fd255bb0",
                        "key": "0x999231deeba1d423d166af3ed3a40d0241a9a8d238d4f0b3ff463c4ff716e942",
                        "prev": "0x000000000000000000000000000000000000000000000000002386f26fc10000"
                    }
                ],
                "storageVariables": [
                    {
                        "name": "balanceOf",
                        "type": "mapping(address => uint256)",
                        "value": {
                            "pairs": [
                                {
                                    "key": "0x00000047bb99ea4d791bb749d970de71ee0b1a34",
                                    "value": {
                                        "current": "435497986799071272",
                                        "prev": "435497986799071271",
                                        "typeTag": 1
                                    }
                                },
                                {
                                    "key": "0x36696169c63e42cd08ce11f5deebbcebae652050",
                                    "value": {
                                        "current": "103094605271256717828486",
                                        "prev": "103268512457734056574262",
                                        "typeTag": 1
                                    }
                                },
                                {
                                    "key": "0xece3f2645ed0910d4a10f4e262e9fe47c481d9de",
                                    "value": {
                                        "current": "173917186477338745776",
                                        "prev": "10000000000000000",
                                        "typeTag": 1
                                    }
                                }
                            ],
                            "typeTag": 4
                        }
                    }
                ]
            },
            {
                "address": "0xece3f2645ed0910d4a10f4e262e9fe47c481d9de",
                "erc": "ERC-20",
                "slots": [
                    {
                        "current": "0x000000000000000000000000000000000000004c4ab1542068ab3a2af41ef234",
                        "key": "0x0000000000000000000000000000000000000000000000000000000000000009",
                        "prev": "0x0000000000000000000000000000000000000000000000000000000000000000"
                    },
                    {
                        "current": "0x0000000000000000000000000a966d973c000000000000000000000000000000",
                        "key": "0x000000000000000000000000000000000000000000000000000000000000000a",
                        "prev": "0x0000000000000000000000000000000000000000000000000000000000000000"
                    },
                    {
                        "current": "0x65824b100000000000096d95f7a5fd255bb000000000d3c21bcecceda1000000",
                        "key": "0x0000000000000000000000000000000000000000000000000000000000000008",
                        "prev": "0x65808454000000000000002386f26fc1000000000000d3c21bcecceda1000000"
                    }
                ],
                "storageVariables": [
                    {
                        "name": "price0CumulativeLast",
                        "type": "uint256",
                        "value": {
                            "current": "6044456618957563538924921352756",
                            "prev": "0",
                            "typeTag": 1
                        }
                    },
                    {
                        "name": "price1CumulativeLast",
                        "type": "uint256",
                        "value": {
                            "current": "60444566189575635389249213867716981555200000000",
                            "prev": "0",
                            "typeTag": 1
                        }
                    },
                    {
                        "name": "reserve0",
                        "type": "uint112",
                        "value": {
                            "current": "1000000000000000000000000",
                            "prev": "1000000000000000000000000",
                            "typeTag": 1
                        }
                    },
                    {
                        "name": "reserve1",
                        "type": "uint112",
                        "value": {
                            "current": "173917186477338745776",
                            "prev": "10000000000000000",
                            "typeTag": 1
                        }
                    },
                    {
                        "name": "blockTimestampLast",
                        "type": "uint32",
                        "value": {
                            "current": "1703037712",
                            "prev": "1702921300",
                            "typeTag": 1
                        }
                    }
                ]
            }
        ]
    }
}