{
    "balance_change": {
        "balanceChanges": [
            {
                "account": "0x1ae3929e1975043e5443868be91cac12d8cc25ec",
                "assets": [
                    {
                        "address": "0x37fe0f067fa808ffbdd12891c0858532cfe7361d",
                        "amount": "89,789.15480344136876601",
                        "iconUrl": "https://assets.blocksec.com/icon/7283b06ee9e3aecc824092033aeef25cc1409dd038d1441a0c5e26327a69334a.png",
                        "isERC1155": false,
                        "isERC721": false,
                        "sign": true,
                        "value": "1436.6264768000000299"
                    },
                    {
                        "address": "0xf169bd68ed72b2fdc3c9234833197171aa000580",
                        "amount": "1",
                        "iconUrl": "",
                        "isERC1155": false,
                        "isERC721": true,
                        "sign": true,
                        "tokenID": "61",
                        "value": ""
                    }
                ]
            },
            {
                "account": "0x0000000000000000000000000000000000000000",
                "assets": [
                    {
                        "address": "0xf169bd68ed72b2fdc3c9234833197171aa000580",
                        "amount": "1",
                        "iconUrl": "",
                        "isERC1155": false,
                        "isERC721": true,
                        "sign": false,
                        "tokenID": "61",
                        "value": ""
                    }
                ]
            },
            {
                "account": "0x512e9701d314b365921bcb3b8265658a152c9ffd",
                "assets": [
                    {
                        "address": "0x37fe0f067fa808ffbdd12891c0858532cfe7361d",
                        "amount": "89,789.15480344136876601",
                        "iconUrl": "https://assets.blocksec.com/icon/7283b06ee9e3aecc824092033aeef25cc1409dd038d1441a0c5e26327a69334a.png",
                        "isERC1155": false,
                        "isERC721": false,
                        "sign": false,
                        "value": "1436.6264768000000299"
                    }
                ]
            }
        ]
    },
    "profile": {
        "basic_info": {
            "baseFee": "40.301918075",
            "blockNumber": 17649876,
            "callData": "0x9910969e00000000000000000000000037fe0f067fa808ffbdd12891c0858532cfe7361d000000000000000000000000512e9701d314b365921bcb3b8265658a152c9ffd",
            "debugEnable": true,
            "errorInfo": "",
            "eventCount": 4,
            "feeRecipient": "0x95222290dd7278aa3ddd389cc1e1d165cc4bafe5",
            "formatValue": "0",
            "gasLimit": 587656,
            "gasPrice": "43.301918075",
            "gasUsed": 547299,
            "intTxnCount": 12,
            "internalRevert": false,
            "internalRevertMessage": "",
            "isContractCreation": false,
            "isFlashloan": false,
            "maxFee": "138.49697422",
            "nonce": 1,
            "overwritedBlockNumber": -1,
            "priorityFee": "3",
            "receiver": "0x1ae3929e1975043e5443868be91cac12d8cc25ec",
            "revertMessage": "",
            "sender": "0xbf9df575670c739d9bf1424d4913e7244ed3ff66",
            "simulationEnable": true,
            "sourceTxnHash": "0x93a033917fcdbd5fe8ae24e9fe22f002949cba2f621a1c43a54f6519479caceb",
            "status": true,
            "timestamp": "2023-07-08T15:16:35Z",
            "transactionFee": "0.023699096460529425",
            "txnHash": "0x93a033917fcdbd5fe8ae24e9fe22f002949cba2f621a1c43a54f6519479caceb",
            "txnIndex": 19,
            "type": 2,
            "value": "0"
        },
        "fund_flow": [
            {
                "amount": "89,789.15480344136876601",
                "from": "0x512e9701d314b365921bcb3b8265658a152c9ffd",
                "id": 1,
                "isERC1155": false,
                "isERC721": false,
                "isReverted": false,
                "order": 1,
                "to": "0x1ae3929e1975043e5443868be91cac12d8cc25ec",
                "token": "0x37fe0f067fa808ffbdd12891c0858532cfe7361d"
            },
            {
                "amount": "1",
                "from": "0x0000000000000000000000000000000000000000",
                "id": 2,
                "isERC1155": false,
                "isERC721": true,
                "isReverted": false,
                "order": 2,
                "to": "0x1ae3929e1975043e5443868be91cac12d8cc25ec",
                "token": "0xf169bd68ed72b2fdc3c9234833197171aa000580",
                "tokenID": "61"
            }
        ],
        "token_infos": [
            {
                "address": "0x37fe0f067fa808ffbdd12891c0858532cfe7361d",
                "decimals": 18
            },
            {
                "address": "0xc02aaa39b223fe8d0a0e5c4f27ead9083c756cc2",
                "decimals": 18
            },
            {
                "address": "0xeeeeeeeeeeeeeeeeeeeeeeeeeeeeeeeeeeeeeeee",
                "decimals": 18
            }
        ]
    },
    "address_label": {
        "labels": [
            {
                "address": "0xbf9df575670c739d9bf1424d4913e7244ed3ff66",
                "label": "CIVNFT Exploiter"
            },
            {
                "address": "0xf169bd68ed72b2fdc3c9234833197171aa000580",
                "label": "TransparentUpgradeableProxy_f169_0580"
            },
            {
                "address": "0x0000000000000000000000000000000000000003",
                "label": "Precompiled"
            },
            {
                "address": "0xeeeeeeeeeeeeeeeeeeeeeeeeeeeeeeeeeeeeeeee",
                "label": "Ether"
            },
            {
                "address": "0x37fe0f067fa808ffbdd12891c0858532cfe7361d",
                "label": "Civilization: CIV Token"
            },
            {
                "address": "0xc02aaa39b223fe8d0a0e5c4f27ead9083c756cc2",
                "label": "Wrapped Ether (WETH)"
            },
            {
                "address": "0x0000000000000000000000000000000000000001",
                "label": "Precompiled"
            },
            {
                "address": "0x0000000000000000000000000000000000000002",
                "label": "Precompiled"
            },
            {
                "address": "0x0000000000000000000000000000000000000004",
                "label": "Precompiled"
            }
        ]
    },
    "trace": {
        "accountLabels": null,
        "dataMap": {
            "-1": {
                "invocation": {
                    "address": "0xbf9df575670c739d9bf1424d4913e7244ed3ff66",
                    "callData": "",
                    "decodedMethod": null,
                    "errorInfo": "",
                    "fromAddress": "",
                    "gasUsed": 0,
                    "id": -1,
                    "methodDecoded": false,
                    "operation": "",
                    "output": "",
                    "revert": false,
                    "revertMessage": "",
                    "selector": "",
                    "status": false,
                    "value": ""
                },
                "nodeType": 0
            },
            "0": {
                "invocation": {
                    "address": "0x1ae3929e1975043e5443868be91cac12d8cc25ec",
                    "callData": "0x00000000000000000000000037fe0f067fa808ffbdd12891c0858532cfe7361d000000000000000000000000512e9701d314b365921bcb3b8265658a152c9ffd",
                    "decodedMethod": null,
                    "errorInfo": "",
                    "fromAddress": "0xbf9df575670c739d9bf1424d4913e7244ed3ff66",
                    "gasUsed": 547299,
                    "id": 0,
                    "methodDecoded": false,
                    "operation": "CALL",
                    "output": "",
                    "revert": false,
                    "revertMessage": "",
                    "selector": "0x9910969e",
                    "status": true,
                    "value": "0"
                },
                "nodeType": 0
            },
            "1": {
                "invocation": {
                    "address": "0xf169bd68ed72b2fdc3c9234833197171aa000580",
                    "callData": "0x0000000000000000000000001ae3929e1975043e5443868be91cac12d8cc25ec00000000000000000000000000000000000000000000000000000000000000c0fffffffffffffffffffffffffffffffffffffffffffffffffffffffffffe8397000000000000000000000000000000000000000000002964d28008383a2d6d00000000000000000000000000000000000000000000000000000000000000000000000000000000000000000000000000000000000000000000000000000000010000000000000000000000000000000000000000000000000000000000000008302e303030303539000000000000000000000000000000000000000000000000",
                    "decodedMethod": null,
                    "errorInfo": "",
                    "fromAddress": "0x1ae3929e1975043e5443868be91cac12d8cc25ec",
                    "gasUsed": 497163,
                    "id": 1,
                    "methodDecoded": false,
                    "operation": "CALL",
                    "output": "",
                    "revert": false,
                    "revertMessage": "",
                    "selector": "0x7ca06d68",
                    "status": true,
                    "value": "0"
                },
                "nodeType": 0
            },
            "10": {
                "invocation": {
                    "address": "0x1ae3929e1975043e5443868be91cac12d8cc25ec",
                    "callData": "0x",
                    "decodedMethod": {
                        "callParams": [],
                        "constructorArguments": "",
                        "name": "token0",
                        "returnParams": [
                            {
                                "name": "",
                                "type": "address",
                                "value": "0x37fe0f067fa808ffbdd12891c0858532cfe7361d"
                            }
                        ],
                        "signature": "token0()"
                    },
                    "errorInfo": "",
                    "fromAddress": "0xf169bd68ed72b2fdc3c9234833197171aa000580",
                    "gasUsed": 515,
                    "id": 10,
                    "methodDecoded": true,
                    "operation": "STATICCALL",
                    "output": "0x00000000000000000000000037fe0f067fa808ffbdd12891c0858532cfe7361d",
                    "revert": false,
                    "revertMessage": "",
                    "selector": "0x0dfe1681",
                    "status": true,
                    "value": "0"
                },
                "nodeType": 0
            },
            "11": {
                "invocation": {
                    "address": "0x1ae3929e1975043e5443868be91cac12d8cc25ec",
                    "callData": "0x",
                    "decodedMethod": {
                        "callParams": [],
                        "constructorArguments": "",
                        "name": "token1",
                        "returnParams": [
                            {
                                "name": "",
                                "type": "address",
                                "value": "0xc02aaa39b223fe8d0a0e5c4f27ead9083c756cc2"
                            }
                        ],
                        "signature": "token1()"
                    },
                    "errorInfo": "",
                    "fromAddress": "0xf169bd68ed72b2fdc3c9234833197171aa000580",
                    "gasUsed": 2580,
                    "id": 11,
                    "methodDecoded": true,
                    "operation": "STATICCALL",
                    "output": "0x000000000000000000000000c02aaa39b223fe8d0a0e5c4f27ead9083c756cc2",
                    "revert": false,
                    "revertMessage": "",
                    "selector": "0xd21220a7",
                    "status": true,
                    "value": "0"
                },
                "nodeType": 0
            },
            "12": {
                "invocation": {
                    "address": "0x37fe0f067fa808ffbdd12891c0858532cfe7361d",
                    "callData": "0x000000000000000000000000512e9701d314b365921bcb3b8265658a152c9ffd0000000000000000000000001ae3929e1975043e5443868be91cac12d8cc25ec0000000000000000000000000000000000000000000013037ad67a66319f163a",
                    "decodedMethod": {
                        "callParams": [
                            {
                                "name": "sender",
                                "type": "address",
                                "value": "0x512e9701d314b365921bcb3b8265658a152c9ffd"
                            },
                            {
                                "name": "recipient",
                                "type": "address",
                                "value": "0x1ae3929e1975043e5443868be91cac12d8cc25ec"
                            },
                            {
                                "decimalAvailable": true,
                                "name": "amount",
                                "type": "uint256",
                                "value": "89,789,154,803,441,368,766,010"
                            }
                        ],
                        "constructorArguments": "",
                        "name": "transferFrom",
                        "returnParams": [
                            {
                                "name": "",
                                "type": "bool",
                                "value": true
                            }
                        ],
                        "signature": "transferFrom(address,address,uint256)"
                    },
                    "errorInfo": "",
                    "fromAddress": "0xf169bd68ed72b2fdc3c9234833197171aa000580",
                    "gasUsed": 34792,
                    "id": 12,
                    "methodDecoded": true,
                    "operation": "CALL",
                    "output": "0x0000000000000000000000000000000000000000000000000000000000000001",
                    "revert": false,
                    "revertMessage": "",
                    "selector": "0x23b872dd",
                    "status": true,
                    "value": "0"
                },
                "nodeType": 0
            },
            "13": {
                "event": {
                    "contract": "0x37fe0f067fa808ffbdd12891c0858532cfe7361d",
                    "decodedLog": {
                        "name": "Transfer",
                        "params": [
                            {
                                "name": "from",
                                "type": "address",
                                "value": "0x512e9701d314b365921bcb3b8265658a152c9ffd"
                            },
                            {
                                "name": "to",
                                "type": "address",
                                "value": "0x1ae3929e1975043e5443868be91cac12d8cc25ec"
                            },
                            {
                                "decimalAvailable": true,
                                "name": "value",
                                "type": "uint256",
                                "value": "89,789,154,803,441,368,766,010"
                            }
                        ],
                        "signature": "Transfer(address,address,uint256)"
                    },
                    "id": 13,
                    "logData": "0x0000000000000000000000000000000000000000000013037ad67a66319f163a",
                    "logDecoded": true,
                    "operation": "EVENT",
                    "revert": false,
                    "status": true,
                    "topics": [
                        "0xddf252ad1be2c89b69c2b068fc378daa952ba7f163c4a11628f55a4df523b3ef",
                        "0x000000000000000000000000512e9701d314b365921bcb3b8265658a152c9ffd",
                        "0x0000000000000000000000001ae3929e1975043e5443868be91cac12d8cc25ec"
                    ]
                },
                "nodeType": 1
            },
            "14": {
                "event": {
                    "contract": "0x37fe0f067fa808ffbdd12891c0858532cfe7361d",
                    "decodedLog": {
                        "name": "Approval",
                        "params": [
                            {
                                "name": "owner",
                                "type": "address",
                                "value": "0x512e9701d314b365921bcb3b8265658a152c9ffd"
                            },
                            {
                                "name": "spender",
                                "type": "address",
                                "value": "0xf169bd68ed72b2fdc3c9234833197171aa000580"
                            },
                            {
                                "decimalAvailable": true,
                                "name": "value",
                                "type": "uint256",
                                "value": "115,792,089,237,316,195,423,570,985,008,687,907,853,269,984,665,640,563,849,668,429,204,471,760,873,925"
                            }
                        ],
                        "signature": "Approval(address,address,uint256)"
                    },
                    "id": 14,
                    "logData": "0xffffffffffffffffffffffffffffffffffffffffffffd7cf8261a44ed7e0e9c5",
                    "logDecoded": true,
                    "operation": "EVENT",
                    "revert": false,
                    "status": true,
                    "topics": [
                        "0x8c5be1e5ebec7d5bd14f71427d1e84f3dd0314c0f7b2291e5b200ac8c7c3b925",
                        "0x000000000000000000000000512e9701d314b365921bcb3b8265658a152c9ffd",
                        "0x000000000000000000000000f169bd68ed72b2fdc3c9234833197171aa000580"
                    ]
                },
                "nodeType": 1
            },
            "15": {
                "event": {
                    "contract": "0xf169bd68ed72b2fdc3c9234833197171aa000580",
                    "decodedLog": {
                        "name": "Transfer",
                        "params": [
                            {
                                "name": "from",
                                "type": "address",
                                "value": "0x0000000000000000000000000000000000000000"
                            },
                            {
                                "name": "to",
                                "type": "address",
                                "value": "0x1ae3929e1975043e5443868be91cac12d8cc25ec"
                            },
                            {
                                "decimalAvailable": true,
                                "name": "tokenId",
                                "type": "uint256",
                                "value": "61"
                            }
                        ],
                        "signature": "Transfer(address,address,uint256)"
                    },
                    "id": 15,
                    "logData": "0x",
                    "logDecoded": true,
                    "operation": "EVENT",
                    "revert": false,
                    "status": true,
                    "topics": [
                        "0xddf252ad1be2c89b69c2b068fc378daa952ba7f163c4a11628f55a4df523b3ef",
                        "0x0000000000000000000000000000000000000000000000000000000000000000",
                        "0x0000000000000000000000001ae3929e1975043e5443868be91cac12d8cc25ec",
                        "0x000000000000000000000000000000000000000000000000000000000000003d"
                    ]
                },
                "nodeType": 1
            },
            "16": {
                "event": {
                    "contract": "0xf169bd68ed72b2fdc3c9234833197171aa000580",
                    "decodedLog": null,
                    "id": 16,
                    "logData": "0x000000000000000000000000000000000000000000000000000000000000003d0000000000000000000000001ae3929e1975043e5443868be91cac12d8cc25ec",
                    "logDecoded": false,
                    "operation": "EVENT",
                    "revert": false,
                    "status": true,
                    "topics": [
                        "0xbff6bec5c31e8419bd3fbc20f32b7e3695a58230657995a2b7d09634acf9efea"
                    ]
                },
                "nodeType": 1
            },
            "2": {
                "invocation": {
                    "address": "0x78bd317a87d2eab65b666e9402182a949ab4eeb9",
                    "callData": "0x0000000000000000000000001ae3929e1975043e5443868be91cac12d8cc25ec00000000000000000000000000000000000000000000000000000000000000c0fffffffffffffffffffffffffffffffffffffffffffffffffffffffffffe8397000000000000000000000000000000000000000000002964d28008383a2d6d00000000000000000000000000000000000000000000000000000000000000000000000000000000000000000000000000000000000000000000000000000000010000000000000000000000000000000000000000000000000000000000000008302e303030303539000000000000000000000000000000000000000000000000",
                    "decodedMethod": null,
                    "errorInfo": "",
                    "fromAddress": "0xf169bd68ed72b2fdc3c9234833197171aa000580",
                    "gasUsed": 489796,
                    "id": 2,
                    "methodDecoded": false,
                    "operation": "DELEGATECALL",
                    "output": "",
                    "revert": false,
                    "revertMessage": "",
                    "selector": "0x7ca06d68",
                    "status": true,
                    "value": "0"
                },
                "nodeType": 0
            },
            "3": {
                "invocation": {
                    "address": "0x1ae3929e1975043e5443868be91cac12d8cc25ec",
                    "callData": "0x",
                    "decodedMethod": {
                        "callParams": [],
                        "constructorArguments": "",
                        "name": "tickSpacing",
                        "returnParams": [
                            {
                                "name": "",
                                "type": "int24",
                                "value": "60"
                            }
                        ],
                        "signature": "tickSpacing()"
                    },
                    "errorInfo": "",
                    "fromAddress": "0xf169bd68ed72b2fdc3c9234833197171aa000580",
                    "gasUsed": 381,
                    "id": 3,
                    "methodDecoded": true,
                    "operation": "STATICCALL",
                    "output": "0x000000000000000000000000000000000000000000000000000000000000003c",
                    "revert": false,
                    "revertMessage": "",
                    "selector": "0xd0c93a7c",
                    "status": true,
                    "value": "0"
                },
                "nodeType": 0
            },
            "4": {
                "invocation": {
                    "address": "0x1ae3929e1975043e5443868be91cac12d8cc25ec",
                    "callData": "0x",
                    "decodedMethod": {
                        "callParams": [],
                        "constructorArguments": "",
                        "name": "slot0",
                        "returnParams": [
                            {
                                "name": "sqrtPriceX96",
                                "type": "uint160",
                                "value": "590,212,530,842,204,246,875,907,781"
                            },
                            {
                                "name": "tick",
                                "type": "int24",
                                "value": "-97,997"
                            },
                            {
                                "name": "observationIndex",
                                "type": "uint16",
                                "value": "0"
                            },
                            {
                                "name": "observationCardinality",
                                "type": "uint16",
                                "value": "1"
                            },
                            {
                                "name": "observationCardinalityNext",
                                "type": "uint16",
                                "value": "1"
                            },
                            {
                                "name": "feeProtocol",
                                "type": "uint8",
                                "value": "0"
                            },
                            {
                                "name": "unlocked",
                                "type": "bool",
                                "value": true
                            }
                        ],
                        "signature": "slot0()"
                    },
                    "errorInfo": "",
                    "fromAddress": "0xf169bd68ed72b2fdc3c9234833197171aa000580",
                    "gasUsed": 1088,
                    "id": 4,
                    "methodDecoded": true,
                    "operation": "STATICCALL",
                    "output": "0x000000000000000000000000000000000000000001e8365d688a8fc2dae526c5fffffffffffffffffffffffffffffffffffffffffffffffffffffffffffe813300000000000000000000000000000000000000000000000000000000000000000000000000000000000000000000000000000000000000000000000000000001000000000000000000000000000000000000000000000000000000000000000100000000000000000000000000000000000000000000000000000000000000000000000000000000000000000000000000000000000000000000000000000001",
                    "revert": false,
                    "revertMessage": "",
                    "selector": "0x3850c7bd",
                    "status": true,
                    "value": "0"
                },
                "nodeType": 0
            },
            "5": {
                "invocation": {
                    "address": "0x1ae3929e1975043e5443868be91cac12d8cc25ec",
                    "callData": "0x000000000000000000000000f169bd68ed72b2fdc3c9234833197171aa000580fffffffffffffffffffffffffffffffffffffffffffffffffffffffffffe839cfffffffffffffffffffffffffffffffffffffffffffffffffffffffffffe83d8000000000000000000000000000000000000000000006a2c3cc461fe8affd47100000000000000000000000000000000000000000000000000000000000000a000000000000000000000000000000000000000000000000000000000000000400000000000000000000000001ae3929e1975043e5443868be91cac12d8cc25ec0000000000000000000000001ae3929e1975043e5443868be91cac12d8cc25ec",
                    "decodedMethod": {
                        "callParams": [
                            {
                                "name": "recipient",
                                "type": "address",
                                "value": "0xf169bd68ed72b2fdc3c9234833197171aa000580"
                            },
                            {
                                "name": "tickLower",
                                "type": "int24",
                                "value": "-97,380"
                            },
                            {
                                "name": "tickUpper",
                                "type": "int24",
                                "value": "-97,320"
                            },
                            {
                                "name": "amount",
                                "type": "uint128",
                                "value": "501,386,882,655,909,205,496,945"
                            },
                            {
                                "name": "data",
                                "type": "bytes",
                                "value": "0x0000000000000000000000001ae3929e1975043e5443868be91cac12d8cc25ec0000000000000000000000001ae3929e1975043e5443868be91cac12d8cc25ec"
                            }
                        ],
                        "constructorArguments": "",
                        "name": "mint",
                        "returnParams": [
                            {
                                "name": "amount0",
                                "type": "uint256",
                                "value": "10"
                            },
                            {
                                "name": "amount1",
                                "type": "uint256",
                                "value": "11"
                            }
                        ],
                        "signature": "mint(address,int24,int24,uint128,bytes)"
                    },
                    "errorInfo": "",
                    "fromAddress": "0xf169bd68ed72b2fdc3c9234833197171aa000580",
                    "gasUsed": 59184,
                    "id": 5,
                    "methodDecoded": true,
                    "operation": "CALL",
                    "output": "0x000000000000000000000000000000000000000000000000000000000000000a000000000000000000000000000000000000000000000000000000000000000b",
                    "revert": false,
                    "revertMessage": "",
                    "selector": "0x3c8a7d8d",
                    "status": true,
                    "value": "0"
                },
                "nodeType": 0
            },
            "6": {
                "invocation": {
                    "address": "0x37fe0f067fa808ffbdd12891c0858532cfe7361d",
                    "callData": "0x000000000000000000000000512e9701d314b365921bcb3b8265658a152c9ffd",
                    "decodedMethod": {
                        "callParams": [
                            {
                                "name": "account",
                                "type": "address",
                                "value": "0x512e9701d314b365921bcb3b8265658a152c9ffd"
                            }
                        ],
                        "constructorArguments": "",
                        "name": "balanceOf",
                        "returnParams": [
                            {
                                "decimalAvailable": true,
                                "name": "",
                                "type": "uint256",
                                "value": "89,789,154,803,441,368,766,010"
                            }
                        ],
                        "signature": "balanceOf(address)"
                    },
                    "errorInfo": "",
                    "fromAddress": "0x1ae3929e1975043e5443868be91cac12d8cc25ec",
                    "gasUsed": 2863,
                    "id": 6,
                    "methodDecoded": true,
                    "operation": "CALL",
                    "output": "0x0000000000000000000000000000000000000000000013037ad67a66319f163a",
                    "revert": false,
                    "revertMessage": "",
                    "selector": "0x70a08231",
                    "status": true,
                    "value": "0"
                },
                "nodeType": 0
            },
            "7": {
                "invocation": {
                    "address": "0x37fe0f067fa808ffbdd12891c0858532cfe7361d",
                    "callData": "0x000000000000000000000000512e9701d314b365921bcb3b8265658a152c9ffd000000000000000000000000f169bd68ed72b2fdc3c9234833197171aa000580",
                    "decodedMethod": {
                        "callParams": [
                            {
                                "name": "owner",
                                "type": "address",
                                "value": "0x512e9701d314b365921bcb3b8265658a152c9ffd"
                            },
                            {
                                "name": "spender",
                                "type": "address",
                                "value": "0xf169bd68ed72b2fdc3c9234833197171aa000580"
                            }
                        ],
                        "constructorArguments": "",
                        "name": "allowance",
                        "returnParams": [
                            {
                                "decimalAvailable": true,
                                "name": "",
                                "type": "uint256",
                                "value": "115,792,089,237,316,195,423,570,985,008,687,907,853,269,984,665,640,563,939,457,584,007,913,129,639,935"
                            }
                        ],
                        "signature": "allowance(address,address)"
                    },
                    "errorInfo": "",
                    "fromAddress": "0x1ae3929e1975043e5443868be91cac12d8cc25ec",
                    "gasUsed": 3263,
                    "id": 7,
                    "methodDecoded": true,
                    "operation": "CALL",
                    "output": "0xffffffffffffffffffffffffffffffffffffffffffffead2fd381eb5097fffff",
                    "revert": false,
                    "revertMessage": "",
                    "selector": "0xdd62ed3e",
                    "status": true,
                    "value": "0"
                },
                "nodeType": 0
            },
            "8": {
                "invocation": {
                    "address": "0xf169bd68ed72b2fdc3c9234833197171aa000580",
                    "callData": "0x0000000000000000000000000000000000000000000013037ad67a66319f163a000000000000000000000000000000000000000000000000000000000000000000000000000000000000000000000000000000000000000000000000000000600000000000000000000000000000000000000000000000000000000000000040000000000000000000000000512e9701d314b365921bcb3b8265658a152c9ffd000000000000000000000000512e9701d314b365921bcb3b8265658a152c9ffd",
                    "decodedMethod": {
                        "callParams": [
                            {
                                "name": "amount0Owed",
                                "type": "uint256",
                                "value": "89,789,154,803,441,368,766,010"
                            },
                            {
                                "name": "amount1Owed",
                                "type": "uint256",
                                "value": "0"
                            },
                            {
                                "name": "data",
                                "type": "bytes",
                                "value": "0x000000000000000000000000512e9701d314b365921bcb3b8265658a152c9ffd000000000000000000000000512e9701d314b365921bcb3b8265658a152c9ffd"
                            }
                        ],
                        "constructorArguments": "",
                        "name": "uniswapV3MintCallback",
                        "returnParams": [],
                        "signature": "uniswapV3MintCallback(uint256,uint256,bytes)"
                    },
                    "errorInfo": "",
                    "fromAddress": "0x1ae3929e1975043e5443868be91cac12d8cc25ec",
                    "gasUsed": 43225,
                    "id": 8,
                    "methodDecoded": true,
                    "operation": "CALL",
                    "output": "",
                    "revert": false,
                    "revertMessage": "",
                    "selector": "0xd3487997",
                    "status": true,
                    "value": "0"
                },
                "nodeType": 0
            },
            "9": {
                "invocation": {
                    "address": "0x78bd317a87d2eab65b666e9402182a949ab4eeb9",
                    "callData": "0x0000000000000000000000000000000000000000000013037ad67a66319f163a000000000000000000000000000000000000000000000000000000000000000000000000000000000000000000000000000000000000000000000000000000600000000000000000000000000000000000000000000000000000000000000040000000000000000000000000512e9701d314b365921bcb3b8265658a152c9ffd000000000000000000000000512e9701d314b365921bcb3b8265658a152c9ffd",
                    "decodedMethod": {
                        "callParams": [
                            {
                                "name": "amount0Owed",
                                "type": "uint256",
                                "value": "89,789,154,803,441,368,766,010"
                            },
                            {
                                "name": "amount1Owed",
                                "type": "uint256",
                                "value": "0"
                            },
                            {
                                "name": "data",
                                "type": "bytes",
                                "value": "0x000000000000000000000000512e9701d314b365921bcb3b8265658a152c9ffd000000000000000000000000512e9701d314b365921bcb3b8265658a152c9ffd"
                            }
                        ],
                        "constructorArguments": "",
                        "name": "uniswapV3MintCallback",
                        "returnParams": [],
                        "signature": "uniswapV3MintCallback(uint256,uint256,bytes)"
                    },
                    "errorInfo": "",
                    "fromAddress": "0xf169bd68ed72b2fdc3c9234833197171aa000580",
                    "gasUsed": 42370,
                    "id": 9,
                    "methodDecoded": true,
                    "operation": "DELEGATECALL",
                    "output": "",
                    "revert": false,
                    "revertMessage": "",
                    "selector": "0xd3487997",
                    "status": true,
                    "value": "0"
                },
                "nodeType": 0
            }
        },
        "gasFlame": [
            {
                "children": [
                    {
                        "children": [
                            {
                                "children": [],
                                "depth": 0,
                                "name": "Initial Gas",
                                "value": 21800
                            },
                            {
                                "children": [
                                    {
                                        "children": [
                                            {
                                                "children": [
                                                    {
                                                        "children": [],
                                                        "depth": 3,
                                                        "name": "tickSpacing",
                                                        "value": 381
                                                    },
                                                    {
                                                        "children": [],
                                                        "depth": 3,
                                                        "name": "slot0",
                                                        "value": 1088
                                                    },
                                                    {
                                                        "children": [
                                                            {
                                                                "children": [],
                                                                "depth": 4,
                                                                "name": "balanceOf",
                                                                "value": 2863
                                                            },
                                                            {
                                                                "children": [],
                                                                "depth": 4,
                                                                "name": "allowance",
                                                                "value": 3263
                                                            },
                                                            {
                                                                "children": [
                                                                    {
                                                                        "children": [
                                                                            {
                                                                                "children": [],
                                                                                "depth": 6,
                                                                                "name": "token0",
                                                                                "value": 515
                                                                            },
                                                                            {
                                                                                "children": [],
                                                                                "depth": 6,
                                                                                "name": "token1",
                                                                                "value": 2580
                                                                            },
                                                                            {
                                                                                "children": [],
                                                                                "depth": 6,
                                                                                "name": "transferFrom",
                                                                                "value": 34792
                                                                            }
                                                                        ],
                                                                        "depth": 5,
                                                                        "name": "uniswapV3MintCallback",
                                                                        "value": 42370
                                                                    }
                                                                ],
                                                                "depth": 4,
                                                                "name": "uniswapV3MintCallback",
                                                                "value": 43225
                                                            }
                                                        ],
                                                        "depth": 3,
                                                        "name": "mint",
                                                        "value": 59184
                                                    }
                                                ],
                                                "depth": 2,
                                                "name": "0x7ca06d68",
                                                "value": 489796
                                            }
                                        ],
                                        "depth": 1,
                                        "name": "0x7ca06d68",
                                        "value": 497163
                                    }
                                ],
                                "depth": 0,
                                "name": "Executed Gas",
                                "value": 550199
                            }
                        ],
                        "depth": -1,
                        "name": "Actual Gas Used",
                        "value": 547299
                    },
                    {
                        "children": [],
                        "depth": -1,
                        "name": "Refunded Gas",
                        "value": 24700
                    }
                ],
                "depth": -2,
                "name": "Total Gas",
                "value": 571999
            }
        ],
        "isConfirmed": true,
        "mainTrace": [
            {
                "children": [
                    {
                        "children": [
                            {
                                "children": [
                                    {
                                        "children": [
                                            {
                                                "children": [],
                                                "depth": 3,
                                                "id": 3,
                                                "order": 3
                                            },
                                            {
                                                "children": [],
                                                "depth": 3,
                                                "id": 4,
                                                "order": 4
                                            },
                                            {
                                                "children": [
                                                    {
                                                        "children": [],
                                                        "depth": 4,
                                                        "id": 6,
                                                        "order": 6
                                                    },
                                                    {
                                                        "children": [],
                                                        "depth": 4,
                                                        "id": 7,
                                                        "order": 7
                                                    },
                                                    {
                                                        "children": [
                                                            {
                                                                "children": [
                                                                    {
                                                                        "children": [],
                                                                        "depth": 6,
                                                                        "id": 10,
                                                                        "order": 10
                                                                    },
                                                                    {
                                                                        "children": [],
                                                                        "depth": 6,
                                                                        "id": 11,
                                                                        "order": 11
                                                                    },
                                                                    {
                                                                        "children": [
                                                                            {
                                                                                "children": [],
                                                                                "depth": 7,
                                                                                "id": 13,
                                                                                "order": 13
                                                                            },
                                                                            {
                                                                                "children": [],
                                                                                "depth": 7,
                                                                                "id": 14,
                                                                                "order": 14
                                                                            }
                                                                        ],
                                                                        "depth": 6,
                                                                        "id": 12,
                                                                        "order": 12
                                                                    }
                                                                ],
                                                                "depth": 5,
                                                                "id": 9,
                                                                "order": 9
                                                            }
                                                        ],
                                                        "depth": 4,
                                                        "id": 8,
                                                        "order": 8
                                                    }
                                                ],
                                                "depth": 3,
                                                "id": 5,
                                                "order": 5
                                            },
                                            {
                                                "children": [],
                                                "depth": 3,
                                                "id": 15,
                                                "order": 15
                                            },
                                            {
                                                "children": [],
                                                "depth": 3,
                                                "id": 16,
                                                "order": 16
                                            }
                                        ],
                                        "depth": 2,
                                        "id": 2,
                                        "order": 2
                                    }
                                ],
                                "depth": 1,
                                "id": 1,
                                "order": 1
                            }
                        ],
                        "depth": 0,
                        "id": 0,
                        "order": 0
                    }
                ],
                "depth": -1,
                "id": -1,
                "order": -1
            }
        ],
        "mainTraceNodeCount": 17,
        "parentIdMap": {
            "0": -1,
            "1": 0,
            "10": 9,
            "11": 9,
            "12": 9,
            "13": 12,
            "14": 12,
            "15": 2,
            "16": 2,
            "2": 1,
            "3": 2,
            "4": 2,
            "5": 2,
            "6": 5,
            "7": 5,
            "8": 5,
            "9": 8
        },
        "tidyTrace": [
            {
                "children": [
                    {
                        "children": [
                            {
                                "children": [
                                    {
                                        "children": [
                                            {
                                                "children": [
                                                    {
                                                        "children": [],
                                                        "depth": 4,
                                                        "id": 6,
                                                        "order": 6
                                                    },
                                                    {
                                                        "children": [],
                                                        "depth": 4,
                                                        "id": 7,
                                                        "order": 7
                                                    },
                                                    {
                                                        "children": [
                                                            {
                                                                "children": [
                                                                    {
                                                                        "children": [
                                                                            {
                                                                                "children": [],
                                                                                "depth": 7,
                                                                                "id": 13,
                                                                                "order": 13
                                                                            },
                                                                            {
                                                                                "children": [],
                                                                                "depth": 7,
                                                                                "id": 14,
                                                                                "order": 14
                                                                            }
                                                                        ],
                                                                        "depth": 6,
                                                                        "id": 12,
                                                                        "order": 12
                                                                    }
                                                                ],
                                                                "depth": 5,
                                                                "id": 9,
                                                                "order": 9
                                                            }
                                                        ],
                                                        "depth": 4,
                                                        "id": 8,
                                                        "order": 8
                                                    }
                                                ],
                                                "depth": 3,
                                                "id": 5,
                                                "order": 5
                                            },
                                            {
                                                "children": [],
                                                "depth": 3,
                                                "id": 15,
                                                "order": 15
                                            },
                                            {
                                                "children": [],
                                                "depth": 3,
                                                "id": 16,
                                                "order": 16
                                            }
                                        ],
                                        "depth": 2,
                                        "id": 2,
                                        "order": 2
                                    }
                                ],
                                "depth": 1,
                                "id": 1,
                                "order": 1
                            }
                        ],
                        "depth": 0,
                        "id": 0,
                        "order": 0
                    }
                ],
                "depth": -1,
                "id": -1,
                "order": -1
            }
        ],
        "tidyTraceNodeCount": 13
    },
    "state_change": {
        "stateChanges": [
            {
                "address": "0x1ae3929e1975043e5443868be91cac12d8cc25ec",
                "erc": "",
                "slots": [
                    {
                        "current": "0x00000000000000000000000037fe0f067fa808ffbdd12891c0858532cfe7361d",
                        "key": "0x0000000000000000000000000000000000000000000000000000000000000002",
                        "prev": "0x0000000000000000000000000000000000000000000000000000000000000000"
                    },
                    {
                        "current": "0x000000000000000000000000512e9701d314b365921bcb3b8265658a152c9ffd",
                        "key": "0x0000000000000000000000000000000000000000000000000000000000000003",
                        "prev": "0x0000000000000000000000000000000000000000000000000000000000000000"
                    }
                ],
                "storageVariables": []
            },
            {
                "address": "0x37fe0f067fa808ffbdd12891c0858532cfe7361d",
                "erc": "ERC-20",
                "slots": [
                    {
                        "current": "0xffffffffffffffffffffffffffffffffffffffffffffd7cf8261a44ed7e0e9c5",
                        "key": "0x839aa5c6062c3037e64d682d543c8cd50c4071ecde400b47e604cafa9fb2b3ba",
                        "prev": "0xffffffffffffffffffffffffffffffffffffffffffffead2fd381eb5097fffff"
                    },
                    {
                        "current": "0x0000000000000000000000000000000000000000000000000000000000000000",
                        "key": "0xe746e20a49628a1e264010b856f56a5a82acdd389dec27ab5033f4103a49e578",
                        "prev": "0x0000000000000000000000000000000000000000000013037ad67a66319f163a"
                    },
                    {
                        "current": "0x0000000000000000000000000000000000000000000013037ad67a66319f163a",
                        "key": "0xf4beec5b09a2a1d4fd2bba8a14c8280d598359013f23fd3735f2c106ec729c66",
                        "prev": "0x0000000000000000000000000000000000000000000000000000000000000000"
                    }
                ],
                "storageVariables": [
                    {
                        "name": "_allowances",
                        "type": "mapping(address => mapping(address => uint256))",
                        "value": {
                            "pairs": [
                                {
                                    "key": "0x512e9701d314b365921bcb3b8265658a152c9ffd",
                                    "value": {
                                        "pairs": [
                                            {
                                                "key": "0xf169bd68ed72b2fdc3c9234833197171aa000580",
                                                "value": {
                                                    "current": "115792089237316195423570985008687907853269984665640563849668429204471760873925",
                                                    "prev": "115792089237316195423570985008687907853269984665640563939457584007913129639935",
                                                    "typeTag": 1
                                                }
                                            }
                                        ],
                                        "typeTag": 4
                                    }
                                }
                            ],
                            "typeTag": 4
                        }
                    },
                    {
                        "name": "_balances",
                        "type": "mapping(address => uint256)",
                        "value": {
                            "pairs": [
                                {
                                    "key": "0x1ae3929e1975043e5443868be91cac12d8cc25ec",
                                    "value": {
                                        "current": "89789154803441368766010",
                                        "prev": "0",
                                        "typeTag": 1
                                    }
                                },
                                {
                                    "key": "0x512e9701d314b365921bcb3b8265658a152c9ffd",
                                    "value": {
                                        "current": "0",
                                        "prev": "89789154803441368766010",
                                        "typeTag": 1
                                    }
                                }
                            ],
                            "typeTag": 4
                        }
                    }
                ]
            },
            {
                "address": "0xf169bd68ed72b2fdc3c9234833197171aa000580",
                "erc": "",
                "slots": [
                    {
                        "current": "0x68747470733a2f2f636c6f7564666c6172652d697066732e636f6d2f69706673",
                        "key": "0xc050ca3f2c96cf57b947b1347c6d47e7f0fad02bb7266f169d767200c1b889d8",
                        "prev": "0x0000000000000000000000000000000000000000000000000000000000000000"
                    },
                    {
                        "current": "0x000000000000000000000000000000000000000000000000000000000000000b",
                        "key": "0x5584c29a9185df152b885fdef10a7e37563cc5155636e3178d733a1c57cd8565",
                        "prev": "0x0000000000000000000000000000000000000000000000000000000000000000"
                    },
                    {
                        "current": "0x000000000000000000000000000000000000000000000000000000000000003d",
                        "key": "0x46501879b8ca8525e8c2fd519e2fbfcfa2ebea26501294aa02cbfcfb12e943ce",
                        "prev": "0x0000000000000000000000000000000000000000000000000000000000000000"
                    },
                    {
                        "current": "0x000000000000000000000000000000000000000000000000000000000000003e",
                        "key": "0x43a43490fb949f9b1d240a3219124d16bb2cf1ad396991a8b6d382e4f0e31f9b",
                        "prev": "0x0000000000000000000000000000000000000000000000000000000000000000"
                    },
                    {
                        "current": "0x000000000000000000000000000000000000000000000000000000000000009f",
                        "key": "0x81e8f1b046ad5429be3fddb5a5df6cce0ec52e6c5ffe0f21c2579796210cd03d",
                        "prev": "0x0000000000000000000000000000000000000000000000000000000000000000"
                    },
                    {
                        "current": "0x2f516d647056623231664d37566968556e523838314b48716b71317038335553",
                        "key": "0xc050ca3f2c96cf57b947b1347c6d47e7f0fad02bb7266f169d767200c1b889d9",
                        "prev": "0x0000000000000000000000000000000000000000000000000000000000000000"
                    },
                    {
                        "current": "0x0000000000000000000000000000000000000000000000000000000000000001",
                        "key": "0x626b7721dc8be5598354408c6a7d566831277966a5682f850e724b2d06d776ca",
                        "prev": "0x0000000000000000000000000000000000000000000000000000000000000000"
                    },
                    {
                        "current": "0x0000000000000000000000001ae3929e1975043e5443868be91cac12d8cc25ec",
                        "key": "0x5584c29a9185df152b885fdef10a7e37563cc5155636e3178d733a1c57cd8566",
                        "prev": "0x0000000000000000000000000000000000000000000000000000000000000000"
                    },
                    {
                        "current": "0x000000000105010000000000006a2c3cc461fe8affd471fe83d8fe839cfe8133",
                        "key": "0x8e2d78d989c35870d25aaa5f93c8f97f90595a24b93cb10551cc9ad9abddc814",
                        "prev": "0x0000000000000000000000000000000000000000000000000000000000000000"
                    },
                    {
                        "current": "0x0000000000000000000000000000000000000000000000000000000000000001",
                        "key": "0xdd4a8962f85d43cf7031e133e3cf57d9b9fec97cafce37f4944fbc9498bb4eb3",
                        "prev": "0x0000000000000000000000000000000000000000000000000000000000000000"
                    },
                    {
                        "current": "0x000000000000000000000000000000000000000000000000000000000000003e",
                        "key": "0x0000000000000000000000000000000000000000000000000000000000000066",
                        "prev": "0x000000000000000000000000000000000000000000000000000000000000003d"
                    },
                    {
                        "current": "0x0000000000000000000000001ae3929e1975043e5443868be91cac12d8cc25ec",
                        "key": "0x46501879b8ca8525e8c2fd519e2fbfcfa2ebea26501294aa02cbfcfb12e943cf",
                        "prev": "0x0000000000000000000000000000000000000000000000000000000000000000"
                    },
                    {
                        "current": "0x6341325634594e64545078627557770000000000000000000000000000000000",
                        "key": "0xc050ca3f2c96cf57b947b1347c6d47e7f0fad02bb7266f169d767200c1b889da",
                        "prev": "0x0000000000000000000000000000000000000000000000000000000000000000"
                    },
                    {
                        "current": "0x000000000000000000000000000000000000000000000000000000000000003d",
                        "key": "0x86dee4f12d07e6dd9fa650872ccd3fd55695262561ad2cb95a7a8052465e3fd7",
                        "prev": "0x0000000000000000000000000000000000000000000000000000000000000000"
                    },
                    {
                        "current": "0x0000000000000000000000000000000000000000000000000000000064a97dd3",
                        "key": "0x5584c29a9185df152b885fdef10a7e37563cc5155636e3178d733a1c57cd8567",
                        "prev": "0x0000000000000000000000000000000000000000000000000000000000000000"
                    },
                    {
                        "current": "0x302e303030303539000000000000000000000000000000000000000000000010",
                        "key": "0x5584c29a9185df152b885fdef10a7e37563cc5155636e3178d733a1c57cd8568",
                        "prev": "0x0000000000000000000000000000000000000000000000000000000000000000"
                    },
                    {
                        "current": "0x0000000000000000000000001ae3929e1975043e5443868be91cac12d8cc25ec",
                        "key": "0x5584c29a9185df152b885fdef10a7e37563cc5155636e3178d733a1c57cd8563",
                        "prev": "0x0000000000000000000000000000000000000000000000000000000000000000"
                    },
                    {
                        "current": "0x000000000000000000000000000000000000000000000000000000000000000a",
                        "key": "0x5584c29a9185df152b885fdef10a7e37563cc5155636e3178d733a1c57cd8564",
                        "prev": "0x0000000000000000000000000000000000000000000000000000000000000000"
                    }
                ],
                "storageVariables": []
            }
        ]
    }
}