{
    "balance_change": {
        "balanceChanges": [
            {
                "account": "0x1bf68a9d1eaee7826b3593c20a0ca93293cb489a",
                "assets": [
                    {
                        "address": "0xeeeeeeeeeeeeeeeeeeeeeeeeeeeeeeeeeeeeeeee",
                        "amount": "30.095",
                        "iconUrl": "https://assets.blocksec.com/image/1663669189317-3.png",
                        "isERC1155": false,
                        "isERC721": false,
                        "sign": false,
                        "value": "68676.489049999993426"
                    }
                ]
            },
            {
                "account": "0x27e2cc59a64d705a6c3d3d306186c2a55dcd5710",
                "assets": [
                    {
                        "address": "0xeeeeeeeeeeeeeeeeeeeeeeeeeeeeeeeeeeeeeeee",
                        "amount": "30.095",
                        "iconUrl": "https://assets.blocksec.com/image/1663669189317-3.png",
                        "isERC1155": false,
                        "isERC721": false,
                        "sign": true,
                        "value": "68676.489049999993426"
                    }
                ]
            }
        ]
    },
    "profile": {
        "basic_info": {
            "baseFee": "15.134316901",
            "blockNumber": 18907961,
            "callData": "0x2ac5ab1b000000000000000000000000b5680a55d627c52de992e3ea52a86f19da475399000000000000000000000000000000000000000000000000000000000000016000000000000000000000000000000000000000000000000000000000000001a000000000000000000000000027e2cc59a64d705a6c3d3d306186c2a55dcd5710000000000000000000000000000000000000000000000000000000000000000000000000000000000000000000000000000000000000000000000000000001e0000000000000000000000000000000000000000000000000000000000000024000000000000000000000000000000000000000000000000000000000000002c000000000000000000000000000000000000000000000000000000000000002e000000000000000000000000000000000000000000000000000000000000003e000000000000000000000000000000000000000000000000000000000000004e000000000000000000000000000000000000000000000000000000000000000054f5242495400000000000000000000000000000000000000000000000000000000000000000000000000000000000000000000000000000000000000000000149263e7873613ddc598a701709875634819176aff000000000000000000000000000000000000000000000000000000000000000000000000000000000000000250f408f4b0fb17bf4f5143de4bd95802410d00422f008e9deef06fb101a0f0606b508e8145b6a176e2e2bf015fb55b260690cfb80020346279a975cbd645416b0000000000000000000000000000000000000000000000000000000000000003000000000000000000000000000000000000000000000001a1a6eb0cc36180000000000000000000000000000000000000000000000000000000000000000012000000000000000000000000000000000000000000000000000000000000221700000000000000000000000000000000000000000000000000000000000000000000000000000000000000000000000000000000000000000000000000000007000000000000000000000000000000000000000000000000000000000000001b000000000000000000000000000000000000000000000000000000000000001b000000000000000000000000000000000000000000000000000000000000001c000000000000000000000000000000000000000000000000000000000000001b000000000000000000000000000000000000000000000000000000000000001c000000000000000000000000000000000000000000000000000000000000001c000000000000000000000000000000000000000000000000000000000000001c0000000000000000000000000000000000000000000000000000000000000007bd2ff5cae9a50a4db8ebeea4ed027791084705cfe76ea208f8927e6db3e168338fd767e11ca304274bd10061cdfdfb350924c3af8fbaec644637f35f07ac9a53d2f8850e093930ed43dce97839fe135b6b3ef1d4fe99e7b6d5aa149c7c05fb3c5881ecbc3f88a25e648d7aba1b2f819ea0510b8ef4f8de7ed24f4ed5903bed13f2be994083344ad5562a0a5d0f6569d8a314637ec4b31942c179b171a19eb7ced1587be93e8f0e7933df4fe0ff6ca6f84605c6c2d43d1c834ff88af9e97c38973a390e6de0d840c8d34230acc0b118c2e4adb6fb84b1bf295a87491273690d96000000000000000000000000000000000000000000000000000000000000000706d36db2bfd903532f22f717b79f24b0d8079939424c44c88d98d96479c5e90d7937864852e1f2a549c1962782a9188327e88b177d2a54d3dda38443126683501705d6c52c938bbe938a2d657f0ba3c8e1bc1e36eccfdab10f3737d6c444f27017e4428425d48ad04af83e991d6b1312f53d0f664993b2ecab9170e1bb7c62d57e52b7d36602862365b4c52dd196c26fc62467f3b4d15c597c412fbfd33575a81b46fbf17609d097da0e7df85239c2b0efc4dc8f614c875f9d1071440ebbc022693e2b44f4b0f6605499649803afc5d835d43dd8868160f0211fa0c916ffc9d6",
            "debugEnable": true,
            "errorInfo": "",
            "eventCount": 1,
            "feeRecipient": "0x95222290dd7278aa3ddd389cc1e1d165cc4bafe5",
            "formatValue": "0",
            "gasLimit": 162542,
            "gasPrice": "300",
            "gasUsed": 158695,
            "intTxnCount": 14,
            "internalRevert": false,
            "internalRevertMessage": "",
            "isContractCreation": false,
            "isFlashloan": false,
            "maxFee": "",
            "nonce": 64,
            "overwritedBlockNumber": -1,
            "priorityFee": "",
            "receiver": "0x1bf68a9d1eaee7826b3593c20a0ca93293cb489a",
            "revertMessage": "",
            "sender": "0x9263e7873613ddc598a701709875634819176aff",
            "simulationEnable": true,
            "sourceTxnHash": "0x958aeec58ea2f0f9700adda24e43fb76f9e052e4c20773f180c49d7529d95f16",
            "status": true,
            "timestamp": "2023-12-31T20:52:47Z",
            "transactionFee": "0.0476085",
            "txnHash": "0x958aeec58ea2f0f9700adda24e43fb76f9e052e4c20773f180c49d7529d95f16",
            "txnIndex": 21,
            "type": 0,
            "value": "0"
        },
        "fund_flow": [
            {
                "amount": "30.095",
                "from": "0x1bf68a9d1eaee7826b3593c20a0ca93293cb489a",
                "id": 1,
                "isERC1155": false,
                "isERC721": false,
                "isReverted": false,
                "order": 1,
                "to": "0x27e2cc59a64d705a6c3d3d306186c2a55dcd5710",
                "token": "0xeeeeeeeeeeeeeeeeeeeeeeeeeeeeeeeeeeeeeeee"
            }
        ],
        "token_infos": [
            {
                "address": "0xc02aaa39b223fe8d0a0e5c4f27ead9083c756cc2",
                "decimals": 18
            },
            {
                "address": "0xeeeeeeeeeeeeeeeeeeeeeeeeeeeeeeeeeeeeeeee",
                "decimals": 18
            }
        ]
    },
    "address_label": {
        "labels": [
            {
                "address": "0xeeeeeeeeeeeeeeeeeeeeeeeeeeeeeeeeeeeeeeee",
                "label": "Ether"
            },
            {
                "address": "0xc3430bc8c2c05fc6b42114bf7f82a3e2f3ee9454",
                "label": "EthVaultImpl"
            },
            {
                "address": "0x0000000000000000000000000000000000000000",
                "label": "Null Address"
            },
            {
                "address": "0x0000000000000000000000000000000000000002",
                "label": "Precompiled"
            },
            {
                "address": "0x1bf68a9d1eaee7826b3593c20a0ca93293cb489a",
                "label": "Orbit Chain: Bridge"
            },
            {
                "address": "0x9263e7873613ddc598a701709875634819176aff",
                "label": "Fake_Phishing270353"
            },
            {
                "address": "0x0000000000000000000000000000000000000001",
                "label": "Precompiled"
            },
            {
                "address": "0x0000000000000000000000000000000000000003",
                "label": "Precompiled"
            },
            {
                "address": "0x0000000000000000000000000000000000000004",
                "label": "Precompiled"
            }
        ]
    },
    "trace": {
        "accountLabels": null,
        "dataMap": {
            "-1": {
                "invocation": {
                    "address": "0x9263e7873613ddc598a701709875634819176aff",
                    "callData": "",
                    "decodedMethod": null,
                    "errorInfo": "",
                    "fromAddress": "",
                    "gasUsed": 0,
                    "id": -1,
                    "methodDecoded": false,
                    "operation": "",
                    "output": "",
                    "revert": false,
                    "revertMessage": "",
                    "selector": "",
                    "status": false,
                    "value": ""
                },
                "nodeType": 0
            },
            "0": {
                "invocation": {
                    "address": "0x1bf68a9d1eaee7826b3593c20a0ca93293cb489a",
                    "callData": "0x000000000000000000000000b5680a55d627c52de992e3ea52a86f19da475399000000000000000000000000000000000000000000000000000000000000016000000000000000000000000000000000000000000000000000000000000001a000000000000000000000000027e2cc59a64d705a6c3d3d306186c2a55dcd5710000000000000000000000000000000000000000000000000000000000000000000000000000000000000000000000000000000000000000000000000000001e0000000000000000000000000000000000000000000000000000000000000024000000000000000000000000000000000000000000000000000000000000002c000000000000000000000000000000000000000000000000000000000000002e000000000000000000000000000000000000000000000000000000000000003e000000000000000000000000000000000000000000000000000000000000004e000000000000000000000000000000000000000000000000000000000000000054f5242495400000000000000000000000000000000000000000000000000000000000000000000000000000000000000000000000000000000000000000000149263e7873613ddc598a701709875634819176aff000000000000000000000000000000000000000000000000000000000000000000000000000000000000000250f408f4b0fb17bf4f5143de4bd95802410d00422f008e9deef06fb101a0f0606b508e8145b6a176e2e2bf015fb55b260690cfb80020346279a975cbd645416b0000000000000000000000000000000000000000000000000000000000000003000000000000000000000000000000000000000000000001a1a6eb0cc36180000000000000000000000000000000000000000000000000000000000000000012000000000000000000000000000000000000000000000000000000000000221700000000000000000000000000000000000000000000000000000000000000000000000000000000000000000000000000000000000000000000000000000007000000000000000000000000000000000000000000000000000000000000001b000000000000000000000000000000000000000000000000000000000000001b000000000000000000000000000000000000000000000000000000000000001c000000000000000000000000000000000000000000000000000000000000001b000000000000000000000000000000000000000000000000000000000000001c000000000000000000000000000000000000000000000000000000000000001c000000000000000000000000000000000000000000000000000000000000001c0000000000000000000000000000000000000000000000000000000000000007bd2ff5cae9a50a4db8ebeea4ed027791084705cfe76ea208f8927e6db3e168338fd767e11ca304274bd10061cdfdfb350924c3af8fbaec644637f35f07ac9a53d2f8850e093930ed43dce97839fe135b6b3ef1d4fe99e7b6d5aa149c7c05fb3c5881ecbc3f88a25e648d7aba1b2f819ea0510b8ef4f8de7ed24f4ed5903bed13f2be994083344ad5562a0a5d0f6569d8a314637ec4b31942c179b171a19eb7ced1587be93e8f0e7933df4fe0ff6ca6f84605c6c2d43d1c834ff88af9e97c38973a390e6de0d840c8d34230acc0b118c2e4adb6fb84b1bf295a87491273690d96000000000000000000000000000000000000000000000000000000000000000706d36db2bfd903532f22f717b79f24b0d8079939424c44c88d98d96479c5e90d7937864852e1f2a549c1962782a9188327e88b177d2a54d3dda38443126683501705d6c52c938bbe938a2d657f0ba3c8e1bc1e36eccfdab10f3737d6c444f27017e4428425d48ad04af83e991d6b1312f53d0f664993b2ecab9170e1bb7c62d57e52b7d36602862365b4c52dd196c26fc62467f3b4d15c597c412fbfd33575a81b46fbf17609d097da0e7df85239c2b0efc4dc8f614c875f9d1071440ebbc022693e2b44f4b0f6605499649803afc5d835d43dd8868160f0211fa0c916ffc9d6",
                    "decodedMethod": {
                        "callParams": [
                            {
                                "name": "hubContract",
                                "type": "address",
                                "value": "0xb5680a55d627c52de992e3ea52a86f19da475399"
                            },
                            {
                                "name": "fromChain",
                                "type": "string",
                                "value": "ORBIT"
                            },
                            {
                                "name": "fromAddr",
                                "type": "bytes",
                                "value": "0x9263e7873613ddc598a701709875634819176aff"
                            },
                            {
                                "name": "toAddr",
                                "type": "address",
                                "value": "0x27e2cc59a64d705a6c3d3d306186c2a55dcd5710"
                            },
                            {
                                "name": "token",
                                "type": "address",
                                "value": "0x0000000000000000000000000000000000000000"
                            },
                            {
                                "name": "bytes32s",
                                "type": "bytes32[]",
                                "value": [
                                    "0x50f408f4b0fb17bf4f5143de4bd95802410d00422f008e9deef06fb101a0f060",
                                    "0x6b508e8145b6a176e2e2bf015fb55b260690cfb80020346279a975cbd645416b"
                                ]
                            },
                            {
                                "name": "uints",
                                "type": "uint256[]",
                                "value": [
                                    "30,095,000,000,000,000,000",
                                    "18",
                                    "8,727"
                                ]
                            },
                            {
                                "name": "data",
                                "type": "bytes",
                                "value": "0x"
                            },
                            {
                                "name": "v",
                                "type": "uint8[]",
                                "value": [
                                    "27",
                                    "27",
                                    "28",
                                    "27",
                                    "28",
                                    "28",
                                    "28"
                                ]
                            },
                            {
                                "name": "r",
                                "type": "bytes32[]",
                                "value": [
                                    "0xbd2ff5cae9a50a4db8ebeea4ed027791084705cfe76ea208f8927e6db3e16833",
                                    "0x8fd767e11ca304274bd10061cdfdfb350924c3af8fbaec644637f35f07ac9a53",
                                    "0xd2f8850e093930ed43dce97839fe135b6b3ef1d4fe99e7b6d5aa149c7c05fb3c",
                                    "0x5881ecbc3f88a25e648d7aba1b2f819ea0510b8ef4f8de7ed24f4ed5903bed13",
                                    "0xf2be994083344ad5562a0a5d0f6569d8a314637ec4b31942c179b171a19eb7ce",
                                    "0xd1587be93e8f0e7933df4fe0ff6ca6f84605c6c2d43d1c834ff88af9e97c3897",
                                    "0x3a390e6de0d840c8d34230acc0b118c2e4adb6fb84b1bf295a87491273690d96"
                                ]
                            },
                            {
                                "name": "s",
                                "type": "bytes32[]",
                                "value": [
                                    "0x06d36db2bfd903532f22f717b79f24b0d8079939424c44c88d98d96479c5e90d",
                                    "0x7937864852e1f2a549c1962782a9188327e88b177d2a54d3dda3844312668350",
                                    "0x1705d6c52c938bbe938a2d657f0ba3c8e1bc1e36eccfdab10f3737d6c444f270",
                                    "0x17e4428425d48ad04af83e991d6b1312f53d0f664993b2ecab9170e1bb7c62d5",
                                    "0x7e52b7d36602862365b4c52dd196c26fc62467f3b4d15c597c412fbfd33575a8",
                                    "0x1b46fbf17609d097da0e7df85239c2b0efc4dc8f614c875f9d1071440ebbc022",
                                    "0x693e2b44f4b0f6605499649803afc5d835d43dd8868160f0211fa0c916ffc9d6"
                                ]
                            }
                        ],
                        "constructorArguments": "",
                        "name": "withdraw",
                        "returnParams": [],
                        "signature": "withdraw(address,string,bytes,address,address,bytes32[],uint256[],bytes,uint8[],bytes32[],bytes32[])"
                    },
                    "errorInfo": "",
                    "fromAddress": "0x9263e7873613ddc598a701709875634819176aff",
                    "gasUsed": 158695,
                    "id": 0,
                    "methodDecoded": true,
                    "operation": "CALL",
                    "output": "",
                    "revert": false,
                    "revertMessage": "",
                    "selector": "0x2ac5ab1b",
                    "status": true,
                    "value": "0"
                },
                "nodeType": 0
            },
            "1": {
                "invocation": {
                    "address": "0xc3430bc8c2c05fc6b42114bf7f82a3e2f3ee9454",
                    "callData": "0x000000000000000000000000b5680a55d627c52de992e3ea52a86f19da475399000000000000000000000000000000000000000000000000000000000000016000000000000000000000000000000000000000000000000000000000000001a000000000000000000000000027e2cc59a64d705a6c3d3d306186c2a55dcd5710000000000000000000000000000000000000000000000000000000000000000000000000000000000000000000000000000000000000000000000000000001e0000000000000000000000000000000000000000000000000000000000000024000000000000000000000000000000000000000000000000000000000000002c000000000000000000000000000000000000000000000000000000000000002e000000000000000000000000000000000000000000000000000000000000003e000000000000000000000000000000000000000000000000000000000000004e000000000000000000000000000000000000000000000000000000000000000054f5242495400000000000000000000000000000000000000000000000000000000000000000000000000000000000000000000000000000000000000000000149263e7873613ddc598a701709875634819176aff000000000000000000000000000000000000000000000000000000000000000000000000000000000000000250f408f4b0fb17bf4f5143de4bd95802410d00422f008e9deef06fb101a0f0606b508e8145b6a176e2e2bf015fb55b260690cfb80020346279a975cbd645416b0000000000000000000000000000000000000000000000000000000000000003000000000000000000000000000000000000000000000001a1a6eb0cc36180000000000000000000000000000000000000000000000000000000000000000012000000000000000000000000000000000000000000000000000000000000221700000000000000000000000000000000000000000000000000000000000000000000000000000000000000000000000000000000000000000000000000000007000000000000000000000000000000000000000000000000000000000000001b000000000000000000000000000000000000000000000000000000000000001b000000000000000000000000000000000000000000000000000000000000001c000000000000000000000000000000000000000000000000000000000000001b000000000000000000000000000000000000000000000000000000000000001c000000000000000000000000000000000000000000000000000000000000001c000000000000000000000000000000000000000000000000000000000000001c0000000000000000000000000000000000000000000000000000000000000007bd2ff5cae9a50a4db8ebeea4ed027791084705cfe76ea208f8927e6db3e168338fd767e11ca304274bd10061cdfdfb350924c3af8fbaec644637f35f07ac9a53d2f8850e093930ed43dce97839fe135b6b3ef1d4fe99e7b6d5aa149c7c05fb3c5881ecbc3f88a25e648d7aba1b2f819ea0510b8ef4f8de7ed24f4ed5903bed13f2be994083344ad5562a0a5d0f6569d8a314637ec4b31942c179b171a19eb7ced1587be93e8f0e7933df4fe0ff6ca6f84605c6c2d43d1c834ff88af9e97c38973a390e6de0d840c8d34230acc0b118c2e4adb6fb84b1bf295a87491273690d96000000000000000000000000000000000000000000000000000000000000000706d36db2bfd903532f22f717b79f24b0d8079939424c44c88d98d96479c5e90d7937864852e1f2a549c1962782a9188327e88b177d2a54d3dda38443126683501705d6c52c938bbe938a2d657f0ba3c8e1bc1e36eccfdab10f3737d6c444f27017e4428425d48ad04af83e991d6b1312f53d0f664993b2ecab9170e1bb7c62d57e52b7d36602862365b4c52dd196c26fc62467f3b4d15c597c412fbfd33575a81b46fbf17609d097da0e7df85239c2b0efc4dc8f614c875f9d1071440ebbc022693e2b44f4b0f6605499649803afc5d835d43dd8868160f0211fa0c916ffc9d6",
                    "decodedMethod": {
                        "callParams": [
                            {
                                "name": "hubContract",
                                "type": "address",
                                "value": "0xb5680a55d627c52de992e3ea52a86f19da475399"
                            },
                            {
                                "name": "fromChain",
                                "type": "string",
                                "value": "ORBIT"
                            },
                            {
                                "name": "fromAddr",
                                "type": "bytes",
                                "value": "0x9263e7873613ddc598a701709875634819176aff"
                            },
                            {
                                "name": "toAddr",
                                "type": "address",
                                "value": "0x27e2cc59a64d705a6c3d3d306186c2a55dcd5710"
                            },
                            {
                                "name": "token",
                                "type": "address",
                                "value": "0x0000000000000000000000000000000000000000"
                            },
                            {
                                "name": "bytes32s",
                                "type": "bytes32[]",
                                "value": [
                                    "0x50f408f4b0fb17bf4f5143de4bd95802410d00422f008e9deef06fb101a0f060",
                                    "0x6b508e8145b6a176e2e2bf015fb55b260690cfb80020346279a975cbd645416b"
                                ]
                            },
                            {
                                "name": "uints",
                                "type": "uint256[]",
                                "value": [
                                    "30,095,000,000,000,000,000",
                                    "18",
                                    "8,727"
                                ]
                            },
                            {
                                "name": "data",
                                "type": "bytes",
                                "value": "0x"
                            },
                            {
                                "name": "v",
                                "type": "uint8[]",
                                "value": [
                                    "27",
                                    "27",
                                    "28",
                                    "27",
                                    "28",
                                    "28",
                                    "28"
                                ]
                            },
                            {
                                "name": "r",
                                "type": "bytes32[]",
                                "value": [
                                    "0xbd2ff5cae9a50a4db8ebeea4ed027791084705cfe76ea208f8927e6db3e16833",
                                    "0x8fd767e11ca304274bd10061cdfdfb350924c3af8fbaec644637f35f07ac9a53",
                                    "0xd2f8850e093930ed43dce97839fe135b6b3ef1d4fe99e7b6d5aa149c7c05fb3c",
                                    "0x5881ecbc3f88a25e648d7aba1b2f819ea0510b8ef4f8de7ed24f4ed5903bed13",
                                    "0xf2be994083344ad5562a0a5d0f6569d8a314637ec4b31942c179b171a19eb7ce",
                                    "0xd1587be93e8f0e7933df4fe0ff6ca6f84605c6c2d43d1c834ff88af9e97c3897",
                                    "0x3a390e6de0d840c8d34230acc0b118c2e4adb6fb84b1bf295a87491273690d96"
                                ]
                            },
                            {
                                "name": "s",
                                "type": "bytes32[]",
                                "value": [
                                    "0x06d36db2bfd903532f22f717b79f24b0d8079939424c44c88d98d96479c5e90d",
                                    "0x7937864852e1f2a549c1962782a9188327e88b177d2a54d3dda3844312668350",
                                    "0x1705d6c52c938bbe938a2d657f0ba3c8e1bc1e36eccfdab10f3737d6c444f270",
                                    "0x17e4428425d48ad04af83e991d6b1312f53d0f664993b2ecab9170e1bb7c62d5",
                                    "0x7e52b7d36602862365b4c52dd196c26fc62467f3b4d15c597c412fbfd33575a8",
                                    "0x1b46fbf17609d097da0e7df85239c2b0efc4dc8f614c875f9d1071440ebbc022",
                                    "0x693e2b44f4b0f6605499649803afc5d835d43dd8868160f0211fa0c916ffc9d6"
                                ]
                            }
                        ],
                        "constructorArguments": "",
                        "name": "withdraw",
                        "returnParams": [],
                        "signature": "withdraw(address,string,bytes,address,address,bytes32[],uint256[],bytes,uint8[],bytes32[],bytes32[])"
                    },
                    "errorInfo": "",
                    "fromAddress": "0x1bf68a9d1eaee7826b3593c20a0ca93293cb489a",
                    "gasUsed": 118300,
                    "id": 1,
                    "methodDecoded": true,
                    "operation": "DELEGATECALL",
                    "output": "",
                    "revert": false,
                    "revertMessage": "",
                    "selector": "0x2ac5ab1b",
                    "status": true,
                    "value": "0"
                },
                "nodeType": 0
            },
            "10": {
                "invocation": {
                    "address": "0x0000000000000000000000000000000000000001",
                    "callData": "0x2253e5c470a3e29697520415621c19b7fc50cf6df6fdc751c0a32a3c000000000000000000000000000000000000000000000000000000000000001b5881ecbc3f88a25e648d7aba1b2f819ea0510b8ef4f8de7ed24f4ed5903bed1317e4428425d48ad04af83e991d6b1312f53d0f664993b2ecab9170e1bb7c62d5",
                    "decodedMethod": {
                        "callParams": [
                            {
                                "name": "hash",
                                "type": "bytes32",
                                "value": "0xbe1d9b292253e5c470a3e29697520415621c19b7fc50cf6df6fdc751c0a32a3c"
                            },
                            {
                                "name": "v",
                                "type": "uint256",
                                "value": "27"
                            },
                            {
                                "name": "r",
                                "type": "bytes32",
                                "value": "0x5881ecbc3f88a25e648d7aba1b2f819ea0510b8ef4f8de7ed24f4ed5903bed13"
                            },
                            {
                                "name": "s",
                                "type": "bytes32",
                                "value": "0x17e4428425d48ad04af83e991d6b1312f53d0f664993b2ecab9170e1bb7c62d5"
                            }
                        ],
                        "constructorArguments": "",
                        "name": "ecrecover",
                        "returnParams": [
                            {
                                "name": "",
                                "type": "address",
                                "value": "0xa6dc28cbcb2f8060a00b4fa67f9b67775ac5a3a1"
                            }
                        ],
                        "signature": "ecrecover(bytes32,uint256,bytes32,bytes32)"
                    },
                    "errorInfo": "",
                    "fromAddress": "0x1bf68a9d1eaee7826b3593c20a0ca93293cb489a",
                    "gasUsed": 3000,
                    "id": 10,
                    "methodDecoded": true,
                    "operation": "STATICCALL",
                    "output": "0x000000000000000000000000a6dc28cbcb2f8060a00b4fa67f9b67775ac5a3a1",
                    "revert": false,
                    "revertMessage": "",
                    "selector": "0xbe1d9b29",
                    "status": true,
                    "value": "0"
                },
                "nodeType": 0
            },
            "11": {
                "invocation": {
                    "address": "0x0000000000000000000000000000000000000001",
                    "callData": "0x2253e5c470a3e29697520415621c19b7fc50cf6df6fdc751c0a32a3c000000000000000000000000000000000000000000000000000000000000001cf2be994083344ad5562a0a5d0f6569d8a314637ec4b31942c179b171a19eb7ce7e52b7d36602862365b4c52dd196c26fc62467f3b4d15c597c412fbfd33575a8",
                    "decodedMethod": {
                        "callParams": [
                            {
                                "name": "hash",
                                "type": "bytes32",
                                "value": "0xbe1d9b292253e5c470a3e29697520415621c19b7fc50cf6df6fdc751c0a32a3c"
                            },
                            {
                                "name": "v",
                                "type": "uint256",
                                "value": "28"
                            },
                            {
                                "name": "r",
                                "type": "bytes32",
                                "value": "0xf2be994083344ad5562a0a5d0f6569d8a314637ec4b31942c179b171a19eb7ce"
                            },
                            {
                                "name": "s",
                                "type": "bytes32",
                                "value": "0x7e52b7d36602862365b4c52dd196c26fc62467f3b4d15c597c412fbfd33575a8"
                            }
                        ],
                        "constructorArguments": "",
                        "name": "ecrecover",
                        "returnParams": [
                            {
                                "name": "",
                                "type": "address",
                                "value": "0x6013f0b3ffe1ffdca3fc6a8cd705b1af048f7437"
                            }
                        ],
                        "signature": "ecrecover(bytes32,uint256,bytes32,bytes32)"
                    },
                    "errorInfo": "",
                    "fromAddress": "0x1bf68a9d1eaee7826b3593c20a0ca93293cb489a",
                    "gasUsed": 3000,
                    "id": 11,
                    "methodDecoded": true,
                    "operation": "STATICCALL",
                    "output": "0x0000000000000000000000006013f0b3ffe1ffdca3fc6a8cd705b1af048f7437",
                    "revert": false,
                    "revertMessage": "",
                    "selector": "0xbe1d9b29",
                    "status": true,
                    "value": "0"
                },
                "nodeType": 0
            },
            "12": {
                "invocation": {
                    "address": "0x0000000000000000000000000000000000000001",
                    "callData": "0x2253e5c470a3e29697520415621c19b7fc50cf6df6fdc751c0a32a3c000000000000000000000000000000000000000000000000000000000000001cd1587be93e8f0e7933df4fe0ff6ca6f84605c6c2d43d1c834ff88af9e97c38971b46fbf17609d097da0e7df85239c2b0efc4dc8f614c875f9d1071440ebbc022",
                    "decodedMethod": {
                        "callParams": [
                            {
                                "name": "hash",
                                "type": "bytes32",
                                "value": "0xbe1d9b292253e5c470a3e29697520415621c19b7fc50cf6df6fdc751c0a32a3c"
                            },
                            {
                                "name": "v",
                                "type": "uint256",
                                "value": "28"
                            },
                            {
                                "name": "r",
                                "type": "bytes32",
                                "value": "0xd1587be93e8f0e7933df4fe0ff6ca6f84605c6c2d43d1c834ff88af9e97c3897"
                            },
                            {
                                "name": "s",
                                "type": "bytes32",
                                "value": "0x1b46fbf17609d097da0e7df85239c2b0efc4dc8f614c875f9d1071440ebbc022"
                            }
                        ],
                        "constructorArguments": "",
                        "name": "ecrecover",
                        "returnParams": [
                            {
                                "name": "",
                                "type": "address",
                                "value": "0x3924ac70075078a7713f543b72e3f8817ecec646"
                            }
                        ],
                        "signature": "ecrecover(bytes32,uint256,bytes32,bytes32)"
                    },
                    "errorInfo": "",
                    "fromAddress": "0x1bf68a9d1eaee7826b3593c20a0ca93293cb489a",
                    "gasUsed": 3000,
                    "id": 12,
                    "methodDecoded": true,
                    "operation": "STATICCALL",
                    "output": "0x0000000000000000000000003924ac70075078a7713f543b72e3f8817ecec646",
                    "revert": false,
                    "revertMessage": "",
                    "selector": "0xbe1d9b29",
                    "status": true,
                    "value": "0"
                },
                "nodeType": 0
            },
            "13": {
                "invocation": {
                    "address": "0x0000000000000000000000000000000000000001",
                    "callData": "0x2253e5c470a3e29697520415621c19b7fc50cf6df6fdc751c0a32a3c000000000000000000000000000000000000000000000000000000000000001c3a390e6de0d840c8d34230acc0b118c2e4adb6fb84b1bf295a87491273690d96693e2b44f4b0f6605499649803afc5d835d43dd8868160f0211fa0c916ffc9d6",
                    "decodedMethod": {
                        "callParams": [
                            {
                                "name": "hash",
                                "type": "bytes32",
                                "value": "0xbe1d9b292253e5c470a3e29697520415621c19b7fc50cf6df6fdc751c0a32a3c"
                            },
                            {
                                "name": "v",
                                "type": "uint256",
                                "value": "28"
                            },
                            {
                                "name": "r",
                                "type": "bytes32",
                                "value": "0x3a390e6de0d840c8d34230acc0b118c2e4adb6fb84b1bf295a87491273690d96"
                            },
                            {
                                "name": "s",
                                "type": "bytes32",
                                "value": "0x693e2b44f4b0f6605499649803afc5d835d43dd8868160f0211fa0c916ffc9d6"
                            }
                        ],
                        "constructorArguments": "",
                        "name": "ecrecover",
                        "returnParams": [
                            {
                                "name": "",
                                "type": "address",
                                "value": "0x1c0cd56f1c3e2cf13b9b44dbe5529104bade543e"
                            }
                        ],
                        "signature": "ecrecover(bytes32,uint256,bytes32,bytes32)"
                    },
                    "errorInfo": "",
                    "fromAddress": "0x1bf68a9d1eaee7826b3593c20a0ca93293cb489a",
                    "gasUsed": 3000,
                    "id": 13,
                    "methodDecoded": true,
                    "operation": "STATICCALL",
                    "output": "0x0000000000000000000000001c0cd56f1c3e2cf13b9b44dbe5529104bade543e",
                    "revert": false,
                    "revertMessage": "",
                    "selector": "0xbe1d9b29",
                    "status": true,
                    "value": "0"
                },
                "nodeType": 0
            },
            "14": {
                "event": {
                    "contract": "0x1bf68a9d1eaee7826b3593c20a0ca93293cb489a",
                    "decodedLog": {
                        "name": "Withdraw",
                        "params": [
                            {
                                "name": "fromChain",
                                "type": "string",
                                "value": "ORBIT"
                            },
                            {
                                "name": "fromAddr",
                                "type": "bytes",
                                "value": "0x9263e7873613ddc598a701709875634819176aff"
                            },
                            {
                                "name": "toAddr",
                                "type": "bytes",
                                "value": "0x27e2cc59a64d705a6c3d3d306186c2a55dcd5710"
                            },
                            {
                                "name": "token",
                                "type": "bytes",
                                "value": "0x0000000000000000000000000000000000000000"
                            },
                            {
                                "name": "bytes32s",
                                "type": "bytes32[]",
                                "value": [
                                    "0x50f408f4b0fb17bf4f5143de4bd95802410d00422f008e9deef06fb101a0f060",
                                    "0x6b508e8145b6a176e2e2bf015fb55b260690cfb80020346279a975cbd645416b"
                                ]
                            },
                            {
                                "name": "uints",
                                "type": "uint256[]",
                                "value": [
                                    "30,095,000,000,000,000,000",
                                    "18",
                                    "8,727"
                                ]
                            },
                            {
                                "name": "data",
                                "type": "bytes",
                                "value": "0x"
                            }
                        ],
                        "signature": "Withdraw(string,bytes,bytes,bytes,bytes32[],uint256[],bytes)"
                    },
                    "id": 14,
                    "logData": "0x00000000000000000000000000000000000000000000000000000000000000e00000000000000000000000000000000000000000000000000000000000000120000000000000000000000000000000000000000000000000000000000000016000000000000000000000000000000000000000000000000000000000000001a000000000000000000000000000000000000000000000000000000000000001e0000000000000000000000000000000000000000000000000000000000000024000000000000000000000000000000000000000000000000000000000000002c000000000000000000000000000000000000000000000000000000000000000054f5242495400000000000000000000000000000000000000000000000000000000000000000000000000000000000000000000000000000000000000000000149263e7873613ddc598a701709875634819176aff000000000000000000000000000000000000000000000000000000000000000000000000000000000000001427e2cc59a64d705a6c3d3d306186c2a55dcd571000000000000000000000000000000000000000000000000000000000000000000000000000000000000000140000000000000000000000000000000000000000000000000000000000000000000000000000000000000000000000000000000000000000000000000000000250f408f4b0fb17bf4f5143de4bd95802410d00422f008e9deef06fb101a0f0606b508e8145b6a176e2e2bf015fb55b260690cfb80020346279a975cbd645416b0000000000000000000000000000000000000000000000000000000000000003000000000000000000000000000000000000000000000001a1a6eb0cc3618000000000000000000000000000000000000000000000000000000000000000001200000000000000000000000000000000000000000000000000000000000022170000000000000000000000000000000000000000000000000000000000000000",
                    "logDecoded": true,
                    "operation": "EVENT",
                    "revert": false,
                    "status": true,
                    "topics": [
                        "0xa866edf1861d39a9973d7892f3869e1bb4b76bc00d216872c1dd2bc547f2da2e"
                    ]
                },
                "nodeType": 1
            },
            "15": {
                "invocation": {
                    "address": "0x27e2cc59a64d705a6c3d3d306186c2a55dcd5710",
                    "callData": "0x",
                    "decodedMethod": null,
                    "errorInfo": "",
                    "fromAddress": "0x1bf68a9d1eaee7826b3593c20a0ca93293cb489a",
                    "gasUsed": 0,
                    "id": 15,
                    "methodDecoded": false,
                    "operation": "CALL",
                    "output": "",
                    "revert": false,
                    "revertMessage": "",
                    "selector": "fallback",
                    "status": true,
                    "value": "30.095"
                },
                "nodeType": 0
            },
            "2": {
                "invocation": {
                    "address": "0x0000000000000000000000000000000000000002",
                    "callData": "0x1eaee7826b3593c20a0ca93293cb489a4f52424954",
                    "decodedMethod": {
                        "callParams": [
                            {
                                "name": "data",
                                "type": "bytes",
                                "value": "0x1bf68a9d1eaee7826b3593c20a0ca93293cb489a4f52424954"
                            }
                        ],
                        "constructorArguments": "",
                        "name": "sha256hash",
                        "returnParams": [
                            {
                                "name": "hash",
                                "type": "bytes32",
                                "value": "0xb18557931ff79edd3f4f9f4679b4538562f57b62aadb370d1b78a81df9dd56bb"
                            }
                        ],
                        "signature": "sha256hash(bytes)"
                    },
                    "errorInfo": "",
                    "fromAddress": "0x1bf68a9d1eaee7826b3593c20a0ca93293cb489a",
                    "gasUsed": 72,
                    "id": 2,
                    "methodDecoded": true,
                    "operation": "STATICCALL",
                    "output": "0xb18557931ff79edd3f4f9f4679b4538562f57b62aadb370d1b78a81df9dd56bb",
                    "revert": false,
                    "revertMessage": "",
                    "selector": "0x1bf68a9d",
                    "status": true,
                    "value": "0"
                },
                "nodeType": 0
            },
            "3": {
                "invocation": {
                    "address": "0x0000000000000000000000000000000000000002",
                    "callData": "0x1eaee7826b3593c20a0ca93293cb489a4f52424954",
                    "decodedMethod": {
                        "callParams": [
                            {
                                "name": "data",
                                "type": "bytes",
                                "value": "0x1bf68a9d1eaee7826b3593c20a0ca93293cb489a4f52424954"
                            }
                        ],
                        "constructorArguments": "",
                        "name": "sha256hash",
                        "returnParams": [
                            {
                                "name": "hash",
                                "type": "bytes32",
                                "value": "0xb18557931ff79edd3f4f9f4679b4538562f57b62aadb370d1b78a81df9dd56bb"
                            }
                        ],
                        "signature": "sha256hash(bytes)"
                    },
                    "errorInfo": "",
                    "fromAddress": "0x1bf68a9d1eaee7826b3593c20a0ca93293cb489a",
                    "gasUsed": 72,
                    "id": 3,
                    "methodDecoded": true,
                    "operation": "STATICCALL",
                    "output": "0xb18557931ff79edd3f4f9f4679b4538562f57b62aadb370d1b78a81df9dd56bb",
                    "revert": false,
                    "revertMessage": "",
                    "selector": "0x1bf68a9d",
                    "status": true,
                    "value": "0"
                },
                "nodeType": 0
            },
            "4": {
                "invocation": {
                    "address": "0x0000000000000000000000000000000000000002",
                    "callData": "0xd627c52de992e3ea52a86f19da4753994554481bf68a9d1eaee7826b3593c20a0ca93293cb489a",
                    "decodedMethod": {
                        "callParams": [
                            {
                                "name": "data",
                                "type": "bytes",
                                "value": "0xb5680a55d627c52de992e3ea52a86f19da4753994554481bf68a9d1eaee7826b3593c20a0ca93293cb489a"
                            }
                        ],
                        "constructorArguments": "",
                        "name": "sha256hash",
                        "returnParams": [
                            {
                                "name": "hash",
                                "type": "bytes32",
                                "value": "0x50f408f4b0fb17bf4f5143de4bd95802410d00422f008e9deef06fb101a0f060"
                            }
                        ],
                        "signature": "sha256hash(bytes)"
                    },
                    "errorInfo": "",
                    "fromAddress": "0x1bf68a9d1eaee7826b3593c20a0ca93293cb489a",
                    "gasUsed": 84,
                    "id": 4,
                    "methodDecoded": true,
                    "operation": "STATICCALL",
                    "output": "0x50f408f4b0fb17bf4f5143de4bd95802410d00422f008e9deef06fb101a0f060",
                    "revert": false,
                    "revertMessage": "",
                    "selector": "0xb5680a55",
                    "status": true,
                    "value": "0"
                },
                "nodeType": 0
            },
            "5": {
                "invocation": {
                    "address": "0x0000000000000000000000000000000000000002",
                    "callData": "0x1eaee7826b3593c20a0ca93293cb489a4f52424954",
                    "decodedMethod": {
                        "callParams": [
                            {
                                "name": "data",
                                "type": "bytes",
                                "value": "0x1bf68a9d1eaee7826b3593c20a0ca93293cb489a4f52424954"
                            }
                        ],
                        "constructorArguments": "",
                        "name": "sha256hash",
                        "returnParams": [
                            {
                                "name": "hash",
                                "type": "bytes32",
                                "value": "0xb18557931ff79edd3f4f9f4679b4538562f57b62aadb370d1b78a81df9dd56bb"
                            }
                        ],
                        "signature": "sha256hash(bytes)"
                    },
                    "errorInfo": "",
                    "fromAddress": "0x1bf68a9d1eaee7826b3593c20a0ca93293cb489a",
                    "gasUsed": 72,
                    "id": 5,
                    "methodDecoded": true,
                    "operation": "STATICCALL",
                    "output": "0xb18557931ff79edd3f4f9f4679b4538562f57b62aadb370d1b78a81df9dd56bb",
                    "revert": false,
                    "revertMessage": "",
                    "selector": "0x1bf68a9d",
                    "status": true,
                    "value": "0"
                },
                "nodeType": 0
            },
            "6": {
                "invocation": {
                    "address": "0x0000000000000000000000000000000000000002",
                    "callData": "0xd627c52de992e3ea52a86f19da4753994f524249544554489263e7873613ddc598a701709875634819176aff27e2cc59a64d705a6c3d3d306186c2a55dcd5710000000000000000000000000000000000000000050f408f4b0fb17bf4f5143de4bd95802410d00422f008e9deef06fb101a0f0606b508e8145b6a176e2e2bf015fb55b260690cfb80020346279a975cbd645416b000000000000000000000000000000000000000000000001a1a6eb0cc361800000000000000000000000000000000000000000000000000000000000000000120000000000000000000000000000000000000000000000000000000000002217",
                    "decodedMethod": {
                        "callParams": [
                            {
                                "name": "data",
                                "type": "bytes",
                                "value": "0xb5680a55d627c52de992e3ea52a86f19da4753994f524249544554489263e7873613ddc598a701709875634819176aff27e2cc59a64d705a6c3d3d306186c2a55dcd5710000000000000000000000000000000000000000050f408f4b0fb17bf4f5143de4bd95802410d00422f008e9deef06fb101a0f0606b508e8145b6a176e2e2bf015fb55b260690cfb80020346279a975cbd645416b000000000000000000000000000000000000000000000001a1a6eb0cc361800000000000000000000000000000000000000000000000000000000000000000120000000000000000000000000000000000000000000000000000000000002217"
                            }
                        ],
                        "constructorArguments": "",
                        "name": "sha256hash",
                        "returnParams": [
                            {
                                "name": "hash",
                                "type": "bytes32",
                                "value": "0xbe1d9b292253e5c470a3e29697520415621c19b7fc50cf6df6fdc751c0a32a3c"
                            }
                        ],
                        "signature": "sha256hash(bytes)"
                    },
                    "errorInfo": "",
                    "fromAddress": "0x1bf68a9d1eaee7826b3593c20a0ca93293cb489a",
                    "gasUsed": 156,
                    "id": 6,
                    "methodDecoded": true,
                    "operation": "STATICCALL",
                    "output": "0xbe1d9b292253e5c470a3e29697520415621c19b7fc50cf6df6fdc751c0a32a3c",
                    "revert": false,
                    "revertMessage": "",
                    "selector": "0xb5680a55",
                    "status": true,
                    "value": "0"
                },
                "nodeType": 0
            },
            "7": {
                "invocation": {
                    "address": "0x0000000000000000000000000000000000000001",
                    "callData": "0x2253e5c470a3e29697520415621c19b7fc50cf6df6fdc751c0a32a3c000000000000000000000000000000000000000000000000000000000000001bbd2ff5cae9a50a4db8ebeea4ed027791084705cfe76ea208f8927e6db3e1683306d36db2bfd903532f22f717b79f24b0d8079939424c44c88d98d96479c5e90d",
                    "decodedMethod": {
                        "callParams": [
                            {
                                "name": "hash",
                                "type": "bytes32",
                                "value": "0xbe1d9b292253e5c470a3e29697520415621c19b7fc50cf6df6fdc751c0a32a3c"
                            },
                            {
                                "name": "v",
                                "type": "uint256",
                                "value": "27"
                            },
                            {
                                "name": "r",
                                "type": "bytes32",
                                "value": "0xbd2ff5cae9a50a4db8ebeea4ed027791084705cfe76ea208f8927e6db3e16833"
                            },
                            {
                                "name": "s",
                                "type": "bytes32",
                                "value": "0x06d36db2bfd903532f22f717b79f24b0d8079939424c44c88d98d96479c5e90d"
                            }
                        ],
                        "constructorArguments": "",
                        "name": "ecrecover",
                        "returnParams": [
                            {
                                "name": "",
                                "type": "address",
                                "value": "0x67c3c784c49d9ab8757adb71491df1a1b38fbfa8"
                            }
                        ],
                        "signature": "ecrecover(bytes32,uint256,bytes32,bytes32)"
                    },
                    "errorInfo": "",
                    "fromAddress": "0x1bf68a9d1eaee7826b3593c20a0ca93293cb489a",
                    "gasUsed": 3000,
                    "id": 7,
                    "methodDecoded": true,
                    "operation": "STATICCALL",
                    "output": "0x00000000000000000000000067c3c784c49d9ab8757adb71491df1a1b38fbfa8",
                    "revert": false,
                    "revertMessage": "",
                    "selector": "0xbe1d9b29",
                    "status": true,
                    "value": "0"
                },
                "nodeType": 0
            },
            "8": {
                "invocation": {
                    "address": "0x0000000000000000000000000000000000000001",
                    "callData": "0x2253e5c470a3e29697520415621c19b7fc50cf6df6fdc751c0a32a3c000000000000000000000000000000000000000000000000000000000000001b8fd767e11ca304274bd10061cdfdfb350924c3af8fbaec644637f35f07ac9a537937864852e1f2a549c1962782a9188327e88b177d2a54d3dda3844312668350",
                    "decodedMethod": {
                        "callParams": [
                            {
                                "name": "hash",
                                "type": "bytes32",
                                "value": "0xbe1d9b292253e5c470a3e29697520415621c19b7fc50cf6df6fdc751c0a32a3c"
                            },
                            {
                                "name": "v",
                                "type": "uint256",
                                "value": "27"
                            },
                            {
                                "name": "r",
                                "type": "bytes32",
                                "value": "0x8fd767e11ca304274bd10061cdfdfb350924c3af8fbaec644637f35f07ac9a53"
                            },
                            {
                                "name": "s",
                                "type": "bytes32",
                                "value": "0x7937864852e1f2a549c1962782a9188327e88b177d2a54d3dda3844312668350"
                            }
                        ],
                        "constructorArguments": "",
                        "name": "ecrecover",
                        "returnParams": [
                            {
                                "name": "",
                                "type": "address",
                                "value": "0x7f4b332611818ae13c76f9222e2229f274ded9bd"
                            }
                        ],
                        "signature": "ecrecover(bytes32,uint256,bytes32,bytes32)"
                    },
                    "errorInfo": "",
                    "fromAddress": "0x1bf68a9d1eaee7826b3593c20a0ca93293cb489a",
                    "gasUsed": 3000,
                    "id": 8,
                    "methodDecoded": true,
                    "operation": "STATICCALL",
                    "output": "0x0000000000000000000000007f4b332611818ae13c76f9222e2229f274ded9bd",
                    "revert": false,
                    "revertMessage": "",
                    "selector": "0xbe1d9b29",
                    "status": true,
                    "value": "0"
                },
                "nodeType": 0
            },
            "9": {
                "invocation": {
                    "address": "0x0000000000000000000000000000000000000001",
                    "callData": "0x2253e5c470a3e29697520415621c19b7fc50cf6df6fdc751c0a32a3c000000000000000000000000000000000000000000000000000000000000001cd2f8850e093930ed43dce97839fe135b6b3ef1d4fe99e7b6d5aa149c7c05fb3c1705d6c52c938bbe938a2d657f0ba3c8e1bc1e36eccfdab10f3737d6c444f270",
                    "decodedMethod": {
                        "callParams": [
                            {
                                "name": "hash",
                                "type": "bytes32",
                                "value": "0xbe1d9b292253e5c470a3e29697520415621c19b7fc50cf6df6fdc751c0a32a3c"
                            },
                            {
                                "name": "v",
                                "type": "uint256",
                                "value": "28"
                            },
                            {
                                "name": "r",
                                "type": "bytes32",
                                "value": "0xd2f8850e093930ed43dce97839fe135b6b3ef1d4fe99e7b6d5aa149c7c05fb3c"
                            },
                            {
                                "name": "s",
                                "type": "bytes32",
                                "value": "0x1705d6c52c938bbe938a2d657f0ba3c8e1bc1e36eccfdab10f3737d6c444f270"
                            }
                        ],
                        "constructorArguments": "",
                        "name": "ecrecover",
                        "returnParams": [
                            {
                                "name": "",
                                "type": "address",
                                "value": "0x34ebf4f74a881eb63f666e63ce1ff2f287ca5a8b"
                            }
                        ],
                        "signature": "ecrecover(bytes32,uint256,bytes32,bytes32)"
                    },
                    "errorInfo": "",
                    "fromAddress": "0x1bf68a9d1eaee7826b3593c20a0ca93293cb489a",
                    "gasUsed": 3000,
                    "id": 9,
                    "methodDecoded": true,
                    "operation": "STATICCALL",
                    "output": "0x00000000000000000000000034ebf4f74a881eb63f666e63ce1ff2f287ca5a8b",
                    "revert": false,
                    "revertMessage": "",
                    "selector": "0xbe1d9b29",
                    "status": true,
                    "value": "0"
                },
                "nodeType": 0
            }
        },
        "gasFlame": [
            {
                "children": [
                    {
                        "children": [
                            {
                                "children": [],
                                "depth": 0,
                                "name": "Initial Gas",
                                "value": 34448
                            },
                            {
                                "children": [
                                    {
                                        "children": [
                                            {
                                                "children": [],
                                                "depth": 2,
                                                "name": "sha256hash",
                                                "value": 72
                                            },
                                            {
                                                "children": [],
                                                "depth": 2,
                                                "name": "sha256hash",
                                                "value": 72
                                            },
                                            {
                                                "children": [],
                                                "depth": 2,
                                                "name": "sha256hash",
                                                "value": 84
                                            },
                                            {
                                                "children": [],
                                                "depth": 2,
                                                "name": "sha256hash",
                                                "value": 72
                                            },
                                            {
                                                "children": [],
                                                "depth": 2,
                                                "name": "sha256hash",
                                                "value": 156
                                            },
                                            {
                                                "children": [],
                                                "depth": 2,
                                                "name": "ecrecover",
                                                "value": 3000
                                            },
                                            {
                                                "children": [],
                                                "depth": 2,
                                                "name": "ecrecover",
                                                "value": 3000
                                            },
                                            {
                                                "children": [],
                                                "depth": 2,
                                                "name": "ecrecover",
                                                "value": 3000
                                            },
                                            {
                                                "children": [],
                                                "depth": 2,
                                                "name": "ecrecover",
                                                "value": 3000
                                            },
                                            {
                                                "children": [],
                                                "depth": 2,
                                                "name": "ecrecover",
                                                "value": 3000
                                            },
                                            {
                                                "children": [],
                                                "depth": 2,
                                                "name": "ecrecover",
                                                "value": 3000
                                            },
                                            {
                                                "children": [],
                                                "depth": 2,
                                                "name": "ecrecover",
                                                "value": 3000
                                            },
                                            {
                                                "children": [],
                                                "depth": 2,
                                                "name": "fallback",
                                                "value": 0
                                            }
                                        ],
                                        "depth": 1,
                                        "name": "withdraw",
                                        "value": 118300
                                    }
                                ],
                                "depth": 0,
                                "name": "Executed Gas",
                                "value": 124247
                            }
                        ],
                        "depth": -1,
                        "name": "Actual Gas Used",
                        "value": 158695
                    },
                    {
                        "children": [],
                        "depth": -1,
                        "name": "Refunded Gas",
                        "value": 0
                    }
                ],
                "depth": -2,
                "name": "Total Gas",
                "value": 158695
            }
        ],
        "isConfirmed": true,
        "mainTrace": [
            {
                "children": [
                    {
                        "children": [
                            {
                                "children": [
                                    {
                                        "children": [],
                                        "depth": 2,
                                        "id": 2,
                                        "order": 2
                                    },
                                    {
                                        "children": [],
                                        "depth": 2,
                                        "id": 3,
                                        "order": 3
                                    },
                                    {
                                        "children": [],
                                        "depth": 2,
                                        "id": 4,
                                        "order": 4
                                    },
                                    {
                                        "children": [],
                                        "depth": 2,
                                        "id": 5,
                                        "order": 5
                                    },
                                    {
                                        "children": [],
                                        "depth": 2,
                                        "id": 6,
                                        "order": 6
                                    },
                                    {
                                        "children": [],
                                        "depth": 2,
                                        "id": 7,
                                        "order": 7
                                    },
                                    {
                                        "children": [],
                                        "depth": 2,
                                        "id": 8,
                                        "order": 8
                                    },
                                    {
                                        "children": [],
                                        "depth": 2,
                                        "id": 9,
                                        "order": 9
                                    },
                                    {
                                        "children": [],
                                        "depth": 2,
                                        "id": 10,
                                        "order": 10
                                    },
                                    {
                                        "children": [],
                                        "depth": 2,
                                        "id": 11,
                                        "order": 11
                                    },
                                    {
                                        "children": [],
                                        "depth": 2,
                                        "id": 12,
                                        "order": 12
                                    },
                                    {
                                        "children": [],
                                        "depth": 2,
                                        "id": 13,
                                        "order": 13
                                    },
                                    {
                                        "children": [],
                                        "depth": 2,
                                        "id": 14,
                                        "order": 14
                                    },
                                    {
                                        "children": [],
                                        "depth": 2,
                                        "id": 15,
                                        "order": 15
                                    }
                                ],
                                "depth": 1,
                                "id": 1,
                                "order": 1
                            }
                        ],
                        "depth": 0,
                        "id": 0,
                        "order": 0
                    }
                ],
                "depth": -1,
                "id": -1,
                "order": -1
            }
        ],
        "mainTraceNodeCount": 16,
        "parentIdMap": {
            "0": -1,
            "1": 0,
            "10": 1,
            "11": 1,
            "12": 1,
            "13": 1,
            "14": 1,
            "15": 1,
            "2": 1,
            "3": 1,
            "4": 1,
            "5": 1,
            "6": 1,
            "7": 1,
            "8": 1,
            "9": 1
        },
        "tidyTrace": [
            {
                "children": [
                    {
                        "children": [
                            {
                                "children": [
                                    {
                                        "children": [],
                                        "depth": 2,
                                        "id": 14,
                                        "order": 14
                                    },
                                    {
                                        "children": [],
                                        "depth": 2,
                                        "id": 15,
                                        "order": 15
                                    }
                                ],
                                "depth": 1,
                                "id": 1,
                                "order": 1
                            }
                        ],
                        "depth": 0,
                        "id": 0,
                        "order": 0
                    }
                ],
                "depth": -1,
                "id": -1,
                "order": -1
            }
        ],
        "tidyTraceNodeCount": 4
    },
    "state_change": {
        "stateChanges": [
            {
                "address": "0x1bf68a9d1eaee7826b3593c20a0ca93293cb489a",
                "erc": "",
                "slots": [
                    {
                        "current": "0x0000000000000000000000000000000000000000000000000000000000000001",
                        "key": "0xf7ccfa93bf72a4025f4af864a589623aca1800817301591446f981e4f28a1cc2",
                        "prev": "0x0000000000000000000000000000000000000000000000000000000000000000"
                    }
                ],
                "storageVariables": [
                    {
                        "name": "isUsedWithdrawal",
                        "type": "mapping(bytes32 => bool)",
                        "value": {
                            "pairs": [
                                {
                                    "key": "0xbe1d9b292253e5c470a3e29697520415621c19b7fc50cf6df6fdc751c0a32a3c",
                                    "value": {
                                        "current": "true",
                                        "prev": "false",
                                        "typeTag": 1
                                    }
                                }
                            ],
                            "typeTag": 4
                        }
                    }
                ]
            }
        ]
    }
}