{
    "balance_change": {
        "balanceChanges": [
            {
                "account": "0x5ff8645bbc6c8b4390aa228a3e8bf08240f333b4",
                "assets": [
                    {
                        "address": "0xa0b86991c6218b36c1d19d4a2e9eb0ce3606eb48",
                        "amount": "1,325.406903",
                        "iconUrl": "https://assets.blocksec.com/icon/0347a86cc07dbd03fdc5db01a4e5ac7e1217f90e0b6e4bb0f75cbcca09160989.png",
                        "isERC1155": false,
                        "isERC721": false,
                        "sign": true,
                        "value": "1325.0092809291000439"
                    }
                ]
            },
            {
                "account": "0x89f024e6d73f7f29e001feb6837e5a2a52f59689",
                "assets": [
                    {
                        "address": "0xeeeeeeeeeeeeeeeeeeeeeeeeeeeeeeeeeeeeeeee",
                        "amount": "0.000000000000000002",
                        "iconUrl": "https://assets.blocksec.com/image/1663669189317-3.png",
                        "isERC1155": false,
                        "isERC721": false,
                        "sign": false,
                        "value": "0.0000000000000068105600000000004"
                    }
                ]
            },
            {
                "account": "0x9e22ebec84c7e4c4bd6d4ae7ff6f4d436d6d8390",
                "assets": [
                    {
                        "address": "0xeeeeeeeeeeeeeeeeeeeeeeeeeeeeeeeeeeeeeeee",
                        "amount": "0.000000000000000002",
                        "iconUrl": "https://assets.blocksec.com/image/1663669189317-3.png",
                        "isERC1155": false,
                        "isERC721": false,
                        "sign": true,
                        "value": "0.0000000000000068105600000000004"
                    }
                ]
            },
            {
                "account": "0xb23854f52b34193343f1c33c63f69b049b5edc4b",
                "assets": [
                    {
                        "address": "0xa0b86991c6218b36c1d19d4a2e9eb0ce3606eb48",
                        "amount": "1,325.406903",
                        "iconUrl": "https://assets.blocksec.com/icon/0347a86cc07dbd03fdc5db01a4e5ac7e1217f90e0b6e4bb0f75cbcca09160989.png",
                        "isERC1155": false,
                        "isERC721": false,
                        "sign": false,
                        "value": "1325.0092809291000439"
                    }
                ]
            }
        ]
    },
    "profile": {
        "basic_info": {
            "baseFee": "7.248015045",
            "blockNumber": 20319180,
            "callData": "0x85b4a4fc0000000000000000000000001231deb6f5749ef6ce6943a275a1d3e7486f4eae00000000000000000000000089f024e6d73f7f29e001feb6837e5a2a52f59689000000000000000000000000000000000000000000000000000000000000008000000000000000000000000000000000000000000000000000000000000000c00000000000000000000000000000000000000000000000000000000000000001000000000000000000000000b23854f52b34193343f1c33c63f69b049b5edc4b0000000000000000000000000000000000000000000000000000000000000001000000000000000000000000a0b86991c6218b36c1d19d4a2e9eb0ce3606eb48",
            "debugEnable": true,
            "errorInfo": "",
            "eventCount": 3,
            "feeRecipient": "0x95222290dd7278aa3ddd389cc1e1d165cc4bafe5",
            "formatValue": "0",
            "gasLimit": 10000000,
            "gasPrice": "11.148347578",
            "gasUsed": 232543,
            "intTxnCount": 23,
            "internalRevert": false,
            "internalRevertMessage": "",
            "isContractCreation": false,
            "isFlashloan": false,
            "maxFee": "",
            "nonce": 7,
            "overwritedBlockNumber": -1,
            "priorityFee": "",
            "receiver": "0x16c0017426711500af3f13d792e584c0d8899857",
            "revertMessage": "",
            "sender": "0x5ff8645bbc6c8b4390aa228a3e8bf08240f333b4",
            "simulationEnable": true,
            "sourceTxnHash": "0x96436532daf9d1028117945315c565b310f76a2d94e6d176b1aefe5cb0be9144",
            "status": true,
            "timestamp": "2024-07-16T12:50:11Z",
            "transactionFee": "0.002592470190830854",
            "txnHash": "0x96436532daf9d1028117945315c565b310f76a2d94e6d176b1aefe5cb0be9144",
            "txnIndex": 13,
            "type": 0,
            "value": "0"
        },
        "fund_flow": [
            {
                "amount": "0.000000000000000001",
                "from": "0x89f024e6d73f7f29e001feb6837e5a2a52f59689",
                "id": 1,
                "isERC1155": false,
                "isERC721": false,
                "isReverted": false,
                "order": 1,
                "to": "0xbda31cb34bd32d2c5d171fc6dc59c40a72c1ba00",
                "token": "0xeeeeeeeeeeeeeeeeeeeeeeeeeeeeeeeeeeeeeeee"
            },
            {
                "amount": "0.000000000000000001",
                "from": "0xbda31cb34bd32d2c5d171fc6dc59c40a72c1ba00",
                "id": 2,
                "isERC1155": false,
                "isERC721": false,
                "isReverted": false,
                "order": 2,
                "to": "0x1231deb6f5749ef6ce6943a275a1d3e7486f4eae",
                "token": "0xeeeeeeeeeeeeeeeeeeeeeeeeeeeeeeeeeeeeeeee"
            },
            {
                "amount": "0.000000000000000001",
                "from": "0x89f024e6d73f7f29e001feb6837e5a2a52f59689",
                "id": 3,
                "isERC1155": false,
                "isERC721": false,
                "isReverted": false,
                "order": 3,
                "to": "0x3ba64e065e17fbf73ef4aefbc312533901fa2067",
                "token": "0xeeeeeeeeeeeeeeeeeeeeeeeeeeeeeeeeeeeeeeee"
            },
            {
                "amount": "0.000000000000000001",
                "from": "0x3ba64e065e17fbf73ef4aefbc312533901fa2067",
                "id": 4,
                "isERC1155": false,
                "isERC721": false,
                "isReverted": false,
                "order": 4,
                "to": "0x1231deb6f5749ef6ce6943a275a1d3e7486f4eae",
                "token": "0xeeeeeeeeeeeeeeeeeeeeeeeeeeeeeeeeeeeeeeee"
            },
            {
                "amount": "1,325.406903",
                "from": "0xb23854f52b34193343f1c33c63f69b049b5edc4b",
                "id": 5,
                "isERC1155": false,
                "isERC721": false,
                "isReverted": false,
                "order": 5,
                "to": "0x5ff8645bbc6c8b4390aa228a3e8bf08240f333b4",
                "token": "0xa0b86991c6218b36c1d19d4a2e9eb0ce3606eb48"
            },
            {
                "amount": "0.000000000000000002",
                "from": "0x1231deb6f5749ef6ce6943a275a1d3e7486f4eae",
                "id": 6,
                "isERC1155": false,
                "isERC721": false,
                "isReverted": false,
                "order": 6,
                "to": "0x9e22ebec84c7e4c4bd6d4ae7ff6f4d436d6d8390",
                "token": "0xeeeeeeeeeeeeeeeeeeeeeeeeeeeeeeeeeeeeeeee"
            }
        ],
        "token_infos": [
            {
                "address": "0xa0b86991c6218b36c1d19d4a2e9eb0ce3606eb48",
                "decimals": 6
            },
            {
                "address": "0xc02aaa39b223fe8d0a0e5c4f27ead9083c756cc2",
                "decimals": 18
            },
            {
                "address": "0xeeeeeeeeeeeeeeeeeeeeeeeeeeeeeeeeeeeeeeee",
                "decimals": 18
            }
        ]
    },
    "address_label": {
        "labels": [
            {
                "address": "0xa0b86991c6218b36c1d19d4a2e9eb0ce3606eb48",
                "label": "Circle: USDC Token"
            },
            {
                "address": "0x0000000000000000000000000000000000000002",
                "label": "Precompiled"
            },
            {
                "address": "0x0000000000000000000000000000000000000004",
                "label": "Precompiled"
            },
            {
                "address": "0x0000000000000000000000000000000000000001",
                "label": "Precompiled"
            },
            {
                "address": "0x0000000000000000000000000000000000000003",
                "label": "Precompiled"
            },
            {
                "address": "0xeeeeeeeeeeeeeeeeeeeeeeeeeeeeeeeeeeeeeeee",
                "label": "Ether"
            },
            {
                "address": "0x1231deb6f5749ef6ce6943a275a1d3e7486f4eae",
                "label": "LI.FI: LiFi Diamond"
            },
            {
                "address": "0xf28a352377663ca134bd27b582b1a9a4dad7e534",
                "label": "GasZipFacet"
            },
            {
                "address": "0x9e22ebec84c7e4c4bd6d4ae7ff6f4d436d6d8390",
                "label": "GasZip"
            },
            {
                "address": "0x43506849d7c04f9138d1a2050bbf3a0c054402dd",
                "label": "FiatTokenV2_2"
            }
        ]
    },
    "trace": {
        "accountLabels": null,
        "dataMap": {
            "-1": {
                "invocation": {
                    "address": "0x5ff8645bbc6c8b4390aa228a3e8bf08240f333b4",
                    "callData": "",
                    "decodedMethod": null,
                    "errorInfo": "",
                    "fromAddress": "",
                    "gasUsed": 0,
                    "id": -1,
                    "methodDecoded": false,
                    "operation": "",
                    "output": "",
                    "revert": false,
                    "revertMessage": "",
                    "selector": "",
                    "status": false,
                    "value": ""
                },
                "nodeType": 0
            },
            "0": {
                "invocation": {
                    "address": "0x16c0017426711500af3f13d792e584c0d8899857",
                    "callData": "0x0000000000000000000000001231deb6f5749ef6ce6943a275a1d3e7486f4eae00000000000000000000000089f024e6d73f7f29e001feb6837e5a2a52f59689000000000000000000000000000000000000000000000000000000000000008000000000000000000000000000000000000000000000000000000000000000c00000000000000000000000000000000000000000000000000000000000000001000000000000000000000000b23854f52b34193343f1c33c63f69b049b5edc4b0000000000000000000000000000000000000000000000000000000000000001000000000000000000000000a0b86991c6218b36c1d19d4a2e9eb0ce3606eb48",
                    "decodedMethod": null,
                    "errorInfo": "",
                    "fromAddress": "0x5ff8645bbc6c8b4390aa228a3e8bf08240f333b4",
                    "gasUsed": 232543,
                    "id": 0,
                    "methodDecoded": false,
                    "operation": "CALL",
                    "output": "",
                    "revert": false,
                    "revertMessage": "",
                    "selector": "0x85b4a4fc",
                    "status": true,
                    "value": "0"
                },
                "nodeType": 0
            },
            "1": {
                "invocation": {
                    "address": "0xa0b86991c6218b36c1d19d4a2e9eb0ce3606eb48",
                    "callData": "0x000000000000000000000000b23854f52b34193343f1c33c63f69b049b5edc4b",
                    "decodedMethod": {
                        "callParams": [
                            {
                                "name": "account",
                                "type": "address",
                                "value": "0xb23854f52b34193343f1c33c63f69b049b5edc4b"
                            }
                        ],
                        "constructorArguments": "",
                        "name": "balanceOf",
                        "returnParams": [
                            {
                                "decimalAvailable": true,
                                "name": "",
                                "type": "uint256",
                                "value": "1,325,406,903"
                            }
                        ],
                        "signature": "balanceOf(address)"
                    },
                    "errorInfo": "",
                    "fromAddress": "0x16c0017426711500af3f13d792e584c0d8899857",
                    "gasUsed": 9839,
                    "id": 1,
                    "methodDecoded": true,
                    "operation": "STATICCALL",
                    "output": "0x000000000000000000000000000000000000000000000000000000004f001ab7",
                    "revert": false,
                    "revertMessage": "",
                    "selector": "0x70a08231",
                    "status": true,
                    "value": "0"
                },
                "nodeType": 0
            },
            "10": {
                "invocation": {
                    "address": "0x89f024e6d73f7f29e001feb6837e5a2a52f59689",
                    "callData": "0x00000000000000000000000016c0017426711500af3f13d792e584c0d88998570000000000000000000000000000000000000000000000000000000000000000",
                    "decodedMethod": {
                        "callParams": [
                            {
                                "name": "spender",
                                "type": "address",
                                "value": "0x16c0017426711500af3f13d792e584c0d8899857"
                            },
                            {
                                "decimalAvailable": true,
                                "name": "amount",
                                "type": "uint256",
                                "value": "0"
                            }
                        ],
                        "constructorArguments": "",
                        "name": "approve",
                        "returnParams": [
                            {
                                "name": "",
                                "type": "bool",
                                "value": true
                            }
                        ],
                        "signature": "approve(address,uint256)"
                    },
                    "errorInfo": "",
                    "fromAddress": "0x1231deb6f5749ef6ce6943a275a1d3e7486f4eae",
                    "gasUsed": 69484,
                    "id": 10,
                    "methodDecoded": true,
                    "operation": "CALL",
                    "output": "0x0000000000000000000000000000000000000000000000000000000000000001",
                    "revert": false,
                    "revertMessage": "",
                    "selector": "0x095ea7b3",
                    "status": true,
                    "value": "0"
                },
                "nodeType": 0
            },
            "11": {
                "invocation": {
                    "address": "0xbda31cb34bd32d2c5d171fc6dc59c40a72c1ba00",
                    "callData": "0x60808060405234601457607c908161001a8239f35b600080fdfe6004361015600c57600080fd5b60003560e01c63e6d2524514602057600080fd5b60203660031901126041576004356001600160a01b03811690819003604157ff5b600080fdfea2646970667358221220d032fabdf595d96cc28a67429db4dce354cf45bce77e7343d35f919dbabe9ae464736f6c63430008130033",
                    "decodedMethod": null,
                    "errorInfo": "",
                    "fromAddress": "0x89f024e6d73f7f29e001feb6837e5a2a52f59689",
                    "gasUsed": 24881,
                    "id": 11,
                    "methodDecoded": false,
                    "operation": "CREATE",
                    "output": "0x6004361015600c57600080fd5b60003560e01c63e6d2524514602057600080fd5b60203660031901126041576004356001600160a01b03811690819003604157ff5b600080fdfea2646970667358221220d032fabdf595d96cc28a67429db4dce354cf45bce77e7343d35f919dbabe9ae464736f6c63430008130033",
                    "revert": false,
                    "revertMessage": "",
                    "selector": "",
                    "status": true,
                    "value": "0"
                },
                "nodeType": 0
            },
            "12": {
                "invocation": {
                    "address": "0xbda31cb34bd32d2c5d171fc6dc59c40a72c1ba00",
                    "callData": "0x0000000000000000000000001231deb6f5749ef6ce6943a275a1d3e7486f4eae",
                    "decodedMethod": {
                        "callParams": [
                            {
                                "name": "_to",
                                "type": "address",
                                "value": "0x1231deb6f5749ef6ce6943a275a1d3e7486f4eae"
                            }
                        ],
                        "constructorArguments": "",
                        "name": "sendTo",
                        "returnParams": [],
                        "signature": "sendTo(address)"
                    },
                    "errorInfo": "",
                    "fromAddress": "0x89f024e6d73f7f29e001feb6837e5a2a52f59689",
                    "gasUsed": 5139,
                    "id": 12,
                    "methodDecoded": true,
                    "operation": "CALL",
                    "output": "",
                    "revert": false,
                    "revertMessage": "",
                    "selector": "0xe6d25245",
                    "status": true,
                    "value": "0.000000000000000001"
                },
                "nodeType": 0
            },
            "13": {
                "invocation": {
                    "address": "0x1231deb6f5749ef6ce6943a275a1d3e7486f4eae",
                    "callData": "",
                    "decodedMethod": null,
                    "errorInfo": "",
                    "fromAddress": "0xbda31cb34bd32d2c5d171fc6dc59c40a72c1ba00",
                    "gasUsed": 0,
                    "id": 13,
                    "methodDecoded": false,
                    "operation": "SELFDESTRUCT",
                    "output": "",
                    "revert": false,
                    "revertMessage": "",
                    "selector": "",
                    "status": true,
                    "value": "0.000000000000000001"
                },
                "nodeType": 0
            },
            "14": {
                "invocation": {
                    "address": "0x89f024e6d73f7f29e001feb6837e5a2a52f59689",
                    "callData": "0x0000000000000000000000001231deb6f5749ef6ce6943a275a1d3e7486f4eae00000000000000000000000016c0017426711500af3f13d792e584c0d8899857",
                    "decodedMethod": {
                        "callParams": [
                            {
                                "name": "owner",
                                "type": "address",
                                "value": "0x1231deb6f5749ef6ce6943a275a1d3e7486f4eae"
                            },
                            {
                                "name": "spender",
                                "type": "address",
                                "value": "0x16c0017426711500af3f13d792e584c0d8899857"
                            }
                        ],
                        "constructorArguments": "",
                        "name": "allowance",
                        "returnParams": [
                            {
                                "decimalAvailable": true,
                                "name": "",
                                "type": "uint256",
                                "value": "0"
                            }
                        ],
                        "signature": "allowance(address,address)"
                    },
                    "errorInfo": "",
                    "fromAddress": "0x1231deb6f5749ef6ce6943a275a1d3e7486f4eae",
                    "gasUsed": 322,
                    "id": 14,
                    "methodDecoded": true,
                    "operation": "STATICCALL",
                    "output": "0x0000000000000000000000000000000000000000000000000000000000000000",
                    "revert": false,
                    "revertMessage": "",
                    "selector": "0xdd62ed3e",
                    "status": true,
                    "value": "0"
                },
                "nodeType": 0
            },
            "15": {
                "invocation": {
                    "address": "0x89f024e6d73f7f29e001feb6837e5a2a52f59689",
                    "callData": "0x00000000000000000000000016c0017426711500af3f13d792e584c0d8899857ffffffffffffffffffffffffffffffffffffffffffffffffffffffffffffffff",
                    "decodedMethod": {
                        "callParams": [
                            {
                                "name": "spender",
                                "type": "address",
                                "value": "0x16c0017426711500af3f13d792e584c0d8899857"
                            },
                            {
                                "decimalAvailable": true,
                                "name": "amount",
                                "type": "uint256",
                                "value": "115,792,089,237,316,195,423,570,985,008,687,907,853,269,984,665,640,564,039,457,584,007,913,129,639,935"
                            }
                        ],
                        "constructorArguments": "",
                        "name": "approve",
                        "returnParams": [
                            {
                                "name": "",
                                "type": "bool",
                                "value": true
                            }
                        ],
                        "signature": "approve(address,uint256)"
                    },
                    "errorInfo": "",
                    "fromAddress": "0x1231deb6f5749ef6ce6943a275a1d3e7486f4eae",
                    "gasUsed": 69484,
                    "id": 15,
                    "methodDecoded": true,
                    "operation": "CALL",
                    "output": "0x0000000000000000000000000000000000000000000000000000000000000001",
                    "revert": false,
                    "revertMessage": "",
                    "selector": "0x095ea7b3",
                    "status": true,
                    "value": "0"
                },
                "nodeType": 0
            },
            "16": {
                "invocation": {
                    "address": "0x3ba64e065e17fbf73ef4aefbc312533901fa2067",
                    "callData": "0x60808060405234601457607c908161001a8239f35b600080fdfe6004361015600c57600080fd5b60003560e01c63e6d2524514602057600080fd5b60203660031901126041576004356001600160a01b03811690819003604157ff5b600080fdfea2646970667358221220d032fabdf595d96cc28a67429db4dce354cf45bce77e7343d35f919dbabe9ae464736f6c63430008130033",
                    "decodedMethod": null,
                    "errorInfo": "",
                    "fromAddress": "0x89f024e6d73f7f29e001feb6837e5a2a52f59689",
                    "gasUsed": 24881,
                    "id": 16,
                    "methodDecoded": false,
                    "operation": "CREATE",
                    "output": "0x6004361015600c57600080fd5b60003560e01c63e6d2524514602057600080fd5b60203660031901126041576004356001600160a01b03811690819003604157ff5b600080fdfea2646970667358221220d032fabdf595d96cc28a67429db4dce354cf45bce77e7343d35f919dbabe9ae464736f6c63430008130033",
                    "revert": false,
                    "revertMessage": "",
                    "selector": "",
                    "status": true,
                    "value": "0"
                },
                "nodeType": 0
            },
            "17": {
                "invocation": {
                    "address": "0x3ba64e065e17fbf73ef4aefbc312533901fa2067",
                    "callData": "0x0000000000000000000000001231deb6f5749ef6ce6943a275a1d3e7486f4eae",
                    "decodedMethod": {
                        "callParams": [
                            {
                                "name": "_to",
                                "type": "address",
                                "value": "0x1231deb6f5749ef6ce6943a275a1d3e7486f4eae"
                            }
                        ],
                        "constructorArguments": "",
                        "name": "sendTo",
                        "returnParams": [],
                        "signature": "sendTo(address)"
                    },
                    "errorInfo": "",
                    "fromAddress": "0x89f024e6d73f7f29e001feb6837e5a2a52f59689",
                    "gasUsed": 5139,
                    "id": 17,
                    "methodDecoded": true,
                    "operation": "CALL",
                    "output": "",
                    "revert": false,
                    "revertMessage": "",
                    "selector": "0xe6d25245",
                    "status": true,
                    "value": "0.000000000000000001"
                },
                "nodeType": 0
            },
            "18": {
                "invocation": {
                    "address": "0x1231deb6f5749ef6ce6943a275a1d3e7486f4eae",
                    "callData": "",
                    "decodedMethod": null,
                    "errorInfo": "",
                    "fromAddress": "0x3ba64e065e17fbf73ef4aefbc312533901fa2067",
                    "gasUsed": 0,
                    "id": 18,
                    "methodDecoded": false,
                    "operation": "SELFDESTRUCT",
                    "output": "",
                    "revert": false,
                    "revertMessage": "",
                    "selector": "",
                    "status": true,
                    "value": "0.000000000000000001"
                },
                "nodeType": 0
            },
            "19": {
                "invocation": {
                    "address": "0xa0b86991c6218b36c1d19d4a2e9eb0ce3606eb48",
                    "callData": "0x000000000000000000000000b23854f52b34193343f1c33c63f69b049b5edc4b0000000000000000000000005ff8645bbc6c8b4390aa228a3e8bf08240f333b4000000000000000000000000000000000000000000000000000000004f001ab7",
                    "decodedMethod": {
                        "callParams": [
                            {
                                "name": "from",
                                "type": "address",
                                "value": "0xb23854f52b34193343f1c33c63f69b049b5edc4b"
                            },
                            {
                                "name": "to",
                                "type": "address",
                                "value": "0x5ff8645bbc6c8b4390aa228a3e8bf08240f333b4"
                            },
                            {
                                "decimalAvailable": true,
                                "name": "value",
                                "type": "uint256",
                                "value": "1,325,406,903"
                            }
                        ],
                        "constructorArguments": "",
                        "name": "transferFrom",
                        "returnParams": [
                            {
                                "name": "",
                                "type": "bool",
                                "value": true
                            }
                        ],
                        "signature": "transferFrom(address,address,uint256)"
                    },
                    "errorInfo": "",
                    "fromAddress": "0x1231deb6f5749ef6ce6943a275a1d3e7486f4eae",
                    "gasUsed": 20949,
                    "id": 19,
                    "methodDecoded": true,
                    "operation": "CALL",
                    "output": "0x0000000000000000000000000000000000000000000000000000000000000001",
                    "revert": false,
                    "revertMessage": "",
                    "selector": "0x23b872dd",
                    "status": true,
                    "value": "0"
                },
                "nodeType": 0
            },
            "2": {
                "invocation": {
                    "address": "0x43506849d7c04f9138d1a2050bbf3a0c054402dd",
                    "callData": "0x000000000000000000000000b23854f52b34193343f1c33c63f69b049b5edc4b",
                    "decodedMethod": {
                        "callParams": [
                            {
                                "name": "account",
                                "type": "address",
                                "value": "0xb23854f52b34193343f1c33c63f69b049b5edc4b"
                            }
                        ],
                        "constructorArguments": "",
                        "name": "balanceOf",
                        "returnParams": [
                            {
                                "decimalAvailable": true,
                                "name": "",
                                "type": "uint256",
                                "value": "1,325,406,903"
                            }
                        ],
                        "signature": "balanceOf(address)"
                    },
                    "errorInfo": "",
                    "fromAddress": "0xa0b86991c6218b36c1d19d4a2e9eb0ce3606eb48",
                    "gasUsed": 2553,
                    "id": 2,
                    "methodDecoded": true,
                    "operation": "DELEGATECALL",
                    "output": "0x000000000000000000000000000000000000000000000000000000004f001ab7",
                    "revert": false,
                    "revertMessage": "",
                    "selector": "0x70a08231",
                    "status": true,
                    "value": "0"
                },
                "nodeType": 0
            },
            "20": {
                "invocation": {
                    "address": "0x43506849d7c04f9138d1a2050bbf3a0c054402dd",
                    "callData": "0x000000000000000000000000b23854f52b34193343f1c33c63f69b049b5edc4b0000000000000000000000005ff8645bbc6c8b4390aa228a3e8bf08240f333b4000000000000000000000000000000000000000000000000000000004f001ab7",
                    "decodedMethod": {
                        "callParams": [
                            {
                                "name": "from",
                                "type": "address",
                                "value": "0xb23854f52b34193343f1c33c63f69b049b5edc4b"
                            },
                            {
                                "name": "to",
                                "type": "address",
                                "value": "0x5ff8645bbc6c8b4390aa228a3e8bf08240f333b4"
                            },
                            {
                                "decimalAvailable": true,
                                "name": "value",
                                "type": "uint256",
                                "value": "1,325,406,903"
                            }
                        ],
                        "constructorArguments": "",
                        "name": "transferFrom",
                        "returnParams": [
                            {
                                "name": "",
                                "type": "bool",
                                "value": true
                            }
                        ],
                        "signature": "transferFrom(address,address,uint256)"
                    },
                    "errorInfo": "",
                    "fromAddress": "0xa0b86991c6218b36c1d19d4a2e9eb0ce3606eb48",
                    "gasUsed": 20154,
                    "id": 20,
                    "methodDecoded": true,
                    "operation": "DELEGATECALL",
                    "output": "0x0000000000000000000000000000000000000000000000000000000000000001",
                    "revert": false,
                    "revertMessage": "",
                    "selector": "0x23b872dd",
                    "status": true,
                    "value": "0"
                },
                "nodeType": 0
            },
            "21": {
                "event": {
                    "contract": "0xa0b86991c6218b36c1d19d4a2e9eb0ce3606eb48",
                    "decodedLog": {
                        "name": "Transfer",
                        "params": [
                            {
                                "name": "from",
                                "type": "address",
                                "value": "0xb23854f52b34193343f1c33c63f69b049b5edc4b"
                            },
                            {
                                "name": "to",
                                "type": "address",
                                "value": "0x5ff8645bbc6c8b4390aa228a3e8bf08240f333b4"
                            },
                            {
                                "decimalAvailable": true,
                                "name": "value",
                                "type": "uint256",
                                "value": "1,325,406,903"
                            }
                        ],
                        "signature": "Transfer(address,address,uint256)"
                    },
                    "id": 21,
                    "logData": "0x000000000000000000000000000000000000000000000000000000004f001ab7",
                    "logDecoded": true,
                    "operation": "EVENT",
                    "revert": false,
                    "status": true,
                    "topics": [
                        "0xddf252ad1be2c89b69c2b068fc378daa952ba7f163c4a11628f55a4df523b3ef",
                        "0x000000000000000000000000b23854f52b34193343f1c33c63f69b049b5edc4b",
                        "0x0000000000000000000000005ff8645bbc6c8b4390aa228a3e8bf08240f333b4"
                    ]
                },
                "nodeType": 1
            },
            "22": {
                "invocation": {
                    "address": "0x89f024e6d73f7f29e001feb6837e5a2a52f59689",
                    "callData": "0x0000000000000000000000001231deb6f5749ef6ce6943a275a1d3e7486f4eae",
                    "decodedMethod": {
                        "callParams": [
                            {
                                "name": "account",
                                "type": "address",
                                "value": "0x1231deb6f5749ef6ce6943a275a1d3e7486f4eae"
                            }
                        ],
                        "constructorArguments": "",
                        "name": "balanceOf",
                        "returnParams": [
                            {
                                "decimalAvailable": true,
                                "name": "",
                                "type": "uint256",
                                "value": "1"
                            }
                        ],
                        "signature": "balanceOf(address)"
                    },
                    "errorInfo": "",
                    "fromAddress": "0x1231deb6f5749ef6ce6943a275a1d3e7486f4eae",
                    "gasUsed": 263,
                    "id": 22,
                    "methodDecoded": true,
                    "operation": "STATICCALL",
                    "output": "0x0000000000000000000000000000000000000000000000000000000000000001",
                    "revert": false,
                    "revertMessage": "",
                    "selector": "0x70a08231",
                    "status": true,
                    "value": "0"
                },
                "nodeType": 0
            },
            "23": {
                "event": {
                    "contract": "0x1231deb6f5749ef6ce6943a275a1d3e7486f4eae",
                    "decodedLog": {
                        "name": "AssetSwapped",
                        "params": [
                            {
                                "name": "transactionId",
                                "type": "bytes32",
                                "value": "0x0000000000000000000000000000000000000000000000000000000000000000"
                            },
                            {
                                "name": "dex",
                                "type": "address",
                                "value": "0xa0b86991c6218b36c1d19d4a2e9eb0ce3606eb48"
                            },
                            {
                                "name": "fromAssetId",
                                "type": "address",
                                "value": "0x89f024e6d73f7f29e001feb6837e5a2a52f59689"
                            },
                            {
                                "name": "toAssetId",
                                "type": "address",
                                "value": "0x89f024e6d73f7f29e001feb6837e5a2a52f59689"
                            },
                            {
                                "name": "fromAmount",
                                "type": "uint256",
                                "value": "1"
                            },
                            {
                                "name": "toAmount",
                                "type": "uint256",
                                "value": "1"
                            },
                            {
                                "name": "timestamp",
                                "type": "uint256",
                                "value": "1,721,134,211"
                            }
                        ],
                        "signature": "AssetSwapped(bytes32,address,address,address,uint256,uint256,uint256)"
                    },
                    "id": 23,
                    "logData": "0x0000000000000000000000000000000000000000000000000000000000000000000000000000000000000000a0b86991c6218b36c1d19d4a2e9eb0ce3606eb4800000000000000000000000089f024e6d73f7f29e001feb6837e5a2a52f5968900000000000000000000000089f024e6d73f7f29e001feb6837e5a2a52f59689000000000000000000000000000000000000000000000000000000000000000100000000000000000000000000000000000000000000000000000000000000010000000000000000000000000000000000000000000000000000000066966c83",
                    "logDecoded": true,
                    "operation": "EVENT",
                    "revert": false,
                    "status": true,
                    "topics": [
                        "0x7bfdfdb5e3a3776976e53cb0607060f54c5312701c8cba1155cc4d5394440b38"
                    ]
                },
                "nodeType": 1
            },
            "24": {
                "invocation": {
                    "address": "0x9e22ebec84c7e4c4bd6d4ae7ff6f4d436d6d8390",
                    "callData": "0x000000000000000000000000000000000000000000000000000000000000000000000000000000000000000016c0017426711500af3f13d792e584c0d8899857",
                    "decodedMethod": {
                        "callParams": [
                            {
                                "name": "chains",
                                "type": "uint256",
                                "value": "0"
                            },
                            {
                                "name": "to",
                                "type": "address",
                                "value": "0x16c0017426711500af3f13d792e584c0d8899857"
                            }
                        ],
                        "constructorArguments": "",
                        "name": "deposit",
                        "returnParams": [],
                        "signature": "deposit(uint256,address)"
                    },
                    "errorInfo": "",
                    "fromAddress": "0x1231deb6f5749ef6ce6943a275a1d3e7486f4eae",
                    "gasUsed": 2231,
                    "id": 24,
                    "methodDecoded": true,
                    "operation": "CALL",
                    "output": "",
                    "revert": false,
                    "revertMessage": "",
                    "selector": "0x6e553f65",
                    "status": true,
                    "value": "0.000000000000000002"
                },
                "nodeType": 0
            },
            "25": {
                "event": {
                    "contract": "0x9e22ebec84c7e4c4bd6d4ae7ff6f4d436d6d8390",
                    "decodedLog": {
                        "name": "Deposit",
                        "params": [
                            {
                                "name": "from",
                                "type": "address",
                                "value": "0x1231deb6f5749ef6ce6943a275a1d3e7486f4eae"
                            },
                            {
                                "name": "chains",
                                "type": "uint256",
                                "value": "0"
                            },
                            {
                                "name": "amount",
                                "type": "uint256",
                                "value": "2"
                            },
                            {
                                "name": "to",
                                "type": "address",
                                "value": "0x16c0017426711500af3f13d792e584c0d8899857"
                            }
                        ],
                        "signature": "Deposit(address,uint256,uint256,address)"
                    },
                    "id": 25,
                    "logData": "0x0000000000000000000000001231deb6f5749ef6ce6943a275a1d3e7486f4eae0000000000000000000000000000000000000000000000000000000000000000000000000000000000000000000000000000000000000000000000000000000200000000000000000000000016c0017426711500af3f13d792e584c0d8899857",
                    "logDecoded": true,
                    "operation": "EVENT",
                    "revert": false,
                    "status": true,
                    "topics": [
                        "0x02d7e648dd130fc184d383e55bb126ac4c9c60e8f94bf05acdf557ba2d540b47"
                    ]
                },
                "nodeType": 1
            },
            "26": {
                "invocation": {
                    "address": "0x5ff8645bbc6c8b4390aa228a3e8bf08240f333b4",
                    "callData": "0x",
                    "decodedMethod": null,
                    "errorInfo": "",
                    "fromAddress": "0x16c0017426711500af3f13d792e584c0d8899857",
                    "gasUsed": 0,
                    "id": 26,
                    "methodDecoded": false,
                    "operation": "CALL",
                    "output": "",
                    "revert": false,
                    "revertMessage": "",
                    "selector": "fallback",
                    "status": true,
                    "value": "0"
                },
                "nodeType": 0
            },
            "3": {
                "invocation": {
                    "address": "0xa0b86991c6218b36c1d19d4a2e9eb0ce3606eb48",
                    "callData": "0x000000000000000000000000b23854f52b34193343f1c33c63f69b049b5edc4b0000000000000000000000001231deb6f5749ef6ce6943a275a1d3e7486f4eae",
                    "decodedMethod": {
                        "callParams": [
                            {
                                "name": "owner",
                                "type": "address",
                                "value": "0xb23854f52b34193343f1c33c63f69b049b5edc4b"
                            },
                            {
                                "name": "spender",
                                "type": "address",
                                "value": "0x1231deb6f5749ef6ce6943a275a1d3e7486f4eae"
                            }
                        ],
                        "constructorArguments": "",
                        "name": "allowance",
                        "returnParams": [
                            {
                                "decimalAvailable": true,
                                "name": "",
                                "type": "uint256",
                                "value": "115,792,089,237,316,195,423,570,985,008,687,907,853,269,984,665,640,564,039,457,584,007,861,137,993,777"
                            }
                        ],
                        "signature": "allowance(address,address)"
                    },
                    "errorInfo": "",
                    "fromAddress": "0x16c0017426711500af3f13d792e584c0d8899857",
                    "gasUsed": 3448,
                    "id": 3,
                    "methodDecoded": true,
                    "operation": "STATICCALL",
                    "output": "0xfffffffffffffffffffffffffffffffffffffffffffffffffffffff3e50e7031",
                    "revert": false,
                    "revertMessage": "",
                    "selector": "0xdd62ed3e",
                    "status": true,
                    "value": "0"
                },
                "nodeType": 0
            },
            "4": {
                "invocation": {
                    "address": "0x43506849d7c04f9138d1a2050bbf3a0c054402dd",
                    "callData": "0x000000000000000000000000b23854f52b34193343f1c33c63f69b049b5edc4b0000000000000000000000001231deb6f5749ef6ce6943a275a1d3e7486f4eae",
                    "decodedMethod": {
                        "callParams": [
                            {
                                "name": "owner",
                                "type": "address",
                                "value": "0xb23854f52b34193343f1c33c63f69b049b5edc4b"
                            },
                            {
                                "name": "spender",
                                "type": "address",
                                "value": "0x1231deb6f5749ef6ce6943a275a1d3e7486f4eae"
                            }
                        ],
                        "constructorArguments": "",
                        "name": "allowance",
                        "returnParams": [
                            {
                                "decimalAvailable": true,
                                "name": "",
                                "type": "uint256",
                                "value": "115,792,089,237,316,195,423,570,985,008,687,907,853,269,984,665,640,564,039,457,584,007,861,137,993,777"
                            }
                        ],
                        "signature": "allowance(address,address)"
                    },
                    "errorInfo": "",
                    "fromAddress": "0xa0b86991c6218b36c1d19d4a2e9eb0ce3606eb48",
                    "gasUsed": 2659,
                    "id": 4,
                    "methodDecoded": true,
                    "operation": "DELEGATECALL",
                    "output": "0xfffffffffffffffffffffffffffffffffffffffffffffffffffffff3e50e7031",
                    "revert": false,
                    "revertMessage": "",
                    "selector": "0xdd62ed3e",
                    "status": true,
                    "value": "0"
                },
                "nodeType": 0
            },
            "5": {
                "invocation": {
                    "address": "0x1231deb6f5749ef6ce6943a275a1d3e7486f4eae",
                    "callData": "0x0000000000000000000000000000000000000000000000000000000000000060000000000000000000000000000000000000000000000000000000000000000000000000000000000000000016c0017426711500af3f13d792e584c0d8899857000000000000000000000000a0b86991c6218b36c1d19d4a2e9eb0ce3606eb4800000000000000000000000016c0017426711500af3f13d792e584c0d889985700000000000000000000000089f024e6d73f7f29e001feb6837e5a2a52f5968900000000000000000000000089f024e6d73f7f29e001feb6837e5a2a52f59689000000000000000000000000000000000000000000000000000000000000000100000000000000000000000000000000000000000000000000000000000000e00000000000000000000000000000000000000000000000000000000000000001000000000000000000000000000000000000000000000000000000000000006423b872dd000000000000000000000000b23854f52b34193343f1c33c63f69b049b5edc4b0000000000000000000000005ff8645bbc6c8b4390aa228a3e8bf08240f333b4000000000000000000000000000000000000000000000000000000004f001ab700000000000000000000000000000000000000000000000000000000",
                    "decodedMethod": {
                        "callParams": [
                            {
                                "name": "_swapData",
                                "type": "(address,address,address,address,uint256,bytes,bool)",
                                "value": [
                                    {
                                        "name": "callTo",
                                        "type": "address",
                                        "value": "0xa0b86991c6218b36c1d19d4a2e9eb0ce3606eb48"
                                    },
                                    {
                                        "name": "approveTo",
                                        "type": "address",
                                        "value": "0x16c0017426711500af3f13d792e584c0d8899857"
                                    },
                                    {
                                        "name": "sendingAssetId",
                                        "type": "address",
                                        "value": "0x89f024e6d73f7f29e001feb6837e5a2a52f59689"
                                    },
                                    {
                                        "name": "receivingAssetId",
                                        "type": "address",
                                        "value": "0x89f024e6d73f7f29e001feb6837e5a2a52f59689"
                                    },
                                    {
                                        "name": "fromAmount",
                                        "type": "uint256",
                                        "value": "1"
                                    },
                                    {
                                        "name": "callData",
                                        "type": "bytes",
                                        "value": "0x23b872dd000000000000000000000000b23854f52b34193343f1c33c63f69b049b5edc4b0000000000000000000000005ff8645bbc6c8b4390aa228a3e8bf08240f333b4000000000000000000000000000000000000000000000000000000004f001ab7"
                                    },
                                    {
                                        "name": "requiresDeposit",
                                        "type": "bool",
                                        "value": true
                                    }
                                ]
                            },
                            {
                                "name": "_destinationChains",
                                "type": "uint256",
                                "value": "0"
                            },
                            {
                                "name": "_recipient",
                                "type": "address",
                                "value": "0x16c0017426711500af3f13d792e584c0d8899857"
                            }
                        ],
                        "constructorArguments": "",
                        "name": "depositToGasZipERC20",
                        "returnParams": [],
                        "signature": "depositToGasZipERC20((address,address,address,address,uint256,bytes,bool),uint256,address)"
                    },
                    "errorInfo": "",
                    "fromAddress": "0x16c0017426711500af3f13d792e584c0d8899857",
                    "gasUsed": 191680,
                    "id": 5,
                    "methodDecoded": true,
                    "operation": "CALL",
                    "output": "",
                    "revert": false,
                    "revertMessage": "",
                    "selector": "0x3d86ea87",
                    "status": true,
                    "value": "0"
                },
                "nodeType": 0
            },
            "6": {
                "invocation": {
                    "address": "0xf28a352377663ca134bd27b582b1a9a4dad7e534",
                    "callData": "0x0000000000000000000000000000000000000000000000000000000000000060000000000000000000000000000000000000000000000000000000000000000000000000000000000000000016c0017426711500af3f13d792e584c0d8899857000000000000000000000000a0b86991c6218b36c1d19d4a2e9eb0ce3606eb4800000000000000000000000016c0017426711500af3f13d792e584c0d889985700000000000000000000000089f024e6d73f7f29e001feb6837e5a2a52f5968900000000000000000000000089f024e6d73f7f29e001feb6837e5a2a52f59689000000000000000000000000000000000000000000000000000000000000000100000000000000000000000000000000000000000000000000000000000000e00000000000000000000000000000000000000000000000000000000000000001000000000000000000000000000000000000000000000000000000000000006423b872dd000000000000000000000000b23854f52b34193343f1c33c63f69b049b5edc4b0000000000000000000000005ff8645bbc6c8b4390aa228a3e8bf08240f333b4000000000000000000000000000000000000000000000000000000004f001ab700000000000000000000000000000000000000000000000000000000",
                    "decodedMethod": {
                        "callParams": [
                            {
                                "name": "_swapData",
                                "type": "(address,address,address,address,uint256,bytes,bool)",
                                "value": [
                                    {
                                        "name": "callTo",
                                        "type": "address",
                                        "value": "0xa0b86991c6218b36c1d19d4a2e9eb0ce3606eb48"
                                    },
                                    {
                                        "name": "approveTo",
                                        "type": "address",
                                        "value": "0x16c0017426711500af3f13d792e584c0d8899857"
                                    },
                                    {
                                        "name": "sendingAssetId",
                                        "type": "address",
                                        "value": "0x89f024e6d73f7f29e001feb6837e5a2a52f59689"
                                    },
                                    {
                                        "name": "receivingAssetId",
                                        "type": "address",
                                        "value": "0x89f024e6d73f7f29e001feb6837e5a2a52f59689"
                                    },
                                    {
                                        "name": "fromAmount",
                                        "type": "uint256",
                                        "value": "1"
                                    },
                                    {
                                        "name": "callData",
                                        "type": "bytes",
                                        "value": "0x23b872dd000000000000000000000000b23854f52b34193343f1c33c63f69b049b5edc4b0000000000000000000000005ff8645bbc6c8b4390aa228a3e8bf08240f333b4000000000000000000000000000000000000000000000000000000004f001ab7"
                                    },
                                    {
                                        "name": "requiresDeposit",
                                        "type": "bool",
                                        "value": true
                                    }
                                ]
                            },
                            {
                                "name": "_destinationChains",
                                "type": "uint256",
                                "value": "0"
                            },
                            {
                                "name": "_recipient",
                                "type": "address",
                                "value": "0x16c0017426711500af3f13d792e584c0d8899857"
                            }
                        ],
                        "constructorArguments": "",
                        "name": "depositToGasZipERC20",
                        "returnParams": [],
                        "signature": "depositToGasZipERC20((address,address,address,address,uint256,bytes,bool),uint256,address)"
                    },
                    "errorInfo": "",
                    "fromAddress": "0x1231deb6f5749ef6ce6943a275a1d3e7486f4eae",
                    "gasUsed": 186678,
                    "id": 6,
                    "methodDecoded": true,
                    "operation": "DELEGATECALL",
                    "output": "",
                    "revert": false,
                    "revertMessage": "",
                    "selector": "0x3d86ea87",
                    "status": true,
                    "value": "0"
                },
                "nodeType": 0
            },
            "7": {
                "invocation": {
                    "address": "0x89f024e6d73f7f29e001feb6837e5a2a52f59689",
                    "callData": "0x0000000000000000000000001231deb6f5749ef6ce6943a275a1d3e7486f4eae",
                    "decodedMethod": {
                        "callParams": [
                            {
                                "name": "account",
                                "type": "address",
                                "value": "0x1231deb6f5749ef6ce6943a275a1d3e7486f4eae"
                            }
                        ],
                        "constructorArguments": "",
                        "name": "balanceOf",
                        "returnParams": [
                            {
                                "decimalAvailable": true,
                                "name": "",
                                "type": "uint256",
                                "value": "1"
                            }
                        ],
                        "signature": "balanceOf(address)"
                    },
                    "errorInfo": "",
                    "fromAddress": "0x1231deb6f5749ef6ce6943a275a1d3e7486f4eae",
                    "gasUsed": 263,
                    "id": 7,
                    "methodDecoded": true,
                    "operation": "STATICCALL",
                    "output": "0x0000000000000000000000000000000000000000000000000000000000000001",
                    "revert": false,
                    "revertMessage": "",
                    "selector": "0x70a08231",
                    "status": true,
                    "value": "0"
                },
                "nodeType": 0
            },
            "8": {
                "invocation": {
                    "address": "0x89f024e6d73f7f29e001feb6837e5a2a52f59689",
                    "callData": "0x0000000000000000000000001231deb6f5749ef6ce6943a275a1d3e7486f4eae",
                    "decodedMethod": {
                        "callParams": [
                            {
                                "name": "account",
                                "type": "address",
                                "value": "0x1231deb6f5749ef6ce6943a275a1d3e7486f4eae"
                            }
                        ],
                        "constructorArguments": "",
                        "name": "balanceOf",
                        "returnParams": [
                            {
                                "decimalAvailable": true,
                                "name": "",
                                "type": "uint256",
                                "value": "1"
                            }
                        ],
                        "signature": "balanceOf(address)"
                    },
                    "errorInfo": "",
                    "fromAddress": "0x1231deb6f5749ef6ce6943a275a1d3e7486f4eae",
                    "gasUsed": 263,
                    "id": 8,
                    "methodDecoded": true,
                    "operation": "STATICCALL",
                    "output": "0x0000000000000000000000000000000000000000000000000000000000000001",
                    "revert": false,
                    "revertMessage": "",
                    "selector": "0x70a08231",
                    "status": true,
                    "value": "0"
                },
                "nodeType": 0
            },
            "9": {
                "invocation": {
                    "address": "0x89f024e6d73f7f29e001feb6837e5a2a52f59689",
                    "callData": "0x0000000000000000000000001231deb6f5749ef6ce6943a275a1d3e7486f4eae00000000000000000000000016c0017426711500af3f13d792e584c0d8899857",
                    "decodedMethod": {
                        "callParams": [
                            {
                                "name": "owner",
                                "type": "address",
                                "value": "0x1231deb6f5749ef6ce6943a275a1d3e7486f4eae"
                            },
                            {
                                "name": "spender",
                                "type": "address",
                                "value": "0x16c0017426711500af3f13d792e584c0d8899857"
                            }
                        ],
                        "constructorArguments": "",
                        "name": "allowance",
                        "returnParams": [
                            {
                                "decimalAvailable": true,
                                "name": "",
                                "type": "uint256",
                                "value": "0"
                            }
                        ],
                        "signature": "allowance(address,address)"
                    },
                    "errorInfo": "",
                    "fromAddress": "0x1231deb6f5749ef6ce6943a275a1d3e7486f4eae",
                    "gasUsed": 322,
                    "id": 9,
                    "methodDecoded": true,
                    "operation": "STATICCALL",
                    "output": "0x0000000000000000000000000000000000000000000000000000000000000000",
                    "revert": false,
                    "revertMessage": "",
                    "selector": "0xdd62ed3e",
                    "status": true,
                    "value": "0"
                },
                "nodeType": 0
            }
        },
        "gasFlame": [
            {
                "children": [
                    {
                        "children": [
                            {
                                "children": [],
                                "depth": 0,
                                "name": "Initial Gas",
                                "value": 23096
                            },
                            {
                                "children": [
                                    {
                                        "children": [
                                            {
                                                "children": [],
                                                "depth": 2,
                                                "name": "balanceOf",
                                                "value": 2553
                                            }
                                        ],
                                        "depth": 1,
                                        "name": "balanceOf",
                                        "value": 9839
                                    },
                                    {
                                        "children": [
                                            {
                                                "children": [],
                                                "depth": 2,
                                                "name": "allowance",
                                                "value": 2659
                                            }
                                        ],
                                        "depth": 1,
                                        "name": "allowance",
                                        "value": 3448
                                    },
                                    {
                                        "children": [
                                            {
                                                "children": [
                                                    {
                                                        "children": [],
                                                        "depth": 3,
                                                        "name": "balanceOf",
                                                        "value": 263
                                                    },
                                                    {
                                                        "children": [],
                                                        "depth": 3,
                                                        "name": "balanceOf",
                                                        "value": 263
                                                    },
                                                    {
                                                        "children": [],
                                                        "depth": 3,
                                                        "name": "allowance",
                                                        "value": 322
                                                    },
                                                    {
                                                        "children": [
                                                            {
                                                                "children": [],
                                                                "depth": 4,
                                                                "name": "contract creation",
                                                                "value": 24881
                                                            },
                                                            {
                                                                "children": [
                                                                    {
                                                                        "children": [],
                                                                        "depth": 5,
                                                                        "name": "",
                                                                        "value": 0
                                                                    }
                                                                ],
                                                                "depth": 4,
                                                                "name": "sendTo",
                                                                "value": 5139
                                                            }
                                                        ],
                                                        "depth": 3,
                                                        "name": "approve",
                                                        "value": 69484
                                                    },
                                                    {
                                                        "children": [],
                                                        "depth": 3,
                                                        "name": "allowance",
                                                        "value": 322
                                                    },
                                                    {
                                                        "children": [
                                                            {
                                                                "children": [],
                                                                "depth": 4,
                                                                "name": "contract creation",
                                                                "value": 24881
                                                            },
                                                            {
                                                                "children": [
                                                                    {
                                                                        "children": [],
                                                                        "depth": 5,
                                                                        "name": "",
                                                                        "value": 0
                                                                    }
                                                                ],
                                                                "depth": 4,
                                                                "name": "sendTo",
                                                                "value": 5139
                                                            }
                                                        ],
                                                        "depth": 3,
                                                        "name": "approve",
                                                        "value": 69484
                                                    },
                                                    {
                                                        "children": [
                                                            {
                                                                "children": [],
                                                                "depth": 4,
                                                                "name": "transferFrom",
                                                                "value": 20154
                                                            }
                                                        ],
                                                        "depth": 3,
                                                        "name": "transferFrom",
                                                        "value": 20949
                                                    },
                                                    {
                                                        "children": [],
                                                        "depth": 3,
                                                        "name": "balanceOf",
                                                        "value": 263
                                                    },
                                                    {
                                                        "children": [],
                                                        "depth": 3,
                                                        "name": "deposit",
                                                        "value": 2231
                                                    }
                                                ],
                                                "depth": 2,
                                                "name": "depositToGasZipERC20",
                                                "value": 186678
                                            }
                                        ],
                                        "depth": 1,
                                        "name": "depositToGasZipERC20",
                                        "value": 191680
                                    },
                                    {
                                        "children": [],
                                        "depth": 1,
                                        "name": "fallback",
                                        "value": 0
                                    }
                                ],
                                "depth": 0,
                                "name": "Executed Gas",
                                "value": 214247
                            }
                        ],
                        "depth": -1,
                        "name": "Actual Gas Used",
                        "value": 232543
                    },
                    {
                        "children": [],
                        "depth": -1,
                        "name": "Refunded Gas",
                        "value": 4800
                    }
                ],
                "depth": -2,
                "name": "Total Gas",
                "value": 237343
            }
        ],
        "isConfirmed": true,
        "mainTrace": [
            {
                "children": [
                    {
                        "children": [
                            {
                                "children": [
                                    {
                                        "children": [],
                                        "depth": 2,
                                        "id": 2,
                                        "order": 2
                                    }
                                ],
                                "depth": 1,
                                "id": 1,
                                "order": 1
                            },
                            {
                                "children": [
                                    {
                                        "children": [],
                                        "depth": 2,
                                        "id": 4,
                                        "order": 4
                                    }
                                ],
                                "depth": 1,
                                "id": 3,
                                "order": 3
                            },
                            {
                                "children": [
                                    {
                                        "children": [
                                            {
                                                "children": [],
                                                "depth": 3,
                                                "id": 7,
                                                "order": 7
                                            },
                                            {
                                                "children": [],
                                                "depth": 3,
                                                "id": 8,
                                                "order": 8
                                            },
                                            {
                                                "children": [],
                                                "depth": 3,
                                                "id": 9,
                                                "order": 9
                                            },
                                            {
                                                "children": [
                                                    {
                                                        "children": [],
                                                        "depth": 4,
                                                        "id": 11,
                                                        "order": 11
                                                    },
                                                    {
                                                        "children": [
                                                            {
                                                                "children": [],
                                                                "depth": 5,
                                                                "id": 13,
                                                                "order": 13
                                                            }
                                                        ],
                                                        "depth": 4,
                                                        "id": 12,
                                                        "order": 12
                                                    }
                                                ],
                                                "depth": 3,
                                                "id": 10,
                                                "order": 10
                                            },
                                            {
                                                "children": [],
                                                "depth": 3,
                                                "id": 14,
                                                "order": 14
                                            },
                                            {
                                                "children": [
                                                    {
                                                        "children": [],
                                                        "depth": 4,
                                                        "id": 16,
                                                        "order": 16
                                                    },
                                                    {
                                                        "children": [
                                                            {
                                                                "children": [],
                                                                "depth": 5,
                                                                "id": 18,
                                                                "order": 18
                                                            }
                                                        ],
                                                        "depth": 4,
                                                        "id": 17,
                                                        "order": 17
                                                    }
                                                ],
                                                "depth": 3,
                                                "id": 15,
                                                "order": 15
                                            },
                                            {
                                                "children": [
                                                    {
                                                        "children": [
                                                            {
                                                                "children": [],
                                                                "depth": 5,
                                                                "id": 21,
                                                                "order": 21
                                                            }
                                                        ],
                                                        "depth": 4,
                                                        "id": 20,
                                                        "order": 20
                                                    }
                                                ],
                                                "depth": 3,
                                                "id": 19,
                                                "order": 19
                                            },
                                            {
                                                "children": [],
                                                "depth": 3,
                                                "id": 22,
                                                "order": 22
                                            },
                                            {
                                                "children": [],
                                                "depth": 3,
                                                "id": 23,
                                                "order": 23
                                            },
                                            {
                                                "children": [
                                                    {
                                                        "children": [],
                                                        "depth": 4,
                                                        "id": 25,
                                                        "order": 25
                                                    }
                                                ],
                                                "depth": 3,
                                                "id": 24,
                                                "order": 24
                                            }
                                        ],
                                        "depth": 2,
                                        "id": 6,
                                        "order": 6
                                    }
                                ],
                                "depth": 1,
                                "id": 5,
                                "order": 5
                            },
                            {
                                "children": [],
                                "depth": 1,
                                "id": 26,
                                "order": 26
                            }
                        ],
                        "depth": 0,
                        "id": 0,
                        "order": 0
                    }
                ],
                "depth": -1,
                "id": -1,
                "order": -1
            }
        ],
        "mainTraceNodeCount": 27,
        "parentIdMap": {
            "0": -1,
            "1": 0,
            "10": 6,
            "11": 10,
            "12": 10,
            "13": 12,
            "14": 6,
            "15": 6,
            "16": 15,
            "17": 15,
            "18": 17,
            "19": 6,
            "2": 1,
            "20": 19,
            "21": 20,
            "22": 6,
            "23": 6,
            "24": 6,
            "25": 24,
            "26": 0,
            "3": 0,
            "4": 3,
            "5": 0,
            "6": 5,
            "7": 6,
            "8": 6,
            "9": 6
        },
        "tidyTrace": [
            {
                "children": [
                    {
                        "children": [
                            {
                                "children": [
                                    {
                                        "children": [
                                            {
                                                "children": [
                                                    {
                                                        "children": [],
                                                        "depth": 4,
                                                        "id": 11,
                                                        "order": 11
                                                    },
                                                    {
                                                        "children": [
                                                            {
                                                                "children": [],
                                                                "depth": 5,
                                                                "id": 13,
                                                                "order": 13
                                                            }
                                                        ],
                                                        "depth": 4,
                                                        "id": 12,
                                                        "order": 12
                                                    }
                                                ],
                                                "depth": 3,
                                                "id": 10,
                                                "order": 10
                                            },
                                            {
                                                "children": [
                                                    {
                                                        "children": [],
                                                        "depth": 4,
                                                        "id": 16,
                                                        "order": 16
                                                    },
                                                    {
                                                        "children": [
                                                            {
                                                                "children": [],
                                                                "depth": 5,
                                                                "id": 18,
                                                                "order": 18
                                                            }
                                                        ],
                                                        "depth": 4,
                                                        "id": 17,
                                                        "order": 17
                                                    }
                                                ],
                                                "depth": 3,
                                                "id": 15,
                                                "order": 15
                                            },
                                            {
                                                "children": [
                                                    {
                                                        "children": [
                                                            {
                                                                "children": [],
                                                                "depth": 5,
                                                                "id": 21,
                                                                "order": 21
                                                            }
                                                        ],
                                                        "depth": 4,
                                                        "id": 20,
                                                        "order": 20
                                                    }
                                                ],
                                                "depth": 3,
                                                "id": 19,
                                                "order": 19
                                            },
                                            {
                                                "children": [],
                                                "depth": 3,
                                                "id": 23,
                                                "order": 23
                                            },
                                            {
                                                "children": [
                                                    {
                                                        "children": [],
                                                        "depth": 4,
                                                        "id": 25,
                                                        "order": 25
                                                    }
                                                ],
                                                "depth": 3,
                                                "id": 24,
                                                "order": 24
                                            }
                                        ],
                                        "depth": 2,
                                        "id": 6,
                                        "order": 6
                                    }
                                ],
                                "depth": 1,
                                "id": 5,
                                "order": 5
                            },
                            {
                                "children": [],
                                "depth": 1,
                                "id": 26,
                                "order": 26
                            }
                        ],
                        "depth": 0,
                        "id": 0,
                        "order": 0
                    }
                ],
                "depth": -1,
                "id": -1,
                "order": -1
            }
        ],
        "tidyTraceNodeCount": 18
    },
    "state_change": {
        "stateChanges": [
            {
                "address": "0xa0b86991c6218b36c1d19d4a2e9eb0ce3606eb48",
                "erc": "ERC-20",
                "slots": [
                    {
                        "current": "0xfffffffffffffffffffffffffffffffffffffffffffffffffffffff3960e557a",
                        "key": "0xd579b3e8c4ebbe8a192438f062207fc1e45413ca9d3519f8ac68cf7f4b211641",
                        "prev": "0xfffffffffffffffffffffffffffffffffffffffffffffffffffffff3e50e7031"
                    },
                    {
                        "current": "0x0000000000000000000000000000000000000000000000000000000000000000",
                        "key": "0x059bf786bd3fa8451e75e2c1802e93acf727cced2cc23a458e8e3a4501f99d12",
                        "prev": "0x000000000000000000000000000000000000000000000000000000004f001ab7"
                    },
                    {
                        "current": "0x00000000000000000000000000000000000000000000000000000000561c7875",
                        "key": "0xd431f57d8831ec8d27838d16277038aedb8989487990a8e7d3464064f8fccbd9",
                        "prev": "0x00000000000000000000000000000000000000000000000000000000071c5dbe"
                    }
                ],
                "storageVariables": [
                    {
                        "name": "balanceAndBlacklistStates",
                        "type": "mapping(address => uint256)",
                        "value": {
                            "pairs": [
                                {
                                    "key": "0x5ff8645bbc6c8b4390aa228a3e8bf08240f333b4",
                                    "value": {
                                        "current": "1444706421",
                                        "prev": "119299518",
                                        "typeTag": 1
                                    }
                                },
                                {
                                    "key": "0xb23854f52b34193343f1c33c63f69b049b5edc4b",
                                    "value": {
                                        "current": "0",
                                        "prev": "1325406903",
                                        "typeTag": 1
                                    }
                                }
                            ],
                            "typeTag": 4
                        }
                    },
                    {
                        "name": "allowed",
                        "type": "mapping(address => mapping(address => uint256))",
                        "value": {
                            "pairs": [
                                {
                                    "key": "0xb23854f52b34193343f1c33c63f69b049b5edc4b",
                                    "value": {
                                        "pairs": [
                                            {
                                                "key": "0x1231deb6f5749ef6ce6943a275a1d3e7486f4eae",
                                                "value": {
                                                    "current": "115792089237316195423570985008687907853269984665640564039457584007859812586874",
                                                    "prev": "115792089237316195423570985008687907853269984665640564039457584007861137993777",
                                                    "typeTag": 1
                                                }
                                            }
                                        ],
                                        "typeTag": 4
                                    }
                                }
                            ],
                            "typeTag": 4
                        }
                    }
                ]
            }
        ]
    }
}