{
    "balance_change": {
        "balanceChanges": [
            {
                "account": "0x7856493b59cdb1685757a6dcce12425f6a6666a0",
                "assets": [
                    {
                        "address": "0xaf88d065e77c8cc2239327c5edb3a432268e5831",
                        "amount": "162,537",
                        "iconUrl": "",
                        "isERC1155": false,
                        "isERC721": false,
                        "sign": false,
                        "value": "162390.71669999999807"
                    }
                ]
            },
            {
                "account": "0x0000000000000000000000000000000000000000",
                "assets": [
                    {
                        "address": "0xaf88d065e77c8cc2239327c5edb3a432268e5831",
                        "amount": "162,537",
                        "iconUrl": "",
                        "isERC1155": false,
                        "isERC721": false,
                        "sign": true,
                        "value": "162390.71669999999807"
                    }
                ]
            }
        ]
    },
    "profile": {
        "basic_info": {
            "baseFee": "0.01",
            "blockNumber": 204830567,
            "callData": "0x696f1894000000000000000000000000000000000000000000000000000000000000001e0000000000000000000000000000000000000000000000000000000000000060000000000000000000000000000000000000000000000000000000000000000000000000000000000000000000000000000000000000000000000000000001800000000000000000000000000000000000000000000000000000000000000006000000000000000000000000000000000000000000000000000000000000000300000000000000000000000000000000000000000000000000000000000000020000000000000000000000000000000000000000000000000000000000006010000000000000000000000000adaf1626aec26a7937ae7d1fa0664e6e0904c1d0000000000000000000000000af88d065e77c8cc2239327c5edb3a432268e583100000000000000000000000000000000000000000000000000000025d7f5cc40000000000000000000000000000000000000000000000000000000000000000100000000000000000000000027428dd2d3dd32a4d7f7c497eaaa23130d894911000000000000000000000000000000000000000000000000000000000000001e0000000000000000000000000000000000000000000000000000000000000017000000000000000000000000000000000000000000000000000000000000001e",
            "debugEnable": true,
            "errorInfo": "",
            "eventCount": 7,
            "feeRecipient": "0xa4b000000000000000000073657175656e636572",
            "formatValue": "0",
            "gasLimit": 1000000,
            "gasPrice": "0.01",
            "gasUsed": 173962,
            "intTxnCount": 15,
            "internalRevert": false,
            "internalRevertMessage": "",
            "isContractCreation": false,
            "isFlashloan": false,
            "maxFee": "10",
            "nonce": 2,
            "overwritedBlockNumber": -1,
            "priorityFee": "0",
            "receiver": "0x7856493b59cdb1685757a6dcce12425f6a6666a0",
            "revertMessage": "",
            "sender": "0xadaf1626aec26a7937ae7d1fa0664e6e0904c1d0",
            "simulationEnable": true,
            "sourceTxnHash": "0x979ad9b7f5331ea8034305a83b5cd50aea88adec395fff8298dd90eb1b87667f",
            "status": true,
            "timestamp": "2024-04-25T23:48:09Z",
            "transactionFee": "0.00000173962",
            "txnHash": "0x979ad9b7f5331ea8034305a83b5cd50aea88adec395fff8298dd90eb1b87667f",
            "txnIndex": 2,
            "type": 2,
            "value": "0"
        },
        "fund_flow": [
            {
                "amount": "162,537",
                "from": "0x7856493b59cdb1685757a6dcce12425f6a6666a0",
                "id": 1,
                "isERC1155": false,
                "isERC721": false,
                "isReverted": false,
                "order": 1,
                "to": "0xe7ed1fa7f45d05c508232aa32649d89b73b8ba48",
                "token": "0xaf88d065e77c8cc2239327c5edb3a432268e5831"
            },
            {
                "amount": "162,537",
                "from": "0xe7ed1fa7f45d05c508232aa32649d89b73b8ba48",
                "id": 2,
                "isERC1155": false,
                "isERC721": false,
                "isReverted": false,
                "order": 2,
                "to": "0x0000000000000000000000000000000000000000",
                "token": "0xaf88d065e77c8cc2239327c5edb3a432268e5831"
            }
        ],
        "token_infos": [
            {
                "address": "0x82af49447d8a07e3bd95bd0d56f35241523fbab1",
                "decimals": 18
            },
            {
                "address": "0xaf88d065e77c8cc2239327c5edb3a432268e5831",
                "decimals": 6
            },
            {
                "address": "0xeeeeeeeeeeeeeeeeeeeeeeeeeeeeeeeeeeeeeeee",
                "decimals": 18
            }
        ]
    },
    "address_label": {
        "labels": [
            {
                "address": "0xeeeeeeeeeeeeeeeeeeeeeeeeeeeeeeeeeeeeeeee",
                "label": "Ether"
            },
            {
                "address": "0x19330d10d9cc8751218eaf51e8885d058642e08a",
                "label": "TokenMessenger"
            },
            {
                "address": "0xc30362313fbba5cf9163f0bb16a0e01f01a896ca",
                "label": "MessageTransmitter"
            },
            {
                "address": "0xe189bdcfbcecec917b937247666a44ed959d81e4",
                "label": "Message"
            },
            {
                "address": "0x32e7af5a8151934f3787d0cd59eb6edd0a736b1d",
                "label": "0x32e7_RewardDistributor"
            },
            {
                "address": "0x0000000000000000000000000000000000000002",
                "label": "Precompiled"
            },
            {
                "address": "0x0000000000000000000000000000000000000003",
                "label": "Precompiled"
            },
            {
                "address": "0xe7ed1fa7f45d05c508232aa32649d89b73b8ba48",
                "label": "TokenMinter"
            },
            {
                "address": "0xaf88d065e77c8cc2239327c5edb3a432268e5831",
                "label": "Circle: USDC Token"
            },
            {
                "address": "0xbf5041fc07e1c866d15c749156657b8eed0fb649",
                "label": "0xbf50_RewardDistributor"
            },
            {
                "address": "0x86e721b43d4ecfa71119dd38c0f938a75fdb57b3",
                "label": "FiatTokenV2_2"
            },
            {
                "address": "0x0000000000000000000000000000000000000001",
                "label": "Precompiled"
            },
            {
                "address": "0x0000000000000000000000000000000000000004",
                "label": "Precompiled"
            }
        ]
    },
    "trace": {
        "accountLabels": null,
        "dataMap": {
            "-1": {
                "invocation": {
                    "address": "0xadaf1626aec26a7937ae7d1fa0664e6e0904c1d0",
                    "callData": "",
                    "decodedMethod": null,
                    "errorInfo": "",
                    "fromAddress": "",
                    "gasUsed": 0,
                    "id": -1,
                    "methodDecoded": false,
                    "operation": "",
                    "output": "",
                    "revert": false,
                    "revertMessage": "",
                    "selector": "",
                    "status": false,
                    "value": ""
                },
                "nodeType": 0
            },
            "0": {
                "invocation": {
                    "address": "0x7856493b59cdb1685757a6dcce12425f6a6666a0",
                    "callData": "0x000000000000000000000000000000000000000000000000000000000000001e0000000000000000000000000000000000000000000000000000000000000060000000000000000000000000000000000000000000000000000000000000000000000000000000000000000000000000000000000000000000000000000001800000000000000000000000000000000000000000000000000000000000000006000000000000000000000000000000000000000000000000000000000000000300000000000000000000000000000000000000000000000000000000000000020000000000000000000000000000000000000000000000000000000000006010000000000000000000000000adaf1626aec26a7937ae7d1fa0664e6e0904c1d0000000000000000000000000af88d065e77c8cc2239327c5edb3a432268e583100000000000000000000000000000000000000000000000000000025d7f5cc40000000000000000000000000000000000000000000000000000000000000000100000000000000000000000027428dd2d3dd32a4d7f7c497eaaa23130d894911000000000000000000000000000000000000000000000000000000000000001e0000000000000000000000000000000000000000000000000000000000000017000000000000000000000000000000000000000000000000000000000000001e",
                    "decodedMethod": {
                        "callParams": [
                            {
                                "name": "targetChainId",
                                "type": "uint16",
                                "value": "30"
                            },
                            {
                                "name": "payload",
                                "type": "bytes",
                                "value": "0x0000000000000000000000000000000000000000000000000000000000000006000000000000000000000000000000000000000000000000000000000000000300000000000000000000000000000000000000000000000000000000000000020000000000000000000000000000000000000000000000000000000000006010000000000000000000000000adaf1626aec26a7937ae7d1fa0664e6e0904c1d0000000000000000000000000af88d065e77c8cc2239327c5edb3a432268e583100000000000000000000000000000000000000000000000000000025d7f5cc40000000000000000000000000000000000000000000000000000000000000000100000000000000000000000027428dd2d3dd32a4d7f7c497eaaa23130d894911000000000000000000000000000000000000000000000000000000000000001e0000000000000000000000000000000000000000000000000000000000000017000000000000000000000000000000000000000000000000000000000000001e"
                            },
                            {
                                "name": "forwardCost",
                                "type": "uint256",
                                "value": "0"
                            }
                        ],
                        "constructorArguments": "",
                        "name": "pike_send",
                        "returnParams": [],
                        "signature": "pike_send(uint16,bytes,uint256)"
                    },
                    "errorInfo": "",
                    "fromAddress": "0xadaf1626aec26a7937ae7d1fa0664e6e0904c1d0",
                    "gasUsed": 173962,
                    "id": 0,
                    "methodDecoded": true,
                    "operation": "CALL",
                    "output": "",
                    "revert": false,
                    "revertMessage": "",
                    "selector": "0x696f1894",
                    "status": true,
                    "value": "0"
                },
                "nodeType": 0
            },
            "1": {
                "invocation": {
                    "address": "0x96df99293696115d2af1731b071f10dc7c676020",
                    "callData": "0x000000000000000000000000000000000000000000000000000000000000001e0000000000000000000000000000000000000000000000000000000000000060000000000000000000000000000000000000000000000000000000000000000000000000000000000000000000000000000000000000000000000000000001800000000000000000000000000000000000000000000000000000000000000006000000000000000000000000000000000000000000000000000000000000000300000000000000000000000000000000000000000000000000000000000000020000000000000000000000000000000000000000000000000000000000006010000000000000000000000000adaf1626aec26a7937ae7d1fa0664e6e0904c1d0000000000000000000000000af88d065e77c8cc2239327c5edb3a432268e583100000000000000000000000000000000000000000000000000000025d7f5cc40000000000000000000000000000000000000000000000000000000000000000100000000000000000000000027428dd2d3dd32a4d7f7c497eaaa23130d894911000000000000000000000000000000000000000000000000000000000000001e0000000000000000000000000000000000000000000000000000000000000017000000000000000000000000000000000000000000000000000000000000001e",
                    "decodedMethod": {
                        "callParams": [
                            {
                                "name": "targetChainId",
                                "type": "uint16",
                                "value": "30"
                            },
                            {
                                "name": "payload",
                                "type": "bytes",
                                "value": "0x0000000000000000000000000000000000000000000000000000000000000006000000000000000000000000000000000000000000000000000000000000000300000000000000000000000000000000000000000000000000000000000000020000000000000000000000000000000000000000000000000000000000006010000000000000000000000000adaf1626aec26a7937ae7d1fa0664e6e0904c1d0000000000000000000000000af88d065e77c8cc2239327c5edb3a432268e583100000000000000000000000000000000000000000000000000000025d7f5cc40000000000000000000000000000000000000000000000000000000000000000100000000000000000000000027428dd2d3dd32a4d7f7c497eaaa23130d894911000000000000000000000000000000000000000000000000000000000000001e0000000000000000000000000000000000000000000000000000000000000017000000000000000000000000000000000000000000000000000000000000001e"
                            },
                            {
                                "name": "forwardCost",
                                "type": "uint256",
                                "value": "0"
                            }
                        ],
                        "constructorArguments": "",
                        "name": "pike_send",
                        "returnParams": [],
                        "signature": "pike_send(uint16,bytes,uint256)"
                    },
                    "errorInfo": "",
                    "fromAddress": "0x7856493b59cdb1685757a6dcce12425f6a6666a0",
                    "gasUsed": 150695,
                    "id": 1,
                    "methodDecoded": true,
                    "operation": "DELEGATECALL",
                    "output": "",
                    "revert": false,
                    "revertMessage": "",
                    "selector": "0x696f1894",
                    "status": true,
                    "value": "0"
                },
                "nodeType": 0
            },
            "10": {
                "event": {
                    "contract": "0xaf88d065e77c8cc2239327c5edb3a432268e5831",
                    "decodedLog": {
                        "name": "Transfer",
                        "params": [
                            {
                                "name": "from",
                                "type": "address",
                                "value": "0x7856493b59cdb1685757a6dcce12425f6a6666a0"
                            },
                            {
                                "name": "to",
                                "type": "address",
                                "value": "0xe7ed1fa7f45d05c508232aa32649d89b73b8ba48"
                            },
                            {
                                "decimalAvailable": true,
                                "name": "value",
                                "type": "uint256",
                                "value": "162,537,000,000"
                            }
                        ],
                        "signature": "Transfer(address,address,uint256)"
                    },
                    "id": 10,
                    "logData": "0x00000000000000000000000000000000000000000000000000000025d7f5cc40",
                    "logDecoded": true,
                    "operation": "EVENT",
                    "revert": false,
                    "status": true,
                    "topics": [
                        "0xddf252ad1be2c89b69c2b068fc378daa952ba7f163c4a11628f55a4df523b3ef",
                        "0x0000000000000000000000007856493b59cdb1685757a6dcce12425f6a6666a0",
                        "0x000000000000000000000000e7ed1fa7f45d05c508232aa32649d89b73b8ba48"
                    ]
                },
                "nodeType": 1
            },
            "11": {
                "invocation": {
                    "address": "0xe7ed1fa7f45d05c508232aa32649d89b73b8ba48",
                    "callData": "0x000000000000000000000000af88d065e77c8cc2239327c5edb3a432268e583100000000000000000000000000000000000000000000000000000025d7f5cc40",
                    "decodedMethod": {
                        "callParams": [
                            {
                                "name": "burnToken",
                                "type": "address",
                                "value": "0xaf88d065e77c8cc2239327c5edb3a432268e5831"
                            },
                            {
                                "name": "burnAmount",
                                "type": "uint256",
                                "value": "162,537,000,000"
                            }
                        ],
                        "constructorArguments": "",
                        "name": "burn",
                        "returnParams": [],
                        "signature": "burn(address,uint256)"
                    },
                    "errorInfo": "",
                    "fromAddress": "0x19330d10d9cc8751218eaf51e8885d058642e08a",
                    "gasUsed": 20012,
                    "id": 11,
                    "methodDecoded": true,
                    "operation": "CALL",
                    "output": "",
                    "revert": false,
                    "revertMessage": "",
                    "selector": "0x9dc29fac",
                    "status": true,
                    "value": "0"
                },
                "nodeType": 0
            },
            "12": {
                "invocation": {
                    "address": "0xaf88d065e77c8cc2239327c5edb3a432268e5831",
                    "callData": "0x00000000000000000000000000000000000000000000000000000025d7f5cc40",
                    "decodedMethod": {
                        "callParams": [
                            {
                                "name": "_amount",
                                "type": "uint256",
                                "value": "162,537,000,000"
                            }
                        ],
                        "constructorArguments": "",
                        "name": "burn",
                        "returnParams": [],
                        "signature": "burn(uint256)"
                    },
                    "errorInfo": "",
                    "fromAddress": "0xe7ed1fa7f45d05c508232aa32649d89b73b8ba48",
                    "gasUsed": 12646,
                    "id": 12,
                    "methodDecoded": true,
                    "operation": "CALL",
                    "output": "",
                    "revert": false,
                    "revertMessage": "",
                    "selector": "0x42966c68",
                    "status": true,
                    "value": "0"
                },
                "nodeType": 0
            },
            "13": {
                "invocation": {
                    "address": "0x86e721b43d4ecfa71119dd38c0f938a75fdb57b3",
                    "callData": "0x00000000000000000000000000000000000000000000000000000025d7f5cc40",
                    "decodedMethod": {
                        "callParams": [
                            {
                                "name": "_amount",
                                "type": "uint256",
                                "value": "162,537,000,000"
                            }
                        ],
                        "constructorArguments": "",
                        "name": "burn",
                        "returnParams": [],
                        "signature": "burn(uint256)"
                    },
                    "errorInfo": "",
                    "fromAddress": "0xaf88d065e77c8cc2239327c5edb3a432268e5831",
                    "gasUsed": 11984,
                    "id": 13,
                    "methodDecoded": true,
                    "operation": "DELEGATECALL",
                    "output": "",
                    "revert": false,
                    "revertMessage": "",
                    "selector": "0x42966c68",
                    "status": true,
                    "value": "0"
                },
                "nodeType": 0
            },
            "14": {
                "event": {
                    "contract": "0xaf88d065e77c8cc2239327c5edb3a432268e5831",
                    "decodedLog": {
                        "name": "Burn",
                        "params": [
                            {
                                "name": "burner",
                                "type": "address",
                                "value": "0xe7ed1fa7f45d05c508232aa32649d89b73b8ba48"
                            },
                            {
                                "name": "value",
                                "type": "uint256",
                                "value": "162,537,000,000"
                            }
                        ],
                        "signature": "Burn(address,uint256)"
                    },
                    "id": 14,
                    "logData": "0x00000000000000000000000000000000000000000000000000000025d7f5cc40",
                    "logDecoded": true,
                    "operation": "EVENT",
                    "revert": false,
                    "status": true,
                    "topics": [
                        "0xcc16f5dbb4873280815c1ee09dbd06736cffcc184412cf7a71a0fdb75d397ca5",
                        "0x000000000000000000000000e7ed1fa7f45d05c508232aa32649d89b73b8ba48"
                    ]
                },
                "nodeType": 1
            },
            "15": {
                "event": {
                    "contract": "0xaf88d065e77c8cc2239327c5edb3a432268e5831",
                    "decodedLog": {
                        "name": "Transfer",
                        "params": [
                            {
                                "name": "from",
                                "type": "address",
                                "value": "0xe7ed1fa7f45d05c508232aa32649d89b73b8ba48"
                            },
                            {
                                "name": "to",
                                "type": "address",
                                "value": "0x0000000000000000000000000000000000000000"
                            },
                            {
                                "decimalAvailable": true,
                                "name": "value",
                                "type": "uint256",
                                "value": "162,537,000,000"
                            }
                        ],
                        "signature": "Transfer(address,address,uint256)"
                    },
                    "id": 15,
                    "logData": "0x00000000000000000000000000000000000000000000000000000025d7f5cc40",
                    "logDecoded": true,
                    "operation": "EVENT",
                    "revert": false,
                    "status": true,
                    "topics": [
                        "0xddf252ad1be2c89b69c2b068fc378daa952ba7f163c4a11628f55a4df523b3ef",
                        "0x000000000000000000000000e7ed1fa7f45d05c508232aa32649d89b73b8ba48",
                        "0x0000000000000000000000000000000000000000000000000000000000000000"
                    ]
                },
                "nodeType": 1
            },
            "16": {
                "invocation": {
                    "address": "0xe189bdcfbcecec917b937247666a44ed959d81e4",
                    "callData": "0x000000000000000000000000af88d065e77c8cc2239327c5edb3a432268e5831",
                    "decodedMethod": {
                        "callParams": [
                            {
                                "name": "addr",
                                "type": "address",
                                "value": "0xaf88d065e77c8cc2239327c5edb3a432268e5831"
                            }
                        ],
                        "constructorArguments": "",
                        "name": "addressToBytes32",
                        "returnParams": [
                            {
                                "name": "",
                                "type": "bytes32",
                                "value": "0x000000000000000000000000af88d065e77c8cc2239327c5edb3a432268e5831"
                            }
                        ],
                        "signature": "addressToBytes32(address)"
                    },
                    "errorInfo": "",
                    "fromAddress": "0x19330d10d9cc8751218eaf51e8885d058642e08a",
                    "gasUsed": 233,
                    "id": 16,
                    "methodDecoded": true,
                    "operation": "DELEGATECALL",
                    "output": "0x000000000000000000000000af88d065e77c8cc2239327c5edb3a432268e5831",
                    "revert": false,
                    "revertMessage": "",
                    "selector": "0x82c947b7",
                    "status": true,
                    "value": "0"
                },
                "nodeType": 0
            },
            "17": {
                "invocation": {
                    "address": "0xe189bdcfbcecec917b937247666a44ed959d81e4",
                    "callData": "0x0000000000000000000000007856493b59cdb1685757a6dcce12425f6a6666a0",
                    "decodedMethod": {
                        "callParams": [
                            {
                                "name": "addr",
                                "type": "address",
                                "value": "0x7856493b59cdb1685757a6dcce12425f6a6666a0"
                            }
                        ],
                        "constructorArguments": "",
                        "name": "addressToBytes32",
                        "returnParams": [
                            {
                                "name": "",
                                "type": "bytes32",
                                "value": "0x0000000000000000000000007856493b59cdb1685757a6dcce12425f6a6666a0"
                            }
                        ],
                        "signature": "addressToBytes32(address)"
                    },
                    "errorInfo": "",
                    "fromAddress": "0x19330d10d9cc8751218eaf51e8885d058642e08a",
                    "gasUsed": 233,
                    "id": 17,
                    "methodDecoded": true,
                    "operation": "DELEGATECALL",
                    "output": "0x0000000000000000000000007856493b59cdb1685757a6dcce12425f6a6666a0",
                    "revert": false,
                    "revertMessage": "",
                    "selector": "0x82c947b7",
                    "status": true,
                    "value": "0"
                },
                "nodeType": 0
            },
            "18": {
                "invocation": {
                    "address": "0xc30362313fbba5cf9163f0bb16a0e01f01a896ca",
                    "callData": "0x00000000000000000000000000000000000000000000000000000000000000060000000000000000000000001682ae6375c4e4a97e4b583bc394c861a46d89620000000000000000000000000000000000000000000000000000000000000060000000000000000000000000000000000000000000000000000000000000008400000000000000000000000000000000af88d065e77c8cc2239327c5edb3a432268e5831000000000000000000000000a9452ca8281556dafa4c0d3da3dcaaa18494103200000000000000000000000000000000000000000000000000000025d7f5cc400000000000000000000000007856493b59cdb1685757a6dcce12425f6a6666a000000000000000000000000000000000000000000000000000000000",
                    "decodedMethod": {
                        "callParams": [
                            {
                                "name": "destinationDomain",
                                "type": "uint32",
                                "value": "6"
                            },
                            {
                                "name": "recipient",
                                "type": "bytes32",
                                "value": "0x0000000000000000000000001682ae6375c4e4a97e4b583bc394c861a46d8962"
                            },
                            {
                                "name": "messageBody",
                                "type": "bytes",
                                "value": "0x00000000000000000000000000000000af88d065e77c8cc2239327c5edb3a432268e5831000000000000000000000000a9452ca8281556dafa4c0d3da3dcaaa18494103200000000000000000000000000000000000000000000000000000025d7f5cc400000000000000000000000007856493b59cdb1685757a6dcce12425f6a6666a0"
                            }
                        ],
                        "constructorArguments": "",
                        "name": "sendMessage",
                        "returnParams": [
                            {
                                "name": "",
                                "type": "uint64",
                                "value": "165,263"
                            }
                        ],
                        "signature": "sendMessage(uint32,bytes32,bytes)"
                    },
                    "errorInfo": "",
                    "fromAddress": "0x19330d10d9cc8751218eaf51e8885d058642e08a",
                    "gasUsed": 15838,
                    "id": 18,
                    "methodDecoded": true,
                    "operation": "CALL",
                    "output": "0x000000000000000000000000000000000000000000000000000000000002858f",
                    "revert": false,
                    "revertMessage": "",
                    "selector": "0x0ba469bc",
                    "status": true,
                    "value": "0"
                },
                "nodeType": 0
            },
            "19": {
                "invocation": {
                    "address": "0xe189bdcfbcecec917b937247666a44ed959d81e4",
                    "callData": "0x00000000000000000000000019330d10d9cc8751218eaf51e8885d058642e08a",
                    "decodedMethod": {
                        "callParams": [
                            {
                                "name": "addr",
                                "type": "address",
                                "value": "0x19330d10d9cc8751218eaf51e8885d058642e08a"
                            }
                        ],
                        "constructorArguments": "",
                        "name": "addressToBytes32",
                        "returnParams": [
                            {
                                "name": "",
                                "type": "bytes32",
                                "value": "0x00000000000000000000000019330d10d9cc8751218eaf51e8885d058642e08a"
                            }
                        ],
                        "signature": "addressToBytes32(address)"
                    },
                    "errorInfo": "",
                    "fromAddress": "0xc30362313fbba5cf9163f0bb16a0e01f01a896ca",
                    "gasUsed": 233,
                    "id": 19,
                    "methodDecoded": true,
                    "operation": "DELEGATECALL",
                    "output": "0x00000000000000000000000019330d10d9cc8751218eaf51e8885d058642e08a",
                    "revert": false,
                    "revertMessage": "",
                    "selector": "0x82c947b7",
                    "status": true,
                    "value": "0"
                },
                "nodeType": 0
            },
            "2": {
                "invocation": {
                    "address": "0xaf88d065e77c8cc2239327c5edb3a432268e5831",
                    "callData": "0x00000000000000000000000019330d10d9cc8751218eaf51e8885d058642e08a00000000000000000000000000000000000000000000000000000025d7f5cc40",
                    "decodedMethod": {
                        "callParams": [
                            {
                                "name": "spender",
                                "type": "address",
                                "value": "0x19330d10d9cc8751218eaf51e8885d058642e08a"
                            },
                            {
                                "decimalAvailable": true,
                                "name": "value",
                                "type": "uint256",
                                "value": "162,537,000,000"
                            }
                        ],
                        "constructorArguments": "",
                        "name": "approve",
                        "returnParams": [
                            {
                                "name": "",
                                "type": "bool",
                                "value": true
                            }
                        ],
                        "signature": "approve(address,uint256)"
                    },
                    "errorInfo": "",
                    "fromAddress": "0x7856493b59cdb1685757a6dcce12425f6a6666a0",
                    "gasUsed": 33841,
                    "id": 2,
                    "methodDecoded": true,
                    "operation": "CALL",
                    "output": "0x0000000000000000000000000000000000000000000000000000000000000001",
                    "revert": false,
                    "revertMessage": "",
                    "selector": "0x095ea7b3",
                    "status": true,
                    "value": "0"
                },
                "nodeType": 0
            },
            "20": {
                "event": {
                    "contract": "0xc30362313fbba5cf9163f0bb16a0e01f01a896ca",
                    "decodedLog": {
                        "name": "MessageSent",
                        "params": [
                            {
                                "name": "message",
                                "type": "bytes",
                                "value": "0x000000000000000300000006000000000002858f00000000000000000000000019330d10d9cc8751218eaf51e8885d058642e08a0000000000000000000000001682ae6375c4e4a97e4b583bc394c861a46d8962000000000000000000000000000000000000000000000000000000000000000000000000000000000000000000000000af88d065e77c8cc2239327c5edb3a432268e5831000000000000000000000000a9452ca8281556dafa4c0d3da3dcaaa18494103200000000000000000000000000000000000000000000000000000025d7f5cc400000000000000000000000007856493b59cdb1685757a6dcce12425f6a6666a0"
                            }
                        ],
                        "signature": "MessageSent(bytes)"
                    },
                    "id": 20,
                    "logData": "0x000000000000000000000000000000000000000000000000000000000000002000000000000000000000000000000000000000000000000000000000000000f8000000000000000300000006000000000002858f00000000000000000000000019330d10d9cc8751218eaf51e8885d058642e08a0000000000000000000000001682ae6375c4e4a97e4b583bc394c861a46d8962000000000000000000000000000000000000000000000000000000000000000000000000000000000000000000000000af88d065e77c8cc2239327c5edb3a432268e5831000000000000000000000000a9452ca8281556dafa4c0d3da3dcaaa18494103200000000000000000000000000000000000000000000000000000025d7f5cc400000000000000000000000007856493b59cdb1685757a6dcce12425f6a6666a00000000000000000",
                    "logDecoded": true,
                    "operation": "EVENT",
                    "revert": false,
                    "status": true,
                    "topics": [
                        "0x8c5261668696ce22758910d05bab8f186d6eb247ceac2af2e82c7dc17669b036"
                    ]
                },
                "nodeType": 1
            },
            "21": {
                "event": {
                    "contract": "0x19330d10d9cc8751218eaf51e8885d058642e08a",
                    "decodedLog": {
                        "name": "DepositForBurn",
                        "params": [
                            {
                                "name": "nonce",
                                "type": "uint64",
                                "value": "165,263"
                            },
                            {
                                "name": "burnToken",
                                "type": "address",
                                "value": "0xaf88d065e77c8cc2239327c5edb3a432268e5831"
                            },
                            {
                                "name": "depositor",
                                "type": "address",
                                "value": "0x7856493b59cdb1685757a6dcce12425f6a6666a0"
                            },
                            {
                                "name": "amount",
                                "type": "uint256",
                                "value": "162,537,000,000"
                            },
                            {
                                "name": "mintRecipient",
                                "type": "bytes32",
                                "value": "0x000000000000000000000000a9452ca8281556dafa4c0d3da3dcaaa184941032"
                            },
                            {
                                "name": "destinationDomain",
                                "type": "uint32",
                                "value": "6"
                            },
                            {
                                "name": "destinationTokenMessenger",
                                "type": "bytes32",
                                "value": "0x0000000000000000000000001682ae6375c4e4a97e4b583bc394c861a46d8962"
                            },
                            {
                                "name": "destinationCaller",
                                "type": "bytes32",
                                "value": "0x0000000000000000000000000000000000000000000000000000000000000000"
                            }
                        ],
                        "signature": "DepositForBurn(uint64,address,uint256,address,bytes32,uint32,bytes32,bytes32)"
                    },
                    "id": 21,
                    "logData": "0x00000000000000000000000000000000000000000000000000000025d7f5cc40000000000000000000000000a9452ca8281556dafa4c0d3da3dcaaa18494103200000000000000000000000000000000000000000000000000000000000000060000000000000000000000001682ae6375c4e4a97e4b583bc394c861a46d89620000000000000000000000000000000000000000000000000000000000000000",
                    "logDecoded": true,
                    "operation": "EVENT",
                    "revert": false,
                    "status": true,
                    "topics": [
                        "0x2fa9ca894982930190727e75500a97d8dc500233a5065e0f3126c48fbe0343c0",
                        "0x000000000000000000000000000000000000000000000000000000000002858f",
                        "0x000000000000000000000000af88d065e77c8cc2239327c5edb3a432268e5831",
                        "0x0000000000000000000000007856493b59cdb1685757a6dcce12425f6a6666a0"
                    ]
                },
                "nodeType": 1
            },
            "22": {
                "event": {
                    "contract": "0x7856493b59cdb1685757a6dcce12425f6a6666a0",
                    "decodedLog": {
                        "name": "OutcomingPikeMessage",
                        "params": [
                            {
                                "name": "cctpTargetChainId",
                                "type": "uint16",
                                "value": "30"
                            },
                            {
                                "name": "circleDomain",
                                "type": "uint32",
                                "value": "6"
                            },
                            {
                                "name": "user",
                                "type": "address",
                                "value": "0xadaf1626aec26a7937ae7d1fa0664e6e0904c1d0"
                            },
                            {
                                "name": "borrowAmount",
                                "type": "uint256",
                                "value": "162,537,000,000"
                            }
                        ],
                        "signature": "OutcomingPikeMessage(uint16,uint32,address,uint256)"
                    },
                    "id": 22,
                    "logData": "0x000000000000000000000000000000000000000000000000000000000000001e0000000000000000000000000000000000000000000000000000000000000006000000000000000000000000adaf1626aec26a7937ae7d1fa0664e6e0904c1d000000000000000000000000000000000000000000000000000000025d7f5cc40",
                    "logDecoded": true,
                    "operation": "EVENT",
                    "revert": false,
                    "status": true,
                    "topics": [
                        "0x7d54848b9e8a949dbad5c17c9271474a6a21385aec59cc5bdb0cd0ab2ce37e5f"
                    ]
                },
                "nodeType": 1
            },
            "3": {
                "invocation": {
                    "address": "0x86e721b43d4ecfa71119dd38c0f938a75fdb57b3",
                    "callData": "0x00000000000000000000000019330d10d9cc8751218eaf51e8885d058642e08a00000000000000000000000000000000000000000000000000000025d7f5cc40",
                    "decodedMethod": {
                        "callParams": [
                            {
                                "name": "spender",
                                "type": "address",
                                "value": "0x19330d10d9cc8751218eaf51e8885d058642e08a"
                            },
                            {
                                "decimalAvailable": true,
                                "name": "value",
                                "type": "uint256",
                                "value": "162,537,000,000"
                            }
                        ],
                        "constructorArguments": "",
                        "name": "approve",
                        "returnParams": [
                            {
                                "name": "",
                                "type": "bool",
                                "value": true
                            }
                        ],
                        "signature": "approve(address,uint256)"
                    },
                    "errorInfo": "",
                    "fromAddress": "0xaf88d065e77c8cc2239327c5edb3a432268e5831",
                    "gasUsed": 26673,
                    "id": 3,
                    "methodDecoded": true,
                    "operation": "DELEGATECALL",
                    "output": "0x0000000000000000000000000000000000000000000000000000000000000001",
                    "revert": false,
                    "revertMessage": "",
                    "selector": "0x095ea7b3",
                    "status": true,
                    "value": "0"
                },
                "nodeType": 0
            },
            "4": {
                "event": {
                    "contract": "0xaf88d065e77c8cc2239327c5edb3a432268e5831",
                    "decodedLog": {
                        "name": "Approval",
                        "params": [
                            {
                                "name": "owner",
                                "type": "address",
                                "value": "0x7856493b59cdb1685757a6dcce12425f6a6666a0"
                            },
                            {
                                "name": "spender",
                                "type": "address",
                                "value": "0x19330d10d9cc8751218eaf51e8885d058642e08a"
                            },
                            {
                                "decimalAvailable": true,
                                "name": "value",
                                "type": "uint256",
                                "value": "162,537,000,000"
                            }
                        ],
                        "signature": "Approval(address,address,uint256)"
                    },
                    "id": 4,
                    "logData": "0x00000000000000000000000000000000000000000000000000000025d7f5cc40",
                    "logDecoded": true,
                    "operation": "EVENT",
                    "revert": false,
                    "status": true,
                    "topics": [
                        "0x8c5be1e5ebec7d5bd14f71427d1e84f3dd0314c0f7b2291e5b200ac8c7c3b925",
                        "0x0000000000000000000000007856493b59cdb1685757a6dcce12425f6a6666a0",
                        "0x00000000000000000000000019330d10d9cc8751218eaf51e8885d058642e08a"
                    ]
                },
                "nodeType": 1
            },
            "5": {
                "invocation": {
                    "address": "0xaf88d065e77c8cc2239327c5edb3a432268e5831",
                    "callData": "0x0000000000000000000000007856493b59cdb1685757a6dcce12425f6a6666a0",
                    "decodedMethod": {
                        "callParams": [
                            {
                                "name": "account",
                                "type": "address",
                                "value": "0x7856493b59cdb1685757a6dcce12425f6a6666a0"
                            }
                        ],
                        "constructorArguments": "",
                        "name": "balanceOf",
                        "returnParams": [
                            {
                                "decimalAvailable": true,
                                "name": "",
                                "type": "uint256",
                                "value": "162,537,158,995"
                            }
                        ],
                        "signature": "balanceOf(address)"
                    },
                    "errorInfo": "",
                    "fromAddress": "0x7856493b59cdb1685757a6dcce12425f6a6666a0",
                    "gasUsed": 3250,
                    "id": 5,
                    "methodDecoded": true,
                    "operation": "STATICCALL",
                    "output": "0x00000000000000000000000000000000000000000000000000000025d7f83953",
                    "revert": false,
                    "revertMessage": "",
                    "selector": "0x70a08231",
                    "status": true,
                    "value": "0"
                },
                "nodeType": 0
            },
            "6": {
                "invocation": {
                    "address": "0x86e721b43d4ecfa71119dd38c0f938a75fdb57b3",
                    "callData": "0x0000000000000000000000007856493b59cdb1685757a6dcce12425f6a6666a0",
                    "decodedMethod": {
                        "callParams": [
                            {
                                "name": "account",
                                "type": "address",
                                "value": "0x7856493b59cdb1685757a6dcce12425f6a6666a0"
                            }
                        ],
                        "constructorArguments": "",
                        "name": "balanceOf",
                        "returnParams": [
                            {
                                "decimalAvailable": true,
                                "name": "",
                                "type": "uint256",
                                "value": "162,537,158,995"
                            }
                        ],
                        "signature": "balanceOf(address)"
                    },
                    "errorInfo": "",
                    "fromAddress": "0xaf88d065e77c8cc2239327c5edb3a432268e5831",
                    "gasUsed": 2553,
                    "id": 6,
                    "methodDecoded": true,
                    "operation": "DELEGATECALL",
                    "output": "0x00000000000000000000000000000000000000000000000000000025d7f83953",
                    "revert": false,
                    "revertMessage": "",
                    "selector": "0x70a08231",
                    "status": true,
                    "value": "0"
                },
                "nodeType": 0
            },
            "7": {
                "invocation": {
                    "address": "0x19330d10d9cc8751218eaf51e8885d058642e08a",
                    "callData": "0x00000000000000000000000000000000000000000000000000000025d7f5cc400000000000000000000000000000000000000000000000000000000000000006000000000000000000000000a9452ca8281556dafa4c0d3da3dcaaa184941032000000000000000000000000af88d065e77c8cc2239327c5edb3a432268e5831",
                    "decodedMethod": {
                        "callParams": [
                            {
                                "name": "amount",
                                "type": "uint256",
                                "value": "162,537,000,000"
                            },
                            {
                                "name": "destinationDomain",
                                "type": "uint32",
                                "value": "6"
                            },
                            {
                                "name": "mintRecipient",
                                "type": "bytes32",
                                "value": "0x000000000000000000000000a9452ca8281556dafa4c0d3da3dcaaa184941032"
                            },
                            {
                                "name": "burnToken",
                                "type": "address",
                                "value": "0xaf88d065e77c8cc2239327c5edb3a432268e5831"
                            }
                        ],
                        "constructorArguments": "",
                        "name": "depositForBurn",
                        "returnParams": [
                            {
                                "name": "_nonce",
                                "type": "uint64",
                                "value": "165,263"
                            }
                        ],
                        "signature": "depositForBurn(uint256,uint32,bytes32,address)"
                    },
                    "errorInfo": "",
                    "fromAddress": "0x7856493b59cdb1685757a6dcce12425f6a6666a0",
                    "gasUsed": 88300,
                    "id": 7,
                    "methodDecoded": true,
                    "operation": "CALL",
                    "output": "0x000000000000000000000000000000000000000000000000000000000002858f",
                    "revert": false,
                    "revertMessage": "",
                    "selector": "0x6fd3504e",
                    "status": true,
                    "value": "0"
                },
                "nodeType": 0
            },
            "8": {
                "invocation": {
                    "address": "0xaf88d065e77c8cc2239327c5edb3a432268e5831",
                    "callData": "0x0000000000000000000000007856493b59cdb1685757a6dcce12425f6a6666a0000000000000000000000000e7ed1fa7f45d05c508232aa32649d89b73b8ba4800000000000000000000000000000000000000000000000000000025d7f5cc40",
                    "decodedMethod": {
                        "callParams": [
                            {
                                "name": "from",
                                "type": "address",
                                "value": "0x7856493b59cdb1685757a6dcce12425f6a6666a0"
                            },
                            {
                                "name": "to",
                                "type": "address",
                                "value": "0xe7ed1fa7f45d05c508232aa32649d89b73b8ba48"
                            },
                            {
                                "decimalAvailable": true,
                                "name": "value",
                                "type": "uint256",
                                "value": "162,537,000,000"
                            }
                        ],
                        "constructorArguments": "",
                        "name": "transferFrom",
                        "returnParams": [
                            {
                                "name": "",
                                "type": "bool",
                                "value": true
                            }
                        ],
                        "signature": "transferFrom(address,address,uint256)"
                    },
                    "errorInfo": "",
                    "fromAddress": "0x19330d10d9cc8751218eaf51e8885d058642e08a",
                    "gasUsed": 33128,
                    "id": 8,
                    "methodDecoded": true,
                    "operation": "CALL",
                    "output": "0x0000000000000000000000000000000000000000000000000000000000000001",
                    "revert": false,
                    "revertMessage": "",
                    "selector": "0x23b872dd",
                    "status": true,
                    "value": "0"
                },
                "nodeType": 0
            },
            "9": {
                "invocation": {
                    "address": "0x86e721b43d4ecfa71119dd38c0f938a75fdb57b3",
                    "callData": "0x0000000000000000000000007856493b59cdb1685757a6dcce12425f6a6666a0000000000000000000000000e7ed1fa7f45d05c508232aa32649d89b73b8ba4800000000000000000000000000000000000000000000000000000025d7f5cc40",
                    "decodedMethod": {
                        "callParams": [
                            {
                                "name": "from",
                                "type": "address",
                                "value": "0x7856493b59cdb1685757a6dcce12425f6a6666a0"
                            },
                            {
                                "name": "to",
                                "type": "address",
                                "value": "0xe7ed1fa7f45d05c508232aa32649d89b73b8ba48"
                            },
                            {
                                "decimalAvailable": true,
                                "name": "value",
                                "type": "uint256",
                                "value": "162,537,000,000"
                            }
                        ],
                        "constructorArguments": "",
                        "name": "transferFrom",
                        "returnParams": [
                            {
                                "name": "",
                                "type": "bool",
                                "value": true
                            }
                        ],
                        "signature": "transferFrom(address,address,uint256)"
                    },
                    "errorInfo": "",
                    "fromAddress": "0xaf88d065e77c8cc2239327c5edb3a432268e5831",
                    "gasUsed": 32454,
                    "id": 9,
                    "methodDecoded": true,
                    "operation": "DELEGATECALL",
                    "output": "0x0000000000000000000000000000000000000000000000000000000000000001",
                    "revert": false,
                    "revertMessage": "",
                    "selector": "0x23b872dd",
                    "status": true,
                    "value": "0"
                },
                "nodeType": 0
            }
        },
        "gasFlame": [
            {
                "children": [
                    {
                        "children": [
                            {
                                "children": [
                                    {
                                        "children": [
                                            {
                                                "children": [
                                                    {
                                                        "children": [
                                                            {
                                                                "children": [],
                                                                "depth": 3,
                                                                "name": "approve",
                                                                "value": 26673
                                                            }
                                                        ],
                                                        "depth": 2,
                                                        "name": "approve",
                                                        "value": 33841
                                                    },
                                                    {
                                                        "children": [
                                                            {
                                                                "children": [],
                                                                "depth": 3,
                                                                "name": "balanceOf",
                                                                "value": 2553
                                                            }
                                                        ],
                                                        "depth": 2,
                                                        "name": "balanceOf",
                                                        "value": 3250
                                                    },
                                                    {
                                                        "children": [
                                                            {
                                                                "children": [
                                                                    {
                                                                        "children": [],
                                                                        "depth": 4,
                                                                        "name": "transferFrom",
                                                                        "value": 32454
                                                                    }
                                                                ],
                                                                "depth": 3,
                                                                "name": "transferFrom",
                                                                "value": 33128
                                                            },
                                                            {
                                                                "children": [
                                                                    {
                                                                        "children": [
                                                                            {
                                                                                "children": [],
                                                                                "depth": 5,
                                                                                "name": "burn",
                                                                                "value": 11984
                                                                            }
                                                                        ],
                                                                        "depth": 4,
                                                                        "name": "burn",
                                                                        "value": 12646
                                                                    }
                                                                ],
                                                                "depth": 3,
                                                                "name": "burn",
                                                                "value": 20012
                                                            },
                                                            {
                                                                "children": [],
                                                                "depth": 3,
                                                                "name": "addressToBytes32",
                                                                "value": 233
                                                            },
                                                            {
                                                                "children": [],
                                                                "depth": 3,
                                                                "name": "addressToBytes32",
                                                                "value": 233
                                                            },
                                                            {
                                                                "children": [
                                                                    {
                                                                        "children": [],
                                                                        "depth": 4,
                                                                        "name": "addressToBytes32",
                                                                        "value": 233
                                                                    }
                                                                ],
                                                                "depth": 3,
                                                                "name": "sendMessage",
                                                                "value": 15838
                                                            }
                                                        ],
                                                        "depth": 2,
                                                        "name": "depositForBurn",
                                                        "value": 88300
                                                    }
                                                ],
                                                "depth": 1,
                                                "name": "pike_send",
                                                "value": 150695
                                            }
                                        ],
                                        "depth": 0,
                                        "name": "L2 Executed Gas",
                                        "value": 155677
                                    },
                                    {
                                        "children": [],
                                        "depth": 0,
                                        "name": "L2 Initial Gas",
                                        "value": 24048
                                    }
                                ],
                                "depth": -1,
                                "name": "L2 Actual Gas Used",
                                "value": 179725
                            },
                            {
                                "children": [],
                                "depth": -1,
                                "name": "L2 Refunded Gas",
                                "value": 0
                            }
                        ],
                        "depth": -2,
                        "name": "L2 Total Gas",
                        "value": 179725
                    },
                    {
                        "children": [
                            {
                                "children": [],
                                "depth": -1,
                                "name": "L1 Actual Gas Used",
                                "value": 30182
                            },
                            {
                                "children": [],
                                "depth": -1,
                                "name": "L1 Refunded Gas",
                                "value": 0
                            }
                        ],
                        "depth": -2,
                        "name": "L1 Total Gas",
                        "value": 30182
                    }
                ],
                "depth": -3,
                "name": "Total Gas",
                "value": 209907
            }
        ],
        "isConfirmed": true,
        "mainTrace": [
            {
                "children": [
                    {
                        "children": [
                            {
                                "children": [
                                    {
                                        "children": [
                                            {
                                                "children": [
                                                    {
                                                        "children": [],
                                                        "depth": 4,
                                                        "id": 4,
                                                        "order": 4
                                                    }
                                                ],
                                                "depth": 3,
                                                "id": 3,
                                                "order": 3
                                            }
                                        ],
                                        "depth": 2,
                                        "id": 2,
                                        "order": 2
                                    },
                                    {
                                        "children": [
                                            {
                                                "children": [],
                                                "depth": 3,
                                                "id": 6,
                                                "order": 6
                                            }
                                        ],
                                        "depth": 2,
                                        "id": 5,
                                        "order": 5
                                    },
                                    {
                                        "children": [
                                            {
                                                "children": [
                                                    {
                                                        "children": [
                                                            {
                                                                "children": [],
                                                                "depth": 5,
                                                                "id": 10,
                                                                "order": 10
                                                            }
                                                        ],
                                                        "depth": 4,
                                                        "id": 9,
                                                        "order": 9
                                                    }
                                                ],
                                                "depth": 3,
                                                "id": 8,
                                                "order": 8
                                            },
                                            {
                                                "children": [
                                                    {
                                                        "children": [
                                                            {
                                                                "children": [
                                                                    {
                                                                        "children": [],
                                                                        "depth": 6,
                                                                        "id": 14,
                                                                        "order": 14
                                                                    },
                                                                    {
                                                                        "children": [],
                                                                        "depth": 6,
                                                                        "id": 15,
                                                                        "order": 15
                                                                    }
                                                                ],
                                                                "depth": 5,
                                                                "id": 13,
                                                                "order": 13
                                                            }
                                                        ],
                                                        "depth": 4,
                                                        "id": 12,
                                                        "order": 12
                                                    }
                                                ],
                                                "depth": 3,
                                                "id": 11,
                                                "order": 11
                                            },
                                            {
                                                "children": [],
                                                "depth": 3,
                                                "id": 16,
                                                "order": 16
                                            },
                                            {
                                                "children": [],
                                                "depth": 3,
                                                "id": 17,
                                                "order": 17
                                            },
                                            {
                                                "children": [
                                                    {
                                                        "children": [],
                                                        "depth": 4,
                                                        "id": 19,
                                                        "order": 19
                                                    },
                                                    {
                                                        "children": [],
                                                        "depth": 4,
                                                        "id": 20,
                                                        "order": 20
                                                    }
                                                ],
                                                "depth": 3,
                                                "id": 18,
                                                "order": 18
                                            },
                                            {
                                                "children": [],
                                                "depth": 3,
                                                "id": 21,
                                                "order": 21
                                            }
                                        ],
                                        "depth": 2,
                                        "id": 7,
                                        "order": 7
                                    },
                                    {
                                        "children": [],
                                        "depth": 2,
                                        "id": 22,
                                        "order": 22
                                    }
                                ],
                                "depth": 1,
                                "id": 1,
                                "order": 1
                            }
                        ],
                        "depth": 0,
                        "id": 0,
                        "order": 0
                    }
                ],
                "depth": -1,
                "id": -1,
                "order": -1
            }
        ],
        "mainTraceNodeCount": 23,
        "parentIdMap": {
            "0": -1,
            "1": 0,
            "10": 9,
            "11": 7,
            "12": 11,
            "13": 12,
            "14": 13,
            "15": 13,
            "16": 7,
            "17": 7,
            "18": 7,
            "19": 18,
            "2": 1,
            "20": 18,
            "21": 7,
            "22": 1,
            "3": 2,
            "4": 3,
            "5": 1,
            "6": 5,
            "7": 1,
            "8": 7,
            "9": 8
        },
        "tidyTrace": [
            {
                "children": [
                    {
                        "children": [
                            {
                                "children": [
                                    {
                                        "children": [
                                            {
                                                "children": [
                                                    {
                                                        "children": [],
                                                        "depth": 4,
                                                        "id": 4,
                                                        "order": 4
                                                    }
                                                ],
                                                "depth": 3,
                                                "id": 3,
                                                "order": 3
                                            }
                                        ],
                                        "depth": 2,
                                        "id": 2,
                                        "order": 2
                                    },
                                    {
                                        "children": [
                                            {
                                                "children": [
                                                    {
                                                        "children": [
                                                            {
                                                                "children": [],
                                                                "depth": 5,
                                                                "id": 10,
                                                                "order": 10
                                                            }
                                                        ],
                                                        "depth": 4,
                                                        "id": 9,
                                                        "order": 9
                                                    }
                                                ],
                                                "depth": 3,
                                                "id": 8,
                                                "order": 8
                                            },
                                            {
                                                "children": [
                                                    {
                                                        "children": [
                                                            {
                                                                "children": [
                                                                    {
                                                                        "children": [],
                                                                        "depth": 6,
                                                                        "id": 14,
                                                                        "order": 14
                                                                    },
                                                                    {
                                                                        "children": [],
                                                                        "depth": 6,
                                                                        "id": 15,
                                                                        "order": 15
                                                                    }
                                                                ],
                                                                "depth": 5,
                                                                "id": 13,
                                                                "order": 13
                                                            }
                                                        ],
                                                        "depth": 4,
                                                        "id": 12,
                                                        "order": 12
                                                    }
                                                ],
                                                "depth": 3,
                                                "id": 11,
                                                "order": 11
                                            },
                                            {
                                                "children": [],
                                                "depth": 3,
                                                "id": 16,
                                                "order": 16
                                            },
                                            {
                                                "children": [],
                                                "depth": 3,
                                                "id": 17,
                                                "order": 17
                                            },
                                            {
                                                "children": [
                                                    {
                                                        "children": [],
                                                        "depth": 4,
                                                        "id": 19,
                                                        "order": 19
                                                    },
                                                    {
                                                        "children": [],
                                                        "depth": 4,
                                                        "id": 20,
                                                        "order": 20
                                                    }
                                                ],
                                                "depth": 3,
                                                "id": 18,
                                                "order": 18
                                            },
                                            {
                                                "children": [],
                                                "depth": 3,
                                                "id": 21,
                                                "order": 21
                                            }
                                        ],
                                        "depth": 2,
                                        "id": 7,
                                        "order": 7
                                    },
                                    {
                                        "children": [],
                                        "depth": 2,
                                        "id": 22,
                                        "order": 22
                                    }
                                ],
                                "depth": 1,
                                "id": 1,
                                "order": 1
                            }
                        ],
                        "depth": 0,
                        "id": 0,
                        "order": 0
                    }
                ],
                "depth": -1,
                "id": -1,
                "order": -1
            }
        ],
        "tidyTraceNodeCount": 21
    },
    "state_change": {
        "stateChanges": [
            {
                "address": "0xaf88d065e77c8cc2239327c5edb3a432268e5831",
                "erc": "ERC-20",
                "slots": [
                    {
                        "current": "0x0000000000000000000000000000000000000000000000000000000000026d13",
                        "key": "0x8dc987dbd3868034b27d5c1d093258bbab4e01c1e0159097a0fe99519d488a96",
                        "prev": "0x00000000000000000000000000000000000000000000000000000025d7f83953"
                    },
                    {
                        "current": "0x00000000000000000000000000000000000000000000000000040a3000184563",
                        "key": "0x000000000000000000000000000000000000000000000000000000000000000b",
                        "prev": "0x00000000000000000000000000000000000000000000000000040a55d80e11a3"
                    }
                ],
                "storageVariables": [
                    {
                        "name": "totalSupply_",
                        "type": "uint256",
                        "value": {
                            "current": "1137101183141219",
                            "prev": "1137263720141219",
                            "typeTag": 1
                        }
                    },
                    {
                        "name": "balanceAndBlacklistStates",
                        "type": "mapping(address => uint256)",
                        "value": {
                            "pairs": [
                                {
                                    "key": "0x7856493b59cdb1685757a6dcce12425f6a6666a0",
                                    "value": {
                                        "current": "158995",
                                        "prev": "162537158995",
                                        "typeTag": 1
                                    }
                                }
                            ],
                            "typeTag": 4
                        }
                    }
                ]
            },
            {
                "address": "0xc30362313fbba5cf9163f0bb16a0e01f01a896ca",
                "erc": "",
                "slots": [
                    {
                        "current": "0x0000000000000000000000000000000000000000000000000000000000028590",
                        "key": "0x0000000000000000000000000000000000000000000000000000000000000009",
                        "prev": "0x000000000000000000000000000000000000000000000000000000000002858f"
                    }
                ],
                "storageVariables": [
                    {
                        "name": "nextAvailableNonce",
                        "type": "uint64",
                        "value": {
                            "current": "165264",
                            "prev": "165263",
                            "typeTag": 1
                        }
                    }
                ]
            }
        ]
    }
}