{
    "balance_change": {
        "balanceChanges": [
            {
                "account": "0x3026c464d3bd6ef0ced0d49e80f171b58176ce32",
                "assets": [
                    {
                        "address": "0x55d398326f99059ff775485246999027b3197955",
                        "amount": "56,450.70967988634",
                        "iconUrl": "https://assets.blocksec.com/icon/810ebed5-1cb7-4a60-827d-c7eb0c438c0e.png",
                        "isERC1155": false,
                        "isERC721": false,
                        "sign": true,
                        "value": "56443.37109"
                    }
                ]
            },
            {
                "account": "0x88f9e1799465655f0dd206093dbd08922a1d9e28",
                "assets": [
                    {
                        "address": "0x94441698165fb7e132e207800b3ea57e34c93a72",
                        "amount": "18,700,116",
                        "iconUrl": "",
                        "isERC1155": false,
                        "isERC721": false,
                        "sign": true,
                        "value": ""
                    }
                ]
            },
            {
                "account": "0x2b45dd1d909c01aad96fa6b67108d691b432f351",
                "assets": [
                    {
                        "address": "0x55d398326f99059ff775485246999027b3197955",
                        "amount": "57,445.20967988634",
                        "iconUrl": "https://assets.blocksec.com/icon/810ebed5-1cb7-4a60-827d-c7eb0c438c0e.png",
                        "isERC1155": false,
                        "isERC721": false,
                        "sign": false,
                        "value": "57437.7418"
                    },
                    {
                        "address": "0x94441698165fb7e132e207800b3ea57e34c93a72",
                        "amount": "18,700,116",
                        "iconUrl": "",
                        "isERC1155": false,
                        "isERC721": false,
                        "sign": false,
                        "value": ""
                    }
                ]
            },
            {
                "account": "0x36696169c63e42cd08ce11f5deebbcebae652050",
                "assets": [
                    {
                        "address": "0x55d398326f99059ff775485246999027b3197955",
                        "amount": "994.5",
                        "iconUrl": "https://assets.blocksec.com/icon/810ebed5-1cb7-4a60-827d-c7eb0c438c0e.png",
                        "isERC1155": false,
                        "isERC721": false,
                        "sign": true,
                        "value": "994.370715"
                    }
                ]
            }
        ]
    },
    "profile": {
        "basic_info": {
            "baseFee": "0",
            "blockNumber": 40378160,
            "callData": "0x3409180200000000000000000000000036696169c63e42cd08ce11f5deebbcebae652050000000000000000000000000000000000000000000019cedb639a935c6c000000000000000000000000000002b45dd1d909c01aad96fa6b67108d691b432f3510000000000000000000000000000000000000000000000000000000001312d0000000000000000000000000000000000000000000000000000000000001e0352",
            "debugEnable": true,
            "errorInfo": "",
            "eventCount": 13,
            "feeRecipient": "0x8a239732871adc8829ea2f47e94087c5fbad47b6",
            "formatValue": "0",
            "gasLimit": 1021611,
            "gasPrice": "3",
            "gasUsed": 488461,
            "intTxnCount": 27,
            "internalRevert": false,
            "internalRevertMessage": "",
            "isContractCreation": false,
            "isFlashloan": true,
            "maxFee": "3",
            "nonce": 163,
            "overwritedBlockNumber": -1,
            "priorityFee": "3",
            "receiver": "0x88f9e1799465655f0dd206093dbd08922a1d9e28",
            "revertMessage": "",
            "sender": "0x3026c464d3bd6ef0ced0d49e80f171b58176ce32",
            "simulationEnable": true,
            "sourceTxnHash": "0x9a8c4c4edb7a76ecfa935780124c409f83a08d15c560bb67302182f8969be20d",
            "status": true,
            "timestamp": "2024-07-11T11:24:29Z",
            "transactionFee": "0.001465383",
            "txnHash": "0x9a8c4c4edb7a76ecfa935780124c409f83a08d15c560bb67302182f8969be20d",
            "txnIndex": 75,
            "type": 2,
            "value": "0"
        },
        "fund_flow": [
            {
                "amount": "1,950,000",
                "from": "0x36696169c63e42cd08ce11f5deebbcebae652050",
                "id": 1,
                "isERC1155": false,
                "isERC721": false,
                "isReverted": false,
                "order": 1,
                "to": "0x88f9e1799465655f0dd206093dbd08922a1d9e28",
                "token": "0x55d398326f99059ff775485246999027b3197955"
            },
            {
                "amount": "1,909,484.79032011366",
                "from": "0x88f9e1799465655f0dd206093dbd08922a1d9e28",
                "id": 2,
                "isERC1155": false,
                "isERC721": false,
                "isReverted": false,
                "order": 2,
                "to": "0x2b45dd1d909c01aad96fa6b67108d691b432f351",
                "token": "0x55d398326f99059ff775485246999027b3197955"
            },
            {
                "amount": "20,000,000",
                "from": "0x2b45dd1d909c01aad96fa6b67108d691b432f351",
                "id": 3,
                "isERC1155": false,
                "isERC721": false,
                "isReverted": false,
                "order": 3,
                "to": "0x88f9e1799465655f0dd206093dbd08922a1d9e28",
                "token": "0x94441698165fb7e132e207800b3ea57e34c93a72"
            },
            {
                "amount": "1,299,884",
                "from": "0x88f9e1799465655f0dd206093dbd08922a1d9e28",
                "id": 4,
                "isERC1155": false,
                "isERC721": false,
                "isReverted": false,
                "order": 4,
                "to": "0x2b45dd1d909c01aad96fa6b67108d691b432f351",
                "token": "0x94441698165fb7e132e207800b3ea57e34c93a72"
            },
            {
                "amount": "1,966,930",
                "from": "0x2b45dd1d909c01aad96fa6b67108d691b432f351",
                "id": 5,
                "isERC1155": false,
                "isERC721": false,
                "isReverted": false,
                "order": 5,
                "to": "0x88f9e1799465655f0dd206093dbd08922a1d9e28",
                "token": "0x55d398326f99059ff775485246999027b3197955"
            },
            {
                "amount": "1,950,994.5",
                "from": "0x88f9e1799465655f0dd206093dbd08922a1d9e28",
                "id": 6,
                "isERC1155": false,
                "isERC721": false,
                "isReverted": false,
                "order": 6,
                "to": "0x36696169c63e42cd08ce11f5deebbcebae652050",
                "token": "0x55d398326f99059ff775485246999027b3197955"
            },
            {
                "amount": "56,450.70967988634",
                "from": "0x88f9e1799465655f0dd206093dbd08922a1d9e28",
                "id": 7,
                "isERC1155": false,
                "isERC721": false,
                "isReverted": false,
                "order": 7,
                "to": "0x3026c464d3bd6ef0ced0d49e80f171b58176ce32",
                "token": "0x55d398326f99059ff775485246999027b3197955"
            }
        ],
        "token_infos": [
            {
                "address": "0xbb4cdb9cbd36b01bd1cbaebf2de08d9173bc095c",
                "decimals": 18
            },
            {
                "address": "0xeeeeeeeeeeeeeeeeeeeeeeeeeeeeeeeeeeeeeeee",
                "decimals": 18
            },
            {
                "address": "0x55d398326f99059ff775485246999027b3197955",
                "decimals": 18
            },
            {
                "address": "0x94441698165fb7e132e207800b3ea57e34c93a72",
                "decimals": 18
            }
        ]
    },
    "address_label": {
        "labels": [
            {
                "address": "0x0000000000000000000000000000000000000001",
                "label": "Precompiled"
            },
            {
                "address": "0x0000000000000000000000000000000000000002",
                "label": "Precompiled"
            },
            {
                "address": "0x0000000000000000000000000000000000000003",
                "label": "Precompiled"
            },
            {
                "address": "0xeeeeeeeeeeeeeeeeeeeeeeeeeeeeeeeeeeeeeeee",
                "label": "BNB"
            },
            {
                "address": "0xbb4cdb9cbd36b01bd1cbaebf2de08d9173bc095c",
                "label": "Wrapped BNB"
            },
            {
                "address": "0x36696169c63e42cd08ce11f5deebbcebae652050",
                "label": "PancakeV3Pool"
            },
            {
                "address": "0x55d398326f99059ff775485246999027b3197955",
                "label": "BUSD-T Stablecoin"
            },
            {
                "address": "0x94441698165fb7e132e207800b3ea57e34c93a72",
                "label": "(SBT)"
            },
            {
                "address": "0x2b45dd1d909c01aad96fa6b67108d691b432f351",
                "label": "Smart_Bank"
            },
            {
                "address": "0x0000000000000000000000000000000000000004",
                "label": "Precompiled"
            }
        ]
    },
    "trace": {
        "accountLabels": null,
        "dataMap": {
            "-1": {
                "invocation": {
                    "address": "0x3026c464d3bd6ef0ced0d49e80f171b58176ce32",
                    "callData": "",
                    "decodedMethod": null,
                    "errorInfo": "",
                    "fromAddress": "",
                    "gasUsed": 0,
                    "id": -1,
                    "methodDecoded": false,
                    "operation": "",
                    "output": "",
                    "revert": false,
                    "revertMessage": "",
                    "selector": "",
                    "status": false,
                    "value": ""
                },
                "nodeType": 0
            },
            "0": {
                "invocation": {
                    "address": "0x88f9e1799465655f0dd206093dbd08922a1d9e28",
                    "callData": "0x00000000000000000000000036696169c63e42cd08ce11f5deebbcebae652050000000000000000000000000000000000000000000019cedb639a935c6c000000000000000000000000000002b45dd1d909c01aad96fa6b67108d691b432f3510000000000000000000000000000000000000000000000000000000001312d0000000000000000000000000000000000000000000000000000000000001e0352",
                    "decodedMethod": null,
                    "errorInfo": "",
                    "fromAddress": "0x3026c464d3bd6ef0ced0d49e80f171b58176ce32",
                    "gasUsed": 488461,
                    "id": 0,
                    "methodDecoded": false,
                    "operation": "CALL",
                    "output": "",
                    "revert": false,
                    "revertMessage": "",
                    "selector": "0x34091802",
                    "status": true,
                    "value": "0"
                },
                "nodeType": 0
            },
            "1": {
                "invocation": {
                    "address": "0x36696169c63e42cd08ce11f5deebbcebae652050",
                    "callData": "0x00000000000000000000000088f9e1799465655f0dd206093dbd08922a1d9e28000000000000000000000000000000000000000000019cedb639a935c6c00000000000000000000000000000000000000000000000000000000000000000000000000000000000000000000000000000000000000000000000000000000000800000000000000000000000000000000000000000000000000000000000000000",
                    "decodedMethod": {
                        "callParams": [
                            {
                                "name": "recipient",
                                "type": "address",
                                "value": "0x88f9e1799465655f0dd206093dbd08922a1d9e28"
                            },
                            {
                                "name": "amount0",
                                "type": "uint256",
                                "value": "1,950,000,000,000,000,000,000,000"
                            },
                            {
                                "name": "amount1",
                                "type": "uint256",
                                "value": "0"
                            },
                            {
                                "name": "data",
                                "type": "bytes",
                                "value": "0x"
                            }
                        ],
                        "constructorArguments": "",
                        "name": "flash",
                        "returnParams": [],
                        "signature": "flash(address,uint256,uint256,bytes)"
                    },
                    "errorInfo": "",
                    "fromAddress": "0x88f9e1799465655f0dd206093dbd08922a1d9e28",
                    "gasUsed": 417563,
                    "id": 1,
                    "methodDecoded": true,
                    "operation": "CALL",
                    "output": "",
                    "revert": false,
                    "revertMessage": "",
                    "selector": "0x490e6cbc",
                    "status": true,
                    "value": "0"
                },
                "nodeType": 0
            },
            "10": {
                "invocation": {
                    "address": "0x94441698165fb7e132e207800b3ea57e34c93a72",
                    "callData": "0x0000000000000000000000002b45dd1d909c01aad96fa6b67108d691b432f35100000000000000000000000000000000000004ee2d6d415b85acef8100000000",
                    "decodedMethod": {
                        "callParams": [
                            {
                                "name": "spender",
                                "type": "address",
                                "value": "0x2b45dd1d909c01aad96fa6b67108d691b432f351"
                            },
                            {
                                "decimalAvailable": true,
                                "name": "amount",
                                "type": "uint256",
                                "value": "100,000,000,000,000,000,000,000,000,000,000"
                            }
                        ],
                        "constructorArguments": "",
                        "name": "approve",
                        "returnParams": [
                            {
                                "name": "",
                                "type": "bool",
                                "value": true
                            }
                        ],
                        "signature": "approve(address,uint256)"
                    },
                    "errorInfo": "",
                    "fromAddress": "0x88f9e1799465655f0dd206093dbd08922a1d9e28",
                    "gasUsed": 24620,
                    "id": 10,
                    "methodDecoded": true,
                    "operation": "CALL",
                    "output": "0x0000000000000000000000000000000000000000000000000000000000000001",
                    "revert": false,
                    "revertMessage": "",
                    "selector": "0x095ea7b3",
                    "status": true,
                    "value": "0"
                },
                "nodeType": 0
            },
            "11": {
                "event": {
                    "contract": "0x94441698165fb7e132e207800b3ea57e34c93a72",
                    "decodedLog": {
                        "name": "Approval",
                        "params": [
                            {
                                "name": "owner",
                                "type": "address",
                                "value": "0x88f9e1799465655f0dd206093dbd08922a1d9e28"
                            },
                            {
                                "name": "spender",
                                "type": "address",
                                "value": "0x2b45dd1d909c01aad96fa6b67108d691b432f351"
                            },
                            {
                                "decimalAvailable": true,
                                "name": "value",
                                "type": "uint256",
                                "value": "100,000,000,000,000,000,000,000,000,000,000"
                            }
                        ],
                        "signature": "Approval(address,address,uint256)"
                    },
                    "id": 11,
                    "logData": "0x00000000000000000000000000000000000004ee2d6d415b85acef8100000000",
                    "logDecoded": true,
                    "operation": "EVENT",
                    "revert": false,
                    "status": true,
                    "topics": [
                        "0x8c5be1e5ebec7d5bd14f71427d1e84f3dd0314c0f7b2291e5b200ac8c7c3b925",
                        "0x00000000000000000000000088f9e1799465655f0dd206093dbd08922a1d9e28",
                        "0x0000000000000000000000002b45dd1d909c01aad96fa6b67108d691b432f351"
                    ]
                },
                "nodeType": 1
            },
            "12": {
                "invocation": {
                    "address": "0x55d398326f99059ff775485246999027b3197955",
                    "callData": "0x0000000000000000000000002b45dd1d909c01aad96fa6b67108d691b432f35100000000000000000000000000000000000004ee2d6d415b85acef8100000000",
                    "decodedMethod": {
                        "callParams": [
                            {
                                "name": "spender",
                                "type": "address",
                                "value": "0x2b45dd1d909c01aad96fa6b67108d691b432f351"
                            },
                            {
                                "decimalAvailable": true,
                                "name": "amount",
                                "type": "uint256",
                                "value": "100,000,000,000,000,000,000,000,000,000,000"
                            }
                        ],
                        "constructorArguments": "",
                        "name": "approve",
                        "returnParams": [
                            {
                                "name": "",
                                "type": "bool",
                                "value": true
                            }
                        ],
                        "signature": "approve(address,uint256)"
                    },
                    "errorInfo": "",
                    "fromAddress": "0x88f9e1799465655f0dd206093dbd08922a1d9e28",
                    "gasUsed": 24562,
                    "id": 12,
                    "methodDecoded": true,
                    "operation": "CALL",
                    "output": "0x0000000000000000000000000000000000000000000000000000000000000001",
                    "revert": false,
                    "revertMessage": "",
                    "selector": "0x095ea7b3",
                    "status": true,
                    "value": "0"
                },
                "nodeType": 0
            },
            "13": {
                "event": {
                    "contract": "0x55d398326f99059ff775485246999027b3197955",
                    "decodedLog": {
                        "name": "Approval",
                        "params": [
                            {
                                "name": "owner",
                                "type": "address",
                                "value": "0x88f9e1799465655f0dd206093dbd08922a1d9e28"
                            },
                            {
                                "name": "spender",
                                "type": "address",
                                "value": "0x2b45dd1d909c01aad96fa6b67108d691b432f351"
                            },
                            {
                                "decimalAvailable": true,
                                "name": "value",
                                "type": "uint256",
                                "value": "100,000,000,000,000,000,000,000,000,000,000"
                            }
                        ],
                        "signature": "Approval(address,address,uint256)"
                    },
                    "id": 13,
                    "logData": "0x00000000000000000000000000000000000004ee2d6d415b85acef8100000000",
                    "logDecoded": true,
                    "operation": "EVENT",
                    "revert": false,
                    "status": true,
                    "topics": [
                        "0x8c5be1e5ebec7d5bd14f71427d1e84f3dd0314c0f7b2291e5b200ac8c7c3b925",
                        "0x00000000000000000000000088f9e1799465655f0dd206093dbd08922a1d9e28",
                        "0x0000000000000000000000002b45dd1d909c01aad96fa6b67108d691b432f351"
                    ]
                },
                "nodeType": 1
            },
            "14": {
                "invocation": {
                    "address": "0x2b45dd1d909c01aad96fa6b67108d691b432f351",
                    "callData": "0x",
                    "decodedMethod": {
                        "callParams": [],
                        "constructorArguments": "",
                        "name": "_Start",
                        "returnParams": [],
                        "signature": "_Start()"
                    },
                    "errorInfo": "",
                    "fromAddress": "0x88f9e1799465655f0dd206093dbd08922a1d9e28",
                    "gasUsed": 28498,
                    "id": 14,
                    "methodDecoded": true,
                    "operation": "CALL",
                    "output": "",
                    "revert": false,
                    "revertMessage": "",
                    "selector": "0x5113d7f6",
                    "status": true,
                    "value": "0"
                },
                "nodeType": 0
            },
            "15": {
                "invocation": {
                    "address": "0x55d398326f99059ff775485246999027b3197955",
                    "callData": "0x0000000000000000000000002b45dd1d909c01aad96fa6b67108d691b432f351",
                    "decodedMethod": {
                        "callParams": [
                            {
                                "name": "account",
                                "type": "address",
                                "value": "0x2b45dd1d909c01aad96fa6b67108d691b432f351"
                            }
                        ],
                        "constructorArguments": "",
                        "name": "balanceOf",
                        "returnParams": [
                            {
                                "decimalAvailable": true,
                                "name": "",
                                "type": "uint256",
                                "value": "1,007,455,165,109,033,599,609,515"
                            }
                        ],
                        "signature": "balanceOf(address)"
                    },
                    "errorInfo": "",
                    "fromAddress": "0x2b45dd1d909c01aad96fa6b67108d691b432f351",
                    "gasUsed": 531,
                    "id": 15,
                    "methodDecoded": true,
                    "operation": "STATICCALL",
                    "output": "0x00000000000000000000000000000000000000000000d5564101dc6fcb05aaab",
                    "revert": false,
                    "revertMessage": "",
                    "selector": "0x70a08231",
                    "status": true,
                    "value": "0"
                },
                "nodeType": 0
            },
            "16": {
                "invocation": {
                    "address": "0x2b45dd1d909c01aad96fa6b67108d691b432f351",
                    "callData": "0x0000000000000000000000000000000000000000000000000000000001312d00",
                    "decodedMethod": {
                        "callParams": [
                            {
                                "name": "_SBT_",
                                "type": "uint256",
                                "value": "20,000,000"
                            }
                        ],
                        "constructorArguments": "",
                        "name": "Buy_SBT",
                        "returnParams": [],
                        "signature": "Buy_SBT(uint256)"
                    },
                    "errorInfo": "",
                    "fromAddress": "0x88f9e1799465655f0dd206093dbd08922a1d9e28",
                    "gasUsed": 66767,
                    "id": 16,
                    "methodDecoded": true,
                    "operation": "CALL",
                    "output": "",
                    "revert": false,
                    "revertMessage": "",
                    "selector": "0x4eda1f98",
                    "status": true,
                    "value": "0"
                },
                "nodeType": 0
            },
            "17": {
                "invocation": {
                    "address": "0x94441698165fb7e132e207800b3ea57e34c93a72",
                    "callData": "0x0000000000000000000000002b45dd1d909c01aad96fa6b67108d691b432f351",
                    "decodedMethod": {
                        "callParams": [
                            {
                                "name": "account",
                                "type": "address",
                                "value": "0x2b45dd1d909c01aad96fa6b67108d691b432f351"
                            }
                        ],
                        "constructorArguments": "",
                        "name": "balanceOf",
                        "returnParams": [
                            {
                                "decimalAvailable": true,
                                "name": "",
                                "type": "uint256",
                                "value": "20,999,916,430,830,343,150,012,642"
                            }
                        ],
                        "signature": "balanceOf(address)"
                    },
                    "errorInfo": "",
                    "fromAddress": "0x2b45dd1d909c01aad96fa6b67108d691b432f351",
                    "gasUsed": 2607,
                    "id": 17,
                    "methodDecoded": true,
                    "operation": "STATICCALL",
                    "output": "0x000000000000000000000000000000000000000000115ee7c0357a75621a88e2",
                    "revert": false,
                    "revertMessage": "",
                    "selector": "0x70a08231",
                    "status": true,
                    "value": "0"
                },
                "nodeType": 0
            },
            "18": {
                "invocation": {
                    "address": "0x55d398326f99059ff775485246999027b3197955",
                    "callData": "0x0000000000000000000000002b45dd1d909c01aad96fa6b67108d691b432f351",
                    "decodedMethod": {
                        "callParams": [
                            {
                                "name": "account",
                                "type": "address",
                                "value": "0x2b45dd1d909c01aad96fa6b67108d691b432f351"
                            }
                        ],
                        "constructorArguments": "",
                        "name": "balanceOf",
                        "returnParams": [
                            {
                                "decimalAvailable": true,
                                "name": "",
                                "type": "uint256",
                                "value": "1,007,455,165,109,033,599,609,515"
                            }
                        ],
                        "signature": "balanceOf(address)"
                    },
                    "errorInfo": "",
                    "fromAddress": "0x2b45dd1d909c01aad96fa6b67108d691b432f351",
                    "gasUsed": 531,
                    "id": 18,
                    "methodDecoded": true,
                    "operation": "STATICCALL",
                    "output": "0x00000000000000000000000000000000000000000000d5564101dc6fcb05aaab",
                    "revert": false,
                    "revertMessage": "",
                    "selector": "0x70a08231",
                    "status": true,
                    "value": "0"
                },
                "nodeType": 0
            },
            "19": {
                "invocation": {
                    "address": "0x55d398326f99059ff775485246999027b3197955",
                    "callData": "0x00000000000000000000000088f9e1799465655f0dd206093dbd08922a1d9e280000000000000000000000002b45dd1d909c01aad96fa6b67108d691b432f35100000000000000000000000000000000000000000000cb2dc6532bda33fcf700",
                    "decodedMethod": {
                        "callParams": [
                            {
                                "name": "sender",
                                "type": "address",
                                "value": "0x88f9e1799465655f0dd206093dbd08922a1d9e28"
                            },
                            {
                                "name": "recipient",
                                "type": "address",
                                "value": "0x2b45dd1d909c01aad96fa6b67108d691b432f351"
                            },
                            {
                                "decimalAvailable": true,
                                "name": "amount",
                                "type": "uint256",
                                "value": "959,484,790,320,113,660,000,000"
                            }
                        ],
                        "constructorArguments": "",
                        "name": "transferFrom",
                        "returnParams": [
                            {
                                "name": "",
                                "type": "bool",
                                "value": true
                            }
                        ],
                        "signature": "transferFrom(address,address,uint256)"
                    },
                    "errorInfo": "",
                    "fromAddress": "0x2b45dd1d909c01aad96fa6b67108d691b432f351",
                    "gasUsed": 6034,
                    "id": 19,
                    "methodDecoded": true,
                    "operation": "CALL",
                    "output": "0x0000000000000000000000000000000000000000000000000000000000000001",
                    "revert": false,
                    "revertMessage": "",
                    "selector": "0x23b872dd",
                    "status": true,
                    "value": "0"
                },
                "nodeType": 0
            },
            "2": {
                "invocation": {
                    "address": "0x55d398326f99059ff775485246999027b3197955",
                    "callData": "0x00000000000000000000000036696169c63e42cd08ce11f5deebbcebae652050",
                    "decodedMethod": {
                        "callParams": [
                            {
                                "name": "account",
                                "type": "address",
                                "value": "0x36696169c63e42cd08ce11f5deebbcebae652050"
                            }
                        ],
                        "constructorArguments": "",
                        "name": "balanceOf",
                        "returnParams": [
                            {
                                "decimalAvailable": true,
                                "name": "",
                                "type": "uint256",
                                "value": "36,133,491,513,892,207,520,461,026"
                            }
                        ],
                        "signature": "balanceOf(address)"
                    },
                    "errorInfo": "",
                    "fromAddress": "0x36696169c63e42cd08ce11f5deebbcebae652050",
                    "gasUsed": 2531,
                    "id": 2,
                    "methodDecoded": true,
                    "operation": "STATICCALL",
                    "output": "0x0000000000000000000000000000000000000000001de3907ffc3a06cc0530e2",
                    "revert": false,
                    "revertMessage": "",
                    "selector": "0x70a08231",
                    "status": true,
                    "value": "0"
                },
                "nodeType": 0
            },
            "20": {
                "event": {
                    "contract": "0x55d398326f99059ff775485246999027b3197955",
                    "decodedLog": {
                        "name": "Transfer",
                        "params": [
                            {
                                "name": "from",
                                "type": "address",
                                "value": "0x88f9e1799465655f0dd206093dbd08922a1d9e28"
                            },
                            {
                                "name": "to",
                                "type": "address",
                                "value": "0x2b45dd1d909c01aad96fa6b67108d691b432f351"
                            },
                            {
                                "decimalAvailable": true,
                                "name": "value",
                                "type": "uint256",
                                "value": "959,484,790,320,113,660,000,000"
                            }
                        ],
                        "signature": "Transfer(address,address,uint256)"
                    },
                    "id": 20,
                    "logData": "0x00000000000000000000000000000000000000000000cb2dc6532bda33fcf700",
                    "logDecoded": true,
                    "operation": "EVENT",
                    "revert": false,
                    "status": true,
                    "topics": [
                        "0xddf252ad1be2c89b69c2b068fc378daa952ba7f163c4a11628f55a4df523b3ef",
                        "0x00000000000000000000000088f9e1799465655f0dd206093dbd08922a1d9e28",
                        "0x0000000000000000000000002b45dd1d909c01aad96fa6b67108d691b432f351"
                    ]
                },
                "nodeType": 1
            },
            "21": {
                "event": {
                    "contract": "0x55d398326f99059ff775485246999027b3197955",
                    "decodedLog": {
                        "name": "Approval",
                        "params": [
                            {
                                "name": "owner",
                                "type": "address",
                                "value": "0x88f9e1799465655f0dd206093dbd08922a1d9e28"
                            },
                            {
                                "name": "spender",
                                "type": "address",
                                "value": "0x2b45dd1d909c01aad96fa6b67108d691b432f351"
                            },
                            {
                                "decimalAvailable": true,
                                "name": "value",
                                "type": "uint256",
                                "value": "99,999,999,040,515,209,679,886,340,000,000"
                            }
                        ],
                        "signature": "Approval(address,address,uint256)"
                    },
                    "id": 21,
                    "logData": "0x00000000000000000000000000000000000004ee2d6c762dbf59c3a6cc030900",
                    "logDecoded": true,
                    "operation": "EVENT",
                    "revert": false,
                    "status": true,
                    "topics": [
                        "0x8c5be1e5ebec7d5bd14f71427d1e84f3dd0314c0f7b2291e5b200ac8c7c3b925",
                        "0x00000000000000000000000088f9e1799465655f0dd206093dbd08922a1d9e28",
                        "0x0000000000000000000000002b45dd1d909c01aad96fa6b67108d691b432f351"
                    ]
                },
                "nodeType": 1
            },
            "22": {
                "invocation": {
                    "address": "0x94441698165fb7e132e207800b3ea57e34c93a72",
                    "callData": "0x00000000000000000000000088f9e1799465655f0dd206093dbd08922a1d9e28000000000000000000000000000000000000000000108b2a2c28029094000000",
                    "decodedMethod": {
                        "callParams": [
                            {
                                "name": "recipient",
                                "type": "address",
                                "value": "0x88f9e1799465655f0dd206093dbd08922a1d9e28"
                            },
                            {
                                "decimalAvailable": true,
                                "name": "amount",
                                "type": "uint256",
                                "value": "20,000,000,000,000,000,000,000,000"
                            }
                        ],
                        "constructorArguments": "",
                        "name": "transfer",
                        "returnParams": [
                            {
                                "name": "",
                                "type": "bool",
                                "value": true
                            }
                        ],
                        "signature": "transfer(address,uint256)"
                    },
                    "errorInfo": "",
                    "fromAddress": "0x2b45dd1d909c01aad96fa6b67108d691b432f351",
                    "gasUsed": 27937,
                    "id": 22,
                    "methodDecoded": true,
                    "operation": "CALL",
                    "output": "0x0000000000000000000000000000000000000000000000000000000000000001",
                    "revert": false,
                    "revertMessage": "",
                    "selector": "0xa9059cbb",
                    "status": true,
                    "value": "0"
                },
                "nodeType": 0
            },
            "23": {
                "event": {
                    "contract": "0x94441698165fb7e132e207800b3ea57e34c93a72",
                    "decodedLog": {
                        "name": "Transfer",
                        "params": [
                            {
                                "name": "from",
                                "type": "address",
                                "value": "0x2b45dd1d909c01aad96fa6b67108d691b432f351"
                            },
                            {
                                "name": "to",
                                "type": "address",
                                "value": "0x88f9e1799465655f0dd206093dbd08922a1d9e28"
                            },
                            {
                                "decimalAvailable": true,
                                "name": "value",
                                "type": "uint256",
                                "value": "20,000,000,000,000,000,000,000,000"
                            }
                        ],
                        "signature": "Transfer(address,address,uint256)"
                    },
                    "id": 23,
                    "logData": "0x000000000000000000000000000000000000000000108b2a2c28029094000000",
                    "logDecoded": true,
                    "operation": "EVENT",
                    "revert": false,
                    "status": true,
                    "topics": [
                        "0xddf252ad1be2c89b69c2b068fc378daa952ba7f163c4a11628f55a4df523b3ef",
                        "0x0000000000000000000000002b45dd1d909c01aad96fa6b67108d691b432f351",
                        "0x00000000000000000000000088f9e1799465655f0dd206093dbd08922a1d9e28"
                    ]
                },
                "nodeType": 1
            },
            "24": {
                "invocation": {
                    "address": "0x2b45dd1d909c01aad96fa6b67108d691b432f351",
                    "callData": "0x00000000000000000000000000000000000000000000000000000000001e0352",
                    "decodedMethod": {
                        "callParams": [
                            {
                                "name": "USDT_",
                                "type": "uint256",
                                "value": "1,966,930"
                            }
                        ],
                        "constructorArguments": "",
                        "name": "Loan_Get",
                        "returnParams": [],
                        "signature": "Loan_Get(uint256)"
                    },
                    "errorInfo": "",
                    "fromAddress": "0x88f9e1799465655f0dd206093dbd08922a1d9e28",
                    "gasUsed": 163628,
                    "id": 24,
                    "methodDecoded": true,
                    "operation": "CALL",
                    "output": "",
                    "revert": false,
                    "revertMessage": "",
                    "selector": "0x25115948",
                    "status": true,
                    "value": "0"
                },
                "nodeType": 0
            },
            "25": {
                "invocation": {
                    "address": "0x94441698165fb7e132e207800b3ea57e34c93a72",
                    "callData": "0x0000000000000000000000002b45dd1d909c01aad96fa6b67108d691b432f351",
                    "decodedMethod": {
                        "callParams": [
                            {
                                "name": "account",
                                "type": "address",
                                "value": "0x2b45dd1d909c01aad96fa6b67108d691b432f351"
                            }
                        ],
                        "constructorArguments": "",
                        "name": "balanceOf",
                        "returnParams": [
                            {
                                "decimalAvailable": true,
                                "name": "",
                                "type": "uint256",
                                "value": "999,916,430,830,343,150,012,642"
                            }
                        ],
                        "signature": "balanceOf(address)"
                    },
                    "errorInfo": "",
                    "fromAddress": "0x2b45dd1d909c01aad96fa6b67108d691b432f351",
                    "gasUsed": 607,
                    "id": 25,
                    "methodDecoded": true,
                    "operation": "STATICCALL",
                    "output": "0x00000000000000000000000000000000000000000000d3bd940d77e4ce1a88e2",
                    "revert": false,
                    "revertMessage": "",
                    "selector": "0x70a08231",
                    "status": true,
                    "value": "0"
                },
                "nodeType": 0
            },
            "26": {
                "invocation": {
                    "address": "0x55d398326f99059ff775485246999027b3197955",
                    "callData": "0x0000000000000000000000002b45dd1d909c01aad96fa6b67108d691b432f351",
                    "decodedMethod": {
                        "callParams": [
                            {
                                "name": "account",
                                "type": "address",
                                "value": "0x2b45dd1d909c01aad96fa6b67108d691b432f351"
                            }
                        ],
                        "constructorArguments": "",
                        "name": "balanceOf",
                        "returnParams": [
                            {
                                "decimalAvailable": true,
                                "name": "",
                                "type": "uint256",
                                "value": "1,966,939,955,429,147,259,609,515"
                            }
                        ],
                        "signature": "balanceOf(address)"
                    },
                    "errorInfo": "",
                    "fromAddress": "0x2b45dd1d909c01aad96fa6b67108d691b432f351",
                    "gasUsed": 531,
                    "id": 26,
                    "methodDecoded": true,
                    "operation": "STATICCALL",
                    "output": "0x00000000000000000000000000000000000000000001a08407550849ff02a1ab",
                    "revert": false,
                    "revertMessage": "",
                    "selector": "0x70a08231",
                    "status": true,
                    "value": "0"
                },
                "nodeType": 0
            },
            "27": {
                "invocation": {
                    "address": "0x94441698165fb7e132e207800b3ea57e34c93a72",
                    "callData": "0x00000000000000000000000088f9e1799465655f0dd206093dbd08922a1d9e28",
                    "decodedMethod": {
                        "callParams": [
                            {
                                "name": "account",
                                "type": "address",
                                "value": "0x88f9e1799465655f0dd206093dbd08922a1d9e28"
                            }
                        ],
                        "constructorArguments": "",
                        "name": "balanceOf",
                        "returnParams": [
                            {
                                "decimalAvailable": true,
                                "name": "",
                                "type": "uint256",
                                "value": "20,000,000,000,000,000,000,000,000"
                            }
                        ],
                        "signature": "balanceOf(address)"
                    },
                    "errorInfo": "",
                    "fromAddress": "0x2b45dd1d909c01aad96fa6b67108d691b432f351",
                    "gasUsed": 607,
                    "id": 27,
                    "methodDecoded": true,
                    "operation": "STATICCALL",
                    "output": "0x000000000000000000000000000000000000000000108b2a2c28029094000000",
                    "revert": false,
                    "revertMessage": "",
                    "selector": "0x70a08231",
                    "status": true,
                    "value": "0"
                },
                "nodeType": 0
            },
            "28": {
                "invocation": {
                    "address": "0x94441698165fb7e132e207800b3ea57e34c93a72",
                    "callData": "0x00000000000000000000000088f9e1799465655f0dd206093dbd08922a1d9e280000000000000000000000002b45dd1d909c01aad96fa6b67108d691b432f351000000000000000000000000000000000000000000011342da53a766ab300000",
                    "decodedMethod": {
                        "callParams": [
                            {
                                "name": "sender",
                                "type": "address",
                                "value": "0x88f9e1799465655f0dd206093dbd08922a1d9e28"
                            },
                            {
                                "name": "recipient",
                                "type": "address",
                                "value": "0x2b45dd1d909c01aad96fa6b67108d691b432f351"
                            },
                            {
                                "decimalAvailable": true,
                                "name": "amount",
                                "type": "uint256",
                                "value": "1,299,884,000,000,000,000,000,000"
                            }
                        ],
                        "constructorArguments": "",
                        "name": "transferFrom",
                        "returnParams": [
                            {
                                "name": "",
                                "type": "bool",
                                "value": true
                            }
                        ],
                        "signature": "transferFrom(address,address,uint256)"
                    },
                    "errorInfo": "",
                    "fromAddress": "0x2b45dd1d909c01aad96fa6b67108d691b432f351",
                    "gasUsed": 5850,
                    "id": 28,
                    "methodDecoded": true,
                    "operation": "CALL",
                    "output": "0x0000000000000000000000000000000000000000000000000000000000000001",
                    "revert": false,
                    "revertMessage": "",
                    "selector": "0x23b872dd",
                    "status": true,
                    "value": "0"
                },
                "nodeType": 0
            },
            "29": {
                "event": {
                    "contract": "0x94441698165fb7e132e207800b3ea57e34c93a72",
                    "decodedLog": {
                        "name": "Transfer",
                        "params": [
                            {
                                "name": "from",
                                "type": "address",
                                "value": "0x88f9e1799465655f0dd206093dbd08922a1d9e28"
                            },
                            {
                                "name": "to",
                                "type": "address",
                                "value": "0x2b45dd1d909c01aad96fa6b67108d691b432f351"
                            },
                            {
                                "decimalAvailable": true,
                                "name": "value",
                                "type": "uint256",
                                "value": "1,299,884,000,000,000,000,000,000"
                            }
                        ],
                        "signature": "Transfer(address,address,uint256)"
                    },
                    "id": 29,
                    "logData": "0x000000000000000000000000000000000000000000011342da53a766ab300000",
                    "logDecoded": true,
                    "operation": "EVENT",
                    "revert": false,
                    "status": true,
                    "topics": [
                        "0xddf252ad1be2c89b69c2b068fc378daa952ba7f163c4a11628f55a4df523b3ef",
                        "0x00000000000000000000000088f9e1799465655f0dd206093dbd08922a1d9e28",
                        "0x0000000000000000000000002b45dd1d909c01aad96fa6b67108d691b432f351"
                    ]
                },
                "nodeType": 1
            },
            "3": {
                "invocation": {
                    "address": "0xbb4cdb9cbd36b01bd1cbaebf2de08d9173bc095c",
                    "callData": "0x00000000000000000000000036696169c63e42cd08ce11f5deebbcebae652050",
                    "decodedMethod": {
                        "callParams": [
                            {
                                "name": "",
                                "type": "address",
                                "value": "0x36696169c63e42cd08ce11f5deebbcebae652050"
                            }
                        ],
                        "constructorArguments": "",
                        "name": "balanceOf",
                        "returnParams": [
                            {
                                "decimalAvailable": true,
                                "name": "",
                                "type": "uint256",
                                "value": "24,757,939,605,718,713,724,968"
                            }
                        ],
                        "signature": "balanceOf(address)"
                    },
                    "errorInfo": "",
                    "fromAddress": "0x36696169c63e42cd08ce11f5deebbcebae652050",
                    "gasUsed": 2534,
                    "id": 3,
                    "methodDecoded": true,
                    "operation": "STATICCALL",
                    "output": "0x00000000000000000000000000000000000000000000053e216eb2371e8f7028",
                    "revert": false,
                    "revertMessage": "",
                    "selector": "0x70a08231",
                    "status": true,
                    "value": "0"
                },
                "nodeType": 0
            },
            "30": {
                "event": {
                    "contract": "0x94441698165fb7e132e207800b3ea57e34c93a72",
                    "decodedLog": {
                        "name": "Approval",
                        "params": [
                            {
                                "name": "owner",
                                "type": "address",
                                "value": "0x88f9e1799465655f0dd206093dbd08922a1d9e28"
                            },
                            {
                                "name": "spender",
                                "type": "address",
                                "value": "0x2b45dd1d909c01aad96fa6b67108d691b432f351"
                            },
                            {
                                "decimalAvailable": true,
                                "name": "value",
                                "type": "uint256",
                                "value": "99,999,998,700,116,000,000,000,000,000,000"
                            }
                        ],
                        "signature": "Approval(address,address,uint256)"
                    },
                    "id": 30,
                    "logData": "0x00000000000000000000000000000000000004ee2d6c2e18ab59481a54d00000",
                    "logDecoded": true,
                    "operation": "EVENT",
                    "revert": false,
                    "status": true,
                    "topics": [
                        "0x8c5be1e5ebec7d5bd14f71427d1e84f3dd0314c0f7b2291e5b200ac8c7c3b925",
                        "0x00000000000000000000000088f9e1799465655f0dd206093dbd08922a1d9e28",
                        "0x0000000000000000000000002b45dd1d909c01aad96fa6b67108d691b432f351"
                    ]
                },
                "nodeType": 1
            },
            "31": {
                "invocation": {
                    "address": "0x55d398326f99059ff775485246999027b3197955",
                    "callData": "0x00000000000000000000000088f9e1799465655f0dd206093dbd08922a1d9e2800000000000000000000000000000000000000000001a0837d2c3e39ca080000",
                    "decodedMethod": {
                        "callParams": [
                            {
                                "name": "recipient",
                                "type": "address",
                                "value": "0x88f9e1799465655f0dd206093dbd08922a1d9e28"
                            },
                            {
                                "decimalAvailable": true,
                                "name": "amount",
                                "type": "uint256",
                                "value": "1,966,930,000,000,000,000,000,000"
                            }
                        ],
                        "constructorArguments": "",
                        "name": "transfer",
                        "returnParams": [
                            {
                                "name": "",
                                "type": "bool",
                                "value": true
                            }
                        ],
                        "signature": "transfer(address,uint256)"
                    },
                    "errorInfo": "",
                    "fromAddress": "0x2b45dd1d909c01aad96fa6b67108d691b432f351",
                    "gasUsed": 3271,
                    "id": 31,
                    "methodDecoded": true,
                    "operation": "CALL",
                    "output": "0x0000000000000000000000000000000000000000000000000000000000000001",
                    "revert": false,
                    "revertMessage": "",
                    "selector": "0xa9059cbb",
                    "status": true,
                    "value": "0"
                },
                "nodeType": 0
            },
            "32": {
                "event": {
                    "contract": "0x55d398326f99059ff775485246999027b3197955",
                    "decodedLog": {
                        "name": "Transfer",
                        "params": [
                            {
                                "name": "from",
                                "type": "address",
                                "value": "0x2b45dd1d909c01aad96fa6b67108d691b432f351"
                            },
                            {
                                "name": "to",
                                "type": "address",
                                "value": "0x88f9e1799465655f0dd206093dbd08922a1d9e28"
                            },
                            {
                                "decimalAvailable": true,
                                "name": "value",
                                "type": "uint256",
                                "value": "1,966,930,000,000,000,000,000,000"
                            }
                        ],
                        "signature": "Transfer(address,address,uint256)"
                    },
                    "id": 32,
                    "logData": "0x00000000000000000000000000000000000000000001a0837d2c3e39ca080000",
                    "logDecoded": true,
                    "operation": "EVENT",
                    "revert": false,
                    "status": true,
                    "topics": [
                        "0xddf252ad1be2c89b69c2b068fc378daa952ba7f163c4a11628f55a4df523b3ef",
                        "0x0000000000000000000000002b45dd1d909c01aad96fa6b67108d691b432f351",
                        "0x00000000000000000000000088f9e1799465655f0dd206093dbd08922a1d9e28"
                    ]
                },
                "nodeType": 1
            },
            "33": {
                "invocation": {
                    "address": "0x55d398326f99059ff775485246999027b3197955",
                    "callData": "0x00000000000000000000000036696169c63e42cd08ce11f5deebbcebae652050000000000000000000000000000000000000000000019d239faf6a1f8cba0000",
                    "decodedMethod": {
                        "callParams": [
                            {
                                "name": "recipient",
                                "type": "address",
                                "value": "0x36696169c63e42cd08ce11f5deebbcebae652050"
                            },
                            {
                                "decimalAvailable": true,
                                "name": "amount",
                                "type": "uint256",
                                "value": "1,950,994,500,000,000,000,000,000"
                            }
                        ],
                        "constructorArguments": "",
                        "name": "transfer",
                        "returnParams": [
                            {
                                "name": "",
                                "type": "bool",
                                "value": true
                            }
                        ],
                        "signature": "transfer(address,uint256)"
                    },
                    "errorInfo": "",
                    "fromAddress": "0x88f9e1799465655f0dd206093dbd08922a1d9e28",
                    "gasUsed": 3271,
                    "id": 33,
                    "methodDecoded": true,
                    "operation": "CALL",
                    "output": "0x0000000000000000000000000000000000000000000000000000000000000001",
                    "revert": false,
                    "revertMessage": "",
                    "selector": "0xa9059cbb",
                    "status": true,
                    "value": "0"
                },
                "nodeType": 0
            },
            "34": {
                "event": {
                    "contract": "0x55d398326f99059ff775485246999027b3197955",
                    "decodedLog": {
                        "name": "Transfer",
                        "params": [
                            {
                                "name": "from",
                                "type": "address",
                                "value": "0x88f9e1799465655f0dd206093dbd08922a1d9e28"
                            },
                            {
                                "name": "to",
                                "type": "address",
                                "value": "0x36696169c63e42cd08ce11f5deebbcebae652050"
                            },
                            {
                                "decimalAvailable": true,
                                "name": "value",
                                "type": "uint256",
                                "value": "1,950,994,500,000,000,000,000,000"
                            }
                        ],
                        "signature": "Transfer(address,address,uint256)"
                    },
                    "id": 34,
                    "logData": "0x000000000000000000000000000000000000000000019d239faf6a1f8cba0000",
                    "logDecoded": true,
                    "operation": "EVENT",
                    "revert": false,
                    "status": true,
                    "topics": [
                        "0xddf252ad1be2c89b69c2b068fc378daa952ba7f163c4a11628f55a4df523b3ef",
                        "0x00000000000000000000000088f9e1799465655f0dd206093dbd08922a1d9e28",
                        "0x00000000000000000000000036696169c63e42cd08ce11f5deebbcebae652050"
                    ]
                },
                "nodeType": 1
            },
            "35": {
                "invocation": {
                    "address": "0x55d398326f99059ff775485246999027b3197955",
                    "callData": "0x00000000000000000000000088f9e1799465655f0dd206093dbd08922a1d9e28",
                    "decodedMethod": {
                        "callParams": [
                            {
                                "name": "account",
                                "type": "address",
                                "value": "0x88f9e1799465655f0dd206093dbd08922a1d9e28"
                            }
                        ],
                        "constructorArguments": "",
                        "name": "balanceOf",
                        "returnParams": [
                            {
                                "decimalAvailable": true,
                                "name": "",
                                "type": "uint256",
                                "value": "56,450,709,679,886,340,000,000"
                            }
                        ],
                        "signature": "balanceOf(address)"
                    },
                    "errorInfo": "",
                    "fromAddress": "0x88f9e1799465655f0dd206093dbd08922a1d9e28",
                    "gasUsed": 531,
                    "id": 35,
                    "methodDecoded": true,
                    "operation": "STATICCALL",
                    "output": "0x000000000000000000000000000000000000000000000bf432f8752daa510900",
                    "revert": false,
                    "revertMessage": "",
                    "selector": "0x70a08231",
                    "status": true,
                    "value": "0"
                },
                "nodeType": 0
            },
            "36": {
                "invocation": {
                    "address": "0x55d398326f99059ff775485246999027b3197955",
                    "callData": "0x0000000000000000000000003026c464d3bd6ef0ced0d49e80f171b58176ce32000000000000000000000000000000000000000000000bf432f8752daa510900",
                    "decodedMethod": {
                        "callParams": [
                            {
                                "name": "recipient",
                                "type": "address",
                                "value": "0x3026c464d3bd6ef0ced0d49e80f171b58176ce32"
                            },
                            {
                                "decimalAvailable": true,
                                "name": "amount",
                                "type": "uint256",
                                "value": "56,450,709,679,886,340,000,000"
                            }
                        ],
                        "constructorArguments": "",
                        "name": "transfer",
                        "returnParams": [
                            {
                                "name": "",
                                "type": "bool",
                                "value": true
                            }
                        ],
                        "signature": "transfer(address,uint256)"
                    },
                    "errorInfo": "",
                    "fromAddress": "0x88f9e1799465655f0dd206093dbd08922a1d9e28",
                    "gasUsed": 8071,
                    "id": 36,
                    "methodDecoded": true,
                    "operation": "CALL",
                    "output": "0x0000000000000000000000000000000000000000000000000000000000000001",
                    "revert": false,
                    "revertMessage": "",
                    "selector": "0xa9059cbb",
                    "status": true,
                    "value": "0"
                },
                "nodeType": 0
            },
            "37": {
                "event": {
                    "contract": "0x55d398326f99059ff775485246999027b3197955",
                    "decodedLog": {
                        "name": "Transfer",
                        "params": [
                            {
                                "name": "from",
                                "type": "address",
                                "value": "0x88f9e1799465655f0dd206093dbd08922a1d9e28"
                            },
                            {
                                "name": "to",
                                "type": "address",
                                "value": "0x3026c464d3bd6ef0ced0d49e80f171b58176ce32"
                            },
                            {
                                "decimalAvailable": true,
                                "name": "value",
                                "type": "uint256",
                                "value": "56,450,709,679,886,340,000,000"
                            }
                        ],
                        "signature": "Transfer(address,address,uint256)"
                    },
                    "id": 37,
                    "logData": "0x000000000000000000000000000000000000000000000bf432f8752daa510900",
                    "logDecoded": true,
                    "operation": "EVENT",
                    "revert": false,
                    "status": true,
                    "topics": [
                        "0xddf252ad1be2c89b69c2b068fc378daa952ba7f163c4a11628f55a4df523b3ef",
                        "0x00000000000000000000000088f9e1799465655f0dd206093dbd08922a1d9e28",
                        "0x0000000000000000000000003026c464d3bd6ef0ced0d49e80f171b58176ce32"
                    ]
                },
                "nodeType": 1
            },
            "38": {
                "invocation": {
                    "address": "0x55d398326f99059ff775485246999027b3197955",
                    "callData": "0x00000000000000000000000036696169c63e42cd08ce11f5deebbcebae652050",
                    "decodedMethod": {
                        "callParams": [
                            {
                                "name": "account",
                                "type": "address",
                                "value": "0x36696169c63e42cd08ce11f5deebbcebae652050"
                            }
                        ],
                        "constructorArguments": "",
                        "name": "balanceOf",
                        "returnParams": [
                            {
                                "decimalAvailable": true,
                                "name": "",
                                "type": "uint256",
                                "value": "36,134,486,013,892,207,520,461,026"
                            }
                        ],
                        "signature": "balanceOf(address)"
                    },
                    "errorInfo": "",
                    "fromAddress": "0x36696169c63e42cd08ce11f5deebbcebae652050",
                    "gasUsed": 531,
                    "id": 38,
                    "methodDecoded": true,
                    "operation": "STATICCALL",
                    "output": "0x0000000000000000000000000000000000000000001de3c66971faf091ff30e2",
                    "revert": false,
                    "revertMessage": "",
                    "selector": "0x70a08231",
                    "status": true,
                    "value": "0"
                },
                "nodeType": 0
            },
            "39": {
                "invocation": {
                    "address": "0xbb4cdb9cbd36b01bd1cbaebf2de08d9173bc095c",
                    "callData": "0x00000000000000000000000036696169c63e42cd08ce11f5deebbcebae652050",
                    "decodedMethod": {
                        "callParams": [
                            {
                                "name": "",
                                "type": "address",
                                "value": "0x36696169c63e42cd08ce11f5deebbcebae652050"
                            }
                        ],
                        "constructorArguments": "",
                        "name": "balanceOf",
                        "returnParams": [
                            {
                                "decimalAvailable": true,
                                "name": "",
                                "type": "uint256",
                                "value": "24,757,939,605,718,713,724,968"
                            }
                        ],
                        "signature": "balanceOf(address)"
                    },
                    "errorInfo": "",
                    "fromAddress": "0x36696169c63e42cd08ce11f5deebbcebae652050",
                    "gasUsed": 534,
                    "id": 39,
                    "methodDecoded": true,
                    "operation": "STATICCALL",
                    "output": "0x00000000000000000000000000000000000000000000053e216eb2371e8f7028",
                    "revert": false,
                    "revertMessage": "",
                    "selector": "0x70a08231",
                    "status": true,
                    "value": "0"
                },
                "nodeType": 0
            },
            "4": {
                "invocation": {
                    "address": "0x55d398326f99059ff775485246999027b3197955",
                    "callData": "0x00000000000000000000000088f9e1799465655f0dd206093dbd08922a1d9e28000000000000000000000000000000000000000000019cedb639a935c6c00000",
                    "decodedMethod": {
                        "callParams": [
                            {
                                "name": "recipient",
                                "type": "address",
                                "value": "0x88f9e1799465655f0dd206093dbd08922a1d9e28"
                            },
                            {
                                "decimalAvailable": true,
                                "name": "amount",
                                "type": "uint256",
                                "value": "1,950,000,000,000,000,000,000,000"
                            }
                        ],
                        "constructorArguments": "",
                        "name": "transfer",
                        "returnParams": [
                            {
                                "name": "",
                                "type": "bool",
                                "value": true
                            }
                        ],
                        "signature": "transfer(address,uint256)"
                    },
                    "errorInfo": "",
                    "fromAddress": "0x36696169c63e42cd08ce11f5deebbcebae652050",
                    "gasUsed": 27971,
                    "id": 4,
                    "methodDecoded": true,
                    "operation": "CALL",
                    "output": "0x0000000000000000000000000000000000000000000000000000000000000001",
                    "revert": false,
                    "revertMessage": "",
                    "selector": "0xa9059cbb",
                    "status": true,
                    "value": "0"
                },
                "nodeType": 0
            },
            "40": {
                "event": {
                    "contract": "0x36696169c63e42cd08ce11f5deebbcebae652050",
                    "decodedLog": {
                        "name": "Flash",
                        "params": [
                            {
                                "name": "sender",
                                "type": "address",
                                "value": "0x88f9e1799465655f0dd206093dbd08922a1d9e28"
                            },
                            {
                                "name": "recipient",
                                "type": "address",
                                "value": "0x88f9e1799465655f0dd206093dbd08922a1d9e28"
                            },
                            {
                                "name": "amount0",
                                "type": "uint256",
                                "value": "1,950,000,000,000,000,000,000,000"
                            },
                            {
                                "name": "amount1",
                                "type": "uint256",
                                "value": "0"
                            },
                            {
                                "name": "paid0",
                                "type": "uint256",
                                "value": "994,500,000,000,000,000,000"
                            },
                            {
                                "name": "paid1",
                                "type": "uint256",
                                "value": "0"
                            }
                        ],
                        "signature": "Flash(address,address,uint256,uint256,uint256,uint256)"
                    },
                    "id": 40,
                    "logData": "0x000000000000000000000000000000000000000000019cedb639a935c6c000000000000000000000000000000000000000000000000000000000000000000000000000000000000000000000000000000000000000000035e975c0e9c5fa00000000000000000000000000000000000000000000000000000000000000000000",
                    "logDecoded": true,
                    "operation": "EVENT",
                    "revert": false,
                    "status": true,
                    "topics": [
                        "0xbdbdb71d7860376ba52b25a5028beea23581364a40522f6bcfb86bb1f2dca633",
                        "0x00000000000000000000000088f9e1799465655f0dd206093dbd08922a1d9e28",
                        "0x00000000000000000000000088f9e1799465655f0dd206093dbd08922a1d9e28"
                    ]
                },
                "nodeType": 1
            },
            "5": {
                "event": {
                    "contract": "0x55d398326f99059ff775485246999027b3197955",
                    "decodedLog": {
                        "name": "Transfer",
                        "params": [
                            {
                                "name": "from",
                                "type": "address",
                                "value": "0x36696169c63e42cd08ce11f5deebbcebae652050"
                            },
                            {
                                "name": "to",
                                "type": "address",
                                "value": "0x88f9e1799465655f0dd206093dbd08922a1d9e28"
                            },
                            {
                                "decimalAvailable": true,
                                "name": "value",
                                "type": "uint256",
                                "value": "1,950,000,000,000,000,000,000,000"
                            }
                        ],
                        "signature": "Transfer(address,address,uint256)"
                    },
                    "id": 5,
                    "logData": "0x000000000000000000000000000000000000000000019cedb639a935c6c00000",
                    "logDecoded": true,
                    "operation": "EVENT",
                    "revert": false,
                    "status": true,
                    "topics": [
                        "0xddf252ad1be2c89b69c2b068fc378daa952ba7f163c4a11628f55a4df523b3ef",
                        "0x00000000000000000000000036696169c63e42cd08ce11f5deebbcebae652050",
                        "0x00000000000000000000000088f9e1799465655f0dd206093dbd08922a1d9e28"
                    ]
                },
                "nodeType": 1
            },
            "6": {
                "invocation": {
                    "address": "0x88f9e1799465655f0dd206093dbd08922a1d9e28",
                    "callData": "0x000000000000000000000000000000000000000000000034dad7d63a85dc0000000000000000000000000000000000000000000000000000000000000000000000000000000000000000000000000000000000000000000000000000000000600000000000000000000000000000000000000000000000000000000000000000",
                    "decodedMethod": {
                        "callParams": [
                            {
                                "name": "fee0",
                                "type": "uint256",
                                "value": "975,000,000,000,000,000,000"
                            },
                            {
                                "name": "fee1",
                                "type": "uint256",
                                "value": "0"
                            },
                            {
                                "name": "data",
                                "type": "bytes",
                                "value": "0x"
                            }
                        ],
                        "constructorArguments": "",
                        "name": "pancakeV3FlashCallback",
                        "returnParams": [],
                        "signature": "pancakeV3FlashCallback(uint256,uint256,bytes)"
                    },
                    "errorInfo": "",
                    "fromAddress": "0x36696169c63e42cd08ce11f5deebbcebae652050",
                    "gasUsed": 351196,
                    "id": 6,
                    "methodDecoded": true,
                    "operation": "CALL",
                    "output": "",
                    "revert": false,
                    "revertMessage": "",
                    "selector": "0xa1d48336",
                    "status": true,
                    "value": "0"
                },
                "nodeType": 0
            },
            "7": {
                "invocation": {
                    "address": "0x55d398326f99059ff775485246999027b3197955",
                    "callData": "0x00000000000000000000000088f9e1799465655f0dd206093dbd08922a1d9e28",
                    "decodedMethod": {
                        "callParams": [
                            {
                                "name": "account",
                                "type": "address",
                                "value": "0x88f9e1799465655f0dd206093dbd08922a1d9e28"
                            }
                        ],
                        "constructorArguments": "",
                        "name": "balanceOf",
                        "returnParams": [
                            {
                                "decimalAvailable": true,
                                "name": "",
                                "type": "uint256",
                                "value": "1,950,000,000,000,000,000,000,000"
                            }
                        ],
                        "signature": "balanceOf(address)"
                    },
                    "errorInfo": "",
                    "fromAddress": "0x88f9e1799465655f0dd206093dbd08922a1d9e28",
                    "gasUsed": 531,
                    "id": 7,
                    "methodDecoded": true,
                    "operation": "STATICCALL",
                    "output": "0x000000000000000000000000000000000000000000019cedb639a935c6c00000",
                    "revert": false,
                    "revertMessage": "",
                    "selector": "0x70a08231",
                    "status": true,
                    "value": "0"
                },
                "nodeType": 0
            },
            "8": {
                "invocation": {
                    "address": "0x55d398326f99059ff775485246999027b3197955",
                    "callData": "0x0000000000000000000000002b45dd1d909c01aad96fa6b67108d691b432f35100000000000000000000000000000000000000000000c92b9a6adc4825c00000",
                    "decodedMethod": {
                        "callParams": [
                            {
                                "name": "recipient",
                                "type": "address",
                                "value": "0x2b45dd1d909c01aad96fa6b67108d691b432f351"
                            },
                            {
                                "decimalAvailable": true,
                                "name": "amount",
                                "type": "uint256",
                                "value": "950,000,000,000,000,000,000,000"
                            }
                        ],
                        "constructorArguments": "",
                        "name": "transfer",
                        "returnParams": [
                            {
                                "name": "",
                                "type": "bool",
                                "value": true
                            }
                        ],
                        "signature": "transfer(address,uint256)"
                    },
                    "errorInfo": "",
                    "fromAddress": "0x88f9e1799465655f0dd206093dbd08922a1d9e28",
                    "gasUsed": 8071,
                    "id": 8,
                    "methodDecoded": true,
                    "operation": "CALL",
                    "output": "0x0000000000000000000000000000000000000000000000000000000000000001",
                    "revert": false,
                    "revertMessage": "",
                    "selector": "0xa9059cbb",
                    "status": true,
                    "value": "0"
                },
                "nodeType": 0
            },
            "9": {
                "event": {
                    "contract": "0x55d398326f99059ff775485246999027b3197955",
                    "decodedLog": {
                        "name": "Transfer",
                        "params": [
                            {
                                "name": "from",
                                "type": "address",
                                "value": "0x88f9e1799465655f0dd206093dbd08922a1d9e28"
                            },
                            {
                                "name": "to",
                                "type": "address",
                                "value": "0x2b45dd1d909c01aad96fa6b67108d691b432f351"
                            },
                            {
                                "decimalAvailable": true,
                                "name": "value",
                                "type": "uint256",
                                "value": "950,000,000,000,000,000,000,000"
                            }
                        ],
                        "signature": "Transfer(address,address,uint256)"
                    },
                    "id": 9,
                    "logData": "0x00000000000000000000000000000000000000000000c92b9a6adc4825c00000",
                    "logDecoded": true,
                    "operation": "EVENT",
                    "revert": false,
                    "status": true,
                    "topics": [
                        "0xddf252ad1be2c89b69c2b068fc378daa952ba7f163c4a11628f55a4df523b3ef",
                        "0x00000000000000000000000088f9e1799465655f0dd206093dbd08922a1d9e28",
                        "0x0000000000000000000000002b45dd1d909c01aad96fa6b67108d691b432f351"
                    ]
                },
                "nodeType": 1
            }
        },
        "gasFlame": [
            {
                "children": [
                    {
                        "children": [
                            {
                                "children": [],
                                "depth": 0,
                                "name": "Initial Gas",
                                "value": 22364
                            },
                            {
                                "children": [
                                    {
                                        "children": [
                                            {
                                                "children": [],
                                                "depth": 2,
                                                "name": "balanceOf",
                                                "value": 2531
                                            },
                                            {
                                                "children": [],
                                                "depth": 2,
                                                "name": "balanceOf",
                                                "value": 2534
                                            },
                                            {
                                                "children": [],
                                                "depth": 2,
                                                "name": "transfer",
                                                "value": 27971
                                            },
                                            {
                                                "children": [
                                                    {
                                                        "children": [],
                                                        "depth": 3,
                                                        "name": "balanceOf",
                                                        "value": 531
                                                    },
                                                    {
                                                        "children": [],
                                                        "depth": 3,
                                                        "name": "transfer",
                                                        "value": 8071
                                                    },
                                                    {
                                                        "children": [],
                                                        "depth": 3,
                                                        "name": "approve",
                                                        "value": 24620
                                                    },
                                                    {
                                                        "children": [],
                                                        "depth": 3,
                                                        "name": "approve",
                                                        "value": 24562
                                                    },
                                                    {
                                                        "children": [
                                                            {
                                                                "children": [],
                                                                "depth": 4,
                                                                "name": "balanceOf",
                                                                "value": 531
                                                            }
                                                        ],
                                                        "depth": 3,
                                                        "name": "_Start",
                                                        "value": 28498
                                                    },
                                                    {
                                                        "children": [
                                                            {
                                                                "children": [],
                                                                "depth": 4,
                                                                "name": "balanceOf",
                                                                "value": 2607
                                                            },
                                                            {
                                                                "children": [],
                                                                "depth": 4,
                                                                "name": "balanceOf",
                                                                "value": 531
                                                            },
                                                            {
                                                                "children": [],
                                                                "depth": 4,
                                                                "name": "transferFrom",
                                                                "value": 6034
                                                            },
                                                            {
                                                                "children": [],
                                                                "depth": 4,
                                                                "name": "transfer",
                                                                "value": 27937
                                                            }
                                                        ],
                                                        "depth": 3,
                                                        "name": "Buy_SBT",
                                                        "value": 66767
                                                    },
                                                    {
                                                        "children": [
                                                            {
                                                                "children": [],
                                                                "depth": 4,
                                                                "name": "balanceOf",
                                                                "value": 607
                                                            },
                                                            {
                                                                "children": [],
                                                                "depth": 4,
                                                                "name": "balanceOf",
                                                                "value": 531
                                                            },
                                                            {
                                                                "children": [],
                                                                "depth": 4,
                                                                "name": "balanceOf",
                                                                "value": 607
                                                            },
                                                            {
                                                                "children": [],
                                                                "depth": 4,
                                                                "name": "transferFrom",
                                                                "value": 5850
                                                            },
                                                            {
                                                                "children": [],
                                                                "depth": 4,
                                                                "name": "transfer",
                                                                "value": 3271
                                                            }
                                                        ],
                                                        "depth": 3,
                                                        "name": "Loan_Get",
                                                        "value": 163628
                                                    },
                                                    {
                                                        "children": [],
                                                        "depth": 3,
                                                        "name": "transfer",
                                                        "value": 3271
                                                    },
                                                    {
                                                        "children": [],
                                                        "depth": 3,
                                                        "name": "balanceOf",
                                                        "value": 531
                                                    },
                                                    {
                                                        "children": [],
                                                        "depth": 3,
                                                        "name": "transfer",
                                                        "value": 8071
                                                    }
                                                ],
                                                "depth": 2,
                                                "name": "pancakeV3FlashCallback",
                                                "value": 351196
                                            },
                                            {
                                                "children": [],
                                                "depth": 2,
                                                "name": "balanceOf",
                                                "value": 531
                                            },
                                            {
                                                "children": [],
                                                "depth": 2,
                                                "name": "balanceOf",
                                                "value": 534
                                            }
                                        ],
                                        "depth": 1,
                                        "name": "flash",
                                        "value": 417563
                                    }
                                ],
                                "depth": 0,
                                "name": "Executed Gas",
                                "value": 488797
                            }
                        ],
                        "depth": -1,
                        "name": "Actual Gas Used",
                        "value": 488461
                    },
                    {
                        "children": [],
                        "depth": -1,
                        "name": "Refunded Gas",
                        "value": 22700
                    }
                ],
                "depth": -2,
                "name": "Total Gas",
                "value": 511161
            }
        ],
        "isConfirmed": true,
        "mainTrace": [
            {
                "children": [
                    {
                        "children": [
                            {
                                "children": [
                                    {
                                        "children": [],
                                        "depth": 2,
                                        "id": 2,
                                        "order": 2
                                    },
                                    {
                                        "children": [],
                                        "depth": 2,
                                        "id": 3,
                                        "order": 3
                                    },
                                    {
                                        "children": [
                                            {
                                                "children": [],
                                                "depth": 3,
                                                "id": 5,
                                                "order": 5
                                            }
                                        ],
                                        "depth": 2,
                                        "id": 4,
                                        "order": 4
                                    },
                                    {
                                        "children": [
                                            {
                                                "children": [],
                                                "depth": 3,
                                                "id": 7,
                                                "order": 7
                                            },
                                            {
                                                "children": [
                                                    {
                                                        "children": [],
                                                        "depth": 4,
                                                        "id": 9,
                                                        "order": 9
                                                    }
                                                ],
                                                "depth": 3,
                                                "id": 8,
                                                "order": 8
                                            },
                                            {
                                                "children": [
                                                    {
                                                        "children": [],
                                                        "depth": 4,
                                                        "id": 11,
                                                        "order": 11
                                                    }
                                                ],
                                                "depth": 3,
                                                "id": 10,
                                                "order": 10
                                            },
                                            {
                                                "children": [
                                                    {
                                                        "children": [],
                                                        "depth": 4,
                                                        "id": 13,
                                                        "order": 13
                                                    }
                                                ],
                                                "depth": 3,
                                                "id": 12,
                                                "order": 12
                                            },
                                            {
                                                "children": [
                                                    {
                                                        "children": [],
                                                        "depth": 4,
                                                        "id": 15,
                                                        "order": 15
                                                    }
                                                ],
                                                "depth": 3,
                                                "id": 14,
                                                "order": 14
                                            },
                                            {
                                                "children": [
                                                    {
                                                        "children": [],
                                                        "depth": 4,
                                                        "id": 17,
                                                        "order": 17
                                                    },
                                                    {
                                                        "children": [],
                                                        "depth": 4,
                                                        "id": 18,
                                                        "order": 18
                                                    },
                                                    {
                                                        "children": [
                                                            {
                                                                "children": [],
                                                                "depth": 5,
                                                                "id": 20,
                                                                "order": 20
                                                            },
                                                            {
                                                                "children": [],
                                                                "depth": 5,
                                                                "id": 21,
                                                                "order": 21
                                                            }
                                                        ],
                                                        "depth": 4,
                                                        "id": 19,
                                                        "order": 19
                                                    },
                                                    {
                                                        "children": [
                                                            {
                                                                "children": [],
                                                                "depth": 5,
                                                                "id": 23,
                                                                "order": 23
                                                            }
                                                        ],
                                                        "depth": 4,
                                                        "id": 22,
                                                        "order": 22
                                                    }
                                                ],
                                                "depth": 3,
                                                "id": 16,
                                                "order": 16
                                            },
                                            {
                                                "children": [
                                                    {
                                                        "children": [],
                                                        "depth": 4,
                                                        "id": 25,
                                                        "order": 25
                                                    },
                                                    {
                                                        "children": [],
                                                        "depth": 4,
                                                        "id": 26,
                                                        "order": 26
                                                    },
                                                    {
                                                        "children": [],
                                                        "depth": 4,
                                                        "id": 27,
                                                        "order": 27
                                                    },
                                                    {
                                                        "children": [
                                                            {
                                                                "children": [],
                                                                "depth": 5,
                                                                "id": 29,
                                                                "order": 29
                                                            },
                                                            {
                                                                "children": [],
                                                                "depth": 5,
                                                                "id": 30,
                                                                "order": 30
                                                            }
                                                        ],
                                                        "depth": 4,
                                                        "id": 28,
                                                        "order": 28
                                                    },
                                                    {
                                                        "children": [
                                                            {
                                                                "children": [],
                                                                "depth": 5,
                                                                "id": 32,
                                                                "order": 32
                                                            }
                                                        ],
                                                        "depth": 4,
                                                        "id": 31,
                                                        "order": 31
                                                    }
                                                ],
                                                "depth": 3,
                                                "id": 24,
                                                "order": 24
                                            },
                                            {
                                                "children": [
                                                    {
                                                        "children": [],
                                                        "depth": 4,
                                                        "id": 34,
                                                        "order": 34
                                                    }
                                                ],
                                                "depth": 3,
                                                "id": 33,
                                                "order": 33
                                            },
                                            {
                                                "children": [],
                                                "depth": 3,
                                                "id": 35,
                                                "order": 35
                                            },
                                            {
                                                "children": [
                                                    {
                                                        "children": [],
                                                        "depth": 4,
                                                        "id": 37,
                                                        "order": 37
                                                    }
                                                ],
                                                "depth": 3,
                                                "id": 36,
                                                "order": 36
                                            }
                                        ],
                                        "depth": 2,
                                        "id": 6,
                                        "order": 6
                                    },
                                    {
                                        "children": [],
                                        "depth": 2,
                                        "id": 38,
                                        "order": 38
                                    },
                                    {
                                        "children": [],
                                        "depth": 2,
                                        "id": 39,
                                        "order": 39
                                    },
                                    {
                                        "children": [],
                                        "depth": 2,
                                        "id": 40,
                                        "order": 40
                                    }
                                ],
                                "depth": 1,
                                "id": 1,
                                "order": 1
                            }
                        ],
                        "depth": 0,
                        "id": 0,
                        "order": 0
                    }
                ],
                "depth": -1,
                "id": -1,
                "order": -1
            }
        ],
        "mainTraceNodeCount": 41,
        "parentIdMap": {
            "0": -1,
            "1": 0,
            "10": 6,
            "11": 10,
            "12": 6,
            "13": 12,
            "14": 6,
            "15": 14,
            "16": 6,
            "17": 16,
            "18": 16,
            "19": 16,
            "2": 1,
            "20": 19,
            "21": 19,
            "22": 16,
            "23": 22,
            "24": 6,
            "25": 24,
            "26": 24,
            "27": 24,
            "28": 24,
            "29": 28,
            "3": 1,
            "30": 28,
            "31": 24,
            "32": 31,
            "33": 6,
            "34": 33,
            "35": 6,
            "36": 6,
            "37": 36,
            "38": 1,
            "39": 1,
            "4": 1,
            "40": 1,
            "5": 4,
            "6": 1,
            "7": 6,
            "8": 6,
            "9": 8
        },
        "tidyTrace": [
            {
                "children": [
                    {
                        "children": [
                            {
                                "children": [
                                    {
                                        "children": [
                                            {
                                                "children": [],
                                                "depth": 3,
                                                "id": 5,
                                                "order": 5
                                            }
                                        ],
                                        "depth": 2,
                                        "id": 4,
                                        "order": 4
                                    },
                                    {
                                        "children": [
                                            {
                                                "children": [
                                                    {
                                                        "children": [],
                                                        "depth": 4,
                                                        "id": 9,
                                                        "order": 9
                                                    }
                                                ],
                                                "depth": 3,
                                                "id": 8,
                                                "order": 8
                                            },
                                            {
                                                "children": [
                                                    {
                                                        "children": [],
                                                        "depth": 4,
                                                        "id": 11,
                                                        "order": 11
                                                    }
                                                ],
                                                "depth": 3,
                                                "id": 10,
                                                "order": 10
                                            },
                                            {
                                                "children": [
                                                    {
                                                        "children": [],
                                                        "depth": 4,
                                                        "id": 13,
                                                        "order": 13
                                                    }
                                                ],
                                                "depth": 3,
                                                "id": 12,
                                                "order": 12
                                            },
                                            {
                                                "children": [],
                                                "depth": 3,
                                                "id": 14,
                                                "order": 14
                                            },
                                            {
                                                "children": [
                                                    {
                                                        "children": [
                                                            {
                                                                "children": [],
                                                                "depth": 5,
                                                                "id": 20,
                                                                "order": 20
                                                            },
                                                            {
                                                                "children": [],
                                                                "depth": 5,
                                                                "id": 21,
                                                                "order": 21
                                                            }
                                                        ],
                                                        "depth": 4,
                                                        "id": 19,
                                                        "order": 19
                                                    },
                                                    {
                                                        "children": [
                                                            {
                                                                "children": [],
                                                                "depth": 5,
                                                                "id": 23,
                                                                "order": 23
                                                            }
                                                        ],
                                                        "depth": 4,
                                                        "id": 22,
                                                        "order": 22
                                                    }
                                                ],
                                                "depth": 3,
                                                "id": 16,
                                                "order": 16
                                            },
                                            {
                                                "children": [
                                                    {
                                                        "children": [
                                                            {
                                                                "children": [],
                                                                "depth": 5,
                                                                "id": 29,
                                                                "order": 29
                                                            },
                                                            {
                                                                "children": [],
                                                                "depth": 5,
                                                                "id": 30,
                                                                "order": 30
                                                            }
                                                        ],
                                                        "depth": 4,
                                                        "id": 28,
                                                        "order": 28
                                                    },
                                                    {
                                                        "children": [
                                                            {
                                                                "children": [],
                                                                "depth": 5,
                                                                "id": 32,
                                                                "order": 32
                                                            }
                                                        ],
                                                        "depth": 4,
                                                        "id": 31,
                                                        "order": 31
                                                    }
                                                ],
                                                "depth": 3,
                                                "id": 24,
                                                "order": 24
                                            },
                                            {
                                                "children": [
                                                    {
                                                        "children": [],
                                                        "depth": 4,
                                                        "id": 34,
                                                        "order": 34
                                                    }
                                                ],
                                                "depth": 3,
                                                "id": 33,
                                                "order": 33
                                            },
                                            {
                                                "children": [
                                                    {
                                                        "children": [],
                                                        "depth": 4,
                                                        "id": 37,
                                                        "order": 37
                                                    }
                                                ],
                                                "depth": 3,
                                                "id": 36,
                                                "order": 36
                                            }
                                        ],
                                        "depth": 2,
                                        "id": 6,
                                        "order": 6
                                    },
                                    {
                                        "children": [],
                                        "depth": 2,
                                        "id": 40,
                                        "order": 40
                                    }
                                ],
                                "depth": 1,
                                "id": 1,
                                "order": 1
                            }
                        ],
                        "depth": 0,
                        "id": 0,
                        "order": 0
                    }
                ],
                "depth": -1,
                "id": -1,
                "order": -1
            }
        ],
        "tidyTraceNodeCount": 29
    },
    "state_change": {
        "stateChanges": [
            {
                "address": "0x2b45dd1d909c01aad96fa6b67108d691b432f351",
                "erc": "",
                "slots": [
                    {
                        "current": "0x000000000000000000000000000000000000000000000000000000000013d5ac",
                        "key": "0x8f924a41c3119f5f8a8f015ddf027c4fd72e55e32c19da55b578e39a2b2fb128",
                        "prev": "0x0000000000000000000000000000000000000000000000000000000000000000"
                    },
                    {
                        "current": "0x0000000000000000000055d398326f99059ff775485246999027b31979550001",
                        "key": "0x0000000000000000000000000000000000000000000000000000000000000000",
                        "prev": "0x0000000000000000000055d398326f99059ff775485246999027b31979550000"
                    },
                    {
                        "current": "0x00000000000000000000000000000000000000000000000000000000668fc0ed",
                        "key": "0x0000000000000000000000000000000000000000000000000000000000000008",
                        "prev": "0x0000000000000000000000000000000000000000000000000000000000000000"
                    },
                    {
                        "current": "0x0000000000000000000000000000000000000000000000030000000000000001",
                        "key": "0x0000000000000000000000000000000000000000000000000000000000000011",
                        "prev": "0x0000000000000000000000000000000000000000000000030000000000000000"
                    },
                    {
                        "current": "0x00000000000000000000000000000000000000000000000000000000001e0352",
                        "key": "0x8f924a41c3119f5f8a8f015ddf027c4fd72e55e32c19da55b578e39a2b2fb127",
                        "prev": "0x0000000000000000000000000000000000000000000000000000000000000000"
                    },
                    {
                        "current": "0x00000000000000000000000000000000000000000000000000000000001e0352",
                        "key": "0x000000000000000000000000000000000000000000000000000000000000000f",
                        "prev": "0x0000000000000000000000000000000000000000000000000000000000000000"
                    },
                    {
                        "current": "0x000000000000000000000000000000000000000000002d1ab0b46fc797ac0000",
                        "key": "0x0000000000000000000000000000000000000000000000000000000000000005",
                        "prev": "0x0000000000000000000000000000000000000000000000000000000000000000"
                    },
                    {
                        "current": "0x000000000000000000000000000000000000000000000000000000000000fde2",
                        "key": "0x0000000000000000000000000000000000000000000000000000000000000006",
                        "prev": "0x0000000000000000000000000000000000000000000000000000000000000000"
                    },
                    {
                        "current": "0x0000000000000000000000000000000000000000000000000000000000000001",
                        "key": "0x8f924a41c3119f5f8a8f015ddf027c4fd72e55e32c19da55b578e39a2b2fb126",
                        "prev": "0x0000000000000000000000000000000000000000000000000000000000000000"
                    },
                    {
                        "current": "0x00000000000000000000000000000000000000000000000000000000677d0eed",
                        "key": "0x8f924a41c3119f5f8a8f015ddf027c4fd72e55e32c19da55b578e39a2b2fb129",
                        "prev": "0x0000000000000000000000000000000000000000000000000000000000000000"
                    }
                ],
                "storageVariables": [
                    {
                        "name": "Dead_Amount_SBT",
                        "type": "uint256",
                        "value": {
                            "current": "64994",
                            "prev": "0",
                            "typeTag": 1
                        }
                    },
                    {
                        "name": "Start",
                        "type": "bool",
                        "value": {
                            "current": "true",
                            "prev": "false",
                            "typeTag": 1
                        }
                    },
                    {
                        "name": "Lock",
                        "type": "bool",
                        "value": {
                            "current": "false",
                            "prev": "false",
                            "typeTag": 1
                        }
                    },
                    {
                        "name": "USDT",
                        "type": "contract IERC20",
                        "value": {
                            "current": "0x55d398326f99059ff775485246999027b3197955",
                            "prev": "0x55d398326f99059ff775485246999027b3197955",
                            "typeTag": 1
                        }
                    },
                    {
                        "name": "Total_Loan_$",
                        "type": "uint256",
                        "value": {
                            "current": "1966930",
                            "prev": "0",
                            "typeTag": 1
                        }
                    },
                    {
                        "name": "S9",
                        "type": "mapping(address => struct Smart_Bank.Loan)",
                        "value": {
                            "pairs": [
                                {
                                    "key": "0x88f9e1799465655f0dd206093dbd08922a1d9e28",
                                    "value": {
                                        "fields": [
                                            {
                                                "name": "id",
                                                "type": "uint32",
                                                "value": {
                                                    "current": "1",
                                                    "prev": "0",
                                                    "typeTag": 1
                                                }
                                            },
                                            {
                                                "name": "R6",
                                                "type": "uint256",
                                                "value": {
                                                    "current": "1966930",
                                                    "prev": "0",
                                                    "typeTag": 1
                                                }
                                            },
                                            {
                                                "name": "R7",
                                                "type": "uint256",
                                                "value": {
                                                    "current": "1299884",
                                                    "prev": "0",
                                                    "typeTag": 1
                                                }
                                            },
                                            {
                                                "name": "R8",
                                                "type": "uint256",
                                                "value": {
                                                    "current": "1736249069",
                                                    "prev": "0",
                                                    "typeTag": 1
                                                }
                                            }
                                        ],
                                        "typeTag": 3
                                    }
                                }
                            ],
                            "typeTag": 4
                        }
                    },
                    {
                        "name": "Time_365",
                        "type": "uint256",
                        "value": {
                            "current": "1720697069",
                            "prev": "0",
                            "typeTag": 1
                        }
                    },
                    {
                        "name": "S4",
                        "type": "uint32",
                        "value": {
                            "current": "1",
                            "prev": "0",
                            "typeTag": 1
                        }
                    },
                    {
                        "name": "S6",
                        "type": "uint32",
                        "value": {
                            "current": "0",
                            "prev": "0",
                            "typeTag": 1
                        }
                    },
                    {
                        "name": "AirDrop_Id_Number",
                        "type": "uint32",
                        "value": {
                            "current": "3",
                            "prev": "3",
                            "typeTag": 1
                        }
                    },
                    {
                        "name": "S7",
                        "type": "uint32",
                        "value": {
                            "current": "0",
                            "prev": "0",
                            "typeTag": 1
                        }
                    },
                    {
                        "name": "S3",
                        "type": "uint256",
                        "value": {
                            "current": "212998840000000000000000",
                            "prev": "0",
                            "typeTag": 1
                        }
                    }
                ]
            },
            {
                "address": "0x36696169c63e42cd08ce11f5deebbcebae652050",
                "erc": "",
                "slots": [
                    {
                        "current": "0x000000000000000050cba0dcdd4e776a00000000000000cb1bf57934e92ef8c3",
                        "key": "0x0000000000000000000000000000000000000000000000000000000000000004",
                        "prev": "0x000000000000000050cba0dcdd4e776a00000000000000b8c77665b23a59f8c3"
                    },
                    {
                        "current": "0x0000000000000000000000000000000075f61b62562ae2babe7eab1974d5e061",
                        "key": "0x0000000000000000000000000000000000000000000000000000000000000002",
                        "prev": "0x0000000000000000000000000000000075ed18e756865d70859bc578a8ed6da6"
                    }
                ],
                "storageVariables": [
                    {
                        "name": "feeGrowthGlobal0X128",
                        "type": "uint256",
                        "value": {
                            "current": "156797535950121506148076072318438596705",
                            "prev": "156750754968622087873069097628180770214",
                            "typeTag": 1
                        }
                    },
                    {
                        "name": "protocolFees",
                        "type": "struct PancakeV3Pool.ProtocolFees",
                        "value": {
                            "fields": [
                                {
                                    "name": "token0",
                                    "type": "uint128",
                                    "value": {
                                        "current": "3746703696639514572995",
                                        "prev": "3408573696639514572995",
                                        "typeTag": 1
                                    }
                                },
                                {
                                    "name": "token1",
                                    "type": "uint128",
                                    "value": {
                                        "current": "5821923813772654442",
                                        "prev": "5821923813772654442",
                                        "typeTag": 1
                                    }
                                }
                            ],
                            "typeTag": 3
                        }
                    }
                ]
            },
            {
                "address": "0x55d398326f99059ff775485246999027b3197955",
                "erc": "ERC-20",
                "slots": [
                    {
                        "current": "0x0000000000000000000000000000000000000000001de3c66971faf091ff30e2",
                        "key": "0x4b4dfb61299ca62a744d1ae05c6e24e84740e94efd86eec09992191d35df35c4",
                        "prev": "0x0000000000000000000000000000000000000000001de3907ffc3a06cc0530e2"
                    },
                    {
                        "current": "0x0000000000000000000000000000000000000000000000008a28ca1034faa1ab",
                        "key": "0x87c17ff7bc843b6009e27da1c090f17e711ae6ed4f6be458b92ea9392953eadc",
                        "prev": "0x000000000000000000000000000000000000000000000c2aa6970027a545aaab"
                    },
                    {
                        "current": "0x00000000000000000000000000000000000004ee2d6c762dbf59c3a6cc030900",
                        "key": "0x73b4be95fa19bfff8c0b409d35986449aa2b05282f56ca67da0cc0a15d718c22",
                        "prev": "0x0000000000000000000000000000000000000000000000000000000000000000"
                    },
                    {
                        "current": "0x000000000000000000000000000000000000000000000bf432f8754a6f5adc88",
                        "key": "0x87c83e759d7b138d17b0e45f5f685f0c63524d86ad54e2a2f032a714b034a9ee",
                        "prev": "0x0000000000000000000000000000000000000000000000000000001cc509d388"
                    }
                ],
                "storageVariables": [
                    {
                        "name": "_balances",
                        "type": "mapping(address => uint256)",
                        "value": {
                            "pairs": [
                                {
                                    "key": "0x2b45dd1d909c01aad96fa6b67108d691b432f351",
                                    "value": {
                                        "current": "9955429147259609515",
                                        "prev": "57455165109033599609515",
                                        "typeTag": 1
                                    }
                                },
                                {
                                    "key": "0x3026c464d3bd6ef0ced0d49e80f171b58176ce32",
                                    "value": {
                                        "current": "56450709680009904839816",
                                        "prev": "123564839816",
                                        "typeTag": 1
                                    }
                                },
                                {
                                    "key": "0x36696169c63e42cd08ce11f5deebbcebae652050",
                                    "value": {
                                        "current": "36134486013892207520461026",
                                        "prev": "36133491513892207520461026",
                                        "typeTag": 1
                                    }
                                }
                            ],
                            "typeTag": 4
                        }
                    },
                    {
                        "name": "_allowances",
                        "type": "mapping(address => mapping(address => uint256))",
                        "value": {
                            "pairs": [
                                {
                                    "key": "0x88f9e1799465655f0dd206093dbd08922a1d9e28",
                                    "value": {
                                        "pairs": [
                                            {
                                                "key": "0x2b45dd1d909c01aad96fa6b67108d691b432f351",
                                                "value": {
                                                    "current": "99999999040515209679886340000000",
                                                    "prev": "0",
                                                    "typeTag": 1
                                                }
                                            }
                                        ],
                                        "typeTag": 4
                                    }
                                }
                            ],
                            "typeTag": 4
                        }
                    }
                ]
            },
            {
                "address": "0x88f9e1799465655f0dd206093dbd08922a1d9e28",
                "erc": "",
                "slots": [
                    {
                        "current": "0x00000000000000000000000000000000000000000000000000000000001e0352",
                        "key": "0x000000000000000000000000000000000000000000000000000000000000000a",
                        "prev": "0x0000000000000000000000000000000000000000000000000000000000000000"
                    },
                    {
                        "current": "0x0000000000000000000000002b45dd1d909c01aad96fa6b67108d691b432f351",
                        "key": "0x000000000000000000000000000000000000000000000000000000000000000d",
                        "prev": "0x0000000000000000000000000000000000000000000000000000000000000000"
                    },
                    {
                        "current": "0x0000000000000000000000000000000000000000000000000000000001312d00",
                        "key": "0x0000000000000000000000000000000000000000000000000000000000000010",
                        "prev": "0x0000000000000000000000000000000000000000000000000000000000000000"
                    }
                ],
                "storageVariables": []
            },
            {
                "address": "0x94441698165fb7e132e207800b3ea57e34c93a72",
                "erc": "ERC-20",
                "slots": [
                    {
                        "current": "0x00000000000000000000000000000000000004ee2d6c2e18ab59481a54d00000",
                        "key": "0x352d5020b53b28166ade3d90d13604df76485d4b153b7dc0de005c2c5c3e6b67",
                        "prev": "0x0000000000000000000000000000000000000000000000000000000000000000"
                    },
                    {
                        "current": "0x00000000000000000000000000000000000000000001e7006e611f4b794a88e2",
                        "key": "0x80e24935e0b7a44eb071f236ef12dd8f0eda2b64eaab9e861ff84745818197c2",
                        "prev": "0x000000000000000000000000000000000000000000115ee7c0357a75621a88e2"
                    },
                    {
                        "current": "0x0000000000000000000000000000000000000000000f77e751d45b29e8d00000",
                        "key": "0x62beb675b005c77f080f94ff9b46d61a7fc1f39f886c48a00838e11c357fdd56",
                        "prev": "0x0000000000000000000000000000000000000000000000000000000000000000"
                    }
                ],
                "storageVariables": [
                    {
                        "name": "_allowances",
                        "type": "mapping(address => mapping(address => uint256))",
                        "value": {
                            "pairs": [
                                {
                                    "key": "0x88f9e1799465655f0dd206093dbd08922a1d9e28",
                                    "value": {
                                        "pairs": [
                                            {
                                                "key": "0x2b45dd1d909c01aad96fa6b67108d691b432f351",
                                                "value": {
                                                    "current": "99999998700116000000000000000000",
                                                    "prev": "0",
                                                    "typeTag": 1
                                                }
                                            }
                                        ],
                                        "typeTag": 4
                                    }
                                }
                            ],
                            "typeTag": 4
                        }
                    },
                    {
                        "name": "_balances",
                        "type": "mapping(address => uint256)",
                        "value": {
                            "pairs": [
                                {
                                    "key": "0x2b45dd1d909c01aad96fa6b67108d691b432f351",
                                    "value": {
                                        "current": "2299800430830343150012642",
                                        "prev": "20999916430830343150012642",
                                        "typeTag": 1
                                    }
                                },
                                {
                                    "key": "0x88f9e1799465655f0dd206093dbd08922a1d9e28",
                                    "value": {
                                        "current": "18700116000000000000000000",
                                        "prev": "0",
                                        "typeTag": 1
                                    }
                                }
                            ],
                            "typeTag": 4
                        }
                    }
                ]
            }
        ]
    }
}