{
    "balance_change": {
        "balanceChanges": [
            {
                "account": "0x94641c01a4937f2c8ef930580cf396142a2942dc",
                "assets": [
                    {
                        "address": "0xc69ad9bab1dee23f4605a82b3354f8e40d1e5966",
                        "amount": "10",
                        "iconUrl": "",
                        "isERC1155": false,
                        "isERC721": false,
                        "sign": true,
                        "value": "29019.70275"
                    }
                ]
            },
            {
                "account": "0xf9303877f107f5cd2cb0654b6d7a6d749fa03856",
                "assets": [
                    {
                        "address": "0xc69ad9bab1dee23f4605a82b3354f8e40d1e5966",
                        "amount": "10",
                        "iconUrl": "",
                        "isERC1155": false,
                        "isERC721": false,
                        "sign": false,
                        "value": "29019.70275"
                    }
                ]
            }
        ]
    },
    "profile": {
        "basic_info": {
            "baseFee": "69.804051586",
            "blockNumber": 19326761,
            "callData": "0x568d8cd9000000000000000000000000000000000000000000000000000000000000006000000000000000000000000000000000000000000000000000000000000000a000000000000000000000000000000000000000000000000000000000000000e00000000000000000000000000000000000000000000000000000000000000001000000000000000000000000000000000000000000000000000000000000001e00000000000000000000000000000000000000000000000000000000000000010000000000000000000000000000000000000000000000000000000000000000000000000000000000000000000000000000000000000000000000000000000100000000000000000000000000000000000000000000000000000000000000200000000000000000000000000000000000000000000000000000000000000140000000000000000000000000c69ad9bab1dee23f4605a82b3354f8e40d1e596600000000000000000000000000000000000000000000000000000000000000a0000000000000000000000000000000000000000000000000000000000000000000000000000000000000000000000000000000000000000000000000000000000000000000000000000000000000000000000000000000000000000000000000000000000000000000000000000000000000000000000000000000000000006423b872dd000000000000000000000000f9303877f107f5cd2cb0654b6d7a6d749fa0385600000000000000000000000094641c01a4937f2c8ef930580cf396142a2942dc0000000000000000000000000000000000000000000000008ac7230489e8000000000000000000000000000000000000000000000000000000000000",
            "debugEnable": true,
            "errorInfo": "",
            "eventCount": 2,
            "feeRecipient": "0x1f9090aae28b8a3dceadf281b0f12828e676c326",
            "formatValue": "0",
            "gasLimit": 101601,
            "gasPrice": "69.836009964",
            "gasUsed": 56776,
            "intTxnCount": 2,
            "internalRevert": false,
            "internalRevertMessage": "",
            "isContractCreation": false,
            "isFlashloan": false,
            "maxFee": "89.959986055",
            "nonce": 23,
            "overwritedBlockNumber": -1,
            "priorityFee": "0.031958378",
            "receiver": "0xbc83f2711d0749d7454e4a9d53d8594df0377c05",
            "revertMessage": "",
            "sender": "0x94641c01a4937f2c8ef930580cf396142a2942dc",
            "simulationEnable": true,
            "sourceTxnHash": "0x9f3712672be7a120757d42fbe15ceefe9578914946bacbd0f3531e7fb7305576",
            "status": true,
            "timestamp": "2024-02-28T14:56:35Z",
            "transactionFee": "0.003965009301716064",
            "txnHash": "0x9f3712672be7a120757d42fbe15ceefe9578914946bacbd0f3531e7fb7305576",
            "txnIndex": 156,
            "type": 2,
            "value": "0"
        },
        "fund_flow": [
            {
                "amount": "10",
                "from": "0xf9303877f107f5cd2cb0654b6d7a6d749fa03856",
                "id": 1,
                "isERC1155": false,
                "isERC721": false,
                "isReverted": false,
                "order": 1,
                "to": "0x94641c01a4937f2c8ef930580cf396142a2942dc",
                "token": "0xc69ad9bab1dee23f4605a82b3354f8e40d1e5966"
            }
        ],
        "token_infos": [
            {
                "address": "0xc02aaa39b223fe8d0a0e5c4f27ead9083c756cc2",
                "decimals": 18
            },
            {
                "address": "0xc69ad9bab1dee23f4605a82b3354f8e40d1e5966",
                "decimals": 18
            },
            {
                "address": "0xeeeeeeeeeeeeeeeeeeeeeeeeeeeeeeeeeeeeeeee",
                "decimals": 18
            }
        ]
    },
    "address_label": {
        "labels": [
            {
                "address": "0x45e15d1e4f92f28a916f4f2971ad9adc278e148b",
                "label": "Chamber"
            },
            {
                "address": "0x0000000000000000000000000000000000000001",
                "label": "Precompiled"
            },
            {
                "address": "0x0000000000000000000000000000000000000002",
                "label": "Precompiled"
            },
            {
                "address": "0x0000000000000000000000000000000000000003",
                "label": "Precompiled"
            },
            {
                "address": "0x0000000000000000000000000000000000000004",
                "label": "Precompiled"
            },
            {
                "address": "0x94641c01a4937f2c8ef930580cf396142a2942dc",
                "label": "Seneca Exploiter"
            },
            {
                "address": "0xc69ad9bab1dee23f4605a82b3354f8e40d1e5966",
                "label": "Pendle: PT-weETH-27JUN2024 Token"
            },
            {
                "address": "0xeeeeeeeeeeeeeeeeeeeeeeeeeeeeeeeeeeeeeeee",
                "label": "Ether"
            },
            {
                "address": "0xbc83f2711d0749d7454e4a9d53d8594df0377c05",
                "label": "Seneca: Chamber"
            }
        ]
    },
    "trace": {
        "accountLabels": null,
        "dataMap": {
            "-1": {
                "invocation": {
                    "address": "0x94641c01a4937f2c8ef930580cf396142a2942dc",
                    "callData": "",
                    "decodedMethod": null,
                    "errorInfo": "",
                    "fromAddress": "",
                    "gasUsed": 0,
                    "id": -1,
                    "methodDecoded": false,
                    "operation": "",
                    "output": "",
                    "revert": false,
                    "revertMessage": "",
                    "selector": "",
                    "status": false,
                    "value": ""
                },
                "nodeType": 0
            },
            "0": {
                "invocation": {
                    "address": "0xbc83f2711d0749d7454e4a9d53d8594df0377c05",
                    "callData": "0x000000000000000000000000000000000000000000000000000000000000006000000000000000000000000000000000000000000000000000000000000000a000000000000000000000000000000000000000000000000000000000000000e00000000000000000000000000000000000000000000000000000000000000001000000000000000000000000000000000000000000000000000000000000001e00000000000000000000000000000000000000000000000000000000000000010000000000000000000000000000000000000000000000000000000000000000000000000000000000000000000000000000000000000000000000000000000100000000000000000000000000000000000000000000000000000000000000200000000000000000000000000000000000000000000000000000000000000140000000000000000000000000c69ad9bab1dee23f4605a82b3354f8e40d1e596600000000000000000000000000000000000000000000000000000000000000a0000000000000000000000000000000000000000000000000000000000000000000000000000000000000000000000000000000000000000000000000000000000000000000000000000000000000000000000000000000000000000000000000000000000000000000000000000000000000000000000000000000000000006423b872dd000000000000000000000000f9303877f107f5cd2cb0654b6d7a6d749fa0385600000000000000000000000094641c01a4937f2c8ef930580cf396142a2942dc0000000000000000000000000000000000000000000000008ac7230489e8000000000000000000000000000000000000000000000000000000000000",
                    "decodedMethod": {
                        "callParams": [
                            {
                                "name": "actions",
                                "type": "uint8[]",
                                "value": [
                                    "30"
                                ]
                            },
                            {
                                "name": "values",
                                "type": "uint256[]",
                                "value": [
                                    "0"
                                ]
                            },
                            {
                                "name": "datas",
                                "type": "bytes[]",
                                "value": [
                                    "0x000000000000000000000000c69ad9bab1dee23f4605a82b3354f8e40d1e596600000000000000000000000000000000000000000000000000000000000000a0000000000000000000000000000000000000000000000000000000000000000000000000000000000000000000000000000000000000000000000000000000000000000000000000000000000000000000000000000000000000000000000000000000000000000000000000000000000000000000000000000000000000006423b872dd000000000000000000000000f9303877f107f5cd2cb0654b6d7a6d749fa0385600000000000000000000000094641c01a4937f2c8ef930580cf396142a2942dc0000000000000000000000000000000000000000000000008ac7230489e8000000000000000000000000000000000000000000000000000000000000"
                                ]
                            }
                        ],
                        "constructorArguments": "",
                        "name": "performOperations",
                        "returnParams": [
                            {
                                "name": "value1",
                                "type": "uint256",
                                "value": "0"
                            },
                            {
                                "name": "value2",
                                "type": "uint256",
                                "value": "0"
                            }
                        ],
                        "signature": "performOperations(uint8[],uint256[],bytes[])"
                    },
                    "errorInfo": "",
                    "fromAddress": "0x94641c01a4937f2c8ef930580cf396142a2942dc",
                    "gasUsed": 56776,
                    "id": 0,
                    "methodDecoded": true,
                    "operation": "CALL",
                    "output": "0x00000000000000000000000000000000000000000000000000000000000000000000000000000000000000000000000000000000000000000000000000000000",
                    "revert": false,
                    "revertMessage": "",
                    "selector": "0x568d8cd9",
                    "status": true,
                    "value": "0"
                },
                "nodeType": 0
            },
            "1": {
                "invocation": {
                    "address": "0x45e15d1e4f92f28a916f4f2971ad9adc278e148b",
                    "callData": "0x000000000000000000000000000000000000000000000000000000000000006000000000000000000000000000000000000000000000000000000000000000a000000000000000000000000000000000000000000000000000000000000000e00000000000000000000000000000000000000000000000000000000000000001000000000000000000000000000000000000000000000000000000000000001e00000000000000000000000000000000000000000000000000000000000000010000000000000000000000000000000000000000000000000000000000000000000000000000000000000000000000000000000000000000000000000000000100000000000000000000000000000000000000000000000000000000000000200000000000000000000000000000000000000000000000000000000000000140000000000000000000000000c69ad9bab1dee23f4605a82b3354f8e40d1e596600000000000000000000000000000000000000000000000000000000000000a0000000000000000000000000000000000000000000000000000000000000000000000000000000000000000000000000000000000000000000000000000000000000000000000000000000000000000000000000000000000000000000000000000000000000000000000000000000000000000000000000000000000000006423b872dd000000000000000000000000f9303877f107f5cd2cb0654b6d7a6d749fa0385600000000000000000000000094641c01a4937f2c8ef930580cf396142a2942dc0000000000000000000000000000000000000000000000008ac7230489e8000000000000000000000000000000000000000000000000000000000000",
                    "decodedMethod": {
                        "callParams": [
                            {
                                "name": "actions",
                                "type": "uint8[]",
                                "value": [
                                    "30"
                                ]
                            },
                            {
                                "name": "values",
                                "type": "uint256[]",
                                "value": [
                                    "0"
                                ]
                            },
                            {
                                "name": "datas",
                                "type": "bytes[]",
                                "value": [
                                    "0x000000000000000000000000c69ad9bab1dee23f4605a82b3354f8e40d1e596600000000000000000000000000000000000000000000000000000000000000a0000000000000000000000000000000000000000000000000000000000000000000000000000000000000000000000000000000000000000000000000000000000000000000000000000000000000000000000000000000000000000000000000000000000000000000000000000000000000000000000000000000000000006423b872dd000000000000000000000000f9303877f107f5cd2cb0654b6d7a6d749fa0385600000000000000000000000094641c01a4937f2c8ef930580cf396142a2942dc0000000000000000000000000000000000000000000000008ac7230489e8000000000000000000000000000000000000000000000000000000000000"
                                ]
                            }
                        ],
                        "constructorArguments": "",
                        "name": "performOperations",
                        "returnParams": [
                            {
                                "name": "value1",
                                "type": "uint256",
                                "value": "0"
                            },
                            {
                                "name": "value2",
                                "type": "uint256",
                                "value": "0"
                            }
                        ],
                        "signature": "performOperations(uint8[],uint256[],bytes[])"
                    },
                    "errorInfo": "",
                    "fromAddress": "0xbc83f2711d0749d7454e4a9d53d8594df0377c05",
                    "gasUsed": 36979,
                    "id": 1,
                    "methodDecoded": true,
                    "operation": "DELEGATECALL",
                    "output": "0x00000000000000000000000000000000000000000000000000000000000000000000000000000000000000000000000000000000000000000000000000000000",
                    "revert": false,
                    "revertMessage": "",
                    "selector": "0x568d8cd9",
                    "status": true,
                    "value": "0"
                },
                "nodeType": 0
            },
            "2": {
                "invocation": {
                    "address": "0xc69ad9bab1dee23f4605a82b3354f8e40d1e5966",
                    "callData": "0x000000000000000000000000f9303877f107f5cd2cb0654b6d7a6d749fa0385600000000000000000000000094641c01a4937f2c8ef930580cf396142a2942dc0000000000000000000000000000000000000000000000008ac7230489e80000",
                    "decodedMethod": {
                        "callParams": [
                            {
                                "name": "from",
                                "type": "address",
                                "value": "0xf9303877f107f5cd2cb0654b6d7a6d749fa03856"
                            },
                            {
                                "name": "to",
                                "type": "address",
                                "value": "0x94641c01a4937f2c8ef930580cf396142a2942dc"
                            },
                            {
                                "decimalAvailable": true,
                                "name": "amount",
                                "type": "uint256",
                                "value": "10,000,000,000,000,000,000"
                            }
                        ],
                        "constructorArguments": "",
                        "name": "transferFrom",
                        "returnParams": [
                            {
                                "name": "",
                                "type": "bool",
                                "value": true
                            }
                        ],
                        "signature": "transferFrom(address,address,uint256)"
                    },
                    "errorInfo": "",
                    "fromAddress": "0xbc83f2711d0749d7454e4a9d53d8594df0377c05",
                    "gasUsed": 25132,
                    "id": 2,
                    "methodDecoded": true,
                    "operation": "CALL",
                    "output": "0x0000000000000000000000000000000000000000000000000000000000000001",
                    "revert": false,
                    "revertMessage": "",
                    "selector": "0x23b872dd",
                    "status": true,
                    "value": "0"
                },
                "nodeType": 0
            },
            "3": {
                "event": {
                    "contract": "0xc69ad9bab1dee23f4605a82b3354f8e40d1e5966",
                    "decodedLog": {
                        "name": "Approval",
                        "params": [
                            {
                                "name": "owner",
                                "type": "address",
                                "value": "0xf9303877f107f5cd2cb0654b6d7a6d749fa03856"
                            },
                            {
                                "name": "spender",
                                "type": "address",
                                "value": "0xbc83f2711d0749d7454e4a9d53d8594df0377c05"
                            },
                            {
                                "decimalAvailable": true,
                                "name": "value",
                                "type": "uint256",
                                "value": "0"
                            }
                        ],
                        "signature": "Approval(address,address,uint256)"
                    },
                    "id": 3,
                    "logData": "0x0000000000000000000000000000000000000000000000000000000000000000",
                    "logDecoded": true,
                    "operation": "EVENT",
                    "revert": false,
                    "status": true,
                    "topics": [
                        "0x8c5be1e5ebec7d5bd14f71427d1e84f3dd0314c0f7b2291e5b200ac8c7c3b925",
                        "0x000000000000000000000000f9303877f107f5cd2cb0654b6d7a6d749fa03856",
                        "0x000000000000000000000000bc83f2711d0749d7454e4a9d53d8594df0377c05"
                    ]
                },
                "nodeType": 1
            },
            "4": {
                "event": {
                    "contract": "0xc69ad9bab1dee23f4605a82b3354f8e40d1e5966",
                    "decodedLog": {
                        "name": "Transfer",
                        "params": [
                            {
                                "name": "from",
                                "type": "address",
                                "value": "0xf9303877f107f5cd2cb0654b6d7a6d749fa03856"
                            },
                            {
                                "name": "to",
                                "type": "address",
                                "value": "0x94641c01a4937f2c8ef930580cf396142a2942dc"
                            },
                            {
                                "decimalAvailable": true,
                                "name": "value",
                                "type": "uint256",
                                "value": "10,000,000,000,000,000,000"
                            }
                        ],
                        "signature": "Transfer(address,address,uint256)"
                    },
                    "id": 4,
                    "logData": "0x0000000000000000000000000000000000000000000000008ac7230489e80000",
                    "logDecoded": true,
                    "operation": "EVENT",
                    "revert": false,
                    "status": true,
                    "topics": [
                        "0xddf252ad1be2c89b69c2b068fc378daa952ba7f163c4a11628f55a4df523b3ef",
                        "0x000000000000000000000000f9303877f107f5cd2cb0654b6d7a6d749fa03856",
                        "0x00000000000000000000000094641c01a4937f2c8ef930580cf396142a2942dc"
                    ]
                },
                "nodeType": 1
            }
        },
        "gasFlame": [
            {
                "children": [
                    {
                        "children": [
                            {
                                "children": [],
                                "depth": 0,
                                "name": "Initial Gas",
                                "value": 24608
                            },
                            {
                                "children": [
                                    {
                                        "children": [
                                            {
                                                "children": [],
                                                "depth": 2,
                                                "name": "transferFrom",
                                                "value": 25132
                                            }
                                        ],
                                        "depth": 1,
                                        "name": "performOperations",
                                        "value": 36979
                                    }
                                ],
                                "depth": 0,
                                "name": "Executed Gas",
                                "value": 39768
                            }
                        ],
                        "depth": -1,
                        "name": "Actual Gas Used",
                        "value": 56776
                    },
                    {
                        "children": [],
                        "depth": -1,
                        "name": "Refunded Gas",
                        "value": 7600
                    }
                ],
                "depth": -2,
                "name": "Total Gas",
                "value": 64376
            }
        ],
        "isConfirmed": true,
        "mainTrace": [
            {
                "children": [
                    {
                        "children": [
                            {
                                "children": [
                                    {
                                        "children": [
                                            {
                                                "children": [],
                                                "depth": 3,
                                                "id": 3,
                                                "order": 3
                                            },
                                            {
                                                "children": [],
                                                "depth": 3,
                                                "id": 4,
                                                "order": 4
                                            }
                                        ],
                                        "depth": 2,
                                        "id": 2,
                                        "order": 2
                                    }
                                ],
                                "depth": 1,
                                "id": 1,
                                "order": 1
                            }
                        ],
                        "depth": 0,
                        "id": 0,
                        "order": 0
                    }
                ],
                "depth": -1,
                "id": -1,
                "order": -1
            }
        ],
        "mainTraceNodeCount": 5,
        "parentIdMap": {
            "0": -1,
            "1": 0,
            "2": 1,
            "3": 2,
            "4": 2
        },
        "tidyTrace": [
            {
                "children": [
                    {
                        "children": [
                            {
                                "children": [
                                    {
                                        "children": [
                                            {
                                                "children": [],
                                                "depth": 3,
                                                "id": 3,
                                                "order": 3
                                            },
                                            {
                                                "children": [],
                                                "depth": 3,
                                                "id": 4,
                                                "order": 4
                                            }
                                        ],
                                        "depth": 2,
                                        "id": 2,
                                        "order": 2
                                    }
                                ],
                                "depth": 1,
                                "id": 1,
                                "order": 1
                            }
                        ],
                        "depth": 0,
                        "id": 0,
                        "order": 0
                    }
                ],
                "depth": -1,
                "id": -1,
                "order": -1
            }
        ],
        "tidyTraceNodeCount": 5
    },
    "state_change": {
        "stateChanges": [
            {
                "address": "0xc69ad9bab1dee23f4605a82b3354f8e40d1e5966",
                "erc": "",
                "slots": [
                    {
                        "current": "0x0000000000000000000000000000000000000000000000021a1081a1028c43d6",
                        "key": "0x6c8b36d7afc37c9d5a1bc32d69a4fc90c908ec961d2d6d6615be887cf25f7aca",
                        "prev": "0x000000000000000000000000000000000000000000000002a4d7a4a58c7443d6"
                    },
                    {
                        "current": "0x000000000000000000000000000000000000000000000001a055690d9db80000",
                        "key": "0x0e3bd16d350f0bc506bb46336146b71ed28fb7161b1a6b52f16280aa7de68821",
                        "prev": "0x000000000000000000000000000000000000000000000001158e460913d00000"
                    },
                    {
                        "current": "0x0000000000000000000000000000000000000000000000000000000000000000",
                        "key": "0x067b10ef92eb2a622a01041b4d93cdc433543170ea14cb0e71c3ecdb9d7310d5",
                        "prev": "0x0000000000000000000000000000000000000000000000008ac7230489e80000"
                    }
                ],
                "storageVariables": []
            }
        ]
    }
}