{
    "balance_change": {
        "balanceChanges": [
            {
                "account": "0x4e77df7b9cdcecec4115e59546f3eacba095a89f",
                "assets": [
                    {
                        "address": "0x55d398326f99059ff775485246999027b3197955",
                        "amount": "31,794.192560957275136775",
                        "iconUrl": "https://assets.blocksec.com/icon/810ebed5-1cb7-4a60-827d-c7eb0c438c0e.png",
                        "isERC1155": false,
                        "isERC721": false,
                        "sign": true,
                        "value": "31771.936625207998922"
                    }
                ]
            },
            {
                "account": "0x16b9a82891338f9ba80e2d6970fdda79d1eb0dae",
                "assets": [
                    {
                        "address": "0x55d398326f99059ff775485246999027b3197955",
                        "amount": "7,978.788",
                        "iconUrl": "https://assets.blocksec.com/icon/810ebed5-1cb7-4a60-827d-c7eb0c438c0e.png",
                        "isERC1155": false,
                        "isERC721": false,
                        "sign": true,
                        "value": "7973.2028483999997293"
                    }
                ]
            },
            {
                "account": "0x27539b1dee647b38e1b987c41c5336b1a8dce663",
                "assets": [
                    {
                        "address": "0x55d398326f99059ff775485246999027b3197955",
                        "amount": "39,885.623577085020521681",
                        "iconUrl": "https://assets.blocksec.com/icon/810ebed5-1cb7-4a60-827d-c7eb0c438c0e.png",
                        "isERC1155": false,
                        "isERC721": false,
                        "sign": false,
                        "value": "39857.703643493998648"
                    }
                ]
            },
            {
                "account": "0x919964b7f12a742e3d33176d7af9094ea4152e6f",
                "assets": [
                    {
                        "address": "0x55d398326f99059ff775485246999027b3197955",
                        "amount": "112.643016127745384906",
                        "iconUrl": "https://assets.blocksec.com/icon/810ebed5-1cb7-4a60-827d-c7eb0c438c0e.png",
                        "isERC1155": false,
                        "isERC721": false,
                        "sign": true,
                        "value": "112.56416598872999618"
                    }
                ]
            }
        ]
    },
    "profile": {
        "basic_info": {
            "baseFee": "",
            "blockNumber": 21727290,
            "callData": "0xb1dfce1e00000000000000000000000000000000000000000002a12317e22bc8c6c0000000000000000000000000000000000000000000000000000ad78ebc5ac6200000",
            "debugEnable": true,
            "errorInfo": "",
            "eventCount": 17,
            "feeRecipient": "0xea0a6e3c511bbd10f4519ece37dc24887e11b55d",
            "formatValue": "0",
            "gasLimit": 516744,
            "gasPrice": "5",
            "gasUsed": 472262,
            "intTxnCount": 36,
            "internalRevert": false,
            "internalRevertMessage": "",
            "isContractCreation": false,
            "isFlashloan": true,
            "maxFee": "",
            "nonce": 23,
            "overwritedBlockNumber": -1,
            "priorityFee": "",
            "receiver": "0x4e77df7b9cdcecec4115e59546f3eacba095a89f",
            "revertMessage": "",
            "sender": "0x81c63d821b7cdf70c61009a81fef8db5949ac0c9",
            "simulationEnable": true,
            "sourceTxnHash": "0xa13c8c7a0c97093dba3096c88044273c29cebeee109e23622cd412dcca8f50f4",
            "status": true,
            "timestamp": "2022-09-28T14:23:18Z",
            "transactionFee": "0.00236131",
            "txnHash": "0xa13c8c7a0c97093dba3096c88044273c29cebeee109e23622cd412dcca8f50f4",
            "txnIndex": 207,
            "type": 0,
            "value": "0"
        },
        "fund_flow": [
            {
                "amount": "3,178,800",
                "from": "0x16b9a82891338f9ba80e2d6970fdda79d1eb0dae",
                "id": 1,
                "isERC1155": false,
                "isERC721": false,
                "isReverted": false,
                "order": 1,
                "to": "0x4e77df7b9cdcecec4115e59546f3eacba095a89f",
                "token": "0x55d398326f99059ff775485246999027b3197955"
            },
            {
                "amount": "3,148,800",
                "from": "0x4e77df7b9cdcecec4115e59546f3eacba095a89f",
                "id": 2,
                "isERC1155": false,
                "isERC721": false,
                "isReverted": false,
                "order": 2,
                "to": "0x919964b7f12a742e3d33176d7af9094ea4152e6f",
                "token": "0x55d398326f99059ff775485246999027b3197955"
            },
            {
                "amount": "148,851.122554820748325386",
                "from": "0x919964b7f12a742e3d33176d7af9094ea4152e6f",
                "id": 3,
                "isERC1155": false,
                "isERC721": false,
                "isReverted": false,
                "order": 3,
                "to": "0x4e77df7b9cdcecec4115e59546f3eacba095a89f",
                "token": "0x6d1b7b59e3fab85b7d3a3d86e505dd8e349ea7f3"
            },
            {
                "amount": "200",
                "from": "0x4e77df7b9cdcecec4115e59546f3eacba095a89f",
                "id": 4,
                "isERC1155": false,
                "isERC721": false,
                "isReverted": false,
                "order": 4,
                "to": "0x27539b1dee647b38e1b987c41c5336b1a8dce663",
                "token": "0x55d398326f99059ff775485246999027b3197955"
            },
            {
                "amount": "40,085.623577085020521681",
                "from": "0x27539b1dee647b38e1b987c41c5336b1a8dce663",
                "id": 5,
                "isERC1155": false,
                "isERC721": false,
                "isReverted": false,
                "order": 5,
                "to": "0x4e77df7b9cdcecec4115e59546f3eacba095a89f",
                "token": "0x55d398326f99059ff775485246999027b3197955"
            },
            {
                "amount": "148,851.122554820748325386",
                "from": "0x4e77df7b9cdcecec4115e59546f3eacba095a89f",
                "id": 6,
                "isERC1155": false,
                "isERC721": false,
                "isReverted": false,
                "order": 6,
                "to": "0x919964b7f12a742e3d33176d7af9094ea4152e6f",
                "token": "0x6d1b7b59e3fab85b7d3a3d86e505dd8e349ea7f3"
            },
            {
                "amount": "3,148,687.356983872254615094",
                "from": "0x919964b7f12a742e3d33176d7af9094ea4152e6f",
                "id": 7,
                "isERC1155": false,
                "isERC721": false,
                "isReverted": false,
                "order": 7,
                "to": "0x4e77df7b9cdcecec4115e59546f3eacba095a89f",
                "token": "0x55d398326f99059ff775485246999027b3197955"
            },
            {
                "amount": "3,186,778.788",
                "from": "0x4e77df7b9cdcecec4115e59546f3eacba095a89f",
                "id": 8,
                "isERC1155": false,
                "isERC721": false,
                "isReverted": false,
                "order": 8,
                "to": "0x16b9a82891338f9ba80e2d6970fdda79d1eb0dae",
                "token": "0x55d398326f99059ff775485246999027b3197955"
            }
        ],
        "token_infos": [
            {
                "address": "0x6d1b7b59e3fab85b7d3a3d86e505dd8e349ea7f3",
                "decimals": 18
            },
            {
                "address": "0xbb4cdb9cbd36b01bd1cbaebf2de08d9173bc095c",
                "decimals": 18
            },
            {
                "address": "0xeeeeeeeeeeeeeeeeeeeeeeeeeeeeeeeeeeeeeeee",
                "decimals": 18
            },
            {
                "address": "0x55d398326f99059ff775485246999027b3197955",
                "decimals": 18
            }
        ]
    },
    "address_label": {
        "labels": [
            {
                "address": "0x0000000000000000000000000000000000000003",
                "label": "Precompiled"
            },
            {
                "address": "0xeeeeeeeeeeeeeeeeeeeeeeeeeeeeeeeeeeeeeeee",
                "label": "BNB"
            },
            {
                "address": "0x919964b7f12a742e3d33176d7af9094ea4152e6f",
                "label": "BXH Swap LP Token (SLP)"
            },
            {
                "address": "0x6a1a6b78a57965e8ef8d1c51d92701601fa74f01",
                "label": "UniswapV2Router02"
            },
            {
                "address": "0xbb4cdb9cbd36b01bd1cbaebf2de08d9173bc095c",
                "label": "Wrapped BNB"
            },
            {
                "address": "0x55d398326f99059ff775485246999027b3197955",
                "label": "BUSD-T Stablecoin"
            },
            {
                "address": "0x0000000000000000000000000000000000000002",
                "label": "Precompiled"
            },
            {
                "address": "0x16b9a82891338f9ba80e2d6970fdda79d1eb0dae",
                "label": "PancakeSwap: WBNB-BSC-USD 2"
            },
            {
                "address": "0x6d1b7b59e3fab85b7d3a3d86e505dd8e349ea7f3",
                "label": "BXH: BXH Token"
            },
            {
                "address": "0x27539b1dee647b38e1b987c41c5336b1a8dce663",
                "label": "TokenStakingPoolDelegate"
            },
            {
                "address": "0x0000000000000000000000000000000000000001",
                "label": "Precompiled"
            },
            {
                "address": "0x0000000000000000000000000000000000000004",
                "label": "Precompiled"
            }
        ]
    },
    "trace": {
        "accountLabels": null,
        "dataMap": {
            "-1": {
                "invocation": {
                    "address": "0x81c63d821b7cdf70c61009a81fef8db5949ac0c9",
                    "callData": "",
                    "decodedMethod": null,
                    "errorInfo": "",
                    "fromAddress": "",
                    "gasUsed": 0,
                    "id": -1,
                    "methodDecoded": false,
                    "operation": "",
                    "output": "",
                    "revert": false,
                    "revertMessage": "",
                    "selector": "",
                    "status": false,
                    "value": ""
                },
                "nodeType": 0
            },
            "0": {
                "invocation": {
                    "address": "0x4e77df7b9cdcecec4115e59546f3eacba095a89f",
                    "callData": "0x00000000000000000000000000000000000000000002a12317e22bc8c6c0000000000000000000000000000000000000000000000000000ad78ebc5ac6200000",
                    "decodedMethod": null,
                    "errorInfo": "",
                    "fromAddress": "0x81c63d821b7cdf70c61009a81fef8db5949ac0c9",
                    "gasUsed": 472262,
                    "id": 0,
                    "methodDecoded": false,
                    "operation": "CALL",
                    "output": "",
                    "revert": false,
                    "revertMessage": "",
                    "selector": "0xb1dfce1e",
                    "status": true,
                    "value": "0"
                },
                "nodeType": 0
            },
            "1": {
                "invocation": {
                    "address": "0x16b9a82891338f9ba80e2d6970fdda79d1eb0dae",
                    "callData": "0x00000000000000000000000000000000000000000002a12317e22bc8c6c0000000000000000000000000000000000000000000000000000000000000000000000000000000000000000000004e77df7b9cdcecec4115e59546f3eacba095a89f000000000000000000000000000000000000000000000000000000000000008000000000000000000000000000000000000000000000000000000000000000010000000000000000000000000000000000000000000000000000000000000000",
                    "decodedMethod": {
                        "callParams": [
                            {
                                "name": "amount0Out",
                                "type": "uint256",
                                "value": "3,178,800,000,000,000,000,000,000"
                            },
                            {
                                "name": "amount1Out",
                                "type": "uint256",
                                "value": "0"
                            },
                            {
                                "name": "to",
                                "type": "address",
                                "value": "0x4e77df7b9cdcecec4115e59546f3eacba095a89f"
                            },
                            {
                                "name": "data",
                                "type": "bytes",
                                "value": "0x00"
                            }
                        ],
                        "constructorArguments": "",
                        "name": "swap",
                        "returnParams": [],
                        "signature": "swap(uint256,uint256,address,bytes)"
                    },
                    "errorInfo": "",
                    "fromAddress": "0x4e77df7b9cdcecec4115e59546f3eacba095a89f",
                    "gasUsed": 442474,
                    "id": 1,
                    "methodDecoded": true,
                    "operation": "CALL",
                    "output": "",
                    "revert": false,
                    "revertMessage": "",
                    "selector": "0x022c0d9f",
                    "status": true,
                    "value": "0"
                },
                "nodeType": 0
            },
            "10": {
                "invocation": {
                    "address": "0x6d1b7b59e3fab85b7d3a3d86e505dd8e349ea7f3",
                    "callData": "0x0000000000000000000000004e77df7b9cdcecec4115e59546f3eacba095a89f",
                    "decodedMethod": {
                        "callParams": [
                            {
                                "name": "account",
                                "type": "address",
                                "value": "0x4e77df7b9cdcecec4115e59546f3eacba095a89f"
                            }
                        ],
                        "constructorArguments": "",
                        "name": "balanceOf",
                        "returnParams": [
                            {
                                "decimalAvailable": true,
                                "name": "",
                                "type": "uint256",
                                "value": "0"
                            }
                        ],
                        "signature": "balanceOf(address)"
                    },
                    "errorInfo": "",
                    "fromAddress": "0x6a1a6b78a57965e8ef8d1c51d92701601fa74f01",
                    "gasUsed": 1256,
                    "id": 10,
                    "methodDecoded": true,
                    "operation": "STATICCALL",
                    "output": "0x0000000000000000000000000000000000000000000000000000000000000000",
                    "revert": false,
                    "revertMessage": "",
                    "selector": "0x70a08231",
                    "status": true,
                    "value": "0"
                },
                "nodeType": 0
            },
            "11": {
                "invocation": {
                    "address": "0x919964b7f12a742e3d33176d7af9094ea4152e6f",
                    "callData": "0x",
                    "decodedMethod": {
                        "callParams": [],
                        "constructorArguments": "",
                        "name": "getReserves",
                        "returnParams": [
                            {
                                "name": "_reserve0",
                                "type": "uint112",
                                "value": "25,147,468,936,549,224,419,158"
                            },
                            {
                                "name": "_reserve1",
                                "type": "uint112",
                                "value": "150,042,582,869,434,191,452,532"
                            },
                            {
                                "name": "_blockTimestampLast",
                                "type": "uint32",
                                "value": "1,664,360,756"
                            }
                        ],
                        "signature": "getReserves()"
                    },
                    "errorInfo": "",
                    "fromAddress": "0x6a1a6b78a57965e8ef8d1c51d92701601fa74f01",
                    "gasUsed": 1217,
                    "id": 11,
                    "methodDecoded": true,
                    "operation": "STATICCALL",
                    "output": "0x0000000000000000000000000000000000000000000005533f3ce0ca72c40f56000000000000000000000000000000000000000000001fc5d32090136f9219740000000000000000000000000000000000000000000000000000000063342134",
                    "revert": false,
                    "revertMessage": "",
                    "selector": "0x0902f1ac",
                    "status": true,
                    "value": "0"
                },
                "nodeType": 0
            },
            "12": {
                "invocation": {
                    "address": "0x55d398326f99059ff775485246999027b3197955",
                    "callData": "0x000000000000000000000000919964b7f12a742e3d33176d7af9094ea4152e6f",
                    "decodedMethod": {
                        "callParams": [
                            {
                                "name": "account",
                                "type": "address",
                                "value": "0x919964b7f12a742e3d33176d7af9094ea4152e6f"
                            }
                        ],
                        "constructorArguments": "",
                        "name": "balanceOf",
                        "returnParams": [
                            {
                                "decimalAvailable": true,
                                "name": "",
                                "type": "uint256",
                                "value": "3,173,947,468,936,549,224,419,158"
                            }
                        ],
                        "signature": "balanceOf(address)"
                    },
                    "errorInfo": "",
                    "fromAddress": "0x6a1a6b78a57965e8ef8d1c51d92701601fa74f01",
                    "gasUsed": 1231,
                    "id": 12,
                    "methodDecoded": true,
                    "operation": "STATICCALL",
                    "output": "0x00000000000000000000000000000000000000000002a01c097caf6322c40f56",
                    "revert": false,
                    "revertMessage": "",
                    "selector": "0x70a08231",
                    "status": true,
                    "value": "0"
                },
                "nodeType": 0
            },
            "13": {
                "invocation": {
                    "address": "0x919964b7f12a742e3d33176d7af9094ea4152e6f",
                    "callData": "0x0000000000000000000000000000000000000000000000000000000000000000000000000000000000000000000000000000000000001f853c4b348ff223320a0000000000000000000000004e77df7b9cdcecec4115e59546f3eacba095a89f00000000000000000000000000000000000000000000000000000000000000800000000000000000000000000000000000000000000000000000000000000000",
                    "decodedMethod": {
                        "callParams": [
                            {
                                "name": "amount0Out",
                                "type": "uint256",
                                "value": "0"
                            },
                            {
                                "name": "amount1Out",
                                "type": "uint256",
                                "value": "148,851,122,554,820,748,325,386"
                            },
                            {
                                "name": "to",
                                "type": "address",
                                "value": "0x4e77df7b9cdcecec4115e59546f3eacba095a89f"
                            },
                            {
                                "name": "data",
                                "type": "bytes",
                                "value": "0x"
                            }
                        ],
                        "constructorArguments": "",
                        "name": "swap",
                        "returnParams": [],
                        "signature": "swap(uint256,uint256,address,bytes)"
                    },
                    "errorInfo": "",
                    "fromAddress": "0x6a1a6b78a57965e8ef8d1c51d92701601fa74f01",
                    "gasUsed": 73339,
                    "id": 13,
                    "methodDecoded": true,
                    "operation": "CALL",
                    "output": "",
                    "revert": false,
                    "revertMessage": "",
                    "selector": "0x022c0d9f",
                    "status": true,
                    "value": "0"
                },
                "nodeType": 0
            },
            "14": {
                "invocation": {
                    "address": "0x6d1b7b59e3fab85b7d3a3d86e505dd8e349ea7f3",
                    "callData": "0x0000000000000000000000004e77df7b9cdcecec4115e59546f3eacba095a89f000000000000000000000000000000000000000000001f853c4b348ff223320a",
                    "decodedMethod": {
                        "callParams": [
                            {
                                "name": "recipient",
                                "type": "address",
                                "value": "0x4e77df7b9cdcecec4115e59546f3eacba095a89f"
                            },
                            {
                                "decimalAvailable": true,
                                "name": "amount",
                                "type": "uint256",
                                "value": "148,851,122,554,820,748,325,386"
                            }
                        ],
                        "constructorArguments": "",
                        "name": "transfer",
                        "returnParams": [
                            {
                                "name": "",
                                "type": "bool",
                                "value": true
                            }
                        ],
                        "signature": "transfer(address,uint256)"
                    },
                    "errorInfo": "",
                    "fromAddress": "0x919964b7f12a742e3d33176d7af9094ea4152e6f",
                    "gasUsed": 31456,
                    "id": 14,
                    "methodDecoded": true,
                    "operation": "CALL",
                    "output": "0x0000000000000000000000000000000000000000000000000000000000000001",
                    "revert": false,
                    "revertMessage": "",
                    "selector": "0xa9059cbb",
                    "status": true,
                    "value": "0"
                },
                "nodeType": 0
            },
            "15": {
                "event": {
                    "contract": "0x6d1b7b59e3fab85b7d3a3d86e505dd8e349ea7f3",
                    "decodedLog": {
                        "name": "Transfer",
                        "params": [
                            {
                                "name": "from",
                                "type": "address",
                                "value": "0x919964b7f12a742e3d33176d7af9094ea4152e6f"
                            },
                            {
                                "name": "to",
                                "type": "address",
                                "value": "0x4e77df7b9cdcecec4115e59546f3eacba095a89f"
                            },
                            {
                                "decimalAvailable": true,
                                "name": "value",
                                "type": "uint256",
                                "value": "148,851,122,554,820,748,325,386"
                            }
                        ],
                        "signature": "Transfer(address,address,uint256)"
                    },
                    "id": 15,
                    "logData": "0x000000000000000000000000000000000000000000001f853c4b348ff223320a",
                    "logDecoded": true,
                    "operation": "EVENT",
                    "revert": false,
                    "status": true,
                    "topics": [
                        "0xddf252ad1be2c89b69c2b068fc378daa952ba7f163c4a11628f55a4df523b3ef",
                        "0x000000000000000000000000919964b7f12a742e3d33176d7af9094ea4152e6f",
                        "0x0000000000000000000000004e77df7b9cdcecec4115e59546f3eacba095a89f"
                    ]
                },
                "nodeType": 1
            },
            "16": {
                "invocation": {
                    "address": "0x55d398326f99059ff775485246999027b3197955",
                    "callData": "0x000000000000000000000000919964b7f12a742e3d33176d7af9094ea4152e6f",
                    "decodedMethod": {
                        "callParams": [
                            {
                                "name": "account",
                                "type": "address",
                                "value": "0x919964b7f12a742e3d33176d7af9094ea4152e6f"
                            }
                        ],
                        "constructorArguments": "",
                        "name": "balanceOf",
                        "returnParams": [
                            {
                                "decimalAvailable": true,
                                "name": "",
                                "type": "uint256",
                                "value": "3,173,947,468,936,549,224,419,158"
                            }
                        ],
                        "signature": "balanceOf(address)"
                    },
                    "errorInfo": "",
                    "fromAddress": "0x919964b7f12a742e3d33176d7af9094ea4152e6f",
                    "gasUsed": 1231,
                    "id": 16,
                    "methodDecoded": true,
                    "operation": "STATICCALL",
                    "output": "0x00000000000000000000000000000000000000000002a01c097caf6322c40f56",
                    "revert": false,
                    "revertMessage": "",
                    "selector": "0x70a08231",
                    "status": true,
                    "value": "0"
                },
                "nodeType": 0
            },
            "17": {
                "invocation": {
                    "address": "0x6d1b7b59e3fab85b7d3a3d86e505dd8e349ea7f3",
                    "callData": "0x000000000000000000000000919964b7f12a742e3d33176d7af9094ea4152e6f",
                    "decodedMethod": {
                        "callParams": [
                            {
                                "name": "account",
                                "type": "address",
                                "value": "0x919964b7f12a742e3d33176d7af9094ea4152e6f"
                            }
                        ],
                        "constructorArguments": "",
                        "name": "balanceOf",
                        "returnParams": [
                            {
                                "decimalAvailable": true,
                                "name": "",
                                "type": "uint256",
                                "value": "1,191,460,314,613,443,127,146"
                            }
                        ],
                        "signature": "balanceOf(address)"
                    },
                    "errorInfo": "",
                    "fromAddress": "0x919964b7f12a742e3d33176d7af9094ea4152e6f",
                    "gasUsed": 1256,
                    "id": 17,
                    "methodDecoded": true,
                    "operation": "STATICCALL",
                    "output": "0x00000000000000000000000000000000000000000000004096d55b837d6ee76a",
                    "revert": false,
                    "revertMessage": "",
                    "selector": "0x70a08231",
                    "status": true,
                    "value": "0"
                },
                "nodeType": 0
            },
            "18": {
                "event": {
                    "contract": "0x919964b7f12a742e3d33176d7af9094ea4152e6f",
                    "decodedLog": {
                        "name": "Sync",
                        "params": [
                            {
                                "name": "reserve0",
                                "type": "uint112",
                                "value": "3,173,947,468,936,549,224,419,158"
                            },
                            {
                                "name": "reserve1",
                                "type": "uint112",
                                "value": "1,191,460,314,613,443,127,146"
                            }
                        ],
                        "signature": "Sync(uint112,uint112)"
                    },
                    "id": 18,
                    "logData": "0x00000000000000000000000000000000000000000002a01c097caf6322c40f5600000000000000000000000000000000000000000000004096d55b837d6ee76a",
                    "logDecoded": true,
                    "operation": "EVENT",
                    "revert": false,
                    "status": true,
                    "topics": [
                        "0x1c411e9a96e071241c2f21f7726b17ae89e3cab4c78be50e062b03a9fffbbad1"
                    ]
                },
                "nodeType": 1
            },
            "19": {
                "event": {
                    "contract": "0x919964b7f12a742e3d33176d7af9094ea4152e6f",
                    "decodedLog": {
                        "name": "Swap",
                        "params": [
                            {
                                "name": "sender",
                                "type": "address",
                                "value": "0x6a1a6b78a57965e8ef8d1c51d92701601fa74f01"
                            },
                            {
                                "name": "to",
                                "type": "address",
                                "value": "0x4e77df7b9cdcecec4115e59546f3eacba095a89f"
                            },
                            {
                                "name": "amount0In",
                                "type": "uint256",
                                "value": "3,148,800,000,000,000,000,000,000"
                            },
                            {
                                "name": "amount1In",
                                "type": "uint256",
                                "value": "0"
                            },
                            {
                                "name": "amount0Out",
                                "type": "uint256",
                                "value": "0"
                            },
                            {
                                "name": "amount1Out",
                                "type": "uint256",
                                "value": "148,851,122,554,820,748,325,386"
                            }
                        ],
                        "signature": "Swap(address,uint256,uint256,uint256,uint256,address)"
                    },
                    "id": 19,
                    "logData": "0x000000000000000000000000000000000000000000029ac8ca3fce98b000000000000000000000000000000000000000000000000000000000000000000000000000000000000000000000000000000000000000000000000000000000000000000000000000000000000000000000000000000000001f853c4b348ff223320a",
                    "logDecoded": true,
                    "operation": "EVENT",
                    "revert": false,
                    "status": true,
                    "topics": [
                        "0xd78ad95fa46c994b6551d0da85fc275fe613ce37657fb8d5e3d130840159d822",
                        "0x0000000000000000000000006a1a6b78a57965e8ef8d1c51d92701601fa74f01",
                        "0x0000000000000000000000004e77df7b9cdcecec4115e59546f3eacba095a89f"
                    ]
                },
                "nodeType": 1
            },
            "2": {
                "invocation": {
                    "address": "0x55d398326f99059ff775485246999027b3197955",
                    "callData": "0x0000000000000000000000004e77df7b9cdcecec4115e59546f3eacba095a89f00000000000000000000000000000000000000000002a12317e22bc8c6c00000",
                    "decodedMethod": {
                        "callParams": [
                            {
                                "name": "recipient",
                                "type": "address",
                                "value": "0x4e77df7b9cdcecec4115e59546f3eacba095a89f"
                            },
                            {
                                "decimalAvailable": true,
                                "name": "amount",
                                "type": "uint256",
                                "value": "3,178,800,000,000,000,000,000,000"
                            }
                        ],
                        "constructorArguments": "",
                        "name": "transfer",
                        "returnParams": [
                            {
                                "name": "",
                                "type": "bool",
                                "value": true
                            }
                        ],
                        "signature": "transfer(address,uint256)"
                    },
                    "errorInfo": "",
                    "fromAddress": "0x16b9a82891338f9ba80e2d6970fdda79d1eb0dae",
                    "gasUsed": 29471,
                    "id": 2,
                    "methodDecoded": true,
                    "operation": "CALL",
                    "output": "0x0000000000000000000000000000000000000000000000000000000000000001",
                    "revert": false,
                    "revertMessage": "",
                    "selector": "0xa9059cbb",
                    "status": true,
                    "value": "0"
                },
                "nodeType": 0
            },
            "20": {
                "invocation": {
                    "address": "0x6d1b7b59e3fab85b7d3a3d86e505dd8e349ea7f3",
                    "callData": "0x0000000000000000000000004e77df7b9cdcecec4115e59546f3eacba095a89f",
                    "decodedMethod": {
                        "callParams": [
                            {
                                "name": "account",
                                "type": "address",
                                "value": "0x4e77df7b9cdcecec4115e59546f3eacba095a89f"
                            }
                        ],
                        "constructorArguments": "",
                        "name": "balanceOf",
                        "returnParams": [
                            {
                                "decimalAvailable": true,
                                "name": "",
                                "type": "uint256",
                                "value": "148,851,122,554,820,748,325,386"
                            }
                        ],
                        "signature": "balanceOf(address)"
                    },
                    "errorInfo": "",
                    "fromAddress": "0x6a1a6b78a57965e8ef8d1c51d92701601fa74f01",
                    "gasUsed": 1256,
                    "id": 20,
                    "methodDecoded": true,
                    "operation": "STATICCALL",
                    "output": "0x000000000000000000000000000000000000000000001f853c4b348ff223320a",
                    "revert": false,
                    "revertMessage": "",
                    "selector": "0x70a08231",
                    "status": true,
                    "value": "0"
                },
                "nodeType": 0
            },
            "21": {
                "invocation": {
                    "address": "0x55d398326f99059ff775485246999027b3197955",
                    "callData": "0x00000000000000000000000027539b1dee647b38e1b987c41c5336b1a8dce663",
                    "decodedMethod": {
                        "callParams": [
                            {
                                "name": "account",
                                "type": "address",
                                "value": "0x27539b1dee647b38e1b987c41c5336b1a8dce663"
                            }
                        ],
                        "constructorArguments": "",
                        "name": "balanceOf",
                        "returnParams": [
                            {
                                "decimalAvailable": true,
                                "name": "",
                                "type": "uint256",
                                "value": "40,030,764,994,324,038,311,630"
                            }
                        ],
                        "signature": "balanceOf(address)"
                    },
                    "errorInfo": "",
                    "fromAddress": "0x4e77df7b9cdcecec4115e59546f3eacba095a89f",
                    "gasUsed": 1231,
                    "id": 21,
                    "methodDecoded": true,
                    "operation": "STATICCALL",
                    "output": "0x00000000000000000000000000000000000000000000087a12765e4142365ece",
                    "revert": false,
                    "revertMessage": "",
                    "selector": "0x70a08231",
                    "status": true,
                    "value": "0"
                },
                "nodeType": 0
            },
            "22": {
                "invocation": {
                    "address": "0x55d398326f99059ff775485246999027b3197955",
                    "callData": "0x00000000000000000000000027539b1dee647b38e1b987c41c5336b1a8dce66300000000000000000000000000000000000000000000000ad78ebc5ac6200000",
                    "decodedMethod": {
                        "callParams": [
                            {
                                "name": "recipient",
                                "type": "address",
                                "value": "0x27539b1dee647b38e1b987c41c5336b1a8dce663"
                            },
                            {
                                "decimalAvailable": true,
                                "name": "amount",
                                "type": "uint256",
                                "value": "200,000,000,000,000,000,000"
                            }
                        ],
                        "constructorArguments": "",
                        "name": "transfer",
                        "returnParams": [
                            {
                                "name": "",
                                "type": "bool",
                                "value": true
                            }
                        ],
                        "signature": "transfer(address,uint256)"
                    },
                    "errorInfo": "",
                    "fromAddress": "0x4e77df7b9cdcecec4115e59546f3eacba095a89f",
                    "gasUsed": 10271,
                    "id": 22,
                    "methodDecoded": true,
                    "operation": "CALL",
                    "output": "0x0000000000000000000000000000000000000000000000000000000000000001",
                    "revert": false,
                    "revertMessage": "",
                    "selector": "0xa9059cbb",
                    "status": true,
                    "value": "0"
                },
                "nodeType": 0
            },
            "23": {
                "event": {
                    "contract": "0x55d398326f99059ff775485246999027b3197955",
                    "decodedLog": {
                        "name": "Transfer",
                        "params": [
                            {
                                "name": "from",
                                "type": "address",
                                "value": "0x4e77df7b9cdcecec4115e59546f3eacba095a89f"
                            },
                            {
                                "name": "to",
                                "type": "address",
                                "value": "0x27539b1dee647b38e1b987c41c5336b1a8dce663"
                            },
                            {
                                "decimalAvailable": true,
                                "name": "value",
                                "type": "uint256",
                                "value": "200,000,000,000,000,000,000"
                            }
                        ],
                        "signature": "Transfer(address,address,uint256)"
                    },
                    "id": 23,
                    "logData": "0x00000000000000000000000000000000000000000000000ad78ebc5ac6200000",
                    "logDecoded": true,
                    "operation": "EVENT",
                    "revert": false,
                    "status": true,
                    "topics": [
                        "0xddf252ad1be2c89b69c2b068fc378daa952ba7f163c4a11628f55a4df523b3ef",
                        "0x0000000000000000000000004e77df7b9cdcecec4115e59546f3eacba095a89f",
                        "0x00000000000000000000000027539b1dee647b38e1b987c41c5336b1a8dce663"
                    ]
                },
                "nodeType": 1
            },
            "24": {
                "invocation": {
                    "address": "0x55d398326f99059ff775485246999027b3197955",
                    "callData": "0x0000000000000000000000004e77df7b9cdcecec4115e59546f3eacba095a89f",
                    "decodedMethod": {
                        "callParams": [
                            {
                                "name": "account",
                                "type": "address",
                                "value": "0x4e77df7b9cdcecec4115e59546f3eacba095a89f"
                            }
                        ],
                        "constructorArguments": "",
                        "name": "balanceOf",
                        "returnParams": [
                            {
                                "decimalAvailable": true,
                                "name": "",
                                "type": "uint256",
                                "value": "29,800,000,000,000,000,000,000"
                            }
                        ],
                        "signature": "balanceOf(address)"
                    },
                    "errorInfo": "",
                    "fromAddress": "0x4e77df7b9cdcecec4115e59546f3eacba095a89f",
                    "gasUsed": 1231,
                    "id": 24,
                    "methodDecoded": true,
                    "operation": "STATICCALL",
                    "output": "0x00000000000000000000000000000000000000000000064f7613a0d550a00000",
                    "revert": false,
                    "revertMessage": "",
                    "selector": "0x70a08231",
                    "status": true,
                    "value": "0"
                },
                "nodeType": 0
            },
            "25": {
                "invocation": {
                    "address": "0x27539b1dee647b38e1b987c41c5336b1a8dce663",
                    "callData": "0x00000000000000000000000000000000000000000000000000000000000000000000000000000000000000000000000000000000000000000000000000000000",
                    "decodedMethod": {
                        "callParams": [
                            {
                                "name": "_pid",
                                "type": "uint256",
                                "value": "0"
                            },
                            {
                                "name": "_amount",
                                "type": "uint256",
                                "value": "0"
                            }
                        ],
                        "constructorArguments": "",
                        "name": "deposit",
                        "returnParams": [],
                        "signature": "deposit(uint256,uint256)"
                    },
                    "errorInfo": "",
                    "fromAddress": "0x4e77df7b9cdcecec4115e59546f3eacba095a89f",
                    "gasUsed": 136193,
                    "id": 25,
                    "methodDecoded": true,
                    "operation": "CALL",
                    "output": "",
                    "revert": false,
                    "revertMessage": "",
                    "selector": "0xe2bbb158",
                    "status": true,
                    "value": "0"
                },
                "nodeType": 0
            },
            "26": {
                "invocation": {
                    "address": "0x919964b7f12a742e3d33176d7af9094ea4152e6f",
                    "callData": "0x",
                    "decodedMethod": {
                        "callParams": [],
                        "constructorArguments": "",
                        "name": "getReserves",
                        "returnParams": [
                            {
                                "name": "_reserve0",
                                "type": "uint112",
                                "value": "3,173,947,468,936,549,224,419,158"
                            },
                            {
                                "name": "_reserve1",
                                "type": "uint112",
                                "value": "1,191,460,314,613,443,127,146"
                            },
                            {
                                "name": "_blockTimestampLast",
                                "type": "uint32",
                                "value": "1,664,374,998"
                            }
                        ],
                        "signature": "getReserves()"
                    },
                    "errorInfo": "",
                    "fromAddress": "0x27539b1dee647b38e1b987c41c5336b1a8dce663",
                    "gasUsed": 1217,
                    "id": 26,
                    "methodDecoded": true,
                    "operation": "STATICCALL",
                    "output": "0x00000000000000000000000000000000000000000002a01c097caf6322c40f5600000000000000000000000000000000000000000000004096d55b837d6ee76a00000000000000000000000000000000000000000000000000000000633458d6",
                    "revert": false,
                    "revertMessage": "",
                    "selector": "0x0902f1ac",
                    "status": true,
                    "value": "0"
                },
                "nodeType": 0
            },
            "27": {
                "invocation": {
                    "address": "0x919964b7f12a742e3d33176d7af9094ea4152e6f",
                    "callData": "0x",
                    "decodedMethod": {
                        "callParams": [],
                        "constructorArguments": "",
                        "name": "token0",
                        "returnParams": [
                            {
                                "name": "",
                                "type": "address",
                                "value": "0x55d398326f99059ff775485246999027b3197955"
                            }
                        ],
                        "signature": "token0()"
                    },
                    "errorInfo": "",
                    "fromAddress": "0x27539b1dee647b38e1b987c41c5336b1a8dce663",
                    "gasUsed": 1149,
                    "id": 27,
                    "methodDecoded": true,
                    "operation": "STATICCALL",
                    "output": "0x00000000000000000000000055d398326f99059ff775485246999027b3197955",
                    "revert": false,
                    "revertMessage": "",
                    "selector": "0x0dfe1681",
                    "status": true,
                    "value": "0"
                },
                "nodeType": 0
            },
            "28": {
                "invocation": {
                    "address": "0x55d398326f99059ff775485246999027b3197955",
                    "callData": "0x0000000000000000000000004e77df7b9cdcecec4115e59546f3eacba095a89f00000000000000000000000000000000000000000000087d0bc7349f6fecc4d1",
                    "decodedMethod": {
                        "callParams": [
                            {
                                "name": "recipient",
                                "type": "address",
                                "value": "0x4e77df7b9cdcecec4115e59546f3eacba095a89f"
                            },
                            {
                                "decimalAvailable": true,
                                "name": "amount",
                                "type": "uint256",
                                "value": "40,085,623,577,085,020,521,681"
                            }
                        ],
                        "constructorArguments": "",
                        "name": "transfer",
                        "returnParams": [
                            {
                                "name": "",
                                "type": "bool",
                                "value": true
                            }
                        ],
                        "signature": "transfer(address,uint256)"
                    },
                    "errorInfo": "",
                    "fromAddress": "0x27539b1dee647b38e1b987c41c5336b1a8dce663",
                    "gasUsed": 6071,
                    "id": 28,
                    "methodDecoded": true,
                    "operation": "CALL",
                    "output": "0x0000000000000000000000000000000000000000000000000000000000000001",
                    "revert": false,
                    "revertMessage": "",
                    "selector": "0xa9059cbb",
                    "status": true,
                    "value": "0"
                },
                "nodeType": 0
            },
            "29": {
                "event": {
                    "contract": "0x55d398326f99059ff775485246999027b3197955",
                    "decodedLog": {
                        "name": "Transfer",
                        "params": [
                            {
                                "name": "from",
                                "type": "address",
                                "value": "0x27539b1dee647b38e1b987c41c5336b1a8dce663"
                            },
                            {
                                "name": "to",
                                "type": "address",
                                "value": "0x4e77df7b9cdcecec4115e59546f3eacba095a89f"
                            },
                            {
                                "decimalAvailable": true,
                                "name": "value",
                                "type": "uint256",
                                "value": "40,085,623,577,085,020,521,681"
                            }
                        ],
                        "signature": "Transfer(address,address,uint256)"
                    },
                    "id": 29,
                    "logData": "0x00000000000000000000000000000000000000000000087d0bc7349f6fecc4d1",
                    "logDecoded": true,
                    "operation": "EVENT",
                    "revert": false,
                    "status": true,
                    "topics": [
                        "0xddf252ad1be2c89b69c2b068fc378daa952ba7f163c4a11628f55a4df523b3ef",
                        "0x00000000000000000000000027539b1dee647b38e1b987c41c5336b1a8dce663",
                        "0x0000000000000000000000004e77df7b9cdcecec4115e59546f3eacba095a89f"
                    ]
                },
                "nodeType": 1
            },
            "3": {
                "event": {
                    "contract": "0x55d398326f99059ff775485246999027b3197955",
                    "decodedLog": {
                        "name": "Transfer",
                        "params": [
                            {
                                "name": "from",
                                "type": "address",
                                "value": "0x16b9a82891338f9ba80e2d6970fdda79d1eb0dae"
                            },
                            {
                                "name": "to",
                                "type": "address",
                                "value": "0x4e77df7b9cdcecec4115e59546f3eacba095a89f"
                            },
                            {
                                "decimalAvailable": true,
                                "name": "value",
                                "type": "uint256",
                                "value": "3,178,800,000,000,000,000,000,000"
                            }
                        ],
                        "signature": "Transfer(address,address,uint256)"
                    },
                    "id": 3,
                    "logData": "0x00000000000000000000000000000000000000000002a12317e22bc8c6c00000",
                    "logDecoded": true,
                    "operation": "EVENT",
                    "revert": false,
                    "status": true,
                    "topics": [
                        "0xddf252ad1be2c89b69c2b068fc378daa952ba7f163c4a11628f55a4df523b3ef",
                        "0x00000000000000000000000016b9a82891338f9ba80e2d6970fdda79d1eb0dae",
                        "0x0000000000000000000000004e77df7b9cdcecec4115e59546f3eacba095a89f"
                    ]
                },
                "nodeType": 1
            },
            "30": {
                "event": {
                    "contract": "0x27539b1dee647b38e1b987c41c5336b1a8dce663",
                    "decodedLog": {
                        "name": "Deposit",
                        "params": [
                            {
                                "name": "user",
                                "type": "address",
                                "value": "0x4e77df7b9cdcecec4115e59546f3eacba095a89f"
                            },
                            {
                                "name": "pid",
                                "type": "uint256",
                                "value": "0"
                            },
                            {
                                "name": "amount",
                                "type": "uint256",
                                "value": "0"
                            }
                        ],
                        "signature": "Deposit(address,uint256,uint256)"
                    },
                    "id": 30,
                    "logData": "0x0000000000000000000000000000000000000000000000000000000000000000",
                    "logDecoded": true,
                    "operation": "EVENT",
                    "revert": false,
                    "status": true,
                    "topics": [
                        "0x90890809c654f11d6e72a28fa60149770a0d11ec6c92319d6ceb2bb0a4ea1a15",
                        "0x0000000000000000000000004e77df7b9cdcecec4115e59546f3eacba095a89f",
                        "0x0000000000000000000000000000000000000000000000000000000000000000"
                    ]
                },
                "nodeType": 1
            },
            "31": {
                "invocation": {
                    "address": "0x55d398326f99059ff775485246999027b3197955",
                    "callData": "0x0000000000000000000000004e77df7b9cdcecec4115e59546f3eacba095a89f",
                    "decodedMethod": {
                        "callParams": [
                            {
                                "name": "account",
                                "type": "address",
                                "value": "0x4e77df7b9cdcecec4115e59546f3eacba095a89f"
                            }
                        ],
                        "constructorArguments": "",
                        "name": "balanceOf",
                        "returnParams": [
                            {
                                "decimalAvailable": true,
                                "name": "",
                                "type": "uint256",
                                "value": "69,885,623,577,085,020,521,681"
                            }
                        ],
                        "signature": "balanceOf(address)"
                    },
                    "errorInfo": "",
                    "fromAddress": "0x4e77df7b9cdcecec4115e59546f3eacba095a89f",
                    "gasUsed": 1231,
                    "id": 31,
                    "methodDecoded": true,
                    "operation": "STATICCALL",
                    "output": "0x000000000000000000000000000000000000000000000ecc81dad574c08cc4d1",
                    "revert": false,
                    "revertMessage": "",
                    "selector": "0x70a08231",
                    "status": true,
                    "value": "0"
                },
                "nodeType": 0
            },
            "32": {
                "invocation": {
                    "address": "0x6d1b7b59e3fab85b7d3a3d86e505dd8e349ea7f3",
                    "callData": "0x0000000000000000000000004e77df7b9cdcecec4115e59546f3eacba095a89f",
                    "decodedMethod": {
                        "callParams": [
                            {
                                "name": "account",
                                "type": "address",
                                "value": "0x4e77df7b9cdcecec4115e59546f3eacba095a89f"
                            }
                        ],
                        "constructorArguments": "",
                        "name": "balanceOf",
                        "returnParams": [
                            {
                                "decimalAvailable": true,
                                "name": "",
                                "type": "uint256",
                                "value": "148,851,122,554,820,748,325,386"
                            }
                        ],
                        "signature": "balanceOf(address)"
                    },
                    "errorInfo": "",
                    "fromAddress": "0x4e77df7b9cdcecec4115e59546f3eacba095a89f",
                    "gasUsed": 1256,
                    "id": 32,
                    "methodDecoded": true,
                    "operation": "STATICCALL",
                    "output": "0x000000000000000000000000000000000000000000001f853c4b348ff223320a",
                    "revert": false,
                    "revertMessage": "",
                    "selector": "0x70a08231",
                    "status": true,
                    "value": "0"
                },
                "nodeType": 0
            },
            "33": {
                "invocation": {
                    "address": "0x6a1a6b78a57965e8ef8d1c51d92701601fa74f01",
                    "callData": "0x000000000000000000000000000000000000000000001f853c4b348ff223320a000000000000000000000000000000000000000000000000000000000000000000000000000000000000000000000000000000000000000000000000000000a00000000000000000000000004e77df7b9cdcecec4115e59546f3eacba095a89f000000000000000000000000000000000000000000000000000000006334593a00000000000000000000000000000000000000000000000000000000000000020000000000000000000000006d1b7b59e3fab85b7d3a3d86e505dd8e349ea7f300000000000000000000000055d398326f99059ff775485246999027b3197955",
                    "decodedMethod": {
                        "callParams": [
                            {
                                "name": "amountIn",
                                "type": "uint256",
                                "value": "148,851,122,554,820,748,325,386"
                            },
                            {
                                "name": "amountOutMin",
                                "type": "uint256",
                                "value": "0"
                            },
                            {
                                "name": "path",
                                "type": "address[]",
                                "value": [
                                    "0x6d1b7b59e3fab85b7d3a3d86e505dd8e349ea7f3",
                                    "0x55d398326f99059ff775485246999027b3197955"
                                ]
                            },
                            {
                                "name": "to",
                                "type": "address",
                                "value": "0x4e77df7b9cdcecec4115e59546f3eacba095a89f"
                            },
                            {
                                "name": "deadline",
                                "type": "uint256",
                                "value": "1,664,375,098"
                            }
                        ],
                        "constructorArguments": "",
                        "name": "swapExactTokensForTokensSupportingFeeOnTransferTokens",
                        "returnParams": [],
                        "signature": "swapExactTokensForTokensSupportingFeeOnTransferTokens(uint256,uint256,address[],address,uint256)"
                    },
                    "errorInfo": "",
                    "fromAddress": "0x4e77df7b9cdcecec4115e59546f3eacba095a89f",
                    "gasUsed": 67150,
                    "id": 33,
                    "methodDecoded": true,
                    "operation": "CALL",
                    "output": "",
                    "revert": false,
                    "revertMessage": "",
                    "selector": "0x5c11d795",
                    "status": true,
                    "value": "0"
                },
                "nodeType": 0
            },
            "34": {
                "invocation": {
                    "address": "0x6d1b7b59e3fab85b7d3a3d86e505dd8e349ea7f3",
                    "callData": "0x0000000000000000000000004e77df7b9cdcecec4115e59546f3eacba095a89f000000000000000000000000919964b7f12a742e3d33176d7af9094ea4152e6f000000000000000000000000000000000000000000001f853c4b348ff223320a",
                    "decodedMethod": {
                        "callParams": [
                            {
                                "name": "sender",
                                "type": "address",
                                "value": "0x4e77df7b9cdcecec4115e59546f3eacba095a89f"
                            },
                            {
                                "name": "recipient",
                                "type": "address",
                                "value": "0x919964b7f12a742e3d33176d7af9094ea4152e6f"
                            },
                            {
                                "decimalAvailable": true,
                                "name": "amount",
                                "type": "uint256",
                                "value": "148,851,122,554,820,748,325,386"
                            }
                        ],
                        "constructorArguments": "",
                        "name": "transferFrom",
                        "returnParams": [
                            {
                                "name": "",
                                "type": "bool",
                                "value": true
                            }
                        ],
                        "signature": "transferFrom(address,address,uint256)"
                    },
                    "errorInfo": "",
                    "fromAddress": "0x6a1a6b78a57965e8ef8d1c51d92701601fa74f01",
                    "gasUsed": 16411,
                    "id": 34,
                    "methodDecoded": true,
                    "operation": "CALL",
                    "output": "0x0000000000000000000000000000000000000000000000000000000000000001",
                    "revert": false,
                    "revertMessage": "",
                    "selector": "0x23b872dd",
                    "status": true,
                    "value": "0"
                },
                "nodeType": 0
            },
            "35": {
                "event": {
                    "contract": "0x6d1b7b59e3fab85b7d3a3d86e505dd8e349ea7f3",
                    "decodedLog": {
                        "name": "Transfer",
                        "params": [
                            {
                                "name": "from",
                                "type": "address",
                                "value": "0x4e77df7b9cdcecec4115e59546f3eacba095a89f"
                            },
                            {
                                "name": "to",
                                "type": "address",
                                "value": "0x919964b7f12a742e3d33176d7af9094ea4152e6f"
                            },
                            {
                                "decimalAvailable": true,
                                "name": "value",
                                "type": "uint256",
                                "value": "148,851,122,554,820,748,325,386"
                            }
                        ],
                        "signature": "Transfer(address,address,uint256)"
                    },
                    "id": 35,
                    "logData": "0x000000000000000000000000000000000000000000001f853c4b348ff223320a",
                    "logDecoded": true,
                    "operation": "EVENT",
                    "revert": false,
                    "status": true,
                    "topics": [
                        "0xddf252ad1be2c89b69c2b068fc378daa952ba7f163c4a11628f55a4df523b3ef",
                        "0x0000000000000000000000004e77df7b9cdcecec4115e59546f3eacba095a89f",
                        "0x000000000000000000000000919964b7f12a742e3d33176d7af9094ea4152e6f"
                    ]
                },
                "nodeType": 1
            },
            "36": {
                "event": {
                    "contract": "0x6d1b7b59e3fab85b7d3a3d86e505dd8e349ea7f3",
                    "decodedLog": {
                        "name": "Approval",
                        "params": [
                            {
                                "name": "owner",
                                "type": "address",
                                "value": "0x4e77df7b9cdcecec4115e59546f3eacba095a89f"
                            },
                            {
                                "name": "spender",
                                "type": "address",
                                "value": "0x6a1a6b78a57965e8ef8d1c51d92701601fa74f01"
                            },
                            {
                                "decimalAvailable": true,
                                "name": "value",
                                "type": "uint256",
                                "value": "115,792,089,237,316,195,423,570,985,008,687,907,853,269,984,665,640,563,890,606,461,453,092,381,314,549"
                            }
                        ],
                        "signature": "Approval(address,address,uint256)"
                    },
                    "id": 36,
                    "logData": "0xffffffffffffffffffffffffffffffffffffffffffffe07ac3b4cb700ddccdf5",
                    "logDecoded": true,
                    "operation": "EVENT",
                    "revert": false,
                    "status": true,
                    "topics": [
                        "0x8c5be1e5ebec7d5bd14f71427d1e84f3dd0314c0f7b2291e5b200ac8c7c3b925",
                        "0x0000000000000000000000004e77df7b9cdcecec4115e59546f3eacba095a89f",
                        "0x0000000000000000000000006a1a6b78a57965e8ef8d1c51d92701601fa74f01"
                    ]
                },
                "nodeType": 1
            },
            "37": {
                "invocation": {
                    "address": "0x55d398326f99059ff775485246999027b3197955",
                    "callData": "0x0000000000000000000000004e77df7b9cdcecec4115e59546f3eacba095a89f",
                    "decodedMethod": {
                        "callParams": [
                            {
                                "name": "account",
                                "type": "address",
                                "value": "0x4e77df7b9cdcecec4115e59546f3eacba095a89f"
                            }
                        ],
                        "constructorArguments": "",
                        "name": "balanceOf",
                        "returnParams": [
                            {
                                "decimalAvailable": true,
                                "name": "",
                                "type": "uint256",
                                "value": "69,885,623,577,085,020,521,681"
                            }
                        ],
                        "signature": "balanceOf(address)"
                    },
                    "errorInfo": "",
                    "fromAddress": "0x6a1a6b78a57965e8ef8d1c51d92701601fa74f01",
                    "gasUsed": 1231,
                    "id": 37,
                    "methodDecoded": true,
                    "operation": "STATICCALL",
                    "output": "0x000000000000000000000000000000000000000000000ecc81dad574c08cc4d1",
                    "revert": false,
                    "revertMessage": "",
                    "selector": "0x70a08231",
                    "status": true,
                    "value": "0"
                },
                "nodeType": 0
            },
            "38": {
                "invocation": {
                    "address": "0x919964b7f12a742e3d33176d7af9094ea4152e6f",
                    "callData": "0x",
                    "decodedMethod": {
                        "callParams": [],
                        "constructorArguments": "",
                        "name": "getReserves",
                        "returnParams": [
                            {
                                "name": "_reserve0",
                                "type": "uint112",
                                "value": "3,173,947,468,936,549,224,419,158"
                            },
                            {
                                "name": "_reserve1",
                                "type": "uint112",
                                "value": "1,191,460,314,613,443,127,146"
                            },
                            {
                                "name": "_blockTimestampLast",
                                "type": "uint32",
                                "value": "1,664,374,998"
                            }
                        ],
                        "signature": "getReserves()"
                    },
                    "errorInfo": "",
                    "fromAddress": "0x6a1a6b78a57965e8ef8d1c51d92701601fa74f01",
                    "gasUsed": 1217,
                    "id": 38,
                    "methodDecoded": true,
                    "operation": "STATICCALL",
                    "output": "0x00000000000000000000000000000000000000000002a01c097caf6322c40f5600000000000000000000000000000000000000000000004096d55b837d6ee76a00000000000000000000000000000000000000000000000000000000633458d6",
                    "revert": false,
                    "revertMessage": "",
                    "selector": "0x0902f1ac",
                    "status": true,
                    "value": "0"
                },
                "nodeType": 0
            },
            "39": {
                "invocation": {
                    "address": "0x6d1b7b59e3fab85b7d3a3d86e505dd8e349ea7f3",
                    "callData": "0x000000000000000000000000919964b7f12a742e3d33176d7af9094ea4152e6f",
                    "decodedMethod": {
                        "callParams": [
                            {
                                "name": "account",
                                "type": "address",
                                "value": "0x919964b7f12a742e3d33176d7af9094ea4152e6f"
                            }
                        ],
                        "constructorArguments": "",
                        "name": "balanceOf",
                        "returnParams": [
                            {
                                "decimalAvailable": true,
                                "name": "",
                                "type": "uint256",
                                "value": "150,042,582,869,434,191,452,532"
                            }
                        ],
                        "signature": "balanceOf(address)"
                    },
                    "errorInfo": "",
                    "fromAddress": "0x6a1a6b78a57965e8ef8d1c51d92701601fa74f01",
                    "gasUsed": 1256,
                    "id": 39,
                    "methodDecoded": true,
                    "operation": "STATICCALL",
                    "output": "0x000000000000000000000000000000000000000000001fc5d32090136f921974",
                    "revert": false,
                    "revertMessage": "",
                    "selector": "0x70a08231",
                    "status": true,
                    "value": "0"
                },
                "nodeType": 0
            },
            "4": {
                "invocation": {
                    "address": "0x4e77df7b9cdcecec4115e59546f3eacba095a89f",
                    "callData": "0x0000000000000000000000004e77df7b9cdcecec4115e59546f3eacba095a89f00000000000000000000000000000000000000000002a12317e22bc8c6c000000000000000000000000000000000000000000000000000000000000000000000000000000000000000000000000000000000000000000000000000000000008000000000000000000000000000000000000000000000000000000000000000010000000000000000000000000000000000000000000000000000000000000000",
                    "decodedMethod": {
                        "callParams": [
                            {
                                "name": "_sender",
                                "type": "address",
                                "value": "0x4e77df7b9cdcecec4115e59546f3eacba095a89f"
                            },
                            {
                                "name": "_amount0",
                                "type": "uint256",
                                "value": "3,178,800,000,000,000,000,000,000"
                            },
                            {
                                "name": "_amount1",
                                "type": "uint256",
                                "value": "0"
                            },
                            {
                                "name": "_data",
                                "type": "bytes",
                                "value": "0x00"
                            }
                        ],
                        "constructorArguments": "",
                        "name": "pancakeCall",
                        "returnParams": [],
                        "signature": "pancakeCall(address,uint256,uint256,bytes)"
                    },
                    "errorInfo": "",
                    "fromAddress": "0x16b9a82891338f9ba80e2d6970fdda79d1eb0dae",
                    "gasUsed": 374267,
                    "id": 4,
                    "methodDecoded": true,
                    "operation": "CALL",
                    "output": "",
                    "revert": false,
                    "revertMessage": "",
                    "selector": "0x84800812",
                    "status": true,
                    "value": "0"
                },
                "nodeType": 0
            },
            "40": {
                "invocation": {
                    "address": "0x919964b7f12a742e3d33176d7af9094ea4152e6f",
                    "callData": "0x000000000000000000000000000000000000000000029ac2af036c3c8d239e3600000000000000000000000000000000000000000000000000000000000000000000000000000000000000004e77df7b9cdcecec4115e59546f3eacba095a89f00000000000000000000000000000000000000000000000000000000000000800000000000000000000000000000000000000000000000000000000000000000",
                    "decodedMethod": {
                        "callParams": [
                            {
                                "name": "amount0Out",
                                "type": "uint256",
                                "value": "3,148,687,356,983,872,254,615,094"
                            },
                            {
                                "name": "amount1Out",
                                "type": "uint256",
                                "value": "0"
                            },
                            {
                                "name": "to",
                                "type": "address",
                                "value": "0x4e77df7b9cdcecec4115e59546f3eacba095a89f"
                            },
                            {
                                "name": "data",
                                "type": "bytes",
                                "value": "0x"
                            }
                        ],
                        "constructorArguments": "",
                        "name": "swap",
                        "returnParams": [],
                        "signature": "swap(uint256,uint256,address,bytes)"
                    },
                    "errorInfo": "",
                    "fromAddress": "0x6a1a6b78a57965e8ef8d1c51d92701601fa74f01",
                    "gasUsed": 31594,
                    "id": 40,
                    "methodDecoded": true,
                    "operation": "CALL",
                    "output": "",
                    "revert": false,
                    "revertMessage": "",
                    "selector": "0x022c0d9f",
                    "status": true,
                    "value": "0"
                },
                "nodeType": 0
            },
            "41": {
                "invocation": {
                    "address": "0x55d398326f99059ff775485246999027b3197955",
                    "callData": "0x0000000000000000000000004e77df7b9cdcecec4115e59546f3eacba095a89f000000000000000000000000000000000000000000029ac2af036c3c8d239e36",
                    "decodedMethod": {
                        "callParams": [
                            {
                                "name": "recipient",
                                "type": "address",
                                "value": "0x4e77df7b9cdcecec4115e59546f3eacba095a89f"
                            },
                            {
                                "decimalAvailable": true,
                                "name": "amount",
                                "type": "uint256",
                                "value": "3,148,687,356,983,872,254,615,094"
                            }
                        ],
                        "constructorArguments": "",
                        "name": "transfer",
                        "returnParams": [
                            {
                                "name": "",
                                "type": "bool",
                                "value": true
                            }
                        ],
                        "signature": "transfer(address,uint256)"
                    },
                    "errorInfo": "",
                    "fromAddress": "0x919964b7f12a742e3d33176d7af9094ea4152e6f",
                    "gasUsed": 6071,
                    "id": 41,
                    "methodDecoded": true,
                    "operation": "CALL",
                    "output": "0x0000000000000000000000000000000000000000000000000000000000000001",
                    "revert": false,
                    "revertMessage": "",
                    "selector": "0xa9059cbb",
                    "status": true,
                    "value": "0"
                },
                "nodeType": 0
            },
            "42": {
                "event": {
                    "contract": "0x55d398326f99059ff775485246999027b3197955",
                    "decodedLog": {
                        "name": "Transfer",
                        "params": [
                            {
                                "name": "from",
                                "type": "address",
                                "value": "0x919964b7f12a742e3d33176d7af9094ea4152e6f"
                            },
                            {
                                "name": "to",
                                "type": "address",
                                "value": "0x4e77df7b9cdcecec4115e59546f3eacba095a89f"
                            },
                            {
                                "decimalAvailable": true,
                                "name": "value",
                                "type": "uint256",
                                "value": "3,148,687,356,983,872,254,615,094"
                            }
                        ],
                        "signature": "Transfer(address,address,uint256)"
                    },
                    "id": 42,
                    "logData": "0x000000000000000000000000000000000000000000029ac2af036c3c8d239e36",
                    "logDecoded": true,
                    "operation": "EVENT",
                    "revert": false,
                    "status": true,
                    "topics": [
                        "0xddf252ad1be2c89b69c2b068fc378daa952ba7f163c4a11628f55a4df523b3ef",
                        "0x000000000000000000000000919964b7f12a742e3d33176d7af9094ea4152e6f",
                        "0x0000000000000000000000004e77df7b9cdcecec4115e59546f3eacba095a89f"
                    ]
                },
                "nodeType": 1
            },
            "43": {
                "invocation": {
                    "address": "0x55d398326f99059ff775485246999027b3197955",
                    "callData": "0x000000000000000000000000919964b7f12a742e3d33176d7af9094ea4152e6f",
                    "decodedMethod": {
                        "callParams": [
                            {
                                "name": "account",
                                "type": "address",
                                "value": "0x919964b7f12a742e3d33176d7af9094ea4152e6f"
                            }
                        ],
                        "constructorArguments": "",
                        "name": "balanceOf",
                        "returnParams": [
                            {
                                "decimalAvailable": true,
                                "name": "",
                                "type": "uint256",
                                "value": "25,260,111,952,676,969,804,064"
                            }
                        ],
                        "signature": "balanceOf(address)"
                    },
                    "errorInfo": "",
                    "fromAddress": "0x919964b7f12a742e3d33176d7af9094ea4152e6f",
                    "gasUsed": 1231,
                    "id": 43,
                    "methodDecoded": true,
                    "operation": "STATICCALL",
                    "output": "0x0000000000000000000000000000000000000000000005595a79432695a07120",
                    "revert": false,
                    "revertMessage": "",
                    "selector": "0x70a08231",
                    "status": true,
                    "value": "0"
                },
                "nodeType": 0
            },
            "44": {
                "invocation": {
                    "address": "0x6d1b7b59e3fab85b7d3a3d86e505dd8e349ea7f3",
                    "callData": "0x000000000000000000000000919964b7f12a742e3d33176d7af9094ea4152e6f",
                    "decodedMethod": {
                        "callParams": [
                            {
                                "name": "account",
                                "type": "address",
                                "value": "0x919964b7f12a742e3d33176d7af9094ea4152e6f"
                            }
                        ],
                        "constructorArguments": "",
                        "name": "balanceOf",
                        "returnParams": [
                            {
                                "decimalAvailable": true,
                                "name": "",
                                "type": "uint256",
                                "value": "150,042,582,869,434,191,452,532"
                            }
                        ],
                        "signature": "balanceOf(address)"
                    },
                    "errorInfo": "",
                    "fromAddress": "0x919964b7f12a742e3d33176d7af9094ea4152e6f",
                    "gasUsed": 1256,
                    "id": 44,
                    "methodDecoded": true,
                    "operation": "STATICCALL",
                    "output": "0x000000000000000000000000000000000000000000001fc5d32090136f921974",
                    "revert": false,
                    "revertMessage": "",
                    "selector": "0x70a08231",
                    "status": true,
                    "value": "0"
                },
                "nodeType": 0
            },
            "45": {
                "event": {
                    "contract": "0x919964b7f12a742e3d33176d7af9094ea4152e6f",
                    "decodedLog": {
                        "name": "Sync",
                        "params": [
                            {
                                "name": "reserve0",
                                "type": "uint112",
                                "value": "25,260,111,952,676,969,804,064"
                            },
                            {
                                "name": "reserve1",
                                "type": "uint112",
                                "value": "150,042,582,869,434,191,452,532"
                            }
                        ],
                        "signature": "Sync(uint112,uint112)"
                    },
                    "id": 45,
                    "logData": "0x0000000000000000000000000000000000000000000005595a79432695a07120000000000000000000000000000000000000000000001fc5d32090136f921974",
                    "logDecoded": true,
                    "operation": "EVENT",
                    "revert": false,
                    "status": true,
                    "topics": [
                        "0x1c411e9a96e071241c2f21f7726b17ae89e3cab4c78be50e062b03a9fffbbad1"
                    ]
                },
                "nodeType": 1
            },
            "46": {
                "event": {
                    "contract": "0x919964b7f12a742e3d33176d7af9094ea4152e6f",
                    "decodedLog": {
                        "name": "Swap",
                        "params": [
                            {
                                "name": "sender",
                                "type": "address",
                                "value": "0x6a1a6b78a57965e8ef8d1c51d92701601fa74f01"
                            },
                            {
                                "name": "to",
                                "type": "address",
                                "value": "0x4e77df7b9cdcecec4115e59546f3eacba095a89f"
                            },
                            {
                                "name": "amount0In",
                                "type": "uint256",
                                "value": "0"
                            },
                            {
                                "name": "amount1In",
                                "type": "uint256",
                                "value": "148,851,122,554,820,748,325,386"
                            },
                            {
                                "name": "amount0Out",
                                "type": "uint256",
                                "value": "3,148,687,356,983,872,254,615,094"
                            },
                            {
                                "name": "amount1Out",
                                "type": "uint256",
                                "value": "0"
                            }
                        ],
                        "signature": "Swap(address,uint256,uint256,uint256,uint256,address)"
                    },
                    "id": 46,
                    "logData": "0x0000000000000000000000000000000000000000000000000000000000000000000000000000000000000000000000000000000000001f853c4b348ff223320a000000000000000000000000000000000000000000029ac2af036c3c8d239e360000000000000000000000000000000000000000000000000000000000000000",
                    "logDecoded": true,
                    "operation": "EVENT",
                    "revert": false,
                    "status": true,
                    "topics": [
                        "0xd78ad95fa46c994b6551d0da85fc275fe613ce37657fb8d5e3d130840159d822",
                        "0x0000000000000000000000006a1a6b78a57965e8ef8d1c51d92701601fa74f01",
                        "0x0000000000000000000000004e77df7b9cdcecec4115e59546f3eacba095a89f"
                    ]
                },
                "nodeType": 1
            },
            "47": {
                "invocation": {
                    "address": "0x55d398326f99059ff775485246999027b3197955",
                    "callData": "0x0000000000000000000000004e77df7b9cdcecec4115e59546f3eacba095a89f",
                    "decodedMethod": {
                        "callParams": [
                            {
                                "name": "account",
                                "type": "address",
                                "value": "0x4e77df7b9cdcecec4115e59546f3eacba095a89f"
                            }
                        ],
                        "constructorArguments": "",
                        "name": "balanceOf",
                        "returnParams": [
                            {
                                "decimalAvailable": true,
                                "name": "",
                                "type": "uint256",
                                "value": "3,218,572,980,560,957,275,136,775"
                            }
                        ],
                        "signature": "balanceOf(address)"
                    },
                    "errorInfo": "",
                    "fromAddress": "0x6a1a6b78a57965e8ef8d1c51d92701601fa74f01",
                    "gasUsed": 1231,
                    "id": 47,
                    "methodDecoded": true,
                    "operation": "STATICCALL",
                    "output": "0x00000000000000000000000000000000000000000002a98f30de41b14db06307",
                    "revert": false,
                    "revertMessage": "",
                    "selector": "0x70a08231",
                    "status": true,
                    "value": "0"
                },
                "nodeType": 0
            },
            "48": {
                "invocation": {
                    "address": "0x55d398326f99059ff775485246999027b3197955",
                    "callData": "0x00000000000000000000000016b9a82891338f9ba80e2d6970fdda79d1eb0dae00000000000000000000000000000000000000000002a2d39fcf705a8c2a0000",
                    "decodedMethod": {
                        "callParams": [
                            {
                                "name": "recipient",
                                "type": "address",
                                "value": "0x16b9a82891338f9ba80e2d6970fdda79d1eb0dae"
                            },
                            {
                                "decimalAvailable": true,
                                "name": "amount",
                                "type": "uint256",
                                "value": "3,186,778,788,000,000,000,000,000"
                            }
                        ],
                        "constructorArguments": "",
                        "name": "transfer",
                        "returnParams": [
                            {
                                "name": "",
                                "type": "bool",
                                "value": true
                            }
                        ],
                        "signature": "transfer(address,uint256)"
                    },
                    "errorInfo": "",
                    "fromAddress": "0x4e77df7b9cdcecec4115e59546f3eacba095a89f",
                    "gasUsed": 6071,
                    "id": 48,
                    "methodDecoded": true,
                    "operation": "CALL",
                    "output": "0x0000000000000000000000000000000000000000000000000000000000000001",
                    "revert": false,
                    "revertMessage": "",
                    "selector": "0xa9059cbb",
                    "status": true,
                    "value": "0"
                },
                "nodeType": 0
            },
            "49": {
                "event": {
                    "contract": "0x55d398326f99059ff775485246999027b3197955",
                    "decodedLog": {
                        "name": "Transfer",
                        "params": [
                            {
                                "name": "from",
                                "type": "address",
                                "value": "0x4e77df7b9cdcecec4115e59546f3eacba095a89f"
                            },
                            {
                                "name": "to",
                                "type": "address",
                                "value": "0x16b9a82891338f9ba80e2d6970fdda79d1eb0dae"
                            },
                            {
                                "decimalAvailable": true,
                                "name": "value",
                                "type": "uint256",
                                "value": "3,186,778,788,000,000,000,000,000"
                            }
                        ],
                        "signature": "Transfer(address,address,uint256)"
                    },
                    "id": 49,
                    "logData": "0x00000000000000000000000000000000000000000002a2d39fcf705a8c2a0000",
                    "logDecoded": true,
                    "operation": "EVENT",
                    "revert": false,
                    "status": true,
                    "topics": [
                        "0xddf252ad1be2c89b69c2b068fc378daa952ba7f163c4a11628f55a4df523b3ef",
                        "0x0000000000000000000000004e77df7b9cdcecec4115e59546f3eacba095a89f",
                        "0x00000000000000000000000016b9a82891338f9ba80e2d6970fdda79d1eb0dae"
                    ]
                },
                "nodeType": 1
            },
            "5": {
                "invocation": {
                    "address": "0x55d398326f99059ff775485246999027b3197955",
                    "callData": "0x0000000000000000000000004e77df7b9cdcecec4115e59546f3eacba095a89f",
                    "decodedMethod": {
                        "callParams": [
                            {
                                "name": "account",
                                "type": "address",
                                "value": "0x4e77df7b9cdcecec4115e59546f3eacba095a89f"
                            }
                        ],
                        "constructorArguments": "",
                        "name": "balanceOf",
                        "returnParams": [
                            {
                                "decimalAvailable": true,
                                "name": "",
                                "type": "uint256",
                                "value": "3,178,800,000,000,000,000,000,000"
                            }
                        ],
                        "signature": "balanceOf(address)"
                    },
                    "errorInfo": "",
                    "fromAddress": "0x4e77df7b9cdcecec4115e59546f3eacba095a89f",
                    "gasUsed": 1231,
                    "id": 5,
                    "methodDecoded": true,
                    "operation": "STATICCALL",
                    "output": "0x00000000000000000000000000000000000000000002a12317e22bc8c6c00000",
                    "revert": false,
                    "revertMessage": "",
                    "selector": "0x70a08231",
                    "status": true,
                    "value": "0"
                },
                "nodeType": 0
            },
            "50": {
                "invocation": {
                    "address": "0x55d398326f99059ff775485246999027b3197955",
                    "callData": "0x00000000000000000000000016b9a82891338f9ba80e2d6970fdda79d1eb0dae",
                    "decodedMethod": {
                        "callParams": [
                            {
                                "name": "account",
                                "type": "address",
                                "value": "0x16b9a82891338f9ba80e2d6970fdda79d1eb0dae"
                            }
                        ],
                        "constructorArguments": "",
                        "name": "balanceOf",
                        "returnParams": [
                            {
                                "decimalAvailable": true,
                                "name": "",
                                "type": "uint256",
                                "value": "75,173,876,481,554,969,493,655,788"
                            }
                        ],
                        "signature": "balanceOf(address)"
                    },
                    "errorInfo": "",
                    "fromAddress": "0x16b9a82891338f9ba80e2d6970fdda79d1eb0dae",
                    "gasUsed": 1231,
                    "id": 50,
                    "methodDecoded": true,
                    "operation": "STATICCALL",
                    "output": "0x0000000000000000000000000000000000000000003e2eb002807ac7e7ce50ec",
                    "revert": false,
                    "revertMessage": "",
                    "selector": "0x70a08231",
                    "status": true,
                    "value": "0"
                },
                "nodeType": 0
            },
            "51": {
                "invocation": {
                    "address": "0xbb4cdb9cbd36b01bd1cbaebf2de08d9173bc095c",
                    "callData": "0x00000000000000000000000016b9a82891338f9ba80e2d6970fdda79d1eb0dae",
                    "decodedMethod": {
                        "callParams": [
                            {
                                "name": "",
                                "type": "address",
                                "value": "0x16b9a82891338f9ba80e2d6970fdda79d1eb0dae"
                            }
                        ],
                        "constructorArguments": "",
                        "name": "balanceOf",
                        "returnParams": [
                            {
                                "decimalAvailable": true,
                                "name": "",
                                "type": "uint256",
                                "value": "274,481,960,073,573,957,269,384"
                            }
                        ],
                        "signature": "balanceOf(address)"
                    },
                    "errorInfo": "",
                    "fromAddress": "0x16b9a82891338f9ba80e2d6970fdda79d1eb0dae",
                    "gasUsed": 1234,
                    "id": 51,
                    "methodDecoded": true,
                    "operation": "STATICCALL",
                    "output": "0x000000000000000000000000000000000000000000003a1fb2662329f81a7788",
                    "revert": false,
                    "revertMessage": "",
                    "selector": "0x70a08231",
                    "status": true,
                    "value": "0"
                },
                "nodeType": 0
            },
            "52": {
                "event": {
                    "contract": "0x16b9a82891338f9ba80e2d6970fdda79d1eb0dae",
                    "decodedLog": {
                        "name": "Sync",
                        "params": [
                            {
                                "name": "reserve0",
                                "type": "uint112",
                                "value": "75,173,876,481,554,969,493,655,788"
                            },
                            {
                                "name": "reserve1",
                                "type": "uint112",
                                "value": "274,481,960,073,573,957,269,384"
                            }
                        ],
                        "signature": "Sync(uint112,uint112)"
                    },
                    "id": 52,
                    "logData": "0x0000000000000000000000000000000000000000003e2eb002807ac7e7ce50ec000000000000000000000000000000000000000000003a1fb2662329f81a7788",
                    "logDecoded": true,
                    "operation": "EVENT",
                    "revert": false,
                    "status": true,
                    "topics": [
                        "0x1c411e9a96e071241c2f21f7726b17ae89e3cab4c78be50e062b03a9fffbbad1"
                    ]
                },
                "nodeType": 1
            },
            "53": {
                "event": {
                    "contract": "0x16b9a82891338f9ba80e2d6970fdda79d1eb0dae",
                    "decodedLog": {
                        "name": "Swap",
                        "params": [
                            {
                                "name": "sender",
                                "type": "address",
                                "value": "0x4e77df7b9cdcecec4115e59546f3eacba095a89f"
                            },
                            {
                                "name": "to",
                                "type": "address",
                                "value": "0x4e77df7b9cdcecec4115e59546f3eacba095a89f"
                            },
                            {
                                "name": "amount0In",
                                "type": "uint256",
                                "value": "3,186,778,788,000,000,000,000,000"
                            },
                            {
                                "name": "amount1In",
                                "type": "uint256",
                                "value": "0"
                            },
                            {
                                "name": "amount0Out",
                                "type": "uint256",
                                "value": "3,178,800,000,000,000,000,000,000"
                            },
                            {
                                "name": "amount1Out",
                                "type": "uint256",
                                "value": "0"
                            }
                        ],
                        "signature": "Swap(address,uint256,uint256,uint256,uint256,address)"
                    },
                    "id": 53,
                    "logData": "0x00000000000000000000000000000000000000000002a2d39fcf705a8c2a0000000000000000000000000000000000000000000000000000000000000000000000000000000000000000000000000000000000000002a12317e22bc8c6c000000000000000000000000000000000000000000000000000000000000000000000",
                    "logDecoded": true,
                    "operation": "EVENT",
                    "revert": false,
                    "status": true,
                    "topics": [
                        "0xd78ad95fa46c994b6551d0da85fc275fe613ce37657fb8d5e3d130840159d822",
                        "0x0000000000000000000000004e77df7b9cdcecec4115e59546f3eacba095a89f",
                        "0x0000000000000000000000004e77df7b9cdcecec4115e59546f3eacba095a89f"
                    ]
                },
                "nodeType": 1
            },
            "6": {
                "invocation": {
                    "address": "0x6a1a6b78a57965e8ef8d1c51d92701601fa74f01",
                    "callData": "0x000000000000000000000000000000000000000000029ac8ca3fce98b0000000000000000000000000000000000000000000000000000000000000000000000000000000000000000000000000000000000000000000000000000000000000a00000000000000000000000004e77df7b9cdcecec4115e59546f3eacba095a89f000000000000000000000000000000000000000000000000000000006334593a000000000000000000000000000000000000000000000000000000000000000200000000000000000000000055d398326f99059ff775485246999027b31979550000000000000000000000006d1b7b59e3fab85b7d3a3d86e505dd8e349ea7f3",
                    "decodedMethod": {
                        "callParams": [
                            {
                                "name": "amountIn",
                                "type": "uint256",
                                "value": "3,148,800,000,000,000,000,000,000"
                            },
                            {
                                "name": "amountOutMin",
                                "type": "uint256",
                                "value": "0"
                            },
                            {
                                "name": "path",
                                "type": "address[]",
                                "value": [
                                    "0x55d398326f99059ff775485246999027b3197955",
                                    "0x6d1b7b59e3fab85b7d3a3d86e505dd8e349ea7f3"
                                ]
                            },
                            {
                                "name": "to",
                                "type": "address",
                                "value": "0x4e77df7b9cdcecec4115e59546f3eacba095a89f"
                            },
                            {
                                "name": "deadline",
                                "type": "uint256",
                                "value": "1,664,375,098"
                            }
                        ],
                        "constructorArguments": "",
                        "name": "swapExactTokensForTokensSupportingFeeOnTransferTokens",
                        "returnParams": [],
                        "signature": "swapExactTokensForTokensSupportingFeeOnTransferTokens(uint256,uint256,address[],address,uint256)"
                    },
                    "errorInfo": "",
                    "fromAddress": "0x4e77df7b9cdcecec4115e59546f3eacba095a89f",
                    "gasUsed": 111093,
                    "id": 6,
                    "methodDecoded": true,
                    "operation": "CALL",
                    "output": "",
                    "revert": false,
                    "revertMessage": "",
                    "selector": "0x5c11d795",
                    "status": true,
                    "value": "0"
                },
                "nodeType": 0
            },
            "7": {
                "invocation": {
                    "address": "0x55d398326f99059ff775485246999027b3197955",
                    "callData": "0x0000000000000000000000004e77df7b9cdcecec4115e59546f3eacba095a89f000000000000000000000000919964b7f12a742e3d33176d7af9094ea4152e6f000000000000000000000000000000000000000000029ac8ca3fce98b0000000",
                    "decodedMethod": {
                        "callParams": [
                            {
                                "name": "sender",
                                "type": "address",
                                "value": "0x4e77df7b9cdcecec4115e59546f3eacba095a89f"
                            },
                            {
                                "name": "recipient",
                                "type": "address",
                                "value": "0x919964b7f12a742e3d33176d7af9094ea4152e6f"
                            },
                            {
                                "decimalAvailable": true,
                                "name": "amount",
                                "type": "uint256",
                                "value": "3,148,800,000,000,000,000,000,000"
                            }
                        ],
                        "constructorArguments": "",
                        "name": "transferFrom",
                        "returnParams": [
                            {
                                "name": "",
                                "type": "bool",
                                "value": true
                            }
                        ],
                        "signature": "transferFrom(address,address,uint256)"
                    },
                    "errorInfo": "",
                    "fromAddress": "0x6a1a6b78a57965e8ef8d1c51d92701601fa74f01",
                    "gasUsed": 18634,
                    "id": 7,
                    "methodDecoded": true,
                    "operation": "CALL",
                    "output": "0x0000000000000000000000000000000000000000000000000000000000000001",
                    "revert": false,
                    "revertMessage": "",
                    "selector": "0x23b872dd",
                    "status": true,
                    "value": "0"
                },
                "nodeType": 0
            },
            "8": {
                "event": {
                    "contract": "0x55d398326f99059ff775485246999027b3197955",
                    "decodedLog": {
                        "name": "Transfer",
                        "params": [
                            {
                                "name": "from",
                                "type": "address",
                                "value": "0x4e77df7b9cdcecec4115e59546f3eacba095a89f"
                            },
                            {
                                "name": "to",
                                "type": "address",
                                "value": "0x919964b7f12a742e3d33176d7af9094ea4152e6f"
                            },
                            {
                                "decimalAvailable": true,
                                "name": "value",
                                "type": "uint256",
                                "value": "3,148,800,000,000,000,000,000,000"
                            }
                        ],
                        "signature": "Transfer(address,address,uint256)"
                    },
                    "id": 8,
                    "logData": "0x000000000000000000000000000000000000000000029ac8ca3fce98b0000000",
                    "logDecoded": true,
                    "operation": "EVENT",
                    "revert": false,
                    "status": true,
                    "topics": [
                        "0xddf252ad1be2c89b69c2b068fc378daa952ba7f163c4a11628f55a4df523b3ef",
                        "0x0000000000000000000000004e77df7b9cdcecec4115e59546f3eacba095a89f",
                        "0x000000000000000000000000919964b7f12a742e3d33176d7af9094ea4152e6f"
                    ]
                },
                "nodeType": 1
            },
            "9": {
                "event": {
                    "contract": "0x55d398326f99059ff775485246999027b3197955",
                    "decodedLog": {
                        "name": "Approval",
                        "params": [
                            {
                                "name": "owner",
                                "type": "address",
                                "value": "0x4e77df7b9cdcecec4115e59546f3eacba095a89f"
                            },
                            {
                                "name": "spender",
                                "type": "address",
                                "value": "0x6a1a6b78a57965e8ef8d1c51d92701601fa74f01"
                            },
                            {
                                "decimalAvailable": true,
                                "name": "value",
                                "type": "uint256",
                                "value": "115,792,089,237,316,195,423,570,985,008,687,907,853,269,984,665,640,560,890,657,584,007,913,129,639,935"
                            }
                        ],
                        "signature": "Approval(address,address,uint256)"
                    },
                    "id": 9,
                    "logData": "0xfffffffffffffffffffffffffffffffffffffffffffd653735c031674fffffff",
                    "logDecoded": true,
                    "operation": "EVENT",
                    "revert": false,
                    "status": true,
                    "topics": [
                        "0x8c5be1e5ebec7d5bd14f71427d1e84f3dd0314c0f7b2291e5b200ac8c7c3b925",
                        "0x0000000000000000000000004e77df7b9cdcecec4115e59546f3eacba095a89f",
                        "0x0000000000000000000000006a1a6b78a57965e8ef8d1c51d92701601fa74f01"
                    ]
                },
                "nodeType": 1
            }
        },
        "gasFlame": [
            {
                "children": [
                    {
                        "children": [
                            {
                                "children": [],
                                "depth": 0,
                                "name": "Initial Gas",
                                "value": 21512
                            },
                            {
                                "children": [
                                    {
                                        "children": [
                                            {
                                                "children": [],
                                                "depth": 2,
                                                "name": "transfer",
                                                "value": 29471
                                            },
                                            {
                                                "children": [
                                                    {
                                                        "children": [],
                                                        "depth": 3,
                                                        "name": "balanceOf",
                                                        "value": 1231
                                                    },
                                                    {
                                                        "children": [
                                                            {
                                                                "children": [],
                                                                "depth": 4,
                                                                "name": "transferFrom",
                                                                "value": 18634
                                                            },
                                                            {
                                                                "children": [],
                                                                "depth": 4,
                                                                "name": "balanceOf",
                                                                "value": 1256
                                                            },
                                                            {
                                                                "children": [],
                                                                "depth": 4,
                                                                "name": "getReserves",
                                                                "value": 1217
                                                            },
                                                            {
                                                                "children": [],
                                                                "depth": 4,
                                                                "name": "balanceOf",
                                                                "value": 1231
                                                            },
                                                            {
                                                                "children": [
                                                                    {
                                                                        "children": [],
                                                                        "depth": 5,
                                                                        "name": "transfer",
                                                                        "value": 31456
                                                                    },
                                                                    {
                                                                        "children": [],
                                                                        "depth": 5,
                                                                        "name": "balanceOf",
                                                                        "value": 1231
                                                                    },
                                                                    {
                                                                        "children": [],
                                                                        "depth": 5,
                                                                        "name": "balanceOf",
                                                                        "value": 1256
                                                                    }
                                                                ],
                                                                "depth": 4,
                                                                "name": "swap",
                                                                "value": 73339
                                                            },
                                                            {
                                                                "children": [],
                                                                "depth": 4,
                                                                "name": "balanceOf",
                                                                "value": 1256
                                                            }
                                                        ],
                                                        "depth": 3,
                                                        "name": "swapExactTokensForTokensSupportingFeeOnTransferTokens",
                                                        "value": 111093
                                                    },
                                                    {
                                                        "children": [],
                                                        "depth": 3,
                                                        "name": "balanceOf",
                                                        "value": 1231
                                                    },
                                                    {
                                                        "children": [],
                                                        "depth": 3,
                                                        "name": "transfer",
                                                        "value": 10271
                                                    },
                                                    {
                                                        "children": [],
                                                        "depth": 3,
                                                        "name": "balanceOf",
                                                        "value": 1231
                                                    },
                                                    {
                                                        "children": [
                                                            {
                                                                "children": [],
                                                                "depth": 4,
                                                                "name": "getReserves",
                                                                "value": 1217
                                                            },
                                                            {
                                                                "children": [],
                                                                "depth": 4,
                                                                "name": "token0",
                                                                "value": 1149
                                                            },
                                                            {
                                                                "children": [],
                                                                "depth": 4,
                                                                "name": "transfer",
                                                                "value": 6071
                                                            }
                                                        ],
                                                        "depth": 3,
                                                        "name": "deposit",
                                                        "value": 136193
                                                    },
                                                    {
                                                        "children": [],
                                                        "depth": 3,
                                                        "name": "balanceOf",
                                                        "value": 1231
                                                    },
                                                    {
                                                        "children": [],
                                                        "depth": 3,
                                                        "name": "balanceOf",
                                                        "value": 1256
                                                    },
                                                    {
                                                        "children": [
                                                            {
                                                                "children": [],
                                                                "depth": 4,
                                                                "name": "transferFrom",
                                                                "value": 16411
                                                            },
                                                            {
                                                                "children": [],
                                                                "depth": 4,
                                                                "name": "balanceOf",
                                                                "value": 1231
                                                            },
                                                            {
                                                                "children": [],
                                                                "depth": 4,
                                                                "name": "getReserves",
                                                                "value": 1217
                                                            },
                                                            {
                                                                "children": [],
                                                                "depth": 4,
                                                                "name": "balanceOf",
                                                                "value": 1256
                                                            },
                                                            {
                                                                "children": [
                                                                    {
                                                                        "children": [],
                                                                        "depth": 5,
                                                                        "name": "transfer",
                                                                        "value": 6071
                                                                    },
                                                                    {
                                                                        "children": [],
                                                                        "depth": 5,
                                                                        "name": "balanceOf",
                                                                        "value": 1231
                                                                    },
                                                                    {
                                                                        "children": [],
                                                                        "depth": 5,
                                                                        "name": "balanceOf",
                                                                        "value": 1256
                                                                    }
                                                                ],
                                                                "depth": 4,
                                                                "name": "swap",
                                                                "value": 31594
                                                            },
                                                            {
                                                                "children": [],
                                                                "depth": 4,
                                                                "name": "balanceOf",
                                                                "value": 1231
                                                            }
                                                        ],
                                                        "depth": 3,
                                                        "name": "swapExactTokensForTokensSupportingFeeOnTransferTokens",
                                                        "value": 67150
                                                    },
                                                    {
                                                        "children": [],
                                                        "depth": 3,
                                                        "name": "transfer",
                                                        "value": 6071
                                                    }
                                                ],
                                                "depth": 2,
                                                "name": "pancakeCall",
                                                "value": 374267
                                            },
                                            {
                                                "children": [],
                                                "depth": 2,
                                                "name": "balanceOf",
                                                "value": 1231
                                            },
                                            {
                                                "children": [],
                                                "depth": 2,
                                                "name": "balanceOf",
                                                "value": 1234
                                            }
                                        ],
                                        "depth": 1,
                                        "name": "swap",
                                        "value": 442474
                                    }
                                ],
                                "depth": 0,
                                "name": "Executed Gas",
                                "value": 486750
                            }
                        ],
                        "depth": -1,
                        "name": "Actual Gas Used",
                        "value": 472262
                    },
                    {
                        "children": [],
                        "depth": -1,
                        "name": "Refunded Gas",
                        "value": 36000
                    }
                ],
                "depth": -2,
                "name": "Total Gas",
                "value": 508262
            }
        ],
        "isConfirmed": true,
        "mainTrace": [
            {
                "children": [
                    {
                        "children": [
                            {
                                "children": [
                                    {
                                        "children": [
                                            {
                                                "children": [],
                                                "depth": 3,
                                                "id": 3,
                                                "order": 3
                                            }
                                        ],
                                        "depth": 2,
                                        "id": 2,
                                        "order": 2
                                    },
                                    {
                                        "children": [
                                            {
                                                "children": [],
                                                "depth": 3,
                                                "id": 5,
                                                "order": 5
                                            },
                                            {
                                                "children": [
                                                    {
                                                        "children": [
                                                            {
                                                                "children": [],
                                                                "depth": 5,
                                                                "id": 8,
                                                                "order": 8
                                                            },
                                                            {
                                                                "children": [],
                                                                "depth": 5,
                                                                "id": 9,
                                                                "order": 9
                                                            }
                                                        ],
                                                        "depth": 4,
                                                        "id": 7,
                                                        "order": 7
                                                    },
                                                    {
                                                        "children": [],
                                                        "depth": 4,
                                                        "id": 10,
                                                        "order": 10
                                                    },
                                                    {
                                                        "children": [],
                                                        "depth": 4,
                                                        "id": 11,
                                                        "order": 11
                                                    },
                                                    {
                                                        "children": [],
                                                        "depth": 4,
                                                        "id": 12,
                                                        "order": 12
                                                    },
                                                    {
                                                        "children": [
                                                            {
                                                                "children": [
                                                                    {
                                                                        "children": [],
                                                                        "depth": 6,
                                                                        "id": 15,
                                                                        "order": 15
                                                                    }
                                                                ],
                                                                "depth": 5,
                                                                "id": 14,
                                                                "order": 14
                                                            },
                                                            {
                                                                "children": [],
                                                                "depth": 5,
                                                                "id": 16,
                                                                "order": 16
                                                            },
                                                            {
                                                                "children": [],
                                                                "depth": 5,
                                                                "id": 17,
                                                                "order": 17
                                                            },
                                                            {
                                                                "children": [],
                                                                "depth": 5,
                                                                "id": 18,
                                                                "order": 18
                                                            },
                                                            {
                                                                "children": [],
                                                                "depth": 5,
                                                                "id": 19,
                                                                "order": 19
                                                            }
                                                        ],
                                                        "depth": 4,
                                                        "id": 13,
                                                        "order": 13
                                                    },
                                                    {
                                                        "children": [],
                                                        "depth": 4,
                                                        "id": 20,
                                                        "order": 20
                                                    }
                                                ],
                                                "depth": 3,
                                                "id": 6,
                                                "order": 6
                                            },
                                            {
                                                "children": [],
                                                "depth": 3,
                                                "id": 21,
                                                "order": 21
                                            },
                                            {
                                                "children": [
                                                    {
                                                        "children": [],
                                                        "depth": 4,
                                                        "id": 23,
                                                        "order": 23
                                                    }
                                                ],
                                                "depth": 3,
                                                "id": 22,
                                                "order": 22
                                            },
                                            {
                                                "children": [],
                                                "depth": 3,
                                                "id": 24,
                                                "order": 24
                                            },
                                            {
                                                "children": [
                                                    {
                                                        "children": [],
                                                        "depth": 4,
                                                        "id": 26,
                                                        "order": 26
                                                    },
                                                    {
                                                        "children": [],
                                                        "depth": 4,
                                                        "id": 27,
                                                        "order": 27
                                                    },
                                                    {
                                                        "children": [
                                                            {
                                                                "children": [],
                                                                "depth": 5,
                                                                "id": 29,
                                                                "order": 29
                                                            }
                                                        ],
                                                        "depth": 4,
                                                        "id": 28,
                                                        "order": 28
                                                    },
                                                    {
                                                        "children": [],
                                                        "depth": 4,
                                                        "id": 30,
                                                        "order": 30
                                                    }
                                                ],
                                                "depth": 3,
                                                "id": 25,
                                                "order": 25
                                            },
                                            {
                                                "children": [],
                                                "depth": 3,
                                                "id": 31,
                                                "order": 31
                                            },
                                            {
                                                "children": [],
                                                "depth": 3,
                                                "id": 32,
                                                "order": 32
                                            },
                                            {
                                                "children": [
                                                    {
                                                        "children": [
                                                            {
                                                                "children": [],
                                                                "depth": 5,
                                                                "id": 35,
                                                                "order": 35
                                                            },
                                                            {
                                                                "children": [],
                                                                "depth": 5,
                                                                "id": 36,
                                                                "order": 36
                                                            }
                                                        ],
                                                        "depth": 4,
                                                        "id": 34,
                                                        "order": 34
                                                    },
                                                    {
                                                        "children": [],
                                                        "depth": 4,
                                                        "id": 37,
                                                        "order": 37
                                                    },
                                                    {
                                                        "children": [],
                                                        "depth": 4,
                                                        "id": 38,
                                                        "order": 38
                                                    },
                                                    {
                                                        "children": [],
                                                        "depth": 4,
                                                        "id": 39,
                                                        "order": 39
                                                    },
                                                    {
                                                        "children": [
                                                            {
                                                                "children": [
                                                                    {
                                                                        "children": [],
                                                                        "depth": 6,
                                                                        "id": 42,
                                                                        "order": 42
                                                                    }
                                                                ],
                                                                "depth": 5,
                                                                "id": 41,
                                                                "order": 41
                                                            },
                                                            {
                                                                "children": [],
                                                                "depth": 5,
                                                                "id": 43,
                                                                "order": 43
                                                            },
                                                            {
                                                                "children": [],
                                                                "depth": 5,
                                                                "id": 44,
                                                                "order": 44
                                                            },
                                                            {
                                                                "children": [],
                                                                "depth": 5,
                                                                "id": 45,
                                                                "order": 45
                                                            },
                                                            {
                                                                "children": [],
                                                                "depth": 5,
                                                                "id": 46,
                                                                "order": 46
                                                            }
                                                        ],
                                                        "depth": 4,
                                                        "id": 40,
                                                        "order": 40
                                                    },
                                                    {
                                                        "children": [],
                                                        "depth": 4,
                                                        "id": 47,
                                                        "order": 47
                                                    }
                                                ],
                                                "depth": 3,
                                                "id": 33,
                                                "order": 33
                                            },
                                            {
                                                "children": [
                                                    {
                                                        "children": [],
                                                        "depth": 4,
                                                        "id": 49,
                                                        "order": 49
                                                    }
                                                ],
                                                "depth": 3,
                                                "id": 48,
                                                "order": 48
                                            }
                                        ],
                                        "depth": 2,
                                        "id": 4,
                                        "order": 4
                                    },
                                    {
                                        "children": [],
                                        "depth": 2,
                                        "id": 50,
                                        "order": 50
                                    },
                                    {
                                        "children": [],
                                        "depth": 2,
                                        "id": 51,
                                        "order": 51
                                    },
                                    {
                                        "children": [],
                                        "depth": 2,
                                        "id": 52,
                                        "order": 52
                                    },
                                    {
                                        "children": [],
                                        "depth": 2,
                                        "id": 53,
                                        "order": 53
                                    }
                                ],
                                "depth": 1,
                                "id": 1,
                                "order": 1
                            }
                        ],
                        "depth": 0,
                        "id": 0,
                        "order": 0
                    }
                ],
                "depth": -1,
                "id": -1,
                "order": -1
            }
        ],
        "mainTraceNodeCount": 54,
        "parentIdMap": {
            "0": -1,
            "1": 0,
            "10": 6,
            "11": 6,
            "12": 6,
            "13": 6,
            "14": 13,
            "15": 14,
            "16": 13,
            "17": 13,
            "18": 13,
            "19": 13,
            "2": 1,
            "20": 6,
            "21": 4,
            "22": 4,
            "23": 22,
            "24": 4,
            "25": 4,
            "26": 25,
            "27": 25,
            "28": 25,
            "29": 28,
            "3": 2,
            "30": 25,
            "31": 4,
            "32": 4,
            "33": 4,
            "34": 33,
            "35": 34,
            "36": 34,
            "37": 33,
            "38": 33,
            "39": 33,
            "4": 1,
            "40": 33,
            "41": 40,
            "42": 41,
            "43": 40,
            "44": 40,
            "45": 40,
            "46": 40,
            "47": 33,
            "48": 4,
            "49": 48,
            "5": 4,
            "50": 1,
            "51": 1,
            "52": 1,
            "53": 1,
            "6": 4,
            "7": 6,
            "8": 7,
            "9": 7
        },
        "tidyTrace": [
            {
                "children": [
                    {
                        "children": [
                            {
                                "children": [
                                    {
                                        "children": [
                                            {
                                                "children": [],
                                                "depth": 3,
                                                "id": 3,
                                                "order": 3
                                            }
                                        ],
                                        "depth": 2,
                                        "id": 2,
                                        "order": 2
                                    },
                                    {
                                        "children": [
                                            {
                                                "children": [
                                                    {
                                                        "children": [
                                                            {
                                                                "children": [],
                                                                "depth": 5,
                                                                "id": 8,
                                                                "order": 8
                                                            },
                                                            {
                                                                "children": [],
                                                                "depth": 5,
                                                                "id": 9,
                                                                "order": 9
                                                            }
                                                        ],
                                                        "depth": 4,
                                                        "id": 7,
                                                        "order": 7
                                                    },
                                                    {
                                                        "children": [
                                                            {
                                                                "children": [
                                                                    {
                                                                        "children": [],
                                                                        "depth": 6,
                                                                        "id": 15,
                                                                        "order": 15
                                                                    }
                                                                ],
                                                                "depth": 5,
                                                                "id": 14,
                                                                "order": 14
                                                            },
                                                            {
                                                                "children": [],
                                                                "depth": 5,
                                                                "id": 18,
                                                                "order": 18
                                                            },
                                                            {
                                                                "children": [],
                                                                "depth": 5,
                                                                "id": 19,
                                                                "order": 19
                                                            }
                                                        ],
                                                        "depth": 4,
                                                        "id": 13,
                                                        "order": 13
                                                    }
                                                ],
                                                "depth": 3,
                                                "id": 6,
                                                "order": 6
                                            },
                                            {
                                                "children": [
                                                    {
                                                        "children": [],
                                                        "depth": 4,
                                                        "id": 23,
                                                        "order": 23
                                                    }
                                                ],
                                                "depth": 3,
                                                "id": 22,
                                                "order": 22
                                            },
                                            {
                                                "children": [
                                                    {
                                                        "children": [
                                                            {
                                                                "children": [],
                                                                "depth": 5,
                                                                "id": 29,
                                                                "order": 29
                                                            }
                                                        ],
                                                        "depth": 4,
                                                        "id": 28,
                                                        "order": 28
                                                    },
                                                    {
                                                        "children": [],
                                                        "depth": 4,
                                                        "id": 30,
                                                        "order": 30
                                                    }
                                                ],
                                                "depth": 3,
                                                "id": 25,
                                                "order": 25
                                            },
                                            {
                                                "children": [
                                                    {
                                                        "children": [
                                                            {
                                                                "children": [],
                                                                "depth": 5,
                                                                "id": 35,
                                                                "order": 35
                                                            },
                                                            {
                                                                "children": [],
                                                                "depth": 5,
                                                                "id": 36,
                                                                "order": 36
                                                            }
                                                        ],
                                                        "depth": 4,
                                                        "id": 34,
                                                        "order": 34
                                                    },
                                                    {
                                                        "children": [
                                                            {
                                                                "children": [
                                                                    {
                                                                        "children": [],
                                                                        "depth": 6,
                                                                        "id": 42,
                                                                        "order": 42
                                                                    }
                                                                ],
                                                                "depth": 5,
                                                                "id": 41,
                                                                "order": 41
                                                            },
                                                            {
                                                                "children": [],
                                                                "depth": 5,
                                                                "id": 45,
                                                                "order": 45
                                                            },
                                                            {
                                                                "children": [],
                                                                "depth": 5,
                                                                "id": 46,
                                                                "order": 46
                                                            }
                                                        ],
                                                        "depth": 4,
                                                        "id": 40,
                                                        "order": 40
                                                    }
                                                ],
                                                "depth": 3,
                                                "id": 33,
                                                "order": 33
                                            },
                                            {
                                                "children": [
                                                    {
                                                        "children": [],
                                                        "depth": 4,
                                                        "id": 49,
                                                        "order": 49
                                                    }
                                                ],
                                                "depth": 3,
                                                "id": 48,
                                                "order": 48
                                            }
                                        ],
                                        "depth": 2,
                                        "id": 4,
                                        "order": 4
                                    },
                                    {
                                        "children": [],
                                        "depth": 2,
                                        "id": 52,
                                        "order": 52
                                    },
                                    {
                                        "children": [],
                                        "depth": 2,
                                        "id": 53,
                                        "order": 53
                                    }
                                ],
                                "depth": 1,
                                "id": 1,
                                "order": 1
                            }
                        ],
                        "depth": 0,
                        "id": 0,
                        "order": 0
                    }
                ],
                "depth": -1,
                "id": -1,
                "order": -1
            }
        ],
        "tidyTraceNodeCount": 33
    },
    "state_change": {
        "stateChanges": [
            {
                "address": "0x16b9a82891338f9ba80e2d6970fdda79d1eb0dae",
                "erc": "ERC-20",
                "slots": [
                    {
                        "current": "0x633458d6000000003a1fb2662329f81a77880000003e2eb002807ac7e7ce50ec",
                        "key": "0x0000000000000000000000000000000000000000000000000000000000000008",
                        "prev": "0x633458d6000000003a1fb2662329f81a77880000003e2cff7a933636226450ec"
                    }
                ],
                "storageVariables": [
                    {
                        "name": "reserve0",
                        "type": "uint112",
                        "value": {
                            "current": "75173876481554969493655788",
                            "prev": "75165897693554969493655788",
                            "typeTag": 1
                        }
                    },
                    {
                        "name": "reserve1",
                        "type": "uint112",
                        "value": {
                            "current": "274481960073573957269384",
                            "prev": "274481960073573957269384",
                            "typeTag": 1
                        }
                    },
                    {
                        "name": "blockTimestampLast",
                        "type": "uint32",
                        "value": {
                            "current": "1664374998",
                            "prev": "1664374998",
                            "typeTag": 1
                        }
                    }
                ]
            },
            {
                "address": "0x27539b1dee647b38e1b987c41c5336b1a8dce663",
                "erc": "",
                "slots": [
                    {
                        "current": "0x00000000000000000000000000000000000000000000000000000000014b883a",
                        "key": "0x036b6384b5eca791c62761152d0c79bb0604c104a5fb6f4eb0703f3154bb3db2",
                        "prev": "0x00000000000000000000000000000000000000000000000000000000014b8483"
                    },
                    {
                        "current": "0x00000000000000000000000000000000000000000000087d0bc7349f6fecc4d1",
                        "key": "0xa562c87ea248428ec31fc04ed646c583e4dd8ac0e04c3afa15beb04ce7f713c7",
                        "prev": "0x0000000000000000000000000000000000000000000000000000000000000000"
                    },
                    {
                        "current": "0x00000000000000000000000000000000000000000000000000000000633458d6",
                        "key": "0xa562c87ea248428ec31fc04ed646c583e4dd8ac0e04c3afa15beb04ce7f713c8",
                        "prev": "0x0000000000000000000000000000000000000000000000000000000000000000"
                    },
                    {
                        "current": "0x00000000000000000000000000000000000000000000049aec71cc309b5397a4",
                        "key": "0xa562c87ea248428ec31fc04ed646c583e4dd8ac0e04c3afa15beb04ce7f713c6",
                        "prev": "0x00000000000000000000000000000000000000000000049a18f2040f1c1505cc"
                    },
                    {
                        "current": "0x0000000000000000000000000000000000000000000000000000000000000002",
                        "key": "0x8cbb024d49ae78de99bd7a1260ffbed1b517516600ff5922e851cf8c993d9161",
                        "prev": "0x0000000000000000000000000000000000000000000000000000000000000001"
                    },
                    {
                        "current": "0x00000000000000000000000000000000000000000000000000000000633458d6",
                        "key": "0xd6076a2e3c625a87c37fcadc04ff4d42b2362b7dfdde7c5a32c032e7ccf0d0ca",
                        "prev": "0x0000000000000000000000000000000000000000000000000000000000000000"
                    },
                    {
                        "current": "0x0000000000000000000000000000000000000000000000000000038af4d75e5e",
                        "key": "0x036b6384b5eca791c62761152d0c79bb0604c104a5fb6f4eb0703f3154bb3db3",
                        "prev": "0x0000000000000000000000000000000000000000000000000000038af257851a"
                    }
                ],
                "storageVariables": [
                    {
                        "name": "userDepositInfo",
                        "type": "mapping(uint256 => mapping(address => struct TokenStakingPoolDelegate.DepositOrder[]))",
                        "value": {
                            "pairs": [
                                {
                                    "key": "0",
                                    "value": {
                                        "pairs": [
                                            {
                                                "key": "0x4e77df7b9cdcecec4115e59546f3eacba095a89f",
                                                "value": {
                                                    "elemType": "struct TokenStakingPoolDelegate.DepositOrder",
                                                    "elems": [
                                                        {
                                                            "index": 1,
                                                            "value": {
                                                                "fields": [
                                                                    {
                                                                        "name": "orderTime",
                                                                        "type": "uint256",
                                                                        "value": {
                                                                            "current": "1664374998",
                                                                            "prev": "0",
                                                                            "typeTag": 1
                                                                        }
                                                                    }
                                                                ],
                                                                "typeTag": 3
                                                            }
                                                        }
                                                    ],
                                                    "typeTag": 2
                                                }
                                            }
                                        ],
                                        "typeTag": 4
                                    }
                                }
                            ],
                            "typeTag": 4
                        }
                    },
                    {
                        "name": "poolInfo",
                        "type": "struct TokenStakingPoolDelegate.PoolInfo[]",
                        "value": {
                            "elemType": "struct TokenStakingPoolDelegate.PoolInfo",
                            "elems": [
                                {
                                    "index": 0,
                                    "value": {
                                        "fields": [
                                            {
                                                "name": "lastRewardBlock",
                                                "type": "uint256",
                                                "value": {
                                                    "current": "21727290",
                                                    "prev": "21726339",
                                                    "typeTag": 1
                                                }
                                            },
                                            {
                                                "name": "accITokenPerShare",
                                                "type": "uint256",
                                                "value": {
                                                    "current": "3895348125278",
                                                    "prev": "3895306192154",
                                                    "typeTag": 1
                                                }
                                            }
                                        ],
                                        "typeTag": 3
                                    }
                                }
                            ],
                            "typeTag": 2
                        }
                    },
                    {
                        "name": "userInfo",
                        "type": "mapping(uint256 => mapping(address => struct TokenStakingPoolDelegate.UserInfo))",
                        "value": {
                            "pairs": [
                                {
                                    "key": "0",
                                    "value": {
                                        "pairs": [
                                            {
                                                "key": "0x4e77df7b9cdcecec4115e59546f3eacba095a89f",
                                                "value": {
                                                    "fields": [
                                                        {
                                                            "name": "rewardDebt",
                                                            "type": "uint256",
                                                            "value": {
                                                                "current": "21747302142204307543972",
                                                                "prev": "21732062022494068213196",
                                                                "typeTag": 1
                                                            }
                                                        },
                                                        {
                                                            "name": "rewardReceived",
                                                            "type": "uint256",
                                                            "value": {
                                                                "current": "40085623577085020521681",
                                                                "prev": "0",
                                                                "typeTag": 1
                                                            }
                                                        },
                                                        {
                                                            "name": "lastReceived",
                                                            "type": "uint256",
                                                            "value": {
                                                                "current": "1664374998",
                                                                "prev": "0",
                                                                "typeTag": 1
                                                            }
                                                        }
                                                    ],
                                                    "typeTag": 3
                                                }
                                            }
                                        ],
                                        "typeTag": 4
                                    }
                                }
                            ],
                            "typeTag": 4
                        }
                    }
                ]
            },
            {
                "address": "0x4e77df7b9cdcecec4115e59546f3eacba095a89f",
                "erc": "",
                "slots": [
                    {
                        "current": "0x00000000000000000000000000000000000000000002a12317e22bc8c6c00000",
                        "key": "0x000000000000000000000000000000000000000000000000000000000000000e",
                        "prev": "0x0000000000000000000000000000000000000000000000000000000000000000"
                    },
                    {
                        "current": "0x00000000000000000000000000000000000000000000000ad78ebc5ac6200000",
                        "key": "0x000000000000000000000000000000000000000000000000000000000000000f",
                        "prev": "0x0000000000000000000000000000000000000000000000000000000000000000"
                    }
                ],
                "storageVariables": []
            },
            {
                "address": "0x55d398326f99059ff775485246999027b3197955",
                "erc": "ERC-20",
                "slots": [
                    {
                        "current": "0x0000000000000000000000000000000000000000003e2eb002807ac7e7ce50ec",
                        "key": "0xba08221f8673e7bcd34c1b8c4689a983ae464d35addf83dda4fe5d5546a79b0d",
                        "prev": "0x0000000000000000000000000000000000000000003e2cff7a933636226450ec"
                    },
                    {
                        "current": "0x0000000000000000000000000000000000000000000006bb910ed156c1866307",
                        "key": "0x9897d5936b257a9ba54ad2ccb871f0eec6cd15dc52d878ab013d05499d0af4cd",
                        "prev": "0x0000000000000000000000000000000000000000000000000000000000000000"
                    },
                    {
                        "current": "0xfffffffffffffffffffffffffffffffffffffffffffd653735c031674fffffff",
                        "key": "0xb8cae108a7ec94e7deabdd3c5f2e7cad08b2bfb119a849b4be5448894cfbe44e",
                        "prev": "0xffffffffffffffffffffffffffffffffffffffffffffffffffffffffffffffff"
                    },
                    {
                        "current": "0x0000000000000000000000000000000000000000000005595a79432695a07120",
                        "key": "0xbf098cb95e734bddc8696d6a55a4419614615517855e3e35d34d5c9c2df82a62",
                        "prev": "0x0000000000000000000000000000000000000000000005533f3ce0ca72c40f56"
                    },
                    {
                        "current": "0x000000000000000000000000000000000000000000000007de3de5fc986999fd",
                        "key": "0x945aa0af49aaf93777ffe56709ed2206a2f88dee255bb64b8ba0a6030ee0831a",
                        "prev": "0x00000000000000000000000000000000000000000000087a12765e4142365ece"
                    }
                ],
                "storageVariables": [
                    {
                        "name": "_balances",
                        "type": "mapping(address => uint256)",
                        "value": {
                            "pairs": [
                                {
                                    "key": "0x16b9a82891338f9ba80e2d6970fdda79d1eb0dae",
                                    "value": {
                                        "current": "75173876481554969493655788",
                                        "prev": "75165897693554969493655788",
                                        "typeTag": 1
                                    }
                                },
                                {
                                    "key": "0x27539b1dee647b38e1b987c41c5336b1a8dce663",
                                    "value": {
                                        "current": "145141417239017789949",
                                        "prev": "40030764994324038311630",
                                        "typeTag": 1
                                    }
                                },
                                {
                                    "key": "0x4e77df7b9cdcecec4115e59546f3eacba095a89f",
                                    "value": {
                                        "current": "31794192560957275136775",
                                        "prev": "0",
                                        "typeTag": 1
                                    }
                                },
                                {
                                    "key": "0x919964b7f12a742e3d33176d7af9094ea4152e6f",
                                    "value": {
                                        "current": "25260111952676969804064",
                                        "prev": "25147468936549224419158",
                                        "typeTag": 1
                                    }
                                }
                            ],
                            "typeTag": 4
                        }
                    },
                    {
                        "name": "_allowances",
                        "type": "mapping(address => mapping(address => uint256))",
                        "value": {
                            "pairs": [
                                {
                                    "key": "0x4e77df7b9cdcecec4115e59546f3eacba095a89f",
                                    "value": {
                                        "pairs": [
                                            {
                                                "key": "0x6a1a6b78a57965e8ef8d1c51d92701601fa74f01",
                                                "value": {
                                                    "current": "115792089237316195423570985008687907853269984665640560890657584007913129639935",
                                                    "prev": "115792089237316195423570985008687907853269984665640564039457584007913129639935",
                                                    "typeTag": 1
                                                }
                                            }
                                        ],
                                        "typeTag": 4
                                    }
                                }
                            ],
                            "typeTag": 4
                        }
                    }
                ]
            },
            {
                "address": "0x6d1b7b59e3fab85b7d3a3d86e505dd8e349ea7f3",
                "erc": "ERC-20",
                "slots": [
                    {
                        "current": "0xffffffffffffffffffffffffffffffffffffffffffffe07ac3b4cb700ddccdf5",
                        "key": "0x23db6656bf8684bafaa973c16d03eda82ddda5a2b6ad2869c7b31d6e4ee58108",
                        "prev": "0xffffffffffffffffffffffffffffffffffffffffffffffffffffffffffffffff"
                    }
                ],
                "storageVariables": [
                    {
                        "name": "_allowances",
                        "type": "mapping(address => mapping(address => uint256))",
                        "value": {
                            "pairs": [
                                {
                                    "key": "0x4e77df7b9cdcecec4115e59546f3eacba095a89f",
                                    "value": {
                                        "pairs": [
                                            {
                                                "key": "0x6a1a6b78a57965e8ef8d1c51d92701601fa74f01",
                                                "value": {
                                                    "current": "115792089237316195423570985008687907853269984665640563890606461453092381314549",
                                                    "prev": "115792089237316195423570985008687907853269984665640564039457584007913129639935",
                                                    "typeTag": 1
                                                }
                                            }
                                        ],
                                        "typeTag": 4
                                    }
                                }
                            ],
                            "typeTag": 4
                        }
                    }
                ]
            },
            {
                "address": "0x919964b7f12a742e3d33176d7af9094ea4152e6f",
                "erc": "ERC-20",
                "slots": [
                    {
                        "current": "0x0000000000000000000000000000130b504438dfdae4ab26313a43e3322197c2",
                        "key": "0x0000000000000000000000000000000000000000000000000000000000000009",
                        "prev": "0x0000000000000000000000000000130a045535e5fd2a5325f6c34bc6a8e38208"
                    },
                    {
                        "current": "0x0000000000000000000000000000005e723ec5ab45a5391463542e94b0edc866",
                        "key": "0x000000000000000000000000000000000000000000000000000000000000000a",
                        "prev": "0x0000000000000000000000000000005e68ebc80b95f90a974fae8ccb881124d8"
                    },
                    {
                        "current": "0x633458d6000000001fc5d32090136f9219740000000005595a79432695a07120",
                        "key": "0x0000000000000000000000000000000000000000000000000000000000000008",
                        "prev": "0x63342134000000001fc5d32090136f9219740000000005533f3ce0ca72c40f56"
                    }
                ],
                "storageVariables": [
                    {
                        "name": "price1CumulativeLast",
                        "type": "uint256",
                        "value": {
                            "current": "32138400413697187051688382265858863253606",
                            "prev": "32126006449291447357830235525583796774104",
                            "typeTag": 1
                        }
                    },
                    {
                        "name": "reserve0",
                        "type": "uint112",
                        "value": {
                            "current": "25260111952676969804064",
                            "prev": "25147468936549224419158",
                            "typeTag": 1
                        }
                    },
                    {
                        "name": "reserve1",
                        "type": "uint112",
                        "value": {
                            "current": "150042582869434191452532",
                            "prev": "150042582869434191452532",
                            "typeTag": 1
                        }
                    },
                    {
                        "name": "blockTimestampLast",
                        "type": "uint32",
                        "value": {
                            "current": "1664374998",
                            "prev": "1664360756",
                            "typeTag": 1
                        }
                    },
                    {
                        "name": "price0CumulativeLast",
                        "type": "uint256",
                        "value": {
                            "current": "1658983231208974745242693864321092933490626",
                            "prev": "1658542015723059495128658895585784161862152",
                            "typeTag": 1
                        }
                    }
                ]
            }
        ]
    }
}