{
    "balance_change": {
        "balanceChanges": [
            {
                "account": "0xcacea2e65eb4f53f0d191c97def57c09ddab1975",
                "assets": [
                    {
                        "address": "0x1f9840a85d5af5bf1d1762f925bdaddc4201f984",
                        "amount": "19.609538406666292",
                        "iconUrl": "https://assets.blocksec.com/icon/a11b26a37f84e146d773ae4914e43619075ce4c922ad0a1fa46464f3049bf839.png",
                        "isERC1155": false,
                        "isERC721": false,
                        "sign": false,
                        "value": "116.374230096280837234"
                    },
                    {
                        "address": "0x2260fac5e5542a773aa44fbcfedf7c193bc2c599",
                        "amount": "64.90569353",
                        "iconUrl": "https://assets.blocksec.com/icon/878f2983cb21c5816eb5879d9b6f7a3fe2eb6fce7560c367a0315527852a8a84.png",
                        "isERC1155": false,
                        "isERC721": false,
                        "sign": true,
                        "value": "1825586.699589904371"
                    }
                ]
            },
            {
                "account": "0xaa873c9da6541f13c89416c17271b4c21bf7b2d7",
                "assets": [
                    {
                        "address": "0x1f9840a85d5af5bf1d1762f925bdaddc4201f984",
                        "amount": "19.609538406666292",
                        "iconUrl": "https://assets.blocksec.com/icon/a11b26a37f84e146d773ae4914e43619075ce4c922ad0a1fa46464f3049bf839.png",
                        "isERC1155": false,
                        "isERC721": false,
                        "sign": true,
                        "value": "116.374230096280837234"
                    },
                    {
                        "address": "0x2260fac5e5542a773aa44fbcfedf7c193bc2c599",
                        "amount": "64.90569353",
                        "iconUrl": "https://assets.blocksec.com/icon/878f2983cb21c5816eb5879d9b6f7a3fe2eb6fce7560c367a0315527852a8a84.png",
                        "isERC1155": false,
                        "isERC721": false,
                        "sign": false,
                        "value": "1825586.699589904371"
                    }
                ]
            }
        ]
    },
    "profile": {
        "basic_info": {
            "baseFee": "16.720166622",
            "blockNumber": 16964664,
            "callData": "0xf0d0a650000000000000000000000000cacea2e65eb4f53f0d191c97def57c09ddab19750000000000000000000000001f9840a85d5af5bf1d1762f925bdaddc4201f984",
            "debugEnable": true,
            "errorInfo": "",
            "eventCount": 9,
            "feeRecipient": "0x0000000000000000000000000000000000000000",
            "formatValue": "0",
            "gasLimit": 500000,
            "gasPrice": "16.730166622",
            "gasUsed": 171148,
            "intTxnCount": 13,
            "internalRevert": false,
            "internalRevertMessage": "",
            "isContractCreation": false,
            "isFlashloan": false,
            "maxFee": "120",
            "nonce": 7,
            "overwritedBlockNumber": -1,
            "priorityFee": "0.01",
            "receiver": "0x74934ae08c26b152100c8c9bd73c3765feb85b9c",
            "revertMessage": "",
            "sender": "0xcacea2e65eb4f53f0d191c97def57c09ddab1975",
            "simulationEnable": true,
            "sourceTxnHash": "0xa34d79cbe9aef1bf07692885b353d85912523dfc4662611d33dd09ff6c319c85",
            "status": true,
            "timestamp": "2023-04-02T23:29:35Z",
            "transactionFee": "0.002863334557022056",
            "txnHash": "0xa34d79cbe9aef1bf07692885b353d85912523dfc4662611d33dd09ff6c319c85",
            "txnIndex": 22,
            "type": 2,
            "value": "0"
        },
        "fund_flow": [
            {
                "amount": "19.609538406666292",
                "from": "0xcacea2e65eb4f53f0d191c97def57c09ddab1975",
                "id": 1,
                "isERC1155": false,
                "isERC721": false,
                "isReverted": false,
                "order": 1,
                "to": "0x74934ae08c26b152100c8c9bd73c3765feb85b9c",
                "token": "0x1f9840a85d5af5bf1d1762f925bdaddc4201f984"
            },
            {
                "amount": "19.609538406666292",
                "from": "0x74934ae08c26b152100c8c9bd73c3765feb85b9c",
                "id": 2,
                "isERC1155": false,
                "isERC721": false,
                "isReverted": false,
                "order": 2,
                "to": "0xaa873c9da6541f13c89416c17271b4c21bf7b2d7",
                "token": "0x1f9840a85d5af5bf1d1762f925bdaddc4201f984"
            },
            {
                "amount": "64.90569353",
                "from": "0xaa873c9da6541f13c89416c17271b4c21bf7b2d7",
                "id": 3,
                "isERC1155": false,
                "isERC721": false,
                "isReverted": false,
                "order": 3,
                "to": "0x74934ae08c26b152100c8c9bd73c3765feb85b9c",
                "token": "0x2260fac5e5542a773aa44fbcfedf7c193bc2c599"
            },
            {
                "amount": "64.90569353",
                "from": "0x74934ae08c26b152100c8c9bd73c3765feb85b9c",
                "id": 4,
                "isERC1155": false,
                "isERC721": false,
                "isReverted": false,
                "order": 4,
                "to": "0xcacea2e65eb4f53f0d191c97def57c09ddab1975",
                "token": "0x2260fac5e5542a773aa44fbcfedf7c193bc2c599"
            }
        ],
        "token_infos": [
            {
                "address": "0xc02aaa39b223fe8d0a0e5c4f27ead9083c756cc2",
                "decimals": 18
            },
            {
                "address": "0xeeeeeeeeeeeeeeeeeeeeeeeeeeeeeeeeeeeeeeee",
                "decimals": 18
            },
            {
                "address": "0x1f9840a85d5af5bf1d1762f925bdaddc4201f984",
                "decimals": 18
            },
            {
                "address": "0x2260fac5e5542a773aa44fbcfedf7c193bc2c599",
                "decimals": 8
            }
        ]
    },
    "address_label": {
        "labels": [
            {
                "address": "0x0000000000000000000000000000000000000003",
                "label": "Precompiled"
            },
            {
                "address": "0xeeeeeeeeeeeeeeeeeeeeeeeeeeeeeeeeeeeeeeee",
                "label": "Ether"
            },
            {
                "address": "0xaa873c9da6541f13c89416c17271b4c21bf7b2d7",
                "label": "Uniswap V2: UNI-WBTC"
            },
            {
                "address": "0x2260fac5e5542a773aa44fbcfedf7c193bc2c599",
                "label": "Wrapped BTC: WBTC Token"
            },
            {
                "address": "0x0000000000000000000000000000000000000001",
                "label": "Precompiled"
            },
            {
                "address": "0x0000000000000000000000000000000000000002",
                "label": "Precompiled"
            },
            {
                "address": "0x7a250d5630b4cf539739df2c5dacb4c659f2488d",
                "label": "Uniswap V2: Router 2"
            },
            {
                "address": "0x1f9840a85d5af5bf1d1762f925bdaddc4201f984",
                "label": "Uniswap Protocol: UNI token"
            },
            {
                "address": "0x0000000000000000000000000000000000000004",
                "label": "Precompiled"
            }
        ]
    },
    "trace": {
        "accountLabels": null,
        "dataMap": {
            "-1": {
                "invocation": {
                    "address": "0xcacea2e65eb4f53f0d191c97def57c09ddab1975",
                    "callData": "",
                    "decodedMethod": null,
                    "errorInfo": "",
                    "fromAddress": "",
                    "gasUsed": 0,
                    "id": -1,
                    "methodDecoded": false,
                    "operation": "",
                    "output": "",
                    "revert": false,
                    "revertMessage": "",
                    "selector": "",
                    "status": false,
                    "value": ""
                },
                "nodeType": 0
            },
            "0": {
                "invocation": {
                    "address": "0x74934ae08c26b152100c8c9bd73c3765feb85b9c",
                    "callData": "0x000000000000000000000000cacea2e65eb4f53f0d191c97def57c09ddab19750000000000000000000000001f9840a85d5af5bf1d1762f925bdaddc4201f984",
                    "decodedMethod": null,
                    "errorInfo": "",
                    "fromAddress": "0xcacea2e65eb4f53f0d191c97def57c09ddab1975",
                    "gasUsed": 171148,
                    "id": 0,
                    "methodDecoded": false,
                    "operation": "CALL",
                    "output": "",
                    "revert": false,
                    "revertMessage": "",
                    "selector": "0xf0d0a650",
                    "status": true,
                    "value": "0"
                },
                "nodeType": 0
            },
            "1": {
                "invocation": {
                    "address": "0x1f9840a85d5af5bf1d1762f925bdaddc4201f984",
                    "callData": "0x000000000000000000000000cacea2e65eb4f53f0d191c97def57c09ddab1975",
                    "decodedMethod": {
                        "callParams": [
                            {
                                "name": "account",
                                "type": "address",
                                "value": "0xcacea2e65eb4f53f0d191c97def57c09ddab1975"
                            }
                        ],
                        "constructorArguments": "",
                        "name": "balanceOf",
                        "returnParams": [
                            {
                                "decimalAvailable": true,
                                "name": "",
                                "type": "uint256",
                                "value": "19,609,538,406,666,292,000"
                            }
                        ],
                        "signature": "balanceOf(address)"
                    },
                    "errorInfo": "",
                    "fromAddress": "0x74934ae08c26b152100c8c9bd73c3765feb85b9c",
                    "gasUsed": 2797,
                    "id": 1,
                    "methodDecoded": true,
                    "operation": "STATICCALL",
                    "output": "0x00000000000000000000000000000000000000000000000110231348fab94b20",
                    "revert": false,
                    "revertMessage": "",
                    "selector": "0x70a08231",
                    "status": true,
                    "value": "0"
                },
                "nodeType": 0
            },
            "10": {
                "invocation": {
                    "address": "0x1f9840a85d5af5bf1d1762f925bdaddc4201f984",
                    "callData": "0x00000000000000000000000074934ae08c26b152100c8c9bd73c3765feb85b9c000000000000000000000000aa873c9da6541f13c89416c17271b4c21bf7b2d700000000000000000000000000000000000000000000000110231348fab94b20",
                    "decodedMethod": {
                        "callParams": [
                            {
                                "name": "src",
                                "type": "address",
                                "value": "0x74934ae08c26b152100c8c9bd73c3765feb85b9c"
                            },
                            {
                                "name": "dst",
                                "type": "address",
                                "value": "0xaa873c9da6541f13c89416c17271b4c21bf7b2d7"
                            },
                            {
                                "decimalAvailable": true,
                                "name": "rawAmount",
                                "type": "uint256",
                                "value": "19,609,538,406,666,292,000"
                            }
                        ],
                        "constructorArguments": "",
                        "name": "transferFrom",
                        "returnParams": [
                            {
                                "name": "",
                                "type": "bool",
                                "value": true
                            }
                        ],
                        "signature": "transferFrom(address,address,uint256)"
                    },
                    "errorInfo": "",
                    "fromAddress": "0x7a250d5630b4cf539739df2c5dacb4c659f2488d",
                    "gasUsed": 14734,
                    "id": 10,
                    "methodDecoded": true,
                    "operation": "CALL",
                    "output": "0x0000000000000000000000000000000000000000000000000000000000000001",
                    "revert": false,
                    "revertMessage": "",
                    "selector": "0x23b872dd",
                    "status": true,
                    "value": "0"
                },
                "nodeType": 0
            },
            "11": {
                "event": {
                    "contract": "0x1f9840a85d5af5bf1d1762f925bdaddc4201f984",
                    "decodedLog": {
                        "name": "Approval",
                        "params": [
                            {
                                "name": "owner",
                                "type": "address",
                                "value": "0x74934ae08c26b152100c8c9bd73c3765feb85b9c"
                            },
                            {
                                "name": "spender",
                                "type": "address",
                                "value": "0x7a250d5630b4cf539739df2c5dacb4c659f2488d"
                            },
                            {
                                "decimalAvailable": true,
                                "name": "amount",
                                "type": "uint256",
                                "value": "0"
                            }
                        ],
                        "signature": "Approval(address,address,uint256)"
                    },
                    "id": 11,
                    "logData": "0x0000000000000000000000000000000000000000000000000000000000000000",
                    "logDecoded": true,
                    "operation": "EVENT",
                    "revert": false,
                    "status": true,
                    "topics": [
                        "0x8c5be1e5ebec7d5bd14f71427d1e84f3dd0314c0f7b2291e5b200ac8c7c3b925",
                        "0x00000000000000000000000074934ae08c26b152100c8c9bd73c3765feb85b9c",
                        "0x0000000000000000000000007a250d5630b4cf539739df2c5dacb4c659f2488d"
                    ]
                },
                "nodeType": 1
            },
            "12": {
                "event": {
                    "contract": "0x1f9840a85d5af5bf1d1762f925bdaddc4201f984",
                    "decodedLog": {
                        "name": "Transfer",
                        "params": [
                            {
                                "name": "from",
                                "type": "address",
                                "value": "0x74934ae08c26b152100c8c9bd73c3765feb85b9c"
                            },
                            {
                                "name": "to",
                                "type": "address",
                                "value": "0xaa873c9da6541f13c89416c17271b4c21bf7b2d7"
                            },
                            {
                                "decimalAvailable": true,
                                "name": "amount",
                                "type": "uint256",
                                "value": "19,609,538,406,666,292,000"
                            }
                        ],
                        "signature": "Transfer(address,address,uint256)"
                    },
                    "id": 12,
                    "logData": "0x00000000000000000000000000000000000000000000000110231348fab94b20",
                    "logDecoded": true,
                    "operation": "EVENT",
                    "revert": false,
                    "status": true,
                    "topics": [
                        "0xddf252ad1be2c89b69c2b068fc378daa952ba7f163c4a11628f55a4df523b3ef",
                        "0x00000000000000000000000074934ae08c26b152100c8c9bd73c3765feb85b9c",
                        "0x000000000000000000000000aa873c9da6541f13c89416c17271b4c21bf7b2d7"
                    ]
                },
                "nodeType": 1
            },
            "13": {
                "invocation": {
                    "address": "0xaa873c9da6541f13c89416c17271b4c21bf7b2d7",
                    "callData": "0x00000000000000000000000000000000000000000000000000000000000000000000000000000000000000000000000000000000000000000000000182de3a8900000000000000000000000074934ae08c26b152100c8c9bd73c3765feb85b9c00000000000000000000000000000000000000000000000000000000000000800000000000000000000000000000000000000000000000000000000000000000",
                    "decodedMethod": {
                        "callParams": [
                            {
                                "name": "amount0Out",
                                "type": "uint256",
                                "value": "0"
                            },
                            {
                                "name": "amount1Out",
                                "type": "uint256",
                                "value": "6,490,569,353"
                            },
                            {
                                "name": "to",
                                "type": "address",
                                "value": "0x74934ae08c26b152100c8c9bd73c3765feb85b9c"
                            },
                            {
                                "name": "data",
                                "type": "bytes",
                                "value": "0x"
                            }
                        ],
                        "constructorArguments": "",
                        "name": "swap",
                        "returnParams": [],
                        "signature": "swap(uint256,uint256,address,bytes)"
                    },
                    "errorInfo": "",
                    "fromAddress": "0x7a250d5630b4cf539739df2c5dacb4c659f2488d",
                    "gasUsed": 57802,
                    "id": 13,
                    "methodDecoded": true,
                    "operation": "CALL",
                    "output": "",
                    "revert": false,
                    "revertMessage": "",
                    "selector": "0x022c0d9f",
                    "status": true,
                    "value": "0"
                },
                "nodeType": 0
            },
            "14": {
                "invocation": {
                    "address": "0x2260fac5e5542a773aa44fbcfedf7c193bc2c599",
                    "callData": "0x00000000000000000000000074934ae08c26b152100c8c9bd73c3765feb85b9c0000000000000000000000000000000000000000000000000000000182de3a89",
                    "decodedMethod": {
                        "callParams": [
                            {
                                "name": "_to",
                                "type": "address",
                                "value": "0x74934ae08c26b152100c8c9bd73c3765feb85b9c"
                            },
                            {
                                "decimalAvailable": true,
                                "name": "_value",
                                "type": "uint256",
                                "value": "6,490,569,353"
                            }
                        ],
                        "constructorArguments": "",
                        "name": "transfer",
                        "returnParams": [
                            {
                                "name": "",
                                "type": "bool",
                                "value": true
                            }
                        ],
                        "signature": "transfer(address,uint256)"
                    },
                    "errorInfo": "",
                    "fromAddress": "0xaa873c9da6541f13c89416c17271b4c21bf7b2d7",
                    "gasUsed": 32803,
                    "id": 14,
                    "methodDecoded": true,
                    "operation": "CALL",
                    "output": "0x0000000000000000000000000000000000000000000000000000000000000001",
                    "revert": false,
                    "revertMessage": "",
                    "selector": "0xa9059cbb",
                    "status": true,
                    "value": "0"
                },
                "nodeType": 0
            },
            "15": {
                "event": {
                    "contract": "0x2260fac5e5542a773aa44fbcfedf7c193bc2c599",
                    "decodedLog": {
                        "name": "Transfer",
                        "params": [
                            {
                                "name": "from",
                                "type": "address",
                                "value": "0xaa873c9da6541f13c89416c17271b4c21bf7b2d7"
                            },
                            {
                                "name": "to",
                                "type": "address",
                                "value": "0x74934ae08c26b152100c8c9bd73c3765feb85b9c"
                            },
                            {
                                "decimalAvailable": true,
                                "name": "value",
                                "type": "uint256",
                                "value": "6,490,569,353"
                            }
                        ],
                        "signature": "Transfer(address,address,uint256)"
                    },
                    "id": 15,
                    "logData": "0x0000000000000000000000000000000000000000000000000000000182de3a89",
                    "logDecoded": true,
                    "operation": "EVENT",
                    "revert": false,
                    "status": true,
                    "topics": [
                        "0xddf252ad1be2c89b69c2b068fc378daa952ba7f163c4a11628f55a4df523b3ef",
                        "0x000000000000000000000000aa873c9da6541f13c89416c17271b4c21bf7b2d7",
                        "0x00000000000000000000000074934ae08c26b152100c8c9bd73c3765feb85b9c"
                    ]
                },
                "nodeType": 1
            },
            "16": {
                "invocation": {
                    "address": "0x1f9840a85d5af5bf1d1762f925bdaddc4201f984",
                    "callData": "0x000000000000000000000000aa873c9da6541f13c89416c17271b4c21bf7b2d7",
                    "decodedMethod": {
                        "callParams": [
                            {
                                "name": "account",
                                "type": "address",
                                "value": "0xaa873c9da6541f13c89416c17271b4c21bf7b2d7"
                            }
                        ],
                        "constructorArguments": "",
                        "name": "balanceOf",
                        "returnParams": [
                            {
                                "decimalAvailable": true,
                                "name": "",
                                "type": "uint256",
                                "value": "19,609,541,472,378,766,764"
                            }
                        ],
                        "signature": "balanceOf(address)"
                    },
                    "errorInfo": "",
                    "fromAddress": "0xaa873c9da6541f13c89416c17271b4c21bf7b2d7",
                    "gasUsed": 797,
                    "id": 16,
                    "methodDecoded": true,
                    "operation": "STATICCALL",
                    "output": "0x00000000000000000000000000000000000000000000000110231612c56d45ac",
                    "revert": false,
                    "revertMessage": "",
                    "selector": "0x70a08231",
                    "status": true,
                    "value": "0"
                },
                "nodeType": 0
            },
            "17": {
                "invocation": {
                    "address": "0x2260fac5e5542a773aa44fbcfedf7c193bc2c599",
                    "callData": "0x000000000000000000000000aa873c9da6541f13c89416c17271b4c21bf7b2d7",
                    "decodedMethod": {
                        "callParams": [
                            {
                                "name": "_owner",
                                "type": "address",
                                "value": "0xaa873c9da6541f13c89416c17271b4c21bf7b2d7"
                            }
                        ],
                        "constructorArguments": "",
                        "name": "balanceOf",
                        "returnParams": [
                            {
                                "decimalAvailable": true,
                                "name": "",
                                "type": "uint256",
                                "value": "1,018"
                            }
                        ],
                        "signature": "balanceOf(address)"
                    },
                    "errorInfo": "",
                    "fromAddress": "0xaa873c9da6541f13c89416c17271b4c21bf7b2d7",
                    "gasUsed": 795,
                    "id": 17,
                    "methodDecoded": true,
                    "operation": "STATICCALL",
                    "output": "0x00000000000000000000000000000000000000000000000000000000000003fa",
                    "revert": false,
                    "revertMessage": "",
                    "selector": "0x70a08231",
                    "status": true,
                    "value": "0"
                },
                "nodeType": 0
            },
            "18": {
                "event": {
                    "contract": "0xaa873c9da6541f13c89416c17271b4c21bf7b2d7",
                    "decodedLog": {
                        "name": "Sync",
                        "params": [
                            {
                                "name": "reserve0",
                                "type": "uint112",
                                "value": "19,609,541,472,378,766,764"
                            },
                            {
                                "name": "reserve1",
                                "type": "uint112",
                                "value": "1,018"
                            }
                        ],
                        "signature": "Sync(uint112,uint112)"
                    },
                    "id": 18,
                    "logData": "0x00000000000000000000000000000000000000000000000110231612c56d45ac00000000000000000000000000000000000000000000000000000000000003fa",
                    "logDecoded": true,
                    "operation": "EVENT",
                    "revert": false,
                    "status": true,
                    "topics": [
                        "0x1c411e9a96e071241c2f21f7726b17ae89e3cab4c78be50e062b03a9fffbbad1"
                    ]
                },
                "nodeType": 1
            },
            "19": {
                "event": {
                    "contract": "0xaa873c9da6541f13c89416c17271b4c21bf7b2d7",
                    "decodedLog": {
                        "name": "Swap",
                        "params": [
                            {
                                "name": "sender",
                                "type": "address",
                                "value": "0x7a250d5630b4cf539739df2c5dacb4c659f2488d"
                            },
                            {
                                "name": "to",
                                "type": "address",
                                "value": "0x74934ae08c26b152100c8c9bd73c3765feb85b9c"
                            },
                            {
                                "name": "amount0In",
                                "type": "uint256",
                                "value": "19,609,538,406,666,292,000"
                            },
                            {
                                "name": "amount1In",
                                "type": "uint256",
                                "value": "0"
                            },
                            {
                                "name": "amount0Out",
                                "type": "uint256",
                                "value": "0"
                            },
                            {
                                "name": "amount1Out",
                                "type": "uint256",
                                "value": "6,490,569,353"
                            }
                        ],
                        "signature": "Swap(address,uint256,uint256,uint256,uint256,address)"
                    },
                    "id": 19,
                    "logData": "0x00000000000000000000000000000000000000000000000110231348fab94b20000000000000000000000000000000000000000000000000000000000000000000000000000000000000000000000000000000000000000000000000000000000000000000000000000000000000000000000000000000000000000182de3a89",
                    "logDecoded": true,
                    "operation": "EVENT",
                    "revert": false,
                    "status": true,
                    "topics": [
                        "0xd78ad95fa46c994b6551d0da85fc275fe613ce37657fb8d5e3d130840159d822",
                        "0x0000000000000000000000007a250d5630b4cf539739df2c5dacb4c659f2488d",
                        "0x00000000000000000000000074934ae08c26b152100c8c9bd73c3765feb85b9c"
                    ]
                },
                "nodeType": 1
            },
            "2": {
                "invocation": {
                    "address": "0x1f9840a85d5af5bf1d1762f925bdaddc4201f984",
                    "callData": "0x000000000000000000000000cacea2e65eb4f53f0d191c97def57c09ddab197500000000000000000000000074934ae08c26b152100c8c9bd73c3765feb85b9c00000000000000000000000000000000000000000000000110231348fab94b20",
                    "decodedMethod": {
                        "callParams": [
                            {
                                "name": "src",
                                "type": "address",
                                "value": "0xcacea2e65eb4f53f0d191c97def57c09ddab1975"
                            },
                            {
                                "name": "dst",
                                "type": "address",
                                "value": "0x74934ae08c26b152100c8c9bd73c3765feb85b9c"
                            },
                            {
                                "decimalAvailable": true,
                                "name": "rawAmount",
                                "type": "uint256",
                                "value": "19,609,538,406,666,292,000"
                            }
                        ],
                        "constructorArguments": "",
                        "name": "transferFrom",
                        "returnParams": [
                            {
                                "name": "",
                                "type": "bool",
                                "value": true
                            }
                        ],
                        "signature": "transferFrom(address,address,uint256)"
                    },
                    "errorInfo": "",
                    "fromAddress": "0x74934ae08c26b152100c8c9bd73c3765feb85b9c",
                    "gasUsed": 36111,
                    "id": 2,
                    "methodDecoded": true,
                    "operation": "CALL",
                    "output": "0x0000000000000000000000000000000000000000000000000000000000000001",
                    "revert": false,
                    "revertMessage": "",
                    "selector": "0x23b872dd",
                    "status": true,
                    "value": "0"
                },
                "nodeType": 0
            },
            "20": {
                "invocation": {
                    "address": "0x2260fac5e5542a773aa44fbcfedf7c193bc2c599",
                    "callData": "0x00000000000000000000000074934ae08c26b152100c8c9bd73c3765feb85b9c",
                    "decodedMethod": {
                        "callParams": [
                            {
                                "name": "_owner",
                                "type": "address",
                                "value": "0x74934ae08c26b152100c8c9bd73c3765feb85b9c"
                            }
                        ],
                        "constructorArguments": "",
                        "name": "balanceOf",
                        "returnParams": [
                            {
                                "decimalAvailable": true,
                                "name": "",
                                "type": "uint256",
                                "value": "6,490,569,353"
                            }
                        ],
                        "signature": "balanceOf(address)"
                    },
                    "errorInfo": "",
                    "fromAddress": "0x74934ae08c26b152100c8c9bd73c3765feb85b9c",
                    "gasUsed": 795,
                    "id": 20,
                    "methodDecoded": true,
                    "operation": "STATICCALL",
                    "output": "0x0000000000000000000000000000000000000000000000000000000182de3a89",
                    "revert": false,
                    "revertMessage": "",
                    "selector": "0x70a08231",
                    "status": true,
                    "value": "0"
                },
                "nodeType": 0
            },
            "21": {
                "invocation": {
                    "address": "0x2260fac5e5542a773aa44fbcfedf7c193bc2c599",
                    "callData": "0x000000000000000000000000cacea2e65eb4f53f0d191c97def57c09ddab19750000000000000000000000000000000000000000000000000000000182de3a89",
                    "decodedMethod": {
                        "callParams": [
                            {
                                "name": "_to",
                                "type": "address",
                                "value": "0xcacea2e65eb4f53f0d191c97def57c09ddab1975"
                            },
                            {
                                "decimalAvailable": true,
                                "name": "_value",
                                "type": "uint256",
                                "value": "6,490,569,353"
                            }
                        ],
                        "constructorArguments": "",
                        "name": "transfer",
                        "returnParams": [
                            {
                                "name": "",
                                "type": "bool",
                                "value": true
                            }
                        ],
                        "signature": "transfer(address,uint256)"
                    },
                    "errorInfo": "",
                    "fromAddress": "0x74934ae08c26b152100c8c9bd73c3765feb85b9c",
                    "gasUsed": 26003,
                    "id": 21,
                    "methodDecoded": true,
                    "operation": "CALL",
                    "output": "0x0000000000000000000000000000000000000000000000000000000000000001",
                    "revert": false,
                    "revertMessage": "",
                    "selector": "0xa9059cbb",
                    "status": true,
                    "value": "0"
                },
                "nodeType": 0
            },
            "22": {
                "event": {
                    "contract": "0x2260fac5e5542a773aa44fbcfedf7c193bc2c599",
                    "decodedLog": {
                        "name": "Transfer",
                        "params": [
                            {
                                "name": "from",
                                "type": "address",
                                "value": "0x74934ae08c26b152100c8c9bd73c3765feb85b9c"
                            },
                            {
                                "name": "to",
                                "type": "address",
                                "value": "0xcacea2e65eb4f53f0d191c97def57c09ddab1975"
                            },
                            {
                                "decimalAvailable": true,
                                "name": "value",
                                "type": "uint256",
                                "value": "6,490,569,353"
                            }
                        ],
                        "signature": "Transfer(address,address,uint256)"
                    },
                    "id": 22,
                    "logData": "0x0000000000000000000000000000000000000000000000000000000182de3a89",
                    "logDecoded": true,
                    "operation": "EVENT",
                    "revert": false,
                    "status": true,
                    "topics": [
                        "0xddf252ad1be2c89b69c2b068fc378daa952ba7f163c4a11628f55a4df523b3ef",
                        "0x00000000000000000000000074934ae08c26b152100c8c9bd73c3765feb85b9c",
                        "0x000000000000000000000000cacea2e65eb4f53f0d191c97def57c09ddab1975"
                    ]
                },
                "nodeType": 1
            },
            "3": {
                "event": {
                    "contract": "0x1f9840a85d5af5bf1d1762f925bdaddc4201f984",
                    "decodedLog": {
                        "name": "Transfer",
                        "params": [
                            {
                                "name": "from",
                                "type": "address",
                                "value": "0xcacea2e65eb4f53f0d191c97def57c09ddab1975"
                            },
                            {
                                "name": "to",
                                "type": "address",
                                "value": "0x74934ae08c26b152100c8c9bd73c3765feb85b9c"
                            },
                            {
                                "decimalAvailable": true,
                                "name": "amount",
                                "type": "uint256",
                                "value": "19,609,538,406,666,292,000"
                            }
                        ],
                        "signature": "Transfer(address,address,uint256)"
                    },
                    "id": 3,
                    "logData": "0x00000000000000000000000000000000000000000000000110231348fab94b20",
                    "logDecoded": true,
                    "operation": "EVENT",
                    "revert": false,
                    "status": true,
                    "topics": [
                        "0xddf252ad1be2c89b69c2b068fc378daa952ba7f163c4a11628f55a4df523b3ef",
                        "0x000000000000000000000000cacea2e65eb4f53f0d191c97def57c09ddab1975",
                        "0x00000000000000000000000074934ae08c26b152100c8c9bd73c3765feb85b9c"
                    ]
                },
                "nodeType": 1
            },
            "4": {
                "invocation": {
                    "address": "0x1f9840a85d5af5bf1d1762f925bdaddc4201f984",
                    "callData": "0x0000000000000000000000007a250d5630b4cf539739df2c5dacb4c659f2488d0000000000000000000000000000000000000000000000000000000000000000",
                    "decodedMethod": {
                        "callParams": [
                            {
                                "name": "spender",
                                "type": "address",
                                "value": "0x7a250d5630b4cf539739df2c5dacb4c659f2488d"
                            },
                            {
                                "decimalAvailable": true,
                                "name": "rawAmount",
                                "type": "uint256",
                                "value": "0"
                            }
                        ],
                        "constructorArguments": "",
                        "name": "approve",
                        "returnParams": [
                            {
                                "name": "",
                                "type": "bool",
                                "value": true
                            }
                        ],
                        "signature": "approve(address,uint256)"
                    },
                    "errorInfo": "",
                    "fromAddress": "0x74934ae08c26b152100c8c9bd73c3765feb85b9c",
                    "gasUsed": 5330,
                    "id": 4,
                    "methodDecoded": true,
                    "operation": "CALL",
                    "output": "0x0000000000000000000000000000000000000000000000000000000000000001",
                    "revert": false,
                    "revertMessage": "",
                    "selector": "0x095ea7b3",
                    "status": true,
                    "value": "0"
                },
                "nodeType": 0
            },
            "5": {
                "event": {
                    "contract": "0x1f9840a85d5af5bf1d1762f925bdaddc4201f984",
                    "decodedLog": {
                        "name": "Approval",
                        "params": [
                            {
                                "name": "owner",
                                "type": "address",
                                "value": "0x74934ae08c26b152100c8c9bd73c3765feb85b9c"
                            },
                            {
                                "name": "spender",
                                "type": "address",
                                "value": "0x7a250d5630b4cf539739df2c5dacb4c659f2488d"
                            },
                            {
                                "decimalAvailable": true,
                                "name": "amount",
                                "type": "uint256",
                                "value": "0"
                            }
                        ],
                        "signature": "Approval(address,address,uint256)"
                    },
                    "id": 5,
                    "logData": "0x0000000000000000000000000000000000000000000000000000000000000000",
                    "logDecoded": true,
                    "operation": "EVENT",
                    "revert": false,
                    "status": true,
                    "topics": [
                        "0x8c5be1e5ebec7d5bd14f71427d1e84f3dd0314c0f7b2291e5b200ac8c7c3b925",
                        "0x00000000000000000000000074934ae08c26b152100c8c9bd73c3765feb85b9c",
                        "0x0000000000000000000000007a250d5630b4cf539739df2c5dacb4c659f2488d"
                    ]
                },
                "nodeType": 1
            },
            "6": {
                "invocation": {
                    "address": "0x1f9840a85d5af5bf1d1762f925bdaddc4201f984",
                    "callData": "0x0000000000000000000000007a250d5630b4cf539739df2c5dacb4c659f2488d00000000000000000000000000000000000000000000000110231348fab94b20",
                    "decodedMethod": {
                        "callParams": [
                            {
                                "name": "spender",
                                "type": "address",
                                "value": "0x7a250d5630b4cf539739df2c5dacb4c659f2488d"
                            },
                            {
                                "decimalAvailable": true,
                                "name": "rawAmount",
                                "type": "uint256",
                                "value": "19,609,538,406,666,292,000"
                            }
                        ],
                        "constructorArguments": "",
                        "name": "approve",
                        "returnParams": [
                            {
                                "name": "",
                                "type": "bool",
                                "value": true
                            }
                        ],
                        "signature": "approve(address,uint256)"
                    },
                    "errorInfo": "",
                    "fromAddress": "0x74934ae08c26b152100c8c9bd73c3765feb85b9c",
                    "gasUsed": 23230,
                    "id": 6,
                    "methodDecoded": true,
                    "operation": "CALL",
                    "output": "0x0000000000000000000000000000000000000000000000000000000000000001",
                    "revert": false,
                    "revertMessage": "",
                    "selector": "0x095ea7b3",
                    "status": true,
                    "value": "0"
                },
                "nodeType": 0
            },
            "7": {
                "event": {
                    "contract": "0x1f9840a85d5af5bf1d1762f925bdaddc4201f984",
                    "decodedLog": {
                        "name": "Approval",
                        "params": [
                            {
                                "name": "owner",
                                "type": "address",
                                "value": "0x74934ae08c26b152100c8c9bd73c3765feb85b9c"
                            },
                            {
                                "name": "spender",
                                "type": "address",
                                "value": "0x7a250d5630b4cf539739df2c5dacb4c659f2488d"
                            },
                            {
                                "decimalAvailable": true,
                                "name": "amount",
                                "type": "uint256",
                                "value": "19,609,538,406,666,292,000"
                            }
                        ],
                        "signature": "Approval(address,address,uint256)"
                    },
                    "id": 7,
                    "logData": "0x00000000000000000000000000000000000000000000000110231348fab94b20",
                    "logDecoded": true,
                    "operation": "EVENT",
                    "revert": false,
                    "status": true,
                    "topics": [
                        "0x8c5be1e5ebec7d5bd14f71427d1e84f3dd0314c0f7b2291e5b200ac8c7c3b925",
                        "0x00000000000000000000000074934ae08c26b152100c8c9bd73c3765feb85b9c",
                        "0x0000000000000000000000007a250d5630b4cf539739df2c5dacb4c659f2488d"
                    ]
                },
                "nodeType": 1
            },
            "8": {
                "invocation": {
                    "address": "0x7a250d5630b4cf539739df2c5dacb4c659f2488d",
                    "callData": "0x00000000000000000000000000000000000000000000000110231348fab94b20000000000000000000000000000000000000000000000000000000000000000100000000000000000000000000000000000000000000000000000000000000a000000000000000000000000074934ae08c26b152100c8c9bd73c3765feb85b9c00000000000000000000000000000000000000000000000000000000642a101b00000000000000000000000000000000000000000000000000000000000000020000000000000000000000001f9840a85d5af5bf1d1762f925bdaddc4201f9840000000000000000000000002260fac5e5542a773aa44fbcfedf7c193bc2c599",
                    "decodedMethod": {
                        "callParams": [
                            {
                                "name": "amountIn",
                                "type": "uint256",
                                "value": "19,609,538,406,666,292,000"
                            },
                            {
                                "name": "amountOutMin",
                                "type": "uint256",
                                "value": "1"
                            },
                            {
                                "name": "path",
                                "type": "address[]",
                                "value": [
                                    "0x1f9840a85d5af5bf1d1762f925bdaddc4201f984",
                                    "0x2260fac5e5542a773aa44fbcfedf7c193bc2c599"
                                ]
                            },
                            {
                                "name": "to",
                                "type": "address",
                                "value": "0x74934ae08c26b152100c8c9bd73c3765feb85b9c"
                            },
                            {
                                "name": "deadline",
                                "type": "uint256",
                                "value": "1,680,478,235"
                            }
                        ],
                        "constructorArguments": "",
                        "name": "swapExactTokensForTokens",
                        "returnParams": [
                            {
                                "name": "amounts",
                                "type": "uint256[]",
                                "value": [
                                    "19,609,538,406,666,292,000",
                                    "6,490,569,353"
                                ]
                            }
                        ],
                        "signature": "swapExactTokensForTokens(uint256,uint256,address[],address,uint256)"
                    },
                    "errorInfo": "",
                    "fromAddress": "0x74934ae08c26b152100c8c9bd73c3765feb85b9c",
                    "gasUsed": 85289,
                    "id": 8,
                    "methodDecoded": true,
                    "operation": "CALL",
                    "output": "0x0000000000000000000000000000000000000000000000000000000000000020000000000000000000000000000000000000000000000000000000000000000200000000000000000000000000000000000000000000000110231348fab94b200000000000000000000000000000000000000000000000000000000182de3a89",
                    "revert": false,
                    "revertMessage": "",
                    "selector": "0x38ed1739",
                    "status": true,
                    "value": "0"
                },
                "nodeType": 0
            },
            "9": {
                "invocation": {
                    "address": "0xaa873c9da6541f13c89416c17271b4c21bf7b2d7",
                    "callData": "0x",
                    "decodedMethod": {
                        "callParams": [],
                        "constructorArguments": "",
                        "name": "getReserves",
                        "returnParams": [
                            {
                                "name": "_reserve0",
                                "type": "uint112",
                                "value": "3,065,712,474,764"
                            },
                            {
                                "name": "_reserve1",
                                "type": "uint112",
                                "value": "6,490,570,371"
                            },
                            {
                                "name": "_blockTimestampLast",
                                "type": "uint32",
                                "value": "1,680,478,175"
                            }
                        ],
                        "signature": "getReserves()"
                    },
                    "errorInfo": "",
                    "fromAddress": "0x7a250d5630b4cf539739df2c5dacb4c659f2488d",
                    "gasUsed": 2504,
                    "id": 9,
                    "methodDecoded": true,
                    "operation": "STATICCALL",
                    "output": "0x000000000000000000000000000000000000000000000000000002c9cab3fa8c0000000000000000000000000000000000000000000000000000000182de3e8300000000000000000000000000000000000000000000000000000000642a0fdf",
                    "revert": false,
                    "revertMessage": "",
                    "selector": "0x0902f1ac",
                    "status": true,
                    "value": "0"
                },
                "nodeType": 0
            }
        },
        "gasFlame": [
            {
                "children": [
                    {
                        "children": [
                            {
                                "children": [],
                                "depth": 0,
                                "name": "Initial Gas",
                                "value": 21800
                            },
                            {
                                "children": [
                                    {
                                        "children": [],
                                        "depth": 1,
                                        "name": "balanceOf",
                                        "value": 2797
                                    },
                                    {
                                        "children": [],
                                        "depth": 1,
                                        "name": "transferFrom",
                                        "value": 36111
                                    },
                                    {
                                        "children": [],
                                        "depth": 1,
                                        "name": "approve",
                                        "value": 5330
                                    },
                                    {
                                        "children": [],
                                        "depth": 1,
                                        "name": "approve",
                                        "value": 23230
                                    },
                                    {
                                        "children": [
                                            {
                                                "children": [],
                                                "depth": 2,
                                                "name": "getReserves",
                                                "value": 2504
                                            },
                                            {
                                                "children": [],
                                                "depth": 2,
                                                "name": "transferFrom",
                                                "value": 14734
                                            },
                                            {
                                                "children": [
                                                    {
                                                        "children": [],
                                                        "depth": 3,
                                                        "name": "transfer",
                                                        "value": 32803
                                                    },
                                                    {
                                                        "children": [],
                                                        "depth": 3,
                                                        "name": "balanceOf",
                                                        "value": 797
                                                    },
                                                    {
                                                        "children": [],
                                                        "depth": 3,
                                                        "name": "balanceOf",
                                                        "value": 795
                                                    }
                                                ],
                                                "depth": 2,
                                                "name": "swap",
                                                "value": 57802
                                            }
                                        ],
                                        "depth": 1,
                                        "name": "swapExactTokensForTokens",
                                        "value": 85289
                                    },
                                    {
                                        "children": [],
                                        "depth": 1,
                                        "name": "balanceOf",
                                        "value": 795
                                    },
                                    {
                                        "children": [],
                                        "depth": 1,
                                        "name": "transfer",
                                        "value": 26003
                                    }
                                ],
                                "depth": 0,
                                "name": "Executed Gas",
                                "value": 192135
                            }
                        ],
                        "depth": -1,
                        "name": "Actual Gas Used",
                        "value": 171148
                    },
                    {
                        "children": [],
                        "depth": -1,
                        "name": "Refunded Gas",
                        "value": 42787
                    }
                ],
                "depth": -2,
                "name": "Total Gas",
                "value": 213935
            }
        ],
        "isConfirmed": true,
        "mainTrace": [
            {
                "children": [
                    {
                        "children": [
                            {
                                "children": [],
                                "depth": 1,
                                "id": 1,
                                "order": 1
                            },
                            {
                                "children": [
                                    {
                                        "children": [],
                                        "depth": 2,
                                        "id": 3,
                                        "order": 3
                                    }
                                ],
                                "depth": 1,
                                "id": 2,
                                "order": 2
                            },
                            {
                                "children": [
                                    {
                                        "children": [],
                                        "depth": 2,
                                        "id": 5,
                                        "order": 5
                                    }
                                ],
                                "depth": 1,
                                "id": 4,
                                "order": 4
                            },
                            {
                                "children": [
                                    {
                                        "children": [],
                                        "depth": 2,
                                        "id": 7,
                                        "order": 7
                                    }
                                ],
                                "depth": 1,
                                "id": 6,
                                "order": 6
                            },
                            {
                                "children": [
                                    {
                                        "children": [],
                                        "depth": 2,
                                        "id": 9,
                                        "order": 9
                                    },
                                    {
                                        "children": [
                                            {
                                                "children": [],
                                                "depth": 3,
                                                "id": 11,
                                                "order": 11
                                            },
                                            {
                                                "children": [],
                                                "depth": 3,
                                                "id": 12,
                                                "order": 12
                                            }
                                        ],
                                        "depth": 2,
                                        "id": 10,
                                        "order": 10
                                    },
                                    {
                                        "children": [
                                            {
                                                "children": [
                                                    {
                                                        "children": [],
                                                        "depth": 4,
                                                        "id": 15,
                                                        "order": 15
                                                    }
                                                ],
                                                "depth": 3,
                                                "id": 14,
                                                "order": 14
                                            },
                                            {
                                                "children": [],
                                                "depth": 3,
                                                "id": 16,
                                                "order": 16
                                            },
                                            {
                                                "children": [],
                                                "depth": 3,
                                                "id": 17,
                                                "order": 17
                                            },
                                            {
                                                "children": [],
                                                "depth": 3,
                                                "id": 18,
                                                "order": 18
                                            },
                                            {
                                                "children": [],
                                                "depth": 3,
                                                "id": 19,
                                                "order": 19
                                            }
                                        ],
                                        "depth": 2,
                                        "id": 13,
                                        "order": 13
                                    }
                                ],
                                "depth": 1,
                                "id": 8,
                                "order": 8
                            },
                            {
                                "children": [],
                                "depth": 1,
                                "id": 20,
                                "order": 20
                            },
                            {
                                "children": [
                                    {
                                        "children": [],
                                        "depth": 2,
                                        "id": 22,
                                        "order": 22
                                    }
                                ],
                                "depth": 1,
                                "id": 21,
                                "order": 21
                            }
                        ],
                        "depth": 0,
                        "id": 0,
                        "order": 0
                    }
                ],
                "depth": -1,
                "id": -1,
                "order": -1
            }
        ],
        "mainTraceNodeCount": 23,
        "parentIdMap": {
            "0": -1,
            "1": 0,
            "10": 8,
            "11": 10,
            "12": 10,
            "13": 8,
            "14": 13,
            "15": 14,
            "16": 13,
            "17": 13,
            "18": 13,
            "19": 13,
            "2": 0,
            "20": 0,
            "21": 0,
            "22": 21,
            "3": 2,
            "4": 0,
            "5": 4,
            "6": 0,
            "7": 6,
            "8": 0,
            "9": 8
        },
        "tidyTrace": [
            {
                "children": [
                    {
                        "children": [
                            {
                                "children": [
                                    {
                                        "children": [],
                                        "depth": 2,
                                        "id": 3,
                                        "order": 3
                                    }
                                ],
                                "depth": 1,
                                "id": 2,
                                "order": 2
                            },
                            {
                                "children": [
                                    {
                                        "children": [],
                                        "depth": 2,
                                        "id": 5,
                                        "order": 5
                                    }
                                ],
                                "depth": 1,
                                "id": 4,
                                "order": 4
                            },
                            {
                                "children": [
                                    {
                                        "children": [],
                                        "depth": 2,
                                        "id": 7,
                                        "order": 7
                                    }
                                ],
                                "depth": 1,
                                "id": 6,
                                "order": 6
                            },
                            {
                                "children": [
                                    {
                                        "children": [
                                            {
                                                "children": [],
                                                "depth": 3,
                                                "id": 11,
                                                "order": 11
                                            },
                                            {
                                                "children": [],
                                                "depth": 3,
                                                "id": 12,
                                                "order": 12
                                            }
                                        ],
                                        "depth": 2,
                                        "id": 10,
                                        "order": 10
                                    },
                                    {
                                        "children": [
                                            {
                                                "children": [
                                                    {
                                                        "children": [],
                                                        "depth": 4,
                                                        "id": 15,
                                                        "order": 15
                                                    }
                                                ],
                                                "depth": 3,
                                                "id": 14,
                                                "order": 14
                                            },
                                            {
                                                "children": [],
                                                "depth": 3,
                                                "id": 18,
                                                "order": 18
                                            },
                                            {
                                                "children": [],
                                                "depth": 3,
                                                "id": 19,
                                                "order": 19
                                            }
                                        ],
                                        "depth": 2,
                                        "id": 13,
                                        "order": 13
                                    }
                                ],
                                "depth": 1,
                                "id": 8,
                                "order": 8
                            },
                            {
                                "children": [
                                    {
                                        "children": [],
                                        "depth": 2,
                                        "id": 22,
                                        "order": 22
                                    }
                                ],
                                "depth": 1,
                                "id": 21,
                                "order": 21
                            }
                        ],
                        "depth": 0,
                        "id": 0,
                        "order": 0
                    }
                ],
                "depth": -1,
                "id": -1,
                "order": -1
            }
        ],
        "tidyTraceNodeCount": 18
    },
    "state_change": {
        "stateChanges": [
            {
                "address": "0x1f9840a85d5af5bf1d1762f925bdaddc4201f984",
                "erc": "ERC-20",
                "slots": [
                    {
                        "current": "0x00000000000000000000000000000000000000000000000110231612c56d45ac",
                        "key": "0x2c7cf05fe41a2a178e7ee8b4c5d53edeb2e2bbb16aeb509c8751d3ff0b1eaac3",
                        "prev": "0x000000000000000000000000000000000000000000000000000002c9cab3fa8c"
                    },
                    {
                        "current": "0x0000000000000000000000000000000000000000000000000000000000000000",
                        "key": "0xde4240ccfb1322e4e0dc27401c48013b31ef361c9f2b43ab974a60defc43d7d5",
                        "prev": "0x00000000000000000000000000000000000000000000000110231348fab94b20"
                    }
                ],
                "storageVariables": [
                    {
                        "name": "balances",
                        "type": "mapping(address => uint96)",
                        "value": {
                            "pairs": [
                                {
                                    "key": "0xaa873c9da6541f13c89416c17271b4c21bf7b2d7",
                                    "value": {
                                        "current": "19609541472378766764",
                                        "prev": "3065712474764",
                                        "typeTag": 1
                                    }
                                },
                                {
                                    "key": "0xcacea2e65eb4f53f0d191c97def57c09ddab1975",
                                    "value": {
                                        "current": "0",
                                        "prev": "19609538406666292000",
                                        "typeTag": 1
                                    }
                                }
                            ],
                            "typeTag": 4
                        }
                    }
                ]
            },
            {
                "address": "0x2260fac5e5542a773aa44fbcfedf7c193bc2c599",
                "erc": "ERC-20",
                "slots": [
                    {
                        "current": "0x00000000000000000000000000000000000000000000000000000000000003fa",
                        "key": "0x7cca65db13c40823369f6faf5c4749f9b946d847ba8568bb3fea5a0366556457",
                        "prev": "0x0000000000000000000000000000000000000000000000000000000182de3e83"
                    },
                    {
                        "current": "0x0000000000000000000000000000000000000000000000000000000182de3a89",
                        "key": "0x6a7b116b9226a51d2f384d75b8881ccde6940c027a78ab3f611897e5d40eab9c",
                        "prev": "0x0000000000000000000000000000000000000000000000000000000000000000"
                    }
                ],
                "storageVariables": [
                    {
                        "name": "balances",
                        "type": "mapping(address => uint256)",
                        "value": {
                            "pairs": [
                                {
                                    "key": "0xaa873c9da6541f13c89416c17271b4c21bf7b2d7",
                                    "value": {
                                        "current": "1018",
                                        "prev": "6490570371",
                                        "typeTag": 1
                                    }
                                },
                                {
                                    "key": "0xcacea2e65eb4f53f0d191c97def57c09ddab1975",
                                    "value": {
                                        "current": "6490569353",
                                        "prev": "0",
                                        "typeTag": 1
                                    }
                                }
                            ],
                            "typeTag": 4
                        }
                    }
                ]
            },
            {
                "address": "0xaa873c9da6541f13c89416c17271b4c21bf7b2d7",
                "erc": "ERC-20",
                "slots": [
                    {
                        "current": "0x642a0fdf00000000000000000000000003fa00000000000110231612c56d45ac",
                        "key": "0x0000000000000000000000000000000000000000000000000000000000000008",
                        "prev": "0x642a0fdf0000000000000000000182de3e83000000000000000002c9cab3fa8c"
                    }
                ],
                "storageVariables": [
                    {
                        "name": "reserve0",
                        "type": "uint112",
                        "value": {
                            "current": "19609541472378766764",
                            "prev": "3065712474764",
                            "typeTag": 1
                        }
                    },
                    {
                        "name": "reserve1",
                        "type": "uint112",
                        "value": {
                            "current": "1018",
                            "prev": "6490570371",
                            "typeTag": 1
                        }
                    },
                    {
                        "name": "blockTimestampLast",
                        "type": "uint32",
                        "value": {
                            "current": "1680478175",
                            "prev": "1680478175",
                            "typeTag": 1
                        }
                    }
                ]
            }
        ]
    }
}