{
    "balance_change": {
        "balanceChanges": [
            {
                "account": "0xa8c83b1b30291a3a1a118058b5445cc83041cd9d",
                "assets": [
                    {
                        "address": "0x2260fac5e5542a773aa44fbcfedf7c193bc2c599",
                        "amount": "100",
                        "iconUrl": "https://assets.blocksec.com/icon/878f2983cb21c5816eb5879d9b6f7a3fe2eb6fce7560c367a0315527852a8a84.png",
                        "isERC1155": false,
                        "isERC721": false,
                        "sign": true,
                        "value": "2304266.6955000000598"
                    }
                ]
            },
            {
                "account": "0x88a69b4e698a4b090df6cf5bd7b2d47325ad30a3",
                "assets": [
                    {
                        "address": "0x2260fac5e5542a773aa44fbcfedf7c193bc2c599",
                        "amount": "100",
                        "iconUrl": "https://assets.blocksec.com/icon/878f2983cb21c5816eb5879d9b6f7a3fe2eb6fce7560c367a0315527852a8a84.png",
                        "isERC1155": false,
                        "isERC721": false,
                        "sign": false,
                        "value": "2304266.6955000000598"
                    }
                ]
            }
        ]
    },
    "profile": {
        "basic_info": {
            "baseFee": "17.78543434",
            "blockNumber": 15259101,
            "callData": "0x928bc4b2000000000000000000000000000000000000000000000000000000000000002000000000000000000000000000000000000000000000000000000000000000d16265616d000000000000000000000000d3dfd3ede74e0dcebc1aa685e151332857efce2d000013d60065746800000000000000000000000088a69b4e698a4b090df6cf5bd7b2d47325ad30a3006574680000000000000000000000002260fac5e5542a773aa44fbcfedf7c193bc2c59903000000000000000000000000a8c83b1b30291a3a1a118058b5445cc83041cd9d00000000000000000000000000000000000000000000000000000002540be400e6e85ded018819209cfb948d074cb65de145734b5b0852e4a5db25cac2b8c39a000000000000000000000000000000",
            "debugEnable": true,
            "errorInfo": "",
            "eventCount": 3,
            "feeRecipient": "0xb7e390864a90b7b923c9f9310c6f98aafe43f707",
            "formatValue": "0",
            "gasLimit": 266191,
            "gasPrice": "19.28543434",
            "gasUsed": 170294,
            "intTxnCount": 18,
            "internalRevert": false,
            "internalRevertMessage": "",
            "isContractCreation": false,
            "isFlashloan": false,
            "maxFee": "21.856414022",
            "nonce": 4035,
            "overwritedBlockNumber": -1,
            "priorityFee": "1.5",
            "receiver": "0x5d94309e5a0090b165fa4181519701637b6daeba",
            "revertMessage": "",
            "sender": "0xa8c83b1b30291a3a1a118058b5445cc83041cd9d",
            "simulationEnable": true,
            "sourceTxnHash": "0xa5fe9d044e4f3e5aa5bc4c0709333cd2190cba0f4e7f16bcf73f49f83e4a5460",
            "status": true,
            "timestamp": "2022-08-01T21:32:31Z",
            "transactionFee": "0.00328419375549596",
            "txnHash": "0xa5fe9d044e4f3e5aa5bc4c0709333cd2190cba0f4e7f16bcf73f49f83e4a5460",
            "txnIndex": 124,
            "type": 2,
            "value": "0"
        },
        "fund_flow": [
            {
                "amount": "100",
                "from": "0x88a69b4e698a4b090df6cf5bd7b2d47325ad30a3",
                "id": 1,
                "isERC1155": false,
                "isERC721": false,
                "isReverted": false,
                "order": 1,
                "to": "0xa8c83b1b30291a3a1a118058b5445cc83041cd9d",
                "token": "0x2260fac5e5542a773aa44fbcfedf7c193bc2c599"
            }
        ],
        "token_infos": [
            {
                "address": "0x2260fac5e5542a773aa44fbcfedf7c193bc2c599",
                "decimals": 8
            },
            {
                "address": "0xc02aaa39b223fe8d0a0e5c4f27ead9083c756cc2",
                "decimals": 18
            },
            {
                "address": "0xeeeeeeeeeeeeeeeeeeeeeeeeeeeeeeeeeeeeeeee",
                "decimals": 18
            }
        ]
    },
    "address_label": {
        "labels": [
            {
                "address": "0x0876dfe4acae0e1c0a43302716483f5752298b71",
                "label": "X\ufffd\ufffd\u06d6\ufffd\ufffd\ufffd\ufffd-\ufffd\ufffd~\ufffd\ufffd (X\ufffd\ufffd\u06d6\ufffd\ufffd\ufffd\ufffd-...)"
            },
            {
                "address": "0xb70588b1a51f847d13158ff18e9cac861df5fb00",
                "label": "\ufffd\ufffd\ufffd\ufffd\ufffdN\u03bc\ufffd\ufffd\ufffdQ3(W\ufffd\ufffd- (\ufffd\ufffd\ufffd\ufffd\ufffdN\u03bc\ufffd\ufffd...)"
            },
            {
                "address": "0x0000000000000000000000000000000000000004",
                "label": "Precompiled"
            },
            {
                "address": "0xa8c83b1b30291a3a1a118058b5445cc83041cd9d",
                "label": "Nomad Bridge Exploiter 385"
            },
            {
                "address": "0x92d3404a7e6c91455bbd81475cd9fad96acff4c8",
                "label": "0x92d3_UpgradeBeaconProxy"
            },
            {
                "address": "0x0000000000000000000000000000000000000002",
                "label": "Precompiled"
            },
            {
                "address": "0x063e871f8db991cead34b557a00b157b360084cc",
                "label": "\ufffdMj\ufffd\ufffd\ufffd\ufffd\ufffdC\ufffd\ufffd\\\ufffd\ufffd[o (\ufffdMj\ufffd\ufffd\ufffd\ufffd\ufffdC...)"
            },
            {
                "address": "0x15fda9f60310d09fea54e3c99d1197dff5107248",
                "label": "BridgeRouter"
            },
            {
                "address": "0x4d5ff8a01ed833e11aba43821d2881a5f2911f98",
                "label": "\ufffd\ufffd\ufffd\ufffd\ufffdF\ufffdl:w\ufffdnC\ufffd\ufffd\\ (\ufffd\ufffd\ufffd\ufffd\ufffdF\ufffdl:...)"
            },
            {
                "address": "0x2260fac5e5542a773aa44fbcfedf7c193bc2c599",
                "label": "Wrapped BTC: WBTC Token"
            },
            {
                "address": "0x0000000000000000000000000000000000000001",
                "label": "Precompiled"
            },
            {
                "address": "0x1f98fdc4d8d0806eb3902d57df7a2183b333b80c",
                "label": "Home"
            },
            {
                "address": "0xb92336759618f55bd0f8313bd843604592e27bd8",
                "label": "Replica"
            },
            {
                "address": "0xc1fae48ae1225fce8698503d5bb1378db5ce14f6",
                "label": "TokenRegistry"
            },
            {
                "address": "0x5d94309e5a0090b165fa4181519701637b6daeba",
                "label": "0x5d94_UpgradeBeaconProxy"
            },
            {
                "address": "0x0000000000000000000000000000000000000003",
                "label": "Precompiled"
            },
            {
                "address": "0xeeeeeeeeeeeeeeeeeeeeeeeeeeeeeeeeeeeeeeee",
                "label": "Ether"
            },
            {
                "address": "0x88a69b4e698a4b090df6cf5bd7b2d47325ad30a3",
                "label": "Nomad: ERC20 Bridge"
            },
            {
                "address": "0x0a6f564c5c9bebd66f1595f1b51d1f3de6ef3b79",
                "label": "0x0a6f_UpgradeBeaconProxy"
            },
            {
                "address": "0xfe8874778f946ac2990a29eba3cfd50760593b2f",
                "label": "XAppConnectionManager"
            }
        ]
    },
    "trace": {
        "accountLabels": null,
        "dataMap": {
            "-1": {
                "invocation": {
                    "address": "0xa8c83b1b30291a3a1a118058b5445cc83041cd9d",
                    "callData": "",
                    "decodedMethod": null,
                    "errorInfo": "",
                    "fromAddress": "",
                    "gasUsed": 0,
                    "id": -1,
                    "methodDecoded": false,
                    "operation": "",
                    "output": "",
                    "revert": false,
                    "revertMessage": "",
                    "selector": "",
                    "status": false,
                    "value": ""
                },
                "nodeType": 0
            },
            "0": {
                "invocation": {
                    "address": "0x5d94309e5a0090b165fa4181519701637b6daeba",
                    "callData": "0x000000000000000000000000000000000000000000000000000000000000002000000000000000000000000000000000000000000000000000000000000000d16265616d000000000000000000000000d3dfd3ede74e0dcebc1aa685e151332857efce2d000013d60065746800000000000000000000000088a69b4e698a4b090df6cf5bd7b2d47325ad30a3006574680000000000000000000000002260fac5e5542a773aa44fbcfedf7c193bc2c59903000000000000000000000000a8c83b1b30291a3a1a118058b5445cc83041cd9d00000000000000000000000000000000000000000000000000000002540be400e6e85ded018819209cfb948d074cb65de145734b5b0852e4a5db25cac2b8c39a000000000000000000000000000000",
                    "decodedMethod": {
                        "callParams": [
                            {
                                "name": "_message",
                                "type": "bytes",
                                "value": "0x6265616d000000000000000000000000d3dfd3ede74e0dcebc1aa685e151332857efce2d000013d60065746800000000000000000000000088a69b4e698a4b090df6cf5bd7b2d47325ad30a3006574680000000000000000000000002260fac5e5542a773aa44fbcfedf7c193bc2c59903000000000000000000000000a8c83b1b30291a3a1a118058b5445cc83041cd9d00000000000000000000000000000000000000000000000000000002540be400e6e85ded018819209cfb948d074cb65de145734b5b0852e4a5db25cac2b8c39a"
                            }
                        ],
                        "constructorArguments": "",
                        "name": "process",
                        "returnParams": [
                            {
                                "name": "_success",
                                "type": "bool",
                                "value": true
                            }
                        ],
                        "signature": "process(bytes)"
                    },
                    "errorInfo": "",
                    "fromAddress": "0xa8c83b1b30291a3a1a118058b5445cc83041cd9d",
                    "gasUsed": 170294,
                    "id": 0,
                    "methodDecoded": true,
                    "operation": "CALL",
                    "output": "0x0000000000000000000000000000000000000000000000000000000000000001",
                    "revert": false,
                    "revertMessage": "",
                    "selector": "0x928bc4b2",
                    "status": true,
                    "value": "0"
                },
                "nodeType": 0
            },
            "1": {
                "invocation": {
                    "address": "0x0876dfe4acae0e1c0a43302716483f5752298b71",
                    "callData": "0x",
                    "decodedMethod": null,
                    "errorInfo": "",
                    "fromAddress": "0x5d94309e5a0090b165fa4181519701637b6daeba",
                    "gasUsed": 2160,
                    "id": 1,
                    "methodDecoded": false,
                    "operation": "STATICCALL",
                    "output": "0x000000000000000000000000b92336759618f55bd0f8313bd843604592e27bd8",
                    "revert": false,
                    "revertMessage": "",
                    "selector": "fallback",
                    "status": true,
                    "value": "0"
                },
                "nodeType": 0
            },
            "10": {
                "invocation": {
                    "address": "0xc1fae48ae1225fce8698503d5bb1378db5ce14f6",
                    "callData": "0x00000000000000000000000000000000000000000000000000000000006574680000000000000000000000002260fac5e5542a773aa44fbcfedf7c193bc2c599",
                    "decodedMethod": {
                        "callParams": [
                            {
                                "name": "_domain",
                                "type": "uint32",
                                "value": "6,648,936"
                            },
                            {
                                "name": "_id",
                                "type": "bytes32",
                                "value": "0x0000000000000000000000002260fac5e5542a773aa44fbcfedf7c193bc2c599"
                            }
                        ],
                        "constructorArguments": "",
                        "name": "ensureLocalToken",
                        "returnParams": [
                            {
                                "name": "_local",
                                "type": "address",
                                "value": "0x2260fac5e5542a773aa44fbcfedf7c193bc2c599"
                            }
                        ],
                        "signature": "ensureLocalToken(uint32,bytes32)"
                    },
                    "errorInfo": "",
                    "fromAddress": "0x0a6f564c5c9bebd66f1595f1b51d1f3de6ef3b79",
                    "gasUsed": 18616,
                    "id": 10,
                    "methodDecoded": true,
                    "operation": "DELEGATECALL",
                    "output": "0x0000000000000000000000002260fac5e5542a773aa44fbcfedf7c193bc2c599",
                    "revert": false,
                    "revertMessage": "",
                    "selector": "0xb869d89a",
                    "status": true,
                    "value": "0"
                },
                "nodeType": 0
            },
            "11": {
                "invocation": {
                    "address": "0xfe8874778f946ac2990a29eba3cfd50760593b2f",
                    "callData": "0x",
                    "decodedMethod": {
                        "callParams": [],
                        "constructorArguments": "",
                        "name": "localDomain",
                        "returnParams": [
                            {
                                "name": "",
                                "type": "uint32",
                                "value": "6,648,936"
                            }
                        ],
                        "signature": "localDomain()"
                    },
                    "errorInfo": "",
                    "fromAddress": "0x0a6f564c5c9bebd66f1595f1b51d1f3de6ef3b79",
                    "gasUsed": 13388,
                    "id": 11,
                    "methodDecoded": true,
                    "operation": "STATICCALL",
                    "output": "0x0000000000000000000000000000000000000000000000000000000000657468",
                    "revert": false,
                    "revertMessage": "",
                    "selector": "0x8d3638f4",
                    "status": true,
                    "value": "0"
                },
                "nodeType": 0
            },
            "12": {
                "invocation": {
                    "address": "0x92d3404a7e6c91455bbd81475cd9fad96acff4c8",
                    "callData": "0x",
                    "decodedMethod": {
                        "callParams": [],
                        "constructorArguments": "",
                        "name": "localDomain",
                        "returnParams": [
                            {
                                "name": "",
                                "type": "uint32",
                                "value": "6,648,936"
                            }
                        ],
                        "signature": "localDomain()"
                    },
                    "errorInfo": "",
                    "fromAddress": "0xfe8874778f946ac2990a29eba3cfd50760593b2f",
                    "gasUsed": 8119,
                    "id": 12,
                    "methodDecoded": true,
                    "operation": "STATICCALL",
                    "output": "0x0000000000000000000000000000000000000000000000000000000000657468",
                    "revert": false,
                    "revertMessage": "",
                    "selector": "0x8d3638f4",
                    "status": true,
                    "value": "0"
                },
                "nodeType": 0
            },
            "13": {
                "invocation": {
                    "address": "0x063e871f8db991cead34b557a00b157b360084cc",
                    "callData": "0x",
                    "decodedMethod": null,
                    "errorInfo": "",
                    "fromAddress": "0x92d3404a7e6c91455bbd81475cd9fad96acff4c8",
                    "gasUsed": 2160,
                    "id": 13,
                    "methodDecoded": false,
                    "operation": "STATICCALL",
                    "output": "0x0000000000000000000000001f98fdc4d8d0806eb3902d57df7a2183b333b80c",
                    "revert": false,
                    "revertMessage": "",
                    "selector": "fallback",
                    "status": true,
                    "value": "0"
                },
                "nodeType": 0
            },
            "14": {
                "invocation": {
                    "address": "0x1f98fdc4d8d0806eb3902d57df7a2183b333b80c",
                    "callData": "0x",
                    "decodedMethod": {
                        "callParams": [],
                        "constructorArguments": "",
                        "name": "localDomain",
                        "returnParams": [
                            {
                                "name": "",
                                "type": "uint32",
                                "value": "6,648,936"
                            }
                        ],
                        "signature": "localDomain()"
                    },
                    "errorInfo": "",
                    "fromAddress": "0x92d3404a7e6c91455bbd81475cd9fad96acff4c8",
                    "gasUsed": 297,
                    "id": 14,
                    "methodDecoded": true,
                    "operation": "DELEGATECALL",
                    "output": "0x0000000000000000000000000000000000000000000000000000000000657468",
                    "revert": false,
                    "revertMessage": "",
                    "selector": "0x8d3638f4",
                    "status": true,
                    "value": "0"
                },
                "nodeType": 0
            },
            "15": {
                "invocation": {
                    "address": "0x0a6f564c5c9bebd66f1595f1b51d1f3de6ef3b79",
                    "callData": "0x0000000000000000000000002260fac5e5542a773aa44fbcfedf7c193bc2c599",
                    "decodedMethod": {
                        "callParams": [
                            {
                                "name": "_token",
                                "type": "address",
                                "value": "0x2260fac5e5542a773aa44fbcfedf7c193bc2c599"
                            }
                        ],
                        "constructorArguments": "",
                        "name": "isLocalOrigin",
                        "returnParams": [
                            {
                                "name": "",
                                "type": "bool",
                                "value": true
                            }
                        ],
                        "signature": "isLocalOrigin(address)"
                    },
                    "errorInfo": "",
                    "fromAddress": "0x88a69b4e698a4b090df6cf5bd7b2d47325ad30a3",
                    "gasUsed": 5981,
                    "id": 15,
                    "methodDecoded": true,
                    "operation": "STATICCALL",
                    "output": "0x0000000000000000000000000000000000000000000000000000000000000001",
                    "revert": false,
                    "revertMessage": "",
                    "selector": "0xc86415cb",
                    "status": true,
                    "value": "0"
                },
                "nodeType": 0
            },
            "16": {
                "invocation": {
                    "address": "0x4d5ff8a01ed833e11aba43821d2881a5f2911f98",
                    "callData": "0x",
                    "decodedMethod": null,
                    "errorInfo": "",
                    "fromAddress": "0x0a6f564c5c9bebd66f1595f1b51d1f3de6ef3b79",
                    "gasUsed": 160,
                    "id": 16,
                    "methodDecoded": false,
                    "operation": "STATICCALL",
                    "output": "0x000000000000000000000000c1fae48ae1225fce8698503d5bb1378db5ce14f6",
                    "revert": false,
                    "revertMessage": "",
                    "selector": "fallback",
                    "status": true,
                    "value": "0"
                },
                "nodeType": 0
            },
            "17": {
                "invocation": {
                    "address": "0xc1fae48ae1225fce8698503d5bb1378db5ce14f6",
                    "callData": "0x0000000000000000000000002260fac5e5542a773aa44fbcfedf7c193bc2c599",
                    "decodedMethod": {
                        "callParams": [
                            {
                                "name": "_token",
                                "type": "address",
                                "value": "0x2260fac5e5542a773aa44fbcfedf7c193bc2c599"
                            }
                        ],
                        "constructorArguments": "",
                        "name": "isLocalOrigin",
                        "returnParams": [
                            {
                                "name": "",
                                "type": "bool",
                                "value": true
                            }
                        ],
                        "signature": "isLocalOrigin(address)"
                    },
                    "errorInfo": "",
                    "fromAddress": "0x0a6f564c5c9bebd66f1595f1b51d1f3de6ef3b79",
                    "gasUsed": 5156,
                    "id": 17,
                    "methodDecoded": true,
                    "operation": "DELEGATECALL",
                    "output": "0x0000000000000000000000000000000000000000000000000000000000000001",
                    "revert": false,
                    "revertMessage": "",
                    "selector": "0xc86415cb",
                    "status": true,
                    "value": "0"
                },
                "nodeType": 0
            },
            "18": {
                "invocation": {
                    "address": "0x2260fac5e5542a773aa44fbcfedf7c193bc2c599",
                    "callData": "0x000000000000000000000000a8c83b1b30291a3a1a118058b5445cc83041cd9d00000000000000000000000000000000000000000000000000000002540be400",
                    "decodedMethod": {
                        "callParams": [
                            {
                                "name": "_to",
                                "type": "address",
                                "value": "0xa8c83b1b30291a3a1a118058b5445cc83041cd9d"
                            },
                            {
                                "decimalAvailable": true,
                                "name": "_value",
                                "type": "uint256",
                                "value": "10,000,000,000"
                            }
                        ],
                        "constructorArguments": "",
                        "name": "transfer",
                        "returnParams": [
                            {
                                "name": "",
                                "type": "bool",
                                "value": true
                            }
                        ],
                        "signature": "transfer(address,uint256)"
                    },
                    "errorInfo": "",
                    "fromAddress": "0x88a69b4e698a4b090df6cf5bd7b2d47325ad30a3",
                    "gasUsed": 32803,
                    "id": 18,
                    "methodDecoded": true,
                    "operation": "CALL",
                    "output": "0x0000000000000000000000000000000000000000000000000000000000000001",
                    "revert": false,
                    "revertMessage": "",
                    "selector": "0xa9059cbb",
                    "status": true,
                    "value": "0"
                },
                "nodeType": 0
            },
            "19": {
                "event": {
                    "contract": "0x2260fac5e5542a773aa44fbcfedf7c193bc2c599",
                    "decodedLog": {
                        "name": "Transfer",
                        "params": [
                            {
                                "name": "from",
                                "type": "address",
                                "value": "0x88a69b4e698a4b090df6cf5bd7b2d47325ad30a3"
                            },
                            {
                                "name": "to",
                                "type": "address",
                                "value": "0xa8c83b1b30291a3a1a118058b5445cc83041cd9d"
                            },
                            {
                                "decimalAvailable": true,
                                "name": "value",
                                "type": "uint256",
                                "value": "10,000,000,000"
                            }
                        ],
                        "signature": "Transfer(address,address,uint256)"
                    },
                    "id": 19,
                    "logData": "0x00000000000000000000000000000000000000000000000000000002540be400",
                    "logDecoded": true,
                    "operation": "EVENT",
                    "revert": false,
                    "status": true,
                    "topics": [
                        "0xddf252ad1be2c89b69c2b068fc378daa952ba7f163c4a11628f55a4df523b3ef",
                        "0x00000000000000000000000088a69b4e698a4b090df6cf5bd7b2d47325ad30a3",
                        "0x000000000000000000000000a8c83b1b30291a3a1a118058b5445cc83041cd9d"
                    ]
                },
                "nodeType": 1
            },
            "2": {
                "invocation": {
                    "address": "0xb92336759618f55bd0f8313bd843604592e27bd8",
                    "callData": "0x000000000000000000000000000000000000000000000000000000000000002000000000000000000000000000000000000000000000000000000000000000d16265616d000000000000000000000000d3dfd3ede74e0dcebc1aa685e151332857efce2d000013d60065746800000000000000000000000088a69b4e698a4b090df6cf5bd7b2d47325ad30a3006574680000000000000000000000002260fac5e5542a773aa44fbcfedf7c193bc2c59903000000000000000000000000a8c83b1b30291a3a1a118058b5445cc83041cd9d00000000000000000000000000000000000000000000000000000002540be400e6e85ded018819209cfb948d074cb65de145734b5b0852e4a5db25cac2b8c39a000000000000000000000000000000",
                    "decodedMethod": {
                        "callParams": [
                            {
                                "name": "_message",
                                "type": "bytes",
                                "value": "0x6265616d000000000000000000000000d3dfd3ede74e0dcebc1aa685e151332857efce2d000013d60065746800000000000000000000000088a69b4e698a4b090df6cf5bd7b2d47325ad30a3006574680000000000000000000000002260fac5e5542a773aa44fbcfedf7c193bc2c59903000000000000000000000000a8c83b1b30291a3a1a118058b5445cc83041cd9d00000000000000000000000000000000000000000000000000000002540be400e6e85ded018819209cfb948d074cb65de145734b5b0852e4a5db25cac2b8c39a"
                            }
                        ],
                        "constructorArguments": "",
                        "name": "process",
                        "returnParams": [
                            {
                                "name": "_success",
                                "type": "bool",
                                "value": true
                            }
                        ],
                        "signature": "process(bytes)"
                    },
                    "errorInfo": "",
                    "fromAddress": "0x5d94309e5a0090b165fa4181519701637b6daeba",
                    "gasUsed": 141445,
                    "id": 2,
                    "methodDecoded": true,
                    "operation": "DELEGATECALL",
                    "output": "0x0000000000000000000000000000000000000000000000000000000000000001",
                    "revert": false,
                    "revertMessage": "",
                    "selector": "0x928bc4b2",
                    "status": true,
                    "value": "0"
                },
                "nodeType": 0
            },
            "20": {
                "event": {
                    "contract": "0x88a69b4e698a4b090df6cf5bd7b2d47325ad30a3",
                    "decodedLog": {
                        "name": "Receive",
                        "params": [
                            {
                                "name": "originAndNonce",
                                "type": "uint64",
                                "value": "7,090,180,309,144,048,598"
                            },
                            {
                                "name": "token",
                                "type": "address",
                                "value": "0x2260fac5e5542a773aa44fbcfedf7c193bc2c599"
                            },
                            {
                                "name": "recipient",
                                "type": "address",
                                "value": "0xa8c83b1b30291a3a1a118058b5445cc83041cd9d"
                            },
                            {
                                "name": "liquidityProvider",
                                "type": "address",
                                "value": "0x0000000000000000000000000000000000000000"
                            },
                            {
                                "name": "amount",
                                "type": "uint256",
                                "value": "10,000,000,000"
                            }
                        ],
                        "signature": "Receive(uint64,address,address,address,uint256)"
                    },
                    "id": 20,
                    "logData": "0x000000000000000000000000000000000000000000000000000000000000000000000000000000000000000000000000000000000000000000000002540be400",
                    "logDecoded": true,
                    "operation": "EVENT",
                    "revert": false,
                    "status": true,
                    "topics": [
                        "0x9f9a97db84f39202ca3b409b63f7ccf7d3fd810e176573c7483088b6f181bbbb",
                        "0x0000000000000000000000000000000000000000000000006265616d000013d6",
                        "0x0000000000000000000000002260fac5e5542a773aa44fbcfedf7c193bc2c599",
                        "0x000000000000000000000000a8c83b1b30291a3a1a118058b5445cc83041cd9d"
                    ]
                },
                "nodeType": 1
            },
            "21": {
                "event": {
                    "contract": "0x5d94309e5a0090b165fa4181519701637b6daeba",
                    "decodedLog": {
                        "name": "Process",
                        "params": [
                            {
                                "name": "messageHash",
                                "type": "bytes32",
                                "value": "0xd50199e4c43f3163192cc73c68dab3746347477036581db3a1c721f5a99f595a"
                            },
                            {
                                "name": "success",
                                "type": "bool",
                                "value": true
                            },
                            {
                                "name": "returnData",
                                "type": "bytes",
                                "value": "0xc5d2460186f7233c927e7db2dcc703c0e500b653ca82273b7bfad8045d85a470"
                            }
                        ],
                        "signature": "Process(bytes32,bool,bytes)"
                    },
                    "id": 21,
                    "logData": "0x",
                    "logDecoded": true,
                    "operation": "EVENT",
                    "revert": false,
                    "status": true,
                    "topics": [
                        "0xd42de95a9b26f1be134c8ecce389dc4fcfa18753d01661b7b361233569e8fe48",
                        "0xd50199e4c43f3163192cc73c68dab3746347477036581db3a1c721f5a99f595a",
                        "0x0000000000000000000000000000000000000000000000000000000000000001",
                        "0xc5d2460186f7233c927e7db2dcc703c0e500b653ca82273b7bfad8045d85a470"
                    ]
                },
                "nodeType": 1
            },
            "3": {
                "invocation": {
                    "address": "0x0000000000000000000000000000000000000004",
                    "callData": "0x0000000000000000000000002260fac5e5542a773aa44fbcfedf7c193bc2c59903000000000000000000000000a8c83b1b30291a3a1a118058b5445cc83041cd9d00000000000000000000000000000000000000000000000000000002540be400e6e85ded018819209cfb948d074cb65de145734b5b0852e4a5db25cac2b8c39a",
                    "decodedMethod": {
                        "callParams": [
                            {
                                "name": "data",
                                "type": "bytes",
                                "value": "0x006574680000000000000000000000002260fac5e5542a773aa44fbcfedf7c193bc2c59903000000000000000000000000a8c83b1b30291a3a1a118058b5445cc83041cd9d00000000000000000000000000000000000000000000000000000002540be400e6e85ded018819209cfb948d074cb65de145734b5b0852e4a5db25cac2b8c39a"
                            }
                        ],
                        "constructorArguments": "",
                        "name": "dataCopy()",
                        "returnParams": [
                            {
                                "name": "data",
                                "type": "bytes",
                                "value": "0x006574680000000000000000000000002260fac5e5542a773aa44fbcfedf7c193bc2c59903000000000000000000000000a8c83b1b30291a3a1a118058b5445cc83041cd9d00000000000000000000000000000000000000000000000000000002540be400e6e85ded018819209cfb948d074cb65de145734b5b0852e4a5db25cac2b8c39a"
                            }
                        ],
                        "signature": "dataCopy(bytes)"
                    },
                    "errorInfo": "",
                    "fromAddress": "0x5d94309e5a0090b165fa4181519701637b6daeba",
                    "gasUsed": 30,
                    "id": 3,
                    "methodDecoded": true,
                    "operation": "STATICCALL",
                    "output": "0x006574680000000000000000000000002260fac5e5542a773aa44fbcfedf7c193bc2c59903000000000000000000000000a8c83b1b30291a3a1a118058b5445cc83041cd9d00000000000000000000000000000000000000000000000000000002540be400e6e85ded018819209cfb948d074cb65de145734b5b0852e4a5db25cac2b8c39a",
                    "revert": false,
                    "revertMessage": "",
                    "selector": "0x00657468",
                    "status": true,
                    "value": "0"
                },
                "nodeType": 0
            },
            "4": {
                "invocation": {
                    "address": "0x88a69b4e698a4b090df6cf5bd7b2d47325ad30a3",
                    "callData": "0x000000000000000000000000000000000000000000000000000000006265616d00000000000000000000000000000000000000000000000000000000000013d6000000000000000000000000d3dfd3ede74e0dcebc1aa685e151332857efce2d00000000000000000000000000000000000000000000000000000000000000800000000000000000000000000000000000000000000000000000000000000085006574680000000000000000000000002260fac5e5542a773aa44fbcfedf7c193bc2c59903000000000000000000000000a8c83b1b30291a3a1a118058b5445cc83041cd9d00000000000000000000000000000000000000000000000000000002540be400e6e85ded018819209cfb948d074cb65de145734b5b0852e4a5db25cac2b8c39a000000000000000000000000000000000000000000000000000000",
                    "decodedMethod": {
                        "callParams": [
                            {
                                "name": "_origin",
                                "type": "uint32",
                                "value": "1,650,811,245"
                            },
                            {
                                "name": "_nonce",
                                "type": "uint32",
                                "value": "5,078"
                            },
                            {
                                "name": "_sender",
                                "type": "bytes32",
                                "value": "0x000000000000000000000000d3dfd3ede74e0dcebc1aa685e151332857efce2d"
                            },
                            {
                                "name": "_message",
                                "type": "bytes",
                                "value": "0x006574680000000000000000000000002260fac5e5542a773aa44fbcfedf7c193bc2c59903000000000000000000000000a8c83b1b30291a3a1a118058b5445cc83041cd9d00000000000000000000000000000000000000000000000000000002540be400e6e85ded018819209cfb948d074cb65de145734b5b0852e4a5db25cac2b8c39a"
                            }
                        ],
                        "constructorArguments": "",
                        "name": "handle",
                        "returnParams": [],
                        "signature": "handle(uint32,uint32,bytes32,bytes)"
                    },
                    "errorInfo": "",
                    "fromAddress": "0x5d94309e5a0090b165fa4181519701637b6daeba",
                    "gasUsed": 100313,
                    "id": 4,
                    "methodDecoded": true,
                    "operation": "CALL",
                    "output": "",
                    "revert": false,
                    "revertMessage": "",
                    "selector": "0xab2dc3f5",
                    "status": true,
                    "value": "0"
                },
                "nodeType": 0
            },
            "5": {
                "invocation": {
                    "address": "0xb70588b1a51f847d13158ff18e9cac861df5fb00",
                    "callData": "0x",
                    "decodedMethod": null,
                    "errorInfo": "",
                    "fromAddress": "0x88a69b4e698a4b090df6cf5bd7b2d47325ad30a3",
                    "gasUsed": 2160,
                    "id": 5,
                    "methodDecoded": false,
                    "operation": "STATICCALL",
                    "output": "0x00000000000000000000000015fda9f60310d09fea54e3c99d1197dff5107248",
                    "revert": false,
                    "revertMessage": "",
                    "selector": "fallback",
                    "status": true,
                    "value": "0"
                },
                "nodeType": 0
            },
            "6": {
                "invocation": {
                    "address": "0x15fda9f60310d09fea54e3c99d1197dff5107248",
                    "callData": "0x000000000000000000000000000000000000000000000000000000006265616d00000000000000000000000000000000000000000000000000000000000013d6000000000000000000000000d3dfd3ede74e0dcebc1aa685e151332857efce2d00000000000000000000000000000000000000000000000000000000000000800000000000000000000000000000000000000000000000000000000000000085006574680000000000000000000000002260fac5e5542a773aa44fbcfedf7c193bc2c59903000000000000000000000000a8c83b1b30291a3a1a118058b5445cc83041cd9d00000000000000000000000000000000000000000000000000000002540be400e6e85ded018819209cfb948d074cb65de145734b5b0852e4a5db25cac2b8c39a000000000000000000000000000000000000000000000000000000",
                    "decodedMethod": {
                        "callParams": [
                            {
                                "name": "_origin",
                                "type": "uint32",
                                "value": "1,650,811,245"
                            },
                            {
                                "name": "_nonce",
                                "type": "uint32",
                                "value": "5,078"
                            },
                            {
                                "name": "_sender",
                                "type": "bytes32",
                                "value": "0x000000000000000000000000d3dfd3ede74e0dcebc1aa685e151332857efce2d"
                            },
                            {
                                "name": "_message",
                                "type": "bytes",
                                "value": "0x006574680000000000000000000000002260fac5e5542a773aa44fbcfedf7c193bc2c59903000000000000000000000000a8c83b1b30291a3a1a118058b5445cc83041cd9d00000000000000000000000000000000000000000000000000000002540be400e6e85ded018819209cfb948d074cb65de145734b5b0852e4a5db25cac2b8c39a"
                            }
                        ],
                        "constructorArguments": "",
                        "name": "handle",
                        "returnParams": [],
                        "signature": "handle(uint32,uint32,bytes32,bytes)"
                    },
                    "errorInfo": "",
                    "fromAddress": "0x88a69b4e698a4b090df6cf5bd7b2d47325ad30a3",
                    "gasUsed": 92449,
                    "id": 6,
                    "methodDecoded": true,
                    "operation": "DELEGATECALL",
                    "output": "",
                    "revert": false,
                    "revertMessage": "",
                    "selector": "0xab2dc3f5",
                    "status": true,
                    "value": "0"
                },
                "nodeType": 0
            },
            "7": {
                "invocation": {
                    "address": "0xfe8874778f946ac2990a29eba3cfd50760593b2f",
                    "callData": "0x0000000000000000000000005d94309e5a0090b165fa4181519701637b6daeba",
                    "decodedMethod": {
                        "callParams": [
                            {
                                "name": "_replica",
                                "type": "address",
                                "value": "0x5d94309e5a0090b165fa4181519701637b6daeba"
                            }
                        ],
                        "constructorArguments": "",
                        "name": "isReplica",
                        "returnParams": [
                            {
                                "name": "",
                                "type": "bool",
                                "value": true
                            }
                        ],
                        "signature": "isReplica(address)"
                    },
                    "errorInfo": "",
                    "fromAddress": "0x88a69b4e698a4b090df6cf5bd7b2d47325ad30a3",
                    "gasUsed": 2482,
                    "id": 7,
                    "methodDecoded": true,
                    "operation": "STATICCALL",
                    "output": "0x0000000000000000000000000000000000000000000000000000000000000001",
                    "revert": false,
                    "revertMessage": "",
                    "selector": "0x5190bc53",
                    "status": true,
                    "value": "0"
                },
                "nodeType": 0
            },
            "8": {
                "invocation": {
                    "address": "0x0a6f564c5c9bebd66f1595f1b51d1f3de6ef3b79",
                    "callData": "0x00000000000000000000000000000000000000000000000000000000006574680000000000000000000000002260fac5e5542a773aa44fbcfedf7c193bc2c599",
                    "decodedMethod": {
                        "callParams": [
                            {
                                "name": "_domain",
                                "type": "uint32",
                                "value": "6,648,936"
                            },
                            {
                                "name": "_id",
                                "type": "bytes32",
                                "value": "0x0000000000000000000000002260fac5e5542a773aa44fbcfedf7c193bc2c599"
                            }
                        ],
                        "constructorArguments": "",
                        "name": "ensureLocalToken",
                        "returnParams": [
                            {
                                "name": "_local",
                                "type": "address",
                                "value": "0x2260fac5e5542a773aa44fbcfedf7c193bc2c599"
                            }
                        ],
                        "signature": "ensureLocalToken(uint32,bytes32)"
                    },
                    "errorInfo": "",
                    "fromAddress": "0x88a69b4e698a4b090df6cf5bd7b2d47325ad30a3",
                    "gasUsed": 26444,
                    "id": 8,
                    "methodDecoded": true,
                    "operation": "CALL",
                    "output": "0x0000000000000000000000002260fac5e5542a773aa44fbcfedf7c193bc2c599",
                    "revert": false,
                    "revertMessage": "",
                    "selector": "0xb869d89a",
                    "status": true,
                    "value": "0"
                },
                "nodeType": 0
            },
            "9": {
                "invocation": {
                    "address": "0x4d5ff8a01ed833e11aba43821d2881a5f2911f98",
                    "callData": "0x",
                    "decodedMethod": null,
                    "errorInfo": "",
                    "fromAddress": "0x0a6f564c5c9bebd66f1595f1b51d1f3de6ef3b79",
                    "gasUsed": 2160,
                    "id": 9,
                    "methodDecoded": false,
                    "operation": "STATICCALL",
                    "output": "0x000000000000000000000000c1fae48ae1225fce8698503d5bb1378db5ce14f6",
                    "revert": false,
                    "revertMessage": "",
                    "selector": "fallback",
                    "status": true,
                    "value": "0"
                },
                "nodeType": 0
            }
        },
        "gasFlame": [
            {
                "children": [
                    {
                        "children": [
                            {
                                "children": [],
                                "depth": 0,
                                "name": "Initial Gas",
                                "value": 23788
                            },
                            {
                                "children": [
                                    {
                                        "children": [],
                                        "depth": 1,
                                        "name": "fallback",
                                        "value": 2160
                                    },
                                    {
                                        "children": [
                                            {
                                                "children": [],
                                                "depth": 2,
                                                "name": "dataCopy()",
                                                "value": 30
                                            },
                                            {
                                                "children": [
                                                    {
                                                        "children": [],
                                                        "depth": 3,
                                                        "name": "fallback",
                                                        "value": 2160
                                                    },
                                                    {
                                                        "children": [
                                                            {
                                                                "children": [],
                                                                "depth": 4,
                                                                "name": "isReplica",
                                                                "value": 2482
                                                            },
                                                            {
                                                                "children": [
                                                                    {
                                                                        "children": [],
                                                                        "depth": 5,
                                                                        "name": "fallback",
                                                                        "value": 2160
                                                                    },
                                                                    {
                                                                        "children": [
                                                                            {
                                                                                "children": [
                                                                                    {
                                                                                        "children": [
                                                                                            {
                                                                                                "children": [],
                                                                                                "depth": 8,
                                                                                                "name": "fallback",
                                                                                                "value": 2160
                                                                                            },
                                                                                            {
                                                                                                "children": [],
                                                                                                "depth": 8,
                                                                                                "name": "localDomain",
                                                                                                "value": 297
                                                                                            }
                                                                                        ],
                                                                                        "depth": 7,
                                                                                        "name": "localDomain",
                                                                                        "value": 8119
                                                                                    }
                                                                                ],
                                                                                "depth": 6,
                                                                                "name": "localDomain",
                                                                                "value": 13388
                                                                            }
                                                                        ],
                                                                        "depth": 5,
                                                                        "name": "ensureLocalToken",
                                                                        "value": 18616
                                                                    }
                                                                ],
                                                                "depth": 4,
                                                                "name": "ensureLocalToken",
                                                                "value": 26444
                                                            },
                                                            {
                                                                "children": [
                                                                    {
                                                                        "children": [],
                                                                        "depth": 5,
                                                                        "name": "fallback",
                                                                        "value": 160
                                                                    },
                                                                    {
                                                                        "children": [],
                                                                        "depth": 5,
                                                                        "name": "isLocalOrigin",
                                                                        "value": 5156
                                                                    }
                                                                ],
                                                                "depth": 4,
                                                                "name": "isLocalOrigin",
                                                                "value": 5981
                                                            },
                                                            {
                                                                "children": [],
                                                                "depth": 4,
                                                                "name": "transfer",
                                                                "value": 32803
                                                            }
                                                        ],
                                                        "depth": 3,
                                                        "name": "handle",
                                                        "value": 92449
                                                    }
                                                ],
                                                "depth": 2,
                                                "name": "handle",
                                                "value": 100313
                                            }
                                        ],
                                        "depth": 1,
                                        "name": "process",
                                        "value": 141445
                                    }
                                ],
                                "depth": 0,
                                "name": "Executed Gas",
                                "value": 149306
                            }
                        ],
                        "depth": -1,
                        "name": "Actual Gas Used",
                        "value": 170294
                    },
                    {
                        "children": [],
                        "depth": -1,
                        "name": "Refunded Gas",
                        "value": 2800
                    }
                ],
                "depth": -2,
                "name": "Total Gas",
                "value": 173094
            }
        ],
        "isConfirmed": true,
        "mainTrace": [
            {
                "children": [
                    {
                        "children": [
                            {
                                "children": [],
                                "depth": 1,
                                "id": 1,
                                "order": 1
                            },
                            {
                                "children": [
                                    {
                                        "children": [],
                                        "depth": 2,
                                        "id": 3,
                                        "order": 3
                                    },
                                    {
                                        "children": [
                                            {
                                                "children": [],
                                                "depth": 3,
                                                "id": 5,
                                                "order": 5
                                            },
                                            {
                                                "children": [
                                                    {
                                                        "children": [],
                                                        "depth": 4,
                                                        "id": 7,
                                                        "order": 7
                                                    },
                                                    {
                                                        "children": [
                                                            {
                                                                "children": [],
                                                                "depth": 5,
                                                                "id": 9,
                                                                "order": 9
                                                            },
                                                            {
                                                                "children": [
                                                                    {
                                                                        "children": [
                                                                            {
                                                                                "children": [
                                                                                    {
                                                                                        "children": [],
                                                                                        "depth": 8,
                                                                                        "id": 13,
                                                                                        "order": 13
                                                                                    },
                                                                                    {
                                                                                        "children": [],
                                                                                        "depth": 8,
                                                                                        "id": 14,
                                                                                        "order": 14
                                                                                    }
                                                                                ],
                                                                                "depth": 7,
                                                                                "id": 12,
                                                                                "order": 12
                                                                            }
                                                                        ],
                                                                        "depth": 6,
                                                                        "id": 11,
                                                                        "order": 11
                                                                    }
                                                                ],
                                                                "depth": 5,
                                                                "id": 10,
                                                                "order": 10
                                                            }
                                                        ],
                                                        "depth": 4,
                                                        "id": 8,
                                                        "order": 8
                                                    },
                                                    {
                                                        "children": [
                                                            {
                                                                "children": [],
                                                                "depth": 5,
                                                                "id": 16,
                                                                "order": 16
                                                            },
                                                            {
                                                                "children": [],
                                                                "depth": 5,
                                                                "id": 17,
                                                                "order": 17
                                                            }
                                                        ],
                                                        "depth": 4,
                                                        "id": 15,
                                                        "order": 15
                                                    },
                                                    {
                                                        "children": [
                                                            {
                                                                "children": [],
                                                                "depth": 5,
                                                                "id": 19,
                                                                "order": 19
                                                            }
                                                        ],
                                                        "depth": 4,
                                                        "id": 18,
                                                        "order": 18
                                                    },
                                                    {
                                                        "children": [],
                                                        "depth": 4,
                                                        "id": 20,
                                                        "order": 20
                                                    }
                                                ],
                                                "depth": 3,
                                                "id": 6,
                                                "order": 6
                                            }
                                        ],
                                        "depth": 2,
                                        "id": 4,
                                        "order": 4
                                    },
                                    {
                                        "children": [],
                                        "depth": 2,
                                        "id": 21,
                                        "order": 21
                                    }
                                ],
                                "depth": 1,
                                "id": 2,
                                "order": 2
                            }
                        ],
                        "depth": 0,
                        "id": 0,
                        "order": 0
                    }
                ],
                "depth": -1,
                "id": -1,
                "order": -1
            }
        ],
        "mainTraceNodeCount": 22,
        "parentIdMap": {
            "0": -1,
            "1": 0,
            "10": 8,
            "11": 10,
            "12": 11,
            "13": 12,
            "14": 12,
            "15": 6,
            "16": 15,
            "17": 15,
            "18": 6,
            "19": 18,
            "2": 0,
            "20": 6,
            "21": 2,
            "3": 2,
            "4": 2,
            "5": 4,
            "6": 4,
            "7": 6,
            "8": 6,
            "9": 8
        },
        "tidyTrace": [
            {
                "children": [
                    {
                        "children": [
                            {
                                "children": [
                                    {
                                        "children": [
                                            {
                                                "children": [
                                                    {
                                                        "children": [
                                                            {
                                                                "children": [],
                                                                "depth": 5,
                                                                "id": 10,
                                                                "order": 10
                                                            }
                                                        ],
                                                        "depth": 4,
                                                        "id": 8,
                                                        "order": 8
                                                    },
                                                    {
                                                        "children": [
                                                            {
                                                                "children": [],
                                                                "depth": 5,
                                                                "id": 19,
                                                                "order": 19
                                                            }
                                                        ],
                                                        "depth": 4,
                                                        "id": 18,
                                                        "order": 18
                                                    },
                                                    {
                                                        "children": [],
                                                        "depth": 4,
                                                        "id": 20,
                                                        "order": 20
                                                    }
                                                ],
                                                "depth": 3,
                                                "id": 6,
                                                "order": 6
                                            }
                                        ],
                                        "depth": 2,
                                        "id": 4,
                                        "order": 4
                                    },
                                    {
                                        "children": [],
                                        "depth": 2,
                                        "id": 21,
                                        "order": 21
                                    }
                                ],
                                "depth": 1,
                                "id": 2,
                                "order": 2
                            }
                        ],
                        "depth": 0,
                        "id": 0,
                        "order": 0
                    }
                ],
                "depth": -1,
                "id": -1,
                "order": -1
            }
        ],
        "tidyTraceNodeCount": 10
    },
    "state_change": {
        "stateChanges": [
            {
                "address": "0x2260fac5e5542a773aa44fbcfedf7c193bc2c599",
                "erc": "ERC-20",
                "slots": [
                    {
                        "current": "0x0000000000000000000000000000000000000000000000000000000ea0aa870f",
                        "key": "0xcb35f6ffed66be2678de421a2bf25c9b321b46e17ebb4f1b5cb2fc9dfee70e8e",
                        "prev": "0x00000000000000000000000000000000000000000000000000000010f4b66b0f"
                    },
                    {
                        "current": "0x00000000000000000000000000000000000000000000000000000002540be400",
                        "key": "0x41c079d47ebbae302b0a226c7a7de73ec199f127d49719a47e6422a204a5cc86",
                        "prev": "0x0000000000000000000000000000000000000000000000000000000000000000"
                    }
                ],
                "storageVariables": [
                    {
                        "name": "balances",
                        "type": "mapping(address => uint256)",
                        "value": {
                            "pairs": [
                                {
                                    "key": "0x88a69b4e698a4b090df6cf5bd7b2d47325ad30a3",
                                    "value": {
                                        "current": "62825072399",
                                        "prev": "72825072399",
                                        "typeTag": 1
                                    }
                                },
                                {
                                    "key": "0xa8c83b1b30291a3a1a118058b5445cc83041cd9d",
                                    "value": {
                                        "current": "10000000000",
                                        "prev": "0",
                                        "typeTag": 1
                                    }
                                }
                            ],
                            "typeTag": 4
                        }
                    }
                ]
            },
            {
                "address": "0x5d94309e5a0090b165fa4181519701637b6daeba",
                "erc": "",
                "slots": [
                    {
                        "current": "0x0000000000000000000000000000000000000000000000000000000000000002",
                        "key": "0x0b38e6a2035f4751b95e7f39b03d75c6c54f1270f69e5380dfb28930d8e4634d",
                        "prev": "0x0000000000000000000000000000000000000000000000000000000000000000"
                    }
                ],
                "storageVariables": []
            }
        ]
    }
}