{
    "balance_change": {
        "balanceChanges": [
            {
                "account": "0x0000000000000000000000000000000000000000",
                "assets": [
                    {
                        "address": "0xd1d2eb1b1e90b638588728b4130137d262c87cae",
                        "amount": "5,000,000,001",
                        "iconUrl": "",
                        "isERC1155": false,
                        "isERC721": false,
                        "sign": false,
                        "value": "440941.9586"
                    }
                ]
            },
            {
                "account": "0xe2ca471124b124831e231fb835778840ad100f97",
                "assets": [
                    {
                        "address": "0xd1d2eb1b1e90b638588728b4130137d262c87cae",
                        "amount": "5,000,000,001",
                        "iconUrl": "",
                        "isERC1155": false,
                        "isERC721": false,
                        "sign": true,
                        "value": "440941.9586"
                    }
                ]
            }
        ]
    },
    "profile": {
        "basic_info": {
            "baseFee": "102.463983946",
            "blockNumber": 19913232,
            "callData": "0x40c10f19000000000000000000000000e2ca471124b124831e231fb835778840ad100f9700000000000000000000000000000000000000000000000006f05b59d9a7e100",
            "debugEnable": true,
            "errorInfo": "",
            "eventCount": 1,
            "feeRecipient": "0x95222290dd7278aa3ddd389cc1e1d165cc4bafe5",
            "formatValue": "0",
            "gasLimit": 68310,
            "gasPrice": "102.472836874",
            "gasUsed": 67695,
            "intTxnCount": 1,
            "internalRevert": false,
            "internalRevertMessage": "",
            "isContractCreation": false,
            "isFlashloan": false,
            "maxFee": "133.393469557",
            "nonce": 175259,
            "overwritedBlockNumber": -1,
            "priorityFee": "0.008852928",
            "receiver": "0xd1d2eb1b1e90b638588728b4130137d262c87cae",
            "revertMessage": "",
            "sender": "0xec78b484a28a73f4f1cff23b9cd31aa12c1d9b4e",
            "simulationEnable": true,
            "sourceTxnHash": "0xa6d90abe17d17743a9cecab84bcefb0fd0bbfa0c61bba60fd2f680b0a2f077fe",
            "status": true,
            "timestamp": "2024-05-20T19:32:11Z",
            "transactionFee": "0.00693689869218543",
            "txnHash": "0xa6d90abe17d17743a9cecab84bcefb0fd0bbfa0c61bba60fd2f680b0a2f077fe",
            "txnIndex": 170,
            "type": 2,
            "value": "0"
        },
        "fund_flow": [
            {
                "amount": "5,000,000,001",
                "from": "0x0000000000000000000000000000000000000000",
                "id": 1,
                "isERC1155": false,
                "isERC721": false,
                "isReverted": false,
                "order": 1,
                "to": "0xe2ca471124b124831e231fb835778840ad100f97",
                "token": "0xd1d2eb1b1e90b638588728b4130137d262c87cae"
            }
        ],
        "token_infos": [
            {
                "address": "0xc02aaa39b223fe8d0a0e5c4f27ead9083c756cc2",
                "decimals": 18
            },
            {
                "address": "0xd1d2eb1b1e90b638588728b4130137d262c87cae",
                "decimals": 8
            },
            {
                "address": "0xeeeeeeeeeeeeeeeeeeeeeeeeeeeeeeeeeeeeeeee",
                "decimals": 18
            }
        ]
    },
    "address_label": {
        "labels": [
            {
                "address": "0xd1d2eb1b1e90b638588728b4130137d262c87cae",
                "label": "Gala Games: GALA Token"
            },
            {
                "address": "0x0000000000000000000000000000000000000001",
                "label": "Precompiled"
            },
            {
                "address": "0x0000000000000000000000000000000000000002",
                "label": "Precompiled"
            },
            {
                "address": "0x0000000000000000000000000000000000000003",
                "label": "Precompiled"
            },
            {
                "address": "0x0000000000000000000000000000000000000004",
                "label": "Precompiled"
            },
            {
                "address": "0xeeeeeeeeeeeeeeeeeeeeeeeeeeeeeeeeeeeeeeee",
                "label": "Ether"
            },
            {
                "address": "0xe2ca471124b124831e231fb835778840ad100f97",
                "label": "Gala Games Exploiter"
            },
            {
                "address": "0x8d92a6812b3da2346883f0631910c96cb9c5a5f9",
                "label": "Gala"
            }
        ]
    },
    "trace": {
        "accountLabels": null,
        "dataMap": {
            "-1": {
                "invocation": {
                    "address": "0xec78b484a28a73f4f1cff23b9cd31aa12c1d9b4e",
                    "callData": "",
                    "decodedMethod": null,
                    "errorInfo": "",
                    "fromAddress": "",
                    "gasUsed": 0,
                    "id": -1,
                    "methodDecoded": false,
                    "operation": "",
                    "output": "",
                    "revert": false,
                    "revertMessage": "",
                    "selector": "",
                    "status": false,
                    "value": ""
                },
                "nodeType": 0
            },
            "0": {
                "invocation": {
                    "address": "0xd1d2eb1b1e90b638588728b4130137d262c87cae",
                    "callData": "0x000000000000000000000000e2ca471124b124831e231fb835778840ad100f9700000000000000000000000000000000000000000000000006f05b59d9a7e100",
                    "decodedMethod": {
                        "callParams": [
                            {
                                "name": "_to",
                                "type": "address",
                                "value": "0xe2ca471124b124831e231fb835778840ad100f97"
                            },
                            {
                                "name": "_amount",
                                "type": "uint256",
                                "value": "500,000,000,100,000,000"
                            }
                        ],
                        "constructorArguments": "",
                        "name": "mint",
                        "returnParams": [],
                        "signature": "mint(address,uint256)"
                    },
                    "errorInfo": "",
                    "fromAddress": "0xec78b484a28a73f4f1cff23b9cd31aa12c1d9b4e",
                    "gasUsed": 67695,
                    "id": 0,
                    "methodDecoded": true,
                    "operation": "CALL",
                    "output": "",
                    "revert": false,
                    "revertMessage": "",
                    "selector": "0x40c10f19",
                    "status": true,
                    "value": "0"
                },
                "nodeType": 0
            },
            "1": {
                "invocation": {
                    "address": "0x8d92a6812b3da2346883f0631910c96cb9c5a5f9",
                    "callData": "0x000000000000000000000000e2ca471124b124831e231fb835778840ad100f9700000000000000000000000000000000000000000000000006f05b59d9a7e100",
                    "decodedMethod": {
                        "callParams": [
                            {
                                "name": "_to",
                                "type": "address",
                                "value": "0xe2ca471124b124831e231fb835778840ad100f97"
                            },
                            {
                                "name": "_amount",
                                "type": "uint256",
                                "value": "500,000,000,100,000,000"
                            }
                        ],
                        "constructorArguments": "",
                        "name": "mint",
                        "returnParams": [],
                        "signature": "mint(address,uint256)"
                    },
                    "errorInfo": "",
                    "fromAddress": "0xd1d2eb1b1e90b638588728b4130137d262c87cae",
                    "gasUsed": 41153,
                    "id": 1,
                    "methodDecoded": true,
                    "operation": "DELEGATECALL",
                    "output": "",
                    "revert": false,
                    "revertMessage": "",
                    "selector": "0x40c10f19",
                    "status": true,
                    "value": "0"
                },
                "nodeType": 0
            },
            "2": {
                "event": {
                    "contract": "0xd1d2eb1b1e90b638588728b4130137d262c87cae",
                    "decodedLog": {
                        "name": "Transfer",
                        "params": [
                            {
                                "name": "from",
                                "type": "address",
                                "value": "0x0000000000000000000000000000000000000000"
                            },
                            {
                                "name": "to",
                                "type": "address",
                                "value": "0xe2ca471124b124831e231fb835778840ad100f97"
                            },
                            {
                                "decimalAvailable": true,
                                "name": "value",
                                "type": "uint256",
                                "value": "500,000,000,100,000,000"
                            }
                        ],
                        "signature": "Transfer(address,address,uint256)"
                    },
                    "id": 2,
                    "logData": "0x00000000000000000000000000000000000000000000000006f05b59d9a7e100",
                    "logDecoded": true,
                    "operation": "EVENT",
                    "revert": false,
                    "status": true,
                    "topics": [
                        "0xddf252ad1be2c89b69c2b068fc378daa952ba7f163c4a11628f55a4df523b3ef",
                        "0x0000000000000000000000000000000000000000000000000000000000000000",
                        "0x000000000000000000000000e2ca471124b124831e231fb835778840ad100f97"
                    ]
                },
                "nodeType": 1
            }
        },
        "gasFlame": [
            {
                "children": [
                    {
                        "children": [
                            {
                                "children": [],
                                "depth": 0,
                                "name": "Initial Gas",
                                "value": 21644
                            },
                            {
                                "children": [
                                    {
                                        "children": [],
                                        "depth": 1,
                                        "name": "mint",
                                        "value": 41153
                                    }
                                ],
                                "depth": 0,
                                "name": "Executed Gas",
                                "value": 46051
                            }
                        ],
                        "depth": -1,
                        "name": "Actual Gas Used",
                        "value": 67695
                    },
                    {
                        "children": [],
                        "depth": -1,
                        "name": "Refunded Gas",
                        "value": 0
                    }
                ],
                "depth": -2,
                "name": "Total Gas",
                "value": 67695
            }
        ],
        "isConfirmed": true,
        "mainTrace": [
            {
                "children": [
                    {
                        "children": [
                            {
                                "children": [
                                    {
                                        "children": [],
                                        "depth": 2,
                                        "id": 2,
                                        "order": 2
                                    }
                                ],
                                "depth": 1,
                                "id": 1,
                                "order": 1
                            }
                        ],
                        "depth": 0,
                        "id": 0,
                        "order": 0
                    }
                ],
                "depth": -1,
                "id": -1,
                "order": -1
            }
        ],
        "mainTraceNodeCount": 3,
        "parentIdMap": {
            "0": -1,
            "1": 0,
            "2": 1
        },
        "tidyTrace": [
            {
                "children": [
                    {
                        "children": [
                            {
                                "children": [
                                    {
                                        "children": [],
                                        "depth": 2,
                                        "id": 2,
                                        "order": 2
                                    }
                                ],
                                "depth": 1,
                                "id": 1,
                                "order": 1
                            }
                        ],
                        "depth": 0,
                        "id": 0,
                        "order": 0
                    }
                ],
                "depth": -1,
                "id": -1,
                "order": -1
            }
        ],
        "tidyTraceNodeCount": 3
    },
    "state_change": {
        "stateChanges": [
            {
                "address": "0xd1d2eb1b1e90b638588728b4130137d262c87cae",
                "erc": "ERC-20",
                "slots": [
                    {
                        "current": "0x0000000000000000000000000000000000000000000000003498aa64cc4bfd64",
                        "key": "0x0000000000000000000000000000000000000000000000000000000000000035",
                        "prev": "0x0000000000000000000000000000000000000000000000002da84f0af2a41c64"
                    },
                    {
                        "current": "0x00000000000000000000000000000000000000000000000006f05b59d9a7e100",
                        "key": "0x6eb9b058342d2b6ac0274f53eb2e31804e65b6668a1e9bf98e2275c5203b6d04",
                        "prev": "0x0000000000000000000000000000000000000000000000000000000000000000"
                    }
                ],
                "storageVariables": [
                    {
                        "name": "_totalSupply",
                        "type": "uint256",
                        "value": {
                            "current": "3789966436333256036",
                            "prev": "3289966436233256036",
                            "typeTag": 1
                        }
                    },
                    {
                        "name": "_balances",
                        "type": "mapping(address => uint256)",
                        "value": {
                            "pairs": [
                                {
                                    "key": "0xe2ca471124b124831e231fb835778840ad100f97",
                                    "value": {
                                        "current": "500000000100000000",
                                        "prev": "0",
                                        "typeTag": 1
                                    }
                                }
                            ],
                            "typeTag": 4
                        }
                    }
                ]
            }
        ]
    }
}