{
    "balance_change": {
        "balanceChanges": [
            {
                "account": "0xd11a93a8db5f8d3fb03b88b4b24c3ed01b8a411c",
                "assets": [
                    {
                        "address": "0x55d398326f99059ff775485246999027b3197955",
                        "amount": "31,318.180838433700165284",
                        "iconUrl": "https://assets.blocksec.com/icon/810ebed5-1cb7-4a60-827d-c7eb0c438c0e.png",
                        "isERC1155": false,
                        "isERC721": false,
                        "sign": true,
                        "value": "31349.49902083999655"
                    }
                ]
            },
            {
                "account": "0x5575406ef6b15eec1986c412b9fbe144522c45ae",
                "assets": [
                    {
                        "address": "0xcff086ead392ccb39c49ecda8c974ad5238452ac",
                        "amount": "0.00000000000000076",
                        "iconUrl": "",
                        "isERC1155": false,
                        "isERC721": false,
                        "sign": true,
                        "value": ""
                    }
                ]
            },
            {
                "account": "0x000000000000000000000000000000000000dead",
                "assets": [
                    {
                        "address": "0xcff086ead392ccb39c49ecda8c974ad5238452ac",
                        "amount": "1,551.72368036543714932",
                        "iconUrl": "",
                        "isERC1155": false,
                        "isERC721": false,
                        "sign": true,
                        "value": "52.15463927"
                    }
                ]
            },
            {
                "account": "0x00b433800970286cf08f34c96cf07f35412f1161",
                "assets": [
                    {
                        "address": "0xcff086ead392ccb39c49ecda8c974ad5238452ac",
                        "amount": "305,689.5650319911184168",
                        "iconUrl": "",
                        "isERC1155": false,
                        "isERC721": false,
                        "sign": false,
                        "value": "29085.70986"
                    }
                ]
            },
            {
                "account": "0x0c5390550538ef0215463b1e68524ea11bd1b3b3",
                "assets": [
                    {
                        "address": "0xcff086ead392ccb39c49ecda8c974ad5238452ac",
                        "amount": "1,551.72368036543714932",
                        "iconUrl": "",
                        "isERC1155": false,
                        "isERC721": false,
                        "sign": true,
                        "value": "52.15463927"
                    }
                ]
            },
            {
                "account": "0xcff086ead392ccb39c49ecda8c974ad5238452ac",
                "assets": [
                    {
                        "address": "0xcff086ead392ccb39c49ecda8c974ad5238452ac",
                        "amount": "10,862.06576255806004524",
                        "iconUrl": "",
                        "isERC1155": false,
                        "isERC721": false,
                        "sign": true,
                        "value": "3111.972962"
                    }
                ]
            },
            {
                "account": "0xf34c9a6aaac94022f96d4589b73d498491f817fa",
                "assets": [
                    {
                        "address": "0xcff086ead392ccb39c49ecda8c974ad5238452ac",
                        "amount": "291,724.05190870218407216",
                        "iconUrl": "",
                        "isERC1155": false,
                        "isERC721": false,
                        "sign": true,
                        "value": "6061.746604"
                    },
                    {
                        "address": "0x55d398326f99059ff775485246999027b3197955",
                        "amount": "31,318.180838433700165284",
                        "iconUrl": "https://assets.blocksec.com/icon/810ebed5-1cb7-4a60-827d-c7eb0c438c0e.png",
                        "isERC1155": false,
                        "isERC721": false,
                        "sign": false,
                        "value": "31349.49902083999655"
                    }
                ]
            }
        ]
    },
    "profile": {
        "basic_info": {
            "baseFee": "",
            "blockNumber": 22055612,
            "callData": "0x668f0ad4000000000000000000000000000000000000000000000000000000000000004000000000000000000000000000000000000000000000000000000000000000800000000000000000000000000000000000000000000000000000000000000014fbdb00c01fc1fb1cc4da8b51673fc1da1fc15b200000000000000000000000000000000000000000000000000000000000000000000000000000000000000001000000000000000000000000000000000000000000000000000000000000002000000000000000000000000000000000000000000000000000000000000001fb554807e01fc1681fc1081ec24fe81fc14e1fc1881ec249e81ec24ac81ec24be81ec24ce81ec24de80cd487b8cea29bda84fbd401a492c4df029d6bcc1ae43fc1281fc50c4116effb0cd5d33b6de9186d05bdd53a1bc01509909b7947d452b79fb728d487b8cea29bda84fbd401a492c4df029d6bcc1ae43fc1281fc50c4116effb0cd558a50b8f503906fe7512ed3330fd0f4caa1e4a06b79fb728d487b8cea29bda84fbd401a492c4df029d6bcc1ae43fc1281fc5ccf333b0d71fc1681fc56cf721d3030cd41d3d0826bef916a451ce8c5af1b3a90c1a640de63f05d487b8cea29bda84fbd401a492c4df029d6bcc1ae43fc1281fc52c6bf03a950cd41d3d0826bef916a451ce8c5af1b3a90c1a640de60cd487b8cea29bda84fbd401a492c4df029d6bcc1ae43f09d487b8cea29bda84fbd401a492c4df029d6bcc1ae43fc1281fc52c6bf03a950dd3fc7bc841386024b8c77c8124b8377d096759290cd41d3d0826bef916a451ce8c5af1b3a90c1a640de616ca09ff9a2cb5df7553257028d458a50b8f503906fe7512ed3330fd0f4caa1e4a063fc1281ec6494c14599fdd16ca09ff9a2cb5df755325703fc1e80cd49952dbe09317c577f873c0fcfa04769853c209541cc42b0c53e41fc14a0cd487b8cea29bda84fbd401a492c4df029d6bcc1ae40cd41d9bd07a27d14dd7bf3d001a0ed1d86ffb51311d3c0000000000",
            "debugEnable": true,
            "errorInfo": "",
            "eventCount": 13,
            "feeRecipient": "0x4396e28197653d0c244d95f8c1e57da902a72b4e",
            "formatValue": "0",
            "gasLimit": 662412,
            "gasPrice": "10759.589565493",
            "gasUsed": 567611,
            "intTxnCount": 26,
            "internalRevert": false,
            "internalRevertMessage": "",
            "isContractCreation": false,
            "isFlashloan": false,
            "maxFee": "",
            "nonce": 153,
            "overwritedBlockNumber": -1,
            "priorityFee": "",
            "receiver": "0x5575406ef6b15eec1986c412b9fbe144522c45ae",
            "revertMessage": "",
            "sender": "0xd11a93a8db5f8d3fb03b88b4b24c3ed01b8a411c",
            "simulationEnable": true,
            "sourceTxnHash": "0xa624660c29ee97f3f4ebd36232d8199e7c97533c9db711fa4027994aa11e01b9",
            "status": true,
            "timestamp": "2022-10-10T12:53:41Z",
            "transactionFee": "6.107261392859047223",
            "txnHash": "0xa624660c29ee97f3f4ebd36232d8199e7c97533c9db711fa4027994aa11e01b9",
            "txnIndex": 0,
            "type": 0,
            "value": "0"
        },
        "fund_flow": [
            {
                "amount": "10,862.06576255806004524",
                "from": "0x5575406ef6b15eec1986c412b9fbe144522c45ae",
                "id": 1,
                "isERC1155": false,
                "isERC721": false,
                "isReverted": false,
                "order": 1,
                "to": "0xcff086ead392ccb39c49ecda8c974ad5238452ac",
                "token": "0xcff086ead392ccb39c49ecda8c974ad5238452ac"
            },
            {
                "amount": "310,344.73607308742986476",
                "from": "0x00b433800970286cf08f34c96cf07f35412f1161",
                "id": 2,
                "isERC1155": false,
                "isERC721": false,
                "isReverted": false,
                "order": 2,
                "to": "0x5575406ef6b15eec1986c412b9fbe144522c45ae",
                "token": "0xcff086ead392ccb39c49ecda8c974ad5238452ac"
            },
            {
                "amount": "1,551.72368036543714932",
                "from": "0x5575406ef6b15eec1986c412b9fbe144522c45ae",
                "id": 3,
                "isERC1155": false,
                "isERC721": false,
                "isReverted": false,
                "order": 3,
                "to": "0x000000000000000000000000000000000000dead",
                "token": "0xcff086ead392ccb39c49ecda8c974ad5238452ac"
            },
            {
                "amount": "4,655.17104109631144796",
                "from": "0x5575406ef6b15eec1986c412b9fbe144522c45ae",
                "id": 4,
                "isERC1155": false,
                "isERC721": false,
                "isReverted": false,
                "order": 4,
                "to": "0x00b433800970286cf08f34c96cf07f35412f1161",
                "token": "0xcff086ead392ccb39c49ecda8c974ad5238452ac"
            },
            {
                "amount": "1,551.72368036543714932",
                "from": "0x5575406ef6b15eec1986c412b9fbe144522c45ae",
                "id": 5,
                "isERC1155": false,
                "isERC721": false,
                "isReverted": false,
                "order": 5,
                "to": "0x0c5390550538ef0215463b1e68524ea11bd1b3b3",
                "token": "0xcff086ead392ccb39c49ecda8c974ad5238452ac"
            },
            {
                "amount": "291,724.05190870218407216",
                "from": "0x5575406ef6b15eec1986c412b9fbe144522c45ae",
                "id": 6,
                "isERC1155": false,
                "isERC721": false,
                "isReverted": false,
                "order": 6,
                "to": "0xf34c9a6aaac94022f96d4589b73d498491f817fa",
                "token": "0xcff086ead392ccb39c49ecda8c974ad5238452ac"
            },
            {
                "amount": "31,318.180838433700165284",
                "from": "0xf34c9a6aaac94022f96d4589b73d498491f817fa",
                "id": 7,
                "isERC1155": false,
                "isERC721": false,
                "isReverted": false,
                "order": 7,
                "to": "0xd11a93a8db5f8d3fb03b88b4b24c3ed01b8a411c",
                "token": "0x55d398326f99059ff775485246999027b3197955"
            }
        ],
        "token_infos": [
            {
                "address": "0xeeeeeeeeeeeeeeeeeeeeeeeeeeeeeeeeeeeeeeee",
                "decimals": 18
            },
            {
                "address": "0x55d398326f99059ff775485246999027b3197955",
                "decimals": 18
            },
            {
                "address": "0xbb4cdb9cbd36b01bd1cbaebf2de08d9173bc095c",
                "decimals": 18
            },
            {
                "address": "0xcff086ead392ccb39c49ecda8c974ad5238452ac",
                "decimals": 18
            }
        ]
    },
    "address_label": {
        "labels": [
            {
                "address": "0xcff086ead392ccb39c49ecda8c974ad5238452ac",
                "label": "Carrot (Carrot)"
            },
            {
                "address": "0x0000000000000000000000000000000000000004",
                "label": "Precompiled"
            },
            {
                "address": "0xeeeeeeeeeeeeeeeeeeeeeeeeeeeeeeeeeeeeeeee",
                "label": "BNB"
            },
            {
                "address": "0x10ed43c718714eb63d5aa57b78b54704e256024e",
                "label": "PancakeRouter"
            },
            {
                "address": "0x55d398326f99059ff775485246999027b3197955",
                "label": "BUSD-T Stablecoin"
            },
            {
                "address": "0x0000000000000000000000000000000000000001",
                "label": "Precompiled"
            },
            {
                "address": "0x0000000000000000000000000000000000000002",
                "label": "Precompiled"
            },
            {
                "address": "0x0000000000000000000000000000000000000003",
                "label": "Precompiled"
            },
            {
                "address": "0xf34c9a6aaac94022f96d4589b73d498491f817fa",
                "label": "Pancake LPs (Cake-LP)"
            }
        ]
    },
    "trace": {
        "accountLabels": null,
        "dataMap": {
            "-1": {
                "invocation": {
                    "address": "0xd11a93a8db5f8d3fb03b88b4b24c3ed01b8a411c",
                    "callData": "",
                    "decodedMethod": null,
                    "errorInfo": "",
                    "fromAddress": "",
                    "gasUsed": 0,
                    "id": -1,
                    "methodDecoded": false,
                    "operation": "",
                    "output": "",
                    "revert": false,
                    "revertMessage": "",
                    "selector": "",
                    "status": false,
                    "value": ""
                },
                "nodeType": 0
            },
            "0": {
                "invocation": {
                    "address": "0x5575406ef6b15eec1986c412b9fbe144522c45ae",
                    "callData": "0x000000000000000000000000000000000000000000000000000000000000004000000000000000000000000000000000000000000000000000000000000000800000000000000000000000000000000000000000000000000000000000000014fbdb00c01fc1fb1cc4da8b51673fc1da1fc15b200000000000000000000000000000000000000000000000000000000000000000000000000000000000000001000000000000000000000000000000000000000000000000000000000000002000000000000000000000000000000000000000000000000000000000000001fb554807e01fc1681fc1081ec24fe81fc14e1fc1881ec249e81ec24ac81ec24be81ec24ce81ec24de80cd487b8cea29bda84fbd401a492c4df029d6bcc1ae43fc1281fc50c4116effb0cd5d33b6de9186d05bdd53a1bc01509909b7947d452b79fb728d487b8cea29bda84fbd401a492c4df029d6bcc1ae43fc1281fc50c4116effb0cd558a50b8f503906fe7512ed3330fd0f4caa1e4a06b79fb728d487b8cea29bda84fbd401a492c4df029d6bcc1ae43fc1281fc5ccf333b0d71fc1681fc56cf721d3030cd41d3d0826bef916a451ce8c5af1b3a90c1a640de63f05d487b8cea29bda84fbd401a492c4df029d6bcc1ae43fc1281fc52c6bf03a950cd41d3d0826bef916a451ce8c5af1b3a90c1a640de60cd487b8cea29bda84fbd401a492c4df029d6bcc1ae43f09d487b8cea29bda84fbd401a492c4df029d6bcc1ae43fc1281fc52c6bf03a950dd3fc7bc841386024b8c77c8124b8377d096759290cd41d3d0826bef916a451ce8c5af1b3a90c1a640de616ca09ff9a2cb5df7553257028d458a50b8f503906fe7512ed3330fd0f4caa1e4a063fc1281ec6494c14599fdd16ca09ff9a2cb5df755325703fc1e80cd49952dbe09317c577f873c0fcfa04769853c209541cc42b0c53e41fc14a0cd487b8cea29bda84fbd401a492c4df029d6bcc1ae40cd41d9bd07a27d14dd7bf3d001a0ed1d86ffb51311d3c0000000000",
                    "decodedMethod": null,
                    "errorInfo": "",
                    "fromAddress": "0xd11a93a8db5f8d3fb03b88b4b24c3ed01b8a411c",
                    "gasUsed": 567611,
                    "id": 0,
                    "methodDecoded": false,
                    "operation": "CALL",
                    "output": "",
                    "revert": false,
                    "revertMessage": "",
                    "selector": "0x668f0ad4",
                    "status": true,
                    "value": "0"
                },
                "nodeType": 0
            },
            "1": {
                "invocation": {
                    "address": "0xc422f23102bf2eeb237a8f7789be6a6be3e4a251",
                    "callData": "0x000000000000000000000000000000000000000000000000000000000000004000000000000000000000000000000000000000000000000000000000000000800000000000000000000000000000000000000000000000000000000000000014fbdb00c01fc1fb1cc4da8b51673fc1da1fc15b200000000000000000000000000000000000000000000000000000000000000000000000000000000000000001000000000000000000000000000000000000000000000000000000000000002000000000000000000000000000000000000000000000000000000000000001fb554807e01fc1681fc1081ec24fe81fc14e1fc1881ec249e81ec24ac81ec24be81ec24ce81ec24de80cd487b8cea29bda84fbd401a492c4df029d6bcc1ae43fc1281fc50c4116effb0cd5d33b6de9186d05bdd53a1bc01509909b7947d452b79fb728d487b8cea29bda84fbd401a492c4df029d6bcc1ae43fc1281fc50c4116effb0cd558a50b8f503906fe7512ed3330fd0f4caa1e4a06b79fb728d487b8cea29bda84fbd401a492c4df029d6bcc1ae43fc1281fc5ccf333b0d71fc1681fc56cf721d3030cd41d3d0826bef916a451ce8c5af1b3a90c1a640de63f05d487b8cea29bda84fbd401a492c4df029d6bcc1ae43fc1281fc52c6bf03a950cd41d3d0826bef916a451ce8c5af1b3a90c1a640de60cd487b8cea29bda84fbd401a492c4df029d6bcc1ae43f09d487b8cea29bda84fbd401a492c4df029d6bcc1ae43fc1281fc52c6bf03a950dd3fc7bc841386024b8c77c8124b8377d096759290cd41d3d0826bef916a451ce8c5af1b3a90c1a640de616ca09ff9a2cb5df7553257028d458a50b8f503906fe7512ed3330fd0f4caa1e4a063fc1281ec6494c14599fdd16ca09ff9a2cb5df755325703fc1e80cd49952dbe09317c577f873c0fcfa04769853c209541cc42b0c53e41fc14a0cd487b8cea29bda84fbd401a492c4df029d6bcc1ae40cd41d9bd07a27d14dd7bf3d001a0ed1d86ffb51311d3c0000000000",
                    "decodedMethod": null,
                    "errorInfo": "",
                    "fromAddress": "0x5575406ef6b15eec1986c412b9fbe144522c45ae",
                    "gasUsed": 544712,
                    "id": 1,
                    "methodDecoded": false,
                    "operation": "DELEGATECALL",
                    "output": "",
                    "revert": false,
                    "revertMessage": "",
                    "selector": "0x668f0ad4",
                    "status": true,
                    "value": "0"
                },
                "nodeType": 0
            },
            "10": {
                "invocation": {
                    "address": "0xcff086ead392ccb39c49ecda8c974ad5238452ac",
                    "callData": "0x0000000000000000000000005575406ef6b15eec1986c412b9fbe144522c45ae000000000000000000000000cff086ead392ccb39c49ecda8c974ad5238452ac0000000000000000000000000000000000000000000000000000000000000000",
                    "decodedMethod": {
                        "callParams": [
                            {
                                "name": "sender",
                                "type": "address",
                                "value": "0x5575406ef6b15eec1986c412b9fbe144522c45ae"
                            },
                            {
                                "name": "recipient",
                                "type": "address",
                                "value": "0xcff086ead392ccb39c49ecda8c974ad5238452ac"
                            },
                            {
                                "decimalAvailable": true,
                                "name": "amount",
                                "type": "uint256",
                                "value": "0"
                            }
                        ],
                        "constructorArguments": "",
                        "name": "transferFrom",
                        "returnParams": [
                            {
                                "name": "",
                                "type": "bool",
                                "value": true
                            }
                        ],
                        "signature": "transferFrom(address,address,uint256)"
                    },
                    "errorInfo": "",
                    "fromAddress": "0x5575406ef6b15eec1986c412b9fbe144522c45ae",
                    "gasUsed": 56510,
                    "id": 10,
                    "methodDecoded": true,
                    "operation": "CALL",
                    "output": "0x0000000000000000000000000000000000000000000000000000000000000001",
                    "revert": false,
                    "revertMessage": "",
                    "selector": "0x23b872dd",
                    "status": true,
                    "value": "0"
                },
                "nodeType": 0
            },
            "11": {
                "invocation": {
                    "address": "0x6863b549bf730863157318df4496ed111adfa64f",
                    "callData": "0x",
                    "decodedMethod": {
                        "callParams": [],
                        "constructorArguments": "",
                        "name": "owner",
                        "returnParams": [
                            {
                                "name": "",
                                "type": "address",
                                "value": "0x5575406ef6b15eec1986c412b9fbe144522c45ae"
                            }
                        ],
                        "signature": "owner()"
                    },
                    "errorInfo": "",
                    "fromAddress": "0xcff086ead392ccb39c49ecda8c974ad5238452ac",
                    "gasUsed": 1311,
                    "id": 11,
                    "methodDecoded": true,
                    "operation": "STATICCALL",
                    "output": "0x0000000000000000000000005575406ef6b15eec1986c412b9fbe144522c45ae",
                    "revert": false,
                    "revertMessage": "",
                    "selector": "0x8da5cb5b",
                    "status": true,
                    "value": "0"
                },
                "nodeType": 0
            },
            "12": {
                "event": {
                    "contract": "0xcff086ead392ccb39c49ecda8c974ad5238452ac",
                    "decodedLog": {
                        "name": "Transfer",
                        "params": [
                            {
                                "name": "from",
                                "type": "address",
                                "value": "0x5575406ef6b15eec1986c412b9fbe144522c45ae"
                            },
                            {
                                "name": "to",
                                "type": "address",
                                "value": "0xcff086ead392ccb39c49ecda8c974ad5238452ac"
                            },
                            {
                                "decimalAvailable": true,
                                "name": "value",
                                "type": "uint256",
                                "value": "0"
                            }
                        ],
                        "signature": "Transfer(address,address,uint256)"
                    },
                    "id": 12,
                    "logData": "0x0000000000000000000000000000000000000000000000000000000000000000",
                    "logDecoded": true,
                    "operation": "EVENT",
                    "revert": false,
                    "status": true,
                    "topics": [
                        "0xddf252ad1be2c89b69c2b068fc378daa952ba7f163c4a11628f55a4df523b3ef",
                        "0x0000000000000000000000005575406ef6b15eec1986c412b9fbe144522c45ae",
                        "0x000000000000000000000000cff086ead392ccb39c49ecda8c974ad5238452ac"
                    ]
                },
                "nodeType": 1
            },
            "13": {
                "invocation": {
                    "address": "0xcff086ead392ccb39c49ecda8c974ad5238452ac",
                    "callData": "0x00000000000000000000000000b433800970286cf08f34c96cf07f35412f11610000000000000000000000005575406ef6b15eec1986c412b9fbe144522c45ae0000000000000000000000000000000000000000000041b7d264fd973d1b6d38",
                    "decodedMethod": {
                        "callParams": [
                            {
                                "name": "sender",
                                "type": "address",
                                "value": "0x00b433800970286cf08f34c96cf07f35412f1161"
                            },
                            {
                                "name": "recipient",
                                "type": "address",
                                "value": "0x5575406ef6b15eec1986c412b9fbe144522c45ae"
                            },
                            {
                                "decimalAvailable": true,
                                "name": "amount",
                                "type": "uint256",
                                "value": "310,344,736,073,087,429,864,760"
                            }
                        ],
                        "constructorArguments": "",
                        "name": "transferFrom",
                        "returnParams": [
                            {
                                "name": "",
                                "type": "bool",
                                "value": true
                            }
                        ],
                        "signature": "transferFrom(address,address,uint256)"
                    },
                    "errorInfo": "",
                    "fromAddress": "0x5575406ef6b15eec1986c412b9fbe144522c45ae",
                    "gasUsed": 104238,
                    "id": 13,
                    "methodDecoded": true,
                    "operation": "CALL",
                    "output": "0x0000000000000000000000000000000000000000000000000000000000000001",
                    "revert": false,
                    "revertMessage": "",
                    "selector": "0x23b872dd",
                    "status": true,
                    "value": "0"
                },
                "nodeType": 0
            },
            "14": {
                "invocation": {
                    "address": "0x6863b549bf730863157318df4496ed111adfa64f",
                    "callData": "0x",
                    "decodedMethod": {
                        "callParams": [],
                        "constructorArguments": "",
                        "name": "owner",
                        "returnParams": [
                            {
                                "name": "",
                                "type": "address",
                                "value": "0x5575406ef6b15eec1986c412b9fbe144522c45ae"
                            }
                        ],
                        "signature": "owner()"
                    },
                    "errorInfo": "",
                    "fromAddress": "0xcff086ead392ccb39c49ecda8c974ad5238452ac",
                    "gasUsed": 1311,
                    "id": 14,
                    "methodDecoded": true,
                    "operation": "STATICCALL",
                    "output": "0x0000000000000000000000005575406ef6b15eec1986c412b9fbe144522c45ae",
                    "revert": false,
                    "revertMessage": "",
                    "selector": "0x8da5cb5b",
                    "status": true,
                    "value": "0"
                },
                "nodeType": 0
            },
            "15": {
                "event": {
                    "contract": "0xcff086ead392ccb39c49ecda8c974ad5238452ac",
                    "decodedLog": {
                        "name": "Transfer",
                        "params": [
                            {
                                "name": "from",
                                "type": "address",
                                "value": "0x00b433800970286cf08f34c96cf07f35412f1161"
                            },
                            {
                                "name": "to",
                                "type": "address",
                                "value": "0x5575406ef6b15eec1986c412b9fbe144522c45ae"
                            },
                            {
                                "decimalAvailable": true,
                                "name": "value",
                                "type": "uint256",
                                "value": "310,344,736,073,087,429,864,760"
                            }
                        ],
                        "signature": "Transfer(address,address,uint256)"
                    },
                    "id": 15,
                    "logData": "0x0000000000000000000000000000000000000000000041b7d264fd973d1b6d38",
                    "logDecoded": true,
                    "operation": "EVENT",
                    "revert": false,
                    "status": true,
                    "topics": [
                        "0xddf252ad1be2c89b69c2b068fc378daa952ba7f163c4a11628f55a4df523b3ef",
                        "0x00000000000000000000000000b433800970286cf08f34c96cf07f35412f1161",
                        "0x0000000000000000000000005575406ef6b15eec1986c412b9fbe144522c45ae"
                    ]
                },
                "nodeType": 1
            },
            "16": {
                "invocation": {
                    "address": "0xf34c9a6aaac94022f96d4589b73d498491f817fa",
                    "callData": "0x000000000000000000000000fe6d6bc4ac1ed6dd6875ca8a9137760cb3a931df",
                    "decodedMethod": {
                        "callParams": [
                            {
                                "name": "",
                                "type": "address",
                                "value": "0xfe6d6bc4ac1ed6dd6875ca8a9137760cb3a931df"
                            }
                        ],
                        "constructorArguments": "",
                        "name": "balanceOf",
                        "returnParams": [
                            {
                                "decimalAvailable": true,
                                "name": "",
                                "type": "uint256",
                                "value": "0"
                            }
                        ],
                        "signature": "balanceOf(address)"
                    },
                    "errorInfo": "",
                    "fromAddress": "0xcff086ead392ccb39c49ecda8c974ad5238452ac",
                    "gasUsed": 1237,
                    "id": 16,
                    "methodDecoded": true,
                    "operation": "STATICCALL",
                    "output": "0x0000000000000000000000000000000000000000000000000000000000000000",
                    "revert": false,
                    "revertMessage": "",
                    "selector": "0x70a08231",
                    "status": true,
                    "value": "0"
                },
                "nodeType": 0
            },
            "17": {
                "invocation": {
                    "address": "0x10ed43c718714eb63d5aa57b78b54704e256024e",
                    "callData": "0x0000000000000000000000000000000000000000000041b7d264fd973d1b6d38000000000000000000000000000000000000000000000000000000000000000000000000000000000000000000000000000000000000000000000000000000a0000000000000000000000000d11a93a8db5f8d3fb03b88b4b24c3ed01b8a411c0000000000000000000000000000000000000000000000000000000063441bac0000000000000000000000000000000000000000000000000000000000000002000000000000000000000000cff086ead392ccb39c49ecda8c974ad5238452ac00000000000000000000000055d398326f99059ff775485246999027b3197955",
                    "decodedMethod": {
                        "callParams": [
                            {
                                "name": "amountIn",
                                "type": "uint256",
                                "value": "310,344,736,073,087,429,864,760"
                            },
                            {
                                "name": "amountOutMin",
                                "type": "uint256",
                                "value": "0"
                            },
                            {
                                "name": "path",
                                "type": "address[]",
                                "value": [
                                    "0xcff086ead392ccb39c49ecda8c974ad5238452ac",
                                    "0x55d398326f99059ff775485246999027b3197955"
                                ]
                            },
                            {
                                "name": "to",
                                "type": "address",
                                "value": "0xd11a93a8db5f8d3fb03b88b4b24c3ed01b8a411c"
                            },
                            {
                                "name": "deadline",
                                "type": "uint256",
                                "value": "1,665,407,916"
                            }
                        ],
                        "constructorArguments": "",
                        "name": "swapExactTokensForTokensSupportingFeeOnTransferTokens",
                        "returnParams": [],
                        "signature": "swapExactTokensForTokensSupportingFeeOnTransferTokens(uint256,uint256,address[],address,uint256)"
                    },
                    "errorInfo": "",
                    "fromAddress": "0x5575406ef6b15eec1986c412b9fbe144522c45ae",
                    "gasUsed": 234243,
                    "id": 17,
                    "methodDecoded": true,
                    "operation": "CALL",
                    "output": "",
                    "revert": false,
                    "revertMessage": "",
                    "selector": "0x5c11d795",
                    "status": true,
                    "value": "0"
                },
                "nodeType": 0
            },
            "18": {
                "invocation": {
                    "address": "0xcff086ead392ccb39c49ecda8c974ad5238452ac",
                    "callData": "0x0000000000000000000000005575406ef6b15eec1986c412b9fbe144522c45ae000000000000000000000000f34c9a6aaac94022f96d4589b73d498491f817fa0000000000000000000000000000000000000000000041b7d264fd973d1b6d38",
                    "decodedMethod": {
                        "callParams": [
                            {
                                "name": "sender",
                                "type": "address",
                                "value": "0x5575406ef6b15eec1986c412b9fbe144522c45ae"
                            },
                            {
                                "name": "recipient",
                                "type": "address",
                                "value": "0xf34c9a6aaac94022f96d4589b73d498491f817fa"
                            },
                            {
                                "decimalAvailable": true,
                                "name": "amount",
                                "type": "uint256",
                                "value": "310,344,736,073,087,429,864,760"
                            }
                        ],
                        "constructorArguments": "",
                        "name": "transferFrom",
                        "returnParams": [
                            {
                                "name": "",
                                "type": "bool",
                                "value": true
                            }
                        ],
                        "signature": "transferFrom(address,address,uint256)"
                    },
                    "errorInfo": "",
                    "fromAddress": "0x10ed43c718714eb63d5aa57b78b54704e256024e",
                    "gasUsed": 149466,
                    "id": 18,
                    "methodDecoded": true,
                    "operation": "CALL",
                    "output": "0x0000000000000000000000000000000000000000000000000000000000000001",
                    "revert": false,
                    "revertMessage": "",
                    "selector": "0x23b872dd",
                    "status": true,
                    "value": "0"
                },
                "nodeType": 0
            },
            "19": {
                "invocation": {
                    "address": "0x6863b549bf730863157318df4496ed111adfa64f",
                    "callData": "0x",
                    "decodedMethod": {
                        "callParams": [],
                        "constructorArguments": "",
                        "name": "owner",
                        "returnParams": [
                            {
                                "name": "",
                                "type": "address",
                                "value": "0x5575406ef6b15eec1986c412b9fbe144522c45ae"
                            }
                        ],
                        "signature": "owner()"
                    },
                    "errorInfo": "",
                    "fromAddress": "0xcff086ead392ccb39c49ecda8c974ad5238452ac",
                    "gasUsed": 1311,
                    "id": 19,
                    "methodDecoded": true,
                    "operation": "STATICCALL",
                    "output": "0x0000000000000000000000005575406ef6b15eec1986c412b9fbe144522c45ae",
                    "revert": false,
                    "revertMessage": "",
                    "selector": "0x8da5cb5b",
                    "status": true,
                    "value": "0"
                },
                "nodeType": 0
            },
            "2": {
                "invocation": {
                    "address": "0x5575406ef6b15eec1986c412b9fbe144522c45ae",
                    "callData": "0x000000000000000000000000000000000000000000000000000000000000002000000000000000000000000000000000000000000000000000000000000001fb554807e01fc1681fc1081ec24fe81fc14e1fc1881ec249e81ec24ac81ec24be81ec24ce81ec24de80cd487b8cea29bda84fbd401a492c4df029d6bcc1ae43fc1281fc50c4116effb0cd5d33b6de9186d05bdd53a1bc01509909b7947d452b79fb728d487b8cea29bda84fbd401a492c4df029d6bcc1ae43fc1281fc50c4116effb0cd558a50b8f503906fe7512ed3330fd0f4caa1e4a06b79fb728d487b8cea29bda84fbd401a492c4df029d6bcc1ae43fc1281fc5ccf333b0d71fc1681fc56cf721d3030cd41d3d0826bef916a451ce8c5af1b3a90c1a640de63f05d487b8cea29bda84fbd401a492c4df029d6bcc1ae43fc1281fc52c6bf03a950cd41d3d0826bef916a451ce8c5af1b3a90c1a640de60cd487b8cea29bda84fbd401a492c4df029d6bcc1ae43f09d487b8cea29bda84fbd401a492c4df029d6bcc1ae43fc1281fc52c6bf03a950dd3fc7bc841386024b8c77c8124b8377d096759290cd41d3d0826bef916a451ce8c5af1b3a90c1a640de616ca09ff9a2cb5df7553257028d458a50b8f503906fe7512ed3330fd0f4caa1e4a063fc1281ec6494c14599fdd16ca09ff9a2cb5df755325703fc1e80cd49952dbe09317c577f873c0fcfa04769853c209541cc42b0c53e41fc14a0cd487b8cea29bda84fbd401a492c4df029d6bcc1ae40cd41d9bd07a27d14dd7bf3d001a0ed1d86ffb51311d3c0000000000",
                    "decodedMethod": null,
                    "errorInfo": "",
                    "fromAddress": "0x5575406ef6b15eec1986c412b9fbe144522c45ae",
                    "gasUsed": 534320,
                    "id": 2,
                    "methodDecoded": false,
                    "operation": "CALL",
                    "output": "",
                    "revert": false,
                    "revertMessage": "",
                    "selector": "0x8d3360cc",
                    "status": true,
                    "value": "0"
                },
                "nodeType": 0
            },
            "20": {
                "invocation": {
                    "address": "0x55d398326f99059ff775485246999027b3197955",
                    "callData": "0x000000000000000000000000cff086ead392ccb39c49ecda8c974ad5238452ac",
                    "decodedMethod": {
                        "callParams": [
                            {
                                "name": "account",
                                "type": "address",
                                "value": "0xcff086ead392ccb39c49ecda8c974ad5238452ac"
                            }
                        ],
                        "constructorArguments": "",
                        "name": "balanceOf",
                        "returnParams": [
                            {
                                "decimalAvailable": true,
                                "name": "",
                                "type": "uint256",
                                "value": "35,992,633,407,838,046"
                            }
                        ],
                        "signature": "balanceOf(address)"
                    },
                    "errorInfo": "",
                    "fromAddress": "0xcff086ead392ccb39c49ecda8c974ad5238452ac",
                    "gasUsed": 1231,
                    "id": 20,
                    "methodDecoded": true,
                    "operation": "STATICCALL",
                    "output": "0x000000000000000000000000000000000000000000000000007fdf1c00ce175e",
                    "revert": false,
                    "revertMessage": "",
                    "selector": "0x70a08231",
                    "status": true,
                    "value": "0"
                },
                "nodeType": 0
            },
            "21": {
                "event": {
                    "contract": "0xcff086ead392ccb39c49ecda8c974ad5238452ac",
                    "decodedLog": {
                        "name": "Transfer",
                        "params": [
                            {
                                "name": "from",
                                "type": "address",
                                "value": "0x5575406ef6b15eec1986c412b9fbe144522c45ae"
                            },
                            {
                                "name": "to",
                                "type": "address",
                                "value": "0x000000000000000000000000000000000000dead"
                            },
                            {
                                "decimalAvailable": true,
                                "name": "value",
                                "type": "uint256",
                                "value": "1,551,723,680,365,437,149,320"
                            }
                        ],
                        "signature": "Transfer(address,address,uint256)"
                    },
                    "id": 21,
                    "logData": "0x0000000000000000000000000000000000000000000000541e7df1e86faa6088",
                    "logDecoded": true,
                    "operation": "EVENT",
                    "revert": false,
                    "status": true,
                    "topics": [
                        "0xddf252ad1be2c89b69c2b068fc378daa952ba7f163c4a11628f55a4df523b3ef",
                        "0x0000000000000000000000005575406ef6b15eec1986c412b9fbe144522c45ae",
                        "0x000000000000000000000000000000000000000000000000000000000000dead"
                    ]
                },
                "nodeType": 1
            },
            "22": {
                "event": {
                    "contract": "0xcff086ead392ccb39c49ecda8c974ad5238452ac",
                    "decodedLog": {
                        "name": "Transfer",
                        "params": [
                            {
                                "name": "from",
                                "type": "address",
                                "value": "0x5575406ef6b15eec1986c412b9fbe144522c45ae"
                            },
                            {
                                "name": "to",
                                "type": "address",
                                "value": "0xcff086ead392ccb39c49ecda8c974ad5238452ac"
                            },
                            {
                                "decimalAvailable": true,
                                "name": "value",
                                "type": "uint256",
                                "value": "10,862,065,762,558,060,045,240"
                            }
                        ],
                        "signature": "Transfer(address,address,uint256)"
                    },
                    "id": 22,
                    "logData": "0x00000000000000000000000000000000000000000000024cd5719d5b0da8a3b8",
                    "logDecoded": true,
                    "operation": "EVENT",
                    "revert": false,
                    "status": true,
                    "topics": [
                        "0xddf252ad1be2c89b69c2b068fc378daa952ba7f163c4a11628f55a4df523b3ef",
                        "0x0000000000000000000000005575406ef6b15eec1986c412b9fbe144522c45ae",
                        "0x000000000000000000000000cff086ead392ccb39c49ecda8c974ad5238452ac"
                    ]
                },
                "nodeType": 1
            },
            "23": {
                "event": {
                    "contract": "0xcff086ead392ccb39c49ecda8c974ad5238452ac",
                    "decodedLog": {
                        "name": "Transfer",
                        "params": [
                            {
                                "name": "from",
                                "type": "address",
                                "value": "0x5575406ef6b15eec1986c412b9fbe144522c45ae"
                            },
                            {
                                "name": "to",
                                "type": "address",
                                "value": "0x00b433800970286cf08f34c96cf07f35412f1161"
                            },
                            {
                                "decimalAvailable": true,
                                "name": "value",
                                "type": "uint256",
                                "value": "4,655,171,041,096,311,447,960"
                            }
                        ],
                        "signature": "Transfer(address,address,uint256)"
                    },
                    "id": 23,
                    "logData": "0x0000000000000000000000000000000000000000000000fc5b79d5b94eff2198",
                    "logDecoded": true,
                    "operation": "EVENT",
                    "revert": false,
                    "status": true,
                    "topics": [
                        "0xddf252ad1be2c89b69c2b068fc378daa952ba7f163c4a11628f55a4df523b3ef",
                        "0x0000000000000000000000005575406ef6b15eec1986c412b9fbe144522c45ae",
                        "0x00000000000000000000000000b433800970286cf08f34c96cf07f35412f1161"
                    ]
                },
                "nodeType": 1
            },
            "24": {
                "event": {
                    "contract": "0xcff086ead392ccb39c49ecda8c974ad5238452ac",
                    "decodedLog": {
                        "name": "Transfer",
                        "params": [
                            {
                                "name": "from",
                                "type": "address",
                                "value": "0x5575406ef6b15eec1986c412b9fbe144522c45ae"
                            },
                            {
                                "name": "to",
                                "type": "address",
                                "value": "0x0c5390550538ef0215463b1e68524ea11bd1b3b3"
                            },
                            {
                                "decimalAvailable": true,
                                "name": "value",
                                "type": "uint256",
                                "value": "1,551,723,680,365,437,149,320"
                            }
                        ],
                        "signature": "Transfer(address,address,uint256)"
                    },
                    "id": 24,
                    "logData": "0x0000000000000000000000000000000000000000000000541e7df1e86faa6088",
                    "logDecoded": true,
                    "operation": "EVENT",
                    "revert": false,
                    "status": true,
                    "topics": [
                        "0xddf252ad1be2c89b69c2b068fc378daa952ba7f163c4a11628f55a4df523b3ef",
                        "0x0000000000000000000000005575406ef6b15eec1986c412b9fbe144522c45ae",
                        "0x0000000000000000000000000c5390550538ef0215463b1e68524ea11bd1b3b3"
                    ]
                },
                "nodeType": 1
            },
            "25": {
                "event": {
                    "contract": "0xcff086ead392ccb39c49ecda8c974ad5238452ac",
                    "decodedLog": {
                        "name": "Transfer",
                        "params": [
                            {
                                "name": "from",
                                "type": "address",
                                "value": "0x5575406ef6b15eec1986c412b9fbe144522c45ae"
                            },
                            {
                                "name": "to",
                                "type": "address",
                                "value": "0xf34c9a6aaac94022f96d4589b73d498491f817fa"
                            },
                            {
                                "decimalAvailable": true,
                                "name": "value",
                                "type": "uint256",
                                "value": "291,724,051,908,702,184,072,160"
                            }
                        ],
                        "signature": "Transfer(address,address,uint256)"
                    },
                    "id": 25,
                    "logData": "0x000000000000000000000000000000000000000000003dc6647da6b2011ee3e0",
                    "logDecoded": true,
                    "operation": "EVENT",
                    "revert": false,
                    "status": true,
                    "topics": [
                        "0xddf252ad1be2c89b69c2b068fc378daa952ba7f163c4a11628f55a4df523b3ef",
                        "0x0000000000000000000000005575406ef6b15eec1986c412b9fbe144522c45ae",
                        "0x000000000000000000000000f34c9a6aaac94022f96d4589b73d498491f817fa"
                    ]
                },
                "nodeType": 1
            },
            "26": {
                "invocation": {
                    "address": "0xf34c9a6aaac94022f96d4589b73d498491f817fa",
                    "callData": "0x00000000000000000000000000b433800970286cf08f34c96cf07f35412f1161",
                    "decodedMethod": {
                        "callParams": [
                            {
                                "name": "",
                                "type": "address",
                                "value": "0x00b433800970286cf08f34c96cf07f35412f1161"
                            }
                        ],
                        "constructorArguments": "",
                        "name": "balanceOf",
                        "returnParams": [
                            {
                                "decimalAvailable": true,
                                "name": "",
                                "type": "uint256",
                                "value": "0"
                            }
                        ],
                        "signature": "balanceOf(address)"
                    },
                    "errorInfo": "",
                    "fromAddress": "0xcff086ead392ccb39c49ecda8c974ad5238452ac",
                    "gasUsed": 1237,
                    "id": 26,
                    "methodDecoded": true,
                    "operation": "STATICCALL",
                    "output": "0x0000000000000000000000000000000000000000000000000000000000000000",
                    "revert": false,
                    "revertMessage": "",
                    "selector": "0x70a08231",
                    "status": true,
                    "value": "0"
                },
                "nodeType": 0
            },
            "27": {
                "invocation": {
                    "address": "0xf34c9a6aaac94022f96d4589b73d498491f817fa",
                    "callData": "0x0000000000000000000000005575406ef6b15eec1986c412b9fbe144522c45ae",
                    "decodedMethod": {
                        "callParams": [
                            {
                                "name": "",
                                "type": "address",
                                "value": "0x5575406ef6b15eec1986c412b9fbe144522c45ae"
                            }
                        ],
                        "constructorArguments": "",
                        "name": "balanceOf",
                        "returnParams": [
                            {
                                "decimalAvailable": true,
                                "name": "",
                                "type": "uint256",
                                "value": "0"
                            }
                        ],
                        "signature": "balanceOf(address)"
                    },
                    "errorInfo": "",
                    "fromAddress": "0xcff086ead392ccb39c49ecda8c974ad5238452ac",
                    "gasUsed": 1237,
                    "id": 27,
                    "methodDecoded": true,
                    "operation": "STATICCALL",
                    "output": "0x0000000000000000000000000000000000000000000000000000000000000000",
                    "revert": false,
                    "revertMessage": "",
                    "selector": "0x70a08231",
                    "status": true,
                    "value": "0"
                },
                "nodeType": 0
            },
            "28": {
                "event": {
                    "contract": "0xcff086ead392ccb39c49ecda8c974ad5238452ac",
                    "decodedLog": {
                        "name": "Approval",
                        "params": [
                            {
                                "name": "owner",
                                "type": "address",
                                "value": "0x5575406ef6b15eec1986c412b9fbe144522c45ae"
                            },
                            {
                                "name": "spender",
                                "type": "address",
                                "value": "0x10ed43c718714eb63d5aa57b78b54704e256024e"
                            },
                            {
                                "decimalAvailable": true,
                                "name": "value",
                                "type": "uint256",
                                "value": "115,792,089,237,316,195,423,570,985,008,687,907,853,269,984,665,640,563,729,112,847,934,825,699,775,175"
                            }
                        ],
                        "signature": "Approval(address,address,uint256)"
                    },
                    "id": 28,
                    "logData": "0xffffffffffffffffffffffffffffffffffffffffffffbe482d9b0268c2e492c7",
                    "logDecoded": true,
                    "operation": "EVENT",
                    "revert": false,
                    "status": true,
                    "topics": [
                        "0x8c5be1e5ebec7d5bd14f71427d1e84f3dd0314c0f7b2291e5b200ac8c7c3b925",
                        "0x0000000000000000000000005575406ef6b15eec1986c412b9fbe144522c45ae",
                        "0x00000000000000000000000010ed43c718714eb63d5aa57b78b54704e256024e"
                    ]
                },
                "nodeType": 1
            },
            "29": {
                "invocation": {
                    "address": "0x55d398326f99059ff775485246999027b3197955",
                    "callData": "0x000000000000000000000000d11a93a8db5f8d3fb03b88b4b24c3ed01b8a411c",
                    "decodedMethod": {
                        "callParams": [
                            {
                                "name": "account",
                                "type": "address",
                                "value": "0xd11a93a8db5f8d3fb03b88b4b24c3ed01b8a411c"
                            }
                        ],
                        "constructorArguments": "",
                        "name": "balanceOf",
                        "returnParams": [
                            {
                                "decimalAvailable": true,
                                "name": "",
                                "type": "uint256",
                                "value": "60,664,347,882,377,181,660"
                            }
                        ],
                        "signature": "balanceOf(address)"
                    },
                    "errorInfo": "",
                    "fromAddress": "0x10ed43c718714eb63d5aa57b78b54704e256024e",
                    "gasUsed": 1231,
                    "id": 29,
                    "methodDecoded": true,
                    "operation": "STATICCALL",
                    "output": "0x00000000000000000000000000000000000000000000000349e30efc4bcff9dc",
                    "revert": false,
                    "revertMessage": "",
                    "selector": "0x70a08231",
                    "status": true,
                    "value": "0"
                },
                "nodeType": 0
            },
            "3": {
                "invocation": {
                    "address": "0xc422f23102bf2eeb237a8f7789be6a6be3e4a251",
                    "callData": "0x000000000000000000000000000000000000000000000000000000000000002000000000000000000000000000000000000000000000000000000000000001fb554807e01fc1681fc1081ec24fe81fc14e1fc1881ec249e81ec24ac81ec24be81ec24ce81ec24de80cd487b8cea29bda84fbd401a492c4df029d6bcc1ae43fc1281fc50c4116effb0cd5d33b6de9186d05bdd53a1bc01509909b7947d452b79fb728d487b8cea29bda84fbd401a492c4df029d6bcc1ae43fc1281fc50c4116effb0cd558a50b8f503906fe7512ed3330fd0f4caa1e4a06b79fb728d487b8cea29bda84fbd401a492c4df029d6bcc1ae43fc1281fc5ccf333b0d71fc1681fc56cf721d3030cd41d3d0826bef916a451ce8c5af1b3a90c1a640de63f05d487b8cea29bda84fbd401a492c4df029d6bcc1ae43fc1281fc52c6bf03a950cd41d3d0826bef916a451ce8c5af1b3a90c1a640de60cd487b8cea29bda84fbd401a492c4df029d6bcc1ae43f09d487b8cea29bda84fbd401a492c4df029d6bcc1ae43fc1281fc52c6bf03a950dd3fc7bc841386024b8c77c8124b8377d096759290cd41d3d0826bef916a451ce8c5af1b3a90c1a640de616ca09ff9a2cb5df7553257028d458a50b8f503906fe7512ed3330fd0f4caa1e4a063fc1281ec6494c14599fdd16ca09ff9a2cb5df755325703fc1e80cd49952dbe09317c577f873c0fcfa04769853c209541cc42b0c53e41fc14a0cd487b8cea29bda84fbd401a492c4df029d6bcc1ae40cd41d9bd07a27d14dd7bf3d001a0ed1d86ffb51311d3c0000000000",
                    "decodedMethod": null,
                    "errorInfo": "",
                    "fromAddress": "0x5575406ef6b15eec1986c412b9fbe144522c45ae",
                    "gasUsed": 533444,
                    "id": 3,
                    "methodDecoded": false,
                    "operation": "DELEGATECALL",
                    "output": "",
                    "revert": false,
                    "revertMessage": "",
                    "selector": "0x8d3360cc",
                    "status": true,
                    "value": "0"
                },
                "nodeType": 0
            },
            "30": {
                "invocation": {
                    "address": "0xf34c9a6aaac94022f96d4589b73d498491f817fa",
                    "callData": "0x",
                    "decodedMethod": {
                        "callParams": [],
                        "constructorArguments": "",
                        "name": "getReserves",
                        "returnParams": [
                            {
                                "name": "_reserve0",
                                "type": "uint112",
                                "value": "48,209,498,833,902,838,587,795"
                            },
                            {
                                "name": "_reserve1",
                                "type": "uint112",
                                "value": "156,946,686,774,517,272,515,294"
                            },
                            {
                                "name": "_blockTimestampLast",
                                "type": "uint32",
                                "value": "1,665,406,418"
                            }
                        ],
                        "signature": "getReserves()"
                    },
                    "errorInfo": "",
                    "fromAddress": "0x10ed43c718714eb63d5aa57b78b54704e256024e",
                    "gasUsed": 2993,
                    "id": 30,
                    "methodDecoded": true,
                    "operation": "STATICCALL",
                    "output": "0x000000000000000000000000000000000000000000000a357131f4901341a19300000000000000000000000000000000000000000000213c18d0f23d1fd992de00000000000000000000000000000000000000000000000000000000634415d2",
                    "revert": false,
                    "revertMessage": "",
                    "selector": "0x0902f1ac",
                    "status": true,
                    "value": "0"
                },
                "nodeType": 0
            },
            "31": {
                "invocation": {
                    "address": "0xcff086ead392ccb39c49ecda8c974ad5238452ac",
                    "callData": "0x000000000000000000000000f34c9a6aaac94022f96d4589b73d498491f817fa",
                    "decodedMethod": {
                        "callParams": [
                            {
                                "name": "account",
                                "type": "address",
                                "value": "0xf34c9a6aaac94022f96d4589b73d498491f817fa"
                            }
                        ],
                        "constructorArguments": "",
                        "name": "balanceOf",
                        "returnParams": [
                            {
                                "decimalAvailable": true,
                                "name": "",
                                "type": "uint256",
                                "value": "448,670,738,683,219,456,587,454"
                            }
                        ],
                        "signature": "balanceOf(address)"
                    },
                    "errorInfo": "",
                    "fromAddress": "0x10ed43c718714eb63d5aa57b78b54704e256024e",
                    "gasUsed": 1608,
                    "id": 31,
                    "methodDecoded": true,
                    "operation": "STATICCALL",
                    "output": "0x000000000000000000000000000000000000000000005f027d4e98ef20f876be",
                    "revert": false,
                    "revertMessage": "",
                    "selector": "0x70a08231",
                    "status": true,
                    "value": "0"
                },
                "nodeType": 0
            },
            "32": {
                "invocation": {
                    "address": "0xf34c9a6aaac94022f96d4589b73d498491f817fa",
                    "callData": "0x0000000000000000000000000000000000000000000006a1c31175b8ce07b6a40000000000000000000000000000000000000000000000000000000000000000000000000000000000000000d11a93a8db5f8d3fb03b88b4b24c3ed01b8a411c00000000000000000000000000000000000000000000000000000000000000800000000000000000000000000000000000000000000000000000000000000000",
                    "decodedMethod": {
                        "callParams": [
                            {
                                "name": "amount0Out",
                                "type": "uint256",
                                "value": "31,318,180,838,433,700,165,284"
                            },
                            {
                                "name": "amount1Out",
                                "type": "uint256",
                                "value": "0"
                            },
                            {
                                "name": "to",
                                "type": "address",
                                "value": "0xd11a93a8db5f8d3fb03b88b4b24c3ed01b8a411c"
                            },
                            {
                                "name": "data",
                                "type": "bytes",
                                "value": "0x"
                            }
                        ],
                        "constructorArguments": "",
                        "name": "swap",
                        "returnParams": [],
                        "signature": "swap(uint256,uint256,address,bytes)"
                    },
                    "errorInfo": "",
                    "fromAddress": "0x10ed43c718714eb63d5aa57b78b54704e256024e",
                    "gasUsed": 63922,
                    "id": 32,
                    "methodDecoded": true,
                    "operation": "CALL",
                    "output": "",
                    "revert": false,
                    "revertMessage": "",
                    "selector": "0x022c0d9f",
                    "status": true,
                    "value": "0"
                },
                "nodeType": 0
            },
            "33": {
                "invocation": {
                    "address": "0x55d398326f99059ff775485246999027b3197955",
                    "callData": "0x000000000000000000000000d11a93a8db5f8d3fb03b88b4b24c3ed01b8a411c0000000000000000000000000000000000000000000006a1c31175b8ce07b6a4",
                    "decodedMethod": {
                        "callParams": [
                            {
                                "name": "recipient",
                                "type": "address",
                                "value": "0xd11a93a8db5f8d3fb03b88b4b24c3ed01b8a411c"
                            },
                            {
                                "decimalAvailable": true,
                                "name": "amount",
                                "type": "uint256",
                                "value": "31,318,180,838,433,700,165,284"
                            }
                        ],
                        "constructorArguments": "",
                        "name": "transfer",
                        "returnParams": [
                            {
                                "name": "",
                                "type": "bool",
                                "value": true
                            }
                        ],
                        "signature": "transfer(address,uint256)"
                    },
                    "errorInfo": "",
                    "fromAddress": "0xf34c9a6aaac94022f96d4589b73d498491f817fa",
                    "gasUsed": 14471,
                    "id": 33,
                    "methodDecoded": true,
                    "operation": "CALL",
                    "output": "0x0000000000000000000000000000000000000000000000000000000000000001",
                    "revert": false,
                    "revertMessage": "",
                    "selector": "0xa9059cbb",
                    "status": true,
                    "value": "0"
                },
                "nodeType": 0
            },
            "34": {
                "event": {
                    "contract": "0x55d398326f99059ff775485246999027b3197955",
                    "decodedLog": {
                        "name": "Transfer",
                        "params": [
                            {
                                "name": "from",
                                "type": "address",
                                "value": "0xf34c9a6aaac94022f96d4589b73d498491f817fa"
                            },
                            {
                                "name": "to",
                                "type": "address",
                                "value": "0xd11a93a8db5f8d3fb03b88b4b24c3ed01b8a411c"
                            },
                            {
                                "decimalAvailable": true,
                                "name": "value",
                                "type": "uint256",
                                "value": "31,318,180,838,433,700,165,284"
                            }
                        ],
                        "signature": "Transfer(address,address,uint256)"
                    },
                    "id": 34,
                    "logData": "0x0000000000000000000000000000000000000000000006a1c31175b8ce07b6a4",
                    "logDecoded": true,
                    "operation": "EVENT",
                    "revert": false,
                    "status": true,
                    "topics": [
                        "0xddf252ad1be2c89b69c2b068fc378daa952ba7f163c4a11628f55a4df523b3ef",
                        "0x000000000000000000000000f34c9a6aaac94022f96d4589b73d498491f817fa",
                        "0x000000000000000000000000d11a93a8db5f8d3fb03b88b4b24c3ed01b8a411c"
                    ]
                },
                "nodeType": 1
            },
            "35": {
                "invocation": {
                    "address": "0x55d398326f99059ff775485246999027b3197955",
                    "callData": "0x000000000000000000000000f34c9a6aaac94022f96d4589b73d498491f817fa",
                    "decodedMethod": {
                        "callParams": [
                            {
                                "name": "account",
                                "type": "address",
                                "value": "0xf34c9a6aaac94022f96d4589b73d498491f817fa"
                            }
                        ],
                        "constructorArguments": "",
                        "name": "balanceOf",
                        "returnParams": [
                            {
                                "decimalAvailable": true,
                                "name": "",
                                "type": "uint256",
                                "value": "16,891,317,995,469,138,422,511"
                            }
                        ],
                        "signature": "balanceOf(address)"
                    },
                    "errorInfo": "",
                    "fromAddress": "0xf34c9a6aaac94022f96d4589b73d498491f817fa",
                    "gasUsed": 1231,
                    "id": 35,
                    "methodDecoded": true,
                    "operation": "STATICCALL",
                    "output": "0x000000000000000000000000000000000000000000000393ae207ed74539eaef",
                    "revert": false,
                    "revertMessage": "",
                    "selector": "0x70a08231",
                    "status": true,
                    "value": "0"
                },
                "nodeType": 0
            },
            "36": {
                "invocation": {
                    "address": "0xcff086ead392ccb39c49ecda8c974ad5238452ac",
                    "callData": "0x000000000000000000000000f34c9a6aaac94022f96d4589b73d498491f817fa",
                    "decodedMethod": {
                        "callParams": [
                            {
                                "name": "account",
                                "type": "address",
                                "value": "0xf34c9a6aaac94022f96d4589b73d498491f817fa"
                            }
                        ],
                        "constructorArguments": "",
                        "name": "balanceOf",
                        "returnParams": [
                            {
                                "decimalAvailable": true,
                                "name": "",
                                "type": "uint256",
                                "value": "448,670,738,683,219,456,587,454"
                            }
                        ],
                        "signature": "balanceOf(address)"
                    },
                    "errorInfo": "",
                    "fromAddress": "0xf34c9a6aaac94022f96d4589b73d498491f817fa",
                    "gasUsed": 1608,
                    "id": 36,
                    "methodDecoded": true,
                    "operation": "STATICCALL",
                    "output": "0x000000000000000000000000000000000000000000005f027d4e98ef20f876be",
                    "revert": false,
                    "revertMessage": "",
                    "selector": "0x70a08231",
                    "status": true,
                    "value": "0"
                },
                "nodeType": 0
            },
            "37": {
                "event": {
                    "contract": "0xf34c9a6aaac94022f96d4589b73d498491f817fa",
                    "decodedLog": {
                        "name": "Sync",
                        "params": [
                            {
                                "name": "reserve0",
                                "type": "uint112",
                                "value": "16,891,317,995,469,138,422,511"
                            },
                            {
                                "name": "reserve1",
                                "type": "uint112",
                                "value": "448,670,738,683,219,456,587,454"
                            }
                        ],
                        "signature": "Sync(uint112,uint112)"
                    },
                    "id": 37,
                    "logData": "0x000000000000000000000000000000000000000000000393ae207ed74539eaef000000000000000000000000000000000000000000005f027d4e98ef20f876be",
                    "logDecoded": true,
                    "operation": "EVENT",
                    "revert": false,
                    "status": true,
                    "topics": [
                        "0x1c411e9a96e071241c2f21f7726b17ae89e3cab4c78be50e062b03a9fffbbad1"
                    ]
                },
                "nodeType": 1
            },
            "38": {
                "event": {
                    "contract": "0xf34c9a6aaac94022f96d4589b73d498491f817fa",
                    "decodedLog": {
                        "name": "Swap",
                        "params": [
                            {
                                "name": "sender",
                                "type": "address",
                                "value": "0x10ed43c718714eb63d5aa57b78b54704e256024e"
                            },
                            {
                                "name": "to",
                                "type": "address",
                                "value": "0xd11a93a8db5f8d3fb03b88b4b24c3ed01b8a411c"
                            },
                            {
                                "name": "amount0In",
                                "type": "uint256",
                                "value": "0"
                            },
                            {
                                "name": "amount1In",
                                "type": "uint256",
                                "value": "291,724,051,908,702,184,072,160"
                            },
                            {
                                "name": "amount0Out",
                                "type": "uint256",
                                "value": "31,318,180,838,433,700,165,284"
                            },
                            {
                                "name": "amount1Out",
                                "type": "uint256",
                                "value": "0"
                            }
                        ],
                        "signature": "Swap(address,uint256,uint256,uint256,uint256,address)"
                    },
                    "id": 38,
                    "logData": "0x0000000000000000000000000000000000000000000000000000000000000000000000000000000000000000000000000000000000003dc6647da6b2011ee3e00000000000000000000000000000000000000000000006a1c31175b8ce07b6a40000000000000000000000000000000000000000000000000000000000000000",
                    "logDecoded": true,
                    "operation": "EVENT",
                    "revert": false,
                    "status": true,
                    "topics": [
                        "0xd78ad95fa46c994b6551d0da85fc275fe613ce37657fb8d5e3d130840159d822",
                        "0x00000000000000000000000010ed43c718714eb63d5aa57b78b54704e256024e",
                        "0x000000000000000000000000d11a93a8db5f8d3fb03b88b4b24c3ed01b8a411c"
                    ]
                },
                "nodeType": 1
            },
            "39": {
                "invocation": {
                    "address": "0x55d398326f99059ff775485246999027b3197955",
                    "callData": "0x000000000000000000000000d11a93a8db5f8d3fb03b88b4b24c3ed01b8a411c",
                    "decodedMethod": {
                        "callParams": [
                            {
                                "name": "account",
                                "type": "address",
                                "value": "0xd11a93a8db5f8d3fb03b88b4b24c3ed01b8a411c"
                            }
                        ],
                        "constructorArguments": "",
                        "name": "balanceOf",
                        "returnParams": [
                            {
                                "decimalAvailable": true,
                                "name": "",
                                "type": "uint256",
                                "value": "31,378,845,186,316,077,346,944"
                            }
                        ],
                        "signature": "balanceOf(address)"
                    },
                    "errorInfo": "",
                    "fromAddress": "0x10ed43c718714eb63d5aa57b78b54704e256024e",
                    "gasUsed": 1231,
                    "id": 39,
                    "methodDecoded": true,
                    "operation": "STATICCALL",
                    "output": "0x0000000000000000000000000000000000000000000006a50cf484b519d7b080",
                    "revert": false,
                    "revertMessage": "",
                    "selector": "0x70a08231",
                    "status": true,
                    "value": "0"
                },
                "nodeType": 0
            },
            "4": {
                "invocation": {
                    "address": "0xcff086ead392ccb39c49ecda8c974ad5238452ac",
                    "callData": "0x0000000000000000000000009b7325a150254df59d7253885d41d8d3310f9c1affffffffffffffffffffffffffffffffffffffffffffffffffffffffffffffff",
                    "decodedMethod": {
                        "callParams": [
                            {
                                "name": "spender",
                                "type": "address",
                                "value": "0x9b7325a150254df59d7253885d41d8d3310f9c1a"
                            },
                            {
                                "decimalAvailable": true,
                                "name": "amount",
                                "type": "uint256",
                                "value": "115,792,089,237,316,195,423,570,985,008,687,907,853,269,984,665,640,564,039,457,584,007,913,129,639,935"
                            }
                        ],
                        "constructorArguments": "",
                        "name": "approve",
                        "returnParams": [
                            {
                                "name": "",
                                "type": "bool",
                                "value": true
                            }
                        ],
                        "signature": "approve(address,uint256)"
                    },
                    "errorInfo": "",
                    "fromAddress": "0x5575406ef6b15eec1986c412b9fbe144522c45ae",
                    "gasUsed": 23195,
                    "id": 4,
                    "methodDecoded": true,
                    "operation": "CALL",
                    "output": "0x0000000000000000000000000000000000000000000000000000000000000001",
                    "revert": false,
                    "revertMessage": "",
                    "selector": "0x095ea7b3",
                    "status": true,
                    "value": "0"
                },
                "nodeType": 0
            },
            "5": {
                "event": {
                    "contract": "0xcff086ead392ccb39c49ecda8c974ad5238452ac",
                    "decodedLog": {
                        "name": "Approval",
                        "params": [
                            {
                                "name": "owner",
                                "type": "address",
                                "value": "0x5575406ef6b15eec1986c412b9fbe144522c45ae"
                            },
                            {
                                "name": "spender",
                                "type": "address",
                                "value": "0x9b7325a150254df59d7253885d41d8d3310f9c1a"
                            },
                            {
                                "decimalAvailable": true,
                                "name": "value",
                                "type": "uint256",
                                "value": "115,792,089,237,316,195,423,570,985,008,687,907,853,269,984,665,640,564,039,457,584,007,913,129,639,935"
                            }
                        ],
                        "signature": "Approval(address,address,uint256)"
                    },
                    "id": 5,
                    "logData": "0xffffffffffffffffffffffffffffffffffffffffffffffffffffffffffffffff",
                    "logDecoded": true,
                    "operation": "EVENT",
                    "revert": false,
                    "status": true,
                    "topics": [
                        "0x8c5be1e5ebec7d5bd14f71427d1e84f3dd0314c0f7b2291e5b200ac8c7c3b925",
                        "0x0000000000000000000000005575406ef6b15eec1986c412b9fbe144522c45ae",
                        "0x0000000000000000000000009b7325a150254df59d7253885d41d8d3310f9c1a"
                    ]
                },
                "nodeType": 1
            },
            "6": {
                "invocation": {
                    "address": "0xcff086ead392ccb39c49ecda8c974ad5238452ac",
                    "callData": "0x00000000000000000000000010ed43c718714eb63d5aa57b78b54704e256024effffffffffffffffffffffffffffffffffffffffffffffffffffffffffffffff",
                    "decodedMethod": {
                        "callParams": [
                            {
                                "name": "spender",
                                "type": "address",
                                "value": "0x10ed43c718714eb63d5aa57b78b54704e256024e"
                            },
                            {
                                "decimalAvailable": true,
                                "name": "amount",
                                "type": "uint256",
                                "value": "115,792,089,237,316,195,423,570,985,008,687,907,853,269,984,665,640,564,039,457,584,007,913,129,639,935"
                            }
                        ],
                        "constructorArguments": "",
                        "name": "approve",
                        "returnParams": [
                            {
                                "name": "",
                                "type": "bool",
                                "value": true
                            }
                        ],
                        "signature": "approve(address,uint256)"
                    },
                    "errorInfo": "",
                    "fromAddress": "0x5575406ef6b15eec1986c412b9fbe144522c45ae",
                    "gasUsed": 23195,
                    "id": 6,
                    "methodDecoded": true,
                    "operation": "CALL",
                    "output": "0x0000000000000000000000000000000000000000000000000000000000000001",
                    "revert": false,
                    "revertMessage": "",
                    "selector": "0x095ea7b3",
                    "status": true,
                    "value": "0"
                },
                "nodeType": 0
            },
            "7": {
                "event": {
                    "contract": "0xcff086ead392ccb39c49ecda8c974ad5238452ac",
                    "decodedLog": {
                        "name": "Approval",
                        "params": [
                            {
                                "name": "owner",
                                "type": "address",
                                "value": "0x5575406ef6b15eec1986c412b9fbe144522c45ae"
                            },
                            {
                                "name": "spender",
                                "type": "address",
                                "value": "0x10ed43c718714eb63d5aa57b78b54704e256024e"
                            },
                            {
                                "decimalAvailable": true,
                                "name": "value",
                                "type": "uint256",
                                "value": "115,792,089,237,316,195,423,570,985,008,687,907,853,269,984,665,640,564,039,457,584,007,913,129,639,935"
                            }
                        ],
                        "signature": "Approval(address,address,uint256)"
                    },
                    "id": 7,
                    "logData": "0xffffffffffffffffffffffffffffffffffffffffffffffffffffffffffffffff",
                    "logDecoded": true,
                    "operation": "EVENT",
                    "revert": false,
                    "status": true,
                    "topics": [
                        "0x8c5be1e5ebec7d5bd14f71427d1e84f3dd0314c0f7b2291e5b200ac8c7c3b925",
                        "0x0000000000000000000000005575406ef6b15eec1986c412b9fbe144522c45ae",
                        "0x00000000000000000000000010ed43c718714eb63d5aa57b78b54704e256024e"
                    ]
                },
                "nodeType": 1
            },
            "8": {
                "invocation": {
                    "address": "0xcff086ead392ccb39c49ecda8c974ad5238452ac",
                    "callData": "0x00000000000000000000000000000000000000000000000000000000000000200000000000000000000000000000000000000000000000000000000000000024bf699b4b0000000000000000000000005575406ef6b15eec1986c412b9fbe144522c45ae00000000000000000000000000000000000000000000000000000000",
                    "decodedMethod": {
                        "callParams": [
                            {
                                "name": "data",
                                "type": "bytes",
                                "value": "0xbf699b4b0000000000000000000000005575406ef6b15eec1986c412b9fbe144522c45ae"
                            }
                        ],
                        "constructorArguments": "",
                        "name": "transReward",
                        "returnParams": [],
                        "signature": "transReward(bytes)"
                    },
                    "errorInfo": "",
                    "fromAddress": "0x5575406ef6b15eec1986c412b9fbe144522c45ae",
                    "gasUsed": 15013,
                    "id": 8,
                    "methodDecoded": true,
                    "operation": "CALL",
                    "output": "",
                    "revert": false,
                    "revertMessage": "",
                    "selector": "0xbb7bf89f",
                    "status": true,
                    "value": "0"
                },
                "nodeType": 0
            },
            "9": {
                "invocation": {
                    "address": "0x6863b549bf730863157318df4496ed111adfa64f",
                    "callData": "0x0000000000000000000000005575406ef6b15eec1986c412b9fbe144522c45ae",
                    "decodedMethod": null,
                    "errorInfo": "",
                    "fromAddress": "0xcff086ead392ccb39c49ecda8c974ad5238452ac",
                    "gasUsed": 10679,
                    "id": 9,
                    "methodDecoded": false,
                    "operation": "CALL",
                    "output": "",
                    "revert": false,
                    "revertMessage": "",
                    "selector": "0xbf699b4b",
                    "status": true,
                    "value": "0"
                },
                "nodeType": 0
            }
        },
        "gasFlame": [
            {
                "children": [
                    {
                        "children": [
                            {
                                "children": [],
                                "depth": 0,
                                "name": "Initial Gas",
                                "value": 30392
                            },
                            {
                                "children": [
                                    {
                                        "children": [
                                            {
                                                "children": [
                                                    {
                                                        "children": [
                                                            {
                                                                "children": [],
                                                                "depth": 4,
                                                                "name": "approve",
                                                                "value": 23195
                                                            },
                                                            {
                                                                "children": [],
                                                                "depth": 4,
                                                                "name": "approve",
                                                                "value": 23195
                                                            },
                                                            {
                                                                "children": [
                                                                    {
                                                                        "children": [],
                                                                        "depth": 5,
                                                                        "name": "0xbf699b4b",
                                                                        "value": 10679
                                                                    }
                                                                ],
                                                                "depth": 4,
                                                                "name": "transReward",
                                                                "value": 15013
                                                            },
                                                            {
                                                                "children": [
                                                                    {
                                                                        "children": [],
                                                                        "depth": 5,
                                                                        "name": "owner",
                                                                        "value": 1311
                                                                    }
                                                                ],
                                                                "depth": 4,
                                                                "name": "transferFrom",
                                                                "value": 56510
                                                            },
                                                            {
                                                                "children": [
                                                                    {
                                                                        "children": [],
                                                                        "depth": 5,
                                                                        "name": "owner",
                                                                        "value": 1311
                                                                    },
                                                                    {
                                                                        "children": [],
                                                                        "depth": 5,
                                                                        "name": "balanceOf",
                                                                        "value": 1237
                                                                    }
                                                                ],
                                                                "depth": 4,
                                                                "name": "transferFrom",
                                                                "value": 104238
                                                            },
                                                            {
                                                                "children": [
                                                                    {
                                                                        "children": [
                                                                            {
                                                                                "children": [],
                                                                                "depth": 6,
                                                                                "name": "owner",
                                                                                "value": 1311
                                                                            },
                                                                            {
                                                                                "children": [],
                                                                                "depth": 6,
                                                                                "name": "balanceOf",
                                                                                "value": 1231
                                                                            },
                                                                            {
                                                                                "children": [],
                                                                                "depth": 6,
                                                                                "name": "balanceOf",
                                                                                "value": 1237
                                                                            },
                                                                            {
                                                                                "children": [],
                                                                                "depth": 6,
                                                                                "name": "balanceOf",
                                                                                "value": 1237
                                                                            }
                                                                        ],
                                                                        "depth": 5,
                                                                        "name": "transferFrom",
                                                                        "value": 149466
                                                                    },
                                                                    {
                                                                        "children": [],
                                                                        "depth": 5,
                                                                        "name": "balanceOf",
                                                                        "value": 1231
                                                                    },
                                                                    {
                                                                        "children": [],
                                                                        "depth": 5,
                                                                        "name": "getReserves",
                                                                        "value": 2993
                                                                    },
                                                                    {
                                                                        "children": [],
                                                                        "depth": 5,
                                                                        "name": "balanceOf",
                                                                        "value": 1608
                                                                    },
                                                                    {
                                                                        "children": [
                                                                            {
                                                                                "children": [],
                                                                                "depth": 6,
                                                                                "name": "transfer",
                                                                                "value": 14471
                                                                            },
                                                                            {
                                                                                "children": [],
                                                                                "depth": 6,
                                                                                "name": "balanceOf",
                                                                                "value": 1231
                                                                            },
                                                                            {
                                                                                "children": [],
                                                                                "depth": 6,
                                                                                "name": "balanceOf",
                                                                                "value": 1608
                                                                            }
                                                                        ],
                                                                        "depth": 5,
                                                                        "name": "swap",
                                                                        "value": 63922
                                                                    },
                                                                    {
                                                                        "children": [],
                                                                        "depth": 5,
                                                                        "name": "balanceOf",
                                                                        "value": 1231
                                                                    }
                                                                ],
                                                                "depth": 4,
                                                                "name": "swapExactTokensForTokensSupportingFeeOnTransferTokens",
                                                                "value": 234243
                                                            }
                                                        ],
                                                        "depth": 3,
                                                        "name": "0x8d3360cc",
                                                        "value": 533444
                                                    }
                                                ],
                                                "depth": 2,
                                                "name": "0x8d3360cc",
                                                "value": 534320
                                            }
                                        ],
                                        "depth": 1,
                                        "name": "0x668f0ad4",
                                        "value": 544712
                                    }
                                ],
                                "depth": 0,
                                "name": "Executed Gas",
                                "value": 545619
                            }
                        ],
                        "depth": -1,
                        "name": "Actual Gas Used",
                        "value": 567611
                    },
                    {
                        "children": [],
                        "depth": -1,
                        "name": "Refunded Gas",
                        "value": 8400
                    }
                ],
                "depth": -2,
                "name": "Total Gas",
                "value": 576011
            }
        ],
        "isConfirmed": true,
        "mainTrace": [
            {
                "children": [
                    {
                        "children": [
                            {
                                "children": [
                                    {
                                        "children": [
                                            {
                                                "children": [
                                                    {
                                                        "children": [
                                                            {
                                                                "children": [],
                                                                "depth": 5,
                                                                "id": 5,
                                                                "order": 5
                                                            }
                                                        ],
                                                        "depth": 4,
                                                        "id": 4,
                                                        "order": 4
                                                    },
                                                    {
                                                        "children": [
                                                            {
                                                                "children": [],
                                                                "depth": 5,
                                                                "id": 7,
                                                                "order": 7
                                                            }
                                                        ],
                                                        "depth": 4,
                                                        "id": 6,
                                                        "order": 6
                                                    },
                                                    {
                                                        "children": [
                                                            {
                                                                "children": [],
                                                                "depth": 5,
                                                                "id": 9,
                                                                "order": 9
                                                            }
                                                        ],
                                                        "depth": 4,
                                                        "id": 8,
                                                        "order": 8
                                                    },
                                                    {
                                                        "children": [
                                                            {
                                                                "children": [],
                                                                "depth": 5,
                                                                "id": 11,
                                                                "order": 11
                                                            },
                                                            {
                                                                "children": [],
                                                                "depth": 5,
                                                                "id": 12,
                                                                "order": 12
                                                            }
                                                        ],
                                                        "depth": 4,
                                                        "id": 10,
                                                        "order": 10
                                                    },
                                                    {
                                                        "children": [
                                                            {
                                                                "children": [],
                                                                "depth": 5,
                                                                "id": 14,
                                                                "order": 14
                                                            },
                                                            {
                                                                "children": [],
                                                                "depth": 5,
                                                                "id": 15,
                                                                "order": 15
                                                            },
                                                            {
                                                                "children": [],
                                                                "depth": 5,
                                                                "id": 16,
                                                                "order": 16
                                                            }
                                                        ],
                                                        "depth": 4,
                                                        "id": 13,
                                                        "order": 13
                                                    },
                                                    {
                                                        "children": [
                                                            {
                                                                "children": [
                                                                    {
                                                                        "children": [],
                                                                        "depth": 6,
                                                                        "id": 19,
                                                                        "order": 19
                                                                    },
                                                                    {
                                                                        "children": [],
                                                                        "depth": 6,
                                                                        "id": 20,
                                                                        "order": 20
                                                                    },
                                                                    {
                                                                        "children": [],
                                                                        "depth": 6,
                                                                        "id": 21,
                                                                        "order": 21
                                                                    },
                                                                    {
                                                                        "children": [],
                                                                        "depth": 6,
                                                                        "id": 22,
                                                                        "order": 22
                                                                    },
                                                                    {
                                                                        "children": [],
                                                                        "depth": 6,
                                                                        "id": 23,
                                                                        "order": 23
                                                                    },
                                                                    {
                                                                        "children": [],
                                                                        "depth": 6,
                                                                        "id": 24,
                                                                        "order": 24
                                                                    },
                                                                    {
                                                                        "children": [],
                                                                        "depth": 6,
                                                                        "id": 25,
                                                                        "order": 25
                                                                    },
                                                                    {
                                                                        "children": [],
                                                                        "depth": 6,
                                                                        "id": 26,
                                                                        "order": 26
                                                                    },
                                                                    {
                                                                        "children": [],
                                                                        "depth": 6,
                                                                        "id": 27,
                                                                        "order": 27
                                                                    },
                                                                    {
                                                                        "children": [],
                                                                        "depth": 6,
                                                                        "id": 28,
                                                                        "order": 28
                                                                    }
                                                                ],
                                                                "depth": 5,
                                                                "id": 18,
                                                                "order": 18
                                                            },
                                                            {
                                                                "children": [],
                                                                "depth": 5,
                                                                "id": 29,
                                                                "order": 29
                                                            },
                                                            {
                                                                "children": [],
                                                                "depth": 5,
                                                                "id": 30,
                                                                "order": 30
                                                            },
                                                            {
                                                                "children": [],
                                                                "depth": 5,
                                                                "id": 31,
                                                                "order": 31
                                                            },
                                                            {
                                                                "children": [
                                                                    {
                                                                        "children": [
                                                                            {
                                                                                "children": [],
                                                                                "depth": 7,
                                                                                "id": 34,
                                                                                "order": 34
                                                                            }
                                                                        ],
                                                                        "depth": 6,
                                                                        "id": 33,
                                                                        "order": 33
                                                                    },
                                                                    {
                                                                        "children": [],
                                                                        "depth": 6,
                                                                        "id": 35,
                                                                        "order": 35
                                                                    },
                                                                    {
                                                                        "children": [],
                                                                        "depth": 6,
                                                                        "id": 36,
                                                                        "order": 36
                                                                    },
                                                                    {
                                                                        "children": [],
                                                                        "depth": 6,
                                                                        "id": 37,
                                                                        "order": 37
                                                                    },
                                                                    {
                                                                        "children": [],
                                                                        "depth": 6,
                                                                        "id": 38,
                                                                        "order": 38
                                                                    }
                                                                ],
                                                                "depth": 5,
                                                                "id": 32,
                                                                "order": 32
                                                            },
                                                            {
                                                                "children": [],
                                                                "depth": 5,
                                                                "id": 39,
                                                                "order": 39
                                                            }
                                                        ],
                                                        "depth": 4,
                                                        "id": 17,
                                                        "order": 17
                                                    }
                                                ],
                                                "depth": 3,
                                                "id": 3,
                                                "order": 3
                                            }
                                        ],
                                        "depth": 2,
                                        "id": 2,
                                        "order": 2
                                    }
                                ],
                                "depth": 1,
                                "id": 1,
                                "order": 1
                            }
                        ],
                        "depth": 0,
                        "id": 0,
                        "order": 0
                    }
                ],
                "depth": -1,
                "id": -1,
                "order": -1
            }
        ],
        "mainTraceNodeCount": 40,
        "parentIdMap": {
            "0": -1,
            "1": 0,
            "10": 3,
            "11": 10,
            "12": 10,
            "13": 3,
            "14": 13,
            "15": 13,
            "16": 13,
            "17": 3,
            "18": 17,
            "19": 18,
            "2": 1,
            "20": 18,
            "21": 18,
            "22": 18,
            "23": 18,
            "24": 18,
            "25": 18,
            "26": 18,
            "27": 18,
            "28": 18,
            "29": 17,
            "3": 2,
            "30": 17,
            "31": 17,
            "32": 17,
            "33": 32,
            "34": 33,
            "35": 32,
            "36": 32,
            "37": 32,
            "38": 32,
            "39": 17,
            "4": 3,
            "5": 4,
            "6": 3,
            "7": 6,
            "8": 3,
            "9": 8
        },
        "tidyTrace": [
            {
                "children": [
                    {
                        "children": [
                            {
                                "children": [
                                    {
                                        "children": [
                                            {
                                                "children": [
                                                    {
                                                        "children": [
                                                            {
                                                                "children": [],
                                                                "depth": 5,
                                                                "id": 5,
                                                                "order": 5
                                                            }
                                                        ],
                                                        "depth": 4,
                                                        "id": 4,
                                                        "order": 4
                                                    },
                                                    {
                                                        "children": [
                                                            {
                                                                "children": [],
                                                                "depth": 5,
                                                                "id": 7,
                                                                "order": 7
                                                            }
                                                        ],
                                                        "depth": 4,
                                                        "id": 6,
                                                        "order": 6
                                                    },
                                                    {
                                                        "children": [
                                                            {
                                                                "children": [],
                                                                "depth": 5,
                                                                "id": 9,
                                                                "order": 9
                                                            }
                                                        ],
                                                        "depth": 4,
                                                        "id": 8,
                                                        "order": 8
                                                    },
                                                    {
                                                        "children": [
                                                            {
                                                                "children": [],
                                                                "depth": 5,
                                                                "id": 12,
                                                                "order": 12
                                                            }
                                                        ],
                                                        "depth": 4,
                                                        "id": 10,
                                                        "order": 10
                                                    },
                                                    {
                                                        "children": [
                                                            {
                                                                "children": [],
                                                                "depth": 5,
                                                                "id": 15,
                                                                "order": 15
                                                            }
                                                        ],
                                                        "depth": 4,
                                                        "id": 13,
                                                        "order": 13
                                                    },
                                                    {
                                                        "children": [
                                                            {
                                                                "children": [
                                                                    {
                                                                        "children": [],
                                                                        "depth": 6,
                                                                        "id": 21,
                                                                        "order": 21
                                                                    },
                                                                    {
                                                                        "children": [],
                                                                        "depth": 6,
                                                                        "id": 22,
                                                                        "order": 22
                                                                    },
                                                                    {
                                                                        "children": [],
                                                                        "depth": 6,
                                                                        "id": 23,
                                                                        "order": 23
                                                                    },
                                                                    {
                                                                        "children": [],
                                                                        "depth": 6,
                                                                        "id": 24,
                                                                        "order": 24
                                                                    },
                                                                    {
                                                                        "children": [],
                                                                        "depth": 6,
                                                                        "id": 25,
                                                                        "order": 25
                                                                    },
                                                                    {
                                                                        "children": [],
                                                                        "depth": 6,
                                                                        "id": 28,
                                                                        "order": 28
                                                                    }
                                                                ],
                                                                "depth": 5,
                                                                "id": 18,
                                                                "order": 18
                                                            },
                                                            {
                                                                "children": [
                                                                    {
                                                                        "children": [
                                                                            {
                                                                                "children": [],
                                                                                "depth": 7,
                                                                                "id": 34,
                                                                                "order": 34
                                                                            }
                                                                        ],
                                                                        "depth": 6,
                                                                        "id": 33,
                                                                        "order": 33
                                                                    },
                                                                    {
                                                                        "children": [],
                                                                        "depth": 6,
                                                                        "id": 37,
                                                                        "order": 37
                                                                    },
                                                                    {
                                                                        "children": [],
                                                                        "depth": 6,
                                                                        "id": 38,
                                                                        "order": 38
                                                                    }
                                                                ],
                                                                "depth": 5,
                                                                "id": 32,
                                                                "order": 32
                                                            }
                                                        ],
                                                        "depth": 4,
                                                        "id": 17,
                                                        "order": 17
                                                    }
                                                ],
                                                "depth": 3,
                                                "id": 3,
                                                "order": 3
                                            }
                                        ],
                                        "depth": 2,
                                        "id": 2,
                                        "order": 2
                                    }
                                ],
                                "depth": 1,
                                "id": 1,
                                "order": 1
                            }
                        ],
                        "depth": 0,
                        "id": 0,
                        "order": 0
                    }
                ],
                "depth": -1,
                "id": -1,
                "order": -1
            }
        ],
        "tidyTraceNodeCount": 27
    },
    "state_change": {
        "stateChanges": [
            {
                "address": "0x55d398326f99059ff775485246999027b3197955",
                "erc": "ERC-20",
                "slots": [
                    {
                        "current": "0x000000000000000000000000000000000000000000000393ae207ed74539eaef",
                        "key": "0xdd7b68113ea2813d7493f29871d869b10feeee083a2d1e4bfcb2b1b8bf83c488",
                        "prev": "0x000000000000000000000000000000000000000000000a357131f4901341a193"
                    },
                    {
                        "current": "0x0000000000000000000000000000000000000000000006a50cf484b519d7b080",
                        "key": "0x6491e3da81207d3fb5cc33ca1390e7ba9a64af180f156060d9026c13a8db9431",
                        "prev": "0x00000000000000000000000000000000000000000000000349e30efc4bcff9dc"
                    }
                ],
                "storageVariables": [
                    {
                        "name": "_balances",
                        "type": "mapping(address => uint256)",
                        "value": {
                            "pairs": [
                                {
                                    "key": "0xd11a93a8db5f8d3fb03b88b4b24c3ed01b8a411c",
                                    "value": {
                                        "current": "31378845186316077346944",
                                        "prev": "60664347882377181660",
                                        "typeTag": 1
                                    }
                                },
                                {
                                    "key": "0xf34c9a6aaac94022f96d4589b73d498491f817fa",
                                    "value": {
                                        "current": "16891317995469138422511",
                                        "prev": "48209498833902838587795",
                                        "typeTag": 1
                                    }
                                }
                            ],
                            "typeTag": 4
                        }
                    }
                ]
            },
            {
                "address": "0x6863b549bf730863157318df4496ed111adfa64f",
                "erc": "",
                "slots": [
                    {
                        "current": "0x0000000000000000000000005575406ef6b15eec1986c412b9fbe144522c45ae",
                        "key": "0x0000000000000000000000000000000000000000000000000000000000000005",
                        "prev": "0x0000000000000000000000008958c8689d325fd9e2a1ede3d5dc1acfcfb65742"
                    }
                ],
                "storageVariables": []
            },
            {
                "address": "0xcff086ead392ccb39c49ecda8c974ad5238452ac",
                "erc": "ERC-20",
                "slots": [
                    {
                        "current": "0xffffffffffffffffffffffffffffffffffffffffffffbe482d9b0268c2e492c7",
                        "key": "0x878e490db6d1d1c9e8fa60e46e02c4e9ed44dbaf8e9c41cd03b3af937a5dbd37",
                        "prev": "0x0000000000000000000000000000000000000000000000000000000000000000"
                    },
                    {
                        "current": "0x000000000000000000000000000000000000000000005f027d4e98ef20f876be",
                        "key": "0xdd7b68113ea2813d7493f29871d869b10feeee083a2d1e4bfcb2b1b8bf83c488",
                        "prev": "0x00000000000000000000000000000000000000000000213c18d0f23d1fd992de"
                    },
                    {
                        "current": "0x0000000000000000000000000000000000000000000003d053387a87c41e6074",
                        "key": "0x50806b5fec72182ae612226c0727f3c74ce29b5ace29ce014a08273f16a515a3",
                        "prev": "0x0000000000000000000000000000000000000000000001837dc6dd2cb675bcbc"
                    },
                    {
                        "current": "0x000000000000000000000000000000000000000000002fff73326265014e918c",
                        "key": "0xbf83c68fcd4a6cd28e399f537b7fb27d99bc4d4cf6c4cb1f4c8865fba9fea6e5",
                        "prev": "0x000000000000000000000000000000000000000000002fab54b4707c91a43104"
                    },
                    {
                        "current": "0x00000000000000000000000000b433800970286cf08f34c96cf07f35412f1161",
                        "key": "0xf5359bf68f9ebf60c30d1954bc71ed451304ca269535bcc09f9ca63c8ce4075b",
                        "prev": "0x0000000000000000000000000000000000000000000000000000000000000000"
                    },
                    {
                        "current": "0x00000000000000000000000000000000000000000000d34148ac9c7b05fc9564",
                        "key": "0x000000000000000000000000000000000000000000000000000000000000000c",
                        "prev": "0x00000000000000000000000000000000000000000000d395672a8e6375a6f5ec"
                    },
                    {
                        "current": "0x000000000000000000000000000000000000000000000080d322398ae9760a9c",
                        "key": "0xb34209a263f6c38fe55f099e9e70f9d67e93982480ff3234a5e0108028ad164d",
                        "prev": "0x00000000000000000000000000000000000000000000002cb4a447a279cbaa14"
                    },
                    {
                        "current": "0x000000000000000000000000000000000000000000000055c7a572c8ba7db672",
                        "key": "0x000000000000000000000000000000000000000000000000000000000000001f",
                        "prev": "0x000000000000000000000000000000000000000000000001a92780e04ad355ea"
                    },
                    {
                        "current": "0x0000000000000000000000000000000000000000000000000000000000000001",
                        "key": "0x0000000000000000000000000000000000000000000000000000000000000004",
                        "prev": "0x0000000000000000000000000000000000000000000000000000000000000000"
                    },
                    {
                        "current": "0x00000000000000000000000000000000000000000000000000000000000002f8",
                        "key": "0x42e85fa0633c92beb882e43654e186f2db88aea159deb7ade3437e59ab730c69",
                        "prev": "0x0000000000000000000000000000000000000000000000000000000000000000"
                    },
                    {
                        "current": "0x0000000000000000000000000000000000000000000000fca6a80a1bf0d6f198",
                        "key": "0x48bcd541d1c6e17e54371c9cd080f9b1b869ece3b31a417ae149fc855695ec0b",
                        "prev": "0x0000000000000000000000000000000000000000000041b81d9331f9def33d38"
                    },
                    {
                        "current": "0x00000000000000000000000000000000000000000000037a8b92e35dcfd62a02",
                        "key": "0x000000000000000000000000000000000000000000000000000000000000001e",
                        "prev": "0x000000000000000000000000000000000000000000000181d49f37eb31d7e6d2"
                    },
                    {
                        "current": "0xffffffffffffffffffffffffffffffffffffffffffffffffffffffffffffffff",
                        "key": "0x709a05909610bff604a25df2b9ee34d261f05fd37ace9c85d3e8e60979f582a2",
                        "prev": "0x0000000000000000000000000000000000000000000000000000000000000000"
                    },
                    {
                        "current": "0x0000000000000000000000000000000000000000000000000000000000000001",
                        "key": "0x700d03849a537b947eeaa7784cc87e5e556e835a5f91163f444710548527085e",
                        "prev": "0x0000000000000000000000000000000000000000000000000000000000000000"
                    },
                    {
                        "current": "0x0000000000000000000000005575406ef6b15eec1986c412b9fbe144522c45ae",
                        "key": "0x0000000000000000000000000000000000000000000000000000000000000020",
                        "prev": "0x000000000000000000000000fe6d6bc4ac1ed6dd6875ca8a9137760cb3a931df"
                    }
                ],
                "storageVariables": [
                    {
                        "name": "_isExcludedFromFee",
                        "type": "mapping(address => bool)",
                        "value": {
                            "pairs": [
                                {
                                    "key": "0x5575406ef6b15eec1986c412b9fbe144522c45ae",
                                    "value": {
                                        "current": "true",
                                        "prev": "false",
                                        "typeTag": 1
                                    }
                                }
                            ],
                            "typeTag": 4
                        }
                    },
                    {
                        "name": "inviter",
                        "type": "mapping(address => address)",
                        "value": {
                            "pairs": [
                                {
                                    "key": "0x5575406ef6b15eec1986c412b9fbe144522c45ae",
                                    "value": {
                                        "current": "0x00b433800970286cf08f34c96cf07f35412f1161",
                                        "prev": "0x0000000000000000000000000000000000000000",
                                        "typeTag": 1
                                    }
                                }
                            ],
                            "typeTag": 4
                        }
                    },
                    {
                        "name": "counter",
                        "type": "uint256",
                        "value": {
                            "current": "1",
                            "prev": "0",
                            "typeTag": 1
                        }
                    },
                    {
                        "name": "LpMarketCount",
                        "type": "uint256",
                        "value": {
                            "current": "16427659576511431059970",
                            "prev": "7117317494318808164050",
                            "typeTag": 1
                        }
                    },
                    {
                        "name": "_allowances",
                        "type": "mapping(address => mapping(address => uint256))",
                        "value": {
                            "pairs": [
                                {
                                    "key": "0x5575406ef6b15eec1986c412b9fbe144522c45ae",
                                    "value": {
                                        "pairs": [
                                            {
                                                "key": "0x10ed43c718714eb63d5aa57b78b54704e256024e",
                                                "value": {
                                                    "current": "115792089237316195423570985008687907853269984665640563729112847934825699775175",
                                                    "prev": "0",
                                                    "typeTag": 1
                                                }
                                            },
                                            {
                                                "key": "0x9b7325a150254df59d7253885d41d8d3310f9c1a",
                                                "value": {
                                                    "current": "115792089237316195423570985008687907853269984665640564039457584007913129639935",
                                                    "prev": "0",
                                                    "typeTag": 1
                                                }
                                            }
                                        ],
                                        "typeTag": 4
                                    }
                                }
                            ],
                            "typeTag": 4
                        }
                    },
                    {
                        "name": "_balances",
                        "type": "mapping(address => uint256)",
                        "value": {
                            "pairs": [
                                {
                                    "key": "0x000000000000000000000000000000000000dead",
                                    "value": {
                                        "current": "2376397027194818661020",
                                        "prev": "824673346829381511700",
                                        "typeTag": 1
                                    }
                                },
                                {
                                    "key": "0x00b433800970286cf08f34c96cf07f35412f1161",
                                    "value": {
                                        "current": "4660588366096311447960",
                                        "prev": "310350153398087429864760",
                                        "typeTag": 1
                                    }
                                },
                                {
                                    "key": "0x0c5390550538ef0215463b1e68524ea11bd1b3b3",
                                    "value": {
                                        "current": "226663445238918411096460",
                                        "prev": "225111721558552973947140",
                                        "typeTag": 1
                                    }
                                },
                                {
                                    "key": "0x5575406ef6b15eec1986c412b9fbe144522c45ae",
                                    "value": {
                                        "current": "760",
                                        "prev": "0",
                                        "typeTag": 1
                                    }
                                },
                                {
                                    "key": "0xcff086ead392ccb39c49ecda8c974ad5238452ac",
                                    "value": {
                                        "current": "18010018893567895691380",
                                        "prev": "7147953131009835646140",
                                        "typeTag": 1
                                    }
                                },
                                {
                                    "key": "0xf34c9a6aaac94022f96d4589b73d498491f817fa",
                                    "value": {
                                        "current": "448670738683219456587454",
                                        "prev": "156946686774517272515294",
                                        "typeTag": 1
                                    }
                                }
                            ],
                            "typeTag": 4
                        }
                    },
                    {
                        "name": "_currentSupply",
                        "type": "uint256",
                        "value": {
                            "current": "997623602982805181338980",
                            "prev": "999175326663170618488300",
                            "typeTag": 1
                        }
                    },
                    {
                        "name": "fromAddress",
                        "type": "address",
                        "value": {
                            "current": "0x5575406ef6b15eec1986c412b9fbe144522c45ae",
                            "prev": "0xfe6d6bc4ac1ed6dd6875ca8a9137760cb3a931df",
                            "typeTag": 1
                        }
                    },
                    {
                        "name": "liquidCount",
                        "type": "uint256",
                        "value": {
                            "current": "1582359277056464631410",
                            "prev": "30635596691027482090",
                            "typeTag": 1
                        }
                    }
                ]
            },
            {
                "address": "0xf34c9a6aaac94022f96d4589b73d498491f817fa",
                "erc": "ERC-20",
                "slots": [
                    {
                        "current": "0x000000000000000000000000000000000c1bc79b9b513cade0d7aba94f38b621",
                        "key": "0x0000000000000000000000000000000000000000000000000000000000000009",
                        "prev": "0x000000000000000000000000000000000c12035f8ebbd123c5f99cac51df41e4"
                    },
                    {
                        "current": "0x0000000000000000000000000000000000f943634c1b96481aafc17b32c81aaa",
                        "key": "0x000000000000000000000000000000000000000000000000000000000000000a",
                        "prev": "0x0000000000000000000000000000000000f8577afc71efa83b1397748dc66f8a"
                    },
                    {
                        "current": "0x634415d5000000005f027d4e98ef20f876be000000000393ae207ed74539eaef",
                        "key": "0x0000000000000000000000000000000000000000000000000000000000000008",
                        "prev": "0x634415d200000000213c18d0f23d1fd992de000000000a357131f4901341a193"
                    }
                ],
                "storageVariables": [
                    {
                        "name": "price1CumulativeLast",
                        "type": "uint256",
                        "value": {
                            "current": "1294248706360917082204712078120852138",
                            "prev": "1289463934515944528946366156313620362",
                            "typeTag": 1
                        }
                    },
                    {
                        "name": "reserve0",
                        "type": "uint112",
                        "value": {
                            "current": "16891317995469138422511",
                            "prev": "48209498833902838587795",
                            "typeTag": 1
                        }
                    },
                    {
                        "name": "reserve1",
                        "type": "uint112",
                        "value": {
                            "current": "448670738683219456587454",
                            "prev": "156946686774517272515294",
                            "typeTag": 1
                        }
                    },
                    {
                        "name": "blockTimestampLast",
                        "type": "uint32",
                        "value": {
                            "current": "1665406421",
                            "prev": "1665406418",
                            "typeTag": 1
                        }
                    },
                    {
                        "name": "price0CumulativeLast",
                        "type": "uint256",
                        "value": {
                            "current": "16094976492544133277377275100684400161",
                            "prev": "16044265710950795339678080194586821092",
                            "typeTag": 1
                        }
                    }
                ]
            }
        ]
    }
}