{
    "balance_change": {
        "balanceChanges": [
            {
                "account": "0xdd87d807774c8aa9d70fc6af5912c97fadbf531b",
                "assets": [
                    {
                        "address": "0x1d64327c74d6519afef54e58730ad6fc797f05ba",
                        "amount": "6,000.000000000000000001",
                        "iconUrl": "",
                        "isERC1155": false,
                        "isERC721": false,
                        "sign": true,
                        "value": "37.26311037"
                    }
                ]
            },
            {
                "account": "0x0000000000000000000000000000000000000000",
                "assets": [
                    {
                        "address": "0x1d64327c74d6519afef54e58730ad6fc797f05ba",
                        "amount": "6,000",
                        "iconUrl": "",
                        "isERC1155": false,
                        "isERC721": false,
                        "sign": false,
                        "value": "37.26311037"
                    }
                ]
            },
            {
                "account": "0x6f40a3d0c89cffdc8a1af212a019c220a295e9bb",
                "assets": [
                    {
                        "address": "0x1d64327c74d6519afef54e58730ad6fc797f05ba",
                        "amount": "0.000000000000000001",
                        "iconUrl": "",
                        "isERC1155": false,
                        "isERC721": false,
                        "sign": false,
                        "value": ""
                    }
                ]
            }
        ]
    },
    "profile": {
        "basic_info": {
            "baseFee": "",
            "blockNumber": 24850710,
            "callData": "0x2e1a7d4d000000000000000000000000000000000000000000000000000000000000008b",
            "debugEnable": true,
            "errorInfo": "",
            "eventCount": 4,
            "feeRecipient": "0x3f349bbafec1551819b8be1efea2fc46ca749aa1",
            "formatValue": "0",
            "gasLimit": 110623,
            "gasPrice": "5",
            "gasUsed": 68176,
            "intTxnCount": 4,
            "internalRevert": false,
            "internalRevertMessage": "",
            "isContractCreation": false,
            "isFlashloan": false,
            "maxFee": "",
            "nonce": 3,
            "overwritedBlockNumber": -1,
            "priorityFee": "",
            "receiver": "0xdd87d807774c8aa9d70fc6af5912c97fadbf531b",
            "revertMessage": "",
            "sender": "0x9bbd94506398a1459f0cd3b2638512627390255e",
            "simulationEnable": true,
            "sourceTxnHash": "0xa916674fb8203fac6d78f5f9afc604be468a514aa61ea36c6d6ef26ecfbd0e97",
            "status": true,
            "timestamp": "2023-01-17T00:54:59Z",
            "transactionFee": "0.00034088",
            "txnHash": "0xa916674fb8203fac6d78f5f9afc604be468a514aa61ea36c6d6ef26ecfbd0e97",
            "txnIndex": 86,
            "type": 0,
            "value": "0"
        },
        "fund_flow": [
            {
                "amount": "0.000000000000000001",
                "from": "0x6f40a3d0c89cffdc8a1af212a019c220a295e9bb",
                "id": 1,
                "isERC1155": false,
                "isERC721": false,
                "isReverted": false,
                "order": 1,
                "to": "0xdd87d807774c8aa9d70fc6af5912c97fadbf531b",
                "token": "0x1d64327c74d6519afef54e58730ad6fc797f05ba"
            },
            {
                "amount": "6,000",
                "from": "0x0000000000000000000000000000000000000000",
                "id": 2,
                "isERC1155": false,
                "isERC721": false,
                "isReverted": false,
                "order": 2,
                "to": "0xdd87d807774c8aa9d70fc6af5912c97fadbf531b",
                "token": "0x1d64327c74d6519afef54e58730ad6fc797f05ba"
            }
        ],
        "token_infos": [
            {
                "address": "0x1d64327c74d6519afef54e58730ad6fc797f05ba",
                "decimals": 18
            },
            {
                "address": "0xbb4cdb9cbd36b01bd1cbaebf2de08d9173bc095c",
                "decimals": 18
            },
            {
                "address": "0xeeeeeeeeeeeeeeeeeeeeeeeeeeeeeeeeeeeeeeee",
                "decimals": 18
            }
        ]
    },
    "address_label": {
        "labels": [
            {
                "address": "0x0000000000000000000000000000000000000003",
                "label": "Precompiled"
            },
            {
                "address": "0x0000000000000000000000000000000000000004",
                "label": "Precompiled"
            },
            {
                "address": "0xeeeeeeeeeeeeeeeeeeeeeeeeeeeeeeeeeeeeeeee",
                "label": "BNB"
            },
            {
                "address": "0x1d64327c74d6519afef54e58730ad6fc797f05ba",
                "label": "OMNI Real Estate: ORT Token"
            },
            {
                "address": "0x26bc1245b8476086e85553e60ee5e3e59fed9be0",
                "label": "StakingPool"
            },
            {
                "address": "0x6f40a3d0c89cffdc8a1af212a019c220a295e9bb",
                "label": "TransparentUpgradeableProxy_6f40_e9bb"
            },
            {
                "address": "0x0000000000000000000000000000000000000001",
                "label": "Precompiled"
            },
            {
                "address": "0x0000000000000000000000000000000000000002",
                "label": "Precompiled"
            }
        ]
    },
    "trace": {
        "accountLabels": null,
        "dataMap": {
            "-1": {
                "invocation": {
                    "address": "0x9bbd94506398a1459f0cd3b2638512627390255e",
                    "callData": "",
                    "decodedMethod": null,
                    "errorInfo": "",
                    "fromAddress": "",
                    "gasUsed": 0,
                    "id": -1,
                    "methodDecoded": false,
                    "operation": "",
                    "output": "",
                    "revert": false,
                    "revertMessage": "",
                    "selector": "",
                    "status": false,
                    "value": ""
                },
                "nodeType": 0
            },
            "0": {
                "invocation": {
                    "address": "0xdd87d807774c8aa9d70fc6af5912c97fadbf531b",
                    "callData": "0x000000000000000000000000000000000000000000000000000000000000008b",
                    "decodedMethod": {
                        "callParams": [
                            {
                                "name": "amount",
                                "type": "uint256",
                                "value": "139"
                            }
                        ],
                        "constructorArguments": "",
                        "name": "withdraw",
                        "returnParams": [],
                        "signature": "withdraw(uint256)"
                    },
                    "errorInfo": "",
                    "fromAddress": "0x9bbd94506398a1459f0cd3b2638512627390255e",
                    "gasUsed": 68176,
                    "id": 0,
                    "methodDecoded": true,
                    "operation": "CALL",
                    "output": "",
                    "revert": false,
                    "revertMessage": "",
                    "selector": "0x2e1a7d4d",
                    "status": true,
                    "value": "0"
                },
                "nodeType": 0
            },
            "1": {
                "invocation": {
                    "address": "0x6f40a3d0c89cffdc8a1af212a019c220a295e9bb",
                    "callData": "0x000000000000000000000000000000000000000000000000000000000000008b",
                    "decodedMethod": {
                        "callParams": [
                            {
                                "name": "lockId",
                                "type": "uint256",
                                "value": "139"
                            }
                        ],
                        "constructorArguments": "",
                        "name": "withdrawAndClaim",
                        "returnParams": [],
                        "signature": "withdrawAndClaim(uint256)"
                    },
                    "errorInfo": "",
                    "fromAddress": "0xdd87d807774c8aa9d70fc6af5912c97fadbf531b",
                    "gasUsed": 82392,
                    "id": 1,
                    "methodDecoded": true,
                    "operation": "CALL",
                    "output": "",
                    "revert": false,
                    "revertMessage": "",
                    "selector": "0x448a1047",
                    "status": true,
                    "value": "0"
                },
                "nodeType": 0
            },
            "2": {
                "invocation": {
                    "address": "0x26bc1245b8476086e85553e60ee5e3e59fed9be0",
                    "callData": "0x000000000000000000000000000000000000000000000000000000000000008b",
                    "decodedMethod": {
                        "callParams": [
                            {
                                "name": "lockId",
                                "type": "uint256",
                                "value": "139"
                            }
                        ],
                        "constructorArguments": "",
                        "name": "withdrawAndClaim",
                        "returnParams": [],
                        "signature": "withdrawAndClaim(uint256)"
                    },
                    "errorInfo": "",
                    "fromAddress": "0x6f40a3d0c89cffdc8a1af212a019c220a295e9bb",
                    "gasUsed": 79564,
                    "id": 2,
                    "methodDecoded": true,
                    "operation": "DELEGATECALL",
                    "output": "",
                    "revert": false,
                    "revertMessage": "",
                    "selector": "0x448a1047",
                    "status": true,
                    "value": "0"
                },
                "nodeType": 0
            },
            "3": {
                "invocation": {
                    "address": "0x1d64327c74d6519afef54e58730ad6fc797f05ba",
                    "callData": "0x000000000000000000000000dd87d807774c8aa9d70fc6af5912c97fadbf531b0000000000000000000000000000000000000000000000000000000000000001",
                    "decodedMethod": {
                        "callParams": [
                            {
                                "name": "recipient",
                                "type": "address",
                                "value": "0xdd87d807774c8aa9d70fc6af5912c97fadbf531b"
                            },
                            {
                                "decimalAvailable": true,
                                "name": "amount",
                                "type": "uint256",
                                "value": "1"
                            }
                        ],
                        "constructorArguments": "",
                        "name": "transfer",
                        "returnParams": [
                            {
                                "name": "",
                                "type": "bool",
                                "value": true
                            }
                        ],
                        "signature": "transfer(address,uint256)"
                    },
                    "errorInfo": "",
                    "fromAddress": "0x6f40a3d0c89cffdc8a1af212a019c220a295e9bb",
                    "gasUsed": 14434,
                    "id": 3,
                    "methodDecoded": true,
                    "operation": "CALL",
                    "output": "0x0000000000000000000000000000000000000000000000000000000000000001",
                    "revert": false,
                    "revertMessage": "",
                    "selector": "0xa9059cbb",
                    "status": true,
                    "value": "0"
                },
                "nodeType": 0
            },
            "4": {
                "event": {
                    "contract": "0x1d64327c74d6519afef54e58730ad6fc797f05ba",
                    "decodedLog": {
                        "name": "Transfer",
                        "params": [
                            {
                                "name": "from",
                                "type": "address",
                                "value": "0x6f40a3d0c89cffdc8a1af212a019c220a295e9bb"
                            },
                            {
                                "name": "to",
                                "type": "address",
                                "value": "0xdd87d807774c8aa9d70fc6af5912c97fadbf531b"
                            },
                            {
                                "decimalAvailable": true,
                                "name": "value",
                                "type": "uint256",
                                "value": "1"
                            }
                        ],
                        "signature": "Transfer(address,address,uint256)"
                    },
                    "id": 4,
                    "logData": "0x0000000000000000000000000000000000000000000000000000000000000001",
                    "logDecoded": true,
                    "operation": "EVENT",
                    "revert": false,
                    "status": true,
                    "topics": [
                        "0xddf252ad1be2c89b69c2b068fc378daa952ba7f163c4a11628f55a4df523b3ef",
                        "0x0000000000000000000000006f40a3d0c89cffdc8a1af212a019c220a295e9bb",
                        "0x000000000000000000000000dd87d807774c8aa9d70fc6af5912c97fadbf531b"
                    ]
                },
                "nodeType": 1
            },
            "5": {
                "event": {
                    "contract": "0x6f40a3d0c89cffdc8a1af212a019c220a295e9bb",
                    "decodedLog": {
                        "name": "Withdraw",
                        "params": [
                            {
                                "name": "user",
                                "type": "address",
                                "value": "0xdd87d807774c8aa9d70fc6af5912c97fadbf531b"
                            },
                            {
                                "name": "pid",
                                "type": "uint256",
                                "value": "139"
                            },
                            {
                                "name": "amount",
                                "type": "uint256",
                                "value": "1"
                            }
                        ],
                        "signature": "Withdraw(address,uint256,uint256)"
                    },
                    "id": 5,
                    "logData": "0x0000000000000000000000000000000000000000000000000000000000000001",
                    "logDecoded": true,
                    "operation": "EVENT",
                    "revert": false,
                    "status": true,
                    "topics": [
                        "0xf279e6a1f5e320cca91135676d9cb6e44ca8a08c0b88342bcdb1144f6511b568",
                        "0x000000000000000000000000dd87d807774c8aa9d70fc6af5912c97fadbf531b",
                        "0x000000000000000000000000000000000000000000000000000000000000008b"
                    ]
                },
                "nodeType": 1
            },
            "6": {
                "invocation": {
                    "address": "0x1d64327c74d6519afef54e58730ad6fc797f05ba",
                    "callData": "0x000000000000000000000000dd87d807774c8aa9d70fc6af5912c97fadbf531b00000000000000000000000000000000000000000000014542ba12a337c00000",
                    "decodedMethod": {
                        "callParams": [
                            {
                                "name": "to",
                                "type": "address",
                                "value": "0xdd87d807774c8aa9d70fc6af5912c97fadbf531b"
                            },
                            {
                                "name": "amount",
                                "type": "uint256",
                                "value": "6,000,000,000,000,000,000,000"
                            }
                        ],
                        "constructorArguments": "",
                        "name": "mint",
                        "returnParams": [
                            {
                                "name": "",
                                "type": "bool",
                                "value": true
                            }
                        ],
                        "signature": "mint(address,uint256)"
                    },
                    "errorInfo": "",
                    "fromAddress": "0x6f40a3d0c89cffdc8a1af212a019c220a295e9bb",
                    "gasUsed": 10918,
                    "id": 6,
                    "methodDecoded": true,
                    "operation": "CALL",
                    "output": "0x0000000000000000000000000000000000000000000000000000000000000001",
                    "revert": false,
                    "revertMessage": "",
                    "selector": "0x40c10f19",
                    "status": true,
                    "value": "0"
                },
                "nodeType": 0
            },
            "7": {
                "event": {
                    "contract": "0x1d64327c74d6519afef54e58730ad6fc797f05ba",
                    "decodedLog": {
                        "name": "Transfer",
                        "params": [
                            {
                                "name": "from",
                                "type": "address",
                                "value": "0x0000000000000000000000000000000000000000"
                            },
                            {
                                "name": "to",
                                "type": "address",
                                "value": "0xdd87d807774c8aa9d70fc6af5912c97fadbf531b"
                            },
                            {
                                "decimalAvailable": true,
                                "name": "value",
                                "type": "uint256",
                                "value": "6,000,000,000,000,000,000,000"
                            }
                        ],
                        "signature": "Transfer(address,address,uint256)"
                    },
                    "id": 7,
                    "logData": "0x00000000000000000000000000000000000000000000014542ba12a337c00000",
                    "logDecoded": true,
                    "operation": "EVENT",
                    "revert": false,
                    "status": true,
                    "topics": [
                        "0xddf252ad1be2c89b69c2b068fc378daa952ba7f163c4a11628f55a4df523b3ef",
                        "0x0000000000000000000000000000000000000000000000000000000000000000",
                        "0x000000000000000000000000dd87d807774c8aa9d70fc6af5912c97fadbf531b"
                    ]
                },
                "nodeType": 1
            },
            "8": {
                "event": {
                    "contract": "0x6f40a3d0c89cffdc8a1af212a019c220a295e9bb",
                    "decodedLog": {
                        "name": "Claim",
                        "params": [
                            {
                                "name": "user",
                                "type": "address",
                                "value": "0xdd87d807774c8aa9d70fc6af5912c97fadbf531b"
                            },
                            {
                                "name": "pid",
                                "type": "uint256",
                                "value": "139"
                            },
                            {
                                "name": "amount",
                                "type": "uint256",
                                "value": "6,000,000,000,000,000,000,000"
                            }
                        ],
                        "signature": "Claim(address,uint256,uint256)"
                    },
                    "id": 8,
                    "logData": "0x00000000000000000000000000000000000000000000014542ba12a337c00000",
                    "logDecoded": true,
                    "operation": "EVENT",
                    "revert": false,
                    "status": true,
                    "topics": [
                        "0x34fcbac0073d7c3d388e51312faf357774904998eeb8fca628b9e6f65ee1cbf7",
                        "0x000000000000000000000000dd87d807774c8aa9d70fc6af5912c97fadbf531b",
                        "0x000000000000000000000000000000000000000000000000000000000000008b"
                    ]
                },
                "nodeType": 1
            }
        },
        "gasFlame": [
            {
                "children": [
                    {
                        "children": [
                            {
                                "children": [],
                                "depth": 0,
                                "name": "Initial Gas",
                                "value": 21204
                            },
                            {
                                "children": [
                                    {
                                        "children": [
                                            {
                                                "children": [
                                                    {
                                                        "children": [],
                                                        "depth": 3,
                                                        "name": "transfer",
                                                        "value": 14434
                                                    },
                                                    {
                                                        "children": [],
                                                        "depth": 3,
                                                        "name": "mint",
                                                        "value": 10918
                                                    }
                                                ],
                                                "depth": 2,
                                                "name": "withdrawAndClaim",
                                                "value": 79564
                                            }
                                        ],
                                        "depth": 1,
                                        "name": "withdrawAndClaim",
                                        "value": 82392
                                    }
                                ],
                                "depth": 0,
                                "name": "Executed Gas",
                                "value": 85372
                            }
                        ],
                        "depth": -1,
                        "name": "Actual Gas Used",
                        "value": 68176
                    },
                    {
                        "children": [],
                        "depth": -1,
                        "name": "Refunded Gas",
                        "value": 38400
                    }
                ],
                "depth": -2,
                "name": "Total Gas",
                "value": 106576
            }
        ],
        "isConfirmed": true,
        "mainTrace": [
            {
                "children": [
                    {
                        "children": [
                            {
                                "children": [
                                    {
                                        "children": [
                                            {
                                                "children": [
                                                    {
                                                        "children": [],
                                                        "depth": 4,
                                                        "id": 4,
                                                        "order": 4
                                                    }
                                                ],
                                                "depth": 3,
                                                "id": 3,
                                                "order": 3
                                            },
                                            {
                                                "children": [],
                                                "depth": 3,
                                                "id": 5,
                                                "order": 5
                                            },
                                            {
                                                "children": [
                                                    {
                                                        "children": [],
                                                        "depth": 4,
                                                        "id": 7,
                                                        "order": 7
                                                    }
                                                ],
                                                "depth": 3,
                                                "id": 6,
                                                "order": 6
                                            },
                                            {
                                                "children": [],
                                                "depth": 3,
                                                "id": 8,
                                                "order": 8
                                            }
                                        ],
                                        "depth": 2,
                                        "id": 2,
                                        "order": 2
                                    }
                                ],
                                "depth": 1,
                                "id": 1,
                                "order": 1
                            }
                        ],
                        "depth": 0,
                        "id": 0,
                        "order": 0
                    }
                ],
                "depth": -1,
                "id": -1,
                "order": -1
            }
        ],
        "mainTraceNodeCount": 9,
        "parentIdMap": {
            "0": -1,
            "1": 0,
            "2": 1,
            "3": 2,
            "4": 3,
            "5": 2,
            "6": 2,
            "7": 6,
            "8": 2
        },
        "tidyTrace": [
            {
                "children": [
                    {
                        "children": [
                            {
                                "children": [
                                    {
                                        "children": [
                                            {
                                                "children": [
                                                    {
                                                        "children": [],
                                                        "depth": 4,
                                                        "id": 4,
                                                        "order": 4
                                                    }
                                                ],
                                                "depth": 3,
                                                "id": 3,
                                                "order": 3
                                            },
                                            {
                                                "children": [],
                                                "depth": 3,
                                                "id": 5,
                                                "order": 5
                                            },
                                            {
                                                "children": [
                                                    {
                                                        "children": [],
                                                        "depth": 4,
                                                        "id": 7,
                                                        "order": 7
                                                    }
                                                ],
                                                "depth": 3,
                                                "id": 6,
                                                "order": 6
                                            },
                                            {
                                                "children": [],
                                                "depth": 3,
                                                "id": 8,
                                                "order": 8
                                            }
                                        ],
                                        "depth": 2,
                                        "id": 2,
                                        "order": 2
                                    }
                                ],
                                "depth": 1,
                                "id": 1,
                                "order": 1
                            }
                        ],
                        "depth": 0,
                        "id": 0,
                        "order": 0
                    }
                ],
                "depth": -1,
                "id": -1,
                "order": -1
            }
        ],
        "tidyTraceNodeCount": 9
    },
    "state_change": {
        "stateChanges": [
            {
                "address": "0x1d64327c74d6519afef54e58730ad6fc797f05ba",
                "erc": "ERC-20",
                "slots": [
                    {
                        "current": "0x0000000000000000000000000000000000000000000758b55ba328bc0d545508",
                        "key": "0x3e3c5f333c14db286672c8b91aa066d3c8f94d2a65f15f94ba5707b9db3e104f",
                        "prev": "0x0000000000000000000000000000000000000000000758b55ba328bc0d545509"
                    },
                    {
                        "current": "0x000000000000000000000000000000000000000000000145509ac956df240000",
                        "key": "0xd5fc35ec7325c87e9d959235cbdf7023aaf1c85c741e63c984136a6a0e679edb",
                        "prev": "0x0000000000000000000000000000000000000000000000000de0b6b3a763ffff"
                    },
                    {
                        "current": "0x000000000000000000000000000000000000000000230979f523725ac06f5d05",
                        "key": "0x0000000000000000000000000000000000000000000000000000000000000002",
                        "prev": "0x000000000000000000000000000000000000000000230834b2695fb788af5d05"
                    }
                ],
                "storageVariables": [
                    {
                        "name": "_totalSupply",
                        "type": "uint256",
                        "value": {
                            "current": "42357154704978664355749125",
                            "prev": "42351154704978664355749125",
                            "typeTag": 1
                        }
                    },
                    {
                        "name": "_balances",
                        "type": "mapping(address => uint256)",
                        "value": {
                            "pairs": [
                                {
                                    "key": "0x6f40a3d0c89cffdc8a1af212a019c220a295e9bb",
                                    "value": {
                                        "current": "8881394451638541228463368",
                                        "prev": "8881394451638541228463369",
                                        "typeTag": 1
                                    }
                                },
                                {
                                    "key": "0xdd87d807774c8aa9d70fc6af5912c97fadbf531b",
                                    "value": {
                                        "current": "6001000000000000000000",
                                        "prev": "999999999999999999",
                                        "typeTag": 1
                                    }
                                }
                            ],
                            "typeTag": 4
                        }
                    }
                ]
            },
            {
                "address": "0x6f40a3d0c89cffdc8a1af212a019c220a295e9bb",
                "erc": "",
                "slots": [
                    {
                        "current": "0x0000000000000000000000000000000000000000000000000000000000000000",
                        "key": "0xe89d44c8fd6a9bac8af33ce47f56337617d449bf7ff3956b618c646de829cf0e",
                        "prev": "0x0000000000000000000000000000000000000000000000000000000000000001"
                    },
                    {
                        "current": "0x0000000000000000000000000000000000000000000000000000000000000000",
                        "key": "0xe89d44c8fd6a9bac8af33ce47f56337617d449bf7ff3956b618c646de829cf12",
                        "prev": "0x00000000000000000000000000000000000000000000014542ba12a337c00000"
                    }
                ],
                "storageVariables": [
                    {
                        "name": "tokens_staking",
                        "type": "struct StakingPool.staking[]",
                        "value": {
                            "elemType": "struct StakingPool.staking",
                            "elems": [
                                {
                                    "index": 139,
                                    "value": {
                                        "fields": [
                                            {
                                                "name": "balances",
                                                "type": "uint256",
                                                "value": {
                                                    "current": "0",
                                                    "prev": "1",
                                                    "typeTag": 1
                                                }
                                            },
                                            {
                                                "name": "check_claim",
                                                "type": "uint256",
                                                "value": {
                                                    "current": "0",
                                                    "prev": "6000000000000000000000",
                                                    "typeTag": 1
                                                }
                                            }
                                        ],
                                        "typeTag": 3
                                    }
                                }
                            ],
                            "typeTag": 2
                        }
                    }
                ]
            }
        ]
    }
}