{
    "balance_change": {
        "balanceChanges": []
    },
    "profile": {
        "basic_info": {
            "baseFee": "195.755509066",
            "blockNumber": 14090170,
            "callData": "0x05e2ca17000000000000000000000000000000000000000000000000000000000000000100000000000000000000002f422fe9ea622049d6f73f81a906b9b8cff03b7f0100000000000000000000000000000000000000000000000000000000000000600000000000000000000000000000000000000000000000000000000000000060000000000000000000000000000000000000000000000000000000000000006900000000000000000000000000000000000000000000000a4cc799563c380000000000000000000000000000d01ae1a708614948b2b5e0b7ab5be6afa01325c7",
            "debugEnable": true,
            "errorInfo": "",
            "eventCount": 1,
            "feeRecipient": "0xc3348b43d3881151224b490e4aa39e03d2b1cdea",
            "formatValue": "0",
            "gasLimit": 108202,
            "gasPrice": "197.755509066",
            "gasUsed": 71514,
            "intTxnCount": 4,
            "internalRevert": false,
            "internalRevertMessage": "",
            "isContractCreation": false,
            "isFlashloan": false,
            "maxFee": "241.690325562",
            "nonce": 2,
            "overwritedBlockNumber": -1,
            "priorityFee": "2",
            "receiver": "0x20e5e35ba29dc3b540a1aee781d0814d5c77bce6",
            "revertMessage": "",
            "sender": "0xd01ae1a708614948b2b5e0b7ab5be6afa01325c7",
            "simulationEnable": true,
            "sourceTxnHash": "0xac7292e7d0ec8ebe1c94203d190874b2aab30592327b6cc875d00f18de6f3133",
            "status": true,
            "timestamp": "2022-01-27T21:34:01Z",
            "transactionFee": "0.014142287475345924",
            "txnHash": "0xac7292e7d0ec8ebe1c94203d190874b2aab30592327b6cc875d00f18de6f3133",
            "txnIndex": 6,
            "type": 2,
            "value": "0"
        },
        "fund_flow": [],
        "token_infos": [
            {
                "address": "0xc02aaa39b223fe8d0a0e5c4f27ead9083c756cc2",
                "decimals": 18
            },
            {
                "address": "0xeeeeeeeeeeeeeeeeeeeeeeeeeeeeeeeeeeeeeeee",
                "decimals": 18
            }
        ]
    },
    "address_label": {
        "labels": [
            {
                "address": "0x80d1486ef600cc56d4df9ed33baf53c60d5a629b",
                "label": "QBridgeHandler"
            },
            {
                "address": "0x0000000000000000000000000000000000000001",
                "label": "Precompiled"
            },
            {
                "address": "0x0000000000000000000000000000000000000003",
                "label": "Precompiled"
            },
            {
                "address": "0x20e5e35ba29dc3b540a1aee781d0814d5c77bce6",
                "label": "TransparentUpgradeableProxy_20e5_bce6"
            },
            {
                "address": "0xd01ae1a708614948b2b5e0b7ab5be6afa01325c7",
                "label": "QubitFin Exploiter"
            },
            {
                "address": "0x99309d2e7265528dc7c3067004cc4a90d37b7cc3",
                "label": "QBridge"
            },
            {
                "address": "0x0000000000000000000000000000000000000002",
                "label": "Precompiled"
            },
            {
                "address": "0x0000000000000000000000000000000000000004",
                "label": "Precompiled"
            },
            {
                "address": "0xeeeeeeeeeeeeeeeeeeeeeeeeeeeeeeeeeeeeeeee",
                "label": "Ether"
            },
            {
                "address": "0x0000000000000000000000000000000000000000",
                "label": "Null Address"
            },
            {
                "address": "0x17b7163cf1dbd286e262ddc68b553d899b93f526",
                "label": "TransparentUpgradeableProxy_17b7_f526"
            }
        ]
    },
    "trace": {
        "accountLabels": null,
        "dataMap": {
            "-1": {
                "invocation": {
                    "address": "0xd01ae1a708614948b2b5e0b7ab5be6afa01325c7",
                    "callData": "",
                    "decodedMethod": null,
                    "errorInfo": "",
                    "fromAddress": "",
                    "gasUsed": 0,
                    "id": -1,
                    "methodDecoded": false,
                    "operation": "",
                    "output": "",
                    "revert": false,
                    "revertMessage": "",
                    "selector": "",
                    "status": false,
                    "value": ""
                },
                "nodeType": 0
            },
            "0": {
                "invocation": {
                    "address": "0x20e5e35ba29dc3b540a1aee781d0814d5c77bce6",
                    "callData": "0x000000000000000000000000000000000000000000000000000000000000000100000000000000000000002f422fe9ea622049d6f73f81a906b9b8cff03b7f0100000000000000000000000000000000000000000000000000000000000000600000000000000000000000000000000000000000000000000000000000000060000000000000000000000000000000000000000000000000000000000000006900000000000000000000000000000000000000000000000a4cc799563c380000000000000000000000000000d01ae1a708614948b2b5e0b7ab5be6afa01325c7",
                    "decodedMethod": {
                        "callParams": [
                            {
                                "name": "destinationDomainID",
                                "type": "uint8",
                                "value": "1"
                            },
                            {
                                "name": "resourceID",
                                "type": "bytes32",
                                "value": "0x00000000000000000000002f422fe9ea622049d6f73f81a906b9b8cff03b7f01"
                            },
                            {
                                "name": "data",
                                "type": "bytes",
                                "value": "0x000000000000000000000000000000000000000000000000000000000000006900000000000000000000000000000000000000000000000a4cc799563c380000000000000000000000000000d01ae1a708614948b2b5e0b7ab5be6afa01325c7"
                            }
                        ],
                        "constructorArguments": "",
                        "name": "deposit",
                        "returnParams": [],
                        "signature": "deposit(uint8,bytes32,bytes)"
                    },
                    "errorInfo": "",
                    "fromAddress": "0xd01ae1a708614948b2b5e0b7ab5be6afa01325c7",
                    "gasUsed": 71514,
                    "id": 0,
                    "methodDecoded": true,
                    "operation": "CALL",
                    "output": "",
                    "revert": false,
                    "revertMessage": "",
                    "selector": "0x05e2ca17",
                    "status": true,
                    "value": "0"
                },
                "nodeType": 0
            },
            "1": {
                "invocation": {
                    "address": "0x99309d2e7265528dc7c3067004cc4a90d37b7cc3",
                    "callData": "0x000000000000000000000000000000000000000000000000000000000000000100000000000000000000002f422fe9ea622049d6f73f81a906b9b8cff03b7f0100000000000000000000000000000000000000000000000000000000000000600000000000000000000000000000000000000000000000000000000000000060000000000000000000000000000000000000000000000000000000000000006900000000000000000000000000000000000000000000000a4cc799563c380000000000000000000000000000d01ae1a708614948b2b5e0b7ab5be6afa01325c7",
                    "decodedMethod": {
                        "callParams": [
                            {
                                "name": "destinationDomainID",
                                "type": "uint8",
                                "value": "1"
                            },
                            {
                                "name": "resourceID",
                                "type": "bytes32",
                                "value": "0x00000000000000000000002f422fe9ea622049d6f73f81a906b9b8cff03b7f01"
                            },
                            {
                                "name": "data",
                                "type": "bytes",
                                "value": "0x000000000000000000000000000000000000000000000000000000000000006900000000000000000000000000000000000000000000000a4cc799563c380000000000000000000000000000d01ae1a708614948b2b5e0b7ab5be6afa01325c7"
                            }
                        ],
                        "constructorArguments": "",
                        "name": "deposit",
                        "returnParams": [],
                        "signature": "deposit(uint8,bytes32,bytes)"
                    },
                    "errorInfo": "",
                    "fromAddress": "0x20e5e35ba29dc3b540a1aee781d0814d5c77bce6",
                    "gasUsed": 41569,
                    "id": 1,
                    "methodDecoded": true,
                    "operation": "DELEGATECALL",
                    "output": "",
                    "revert": false,
                    "revertMessage": "",
                    "selector": "0x05e2ca17",
                    "status": true,
                    "value": "0"
                },
                "nodeType": 0
            },
            "2": {
                "invocation": {
                    "address": "0x17b7163cf1dbd286e262ddc68b553d899b93f526",
                    "callData": "0x00000000000000000000002f422fe9ea622049d6f73f81a906b9b8cff03b7f01000000000000000000000000d01ae1a708614948b2b5e0b7ab5be6afa01325c700000000000000000000000000000000000000000000000000000000000000600000000000000000000000000000000000000000000000000000000000000060000000000000000000000000000000000000000000000000000000000000006900000000000000000000000000000000000000000000000a4cc799563c380000000000000000000000000000d01ae1a708614948b2b5e0b7ab5be6afa01325c7",
                    "decodedMethod": {
                        "callParams": [
                            {
                                "name": "resourceID",
                                "type": "bytes32",
                                "value": "0x00000000000000000000002f422fe9ea622049d6f73f81a906b9b8cff03b7f01"
                            },
                            {
                                "name": "depositer",
                                "type": "address",
                                "value": "0xd01ae1a708614948b2b5e0b7ab5be6afa01325c7"
                            },
                            {
                                "name": "data",
                                "type": "bytes",
                                "value": "0x000000000000000000000000000000000000000000000000000000000000006900000000000000000000000000000000000000000000000a4cc799563c380000000000000000000000000000d01ae1a708614948b2b5e0b7ab5be6afa01325c7"
                            }
                        ],
                        "constructorArguments": "",
                        "name": "deposit",
                        "returnParams": [],
                        "signature": "deposit(bytes32,address,bytes)"
                    },
                    "errorInfo": "",
                    "fromAddress": "0x20e5e35ba29dc3b540a1aee781d0814d5c77bce6",
                    "gasUsed": 22653,
                    "id": 2,
                    "methodDecoded": true,
                    "operation": "CALL",
                    "output": "",
                    "revert": false,
                    "revertMessage": "",
                    "selector": "0xb07e54bb",
                    "status": true,
                    "value": "0"
                },
                "nodeType": 0
            },
            "3": {
                "invocation": {
                    "address": "0x80d1486ef600cc56d4df9ed33baf53c60d5a629b",
                    "callData": "0x00000000000000000000002f422fe9ea622049d6f73f81a906b9b8cff03b7f01000000000000000000000000d01ae1a708614948b2b5e0b7ab5be6afa01325c700000000000000000000000000000000000000000000000000000000000000600000000000000000000000000000000000000000000000000000000000000060000000000000000000000000000000000000000000000000000000000000006900000000000000000000000000000000000000000000000a4cc799563c380000000000000000000000000000d01ae1a708614948b2b5e0b7ab5be6afa01325c7",
                    "decodedMethod": {
                        "callParams": [
                            {
                                "name": "resourceID",
                                "type": "bytes32",
                                "value": "0x00000000000000000000002f422fe9ea622049d6f73f81a906b9b8cff03b7f01"
                            },
                            {
                                "name": "depositer",
                                "type": "address",
                                "value": "0xd01ae1a708614948b2b5e0b7ab5be6afa01325c7"
                            },
                            {
                                "name": "data",
                                "type": "bytes",
                                "value": "0x000000000000000000000000000000000000000000000000000000000000006900000000000000000000000000000000000000000000000a4cc799563c380000000000000000000000000000d01ae1a708614948b2b5e0b7ab5be6afa01325c7"
                            }
                        ],
                        "constructorArguments": "",
                        "name": "deposit",
                        "returnParams": [],
                        "signature": "deposit(bytes32,address,bytes)"
                    },
                    "errorInfo": "",
                    "fromAddress": "0x17b7163cf1dbd286e262ddc68b553d899b93f526",
                    "gasUsed": 15292,
                    "id": 3,
                    "methodDecoded": true,
                    "operation": "DELEGATECALL",
                    "output": "",
                    "revert": false,
                    "revertMessage": "",
                    "selector": "0xb07e54bb",
                    "status": true,
                    "value": "0"
                },
                "nodeType": 0
            },
            "4": {
                "invocation": {
                    "address": "0x0000000000000000000000000000000000000000",
                    "callData": "0x000000000000000000000000d01ae1a708614948b2b5e0b7ab5be6afa01325c700000000000000000000000017b7163cf1dbd286e262ddc68b553d899b93f52600000000000000000000000000000000000000000000000a4cc799563c380000",
                    "decodedMethod": {
                        "callParams": [
                            {
                                "name": "from",
                                "type": "address",
                                "value": "0xd01ae1a708614948b2b5e0b7ab5be6afa01325c7"
                            },
                            {
                                "name": "to",
                                "type": "address",
                                "value": "0x17b7163cf1dbd286e262ddc68b553d899b93f526"
                            },
                            {
                                "decimalAvailable": true,
                                "name": "tokenId",
                                "type": "uint256",
                                "value": "190,000,000,000,000,000,000"
                            }
                        ],
                        "constructorArguments": "",
                        "name": "transferFrom",
                        "returnParams": [],
                        "signature": "transferFrom(address,address,uint256)"
                    },
                    "errorInfo": "",
                    "fromAddress": "0x17b7163cf1dbd286e262ddc68b553d899b93f526",
                    "gasUsed": 0,
                    "id": 4,
                    "methodDecoded": true,
                    "operation": "CALL",
                    "output": "",
                    "revert": false,
                    "revertMessage": "",
                    "selector": "0x23b872dd",
                    "status": true,
                    "value": "0"
                },
                "nodeType": 0
            },
            "5": {
                "event": {
                    "contract": "0x20e5e35ba29dc3b540a1aee781d0814d5c77bce6",
                    "decodedLog": {
                        "name": "Deposit",
                        "params": [
                            {
                                "name": "user",
                                "type": "address",
                                "value": "0xd01ae1a708614948b2b5e0b7ab5be6afa01325c7"
                            },
                            {
                                "name": "destinationDomainID",
                                "type": "uint8",
                                "value": "1"
                            },
                            {
                                "name": "resourceID",
                                "type": "bytes32",
                                "value": "0x00000000000000000000002f422fe9ea622049d6f73f81a906b9b8cff03b7f01"
                            },
                            {
                                "name": "depositNonce",
                                "type": "uint64",
                                "value": "86"
                            },
                            {
                                "name": "data",
                                "type": "bytes",
                                "value": "0x000000000000000000000000000000000000000000000000000000000000006900000000000000000000000000000000000000000000000a4cc799563c380000000000000000000000000000d01ae1a708614948b2b5e0b7ab5be6afa01325c7"
                            }
                        ],
                        "signature": "Deposit(uint8,bytes32,uint64,address,bytes)"
                    },
                    "id": 5,
                    "logData": "0x000000000000000000000000000000000000000000000000000000000000000100000000000000000000002f422fe9ea622049d6f73f81a906b9b8cff03b7f01000000000000000000000000000000000000000000000000000000000000005600000000000000000000000000000000000000000000000000000000000000800000000000000000000000000000000000000000000000000000000000000060000000000000000000000000000000000000000000000000000000000000006900000000000000000000000000000000000000000000000a4cc799563c380000000000000000000000000000d01ae1a708614948b2b5e0b7ab5be6afa01325c7",
                    "logDecoded": true,
                    "operation": "EVENT",
                    "revert": false,
                    "status": true,
                    "topics": [
                        "0x9685971ce323aadcdbcd895683b8947d4454b020a263e7fa49aefb0fd0c9317d",
                        "0x000000000000000000000000d01ae1a708614948b2b5e0b7ab5be6afa01325c7"
                    ]
                },
                "nodeType": 1
            }
        },
        "gasFlame": [
            {
                "children": [
                    {
                        "children": [
                            {
                                "children": [],
                                "depth": 0,
                                "name": "Initial Gas",
                                "value": 22584
                            },
                            {
                                "children": [
                                    {
                                        "children": [
                                            {
                                                "children": [
                                                    {
                                                        "children": [
                                                            {
                                                                "children": [],
                                                                "depth": 4,
                                                                "name": "transferFrom",
                                                                "value": 0
                                                            }
                                                        ],
                                                        "depth": 3,
                                                        "name": "deposit",
                                                        "value": 15292
                                                    }
                                                ],
                                                "depth": 2,
                                                "name": "deposit",
                                                "value": 22653
                                            }
                                        ],
                                        "depth": 1,
                                        "name": "deposit",
                                        "value": 41569
                                    }
                                ],
                                "depth": 0,
                                "name": "Executed Gas",
                                "value": 48930
                            }
                        ],
                        "depth": -1,
                        "name": "Actual Gas Used",
                        "value": 71514
                    },
                    {
                        "children": [],
                        "depth": -1,
                        "name": "Refunded Gas",
                        "value": 0
                    }
                ],
                "depth": -2,
                "name": "Total Gas",
                "value": 71514
            }
        ],
        "isConfirmed": true,
        "mainTrace": [
            {
                "children": [
                    {
                        "children": [
                            {
                                "children": [
                                    {
                                        "children": [
                                            {
                                                "children": [
                                                    {
                                                        "children": [],
                                                        "depth": 4,
                                                        "id": 4,
                                                        "order": 4
                                                    }
                                                ],
                                                "depth": 3,
                                                "id": 3,
                                                "order": 3
                                            }
                                        ],
                                        "depth": 2,
                                        "id": 2,
                                        "order": 2
                                    },
                                    {
                                        "children": [],
                                        "depth": 2,
                                        "id": 5,
                                        "order": 5
                                    }
                                ],
                                "depth": 1,
                                "id": 1,
                                "order": 1
                            }
                        ],
                        "depth": 0,
                        "id": 0,
                        "order": 0
                    }
                ],
                "depth": -1,
                "id": -1,
                "order": -1
            }
        ],
        "mainTraceNodeCount": 6,
        "parentIdMap": {
            "0": -1,
            "1": 0,
            "2": 1,
            "3": 2,
            "4": 3,
            "5": 1
        },
        "tidyTrace": [
            {
                "children": [
                    {
                        "children": [
                            {
                                "children": [
                                    {
                                        "children": [
                                            {
                                                "children": [
                                                    {
                                                        "children": [],
                                                        "depth": 4,
                                                        "id": 4,
                                                        "order": 4
                                                    }
                                                ],
                                                "depth": 3,
                                                "id": 3,
                                                "order": 3
                                            }
                                        ],
                                        "depth": 2,
                                        "id": 2,
                                        "order": 2
                                    },
                                    {
                                        "children": [],
                                        "depth": 2,
                                        "id": 5,
                                        "order": 5
                                    }
                                ],
                                "depth": 1,
                                "id": 1,
                                "order": 1
                            }
                        ],
                        "depth": 0,
                        "id": 0,
                        "order": 0
                    }
                ],
                "depth": -1,
                "id": -1,
                "order": -1
            }
        ],
        "tidyTraceNodeCount": 6
    },
    "state_change": {
        "stateChanges": [
            {
                "address": "0x20e5e35ba29dc3b540a1aee781d0814d5c77bce6",
                "erc": "",
                "slots": [
                    {
                        "current": "0x0000000000000000000000000000000000000000000000000000000000000056",
                        "key": "0xe7bf1de387f1223f0fc355696e043550abf1cecefa85fce0e824dbbcb1125e72",
                        "prev": "0x0000000000000000000000000000000000000000000000000000000000000055"
                    }
                ],
                "storageVariables": [
                    {
                        "name": "_depositCounts",
                        "type": "mapping(uint8 => uint64)",
                        "value": {
                            "pairs": [
                                {
                                    "key": "1",
                                    "value": {
                                        "current": "86",
                                        "prev": "85",
                                        "typeTag": 1
                                    }
                                }
                            ],
                            "typeTag": 4
                        }
                    }
                ]
            }
        ]
    }
}