{
    "balance_change": {
        "balanceChanges": []
    },
    "profile": {
        "basic_info": {
            "baseFee": "33.6189548",
            "blockNumber": 12996659,
            "callData": "0xd450e04c00000000000000000000000000000000000000000000000000000000000000a000000000000000000000000000000000000000000000000000000000000001e000000000000000000000000000000000000000000000000000000000000003e0000000000000000000000000000000000000000000000000000000000000042000000000000000000000000000000000000000000000000000000000000004600000000000000000000000000000000000000000000000000000000000000113af2080cc978479eb082e1e656993c63dee7a5d08a00dc2b2aab88bc0e465cfa0721a0300000000000000200c28ffffaa7c5602285476ad860c54039782f8f20bd3677ba3d5250661ba71f708ea3100000000000014e1a18842891f8e82a5e6e5ad0a06d8448fe2f407020000000000000014cf2afe102057ba5c16f899271045a0a37fcb10f20b66313132313331383039331d010000000000000014a87fb85a93ca072cd4e5f0d4f178bc831df8a00b01362cad381a1e2432383300391908794fb71a2acd717d2f1565a40e7f8d36f9d5017b5baaca2a25e97f5afa40e98f87b0eca2eb0e9e7f24684d1b56db214aa51b3301ee1671b66cad1415453c0544d7e4425c1632e1b7dfdae3bd642ed7954e9f9b0d0000000000000000000000000000000000000000000000000000000000000000000000000000000000000001c60000000000000000000000008446719cbe62cf6fb9e3fb95a6c12882c5a3d885ad1dd8f2785e48d617d12708d38136a7df909f371a9f835d3ad58637e0dbc2f3e0f4bb60228730a46f77839a773046bcc14f6079db9033d0ab6176f171384070729fbfd2086a418e7e057717f3e67f4b67c999d13c258e5657f4dc0b5553e1836d0d81d1bff05b621053834bc7471261843aa80030451454a4f4b560fd13017b226c6561646572223a332c227672665f76616c7565223a22424851706a716f325767494d616a7a5a5a6c4158507951506c7a3357456e4a534e7470682b35416346376f37654b784e48486742704156724e54666f674c73485264394c7a544a5666666171787036734a637570324d303d222c227672665f70726f6f66223a226655346f56364462526d543264744d5254397a326b366853314f6f42584963397a72544956784974576348652f4b56594f2b58384f5167746143494d676139682f59615548564d514e554941326141484f664d545a773d3d222c226c6173745f636f6e6669675f626c6f636b5f6e756d223a31303938303030302c226e65775f636861696e5f636f6e666967223a6e756c6c7d00000000000000000000000000000000000000000000000000000000000000000000000000000000000000000000000000000000000000000000000000000000000000000000000000000000000000000000000000000000000000000000000000000000000000000000000000000000000000000000000000000000000000000000000000000000000000000000000000000000000000000000000000000000000000000000000000000000000000000000000000000000000000000000000000000000000000000000000000c37e3359dec445d7d49b80d9999ef2e34f01b6526f2a0b848fcb223201b21ced0e51bece6815510bf7283e98175c0bdfde8b5b1bdc38beef5e7b8ab1b8e8d1b2c900428e40826b3606e0b684d66e9406a5c0d69c16a5cbda8fefe176716f3286e872361ed29bd945b56d5af3a8c581d2b627f679061282f11a6e9b021fe3426faece00e09479bd3581f9eb27be273a761c509f6f20bde1c6a4187fa082c4e55b2f07684034b50075441c51cfc3061879bcf04e5a256b21379f67a2dc0643843bf64380000000000000000000000000000000000000000000000000000000000000",
            "debugEnable": true,
            "errorInfo": "",
            "eventCount": 1,
            "feeRecipient": "0x5a0b54d5dc17e0aadc383d2db43b0a0d3e029c4c",
            "formatValue": "0",
            "gasLimit": 153519,
            "gasPrice": "36.821395858",
            "gasUsed": 139119,
            "intTxnCount": 17,
            "internalRevert": false,
            "internalRevertMessage": "",
            "isContractCreation": false,
            "isFlashloan": false,
            "maxFee": "",
            "nonce": 0,
            "overwritedBlockNumber": -1,
            "priorityFee": "",
            "receiver": "0x838bf9e95cb12dd76a54c9f9d2e3082eaf928270",
            "revertMessage": "",
            "sender": "0xc8a65fadf0e0ddaf421f28feab69bf6e2e589963",
            "simulationEnable": true,
            "sourceTxnHash": "0xb1f70464bd95b774c6ce60fc706eb5f9e35cb5f06e6cfe7c17dcda46ffd59581",
            "status": true,
            "timestamp": "2021-08-10T09:48:40Z",
            "transactionFee": "0.005122555770369102",
            "txnHash": "0xb1f70464bd95b774c6ce60fc706eb5f9e35cb5f06e6cfe7c17dcda46ffd59581",
            "txnIndex": 327,
            "type": 0,
            "value": "0"
        },
        "fund_flow": [],
        "token_infos": [
            {
                "address": "0xc02aaa39b223fe8d0a0e5c4f27ead9083c756cc2",
                "decimals": 18
            },
            {
                "address": "0xeeeeeeeeeeeeeeeeeeeeeeeeeeeeeeeeeeeeeeee",
                "decimals": 18
            }
        ]
    },
    "address_label": {
        "labels": [
            {
                "address": "0xcf2afe102057ba5c16f899271045a0a37fcb10f2",
                "label": "EthCrossChainData"
            },
            {
                "address": "0x0000000000000000000000000000000000000002",
                "label": "Precompiled"
            },
            {
                "address": "0x0000000000000000000000000000000000000001",
                "label": "Precompiled"
            },
            {
                "address": "0x0000000000000000000000000000000000000003",
                "label": "Precompiled"
            },
            {
                "address": "0x0000000000000000000000000000000000000004",
                "label": "Precompiled"
            },
            {
                "address": "0xeeeeeeeeeeeeeeeeeeeeeeeeeeeeeeeeeeeeeeee",
                "label": "Ether"
            },
            {
                "address": "0xc8a65fadf0e0ddaf421f28feab69bf6e2e589963",
                "label": "PolyNetwork Exploiter 1"
            }
        ]
    },
    "trace": {
        "accountLabels": null,
        "dataMap": {
            "-1": {
                "invocation": {
                    "address": "0xc8a65fadf0e0ddaf421f28feab69bf6e2e589963",
                    "callData": "",
                    "decodedMethod": null,
                    "errorInfo": "",
                    "fromAddress": "",
                    "gasUsed": 0,
                    "id": -1,
                    "methodDecoded": false,
                    "operation": "",
                    "output": "",
                    "revert": false,
                    "revertMessage": "",
                    "selector": "",
                    "status": false,
                    "value": ""
                },
                "nodeType": 0
            },
            "0": {
                "invocation": {
                    "address": "0x838bf9e95cb12dd76a54c9f9d2e3082eaf928270",
                    "callData": "0x00000000000000000000000000000000000000000000000000000000000000a000000000000000000000000000000000000000000000000000000000000001e000000000000000000000000000000000000000000000000000000000000003e0000000000000000000000000000000000000000000000000000000000000042000000000000000000000000000000000000000000000000000000000000004600000000000000000000000000000000000000000000000000000000000000113af2080cc978479eb082e1e656993c63dee7a5d08a00dc2b2aab88bc0e465cfa0721a0300000000000000200c28ffffaa7c5602285476ad860c54039782f8f20bd3677ba3d5250661ba71f708ea3100000000000014e1a18842891f8e82a5e6e5ad0a06d8448fe2f407020000000000000014cf2afe102057ba5c16f899271045a0a37fcb10f20b66313132313331383039331d010000000000000014a87fb85a93ca072cd4e5f0d4f178bc831df8a00b01362cad381a1e2432383300391908794fb71a2acd717d2f1565a40e7f8d36f9d5017b5baaca2a25e97f5afa40e98f87b0eca2eb0e9e7f24684d1b56db214aa51b3301ee1671b66cad1415453c0544d7e4425c1632e1b7dfdae3bd642ed7954e9f9b0d0000000000000000000000000000000000000000000000000000000000000000000000000000000000000001c60000000000000000000000008446719cbe62cf6fb9e3fb95a6c12882c5a3d885ad1dd8f2785e48d617d12708d38136a7df909f371a9f835d3ad58637e0dbc2f3e0f4bb60228730a46f77839a773046bcc14f6079db9033d0ab6176f171384070729fbfd2086a418e7e057717f3e67f4b67c999d13c258e5657f4dc0b5553e1836d0d81d1bff05b621053834bc7471261843aa80030451454a4f4b560fd13017b226c6561646572223a332c227672665f76616c7565223a22424851706a716f325767494d616a7a5a5a6c4158507951506c7a3357456e4a534e7470682b35416346376f37654b784e48486742704156724e54666f674c73485264394c7a544a5666666171787036734a637570324d303d222c227672665f70726f6f66223a226655346f56364462526d543264744d5254397a326b366853314f6f42584963397a72544956784974576348652f4b56594f2b58384f5167746143494d676139682f59615548564d514e554941326141484f664d545a773d3d222c226c6173745f636f6e6669675f626c6f636b5f6e756d223a31303938303030302c226e65775f636861696e5f636f6e666967223a6e756c6c7d00000000000000000000000000000000000000000000000000000000000000000000000000000000000000000000000000000000000000000000000000000000000000000000000000000000000000000000000000000000000000000000000000000000000000000000000000000000000000000000000000000000000000000000000000000000000000000000000000000000000000000000000000000000000000000000000000000000000000000000000000000000000000000000000000000000000000000000000000c37e3359dec445d7d49b80d9999ef2e34f01b6526f2a0b848fcb223201b21ced0e51bece6815510bf7283e98175c0bdfde8b5b1bdc38beef5e7b8ab1b8e8d1b2c900428e40826b3606e0b684d66e9406a5c0d69c16a5cbda8fefe176716f3286e872361ed29bd945b56d5af3a8c581d2b627f679061282f11a6e9b021fe3426faece00e09479bd3581f9eb27be273a761c509f6f20bde1c6a4187fa082c4e55b2f07684034b50075441c51cfc3061879bcf04e5a256b21379f67a2dc0643843bf64380000000000000000000000000000000000000000000000000000000000000",
                    "decodedMethod": {
                        "callParams": [
                            {
                                "name": "proof",
                                "type": "bytes",
                                "value": "0xaf2080cc978479eb082e1e656993c63dee7a5d08a00dc2b2aab88bc0e465cfa0721a0300000000000000200c28ffffaa7c5602285476ad860c54039782f8f20bd3677ba3d5250661ba71f708ea3100000000000014e1a18842891f8e82a5e6e5ad0a06d8448fe2f407020000000000000014cf2afe102057ba5c16f899271045a0a37fcb10f20b66313132313331383039331d010000000000000014a87fb85a93ca072cd4e5f0d4f178bc831df8a00b01362cad381a1e2432383300391908794fb71a2acd717d2f1565a40e7f8d36f9d5017b5baaca2a25e97f5afa40e98f87b0eca2eb0e9e7f24684d1b56db214aa51b3301ee1671b66cad1415453c0544d7e4425c1632e1b7dfdae3bd642ed7954e9f9b0d"
                            },
                            {
                                "name": "rawHeader",
                                "type": "bytes",
                                "value": "0x0000000000000000000000008446719cbe62cf6fb9e3fb95a6c12882c5a3d885ad1dd8f2785e48d617d12708d38136a7df909f371a9f835d3ad58637e0dbc2f3e0f4bb60228730a46f77839a773046bcc14f6079db9033d0ab6176f171384070729fbfd2086a418e7e057717f3e67f4b67c999d13c258e5657f4dc0b5553e1836d0d81d1bff05b621053834bc7471261843aa80030451454a4f4b560fd13017b226c6561646572223a332c227672665f76616c7565223a22424851706a716f325767494d616a7a5a5a6c4158507951506c7a3357456e4a534e7470682b35416346376f37654b784e48486742704156724e54666f674c73485264394c7a544a5666666171787036734a637570324d303d222c227672665f70726f6f66223a226655346f56364462526d543264744d5254397a326b366853314f6f42584963397a72544956784974576348652f4b56594f2b58384f5167746143494d676139682f59615548564d514e554941326141484f664d545a773d3d222c226c6173745f636f6e6669675f626c6f636b5f6e756d223a31303938303030302c226e65775f636861696e5f636f6e666967223a6e756c6c7d0000000000000000000000000000000000000000"
                            },
                            {
                                "name": "headerProof",
                                "type": "bytes",
                                "value": "0x"
                            },
                            {
                                "name": "curRawHeader",
                                "type": "bytes",
                                "value": "0x"
                            },
                            {
                                "name": "headerSig",
                                "type": "bytes",
                                "value": "0x7e3359dec445d7d49b80d9999ef2e34f01b6526f2a0b848fcb223201b21ced0e51bece6815510bf7283e98175c0bdfde8b5b1bdc38beef5e7b8ab1b8e8d1b2c900428e40826b3606e0b684d66e9406a5c0d69c16a5cbda8fefe176716f3286e872361ed29bd945b56d5af3a8c581d2b627f679061282f11a6e9b021fe3426faece00e09479bd3581f9eb27be273a761c509f6f20bde1c6a4187fa082c4e55b2f07684034b50075441c51cfc3061879bcf04e5a256b21379f67a2dc0643843bf6438000"
                            }
                        ],
                        "constructorArguments": "",
                        "name": "verifyHeaderAndExecuteTx",
                        "returnParams": [
                            {
                                "name": "",
                                "type": "bool",
                                "value": true
                            }
                        ],
                        "signature": "verifyHeaderAndExecuteTx(bytes,bytes,bytes,bytes,bytes)"
                    },
                    "errorInfo": "",
                    "fromAddress": "0xc8a65fadf0e0ddaf421f28feab69bf6e2e589963",
                    "gasUsed": 139119,
                    "id": 0,
                    "methodDecoded": true,
                    "operation": "CALL",
                    "output": "0x0000000000000000000000000000000000000000000000000000000000000001",
                    "revert": false,
                    "revertMessage": "",
                    "selector": "0xd450e04c",
                    "status": true,
                    "value": "0"
                },
                "nodeType": 0
            },
            "1": {
                "invocation": {
                    "address": "0xcf2afe102057ba5c16f899271045a0a37fcb10f2",
                    "callData": "0x",
                    "decodedMethod": {
                        "callParams": [],
                        "constructorArguments": "",
                        "name": "getCurEpochConPubKeyBytes",
                        "returnParams": [
                            {
                                "name": "",
                                "type": "bytes",
                                "value": "0x0400000000000000143dfccb7b8a6972cde3b695d3c0c032514b0f3825144c46e1f946362547546677bfa719598385ce56f214f81f676832f6dfec4a5d0671bd27156425fcef981451b7529137d34002c4ebd81a2244f0ee7e95b2c0"
                            }
                        ],
                        "signature": "getCurEpochConPubKeyBytes()"
                    },
                    "errorInfo": "",
                    "fromAddress": "0x838bf9e95cb12dd76a54c9f9d2e3082eaf928270",
                    "gasUsed": 9617,
                    "id": 1,
                    "methodDecoded": true,
                    "operation": "STATICCALL",
                    "output": "0x0000000000000000000000000000000000000000000000000000000000000020000000000000000000000000000000000000000000000000000000000000005c0400000000000000143dfccb7b8a6972cde3b695d3c0c032514b0f3825144c46e1f946362547546677bfa719598385ce56f214f81f676832f6dfec4a5d0671bd27156425fcef981451b7529137d34002c4ebd81a2244f0ee7e95b2c000000000",
                    "revert": false,
                    "revertMessage": "",
                    "selector": "0x69d48074",
                    "status": true,
                    "value": "0"
                },
                "nodeType": 0
            },
            "10": {
                "invocation": {
                    "address": "0x0000000000000000000000000000000000000001",
                    "callData": "0xf542d980f57579bb908b1afd5e36a6340aa12fbdd05652355ceda2c8000000000000000000000000000000000000000000000000000000000000001be09479bd3581f9eb27be273a761c509f6f20bde1c6a4187fa082c4e55b2f07684034b50075441c51cfc3061879bcf04e5a256b21379f67a2dc0643843bf64380",
                    "decodedMethod": {
                        "callParams": [
                            {
                                "name": "hash",
                                "type": "bytes32",
                                "value": "0xba7b16a5f542d980f57579bb908b1afd5e36a6340aa12fbdd05652355ceda2c8"
                            },
                            {
                                "name": "v",
                                "type": "uint256",
                                "value": "27"
                            },
                            {
                                "name": "r",
                                "type": "bytes32",
                                "value": "0xe09479bd3581f9eb27be273a761c509f6f20bde1c6a4187fa082c4e55b2f0768"
                            },
                            {
                                "name": "s",
                                "type": "bytes32",
                                "value": "0x4034b50075441c51cfc3061879bcf04e5a256b21379f67a2dc0643843bf64380"
                            }
                        ],
                        "constructorArguments": "",
                        "name": "ecrecover",
                        "returnParams": [
                            {
                                "name": "",
                                "type": "address",
                                "value": "0xf81f676832f6dfec4a5d0671bd27156425fcef98"
                            }
                        ],
                        "signature": "ecrecover(bytes32,uint256,bytes32,bytes32)"
                    },
                    "errorInfo": "",
                    "fromAddress": "0x838bf9e95cb12dd76a54c9f9d2e3082eaf928270",
                    "gasUsed": 3000,
                    "id": 10,
                    "methodDecoded": true,
                    "operation": "STATICCALL",
                    "output": "0x000000000000000000000000f81f676832f6dfec4a5d0671bd27156425fcef98",
                    "revert": false,
                    "revertMessage": "",
                    "selector": "0xba7b16a5",
                    "status": true,
                    "value": "0"
                },
                "nodeType": 0
            },
            "11": {
                "invocation": {
                    "address": "0x0000000000000000000000000000000000000002",
                    "callData": "0x978479eb082e1e656993c63dee7a5d08a00dc2b2aab88bc0e465cfa0721a0300000000000000200c28ffffaa7c5602285476ad860c54039782f8f20bd3677ba3d5250661ba71f708ea3100000000000014e1a18842891f8e82a5e6e5ad0a06d8448fe2f407020000000000000014cf2afe102057ba5c16f899271045a0a37fcb10f20b66313132313331383039331d010000000000000014a87fb85a93ca072cd4e5f0d4f178bc831df8a00b",
                    "decodedMethod": {
                        "callParams": [
                            {
                                "name": "data",
                                "type": "bytes",
                                "value": "0x002080cc978479eb082e1e656993c63dee7a5d08a00dc2b2aab88bc0e465cfa0721a0300000000000000200c28ffffaa7c5602285476ad860c54039782f8f20bd3677ba3d5250661ba71f708ea3100000000000014e1a18842891f8e82a5e6e5ad0a06d8448fe2f407020000000000000014cf2afe102057ba5c16f899271045a0a37fcb10f20b66313132313331383039331d010000000000000014a87fb85a93ca072cd4e5f0d4f178bc831df8a00b"
                            }
                        ],
                        "constructorArguments": "",
                        "name": "sha256hash",
                        "returnParams": [
                            {
                                "name": "hash",
                                "type": "bytes32",
                                "value": "0xf4e8d53079ad318a4f56c8968527941b28959e7834b28e979f5dc03f361eef96"
                            }
                        ],
                        "signature": "sha256hash(bytes)"
                    },
                    "errorInfo": "",
                    "fromAddress": "0x838bf9e95cb12dd76a54c9f9d2e3082eaf928270",
                    "gasUsed": 132,
                    "id": 11,
                    "methodDecoded": true,
                    "operation": "STATICCALL",
                    "output": "0xf4e8d53079ad318a4f56c8968527941b28959e7834b28e979f5dc03f361eef96",
                    "revert": false,
                    "revertMessage": "",
                    "selector": "0x002080cc",
                    "status": true,
                    "value": "0"
                },
                "nodeType": 0
            },
            "12": {
                "invocation": {
                    "address": "0x0000000000000000000000000000000000000002",
                    "callData": "0x3079ad318a4f56c8968527941b28959e7834b28e979f5dc03f361eef96362cad381a1e2432383300391908794fb71a2acd717d2f1565a40e7f8d36f9d5",
                    "decodedMethod": {
                        "callParams": [
                            {
                                "name": "data",
                                "type": "bytes",
                                "value": "0x01f4e8d53079ad318a4f56c8968527941b28959e7834b28e979f5dc03f361eef96362cad381a1e2432383300391908794fb71a2acd717d2f1565a40e7f8d36f9d5"
                            }
                        ],
                        "constructorArguments": "",
                        "name": "sha256hash",
                        "returnParams": [
                            {
                                "name": "hash",
                                "type": "bytes32",
                                "value": "0x0225abe5f4e134ba4903346fba916bd373eda928d977bfa69659b674d055a5b5"
                            }
                        ],
                        "signature": "sha256hash(bytes)"
                    },
                    "errorInfo": "",
                    "fromAddress": "0x838bf9e95cb12dd76a54c9f9d2e3082eaf928270",
                    "gasUsed": 96,
                    "id": 12,
                    "methodDecoded": true,
                    "operation": "STATICCALL",
                    "output": "0x0225abe5f4e134ba4903346fba916bd373eda928d977bfa69659b674d055a5b5",
                    "revert": false,
                    "revertMessage": "",
                    "selector": "0x01f4e8d5",
                    "status": true,
                    "value": "0"
                },
                "nodeType": 0
            },
            "13": {
                "invocation": {
                    "address": "0x0000000000000000000000000000000000000002",
                    "callData": "0xe5f4e134ba4903346fba916bd373eda928d977bfa69659b674d055a5b57b5baaca2a25e97f5afa40e98f87b0eca2eb0e9e7f24684d1b56db214aa51b33",
                    "decodedMethod": {
                        "callParams": [
                            {
                                "name": "data",
                                "type": "bytes",
                                "value": "0x010225abe5f4e134ba4903346fba916bd373eda928d977bfa69659b674d055a5b57b5baaca2a25e97f5afa40e98f87b0eca2eb0e9e7f24684d1b56db214aa51b33"
                            }
                        ],
                        "constructorArguments": "",
                        "name": "sha256hash",
                        "returnParams": [
                            {
                                "name": "hash",
                                "type": "bytes32",
                                "value": "0xff56a511529b7a9a3306dab3605329cef4fc25048c51a28daae0a0d7ae90da16"
                            }
                        ],
                        "signature": "sha256hash(bytes)"
                    },
                    "errorInfo": "",
                    "fromAddress": "0x838bf9e95cb12dd76a54c9f9d2e3082eaf928270",
                    "gasUsed": 96,
                    "id": 13,
                    "methodDecoded": true,
                    "operation": "STATICCALL",
                    "output": "0xff56a511529b7a9a3306dab3605329cef4fc25048c51a28daae0a0d7ae90da16",
                    "revert": false,
                    "revertMessage": "",
                    "selector": "0x010225ab",
                    "status": true,
                    "value": "0"
                },
                "nodeType": 0
            },
            "14": {
                "invocation": {
                    "address": "0x0000000000000000000000000000000000000002",
                    "callData": "0x11529b7a9a3306dab3605329cef4fc25048c51a28daae0a0d7ae90da16ee1671b66cad1415453c0544d7e4425c1632e1b7dfdae3bd642ed7954e9f9b0d",
                    "decodedMethod": {
                        "callParams": [
                            {
                                "name": "data",
                                "type": "bytes",
                                "value": "0x01ff56a511529b7a9a3306dab3605329cef4fc25048c51a28daae0a0d7ae90da16ee1671b66cad1415453c0544d7e4425c1632e1b7dfdae3bd642ed7954e9f9b0d"
                            }
                        ],
                        "constructorArguments": "",
                        "name": "sha256hash",
                        "returnParams": [
                            {
                                "name": "hash",
                                "type": "bytes32",
                                "value": "0x773046bcc14f6079db9033d0ab6176f171384070729fbfd2086a418e7e057717"
                            }
                        ],
                        "signature": "sha256hash(bytes)"
                    },
                    "errorInfo": "",
                    "fromAddress": "0x838bf9e95cb12dd76a54c9f9d2e3082eaf928270",
                    "gasUsed": 96,
                    "id": 14,
                    "methodDecoded": true,
                    "operation": "STATICCALL",
                    "output": "0x773046bcc14f6079db9033d0ab6176f171384070729fbfd2086a418e7e057717",
                    "revert": false,
                    "revertMessage": "",
                    "selector": "0x01ff56a5",
                    "status": true,
                    "value": "0"
                },
                "nodeType": 0
            },
            "15": {
                "invocation": {
                    "address": "0xcf2afe102057ba5c16f899271045a0a37fcb10f2",
                    "callData": "0x000000000000000000000000000000000000000000000000000000000000000380cc978479eb082e1e656993c63dee7a5d08a00dc2b2aab88bc0e465cfa0721a",
                    "decodedMethod": {
                        "callParams": [
                            {
                                "name": "fromChainId",
                                "type": "uint64",
                                "value": "3"
                            },
                            {
                                "name": "fromChainTx",
                                "type": "bytes32",
                                "value": "0x80cc978479eb082e1e656993c63dee7a5d08a00dc2b2aab88bc0e465cfa0721a"
                            }
                        ],
                        "constructorArguments": "",
                        "name": "checkIfFromChainTxExist",
                        "returnParams": [
                            {
                                "name": "",
                                "type": "bool",
                                "value": false
                            }
                        ],
                        "signature": "checkIfFromChainTxExist(uint64,bytes32)"
                    },
                    "errorInfo": "",
                    "fromAddress": "0x838bf9e95cb12dd76a54c9f9d2e3082eaf928270",
                    "gasUsed": 2569,
                    "id": 15,
                    "methodDecoded": true,
                    "operation": "STATICCALL",
                    "output": "0x0000000000000000000000000000000000000000000000000000000000000000",
                    "revert": false,
                    "revertMessage": "",
                    "selector": "0x0586763c",
                    "status": true,
                    "value": "0"
                },
                "nodeType": 0
            },
            "16": {
                "invocation": {
                    "address": "0xcf2afe102057ba5c16f899271045a0a37fcb10f2",
                    "callData": "0x000000000000000000000000000000000000000000000000000000000000000380cc978479eb082e1e656993c63dee7a5d08a00dc2b2aab88bc0e465cfa0721a",
                    "decodedMethod": {
                        "callParams": [
                            {
                                "name": "fromChainId",
                                "type": "uint64",
                                "value": "3"
                            },
                            {
                                "name": "fromChainTx",
                                "type": "bytes32",
                                "value": "0x80cc978479eb082e1e656993c63dee7a5d08a00dc2b2aab88bc0e465cfa0721a"
                            }
                        ],
                        "constructorArguments": "",
                        "name": "markFromChainTxExist",
                        "returnParams": [
                            {
                                "name": "",
                                "type": "bool",
                                "value": true
                            }
                        ],
                        "signature": "markFromChainTxExist(uint64,bytes32)"
                    },
                    "errorInfo": "",
                    "fromAddress": "0x838bf9e95cb12dd76a54c9f9d2e3082eaf928270",
                    "gasUsed": 22981,
                    "id": 16,
                    "methodDecoded": true,
                    "operation": "CALL",
                    "output": "0x0000000000000000000000000000000000000000000000000000000000000001",
                    "revert": false,
                    "revertMessage": "",
                    "selector": "0xe90bfdcf",
                    "status": true,
                    "value": "0"
                },
                "nodeType": 0
            },
            "17": {
                "invocation": {
                    "address": "0xcf2afe102057ba5c16f899271045a0a37fcb10f2",
                    "callData": "0x000000000000000000000000000000000000000000000000000000000000006000000000000000000000000000000000000000000000000000000000000000a00000000000000000000000000000000000000000000000000000000000000003000000000000000000000000000000000000000000000000000000000000001d010000000000000014a87fb85a93ca072cd4e5f0d4f178bc831df8a00b0000000000000000000000000000000000000000000000000000000000000000000014e1a18842891f8e82a5e6e5ad0a06d8448fe2f407000000000000000000000000",
                    "decodedMethod": {
                        "callParams": [
                            {
                                "name": "curEpochPkBytes",
                                "type": "bytes",
                                "value": "0x010000000000000014a87fb85a93ca072cd4e5f0d4f178bc831df8a00b"
                            }
                        ],
                        "constructorArguments": "",
                        "name": "putCurEpochConPubKeyBytes",
                        "returnParams": [
                            {
                                "name": "",
                                "type": "bool",
                                "value": true
                            }
                        ],
                        "signature": "putCurEpochConPubKeyBytes(bytes)"
                    },
                    "errorInfo": "",
                    "fromAddress": "0x838bf9e95cb12dd76a54c9f9d2e3082eaf928270",
                    "gasUsed": 13186,
                    "id": 17,
                    "methodDecoded": true,
                    "operation": "CALL",
                    "output": "0x0000000000000000000000000000000000000000000000000000000000000001",
                    "revert": false,
                    "revertMessage": "",
                    "selector": "0x41973cd9",
                    "status": true,
                    "value": "0"
                },
                "nodeType": 0
            },
            "18": {
                "event": {
                    "contract": "0x838bf9e95cb12dd76a54c9f9d2e3082eaf928270",
                    "decodedLog": {
                        "name": "VerifyHeaderAndExecuteTxEvent",
                        "params": [
                            {
                                "name": "fromChainID",
                                "type": "uint64",
                                "value": "3"
                            },
                            {
                                "name": "toContract",
                                "type": "bytes",
                                "value": "0xcf2afe102057ba5c16f899271045a0a37fcb10f2"
                            },
                            {
                                "name": "crossChainTxHash",
                                "type": "bytes",
                                "value": "0x80cc978479eb082e1e656993c63dee7a5d08a00dc2b2aab88bc0e465cfa0721a"
                            },
                            {
                                "name": "fromChainTxHash",
                                "type": "bytes",
                                "value": "0x0c28ffffaa7c5602285476ad860c54039782f8f20bd3677ba3d5250661ba71f7"
                            }
                        ],
                        "signature": "VerifyHeaderAndExecuteTxEvent(uint64,bytes,bytes,bytes)"
                    },
                    "id": 18,
                    "logData": "0x0000000000000000000000000000000000000000000000000000000000000003000000000000000000000000000000000000000000000000000000000000008000000000000000000000000000000000000000000000000000000000000000c000000000000000000000000000000000000000000000000000000000000001000000000000000000000000000000000000000000000000000000000000000014cf2afe102057ba5c16f899271045a0a37fcb10f2000000000000000000000000000000000000000000000000000000000000000000000000000000000000002080cc978479eb082e1e656993c63dee7a5d08a00dc2b2aab88bc0e465cfa0721a00000000000000000000000000000000000000000000000000000000000000200c28ffffaa7c5602285476ad860c54039782f8f20bd3677ba3d5250661ba71f7",
                    "logDecoded": true,
                    "operation": "EVENT",
                    "revert": false,
                    "status": true,
                    "topics": [
                        "0x8a4a2663ce60ce4955c595da2894de0415240f1ace024cfbff85f513b656bdae"
                    ]
                },
                "nodeType": 1
            },
            "2": {
                "invocation": {
                    "address": "0xcf2afe102057ba5c16f899271045a0a37fcb10f2",
                    "callData": "0x",
                    "decodedMethod": {
                        "callParams": [],
                        "constructorArguments": "",
                        "name": "getCurEpochStartHeight",
                        "returnParams": [
                            {
                                "name": "",
                                "type": "uint32",
                                "value": "1,740,000"
                            }
                        ],
                        "signature": "getCurEpochStartHeight()"
                    },
                    "errorInfo": "",
                    "fromAddress": "0x838bf9e95cb12dd76a54c9f9d2e3082eaf928270",
                    "gasUsed": 2446,
                    "id": 2,
                    "methodDecoded": true,
                    "operation": "STATICCALL",
                    "output": "0x00000000000000000000000000000000000000000000000000000000001a8ce0",
                    "revert": false,
                    "revertMessage": "",
                    "selector": "0x5ac40790",
                    "status": true,
                    "value": "0"
                },
                "nodeType": 0
            },
            "3": {
                "invocation": {
                    "address": "0x0000000000000000000000000000000000000002",
                    "callData": "0x00000000000000008446719cbe62cf6fb9e3fb95a6c12882c5a3d885ad1dd8f2785e48d617d12708d38136a7df909f371a9f835d3ad58637e0dbc2f3e0f4bb60228730a46f77839a773046bcc14f6079db9033d0ab6176f171384070729fbfd2086a418e7e057717f3e67f4b67c999d13c258e5657f4dc0b5553e1836d0d81d1bff05b621053834bc7471261843aa80030451454a4f4b560fd13017b226c6561646572223a332c227672665f76616c7565223a22424851706a716f325767494d616a7a5a5a6c4158507951506c7a3357456e4a534e7470682b35416346376f37654b784e48486742704156724e54666f674c73485264394c7a544a5666666171787036734a637570324d303d222c227672665f70726f6f66223a226655346f56364462526d543264744d5254397a326b366853314f6f42584963397a72544956784974576348652f4b56594f2b58384f5167746143494d676139682f59615548564d514e554941326141484f664d545a773d3d222c226c6173745f636f6e6669675f626c6f636b5f6e756d223a31303938303030302c226e65775f636861696e5f636f6e666967223a6e756c6c7d0000000000000000000000000000000000000000",
                    "decodedMethod": {
                        "callParams": [
                            {
                                "name": "data",
                                "type": "bytes",
                                "value": "0x0000000000000000000000008446719cbe62cf6fb9e3fb95a6c12882c5a3d885ad1dd8f2785e48d617d12708d38136a7df909f371a9f835d3ad58637e0dbc2f3e0f4bb60228730a46f77839a773046bcc14f6079db9033d0ab6176f171384070729fbfd2086a418e7e057717f3e67f4b67c999d13c258e5657f4dc0b5553e1836d0d81d1bff05b621053834bc7471261843aa80030451454a4f4b560fd13017b226c6561646572223a332c227672665f76616c7565223a22424851706a716f325767494d616a7a5a5a6c4158507951506c7a3357456e4a534e7470682b35416346376f37654b784e48486742704156724e54666f674c73485264394c7a544a5666666171787036734a637570324d303d222c227672665f70726f6f66223a226655346f56364462526d543264744d5254397a326b366853314f6f42584963397a72544956784974576348652f4b56594f2b58384f5167746143494d676139682f59615548564d514e554941326141484f664d545a773d3d222c226c6173745f636f6e6669675f626c6f636b5f6e756d223a31303938303030302c226e65775f636861696e5f636f6e666967223a6e756c6c7d0000000000000000000000000000000000000000"
                            }
                        ],
                        "constructorArguments": "",
                        "name": "sha256hash",
                        "returnParams": [
                            {
                                "name": "hash",
                                "type": "bytes32",
                                "value": "0xe4c4e0dd29f499e23a71e82fe06002f1a4df21acfee8aa3d4d7140ff9c8ffe23"
                            }
                        ],
                        "signature": "sha256hash(bytes)"
                    },
                    "errorInfo": "",
                    "fromAddress": "0x838bf9e95cb12dd76a54c9f9d2e3082eaf928270",
                    "gasUsed": 240,
                    "id": 3,
                    "methodDecoded": true,
                    "operation": "STATICCALL",
                    "output": "0xe4c4e0dd29f499e23a71e82fe06002f1a4df21acfee8aa3d4d7140ff9c8ffe23",
                    "revert": false,
                    "revertMessage": "",
                    "selector": "0x00000000",
                    "status": true,
                    "value": "0"
                },
                "nodeType": 0
            },
            "4": {
                "invocation": {
                    "address": "0x0000000000000000000000000000000000000002",
                    "callData": "0x29f499e23a71e82fe06002f1a4df21acfee8aa3d4d7140ff9c8ffe23",
                    "decodedMethod": {
                        "callParams": [
                            {
                                "name": "data",
                                "type": "bytes",
                                "value": "0xe4c4e0dd29f499e23a71e82fe06002f1a4df21acfee8aa3d4d7140ff9c8ffe23"
                            }
                        ],
                        "constructorArguments": "",
                        "name": "sha256hash",
                        "returnParams": [
                            {
                                "name": "hash",
                                "type": "bytes32",
                                "value": "0x034e0a12fbe9b1a68bc4fc137c1858aaef73b3f3eb6113808c6b80125d019b09"
                            }
                        ],
                        "signature": "sha256hash(bytes)"
                    },
                    "errorInfo": "",
                    "fromAddress": "0x838bf9e95cb12dd76a54c9f9d2e3082eaf928270",
                    "gasUsed": 72,
                    "id": 4,
                    "methodDecoded": true,
                    "operation": "STATICCALL",
                    "output": "0x034e0a12fbe9b1a68bc4fc137c1858aaef73b3f3eb6113808c6b80125d019b09",
                    "revert": false,
                    "revertMessage": "",
                    "selector": "0xe4c4e0dd",
                    "status": true,
                    "value": "0"
                },
                "nodeType": 0
            },
            "5": {
                "invocation": {
                    "address": "0x0000000000000000000000000000000000000002",
                    "callData": "0xfbe9b1a68bc4fc137c1858aaef73b3f3eb6113808c6b80125d019b09",
                    "decodedMethod": {
                        "callParams": [
                            {
                                "name": "data",
                                "type": "bytes",
                                "value": "0x034e0a12fbe9b1a68bc4fc137c1858aaef73b3f3eb6113808c6b80125d019b09"
                            }
                        ],
                        "constructorArguments": "",
                        "name": "sha256hash",
                        "returnParams": [
                            {
                                "name": "hash",
                                "type": "bytes32",
                                "value": "0xba7b16a5f542d980f57579bb908b1afd5e36a6340aa12fbdd05652355ceda2c8"
                            }
                        ],
                        "signature": "sha256hash(bytes)"
                    },
                    "errorInfo": "",
                    "fromAddress": "0x838bf9e95cb12dd76a54c9f9d2e3082eaf928270",
                    "gasUsed": 72,
                    "id": 5,
                    "methodDecoded": true,
                    "operation": "STATICCALL",
                    "output": "0xba7b16a5f542d980f57579bb908b1afd5e36a6340aa12fbdd05652355ceda2c8",
                    "revert": false,
                    "revertMessage": "",
                    "selector": "0x034e0a12",
                    "status": true,
                    "value": "0"
                },
                "nodeType": 0
            },
            "6": {
                "invocation": {
                    "address": "0x0000000000000000000000000000000000000001",
                    "callData": "0xf542d980f57579bb908b1afd5e36a6340aa12fbdd05652355ceda2c8000000000000000000000000000000000000000000000000000000000000001b7e3359dec445d7d49b80d9999ef2e34f01b6526f2a0b848fcb223201b21ced0e51bece6815510bf7283e98175c0bdfde8b5b1bdc38beef5e7b8ab1b8e8d1b2c9",
                    "decodedMethod": {
                        "callParams": [
                            {
                                "name": "hash",
                                "type": "bytes32",
                                "value": "0xba7b16a5f542d980f57579bb908b1afd5e36a6340aa12fbdd05652355ceda2c8"
                            },
                            {
                                "name": "v",
                                "type": "uint256",
                                "value": "27"
                            },
                            {
                                "name": "r",
                                "type": "bytes32",
                                "value": "0x7e3359dec445d7d49b80d9999ef2e34f01b6526f2a0b848fcb223201b21ced0e"
                            },
                            {
                                "name": "s",
                                "type": "bytes32",
                                "value": "0x51bece6815510bf7283e98175c0bdfde8b5b1bdc38beef5e7b8ab1b8e8d1b2c9"
                            }
                        ],
                        "constructorArguments": "",
                        "name": "ecrecover",
                        "returnParams": [
                            {
                                "name": "",
                                "type": "address",
                                "value": "0x51b7529137d34002c4ebd81a2244f0ee7e95b2c0"
                            }
                        ],
                        "signature": "ecrecover(bytes32,uint256,bytes32,bytes32)"
                    },
                    "errorInfo": "",
                    "fromAddress": "0x838bf9e95cb12dd76a54c9f9d2e3082eaf928270",
                    "gasUsed": 3000,
                    "id": 6,
                    "methodDecoded": true,
                    "operation": "STATICCALL",
                    "output": "0x00000000000000000000000051b7529137d34002c4ebd81a2244f0ee7e95b2c0",
                    "revert": false,
                    "revertMessage": "",
                    "selector": "0xba7b16a5",
                    "status": true,
                    "value": "0"
                },
                "nodeType": 0
            },
            "7": {
                "invocation": {
                    "address": "0x0000000000000000000000000000000000000002",
                    "callData": "0xfbe9b1a68bc4fc137c1858aaef73b3f3eb6113808c6b80125d019b09",
                    "decodedMethod": {
                        "callParams": [
                            {
                                "name": "data",
                                "type": "bytes",
                                "value": "0x034e0a12fbe9b1a68bc4fc137c1858aaef73b3f3eb6113808c6b80125d019b09"
                            }
                        ],
                        "constructorArguments": "",
                        "name": "sha256hash",
                        "returnParams": [
                            {
                                "name": "hash",
                                "type": "bytes32",
                                "value": "0xba7b16a5f542d980f57579bb908b1afd5e36a6340aa12fbdd05652355ceda2c8"
                            }
                        ],
                        "signature": "sha256hash(bytes)"
                    },
                    "errorInfo": "",
                    "fromAddress": "0x838bf9e95cb12dd76a54c9f9d2e3082eaf928270",
                    "gasUsed": 72,
                    "id": 7,
                    "methodDecoded": true,
                    "operation": "STATICCALL",
                    "output": "0xba7b16a5f542d980f57579bb908b1afd5e36a6340aa12fbdd05652355ceda2c8",
                    "revert": false,
                    "revertMessage": "",
                    "selector": "0x034e0a12",
                    "status": true,
                    "value": "0"
                },
                "nodeType": 0
            },
            "8": {
                "invocation": {
                    "address": "0x0000000000000000000000000000000000000001",
                    "callData": "0xf542d980f57579bb908b1afd5e36a6340aa12fbdd05652355ceda2c8000000000000000000000000000000000000000000000000000000000000001b428e40826b3606e0b684d66e9406a5c0d69c16a5cbda8fefe176716f3286e872361ed29bd945b56d5af3a8c581d2b627f679061282f11a6e9b021fe3426faece",
                    "decodedMethod": {
                        "callParams": [
                            {
                                "name": "hash",
                                "type": "bytes32",
                                "value": "0xba7b16a5f542d980f57579bb908b1afd5e36a6340aa12fbdd05652355ceda2c8"
                            },
                            {
                                "name": "v",
                                "type": "uint256",
                                "value": "27"
                            },
                            {
                                "name": "r",
                                "type": "bytes32",
                                "value": "0x428e40826b3606e0b684d66e9406a5c0d69c16a5cbda8fefe176716f3286e872"
                            },
                            {
                                "name": "s",
                                "type": "bytes32",
                                "value": "0x361ed29bd945b56d5af3a8c581d2b627f679061282f11a6e9b021fe3426faece"
                            }
                        ],
                        "constructorArguments": "",
                        "name": "ecrecover",
                        "returnParams": [
                            {
                                "name": "",
                                "type": "address",
                                "value": "0x3dfccb7b8a6972cde3b695d3c0c032514b0f3825"
                            }
                        ],
                        "signature": "ecrecover(bytes32,uint256,bytes32,bytes32)"
                    },
                    "errorInfo": "",
                    "fromAddress": "0x838bf9e95cb12dd76a54c9f9d2e3082eaf928270",
                    "gasUsed": 3000,
                    "id": 8,
                    "methodDecoded": true,
                    "operation": "STATICCALL",
                    "output": "0x0000000000000000000000003dfccb7b8a6972cde3b695d3c0c032514b0f3825",
                    "revert": false,
                    "revertMessage": "",
                    "selector": "0xba7b16a5",
                    "status": true,
                    "value": "0"
                },
                "nodeType": 0
            },
            "9": {
                "invocation": {
                    "address": "0x0000000000000000000000000000000000000002",
                    "callData": "0xfbe9b1a68bc4fc137c1858aaef73b3f3eb6113808c6b80125d019b09",
                    "decodedMethod": {
                        "callParams": [
                            {
                                "name": "data",
                                "type": "bytes",
                                "value": "0x034e0a12fbe9b1a68bc4fc137c1858aaef73b3f3eb6113808c6b80125d019b09"
                            }
                        ],
                        "constructorArguments": "",
                        "name": "sha256hash",
                        "returnParams": [
                            {
                                "name": "hash",
                                "type": "bytes32",
                                "value": "0xba7b16a5f542d980f57579bb908b1afd5e36a6340aa12fbdd05652355ceda2c8"
                            }
                        ],
                        "signature": "sha256hash(bytes)"
                    },
                    "errorInfo": "",
                    "fromAddress": "0x838bf9e95cb12dd76a54c9f9d2e3082eaf928270",
                    "gasUsed": 72,
                    "id": 9,
                    "methodDecoded": true,
                    "operation": "STATICCALL",
                    "output": "0xba7b16a5f542d980f57579bb908b1afd5e36a6340aa12fbdd05652355ceda2c8",
                    "revert": false,
                    "revertMessage": "",
                    "selector": "0x034e0a12",
                    "status": true,
                    "value": "0"
                },
                "nodeType": 0
            }
        },
        "gasFlame": [
            {
                "children": [
                    {
                        "children": [
                            {
                                "children": [],
                                "depth": 0,
                                "name": "Initial Gas",
                                "value": 37044
                            },
                            {
                                "children": [
                                    {
                                        "children": [],
                                        "depth": 1,
                                        "name": "getCurEpochConPubKeyBytes",
                                        "value": 9617
                                    },
                                    {
                                        "children": [],
                                        "depth": 1,
                                        "name": "getCurEpochStartHeight",
                                        "value": 2446
                                    },
                                    {
                                        "children": [],
                                        "depth": 1,
                                        "name": "sha256hash",
                                        "value": 240
                                    },
                                    {
                                        "children": [],
                                        "depth": 1,
                                        "name": "sha256hash",
                                        "value": 72
                                    },
                                    {
                                        "children": [],
                                        "depth": 1,
                                        "name": "sha256hash",
                                        "value": 72
                                    },
                                    {
                                        "children": [],
                                        "depth": 1,
                                        "name": "ecrecover",
                                        "value": 3000
                                    },
                                    {
                                        "children": [],
                                        "depth": 1,
                                        "name": "sha256hash",
                                        "value": 72
                                    },
                                    {
                                        "children": [],
                                        "depth": 1,
                                        "name": "ecrecover",
                                        "value": 3000
                                    },
                                    {
                                        "children": [],
                                        "depth": 1,
                                        "name": "sha256hash",
                                        "value": 72
                                    },
                                    {
                                        "children": [],
                                        "depth": 1,
                                        "name": "ecrecover",
                                        "value": 3000
                                    },
                                    {
                                        "children": [],
                                        "depth": 1,
                                        "name": "sha256hash",
                                        "value": 132
                                    },
                                    {
                                        "children": [],
                                        "depth": 1,
                                        "name": "sha256hash",
                                        "value": 96
                                    },
                                    {
                                        "children": [],
                                        "depth": 1,
                                        "name": "sha256hash",
                                        "value": 96
                                    },
                                    {
                                        "children": [],
                                        "depth": 1,
                                        "name": "sha256hash",
                                        "value": 96
                                    },
                                    {
                                        "children": [],
                                        "depth": 1,
                                        "name": "checkIfFromChainTxExist",
                                        "value": 2569
                                    },
                                    {
                                        "children": [],
                                        "depth": 1,
                                        "name": "markFromChainTxExist",
                                        "value": 22981
                                    },
                                    {
                                        "children": [],
                                        "depth": 1,
                                        "name": "putCurEpochConPubKeyBytes",
                                        "value": 13186
                                    }
                                ],
                                "depth": 0,
                                "name": "Executed Gas",
                                "value": 116475
                            }
                        ],
                        "depth": -1,
                        "name": "Actual Gas Used",
                        "value": 139119
                    },
                    {
                        "children": [],
                        "depth": -1,
                        "name": "Refunded Gas",
                        "value": 14400
                    }
                ],
                "depth": -2,
                "name": "Total Gas",
                "value": 153519
            }
        ],
        "isConfirmed": true,
        "mainTrace": [
            {
                "children": [
                    {
                        "children": [
                            {
                                "children": [],
                                "depth": 1,
                                "id": 1,
                                "order": 1
                            },
                            {
                                "children": [],
                                "depth": 1,
                                "id": 2,
                                "order": 2
                            },
                            {
                                "children": [],
                                "depth": 1,
                                "id": 3,
                                "order": 3
                            },
                            {
                                "children": [],
                                "depth": 1,
                                "id": 4,
                                "order": 4
                            },
                            {
                                "children": [],
                                "depth": 1,
                                "id": 5,
                                "order": 5
                            },
                            {
                                "children": [],
                                "depth": 1,
                                "id": 6,
                                "order": 6
                            },
                            {
                                "children": [],
                                "depth": 1,
                                "id": 7,
                                "order": 7
                            },
                            {
                                "children": [],
                                "depth": 1,
                                "id": 8,
                                "order": 8
                            },
                            {
                                "children": [],
                                "depth": 1,
                                "id": 9,
                                "order": 9
                            },
                            {
                                "children": [],
                                "depth": 1,
                                "id": 10,
                                "order": 10
                            },
                            {
                                "children": [],
                                "depth": 1,
                                "id": 11,
                                "order": 11
                            },
                            {
                                "children": [],
                                "depth": 1,
                                "id": 12,
                                "order": 12
                            },
                            {
                                "children": [],
                                "depth": 1,
                                "id": 13,
                                "order": 13
                            },
                            {
                                "children": [],
                                "depth": 1,
                                "id": 14,
                                "order": 14
                            },
                            {
                                "children": [],
                                "depth": 1,
                                "id": 15,
                                "order": 15
                            },
                            {
                                "children": [],
                                "depth": 1,
                                "id": 16,
                                "order": 16
                            },
                            {
                                "children": [],
                                "depth": 1,
                                "id": 17,
                                "order": 17
                            },
                            {
                                "children": [],
                                "depth": 1,
                                "id": 18,
                                "order": 18
                            }
                        ],
                        "depth": 0,
                        "id": 0,
                        "order": 0
                    }
                ],
                "depth": -1,
                "id": -1,
                "order": -1
            }
        ],
        "mainTraceNodeCount": 19,
        "parentIdMap": {
            "0": -1,
            "1": 0,
            "10": 0,
            "11": 0,
            "12": 0,
            "13": 0,
            "14": 0,
            "15": 0,
            "16": 0,
            "17": 0,
            "18": 0,
            "2": 0,
            "3": 0,
            "4": 0,
            "5": 0,
            "6": 0,
            "7": 0,
            "8": 0,
            "9": 0
        },
        "tidyTrace": [
            {
                "children": [
                    {
                        "children": [
                            {
                                "children": [],
                                "depth": 1,
                                "id": 16,
                                "order": 16
                            },
                            {
                                "children": [],
                                "depth": 1,
                                "id": 17,
                                "order": 17
                            },
                            {
                                "children": [],
                                "depth": 1,
                                "id": 18,
                                "order": 18
                            }
                        ],
                        "depth": 0,
                        "id": 0,
                        "order": 0
                    }
                ],
                "depth": -1,
                "id": -1,
                "order": -1
            }
        ],
        "tidyTraceNodeCount": 4
    },
    "state_change": {}
}