{
    "balance_change": {
        "balanceChanges": [
            {
                "account": "0x189cf534de3097c08b6beaf6eb2b9179dab122d1",
                "assets": [
                    {
                        "address": "0xff970a61a04b1ca14834a43f5de4533ebddb5cc8",
                        "amount": "5,047,470.472572",
                        "iconUrl": "https://assets.blocksec.com/icon/207f084a4d717cb88c954ceeb76e277b71c6437bbe295bb4f9cf594e3d92bd99.png",
                        "isERC1155": false,
                        "isERC721": false,
                        "sign": true,
                        "value": "5043937.2436688998287"
                    }
                ]
            },
            {
                "account": "0x6cb66a0762e7ce3c0abc9d0241bf4cffc67fcda1",
                "assets": [
                    {
                        "address": "0xde1e704dae0b4051e80dabb26ab6ad6c12262da0",
                        "amount": "220.936180345862946846",
                        "iconUrl": "",
                        "isERC1155": false,
                        "isERC721": false,
                        "sign": true,
                        "value": ""
                    }
                ]
            },
            {
                "account": "0x7dc406b9b904a52d10e19e848521bba2de74888b",
                "assets": [
                    {
                        "address": "0xde1e704dae0b4051e80dabb26ab6ad6c12262da0",
                        "amount": "1,841.134836215524557054",
                        "iconUrl": "",
                        "isERC1155": false,
                        "isERC721": false,
                        "sign": false,
                        "value": ""
                    },
                    {
                        "address": "0xff970a61a04b1ca14834a43f5de4533ebddb5cc8",
                        "amount": "5,047,470.472572",
                        "iconUrl": "https://assets.blocksec.com/icon/207f084a4d717cb88c954ceeb76e277b71c6437bbe295bb4f9cf594e3d92bd99.png",
                        "isERC1155": false,
                        "isERC721": false,
                        "sign": false,
                        "value": "5043937.2436688998287"
                    }
                ]
            },
            {
                "account": "0xd2193bffe8f9c5a788dbae189c3c3eff53a32200",
                "assets": [
                    {
                        "address": "0xde1e704dae0b4051e80dabb26ab6ad6c12262da0",
                        "amount": "1,620.198655869661610208",
                        "iconUrl": "",
                        "isERC1155": false,
                        "isERC721": false,
                        "sign": true,
                        "value": ""
                    }
                ]
            }
        ]
    },
    "profile": {
        "basic_info": {
            "baseFee": "0.1",
            "blockNumber": 87626026,
            "callData": "0x6b76484e000000000000000000000000ff970a61a04b1ca14834a43f5de4533ebddb5cc80000000000000000000000007dc406b9b904a52d10e19e848521bba2de74888b",
            "debugEnable": true,
            "errorInfo": "",
            "eventCount": 13,
            "feeRecipient": "0xa4b000000000000000000073657175656e636572",
            "formatValue": "0",
            "gasLimit": 5169579,
            "gasPrice": "0.1",
            "gasUsed": 4075314,
            "intTxnCount": 50,
            "internalRevert": false,
            "internalRevertMessage": "",
            "isContractCreation": false,
            "isFlashloan": false,
            "maxFee": "0.135",
            "nonce": 1,
            "overwritedBlockNumber": -1,
            "priorityFee": "0",
            "receiver": "0xe2ee6252509382a2b6504d5a5f7a1c5018a38168",
            "revertMessage": "",
            "sender": "0x189cf534de3097c08b6beaf6eb2b9179dab122d1",
            "simulationEnable": true,
            "sourceTxnHash": "0xb1141785b7b94eb37c39c37f0272744c6e79ca1517529fec3f4af59d4c3c37ef",
            "status": true,
            "timestamp": "2023-05-05T17:52:45Z",
            "transactionFee": "0.0004075314",
            "txnHash": "0xb1141785b7b94eb37c39c37f0272744c6e79ca1517529fec3f4af59d4c3c37ef",
            "txnIndex": 2,
            "type": 2,
            "value": "0"
        },
        "fund_flow": [
            {
                "amount": "0",
                "from": "0x7dc406b9b904a52d10e19e848521bba2de74888b",
                "id": 1,
                "isERC1155": false,
                "isERC721": false,
                "isReverted": false,
                "order": 1,
                "to": "0x0000000000000000000000000000000000000000",
                "token": "0xde1e704dae0b4051e80dabb26ab6ad6c12262da0"
            },
            {
                "amount": "4,602,837.09053881139263512",
                "from": "0x7dc406b9b904a52d10e19e848521bba2de74888b",
                "id": 2,
                "isERC1155": false,
                "isERC721": false,
                "isReverted": false,
                "order": 2,
                "to": "0xe2ee6252509382a2b6504d5a5f7a1c5018a38168",
                "token": "0xde1e704dae0b4051e80dabb26ab6ad6c12262da0"
            },
            {
                "amount": "4,602,837.09053881139263512",
                "from": "0xe2ee6252509382a2b6504d5a5f7a1c5018a38168",
                "id": 3,
                "isERC1155": false,
                "isERC721": false,
                "isReverted": false,
                "order": 3,
                "to": "0x7dc406b9b904a52d10e19e848521bba2de74888b",
                "token": "0xde1e704dae0b4051e80dabb26ab6ad6c12262da0"
            },
            {
                "amount": "5,047,470.472572",
                "from": "0x7dc406b9b904a52d10e19e848521bba2de74888b",
                "id": 4,
                "isERC1155": false,
                "isERC721": false,
                "isReverted": false,
                "order": 4,
                "to": "0x189cf534de3097c08b6beaf6eb2b9179dab122d1",
                "token": "0xff970a61a04b1ca14834a43f5de4533ebddb5cc8"
            },
            {
                "amount": "220.936180345862946846",
                "from": "0x7dc406b9b904a52d10e19e848521bba2de74888b",
                "id": 5,
                "isERC1155": false,
                "isERC721": false,
                "isReverted": false,
                "order": 5,
                "to": "0x6cb66a0762e7ce3c0abc9d0241bf4cffc67fcda1",
                "token": "0xde1e704dae0b4051e80dabb26ab6ad6c12262da0"
            },
            {
                "amount": "1,620.198655869661610208",
                "from": "0x7dc406b9b904a52d10e19e848521bba2de74888b",
                "id": 6,
                "isERC1155": false,
                "isERC721": false,
                "isReverted": false,
                "order": 6,
                "to": "0xd2193bffe8f9c5a788dbae189c3c3eff53a32200",
                "token": "0xde1e704dae0b4051e80dabb26ab6ad6c12262da0"
            }
        ],
        "token_infos": [
            {
                "address": "0x82af49447d8a07e3bd95bd0d56f35241523fbab1",
                "decimals": 18
            },
            {
                "address": "0xde1e704dae0b4051e80dabb26ab6ad6c12262da0",
                "decimals": 18
            },
            {
                "address": "0xff970a61a04b1ca14834a43f5de4533ebddb5cc8",
                "decimals": 6
            },
            {
                "address": "0xeeeeeeeeeeeeeeeeeeeeeeeeeeeeeeeeeeeeeeee",
                "decimals": 18
            }
        ]
    },
    "address_label": {
        "labels": [
            {
                "address": "0xeeeeeeeeeeeeeeeeeeeeeeeeeeeeeeeeeeeeeeee",
                "label": "Ether"
            },
            {
                "address": "0x1efb3f88bc88f03fd1804a5c53b7141bbef5ded8",
                "label": "USD Coin (arb1) (USDC)"
            },
            {
                "address": "0xe2ee6252509382a2b6504d5a5f7a1c5018a38168",
                "label": "DEI Token Exploit Contract"
            },
            {
                "address": "0x0000000000000000000000000000000000000004",
                "label": "Precompiled"
            },
            {
                "address": "0xff970a61a04b1ca14834a43f5de4533ebddb5cc8",
                "label": "Arbitrum: USDC Token"
            },
            {
                "address": "0x7dc406b9b904a52d10e19e848521bba2de74888b",
                "label": "StableV1 AMM - DEI/USDC (sAMM-DEI/...)"
            },
            {
                "address": "0xbf5041fc07e1c866d15c749156657b8eed0fb649",
                "label": "0xbf50_RewardDistributor"
            },
            {
                "address": "0xd2193bffe8f9c5a788dbae189c3c3eff53a32200",
                "label": "PairFees"
            },
            {
                "address": "0x0000000000000000000000000000000000000003",
                "label": "Precompiled"
            },
            {
                "address": "0x6cb66a0762e7ce3c0abc9d0241bf4cffc67fcda1",
                "label": "TransparentUpgradeableProxy_6cb6_cda1"
            },
            {
                "address": "0x7c7b7de557282411358575f3322e321c94245a9f",
                "label": "PairFactoryUpgradeable"
            },
            {
                "address": "0xbc1b62db243b51dabcd9540473324f36e094ec55",
                "label": "DEIStablecoin"
            },
            {
                "address": "0xce9240869391928253ed9cc9bcb8cb98cb5b0722",
                "label": "TransparentUpgradeableProxy_ce92_0722"
            },
            {
                "address": "0xde1e704dae0b4051e80dabb26ab6ad6c12262da0",
                "label": "Deus Finance: DEI Token"
            },
            {
                "address": "0x32e7af5a8151934f3787d0cd59eb6edd0a736b1d",
                "label": "0x32e7_RewardDistributor"
            },
            {
                "address": "0x0000000000000000000000000000000000000001",
                "label": "Precompiled"
            },
            {
                "address": "0x0000000000000000000000000000000000000002",
                "label": "Precompiled"
            }
        ]
    },
    "trace": {
        "accountLabels": null,
        "dataMap": {
            "-1": {
                "invocation": {
                    "address": "0x189cf534de3097c08b6beaf6eb2b9179dab122d1",
                    "callData": "",
                    "decodedMethod": null,
                    "errorInfo": "",
                    "fromAddress": "",
                    "gasUsed": 0,
                    "id": -1,
                    "methodDecoded": false,
                    "operation": "",
                    "output": "",
                    "revert": false,
                    "revertMessage": "",
                    "selector": "",
                    "status": false,
                    "value": ""
                },
                "nodeType": 0
            },
            "0": {
                "invocation": {
                    "address": "0xe2ee6252509382a2b6504d5a5f7a1c5018a38168",
                    "callData": "0x000000000000000000000000ff970a61a04b1ca14834a43f5de4533ebddb5cc80000000000000000000000007dc406b9b904a52d10e19e848521bba2de74888b",
                    "decodedMethod": {
                        "callParams": [
                            {
                                "name": "fromToken",
                                "type": "address",
                                "value": "0xff970a61a04b1ca14834a43f5de4533ebddb5cc8"
                            },
                            {
                                "name": "toToken",
                                "type": "address",
                                "value": "0x7dc406b9b904a52d10e19e848521bba2de74888b"
                            }
                        ],
                        "constructorArguments": "",
                        "name": "swap",
                        "returnParams": [],
                        "signature": "swap(address,address)"
                    },
                    "errorInfo": "",
                    "fromAddress": "0x189cf534de3097c08b6beaf6eb2b9179dab122d1",
                    "gasUsed": 4075314,
                    "id": 0,
                    "methodDecoded": true,
                    "operation": "CALL",
                    "output": "",
                    "revert": false,
                    "revertMessage": "",
                    "selector": "0x6b76484e",
                    "status": true,
                    "value": "0"
                },
                "nodeType": 0
            },
            "1": {
                "invocation": {
                    "address": "0xde1e704dae0b4051e80dabb26ab6ad6c12262da0",
                    "callData": "0x0000000000000000000000007dc406b9b904a52d10e19e848521bba2de74888bffffffffffffffffffffffffffffffffffffffffffffffffffffffffffffffff",
                    "decodedMethod": {
                        "callParams": [
                            {
                                "name": "spender",
                                "type": "address",
                                "value": "0x7dc406b9b904a52d10e19e848521bba2de74888b"
                            },
                            {
                                "decimalAvailable": true,
                                "name": "amount",
                                "type": "uint256",
                                "value": "115,792,089,237,316,195,423,570,985,008,687,907,853,269,984,665,640,564,039,457,584,007,913,129,639,935"
                            }
                        ],
                        "constructorArguments": "",
                        "name": "approve",
                        "returnParams": [
                            {
                                "name": "",
                                "type": "bool",
                                "value": true
                            }
                        ],
                        "signature": "approve(address,uint256)"
                    },
                    "errorInfo": "",
                    "fromAddress": "0xe2ee6252509382a2b6504d5a5f7a1c5018a38168",
                    "gasUsed": 34040,
                    "id": 1,
                    "methodDecoded": true,
                    "operation": "CALL",
                    "output": "0x0000000000000000000000000000000000000000000000000000000000000001",
                    "revert": false,
                    "revertMessage": "",
                    "selector": "0x095ea7b3",
                    "status": true,
                    "value": "0"
                },
                "nodeType": 0
            },
            "10": {
                "invocation": {
                    "address": "0xde1e704dae0b4051e80dabb26ab6ad6c12262da0",
                    "callData": "0x0000000000000000000000007dc406b9b904a52d10e19e848521bba2de74888b000000000000000000000000e2ee6252509382a2b6504d5a5f7a1c5018a3816800000000000000000000000000000000000000000003ceb04c74d8f80da5b0ef",
                    "decodedMethod": {
                        "callParams": [
                            {
                                "name": "sender",
                                "type": "address",
                                "value": "0x7dc406b9b904a52d10e19e848521bba2de74888b"
                            },
                            {
                                "name": "recipient",
                                "type": "address",
                                "value": "0xe2ee6252509382a2b6504d5a5f7a1c5018a38168"
                            },
                            {
                                "decimalAvailable": true,
                                "name": "amount",
                                "type": "uint256",
                                "value": "4,602,837,090,538,811,392,635,119"
                            }
                        ],
                        "constructorArguments": "",
                        "name": "transferFrom",
                        "returnParams": [
                            {
                                "name": "",
                                "type": "bool",
                                "value": true
                            }
                        ],
                        "signature": "transferFrom(address,address,uint256)"
                    },
                    "errorInfo": "",
                    "fromAddress": "0xe2ee6252509382a2b6504d5a5f7a1c5018a38168",
                    "gasUsed": 31455,
                    "id": 10,
                    "methodDecoded": true,
                    "operation": "CALL",
                    "output": "0x0000000000000000000000000000000000000000000000000000000000000001",
                    "revert": false,
                    "revertMessage": "",
                    "selector": "0x23b872dd",
                    "status": true,
                    "value": "0"
                },
                "nodeType": 0
            },
            "11": {
                "invocation": {
                    "address": "0xbc1b62db243b51dabcd9540473324f36e094ec55",
                    "callData": "0x0000000000000000000000007dc406b9b904a52d10e19e848521bba2de74888b000000000000000000000000e2ee6252509382a2b6504d5a5f7a1c5018a3816800000000000000000000000000000000000000000003ceb04c74d8f80da5b0ef",
                    "decodedMethod": {
                        "callParams": [
                            {
                                "name": "sender",
                                "type": "address",
                                "value": "0x7dc406b9b904a52d10e19e848521bba2de74888b"
                            },
                            {
                                "name": "recipient",
                                "type": "address",
                                "value": "0xe2ee6252509382a2b6504d5a5f7a1c5018a38168"
                            },
                            {
                                "decimalAvailable": true,
                                "name": "amount",
                                "type": "uint256",
                                "value": "4,602,837,090,538,811,392,635,119"
                            }
                        ],
                        "constructorArguments": "",
                        "name": "transferFrom",
                        "returnParams": [
                            {
                                "name": "",
                                "type": "bool",
                                "value": true
                            }
                        ],
                        "signature": "transferFrom(address,address,uint256)"
                    },
                    "errorInfo": "",
                    "fromAddress": "0xde1e704dae0b4051e80dabb26ab6ad6c12262da0",
                    "gasUsed": 30615,
                    "id": 11,
                    "methodDecoded": true,
                    "operation": "DELEGATECALL",
                    "output": "0x0000000000000000000000000000000000000000000000000000000000000001",
                    "revert": false,
                    "revertMessage": "",
                    "selector": "0x23b872dd",
                    "status": true,
                    "value": "0"
                },
                "nodeType": 0
            },
            "12": {
                "event": {
                    "contract": "0xde1e704dae0b4051e80dabb26ab6ad6c12262da0",
                    "decodedLog": {
                        "name": "Transfer",
                        "params": [
                            {
                                "name": "from",
                                "type": "address",
                                "value": "0x7dc406b9b904a52d10e19e848521bba2de74888b"
                            },
                            {
                                "name": "to",
                                "type": "address",
                                "value": "0xe2ee6252509382a2b6504d5a5f7a1c5018a38168"
                            },
                            {
                                "decimalAvailable": true,
                                "name": "value",
                                "type": "uint256",
                                "value": "4,602,837,090,538,811,392,635,119"
                            }
                        ],
                        "signature": "Transfer(address,address,uint256)"
                    },
                    "id": 12,
                    "logData": "0x00000000000000000000000000000000000000000003ceb04c74d8f80da5b0ef",
                    "logDecoded": true,
                    "operation": "EVENT",
                    "revert": false,
                    "status": true,
                    "topics": [
                        "0xddf252ad1be2c89b69c2b068fc378daa952ba7f163c4a11628f55a4df523b3ef",
                        "0x0000000000000000000000007dc406b9b904a52d10e19e848521bba2de74888b",
                        "0x000000000000000000000000e2ee6252509382a2b6504d5a5f7a1c5018a38168"
                    ]
                },
                "nodeType": 1
            },
            "13": {
                "event": {
                    "contract": "0xde1e704dae0b4051e80dabb26ab6ad6c12262da0",
                    "decodedLog": {
                        "name": "Approval",
                        "params": [
                            {
                                "name": "owner",
                                "type": "address",
                                "value": "0x7dc406b9b904a52d10e19e848521bba2de74888b"
                            },
                            {
                                "name": "spender",
                                "type": "address",
                                "value": "0xe2ee6252509382a2b6504d5a5f7a1c5018a38168"
                            },
                            {
                                "decimalAvailable": true,
                                "name": "value",
                                "type": "uint256",
                                "value": "115,792,089,237,316,195,423,570,985,008,687,907,853,269,984,665,640,559,436,620,493,469,101,737,004,816"
                            }
                        ],
                        "signature": "Approval(address,address,uint256)"
                    },
                    "id": 13,
                    "logData": "0xfffffffffffffffffffffffffffffffffffffffffffc314fb38b2707f25a4f10",
                    "logDecoded": true,
                    "operation": "EVENT",
                    "revert": false,
                    "status": true,
                    "topics": [
                        "0x8c5be1e5ebec7d5bd14f71427d1e84f3dd0314c0f7b2291e5b200ac8c7c3b925",
                        "0x0000000000000000000000007dc406b9b904a52d10e19e848521bba2de74888b",
                        "0x000000000000000000000000e2ee6252509382a2b6504d5a5f7a1c5018a38168"
                    ]
                },
                "nodeType": 1
            },
            "14": {
                "invocation": {
                    "address": "0x7dc406b9b904a52d10e19e848521bba2de74888b",
                    "callData": "0x",
                    "decodedMethod": {
                        "callParams": [],
                        "constructorArguments": "",
                        "name": "sync",
                        "returnParams": [],
                        "signature": "sync()"
                    },
                    "errorInfo": "",
                    "fromAddress": "0xe2ee6252509382a2b6504d5a5f7a1c5018a38168",
                    "gasUsed": 123662,
                    "id": 14,
                    "methodDecoded": true,
                    "operation": "CALL",
                    "output": "",
                    "revert": false,
                    "revertMessage": "",
                    "selector": "0xfff6cae9",
                    "status": true,
                    "value": "0"
                },
                "nodeType": 0
            },
            "15": {
                "invocation": {
                    "address": "0xde1e704dae0b4051e80dabb26ab6ad6c12262da0",
                    "callData": "0x0000000000000000000000007dc406b9b904a52d10e19e848521bba2de74888b",
                    "decodedMethod": {
                        "callParams": [
                            {
                                "name": "account",
                                "type": "address",
                                "value": "0x7dc406b9b904a52d10e19e848521bba2de74888b"
                            }
                        ],
                        "constructorArguments": "",
                        "name": "balanceOf",
                        "returnParams": [
                            {
                                "decimalAvailable": true,
                                "name": "",
                                "type": "uint256",
                                "value": "1"
                            }
                        ],
                        "signature": "balanceOf(address)"
                    },
                    "errorInfo": "",
                    "fromAddress": "0x7dc406b9b904a52d10e19e848521bba2de74888b",
                    "gasUsed": 1412,
                    "id": 15,
                    "methodDecoded": true,
                    "operation": "STATICCALL",
                    "output": "0x0000000000000000000000000000000000000000000000000000000000000001",
                    "revert": false,
                    "revertMessage": "",
                    "selector": "0x70a08231",
                    "status": true,
                    "value": "0"
                },
                "nodeType": 0
            },
            "16": {
                "invocation": {
                    "address": "0xbc1b62db243b51dabcd9540473324f36e094ec55",
                    "callData": "0x0000000000000000000000007dc406b9b904a52d10e19e848521bba2de74888b",
                    "decodedMethod": {
                        "callParams": [
                            {
                                "name": "account",
                                "type": "address",
                                "value": "0x7dc406b9b904a52d10e19e848521bba2de74888b"
                            }
                        ],
                        "constructorArguments": "",
                        "name": "balanceOf",
                        "returnParams": [
                            {
                                "decimalAvailable": true,
                                "name": "",
                                "type": "uint256",
                                "value": "1"
                            }
                        ],
                        "signature": "balanceOf(address)"
                    },
                    "errorInfo": "",
                    "fromAddress": "0xde1e704dae0b4051e80dabb26ab6ad6c12262da0",
                    "gasUsed": 581,
                    "id": 16,
                    "methodDecoded": true,
                    "operation": "DELEGATECALL",
                    "output": "0x0000000000000000000000000000000000000000000000000000000000000001",
                    "revert": false,
                    "revertMessage": "",
                    "selector": "0x70a08231",
                    "status": true,
                    "value": "0"
                },
                "nodeType": 0
            },
            "17": {
                "invocation": {
                    "address": "0xff970a61a04b1ca14834a43f5de4533ebddb5cc8",
                    "callData": "0x0000000000000000000000007dc406b9b904a52d10e19e848521bba2de74888b",
                    "decodedMethod": {
                        "callParams": [
                            {
                                "name": "account",
                                "type": "address",
                                "value": "0x7dc406b9b904a52d10e19e848521bba2de74888b"
                            }
                        ],
                        "constructorArguments": "",
                        "name": "balanceOf",
                        "returnParams": [
                            {
                                "decimalAvailable": true,
                                "name": "",
                                "type": "uint256",
                                "value": "5,047,470,472,573"
                            }
                        ],
                        "signature": "balanceOf(address)"
                    },
                    "errorInfo": "",
                    "fromAddress": "0x7dc406b9b904a52d10e19e848521bba2de74888b",
                    "gasUsed": 9796,
                    "id": 17,
                    "methodDecoded": true,
                    "operation": "STATICCALL",
                    "output": "0x0000000000000000000000000000000000000000000000000000049734af3d7d",
                    "revert": false,
                    "revertMessage": "",
                    "selector": "0x70a08231",
                    "status": true,
                    "value": "0"
                },
                "nodeType": 0
            },
            "18": {
                "invocation": {
                    "address": "0x1efb3f88bc88f03fd1804a5c53b7141bbef5ded8",
                    "callData": "0x0000000000000000000000007dc406b9b904a52d10e19e848521bba2de74888b",
                    "decodedMethod": {
                        "callParams": [
                            {
                                "name": "account",
                                "type": "address",
                                "value": "0x7dc406b9b904a52d10e19e848521bba2de74888b"
                            }
                        ],
                        "constructorArguments": "",
                        "name": "balanceOf",
                        "returnParams": [
                            {
                                "decimalAvailable": true,
                                "name": "",
                                "type": "uint256",
                                "value": "5,047,470,472,573"
                            }
                        ],
                        "signature": "balanceOf(address)"
                    },
                    "errorInfo": "",
                    "fromAddress": "0xff970a61a04b1ca14834a43f5de4533ebddb5cc8",
                    "gasUsed": 2553,
                    "id": 18,
                    "methodDecoded": true,
                    "operation": "DELEGATECALL",
                    "output": "0x0000000000000000000000000000000000000000000000000000049734af3d7d",
                    "revert": false,
                    "revertMessage": "",
                    "selector": "0x70a08231",
                    "status": true,
                    "value": "0"
                },
                "nodeType": 0
            },
            "19": {
                "event": {
                    "contract": "0x7dc406b9b904a52d10e19e848521bba2de74888b",
                    "decodedLog": {
                        "name": "Sync",
                        "params": [
                            {
                                "name": "reserve0",
                                "type": "uint256",
                                "value": "1"
                            },
                            {
                                "name": "reserve1",
                                "type": "uint256",
                                "value": "5,047,470,472,573"
                            }
                        ],
                        "signature": "Sync(uint256,uint256)"
                    },
                    "id": 19,
                    "logData": "0x00000000000000000000000000000000000000000000000000000000000000010000000000000000000000000000000000000000000000000000049734af3d7d",
                    "logDecoded": true,
                    "operation": "EVENT",
                    "revert": false,
                    "status": true,
                    "topics": [
                        "0xcf2aa50876cdfbb541206f89af0ee78d44a2abf8d328e37fa4917f982149848a"
                    ]
                },
                "nodeType": 1
            },
            "2": {
                "invocation": {
                    "address": "0xbc1b62db243b51dabcd9540473324f36e094ec55",
                    "callData": "0x0000000000000000000000007dc406b9b904a52d10e19e848521bba2de74888bffffffffffffffffffffffffffffffffffffffffffffffffffffffffffffffff",
                    "decodedMethod": {
                        "callParams": [
                            {
                                "name": "spender",
                                "type": "address",
                                "value": "0x7dc406b9b904a52d10e19e848521bba2de74888b"
                            },
                            {
                                "decimalAvailable": true,
                                "name": "amount",
                                "type": "uint256",
                                "value": "115,792,089,237,316,195,423,570,985,008,687,907,853,269,984,665,640,564,039,457,584,007,913,129,639,935"
                            }
                        ],
                        "constructorArguments": "",
                        "name": "approve",
                        "returnParams": [
                            {
                                "name": "",
                                "type": "bool",
                                "value": true
                            }
                        ],
                        "signature": "approve(address,uint256)"
                    },
                    "errorInfo": "",
                    "fromAddress": "0xde1e704dae0b4051e80dabb26ab6ad6c12262da0",
                    "gasUsed": 26706,
                    "id": 2,
                    "methodDecoded": true,
                    "operation": "DELEGATECALL",
                    "output": "0x0000000000000000000000000000000000000000000000000000000000000001",
                    "revert": false,
                    "revertMessage": "",
                    "selector": "0x095ea7b3",
                    "status": true,
                    "value": "0"
                },
                "nodeType": 0
            },
            "20": {
                "invocation": {
                    "address": "0xde1e704dae0b4051e80dabb26ab6ad6c12262da0",
                    "callData": "0x000000000000000000000000e2ee6252509382a2b6504d5a5f7a1c5018a38168",
                    "decodedMethod": {
                        "callParams": [
                            {
                                "name": "account",
                                "type": "address",
                                "value": "0xe2ee6252509382a2b6504d5a5f7a1c5018a38168"
                            }
                        ],
                        "constructorArguments": "",
                        "name": "balanceOf",
                        "returnParams": [
                            {
                                "decimalAvailable": true,
                                "name": "",
                                "type": "uint256",
                                "value": "4,602,837,090,538,811,392,635,119"
                            }
                        ],
                        "signature": "balanceOf(address)"
                    },
                    "errorInfo": "",
                    "fromAddress": "0xe2ee6252509382a2b6504d5a5f7a1c5018a38168",
                    "gasUsed": 1412,
                    "id": 20,
                    "methodDecoded": true,
                    "operation": "STATICCALL",
                    "output": "0x00000000000000000000000000000000000000000003ceb04c74d8f80da5b0ef",
                    "revert": false,
                    "revertMessage": "",
                    "selector": "0x70a08231",
                    "status": true,
                    "value": "0"
                },
                "nodeType": 0
            },
            "21": {
                "invocation": {
                    "address": "0xbc1b62db243b51dabcd9540473324f36e094ec55",
                    "callData": "0x000000000000000000000000e2ee6252509382a2b6504d5a5f7a1c5018a38168",
                    "decodedMethod": {
                        "callParams": [
                            {
                                "name": "account",
                                "type": "address",
                                "value": "0xe2ee6252509382a2b6504d5a5f7a1c5018a38168"
                            }
                        ],
                        "constructorArguments": "",
                        "name": "balanceOf",
                        "returnParams": [
                            {
                                "decimalAvailable": true,
                                "name": "",
                                "type": "uint256",
                                "value": "4,602,837,090,538,811,392,635,119"
                            }
                        ],
                        "signature": "balanceOf(address)"
                    },
                    "errorInfo": "",
                    "fromAddress": "0xde1e704dae0b4051e80dabb26ab6ad6c12262da0",
                    "gasUsed": 581,
                    "id": 21,
                    "methodDecoded": true,
                    "operation": "DELEGATECALL",
                    "output": "0x00000000000000000000000000000000000000000003ceb04c74d8f80da5b0ef",
                    "revert": false,
                    "revertMessage": "",
                    "selector": "0x70a08231",
                    "status": true,
                    "value": "0"
                },
                "nodeType": 0
            },
            "22": {
                "invocation": {
                    "address": "0x7dc406b9b904a52d10e19e848521bba2de74888b",
                    "callData": "0x00000000000000000000000000000000000000000003ceb04c74d8f80da5b0ef000000000000000000000000de1e704dae0b4051e80dabb26ab6ad6c12262da0",
                    "decodedMethod": {
                        "callParams": [
                            {
                                "name": "amountIn",
                                "type": "uint256",
                                "value": "4,602,837,090,538,811,392,635,119"
                            },
                            {
                                "name": "tokenIn",
                                "type": "address",
                                "value": "0xde1e704dae0b4051e80dabb26ab6ad6c12262da0"
                            }
                        ],
                        "constructorArguments": "",
                        "name": "getAmountOut",
                        "returnParams": [
                            {
                                "name": "",
                                "type": "uint256",
                                "value": "5,047,470,472,572"
                            }
                        ],
                        "signature": "getAmountOut(uint256,address)"
                    },
                    "errorInfo": "",
                    "fromAddress": "0xe2ee6252509382a2b6504d5a5f7a1c5018a38168",
                    "gasUsed": 33983,
                    "id": 22,
                    "methodDecoded": true,
                    "operation": "STATICCALL",
                    "output": "0x0000000000000000000000000000000000000000000000000000049734af3d7c",
                    "revert": false,
                    "revertMessage": "",
                    "selector": "0xf140a35a",
                    "status": true,
                    "value": "0"
                },
                "nodeType": 0
            },
            "23": {
                "invocation": {
                    "address": "0xce9240869391928253ed9cc9bcb8cb98cb5b0722",
                    "callData": "0x0000000000000000000000000000000000000000000000000000000000000001",
                    "decodedMethod": {
                        "callParams": [
                            {
                                "name": "_stable",
                                "type": "bool",
                                "value": true
                            }
                        ],
                        "constructorArguments": "",
                        "name": "getFee",
                        "returnParams": [
                            {
                                "name": "",
                                "type": "uint256",
                                "value": "4"
                            }
                        ],
                        "signature": "getFee(bool)"
                    },
                    "errorInfo": "",
                    "fromAddress": "0x7dc406b9b904a52d10e19e848521bba2de74888b",
                    "gasUsed": 9954,
                    "id": 23,
                    "methodDecoded": true,
                    "operation": "STATICCALL",
                    "output": "0x0000000000000000000000000000000000000000000000000000000000000004",
                    "revert": false,
                    "revertMessage": "",
                    "selector": "0x512b45ea",
                    "status": true,
                    "value": "0"
                },
                "nodeType": 0
            },
            "24": {
                "invocation": {
                    "address": "0x7c7b7de557282411358575f3322e321c94245a9f",
                    "callData": "0x0000000000000000000000000000000000000000000000000000000000000001",
                    "decodedMethod": {
                        "callParams": [
                            {
                                "name": "_stable",
                                "type": "bool",
                                "value": true
                            }
                        ],
                        "constructorArguments": "",
                        "name": "getFee",
                        "returnParams": [
                            {
                                "name": "",
                                "type": "uint256",
                                "value": "4"
                            }
                        ],
                        "signature": "getFee(bool)"
                    },
                    "errorInfo": "",
                    "fromAddress": "0xce9240869391928253ed9cc9bcb8cb98cb5b0722",
                    "gasUsed": 2635,
                    "id": 24,
                    "methodDecoded": true,
                    "operation": "DELEGATECALL",
                    "output": "0x0000000000000000000000000000000000000000000000000000000000000004",
                    "revert": false,
                    "revertMessage": "",
                    "selector": "0x512b45ea",
                    "status": true,
                    "value": "0"
                },
                "nodeType": 0
            },
            "25": {
                "invocation": {
                    "address": "0xde1e704dae0b4051e80dabb26ab6ad6c12262da0",
                    "callData": "0x0000000000000000000000007dc406b9b904a52d10e19e848521bba2de74888b00000000000000000000000000000000000000000003ceb04c74d8f80da5b0ef",
                    "decodedMethod": {
                        "callParams": [
                            {
                                "name": "recipient",
                                "type": "address",
                                "value": "0x7dc406b9b904a52d10e19e848521bba2de74888b"
                            },
                            {
                                "decimalAvailable": true,
                                "name": "amount",
                                "type": "uint256",
                                "value": "4,602,837,090,538,811,392,635,119"
                            }
                        ],
                        "constructorArguments": "",
                        "name": "transfer",
                        "returnParams": [
                            {
                                "name": "",
                                "type": "bool",
                                "value": true
                            }
                        ],
                        "signature": "transfer(address,uint256)"
                    },
                    "errorInfo": "",
                    "fromAddress": "0xe2ee6252509382a2b6504d5a5f7a1c5018a38168",
                    "gasUsed": 4152,
                    "id": 25,
                    "methodDecoded": true,
                    "operation": "CALL",
                    "output": "0x0000000000000000000000000000000000000000000000000000000000000001",
                    "revert": false,
                    "revertMessage": "",
                    "selector": "0xa9059cbb",
                    "status": true,
                    "value": "0"
                },
                "nodeType": 0
            },
            "26": {
                "invocation": {
                    "address": "0xbc1b62db243b51dabcd9540473324f36e094ec55",
                    "callData": "0x0000000000000000000000007dc406b9b904a52d10e19e848521bba2de74888b00000000000000000000000000000000000000000003ceb04c74d8f80da5b0ef",
                    "decodedMethod": {
                        "callParams": [
                            {
                                "name": "recipient",
                                "type": "address",
                                "value": "0x7dc406b9b904a52d10e19e848521bba2de74888b"
                            },
                            {
                                "decimalAvailable": true,
                                "name": "amount",
                                "type": "uint256",
                                "value": "4,602,837,090,538,811,392,635,119"
                            }
                        ],
                        "constructorArguments": "",
                        "name": "transfer",
                        "returnParams": [
                            {
                                "name": "",
                                "type": "bool",
                                "value": true
                            }
                        ],
                        "signature": "transfer(address,uint256)"
                    },
                    "errorInfo": "",
                    "fromAddress": "0xde1e704dae0b4051e80dabb26ab6ad6c12262da0",
                    "gasUsed": 3318,
                    "id": 26,
                    "methodDecoded": true,
                    "operation": "DELEGATECALL",
                    "output": "0x0000000000000000000000000000000000000000000000000000000000000001",
                    "revert": false,
                    "revertMessage": "",
                    "selector": "0xa9059cbb",
                    "status": true,
                    "value": "0"
                },
                "nodeType": 0
            },
            "27": {
                "event": {
                    "contract": "0xde1e704dae0b4051e80dabb26ab6ad6c12262da0",
                    "decodedLog": {
                        "name": "Transfer",
                        "params": [
                            {
                                "name": "from",
                                "type": "address",
                                "value": "0xe2ee6252509382a2b6504d5a5f7a1c5018a38168"
                            },
                            {
                                "name": "to",
                                "type": "address",
                                "value": "0x7dc406b9b904a52d10e19e848521bba2de74888b"
                            },
                            {
                                "decimalAvailable": true,
                                "name": "value",
                                "type": "uint256",
                                "value": "4,602,837,090,538,811,392,635,119"
                            }
                        ],
                        "signature": "Transfer(address,address,uint256)"
                    },
                    "id": 27,
                    "logData": "0x00000000000000000000000000000000000000000003ceb04c74d8f80da5b0ef",
                    "logDecoded": true,
                    "operation": "EVENT",
                    "revert": false,
                    "status": true,
                    "topics": [
                        "0xddf252ad1be2c89b69c2b068fc378daa952ba7f163c4a11628f55a4df523b3ef",
                        "0x000000000000000000000000e2ee6252509382a2b6504d5a5f7a1c5018a38168",
                        "0x0000000000000000000000007dc406b9b904a52d10e19e848521bba2de74888b"
                    ]
                },
                "nodeType": 1
            },
            "28": {
                "invocation": {
                    "address": "0x7dc406b9b904a52d10e19e848521bba2de74888b",
                    "callData": "0x",
                    "decodedMethod": {
                        "callParams": [],
                        "constructorArguments": "",
                        "name": "token0",
                        "returnParams": [
                            {
                                "name": "",
                                "type": "address",
                                "value": "0xde1e704dae0b4051e80dabb26ab6ad6c12262da0"
                            }
                        ],
                        "signature": "token0()"
                    },
                    "errorInfo": "",
                    "fromAddress": "0xe2ee6252509382a2b6504d5a5f7a1c5018a38168",
                    "gasUsed": 328,
                    "id": 28,
                    "methodDecoded": true,
                    "operation": "CALL",
                    "output": "0x000000000000000000000000de1e704dae0b4051e80dabb26ab6ad6c12262da0",
                    "revert": false,
                    "revertMessage": "",
                    "selector": "0x0dfe1681",
                    "status": true,
                    "value": "0"
                },
                "nodeType": 0
            },
            "29": {
                "invocation": {
                    "address": "0x7dc406b9b904a52d10e19e848521bba2de74888b",
                    "callData": "0x",
                    "decodedMethod": {
                        "callParams": [],
                        "constructorArguments": "",
                        "name": "token1",
                        "returnParams": [
                            {
                                "name": "",
                                "type": "address",
                                "value": "0xff970a61a04b1ca14834a43f5de4533ebddb5cc8"
                            }
                        ],
                        "signature": "token1()"
                    },
                    "errorInfo": "",
                    "fromAddress": "0xe2ee6252509382a2b6504d5a5f7a1c5018a38168",
                    "gasUsed": 1054,
                    "id": 29,
                    "methodDecoded": true,
                    "operation": "CALL",
                    "output": "0x000000000000000000000000ff970a61a04b1ca14834a43f5de4533ebddb5cc8",
                    "revert": false,
                    "revertMessage": "",
                    "selector": "0xd21220a7",
                    "status": true,
                    "value": "0"
                },
                "nodeType": 0
            },
            "3": {
                "event": {
                    "contract": "0xde1e704dae0b4051e80dabb26ab6ad6c12262da0",
                    "decodedLog": {
                        "name": "Approval",
                        "params": [
                            {
                                "name": "owner",
                                "type": "address",
                                "value": "0xe2ee6252509382a2b6504d5a5f7a1c5018a38168"
                            },
                            {
                                "name": "spender",
                                "type": "address",
                                "value": "0x7dc406b9b904a52d10e19e848521bba2de74888b"
                            },
                            {
                                "decimalAvailable": true,
                                "name": "value",
                                "type": "uint256",
                                "value": "115,792,089,237,316,195,423,570,985,008,687,907,853,269,984,665,640,564,039,457,584,007,913,129,639,935"
                            }
                        ],
                        "signature": "Approval(address,address,uint256)"
                    },
                    "id": 3,
                    "logData": "0xffffffffffffffffffffffffffffffffffffffffffffffffffffffffffffffff",
                    "logDecoded": true,
                    "operation": "EVENT",
                    "revert": false,
                    "status": true,
                    "topics": [
                        "0x8c5be1e5ebec7d5bd14f71427d1e84f3dd0314c0f7b2291e5b200ac8c7c3b925",
                        "0x000000000000000000000000e2ee6252509382a2b6504d5a5f7a1c5018a38168",
                        "0x0000000000000000000000007dc406b9b904a52d10e19e848521bba2de74888b"
                    ]
                },
                "nodeType": 1
            },
            "30": {
                "invocation": {
                    "address": "0x7dc406b9b904a52d10e19e848521bba2de74888b",
                    "callData": "0x00000000000000000000000000000000000000000000000000000000000000000000000000000000000000000000000000000000000000000000049734af3d7c000000000000000000000000189cf534de3097c08b6beaf6eb2b9179dab122d100000000000000000000000000000000000000000000000000000000000000800000000000000000000000000000000000000000000000000000000000000000",
                    "decodedMethod": {
                        "callParams": [
                            {
                                "name": "amount0Out",
                                "type": "uint256",
                                "value": "0"
                            },
                            {
                                "name": "amount1Out",
                                "type": "uint256",
                                "value": "5,047,470,472,572"
                            },
                            {
                                "name": "to",
                                "type": "address",
                                "value": "0x189cf534de3097c08b6beaf6eb2b9179dab122d1"
                            },
                            {
                                "name": "data",
                                "type": "bytes",
                                "value": "0x"
                            }
                        ],
                        "constructorArguments": "",
                        "name": "swap",
                        "returnParams": [],
                        "signature": "swap(uint256,uint256,address,bytes)"
                    },
                    "errorInfo": "",
                    "fromAddress": "0xe2ee6252509382a2b6504d5a5f7a1c5018a38168",
                    "gasUsed": 117704,
                    "id": 30,
                    "methodDecoded": true,
                    "operation": "CALL",
                    "output": "",
                    "revert": false,
                    "revertMessage": "",
                    "selector": "0x022c0d9f",
                    "status": true,
                    "value": "0"
                },
                "nodeType": 0
            },
            "31": {
                "invocation": {
                    "address": "0xce9240869391928253ed9cc9bcb8cb98cb5b0722",
                    "callData": "0x",
                    "decodedMethod": {
                        "callParams": [],
                        "constructorArguments": "",
                        "name": "isPaused",
                        "returnParams": [
                            {
                                "name": "",
                                "type": "bool",
                                "value": false
                            }
                        ],
                        "signature": "isPaused()"
                    },
                    "errorInfo": "",
                    "fromAddress": "0x7dc406b9b904a52d10e19e848521bba2de74888b",
                    "gasUsed": 3566,
                    "id": 31,
                    "methodDecoded": true,
                    "operation": "STATICCALL",
                    "output": "0x0000000000000000000000000000000000000000000000000000000000000000",
                    "revert": false,
                    "revertMessage": "",
                    "selector": "0xb187bd26",
                    "status": true,
                    "value": "0"
                },
                "nodeType": 0
            },
            "32": {
                "invocation": {
                    "address": "0x7c7b7de557282411358575f3322e321c94245a9f",
                    "callData": "0x",
                    "decodedMethod": {
                        "callParams": [],
                        "constructorArguments": "",
                        "name": "isPaused",
                        "returnParams": [
                            {
                                "name": "",
                                "type": "bool",
                                "value": false
                            }
                        ],
                        "signature": "isPaused()"
                    },
                    "errorInfo": "",
                    "fromAddress": "0xce9240869391928253ed9cc9bcb8cb98cb5b0722",
                    "gasUsed": 2750,
                    "id": 32,
                    "methodDecoded": true,
                    "operation": "DELEGATECALL",
                    "output": "0x0000000000000000000000000000000000000000000000000000000000000000",
                    "revert": false,
                    "revertMessage": "",
                    "selector": "0xb187bd26",
                    "status": true,
                    "value": "0"
                },
                "nodeType": 0
            },
            "33": {
                "invocation": {
                    "address": "0xff970a61a04b1ca14834a43f5de4533ebddb5cc8",
                    "callData": "0x000000000000000000000000189cf534de3097c08b6beaf6eb2b9179dab122d10000000000000000000000000000000000000000000000000000049734af3d7c",
                    "decodedMethod": {
                        "callParams": [
                            {
                                "name": "recipient",
                                "type": "address",
                                "value": "0x189cf534de3097c08b6beaf6eb2b9179dab122d1"
                            },
                            {
                                "decimalAvailable": true,
                                "name": "amount",
                                "type": "uint256",
                                "value": "5,047,470,472,572"
                            }
                        ],
                        "constructorArguments": "",
                        "name": "transfer",
                        "returnParams": [
                            {
                                "name": "",
                                "type": "bool",
                                "value": true
                            }
                        ],
                        "signature": "transfer(address,uint256)"
                    },
                    "errorInfo": "",
                    "fromAddress": "0x7dc406b9b904a52d10e19e848521bba2de74888b",
                    "gasUsed": 35397,
                    "id": 33,
                    "methodDecoded": true,
                    "operation": "CALL",
                    "output": "0x0000000000000000000000000000000000000000000000000000000000000001",
                    "revert": false,
                    "revertMessage": "",
                    "selector": "0xa9059cbb",
                    "status": true,
                    "value": "0"
                },
                "nodeType": 0
            },
            "34": {
                "invocation": {
                    "address": "0x1efb3f88bc88f03fd1804a5c53b7141bbef5ded8",
                    "callData": "0x000000000000000000000000189cf534de3097c08b6beaf6eb2b9179dab122d10000000000000000000000000000000000000000000000000000049734af3d7c",
                    "decodedMethod": {
                        "callParams": [
                            {
                                "name": "recipient",
                                "type": "address",
                                "value": "0x189cf534de3097c08b6beaf6eb2b9179dab122d1"
                            },
                            {
                                "decimalAvailable": true,
                                "name": "amount",
                                "type": "uint256",
                                "value": "5,047,470,472,572"
                            }
                        ],
                        "constructorArguments": "",
                        "name": "transfer",
                        "returnParams": [
                            {
                                "name": "",
                                "type": "bool",
                                "value": true
                            }
                        ],
                        "signature": "transfer(address,uint256)"
                    },
                    "errorInfo": "",
                    "fromAddress": "0xff970a61a04b1ca14834a43f5de4533ebddb5cc8",
                    "gasUsed": 34651,
                    "id": 34,
                    "methodDecoded": true,
                    "operation": "DELEGATECALL",
                    "output": "0x0000000000000000000000000000000000000000000000000000000000000001",
                    "revert": false,
                    "revertMessage": "",
                    "selector": "0xa9059cbb",
                    "status": true,
                    "value": "0"
                },
                "nodeType": 0
            },
            "35": {
                "event": {
                    "contract": "0xff970a61a04b1ca14834a43f5de4533ebddb5cc8",
                    "decodedLog": {
                        "name": "Transfer",
                        "params": [
                            {
                                "name": "from",
                                "type": "address",
                                "value": "0x7dc406b9b904a52d10e19e848521bba2de74888b"
                            },
                            {
                                "name": "to",
                                "type": "address",
                                "value": "0x189cf534de3097c08b6beaf6eb2b9179dab122d1"
                            },
                            {
                                "decimalAvailable": true,
                                "name": "value",
                                "type": "uint256",
                                "value": "5,047,470,472,572"
                            }
                        ],
                        "signature": "Transfer(address,address,uint256)"
                    },
                    "id": 35,
                    "logData": "0x0000000000000000000000000000000000000000000000000000049734af3d7c",
                    "logDecoded": true,
                    "operation": "EVENT",
                    "revert": false,
                    "status": true,
                    "topics": [
                        "0xddf252ad1be2c89b69c2b068fc378daa952ba7f163c4a11628f55a4df523b3ef",
                        "0x0000000000000000000000007dc406b9b904a52d10e19e848521bba2de74888b",
                        "0x000000000000000000000000189cf534de3097c08b6beaf6eb2b9179dab122d1"
                    ]
                },
                "nodeType": 1
            },
            "36": {
                "invocation": {
                    "address": "0xde1e704dae0b4051e80dabb26ab6ad6c12262da0",
                    "callData": "0x0000000000000000000000007dc406b9b904a52d10e19e848521bba2de74888b",
                    "decodedMethod": {
                        "callParams": [
                            {
                                "name": "account",
                                "type": "address",
                                "value": "0x7dc406b9b904a52d10e19e848521bba2de74888b"
                            }
                        ],
                        "constructorArguments": "",
                        "name": "balanceOf",
                        "returnParams": [
                            {
                                "decimalAvailable": true,
                                "name": "",
                                "type": "uint256",
                                "value": "4,602,837,090,538,811,392,635,120"
                            }
                        ],
                        "signature": "balanceOf(address)"
                    },
                    "errorInfo": "",
                    "fromAddress": "0x7dc406b9b904a52d10e19e848521bba2de74888b",
                    "gasUsed": 1412,
                    "id": 36,
                    "methodDecoded": true,
                    "operation": "STATICCALL",
                    "output": "0x00000000000000000000000000000000000000000003ceb04c74d8f80da5b0f0",
                    "revert": false,
                    "revertMessage": "",
                    "selector": "0x70a08231",
                    "status": true,
                    "value": "0"
                },
                "nodeType": 0
            },
            "37": {
                "invocation": {
                    "address": "0xbc1b62db243b51dabcd9540473324f36e094ec55",
                    "callData": "0x0000000000000000000000007dc406b9b904a52d10e19e848521bba2de74888b",
                    "decodedMethod": {
                        "callParams": [
                            {
                                "name": "account",
                                "type": "address",
                                "value": "0x7dc406b9b904a52d10e19e848521bba2de74888b"
                            }
                        ],
                        "constructorArguments": "",
                        "name": "balanceOf",
                        "returnParams": [
                            {
                                "decimalAvailable": true,
                                "name": "",
                                "type": "uint256",
                                "value": "4,602,837,090,538,811,392,635,120"
                            }
                        ],
                        "signature": "balanceOf(address)"
                    },
                    "errorInfo": "",
                    "fromAddress": "0xde1e704dae0b4051e80dabb26ab6ad6c12262da0",
                    "gasUsed": 581,
                    "id": 37,
                    "methodDecoded": true,
                    "operation": "DELEGATECALL",
                    "output": "0x00000000000000000000000000000000000000000003ceb04c74d8f80da5b0f0",
                    "revert": false,
                    "revertMessage": "",
                    "selector": "0x70a08231",
                    "status": true,
                    "value": "0"
                },
                "nodeType": 0
            },
            "38": {
                "invocation": {
                    "address": "0xff970a61a04b1ca14834a43f5de4533ebddb5cc8",
                    "callData": "0x0000000000000000000000007dc406b9b904a52d10e19e848521bba2de74888b",
                    "decodedMethod": {
                        "callParams": [
                            {
                                "name": "account",
                                "type": "address",
                                "value": "0x7dc406b9b904a52d10e19e848521bba2de74888b"
                            }
                        ],
                        "constructorArguments": "",
                        "name": "balanceOf",
                        "returnParams": [
                            {
                                "decimalAvailable": true,
                                "name": "",
                                "type": "uint256",
                                "value": "1"
                            }
                        ],
                        "signature": "balanceOf(address)"
                    },
                    "errorInfo": "",
                    "fromAddress": "0x7dc406b9b904a52d10e19e848521bba2de74888b",
                    "gasUsed": 1296,
                    "id": 38,
                    "methodDecoded": true,
                    "operation": "STATICCALL",
                    "output": "0x0000000000000000000000000000000000000000000000000000000000000001",
                    "revert": false,
                    "revertMessage": "",
                    "selector": "0x70a08231",
                    "status": true,
                    "value": "0"
                },
                "nodeType": 0
            },
            "39": {
                "invocation": {
                    "address": "0x1efb3f88bc88f03fd1804a5c53b7141bbef5ded8",
                    "callData": "0x0000000000000000000000007dc406b9b904a52d10e19e848521bba2de74888b",
                    "decodedMethod": {
                        "callParams": [
                            {
                                "name": "account",
                                "type": "address",
                                "value": "0x7dc406b9b904a52d10e19e848521bba2de74888b"
                            }
                        ],
                        "constructorArguments": "",
                        "name": "balanceOf",
                        "returnParams": [
                            {
                                "decimalAvailable": true,
                                "name": "",
                                "type": "uint256",
                                "value": "1"
                            }
                        ],
                        "signature": "balanceOf(address)"
                    },
                    "errorInfo": "",
                    "fromAddress": "0xff970a61a04b1ca14834a43f5de4533ebddb5cc8",
                    "gasUsed": 553,
                    "id": 39,
                    "methodDecoded": true,
                    "operation": "DELEGATECALL",
                    "output": "0x0000000000000000000000000000000000000000000000000000000000000001",
                    "revert": false,
                    "revertMessage": "",
                    "selector": "0x70a08231",
                    "status": true,
                    "value": "0"
                },
                "nodeType": 0
            },
            "4": {
                "invocation": {
                    "address": "0xde1e704dae0b4051e80dabb26ab6ad6c12262da0",
                    "callData": "0x0000000000000000000000007dc406b9b904a52d10e19e848521bba2de74888b0000000000000000000000000000000000000000000000000000000000000000",
                    "decodedMethod": {
                        "callParams": [
                            {
                                "name": "account",
                                "type": "address",
                                "value": "0x7dc406b9b904a52d10e19e848521bba2de74888b"
                            },
                            {
                                "name": "amount",
                                "type": "uint256",
                                "value": "0"
                            }
                        ],
                        "constructorArguments": "",
                        "name": "burnFrom",
                        "returnParams": [],
                        "signature": "burnFrom(address,uint256)"
                    },
                    "errorInfo": "",
                    "fromAddress": "0xe2ee6252509382a2b6504d5a5f7a1c5018a38168",
                    "gasUsed": 32254,
                    "id": 4,
                    "methodDecoded": true,
                    "operation": "CALL",
                    "output": "",
                    "revert": false,
                    "revertMessage": "",
                    "selector": "0x79cc6790",
                    "status": true,
                    "value": "0"
                },
                "nodeType": 0
            },
            "40": {
                "invocation": {
                    "address": "0xce9240869391928253ed9cc9bcb8cb98cb5b0722",
                    "callData": "0x0000000000000000000000000000000000000000000000000000000000000001",
                    "decodedMethod": {
                        "callParams": [
                            {
                                "name": "_stable",
                                "type": "bool",
                                "value": true
                            }
                        ],
                        "constructorArguments": "",
                        "name": "getFee",
                        "returnParams": [
                            {
                                "name": "",
                                "type": "uint256",
                                "value": "4"
                            }
                        ],
                        "signature": "getFee(bool)"
                    },
                    "errorInfo": "",
                    "fromAddress": "0x7dc406b9b904a52d10e19e848521bba2de74888b",
                    "gasUsed": 1454,
                    "id": 40,
                    "methodDecoded": true,
                    "operation": "STATICCALL",
                    "output": "0x0000000000000000000000000000000000000000000000000000000000000004",
                    "revert": false,
                    "revertMessage": "",
                    "selector": "0x512b45ea",
                    "status": true,
                    "value": "0"
                },
                "nodeType": 0
            },
            "41": {
                "invocation": {
                    "address": "0x7c7b7de557282411358575f3322e321c94245a9f",
                    "callData": "0x0000000000000000000000000000000000000000000000000000000000000001",
                    "decodedMethod": {
                        "callParams": [
                            {
                                "name": "_stable",
                                "type": "bool",
                                "value": true
                            }
                        ],
                        "constructorArguments": "",
                        "name": "getFee",
                        "returnParams": [
                            {
                                "name": "",
                                "type": "uint256",
                                "value": "4"
                            }
                        ],
                        "signature": "getFee(bool)"
                    },
                    "errorInfo": "",
                    "fromAddress": "0xce9240869391928253ed9cc9bcb8cb98cb5b0722",
                    "gasUsed": 635,
                    "id": 41,
                    "methodDecoded": true,
                    "operation": "DELEGATECALL",
                    "output": "0x0000000000000000000000000000000000000000000000000000000000000004",
                    "revert": false,
                    "revertMessage": "",
                    "selector": "0x512b45ea",
                    "status": true,
                    "value": "0"
                },
                "nodeType": 0
            },
            "42": {
                "invocation": {
                    "address": "0xce9240869391928253ed9cc9bcb8cb98cb5b0722",
                    "callData": "0x",
                    "decodedMethod": {
                        "callParams": [],
                        "constructorArguments": "",
                        "name": "dibs",
                        "returnParams": [
                            {
                                "name": "",
                                "type": "address",
                                "value": "0x6cb66a0762e7ce3c0abc9d0241bf4cffc67fcda1"
                            }
                        ],
                        "signature": "dibs()"
                    },
                    "errorInfo": "",
                    "fromAddress": "0x7dc406b9b904a52d10e19e848521bba2de74888b",
                    "gasUsed": 3428,
                    "id": 42,
                    "methodDecoded": true,
                    "operation": "STATICCALL",
                    "output": "0x0000000000000000000000006cb66a0762e7ce3c0abc9d0241bf4cffc67fcda1",
                    "revert": false,
                    "revertMessage": "",
                    "selector": "0x7be1623e",
                    "status": true,
                    "value": "0"
                },
                "nodeType": 0
            },
            "43": {
                "invocation": {
                    "address": "0x7c7b7de557282411358575f3322e321c94245a9f",
                    "callData": "0x",
                    "decodedMethod": {
                        "callParams": [],
                        "constructorArguments": "",
                        "name": "dibs",
                        "returnParams": [
                            {
                                "name": "",
                                "type": "address",
                                "value": "0x6cb66a0762e7ce3c0abc9d0241bf4cffc67fcda1"
                            }
                        ],
                        "signature": "dibs()"
                    },
                    "errorInfo": "",
                    "fromAddress": "0xce9240869391928253ed9cc9bcb8cb98cb5b0722",
                    "gasUsed": 2612,
                    "id": 43,
                    "methodDecoded": true,
                    "operation": "DELEGATECALL",
                    "output": "0x0000000000000000000000006cb66a0762e7ce3c0abc9d0241bf4cffc67fcda1",
                    "revert": false,
                    "revertMessage": "",
                    "selector": "0x7be1623e",
                    "status": true,
                    "value": "0"
                },
                "nodeType": 0
            },
            "44": {
                "invocation": {
                    "address": "0xce9240869391928253ed9cc9bcb8cb98cb5b0722",
                    "callData": "0x",
                    "decodedMethod": {
                        "callParams": [],
                        "constructorArguments": "",
                        "name": "MAX_REFERRAL_FEE",
                        "returnParams": [
                            {
                                "name": "",
                                "type": "uint256",
                                "value": "1,200"
                            }
                        ],
                        "signature": "MAX_REFERRAL_FEE()"
                    },
                    "errorInfo": "",
                    "fromAddress": "0x7dc406b9b904a52d10e19e848521bba2de74888b",
                    "gasUsed": 3133,
                    "id": 44,
                    "methodDecoded": true,
                    "operation": "STATICCALL",
                    "output": "0x00000000000000000000000000000000000000000000000000000000000004b0",
                    "revert": false,
                    "revertMessage": "",
                    "selector": "0x1e61079c",
                    "status": true,
                    "value": "0"
                },
                "nodeType": 0
            },
            "45": {
                "invocation": {
                    "address": "0x7c7b7de557282411358575f3322e321c94245a9f",
                    "callData": "0x",
                    "decodedMethod": {
                        "callParams": [],
                        "constructorArguments": "",
                        "name": "MAX_REFERRAL_FEE",
                        "returnParams": [
                            {
                                "name": "",
                                "type": "uint256",
                                "value": "1,200"
                            }
                        ],
                        "signature": "MAX_REFERRAL_FEE()"
                    },
                    "errorInfo": "",
                    "fromAddress": "0xce9240869391928253ed9cc9bcb8cb98cb5b0722",
                    "gasUsed": 2317,
                    "id": 45,
                    "methodDecoded": true,
                    "operation": "DELEGATECALL",
                    "output": "0x00000000000000000000000000000000000000000000000000000000000004b0",
                    "revert": false,
                    "revertMessage": "",
                    "selector": "0x1e61079c",
                    "status": true,
                    "value": "0"
                },
                "nodeType": 0
            },
            "46": {
                "invocation": {
                    "address": "0xde1e704dae0b4051e80dabb26ab6ad6c12262da0",
                    "callData": "0x0000000000000000000000006cb66a0762e7ce3c0abc9d0241bf4cffc67fcda100000000000000000000000000000000000000000000000bfa1afd745acd001e",
                    "decodedMethod": {
                        "callParams": [
                            {
                                "name": "recipient",
                                "type": "address",
                                "value": "0x6cb66a0762e7ce3c0abc9d0241bf4cffc67fcda1"
                            },
                            {
                                "decimalAvailable": true,
                                "name": "amount",
                                "type": "uint256",
                                "value": "220,936,180,345,862,946,846"
                            }
                        ],
                        "constructorArguments": "",
                        "name": "transfer",
                        "returnParams": [
                            {
                                "name": "",
                                "type": "bool",
                                "value": true
                            }
                        ],
                        "signature": "transfer(address,uint256)"
                    },
                    "errorInfo": "",
                    "fromAddress": "0x7dc406b9b904a52d10e19e848521bba2de74888b",
                    "gasUsed": 11752,
                    "id": 46,
                    "methodDecoded": true,
                    "operation": "CALL",
                    "output": "0x0000000000000000000000000000000000000000000000000000000000000001",
                    "revert": false,
                    "revertMessage": "",
                    "selector": "0xa9059cbb",
                    "status": true,
                    "value": "0"
                },
                "nodeType": 0
            },
            "47": {
                "invocation": {
                    "address": "0xbc1b62db243b51dabcd9540473324f36e094ec55",
                    "callData": "0x0000000000000000000000006cb66a0762e7ce3c0abc9d0241bf4cffc67fcda100000000000000000000000000000000000000000000000bfa1afd745acd001e",
                    "decodedMethod": {
                        "callParams": [
                            {
                                "name": "recipient",
                                "type": "address",
                                "value": "0x6cb66a0762e7ce3c0abc9d0241bf4cffc67fcda1"
                            },
                            {
                                "decimalAvailable": true,
                                "name": "amount",
                                "type": "uint256",
                                "value": "220,936,180,345,862,946,846"
                            }
                        ],
                        "constructorArguments": "",
                        "name": "transfer",
                        "returnParams": [
                            {
                                "name": "",
                                "type": "bool",
                                "value": true
                            }
                        ],
                        "signature": "transfer(address,uint256)"
                    },
                    "errorInfo": "",
                    "fromAddress": "0xde1e704dae0b4051e80dabb26ab6ad6c12262da0",
                    "gasUsed": 10918,
                    "id": 47,
                    "methodDecoded": true,
                    "operation": "DELEGATECALL",
                    "output": "0x0000000000000000000000000000000000000000000000000000000000000001",
                    "revert": false,
                    "revertMessage": "",
                    "selector": "0xa9059cbb",
                    "status": true,
                    "value": "0"
                },
                "nodeType": 0
            },
            "48": {
                "event": {
                    "contract": "0xde1e704dae0b4051e80dabb26ab6ad6c12262da0",
                    "decodedLog": {
                        "name": "Transfer",
                        "params": [
                            {
                                "name": "from",
                                "type": "address",
                                "value": "0x7dc406b9b904a52d10e19e848521bba2de74888b"
                            },
                            {
                                "name": "to",
                                "type": "address",
                                "value": "0x6cb66a0762e7ce3c0abc9d0241bf4cffc67fcda1"
                            },
                            {
                                "decimalAvailable": true,
                                "name": "value",
                                "type": "uint256",
                                "value": "220,936,180,345,862,946,846"
                            }
                        ],
                        "signature": "Transfer(address,address,uint256)"
                    },
                    "id": 48,
                    "logData": "0x00000000000000000000000000000000000000000000000bfa1afd745acd001e",
                    "logDecoded": true,
                    "operation": "EVENT",
                    "revert": false,
                    "status": true,
                    "topics": [
                        "0xddf252ad1be2c89b69c2b068fc378daa952ba7f163c4a11628f55a4df523b3ef",
                        "0x0000000000000000000000007dc406b9b904a52d10e19e848521bba2de74888b",
                        "0x0000000000000000000000006cb66a0762e7ce3c0abc9d0241bf4cffc67fcda1"
                    ]
                },
                "nodeType": 1
            },
            "49": {
                "invocation": {
                    "address": "0xce9240869391928253ed9cc9bcb8cb98cb5b0722",
                    "callData": "0x",
                    "decodedMethod": {
                        "callParams": [],
                        "constructorArguments": "",
                        "name": "stakingNFTFee",
                        "returnParams": [
                            {
                                "name": "",
                                "type": "uint256",
                                "value": "2,000"
                            }
                        ],
                        "signature": "stakingNFTFee()"
                    },
                    "errorInfo": "",
                    "fromAddress": "0x7dc406b9b904a52d10e19e848521bba2de74888b",
                    "gasUsed": 3507,
                    "id": 49,
                    "methodDecoded": true,
                    "operation": "STATICCALL",
                    "output": "0x00000000000000000000000000000000000000000000000000000000000007d0",
                    "revert": false,
                    "revertMessage": "",
                    "selector": "0x956f94a1",
                    "status": true,
                    "value": "0"
                },
                "nodeType": 0
            },
            "5": {
                "invocation": {
                    "address": "0xbc1b62db243b51dabcd9540473324f36e094ec55",
                    "callData": "0x0000000000000000000000007dc406b9b904a52d10e19e848521bba2de74888b0000000000000000000000000000000000000000000000000000000000000000",
                    "decodedMethod": {
                        "callParams": [
                            {
                                "name": "account",
                                "type": "address",
                                "value": "0x7dc406b9b904a52d10e19e848521bba2de74888b"
                            },
                            {
                                "name": "amount",
                                "type": "uint256",
                                "value": "0"
                            }
                        ],
                        "constructorArguments": "",
                        "name": "burnFrom",
                        "returnParams": [],
                        "signature": "burnFrom(address,uint256)"
                    },
                    "errorInfo": "",
                    "fromAddress": "0xde1e704dae0b4051e80dabb26ab6ad6c12262da0",
                    "gasUsed": 31423,
                    "id": 5,
                    "methodDecoded": true,
                    "operation": "DELEGATECALL",
                    "output": "",
                    "revert": false,
                    "revertMessage": "",
                    "selector": "0x79cc6790",
                    "status": true,
                    "value": "0"
                },
                "nodeType": 0
            },
            "50": {
                "invocation": {
                    "address": "0x7c7b7de557282411358575f3322e321c94245a9f",
                    "callData": "0x",
                    "decodedMethod": {
                        "callParams": [],
                        "constructorArguments": "",
                        "name": "stakingNFTFee",
                        "returnParams": [
                            {
                                "name": "",
                                "type": "uint256",
                                "value": "2,000"
                            }
                        ],
                        "signature": "stakingNFTFee()"
                    },
                    "errorInfo": "",
                    "fromAddress": "0xce9240869391928253ed9cc9bcb8cb98cb5b0722",
                    "gasUsed": 2691,
                    "id": 50,
                    "methodDecoded": true,
                    "operation": "DELEGATECALL",
                    "output": "0x00000000000000000000000000000000000000000000000000000000000007d0",
                    "revert": false,
                    "revertMessage": "",
                    "selector": "0x956f94a1",
                    "status": true,
                    "value": "0"
                },
                "nodeType": 0
            },
            "51": {
                "invocation": {
                    "address": "0xd2193bffe8f9c5a788dbae189c3c3eff53a32200",
                    "callData": "0x00000000000000000000000000000000000000000000001190f462aaa74eccf90000000000000000000000000000000000000000000000000000000000000001",
                    "decodedMethod": {
                        "callParams": [
                            {
                                "name": "amount",
                                "type": "uint256",
                                "value": "324,039,731,173,932,322,041"
                            },
                            {
                                "name": "isTokenZero",
                                "type": "bool",
                                "value": true
                            }
                        ],
                        "constructorArguments": "",
                        "name": "processStakingFees",
                        "returnParams": [],
                        "signature": "processStakingFees(uint256,bool)"
                    },
                    "errorInfo": "",
                    "fromAddress": "0x7dc406b9b904a52d10e19e848521bba2de74888b",
                    "gasUsed": 5603,
                    "id": 51,
                    "methodDecoded": true,
                    "operation": "CALL",
                    "output": "",
                    "revert": false,
                    "revertMessage": "",
                    "selector": "0x8d4dabff",
                    "status": true,
                    "value": "0"
                },
                "nodeType": 0
            },
            "52": {
                "invocation": {
                    "address": "0xde1e704dae0b4051e80dabb26ab6ad6c12262da0",
                    "callData": "0x000000000000000000000000d2193bffe8f9c5a788dbae189c3c3eff53a32200000000000000000000000000000000000000000000000057d4c5ed55448a00e0",
                    "decodedMethod": {
                        "callParams": [
                            {
                                "name": "recipient",
                                "type": "address",
                                "value": "0xd2193bffe8f9c5a788dbae189c3c3eff53a32200"
                            },
                            {
                                "decimalAvailable": true,
                                "name": "amount",
                                "type": "uint256",
                                "value": "1,620,198,655,869,661,610,208"
                            }
                        ],
                        "constructorArguments": "",
                        "name": "transfer",
                        "returnParams": [
                            {
                                "name": "",
                                "type": "bool",
                                "value": true
                            }
                        ],
                        "signature": "transfer(address,uint256)"
                    },
                    "errorInfo": "",
                    "fromAddress": "0x7dc406b9b904a52d10e19e848521bba2de74888b",
                    "gasUsed": 8952,
                    "id": 52,
                    "methodDecoded": true,
                    "operation": "CALL",
                    "output": "0x0000000000000000000000000000000000000000000000000000000000000001",
                    "revert": false,
                    "revertMessage": "",
                    "selector": "0xa9059cbb",
                    "status": true,
                    "value": "0"
                },
                "nodeType": 0
            },
            "53": {
                "invocation": {
                    "address": "0xbc1b62db243b51dabcd9540473324f36e094ec55",
                    "callData": "0x000000000000000000000000d2193bffe8f9c5a788dbae189c3c3eff53a32200000000000000000000000000000000000000000000000057d4c5ed55448a00e0",
                    "decodedMethod": {
                        "callParams": [
                            {
                                "name": "recipient",
                                "type": "address",
                                "value": "0xd2193bffe8f9c5a788dbae189c3c3eff53a32200"
                            },
                            {
                                "decimalAvailable": true,
                                "name": "amount",
                                "type": "uint256",
                                "value": "1,620,198,655,869,661,610,208"
                            }
                        ],
                        "constructorArguments": "",
                        "name": "transfer",
                        "returnParams": [
                            {
                                "name": "",
                                "type": "bool",
                                "value": true
                            }
                        ],
                        "signature": "transfer(address,uint256)"
                    },
                    "errorInfo": "",
                    "fromAddress": "0xde1e704dae0b4051e80dabb26ab6ad6c12262da0",
                    "gasUsed": 8118,
                    "id": 53,
                    "methodDecoded": true,
                    "operation": "DELEGATECALL",
                    "output": "0x0000000000000000000000000000000000000000000000000000000000000001",
                    "revert": false,
                    "revertMessage": "",
                    "selector": "0xa9059cbb",
                    "status": true,
                    "value": "0"
                },
                "nodeType": 0
            },
            "54": {
                "event": {
                    "contract": "0xde1e704dae0b4051e80dabb26ab6ad6c12262da0",
                    "decodedLog": {
                        "name": "Transfer",
                        "params": [
                            {
                                "name": "from",
                                "type": "address",
                                "value": "0x7dc406b9b904a52d10e19e848521bba2de74888b"
                            },
                            {
                                "name": "to",
                                "type": "address",
                                "value": "0xd2193bffe8f9c5a788dbae189c3c3eff53a32200"
                            },
                            {
                                "decimalAvailable": true,
                                "name": "value",
                                "type": "uint256",
                                "value": "1,620,198,655,869,661,610,208"
                            }
                        ],
                        "signature": "Transfer(address,address,uint256)"
                    },
                    "id": 54,
                    "logData": "0x000000000000000000000000000000000000000000000057d4c5ed55448a00e0",
                    "logDecoded": true,
                    "operation": "EVENT",
                    "revert": false,
                    "status": true,
                    "topics": [
                        "0xddf252ad1be2c89b69c2b068fc378daa952ba7f163c4a11628f55a4df523b3ef",
                        "0x0000000000000000000000007dc406b9b904a52d10e19e848521bba2de74888b",
                        "0x000000000000000000000000d2193bffe8f9c5a788dbae189c3c3eff53a32200"
                    ]
                },
                "nodeType": 1
            },
            "55": {
                "event": {
                    "contract": "0x7dc406b9b904a52d10e19e848521bba2de74888b",
                    "decodedLog": {
                        "name": "Fees",
                        "params": [
                            {
                                "name": "sender",
                                "type": "address",
                                "value": "0xe2ee6252509382a2b6504d5a5f7a1c5018a38168"
                            },
                            {
                                "name": "amount0",
                                "type": "uint256",
                                "value": "1,841,134,836,215,524,557,054"
                            },
                            {
                                "name": "amount1",
                                "type": "uint256",
                                "value": "0"
                            }
                        ],
                        "signature": "Fees(address,uint256,uint256)"
                    },
                    "id": 55,
                    "logData": "0x000000000000000000000000000000000000000000000063cee0eac99f5700fe0000000000000000000000000000000000000000000000000000000000000000",
                    "logDecoded": true,
                    "operation": "EVENT",
                    "revert": false,
                    "status": true,
                    "topics": [
                        "0x112c256902bf554b6ed882d2936687aaeb4225e8cd5b51303c90ca6cf43a8602",
                        "0x000000000000000000000000e2ee6252509382a2b6504d5a5f7a1c5018a38168"
                    ]
                },
                "nodeType": 1
            },
            "56": {
                "invocation": {
                    "address": "0xde1e704dae0b4051e80dabb26ab6ad6c12262da0",
                    "callData": "0x0000000000000000000000007dc406b9b904a52d10e19e848521bba2de74888b",
                    "decodedMethod": {
                        "callParams": [
                            {
                                "name": "account",
                                "type": "address",
                                "value": "0x7dc406b9b904a52d10e19e848521bba2de74888b"
                            }
                        ],
                        "constructorArguments": "",
                        "name": "balanceOf",
                        "returnParams": [
                            {
                                "decimalAvailable": true,
                                "name": "",
                                "type": "uint256",
                                "value": "4,600,995,955,702,595,868,078,066"
                            }
                        ],
                        "signature": "balanceOf(address)"
                    },
                    "errorInfo": "",
                    "fromAddress": "0x7dc406b9b904a52d10e19e848521bba2de74888b",
                    "gasUsed": 1412,
                    "id": 56,
                    "methodDecoded": true,
                    "operation": "STATICCALL",
                    "output": "0x00000000000000000000000000000000000000000003ce4c7d93ee2e6e4eaff2",
                    "revert": false,
                    "revertMessage": "",
                    "selector": "0x70a08231",
                    "status": true,
                    "value": "0"
                },
                "nodeType": 0
            },
            "57": {
                "invocation": {
                    "address": "0xbc1b62db243b51dabcd9540473324f36e094ec55",
                    "callData": "0x0000000000000000000000007dc406b9b904a52d10e19e848521bba2de74888b",
                    "decodedMethod": {
                        "callParams": [
                            {
                                "name": "account",
                                "type": "address",
                                "value": "0x7dc406b9b904a52d10e19e848521bba2de74888b"
                            }
                        ],
                        "constructorArguments": "",
                        "name": "balanceOf",
                        "returnParams": [
                            {
                                "decimalAvailable": true,
                                "name": "",
                                "type": "uint256",
                                "value": "4,600,995,955,702,595,868,078,066"
                            }
                        ],
                        "signature": "balanceOf(address)"
                    },
                    "errorInfo": "",
                    "fromAddress": "0xde1e704dae0b4051e80dabb26ab6ad6c12262da0",
                    "gasUsed": 581,
                    "id": 57,
                    "methodDecoded": true,
                    "operation": "DELEGATECALL",
                    "output": "0x00000000000000000000000000000000000000000003ce4c7d93ee2e6e4eaff2",
                    "revert": false,
                    "revertMessage": "",
                    "selector": "0x70a08231",
                    "status": true,
                    "value": "0"
                },
                "nodeType": 0
            },
            "58": {
                "invocation": {
                    "address": "0xff970a61a04b1ca14834a43f5de4533ebddb5cc8",
                    "callData": "0x0000000000000000000000007dc406b9b904a52d10e19e848521bba2de74888b",
                    "decodedMethod": {
                        "callParams": [
                            {
                                "name": "account",
                                "type": "address",
                                "value": "0x7dc406b9b904a52d10e19e848521bba2de74888b"
                            }
                        ],
                        "constructorArguments": "",
                        "name": "balanceOf",
                        "returnParams": [
                            {
                                "decimalAvailable": true,
                                "name": "",
                                "type": "uint256",
                                "value": "1"
                            }
                        ],
                        "signature": "balanceOf(address)"
                    },
                    "errorInfo": "",
                    "fromAddress": "0x7dc406b9b904a52d10e19e848521bba2de74888b",
                    "gasUsed": 1296,
                    "id": 58,
                    "methodDecoded": true,
                    "operation": "STATICCALL",
                    "output": "0x0000000000000000000000000000000000000000000000000000000000000001",
                    "revert": false,
                    "revertMessage": "",
                    "selector": "0x70a08231",
                    "status": true,
                    "value": "0"
                },
                "nodeType": 0
            },
            "59": {
                "invocation": {
                    "address": "0x1efb3f88bc88f03fd1804a5c53b7141bbef5ded8",
                    "callData": "0x0000000000000000000000007dc406b9b904a52d10e19e848521bba2de74888b",
                    "decodedMethod": {
                        "callParams": [
                            {
                                "name": "account",
                                "type": "address",
                                "value": "0x7dc406b9b904a52d10e19e848521bba2de74888b"
                            }
                        ],
                        "constructorArguments": "",
                        "name": "balanceOf",
                        "returnParams": [
                            {
                                "decimalAvailable": true,
                                "name": "",
                                "type": "uint256",
                                "value": "1"
                            }
                        ],
                        "signature": "balanceOf(address)"
                    },
                    "errorInfo": "",
                    "fromAddress": "0xff970a61a04b1ca14834a43f5de4533ebddb5cc8",
                    "gasUsed": 553,
                    "id": 59,
                    "methodDecoded": true,
                    "operation": "DELEGATECALL",
                    "output": "0x0000000000000000000000000000000000000000000000000000000000000001",
                    "revert": false,
                    "revertMessage": "",
                    "selector": "0x70a08231",
                    "status": true,
                    "value": "0"
                },
                "nodeType": 0
            },
            "6": {
                "event": {
                    "contract": "0xde1e704dae0b4051e80dabb26ab6ad6c12262da0",
                    "decodedLog": {
                        "name": "Approval",
                        "params": [
                            {
                                "name": "owner",
                                "type": "address",
                                "value": "0x7dc406b9b904a52d10e19e848521bba2de74888b"
                            },
                            {
                                "name": "spender",
                                "type": "address",
                                "value": "0xe2ee6252509382a2b6504d5a5f7a1c5018a38168"
                            },
                            {
                                "decimalAvailable": true,
                                "name": "value",
                                "type": "uint256",
                                "value": "115,792,089,237,316,195,423,570,985,008,687,907,853,269,984,665,640,564,039,457,584,007,913,129,639,935"
                            }
                        ],
                        "signature": "Approval(address,address,uint256)"
                    },
                    "id": 6,
                    "logData": "0xffffffffffffffffffffffffffffffffffffffffffffffffffffffffffffffff",
                    "logDecoded": true,
                    "operation": "EVENT",
                    "revert": false,
                    "status": true,
                    "topics": [
                        "0x8c5be1e5ebec7d5bd14f71427d1e84f3dd0314c0f7b2291e5b200ac8c7c3b925",
                        "0x0000000000000000000000007dc406b9b904a52d10e19e848521bba2de74888b",
                        "0x000000000000000000000000e2ee6252509382a2b6504d5a5f7a1c5018a38168"
                    ]
                },
                "nodeType": 1
            },
            "60": {
                "event": {
                    "contract": "0x7dc406b9b904a52d10e19e848521bba2de74888b",
                    "decodedLog": {
                        "name": "Sync",
                        "params": [
                            {
                                "name": "reserve0",
                                "type": "uint256",
                                "value": "4,600,995,955,702,595,868,078,066"
                            },
                            {
                                "name": "reserve1",
                                "type": "uint256",
                                "value": "1"
                            }
                        ],
                        "signature": "Sync(uint256,uint256)"
                    },
                    "id": 60,
                    "logData": "0x00000000000000000000000000000000000000000003ce4c7d93ee2e6e4eaff20000000000000000000000000000000000000000000000000000000000000001",
                    "logDecoded": true,
                    "operation": "EVENT",
                    "revert": false,
                    "status": true,
                    "topics": [
                        "0xcf2aa50876cdfbb541206f89af0ee78d44a2abf8d328e37fa4917f982149848a"
                    ]
                },
                "nodeType": 1
            },
            "61": {
                "event": {
                    "contract": "0x7dc406b9b904a52d10e19e848521bba2de74888b",
                    "decodedLog": {
                        "name": "Swap",
                        "params": [
                            {
                                "name": "sender",
                                "type": "address",
                                "value": "0xe2ee6252509382a2b6504d5a5f7a1c5018a38168"
                            },
                            {
                                "name": "to",
                                "type": "address",
                                "value": "0x189cf534de3097c08b6beaf6eb2b9179dab122d1"
                            },
                            {
                                "name": "amount0In",
                                "type": "uint256",
                                "value": "4,602,837,090,538,811,392,635,119"
                            },
                            {
                                "name": "amount1In",
                                "type": "uint256",
                                "value": "0"
                            },
                            {
                                "name": "amount0Out",
                                "type": "uint256",
                                "value": "0"
                            },
                            {
                                "name": "amount1Out",
                                "type": "uint256",
                                "value": "5,047,470,472,572"
                            }
                        ],
                        "signature": "Swap(address,uint256,uint256,uint256,uint256,address)"
                    },
                    "id": 61,
                    "logData": "0x00000000000000000000000000000000000000000003ceb04c74d8f80da5b0ef000000000000000000000000000000000000000000000000000000000000000000000000000000000000000000000000000000000000000000000000000000000000000000000000000000000000000000000000000000000000049734af3d7c",
                    "logDecoded": true,
                    "operation": "EVENT",
                    "revert": false,
                    "status": true,
                    "topics": [
                        "0xd78ad95fa46c994b6551d0da85fc275fe613ce37657fb8d5e3d130840159d822",
                        "0x000000000000000000000000e2ee6252509382a2b6504d5a5f7a1c5018a38168",
                        "0x000000000000000000000000189cf534de3097c08b6beaf6eb2b9179dab122d1"
                    ]
                },
                "nodeType": 1
            },
            "62": {
                "invocation": {
                    "address": "0xff970a61a04b1ca14834a43f5de4533ebddb5cc8",
                    "callData": "0x000000000000000000000000189cf534de3097c08b6beaf6eb2b9179dab122d1",
                    "decodedMethod": {
                        "callParams": [
                            {
                                "name": "account",
                                "type": "address",
                                "value": "0x189cf534de3097c08b6beaf6eb2b9179dab122d1"
                            }
                        ],
                        "constructorArguments": "",
                        "name": "balanceOf",
                        "returnParams": [
                            {
                                "decimalAvailable": true,
                                "name": "",
                                "type": "uint256",
                                "value": "5,047,470,472,572"
                            }
                        ],
                        "signature": "balanceOf(address)"
                    },
                    "errorInfo": "",
                    "fromAddress": "0xe2ee6252509382a2b6504d5a5f7a1c5018a38168",
                    "gasUsed": 1296,
                    "id": 62,
                    "methodDecoded": true,
                    "operation": "STATICCALL",
                    "output": "0x0000000000000000000000000000000000000000000000000000049734af3d7c",
                    "revert": false,
                    "revertMessage": "",
                    "selector": "0x70a08231",
                    "status": true,
                    "value": "0"
                },
                "nodeType": 0
            },
            "63": {
                "invocation": {
                    "address": "0x1efb3f88bc88f03fd1804a5c53b7141bbef5ded8",
                    "callData": "0x000000000000000000000000189cf534de3097c08b6beaf6eb2b9179dab122d1",
                    "decodedMethod": {
                        "callParams": [
                            {
                                "name": "account",
                                "type": "address",
                                "value": "0x189cf534de3097c08b6beaf6eb2b9179dab122d1"
                            }
                        ],
                        "constructorArguments": "",
                        "name": "balanceOf",
                        "returnParams": [
                            {
                                "decimalAvailable": true,
                                "name": "",
                                "type": "uint256",
                                "value": "5,047,470,472,572"
                            }
                        ],
                        "signature": "balanceOf(address)"
                    },
                    "errorInfo": "",
                    "fromAddress": "0xff970a61a04b1ca14834a43f5de4533ebddb5cc8",
                    "gasUsed": 553,
                    "id": 63,
                    "methodDecoded": true,
                    "operation": "DELEGATECALL",
                    "output": "0x0000000000000000000000000000000000000000000000000000049734af3d7c",
                    "revert": false,
                    "revertMessage": "",
                    "selector": "0x70a08231",
                    "status": true,
                    "value": "0"
                },
                "nodeType": 0
            },
            "7": {
                "event": {
                    "contract": "0xde1e704dae0b4051e80dabb26ab6ad6c12262da0",
                    "decodedLog": {
                        "name": "Transfer",
                        "params": [
                            {
                                "name": "from",
                                "type": "address",
                                "value": "0x7dc406b9b904a52d10e19e848521bba2de74888b"
                            },
                            {
                                "name": "to",
                                "type": "address",
                                "value": "0x0000000000000000000000000000000000000000"
                            },
                            {
                                "decimalAvailable": true,
                                "name": "value",
                                "type": "uint256",
                                "value": "0"
                            }
                        ],
                        "signature": "Transfer(address,address,uint256)"
                    },
                    "id": 7,
                    "logData": "0x0000000000000000000000000000000000000000000000000000000000000000",
                    "logDecoded": true,
                    "operation": "EVENT",
                    "revert": false,
                    "status": true,
                    "topics": [
                        "0xddf252ad1be2c89b69c2b068fc378daa952ba7f163c4a11628f55a4df523b3ef",
                        "0x0000000000000000000000007dc406b9b904a52d10e19e848521bba2de74888b",
                        "0x0000000000000000000000000000000000000000000000000000000000000000"
                    ]
                },
                "nodeType": 1
            },
            "8": {
                "invocation": {
                    "address": "0xde1e704dae0b4051e80dabb26ab6ad6c12262da0",
                    "callData": "0x0000000000000000000000007dc406b9b904a52d10e19e848521bba2de74888b",
                    "decodedMethod": {
                        "callParams": [
                            {
                                "name": "account",
                                "type": "address",
                                "value": "0x7dc406b9b904a52d10e19e848521bba2de74888b"
                            }
                        ],
                        "constructorArguments": "",
                        "name": "balanceOf",
                        "returnParams": [
                            {
                                "decimalAvailable": true,
                                "name": "",
                                "type": "uint256",
                                "value": "4,602,837,090,538,811,392,635,120"
                            }
                        ],
                        "signature": "balanceOf(address)"
                    },
                    "errorInfo": "",
                    "fromAddress": "0xe2ee6252509382a2b6504d5a5f7a1c5018a38168",
                    "gasUsed": 1412,
                    "id": 8,
                    "methodDecoded": true,
                    "operation": "STATICCALL",
                    "output": "0x00000000000000000000000000000000000000000003ceb04c74d8f80da5b0f0",
                    "revert": false,
                    "revertMessage": "",
                    "selector": "0x70a08231",
                    "status": true,
                    "value": "0"
                },
                "nodeType": 0
            },
            "9": {
                "invocation": {
                    "address": "0xbc1b62db243b51dabcd9540473324f36e094ec55",
                    "callData": "0x0000000000000000000000007dc406b9b904a52d10e19e848521bba2de74888b",
                    "decodedMethod": {
                        "callParams": [
                            {
                                "name": "account",
                                "type": "address",
                                "value": "0x7dc406b9b904a52d10e19e848521bba2de74888b"
                            }
                        ],
                        "constructorArguments": "",
                        "name": "balanceOf",
                        "returnParams": [
                            {
                                "decimalAvailable": true,
                                "name": "",
                                "type": "uint256",
                                "value": "4,602,837,090,538,811,392,635,120"
                            }
                        ],
                        "signature": "balanceOf(address)"
                    },
                    "errorInfo": "",
                    "fromAddress": "0xde1e704dae0b4051e80dabb26ab6ad6c12262da0",
                    "gasUsed": 581,
                    "id": 9,
                    "methodDecoded": true,
                    "operation": "DELEGATECALL",
                    "output": "0x00000000000000000000000000000000000000000003ceb04c74d8f80da5b0f0",
                    "revert": false,
                    "revertMessage": "",
                    "selector": "0x70a08231",
                    "status": true,
                    "value": "0"
                },
                "nodeType": 0
            }
        },
        "gasFlame": [
            {
                "children": [
                    {
                        "children": [
                            {
                                "children": [
                                    {
                                        "children": [
                                            {
                                                "children": [
                                                    {
                                                        "children": [],
                                                        "depth": 2,
                                                        "name": "approve",
                                                        "value": 26706
                                                    }
                                                ],
                                                "depth": 1,
                                                "name": "approve",
                                                "value": 34040
                                            },
                                            {
                                                "children": [
                                                    {
                                                        "children": [],
                                                        "depth": 2,
                                                        "name": "burnFrom",
                                                        "value": 31423
                                                    }
                                                ],
                                                "depth": 1,
                                                "name": "burnFrom",
                                                "value": 32254
                                            },
                                            {
                                                "children": [
                                                    {
                                                        "children": [],
                                                        "depth": 2,
                                                        "name": "balanceOf",
                                                        "value": 581
                                                    }
                                                ],
                                                "depth": 1,
                                                "name": "balanceOf",
                                                "value": 1412
                                            },
                                            {
                                                "children": [
                                                    {
                                                        "children": [],
                                                        "depth": 2,
                                                        "name": "transferFrom",
                                                        "value": 30615
                                                    }
                                                ],
                                                "depth": 1,
                                                "name": "transferFrom",
                                                "value": 31455
                                            },
                                            {
                                                "children": [
                                                    {
                                                        "children": [
                                                            {
                                                                "children": [],
                                                                "depth": 3,
                                                                "name": "balanceOf",
                                                                "value": 581
                                                            }
                                                        ],
                                                        "depth": 2,
                                                        "name": "balanceOf",
                                                        "value": 1412
                                                    },
                                                    {
                                                        "children": [
                                                            {
                                                                "children": [],
                                                                "depth": 3,
                                                                "name": "balanceOf",
                                                                "value": 2553
                                                            }
                                                        ],
                                                        "depth": 2,
                                                        "name": "balanceOf",
                                                        "value": 9796
                                                    }
                                                ],
                                                "depth": 1,
                                                "name": "sync",
                                                "value": 123662
                                            },
                                            {
                                                "children": [
                                                    {
                                                        "children": [],
                                                        "depth": 2,
                                                        "name": "balanceOf",
                                                        "value": 581
                                                    }
                                                ],
                                                "depth": 1,
                                                "name": "balanceOf",
                                                "value": 1412
                                            },
                                            {
                                                "children": [
                                                    {
                                                        "children": [
                                                            {
                                                                "children": [],
                                                                "depth": 3,
                                                                "name": "getFee",
                                                                "value": 2635
                                                            }
                                                        ],
                                                        "depth": 2,
                                                        "name": "getFee",
                                                        "value": 9954
                                                    }
                                                ],
                                                "depth": 1,
                                                "name": "getAmountOut",
                                                "value": 33983
                                            },
                                            {
                                                "children": [
                                                    {
                                                        "children": [],
                                                        "depth": 2,
                                                        "name": "transfer",
                                                        "value": 3318
                                                    }
                                                ],
                                                "depth": 1,
                                                "name": "transfer",
                                                "value": 4152
                                            },
                                            {
                                                "children": [],
                                                "depth": 1,
                                                "name": "token0",
                                                "value": 328
                                            },
                                            {
                                                "children": [],
                                                "depth": 1,
                                                "name": "token1",
                                                "value": 1054
                                            },
                                            {
                                                "children": [
                                                    {
                                                        "children": [
                                                            {
                                                                "children": [],
                                                                "depth": 3,
                                                                "name": "isPaused",
                                                                "value": 2750
                                                            }
                                                        ],
                                                        "depth": 2,
                                                        "name": "isPaused",
                                                        "value": 3566
                                                    },
                                                    {
                                                        "children": [
                                                            {
                                                                "children": [],
                                                                "depth": 3,
                                                                "name": "transfer",
                                                                "value": 34651
                                                            }
                                                        ],
                                                        "depth": 2,
                                                        "name": "transfer",
                                                        "value": 35397
                                                    },
                                                    {
                                                        "children": [
                                                            {
                                                                "children": [],
                                                                "depth": 3,
                                                                "name": "balanceOf",
                                                                "value": 581
                                                            }
                                                        ],
                                                        "depth": 2,
                                                        "name": "balanceOf",
                                                        "value": 1412
                                                    },
                                                    {
                                                        "children": [
                                                            {
                                                                "children": [],
                                                                "depth": 3,
                                                                "name": "balanceOf",
                                                                "value": 553
                                                            }
                                                        ],
                                                        "depth": 2,
                                                        "name": "balanceOf",
                                                        "value": 1296
                                                    },
                                                    {
                                                        "children": [
                                                            {
                                                                "children": [],
                                                                "depth": 3,
                                                                "name": "getFee",
                                                                "value": 635
                                                            }
                                                        ],
                                                        "depth": 2,
                                                        "name": "getFee",
                                                        "value": 1454
                                                    },
                                                    {
                                                        "children": [
                                                            {
                                                                "children": [],
                                                                "depth": 3,
                                                                "name": "dibs",
                                                                "value": 2612
                                                            }
                                                        ],
                                                        "depth": 2,
                                                        "name": "dibs",
                                                        "value": 3428
                                                    },
                                                    {
                                                        "children": [
                                                            {
                                                                "children": [],
                                                                "depth": 3,
                                                                "name": "MAX_REFERRAL_FEE",
                                                                "value": 2317
                                                            }
                                                        ],
                                                        "depth": 2,
                                                        "name": "MAX_REFERRAL_FEE",
                                                        "value": 3133
                                                    },
                                                    {
                                                        "children": [
                                                            {
                                                                "children": [],
                                                                "depth": 3,
                                                                "name": "transfer",
                                                                "value": 10918
                                                            }
                                                        ],
                                                        "depth": 2,
                                                        "name": "transfer",
                                                        "value": 11752
                                                    },
                                                    {
                                                        "children": [
                                                            {
                                                                "children": [],
                                                                "depth": 3,
                                                                "name": "stakingNFTFee",
                                                                "value": 2691
                                                            }
                                                        ],
                                                        "depth": 2,
                                                        "name": "stakingNFTFee",
                                                        "value": 3507
                                                    },
                                                    {
                                                        "children": [],
                                                        "depth": 2,
                                                        "name": "processStakingFees",
                                                        "value": 5603
                                                    },
                                                    {
                                                        "children": [
                                                            {
                                                                "children": [],
                                                                "depth": 3,
                                                                "name": "transfer",
                                                                "value": 8118
                                                            }
                                                        ],
                                                        "depth": 2,
                                                        "name": "transfer",
                                                        "value": 8952
                                                    },
                                                    {
                                                        "children": [
                                                            {
                                                                "children": [],
                                                                "depth": 3,
                                                                "name": "balanceOf",
                                                                "value": 581
                                                            }
                                                        ],
                                                        "depth": 2,
                                                        "name": "balanceOf",
                                                        "value": 1412
                                                    },
                                                    {
                                                        "children": [
                                                            {
                                                                "children": [],
                                                                "depth": 3,
                                                                "name": "balanceOf",
                                                                "value": 553
                                                            }
                                                        ],
                                                        "depth": 2,
                                                        "name": "balanceOf",
                                                        "value": 1296
                                                    }
                                                ],
                                                "depth": 1,
                                                "name": "swap",
                                                "value": 117704
                                            },
                                            {
                                                "children": [
                                                    {
                                                        "children": [],
                                                        "depth": 2,
                                                        "name": "balanceOf",
                                                        "value": 553
                                                    }
                                                ],
                                                "depth": 1,
                                                "name": "balanceOf",
                                                "value": 1296
                                            }
                                        ],
                                        "depth": 0,
                                        "name": "L2 Executed Gas",
                                        "value": 397482
                                    },
                                    {
                                        "children": [],
                                        "depth": 0,
                                        "name": "L2 Initial Gas",
                                        "value": 21800
                                    }
                                ],
                                "depth": -1,
                                "name": "L2 Actual Gas Used",
                                "value": 419282
                            },
                            {
                                "children": [],
                                "depth": -1,
                                "name": "L2 Refunded Gas",
                                "value": 0
                            }
                        ],
                        "depth": -2,
                        "name": "L2 Total Gas",
                        "value": 419282
                    },
                    {
                        "children": [
                            {
                                "children": [],
                                "depth": -1,
                                "name": "L1 Actual Gas Used",
                                "value": 3684332
                            },
                            {
                                "children": [],
                                "depth": -1,
                                "name": "L1 Refunded Gas",
                                "value": 0
                            }
                        ],
                        "depth": -2,
                        "name": "L1 Total Gas",
                        "value": 3684332
                    }
                ],
                "depth": -3,
                "name": "Total Gas",
                "value": 4103614
            }
        ],
        "isConfirmed": true,
        "mainTrace": [
            {
                "children": [
                    {
                        "children": [
                            {
                                "children": [
                                    {
                                        "children": [
                                            {
                                                "children": [],
                                                "depth": 3,
                                                "id": 3,
                                                "order": 3
                                            }
                                        ],
                                        "depth": 2,
                                        "id": 2,
                                        "order": 2
                                    }
                                ],
                                "depth": 1,
                                "id": 1,
                                "order": 1
                            },
                            {
                                "children": [
                                    {
                                        "children": [
                                            {
                                                "children": [],
                                                "depth": 3,
                                                "id": 6,
                                                "order": 6
                                            },
                                            {
                                                "children": [],
                                                "depth": 3,
                                                "id": 7,
                                                "order": 7
                                            }
                                        ],
                                        "depth": 2,
                                        "id": 5,
                                        "order": 5
                                    }
                                ],
                                "depth": 1,
                                "id": 4,
                                "order": 4
                            },
                            {
                                "children": [
                                    {
                                        "children": [],
                                        "depth": 2,
                                        "id": 9,
                                        "order": 9
                                    }
                                ],
                                "depth": 1,
                                "id": 8,
                                "order": 8
                            },
                            {
                                "children": [
                                    {
                                        "children": [
                                            {
                                                "children": [],
                                                "depth": 3,
                                                "id": 12,
                                                "order": 12
                                            },
                                            {
                                                "children": [],
                                                "depth": 3,
                                                "id": 13,
                                                "order": 13
                                            }
                                        ],
                                        "depth": 2,
                                        "id": 11,
                                        "order": 11
                                    }
                                ],
                                "depth": 1,
                                "id": 10,
                                "order": 10
                            },
                            {
                                "children": [
                                    {
                                        "children": [
                                            {
                                                "children": [],
                                                "depth": 3,
                                                "id": 16,
                                                "order": 16
                                            }
                                        ],
                                        "depth": 2,
                                        "id": 15,
                                        "order": 15
                                    },
                                    {
                                        "children": [
                                            {
                                                "children": [],
                                                "depth": 3,
                                                "id": 18,
                                                "order": 18
                                            }
                                        ],
                                        "depth": 2,
                                        "id": 17,
                                        "order": 17
                                    },
                                    {
                                        "children": [],
                                        "depth": 2,
                                        "id": 19,
                                        "order": 19
                                    }
                                ],
                                "depth": 1,
                                "id": 14,
                                "order": 14
                            },
                            {
                                "children": [
                                    {
                                        "children": [],
                                        "depth": 2,
                                        "id": 21,
                                        "order": 21
                                    }
                                ],
                                "depth": 1,
                                "id": 20,
                                "order": 20
                            },
                            {
                                "children": [
                                    {
                                        "children": [
                                            {
                                                "children": [],
                                                "depth": 3,
                                                "id": 24,
                                                "order": 24
                                            }
                                        ],
                                        "depth": 2,
                                        "id": 23,
                                        "order": 23
                                    }
                                ],
                                "depth": 1,
                                "id": 22,
                                "order": 22
                            },
                            {
                                "children": [
                                    {
                                        "children": [
                                            {
                                                "children": [],
                                                "depth": 3,
                                                "id": 27,
                                                "order": 27
                                            }
                                        ],
                                        "depth": 2,
                                        "id": 26,
                                        "order": 26
                                    }
                                ],
                                "depth": 1,
                                "id": 25,
                                "order": 25
                            },
                            {
                                "children": [],
                                "depth": 1,
                                "id": 28,
                                "order": 28
                            },
                            {
                                "children": [],
                                "depth": 1,
                                "id": 29,
                                "order": 29
                            },
                            {
                                "children": [
                                    {
                                        "children": [
                                            {
                                                "children": [],
                                                "depth": 3,
                                                "id": 32,
                                                "order": 32
                                            }
                                        ],
                                        "depth": 2,
                                        "id": 31,
                                        "order": 31
                                    },
                                    {
                                        "children": [
                                            {
                                                "children": [
                                                    {
                                                        "children": [],
                                                        "depth": 4,
                                                        "id": 35,
                                                        "order": 35
                                                    }
                                                ],
                                                "depth": 3,
                                                "id": 34,
                                                "order": 34
                                            }
                                        ],
                                        "depth": 2,
                                        "id": 33,
                                        "order": 33
                                    },
                                    {
                                        "children": [
                                            {
                                                "children": [],
                                                "depth": 3,
                                                "id": 37,
                                                "order": 37
                                            }
                                        ],
                                        "depth": 2,
                                        "id": 36,
                                        "order": 36
                                    },
                                    {
                                        "children": [
                                            {
                                                "children": [],
                                                "depth": 3,
                                                "id": 39,
                                                "order": 39
                                            }
                                        ],
                                        "depth": 2,
                                        "id": 38,
                                        "order": 38
                                    },
                                    {
                                        "children": [
                                            {
                                                "children": [],
                                                "depth": 3,
                                                "id": 41,
                                                "order": 41
                                            }
                                        ],
                                        "depth": 2,
                                        "id": 40,
                                        "order": 40
                                    },
                                    {
                                        "children": [
                                            {
                                                "children": [],
                                                "depth": 3,
                                                "id": 43,
                                                "order": 43
                                            }
                                        ],
                                        "depth": 2,
                                        "id": 42,
                                        "order": 42
                                    },
                                    {
                                        "children": [
                                            {
                                                "children": [],
                                                "depth": 3,
                                                "id": 45,
                                                "order": 45
                                            }
                                        ],
                                        "depth": 2,
                                        "id": 44,
                                        "order": 44
                                    },
                                    {
                                        "children": [
                                            {
                                                "children": [
                                                    {
                                                        "children": [],
                                                        "depth": 4,
                                                        "id": 48,
                                                        "order": 48
                                                    }
                                                ],
                                                "depth": 3,
                                                "id": 47,
                                                "order": 47
                                            }
                                        ],
                                        "depth": 2,
                                        "id": 46,
                                        "order": 46
                                    },
                                    {
                                        "children": [
                                            {
                                                "children": [],
                                                "depth": 3,
                                                "id": 50,
                                                "order": 50
                                            }
                                        ],
                                        "depth": 2,
                                        "id": 49,
                                        "order": 49
                                    },
                                    {
                                        "children": [],
                                        "depth": 2,
                                        "id": 51,
                                        "order": 51
                                    },
                                    {
                                        "children": [
                                            {
                                                "children": [
                                                    {
                                                        "children": [],
                                                        "depth": 4,
                                                        "id": 54,
                                                        "order": 54
                                                    }
                                                ],
                                                "depth": 3,
                                                "id": 53,
                                                "order": 53
                                            }
                                        ],
                                        "depth": 2,
                                        "id": 52,
                                        "order": 52
                                    },
                                    {
                                        "children": [],
                                        "depth": 2,
                                        "id": 55,
                                        "order": 55
                                    },
                                    {
                                        "children": [
                                            {
                                                "children": [],
                                                "depth": 3,
                                                "id": 57,
                                                "order": 57
                                            }
                                        ],
                                        "depth": 2,
                                        "id": 56,
                                        "order": 56
                                    },
                                    {
                                        "children": [
                                            {
                                                "children": [],
                                                "depth": 3,
                                                "id": 59,
                                                "order": 59
                                            }
                                        ],
                                        "depth": 2,
                                        "id": 58,
                                        "order": 58
                                    },
                                    {
                                        "children": [],
                                        "depth": 2,
                                        "id": 60,
                                        "order": 60
                                    },
                                    {
                                        "children": [],
                                        "depth": 2,
                                        "id": 61,
                                        "order": 61
                                    }
                                ],
                                "depth": 1,
                                "id": 30,
                                "order": 30
                            },
                            {
                                "children": [
                                    {
                                        "children": [],
                                        "depth": 2,
                                        "id": 63,
                                        "order": 63
                                    }
                                ],
                                "depth": 1,
                                "id": 62,
                                "order": 62
                            }
                        ],
                        "depth": 0,
                        "id": 0,
                        "order": 0
                    }
                ],
                "depth": -1,
                "id": -1,
                "order": -1
            }
        ],
        "mainTraceNodeCount": 64,
        "parentIdMap": {
            "0": -1,
            "1": 0,
            "10": 0,
            "11": 10,
            "12": 11,
            "13": 11,
            "14": 0,
            "15": 14,
            "16": 15,
            "17": 14,
            "18": 17,
            "19": 14,
            "2": 1,
            "20": 0,
            "21": 20,
            "22": 0,
            "23": 22,
            "24": 23,
            "25": 0,
            "26": 25,
            "27": 26,
            "28": 0,
            "29": 0,
            "3": 2,
            "30": 0,
            "31": 30,
            "32": 31,
            "33": 30,
            "34": 33,
            "35": 34,
            "36": 30,
            "37": 36,
            "38": 30,
            "39": 38,
            "4": 0,
            "40": 30,
            "41": 40,
            "42": 30,
            "43": 42,
            "44": 30,
            "45": 44,
            "46": 30,
            "47": 46,
            "48": 47,
            "49": 30,
            "5": 4,
            "50": 49,
            "51": 30,
            "52": 30,
            "53": 52,
            "54": 53,
            "55": 30,
            "56": 30,
            "57": 56,
            "58": 30,
            "59": 58,
            "6": 5,
            "60": 30,
            "61": 30,
            "62": 0,
            "63": 62,
            "7": 5,
            "8": 0,
            "9": 8
        },
        "tidyTrace": [
            {
                "children": [
                    {
                        "children": [
                            {
                                "children": [
                                    {
                                        "children": [
                                            {
                                                "children": [],
                                                "depth": 3,
                                                "id": 3,
                                                "order": 3
                                            }
                                        ],
                                        "depth": 2,
                                        "id": 2,
                                        "order": 2
                                    }
                                ],
                                "depth": 1,
                                "id": 1,
                                "order": 1
                            },
                            {
                                "children": [
                                    {
                                        "children": [
                                            {
                                                "children": [],
                                                "depth": 3,
                                                "id": 6,
                                                "order": 6
                                            },
                                            {
                                                "children": [],
                                                "depth": 3,
                                                "id": 7,
                                                "order": 7
                                            }
                                        ],
                                        "depth": 2,
                                        "id": 5,
                                        "order": 5
                                    }
                                ],
                                "depth": 1,
                                "id": 4,
                                "order": 4
                            },
                            {
                                "children": [
                                    {
                                        "children": [
                                            {
                                                "children": [],
                                                "depth": 3,
                                                "id": 12,
                                                "order": 12
                                            },
                                            {
                                                "children": [],
                                                "depth": 3,
                                                "id": 13,
                                                "order": 13
                                            }
                                        ],
                                        "depth": 2,
                                        "id": 11,
                                        "order": 11
                                    }
                                ],
                                "depth": 1,
                                "id": 10,
                                "order": 10
                            },
                            {
                                "children": [
                                    {
                                        "children": [],
                                        "depth": 2,
                                        "id": 19,
                                        "order": 19
                                    }
                                ],
                                "depth": 1,
                                "id": 14,
                                "order": 14
                            },
                            {
                                "children": [
                                    {
                                        "children": [
                                            {
                                                "children": [],
                                                "depth": 3,
                                                "id": 27,
                                                "order": 27
                                            }
                                        ],
                                        "depth": 2,
                                        "id": 26,
                                        "order": 26
                                    }
                                ],
                                "depth": 1,
                                "id": 25,
                                "order": 25
                            },
                            {
                                "children": [],
                                "depth": 1,
                                "id": 28,
                                "order": 28
                            },
                            {
                                "children": [],
                                "depth": 1,
                                "id": 29,
                                "order": 29
                            },
                            {
                                "children": [
                                    {
                                        "children": [
                                            {
                                                "children": [
                                                    {
                                                        "children": [],
                                                        "depth": 4,
                                                        "id": 35,
                                                        "order": 35
                                                    }
                                                ],
                                                "depth": 3,
                                                "id": 34,
                                                "order": 34
                                            }
                                        ],
                                        "depth": 2,
                                        "id": 33,
                                        "order": 33
                                    },
                                    {
                                        "children": [
                                            {
                                                "children": [
                                                    {
                                                        "children": [],
                                                        "depth": 4,
                                                        "id": 48,
                                                        "order": 48
                                                    }
                                                ],
                                                "depth": 3,
                                                "id": 47,
                                                "order": 47
                                            }
                                        ],
                                        "depth": 2,
                                        "id": 46,
                                        "order": 46
                                    },
                                    {
                                        "children": [],
                                        "depth": 2,
                                        "id": 51,
                                        "order": 51
                                    },
                                    {
                                        "children": [
                                            {
                                                "children": [
                                                    {
                                                        "children": [],
                                                        "depth": 4,
                                                        "id": 54,
                                                        "order": 54
                                                    }
                                                ],
                                                "depth": 3,
                                                "id": 53,
                                                "order": 53
                                            }
                                        ],
                                        "depth": 2,
                                        "id": 52,
                                        "order": 52
                                    },
                                    {
                                        "children": [],
                                        "depth": 2,
                                        "id": 55,
                                        "order": 55
                                    },
                                    {
                                        "children": [],
                                        "depth": 2,
                                        "id": 60,
                                        "order": 60
                                    },
                                    {
                                        "children": [],
                                        "depth": 2,
                                        "id": 61,
                                        "order": 61
                                    }
                                ],
                                "depth": 1,
                                "id": 30,
                                "order": 30
                            }
                        ],
                        "depth": 0,
                        "id": 0,
                        "order": 0
                    }
                ],
                "depth": -1,
                "id": -1,
                "order": -1
            }
        ],
        "tidyTraceNodeCount": 33
    },
    "state_change": {
        "stateChanges": [
            {
                "address": "0x7dc406b9b904a52d10e19e848521bba2de74888b",
                "erc": "",
                "slots": [
                    {
                        "current": "0x00000000000000000000000000000000000000000003ce4c7d93ee2e6e4eaff2",
                        "key": "0x0000000000000000000000000000000000000000000000000000000000000008",
                        "prev": "0x00000000000000000000000000000000000000000003ceb04c74d8f80da5b0f0"
                    },
                    {
                        "current": "0x00000000000000000000000000000000000000000000000007d5153aac4f0f5c",
                        "key": "0xa66cc928b5edb82af9bd49922954155ab7b0942694bea4ce44661d9a8736c768",
                        "prev": "0x0000000000000000000000000000000000000000000000000000000000000000"
                    },
                    {
                        "current": "0x0000000000000000000000000000000000000006699c1e189c31a43d3fee3472",
                        "key": "0x000000000000000000000000000000000000000000000000000000000000000b",
                        "prev": "0x000000000000000000000000000000000000000636768bc58682f7fdeb1a4c62"
                    },
                    {
                        "current": "0x00000000000000000000000000000000000000000000000007d5153aac4f0f5c",
                        "key": "0x000000000000000000000000000000000000000000000000000000000000000c",
                        "prev": "0x000000000000000000000000000000000000000000000000079769fdee340d29"
                    },
                    {
                        "current": "0x000000000000000000000000000000000000000000000000000000000000004b",
                        "key": "0x0000000000000000000000000000000000000000000000000000000000000007",
                        "prev": "0x000000000000000000000000000000000000000000000000000000000000004a"
                    },
                    {
                        "current": "0x000000000000000000000000000000000000000000000000000000006455426d",
                        "key": "0xa66cc928b5edb82af9bd49922954155ab7b0942694bea4ce44661d9a8736c766",
                        "prev": "0x0000000000000000000000000000000000000000000000000000000000000000"
                    },
                    {
                        "current": "0x0000000000000000000000000000000000000006699c1e189c31a43d3fee3472",
                        "key": "0xa66cc928b5edb82af9bd49922954155ab7b0942694bea4ce44661d9a8736c767",
                        "prev": "0x0000000000000000000000000000000000000000000000000000000000000000"
                    },
                    {
                        "current": "0x0000000000000000000000000000000000000000000000000000000000000001",
                        "key": "0x0000000000000000000000000000000000000000000000000000000000000009",
                        "prev": "0x0000000000000000000000000000000000000000000000000000049734af3d7d"
                    },
                    {
                        "current": "0x000000000000000000000000000000000000000000000000000000006455426d",
                        "key": "0x000000000000000000000000000000000000000000000000000000000000000a",
                        "prev": "0x00000000000000000000000000000000000000000000000000000000645534fe"
                    },
                    {
                        "current": "0x000000000000000000000000000000000000000000000011fc17ddd6ee5b3761",
                        "key": "0x000000000000000000000000000000000000000000000000000000000000000d",
                        "prev": "0x0000000000000000000000000000000000000000000000036c28abb61a286ab5"
                    }
                ],
                "storageVariables": []
            },
            {
                "address": "0xd2193bffe8f9c5a788dbae189c3c3eff53a32200",
                "erc": "",
                "slots": [
                    {
                        "current": "0x0000000000000000000000000000000000000000000000137000dfb1fd171f6c",
                        "key": "0x0000000000000000000000000000000000000000000000000000000000000000",
                        "prev": "0x000000000000000000000000000000000000000000000001df0c7d0755c85273"
                    }
                ],
                "storageVariables": []
            },
            {
                "address": "0xde1e704dae0b4051e80dabb26ab6ad6c12262da0",
                "erc": "ERC-20",
                "slots": [
                    {
                        "current": "0x00000000000000000000000000000000000000000000000d8ca720295ab4f19b",
                        "key": "0xf9f7b2dfe502b4a3ff832a2566393cf4e62d75babc68a3d26a1b99f90e68bf5e",
                        "prev": "0x000000000000000000000000000000000000000000000001928c22b4ffe7f17d"
                    },
                    {
                        "current": "0x0000000000000000000000000000000000000000000000611412f6cccc0e2e9d",
                        "key": "0xc1364f474de68d743c90de68e5ff13fe9a497db91e0fea768d81bd6633893a75",
                        "prev": "0x0000000000000000000000000000000000000000000000093f4d097787842dbd"
                    },
                    {
                        "current": "0xffffffffffffffffffffffffffffffffffffffffffffffffffffffffffffffff",
                        "key": "0x2d66b124118fdcaf9e1920c089faeec99e889913860b1846d27ba7abef8b2ac9",
                        "prev": "0x0000000000000000000000000000000000000000000000000000000000000000"
                    },
                    {
                        "current": "0xfffffffffffffffffffffffffffffffffffffffffffc314fb38b2707f25a4f10",
                        "key": "0x8fd0f8a81ffe2b3c365c6cfc8b88ad233f5efb1b06f62a702dff5394e9cc1aa0",
                        "prev": "0x0000000000000000000000000000000000000000000000000000000000000000"
                    },
                    {
                        "current": "0x00000000000000000000000000000000000000000003ce4c7d93ee2e6e4eaff2",
                        "key": "0xeed3f96e1bec93153849202f9bf50037773b873dbd67969393de6bb92bda8049",
                        "prev": "0x00000000000000000000000000000000000000000003ceb04c74d8f80da5b0f0"
                    }
                ],
                "storageVariables": [
                    {
                        "name": "_balances",
                        "type": "mapping(address => uint256)",
                        "value": {
                            "pairs": [
                                {
                                    "key": "0x6cb66a0762e7ce3c0abc9d0241bf4cffc67fcda1",
                                    "value": {
                                        "current": "249942777806632317339",
                                        "prev": "29006597460769370493",
                                        "typeTag": 1
                                    }
                                },
                                {
                                    "key": "0x7dc406b9b904a52d10e19e848521bba2de74888b",
                                    "value": {
                                        "current": "4600995955702595868078066",
                                        "prev": "4602837090538811392635120",
                                        "typeTag": 1
                                    }
                                },
                                {
                                    "key": "0xd2193bffe8f9c5a788dbae189c3c3eff53a32200",
                                    "value": {
                                        "current": "1790780664939623100061",
                                        "prev": "170582009069961489853",
                                        "typeTag": 1
                                    }
                                }
                            ],
                            "typeTag": 4
                        }
                    },
                    {
                        "name": "_allowances",
                        "type": "mapping(address => mapping(address => uint256))",
                        "value": {
                            "pairs": [
                                {
                                    "key": "0x7dc406b9b904a52d10e19e848521bba2de74888b",
                                    "value": {
                                        "pairs": [
                                            {
                                                "key": "0xe2ee6252509382a2b6504d5a5f7a1c5018a38168",
                                                "value": {
                                                    "current": "115792089237316195423570985008687907853269984665640559436620493469101737004816",
                                                    "prev": "0",
                                                    "typeTag": 1
                                                }
                                            }
                                        ],
                                        "typeTag": 4
                                    }
                                },
                                {
                                    "key": "0xe2ee6252509382a2b6504d5a5f7a1c5018a38168",
                                    "value": {
                                        "pairs": [
                                            {
                                                "key": "0x7dc406b9b904a52d10e19e848521bba2de74888b",
                                                "value": {
                                                    "current": "115792089237316195423570985008687907853269984665640564039457584007913129639935",
                                                    "prev": "0",
                                                    "typeTag": 1
                                                }
                                            }
                                        ],
                                        "typeTag": 4
                                    }
                                }
                            ],
                            "typeTag": 4
                        }
                    }
                ]
            },
            {
                "address": "0xff970a61a04b1ca14834a43f5de4533ebddb5cc8",
                "erc": "ERC-20",
                "slots": [
                    {
                        "current": "0x0000000000000000000000000000000000000000000000000000000000000001",
                        "key": "0xeed3f96e1bec93153849202f9bf50037773b873dbd67969393de6bb92bda8049",
                        "prev": "0x0000000000000000000000000000000000000000000000000000049734af3d7d"
                    },
                    {
                        "current": "0x0000000000000000000000000000000000000000000000000000049734af3d7c",
                        "key": "0x21605ab8aa1099cb9782df9eb2b5c8ad4ff17bf867521c783045623a5a422832",
                        "prev": "0x0000000000000000000000000000000000000000000000000000000000000000"
                    }
                ],
                "storageVariables": [
                    {
                        "name": "_balances",
                        "type": "mapping(address => uint256)",
                        "value": {
                            "pairs": [
                                {
                                    "key": "0x189cf534de3097c08b6beaf6eb2b9179dab122d1",
                                    "value": {
                                        "current": "5047470472572",
                                        "prev": "0",
                                        "typeTag": 1
                                    }
                                },
                                {
                                    "key": "0x7dc406b9b904a52d10e19e848521bba2de74888b",
                                    "value": {
                                        "current": "1",
                                        "prev": "5047470472573",
                                        "typeTag": 1
                                    }
                                }
                            ],
                            "typeTag": 4
                        }
                    }
                ]
            }
        ]
    }
}