{
    "balance_change": {
        "balanceChanges": [
            {
                "account": "0xdce5d6b41c32f578f875efffc0d422c57a75d7d8",
                "assets": [
                    {
                        "address": "0xeeeeeeeeeeeeeeeeeeeeeeeeeeeeeeeeeeeeeeee",
                        "amount": "7,258.701569350004501158",
                        "iconUrl": "https://assets.blocksec.com/image/1663669189317-3.png",
                        "isERC1155": false,
                        "isERC721": false,
                        "sign": true,
                        "value": "13631914.1335976899345"
                    }
                ]
            },
            {
                "account": "0x30fb95794a2051abe30a67892b3a1fa73947aee5",
                "assets": [
                    {
                        "address": "0x0100546f2cd4c9d97f798ffc9755e47865ff7ee6",
                        "amount": "4,821.550464760440887778",
                        "iconUrl": "",
                        "isERC1155": false,
                        "isERC721": false,
                        "sign": true,
                        "value": "13138455.709423777112"
                    },
                    {
                        "address": "0xc4c319e2d4d66cca4464c0c2b32c9bd23ebe784e",
                        "amount": "18,367.003944524048668893",
                        "iconUrl": "",
                        "isERC1155": false,
                        "isERC721": false,
                        "sign": true,
                        "value": ""
                    }
                ]
            },
            {
                "account": "0x0000000000000000000000000000000000000000",
                "assets": [
                    {
                        "address": "0xc4c319e2d4d66cca4464c0c2b32c9bd23ebe784e",
                        "amount": "18,367.003944524048668893",
                        "iconUrl": "",
                        "isERC1155": false,
                        "isERC721": false,
                        "sign": false,
                        "value": ""
                    }
                ]
            },
            {
                "account": "0xc4c319e2d4d66cca4464c0c2b32c9bd23ebe784e",
                "assets": [
                    {
                        "address": "0xeeeeeeeeeeeeeeeeeeeeeeeeeeeeeeeeeeeeeeee",
                        "amount": "7,258.701569350004501158",
                        "iconUrl": "https://assets.blocksec.com/image/1663669189317-3.png",
                        "isERC1155": false,
                        "isERC721": false,
                        "sign": false,
                        "value": "13631914.1335976899345"
                    },
                    {
                        "address": "0x0100546f2cd4c9d97f798ffc9755e47865ff7ee6",
                        "amount": "4,821.550464760440887778",
                        "iconUrl": "",
                        "isERC1155": false,
                        "isERC721": false,
                        "sign": false,
                        "value": "13138455.709423777112"
                    }
                ]
            }
        ]
    },
    "profile": {
        "basic_info": {
            "baseFee": "17.278369294",
            "blockNumber": 17806772,
            "callData": "0xf34db996000000000000000000000000000000000000000000000878678326eac9000000000000000000000000000000000000000000000000000000000000000003c372",
            "debugEnable": true,
            "errorInfo": "",
            "eventCount": 15,
            "feeRecipient": "0xdafea492d9c6733ae3d56b7ed1adb60692c98bc5",
            "formatValue": "0",
            "gasLimit": 520992,
            "gasPrice": "20.278369294",
            "gasUsed": 407341,
            "intTxnCount": 38,
            "internalRevert": false,
            "internalRevertMessage": "",
            "isContractCreation": false,
            "isFlashloan": true,
            "maxFee": "36.325116353",
            "nonce": 5,
            "overwritedBlockNumber": -1,
            "priorityFee": "3",
            "receiver": "0x30fb95794a2051abe30a67892b3a1fa73947aee5",
            "revertMessage": "",
            "sender": "0xdce5d6b41c32f578f875efffc0d422c57a75d7d8",
            "simulationEnable": true,
            "sourceTxnHash": "0xb676d789bb8b66a08105c844a49c2bcffb400e5c1cfabd4bc30cca4bff3c9801",
            "status": true,
            "timestamp": "2023-07-30T15:34:47Z",
            "transactionFee": "0.008260211226587254",
            "txnHash": "0xb676d789bb8b66a08105c844a49c2bcffb400e5c1cfabd4bc30cca4bff3c9801",
            "txnIndex": 10,
            "type": 2,
            "value": "0"
        },
        "fund_flow": [
            {
                "amount": "40,000",
                "from": "0xba12222222228d8ba445958a75a0704d566bf2c8",
                "id": 1,
                "isERC1155": false,
                "isERC721": false,
                "isReverted": false,
                "order": 1,
                "to": "0x30fb95794a2051abe30a67892b3a1fa73947aee5",
                "token": "0xc02aaa39b223fe8d0a0e5c4f27ead9083c756cc2"
            },
            {
                "amount": "47,258.701569350004501158",
                "from": "0xc02aaa39b223fe8d0a0e5c4f27ead9083c756cc2",
                "id": 2,
                "isERC1155": false,
                "isERC721": false,
                "isReverted": false,
                "order": 2,
                "to": "0x30fb95794a2051abe30a67892b3a1fa73947aee5",
                "token": "0xeeeeeeeeeeeeeeeeeeeeeeeeeeeeeeeeeeeeeeee"
            },
            {
                "amount": "47,258.701569350004501158",
                "from": "0x30fb95794a2051abe30a67892b3a1fa73947aee5",
                "id": 3,
                "isERC1155": false,
                "isERC721": false,
                "isReverted": false,
                "order": 3,
                "to": "0xc02aaa39b223fe8d0a0e5c4f27ead9083c756cc2",
                "token": "0xc02aaa39b223fe8d0a0e5c4f27ead9083c756cc2"
            },
            {
                "amount": "40,000",
                "from": "0x30fb95794a2051abe30a67892b3a1fa73947aee5",
                "id": 4,
                "isERC1155": false,
                "isERC721": false,
                "isReverted": false,
                "order": 4,
                "to": "0xc4c319e2d4d66cca4464c0c2b32c9bd23ebe784e",
                "token": "0xeeeeeeeeeeeeeeeeeeeeeeeeeeeeeeeeeeeeeeee"
            },
            {
                "amount": "54,172.263198716125231364",
                "from": "0x0000000000000000000000000000000000000000",
                "id": 5,
                "isERC1155": false,
                "isERC721": false,
                "isReverted": false,
                "order": 5,
                "to": "0x30fb95794a2051abe30a67892b3a1fa73947aee5",
                "token": "0xc4c319e2d4d66cca4464c0c2b32c9bd23ebe784e"
            },
            {
                "amount": "47,258.701569350004501158",
                "from": "0xc4c319e2d4d66cca4464c0c2b32c9bd23ebe784e",
                "id": 6,
                "isERC1155": false,
                "isERC721": false,
                "isReverted": false,
                "order": 6,
                "to": "0x30fb95794a2051abe30a67892b3a1fa73947aee5",
                "token": "0xeeeeeeeeeeeeeeeeeeeeeeeeeeeeeeeeeeeeeeee"
            },
            {
                "amount": "4,821.550464760440887778",
                "from": "0xc4c319e2d4d66cca4464c0c2b32c9bd23ebe784e",
                "id": 7,
                "isERC1155": false,
                "isERC721": false,
                "isReverted": false,
                "order": 7,
                "to": "0x30fb95794a2051abe30a67892b3a1fa73947aee5",
                "token": "0x0100546f2cd4c9d97f798ffc9755e47865ff7ee6"
            },
            {
                "amount": "35,805.259254192076562471",
                "from": "0x30fb95794a2051abe30a67892b3a1fa73947aee5",
                "id": 8,
                "isERC1155": false,
                "isERC721": false,
                "isReverted": false,
                "order": 8,
                "to": "0x0000000000000000000000000000000000000000",
                "token": "0xc4c319e2d4d66cca4464c0c2b32c9bd23ebe784e"
            },
            {
                "amount": "47,258.701569350004501158",
                "from": "0x30fb95794a2051abe30a67892b3a1fa73947aee5",
                "id": 9,
                "isERC1155": false,
                "isERC721": false,
                "isReverted": false,
                "order": 9,
                "to": "0xc02aaa39b223fe8d0a0e5c4f27ead9083c756cc2",
                "token": "0xeeeeeeeeeeeeeeeeeeeeeeeeeeeeeeeeeeeeeeee"
            },
            {
                "amount": "47,258.701569350004501158",
                "from": "0xc02aaa39b223fe8d0a0e5c4f27ead9083c756cc2",
                "id": 10,
                "isERC1155": false,
                "isERC721": false,
                "isReverted": false,
                "order": 10,
                "to": "0x30fb95794a2051abe30a67892b3a1fa73947aee5",
                "token": "0xc02aaa39b223fe8d0a0e5c4f27ead9083c756cc2"
            },
            {
                "amount": "40,000",
                "from": "0x30fb95794a2051abe30a67892b3a1fa73947aee5",
                "id": 11,
                "isERC1155": false,
                "isERC721": false,
                "isReverted": false,
                "order": 11,
                "to": "0xba12222222228d8ba445958a75a0704d566bf2c8",
                "token": "0xc02aaa39b223fe8d0a0e5c4f27ead9083c756cc2"
            },
            {
                "amount": "7,258.701569350004501158",
                "from": "0x30fb95794a2051abe30a67892b3a1fa73947aee5",
                "id": 12,
                "isERC1155": false,
                "isERC721": false,
                "isReverted": false,
                "order": 12,
                "to": "0xdce5d6b41c32f578f875efffc0d422c57a75d7d8",
                "token": "0xeeeeeeeeeeeeeeeeeeeeeeeeeeeeeeeeeeeeeeee"
            }
        ],
        "token_infos": [
            {
                "address": "0xeeeeeeeeeeeeeeeeeeeeeeeeeeeeeeeeeeeeeeee",
                "decimals": 18
            },
            {
                "address": "0x0100546f2cd4c9d97f798ffc9755e47865ff7ee6",
                "decimals": 18
            },
            {
                "address": "0xc02aaa39b223fe8d0a0e5c4f27ead9083c756cc2",
                "decimals": 18
            },
            {
                "address": "0xc4c319e2d4d66cca4464c0c2b32c9bd23ebe784e",
                "decimals": 18
            }
        ]
    },
    "address_label": {
        "labels": [
            {
                "address": "0x0000000000000000000000000000000000000001",
                "label": "Precompiled"
            },
            {
                "address": "0x0000000000000000000000000000000000000003",
                "label": "Precompiled"
            },
            {
                "address": "0x30fb95794a2051abe30a67892b3a1fa73947aee5",
                "label": "Alchemix/CurveFinance Exploit Contract"
            },
            {
                "address": "0xdce5d6b41c32f578f875efffc0d422c57a75d7d8",
                "label": "Alchemix/CurveFinance Exploiter"
            },
            {
                "address": "0xc4c319e2d4d66cca4464c0c2b32c9bd23ebe784e",
                "label": "Curve.fi Factory Pool: alETH"
            },
            {
                "address": "0xeeeeeeeeeeeeeeeeeeeeeeeeeeeeeeeeeeeeeeee",
                "label": "Ether"
            },
            {
                "address": "0x0100546f2cd4c9d97f798ffc9755e47865ff7ee6",
                "label": "Alchemix: alETH Token"
            },
            {
                "address": "0xc02aaa39b223fe8d0a0e5c4f27ead9083c756cc2",
                "label": "Wrapped Ether (WETH)"
            },
            {
                "address": "0xce88686553686da562ce7cea497ce749da109f9f",
                "label": "ProtocolFeesCollector"
            },
            {
                "address": "0x0000000000000000000000000000000000000002",
                "label": "Precompiled"
            },
            {
                "address": "0x6326debbaa15bcfe603d831e7d75f4fc10d9b43e",
                "label": "Vyper_contract"
            },
            {
                "address": "0xba12222222228d8ba445958a75a0704d566bf2c8",
                "label": "Balancer: Vault"
            },
            {
                "address": "0x0000000000000000000000000000000000000004",
                "label": "Precompiled"
            }
        ]
    },
    "trace": {
        "accountLabels": null,
        "dataMap": {
            "-1": {
                "invocation": {
                    "address": "0xdce5d6b41c32f578f875efffc0d422c57a75d7d8",
                    "callData": "",
                    "decodedMethod": null,
                    "errorInfo": "",
                    "fromAddress": "",
                    "gasUsed": 0,
                    "id": -1,
                    "methodDecoded": false,
                    "operation": "",
                    "output": "",
                    "revert": false,
                    "revertMessage": "",
                    "selector": "",
                    "status": false,
                    "value": ""
                },
                "nodeType": 0
            },
            "0": {
                "invocation": {
                    "address": "0x30fb95794a2051abe30a67892b3a1fa73947aee5",
                    "callData": "0x000000000000000000000000000000000000000000000878678326eac9000000000000000000000000000000000000000000000000000000000000000003c372",
                    "decodedMethod": null,
                    "errorInfo": "",
                    "fromAddress": "0xdce5d6b41c32f578f875efffc0d422c57a75d7d8",
                    "gasUsed": 407341,
                    "id": 0,
                    "methodDecoded": false,
                    "operation": "CALL",
                    "output": "",
                    "revert": false,
                    "revertMessage": "",
                    "selector": "0xf34db996",
                    "status": true,
                    "value": "0"
                },
                "nodeType": 0
            },
            "1": {
                "invocation": {
                    "address": "0xba12222222228d8ba445958a75a0704d566bf2c8",
                    "callData": "0x00000000000000000000000030fb95794a2051abe30a67892b3a1fa73947aee5000000000000000000000000000000000000000000000000000000000000008000000000000000000000000000000000000000000000000000000000000000c000000000000000000000000000000000000000000000000000000000000001000000000000000000000000000000000000000000000000000000000000000001000000000000000000000000c02aaa39b223fe8d0a0e5c4f27ead9083c756cc20000000000000000000000000000000000000000000000000000000000000001000000000000000000000000000000000000000000000878678326eac90000000000000000000000000000000000000000000000000000000000000000000000",
                    "decodedMethod": {
                        "callParams": [
                            {
                                "name": "recipient",
                                "type": "address",
                                "value": "0x30fb95794a2051abe30a67892b3a1fa73947aee5"
                            },
                            {
                                "name": "tokens",
                                "type": "address[]",
                                "value": [
                                    "0xc02aaa39b223fe8d0a0e5c4f27ead9083c756cc2"
                                ]
                            },
                            {
                                "name": "amounts",
                                "type": "uint256[]",
                                "value": [
                                    "40,000,000,000,000,000,000,000"
                                ]
                            },
                            {
                                "name": "userData",
                                "type": "bytes",
                                "value": "0x"
                            }
                        ],
                        "constructorArguments": "",
                        "name": "flashLoan",
                        "returnParams": [],
                        "signature": "flashLoan(address,address[],uint256[],bytes)"
                    },
                    "errorInfo": "",
                    "fromAddress": "0x30fb95794a2051abe30a67892b3a1fa73947aee5",
                    "gasUsed": 450621,
                    "id": 1,
                    "methodDecoded": true,
                    "operation": "CALL",
                    "output": "",
                    "revert": false,
                    "revertMessage": "",
                    "selector": "0x5c38449e",
                    "status": true,
                    "value": "0"
                },
                "nodeType": 0
            },
            "10": {
                "invocation": {
                    "address": "0xc4c319e2d4d66cca4464c0c2b32c9bd23ebe784e",
                    "callData": "0x00000000000000000000000000000000000000000000043c33c193756480000000000000000000000000000000000000000000000000000000000000000000000000000000000000000000000000000000000000000000000000000000000000",
                    "decodedMethod": {
                        "callParams": [
                            {
                                "name": "amounts",
                                "type": "uint256[2]",
                                "value": [
                                    "20,000,000,000,000,000,000,000",
                                    "0"
                                ]
                            },
                            {
                                "name": "min_mint_amount",
                                "type": "uint256",
                                "value": "0"
                            }
                        ],
                        "constructorArguments": "",
                        "name": "add_liquidity",
                        "returnParams": [
                            {
                                "name": "",
                                "type": "uint256",
                                "value": "19,895,211,407,912,664,127,979"
                            }
                        ],
                        "signature": "add_liquidity(uint256[2],uint256)"
                    },
                    "errorInfo": "",
                    "fromAddress": "0x30fb95794a2051abe30a67892b3a1fa73947aee5",
                    "gasUsed": 100540,
                    "id": 10,
                    "methodDecoded": true,
                    "operation": "CALL",
                    "output": "0x0000000000000000000000000000000000000000000004368585b6261d8959eb",
                    "revert": false,
                    "revertMessage": "",
                    "selector": "0x0b4c7e4d",
                    "status": true,
                    "value": "20000"
                },
                "nodeType": 0
            },
            "11": {
                "invocation": {
                    "address": "0x6326debbaa15bcfe603d831e7d75f4fc10d9b43e",
                    "callData": "0x00000000000000000000000000000000000000000000043c33c193756480000000000000000000000000000000000000000000000000000000000000000000000000000000000000000000000000000000000000000000000000000000000000",
                    "decodedMethod": {
                        "callParams": [
                            {
                                "name": "amounts",
                                "type": "uint256[2]",
                                "value": [
                                    "20,000,000,000,000,000,000,000",
                                    "0"
                                ]
                            },
                            {
                                "name": "min_mint_amount",
                                "type": "uint256",
                                "value": "0"
                            }
                        ],
                        "constructorArguments": "",
                        "name": "add_liquidity",
                        "returnParams": [
                            {
                                "name": "",
                                "type": "uint256",
                                "value": "19,895,211,407,912,664,127,979"
                            }
                        ],
                        "signature": "add_liquidity(uint256[2],uint256)"
                    },
                    "errorInfo": "",
                    "fromAddress": "0xc4c319e2d4d66cca4464c0c2b32c9bd23ebe784e",
                    "gasUsed": 97856,
                    "id": 11,
                    "methodDecoded": true,
                    "operation": "DELEGATECALL",
                    "output": "0x0000000000000000000000000000000000000000000004368585b6261d8959eb",
                    "revert": false,
                    "revertMessage": "",
                    "selector": "0x0b4c7e4d",
                    "status": true,
                    "value": "20000"
                },
                "nodeType": 0
            },
            "12": {
                "event": {
                    "contract": "0xc4c319e2d4d66cca4464c0c2b32c9bd23ebe784e",
                    "decodedLog": {
                        "name": "Transfer",
                        "params": [
                            {
                                "name": "from",
                                "type": "address",
                                "value": "0x0000000000000000000000000000000000000000"
                            },
                            {
                                "name": "to",
                                "type": "address",
                                "value": "0x30fb95794a2051abe30a67892b3a1fa73947aee5"
                            },
                            {
                                "decimalAvailable": true,
                                "name": "value",
                                "type": "uint256",
                                "value": "19,895,211,407,912,664,127,979"
                            }
                        ],
                        "signature": "Transfer(address,address,uint256)"
                    },
                    "id": 12,
                    "logData": "0x0000000000000000000000000000000000000000000004368585b6261d8959eb",
                    "logDecoded": true,
                    "operation": "EVENT",
                    "revert": false,
                    "status": true,
                    "topics": [
                        "0xddf252ad1be2c89b69c2b068fc378daa952ba7f163c4a11628f55a4df523b3ef",
                        "0x0000000000000000000000000000000000000000000000000000000000000000",
                        "0x00000000000000000000000030fb95794a2051abe30a67892b3a1fa73947aee5"
                    ]
                },
                "nodeType": 1
            },
            "13": {
                "event": {
                    "contract": "0xc4c319e2d4d66cca4464c0c2b32c9bd23ebe784e",
                    "decodedLog": {
                        "name": "AddLiquidity",
                        "params": [
                            {
                                "name": "provider",
                                "type": "address",
                                "value": "0x30fb95794a2051abe30a67892b3a1fa73947aee5"
                            },
                            {
                                "name": "token_amounts",
                                "type": "uint256[2]",
                                "value": [
                                    "20,000,000,000,000,000,000,000",
                                    "0"
                                ]
                            },
                            {
                                "name": "fees",
                                "type": "uint256[2]",
                                "value": [
                                    "2,183,745,256,388,094,537",
                                    "2,171,116,486,355,739,003"
                                ]
                            },
                            {
                                "name": "invariant",
                                "type": "uint256",
                                "value": "35,875,295,873,455,414,827,618"
                            },
                            {
                                "name": "token_supply",
                                "type": "uint256",
                                "value": "35,805,259,254,192,076,562,472"
                            }
                        ],
                        "signature": "AddLiquidity(address,uint256[2],uint256[2],uint256,uint256)"
                    },
                    "id": 13,
                    "logData": "0x00000000000000000000000000000000000000000000043c33c193756480000000000000000000000000000000000000000000000000000000000000000000000000000000000000000000000000000000000000000000001e4e38bd9ef4ea490000000000000000000000000000000000000000000000001e215af0f73a617b000000000000000000000000000000000000000000000798cdbe6171a323da6200000000000000000000000000000000000000000000079501ca534b36952028",
                    "logDecoded": true,
                    "operation": "EVENT",
                    "revert": false,
                    "status": true,
                    "topics": [
                        "0x26f55a85081d24974e85c6c00045d0f0453991e95873f52bff0d21af4079a768",
                        "0x00000000000000000000000030fb95794a2051abe30a67892b3a1fa73947aee5"
                    ]
                },
                "nodeType": 1
            },
            "14": {
                "invocation": {
                    "address": "0xc4c319e2d4d66cca4464c0c2b32c9bd23ebe784e",
                    "callData": "0x00000000000000000000000030fb95794a2051abe30a67892b3a1fa73947aee5",
                    "decodedMethod": {
                        "callParams": [
                            {
                                "name": "account",
                                "type": "address",
                                "value": "0x30fb95794a2051abe30a67892b3a1fa73947aee5"
                            }
                        ],
                        "constructorArguments": "",
                        "name": "balanceOf",
                        "returnParams": [
                            {
                                "decimalAvailable": true,
                                "name": "",
                                "type": "uint256",
                                "value": "19,895,211,407,912,664,127,979"
                            }
                        ],
                        "signature": "balanceOf(address)"
                    },
                    "errorInfo": "",
                    "fromAddress": "0x30fb95794a2051abe30a67892b3a1fa73947aee5",
                    "gasUsed": 1481,
                    "id": 14,
                    "methodDecoded": true,
                    "operation": "STATICCALL",
                    "output": "0x0000000000000000000000000000000000000000000004368585b6261d8959eb",
                    "revert": false,
                    "revertMessage": "",
                    "selector": "0x70a08231",
                    "status": true,
                    "value": "0"
                },
                "nodeType": 0
            },
            "15": {
                "invocation": {
                    "address": "0x6326debbaa15bcfe603d831e7d75f4fc10d9b43e",
                    "callData": "0x00000000000000000000000030fb95794a2051abe30a67892b3a1fa73947aee5",
                    "decodedMethod": {
                        "callParams": [
                            {
                                "name": "account",
                                "type": "address",
                                "value": "0x30fb95794a2051abe30a67892b3a1fa73947aee5"
                            }
                        ],
                        "constructorArguments": "",
                        "name": "balanceOf",
                        "returnParams": [
                            {
                                "decimalAvailable": true,
                                "name": "",
                                "type": "uint256",
                                "value": "19,895,211,407,912,664,127,979"
                            }
                        ],
                        "signature": "balanceOf(address)"
                    },
                    "errorInfo": "",
                    "fromAddress": "0xc4c319e2d4d66cca4464c0c2b32c9bd23ebe784e",
                    "gasUsed": 1309,
                    "id": 15,
                    "methodDecoded": true,
                    "operation": "DELEGATECALL",
                    "output": "0x0000000000000000000000000000000000000000000004368585b6261d8959eb",
                    "revert": false,
                    "revertMessage": "",
                    "selector": "0x70a08231",
                    "status": true,
                    "value": "0"
                },
                "nodeType": 0
            },
            "16": {
                "invocation": {
                    "address": "0xc4c319e2d4d66cca4464c0c2b32c9bd23ebe784e",
                    "callData": "0x0000000000000000000000000000000000000000000004368585b6261d8959eb00000000000000000000000000000000000000000000000000000000000000000000000000000000000000000000000000000000000000000000000000000000",
                    "decodedMethod": {
                        "callParams": [
                            {
                                "name": "_amount",
                                "type": "uint256",
                                "value": "19,895,211,407,912,664,127,979"
                            },
                            {
                                "name": "min_amounts",
                                "type": "uint256[2]",
                                "value": [
                                    "0",
                                    "0"
                                ]
                            }
                        ],
                        "constructorArguments": "",
                        "name": "remove_liquidity",
                        "returnParams": [
                            {
                                "name": "",
                                "type": "uint256[2]",
                                "value": [
                                    "15,146,778,942,835,201,169,818",
                                    "4,821,550,464,760,440,887,778"
                                ]
                            }
                        ],
                        "signature": "remove_liquidity(uint256,uint256[2])"
                    },
                    "errorInfo": "",
                    "fromAddress": "0x30fb95794a2051abe30a67892b3a1fa73947aee5",
                    "gasUsed": 155294,
                    "id": 16,
                    "methodDecoded": true,
                    "operation": "CALL",
                    "output": "0x0000000000000000000000000000000000000000000003351bc8bd6f32e8599a00000000000000000000000000000000000000000000010560744a07c9a719e2",
                    "revert": false,
                    "revertMessage": "",
                    "selector": "0x5b36389c",
                    "status": true,
                    "value": "0"
                },
                "nodeType": 0
            },
            "17": {
                "invocation": {
                    "address": "0x6326debbaa15bcfe603d831e7d75f4fc10d9b43e",
                    "callData": "0x0000000000000000000000000000000000000000000004368585b6261d8959eb00000000000000000000000000000000000000000000000000000000000000000000000000000000000000000000000000000000000000000000000000000000",
                    "decodedMethod": {
                        "callParams": [
                            {
                                "name": "_amount",
                                "type": "uint256",
                                "value": "19,895,211,407,912,664,127,979"
                            },
                            {
                                "name": "min_amounts",
                                "type": "uint256[2]",
                                "value": [
                                    "0",
                                    "0"
                                ]
                            }
                        ],
                        "constructorArguments": "",
                        "name": "remove_liquidity",
                        "returnParams": [
                            {
                                "name": "",
                                "type": "uint256[2]",
                                "value": [
                                    "15,146,778,942,835,201,169,818",
                                    "4,821,550,464,760,440,887,778"
                                ]
                            }
                        ],
                        "signature": "remove_liquidity(uint256,uint256[2])"
                    },
                    "errorInfo": "",
                    "fromAddress": "0xc4c319e2d4d66cca4464c0c2b32c9bd23ebe784e",
                    "gasUsed": 155107,
                    "id": 17,
                    "methodDecoded": true,
                    "operation": "DELEGATECALL",
                    "output": "0x0000000000000000000000000000000000000000000003351bc8bd6f32e8599a00000000000000000000000000000000000000000000010560744a07c9a719e2",
                    "revert": false,
                    "revertMessage": "",
                    "selector": "0x5b36389c",
                    "status": true,
                    "value": "0"
                },
                "nodeType": 0
            },
            "18": {
                "invocation": {
                    "address": "0x0000000000000000000000000000000000000004",
                    "callData": "0x00000000000000000000000000000000000000000000000000000000",
                    "decodedMethod": {
                        "callParams": [
                            {
                                "name": "data",
                                "type": "bytes",
                                "value": "0x0000000000000000000000000000000000000000000000000000000000000000"
                            }
                        ],
                        "constructorArguments": "",
                        "name": "dataCopy()",
                        "returnParams": [
                            {
                                "name": "data",
                                "type": "bytes",
                                "value": "0x0000000000000000000000000000000000000000000000000000000000000000"
                            }
                        ],
                        "signature": "dataCopy(bytes)"
                    },
                    "errorInfo": "",
                    "fromAddress": "0xc4c319e2d4d66cca4464c0c2b32c9bd23ebe784e",
                    "gasUsed": 18,
                    "id": 18,
                    "methodDecoded": true,
                    "operation": "CALL",
                    "output": "0x0000000000000000000000000000000000000000000000000000000000000000",
                    "revert": false,
                    "revertMessage": "",
                    "selector": "0x00000000",
                    "status": true,
                    "value": "0"
                },
                "nodeType": 0
            },
            "19": {
                "invocation": {
                    "address": "0x30fb95794a2051abe30a67892b3a1fa73947aee5",
                    "callData": "0x",
                    "decodedMethod": null,
                    "errorInfo": "",
                    "fromAddress": "0xc4c319e2d4d66cca4464c0c2b32c9bd23ebe784e",
                    "gasUsed": 83169,
                    "id": 19,
                    "methodDecoded": false,
                    "operation": "CALL",
                    "output": "",
                    "revert": false,
                    "revertMessage": "",
                    "selector": "fallback",
                    "status": true,
                    "value": "15146.778942835201169818"
                },
                "nodeType": 0
            },
            "2": {
                "invocation": {
                    "address": "0xc02aaa39b223fe8d0a0e5c4f27ead9083c756cc2",
                    "callData": "0x000000000000000000000000ba12222222228d8ba445958a75a0704d566bf2c8",
                    "decodedMethod": {
                        "callParams": [
                            {
                                "name": "",
                                "type": "address",
                                "value": "0xba12222222228d8ba445958a75a0704d566bf2c8"
                            }
                        ],
                        "constructorArguments": "",
                        "name": "balanceOf",
                        "returnParams": [
                            {
                                "decimalAvailable": true,
                                "name": "",
                                "type": "uint256",
                                "value": "86,593,792,868,120,445,605,945"
                            }
                        ],
                        "signature": "balanceOf(address)"
                    },
                    "errorInfo": "",
                    "fromAddress": "0xba12222222228d8ba445958a75a0704d566bf2c8",
                    "gasUsed": 2534,
                    "id": 2,
                    "methodDecoded": true,
                    "operation": "STATICCALL",
                    "output": "0x00000000000000000000000000000000000000000000125642486bfa59485839",
                    "revert": false,
                    "revertMessage": "",
                    "selector": "0x70a08231",
                    "status": true,
                    "value": "0"
                },
                "nodeType": 0
            },
            "20": {
                "invocation": {
                    "address": "0xc4c319e2d4d66cca4464c0c2b32c9bd23ebe784e",
                    "callData": "0x00000000000000000000000000000000000000000000043c33c193756480000000000000000000000000000000000000000000000000000000000000000000000000000000000000000000000000000000000000000000000000000000000000",
                    "decodedMethod": {
                        "callParams": [
                            {
                                "name": "amounts",
                                "type": "uint256[2]",
                                "value": [
                                    "20,000,000,000,000,000,000,000",
                                    "0"
                                ]
                            },
                            {
                                "name": "min_mint_amount",
                                "type": "uint256",
                                "value": "0"
                            }
                        ],
                        "constructorArguments": "",
                        "name": "add_liquidity",
                        "returnParams": [
                            {
                                "name": "",
                                "type": "uint256",
                                "value": "34,277,051,790,803,461,103,385"
                            }
                        ],
                        "signature": "add_liquidity(uint256[2],uint256)"
                    },
                    "errorInfo": "",
                    "fromAddress": "0x30fb95794a2051abe30a67892b3a1fa73947aee5",
                    "gasUsed": 50820,
                    "id": 20,
                    "methodDecoded": true,
                    "operation": "CALL",
                    "output": "0x00000000000000000000000000000000000000000000074229a6c421cb625f19",
                    "revert": false,
                    "revertMessage": "",
                    "selector": "0x0b4c7e4d",
                    "status": true,
                    "value": "20000"
                },
                "nodeType": 0
            },
            "21": {
                "invocation": {
                    "address": "0x6326debbaa15bcfe603d831e7d75f4fc10d9b43e",
                    "callData": "0x00000000000000000000000000000000000000000000043c33c193756480000000000000000000000000000000000000000000000000000000000000000000000000000000000000000000000000000000000000000000000000000000000000",
                    "decodedMethod": {
                        "callParams": [
                            {
                                "name": "amounts",
                                "type": "uint256[2]",
                                "value": [
                                    "20,000,000,000,000,000,000,000",
                                    "0"
                                ]
                            },
                            {
                                "name": "min_mint_amount",
                                "type": "uint256",
                                "value": "0"
                            }
                        ],
                        "constructorArguments": "",
                        "name": "add_liquidity",
                        "returnParams": [
                            {
                                "name": "",
                                "type": "uint256",
                                "value": "34,277,051,790,803,461,103,385"
                            }
                        ],
                        "signature": "add_liquidity(uint256[2],uint256)"
                    },
                    "errorInfo": "",
                    "fromAddress": "0xc4c319e2d4d66cca4464c0c2b32c9bd23ebe784e",
                    "gasUsed": 50636,
                    "id": 21,
                    "methodDecoded": true,
                    "operation": "DELEGATECALL",
                    "output": "0x00000000000000000000000000000000000000000000074229a6c421cb625f19",
                    "revert": false,
                    "revertMessage": "",
                    "selector": "0x0b4c7e4d",
                    "status": true,
                    "value": "20000"
                },
                "nodeType": 0
            },
            "22": {
                "event": {
                    "contract": "0xc4c319e2d4d66cca4464c0c2b32c9bd23ebe784e",
                    "decodedLog": {
                        "name": "Transfer",
                        "params": [
                            {
                                "name": "from",
                                "type": "address",
                                "value": "0x0000000000000000000000000000000000000000"
                            },
                            {
                                "name": "to",
                                "type": "address",
                                "value": "0x30fb95794a2051abe30a67892b3a1fa73947aee5"
                            },
                            {
                                "decimalAvailable": true,
                                "name": "value",
                                "type": "uint256",
                                "value": "34,277,051,790,803,461,103,385"
                            }
                        ],
                        "signature": "Transfer(address,address,uint256)"
                    },
                    "id": 22,
                    "logData": "0x00000000000000000000000000000000000000000000074229a6c421cb625f19",
                    "logDecoded": true,
                    "operation": "EVENT",
                    "revert": false,
                    "status": true,
                    "topics": [
                        "0xddf252ad1be2c89b69c2b068fc378daa952ba7f163c4a11628f55a4df523b3ef",
                        "0x0000000000000000000000000000000000000000000000000000000000000000",
                        "0x00000000000000000000000030fb95794a2051abe30a67892b3a1fa73947aee5"
                    ]
                },
                "nodeType": 1
            },
            "23": {
                "event": {
                    "contract": "0xc4c319e2d4d66cca4464c0c2b32c9bd23ebe784e",
                    "decodedLog": {
                        "name": "AddLiquidity",
                        "params": [
                            {
                                "name": "provider",
                                "type": "address",
                                "value": "0x30fb95794a2051abe30a67892b3a1fa73947aee5"
                            },
                            {
                                "name": "token_amounts",
                                "type": "uint256[2]",
                                "value": [
                                    "20,000,000,000,000,000,000,000",
                                    "0"
                                ]
                            },
                            {
                                "name": "fees",
                                "type": "uint256[2]",
                                "value": [
                                    "1,680,453,289,987,786,572",
                                    "1,661,829,537,203,191,451"
                                ]
                            },
                            {
                                "name": "invariant",
                                "type": "uint256",
                                "value": "40,692,132,108,674,663,834,706"
                            },
                            {
                                "name": "token_supply",
                                "type": "uint256",
                                "value": "70,082,311,044,995,537,665,857"
                            }
                        ],
                        "signature": "AddLiquidity(address,uint256[2],uint256[2],uint256,uint256)"
                    },
                    "id": 23,
                    "logData": "0x00000000000000000000000000000000000000000000043c33c1937564800000000000000000000000000000000000000000000000000000000000000000000000000000000000000000000000000000000000000000000017522b5d235bc74c00000000000000000000000000000000000000000000000017100128ca3f7e9b00000000000000000000000000000000000000000000089decc65caf0465e452000000000000000000000000000000000000000000000ed72b71176d01f77f41",
                    "logDecoded": true,
                    "operation": "EVENT",
                    "revert": false,
                    "status": true,
                    "topics": [
                        "0x26f55a85081d24974e85c6c00045d0f0453991e95873f52bff0d21af4079a768",
                        "0x00000000000000000000000030fb95794a2051abe30a67892b3a1fa73947aee5"
                    ]
                },
                "nodeType": 1
            },
            "24": {
                "invocation": {
                    "address": "0xc4c319e2d4d66cca4464c0c2b32c9bd23ebe784e",
                    "callData": "0x00000000000000000000000030fb95794a2051abe30a67892b3a1fa73947aee5",
                    "decodedMethod": {
                        "callParams": [
                            {
                                "name": "account",
                                "type": "address",
                                "value": "0x30fb95794a2051abe30a67892b3a1fa73947aee5"
                            }
                        ],
                        "constructorArguments": "",
                        "name": "balanceOf",
                        "returnParams": [
                            {
                                "decimalAvailable": true,
                                "name": "",
                                "type": "uint256",
                                "value": "54,172,263,198,716,125,231,364"
                            }
                        ],
                        "signature": "balanceOf(address)"
                    },
                    "errorInfo": "",
                    "fromAddress": "0x30fb95794a2051abe30a67892b3a1fa73947aee5",
                    "gasUsed": 1481,
                    "id": 24,
                    "methodDecoded": true,
                    "operation": "STATICCALL",
                    "output": "0x000000000000000000000000000000000000000000000b78af2c7a47e8ebb904",
                    "revert": false,
                    "revertMessage": "",
                    "selector": "0x70a08231",
                    "status": true,
                    "value": "0"
                },
                "nodeType": 0
            },
            "25": {
                "invocation": {
                    "address": "0x6326debbaa15bcfe603d831e7d75f4fc10d9b43e",
                    "callData": "0x00000000000000000000000030fb95794a2051abe30a67892b3a1fa73947aee5",
                    "decodedMethod": {
                        "callParams": [
                            {
                                "name": "account",
                                "type": "address",
                                "value": "0x30fb95794a2051abe30a67892b3a1fa73947aee5"
                            }
                        ],
                        "constructorArguments": "",
                        "name": "balanceOf",
                        "returnParams": [
                            {
                                "decimalAvailable": true,
                                "name": "",
                                "type": "uint256",
                                "value": "54,172,263,198,716,125,231,364"
                            }
                        ],
                        "signature": "balanceOf(address)"
                    },
                    "errorInfo": "",
                    "fromAddress": "0xc4c319e2d4d66cca4464c0c2b32c9bd23ebe784e",
                    "gasUsed": 1309,
                    "id": 25,
                    "methodDecoded": true,
                    "operation": "DELEGATECALL",
                    "output": "0x000000000000000000000000000000000000000000000b78af2c7a47e8ebb904",
                    "revert": false,
                    "revertMessage": "",
                    "selector": "0x70a08231",
                    "status": true,
                    "value": "0"
                },
                "nodeType": 0
            },
            "26": {
                "invocation": {
                    "address": "0x0000000000000000000000000000000000000004",
                    "callData": "0x",
                    "decodedMethod": {
                        "callParams": [
                            {
                                "name": "data",
                                "type": "bytes",
                                "value": "0xa9059cbb"
                            }
                        ],
                        "constructorArguments": "",
                        "name": "dataCopy()",
                        "returnParams": [
                            {
                                "name": "data",
                                "type": "bytes",
                                "value": "0xa9059cbb"
                            }
                        ],
                        "signature": "dataCopy(bytes)"
                    },
                    "errorInfo": "",
                    "fromAddress": "0xc4c319e2d4d66cca4464c0c2b32c9bd23ebe784e",
                    "gasUsed": 18,
                    "id": 26,
                    "methodDecoded": true,
                    "operation": "CALL",
                    "output": "0xa9059cbb",
                    "revert": false,
                    "revertMessage": "",
                    "selector": "0xa9059cbb",
                    "status": true,
                    "value": "0"
                },
                "nodeType": 0
            },
            "27": {
                "invocation": {
                    "address": "0x0000000000000000000000000000000000000004",
                    "callData": "0x00000000000000000000000000000000000000000000000000000044a9059cbb00000000000000000000000030fb95794a2051abe30a67892b3a1fa73947aee500000000000000000000000000000000000000000000010560744a07c9a719e2",
                    "decodedMethod": {
                        "callParams": [
                            {
                                "name": "data",
                                "type": "bytes",
                                "value": "0x0000000000000000000000000000000000000000000000000000000000000044a9059cbb00000000000000000000000030fb95794a2051abe30a67892b3a1fa73947aee500000000000000000000000000000000000000000000010560744a07c9a719e2"
                            }
                        ],
                        "constructorArguments": "",
                        "name": "dataCopy()",
                        "returnParams": [
                            {
                                "name": "data",
                                "type": "bytes",
                                "value": "0x0000000000000000000000000000000000000000000000000000000000000044a9059cbb00000000000000000000000030fb95794a2051abe30a67892b3a1fa73947aee500000000000000000000000000000000000000000000010560744a07c9a719e2"
                            }
                        ],
                        "signature": "dataCopy(bytes)"
                    },
                    "errorInfo": "",
                    "fromAddress": "0xc4c319e2d4d66cca4464c0c2b32c9bd23ebe784e",
                    "gasUsed": 27,
                    "id": 27,
                    "methodDecoded": true,
                    "operation": "CALL",
                    "output": "0x0000000000000000000000000000000000000000000000000000000000000044a9059cbb00000000000000000000000030fb95794a2051abe30a67892b3a1fa73947aee500000000000000000000000000000000000000000000010560744a07c9a719e2",
                    "revert": false,
                    "revertMessage": "",
                    "selector": "0x00000000",
                    "status": true,
                    "value": "0"
                },
                "nodeType": 0
            },
            "28": {
                "invocation": {
                    "address": "0x0100546f2cd4c9d97f798ffc9755e47865ff7ee6",
                    "callData": "0x00000000000000000000000030fb95794a2051abe30a67892b3a1fa73947aee500000000000000000000000000000000000000000000010560744a07c9a719e2",
                    "decodedMethod": {
                        "callParams": [
                            {
                                "name": "recipient",
                                "type": "address",
                                "value": "0x30fb95794a2051abe30a67892b3a1fa73947aee5"
                            },
                            {
                                "decimalAvailable": true,
                                "name": "amount",
                                "type": "uint256",
                                "value": "4,821,550,464,760,440,887,778"
                            }
                        ],
                        "constructorArguments": "",
                        "name": "transfer",
                        "returnParams": [
                            {
                                "name": "",
                                "type": "bool",
                                "value": true
                            }
                        ],
                        "signature": "transfer(address,uint256)"
                    },
                    "errorInfo": "",
                    "fromAddress": "0xc4c319e2d4d66cca4464c0c2b32c9bd23ebe784e",
                    "gasUsed": 30157,
                    "id": 28,
                    "methodDecoded": true,
                    "operation": "CALL",
                    "output": "0x0000000000000000000000000000000000000000000000000000000000000001",
                    "revert": false,
                    "revertMessage": "",
                    "selector": "0xa9059cbb",
                    "status": true,
                    "value": "0"
                },
                "nodeType": 0
            },
            "29": {
                "event": {
                    "contract": "0x0100546f2cd4c9d97f798ffc9755e47865ff7ee6",
                    "decodedLog": {
                        "name": "Transfer",
                        "params": [
                            {
                                "name": "from",
                                "type": "address",
                                "value": "0xc4c319e2d4d66cca4464c0c2b32c9bd23ebe784e"
                            },
                            {
                                "name": "to",
                                "type": "address",
                                "value": "0x30fb95794a2051abe30a67892b3a1fa73947aee5"
                            },
                            {
                                "decimalAvailable": true,
                                "name": "value",
                                "type": "uint256",
                                "value": "4,821,550,464,760,440,887,778"
                            }
                        ],
                        "signature": "Transfer(address,address,uint256)"
                    },
                    "id": 29,
                    "logData": "0x00000000000000000000000000000000000000000000010560744a07c9a719e2",
                    "logDecoded": true,
                    "operation": "EVENT",
                    "revert": false,
                    "status": true,
                    "topics": [
                        "0xddf252ad1be2c89b69c2b068fc378daa952ba7f163c4a11628f55a4df523b3ef",
                        "0x000000000000000000000000c4c319e2d4d66cca4464c0c2b32c9bd23ebe784e",
                        "0x00000000000000000000000030fb95794a2051abe30a67892b3a1fa73947aee5"
                    ]
                },
                "nodeType": 1
            },
            "3": {
                "invocation": {
                    "address": "0xce88686553686da562ce7cea497ce749da109f9f",
                    "callData": "0x",
                    "decodedMethod": {
                        "callParams": [],
                        "constructorArguments": "",
                        "name": "getFlashLoanFeePercentage",
                        "returnParams": [
                            {
                                "name": "",
                                "type": "uint256",
                                "value": "0"
                            }
                        ],
                        "signature": "getFlashLoanFeePercentage()"
                    },
                    "errorInfo": "",
                    "fromAddress": "0xba12222222228d8ba445958a75a0704d566bf2c8",
                    "gasUsed": 2350,
                    "id": 3,
                    "methodDecoded": true,
                    "operation": "STATICCALL",
                    "output": "0x0000000000000000000000000000000000000000000000000000000000000000",
                    "revert": false,
                    "revertMessage": "",
                    "selector": "0xd877845c",
                    "status": true,
                    "value": "0"
                },
                "nodeType": 0
            },
            "30": {
                "invocation": {
                    "address": "0x0000000000000000000000000000000000000004",
                    "callData": "0x000000000000000000000000000000000000000000000000000000200000000000000000000000000000000000000000000000000000000000000001",
                    "decodedMethod": {
                        "callParams": [
                            {
                                "name": "data",
                                "type": "bytes",
                                "value": "0x00000000000000000000000000000000000000000000000000000000000000200000000000000000000000000000000000000000000000000000000000000001"
                            }
                        ],
                        "constructorArguments": "",
                        "name": "dataCopy()",
                        "returnParams": [
                            {
                                "name": "data",
                                "type": "bytes",
                                "value": "0x00000000000000000000000000000000000000000000000000000000000000200000000000000000000000000000000000000000000000000000000000000001"
                            }
                        ],
                        "signature": "dataCopy(bytes)"
                    },
                    "errorInfo": "",
                    "fromAddress": "0xc4c319e2d4d66cca4464c0c2b32c9bd23ebe784e",
                    "gasUsed": 21,
                    "id": 30,
                    "methodDecoded": true,
                    "operation": "CALL",
                    "output": "0x00000000000000000000000000000000000000000000000000000000000000200000000000000000000000000000000000000000000000000000000000000001",
                    "revert": false,
                    "revertMessage": "",
                    "selector": "0x00000000",
                    "status": true,
                    "value": "0"
                },
                "nodeType": 0
            },
            "31": {
                "event": {
                    "contract": "0xc4c319e2d4d66cca4464c0c2b32c9bd23ebe784e",
                    "decodedLog": {
                        "name": "Transfer",
                        "params": [
                            {
                                "name": "from",
                                "type": "address",
                                "value": "0x30fb95794a2051abe30a67892b3a1fa73947aee5"
                            },
                            {
                                "name": "to",
                                "type": "address",
                                "value": "0x0000000000000000000000000000000000000000"
                            },
                            {
                                "decimalAvailable": true,
                                "name": "value",
                                "type": "uint256",
                                "value": "19,895,211,407,912,664,127,979"
                            }
                        ],
                        "signature": "Transfer(address,address,uint256)"
                    },
                    "id": 31,
                    "logData": "0x0000000000000000000000000000000000000000000004368585b6261d8959eb",
                    "logDecoded": true,
                    "operation": "EVENT",
                    "revert": false,
                    "status": true,
                    "topics": [
                        "0xddf252ad1be2c89b69c2b068fc378daa952ba7f163c4a11628f55a4df523b3ef",
                        "0x00000000000000000000000030fb95794a2051abe30a67892b3a1fa73947aee5",
                        "0x0000000000000000000000000000000000000000000000000000000000000000"
                    ]
                },
                "nodeType": 1
            },
            "32": {
                "event": {
                    "contract": "0xc4c319e2d4d66cca4464c0c2b32c9bd23ebe784e",
                    "decodedLog": {
                        "name": "RemoveLiquidity",
                        "params": [
                            {
                                "name": "provider",
                                "type": "address",
                                "value": "0x30fb95794a2051abe30a67892b3a1fa73947aee5"
                            },
                            {
                                "name": "token_amounts",
                                "type": "uint256[2]",
                                "value": [
                                    "15,146,778,942,835,201,169,818",
                                    "4,821,550,464,760,440,887,778"
                                ]
                            },
                            {
                                "name": "fees",
                                "type": "uint256[2]",
                                "value": [
                                    "0",
                                    "0"
                                ]
                            },
                            {
                                "name": "token_supply",
                                "type": "uint256",
                                "value": "15,910,047,846,279,412,434,493"
                            }
                        ],
                        "signature": "RemoveLiquidity(address,uint256[2],uint256[2],uint256)"
                    },
                    "id": 32,
                    "logData": "0x0000000000000000000000000000000000000000000003351bc8bd6f32e8599a00000000000000000000000000000000000000000000010560744a07c9a719e20000000000000000000000000000000000000000000000000000000000000000000000000000000000000000000000000000000000000000000000000000000000000000000000000000000000000000000000000000035e7c449d25190bc63d",
                    "logDecoded": true,
                    "operation": "EVENT",
                    "revert": false,
                    "status": true,
                    "topics": [
                        "0x7c363854ccf79623411f8995b362bce5eddff18c927edc6f5dbbb5e05819a82c",
                        "0x00000000000000000000000030fb95794a2051abe30a67892b3a1fa73947aee5"
                    ]
                },
                "nodeType": 1
            },
            "33": {
                "invocation": {
                    "address": "0xc4c319e2d4d66cca4464c0c2b32c9bd23ebe784e",
                    "callData": "0x00000000000000000000000030fb95794a2051abe30a67892b3a1fa73947aee5",
                    "decodedMethod": {
                        "callParams": [
                            {
                                "name": "account",
                                "type": "address",
                                "value": "0x30fb95794a2051abe30a67892b3a1fa73947aee5"
                            }
                        ],
                        "constructorArguments": "",
                        "name": "balanceOf",
                        "returnParams": [
                            {
                                "decimalAvailable": true,
                                "name": "",
                                "type": "uint256",
                                "value": "34,277,051,790,803,461,103,385"
                            }
                        ],
                        "signature": "balanceOf(address)"
                    },
                    "errorInfo": "",
                    "fromAddress": "0x30fb95794a2051abe30a67892b3a1fa73947aee5",
                    "gasUsed": 1481,
                    "id": 33,
                    "methodDecoded": true,
                    "operation": "STATICCALL",
                    "output": "0x00000000000000000000000000000000000000000000074229a6c421cb625f19",
                    "revert": false,
                    "revertMessage": "",
                    "selector": "0x70a08231",
                    "status": true,
                    "value": "0"
                },
                "nodeType": 0
            },
            "34": {
                "invocation": {
                    "address": "0x6326debbaa15bcfe603d831e7d75f4fc10d9b43e",
                    "callData": "0x00000000000000000000000030fb95794a2051abe30a67892b3a1fa73947aee5",
                    "decodedMethod": {
                        "callParams": [
                            {
                                "name": "account",
                                "type": "address",
                                "value": "0x30fb95794a2051abe30a67892b3a1fa73947aee5"
                            }
                        ],
                        "constructorArguments": "",
                        "name": "balanceOf",
                        "returnParams": [
                            {
                                "decimalAvailable": true,
                                "name": "",
                                "type": "uint256",
                                "value": "34,277,051,790,803,461,103,385"
                            }
                        ],
                        "signature": "balanceOf(address)"
                    },
                    "errorInfo": "",
                    "fromAddress": "0xc4c319e2d4d66cca4464c0c2b32c9bd23ebe784e",
                    "gasUsed": 1309,
                    "id": 34,
                    "methodDecoded": true,
                    "operation": "DELEGATECALL",
                    "output": "0x00000000000000000000000000000000000000000000074229a6c421cb625f19",
                    "revert": false,
                    "revertMessage": "",
                    "selector": "0x70a08231",
                    "status": true,
                    "value": "0"
                },
                "nodeType": 0
            },
            "35": {
                "invocation": {
                    "address": "0xc4c319e2d4d66cca4464c0c2b32c9bd23ebe784e",
                    "callData": "0x",
                    "decodedMethod": {
                        "callParams": [],
                        "constructorArguments": "",
                        "name": "totalSupply",
                        "returnParams": [
                            {
                                "name": "",
                                "type": "uint256",
                                "value": "15,910,047,846,279,412,434,493"
                            }
                        ],
                        "signature": "totalSupply()"
                    },
                    "errorInfo": "",
                    "fromAddress": "0x30fb95794a2051abe30a67892b3a1fa73947aee5",
                    "gasUsed": 1418,
                    "id": 35,
                    "methodDecoded": true,
                    "operation": "STATICCALL",
                    "output": "0x00000000000000000000000000000000000000000000035e7c449d25190bc63d",
                    "revert": false,
                    "revertMessage": "",
                    "selector": "0x18160ddd",
                    "status": true,
                    "value": "0"
                },
                "nodeType": 0
            },
            "36": {
                "invocation": {
                    "address": "0x6326debbaa15bcfe603d831e7d75f4fc10d9b43e",
                    "callData": "0x",
                    "decodedMethod": {
                        "callParams": [],
                        "constructorArguments": "",
                        "name": "totalSupply",
                        "returnParams": [
                            {
                                "name": "",
                                "type": "uint256",
                                "value": "15,910,047,846,279,412,434,493"
                            }
                        ],
                        "signature": "totalSupply()"
                    },
                    "errorInfo": "",
                    "fromAddress": "0xc4c319e2d4d66cca4464c0c2b32c9bd23ebe784e",
                    "gasUsed": 1252,
                    "id": 36,
                    "methodDecoded": true,
                    "operation": "DELEGATECALL",
                    "output": "0x00000000000000000000000000000000000000000000035e7c449d25190bc63d",
                    "revert": false,
                    "revertMessage": "",
                    "selector": "0x18160ddd",
                    "status": true,
                    "value": "0"
                },
                "nodeType": 0
            },
            "37": {
                "invocation": {
                    "address": "0xc4c319e2d4d66cca4464c0c2b32c9bd23ebe784e",
                    "callData": "0x00000000000000000000000000000000000000000000035e7c449d25190bc63c00000000000000000000000000000000000000000000000000000000000000000000000000000000000000000000000000000000000000000000000000000000",
                    "decodedMethod": {
                        "callParams": [
                            {
                                "name": "_burn_amount",
                                "type": "uint256",
                                "value": "15,910,047,846,279,412,434,492"
                            },
                            {
                                "name": "i",
                                "type": "int128",
                                "value": "0"
                            },
                            {
                                "name": "_min_received",
                                "type": "uint256",
                                "value": "0"
                            }
                        ],
                        "constructorArguments": "",
                        "name": "remove_liquidity_one_coin",
                        "returnParams": [
                            {
                                "name": "",
                                "type": "uint256",
                                "value": "32,111,922,626,514,803,331,340"
                            }
                        ],
                        "signature": "remove_liquidity_one_coin(uint256,int128,uint256)"
                    },
                    "errorInfo": "",
                    "fromAddress": "0x30fb95794a2051abe30a67892b3a1fa73947aee5",
                    "gasUsed": 55134,
                    "id": 37,
                    "methodDecoded": true,
                    "operation": "CALL",
                    "output": "0x0000000000000000000000000000000000000000000006ccca72c48eb391910c",
                    "revert": false,
                    "revertMessage": "",
                    "selector": "0x1a4d01d2",
                    "status": true,
                    "value": "0"
                },
                "nodeType": 0
            },
            "38": {
                "invocation": {
                    "address": "0x6326debbaa15bcfe603d831e7d75f4fc10d9b43e",
                    "callData": "0x00000000000000000000000000000000000000000000035e7c449d25190bc63c00000000000000000000000000000000000000000000000000000000000000000000000000000000000000000000000000000000000000000000000000000000",
                    "decodedMethod": {
                        "callParams": [
                            {
                                "name": "_burn_amount",
                                "type": "uint256",
                                "value": "15,910,047,846,279,412,434,492"
                            },
                            {
                                "name": "i",
                                "type": "int128",
                                "value": "0"
                            },
                            {
                                "name": "_min_received",
                                "type": "uint256",
                                "value": "0"
                            }
                        ],
                        "constructorArguments": "",
                        "name": "remove_liquidity_one_coin",
                        "returnParams": [
                            {
                                "name": "",
                                "type": "uint256",
                                "value": "32,111,922,626,514,803,331,340"
                            }
                        ],
                        "signature": "remove_liquidity_one_coin(uint256,int128,uint256)"
                    },
                    "errorInfo": "",
                    "fromAddress": "0xc4c319e2d4d66cca4464c0c2b32c9bd23ebe784e",
                    "gasUsed": 54950,
                    "id": 38,
                    "methodDecoded": true,
                    "operation": "DELEGATECALL",
                    "output": "0x0000000000000000000000000000000000000000000006ccca72c48eb391910c",
                    "revert": false,
                    "revertMessage": "",
                    "selector": "0x1a4d01d2",
                    "status": true,
                    "value": "0"
                },
                "nodeType": 0
            },
            "39": {
                "event": {
                    "contract": "0xc4c319e2d4d66cca4464c0c2b32c9bd23ebe784e",
                    "decodedLog": {
                        "name": "Transfer",
                        "params": [
                            {
                                "name": "from",
                                "type": "address",
                                "value": "0x30fb95794a2051abe30a67892b3a1fa73947aee5"
                            },
                            {
                                "name": "to",
                                "type": "address",
                                "value": "0x0000000000000000000000000000000000000000"
                            },
                            {
                                "decimalAvailable": true,
                                "name": "value",
                                "type": "uint256",
                                "value": "15,910,047,846,279,412,434,492"
                            }
                        ],
                        "signature": "Transfer(address,address,uint256)"
                    },
                    "id": 39,
                    "logData": "0x00000000000000000000000000000000000000000000035e7c449d25190bc63c",
                    "logDecoded": true,
                    "operation": "EVENT",
                    "revert": false,
                    "status": true,
                    "topics": [
                        "0xddf252ad1be2c89b69c2b068fc378daa952ba7f163c4a11628f55a4df523b3ef",
                        "0x00000000000000000000000030fb95794a2051abe30a67892b3a1fa73947aee5",
                        "0x0000000000000000000000000000000000000000000000000000000000000000"
                    ]
                },
                "nodeType": 1
            },
            "4": {
                "invocation": {
                    "address": "0xc02aaa39b223fe8d0a0e5c4f27ead9083c756cc2",
                    "callData": "0x00000000000000000000000030fb95794a2051abe30a67892b3a1fa73947aee5000000000000000000000000000000000000000000000878678326eac9000000",
                    "decodedMethod": {
                        "callParams": [
                            {
                                "name": "dst",
                                "type": "address",
                                "value": "0x30fb95794a2051abe30a67892b3a1fa73947aee5"
                            },
                            {
                                "decimalAvailable": true,
                                "name": "wad",
                                "type": "uint256",
                                "value": "40,000,000,000,000,000,000,000"
                            }
                        ],
                        "constructorArguments": "",
                        "name": "transfer",
                        "returnParams": [
                            {
                                "name": "",
                                "type": "bool",
                                "value": true
                            }
                        ],
                        "signature": "transfer(address,uint256)"
                    },
                    "errorInfo": "",
                    "fromAddress": "0xba12222222228d8ba445958a75a0704d566bf2c8",
                    "gasUsed": 27962,
                    "id": 4,
                    "methodDecoded": true,
                    "operation": "CALL",
                    "output": "0x0000000000000000000000000000000000000000000000000000000000000001",
                    "revert": false,
                    "revertMessage": "",
                    "selector": "0xa9059cbb",
                    "status": true,
                    "value": "0"
                },
                "nodeType": 0
            },
            "40": {
                "invocation": {
                    "address": "0x0000000000000000000000000000000000000004",
                    "callData": "0x00000000000000000000000000000000000000000000000000000000",
                    "decodedMethod": {
                        "callParams": [
                            {
                                "name": "data",
                                "type": "bytes",
                                "value": "0x0000000000000000000000000000000000000000000000000000000000000000"
                            }
                        ],
                        "constructorArguments": "",
                        "name": "dataCopy()",
                        "returnParams": [
                            {
                                "name": "data",
                                "type": "bytes",
                                "value": "0x0000000000000000000000000000000000000000000000000000000000000000"
                            }
                        ],
                        "signature": "dataCopy(bytes)"
                    },
                    "errorInfo": "",
                    "fromAddress": "0xc4c319e2d4d66cca4464c0c2b32c9bd23ebe784e",
                    "gasUsed": 18,
                    "id": 40,
                    "methodDecoded": true,
                    "operation": "CALL",
                    "output": "0x0000000000000000000000000000000000000000000000000000000000000000",
                    "revert": false,
                    "revertMessage": "",
                    "selector": "0x00000000",
                    "status": true,
                    "value": "0"
                },
                "nodeType": 0
            },
            "41": {
                "invocation": {
                    "address": "0x30fb95794a2051abe30a67892b3a1fa73947aee5",
                    "callData": "0x",
                    "decodedMethod": null,
                    "errorInfo": "",
                    "fromAddress": "0xc4c319e2d4d66cca4464c0c2b32c9bd23ebe784e",
                    "gasUsed": 617,
                    "id": 41,
                    "methodDecoded": false,
                    "operation": "CALL",
                    "output": "",
                    "revert": false,
                    "revertMessage": "",
                    "selector": "fallback",
                    "status": true,
                    "value": "32111.92262651480333134"
                },
                "nodeType": 0
            },
            "42": {
                "event": {
                    "contract": "0xc4c319e2d4d66cca4464c0c2b32c9bd23ebe784e",
                    "decodedLog": {
                        "name": "RemoveLiquidityOne",
                        "params": [
                            {
                                "name": "provider",
                                "type": "address",
                                "value": "0x30fb95794a2051abe30a67892b3a1fa73947aee5"
                            },
                            {
                                "name": "token_amount",
                                "type": "uint256",
                                "value": "15,910,047,846,279,412,434,492"
                            },
                            {
                                "name": "coin_amount",
                                "type": "uint256",
                                "value": "32,111,922,626,514,803,331,340"
                            },
                            {
                                "name": "token_supply",
                                "type": "uint256",
                                "value": "1"
                            }
                        ],
                        "signature": "RemoveLiquidityOne(address,uint256,uint256,uint256)"
                    },
                    "id": 42,
                    "logData": "0x00000000000000000000000000000000000000000000035e7c449d25190bc63c0000000000000000000000000000000000000000000006ccca72c48eb391910c0000000000000000000000000000000000000000000000000000000000000001",
                    "logDecoded": true,
                    "operation": "EVENT",
                    "revert": false,
                    "status": true,
                    "topics": [
                        "0x5ad056f2e28a8cec232015406b843668c1e36cda598127ec3b8c59b8c72773a0",
                        "0x00000000000000000000000030fb95794a2051abe30a67892b3a1fa73947aee5"
                    ]
                },
                "nodeType": 1
            },
            "43": {
                "invocation": {
                    "address": "0xc02aaa39b223fe8d0a0e5c4f27ead9083c756cc2",
                    "callData": "0x",
                    "decodedMethod": {
                        "callParams": [],
                        "constructorArguments": "",
                        "name": "deposit",
                        "returnParams": [],
                        "signature": "deposit()"
                    },
                    "errorInfo": "",
                    "fromAddress": "0x30fb95794a2051abe30a67892b3a1fa73947aee5",
                    "gasUsed": 21974,
                    "id": 43,
                    "methodDecoded": true,
                    "operation": "CALL",
                    "output": "",
                    "revert": false,
                    "revertMessage": "",
                    "selector": "0xd0e30db0",
                    "status": true,
                    "value": "47258.701569350004501158"
                },
                "nodeType": 0
            },
            "44": {
                "event": {
                    "contract": "0xc02aaa39b223fe8d0a0e5c4f27ead9083c756cc2",
                    "decodedLog": {
                        "name": "Deposit",
                        "params": [
                            {
                                "name": "dst",
                                "type": "address",
                                "value": "0x30fb95794a2051abe30a67892b3a1fa73947aee5"
                            },
                            {
                                "name": "wad",
                                "type": "uint256",
                                "value": "47,258,701,569,350,004,501,158"
                            }
                        ],
                        "signature": "Deposit(address,uint256)"
                    },
                    "id": 44,
                    "logData": "0x000000000000000000000000000000000000000000000a01e63b81fde679eaa6",
                    "logDecoded": true,
                    "operation": "EVENT",
                    "revert": false,
                    "status": true,
                    "topics": [
                        "0xe1fffcc4923d04b559f4d29a8bfc6cda04eb5b0d3c460751c2402c5c5cc9109c",
                        "0x00000000000000000000000030fb95794a2051abe30a67892b3a1fa73947aee5"
                    ]
                },
                "nodeType": 1
            },
            "45": {
                "invocation": {
                    "address": "0xc02aaa39b223fe8d0a0e5c4f27ead9083c756cc2",
                    "callData": "0x000000000000000000000000ba12222222228d8ba445958a75a0704d566bf2c8000000000000000000000000000000000000000000000878678326eac9000000",
                    "decodedMethod": {
                        "callParams": [
                            {
                                "name": "dst",
                                "type": "address",
                                "value": "0xba12222222228d8ba445958a75a0704d566bf2c8"
                            },
                            {
                                "decimalAvailable": true,
                                "name": "wad",
                                "type": "uint256",
                                "value": "40,000,000,000,000,000,000,000"
                            }
                        ],
                        "constructorArguments": "",
                        "name": "transfer",
                        "returnParams": [
                            {
                                "name": "",
                                "type": "bool",
                                "value": true
                            }
                        ],
                        "signature": "transfer(address,uint256)"
                    },
                    "errorInfo": "",
                    "fromAddress": "0x30fb95794a2051abe30a67892b3a1fa73947aee5",
                    "gasUsed": 3262,
                    "id": 45,
                    "methodDecoded": true,
                    "operation": "CALL",
                    "output": "0x0000000000000000000000000000000000000000000000000000000000000001",
                    "revert": false,
                    "revertMessage": "",
                    "selector": "0xa9059cbb",
                    "status": true,
                    "value": "0"
                },
                "nodeType": 0
            },
            "46": {
                "event": {
                    "contract": "0xc02aaa39b223fe8d0a0e5c4f27ead9083c756cc2",
                    "decodedLog": {
                        "name": "Transfer",
                        "params": [
                            {
                                "name": "src",
                                "type": "address",
                                "value": "0x30fb95794a2051abe30a67892b3a1fa73947aee5"
                            },
                            {
                                "name": "dst",
                                "type": "address",
                                "value": "0xba12222222228d8ba445958a75a0704d566bf2c8"
                            },
                            {
                                "decimalAvailable": true,
                                "name": "wad",
                                "type": "uint256",
                                "value": "40,000,000,000,000,000,000,000"
                            }
                        ],
                        "signature": "Transfer(address,address,uint256)"
                    },
                    "id": 46,
                    "logData": "0x000000000000000000000000000000000000000000000878678326eac9000000",
                    "logDecoded": true,
                    "operation": "EVENT",
                    "revert": false,
                    "status": true,
                    "topics": [
                        "0xddf252ad1be2c89b69c2b068fc378daa952ba7f163c4a11628f55a4df523b3ef",
                        "0x00000000000000000000000030fb95794a2051abe30a67892b3a1fa73947aee5",
                        "0x000000000000000000000000ba12222222228d8ba445958a75a0704d566bf2c8"
                    ]
                },
                "nodeType": 1
            },
            "47": {
                "invocation": {
                    "address": "0xc02aaa39b223fe8d0a0e5c4f27ead9083c756cc2",
                    "callData": "0x00000000000000000000000030fb95794a2051abe30a67892b3a1fa73947aee5",
                    "decodedMethod": {
                        "callParams": [
                            {
                                "name": "",
                                "type": "address",
                                "value": "0x30fb95794a2051abe30a67892b3a1fa73947aee5"
                            }
                        ],
                        "constructorArguments": "",
                        "name": "balanceOf",
                        "returnParams": [
                            {
                                "decimalAvailable": true,
                                "name": "",
                                "type": "uint256",
                                "value": "7,258,701,569,350,004,501,158"
                            }
                        ],
                        "signature": "balanceOf(address)"
                    },
                    "errorInfo": "",
                    "fromAddress": "0x30fb95794a2051abe30a67892b3a1fa73947aee5",
                    "gasUsed": 534,
                    "id": 47,
                    "methodDecoded": true,
                    "operation": "STATICCALL",
                    "output": "0x0000000000000000000000000000000000000000000001897eb85b131d79eaa6",
                    "revert": false,
                    "revertMessage": "",
                    "selector": "0x70a08231",
                    "status": true,
                    "value": "0"
                },
                "nodeType": 0
            },
            "48": {
                "invocation": {
                    "address": "0xc02aaa39b223fe8d0a0e5c4f27ead9083c756cc2",
                    "callData": "0x0000000000000000000000000000000000000000000001897eb85b131d79eaa6",
                    "decodedMethod": {
                        "callParams": [
                            {
                                "name": "wad",
                                "type": "uint256",
                                "value": "7,258,701,569,350,004,501,158"
                            }
                        ],
                        "constructorArguments": "",
                        "name": "withdraw",
                        "returnParams": [],
                        "signature": "withdraw(uint256)"
                    },
                    "errorInfo": "",
                    "fromAddress": "0x30fb95794a2051abe30a67892b3a1fa73947aee5",
                    "gasUsed": 9335,
                    "id": 48,
                    "methodDecoded": true,
                    "operation": "CALL",
                    "output": "",
                    "revert": false,
                    "revertMessage": "",
                    "selector": "0x2e1a7d4d",
                    "status": true,
                    "value": "0"
                },
                "nodeType": 0
            },
            "49": {
                "invocation": {
                    "address": "0x30fb95794a2051abe30a67892b3a1fa73947aee5",
                    "callData": "0x",
                    "decodedMethod": null,
                    "errorInfo": "",
                    "fromAddress": "0xc02aaa39b223fe8d0a0e5c4f27ead9083c756cc2",
                    "gasUsed": 195,
                    "id": 49,
                    "methodDecoded": false,
                    "operation": "CALL",
                    "output": "",
                    "revert": false,
                    "revertMessage": "",
                    "selector": "fallback",
                    "status": true,
                    "value": "7258.701569350004501158"
                },
                "nodeType": 0
            },
            "5": {
                "event": {
                    "contract": "0xc02aaa39b223fe8d0a0e5c4f27ead9083c756cc2",
                    "decodedLog": {
                        "name": "Transfer",
                        "params": [
                            {
                                "name": "src",
                                "type": "address",
                                "value": "0xba12222222228d8ba445958a75a0704d566bf2c8"
                            },
                            {
                                "name": "dst",
                                "type": "address",
                                "value": "0x30fb95794a2051abe30a67892b3a1fa73947aee5"
                            },
                            {
                                "decimalAvailable": true,
                                "name": "wad",
                                "type": "uint256",
                                "value": "40,000,000,000,000,000,000,000"
                            }
                        ],
                        "signature": "Transfer(address,address,uint256)"
                    },
                    "id": 5,
                    "logData": "0x000000000000000000000000000000000000000000000878678326eac9000000",
                    "logDecoded": true,
                    "operation": "EVENT",
                    "revert": false,
                    "status": true,
                    "topics": [
                        "0xddf252ad1be2c89b69c2b068fc378daa952ba7f163c4a11628f55a4df523b3ef",
                        "0x000000000000000000000000ba12222222228d8ba445958a75a0704d566bf2c8",
                        "0x00000000000000000000000030fb95794a2051abe30a67892b3a1fa73947aee5"
                    ]
                },
                "nodeType": 1
            },
            "50": {
                "event": {
                    "contract": "0xc02aaa39b223fe8d0a0e5c4f27ead9083c756cc2",
                    "decodedLog": {
                        "name": "Withdrawal",
                        "params": [
                            {
                                "name": "src",
                                "type": "address",
                                "value": "0x30fb95794a2051abe30a67892b3a1fa73947aee5"
                            },
                            {
                                "name": "wad",
                                "type": "uint256",
                                "value": "7,258,701,569,350,004,501,158"
                            }
                        ],
                        "signature": "Withdrawal(address,uint256)"
                    },
                    "id": 50,
                    "logData": "0x0000000000000000000000000000000000000000000001897eb85b131d79eaa6",
                    "logDecoded": true,
                    "operation": "EVENT",
                    "revert": false,
                    "status": true,
                    "topics": [
                        "0x7fcf532c15f0a6db0bd6d0e038bea71d30d808c7d98cb3bf7268a95bf5081b65",
                        "0x00000000000000000000000030fb95794a2051abe30a67892b3a1fa73947aee5"
                    ]
                },
                "nodeType": 1
            },
            "51": {
                "invocation": {
                    "address": "0xdce5d6b41c32f578f875efffc0d422c57a75d7d8",
                    "callData": "0x",
                    "decodedMethod": null,
                    "errorInfo": "",
                    "fromAddress": "0x30fb95794a2051abe30a67892b3a1fa73947aee5",
                    "gasUsed": 0,
                    "id": 51,
                    "methodDecoded": false,
                    "operation": "CALL",
                    "output": "",
                    "revert": false,
                    "revertMessage": "",
                    "selector": "fallback",
                    "status": true,
                    "value": "7258.701569350004501158"
                },
                "nodeType": 0
            },
            "52": {
                "invocation": {
                    "address": "0xc02aaa39b223fe8d0a0e5c4f27ead9083c756cc2",
                    "callData": "0x000000000000000000000000ba12222222228d8ba445958a75a0704d566bf2c8",
                    "decodedMethod": {
                        "callParams": [
                            {
                                "name": "",
                                "type": "address",
                                "value": "0xba12222222228d8ba445958a75a0704d566bf2c8"
                            }
                        ],
                        "constructorArguments": "",
                        "name": "balanceOf",
                        "returnParams": [
                            {
                                "decimalAvailable": true,
                                "name": "",
                                "type": "uint256",
                                "value": "86,593,792,868,120,445,605,945"
                            }
                        ],
                        "signature": "balanceOf(address)"
                    },
                    "errorInfo": "",
                    "fromAddress": "0xba12222222228d8ba445958a75a0704d566bf2c8",
                    "gasUsed": 534,
                    "id": 52,
                    "methodDecoded": true,
                    "operation": "STATICCALL",
                    "output": "0x00000000000000000000000000000000000000000000125642486bfa59485839",
                    "revert": false,
                    "revertMessage": "",
                    "selector": "0x70a08231",
                    "status": true,
                    "value": "0"
                },
                "nodeType": 0
            },
            "53": {
                "event": {
                    "contract": "0xba12222222228d8ba445958a75a0704d566bf2c8",
                    "decodedLog": {
                        "name": "FlashLoan",
                        "params": [
                            {
                                "name": "recipient",
                                "type": "address",
                                "value": "0x30fb95794a2051abe30a67892b3a1fa73947aee5"
                            },
                            {
                                "name": "token",
                                "type": "address",
                                "value": "0xc02aaa39b223fe8d0a0e5c4f27ead9083c756cc2"
                            },
                            {
                                "name": "amount",
                                "type": "uint256",
                                "value": "40,000,000,000,000,000,000,000"
                            },
                            {
                                "name": "feeAmount",
                                "type": "uint256",
                                "value": "0"
                            }
                        ],
                        "signature": "FlashLoan(address,address,uint256,uint256)"
                    },
                    "id": 53,
                    "logData": "0x000000000000000000000000000000000000000000000878678326eac90000000000000000000000000000000000000000000000000000000000000000000000",
                    "logDecoded": true,
                    "operation": "EVENT",
                    "revert": false,
                    "status": true,
                    "topics": [
                        "0x0d7d75e01ab95780d3cd1c8ec0dd6c2ce19e3a20427eec8bf53283b6fb8e95f0",
                        "0x00000000000000000000000030fb95794a2051abe30a67892b3a1fa73947aee5",
                        "0x000000000000000000000000c02aaa39b223fe8d0a0e5c4f27ead9083c756cc2"
                    ]
                },
                "nodeType": 1
            },
            "6": {
                "invocation": {
                    "address": "0x30fb95794a2051abe30a67892b3a1fa73947aee5",
                    "callData": "0x000000000000000000000000000000000000000000000000000000000000008000000000000000000000000000000000000000000000000000000000000000c0000000000000000000000000000000000000000000000000000000000000010000000000000000000000000000000000000000000000000000000000000001400000000000000000000000000000000000000000000000000000000000000001000000000000000000000000c02aaa39b223fe8d0a0e5c4f27ead9083c756cc20000000000000000000000000000000000000000000000000000000000000001000000000000000000000000000000000000000000000878678326eac9000000000000000000000000000000000000000000000000000000000000000000000100000000000000000000000000000000000000000000000000000000000000000000000000000000000000000000000000000000000000000000000000000000",
                    "decodedMethod": {
                        "callParams": [
                            {
                                "name": "tokens",
                                "type": "address[]",
                                "value": [
                                    "0xc02aaa39b223fe8d0a0e5c4f27ead9083c756cc2"
                                ]
                            },
                            {
                                "name": "amounts",
                                "type": "uint256[]",
                                "value": [
                                    "40,000,000,000,000,000,000,000"
                                ]
                            },
                            {
                                "name": "feeAmounts",
                                "type": "uint256[]",
                                "value": [
                                    "0"
                                ]
                            },
                            {
                                "name": "userData",
                                "type": "bytes",
                                "value": "0x"
                            }
                        ],
                        "constructorArguments": "",
                        "name": "receiveFlashLoan",
                        "returnParams": [],
                        "signature": "receiveFlashLoan(address[],uint256[],uint256[],bytes)"
                    },
                    "errorInfo": "",
                    "fromAddress": "0xba12222222228d8ba445958a75a0704d566bf2c8",
                    "gasUsed": 396812,
                    "id": 6,
                    "methodDecoded": true,
                    "operation": "CALL",
                    "output": "",
                    "revert": false,
                    "revertMessage": "",
                    "selector": "0xf04f2707",
                    "status": true,
                    "value": "0"
                },
                "nodeType": 0
            },
            "7": {
                "invocation": {
                    "address": "0xc02aaa39b223fe8d0a0e5c4f27ead9083c756cc2",
                    "callData": "0x000000000000000000000000000000000000000000000878678326eac9000000",
                    "decodedMethod": {
                        "callParams": [
                            {
                                "name": "wad",
                                "type": "uint256",
                                "value": "40,000,000,000,000,000,000,000"
                            }
                        ],
                        "constructorArguments": "",
                        "name": "withdraw",
                        "returnParams": [],
                        "signature": "withdraw(uint256)"
                    },
                    "errorInfo": "",
                    "fromAddress": "0x30fb95794a2051abe30a67892b3a1fa73947aee5",
                    "gasUsed": 11335,
                    "id": 7,
                    "methodDecoded": true,
                    "operation": "CALL",
                    "output": "",
                    "revert": false,
                    "revertMessage": "",
                    "selector": "0x2e1a7d4d",
                    "status": true,
                    "value": "0"
                },
                "nodeType": 0
            },
            "8": {
                "invocation": {
                    "address": "0x30fb95794a2051abe30a67892b3a1fa73947aee5",
                    "callData": "0x",
                    "decodedMethod": null,
                    "errorInfo": "",
                    "fromAddress": "0xc02aaa39b223fe8d0a0e5c4f27ead9083c756cc2",
                    "gasUsed": 2195,
                    "id": 8,
                    "methodDecoded": false,
                    "operation": "CALL",
                    "output": "",
                    "revert": false,
                    "revertMessage": "",
                    "selector": "fallback",
                    "status": true,
                    "value": "40000"
                },
                "nodeType": 0
            },
            "9": {
                "event": {
                    "contract": "0xc02aaa39b223fe8d0a0e5c4f27ead9083c756cc2",
                    "decodedLog": {
                        "name": "Withdrawal",
                        "params": [
                            {
                                "name": "src",
                                "type": "address",
                                "value": "0x30fb95794a2051abe30a67892b3a1fa73947aee5"
                            },
                            {
                                "name": "wad",
                                "type": "uint256",
                                "value": "40,000,000,000,000,000,000,000"
                            }
                        ],
                        "signature": "Withdrawal(address,uint256)"
                    },
                    "id": 9,
                    "logData": "0x000000000000000000000000000000000000000000000878678326eac9000000",
                    "logDecoded": true,
                    "operation": "EVENT",
                    "revert": false,
                    "status": true,
                    "topics": [
                        "0x7fcf532c15f0a6db0bd6d0e038bea71d30d808c7d98cb3bf7268a95bf5081b65",
                        "0x00000000000000000000000030fb95794a2051abe30a67892b3a1fa73947aee5"
                    ]
                },
                "nodeType": 1
            }
        },
        "gasFlame": [
            {
                "children": [
                    {
                        "children": [
                            {
                                "children": [],
                                "depth": 0,
                                "name": "Initial Gas",
                                "value": 21440
                            },
                            {
                                "children": [
                                    {
                                        "children": [
                                            {
                                                "children": [],
                                                "depth": 2,
                                                "name": "balanceOf",
                                                "value": 2534
                                            },
                                            {
                                                "children": [],
                                                "depth": 2,
                                                "name": "getFlashLoanFeePercentage",
                                                "value": 2350
                                            },
                                            {
                                                "children": [],
                                                "depth": 2,
                                                "name": "transfer",
                                                "value": 27962
                                            },
                                            {
                                                "children": [
                                                    {
                                                        "children": [
                                                            {
                                                                "children": [],
                                                                "depth": 4,
                                                                "name": "fallback",
                                                                "value": 2195
                                                            }
                                                        ],
                                                        "depth": 3,
                                                        "name": "withdraw",
                                                        "value": 11335
                                                    },
                                                    {
                                                        "children": [
                                                            {
                                                                "children": [],
                                                                "depth": 4,
                                                                "name": "add_liquidity",
                                                                "value": 97856
                                                            }
                                                        ],
                                                        "depth": 3,
                                                        "name": "add_liquidity",
                                                        "value": 100540
                                                    },
                                                    {
                                                        "children": [
                                                            {
                                                                "children": [],
                                                                "depth": 4,
                                                                "name": "balanceOf",
                                                                "value": 1309
                                                            }
                                                        ],
                                                        "depth": 3,
                                                        "name": "balanceOf",
                                                        "value": 1481
                                                    },
                                                    {
                                                        "children": [
                                                            {
                                                                "children": [
                                                                    {
                                                                        "children": [],
                                                                        "depth": 5,
                                                                        "name": "dataCopy()",
                                                                        "value": 18
                                                                    },
                                                                    {
                                                                        "children": [
                                                                            {
                                                                                "children": [
                                                                                    {
                                                                                        "children": [],
                                                                                        "depth": 7,
                                                                                        "name": "add_liquidity",
                                                                                        "value": 50636
                                                                                    }
                                                                                ],
                                                                                "depth": 6,
                                                                                "name": "add_liquidity",
                                                                                "value": 50820
                                                                            },
                                                                            {
                                                                                "children": [
                                                                                    {
                                                                                        "children": [],
                                                                                        "depth": 7,
                                                                                        "name": "balanceOf",
                                                                                        "value": 1309
                                                                                    }
                                                                                ],
                                                                                "depth": 6,
                                                                                "name": "balanceOf",
                                                                                "value": 1481
                                                                            }
                                                                        ],
                                                                        "depth": 5,
                                                                        "name": "fallback",
                                                                        "value": 83169
                                                                    },
                                                                    {
                                                                        "children": [],
                                                                        "depth": 5,
                                                                        "name": "dataCopy()",
                                                                        "value": 18
                                                                    },
                                                                    {
                                                                        "children": [],
                                                                        "depth": 5,
                                                                        "name": "dataCopy()",
                                                                        "value": 27
                                                                    },
                                                                    {
                                                                        "children": [],
                                                                        "depth": 5,
                                                                        "name": "transfer",
                                                                        "value": 30157
                                                                    },
                                                                    {
                                                                        "children": [],
                                                                        "depth": 5,
                                                                        "name": "dataCopy()",
                                                                        "value": 21
                                                                    }
                                                                ],
                                                                "depth": 4,
                                                                "name": "remove_liquidity",
                                                                "value": 155107
                                                            }
                                                        ],
                                                        "depth": 3,
                                                        "name": "remove_liquidity",
                                                        "value": 155294
                                                    },
                                                    {
                                                        "children": [
                                                            {
                                                                "children": [],
                                                                "depth": 4,
                                                                "name": "balanceOf",
                                                                "value": 1309
                                                            }
                                                        ],
                                                        "depth": 3,
                                                        "name": "balanceOf",
                                                        "value": 1481
                                                    },
                                                    {
                                                        "children": [
                                                            {
                                                                "children": [],
                                                                "depth": 4,
                                                                "name": "totalSupply",
                                                                "value": 1252
                                                            }
                                                        ],
                                                        "depth": 3,
                                                        "name": "totalSupply",
                                                        "value": 1418
                                                    },
                                                    {
                                                        "children": [
                                                            {
                                                                "children": [
                                                                    {
                                                                        "children": [],
                                                                        "depth": 5,
                                                                        "name": "dataCopy()",
                                                                        "value": 18
                                                                    },
                                                                    {
                                                                        "children": [],
                                                                        "depth": 5,
                                                                        "name": "fallback",
                                                                        "value": 617
                                                                    }
                                                                ],
                                                                "depth": 4,
                                                                "name": "remove_liquidity_one_coin",
                                                                "value": 54950
                                                            }
                                                        ],
                                                        "depth": 3,
                                                        "name": "remove_liquidity_one_coin",
                                                        "value": 55134
                                                    },
                                                    {
                                                        "children": [],
                                                        "depth": 3,
                                                        "name": "deposit",
                                                        "value": 21974
                                                    },
                                                    {
                                                        "children": [],
                                                        "depth": 3,
                                                        "name": "transfer",
                                                        "value": 3262
                                                    },
                                                    {
                                                        "children": [],
                                                        "depth": 3,
                                                        "name": "balanceOf",
                                                        "value": 534
                                                    },
                                                    {
                                                        "children": [
                                                            {
                                                                "children": [],
                                                                "depth": 4,
                                                                "name": "fallback",
                                                                "value": 195
                                                            }
                                                        ],
                                                        "depth": 3,
                                                        "name": "withdraw",
                                                        "value": 9335
                                                    },
                                                    {
                                                        "children": [],
                                                        "depth": 3,
                                                        "name": "fallback",
                                                        "value": 0
                                                    }
                                                ],
                                                "depth": 2,
                                                "name": "receiveFlashLoan",
                                                "value": 396812
                                            },
                                            {
                                                "children": [],
                                                "depth": 2,
                                                "name": "balanceOf",
                                                "value": 534
                                            }
                                        ],
                                        "depth": 1,
                                        "name": "flashLoan",
                                        "value": 450621
                                    }
                                ],
                                "depth": 0,
                                "name": "Executed Gas",
                                "value": 487736
                            }
                        ],
                        "depth": -1,
                        "name": "Actual Gas Used",
                        "value": 407341
                    },
                    {
                        "children": [],
                        "depth": -1,
                        "name": "Refunded Gas",
                        "value": 101835
                    }
                ],
                "depth": -2,
                "name": "Total Gas",
                "value": 509176
            }
        ],
        "isConfirmed": true,
        "mainTrace": [
            {
                "children": [
                    {
                        "children": [
                            {
                                "children": [
                                    {
                                        "children": [],
                                        "depth": 2,
                                        "id": 2,
                                        "order": 2
                                    },
                                    {
                                        "children": [],
                                        "depth": 2,
                                        "id": 3,
                                        "order": 3
                                    },
                                    {
                                        "children": [
                                            {
                                                "children": [],
                                                "depth": 3,
                                                "id": 5,
                                                "order": 5
                                            }
                                        ],
                                        "depth": 2,
                                        "id": 4,
                                        "order": 4
                                    },
                                    {
                                        "children": [
                                            {
                                                "children": [
                                                    {
                                                        "children": [],
                                                        "depth": 4,
                                                        "id": 8,
                                                        "order": 8
                                                    },
                                                    {
                                                        "children": [],
                                                        "depth": 4,
                                                        "id": 9,
                                                        "order": 9
                                                    }
                                                ],
                                                "depth": 3,
                                                "id": 7,
                                                "order": 7
                                            },
                                            {
                                                "children": [
                                                    {
                                                        "children": [
                                                            {
                                                                "children": [],
                                                                "depth": 5,
                                                                "id": 12,
                                                                "order": 12
                                                            },
                                                            {
                                                                "children": [],
                                                                "depth": 5,
                                                                "id": 13,
                                                                "order": 13
                                                            }
                                                        ],
                                                        "depth": 4,
                                                        "id": 11,
                                                        "order": 11
                                                    }
                                                ],
                                                "depth": 3,
                                                "id": 10,
                                                "order": 10
                                            },
                                            {
                                                "children": [
                                                    {
                                                        "children": [],
                                                        "depth": 4,
                                                        "id": 15,
                                                        "order": 15
                                                    }
                                                ],
                                                "depth": 3,
                                                "id": 14,
                                                "order": 14
                                            },
                                            {
                                                "children": [
                                                    {
                                                        "children": [
                                                            {
                                                                "children": [],
                                                                "depth": 5,
                                                                "id": 18,
                                                                "order": 18
                                                            },
                                                            {
                                                                "children": [
                                                                    {
                                                                        "children": [
                                                                            {
                                                                                "children": [
                                                                                    {
                                                                                        "children": [],
                                                                                        "depth": 8,
                                                                                        "id": 22,
                                                                                        "order": 22
                                                                                    },
                                                                                    {
                                                                                        "children": [],
                                                                                        "depth": 8,
                                                                                        "id": 23,
                                                                                        "order": 23
                                                                                    }
                                                                                ],
                                                                                "depth": 7,
                                                                                "id": 21,
                                                                                "order": 21
                                                                            }
                                                                        ],
                                                                        "depth": 6,
                                                                        "id": 20,
                                                                        "order": 20
                                                                    },
                                                                    {
                                                                        "children": [
                                                                            {
                                                                                "children": [],
                                                                                "depth": 7,
                                                                                "id": 25,
                                                                                "order": 25
                                                                            }
                                                                        ],
                                                                        "depth": 6,
                                                                        "id": 24,
                                                                        "order": 24
                                                                    }
                                                                ],
                                                                "depth": 5,
                                                                "id": 19,
                                                                "order": 19
                                                            },
                                                            {
                                                                "children": [],
                                                                "depth": 5,
                                                                "id": 26,
                                                                "order": 26
                                                            },
                                                            {
                                                                "children": [],
                                                                "depth": 5,
                                                                "id": 27,
                                                                "order": 27
                                                            },
                                                            {
                                                                "children": [
                                                                    {
                                                                        "children": [],
                                                                        "depth": 6,
                                                                        "id": 29,
                                                                        "order": 29
                                                                    }
                                                                ],
                                                                "depth": 5,
                                                                "id": 28,
                                                                "order": 28
                                                            },
                                                            {
                                                                "children": [],
                                                                "depth": 5,
                                                                "id": 30,
                                                                "order": 30
                                                            },
                                                            {
                                                                "children": [],
                                                                "depth": 5,
                                                                "id": 31,
                                                                "order": 31
                                                            },
                                                            {
                                                                "children": [],
                                                                "depth": 5,
                                                                "id": 32,
                                                                "order": 32
                                                            }
                                                        ],
                                                        "depth": 4,
                                                        "id": 17,
                                                        "order": 17
                                                    }
                                                ],
                                                "depth": 3,
                                                "id": 16,
                                                "order": 16
                                            },
                                            {
                                                "children": [
                                                    {
                                                        "children": [],
                                                        "depth": 4,
                                                        "id": 34,
                                                        "order": 34
                                                    }
                                                ],
                                                "depth": 3,
                                                "id": 33,
                                                "order": 33
                                            },
                                            {
                                                "children": [
                                                    {
                                                        "children": [],
                                                        "depth": 4,
                                                        "id": 36,
                                                        "order": 36
                                                    }
                                                ],
                                                "depth": 3,
                                                "id": 35,
                                                "order": 35
                                            },
                                            {
                                                "children": [
                                                    {
                                                        "children": [
                                                            {
                                                                "children": [],
                                                                "depth": 5,
                                                                "id": 39,
                                                                "order": 39
                                                            },
                                                            {
                                                                "children": [],
                                                                "depth": 5,
                                                                "id": 40,
                                                                "order": 40
                                                            },
                                                            {
                                                                "children": [],
                                                                "depth": 5,
                                                                "id": 41,
                                                                "order": 41
                                                            },
                                                            {
                                                                "children": [],
                                                                "depth": 5,
                                                                "id": 42,
                                                                "order": 42
                                                            }
                                                        ],
                                                        "depth": 4,
                                                        "id": 38,
                                                        "order": 38
                                                    }
                                                ],
                                                "depth": 3,
                                                "id": 37,
                                                "order": 37
                                            },
                                            {
                                                "children": [
                                                    {
                                                        "children": [],
                                                        "depth": 4,
                                                        "id": 44,
                                                        "order": 44
                                                    }
                                                ],
                                                "depth": 3,
                                                "id": 43,
                                                "order": 43
                                            },
                                            {
                                                "children": [
                                                    {
                                                        "children": [],
                                                        "depth": 4,
                                                        "id": 46,
                                                        "order": 46
                                                    }
                                                ],
                                                "depth": 3,
                                                "id": 45,
                                                "order": 45
                                            },
                                            {
                                                "children": [],
                                                "depth": 3,
                                                "id": 47,
                                                "order": 47
                                            },
                                            {
                                                "children": [
                                                    {
                                                        "children": [],
                                                        "depth": 4,
                                                        "id": 49,
                                                        "order": 49
                                                    },
                                                    {
                                                        "children": [],
                                                        "depth": 4,
                                                        "id": 50,
                                                        "order": 50
                                                    }
                                                ],
                                                "depth": 3,
                                                "id": 48,
                                                "order": 48
                                            },
                                            {
                                                "children": [],
                                                "depth": 3,
                                                "id": 51,
                                                "order": 51
                                            }
                                        ],
                                        "depth": 2,
                                        "id": 6,
                                        "order": 6
                                    },
                                    {
                                        "children": [],
                                        "depth": 2,
                                        "id": 52,
                                        "order": 52
                                    },
                                    {
                                        "children": [],
                                        "depth": 2,
                                        "id": 53,
                                        "order": 53
                                    }
                                ],
                                "depth": 1,
                                "id": 1,
                                "order": 1
                            }
                        ],
                        "depth": 0,
                        "id": 0,
                        "order": 0
                    }
                ],
                "depth": -1,
                "id": -1,
                "order": -1
            }
        ],
        "mainTraceNodeCount": 54,
        "parentIdMap": {
            "0": -1,
            "1": 0,
            "10": 6,
            "11": 10,
            "12": 11,
            "13": 11,
            "14": 6,
            "15": 14,
            "16": 6,
            "17": 16,
            "18": 17,
            "19": 17,
            "2": 1,
            "20": 19,
            "21": 20,
            "22": 21,
            "23": 21,
            "24": 19,
            "25": 24,
            "26": 17,
            "27": 17,
            "28": 17,
            "29": 28,
            "3": 1,
            "30": 17,
            "31": 17,
            "32": 17,
            "33": 6,
            "34": 33,
            "35": 6,
            "36": 35,
            "37": 6,
            "38": 37,
            "39": 38,
            "4": 1,
            "40": 38,
            "41": 38,
            "42": 38,
            "43": 6,
            "44": 43,
            "45": 6,
            "46": 45,
            "47": 6,
            "48": 6,
            "49": 48,
            "5": 4,
            "50": 48,
            "51": 6,
            "52": 1,
            "53": 1,
            "6": 1,
            "7": 6,
            "8": 7,
            "9": 7
        },
        "tidyTrace": [
            {
                "children": [
                    {
                        "children": [
                            {
                                "children": [
                                    {
                                        "children": [
                                            {
                                                "children": [],
                                                "depth": 3,
                                                "id": 5,
                                                "order": 5
                                            }
                                        ],
                                        "depth": 2,
                                        "id": 4,
                                        "order": 4
                                    },
                                    {
                                        "children": [
                                            {
                                                "children": [
                                                    {
                                                        "children": [],
                                                        "depth": 4,
                                                        "id": 8,
                                                        "order": 8
                                                    },
                                                    {
                                                        "children": [],
                                                        "depth": 4,
                                                        "id": 9,
                                                        "order": 9
                                                    }
                                                ],
                                                "depth": 3,
                                                "id": 7,
                                                "order": 7
                                            },
                                            {
                                                "children": [
                                                    {
                                                        "children": [
                                                            {
                                                                "children": [],
                                                                "depth": 5,
                                                                "id": 12,
                                                                "order": 12
                                                            },
                                                            {
                                                                "children": [],
                                                                "depth": 5,
                                                                "id": 13,
                                                                "order": 13
                                                            }
                                                        ],
                                                        "depth": 4,
                                                        "id": 11,
                                                        "order": 11
                                                    }
                                                ],
                                                "depth": 3,
                                                "id": 10,
                                                "order": 10
                                            },
                                            {
                                                "children": [
                                                    {
                                                        "children": [
                                                            {
                                                                "children": [],
                                                                "depth": 5,
                                                                "id": 18,
                                                                "order": 18
                                                            },
                                                            {
                                                                "children": [
                                                                    {
                                                                        "children": [
                                                                            {
                                                                                "children": [
                                                                                    {
                                                                                        "children": [],
                                                                                        "depth": 8,
                                                                                        "id": 22,
                                                                                        "order": 22
                                                                                    },
                                                                                    {
                                                                                        "children": [],
                                                                                        "depth": 8,
                                                                                        "id": 23,
                                                                                        "order": 23
                                                                                    }
                                                                                ],
                                                                                "depth": 7,
                                                                                "id": 21,
                                                                                "order": 21
                                                                            }
                                                                        ],
                                                                        "depth": 6,
                                                                        "id": 20,
                                                                        "order": 20
                                                                    }
                                                                ],
                                                                "depth": 5,
                                                                "id": 19,
                                                                "order": 19
                                                            },
                                                            {
                                                                "children": [],
                                                                "depth": 5,
                                                                "id": 26,
                                                                "order": 26
                                                            },
                                                            {
                                                                "children": [],
                                                                "depth": 5,
                                                                "id": 27,
                                                                "order": 27
                                                            },
                                                            {
                                                                "children": [
                                                                    {
                                                                        "children": [],
                                                                        "depth": 6,
                                                                        "id": 29,
                                                                        "order": 29
                                                                    }
                                                                ],
                                                                "depth": 5,
                                                                "id": 28,
                                                                "order": 28
                                                            },
                                                            {
                                                                "children": [],
                                                                "depth": 5,
                                                                "id": 30,
                                                                "order": 30
                                                            },
                                                            {
                                                                "children": [],
                                                                "depth": 5,
                                                                "id": 31,
                                                                "order": 31
                                                            },
                                                            {
                                                                "children": [],
                                                                "depth": 5,
                                                                "id": 32,
                                                                "order": 32
                                                            }
                                                        ],
                                                        "depth": 4,
                                                        "id": 17,
                                                        "order": 17
                                                    }
                                                ],
                                                "depth": 3,
                                                "id": 16,
                                                "order": 16
                                            },
                                            {
                                                "children": [
                                                    {
                                                        "children": [
                                                            {
                                                                "children": [],
                                                                "depth": 5,
                                                                "id": 39,
                                                                "order": 39
                                                            },
                                                            {
                                                                "children": [],
                                                                "depth": 5,
                                                                "id": 40,
                                                                "order": 40
                                                            },
                                                            {
                                                                "children": [],
                                                                "depth": 5,
                                                                "id": 41,
                                                                "order": 41
                                                            },
                                                            {
                                                                "children": [],
                                                                "depth": 5,
                                                                "id": 42,
                                                                "order": 42
                                                            }
                                                        ],
                                                        "depth": 4,
                                                        "id": 38,
                                                        "order": 38
                                                    }
                                                ],
                                                "depth": 3,
                                                "id": 37,
                                                "order": 37
                                            },
                                            {
                                                "children": [
                                                    {
                                                        "children": [],
                                                        "depth": 4,
                                                        "id": 44,
                                                        "order": 44
                                                    }
                                                ],
                                                "depth": 3,
                                                "id": 43,
                                                "order": 43
                                            },
                                            {
                                                "children": [
                                                    {
                                                        "children": [],
                                                        "depth": 4,
                                                        "id": 46,
                                                        "order": 46
                                                    }
                                                ],
                                                "depth": 3,
                                                "id": 45,
                                                "order": 45
                                            },
                                            {
                                                "children": [
                                                    {
                                                        "children": [],
                                                        "depth": 4,
                                                        "id": 49,
                                                        "order": 49
                                                    },
                                                    {
                                                        "children": [],
                                                        "depth": 4,
                                                        "id": 50,
                                                        "order": 50
                                                    }
                                                ],
                                                "depth": 3,
                                                "id": 48,
                                                "order": 48
                                            },
                                            {
                                                "children": [],
                                                "depth": 3,
                                                "id": 51,
                                                "order": 51
                                            }
                                        ],
                                        "depth": 2,
                                        "id": 6,
                                        "order": 6
                                    },
                                    {
                                        "children": [],
                                        "depth": 2,
                                        "id": 53,
                                        "order": 53
                                    }
                                ],
                                "depth": 1,
                                "id": 1,
                                "order": 1
                            }
                        ],
                        "depth": 0,
                        "id": 0,
                        "order": 0
                    }
                ],
                "depth": -1,
                "id": -1,
                "order": -1
            }
        ],
        "tidyTraceNodeCount": 42
    },
    "state_change": {
        "stateChanges": [
            {
                "address": "0x0100546f2cd4c9d97f798ffc9755e47865ff7ee6",
                "erc": "ERC-20",
                "slots": [
                    {
                        "current": "0x00000000000000000000000000000000000000000000010560744a07c9a719e2",
                        "key": "0x9193e3218adf4aa1b03e2f7e89941091a29e04a3d0200bf8bb3c82d24abe9d5c",
                        "prev": "0x0000000000000000000000000000000000000000000000000000000000000000"
                    },
                    {
                        "current": "0x0000000000000000000000000000000000000000000000d12924682ce14b2808",
                        "key": "0x9038ec0ab6707b4a858a08efcd5762ddb00a7909e1f769ad07338123b1a7bba3",
                        "prev": "0x0000000000000000000000000000000000000000000001d68998b234aaf241ea"
                    }
                ],
                "storageVariables": [
                    {
                        "name": "_balances",
                        "type": "mapping(address => uint256)",
                        "value": {
                            "pairs": [
                                {
                                    "key": "0x30fb95794a2051abe30a67892b3a1fa73947aee5",
                                    "value": {
                                        "current": "4821550464760440887778",
                                        "prev": "0",
                                        "typeTag": 1
                                    }
                                },
                                {
                                    "key": "0xc4c319e2d4d66cca4464c0c2b32c9bd23ebe784e",
                                    "value": {
                                        "current": "3858334120401980565512",
                                        "prev": "8679884585162421453290",
                                        "typeTag": 1
                                    }
                                }
                            ],
                            "typeTag": 4
                        }
                    }
                ]
            },
            {
                "address": "0x30fb95794a2051abe30a67892b3a1fa73947aee5",
                "erc": "",
                "slots": [
                    {
                        "current": "0x000000000000000000000000000000000000000000000878678326eac9000000",
                        "key": "0x0000000000000000000000000000000000000000000000000000000000000008",
                        "prev": "0x0000000000000000000000000000000000000000000000000000000000000000"
                    },
                    {
                        "current": "0x0000000000000000000000000000000000000000000000000000000000000002",
                        "key": "0x0000000000000000000000000000000000000000000000000000000000000007",
                        "prev": "0x0000000000000000000000000000000000000000000000000000000000000000"
                    }
                ],
                "storageVariables": []
            },
            {
                "address": "0xc4c319e2d4d66cca4464c0c2b32c9bd23ebe784e",
                "erc": "",
                "slots": [
                    {
                        "current": "0x0000000000000000000000000000000000000000000003e3ad6226fcb25698dd",
                        "key": "0xb69418a36fe9ee4bd85c8b713a4fabbf3a10b2af3d639b51539d8e049cfb4484",
                        "prev": "0x0000000000000000000000000000000000000000000000000000000000000000"
                    },
                    {
                        "current": "0x0000000000000000000000000000000000000000000000000000000000000001",
                        "key": "0x000000000000000000000000000000000000000000000000000000000000001a",
                        "prev": "0x00000000000000000000000000000000000000000000035e7c449d25190bc63d"
                    },
                    {
                        "current": "0x0000000000000000000000000000000000000000000000000000000000000001",
                        "key": "0x0000000000000000000000000000000000000000000000000000000000000008",
                        "prev": "0x00000000000000000000000000000000000000000000018999888d207ea24371"
                    },
                    {
                        "current": "0x0000000000000000000000000000000000000000000000d10560446d1e8eacea",
                        "key": "0x0000000000000000000000000000000000000000000000000000000000000009",
                        "prev": "0x0000000000000000000000000000000000000000000001d6806d3c81c8f2b6d6"
                    }
                ],
                "storageVariables": []
            }
        ]
    }
}