{
    "balance_change": {
        "balanceChanges": [
            {
                "account": "0x94641c01a4937f2c8ef930580cf396142a2942dc",
                "assets": [
                    {
                        "address": "0xb05cabcd99cf9a73b19805edefc5f67ca5d1895e",
                        "amount": "0.814617876327124913",
                        "iconUrl": "",
                        "isERC1155": false,
                        "isERC721": false,
                        "sign": true,
                        "value": "2412.437206"
                    }
                ]
            },
            {
                "account": "0x93781b8a85b06800ad6b480994942f6d16ae1392",
                "assets": [
                    {
                        "address": "0xb05cabcd99cf9a73b19805edefc5f67ca5d1895e",
                        "amount": "0.814617876327124913",
                        "iconUrl": "",
                        "isERC1155": false,
                        "isERC721": false,
                        "sign": false,
                        "value": "2412.437206"
                    }
                ]
            }
        ]
    },
    "profile": {
        "basic_info": {
            "baseFee": "60.885537954",
            "blockNumber": 19326073,
            "callData": "0x568d8cd9000000000000000000000000000000000000000000000000000000000000006000000000000000000000000000000000000000000000000000000000000000a000000000000000000000000000000000000000000000000000000000000000e00000000000000000000000000000000000000000000000000000000000000001000000000000000000000000000000000000000000000000000000000000001e00000000000000000000000000000000000000000000000000000000000000010000000000000000000000000000000000000000000000000000000000000000000000000000000000000000000000000000000000000000000000000000000100000000000000000000000000000000000000000000000000000000000000200000000000000000000000000000000000000000000000000000000000000140000000000000000000000000b05cabcd99cf9a73b19805edefc5f67ca5d1895e00000000000000000000000000000000000000000000000000000000000000a0000000000000000000000000000000000000000000000000000000000000000000000000000000000000000000000000000000000000000000000000000000000000000000000000000000000000000000000000000000000000000000000000000000000000000000000000000000000000000000000000000000000000006423b872dd00000000000000000000000093781b8a85b06800ad6b480994942f6d16ae139200000000000000000000000094641c01a4937f2c8ef930580cf396142a2942dc0000000000000000000000000000000000000000000000000b4e1aa47a294fb100000000000000000000000000000000000000000000000000000000",
            "debugEnable": true,
            "errorInfo": "",
            "eventCount": 1,
            "feeRecipient": "0x4838b106fce9647bdf1e7877bf73ce8b0bad5f97",
            "formatValue": "0",
            "gasLimit": 120070,
            "gasPrice": "60.924337954",
            "gasUsed": 68897,
            "intTxnCount": 2,
            "internalRevert": false,
            "internalRevertMessage": "",
            "isContractCreation": false,
            "isFlashloan": false,
            "maxFee": "90.80679533",
            "nonce": 13,
            "overwritedBlockNumber": -1,
            "priorityFee": "0.0388",
            "receiver": "0x65c210c59b43eb68112b7a4f75c8393c36491f06",
            "revertMessage": "",
            "sender": "0x94641c01a4937f2c8ef930580cf396142a2942dc",
            "simulationEnable": true,
            "sourceTxnHash": "0xb82239e256404e94edd650c68cea92e146c2f361a09eea11b02624eeaffbaae1",
            "status": true,
            "timestamp": "2024-02-28T12:38:11Z",
            "transactionFee": "0.004197504112016738",
            "txnHash": "0xb82239e256404e94edd650c68cea92e146c2f361a09eea11b02624eeaffbaae1",
            "txnIndex": 98,
            "type": 2,
            "value": "0"
        },
        "fund_flow": [
            {
                "amount": "0.814617876327124913",
                "from": "0x93781b8a85b06800ad6b480994942f6d16ae1392",
                "id": 1,
                "isERC1155": false,
                "isERC721": false,
                "isReverted": false,
                "order": 1,
                "to": "0x94641c01a4937f2c8ef930580cf396142a2942dc",
                "token": "0xb05cabcd99cf9a73b19805edefc5f67ca5d1895e"
            }
        ],
        "token_infos": [
            {
                "address": "0xeeeeeeeeeeeeeeeeeeeeeeeeeeeeeeeeeeeeeeee",
                "decimals": 18
            },
            {
                "address": "0xb05cabcd99cf9a73b19805edefc5f67ca5d1895e",
                "decimals": 18
            },
            {
                "address": "0xc02aaa39b223fe8d0a0e5c4f27ead9083c756cc2",
                "decimals": 18
            }
        ]
    },
    "address_label": {
        "labels": [
            {
                "address": "0x0000000000000000000000000000000000000001",
                "label": "Precompiled"
            },
            {
                "address": "0x0000000000000000000000000000000000000002",
                "label": "Precompiled"
            },
            {
                "address": "0x0000000000000000000000000000000000000003",
                "label": "Precompiled"
            },
            {
                "address": "0x0000000000000000000000000000000000000004",
                "label": "Precompiled"
            },
            {
                "address": "0xeeeeeeeeeeeeeeeeeeeeeeeeeeeeeeeeeeeeeeee",
                "label": "Ether"
            },
            {
                "address": "0x94641c01a4937f2c8ef930580cf396142a2942dc",
                "label": "Seneca Exploiter"
            },
            {
                "address": "0xb05cabcd99cf9a73b19805edefc5f67ca5d1895e",
                "label": "Pendle: PT-rsETH-27JUN2024 Token"
            },
            {
                "address": "0x45e15d1e4f92f28a916f4f2971ad9adc278e148b",
                "label": "Chamber"
            }
        ]
    },
    "trace": {
        "accountLabels": null,
        "dataMap": {
            "-1": {
                "invocation": {
                    "address": "0x94641c01a4937f2c8ef930580cf396142a2942dc",
                    "callData": "",
                    "decodedMethod": null,
                    "errorInfo": "",
                    "fromAddress": "",
                    "gasUsed": 0,
                    "id": -1,
                    "methodDecoded": false,
                    "operation": "",
                    "output": "",
                    "revert": false,
                    "revertMessage": "",
                    "selector": "",
                    "status": false,
                    "value": ""
                },
                "nodeType": 0
            },
            "0": {
                "invocation": {
                    "address": "0x65c210c59b43eb68112b7a4f75c8393c36491f06",
                    "callData": "0x000000000000000000000000000000000000000000000000000000000000006000000000000000000000000000000000000000000000000000000000000000a000000000000000000000000000000000000000000000000000000000000000e00000000000000000000000000000000000000000000000000000000000000001000000000000000000000000000000000000000000000000000000000000001e00000000000000000000000000000000000000000000000000000000000000010000000000000000000000000000000000000000000000000000000000000000000000000000000000000000000000000000000000000000000000000000000100000000000000000000000000000000000000000000000000000000000000200000000000000000000000000000000000000000000000000000000000000140000000000000000000000000b05cabcd99cf9a73b19805edefc5f67ca5d1895e00000000000000000000000000000000000000000000000000000000000000a0000000000000000000000000000000000000000000000000000000000000000000000000000000000000000000000000000000000000000000000000000000000000000000000000000000000000000000000000000000000000000000000000000000000000000000000000000000000000000000000000000000000000006423b872dd00000000000000000000000093781b8a85b06800ad6b480994942f6d16ae139200000000000000000000000094641c01a4937f2c8ef930580cf396142a2942dc0000000000000000000000000000000000000000000000000b4e1aa47a294fb100000000000000000000000000000000000000000000000000000000",
                    "decodedMethod": {
                        "callParams": [
                            {
                                "name": "actions",
                                "type": "uint8[]",
                                "value": [
                                    "30"
                                ]
                            },
                            {
                                "name": "values",
                                "type": "uint256[]",
                                "value": [
                                    "0"
                                ]
                            },
                            {
                                "name": "datas",
                                "type": "bytes[]",
                                "value": [
                                    "0x000000000000000000000000b05cabcd99cf9a73b19805edefc5f67ca5d1895e00000000000000000000000000000000000000000000000000000000000000a0000000000000000000000000000000000000000000000000000000000000000000000000000000000000000000000000000000000000000000000000000000000000000000000000000000000000000000000000000000000000000000000000000000000000000000000000000000000000000000000000000000000000006423b872dd00000000000000000000000093781b8a85b06800ad6b480994942f6d16ae139200000000000000000000000094641c01a4937f2c8ef930580cf396142a2942dc0000000000000000000000000000000000000000000000000b4e1aa47a294fb100000000000000000000000000000000000000000000000000000000"
                                ]
                            }
                        ],
                        "constructorArguments": "",
                        "name": "performOperations",
                        "returnParams": [
                            {
                                "name": "value1",
                                "type": "uint256",
                                "value": "0"
                            },
                            {
                                "name": "value2",
                                "type": "uint256",
                                "value": "0"
                            }
                        ],
                        "signature": "performOperations(uint8[],uint256[],bytes[])"
                    },
                    "errorInfo": "",
                    "fromAddress": "0x94641c01a4937f2c8ef930580cf396142a2942dc",
                    "gasUsed": 68897,
                    "id": 0,
                    "methodDecoded": true,
                    "operation": "CALL",
                    "output": "0x00000000000000000000000000000000000000000000000000000000000000000000000000000000000000000000000000000000000000000000000000000000",
                    "revert": false,
                    "revertMessage": "",
                    "selector": "0x568d8cd9",
                    "status": true,
                    "value": "0"
                },
                "nodeType": 0
            },
            "1": {
                "invocation": {
                    "address": "0x45e15d1e4f92f28a916f4f2971ad9adc278e148b",
                    "callData": "0x000000000000000000000000000000000000000000000000000000000000006000000000000000000000000000000000000000000000000000000000000000a000000000000000000000000000000000000000000000000000000000000000e00000000000000000000000000000000000000000000000000000000000000001000000000000000000000000000000000000000000000000000000000000001e00000000000000000000000000000000000000000000000000000000000000010000000000000000000000000000000000000000000000000000000000000000000000000000000000000000000000000000000000000000000000000000000100000000000000000000000000000000000000000000000000000000000000200000000000000000000000000000000000000000000000000000000000000140000000000000000000000000b05cabcd99cf9a73b19805edefc5f67ca5d1895e00000000000000000000000000000000000000000000000000000000000000a0000000000000000000000000000000000000000000000000000000000000000000000000000000000000000000000000000000000000000000000000000000000000000000000000000000000000000000000000000000000000000000000000000000000000000000000000000000000000000000000000000000000000006423b872dd00000000000000000000000093781b8a85b06800ad6b480994942f6d16ae139200000000000000000000000094641c01a4937f2c8ef930580cf396142a2942dc0000000000000000000000000000000000000000000000000b4e1aa47a294fb100000000000000000000000000000000000000000000000000000000",
                    "decodedMethod": {
                        "callParams": [
                            {
                                "name": "actions",
                                "type": "uint8[]",
                                "value": [
                                    "30"
                                ]
                            },
                            {
                                "name": "values",
                                "type": "uint256[]",
                                "value": [
                                    "0"
                                ]
                            },
                            {
                                "name": "datas",
                                "type": "bytes[]",
                                "value": [
                                    "0x000000000000000000000000b05cabcd99cf9a73b19805edefc5f67ca5d1895e00000000000000000000000000000000000000000000000000000000000000a0000000000000000000000000000000000000000000000000000000000000000000000000000000000000000000000000000000000000000000000000000000000000000000000000000000000000000000000000000000000000000000000000000000000000000000000000000000000000000000000000000000000000006423b872dd00000000000000000000000093781b8a85b06800ad6b480994942f6d16ae139200000000000000000000000094641c01a4937f2c8ef930580cf396142a2942dc0000000000000000000000000000000000000000000000000b4e1aa47a294fb100000000000000000000000000000000000000000000000000000000"
                                ]
                            }
                        ],
                        "constructorArguments": "",
                        "name": "performOperations",
                        "returnParams": [
                            {
                                "name": "value1",
                                "type": "uint256",
                                "value": "0"
                            },
                            {
                                "name": "value2",
                                "type": "uint256",
                                "value": "0"
                            }
                        ],
                        "signature": "performOperations(uint8[],uint256[],bytes[])"
                    },
                    "errorInfo": "",
                    "fromAddress": "0x65c210c59b43eb68112b7a4f75c8393c36491f06",
                    "gasUsed": 49088,
                    "id": 1,
                    "methodDecoded": true,
                    "operation": "DELEGATECALL",
                    "output": "0x00000000000000000000000000000000000000000000000000000000000000000000000000000000000000000000000000000000000000000000000000000000",
                    "revert": false,
                    "revertMessage": "",
                    "selector": "0x568d8cd9",
                    "status": true,
                    "value": "0"
                },
                "nodeType": 0
            },
            "2": {
                "invocation": {
                    "address": "0xb05cabcd99cf9a73b19805edefc5f67ca5d1895e",
                    "callData": "0x00000000000000000000000093781b8a85b06800ad6b480994942f6d16ae139200000000000000000000000094641c01a4937f2c8ef930580cf396142a2942dc0000000000000000000000000000000000000000000000000b4e1aa47a294fb1",
                    "decodedMethod": {
                        "callParams": [
                            {
                                "name": "from",
                                "type": "address",
                                "value": "0x93781b8a85b06800ad6b480994942f6d16ae1392"
                            },
                            {
                                "name": "to",
                                "type": "address",
                                "value": "0x94641c01a4937f2c8ef930580cf396142a2942dc"
                            },
                            {
                                "decimalAvailable": true,
                                "name": "amount",
                                "type": "uint256",
                                "value": "814,617,876,327,124,913"
                            }
                        ],
                        "constructorArguments": "",
                        "name": "transferFrom",
                        "returnParams": [
                            {
                                "name": "",
                                "type": "bool",
                                "value": true
                            }
                        ],
                        "signature": "transferFrom(address,address,uint256)"
                    },
                    "errorInfo": "",
                    "fromAddress": "0x65c210c59b43eb68112b7a4f75c8393c36491f06",
                    "gasUsed": 37241,
                    "id": 2,
                    "methodDecoded": true,
                    "operation": "CALL",
                    "output": "0x0000000000000000000000000000000000000000000000000000000000000001",
                    "revert": false,
                    "revertMessage": "",
                    "selector": "0x23b872dd",
                    "status": true,
                    "value": "0"
                },
                "nodeType": 0
            },
            "3": {
                "event": {
                    "contract": "0xb05cabcd99cf9a73b19805edefc5f67ca5d1895e",
                    "decodedLog": {
                        "name": "Transfer",
                        "params": [
                            {
                                "name": "from",
                                "type": "address",
                                "value": "0x93781b8a85b06800ad6b480994942f6d16ae1392"
                            },
                            {
                                "name": "to",
                                "type": "address",
                                "value": "0x94641c01a4937f2c8ef930580cf396142a2942dc"
                            },
                            {
                                "decimalAvailable": true,
                                "name": "value",
                                "type": "uint256",
                                "value": "814,617,876,327,124,913"
                            }
                        ],
                        "signature": "Transfer(address,address,uint256)"
                    },
                    "id": 3,
                    "logData": "0x0000000000000000000000000000000000000000000000000b4e1aa47a294fb1",
                    "logDecoded": true,
                    "operation": "EVENT",
                    "revert": false,
                    "status": true,
                    "topics": [
                        "0xddf252ad1be2c89b69c2b068fc378daa952ba7f163c4a11628f55a4df523b3ef",
                        "0x00000000000000000000000093781b8a85b06800ad6b480994942f6d16ae1392",
                        "0x00000000000000000000000094641c01a4937f2c8ef930580cf396142a2942dc"
                    ]
                },
                "nodeType": 1
            }
        },
        "gasFlame": [
            {
                "children": [
                    {
                        "children": [
                            {
                                "children": [],
                                "depth": 0,
                                "name": "Initial Gas",
                                "value": 24620
                            },
                            {
                                "children": [
                                    {
                                        "children": [
                                            {
                                                "children": [],
                                                "depth": 2,
                                                "name": "transferFrom",
                                                "value": 37241
                                            }
                                        ],
                                        "depth": 1,
                                        "name": "performOperations",
                                        "value": 49088
                                    }
                                ],
                                "depth": 0,
                                "name": "Executed Gas",
                                "value": 51877
                            }
                        ],
                        "depth": -1,
                        "name": "Actual Gas Used",
                        "value": 68897
                    },
                    {
                        "children": [],
                        "depth": -1,
                        "name": "Refunded Gas",
                        "value": 7600
                    }
                ],
                "depth": -2,
                "name": "Total Gas",
                "value": 76497
            }
        ],
        "isConfirmed": true,
        "mainTrace": [
            {
                "children": [
                    {
                        "children": [
                            {
                                "children": [
                                    {
                                        "children": [
                                            {
                                                "children": [],
                                                "depth": 3,
                                                "id": 3,
                                                "order": 3
                                            }
                                        ],
                                        "depth": 2,
                                        "id": 2,
                                        "order": 2
                                    }
                                ],
                                "depth": 1,
                                "id": 1,
                                "order": 1
                            }
                        ],
                        "depth": 0,
                        "id": 0,
                        "order": 0
                    }
                ],
                "depth": -1,
                "id": -1,
                "order": -1
            }
        ],
        "mainTraceNodeCount": 4,
        "parentIdMap": {
            "0": -1,
            "1": 0,
            "2": 1,
            "3": 2
        },
        "tidyTrace": [
            {
                "children": [
                    {
                        "children": [
                            {
                                "children": [
                                    {
                                        "children": [
                                            {
                                                "children": [],
                                                "depth": 3,
                                                "id": 3,
                                                "order": 3
                                            }
                                        ],
                                        "depth": 2,
                                        "id": 2,
                                        "order": 2
                                    }
                                ],
                                "depth": 1,
                                "id": 1,
                                "order": 1
                            }
                        ],
                        "depth": 0,
                        "id": 0,
                        "order": 0
                    }
                ],
                "depth": -1,
                "id": -1,
                "order": -1
            }
        ],
        "tidyTraceNodeCount": 4
    },
    "state_change": {
        "stateChanges": [
            {
                "address": "0xb05cabcd99cf9a73b19805edefc5f67ca5d1895e",
                "erc": "",
                "slots": [
                    {
                        "current": "0x0000000000000000000000000000000000000000000000000000000000000000",
                        "key": "0xf0d3f5ea9562377e7ded2332f6ded4a5448f8aae7a2c9c9ccc92630ebfbe1b43",
                        "prev": "0x0000000000000000000000000000000000000000000000000b4e1aa47a294fb1"
                    },
                    {
                        "current": "0x0000000000000000000000000000000000000000000000000b4e1aa47a294fb1",
                        "key": "0x0e3bd16d350f0bc506bb46336146b71ed28fb7161b1a6b52f16280aa7de68821",
                        "prev": "0x0000000000000000000000000000000000000000000000000000000000000000"
                    }
                ],
                "storageVariables": []
            }
        ]
    }
}