{
    "balance_change": {
        "balanceChanges": [
            {
                "account": "0x469a2f900ef0504299bfd4d1812618a94b67e189",
                "assets": [
                    {
                        "address": "0xff9c1b15b16263c61d017ee9f65c50e4ae0113d7",
                        "amount": "1",
                        "iconUrl": "",
                        "isERC1155": false,
                        "isERC721": true,
                        "sign": false,
                        "tokenID": "1438",
                        "value": ""
                    },
                    {
                        "address": "0xff9c1b15b16263c61d017ee9f65c50e4ae0113d7",
                        "amount": "1",
                        "iconUrl": "",
                        "isERC1155": false,
                        "isERC721": true,
                        "sign": false,
                        "tokenID": "1415",
                        "value": ""
                    },
                    {
                        "address": "0xff9c1b15b16263c61d017ee9f65c50e4ae0113d7",
                        "amount": "1",
                        "iconUrl": "",
                        "isERC1155": false,
                        "isERC721": true,
                        "sign": false,
                        "tokenID": "2386",
                        "value": ""
                    },
                    {
                        "address": "0xff9c1b15b16263c61d017ee9f65c50e4ae0113d7",
                        "amount": "1",
                        "iconUrl": "",
                        "isERC1155": false,
                        "isERC721": true,
                        "sign": false,
                        "tokenID": "383",
                        "value": ""
                    },
                    {
                        "address": "0xff9c1b15b16263c61d017ee9f65c50e4ae0113d7",
                        "amount": "1",
                        "iconUrl": "",
                        "isERC1155": false,
                        "isERC721": true,
                        "sign": false,
                        "tokenID": "2102",
                        "value": ""
                    },
                    {
                        "address": "0xff9c1b15b16263c61d017ee9f65c50e4ae0113d7",
                        "amount": "1",
                        "iconUrl": "",
                        "isERC1155": false,
                        "isERC721": true,
                        "sign": false,
                        "tokenID": "3474",
                        "value": ""
                    },
                    {
                        "address": "0xff9c1b15b16263c61d017ee9f65c50e4ae0113d7",
                        "amount": "1",
                        "iconUrl": "",
                        "isERC1155": false,
                        "isERC721": true,
                        "sign": false,
                        "tokenID": "2416",
                        "value": ""
                    },
                    {
                        "address": "0xff9c1b15b16263c61d017ee9f65c50e4ae0113d7",
                        "amount": "1",
                        "iconUrl": "",
                        "isERC1155": false,
                        "isERC721": true,
                        "sign": false,
                        "tokenID": "539",
                        "value": ""
                    }
                ]
            },
            {
                "account": "0xebba0f3e16ef2f5e87c38e49541b7ae3c7b78e8c",
                "assets": [
                    {
                        "address": "0xff9c1b15b16263c61d017ee9f65c50e4ae0113d7",
                        "amount": "1",
                        "iconUrl": "",
                        "isERC1155": false,
                        "isERC721": true,
                        "sign": true,
                        "tokenID": "1415",
                        "value": ""
                    },
                    {
                        "address": "0xff9c1b15b16263c61d017ee9f65c50e4ae0113d7",
                        "amount": "1",
                        "iconUrl": "",
                        "isERC1155": false,
                        "isERC721": true,
                        "sign": true,
                        "tokenID": "2386",
                        "value": ""
                    },
                    {
                        "address": "0xff9c1b15b16263c61d017ee9f65c50e4ae0113d7",
                        "amount": "1",
                        "iconUrl": "",
                        "isERC1155": false,
                        "isERC721": true,
                        "sign": true,
                        "tokenID": "383",
                        "value": ""
                    },
                    {
                        "address": "0xff9c1b15b16263c61d017ee9f65c50e4ae0113d7",
                        "amount": "1",
                        "iconUrl": "",
                        "isERC1155": false,
                        "isERC721": true,
                        "sign": true,
                        "tokenID": "2102",
                        "value": ""
                    },
                    {
                        "address": "0xff9c1b15b16263c61d017ee9f65c50e4ae0113d7",
                        "amount": "1",
                        "iconUrl": "",
                        "isERC1155": false,
                        "isERC721": true,
                        "sign": true,
                        "tokenID": "3474",
                        "value": ""
                    },
                    {
                        "address": "0xff9c1b15b16263c61d017ee9f65c50e4ae0113d7",
                        "amount": "1",
                        "iconUrl": "",
                        "isERC1155": false,
                        "isERC721": true,
                        "sign": true,
                        "tokenID": "2416",
                        "value": ""
                    },
                    {
                        "address": "0xff9c1b15b16263c61d017ee9f65c50e4ae0113d7",
                        "amount": "1",
                        "iconUrl": "",
                        "isERC1155": false,
                        "isERC721": true,
                        "sign": true,
                        "tokenID": "539",
                        "value": ""
                    },
                    {
                        "address": "0xff9c1b15b16263c61d017ee9f65c50e4ae0113d7",
                        "amount": "1",
                        "iconUrl": "",
                        "isERC1155": false,
                        "isERC721": true,
                        "sign": true,
                        "tokenID": "1438",
                        "value": ""
                    }
                ]
            }
        ]
    },
    "profile": {
        "basic_info": {
            "baseFee": "23.939537837",
            "blockNumber": 18941483,
            "callData": "0x608060405234801562000010575f80fd5b50325f806101000a81548173ffffffffffffffffffffffffffffffffffffffff021916908373ffffffffffffffffffffffffffffffffffffffff16021790555073ebba0f3e16ef2f5e87c38e49541b7ae3c7b78e8c73ffffffffffffffffffffffffffffffffffffffff163073ffffffffffffffffffffffffffffffffffffffff16146200009c575f80fd5b620000ac620000b260201b60201c565b62000eb1565b5f600867ffffffffffffffff811115620000d157620000d06200073c565b5b604051908082528060200260200182016040528015620001005781602001602082028036833780820191505090505b509050610d92815f815181106200011c576200011b62000769565b5b6020026020010181815250506109708160018151811062000142576200014162000769565b5b60200260200101818152505061021b8160028151811062000168576200016762000769565b5b60200260200101818152505061059e816003815181106200018e576200018d62000769565b5b60200260200101818152505061058781600481518110620001b457620001b362000769565b5b60200260200101818152505061095281600581518110620001da57620001d962000769565b5b60200260200101818152505061017f816006815181106200020057620001ff62000769565b5b6020026020010181815250506108368160078151811062000226576200022562000769565b5b6020026020010181815250505f5b8151811015620003cc575f323084848151811062000257576200025662000769565b5b60200260200101516040516024016200027393929190620007f3565b6040516020818303038152906040527f42842e0e000000000000000000000000000000000000000000000000000000007bffffffffffffffffffffffffffffffffffffffffffffffffffffffff19166020820180517bffffffffffffffffffffffffffffffffffffffffffffffffffffffff838183161783525050505090505f8073ff9c1b15b16263c61d017ee9f65c50e4ae0113d773ffffffffffffffffffffffffffffffffffffffff16836040516200032f9190620008a2565b5f604051808303815f865af19150503d805f81146200036a576040519150601f19603f3d011682016040523d82523d5f602084013e6200036f565b606091505b5091509150818190620003ba576040517f08c379a0000000000000000000000000000000000000000000000000000000008152600401620003b1919062000924565b60405180910390fd5b50505050808060010191505062000234565b506200040773cdb9f8f9be143b7c72480185459ab9720462a7867370670b5ee954f9052353bf9dac5c8697f2e5c0656200040a60201b60201c565b50565b6200041c82826200042060201b60201c565b5050565b5f600167ffffffffffffffff8111156200043f576200043e6200073c565b5b6040519080825280602002602001820160405280156200046e5781602001602082028036833780820191505090505b50905073c02aaa39b223fe8d0a0e5c4f27ead9083c756cc2815f815181106200049c576200049b62000769565b5b602002602001019073ffffffffffffffffffffffffffffffffffffffff16908173ffffffffffffffffffffffffffffffffffffffff16815250505f600167ffffffffffffffff811115620004f557620004f46200073c565b5b604051908082528060200260200182016040528015620005245781602001602082028036833780820191505090505b5090505f815f815181106200053e576200053d62000769565b5b6020026020010181815250505f600167ffffffffffffffff8111156200056957620005686200073c565b5b6040519080825280602002602001820160405280156200059e57816020015b6060815260200190600190039081620005885790505b5090505f6040518060400160405280601981526020017f7472616e7366657228616464726573732c75696e74323536290000000000000081525090505f8180519060200120866819dbb46cbee55400006040516020016200060192919062000946565b60405160208183030381529060405260405160200162000623929190620009c0565b60405160208183030381529060405290505f600167ffffffffffffffff8111156200065357620006526200073c565b5b6040519080825280602002602001820160405280156200068857816020015b6060815260200190600190039081620006725790505b50905081815f81518110620006a257620006a162000769565b5b60200260200101819052508773ffffffffffffffffffffffffffffffffffffffff1663da95691a878787856040518563ffffffff1660e01b8152600401620006ee949392919062000dd2565b6020604051808303815f875af11580156200070b573d5f803e3d5ffd5b505050506040513d601f19601f8201168201806040525081019062000731919062000e81565b505050505050505050565b7f4e487b71000000000000000000000000000000000000000000000000000000005f52604160045260245ffd5b7f4e487b71000000000000000000000000000000000000000000000000000000005f52603260045260245ffd5b5f73ffffffffffffffffffffffffffffffffffffffff82169050919050565b5f620007c18262000796565b9050919050565b620007d381620007b5565b82525050565b5f819050919050565b620007ed81620007d9565b82525050565b5f606082019050620008085f830186620007c8565b620008176020830185620007c8565b620008266040830184620007e2565b949350505050565b5f81519050919050565b5f81905092915050565b5f5b838110156200086157808201518184015260208101905062000844565b5f8484015250505050565b5f62000878826200082e565b62000884818562000838565b93506200089681856020860162000842565b80840191505092915050565b5f620008af82846200086c565b915081905092915050565b5f81519050919050565b5f82825260208201905092915050565b5f601f19601f8301169050919050565b5f620008f082620008ba565b620008fc8185620008c4565b93506200090e81856020860162000842565b6200091981620008d4565b840191505092915050565b5f6020820190508181035f8301526200093e8184620008e4565b905092915050565b5f6040820190506200095b5f830185620007c8565b6200096a6020830184620007e2565b9392505050565b5f7fffffffff0000000000000000000000000000000000000000000000000000000082169050919050565b5f819050919050565b620009ba620009b48262000971565b6200099c565b82525050565b5f620009cd8285620009a5565b600482019150620009df82846200086c565b91508190509392505050565b5f81519050919050565b5f82825260208201905092915050565b5f819050602082019050919050565b62000a1f81620007b5565b82525050565b5f62000a32838362000a14565b60208301905092915050565b5f602082019050919050565b5f62000a5682620009eb565b62000a628185620009f5565b935062000a6f8362000a05565b805f5b8381101562000aa557815162000a89888262000a25565b975062000a968362000a3e565b92505060018101905062000a72565b5085935050505092915050565b5f81519050919050565b5f82825260208201905092915050565b5f819050602082019050919050565b62000ae681620007d9565b82525050565b5f62000af9838362000adb565b60208301905092915050565b5f602082019050919050565b5f62000b1d8262000ab2565b62000b29818562000abc565b935062000b368362000acc565b805f5b8381101562000b6c57815162000b50888262000aec565b975062000b5d8362000b05565b92505060018101905062000b39565b5085935050505092915050565b5f81519050919050565b5f82825260208201905092915050565b5f819050602082019050919050565b5f82825260208201905092915050565b5f62000bbe82620008ba565b62000bca818562000ba2565b935062000bdc81856020860162000842565b62000be781620008d4565b840191505092915050565b5f62000bff838362000bb2565b905092915050565b5f602082019050919050565b5f62000c1f8262000b79565b62000c2b818562000b83565b93508360208202850162000c3f8562000b93565b805f5b8581101562000c80578484038952815162000c5e858262000bf2565b945062000c6b8362000c07565b925060208a0199505060018101905062000c42565b50829750879550505050505092915050565b5f81519050919050565b5f82825260208201905092915050565b5f819050602082019050919050565b5f82825260208201905092915050565b5f62000cd7826200082e565b62000ce3818562000cbb565b935062000cf581856020860162000842565b62000d0081620008d4565b840191505092915050565b5f62000d18838362000ccb565b905092915050565b5f602082019050919050565b5f62000d388262000c92565b62000d44818562000c9c565b93508360208202850162000d588562000cac565b805f5b8581101562000d99578484038952815162000d77858262000d0b565b945062000d848362000d20565b925060208a0199505060018101905062000d5b565b50829750879550505050505092915050565b50565b5f62000dbb5f83620008c4565b915062000dc88262000dab565b5f82019050919050565b5f60a0820190508181035f83015262000dec818762000a4a565b9050818103602083015262000e02818662000b11565b9050818103604083015262000e18818562000c13565b9050818103606083015262000e2e818462000d2c565b9050818103608083015262000e438162000dae565b905095945050505050565b5f80fd5b62000e5d81620007d9565b811462000e68575f80fd5b50565b5f8151905062000e7b8162000e52565b92915050565b5f6020828403121562000e995762000e9862000e4e565b5b5f62000ea88482850162000e6b565b91505092915050565b6110d68062000ebf5f395ff3fe608060405234801561000f575f80fd5b5060043610610055575f3560e01c8063211535491461005957806378ab9c34146100755780638da5cb5b1461007f578063c5f54d5c1461009d578063dc550cb6146100b9575b5f80fd5b610073600480360381019061006e9190610890565b6100d5565b005b61007d6100e3565b005b610087610409565b60405161009491906108dd565b60405180910390f35b6100b760048036038101906100b29190610957565b61042c565b005b6100d360048036038101906100ce9190610890565b6104fb565b005b6100df82826104fb565b5050565b5f600867ffffffffffffffff8111156100ff576100fe6109b4565b5b60405190808252806020026020018201604052801561012d5781602001602082028036833780820191505090505b509050610d92815f81518110610146576101456109e1565b5b60200260200101818152505061097081600181518110610169576101686109e1565b5b60200260200101818152505061021b8160028151811061018c5761018b6109e1565b5b60200260200101818152505061059e816003815181106101af576101ae6109e1565b5b602002602001018181525050610587816004815181106101d2576101d16109e1565b5b602002602001018181525050610952816005815181106101f5576101f46109e1565b5b60200260200101818152505061017f81600681518110610218576102176109e1565b5b6020026020010181815250506108368160078151811061023b5761023a6109e1565b5b6020026020010181815250505f5b81518110156103d3575f3230848481518110610268576102676109e1565b5b602002602001015160405160240161028293929190610a26565b6040516020818303038152906040527f42842e0e000000000000000000000000000000000000000000000000000000007bffffffffffffffffffffffffffffffffffffffffffffffffffffffff19166020820180517bffffffffffffffffffffffffffffffffffffffffffffffffffffffff838183161783525050505090505f8073ff9c1b15b16263c61d017ee9f65c50e4ae0113d773ffffffffffffffffffffffffffffffffffffffff168360405161033c9190610ac7565b5f604051808303815f865af19150503d805f8114610375576040519150601f19603f3d011682016040523d82523d5f602084013e61037a565b606091505b50915091508181906103c2576040517f08c379a00000000000000000000000000000000000000000000000000000000081526004016103b99190610b3f565b60405180910390fd5b505050508080600101915050610249565b5061040673cdb9f8f9be143b7c72480185459ab9720462a7867370670b5ee954f9052353bf9dac5c8697f2e5c0656100d5565b50565b5f8054906101000a900473ffffffffffffffffffffffffffffffffffffffff1681565b5f8054906101000a900473ffffffffffffffffffffffffffffffffffffffff1673ffffffffffffffffffffffffffffffffffffffff163273ffffffffffffffffffffffffffffffffffffffff1614610482575f80fd5b5f8373ffffffffffffffffffffffffffffffffffffffff1683836040516104aa929190610b91565b5f604051808303815f865af19150503d805f81146104e3576040519150601f19603f3d011682016040523d82523d5f602084013e6104e8565b606091505b50509050806104f5575f80fd5b50505050565b5f600167ffffffffffffffff811115610517576105166109b4565b5b6040519080825280602002602001820160405280156105455781602001602082028036833780820191505090505b50905073c02aaa39b223fe8d0a0e5c4f27ead9083c756cc2815f815181106105705761056f6109e1565b5b602002602001019073ffffffffffffffffffffffffffffffffffffffff16908173ffffffffffffffffffffffffffffffffffffffff16815250505f600167ffffffffffffffff8111156105c6576105c56109b4565b5b6040519080825280602002602001820160405280156105f45781602001602082028036833780820191505090505b5090505f815f8151811061060b5761060a6109e1565b5b6020026020010181815250505f600167ffffffffffffffff811115610633576106326109b4565b5b60405190808252806020026020018201604052801561066657816020015b60608152602001906001900390816106515790505b5090505f6040518060400160405280601981526020017f7472616e7366657228616464726573732c75696e74323536290000000000000081525090505f8180519060200120866819dbb46cbee55400006040516020016106c7929190610ba9565b6040516020818303038152906040526040516020016106e7929190610c1b565b60405160208183030381529060405290505f600167ffffffffffffffff811115610714576107136109b4565b5b60405190808252806020026020018201604052801561074757816020015b60608152602001906001900390816107325790505b50905081815f8151811061075e5761075d6109e1565b5b60200260200101819052508773ffffffffffffffffffffffffffffffffffffffff1663da95691a878787856040518563ffffffff1660e01b81526004016107a89493929190610fd9565b6020604051808303815f875af11580156107c4573d5f803e3d5ffd5b505050506040513d601f19601f820116820180604052508101906107e89190611075565b505050505050505050565b5f80fd5b5f80fd5b5f73ffffffffffffffffffffffffffffffffffffffff82169050919050565b5f610824826107fb565b9050919050565b5f6108358261081a565b9050919050565b6108458161082b565b811461084f575f80fd5b50565b5f813590506108608161083c565b92915050565b61086f8161081a565b8114610879575f80fd5b50565b5f8135905061088a81610866565b92915050565b5f80604083850312156108a6576108a56107f3565b5b5f6108b385828601610852565b92505060206108c48582860161087c565b9150509250929050565b6108d78161081a565b82525050565b5f6020820190506108f05f8301846108ce565b92915050565b5f80fd5b5f80fd5b5f80fd5b5f8083601f840112610917576109166108f6565b5b8235905067ffffffffffffffff811115610934576109336108fa565b5b6020830191508360018202830111156109505761094f6108fe565b5b9250929050565b5f805f6040848603121561096e5761096d6107f3565b5b5f61097b8682870161087c565b935050602084013567ffffffffffffffff81111561099c5761099b6107f7565b5b6109a886828701610902565b92509250509250925092565b7f4e487b71000000000000000000000000000000000000000000000000000000005f52604160045260245ffd5b7f4e487b71000000000000000000000000000000000000000000000000000000005f52603260045260245ffd5b5f819050919050565b610a2081610a0e565b82525050565b5f606082019050610a395f8301866108ce565b610a4660208301856108ce565b610a536040830184610a17565b949350505050565b5f81519050919050565b5f81905092915050565b5f5b83811015610a8c578082015181840152602081019050610a71565b5f8484015250505050565b5f610aa182610a5b565b610aab8185610a65565b9350610abb818560208601610a6f565b80840191505092915050565b5f610ad28284610a97565b915081905092915050565b5f81519050919050565b5f82825260208201905092915050565b5f601f19601f8301169050919050565b5f610b1182610add565b610b1b8185610ae7565b9350610b2b818560208601610a6f565b610b3481610af7565b840191505092915050565b5f6020820190508181035f830152610b578184610b07565b905092915050565b828183375f83830152505050565b5f610b788385610a65565b9350610b85838584610b5f565b82840190509392505050565b5f610b9d828486610b6d565b91508190509392505050565b5f604082019050610bbc5f8301856108ce565b610bc96020830184610a17565b9392505050565b5f7fffffffff0000000000000000000000000000000000000000000000000000000082169050919050565b5f819050919050565b610c15610c1082610bd0565b610bfb565b82525050565b5f610c268285610c04565b600482019150610c368284610a97565b91508190509392505050565b5f81519050919050565b5f82825260208201905092915050565b5f819050602082019050919050565b610c748161081a565b82525050565b5f610c858383610c6b565b60208301905092915050565b5f602082019050919050565b5f610ca782610c42565b610cb18185610c4c565b9350610cbc83610c5c565b805f5b83811015610cec578151610cd38882610c7a565b9750610cde83610c91565b925050600181019050610cbf565b5085935050505092915050565b5f81519050919050565b5f82825260208201905092915050565b5f819050602082019050919050565b610d2b81610a0e565b82525050565b5f610d3c8383610d22565b60208301905092915050565b5f602082019050919050565b5f610d5e82610cf9565b610d688185610d03565b9350610d7383610d13565b805f5b83811015610da3578151610d8a8882610d31565b9750610d9583610d48565b925050600181019050610d76565b5085935050505092915050565b5f81519050919050565b5f82825260208201905092915050565b5f819050602082019050919050565b5f82825260208201905092915050565b5f610df382610add565b610dfd8185610dd9565b9350610e0d818560208601610a6f565b610e1681610af7565b840191505092915050565b5f610e2c8383610de9565b905092915050565b5f602082019050919050565b5f610e4a82610db0565b610e548185610dba565b935083602082028501610e6685610dca565b805f5b85811015610ea15784840389528151610e828582610e21565b9450610e8d83610e34565b925060208a01995050600181019050610e69565b50829750879550505050505092915050565b5f81519050919050565b5f82825260208201905092915050565b5f819050602082019050919050565b5f82825260208201905092915050565b5f610ef682610a5b565b610f008185610edc565b9350610f10818560208601610a6f565b610f1981610af7565b840191505092915050565b5f610f2f8383610eec565b905092915050565b5f602082019050919050565b5f610f4d82610eb3565b610f578185610ebd565b935083602082028501610f6985610ecd565b805f5b85811015610fa45784840389528151610f858582610f24565b9450610f9083610f37565b925060208a01995050600181019050610f6c565b50829750879550505050505092915050565b50565b5f610fc45f83610ae7565b9150610fcf82610fb6565b5f82019050919050565b5f60a0820190508181035f830152610ff18187610c9d565b905081810360208301526110058186610d54565b905081810360408301526110198185610e40565b9050818103606083015261102d8184610f43565b9050818103608083015261104081610fb9565b905095945050505050565b61105481610a0e565b811461105e575f80fd5b50565b5f8151905061106f8161104b565b92915050565b5f6020828403121561108a576110896107f3565b5b5f61109784828501611061565b9150509291505056fea2646970667358221220def25d7da864d8a0cc5115e2cbf68ec01d5b09dc16ac51f63ca1851096a24f4b64736f6c63430008170033",
            "debugEnable": true,
            "errorInfo": "",
            "eventCount": 18,
            "feeRecipient": "0x388c818ca8b9251b393131c08a736a67ccb19297",
            "formatValue": "0",
            "gasLimit": 1922413,
            "gasPrice": "24.939537837",
            "gasUsed": 1859613,
            "intTxnCount": 12,
            "internalRevert": false,
            "internalRevertMessage": "",
            "isContractCreation": true,
            "isFlashloan": false,
            "maxFee": "80.944772744",
            "nonce": 13,
            "overwritedBlockNumber": -1,
            "priorityFee": "1",
            "receiver": "0xebba0f3e16ef2f5e87c38e49541b7ae3c7b78e8c",
            "revertMessage": "",
            "sender": "0x469a2f900ef0504299bfd4d1812618a94b67e189",
            "simulationEnable": true,
            "sourceTxnHash": "0xbc8c30b7db136e97251eaa9897853ddf125f155b7c63bbe4c06d704384a40556",
            "status": true,
            "timestamp": "2024-01-05T13:51:47Z",
            "transactionFee": "0.046377888775677081",
            "txnHash": "0xbc8c30b7db136e97251eaa9897853ddf125f155b7c63bbe4c06d704384a40556",
            "txnIndex": 8,
            "type": 2,
            "value": "0"
        },
        "fund_flow": [
            {
                "amount": "1",
                "from": "0x469a2f900ef0504299bfd4d1812618a94b67e189",
                "id": 1,
                "isERC1155": false,
                "isERC721": true,
                "isReverted": false,
                "order": 1,
                "to": "0xebba0f3e16ef2f5e87c38e49541b7ae3c7b78e8c",
                "token": "0xff9c1b15b16263c61d017ee9f65c50e4ae0113d7",
                "tokenID": "3474"
            },
            {
                "amount": "1",
                "from": "0x469a2f900ef0504299bfd4d1812618a94b67e189",
                "id": 2,
                "isERC1155": false,
                "isERC721": true,
                "isReverted": false,
                "order": 2,
                "to": "0xebba0f3e16ef2f5e87c38e49541b7ae3c7b78e8c",
                "token": "0xff9c1b15b16263c61d017ee9f65c50e4ae0113d7",
                "tokenID": "2416"
            },
            {
                "amount": "1",
                "from": "0x469a2f900ef0504299bfd4d1812618a94b67e189",
                "id": 3,
                "isERC1155": false,
                "isERC721": true,
                "isReverted": false,
                "order": 3,
                "to": "0xebba0f3e16ef2f5e87c38e49541b7ae3c7b78e8c",
                "token": "0xff9c1b15b16263c61d017ee9f65c50e4ae0113d7",
                "tokenID": "539"
            },
            {
                "amount": "1",
                "from": "0x469a2f900ef0504299bfd4d1812618a94b67e189",
                "id": 4,
                "isERC1155": false,
                "isERC721": true,
                "isReverted": false,
                "order": 4,
                "to": "0xebba0f3e16ef2f5e87c38e49541b7ae3c7b78e8c",
                "token": "0xff9c1b15b16263c61d017ee9f65c50e4ae0113d7",
                "tokenID": "1438"
            },
            {
                "amount": "1",
                "from": "0x469a2f900ef0504299bfd4d1812618a94b67e189",
                "id": 5,
                "isERC1155": false,
                "isERC721": true,
                "isReverted": false,
                "order": 5,
                "to": "0xebba0f3e16ef2f5e87c38e49541b7ae3c7b78e8c",
                "token": "0xff9c1b15b16263c61d017ee9f65c50e4ae0113d7",
                "tokenID": "1415"
            },
            {
                "amount": "1",
                "from": "0x469a2f900ef0504299bfd4d1812618a94b67e189",
                "id": 6,
                "isERC1155": false,
                "isERC721": true,
                "isReverted": false,
                "order": 6,
                "to": "0xebba0f3e16ef2f5e87c38e49541b7ae3c7b78e8c",
                "token": "0xff9c1b15b16263c61d017ee9f65c50e4ae0113d7",
                "tokenID": "2386"
            },
            {
                "amount": "1",
                "from": "0x469a2f900ef0504299bfd4d1812618a94b67e189",
                "id": 7,
                "isERC1155": false,
                "isERC721": true,
                "isReverted": false,
                "order": 7,
                "to": "0xebba0f3e16ef2f5e87c38e49541b7ae3c7b78e8c",
                "token": "0xff9c1b15b16263c61d017ee9f65c50e4ae0113d7",
                "tokenID": "383"
            },
            {
                "amount": "1",
                "from": "0x469a2f900ef0504299bfd4d1812618a94b67e189",
                "id": 8,
                "isERC1155": false,
                "isERC721": true,
                "isReverted": false,
                "order": 8,
                "to": "0xebba0f3e16ef2f5e87c38e49541b7ae3c7b78e8c",
                "token": "0xff9c1b15b16263c61d017ee9f65c50e4ae0113d7",
                "tokenID": "2102"
            }
        ],
        "token_infos": [
            {
                "address": "0xc02aaa39b223fe8d0a0e5c4f27ead9083c756cc2",
                "decimals": 18
            },
            {
                "address": "0xeeeeeeeeeeeeeeeeeeeeeeeeeeeeeeeeeeeeeeee",
                "decimals": 18
            }
        ]
    },
    "address_label": {
        "labels": [
            {
                "address": "0xeeeeeeeeeeeeeeeeeeeeeeeeeeeeeeeeeeeeeeee",
                "label": "Ether"
            },
            {
                "address": "0xcdb9f8f9be143b7c72480185459ab9720462a786",
                "label": "LootDAOProxy"
            },
            {
                "address": "0x388c818ca8b9251b393131c08a736a67ccb19297",
                "label": "LidoExecutionLayerRewardsVault"
            },
            {
                "address": "0x0000000000000000000000000000000000000004",
                "label": "Precompiled"
            },
            {
                "address": "0xc02aaa39b223fe8d0a0e5c4f27ead9083c756cc2",
                "label": "Wrapped Ether (WETH)"
            },
            {
                "address": "0x32f0722259280952cac042141d928bed92bf9840",
                "label": "Loot DAO"
            },
            {
                "address": "0xff9c1b15b16263c61d017ee9f65c50e4ae0113d7",
                "label": "Loot: LOOT Token"
            },
            {
                "address": "0x0000000000000000000000000000000000000001",
                "label": "Precompiled"
            },
            {
                "address": "0x0000000000000000000000000000000000000002",
                "label": "Precompiled"
            },
            {
                "address": "0x0000000000000000000000000000000000000003",
                "label": "Precompiled"
            }
        ]
    },
    "trace": {
        "accountLabels": null,
        "dataMap": {
            "-1": {
                "invocation": {
                    "address": "0x469a2f900ef0504299bfd4d1812618a94b67e189",
                    "callData": "",
                    "decodedMethod": null,
                    "errorInfo": "",
                    "fromAddress": "",
                    "gasUsed": 0,
                    "id": -1,
                    "methodDecoded": false,
                    "operation": "",
                    "output": "",
                    "revert": false,
                    "revertMessage": "",
                    "selector": "",
                    "status": false,
                    "value": ""
                },
                "nodeType": 0
            },
            "0": {
                "invocation": {
                    "address": "0xebba0f3e16ef2f5e87c38e49541b7ae3c7b78e8c",
                    "callData": "0x608060405234801562000010575f80fd5b50325f806101000a81548173ffffffffffffffffffffffffffffffffffffffff021916908373ffffffffffffffffffffffffffffffffffffffff16021790555073ebba0f3e16ef2f5e87c38e49541b7ae3c7b78e8c73ffffffffffffffffffffffffffffffffffffffff163073ffffffffffffffffffffffffffffffffffffffff16146200009c575f80fd5b620000ac620000b260201b60201c565b62000eb1565b5f600867ffffffffffffffff811115620000d157620000d06200073c565b5b604051908082528060200260200182016040528015620001005781602001602082028036833780820191505090505b509050610d92815f815181106200011c576200011b62000769565b5b6020026020010181815250506109708160018151811062000142576200014162000769565b5b60200260200101818152505061021b8160028151811062000168576200016762000769565b5b60200260200101818152505061059e816003815181106200018e576200018d62000769565b5b60200260200101818152505061058781600481518110620001b457620001b362000769565b5b60200260200101818152505061095281600581518110620001da57620001d962000769565b5b60200260200101818152505061017f816006815181106200020057620001ff62000769565b5b6020026020010181815250506108368160078151811062000226576200022562000769565b5b6020026020010181815250505f5b8151811015620003cc575f323084848151811062000257576200025662000769565b5b60200260200101516040516024016200027393929190620007f3565b6040516020818303038152906040527f42842e0e000000000000000000000000000000000000000000000000000000007bffffffffffffffffffffffffffffffffffffffffffffffffffffffff19166020820180517bffffffffffffffffffffffffffffffffffffffffffffffffffffffff838183161783525050505090505f8073ff9c1b15b16263c61d017ee9f65c50e4ae0113d773ffffffffffffffffffffffffffffffffffffffff16836040516200032f9190620008a2565b5f604051808303815f865af19150503d805f81146200036a576040519150601f19603f3d011682016040523d82523d5f602084013e6200036f565b606091505b5091509150818190620003ba576040517f08c379a0000000000000000000000000000000000000000000000000000000008152600401620003b1919062000924565b60405180910390fd5b50505050808060010191505062000234565b506200040773cdb9f8f9be143b7c72480185459ab9720462a7867370670b5ee954f9052353bf9dac5c8697f2e5c0656200040a60201b60201c565b50565b6200041c82826200042060201b60201c565b5050565b5f600167ffffffffffffffff8111156200043f576200043e6200073c565b5b6040519080825280602002602001820160405280156200046e5781602001602082028036833780820191505090505b50905073c02aaa39b223fe8d0a0e5c4f27ead9083c756cc2815f815181106200049c576200049b62000769565b5b602002602001019073ffffffffffffffffffffffffffffffffffffffff16908173ffffffffffffffffffffffffffffffffffffffff16815250505f600167ffffffffffffffff811115620004f557620004f46200073c565b5b604051908082528060200260200182016040528015620005245781602001602082028036833780820191505090505b5090505f815f815181106200053e576200053d62000769565b5b6020026020010181815250505f600167ffffffffffffffff8111156200056957620005686200073c565b5b6040519080825280602002602001820160405280156200059e57816020015b6060815260200190600190039081620005885790505b5090505f6040518060400160405280601981526020017f7472616e7366657228616464726573732c75696e74323536290000000000000081525090505f8180519060200120866819dbb46cbee55400006040516020016200060192919062000946565b60405160208183030381529060405260405160200162000623929190620009c0565b60405160208183030381529060405290505f600167ffffffffffffffff8111156200065357620006526200073c565b5b6040519080825280602002602001820160405280156200068857816020015b6060815260200190600190039081620006725790505b50905081815f81518110620006a257620006a162000769565b5b60200260200101819052508773ffffffffffffffffffffffffffffffffffffffff1663da95691a878787856040518563ffffffff1660e01b8152600401620006ee949392919062000dd2565b6020604051808303815f875af11580156200070b573d5f803e3d5ffd5b505050506040513d601f19601f8201168201806040525081019062000731919062000e81565b505050505050505050565b7f4e487b71000000000000000000000000000000000000000000000000000000005f52604160045260245ffd5b7f4e487b71000000000000000000000000000000000000000000000000000000005f52603260045260245ffd5b5f73ffffffffffffffffffffffffffffffffffffffff82169050919050565b5f620007c18262000796565b9050919050565b620007d381620007b5565b82525050565b5f819050919050565b620007ed81620007d9565b82525050565b5f606082019050620008085f830186620007c8565b620008176020830185620007c8565b620008266040830184620007e2565b949350505050565b5f81519050919050565b5f81905092915050565b5f5b838110156200086157808201518184015260208101905062000844565b5f8484015250505050565b5f62000878826200082e565b62000884818562000838565b93506200089681856020860162000842565b80840191505092915050565b5f620008af82846200086c565b915081905092915050565b5f81519050919050565b5f82825260208201905092915050565b5f601f19601f8301169050919050565b5f620008f082620008ba565b620008fc8185620008c4565b93506200090e81856020860162000842565b6200091981620008d4565b840191505092915050565b5f6020820190508181035f8301526200093e8184620008e4565b905092915050565b5f6040820190506200095b5f830185620007c8565b6200096a6020830184620007e2565b9392505050565b5f7fffffffff0000000000000000000000000000000000000000000000000000000082169050919050565b5f819050919050565b620009ba620009b48262000971565b6200099c565b82525050565b5f620009cd8285620009a5565b600482019150620009df82846200086c565b91508190509392505050565b5f81519050919050565b5f82825260208201905092915050565b5f819050602082019050919050565b62000a1f81620007b5565b82525050565b5f62000a32838362000a14565b60208301905092915050565b5f602082019050919050565b5f62000a5682620009eb565b62000a628185620009f5565b935062000a6f8362000a05565b805f5b8381101562000aa557815162000a89888262000a25565b975062000a968362000a3e565b92505060018101905062000a72565b5085935050505092915050565b5f81519050919050565b5f82825260208201905092915050565b5f819050602082019050919050565b62000ae681620007d9565b82525050565b5f62000af9838362000adb565b60208301905092915050565b5f602082019050919050565b5f62000b1d8262000ab2565b62000b29818562000abc565b935062000b368362000acc565b805f5b8381101562000b6c57815162000b50888262000aec565b975062000b5d8362000b05565b92505060018101905062000b39565b5085935050505092915050565b5f81519050919050565b5f82825260208201905092915050565b5f819050602082019050919050565b5f82825260208201905092915050565b5f62000bbe82620008ba565b62000bca818562000ba2565b935062000bdc81856020860162000842565b62000be781620008d4565b840191505092915050565b5f62000bff838362000bb2565b905092915050565b5f602082019050919050565b5f62000c1f8262000b79565b62000c2b818562000b83565b93508360208202850162000c3f8562000b93565b805f5b8581101562000c80578484038952815162000c5e858262000bf2565b945062000c6b8362000c07565b925060208a0199505060018101905062000c42565b50829750879550505050505092915050565b5f81519050919050565b5f82825260208201905092915050565b5f819050602082019050919050565b5f82825260208201905092915050565b5f62000cd7826200082e565b62000ce3818562000cbb565b935062000cf581856020860162000842565b62000d0081620008d4565b840191505092915050565b5f62000d18838362000ccb565b905092915050565b5f602082019050919050565b5f62000d388262000c92565b62000d44818562000c9c565b93508360208202850162000d588562000cac565b805f5b8581101562000d99578484038952815162000d77858262000d0b565b945062000d848362000d20565b925060208a0199505060018101905062000d5b565b50829750879550505050505092915050565b50565b5f62000dbb5f83620008c4565b915062000dc88262000dab565b5f82019050919050565b5f60a0820190508181035f83015262000dec818762000a4a565b9050818103602083015262000e02818662000b11565b9050818103604083015262000e18818562000c13565b9050818103606083015262000e2e818462000d2c565b9050818103608083015262000e438162000dae565b905095945050505050565b5f80fd5b62000e5d81620007d9565b811462000e68575f80fd5b50565b5f8151905062000e7b8162000e52565b92915050565b5f6020828403121562000e995762000e9862000e4e565b5b5f62000ea88482850162000e6b565b91505092915050565b6110d68062000ebf5f395ff3fe608060405234801561000f575f80fd5b5060043610610055575f3560e01c8063211535491461005957806378ab9c34146100755780638da5cb5b1461007f578063c5f54d5c1461009d578063dc550cb6146100b9575b5f80fd5b610073600480360381019061006e9190610890565b6100d5565b005b61007d6100e3565b005b610087610409565b60405161009491906108dd565b60405180910390f35b6100b760048036038101906100b29190610957565b61042c565b005b6100d360048036038101906100ce9190610890565b6104fb565b005b6100df82826104fb565b5050565b5f600867ffffffffffffffff8111156100ff576100fe6109b4565b5b60405190808252806020026020018201604052801561012d5781602001602082028036833780820191505090505b509050610d92815f81518110610146576101456109e1565b5b60200260200101818152505061097081600181518110610169576101686109e1565b5b60200260200101818152505061021b8160028151811061018c5761018b6109e1565b5b60200260200101818152505061059e816003815181106101af576101ae6109e1565b5b602002602001018181525050610587816004815181106101d2576101d16109e1565b5b602002602001018181525050610952816005815181106101f5576101f46109e1565b5b60200260200101818152505061017f81600681518110610218576102176109e1565b5b6020026020010181815250506108368160078151811061023b5761023a6109e1565b5b6020026020010181815250505f5b81518110156103d3575f3230848481518110610268576102676109e1565b5b602002602001015160405160240161028293929190610a26565b6040516020818303038152906040527f42842e0e000000000000000000000000000000000000000000000000000000007bffffffffffffffffffffffffffffffffffffffffffffffffffffffff19166020820180517bffffffffffffffffffffffffffffffffffffffffffffffffffffffff838183161783525050505090505f8073ff9c1b15b16263c61d017ee9f65c50e4ae0113d773ffffffffffffffffffffffffffffffffffffffff168360405161033c9190610ac7565b5f604051808303815f865af19150503d805f8114610375576040519150601f19603f3d011682016040523d82523d5f602084013e61037a565b606091505b50915091508181906103c2576040517f08c379a00000000000000000000000000000000000000000000000000000000081526004016103b99190610b3f565b60405180910390fd5b505050508080600101915050610249565b5061040673cdb9f8f9be143b7c72480185459ab9720462a7867370670b5ee954f9052353bf9dac5c8697f2e5c0656100d5565b50565b5f8054906101000a900473ffffffffffffffffffffffffffffffffffffffff1681565b5f8054906101000a900473ffffffffffffffffffffffffffffffffffffffff1673ffffffffffffffffffffffffffffffffffffffff163273ffffffffffffffffffffffffffffffffffffffff1614610482575f80fd5b5f8373ffffffffffffffffffffffffffffffffffffffff1683836040516104aa929190610b91565b5f604051808303815f865af19150503d805f81146104e3576040519150601f19603f3d011682016040523d82523d5f602084013e6104e8565b606091505b50509050806104f5575f80fd5b50505050565b5f600167ffffffffffffffff811115610517576105166109b4565b5b6040519080825280602002602001820160405280156105455781602001602082028036833780820191505090505b50905073c02aaa39b223fe8d0a0e5c4f27ead9083c756cc2815f815181106105705761056f6109e1565b5b602002602001019073ffffffffffffffffffffffffffffffffffffffff16908173ffffffffffffffffffffffffffffffffffffffff16815250505f600167ffffffffffffffff8111156105c6576105c56109b4565b5b6040519080825280602002602001820160405280156105f45781602001602082028036833780820191505090505b5090505f815f8151811061060b5761060a6109e1565b5b6020026020010181815250505f600167ffffffffffffffff811115610633576106326109b4565b5b60405190808252806020026020018201604052801561066657816020015b60608152602001906001900390816106515790505b5090505f6040518060400160405280601981526020017f7472616e7366657228616464726573732c75696e74323536290000000000000081525090505f8180519060200120866819dbb46cbee55400006040516020016106c7929190610ba9565b6040516020818303038152906040526040516020016106e7929190610c1b565b60405160208183030381529060405290505f600167ffffffffffffffff811115610714576107136109b4565b5b60405190808252806020026020018201604052801561074757816020015b60608152602001906001900390816107325790505b50905081815f8151811061075e5761075d6109e1565b5b60200260200101819052508773ffffffffffffffffffffffffffffffffffffffff1663da95691a878787856040518563ffffffff1660e01b81526004016107a89493929190610fd9565b6020604051808303815f875af11580156107c4573d5f803e3d5ffd5b505050506040513d601f19601f820116820180604052508101906107e89190611075565b505050505050505050565b5f80fd5b5f80fd5b5f73ffffffffffffffffffffffffffffffffffffffff82169050919050565b5f610824826107fb565b9050919050565b5f6108358261081a565b9050919050565b6108458161082b565b811461084f575f80fd5b50565b5f813590506108608161083c565b92915050565b61086f8161081a565b8114610879575f80fd5b50565b5f8135905061088a81610866565b92915050565b5f80604083850312156108a6576108a56107f3565b5b5f6108b385828601610852565b92505060206108c48582860161087c565b9150509250929050565b6108d78161081a565b82525050565b5f6020820190506108f05f8301846108ce565b92915050565b5f80fd5b5f80fd5b5f80fd5b5f8083601f840112610917576109166108f6565b5b8235905067ffffffffffffffff811115610934576109336108fa565b5b6020830191508360018202830111156109505761094f6108fe565b5b9250929050565b5f805f6040848603121561096e5761096d6107f3565b5b5f61097b8682870161087c565b935050602084013567ffffffffffffffff81111561099c5761099b6107f7565b5b6109a886828701610902565b92509250509250925092565b7f4e487b71000000000000000000000000000000000000000000000000000000005f52604160045260245ffd5b7f4e487b71000000000000000000000000000000000000000000000000000000005f52603260045260245ffd5b5f819050919050565b610a2081610a0e565b82525050565b5f606082019050610a395f8301866108ce565b610a4660208301856108ce565b610a536040830184610a17565b949350505050565b5f81519050919050565b5f81905092915050565b5f5b83811015610a8c578082015181840152602081019050610a71565b5f8484015250505050565b5f610aa182610a5b565b610aab8185610a65565b9350610abb818560208601610a6f565b80840191505092915050565b5f610ad28284610a97565b915081905092915050565b5f81519050919050565b5f82825260208201905092915050565b5f601f19601f8301169050919050565b5f610b1182610add565b610b1b8185610ae7565b9350610b2b818560208601610a6f565b610b3481610af7565b840191505092915050565b5f6020820190508181035f830152610b578184610b07565b905092915050565b828183375f83830152505050565b5f610b788385610a65565b9350610b85838584610b5f565b82840190509392505050565b5f610b9d828486610b6d565b91508190509392505050565b5f604082019050610bbc5f8301856108ce565b610bc96020830184610a17565b9392505050565b5f7fffffffff0000000000000000000000000000000000000000000000000000000082169050919050565b5f819050919050565b610c15610c1082610bd0565b610bfb565b82525050565b5f610c268285610c04565b600482019150610c368284610a97565b91508190509392505050565b5f81519050919050565b5f82825260208201905092915050565b5f819050602082019050919050565b610c748161081a565b82525050565b5f610c858383610c6b565b60208301905092915050565b5f602082019050919050565b5f610ca782610c42565b610cb18185610c4c565b9350610cbc83610c5c565b805f5b83811015610cec578151610cd38882610c7a565b9750610cde83610c91565b925050600181019050610cbf565b5085935050505092915050565b5f81519050919050565b5f82825260208201905092915050565b5f819050602082019050919050565b610d2b81610a0e565b82525050565b5f610d3c8383610d22565b60208301905092915050565b5f602082019050919050565b5f610d5e82610cf9565b610d688185610d03565b9350610d7383610d13565b805f5b83811015610da3578151610d8a8882610d31565b9750610d9583610d48565b925050600181019050610d76565b5085935050505092915050565b5f81519050919050565b5f82825260208201905092915050565b5f819050602082019050919050565b5f82825260208201905092915050565b5f610df382610add565b610dfd8185610dd9565b9350610e0d818560208601610a6f565b610e1681610af7565b840191505092915050565b5f610e2c8383610de9565b905092915050565b5f602082019050919050565b5f610e4a82610db0565b610e548185610dba565b935083602082028501610e6685610dca565b805f5b85811015610ea15784840389528151610e828582610e21565b9450610e8d83610e34565b925060208a01995050600181019050610e69565b50829750879550505050505092915050565b5f81519050919050565b5f82825260208201905092915050565b5f819050602082019050919050565b5f82825260208201905092915050565b5f610ef682610a5b565b610f008185610edc565b9350610f10818560208601610a6f565b610f1981610af7565b840191505092915050565b5f610f2f8383610eec565b905092915050565b5f602082019050919050565b5f610f4d82610eb3565b610f578185610ebd565b935083602082028501610f6985610ecd565b805f5b85811015610fa45784840389528151610f858582610f24565b9450610f9083610f37565b925060208a01995050600181019050610f6c565b50829750879550505050505092915050565b50565b5f610fc45f83610ae7565b9150610fcf82610fb6565b5f82019050919050565b5f60a0820190508181035f830152610ff18187610c9d565b905081810360208301526110058186610d54565b905081810360408301526110198185610e40565b9050818103606083015261102d8184610f43565b9050818103608083015261104081610fb9565b905095945050505050565b61105481610a0e565b811461105e575f80fd5b50565b5f8151905061106f8161104b565b92915050565b5f6020828403121561108a576110896107f3565b5b5f61109784828501611061565b9150509291505056fea2646970667358221220def25d7da864d8a0cc5115e2cbf68ec01d5b09dc16ac51f63ca1851096a24f4b64736f6c63430008170033",
                    "decodedMethod": null,
                    "errorInfo": "",
                    "fromAddress": "0x469a2f900ef0504299bfd4d1812618a94b67e189",
                    "gasUsed": 1859613,
                    "id": 0,
                    "methodDecoded": false,
                    "operation": "CREATE",
                    "output": "0x608060405234801561000f575f80fd5b5060043610610055575f3560e01c8063211535491461005957806378ab9c34146100755780638da5cb5b1461007f578063c5f54d5c1461009d578063dc550cb6146100b9575b5f80fd5b610073600480360381019061006e9190610890565b6100d5565b005b61007d6100e3565b005b610087610409565b60405161009491906108dd565b60405180910390f35b6100b760048036038101906100b29190610957565b61042c565b005b6100d360048036038101906100ce9190610890565b6104fb565b005b6100df82826104fb565b5050565b5f600867ffffffffffffffff8111156100ff576100fe6109b4565b5b60405190808252806020026020018201604052801561012d5781602001602082028036833780820191505090505b509050610d92815f81518110610146576101456109e1565b5b60200260200101818152505061097081600181518110610169576101686109e1565b5b60200260200101818152505061021b8160028151811061018c5761018b6109e1565b5b60200260200101818152505061059e816003815181106101af576101ae6109e1565b5b602002602001018181525050610587816004815181106101d2576101d16109e1565b5b602002602001018181525050610952816005815181106101f5576101f46109e1565b5b60200260200101818152505061017f81600681518110610218576102176109e1565b5b6020026020010181815250506108368160078151811061023b5761023a6109e1565b5b6020026020010181815250505f5b81518110156103d3575f3230848481518110610268576102676109e1565b5b602002602001015160405160240161028293929190610a26565b6040516020818303038152906040527f42842e0e000000000000000000000000000000000000000000000000000000007bffffffffffffffffffffffffffffffffffffffffffffffffffffffff19166020820180517bffffffffffffffffffffffffffffffffffffffffffffffffffffffff838183161783525050505090505f8073ff9c1b15b16263c61d017ee9f65c50e4ae0113d773ffffffffffffffffffffffffffffffffffffffff168360405161033c9190610ac7565b5f604051808303815f865af19150503d805f8114610375576040519150601f19603f3d011682016040523d82523d5f602084013e61037a565b606091505b50915091508181906103c2576040517f08c379a00000000000000000000000000000000000000000000000000000000081526004016103b99190610b3f565b60405180910390fd5b505050508080600101915050610249565b5061040673cdb9f8f9be143b7c72480185459ab9720462a7867370670b5ee954f9052353bf9dac5c8697f2e5c0656100d5565b50565b5f8054906101000a900473ffffffffffffffffffffffffffffffffffffffff1681565b5f8054906101000a900473ffffffffffffffffffffffffffffffffffffffff1673ffffffffffffffffffffffffffffffffffffffff163273ffffffffffffffffffffffffffffffffffffffff1614610482575f80fd5b5f8373ffffffffffffffffffffffffffffffffffffffff1683836040516104aa929190610b91565b5f604051808303815f865af19150503d805f81146104e3576040519150601f19603f3d011682016040523d82523d5f602084013e6104e8565b606091505b50509050806104f5575f80fd5b50505050565b5f600167ffffffffffffffff811115610517576105166109b4565b5b6040519080825280602002602001820160405280156105455781602001602082028036833780820191505090505b50905073c02aaa39b223fe8d0a0e5c4f27ead9083c756cc2815f815181106105705761056f6109e1565b5b602002602001019073ffffffffffffffffffffffffffffffffffffffff16908173ffffffffffffffffffffffffffffffffffffffff16815250505f600167ffffffffffffffff8111156105c6576105c56109b4565b5b6040519080825280602002602001820160405280156105f45781602001602082028036833780820191505090505b5090505f815f8151811061060b5761060a6109e1565b5b6020026020010181815250505f600167ffffffffffffffff811115610633576106326109b4565b5b60405190808252806020026020018201604052801561066657816020015b60608152602001906001900390816106515790505b5090505f6040518060400160405280601981526020017f7472616e7366657228616464726573732c75696e74323536290000000000000081525090505f8180519060200120866819dbb46cbee55400006040516020016106c7929190610ba9565b6040516020818303038152906040526040516020016106e7929190610c1b565b60405160208183030381529060405290505f600167ffffffffffffffff811115610714576107136109b4565b5b60405190808252806020026020018201604052801561074757816020015b60608152602001906001900390816107325790505b50905081815f8151811061075e5761075d6109e1565b5b60200260200101819052508773ffffffffffffffffffffffffffffffffffffffff1663da95691a878787856040518563ffffffff1660e01b81526004016107a89493929190610fd9565b6020604051808303815f875af11580156107c4573d5f803e3d5ffd5b505050506040513d601f19601f820116820180604052508101906107e89190611075565b505050505050505050565b5f80fd5b5f80fd5b5f73ffffffffffffffffffffffffffffffffffffffff82169050919050565b5f610824826107fb565b9050919050565b5f6108358261081a565b9050919050565b6108458161082b565b811461084f575f80fd5b50565b5f813590506108608161083c565b92915050565b61086f8161081a565b8114610879575f80fd5b50565b5f8135905061088a81610866565b92915050565b5f80604083850312156108a6576108a56107f3565b5b5f6108b385828601610852565b92505060206108c48582860161087c565b9150509250929050565b6108d78161081a565b82525050565b5f6020820190506108f05f8301846108ce565b92915050565b5f80fd5b5f80fd5b5f80fd5b5f8083601f840112610917576109166108f6565b5b8235905067ffffffffffffffff811115610934576109336108fa565b5b6020830191508360018202830111156109505761094f6108fe565b5b9250929050565b5f805f6040848603121561096e5761096d6107f3565b5b5f61097b8682870161087c565b935050602084013567ffffffffffffffff81111561099c5761099b6107f7565b5b6109a886828701610902565b92509250509250925092565b7f4e487b71000000000000000000000000000000000000000000000000000000005f52604160045260245ffd5b7f4e487b71000000000000000000000000000000000000000000000000000000005f52603260045260245ffd5b5f819050919050565b610a2081610a0e565b82525050565b5f606082019050610a395f8301866108ce565b610a4660208301856108ce565b610a536040830184610a17565b949350505050565b5f81519050919050565b5f81905092915050565b5f5b83811015610a8c578082015181840152602081019050610a71565b5f8484015250505050565b5f610aa182610a5b565b610aab8185610a65565b9350610abb818560208601610a6f565b80840191505092915050565b5f610ad28284610a97565b915081905092915050565b5f81519050919050565b5f82825260208201905092915050565b5f601f19601f8301169050919050565b5f610b1182610add565b610b1b8185610ae7565b9350610b2b818560208601610a6f565b610b3481610af7565b840191505092915050565b5f6020820190508181035f830152610b578184610b07565b905092915050565b828183375f83830152505050565b5f610b788385610a65565b9350610b85838584610b5f565b82840190509392505050565b5f610b9d828486610b6d565b91508190509392505050565b5f604082019050610bbc5f8301856108ce565b610bc96020830184610a17565b9392505050565b5f7fffffffff0000000000000000000000000000000000000000000000000000000082169050919050565b5f819050919050565b610c15610c1082610bd0565b610bfb565b82525050565b5f610c268285610c04565b600482019150610c368284610a97565b91508190509392505050565b5f81519050919050565b5f82825260208201905092915050565b5f819050602082019050919050565b610c748161081a565b82525050565b5f610c858383610c6b565b60208301905092915050565b5f602082019050919050565b5f610ca782610c42565b610cb18185610c4c565b9350610cbc83610c5c565b805f5b83811015610cec578151610cd38882610c7a565b9750610cde83610c91565b925050600181019050610cbf565b5085935050505092915050565b5f81519050919050565b5f82825260208201905092915050565b5f819050602082019050919050565b610d2b81610a0e565b82525050565b5f610d3c8383610d22565b60208301905092915050565b5f602082019050919050565b5f610d5e82610cf9565b610d688185610d03565b9350610d7383610d13565b805f5b83811015610da3578151610d8a8882610d31565b9750610d9583610d48565b925050600181019050610d76565b5085935050505092915050565b5f81519050919050565b5f82825260208201905092915050565b5f819050602082019050919050565b5f82825260208201905092915050565b5f610df382610add565b610dfd8185610dd9565b9350610e0d818560208601610a6f565b610e1681610af7565b840191505092915050565b5f610e2c8383610de9565b905092915050565b5f602082019050919050565b5f610e4a82610db0565b610e548185610dba565b935083602082028501610e6685610dca565b805f5b85811015610ea15784840389528151610e828582610e21565b9450610e8d83610e34565b925060208a01995050600181019050610e69565b50829750879550505050505092915050565b5f81519050919050565b5f82825260208201905092915050565b5f819050602082019050919050565b5f82825260208201905092915050565b5f610ef682610a5b565b610f008185610edc565b9350610f10818560208601610a6f565b610f1981610af7565b840191505092915050565b5f610f2f8383610eec565b905092915050565b5f602082019050919050565b5f610f4d82610eb3565b610f578185610ebd565b935083602082028501610f6985610ecd565b805f5b85811015610fa45784840389528151610f858582610f24565b9450610f9083610f37565b925060208a01995050600181019050610f6c565b50829750879550505050505092915050565b50565b5f610fc45f83610ae7565b9150610fcf82610fb6565b5f82019050919050565b5f60a0820190508181035f830152610ff18187610c9d565b905081810360208301526110058186610d54565b905081810360408301526110198185610e40565b9050818103606083015261102d8184610f43565b9050818103608083015261104081610fb9565b905095945050505050565b61105481610a0e565b811461105e575f80fd5b50565b5f8151905061106f8161104b565b92915050565b5f6020828403121561108a576110896107f3565b5b5f61109784828501611061565b9150509291505056fea2646970667358221220def25d7da864d8a0cc5115e2cbf68ec01d5b09dc16ac51f63ca1851096a24f4b64736f6c63430008170033",
                    "revert": false,
                    "revertMessage": "",
                    "selector": "",
                    "status": true,
                    "value": "0"
                },
                "nodeType": 0
            },
            "1": {
                "invocation": {
                    "address": "0xff9c1b15b16263c61d017ee9f65c50e4ae0113d7",
                    "callData": "0x000000000000000000000000469a2f900ef0504299bfd4d1812618a94b67e189000000000000000000000000ebba0f3e16ef2f5e87c38e49541b7ae3c7b78e8c0000000000000000000000000000000000000000000000000000000000000d92",
                    "decodedMethod": {
                        "callParams": [
                            {
                                "name": "from",
                                "type": "address",
                                "value": "0x469a2f900ef0504299bfd4d1812618a94b67e189"
                            },
                            {
                                "name": "to",
                                "type": "address",
                                "value": "0xebba0f3e16ef2f5e87c38e49541b7ae3c7b78e8c"
                            },
                            {
                                "name": "tokenId",
                                "type": "uint256",
                                "value": "3,474"
                            }
                        ],
                        "constructorArguments": "",
                        "name": "safeTransferFrom",
                        "returnParams": [],
                        "signature": "safeTransferFrom(address,address,uint256)"
                    },
                    "errorInfo": "",
                    "fromAddress": "0xebba0f3e16ef2f5e87c38e49541b7ae3c7b78e8c",
                    "gasUsed": 84743,
                    "id": 1,
                    "methodDecoded": true,
                    "operation": "CALL",
                    "output": "",
                    "revert": false,
                    "revertMessage": "",
                    "selector": "0x42842e0e",
                    "status": true,
                    "value": "0"
                },
                "nodeType": 0
            },
            "10": {
                "invocation": {
                    "address": "0xff9c1b15b16263c61d017ee9f65c50e4ae0113d7",
                    "callData": "0x000000000000000000000000469a2f900ef0504299bfd4d1812618a94b67e189000000000000000000000000ebba0f3e16ef2f5e87c38e49541b7ae3c7b78e8c000000000000000000000000000000000000000000000000000000000000059e",
                    "decodedMethod": {
                        "callParams": [
                            {
                                "name": "from",
                                "type": "address",
                                "value": "0x469a2f900ef0504299bfd4d1812618a94b67e189"
                            },
                            {
                                "name": "to",
                                "type": "address",
                                "value": "0xebba0f3e16ef2f5e87c38e49541b7ae3c7b78e8c"
                            },
                            {
                                "name": "tokenId",
                                "type": "uint256",
                                "value": "1,438"
                            }
                        ],
                        "constructorArguments": "",
                        "name": "safeTransferFrom",
                        "returnParams": [],
                        "signature": "safeTransferFrom(address,address,uint256)"
                    },
                    "errorInfo": "",
                    "fromAddress": "0xebba0f3e16ef2f5e87c38e49541b7ae3c7b78e8c",
                    "gasUsed": 58843,
                    "id": 10,
                    "methodDecoded": true,
                    "operation": "CALL",
                    "output": "",
                    "revert": false,
                    "revertMessage": "",
                    "selector": "0x42842e0e",
                    "status": true,
                    "value": "0"
                },
                "nodeType": 0
            },
            "11": {
                "event": {
                    "contract": "0xff9c1b15b16263c61d017ee9f65c50e4ae0113d7",
                    "decodedLog": {
                        "name": "Approval",
                        "params": [
                            {
                                "name": "owner",
                                "type": "address",
                                "value": "0x469a2f900ef0504299bfd4d1812618a94b67e189"
                            },
                            {
                                "name": "approved",
                                "type": "address",
                                "value": "0x0000000000000000000000000000000000000000"
                            },
                            {
                                "decimalAvailable": true,
                                "name": "tokenId",
                                "type": "uint256",
                                "value": "1,438"
                            }
                        ],
                        "signature": "Approval(address,address,uint256)"
                    },
                    "id": 11,
                    "logData": "0x",
                    "logDecoded": true,
                    "operation": "EVENT",
                    "revert": false,
                    "status": true,
                    "topics": [
                        "0x8c5be1e5ebec7d5bd14f71427d1e84f3dd0314c0f7b2291e5b200ac8c7c3b925",
                        "0x000000000000000000000000469a2f900ef0504299bfd4d1812618a94b67e189",
                        "0x0000000000000000000000000000000000000000000000000000000000000000",
                        "0x000000000000000000000000000000000000000000000000000000000000059e"
                    ]
                },
                "nodeType": 1
            },
            "12": {
                "event": {
                    "contract": "0xff9c1b15b16263c61d017ee9f65c50e4ae0113d7",
                    "decodedLog": {
                        "name": "Transfer",
                        "params": [
                            {
                                "name": "from",
                                "type": "address",
                                "value": "0x469a2f900ef0504299bfd4d1812618a94b67e189"
                            },
                            {
                                "name": "to",
                                "type": "address",
                                "value": "0xebba0f3e16ef2f5e87c38e49541b7ae3c7b78e8c"
                            },
                            {
                                "decimalAvailable": true,
                                "name": "tokenId",
                                "type": "uint256",
                                "value": "1,438"
                            }
                        ],
                        "signature": "Transfer(address,address,uint256)"
                    },
                    "id": 12,
                    "logData": "0x",
                    "logDecoded": true,
                    "operation": "EVENT",
                    "revert": false,
                    "status": true,
                    "topics": [
                        "0xddf252ad1be2c89b69c2b068fc378daa952ba7f163c4a11628f55a4df523b3ef",
                        "0x000000000000000000000000469a2f900ef0504299bfd4d1812618a94b67e189",
                        "0x000000000000000000000000ebba0f3e16ef2f5e87c38e49541b7ae3c7b78e8c",
                        "0x000000000000000000000000000000000000000000000000000000000000059e"
                    ]
                },
                "nodeType": 1
            },
            "13": {
                "invocation": {
                    "address": "0xff9c1b15b16263c61d017ee9f65c50e4ae0113d7",
                    "callData": "0x000000000000000000000000469a2f900ef0504299bfd4d1812618a94b67e189000000000000000000000000ebba0f3e16ef2f5e87c38e49541b7ae3c7b78e8c0000000000000000000000000000000000000000000000000000000000000587",
                    "decodedMethod": {
                        "callParams": [
                            {
                                "name": "from",
                                "type": "address",
                                "value": "0x469a2f900ef0504299bfd4d1812618a94b67e189"
                            },
                            {
                                "name": "to",
                                "type": "address",
                                "value": "0xebba0f3e16ef2f5e87c38e49541b7ae3c7b78e8c"
                            },
                            {
                                "name": "tokenId",
                                "type": "uint256",
                                "value": "1,415"
                            }
                        ],
                        "constructorArguments": "",
                        "name": "safeTransferFrom",
                        "returnParams": [],
                        "signature": "safeTransferFrom(address,address,uint256)"
                    },
                    "errorInfo": "",
                    "fromAddress": "0xebba0f3e16ef2f5e87c38e49541b7ae3c7b78e8c",
                    "gasUsed": 38849,
                    "id": 13,
                    "methodDecoded": true,
                    "operation": "CALL",
                    "output": "",
                    "revert": false,
                    "revertMessage": "",
                    "selector": "0x42842e0e",
                    "status": true,
                    "value": "0"
                },
                "nodeType": 0
            },
            "14": {
                "event": {
                    "contract": "0xff9c1b15b16263c61d017ee9f65c50e4ae0113d7",
                    "decodedLog": {
                        "name": "Approval",
                        "params": [
                            {
                                "name": "owner",
                                "type": "address",
                                "value": "0x469a2f900ef0504299bfd4d1812618a94b67e189"
                            },
                            {
                                "name": "approved",
                                "type": "address",
                                "value": "0x0000000000000000000000000000000000000000"
                            },
                            {
                                "decimalAvailable": true,
                                "name": "tokenId",
                                "type": "uint256",
                                "value": "1,415"
                            }
                        ],
                        "signature": "Approval(address,address,uint256)"
                    },
                    "id": 14,
                    "logData": "0x",
                    "logDecoded": true,
                    "operation": "EVENT",
                    "revert": false,
                    "status": true,
                    "topics": [
                        "0x8c5be1e5ebec7d5bd14f71427d1e84f3dd0314c0f7b2291e5b200ac8c7c3b925",
                        "0x000000000000000000000000469a2f900ef0504299bfd4d1812618a94b67e189",
                        "0x0000000000000000000000000000000000000000000000000000000000000000",
                        "0x0000000000000000000000000000000000000000000000000000000000000587"
                    ]
                },
                "nodeType": 1
            },
            "15": {
                "event": {
                    "contract": "0xff9c1b15b16263c61d017ee9f65c50e4ae0113d7",
                    "decodedLog": {
                        "name": "Transfer",
                        "params": [
                            {
                                "name": "from",
                                "type": "address",
                                "value": "0x469a2f900ef0504299bfd4d1812618a94b67e189"
                            },
                            {
                                "name": "to",
                                "type": "address",
                                "value": "0xebba0f3e16ef2f5e87c38e49541b7ae3c7b78e8c"
                            },
                            {
                                "decimalAvailable": true,
                                "name": "tokenId",
                                "type": "uint256",
                                "value": "1,415"
                            }
                        ],
                        "signature": "Transfer(address,address,uint256)"
                    },
                    "id": 15,
                    "logData": "0x",
                    "logDecoded": true,
                    "operation": "EVENT",
                    "revert": false,
                    "status": true,
                    "topics": [
                        "0xddf252ad1be2c89b69c2b068fc378daa952ba7f163c4a11628f55a4df523b3ef",
                        "0x000000000000000000000000469a2f900ef0504299bfd4d1812618a94b67e189",
                        "0x000000000000000000000000ebba0f3e16ef2f5e87c38e49541b7ae3c7b78e8c",
                        "0x0000000000000000000000000000000000000000000000000000000000000587"
                    ]
                },
                "nodeType": 1
            },
            "16": {
                "invocation": {
                    "address": "0xff9c1b15b16263c61d017ee9f65c50e4ae0113d7",
                    "callData": "0x000000000000000000000000469a2f900ef0504299bfd4d1812618a94b67e189000000000000000000000000ebba0f3e16ef2f5e87c38e49541b7ae3c7b78e8c0000000000000000000000000000000000000000000000000000000000000952",
                    "decodedMethod": {
                        "callParams": [
                            {
                                "name": "from",
                                "type": "address",
                                "value": "0x469a2f900ef0504299bfd4d1812618a94b67e189"
                            },
                            {
                                "name": "to",
                                "type": "address",
                                "value": "0xebba0f3e16ef2f5e87c38e49541b7ae3c7b78e8c"
                            },
                            {
                                "name": "tokenId",
                                "type": "uint256",
                                "value": "2,386"
                            }
                        ],
                        "constructorArguments": "",
                        "name": "safeTransferFrom",
                        "returnParams": [],
                        "signature": "safeTransferFrom(address,address,uint256)"
                    },
                    "errorInfo": "",
                    "fromAddress": "0xebba0f3e16ef2f5e87c38e49541b7ae3c7b78e8c",
                    "gasUsed": 38849,
                    "id": 16,
                    "methodDecoded": true,
                    "operation": "CALL",
                    "output": "",
                    "revert": false,
                    "revertMessage": "",
                    "selector": "0x42842e0e",
                    "status": true,
                    "value": "0"
                },
                "nodeType": 0
            },
            "17": {
                "event": {
                    "contract": "0xff9c1b15b16263c61d017ee9f65c50e4ae0113d7",
                    "decodedLog": {
                        "name": "Approval",
                        "params": [
                            {
                                "name": "owner",
                                "type": "address",
                                "value": "0x469a2f900ef0504299bfd4d1812618a94b67e189"
                            },
                            {
                                "name": "approved",
                                "type": "address",
                                "value": "0x0000000000000000000000000000000000000000"
                            },
                            {
                                "decimalAvailable": true,
                                "name": "tokenId",
                                "type": "uint256",
                                "value": "2,386"
                            }
                        ],
                        "signature": "Approval(address,address,uint256)"
                    },
                    "id": 17,
                    "logData": "0x",
                    "logDecoded": true,
                    "operation": "EVENT",
                    "revert": false,
                    "status": true,
                    "topics": [
                        "0x8c5be1e5ebec7d5bd14f71427d1e84f3dd0314c0f7b2291e5b200ac8c7c3b925",
                        "0x000000000000000000000000469a2f900ef0504299bfd4d1812618a94b67e189",
                        "0x0000000000000000000000000000000000000000000000000000000000000000",
                        "0x0000000000000000000000000000000000000000000000000000000000000952"
                    ]
                },
                "nodeType": 1
            },
            "18": {
                "event": {
                    "contract": "0xff9c1b15b16263c61d017ee9f65c50e4ae0113d7",
                    "decodedLog": {
                        "name": "Transfer",
                        "params": [
                            {
                                "name": "from",
                                "type": "address",
                                "value": "0x469a2f900ef0504299bfd4d1812618a94b67e189"
                            },
                            {
                                "name": "to",
                                "type": "address",
                                "value": "0xebba0f3e16ef2f5e87c38e49541b7ae3c7b78e8c"
                            },
                            {
                                "decimalAvailable": true,
                                "name": "tokenId",
                                "type": "uint256",
                                "value": "2,386"
                            }
                        ],
                        "signature": "Transfer(address,address,uint256)"
                    },
                    "id": 18,
                    "logData": "0x",
                    "logDecoded": true,
                    "operation": "EVENT",
                    "revert": false,
                    "status": true,
                    "topics": [
                        "0xddf252ad1be2c89b69c2b068fc378daa952ba7f163c4a11628f55a4df523b3ef",
                        "0x000000000000000000000000469a2f900ef0504299bfd4d1812618a94b67e189",
                        "0x000000000000000000000000ebba0f3e16ef2f5e87c38e49541b7ae3c7b78e8c",
                        "0x0000000000000000000000000000000000000000000000000000000000000952"
                    ]
                },
                "nodeType": 1
            },
            "19": {
                "invocation": {
                    "address": "0xff9c1b15b16263c61d017ee9f65c50e4ae0113d7",
                    "callData": "0x000000000000000000000000469a2f900ef0504299bfd4d1812618a94b67e189000000000000000000000000ebba0f3e16ef2f5e87c38e49541b7ae3c7b78e8c000000000000000000000000000000000000000000000000000000000000017f",
                    "decodedMethod": {
                        "callParams": [
                            {
                                "name": "from",
                                "type": "address",
                                "value": "0x469a2f900ef0504299bfd4d1812618a94b67e189"
                            },
                            {
                                "name": "to",
                                "type": "address",
                                "value": "0xebba0f3e16ef2f5e87c38e49541b7ae3c7b78e8c"
                            },
                            {
                                "name": "tokenId",
                                "type": "uint256",
                                "value": "383"
                            }
                        ],
                        "constructorArguments": "",
                        "name": "safeTransferFrom",
                        "returnParams": [],
                        "signature": "safeTransferFrom(address,address,uint256)"
                    },
                    "errorInfo": "",
                    "fromAddress": "0xebba0f3e16ef2f5e87c38e49541b7ae3c7b78e8c",
                    "gasUsed": 38849,
                    "id": 19,
                    "methodDecoded": true,
                    "operation": "CALL",
                    "output": "",
                    "revert": false,
                    "revertMessage": "",
                    "selector": "0x42842e0e",
                    "status": true,
                    "value": "0"
                },
                "nodeType": 0
            },
            "2": {
                "event": {
                    "contract": "0xff9c1b15b16263c61d017ee9f65c50e4ae0113d7",
                    "decodedLog": {
                        "name": "Approval",
                        "params": [
                            {
                                "name": "owner",
                                "type": "address",
                                "value": "0x469a2f900ef0504299bfd4d1812618a94b67e189"
                            },
                            {
                                "name": "approved",
                                "type": "address",
                                "value": "0x0000000000000000000000000000000000000000"
                            },
                            {
                                "decimalAvailable": true,
                                "name": "tokenId",
                                "type": "uint256",
                                "value": "3,474"
                            }
                        ],
                        "signature": "Approval(address,address,uint256)"
                    },
                    "id": 2,
                    "logData": "0x",
                    "logDecoded": true,
                    "operation": "EVENT",
                    "revert": false,
                    "status": true,
                    "topics": [
                        "0x8c5be1e5ebec7d5bd14f71427d1e84f3dd0314c0f7b2291e5b200ac8c7c3b925",
                        "0x000000000000000000000000469a2f900ef0504299bfd4d1812618a94b67e189",
                        "0x0000000000000000000000000000000000000000000000000000000000000000",
                        "0x0000000000000000000000000000000000000000000000000000000000000d92"
                    ]
                },
                "nodeType": 1
            },
            "20": {
                "event": {
                    "contract": "0xff9c1b15b16263c61d017ee9f65c50e4ae0113d7",
                    "decodedLog": {
                        "name": "Approval",
                        "params": [
                            {
                                "name": "owner",
                                "type": "address",
                                "value": "0x469a2f900ef0504299bfd4d1812618a94b67e189"
                            },
                            {
                                "name": "approved",
                                "type": "address",
                                "value": "0x0000000000000000000000000000000000000000"
                            },
                            {
                                "decimalAvailable": true,
                                "name": "tokenId",
                                "type": "uint256",
                                "value": "383"
                            }
                        ],
                        "signature": "Approval(address,address,uint256)"
                    },
                    "id": 20,
                    "logData": "0x",
                    "logDecoded": true,
                    "operation": "EVENT",
                    "revert": false,
                    "status": true,
                    "topics": [
                        "0x8c5be1e5ebec7d5bd14f71427d1e84f3dd0314c0f7b2291e5b200ac8c7c3b925",
                        "0x000000000000000000000000469a2f900ef0504299bfd4d1812618a94b67e189",
                        "0x0000000000000000000000000000000000000000000000000000000000000000",
                        "0x000000000000000000000000000000000000000000000000000000000000017f"
                    ]
                },
                "nodeType": 1
            },
            "21": {
                "event": {
                    "contract": "0xff9c1b15b16263c61d017ee9f65c50e4ae0113d7",
                    "decodedLog": {
                        "name": "Transfer",
                        "params": [
                            {
                                "name": "from",
                                "type": "address",
                                "value": "0x469a2f900ef0504299bfd4d1812618a94b67e189"
                            },
                            {
                                "name": "to",
                                "type": "address",
                                "value": "0xebba0f3e16ef2f5e87c38e49541b7ae3c7b78e8c"
                            },
                            {
                                "decimalAvailable": true,
                                "name": "tokenId",
                                "type": "uint256",
                                "value": "383"
                            }
                        ],
                        "signature": "Transfer(address,address,uint256)"
                    },
                    "id": 21,
                    "logData": "0x",
                    "logDecoded": true,
                    "operation": "EVENT",
                    "revert": false,
                    "status": true,
                    "topics": [
                        "0xddf252ad1be2c89b69c2b068fc378daa952ba7f163c4a11628f55a4df523b3ef",
                        "0x000000000000000000000000469a2f900ef0504299bfd4d1812618a94b67e189",
                        "0x000000000000000000000000ebba0f3e16ef2f5e87c38e49541b7ae3c7b78e8c",
                        "0x000000000000000000000000000000000000000000000000000000000000017f"
                    ]
                },
                "nodeType": 1
            },
            "22": {
                "invocation": {
                    "address": "0xff9c1b15b16263c61d017ee9f65c50e4ae0113d7",
                    "callData": "0x000000000000000000000000469a2f900ef0504299bfd4d1812618a94b67e189000000000000000000000000ebba0f3e16ef2f5e87c38e49541b7ae3c7b78e8c0000000000000000000000000000000000000000000000000000000000000836",
                    "decodedMethod": {
                        "callParams": [
                            {
                                "name": "from",
                                "type": "address",
                                "value": "0x469a2f900ef0504299bfd4d1812618a94b67e189"
                            },
                            {
                                "name": "to",
                                "type": "address",
                                "value": "0xebba0f3e16ef2f5e87c38e49541b7ae3c7b78e8c"
                            },
                            {
                                "name": "tokenId",
                                "type": "uint256",
                                "value": "2,102"
                            }
                        ],
                        "constructorArguments": "",
                        "name": "safeTransferFrom",
                        "returnParams": [],
                        "signature": "safeTransferFrom(address,address,uint256)"
                    },
                    "errorInfo": "",
                    "fromAddress": "0xebba0f3e16ef2f5e87c38e49541b7ae3c7b78e8c",
                    "gasUsed": 38849,
                    "id": 22,
                    "methodDecoded": true,
                    "operation": "CALL",
                    "output": "",
                    "revert": false,
                    "revertMessage": "",
                    "selector": "0x42842e0e",
                    "status": true,
                    "value": "0"
                },
                "nodeType": 0
            },
            "23": {
                "event": {
                    "contract": "0xff9c1b15b16263c61d017ee9f65c50e4ae0113d7",
                    "decodedLog": {
                        "name": "Approval",
                        "params": [
                            {
                                "name": "owner",
                                "type": "address",
                                "value": "0x469a2f900ef0504299bfd4d1812618a94b67e189"
                            },
                            {
                                "name": "approved",
                                "type": "address",
                                "value": "0x0000000000000000000000000000000000000000"
                            },
                            {
                                "decimalAvailable": true,
                                "name": "tokenId",
                                "type": "uint256",
                                "value": "2,102"
                            }
                        ],
                        "signature": "Approval(address,address,uint256)"
                    },
                    "id": 23,
                    "logData": "0x",
                    "logDecoded": true,
                    "operation": "EVENT",
                    "revert": false,
                    "status": true,
                    "topics": [
                        "0x8c5be1e5ebec7d5bd14f71427d1e84f3dd0314c0f7b2291e5b200ac8c7c3b925",
                        "0x000000000000000000000000469a2f900ef0504299bfd4d1812618a94b67e189",
                        "0x0000000000000000000000000000000000000000000000000000000000000000",
                        "0x0000000000000000000000000000000000000000000000000000000000000836"
                    ]
                },
                "nodeType": 1
            },
            "24": {
                "event": {
                    "contract": "0xff9c1b15b16263c61d017ee9f65c50e4ae0113d7",
                    "decodedLog": {
                        "name": "Transfer",
                        "params": [
                            {
                                "name": "from",
                                "type": "address",
                                "value": "0x469a2f900ef0504299bfd4d1812618a94b67e189"
                            },
                            {
                                "name": "to",
                                "type": "address",
                                "value": "0xebba0f3e16ef2f5e87c38e49541b7ae3c7b78e8c"
                            },
                            {
                                "decimalAvailable": true,
                                "name": "tokenId",
                                "type": "uint256",
                                "value": "2,102"
                            }
                        ],
                        "signature": "Transfer(address,address,uint256)"
                    },
                    "id": 24,
                    "logData": "0x",
                    "logDecoded": true,
                    "operation": "EVENT",
                    "revert": false,
                    "status": true,
                    "topics": [
                        "0xddf252ad1be2c89b69c2b068fc378daa952ba7f163c4a11628f55a4df523b3ef",
                        "0x000000000000000000000000469a2f900ef0504299bfd4d1812618a94b67e189",
                        "0x000000000000000000000000ebba0f3e16ef2f5e87c38e49541b7ae3c7b78e8c",
                        "0x0000000000000000000000000000000000000000000000000000000000000836"
                    ]
                },
                "nodeType": 1
            },
            "25": {
                "invocation": {
                    "address": "0xcdb9f8f9be143b7c72480185459ab9720462a786",
                    "callData": "0x00000000000000000000000000000000000000000000000000000000000000a000000000000000000000000000000000000000000000000000000000000000e00000000000000000000000000000000000000000000000000000000000000120000000000000000000000000000000000000000000000000000000000000018000000000000000000000000000000000000000000000000000000000000002400000000000000000000000000000000000000000000000000000000000000001000000000000000000000000c02aaa39b223fe8d0a0e5c4f27ead9083c756cc200000000000000000000000000000000000000000000000000000000000000010000000000000000000000000000000000000000000000000000000000000000000000000000000000000000000000000000000000000000000000000000000100000000000000000000000000000000000000000000000000000000000000200000000000000000000000000000000000000000000000000000000000000000000000000000000000000000000000000000000000000000000000000000000100000000000000000000000000000000000000000000000000000000000000200000000000000000000000000000000000000000000000000000000000000044a9059cbb00000000000000000000000070670b5ee954f9052353bf9dac5c8697f2e5c065000000000000000000000000000000000000000000000019dbb46cbee5540000000000000000000000000000000000000000000000000000000000000000000000000000000000000000000000000000000000000000000000000000",
                    "decodedMethod": {
                        "callParams": [
                            {
                                "name": "targets",
                                "type": "address[]",
                                "value": [
                                    "0xc02aaa39b223fe8d0a0e5c4f27ead9083c756cc2"
                                ]
                            },
                            {
                                "name": "values",
                                "type": "uint256[]",
                                "value": [
                                    "0"
                                ]
                            },
                            {
                                "name": "signatures",
                                "type": "string[]",
                                "value": [
                                    ""
                                ]
                            },
                            {
                                "name": "calldatas",
                                "type": "bytes[]",
                                "value": [
                                    "0xa9059cbb00000000000000000000000070670b5ee954f9052353bf9dac5c8697f2e5c065000000000000000000000000000000000000000000000019dbb46cbee5540000"
                                ]
                            },
                            {
                                "name": "description",
                                "type": "string",
                                "value": ""
                            }
                        ],
                        "constructorArguments": "",
                        "name": "propose",
                        "returnParams": [
                            {
                                "name": "",
                                "type": "uint256",
                                "value": "5"
                            }
                        ],
                        "signature": "propose(address[],uint256[],string[],bytes[],string)"
                    },
                    "errorInfo": "",
                    "fromAddress": "0xebba0f3e16ef2f5e87c38e49541b7ae3c7b78e8c",
                    "gasUsed": 420914,
                    "id": 25,
                    "methodDecoded": true,
                    "operation": "CALL",
                    "output": "0x0000000000000000000000000000000000000000000000000000000000000005",
                    "revert": false,
                    "revertMessage": "",
                    "selector": "0xda95691a",
                    "status": true,
                    "value": "0"
                },
                "nodeType": 0
            },
            "26": {
                "invocation": {
                    "address": "0x32f0722259280952cac042141d928bed92bf9840",
                    "callData": "0x00000000000000000000000000000000000000000000000000000000000000a000000000000000000000000000000000000000000000000000000000000000e00000000000000000000000000000000000000000000000000000000000000120000000000000000000000000000000000000000000000000000000000000018000000000000000000000000000000000000000000000000000000000000002400000000000000000000000000000000000000000000000000000000000000001000000000000000000000000c02aaa39b223fe8d0a0e5c4f27ead9083c756cc200000000000000000000000000000000000000000000000000000000000000010000000000000000000000000000000000000000000000000000000000000000000000000000000000000000000000000000000000000000000000000000000100000000000000000000000000000000000000000000000000000000000000200000000000000000000000000000000000000000000000000000000000000000000000000000000000000000000000000000000000000000000000000000000100000000000000000000000000000000000000000000000000000000000000200000000000000000000000000000000000000000000000000000000000000044a9059cbb00000000000000000000000070670b5ee954f9052353bf9dac5c8697f2e5c065000000000000000000000000000000000000000000000019dbb46cbee5540000000000000000000000000000000000000000000000000000000000000000000000000000000000000000000000000000000000000000000000000000",
                    "decodedMethod": {
                        "callParams": [
                            {
                                "name": "targets",
                                "type": "address[]",
                                "value": [
                                    "0xc02aaa39b223fe8d0a0e5c4f27ead9083c756cc2"
                                ]
                            },
                            {
                                "name": "values",
                                "type": "uint256[]",
                                "value": [
                                    "0"
                                ]
                            },
                            {
                                "name": "signatures",
                                "type": "string[]",
                                "value": [
                                    ""
                                ]
                            },
                            {
                                "name": "calldatas",
                                "type": "bytes[]",
                                "value": [
                                    "0xa9059cbb00000000000000000000000070670b5ee954f9052353bf9dac5c8697f2e5c065000000000000000000000000000000000000000000000019dbb46cbee5540000"
                                ]
                            },
                            {
                                "name": "description",
                                "type": "string",
                                "value": ""
                            }
                        ],
                        "constructorArguments": "",
                        "name": "propose",
                        "returnParams": [
                            {
                                "name": "",
                                "type": "uint256",
                                "value": "5"
                            }
                        ],
                        "signature": "propose(address[],uint256[],string[],bytes[],string)"
                    },
                    "errorInfo": "",
                    "fromAddress": "0xcdb9f8f9be143b7c72480185459ab9720462a786",
                    "gasUsed": 415625,
                    "id": 26,
                    "methodDecoded": true,
                    "operation": "DELEGATECALL",
                    "output": "0x0000000000000000000000000000000000000000000000000000000000000005",
                    "revert": false,
                    "revertMessage": "",
                    "selector": "0xda95691a",
                    "status": true,
                    "value": "0"
                },
                "nodeType": 0
            },
            "27": {
                "invocation": {
                    "address": "0xff9c1b15b16263c61d017ee9f65c50e4ae0113d7",
                    "callData": "0x",
                    "decodedMethod": {
                        "callParams": [],
                        "constructorArguments": "",
                        "name": "totalSupply",
                        "returnParams": [
                            {
                                "name": "",
                                "type": "uint256",
                                "value": "7,779"
                            }
                        ],
                        "signature": "totalSupply()"
                    },
                    "errorInfo": "",
                    "fromAddress": "0xcdb9f8f9be143b7c72480185459ab9720462a786",
                    "gasUsed": 2371,
                    "id": 27,
                    "methodDecoded": true,
                    "operation": "STATICCALL",
                    "output": "0x0000000000000000000000000000000000000000000000000000000000001e63",
                    "revert": false,
                    "revertMessage": "",
                    "selector": "0x18160ddd",
                    "status": true,
                    "value": "0"
                },
                "nodeType": 0
            },
            "28": {
                "invocation": {
                    "address": "0xff9c1b15b16263c61d017ee9f65c50e4ae0113d7",
                    "callData": "0x000000000000000000000000ebba0f3e16ef2f5e87c38e49541b7ae3c7b78e8c",
                    "decodedMethod": {
                        "callParams": [
                            {
                                "name": "owner",
                                "type": "address",
                                "value": "0xebba0f3e16ef2f5e87c38e49541b7ae3c7b78e8c"
                            }
                        ],
                        "constructorArguments": "",
                        "name": "balanceOf",
                        "returnParams": [
                            {
                                "decimalAvailable": true,
                                "name": "",
                                "type": "uint256",
                                "value": "8"
                            }
                        ],
                        "signature": "balanceOf(address)"
                    },
                    "errorInfo": "",
                    "fromAddress": "0xcdb9f8f9be143b7c72480185459ab9720462a786",
                    "gasUsed": 635,
                    "id": 28,
                    "methodDecoded": true,
                    "operation": "STATICCALL",
                    "output": "0x0000000000000000000000000000000000000000000000000000000000000008",
                    "revert": false,
                    "revertMessage": "",
                    "selector": "0x70a08231",
                    "status": true,
                    "value": "0"
                },
                "nodeType": 0
            },
            "29": {
                "event": {
                    "contract": "0xcdb9f8f9be143b7c72480185459ab9720462a786",
                    "decodedLog": {
                        "name": "ProposalCreated",
                        "params": [
                            {
                                "name": "id",
                                "type": "uint256",
                                "value": "5"
                            },
                            {
                                "name": "proposer",
                                "type": "address",
                                "value": "0xebba0f3e16ef2f5e87c38e49541b7ae3c7b78e8c"
                            },
                            {
                                "name": "targets",
                                "type": "address[]",
                                "value": [
                                    "0xc02aaa39b223fe8d0a0e5c4f27ead9083c756cc2"
                                ]
                            },
                            {
                                "name": "values",
                                "type": "uint256[]",
                                "value": [
                                    "0"
                                ]
                            },
                            {
                                "name": "signatures",
                                "type": "string[]",
                                "value": [
                                    ""
                                ]
                            },
                            {
                                "name": "calldatas",
                                "type": "bytes[]",
                                "value": [
                                    "0xa9059cbb00000000000000000000000070670b5ee954f9052353bf9dac5c8697f2e5c065000000000000000000000000000000000000000000000019dbb46cbee5540000"
                                ]
                            },
                            {
                                "name": "startBlock",
                                "type": "uint256",
                                "value": "18,954,623"
                            },
                            {
                                "name": "endBlock",
                                "type": "uint256",
                                "value": "18,974,333"
                            },
                            {
                                "name": "description",
                                "type": "string",
                                "value": ""
                            }
                        ],
                        "signature": "ProposalCreated(uint256,address,address[],uint256[],string[],bytes[],uint256,uint256,string)"
                    },
                    "id": 29,
                    "logData": "0x0000000000000000000000000000000000000000000000000000000000000005000000000000000000000000ebba0f3e16ef2f5e87c38e49541b7ae3c7b78e8c0000000000000000000000000000000000000000000000000000000000000120000000000000000000000000000000000000000000000000000000000000016000000000000000000000000000000000000000000000000000000000000001a00000000000000000000000000000000000000000000000000000000000000200000000000000000000000000000000000000000000000000000000000121397f000000000000000000000000000000000000000000000000000000000121867d00000000000000000000000000000000000000000000000000000000000002c00000000000000000000000000000000000000000000000000000000000000001000000000000000000000000c02aaa39b223fe8d0a0e5c4f27ead9083c756cc200000000000000000000000000000000000000000000000000000000000000010000000000000000000000000000000000000000000000000000000000000000000000000000000000000000000000000000000000000000000000000000000100000000000000000000000000000000000000000000000000000000000000200000000000000000000000000000000000000000000000000000000000000000000000000000000000000000000000000000000000000000000000000000000100000000000000000000000000000000000000000000000000000000000000200000000000000000000000000000000000000000000000000000000000000044a9059cbb00000000000000000000000070670b5ee954f9052353bf9dac5c8697f2e5c065000000000000000000000000000000000000000000000019dbb46cbee5540000000000000000000000000000000000000000000000000000000000000000000000000000000000000000000000000000000000000000000000000000",
                    "logDecoded": true,
                    "operation": "EVENT",
                    "revert": false,
                    "status": true,
                    "topics": [
                        "0x7d84a6263ae0d98d3329bd7b46bb4e8d6f98cd35a7adb45c274c8b7fd5ebd5e0"
                    ]
                },
                "nodeType": 1
            },
            "3": {
                "event": {
                    "contract": "0xff9c1b15b16263c61d017ee9f65c50e4ae0113d7",
                    "decodedLog": {
                        "name": "Transfer",
                        "params": [
                            {
                                "name": "from",
                                "type": "address",
                                "value": "0x469a2f900ef0504299bfd4d1812618a94b67e189"
                            },
                            {
                                "name": "to",
                                "type": "address",
                                "value": "0xebba0f3e16ef2f5e87c38e49541b7ae3c7b78e8c"
                            },
                            {
                                "decimalAvailable": true,
                                "name": "tokenId",
                                "type": "uint256",
                                "value": "3,474"
                            }
                        ],
                        "signature": "Transfer(address,address,uint256)"
                    },
                    "id": 3,
                    "logData": "0x",
                    "logDecoded": true,
                    "operation": "EVENT",
                    "revert": false,
                    "status": true,
                    "topics": [
                        "0xddf252ad1be2c89b69c2b068fc378daa952ba7f163c4a11628f55a4df523b3ef",
                        "0x000000000000000000000000469a2f900ef0504299bfd4d1812618a94b67e189",
                        "0x000000000000000000000000ebba0f3e16ef2f5e87c38e49541b7ae3c7b78e8c",
                        "0x0000000000000000000000000000000000000000000000000000000000000d92"
                    ]
                },
                "nodeType": 1
            },
            "30": {
                "event": {
                    "contract": "0xcdb9f8f9be143b7c72480185459ab9720462a786",
                    "decodedLog": {
                        "name": "ProposalCreatedWithRequirements",
                        "params": [
                            {
                                "name": "id",
                                "type": "uint256",
                                "value": "5"
                            },
                            {
                                "name": "proposer",
                                "type": "address",
                                "value": "0xebba0f3e16ef2f5e87c38e49541b7ae3c7b78e8c"
                            },
                            {
                                "name": "targets",
                                "type": "address[]",
                                "value": [
                                    "0xc02aaa39b223fe8d0a0e5c4f27ead9083c756cc2"
                                ]
                            },
                            {
                                "name": "values",
                                "type": "uint256[]",
                                "value": [
                                    "0"
                                ]
                            },
                            {
                                "name": "signatures",
                                "type": "string[]",
                                "value": [
                                    ""
                                ]
                            },
                            {
                                "name": "calldatas",
                                "type": "bytes[]",
                                "value": [
                                    "0xa9059cbb00000000000000000000000070670b5ee954f9052353bf9dac5c8697f2e5c065000000000000000000000000000000000000000000000019dbb46cbee5540000"
                                ]
                            },
                            {
                                "name": "startBlock",
                                "type": "uint256",
                                "value": "18,954,623"
                            },
                            {
                                "name": "endBlock",
                                "type": "uint256",
                                "value": "18,974,333"
                            },
                            {
                                "name": "proposalThreshold",
                                "type": "uint256",
                                "value": "7"
                            },
                            {
                                "name": "quorumVotes",
                                "type": "uint256",
                                "value": "155"
                            },
                            {
                                "name": "description",
                                "type": "string",
                                "value": ""
                            }
                        ],
                        "signature": "ProposalCreatedWithRequirements(uint256,address,address[],uint256[],string[],bytes[],uint256,uint256,uint256,uint256,string)"
                    },
                    "id": 30,
                    "logData": "0x0000000000000000000000000000000000000000000000000000000000000005000000000000000000000000ebba0f3e16ef2f5e87c38e49541b7ae3c7b78e8c000000000000000000000000000000000000000000000000000000000000016000000000000000000000000000000000000000000000000000000000000001a000000000000000000000000000000000000000000000000000000000000001e00000000000000000000000000000000000000000000000000000000000000240000000000000000000000000000000000000000000000000000000000121397f000000000000000000000000000000000000000000000000000000000121867d0000000000000000000000000000000000000000000000000000000000000007000000000000000000000000000000000000000000000000000000000000009b00000000000000000000000000000000000000000000000000000000000003000000000000000000000000000000000000000000000000000000000000000001000000000000000000000000c02aaa39b223fe8d0a0e5c4f27ead9083c756cc200000000000000000000000000000000000000000000000000000000000000010000000000000000000000000000000000000000000000000000000000000000000000000000000000000000000000000000000000000000000000000000000100000000000000000000000000000000000000000000000000000000000000200000000000000000000000000000000000000000000000000000000000000000000000000000000000000000000000000000000000000000000000000000000100000000000000000000000000000000000000000000000000000000000000200000000000000000000000000000000000000000000000000000000000000044a9059cbb00000000000000000000000070670b5ee954f9052353bf9dac5c8697f2e5c065000000000000000000000000000000000000000000000019dbb46cbee5540000000000000000000000000000000000000000000000000000000000000000000000000000000000000000000000000000000000000000000000000000",
                    "logDecoded": true,
                    "operation": "EVENT",
                    "revert": false,
                    "status": true,
                    "topics": [
                        "0x6af0134faa0f9290c1d686d55012aca80302d31d5c856e4bc7954f7613dc7f87"
                    ]
                },
                "nodeType": 1
            },
            "4": {
                "invocation": {
                    "address": "0xff9c1b15b16263c61d017ee9f65c50e4ae0113d7",
                    "callData": "0x000000000000000000000000469a2f900ef0504299bfd4d1812618a94b67e189000000000000000000000000ebba0f3e16ef2f5e87c38e49541b7ae3c7b78e8c0000000000000000000000000000000000000000000000000000000000000970",
                    "decodedMethod": {
                        "callParams": [
                            {
                                "name": "from",
                                "type": "address",
                                "value": "0x469a2f900ef0504299bfd4d1812618a94b67e189"
                            },
                            {
                                "name": "to",
                                "type": "address",
                                "value": "0xebba0f3e16ef2f5e87c38e49541b7ae3c7b78e8c"
                            },
                            {
                                "name": "tokenId",
                                "type": "uint256",
                                "value": "2,416"
                            }
                        ],
                        "constructorArguments": "",
                        "name": "safeTransferFrom",
                        "returnParams": [],
                        "signature": "safeTransferFrom(address,address,uint256)"
                    },
                    "errorInfo": "",
                    "fromAddress": "0xebba0f3e16ef2f5e87c38e49541b7ae3c7b78e8c",
                    "gasUsed": 58843,
                    "id": 4,
                    "methodDecoded": true,
                    "operation": "CALL",
                    "output": "",
                    "revert": false,
                    "revertMessage": "",
                    "selector": "0x42842e0e",
                    "status": true,
                    "value": "0"
                },
                "nodeType": 0
            },
            "5": {
                "event": {
                    "contract": "0xff9c1b15b16263c61d017ee9f65c50e4ae0113d7",
                    "decodedLog": {
                        "name": "Approval",
                        "params": [
                            {
                                "name": "owner",
                                "type": "address",
                                "value": "0x469a2f900ef0504299bfd4d1812618a94b67e189"
                            },
                            {
                                "name": "approved",
                                "type": "address",
                                "value": "0x0000000000000000000000000000000000000000"
                            },
                            {
                                "decimalAvailable": true,
                                "name": "tokenId",
                                "type": "uint256",
                                "value": "2,416"
                            }
                        ],
                        "signature": "Approval(address,address,uint256)"
                    },
                    "id": 5,
                    "logData": "0x",
                    "logDecoded": true,
                    "operation": "EVENT",
                    "revert": false,
                    "status": true,
                    "topics": [
                        "0x8c5be1e5ebec7d5bd14f71427d1e84f3dd0314c0f7b2291e5b200ac8c7c3b925",
                        "0x000000000000000000000000469a2f900ef0504299bfd4d1812618a94b67e189",
                        "0x0000000000000000000000000000000000000000000000000000000000000000",
                        "0x0000000000000000000000000000000000000000000000000000000000000970"
                    ]
                },
                "nodeType": 1
            },
            "6": {
                "event": {
                    "contract": "0xff9c1b15b16263c61d017ee9f65c50e4ae0113d7",
                    "decodedLog": {
                        "name": "Transfer",
                        "params": [
                            {
                                "name": "from",
                                "type": "address",
                                "value": "0x469a2f900ef0504299bfd4d1812618a94b67e189"
                            },
                            {
                                "name": "to",
                                "type": "address",
                                "value": "0xebba0f3e16ef2f5e87c38e49541b7ae3c7b78e8c"
                            },
                            {
                                "decimalAvailable": true,
                                "name": "tokenId",
                                "type": "uint256",
                                "value": "2,416"
                            }
                        ],
                        "signature": "Transfer(address,address,uint256)"
                    },
                    "id": 6,
                    "logData": "0x",
                    "logDecoded": true,
                    "operation": "EVENT",
                    "revert": false,
                    "status": true,
                    "topics": [
                        "0xddf252ad1be2c89b69c2b068fc378daa952ba7f163c4a11628f55a4df523b3ef",
                        "0x000000000000000000000000469a2f900ef0504299bfd4d1812618a94b67e189",
                        "0x000000000000000000000000ebba0f3e16ef2f5e87c38e49541b7ae3c7b78e8c",
                        "0x0000000000000000000000000000000000000000000000000000000000000970"
                    ]
                },
                "nodeType": 1
            },
            "7": {
                "invocation": {
                    "address": "0xff9c1b15b16263c61d017ee9f65c50e4ae0113d7",
                    "callData": "0x000000000000000000000000469a2f900ef0504299bfd4d1812618a94b67e189000000000000000000000000ebba0f3e16ef2f5e87c38e49541b7ae3c7b78e8c000000000000000000000000000000000000000000000000000000000000021b",
                    "decodedMethod": {
                        "callParams": [
                            {
                                "name": "from",
                                "type": "address",
                                "value": "0x469a2f900ef0504299bfd4d1812618a94b67e189"
                            },
                            {
                                "name": "to",
                                "type": "address",
                                "value": "0xebba0f3e16ef2f5e87c38e49541b7ae3c7b78e8c"
                            },
                            {
                                "name": "tokenId",
                                "type": "uint256",
                                "value": "539"
                            }
                        ],
                        "constructorArguments": "",
                        "name": "safeTransferFrom",
                        "returnParams": [],
                        "signature": "safeTransferFrom(address,address,uint256)"
                    },
                    "errorInfo": "",
                    "fromAddress": "0xebba0f3e16ef2f5e87c38e49541b7ae3c7b78e8c",
                    "gasUsed": 58843,
                    "id": 7,
                    "methodDecoded": true,
                    "operation": "CALL",
                    "output": "",
                    "revert": false,
                    "revertMessage": "",
                    "selector": "0x42842e0e",
                    "status": true,
                    "value": "0"
                },
                "nodeType": 0
            },
            "8": {
                "event": {
                    "contract": "0xff9c1b15b16263c61d017ee9f65c50e4ae0113d7",
                    "decodedLog": {
                        "name": "Approval",
                        "params": [
                            {
                                "name": "owner",
                                "type": "address",
                                "value": "0x469a2f900ef0504299bfd4d1812618a94b67e189"
                            },
                            {
                                "name": "approved",
                                "type": "address",
                                "value": "0x0000000000000000000000000000000000000000"
                            },
                            {
                                "decimalAvailable": true,
                                "name": "tokenId",
                                "type": "uint256",
                                "value": "539"
                            }
                        ],
                        "signature": "Approval(address,address,uint256)"
                    },
                    "id": 8,
                    "logData": "0x",
                    "logDecoded": true,
                    "operation": "EVENT",
                    "revert": false,
                    "status": true,
                    "topics": [
                        "0x8c5be1e5ebec7d5bd14f71427d1e84f3dd0314c0f7b2291e5b200ac8c7c3b925",
                        "0x000000000000000000000000469a2f900ef0504299bfd4d1812618a94b67e189",
                        "0x0000000000000000000000000000000000000000000000000000000000000000",
                        "0x000000000000000000000000000000000000000000000000000000000000021b"
                    ]
                },
                "nodeType": 1
            },
            "9": {
                "event": {
                    "contract": "0xff9c1b15b16263c61d017ee9f65c50e4ae0113d7",
                    "decodedLog": {
                        "name": "Transfer",
                        "params": [
                            {
                                "name": "from",
                                "type": "address",
                                "value": "0x469a2f900ef0504299bfd4d1812618a94b67e189"
                            },
                            {
                                "name": "to",
                                "type": "address",
                                "value": "0xebba0f3e16ef2f5e87c38e49541b7ae3c7b78e8c"
                            },
                            {
                                "decimalAvailable": true,
                                "name": "tokenId",
                                "type": "uint256",
                                "value": "539"
                            }
                        ],
                        "signature": "Transfer(address,address,uint256)"
                    },
                    "id": 9,
                    "logData": "0x",
                    "logDecoded": true,
                    "operation": "EVENT",
                    "revert": false,
                    "status": true,
                    "topics": [
                        "0xddf252ad1be2c89b69c2b068fc378daa952ba7f163c4a11628f55a4df523b3ef",
                        "0x000000000000000000000000469a2f900ef0504299bfd4d1812618a94b67e189",
                        "0x000000000000000000000000ebba0f3e16ef2f5e87c38e49541b7ae3c7b78e8c",
                        "0x000000000000000000000000000000000000000000000000000000000000021b"
                    ]
                },
                "nodeType": 1
            }
        },
        "gasFlame": [
            {
                "children": [
                    {
                        "children": [
                            {
                                "children": [],
                                "depth": 0,
                                "name": "Initial Gas",
                                "value": 176014
                            },
                            {
                                "children": [
                                    {
                                        "children": [],
                                        "depth": 1,
                                        "name": "safeTransferFrom",
                                        "value": 84743
                                    },
                                    {
                                        "children": [],
                                        "depth": 1,
                                        "name": "safeTransferFrom",
                                        "value": 58843
                                    },
                                    {
                                        "children": [],
                                        "depth": 1,
                                        "name": "safeTransferFrom",
                                        "value": 58843
                                    },
                                    {
                                        "children": [],
                                        "depth": 1,
                                        "name": "safeTransferFrom",
                                        "value": 58843
                                    },
                                    {
                                        "children": [],
                                        "depth": 1,
                                        "name": "safeTransferFrom",
                                        "value": 38849
                                    },
                                    {
                                        "children": [],
                                        "depth": 1,
                                        "name": "safeTransferFrom",
                                        "value": 38849
                                    },
                                    {
                                        "children": [],
                                        "depth": 1,
                                        "name": "safeTransferFrom",
                                        "value": 38849
                                    },
                                    {
                                        "children": [],
                                        "depth": 1,
                                        "name": "safeTransferFrom",
                                        "value": 38849
                                    },
                                    {
                                        "children": [
                                            {
                                                "children": [
                                                    {
                                                        "children": [],
                                                        "depth": 3,
                                                        "name": "totalSupply",
                                                        "value": 2371
                                                    },
                                                    {
                                                        "children": [],
                                                        "depth": 3,
                                                        "name": "balanceOf",
                                                        "value": 635
                                                    }
                                                ],
                                                "depth": 2,
                                                "name": "propose",
                                                "value": 415625
                                            }
                                        ],
                                        "depth": 1,
                                        "name": "propose",
                                        "value": 420914
                                    }
                                ],
                                "depth": 0,
                                "name": "Executed Gas",
                                "value": 1746399
                            }
                        ],
                        "depth": -1,
                        "name": "Actual Gas Used",
                        "value": 1859613
                    },
                    {
                        "children": [],
                        "depth": -1,
                        "name": "Refunded Gas",
                        "value": 62800
                    }
                ],
                "depth": -2,
                "name": "Total Gas",
                "value": 1922413
            }
        ],
        "isConfirmed": true,
        "mainTrace": [
            {
                "children": [
                    {
                        "children": [
                            {
                                "children": [
                                    {
                                        "children": [],
                                        "depth": 2,
                                        "id": 2,
                                        "order": 2
                                    },
                                    {
                                        "children": [],
                                        "depth": 2,
                                        "id": 3,
                                        "order": 3
                                    }
                                ],
                                "depth": 1,
                                "id": 1,
                                "order": 1
                            },
                            {
                                "children": [
                                    {
                                        "children": [],
                                        "depth": 2,
                                        "id": 5,
                                        "order": 5
                                    },
                                    {
                                        "children": [],
                                        "depth": 2,
                                        "id": 6,
                                        "order": 6
                                    }
                                ],
                                "depth": 1,
                                "id": 4,
                                "order": 4
                            },
                            {
                                "children": [
                                    {
                                        "children": [],
                                        "depth": 2,
                                        "id": 8,
                                        "order": 8
                                    },
                                    {
                                        "children": [],
                                        "depth": 2,
                                        "id": 9,
                                        "order": 9
                                    }
                                ],
                                "depth": 1,
                                "id": 7,
                                "order": 7
                            },
                            {
                                "children": [
                                    {
                                        "children": [],
                                        "depth": 2,
                                        "id": 11,
                                        "order": 11
                                    },
                                    {
                                        "children": [],
                                        "depth": 2,
                                        "id": 12,
                                        "order": 12
                                    }
                                ],
                                "depth": 1,
                                "id": 10,
                                "order": 10
                            },
                            {
                                "children": [
                                    {
                                        "children": [],
                                        "depth": 2,
                                        "id": 14,
                                        "order": 14
                                    },
                                    {
                                        "children": [],
                                        "depth": 2,
                                        "id": 15,
                                        "order": 15
                                    }
                                ],
                                "depth": 1,
                                "id": 13,
                                "order": 13
                            },
                            {
                                "children": [
                                    {
                                        "children": [],
                                        "depth": 2,
                                        "id": 17,
                                        "order": 17
                                    },
                                    {
                                        "children": [],
                                        "depth": 2,
                                        "id": 18,
                                        "order": 18
                                    }
                                ],
                                "depth": 1,
                                "id": 16,
                                "order": 16
                            },
                            {
                                "children": [
                                    {
                                        "children": [],
                                        "depth": 2,
                                        "id": 20,
                                        "order": 20
                                    },
                                    {
                                        "children": [],
                                        "depth": 2,
                                        "id": 21,
                                        "order": 21
                                    }
                                ],
                                "depth": 1,
                                "id": 19,
                                "order": 19
                            },
                            {
                                "children": [
                                    {
                                        "children": [],
                                        "depth": 2,
                                        "id": 23,
                                        "order": 23
                                    },
                                    {
                                        "children": [],
                                        "depth": 2,
                                        "id": 24,
                                        "order": 24
                                    }
                                ],
                                "depth": 1,
                                "id": 22,
                                "order": 22
                            },
                            {
                                "children": [
                                    {
                                        "children": [
                                            {
                                                "children": [],
                                                "depth": 3,
                                                "id": 27,
                                                "order": 27
                                            },
                                            {
                                                "children": [],
                                                "depth": 3,
                                                "id": 28,
                                                "order": 28
                                            },
                                            {
                                                "children": [],
                                                "depth": 3,
                                                "id": 29,
                                                "order": 29
                                            },
                                            {
                                                "children": [],
                                                "depth": 3,
                                                "id": 30,
                                                "order": 30
                                            }
                                        ],
                                        "depth": 2,
                                        "id": 26,
                                        "order": 26
                                    }
                                ],
                                "depth": 1,
                                "id": 25,
                                "order": 25
                            }
                        ],
                        "depth": 0,
                        "id": 0,
                        "order": 0
                    }
                ],
                "depth": -1,
                "id": -1,
                "order": -1
            }
        ],
        "mainTraceNodeCount": 31,
        "parentIdMap": {
            "0": -1,
            "1": 0,
            "10": 0,
            "11": 10,
            "12": 10,
            "13": 0,
            "14": 13,
            "15": 13,
            "16": 0,
            "17": 16,
            "18": 16,
            "19": 0,
            "2": 1,
            "20": 19,
            "21": 19,
            "22": 0,
            "23": 22,
            "24": 22,
            "25": 0,
            "26": 25,
            "27": 26,
            "28": 26,
            "29": 26,
            "3": 1,
            "30": 26,
            "4": 0,
            "5": 4,
            "6": 4,
            "7": 0,
            "8": 7,
            "9": 7
        },
        "tidyTrace": [
            {
                "children": [
                    {
                        "children": [
                            {
                                "children": [
                                    {
                                        "children": [],
                                        "depth": 2,
                                        "id": 2,
                                        "order": 2
                                    },
                                    {
                                        "children": [],
                                        "depth": 2,
                                        "id": 3,
                                        "order": 3
                                    }
                                ],
                                "depth": 1,
                                "id": 1,
                                "order": 1
                            },
                            {
                                "children": [
                                    {
                                        "children": [],
                                        "depth": 2,
                                        "id": 5,
                                        "order": 5
                                    },
                                    {
                                        "children": [],
                                        "depth": 2,
                                        "id": 6,
                                        "order": 6
                                    }
                                ],
                                "depth": 1,
                                "id": 4,
                                "order": 4
                            },
                            {
                                "children": [
                                    {
                                        "children": [],
                                        "depth": 2,
                                        "id": 8,
                                        "order": 8
                                    },
                                    {
                                        "children": [],
                                        "depth": 2,
                                        "id": 9,
                                        "order": 9
                                    }
                                ],
                                "depth": 1,
                                "id": 7,
                                "order": 7
                            },
                            {
                                "children": [
                                    {
                                        "children": [],
                                        "depth": 2,
                                        "id": 11,
                                        "order": 11
                                    },
                                    {
                                        "children": [],
                                        "depth": 2,
                                        "id": 12,
                                        "order": 12
                                    }
                                ],
                                "depth": 1,
                                "id": 10,
                                "order": 10
                            },
                            {
                                "children": [
                                    {
                                        "children": [],
                                        "depth": 2,
                                        "id": 14,
                                        "order": 14
                                    },
                                    {
                                        "children": [],
                                        "depth": 2,
                                        "id": 15,
                                        "order": 15
                                    }
                                ],
                                "depth": 1,
                                "id": 13,
                                "order": 13
                            },
                            {
                                "children": [
                                    {
                                        "children": [],
                                        "depth": 2,
                                        "id": 17,
                                        "order": 17
                                    },
                                    {
                                        "children": [],
                                        "depth": 2,
                                        "id": 18,
                                        "order": 18
                                    }
                                ],
                                "depth": 1,
                                "id": 16,
                                "order": 16
                            },
                            {
                                "children": [
                                    {
                                        "children": [],
                                        "depth": 2,
                                        "id": 20,
                                        "order": 20
                                    },
                                    {
                                        "children": [],
                                        "depth": 2,
                                        "id": 21,
                                        "order": 21
                                    }
                                ],
                                "depth": 1,
                                "id": 19,
                                "order": 19
                            },
                            {
                                "children": [
                                    {
                                        "children": [],
                                        "depth": 2,
                                        "id": 23,
                                        "order": 23
                                    },
                                    {
                                        "children": [],
                                        "depth": 2,
                                        "id": 24,
                                        "order": 24
                                    }
                                ],
                                "depth": 1,
                                "id": 22,
                                "order": 22
                            },
                            {
                                "children": [
                                    {
                                        "children": [
                                            {
                                                "children": [],
                                                "depth": 3,
                                                "id": 29,
                                                "order": 29
                                            },
                                            {
                                                "children": [],
                                                "depth": 3,
                                                "id": 30,
                                                "order": 30
                                            }
                                        ],
                                        "depth": 2,
                                        "id": 26,
                                        "order": 26
                                    }
                                ],
                                "depth": 1,
                                "id": 25,
                                "order": 25
                            }
                        ],
                        "depth": 0,
                        "id": 0,
                        "order": 0
                    }
                ],
                "depth": -1,
                "id": -1,
                "order": -1
            }
        ],
        "tidyTraceNodeCount": 29
    },
    "state_change": {
        "stateChanges": [
            {
                "address": "0xcdb9f8f9be143b7c72480185459ab9720462a786",
                "erc": "",
                "slots": [
                    {
                        "current": "0x0000000000000000000000000000000000000000000000000000000000000001",
                        "key": "0xebae6141bae5521e99e0a8d610356b0f501fea54980b59c84841db43ba7204f9",
                        "prev": "0x0000000000000000000000000000000000000000000000000000000000000000"
                    },
                    {
                        "current": "0x0000000000000000000000000000000000000000000000000000000000000005",
                        "key": "0x2c8d72c9ef5c2390604e94f44002900e67b763498a8c168d4ef910164023c710",
                        "prev": "0x0000000000000000000000000000000000000000000000000000000000000000"
                    },
                    {
                        "current": "0xf2e5c065000000000000000000000000000000000000000000000019dbb46cbe",
                        "key": "0x5f23754d1089ca55188b6fa20ee8485e51cc5fd560a30593b1b54587e868c403",
                        "prev": "0x0000000000000000000000000000000000000000000000000000000000000000"
                    },
                    {
                        "current": "0x000000000000000000000000000000000000000000000000000000000121397f",
                        "key": "0xebae6141bae5521e99e0a8d610356b0f501fea54980b59c84841db43ba7204fd",
                        "prev": "0x0000000000000000000000000000000000000000000000000000000000000000"
                    },
                    {
                        "current": "0x000000000000000000000000000000000000000000000000000000000000009b",
                        "key": "0xebae6141bae5521e99e0a8d610356b0f501fea54980b59c84841db43ba7204f7",
                        "prev": "0x0000000000000000000000000000000000000000000000000000000000000000"
                    },
                    {
                        "current": "0x0000000000000000000000000000000000000000000000000000000000000001",
                        "key": "0xebae6141bae5521e99e0a8d610356b0f501fea54980b59c84841db43ba7204fb",
                        "prev": "0x0000000000000000000000000000000000000000000000000000000000000000"
                    },
                    {
                        "current": "0x000000000000000000000000ebba0f3e16ef2f5e87c38e49541b7ae3c7b78e8c",
                        "key": "0xebae6141bae5521e99e0a8d610356b0f501fea54980b59c84841db43ba7204f5",
                        "prev": "0x0000000000000000000000000000000000000000000000000000000000000000"
                    },
                    {
                        "current": "0x0000000000000000000000000000000000000000000000000000000000000001",
                        "key": "0xebae6141bae5521e99e0a8d610356b0f501fea54980b59c84841db43ba7204fa",
                        "prev": "0x0000000000000000000000000000000000000000000000000000000000000000"
                    },
                    {
                        "current": "0x0000000000000000000000000000000000000000000000000000000000000089",
                        "key": "0xe1595c03510b82be22f1e31b730cedfcd5237c70cccf84bd3bf1074f398e09b2",
                        "prev": "0x0000000000000000000000000000000000000000000000000000000000000000"
                    },
                    {
                        "current": "0xa9059cbb00000000000000000000000070670b5ee954f9052353bf9dac5c8697",
                        "key": "0x5f23754d1089ca55188b6fa20ee8485e51cc5fd560a30593b1b54587e868c402",
                        "prev": "0x0000000000000000000000000000000000000000000000000000000000000000"
                    },
                    {
                        "current": "0x0000000000000000000000000000000000000000000000000000000000000005",
                        "key": "0x0000000000000000000000000000000000000000000000000000000000000008",
                        "prev": "0x0000000000000000000000000000000000000000000000000000000000000004"
                    },
                    {
                        "current": "0x0000000000000000000000000000000000000000000000000000000000000001",
                        "key": "0xebae6141bae5521e99e0a8d610356b0f501fea54980b59c84841db43ba7204fc",
                        "prev": "0x0000000000000000000000000000000000000000000000000000000000000000"
                    },
                    {
                        "current": "0x000000000000000000000000c02aaa39b223fe8d0a0e5c4f27ead9083c756cc2",
                        "key": "0x19ffa975509005d1664a17b83fb72e5c7f802be312f5de5f53336d36ed880ad9",
                        "prev": "0x0000000000000000000000000000000000000000000000000000000000000000"
                    },
                    {
                        "current": "0x0000000000000000000000000000000000000000000000000000000000000007",
                        "key": "0xebae6141bae5521e99e0a8d610356b0f501fea54980b59c84841db43ba7204f6",
                        "prev": "0x0000000000000000000000000000000000000000000000000000000000000000"
                    },
                    {
                        "current": "0xe554000000000000000000000000000000000000000000000000000000000000",
                        "key": "0x5f23754d1089ca55188b6fa20ee8485e51cc5fd560a30593b1b54587e868c404",
                        "prev": "0x0000000000000000000000000000000000000000000000000000000000000000"
                    },
                    {
                        "current": "0x0000000000000000000000000000000000000000000000000000000000000005",
                        "key": "0xebae6141bae5521e99e0a8d610356b0f501fea54980b59c84841db43ba7204f4",
                        "prev": "0x0000000000000000000000000000000000000000000000000000000000000000"
                    },
                    {
                        "current": "0x000000000000000000000000000000000000000000000000000000000121867d",
                        "key": "0xebae6141bae5521e99e0a8d610356b0f501fea54980b59c84841db43ba7204fe",
                        "prev": "0x0000000000000000000000000000000000000000000000000000000000000000"
                    }
                ],
                "storageVariables": [
                    {
                        "name": "latestProposalIds",
                        "type": "mapping(address => uint256)",
                        "value": {
                            "pairs": [
                                {
                                    "key": "0xebba0f3e16ef2f5e87c38e49541b7ae3c7b78e8c",
                                    "value": {
                                        "current": "5",
                                        "prev": "0",
                                        "typeTag": 1
                                    }
                                }
                            ],
                            "typeTag": 4
                        }
                    },
                    {
                        "name": "proposals",
                        "type": "mapping(uint256 => struct LootDAOStorageV1.Proposal)",
                        "value": {
                            "pairs": [
                                {
                                    "key": "5",
                                    "value": {
                                        "fields": [
                                            {
                                                "name": "id",
                                                "type": "uint256",
                                                "value": {
                                                    "current": "5",
                                                    "prev": "0",
                                                    "typeTag": 1
                                                }
                                            },
                                            {
                                                "name": "proposer",
                                                "type": "address",
                                                "value": {
                                                    "current": "0xebba0f3e16ef2f5e87c38e49541b7ae3c7b78e8c",
                                                    "prev": "0x0000000000000000000000000000000000000000",
                                                    "typeTag": 1
                                                }
                                            },
                                            {
                                                "name": "proposalThreshold",
                                                "type": "uint256",
                                                "value": {
                                                    "current": "7",
                                                    "prev": "0",
                                                    "typeTag": 1
                                                }
                                            },
                                            {
                                                "name": "quorumVotes",
                                                "type": "uint256",
                                                "value": {
                                                    "current": "155",
                                                    "prev": "0",
                                                    "typeTag": 1
                                                }
                                            },
                                            {
                                                "name": "targets",
                                                "type": "address[]",
                                                "value": {
                                                    "elemType": "address",
                                                    "elems": [
                                                        {
                                                            "index": 0,
                                                            "value": {
                                                                "current": "0xc02aaa39b223fe8d0a0e5c4f27ead9083c756cc2",
                                                                "prev": "0x0000000000000000000000000000000000000000",
                                                                "typeTag": 1
                                                            }
                                                        }
                                                    ],
                                                    "typeTag": 2
                                                }
                                            },
                                            {
                                                "name": "calldatas",
                                                "type": "bytes[]",
                                                "value": {
                                                    "elemType": "bytes",
                                                    "elems": [
                                                        {
                                                            "index": 0,
                                                            "value": {
                                                                "current": "0xa9059cbb00000000000000000000000070670b5ee954f9052353bf9dac5c86970xf2e5c065000000000000000000000000000000000000000000000019dbb46cbe0xe5540000",
                                                                "prev": "0x",
                                                                "typeTag": 1
                                                            }
                                                        }
                                                    ],
                                                    "typeTag": 2
                                                }
                                            },
                                            {
                                                "name": "startBlock",
                                                "type": "uint256",
                                                "value": {
                                                    "current": "18954623",
                                                    "prev": "0",
                                                    "typeTag": 1
                                                }
                                            },
                                            {
                                                "name": "endBlock",
                                                "type": "uint256",
                                                "value": {
                                                    "current": "18974333",
                                                    "prev": "0",
                                                    "typeTag": 1
                                                }
                                            }
                                        ],
                                        "typeTag": 3
                                    }
                                }
                            ],
                            "typeTag": 4
                        }
                    },
                    {
                        "name": "proposalCount",
                        "type": "uint256",
                        "value": {
                            "current": "5",
                            "prev": "4",
                            "typeTag": 1
                        }
                    }
                ]
            },
            {
                "address": "0xebba0f3e16ef2f5e87c38e49541b7ae3c7b78e8c",
                "erc": "",
                "slots": [
                    {
                        "current": "0x000000000000000000000000469a2f900ef0504299bfd4d1812618a94b67e189",
                        "key": "0x0000000000000000000000000000000000000000000000000000000000000000",
                        "prev": "0x0000000000000000000000000000000000000000000000000000000000000000"
                    }
                ],
                "storageVariables": []
            },
            {
                "address": "0xff9c1b15b16263c61d017ee9f65c50e4ae0113d7",
                "erc": "ERC-721",
                "slots": [
                    {
                        "current": "0x0000000000000000000000000000000000000000000000000000000000000970",
                        "key": "0xbb708c7d379f66a9ccbc0ae95d2be3546618eb1204951158581567b5facdc938",
                        "prev": "0x0000000000000000000000000000000000000000000000000000000000000000"
                    },
                    {
                        "current": "0x000000000000000000000000ebba0f3e16ef2f5e87c38e49541b7ae3c7b78e8c",
                        "key": "0x4184b096486e55fed73414ea8049f79615bffb767e4d6047bbebbf0ba39d9299",
                        "prev": "0x000000000000000000000000469a2f900ef0504299bfd4d1812618a94b67e189"
                    },
                    {
                        "current": "0x0000000000000000000000000000000000000000000000000000000000000000",
                        "key": "0x1e76c69821353cc47ee8196a737b93a36548920d001d09e6b0307f0b69b0475a",
                        "prev": "0x000000000000000000000000000000000000000000000000000000000000059e"
                    },
                    {
                        "current": "0x000000000000000000000000ebba0f3e16ef2f5e87c38e49541b7ae3c7b78e8c",
                        "key": "0x5778896154f353f6e7869aa882faf85d260752900e9a6f497b46906343b7089e",
                        "prev": "0x000000000000000000000000469a2f900ef0504299bfd4d1812618a94b67e189"
                    },
                    {
                        "current": "0x0000000000000000000000000000000000000000000000000000000000000000",
                        "key": "0x7fa7c3338d4bef6565ec4e5f75c16ccebf950ce31bd54652c8336632bfbbeee0",
                        "prev": "0x000000000000000000000000000000000000000000000000000000000000017f"
                    },
                    {
                        "current": "0x0000000000000000000000000000000000000000000000000000000000000000",
                        "key": "0xbe6e7eebcb47617be4ff754f5eb7fbf33858d3664136c760039567d479226260",
                        "prev": "0x0000000000000000000000000000000000000000000000000000000000000952"
                    },
                    {
                        "current": "0x000000000000000000000000ebba0f3e16ef2f5e87c38e49541b7ae3c7b78e8c",
                        "key": "0xac95aad6abcdcad0733ea34aa241054a55bc4c70dd1f4e13b8bfa8b83065fe69",
                        "prev": "0x000000000000000000000000469a2f900ef0504299bfd4d1812618a94b67e189"
                    },
                    {
                        "current": "0x0000000000000000000000000000000000000000000000000000000000000000",
                        "key": "0x72ed26047f616eae34943954e4b5f856f66279985b47996e2cc9e4592e8bd5d7",
                        "prev": "0x0000000000000000000000000000000000000000000000000000000000000587"
                    },
                    {
                        "current": "0x0000000000000000000000000000000000000000000000000000000000000008",
                        "key": "0x3e660017bf349c5caa06f06488ed534f26c110c974fe279e824a9cc585c42632",
                        "prev": "0x0000000000000000000000000000000000000000000000000000000000000000"
                    },
                    {
                        "current": "0x0000000000000000000000000000000000000000000000000000000000000000",
                        "key": "0x0244e3e232ce3b03ce064483f38ed90fc480f9b2b51f2e35a1124e2876644033",
                        "prev": "0x0000000000000000000000000000000000000000000000000000000000000836"
                    },
                    {
                        "current": "0x0000000000000000000000000000000000000000000000000000000000000000",
                        "key": "0xdc31a383dbbad6fc81e8ccdbb9d46f986dde86c0246fd53c516eb4778fdc8f0b",
                        "prev": "0x0000000000000000000000000000000000000000000000000000000000000970"
                    },
                    {
                        "current": "0x0000000000000000000000000000000000000000000000000000000000000000",
                        "key": "0x335a26ec779c060af9065f67bdee608d13c3e1af112787af1a7dc596c0bc4282",
                        "prev": "0x000000000000000000000000000000000000000000000000000000000000021b"
                    },
                    {
                        "current": "0x000000000000000000000000000000000000000000000000000000000000017f",
                        "key": "0x5dee7d3b255e473286eb17d4b01eb5d7d5126cda0fccae5aa6c456a608e57744",
                        "prev": "0x0000000000000000000000000000000000000000000000000000000000000000"
                    },
                    {
                        "current": "0x000000000000000000000000ebba0f3e16ef2f5e87c38e49541b7ae3c7b78e8c",
                        "key": "0x897e42011b2b1bb3467a5bf07acf331cda2c01a935a7735c7e9167d530233c28",
                        "prev": "0x000000000000000000000000469a2f900ef0504299bfd4d1812618a94b67e189"
                    },
                    {
                        "current": "0x0000000000000000000000000000000000000000000000000000000000000000",
                        "key": "0x029abe32b3eff36b37eb7889aca261c4d23362feca2b30c5e232364304eb5b42",
                        "prev": "0x0000000000000000000000000000000000000000000000000000000000000d92"
                    },
                    {
                        "current": "0x0000000000000000000000000000000000000000000000000000000000000d92",
                        "key": "0xe034390e4b6d0d5948298c6cc96a1cf3866545646fa480fbd20f989740762ba1",
                        "prev": "0x0000000000000000000000000000000000000000000000000000000000000000"
                    },
                    {
                        "current": "0x000000000000000000000000000000000000000000000000000000000000021b",
                        "key": "0xd23cdd974017075c2334e6e17607d8cf59e7dba1a0e0eb4b952051ec7c56a38a",
                        "prev": "0x0000000000000000000000000000000000000000000000000000000000000000"
                    },
                    {
                        "current": "0x000000000000000000000000000000000000000000000000000000000000059e",
                        "key": "0x43d50153dac8fe01f65e2fcee8e79bf1b6eba521b04da1b38a7b34671970dcf6",
                        "prev": "0x0000000000000000000000000000000000000000000000000000000000000000"
                    },
                    {
                        "current": "0x000000000000000000000000ebba0f3e16ef2f5e87c38e49541b7ae3c7b78e8c",
                        "key": "0xca6c06f3771c6922baea76a954d905d1940060aad8968721caaa39c3858be54d",
                        "prev": "0x000000000000000000000000469a2f900ef0504299bfd4d1812618a94b67e189"
                    },
                    {
                        "current": "0x000000000000000000000000ebba0f3e16ef2f5e87c38e49541b7ae3c7b78e8c",
                        "key": "0x30a2dca812a79e6ff71559fa0c2f463e74b557e13c0fc2ea07e5fca7a7d615c6",
                        "prev": "0x000000000000000000000000469a2f900ef0504299bfd4d1812618a94b67e189"
                    },
                    {
                        "current": "0x0000000000000000000000000000000000000000000000000000000000000000",
                        "key": "0x73786dfb3620ce443e9c23af8703bc1d95de8cbb035d5f7d4f6ebcf0e27641d5",
                        "prev": "0x0000000000000000000000000000000000000000000000000000000000000008"
                    },
                    {
                        "current": "0x000000000000000000000000ebba0f3e16ef2f5e87c38e49541b7ae3c7b78e8c",
                        "key": "0x13b96c0c8a1069c7251a9ad85de81e10d9963109af26f3843e60be9c78252fc3",
                        "prev": "0x000000000000000000000000469a2f900ef0504299bfd4d1812618a94b67e189"
                    },
                    {
                        "current": "0x0000000000000000000000000000000000000000000000000000000000000587",
                        "key": "0xb2e9b09cb490c023835a85676c712a13f56514a74054cbfe2a6fb9a931abb82b",
                        "prev": "0x0000000000000000000000000000000000000000000000000000000000000000"
                    },
                    {
                        "current": "0x000000000000000000000000ebba0f3e16ef2f5e87c38e49541b7ae3c7b78e8c",
                        "key": "0x4ed380f76b14b9854f8eadd87bcd7ffd08c99ff35c070ff22b55a109d7a6af0f",
                        "prev": "0x000000000000000000000000469a2f900ef0504299bfd4d1812618a94b67e189"
                    },
                    {
                        "current": "0x0000000000000000000000000000000000000000000000000000000000000836",
                        "key": "0xcbd97c7c6190e93df2ecac086b908384b23e42b54b6770c94f83bd1442d83db1",
                        "prev": "0x0000000000000000000000000000000000000000000000000000000000000000"
                    },
                    {
                        "current": "0x0000000000000000000000000000000000000000000000000000000000000952",
                        "key": "0xd9790f8e3733f952f5675a4e3aebb280d6c7144f7162a1d001f374b1548226c4",
                        "prev": "0x0000000000000000000000000000000000000000000000000000000000000000"
                    }
                ],
                "storageVariables": [
                    {
                        "name": "_ownedTokens",
                        "type": "mapping(address => mapping(uint256 => uint256))",
                        "value": {
                            "pairs": [
                                {
                                    "key": "0x469a2f900ef0504299bfd4d1812618a94b67e189",
                                    "value": {
                                        "pairs": [
                                            {
                                                "key": "0",
                                                "value": {
                                                    "current": "0",
                                                    "prev": "3474",
                                                    "typeTag": 1
                                                }
                                            },
                                            {
                                                "key": "1",
                                                "value": {
                                                    "current": "0",
                                                    "prev": "2416",
                                                    "typeTag": 1
                                                }
                                            },
                                            {
                                                "key": "2",
                                                "value": {
                                                    "current": "0",
                                                    "prev": "539",
                                                    "typeTag": 1
                                                }
                                            },
                                            {
                                                "key": "3",
                                                "value": {
                                                    "current": "0",
                                                    "prev": "1438",
                                                    "typeTag": 1
                                                }
                                            },
                                            {
                                                "key": "4",
                                                "value": {
                                                    "current": "0",
                                                    "prev": "1415",
                                                    "typeTag": 1
                                                }
                                            },
                                            {
                                                "key": "5",
                                                "value": {
                                                    "current": "0",
                                                    "prev": "2386",
                                                    "typeTag": 1
                                                }
                                            },
                                            {
                                                "key": "6",
                                                "value": {
                                                    "current": "0",
                                                    "prev": "383",
                                                    "typeTag": 1
                                                }
                                            },
                                            {
                                                "key": "7",
                                                "value": {
                                                    "current": "0",
                                                    "prev": "2102",
                                                    "typeTag": 1
                                                }
                                            }
                                        ],
                                        "typeTag": 4
                                    }
                                },
                                {
                                    "key": "0xebba0f3e16ef2f5e87c38e49541b7ae3c7b78e8c",
                                    "value": {
                                        "pairs": [
                                            {
                                                "key": "0",
                                                "value": {
                                                    "current": "3474",
                                                    "prev": "0",
                                                    "typeTag": 1
                                                }
                                            },
                                            {
                                                "key": "1",
                                                "value": {
                                                    "current": "2416",
                                                    "prev": "0",
                                                    "typeTag": 1
                                                }
                                            },
                                            {
                                                "key": "2",
                                                "value": {
                                                    "current": "539",
                                                    "prev": "0",
                                                    "typeTag": 1
                                                }
                                            },
                                            {
                                                "key": "3",
                                                "value": {
                                                    "current": "1438",
                                                    "prev": "0",
                                                    "typeTag": 1
                                                }
                                            },
                                            {
                                                "key": "4",
                                                "value": {
                                                    "current": "1415",
                                                    "prev": "0",
                                                    "typeTag": 1
                                                }
                                            },
                                            {
                                                "key": "5",
                                                "value": {
                                                    "current": "2386",
                                                    "prev": "0",
                                                    "typeTag": 1
                                                }
                                            },
                                            {
                                                "key": "6",
                                                "value": {
                                                    "current": "383",
                                                    "prev": "0",
                                                    "typeTag": 1
                                                }
                                            },
                                            {
                                                "key": "7",
                                                "value": {
                                                    "current": "2102",
                                                    "prev": "0",
                                                    "typeTag": 1
                                                }
                                            }
                                        ],
                                        "typeTag": 4
                                    }
                                }
                            ],
                            "typeTag": 4
                        }
                    },
                    {
                        "name": "_owners",
                        "type": "mapping(uint256 => address)",
                        "value": {
                            "pairs": [
                                {
                                    "key": "1415",
                                    "value": {
                                        "current": "0xebba0f3e16ef2f5e87c38e49541b7ae3c7b78e8c",
                                        "prev": "0x469a2f900ef0504299bfd4d1812618a94b67e189",
                                        "typeTag": 1
                                    }
                                },
                                {
                                    "key": "1438",
                                    "value": {
                                        "current": "0xebba0f3e16ef2f5e87c38e49541b7ae3c7b78e8c",
                                        "prev": "0x469a2f900ef0504299bfd4d1812618a94b67e189",
                                        "typeTag": 1
                                    }
                                },
                                {
                                    "key": "2102",
                                    "value": {
                                        "current": "0xebba0f3e16ef2f5e87c38e49541b7ae3c7b78e8c",
                                        "prev": "0x469a2f900ef0504299bfd4d1812618a94b67e189",
                                        "typeTag": 1
                                    }
                                },
                                {
                                    "key": "2386",
                                    "value": {
                                        "current": "0xebba0f3e16ef2f5e87c38e49541b7ae3c7b78e8c",
                                        "prev": "0x469a2f900ef0504299bfd4d1812618a94b67e189",
                                        "typeTag": 1
                                    }
                                },
                                {
                                    "key": "2416",
                                    "value": {
                                        "current": "0xebba0f3e16ef2f5e87c38e49541b7ae3c7b78e8c",
                                        "prev": "0x469a2f900ef0504299bfd4d1812618a94b67e189",
                                        "typeTag": 1
                                    }
                                },
                                {
                                    "key": "3474",
                                    "value": {
                                        "current": "0xebba0f3e16ef2f5e87c38e49541b7ae3c7b78e8c",
                                        "prev": "0x469a2f900ef0504299bfd4d1812618a94b67e189",
                                        "typeTag": 1
                                    }
                                },
                                {
                                    "key": "383",
                                    "value": {
                                        "current": "0xebba0f3e16ef2f5e87c38e49541b7ae3c7b78e8c",
                                        "prev": "0x469a2f900ef0504299bfd4d1812618a94b67e189",
                                        "typeTag": 1
                                    }
                                },
                                {
                                    "key": "539",
                                    "value": {
                                        "current": "0xebba0f3e16ef2f5e87c38e49541b7ae3c7b78e8c",
                                        "prev": "0x469a2f900ef0504299bfd4d1812618a94b67e189",
                                        "typeTag": 1
                                    }
                                }
                            ],
                            "typeTag": 4
                        }
                    },
                    {
                        "name": "_balances",
                        "type": "mapping(address => uint256)",
                        "value": {
                            "pairs": [
                                {
                                    "key": "0x469a2f900ef0504299bfd4d1812618a94b67e189",
                                    "value": {
                                        "current": "0",
                                        "prev": "8",
                                        "typeTag": 1
                                    }
                                },
                                {
                                    "key": "0xebba0f3e16ef2f5e87c38e49541b7ae3c7b78e8c",
                                    "value": {
                                        "current": "8",
                                        "prev": "0",
                                        "typeTag": 1
                                    }
                                }
                            ],
                            "typeTag": 4
                        }
                    }
                ]
            }
        ]
    }
}