{
    "balance_change": {
        "balanceChanges": [
            {
                "account": "0xa9edec4496bd013dac805fb221edefc53cbfaf05",
                "assets": [
                    {
                        "address": "0x55d398326f99059ff775485246999027b3197955",
                        "amount": "503,468.345335579475662703",
                        "iconUrl": "https://assets.blocksec.com/icon/810ebed5-1cb7-4a60-827d-c7eb0c438c0e.png",
                        "isERC1155": false,
                        "isERC721": false,
                        "sign": true,
                        "value": "503468.3453"
                    }
                ]
            },
            {
                "account": "0x791626eb05e60fac973646ac8d67b008b939fe88",
                "assets": [
                    {
                        "address": "0x55d398326f99059ff775485246999027b3197955",
                        "amount": "505.0042795",
                        "iconUrl": "https://assets.blocksec.com/icon/810ebed5-1cb7-4a60-827d-c7eb0c438c0e.png",
                        "isERC1155": false,
                        "isERC721": false,
                        "sign": false,
                        "value": "505.0042795"
                    },
                    {
                        "address": "0x0fea057db0e6b45fa1a0065cd512150987f2af08",
                        "amount": "125.886984828802268274",
                        "iconUrl": "",
                        "isERC1155": false,
                        "isERC721": false,
                        "sign": true,
                        "value": "511088.5544"
                    }
                ]
            },
            {
                "account": "0x0000000000000000000000000000000000000000",
                "assets": [
                    {
                        "address": "0x0fea057db0e6b45fa1a0065cd512150987f2af08",
                        "amount": "15",
                        "iconUrl": "",
                        "isERC1155": false,
                        "isERC721": false,
                        "sign": true,
                        "value": "23.04754231"
                    }
                ]
            },
            {
                "account": "0x19c4a6b4abfe88161f07c4fa2229a4120acfd7d5",
                "assets": [
                    {
                        "address": "0x0fea057db0e6b45fa1a0065cd512150987f2af08",
                        "amount": "25.098553869866918697",
                        "iconUrl": "",
                        "isERC1155": false,
                        "isERC721": false,
                        "sign": true,
                        "value": "42.65708203"
                    }
                ]
            },
            {
                "account": "0x431abb27dab05f4e7cdeaa18390fe39364197500",
                "assets": [
                    {
                        "address": "0x0fea057db0e6b45fa1a0065cd512150987f2af08",
                        "amount": "250.985538698669186971",
                        "iconUrl": "",
                        "isERC1155": false,
                        "isERC721": false,
                        "sign": false,
                        "value": "1358.118186"
                    }
                ]
            },
            {
                "account": "0xacb496dd4a8b6b9d1b99d422b8700f6ef932bc10",
                "assets": [
                    {
                        "address": "0x55d398326f99059ff775485246999027b3197955",
                        "amount": "502,963.341056079475662703",
                        "iconUrl": "https://assets.blocksec.com/icon/810ebed5-1cb7-4a60-827d-c7eb0c438c0e.png",
                        "isERC1155": false,
                        "isERC721": false,
                        "sign": false,
                        "value": "502963.3411"
                    },
                    {
                        "address": "0x0fea057db0e6b45fa1a0065cd512150987f2af08",
                        "amount": "85",
                        "iconUrl": "",
                        "isERC1155": false,
                        "isERC721": false,
                        "sign": true,
                        "value": "104.6638666"
                    }
                ]
            }
        ]
    },
    "profile": {
        "basic_info": {
            "baseFee": "0",
            "blockNumber": 33972131,
            "callData": "0x77b1f713000000000000000000000000acb496dd4a8b6b9d1b99d422b8700f6ef932bc1000000000000000000000000000000000000000000000000000470de4df82000000000000000000000000000000000000000000000000021e19e0c9bab24000000000000000000000000000000000000000000000000000056bc75e2d63100000",
            "debugEnable": true,
            "errorInfo": "",
            "eventCount": 9,
            "feeRecipient": "0x9f8ccdafcc39f3c7d6ebf637c9151673cbc36b88",
            "formatValue": "0",
            "gasLimit": 1860762,
            "gasPrice": "3",
            "gasUsed": 169125,
            "intTxnCount": 15,
            "internalRevert": false,
            "internalRevertMessage": "",
            "isContractCreation": false,
            "isFlashloan": true,
            "maxFee": "3",
            "nonce": 31,
            "overwritedBlockNumber": -1,
            "priorityFee": "3",
            "receiver": "0x791626eb05e60fac973646ac8d67b008b939fe88",
            "revertMessage": "",
            "sender": "0xa9edec4496bd013dac805fb221edefc53cbfaf05",
            "simulationEnable": true,
            "sourceTxnHash": "0xbeea4ff215b15870e22ed0e4d36ccd595974ffd55c3d75dad2230196cc379a52",
            "status": true,
            "timestamp": "2023-12-01T11:20:40Z",
            "transactionFee": "0.000507375",
            "txnHash": "0xbeea4ff215b15870e22ed0e4d36ccd595974ffd55c3d75dad2230196cc379a52",
            "txnIndex": 112,
            "type": 2,
            "value": "0"
        },
        "fund_flow": [
            {
                "amount": "512,963.341056079475662703",
                "from": "0xacb496dd4a8b6b9d1b99d422b8700f6ef932bc10",
                "id": 1,
                "isERC1155": false,
                "isERC721": false,
                "isReverted": false,
                "order": 1,
                "to": "0x791626eb05e60fac973646ac8d67b008b939fe88",
                "token": "0x55d398326f99059ff775485246999027b3197955"
            },
            {
                "amount": "225.886984828802268274",
                "from": "0x431abb27dab05f4e7cdeaa18390fe39364197500",
                "id": 2,
                "isERC1155": false,
                "isERC721": false,
                "isReverted": false,
                "order": 2,
                "to": "0x791626eb05e60fac973646ac8d67b008b939fe88",
                "token": "0x0fea057db0e6b45fa1a0065cd512150987f2af08"
            },
            {
                "amount": "25.098553869866918697",
                "from": "0x431abb27dab05f4e7cdeaa18390fe39364197500",
                "id": 3,
                "isERC1155": false,
                "isERC721": false,
                "isReverted": false,
                "order": 3,
                "to": "0x19c4a6b4abfe88161f07c4fa2229a4120acfd7d5",
                "token": "0x0fea057db0e6b45fa1a0065cd512150987f2af08"
            },
            {
                "amount": "10,000",
                "from": "0x791626eb05e60fac973646ac8d67b008b939fe88",
                "id": 4,
                "isERC1155": false,
                "isERC721": false,
                "isReverted": false,
                "order": 4,
                "to": "0xacb496dd4a8b6b9d1b99d422b8700f6ef932bc10",
                "token": "0x55d398326f99059ff775485246999027b3197955"
            },
            {
                "amount": "15",
                "from": "0x791626eb05e60fac973646ac8d67b008b939fe88",
                "id": 5,
                "isERC1155": false,
                "isERC721": false,
                "isReverted": false,
                "order": 5,
                "to": "0x0000000000000000000000000000000000000000",
                "token": "0x0fea057db0e6b45fa1a0065cd512150987f2af08"
            },
            {
                "amount": "85",
                "from": "0x791626eb05e60fac973646ac8d67b008b939fe88",
                "id": 6,
                "isERC1155": false,
                "isERC721": false,
                "isReverted": false,
                "order": 6,
                "to": "0xacb496dd4a8b6b9d1b99d422b8700f6ef932bc10",
                "token": "0x0fea057db0e6b45fa1a0065cd512150987f2af08"
            },
            {
                "amount": "503,468.345335579475662703",
                "from": "0x791626eb05e60fac973646ac8d67b008b939fe88",
                "id": 7,
                "isERC1155": false,
                "isERC721": false,
                "isReverted": false,
                "order": 7,
                "to": "0xa9edec4496bd013dac805fb221edefc53cbfaf05",
                "token": "0x55d398326f99059ff775485246999027b3197955"
            }
        ],
        "token_infos": [
            {
                "address": "0x0fea057db0e6b45fa1a0065cd512150987f2af08",
                "decimals": 18
            },
            {
                "address": "0x55d398326f99059ff775485246999027b3197955",
                "decimals": 18
            },
            {
                "address": "0xbb4cdb9cbd36b01bd1cbaebf2de08d9173bc095c",
                "decimals": 18
            },
            {
                "address": "0xeeeeeeeeeeeeeeeeeeeeeeeeeeeeeeeeeeeeeeee",
                "decimals": 18
            }
        ]
    },
    "address_label": {
        "labels": [
            {
                "address": "0xeeeeeeeeeeeeeeeeeeeeeeeeeeeeeeeeeeeeeeee",
                "label": "BNB"
            },
            {
                "address": "0x55d398326f99059ff775485246999027b3197955",
                "label": "BUSD-T Stablecoin"
            },
            {
                "address": "0x0fea057db0e6b45fa1a0065cd512150987f2af08",
                "label": "FCN"
            },
            {
                "address": "0x0000000000000000000000000000000000000002",
                "label": "Precompiled"
            },
            {
                "address": "0xacb496dd4a8b6b9d1b99d422b8700f6ef932bc10",
                "label": "PancakeSwap V2: FCN-BSC-USD 5"
            },
            {
                "address": "0xa9edec4496bd013dac805fb221edefc53cbfaf05",
                "label": "Exploiter"
            },
            {
                "address": "0x0000000000000000000000000000000000000001",
                "label": "Precompiled"
            },
            {
                "address": "0x0000000000000000000000000000000000000003",
                "label": "Precompiled"
            },
            {
                "address": "0x0000000000000000000000000000000000000004",
                "label": "Precompiled"
            }
        ]
    },
    "trace": {
        "accountLabels": null,
        "dataMap": {
            "-1": {
                "invocation": {
                    "address": "0xa9edec4496bd013dac805fb221edefc53cbfaf05",
                    "callData": "",
                    "decodedMethod": null,
                    "errorInfo": "",
                    "fromAddress": "",
                    "gasUsed": 0,
                    "id": -1,
                    "methodDecoded": false,
                    "operation": "",
                    "output": "",
                    "revert": false,
                    "revertMessage": "",
                    "selector": "",
                    "status": false,
                    "value": ""
                },
                "nodeType": 0
            },
            "0": {
                "invocation": {
                    "address": "0x791626eb05e60fac973646ac8d67b008b939fe88",
                    "callData": "0x000000000000000000000000acb496dd4a8b6b9d1b99d422b8700f6ef932bc1000000000000000000000000000000000000000000000000000470de4df82000000000000000000000000000000000000000000000000021e19e0c9bab24000000000000000000000000000000000000000000000000000056bc75e2d63100000",
                    "decodedMethod": {
                        "callParams": [
                            {
                                "name": "user",
                                "type": "address",
                                "value": "0xacb496dd4a8b6b9d1b99d422b8700f6ef932bc10"
                            },
                            {
                                "name": "categoryId",
                                "type": "uint256",
                                "value": "20,000,000,000,000,000"
                            },
                            {
                                "name": "vestingId",
                                "type": "uint256",
                                "value": "10,000,000,000,000,000,000,000"
                            },
                            {
                                "name": "claimAmount",
                                "type": "uint256",
                                "value": "100,000,000,000,000,000,000"
                            }
                        ],
                        "constructorArguments": "",
                        "name": "claim",
                        "returnParams": [],
                        "signature": "claim(address,uint256,uint256,uint256)"
                    },
                    "errorInfo": "",
                    "fromAddress": "0xa9edec4496bd013dac805fb221edefc53cbfaf05",
                    "gasUsed": 169125,
                    "id": 0,
                    "methodDecoded": true,
                    "operation": "CALL",
                    "output": "",
                    "revert": false,
                    "revertMessage": "",
                    "selector": "0x77b1f713",
                    "status": true,
                    "value": "0"
                },
                "nodeType": 0
            },
            "1": {
                "invocation": {
                    "address": "0x55d398326f99059ff775485246999027b3197955",
                    "callData": "0x000000000000000000000000acb496dd4a8b6b9d1b99d422b8700f6ef932bc10",
                    "decodedMethod": {
                        "callParams": [
                            {
                                "name": "account",
                                "type": "address",
                                "value": "0xacb496dd4a8b6b9d1b99d422b8700f6ef932bc10"
                            }
                        ],
                        "constructorArguments": "",
                        "name": "balanceOf",
                        "returnParams": [
                            {
                                "decimalAvailable": true,
                                "name": "",
                                "type": "uint256",
                                "value": "512,963,361,056,079,475,662,703"
                            }
                        ],
                        "signature": "balanceOf(address)"
                    },
                    "errorInfo": "",
                    "fromAddress": "0x791626eb05e60fac973646ac8d67b008b939fe88",
                    "gasUsed": 2531,
                    "id": 1,
                    "methodDecoded": true,
                    "operation": "STATICCALL",
                    "output": "0x000000000000000000000000000000000000000000006c9fccad8c234e505f6f",
                    "revert": false,
                    "revertMessage": "",
                    "selector": "0x70a08231",
                    "status": true,
                    "value": "0"
                },
                "nodeType": 0
            },
            "10": {
                "event": {
                    "contract": "0x0fea057db0e6b45fa1a0065cd512150987f2af08",
                    "decodedLog": {
                        "name": "Transfer",
                        "params": [
                            {
                                "name": "from",
                                "type": "address",
                                "value": "0x431abb27dab05f4e7cdeaa18390fe39364197500"
                            },
                            {
                                "name": "to",
                                "type": "address",
                                "value": "0x791626eb05e60fac973646ac8d67b008b939fe88"
                            },
                            {
                                "decimalAvailable": true,
                                "name": "value",
                                "type": "uint256",
                                "value": "225,886,984,828,802,268,274"
                            }
                        ],
                        "signature": "Transfer(address,address,uint256)"
                    },
                    "id": 10,
                    "logData": "0x00000000000000000000000000000000000000000000000c3ecfc7e6b8cf7c72",
                    "logDecoded": true,
                    "operation": "EVENT",
                    "revert": false,
                    "status": true,
                    "topics": [
                        "0xddf252ad1be2c89b69c2b068fc378daa952ba7f163c4a11628f55a4df523b3ef",
                        "0x000000000000000000000000431abb27dab05f4e7cdeaa18390fe39364197500",
                        "0x000000000000000000000000791626eb05e60fac973646ac8d67b008b939fe88"
                    ]
                },
                "nodeType": 1
            },
            "11": {
                "invocation": {
                    "address": "0x0fea057db0e6b45fa1a0065cd512150987f2af08",
                    "callData": "0x00000000000000000000000019c4a6b4abfe88161f07c4fa2229a4120acfd7d50000000000000000000000000000000000000000000000015c4ff9c44d6c6329",
                    "decodedMethod": {
                        "callParams": [
                            {
                                "name": "recipient",
                                "type": "address",
                                "value": "0x19c4a6b4abfe88161f07c4fa2229a4120acfd7d5"
                            },
                            {
                                "decimalAvailable": true,
                                "name": "amount",
                                "type": "uint256",
                                "value": "25,098,553,869,866,918,697"
                            }
                        ],
                        "constructorArguments": "",
                        "name": "transfer",
                        "returnParams": [
                            {
                                "name": "",
                                "type": "bool",
                                "value": true
                            }
                        ],
                        "signature": "transfer(address,uint256)"
                    },
                    "errorInfo": "",
                    "fromAddress": "0x431abb27dab05f4e7cdeaa18390fe39364197500",
                    "gasUsed": 13812,
                    "id": 11,
                    "methodDecoded": true,
                    "operation": "CALL",
                    "output": "0x0000000000000000000000000000000000000000000000000000000000000001",
                    "revert": false,
                    "revertMessage": "",
                    "selector": "0xa9059cbb",
                    "status": true,
                    "value": "0"
                },
                "nodeType": 0
            },
            "12": {
                "event": {
                    "contract": "0x0fea057db0e6b45fa1a0065cd512150987f2af08",
                    "decodedLog": {
                        "name": "Transfer",
                        "params": [
                            {
                                "name": "from",
                                "type": "address",
                                "value": "0x431abb27dab05f4e7cdeaa18390fe39364197500"
                            },
                            {
                                "name": "to",
                                "type": "address",
                                "value": "0x19c4a6b4abfe88161f07c4fa2229a4120acfd7d5"
                            },
                            {
                                "decimalAvailable": true,
                                "name": "value",
                                "type": "uint256",
                                "value": "25,098,553,869,866,918,697"
                            }
                        ],
                        "signature": "Transfer(address,address,uint256)"
                    },
                    "id": 12,
                    "logData": "0x0000000000000000000000000000000000000000000000015c4ff9c44d6c6329",
                    "logDecoded": true,
                    "operation": "EVENT",
                    "revert": false,
                    "status": true,
                    "topics": [
                        "0xddf252ad1be2c89b69c2b068fc378daa952ba7f163c4a11628f55a4df523b3ef",
                        "0x000000000000000000000000431abb27dab05f4e7cdeaa18390fe39364197500",
                        "0x00000000000000000000000019c4a6b4abfe88161f07c4fa2229a4120acfd7d5"
                    ]
                },
                "nodeType": 1
            },
            "13": {
                "invocation": {
                    "address": "0x55d398326f99059ff775485246999027b3197955",
                    "callData": "0x000000000000000000000000acb496dd4a8b6b9d1b99d422b8700f6ef932bc1000000000000000000000000000000000000000000000021e19e0c9bab2400000",
                    "decodedMethod": {
                        "callParams": [
                            {
                                "name": "recipient",
                                "type": "address",
                                "value": "0xacb496dd4a8b6b9d1b99d422b8700f6ef932bc10"
                            },
                            {
                                "decimalAvailable": true,
                                "name": "amount",
                                "type": "uint256",
                                "value": "10,000,000,000,000,000,000,000"
                            }
                        ],
                        "constructorArguments": "",
                        "name": "transfer",
                        "returnParams": [
                            {
                                "name": "",
                                "type": "bool",
                                "value": true
                            }
                        ],
                        "signature": "transfer(address,uint256)"
                    },
                    "errorInfo": "",
                    "fromAddress": "0x791626eb05e60fac973646ac8d67b008b939fe88",
                    "gasUsed": 3271,
                    "id": 13,
                    "methodDecoded": true,
                    "operation": "CALL",
                    "output": "0x0000000000000000000000000000000000000000000000000000000000000001",
                    "revert": false,
                    "revertMessage": "",
                    "selector": "0xa9059cbb",
                    "status": true,
                    "value": "0"
                },
                "nodeType": 0
            },
            "14": {
                "event": {
                    "contract": "0x55d398326f99059ff775485246999027b3197955",
                    "decodedLog": {
                        "name": "Transfer",
                        "params": [
                            {
                                "name": "from",
                                "type": "address",
                                "value": "0x791626eb05e60fac973646ac8d67b008b939fe88"
                            },
                            {
                                "name": "to",
                                "type": "address",
                                "value": "0xacb496dd4a8b6b9d1b99d422b8700f6ef932bc10"
                            },
                            {
                                "decimalAvailable": true,
                                "name": "value",
                                "type": "uint256",
                                "value": "10,000,000,000,000,000,000,000"
                            }
                        ],
                        "signature": "Transfer(address,address,uint256)"
                    },
                    "id": 14,
                    "logData": "0x00000000000000000000000000000000000000000000021e19e0c9bab2400000",
                    "logDecoded": true,
                    "operation": "EVENT",
                    "revert": false,
                    "status": true,
                    "topics": [
                        "0xddf252ad1be2c89b69c2b068fc378daa952ba7f163c4a11628f55a4df523b3ef",
                        "0x000000000000000000000000791626eb05e60fac973646ac8d67b008b939fe88",
                        "0x000000000000000000000000acb496dd4a8b6b9d1b99d422b8700f6ef932bc10"
                    ]
                },
                "nodeType": 1
            },
            "15": {
                "invocation": {
                    "address": "0x0fea057db0e6b45fa1a0065cd512150987f2af08",
                    "callData": "0x000000000000000000000000acb496dd4a8b6b9d1b99d422b8700f6ef932bc100000000000000000000000000000000000000000000000056bc75e2d63100000",
                    "decodedMethod": {
                        "callParams": [
                            {
                                "name": "recipient",
                                "type": "address",
                                "value": "0xacb496dd4a8b6b9d1b99d422b8700f6ef932bc10"
                            },
                            {
                                "decimalAvailable": true,
                                "name": "amount",
                                "type": "uint256",
                                "value": "100,000,000,000,000,000,000"
                            }
                        ],
                        "constructorArguments": "",
                        "name": "transfer",
                        "returnParams": [
                            {
                                "name": "",
                                "type": "bool",
                                "value": true
                            }
                        ],
                        "signature": "transfer(address,uint256)"
                    },
                    "errorInfo": "",
                    "fromAddress": "0x791626eb05e60fac973646ac8d67b008b939fe88",
                    "gasUsed": 20185,
                    "id": 15,
                    "methodDecoded": true,
                    "operation": "CALL",
                    "output": "0x0000000000000000000000000000000000000000000000000000000000000001",
                    "revert": false,
                    "revertMessage": "",
                    "selector": "0xa9059cbb",
                    "status": true,
                    "value": "0"
                },
                "nodeType": 0
            },
            "16": {
                "event": {
                    "contract": "0x0fea057db0e6b45fa1a0065cd512150987f2af08",
                    "decodedLog": {
                        "name": "Transfer",
                        "params": [
                            {
                                "name": "from",
                                "type": "address",
                                "value": "0x791626eb05e60fac973646ac8d67b008b939fe88"
                            },
                            {
                                "name": "to",
                                "type": "address",
                                "value": "0x0000000000000000000000000000000000000000"
                            },
                            {
                                "decimalAvailable": true,
                                "name": "value",
                                "type": "uint256",
                                "value": "15,000,000,000,000,000,000"
                            }
                        ],
                        "signature": "Transfer(address,address,uint256)"
                    },
                    "id": 16,
                    "logData": "0x000000000000000000000000000000000000000000000000d02ab486cedc0000",
                    "logDecoded": true,
                    "operation": "EVENT",
                    "revert": false,
                    "status": true,
                    "topics": [
                        "0xddf252ad1be2c89b69c2b068fc378daa952ba7f163c4a11628f55a4df523b3ef",
                        "0x000000000000000000000000791626eb05e60fac973646ac8d67b008b939fe88",
                        "0x0000000000000000000000000000000000000000000000000000000000000000"
                    ]
                },
                "nodeType": 1
            },
            "17": {
                "event": {
                    "contract": "0x0fea057db0e6b45fa1a0065cd512150987f2af08",
                    "decodedLog": {
                        "name": "Transfer",
                        "params": [
                            {
                                "name": "from",
                                "type": "address",
                                "value": "0x791626eb05e60fac973646ac8d67b008b939fe88"
                            },
                            {
                                "name": "to",
                                "type": "address",
                                "value": "0xacb496dd4a8b6b9d1b99d422b8700f6ef932bc10"
                            },
                            {
                                "decimalAvailable": true,
                                "name": "value",
                                "type": "uint256",
                                "value": "85,000,000,000,000,000,000"
                            }
                        ],
                        "signature": "Transfer(address,address,uint256)"
                    },
                    "id": 17,
                    "logData": "0x0000000000000000000000000000000000000000000000049b9ca9a694340000",
                    "logDecoded": true,
                    "operation": "EVENT",
                    "revert": false,
                    "status": true,
                    "topics": [
                        "0xddf252ad1be2c89b69c2b068fc378daa952ba7f163c4a11628f55a4df523b3ef",
                        "0x000000000000000000000000791626eb05e60fac973646ac8d67b008b939fe88",
                        "0x000000000000000000000000acb496dd4a8b6b9d1b99d422b8700f6ef932bc10"
                    ]
                },
                "nodeType": 1
            },
            "18": {
                "invocation": {
                    "address": "0x55d398326f99059ff775485246999027b3197955",
                    "callData": "0x000000000000000000000000791626eb05e60fac973646ac8d67b008b939fe88",
                    "decodedMethod": {
                        "callParams": [
                            {
                                "name": "account",
                                "type": "address",
                                "value": "0x791626eb05e60fac973646ac8d67b008b939fe88"
                            }
                        ],
                        "constructorArguments": "",
                        "name": "balanceOf",
                        "returnParams": [
                            {
                                "decimalAvailable": true,
                                "name": "",
                                "type": "uint256",
                                "value": "503,468,345,335,579,475,662,703"
                            }
                        ],
                        "signature": "balanceOf(address)"
                    },
                    "errorInfo": "",
                    "fromAddress": "0x791626eb05e60fac973646ac8d67b008b939fe88",
                    "gasUsed": 531,
                    "id": 18,
                    "methodDecoded": true,
                    "operation": "STATICCALL",
                    "output": "0x000000000000000000000000000000000000000000006a9d12dd5117ae23576f",
                    "revert": false,
                    "revertMessage": "",
                    "selector": "0x70a08231",
                    "status": true,
                    "value": "0"
                },
                "nodeType": 0
            },
            "19": {
                "invocation": {
                    "address": "0x55d398326f99059ff775485246999027b3197955",
                    "callData": "0x000000000000000000000000a9edec4496bd013dac805fb221edefc53cbfaf05000000000000000000000000000000000000000000006a9d12dd5117ae23576f",
                    "decodedMethod": {
                        "callParams": [
                            {
                                "name": "recipient",
                                "type": "address",
                                "value": "0xa9edec4496bd013dac805fb221edefc53cbfaf05"
                            },
                            {
                                "decimalAvailable": true,
                                "name": "amount",
                                "type": "uint256",
                                "value": "503,468,345,335,579,475,662,703"
                            }
                        ],
                        "constructorArguments": "",
                        "name": "transfer",
                        "returnParams": [
                            {
                                "name": "",
                                "type": "bool",
                                "value": true
                            }
                        ],
                        "signature": "transfer(address,uint256)"
                    },
                    "errorInfo": "",
                    "fromAddress": "0x791626eb05e60fac973646ac8d67b008b939fe88",
                    "gasUsed": 8071,
                    "id": 19,
                    "methodDecoded": true,
                    "operation": "CALL",
                    "output": "0x0000000000000000000000000000000000000000000000000000000000000001",
                    "revert": false,
                    "revertMessage": "",
                    "selector": "0xa9059cbb",
                    "status": true,
                    "value": "0"
                },
                "nodeType": 0
            },
            "2": {
                "invocation": {
                    "address": "0xacb496dd4a8b6b9d1b99d422b8700f6ef932bc10",
                    "callData": "0x0000000000000000000000000000000000000000000000000000000000000000000000000000000000000000000000000000000000006c9fcc667e3e6ece5f6f000000000000000000000000791626eb05e60fac973646ac8d67b008b939fe880000000000000000000000000000000000000000000000000000000000000080000000000000000000000000000000000000000000000000000000000000004000000000000000000000000000000000000000000000021e19e0c9bab24000000000000000000000000000000000000000000000000000056bc75e2d63100000",
                    "decodedMethod": {
                        "callParams": [
                            {
                                "name": "amount0Out",
                                "type": "uint256",
                                "value": "0"
                            },
                            {
                                "name": "amount1Out",
                                "type": "uint256",
                                "value": "512,963,341,056,079,475,662,703"
                            },
                            {
                                "name": "to",
                                "type": "address",
                                "value": "0x791626eb05e60fac973646ac8d67b008b939fe88"
                            },
                            {
                                "name": "data",
                                "type": "bytes",
                                "value": "0x00000000000000000000000000000000000000000000021e19e0c9bab24000000000000000000000000000000000000000000000000000056bc75e2d63100000"
                            }
                        ],
                        "constructorArguments": "",
                        "name": "swap",
                        "returnParams": [],
                        "signature": "swap(uint256,uint256,address,bytes)"
                    },
                    "errorInfo": "",
                    "fromAddress": "0x791626eb05e60fac973646ac8d67b008b939fe88",
                    "gasUsed": 150226,
                    "id": 2,
                    "methodDecoded": true,
                    "operation": "CALL",
                    "output": "",
                    "revert": false,
                    "revertMessage": "",
                    "selector": "0x022c0d9f",
                    "status": true,
                    "value": "0"
                },
                "nodeType": 0
            },
            "20": {
                "event": {
                    "contract": "0x55d398326f99059ff775485246999027b3197955",
                    "decodedLog": {
                        "name": "Transfer",
                        "params": [
                            {
                                "name": "from",
                                "type": "address",
                                "value": "0x791626eb05e60fac973646ac8d67b008b939fe88"
                            },
                            {
                                "name": "to",
                                "type": "address",
                                "value": "0xa9edec4496bd013dac805fb221edefc53cbfaf05"
                            },
                            {
                                "decimalAvailable": true,
                                "name": "value",
                                "type": "uint256",
                                "value": "503,468,345,335,579,475,662,703"
                            }
                        ],
                        "signature": "Transfer(address,address,uint256)"
                    },
                    "id": 20,
                    "logData": "0x000000000000000000000000000000000000000000006a9d12dd5117ae23576f",
                    "logDecoded": true,
                    "operation": "EVENT",
                    "revert": false,
                    "status": true,
                    "topics": [
                        "0xddf252ad1be2c89b69c2b068fc378daa952ba7f163c4a11628f55a4df523b3ef",
                        "0x000000000000000000000000791626eb05e60fac973646ac8d67b008b939fe88",
                        "0x000000000000000000000000a9edec4496bd013dac805fb221edefc53cbfaf05"
                    ]
                },
                "nodeType": 1
            },
            "21": {
                "invocation": {
                    "address": "0x0fea057db0e6b45fa1a0065cd512150987f2af08",
                    "callData": "0x000000000000000000000000acb496dd4a8b6b9d1b99d422b8700f6ef932bc10",
                    "decodedMethod": {
                        "callParams": [
                            {
                                "name": "account",
                                "type": "address",
                                "value": "0xacb496dd4a8b6b9d1b99d422b8700f6ef932bc10"
                            }
                        ],
                        "constructorArguments": "",
                        "name": "balanceOf",
                        "returnParams": [
                            {
                                "decimalAvailable": true,
                                "name": "",
                                "type": "uint256",
                                "value": "85,501,971,077,397,338,362"
                            }
                        ],
                        "signature": "balanceOf(address)"
                    },
                    "errorInfo": "",
                    "fromAddress": "0xacb496dd4a8b6b9d1b99d422b8700f6ef932bc10",
                    "gasUsed": 626,
                    "id": 21,
                    "methodDecoded": true,
                    "operation": "STATICCALL",
                    "output": "0x000000000000000000000000000000000000000000000004a29405af9ffdd8fa",
                    "revert": false,
                    "revertMessage": "",
                    "selector": "0x70a08231",
                    "status": true,
                    "value": "0"
                },
                "nodeType": 0
            },
            "22": {
                "invocation": {
                    "address": "0x55d398326f99059ff775485246999027b3197955",
                    "callData": "0x000000000000000000000000acb496dd4a8b6b9d1b99d422b8700f6ef932bc10",
                    "decodedMethod": {
                        "callParams": [
                            {
                                "name": "account",
                                "type": "address",
                                "value": "0xacb496dd4a8b6b9d1b99d422b8700f6ef932bc10"
                            }
                        ],
                        "constructorArguments": "",
                        "name": "balanceOf",
                        "returnParams": [
                            {
                                "decimalAvailable": true,
                                "name": "",
                                "type": "uint256",
                                "value": "10,000,020,000,000,000,000,000"
                            }
                        ],
                        "signature": "balanceOf(address)"
                    },
                    "errorInfo": "",
                    "fromAddress": "0xacb496dd4a8b6b9d1b99d422b8700f6ef932bc10",
                    "gasUsed": 531,
                    "id": 22,
                    "methodDecoded": true,
                    "operation": "STATICCALL",
                    "output": "0x00000000000000000000000000000000000000000000021e1a27d79f91c20000",
                    "revert": false,
                    "revertMessage": "",
                    "selector": "0x70a08231",
                    "status": true,
                    "value": "0"
                },
                "nodeType": 0
            },
            "23": {
                "event": {
                    "contract": "0xacb496dd4a8b6b9d1b99d422b8700f6ef932bc10",
                    "decodedLog": {
                        "name": "Sync",
                        "params": [
                            {
                                "name": "reserve0",
                                "type": "uint112",
                                "value": "85,501,971,077,397,338,362"
                            },
                            {
                                "name": "reserve1",
                                "type": "uint112",
                                "value": "10,000,020,000,000,000,000,000"
                            }
                        ],
                        "signature": "Sync(uint112,uint112)"
                    },
                    "id": 23,
                    "logData": "0x000000000000000000000000000000000000000000000004a29405af9ffdd8fa00000000000000000000000000000000000000000000021e1a27d79f91c20000",
                    "logDecoded": true,
                    "operation": "EVENT",
                    "revert": false,
                    "status": true,
                    "topics": [
                        "0x1c411e9a96e071241c2f21f7726b17ae89e3cab4c78be50e062b03a9fffbbad1"
                    ]
                },
                "nodeType": 1
            },
            "24": {
                "event": {
                    "contract": "0xacb496dd4a8b6b9d1b99d422b8700f6ef932bc10",
                    "decodedLog": {
                        "name": "Swap",
                        "params": [
                            {
                                "name": "sender",
                                "type": "address",
                                "value": "0x791626eb05e60fac973646ac8d67b008b939fe88"
                            },
                            {
                                "name": "to",
                                "type": "address",
                                "value": "0x791626eb05e60fac973646ac8d67b008b939fe88"
                            },
                            {
                                "name": "amount0In",
                                "type": "uint256",
                                "value": "85,000,000,000,000,000,000"
                            },
                            {
                                "name": "amount1In",
                                "type": "uint256",
                                "value": "10,000,000,000,000,000,000,000"
                            },
                            {
                                "name": "amount0Out",
                                "type": "uint256",
                                "value": "0"
                            },
                            {
                                "name": "amount1Out",
                                "type": "uint256",
                                "value": "512,963,341,056,079,475,662,703"
                            }
                        ],
                        "signature": "Swap(address,uint256,uint256,uint256,uint256,address)"
                    },
                    "id": 24,
                    "logData": "0x0000000000000000000000000000000000000000000000049b9ca9a69434000000000000000000000000000000000000000000000000021e19e0c9bab24000000000000000000000000000000000000000000000000000000000000000000000000000000000000000000000000000000000000000006c9fcc667e3e6ece5f6f",
                    "logDecoded": true,
                    "operation": "EVENT",
                    "revert": false,
                    "status": true,
                    "topics": [
                        "0xd78ad95fa46c994b6551d0da85fc275fe613ce37657fb8d5e3d130840159d822",
                        "0x000000000000000000000000791626eb05e60fac973646ac8d67b008b939fe88",
                        "0x000000000000000000000000791626eb05e60fac973646ac8d67b008b939fe88"
                    ]
                },
                "nodeType": 1
            },
            "3": {
                "invocation": {
                    "address": "0x55d398326f99059ff775485246999027b3197955",
                    "callData": "0x000000000000000000000000791626eb05e60fac973646ac8d67b008b939fe88000000000000000000000000000000000000000000006c9fcc667e3e6ece5f6f",
                    "decodedMethod": {
                        "callParams": [
                            {
                                "name": "recipient",
                                "type": "address",
                                "value": "0x791626eb05e60fac973646ac8d67b008b939fe88"
                            },
                            {
                                "decimalAvailable": true,
                                "name": "amount",
                                "type": "uint256",
                                "value": "512,963,341,056,079,475,662,703"
                            }
                        ],
                        "constructorArguments": "",
                        "name": "transfer",
                        "returnParams": [
                            {
                                "name": "",
                                "type": "bool",
                                "value": true
                            }
                        ],
                        "signature": "transfer(address,uint256)"
                    },
                    "errorInfo": "",
                    "fromAddress": "0xacb496dd4a8b6b9d1b99d422b8700f6ef932bc10",
                    "gasUsed": 10871,
                    "id": 3,
                    "methodDecoded": true,
                    "operation": "CALL",
                    "output": "0x0000000000000000000000000000000000000000000000000000000000000001",
                    "revert": false,
                    "revertMessage": "",
                    "selector": "0xa9059cbb",
                    "status": true,
                    "value": "0"
                },
                "nodeType": 0
            },
            "4": {
                "event": {
                    "contract": "0x55d398326f99059ff775485246999027b3197955",
                    "decodedLog": {
                        "name": "Transfer",
                        "params": [
                            {
                                "name": "from",
                                "type": "address",
                                "value": "0xacb496dd4a8b6b9d1b99d422b8700f6ef932bc10"
                            },
                            {
                                "name": "to",
                                "type": "address",
                                "value": "0x791626eb05e60fac973646ac8d67b008b939fe88"
                            },
                            {
                                "decimalAvailable": true,
                                "name": "value",
                                "type": "uint256",
                                "value": "512,963,341,056,079,475,662,703"
                            }
                        ],
                        "signature": "Transfer(address,address,uint256)"
                    },
                    "id": 4,
                    "logData": "0x000000000000000000000000000000000000000000006c9fcc667e3e6ece5f6f",
                    "logDecoded": true,
                    "operation": "EVENT",
                    "revert": false,
                    "status": true,
                    "topics": [
                        "0xddf252ad1be2c89b69c2b068fc378daa952ba7f163c4a11628f55a4df523b3ef",
                        "0x000000000000000000000000acb496dd4a8b6b9d1b99d422b8700f6ef932bc10",
                        "0x000000000000000000000000791626eb05e60fac973646ac8d67b008b939fe88"
                    ]
                },
                "nodeType": 1
            },
            "5": {
                "invocation": {
                    "address": "0x791626eb05e60fac973646ac8d67b008b939fe88",
                    "callData": "0x000000000000000000000000791626eb05e60fac973646ac8d67b008b939fe880000000000000000000000000000000000000000000000000000000000000000000000000000000000000000000000000000000000006c9fcc667e3e6ece5f6f0000000000000000000000000000000000000000000000000000000000000080000000000000000000000000000000000000000000000000000000000000004000000000000000000000000000000000000000000000021e19e0c9bab24000000000000000000000000000000000000000000000000000056bc75e2d63100000",
                    "decodedMethod": {
                        "callParams": [
                            {
                                "name": "_sender",
                                "type": "address",
                                "value": "0x791626eb05e60fac973646ac8d67b008b939fe88"
                            },
                            {
                                "name": "_amount0",
                                "type": "uint256",
                                "value": "0"
                            },
                            {
                                "name": "_amount1",
                                "type": "uint256",
                                "value": "512,963,341,056,079,475,662,703"
                            },
                            {
                                "name": "_data",
                                "type": "bytes",
                                "value": "0x00000000000000000000000000000000000000000000021e19e0c9bab24000000000000000000000000000000000000000000000000000056bc75e2d63100000"
                            }
                        ],
                        "constructorArguments": "",
                        "name": "pancakeCall",
                        "returnParams": [],
                        "signature": "pancakeCall(address,uint256,uint256,bytes)"
                    },
                    "errorInfo": "",
                    "fromAddress": "0xacb496dd4a8b6b9d1b99d422b8700f6ef932bc10",
                    "gasUsed": 102315,
                    "id": 5,
                    "methodDecoded": true,
                    "operation": "CALL",
                    "output": "",
                    "revert": false,
                    "revertMessage": "",
                    "selector": "0x84800812",
                    "status": true,
                    "value": "0"
                },
                "nodeType": 0
            },
            "6": {
                "invocation": {
                    "address": "0x431abb27dab05f4e7cdeaa18390fe39364197500",
                    "callData": "0x",
                    "decodedMethod": null,
                    "errorInfo": "",
                    "fromAddress": "0x791626eb05e60fac973646ac8d67b008b939fe88",
                    "gasUsed": 64794,
                    "id": 6,
                    "methodDecoded": false,
                    "operation": "CALL",
                    "output": "",
                    "revert": false,
                    "revertMessage": "",
                    "selector": "0xd9574d4c",
                    "status": true,
                    "value": "0"
                },
                "nodeType": 0
            },
            "7": {
                "invocation": {
                    "address": "0x55d398326f99059ff775485246999027b3197955",
                    "callData": "0x000000000000000000000000acb496dd4a8b6b9d1b99d422b8700f6ef932bc10",
                    "decodedMethod": {
                        "callParams": [
                            {
                                "name": "account",
                                "type": "address",
                                "value": "0xacb496dd4a8b6b9d1b99d422b8700f6ef932bc10"
                            }
                        ],
                        "constructorArguments": "",
                        "name": "balanceOf",
                        "returnParams": [
                            {
                                "decimalAvailable": true,
                                "name": "",
                                "type": "uint256",
                                "value": "20,000,000,000,000,000"
                            }
                        ],
                        "signature": "balanceOf(address)"
                    },
                    "errorInfo": "",
                    "fromAddress": "0x431abb27dab05f4e7cdeaa18390fe39364197500",
                    "gasUsed": 531,
                    "id": 7,
                    "methodDecoded": true,
                    "operation": "STATICCALL",
                    "output": "0x00000000000000000000000000000000000000000000000000470de4df820000",
                    "revert": false,
                    "revertMessage": "",
                    "selector": "0x70a08231",
                    "status": true,
                    "value": "0"
                },
                "nodeType": 0
            },
            "8": {
                "invocation": {
                    "address": "0x0fea057db0e6b45fa1a0065cd512150987f2af08",
                    "callData": "0x000000000000000000000000acb496dd4a8b6b9d1b99d422b8700f6ef932bc10",
                    "decodedMethod": {
                        "callParams": [
                            {
                                "name": "account",
                                "type": "address",
                                "value": "0xacb496dd4a8b6b9d1b99d422b8700f6ef932bc10"
                            }
                        ],
                        "constructorArguments": "",
                        "name": "balanceOf",
                        "returnParams": [
                            {
                                "decimalAvailable": true,
                                "name": "",
                                "type": "uint256",
                                "value": "501,971,077,397,338,362"
                            }
                        ],
                        "signature": "balanceOf(address)"
                    },
                    "errorInfo": "",
                    "fromAddress": "0x431abb27dab05f4e7cdeaa18390fe39364197500",
                    "gasUsed": 2626,
                    "id": 8,
                    "methodDecoded": true,
                    "operation": "STATICCALL",
                    "output": "0x00000000000000000000000000000000000000000000000006f75c090bc9d8fa",
                    "revert": false,
                    "revertMessage": "",
                    "selector": "0x70a08231",
                    "status": true,
                    "value": "0"
                },
                "nodeType": 0
            },
            "9": {
                "invocation": {
                    "address": "0x0fea057db0e6b45fa1a0065cd512150987f2af08",
                    "callData": "0x000000000000000000000000791626eb05e60fac973646ac8d67b008b939fe8800000000000000000000000000000000000000000000000c3ecfc7e6b8cf7c72",
                    "decodedMethod": {
                        "callParams": [
                            {
                                "name": "recipient",
                                "type": "address",
                                "value": "0x791626eb05e60fac973646ac8d67b008b939fe88"
                            },
                            {
                                "decimalAvailable": true,
                                "name": "amount",
                                "type": "uint256",
                                "value": "225,886,984,828,802,268,274"
                            }
                        ],
                        "constructorArguments": "",
                        "name": "transfer",
                        "returnParams": [
                            {
                                "name": "",
                                "type": "bool",
                                "value": true
                            }
                        ],
                        "signature": "transfer(address,uint256)"
                    },
                    "errorInfo": "",
                    "fromAddress": "0x431abb27dab05f4e7cdeaa18390fe39364197500",
                    "gasUsed": 26612,
                    "id": 9,
                    "methodDecoded": true,
                    "operation": "CALL",
                    "output": "0x0000000000000000000000000000000000000000000000000000000000000001",
                    "revert": false,
                    "revertMessage": "",
                    "selector": "0xa9059cbb",
                    "status": true,
                    "value": "0"
                },
                "nodeType": 0
            }
        },
        "gasFlame": [
            {
                "children": [
                    {
                        "children": [
                            {
                                "children": [],
                                "depth": 0,
                                "name": "Initial Gas",
                                "value": 22056
                            },
                            {
                                "children": [
                                    {
                                        "children": [],
                                        "depth": 1,
                                        "name": "balanceOf",
                                        "value": 2531
                                    },
                                    {
                                        "children": [
                                            {
                                                "children": [],
                                                "depth": 2,
                                                "name": "transfer",
                                                "value": 10871
                                            },
                                            {
                                                "children": [
                                                    {
                                                        "children": [
                                                            {
                                                                "children": [],
                                                                "depth": 4,
                                                                "name": "balanceOf",
                                                                "value": 531
                                                            },
                                                            {
                                                                "children": [],
                                                                "depth": 4,
                                                                "name": "balanceOf",
                                                                "value": 2626
                                                            },
                                                            {
                                                                "children": [],
                                                                "depth": 4,
                                                                "name": "transfer",
                                                                "value": 26612
                                                            },
                                                            {
                                                                "children": [],
                                                                "depth": 4,
                                                                "name": "transfer",
                                                                "value": 13812
                                                            }
                                                        ],
                                                        "depth": 3,
                                                        "name": "0xd9574d4c",
                                                        "value": 64794
                                                    },
                                                    {
                                                        "children": [],
                                                        "depth": 3,
                                                        "name": "transfer",
                                                        "value": 3271
                                                    },
                                                    {
                                                        "children": [],
                                                        "depth": 3,
                                                        "name": "transfer",
                                                        "value": 20185
                                                    },
                                                    {
                                                        "children": [],
                                                        "depth": 3,
                                                        "name": "balanceOf",
                                                        "value": 531
                                                    },
                                                    {
                                                        "children": [],
                                                        "depth": 3,
                                                        "name": "transfer",
                                                        "value": 8071
                                                    }
                                                ],
                                                "depth": 2,
                                                "name": "pancakeCall",
                                                "value": 102315
                                            },
                                            {
                                                "children": [],
                                                "depth": 2,
                                                "name": "balanceOf",
                                                "value": 626
                                            },
                                            {
                                                "children": [],
                                                "depth": 2,
                                                "name": "balanceOf",
                                                "value": 531
                                            }
                                        ],
                                        "depth": 1,
                                        "name": "swap",
                                        "value": 150226
                                    }
                                ],
                                "depth": 0,
                                "name": "Executed Gas",
                                "value": 159469
                            }
                        ],
                        "depth": -1,
                        "name": "Actual Gas Used",
                        "value": 169125
                    },
                    {
                        "children": [],
                        "depth": -1,
                        "name": "Refunded Gas",
                        "value": 12400
                    }
                ],
                "depth": -2,
                "name": "Total Gas",
                "value": 181525
            }
        ],
        "isConfirmed": true,
        "mainTrace": [
            {
                "children": [
                    {
                        "children": [
                            {
                                "children": [],
                                "depth": 1,
                                "id": 1,
                                "order": 1
                            },
                            {
                                "children": [
                                    {
                                        "children": [
                                            {
                                                "children": [],
                                                "depth": 3,
                                                "id": 4,
                                                "order": 4
                                            }
                                        ],
                                        "depth": 2,
                                        "id": 3,
                                        "order": 3
                                    },
                                    {
                                        "children": [
                                            {
                                                "children": [
                                                    {
                                                        "children": [],
                                                        "depth": 4,
                                                        "id": 7,
                                                        "order": 7
                                                    },
                                                    {
                                                        "children": [],
                                                        "depth": 4,
                                                        "id": 8,
                                                        "order": 8
                                                    },
                                                    {
                                                        "children": [
                                                            {
                                                                "children": [],
                                                                "depth": 5,
                                                                "id": 10,
                                                                "order": 10
                                                            }
                                                        ],
                                                        "depth": 4,
                                                        "id": 9,
                                                        "order": 9
                                                    },
                                                    {
                                                        "children": [
                                                            {
                                                                "children": [],
                                                                "depth": 5,
                                                                "id": 12,
                                                                "order": 12
                                                            }
                                                        ],
                                                        "depth": 4,
                                                        "id": 11,
                                                        "order": 11
                                                    }
                                                ],
                                                "depth": 3,
                                                "id": 6,
                                                "order": 6
                                            },
                                            {
                                                "children": [
                                                    {
                                                        "children": [],
                                                        "depth": 4,
                                                        "id": 14,
                                                        "order": 14
                                                    }
                                                ],
                                                "depth": 3,
                                                "id": 13,
                                                "order": 13
                                            },
                                            {
                                                "children": [
                                                    {
                                                        "children": [],
                                                        "depth": 4,
                                                        "id": 16,
                                                        "order": 16
                                                    },
                                                    {
                                                        "children": [],
                                                        "depth": 4,
                                                        "id": 17,
                                                        "order": 17
                                                    }
                                                ],
                                                "depth": 3,
                                                "id": 15,
                                                "order": 15
                                            },
                                            {
                                                "children": [],
                                                "depth": 3,
                                                "id": 18,
                                                "order": 18
                                            },
                                            {
                                                "children": [
                                                    {
                                                        "children": [],
                                                        "depth": 4,
                                                        "id": 20,
                                                        "order": 20
                                                    }
                                                ],
                                                "depth": 3,
                                                "id": 19,
                                                "order": 19
                                            }
                                        ],
                                        "depth": 2,
                                        "id": 5,
                                        "order": 5
                                    },
                                    {
                                        "children": [],
                                        "depth": 2,
                                        "id": 21,
                                        "order": 21
                                    },
                                    {
                                        "children": [],
                                        "depth": 2,
                                        "id": 22,
                                        "order": 22
                                    },
                                    {
                                        "children": [],
                                        "depth": 2,
                                        "id": 23,
                                        "order": 23
                                    },
                                    {
                                        "children": [],
                                        "depth": 2,
                                        "id": 24,
                                        "order": 24
                                    }
                                ],
                                "depth": 1,
                                "id": 2,
                                "order": 2
                            }
                        ],
                        "depth": 0,
                        "id": 0,
                        "order": 0
                    }
                ],
                "depth": -1,
                "id": -1,
                "order": -1
            }
        ],
        "mainTraceNodeCount": 25,
        "parentIdMap": {
            "0": -1,
            "1": 0,
            "10": 9,
            "11": 6,
            "12": 11,
            "13": 5,
            "14": 13,
            "15": 5,
            "16": 15,
            "17": 15,
            "18": 5,
            "19": 5,
            "2": 0,
            "20": 19,
            "21": 2,
            "22": 2,
            "23": 2,
            "24": 2,
            "3": 2,
            "4": 3,
            "5": 2,
            "6": 5,
            "7": 6,
            "8": 6,
            "9": 6
        },
        "tidyTrace": [
            {
                "children": [
                    {
                        "children": [
                            {
                                "children": [
                                    {
                                        "children": [
                                            {
                                                "children": [],
                                                "depth": 3,
                                                "id": 4,
                                                "order": 4
                                            }
                                        ],
                                        "depth": 2,
                                        "id": 3,
                                        "order": 3
                                    },
                                    {
                                        "children": [
                                            {
                                                "children": [
                                                    {
                                                        "children": [
                                                            {
                                                                "children": [],
                                                                "depth": 5,
                                                                "id": 10,
                                                                "order": 10
                                                            }
                                                        ],
                                                        "depth": 4,
                                                        "id": 9,
                                                        "order": 9
                                                    },
                                                    {
                                                        "children": [
                                                            {
                                                                "children": [],
                                                                "depth": 5,
                                                                "id": 12,
                                                                "order": 12
                                                            }
                                                        ],
                                                        "depth": 4,
                                                        "id": 11,
                                                        "order": 11
                                                    }
                                                ],
                                                "depth": 3,
                                                "id": 6,
                                                "order": 6
                                            },
                                            {
                                                "children": [
                                                    {
                                                        "children": [],
                                                        "depth": 4,
                                                        "id": 14,
                                                        "order": 14
                                                    }
                                                ],
                                                "depth": 3,
                                                "id": 13,
                                                "order": 13
                                            },
                                            {
                                                "children": [
                                                    {
                                                        "children": [],
                                                        "depth": 4,
                                                        "id": 16,
                                                        "order": 16
                                                    },
                                                    {
                                                        "children": [],
                                                        "depth": 4,
                                                        "id": 17,
                                                        "order": 17
                                                    }
                                                ],
                                                "depth": 3,
                                                "id": 15,
                                                "order": 15
                                            },
                                            {
                                                "children": [
                                                    {
                                                        "children": [],
                                                        "depth": 4,
                                                        "id": 20,
                                                        "order": 20
                                                    }
                                                ],
                                                "depth": 3,
                                                "id": 19,
                                                "order": 19
                                            }
                                        ],
                                        "depth": 2,
                                        "id": 5,
                                        "order": 5
                                    },
                                    {
                                        "children": [],
                                        "depth": 2,
                                        "id": 23,
                                        "order": 23
                                    },
                                    {
                                        "children": [],
                                        "depth": 2,
                                        "id": 24,
                                        "order": 24
                                    }
                                ],
                                "depth": 1,
                                "id": 2,
                                "order": 2
                            }
                        ],
                        "depth": 0,
                        "id": 0,
                        "order": 0
                    }
                ],
                "depth": -1,
                "id": -1,
                "order": -1
            }
        ],
        "tidyTraceNodeCount": 19
    },
    "state_change": {
        "stateChanges": [
            {
                "address": "0x0fea057db0e6b45fa1a0065cd512150987f2af08",
                "erc": "ERC-20",
                "slots": [
                    {
                        "current": "0x0000000000000000000000000000000000000000000000015c53b05a82d46e83",
                        "key": "0x6b1fd9b063fc8c0e53f9146635fbb472434ce13e1642ddc2b5620d240482e90f",
                        "prev": "0x0000000000000000000000000000000000000000000000000003b69635680b5a"
                    },
                    {
                        "current": "0x000000000000000000000000000000000000000000000000d47fa384976dfe3d",
                        "key": "0x05b8ccbb9d4d8fb16ea74ce3c29a41f1b461fbdaff4714a0d9a8eb05499746bc",
                        "prev": "0x0000000000000000000000000000000000000000000000000454eefdc891fe3d"
                    },
                    {
                        "current": "0x000000000000000000000000000000000000000000000004a29405af9ffdd8fa",
                        "key": "0x7d7d25be11e81131f4c4e2719ebb22d52b2f4e1b0a5c54ab02bd55ac4cfad485",
                        "prev": "0x00000000000000000000000000000000000000000000000006f75c090bc9d8fa"
                    },
                    {
                        "current": "0x0000000000000000000000000000000000000000000000001bcfac035187ab2a",
                        "key": "0xb4bc3b7499c6d2eed0c87c2ca7f2eee25178462ca0a01346aeaae68f9b5fa89f",
                        "prev": "0x00000000000000000000000000000000000000000000000db6ef6dae57c38ac5"
                    },
                    {
                        "current": "0x000000000000000000000000000000000000000000000006d308b1e2c8f4f8b4",
                        "key": "0x025df70b57ef34ab5277e33363514e2831a4d65576ddcdc06ca51a54a7952767",
                        "prev": "0x0000000000000000000000000000000000000000000000000000482973357c42"
                    }
                ],
                "storageVariables": [
                    {
                        "name": "_balances",
                        "type": "mapping(address => uint256)",
                        "value": {
                            "pairs": [
                                {
                                    "key": "0x19c4a6b4abfe88161f07c4fa2229a4120acfd7d5",
                                    "value": {
                                        "current": "25099599051054411395",
                                        "prev": "1045181187492698",
                                        "typeTag": 1
                                    }
                                },
                                {
                                    "key": "0x431abb27dab05f4e7cdeaa18390fe39364197500",
                                    "value": {
                                        "current": "2004009489455885098",
                                        "prev": "252989548188125072069",
                                        "typeTag": 1
                                    }
                                },
                                {
                                    "key": "0x791626eb05e60fac973646ac8d67b008b939fe88",
                                    "value": {
                                        "current": "125887064171666012340",
                                        "prev": "79342863744066",
                                        "typeTag": 1
                                    }
                                },
                                {
                                    "key": "0xacb496dd4a8b6b9d1b99d422b8700f6ef932bc10",
                                    "value": {
                                        "current": "85501971077397338362",
                                        "prev": "501971077397338362",
                                        "typeTag": 1
                                    }
                                }
                            ],
                            "typeTag": 4
                        }
                    }
                ]
            },
            {
                "address": "0x431abb27dab05f4e7cdeaa18390fe39364197500",
                "erc": "",
                "slots": [
                    {
                        "current": "0x0000000000000000000000000000000000000000000000000000000000000000",
                        "key": "0x9c6375cda627d083cbb712ee89f8748935cee8e2ed0be5ca571a2fdf7ae3eba3",
                        "prev": "0x0000000000000000000000000000000000000000000000008ac7230489e80000"
                    }
                ],
                "storageVariables": []
            },
            {
                "address": "0x55d398326f99059ff775485246999027b3197955",
                "erc": "ERC-20",
                "slots": [
                    {
                        "current": "0x00000000000000000000000000000000000000000000021e1a27d79f91c20000",
                        "key": "0x5b26c5686994aee13b4162e3dddd8f0510503237ac01a08053064ad499a773fa",
                        "prev": "0x000000000000000000000000000000000000000000006c9fccad8c234e505f6f"
                    },
                    {
                        "current": "0x0000000000000000000000000000000000000000000000000000000000000000",
                        "key": "0xf2bf9110e3bd883c1db678db6cde12746dda716f289f82447ddd2b75a8c61a15",
                        "prev": "0x00000000000000000000000000000000000000000000001b60579c93f194f800"
                    },
                    {
                        "current": "0x000000000000000000000000000000000000000000006a9d12e0167f9510176f",
                        "key": "0x5121d87c3b04abd0eb5925a627e54e1a5a223101136d853d47b079e99110242f",
                        "prev": "0x0000000000000000000000000000000000000000000000000002c567e6ecc000"
                    }
                ],
                "storageVariables": [
                    {
                        "name": "_balances",
                        "type": "mapping(address => uint256)",
                        "value": {
                            "pairs": [
                                {
                                    "key": "0x791626eb05e60fac973646ac8d67b008b939fe88",
                                    "value": {
                                        "current": "0",
                                        "prev": "505004279500000000000",
                                        "typeTag": 1
                                    }
                                },
                                {
                                    "key": "0xa9edec4496bd013dac805fb221edefc53cbfaf05",
                                    "value": {
                                        "current": "503468346115579475662703",
                                        "prev": "780000000000000",
                                        "typeTag": 1
                                    }
                                },
                                {
                                    "key": "0xacb496dd4a8b6b9d1b99d422b8700f6ef932bc10",
                                    "value": {
                                        "current": "10000020000000000000000",
                                        "prev": "512963361056079475662703",
                                        "typeTag": 1
                                    }
                                }
                            ],
                            "typeTag": 4
                        }
                    }
                ]
            },
            {
                "address": "0xacb496dd4a8b6b9d1b99d422b8700f6ef932bc10",
                "erc": "ERC-20",
                "slots": [
                    {
                        "current": "0x6569c18800000000021e1a27d79f91c20000000000000004a29405af9ffdd8fa",
                        "key": "0x0000000000000000000000000000000000000000000000000000000000000008",
                        "prev": "0x6569c003000000006c9fccad8c234e505f6f00000000000006f75c090bc9d8fa"
                    },
                    {
                        "current": "0x0000000000000000000000000037b2208b36341e6982501aacdca3bb7b7015a7",
                        "key": "0x0000000000000000000000000000000000000000000000000000000000000009",
                        "prev": "0x00000000000000000000000000379a6ee4e66e406fcb040b4f333251600a5d50"
                    },
                    {
                        "current": "0x000000000000000000000000000000000000eabc0203efbc19304994da30c357",
                        "key": "0x000000000000000000000000000000000000000000000000000000000000000a",
                        "prev": "0x000000000000000000000000000000000000eaa30f87f7c6891ec284dc3908b0"
                    }
                ],
                "storageVariables": [
                    {
                        "name": "reserve0",
                        "type": "uint112",
                        "value": {
                            "current": "85501971077397338362",
                            "prev": "501971077397338362",
                            "typeTag": 1
                        }
                    },
                    {
                        "name": "reserve1",
                        "type": "uint112",
                        "value": {
                            "current": "10000020000000000000000",
                            "prev": "512963361056079475662703",
                            "typeTag": 1
                        }
                    },
                    {
                        "name": "blockTimestampLast",
                        "type": "uint32",
                        "value": {
                            "current": "1701429640",
                            "prev": "1701429251",
                            "typeTag": 1
                        }
                    },
                    {
                        "name": "price0CumulativeLast",
                        "type": "uint256",
                        "value": {
                            "current": "1242058046894911605980311396637669949306836391",
                            "prev": "1239994013273484140679924659658280609589648720",
                            "typeTag": 1
                        }
                    },
                    {
                        "name": "price1CumulativeLast",
                        "type": "uint256",
                        "value": {
                            "current": "4760979365536085068528524133974871",
                            "prev": "4759002844394535791526279164528816",
                            "typeTag": 1
                        }
                    }
                ]
            }
        ]
    }
}