{
    "balance_change": {
        "balanceChanges": [
            {
                "account": "0x90a7482dd7fa28865f440ec0c3b783775ac01266",
                "assets": [
                    {
                        "address": "0xeeeeeeeeeeeeeeeeeeeeeeeeeeeeeeeeeeeeeeee",
                        "amount": "0.000000000000000001",
                        "iconUrl": "https://assets.blocksec.com/image/1663669189317-3.png",
                        "isERC1155": false,
                        "isERC721": false,
                        "sign": false,
                        "value": "0.0000000000000038916199999999998907"
                    },
                    {
                        "address": "0x4a220e6096b25eadb88358cb44068a3248254675",
                        "amount": "1,030.407674065956519468",
                        "iconUrl": "https://assets.blocksec.com/icon/2517ae4798f8af07582abbcc7e22fbabe148d0b4c36e1004952431a198138ad8.png",
                        "isERC1155": false,
                        "isERC721": false,
                        "sign": true,
                        "value": "127986.93718753999355"
                    }
                ]
            },
            {
                "account": "0x94387e17bc85ad584ef3d56de8b7bb825b78ec8b",
                "assets": [
                    {
                        "address": "0x4a220e6096b25eadb88358cb44068a3248254675",
                        "amount": "1,030.407674065956519468",
                        "iconUrl": "https://assets.blocksec.com/icon/2517ae4798f8af07582abbcc7e22fbabe148d0b4c36e1004952431a198138ad8.png",
                        "isERC1155": false,
                        "isERC721": false,
                        "sign": false,
                        "value": "127986.93718753999355"
                    }
                ]
            },
            {
                "account": "0xd3f64baa732061f8b3626ee44bab354f854877ac",
                "assets": [
                    {
                        "address": "0xeeeeeeeeeeeeeeeeeeeeeeeeeeeeeeeeeeeeeeee",
                        "amount": "0.000000000000000001",
                        "iconUrl": "https://assets.blocksec.com/image/1663669189317-3.png",
                        "isERC1155": false,
                        "isERC721": false,
                        "sign": true,
                        "value": "0.0000000000000038916199999999998907"
                    }
                ]
            }
        ]
    },
    "profile": {
        "basic_info": {
            "baseFee": "65.574377224",
            "blockNumber": 19393192,
            "callData": "0x8b651f790000000000000000000000004a220e6096b25eadb88358cb44068a324825467523b872dd00000000000000000000000094387e17bc85ad584ef3d56de8b7bb825b78ec8b000000000000000000000000d3f64baa732061f8b3626ee44bab354f854877ac000000000000000000000000000000000000000000000037dbc7703aa9d23e2d00000000000000000000000000000000000000000000000000000000",
            "debugEnable": true,
            "errorInfo": "",
            "eventCount": 3,
            "feeRecipient": "0x95222290dd7278aa3ddd389cc1e1d165cc4bafe5",
            "formatValue": "0",
            "gasLimit": 488060,
            "gasPrice": "66.554377224",
            "gasUsed": 94738,
            "intTxnCount": 6,
            "internalRevert": false,
            "internalRevertMessage": "",
            "isContractCreation": false,
            "isFlashloan": false,
            "maxFee": "95.210991546",
            "nonce": 20,
            "overwritedBlockNumber": -1,
            "priorityFee": "0.98",
            "receiver": "0x90a7482dd7fa28865f440ec0c3b783775ac01266",
            "revertMessage": "",
            "sender": "0xc596523b77ceb9567279b572c653ecf4ba763cb7",
            "simulationEnable": true,
            "sourceTxnHash": "0xbe86b5b967a67365e7430ddd1bdf24556c64d1f6ab1e0898c67cf18c62ee584b",
            "status": true,
            "timestamp": "2024-03-08T21:45:35Z",
            "transactionFee": "0.006305228589447312",
            "txnHash": "0xbe86b5b967a67365e7430ddd1bdf24556c64d1f6ab1e0898c67cf18c62ee584b",
            "txnIndex": 164,
            "type": 2,
            "value": "0"
        },
        "fund_flow": [
            {
                "amount": "0.000000000000000001",
                "from": "0x90a7482dd7fa28865f440ec0c3b783775ac01266",
                "id": 1,
                "isERC1155": false,
                "isERC721": false,
                "isReverted": false,
                "order": 1,
                "to": "0xd3f64baa732061f8b3626ee44bab354f854877ac",
                "token": "0xeeeeeeeeeeeeeeeeeeeeeeeeeeeeeeeeeeeeeeee"
            },
            {
                "amount": "1,030.407674065956519468",
                "from": "0x94387e17bc85ad584ef3d56de8b7bb825b78ec8b",
                "id": 2,
                "isERC1155": false,
                "isERC721": false,
                "isReverted": false,
                "order": 2,
                "to": "0xd3f64baa732061f8b3626ee44bab354f854877ac",
                "token": "0x4a220e6096b25eadb88358cb44068a3248254675"
            },
            {
                "amount": "1,030.407674065956519468",
                "from": "0xd3f64baa732061f8b3626ee44bab354f854877ac",
                "id": 3,
                "isERC1155": false,
                "isERC721": false,
                "isReverted": false,
                "order": 3,
                "to": "0x90a7482dd7fa28865f440ec0c3b783775ac01266",
                "token": "0x4a220e6096b25eadb88358cb44068a3248254675"
            }
        ],
        "token_infos": [
            {
                "address": "0xc02aaa39b223fe8d0a0e5c4f27ead9083c756cc2",
                "decimals": 18
            },
            {
                "address": "0xeeeeeeeeeeeeeeeeeeeeeeeeeeeeeeeeeeeeeeee",
                "decimals": 18
            },
            {
                "address": "0x4a220e6096b25eadb88358cb44068a3248254675",
                "decimals": 18
            }
        ]
    },
    "address_label": {
        "labels": [
            {
                "address": "0xeeeeeeeeeeeeeeeeeeeeeeeeeeeeeeeeeeeeeeee",
                "label": "Ether"
            },
            {
                "address": "0xd3f64baa732061f8b3626ee44bab354f854877ac",
                "label": "TransparentUpgradeableProxy_d3f6_77ac"
            },
            {
                "address": "0x4a220e6096b25eadb88358cb44068a3248254675",
                "label": "Quant: QNT Token"
            },
            {
                "address": "0xc596523b77ceb9567279b572c653ecf4ba763cb7",
                "label": "Unizen_io Exploiter 2"
            },
            {
                "address": "0x0000000000000000000000000000000000000001",
                "label": "Precompiled"
            },
            {
                "address": "0x0000000000000000000000000000000000000002",
                "label": "Precompiled"
            },
            {
                "address": "0x0000000000000000000000000000000000000003",
                "label": "Precompiled"
            },
            {
                "address": "0x0000000000000000000000000000000000000004",
                "label": "Precompiled"
            }
        ]
    },
    "trace": {
        "accountLabels": null,
        "dataMap": {
            "-1": {
                "invocation": {
                    "address": "0xc596523b77ceb9567279b572c653ecf4ba763cb7",
                    "callData": "",
                    "decodedMethod": null,
                    "errorInfo": "",
                    "fromAddress": "",
                    "gasUsed": 0,
                    "id": -1,
                    "methodDecoded": false,
                    "operation": "",
                    "output": "",
                    "revert": false,
                    "revertMessage": "",
                    "selector": "",
                    "status": false,
                    "value": ""
                },
                "nodeType": 0
            },
            "0": {
                "invocation": {
                    "address": "0x90a7482dd7fa28865f440ec0c3b783775ac01266",
                    "callData": "0x0000000000000000000000004a220e6096b25eadb88358cb44068a324825467523b872dd00000000000000000000000094387e17bc85ad584ef3d56de8b7bb825b78ec8b000000000000000000000000d3f64baa732061f8b3626ee44bab354f854877ac000000000000000000000000000000000000000000000037dbc7703aa9d23e2d00000000000000000000000000000000000000000000000000000000",
                    "decodedMethod": null,
                    "errorInfo": "",
                    "fromAddress": "0xc596523b77ceb9567279b572c653ecf4ba763cb7",
                    "gasUsed": 94738,
                    "id": 0,
                    "methodDecoded": false,
                    "operation": "CALL",
                    "output": "",
                    "revert": false,
                    "revertMessage": "",
                    "selector": "0x8b651f79",
                    "status": true,
                    "value": "0"
                },
                "nodeType": 0
            },
            "1": {
                "invocation": {
                    "address": "0xd3f64baa732061f8b3626ee44bab354f854877ac",
                    "callData": "0x000000000000000000000000000000000000000000000000000000000000004000000000000000000000000000000000000000000000000000000000000001a000000000000000000000000090a7482dd7fa28865f440ec0c3b783775ac0126600000000000000000000000000000000000000000000000000000000000000000000000000000000000000004a220e6096b25eadb88358cb44068a3248254675000000000000000000000000000000000000000000000000000000000000000100000000000000000000000000000000000000000000000000000000000000000000000000000000000000000000000000000000000000000297963e6c9965e0000000000000000000000000000000000000000000000000000000000000012000000000000000000000000000000000000000000000000000000000000000110000000000000000000000000000000000000000000000000000000000000753000000000000000000000000000000000000000000000000000000000000000a554e495a454e2d434c4900000000000000000000000000000000000000000000000000000000000000000000000000000000000000000000000000000000000100000000000000000000000000000000000000000000000000000000000000200000000000000000000000004a220e6096b25eadb88358cb44068a324825467500000000000000000000000000000000000000000000000000000000000000000000000000000000000000000000000000000000000000000000000000000060000000000000000000000000000000000000000000000000000000000000006423b872dd00000000000000000000000094387e17bc85ad584ef3d56de8b7bb825b78ec8b000000000000000000000000d3f64baa732061f8b3626ee44bab354f854877ac000000000000000000000000000000000000000000000037dbc7703aa9d23e2d00000000000000000000000000000000000000000000000000000000",
                    "decodedMethod": null,
                    "errorInfo": "",
                    "fromAddress": "0x90a7482dd7fa28865f440ec0c3b783775ac01266",
                    "gasUsed": 58431,
                    "id": 1,
                    "methodDecoded": false,
                    "operation": "CALL",
                    "output": "",
                    "revert": false,
                    "revertMessage": "",
                    "selector": "0x1ef29a02",
                    "status": true,
                    "value": "0.000000000000000001"
                },
                "nodeType": 0
            },
            "2": {
                "invocation": {
                    "address": "0xa051fc7d38baa0ace811ad9de4e9f7024e5d8a30",
                    "callData": "0x000000000000000000000000000000000000000000000000000000000000004000000000000000000000000000000000000000000000000000000000000001a000000000000000000000000090a7482dd7fa28865f440ec0c3b783775ac0126600000000000000000000000000000000000000000000000000000000000000000000000000000000000000004a220e6096b25eadb88358cb44068a3248254675000000000000000000000000000000000000000000000000000000000000000100000000000000000000000000000000000000000000000000000000000000000000000000000000000000000000000000000000000000000297963e6c9965e0000000000000000000000000000000000000000000000000000000000000012000000000000000000000000000000000000000000000000000000000000000110000000000000000000000000000000000000000000000000000000000000753000000000000000000000000000000000000000000000000000000000000000a554e495a454e2d434c4900000000000000000000000000000000000000000000000000000000000000000000000000000000000000000000000000000000000100000000000000000000000000000000000000000000000000000000000000200000000000000000000000004a220e6096b25eadb88358cb44068a324825467500000000000000000000000000000000000000000000000000000000000000000000000000000000000000000000000000000000000000000000000000000060000000000000000000000000000000000000000000000000000000000000006423b872dd00000000000000000000000094387e17bc85ad584ef3d56de8b7bb825b78ec8b000000000000000000000000d3f64baa732061f8b3626ee44bab354f854877ac000000000000000000000000000000000000000000000037dbc7703aa9d23e2d00000000000000000000000000000000000000000000000000000000",
                    "decodedMethod": null,
                    "errorInfo": "",
                    "fromAddress": "0xd3f64baa732061f8b3626ee44bab354f854877ac",
                    "gasUsed": 50973,
                    "id": 2,
                    "methodDecoded": false,
                    "operation": "DELEGATECALL",
                    "output": "",
                    "revert": false,
                    "revertMessage": "",
                    "selector": "0x1ef29a02",
                    "status": true,
                    "value": "0.000000000000000001"
                },
                "nodeType": 0
            },
            "3": {
                "invocation": {
                    "address": "0x4a220e6096b25eadb88358cb44068a3248254675",
                    "callData": "0x000000000000000000000000d3f64baa732061f8b3626ee44bab354f854877ac",
                    "decodedMethod": {
                        "callParams": [
                            {
                                "name": "_owner",
                                "type": "address",
                                "value": "0xd3f64baa732061f8b3626ee44bab354f854877ac"
                            }
                        ],
                        "constructorArguments": "",
                        "name": "balanceOf",
                        "returnParams": [
                            {
                                "decimalAvailable": true,
                                "name": "balance",
                                "type": "uint256",
                                "value": "4,224,150,062,917,009"
                            }
                        ],
                        "signature": "balanceOf(address)"
                    },
                    "errorInfo": "",
                    "fromAddress": "0xd3f64baa732061f8b3626ee44bab354f854877ac",
                    "gasUsed": 2605,
                    "id": 3,
                    "methodDecoded": true,
                    "operation": "STATICCALL",
                    "output": "0x000000000000000000000000000000000000000000000000000f01d793fa6591",
                    "revert": false,
                    "revertMessage": "",
                    "selector": "0x70a08231",
                    "status": true,
                    "value": "0"
                },
                "nodeType": 0
            },
            "4": {
                "invocation": {
                    "address": "0x4a220e6096b25eadb88358cb44068a3248254675",
                    "callData": "0x00000000000000000000000094387e17bc85ad584ef3d56de8b7bb825b78ec8b000000000000000000000000d3f64baa732061f8b3626ee44bab354f854877ac000000000000000000000000000000000000000000000037dbc7703aa9d23e2d",
                    "decodedMethod": {
                        "callParams": [
                            {
                                "name": "_from",
                                "type": "address",
                                "value": "0x94387e17bc85ad584ef3d56de8b7bb825b78ec8b"
                            },
                            {
                                "name": "_to",
                                "type": "address",
                                "value": "0xd3f64baa732061f8b3626ee44bab354f854877ac"
                            },
                            {
                                "decimalAvailable": true,
                                "name": "_value",
                                "type": "uint256",
                                "value": "1,030,407,674,065,956,519,469"
                            }
                        ],
                        "constructorArguments": "",
                        "name": "transferFrom",
                        "returnParams": [
                            {
                                "name": "",
                                "type": "bool",
                                "value": true
                            }
                        ],
                        "signature": "transferFrom(address,address,uint256)"
                    },
                    "errorInfo": "",
                    "fromAddress": "0xd3f64baa732061f8b3626ee44bab354f854877ac",
                    "gasUsed": 16857,
                    "id": 4,
                    "methodDecoded": true,
                    "operation": "CALL",
                    "output": "0x0000000000000000000000000000000000000000000000000000000000000001",
                    "revert": false,
                    "revertMessage": "",
                    "selector": "0x23b872dd",
                    "status": true,
                    "value": "0"
                },
                "nodeType": 0
            },
            "5": {
                "event": {
                    "contract": "0x4a220e6096b25eadb88358cb44068a3248254675",
                    "decodedLog": {
                        "name": "Transfer",
                        "params": [
                            {
                                "name": "from",
                                "type": "address",
                                "value": "0x94387e17bc85ad584ef3d56de8b7bb825b78ec8b"
                            },
                            {
                                "name": "to",
                                "type": "address",
                                "value": "0xd3f64baa732061f8b3626ee44bab354f854877ac"
                            },
                            {
                                "decimalAvailable": true,
                                "name": "value",
                                "type": "uint256",
                                "value": "1,030,407,674,065,956,519,469"
                            }
                        ],
                        "signature": "Transfer(address,address,uint256)"
                    },
                    "id": 5,
                    "logData": "0x000000000000000000000000000000000000000000000037dbc7703aa9d23e2d",
                    "logDecoded": true,
                    "operation": "EVENT",
                    "revert": false,
                    "status": true,
                    "topics": [
                        "0xddf252ad1be2c89b69c2b068fc378daa952ba7f163c4a11628f55a4df523b3ef",
                        "0x00000000000000000000000094387e17bc85ad584ef3d56de8b7bb825b78ec8b",
                        "0x000000000000000000000000d3f64baa732061f8b3626ee44bab354f854877ac"
                    ]
                },
                "nodeType": 1
            },
            "6": {
                "invocation": {
                    "address": "0x4a220e6096b25eadb88358cb44068a3248254675",
                    "callData": "0x000000000000000000000000d3f64baa732061f8b3626ee44bab354f854877ac",
                    "decodedMethod": {
                        "callParams": [
                            {
                                "name": "_owner",
                                "type": "address",
                                "value": "0xd3f64baa732061f8b3626ee44bab354f854877ac"
                            }
                        ],
                        "constructorArguments": "",
                        "name": "balanceOf",
                        "returnParams": [
                            {
                                "decimalAvailable": true,
                                "name": "balance",
                                "type": "uint256",
                                "value": "1,030,411,898,216,019,436,478"
                            }
                        ],
                        "signature": "balanceOf(address)"
                    },
                    "errorInfo": "",
                    "fromAddress": "0xd3f64baa732061f8b3626ee44bab354f854877ac",
                    "gasUsed": 605,
                    "id": 6,
                    "methodDecoded": true,
                    "operation": "STATICCALL",
                    "output": "0x000000000000000000000000000000000000000000000037dbd672123dcca3be",
                    "revert": false,
                    "revertMessage": "",
                    "selector": "0x70a08231",
                    "status": true,
                    "value": "0"
                },
                "nodeType": 0
            },
            "7": {
                "invocation": {
                    "address": "0x4a220e6096b25eadb88358cb44068a3248254675",
                    "callData": "0x00000000000000000000000090a7482dd7fa28865f440ec0c3b783775ac01266000000000000000000000000000000000000000000000037dbc7703aa9d23e2d",
                    "decodedMethod": {
                        "callParams": [
                            {
                                "name": "_to",
                                "type": "address",
                                "value": "0x90a7482dd7fa28865f440ec0c3b783775ac01266"
                            },
                            {
                                "decimalAvailable": true,
                                "name": "_value",
                                "type": "uint256",
                                "value": "1,030,407,674,065,956,519,469"
                            }
                        ],
                        "constructorArguments": "",
                        "name": "transfer",
                        "returnParams": [
                            {
                                "name": "",
                                "type": "bool",
                                "value": true
                            }
                        ],
                        "signature": "transfer(address,uint256)"
                    },
                    "errorInfo": "",
                    "fromAddress": "0xd3f64baa732061f8b3626ee44bab354f854877ac",
                    "gasUsed": 8413,
                    "id": 7,
                    "methodDecoded": true,
                    "operation": "CALL",
                    "output": "0x0000000000000000000000000000000000000000000000000000000000000001",
                    "revert": false,
                    "revertMessage": "",
                    "selector": "0xa9059cbb",
                    "status": true,
                    "value": "0"
                },
                "nodeType": 0
            },
            "8": {
                "event": {
                    "contract": "0x4a220e6096b25eadb88358cb44068a3248254675",
                    "decodedLog": {
                        "name": "Transfer",
                        "params": [
                            {
                                "name": "from",
                                "type": "address",
                                "value": "0xd3f64baa732061f8b3626ee44bab354f854877ac"
                            },
                            {
                                "name": "to",
                                "type": "address",
                                "value": "0x90a7482dd7fa28865f440ec0c3b783775ac01266"
                            },
                            {
                                "decimalAvailable": true,
                                "name": "value",
                                "type": "uint256",
                                "value": "1,030,407,674,065,956,519,469"
                            }
                        ],
                        "signature": "Transfer(address,address,uint256)"
                    },
                    "id": 8,
                    "logData": "0x000000000000000000000000000000000000000000000037dbc7703aa9d23e2d",
                    "logDecoded": true,
                    "operation": "EVENT",
                    "revert": false,
                    "status": true,
                    "topics": [
                        "0xddf252ad1be2c89b69c2b068fc378daa952ba7f163c4a11628f55a4df523b3ef",
                        "0x000000000000000000000000d3f64baa732061f8b3626ee44bab354f854877ac",
                        "0x00000000000000000000000090a7482dd7fa28865f440ec0c3b783775ac01266"
                    ]
                },
                "nodeType": 1
            },
            "9": {
                "event": {
                    "contract": "0xd3f64baa732061f8b3626ee44bab354f854877ac",
                    "decodedLog": {
                        "name": "Swapped",
                        "params": [
                            {
                                "name": "amountIn",
                                "type": "uint256",
                                "value": "0"
                            },
                            {
                                "name": "amountOut",
                                "type": "uint256",
                                "value": "1,030,407,674,065,956,519,469"
                            },
                            {
                                "name": "srcToken",
                                "type": "address",
                                "value": "0x0000000000000000000000000000000000000000"
                            },
                            {
                                "name": "dstToken",
                                "type": "address",
                                "value": "0x4a220e6096b25eadb88358cb44068a3248254675"
                            },
                            {
                                "name": "receiver",
                                "type": "address",
                                "value": "0x90a7482dd7fa28865f440ec0c3b783775ac01266"
                            },
                            {
                                "name": "sender",
                                "type": "address",
                                "value": "0x90a7482dd7fa28865f440ec0c3b783775ac01266"
                            },
                            {
                                "name": "apiId",
                                "type": "uint16",
                                "value": "17"
                            }
                        ],
                        "signature": "Swapped(uint256,uint256,address,address,address,address,uint16)"
                    },
                    "id": 9,
                    "logData": "0x0000000000000000000000000000000000000000000000000000000000000000000000000000000000000000000000000000000000000037dbc7703aa9d23e2d00000000000000000000000000000000000000000000000000000000000000000000000000000000000000004a220e6096b25eadb88358cb44068a324825467500000000000000000000000090a7482dd7fa28865f440ec0c3b783775ac0126600000000000000000000000090a7482dd7fa28865f440ec0c3b783775ac012660000000000000000000000000000000000000000000000000000000000000011",
                    "logDecoded": true,
                    "operation": "EVENT",
                    "revert": false,
                    "status": true,
                    "topics": [
                        "0xe3aecd3d46b48cc4869cac1e9bad367d8ebe45dd01d231fe7d442d3f85ca7565"
                    ]
                },
                "nodeType": 1
            }
        },
        "gasFlame": [
            {
                "children": [
                    {
                        "children": [
                            {
                                "children": [],
                                "depth": 0,
                                "name": "Initial Gas",
                                "value": 22580
                            },
                            {
                                "children": [
                                    {
                                        "children": [
                                            {
                                                "children": [
                                                    {
                                                        "children": [],
                                                        "depth": 3,
                                                        "name": "balanceOf",
                                                        "value": 2605
                                                    },
                                                    {
                                                        "children": [],
                                                        "depth": 3,
                                                        "name": "transferFrom",
                                                        "value": 16857
                                                    },
                                                    {
                                                        "children": [],
                                                        "depth": 3,
                                                        "name": "balanceOf",
                                                        "value": 605
                                                    },
                                                    {
                                                        "children": [],
                                                        "depth": 3,
                                                        "name": "transfer",
                                                        "value": 8413
                                                    }
                                                ],
                                                "depth": 2,
                                                "name": "0x1ef29a02",
                                                "value": 50973
                                            }
                                        ],
                                        "depth": 1,
                                        "name": "0x1ef29a02",
                                        "value": 58431
                                    }
                                ],
                                "depth": 0,
                                "name": "Executed Gas",
                                "value": 77758
                            }
                        ],
                        "depth": -1,
                        "name": "Actual Gas Used",
                        "value": 94738
                    },
                    {
                        "children": [],
                        "depth": -1,
                        "name": "Refunded Gas",
                        "value": 5600
                    }
                ],
                "depth": -2,
                "name": "Total Gas",
                "value": 100338
            }
        ],
        "isConfirmed": true,
        "mainTrace": [
            {
                "children": [
                    {
                        "children": [
                            {
                                "children": [
                                    {
                                        "children": [
                                            {
                                                "children": [],
                                                "depth": 3,
                                                "id": 3,
                                                "order": 3
                                            },
                                            {
                                                "children": [
                                                    {
                                                        "children": [],
                                                        "depth": 4,
                                                        "id": 5,
                                                        "order": 5
                                                    }
                                                ],
                                                "depth": 3,
                                                "id": 4,
                                                "order": 4
                                            },
                                            {
                                                "children": [],
                                                "depth": 3,
                                                "id": 6,
                                                "order": 6
                                            },
                                            {
                                                "children": [
                                                    {
                                                        "children": [],
                                                        "depth": 4,
                                                        "id": 8,
                                                        "order": 8
                                                    }
                                                ],
                                                "depth": 3,
                                                "id": 7,
                                                "order": 7
                                            },
                                            {
                                                "children": [],
                                                "depth": 3,
                                                "id": 9,
                                                "order": 9
                                            }
                                        ],
                                        "depth": 2,
                                        "id": 2,
                                        "order": 2
                                    }
                                ],
                                "depth": 1,
                                "id": 1,
                                "order": 1
                            }
                        ],
                        "depth": 0,
                        "id": 0,
                        "order": 0
                    }
                ],
                "depth": -1,
                "id": -1,
                "order": -1
            }
        ],
        "mainTraceNodeCount": 10,
        "parentIdMap": {
            "0": -1,
            "1": 0,
            "2": 1,
            "3": 2,
            "4": 2,
            "5": 4,
            "6": 2,
            "7": 2,
            "8": 7,
            "9": 2
        },
        "tidyTrace": [
            {
                "children": [
                    {
                        "children": [
                            {
                                "children": [
                                    {
                                        "children": [
                                            {
                                                "children": [
                                                    {
                                                        "children": [],
                                                        "depth": 4,
                                                        "id": 5,
                                                        "order": 5
                                                    }
                                                ],
                                                "depth": 3,
                                                "id": 4,
                                                "order": 4
                                            },
                                            {
                                                "children": [
                                                    {
                                                        "children": [],
                                                        "depth": 4,
                                                        "id": 8,
                                                        "order": 8
                                                    }
                                                ],
                                                "depth": 3,
                                                "id": 7,
                                                "order": 7
                                            },
                                            {
                                                "children": [],
                                                "depth": 3,
                                                "id": 9,
                                                "order": 9
                                            }
                                        ],
                                        "depth": 2,
                                        "id": 2,
                                        "order": 2
                                    }
                                ],
                                "depth": 1,
                                "id": 1,
                                "order": 1
                            }
                        ],
                        "depth": 0,
                        "id": 0,
                        "order": 0
                    }
                ],
                "depth": -1,
                "id": -1,
                "order": -1
            }
        ],
        "tidyTraceNodeCount": 8
    },
    "state_change": {
        "stateChanges": [
            {
                "address": "0x4a220e6096b25eadb88358cb44068a3248254675",
                "erc": "ERC-20",
                "slots": [
                    {
                        "current": "0x000000000000000000000000000000000000000000000011e84f2fb3d69744ae",
                        "key": "0xc02c9bf36504b87e92f6b0357cf0366a1ead3738f8e3858f73ad867b457397f4",
                        "prev": "0x000000000000000000000000000000000000000000000049c4169fee806982db"
                    },
                    {
                        "current": "0x00000000000000000000000000000000000000000000006fb78ee07553a47c5a",
                        "key": "0x5b6a4051c7104ad3a5793418431de9996024ced5fcc87764a53aeef75e52b783",
                        "prev": "0x000000000000000000000000000000000000000000000037dbc7703aa9d23e2d"
                    },
                    {
                        "current": "0x00000000000000000000000000000000000000000000000f0f966c2c459344ae",
                        "key": "0x7ff96e71e18b18801be2529abc07397bb96539c37f63839788db58c2ebd0b9b9",
                        "prev": "0x000000000000000000000000000000000000000000000046eb5ddc66ef6582db"
                    }
                ],
                "storageVariables": [
                    {
                        "name": "allowed",
                        "type": "mapping(address => mapping(address => uint256))",
                        "value": {
                            "pairs": [
                                {
                                    "key": "0x94387e17bc85ad584ef3d56de8b7bb825b78ec8b",
                                    "value": {
                                        "pairs": [
                                            {
                                                "key": "0xd3f64baa732061f8b3626ee44bab354f854877ac",
                                                "value": {
                                                    "current": "330334300042467689646",
                                                    "prev": "1360741974108424209115",
                                                    "typeTag": 1
                                                }
                                            }
                                        ],
                                        "typeTag": 4
                                    }
                                }
                            ],
                            "typeTag": 4
                        }
                    },
                    {
                        "name": "balances",
                        "type": "mapping(address => uint256)",
                        "value": {
                            "pairs": [
                                {
                                    "key": "0x90a7482dd7fa28865f440ec0c3b783775ac01266",
                                    "value": {
                                        "current": "2060815348131913038938",
                                        "prev": "1030407674065956519469",
                                        "typeTag": 1
                                    }
                                },
                                {
                                    "key": "0x94387e17bc85ad584ef3d56de8b7bb825b78ec8b",
                                    "value": {
                                        "current": "277824365200120431790",
                                        "prev": "1308232039266076951259",
                                        "typeTag": 1
                                    }
                                }
                            ],
                            "typeTag": 4
                        }
                    }
                ]
            }
        ]
    }
}