{
    "balance_change": {
        "balanceChanges": [
            {
                "account": "0x0f44f3489d17e42ab13a6beb76e57813081fc1e2",
                "assets": [
                    {
                        "address": "0xe94b97b6b43639e238c851a7e693f50033efd75c",
                        "amount": "100,000,000,000,000",
                        "iconUrl": "",
                        "isERC1155": false,
                        "isERC721": false,
                        "sign": true,
                        "value": ""
                    }
                ]
            },
            {
                "account": "0x0000000000000000000000000000000000000000",
                "assets": [
                    {
                        "address": "0xe94b97b6b43639e238c851a7e693f50033efd75c",
                        "amount": "100,000,000,000,000",
                        "iconUrl": "",
                        "isERC1155": false,
                        "isERC721": false,
                        "sign": false,
                        "value": ""
                    }
                ]
            }
        ]
    },
    "profile": {
        "basic_info": {
            "baseFee": "15.978641635",
            "blockNumber": 15704746,
            "callData": "0xbe9a6555",
            "debugEnable": true,
            "errorInfo": "",
            "eventCount": 8,
            "feeRecipient": "0xdafea492d9c6733ae3d56b7ed1adb60692c98bc5",
            "formatValue": "0",
            "gasLimit": 861508,
            "gasPrice": "18.978641635",
            "gasUsed": 589066,
            "intTxnCount": 28,
            "internalRevert": false,
            "internalRevertMessage": "",
            "isContractCreation": false,
            "isFlashloan": false,
            "maxFee": "36.879852258",
            "nonce": 1,
            "overwritedBlockNumber": -1,
            "priorityFee": "3",
            "receiver": "0xe167cdaac8718b90c03cf2cb75dc976e24ee86d3",
            "revertMessage": "",
            "sender": "0x0f44f3489d17e42ab13a6beb76e57813081fc1e2",
            "simulationEnable": true,
            "sourceTxnHash": "0xc18ec2eb7d41638d9982281e766945d0428aaeda6211b4ccb6626ea7cff31f4a",
            "status": true,
            "timestamp": "2022-10-08T17:04:11Z",
            "transactionFee": "0.01117967251336291",
            "txnHash": "0xc18ec2eb7d41638d9982281e766945d0428aaeda6211b4ccb6626ea7cff31f4a",
            "txnIndex": 53,
            "type": 2,
            "value": "0"
        },
        "fund_flow": [
            {
                "amount": "100,000,000,000,000",
                "from": "0x0000000000000000000000000000000000000000",
                "id": 1,
                "isERC1155": false,
                "isERC721": false,
                "isReverted": false,
                "order": 1,
                "to": "0x0f44f3489d17e42ab13a6beb76e57813081fc1e2",
                "token": "0xe94b97b6b43639e238c851a7e693f50033efd75c"
            }
        ],
        "token_infos": [
            {
                "address": "0xc02aaa39b223fe8d0a0e5c4f27ead9083c756cc2",
                "decimals": 18
            },
            {
                "address": "0xe94b97b6b43639e238c851a7e693f50033efd75c",
                "decimals": 18
            },
            {
                "address": "0xeeeeeeeeeeeeeeeeeeeeeeeeeeeeeeeeeeeeeeee",
                "decimals": 18
            }
        ]
    },
    "address_label": {
        "labels": [
            {
                "address": "0xe94b97b6b43639e238c851a7e693f50033efd75c",
                "label": "HaloDAO: RNBW Token"
            },
            {
                "address": "0x325a2e0f3cca2ddbaebb4dfc38df8d19ca165b47",
                "label": "Reality Eth"
            },
            {
                "address": "0x0000000000000000000000000000000000000002",
                "label": "Precompiled"
            },
            {
                "address": "0x0000000000000000000000000000000000000003",
                "label": "Precompiled"
            },
            {
                "address": "0x0f44f3489d17e42ab13a6beb76e57813081fc1e2",
                "label": "XaveFinance Exploiter"
            },
            {
                "address": "0x7eae370e6a76407c3955a2f0bbca853c38e6454e",
                "label": "Proxy_7eae_454e"
            },
            {
                "address": "0x34cfac646f301356faa8b21e94227e3583fe3f5f",
                "label": "Safe: Mastercopy 1.1.1"
            },
            {
                "address": "0x0000000000000000000000000000000000000004",
                "label": "Precompiled"
            },
            {
                "address": "0xeeeeeeeeeeeeeeeeeeeeeeeeeeeeeeeeeeeeeeee",
                "label": "Ether"
            },
            {
                "address": "0xe167cdaac8718b90c03cf2cb75dc976e24ee86d3",
                "label": "XaveFinance Exploit Contract"
            },
            {
                "address": "0x0000000000000000000000000000000000000001",
                "label": "Precompiled"
            },
            {
                "address": "0x8f9036732b9aa9b82d8f35e54b71faeb2f573e2f",
                "label": "DaoModule"
            },
            {
                "address": "0x6335a2e4a2e304401fca4fc0deaff066b813d055",
                "label": "Lollipop Token (LPOP)"
            },
            {
                "address": "0x579270f151d142eb8bdc081043a983307aa15786",
                "label": "PrimaryBridge"
            }
        ]
    },
    "trace": {
        "accountLabels": null,
        "dataMap": {
            "-1": {
                "invocation": {
                    "address": "0x0f44f3489d17e42ab13a6beb76e57813081fc1e2",
                    "callData": "",
                    "decodedMethod": null,
                    "errorInfo": "",
                    "fromAddress": "",
                    "gasUsed": 0,
                    "id": -1,
                    "methodDecoded": false,
                    "operation": "",
                    "output": "",
                    "revert": false,
                    "revertMessage": "",
                    "selector": "",
                    "status": false,
                    "value": ""
                },
                "nodeType": 0
            },
            "0": {
                "invocation": {
                    "address": "0xe167cdaac8718b90c03cf2cb75dc976e24ee86d3",
                    "callData": "0x",
                    "decodedMethod": {
                        "callParams": [],
                        "constructorArguments": "",
                        "name": "start",
                        "returnParams": [],
                        "signature": "start()"
                    },
                    "errorInfo": "",
                    "fromAddress": "0x0f44f3489d17e42ab13a6beb76e57813081fc1e2",
                    "gasUsed": 589066,
                    "id": 0,
                    "methodDecoded": true,
                    "operation": "CALL",
                    "output": "",
                    "revert": false,
                    "revertMessage": "",
                    "selector": "0xbe9a6555",
                    "status": true,
                    "value": "0"
                },
                "nodeType": 0
            },
            "1": {
                "invocation": {
                    "address": "0x8f9036732b9aa9b82d8f35e54b71faeb2f573e2f",
                    "callData": "0x000000000000000000000000e94b97b6b43639e238c851a7e693f50033efd75c000000000000000000000000000000000000000000000000000000000000000000000000000000000000000000000000000000000000000000000000000000a000000000000000000000000000000000000000000000000000000000000000000000000000000000000000000000000000000000000000000000000000000000000000000000000000000000000000000000000000000000000000000000004440c10f190000000000000000000000000f44f3489d17e42ab13a6beb76e57813081fc1e200000000000000000000000000000000000004ee2d6d415b85acef810000000000000000000000000000000000000000000000000000000000000000",
                    "decodedMethod": {
                        "callParams": [
                            {
                                "name": "to",
                                "type": "address",
                                "value": "0xe94b97b6b43639e238c851a7e693f50033efd75c"
                            },
                            {
                                "name": "value",
                                "type": "uint256",
                                "value": "0"
                            },
                            {
                                "name": "data",
                                "type": "bytes",
                                "value": "0x40c10f190000000000000000000000000f44f3489d17e42ab13a6beb76e57813081fc1e200000000000000000000000000000000000004ee2d6d415b85acef8100000000"
                            },
                            {
                                "name": "operation",
                                "type": "uint8",
                                "value": "0"
                            },
                            {
                                "name": "nonce",
                                "type": "uint256",
                                "value": "0"
                            }
                        ],
                        "constructorArguments": "",
                        "name": "getTransactionHash",
                        "returnParams": [
                            {
                                "name": "",
                                "type": "bytes32",
                                "value": "0x920be15788d94a0bee09f9f7bcbdad2e47ef4a59f684d9bb06b657083e576c0a"
                            }
                        ],
                        "signature": "getTransactionHash(address,uint256,bytes,uint8,uint256)"
                    },
                    "errorInfo": "",
                    "fromAddress": "0xe167cdaac8718b90c03cf2cb75dc976e24ee86d3",
                    "gasUsed": 4245,
                    "id": 1,
                    "methodDecoded": true,
                    "operation": "STATICCALL",
                    "output": "0x920be15788d94a0bee09f9f7bcbdad2e47ef4a59f684d9bb06b657083e576c0a",
                    "revert": false,
                    "revertMessage": "",
                    "selector": "0x2b500041",
                    "status": true,
                    "value": "0"
                },
                "nodeType": 0
            },
            "10": {
                "invocation": {
                    "address": "0xe94b97b6b43639e238c851a7e693f50033efd75c",
                    "callData": "0x0000000000000000000000000f44f3489d17e42ab13a6beb76e57813081fc1e200000000000000000000000000000000000004ee2d6d415b85acef8100000000",
                    "decodedMethod": {
                        "callParams": [
                            {
                                "name": "account",
                                "type": "address",
                                "value": "0x0f44f3489d17e42ab13a6beb76e57813081fc1e2"
                            },
                            {
                                "name": "amount",
                                "type": "uint256",
                                "value": "100,000,000,000,000,000,000,000,000,000,000"
                            }
                        ],
                        "constructorArguments": "",
                        "name": "mint",
                        "returnParams": [],
                        "signature": "mint(address,uint256)"
                    },
                    "errorInfo": "",
                    "fromAddress": "0x7eae370e6a76407c3955a2f0bbca853c38e6454e",
                    "gasUsed": 32822,
                    "id": 10,
                    "methodDecoded": true,
                    "operation": "CALL",
                    "output": "",
                    "revert": false,
                    "revertMessage": "",
                    "selector": "0x40c10f19",
                    "status": true,
                    "value": "0"
                },
                "nodeType": 0
            },
            "11": {
                "event": {
                    "contract": "0xe94b97b6b43639e238c851a7e693f50033efd75c",
                    "decodedLog": {
                        "name": "Transfer",
                        "params": [
                            {
                                "name": "from",
                                "type": "address",
                                "value": "0x0000000000000000000000000000000000000000"
                            },
                            {
                                "name": "to",
                                "type": "address",
                                "value": "0x0f44f3489d17e42ab13a6beb76e57813081fc1e2"
                            },
                            {
                                "decimalAvailable": true,
                                "name": "value",
                                "type": "uint256",
                                "value": "100,000,000,000,000,000,000,000,000,000,000"
                            }
                        ],
                        "signature": "Transfer(address,address,uint256)"
                    },
                    "id": 11,
                    "logData": "0x00000000000000000000000000000000000004ee2d6d415b85acef8100000000",
                    "logDecoded": true,
                    "operation": "EVENT",
                    "revert": false,
                    "status": true,
                    "topics": [
                        "0xddf252ad1be2c89b69c2b068fc378daa952ba7f163c4a11628f55a4df523b3ef",
                        "0x0000000000000000000000000000000000000000000000000000000000000000",
                        "0x0000000000000000000000000f44f3489d17e42ab13a6beb76e57813081fc1e2"
                    ]
                },
                "nodeType": 1
            },
            "12": {
                "event": {
                    "contract": "0x7eae370e6a76407c3955a2f0bbca853c38e6454e",
                    "decodedLog": {
                        "name": "ExecutionFromModuleSuccess",
                        "params": [
                            {
                                "name": "module",
                                "type": "address",
                                "value": "0x8f9036732b9aa9b82d8f35e54b71faeb2f573e2f"
                            }
                        ],
                        "signature": "ExecutionFromModuleSuccess(address)"
                    },
                    "id": 12,
                    "logData": "0x",
                    "logDecoded": true,
                    "operation": "EVENT",
                    "revert": false,
                    "status": true,
                    "topics": [
                        "0x6895c13664aa4f67288b25d7a21d7aaa34916e355fb9b6fae0a139a9085becb8",
                        "0x0000000000000000000000008f9036732b9aa9b82d8f35e54b71faeb2f573e2f"
                    ]
                },
                "nodeType": 1
            },
            "13": {
                "invocation": {
                    "address": "0x8f9036732b9aa9b82d8f35e54b71faeb2f573e2f",
                    "callData": "0x00000000000000000000000000000000000000000000000000000000000000e00000000000000000000000000000000000000000000000000000000000000120000000000000000000000000e94b97b6b43639e238c851a7e693f50033efd75c000000000000000000000000000000000000000000000000000000000000000000000000000000000000000000000000000000000000000000000000000001c000000000000000000000000000000000000000000000000000000000000000000000000000000000000000000000000000000000000000000000000000000001000000000000000000000000000000000000000000000000000000000000000132000000000000000000000000000000000000000000000000000000000000000000000000000000000000000000000000000000000000000000000000000004920be15788d94a0bee09f9f7bcbdad2e47ef4a59f684d9bb06b657083e576c0aa76f7716abd0c04dcd5e627b349fea606f0133d93ce8381d450e976b6ef7b9cae99095062d9e0d131e25a230c8a84345b37b979bd6f7b0b9e1850a0847339b6d14f07b03beee17f568bdb8627c3a521b1a7c99cd7abcafec9a015d93c3fb92930000000000000000000000000000000000000000000000000000000000000024f2fde38b0000000000000000000000000f44f3489d17e42ab13a6beb76e57813081fc1e200000000000000000000000000000000000000000000000000000000",
                    "decodedMethod": {
                        "callParams": [
                            {
                                "name": "proposalId",
                                "type": "string",
                                "value": "2"
                            },
                            {
                                "name": "txHashes",
                                "type": "bytes32[]",
                                "value": [
                                    "0x920be15788d94a0bee09f9f7bcbdad2e47ef4a59f684d9bb06b657083e576c0a",
                                    "0xa76f7716abd0c04dcd5e627b349fea606f0133d93ce8381d450e976b6ef7b9ca",
                                    "0xe99095062d9e0d131e25a230c8a84345b37b979bd6f7b0b9e1850a0847339b6d",
                                    "0x14f07b03beee17f568bdb8627c3a521b1a7c99cd7abcafec9a015d93c3fb9293"
                                ]
                            },
                            {
                                "name": "to",
                                "type": "address",
                                "value": "0xe94b97b6b43639e238c851a7e693f50033efd75c"
                            },
                            {
                                "name": "value",
                                "type": "uint256",
                                "value": "0"
                            },
                            {
                                "name": "data",
                                "type": "bytes",
                                "value": "0xf2fde38b0000000000000000000000000f44f3489d17e42ab13a6beb76e57813081fc1e2"
                            },
                            {
                                "name": "operation",
                                "type": "uint8",
                                "value": "0"
                            },
                            {
                                "name": "txIndex",
                                "type": "uint256",
                                "value": "1"
                            }
                        ],
                        "constructorArguments": "",
                        "name": "executeProposalWithIndex",
                        "returnParams": [],
                        "signature": "executeProposalWithIndex(string,bytes32[],address,uint256,bytes,uint8,uint256)"
                    },
                    "errorInfo": "",
                    "fromAddress": "0xe167cdaac8718b90c03cf2cb75dc976e24ee86d3",
                    "gasUsed": 118368,
                    "id": 13,
                    "methodDecoded": true,
                    "operation": "CALL",
                    "output": "",
                    "revert": false,
                    "revertMessage": "",
                    "selector": "0x14604b8c",
                    "status": true,
                    "value": "0"
                },
                "nodeType": 0
            },
            "14": {
                "invocation": {
                    "address": "0x325a2e0f3cca2ddbaebb4dfc38df8d19ca165b47",
                    "callData": "0x00b085265e9c3dd5070453c6a625285263dd087938b50b89d2b45390c9558b1e",
                    "decodedMethod": {
                        "callParams": [
                            {
                                "name": "question_id",
                                "type": "bytes32",
                                "value": "0x00b085265e9c3dd5070453c6a625285263dd087938b50b89d2b45390c9558b1e"
                            }
                        ],
                        "constructorArguments": "",
                        "name": "resultFor",
                        "returnParams": [
                            {
                                "name": "",
                                "type": "bytes32",
                                "value": "0x0000000000000000000000000000000000000000000000000000000000000001"
                            }
                        ],
                        "signature": "resultFor(bytes32)"
                    },
                    "errorInfo": "",
                    "fromAddress": "0x8f9036732b9aa9b82d8f35e54b71faeb2f573e2f",
                    "gasUsed": 1627,
                    "id": 14,
                    "methodDecoded": true,
                    "operation": "STATICCALL",
                    "output": "0x0000000000000000000000000000000000000000000000000000000000000001",
                    "revert": false,
                    "revertMessage": "",
                    "selector": "0xd09cc57e",
                    "status": true,
                    "value": "0"
                },
                "nodeType": 0
            },
            "15": {
                "invocation": {
                    "address": "0x325a2e0f3cca2ddbaebb4dfc38df8d19ca165b47",
                    "callData": "0x00b085265e9c3dd5070453c6a625285263dd087938b50b89d2b45390c9558b1e",
                    "decodedMethod": {
                        "callParams": [
                            {
                                "name": "question_id",
                                "type": "bytes32",
                                "value": "0x00b085265e9c3dd5070453c6a625285263dd087938b50b89d2b45390c9558b1e"
                            }
                        ],
                        "constructorArguments": "",
                        "name": "getFinalizeTS",
                        "returnParams": [
                            {
                                "name": "",
                                "type": "uint32",
                                "value": "1,665,248,544"
                            }
                        ],
                        "signature": "getFinalizeTS(bytes32)"
                    },
                    "errorInfo": "",
                    "fromAddress": "0x8f9036732b9aa9b82d8f35e54b71faeb2f573e2f",
                    "gasUsed": 1130,
                    "id": 15,
                    "methodDecoded": true,
                    "operation": "STATICCALL",
                    "output": "0x000000000000000000000000000000000000000000000000000000006341ad20",
                    "revert": false,
                    "revertMessage": "",
                    "selector": "0xacae8f4e",
                    "status": true,
                    "value": "0"
                },
                "nodeType": 0
            },
            "16": {
                "invocation": {
                    "address": "0x7eae370e6a76407c3955a2f0bbca853c38e6454e",
                    "callData": "0x000000000000000000000000e94b97b6b43639e238c851a7e693f50033efd75c0000000000000000000000000000000000000000000000000000000000000000000000000000000000000000000000000000000000000000000000000000008000000000000000000000000000000000000000000000000000000000000000000000000000000000000000000000000000000000000000000000000000000024f2fde38b0000000000000000000000000f44f3489d17e42ab13a6beb76e57813081fc1e200000000000000000000000000000000000000000000000000000000",
                    "decodedMethod": {
                        "callParams": [
                            {
                                "name": "to",
                                "type": "address",
                                "value": "0xe94b97b6b43639e238c851a7e693f50033efd75c"
                            },
                            {
                                "name": "value",
                                "type": "uint256",
                                "value": "0"
                            },
                            {
                                "name": "data",
                                "type": "bytes",
                                "value": "0xf2fde38b0000000000000000000000000f44f3489d17e42ab13a6beb76e57813081fc1e2"
                            },
                            {
                                "name": "operation",
                                "type": "uint8",
                                "value": "0"
                            }
                        ],
                        "constructorArguments": "",
                        "name": "execTransactionFromModule",
                        "returnParams": [
                            {
                                "name": "success",
                                "type": "bool",
                                "value": true
                            }
                        ],
                        "signature": "execTransactionFromModule(address,uint256,bytes,uint8)"
                    },
                    "errorInfo": "",
                    "fromAddress": "0x8f9036732b9aa9b82d8f35e54b71faeb2f573e2f",
                    "gasUsed": 8753,
                    "id": 16,
                    "methodDecoded": true,
                    "operation": "CALL",
                    "output": "0x0000000000000000000000000000000000000000000000000000000000000001",
                    "revert": false,
                    "revertMessage": "",
                    "selector": "0x468721a7",
                    "status": true,
                    "value": "0"
                },
                "nodeType": 0
            },
            "17": {
                "invocation": {
                    "address": "0x34cfac646f301356faa8b21e94227e3583fe3f5f",
                    "callData": "0x000000000000000000000000e94b97b6b43639e238c851a7e693f50033efd75c0000000000000000000000000000000000000000000000000000000000000000000000000000000000000000000000000000000000000000000000000000008000000000000000000000000000000000000000000000000000000000000000000000000000000000000000000000000000000000000000000000000000000024f2fde38b0000000000000000000000000f44f3489d17e42ab13a6beb76e57813081fc1e200000000000000000000000000000000000000000000000000000000",
                    "decodedMethod": {
                        "callParams": [
                            {
                                "name": "to",
                                "type": "address",
                                "value": "0xe94b97b6b43639e238c851a7e693f50033efd75c"
                            },
                            {
                                "name": "value",
                                "type": "uint256",
                                "value": "0"
                            },
                            {
                                "name": "data",
                                "type": "bytes",
                                "value": "0xf2fde38b0000000000000000000000000f44f3489d17e42ab13a6beb76e57813081fc1e2"
                            },
                            {
                                "name": "operation",
                                "type": "uint8",
                                "value": "0"
                            }
                        ],
                        "constructorArguments": "",
                        "name": "execTransactionFromModule",
                        "returnParams": [
                            {
                                "name": "success",
                                "type": "bool",
                                "value": true
                            }
                        ],
                        "signature": "execTransactionFromModule(address,uint256,bytes,uint8)"
                    },
                    "errorInfo": "",
                    "fromAddress": "0x7eae370e6a76407c3955a2f0bbca853c38e6454e",
                    "gasUsed": 8386,
                    "id": 17,
                    "methodDecoded": true,
                    "operation": "DELEGATECALL",
                    "output": "0x0000000000000000000000000000000000000000000000000000000000000001",
                    "revert": false,
                    "revertMessage": "",
                    "selector": "0x468721a7",
                    "status": true,
                    "value": "0"
                },
                "nodeType": 0
            },
            "18": {
                "invocation": {
                    "address": "0xe94b97b6b43639e238c851a7e693f50033efd75c",
                    "callData": "0x0000000000000000000000000f44f3489d17e42ab13a6beb76e57813081fc1e2",
                    "decodedMethod": {
                        "callParams": [
                            {
                                "name": "newOwner",
                                "type": "address",
                                "value": "0x0f44f3489d17e42ab13a6beb76e57813081fc1e2"
                            }
                        ],
                        "constructorArguments": "",
                        "name": "transferOwnership",
                        "returnParams": [],
                        "signature": "transferOwnership(address)"
                    },
                    "errorInfo": "",
                    "fromAddress": "0x7eae370e6a76407c3955a2f0bbca853c38e6454e",
                    "gasUsed": 5741,
                    "id": 18,
                    "methodDecoded": true,
                    "operation": "CALL",
                    "output": "",
                    "revert": false,
                    "revertMessage": "",
                    "selector": "0xf2fde38b",
                    "status": true,
                    "value": "0"
                },
                "nodeType": 0
            },
            "19": {
                "event": {
                    "contract": "0xe94b97b6b43639e238c851a7e693f50033efd75c",
                    "decodedLog": {
                        "name": "OwnershipTransferred",
                        "params": [
                            {
                                "name": "previousOwner",
                                "type": "address",
                                "value": "0x7eae370e6a76407c3955a2f0bbca853c38e6454e"
                            },
                            {
                                "name": "newOwner",
                                "type": "address",
                                "value": "0x0f44f3489d17e42ab13a6beb76e57813081fc1e2"
                            }
                        ],
                        "signature": "OwnershipTransferred(address,address)"
                    },
                    "id": 19,
                    "logData": "0x",
                    "logDecoded": true,
                    "operation": "EVENT",
                    "revert": false,
                    "status": true,
                    "topics": [
                        "0x8be0079c531659141344cd1fd0a4f28419497f9722a3daafe3b4186f6b6457e0",
                        "0x0000000000000000000000007eae370e6a76407c3955a2f0bbca853c38e6454e",
                        "0x0000000000000000000000000f44f3489d17e42ab13a6beb76e57813081fc1e2"
                    ]
                },
                "nodeType": 1
            },
            "2": {
                "invocation": {
                    "address": "0x8f9036732b9aa9b82d8f35e54b71faeb2f573e2f",
                    "callData": "0x000000000000000000000000e94b97b6b43639e238c851a7e693f50033efd75c000000000000000000000000000000000000000000000000000000000000000000000000000000000000000000000000000000000000000000000000000000a0000000000000000000000000000000000000000000000000000000000000000000000000000000000000000000000000000000000000000000000000000000010000000000000000000000000000000000000000000000000000000000000024f2fde38b0000000000000000000000000f44f3489d17e42ab13a6beb76e57813081fc1e200000000000000000000000000000000000000000000000000000000",
                    "decodedMethod": {
                        "callParams": [
                            {
                                "name": "to",
                                "type": "address",
                                "value": "0xe94b97b6b43639e238c851a7e693f50033efd75c"
                            },
                            {
                                "name": "value",
                                "type": "uint256",
                                "value": "0"
                            },
                            {
                                "name": "data",
                                "type": "bytes",
                                "value": "0xf2fde38b0000000000000000000000000f44f3489d17e42ab13a6beb76e57813081fc1e2"
                            },
                            {
                                "name": "operation",
                                "type": "uint8",
                                "value": "0"
                            },
                            {
                                "name": "nonce",
                                "type": "uint256",
                                "value": "1"
                            }
                        ],
                        "constructorArguments": "",
                        "name": "getTransactionHash",
                        "returnParams": [
                            {
                                "name": "",
                                "type": "bytes32",
                                "value": "0xa76f7716abd0c04dcd5e627b349fea606f0133d93ce8381d450e976b6ef7b9ca"
                            }
                        ],
                        "signature": "getTransactionHash(address,uint256,bytes,uint8,uint256)"
                    },
                    "errorInfo": "",
                    "fromAddress": "0xe167cdaac8718b90c03cf2cb75dc976e24ee86d3",
                    "gasUsed": 4233,
                    "id": 2,
                    "methodDecoded": true,
                    "operation": "STATICCALL",
                    "output": "0xa76f7716abd0c04dcd5e627b349fea606f0133d93ce8381d450e976b6ef7b9ca",
                    "revert": false,
                    "revertMessage": "",
                    "selector": "0x2b500041",
                    "status": true,
                    "value": "0"
                },
                "nodeType": 0
            },
            "20": {
                "event": {
                    "contract": "0x7eae370e6a76407c3955a2f0bbca853c38e6454e",
                    "decodedLog": {
                        "name": "ExecutionFromModuleSuccess",
                        "params": [
                            {
                                "name": "module",
                                "type": "address",
                                "value": "0x8f9036732b9aa9b82d8f35e54b71faeb2f573e2f"
                            }
                        ],
                        "signature": "ExecutionFromModuleSuccess(address)"
                    },
                    "id": 20,
                    "logData": "0x",
                    "logDecoded": true,
                    "operation": "EVENT",
                    "revert": false,
                    "status": true,
                    "topics": [
                        "0x6895c13664aa4f67288b25d7a21d7aaa34916e355fb9b6fae0a139a9085becb8",
                        "0x0000000000000000000000008f9036732b9aa9b82d8f35e54b71faeb2f573e2f"
                    ]
                },
                "nodeType": 1
            },
            "21": {
                "invocation": {
                    "address": "0x8f9036732b9aa9b82d8f35e54b71faeb2f573e2f",
                    "callData": "0x00000000000000000000000000000000000000000000000000000000000000e000000000000000000000000000000000000000000000000000000000000001200000000000000000000000006335a2e4a2e304401fca4fc0deaff066b813d055000000000000000000000000000000000000000000000000000000000000000000000000000000000000000000000000000000000000000000000000000001c000000000000000000000000000000000000000000000000000000000000000000000000000000000000000000000000000000000000000000000000000000002000000000000000000000000000000000000000000000000000000000000000132000000000000000000000000000000000000000000000000000000000000000000000000000000000000000000000000000000000000000000000000000004920be15788d94a0bee09f9f7bcbdad2e47ef4a59f684d9bb06b657083e576c0aa76f7716abd0c04dcd5e627b349fea606f0133d93ce8381d450e976b6ef7b9cae99095062d9e0d131e25a230c8a84345b37b979bd6f7b0b9e1850a0847339b6d14f07b03beee17f568bdb8627c3a521b1a7c99cd7abcafec9a015d93c3fb92930000000000000000000000000000000000000000000000000000000000000024f2fde38b0000000000000000000000000f44f3489d17e42ab13a6beb76e57813081fc1e200000000000000000000000000000000000000000000000000000000",
                    "decodedMethod": {
                        "callParams": [
                            {
                                "name": "proposalId",
                                "type": "string",
                                "value": "2"
                            },
                            {
                                "name": "txHashes",
                                "type": "bytes32[]",
                                "value": [
                                    "0x920be15788d94a0bee09f9f7bcbdad2e47ef4a59f684d9bb06b657083e576c0a",
                                    "0xa76f7716abd0c04dcd5e627b349fea606f0133d93ce8381d450e976b6ef7b9ca",
                                    "0xe99095062d9e0d131e25a230c8a84345b37b979bd6f7b0b9e1850a0847339b6d",
                                    "0x14f07b03beee17f568bdb8627c3a521b1a7c99cd7abcafec9a015d93c3fb9293"
                                ]
                            },
                            {
                                "name": "to",
                                "type": "address",
                                "value": "0x6335a2e4a2e304401fca4fc0deaff066b813d055"
                            },
                            {
                                "name": "value",
                                "type": "uint256",
                                "value": "0"
                            },
                            {
                                "name": "data",
                                "type": "bytes",
                                "value": "0xf2fde38b0000000000000000000000000f44f3489d17e42ab13a6beb76e57813081fc1e2"
                            },
                            {
                                "name": "operation",
                                "type": "uint8",
                                "value": "0"
                            },
                            {
                                "name": "txIndex",
                                "type": "uint256",
                                "value": "2"
                            }
                        ],
                        "constructorArguments": "",
                        "name": "executeProposalWithIndex",
                        "returnParams": [],
                        "signature": "executeProposalWithIndex(string,bytes32[],address,uint256,bytes,uint8,uint256)"
                    },
                    "errorInfo": "",
                    "fromAddress": "0xe167cdaac8718b90c03cf2cb75dc976e24ee86d3",
                    "gasUsed": 122647,
                    "id": 21,
                    "methodDecoded": true,
                    "operation": "CALL",
                    "output": "",
                    "revert": false,
                    "revertMessage": "",
                    "selector": "0x14604b8c",
                    "status": true,
                    "value": "0"
                },
                "nodeType": 0
            },
            "22": {
                "invocation": {
                    "address": "0x325a2e0f3cca2ddbaebb4dfc38df8d19ca165b47",
                    "callData": "0x00b085265e9c3dd5070453c6a625285263dd087938b50b89d2b45390c9558b1e",
                    "decodedMethod": {
                        "callParams": [
                            {
                                "name": "question_id",
                                "type": "bytes32",
                                "value": "0x00b085265e9c3dd5070453c6a625285263dd087938b50b89d2b45390c9558b1e"
                            }
                        ],
                        "constructorArguments": "",
                        "name": "resultFor",
                        "returnParams": [
                            {
                                "name": "",
                                "type": "bytes32",
                                "value": "0x0000000000000000000000000000000000000000000000000000000000000001"
                            }
                        ],
                        "signature": "resultFor(bytes32)"
                    },
                    "errorInfo": "",
                    "fromAddress": "0x8f9036732b9aa9b82d8f35e54b71faeb2f573e2f",
                    "gasUsed": 1627,
                    "id": 22,
                    "methodDecoded": true,
                    "operation": "STATICCALL",
                    "output": "0x0000000000000000000000000000000000000000000000000000000000000001",
                    "revert": false,
                    "revertMessage": "",
                    "selector": "0xd09cc57e",
                    "status": true,
                    "value": "0"
                },
                "nodeType": 0
            },
            "23": {
                "invocation": {
                    "address": "0x325a2e0f3cca2ddbaebb4dfc38df8d19ca165b47",
                    "callData": "0x00b085265e9c3dd5070453c6a625285263dd087938b50b89d2b45390c9558b1e",
                    "decodedMethod": {
                        "callParams": [
                            {
                                "name": "question_id",
                                "type": "bytes32",
                                "value": "0x00b085265e9c3dd5070453c6a625285263dd087938b50b89d2b45390c9558b1e"
                            }
                        ],
                        "constructorArguments": "",
                        "name": "getFinalizeTS",
                        "returnParams": [
                            {
                                "name": "",
                                "type": "uint32",
                                "value": "1,665,248,544"
                            }
                        ],
                        "signature": "getFinalizeTS(bytes32)"
                    },
                    "errorInfo": "",
                    "fromAddress": "0x8f9036732b9aa9b82d8f35e54b71faeb2f573e2f",
                    "gasUsed": 1130,
                    "id": 23,
                    "methodDecoded": true,
                    "operation": "STATICCALL",
                    "output": "0x000000000000000000000000000000000000000000000000000000006341ad20",
                    "revert": false,
                    "revertMessage": "",
                    "selector": "0xacae8f4e",
                    "status": true,
                    "value": "0"
                },
                "nodeType": 0
            },
            "24": {
                "invocation": {
                    "address": "0x7eae370e6a76407c3955a2f0bbca853c38e6454e",
                    "callData": "0x0000000000000000000000006335a2e4a2e304401fca4fc0deaff066b813d0550000000000000000000000000000000000000000000000000000000000000000000000000000000000000000000000000000000000000000000000000000008000000000000000000000000000000000000000000000000000000000000000000000000000000000000000000000000000000000000000000000000000000024f2fde38b0000000000000000000000000f44f3489d17e42ab13a6beb76e57813081fc1e200000000000000000000000000000000000000000000000000000000",
                    "decodedMethod": {
                        "callParams": [
                            {
                                "name": "to",
                                "type": "address",
                                "value": "0x6335a2e4a2e304401fca4fc0deaff066b813d055"
                            },
                            {
                                "name": "value",
                                "type": "uint256",
                                "value": "0"
                            },
                            {
                                "name": "data",
                                "type": "bytes",
                                "value": "0xf2fde38b0000000000000000000000000f44f3489d17e42ab13a6beb76e57813081fc1e2"
                            },
                            {
                                "name": "operation",
                                "type": "uint8",
                                "value": "0"
                            }
                        ],
                        "constructorArguments": "",
                        "name": "execTransactionFromModule",
                        "returnParams": [
                            {
                                "name": "success",
                                "type": "bool",
                                "value": true
                            }
                        ],
                        "signature": "execTransactionFromModule(address,uint256,bytes,uint8)"
                    },
                    "errorInfo": "",
                    "fromAddress": "0x8f9036732b9aa9b82d8f35e54b71faeb2f573e2f",
                    "gasUsed": 13032,
                    "id": 24,
                    "methodDecoded": true,
                    "operation": "CALL",
                    "output": "0x0000000000000000000000000000000000000000000000000000000000000001",
                    "revert": false,
                    "revertMessage": "",
                    "selector": "0x468721a7",
                    "status": true,
                    "value": "0"
                },
                "nodeType": 0
            },
            "25": {
                "invocation": {
                    "address": "0x34cfac646f301356faa8b21e94227e3583fe3f5f",
                    "callData": "0x0000000000000000000000006335a2e4a2e304401fca4fc0deaff066b813d0550000000000000000000000000000000000000000000000000000000000000000000000000000000000000000000000000000000000000000000000000000008000000000000000000000000000000000000000000000000000000000000000000000000000000000000000000000000000000000000000000000000000000024f2fde38b0000000000000000000000000f44f3489d17e42ab13a6beb76e57813081fc1e200000000000000000000000000000000000000000000000000000000",
                    "decodedMethod": {
                        "callParams": [
                            {
                                "name": "to",
                                "type": "address",
                                "value": "0x6335a2e4a2e304401fca4fc0deaff066b813d055"
                            },
                            {
                                "name": "value",
                                "type": "uint256",
                                "value": "0"
                            },
                            {
                                "name": "data",
                                "type": "bytes",
                                "value": "0xf2fde38b0000000000000000000000000f44f3489d17e42ab13a6beb76e57813081fc1e2"
                            },
                            {
                                "name": "operation",
                                "type": "uint8",
                                "value": "0"
                            }
                        ],
                        "constructorArguments": "",
                        "name": "execTransactionFromModule",
                        "returnParams": [
                            {
                                "name": "success",
                                "type": "bool",
                                "value": true
                            }
                        ],
                        "signature": "execTransactionFromModule(address,uint256,bytes,uint8)"
                    },
                    "errorInfo": "",
                    "fromAddress": "0x7eae370e6a76407c3955a2f0bbca853c38e6454e",
                    "gasUsed": 12665,
                    "id": 25,
                    "methodDecoded": true,
                    "operation": "DELEGATECALL",
                    "output": "0x0000000000000000000000000000000000000000000000000000000000000001",
                    "revert": false,
                    "revertMessage": "",
                    "selector": "0x468721a7",
                    "status": true,
                    "value": "0"
                },
                "nodeType": 0
            },
            "26": {
                "invocation": {
                    "address": "0x6335a2e4a2e304401fca4fc0deaff066b813d055",
                    "callData": "0x0000000000000000000000000f44f3489d17e42ab13a6beb76e57813081fc1e2",
                    "decodedMethod": {
                        "callParams": [
                            {
                                "name": "newOwner",
                                "type": "address",
                                "value": "0x0f44f3489d17e42ab13a6beb76e57813081fc1e2"
                            }
                        ],
                        "constructorArguments": "",
                        "name": "transferOwnership",
                        "returnParams": [],
                        "signature": "transferOwnership(address)"
                    },
                    "errorInfo": "",
                    "fromAddress": "0x7eae370e6a76407c3955a2f0bbca853c38e6454e",
                    "gasUsed": 7520,
                    "id": 26,
                    "methodDecoded": true,
                    "operation": "CALL",
                    "output": "",
                    "revert": false,
                    "revertMessage": "",
                    "selector": "0xf2fde38b",
                    "status": true,
                    "value": "0"
                },
                "nodeType": 0
            },
            "27": {
                "event": {
                    "contract": "0x6335a2e4a2e304401fca4fc0deaff066b813d055",
                    "decodedLog": {
                        "name": "OwnershipTransferred",
                        "params": [
                            {
                                "name": "previousOwner",
                                "type": "address",
                                "value": "0x7eae370e6a76407c3955a2f0bbca853c38e6454e"
                            },
                            {
                                "name": "newOwner",
                                "type": "address",
                                "value": "0x0f44f3489d17e42ab13a6beb76e57813081fc1e2"
                            }
                        ],
                        "signature": "OwnershipTransferred(address,address)"
                    },
                    "id": 27,
                    "logData": "0x",
                    "logDecoded": true,
                    "operation": "EVENT",
                    "revert": false,
                    "status": true,
                    "topics": [
                        "0x8be0079c531659141344cd1fd0a4f28419497f9722a3daafe3b4186f6b6457e0",
                        "0x0000000000000000000000007eae370e6a76407c3955a2f0bbca853c38e6454e",
                        "0x0000000000000000000000000f44f3489d17e42ab13a6beb76e57813081fc1e2"
                    ]
                },
                "nodeType": 1
            },
            "28": {
                "event": {
                    "contract": "0x7eae370e6a76407c3955a2f0bbca853c38e6454e",
                    "decodedLog": {
                        "name": "ExecutionFromModuleSuccess",
                        "params": [
                            {
                                "name": "module",
                                "type": "address",
                                "value": "0x8f9036732b9aa9b82d8f35e54b71faeb2f573e2f"
                            }
                        ],
                        "signature": "ExecutionFromModuleSuccess(address)"
                    },
                    "id": 28,
                    "logData": "0x",
                    "logDecoded": true,
                    "operation": "EVENT",
                    "revert": false,
                    "status": true,
                    "topics": [
                        "0x6895c13664aa4f67288b25d7a21d7aaa34916e355fb9b6fae0a139a9085becb8",
                        "0x0000000000000000000000008f9036732b9aa9b82d8f35e54b71faeb2f573e2f"
                    ]
                },
                "nodeType": 1
            },
            "29": {
                "invocation": {
                    "address": "0x8f9036732b9aa9b82d8f35e54b71faeb2f573e2f",
                    "callData": "0x00000000000000000000000000000000000000000000000000000000000000e00000000000000000000000000000000000000000000000000000000000000120000000000000000000000000579270f151d142eb8bdc081043a983307aa15786000000000000000000000000000000000000000000000000000000000000000000000000000000000000000000000000000000000000000000000000000001c000000000000000000000000000000000000000000000000000000000000000000000000000000000000000000000000000000000000000000000000000000003000000000000000000000000000000000000000000000000000000000000000132000000000000000000000000000000000000000000000000000000000000000000000000000000000000000000000000000000000000000000000000000004920be15788d94a0bee09f9f7bcbdad2e47ef4a59f684d9bb06b657083e576c0aa76f7716abd0c04dcd5e627b349fea606f0133d93ce8381d450e976b6ef7b9cae99095062d9e0d131e25a230c8a84345b37b979bd6f7b0b9e1850a0847339b6d14f07b03beee17f568bdb8627c3a521b1a7c99cd7abcafec9a015d93c3fb92930000000000000000000000000000000000000000000000000000000000000024f2fde38b0000000000000000000000000f44f3489d17e42ab13a6beb76e57813081fc1e200000000000000000000000000000000000000000000000000000000",
                    "decodedMethod": {
                        "callParams": [
                            {
                                "name": "proposalId",
                                "type": "string",
                                "value": "2"
                            },
                            {
                                "name": "txHashes",
                                "type": "bytes32[]",
                                "value": [
                                    "0x920be15788d94a0bee09f9f7bcbdad2e47ef4a59f684d9bb06b657083e576c0a",
                                    "0xa76f7716abd0c04dcd5e627b349fea606f0133d93ce8381d450e976b6ef7b9ca",
                                    "0xe99095062d9e0d131e25a230c8a84345b37b979bd6f7b0b9e1850a0847339b6d",
                                    "0x14f07b03beee17f568bdb8627c3a521b1a7c99cd7abcafec9a015d93c3fb9293"
                                ]
                            },
                            {
                                "name": "to",
                                "type": "address",
                                "value": "0x579270f151d142eb8bdc081043a983307aa15786"
                            },
                            {
                                "name": "value",
                                "type": "uint256",
                                "value": "0"
                            },
                            {
                                "name": "data",
                                "type": "bytes",
                                "value": "0xf2fde38b0000000000000000000000000f44f3489d17e42ab13a6beb76e57813081fc1e2"
                            },
                            {
                                "name": "operation",
                                "type": "uint8",
                                "value": "0"
                            },
                            {
                                "name": "txIndex",
                                "type": "uint256",
                                "value": "3"
                            }
                        ],
                        "constructorArguments": "",
                        "name": "executeProposalWithIndex",
                        "returnParams": [],
                        "signature": "executeProposalWithIndex(string,bytes32[],address,uint256,bytes,uint8,uint256)"
                    },
                    "errorInfo": "",
                    "fromAddress": "0xe167cdaac8718b90c03cf2cb75dc976e24ee86d3",
                    "gasUsed": 122671,
                    "id": 29,
                    "methodDecoded": true,
                    "operation": "CALL",
                    "output": "",
                    "revert": false,
                    "revertMessage": "",
                    "selector": "0x14604b8c",
                    "status": true,
                    "value": "0"
                },
                "nodeType": 0
            },
            "3": {
                "invocation": {
                    "address": "0x8f9036732b9aa9b82d8f35e54b71faeb2f573e2f",
                    "callData": "0x0000000000000000000000006335a2e4a2e304401fca4fc0deaff066b813d055000000000000000000000000000000000000000000000000000000000000000000000000000000000000000000000000000000000000000000000000000000a0000000000000000000000000000000000000000000000000000000000000000000000000000000000000000000000000000000000000000000000000000000020000000000000000000000000000000000000000000000000000000000000024f2fde38b0000000000000000000000000f44f3489d17e42ab13a6beb76e57813081fc1e200000000000000000000000000000000000000000000000000000000",
                    "decodedMethod": {
                        "callParams": [
                            {
                                "name": "to",
                                "type": "address",
                                "value": "0x6335a2e4a2e304401fca4fc0deaff066b813d055"
                            },
                            {
                                "name": "value",
                                "type": "uint256",
                                "value": "0"
                            },
                            {
                                "name": "data",
                                "type": "bytes",
                                "value": "0xf2fde38b0000000000000000000000000f44f3489d17e42ab13a6beb76e57813081fc1e2"
                            },
                            {
                                "name": "operation",
                                "type": "uint8",
                                "value": "0"
                            },
                            {
                                "name": "nonce",
                                "type": "uint256",
                                "value": "2"
                            }
                        ],
                        "constructorArguments": "",
                        "name": "getTransactionHash",
                        "returnParams": [
                            {
                                "name": "",
                                "type": "bytes32",
                                "value": "0xe99095062d9e0d131e25a230c8a84345b37b979bd6f7b0b9e1850a0847339b6d"
                            }
                        ],
                        "signature": "getTransactionHash(address,uint256,bytes,uint8,uint256)"
                    },
                    "errorInfo": "",
                    "fromAddress": "0xe167cdaac8718b90c03cf2cb75dc976e24ee86d3",
                    "gasUsed": 4233,
                    "id": 3,
                    "methodDecoded": true,
                    "operation": "STATICCALL",
                    "output": "0xe99095062d9e0d131e25a230c8a84345b37b979bd6f7b0b9e1850a0847339b6d",
                    "revert": false,
                    "revertMessage": "",
                    "selector": "0x2b500041",
                    "status": true,
                    "value": "0"
                },
                "nodeType": 0
            },
            "30": {
                "invocation": {
                    "address": "0x325a2e0f3cca2ddbaebb4dfc38df8d19ca165b47",
                    "callData": "0x00b085265e9c3dd5070453c6a625285263dd087938b50b89d2b45390c9558b1e",
                    "decodedMethod": {
                        "callParams": [
                            {
                                "name": "question_id",
                                "type": "bytes32",
                                "value": "0x00b085265e9c3dd5070453c6a625285263dd087938b50b89d2b45390c9558b1e"
                            }
                        ],
                        "constructorArguments": "",
                        "name": "resultFor",
                        "returnParams": [
                            {
                                "name": "",
                                "type": "bytes32",
                                "value": "0x0000000000000000000000000000000000000000000000000000000000000001"
                            }
                        ],
                        "signature": "resultFor(bytes32)"
                    },
                    "errorInfo": "",
                    "fromAddress": "0x8f9036732b9aa9b82d8f35e54b71faeb2f573e2f",
                    "gasUsed": 1627,
                    "id": 30,
                    "methodDecoded": true,
                    "operation": "STATICCALL",
                    "output": "0x0000000000000000000000000000000000000000000000000000000000000001",
                    "revert": false,
                    "revertMessage": "",
                    "selector": "0xd09cc57e",
                    "status": true,
                    "value": "0"
                },
                "nodeType": 0
            },
            "31": {
                "invocation": {
                    "address": "0x325a2e0f3cca2ddbaebb4dfc38df8d19ca165b47",
                    "callData": "0x00b085265e9c3dd5070453c6a625285263dd087938b50b89d2b45390c9558b1e",
                    "decodedMethod": {
                        "callParams": [
                            {
                                "name": "question_id",
                                "type": "bytes32",
                                "value": "0x00b085265e9c3dd5070453c6a625285263dd087938b50b89d2b45390c9558b1e"
                            }
                        ],
                        "constructorArguments": "",
                        "name": "getFinalizeTS",
                        "returnParams": [
                            {
                                "name": "",
                                "type": "uint32",
                                "value": "1,665,248,544"
                            }
                        ],
                        "signature": "getFinalizeTS(bytes32)"
                    },
                    "errorInfo": "",
                    "fromAddress": "0x8f9036732b9aa9b82d8f35e54b71faeb2f573e2f",
                    "gasUsed": 1130,
                    "id": 31,
                    "methodDecoded": true,
                    "operation": "STATICCALL",
                    "output": "0x000000000000000000000000000000000000000000000000000000006341ad20",
                    "revert": false,
                    "revertMessage": "",
                    "selector": "0xacae8f4e",
                    "status": true,
                    "value": "0"
                },
                "nodeType": 0
            },
            "32": {
                "invocation": {
                    "address": "0x7eae370e6a76407c3955a2f0bbca853c38e6454e",
                    "callData": "0x000000000000000000000000579270f151d142eb8bdc081043a983307aa157860000000000000000000000000000000000000000000000000000000000000000000000000000000000000000000000000000000000000000000000000000008000000000000000000000000000000000000000000000000000000000000000000000000000000000000000000000000000000000000000000000000000000024f2fde38b0000000000000000000000000f44f3489d17e42ab13a6beb76e57813081fc1e200000000000000000000000000000000000000000000000000000000",
                    "decodedMethod": {
                        "callParams": [
                            {
                                "name": "to",
                                "type": "address",
                                "value": "0x579270f151d142eb8bdc081043a983307aa15786"
                            },
                            {
                                "name": "value",
                                "type": "uint256",
                                "value": "0"
                            },
                            {
                                "name": "data",
                                "type": "bytes",
                                "value": "0xf2fde38b0000000000000000000000000f44f3489d17e42ab13a6beb76e57813081fc1e2"
                            },
                            {
                                "name": "operation",
                                "type": "uint8",
                                "value": "0"
                            }
                        ],
                        "constructorArguments": "",
                        "name": "execTransactionFromModule",
                        "returnParams": [
                            {
                                "name": "success",
                                "type": "bool",
                                "value": true
                            }
                        ],
                        "signature": "execTransactionFromModule(address,uint256,bytes,uint8)"
                    },
                    "errorInfo": "",
                    "fromAddress": "0x8f9036732b9aa9b82d8f35e54b71faeb2f573e2f",
                    "gasUsed": 13056,
                    "id": 32,
                    "methodDecoded": true,
                    "operation": "CALL",
                    "output": "0x0000000000000000000000000000000000000000000000000000000000000001",
                    "revert": false,
                    "revertMessage": "",
                    "selector": "0x468721a7",
                    "status": true,
                    "value": "0"
                },
                "nodeType": 0
            },
            "33": {
                "invocation": {
                    "address": "0x34cfac646f301356faa8b21e94227e3583fe3f5f",
                    "callData": "0x000000000000000000000000579270f151d142eb8bdc081043a983307aa157860000000000000000000000000000000000000000000000000000000000000000000000000000000000000000000000000000000000000000000000000000008000000000000000000000000000000000000000000000000000000000000000000000000000000000000000000000000000000000000000000000000000000024f2fde38b0000000000000000000000000f44f3489d17e42ab13a6beb76e57813081fc1e200000000000000000000000000000000000000000000000000000000",
                    "decodedMethod": {
                        "callParams": [
                            {
                                "name": "to",
                                "type": "address",
                                "value": "0x579270f151d142eb8bdc081043a983307aa15786"
                            },
                            {
                                "name": "value",
                                "type": "uint256",
                                "value": "0"
                            },
                            {
                                "name": "data",
                                "type": "bytes",
                                "value": "0xf2fde38b0000000000000000000000000f44f3489d17e42ab13a6beb76e57813081fc1e2"
                            },
                            {
                                "name": "operation",
                                "type": "uint8",
                                "value": "0"
                            }
                        ],
                        "constructorArguments": "",
                        "name": "execTransactionFromModule",
                        "returnParams": [
                            {
                                "name": "success",
                                "type": "bool",
                                "value": true
                            }
                        ],
                        "signature": "execTransactionFromModule(address,uint256,bytes,uint8)"
                    },
                    "errorInfo": "",
                    "fromAddress": "0x7eae370e6a76407c3955a2f0bbca853c38e6454e",
                    "gasUsed": 12689,
                    "id": 33,
                    "methodDecoded": true,
                    "operation": "DELEGATECALL",
                    "output": "0x0000000000000000000000000000000000000000000000000000000000000001",
                    "revert": false,
                    "revertMessage": "",
                    "selector": "0x468721a7",
                    "status": true,
                    "value": "0"
                },
                "nodeType": 0
            },
            "34": {
                "invocation": {
                    "address": "0x579270f151d142eb8bdc081043a983307aa15786",
                    "callData": "0x0000000000000000000000000f44f3489d17e42ab13a6beb76e57813081fc1e2",
                    "decodedMethod": {
                        "callParams": [
                            {
                                "name": "newOwner",
                                "type": "address",
                                "value": "0x0f44f3489d17e42ab13a6beb76e57813081fc1e2"
                            }
                        ],
                        "constructorArguments": "",
                        "name": "transferOwnership",
                        "returnParams": [],
                        "signature": "transferOwnership(address)"
                    },
                    "errorInfo": "",
                    "fromAddress": "0x7eae370e6a76407c3955a2f0bbca853c38e6454e",
                    "gasUsed": 7544,
                    "id": 34,
                    "methodDecoded": true,
                    "operation": "CALL",
                    "output": "",
                    "revert": false,
                    "revertMessage": "",
                    "selector": "0xf2fde38b",
                    "status": true,
                    "value": "0"
                },
                "nodeType": 0
            },
            "35": {
                "event": {
                    "contract": "0x579270f151d142eb8bdc081043a983307aa15786",
                    "decodedLog": {
                        "name": "OwnershipTransferred",
                        "params": [
                            {
                                "name": "previousOwner",
                                "type": "address",
                                "value": "0x7eae370e6a76407c3955a2f0bbca853c38e6454e"
                            },
                            {
                                "name": "newOwner",
                                "type": "address",
                                "value": "0x0f44f3489d17e42ab13a6beb76e57813081fc1e2"
                            }
                        ],
                        "signature": "OwnershipTransferred(address,address)"
                    },
                    "id": 35,
                    "logData": "0x",
                    "logDecoded": true,
                    "operation": "EVENT",
                    "revert": false,
                    "status": true,
                    "topics": [
                        "0x8be0079c531659141344cd1fd0a4f28419497f9722a3daafe3b4186f6b6457e0",
                        "0x0000000000000000000000007eae370e6a76407c3955a2f0bbca853c38e6454e",
                        "0x0000000000000000000000000f44f3489d17e42ab13a6beb76e57813081fc1e2"
                    ]
                },
                "nodeType": 1
            },
            "36": {
                "event": {
                    "contract": "0x7eae370e6a76407c3955a2f0bbca853c38e6454e",
                    "decodedLog": {
                        "name": "ExecutionFromModuleSuccess",
                        "params": [
                            {
                                "name": "module",
                                "type": "address",
                                "value": "0x8f9036732b9aa9b82d8f35e54b71faeb2f573e2f"
                            }
                        ],
                        "signature": "ExecutionFromModuleSuccess(address)"
                    },
                    "id": 36,
                    "logData": "0x",
                    "logDecoded": true,
                    "operation": "EVENT",
                    "revert": false,
                    "status": true,
                    "topics": [
                        "0x6895c13664aa4f67288b25d7a21d7aaa34916e355fb9b6fae0a139a9085becb8",
                        "0x0000000000000000000000008f9036732b9aa9b82d8f35e54b71faeb2f573e2f"
                    ]
                },
                "nodeType": 1
            },
            "4": {
                "invocation": {
                    "address": "0x8f9036732b9aa9b82d8f35e54b71faeb2f573e2f",
                    "callData": "0x000000000000000000000000579270f151d142eb8bdc081043a983307aa15786000000000000000000000000000000000000000000000000000000000000000000000000000000000000000000000000000000000000000000000000000000a0000000000000000000000000000000000000000000000000000000000000000000000000000000000000000000000000000000000000000000000000000000030000000000000000000000000000000000000000000000000000000000000024f2fde38b0000000000000000000000000f44f3489d17e42ab13a6beb76e57813081fc1e200000000000000000000000000000000000000000000000000000000",
                    "decodedMethod": {
                        "callParams": [
                            {
                                "name": "to",
                                "type": "address",
                                "value": "0x579270f151d142eb8bdc081043a983307aa15786"
                            },
                            {
                                "name": "value",
                                "type": "uint256",
                                "value": "0"
                            },
                            {
                                "name": "data",
                                "type": "bytes",
                                "value": "0xf2fde38b0000000000000000000000000f44f3489d17e42ab13a6beb76e57813081fc1e2"
                            },
                            {
                                "name": "operation",
                                "type": "uint8",
                                "value": "0"
                            },
                            {
                                "name": "nonce",
                                "type": "uint256",
                                "value": "3"
                            }
                        ],
                        "constructorArguments": "",
                        "name": "getTransactionHash",
                        "returnParams": [
                            {
                                "name": "",
                                "type": "bytes32",
                                "value": "0x14f07b03beee17f568bdb8627c3a521b1a7c99cd7abcafec9a015d93c3fb9293"
                            }
                        ],
                        "signature": "getTransactionHash(address,uint256,bytes,uint8,uint256)"
                    },
                    "errorInfo": "",
                    "fromAddress": "0xe167cdaac8718b90c03cf2cb75dc976e24ee86d3",
                    "gasUsed": 4233,
                    "id": 4,
                    "methodDecoded": true,
                    "operation": "STATICCALL",
                    "output": "0x14f07b03beee17f568bdb8627c3a521b1a7c99cd7abcafec9a015d93c3fb9293",
                    "revert": false,
                    "revertMessage": "",
                    "selector": "0x2b500041",
                    "status": true,
                    "value": "0"
                },
                "nodeType": 0
            },
            "5": {
                "invocation": {
                    "address": "0x8f9036732b9aa9b82d8f35e54b71faeb2f573e2f",
                    "callData": "0x00000000000000000000000000000000000000000000000000000000000000e00000000000000000000000000000000000000000000000000000000000000120000000000000000000000000e94b97b6b43639e238c851a7e693f50033efd75c000000000000000000000000000000000000000000000000000000000000000000000000000000000000000000000000000000000000000000000000000001c000000000000000000000000000000000000000000000000000000000000000000000000000000000000000000000000000000000000000000000000000000000000000000000000000000000000000000000000000000000000000000000000132000000000000000000000000000000000000000000000000000000000000000000000000000000000000000000000000000000000000000000000000000004920be15788d94a0bee09f9f7bcbdad2e47ef4a59f684d9bb06b657083e576c0aa76f7716abd0c04dcd5e627b349fea606f0133d93ce8381d450e976b6ef7b9cae99095062d9e0d131e25a230c8a84345b37b979bd6f7b0b9e1850a0847339b6d14f07b03beee17f568bdb8627c3a521b1a7c99cd7abcafec9a015d93c3fb9293000000000000000000000000000000000000000000000000000000000000004440c10f190000000000000000000000000f44f3489d17e42ab13a6beb76e57813081fc1e200000000000000000000000000000000000004ee2d6d415b85acef810000000000000000000000000000000000000000000000000000000000000000",
                    "decodedMethod": {
                        "callParams": [
                            {
                                "name": "proposalId",
                                "type": "string",
                                "value": "2"
                            },
                            {
                                "name": "txHashes",
                                "type": "bytes32[]",
                                "value": [
                                    "0x920be15788d94a0bee09f9f7bcbdad2e47ef4a59f684d9bb06b657083e576c0a",
                                    "0xa76f7716abd0c04dcd5e627b349fea606f0133d93ce8381d450e976b6ef7b9ca",
                                    "0xe99095062d9e0d131e25a230c8a84345b37b979bd6f7b0b9e1850a0847339b6d",
                                    "0x14f07b03beee17f568bdb8627c3a521b1a7c99cd7abcafec9a015d93c3fb9293"
                                ]
                            },
                            {
                                "name": "to",
                                "type": "address",
                                "value": "0xe94b97b6b43639e238c851a7e693f50033efd75c"
                            },
                            {
                                "name": "value",
                                "type": "uint256",
                                "value": "0"
                            },
                            {
                                "name": "data",
                                "type": "bytes",
                                "value": "0x40c10f190000000000000000000000000f44f3489d17e42ab13a6beb76e57813081fc1e200000000000000000000000000000000000004ee2d6d415b85acef8100000000"
                            },
                            {
                                "name": "operation",
                                "type": "uint8",
                                "value": "0"
                            },
                            {
                                "name": "txIndex",
                                "type": "uint256",
                                "value": "0"
                            }
                        ],
                        "constructorArguments": "",
                        "name": "executeProposalWithIndex",
                        "returnParams": [],
                        "signature": "executeProposalWithIndex(string,bytes32[],address,uint256,bytes,uint8,uint256)"
                    },
                    "errorInfo": "",
                    "fromAddress": "0xe167cdaac8718b90c03cf2cb75dc976e24ee86d3",
                    "gasUsed": 171018,
                    "id": 5,
                    "methodDecoded": true,
                    "operation": "CALL",
                    "output": "",
                    "revert": false,
                    "revertMessage": "",
                    "selector": "0x14604b8c",
                    "status": true,
                    "value": "0"
                },
                "nodeType": 0
            },
            "6": {
                "invocation": {
                    "address": "0x325a2e0f3cca2ddbaebb4dfc38df8d19ca165b47",
                    "callData": "0x00b085265e9c3dd5070453c6a625285263dd087938b50b89d2b45390c9558b1e",
                    "decodedMethod": {
                        "callParams": [
                            {
                                "name": "question_id",
                                "type": "bytes32",
                                "value": "0x00b085265e9c3dd5070453c6a625285263dd087938b50b89d2b45390c9558b1e"
                            }
                        ],
                        "constructorArguments": "",
                        "name": "resultFor",
                        "returnParams": [
                            {
                                "name": "",
                                "type": "bytes32",
                                "value": "0x0000000000000000000000000000000000000000000000000000000000000001"
                            }
                        ],
                        "signature": "resultFor(bytes32)"
                    },
                    "errorInfo": "",
                    "fromAddress": "0x8f9036732b9aa9b82d8f35e54b71faeb2f573e2f",
                    "gasUsed": 7627,
                    "id": 6,
                    "methodDecoded": true,
                    "operation": "STATICCALL",
                    "output": "0x0000000000000000000000000000000000000000000000000000000000000001",
                    "revert": false,
                    "revertMessage": "",
                    "selector": "0xd09cc57e",
                    "status": true,
                    "value": "0"
                },
                "nodeType": 0
            },
            "7": {
                "invocation": {
                    "address": "0x325a2e0f3cca2ddbaebb4dfc38df8d19ca165b47",
                    "callData": "0x00b085265e9c3dd5070453c6a625285263dd087938b50b89d2b45390c9558b1e",
                    "decodedMethod": {
                        "callParams": [
                            {
                                "name": "question_id",
                                "type": "bytes32",
                                "value": "0x00b085265e9c3dd5070453c6a625285263dd087938b50b89d2b45390c9558b1e"
                            }
                        ],
                        "constructorArguments": "",
                        "name": "getFinalizeTS",
                        "returnParams": [
                            {
                                "name": "",
                                "type": "uint32",
                                "value": "1,665,248,544"
                            }
                        ],
                        "signature": "getFinalizeTS(bytes32)"
                    },
                    "errorInfo": "",
                    "fromAddress": "0x8f9036732b9aa9b82d8f35e54b71faeb2f573e2f",
                    "gasUsed": 1130,
                    "id": 7,
                    "methodDecoded": true,
                    "operation": "STATICCALL",
                    "output": "0x000000000000000000000000000000000000000000000000000000006341ad20",
                    "revert": false,
                    "revertMessage": "",
                    "selector": "0xacae8f4e",
                    "status": true,
                    "value": "0"
                },
                "nodeType": 0
            },
            "8": {
                "invocation": {
                    "address": "0x7eae370e6a76407c3955a2f0bbca853c38e6454e",
                    "callData": "0x000000000000000000000000e94b97b6b43639e238c851a7e693f50033efd75c000000000000000000000000000000000000000000000000000000000000000000000000000000000000000000000000000000000000000000000000000000800000000000000000000000000000000000000000000000000000000000000000000000000000000000000000000000000000000000000000000000000000004440c10f190000000000000000000000000f44f3489d17e42ab13a6beb76e57813081fc1e200000000000000000000000000000000000004ee2d6d415b85acef810000000000000000000000000000000000000000000000000000000000000000",
                    "decodedMethod": {
                        "callParams": [
                            {
                                "name": "to",
                                "type": "address",
                                "value": "0xe94b97b6b43639e238c851a7e693f50033efd75c"
                            },
                            {
                                "name": "value",
                                "type": "uint256",
                                "value": "0"
                            },
                            {
                                "name": "data",
                                "type": "bytes",
                                "value": "0x40c10f190000000000000000000000000f44f3489d17e42ab13a6beb76e57813081fc1e200000000000000000000000000000000000004ee2d6d415b85acef8100000000"
                            },
                            {
                                "name": "operation",
                                "type": "uint8",
                                "value": "0"
                            }
                        ],
                        "constructorArguments": "",
                        "name": "execTransactionFromModule",
                        "returnParams": [
                            {
                                "name": "success",
                                "type": "bool",
                                "value": true
                            }
                        ],
                        "signature": "execTransactionFromModule(address,uint256,bytes,uint8)"
                    },
                    "errorInfo": "",
                    "fromAddress": "0x8f9036732b9aa9b82d8f35e54b71faeb2f573e2f",
                    "gasUsed": 44846,
                    "id": 8,
                    "methodDecoded": true,
                    "operation": "CALL",
                    "output": "0x0000000000000000000000000000000000000000000000000000000000000001",
                    "revert": false,
                    "revertMessage": "",
                    "selector": "0x468721a7",
                    "status": true,
                    "value": "0"
                },
                "nodeType": 0
            },
            "9": {
                "invocation": {
                    "address": "0x34cfac646f301356faa8b21e94227e3583fe3f5f",
                    "callData": "0x000000000000000000000000e94b97b6b43639e238c851a7e693f50033efd75c000000000000000000000000000000000000000000000000000000000000000000000000000000000000000000000000000000000000000000000000000000800000000000000000000000000000000000000000000000000000000000000000000000000000000000000000000000000000000000000000000000000000004440c10f190000000000000000000000000f44f3489d17e42ab13a6beb76e57813081fc1e200000000000000000000000000000000000004ee2d6d415b85acef810000000000000000000000000000000000000000000000000000000000000000",
                    "decodedMethod": {
                        "callParams": [
                            {
                                "name": "to",
                                "type": "address",
                                "value": "0xe94b97b6b43639e238c851a7e693f50033efd75c"
                            },
                            {
                                "name": "value",
                                "type": "uint256",
                                "value": "0"
                            },
                            {
                                "name": "data",
                                "type": "bytes",
                                "value": "0x40c10f190000000000000000000000000f44f3489d17e42ab13a6beb76e57813081fc1e200000000000000000000000000000000000004ee2d6d415b85acef8100000000"
                            },
                            {
                                "name": "operation",
                                "type": "uint8",
                                "value": "0"
                            }
                        ],
                        "constructorArguments": "",
                        "name": "execTransactionFromModule",
                        "returnParams": [
                            {
                                "name": "success",
                                "type": "bool",
                                "value": true
                            }
                        ],
                        "signature": "execTransactionFromModule(address,uint256,bytes,uint8)"
                    },
                    "errorInfo": "",
                    "fromAddress": "0x7eae370e6a76407c3955a2f0bbca853c38e6454e",
                    "gasUsed": 39973,
                    "id": 9,
                    "methodDecoded": true,
                    "operation": "DELEGATECALL",
                    "output": "0x0000000000000000000000000000000000000000000000000000000000000001",
                    "revert": false,
                    "revertMessage": "",
                    "selector": "0x468721a7",
                    "status": true,
                    "value": "0"
                },
                "nodeType": 0
            }
        },
        "gasFlame": [
            {
                "children": [
                    {
                        "children": [
                            {
                                "children": [],
                                "depth": 0,
                                "name": "Initial Gas",
                                "value": 21064
                            },
                            {
                                "children": [
                                    {
                                        "children": [],
                                        "depth": 1,
                                        "name": "getTransactionHash",
                                        "value": 4245
                                    },
                                    {
                                        "children": [],
                                        "depth": 1,
                                        "name": "getTransactionHash",
                                        "value": 4233
                                    },
                                    {
                                        "children": [],
                                        "depth": 1,
                                        "name": "getTransactionHash",
                                        "value": 4233
                                    },
                                    {
                                        "children": [],
                                        "depth": 1,
                                        "name": "getTransactionHash",
                                        "value": 4233
                                    },
                                    {
                                        "children": [
                                            {
                                                "children": [],
                                                "depth": 2,
                                                "name": "resultFor",
                                                "value": 7627
                                            },
                                            {
                                                "children": [],
                                                "depth": 2,
                                                "name": "getFinalizeTS",
                                                "value": 1130
                                            },
                                            {
                                                "children": [
                                                    {
                                                        "children": [
                                                            {
                                                                "children": [],
                                                                "depth": 4,
                                                                "name": "mint",
                                                                "value": 32822
                                                            }
                                                        ],
                                                        "depth": 3,
                                                        "name": "execTransactionFromModule",
                                                        "value": 39973
                                                    }
                                                ],
                                                "depth": 2,
                                                "name": "execTransactionFromModule",
                                                "value": 44846
                                            }
                                        ],
                                        "depth": 1,
                                        "name": "executeProposalWithIndex",
                                        "value": 171018
                                    },
                                    {
                                        "children": [
                                            {
                                                "children": [],
                                                "depth": 2,
                                                "name": "resultFor",
                                                "value": 1627
                                            },
                                            {
                                                "children": [],
                                                "depth": 2,
                                                "name": "getFinalizeTS",
                                                "value": 1130
                                            },
                                            {
                                                "children": [
                                                    {
                                                        "children": [
                                                            {
                                                                "children": [],
                                                                "depth": 4,
                                                                "name": "transferOwnership",
                                                                "value": 5741
                                                            }
                                                        ],
                                                        "depth": 3,
                                                        "name": "execTransactionFromModule",
                                                        "value": 8386
                                                    }
                                                ],
                                                "depth": 2,
                                                "name": "execTransactionFromModule",
                                                "value": 8753
                                            }
                                        ],
                                        "depth": 1,
                                        "name": "executeProposalWithIndex",
                                        "value": 118368
                                    },
                                    {
                                        "children": [
                                            {
                                                "children": [],
                                                "depth": 2,
                                                "name": "resultFor",
                                                "value": 1627
                                            },
                                            {
                                                "children": [],
                                                "depth": 2,
                                                "name": "getFinalizeTS",
                                                "value": 1130
                                            },
                                            {
                                                "children": [
                                                    {
                                                        "children": [
                                                            {
                                                                "children": [],
                                                                "depth": 4,
                                                                "name": "transferOwnership",
                                                                "value": 7520
                                                            }
                                                        ],
                                                        "depth": 3,
                                                        "name": "execTransactionFromModule",
                                                        "value": 12665
                                                    }
                                                ],
                                                "depth": 2,
                                                "name": "execTransactionFromModule",
                                                "value": 13032
                                            }
                                        ],
                                        "depth": 1,
                                        "name": "executeProposalWithIndex",
                                        "value": 122647
                                    },
                                    {
                                        "children": [
                                            {
                                                "children": [],
                                                "depth": 2,
                                                "name": "resultFor",
                                                "value": 1627
                                            },
                                            {
                                                "children": [],
                                                "depth": 2,
                                                "name": "getFinalizeTS",
                                                "value": 1130
                                            },
                                            {
                                                "children": [
                                                    {
                                                        "children": [
                                                            {
                                                                "children": [],
                                                                "depth": 4,
                                                                "name": "transferOwnership",
                                                                "value": 7544
                                                            }
                                                        ],
                                                        "depth": 3,
                                                        "name": "execTransactionFromModule",
                                                        "value": 12689
                                                    }
                                                ],
                                                "depth": 2,
                                                "name": "execTransactionFromModule",
                                                "value": 13056
                                            }
                                        ],
                                        "depth": 1,
                                        "name": "executeProposalWithIndex",
                                        "value": 122671
                                    }
                                ],
                                "depth": 0,
                                "name": "Executed Gas",
                                "value": 568002
                            }
                        ],
                        "depth": -1,
                        "name": "Actual Gas Used",
                        "value": 589066
                    },
                    {
                        "children": [],
                        "depth": -1,
                        "name": "Refunded Gas",
                        "value": 0
                    }
                ],
                "depth": -2,
                "name": "Total Gas",
                "value": 589066
            }
        ],
        "isConfirmed": true,
        "mainTrace": [
            {
                "children": [
                    {
                        "children": [
                            {
                                "children": [],
                                "depth": 1,
                                "id": 1,
                                "order": 1
                            },
                            {
                                "children": [],
                                "depth": 1,
                                "id": 2,
                                "order": 2
                            },
                            {
                                "children": [],
                                "depth": 1,
                                "id": 3,
                                "order": 3
                            },
                            {
                                "children": [],
                                "depth": 1,
                                "id": 4,
                                "order": 4
                            },
                            {
                                "children": [
                                    {
                                        "children": [],
                                        "depth": 2,
                                        "id": 6,
                                        "order": 6
                                    },
                                    {
                                        "children": [],
                                        "depth": 2,
                                        "id": 7,
                                        "order": 7
                                    },
                                    {
                                        "children": [
                                            {
                                                "children": [
                                                    {
                                                        "children": [
                                                            {
                                                                "children": [],
                                                                "depth": 5,
                                                                "id": 11,
                                                                "order": 11
                                                            }
                                                        ],
                                                        "depth": 4,
                                                        "id": 10,
                                                        "order": 10
                                                    },
                                                    {
                                                        "children": [],
                                                        "depth": 4,
                                                        "id": 12,
                                                        "order": 12
                                                    }
                                                ],
                                                "depth": 3,
                                                "id": 9,
                                                "order": 9
                                            }
                                        ],
                                        "depth": 2,
                                        "id": 8,
                                        "order": 8
                                    }
                                ],
                                "depth": 1,
                                "id": 5,
                                "order": 5
                            },
                            {
                                "children": [
                                    {
                                        "children": [],
                                        "depth": 2,
                                        "id": 14,
                                        "order": 14
                                    },
                                    {
                                        "children": [],
                                        "depth": 2,
                                        "id": 15,
                                        "order": 15
                                    },
                                    {
                                        "children": [
                                            {
                                                "children": [
                                                    {
                                                        "children": [
                                                            {
                                                                "children": [],
                                                                "depth": 5,
                                                                "id": 19,
                                                                "order": 19
                                                            }
                                                        ],
                                                        "depth": 4,
                                                        "id": 18,
                                                        "order": 18
                                                    },
                                                    {
                                                        "children": [],
                                                        "depth": 4,
                                                        "id": 20,
                                                        "order": 20
                                                    }
                                                ],
                                                "depth": 3,
                                                "id": 17,
                                                "order": 17
                                            }
                                        ],
                                        "depth": 2,
                                        "id": 16,
                                        "order": 16
                                    }
                                ],
                                "depth": 1,
                                "id": 13,
                                "order": 13
                            },
                            {
                                "children": [
                                    {
                                        "children": [],
                                        "depth": 2,
                                        "id": 22,
                                        "order": 22
                                    },
                                    {
                                        "children": [],
                                        "depth": 2,
                                        "id": 23,
                                        "order": 23
                                    },
                                    {
                                        "children": [
                                            {
                                                "children": [
                                                    {
                                                        "children": [
                                                            {
                                                                "children": [],
                                                                "depth": 5,
                                                                "id": 27,
                                                                "order": 27
                                                            }
                                                        ],
                                                        "depth": 4,
                                                        "id": 26,
                                                        "order": 26
                                                    },
                                                    {
                                                        "children": [],
                                                        "depth": 4,
                                                        "id": 28,
                                                        "order": 28
                                                    }
                                                ],
                                                "depth": 3,
                                                "id": 25,
                                                "order": 25
                                            }
                                        ],
                                        "depth": 2,
                                        "id": 24,
                                        "order": 24
                                    }
                                ],
                                "depth": 1,
                                "id": 21,
                                "order": 21
                            },
                            {
                                "children": [
                                    {
                                        "children": [],
                                        "depth": 2,
                                        "id": 30,
                                        "order": 30
                                    },
                                    {
                                        "children": [],
                                        "depth": 2,
                                        "id": 31,
                                        "order": 31
                                    },
                                    {
                                        "children": [
                                            {
                                                "children": [
                                                    {
                                                        "children": [
                                                            {
                                                                "children": [],
                                                                "depth": 5,
                                                                "id": 35,
                                                                "order": 35
                                                            }
                                                        ],
                                                        "depth": 4,
                                                        "id": 34,
                                                        "order": 34
                                                    },
                                                    {
                                                        "children": [],
                                                        "depth": 4,
                                                        "id": 36,
                                                        "order": 36
                                                    }
                                                ],
                                                "depth": 3,
                                                "id": 33,
                                                "order": 33
                                            }
                                        ],
                                        "depth": 2,
                                        "id": 32,
                                        "order": 32
                                    }
                                ],
                                "depth": 1,
                                "id": 29,
                                "order": 29
                            }
                        ],
                        "depth": 0,
                        "id": 0,
                        "order": 0
                    }
                ],
                "depth": -1,
                "id": -1,
                "order": -1
            }
        ],
        "mainTraceNodeCount": 37,
        "parentIdMap": {
            "0": -1,
            "1": 0,
            "10": 9,
            "11": 10,
            "12": 9,
            "13": 0,
            "14": 13,
            "15": 13,
            "16": 13,
            "17": 16,
            "18": 17,
            "19": 18,
            "2": 0,
            "20": 17,
            "21": 0,
            "22": 21,
            "23": 21,
            "24": 21,
            "25": 24,
            "26": 25,
            "27": 26,
            "28": 25,
            "29": 0,
            "3": 0,
            "30": 29,
            "31": 29,
            "32": 29,
            "33": 32,
            "34": 33,
            "35": 34,
            "36": 33,
            "4": 0,
            "5": 0,
            "6": 5,
            "7": 5,
            "8": 5,
            "9": 8
        },
        "tidyTrace": [
            {
                "children": [
                    {
                        "children": [
                            {
                                "children": [
                                    {
                                        "children": [
                                            {
                                                "children": [
                                                    {
                                                        "children": [
                                                            {
                                                                "children": [],
                                                                "depth": 5,
                                                                "id": 11,
                                                                "order": 11
                                                            }
                                                        ],
                                                        "depth": 4,
                                                        "id": 10,
                                                        "order": 10
                                                    },
                                                    {
                                                        "children": [],
                                                        "depth": 4,
                                                        "id": 12,
                                                        "order": 12
                                                    }
                                                ],
                                                "depth": 3,
                                                "id": 9,
                                                "order": 9
                                            }
                                        ],
                                        "depth": 2,
                                        "id": 8,
                                        "order": 8
                                    }
                                ],
                                "depth": 1,
                                "id": 5,
                                "order": 5
                            },
                            {
                                "children": [
                                    {
                                        "children": [
                                            {
                                                "children": [
                                                    {
                                                        "children": [
                                                            {
                                                                "children": [],
                                                                "depth": 5,
                                                                "id": 19,
                                                                "order": 19
                                                            }
                                                        ],
                                                        "depth": 4,
                                                        "id": 18,
                                                        "order": 18
                                                    },
                                                    {
                                                        "children": [],
                                                        "depth": 4,
                                                        "id": 20,
                                                        "order": 20
                                                    }
                                                ],
                                                "depth": 3,
                                                "id": 17,
                                                "order": 17
                                            }
                                        ],
                                        "depth": 2,
                                        "id": 16,
                                        "order": 16
                                    }
                                ],
                                "depth": 1,
                                "id": 13,
                                "order": 13
                            },
                            {
                                "children": [
                                    {
                                        "children": [
                                            {
                                                "children": [
                                                    {
                                                        "children": [
                                                            {
                                                                "children": [],
                                                                "depth": 5,
                                                                "id": 27,
                                                                "order": 27
                                                            }
                                                        ],
                                                        "depth": 4,
                                                        "id": 26,
                                                        "order": 26
                                                    },
                                                    {
                                                        "children": [],
                                                        "depth": 4,
                                                        "id": 28,
                                                        "order": 28
                                                    }
                                                ],
                                                "depth": 3,
                                                "id": 25,
                                                "order": 25
                                            }
                                        ],
                                        "depth": 2,
                                        "id": 24,
                                        "order": 24
                                    }
                                ],
                                "depth": 1,
                                "id": 21,
                                "order": 21
                            },
                            {
                                "children": [
                                    {
                                        "children": [
                                            {
                                                "children": [
                                                    {
                                                        "children": [
                                                            {
                                                                "children": [],
                                                                "depth": 5,
                                                                "id": 35,
                                                                "order": 35
                                                            }
                                                        ],
                                                        "depth": 4,
                                                        "id": 34,
                                                        "order": 34
                                                    },
                                                    {
                                                        "children": [],
                                                        "depth": 4,
                                                        "id": 36,
                                                        "order": 36
                                                    }
                                                ],
                                                "depth": 3,
                                                "id": 33,
                                                "order": 33
                                            }
                                        ],
                                        "depth": 2,
                                        "id": 32,
                                        "order": 32
                                    }
                                ],
                                "depth": 1,
                                "id": 29,
                                "order": 29
                            }
                        ],
                        "depth": 0,
                        "id": 0,
                        "order": 0
                    }
                ],
                "depth": -1,
                "id": -1,
                "order": -1
            }
        ],
        "tidyTraceNodeCount": 25
    },
    "state_change": {
        "stateChanges": [
            {
                "address": "0x579270f151d142eb8bdc081043a983307aa15786",
                "erc": "",
                "slots": [
                    {
                        "current": "0x0000000000000000000000000f44f3489d17e42ab13a6beb76e57813081fc1e2",
                        "key": "0x0000000000000000000000000000000000000000000000000000000000000000",
                        "prev": "0x0000000000000000000000007eae370e6a76407c3955a2f0bbca853c38e6454e"
                    }
                ],
                "storageVariables": [
                    {
                        "name": "_owner",
                        "type": "address",
                        "value": {
                            "current": "0x0f44f3489d17e42ab13a6beb76e57813081fc1e2",
                            "prev": "0x7eae370e6a76407c3955a2f0bbca853c38e6454e",
                            "typeTag": 1
                        }
                    }
                ]
            },
            {
                "address": "0x6335a2e4a2e304401fca4fc0deaff066b813d055",
                "erc": "ERC-20",
                "slots": [
                    {
                        "current": "0x00000000000000000000000f44f3489d17e42ab13a6beb76e57813081fc1e212",
                        "key": "0x0000000000000000000000000000000000000000000000000000000000000005",
                        "prev": "0x00000000000000000000007eae370e6a76407c3955a2f0bbca853c38e6454e12"
                    }
                ],
                "storageVariables": [
                    {
                        "name": "_decimals",
                        "type": "uint8",
                        "value": {
                            "current": "18",
                            "prev": "18",
                            "typeTag": 1
                        }
                    },
                    {
                        "name": "_owner",
                        "type": "address",
                        "value": {
                            "current": "0x0f44f3489d17e42ab13a6beb76e57813081fc1e2",
                            "prev": "0x7eae370e6a76407c3955a2f0bbca853c38e6454e",
                            "typeTag": 1
                        }
                    }
                ]
            },
            {
                "address": "0x8f9036732b9aa9b82d8f35e54b71faeb2f573e2f",
                "erc": "",
                "slots": [
                    {
                        "current": "0x0000000000000000000000000000000000000000000000000000000000000001",
                        "key": "0xdb78c0a67e273f2de31614b081a3409ddf2740c39fd9b99cac99a1485cff56f3",
                        "prev": "0x0000000000000000000000000000000000000000000000000000000000000000"
                    },
                    {
                        "current": "0x0000000000000000000000000000000000000000000000000000000000000001",
                        "key": "0xb0aee62d0d4e3782a4bfcb3a81ba6edbcdf65445bf9b106fe512ac5a10459d22",
                        "prev": "0x0000000000000000000000000000000000000000000000000000000000000000"
                    },
                    {
                        "current": "0x0000000000000000000000000000000000000000000000000000000000000001",
                        "key": "0x7534af1d53a28b73b4b36729e71979a3facd3657236417730b8f259190cfdddb",
                        "prev": "0x0000000000000000000000000000000000000000000000000000000000000000"
                    },
                    {
                        "current": "0x0000000000000000000000000000000000000000000000000000000000000001",
                        "key": "0xd232ea2bd930ca0c463e01f257655730650c5e1e186a8a7ffa44901a5bacc082",
                        "prev": "0x0000000000000000000000000000000000000000000000000000000000000000"
                    }
                ],
                "storageVariables": [
                    {
                        "name": "executedProposalTransactions",
                        "type": "mapping(bytes32 => mapping(bytes32 => bool))",
                        "value": {
                            "pairs": [
                                {
                                    "key": "0x92534724248061d1f29181141cb70fd1e0eac6128f17d0b77e9631718e2aa613",
                                    "value": {
                                        "pairs": [
                                            {
                                                "key": "0x14f07b03beee17f568bdb8627c3a521b1a7c99cd7abcafec9a015d93c3fb9293",
                                                "value": {
                                                    "current": "true",
                                                    "prev": "false",
                                                    "typeTag": 1
                                                }
                                            },
                                            {
                                                "key": "0x920be15788d94a0bee09f9f7bcbdad2e47ef4a59f684d9bb06b657083e576c0a",
                                                "value": {
                                                    "current": "true",
                                                    "prev": "false",
                                                    "typeTag": 1
                                                }
                                            },
                                            {
                                                "key": "0xa76f7716abd0c04dcd5e627b349fea606f0133d93ce8381d450e976b6ef7b9ca",
                                                "value": {
                                                    "current": "true",
                                                    "prev": "false",
                                                    "typeTag": 1
                                                }
                                            },
                                            {
                                                "key": "0xe99095062d9e0d131e25a230c8a84345b37b979bd6f7b0b9e1850a0847339b6d",
                                                "value": {
                                                    "current": "true",
                                                    "prev": "false",
                                                    "typeTag": 1
                                                }
                                            }
                                        ],
                                        "typeTag": 4
                                    }
                                }
                            ],
                            "typeTag": 4
                        }
                    }
                ]
            },
            {
                "address": "0xe94b97b6b43639e238c851a7e693f50033efd75c",
                "erc": "ERC-20",
                "slots": [
                    {
                        "current": "0x00000000000000000000000000000000000004ef70de08dccfe7141e84000000",
                        "key": "0x0000000000000000000000000000000000000000000000000000000000000002",
                        "prev": "0x00000000000000000000000000000000000000014370c7814a3a249d84000000"
                    },
                    {
                        "current": "0x00000000000000000000000000000000000004ee2d6d415b85acef8100000000",
                        "key": "0xf3cc37b87feb098a34c6bb9c30a49d1c449b0a1814acbbb8df9aaf4ce697baad",
                        "prev": "0x0000000000000000000000000000000000000000000000000000000000000000"
                    },
                    {
                        "current": "0x00000000000000000000010f44f3489d17e42ab13a6beb76e57813081fc1e212",
                        "key": "0x0000000000000000000000000000000000000000000000000000000000000005",
                        "prev": "0x00000000000000000000017eae370e6a76407c3955a2f0bbca853c38e6454e12"
                    }
                ],
                "storageVariables": [
                    {
                        "name": "_totalSupply",
                        "type": "uint256",
                        "value": {
                            "current": "100100100000000000000000000000000",
                            "prev": "100100000000000000000000000000",
                            "typeTag": 1
                        }
                    },
                    {
                        "name": "_balances",
                        "type": "mapping(address => uint256)",
                        "value": {
                            "pairs": [
                                {
                                    "key": "0x0f44f3489d17e42ab13a6beb76e57813081fc1e2",
                                    "value": {
                                        "current": "100000000000000000000000000000000",
                                        "prev": "0",
                                        "typeTag": 1
                                    }
                                }
                            ],
                            "typeTag": 4
                        }
                    },
                    {
                        "name": "_decimals",
                        "type": "uint8",
                        "value": {
                            "current": "18",
                            "prev": "18",
                            "typeTag": 1
                        }
                    },
                    {
                        "name": "_owner",
                        "type": "address",
                        "value": {
                            "current": "0x0f44f3489d17e42ab13a6beb76e57813081fc1e2",
                            "prev": "0x7eae370e6a76407c3955a2f0bbca853c38e6454e",
                            "typeTag": 1
                        }
                    },
                    {
                        "name": "canMint",
                        "type": "bool",
                        "value": {
                            "current": "true",
                            "prev": "true",
                            "typeTag": 1
                        }
                    },
                    {
                        "name": "isCappedFuncLocked",
                        "type": "bool",
                        "value": {
                            "current": "false",
                            "prev": "false",
                            "typeTag": 1
                        }
                    }
                ]
            }
        ]
    }
}