{
    "balance_change": {
        "balanceChanges": [
            {
                "account": "0x92cfcb70b2591ceb1e3c6d90e21e8154e7d29832",
                "assets": [
                    {
                        "address": "0xeeeeeeeeeeeeeeeeeeeeeeeeeeeeeeeeeeeeeeee",
                        "amount": "0.496876949085051375",
                        "iconUrl": "https://assets.blocksec.com/image/1663669189317-3.png",
                        "isERC1155": false,
                        "isERC721": false,
                        "sign": true,
                        "value": "812.35406162257203616"
                    },
                    {
                        "address": "0x7afe30cb3e53dba6801aa0ea647a0ecea7cbe18d",
                        "amount": "1",
                        "iconUrl": "",
                        "isERC1155": false,
                        "isERC721": true,
                        "sign": true,
                        "tokenID": "4689",
                        "value": ""
                    }
                ]
            },
            {
                "account": "0x9d9820f10772ffcef842770b6581c07a97fed9e4",
                "assets": [
                    {
                        "address": "0xd3c41c85be295607e8ea5c58487ec5894300ee67",
                        "amount": "584",
                        "iconUrl": "",
                        "isERC1155": true,
                        "isERC721": false,
                        "sign": true,
                        "tokenID": "0",
                        "value": ""
                    }
                ]
            },
            {
                "account": "0x0000000000000000000000000000000000000000",
                "assets": [
                    {
                        "address": "0xd3c41c85be295607e8ea5c58487ec5894300ee67",
                        "amount": "584",
                        "iconUrl": "",
                        "isERC1155": true,
                        "isERC721": false,
                        "sign": false,
                        "tokenID": "0",
                        "value": ""
                    }
                ]
            },
            {
                "account": "0xc02aaa39b223fe8d0a0e5c4f27ead9083c756cc2",
                "assets": [
                    {
                        "address": "0xeeeeeeeeeeeeeeeeeeeeeeeeeeeeeeeeeeeeeeee",
                        "amount": "0.496876949085051375",
                        "iconUrl": "https://assets.blocksec.com/image/1663669189317-3.png",
                        "isERC1155": false,
                        "isERC721": false,
                        "sign": false,
                        "value": "812.35406162257203616"
                    },
                    {
                        "address": "0xc02aaa39b223fe8d0a0e5c4f27ead9083c756cc2",
                        "amount": "0.496876949085051375",
                        "iconUrl": "https://assets.blocksec.com/icon/f1cb2d02c471d545bbc7722daf3277fd852d98e63d118771af7047bd8256c516.png",
                        "isERC1155": false,
                        "isERC721": false,
                        "sign": true,
                        "value": "812.5229997852659955"
                    }
                ]
            },
            {
                "account": "0xcdcc535503cba9286489b338b36156b4b75008f6",
                "assets": [
                    {
                        "address": "0x7afe30cb3e53dba6801aa0ea647a0ecea7cbe18d",
                        "amount": "1",
                        "iconUrl": "",
                        "isERC1155": false,
                        "isERC721": true,
                        "sign": false,
                        "tokenID": "4689",
                        "value": ""
                    }
                ]
            },
            {
                "account": "0xd3c41c85be295607e8ea5c58487ec5894300ee67",
                "assets": [
                    {
                        "address": "0xa499648fd0e80fd911972bbeb069e4c20e68bf22",
                        "amount": "3,527.995810700000234095",
                        "iconUrl": "https://assets.blocksec.com/icon/5b07eb02d0f48a8eb5c645a189961eac86e47e6e63b75b7455c964c7913495e6.png",
                        "isERC1155": false,
                        "isERC721": false,
                        "sign": false,
                        "value": "893.2885393451999317"
                    }
                ]
            },
            {
                "account": "0xec5100ad159f660986e47afa0cda1081101b471d",
                "assets": [
                    {
                        "address": "0xa499648fd0e80fd911972bbeb069e4c20e68bf22",
                        "amount": "3,527.995810700000234095",
                        "iconUrl": "https://assets.blocksec.com/icon/5b07eb02d0f48a8eb5c645a189961eac86e47e6e63b75b7455c964c7913495e6.png",
                        "isERC1155": false,
                        "isERC721": false,
                        "sign": true,
                        "value": "893.2885393451999317"
                    },
                    {
                        "address": "0xc02aaa39b223fe8d0a0e5c4f27ead9083c756cc2",
                        "amount": "0.496876949085051375",
                        "iconUrl": "https://assets.blocksec.com/icon/f1cb2d02c471d545bbc7722daf3277fd852d98e63d118771af7047bd8256c516.png",
                        "isERC1155": false,
                        "isERC721": false,
                        "sign": false,
                        "value": "812.5229997852659955"
                    }
                ]
            }
        ]
    },
    "profile": {
        "basic_info": {
            "baseFee": "8.891341303",
            "blockNumber": 18149402,
            "callData": "0x73139de60000000000000000000000000000000000000000000000bf40c6f9b56fc80a6f",
            "debugEnable": true,
            "errorInfo": "",
            "eventCount": 20,
            "feeRecipient": "0xdafea492d9c6733ae3d56b7ed1adb60692c98bc5",
            "formatValue": "0",
            "gasLimit": 519528,
            "gasPrice": "9.891341303",
            "gasUsed": 414674,
            "intTxnCount": 30,
            "internalRevert": false,
            "internalRevertMessage": "",
            "isContractCreation": false,
            "isFlashloan": false,
            "maxFee": "18.009958146",
            "nonce": 2,
            "overwritedBlockNumber": -1,
            "priorityFee": "1",
            "receiver": "0x9d9820f10772ffcef842770b6581c07a97fed9e4",
            "revertMessage": "",
            "sender": "0x92cfcb70b2591ceb1e3c6d90e21e8154e7d29832",
            "simulationEnable": true,
            "sourceTxnHash": "0xc42fe1ce2516e125a386d198703b2422aa0190b25ef6a7b0a1d3c6f5d199ffad",
            "status": true,
            "timestamp": "2023-09-16T14:50:35Z",
            "transactionFee": "0.004101682063480222",
            "txnHash": "0xc42fe1ce2516e125a386d198703b2422aa0190b25ef6a7b0a1d3c6f5d199ffad",
            "txnIndex": 84,
            "type": 2,
            "value": "0"
        },
        "fund_flow": [
            {
                "amount": "10584",
                "from": "0x0000000000000000000000000000000000000000",
                "id": 1,
                "isERC1155": true,
                "isERC721": false,
                "isReverted": false,
                "order": 1,
                "to": "0x9d9820f10772ffcef842770b6581c07a97fed9e4",
                "token": "0xd3c41c85be295607e8ea5c58487ec5894300ee67",
                "tokenID": "0"
            },
            {
                "amount": "3,527.995810700000234095",
                "from": "0xd3c41c85be295607e8ea5c58487ec5894300ee67",
                "id": 2,
                "isERC1155": false,
                "isERC721": false,
                "isReverted": false,
                "order": 2,
                "to": "0x9d9820f10772ffcef842770b6581c07a97fed9e4",
                "token": "0xa499648fd0e80fd911972bbeb069e4c20e68bf22"
            },
            {
                "amount": "3,527.995810700000234095",
                "from": "0x9d9820f10772ffcef842770b6581c07a97fed9e4",
                "id": 3,
                "isERC1155": false,
                "isERC721": false,
                "isReverted": false,
                "order": 3,
                "to": "0xec5100ad159f660986e47afa0cda1081101b471d",
                "token": "0xa499648fd0e80fd911972bbeb069e4c20e68bf22"
            },
            {
                "amount": "0.496876949085051375",
                "from": "0xec5100ad159f660986e47afa0cda1081101b471d",
                "id": 4,
                "isERC1155": false,
                "isERC721": false,
                "isReverted": false,
                "order": 4,
                "to": "0x9d9820f10772ffcef842770b6581c07a97fed9e4",
                "token": "0xc02aaa39b223fe8d0a0e5c4f27ead9083c756cc2"
            },
            {
                "amount": "0.496876949085051375",
                "from": "0xc02aaa39b223fe8d0a0e5c4f27ead9083c756cc2",
                "id": 5,
                "isERC1155": false,
                "isERC721": false,
                "isReverted": false,
                "order": 5,
                "to": "0x9d9820f10772ffcef842770b6581c07a97fed9e4",
                "token": "0xeeeeeeeeeeeeeeeeeeeeeeeeeeeeeeeeeeeeeeee"
            },
            {
                "amount": "0.496876949085051375",
                "from": "0x9d9820f10772ffcef842770b6581c07a97fed9e4",
                "id": 6,
                "isERC1155": false,
                "isERC721": false,
                "isReverted": false,
                "order": 6,
                "to": "0xc02aaa39b223fe8d0a0e5c4f27ead9083c756cc2",
                "token": "0xc02aaa39b223fe8d0a0e5c4f27ead9083c756cc2"
            },
            {
                "amount": "0.496876949085051375",
                "from": "0x9d9820f10772ffcef842770b6581c07a97fed9e4",
                "id": 7,
                "isERC1155": false,
                "isERC721": false,
                "isReverted": false,
                "order": 7,
                "to": "0x92cfcb70b2591ceb1e3c6d90e21e8154e7d29832",
                "token": "0xeeeeeeeeeeeeeeeeeeeeeeeeeeeeeeeeeeeeeeee"
            },
            {
                "amount": "10000",
                "from": "0x9d9820f10772ffcef842770b6581c07a97fed9e4",
                "id": 8,
                "isERC1155": true,
                "isERC721": false,
                "isReverted": false,
                "order": 8,
                "to": "0x0000000000000000000000000000000000000000",
                "token": "0xd3c41c85be295607e8ea5c58487ec5894300ee67",
                "tokenID": "0"
            },
            {
                "amount": "1",
                "from": "0xcdcc535503cba9286489b338b36156b4b75008f6",
                "id": 9,
                "isERC1155": false,
                "isERC721": true,
                "isReverted": false,
                "order": 9,
                "to": "0x9d9820f10772ffcef842770b6581c07a97fed9e4",
                "token": "0x7afe30cb3e53dba6801aa0ea647a0ecea7cbe18d",
                "tokenID": "4689"
            },
            {
                "amount": "1",
                "from": "0x9d9820f10772ffcef842770b6581c07a97fed9e4",
                "id": 10,
                "isERC1155": false,
                "isERC721": true,
                "isReverted": false,
                "order": 10,
                "to": "0x92cfcb70b2591ceb1e3c6d90e21e8154e7d29832",
                "token": "0x7afe30cb3e53dba6801aa0ea647a0ecea7cbe18d",
                "tokenID": "4689"
            }
        ],
        "token_infos": [
            {
                "address": "0xa499648fd0e80fd911972bbeb069e4c20e68bf22",
                "decimals": 18
            },
            {
                "address": "0xc02aaa39b223fe8d0a0e5c4f27ead9083c756cc2",
                "decimals": 18
            },
            {
                "address": "0xeeeeeeeeeeeeeeeeeeeeeeeeeeeeeeeeeeeeeeee",
                "decimals": 18
            }
        ]
    },
    "address_label": {
        "labels": [
            {
                "address": "0xec5100ad159f660986e47afa0cda1081101b471d",
                "label": "UnicSwap LP Token (UPT)"
            },
            {
                "address": "0xa499648fd0e80fd911972bbeb069e4c20e68bf22",
                "label": "Jenny: uJENNY Token"
            },
            {
                "address": "0x0000000000000000000000000000000000000000",
                "label": "Null Address"
            },
            {
                "address": "0x7afe30cb3e53dba6801aa0ea647a0ecea7cbe18d",
                "label": "Realm (for Adventurers): LootRealm Token"
            },
            {
                "address": "0x0000000000000000000000000000000000000004",
                "label": "Precompiled"
            },
            {
                "address": "0xd3c41c85be295607e8ea5c58487ec5894300ee67",
                "label": "PointFarm"
            },
            {
                "address": "0xcdcc535503cba9286489b338b36156b4b75008f6",
                "label": "PointShop"
            },
            {
                "address": "0x0000000000000000000000000000000000000001",
                "label": "Precompiled"
            },
            {
                "address": "0x0000000000000000000000000000000000000002",
                "label": "Precompiled"
            },
            {
                "address": "0x0000000000000000000000000000000000000003",
                "label": "Precompiled"
            },
            {
                "address": "0xeeeeeeeeeeeeeeeeeeeeeeeeeeeeeeeeeeeeeeee",
                "label": "Ether"
            },
            {
                "address": "0xc02aaa39b223fe8d0a0e5c4f27ead9083c756cc2",
                "label": "Wrapped Ether (WETH)"
            }
        ]
    },
    "trace": {
        "accountLabels": null,
        "dataMap": {
            "-1": {
                "invocation": {
                    "address": "0x92cfcb70b2591ceb1e3c6d90e21e8154e7d29832",
                    "callData": "",
                    "decodedMethod": null,
                    "errorInfo": "",
                    "fromAddress": "",
                    "gasUsed": 0,
                    "id": -1,
                    "methodDecoded": false,
                    "operation": "",
                    "output": "",
                    "revert": false,
                    "revertMessage": "",
                    "selector": "",
                    "status": false,
                    "value": ""
                },
                "nodeType": 0
            },
            "0": {
                "invocation": {
                    "address": "0x9d9820f10772ffcef842770b6581c07a97fed9e4",
                    "callData": "0x0000000000000000000000000000000000000000000000bf40c6f9b56fc80a6f",
                    "decodedMethod": {
                        "callParams": [
                            {
                                "name": "_nftId",
                                "type": "uint256",
                                "value": "3,527,995,810,700,000,234,095"
                            }
                        ],
                        "constructorArguments": "",
                        "name": "redeemNft",
                        "returnParams": [],
                        "signature": "redeemNft(uint256)"
                    },
                    "errorInfo": "",
                    "fromAddress": "0x92cfcb70b2591ceb1e3c6d90e21e8154e7d29832",
                    "gasUsed": 414674,
                    "id": 0,
                    "methodDecoded": true,
                    "operation": "CALL",
                    "output": "",
                    "revert": false,
                    "revertMessage": "",
                    "selector": "0x73139de6",
                    "status": true,
                    "value": "0"
                },
                "nodeType": 0
            },
            "1": {
                "invocation": {
                    "address": "0xd3c41c85be295607e8ea5c58487ec5894300ee67",
                    "callData": "0x00000000000000000000000000000000000000000000000000000000000000000000000000000000000000000000000000000000000000000000000000000000",
                    "decodedMethod": {
                        "callParams": [
                            {
                                "name": "_pid",
                                "type": "uint256",
                                "value": "0"
                            },
                            {
                                "name": "_amount",
                                "type": "uint256",
                                "value": "0"
                            }
                        ],
                        "constructorArguments": "",
                        "name": "deposit",
                        "returnParams": [],
                        "signature": "deposit(uint256,uint256)"
                    },
                    "errorInfo": "",
                    "fromAddress": "0x9d9820f10772ffcef842770b6581c07a97fed9e4",
                    "gasUsed": 92608,
                    "id": 1,
                    "methodDecoded": true,
                    "operation": "CALL",
                    "output": "",
                    "revert": false,
                    "revertMessage": "",
                    "selector": "0xe2bbb158",
                    "status": true,
                    "value": "0"
                },
                "nodeType": 0
            },
            "10": {
                "invocation": {
                    "address": "0xd3c41c85be295607e8ea5c58487ec5894300ee67",
                    "callData": "0x0000000000000000000000009d9820f10772ffcef842770b6581c07a97fed9e40000000000000000000000000000000000000000000000000000000000000000",
                    "decodedMethod": {
                        "callParams": [
                            {
                                "name": "account",
                                "type": "address",
                                "value": "0x9d9820f10772ffcef842770b6581c07a97fed9e4"
                            },
                            {
                                "name": "id",
                                "type": "uint256",
                                "value": "0"
                            }
                        ],
                        "constructorArguments": "",
                        "name": "balanceOf",
                        "returnParams": [
                            {
                                "name": "",
                                "type": "uint256",
                                "value": "7,056"
                            }
                        ],
                        "signature": "balanceOf(address,uint256)"
                    },
                    "errorInfo": "",
                    "fromAddress": "0x9d9820f10772ffcef842770b6581c07a97fed9e4",
                    "gasUsed": 688,
                    "id": 10,
                    "methodDecoded": true,
                    "operation": "STATICCALL",
                    "output": "0x0000000000000000000000000000000000000000000000000000000000001b90",
                    "revert": false,
                    "revertMessage": "",
                    "selector": "0x00fdd58e",
                    "status": true,
                    "value": "0"
                },
                "nodeType": 0
            },
            "11": {
                "invocation": {
                    "address": "0xd3c41c85be295607e8ea5c58487ec5894300ee67",
                    "callData": "0x00000000000000000000000000000000000000000000000000000000000000000000000000000000000000000000000000000000000000000000000000000000",
                    "decodedMethod": {
                        "callParams": [
                            {
                                "name": "_pid",
                                "type": "uint256",
                                "value": "0"
                            },
                            {
                                "name": "_amount",
                                "type": "uint256",
                                "value": "0"
                            }
                        ],
                        "constructorArguments": "",
                        "name": "deposit",
                        "returnParams": [],
                        "signature": "deposit(uint256,uint256)"
                    },
                    "errorInfo": "",
                    "fromAddress": "0x9d9820f10772ffcef842770b6581c07a97fed9e4",
                    "gasUsed": 15596,
                    "id": 11,
                    "methodDecoded": true,
                    "operation": "CALL",
                    "output": "",
                    "revert": false,
                    "revertMessage": "",
                    "selector": "0xe2bbb158",
                    "status": true,
                    "value": "0"
                },
                "nodeType": 0
            },
            "12": {
                "event": {
                    "contract": "0xd3c41c85be295607e8ea5c58487ec5894300ee67",
                    "decodedLog": {
                        "name": "TransferSingle",
                        "params": [
                            {
                                "name": "operator",
                                "type": "address",
                                "value": "0x9d9820f10772ffcef842770b6581c07a97fed9e4"
                            },
                            {
                                "name": "from",
                                "type": "address",
                                "value": "0x0000000000000000000000000000000000000000"
                            },
                            {
                                "name": "to",
                                "type": "address",
                                "value": "0x9d9820f10772ffcef842770b6581c07a97fed9e4"
                            },
                            {
                                "name": "id",
                                "type": "uint256",
                                "value": "0"
                            },
                            {
                                "name": "value",
                                "type": "uint256",
                                "value": "3,528"
                            }
                        ],
                        "signature": "TransferSingle(address,address,address,uint256,uint256)"
                    },
                    "id": 12,
                    "logData": "0x00000000000000000000000000000000000000000000000000000000000000000000000000000000000000000000000000000000000000000000000000000dc8",
                    "logDecoded": true,
                    "operation": "EVENT",
                    "revert": false,
                    "status": true,
                    "topics": [
                        "0xc3d58168c5ae7397731d063d5bbf3d657854427343f4c083240f7aacaa2d0f62",
                        "0x0000000000000000000000009d9820f10772ffcef842770b6581c07a97fed9e4",
                        "0x0000000000000000000000000000000000000000000000000000000000000000",
                        "0x0000000000000000000000009d9820f10772ffcef842770b6581c07a97fed9e4"
                    ]
                },
                "nodeType": 1
            },
            "13": {
                "invocation": {
                    "address": "0x9d9820f10772ffcef842770b6581c07a97fed9e4",
                    "callData": "0x0000000000000000000000009d9820f10772ffcef842770b6581c07a97fed9e4000000000000000000000000000000000000000000000000000000000000000000000000000000000000000000000000000000000000000000000000000000000000000000000000000000000000000000000000000000000000000000000dc800000000000000000000000000000000000000000000000000000000000000a00000000000000000000000000000000000000000000000000000000000000000",
                    "decodedMethod": {
                        "callParams": [
                            {
                                "name": "",
                                "type": "address",
                                "value": "0x9d9820f10772ffcef842770b6581c07a97fed9e4"
                            },
                            {
                                "name": "",
                                "type": "address",
                                "value": "0x0000000000000000000000000000000000000000"
                            },
                            {
                                "name": "",
                                "type": "uint256",
                                "value": "0"
                            },
                            {
                                "name": "",
                                "type": "uint256",
                                "value": "3,528"
                            },
                            {
                                "name": "",
                                "type": "bytes",
                                "value": "0x"
                            }
                        ],
                        "constructorArguments": "",
                        "name": "onERC1155Received",
                        "returnParams": [
                            {
                                "name": "",
                                "type": "bytes4",
                                "value": "0xf23a6e61"
                            }
                        ],
                        "signature": "onERC1155Received(address,address,uint256,uint256,bytes)"
                    },
                    "errorInfo": "",
                    "fromAddress": "0xd3c41c85be295607e8ea5c58487ec5894300ee67",
                    "gasUsed": 3478,
                    "id": 13,
                    "methodDecoded": true,
                    "operation": "CALL",
                    "output": "0xf23a6e6100000000000000000000000000000000000000000000000000000000",
                    "revert": false,
                    "revertMessage": "",
                    "selector": "0xf23a6e61",
                    "status": true,
                    "value": "0"
                },
                "nodeType": 0
            },
            "14": {
                "invocation": {
                    "address": "0xd3c41c85be295607e8ea5c58487ec5894300ee67",
                    "callData": "0x0000000000000000000000009d9820f10772ffcef842770b6581c07a97fed9e40000000000000000000000000000000000000000000000000000000000000000",
                    "decodedMethod": {
                        "callParams": [
                            {
                                "name": "account",
                                "type": "address",
                                "value": "0x9d9820f10772ffcef842770b6581c07a97fed9e4"
                            },
                            {
                                "name": "id",
                                "type": "uint256",
                                "value": "0"
                            }
                        ],
                        "constructorArguments": "",
                        "name": "balanceOf",
                        "returnParams": [
                            {
                                "name": "",
                                "type": "uint256",
                                "value": "10,584"
                            }
                        ],
                        "signature": "balanceOf(address,uint256)"
                    },
                    "errorInfo": "",
                    "fromAddress": "0x9d9820f10772ffcef842770b6581c07a97fed9e4",
                    "gasUsed": 688,
                    "id": 14,
                    "methodDecoded": true,
                    "operation": "STATICCALL",
                    "output": "0x0000000000000000000000000000000000000000000000000000000000002958",
                    "revert": false,
                    "revertMessage": "",
                    "selector": "0x00fdd58e",
                    "status": true,
                    "value": "0"
                },
                "nodeType": 0
            },
            "15": {
                "event": {
                    "contract": "0xd3c41c85be295607e8ea5c58487ec5894300ee67",
                    "decodedLog": {
                        "name": "Deposit",
                        "params": [
                            {
                                "name": "user",
                                "type": "address",
                                "value": "0x9d9820f10772ffcef842770b6581c07a97fed9e4"
                            },
                            {
                                "name": "pid",
                                "type": "uint256",
                                "value": "0"
                            },
                            {
                                "name": "amount",
                                "type": "uint256",
                                "value": "0"
                            }
                        ],
                        "signature": "Deposit(address,uint256,uint256)"
                    },
                    "id": 15,
                    "logData": "0x0000000000000000000000000000000000000000000000000000000000000000",
                    "logDecoded": true,
                    "operation": "EVENT",
                    "revert": false,
                    "status": true,
                    "topics": [
                        "0x90890809c654f11d6e72a28fa60149770a0d11ec6c92319d6ceb2bb0a4ea1a15",
                        "0x0000000000000000000000009d9820f10772ffcef842770b6581c07a97fed9e4",
                        "0x0000000000000000000000000000000000000000000000000000000000000000"
                    ]
                },
                "nodeType": 1
            },
            "16": {
                "event": {
                    "contract": "0xd3c41c85be295607e8ea5c58487ec5894300ee67",
                    "decodedLog": {
                        "name": "Deposit",
                        "params": [
                            {
                                "name": "user",
                                "type": "address",
                                "value": "0x9d9820f10772ffcef842770b6581c07a97fed9e4"
                            },
                            {
                                "name": "pid",
                                "type": "uint256",
                                "value": "0"
                            },
                            {
                                "name": "amount",
                                "type": "uint256",
                                "value": "0"
                            }
                        ],
                        "signature": "Deposit(address,uint256,uint256)"
                    },
                    "id": 16,
                    "logData": "0x0000000000000000000000000000000000000000000000000000000000000000",
                    "logDecoded": true,
                    "operation": "EVENT",
                    "revert": false,
                    "status": true,
                    "topics": [
                        "0x90890809c654f11d6e72a28fa60149770a0d11ec6c92319d6ceb2bb0a4ea1a15",
                        "0x0000000000000000000000009d9820f10772ffcef842770b6581c07a97fed9e4",
                        "0x0000000000000000000000000000000000000000000000000000000000000000"
                    ]
                },
                "nodeType": 1
            },
            "17": {
                "event": {
                    "contract": "0xd3c41c85be295607e8ea5c58487ec5894300ee67",
                    "decodedLog": {
                        "name": "Deposit",
                        "params": [
                            {
                                "name": "user",
                                "type": "address",
                                "value": "0x9d9820f10772ffcef842770b6581c07a97fed9e4"
                            },
                            {
                                "name": "pid",
                                "type": "uint256",
                                "value": "0"
                            },
                            {
                                "name": "amount",
                                "type": "uint256",
                                "value": "0"
                            }
                        ],
                        "signature": "Deposit(address,uint256,uint256)"
                    },
                    "id": 17,
                    "logData": "0x0000000000000000000000000000000000000000000000000000000000000000",
                    "logDecoded": true,
                    "operation": "EVENT",
                    "revert": false,
                    "status": true,
                    "topics": [
                        "0x90890809c654f11d6e72a28fa60149770a0d11ec6c92319d6ceb2bb0a4ea1a15",
                        "0x0000000000000000000000009d9820f10772ffcef842770b6581c07a97fed9e4",
                        "0x0000000000000000000000000000000000000000000000000000000000000000"
                    ]
                },
                "nodeType": 1
            },
            "18": {
                "invocation": {
                    "address": "0xd3c41c85be295607e8ea5c58487ec5894300ee67",
                    "callData": "0x00000000000000000000000000000000000000000000000000000000000000000000000000000000000000000000000000000000000000bf40c6f9b56fc80a6f",
                    "decodedMethod": {
                        "callParams": [
                            {
                                "name": "_pid",
                                "type": "uint256",
                                "value": "0"
                            },
                            {
                                "name": "_amount",
                                "type": "uint256",
                                "value": "3,527,995,810,700,000,234,095"
                            }
                        ],
                        "constructorArguments": "",
                        "name": "withdraw",
                        "returnParams": [],
                        "signature": "withdraw(uint256,uint256)"
                    },
                    "errorInfo": "",
                    "fromAddress": "0x9d9820f10772ffcef842770b6581c07a97fed9e4",
                    "gasUsed": 37398,
                    "id": 18,
                    "methodDecoded": true,
                    "operation": "CALL",
                    "output": "",
                    "revert": false,
                    "revertMessage": "",
                    "selector": "0x441a3e70",
                    "status": true,
                    "value": "0"
                },
                "nodeType": 0
            },
            "19": {
                "invocation": {
                    "address": "0xa499648fd0e80fd911972bbeb069e4c20e68bf22",
                    "callData": "0x0000000000000000000000009d9820f10772ffcef842770b6581c07a97fed9e40000000000000000000000000000000000000000000000bf40c6f9b56fc80a6f",
                    "decodedMethod": {
                        "callParams": [
                            {
                                "name": "recipient",
                                "type": "address",
                                "value": "0x9d9820f10772ffcef842770b6581c07a97fed9e4"
                            },
                            {
                                "decimalAvailable": true,
                                "name": "amount",
                                "type": "uint256",
                                "value": "3,527,995,810,700,000,234,095"
                            }
                        ],
                        "constructorArguments": "",
                        "name": "transfer",
                        "returnParams": [
                            {
                                "name": "",
                                "type": "bool",
                                "value": true
                            }
                        ],
                        "signature": "transfer(address,uint256)"
                    },
                    "errorInfo": "",
                    "fromAddress": "0xd3c41c85be295607e8ea5c58487ec5894300ee67",
                    "gasUsed": 28252,
                    "id": 19,
                    "methodDecoded": true,
                    "operation": "CALL",
                    "output": "0x0000000000000000000000000000000000000000000000000000000000000001",
                    "revert": false,
                    "revertMessage": "",
                    "selector": "0xa9059cbb",
                    "status": true,
                    "value": "0"
                },
                "nodeType": 0
            },
            "2": {
                "invocation": {
                    "address": "0xa499648fd0e80fd911972bbeb069e4c20e68bf22",
                    "callData": "0x000000000000000000000000d3c41c85be295607e8ea5c58487ec5894300ee67",
                    "decodedMethod": {
                        "callParams": [
                            {
                                "name": "account",
                                "type": "address",
                                "value": "0xd3c41c85be295607e8ea5c58487ec5894300ee67"
                            }
                        ],
                        "constructorArguments": "",
                        "name": "balanceOf",
                        "returnParams": [
                            {
                                "decimalAvailable": true,
                                "name": "",
                                "type": "uint256",
                                "value": "13,527,995,810,700,000,234,095"
                            }
                        ],
                        "signature": "balanceOf(address)"
                    },
                    "errorInfo": "",
                    "fromAddress": "0xd3c41c85be295607e8ea5c58487ec5894300ee67",
                    "gasUsed": 2542,
                    "id": 2,
                    "methodDecoded": true,
                    "operation": "STATICCALL",
                    "output": "0x0000000000000000000000000000000000000000000002dd5aa7c37022080a6f",
                    "revert": false,
                    "revertMessage": "",
                    "selector": "0x70a08231",
                    "status": true,
                    "value": "0"
                },
                "nodeType": 0
            },
            "20": {
                "event": {
                    "contract": "0xa499648fd0e80fd911972bbeb069e4c20e68bf22",
                    "decodedLog": {
                        "name": "Transfer",
                        "params": [
                            {
                                "name": "from",
                                "type": "address",
                                "value": "0xd3c41c85be295607e8ea5c58487ec5894300ee67"
                            },
                            {
                                "name": "to",
                                "type": "address",
                                "value": "0x9d9820f10772ffcef842770b6581c07a97fed9e4"
                            },
                            {
                                "decimalAvailable": true,
                                "name": "value",
                                "type": "uint256",
                                "value": "3,527,995,810,700,000,234,095"
                            }
                        ],
                        "signature": "Transfer(address,address,uint256)"
                    },
                    "id": 20,
                    "logData": "0x0000000000000000000000000000000000000000000000bf40c6f9b56fc80a6f",
                    "logDecoded": true,
                    "operation": "EVENT",
                    "revert": false,
                    "status": true,
                    "topics": [
                        "0xddf252ad1be2c89b69c2b068fc378daa952ba7f163c4a11628f55a4df523b3ef",
                        "0x000000000000000000000000d3c41c85be295607e8ea5c58487ec5894300ee67",
                        "0x0000000000000000000000009d9820f10772ffcef842770b6581c07a97fed9e4"
                    ]
                },
                "nodeType": 1
            },
            "21": {
                "event": {
                    "contract": "0xd3c41c85be295607e8ea5c58487ec5894300ee67",
                    "decodedLog": {
                        "name": "Withdraw",
                        "params": [
                            {
                                "name": "user",
                                "type": "address",
                                "value": "0x9d9820f10772ffcef842770b6581c07a97fed9e4"
                            },
                            {
                                "name": "pid",
                                "type": "uint256",
                                "value": "0"
                            },
                            {
                                "name": "amount",
                                "type": "uint256",
                                "value": "3,527,995,810,700,000,234,095"
                            }
                        ],
                        "signature": "Withdraw(address,uint256,uint256)"
                    },
                    "id": 21,
                    "logData": "0x0000000000000000000000000000000000000000000000bf40c6f9b56fc80a6f",
                    "logDecoded": true,
                    "operation": "EVENT",
                    "revert": false,
                    "status": true,
                    "topics": [
                        "0xf279e6a1f5e320cca91135676d9cb6e44ca8a08c0b88342bcdb1144f6511b568",
                        "0x0000000000000000000000009d9820f10772ffcef842770b6581c07a97fed9e4",
                        "0x0000000000000000000000000000000000000000000000000000000000000000"
                    ]
                },
                "nodeType": 1
            },
            "22": {
                "invocation": {
                    "address": "0xec5100ad159f660986e47afa0cda1081101b471d",
                    "callData": "0x",
                    "decodedMethod": {
                        "callParams": [],
                        "constructorArguments": "",
                        "name": "getReserves",
                        "returnParams": [
                            {
                                "name": "_reserve0",
                                "type": "uint112",
                                "value": "1,693,072,816,702,054,625,306,948"
                            },
                            {
                                "name": "_reserve1",
                                "type": "uint112",
                                "value": "239,663,883,262,317,205,470"
                            },
                            {
                                "name": "_blockTimestampLast",
                                "type": "uint32",
                                "value": "1,694,780,843"
                            }
                        ],
                        "signature": "getReserves()"
                    },
                    "errorInfo": "",
                    "fromAddress": "0x9d9820f10772ffcef842770b6581c07a97fed9e4",
                    "gasUsed": 2504,
                    "id": 22,
                    "methodDecoded": true,
                    "operation": "STATICCALL",
                    "output": "0x000000000000000000000000000000000000000000016685a94b1a496985e94400000000000000000000000000000000000000000000000cfe0128088d1a97de0000000000000000000000000000000000000000000000000000000065044dab",
                    "revert": false,
                    "revertMessage": "",
                    "selector": "0x0902f1ac",
                    "status": true,
                    "value": "0"
                },
                "nodeType": 0
            },
            "23": {
                "invocation": {
                    "address": "0xa499648fd0e80fd911972bbeb069e4c20e68bf22",
                    "callData": "0x000000000000000000000000ec5100ad159f660986e47afa0cda1081101b471d0000000000000000000000000000000000000000000000bf40c6f9b56fc80a6f",
                    "decodedMethod": {
                        "callParams": [
                            {
                                "name": "recipient",
                                "type": "address",
                                "value": "0xec5100ad159f660986e47afa0cda1081101b471d"
                            },
                            {
                                "decimalAvailable": true,
                                "name": "amount",
                                "type": "uint256",
                                "value": "3,527,995,810,700,000,234,095"
                            }
                        ],
                        "constructorArguments": "",
                        "name": "transfer",
                        "returnParams": [
                            {
                                "name": "",
                                "type": "bool",
                                "value": true
                            }
                        ],
                        "signature": "transfer(address,uint256)"
                    },
                    "errorInfo": "",
                    "fromAddress": "0x9d9820f10772ffcef842770b6581c07a97fed9e4",
                    "gasUsed": 8352,
                    "id": 23,
                    "methodDecoded": true,
                    "operation": "CALL",
                    "output": "0x0000000000000000000000000000000000000000000000000000000000000001",
                    "revert": false,
                    "revertMessage": "",
                    "selector": "0xa9059cbb",
                    "status": true,
                    "value": "0"
                },
                "nodeType": 0
            },
            "24": {
                "event": {
                    "contract": "0xa499648fd0e80fd911972bbeb069e4c20e68bf22",
                    "decodedLog": {
                        "name": "Transfer",
                        "params": [
                            {
                                "name": "from",
                                "type": "address",
                                "value": "0x9d9820f10772ffcef842770b6581c07a97fed9e4"
                            },
                            {
                                "name": "to",
                                "type": "address",
                                "value": "0xec5100ad159f660986e47afa0cda1081101b471d"
                            },
                            {
                                "decimalAvailable": true,
                                "name": "value",
                                "type": "uint256",
                                "value": "3,527,995,810,700,000,234,095"
                            }
                        ],
                        "signature": "Transfer(address,address,uint256)"
                    },
                    "id": 24,
                    "logData": "0x0000000000000000000000000000000000000000000000bf40c6f9b56fc80a6f",
                    "logDecoded": true,
                    "operation": "EVENT",
                    "revert": false,
                    "status": true,
                    "topics": [
                        "0xddf252ad1be2c89b69c2b068fc378daa952ba7f163c4a11628f55a4df523b3ef",
                        "0x0000000000000000000000009d9820f10772ffcef842770b6581c07a97fed9e4",
                        "0x000000000000000000000000ec5100ad159f660986e47afa0cda1081101b471d"
                    ]
                },
                "nodeType": 1
            },
            "25": {
                "invocation": {
                    "address": "0xec5100ad159f660986e47afa0cda1081101b471d",
                    "callData": "0x000000000000000000000000000000000000000000000000000000000000000000000000000000000000000000000000000000000000000006e542f3df4b59ef0000000000000000000000009d9820f10772ffcef842770b6581c07a97fed9e400000000000000000000000000000000000000000000000000000000000000800000000000000000000000000000000000000000000000000000000000000000",
                    "decodedMethod": {
                        "callParams": [
                            {
                                "name": "amount0Out",
                                "type": "uint256",
                                "value": "0"
                            },
                            {
                                "name": "amount1Out",
                                "type": "uint256",
                                "value": "496,876,949,085,051,375"
                            },
                            {
                                "name": "to",
                                "type": "address",
                                "value": "0x9d9820f10772ffcef842770b6581c07a97fed9e4"
                            },
                            {
                                "name": "data",
                                "type": "bytes",
                                "value": "0x"
                            }
                        ],
                        "constructorArguments": "",
                        "name": "swap",
                        "returnParams": [],
                        "signature": "swap(uint256,uint256,address,bytes)"
                    },
                    "errorInfo": "",
                    "fromAddress": "0x9d9820f10772ffcef842770b6581c07a97fed9e4",
                    "gasUsed": 64795,
                    "id": 25,
                    "methodDecoded": true,
                    "operation": "CALL",
                    "output": "",
                    "revert": false,
                    "revertMessage": "",
                    "selector": "0x022c0d9f",
                    "status": true,
                    "value": "0"
                },
                "nodeType": 0
            },
            "26": {
                "invocation": {
                    "address": "0xc02aaa39b223fe8d0a0e5c4f27ead9083c756cc2",
                    "callData": "0x0000000000000000000000009d9820f10772ffcef842770b6581c07a97fed9e400000000000000000000000000000000000000000000000006e542f3df4b59ef",
                    "decodedMethod": {
                        "callParams": [
                            {
                                "name": "dst",
                                "type": "address",
                                "value": "0x9d9820f10772ffcef842770b6581c07a97fed9e4"
                            },
                            {
                                "decimalAvailable": true,
                                "name": "wad",
                                "type": "uint256",
                                "value": "496,876,949,085,051,375"
                            }
                        ],
                        "constructorArguments": "",
                        "name": "transfer",
                        "returnParams": [
                            {
                                "name": "",
                                "type": "bool",
                                "value": true
                            }
                        ],
                        "signature": "transfer(address,uint256)"
                    },
                    "errorInfo": "",
                    "fromAddress": "0xec5100ad159f660986e47afa0cda1081101b471d",
                    "gasUsed": 29962,
                    "id": 26,
                    "methodDecoded": true,
                    "operation": "CALL",
                    "output": "0x0000000000000000000000000000000000000000000000000000000000000001",
                    "revert": false,
                    "revertMessage": "",
                    "selector": "0xa9059cbb",
                    "status": true,
                    "value": "0"
                },
                "nodeType": 0
            },
            "27": {
                "event": {
                    "contract": "0xc02aaa39b223fe8d0a0e5c4f27ead9083c756cc2",
                    "decodedLog": {
                        "name": "Transfer",
                        "params": [
                            {
                                "name": "src",
                                "type": "address",
                                "value": "0xec5100ad159f660986e47afa0cda1081101b471d"
                            },
                            {
                                "name": "dst",
                                "type": "address",
                                "value": "0x9d9820f10772ffcef842770b6581c07a97fed9e4"
                            },
                            {
                                "decimalAvailable": true,
                                "name": "wad",
                                "type": "uint256",
                                "value": "496,876,949,085,051,375"
                            }
                        ],
                        "signature": "Transfer(address,address,uint256)"
                    },
                    "id": 27,
                    "logData": "0x00000000000000000000000000000000000000000000000006e542f3df4b59ef",
                    "logDecoded": true,
                    "operation": "EVENT",
                    "revert": false,
                    "status": true,
                    "topics": [
                        "0xddf252ad1be2c89b69c2b068fc378daa952ba7f163c4a11628f55a4df523b3ef",
                        "0x000000000000000000000000ec5100ad159f660986e47afa0cda1081101b471d",
                        "0x0000000000000000000000009d9820f10772ffcef842770b6581c07a97fed9e4"
                    ]
                },
                "nodeType": 1
            },
            "28": {
                "invocation": {
                    "address": "0xa499648fd0e80fd911972bbeb069e4c20e68bf22",
                    "callData": "0x000000000000000000000000ec5100ad159f660986e47afa0cda1081101b471d",
                    "decodedMethod": {
                        "callParams": [
                            {
                                "name": "account",
                                "type": "address",
                                "value": "0xec5100ad159f660986e47afa0cda1081101b471d"
                            }
                        ],
                        "constructorArguments": "",
                        "name": "balanceOf",
                        "returnParams": [
                            {
                                "decimalAvailable": true,
                                "name": "",
                                "type": "uint256",
                                "value": "1,696,600,812,512,754,625,541,043"
                            }
                        ],
                        "signature": "balanceOf(address)"
                    },
                    "errorInfo": "",
                    "fromAddress": "0xec5100ad159f660986e47afa0cda1081101b471d",
                    "gasUsed": 542,
                    "id": 28,
                    "methodDecoded": true,
                    "operation": "STATICCALL",
                    "output": "0x000000000000000000000000000000000000000000016744ea1213fed94df3b3",
                    "revert": false,
                    "revertMessage": "",
                    "selector": "0x70a08231",
                    "status": true,
                    "value": "0"
                },
                "nodeType": 0
            },
            "29": {
                "invocation": {
                    "address": "0xc02aaa39b223fe8d0a0e5c4f27ead9083c756cc2",
                    "callData": "0x000000000000000000000000ec5100ad159f660986e47afa0cda1081101b471d",
                    "decodedMethod": {
                        "callParams": [
                            {
                                "name": "",
                                "type": "address",
                                "value": "0xec5100ad159f660986e47afa0cda1081101b471d"
                            }
                        ],
                        "constructorArguments": "",
                        "name": "balanceOf",
                        "returnParams": [
                            {
                                "decimalAvailable": true,
                                "name": "",
                                "type": "uint256",
                                "value": "239,167,006,313,232,154,095"
                            }
                        ],
                        "signature": "balanceOf(address)"
                    },
                    "errorInfo": "",
                    "fromAddress": "0xec5100ad159f660986e47afa0cda1081101b471d",
                    "gasUsed": 534,
                    "id": 29,
                    "methodDecoded": true,
                    "operation": "STATICCALL",
                    "output": "0x00000000000000000000000000000000000000000000000cf71be514adcf3def",
                    "revert": false,
                    "revertMessage": "",
                    "selector": "0x70a08231",
                    "status": true,
                    "value": "0"
                },
                "nodeType": 0
            },
            "3": {
                "event": {
                    "contract": "0xd3c41c85be295607e8ea5c58487ec5894300ee67",
                    "decodedLog": {
                        "name": "UpdatePool",
                        "params": [
                            {
                                "name": "pid",
                                "type": "uint256",
                                "value": "0"
                            }
                        ],
                        "signature": "UpdatePool(uint256)"
                    },
                    "id": 3,
                    "logData": "0x0000000000000000000000000000000000000000000000000000000000000000",
                    "logDecoded": true,
                    "operation": "EVENT",
                    "revert": false,
                    "status": true,
                    "topics": [
                        "0x20f73897541b01c2d01f4eca5ac07cb2c486d778aadf60fac2d2dcfd3c1389f1"
                    ]
                },
                "nodeType": 1
            },
            "30": {
                "event": {
                    "contract": "0xec5100ad159f660986e47afa0cda1081101b471d",
                    "decodedLog": {
                        "name": "Sync",
                        "params": [
                            {
                                "name": "reserve0",
                                "type": "uint112",
                                "value": "1,696,600,812,512,754,625,541,043"
                            },
                            {
                                "name": "reserve1",
                                "type": "uint112",
                                "value": "239,167,006,313,232,154,095"
                            }
                        ],
                        "signature": "Sync(uint112,uint112)"
                    },
                    "id": 30,
                    "logData": "0x000000000000000000000000000000000000000000016744ea1213fed94df3b300000000000000000000000000000000000000000000000cf71be514adcf3def",
                    "logDecoded": true,
                    "operation": "EVENT",
                    "revert": false,
                    "status": true,
                    "topics": [
                        "0x1c411e9a96e071241c2f21f7726b17ae89e3cab4c78be50e062b03a9fffbbad1"
                    ]
                },
                "nodeType": 1
            },
            "31": {
                "event": {
                    "contract": "0xec5100ad159f660986e47afa0cda1081101b471d",
                    "decodedLog": {
                        "name": "Swap",
                        "params": [
                            {
                                "name": "sender",
                                "type": "address",
                                "value": "0x9d9820f10772ffcef842770b6581c07a97fed9e4"
                            },
                            {
                                "name": "to",
                                "type": "address",
                                "value": "0x9d9820f10772ffcef842770b6581c07a97fed9e4"
                            },
                            {
                                "name": "amount0In",
                                "type": "uint256",
                                "value": "3,527,995,810,700,000,234,095"
                            },
                            {
                                "name": "amount1In",
                                "type": "uint256",
                                "value": "0"
                            },
                            {
                                "name": "amount0Out",
                                "type": "uint256",
                                "value": "0"
                            },
                            {
                                "name": "amount1Out",
                                "type": "uint256",
                                "value": "496,876,949,085,051,375"
                            }
                        ],
                        "signature": "Swap(address,uint256,uint256,uint256,uint256,address)"
                    },
                    "id": 31,
                    "logData": "0x0000000000000000000000000000000000000000000000bf40c6f9b56fc80a6f0000000000000000000000000000000000000000000000000000000000000000000000000000000000000000000000000000000000000000000000000000000000000000000000000000000000000000000000000000000006e542f3df4b59ef",
                    "logDecoded": true,
                    "operation": "EVENT",
                    "revert": false,
                    "status": true,
                    "topics": [
                        "0xd78ad95fa46c994b6551d0da85fc275fe613ce37657fb8d5e3d130840159d822",
                        "0x0000000000000000000000009d9820f10772ffcef842770b6581c07a97fed9e4",
                        "0x0000000000000000000000009d9820f10772ffcef842770b6581c07a97fed9e4"
                    ]
                },
                "nodeType": 1
            },
            "32": {
                "invocation": {
                    "address": "0xc02aaa39b223fe8d0a0e5c4f27ead9083c756cc2",
                    "callData": "0x00000000000000000000000000000000000000000000000006e542f3df4b59ef",
                    "decodedMethod": {
                        "callParams": [
                            {
                                "name": "wad",
                                "type": "uint256",
                                "value": "496,876,949,085,051,375"
                            }
                        ],
                        "constructorArguments": "",
                        "name": "withdraw",
                        "returnParams": [],
                        "signature": "withdraw(uint256)"
                    },
                    "errorInfo": "",
                    "fromAddress": "0x9d9820f10772ffcef842770b6581c07a97fed9e4",
                    "gasUsed": 9195,
                    "id": 32,
                    "methodDecoded": true,
                    "operation": "CALL",
                    "output": "",
                    "revert": false,
                    "revertMessage": "",
                    "selector": "0x2e1a7d4d",
                    "status": true,
                    "value": "0"
                },
                "nodeType": 0
            },
            "33": {
                "invocation": {
                    "address": "0x9d9820f10772ffcef842770b6581c07a97fed9e4",
                    "callData": "0x",
                    "decodedMethod": null,
                    "errorInfo": "",
                    "fromAddress": "0xc02aaa39b223fe8d0a0e5c4f27ead9083c756cc2",
                    "gasUsed": 55,
                    "id": 33,
                    "methodDecoded": false,
                    "operation": "CALL",
                    "output": "",
                    "revert": false,
                    "revertMessage": "",
                    "selector": "fallback",
                    "status": true,
                    "value": "0.496876949085051375"
                },
                "nodeType": 0
            },
            "34": {
                "event": {
                    "contract": "0xc02aaa39b223fe8d0a0e5c4f27ead9083c756cc2",
                    "decodedLog": {
                        "name": "Withdrawal",
                        "params": [
                            {
                                "name": "src",
                                "type": "address",
                                "value": "0x9d9820f10772ffcef842770b6581c07a97fed9e4"
                            },
                            {
                                "name": "wad",
                                "type": "uint256",
                                "value": "496,876,949,085,051,375"
                            }
                        ],
                        "signature": "Withdrawal(address,uint256)"
                    },
                    "id": 34,
                    "logData": "0x00000000000000000000000000000000000000000000000006e542f3df4b59ef",
                    "logDecoded": true,
                    "operation": "EVENT",
                    "revert": false,
                    "status": true,
                    "topics": [
                        "0x7fcf532c15f0a6db0bd6d0e038bea71d30d808c7d98cb3bf7268a95bf5081b65",
                        "0x0000000000000000000000009d9820f10772ffcef842770b6581c07a97fed9e4"
                    ]
                },
                "nodeType": 1
            },
            "35": {
                "invocation": {
                    "address": "0x92cfcb70b2591ceb1e3c6d90e21e8154e7d29832",
                    "callData": "0x",
                    "decodedMethod": null,
                    "errorInfo": "",
                    "fromAddress": "0x9d9820f10772ffcef842770b6581c07a97fed9e4",
                    "gasUsed": 0,
                    "id": 35,
                    "methodDecoded": false,
                    "operation": "CALL",
                    "output": "",
                    "revert": false,
                    "revertMessage": "",
                    "selector": "fallback",
                    "status": true,
                    "value": "0.496876949085051375"
                },
                "nodeType": 0
            },
            "36": {
                "invocation": {
                    "address": "0xd3c41c85be295607e8ea5c58487ec5894300ee67",
                    "callData": "0x000000000000000000000000cdcc535503cba9286489b338b36156b4b75008f60000000000000000000000000000000000000000000000000000000000000001",
                    "decodedMethod": {
                        "callParams": [
                            {
                                "name": "operator",
                                "type": "address",
                                "value": "0xcdcc535503cba9286489b338b36156b4b75008f6"
                            },
                            {
                                "name": "approved",
                                "type": "bool",
                                "value": true
                            }
                        ],
                        "constructorArguments": "",
                        "name": "setApprovalForAll",
                        "returnParams": [],
                        "signature": "setApprovalForAll(address,bool)"
                    },
                    "errorInfo": "",
                    "fromAddress": "0x9d9820f10772ffcef842770b6581c07a97fed9e4",
                    "gasUsed": 24664,
                    "id": 36,
                    "methodDecoded": true,
                    "operation": "CALL",
                    "output": "",
                    "revert": false,
                    "revertMessage": "",
                    "selector": "0xa22cb465",
                    "status": true,
                    "value": "0"
                },
                "nodeType": 0
            },
            "37": {
                "event": {
                    "contract": "0xd3c41c85be295607e8ea5c58487ec5894300ee67",
                    "decodedLog": {
                        "name": "ApprovalForAll",
                        "params": [
                            {
                                "name": "account",
                                "type": "address",
                                "value": "0x9d9820f10772ffcef842770b6581c07a97fed9e4"
                            },
                            {
                                "name": "operator",
                                "type": "address",
                                "value": "0xcdcc535503cba9286489b338b36156b4b75008f6"
                            },
                            {
                                "name": "approved",
                                "type": "bool",
                                "value": true
                            }
                        ],
                        "signature": "ApprovalForAll(address,address,bool)"
                    },
                    "id": 37,
                    "logData": "0x0000000000000000000000000000000000000000000000000000000000000001",
                    "logDecoded": true,
                    "operation": "EVENT",
                    "revert": false,
                    "status": true,
                    "topics": [
                        "0x17307eab39ab6107e8899845ad3d59bd9653f200f220920489ca2b5937696c31",
                        "0x0000000000000000000000009d9820f10772ffcef842770b6581c07a97fed9e4",
                        "0x000000000000000000000000cdcc535503cba9286489b338b36156b4b75008f6"
                    ]
                },
                "nodeType": 1
            },
            "38": {
                "invocation": {
                    "address": "0xcdcc535503cba9286489b338b36156b4b75008f6",
                    "callData": "0x000000000000000000000000a499648fd0e80fd911972bbeb069e4c20e68bf220000000000000000000000000000000000000000000000000000000000000000",
                    "decodedMethod": {
                        "callParams": [
                            {
                                "name": "_uToken",
                                "type": "address",
                                "value": "0xa499648fd0e80fd911972bbeb069e4c20e68bf22"
                            },
                            {
                                "name": "internalID",
                                "type": "uint256",
                                "value": "0"
                            }
                        ],
                        "constructorArguments": "",
                        "name": "redeem",
                        "returnParams": [],
                        "signature": "redeem(address,uint256)"
                    },
                    "errorInfo": "",
                    "fromAddress": "0x9d9820f10772ffcef842770b6581c07a97fed9e4",
                    "gasUsed": 139929,
                    "id": 38,
                    "methodDecoded": true,
                    "operation": "CALL",
                    "output": "",
                    "revert": false,
                    "revertMessage": "",
                    "selector": "0x1e9a6950",
                    "status": true,
                    "value": "0"
                },
                "nodeType": 0
            },
            "39": {
                "invocation": {
                    "address": "0xd3c41c85be295607e8ea5c58487ec5894300ee67",
                    "callData": "0x000000000000000000000000a499648fd0e80fd911972bbeb069e4c20e68bf22",
                    "decodedMethod": {
                        "callParams": [
                            {
                                "name": "",
                                "type": "address",
                                "value": "0xa499648fd0e80fd911972bbeb069e4c20e68bf22"
                            }
                        ],
                        "constructorArguments": "",
                        "name": "shopIDs",
                        "returnParams": [
                            {
                                "name": "",
                                "type": "uint256",
                                "value": "0"
                            }
                        ],
                        "signature": "shopIDs(address)"
                    },
                    "errorInfo": "",
                    "fromAddress": "0xcdcc535503cba9286489b338b36156b4b75008f6",
                    "gasUsed": 2602,
                    "id": 39,
                    "methodDecoded": true,
                    "operation": "STATICCALL",
                    "output": "0x0000000000000000000000000000000000000000000000000000000000000000",
                    "revert": false,
                    "revertMessage": "",
                    "selector": "0xbcc1123c",
                    "status": true,
                    "value": "0"
                },
                "nodeType": 0
            },
            "4": {
                "event": {
                    "contract": "0xd3c41c85be295607e8ea5c58487ec5894300ee67",
                    "decodedLog": {
                        "name": "TransferSingle",
                        "params": [
                            {
                                "name": "operator",
                                "type": "address",
                                "value": "0x9d9820f10772ffcef842770b6581c07a97fed9e4"
                            },
                            {
                                "name": "from",
                                "type": "address",
                                "value": "0x0000000000000000000000000000000000000000"
                            },
                            {
                                "name": "to",
                                "type": "address",
                                "value": "0x9d9820f10772ffcef842770b6581c07a97fed9e4"
                            },
                            {
                                "name": "id",
                                "type": "uint256",
                                "value": "0"
                            },
                            {
                                "name": "value",
                                "type": "uint256",
                                "value": "3,528"
                            }
                        ],
                        "signature": "TransferSingle(address,address,address,uint256,uint256)"
                    },
                    "id": 4,
                    "logData": "0x00000000000000000000000000000000000000000000000000000000000000000000000000000000000000000000000000000000000000000000000000000dc8",
                    "logDecoded": true,
                    "operation": "EVENT",
                    "revert": false,
                    "status": true,
                    "topics": [
                        "0xc3d58168c5ae7397731d063d5bbf3d657854427343f4c083240f7aacaa2d0f62",
                        "0x0000000000000000000000009d9820f10772ffcef842770b6581c07a97fed9e4",
                        "0x0000000000000000000000000000000000000000000000000000000000000000",
                        "0x0000000000000000000000009d9820f10772ffcef842770b6581c07a97fed9e4"
                    ]
                },
                "nodeType": 1
            },
            "40": {
                "invocation": {
                    "address": "0xd3c41c85be295607e8ea5c58487ec5894300ee67",
                    "callData": "0x0000000000000000000000009d9820f10772ffcef842770b6581c07a97fed9e400000000000000000000000000000000000000000000000000000000000000000000000000000000000000000000000000000000000000000000000000002710",
                    "decodedMethod": {
                        "callParams": [
                            {
                                "name": "account",
                                "type": "address",
                                "value": "0x9d9820f10772ffcef842770b6581c07a97fed9e4"
                            },
                            {
                                "name": "id",
                                "type": "uint256",
                                "value": "0"
                            },
                            {
                                "name": "value",
                                "type": "uint256",
                                "value": "10,000"
                            }
                        ],
                        "constructorArguments": "",
                        "name": "burn",
                        "returnParams": [],
                        "signature": "burn(address,uint256,uint256)"
                    },
                    "errorInfo": "",
                    "fromAddress": "0xcdcc535503cba9286489b338b36156b4b75008f6",
                    "gasUsed": 4912,
                    "id": 40,
                    "methodDecoded": true,
                    "operation": "CALL",
                    "output": "",
                    "revert": false,
                    "revertMessage": "",
                    "selector": "0xf5298aca",
                    "status": true,
                    "value": "0"
                },
                "nodeType": 0
            },
            "41": {
                "event": {
                    "contract": "0xd3c41c85be295607e8ea5c58487ec5894300ee67",
                    "decodedLog": {
                        "name": "TransferSingle",
                        "params": [
                            {
                                "name": "operator",
                                "type": "address",
                                "value": "0xcdcc535503cba9286489b338b36156b4b75008f6"
                            },
                            {
                                "name": "from",
                                "type": "address",
                                "value": "0x9d9820f10772ffcef842770b6581c07a97fed9e4"
                            },
                            {
                                "name": "to",
                                "type": "address",
                                "value": "0x0000000000000000000000000000000000000000"
                            },
                            {
                                "name": "id",
                                "type": "uint256",
                                "value": "0"
                            },
                            {
                                "name": "value",
                                "type": "uint256",
                                "value": "10,000"
                            }
                        ],
                        "signature": "TransferSingle(address,address,address,uint256,uint256)"
                    },
                    "id": 41,
                    "logData": "0x00000000000000000000000000000000000000000000000000000000000000000000000000000000000000000000000000000000000000000000000000002710",
                    "logDecoded": true,
                    "operation": "EVENT",
                    "revert": false,
                    "status": true,
                    "topics": [
                        "0xc3d58168c5ae7397731d063d5bbf3d657854427343f4c083240f7aacaa2d0f62",
                        "0x000000000000000000000000cdcc535503cba9286489b338b36156b4b75008f6",
                        "0x0000000000000000000000009d9820f10772ffcef842770b6581c07a97fed9e4",
                        "0x0000000000000000000000000000000000000000000000000000000000000000"
                    ]
                },
                "nodeType": 1
            },
            "42": {
                "invocation": {
                    "address": "0x7afe30cb3e53dba6801aa0ea647a0ecea7cbe18d",
                    "callData": "0x01ffc9a700000000000000000000000000000000000000000000000000000000",
                    "decodedMethod": {
                        "callParams": [
                            {
                                "name": "interfaceId",
                                "type": "bytes4",
                                "value": "0x01ffc9a7"
                            }
                        ],
                        "constructorArguments": "",
                        "name": "supportsInterface",
                        "returnParams": [
                            {
                                "name": "",
                                "type": "bool",
                                "value": true
                            }
                        ],
                        "signature": "supportsInterface(bytes4)"
                    },
                    "errorInfo": "",
                    "fromAddress": "0xcdcc535503cba9286489b338b36156b4b75008f6",
                    "gasUsed": 2594,
                    "id": 42,
                    "methodDecoded": true,
                    "operation": "STATICCALL",
                    "output": "0x0000000000000000000000000000000000000000000000000000000000000001",
                    "revert": false,
                    "revertMessage": "",
                    "selector": "0x01ffc9a7",
                    "status": true,
                    "value": "0"
                },
                "nodeType": 0
            },
            "43": {
                "invocation": {
                    "address": "0x7afe30cb3e53dba6801aa0ea647a0ecea7cbe18d",
                    "callData": "0xffffffff00000000000000000000000000000000000000000000000000000000",
                    "decodedMethod": {
                        "callParams": [
                            {
                                "name": "interfaceId",
                                "type": "bytes4",
                                "value": "0xffffffff"
                            }
                        ],
                        "constructorArguments": "",
                        "name": "supportsInterface",
                        "returnParams": [
                            {
                                "name": "",
                                "type": "bool",
                                "value": false
                            }
                        ],
                        "signature": "supportsInterface(bytes4)"
                    },
                    "errorInfo": "",
                    "fromAddress": "0xcdcc535503cba9286489b338b36156b4b75008f6",
                    "gasUsed": 2594,
                    "id": 43,
                    "methodDecoded": true,
                    "operation": "STATICCALL",
                    "output": "0x0000000000000000000000000000000000000000000000000000000000000000",
                    "revert": false,
                    "revertMessage": "",
                    "selector": "0x01ffc9a7",
                    "status": true,
                    "value": "0"
                },
                "nodeType": 0
            },
            "44": {
                "invocation": {
                    "address": "0x7afe30cb3e53dba6801aa0ea647a0ecea7cbe18d",
                    "callData": "0xd9b67a2600000000000000000000000000000000000000000000000000000000",
                    "decodedMethod": {
                        "callParams": [
                            {
                                "name": "interfaceId",
                                "type": "bytes4",
                                "value": "0xd9b67a26"
                            }
                        ],
                        "constructorArguments": "",
                        "name": "supportsInterface",
                        "returnParams": [
                            {
                                "name": "",
                                "type": "bool",
                                "value": false
                            }
                        ],
                        "signature": "supportsInterface(bytes4)"
                    },
                    "errorInfo": "",
                    "fromAddress": "0xcdcc535503cba9286489b338b36156b4b75008f6",
                    "gasUsed": 2594,
                    "id": 44,
                    "methodDecoded": true,
                    "operation": "STATICCALL",
                    "output": "0x0000000000000000000000000000000000000000000000000000000000000000",
                    "revert": false,
                    "revertMessage": "",
                    "selector": "0x01ffc9a7",
                    "status": true,
                    "value": "0"
                },
                "nodeType": 0
            },
            "45": {
                "invocation": {
                    "address": "0x7afe30cb3e53dba6801aa0ea647a0ecea7cbe18d",
                    "callData": "0x000000000000000000000000cdcc535503cba9286489b338b36156b4b75008f60000000000000000000000009d9820f10772ffcef842770b6581c07a97fed9e40000000000000000000000000000000000000000000000000000000000001251",
                    "decodedMethod": {
                        "callParams": [
                            {
                                "name": "from",
                                "type": "address",
                                "value": "0xcdcc535503cba9286489b338b36156b4b75008f6"
                            },
                            {
                                "name": "to",
                                "type": "address",
                                "value": "0x9d9820f10772ffcef842770b6581c07a97fed9e4"
                            },
                            {
                                "decimalAvailable": true,
                                "name": "tokenId",
                                "type": "uint256",
                                "value": "4,689"
                            }
                        ],
                        "constructorArguments": "",
                        "name": "transferFrom",
                        "returnParams": [],
                        "signature": "transferFrom(address,address,uint256)"
                    },
                    "errorInfo": "",
                    "fromAddress": "0xcdcc535503cba9286489b338b36156b4b75008f6",
                    "gasUsed": 102603,
                    "id": 45,
                    "methodDecoded": true,
                    "operation": "CALL",
                    "output": "",
                    "revert": false,
                    "revertMessage": "",
                    "selector": "0x23b872dd",
                    "status": true,
                    "value": "0"
                },
                "nodeType": 0
            },
            "46": {
                "event": {
                    "contract": "0x7afe30cb3e53dba6801aa0ea647a0ecea7cbe18d",
                    "decodedLog": {
                        "name": "Approval",
                        "params": [
                            {
                                "name": "owner",
                                "type": "address",
                                "value": "0xcdcc535503cba9286489b338b36156b4b75008f6"
                            },
                            {
                                "name": "approved",
                                "type": "address",
                                "value": "0x0000000000000000000000000000000000000000"
                            },
                            {
                                "decimalAvailable": true,
                                "name": "tokenId",
                                "type": "uint256",
                                "value": "4,689"
                            }
                        ],
                        "signature": "Approval(address,address,uint256)"
                    },
                    "id": 46,
                    "logData": "0x",
                    "logDecoded": true,
                    "operation": "EVENT",
                    "revert": false,
                    "status": true,
                    "topics": [
                        "0x8c5be1e5ebec7d5bd14f71427d1e84f3dd0314c0f7b2291e5b200ac8c7c3b925",
                        "0x000000000000000000000000cdcc535503cba9286489b338b36156b4b75008f6",
                        "0x0000000000000000000000000000000000000000000000000000000000000000",
                        "0x0000000000000000000000000000000000000000000000000000000000001251"
                    ]
                },
                "nodeType": 1
            },
            "47": {
                "event": {
                    "contract": "0x7afe30cb3e53dba6801aa0ea647a0ecea7cbe18d",
                    "decodedLog": {
                        "name": "Transfer",
                        "params": [
                            {
                                "name": "from",
                                "type": "address",
                                "value": "0xcdcc535503cba9286489b338b36156b4b75008f6"
                            },
                            {
                                "name": "to",
                                "type": "address",
                                "value": "0x9d9820f10772ffcef842770b6581c07a97fed9e4"
                            },
                            {
                                "decimalAvailable": true,
                                "name": "tokenId",
                                "type": "uint256",
                                "value": "4,689"
                            }
                        ],
                        "signature": "Transfer(address,address,uint256)"
                    },
                    "id": 47,
                    "logData": "0x",
                    "logDecoded": true,
                    "operation": "EVENT",
                    "revert": false,
                    "status": true,
                    "topics": [
                        "0xddf252ad1be2c89b69c2b068fc378daa952ba7f163c4a11628f55a4df523b3ef",
                        "0x000000000000000000000000cdcc535503cba9286489b338b36156b4b75008f6",
                        "0x0000000000000000000000009d9820f10772ffcef842770b6581c07a97fed9e4",
                        "0x0000000000000000000000000000000000000000000000000000000000001251"
                    ]
                },
                "nodeType": 1
            },
            "48": {
                "invocation": {
                    "address": "0x7afe30cb3e53dba6801aa0ea647a0ecea7cbe18d",
                    "callData": "0x0000000000000000000000009d9820f10772ffcef842770b6581c07a97fed9e400000000000000000000000092cfcb70b2591ceb1e3c6d90e21e8154e7d298320000000000000000000000000000000000000000000000000000000000001251",
                    "decodedMethod": {
                        "callParams": [
                            {
                                "name": "from",
                                "type": "address",
                                "value": "0x9d9820f10772ffcef842770b6581c07a97fed9e4"
                            },
                            {
                                "name": "to",
                                "type": "address",
                                "value": "0x92cfcb70b2591ceb1e3c6d90e21e8154e7d29832"
                            },
                            {
                                "name": "tokenId",
                                "type": "uint256",
                                "value": "4,689"
                            }
                        ],
                        "constructorArguments": "",
                        "name": "safeTransferFrom",
                        "returnParams": [],
                        "signature": "safeTransferFrom(address,address,uint256)"
                    },
                    "errorInfo": "",
                    "fromAddress": "0x9d9820f10772ffcef842770b6581c07a97fed9e4",
                    "gasUsed": 77797,
                    "id": 48,
                    "methodDecoded": true,
                    "operation": "CALL",
                    "output": "",
                    "revert": false,
                    "revertMessage": "",
                    "selector": "0x42842e0e",
                    "status": true,
                    "value": "0"
                },
                "nodeType": 0
            },
            "49": {
                "event": {
                    "contract": "0x7afe30cb3e53dba6801aa0ea647a0ecea7cbe18d",
                    "decodedLog": {
                        "name": "Approval",
                        "params": [
                            {
                                "name": "owner",
                                "type": "address",
                                "value": "0x9d9820f10772ffcef842770b6581c07a97fed9e4"
                            },
                            {
                                "name": "approved",
                                "type": "address",
                                "value": "0x0000000000000000000000000000000000000000"
                            },
                            {
                                "decimalAvailable": true,
                                "name": "tokenId",
                                "type": "uint256",
                                "value": "4,689"
                            }
                        ],
                        "signature": "Approval(address,address,uint256)"
                    },
                    "id": 49,
                    "logData": "0x",
                    "logDecoded": true,
                    "operation": "EVENT",
                    "revert": false,
                    "status": true,
                    "topics": [
                        "0x8c5be1e5ebec7d5bd14f71427d1e84f3dd0314c0f7b2291e5b200ac8c7c3b925",
                        "0x0000000000000000000000009d9820f10772ffcef842770b6581c07a97fed9e4",
                        "0x0000000000000000000000000000000000000000000000000000000000000000",
                        "0x0000000000000000000000000000000000000000000000000000000000001251"
                    ]
                },
                "nodeType": 1
            },
            "5": {
                "invocation": {
                    "address": "0x9d9820f10772ffcef842770b6581c07a97fed9e4",
                    "callData": "0x0000000000000000000000009d9820f10772ffcef842770b6581c07a97fed9e4000000000000000000000000000000000000000000000000000000000000000000000000000000000000000000000000000000000000000000000000000000000000000000000000000000000000000000000000000000000000000000000dc800000000000000000000000000000000000000000000000000000000000000a00000000000000000000000000000000000000000000000000000000000000000",
                    "decodedMethod": {
                        "callParams": [
                            {
                                "name": "",
                                "type": "address",
                                "value": "0x9d9820f10772ffcef842770b6581c07a97fed9e4"
                            },
                            {
                                "name": "",
                                "type": "address",
                                "value": "0x0000000000000000000000000000000000000000"
                            },
                            {
                                "name": "",
                                "type": "uint256",
                                "value": "0"
                            },
                            {
                                "name": "",
                                "type": "uint256",
                                "value": "3,528"
                            },
                            {
                                "name": "",
                                "type": "bytes",
                                "value": "0x"
                            }
                        ],
                        "constructorArguments": "",
                        "name": "onERC1155Received",
                        "returnParams": [
                            {
                                "name": "",
                                "type": "bytes4",
                                "value": "0xf23a6e61"
                            }
                        ],
                        "signature": "onERC1155Received(address,address,uint256,uint256,bytes)"
                    },
                    "errorInfo": "",
                    "fromAddress": "0xd3c41c85be295607e8ea5c58487ec5894300ee67",
                    "gasUsed": 33834,
                    "id": 5,
                    "methodDecoded": true,
                    "operation": "CALL",
                    "output": "0xf23a6e6100000000000000000000000000000000000000000000000000000000",
                    "revert": false,
                    "revertMessage": "",
                    "selector": "0xf23a6e61",
                    "status": true,
                    "value": "0"
                },
                "nodeType": 0
            },
            "50": {
                "event": {
                    "contract": "0x7afe30cb3e53dba6801aa0ea647a0ecea7cbe18d",
                    "decodedLog": {
                        "name": "Transfer",
                        "params": [
                            {
                                "name": "from",
                                "type": "address",
                                "value": "0x9d9820f10772ffcef842770b6581c07a97fed9e4"
                            },
                            {
                                "name": "to",
                                "type": "address",
                                "value": "0x92cfcb70b2591ceb1e3c6d90e21e8154e7d29832"
                            },
                            {
                                "decimalAvailable": true,
                                "name": "tokenId",
                                "type": "uint256",
                                "value": "4,689"
                            }
                        ],
                        "signature": "Transfer(address,address,uint256)"
                    },
                    "id": 50,
                    "logData": "0x",
                    "logDecoded": true,
                    "operation": "EVENT",
                    "revert": false,
                    "status": true,
                    "topics": [
                        "0xddf252ad1be2c89b69c2b068fc378daa952ba7f163c4a11628f55a4df523b3ef",
                        "0x0000000000000000000000009d9820f10772ffcef842770b6581c07a97fed9e4",
                        "0x00000000000000000000000092cfcb70b2591ceb1e3c6d90e21e8154e7d29832",
                        "0x0000000000000000000000000000000000000000000000000000000000001251"
                    ]
                },
                "nodeType": 1
            },
            "6": {
                "invocation": {
                    "address": "0xd3c41c85be295607e8ea5c58487ec5894300ee67",
                    "callData": "0x0000000000000000000000009d9820f10772ffcef842770b6581c07a97fed9e40000000000000000000000000000000000000000000000000000000000000000",
                    "decodedMethod": {
                        "callParams": [
                            {
                                "name": "account",
                                "type": "address",
                                "value": "0x9d9820f10772ffcef842770b6581c07a97fed9e4"
                            },
                            {
                                "name": "id",
                                "type": "uint256",
                                "value": "0"
                            }
                        ],
                        "constructorArguments": "",
                        "name": "balanceOf",
                        "returnParams": [
                            {
                                "name": "",
                                "type": "uint256",
                                "value": "3,528"
                            }
                        ],
                        "signature": "balanceOf(address,uint256)"
                    },
                    "errorInfo": "",
                    "fromAddress": "0x9d9820f10772ffcef842770b6581c07a97fed9e4",
                    "gasUsed": 688,
                    "id": 6,
                    "methodDecoded": true,
                    "operation": "STATICCALL",
                    "output": "0x0000000000000000000000000000000000000000000000000000000000000dc8",
                    "revert": false,
                    "revertMessage": "",
                    "selector": "0x00fdd58e",
                    "status": true,
                    "value": "0"
                },
                "nodeType": 0
            },
            "7": {
                "invocation": {
                    "address": "0xd3c41c85be295607e8ea5c58487ec5894300ee67",
                    "callData": "0x00000000000000000000000000000000000000000000000000000000000000000000000000000000000000000000000000000000000000000000000000000000",
                    "decodedMethod": {
                        "callParams": [
                            {
                                "name": "_pid",
                                "type": "uint256",
                                "value": "0"
                            },
                            {
                                "name": "_amount",
                                "type": "uint256",
                                "value": "0"
                            }
                        ],
                        "constructorArguments": "",
                        "name": "deposit",
                        "returnParams": [],
                        "signature": "deposit(uint256,uint256)"
                    },
                    "errorInfo": "",
                    "fromAddress": "0x9d9820f10772ffcef842770b6581c07a97fed9e4",
                    "gasUsed": 29374,
                    "id": 7,
                    "methodDecoded": true,
                    "operation": "CALL",
                    "output": "",
                    "revert": false,
                    "revertMessage": "",
                    "selector": "0xe2bbb158",
                    "status": true,
                    "value": "0"
                },
                "nodeType": 0
            },
            "8": {
                "event": {
                    "contract": "0xd3c41c85be295607e8ea5c58487ec5894300ee67",
                    "decodedLog": {
                        "name": "TransferSingle",
                        "params": [
                            {
                                "name": "operator",
                                "type": "address",
                                "value": "0x9d9820f10772ffcef842770b6581c07a97fed9e4"
                            },
                            {
                                "name": "from",
                                "type": "address",
                                "value": "0x0000000000000000000000000000000000000000"
                            },
                            {
                                "name": "to",
                                "type": "address",
                                "value": "0x9d9820f10772ffcef842770b6581c07a97fed9e4"
                            },
                            {
                                "name": "id",
                                "type": "uint256",
                                "value": "0"
                            },
                            {
                                "name": "value",
                                "type": "uint256",
                                "value": "3,528"
                            }
                        ],
                        "signature": "TransferSingle(address,address,address,uint256,uint256)"
                    },
                    "id": 8,
                    "logData": "0x00000000000000000000000000000000000000000000000000000000000000000000000000000000000000000000000000000000000000000000000000000dc8",
                    "logDecoded": true,
                    "operation": "EVENT",
                    "revert": false,
                    "status": true,
                    "topics": [
                        "0xc3d58168c5ae7397731d063d5bbf3d657854427343f4c083240f7aacaa2d0f62",
                        "0x0000000000000000000000009d9820f10772ffcef842770b6581c07a97fed9e4",
                        "0x0000000000000000000000000000000000000000000000000000000000000000",
                        "0x0000000000000000000000009d9820f10772ffcef842770b6581c07a97fed9e4"
                    ]
                },
                "nodeType": 1
            },
            "9": {
                "invocation": {
                    "address": "0x9d9820f10772ffcef842770b6581c07a97fed9e4",
                    "callData": "0x0000000000000000000000009d9820f10772ffcef842770b6581c07a97fed9e4000000000000000000000000000000000000000000000000000000000000000000000000000000000000000000000000000000000000000000000000000000000000000000000000000000000000000000000000000000000000000000000dc800000000000000000000000000000000000000000000000000000000000000a00000000000000000000000000000000000000000000000000000000000000000",
                    "decodedMethod": {
                        "callParams": [
                            {
                                "name": "",
                                "type": "address",
                                "value": "0x9d9820f10772ffcef842770b6581c07a97fed9e4"
                            },
                            {
                                "name": "",
                                "type": "address",
                                "value": "0x0000000000000000000000000000000000000000"
                            },
                            {
                                "name": "",
                                "type": "uint256",
                                "value": "0"
                            },
                            {
                                "name": "",
                                "type": "uint256",
                                "value": "3,528"
                            },
                            {
                                "name": "",
                                "type": "bytes",
                                "value": "0x"
                            }
                        ],
                        "constructorArguments": "",
                        "name": "onERC1155Received",
                        "returnParams": [
                            {
                                "name": "",
                                "type": "bytes4",
                                "value": "0xf23a6e61"
                            }
                        ],
                        "signature": "onERC1155Received(address,address,uint256,uint256,bytes)"
                    },
                    "errorInfo": "",
                    "fromAddress": "0xd3c41c85be295607e8ea5c58487ec5894300ee67",
                    "gasUsed": 20056,
                    "id": 9,
                    "methodDecoded": true,
                    "operation": "CALL",
                    "output": "0xf23a6e6100000000000000000000000000000000000000000000000000000000",
                    "revert": false,
                    "revertMessage": "",
                    "selector": "0xf23a6e61",
                    "status": true,
                    "value": "0"
                },
                "nodeType": 0
            }
        },
        "gasFlame": [
            {
                "children": [
                    {
                        "children": [
                            {
                                "children": [],
                                "depth": 0,
                                "name": "Initial Gas",
                                "value": 21300
                            },
                            {
                                "children": [
                                    {
                                        "children": [
                                            {
                                                "children": [],
                                                "depth": 2,
                                                "name": "balanceOf",
                                                "value": 2542
                                            },
                                            {
                                                "children": [
                                                    {
                                                        "children": [],
                                                        "depth": 3,
                                                        "name": "balanceOf",
                                                        "value": 688
                                                    },
                                                    {
                                                        "children": [
                                                            {
                                                                "children": [
                                                                    {
                                                                        "children": [],
                                                                        "depth": 5,
                                                                        "name": "balanceOf",
                                                                        "value": 688
                                                                    },
                                                                    {
                                                                        "children": [
                                                                            {
                                                                                "children": [
                                                                                    {
                                                                                        "children": [],
                                                                                        "depth": 7,
                                                                                        "name": "balanceOf",
                                                                                        "value": 688
                                                                                    }
                                                                                ],
                                                                                "depth": 6,
                                                                                "name": "onERC1155Received",
                                                                                "value": 3478
                                                                            }
                                                                        ],
                                                                        "depth": 5,
                                                                        "name": "deposit",
                                                                        "value": 15596
                                                                    }
                                                                ],
                                                                "depth": 4,
                                                                "name": "onERC1155Received",
                                                                "value": 20056
                                                            }
                                                        ],
                                                        "depth": 3,
                                                        "name": "deposit",
                                                        "value": 29374
                                                    }
                                                ],
                                                "depth": 2,
                                                "name": "onERC1155Received",
                                                "value": 33834
                                            }
                                        ],
                                        "depth": 1,
                                        "name": "deposit",
                                        "value": 92608
                                    },
                                    {
                                        "children": [
                                            {
                                                "children": [],
                                                "depth": 2,
                                                "name": "transfer",
                                                "value": 28252
                                            }
                                        ],
                                        "depth": 1,
                                        "name": "withdraw",
                                        "value": 37398
                                    },
                                    {
                                        "children": [],
                                        "depth": 1,
                                        "name": "getReserves",
                                        "value": 2504
                                    },
                                    {
                                        "children": [],
                                        "depth": 1,
                                        "name": "transfer",
                                        "value": 8352
                                    },
                                    {
                                        "children": [
                                            {
                                                "children": [],
                                                "depth": 2,
                                                "name": "transfer",
                                                "value": 29962
                                            },
                                            {
                                                "children": [],
                                                "depth": 2,
                                                "name": "balanceOf",
                                                "value": 542
                                            },
                                            {
                                                "children": [],
                                                "depth": 2,
                                                "name": "balanceOf",
                                                "value": 534
                                            }
                                        ],
                                        "depth": 1,
                                        "name": "swap",
                                        "value": 64795
                                    },
                                    {
                                        "children": [
                                            {
                                                "children": [],
                                                "depth": 2,
                                                "name": "fallback",
                                                "value": 55
                                            }
                                        ],
                                        "depth": 1,
                                        "name": "withdraw",
                                        "value": 9195
                                    },
                                    {
                                        "children": [],
                                        "depth": 1,
                                        "name": "fallback",
                                        "value": 0
                                    },
                                    {
                                        "children": [],
                                        "depth": 1,
                                        "name": "setApprovalForAll",
                                        "value": 24664
                                    },
                                    {
                                        "children": [
                                            {
                                                "children": [],
                                                "depth": 2,
                                                "name": "shopIDs",
                                                "value": 2602
                                            },
                                            {
                                                "children": [],
                                                "depth": 2,
                                                "name": "burn",
                                                "value": 4912
                                            },
                                            {
                                                "children": [],
                                                "depth": 2,
                                                "name": "supportsInterface",
                                                "value": 2594
                                            },
                                            {
                                                "children": [],
                                                "depth": 2,
                                                "name": "supportsInterface",
                                                "value": 2594
                                            },
                                            {
                                                "children": [],
                                                "depth": 2,
                                                "name": "supportsInterface",
                                                "value": 2594
                                            },
                                            {
                                                "children": [],
                                                "depth": 2,
                                                "name": "transferFrom",
                                                "value": 102603
                                            }
                                        ],
                                        "depth": 1,
                                        "name": "redeem",
                                        "value": 139929
                                    },
                                    {
                                        "children": [],
                                        "depth": 1,
                                        "name": "safeTransferFrom",
                                        "value": 77797
                                    }
                                ],
                                "depth": 0,
                                "name": "Executed Gas",
                                "value": 497042
                            }
                        ],
                        "depth": -1,
                        "name": "Actual Gas Used",
                        "value": 414674
                    },
                    {
                        "children": [],
                        "depth": -1,
                        "name": "Refunded Gas",
                        "value": 103668
                    }
                ],
                "depth": -2,
                "name": "Total Gas",
                "value": 518342
            }
        ],
        "isConfirmed": true,
        "mainTrace": [
            {
                "children": [
                    {
                        "children": [
                            {
                                "children": [
                                    {
                                        "children": [],
                                        "depth": 2,
                                        "id": 2,
                                        "order": 2
                                    },
                                    {
                                        "children": [],
                                        "depth": 2,
                                        "id": 3,
                                        "order": 3
                                    },
                                    {
                                        "children": [],
                                        "depth": 2,
                                        "id": 4,
                                        "order": 4
                                    },
                                    {
                                        "children": [
                                            {
                                                "children": [],
                                                "depth": 3,
                                                "id": 6,
                                                "order": 6
                                            },
                                            {
                                                "children": [
                                                    {
                                                        "children": [],
                                                        "depth": 4,
                                                        "id": 8,
                                                        "order": 8
                                                    },
                                                    {
                                                        "children": [
                                                            {
                                                                "children": [],
                                                                "depth": 5,
                                                                "id": 10,
                                                                "order": 10
                                                            },
                                                            {
                                                                "children": [
                                                                    {
                                                                        "children": [],
                                                                        "depth": 6,
                                                                        "id": 12,
                                                                        "order": 12
                                                                    },
                                                                    {
                                                                        "children": [
                                                                            {
                                                                                "children": [],
                                                                                "depth": 7,
                                                                                "id": 14,
                                                                                "order": 14
                                                                            }
                                                                        ],
                                                                        "depth": 6,
                                                                        "id": 13,
                                                                        "order": 13
                                                                    },
                                                                    {
                                                                        "children": [],
                                                                        "depth": 6,
                                                                        "id": 15,
                                                                        "order": 15
                                                                    }
                                                                ],
                                                                "depth": 5,
                                                                "id": 11,
                                                                "order": 11
                                                            }
                                                        ],
                                                        "depth": 4,
                                                        "id": 9,
                                                        "order": 9
                                                    },
                                                    {
                                                        "children": [],
                                                        "depth": 4,
                                                        "id": 16,
                                                        "order": 16
                                                    }
                                                ],
                                                "depth": 3,
                                                "id": 7,
                                                "order": 7
                                            }
                                        ],
                                        "depth": 2,
                                        "id": 5,
                                        "order": 5
                                    },
                                    {
                                        "children": [],
                                        "depth": 2,
                                        "id": 17,
                                        "order": 17
                                    }
                                ],
                                "depth": 1,
                                "id": 1,
                                "order": 1
                            },
                            {
                                "children": [
                                    {
                                        "children": [
                                            {
                                                "children": [],
                                                "depth": 3,
                                                "id": 20,
                                                "order": 20
                                            }
                                        ],
                                        "depth": 2,
                                        "id": 19,
                                        "order": 19
                                    },
                                    {
                                        "children": [],
                                        "depth": 2,
                                        "id": 21,
                                        "order": 21
                                    }
                                ],
                                "depth": 1,
                                "id": 18,
                                "order": 18
                            },
                            {
                                "children": [],
                                "depth": 1,
                                "id": 22,
                                "order": 22
                            },
                            {
                                "children": [
                                    {
                                        "children": [],
                                        "depth": 2,
                                        "id": 24,
                                        "order": 24
                                    }
                                ],
                                "depth": 1,
                                "id": 23,
                                "order": 23
                            },
                            {
                                "children": [
                                    {
                                        "children": [
                                            {
                                                "children": [],
                                                "depth": 3,
                                                "id": 27,
                                                "order": 27
                                            }
                                        ],
                                        "depth": 2,
                                        "id": 26,
                                        "order": 26
                                    },
                                    {
                                        "children": [],
                                        "depth": 2,
                                        "id": 28,
                                        "order": 28
                                    },
                                    {
                                        "children": [],
                                        "depth": 2,
                                        "id": 29,
                                        "order": 29
                                    },
                                    {
                                        "children": [],
                                        "depth": 2,
                                        "id": 30,
                                        "order": 30
                                    },
                                    {
                                        "children": [],
                                        "depth": 2,
                                        "id": 31,
                                        "order": 31
                                    }
                                ],
                                "depth": 1,
                                "id": 25,
                                "order": 25
                            },
                            {
                                "children": [
                                    {
                                        "children": [],
                                        "depth": 2,
                                        "id": 33,
                                        "order": 33
                                    },
                                    {
                                        "children": [],
                                        "depth": 2,
                                        "id": 34,
                                        "order": 34
                                    }
                                ],
                                "depth": 1,
                                "id": 32,
                                "order": 32
                            },
                            {
                                "children": [],
                                "depth": 1,
                                "id": 35,
                                "order": 35
                            },
                            {
                                "children": [
                                    {
                                        "children": [],
                                        "depth": 2,
                                        "id": 37,
                                        "order": 37
                                    }
                                ],
                                "depth": 1,
                                "id": 36,
                                "order": 36
                            },
                            {
                                "children": [
                                    {
                                        "children": [],
                                        "depth": 2,
                                        "id": 39,
                                        "order": 39
                                    },
                                    {
                                        "children": [
                                            {
                                                "children": [],
                                                "depth": 3,
                                                "id": 41,
                                                "order": 41
                                            }
                                        ],
                                        "depth": 2,
                                        "id": 40,
                                        "order": 40
                                    },
                                    {
                                        "children": [],
                                        "depth": 2,
                                        "id": 42,
                                        "order": 42
                                    },
                                    {
                                        "children": [],
                                        "depth": 2,
                                        "id": 43,
                                        "order": 43
                                    },
                                    {
                                        "children": [],
                                        "depth": 2,
                                        "id": 44,
                                        "order": 44
                                    },
                                    {
                                        "children": [
                                            {
                                                "children": [],
                                                "depth": 3,
                                                "id": 46,
                                                "order": 46
                                            },
                                            {
                                                "children": [],
                                                "depth": 3,
                                                "id": 47,
                                                "order": 47
                                            }
                                        ],
                                        "depth": 2,
                                        "id": 45,
                                        "order": 45
                                    }
                                ],
                                "depth": 1,
                                "id": 38,
                                "order": 38
                            },
                            {
                                "children": [
                                    {
                                        "children": [],
                                        "depth": 2,
                                        "id": 49,
                                        "order": 49
                                    },
                                    {
                                        "children": [],
                                        "depth": 2,
                                        "id": 50,
                                        "order": 50
                                    }
                                ],
                                "depth": 1,
                                "id": 48,
                                "order": 48
                            }
                        ],
                        "depth": 0,
                        "id": 0,
                        "order": 0
                    }
                ],
                "depth": -1,
                "id": -1,
                "order": -1
            }
        ],
        "mainTraceNodeCount": 51,
        "parentIdMap": {
            "0": -1,
            "1": 0,
            "10": 9,
            "11": 9,
            "12": 11,
            "13": 11,
            "14": 13,
            "15": 11,
            "16": 7,
            "17": 1,
            "18": 0,
            "19": 18,
            "2": 1,
            "20": 19,
            "21": 18,
            "22": 0,
            "23": 0,
            "24": 23,
            "25": 0,
            "26": 25,
            "27": 26,
            "28": 25,
            "29": 25,
            "3": 1,
            "30": 25,
            "31": 25,
            "32": 0,
            "33": 32,
            "34": 32,
            "35": 0,
            "36": 0,
            "37": 36,
            "38": 0,
            "39": 38,
            "4": 1,
            "40": 38,
            "41": 40,
            "42": 38,
            "43": 38,
            "44": 38,
            "45": 38,
            "46": 45,
            "47": 45,
            "48": 0,
            "49": 48,
            "5": 1,
            "50": 48,
            "6": 5,
            "7": 5,
            "8": 7,
            "9": 7
        },
        "tidyTrace": [
            {
                "children": [
                    {
                        "children": [
                            {
                                "children": [
                                    {
                                        "children": [],
                                        "depth": 2,
                                        "id": 3,
                                        "order": 3
                                    },
                                    {
                                        "children": [],
                                        "depth": 2,
                                        "id": 4,
                                        "order": 4
                                    },
                                    {
                                        "children": [
                                            {
                                                "children": [
                                                    {
                                                        "children": [],
                                                        "depth": 4,
                                                        "id": 8,
                                                        "order": 8
                                                    },
                                                    {
                                                        "children": [
                                                            {
                                                                "children": [
                                                                    {
                                                                        "children": [],
                                                                        "depth": 6,
                                                                        "id": 12,
                                                                        "order": 12
                                                                    },
                                                                    {
                                                                        "children": [],
                                                                        "depth": 6,
                                                                        "id": 13,
                                                                        "order": 13
                                                                    },
                                                                    {
                                                                        "children": [],
                                                                        "depth": 6,
                                                                        "id": 15,
                                                                        "order": 15
                                                                    }
                                                                ],
                                                                "depth": 5,
                                                                "id": 11,
                                                                "order": 11
                                                            }
                                                        ],
                                                        "depth": 4,
                                                        "id": 9,
                                                        "order": 9
                                                    },
                                                    {
                                                        "children": [],
                                                        "depth": 4,
                                                        "id": 16,
                                                        "order": 16
                                                    }
                                                ],
                                                "depth": 3,
                                                "id": 7,
                                                "order": 7
                                            }
                                        ],
                                        "depth": 2,
                                        "id": 5,
                                        "order": 5
                                    },
                                    {
                                        "children": [],
                                        "depth": 2,
                                        "id": 17,
                                        "order": 17
                                    }
                                ],
                                "depth": 1,
                                "id": 1,
                                "order": 1
                            },
                            {
                                "children": [
                                    {
                                        "children": [
                                            {
                                                "children": [],
                                                "depth": 3,
                                                "id": 20,
                                                "order": 20
                                            }
                                        ],
                                        "depth": 2,
                                        "id": 19,
                                        "order": 19
                                    },
                                    {
                                        "children": [],
                                        "depth": 2,
                                        "id": 21,
                                        "order": 21
                                    }
                                ],
                                "depth": 1,
                                "id": 18,
                                "order": 18
                            },
                            {
                                "children": [
                                    {
                                        "children": [],
                                        "depth": 2,
                                        "id": 24,
                                        "order": 24
                                    }
                                ],
                                "depth": 1,
                                "id": 23,
                                "order": 23
                            },
                            {
                                "children": [
                                    {
                                        "children": [
                                            {
                                                "children": [],
                                                "depth": 3,
                                                "id": 27,
                                                "order": 27
                                            }
                                        ],
                                        "depth": 2,
                                        "id": 26,
                                        "order": 26
                                    },
                                    {
                                        "children": [],
                                        "depth": 2,
                                        "id": 30,
                                        "order": 30
                                    },
                                    {
                                        "children": [],
                                        "depth": 2,
                                        "id": 31,
                                        "order": 31
                                    }
                                ],
                                "depth": 1,
                                "id": 25,
                                "order": 25
                            },
                            {
                                "children": [
                                    {
                                        "children": [],
                                        "depth": 2,
                                        "id": 33,
                                        "order": 33
                                    },
                                    {
                                        "children": [],
                                        "depth": 2,
                                        "id": 34,
                                        "order": 34
                                    }
                                ],
                                "depth": 1,
                                "id": 32,
                                "order": 32
                            },
                            {
                                "children": [],
                                "depth": 1,
                                "id": 35,
                                "order": 35
                            },
                            {
                                "children": [
                                    {
                                        "children": [],
                                        "depth": 2,
                                        "id": 37,
                                        "order": 37
                                    }
                                ],
                                "depth": 1,
                                "id": 36,
                                "order": 36
                            },
                            {
                                "children": [
                                    {
                                        "children": [
                                            {
                                                "children": [],
                                                "depth": 3,
                                                "id": 41,
                                                "order": 41
                                            }
                                        ],
                                        "depth": 2,
                                        "id": 40,
                                        "order": 40
                                    },
                                    {
                                        "children": [
                                            {
                                                "children": [],
                                                "depth": 3,
                                                "id": 46,
                                                "order": 46
                                            },
                                            {
                                                "children": [],
                                                "depth": 3,
                                                "id": 47,
                                                "order": 47
                                            }
                                        ],
                                        "depth": 2,
                                        "id": 45,
                                        "order": 45
                                    }
                                ],
                                "depth": 1,
                                "id": 38,
                                "order": 38
                            },
                            {
                                "children": [
                                    {
                                        "children": [],
                                        "depth": 2,
                                        "id": 49,
                                        "order": 49
                                    },
                                    {
                                        "children": [],
                                        "depth": 2,
                                        "id": 50,
                                        "order": 50
                                    }
                                ],
                                "depth": 1,
                                "id": 48,
                                "order": 48
                            }
                        ],
                        "depth": 0,
                        "id": 0,
                        "order": 0
                    }
                ],
                "depth": -1,
                "id": -1,
                "order": -1
            }
        ],
        "tidyTraceNodeCount": 40
    },
    "state_change": {
        "stateChanges": [
            {
                "address": "0x7afe30cb3e53dba6801aa0ea647a0ecea7cbe18d",
                "erc": "ERC-721",
                "slots": [
                    {
                        "current": "0x0000000000000000000000000000000000000000000000000000000000000000",
                        "key": "0x85103cd2e94f564dae0f79a0ad9173f7591016f2da65160ae2122ec512c62083",
                        "prev": "0x0000000000000000000000000000000000000000000000000000000000000001"
                    },
                    {
                        "current": "0x0000000000000000000000000000000000000000000000000000000000000001",
                        "key": "0x3365543c224fea394029ce75206e50f7436e23631419ec4ca80669c43dbbf188",
                        "prev": "0x0000000000000000000000000000000000000000000000000000000000000000"
                    },
                    {
                        "current": "0x0000000000000000000000000000000000000000000000000000000000001251",
                        "key": "0x988e153589d868eab57aa959597251ff62f9c4424d58d8b3b79c778556621353",
                        "prev": "0x0000000000000000000000000000000000000000000000000000000000000000"
                    },
                    {
                        "current": "0x0000000000000000000000000000000000000000000000000000000000000001",
                        "key": "0x76f23a551390043b348ea48453a44a36cbe8838bf0f745c1ed1038b419ade577",
                        "prev": "0x0000000000000000000000000000000000000000000000000000000000000000"
                    },
                    {
                        "current": "0x0000000000000000000000000000000000000000000000000000000000000000",
                        "key": "0x8159d7d19111120e3c029ea1e3407c9cdc36f82010752d0080414790f74956c1",
                        "prev": "0x0000000000000000000000000000000000000000000000000000000000001251"
                    },
                    {
                        "current": "0x0000000000000000000000000000000000000000000000000000000000000000",
                        "key": "0x5381d409d5c7c3674b86c2cab6f07690a943f9acd0540dc8f05d75d0cdb70543",
                        "prev": "0x0000000000000000000000000000000000000000000000000000000000000001"
                    },
                    {
                        "current": "0x00000000000000000000000092cfcb70b2591ceb1e3c6d90e21e8154e7d29832",
                        "key": "0x405787fa12a823e0f2b7631cc41b3ba8828b3321ca811111fa75cd3aa3bb68ef",
                        "prev": "0x000000000000000000000000cdcc535503cba9286489b338b36156b4b75008f6"
                    }
                ],
                "storageVariables": [
                    {
                        "name": "_tokenOwners",
                        "type": "struct EnumerableMap.UintToAddressMap",
                        "value": {
                            "fields": [
                                {
                                    "name": "_inner",
                                    "type": "struct EnumerableMap.Map",
                                    "value": {
                                        "fields": [
                                            {
                                                "name": "_entries",
                                                "type": "struct EnumerableMap.MapEntry[]",
                                                "value": {
                                                    "elemType": "struct EnumerableMap.MapEntry",
                                                    "elems": [
                                                        {
                                                            "index": 1808,
                                                            "value": {
                                                                "fields": [
                                                                    {
                                                                        "name": "_value",
                                                                        "type": "bytes32",
                                                                        "value": {
                                                                            "current": "0x00000000000000000000000092cfcb70b2591ceb1e3c6d90e21e8154e7d29832",
                                                                            "prev": "0x000000000000000000000000cdcc535503cba9286489b338b36156b4b75008f6",
                                                                            "typeTag": 1
                                                                        }
                                                                    }
                                                                ],
                                                                "typeTag": 3
                                                            }
                                                        }
                                                    ],
                                                    "typeTag": 2
                                                }
                                            }
                                        ],
                                        "typeTag": 3
                                    }
                                }
                            ],
                            "typeTag": 3
                        }
                    },
                    {
                        "name": "_holderTokens",
                        "type": "mapping(address => struct EnumerableSet.UintSet)",
                        "value": {
                            "pairs": [
                                {
                                    "key": "0x92cfcb70b2591ceb1e3c6d90e21e8154e7d29832",
                                    "value": {
                                        "fields": [
                                            {
                                                "name": "_inner",
                                                "type": "struct EnumerableSet.Set",
                                                "value": {
                                                    "fields": [
                                                        {
                                                            "name": "_values",
                                                            "type": "bytes32[]",
                                                            "value": {
                                                                "elemType": "bytes32",
                                                                "elems": [
                                                                    {
                                                                        "index": 0,
                                                                        "value": {
                                                                            "current": "0x0000000000000000000000000000000000000000000000000000000000001251",
                                                                            "prev": "0x0000000000000000000000000000000000000000000000000000000000000000",
                                                                            "typeTag": 1
                                                                        }
                                                                    }
                                                                ],
                                                                "typeTag": 2
                                                            }
                                                        },
                                                        {
                                                            "name": "_indexes",
                                                            "type": "mapping(bytes32 => uint256)",
                                                            "value": {
                                                                "pairs": [
                                                                    {
                                                                        "key": "0x0000000000000000000000000000000000000000000000000000000000001251",
                                                                        "value": {
                                                                            "current": "1",
                                                                            "prev": "0",
                                                                            "typeTag": 1
                                                                        }
                                                                    }
                                                                ],
                                                                "typeTag": 4
                                                            }
                                                        }
                                                    ],
                                                    "typeTag": 3
                                                }
                                            }
                                        ],
                                        "typeTag": 3
                                    }
                                },
                                {
                                    "key": "0xcdcc535503cba9286489b338b36156b4b75008f6",
                                    "value": {
                                        "fields": [
                                            {
                                                "name": "_inner",
                                                "type": "struct EnumerableSet.Set",
                                                "value": {
                                                    "fields": [
                                                        {
                                                            "name": "_indexes",
                                                            "type": "mapping(bytes32 => uint256)",
                                                            "value": {
                                                                "pairs": [
                                                                    {
                                                                        "key": "0x0000000000000000000000000000000000000000000000000000000000001251",
                                                                        "value": {
                                                                            "current": "0",
                                                                            "prev": "1",
                                                                            "typeTag": 1
                                                                        }
                                                                    }
                                                                ],
                                                                "typeTag": 4
                                                            }
                                                        }
                                                    ],
                                                    "typeTag": 3
                                                }
                                            }
                                        ],
                                        "typeTag": 3
                                    }
                                }
                            ],
                            "typeTag": 4
                        }
                    }
                ]
            },
            {
                "address": "0xa499648fd0e80fd911972bbeb069e4c20e68bf22",
                "erc": "ERC-20",
                "slots": [
                    {
                        "current": "0x00000000000000000000000000000000000000000000021e19e0c9bab2400000",
                        "key": "0x3969f4fbe87441af4161659476c0b5d8f600d6afa5dcf1a86d5df3ddd7f45ab2",
                        "prev": "0x0000000000000000000000000000000000000000000002dd5aa7c37022080a6f"
                    },
                    {
                        "current": "0x000000000000000000000000000000000000000000016744ea1213fed94df3b3",
                        "key": "0x906f45f73eac08696244b37e5bf5d479cd4d54e5d89241a3dd9ffe6d92395c5d",
                        "prev": "0x000000000000000000000000000000000000000000016685a94b1a496985e944"
                    }
                ],
                "storageVariables": [
                    {
                        "name": "_balances",
                        "type": "mapping(address => uint256)",
                        "value": {
                            "pairs": [
                                {
                                    "key": "0xd3c41c85be295607e8ea5c58487ec5894300ee67",
                                    "value": {
                                        "current": "10000000000000000000000",
                                        "prev": "13527995810700000234095",
                                        "typeTag": 1
                                    }
                                },
                                {
                                    "key": "0xec5100ad159f660986e47afa0cda1081101b471d",
                                    "value": {
                                        "current": "1696600812512754625541043",
                                        "prev": "1693072816702054625306948",
                                        "typeTag": 1
                                    }
                                }
                            ],
                            "typeTag": 4
                        }
                    }
                ]
            },
            {
                "address": "0xc02aaa39b223fe8d0a0e5c4f27ead9083c756cc2",
                "erc": "ERC-20",
                "slots": [
                    {
                        "current": "0x00000000000000000000000000000000000000000000000cf71be514adcf3def",
                        "key": "0xd9c7e274d6c467a9002e59fd9fa41e99e2e28d3c9cd0500bf4bd2b4d441a0bef",
                        "prev": "0x00000000000000000000000000000000000000000000000cfe0128088d1a97de"
                    }
                ],
                "storageVariables": [
                    {
                        "name": "balanceOf",
                        "type": "mapping(address => uint256)",
                        "value": {
                            "pairs": [
                                {
                                    "key": "0xec5100ad159f660986e47afa0cda1081101b471d",
                                    "value": {
                                        "current": "239167006313232154095",
                                        "prev": "239663883262317205470",
                                        "typeTag": 1
                                    }
                                }
                            ],
                            "typeTag": 4
                        }
                    }
                ]
            },
            {
                "address": "0xcdcc535503cba9286489b338b36156b4b75008f6",
                "erc": "",
                "slots": [
                    {
                        "current": "0x0000000000000000000000000000000000000000000000000000000000000000",
                        "key": "0xc3e742d410d48da7c428edbe9a2d1e8424a0bcd568841060a9bd29cca19011b9",
                        "prev": "0x0000000000000000000000000000000000000000000000000000000000000001"
                    }
                ],
                "storageVariables": [
                    {
                        "name": "nfts",
                        "type": "mapping(address => mapping(uint256 => struct PointShop.NFT))",
                        "value": {
                            "pairs": [
                                {
                                    "key": "0xa499648fd0e80fd911972bbeb069e4c20e68bf22",
                                    "value": {
                                        "pairs": [
                                            {
                                                "key": "0",
                                                "value": {
                                                    "fields": [
                                                        {
                                                            "name": "amount",
                                                            "type": "uint256",
                                                            "value": {
                                                                "current": "0",
                                                                "prev": "1",
                                                                "typeTag": 1
                                                            }
                                                        }
                                                    ],
                                                    "typeTag": 3
                                                }
                                            }
                                        ],
                                        "typeTag": 4
                                    }
                                }
                            ],
                            "typeTag": 4
                        }
                    }
                ]
            },
            {
                "address": "0xd3c41c85be295607e8ea5c58487ec5894300ee67",
                "erc": "ERC-1155",
                "slots": [
                    {
                        "current": "0x0000000000000000000000000000000000000000000000000000000000000000",
                        "key": "0x1548eeaf1ce5fe0831539eecbd38a05271c54b9605dc68d67d2afe39f66c9bd5",
                        "prev": "0x0000000000000000000000000000000000000000000000bf40c6f9b56fc80a6f"
                    },
                    {
                        "current": "0x0000000000000000000000000000000000000000000000000000000000000001",
                        "key": "0x70be876143636e89d23ac5c5c99b82f39667641c5ff86b320c3caee78935f318",
                        "prev": "0x0000000000000000000000000000000000000000000000000000000000000000"
                    },
                    {
                        "current": "0x00000000000000000000000000000000000000000000000000000000000001ca",
                        "key": "0x6e1540171b6c0c960b71a7020d9f60077f6af931a8bbf590da0223dacf75c7b1",
                        "prev": "0x00000000000000000000000000000000000000000000000000000000000001c9"
                    },
                    {
                        "current": "0x000000000000000000000000000000000000000000000000000000000114f01a",
                        "key": "0x6e1540171b6c0c960b71a7020d9f60077f6af931a8bbf590da0223dacf75c7b0",
                        "prev": "0x000000000000000000000000000000000000000000000000000000000114b0b4"
                    },
                    {
                        "current": "0x0000000000000000000000000000000000000000000000000000000000000248",
                        "key": "0x913c8a854c7cdd864278a64ef8f8d7f44153bab7556438f8ac9ba6bc43ec58df",
                        "prev": "0x0000000000000000000000000000000000000000000000000000000000000000"
                    },
                    {
                        "current": "0x0000000000000000000000000000000000000000000000000000000000000000",
                        "key": "0x1548eeaf1ce5fe0831539eecbd38a05271c54b9605dc68d67d2afe39f66c9bd6",
                        "prev": "0x0000000000000000000000000000000000000000000000000000000000189a06"
                    }
                ],
                "storageVariables": [
                    {
                        "name": "_balances",
                        "type": "mapping(uint256 => mapping(address => uint256))",
                        "value": {
                            "pairs": [
                                {
                                    "key": "0",
                                    "value": {
                                        "pairs": [
                                            {
                                                "key": "0x9d9820f10772ffcef842770b6581c07a97fed9e4",
                                                "value": {
                                                    "current": "584",
                                                    "prev": "0",
                                                    "typeTag": 1
                                                }
                                            }
                                        ],
                                        "typeTag": 4
                                    }
                                }
                            ],
                            "typeTag": 4
                        }
                    },
                    {
                        "name": "userInfo",
                        "type": "mapping(uint256 => mapping(address => struct PointFarm.UserInfo))",
                        "value": {
                            "pairs": [
                                {
                                    "key": "0",
                                    "value": {
                                        "pairs": [
                                            {
                                                "key": "0x9d9820f10772ffcef842770b6581c07a97fed9e4",
                                                "value": {
                                                    "fields": [
                                                        {
                                                            "name": "amount",
                                                            "type": "uint256",
                                                            "value": {
                                                                "current": "0",
                                                                "prev": "3527995810700000234095",
                                                                "typeTag": 1
                                                            }
                                                        },
                                                        {
                                                            "name": "rewardDebt",
                                                            "type": "uint256",
                                                            "value": {
                                                                "current": "0",
                                                                "prev": "1612294",
                                                                "typeTag": 1
                                                            }
                                                        }
                                                    ],
                                                    "typeTag": 3
                                                }
                                            }
                                        ],
                                        "typeTag": 4
                                    }
                                }
                            ],
                            "typeTag": 4
                        }
                    },
                    {
                        "name": "_operatorApprovals",
                        "type": "mapping(address => mapping(address => bool))",
                        "value": {
                            "pairs": [
                                {
                                    "key": "0x9d9820f10772ffcef842770b6581c07a97fed9e4",
                                    "value": {
                                        "pairs": [
                                            {
                                                "key": "0xcdcc535503cba9286489b338b36156b4b75008f6",
                                                "value": {
                                                    "current": "true",
                                                    "prev": "false",
                                                    "typeTag": 1
                                                }
                                            }
                                        ],
                                        "typeTag": 4
                                    }
                                }
                            ],
                            "typeTag": 4
                        }
                    },
                    {
                        "name": "poolInfo",
                        "type": "struct PointFarm.PoolInfo[]",
                        "value": {
                            "elemType": "struct PointFarm.PoolInfo",
                            "elems": [
                                {
                                    "index": 0,
                                    "value": {
                                        "fields": [
                                            {
                                                "name": "lastRewardBlock",
                                                "type": "uint256",
                                                "value": {
                                                    "current": "18149402",
                                                    "prev": "18133172",
                                                    "typeTag": 1
                                                }
                                            },
                                            {
                                                "name": "accPointsPerShare",
                                                "type": "uint256",
                                                "value": {
                                                    "current": "458",
                                                    "prev": "457",
                                                    "typeTag": 1
                                                }
                                            }
                                        ],
                                        "typeTag": 3
                                    }
                                }
                            ],
                            "typeTag": 2
                        }
                    }
                ]
            },
            {
                "address": "0xec5100ad159f660986e47afa0cda1081101b471d",
                "erc": "ERC-20",
                "slots": [
                    {
                        "current": "0x6505c0bb00000000000cf71be514adcf3def000000016744ea1213fed94df3b3",
                        "key": "0x0000000000000000000000000000000000000000000000000000000000000008",
                        "prev": "0x65044dab00000000000cfe0128088d1a97de000000016685a94b1a496985e944"
                    },
                    {
                        "current": "0x000000000000000000000000000000004dd8631b8aec9d8efa760d2f726865e4",
                        "key": "0x0000000000000000000000000000000000000000000000000000000000000009",
                        "prev": "0x000000000000000000000000000000004dcaf0c41ec5eb2f90742e82101aa814"
                    },
                    {
                        "current": "0x00000000000000000000000000630d94701b0b6e14bcb231037d196c9d86f437",
                        "key": "0x000000000000000000000000000000000000000000000000000000000000000a",
                        "prev": "0x0000000000000000000000000062e594e7ae8bf7ab72e7040f5cc684920a3087"
                    }
                ],
                "storageVariables": [
                    {
                        "name": "price0CumulativeLast",
                        "type": "uint256",
                        "value": {
                            "current": "103474101937588176279662584676735280612",
                            "prev": "103404282957411105905902095190057461780",
                            "typeTag": 1
                        }
                    },
                    {
                        "name": "price1CumulativeLast",
                        "type": "uint256",
                        "value": {
                            "current": "2208956745175908244223389383666380653730395191",
                            "prev": "2205472412682644020297690261209142410089214087",
                            "typeTag": 1
                        }
                    },
                    {
                        "name": "reserve0",
                        "type": "uint112",
                        "value": {
                            "current": "1696600812512754625541043",
                            "prev": "1693072816702054625306948",
                            "typeTag": 1
                        }
                    },
                    {
                        "name": "reserve1",
                        "type": "uint112",
                        "value": {
                            "current": "239167006313232154095",
                            "prev": "239663883262317205470",
                            "typeTag": 1
                        }
                    },
                    {
                        "name": "blockTimestampLast",
                        "type": "uint32",
                        "value": {
                            "current": "1694875835",
                            "prev": "1694780843",
                            "typeTag": 1
                        }
                    }
                ]
            }
        ]
    }
}