{
    "balance_change": {
        "balanceChanges": [
            {
                "account": "0xee0221d76504aec40f63ad7e36855eebf5ea5edd",
                "assets": [
                    {
                        "address": "0x8b7218cf6ac641382d7c723de8aa173e98a80196",
                        "amount": "930,000",
                        "iconUrl": "",
                        "isERC1155": false,
                        "isERC721": false,
                        "sign": true,
                        "value": "104464.7222"
                    }
                ]
            },
            {
                "account": "0x3ecffccc4c35ccd71a7c61446c90117fb7995fb1",
                "assets": [
                    {
                        "address": "0x8b7218cf6ac641382d7c723de8aa173e98a80196",
                        "amount": "35,000",
                        "iconUrl": "",
                        "isERC1155": false,
                        "isERC721": false,
                        "sign": true,
                        "value": "1072.792285"
                    }
                ]
            },
            {
                "account": "0x7fdc0d8857c6d90fd79e22511baf059c0c71bf8b",
                "assets": [
                    {
                        "address": "0x8b7218cf6ac641382d7c723de8aa173e98a80196",
                        "amount": "986,000",
                        "iconUrl": "",
                        "isERC1155": false,
                        "isERC721": false,
                        "sign": false,
                        "value": "44674.33114"
                    }
                ]
            },
            {
                "account": "0xa9056272ca777a63ae3a275d7aab078fd90a1691",
                "assets": [
                    {
                        "address": "0x8b7218cf6ac641382d7c723de8aa173e98a80196",
                        "amount": "21,000",
                        "iconUrl": "",
                        "isERC1155": false,
                        "isERC721": false,
                        "sign": true,
                        "value": "654.885901"
                    }
                ]
            }
        ]
    },
    "profile": {
        "basic_info": {
            "baseFee": "",
            "blockNumber": 16841995,
            "callData": "0x30e0789e0000000000000000000000007fdc0d8857c6d90fd79e22511baf059c0c71bf8b000000000000000000000000ee0221d76504aec40f63ad7e36855eebf5ea5edd00000000000000000000000000000000000000000000d3c21bcecceda1000000",
            "debugEnable": true,
            "errorInfo": "",
            "eventCount": 4,
            "feeRecipient": "0xe2d3a739effcd3a99387d015e260eefac72ebea1",
            "formatValue": "0",
            "gasLimit": 112090,
            "gasPrice": "112.711470411",
            "gasUsed": 93409,
            "intTxnCount": 0,
            "internalRevert": false,
            "internalRevertMessage": "",
            "isContractCreation": false,
            "isFlashloan": false,
            "maxFee": "",
            "nonce": 222,
            "overwritedBlockNumber": -1,
            "priorityFee": "",
            "receiver": "0x8b7218cf6ac641382d7c723de8aa173e98a80196",
            "revertMessage": "",
            "sender": "0xee0221d76504aec40f63ad7e36855eebf5ea5edd",
            "simulationEnable": true,
            "sourceTxnHash": "0xc7647406542f8f2473a06fea142d223022370aa5722c044c2b7ea030b8965dd0",
            "status": true,
            "timestamp": "2022-04-11T03:40:31Z",
            "transactionFee": "0.010528265739621099",
            "txnHash": "0xc7647406542f8f2473a06fea142d223022370aa5722c044c2b7ea030b8965dd0",
            "txnIndex": 0,
            "type": 0,
            "value": "0"
        },
        "fund_flow": [
            {
                "amount": "14,000",
                "from": "0x7fdc0d8857c6d90fd79e22511baf059c0c71bf8b",
                "id": 1,
                "isERC1155": false,
                "isERC721": false,
                "isReverted": false,
                "order": 1,
                "to": "0x7fdc0d8857c6d90fd79e22511baf059c0c71bf8b",
                "token": "0x8b7218cf6ac641382d7c723de8aa173e98a80196"
            },
            {
                "amount": "21,000",
                "from": "0x7fdc0d8857c6d90fd79e22511baf059c0c71bf8b",
                "id": 2,
                "isERC1155": false,
                "isERC721": false,
                "isReverted": false,
                "order": 2,
                "to": "0xa9056272ca777a63ae3a275d7aab078fd90a1691",
                "token": "0x8b7218cf6ac641382d7c723de8aa173e98a80196"
            },
            {
                "amount": "35,000",
                "from": "0x7fdc0d8857c6d90fd79e22511baf059c0c71bf8b",
                "id": 3,
                "isERC1155": false,
                "isERC721": false,
                "isReverted": false,
                "order": 3,
                "to": "0x3ecffccc4c35ccd71a7c61446c90117fb7995fb1",
                "token": "0x8b7218cf6ac641382d7c723de8aa173e98a80196"
            },
            {
                "amount": "930,000",
                "from": "0x7fdc0d8857c6d90fd79e22511baf059c0c71bf8b",
                "id": 4,
                "isERC1155": false,
                "isERC721": false,
                "isReverted": false,
                "order": 4,
                "to": "0xee0221d76504aec40f63ad7e36855eebf5ea5edd",
                "token": "0x8b7218cf6ac641382d7c723de8aa173e98a80196"
            }
        ],
        "token_infos": [
            {
                "address": "0x8b7218cf6ac641382d7c723de8aa173e98a80196",
                "decimals": 18
            },
            {
                "address": "0xbb4cdb9cbd36b01bd1cbaebf2de08d9173bc095c",
                "decimals": 18
            },
            {
                "address": "0xeeeeeeeeeeeeeeeeeeeeeeeeeeeeeeeeeeeeeeee",
                "decimals": 18
            }
        ]
    },
    "address_label": {
        "labels": [
            {
                "address": "0x0000000000000000000000000000000000000001",
                "label": "Precompiled"
            },
            {
                "address": "0x0000000000000000000000000000000000000002",
                "label": "Precompiled"
            },
            {
                "address": "0x0000000000000000000000000000000000000003",
                "label": "Precompiled"
            },
            {
                "address": "0x0000000000000000000000000000000000000004",
                "label": "Precompiled"
            },
            {
                "address": "0xeeeeeeeeeeeeeeeeeeeeeeeeeeeeeeeeeeeeeeee",
                "label": "BNB"
            },
            {
                "address": "0x7fdc0d8857c6d90fd79e22511baf059c0c71bf8b",
                "label": "PancakeSwap V2: BSC-USD-CF 7"
            },
            {
                "address": "0x8b7218cf6ac641382d7c723de8aa173e98a80196",
                "label": "Creat future (CF)"
            }
        ]
    },
    "trace": {
        "accountLabels": null,
        "dataMap": {
            "-1": {
                "invocation": {
                    "address": "0xee0221d76504aec40f63ad7e36855eebf5ea5edd",
                    "callData": "",
                    "decodedMethod": null,
                    "errorInfo": "",
                    "fromAddress": "",
                    "gasUsed": 0,
                    "id": -1,
                    "methodDecoded": false,
                    "operation": "",
                    "output": "",
                    "revert": false,
                    "revertMessage": "",
                    "selector": "",
                    "status": false,
                    "value": ""
                },
                "nodeType": 0
            },
            "0": {
                "invocation": {
                    "address": "0x8b7218cf6ac641382d7c723de8aa173e98a80196",
                    "callData": "0x0000000000000000000000007fdc0d8857c6d90fd79e22511baf059c0c71bf8b000000000000000000000000ee0221d76504aec40f63ad7e36855eebf5ea5edd00000000000000000000000000000000000000000000d3c21bcecceda1000000",
                    "decodedMethod": {
                        "callParams": [
                            {
                                "name": "from",
                                "type": "address",
                                "value": "0x7fdc0d8857c6d90fd79e22511baf059c0c71bf8b"
                            },
                            {
                                "name": "to",
                                "type": "address",
                                "value": "0xee0221d76504aec40f63ad7e36855eebf5ea5edd"
                            },
                            {
                                "name": "amount",
                                "type": "uint256",
                                "value": "1,000,000,000,000,000,000,000,000"
                            }
                        ],
                        "constructorArguments": "",
                        "name": "_transfer",
                        "returnParams": [],
                        "signature": "_transfer(address,address,uint256)"
                    },
                    "errorInfo": "",
                    "fromAddress": "0xee0221d76504aec40f63ad7e36855eebf5ea5edd",
                    "gasUsed": 93409,
                    "id": 0,
                    "methodDecoded": true,
                    "operation": "CALL",
                    "output": "",
                    "revert": false,
                    "revertMessage": "",
                    "selector": "0x30e0789e",
                    "status": true,
                    "value": "0"
                },
                "nodeType": 0
            },
            "1": {
                "event": {
                    "contract": "0x8b7218cf6ac641382d7c723de8aa173e98a80196",
                    "decodedLog": {
                        "name": "Transfer",
                        "params": [
                            {
                                "name": "from",
                                "type": "address",
                                "value": "0x7fdc0d8857c6d90fd79e22511baf059c0c71bf8b"
                            },
                            {
                                "name": "to",
                                "type": "address",
                                "value": "0x7fdc0d8857c6d90fd79e22511baf059c0c71bf8b"
                            },
                            {
                                "decimalAvailable": true,
                                "name": "value",
                                "type": "uint256",
                                "value": "14,000,000,000,000,000,000,000"
                            }
                        ],
                        "signature": "Transfer(address,address,uint256)"
                    },
                    "id": 1,
                    "logData": "0x0000000000000000000000000000000000000000000002f6f10780d22cc00000",
                    "logDecoded": true,
                    "operation": "EVENT",
                    "revert": false,
                    "status": true,
                    "topics": [
                        "0xddf252ad1be2c89b69c2b068fc378daa952ba7f163c4a11628f55a4df523b3ef",
                        "0x0000000000000000000000007fdc0d8857c6d90fd79e22511baf059c0c71bf8b",
                        "0x0000000000000000000000007fdc0d8857c6d90fd79e22511baf059c0c71bf8b"
                    ]
                },
                "nodeType": 1
            },
            "2": {
                "event": {
                    "contract": "0x8b7218cf6ac641382d7c723de8aa173e98a80196",
                    "decodedLog": {
                        "name": "Transfer",
                        "params": [
                            {
                                "name": "from",
                                "type": "address",
                                "value": "0x7fdc0d8857c6d90fd79e22511baf059c0c71bf8b"
                            },
                            {
                                "name": "to",
                                "type": "address",
                                "value": "0xa9056272ca777a63ae3a275d7aab078fd90a1691"
                            },
                            {
                                "decimalAvailable": true,
                                "name": "value",
                                "type": "uint256",
                                "value": "21,000,000,000,000,000,000,000"
                            }
                        ],
                        "signature": "Transfer(address,address,uint256)"
                    },
                    "id": 2,
                    "logData": "0x000000000000000000000000000000000000000000000472698b413b43200000",
                    "logDecoded": true,
                    "operation": "EVENT",
                    "revert": false,
                    "status": true,
                    "topics": [
                        "0xddf252ad1be2c89b69c2b068fc378daa952ba7f163c4a11628f55a4df523b3ef",
                        "0x0000000000000000000000007fdc0d8857c6d90fd79e22511baf059c0c71bf8b",
                        "0x000000000000000000000000a9056272ca777a63ae3a275d7aab078fd90a1691"
                    ]
                },
                "nodeType": 1
            },
            "3": {
                "event": {
                    "contract": "0x8b7218cf6ac641382d7c723de8aa173e98a80196",
                    "decodedLog": {
                        "name": "Transfer",
                        "params": [
                            {
                                "name": "from",
                                "type": "address",
                                "value": "0x7fdc0d8857c6d90fd79e22511baf059c0c71bf8b"
                            },
                            {
                                "name": "to",
                                "type": "address",
                                "value": "0x3ecffccc4c35ccd71a7c61446c90117fb7995fb1"
                            },
                            {
                                "decimalAvailable": true,
                                "name": "value",
                                "type": "uint256",
                                "value": "35,000,000,000,000,000,000,000"
                            }
                        ],
                        "signature": "Transfer(address,address,uint256)"
                    },
                    "id": 3,
                    "logData": "0x0000000000000000000000000000000000000000000007695a92c20d6fe00000",
                    "logDecoded": true,
                    "operation": "EVENT",
                    "revert": false,
                    "status": true,
                    "topics": [
                        "0xddf252ad1be2c89b69c2b068fc378daa952ba7f163c4a11628f55a4df523b3ef",
                        "0x0000000000000000000000007fdc0d8857c6d90fd79e22511baf059c0c71bf8b",
                        "0x0000000000000000000000003ecffccc4c35ccd71a7c61446c90117fb7995fb1"
                    ]
                },
                "nodeType": 1
            },
            "4": {
                "event": {
                    "contract": "0x8b7218cf6ac641382d7c723de8aa173e98a80196",
                    "decodedLog": {
                        "name": "Transfer",
                        "params": [
                            {
                                "name": "from",
                                "type": "address",
                                "value": "0x7fdc0d8857c6d90fd79e22511baf059c0c71bf8b"
                            },
                            {
                                "name": "to",
                                "type": "address",
                                "value": "0xee0221d76504aec40f63ad7e36855eebf5ea5edd"
                            },
                            {
                                "decimalAvailable": true,
                                "name": "value",
                                "type": "uint256",
                                "value": "930,000,000,000,000,000,000,000"
                            }
                        ],
                        "signature": "Transfer(address,address,uint256)"
                    },
                    "id": 4,
                    "logData": "0x00000000000000000000000000000000000000000000c4ef66a948d2c1400000",
                    "logDecoded": true,
                    "operation": "EVENT",
                    "revert": false,
                    "status": true,
                    "topics": [
                        "0xddf252ad1be2c89b69c2b068fc378daa952ba7f163c4a11628f55a4df523b3ef",
                        "0x0000000000000000000000007fdc0d8857c6d90fd79e22511baf059c0c71bf8b",
                        "0x000000000000000000000000ee0221d76504aec40f63ad7e36855eebf5ea5edd"
                    ]
                },
                "nodeType": 1
            }
        },
        "gasFlame": [
            {
                "children": [
                    {
                        "children": [
                            {
                                "children": [],
                                "depth": 0,
                                "name": "Initial Gas",
                                "value": 22012
                            },
                            {
                                "children": [],
                                "depth": 0,
                                "name": "Executed Gas",
                                "value": 71397
                            }
                        ],
                        "depth": -1,
                        "name": "Actual Gas Used",
                        "value": 93409
                    },
                    {
                        "children": [],
                        "depth": -1,
                        "name": "Refunded Gas",
                        "value": 0
                    }
                ],
                "depth": -2,
                "name": "Total Gas",
                "value": 93409
            }
        ],
        "isConfirmed": true,
        "mainTrace": [
            {
                "children": [
                    {
                        "children": [
                            {
                                "children": [],
                                "depth": 1,
                                "id": 1,
                                "order": 1
                            },
                            {
                                "children": [],
                                "depth": 1,
                                "id": 2,
                                "order": 2
                            },
                            {
                                "children": [],
                                "depth": 1,
                                "id": 3,
                                "order": 3
                            },
                            {
                                "children": [],
                                "depth": 1,
                                "id": 4,
                                "order": 4
                            }
                        ],
                        "depth": 0,
                        "id": 0,
                        "order": 0
                    }
                ],
                "depth": -1,
                "id": -1,
                "order": -1
            }
        ],
        "mainTraceNodeCount": 5,
        "parentIdMap": {
            "0": -1,
            "1": 0,
            "2": 0,
            "3": 0,
            "4": 0
        },
        "tidyTrace": [
            {
                "children": [
                    {
                        "children": [
                            {
                                "children": [],
                                "depth": 1,
                                "id": 1,
                                "order": 1
                            },
                            {
                                "children": [],
                                "depth": 1,
                                "id": 2,
                                "order": 2
                            },
                            {
                                "children": [],
                                "depth": 1,
                                "id": 3,
                                "order": 3
                            },
                            {
                                "children": [],
                                "depth": 1,
                                "id": 4,
                                "order": 4
                            }
                        ],
                        "depth": 0,
                        "id": 0,
                        "order": 0
                    }
                ],
                "depth": -1,
                "id": -1,
                "order": -1
            }
        ],
        "tidyTraceNodeCount": 5
    },
    "state_change": {
        "stateChanges": [
            {
                "address": "0x8b7218cf6ac641382d7c723de8aa173e98a80196",
                "erc": "ERC-20",
                "slots": [
                    {
                        "current": "0x000000000000000000000000000000000000000000002d703112af2d5735ddf8",
                        "key": "0x782e14c0212f4b823860af386cde7a7c30579669a71033155551295aa14e8753",
                        "prev": "0x0000000000000000000000000000000000000000000028fdc7876df21415ddf8"
                    },
                    {
                        "current": "0x0000000000000000000000000000000000000000000007d1d1540068fec4f2bf",
                        "key": "0x30447d221f790f8511fa27cc8abe8501a57209ce9361c4927bdd4c4d209b9535",
                        "prev": "0x00000000000000000000000000000000000000000000006876c13e5b8ee4f2bf"
                    },
                    {
                        "current": "0x000000000000000000000000000000000000000000004bbafc74794b9159ce28",
                        "key": "0x000000000000000000000000000000000000000000000000000000000000000d",
                        "prev": "0x000000000000000000000000000000000000000000004451a1e1b73e2179ce28"
                    },
                    {
                        "current": "0x00000000000000000000000000000000000000000000c4ef66a948d2c1400000",
                        "key": "0xeac4e1ad9932a50c14d1581fe4214893fbb39a4252a3a03ebbc0e98e7eeed0ef",
                        "prev": "0x0000000000000000000000000000000000000000000000000000000000000000"
                    },
                    {
                        "current": "0x0000000000000000000000000000000000000000000041141ee50af702be8c12",
                        "key": "0xc6820c7d0e8a2186a11c150b737df331ec5c8bc0952595f1f00a6d55a2d6bfc3",
                        "prev": "0x0000000000000000000000000000000000000000000111df49ac571276fe8c12"
                    }
                ],
                "storageVariables": [
                    {
                        "name": "_tOwned",
                        "type": "mapping(address => uint256)",
                        "value": {
                            "pairs": [
                                {
                                    "key": "0x3ecffccc4c35ccd71a7c61446c90117fb7995fb1",
                                    "value": {
                                        "current": "36927018572995734336191",
                                        "prev": "1927018572995734336191",
                                        "typeTag": 1
                                    }
                                },
                                {
                                    "key": "0x7fdc0d8857c6d90fd79e22511baf059c0c71bf8b",
                                    "value": {
                                        "current": "307324982465647953742866",
                                        "prev": "1293324982465647953742866",
                                        "typeTag": 1
                                    }
                                },
                                {
                                    "key": "0xa9056272ca777a63ae3a275d7aab078fd90a1691",
                                    "value": {
                                        "current": "214576063146656215195128",
                                        "prev": "193576063146656215195128",
                                        "typeTag": 1
                                    }
                                },
                                {
                                    "key": "0xee0221d76504aec40f63ad7e36855eebf5ea5edd",
                                    "value": {
                                        "current": "930000000000000000000000",
                                        "prev": "0",
                                        "typeTag": 1
                                    }
                                }
                            ],
                            "typeTag": 4
                        }
                    },
                    {
                        "name": "buybackAmount",
                        "type": "uint256",
                        "value": {
                            "current": "357626771911093691993640",
                            "prev": "322626771911093691993640",
                            "typeTag": 1
                        }
                    }
                ]
            }
        ]
    }
}