{
    "balance_change": {
        "balanceChanges": [
            {
                "account": "0xa8b45dee8306b520465f1f8da7e11cd8cfd1bbc4",
                "assets": [
                    {
                        "address": "0xde5d2530a877871f6f0fc240b9fce117246dadae",
                        "amount": "894,773.05584632658546613",
                        "iconUrl": "",
                        "isERC1155": false,
                        "isERC721": false,
                        "sign": true,
                        "value": "386541.96010559999561"
                    }
                ]
            },
            {
                "account": "0x8584ddbd1e28bca4bc6fb96bafe39f850301940e",
                "assets": [
                    {
                        "address": "0xde5d2530a877871f6f0fc240b9fce117246dadae",
                        "amount": "894,773.05584632658546613",
                        "iconUrl": "",
                        "isERC1155": false,
                        "isERC721": false,
                        "sign": false,
                        "value": "386541.96010559999561"
                    }
                ]
            }
        ]
    },
    "profile": {
        "basic_info": {
            "baseFee": "47.62219895",
            "blockNumber": 19395644,
            "callData": "0x6d7fe2d80000000000000000000000000000000000000000000000000000000000000000",
            "debugEnable": true,
            "errorInfo": "",
            "eventCount": 3,
            "feeRecipient": "0x95222290dd7278aa3ddd389cc1e1d165cc4bafe5",
            "formatValue": "0",
            "gasLimit": 104708,
            "gasPrice": "60",
            "gasUsed": 102725,
            "intTxnCount": 2,
            "internalRevert": false,
            "internalRevertMessage": "",
            "isContractCreation": false,
            "isFlashloan": false,
            "maxFee": "60",
            "nonce": 48,
            "overwritedBlockNumber": -1,
            "priorityFee": "60",
            "receiver": "0xa8b45dee8306b520465f1f8da7e11cd8cfd1bbc4",
            "revertMessage": "",
            "sender": "0x3fa19214705bc82ce4b898205157472a79d026be",
            "simulationEnable": true,
            "sourceTxnHash": "0xc9b2cbc1437bbcd8c328b6d7cdbdae33d7d2a9ef07eca18b4922aac0430991e7",
            "status": true,
            "timestamp": "2024-03-09T06:06:59Z",
            "transactionFee": "0.0061635",
            "txnHash": "0xc9b2cbc1437bbcd8c328b6d7cdbdae33d7d2a9ef07eca18b4922aac0430991e7",
            "txnIndex": 18,
            "type": 2,
            "value": "0"
        },
        "fund_flow": [
            {
                "amount": "0",
                "from": "0x8584ddbd1e28bca4bc6fb96bafe39f850301940e",
                "id": 1,
                "isERC1155": false,
                "isERC721": false,
                "isReverted": false,
                "order": 1,
                "to": "0xde5d2530a877871f6f0fc240b9fce117246dadae",
                "token": "0xde5d2530a877871f6f0fc240b9fce117246dadae"
            },
            {
                "amount": "894,773.05584632658546613",
                "from": "0x8584ddbd1e28bca4bc6fb96bafe39f850301940e",
                "id": 2,
                "isERC1155": false,
                "isERC721": false,
                "isReverted": false,
                "order": 2,
                "to": "0xa8b45dee8306b520465f1f8da7e11cd8cfd1bbc4",
                "token": "0xde5d2530a877871f6f0fc240b9fce117246dadae"
            }
        ],
        "token_infos": [
            {
                "address": "0xc02aaa39b223fe8d0a0e5c4f27ead9083c756cc2",
                "decimals": 18
            },
            {
                "address": "0xde5d2530a877871f6f0fc240b9fce117246dadae",
                "decimals": 18
            },
            {
                "address": "0xeeeeeeeeeeeeeeeeeeeeeeeeeeeeeeeeeeeeeeee",
                "decimals": 18
            }
        ]
    },
    "address_label": {
        "labels": [
            {
                "address": "0xeeeeeeeeeeeeeeeeeeeeeeeeeeeeeeeeeeeeeeee",
                "label": "Ether"
            },
            {
                "address": "0xde5d2530a877871f6f0fc240b9fce117246dadae",
                "label": "JUICE (JUICE)"
            },
            {
                "address": "0x8584ddbd1e28bca4bc6fb96bafe39f850301940e",
                "label": "JuiceStaking"
            },
            {
                "address": "0x0000000000000000000000000000000000000001",
                "label": "Precompiled"
            },
            {
                "address": "0x0000000000000000000000000000000000000002",
                "label": "Precompiled"
            },
            {
                "address": "0x0000000000000000000000000000000000000003",
                "label": "Precompiled"
            },
            {
                "address": "0x0000000000000000000000000000000000000004",
                "label": "Precompiled"
            }
        ]
    },
    "trace": {
        "accountLabels": null,
        "dataMap": {
            "-1": {
                "invocation": {
                    "address": "0x3fa19214705bc82ce4b898205157472a79d026be",
                    "callData": "",
                    "decodedMethod": null,
                    "errorInfo": "",
                    "fromAddress": "",
                    "gasUsed": 0,
                    "id": -1,
                    "methodDecoded": false,
                    "operation": "",
                    "output": "",
                    "revert": false,
                    "revertMessage": "",
                    "selector": "",
                    "status": false,
                    "value": ""
                },
                "nodeType": 0
            },
            "0": {
                "invocation": {
                    "address": "0xa8b45dee8306b520465f1f8da7e11cd8cfd1bbc4",
                    "callData": "0x0000000000000000000000000000000000000000000000000000000000000000",
                    "decodedMethod": null,
                    "errorInfo": "",
                    "fromAddress": "0x3fa19214705bc82ce4b898205157472a79d026be",
                    "gasUsed": 102725,
                    "id": 0,
                    "methodDecoded": false,
                    "operation": "CALL",
                    "output": "",
                    "revert": false,
                    "revertMessage": "",
                    "selector": "0x6d7fe2d8",
                    "status": true,
                    "value": "0"
                },
                "nodeType": 0
            },
            "1": {
                "invocation": {
                    "address": "0x8584ddbd1e28bca4bc6fb96bafe39f850301940e",
                    "callData": "0x0000000000000000000000000000000000000000000000000000000000000000",
                    "decodedMethod": {
                        "callParams": [
                            {
                                "name": "stakeCount",
                                "type": "uint256",
                                "value": "0"
                            }
                        ],
                        "constructorArguments": "",
                        "name": "harvest",
                        "returnParams": [],
                        "signature": "harvest(uint256)"
                    },
                    "errorInfo": "",
                    "fromAddress": "0xa8b45dee8306b520465f1f8da7e11cd8cfd1bbc4",
                    "gasUsed": 76316,
                    "id": 1,
                    "methodDecoded": true,
                    "operation": "CALL",
                    "output": "",
                    "revert": false,
                    "revertMessage": "",
                    "selector": "0xddc63262",
                    "status": true,
                    "value": "0"
                },
                "nodeType": 0
            },
            "2": {
                "invocation": {
                    "address": "0xde5d2530a877871f6f0fc240b9fce117246dadae",
                    "callData": "0x000000000000000000000000a8b45dee8306b520465f1f8da7e11cd8cfd1bbc400000000000000000000000000000000000000000000bd79be9aed680dd71d12",
                    "decodedMethod": {
                        "callParams": [
                            {
                                "name": "recipient",
                                "type": "address",
                                "value": "0xa8b45dee8306b520465f1f8da7e11cd8cfd1bbc4"
                            },
                            {
                                "decimalAvailable": true,
                                "name": "amount",
                                "type": "uint256",
                                "value": "894,773,055,846,326,585,466,130"
                            }
                        ],
                        "constructorArguments": "",
                        "name": "transfer",
                        "returnParams": [
                            {
                                "name": "",
                                "type": "bool",
                                "value": true
                            }
                        ],
                        "signature": "transfer(address,uint256)"
                    },
                    "errorInfo": "",
                    "fromAddress": "0x8584ddbd1e28bca4bc6fb96bafe39f850301940e",
                    "gasUsed": 35130,
                    "id": 2,
                    "methodDecoded": true,
                    "operation": "CALL",
                    "output": "0x0000000000000000000000000000000000000000000000000000000000000001",
                    "revert": false,
                    "revertMessage": "",
                    "selector": "0xa9059cbb",
                    "status": true,
                    "value": "0"
                },
                "nodeType": 0
            },
            "3": {
                "event": {
                    "contract": "0xde5d2530a877871f6f0fc240b9fce117246dadae",
                    "decodedLog": {
                        "name": "Transfer",
                        "params": [
                            {
                                "name": "from",
                                "type": "address",
                                "value": "0x8584ddbd1e28bca4bc6fb96bafe39f850301940e"
                            },
                            {
                                "name": "to",
                                "type": "address",
                                "value": "0xde5d2530a877871f6f0fc240b9fce117246dadae"
                            },
                            {
                                "decimalAvailable": true,
                                "name": "value",
                                "type": "uint256",
                                "value": "0"
                            }
                        ],
                        "signature": "Transfer(address,address,uint256)"
                    },
                    "id": 3,
                    "logData": "0x0000000000000000000000000000000000000000000000000000000000000000",
                    "logDecoded": true,
                    "operation": "EVENT",
                    "revert": false,
                    "status": true,
                    "topics": [
                        "0xddf252ad1be2c89b69c2b068fc378daa952ba7f163c4a11628f55a4df523b3ef",
                        "0x0000000000000000000000008584ddbd1e28bca4bc6fb96bafe39f850301940e",
                        "0x000000000000000000000000de5d2530a877871f6f0fc240b9fce117246dadae"
                    ]
                },
                "nodeType": 1
            },
            "4": {
                "event": {
                    "contract": "0xde5d2530a877871f6f0fc240b9fce117246dadae",
                    "decodedLog": {
                        "name": "Transfer",
                        "params": [
                            {
                                "name": "from",
                                "type": "address",
                                "value": "0x8584ddbd1e28bca4bc6fb96bafe39f850301940e"
                            },
                            {
                                "name": "to",
                                "type": "address",
                                "value": "0xa8b45dee8306b520465f1f8da7e11cd8cfd1bbc4"
                            },
                            {
                                "decimalAvailable": true,
                                "name": "value",
                                "type": "uint256",
                                "value": "894,773,055,846,326,585,466,130"
                            }
                        ],
                        "signature": "Transfer(address,address,uint256)"
                    },
                    "id": 4,
                    "logData": "0x00000000000000000000000000000000000000000000bd79be9aed680dd71d12",
                    "logDecoded": true,
                    "operation": "EVENT",
                    "revert": false,
                    "status": true,
                    "topics": [
                        "0xddf252ad1be2c89b69c2b068fc378daa952ba7f163c4a11628f55a4df523b3ef",
                        "0x0000000000000000000000008584ddbd1e28bca4bc6fb96bafe39f850301940e",
                        "0x000000000000000000000000a8b45dee8306b520465f1f8da7e11cd8cfd1bbc4"
                    ]
                },
                "nodeType": 1
            },
            "5": {
                "event": {
                    "contract": "0x8584ddbd1e28bca4bc6fb96bafe39f850301940e",
                    "decodedLog": {
                        "name": "Harvest",
                        "params": [
                            {
                                "name": "staker",
                                "type": "address",
                                "value": "0xa8b45dee8306b520465f1f8da7e11cd8cfd1bbc4"
                            },
                            {
                                "name": "amount",
                                "type": "uint256",
                                "value": "894,773,055,846,326,585,466,130"
                            }
                        ],
                        "signature": "Harvest(address,uint256)"
                    },
                    "id": 5,
                    "logData": "0x000000000000000000000000a8b45dee8306b520465f1f8da7e11cd8cfd1bbc400000000000000000000000000000000000000000000bd79be9aed680dd71d12",
                    "logDecoded": true,
                    "operation": "EVENT",
                    "revert": false,
                    "status": true,
                    "topics": [
                        "0xc9695243a805adb74c91f28311176c65b417e842d5699893cef56d18bfa48cba"
                    ]
                },
                "nodeType": 1
            }
        },
        "gasFlame": [
            {
                "children": [
                    {
                        "children": [
                            {
                                "children": [],
                                "depth": 0,
                                "name": "Initial Gas",
                                "value": 21192
                            },
                            {
                                "children": [
                                    {
                                        "children": [
                                            {
                                                "children": [],
                                                "depth": 2,
                                                "name": "transfer",
                                                "value": 35130
                                            }
                                        ],
                                        "depth": 1,
                                        "name": "harvest",
                                        "value": 76316
                                    }
                                ],
                                "depth": 0,
                                "name": "Executed Gas",
                                "value": 81533
                            }
                        ],
                        "depth": -1,
                        "name": "Actual Gas Used",
                        "value": 102725
                    },
                    {
                        "children": [],
                        "depth": -1,
                        "name": "Refunded Gas",
                        "value": 0
                    }
                ],
                "depth": -2,
                "name": "Total Gas",
                "value": 102725
            }
        ],
        "isConfirmed": true,
        "mainTrace": [
            {
                "children": [
                    {
                        "children": [
                            {
                                "children": [
                                    {
                                        "children": [
                                            {
                                                "children": [],
                                                "depth": 3,
                                                "id": 3,
                                                "order": 3
                                            },
                                            {
                                                "children": [],
                                                "depth": 3,
                                                "id": 4,
                                                "order": 4
                                            }
                                        ],
                                        "depth": 2,
                                        "id": 2,
                                        "order": 2
                                    },
                                    {
                                        "children": [],
                                        "depth": 2,
                                        "id": 5,
                                        "order": 5
                                    }
                                ],
                                "depth": 1,
                                "id": 1,
                                "order": 1
                            }
                        ],
                        "depth": 0,
                        "id": 0,
                        "order": 0
                    }
                ],
                "depth": -1,
                "id": -1,
                "order": -1
            }
        ],
        "mainTraceNodeCount": 6,
        "parentIdMap": {
            "0": -1,
            "1": 0,
            "2": 1,
            "3": 2,
            "4": 2,
            "5": 1
        },
        "tidyTrace": [
            {
                "children": [
                    {
                        "children": [
                            {
                                "children": [
                                    {
                                        "children": [
                                            {
                                                "children": [],
                                                "depth": 3,
                                                "id": 3,
                                                "order": 3
                                            },
                                            {
                                                "children": [],
                                                "depth": 3,
                                                "id": 4,
                                                "order": 4
                                            }
                                        ],
                                        "depth": 2,
                                        "id": 2,
                                        "order": 2
                                    },
                                    {
                                        "children": [],
                                        "depth": 2,
                                        "id": 5,
                                        "order": 5
                                    }
                                ],
                                "depth": 1,
                                "id": 1,
                                "order": 1
                            }
                        ],
                        "depth": 0,
                        "id": 0,
                        "order": 0
                    }
                ],
                "depth": -1,
                "id": -1,
                "order": -1
            }
        ],
        "tidyTraceNodeCount": 6
    },
    "state_change": {
        "stateChanges": [
            {
                "address": "0x8584ddbd1e28bca4bc6fb96bafe39f850301940e",
                "erc": "",
                "slots": [
                    {
                        "current": "0x0000000000000000000000000000000000000000000000000005c9090b277782",
                        "key": "0x0000000000000000000000000000000000000000000000000000000000000008",
                        "prev": "0x0000000000000000000000000000000000000000000000000005c60572e52053"
                    },
                    {
                        "current": "0x0000000000000000000000000000000000000000000000000000000065ebfc83",
                        "key": "0x0000000000000000000000000000000000000000000000000000000000000005",
                        "prev": "0x0000000000000000000000000000000000000000000000000000000065ebfc2f"
                    },
                    {
                        "current": "0x00000000000000000000000000000000000000000000000016994b53922ad3d0",
                        "key": "0x4a22c65172ebe615bce9fbd842723d7e45d3190fbc9381f1d7dcc06921c001a3",
                        "prev": "0x000000000000000000000000000000000000000000000000168d8548cf064438"
                    }
                ],
                "storageVariables": [
                    {
                        "name": "rewardPerShare",
                        "type": "uint256",
                        "value": {
                            "current": "1628415562577794",
                            "prev": "1625101588308051",
                            "typeTag": 1
                        }
                    },
                    {
                        "name": "lastRewardUpdateTime",
                        "type": "uint256",
                        "value": {
                            "current": "1709964419",
                            "prev": "1709964335",
                            "typeTag": 1
                        }
                    },
                    {
                        "name": "mapStakingInfo",
                        "type": "mapping(address => mapping(uint256 => struct JuiceStaking.StakingInfo))",
                        "value": {
                            "pairs": [
                                {
                                    "key": "0xa8b45dee8306b520465f1f8da7e11cd8cfd1bbc4",
                                    "value": {
                                        "pairs": [
                                            {
                                                "key": "0",
                                                "value": {
                                                    "fields": [
                                                        {
                                                            "name": "rewardDebt",
                                                            "type": "uint256",
                                                            "value": {
                                                                "current": "1628415562577794000",
                                                                "prev": "1625101588308051000",
                                                                "typeTag": 1
                                                            }
                                                        }
                                                    ],
                                                    "typeTag": 3
                                                }
                                            }
                                        ],
                                        "typeTag": 4
                                    }
                                }
                            ],
                            "typeTag": 4
                        }
                    }
                ]
            },
            {
                "address": "0xde5d2530a877871f6f0fc240b9fce117246dadae",
                "erc": "ERC-20",
                "slots": [
                    {
                        "current": "0x0000000000000000000000000000000000000000000058f81a622c72e400e2ee",
                        "key": "0xb789e4a52563cb53425f1fe09c29ded7c90d83f965db05e59d94d330417c49b7",
                        "prev": "0x000000000000000000000000000000000000000000011671d8fd19daf1d80000"
                    },
                    {
                        "current": "0x00000000000000000000000000000000000000000000bdc3a9430959049d3b45",
                        "key": "0xd701676794e92abc630f5bc524ce5e55f588350bcb2ff2a942ec45413dbfe764",
                        "prev": "0x000000000000000000000000000000000000000000000049eaa81bf0f6c61e33"
                    }
                ],
                "storageVariables": [
                    {
                        "name": "_balances",
                        "type": "mapping(address => uint256)",
                        "value": {
                            "pairs": [
                                {
                                    "key": "0x8584ddbd1e28bca4bc6fb96bafe39f850301940e",
                                    "value": {
                                        "current": "420144944153673414533870",
                                        "prev": "1314918000000000000000000",
                                        "typeTag": 1
                                    }
                                },
                                {
                                    "key": "0xa8b45dee8306b520465f1f8da7e11cd8cfd1bbc4",
                                    "value": {
                                        "current": "896136576959230091541317",
                                        "prev": "1363521112903506075187",
                                        "typeTag": 1
                                    }
                                }
                            ],
                            "typeTag": 4
                        }
                    }
                ]
            }
        ]
    }
}