{
    "balance_change": {
        "balanceChanges": [
            {
                "account": "0x2ffdce5f0c09a8ee3a568bc01f35894b2d77a6d6",
                "assets": [
                    {
                        "address": "0xeeeeeeeeeeeeeeeeeeeeeeeeeeeeeeeeeeeeeeee",
                        "amount": "17.4999999999999999",
                        "iconUrl": "https://assets.blocksec.com/image/1663669189317-3.png",
                        "isERC1155": false,
                        "isERC721": false,
                        "sign": true,
                        "value": "40213.43373"
                    }
                ]
            },
            {
                "account": "0x1d13502cfb73fca360d1af7703cd3f47aba809b5",
                "assets": [
                    {
                        "address": "0xeeeeeeeeeeeeeeeeeeeeeeeeeeeeeeeeeeeeeeee",
                        "amount": "3.6",
                        "iconUrl": "https://assets.blocksec.com/image/1663669189317-3.png",
                        "isERC1155": false,
                        "isERC721": false,
                        "sign": true,
                        "value": "8272.477796"
                    }
                ]
            },
            {
                "account": "0x72052f124841a8158d3d5b6d3d54c9fe0e25e929",
                "assets": [
                    {
                        "address": "0xd357e4940b34eb1406ef6a1af53954e641273a3b",
                        "amount": "18,000",
                        "iconUrl": "",
                        "isERC1155": false,
                        "isERC721": false,
                        "sign": true,
                        "value": ""
                    }
                ]
            },
            {
                "account": "0xae2c7af5fc2ddf45e6250a4c5495e61afc7acf50",
                "assets": [
                    {
                        "address": "0xd357e4940b34eb1406ef6a1af53954e641273a3b",
                        "amount": "18,000",
                        "iconUrl": "",
                        "isERC1155": false,
                        "isERC721": false,
                        "sign": false,
                        "value": ""
                    }
                ]
            },
            {
                "account": "0xde46fcf6ab7559e4355b8ee3d7fba0f2730cddd8",
                "assets": [
                    {
                        "address": "0xeeeeeeeeeeeeeeeeeeeeeeeeeeeeeeeeeeeeeeee",
                        "amount": "21.0999999999999999",
                        "iconUrl": "https://assets.blocksec.com/image/1663669189317-3.png",
                        "isERC1155": false,
                        "isERC721": false,
                        "sign": false,
                        "value": "48485.91152"
                    }
                ]
            }
        ]
    },
    "profile": {
        "basic_info": {
            "baseFee": "16.077777501",
            "blockNumber": 19138641,
            "callData": "0xc52ab778000000000000000000000000de46fcf6ab7559e4355b8ee3d7fba0f2730cddd800000000000000000000000000000000000000000000000102207973f644000000000000000000000000000000000000000000000000000031f5c4ed27680000",
            "debugEnable": true,
            "errorInfo": "",
            "eventCount": 6,
            "feeRecipient": "0xdafea492d9c6733ae3d56b7ed1adb60692c98bc5",
            "formatValue": "0",
            "gasLimit": 1225334,
            "gasPrice": "36.077777501",
            "gasUsed": 1128042,
            "intTxnCount": 31,
            "internalRevert": false,
            "internalRevertMessage": "",
            "isContractCreation": false,
            "isFlashloan": true,
            "maxFee": "50",
            "nonce": 3,
            "overwritedBlockNumber": -1,
            "priorityFee": "20",
            "receiver": "0x2ffdce5f0c09a8ee3a568bc01f35894b2d77a6d6",
            "revertMessage": "",
            "sender": "0x24a0c66f185874b251eb70bee2c2e35e39848419",
            "simulationEnable": true,
            "sourceTxnHash": "0xcf834aff4de9992f5da9c443600dad9c6277a8a00de5007842fece51564992db",
            "status": true,
            "timestamp": "2024-02-02T05:28:47Z",
            "transactionFee": "0.040697248287783042",
            "txnHash": "0xcf834aff4de9992f5da9c443600dad9c6277a8a00de5007842fece51564992db",
            "txnIndex": 0,
            "type": 2,
            "value": "0"
        },
        "fund_flow": [
            {
                "amount": "18.6",
                "from": "0xba12222222228d8ba445958a75a0704d566bf2c8",
                "id": 1,
                "isERC1155": false,
                "isERC721": false,
                "isReverted": false,
                "order": 1,
                "to": "0x2ffdce5f0c09a8ee3a568bc01f35894b2d77a6d6",
                "token": "0xc02aaa39b223fe8d0a0e5c4f27ead9083c756cc2"
            },
            {
                "amount": "18.6",
                "from": "0xc02aaa39b223fe8d0a0e5c4f27ead9083c756cc2",
                "id": 2,
                "isERC1155": false,
                "isERC721": false,
                "isReverted": false,
                "order": 2,
                "to": "0x2ffdce5f0c09a8ee3a568bc01f35894b2d77a6d6",
                "token": "0xeeeeeeeeeeeeeeeeeeeeeeeeeeeeeeeeeeeeeeee"
            },
            {
                "amount": "18.6",
                "from": "0x2ffdce5f0c09a8ee3a568bc01f35894b2d77a6d6",
                "id": 3,
                "isERC1155": false,
                "isERC721": false,
                "isReverted": false,
                "order": 3,
                "to": "0xc02aaa39b223fe8d0a0e5c4f27ead9083c756cc2",
                "token": "0xc02aaa39b223fe8d0a0e5c4f27ead9083c756cc2"
            },
            {
                "amount": "18.6",
                "from": "0x2ffdce5f0c09a8ee3a568bc01f35894b2d77a6d6",
                "id": 4,
                "isERC1155": false,
                "isERC721": false,
                "isReverted": false,
                "order": 4,
                "to": "0x72052f124841a8158d3d5b6d3d54c9fe0e25e929",
                "token": "0xeeeeeeeeeeeeeeeeeeeeeeeeeeeeeeeeeeeeeeee"
            },
            {
                "amount": "3.6",
                "from": "0x72052f124841a8158d3d5b6d3d54c9fe0e25e929",
                "id": 5,
                "isERC1155": false,
                "isERC721": false,
                "isReverted": false,
                "order": 5,
                "to": "0xae2c7af5fc2ddf45e6250a4c5495e61afc7acf50",
                "token": "0xeeeeeeeeeeeeeeeeeeeeeeeeeeeeeeeeeeeeeeee"
            },
            {
                "amount": "3.6",
                "from": "0xae2c7af5fc2ddf45e6250a4c5495e61afc7acf50",
                "id": 6,
                "isERC1155": false,
                "isERC721": false,
                "isReverted": false,
                "order": 6,
                "to": "0x1d13502cfb73fca360d1af7703cd3f47aba809b5",
                "token": "0xeeeeeeeeeeeeeeeeeeeeeeeeeeeeeeeeeeeeeeee"
            },
            {
                "amount": "18,000",
                "from": "0xae2c7af5fc2ddf45e6250a4c5495e61afc7acf50",
                "id": 7,
                "isERC1155": false,
                "isERC721": false,
                "isReverted": false,
                "order": 7,
                "to": "0x72052f124841a8158d3d5b6d3d54c9fe0e25e929",
                "token": "0xd357e4940b34eb1406ef6a1af53954e641273a3b"
            },
            {
                "amount": "15",
                "from": "0x72052f124841a8158d3d5b6d3d54c9fe0e25e929",
                "id": 8,
                "isERC1155": false,
                "isERC721": false,
                "isReverted": false,
                "order": 8,
                "to": "0xde46fcf6ab7559e4355b8ee3d7fba0f2730cddd8",
                "token": "0xeeeeeeeeeeeeeeeeeeeeeeeeeeeeeeeeeeeeeeee"
            },
            {
                "amount": "36.0999999999999999",
                "from": "0xde46fcf6ab7559e4355b8ee3d7fba0f2730cddd8",
                "id": 9,
                "isERC1155": false,
                "isERC721": false,
                "isReverted": false,
                "order": 9,
                "to": "0x72052f124841a8158d3d5b6d3d54c9fe0e25e929",
                "token": "0xeeeeeeeeeeeeeeeeeeeeeeeeeeeeeeeeeeeeeeee"
            },
            {
                "amount": "36.0999999999999999",
                "from": "0x72052f124841a8158d3d5b6d3d54c9fe0e25e929",
                "id": 10,
                "isERC1155": false,
                "isERC721": false,
                "isReverted": false,
                "order": 10,
                "to": "0x2ffdce5f0c09a8ee3a568bc01f35894b2d77a6d6",
                "token": "0xeeeeeeeeeeeeeeeeeeeeeeeeeeeeeeeeeeeeeeee"
            },
            {
                "amount": "18.6",
                "from": "0x2ffdce5f0c09a8ee3a568bc01f35894b2d77a6d6",
                "id": 11,
                "isERC1155": false,
                "isERC721": false,
                "isReverted": false,
                "order": 11,
                "to": "0xc02aaa39b223fe8d0a0e5c4f27ead9083c756cc2",
                "token": "0xeeeeeeeeeeeeeeeeeeeeeeeeeeeeeeeeeeeeeeee"
            },
            {
                "amount": "18.6",
                "from": "0xc02aaa39b223fe8d0a0e5c4f27ead9083c756cc2",
                "id": 12,
                "isERC1155": false,
                "isERC721": false,
                "isReverted": false,
                "order": 12,
                "to": "0x2ffdce5f0c09a8ee3a568bc01f35894b2d77a6d6",
                "token": "0xc02aaa39b223fe8d0a0e5c4f27ead9083c756cc2"
            },
            {
                "amount": "18.6",
                "from": "0x2ffdce5f0c09a8ee3a568bc01f35894b2d77a6d6",
                "id": 13,
                "isERC1155": false,
                "isERC721": false,
                "isReverted": false,
                "order": 13,
                "to": "0xba12222222228d8ba445958a75a0704d566bf2c8",
                "token": "0xc02aaa39b223fe8d0a0e5c4f27ead9083c756cc2"
            }
        ],
        "token_infos": [
            {
                "address": "0xc02aaa39b223fe8d0a0e5c4f27ead9083c756cc2",
                "decimals": 18
            },
            {
                "address": "0xd357e4940b34eb1406ef6a1af53954e641273a3b",
                "decimals": 18
            },
            {
                "address": "0xeeeeeeeeeeeeeeeeeeeeeeeeeeeeeeeeeeeeeeee",
                "decimals": 18
            }
        ]
    },
    "address_label": {
        "labels": [
            {
                "address": "0xce88686553686da562ce7cea497ce749da109f9f",
                "label": "ProtocolFeesCollector"
            },
            {
                "address": "0xd357e4940b34eb1406ef6a1af53954e641273a3b",
                "label": "ADC"
            },
            {
                "address": "0xae2c7af5fc2ddf45e6250a4c5495e61afc7acf50",
                "label": "Ticket"
            },
            {
                "address": "0xde46fcf6ab7559e4355b8ee3d7fba0f2730cddd8",
                "label": "MainPool"
            },
            {
                "address": "0x0000000000000000000000000000000000000001",
                "label": "Precompiled"
            },
            {
                "address": "0x0000000000000000000000000000000000000004",
                "label": "Precompiled"
            },
            {
                "address": "0xeeeeeeeeeeeeeeeeeeeeeeeeeeeeeeeeeeeeeeee",
                "label": "Ether"
            },
            {
                "address": "0xba12222222228d8ba445958a75a0704d566bf2c8",
                "label": "Balancer: Vault"
            },
            {
                "address": "0xc02aaa39b223fe8d0a0e5c4f27ead9083c756cc2",
                "label": "Wrapped Ether (WETH)"
            },
            {
                "address": "0x0000000000000000000000000000000000000002",
                "label": "Precompiled"
            },
            {
                "address": "0x0000000000000000000000000000000000000003",
                "label": "Precompiled"
            }
        ]
    },
    "trace": {
        "accountLabels": null,
        "dataMap": {
            "-1": {
                "invocation": {
                    "address": "0x24a0c66f185874b251eb70bee2c2e35e39848419",
                    "callData": "",
                    "decodedMethod": null,
                    "errorInfo": "",
                    "fromAddress": "",
                    "gasUsed": 0,
                    "id": -1,
                    "methodDecoded": false,
                    "operation": "",
                    "output": "",
                    "revert": false,
                    "revertMessage": "",
                    "selector": "",
                    "status": false,
                    "value": ""
                },
                "nodeType": 0
            },
            "0": {
                "invocation": {
                    "address": "0x2ffdce5f0c09a8ee3a568bc01f35894b2d77a6d6",
                    "callData": "0x000000000000000000000000de46fcf6ab7559e4355b8ee3d7fba0f2730cddd800000000000000000000000000000000000000000000000102207973f644000000000000000000000000000000000000000000000000000031f5c4ed27680000",
                    "decodedMethod": {
                        "callParams": [
                            {
                                "name": "tokenAddress",
                                "type": "address",
                                "value": "0xde46fcf6ab7559e4355b8ee3d7fba0f2730cddd8"
                            },
                            {
                                "name": "fee",
                                "type": "uint256",
                                "value": "18,600,000,000,000,000,000"
                            },
                            {
                                "name": "amountToken",
                                "type": "uint256",
                                "value": "3,600,000,000,000,000,000"
                            }
                        ],
                        "constructorArguments": "",
                        "name": "execute",
                        "returnParams": [],
                        "signature": "execute(address,uint256,uint256)"
                    },
                    "errorInfo": "",
                    "fromAddress": "0x24a0c66f185874b251eb70bee2c2e35e39848419",
                    "gasUsed": 1128042,
                    "id": 0,
                    "methodDecoded": true,
                    "operation": "CALL",
                    "output": "",
                    "revert": false,
                    "revertMessage": "",
                    "selector": "0xc52ab778",
                    "status": true,
                    "value": "0"
                },
                "nodeType": 0
            },
            "1": {
                "invocation": {
                    "address": "0xba12222222228d8ba445958a75a0704d566bf2c8",
                    "callData": "0x0000000000000000000000002ffdce5f0c09a8ee3a568bc01f35894b2d77a6d6000000000000000000000000000000000000000000000000000000000000008000000000000000000000000000000000000000000000000000000000000000c000000000000000000000000000000000000000000000000000000000000001000000000000000000000000000000000000000000000000000000000000000001000000000000000000000000c02aaa39b223fe8d0a0e5c4f27ead9083c756cc2000000000000000000000000000000000000000000000000000000000000000100000000000000000000000000000000000000000000000102207973f6440000000000000000000000000000000000000000000000000000000000000000002000000000000000000000000000000000000000000000000031f5c4ed27680000",
                    "decodedMethod": {
                        "callParams": [
                            {
                                "name": "recipient",
                                "type": "address",
                                "value": "0x2ffdce5f0c09a8ee3a568bc01f35894b2d77a6d6"
                            },
                            {
                                "name": "tokens",
                                "type": "address[]",
                                "value": [
                                    "0xc02aaa39b223fe8d0a0e5c4f27ead9083c756cc2"
                                ]
                            },
                            {
                                "name": "amounts",
                                "type": "uint256[]",
                                "value": [
                                    "18,600,000,000,000,000,000"
                                ]
                            },
                            {
                                "name": "userData",
                                "type": "bytes",
                                "value": "0x00000000000000000000000000000000000000000000000031f5c4ed27680000"
                            }
                        ],
                        "constructorArguments": "",
                        "name": "flashLoan",
                        "returnParams": [],
                        "signature": "flashLoan(address,address[],uint256[],bytes)"
                    },
                    "errorInfo": "",
                    "fromAddress": "0x2ffdce5f0c09a8ee3a568bc01f35894b2d77a6d6",
                    "gasUsed": 1153284,
                    "id": 1,
                    "methodDecoded": true,
                    "operation": "CALL",
                    "output": "",
                    "revert": false,
                    "revertMessage": "",
                    "selector": "0x5c38449e",
                    "status": true,
                    "value": "0"
                },
                "nodeType": 0
            },
            "10": {
                "invocation": {
                    "address": "0x72052f124841a8158d3d5b6d3d54c9fe0e25e929",
                    "callData": "0x608060405260405162000bbb38038062000bbb83398181016040528101906200002991906200040d565b8060015f6101000a81548173ffffffffffffffffffffffffffffffffffffffff021916908373ffffffffffffffffffffffffffffffffffffffff160217905550835f806101000a81548173ffffffffffffffffffffffffffffffffffffffff021916908373ffffffffffffffffffffffffffffffffffffffff1602179055508273ffffffffffffffffffffffffffffffffffffffff166358e4dda2836040518263ffffffff1660e01b81526004015f604051808303818588803b158015620000ef575f80fd5b505af115801562000102573d5f803e3d5ffd5b50505050505f8173ffffffffffffffffffffffffffffffffffffffff1663e6347b716040518163ffffffff1660e01b8152600401602060405180830381865afa15801562000152573d5f803e3d5ffd5b505050506040513d601f19601f820116820180604052508101906200017891906200047c565b90508173ffffffffffffffffffffffffffffffffffffffff16632389a29047326040518363ffffffff1660e01b8152600401620001b69190620004bd565b5f604051808303818588803b158015620001ce575f80fd5b505af1158015620001e1573d5f803e3d5ffd5b50505050505f8273ffffffffffffffffffffffffffffffffffffffff1663a9da1fb9836040518263ffffffff1660e01b8152600401620002229190620004e9565b602060405180830381865afa1580156200023e573d5f803e3d5ffd5b505050506040513d601f19601f820116820180604052508101906200026491906200047c565b90505f8373ffffffffffffffffffffffffffffffffffffffff166302e79a0d306040518263ffffffff1660e01b8152600401620002a29190620004bd565b602060405180830381865afa158015620002be573d5f803e3d5ffd5b505050506040513d601f19601f82011682018060405250810190620002e491906200047c565b90508373ffffffffffffffffffffffffffffffffffffffff1663aed3d0dd8260648562000312919062000531565b60646040518463ffffffff1660e01b81526004016200033493929190620005c1565b5f604051808303815f87803b1580156200034c575f80fd5b505af11580156200035f573d5f803e3d5ffd5b5050505050505050505050620005fc565b5f80fd5b5f73ffffffffffffffffffffffffffffffffffffffff82169050919050565b5f6200039f8262000374565b9050919050565b620003b18162000393565b8114620003bc575f80fd5b50565b5f81519050620003cf81620003a6565b92915050565b5f819050919050565b620003e981620003d5565b8114620003f4575f80fd5b50565b5f815190506200040781620003de565b92915050565b5f805f806080858703121562000428576200042762000370565b5b5f6200043787828801620003bf565b94505060206200044a87828801620003bf565b93505060406200045d87828801620003f7565b92505060606200047087828801620003bf565b91505092959194509250565b5f6020828403121562000494576200049362000370565b5b5f620004a384828501620003f7565b91505092915050565b620004b78162000393565b82525050565b5f602082019050620004d25f830184620004ac565b92915050565b620004e381620003d5565b82525050565b5f602082019050620004fe5f830184620004d8565b92915050565b7f4e487b71000000000000000000000000000000000000000000000000000000005f52601160045260245ffd5b5f6200053d82620003d5565b91506200054a83620003d5565b925082820390508181111562000565576200056462000504565b5b92915050565b5f819050919050565b5f60ff82169050919050565b5f819050919050565b5f620005a9620005a36200059d846200056b565b62000580565b62000574565b9050919050565b620005bb8162000589565b82525050565b5f606082019050620005d65f830186620004d8565b620005e56020830185620004d8565b620005f46040830184620005b0565b949350505050565b6105b1806200060a5f395ff3fe608060405260043610610042575f3560e01c8063262ff5c71461004d57806389476069146100775780638da5cb5b1461009f57806390ed6bf4146100c957610049565b3661004957005b5f80fd5b348015610058575f80fd5b506100616100df565b60405161006e9190610415565b60405180910390f35b348015610082575f80fd5b5061009d6004803603810190610098919061045c565b610104565b005b3480156100aa575f80fd5b506100b36102d2565b6040516100c09190610415565b60405180910390f35b3480156100d4575f80fd5b506100dd6102f5565b005b60015f9054906101000a900473ffffffffffffffffffffffffffffffffffffffff1681565b5f8054906101000a900473ffffffffffffffffffffffffffffffffffffffff1673ffffffffffffffffffffffffffffffffffffffff163373ffffffffffffffffffffffffffffffffffffffff161461015a575f80fd5b5f73ffffffffffffffffffffffffffffffffffffffff168173ffffffffffffffffffffffffffffffffffffffff16036101d6573373ffffffffffffffffffffffffffffffffffffffff166108fc4790811502906040515f60405180830381858888f193505050501580156101d0573d5f803e3d5ffd5b506102cf565b5f8173ffffffffffffffffffffffffffffffffffffffff166370a08231306040518263ffffffff1660e01b81526004016102109190610415565b602060405180830381865afa15801561022b573d5f803e3d5ffd5b505050506040513d601f19601f8201168201806040525081019061024f91906104ba565b90508173ffffffffffffffffffffffffffffffffffffffff1663a9059cbb33836040518363ffffffff1660e01b815260040161028c9291906104f4565b6020604051808303815f875af11580156102a8573d5f803e3d5ffd5b505050506040513d601f19601f820116820180604052508101906102cc9190610550565b50505b50565b5f8054906101000a900473ffffffffffffffffffffffffffffffffffffffff1681565b60015f9054906101000a900473ffffffffffffffffffffffffffffffffffffffff1673ffffffffffffffffffffffffffffffffffffffff16633ccfd60b6040518163ffffffff1660e01b81526004015f604051808303815f87803b15801561035b575f80fd5b505af115801561036d573d5f803e3d5ffd5b505050505f8054906101000a900473ffffffffffffffffffffffffffffffffffffffff1673ffffffffffffffffffffffffffffffffffffffff166108fc4790811502906040515f60405180830381858888f193505050501580156103d3573d5f803e3d5ffd5b50565b5f73ffffffffffffffffffffffffffffffffffffffff82169050919050565b5f6103ff826103d6565b9050919050565b61040f816103f5565b82525050565b5f6020820190506104285f830184610406565b92915050565b5f80fd5b61043b816103f5565b8114610445575f80fd5b50565b5f8135905061045681610432565b92915050565b5f602082840312156104715761047061042e565b5b5f61047e84828501610448565b91505092915050565b5f819050919050565b61049981610487565b81146104a3575f80fd5b50565b5f815190506104b481610490565b92915050565b5f602082840312156104cf576104ce61042e565b5b5f6104dc848285016104a6565b91505092915050565b6104ee81610487565b82525050565b5f6040820190506105075f830185610406565b61051460208301846104e5565b9392505050565b5f8115159050919050565b61052f8161051b565b8114610539575f80fd5b50565b5f8151905061054a81610526565b92915050565b5f602082840312156105655761056461042e565b5b5f6105728482850161053c565b9150509291505056fea26469706673582212205fde158f493e40598a16ca2c30e394b9d2b0c25dee36e8fad0eeb2dfcf733a5464736f6c634300081800330000000000000000000000002ffdce5f0c09a8ee3a568bc01f35894b2d77a6d6000000000000000000000000ae2c7af5fc2ddf45e6250a4c5495e61afc7acf5000000000000000000000000000000000000000000000000031f5c4ed27680000000000000000000000000000de46fcf6ab7559e4355b8ee3d7fba0f2730cddd8",
                    "decodedMethod": null,
                    "errorInfo": "",
                    "fromAddress": "0x2ffdce5f0c09a8ee3a568bc01f35894b2d77a6d6",
                    "gasUsed": 906841,
                    "id": 10,
                    "methodDecoded": false,
                    "operation": "CREATE",
                    "output": "0x608060405260043610610042575f3560e01c8063262ff5c71461004d57806389476069146100775780638da5cb5b1461009f57806390ed6bf4146100c957610049565b3661004957005b5f80fd5b348015610058575f80fd5b506100616100df565b60405161006e9190610415565b60405180910390f35b348015610082575f80fd5b5061009d6004803603810190610098919061045c565b610104565b005b3480156100aa575f80fd5b506100b36102d2565b6040516100c09190610415565b60405180910390f35b3480156100d4575f80fd5b506100dd6102f5565b005b60015f9054906101000a900473ffffffffffffffffffffffffffffffffffffffff1681565b5f8054906101000a900473ffffffffffffffffffffffffffffffffffffffff1673ffffffffffffffffffffffffffffffffffffffff163373ffffffffffffffffffffffffffffffffffffffff161461015a575f80fd5b5f73ffffffffffffffffffffffffffffffffffffffff168173ffffffffffffffffffffffffffffffffffffffff16036101d6573373ffffffffffffffffffffffffffffffffffffffff166108fc4790811502906040515f60405180830381858888f193505050501580156101d0573d5f803e3d5ffd5b506102cf565b5f8173ffffffffffffffffffffffffffffffffffffffff166370a08231306040518263ffffffff1660e01b81526004016102109190610415565b602060405180830381865afa15801561022b573d5f803e3d5ffd5b505050506040513d601f19601f8201168201806040525081019061024f91906104ba565b90508173ffffffffffffffffffffffffffffffffffffffff1663a9059cbb33836040518363ffffffff1660e01b815260040161028c9291906104f4565b6020604051808303815f875af11580156102a8573d5f803e3d5ffd5b505050506040513d601f19601f820116820180604052508101906102cc9190610550565b50505b50565b5f8054906101000a900473ffffffffffffffffffffffffffffffffffffffff1681565b60015f9054906101000a900473ffffffffffffffffffffffffffffffffffffffff1673ffffffffffffffffffffffffffffffffffffffff16633ccfd60b6040518163ffffffff1660e01b81526004015f604051808303815f87803b15801561035b575f80fd5b505af115801561036d573d5f803e3d5ffd5b505050505f8054906101000a900473ffffffffffffffffffffffffffffffffffffffff1673ffffffffffffffffffffffffffffffffffffffff166108fc4790811502906040515f60405180830381858888f193505050501580156103d3573d5f803e3d5ffd5b50565b5f73ffffffffffffffffffffffffffffffffffffffff82169050919050565b5f6103ff826103d6565b9050919050565b61040f816103f5565b82525050565b5f6020820190506104285f830184610406565b92915050565b5f80fd5b61043b816103f5565b8114610445575f80fd5b50565b5f8135905061045681610432565b92915050565b5f602082840312156104715761047061042e565b5b5f61047e84828501610448565b91505092915050565b5f819050919050565b61049981610487565b81146104a3575f80fd5b50565b5f815190506104b481610490565b92915050565b5f602082840312156104cf576104ce61042e565b5b5f6104dc848285016104a6565b91505092915050565b6104ee81610487565b82525050565b5f6040820190506105075f830185610406565b61051460208301846104e5565b9392505050565b5f8115159050919050565b61052f8161051b565b8114610539575f80fd5b50565b5f8151905061054a81610526565b92915050565b5f602082840312156105655761056461042e565b5b5f6105728482850161053c565b9150509291505056fea26469706673582212205fde158f493e40598a16ca2c30e394b9d2b0c25dee36e8fad0eeb2dfcf733a5464736f6c63430008180033",
                    "revert": false,
                    "revertMessage": "",
                    "selector": "",
                    "status": true,
                    "value": "18.6"
                },
                "nodeType": 0
            },
            "11": {
                "invocation": {
                    "address": "0xae2c7af5fc2ddf45e6250a4c5495e61afc7acf50",
                    "callData": "0x",
                    "decodedMethod": {
                        "callParams": [],
                        "constructorArguments": "",
                        "name": "buyADC",
                        "returnParams": [],
                        "signature": "buyADC()"
                    },
                    "errorInfo": "",
                    "fromAddress": "0x72052f124841a8158d3d5b6d3d54c9fe0e25e929",
                    "gasUsed": 63413,
                    "id": 11,
                    "methodDecoded": true,
                    "operation": "CALL",
                    "output": "",
                    "revert": false,
                    "revertMessage": "",
                    "selector": "0x58e4dda2",
                    "status": true,
                    "value": "3.6"
                },
                "nodeType": 0
            },
            "12": {
                "invocation": {
                    "address": "0xd357e4940b34eb1406ef6a1af53954e641273a3b",
                    "callData": "0x000000000000000000000000ae2c7af5fc2ddf45e6250a4c5495e61afc7acf50",
                    "decodedMethod": {
                        "callParams": [
                            {
                                "name": "account",
                                "type": "address",
                                "value": "0xae2c7af5fc2ddf45e6250a4c5495e61afc7acf50"
                            }
                        ],
                        "constructorArguments": "",
                        "name": "balanceOf",
                        "returnParams": [
                            {
                                "decimalAvailable": true,
                                "name": "",
                                "type": "uint256",
                                "value": "148,551,434,380,952,380,952,375,000"
                            }
                        ],
                        "signature": "balanceOf(address)"
                    },
                    "errorInfo": "",
                    "fromAddress": "0xae2c7af5fc2ddf45e6250a4c5495e61afc7acf50",
                    "gasUsed": 2519,
                    "id": 12,
                    "methodDecoded": true,
                    "operation": "STATICCALL",
                    "output": "0x0000000000000000000000000000000000000000007ae0fd64e2a50114e96ed8",
                    "revert": false,
                    "revertMessage": "",
                    "selector": "0x70a08231",
                    "status": true,
                    "value": "0"
                },
                "nodeType": 0
            },
            "13": {
                "invocation": {
                    "address": "0x1d13502cfb73fca360d1af7703cd3f47aba809b5",
                    "callData": "0x",
                    "decodedMethod": null,
                    "errorInfo": "",
                    "fromAddress": "0xae2c7af5fc2ddf45e6250a4c5495e61afc7acf50",
                    "gasUsed": 0,
                    "id": 13,
                    "methodDecoded": false,
                    "operation": "CALL",
                    "output": "",
                    "revert": false,
                    "revertMessage": "",
                    "selector": "fallback",
                    "status": true,
                    "value": "3.6"
                },
                "nodeType": 0
            },
            "14": {
                "invocation": {
                    "address": "0xd357e4940b34eb1406ef6a1af53954e641273a3b",
                    "callData": "0x00000000000000000000000072052f124841a8158d3d5b6d3d54c9fe0e25e9290000000000000000000000000000000000000000000003cfc82e37e9a7400000",
                    "decodedMethod": {
                        "callParams": [
                            {
                                "name": "recipient",
                                "type": "address",
                                "value": "0x72052f124841a8158d3d5b6d3d54c9fe0e25e929"
                            },
                            {
                                "decimalAvailable": true,
                                "name": "amount",
                                "type": "uint256",
                                "value": "18,000,000,000,000,000,000,000"
                            }
                        ],
                        "constructorArguments": "",
                        "name": "transfer",
                        "returnParams": [
                            {
                                "name": "",
                                "type": "bool",
                                "value": true
                            }
                        ],
                        "signature": "transfer(address,uint256)"
                    },
                    "errorInfo": "",
                    "fromAddress": "0xae2c7af5fc2ddf45e6250a4c5495e61afc7acf50",
                    "gasUsed": 28156,
                    "id": 14,
                    "methodDecoded": true,
                    "operation": "CALL",
                    "output": "0x0000000000000000000000000000000000000000000000000000000000000001",
                    "revert": false,
                    "revertMessage": "",
                    "selector": "0xa9059cbb",
                    "status": true,
                    "value": "0"
                },
                "nodeType": 0
            },
            "15": {
                "event": {
                    "contract": "0xd357e4940b34eb1406ef6a1af53954e641273a3b",
                    "decodedLog": {
                        "name": "Transfer",
                        "params": [
                            {
                                "name": "from",
                                "type": "address",
                                "value": "0xae2c7af5fc2ddf45e6250a4c5495e61afc7acf50"
                            },
                            {
                                "name": "to",
                                "type": "address",
                                "value": "0x72052f124841a8158d3d5b6d3d54c9fe0e25e929"
                            },
                            {
                                "decimalAvailable": true,
                                "name": "value",
                                "type": "uint256",
                                "value": "18,000,000,000,000,000,000,000"
                            }
                        ],
                        "signature": "Transfer(address,address,uint256)"
                    },
                    "id": 15,
                    "logData": "0x0000000000000000000000000000000000000000000003cfc82e37e9a7400000",
                    "logDecoded": true,
                    "operation": "EVENT",
                    "revert": false,
                    "status": true,
                    "topics": [
                        "0xddf252ad1be2c89b69c2b068fc378daa952ba7f163c4a11628f55a4df523b3ef",
                        "0x000000000000000000000000ae2c7af5fc2ddf45e6250a4c5495e61afc7acf50",
                        "0x00000000000000000000000072052f124841a8158d3d5b6d3d54c9fe0e25e929"
                    ]
                },
                "nodeType": 1
            },
            "16": {
                "invocation": {
                    "address": "0xde46fcf6ab7559e4355b8ee3d7fba0f2730cddd8",
                    "callData": "0x",
                    "decodedMethod": {
                        "callParams": [],
                        "constructorArguments": "",
                        "name": "getRID",
                        "returnParams": [
                            {
                                "name": "rid_",
                                "type": "uint256",
                                "value": "3"
                            }
                        ],
                        "signature": "getRID()"
                    },
                    "errorInfo": "",
                    "fromAddress": "0x72052f124841a8158d3d5b6d3d54c9fe0e25e929",
                    "gasUsed": 2401,
                    "id": 16,
                    "methodDecoded": true,
                    "operation": "STATICCALL",
                    "output": "0x0000000000000000000000000000000000000000000000000000000000000003",
                    "revert": false,
                    "revertMessage": "",
                    "selector": "0xe6347b71",
                    "status": true,
                    "value": "0"
                },
                "nodeType": 0
            },
            "17": {
                "invocation": {
                    "address": "0xde46fcf6ab7559e4355b8ee3d7fba0f2730cddd8",
                    "callData": "0x00000000000000000000000024a0c66f185874b251eb70bee2c2e35e39848419",
                    "decodedMethod": {
                        "callParams": [
                            {
                                "name": "parentAddr",
                                "type": "address",
                                "value": "0x24a0c66f185874b251eb70bee2c2e35e39848419"
                            }
                        ],
                        "constructorArguments": "",
                        "name": "joinGame",
                        "returnParams": [],
                        "signature": "joinGame(address)"
                    },
                    "errorInfo": "",
                    "fromAddress": "0x72052f124841a8158d3d5b6d3d54c9fe0e25e929",
                    "gasUsed": 433697,
                    "id": 17,
                    "methodDecoded": true,
                    "operation": "CALL",
                    "output": "",
                    "revert": false,
                    "revertMessage": "",
                    "selector": "0x2389a290",
                    "status": true,
                    "value": "15"
                },
                "nodeType": 0
            },
            "18": {
                "invocation": {
                    "address": "0xae2c7af5fc2ddf45e6250a4c5495e61afc7acf50",
                    "callData": "0x000000000000000000000000000000000000000000000000d02ab486cedc00000000000000000000000000000000000000000000000000000000000000000001",
                    "decodedMethod": {
                        "callParams": [
                            {
                                "name": "_value",
                                "type": "uint256",
                                "value": "15,000,000,000,000,000,000"
                            },
                            {
                                "name": "isIn_",
                                "type": "bool",
                                "value": true
                            }
                        ],
                        "constructorArguments": "",
                        "name": "calDeductionADC",
                        "returnParams": [
                            {
                                "name": "disADC_",
                                "type": "uint256",
                                "value": "3,750,000,000,000,000,000,000"
                            }
                        ],
                        "signature": "calDeductionADC(uint256,bool)"
                    },
                    "errorInfo": "",
                    "fromAddress": "0xde46fcf6ab7559e4355b8ee3d7fba0f2730cddd8",
                    "gasUsed": 1322,
                    "id": 18,
                    "methodDecoded": true,
                    "operation": "CALL",
                    "output": "0x0000000000000000000000000000000000000000000000cb49b44ba602d80000",
                    "revert": false,
                    "revertMessage": "",
                    "selector": "0x5529f8cd",
                    "status": true,
                    "value": "0"
                },
                "nodeType": 0
            },
            "19": {
                "invocation": {
                    "address": "0xd357e4940b34eb1406ef6a1af53954e641273a3b",
                    "callData": "0x00000000000000000000000072052f124841a8158d3d5b6d3d54c9fe0e25e9290000000000000000000000000000000000000000000000cb49b44ba602d80000",
                    "decodedMethod": null,
                    "errorInfo": "",
                    "fromAddress": "0xde46fcf6ab7559e4355b8ee3d7fba0f2730cddd8",
                    "gasUsed": 17244,
                    "id": 19,
                    "methodDecoded": false,
                    "operation": "CALL",
                    "output": "",
                    "revert": false,
                    "revertMessage": "",
                    "selector": "0xc3637897",
                    "status": true,
                    "value": "0"
                },
                "nodeType": 0
            },
            "2": {
                "invocation": {
                    "address": "0xc02aaa39b223fe8d0a0e5c4f27ead9083c756cc2",
                    "callData": "0x000000000000000000000000ba12222222228d8ba445958a75a0704d566bf2c8",
                    "decodedMethod": {
                        "callParams": [
                            {
                                "name": "",
                                "type": "address",
                                "value": "0xba12222222228d8ba445958a75a0704d566bf2c8"
                            }
                        ],
                        "constructorArguments": "",
                        "name": "balanceOf",
                        "returnParams": [
                            {
                                "decimalAvailable": true,
                                "name": "",
                                "type": "uint256",
                                "value": "56,422,893,166,741,160,421,542"
                            }
                        ],
                        "signature": "balanceOf(address)"
                    },
                    "errorInfo": "",
                    "fromAddress": "0xba12222222228d8ba445958a75a0704d566bf2c8",
                    "gasUsed": 2534,
                    "id": 2,
                    "methodDecoded": true,
                    "operation": "STATICCALL",
                    "output": "0x000000000000000000000000000000000000000000000bf2b0f059d9dde768a6",
                    "revert": false,
                    "revertMessage": "",
                    "selector": "0x70a08231",
                    "status": true,
                    "value": "0"
                },
                "nodeType": 0
            },
            "20": {
                "invocation": {
                    "address": "0x49e298b95bda30e6518509187ff348e01117f404",
                    "callData": "0x000000000000000000000000000000000000000000000000000000000000002000000000000000000000000000000000000000000000000000000000000000084d41494e504f4f4c000000000000000000000000000000000000000000000000",
                    "decodedMethod": {
                        "callParams": [
                            {
                                "name": "id",
                                "type": "string",
                                "value": "MAINPOOL"
                            }
                        ],
                        "constructorArguments": "",
                        "name": "getAddr",
                        "returnParams": [
                            {
                                "name": "",
                                "type": "address",
                                "value": "0xde46fcf6ab7559e4355b8ee3d7fba0f2730cddd8"
                            }
                        ],
                        "signature": "getAddr(string)"
                    },
                    "errorInfo": "",
                    "fromAddress": "0xd357e4940b34eb1406ef6a1af53954e641273a3b",
                    "gasUsed": 5753,
                    "id": 20,
                    "methodDecoded": true,
                    "operation": "STATICCALL",
                    "output": "0x000000000000000000000000de46fcf6ab7559e4355b8ee3d7fba0f2730cddd8",
                    "revert": false,
                    "revertMessage": "",
                    "selector": "0xd502db97",
                    "status": true,
                    "value": "0"
                },
                "nodeType": 0
            },
            "21": {
                "invocation": {
                    "address": "0xde46fcf6ab7559e4355b8ee3d7fba0f2730cddd8",
                    "callData": "0x0000000000000000000000000000000000000000000000000000000000000003",
                    "decodedMethod": {
                        "callParams": [
                            {
                                "name": "",
                                "type": "uint256",
                                "value": "3"
                            }
                        ],
                        "constructorArguments": "",
                        "name": "mainPoolWithdrawBalance",
                        "returnParams": [
                            {
                                "name": "",
                                "type": "uint256",
                                "value": "36,100,000,000,000,000,000"
                            }
                        ],
                        "signature": "mainPoolWithdrawBalance(uint256)"
                    },
                    "errorInfo": "",
                    "fromAddress": "0x72052f124841a8158d3d5b6d3d54c9fe0e25e929",
                    "gasUsed": 552,
                    "id": 21,
                    "methodDecoded": true,
                    "operation": "STATICCALL",
                    "output": "0x000000000000000000000000000000000000000000000001f4fcf6bbe79a0000",
                    "revert": false,
                    "revertMessage": "",
                    "selector": "0xa9da1fb9",
                    "status": true,
                    "value": "0"
                },
                "nodeType": 0
            },
            "22": {
                "invocation": {
                    "address": "0xde46fcf6ab7559e4355b8ee3d7fba0f2730cddd8",
                    "callData": "0x00000000000000000000000072052f124841a8158d3d5b6d3d54c9fe0e25e929",
                    "decodedMethod": {
                        "callParams": [
                            {
                                "name": "",
                                "type": "address",
                                "value": "0x72052f124841a8158d3d5b6d3d54c9fe0e25e929"
                            }
                        ],
                        "constructorArguments": "",
                        "name": "plyrID",
                        "returnParams": [
                            {
                                "name": "",
                                "type": "uint256",
                                "value": "529"
                            }
                        ],
                        "signature": "plyrID(address)"
                    },
                    "errorInfo": "",
                    "fromAddress": "0x72052f124841a8158d3d5b6d3d54c9fe0e25e929",
                    "gasUsed": 516,
                    "id": 22,
                    "methodDecoded": true,
                    "operation": "STATICCALL",
                    "output": "0x0000000000000000000000000000000000000000000000000000000000000211",
                    "revert": false,
                    "revertMessage": "",
                    "selector": "0x02e79a0d",
                    "status": true,
                    "value": "0"
                },
                "nodeType": 0
            },
            "23": {
                "invocation": {
                    "address": "0xde46fcf6ab7559e4355b8ee3d7fba0f2730cddd8",
                    "callData": "0x0000000000000000000000000000000000000000000000000000000000000211000000000000000000000000000000000000000000000001f4fcf6bbe799ff9c0000000000000000000000000000000000000000000000000000000000000064",
                    "decodedMethod": {
                        "callParams": [
                            {
                                "name": "pid_",
                                "type": "uint256",
                                "value": "529"
                            },
                            {
                                "name": "value_",
                                "type": "uint256",
                                "value": "36,099,999,999,999,999,900"
                            },
                            {
                                "name": "dividendAccount_",
                                "type": "uint8",
                                "value": "100"
                            }
                        ],
                        "constructorArguments": "",
                        "name": "calcStepIncome",
                        "returnParams": [],
                        "signature": "calcStepIncome(uint256,uint256,uint8)"
                    },
                    "errorInfo": "",
                    "fromAddress": "0x72052f124841a8158d3d5b6d3d54c9fe0e25e929",
                    "gasUsed": 47148,
                    "id": 23,
                    "methodDecoded": true,
                    "operation": "CALL",
                    "output": "",
                    "revert": false,
                    "revertMessage": "",
                    "selector": "0xaed3d0dd",
                    "status": true,
                    "value": "0"
                },
                "nodeType": 0
            },
            "24": {
                "invocation": {
                    "address": "0x72052f124841a8158d3d5b6d3d54c9fe0e25e929",
                    "callData": "0x",
                    "decodedMethod": {
                        "callParams": [],
                        "constructorArguments": "",
                        "name": "startWithdraw",
                        "returnParams": [],
                        "signature": "startWithdraw()"
                    },
                    "errorInfo": "",
                    "fromAddress": "0x2ffdce5f0c09a8ee3a568bc01f35894b2d77a6d6",
                    "gasUsed": 108908,
                    "id": 24,
                    "methodDecoded": true,
                    "operation": "CALL",
                    "output": "",
                    "revert": false,
                    "revertMessage": "",
                    "selector": "0x90ed6bf4",
                    "status": true,
                    "value": "0"
                },
                "nodeType": 0
            },
            "25": {
                "invocation": {
                    "address": "0xde46fcf6ab7559e4355b8ee3d7fba0f2730cddd8",
                    "callData": "0x",
                    "decodedMethod": {
                        "callParams": [],
                        "constructorArguments": "",
                        "name": "withdraw",
                        "returnParams": [],
                        "signature": "withdraw()"
                    },
                    "errorInfo": "",
                    "fromAddress": "0x72052f124841a8158d3d5b6d3d54c9fe0e25e929",
                    "gasUsed": 101157,
                    "id": 25,
                    "methodDecoded": true,
                    "operation": "CALL",
                    "output": "",
                    "revert": false,
                    "revertMessage": "",
                    "selector": "0x3ccfd60b",
                    "status": true,
                    "value": "0"
                },
                "nodeType": 0
            },
            "26": {
                "invocation": {
                    "address": "0xae2c7af5fc2ddf45e6250a4c5495e61afc7acf50",
                    "callData": "0x000000000000000000000000000000000000000000000001f4fcf6bbe799ff9c0000000000000000000000000000000000000000000000000000000000000000",
                    "decodedMethod": {
                        "callParams": [
                            {
                                "name": "_value",
                                "type": "uint256",
                                "value": "36,099,999,999,999,999,900"
                            },
                            {
                                "name": "isIn_",
                                "type": "bool",
                                "value": false
                            }
                        ],
                        "constructorArguments": "",
                        "name": "calDeductionADC",
                        "returnParams": [
                            {
                                "name": "disADC_",
                                "type": "uint256",
                                "value": "9,024,999,999,999,999,975,000"
                            }
                        ],
                        "signature": "calDeductionADC(uint256,bool)"
                    },
                    "errorInfo": "",
                    "fromAddress": "0xde46fcf6ab7559e4355b8ee3d7fba0f2730cddd8",
                    "gasUsed": 1312,
                    "id": 26,
                    "methodDecoded": true,
                    "operation": "CALL",
                    "output": "0x0000000000000000000000000000000000000000000001e93f08f3802c639e58",
                    "revert": false,
                    "revertMessage": "",
                    "selector": "0x5529f8cd",
                    "status": true,
                    "value": "0"
                },
                "nodeType": 0
            },
            "27": {
                "invocation": {
                    "address": "0xd357e4940b34eb1406ef6a1af53954e641273a3b",
                    "callData": "0x00000000000000000000000072052f124841a8158d3d5b6d3d54c9fe0e25e929",
                    "decodedMethod": {
                        "callParams": [
                            {
                                "name": "account",
                                "type": "address",
                                "value": "0x72052f124841a8158d3d5b6d3d54c9fe0e25e929"
                            }
                        ],
                        "constructorArguments": "",
                        "name": "balanceOf",
                        "returnParams": [
                            {
                                "decimalAvailable": true,
                                "name": "",
                                "type": "uint256",
                                "value": "14,250,000,000,000,000,000,000"
                            }
                        ],
                        "signature": "balanceOf(address)"
                    },
                    "errorInfo": "",
                    "fromAddress": "0xde46fcf6ab7559e4355b8ee3d7fba0f2730cddd8",
                    "gasUsed": 519,
                    "id": 27,
                    "methodDecoded": true,
                    "operation": "STATICCALL",
                    "output": "0x0000000000000000000000000000000000000000000003047e79ec43a4680000",
                    "revert": false,
                    "revertMessage": "",
                    "selector": "0x70a08231",
                    "status": true,
                    "value": "0"
                },
                "nodeType": 0
            },
            "28": {
                "invocation": {
                    "address": "0xd357e4940b34eb1406ef6a1af53954e641273a3b",
                    "callData": "0x00000000000000000000000072052f124841a8158d3d5b6d3d54c9fe0e25e9290000000000000000000000000000000000000000000001e93f08f3802c639e58",
                    "decodedMethod": null,
                    "errorInfo": "",
                    "fromAddress": "0xde46fcf6ab7559e4355b8ee3d7fba0f2730cddd8",
                    "gasUsed": 3944,
                    "id": 28,
                    "methodDecoded": false,
                    "operation": "CALL",
                    "output": "",
                    "revert": false,
                    "revertMessage": "",
                    "selector": "0xc3637897",
                    "status": true,
                    "value": "0"
                },
                "nodeType": 0
            },
            "29": {
                "invocation": {
                    "address": "0x49e298b95bda30e6518509187ff348e01117f404",
                    "callData": "0x000000000000000000000000000000000000000000000000000000000000002000000000000000000000000000000000000000000000000000000000000000084d41494e504f4f4c000000000000000000000000000000000000000000000000",
                    "decodedMethod": {
                        "callParams": [
                            {
                                "name": "id",
                                "type": "string",
                                "value": "MAINPOOL"
                            }
                        ],
                        "constructorArguments": "",
                        "name": "getAddr",
                        "returnParams": [
                            {
                                "name": "",
                                "type": "address",
                                "value": "0xde46fcf6ab7559e4355b8ee3d7fba0f2730cddd8"
                            }
                        ],
                        "signature": "getAddr(string)"
                    },
                    "errorInfo": "",
                    "fromAddress": "0xd357e4940b34eb1406ef6a1af53954e641273a3b",
                    "gasUsed": 1753,
                    "id": 29,
                    "methodDecoded": true,
                    "operation": "STATICCALL",
                    "output": "0x000000000000000000000000de46fcf6ab7559e4355b8ee3d7fba0f2730cddd8",
                    "revert": false,
                    "revertMessage": "",
                    "selector": "0xd502db97",
                    "status": true,
                    "value": "0"
                },
                "nodeType": 0
            },
            "3": {
                "invocation": {
                    "address": "0xce88686553686da562ce7cea497ce749da109f9f",
                    "callData": "0x",
                    "decodedMethod": {
                        "callParams": [],
                        "constructorArguments": "",
                        "name": "getFlashLoanFeePercentage",
                        "returnParams": [
                            {
                                "name": "",
                                "type": "uint256",
                                "value": "0"
                            }
                        ],
                        "signature": "getFlashLoanFeePercentage()"
                    },
                    "errorInfo": "",
                    "fromAddress": "0xba12222222228d8ba445958a75a0704d566bf2c8",
                    "gasUsed": 2350,
                    "id": 3,
                    "methodDecoded": true,
                    "operation": "STATICCALL",
                    "output": "0x0000000000000000000000000000000000000000000000000000000000000000",
                    "revert": false,
                    "revertMessage": "",
                    "selector": "0xd877845c",
                    "status": true,
                    "value": "0"
                },
                "nodeType": 0
            },
            "30": {
                "invocation": {
                    "address": "0x72052f124841a8158d3d5b6d3d54c9fe0e25e929",
                    "callData": "0x",
                    "decodedMethod": null,
                    "errorInfo": "",
                    "fromAddress": "0xde46fcf6ab7559e4355b8ee3d7fba0f2730cddd8",
                    "gasUsed": 55,
                    "id": 30,
                    "methodDecoded": false,
                    "operation": "CALL",
                    "output": "",
                    "revert": false,
                    "revertMessage": "",
                    "selector": "fallback",
                    "status": true,
                    "value": "36.0999999999999999"
                },
                "nodeType": 0
            },
            "31": {
                "invocation": {
                    "address": "0x2ffdce5f0c09a8ee3a568bc01f35894b2d77a6d6",
                    "callData": "0x",
                    "decodedMethod": null,
                    "errorInfo": "",
                    "fromAddress": "0x72052f124841a8158d3d5b6d3d54c9fe0e25e929",
                    "gasUsed": 55,
                    "id": 31,
                    "methodDecoded": false,
                    "operation": "CALL",
                    "output": "",
                    "revert": false,
                    "revertMessage": "",
                    "selector": "fallback",
                    "status": true,
                    "value": "36.0999999999999999"
                },
                "nodeType": 0
            },
            "32": {
                "invocation": {
                    "address": "0xc02aaa39b223fe8d0a0e5c4f27ead9083c756cc2",
                    "callData": "0x",
                    "decodedMethod": {
                        "callParams": [],
                        "constructorArguments": "",
                        "name": "deposit",
                        "returnParams": [],
                        "signature": "deposit()"
                    },
                    "errorInfo": "",
                    "fromAddress": "0x2ffdce5f0c09a8ee3a568bc01f35894b2d77a6d6",
                    "gasUsed": 21974,
                    "id": 32,
                    "methodDecoded": true,
                    "operation": "CALL",
                    "output": "",
                    "revert": false,
                    "revertMessage": "",
                    "selector": "0xd0e30db0",
                    "status": true,
                    "value": "18.6"
                },
                "nodeType": 0
            },
            "33": {
                "event": {
                    "contract": "0xc02aaa39b223fe8d0a0e5c4f27ead9083c756cc2",
                    "decodedLog": {
                        "name": "Deposit",
                        "params": [
                            {
                                "name": "dst",
                                "type": "address",
                                "value": "0x2ffdce5f0c09a8ee3a568bc01f35894b2d77a6d6"
                            },
                            {
                                "name": "wad",
                                "type": "uint256",
                                "value": "18,600,000,000,000,000,000"
                            }
                        ],
                        "signature": "Deposit(address,uint256)"
                    },
                    "id": 33,
                    "logData": "0x00000000000000000000000000000000000000000000000102207973f6440000",
                    "logDecoded": true,
                    "operation": "EVENT",
                    "revert": false,
                    "status": true,
                    "topics": [
                        "0xe1fffcc4923d04b559f4d29a8bfc6cda04eb5b0d3c460751c2402c5c5cc9109c",
                        "0x0000000000000000000000002ffdce5f0c09a8ee3a568bc01f35894b2d77a6d6"
                    ]
                },
                "nodeType": 1
            },
            "34": {
                "invocation": {
                    "address": "0xc02aaa39b223fe8d0a0e5c4f27ead9083c756cc2",
                    "callData": "0x000000000000000000000000ba12222222228d8ba445958a75a0704d566bf2c800000000000000000000000000000000000000000000000102207973f6440000",
                    "decodedMethod": {
                        "callParams": [
                            {
                                "name": "dst",
                                "type": "address",
                                "value": "0xba12222222228d8ba445958a75a0704d566bf2c8"
                            },
                            {
                                "decimalAvailable": true,
                                "name": "wad",
                                "type": "uint256",
                                "value": "18,600,000,000,000,000,000"
                            }
                        ],
                        "constructorArguments": "",
                        "name": "transfer",
                        "returnParams": [
                            {
                                "name": "",
                                "type": "bool",
                                "value": true
                            }
                        ],
                        "signature": "transfer(address,uint256)"
                    },
                    "errorInfo": "",
                    "fromAddress": "0x2ffdce5f0c09a8ee3a568bc01f35894b2d77a6d6",
                    "gasUsed": 3262,
                    "id": 34,
                    "methodDecoded": true,
                    "operation": "CALL",
                    "output": "0x0000000000000000000000000000000000000000000000000000000000000001",
                    "revert": false,
                    "revertMessage": "",
                    "selector": "0xa9059cbb",
                    "status": true,
                    "value": "0"
                },
                "nodeType": 0
            },
            "35": {
                "event": {
                    "contract": "0xc02aaa39b223fe8d0a0e5c4f27ead9083c756cc2",
                    "decodedLog": {
                        "name": "Transfer",
                        "params": [
                            {
                                "name": "src",
                                "type": "address",
                                "value": "0x2ffdce5f0c09a8ee3a568bc01f35894b2d77a6d6"
                            },
                            {
                                "name": "dst",
                                "type": "address",
                                "value": "0xba12222222228d8ba445958a75a0704d566bf2c8"
                            },
                            {
                                "decimalAvailable": true,
                                "name": "wad",
                                "type": "uint256",
                                "value": "18,600,000,000,000,000,000"
                            }
                        ],
                        "signature": "Transfer(address,address,uint256)"
                    },
                    "id": 35,
                    "logData": "0x00000000000000000000000000000000000000000000000102207973f6440000",
                    "logDecoded": true,
                    "operation": "EVENT",
                    "revert": false,
                    "status": true,
                    "topics": [
                        "0xddf252ad1be2c89b69c2b068fc378daa952ba7f163c4a11628f55a4df523b3ef",
                        "0x0000000000000000000000002ffdce5f0c09a8ee3a568bc01f35894b2d77a6d6",
                        "0x000000000000000000000000ba12222222228d8ba445958a75a0704d566bf2c8"
                    ]
                },
                "nodeType": 1
            },
            "36": {
                "invocation": {
                    "address": "0xc02aaa39b223fe8d0a0e5c4f27ead9083c756cc2",
                    "callData": "0x000000000000000000000000ba12222222228d8ba445958a75a0704d566bf2c8",
                    "decodedMethod": {
                        "callParams": [
                            {
                                "name": "",
                                "type": "address",
                                "value": "0xba12222222228d8ba445958a75a0704d566bf2c8"
                            }
                        ],
                        "constructorArguments": "",
                        "name": "balanceOf",
                        "returnParams": [
                            {
                                "decimalAvailable": true,
                                "name": "",
                                "type": "uint256",
                                "value": "56,422,893,166,741,160,421,542"
                            }
                        ],
                        "signature": "balanceOf(address)"
                    },
                    "errorInfo": "",
                    "fromAddress": "0xba12222222228d8ba445958a75a0704d566bf2c8",
                    "gasUsed": 534,
                    "id": 36,
                    "methodDecoded": true,
                    "operation": "STATICCALL",
                    "output": "0x000000000000000000000000000000000000000000000bf2b0f059d9dde768a6",
                    "revert": false,
                    "revertMessage": "",
                    "selector": "0x70a08231",
                    "status": true,
                    "value": "0"
                },
                "nodeType": 0
            },
            "37": {
                "event": {
                    "contract": "0xba12222222228d8ba445958a75a0704d566bf2c8",
                    "decodedLog": {
                        "name": "FlashLoan",
                        "params": [
                            {
                                "name": "recipient",
                                "type": "address",
                                "value": "0x2ffdce5f0c09a8ee3a568bc01f35894b2d77a6d6"
                            },
                            {
                                "name": "token",
                                "type": "address",
                                "value": "0xc02aaa39b223fe8d0a0e5c4f27ead9083c756cc2"
                            },
                            {
                                "name": "amount",
                                "type": "uint256",
                                "value": "18,600,000,000,000,000,000"
                            },
                            {
                                "name": "feeAmount",
                                "type": "uint256",
                                "value": "0"
                            }
                        ],
                        "signature": "FlashLoan(address,address,uint256,uint256)"
                    },
                    "id": 37,
                    "logData": "0x00000000000000000000000000000000000000000000000102207973f64400000000000000000000000000000000000000000000000000000000000000000000",
                    "logDecoded": true,
                    "operation": "EVENT",
                    "revert": false,
                    "status": true,
                    "topics": [
                        "0x0d7d75e01ab95780d3cd1c8ec0dd6c2ce19e3a20427eec8bf53283b6fb8e95f0",
                        "0x0000000000000000000000002ffdce5f0c09a8ee3a568bc01f35894b2d77a6d6",
                        "0x000000000000000000000000c02aaa39b223fe8d0a0e5c4f27ead9083c756cc2"
                    ]
                },
                "nodeType": 1
            },
            "4": {
                "invocation": {
                    "address": "0xc02aaa39b223fe8d0a0e5c4f27ead9083c756cc2",
                    "callData": "0x0000000000000000000000002ffdce5f0c09a8ee3a568bc01f35894b2d77a6d600000000000000000000000000000000000000000000000102207973f6440000",
                    "decodedMethod": {
                        "callParams": [
                            {
                                "name": "dst",
                                "type": "address",
                                "value": "0x2ffdce5f0c09a8ee3a568bc01f35894b2d77a6d6"
                            },
                            {
                                "decimalAvailable": true,
                                "name": "wad",
                                "type": "uint256",
                                "value": "18,600,000,000,000,000,000"
                            }
                        ],
                        "constructorArguments": "",
                        "name": "transfer",
                        "returnParams": [
                            {
                                "name": "",
                                "type": "bool",
                                "value": true
                            }
                        ],
                        "signature": "transfer(address,uint256)"
                    },
                    "errorInfo": "",
                    "fromAddress": "0xba12222222228d8ba445958a75a0704d566bf2c8",
                    "gasUsed": 27962,
                    "id": 4,
                    "methodDecoded": true,
                    "operation": "CALL",
                    "output": "0x0000000000000000000000000000000000000000000000000000000000000001",
                    "revert": false,
                    "revertMessage": "",
                    "selector": "0xa9059cbb",
                    "status": true,
                    "value": "0"
                },
                "nodeType": 0
            },
            "5": {
                "event": {
                    "contract": "0xc02aaa39b223fe8d0a0e5c4f27ead9083c756cc2",
                    "decodedLog": {
                        "name": "Transfer",
                        "params": [
                            {
                                "name": "src",
                                "type": "address",
                                "value": "0xba12222222228d8ba445958a75a0704d566bf2c8"
                            },
                            {
                                "name": "dst",
                                "type": "address",
                                "value": "0x2ffdce5f0c09a8ee3a568bc01f35894b2d77a6d6"
                            },
                            {
                                "decimalAvailable": true,
                                "name": "wad",
                                "type": "uint256",
                                "value": "18,600,000,000,000,000,000"
                            }
                        ],
                        "signature": "Transfer(address,address,uint256)"
                    },
                    "id": 5,
                    "logData": "0x00000000000000000000000000000000000000000000000102207973f6440000",
                    "logDecoded": true,
                    "operation": "EVENT",
                    "revert": false,
                    "status": true,
                    "topics": [
                        "0xddf252ad1be2c89b69c2b068fc378daa952ba7f163c4a11628f55a4df523b3ef",
                        "0x000000000000000000000000ba12222222228d8ba445958a75a0704d566bf2c8",
                        "0x0000000000000000000000002ffdce5f0c09a8ee3a568bc01f35894b2d77a6d6"
                    ]
                },
                "nodeType": 1
            },
            "6": {
                "invocation": {
                    "address": "0x2ffdce5f0c09a8ee3a568bc01f35894b2d77a6d6",
                    "callData": "0x000000000000000000000000000000000000000000000000000000000000008000000000000000000000000000000000000000000000000000000000000000c0000000000000000000000000000000000000000000000000000000000000010000000000000000000000000000000000000000000000000000000000000001400000000000000000000000000000000000000000000000000000000000000001000000000000000000000000c02aaa39b223fe8d0a0e5c4f27ead9083c756cc2000000000000000000000000000000000000000000000000000000000000000100000000000000000000000000000000000000000000000102207973f644000000000000000000000000000000000000000000000000000000000000000000010000000000000000000000000000000000000000000000000000000000000000000000000000000000000000000000000000000000000000000000000000002000000000000000000000000000000000000000000000000031f5c4ed27680000",
                    "decodedMethod": {
                        "callParams": [
                            {
                                "name": "tokens",
                                "type": "address[]",
                                "value": [
                                    "0xc02aaa39b223fe8d0a0e5c4f27ead9083c756cc2"
                                ]
                            },
                            {
                                "name": "amounts",
                                "type": "uint256[]",
                                "value": [
                                    "18,600,000,000,000,000,000"
                                ]
                            },
                            {
                                "name": "feeAmounts",
                                "type": "uint256[]",
                                "value": [
                                    "0"
                                ]
                            },
                            {
                                "name": "userData",
                                "type": "bytes",
                                "value": "0x00000000000000000000000000000000000000000000000031f5c4ed27680000"
                            }
                        ],
                        "constructorArguments": "",
                        "name": "receiveFlashLoan",
                        "returnParams": [],
                        "signature": "receiveFlashLoan(address[],uint256[],uint256[],bytes)"
                    },
                    "errorInfo": "",
                    "fromAddress": "0xba12222222228d8ba445958a75a0704d566bf2c8",
                    "gasUsed": 1099399,
                    "id": 6,
                    "methodDecoded": true,
                    "operation": "CALL",
                    "output": "",
                    "revert": false,
                    "revertMessage": "",
                    "selector": "0xf04f2707",
                    "status": true,
                    "value": "0"
                },
                "nodeType": 0
            },
            "7": {
                "invocation": {
                    "address": "0xc02aaa39b223fe8d0a0e5c4f27ead9083c756cc2",
                    "callData": "0x00000000000000000000000000000000000000000000000102207973f6440000",
                    "decodedMethod": {
                        "callParams": [
                            {
                                "name": "wad",
                                "type": "uint256",
                                "value": "18,600,000,000,000,000,000"
                            }
                        ],
                        "constructorArguments": "",
                        "name": "withdraw",
                        "returnParams": [],
                        "signature": "withdraw(uint256)"
                    },
                    "errorInfo": "",
                    "fromAddress": "0x2ffdce5f0c09a8ee3a568bc01f35894b2d77a6d6",
                    "gasUsed": 9195,
                    "id": 7,
                    "methodDecoded": true,
                    "operation": "CALL",
                    "output": "",
                    "revert": false,
                    "revertMessage": "",
                    "selector": "0x2e1a7d4d",
                    "status": true,
                    "value": "0"
                },
                "nodeType": 0
            },
            "8": {
                "invocation": {
                    "address": "0x2ffdce5f0c09a8ee3a568bc01f35894b2d77a6d6",
                    "callData": "0x",
                    "decodedMethod": null,
                    "errorInfo": "",
                    "fromAddress": "0xc02aaa39b223fe8d0a0e5c4f27ead9083c756cc2",
                    "gasUsed": 55,
                    "id": 8,
                    "methodDecoded": false,
                    "operation": "CALL",
                    "output": "",
                    "revert": false,
                    "revertMessage": "",
                    "selector": "fallback",
                    "status": true,
                    "value": "18.6"
                },
                "nodeType": 0
            },
            "9": {
                "event": {
                    "contract": "0xc02aaa39b223fe8d0a0e5c4f27ead9083c756cc2",
                    "decodedLog": {
                        "name": "Withdrawal",
                        "params": [
                            {
                                "name": "src",
                                "type": "address",
                                "value": "0x2ffdce5f0c09a8ee3a568bc01f35894b2d77a6d6"
                            },
                            {
                                "name": "wad",
                                "type": "uint256",
                                "value": "18,600,000,000,000,000,000"
                            }
                        ],
                        "signature": "Withdrawal(address,uint256)"
                    },
                    "id": 9,
                    "logData": "0x00000000000000000000000000000000000000000000000102207973f6440000",
                    "logDecoded": true,
                    "operation": "EVENT",
                    "revert": false,
                    "status": true,
                    "topics": [
                        "0x7fcf532c15f0a6db0bd6d0e038bea71d30d808c7d98cb3bf7268a95bf5081b65",
                        "0x0000000000000000000000002ffdce5f0c09a8ee3a568bc01f35894b2d77a6d6"
                    ]
                },
                "nodeType": 1
            }
        },
        "gasFlame": [
            {
                "children": [
                    {
                        "children": [
                            {
                                "children": [],
                                "depth": 0,
                                "name": "Initial Gas",
                                "value": 21844
                            },
                            {
                                "children": [
                                    {
                                        "children": [
                                            {
                                                "children": [],
                                                "depth": 2,
                                                "name": "balanceOf",
                                                "value": 2534
                                            },
                                            {
                                                "children": [],
                                                "depth": 2,
                                                "name": "getFlashLoanFeePercentage",
                                                "value": 2350
                                            },
                                            {
                                                "children": [],
                                                "depth": 2,
                                                "name": "transfer",
                                                "value": 27962
                                            },
                                            {
                                                "children": [
                                                    {
                                                        "children": [
                                                            {
                                                                "children": [],
                                                                "depth": 4,
                                                                "name": "fallback",
                                                                "value": 55
                                                            }
                                                        ],
                                                        "depth": 3,
                                                        "name": "withdraw",
                                                        "value": 9195
                                                    },
                                                    {
                                                        "children": [
                                                            {
                                                                "children": [
                                                                    {
                                                                        "children": [],
                                                                        "depth": 5,
                                                                        "name": "balanceOf",
                                                                        "value": 2519
                                                                    },
                                                                    {
                                                                        "children": [],
                                                                        "depth": 5,
                                                                        "name": "fallback",
                                                                        "value": 0
                                                                    },
                                                                    {
                                                                        "children": [],
                                                                        "depth": 5,
                                                                        "name": "transfer",
                                                                        "value": 28156
                                                                    }
                                                                ],
                                                                "depth": 4,
                                                                "name": "buyADC",
                                                                "value": 63413
                                                            },
                                                            {
                                                                "children": [],
                                                                "depth": 4,
                                                                "name": "getRID",
                                                                "value": 2401
                                                            },
                                                            {
                                                                "children": [
                                                                    {
                                                                        "children": [],
                                                                        "depth": 5,
                                                                        "name": "calDeductionADC",
                                                                        "value": 1322
                                                                    },
                                                                    {
                                                                        "children": [
                                                                            {
                                                                                "children": [],
                                                                                "depth": 6,
                                                                                "name": "getAddr",
                                                                                "value": 5753
                                                                            }
                                                                        ],
                                                                        "depth": 5,
                                                                        "name": "0xc3637897",
                                                                        "value": 17244
                                                                    }
                                                                ],
                                                                "depth": 4,
                                                                "name": "joinGame",
                                                                "value": 433697
                                                            },
                                                            {
                                                                "children": [],
                                                                "depth": 4,
                                                                "name": "mainPoolWithdrawBalance",
                                                                "value": 552
                                                            },
                                                            {
                                                                "children": [],
                                                                "depth": 4,
                                                                "name": "plyrID",
                                                                "value": 516
                                                            },
                                                            {
                                                                "children": [],
                                                                "depth": 4,
                                                                "name": "calcStepIncome",
                                                                "value": 47148
                                                            }
                                                        ],
                                                        "depth": 3,
                                                        "name": "contract creation",
                                                        "value": 906841
                                                    },
                                                    {
                                                        "children": [
                                                            {
                                                                "children": [
                                                                    {
                                                                        "children": [],
                                                                        "depth": 5,
                                                                        "name": "calDeductionADC",
                                                                        "value": 1312
                                                                    },
                                                                    {
                                                                        "children": [],
                                                                        "depth": 5,
                                                                        "name": "balanceOf",
                                                                        "value": 519
                                                                    },
                                                                    {
                                                                        "children": [
                                                                            {
                                                                                "children": [],
                                                                                "depth": 6,
                                                                                "name": "getAddr",
                                                                                "value": 1753
                                                                            }
                                                                        ],
                                                                        "depth": 5,
                                                                        "name": "0xc3637897",
                                                                        "value": 3944
                                                                    },
                                                                    {
                                                                        "children": [],
                                                                        "depth": 5,
                                                                        "name": "fallback",
                                                                        "value": 55
                                                                    }
                                                                ],
                                                                "depth": 4,
                                                                "name": "withdraw",
                                                                "value": 101157
                                                            },
                                                            {
                                                                "children": [],
                                                                "depth": 4,
                                                                "name": "fallback",
                                                                "value": 55
                                                            }
                                                        ],
                                                        "depth": 3,
                                                        "name": "startWithdraw",
                                                        "value": 108908
                                                    },
                                                    {
                                                        "children": [],
                                                        "depth": 3,
                                                        "name": "deposit",
                                                        "value": 21974
                                                    },
                                                    {
                                                        "children": [],
                                                        "depth": 3,
                                                        "name": "transfer",
                                                        "value": 3262
                                                    }
                                                ],
                                                "depth": 2,
                                                "name": "receiveFlashLoan",
                                                "value": 1099399
                                            },
                                            {
                                                "children": [],
                                                "depth": 2,
                                                "name": "balanceOf",
                                                "value": 534
                                            }
                                        ],
                                        "depth": 1,
                                        "name": "flashLoan",
                                        "value": 1153284
                                    }
                                ],
                                "depth": 0,
                                "name": "Executed Gas",
                                "value": 1171498
                            }
                        ],
                        "depth": -1,
                        "name": "Actual Gas Used",
                        "value": 1128042
                    },
                    {
                        "children": [],
                        "depth": -1,
                        "name": "Refunded Gas",
                        "value": 65300
                    }
                ],
                "depth": -2,
                "name": "Total Gas",
                "value": 1193342
            }
        ],
        "isConfirmed": true,
        "mainTrace": [
            {
                "children": [
                    {
                        "children": [
                            {
                                "children": [
                                    {
                                        "children": [],
                                        "depth": 2,
                                        "id": 2,
                                        "order": 2
                                    },
                                    {
                                        "children": [],
                                        "depth": 2,
                                        "id": 3,
                                        "order": 3
                                    },
                                    {
                                        "children": [
                                            {
                                                "children": [],
                                                "depth": 3,
                                                "id": 5,
                                                "order": 5
                                            }
                                        ],
                                        "depth": 2,
                                        "id": 4,
                                        "order": 4
                                    },
                                    {
                                        "children": [
                                            {
                                                "children": [
                                                    {
                                                        "children": [],
                                                        "depth": 4,
                                                        "id": 8,
                                                        "order": 8
                                                    },
                                                    {
                                                        "children": [],
                                                        "depth": 4,
                                                        "id": 9,
                                                        "order": 9
                                                    }
                                                ],
                                                "depth": 3,
                                                "id": 7,
                                                "order": 7
                                            },
                                            {
                                                "children": [
                                                    {
                                                        "children": [
                                                            {
                                                                "children": [],
                                                                "depth": 5,
                                                                "id": 12,
                                                                "order": 12
                                                            },
                                                            {
                                                                "children": [],
                                                                "depth": 5,
                                                                "id": 13,
                                                                "order": 13
                                                            },
                                                            {
                                                                "children": [
                                                                    {
                                                                        "children": [],
                                                                        "depth": 6,
                                                                        "id": 15,
                                                                        "order": 15
                                                                    }
                                                                ],
                                                                "depth": 5,
                                                                "id": 14,
                                                                "order": 14
                                                            }
                                                        ],
                                                        "depth": 4,
                                                        "id": 11,
                                                        "order": 11
                                                    },
                                                    {
                                                        "children": [],
                                                        "depth": 4,
                                                        "id": 16,
                                                        "order": 16
                                                    },
                                                    {
                                                        "children": [
                                                            {
                                                                "children": [],
                                                                "depth": 5,
                                                                "id": 18,
                                                                "order": 18
                                                            },
                                                            {
                                                                "children": [
                                                                    {
                                                                        "children": [],
                                                                        "depth": 6,
                                                                        "id": 20,
                                                                        "order": 20
                                                                    }
                                                                ],
                                                                "depth": 5,
                                                                "id": 19,
                                                                "order": 19
                                                            }
                                                        ],
                                                        "depth": 4,
                                                        "id": 17,
                                                        "order": 17
                                                    },
                                                    {
                                                        "children": [],
                                                        "depth": 4,
                                                        "id": 21,
                                                        "order": 21
                                                    },
                                                    {
                                                        "children": [],
                                                        "depth": 4,
                                                        "id": 22,
                                                        "order": 22
                                                    },
                                                    {
                                                        "children": [],
                                                        "depth": 4,
                                                        "id": 23,
                                                        "order": 23
                                                    }
                                                ],
                                                "depth": 3,
                                                "id": 10,
                                                "order": 10
                                            },
                                            {
                                                "children": [
                                                    {
                                                        "children": [
                                                            {
                                                                "children": [],
                                                                "depth": 5,
                                                                "id": 26,
                                                                "order": 26
                                                            },
                                                            {
                                                                "children": [],
                                                                "depth": 5,
                                                                "id": 27,
                                                                "order": 27
                                                            },
                                                            {
                                                                "children": [
                                                                    {
                                                                        "children": [],
                                                                        "depth": 6,
                                                                        "id": 29,
                                                                        "order": 29
                                                                    }
                                                                ],
                                                                "depth": 5,
                                                                "id": 28,
                                                                "order": 28
                                                            },
                                                            {
                                                                "children": [],
                                                                "depth": 5,
                                                                "id": 30,
                                                                "order": 30
                                                            }
                                                        ],
                                                        "depth": 4,
                                                        "id": 25,
                                                        "order": 25
                                                    },
                                                    {
                                                        "children": [],
                                                        "depth": 4,
                                                        "id": 31,
                                                        "order": 31
                                                    }
                                                ],
                                                "depth": 3,
                                                "id": 24,
                                                "order": 24
                                            },
                                            {
                                                "children": [
                                                    {
                                                        "children": [],
                                                        "depth": 4,
                                                        "id": 33,
                                                        "order": 33
                                                    }
                                                ],
                                                "depth": 3,
                                                "id": 32,
                                                "order": 32
                                            },
                                            {
                                                "children": [
                                                    {
                                                        "children": [],
                                                        "depth": 4,
                                                        "id": 35,
                                                        "order": 35
                                                    }
                                                ],
                                                "depth": 3,
                                                "id": 34,
                                                "order": 34
                                            }
                                        ],
                                        "depth": 2,
                                        "id": 6,
                                        "order": 6
                                    },
                                    {
                                        "children": [],
                                        "depth": 2,
                                        "id": 36,
                                        "order": 36
                                    },
                                    {
                                        "children": [],
                                        "depth": 2,
                                        "id": 37,
                                        "order": 37
                                    }
                                ],
                                "depth": 1,
                                "id": 1,
                                "order": 1
                            }
                        ],
                        "depth": 0,
                        "id": 0,
                        "order": 0
                    }
                ],
                "depth": -1,
                "id": -1,
                "order": -1
            }
        ],
        "mainTraceNodeCount": 38,
        "parentIdMap": {
            "0": -1,
            "1": 0,
            "10": 6,
            "11": 10,
            "12": 11,
            "13": 11,
            "14": 11,
            "15": 14,
            "16": 10,
            "17": 10,
            "18": 17,
            "19": 17,
            "2": 1,
            "20": 19,
            "21": 10,
            "22": 10,
            "23": 10,
            "24": 6,
            "25": 24,
            "26": 25,
            "27": 25,
            "28": 25,
            "29": 28,
            "3": 1,
            "30": 25,
            "31": 24,
            "32": 6,
            "33": 32,
            "34": 6,
            "35": 34,
            "36": 1,
            "37": 1,
            "4": 1,
            "5": 4,
            "6": 1,
            "7": 6,
            "8": 7,
            "9": 7
        },
        "tidyTrace": [
            {
                "children": [
                    {
                        "children": [
                            {
                                "children": [
                                    {
                                        "children": [
                                            {
                                                "children": [],
                                                "depth": 3,
                                                "id": 5,
                                                "order": 5
                                            }
                                        ],
                                        "depth": 2,
                                        "id": 4,
                                        "order": 4
                                    },
                                    {
                                        "children": [
                                            {
                                                "children": [
                                                    {
                                                        "children": [],
                                                        "depth": 4,
                                                        "id": 8,
                                                        "order": 8
                                                    },
                                                    {
                                                        "children": [],
                                                        "depth": 4,
                                                        "id": 9,
                                                        "order": 9
                                                    }
                                                ],
                                                "depth": 3,
                                                "id": 7,
                                                "order": 7
                                            },
                                            {
                                                "children": [
                                                    {
                                                        "children": [
                                                            {
                                                                "children": [],
                                                                "depth": 5,
                                                                "id": 13,
                                                                "order": 13
                                                            },
                                                            {
                                                                "children": [
                                                                    {
                                                                        "children": [],
                                                                        "depth": 6,
                                                                        "id": 15,
                                                                        "order": 15
                                                                    }
                                                                ],
                                                                "depth": 5,
                                                                "id": 14,
                                                                "order": 14
                                                            }
                                                        ],
                                                        "depth": 4,
                                                        "id": 11,
                                                        "order": 11
                                                    },
                                                    {
                                                        "children": [
                                                            {
                                                                "children": [],
                                                                "depth": 5,
                                                                "id": 18,
                                                                "order": 18
                                                            },
                                                            {
                                                                "children": [],
                                                                "depth": 5,
                                                                "id": 19,
                                                                "order": 19
                                                            }
                                                        ],
                                                        "depth": 4,
                                                        "id": 17,
                                                        "order": 17
                                                    },
                                                    {
                                                        "children": [],
                                                        "depth": 4,
                                                        "id": 23,
                                                        "order": 23
                                                    }
                                                ],
                                                "depth": 3,
                                                "id": 10,
                                                "order": 10
                                            },
                                            {
                                                "children": [
                                                    {
                                                        "children": [
                                                            {
                                                                "children": [],
                                                                "depth": 5,
                                                                "id": 26,
                                                                "order": 26
                                                            },
                                                            {
                                                                "children": [],
                                                                "depth": 5,
                                                                "id": 28,
                                                                "order": 28
                                                            },
                                                            {
                                                                "children": [],
                                                                "depth": 5,
                                                                "id": 30,
                                                                "order": 30
                                                            }
                                                        ],
                                                        "depth": 4,
                                                        "id": 25,
                                                        "order": 25
                                                    },
                                                    {
                                                        "children": [],
                                                        "depth": 4,
                                                        "id": 31,
                                                        "order": 31
                                                    }
                                                ],
                                                "depth": 3,
                                                "id": 24,
                                                "order": 24
                                            },
                                            {
                                                "children": [
                                                    {
                                                        "children": [],
                                                        "depth": 4,
                                                        "id": 33,
                                                        "order": 33
                                                    }
                                                ],
                                                "depth": 3,
                                                "id": 32,
                                                "order": 32
                                            },
                                            {
                                                "children": [
                                                    {
                                                        "children": [],
                                                        "depth": 4,
                                                        "id": 35,
                                                        "order": 35
                                                    }
                                                ],
                                                "depth": 3,
                                                "id": 34,
                                                "order": 34
                                            }
                                        ],
                                        "depth": 2,
                                        "id": 6,
                                        "order": 6
                                    },
                                    {
                                        "children": [],
                                        "depth": 2,
                                        "id": 37,
                                        "order": 37
                                    }
                                ],
                                "depth": 1,
                                "id": 1,
                                "order": 1
                            }
                        ],
                        "depth": 0,
                        "id": 0,
                        "order": 0
                    }
                ],
                "depth": -1,
                "id": -1,
                "order": -1
            }
        ],
        "tidyTraceNodeCount": 28
    },
    "state_change": {
        "stateChanges": [
            {
                "address": "0x2ffdce5f0c09a8ee3a568bc01f35894b2d77a6d6",
                "erc": "",
                "slots": [
                    {
                        "current": "0x000000000000000000000001de46fcf6ab7559e4355b8ee3d7fba0f2730cddd8",
                        "key": "0x0000000000000000000000000000000000000000000000000000000000000005",
                        "prev": "0x0000000000000000000000010000000000000000000000000000000000000000"
                    }
                ],
                "storageVariables": []
            },
            {
                "address": "0x72052f124841a8158d3d5b6d3d54c9fe0e25e929",
                "erc": "",
                "slots": [
                    {
                        "current": "0x000000000000000000000000de46fcf6ab7559e4355b8ee3d7fba0f2730cddd8",
                        "key": "0x0000000000000000000000000000000000000000000000000000000000000001",
                        "prev": "0x0000000000000000000000000000000000000000000000000000000000000000"
                    },
                    {
                        "current": "0x0000000000000000000000002ffdce5f0c09a8ee3a568bc01f35894b2d77a6d6",
                        "key": "0x0000000000000000000000000000000000000000000000000000000000000000",
                        "prev": "0x0000000000000000000000000000000000000000000000000000000000000000"
                    }
                ],
                "storageVariables": []
            },
            {
                "address": "0xae2c7af5fc2ddf45e6250a4c5495e61afc7acf50",
                "erc": "",
                "slots": [
                    {
                        "current": "0x0000000000000000000000000000000000000000000144b7a4f4c0a3faa96ed8",
                        "key": "0x2e174c10e159ea99b867ce3205125c24a42d128804e4070ed6fcc8cc98166aa0",
                        "prev": "0x0000000000000000000000000000000000000000000148876d22f88da1e96ed8"
                    },
                    {
                        "current": "0x00000000000000000000000000000000000000000003b1d501e40cedcb569128",
                        "key": "0x0000000000000000000000000000000000000000000000000000000000000005",
                        "prev": "0x00000000000000000000000000000000000000000003ae0539b5d50424169128"
                    }
                ],
                "storageVariables": [
                    {
                        "name": "totalCheckOut",
                        "type": "uint256",
                        "value": {
                            "current": "4466565619047619047625000",
                            "prev": "4448565619047619047625000",
                            "typeTag": 1
                        }
                    },
                    {
                        "name": "RemainAmount",
                        "type": "mapping(uint8 => uint256)",
                        "value": {
                            "pairs": [
                                {
                                    "key": "3",
                                    "value": {
                                        "current": "1533434380952380952375000",
                                        "prev": "1551434380952380952375000",
                                        "typeTag": 1
                                    }
                                }
                            ],
                            "typeTag": 4
                        }
                    }
                ]
            },
            {
                "address": "0xd357e4940b34eb1406ef6a1af53954e641273a3b",
                "erc": "",
                "slots": [
                    {
                        "current": "0x0000000000000000000000000000000000000000000346339cec009b15b703e8",
                        "key": "0x2a313803c1ef3cf83aa42adaff4605cfd6b5d0f9ebdf4a3781ae61c0dfe06a26",
                        "prev": "0x00000000000000000000000000000000000000000003437f142ec174e67b6590"
                    },
                    {
                        "current": "0x0000000000000000000000000000000000000000007add2d9cb46d176da96ed8",
                        "key": "0x07a2006b5c5bbbd280e2b48d663adeeb9f2c801f5a1cfde921f5c00155fb73ba",
                        "prev": "0x0000000000000000000000000000000000000000007ae0fd64e2a50114e96ed8"
                    },
                    {
                        "current": "0x00000000000000000000000000000000000000000000011b3f70f8c3780461a8",
                        "key": "0xcfacf19cc6c2047d28711dd3cc55177ac06ca153f8433eb0c45304da6ec691f9",
                        "prev": "0x0000000000000000000000000000000000000000000000000000000000000000"
                    }
                ],
                "storageVariables": []
            },
            {
                "address": "0xde46fcf6ab7559e4355b8ee3d7fba0f2730cddd8",
                "erc": "",
                "slots": [
                    {
                        "current": "0x0000000000000000000000000000000000000000000000000000000000000211",
                        "key": "0x4a11cde3ed442b3153d6bc7080c4ea3f38d27f0ae4a8e9ba5bc52655bd26e5c9",
                        "prev": "0x0000000000000000000000000000000000000000000000000000000000000000"
                    },
                    {
                        "current": "0x0000000000000000000000000000000000000000000000000000000000000211",
                        "key": "0x0f36ad39aee03e7108cc48f54934702a5f0d4066f10344cebf8198978d86976d",
                        "prev": "0x0000000000000000000000000000000000000000000000000000000000000000"
                    },
                    {
                        "current": "0x0000000000000000000000000000000000000000000000000000000000000001",
                        "key": "0x0f36ad39aee03e7108cc48f54934702a5f0d4066f10344cebf8198978d869771",
                        "prev": "0x0000000000000000000000000000000000000000000000000000000000000000"
                    },
                    {
                        "current": "0x0000000000000000000000000000000000000000000000000000000000000211",
                        "key": "0x027bf131eb0106c142da829df3eeb5725111f5484f1763f5d9e1502a1e264088",
                        "prev": "0x0000000000000000000000000000000000000000000000000000000000000000"
                    },
                    {
                        "current": "0x000000000000000000000000000000000000000000000000d02ab486cedc0000",
                        "key": "0xcbc4e5fb02c3d1de23a9f1e014b4d2ee5aeaea9505df5e855c9210bf472495af",
                        "prev": "0x0000000000000000000000000000000000000000000000000000000000000000"
                    },
                    {
                        "current": "0x00000000000000000000000072052f124841a8158d3d5b6d3d54c9fe0e25e929",
                        "key": "0xcde0d3820f7163ac8d72ee2dcc256badab10d60b899a92449f5764b31838e3f1",
                        "prev": "0x0000000000000000000000000000000000000000000000000000000000000000"
                    },
                    {
                        "current": "0x000000000000000000000000000000000000000000000000d02ab486cedc0000",
                        "key": "0x6034e6907789241a6485039419c5bff056506cb171b039005f0c7fdcba6eb12d",
                        "prev": "0x0000000000000000000000000000000000000000000000000000000000000000"
                    },
                    {
                        "current": "0x0000000000000000000000000000000000000000000000000000000000000064",
                        "key": "0xa9bc9a3a348c357ba16b37005d7e6b3236198c0e939f4af8c5f19b8deeb8ebc0",
                        "prev": "0x0000000000000000000000000000000000000000000000012f3acb3bd6490000"
                    },
                    {
                        "current": "0x0000000000000000000000000000000000000000000000000000000065bc7d8f",
                        "key": "0x6034e6907789241a6485039419c5bff056506cb171b039005f0c7fdcba6eb12f",
                        "prev": "0x0000000000000000000000000000000000000000000000000000000000000000"
                    },
                    {
                        "current": "0x0000000000000000000000000000000000000000000346339cec009b15b703e8",
                        "key": "0x000000000000000000000000000000000000000000000000000000000000000a",
                        "prev": "0x00000000000000000000000000000000000000000003437f142ec174e67b6590"
                    },
                    {
                        "current": "0x0000000000000000000000000000000000000000000000000000000000000001",
                        "key": "0x6034e6907789241a6485039419c5bff056506cb171b039005f0c7fdcba6eb135",
                        "prev": "0x0000000000000000000000000000000000000000000000000000000000000000"
                    },
                    {
                        "current": "0x0000000000000000000000000000000000000000000000000000000000000001",
                        "key": "0x9a6d7a09702d26709483127216ea63b7c57805befc2fa8d9af25162caae84ab9",
                        "prev": "0x0000000000000000000000000000000000000000000000000000000000000000"
                    },
                    {
                        "current": "0x000000000000000000000000000000000000000000000001f4fcf6bbe799ff9c",
                        "key": "0x6034e6907789241a6485039419c5bff056506cb171b039005f0c7fdcba6eb130",
                        "prev": "0x0000000000000000000000000000000000000000000000000000000000000000"
                    },
                    {
                        "current": "0x000000000000000000000000000000000000000000000001f4fcf6bbe799ff9c",
                        "key": "0x12124c0312d17f0c8052ea5527604a4d97d90236ebeb4e3533d3d0b6ba8f59b8",
                        "prev": "0x0000000000000000000000000000000000000000000000000000000000000000"
                    },
                    {
                        "current": "0x000000000000000000000000000000000000000000000000c5c22b8011510000",
                        "key": "0x2e174c10e159ea99b867ce3205125c24a42d128804e4070ed6fcc8cc98166aa0",
                        "prev": "0x0000000000000000000000000000000000000000000000000000000000000000"
                    },
                    {
                        "current": "0x0000000000000000000000000000000000000000000002b488bd3f262f3b9e58",
                        "key": "0xba571cc4dae133e2030be5a327e222512c7b4680c7ee7e29ce278de2acacc1d9",
                        "prev": "0x0000000000000000000000000000000000000000000000000000000000000000"
                    },
                    {
                        "current": "0x0000000000000000000000000000000000000000000000000a688906bd8b0000",
                        "key": "0x625b35f5e76f098dd7c3a05b10e2e5e78a4a01228d60c3b143426cdf36d26455",
                        "prev": "0x0000000000000000000000000000000000000000000000000000000000000000"
                    },
                    {
                        "current": "0x000000000000000000000000000000000000000000000001f4fcf6bbe799ff9c",
                        "key": "0x6034e6907789241a6485039419c5bff056506cb171b039005f0c7fdcba6eb12e",
                        "prev": "0x0000000000000000000000000000000000000000000000000000000000000000"
                    },
                    {
                        "current": "0x000000000000000000000000000000000000000000000002086ac35105260000",
                        "key": "0x34ae0ffa2d4ef0b9bec8695c9af32173ce8c4d3e0b08946e21aacff605f4ea13",
                        "prev": "0x0000000000000000000000000000000000000000000000000000000000000000"
                    },
                    {
                        "current": "0x0000000000000000000000000000000000000000000000000000000000000211",
                        "key": "0x18abd7ec20a8bb1480b7ba84db3adad48d64c0eb74ce7a6f8ea7746e1a2fc222",
                        "prev": "0x0000000000000000000000000000000000000000000000000000000000000000"
                    },
                    {
                        "current": "0x0000000000000000000000000000000000000000000000000000000000000001",
                        "key": "0x0f36ad39aee03e7108cc48f54934702a5f0d4066f10344cebf8198978d86976c",
                        "prev": "0x0000000000000000000000000000000000000000000000000000000000000000"
                    },
                    {
                        "current": "0x0000000000000000000000000000000000000000000000000000000000000064",
                        "key": "0x75f96ab15d697e93042dc45b5c896c4b27e89bb6eaf39475c5c371cb2513f7d2",
                        "prev": "0x0000000000000000000000000000000000000000000000012f3acb3bd6490000"
                    },
                    {
                        "current": "0x0000000000000000000000000000000000000000000000000000000000000211",
                        "key": "0x0000000000000000000000000000000000000000000000000000000000000014",
                        "prev": "0x0000000000000000000000000000000000000000000000000000000000000210"
                    },
                    {
                        "current": "0x000000000000000000000000000000000000000000000001f4fcf6bbe799ff9c",
                        "key": "0x3be6fd20d5acfde5b873b48692cd31f4d3c7e8ee8a813af4696af8859e5ca6c6",
                        "prev": "0x0000000000000000000000000000000000000000000000000000000000000000"
                    }
                ],
                "storageVariables": [
                    {
                        "name": "plyWithdrawBalance",
                        "type": "mapping(uint256 => mapping(uint256 => uint256))",
                        "value": {
                            "pairs": [
                                {
                                    "key": "3",
                                    "value": {
                                        "pairs": [
                                            {
                                                "key": "529",
                                                "value": {
                                                    "current": "36099999999999999900",
                                                    "prev": "0",
                                                    "typeTag": 1
                                                }
                                            }
                                        ],
                                        "typeTag": 4
                                    }
                                }
                            ],
                            "typeTag": 4
                        }
                    },
                    {
                        "name": "mainPoolWithdrawBalance",
                        "type": "mapping(uint256 => uint256)",
                        "value": {
                            "pairs": [
                                {
                                    "key": "3",
                                    "value": {
                                        "current": "100",
                                        "prev": "21850000000000000000",
                                        "typeTag": 1
                                    }
                                }
                            ],
                            "typeTag": 4
                        }
                    },
                    {
                        "name": "mainPoolBalance",
                        "type": "mapping(uint256 => uint256)",
                        "value": {
                            "pairs": [
                                {
                                    "key": "3",
                                    "value": {
                                        "current": "100",
                                        "prev": "21850000000000000000",
                                        "typeTag": 1
                                    }
                                }
                            ],
                            "typeTag": 4
                        }
                    },
                    {
                        "name": "plyRShip",
                        "type": "mapping(uint256 => struct gameDataSet.PlyRelationship)",
                        "value": {
                            "pairs": [
                                {
                                    "key": "529",
                                    "value": {
                                        "fields": [
                                            {
                                                "name": "topPID",
                                                "type": "uint256",
                                                "value": {
                                                    "current": "529",
                                                    "prev": "0",
                                                    "typeTag": 1
                                                }
                                            }
                                        ],
                                        "typeTag": 3
                                    }
                                }
                            ],
                            "typeTag": 4
                        }
                    },
                    {
                        "name": "playBiggertReward",
                        "type": "mapping(uint256 => mapping(uint256 => uint256))",
                        "value": {
                            "pairs": [
                                {
                                    "key": "3",
                                    "value": {
                                        "pairs": [
                                            {
                                                "key": "529",
                                                "value": {
                                                    "current": "37500000000000000000",
                                                    "prev": "0",
                                                    "typeTag": 1
                                                }
                                            }
                                        ],
                                        "typeTag": 4
                                    }
                                }
                            ],
                            "typeTag": 4
                        }
                    },
                    {
                        "name": "mainPoolLockBal",
                        "type": "mapping(uint256 => uint256)",
                        "value": {
                            "pairs": [
                                {
                                    "key": "3",
                                    "value": {
                                        "current": "14250000000000000000",
                                        "prev": "0",
                                        "typeTag": 1
                                    }
                                }
                            ],
                            "typeTag": 4
                        }
                    },
                    {
                        "name": "round",
                        "type": "mapping(uint256 => struct gameDataSet.Round)",
                        "value": {
                            "pairs": [
                                {
                                    "key": "3",
                                    "value": {
                                        "fields": [
                                            {
                                                "name": "rPlys",
                                                "type": "uint256",
                                                "value": {
                                                    "current": "1",
                                                    "prev": "0",
                                                    "typeTag": 1
                                                }
                                            },
                                            {
                                                "name": "lastPID",
                                                "type": "uint256",
                                                "value": {
                                                    "current": "529",
                                                    "prev": "0",
                                                    "typeTag": 1
                                                }
                                            },
                                            {
                                                "name": "plyInList",
                                                "type": "uint256[]",
                                                "value": {
                                                    "elemType": "uint256",
                                                    "elems": [
                                                        {
                                                            "index": 0,
                                                            "value": {
                                                                "current": "529",
                                                                "prev": "0",
                                                                "typeTag": 1
                                                            }
                                                        }
                                                    ],
                                                    "typeTag": 2
                                                }
                                            }
                                        ],
                                        "typeTag": 3
                                    }
                                }
                            ],
                            "typeTag": 4
                        }
                    },
                    {
                        "name": "plyr",
                        "type": "mapping(uint256 => mapping(uint256 => struct gameDataSet.Player))",
                        "value": {
                            "pairs": [
                                {
                                    "key": "3",
                                    "value": {
                                        "pairs": [
                                            {
                                                "key": "0",
                                                "value": {
                                                    "fields": [
                                                        {
                                                            "name": "isActive",
                                                            "type": "bool",
                                                            "value": {
                                                                "current": "true",
                                                                "prev": "false",
                                                                "typeTag": 1
                                                            }
                                                        },
                                                        {
                                                            "name": "isAlreadGetIns",
                                                            "type": "bool",
                                                            "value": {
                                                                "current": "false",
                                                                "prev": "false",
                                                                "typeTag": 1
                                                            }
                                                        }
                                                    ],
                                                    "typeTag": 3
                                                }
                                            },
                                            {
                                                "key": "529",
                                                "value": {
                                                    "fields": [
                                                        {
                                                            "name": "ticketInCost",
                                                            "type": "uint256",
                                                            "value": {
                                                                "current": "15000000000000000000",
                                                                "prev": "0",
                                                                "typeTag": 1
                                                            }
                                                        },
                                                        {
                                                            "name": "withdrawAmount",
                                                            "type": "uint256",
                                                            "value": {
                                                                "current": "36099999999999999900",
                                                                "prev": "0",
                                                                "typeTag": 1
                                                            }
                                                        },
                                                        {
                                                            "name": "startTime",
                                                            "type": "uint256",
                                                            "value": {
                                                                "current": "1706851727",
                                                                "prev": "0",
                                                                "typeTag": 1
                                                            }
                                                        },
                                                        {
                                                            "name": "totalSettled",
                                                            "type": "uint256",
                                                            "value": {
                                                                "current": "36099999999999999900",
                                                                "prev": "0",
                                                                "typeTag": 1
                                                            }
                                                        },
                                                        {
                                                            "name": "isActive",
                                                            "type": "bool",
                                                            "value": {
                                                                "current": "true",
                                                                "prev": "false",
                                                                "typeTag": 1
                                                            }
                                                        },
                                                        {
                                                            "name": "isAlreadGetIns",
                                                            "type": "bool",
                                                            "value": {
                                                                "current": "false",
                                                                "prev": "false",
                                                                "typeTag": 1
                                                            }
                                                        }
                                                    ],
                                                    "typeTag": 3
                                                }
                                            }
                                        ],
                                        "typeTag": 4
                                    }
                                }
                            ],
                            "typeTag": 4
                        }
                    },
                    {
                        "name": "totalDistroyADC",
                        "type": "uint256",
                        "value": {
                            "current": "3958295204005952380929000",
                            "prev": "3945520204005952380954000",
                            "typeTag": 1
                        }
                    },
                    {
                        "name": "playDistroyADC",
                        "type": "mapping(uint256 => uint256)",
                        "value": {
                            "pairs": [
                                {
                                    "key": "529",
                                    "value": {
                                        "current": "12774999999999999975000",
                                        "prev": "0",
                                        "typeTag": 1
                                    }
                                }
                            ],
                            "typeTag": 4
                        }
                    },
                    {
                        "name": "plyrID",
                        "type": "mapping(address => uint256)",
                        "value": {
                            "pairs": [
                                {
                                    "key": "0x72052f124841a8158d3d5b6d3d54c9fe0e25e929",
                                    "value": {
                                        "current": "529",
                                        "prev": "0",
                                        "typeTag": 1
                                    }
                                }
                            ],
                            "typeTag": 4
                        }
                    },
                    {
                        "name": "allInBalance",
                        "type": "mapping(uint256 => uint256)",
                        "value": {
                            "pairs": [
                                {
                                    "key": "3",
                                    "value": {
                                        "current": "15000000000000000000",
                                        "prev": "0",
                                        "typeTag": 1
                                    }
                                }
                            ],
                            "typeTag": 4
                        }
                    },
                    {
                        "name": "plyrAddr",
                        "type": "mapping(uint256 => address)",
                        "value": {
                            "pairs": [
                                {
                                    "key": "529",
                                    "value": {
                                        "current": "0x72052f124841a8158d3d5b6d3d54c9fe0e25e929",
                                        "prev": "0x0000000000000000000000000000000000000000",
                                        "typeTag": 1
                                    }
                                }
                            ],
                            "typeTag": 4
                        }
                    },
                    {
                        "name": "insePoolBalance",
                        "type": "mapping(uint256 => uint256)",
                        "value": {
                            "pairs": [
                                {
                                    "key": "3",
                                    "value": {
                                        "current": "750000000000000000",
                                        "prev": "0",
                                        "typeTag": 1
                                    }
                                }
                            ],
                            "typeTag": 4
                        }
                    },
                    {
                        "name": "alreadyWithDrawBal",
                        "type": "mapping(uint256 => uint256)",
                        "value": {
                            "pairs": [
                                {
                                    "key": "3",
                                    "value": {
                                        "current": "36099999999999999900",
                                        "prev": "0",
                                        "typeTag": 1
                                    }
                                }
                            ],
                            "typeTag": 4
                        }
                    },
                    {
                        "name": "lastPID",
                        "type": "uint256",
                        "value": {
                            "current": "529",
                            "prev": "528",
                            "typeTag": 1
                        }
                    }
                ]
            }
        ]
    }
}