{
    "balance_change": {
        "balanceChanges": [
            {
                "account": "0xded2b1a426e1b7d415a40bcad44e98f47181dda2",
                "assets": [
                    {
                        "address": "0x88b9f5c66342ebaf661b3e2836b807c8cb1b3195",
                        "amount": "2,380,000",
                        "iconUrl": "",
                        "isERC1155": false,
                        "isERC721": false,
                        "sign": true,
                        "value": "92035.6883"
                    }
                ]
            },
            {
                "account": "0xbc452fdc8f851d7c5b72e1fe74dfb63bb793d511",
                "assets": [
                    {
                        "address": "0x88b9f5c66342ebaf661b3e2836b807c8cb1b3195",
                        "amount": "2,380,000",
                        "iconUrl": "",
                        "isERC1155": false,
                        "isERC721": false,
                        "sign": false,
                        "value": "92035.6883"
                    }
                ]
            }
        ]
    },
    "profile": {
        "basic_info": {
            "baseFee": "12.579986397",
            "blockNumber": 19688023,
            "callData": "0xe32a9a3700000000000000000000000088b9f5c66342ebaf661b3e2836b807c8cb1b319500000000000000000000000000000000000000000001f7fc0efb8b91b7800000",
            "debugEnable": true,
            "errorInfo": "",
            "eventCount": 2,
            "feeRecipient": "0x95222290dd7278aa3ddd389cc1e1d165cc4bafe5",
            "formatValue": "0",
            "gasLimit": 394442,
            "gasPrice": "13.736973709",
            "gasUsed": 82987,
            "intTxnCount": 1,
            "internalRevert": false,
            "internalRevertMessage": "",
            "isContractCreation": false,
            "isFlashloan": false,
            "maxFee": "13.736973709",
            "nonce": 30,
            "overwritedBlockNumber": -1,
            "priorityFee": "3",
            "receiver": "0xd818ff3d5cfc938014b270d0c8029ba04629b549",
            "revertMessage": "",
            "sender": "0xded2b1a426e1b7d415a40bcad44e98f47181dda2",
            "simulationEnable": true,
            "sourceTxnHash": "0xd0c23f115c66a060ffab78c91c6f9085db5af6257a72858b7fd4def6b7735617",
            "status": true,
            "timestamp": "2024-04-19T07:33:35Z",
            "transactionFee": "0.001139990237188783",
            "txnHash": "0xd0c23f115c66a060ffab78c91c6f9085db5af6257a72858b7fd4def6b7735617",
            "txnIndex": 153,
            "type": 2,
            "value": "0"
        },
        "fund_flow": [
            {
                "amount": "2,380,000",
                "from": "0xbc452fdc8f851d7c5b72e1fe74dfb63bb793d511",
                "id": 1,
                "isERC1155": false,
                "isERC721": false,
                "isReverted": false,
                "order": 1,
                "to": "0xded2b1a426e1b7d415a40bcad44e98f47181dda2",
                "token": "0x88b9f5c66342ebaf661b3e2836b807c8cb1b3195"
            }
        ],
        "token_infos": [
            {
                "address": "0x88b9f5c66342ebaf661b3e2836b807c8cb1b3195",
                "decimals": 18
            },
            {
                "address": "0xc02aaa39b223fe8d0a0e5c4f27ead9083c756cc2",
                "decimals": 18
            },
            {
                "address": "0xeeeeeeeeeeeeeeeeeeeeeeeeeeeeeeeeeeeeeeee",
                "decimals": 18
            }
        ]
    },
    "address_label": {
        "labels": [
            {
                "address": "0x0000000000000000000000000000000000000002",
                "label": "Precompiled"
            },
            {
                "address": "0x0000000000000000000000000000000000000003",
                "label": "Precompiled"
            },
            {
                "address": "0x0000000000000000000000000000000000000004",
                "label": "Precompiled"
            },
            {
                "address": "0xeeeeeeeeeeeeeeeeeeeeeeeeeeeeeeeeeeeeeeee",
                "label": "Ether"
            },
            {
                "address": "0x88b9f5c66342ebaf661b3e2836b807c8cb1b3195",
                "label": "NobleBlocks: NOBL Token"
            },
            {
                "address": "0xded2b1a426e1b7d415a40bcad44e98f47181dda2",
                "label": "Hedgey Finance Exploiter"
            },
            {
                "address": "0xbc452fdc8f851d7c5b72e1fe74dfb63bb793d511",
                "label": "Hedgey Finance: Claims"
            },
            {
                "address": "0x0000000000000000000000000000000000000001",
                "label": "Precompiled"
            }
        ]
    },
    "trace": {
        "accountLabels": null,
        "dataMap": {
            "-1": {
                "invocation": {
                    "address": "0xded2b1a426e1b7d415a40bcad44e98f47181dda2",
                    "callData": "",
                    "decodedMethod": null,
                    "errorInfo": "",
                    "fromAddress": "",
                    "gasUsed": 0,
                    "id": -1,
                    "methodDecoded": false,
                    "operation": "",
                    "output": "",
                    "revert": false,
                    "revertMessage": "",
                    "selector": "",
                    "status": false,
                    "value": ""
                },
                "nodeType": 0
            },
            "0": {
                "invocation": {
                    "address": "0xd818ff3d5cfc938014b270d0c8029ba04629b549",
                    "callData": "0x00000000000000000000000088b9f5c66342ebaf661b3e2836b807c8cb1b319500000000000000000000000000000000000000000001f7fc0efb8b91b7800000",
                    "decodedMethod": null,
                    "errorInfo": "",
                    "fromAddress": "0xded2b1a426e1b7d415a40bcad44e98f47181dda2",
                    "gasUsed": 82987,
                    "id": 0,
                    "methodDecoded": false,
                    "operation": "CALL",
                    "output": "",
                    "revert": false,
                    "revertMessage": "",
                    "selector": "0xe32a9a37",
                    "status": true,
                    "value": "0"
                },
                "nodeType": 0
            },
            "1": {
                "invocation": {
                    "address": "0x88b9f5c66342ebaf661b3e2836b807c8cb1b3195",
                    "callData": "0x000000000000000000000000bc452fdc8f851d7c5b72e1fe74dfb63bb793d511000000000000000000000000ded2b1a426e1b7d415a40bcad44e98f47181dda200000000000000000000000000000000000000000001f7fc0efb8b91b7800000",
                    "decodedMethod": {
                        "callParams": [
                            {
                                "name": "sender",
                                "type": "address",
                                "value": "0xbc452fdc8f851d7c5b72e1fe74dfb63bb793d511"
                            },
                            {
                                "name": "recipient",
                                "type": "address",
                                "value": "0xded2b1a426e1b7d415a40bcad44e98f47181dda2"
                            },
                            {
                                "decimalAvailable": true,
                                "name": "amount",
                                "type": "uint256",
                                "value": "2,380,000,000,000,000,000,000,000"
                            }
                        ],
                        "constructorArguments": "",
                        "name": "transferFrom",
                        "returnParams": [
                            {
                                "name": "",
                                "type": "bool",
                                "value": true
                            }
                        ],
                        "signature": "transferFrom(address,address,uint256)"
                    },
                    "errorInfo": "",
                    "fromAddress": "0xd818ff3d5cfc938014b270d0c8029ba04629b549",
                    "gasUsed": 52663,
                    "id": 1,
                    "methodDecoded": true,
                    "operation": "CALL",
                    "output": "0x0000000000000000000000000000000000000000000000000000000000000001",
                    "revert": false,
                    "revertMessage": "",
                    "selector": "0x23b872dd",
                    "status": true,
                    "value": "0"
                },
                "nodeType": 0
            },
            "2": {
                "event": {
                    "contract": "0x88b9f5c66342ebaf661b3e2836b807c8cb1b3195",
                    "decodedLog": {
                        "name": "Transfer",
                        "params": [
                            {
                                "name": "from",
                                "type": "address",
                                "value": "0xbc452fdc8f851d7c5b72e1fe74dfb63bb793d511"
                            },
                            {
                                "name": "to",
                                "type": "address",
                                "value": "0xded2b1a426e1b7d415a40bcad44e98f47181dda2"
                            },
                            {
                                "decimalAvailable": true,
                                "name": "value",
                                "type": "uint256",
                                "value": "2,380,000,000,000,000,000,000,000"
                            }
                        ],
                        "signature": "Transfer(address,address,uint256)"
                    },
                    "id": 2,
                    "logData": "0x00000000000000000000000000000000000000000001f7fc0efb8b91b7800000",
                    "logDecoded": true,
                    "operation": "EVENT",
                    "revert": false,
                    "status": true,
                    "topics": [
                        "0xddf252ad1be2c89b69c2b068fc378daa952ba7f163c4a11628f55a4df523b3ef",
                        "0x000000000000000000000000bc452fdc8f851d7c5b72e1fe74dfb63bb793d511",
                        "0x000000000000000000000000ded2b1a426e1b7d415a40bcad44e98f47181dda2"
                    ]
                },
                "nodeType": 1
            },
            "3": {
                "event": {
                    "contract": "0x88b9f5c66342ebaf661b3e2836b807c8cb1b3195",
                    "decodedLog": {
                        "name": "Approval",
                        "params": [
                            {
                                "name": "owner",
                                "type": "address",
                                "value": "0xbc452fdc8f851d7c5b72e1fe74dfb63bb793d511"
                            },
                            {
                                "name": "spender",
                                "type": "address",
                                "value": "0xd818ff3d5cfc938014b270d0c8029ba04629b549"
                            },
                            {
                                "decimalAvailable": true,
                                "name": "value",
                                "type": "uint256",
                                "value": "16,660,000,000,000,000,000,000,000"
                            }
                        ],
                        "signature": "Approval(address,address,uint256)"
                    },
                    "id": 3,
                    "logData": "0x0000000000000000000000000000000000000000000dc7e468e0d0fc04800000",
                    "logDecoded": true,
                    "operation": "EVENT",
                    "revert": false,
                    "status": true,
                    "topics": [
                        "0x8c5be1e5ebec7d5bd14f71427d1e84f3dd0314c0f7b2291e5b200ac8c7c3b925",
                        "0x000000000000000000000000bc452fdc8f851d7c5b72e1fe74dfb63bb793d511",
                        "0x000000000000000000000000d818ff3d5cfc938014b270d0c8029ba04629b549"
                    ]
                },
                "nodeType": 1
            }
        },
        "gasFlame": [
            {
                "children": [
                    {
                        "children": [
                            {
                                "children": [],
                                "depth": 0,
                                "name": "Initial Gas",
                                "value": 21668
                            },
                            {
                                "children": [
                                    {
                                        "children": [],
                                        "depth": 1,
                                        "name": "transferFrom",
                                        "value": 52663
                                    }
                                ],
                                "depth": 0,
                                "name": "Executed Gas",
                                "value": 61319
                            }
                        ],
                        "depth": -1,
                        "name": "Actual Gas Used",
                        "value": 82987
                    },
                    {
                        "children": [],
                        "depth": -1,
                        "name": "Refunded Gas",
                        "value": 0
                    }
                ],
                "depth": -2,
                "name": "Total Gas",
                "value": 82987
            }
        ],
        "isConfirmed": true,
        "mainTrace": [
            {
                "children": [
                    {
                        "children": [
                            {
                                "children": [
                                    {
                                        "children": [],
                                        "depth": 2,
                                        "id": 2,
                                        "order": 2
                                    },
                                    {
                                        "children": [],
                                        "depth": 2,
                                        "id": 3,
                                        "order": 3
                                    }
                                ],
                                "depth": 1,
                                "id": 1,
                                "order": 1
                            }
                        ],
                        "depth": 0,
                        "id": 0,
                        "order": 0
                    }
                ],
                "depth": -1,
                "id": -1,
                "order": -1
            }
        ],
        "mainTraceNodeCount": 4,
        "parentIdMap": {
            "0": -1,
            "1": 0,
            "2": 1,
            "3": 1
        },
        "tidyTrace": [
            {
                "children": [
                    {
                        "children": [
                            {
                                "children": [
                                    {
                                        "children": [],
                                        "depth": 2,
                                        "id": 2,
                                        "order": 2
                                    },
                                    {
                                        "children": [],
                                        "depth": 2,
                                        "id": 3,
                                        "order": 3
                                    }
                                ],
                                "depth": 1,
                                "id": 1,
                                "order": 1
                            }
                        ],
                        "depth": 0,
                        "id": 0,
                        "order": 0
                    }
                ],
                "depth": -1,
                "id": -1,
                "order": -1
            }
        ],
        "tidyTraceNodeCount": 4
    },
    "state_change": {
        "stateChanges": [
            {
                "address": "0x88b9f5c66342ebaf661b3e2836b807c8cb1b3195",
                "erc": "ERC-20",
                "slots": [
                    {
                        "current": "0x00000000000000000000000000000000000000000069bfe16d21e73776fa3000",
                        "key": "0x643940ddcb9071ab2b1ce0f942c807967dea9cf415a161e3a2082fd773ffb4b3",
                        "prev": "0x0000000000000000000000000000000000000000006bb7dd7c1d72c92e7a3000"
                    },
                    {
                        "current": "0x00000000000000000000000000000000000000000001f7fc0efb8b91b7800000",
                        "key": "0xf38e0c0920bfe16769eab2fee01acab924946c95eee6390ca66b92be76a6c142",
                        "prev": "0x0000000000000000000000000000000000000000000000000000000000000000"
                    },
                    {
                        "current": "0x0000000000000000000000000000000000000000000dc7e468e0d0fc04800000",
                        "key": "0xcfb75dfd7bf844e58d042e85755cf7e32a663603a1f2870fe5d344366d103cb8",
                        "prev": "0x0000000000000000000000000000000000000000000fbfe077dc5c8dbc000000"
                    }
                ],
                "storageVariables": [
                    {
                        "name": "_balances",
                        "type": "mapping(address => uint256)",
                        "value": {
                            "pairs": [
                                {
                                    "key": "0xbc452fdc8f851d7c5b72e1fe74dfb63bb793d511",
                                    "value": {
                                        "current": "127843341439001400000000000",
                                        "prev": "130223341439001400000000000",
                                        "typeTag": 1
                                    }
                                },
                                {
                                    "key": "0xded2b1a426e1b7d415a40bcad44e98f47181dda2",
                                    "value": {
                                        "current": "2380000000000000000000000",
                                        "prev": "0",
                                        "typeTag": 1
                                    }
                                }
                            ],
                            "typeTag": 4
                        }
                    },
                    {
                        "name": "_allowances",
                        "type": "mapping(address => mapping(address => uint256))",
                        "value": {
                            "pairs": [
                                {
                                    "key": "0xbc452fdc8f851d7c5b72e1fe74dfb63bb793d511",
                                    "value": {
                                        "pairs": [
                                            {
                                                "key": "0xd818ff3d5cfc938014b270d0c8029ba04629b549",
                                                "value": {
                                                    "current": "16660000000000000000000000",
                                                    "prev": "19040000000000000000000000",
                                                    "typeTag": 1
                                                }
                                            }
                                        ],
                                        "typeTag": 4
                                    }
                                }
                            ],
                            "typeTag": 4
                        }
                    }
                ]
            }
        ]
    }
}