{
    "balance_change": {
        "balanceChanges": [
            {
                "account": "0xffc21396bc3c981f057b4ec993edb2a305ef8a62",
                "assets": [
                    {
                        "address": "0x55d398326f99059ff775485246999027b3197955",
                        "amount": "2,331.002783",
                        "iconUrl": "https://assets.blocksec.com/icon/810ebed5-1cb7-4a60-827d-c7eb0c438c0e.png",
                        "isERC1155": false,
                        "isERC721": false,
                        "sign": true,
                        "value": "2332.244065"
                    }
                ]
            },
            {
                "account": "0x1a9187bb13245d847c2d569513d644223e2bce85",
                "assets": [
                    {
                        "address": "0x55d398326f99059ff775485246999027b3197955",
                        "amount": "84",
                        "iconUrl": "https://assets.blocksec.com/icon/810ebed5-1cb7-4a60-827d-c7eb0c438c0e.png",
                        "isERC1155": false,
                        "isERC721": false,
                        "sign": false,
                        "value": "84.04473084"
                    }
                ]
            },
            {
                "account": "0x847efeb905435316c87fb77736c7a6ac58068185",
                "assets": [
                    {
                        "address": "0x55d398326f99059ff775485246999027b3197955",
                        "amount": "24.549977",
                        "iconUrl": "https://assets.blocksec.com/icon/810ebed5-1cb7-4a60-827d-c7eb0c438c0e.png",
                        "isERC1155": false,
                        "isERC721": false,
                        "sign": false,
                        "value": "24.5630501"
                    }
                ]
            },
            {
                "account": "0x9917904d993c330d39872db88bfa8fcbfca87593",
                "assets": [
                    {
                        "address": "0x55d398326f99059ff775485246999027b3197955",
                        "amount": "2,000",
                        "iconUrl": "https://assets.blocksec.com/icon/810ebed5-1cb7-4a60-827d-c7eb0c438c0e.png",
                        "isERC1155": false,
                        "isERC721": false,
                        "sign": false,
                        "value": "2001.06502"
                    }
                ]
            },
            {
                "account": "0xbde5e69a74711e10694647a54d97a0f6600bfa51",
                "assets": [
                    {
                        "address": "0x55d398326f99059ff775485246999027b3197955",
                        "amount": "100",
                        "iconUrl": "https://assets.blocksec.com/icon/810ebed5-1cb7-4a60-827d-c7eb0c438c0e.png",
                        "isERC1155": false,
                        "isERC721": false,
                        "sign": false,
                        "value": "100.053251"
                    }
                ]
            },
            {
                "account": "0xd11bc4a3978a51dbed0337d2f68846c90adc6fff",
                "assets": [
                    {
                        "address": "0x55d398326f99059ff775485246999027b3197955",
                        "amount": "22.452806",
                        "iconUrl": "https://assets.blocksec.com/icon/810ebed5-1cb7-4a60-827d-c7eb0c438c0e.png",
                        "isERC1155": false,
                        "isERC721": false,
                        "sign": false,
                        "value": "22.46476234"
                    }
                ]
            },
            {
                "account": "0xf618499ed814f2c72918c904e9d9a55d12962f99",
                "assets": [
                    {
                        "address": "0x55d398326f99059ff775485246999027b3197955",
                        "amount": "100",
                        "iconUrl": "https://assets.blocksec.com/icon/810ebed5-1cb7-4a60-827d-c7eb0c438c0e.png",
                        "isERC1155": false,
                        "isERC721": false,
                        "sign": false,
                        "value": "100.053251"
                    }
                ]
            }
        ]
    },
    "profile": {
        "basic_info": {
            "baseFee": "",
            "blockNumber": 28121674,
            "callData": "0x5fdf7f3b000000000000000000000000d3c755e74d44b460ac018e0554cbe9316f6859c100000000000000000000000055d398326f99059ff775485246999027b3197955078d3b790000000000000000000000000000000000000000000000000000000000000000000000000000000000000000000000000000000000000000000000800000000000000000000000000000000000000000000000000000000000000006000000000000000000000000847efeb905435316c87fb77736c7a6ac58068185000000000000000000000000f618499ed814f2c72918c904e9d9a55d12962f99000000000000000000000000d11bc4a3978a51dbed0337d2f68846c90adc6fff0000000000000000000000009917904d993c330d39872db88bfa8fcbfca87593000000000000000000000000bde5e69a74711e10694647a54d97a0f6600bfa510000000000000000000000001a9187bb13245d847c2d569513d644223e2bce85",
            "debugEnable": true,
            "errorInfo": "",
            "eventCount": 12,
            "feeRecipient": "0x72b61c6014342d914470ec7ac2975be345796c2b",
            "formatValue": "0",
            "gasLimit": 2000000,
            "gasPrice": "15",
            "gasUsed": 128678,
            "intTxnCount": 24,
            "internalRevert": false,
            "internalRevertMessage": "",
            "isContractCreation": false,
            "isFlashloan": false,
            "maxFee": "",
            "nonce": 1,
            "overwritedBlockNumber": -1,
            "priorityFee": "",
            "receiver": "0xb29c9d9cd5977c6a651a5c0e81b6a252a71b081b",
            "revertMessage": "",
            "sender": "0xffc21396bc3c981f057b4ec993edb2a305ef8a62",
            "simulationEnable": true,
            "sourceTxnHash": "0xd0dd0c8aa71860ff2d7fe6f9763892d936e31fb8c1aef01ec5ffbc947dbedbeb",
            "status": true,
            "timestamp": "2023-05-11T16:29:00Z",
            "transactionFee": "0.00193017",
            "txnHash": "0xd0dd0c8aa71860ff2d7fe6f9763892d936e31fb8c1aef01ec5ffbc947dbedbeb",
            "txnIndex": 2,
            "type": 0,
            "value": "0"
        },
        "fund_flow": [
            {
                "amount": "24.549977",
                "from": "0x847efeb905435316c87fb77736c7a6ac58068185",
                "id": 1,
                "isERC1155": false,
                "isERC721": false,
                "isReverted": false,
                "order": 1,
                "to": "0xffc21396bc3c981f057b4ec993edb2a305ef8a62",
                "token": "0x55d398326f99059ff775485246999027b3197955"
            },
            {
                "amount": "100",
                "from": "0xf618499ed814f2c72918c904e9d9a55d12962f99",
                "id": 2,
                "isERC1155": false,
                "isERC721": false,
                "isReverted": false,
                "order": 2,
                "to": "0xffc21396bc3c981f057b4ec993edb2a305ef8a62",
                "token": "0x55d398326f99059ff775485246999027b3197955"
            },
            {
                "amount": "22.452806",
                "from": "0xd11bc4a3978a51dbed0337d2f68846c90adc6fff",
                "id": 3,
                "isERC1155": false,
                "isERC721": false,
                "isReverted": false,
                "order": 3,
                "to": "0xffc21396bc3c981f057b4ec993edb2a305ef8a62",
                "token": "0x55d398326f99059ff775485246999027b3197955"
            },
            {
                "amount": "2,000",
                "from": "0x9917904d993c330d39872db88bfa8fcbfca87593",
                "id": 4,
                "isERC1155": false,
                "isERC721": false,
                "isReverted": false,
                "order": 4,
                "to": "0xffc21396bc3c981f057b4ec993edb2a305ef8a62",
                "token": "0x55d398326f99059ff775485246999027b3197955"
            },
            {
                "amount": "100",
                "from": "0xbde5e69a74711e10694647a54d97a0f6600bfa51",
                "id": 5,
                "isERC1155": false,
                "isERC721": false,
                "isReverted": false,
                "order": 5,
                "to": "0xffc21396bc3c981f057b4ec993edb2a305ef8a62",
                "token": "0x55d398326f99059ff775485246999027b3197955"
            },
            {
                "amount": "84",
                "from": "0x1a9187bb13245d847c2d569513d644223e2bce85",
                "id": 6,
                "isERC1155": false,
                "isERC721": false,
                "isReverted": false,
                "order": 6,
                "to": "0xffc21396bc3c981f057b4ec993edb2a305ef8a62",
                "token": "0x55d398326f99059ff775485246999027b3197955"
            }
        ],
        "token_infos": [
            {
                "address": "0x55d398326f99059ff775485246999027b3197955",
                "decimals": 18
            },
            {
                "address": "0xbb4cdb9cbd36b01bd1cbaebf2de08d9173bc095c",
                "decimals": 18
            },
            {
                "address": "0xeeeeeeeeeeeeeeeeeeeeeeeeeeeeeeeeeeeeeeee",
                "decimals": 18
            }
        ]
    },
    "address_label": {
        "labels": [
            {
                "address": "0x55d398326f99059ff775485246999027b3197955",
                "label": "BUSD-T Stablecoin"
            },
            {
                "address": "0x0000000000000000000000000000000000000001",
                "label": "Precompiled"
            },
            {
                "address": "0x0000000000000000000000000000000000000002",
                "label": "Precompiled"
            },
            {
                "address": "0x0000000000000000000000000000000000000003",
                "label": "Precompiled"
            },
            {
                "address": "0x0000000000000000000000000000000000000004",
                "label": "Precompiled"
            },
            {
                "address": "0xeeeeeeeeeeeeeeeeeeeeeeeeeeeeeeeeeeeeeeee",
                "label": "BNB"
            }
        ]
    },
    "trace": {
        "accountLabels": null,
        "dataMap": {
            "-1": {
                "invocation": {
                    "address": "0xffc21396bc3c981f057b4ec993edb2a305ef8a62",
                    "callData": "",
                    "decodedMethod": null,
                    "errorInfo": "",
                    "fromAddress": "",
                    "gasUsed": 0,
                    "id": -1,
                    "methodDecoded": false,
                    "operation": "",
                    "output": "",
                    "revert": false,
                    "revertMessage": "",
                    "selector": "",
                    "status": false,
                    "value": ""
                },
                "nodeType": 0
            },
            "0": {
                "invocation": {
                    "address": "0xb29c9d9cd5977c6a651a5c0e81b6a252a71b081b",
                    "callData": "0x000000000000000000000000d3c755e74d44b460ac018e0554cbe9316f6859c100000000000000000000000055d398326f99059ff775485246999027b3197955078d3b790000000000000000000000000000000000000000000000000000000000000000000000000000000000000000000000000000000000000000000000800000000000000000000000000000000000000000000000000000000000000006000000000000000000000000847efeb905435316c87fb77736c7a6ac58068185000000000000000000000000f618499ed814f2c72918c904e9d9a55d12962f99000000000000000000000000d11bc4a3978a51dbed0337d2f68846c90adc6fff0000000000000000000000009917904d993c330d39872db88bfa8fcbfca87593000000000000000000000000bde5e69a74711e10694647a54d97a0f6600bfa510000000000000000000000001a9187bb13245d847c2d569513d644223e2bce85",
                    "decodedMethod": null,
                    "errorInfo": "",
                    "fromAddress": "0xffc21396bc3c981f057b4ec993edb2a305ef8a62",
                    "gasUsed": 128678,
                    "id": 0,
                    "methodDecoded": false,
                    "operation": "CALL",
                    "output": "",
                    "revert": false,
                    "revertMessage": "",
                    "selector": "0x5fdf7f3b",
                    "status": true,
                    "value": "0"
                },
                "nodeType": 0
            },
            "1": {
                "invocation": {
                    "address": "0x55d398326f99059ff775485246999027b3197955",
                    "callData": "0x000000000000000000000000847efeb905435316c87fb77736c7a6ac58068185",
                    "decodedMethod": {
                        "callParams": [
                            {
                                "name": "account",
                                "type": "address",
                                "value": "0x847efeb905435316c87fb77736c7a6ac58068185"
                            }
                        ],
                        "constructorArguments": "",
                        "name": "balanceOf",
                        "returnParams": [
                            {
                                "decimalAvailable": true,
                                "name": "",
                                "type": "uint256",
                                "value": "24,549,977,000,000,000,000"
                            }
                        ],
                        "signature": "balanceOf(address)"
                    },
                    "errorInfo": "",
                    "fromAddress": "0xb29c9d9cd5977c6a651a5c0e81b6a252a71b081b",
                    "gasUsed": 1231,
                    "id": 1,
                    "methodDecoded": true,
                    "operation": "STATICCALL",
                    "output": "0x00000000000000000000000000000000000000000000000154b30a0299029000",
                    "revert": false,
                    "revertMessage": "",
                    "selector": "0x70a08231",
                    "status": true,
                    "value": "0"
                },
                "nodeType": 0
            },
            "10": {
                "invocation": {
                    "address": "0x55d398326f99059ff775485246999027b3197955",
                    "callData": "0x000000000000000000000000f618499ed814f2c72918c904e9d9a55d12962f99000000000000000000000000ffc21396bc3c981f057b4ec993edb2a305ef8a620000000000000000000000000000000000000000000000056bc75e2d63100000",
                    "decodedMethod": {
                        "callParams": [
                            {
                                "name": "sender",
                                "type": "address",
                                "value": "0xf618499ed814f2c72918c904e9d9a55d12962f99"
                            },
                            {
                                "name": "recipient",
                                "type": "address",
                                "value": "0xffc21396bc3c981f057b4ec993edb2a305ef8a62"
                            },
                            {
                                "decimalAvailable": true,
                                "name": "amount",
                                "type": "uint256",
                                "value": "100,000,000,000,000,000,000"
                            }
                        ],
                        "constructorArguments": "",
                        "name": "transferFrom",
                        "returnParams": [
                            {
                                "name": "",
                                "type": "bool",
                                "value": true
                            }
                        ],
                        "signature": "transferFrom(address,address,uint256)"
                    },
                    "errorInfo": "",
                    "fromAddress": "0xd3c755e74d44b460ac018e0554cbe9316f6859c1",
                    "gasUsed": 18634,
                    "id": 10,
                    "methodDecoded": true,
                    "operation": "CALL",
                    "output": "0x0000000000000000000000000000000000000000000000000000000000000001",
                    "revert": false,
                    "revertMessage": "",
                    "selector": "0x23b872dd",
                    "status": true,
                    "value": "0"
                },
                "nodeType": 0
            },
            "11": {
                "event": {
                    "contract": "0x55d398326f99059ff775485246999027b3197955",
                    "decodedLog": {
                        "name": "Transfer",
                        "params": [
                            {
                                "name": "from",
                                "type": "address",
                                "value": "0xf618499ed814f2c72918c904e9d9a55d12962f99"
                            },
                            {
                                "name": "to",
                                "type": "address",
                                "value": "0xffc21396bc3c981f057b4ec993edb2a305ef8a62"
                            },
                            {
                                "decimalAvailable": true,
                                "name": "value",
                                "type": "uint256",
                                "value": "100,000,000,000,000,000,000"
                            }
                        ],
                        "signature": "Transfer(address,address,uint256)"
                    },
                    "id": 11,
                    "logData": "0x0000000000000000000000000000000000000000000000056bc75e2d63100000",
                    "logDecoded": true,
                    "operation": "EVENT",
                    "revert": false,
                    "status": true,
                    "topics": [
                        "0xddf252ad1be2c89b69c2b068fc378daa952ba7f163c4a11628f55a4df523b3ef",
                        "0x000000000000000000000000f618499ed814f2c72918c904e9d9a55d12962f99",
                        "0x000000000000000000000000ffc21396bc3c981f057b4ec993edb2a305ef8a62"
                    ]
                },
                "nodeType": 1
            },
            "12": {
                "event": {
                    "contract": "0x55d398326f99059ff775485246999027b3197955",
                    "decodedLog": {
                        "name": "Approval",
                        "params": [
                            {
                                "name": "owner",
                                "type": "address",
                                "value": "0xf618499ed814f2c72918c904e9d9a55d12962f99"
                            },
                            {
                                "name": "spender",
                                "type": "address",
                                "value": "0xd3c755e74d44b460ac018e0554cbe9316f6859c1"
                            },
                            {
                                "decimalAvailable": true,
                                "name": "value",
                                "type": "uint256",
                                "value": "0"
                            }
                        ],
                        "signature": "Approval(address,address,uint256)"
                    },
                    "id": 12,
                    "logData": "0x0000000000000000000000000000000000000000000000000000000000000000",
                    "logDecoded": true,
                    "operation": "EVENT",
                    "revert": false,
                    "status": true,
                    "topics": [
                        "0x8c5be1e5ebec7d5bd14f71427d1e84f3dd0314c0f7b2291e5b200ac8c7c3b925",
                        "0x000000000000000000000000f618499ed814f2c72918c904e9d9a55d12962f99",
                        "0x000000000000000000000000d3c755e74d44b460ac018e0554cbe9316f6859c1"
                    ]
                },
                "nodeType": 1
            },
            "13": {
                "invocation": {
                    "address": "0x55d398326f99059ff775485246999027b3197955",
                    "callData": "0x000000000000000000000000d11bc4a3978a51dbed0337d2f68846c90adc6fff",
                    "decodedMethod": {
                        "callParams": [
                            {
                                "name": "account",
                                "type": "address",
                                "value": "0xd11bc4a3978a51dbed0337d2f68846c90adc6fff"
                            }
                        ],
                        "constructorArguments": "",
                        "name": "balanceOf",
                        "returnParams": [
                            {
                                "decimalAvailable": true,
                                "name": "",
                                "type": "uint256",
                                "value": "22,452,806,000,000,000,000"
                            }
                        ],
                        "signature": "balanceOf(address)"
                    },
                    "errorInfo": "",
                    "fromAddress": "0xb29c9d9cd5977c6a651a5c0e81b6a252a71b081b",
                    "gasUsed": 1231,
                    "id": 13,
                    "methodDecoded": true,
                    "operation": "STATICCALL",
                    "output": "0x00000000000000000000000000000000000000000000000137986418d0c26000",
                    "revert": false,
                    "revertMessage": "",
                    "selector": "0x70a08231",
                    "status": true,
                    "value": "0"
                },
                "nodeType": 0
            },
            "14": {
                "invocation": {
                    "address": "0x55d398326f99059ff775485246999027b3197955",
                    "callData": "0x000000000000000000000000d11bc4a3978a51dbed0337d2f68846c90adc6fff000000000000000000000000d3c755e74d44b460ac018e0554cbe9316f6859c1",
                    "decodedMethod": {
                        "callParams": [
                            {
                                "name": "owner",
                                "type": "address",
                                "value": "0xd11bc4a3978a51dbed0337d2f68846c90adc6fff"
                            },
                            {
                                "name": "spender",
                                "type": "address",
                                "value": "0xd3c755e74d44b460ac018e0554cbe9316f6859c1"
                            }
                        ],
                        "constructorArguments": "",
                        "name": "allowance",
                        "returnParams": [
                            {
                                "decimalAvailable": true,
                                "name": "",
                                "type": "uint256",
                                "value": "2,000,000,000,000,000,000,000"
                            }
                        ],
                        "signature": "allowance(address,address)"
                    },
                    "errorInfo": "",
                    "fromAddress": "0xb29c9d9cd5977c6a651a5c0e81b6a252a71b081b",
                    "gasUsed": 1338,
                    "id": 14,
                    "methodDecoded": true,
                    "operation": "STATICCALL",
                    "output": "0x00000000000000000000000000000000000000000000006c6b935b8bbd400000",
                    "revert": false,
                    "revertMessage": "",
                    "selector": "0xdd62ed3e",
                    "status": true,
                    "value": "0"
                },
                "nodeType": 0
            },
            "15": {
                "invocation": {
                    "address": "0xd3c755e74d44b460ac018e0554cbe9316f6859c1",
                    "callData": "0x000000000000000000000000d11bc4a3978a51dbed0337d2f68846c90adc6fff000000000000000000000000ffc21396bc3c981f057b4ec993edb2a305ef8a6200000000000000000000000000000000000000000000000137986418d0c26000",
                    "decodedMethod": {
                        "callParams": [
                            {
                                "name": "asset",
                                "type": "address",
                                "value": "0xd11bc4a3978a51dbed0337d2f68846c90adc6fff"
                            },
                            {
                                "name": "to",
                                "type": "address",
                                "value": "0xffc21396bc3c981f057b4ec993edb2a305ef8a62"
                            },
                            {
                                "name": "amount",
                                "type": "uint256",
                                "value": "22,452,806,000,000,000,000"
                            }
                        ],
                        "constructorArguments": "",
                        "name": "transferOut",
                        "returnParams": [],
                        "signature": "transferOut(address,address,uint256)"
                    },
                    "errorInfo": "",
                    "fromAddress": "0xb29c9d9cd5977c6a651a5c0e81b6a252a71b081b",
                    "gasUsed": 21888,
                    "id": 15,
                    "methodDecoded": true,
                    "operation": "CALL",
                    "output": "",
                    "revert": false,
                    "revertMessage": "",
                    "selector": "0x078d3b79",
                    "status": true,
                    "value": "0"
                },
                "nodeType": 0
            },
            "16": {
                "invocation": {
                    "address": "0x55d398326f99059ff775485246999027b3197955",
                    "callData": "0x000000000000000000000000d11bc4a3978a51dbed0337d2f68846c90adc6fff000000000000000000000000ffc21396bc3c981f057b4ec993edb2a305ef8a6200000000000000000000000000000000000000000000000137986418d0c26000",
                    "decodedMethod": {
                        "callParams": [
                            {
                                "name": "sender",
                                "type": "address",
                                "value": "0xd11bc4a3978a51dbed0337d2f68846c90adc6fff"
                            },
                            {
                                "name": "recipient",
                                "type": "address",
                                "value": "0xffc21396bc3c981f057b4ec993edb2a305ef8a62"
                            },
                            {
                                "decimalAvailable": true,
                                "name": "amount",
                                "type": "uint256",
                                "value": "22,452,806,000,000,000,000"
                            }
                        ],
                        "constructorArguments": "",
                        "name": "transferFrom",
                        "returnParams": [
                            {
                                "name": "",
                                "type": "bool",
                                "value": true
                            }
                        ],
                        "signature": "transferFrom(address,address,uint256)"
                    },
                    "errorInfo": "",
                    "fromAddress": "0xd3c755e74d44b460ac018e0554cbe9316f6859c1",
                    "gasUsed": 18634,
                    "id": 16,
                    "methodDecoded": true,
                    "operation": "CALL",
                    "output": "0x0000000000000000000000000000000000000000000000000000000000000001",
                    "revert": false,
                    "revertMessage": "",
                    "selector": "0x23b872dd",
                    "status": true,
                    "value": "0"
                },
                "nodeType": 0
            },
            "17": {
                "event": {
                    "contract": "0x55d398326f99059ff775485246999027b3197955",
                    "decodedLog": {
                        "name": "Transfer",
                        "params": [
                            {
                                "name": "from",
                                "type": "address",
                                "value": "0xd11bc4a3978a51dbed0337d2f68846c90adc6fff"
                            },
                            {
                                "name": "to",
                                "type": "address",
                                "value": "0xffc21396bc3c981f057b4ec993edb2a305ef8a62"
                            },
                            {
                                "decimalAvailable": true,
                                "name": "value",
                                "type": "uint256",
                                "value": "22,452,806,000,000,000,000"
                            }
                        ],
                        "signature": "Transfer(address,address,uint256)"
                    },
                    "id": 17,
                    "logData": "0x00000000000000000000000000000000000000000000000137986418d0c26000",
                    "logDecoded": true,
                    "operation": "EVENT",
                    "revert": false,
                    "status": true,
                    "topics": [
                        "0xddf252ad1be2c89b69c2b068fc378daa952ba7f163c4a11628f55a4df523b3ef",
                        "0x000000000000000000000000d11bc4a3978a51dbed0337d2f68846c90adc6fff",
                        "0x000000000000000000000000ffc21396bc3c981f057b4ec993edb2a305ef8a62"
                    ]
                },
                "nodeType": 1
            },
            "18": {
                "event": {
                    "contract": "0x55d398326f99059ff775485246999027b3197955",
                    "decodedLog": {
                        "name": "Approval",
                        "params": [
                            {
                                "name": "owner",
                                "type": "address",
                                "value": "0xd11bc4a3978a51dbed0337d2f68846c90adc6fff"
                            },
                            {
                                "name": "spender",
                                "type": "address",
                                "value": "0xd3c755e74d44b460ac018e0554cbe9316f6859c1"
                            },
                            {
                                "decimalAvailable": true,
                                "name": "value",
                                "type": "uint256",
                                "value": "1,977,547,194,000,000,000,000"
                            }
                        ],
                        "signature": "Approval(address,address,uint256)"
                    },
                    "id": 18,
                    "logData": "0x00000000000000000000000000000000000000000000006b33faf772ec7da000",
                    "logDecoded": true,
                    "operation": "EVENT",
                    "revert": false,
                    "status": true,
                    "topics": [
                        "0x8c5be1e5ebec7d5bd14f71427d1e84f3dd0314c0f7b2291e5b200ac8c7c3b925",
                        "0x000000000000000000000000d11bc4a3978a51dbed0337d2f68846c90adc6fff",
                        "0x000000000000000000000000d3c755e74d44b460ac018e0554cbe9316f6859c1"
                    ]
                },
                "nodeType": 1
            },
            "19": {
                "invocation": {
                    "address": "0x55d398326f99059ff775485246999027b3197955",
                    "callData": "0x0000000000000000000000009917904d993c330d39872db88bfa8fcbfca87593",
                    "decodedMethod": {
                        "callParams": [
                            {
                                "name": "account",
                                "type": "address",
                                "value": "0x9917904d993c330d39872db88bfa8fcbfca87593"
                            }
                        ],
                        "constructorArguments": "",
                        "name": "balanceOf",
                        "returnParams": [
                            {
                                "decimalAvailable": true,
                                "name": "",
                                "type": "uint256",
                                "value": "2,402,600,630,000,000,000,000"
                            }
                        ],
                        "signature": "balanceOf(address)"
                    },
                    "errorInfo": "",
                    "fromAddress": "0xb29c9d9cd5977c6a651a5c0e81b6a252a71b081b",
                    "gasUsed": 1231,
                    "id": 19,
                    "methodDecoded": true,
                    "operation": "STATICCALL",
                    "output": "0x0000000000000000000000000000000000000000000000823ec81f7617b96000",
                    "revert": false,
                    "revertMessage": "",
                    "selector": "0x70a08231",
                    "status": true,
                    "value": "0"
                },
                "nodeType": 0
            },
            "2": {
                "invocation": {
                    "address": "0x55d398326f99059ff775485246999027b3197955",
                    "callData": "0x000000000000000000000000847efeb905435316c87fb77736c7a6ac58068185000000000000000000000000d3c755e74d44b460ac018e0554cbe9316f6859c1",
                    "decodedMethod": {
                        "callParams": [
                            {
                                "name": "owner",
                                "type": "address",
                                "value": "0x847efeb905435316c87fb77736c7a6ac58068185"
                            },
                            {
                                "name": "spender",
                                "type": "address",
                                "value": "0xd3c755e74d44b460ac018e0554cbe9316f6859c1"
                            }
                        ],
                        "constructorArguments": "",
                        "name": "allowance",
                        "returnParams": [
                            {
                                "decimalAvailable": true,
                                "name": "",
                                "type": "uint256",
                                "value": "100,000,000,000,000,000,000"
                            }
                        ],
                        "signature": "allowance(address,address)"
                    },
                    "errorInfo": "",
                    "fromAddress": "0xb29c9d9cd5977c6a651a5c0e81b6a252a71b081b",
                    "gasUsed": 1338,
                    "id": 2,
                    "methodDecoded": true,
                    "operation": "STATICCALL",
                    "output": "0x0000000000000000000000000000000000000000000000056bc75e2d63100000",
                    "revert": false,
                    "revertMessage": "",
                    "selector": "0xdd62ed3e",
                    "status": true,
                    "value": "0"
                },
                "nodeType": 0
            },
            "20": {
                "invocation": {
                    "address": "0x55d398326f99059ff775485246999027b3197955",
                    "callData": "0x0000000000000000000000009917904d993c330d39872db88bfa8fcbfca87593000000000000000000000000d3c755e74d44b460ac018e0554cbe9316f6859c1",
                    "decodedMethod": {
                        "callParams": [
                            {
                                "name": "owner",
                                "type": "address",
                                "value": "0x9917904d993c330d39872db88bfa8fcbfca87593"
                            },
                            {
                                "name": "spender",
                                "type": "address",
                                "value": "0xd3c755e74d44b460ac018e0554cbe9316f6859c1"
                            }
                        ],
                        "constructorArguments": "",
                        "name": "allowance",
                        "returnParams": [
                            {
                                "decimalAvailable": true,
                                "name": "",
                                "type": "uint256",
                                "value": "2,000,000,000,000,000,000,000"
                            }
                        ],
                        "signature": "allowance(address,address)"
                    },
                    "errorInfo": "",
                    "fromAddress": "0xb29c9d9cd5977c6a651a5c0e81b6a252a71b081b",
                    "gasUsed": 1338,
                    "id": 20,
                    "methodDecoded": true,
                    "operation": "STATICCALL",
                    "output": "0x00000000000000000000000000000000000000000000006c6b935b8bbd400000",
                    "revert": false,
                    "revertMessage": "",
                    "selector": "0xdd62ed3e",
                    "status": true,
                    "value": "0"
                },
                "nodeType": 0
            },
            "21": {
                "invocation": {
                    "address": "0xd3c755e74d44b460ac018e0554cbe9316f6859c1",
                    "callData": "0x0000000000000000000000009917904d993c330d39872db88bfa8fcbfca87593000000000000000000000000ffc21396bc3c981f057b4ec993edb2a305ef8a6200000000000000000000000000000000000000000000006c6b935b8bbd400000",
                    "decodedMethod": {
                        "callParams": [
                            {
                                "name": "asset",
                                "type": "address",
                                "value": "0x9917904d993c330d39872db88bfa8fcbfca87593"
                            },
                            {
                                "name": "to",
                                "type": "address",
                                "value": "0xffc21396bc3c981f057b4ec993edb2a305ef8a62"
                            },
                            {
                                "name": "amount",
                                "type": "uint256",
                                "value": "2,000,000,000,000,000,000,000"
                            }
                        ],
                        "constructorArguments": "",
                        "name": "transferOut",
                        "returnParams": [],
                        "signature": "transferOut(address,address,uint256)"
                    },
                    "errorInfo": "",
                    "fromAddress": "0xb29c9d9cd5977c6a651a5c0e81b6a252a71b081b",
                    "gasUsed": 21888,
                    "id": 21,
                    "methodDecoded": true,
                    "operation": "CALL",
                    "output": "",
                    "revert": false,
                    "revertMessage": "",
                    "selector": "0x078d3b79",
                    "status": true,
                    "value": "0"
                },
                "nodeType": 0
            },
            "22": {
                "invocation": {
                    "address": "0x55d398326f99059ff775485246999027b3197955",
                    "callData": "0x0000000000000000000000009917904d993c330d39872db88bfa8fcbfca87593000000000000000000000000ffc21396bc3c981f057b4ec993edb2a305ef8a6200000000000000000000000000000000000000000000006c6b935b8bbd400000",
                    "decodedMethod": {
                        "callParams": [
                            {
                                "name": "sender",
                                "type": "address",
                                "value": "0x9917904d993c330d39872db88bfa8fcbfca87593"
                            },
                            {
                                "name": "recipient",
                                "type": "address",
                                "value": "0xffc21396bc3c981f057b4ec993edb2a305ef8a62"
                            },
                            {
                                "decimalAvailable": true,
                                "name": "amount",
                                "type": "uint256",
                                "value": "2,000,000,000,000,000,000,000"
                            }
                        ],
                        "constructorArguments": "",
                        "name": "transferFrom",
                        "returnParams": [
                            {
                                "name": "",
                                "type": "bool",
                                "value": true
                            }
                        ],
                        "signature": "transferFrom(address,address,uint256)"
                    },
                    "errorInfo": "",
                    "fromAddress": "0xd3c755e74d44b460ac018e0554cbe9316f6859c1",
                    "gasUsed": 18634,
                    "id": 22,
                    "methodDecoded": true,
                    "operation": "CALL",
                    "output": "0x0000000000000000000000000000000000000000000000000000000000000001",
                    "revert": false,
                    "revertMessage": "",
                    "selector": "0x23b872dd",
                    "status": true,
                    "value": "0"
                },
                "nodeType": 0
            },
            "23": {
                "event": {
                    "contract": "0x55d398326f99059ff775485246999027b3197955",
                    "decodedLog": {
                        "name": "Transfer",
                        "params": [
                            {
                                "name": "from",
                                "type": "address",
                                "value": "0x9917904d993c330d39872db88bfa8fcbfca87593"
                            },
                            {
                                "name": "to",
                                "type": "address",
                                "value": "0xffc21396bc3c981f057b4ec993edb2a305ef8a62"
                            },
                            {
                                "decimalAvailable": true,
                                "name": "value",
                                "type": "uint256",
                                "value": "2,000,000,000,000,000,000,000"
                            }
                        ],
                        "signature": "Transfer(address,address,uint256)"
                    },
                    "id": 23,
                    "logData": "0x00000000000000000000000000000000000000000000006c6b935b8bbd400000",
                    "logDecoded": true,
                    "operation": "EVENT",
                    "revert": false,
                    "status": true,
                    "topics": [
                        "0xddf252ad1be2c89b69c2b068fc378daa952ba7f163c4a11628f55a4df523b3ef",
                        "0x0000000000000000000000009917904d993c330d39872db88bfa8fcbfca87593",
                        "0x000000000000000000000000ffc21396bc3c981f057b4ec993edb2a305ef8a62"
                    ]
                },
                "nodeType": 1
            },
            "24": {
                "event": {
                    "contract": "0x55d398326f99059ff775485246999027b3197955",
                    "decodedLog": {
                        "name": "Approval",
                        "params": [
                            {
                                "name": "owner",
                                "type": "address",
                                "value": "0x9917904d993c330d39872db88bfa8fcbfca87593"
                            },
                            {
                                "name": "spender",
                                "type": "address",
                                "value": "0xd3c755e74d44b460ac018e0554cbe9316f6859c1"
                            },
                            {
                                "decimalAvailable": true,
                                "name": "value",
                                "type": "uint256",
                                "value": "0"
                            }
                        ],
                        "signature": "Approval(address,address,uint256)"
                    },
                    "id": 24,
                    "logData": "0x0000000000000000000000000000000000000000000000000000000000000000",
                    "logDecoded": true,
                    "operation": "EVENT",
                    "revert": false,
                    "status": true,
                    "topics": [
                        "0x8c5be1e5ebec7d5bd14f71427d1e84f3dd0314c0f7b2291e5b200ac8c7c3b925",
                        "0x0000000000000000000000009917904d993c330d39872db88bfa8fcbfca87593",
                        "0x000000000000000000000000d3c755e74d44b460ac018e0554cbe9316f6859c1"
                    ]
                },
                "nodeType": 1
            },
            "25": {
                "invocation": {
                    "address": "0x55d398326f99059ff775485246999027b3197955",
                    "callData": "0x000000000000000000000000bde5e69a74711e10694647a54d97a0f6600bfa51",
                    "decodedMethod": {
                        "callParams": [
                            {
                                "name": "account",
                                "type": "address",
                                "value": "0xbde5e69a74711e10694647a54d97a0f6600bfa51"
                            }
                        ],
                        "constructorArguments": "",
                        "name": "balanceOf",
                        "returnParams": [
                            {
                                "decimalAvailable": true,
                                "name": "",
                                "type": "uint256",
                                "value": "120,000,000,000,000,000,000"
                            }
                        ],
                        "signature": "balanceOf(address)"
                    },
                    "errorInfo": "",
                    "fromAddress": "0xb29c9d9cd5977c6a651a5c0e81b6a252a71b081b",
                    "gasUsed": 1231,
                    "id": 25,
                    "methodDecoded": true,
                    "operation": "STATICCALL",
                    "output": "0x0000000000000000000000000000000000000000000000068155a43676e00000",
                    "revert": false,
                    "revertMessage": "",
                    "selector": "0x70a08231",
                    "status": true,
                    "value": "0"
                },
                "nodeType": 0
            },
            "26": {
                "invocation": {
                    "address": "0x55d398326f99059ff775485246999027b3197955",
                    "callData": "0x000000000000000000000000bde5e69a74711e10694647a54d97a0f6600bfa51000000000000000000000000d3c755e74d44b460ac018e0554cbe9316f6859c1",
                    "decodedMethod": {
                        "callParams": [
                            {
                                "name": "owner",
                                "type": "address",
                                "value": "0xbde5e69a74711e10694647a54d97a0f6600bfa51"
                            },
                            {
                                "name": "spender",
                                "type": "address",
                                "value": "0xd3c755e74d44b460ac018e0554cbe9316f6859c1"
                            }
                        ],
                        "constructorArguments": "",
                        "name": "allowance",
                        "returnParams": [
                            {
                                "decimalAvailable": true,
                                "name": "",
                                "type": "uint256",
                                "value": "100,000,000,000,000,000,000"
                            }
                        ],
                        "signature": "allowance(address,address)"
                    },
                    "errorInfo": "",
                    "fromAddress": "0xb29c9d9cd5977c6a651a5c0e81b6a252a71b081b",
                    "gasUsed": 1338,
                    "id": 26,
                    "methodDecoded": true,
                    "operation": "STATICCALL",
                    "output": "0x0000000000000000000000000000000000000000000000056bc75e2d63100000",
                    "revert": false,
                    "revertMessage": "",
                    "selector": "0xdd62ed3e",
                    "status": true,
                    "value": "0"
                },
                "nodeType": 0
            },
            "27": {
                "invocation": {
                    "address": "0xd3c755e74d44b460ac018e0554cbe9316f6859c1",
                    "callData": "0x000000000000000000000000bde5e69a74711e10694647a54d97a0f6600bfa51000000000000000000000000ffc21396bc3c981f057b4ec993edb2a305ef8a620000000000000000000000000000000000000000000000056bc75e2d63100000",
                    "decodedMethod": {
                        "callParams": [
                            {
                                "name": "asset",
                                "type": "address",
                                "value": "0xbde5e69a74711e10694647a54d97a0f6600bfa51"
                            },
                            {
                                "name": "to",
                                "type": "address",
                                "value": "0xffc21396bc3c981f057b4ec993edb2a305ef8a62"
                            },
                            {
                                "name": "amount",
                                "type": "uint256",
                                "value": "100,000,000,000,000,000,000"
                            }
                        ],
                        "constructorArguments": "",
                        "name": "transferOut",
                        "returnParams": [],
                        "signature": "transferOut(address,address,uint256)"
                    },
                    "errorInfo": "",
                    "fromAddress": "0xb29c9d9cd5977c6a651a5c0e81b6a252a71b081b",
                    "gasUsed": 21888,
                    "id": 27,
                    "methodDecoded": true,
                    "operation": "CALL",
                    "output": "",
                    "revert": false,
                    "revertMessage": "",
                    "selector": "0x078d3b79",
                    "status": true,
                    "value": "0"
                },
                "nodeType": 0
            },
            "28": {
                "invocation": {
                    "address": "0x55d398326f99059ff775485246999027b3197955",
                    "callData": "0x000000000000000000000000bde5e69a74711e10694647a54d97a0f6600bfa51000000000000000000000000ffc21396bc3c981f057b4ec993edb2a305ef8a620000000000000000000000000000000000000000000000056bc75e2d63100000",
                    "decodedMethod": {
                        "callParams": [
                            {
                                "name": "sender",
                                "type": "address",
                                "value": "0xbde5e69a74711e10694647a54d97a0f6600bfa51"
                            },
                            {
                                "name": "recipient",
                                "type": "address",
                                "value": "0xffc21396bc3c981f057b4ec993edb2a305ef8a62"
                            },
                            {
                                "decimalAvailable": true,
                                "name": "amount",
                                "type": "uint256",
                                "value": "100,000,000,000,000,000,000"
                            }
                        ],
                        "constructorArguments": "",
                        "name": "transferFrom",
                        "returnParams": [
                            {
                                "name": "",
                                "type": "bool",
                                "value": true
                            }
                        ],
                        "signature": "transferFrom(address,address,uint256)"
                    },
                    "errorInfo": "",
                    "fromAddress": "0xd3c755e74d44b460ac018e0554cbe9316f6859c1",
                    "gasUsed": 18634,
                    "id": 28,
                    "methodDecoded": true,
                    "operation": "CALL",
                    "output": "0x0000000000000000000000000000000000000000000000000000000000000001",
                    "revert": false,
                    "revertMessage": "",
                    "selector": "0x23b872dd",
                    "status": true,
                    "value": "0"
                },
                "nodeType": 0
            },
            "29": {
                "event": {
                    "contract": "0x55d398326f99059ff775485246999027b3197955",
                    "decodedLog": {
                        "name": "Transfer",
                        "params": [
                            {
                                "name": "from",
                                "type": "address",
                                "value": "0xbde5e69a74711e10694647a54d97a0f6600bfa51"
                            },
                            {
                                "name": "to",
                                "type": "address",
                                "value": "0xffc21396bc3c981f057b4ec993edb2a305ef8a62"
                            },
                            {
                                "decimalAvailable": true,
                                "name": "value",
                                "type": "uint256",
                                "value": "100,000,000,000,000,000,000"
                            }
                        ],
                        "signature": "Transfer(address,address,uint256)"
                    },
                    "id": 29,
                    "logData": "0x0000000000000000000000000000000000000000000000056bc75e2d63100000",
                    "logDecoded": true,
                    "operation": "EVENT",
                    "revert": false,
                    "status": true,
                    "topics": [
                        "0xddf252ad1be2c89b69c2b068fc378daa952ba7f163c4a11628f55a4df523b3ef",
                        "0x000000000000000000000000bde5e69a74711e10694647a54d97a0f6600bfa51",
                        "0x000000000000000000000000ffc21396bc3c981f057b4ec993edb2a305ef8a62"
                    ]
                },
                "nodeType": 1
            },
            "3": {
                "invocation": {
                    "address": "0xd3c755e74d44b460ac018e0554cbe9316f6859c1",
                    "callData": "0x000000000000000000000000847efeb905435316c87fb77736c7a6ac58068185000000000000000000000000ffc21396bc3c981f057b4ec993edb2a305ef8a6200000000000000000000000000000000000000000000000154b30a0299029000",
                    "decodedMethod": {
                        "callParams": [
                            {
                                "name": "asset",
                                "type": "address",
                                "value": "0x847efeb905435316c87fb77736c7a6ac58068185"
                            },
                            {
                                "name": "to",
                                "type": "address",
                                "value": "0xffc21396bc3c981f057b4ec993edb2a305ef8a62"
                            },
                            {
                                "name": "amount",
                                "type": "uint256",
                                "value": "24,549,977,000,000,000,000"
                            }
                        ],
                        "constructorArguments": "",
                        "name": "transferOut",
                        "returnParams": [],
                        "signature": "transferOut(address,address,uint256)"
                    },
                    "errorInfo": "",
                    "fromAddress": "0xb29c9d9cd5977c6a651a5c0e81b6a252a71b081b",
                    "gasUsed": 41088,
                    "id": 3,
                    "methodDecoded": true,
                    "operation": "CALL",
                    "output": "",
                    "revert": false,
                    "revertMessage": "",
                    "selector": "0x078d3b79",
                    "status": true,
                    "value": "0"
                },
                "nodeType": 0
            },
            "30": {
                "event": {
                    "contract": "0x55d398326f99059ff775485246999027b3197955",
                    "decodedLog": {
                        "name": "Approval",
                        "params": [
                            {
                                "name": "owner",
                                "type": "address",
                                "value": "0xbde5e69a74711e10694647a54d97a0f6600bfa51"
                            },
                            {
                                "name": "spender",
                                "type": "address",
                                "value": "0xd3c755e74d44b460ac018e0554cbe9316f6859c1"
                            },
                            {
                                "decimalAvailable": true,
                                "name": "value",
                                "type": "uint256",
                                "value": "0"
                            }
                        ],
                        "signature": "Approval(address,address,uint256)"
                    },
                    "id": 30,
                    "logData": "0x0000000000000000000000000000000000000000000000000000000000000000",
                    "logDecoded": true,
                    "operation": "EVENT",
                    "revert": false,
                    "status": true,
                    "topics": [
                        "0x8c5be1e5ebec7d5bd14f71427d1e84f3dd0314c0f7b2291e5b200ac8c7c3b925",
                        "0x000000000000000000000000bde5e69a74711e10694647a54d97a0f6600bfa51",
                        "0x000000000000000000000000d3c755e74d44b460ac018e0554cbe9316f6859c1"
                    ]
                },
                "nodeType": 1
            },
            "31": {
                "invocation": {
                    "address": "0x55d398326f99059ff775485246999027b3197955",
                    "callData": "0x0000000000000000000000001a9187bb13245d847c2d569513d644223e2bce85",
                    "decodedMethod": {
                        "callParams": [
                            {
                                "name": "account",
                                "type": "address",
                                "value": "0x1a9187bb13245d847c2d569513d644223e2bce85"
                            }
                        ],
                        "constructorArguments": "",
                        "name": "balanceOf",
                        "returnParams": [
                            {
                                "decimalAvailable": true,
                                "name": "",
                                "type": "uint256",
                                "value": "84,000,000,000,000,000,000"
                            }
                        ],
                        "signature": "balanceOf(address)"
                    },
                    "errorInfo": "",
                    "fromAddress": "0xb29c9d9cd5977c6a651a5c0e81b6a252a71b081b",
                    "gasUsed": 1231,
                    "id": 31,
                    "methodDecoded": true,
                    "operation": "STATICCALL",
                    "output": "0x0000000000000000000000000000000000000000000000048dbbf2f2ecd00000",
                    "revert": false,
                    "revertMessage": "",
                    "selector": "0x70a08231",
                    "status": true,
                    "value": "0"
                },
                "nodeType": 0
            },
            "32": {
                "invocation": {
                    "address": "0x55d398326f99059ff775485246999027b3197955",
                    "callData": "0x0000000000000000000000001a9187bb13245d847c2d569513d644223e2bce85000000000000000000000000d3c755e74d44b460ac018e0554cbe9316f6859c1",
                    "decodedMethod": {
                        "callParams": [
                            {
                                "name": "owner",
                                "type": "address",
                                "value": "0x1a9187bb13245d847c2d569513d644223e2bce85"
                            },
                            {
                                "name": "spender",
                                "type": "address",
                                "value": "0xd3c755e74d44b460ac018e0554cbe9316f6859c1"
                            }
                        ],
                        "constructorArguments": "",
                        "name": "allowance",
                        "returnParams": [
                            {
                                "decimalAvailable": true,
                                "name": "",
                                "type": "uint256",
                                "value": "100,000,000,000,000,000,000"
                            }
                        ],
                        "signature": "allowance(address,address)"
                    },
                    "errorInfo": "",
                    "fromAddress": "0xb29c9d9cd5977c6a651a5c0e81b6a252a71b081b",
                    "gasUsed": 1338,
                    "id": 32,
                    "methodDecoded": true,
                    "operation": "STATICCALL",
                    "output": "0x0000000000000000000000000000000000000000000000056bc75e2d63100000",
                    "revert": false,
                    "revertMessage": "",
                    "selector": "0xdd62ed3e",
                    "status": true,
                    "value": "0"
                },
                "nodeType": 0
            },
            "33": {
                "invocation": {
                    "address": "0xd3c755e74d44b460ac018e0554cbe9316f6859c1",
                    "callData": "0x0000000000000000000000001a9187bb13245d847c2d569513d644223e2bce85000000000000000000000000ffc21396bc3c981f057b4ec993edb2a305ef8a620000000000000000000000000000000000000000000000048dbbf2f2ecd00000",
                    "decodedMethod": {
                        "callParams": [
                            {
                                "name": "asset",
                                "type": "address",
                                "value": "0x1a9187bb13245d847c2d569513d644223e2bce85"
                            },
                            {
                                "name": "to",
                                "type": "address",
                                "value": "0xffc21396bc3c981f057b4ec993edb2a305ef8a62"
                            },
                            {
                                "name": "amount",
                                "type": "uint256",
                                "value": "84,000,000,000,000,000,000"
                            }
                        ],
                        "constructorArguments": "",
                        "name": "transferOut",
                        "returnParams": [],
                        "signature": "transferOut(address,address,uint256)"
                    },
                    "errorInfo": "",
                    "fromAddress": "0xb29c9d9cd5977c6a651a5c0e81b6a252a71b081b",
                    "gasUsed": 21888,
                    "id": 33,
                    "methodDecoded": true,
                    "operation": "CALL",
                    "output": "",
                    "revert": false,
                    "revertMessage": "",
                    "selector": "0x078d3b79",
                    "status": true,
                    "value": "0"
                },
                "nodeType": 0
            },
            "34": {
                "invocation": {
                    "address": "0x55d398326f99059ff775485246999027b3197955",
                    "callData": "0x0000000000000000000000001a9187bb13245d847c2d569513d644223e2bce85000000000000000000000000ffc21396bc3c981f057b4ec993edb2a305ef8a620000000000000000000000000000000000000000000000048dbbf2f2ecd00000",
                    "decodedMethod": {
                        "callParams": [
                            {
                                "name": "sender",
                                "type": "address",
                                "value": "0x1a9187bb13245d847c2d569513d644223e2bce85"
                            },
                            {
                                "name": "recipient",
                                "type": "address",
                                "value": "0xffc21396bc3c981f057b4ec993edb2a305ef8a62"
                            },
                            {
                                "decimalAvailable": true,
                                "name": "amount",
                                "type": "uint256",
                                "value": "84,000,000,000,000,000,000"
                            }
                        ],
                        "constructorArguments": "",
                        "name": "transferFrom",
                        "returnParams": [
                            {
                                "name": "",
                                "type": "bool",
                                "value": true
                            }
                        ],
                        "signature": "transferFrom(address,address,uint256)"
                    },
                    "errorInfo": "",
                    "fromAddress": "0xd3c755e74d44b460ac018e0554cbe9316f6859c1",
                    "gasUsed": 18634,
                    "id": 34,
                    "methodDecoded": true,
                    "operation": "CALL",
                    "output": "0x0000000000000000000000000000000000000000000000000000000000000001",
                    "revert": false,
                    "revertMessage": "",
                    "selector": "0x23b872dd",
                    "status": true,
                    "value": "0"
                },
                "nodeType": 0
            },
            "35": {
                "event": {
                    "contract": "0x55d398326f99059ff775485246999027b3197955",
                    "decodedLog": {
                        "name": "Transfer",
                        "params": [
                            {
                                "name": "from",
                                "type": "address",
                                "value": "0x1a9187bb13245d847c2d569513d644223e2bce85"
                            },
                            {
                                "name": "to",
                                "type": "address",
                                "value": "0xffc21396bc3c981f057b4ec993edb2a305ef8a62"
                            },
                            {
                                "decimalAvailable": true,
                                "name": "value",
                                "type": "uint256",
                                "value": "84,000,000,000,000,000,000"
                            }
                        ],
                        "signature": "Transfer(address,address,uint256)"
                    },
                    "id": 35,
                    "logData": "0x0000000000000000000000000000000000000000000000048dbbf2f2ecd00000",
                    "logDecoded": true,
                    "operation": "EVENT",
                    "revert": false,
                    "status": true,
                    "topics": [
                        "0xddf252ad1be2c89b69c2b068fc378daa952ba7f163c4a11628f55a4df523b3ef",
                        "0x0000000000000000000000001a9187bb13245d847c2d569513d644223e2bce85",
                        "0x000000000000000000000000ffc21396bc3c981f057b4ec993edb2a305ef8a62"
                    ]
                },
                "nodeType": 1
            },
            "36": {
                "event": {
                    "contract": "0x55d398326f99059ff775485246999027b3197955",
                    "decodedLog": {
                        "name": "Approval",
                        "params": [
                            {
                                "name": "owner",
                                "type": "address",
                                "value": "0x1a9187bb13245d847c2d569513d644223e2bce85"
                            },
                            {
                                "name": "spender",
                                "type": "address",
                                "value": "0xd3c755e74d44b460ac018e0554cbe9316f6859c1"
                            },
                            {
                                "decimalAvailable": true,
                                "name": "value",
                                "type": "uint256",
                                "value": "16,000,000,000,000,000,000"
                            }
                        ],
                        "signature": "Approval(address,address,uint256)"
                    },
                    "id": 36,
                    "logData": "0x000000000000000000000000000000000000000000000000de0b6b3a76400000",
                    "logDecoded": true,
                    "operation": "EVENT",
                    "revert": false,
                    "status": true,
                    "topics": [
                        "0x8c5be1e5ebec7d5bd14f71427d1e84f3dd0314c0f7b2291e5b200ac8c7c3b925",
                        "0x0000000000000000000000001a9187bb13245d847c2d569513d644223e2bce85",
                        "0x000000000000000000000000d3c755e74d44b460ac018e0554cbe9316f6859c1"
                    ]
                },
                "nodeType": 1
            },
            "4": {
                "invocation": {
                    "address": "0x55d398326f99059ff775485246999027b3197955",
                    "callData": "0x000000000000000000000000847efeb905435316c87fb77736c7a6ac58068185000000000000000000000000ffc21396bc3c981f057b4ec993edb2a305ef8a6200000000000000000000000000000000000000000000000154b30a0299029000",
                    "decodedMethod": {
                        "callParams": [
                            {
                                "name": "sender",
                                "type": "address",
                                "value": "0x847efeb905435316c87fb77736c7a6ac58068185"
                            },
                            {
                                "name": "recipient",
                                "type": "address",
                                "value": "0xffc21396bc3c981f057b4ec993edb2a305ef8a62"
                            },
                            {
                                "decimalAvailable": true,
                                "name": "amount",
                                "type": "uint256",
                                "value": "24,549,977,000,000,000,000"
                            }
                        ],
                        "constructorArguments": "",
                        "name": "transferFrom",
                        "returnParams": [
                            {
                                "name": "",
                                "type": "bool",
                                "value": true
                            }
                        ],
                        "signature": "transferFrom(address,address,uint256)"
                    },
                    "errorInfo": "",
                    "fromAddress": "0xd3c755e74d44b460ac018e0554cbe9316f6859c1",
                    "gasUsed": 37834,
                    "id": 4,
                    "methodDecoded": true,
                    "operation": "CALL",
                    "output": "0x0000000000000000000000000000000000000000000000000000000000000001",
                    "revert": false,
                    "revertMessage": "",
                    "selector": "0x23b872dd",
                    "status": true,
                    "value": "0"
                },
                "nodeType": 0
            },
            "5": {
                "event": {
                    "contract": "0x55d398326f99059ff775485246999027b3197955",
                    "decodedLog": {
                        "name": "Transfer",
                        "params": [
                            {
                                "name": "from",
                                "type": "address",
                                "value": "0x847efeb905435316c87fb77736c7a6ac58068185"
                            },
                            {
                                "name": "to",
                                "type": "address",
                                "value": "0xffc21396bc3c981f057b4ec993edb2a305ef8a62"
                            },
                            {
                                "decimalAvailable": true,
                                "name": "value",
                                "type": "uint256",
                                "value": "24,549,977,000,000,000,000"
                            }
                        ],
                        "signature": "Transfer(address,address,uint256)"
                    },
                    "id": 5,
                    "logData": "0x00000000000000000000000000000000000000000000000154b30a0299029000",
                    "logDecoded": true,
                    "operation": "EVENT",
                    "revert": false,
                    "status": true,
                    "topics": [
                        "0xddf252ad1be2c89b69c2b068fc378daa952ba7f163c4a11628f55a4df523b3ef",
                        "0x000000000000000000000000847efeb905435316c87fb77736c7a6ac58068185",
                        "0x000000000000000000000000ffc21396bc3c981f057b4ec993edb2a305ef8a62"
                    ]
                },
                "nodeType": 1
            },
            "6": {
                "event": {
                    "contract": "0x55d398326f99059ff775485246999027b3197955",
                    "decodedLog": {
                        "name": "Approval",
                        "params": [
                            {
                                "name": "owner",
                                "type": "address",
                                "value": "0x847efeb905435316c87fb77736c7a6ac58068185"
                            },
                            {
                                "name": "spender",
                                "type": "address",
                                "value": "0xd3c755e74d44b460ac018e0554cbe9316f6859c1"
                            },
                            {
                                "decimalAvailable": true,
                                "name": "value",
                                "type": "uint256",
                                "value": "75,450,023,000,000,000,000"
                            }
                        ],
                        "signature": "Approval(address,address,uint256)"
                    },
                    "id": 6,
                    "logData": "0x0000000000000000000000000000000000000000000000041714542aca0d7000",
                    "logDecoded": true,
                    "operation": "EVENT",
                    "revert": false,
                    "status": true,
                    "topics": [
                        "0x8c5be1e5ebec7d5bd14f71427d1e84f3dd0314c0f7b2291e5b200ac8c7c3b925",
                        "0x000000000000000000000000847efeb905435316c87fb77736c7a6ac58068185",
                        "0x000000000000000000000000d3c755e74d44b460ac018e0554cbe9316f6859c1"
                    ]
                },
                "nodeType": 1
            },
            "7": {
                "invocation": {
                    "address": "0x55d398326f99059ff775485246999027b3197955",
                    "callData": "0x000000000000000000000000f618499ed814f2c72918c904e9d9a55d12962f99",
                    "decodedMethod": {
                        "callParams": [
                            {
                                "name": "account",
                                "type": "address",
                                "value": "0xf618499ed814f2c72918c904e9d9a55d12962f99"
                            }
                        ],
                        "constructorArguments": "",
                        "name": "balanceOf",
                        "returnParams": [
                            {
                                "decimalAvailable": true,
                                "name": "",
                                "type": "uint256",
                                "value": "268,684,514,000,000,000,000"
                            }
                        ],
                        "signature": "balanceOf(address)"
                    },
                    "errorInfo": "",
                    "fromAddress": "0xb29c9d9cd5977c6a651a5c0e81b6a252a71b081b",
                    "gasUsed": 1231,
                    "id": 7,
                    "methodDecoded": true,
                    "operation": "STATICCALL",
                    "output": "0x00000000000000000000000000000000000000000000000e90bf25ee72782000",
                    "revert": false,
                    "revertMessage": "",
                    "selector": "0x70a08231",
                    "status": true,
                    "value": "0"
                },
                "nodeType": 0
            },
            "8": {
                "invocation": {
                    "address": "0x55d398326f99059ff775485246999027b3197955",
                    "callData": "0x000000000000000000000000f618499ed814f2c72918c904e9d9a55d12962f99000000000000000000000000d3c755e74d44b460ac018e0554cbe9316f6859c1",
                    "decodedMethod": {
                        "callParams": [
                            {
                                "name": "owner",
                                "type": "address",
                                "value": "0xf618499ed814f2c72918c904e9d9a55d12962f99"
                            },
                            {
                                "name": "spender",
                                "type": "address",
                                "value": "0xd3c755e74d44b460ac018e0554cbe9316f6859c1"
                            }
                        ],
                        "constructorArguments": "",
                        "name": "allowance",
                        "returnParams": [
                            {
                                "decimalAvailable": true,
                                "name": "",
                                "type": "uint256",
                                "value": "100,000,000,000,000,000,000"
                            }
                        ],
                        "signature": "allowance(address,address)"
                    },
                    "errorInfo": "",
                    "fromAddress": "0xb29c9d9cd5977c6a651a5c0e81b6a252a71b081b",
                    "gasUsed": 1338,
                    "id": 8,
                    "methodDecoded": true,
                    "operation": "STATICCALL",
                    "output": "0x0000000000000000000000000000000000000000000000056bc75e2d63100000",
                    "revert": false,
                    "revertMessage": "",
                    "selector": "0xdd62ed3e",
                    "status": true,
                    "value": "0"
                },
                "nodeType": 0
            },
            "9": {
                "invocation": {
                    "address": "0xd3c755e74d44b460ac018e0554cbe9316f6859c1",
                    "callData": "0x000000000000000000000000f618499ed814f2c72918c904e9d9a55d12962f99000000000000000000000000ffc21396bc3c981f057b4ec993edb2a305ef8a620000000000000000000000000000000000000000000000056bc75e2d63100000",
                    "decodedMethod": {
                        "callParams": [
                            {
                                "name": "asset",
                                "type": "address",
                                "value": "0xf618499ed814f2c72918c904e9d9a55d12962f99"
                            },
                            {
                                "name": "to",
                                "type": "address",
                                "value": "0xffc21396bc3c981f057b4ec993edb2a305ef8a62"
                            },
                            {
                                "name": "amount",
                                "type": "uint256",
                                "value": "100,000,000,000,000,000,000"
                            }
                        ],
                        "constructorArguments": "",
                        "name": "transferOut",
                        "returnParams": [],
                        "signature": "transferOut(address,address,uint256)"
                    },
                    "errorInfo": "",
                    "fromAddress": "0xb29c9d9cd5977c6a651a5c0e81b6a252a71b081b",
                    "gasUsed": 21888,
                    "id": 9,
                    "methodDecoded": true,
                    "operation": "CALL",
                    "output": "",
                    "revert": false,
                    "revertMessage": "",
                    "selector": "0x078d3b79",
                    "status": true,
                    "value": "0"
                },
                "nodeType": 0
            }
        },
        "gasFlame": [
            {
                "children": [
                    {
                        "children": [
                            {
                                "children": [],
                                "depth": 0,
                                "name": "Initial Gas",
                                "value": 24464
                            },
                            {
                                "children": [
                                    {
                                        "children": [],
                                        "depth": 1,
                                        "name": "balanceOf",
                                        "value": 1231
                                    },
                                    {
                                        "children": [],
                                        "depth": 1,
                                        "name": "allowance",
                                        "value": 1338
                                    },
                                    {
                                        "children": [
                                            {
                                                "children": [],
                                                "depth": 2,
                                                "name": "transferFrom",
                                                "value": 37834
                                            }
                                        ],
                                        "depth": 1,
                                        "name": "transferOut",
                                        "value": 41088
                                    },
                                    {
                                        "children": [],
                                        "depth": 1,
                                        "name": "balanceOf",
                                        "value": 1231
                                    },
                                    {
                                        "children": [],
                                        "depth": 1,
                                        "name": "allowance",
                                        "value": 1338
                                    },
                                    {
                                        "children": [
                                            {
                                                "children": [],
                                                "depth": 2,
                                                "name": "transferFrom",
                                                "value": 18634
                                            }
                                        ],
                                        "depth": 1,
                                        "name": "transferOut",
                                        "value": 21888
                                    },
                                    {
                                        "children": [],
                                        "depth": 1,
                                        "name": "balanceOf",
                                        "value": 1231
                                    },
                                    {
                                        "children": [],
                                        "depth": 1,
                                        "name": "allowance",
                                        "value": 1338
                                    },
                                    {
                                        "children": [
                                            {
                                                "children": [],
                                                "depth": 2,
                                                "name": "transferFrom",
                                                "value": 18634
                                            }
                                        ],
                                        "depth": 1,
                                        "name": "transferOut",
                                        "value": 21888
                                    },
                                    {
                                        "children": [],
                                        "depth": 1,
                                        "name": "balanceOf",
                                        "value": 1231
                                    },
                                    {
                                        "children": [],
                                        "depth": 1,
                                        "name": "allowance",
                                        "value": 1338
                                    },
                                    {
                                        "children": [
                                            {
                                                "children": [],
                                                "depth": 2,
                                                "name": "transferFrom",
                                                "value": 18634
                                            }
                                        ],
                                        "depth": 1,
                                        "name": "transferOut",
                                        "value": 21888
                                    },
                                    {
                                        "children": [],
                                        "depth": 1,
                                        "name": "balanceOf",
                                        "value": 1231
                                    },
                                    {
                                        "children": [],
                                        "depth": 1,
                                        "name": "allowance",
                                        "value": 1338
                                    },
                                    {
                                        "children": [
                                            {
                                                "children": [],
                                                "depth": 2,
                                                "name": "transferFrom",
                                                "value": 18634
                                            }
                                        ],
                                        "depth": 1,
                                        "name": "transferOut",
                                        "value": 21888
                                    },
                                    {
                                        "children": [],
                                        "depth": 1,
                                        "name": "balanceOf",
                                        "value": 1231
                                    },
                                    {
                                        "children": [],
                                        "depth": 1,
                                        "name": "allowance",
                                        "value": 1338
                                    },
                                    {
                                        "children": [
                                            {
                                                "children": [],
                                                "depth": 2,
                                                "name": "transferFrom",
                                                "value": 18634
                                            }
                                        ],
                                        "depth": 1,
                                        "name": "transferOut",
                                        "value": 21888
                                    }
                                ],
                                "depth": 0,
                                "name": "Executed Gas",
                                "value": 194214
                            }
                        ],
                        "depth": -1,
                        "name": "Actual Gas Used",
                        "value": 128678
                    },
                    {
                        "children": [],
                        "depth": -1,
                        "name": "Refunded Gas",
                        "value": 90000
                    }
                ],
                "depth": -2,
                "name": "Total Gas",
                "value": 218678
            }
        ],
        "isConfirmed": true,
        "mainTrace": [
            {
                "children": [
                    {
                        "children": [
                            {
                                "children": [],
                                "depth": 1,
                                "id": 1,
                                "order": 1
                            },
                            {
                                "children": [],
                                "depth": 1,
                                "id": 2,
                                "order": 2
                            },
                            {
                                "children": [
                                    {
                                        "children": [
                                            {
                                                "children": [],
                                                "depth": 3,
                                                "id": 5,
                                                "order": 5
                                            },
                                            {
                                                "children": [],
                                                "depth": 3,
                                                "id": 6,
                                                "order": 6
                                            }
                                        ],
                                        "depth": 2,
                                        "id": 4,
                                        "order": 4
                                    }
                                ],
                                "depth": 1,
                                "id": 3,
                                "order": 3
                            },
                            {
                                "children": [],
                                "depth": 1,
                                "id": 7,
                                "order": 7
                            },
                            {
                                "children": [],
                                "depth": 1,
                                "id": 8,
                                "order": 8
                            },
                            {
                                "children": [
                                    {
                                        "children": [
                                            {
                                                "children": [],
                                                "depth": 3,
                                                "id": 11,
                                                "order": 11
                                            },
                                            {
                                                "children": [],
                                                "depth": 3,
                                                "id": 12,
                                                "order": 12
                                            }
                                        ],
                                        "depth": 2,
                                        "id": 10,
                                        "order": 10
                                    }
                                ],
                                "depth": 1,
                                "id": 9,
                                "order": 9
                            },
                            {
                                "children": [],
                                "depth": 1,
                                "id": 13,
                                "order": 13
                            },
                            {
                                "children": [],
                                "depth": 1,
                                "id": 14,
                                "order": 14
                            },
                            {
                                "children": [
                                    {
                                        "children": [
                                            {
                                                "children": [],
                                                "depth": 3,
                                                "id": 17,
                                                "order": 17
                                            },
                                            {
                                                "children": [],
                                                "depth": 3,
                                                "id": 18,
                                                "order": 18
                                            }
                                        ],
                                        "depth": 2,
                                        "id": 16,
                                        "order": 16
                                    }
                                ],
                                "depth": 1,
                                "id": 15,
                                "order": 15
                            },
                            {
                                "children": [],
                                "depth": 1,
                                "id": 19,
                                "order": 19
                            },
                            {
                                "children": [],
                                "depth": 1,
                                "id": 20,
                                "order": 20
                            },
                            {
                                "children": [
                                    {
                                        "children": [
                                            {
                                                "children": [],
                                                "depth": 3,
                                                "id": 23,
                                                "order": 23
                                            },
                                            {
                                                "children": [],
                                                "depth": 3,
                                                "id": 24,
                                                "order": 24
                                            }
                                        ],
                                        "depth": 2,
                                        "id": 22,
                                        "order": 22
                                    }
                                ],
                                "depth": 1,
                                "id": 21,
                                "order": 21
                            },
                            {
                                "children": [],
                                "depth": 1,
                                "id": 25,
                                "order": 25
                            },
                            {
                                "children": [],
                                "depth": 1,
                                "id": 26,
                                "order": 26
                            },
                            {
                                "children": [
                                    {
                                        "children": [
                                            {
                                                "children": [],
                                                "depth": 3,
                                                "id": 29,
                                                "order": 29
                                            },
                                            {
                                                "children": [],
                                                "depth": 3,
                                                "id": 30,
                                                "order": 30
                                            }
                                        ],
                                        "depth": 2,
                                        "id": 28,
                                        "order": 28
                                    }
                                ],
                                "depth": 1,
                                "id": 27,
                                "order": 27
                            },
                            {
                                "children": [],
                                "depth": 1,
                                "id": 31,
                                "order": 31
                            },
                            {
                                "children": [],
                                "depth": 1,
                                "id": 32,
                                "order": 32
                            },
                            {
                                "children": [
                                    {
                                        "children": [
                                            {
                                                "children": [],
                                                "depth": 3,
                                                "id": 35,
                                                "order": 35
                                            },
                                            {
                                                "children": [],
                                                "depth": 3,
                                                "id": 36,
                                                "order": 36
                                            }
                                        ],
                                        "depth": 2,
                                        "id": 34,
                                        "order": 34
                                    }
                                ],
                                "depth": 1,
                                "id": 33,
                                "order": 33
                            }
                        ],
                        "depth": 0,
                        "id": 0,
                        "order": 0
                    }
                ],
                "depth": -1,
                "id": -1,
                "order": -1
            }
        ],
        "mainTraceNodeCount": 37,
        "parentIdMap": {
            "0": -1,
            "1": 0,
            "10": 9,
            "11": 10,
            "12": 10,
            "13": 0,
            "14": 0,
            "15": 0,
            "16": 15,
            "17": 16,
            "18": 16,
            "19": 0,
            "2": 0,
            "20": 0,
            "21": 0,
            "22": 21,
            "23": 22,
            "24": 22,
            "25": 0,
            "26": 0,
            "27": 0,
            "28": 27,
            "29": 28,
            "3": 0,
            "30": 28,
            "31": 0,
            "32": 0,
            "33": 0,
            "34": 33,
            "35": 34,
            "36": 34,
            "4": 3,
            "5": 4,
            "6": 4,
            "7": 0,
            "8": 0,
            "9": 0
        },
        "tidyTrace": [
            {
                "children": [
                    {
                        "children": [
                            {
                                "children": [
                                    {
                                        "children": [
                                            {
                                                "children": [],
                                                "depth": 3,
                                                "id": 5,
                                                "order": 5
                                            },
                                            {
                                                "children": [],
                                                "depth": 3,
                                                "id": 6,
                                                "order": 6
                                            }
                                        ],
                                        "depth": 2,
                                        "id": 4,
                                        "order": 4
                                    }
                                ],
                                "depth": 1,
                                "id": 3,
                                "order": 3
                            },
                            {
                                "children": [
                                    {
                                        "children": [
                                            {
                                                "children": [],
                                                "depth": 3,
                                                "id": 11,
                                                "order": 11
                                            },
                                            {
                                                "children": [],
                                                "depth": 3,
                                                "id": 12,
                                                "order": 12
                                            }
                                        ],
                                        "depth": 2,
                                        "id": 10,
                                        "order": 10
                                    }
                                ],
                                "depth": 1,
                                "id": 9,
                                "order": 9
                            },
                            {
                                "children": [
                                    {
                                        "children": [
                                            {
                                                "children": [],
                                                "depth": 3,
                                                "id": 17,
                                                "order": 17
                                            },
                                            {
                                                "children": [],
                                                "depth": 3,
                                                "id": 18,
                                                "order": 18
                                            }
                                        ],
                                        "depth": 2,
                                        "id": 16,
                                        "order": 16
                                    }
                                ],
                                "depth": 1,
                                "id": 15,
                                "order": 15
                            },
                            {
                                "children": [
                                    {
                                        "children": [
                                            {
                                                "children": [],
                                                "depth": 3,
                                                "id": 23,
                                                "order": 23
                                            },
                                            {
                                                "children": [],
                                                "depth": 3,
                                                "id": 24,
                                                "order": 24
                                            }
                                        ],
                                        "depth": 2,
                                        "id": 22,
                                        "order": 22
                                    }
                                ],
                                "depth": 1,
                                "id": 21,
                                "order": 21
                            },
                            {
                                "children": [
                                    {
                                        "children": [
                                            {
                                                "children": [],
                                                "depth": 3,
                                                "id": 29,
                                                "order": 29
                                            },
                                            {
                                                "children": [],
                                                "depth": 3,
                                                "id": 30,
                                                "order": 30
                                            }
                                        ],
                                        "depth": 2,
                                        "id": 28,
                                        "order": 28
                                    }
                                ],
                                "depth": 1,
                                "id": 27,
                                "order": 27
                            },
                            {
                                "children": [
                                    {
                                        "children": [
                                            {
                                                "children": [],
                                                "depth": 3,
                                                "id": 35,
                                                "order": 35
                                            },
                                            {
                                                "children": [],
                                                "depth": 3,
                                                "id": 36,
                                                "order": 36
                                            }
                                        ],
                                        "depth": 2,
                                        "id": 34,
                                        "order": 34
                                    }
                                ],
                                "depth": 1,
                                "id": 33,
                                "order": 33
                            }
                        ],
                        "depth": 0,
                        "id": 0,
                        "order": 0
                    }
                ],
                "depth": -1,
                "id": -1,
                "order": -1
            }
        ],
        "tidyTraceNodeCount": 25
    },
    "state_change": {
        "stateChanges": [
            {
                "address": "0x55d398326f99059ff775485246999027b3197955",
                "erc": "ERC-20",
                "slots": [
                    {
                        "current": "0x00000000000000000000000000000000000000000000007e5d2978f4d9f4f000",
                        "key": "0xe2aa653704885875a5611c77fb2cc231475125916c2789b736c67d747cf576ee",
                        "prev": "0x0000000000000000000000000000000000000000000000000000000000000000"
                    },
                    {
                        "current": "0x0000000000000000000000000000000000000000000000041714542aca0d7000",
                        "key": "0x815e6c4387b4cfbba11c85d5b3b3990ba3a8d78f288f7ef9a470cb689585a7e8",
                        "prev": "0x0000000000000000000000000000000000000000000000056bc75e2d63100000"
                    },
                    {
                        "current": "0x0000000000000000000000000000000000000000000000000000000000000000",
                        "key": "0xab6ff84c72bf7496e165bf9cd9f94274189d5d2ad4616fc38a2538cd1a775ca3",
                        "prev": "0x0000000000000000000000000000000000000000000000056bc75e2d63100000"
                    },
                    {
                        "current": "0x000000000000000000000000000000000000000000000000de0b6b3a76400000",
                        "key": "0x5b245c84fb313695f50df2e4b3b307565bb19fcc203dd082d37357dbdc28a8a9",
                        "prev": "0x0000000000000000000000000000000000000000000000056bc75e2d63100000"
                    },
                    {
                        "current": "0x0000000000000000000000000000000000000000000000000000000000000000",
                        "key": "0xb41cd0636cc1504fa69047c82bd08abeca0c00df738133f7aefc842af34885d4",
                        "prev": "0x00000000000000000000000000000000000000000000000154b30a0299029000"
                    },
                    {
                        "current": "0x00000000000000000000000000000000000000000000000924f7c7c10f682000",
                        "key": "0xb791edf83b68881e01363f9b1616907a841b59d0841819a1f729dd84c9dd39e1",
                        "prev": "0x00000000000000000000000000000000000000000000000e90bf25ee72782000"
                    },
                    {
                        "current": "0x0000000000000000000000000000000000000000000000000000000000000000",
                        "key": "0xfd78119c6976a9d658cb8508757d3e8f51586cd30a90b14bc28bfc1c2fd72b9c",
                        "prev": "0x00000000000000000000000000000000000000000000006c6b935b8bbd400000"
                    },
                    {
                        "current": "0x000000000000000000000000000000000000000000000001158e460913d00000",
                        "key": "0xf8543a32f4ba5909b0433ac48e5f5cb1de14856cf300b44a45723a0eb8832e8c",
                        "prev": "0x0000000000000000000000000000000000000000000000068155a43676e00000"
                    },
                    {
                        "current": "0x0000000000000000000000000000000000000000000000000000000000000000",
                        "key": "0x502cffc863e84297a7450bab4f37f32a1e0b0b9b98093fbe3e806afe3d96f353",
                        "prev": "0x0000000000000000000000000000000000000000000000056bc75e2d63100000"
                    },
                    {
                        "current": "0x0000000000000000000000000000000000000000000000000000000000000000",
                        "key": "0xf764c3987cb738e93cc956e04cf3e963b791ed8b3a265774a3e15304167cbe17",
                        "prev": "0x00000000000000000000000000000000000000000000000137986418d0c26000"
                    },
                    {
                        "current": "0x000000000000000000000000000000000000000000000015d334c3ea5a796000",
                        "key": "0x4d95ab0261e76323aa1188910e852288e419e50ce1dccfc820a5a2b8181f4854",
                        "prev": "0x0000000000000000000000000000000000000000000000823ec81f7617b96000"
                    },
                    {
                        "current": "0x00000000000000000000000000000000000000000000006b33faf772ec7da000",
                        "key": "0xf6fcb676a3a0881b2e0cf5c556d31f393374df285b23e3c64a57f03af48027b9",
                        "prev": "0x00000000000000000000000000000000000000000000006c6b935b8bbd400000"
                    },
                    {
                        "current": "0x0000000000000000000000000000000000000000000000000000000000000000",
                        "key": "0xf0a99a4d700da78d32cb049502195b4edc29499cbcaed260b9aab52e619b8cce",
                        "prev": "0x0000000000000000000000000000000000000000000000048dbbf2f2ecd00000"
                    }
                ],
                "storageVariables": [
                    {
                        "name": "_allowances",
                        "type": "mapping(address => mapping(address => uint256))",
                        "value": {
                            "pairs": [
                                {
                                    "key": "0x1a9187bb13245d847c2d569513d644223e2bce85",
                                    "value": {
                                        "pairs": [
                                            {
                                                "key": "0xd3c755e74d44b460ac018e0554cbe9316f6859c1",
                                                "value": {
                                                    "current": "16000000000000000000",
                                                    "prev": "100000000000000000000",
                                                    "typeTag": 1
                                                }
                                            }
                                        ],
                                        "typeTag": 4
                                    }
                                },
                                {
                                    "key": "0x847efeb905435316c87fb77736c7a6ac58068185",
                                    "value": {
                                        "pairs": [
                                            {
                                                "key": "0xd3c755e74d44b460ac018e0554cbe9316f6859c1",
                                                "value": {
                                                    "current": "75450023000000000000",
                                                    "prev": "100000000000000000000",
                                                    "typeTag": 1
                                                }
                                            }
                                        ],
                                        "typeTag": 4
                                    }
                                },
                                {
                                    "key": "0x9917904d993c330d39872db88bfa8fcbfca87593",
                                    "value": {
                                        "pairs": [
                                            {
                                                "key": "0xd3c755e74d44b460ac018e0554cbe9316f6859c1",
                                                "value": {
                                                    "current": "0",
                                                    "prev": "2000000000000000000000",
                                                    "typeTag": 1
                                                }
                                            }
                                        ],
                                        "typeTag": 4
                                    }
                                },
                                {
                                    "key": "0xbde5e69a74711e10694647a54d97a0f6600bfa51",
                                    "value": {
                                        "pairs": [
                                            {
                                                "key": "0xd3c755e74d44b460ac018e0554cbe9316f6859c1",
                                                "value": {
                                                    "current": "0",
                                                    "prev": "100000000000000000000",
                                                    "typeTag": 1
                                                }
                                            }
                                        ],
                                        "typeTag": 4
                                    }
                                },
                                {
                                    "key": "0xd11bc4a3978a51dbed0337d2f68846c90adc6fff",
                                    "value": {
                                        "pairs": [
                                            {
                                                "key": "0xd3c755e74d44b460ac018e0554cbe9316f6859c1",
                                                "value": {
                                                    "current": "1977547194000000000000",
                                                    "prev": "2000000000000000000000",
                                                    "typeTag": 1
                                                }
                                            }
                                        ],
                                        "typeTag": 4
                                    }
                                },
                                {
                                    "key": "0xf618499ed814f2c72918c904e9d9a55d12962f99",
                                    "value": {
                                        "pairs": [
                                            {
                                                "key": "0xd3c755e74d44b460ac018e0554cbe9316f6859c1",
                                                "value": {
                                                    "current": "0",
                                                    "prev": "100000000000000000000",
                                                    "typeTag": 1
                                                }
                                            }
                                        ],
                                        "typeTag": 4
                                    }
                                }
                            ],
                            "typeTag": 4
                        }
                    },
                    {
                        "name": "_balances",
                        "type": "mapping(address => uint256)",
                        "value": {
                            "pairs": [
                                {
                                    "key": "0x1a9187bb13245d847c2d569513d644223e2bce85",
                                    "value": {
                                        "current": "0",
                                        "prev": "84000000000000000000",
                                        "typeTag": 1
                                    }
                                },
                                {
                                    "key": "0x847efeb905435316c87fb77736c7a6ac58068185",
                                    "value": {
                                        "current": "0",
                                        "prev": "24549977000000000000",
                                        "typeTag": 1
                                    }
                                },
                                {
                                    "key": "0x9917904d993c330d39872db88bfa8fcbfca87593",
                                    "value": {
                                        "current": "402600630000000000000",
                                        "prev": "2402600630000000000000",
                                        "typeTag": 1
                                    }
                                },
                                {
                                    "key": "0xbde5e69a74711e10694647a54d97a0f6600bfa51",
                                    "value": {
                                        "current": "20000000000000000000",
                                        "prev": "120000000000000000000",
                                        "typeTag": 1
                                    }
                                },
                                {
                                    "key": "0xd11bc4a3978a51dbed0337d2f68846c90adc6fff",
                                    "value": {
                                        "current": "0",
                                        "prev": "22452806000000000000",
                                        "typeTag": 1
                                    }
                                },
                                {
                                    "key": "0xf618499ed814f2c72918c904e9d9a55d12962f99",
                                    "value": {
                                        "current": "168684514000000000000",
                                        "prev": "268684514000000000000",
                                        "typeTag": 1
                                    }
                                },
                                {
                                    "key": "0xffc21396bc3c981f057b4ec993edb2a305ef8a62",
                                    "value": {
                                        "current": "2331002783000000000000",
                                        "prev": "0",
                                        "typeTag": 1
                                    }
                                }
                            ],
                            "typeTag": 4
                        }
                    }
                ]
            }
        ]
    }
}