{
    "balance_change": {
        "balanceChanges": [
            {
                "account": "0xcacf2d28b2a5309e099f0c6e8c60ec3ddf656642",
                "assets": [
                    {
                        "address": "0x35b2ece5b1ed6a7a99b83508f8ceeab8661e0632",
                        "amount": "13.35973256272339977",
                        "iconUrl": "",
                        "isERC1155": false,
                        "isERC721": false,
                        "sign": true,
                        "value": ""
                    }
                ]
            },
            {
                "account": "0x0000000000000000000000000000000000000000",
                "assets": [
                    {
                        "address": "0x35b2ece5b1ed6a7a99b83508f8ceeab8661e0632",
                        "amount": "13.35973256272339977",
                        "iconUrl": "",
                        "isERC1155": false,
                        "isERC721": false,
                        "sign": false,
                        "value": ""
                    }
                ]
            }
        ]
    },
    "profile": {
        "basic_info": {
            "baseFee": "54.696341412",
            "blockNumber": 38771888,
            "callData": "0x323d85a2000000000000000000000000000000000000000000000000000000000000000100000000000000000000000000000000000000000000000000000000000000e00000000000000000000000000000000000000000000000000000000000000120000000000000000000000000000000000000000000000000b9674dfb9f58e85a000000000000000000000000cacf2d28b2a5309e099f0c6e8c60ec3ddf65664200000000000000000000000000000000000000000000000000000000000001a000000000000000000000000000000000000000000000000000000000000003a0000000000000000000000000000000000000000000000000000000000000001400a8b738e453ffd858a7edf03bccfe20412f0eb000000000000000000000000000000000000000000000000000000000000000000000000000000000000000463078613239633266346462613236353364363737633564323465303565356163383665306561623863373266323730653465333139353264313632653939323335313a33303700000000000000000000000000000000000000000000000000000000000000000000000000000000000000000000000000000000000000000003000000000000000000000000000000000000000000000000000000000000006000000000000000000000000000000000000000000000000000000000000000e0000000000000000000000000000000000000000000000000000000000000016000000000000000000000000000000000000000000000000000000000000000416dceae47893572a01ef065d07b0efbcd603eb640074163240c70abaf955752823214574201bbe02098990124df6d49ff76a231dea44a694dcd8111f21036fb341b000000000000000000000000000000000000000000000000000000000000000000000000000000000000000000000000000000000000000000000000000041b3c4eeb87372344cbbb9e395e4c221dcdd2638ebd9bae0707531a2f1655f917811b923b0dd86974f0cf7c34d82e12febc4a9a9d0e878f98166f10259f8b57a561c000000000000000000000000000000000000000000000000000000000000000000000000000000000000000000000000000000000000000000000000000041dfc8a28379d729d25a6ca823779ca523220e4a053c3575337ddc22d1ac254505288556dbf2c4d24e49fc5e36b6e18a1d31fc14d6fac282c026cd7dfc10190a241b00000000000000000000000000000000000000000000000000000000000000000000000000000000000000000000000000000000000000000000000000006000000000000000000000000000000000000000000000000000000000000000a00000000000000000000000000000000000000000000000000000000000000012000000000000000000000000000000000000000000000000000000000000001b5772617070656420416c6c69616e6365426c6f636b20546f6b656e0000000000000000000000000000000000000000000000000000000000000000000000000557414c4254000000000000000000000000000000000000000000000000000000",
            "debugEnable": false,
            "errorInfo": "",
            "eventCount": 2,
            "feeRecipient": "",
            "formatValue": "0",
            "gasLimit": 129251,
            "gasPrice": "91.398572969",
            "gasUsed": 127820,
            "intTxnCount": 5,
            "internalRevert": false,
            "internalRevertMessage": "",
            "isContractCreation": false,
            "isFlashloan": false,
            "maxFee": "",
            "nonce": 0,
            "overwritedBlockNumber": -1,
            "priorityFee": "",
            "receiver": "0xa16dfa9a67e6aa054b2c0789b0c0eb774371d004",
            "revertMessage": "",
            "sender": "0xcacf2d28b2a5309e099f0c6e8c60ec3ddf656642",
            "simulationEnable": false,
            "sourceTxnHash": "0xd276b1ddff1bea52a8839c37976f4accb4751ca3f70092e66f88e53090452898",
            "status": true,
            "timestamp": "2023-02-01T05:41:27Z",
            "transactionFee": "0.01168256559689758",
            "txnHash": "0xd276b1ddff1bea52a8839c37976f4accb4751ca3f70092e66f88e53090452898",
            "txnIndex": 120,
            "type": 0,
            "value": "0"
        },
        "fund_flow": [
            {
                "amount": "13.35973256272339977",
                "from": "0x0000000000000000000000000000000000000000",
                "id": 1,
                "isERC1155": false,
                "isERC721": false,
                "isReverted": false,
                "order": 1,
                "to": "0xcacf2d28b2a5309e099f0c6e8c60ec3ddf656642",
                "token": "0x35b2ece5b1ed6a7a99b83508f8ceeab8661e0632"
            }
        ],
        "token_infos": [
            {
                "address": "0x0d500b1d8e8ef31e21c99d1db9a6444d3adf1270",
                "decimals": 18
            },
            {
                "address": "0x35b2ece5b1ed6a7a99b83508f8ceeab8661e0632",
                "decimals": 18
            },
            {
                "address": "0xeeeeeeeeeeeeeeeeeeeeeeeeeeeeeeeeeeeeeeee",
                "decimals": 18
            }
        ]
    },
    "address_label": {
        "labels": [
            {
                "address": "0x35b2ece5b1ed6a7a99b83508f8ceeab8661e0632",
                "label": "Wrapped AllianceBlock Token (WALBT)"
            },
            {
                "address": "0xcacf2d28b2a5309e099f0c6e8c60ec3ddf656642",
                "label": "BonqDAO Exploiter"
            },
            {
                "address": "0xa16dfa9a67e6aa054b2c0789b0c0eb774371d004",
                "label": "Polymorph_0xa1"
            },
            {
                "address": "0x0000000000000000000000000000000000000001",
                "label": "Precompiled"
            },
            {
                "address": "0x0000000000000000000000000000000000000002",
                "label": "Precompiled"
            },
            {
                "address": "0x0000000000000000000000000000000000000003",
                "label": "Precompiled"
            },
            {
                "address": "0x0000000000000000000000000000000000000004",
                "label": "Precompiled"
            },
            {
                "address": "0xeeeeeeeeeeeeeeeeeeeeeeeeeeeeeeeeeeeeeeee",
                "label": "MATIC"
            }
        ]
    },
    "trace": {
        "accountLabels": null,
        "dataMap": {
            "-1": {
                "invocation": {
                    "address": "0xcacf2d28b2a5309e099f0c6e8c60ec3ddf656642",
                    "callData": "",
                    "decodedMethod": null,
                    "errorInfo": "",
                    "fromAddress": "",
                    "gasUsed": 0,
                    "id": -1,
                    "methodDecoded": false,
                    "operation": "",
                    "output": "",
                    "revert": false,
                    "revertMessage": "",
                    "selector": "",
                    "status": false,
                    "value": ""
                },
                "nodeType": 0
            },
            "0": {
                "invocation": {
                    "address": "0xa16dfa9a67e6aa054b2c0789b0c0eb774371d004",
                    "callData": "0x000000000000000000000000000000000000000000000000000000000000000100000000000000000000000000000000000000000000000000000000000000e00000000000000000000000000000000000000000000000000000000000000120000000000000000000000000000000000000000000000000b9674dfb9f58e85a000000000000000000000000cacf2d28b2a5309e099f0c6e8c60ec3ddf65664200000000000000000000000000000000000000000000000000000000000001a000000000000000000000000000000000000000000000000000000000000003a0000000000000000000000000000000000000000000000000000000000000001400a8b738e453ffd858a7edf03bccfe20412f0eb000000000000000000000000000000000000000000000000000000000000000000000000000000000000000463078613239633266346462613236353364363737633564323465303565356163383665306561623863373266323730653465333139353264313632653939323335313a33303700000000000000000000000000000000000000000000000000000000000000000000000000000000000000000000000000000000000000000003000000000000000000000000000000000000000000000000000000000000006000000000000000000000000000000000000000000000000000000000000000e0000000000000000000000000000000000000000000000000000000000000016000000000000000000000000000000000000000000000000000000000000000416dceae47893572a01ef065d07b0efbcd603eb640074163240c70abaf955752823214574201bbe02098990124df6d49ff76a231dea44a694dcd8111f21036fb341b000000000000000000000000000000000000000000000000000000000000000000000000000000000000000000000000000000000000000000000000000041b3c4eeb87372344cbbb9e395e4c221dcdd2638ebd9bae0707531a2f1655f917811b923b0dd86974f0cf7c34d82e12febc4a9a9d0e878f98166f10259f8b57a561c000000000000000000000000000000000000000000000000000000000000000000000000000000000000000000000000000000000000000000000000000041dfc8a28379d729d25a6ca823779ca523220e4a053c3575337ddc22d1ac254505288556dbf2c4d24e49fc5e36b6e18a1d31fc14d6fac282c026cd7dfc10190a241b00000000000000000000000000000000000000000000000000000000000000000000000000000000000000000000000000000000000000000000000000006000000000000000000000000000000000000000000000000000000000000000a00000000000000000000000000000000000000000000000000000000000000012000000000000000000000000000000000000000000000000000000000000001b5772617070656420416c6c69616e6365426c6f636b20546f6b656e0000000000000000000000000000000000000000000000000000000000000000000000000557414c4254000000000000000000000000000000000000000000000000000000",
                    "decodedMethod": {
                        "callParams": [
                            {
                                "name": "_nativeChain",
                                "type": "uint8",
                                "value": "1"
                            },
                            {
                                "name": "_nativeToken",
                                "type": "bytes",
                                "value": "0x00a8b738e453ffd858a7edf03bccfe20412f0eb0"
                            },
                            {
                                "name": "_transactionId",
                                "type": "bytes",
                                "value": "0x3078613239633266346462613236353364363737633564323465303565356163383665306561623863373266323730653465333139353264313632653939323335313a333037"
                            },
                            {
                                "name": "_amount",
                                "type": "uint256",
                                "value": "13,359,732,562,723,399,770"
                            },
                            {
                                "name": "_receiver",
                                "type": "address",
                                "value": "0xcacf2d28b2a5309e099f0c6e8c60ec3ddf656642"
                            },
                            {
                                "name": "_signatures",
                                "type": "bytes[]",
                                "value": [
                                    "0x6dceae47893572a01ef065d07b0efbcd603eb640074163240c70abaf955752823214574201bbe02098990124df6d49ff76a231dea44a694dcd8111f21036fb341b",
                                    "0xb3c4eeb87372344cbbb9e395e4c221dcdd2638ebd9bae0707531a2f1655f917811b923b0dd86974f0cf7c34d82e12febc4a9a9d0e878f98166f10259f8b57a561c",
                                    "0xdfc8a28379d729d25a6ca823779ca523220e4a053c3575337ddc22d1ac254505288556dbf2c4d24e49fc5e36b6e18a1d31fc14d6fac282c026cd7dfc10190a241b"
                                ]
                            },
                            {
                                "name": "_tokenParams",
                                "type": "(string,string,uint8)",
                                "value": [
                                    {
                                        "name": "name",
                                        "type": "string",
                                        "value": "Wrapped AllianceBlock Token"
                                    },
                                    {
                                        "name": "symbol",
                                        "type": "string",
                                        "value": "WALBT"
                                    },
                                    {
                                        "name": "decimals",
                                        "type": "uint8",
                                        "value": "18"
                                    }
                                ]
                            }
                        ],
                        "constructorArguments": "",
                        "name": "mint",
                        "returnParams": [],
                        "signature": "mint(uint8,bytes,bytes,uint256,address,bytes[],(string,string,uint8))"
                    },
                    "errorInfo": "",
                    "fromAddress": "0xcacf2d28b2a5309e099f0c6e8c60ec3ddf656642",
                    "gasUsed": 127820,
                    "id": 0,
                    "methodDecoded": true,
                    "operation": "CALL",
                    "output": "",
                    "revert": false,
                    "revertMessage": "",
                    "selector": "0x323d85a2",
                    "status": true,
                    "value": "0"
                },
                "nodeType": 0
            },
            "1": {
                "invocation": {
                    "address": "0x0468531e2b17f03639dc5dac5eb9c534e576565c",
                    "callData": "0x000000000000000000000000000000000000000000000000000000000000000100000000000000000000000000000000000000000000000000000000000000e00000000000000000000000000000000000000000000000000000000000000120000000000000000000000000000000000000000000000000b9674dfb9f58e85a000000000000000000000000cacf2d28b2a5309e099f0c6e8c60ec3ddf65664200000000000000000000000000000000000000000000000000000000000001a000000000000000000000000000000000000000000000000000000000000003a0000000000000000000000000000000000000000000000000000000000000001400a8b738e453ffd858a7edf03bccfe20412f0eb000000000000000000000000000000000000000000000000000000000000000000000000000000000000000463078613239633266346462613236353364363737633564323465303565356163383665306561623863373266323730653465333139353264313632653939323335313a33303700000000000000000000000000000000000000000000000000000000000000000000000000000000000000000000000000000000000000000003000000000000000000000000000000000000000000000000000000000000006000000000000000000000000000000000000000000000000000000000000000e0000000000000000000000000000000000000000000000000000000000000016000000000000000000000000000000000000000000000000000000000000000416dceae47893572a01ef065d07b0efbcd603eb640074163240c70abaf955752823214574201bbe02098990124df6d49ff76a231dea44a694dcd8111f21036fb341b000000000000000000000000000000000000000000000000000000000000000000000000000000000000000000000000000000000000000000000000000041b3c4eeb87372344cbbb9e395e4c221dcdd2638ebd9bae0707531a2f1655f917811b923b0dd86974f0cf7c34d82e12febc4a9a9d0e878f98166f10259f8b57a561c000000000000000000000000000000000000000000000000000000000000000000000000000000000000000000000000000000000000000000000000000041dfc8a28379d729d25a6ca823779ca523220e4a053c3575337ddc22d1ac254505288556dbf2c4d24e49fc5e36b6e18a1d31fc14d6fac282c026cd7dfc10190a241b00000000000000000000000000000000000000000000000000000000000000000000000000000000000000000000000000000000000000000000000000006000000000000000000000000000000000000000000000000000000000000000a00000000000000000000000000000000000000000000000000000000000000012000000000000000000000000000000000000000000000000000000000000001b5772617070656420416c6c69616e6365426c6f636b20546f6b656e0000000000000000000000000000000000000000000000000000000000000000000000000557414c4254000000000000000000000000000000000000000000000000000000",
                    "decodedMethod": {
                        "callParams": [
                            {
                                "name": "_nativeChain",
                                "type": "uint8",
                                "value": "1"
                            },
                            {
                                "name": "_nativeToken",
                                "type": "bytes",
                                "value": "0x00a8b738e453ffd858a7edf03bccfe20412f0eb0"
                            },
                            {
                                "name": "_transactionId",
                                "type": "bytes",
                                "value": "0x3078613239633266346462613236353364363737633564323465303565356163383665306561623863373266323730653465333139353264313632653939323335313a333037"
                            },
                            {
                                "name": "_amount",
                                "type": "uint256",
                                "value": "13,359,732,562,723,399,770"
                            },
                            {
                                "name": "_receiver",
                                "type": "address",
                                "value": "0xcacf2d28b2a5309e099f0c6e8c60ec3ddf656642"
                            },
                            {
                                "name": "_signatures",
                                "type": "bytes[]",
                                "value": [
                                    "0x6dceae47893572a01ef065d07b0efbcd603eb640074163240c70abaf955752823214574201bbe02098990124df6d49ff76a231dea44a694dcd8111f21036fb341b",
                                    "0xb3c4eeb87372344cbbb9e395e4c221dcdd2638ebd9bae0707531a2f1655f917811b923b0dd86974f0cf7c34d82e12febc4a9a9d0e878f98166f10259f8b57a561c",
                                    "0xdfc8a28379d729d25a6ca823779ca523220e4a053c3575337ddc22d1ac254505288556dbf2c4d24e49fc5e36b6e18a1d31fc14d6fac282c026cd7dfc10190a241b"
                                ]
                            },
                            {
                                "name": "_tokenParams",
                                "type": "(string,string,uint8)",
                                "value": [
                                    {
                                        "name": "name",
                                        "type": "string",
                                        "value": "Wrapped AllianceBlock Token"
                                    },
                                    {
                                        "name": "symbol",
                                        "type": "string",
                                        "value": "WALBT"
                                    },
                                    {
                                        "name": "decimals",
                                        "type": "uint8",
                                        "value": "18"
                                    }
                                ]
                            }
                        ],
                        "constructorArguments": "",
                        "name": "mint",
                        "returnParams": [],
                        "signature": "mint(uint8,bytes,bytes,uint256,address,bytes[],(string,string,uint8))"
                    },
                    "errorInfo": "",
                    "fromAddress": "0xa16dfa9a67e6aa054b2c0789b0c0eb774371d004",
                    "gasUsed": 92550,
                    "id": 1,
                    "methodDecoded": true,
                    "operation": "DELEGATECALL",
                    "output": "",
                    "revert": false,
                    "revertMessage": "",
                    "selector": "0x323d85a2",
                    "status": true,
                    "value": "0"
                },
                "nodeType": 0
            },
            "2": {
                "invocation": {
                    "address": "0x0000000000000000000000000000000000000001",
                    "callData": "0x079e441b89d05fb8ca57e78db1fae89c85b71b63ffe37c4fbd43faec000000000000000000000000000000000000000000000000000000000000001b6dceae47893572a01ef065d07b0efbcd603eb640074163240c70abaf955752823214574201bbe02098990124df6d49ff76a231dea44a694dcd8111f21036fb34",
                    "decodedMethod": {
                        "callParams": [
                            {
                                "name": "hash",
                                "type": "bytes32",
                                "value": "0x84ec1c17079e441b89d05fb8ca57e78db1fae89c85b71b63ffe37c4fbd43faec"
                            },
                            {
                                "name": "v",
                                "type": "uint256",
                                "value": "27"
                            },
                            {
                                "name": "r",
                                "type": "bytes32",
                                "value": "0x6dceae47893572a01ef065d07b0efbcd603eb640074163240c70abaf95575282"
                            },
                            {
                                "name": "s",
                                "type": "bytes32",
                                "value": "0x3214574201bbe02098990124df6d49ff76a231dea44a694dcd8111f21036fb34"
                            }
                        ],
                        "constructorArguments": "",
                        "name": "ecrecover",
                        "returnParams": [
                            {
                                "name": "",
                                "type": "address",
                                "value": "0x6e5575c580325cb6c49f64cc4f86f51b917b85f4"
                            }
                        ],
                        "signature": "ecrecover(bytes32,uint256,bytes32,bytes32)"
                    },
                    "errorInfo": "",
                    "fromAddress": "0xa16dfa9a67e6aa054b2c0789b0c0eb774371d004",
                    "gasUsed": 3000,
                    "id": 2,
                    "methodDecoded": true,
                    "operation": "STATICCALL",
                    "output": "0x0000000000000000000000006e5575c580325cb6c49f64cc4f86f51b917b85f4",
                    "revert": false,
                    "revertMessage": "",
                    "selector": "0x84ec1c17",
                    "status": true,
                    "value": "0"
                },
                "nodeType": 0
            },
            "3": {
                "invocation": {
                    "address": "0x0000000000000000000000000000000000000001",
                    "callData": "0x079e441b89d05fb8ca57e78db1fae89c85b71b63ffe37c4fbd43faec000000000000000000000000000000000000000000000000000000000000001cb3c4eeb87372344cbbb9e395e4c221dcdd2638ebd9bae0707531a2f1655f917811b923b0dd86974f0cf7c34d82e12febc4a9a9d0e878f98166f10259f8b57a56",
                    "decodedMethod": {
                        "callParams": [
                            {
                                "name": "hash",
                                "type": "bytes32",
                                "value": "0x84ec1c17079e441b89d05fb8ca57e78db1fae89c85b71b63ffe37c4fbd43faec"
                            },
                            {
                                "name": "v",
                                "type": "uint256",
                                "value": "28"
                            },
                            {
                                "name": "r",
                                "type": "bytes32",
                                "value": "0xb3c4eeb87372344cbbb9e395e4c221dcdd2638ebd9bae0707531a2f1655f9178"
                            },
                            {
                                "name": "s",
                                "type": "bytes32",
                                "value": "0x11b923b0dd86974f0cf7c34d82e12febc4a9a9d0e878f98166f10259f8b57a56"
                            }
                        ],
                        "constructorArguments": "",
                        "name": "ecrecover",
                        "returnParams": [
                            {
                                "name": "",
                                "type": "address",
                                "value": "0xc394c47ada834720f8acc11f50ce93827a2f6437"
                            }
                        ],
                        "signature": "ecrecover(bytes32,uint256,bytes32,bytes32)"
                    },
                    "errorInfo": "",
                    "fromAddress": "0xa16dfa9a67e6aa054b2c0789b0c0eb774371d004",
                    "gasUsed": 3000,
                    "id": 3,
                    "methodDecoded": true,
                    "operation": "STATICCALL",
                    "output": "0x000000000000000000000000c394c47ada834720f8acc11f50ce93827a2f6437",
                    "revert": false,
                    "revertMessage": "",
                    "selector": "0x84ec1c17",
                    "status": true,
                    "value": "0"
                },
                "nodeType": 0
            },
            "4": {
                "invocation": {
                    "address": "0x0000000000000000000000000000000000000001",
                    "callData": "0x079e441b89d05fb8ca57e78db1fae89c85b71b63ffe37c4fbd43faec000000000000000000000000000000000000000000000000000000000000001bdfc8a28379d729d25a6ca823779ca523220e4a053c3575337ddc22d1ac254505288556dbf2c4d24e49fc5e36b6e18a1d31fc14d6fac282c026cd7dfc10190a24",
                    "decodedMethod": {
                        "callParams": [
                            {
                                "name": "hash",
                                "type": "bytes32",
                                "value": "0x84ec1c17079e441b89d05fb8ca57e78db1fae89c85b71b63ffe37c4fbd43faec"
                            },
                            {
                                "name": "v",
                                "type": "uint256",
                                "value": "27"
                            },
                            {
                                "name": "r",
                                "type": "bytes32",
                                "value": "0xdfc8a28379d729d25a6ca823779ca523220e4a053c3575337ddc22d1ac254505"
                            },
                            {
                                "name": "s",
                                "type": "bytes32",
                                "value": "0x288556dbf2c4d24e49fc5e36b6e18a1d31fc14d6fac282c026cd7dfc10190a24"
                            }
                        ],
                        "constructorArguments": "",
                        "name": "ecrecover",
                        "returnParams": [
                            {
                                "name": "",
                                "type": "address",
                                "value": "0x3624a54f7295bda9799c2719db592cd31208263a"
                            }
                        ],
                        "signature": "ecrecover(bytes32,uint256,bytes32,bytes32)"
                    },
                    "errorInfo": "",
                    "fromAddress": "0xa16dfa9a67e6aa054b2c0789b0c0eb774371d004",
                    "gasUsed": 3000,
                    "id": 4,
                    "methodDecoded": true,
                    "operation": "STATICCALL",
                    "output": "0x0000000000000000000000003624a54f7295bda9799c2719db592cd31208263a",
                    "revert": false,
                    "revertMessage": "",
                    "selector": "0x84ec1c17",
                    "status": true,
                    "value": "0"
                },
                "nodeType": 0
            },
            "5": {
                "invocation": {
                    "address": "0x35b2ece5b1ed6a7a99b83508f8ceeab8661e0632",
                    "callData": "0x000000000000000000000000cacf2d28b2a5309e099f0c6e8c60ec3ddf656642000000000000000000000000000000000000000000000000b9674dfb9f58e85a",
                    "decodedMethod": {
                        "callParams": [
                            {
                                "name": "to",
                                "type": "address",
                                "value": "0xcacf2d28b2a5309e099f0c6e8c60ec3ddf656642"
                            },
                            {
                                "name": "amount",
                                "type": "uint256",
                                "value": "13,359,732,562,723,399,770"
                            }
                        ],
                        "constructorArguments": "",
                        "name": "mint",
                        "returnParams": [],
                        "signature": "mint(address,uint256)"
                    },
                    "errorInfo": "",
                    "fromAddress": "0xa16dfa9a67e6aa054b2c0789b0c0eb774371d004",
                    "gasUsed": 32117,
                    "id": 5,
                    "methodDecoded": true,
                    "operation": "CALL",
                    "output": "",
                    "revert": false,
                    "revertMessage": "",
                    "selector": "0x40c10f19",
                    "status": true,
                    "value": "0"
                },
                "nodeType": 0
            },
            "6": {
                "event": {
                    "contract": "0x35b2ece5b1ed6a7a99b83508f8ceeab8661e0632",
                    "decodedLog": {
                        "name": "Transfer",
                        "params": [
                            {
                                "name": "from",
                                "type": "address",
                                "value": "0x0000000000000000000000000000000000000000"
                            },
                            {
                                "name": "to",
                                "type": "address",
                                "value": "0xcacf2d28b2a5309e099f0c6e8c60ec3ddf656642"
                            },
                            {
                                "decimalAvailable": true,
                                "name": "value",
                                "type": "uint256",
                                "value": "13,359,732,562,723,399,770"
                            }
                        ],
                        "signature": "Transfer(address,address,uint256)"
                    },
                    "id": 6,
                    "logData": "0x000000000000000000000000000000000000000000000000b9674dfb9f58e85a",
                    "logDecoded": true,
                    "operation": "EVENT",
                    "revert": false,
                    "status": true,
                    "topics": [
                        "0xddf252ad1be2c89b69c2b068fc378daa952ba7f163c4a11628f55a4df523b3ef",
                        "0x0000000000000000000000000000000000000000000000000000000000000000",
                        "0x000000000000000000000000cacf2d28b2a5309e099f0c6e8c60ec3ddf656642"
                    ]
                },
                "nodeType": 1
            },
            "7": {
                "event": {
                    "contract": "0xa16dfa9a67e6aa054b2c0789b0c0eb774371d004",
                    "decodedLog": {
                        "name": "Mint",
                        "params": [
                            {
                                "name": "wrappedToken",
                                "type": "address",
                                "value": "0x35b2ece5b1ed6a7a99b83508f8ceeab8661e0632"
                            },
                            {
                                "name": "amount",
                                "type": "uint256",
                                "value": "13,359,732,562,723,399,770"
                            },
                            {
                                "name": "receiver",
                                "type": "address",
                                "value": "0xcacf2d28b2a5309e099f0c6e8c60ec3ddf656642"
                            }
                        ],
                        "signature": "Mint(address,uint256,address)"
                    },
                    "id": 7,
                    "logData": "0x00000000000000000000000035b2ece5b1ed6a7a99b83508f8ceeab8661e0632000000000000000000000000000000000000000000000000b9674dfb9f58e85a000000000000000000000000cacf2d28b2a5309e099f0c6e8c60ec3ddf656642",
                    "logDecoded": true,
                    "operation": "EVENT",
                    "revert": false,
                    "status": true,
                    "topics": [
                        "0xbcad3d7d3dfccb90d49c6063bf70f828901fefc88937d90af74e58e6e55bc39d"
                    ]
                },
                "nodeType": 1
            }
        },
        "gasFlame": [
            {
                "children": [
                    {
                        "children": [
                            {
                                "children": [],
                                "depth": 2,
                                "name": "ecrecover",
                                "value": 3000
                            },
                            {
                                "children": [],
                                "depth": 2,
                                "name": "ecrecover",
                                "value": 3000
                            },
                            {
                                "children": [],
                                "depth": 2,
                                "name": "ecrecover",
                                "value": 3000
                            },
                            {
                                "children": [],
                                "depth": 2,
                                "name": "mint",
                                "value": 32117
                            }
                        ],
                        "depth": 1,
                        "name": "mint",
                        "value": 92550
                    }
                ],
                "depth": 0,
                "name": "Actual Gas Used",
                "value": 127820
            }
        ],
        "isConfirmed": true,
        "mainTrace": [
            {
                "children": [
                    {
                        "children": [
                            {
                                "children": [
                                    {
                                        "children": [],
                                        "depth": 2,
                                        "id": 2,
                                        "order": 2
                                    },
                                    {
                                        "children": [],
                                        "depth": 2,
                                        "id": 3,
                                        "order": 3
                                    },
                                    {
                                        "children": [],
                                        "depth": 2,
                                        "id": 4,
                                        "order": 4
                                    },
                                    {
                                        "children": [
                                            {
                                                "children": [],
                                                "depth": 3,
                                                "id": 6,
                                                "order": 6
                                            }
                                        ],
                                        "depth": 2,
                                        "id": 5,
                                        "order": 5
                                    },
                                    {
                                        "children": [],
                                        "depth": 2,
                                        "id": 7,
                                        "order": 7
                                    }
                                ],
                                "depth": 1,
                                "id": 1,
                                "order": 1
                            }
                        ],
                        "depth": 0,
                        "id": 0,
                        "order": 0
                    }
                ],
                "depth": -1,
                "id": -1,
                "order": -1
            }
        ],
        "mainTraceNodeCount": 8,
        "parentIdMap": {
            "0": -1,
            "1": 0,
            "2": 1,
            "3": 1,
            "4": 1,
            "5": 1,
            "6": 5,
            "7": 1
        },
        "tidyTrace": [
            {
                "children": [
                    {
                        "children": [
                            {
                                "children": [
                                    {
                                        "children": [
                                            {
                                                "children": [],
                                                "depth": 3,
                                                "id": 6,
                                                "order": 6
                                            }
                                        ],
                                        "depth": 2,
                                        "id": 5,
                                        "order": 5
                                    },
                                    {
                                        "children": [],
                                        "depth": 2,
                                        "id": 7,
                                        "order": 7
                                    }
                                ],
                                "depth": 1,
                                "id": 1,
                                "order": 1
                            }
                        ],
                        "depth": 0,
                        "id": 0,
                        "order": 0
                    }
                ],
                "depth": -1,
                "id": -1,
                "order": -1
            }
        ],
        "tidyTraceNodeCount": 5
    },
    "state_change": {}
}