{
    "balance_change": {
        "balanceChanges": [
            {
                "account": "0x0348d20b74ddc0ac9bfc3626e06d30bb6fac213b",
                "assets": [
                    {
                        "address": "0xeeeeeeeeeeeeeeeeeeeeeeeeeeeeeeeeeeeeeeee",
                        "amount": "15.324469731061671907",
                        "iconUrl": "https://assets.blocksec.com/image/1663669189317-3.png",
                        "isERC1155": false,
                        "isERC721": false,
                        "sign": true,
                        "value": "18119.040029962798467"
                    }
                ]
            },
            {
                "account": "0x985b6b9064212091b4b325f68746b77262801bcb",
                "assets": [
                    {
                        "address": "0xeeeeeeeeeeeeeeeeeeeeeeeeeeeeeeeeeeeeeeee",
                        "amount": "5.814846475397204239",
                        "iconUrl": "https://assets.blocksec.com/image/1663669189317-3.png",
                        "isERC1155": false,
                        "isERC721": false,
                        "sign": true,
                        "value": "6875.2418781809994184"
                    }
                ]
            },
            {
                "account": "0xf2919d1d80aff2940274014bef534f7791906ff2",
                "assets": [
                    {
                        "address": "0xeeeeeeeeeeeeeeeeeeeeeeeeeeeeeeeeeeeeeeee",
                        "amount": "21.139316206458876146",
                        "iconUrl": "https://assets.blocksec.com/image/1663669189317-3.png",
                        "isERC1155": false,
                        "isERC721": false,
                        "sign": false,
                        "value": "24994.281914055597884"
                    }
                ]
            }
        ]
    },
    "profile": {
        "basic_info": {
            "baseFee": "13.974983805",
            "blockNumber": 16288200,
            "callData": "0xfc42acfb000000000000000000000000000000000000000000000003ee23bde0e7d20000000000000000000000000000f2919d1d80aff2940274014bef534f7791906ff200000000000000000000000000000000000000000000000000000000000000600000000000000000000000000000000000000000000000000000000000000080000000000000000000000000000000000000000000000001314fb37062980000000000000000000000000000000000000000000000000002bcd40a70853a000000000000000000000000000000000000000000000000000030927f74c9de00000000000000000000000000000000000000000000000000006f05b59d3b200000",
            "debugEnable": true,
            "errorInfo": "",
            "eventCount": 21,
            "feeRecipient": "0xdafea492d9c6733ae3d56b7ed1adb60692c98bc5",
            "formatValue": "0",
            "gasLimit": 622123,
            "gasPrice": "20",
            "gasUsed": 368666,
            "intTxnCount": 37,
            "internalRevert": false,
            "internalRevertMessage": "",
            "isContractCreation": false,
            "isFlashloan": true,
            "maxFee": "",
            "nonce": 1,
            "overwritedBlockNumber": -1,
            "priorityFee": "",
            "receiver": "0xed42cb11b9d03c807ed1ba9c2ed1d3ba5bf37340",
            "revertMessage": "",
            "sender": "0x0348d20b74ddc0ac9bfc3626e06d30bb6fac213b",
            "simulationEnable": true,
            "sourceTxnHash": "0xd4fafa1261f6e4f9c8543228a67caf9d02811e4ad3058a2714323964a8db61f6",
            "status": true,
            "timestamp": "2022-12-29T05:02:23Z",
            "transactionFee": "0.00737332",
            "txnHash": "0xd4fafa1261f6e4f9c8543228a67caf9d02811e4ad3058a2714323964a8db61f6",
            "txnIndex": 6,
            "type": 0,
            "value": "0"
        },
        "fund_flow": [
            {
                "amount": "72.5",
                "from": "0xba12222222228d8ba445958a75a0704d566bf2c8",
                "id": 1,
                "isERC1155": false,
                "isERC721": false,
                "isReverted": false,
                "order": 1,
                "to": "0xed42cb11b9d03c807ed1ba9c2ed1d3ba5bf37340",
                "token": "0xc02aaa39b223fe8d0a0e5c4f27ead9083c756cc2"
            },
            {
                "amount": "72.5",
                "from": "0xc02aaa39b223fe8d0a0e5c4f27ead9083c756cc2",
                "id": 2,
                "isERC1155": false,
                "isERC721": false,
                "isReverted": false,
                "order": 2,
                "to": "0xed42cb11b9d03c807ed1ba9c2ed1d3ba5bf37340",
                "token": "0xeeeeeeeeeeeeeeeeeeeeeeeeeeeeeeeeeeeeeeee"
            },
            {
                "amount": "72.5",
                "from": "0xed42cb11b9d03c807ed1ba9c2ed1d3ba5bf37340",
                "id": 3,
                "isERC1155": false,
                "isERC721": false,
                "isReverted": false,
                "order": 3,
                "to": "0xc02aaa39b223fe8d0a0e5c4f27ead9083c756cc2",
                "token": "0xc02aaa39b223fe8d0a0e5c4f27ead9083c756cc2"
            },
            {
                "amount": "84",
                "from": "0xed42cb11b9d03c807ed1ba9c2ed1d3ba5bf37340",
                "id": 4,
                "isERC1155": false,
                "isERC721": false,
                "isReverted": false,
                "order": 4,
                "to": "0xf2919d1d80aff2940274014bef534f7791906ff2",
                "token": "0xeeeeeeeeeeeeeeeeeeeeeeeeeeeeeeeeeeeeeeee"
            },
            {
                "amount": "4,918,507.926523303047891131",
                "from": "0x0000000000000000000000000000000000000000",
                "id": 5,
                "isERC1155": false,
                "isERC721": false,
                "isReverted": false,
                "order": 5,
                "to": "0xed42cb11b9d03c807ed1ba9c2ed1d3ba5bf37340",
                "token": "0xf2919d1d80aff2940274014bef534f7791906ff2"
            },
            {
                "amount": "5.814846475397204239",
                "from": "0xf2919d1d80aff2940274014bef534f7791906ff2",
                "id": 6,
                "isERC1155": false,
                "isERC721": false,
                "isReverted": false,
                "order": 6,
                "to": "0x985b6b9064212091b4b325f68746b77262801bcb",
                "token": "0xeeeeeeeeeeeeeeeeeeeeeeeeeeeeeeeeeeeeeeee"
            },
            {
                "amount": "4,918,507.926523303047891131",
                "from": "0xed42cb11b9d03c807ed1ba9c2ed1d3ba5bf37340",
                "id": 7,
                "isERC1155": false,
                "isERC721": false,
                "isReverted": false,
                "order": 7,
                "to": "0x0000000000000000000000000000000000000000",
                "token": "0xf2919d1d80aff2940274014bef534f7791906ff2"
            },
            {
                "amount": "99.324469731061671907",
                "from": "0xf2919d1d80aff2940274014bef534f7791906ff2",
                "id": 8,
                "isERC1155": false,
                "isERC721": false,
                "isReverted": false,
                "order": 8,
                "to": "0xed42cb11b9d03c807ed1ba9c2ed1d3ba5bf37340",
                "token": "0xeeeeeeeeeeeeeeeeeeeeeeeeeeeeeeeeeeeeeeee"
            },
            {
                "amount": "72.5",
                "from": "0xed42cb11b9d03c807ed1ba9c2ed1d3ba5bf37340",
                "id": 9,
                "isERC1155": false,
                "isERC721": false,
                "isReverted": false,
                "order": 9,
                "to": "0xc02aaa39b223fe8d0a0e5c4f27ead9083c756cc2",
                "token": "0xeeeeeeeeeeeeeeeeeeeeeeeeeeeeeeeeeeeeeeee"
            },
            {
                "amount": "72.5",
                "from": "0xc02aaa39b223fe8d0a0e5c4f27ead9083c756cc2",
                "id": 10,
                "isERC1155": false,
                "isERC721": false,
                "isReverted": false,
                "order": 10,
                "to": "0xed42cb11b9d03c807ed1ba9c2ed1d3ba5bf37340",
                "token": "0xc02aaa39b223fe8d0a0e5c4f27ead9083c756cc2"
            },
            {
                "amount": "72.5",
                "from": "0xed42cb11b9d03c807ed1ba9c2ed1d3ba5bf37340",
                "id": 11,
                "isERC1155": false,
                "isERC721": false,
                "isReverted": false,
                "order": 11,
                "to": "0xba12222222228d8ba445958a75a0704d566bf2c8",
                "token": "0xc02aaa39b223fe8d0a0e5c4f27ead9083c756cc2"
            },
            {
                "amount": "15.324469731061671907",
                "from": "0xed42cb11b9d03c807ed1ba9c2ed1d3ba5bf37340",
                "id": 12,
                "isERC1155": false,
                "isERC721": false,
                "isReverted": false,
                "order": 12,
                "to": "0x0348d20b74ddc0ac9bfc3626e06d30bb6fac213b",
                "token": "0xeeeeeeeeeeeeeeeeeeeeeeeeeeeeeeeeeeeeeeee"
            }
        ],
        "token_infos": [
            {
                "address": "0xeeeeeeeeeeeeeeeeeeeeeeeeeeeeeeeeeeeeeeee",
                "decimals": 18
            },
            {
                "address": "0xc02aaa39b223fe8d0a0e5c4f27ead9083c756cc2",
                "decimals": 18
            },
            {
                "address": "0xf2919d1d80aff2940274014bef534f7791906ff2",
                "decimals": 18
            }
        ]
    },
    "address_label": {
        "labels": [
            {
                "address": "0xed42cb11b9d03c807ed1ba9c2ed1d3ba5bf37340",
                "label": "JAY Exploiter Contract"
            },
            {
                "address": "0xce88686553686da562ce7cea497ce749da109f9f",
                "label": "ProtocolFeesCollector"
            },
            {
                "address": "0x985b6b9064212091b4b325f68746b77262801bcb",
                "label": "TheSplitoooor"
            },
            {
                "address": "0x0000000000000000000000000000000000000001",
                "label": "Precompiled"
            },
            {
                "address": "0x0000000000000000000000000000000000000002",
                "label": "Precompiled"
            },
            {
                "address": "0x0000000000000000000000000000000000000003",
                "label": "Precompiled"
            },
            {
                "address": "0xeeeeeeeeeeeeeeeeeeeeeeeeeeeeeeeeeeeeeeee",
                "label": "Ether"
            },
            {
                "address": "0xba12222222228d8ba445958a75a0704d566bf2c8",
                "label": "Balancer: Vault"
            },
            {
                "address": "0xc02aaa39b223fe8d0a0e5c4f27ead9083c756cc2",
                "label": "Wrapped Ether (WETH)"
            },
            {
                "address": "0x0348d20b74ddc0ac9bfc3626e06d30bb6fac213b",
                "label": "JAY Exploiter"
            },
            {
                "address": "0xf2919d1d80aff2940274014bef534f7791906ff2",
                "label": "JayPeggers (JAY)"
            },
            {
                "address": "0x0000000000000000000000000000000000000004",
                "label": "Precompiled"
            }
        ]
    },
    "trace": {
        "accountLabels": null,
        "dataMap": {
            "-1": {
                "invocation": {
                    "address": "0x0348d20b74ddc0ac9bfc3626e06d30bb6fac213b",
                    "callData": "",
                    "decodedMethod": null,
                    "errorInfo": "",
                    "fromAddress": "",
                    "gasUsed": 0,
                    "id": -1,
                    "methodDecoded": false,
                    "operation": "",
                    "output": "",
                    "revert": false,
                    "revertMessage": "",
                    "selector": "",
                    "status": false,
                    "value": ""
                },
                "nodeType": 0
            },
            "0": {
                "invocation": {
                    "address": "0xed42cb11b9d03c807ed1ba9c2ed1d3ba5bf37340",
                    "callData": "0x000000000000000000000000000000000000000000000003ee23bde0e7d20000000000000000000000000000f2919d1d80aff2940274014bef534f7791906ff200000000000000000000000000000000000000000000000000000000000000600000000000000000000000000000000000000000000000000000000000000080000000000000000000000000000000000000000000000001314fb37062980000000000000000000000000000000000000000000000000002bcd40a70853a000000000000000000000000000000000000000000000000000030927f74c9de00000000000000000000000000000000000000000000000000006f05b59d3b200000",
                    "decodedMethod": null,
                    "errorInfo": "",
                    "fromAddress": "0x0348d20b74ddc0ac9bfc3626e06d30bb6fac213b",
                    "gasUsed": 368666,
                    "id": 0,
                    "methodDecoded": false,
                    "operation": "CALL",
                    "output": "",
                    "revert": false,
                    "revertMessage": "",
                    "selector": "0xfc42acfb",
                    "status": true,
                    "value": "0"
                },
                "nodeType": 0
            },
            "1": {
                "invocation": {
                    "address": "0xba12222222228d8ba445958a75a0704d566bf2c8",
                    "callData": "0x000000000000000000000000ed42cb11b9d03c807ed1ba9c2ed1d3ba5bf37340000000000000000000000000000000000000000000000000000000000000008000000000000000000000000000000000000000000000000000000000000000c000000000000000000000000000000000000000000000000000000000000001000000000000000000000000000000000000000000000000000000000000000001000000000000000000000000c02aaa39b223fe8d0a0e5c4f27ead9083c756cc20000000000000000000000000000000000000000000000000000000000000001000000000000000000000000000000000000000000000003ee23bde0e7d200000000000000000000000000000000000000000000000000000000000000000080000000000000000000000000000000000000000000000001314fb37062980000000000000000000000000000000000000000000000000002bcd40a70853a000000000000000000000000000000000000000000000000000030927f74c9de00000000000000000000000000000000000000000000000000006f05b59d3b200000",
                    "decodedMethod": {
                        "callParams": [
                            {
                                "name": "recipient",
                                "type": "address",
                                "value": "0xed42cb11b9d03c807ed1ba9c2ed1d3ba5bf37340"
                            },
                            {
                                "name": "tokens",
                                "type": "address[]",
                                "value": [
                                    "0xc02aaa39b223fe8d0a0e5c4f27ead9083c756cc2"
                                ]
                            },
                            {
                                "name": "amounts",
                                "type": "uint256[]",
                                "value": [
                                    "72,500,000,000,000,000,000"
                                ]
                            },
                            {
                                "name": "userData",
                                "type": "bytes",
                                "value": "0x000000000000000000000000000000000000000000000001314fb37062980000000000000000000000000000000000000000000000000002bcd40a70853a000000000000000000000000000000000000000000000000000030927f74c9de00000000000000000000000000000000000000000000000000006f05b59d3b200000"
                            }
                        ],
                        "constructorArguments": "",
                        "name": "flashLoan",
                        "returnParams": [],
                        "signature": "flashLoan(address,address[],uint256[],bytes)"
                    },
                    "errorInfo": "",
                    "fromAddress": "0xed42cb11b9d03c807ed1ba9c2ed1d3ba5bf37340",
                    "gasUsed": 404604,
                    "id": 1,
                    "methodDecoded": true,
                    "operation": "CALL",
                    "output": "",
                    "revert": false,
                    "revertMessage": "",
                    "selector": "0x5c38449e",
                    "status": true,
                    "value": "0"
                },
                "nodeType": 0
            },
            "10": {
                "invocation": {
                    "address": "0xf2919d1d80aff2940274014bef534f7791906ff2",
                    "callData": "0x00000000000000000000000000000000000000000000000000000000000000a000000000000000000000000000000000000000000000000000000000000000c000000000000000000000000000000000000000000000000000000000000000e00000000000000000000000000000000000000000000000000000000000000100000000000000000000000000000000000000000000000000000000000000012000000000000000000000000000000000000000000000000000000000000000000000000000000000000000000000000000000000000000000000000000000000000000000000000000000000000000000000000000000000000000000000000000000000000000000000000000000000000000000000000000000000000000000000000000000000000000000000000000000000000000000000000000000000",
                    "decodedMethod": {
                        "callParams": [
                            {
                                "name": "erc721TokenAddress",
                                "type": "address[]",
                                "value": []
                            },
                            {
                                "name": "erc721Ids",
                                "type": "uint256[]",
                                "value": []
                            },
                            {
                                "name": "erc1155TokenAddress",
                                "type": "address[]",
                                "value": []
                            },
                            {
                                "name": "erc1155Ids",
                                "type": "uint256[]",
                                "value": []
                            },
                            {
                                "name": "erc1155Amounts",
                                "type": "uint256[]",
                                "value": []
                            }
                        ],
                        "constructorArguments": "",
                        "name": "buyJay",
                        "returnParams": [],
                        "signature": "buyJay(address[],uint256[],address[],uint256[],uint256[])"
                    },
                    "errorInfo": "",
                    "fromAddress": "0xed42cb11b9d03c807ed1ba9c2ed1d3ba5bf37340",
                    "gasUsed": 52074,
                    "id": 10,
                    "methodDecoded": true,
                    "operation": "CALL",
                    "output": "",
                    "revert": false,
                    "revertMessage": "",
                    "selector": "0x666566e8",
                    "status": true,
                    "value": "22"
                },
                "nodeType": 0
            },
            "11": {
                "event": {
                    "contract": "0xf2919d1d80aff2940274014bef534f7791906ff2",
                    "decodedLog": {
                        "name": "Transfer",
                        "params": [
                            {
                                "name": "from",
                                "type": "address",
                                "value": "0x0000000000000000000000000000000000000000"
                            },
                            {
                                "name": "to",
                                "type": "address",
                                "value": "0xed42cb11b9d03c807ed1ba9c2ed1d3ba5bf37340"
                            },
                            {
                                "decimalAvailable": true,
                                "name": "value",
                                "type": "uint256",
                                "value": "13,584,899,853,779,845,952,188"
                            }
                        ],
                        "signature": "Transfer(address,address,uint256)"
                    },
                    "id": 11,
                    "logData": "0x0000000000000000000000000000000000000000000002e0705b8920ebc2b2bc",
                    "logDecoded": true,
                    "operation": "EVENT",
                    "revert": false,
                    "status": true,
                    "topics": [
                        "0xddf252ad1be2c89b69c2b068fc378daa952ba7f163c4a11628f55a4df523b3ef",
                        "0x0000000000000000000000000000000000000000000000000000000000000000",
                        "0x000000000000000000000000ed42cb11b9d03c807ed1ba9c2ed1d3ba5bf37340"
                    ]
                },
                "nodeType": 1
            },
            "12": {
                "invocation": {
                    "address": "0x985b6b9064212091b4b325f68746b77262801bcb",
                    "callData": "0x",
                    "decodedMethod": null,
                    "errorInfo": "",
                    "fromAddress": "0xf2919d1d80aff2940274014bef534f7791906ff2",
                    "gasUsed": 55,
                    "id": 12,
                    "methodDecoded": false,
                    "operation": "CALL",
                    "output": "",
                    "revert": false,
                    "revertMessage": "",
                    "selector": "fallback",
                    "status": true,
                    "value": "0.647058823529411764"
                },
                "nodeType": 0
            },
            "13": {
                "event": {
                    "contract": "0xf2919d1d80aff2940274014bef534f7791906ff2",
                    "decodedLog": {
                        "name": "Price",
                        "params": [
                            {
                                "name": "time",
                                "type": "uint256",
                                "value": "1,672,290,143"
                            },
                            {
                                "name": "price",
                                "type": "uint256",
                                "value": "1,571,332,277,439,781"
                            }
                        ],
                        "signature": "Price(uint256,uint256)"
                    },
                    "id": 13,
                    "logData": "0x0000000000000000000000000000000000000000000000000000000063ad1f5f0000000000000000000000000000000000000000000000000005951e4e388d25",
                    "logDecoded": true,
                    "operation": "EVENT",
                    "revert": false,
                    "status": true,
                    "topics": [
                        "0xd1353c68e79ef70de84ee90d2facf845ec24895116d4a03505aa41785af71f5a"
                    ]
                },
                "nodeType": 1
            },
            "14": {
                "invocation": {
                    "address": "0xf2919d1d80aff2940274014bef534f7791906ff2",
                    "callData": "0x00000000000000000000000000000000000000000000000000000000000000a000000000000000000000000000000000000000000000000000000000000000e00000000000000000000000000000000000000000000000000000000000000120000000000000000000000000000000000000000000000000000000000000014000000000000000000000000000000000000000000000000000000000000001600000000000000000000000000000000000000000000000000000000000000001000000000000000000000000ed42cb11b9d03c807ed1ba9c2ed1d3ba5bf3734000000000000000000000000000000000000000000000000000000000000000010000000000000000000000000000000000000000000000000000000000000000000000000000000000000000000000000000000000000000000000000000000000000000000000000000000000000000000000000000000000000000000000000000000000000000000000000000000000000000000000000000000000000000",
                    "decodedMethod": {
                        "callParams": [
                            {
                                "name": "erc721TokenAddress",
                                "type": "address[]",
                                "value": [
                                    "0xed42cb11b9d03c807ed1ba9c2ed1d3ba5bf37340"
                                ]
                            },
                            {
                                "name": "erc721Ids",
                                "type": "uint256[]",
                                "value": [
                                    "0"
                                ]
                            },
                            {
                                "name": "erc1155TokenAddress",
                                "type": "address[]",
                                "value": []
                            },
                            {
                                "name": "erc1155Ids",
                                "type": "uint256[]",
                                "value": []
                            },
                            {
                                "name": "erc1155Amounts",
                                "type": "uint256[]",
                                "value": []
                            }
                        ],
                        "constructorArguments": "",
                        "name": "buyJay",
                        "returnParams": [],
                        "signature": "buyJay(address[],uint256[],address[],uint256[],uint256[])"
                    },
                    "errorInfo": "",
                    "fromAddress": "0xed42cb11b9d03c807ed1ba9c2ed1d3ba5bf37340",
                    "gasUsed": 68117,
                    "id": 14,
                    "methodDecoded": true,
                    "operation": "CALL",
                    "output": "",
                    "revert": false,
                    "revertMessage": "",
                    "selector": "0x666566e8",
                    "status": true,
                    "value": "50.5"
                },
                "nodeType": 0
            },
            "15": {
                "invocation": {
                    "address": "0xed42cb11b9d03c807ed1ba9c2ed1d3ba5bf37340",
                    "callData": "0x000000000000000000000000ed42cb11b9d03c807ed1ba9c2ed1d3ba5bf37340000000000000000000000000f2919d1d80aff2940274014bef534f7791906ff20000000000000000000000000000000000000000000000000000000000000000",
                    "decodedMethod": {
                        "callParams": [
                            {
                                "name": "sender",
                                "type": "address",
                                "value": "0xed42cb11b9d03c807ed1ba9c2ed1d3ba5bf37340"
                            },
                            {
                                "name": "recipient",
                                "type": "address",
                                "value": "0xf2919d1d80aff2940274014bef534f7791906ff2"
                            },
                            {
                                "decimalAvailable": true,
                                "name": "amount",
                                "type": "uint256",
                                "value": "0"
                            }
                        ],
                        "constructorArguments": "",
                        "name": "transferFrom",
                        "returnParams": [
                            {
                                "name": "",
                                "type": "bool",
                                "value": true
                            }
                        ],
                        "signature": "transferFrom(address,address,uint256)"
                    },
                    "errorInfo": "",
                    "fromAddress": "0xf2919d1d80aff2940274014bef534f7791906ff2",
                    "gasUsed": 24291,
                    "id": 15,
                    "methodDecoded": true,
                    "operation": "CALL",
                    "output": "0x0000000000000000000000000000000000000000000000000000000000000001",
                    "revert": false,
                    "revertMessage": "",
                    "selector": "0x23b872dd",
                    "status": true,
                    "value": "0"
                },
                "nodeType": 0
            },
            "16": {
                "invocation": {
                    "address": "0xf2919d1d80aff2940274014bef534f7791906ff2",
                    "callData": "0x000000000000000000000000ed42cb11b9d03c807ed1ba9c2ed1d3ba5bf37340",
                    "decodedMethod": {
                        "callParams": [
                            {
                                "name": "account",
                                "type": "address",
                                "value": "0xed42cb11b9d03c807ed1ba9c2ed1d3ba5bf37340"
                            }
                        ],
                        "constructorArguments": "",
                        "name": "balanceOf",
                        "returnParams": [
                            {
                                "decimalAvailable": true,
                                "name": "",
                                "type": "uint256",
                                "value": "13,584,899,853,779,845,952,188"
                            }
                        ],
                        "signature": "balanceOf(address)"
                    },
                    "errorInfo": "",
                    "fromAddress": "0xed42cb11b9d03c807ed1ba9c2ed1d3ba5bf37340",
                    "gasUsed": 886,
                    "id": 16,
                    "methodDecoded": true,
                    "operation": "STATICCALL",
                    "output": "0x0000000000000000000000000000000000000000000002e0705b8920ebc2b2bc",
                    "revert": false,
                    "revertMessage": "",
                    "selector": "0x70a08231",
                    "status": true,
                    "value": "0"
                },
                "nodeType": 0
            },
            "17": {
                "invocation": {
                    "address": "0xf2919d1d80aff2940274014bef534f7791906ff2",
                    "callData": "0x0000000000000000000000000000000000000000000002e0705b8920ebc2b2bc",
                    "decodedMethod": {
                        "callParams": [
                            {
                                "name": "value",
                                "type": "uint256",
                                "value": "13,584,899,853,779,845,952,188"
                            }
                        ],
                        "constructorArguments": "",
                        "name": "sell",
                        "returnParams": [],
                        "signature": "sell(uint256)"
                    },
                    "errorInfo": "",
                    "fromAddress": "0xed42cb11b9d03c807ed1ba9c2ed1d3ba5bf37340",
                    "gasUsed": 21519,
                    "id": 17,
                    "methodDecoded": true,
                    "operation": "CALL",
                    "output": "",
                    "revert": false,
                    "revertMessage": "",
                    "selector": "0xe4849b32",
                    "status": true,
                    "value": "0"
                },
                "nodeType": 0
            },
            "18": {
                "event": {
                    "contract": "0xf2919d1d80aff2940274014bef534f7791906ff2",
                    "decodedLog": {
                        "name": "Transfer",
                        "params": [
                            {
                                "name": "from",
                                "type": "address",
                                "value": "0xed42cb11b9d03c807ed1ba9c2ed1d3ba5bf37340"
                            },
                            {
                                "name": "to",
                                "type": "address",
                                "value": "0x0000000000000000000000000000000000000000"
                            },
                            {
                                "decimalAvailable": true,
                                "name": "value",
                                "type": "uint256",
                                "value": "13,584,899,853,779,845,952,188"
                            }
                        ],
                        "signature": "Transfer(address,address,uint256)"
                    },
                    "id": 18,
                    "logData": "0x0000000000000000000000000000000000000000000002e0705b8920ebc2b2bc",
                    "logDecoded": true,
                    "operation": "EVENT",
                    "revert": false,
                    "status": true,
                    "topics": [
                        "0xddf252ad1be2c89b69c2b068fc378daa952ba7f163c4a11628f55a4df523b3ef",
                        "0x000000000000000000000000ed42cb11b9d03c807ed1ba9c2ed1d3ba5bf37340",
                        "0x0000000000000000000000000000000000000000000000000000000000000000"
                    ]
                },
                "nodeType": 1
            },
            "19": {
                "invocation": {
                    "address": "0xed42cb11b9d03c807ed1ba9c2ed1d3ba5bf37340",
                    "callData": "0x",
                    "decodedMethod": null,
                    "errorInfo": "",
                    "fromAddress": "0xf2919d1d80aff2940274014bef534f7791906ff2",
                    "gasUsed": 62,
                    "id": 19,
                    "methodDecoded": false,
                    "operation": "CALL",
                    "output": "",
                    "revert": false,
                    "revertMessage": "",
                    "selector": "fallback",
                    "status": true,
                    "value": "41.659433613619462107"
                },
                "nodeType": 0
            },
            "2": {
                "invocation": {
                    "address": "0xc02aaa39b223fe8d0a0e5c4f27ead9083c756cc2",
                    "callData": "0x000000000000000000000000ba12222222228d8ba445958a75a0704d566bf2c8",
                    "decodedMethod": {
                        "callParams": [
                            {
                                "name": "",
                                "type": "address",
                                "value": "0xba12222222228d8ba445958a75a0704d566bf2c8"
                            }
                        ],
                        "constructorArguments": "",
                        "name": "balanceOf",
                        "returnParams": [
                            {
                                "decimalAvailable": true,
                                "name": "",
                                "type": "uint256",
                                "value": "150,595,305,800,397,677,345,602"
                            }
                        ],
                        "signature": "balanceOf(address)"
                    },
                    "errorInfo": "",
                    "fromAddress": "0xba12222222228d8ba445958a75a0704d566bf2c8",
                    "gasUsed": 2534,
                    "id": 2,
                    "methodDecoded": true,
                    "operation": "STATICCALL",
                    "output": "0x000000000000000000000000000000000000000000001fe3c9b2e155eae73b42",
                    "revert": false,
                    "revertMessage": "",
                    "selector": "0x70a08231",
                    "status": true,
                    "value": "0"
                },
                "nodeType": 0
            },
            "20": {
                "invocation": {
                    "address": "0x985b6b9064212091b4b325f68746b77262801bcb",
                    "callData": "0x",
                    "decodedMethod": null,
                    "errorInfo": "",
                    "fromAddress": "0xf2919d1d80aff2940274014bef534f7791906ff2",
                    "gasUsed": 55,
                    "id": 20,
                    "methodDecoded": false,
                    "operation": "CALL",
                    "output": "",
                    "revert": false,
                    "revertMessage": "",
                    "selector": "fallback",
                    "status": true,
                    "value": "1.402674532445099734"
                },
                "nodeType": 0
            },
            "21": {
                "event": {
                    "contract": "0xf2919d1d80aff2940274014bef534f7791906ff2",
                    "decodedLog": {
                        "name": "Price",
                        "params": [
                            {
                                "name": "time",
                                "type": "uint256",
                                "value": "1,672,290,143"
                            },
                            {
                                "name": "price",
                                "type": "uint256",
                                "value": "3,639,086,173,070,959"
                            }
                        ],
                        "signature": "Price(uint256,uint256)"
                    },
                    "id": 21,
                    "logData": "0x0000000000000000000000000000000000000000000000000000000063ad1f5f000000000000000000000000000000000000000000000000000cedbac6a7266f",
                    "logDecoded": true,
                    "operation": "EVENT",
                    "revert": false,
                    "status": true,
                    "topics": [
                        "0xd1353c68e79ef70de84ee90d2facf845ec24895116d4a03505aa41785af71f5a"
                    ]
                },
                "nodeType": 1
            },
            "22": {
                "event": {
                    "contract": "0xf2919d1d80aff2940274014bef534f7791906ff2",
                    "decodedLog": {
                        "name": "Transfer",
                        "params": [
                            {
                                "name": "from",
                                "type": "address",
                                "value": "0x0000000000000000000000000000000000000000"
                            },
                            {
                                "name": "to",
                                "type": "address",
                                "value": "0xed42cb11b9d03c807ed1ba9c2ed1d3ba5bf37340"
                            },
                            {
                                "decimalAvailable": true,
                                "name": "value",
                                "type": "uint256",
                                "value": "4,313,025,058,290,613,910,965,927"
                            }
                        ],
                        "signature": "Transfer(address,address,uint256)"
                    },
                    "id": 22,
                    "logData": "0x0000000000000000000000000000000000000000000391518e919930364b0ea7",
                    "logDecoded": true,
                    "operation": "EVENT",
                    "revert": false,
                    "status": true,
                    "topics": [
                        "0xddf252ad1be2c89b69c2b068fc378daa952ba7f163c4a11628f55a4df523b3ef",
                        "0x0000000000000000000000000000000000000000000000000000000000000000",
                        "0x000000000000000000000000ed42cb11b9d03c807ed1ba9c2ed1d3ba5bf37340"
                    ]
                },
                "nodeType": 1
            },
            "23": {
                "invocation": {
                    "address": "0x985b6b9064212091b4b325f68746b77262801bcb",
                    "callData": "0x",
                    "decodedMethod": null,
                    "errorInfo": "",
                    "fromAddress": "0xf2919d1d80aff2940274014bef534f7791906ff2",
                    "gasUsed": 55,
                    "id": 23,
                    "methodDecoded": false,
                    "operation": "CALL",
                    "output": "",
                    "revert": false,
                    "revertMessage": "",
                    "selector": "fallback",
                    "status": true,
                    "value": "1.485294117647058823"
                },
                "nodeType": 0
            },
            "24": {
                "event": {
                    "contract": "0xf2919d1d80aff2940274014bef534f7791906ff2",
                    "decodedLog": {
                        "name": "Price",
                        "params": [
                            {
                                "name": "time",
                                "type": "uint256",
                                "value": "1,672,290,143"
                            },
                            {
                                "name": "price",
                                "type": "uint256",
                                "value": "11,364,323,102,879"
                            }
                        ],
                        "signature": "Price(uint256,uint256)"
                    },
                    "id": 24,
                    "logData": "0x0000000000000000000000000000000000000000000000000000000063ad1f5f00000000000000000000000000000000000000000000000000000a55f671109f",
                    "logDecoded": true,
                    "operation": "EVENT",
                    "revert": false,
                    "status": true,
                    "topics": [
                        "0xd1353c68e79ef70de84ee90d2facf845ec24895116d4a03505aa41785af71f5a"
                    ]
                },
                "nodeType": 1
            },
            "25": {
                "invocation": {
                    "address": "0xf2919d1d80aff2940274014bef534f7791906ff2",
                    "callData": "0x000000000000000000000000ed42cb11b9d03c807ed1ba9c2ed1d3ba5bf37340",
                    "decodedMethod": {
                        "callParams": [
                            {
                                "name": "account",
                                "type": "address",
                                "value": "0xed42cb11b9d03c807ed1ba9c2ed1d3ba5bf37340"
                            }
                        ],
                        "constructorArguments": "",
                        "name": "balanceOf",
                        "returnParams": [
                            {
                                "decimalAvailable": true,
                                "name": "",
                                "type": "uint256",
                                "value": "4,313,025,058,290,613,910,965,927"
                            }
                        ],
                        "signature": "balanceOf(address)"
                    },
                    "errorInfo": "",
                    "fromAddress": "0xed42cb11b9d03c807ed1ba9c2ed1d3ba5bf37340",
                    "gasUsed": 886,
                    "id": 25,
                    "methodDecoded": true,
                    "operation": "STATICCALL",
                    "output": "0x0000000000000000000000000000000000000000000391518e919930364b0ea7",
                    "revert": false,
                    "revertMessage": "",
                    "selector": "0x70a08231",
                    "status": true,
                    "value": "0"
                },
                "nodeType": 0
            },
            "26": {
                "invocation": {
                    "address": "0xf2919d1d80aff2940274014bef534f7791906ff2",
                    "callData": "0x0000000000000000000000000000000000000000000391518e919930364b0ea7",
                    "decodedMethod": {
                        "callParams": [
                            {
                                "name": "value",
                                "type": "uint256",
                                "value": "4,313,025,058,290,613,910,965,927"
                            }
                        ],
                        "constructorArguments": "",
                        "name": "sell",
                        "returnParams": [],
                        "signature": "sell(uint256)"
                    },
                    "errorInfo": "",
                    "fromAddress": "0xed42cb11b9d03c807ed1ba9c2ed1d3ba5bf37340",
                    "gasUsed": 21519,
                    "id": 26,
                    "methodDecoded": true,
                    "operation": "CALL",
                    "output": "",
                    "revert": false,
                    "revertMessage": "",
                    "selector": "0xe4849b32",
                    "status": true,
                    "value": "0"
                },
                "nodeType": 0
            },
            "27": {
                "event": {
                    "contract": "0xf2919d1d80aff2940274014bef534f7791906ff2",
                    "decodedLog": {
                        "name": "Transfer",
                        "params": [
                            {
                                "name": "from",
                                "type": "address",
                                "value": "0xed42cb11b9d03c807ed1ba9c2ed1d3ba5bf37340"
                            },
                            {
                                "name": "to",
                                "type": "address",
                                "value": "0x0000000000000000000000000000000000000000"
                            },
                            {
                                "decimalAvailable": true,
                                "name": "value",
                                "type": "uint256",
                                "value": "4,313,025,058,290,613,910,965,927"
                            }
                        ],
                        "signature": "Transfer(address,address,uint256)"
                    },
                    "id": 27,
                    "logData": "0x0000000000000000000000000000000000000000000391518e919930364b0ea7",
                    "logDecoded": true,
                    "operation": "EVENT",
                    "revert": false,
                    "status": true,
                    "topics": [
                        "0xddf252ad1be2c89b69c2b068fc378daa952ba7f163c4a11628f55a4df523b3ef",
                        "0x000000000000000000000000ed42cb11b9d03c807ed1ba9c2ed1d3ba5bf37340",
                        "0x0000000000000000000000000000000000000000000000000000000000000000"
                    ]
                },
                "nodeType": 1
            },
            "28": {
                "invocation": {
                    "address": "0xed42cb11b9d03c807ed1ba9c2ed1d3ba5bf37340",
                    "callData": "0x",
                    "decodedMethod": null,
                    "errorInfo": "",
                    "fromAddress": "0xf2919d1d80aff2940274014bef534f7791906ff2",
                    "gasUsed": 62,
                    "id": 28,
                    "methodDecoded": false,
                    "operation": "CALL",
                    "output": "",
                    "revert": false,
                    "revertMessage": "",
                    "selector": "fallback",
                    "status": true,
                    "value": "44.11314928190794425"
                },
                "nodeType": 0
            },
            "29": {
                "invocation": {
                    "address": "0x985b6b9064212091b4b325f68746b77262801bcb",
                    "callData": "0x",
                    "decodedMethod": null,
                    "errorInfo": "",
                    "fromAddress": "0xf2919d1d80aff2940274014bef534f7791906ff2",
                    "gasUsed": 55,
                    "id": 29,
                    "methodDecoded": false,
                    "operation": "CALL",
                    "output": "",
                    "revert": false,
                    "revertMessage": "",
                    "selector": "fallback",
                    "status": true,
                    "value": "1.485291221613062095"
                },
                "nodeType": 0
            },
            "3": {
                "invocation": {
                    "address": "0xce88686553686da562ce7cea497ce749da109f9f",
                    "callData": "0x",
                    "decodedMethod": {
                        "callParams": [],
                        "constructorArguments": "",
                        "name": "getFlashLoanFeePercentage",
                        "returnParams": [
                            {
                                "name": "",
                                "type": "uint256",
                                "value": "0"
                            }
                        ],
                        "signature": "getFlashLoanFeePercentage()"
                    },
                    "errorInfo": "",
                    "fromAddress": "0xba12222222228d8ba445958a75a0704d566bf2c8",
                    "gasUsed": 2350,
                    "id": 3,
                    "methodDecoded": true,
                    "operation": "STATICCALL",
                    "output": "0x0000000000000000000000000000000000000000000000000000000000000000",
                    "revert": false,
                    "revertMessage": "",
                    "selector": "0xd877845c",
                    "status": true,
                    "value": "0"
                },
                "nodeType": 0
            },
            "30": {
                "event": {
                    "contract": "0xf2919d1d80aff2940274014bef534f7791906ff2",
                    "decodedLog": {
                        "name": "Price",
                        "params": [
                            {
                                "name": "time",
                                "type": "uint256",
                                "value": "1,672,290,143"
                            },
                            {
                                "name": "price",
                                "type": "uint256",
                                "value": "256,769,022,409,771"
                            }
                        ],
                        "signature": "Price(uint256,uint256)"
                    },
                    "id": 30,
                    "logData": "0x0000000000000000000000000000000000000000000000000000000063ad1f5f0000000000000000000000000000000000000000000000000000e987b25ebc2b",
                    "logDecoded": true,
                    "operation": "EVENT",
                    "revert": false,
                    "status": true,
                    "topics": [
                        "0xd1353c68e79ef70de84ee90d2facf845ec24895116d4a03505aa41785af71f5a"
                    ]
                },
                "nodeType": 1
            },
            "31": {
                "invocation": {
                    "address": "0xf2919d1d80aff2940274014bef534f7791906ff2",
                    "callData": "0x00000000000000000000000000000000000000000000000000000000000000a000000000000000000000000000000000000000000000000000000000000000c000000000000000000000000000000000000000000000000000000000000000e00000000000000000000000000000000000000000000000000000000000000100000000000000000000000000000000000000000000000000000000000000012000000000000000000000000000000000000000000000000000000000000000000000000000000000000000000000000000000000000000000000000000000000000000000000000000000000000000000000000000000000000000000000000000000000000000000000000000000000000000000000000000000000000000000000000000000000000000000000000000000000000000000000000000000000",
                    "decodedMethod": {
                        "callParams": [
                            {
                                "name": "erc721TokenAddress",
                                "type": "address[]",
                                "value": []
                            },
                            {
                                "name": "erc721Ids",
                                "type": "uint256[]",
                                "value": []
                            },
                            {
                                "name": "erc1155TokenAddress",
                                "type": "address[]",
                                "value": []
                            },
                            {
                                "name": "erc1155Ids",
                                "type": "uint256[]",
                                "value": []
                            },
                            {
                                "name": "erc1155Amounts",
                                "type": "uint256[]",
                                "value": []
                            }
                        ],
                        "constructorArguments": "",
                        "name": "buyJay",
                        "returnParams": [],
                        "signature": "buyJay(address[],uint256[],address[],uint256[],uint256[])"
                    },
                    "errorInfo": "",
                    "fromAddress": "0xed42cb11b9d03c807ed1ba9c2ed1d3ba5bf37340",
                    "gasUsed": 39574,
                    "id": 31,
                    "methodDecoded": true,
                    "operation": "CALL",
                    "output": "",
                    "revert": false,
                    "revertMessage": "",
                    "selector": "0x666566e8",
                    "status": true,
                    "value": "3.5"
                },
                "nodeType": 0
            },
            "32": {
                "event": {
                    "contract": "0xf2919d1d80aff2940274014bef534f7791906ff2",
                    "decodedLog": {
                        "name": "Transfer",
                        "params": [
                            {
                                "name": "from",
                                "type": "address",
                                "value": "0x0000000000000000000000000000000000000000"
                            },
                            {
                                "name": "to",
                                "type": "address",
                                "value": "0xed42cb11b9d03c807ed1ba9c2ed1d3ba5bf37340"
                            },
                            {
                                "decimalAvailable": true,
                                "name": "value",
                                "type": "uint256",
                                "value": "13,221,999,944,300,134,342,235"
                            }
                        ],
                        "signature": "Transfer(address,address,uint256)"
                    },
                    "id": 32,
                    "logData": "0x0000000000000000000000000000000000000000000002ccc41c102ed4231e5b",
                    "logDecoded": true,
                    "operation": "EVENT",
                    "revert": false,
                    "status": true,
                    "topics": [
                        "0xddf252ad1be2c89b69c2b068fc378daa952ba7f163c4a11628f55a4df523b3ef",
                        "0x0000000000000000000000000000000000000000000000000000000000000000",
                        "0x000000000000000000000000ed42cb11b9d03c807ed1ba9c2ed1d3ba5bf37340"
                    ]
                },
                "nodeType": 1
            },
            "33": {
                "invocation": {
                    "address": "0x985b6b9064212091b4b325f68746b77262801bcb",
                    "callData": "0x",
                    "decodedMethod": null,
                    "errorInfo": "",
                    "fromAddress": "0xf2919d1d80aff2940274014bef534f7791906ff2",
                    "gasUsed": 55,
                    "id": 33,
                    "methodDecoded": false,
                    "operation": "CALL",
                    "output": "",
                    "revert": false,
                    "revertMessage": "",
                    "selector": "fallback",
                    "status": true,
                    "value": "0.102941176470588235"
                },
                "nodeType": 0
            },
            "34": {
                "event": {
                    "contract": "0xf2919d1d80aff2940274014bef534f7791906ff2",
                    "decodedLog": {
                        "name": "Price",
                        "params": [
                            {
                                "name": "time",
                                "type": "uint256",
                                "value": "1,672,290,143"
                            },
                            {
                                "name": "price",
                                "type": "uint256",
                                "value": "256,844,874,645,242"
                            }
                        ],
                        "signature": "Price(uint256,uint256)"
                    },
                    "id": 34,
                    "logData": "0x0000000000000000000000000000000000000000000000000000000063ad1f5f0000000000000000000000000000000000000000000000000000e9995b83fefa",
                    "logDecoded": true,
                    "operation": "EVENT",
                    "revert": false,
                    "status": true,
                    "topics": [
                        "0xd1353c68e79ef70de84ee90d2facf845ec24895116d4a03505aa41785af71f5a"
                    ]
                },
                "nodeType": 1
            },
            "35": {
                "invocation": {
                    "address": "0xf2919d1d80aff2940274014bef534f7791906ff2",
                    "callData": "0x00000000000000000000000000000000000000000000000000000000000000a000000000000000000000000000000000000000000000000000000000000000e00000000000000000000000000000000000000000000000000000000000000120000000000000000000000000000000000000000000000000000000000000014000000000000000000000000000000000000000000000000000000000000001600000000000000000000000000000000000000000000000000000000000000001000000000000000000000000ed42cb11b9d03c807ed1ba9c2ed1d3ba5bf3734000000000000000000000000000000000000000000000000000000000000000010000000000000000000000000000000000000000000000000000000000000000000000000000000000000000000000000000000000000000000000000000000000000000000000000000000000000000000000000000000000000000000000000000000000000000000000000000000000000000000000000000000000000000",
                    "decodedMethod": {
                        "callParams": [
                            {
                                "name": "erc721TokenAddress",
                                "type": "address[]",
                                "value": [
                                    "0xed42cb11b9d03c807ed1ba9c2ed1d3ba5bf37340"
                                ]
                            },
                            {
                                "name": "erc721Ids",
                                "type": "uint256[]",
                                "value": [
                                    "0"
                                ]
                            },
                            {
                                "name": "erc1155TokenAddress",
                                "type": "address[]",
                                "value": []
                            },
                            {
                                "name": "erc1155Ids",
                                "type": "uint256[]",
                                "value": []
                            },
                            {
                                "name": "erc1155Amounts",
                                "type": "uint256[]",
                                "value": []
                            }
                        ],
                        "constructorArguments": "",
                        "name": "buyJay",
                        "returnParams": [],
                        "signature": "buyJay(address[],uint256[],address[],uint256[],uint256[])"
                    },
                    "errorInfo": "",
                    "fromAddress": "0xed42cb11b9d03c807ed1ba9c2ed1d3ba5bf37340",
                    "gasUsed": 65317,
                    "id": 35,
                    "methodDecoded": true,
                    "operation": "CALL",
                    "output": "",
                    "revert": false,
                    "revertMessage": "",
                    "selector": "0x666566e8",
                    "status": true,
                    "value": "8"
                },
                "nodeType": 0
            },
            "36": {
                "invocation": {
                    "address": "0xed42cb11b9d03c807ed1ba9c2ed1d3ba5bf37340",
                    "callData": "0x000000000000000000000000ed42cb11b9d03c807ed1ba9c2ed1d3ba5bf37340000000000000000000000000f2919d1d80aff2940274014bef534f7791906ff20000000000000000000000000000000000000000000000000000000000000000",
                    "decodedMethod": {
                        "callParams": [
                            {
                                "name": "sender",
                                "type": "address",
                                "value": "0xed42cb11b9d03c807ed1ba9c2ed1d3ba5bf37340"
                            },
                            {
                                "name": "recipient",
                                "type": "address",
                                "value": "0xf2919d1d80aff2940274014bef534f7791906ff2"
                            },
                            {
                                "decimalAvailable": true,
                                "name": "amount",
                                "type": "uint256",
                                "value": "0"
                            }
                        ],
                        "constructorArguments": "",
                        "name": "transferFrom",
                        "returnParams": [
                            {
                                "name": "",
                                "type": "bool",
                                "value": true
                            }
                        ],
                        "signature": "transferFrom(address,address,uint256)"
                    },
                    "errorInfo": "",
                    "fromAddress": "0xf2919d1d80aff2940274014bef534f7791906ff2",
                    "gasUsed": 24291,
                    "id": 36,
                    "methodDecoded": true,
                    "operation": "CALL",
                    "output": "0x0000000000000000000000000000000000000000000000000000000000000001",
                    "revert": false,
                    "revertMessage": "",
                    "selector": "0x23b872dd",
                    "status": true,
                    "value": "0"
                },
                "nodeType": 0
            },
            "37": {
                "invocation": {
                    "address": "0xf2919d1d80aff2940274014bef534f7791906ff2",
                    "callData": "0x000000000000000000000000ed42cb11b9d03c807ed1ba9c2ed1d3ba5bf37340",
                    "decodedMethod": {
                        "callParams": [
                            {
                                "name": "account",
                                "type": "address",
                                "value": "0xed42cb11b9d03c807ed1ba9c2ed1d3ba5bf37340"
                            }
                        ],
                        "constructorArguments": "",
                        "name": "balanceOf",
                        "returnParams": [
                            {
                                "decimalAvailable": true,
                                "name": "",
                                "type": "uint256",
                                "value": "13,221,999,944,300,134,342,235"
                            }
                        ],
                        "signature": "balanceOf(address)"
                    },
                    "errorInfo": "",
                    "fromAddress": "0xed42cb11b9d03c807ed1ba9c2ed1d3ba5bf37340",
                    "gasUsed": 886,
                    "id": 37,
                    "methodDecoded": true,
                    "operation": "STATICCALL",
                    "output": "0x0000000000000000000000000000000000000000000002ccc41c102ed4231e5b",
                    "revert": false,
                    "revertMessage": "",
                    "selector": "0x70a08231",
                    "status": true,
                    "value": "0"
                },
                "nodeType": 0
            },
            "38": {
                "invocation": {
                    "address": "0xf2919d1d80aff2940274014bef534f7791906ff2",
                    "callData": "0x0000000000000000000000000000000000000000000002ccc41c102ed4231e5b",
                    "decodedMethod": {
                        "callParams": [
                            {
                                "name": "value",
                                "type": "uint256",
                                "value": "13,221,999,944,300,134,342,235"
                            }
                        ],
                        "constructorArguments": "",
                        "name": "sell",
                        "returnParams": [],
                        "signature": "sell(uint256)"
                    },
                    "errorInfo": "",
                    "fromAddress": "0xed42cb11b9d03c807ed1ba9c2ed1d3ba5bf37340",
                    "gasUsed": 21519,
                    "id": 38,
                    "methodDecoded": true,
                    "operation": "CALL",
                    "output": "",
                    "revert": false,
                    "revertMessage": "",
                    "selector": "0xe4849b32",
                    "status": true,
                    "value": "0"
                },
                "nodeType": 0
            },
            "39": {
                "event": {
                    "contract": "0xf2919d1d80aff2940274014bef534f7791906ff2",
                    "decodedLog": {
                        "name": "Transfer",
                        "params": [
                            {
                                "name": "from",
                                "type": "address",
                                "value": "0xed42cb11b9d03c807ed1ba9c2ed1d3ba5bf37340"
                            },
                            {
                                "name": "to",
                                "type": "address",
                                "value": "0x0000000000000000000000000000000000000000"
                            },
                            {
                                "decimalAvailable": true,
                                "name": "value",
                                "type": "uint256",
                                "value": "13,221,999,944,300,134,342,235"
                            }
                        ],
                        "signature": "Transfer(address,address,uint256)"
                    },
                    "id": 39,
                    "logData": "0x0000000000000000000000000000000000000000000002ccc41c102ed4231e5b",
                    "logDecoded": true,
                    "operation": "EVENT",
                    "revert": false,
                    "status": true,
                    "topics": [
                        "0xddf252ad1be2c89b69c2b068fc378daa952ba7f163c4a11628f55a4df523b3ef",
                        "0x000000000000000000000000ed42cb11b9d03c807ed1ba9c2ed1d3ba5bf37340",
                        "0x0000000000000000000000000000000000000000000000000000000000000000"
                    ]
                },
                "nodeType": 1
            },
            "4": {
                "invocation": {
                    "address": "0xc02aaa39b223fe8d0a0e5c4f27ead9083c756cc2",
                    "callData": "0x000000000000000000000000ed42cb11b9d03c807ed1ba9c2ed1d3ba5bf37340000000000000000000000000000000000000000000000003ee23bde0e7d20000",
                    "decodedMethod": {
                        "callParams": [
                            {
                                "name": "dst",
                                "type": "address",
                                "value": "0xed42cb11b9d03c807ed1ba9c2ed1d3ba5bf37340"
                            },
                            {
                                "decimalAvailable": true,
                                "name": "wad",
                                "type": "uint256",
                                "value": "72,500,000,000,000,000,000"
                            }
                        ],
                        "constructorArguments": "",
                        "name": "transfer",
                        "returnParams": [
                            {
                                "name": "",
                                "type": "bool",
                                "value": true
                            }
                        ],
                        "signature": "transfer(address,uint256)"
                    },
                    "errorInfo": "",
                    "fromAddress": "0xba12222222228d8ba445958a75a0704d566bf2c8",
                    "gasUsed": 27962,
                    "id": 4,
                    "methodDecoded": true,
                    "operation": "CALL",
                    "output": "0x0000000000000000000000000000000000000000000000000000000000000001",
                    "revert": false,
                    "revertMessage": "",
                    "selector": "0xa9059cbb",
                    "status": true,
                    "value": "0"
                },
                "nodeType": 0
            },
            "40": {
                "invocation": {
                    "address": "0xed42cb11b9d03c807ed1ba9c2ed1d3ba5bf37340",
                    "callData": "0x",
                    "decodedMethod": null,
                    "errorInfo": "",
                    "fromAddress": "0xf2919d1d80aff2940274014bef534f7791906ff2",
                    "gasUsed": 62,
                    "id": 40,
                    "methodDecoded": false,
                    "operation": "CALL",
                    "output": "",
                    "revert": false,
                    "revertMessage": "",
                    "selector": "fallback",
                    "status": true,
                    "value": "6.563751031787677615"
                },
                "nodeType": 0
            },
            "41": {
                "invocation": {
                    "address": "0x985b6b9064212091b4b325f68746b77262801bcb",
                    "callData": "0x",
                    "decodedMethod": null,
                    "errorInfo": "",
                    "fromAddress": "0xf2919d1d80aff2940274014bef534f7791906ff2",
                    "gasUsed": 55,
                    "id": 41,
                    "methodDecoded": false,
                    "operation": "CALL",
                    "output": "",
                    "revert": false,
                    "revertMessage": "",
                    "selector": "fallback",
                    "status": true,
                    "value": "0.221001718242009347"
                },
                "nodeType": 0
            },
            "42": {
                "event": {
                    "contract": "0xf2919d1d80aff2940274014bef534f7791906ff2",
                    "decodedLog": {
                        "name": "Price",
                        "params": [
                            {
                                "name": "time",
                                "type": "uint256",
                                "value": "1,672,290,143"
                            },
                            {
                                "name": "price",
                                "type": "uint256",
                                "value": "588,099,620,163,231"
                            }
                        ],
                        "signature": "Price(uint256,uint256)"
                    },
                    "id": 42,
                    "logData": "0x0000000000000000000000000000000000000000000000000000000063ad1f5f000000000000000000000000000000000000000000000000000216df9cf3ce9f",
                    "logDecoded": true,
                    "operation": "EVENT",
                    "revert": false,
                    "status": true,
                    "topics": [
                        "0xd1353c68e79ef70de84ee90d2facf845ec24895116d4a03505aa41785af71f5a"
                    ]
                },
                "nodeType": 1
            },
            "43": {
                "event": {
                    "contract": "0xf2919d1d80aff2940274014bef534f7791906ff2",
                    "decodedLog": {
                        "name": "Transfer",
                        "params": [
                            {
                                "name": "from",
                                "type": "address",
                                "value": "0x0000000000000000000000000000000000000000"
                            },
                            {
                                "name": "to",
                                "type": "address",
                                "value": "0xed42cb11b9d03c807ed1ba9c2ed1d3ba5bf37340"
                            },
                            {
                                "decimalAvailable": true,
                                "name": "value",
                                "type": "uint256",
                                "value": "578,675,968,434,609,156,630,781"
                            }
                        ],
                        "signature": "Transfer(address,address,uint256)"
                    },
                    "id": 43,
                    "logData": "0x000000000000000000000000000000000000000000007a8a164ca69864e5a8fd",
                    "logDecoded": true,
                    "operation": "EVENT",
                    "revert": false,
                    "status": true,
                    "topics": [
                        "0xddf252ad1be2c89b69c2b068fc378daa952ba7f163c4a11628f55a4df523b3ef",
                        "0x0000000000000000000000000000000000000000000000000000000000000000",
                        "0x000000000000000000000000ed42cb11b9d03c807ed1ba9c2ed1d3ba5bf37340"
                    ]
                },
                "nodeType": 1
            },
            "44": {
                "invocation": {
                    "address": "0x985b6b9064212091b4b325f68746b77262801bcb",
                    "callData": "0x",
                    "decodedMethod": null,
                    "errorInfo": "",
                    "fromAddress": "0xf2919d1d80aff2940274014bef534f7791906ff2",
                    "gasUsed": 55,
                    "id": 44,
                    "methodDecoded": false,
                    "operation": "CALL",
                    "output": "",
                    "revert": false,
                    "revertMessage": "",
                    "selector": "fallback",
                    "status": true,
                    "value": "0.235294117647058823"
                },
                "nodeType": 0
            },
            "45": {
                "event": {
                    "contract": "0xf2919d1d80aff2940274014bef534f7791906ff2",
                    "decodedLog": {
                        "name": "Price",
                        "params": [
                            {
                                "name": "time",
                                "type": "uint256",
                                "value": "1,672,290,143"
                            },
                            {
                                "name": "price",
                                "type": "uint256",
                                "value": "13,417,863,815,047"
                            }
                        ],
                        "signature": "Price(uint256,uint256)"
                    },
                    "id": 45,
                    "logData": "0x0000000000000000000000000000000000000000000000000000000063ad1f5f00000000000000000000000000000000000000000000000000000c3417019f87",
                    "logDecoded": true,
                    "operation": "EVENT",
                    "revert": false,
                    "status": true,
                    "topics": [
                        "0xd1353c68e79ef70de84ee90d2facf845ec24895116d4a03505aa41785af71f5a"
                    ]
                },
                "nodeType": 1
            },
            "46": {
                "invocation": {
                    "address": "0xf2919d1d80aff2940274014bef534f7791906ff2",
                    "callData": "0x000000000000000000000000ed42cb11b9d03c807ed1ba9c2ed1d3ba5bf37340",
                    "decodedMethod": {
                        "callParams": [
                            {
                                "name": "account",
                                "type": "address",
                                "value": "0xed42cb11b9d03c807ed1ba9c2ed1d3ba5bf37340"
                            }
                        ],
                        "constructorArguments": "",
                        "name": "balanceOf",
                        "returnParams": [
                            {
                                "decimalAvailable": true,
                                "name": "",
                                "type": "uint256",
                                "value": "578,675,968,434,609,156,630,781"
                            }
                        ],
                        "signature": "balanceOf(address)"
                    },
                    "errorInfo": "",
                    "fromAddress": "0xed42cb11b9d03c807ed1ba9c2ed1d3ba5bf37340",
                    "gasUsed": 886,
                    "id": 46,
                    "methodDecoded": true,
                    "operation": "STATICCALL",
                    "output": "0x000000000000000000000000000000000000000000007a8a164ca69864e5a8fd",
                    "revert": false,
                    "revertMessage": "",
                    "selector": "0x70a08231",
                    "status": true,
                    "value": "0"
                },
                "nodeType": 0
            },
            "47": {
                "invocation": {
                    "address": "0xf2919d1d80aff2940274014bef534f7791906ff2",
                    "callData": "0x000000000000000000000000000000000000000000007a8a164ca69864e5a8fd",
                    "decodedMethod": {
                        "callParams": [
                            {
                                "name": "value",
                                "type": "uint256",
                                "value": "578,675,968,434,609,156,630,781"
                            }
                        ],
                        "constructorArguments": "",
                        "name": "sell",
                        "returnParams": [],
                        "signature": "sell(uint256)"
                    },
                    "errorInfo": "",
                    "fromAddress": "0xed42cb11b9d03c807ed1ba9c2ed1d3ba5bf37340",
                    "gasUsed": 21519,
                    "id": 47,
                    "methodDecoded": true,
                    "operation": "CALL",
                    "output": "",
                    "revert": false,
                    "revertMessage": "",
                    "selector": "0xe4849b32",
                    "status": true,
                    "value": "0"
                },
                "nodeType": 0
            },
            "48": {
                "event": {
                    "contract": "0xf2919d1d80aff2940274014bef534f7791906ff2",
                    "decodedLog": {
                        "name": "Transfer",
                        "params": [
                            {
                                "name": "from",
                                "type": "address",
                                "value": "0xed42cb11b9d03c807ed1ba9c2ed1d3ba5bf37340"
                            },
                            {
                                "name": "to",
                                "type": "address",
                                "value": "0x0000000000000000000000000000000000000000"
                            },
                            {
                                "decimalAvailable": true,
                                "name": "value",
                                "type": "uint256",
                                "value": "578,675,968,434,609,156,630,781"
                            }
                        ],
                        "signature": "Transfer(address,address,uint256)"
                    },
                    "id": 48,
                    "logData": "0x000000000000000000000000000000000000000000007a8a164ca69864e5a8fd",
                    "logDecoded": true,
                    "operation": "EVENT",
                    "revert": false,
                    "status": true,
                    "topics": [
                        "0xddf252ad1be2c89b69c2b068fc378daa952ba7f163c4a11628f55a4df523b3ef",
                        "0x000000000000000000000000ed42cb11b9d03c807ed1ba9c2ed1d3ba5bf37340",
                        "0x0000000000000000000000000000000000000000000000000000000000000000"
                    ]
                },
                "nodeType": 1
            },
            "49": {
                "invocation": {
                    "address": "0xed42cb11b9d03c807ed1ba9c2ed1d3ba5bf37340",
                    "callData": "0x",
                    "decodedMethod": null,
                    "errorInfo": "",
                    "fromAddress": "0xf2919d1d80aff2940274014bef534f7791906ff2",
                    "gasUsed": 62,
                    "id": 49,
                    "methodDecoded": false,
                    "operation": "CALL",
                    "output": "",
                    "revert": false,
                    "revertMessage": "",
                    "selector": "fallback",
                    "status": true,
                    "value": "6.988135803746587935"
                },
                "nodeType": 0
            },
            "5": {
                "event": {
                    "contract": "0xc02aaa39b223fe8d0a0e5c4f27ead9083c756cc2",
                    "decodedLog": {
                        "name": "Transfer",
                        "params": [
                            {
                                "name": "src",
                                "type": "address",
                                "value": "0xba12222222228d8ba445958a75a0704d566bf2c8"
                            },
                            {
                                "name": "dst",
                                "type": "address",
                                "value": "0xed42cb11b9d03c807ed1ba9c2ed1d3ba5bf37340"
                            },
                            {
                                "decimalAvailable": true,
                                "name": "wad",
                                "type": "uint256",
                                "value": "72,500,000,000,000,000,000"
                            }
                        ],
                        "signature": "Transfer(address,address,uint256)"
                    },
                    "id": 5,
                    "logData": "0x000000000000000000000000000000000000000000000003ee23bde0e7d20000",
                    "logDecoded": true,
                    "operation": "EVENT",
                    "revert": false,
                    "status": true,
                    "topics": [
                        "0xddf252ad1be2c89b69c2b068fc378daa952ba7f163c4a11628f55a4df523b3ef",
                        "0x000000000000000000000000ba12222222228d8ba445958a75a0704d566bf2c8",
                        "0x000000000000000000000000ed42cb11b9d03c807ed1ba9c2ed1d3ba5bf37340"
                    ]
                },
                "nodeType": 1
            },
            "50": {
                "invocation": {
                    "address": "0x985b6b9064212091b4b325f68746b77262801bcb",
                    "callData": "0x",
                    "decodedMethod": null,
                    "errorInfo": "",
                    "fromAddress": "0xf2919d1d80aff2940274014bef534f7791906ff2",
                    "gasUsed": 55,
                    "id": 50,
                    "methodDecoded": false,
                    "operation": "CALL",
                    "output": "",
                    "revert": false,
                    "revertMessage": "",
                    "selector": "fallback",
                    "status": true,
                    "value": "0.235290767802915418"
                },
                "nodeType": 0
            },
            "51": {
                "event": {
                    "contract": "0xf2919d1d80aff2940274014bef534f7791906ff2",
                    "decodedLog": {
                        "name": "Price",
                        "params": [
                            {
                                "name": "time",
                                "type": "uint256",
                                "value": "1,672,290,143"
                            },
                            {
                                "name": "price",
                                "type": "uint256",
                                "value": "52,293,378,112,946"
                            }
                        ],
                        "signature": "Price(uint256,uint256)"
                    },
                    "id": 51,
                    "logData": "0x0000000000000000000000000000000000000000000000000000000063ad1f5f00000000000000000000000000000000000000000000000000002f8f8039fdb2",
                    "logDecoded": true,
                    "operation": "EVENT",
                    "revert": false,
                    "status": true,
                    "topics": [
                        "0xd1353c68e79ef70de84ee90d2facf845ec24895116d4a03505aa41785af71f5a"
                    ]
                },
                "nodeType": 1
            },
            "52": {
                "invocation": {
                    "address": "0xc02aaa39b223fe8d0a0e5c4f27ead9083c756cc2",
                    "callData": "0x",
                    "decodedMethod": {
                        "callParams": [],
                        "constructorArguments": "",
                        "name": "deposit",
                        "returnParams": [],
                        "signature": "deposit()"
                    },
                    "errorInfo": "",
                    "fromAddress": "0xed42cb11b9d03c807ed1ba9c2ed1d3ba5bf37340",
                    "gasUsed": 21974,
                    "id": 52,
                    "methodDecoded": true,
                    "operation": "CALL",
                    "output": "",
                    "revert": false,
                    "revertMessage": "",
                    "selector": "0xd0e30db0",
                    "status": true,
                    "value": "72.5"
                },
                "nodeType": 0
            },
            "53": {
                "event": {
                    "contract": "0xc02aaa39b223fe8d0a0e5c4f27ead9083c756cc2",
                    "decodedLog": {
                        "name": "Deposit",
                        "params": [
                            {
                                "name": "dst",
                                "type": "address",
                                "value": "0xed42cb11b9d03c807ed1ba9c2ed1d3ba5bf37340"
                            },
                            {
                                "name": "wad",
                                "type": "uint256",
                                "value": "72,500,000,000,000,000,000"
                            }
                        ],
                        "signature": "Deposit(address,uint256)"
                    },
                    "id": 53,
                    "logData": "0x000000000000000000000000000000000000000000000003ee23bde0e7d20000",
                    "logDecoded": true,
                    "operation": "EVENT",
                    "revert": false,
                    "status": true,
                    "topics": [
                        "0xe1fffcc4923d04b559f4d29a8bfc6cda04eb5b0d3c460751c2402c5c5cc9109c",
                        "0x000000000000000000000000ed42cb11b9d03c807ed1ba9c2ed1d3ba5bf37340"
                    ]
                },
                "nodeType": 1
            },
            "54": {
                "invocation": {
                    "address": "0xc02aaa39b223fe8d0a0e5c4f27ead9083c756cc2",
                    "callData": "0x000000000000000000000000ba12222222228d8ba445958a75a0704d566bf2c8000000000000000000000000000000000000000000000003ee23bde0e7d20000",
                    "decodedMethod": {
                        "callParams": [
                            {
                                "name": "dst",
                                "type": "address",
                                "value": "0xba12222222228d8ba445958a75a0704d566bf2c8"
                            },
                            {
                                "decimalAvailable": true,
                                "name": "wad",
                                "type": "uint256",
                                "value": "72,500,000,000,000,000,000"
                            }
                        ],
                        "constructorArguments": "",
                        "name": "transfer",
                        "returnParams": [
                            {
                                "name": "",
                                "type": "bool",
                                "value": true
                            }
                        ],
                        "signature": "transfer(address,uint256)"
                    },
                    "errorInfo": "",
                    "fromAddress": "0xed42cb11b9d03c807ed1ba9c2ed1d3ba5bf37340",
                    "gasUsed": 3262,
                    "id": 54,
                    "methodDecoded": true,
                    "operation": "CALL",
                    "output": "0x0000000000000000000000000000000000000000000000000000000000000001",
                    "revert": false,
                    "revertMessage": "",
                    "selector": "0xa9059cbb",
                    "status": true,
                    "value": "0"
                },
                "nodeType": 0
            },
            "55": {
                "event": {
                    "contract": "0xc02aaa39b223fe8d0a0e5c4f27ead9083c756cc2",
                    "decodedLog": {
                        "name": "Transfer",
                        "params": [
                            {
                                "name": "src",
                                "type": "address",
                                "value": "0xed42cb11b9d03c807ed1ba9c2ed1d3ba5bf37340"
                            },
                            {
                                "name": "dst",
                                "type": "address",
                                "value": "0xba12222222228d8ba445958a75a0704d566bf2c8"
                            },
                            {
                                "decimalAvailable": true,
                                "name": "wad",
                                "type": "uint256",
                                "value": "72,500,000,000,000,000,000"
                            }
                        ],
                        "signature": "Transfer(address,address,uint256)"
                    },
                    "id": 55,
                    "logData": "0x000000000000000000000000000000000000000000000003ee23bde0e7d20000",
                    "logDecoded": true,
                    "operation": "EVENT",
                    "revert": false,
                    "status": true,
                    "topics": [
                        "0xddf252ad1be2c89b69c2b068fc378daa952ba7f163c4a11628f55a4df523b3ef",
                        "0x000000000000000000000000ed42cb11b9d03c807ed1ba9c2ed1d3ba5bf37340",
                        "0x000000000000000000000000ba12222222228d8ba445958a75a0704d566bf2c8"
                    ]
                },
                "nodeType": 1
            },
            "56": {
                "invocation": {
                    "address": "0xc02aaa39b223fe8d0a0e5c4f27ead9083c756cc2",
                    "callData": "0x000000000000000000000000ba12222222228d8ba445958a75a0704d566bf2c8",
                    "decodedMethod": {
                        "callParams": [
                            {
                                "name": "",
                                "type": "address",
                                "value": "0xba12222222228d8ba445958a75a0704d566bf2c8"
                            }
                        ],
                        "constructorArguments": "",
                        "name": "balanceOf",
                        "returnParams": [
                            {
                                "decimalAvailable": true,
                                "name": "",
                                "type": "uint256",
                                "value": "150,595,305,800,397,677,345,602"
                            }
                        ],
                        "signature": "balanceOf(address)"
                    },
                    "errorInfo": "",
                    "fromAddress": "0xba12222222228d8ba445958a75a0704d566bf2c8",
                    "gasUsed": 534,
                    "id": 56,
                    "methodDecoded": true,
                    "operation": "STATICCALL",
                    "output": "0x000000000000000000000000000000000000000000001fe3c9b2e155eae73b42",
                    "revert": false,
                    "revertMessage": "",
                    "selector": "0x70a08231",
                    "status": true,
                    "value": "0"
                },
                "nodeType": 0
            },
            "57": {
                "event": {
                    "contract": "0xba12222222228d8ba445958a75a0704d566bf2c8",
                    "decodedLog": {
                        "name": "FlashLoan",
                        "params": [
                            {
                                "name": "recipient",
                                "type": "address",
                                "value": "0xed42cb11b9d03c807ed1ba9c2ed1d3ba5bf37340"
                            },
                            {
                                "name": "token",
                                "type": "address",
                                "value": "0xc02aaa39b223fe8d0a0e5c4f27ead9083c756cc2"
                            },
                            {
                                "name": "amount",
                                "type": "uint256",
                                "value": "72,500,000,000,000,000,000"
                            },
                            {
                                "name": "feeAmount",
                                "type": "uint256",
                                "value": "0"
                            }
                        ],
                        "signature": "FlashLoan(address,address,uint256,uint256)"
                    },
                    "id": 57,
                    "logData": "0x000000000000000000000000000000000000000000000003ee23bde0e7d200000000000000000000000000000000000000000000000000000000000000000000",
                    "logDecoded": true,
                    "operation": "EVENT",
                    "revert": false,
                    "status": true,
                    "topics": [
                        "0x0d7d75e01ab95780d3cd1c8ec0dd6c2ce19e3a20427eec8bf53283b6fb8e95f0",
                        "0x000000000000000000000000ed42cb11b9d03c807ed1ba9c2ed1d3ba5bf37340",
                        "0x000000000000000000000000c02aaa39b223fe8d0a0e5c4f27ead9083c756cc2"
                    ]
                },
                "nodeType": 1
            },
            "58": {
                "invocation": {
                    "address": "0x0348d20b74ddc0ac9bfc3626e06d30bb6fac213b",
                    "callData": "0x",
                    "decodedMethod": null,
                    "errorInfo": "",
                    "fromAddress": "0xed42cb11b9d03c807ed1ba9c2ed1d3ba5bf37340",
                    "gasUsed": 0,
                    "id": 58,
                    "methodDecoded": false,
                    "operation": "CALL",
                    "output": "",
                    "revert": false,
                    "revertMessage": "",
                    "selector": "fallback",
                    "status": true,
                    "value": "15.324469731061671907"
                },
                "nodeType": 0
            },
            "6": {
                "invocation": {
                    "address": "0xed42cb11b9d03c807ed1ba9c2ed1d3ba5bf37340",
                    "callData": "0x000000000000000000000000000000000000000000000000000000000000008000000000000000000000000000000000000000000000000000000000000000c0000000000000000000000000000000000000000000000000000000000000010000000000000000000000000000000000000000000000000000000000000001400000000000000000000000000000000000000000000000000000000000000001000000000000000000000000c02aaa39b223fe8d0a0e5c4f27ead9083c756cc20000000000000000000000000000000000000000000000000000000000000001000000000000000000000000000000000000000000000003ee23bde0e7d20000000000000000000000000000000000000000000000000000000000000000000100000000000000000000000000000000000000000000000000000000000000000000000000000000000000000000000000000000000000000000000000000080000000000000000000000000000000000000000000000001314fb37062980000000000000000000000000000000000000000000000000002bcd40a70853a000000000000000000000000000000000000000000000000000030927f74c9de00000000000000000000000000000000000000000000000000006f05b59d3b200000",
                    "decodedMethod": {
                        "callParams": [
                            {
                                "name": "tokens",
                                "type": "address[]",
                                "value": [
                                    "0xc02aaa39b223fe8d0a0e5c4f27ead9083c756cc2"
                                ]
                            },
                            {
                                "name": "amounts",
                                "type": "uint256[]",
                                "value": [
                                    "72,500,000,000,000,000,000"
                                ]
                            },
                            {
                                "name": "feeAmounts",
                                "type": "uint256[]",
                                "value": [
                                    "0"
                                ]
                            },
                            {
                                "name": "userData",
                                "type": "bytes",
                                "value": "0x000000000000000000000000000000000000000000000001314fb37062980000000000000000000000000000000000000000000000000002bcd40a70853a000000000000000000000000000000000000000000000000000030927f74c9de00000000000000000000000000000000000000000000000000006f05b59d3b200000"
                            }
                        ],
                        "constructorArguments": "",
                        "name": "receiveFlashLoan",
                        "returnParams": [],
                        "signature": "receiveFlashLoan(address[],uint256[],uint256[],bytes)"
                    },
                    "errorInfo": "",
                    "fromAddress": "0xba12222222228d8ba445958a75a0704d566bf2c8",
                    "gasUsed": 350490,
                    "id": 6,
                    "methodDecoded": true,
                    "operation": "CALL",
                    "output": "",
                    "revert": false,
                    "revertMessage": "",
                    "selector": "0xf04f2707",
                    "status": true,
                    "value": "0"
                },
                "nodeType": 0
            },
            "7": {
                "invocation": {
                    "address": "0xc02aaa39b223fe8d0a0e5c4f27ead9083c756cc2",
                    "callData": "0x000000000000000000000000000000000000000000000003ee23bde0e7d20000",
                    "decodedMethod": {
                        "callParams": [
                            {
                                "name": "wad",
                                "type": "uint256",
                                "value": "72,500,000,000,000,000,000"
                            }
                        ],
                        "constructorArguments": "",
                        "name": "withdraw",
                        "returnParams": [],
                        "signature": "withdraw(uint256)"
                    },
                    "errorInfo": "",
                    "fromAddress": "0xed42cb11b9d03c807ed1ba9c2ed1d3ba5bf37340",
                    "gasUsed": 9202,
                    "id": 7,
                    "methodDecoded": true,
                    "operation": "CALL",
                    "output": "",
                    "revert": false,
                    "revertMessage": "",
                    "selector": "0x2e1a7d4d",
                    "status": true,
                    "value": "0"
                },
                "nodeType": 0
            },
            "8": {
                "invocation": {
                    "address": "0xed42cb11b9d03c807ed1ba9c2ed1d3ba5bf37340",
                    "callData": "0x",
                    "decodedMethod": null,
                    "errorInfo": "",
                    "fromAddress": "0xc02aaa39b223fe8d0a0e5c4f27ead9083c756cc2",
                    "gasUsed": 62,
                    "id": 8,
                    "methodDecoded": false,
                    "operation": "CALL",
                    "output": "",
                    "revert": false,
                    "revertMessage": "",
                    "selector": "fallback",
                    "status": true,
                    "value": "72.5"
                },
                "nodeType": 0
            },
            "9": {
                "event": {
                    "contract": "0xc02aaa39b223fe8d0a0e5c4f27ead9083c756cc2",
                    "decodedLog": {
                        "name": "Withdrawal",
                        "params": [
                            {
                                "name": "src",
                                "type": "address",
                                "value": "0xed42cb11b9d03c807ed1ba9c2ed1d3ba5bf37340"
                            },
                            {
                                "name": "wad",
                                "type": "uint256",
                                "value": "72,500,000,000,000,000,000"
                            }
                        ],
                        "signature": "Withdrawal(address,uint256)"
                    },
                    "id": 9,
                    "logData": "0x000000000000000000000000000000000000000000000003ee23bde0e7d20000",
                    "logDecoded": true,
                    "operation": "EVENT",
                    "revert": false,
                    "status": true,
                    "topics": [
                        "0x7fcf532c15f0a6db0bd6d0e038bea71d30d808c7d98cb3bf7268a95bf5081b65",
                        "0x000000000000000000000000ed42cb11b9d03c807ed1ba9c2ed1d3ba5bf37340"
                    ]
                },
                "nodeType": 1
            }
        },
        "gasFlame": [
            {
                "children": [
                    {
                        "children": [
                            {
                                "children": [],
                                "depth": 0,
                                "name": "Initial Gas",
                                "value": 22748
                            },
                            {
                                "children": [
                                    {
                                        "children": [
                                            {
                                                "children": [],
                                                "depth": 2,
                                                "name": "balanceOf",
                                                "value": 2534
                                            },
                                            {
                                                "children": [],
                                                "depth": 2,
                                                "name": "getFlashLoanFeePercentage",
                                                "value": 2350
                                            },
                                            {
                                                "children": [],
                                                "depth": 2,
                                                "name": "transfer",
                                                "value": 27962
                                            },
                                            {
                                                "children": [
                                                    {
                                                        "children": [
                                                            {
                                                                "children": [],
                                                                "depth": 4,
                                                                "name": "fallback",
                                                                "value": 62
                                                            }
                                                        ],
                                                        "depth": 3,
                                                        "name": "withdraw",
                                                        "value": 9202
                                                    },
                                                    {
                                                        "children": [
                                                            {
                                                                "children": [],
                                                                "depth": 4,
                                                                "name": "fallback",
                                                                "value": 55
                                                            }
                                                        ],
                                                        "depth": 3,
                                                        "name": "buyJay",
                                                        "value": 52074
                                                    },
                                                    {
                                                        "children": [
                                                            {
                                                                "children": [
                                                                    {
                                                                        "children": [],
                                                                        "depth": 5,
                                                                        "name": "balanceOf",
                                                                        "value": 886
                                                                    },
                                                                    {
                                                                        "children": [
                                                                            {
                                                                                "children": [],
                                                                                "depth": 6,
                                                                                "name": "fallback",
                                                                                "value": 62
                                                                            },
                                                                            {
                                                                                "children": [],
                                                                                "depth": 6,
                                                                                "name": "fallback",
                                                                                "value": 55
                                                                            }
                                                                        ],
                                                                        "depth": 5,
                                                                        "name": "sell",
                                                                        "value": 21519
                                                                    }
                                                                ],
                                                                "depth": 4,
                                                                "name": "transferFrom",
                                                                "value": 24291
                                                            },
                                                            {
                                                                "children": [],
                                                                "depth": 4,
                                                                "name": "fallback",
                                                                "value": 55
                                                            }
                                                        ],
                                                        "depth": 3,
                                                        "name": "buyJay",
                                                        "value": 68117
                                                    },
                                                    {
                                                        "children": [],
                                                        "depth": 3,
                                                        "name": "balanceOf",
                                                        "value": 886
                                                    },
                                                    {
                                                        "children": [
                                                            {
                                                                "children": [],
                                                                "depth": 4,
                                                                "name": "fallback",
                                                                "value": 62
                                                            },
                                                            {
                                                                "children": [],
                                                                "depth": 4,
                                                                "name": "fallback",
                                                                "value": 55
                                                            }
                                                        ],
                                                        "depth": 3,
                                                        "name": "sell",
                                                        "value": 21519
                                                    },
                                                    {
                                                        "children": [
                                                            {
                                                                "children": [],
                                                                "depth": 4,
                                                                "name": "fallback",
                                                                "value": 55
                                                            }
                                                        ],
                                                        "depth": 3,
                                                        "name": "buyJay",
                                                        "value": 39574
                                                    },
                                                    {
                                                        "children": [
                                                            {
                                                                "children": [
                                                                    {
                                                                        "children": [],
                                                                        "depth": 5,
                                                                        "name": "balanceOf",
                                                                        "value": 886
                                                                    },
                                                                    {
                                                                        "children": [
                                                                            {
                                                                                "children": [],
                                                                                "depth": 6,
                                                                                "name": "fallback",
                                                                                "value": 62
                                                                            },
                                                                            {
                                                                                "children": [],
                                                                                "depth": 6,
                                                                                "name": "fallback",
                                                                                "value": 55
                                                                            }
                                                                        ],
                                                                        "depth": 5,
                                                                        "name": "sell",
                                                                        "value": 21519
                                                                    }
                                                                ],
                                                                "depth": 4,
                                                                "name": "transferFrom",
                                                                "value": 24291
                                                            },
                                                            {
                                                                "children": [],
                                                                "depth": 4,
                                                                "name": "fallback",
                                                                "value": 55
                                                            }
                                                        ],
                                                        "depth": 3,
                                                        "name": "buyJay",
                                                        "value": 65317
                                                    },
                                                    {
                                                        "children": [],
                                                        "depth": 3,
                                                        "name": "balanceOf",
                                                        "value": 886
                                                    },
                                                    {
                                                        "children": [
                                                            {
                                                                "children": [],
                                                                "depth": 4,
                                                                "name": "fallback",
                                                                "value": 62
                                                            },
                                                            {
                                                                "children": [],
                                                                "depth": 4,
                                                                "name": "fallback",
                                                                "value": 55
                                                            }
                                                        ],
                                                        "depth": 3,
                                                        "name": "sell",
                                                        "value": 21519
                                                    },
                                                    {
                                                        "children": [],
                                                        "depth": 3,
                                                        "name": "deposit",
                                                        "value": 21974
                                                    },
                                                    {
                                                        "children": [],
                                                        "depth": 3,
                                                        "name": "transfer",
                                                        "value": 3262
                                                    }
                                                ],
                                                "depth": 2,
                                                "name": "receiveFlashLoan",
                                                "value": 350490
                                            },
                                            {
                                                "children": [],
                                                "depth": 2,
                                                "name": "balanceOf",
                                                "value": 534
                                            }
                                        ],
                                        "depth": 1,
                                        "name": "flashLoan",
                                        "value": 404604
                                    },
                                    {
                                        "children": [],
                                        "depth": 1,
                                        "name": "fallback",
                                        "value": 0
                                    }
                                ],
                                "depth": 0,
                                "name": "Executed Gas",
                                "value": 438084
                            }
                        ],
                        "depth": -1,
                        "name": "Actual Gas Used",
                        "value": 368666
                    },
                    {
                        "children": [],
                        "depth": -1,
                        "name": "Refunded Gas",
                        "value": 92166
                    }
                ],
                "depth": -2,
                "name": "Total Gas",
                "value": 460832
            }
        ],
        "isConfirmed": true,
        "mainTrace": [
            {
                "children": [
                    {
                        "children": [
                            {
                                "children": [
                                    {
                                        "children": [],
                                        "depth": 2,
                                        "id": 2,
                                        "order": 2
                                    },
                                    {
                                        "children": [],
                                        "depth": 2,
                                        "id": 3,
                                        "order": 3
                                    },
                                    {
                                        "children": [
                                            {
                                                "children": [],
                                                "depth": 3,
                                                "id": 5,
                                                "order": 5
                                            }
                                        ],
                                        "depth": 2,
                                        "id": 4,
                                        "order": 4
                                    },
                                    {
                                        "children": [
                                            {
                                                "children": [
                                                    {
                                                        "children": [],
                                                        "depth": 4,
                                                        "id": 8,
                                                        "order": 8
                                                    },
                                                    {
                                                        "children": [],
                                                        "depth": 4,
                                                        "id": 9,
                                                        "order": 9
                                                    }
                                                ],
                                                "depth": 3,
                                                "id": 7,
                                                "order": 7
                                            },
                                            {
                                                "children": [
                                                    {
                                                        "children": [],
                                                        "depth": 4,
                                                        "id": 11,
                                                        "order": 11
                                                    },
                                                    {
                                                        "children": [],
                                                        "depth": 4,
                                                        "id": 12,
                                                        "order": 12
                                                    },
                                                    {
                                                        "children": [],
                                                        "depth": 4,
                                                        "id": 13,
                                                        "order": 13
                                                    }
                                                ],
                                                "depth": 3,
                                                "id": 10,
                                                "order": 10
                                            },
                                            {
                                                "children": [
                                                    {
                                                        "children": [
                                                            {
                                                                "children": [],
                                                                "depth": 5,
                                                                "id": 16,
                                                                "order": 16
                                                            },
                                                            {
                                                                "children": [
                                                                    {
                                                                        "children": [],
                                                                        "depth": 6,
                                                                        "id": 18,
                                                                        "order": 18
                                                                    },
                                                                    {
                                                                        "children": [],
                                                                        "depth": 6,
                                                                        "id": 19,
                                                                        "order": 19
                                                                    },
                                                                    {
                                                                        "children": [],
                                                                        "depth": 6,
                                                                        "id": 20,
                                                                        "order": 20
                                                                    },
                                                                    {
                                                                        "children": [],
                                                                        "depth": 6,
                                                                        "id": 21,
                                                                        "order": 21
                                                                    }
                                                                ],
                                                                "depth": 5,
                                                                "id": 17,
                                                                "order": 17
                                                            }
                                                        ],
                                                        "depth": 4,
                                                        "id": 15,
                                                        "order": 15
                                                    },
                                                    {
                                                        "children": [],
                                                        "depth": 4,
                                                        "id": 22,
                                                        "order": 22
                                                    },
                                                    {
                                                        "children": [],
                                                        "depth": 4,
                                                        "id": 23,
                                                        "order": 23
                                                    },
                                                    {
                                                        "children": [],
                                                        "depth": 4,
                                                        "id": 24,
                                                        "order": 24
                                                    }
                                                ],
                                                "depth": 3,
                                                "id": 14,
                                                "order": 14
                                            },
                                            {
                                                "children": [],
                                                "depth": 3,
                                                "id": 25,
                                                "order": 25
                                            },
                                            {
                                                "children": [
                                                    {
                                                        "children": [],
                                                        "depth": 4,
                                                        "id": 27,
                                                        "order": 27
                                                    },
                                                    {
                                                        "children": [],
                                                        "depth": 4,
                                                        "id": 28,
                                                        "order": 28
                                                    },
                                                    {
                                                        "children": [],
                                                        "depth": 4,
                                                        "id": 29,
                                                        "order": 29
                                                    },
                                                    {
                                                        "children": [],
                                                        "depth": 4,
                                                        "id": 30,
                                                        "order": 30
                                                    }
                                                ],
                                                "depth": 3,
                                                "id": 26,
                                                "order": 26
                                            },
                                            {
                                                "children": [
                                                    {
                                                        "children": [],
                                                        "depth": 4,
                                                        "id": 32,
                                                        "order": 32
                                                    },
                                                    {
                                                        "children": [],
                                                        "depth": 4,
                                                        "id": 33,
                                                        "order": 33
                                                    },
                                                    {
                                                        "children": [],
                                                        "depth": 4,
                                                        "id": 34,
                                                        "order": 34
                                                    }
                                                ],
                                                "depth": 3,
                                                "id": 31,
                                                "order": 31
                                            },
                                            {
                                                "children": [
                                                    {
                                                        "children": [
                                                            {
                                                                "children": [],
                                                                "depth": 5,
                                                                "id": 37,
                                                                "order": 37
                                                            },
                                                            {
                                                                "children": [
                                                                    {
                                                                        "children": [],
                                                                        "depth": 6,
                                                                        "id": 39,
                                                                        "order": 39
                                                                    },
                                                                    {
                                                                        "children": [],
                                                                        "depth": 6,
                                                                        "id": 40,
                                                                        "order": 40
                                                                    },
                                                                    {
                                                                        "children": [],
                                                                        "depth": 6,
                                                                        "id": 41,
                                                                        "order": 41
                                                                    },
                                                                    {
                                                                        "children": [],
                                                                        "depth": 6,
                                                                        "id": 42,
                                                                        "order": 42
                                                                    }
                                                                ],
                                                                "depth": 5,
                                                                "id": 38,
                                                                "order": 38
                                                            }
                                                        ],
                                                        "depth": 4,
                                                        "id": 36,
                                                        "order": 36
                                                    },
                                                    {
                                                        "children": [],
                                                        "depth": 4,
                                                        "id": 43,
                                                        "order": 43
                                                    },
                                                    {
                                                        "children": [],
                                                        "depth": 4,
                                                        "id": 44,
                                                        "order": 44
                                                    },
                                                    {
                                                        "children": [],
                                                        "depth": 4,
                                                        "id": 45,
                                                        "order": 45
                                                    }
                                                ],
                                                "depth": 3,
                                                "id": 35,
                                                "order": 35
                                            },
                                            {
                                                "children": [],
                                                "depth": 3,
                                                "id": 46,
                                                "order": 46
                                            },
                                            {
                                                "children": [
                                                    {
                                                        "children": [],
                                                        "depth": 4,
                                                        "id": 48,
                                                        "order": 48
                                                    },
                                                    {
                                                        "children": [],
                                                        "depth": 4,
                                                        "id": 49,
                                                        "order": 49
                                                    },
                                                    {
                                                        "children": [],
                                                        "depth": 4,
                                                        "id": 50,
                                                        "order": 50
                                                    },
                                                    {
                                                        "children": [],
                                                        "depth": 4,
                                                        "id": 51,
                                                        "order": 51
                                                    }
                                                ],
                                                "depth": 3,
                                                "id": 47,
                                                "order": 47
                                            },
                                            {
                                                "children": [
                                                    {
                                                        "children": [],
                                                        "depth": 4,
                                                        "id": 53,
                                                        "order": 53
                                                    }
                                                ],
                                                "depth": 3,
                                                "id": 52,
                                                "order": 52
                                            },
                                            {
                                                "children": [
                                                    {
                                                        "children": [],
                                                        "depth": 4,
                                                        "id": 55,
                                                        "order": 55
                                                    }
                                                ],
                                                "depth": 3,
                                                "id": 54,
                                                "order": 54
                                            }
                                        ],
                                        "depth": 2,
                                        "id": 6,
                                        "order": 6
                                    },
                                    {
                                        "children": [],
                                        "depth": 2,
                                        "id": 56,
                                        "order": 56
                                    },
                                    {
                                        "children": [],
                                        "depth": 2,
                                        "id": 57,
                                        "order": 57
                                    }
                                ],
                                "depth": 1,
                                "id": 1,
                                "order": 1
                            },
                            {
                                "children": [],
                                "depth": 1,
                                "id": 58,
                                "order": 58
                            }
                        ],
                        "depth": 0,
                        "id": 0,
                        "order": 0
                    }
                ],
                "depth": -1,
                "id": -1,
                "order": -1
            }
        ],
        "mainTraceNodeCount": 59,
        "parentIdMap": {
            "0": -1,
            "1": 0,
            "10": 6,
            "11": 10,
            "12": 10,
            "13": 10,
            "14": 6,
            "15": 14,
            "16": 15,
            "17": 15,
            "18": 17,
            "19": 17,
            "2": 1,
            "20": 17,
            "21": 17,
            "22": 14,
            "23": 14,
            "24": 14,
            "25": 6,
            "26": 6,
            "27": 26,
            "28": 26,
            "29": 26,
            "3": 1,
            "30": 26,
            "31": 6,
            "32": 31,
            "33": 31,
            "34": 31,
            "35": 6,
            "36": 35,
            "37": 36,
            "38": 36,
            "39": 38,
            "4": 1,
            "40": 38,
            "41": 38,
            "42": 38,
            "43": 35,
            "44": 35,
            "45": 35,
            "46": 6,
            "47": 6,
            "48": 47,
            "49": 47,
            "5": 4,
            "50": 47,
            "51": 47,
            "52": 6,
            "53": 52,
            "54": 6,
            "55": 54,
            "56": 1,
            "57": 1,
            "58": 0,
            "6": 1,
            "7": 6,
            "8": 7,
            "9": 7
        },
        "tidyTrace": [
            {
                "children": [
                    {
                        "children": [
                            {
                                "children": [
                                    {
                                        "children": [
                                            {
                                                "children": [],
                                                "depth": 3,
                                                "id": 5,
                                                "order": 5
                                            }
                                        ],
                                        "depth": 2,
                                        "id": 4,
                                        "order": 4
                                    },
                                    {
                                        "children": [
                                            {
                                                "children": [
                                                    {
                                                        "children": [],
                                                        "depth": 4,
                                                        "id": 8,
                                                        "order": 8
                                                    },
                                                    {
                                                        "children": [],
                                                        "depth": 4,
                                                        "id": 9,
                                                        "order": 9
                                                    }
                                                ],
                                                "depth": 3,
                                                "id": 7,
                                                "order": 7
                                            },
                                            {
                                                "children": [
                                                    {
                                                        "children": [],
                                                        "depth": 4,
                                                        "id": 11,
                                                        "order": 11
                                                    },
                                                    {
                                                        "children": [],
                                                        "depth": 4,
                                                        "id": 12,
                                                        "order": 12
                                                    },
                                                    {
                                                        "children": [],
                                                        "depth": 4,
                                                        "id": 13,
                                                        "order": 13
                                                    }
                                                ],
                                                "depth": 3,
                                                "id": 10,
                                                "order": 10
                                            },
                                            {
                                                "children": [
                                                    {
                                                        "children": [
                                                            {
                                                                "children": [
                                                                    {
                                                                        "children": [],
                                                                        "depth": 6,
                                                                        "id": 18,
                                                                        "order": 18
                                                                    },
                                                                    {
                                                                        "children": [],
                                                                        "depth": 6,
                                                                        "id": 19,
                                                                        "order": 19
                                                                    },
                                                                    {
                                                                        "children": [],
                                                                        "depth": 6,
                                                                        "id": 20,
                                                                        "order": 20
                                                                    },
                                                                    {
                                                                        "children": [],
                                                                        "depth": 6,
                                                                        "id": 21,
                                                                        "order": 21
                                                                    }
                                                                ],
                                                                "depth": 5,
                                                                "id": 17,
                                                                "order": 17
                                                            }
                                                        ],
                                                        "depth": 4,
                                                        "id": 15,
                                                        "order": 15
                                                    },
                                                    {
                                                        "children": [],
                                                        "depth": 4,
                                                        "id": 22,
                                                        "order": 22
                                                    },
                                                    {
                                                        "children": [],
                                                        "depth": 4,
                                                        "id": 23,
                                                        "order": 23
                                                    },
                                                    {
                                                        "children": [],
                                                        "depth": 4,
                                                        "id": 24,
                                                        "order": 24
                                                    }
                                                ],
                                                "depth": 3,
                                                "id": 14,
                                                "order": 14
                                            },
                                            {
                                                "children": [
                                                    {
                                                        "children": [],
                                                        "depth": 4,
                                                        "id": 27,
                                                        "order": 27
                                                    },
                                                    {
                                                        "children": [],
                                                        "depth": 4,
                                                        "id": 28,
                                                        "order": 28
                                                    },
                                                    {
                                                        "children": [],
                                                        "depth": 4,
                                                        "id": 29,
                                                        "order": 29
                                                    },
                                                    {
                                                        "children": [],
                                                        "depth": 4,
                                                        "id": 30,
                                                        "order": 30
                                                    }
                                                ],
                                                "depth": 3,
                                                "id": 26,
                                                "order": 26
                                            },
                                            {
                                                "children": [
                                                    {
                                                        "children": [],
                                                        "depth": 4,
                                                        "id": 32,
                                                        "order": 32
                                                    },
                                                    {
                                                        "children": [],
                                                        "depth": 4,
                                                        "id": 33,
                                                        "order": 33
                                                    },
                                                    {
                                                        "children": [],
                                                        "depth": 4,
                                                        "id": 34,
                                                        "order": 34
                                                    }
                                                ],
                                                "depth": 3,
                                                "id": 31,
                                                "order": 31
                                            },
                                            {
                                                "children": [
                                                    {
                                                        "children": [
                                                            {
                                                                "children": [
                                                                    {
                                                                        "children": [],
                                                                        "depth": 6,
                                                                        "id": 39,
                                                                        "order": 39
                                                                    },
                                                                    {
                                                                        "children": [],
                                                                        "depth": 6,
                                                                        "id": 40,
                                                                        "order": 40
                                                                    },
                                                                    {
                                                                        "children": [],
                                                                        "depth": 6,
                                                                        "id": 41,
                                                                        "order": 41
                                                                    },
                                                                    {
                                                                        "children": [],
                                                                        "depth": 6,
                                                                        "id": 42,
                                                                        "order": 42
                                                                    }
                                                                ],
                                                                "depth": 5,
                                                                "id": 38,
                                                                "order": 38
                                                            }
                                                        ],
                                                        "depth": 4,
                                                        "id": 36,
                                                        "order": 36
                                                    },
                                                    {
                                                        "children": [],
                                                        "depth": 4,
                                                        "id": 43,
                                                        "order": 43
                                                    },
                                                    {
                                                        "children": [],
                                                        "depth": 4,
                                                        "id": 44,
                                                        "order": 44
                                                    },
                                                    {
                                                        "children": [],
                                                        "depth": 4,
                                                        "id": 45,
                                                        "order": 45
                                                    }
                                                ],
                                                "depth": 3,
                                                "id": 35,
                                                "order": 35
                                            },
                                            {
                                                "children": [
                                                    {
                                                        "children": [],
                                                        "depth": 4,
                                                        "id": 48,
                                                        "order": 48
                                                    },
                                                    {
                                                        "children": [],
                                                        "depth": 4,
                                                        "id": 49,
                                                        "order": 49
                                                    },
                                                    {
                                                        "children": [],
                                                        "depth": 4,
                                                        "id": 50,
                                                        "order": 50
                                                    },
                                                    {
                                                        "children": [],
                                                        "depth": 4,
                                                        "id": 51,
                                                        "order": 51
                                                    }
                                                ],
                                                "depth": 3,
                                                "id": 47,
                                                "order": 47
                                            },
                                            {
                                                "children": [
                                                    {
                                                        "children": [],
                                                        "depth": 4,
                                                        "id": 53,
                                                        "order": 53
                                                    }
                                                ],
                                                "depth": 3,
                                                "id": 52,
                                                "order": 52
                                            },
                                            {
                                                "children": [
                                                    {
                                                        "children": [],
                                                        "depth": 4,
                                                        "id": 55,
                                                        "order": 55
                                                    }
                                                ],
                                                "depth": 3,
                                                "id": 54,
                                                "order": 54
                                            }
                                        ],
                                        "depth": 2,
                                        "id": 6,
                                        "order": 6
                                    },
                                    {
                                        "children": [],
                                        "depth": 2,
                                        "id": 57,
                                        "order": 57
                                    }
                                ],
                                "depth": 1,
                                "id": 1,
                                "order": 1
                            },
                            {
                                "children": [],
                                "depth": 1,
                                "id": 58,
                                "order": 58
                            }
                        ],
                        "depth": 0,
                        "id": 0,
                        "order": 0
                    }
                ],
                "depth": -1,
                "id": -1,
                "order": -1
            }
        ],
        "tidyTraceNodeCount": 52
    },
    "state_change": {
        "stateChanges": [
            {
                "address": "0xed42cb11b9d03c807ed1ba9c2ed1d3ba5bf37340",
                "erc": "",
                "slots": [
                    {
                        "current": "0x000000000000000000000000f2919d1d80aff2940274014bef534f7791906ff2",
                        "key": "0x0000000000000000000000000000000000000000000000000000000000000000",
                        "prev": "0x0000000000000000000000000000000000000000000000000000000000000000"
                    }
                ],
                "storageVariables": []
            },
            {
                "address": "0xf2919d1d80aff2940274014bef534f7791906ff2",
                "erc": "ERC-20",
                "slots": [
                    {
                        "current": "0x0000000000000000000000000000000000000000000000000000000000002135",
                        "key": "0x0000000000000000000000000000000000000000000000000000000000000009",
                        "prev": "0x0000000000000000000000000000000000000000000000000000000000002133"
                    }
                ],
                "storageVariables": [
                    {
                        "name": "nftsSold",
                        "type": "uint256",
                        "value": {
                            "current": "8501",
                            "prev": "8499",
                            "typeTag": 1
                        }
                    }
                ]
            }
        ]
    }
}